1                        J E S 2  J O B  L O G  --  S Y S T E M  S Y S B  --  N O D E  R L G
0
 12.56.04 JOB03566 ---- MONDAY,    15 MAR 2004 ----
 12.56.04 JOB03566  ICH70001I GG$SLP   LAST ACCESS AT 12:55:44 ON MONDAY, MARCH 15, 2004
 12.56.04 JOB03566  $HASP373 WYL#SYSV STARTED - INIT 9    - CLASS B - SYS SYSB
 12.56.04 JOB03566  ***  HCMD      STEP $$QUIET
 12.56.04 JOB03566  PUR * Q OUT MUL
 12.56.04 JOB03566  JOB 5977 WYL#SYSV WILL BE PURGED
 12.56.05 JOB03566  WYL#SYSV.$$QUIET .         RC=Zero TapeIO=0000 DiskIO=0000 CPU=  .01s Elapsed=64.23s
 12.56.26 JOB03566  WYL#SYSV.ASM     .         RC=Zero TapeIO=0000 DiskIO=0799 CPU= 7.85s Elapsed=65.52s
 12.56.28 JOB03566  WYL#SYSV.EDIT    .         RC=Zero TapeIO=0000 DiskIO=0371 CPU= 1.05s Elapsed=86.16s
 12.56.28 JOB03566  WYL#SYSV Ended.  Name=Assemble SYSV                  Total CPU= 8.91s Elapsed=64.23s
 12.56.28 JOB03566
 12.56.28 JOB03566  Execution charges   Priority=Standard   Block=Day
 12.56.28 JOB03566
 12.56.28 JOB03566  CPU Usage         165.37         $102.52   Standard Processing Unit Equivalent
 12.56.28 JOB03566                                   =======
 12.56.28 JOB03566                                   $102.52   Total Job execution charge
 12.56.28 JOB03566
 12.56.28 JOB03566  See back separator page for print charges
 12.56.28 JOB03566
 12.56.28 JOB03566  $HASP395 WYL#SYSV ENDED  ASM=0, EDIT=0
1        1 //WYL#SYSV JOB SLP$GG,'Assemble SYSV',TIME=4,REGION=4M                  JOB03566
           //*
           /*JOBPARM LINES=99,COPIES=1
           /*JOBPARM FORMS=3HOL,PFORMAT=LAND,CHARS=BD13,DUPLEX=YES,FLASH=BAR4
           //*
           /*JOBPARM NOTIFY=GG.SLP,HOLD=OUTPUT                                     WYLGEN
         2 //$$QUIET EXEC PGM=HCMDX,PARM='PUR * Q OUT MUL'
           //*
         3 //ASM    EXEC PGM=ASMA90,REGION=8M,
           //            PARM=('NORENT,TERM,FLAG(NOCONT),US(MAP,WARN(10)),NODECK',
           //            'LC(32767),XREF(SHORT),ESD,DXREF,NOOBJECT')
         4 //STEPLIB DD DSN=SYS3.IS.TESTASM,DISP=SHR
         5 //SYSLIB   DD  DSN=WYL.GS.WYL.WYLBUR.MACLIB,DISP=SHR
         6 //         DD  DSN=WYL.GG.SYS.MACLIB,DISP=SHR
         7 //         DD  DSN=SYS3.IS.MACLIB,DISP=SHR
         8 //         DD  DSN=SYS3.MACLIB,DISP=SHR
         9 //         DD  DSN=SYS1.MACLIB,DISP=SHR
        10 //         DD  DSN=SYS1.MODGEN,DISP=SHR
        11 //SYSUT1   DD DSN=&&SYSUT1,UNIT=VIO,DISP=(,DELETE),
           //            SPACE=(4088,(500,250),,CONTIG,ROUND)
        12 //SYSTERM  DD SYSOUT=T
        13 //SYSPRINT DD DSN=&&PRINT,UNIT=SYSDA,DISP=(,PASS),
           //            SPACE=(6650,(250,250),RLSE),
           //            DCB=(BLKSIZE=6650,LRECL=133,RECFM=FB)
        14 //SYSUDUMP DD SYSOUT=A
        15 //SYSIN    DD  DSN=WYL.GS.WYL.WYLBUR.SOURCE(SYSV),DISP=SHR
           //*
        16 //EDIT    EXEC PGM=ASMEDIT,TIME=2,REGION=4000K,
           //             PARM='STMT'
        17 //STEPLIB  DD  DSN=WYL.GG.SYS.LINKLIB,DISP=SHR
        18 //ASMOUT   DD  DSN=&PRINT,DISP=(OLD,DELETE)
        19 //SYSPRINT DD  SYSOUT=A
1 STMT NO. MESSAGE
 -
        11 IGD01010I STORCLAS= TEMP STORGROUP =
        11 IGD01010I STORGRP=VIO ASSIGNED.
        13 IGD01010I STORCLAS= TEMP STORGROUP =
        13 IGD01010I STORGRP=VIO ASSIGNED.
 ICH70001I GG$SLP   LAST ACCESS AT 12:55:44 ON MONDAY, MARCH 15, 2004
 IEF142I WYL#SYSV $$QUIET - STEP WAS EXECUTED - COND CODE 0000
 *********************************************************************************
 *   WYL#SYSV/$$QUIET /                    Return Code      Zero                 *
 *   Region used      260K (16K user + 244K system)                              *
 *   Extended region  9464K (4K user + 9460K system)                             *
 *                                                                               *
 *   Paging              In      Out                                             *
 *   Private <-> Aux      0        0       CPU time (TCB)   00:00:00.01          *
 *   Private <-> Exp      0        0       CPU time (SRB)   00:00:00.00          *
 *   VIO                  0        0       Elapsed time    917:31:48.73          *
 *   Common               0      ---                                             *
 *                                                                               *
 *                                                                               *
 *   CPU Usage          0.18         $0.11  Standard Processing Unit Equivalent  *
 *                                   $0.11  Total Step execution charge          *
 *                                                                               *
 *    I/O count  DDname   Type Addr           I/O count  DDname   Type Addr      *
 *                         *** No I/O for this step ***                          *
 *********************************************************************************
 IEF373I STEP/$$QUIET /START 2004075.1256
 IEF374I STEP/$$QUIET /STOP  2004075.1256 CPU    0MIN 00.01SEC SRB    0MIN 00.00SEC VIRT    16K SYS   244K EXT       4K SYS    9460K
 IEF236I ALLOC. FOR WYL#SYSV ASM
 IEF237I 04DC ALLOCATED TO STEPLIB
 IEF237I 04DC ALLOCATED TO SYSLIB
 IEF237I 04DC ALLOCATED TO
 IEF237I 04DC ALLOCATED TO
 IEF237I 0402 ALLOCATED TO
 IEF237I 04A0 ALLOCATED TO
 IEF237I 04A0 ALLOCATED TO
 IGD101I SMS ALLOCATED TO DDNAME (SYSUT1  )
         DSN (SYS04075.T125604.RA000.WYL#SYSV.SYSUT1.H01  )
         STORCLAS (TEMP) MGMTCLAS (        ) DATACLAS (        )
         VOL SER NOS= VIO
 IEF237I JES2 ALLOCATED TO SYSTERM
 IGD101I SMS ALLOCATED TO DDNAME (SYSPRINT)
         DSN (SYS04075.T125604.RA000.WYL#SYSV.PRINT.H01   )
         STORCLAS (TEMP) MGMTCLAS (        ) DATACLAS (        )
         VOL SER NOS= SCR101
 IEF237I JES2 ALLOCATED TO SYSUDUMP
 IEF237I 04DC ALLOCATED TO SYSIN
 IEF142I WYL#SYSV ASM - STEP WAS EXECUTED - COND CODE 0000
 IEF285I   SYS3.IS.TESTASM                              KEPT
 IEF285I   VOL SER NOS= SYSB05.
 IEF285I   WYL.GS.WYL.WYLBUR.MACLIB                     KEPT
 IEF285I   VOL SER NOS= SYSB05.
 IEF285I   WYL.GG.SYS.MACLIB                            KEPT
 IEF285I   VOL SER NOS= SYSB05.
 IEF285I   SYS3.IS.MACLIB                               KEPT
 IEF285I   VOL SER NOS= SYSB05.
 IEF285I   SYS3.MACLIB                                  KEPT
 IEF285I   VOL SER NOS= SYSB02.
 IEF285I   SYS1.MACLIB                                  KEPT
 IEF285I   VOL SER NOS= MVSBR9.
 IEF285I   SYS1.MODGEN                                  KEPT
 IEF285I   VOL SER NOS= MVSBR9.
 IGD105I SYS04075.T125604.RA000.WYL#SYSV.SYSUT1.H01   DELETED,   DDNAME=SYSUT1
 IEF285I   GG$SLP.WYL#SYSV.JOB03566.D0000101.?          SYSOUT
 IGD106I SYS04075.T125604.RA000.WYL#SYSV.PRINT.H01    PASSED,    DDNAME=SYSPRINT
 IEF285I   GG$SLP.WYL#SYSV.JOB03566.D0000102.?          SYSOUT
 IEF285I   WYL.GS.WYL.WYLBUR.SOURCE                     KEPT
 IEF285I   VOL SER NOS= SYSB05.
 *********************************************************************************
 *   WYL#SYSV/ASM     /                    Return Code      Zero                 *
 *   Region used      4376K (4096K user + 280K system)                           *
 *   Extended region  10080K (412K user + 9668K system)                          *
 *                                                                               *
 *   Paging              In      Out                                             *
 *   Private <-> Aux      0        0       CPU time (TCB)   00:00:07.79          *
 *   Private <-> Exp      0        0       CPU time (SRB)   00:00:00.06          *
 *   VIO                  0        0       Elapsed time    917:31:47.44          *
 *   Common               0      ---                                             *
 *                                                                               *
 *                                                                               *
 *   CPU Usage        146.06        $90.55  Standard Processing Unit Equivalent  *
 *                                  $90.55  Total Step execution charge          *
 *                                                                               *
 *    I/O count  DDname   Type Addr           I/O count  DDname   Type Addr      *
 *           83  STEPLIB  Disk 04DC                 303  SYSLIB   Disk 04DC      *
 *            0  SYSLIB   Disk 04DC                   0  SYSLIB   Disk 04DC      *
 *            6  SYSLIB   Disk 0402                  29  SYSLIB   Disk 04A0      *
 *            0  SYSLIB   Disk 04A0                 575  SYSUT1   VIO  ----      *
 *            0  SYSTERM       ----                 368  SYSPRINT Disk 04E3      *
 *            0  SYSUDUMP      ----                  10  SYSIN    Disk 04DC      *
 *********************************************************************************
 IEF373I STEP/ASM     /START 2004075.1256
 IEF374I STEP/ASM     /STOP  2004075.1256 CPU    0MIN 07.79SEC SRB    0MIN 00.06SEC VIRT  4096K SYS   280K EXT     412K SYS    9668K
 IEF236I ALLOC. FOR WYL#SYSV EDIT
 IEF237I 0402 ALLOCATED TO STEPLIB
 IGD103I SMS ALLOCATED TO DDNAME ASMOUT
 IEF237I JES2 ALLOCATED TO SYSPRINT
 IEF142I WYL#SYSV EDIT - STEP WAS EXECUTED - COND CODE 0000
 IEF285I   WYL.GG.SYS.LINKLIB                           KEPT
 IEF285I   VOL SER NOS= SYSB02.
 IGD105I SYS04075.T125604.RA000.WYL#SYSV.PRINT.H01    DELETED,   DDNAME=ASMOUT
 IEF285I   GG$SLP.WYL#SYSV.JOB03566.D0000103.?          SYSOUT
 *********************************************************************************
 *   WYL#SYSV/EDIT    /                    Return Code      Zero                 *
 *   Region used      380K (116K user + 264K system)                             *
 *   Extended region  9588K (4K user + 9584K system)                             *
 *                                                                               *
 *   Paging              In      Out                                             *
 *   Private <-> Aux      0        0       CPU time (TCB)   00:00:01.02          *
 *   Private <-> Exp      0        0       CPU time (SRB)   00:00:00.03          *
 *   VIO                  0        0       Elapsed time    917:31:26.80          *
 *   Common               0      ---                                             *
 *                                                                               *
 *                                                                               *
 *   CPU Usage         19.12        $11.85  Standard Processing Unit Equivalent  *
 *                                  $11.85  Total Step execution charge          *
 *                                                                               *
 *    I/O count  DDname   Type Addr           I/O count  DDname   Type Addr      *
 *            2  STEPLIB  Disk 0402                 369  ASMOUT   Disk 04E3      *
 *            0  SYSPRINT      ----                                              *
 *********************************************************************************
 IEF373I STEP/EDIT    /START 2004075.1256
 IEF374I STEP/EDIT    /STOP  2004075.1256 CPU    0MIN 01.02SEC SRB    0MIN 00.03SEC VIRT   116K SYS   264K EXT       4K SYS    9584K
 *********************************************************************************
 *                                                                               *
 *                      S t a n f o r d   U n i v e r s i t y                    *
 *                                                                               *
 *                              *** Job Summary ***                              *
 *                                                                               *
 *   System Id      SYSB                   Input time     12:39:27  Mar 15, 2004 *
 *                                                                               *
 *   System Release SP6.1.0                Start time     12:56:04  Mar 15, 2004 *
 *                                                                               *
 *   Job name       WYL#SYSV               Stop  time     00:00:00  Mar 15, 2004 *
 *                                                                               *
 *   Account        SLP$GG                 Elapsed time  917:31:48.73            *
 *                                                                               *
 *   User Name      Assemble SYSV          CPU time       00:00:08.82            *
 *                                                                               *
 *   Job class      B                      SRB Time       00:00:00.09            *
 *                                                                               *
 *********************************************************************************
 IEF375I  JOB/WYL#SYSV/START 2004075.1256
 IEF376I  JOB/WYL#SYSV/STOP  2004075.1256 CPU    0MIN 08.82SEC SRB    0MIN 00.09SEC
1Assembler Done SYSV No Statements Flagged
1         High Level Assembler Option Summary                   (PTF P72483 )                                               Page    1
-                                                                                            HLASM R4.0  2004/03/15 12.56
0  No Overriding ASMAOPT Parameters
   Overriding Parameters-  NORENT,TERM,FLAG(NOCONT),US(MAP,WARN(10)),NODECK,LC(32767),XREF(SHORT),ESD,DXREF,NOOBJECT
   No Process Statements


   Options for this Assembly
0  NOADATA
     ALIGN
   NOASA
     BATCH
     CODEPAGE(047C)
   NOCOMPAT
   NODBCS
 3 NODECK
 3   DXREF
 3   ESD
   NOEXIT
 3   FLAG(0,ALIGN,NOCONT,NOIMPLEN,NOPAGE0,PUSH,RECORD,NOSUBSTR,USING0)
   NOFOLD
   NOGOFF
   NOINFO
     LANGUAGE(EN)
   NOLIBMAC
 3   LINECOUNT(32767)
     LIST(121)
     MXREF(SOURCE)
 3 NOOBJECT
     OPTABLE(UNI,NOLIST)
   NOPCONTROL
   NOPESTOP
   NOPROFILE
   NORA2
 3 NORENT
     RLD
     RXREF
     SIZE(MAX)
     SYSPARM()
 3   TERM(WIDE)
   NOTEST
     THREAD
   NOTRANSLATE
 3   USING(NOLIMIT,MAP,WARN(10))
 3   XREF(SHORT)

   No Overriding DD Names

1SYSV     External Symbol Dictionary                                                                                        Page    2
-Symbol   Type   Id     Address  Length     LD ID  Flags Alias-of                            HLASM R4.0  2004/03/15 12.56
0WYLSYSV   SD 00000001 00000000 00004E70             00
 SYSV4072  LD          00000000           00000001
 INITSYSV  LD          00000018           00000001
 GTVARRTN  LD          0000006C           00000001
 GETCORE   ER 00000002
 BSINIT    ER 00000003
 ABSEARCH  ER 00000004
 VTRIM     ER 00000005
 SEGCR     ER 00000006
 MAKEITOD  ER 00000007
 GETDATA   ER 00000008
 MAKELTOD  ER 00000009
 LOCALTOD  ER 0000000A
 FMTCLCK   ER 0000000B
 FMTDAY    ER 0000000C
 ENDLNO    ER 0000000D
 SEGINIT   ER 0000000E
 SEGDC     ER 0000000F
 SEG       ER 00000010
 GETMACH   LD          00002952           00000001
 SEGWR     ER 00000011
 KWIO      ER 00000012
 RETFMEM   ER 00000013
 ADDER     ER 00000014
 LOCATE    ER 00000015
 PFREEB    ER 00000016
 SYSCHECK  ER 00000017
 GETCTOT   ER 00000018
 RETFNAME  ER 00000019
 PREVLNO   ER 0000001A
 GETQINFO  ER 0000001B
 FMTTIME   ER 0000001C
 TIMEDATE  ER 0000001D
 GETUIDL   ER 0000001E
 VLOGCHK   ER 0000001F
 VSESCHK   ER 00000020
 FMTXDATE  ER 00000021

1SYSV     WYLBUR System Variables                                                                                           Page    3
0Loc    Object Code    Addr1 Addr2  Stmt Lv Lineno    Source Statement                    (Asmedit 3.3)  HLASM R4.0  2004/03/15 12.56
+___    ______ ____    _____ _____  ____ __ ______    ______ _________
0                                      2              *******************************************************************
                                       3              *                                                                 *
                                       4              *     WYLBUR/370 - Release VI - Class I - Stanford Proprietary    *
                                       5              *                                                                 *
                                       6              *******************************************************************
                                       7                       HIBAL
                                     988
-
-
-
0                                    990              *******************************************************************
                                     991              *                                                                 *
                                     992              *                **** ATTENTION !!!! ****                         *
                                     993              *                **** ATTENTION !!!! ****                         *
                                     994              *                **** ATTENTION !!!! ****                         *
                                     995              *                                                                 *
                                     996              *       SEE COMMENTS ON NEXT PAGE BEFORE ADDING SYSTEM            *
                                     997              *       VARIABLES OR FUNCTIONS !!!!                               *
                                     998              *                                                                 *
                                     999              *******************************************************************
                                    1000              *
                                    1001              *  NOTE: SYSTEM PROCEDURES ARE LOCATED IN PROC MODULE.
                                    1002              *  NOTE: SYSTEM FUNCTIONS ARE LOCATED IN FUNC MODULE.
                                    1003              *
                                    1004              *  FOR MORE INFORMATION SEE COMMENTS IN FUNC MODULE.
                                    1005              *
1SYSV     WYLBUR System Variables                                                                                           Page    4
0D-Loc  Object Code    Addr1 Addr2  Stmt Lv Lineno    Source Statement           (Hibal 5, Asmedit 3.3)  HLASM R4.0  2004/03/15 12.56
+_____  ______ ____    _____ _____  ____ __ ______    ______ _________
0                                   1007              * LAST UPDATE 7/89
                                    1008              *******************************************************************
                                    1009              **                                                             ****
                                    1010              **                                                              ***
                                    1011              **      HOW TO ADD A SYSTEM VARIABLE OR FUNCTION !               **
                                    1012              ***     ------------------------------------------               **
                                    1013              *****                                                            **
                                    1014              *      FOR MORE INFORMATION SEE COMMENTS IN FUNC MODULE.          *
                                    1015              *******************************************************************
                                    1016              *
                                    1017              *  PROCEDURE TO ADD VARIABLE OR FUNCTION:
                                    1018              *
                                    1019              *  1. ADD A ENTRY INTO THE SYSTEM VARIABLE/FUNCTION TABLE.
                                    1020              *
                                    1021              *       THIS TABLE (SYSFNS) IS SEARCHED TO FIND THE ADDRESS OF
                                    1022              *       THE ROUTINE FOR THE SPECIFIED FUNCTION, VARIABLE, OR
                                    1023              *       PROC.  THE ENTRIES MUST APPEAR IN ALPHABETICAL ORDER.
                                    1024              *       USE THE 'SYSFN'    AND  'SYSVAR'   MACRO TO CREATE A
                                    1025              *       PROPERLY FORMATTED ENTRY.
                                    1026              *
                                    1027              *  2. ADD A SYSTEM VARIABLE/FUNCTION ROUTINE.
                                    1028              *
                                    1029              *       SYSTEM VARIABLE/FUNCTION ROUTINES ARE FOUND AFTER THE
                                    1030              *       SYSTEM VARIABLE/FUNCTION TABLE. THE ROUTINES SHOULD BE
                                    1031              *       PLACED IN ALPHABETICAL ORDER BASED ON THE VAR/FUNC
                                    1032              *       KEYWORD.  WORK AND COMMON ROUTINES SHOULD BE PLACED
                                    1033              *       IN ALPHABETICAL ORDER IN THE COMMON/WORK ROUTINES AREA.
                                    1034              *       THE BASIC ENTRY AND EXIT CONVENTIONS ARE:
                                    1035              *
                                    1036              *       ON ENTRY:
                                    1037              *            R0 - VARIABLE COUNT
                                    1038              *            R1 - ARGUMENT LIST    (FOR FUNCTIONS/PROC, ONLY)
                                    1039              *            R6 - FUNCTION/VARIABLE RETURN AREA
                                    1040              *                 (AREA WILL INITIALLY CONTAIN VAR/FUNC/PROC NAME)
                                    1041              *
                                    1042              *       ON EXIT:
                                    1043              *            R6 - RETURNED VALUE (SAME AS ON ENTRY)
                                    1044              *           R15 - CC=ZERO, ALL OK
                                    1045              *                 CC=NZ, IF ERROR,,, ERROR MSG TSEG 'D
                                    1046              *
                                    1047              *       THE FORMAT OF THE ARGUMENTS PASSED AND RETURNED IS
                                    1048              *       DESCRIBED BY THE VNENTRY DSECT.  EACH ARGUMENT OCCUPIES
                                    1049              *       A FIXED LENGTH (L'VPARM) ENTRY. THUS EACH INPUT
                                    1050              *       ARGUMENT (IF ANY) CAN BE EASILY FOUND AT A FIXED OFFSET
                                    1051              *       BASED OFF OF R1.
                                    1052              *
                                    1053              *       SEVERAL MACROS EXIST TO MAKE THE ADDITION OF ROUTINES
                                    1054              *       EASIER.  TO USE THESE MACROS CERTAIN ADDITIONAL
                                    1055              *       CONVENTIONS MUST BE ADHERED TO.  THESE CONVENTIONS AND
                                    1056              *       THE MACROS ARE DESCRIBED NOW:
                                    1057              *
                                    1058              *   *** AN 'PROC' AND AN 'PEND' MUST
                                    1059              *       BE USED TO ENTER AND EXIT THE ROUTINE.
                                    1060              *
                                    1061              *   *** IF THE ROUTINE IS SUCCESSFUL R15 MUST BE RETURNED
                                    1062              *       EQUAL TO ZERO.  IF NOT R15 MUST BE RETURNED AS NON-ZERO
1SYSV     WYLBUR System Variables                                                                                           Page    5
0D-Loc  Object Code    Addr1 Addr2  Stmt Lv Lineno    Source Statement           (Hibal 5, Asmedit 3.3)  HLASM R4.0  2004/03/15 12.56
+_____  ______ ____    _____ _____  ____ __ ______    ______ _________
0                                   1063              *       (4).  ALSO AN APPROPRIATE ERROR MESSAGE MUST BE TSEG'D.
                                    1064              *       ** DO NOT EXIT A ROUTINE VIA CVNEXT OR CVERROR !! **
                                    1065              *
                                    1066              *   *** IF YOU INTEND TO USE THE "SCANNER", YOU MUST SAVE AND
                                    1067              *       RESTORE THE CURRENT SCANNER STATE.  FOR AN EXAMPLE SEE
                                    1068              *       'YESNO' ROUTINE.
                                    1069              *
                                    1070              *   *** THE 'VRETURN' MACRO
                                    1071              *
                                    1072              *       THE 'VRETURN' MACRO IS USED TO RETURN A VARIABLE OR
                                    1073              *       FUNCTION VALUE.  IT TAKES 2-3 PARAMETERS. THE FIRST IS
                                    1074              *       THE TYPE OF VALUE TO RETURN.  THIS MAY BE STRING,
                                    1075              *       INTEGER, LINENO, OR BOOLEAN.  ARRAYS AND PACKED NUMBERS
                                    1076              *       MAY NOT BE RETURNED WITH THIS MACRO.  ARGUMENTS 2-3 ARE
                                    1077              *       THE VALUE OF THE VAR/FUNC.  IF THE TYPE IS A STRING:
                                    1078              *       ARGS 2-3 ARE THE STRING LOC, LENGTH; A QUOTED STRING
                                    1079              *       MAY BE RETURNED, THE CONVENTIONS FOR RETURNING A STRING
                                    1080              *       ARE THE SAME AS FOR THE 'MSG' MACRO.  IF THE TYPE IS
                                    1081              *       INTEGER OR LINENO: THE SECOND PARAMETER IS A FULLWORD
                                    1082              *       VALUE.  IF THE TYPE IS BOOLEAN: THE SECOND PARAMETER IS
                                    1083              *       THE WORD 'TRUE' OR THE WORD 'FALSE'.  THIS MACRO
                                    1084              *       REQUIRES THAT R6 BE THE SAME AS WHEN THE SYSTEM
                                    1085              *       VAR/FUNC. ROUTINE WAS ENTERED.  FOR EXAMPLES, SEE THE
                                    1086              *       'FNCASE' 'FNLENGTH' 'FNLILB' 'FNLAST' AND 'FNTRUE'.
                                    1087              *       SOME ISOLATED EXAMPLES ARE:
                                    1088              *             VRETURN STRING,' THIS IS IT '
                                    1089              *             VRETURN STRING,(R1),(R0)
                                    1090              *             VRETURN BOOLEAN,TRUE
                                    1091              *             VRETURN LINENO,L:XXLINENO
                                    1092              *             VRETURN INTEGER,(R4)
                                    1093              *       HEY DUDE !! THE VRETURN MACRO CLOBBERS R15,R0,R1,R2 SO
                                    1094              *       BE CAREFUL.  R15 IS SET TO ZERO BY THE VRETURN MACRO.
                                    1095              *
                                    1096              *   *** THE 'VTRIM' MACRO
                                    1097              *
                                    1098              *       THE 'VTRIM' MACRO IS USED TO TRIM TRAILING BLANKS OFF
                                    1099              *       THE END OF RETURNED STINGS.  IT WILL ALSO SET BLANK OR
                                    1100              *       ZEROED STRINGS TO NULL STRINGS.  IT REQUIRES THAT R6 BE
                                    1101              *       THE SAVE AS WHEN THE SYSTEM FUNC/VAR ROUTINE WAS
                                    1102              *       ENTERED.  IT IS GENERALLY CODED DIRECTLY FOLLOWING THE
                                    1103              *       'VRETURN STRING,..' MACRO.  FOR AN EXAMPLE SEE 'FNLIB'
                                    1104              *       ROUTINE.
                                    1105              *
                                    1106              *
                                    1107              *
                                    1108              *   *** RETURNING VAR/FUNCTION VALUE,,,
                                    1109              *
                                    1110              *       THE EASY WAY IS WITH THE 'VRETURN MACRO', BUT THERE ARE
                                    1111              *       OTHER WAYS.  YOU MAY SET UP YOUR OWN RETURN VALUE @R6.
                                    1112              *       SEE VNENTRY DSECT. THE AREA MUST BE CLEARED.  FLAGS
                                    1113              *       MUST BE SET FOR THE VARIABLE TYPE:  STRING, BOOLEAN,
                                    1114              *       NUMBER.  THE VARIABLE VALUE MUST BE SET.  FOR EXAMPLES,
                                    1115              *       SEE 'FNASCII' 'FNPI' OR 'FNSUBSTR'.  IF YOU WANT TO
                                    1116              *       DEAL WITH ARRAYS (IF THEY EXIST),,, GOOD LUCK HASBRO !!
                                    1117              *
                                    1118              *   *** FINAL ADVICE
1SYSV     WYLBUR System Variables                                                                                           Page    6
0D-Loc  Object Code    Addr1 Addr2  Stmt Lv Lineno    Source Statement           (Hibal 5, Asmedit 3.3)  HLASM R4.0  2004/03/15 12.56
+_____  ______ ____    _____ _____  ____ __ ______    ______ _________
0                                   1119              *
                                    1120              *       THIS MODULE ADHERES TO SEVERAL CONVENTIONS.  IF YOU
                                    1121              *       ADHERE TO THESE CONVENTIONS, IT WILL MAKE IT EASIER FOR
                                    1122              *       YOU AND ALL THE PEOPLE WHO ALSO WANT TO ADD VARS/FUNCS
                                    1123              *       TO ADD THEM. IT IS WORTH IT TO TAKE A BIT OF TIME AND
                                    1124              *       LOOK AT HOW SEVERAL EXITING SYSTEM VARIABLE/FUNCTION
                                    1125              *       ROUTINES ARE CODED.
                                    1126              *
                                    1127              *   *** SOME DOCUMENTATION
                                    1128              *
                                    1129              *        ON ENTRY:
                                    1130              *             R0 - VARIABLE COUNT
                                    1131              *             R1 - ARGUMENT LIST
                                    1132              *             R6 - FUNCTION/VARIABLE RETURN AREA
                                    1133              *                  (AREA WILL INITIALLY CONTAIN VAR/FUNC/PROC NAME)
                                    1134              *
                                    1135              *
                                    1136              *        ON EXIT:
                                    1137              *             R6 - RETURNED VALUE (SAME AS ON ENTRY)
                                    1138              *            R15 - CC=ZERO, ALL OK
                                    1139              *                  CC=NZ, IF ERROR,,, ERROR MSG TSEG 'D
                                    1140              *
                                    1141              *        ARG1     EQU   0*L'VPARM           USUALLY @R1
                                    1142              *        ARG2     EQU   1*L'VPARM
                                    1143              *        ARG3     EQU   2*L'VPARM
                                    1144              *        ARG4     EQU   3*L'VPARM
                                    1145              *        ARG5     EQU   4*L'VPARM
                                    1146              *        ARG6     EQU   5*L'VPARM
                                    1147              *
                                    1148              *        FNRET    EQU   0*L'VPARM           USUALLY @R6
                                    1149              *
                                    1150              *
                                    1151              *        FNWA     RECORD BEGIN ,            GENERALIZED WORK AREA !
                                    1152              *        FNWORK   DS    XL(L'VPARM)         256+ BYTE WORK AREA
                                    1153              *                 END
                                    1154              *        ******************** OH YEAH !!
1SYSV     WYLBUR System Variables                                                                                           Page    7
0D-Loc  Object Code    Addr1 Addr2  Stmt Lv Lineno    Source Statement           (Hibal 5, Asmedit 3.3)  HLASM R4.0  2004/03/15 12.56
+_____  ______ ____    _____ _____  ____ __ ______    ______ _________
0000000                00000 04E70  1156              WYLSYSV  CSECT
                                    1160                       REGS  FSR,,,,,,,BR,(WAR,LSR),PAR,PBR,CPR,CVR,SPR,RAR
                                    1296
                                    1297              SYSV     IDENT 4072                10:30:09 03/12/04  (SLP)
                                    1300             +
                                    1301    01-IDENT +         ENTRY SYSV4072
                                    1302             +
 000000 16E2E8E2E5F4F0F7            1303    01-IDENT +SYSV4072 DC    AL1(22),C'SYSV4072,15MAR04,12:56'
                                    1304             +*
                                    1306              *
                                    1307                       SYSDEFN ,                 Define installation values
                                    1308
                                    1309                       PUSH  DSECTS
 USING  CP,R11                      1321             =         USING (CP),(CV)
 USING  CV,R12
 000017                00000 04E70  1340             =         POP   PRINT
 000017                00000 04E70  8694              WYLSYSV  CSECT
1SYSV     (SYSV4072) (12:56) (15MAR04) DSECTS                                                                               Page    8
0Current Usings:  (CP,R11) (CV,R12)
0Loc    Object Code    Addr1 Addr2  Stmt Lv Lineno    Source Statement           (Hibal 5, Asmedit 3.3)  HLASM R4.0  2004/03/15 12.56
+___    ______ ____    _____ _____  ____ __ ______    ______ _________
0                                   8697                       COPY  BSINFO
                                    8698=            =    ¿þþþþþþþþþþþþþþþþþþþþþþþþþþþþþþþþþþþÜ
                                    8699=            =    Ÿ  BINARY SEARCH INFORMATION DSECT  Ÿ
                                    8700=            =    Ÿ                                   Ÿ
                                    8701=            =    ¾þþþþþþþþþþþþþþþþþþþþþþþþþþþþþþþþþþþ»
 000000                00000 00020  8702             =BSINFO   RECORD BEGIN ,            BINARY SEARCH INFO
 000000                             8710  1          =BSTLEN     DS    F                   TOTAL LENGTH FOR ENTRIES
 000004                             8711  1          =BSELEN     DS    F                   ENTRY LENGTH
 000008                             8712  1          =BSSLEN     DS    F                   SEARCH FIELD LENGTH
 00000C                             8713  1          =BSSOFF     DS    F                   SEARCH FIELD OFFSET
 000010                             8714  1          =BSEND      DS    F                   END OF LAST VALID ENTRY
 000014                             8715  1          =BSCNT      DS    F                   COUNT OF BINARY SEARCH ITERATIONS
 000018                             8716  1          =BSSTART    DS    F                   START BINARY SEARCH AT MIDDLE
 00001C                             8717  1          =BSRSVD     DS    F                   NOT USED
 000020                00020 00020  8718             =         END
1SYSV     (SYSV4072) (12:56) (15MAR04) DSECTS                                                                               Page    9
0Current Usings:  (CP,R11) (CV,R12)
0Loc    Object Code    Addr1 Addr2  Stmt Lv Lineno    Source Statement           (Hibal 5, Asmedit 3.3)  HLASM R4.0  2004/03/15 12.56
+___    ______ ____    _____ _____  ____ __ ______    ______ _________
0                                   8728                       COPY  VNENTRY
                                    8729=            =¿þþþþþþþþþþþþþþþþþþþþþþþþþþþþþþþþþþþþþþþþþþþþþþþþþþþþþþþþþþþþþþþþþþþþþÜ
                                    8730=            =Ÿ                                                                     Ÿ
                                    8731=            =Ÿ                                                                     Ÿ
                                    8732=            =Ÿ  VARIABLE ENTRY (COMMON)                                            Ÿ
                                    8733=            =Ÿ                                                                     Ÿ
                                    8734=            =Ÿ                                                                     Ÿ
                                    8735=            =Ÿ                                                                     Ÿ
                                                      ¾þþþþþþþþþþþþþþþþþþþþþþþþþþþþþþþþþþþþþþþþþþþþþþþþþþþþþþþþþþþþþþþþþþþþþ»
0000000                00000 00050  8736             =VNENTRY  RECORD BEGIN ,            VARIABLE ENTRY
                                    8744= 1          =     ¿þþþþþþþþþþþþþþþþþþþþþþþþþþþþþþþþþþþþþþþþþþþþþþþþþþþþþþþþþþþþþþÜ
                                    8745= 1          =     Ÿ  VARIABLE NAME, DESCRIPTION      (ONLY NAME SAVED WITH VAR)  Ÿ
                                    8746= 1          =     ¾þþþþþþþþþþþþþþþþþþþþþþþþþþþþþþþþþþþþþþþþþþþþþþþþþþþþþþþþþþþþþþ»
 000000                             8747  1          =VNDESC     DS    XL32                VARIABLE DESCRIPTOR,
 000020                00020 00000  8748  1          =           ORG   VNDESC
 000000                             8749  1          =VNNAME     DS    CL16                VARIABLE NAME
 000010 00                          8750  1          =VNPREFIX   FLAG  ,                   NAME PREFIX FLAGS
 VNPREFIX.VNPFX    01 EQ            8754  1          =           FLAG  (VNPFX,1,EQ)        X.
 VNPREFIX.VNPFGBL  02 EQ            8764  1          =           FLAG  (VNPFGBL,2,EQ)      GBL.
 VNPREFIX.VNPFSYS  03 EQ            8774  1          =           FLAG  (VNPFSYS,3,EQ)      SYS.
 VNPREFIX.VNPFSES  04 EQ            8784  1          =           FLAG  (VNPFSES,4,EQ)      SES.
 VNPREFIX.VNPFPUB  05 EQ            8794  1          =           FLAG  (VNPFPUB,5,EQ)      PUB.
 000011 00                          8804  1          =VNAFLAGS   FLAG  ,                   ARRAY FLAGS
 VNAFLAGS.VNADESC  80 ONES          8808  1          =           FLAG  VNADESC             GENERIC ARRAY DESCRIPTOR
 000012                             8813  1          =VNASUB1    DS    H                   ARRAY SUBSCRIPTS
 000014                             8814  1          =VNASUB2    DS    H
 000016                             8815  1          =VNASUB3    DS    H
 000018                             8816  1          =           DS    0S(VNDESC+L'VNDESC-*)
 000018                00018 00020  8817  1          =           ORG
                                    8818= 1          =     ¿þþþþþþþþþþþþþþþþþþþþþþþþÜ
                                    8819= 1          =     Ÿ  VARIABLE TYPE, VALUE  Ÿ
                                    8820= 1          =     ¾þþþþþþþþþþþþþþþþþþþþþþþþ»
 000020                             8821  1          =VNDATA     DS    XL16                VARIABLE TYPE/VALUE
 000030                00030 00020  8822  1          =           ORG   VNDATA
 000020                             8823  1          =VNSDATA    DS    XL6                 VARIABLE TYPE/VALUE (STRING)
 000026                00026 00020  8824  1          =           ORG   VNDATA
 000020                             8825  1          =VNADATA    DS    XL48                VARIABLE TYPE/VALUE (ARRAY)
 000050                00050 00020  8826  1          =           ORG   VNDATA
                                    8827  1          =
 000020 00                          8828  1          =VNTYPE     FLAG  ,                   VARIABLE TYPE
 VNTYPE.VNSTRING   01 EQ            8832  1          =           FLAG  (VNSTRING,1,EQ)     STRING
 VNTYPE.VNNUMB     02 EQ            8842  1          =           FLAG  (VNNUMB,2,EQ)       NUMBER
 VNTYPE.VNBOOL     03 EQ            8852  1          =           FLAG  (VNBOOL,3,EQ)       BOOLEAN
 VNTYPE.VNARRAY    04 EQ            8862  1          =           FLAG  (VNARRAY,4,EQ)      ARRAY
 VNTYPE.VNFN       05 EQ            8872  1          =           FLAG  (VNFN,5,EQ)         FUNCTION
 VNTYPE.VNPROC     06 EQ            8882  1          =           FLAG  (VNPROC,6,EQ)       PROCEDURE
 VNTYPE.VNLABEL    07 EQ            8892  1          =           FLAG  (VNLABEL,7,EQ)      LABEL
 000021 00                          8902  1          =VNDEBUG    FLAG  ,                   DEBUG FLAGS
 VNDEBUG.VNDBGET   80 ONES          8906  1          =           FLAG  VNDBGET             DEBUG VARIABLE FETCH
 VNDEBUG.VNDBSAVE  40 ONES          8911  1          =           FLAG  VNDBSAVE            DEBUG VARIABLE STORE
 VNDEBUG.VNDBTRAC  20 ONES          8916  1          =           FLAG  VNDBTRAC            DEBUG TRACE THIS PROC/LABEL
 VNDEBUG.VNDBSTOP  10 ONES          8921  1          =           FLAG  VNDBSTOP            DEBUG STOP AT PROC/LABEL
 000022 00                          8926  1          =VNFLAGS1   FLAG  ,
1SYSV     (SYSV4072) (12:56) (15MAR04) DSECTS                                                                               Page   10
0Current Usings:  (CP,R11) (CV,R12)
0Loc    Object Code    Addr1 Addr2  Stmt Lv Lineno    Source Statement           (Hibal 5, Asmedit 3.3)  HLASM R4.0  2004/03/15 12.56
+___    ______ ____    _____ _____  ____ __ ______    ______ _________
0VNFLAGS1.VNINT    80 ONES          8930  1          =           FLAG  VNINT               ** INTEGER, OLD EXEC MODE !
 000023 00                          8935  1          =VNFLAGS2   FLAG  ,                   UNUSED
                                    8939= 1          =     ¿þþþþþþþþþþþþþþþÜ
                                    8940= 1          =     Ÿ  COMMON AREA  Ÿ
                                    8941= 1          =     ¾þþþþþþþþþþþþþþþ»
 000024                             8942  1          =           DS    0F
                                    8943  1          =VNAREA     EQU   *                   MULTI-USE AREA (COMMON)
                                    8944  1          =
 000024                00024 00024  8945  1          =           ORG   VNAREA
 000024                             8946  1          =           DS    0H                  (NUMBER), (BOOLEAN)
 000024                             8947  1          =VNVALUE    DS    XL12                ALL NUMBERS STORED AS PCKD DECIMAL
                                    8948  1          =
 000030                00030 00024  8949  1          =           ORG   VNAREA
 000024                             8950  1          =           DS    0H                  (STRING)
 000024                             8951  1          =VNSTRLEN   DS    H                   STRING LENGTH
                                    8952  1          =VNSTRLOC   EQU   *,1,C'C'            START OF STRING (IF ANY)
 000026                             8953  1          =           DS    0S(VNSDATA+L'VNSDATA-*)
                                    8954  1          =
 000026                00026 00024  8955  1          =           ORG   VNAREA
 000024                             8956  1          =           DS    0H                  (ARRAY)
 000024                             8957  1          =VNARG      DS    F                   ARRAY RECORD GROUP INFO POINTER
 000028                             8958  1          =VNASET     DS    F                   ARRAY SET NUMBER
 00002C                             8959  1          =VNAIDENT   DS    F                   ARRAY ID NUMBER
 000030 00                          8960  1          =VNATYPE    FLAG  ,                   ARRAY TYPE
 VNATYPE.VNASTR    01 EQ            8964  1          =           FLAG  (VNASTR,1,EQ)       STRINGS
 VNATYPE.VNANUMB   02 EQ            8974  1          =           FLAG  (VNANUMB,2,EQ)      NUMBERS
 VNATYPE.VNABOOL   03 EQ            8984  1          =           FLAG  (VNABOOL,3,EQ)      BOOLEANS
 000031 00                          8994  1          =VNAFLAG    FLAG  ,                   NOT USED
 000032                             8998  1          =VNADIM1    DS    H                   DIMENSION 1
 000034                             8999  1          =VNADIM2    DS    H                   DIMENSION 2
 000036                             9000  1          =VNADIM3    DS    H                   DIMENSION 3
 000038                             9001  1          =VNANAME    DS    CL(L'VNNAME)        ORIGINAL ARRAY NAME
 000048                             9002  1          =           DS    0S(VNADATA+L'VNADATA-*)
                                    9003  1          =
 000048                00048 00024  9004  1          =           ORG   VNAREA
 000024                             9005  1          =           DS    0H                  (PROCEDURE)
 000024                             9006  1          =VNPSTART   DS    F                   STARTING LINE NUMBER
 000028                             9007  1          =VNPEND     DS    F                   ENDING LINE NUMBER
 00002C                             9008  1          =           DS    0S(VNDATA+L'VNDATA-*)
                                    9009  1          =
 00002C                0002C 00024  9010  1          =           ORG   VNAREA
 000024                             9011  1          =           DS    0H                  (LABEL)
 000024                             9012  1          =VNLLINE    DS    F                   LABEL LINE NUMBER
 000028                             9013  1          =           DS    0S(VNDATA+L'VNDATA-*)
                                    9014  1          =
 000028                00028 00024  9015  1          =           ORG   VNAREA
 000024                             9016  1          =           DS    0H                  (FUNCTION)
 000024                             9017  1          =VNFSTART   DS    F                   STARTING LINE NUMBER
 000028                             9018  1          =VNFEND     DS    F                   ENDING LINE NUMBER
 00002C                             9019  1          =           DS    0S(VNDATA+L'VNDATA-*)
                                    9020  1          =
 00002C                0002C 00024  9021  1          =           ORG   VNAREA
 000024                             9022  1          =           DS    0H                  (SYSTEM VAR/FN/PROC)
 000024                             9023  1          =VNSYSRTN   DS    A                   ADDRESS OF SYSTEM ROUTINE
1SYSV     (SYSV4072) (12:56) (15MAR04) DSECTS                                                                               Page   11
0Current Usings:  (CP,R11) (CV,R12)
0Loc    Object Code    Addr1 Addr2  Stmt Lv Lineno    Source Statement           (Hibal 5, Asmedit 3.3)  HLASM R4.0  2004/03/15 12.56
+___    ______ ____    _____ _____  ____ __ ______    ______ _________
0000028                             9024  1          =           DS    0S(VNDATA+L'VNDATA-*)
 000028                00028 00050  9025  1          =           ORG
                                    9026  1          =*
                                    9027  1          =*
                                    9028  1          =NL         EQU   L'VNVALUE,,C'N'     NUMBER LENGTH
                                    9029  1          =MAXSTRLN   EQU   256,,C'N'           MAXIMUM STRING VAR LENGTH
                                    9030  1          =           DS    0S(MAXSTRLN-&LINESZ)
 000050                                   1          +           DS    0S(MAXSTRLN-235)
 000050                00050 00050  9031             =         END
                                    9040                       COPY  VPARM
                                    9041=            =¿þþþþþþþþþþþþþþþþþþþþþþþþþþþþþþþþþþþþþþþþþþþþþþþþþþþþþþþþþþþþþþþþþþþþþÜ
                                    9042=            =Ÿ                                                                     Ÿ
                                    9043=            =Ÿ                                                                     Ÿ
                                    9044=            =Ÿ  VARIABLE PARM AREA                                                 Ÿ
                                    9045=            =Ÿ                                                                     Ÿ
                                    9046=            =Ÿ                                                                     Ÿ
                                    9047=            =Ÿ                                                                     Ÿ
                                                      ¾þþþþþþþþþþþþþþþþþþþþþþþþþþþþþþþþþþþþþþþþþþþþþþþþþþþþþþþþþþþþþþþþþþþþþ»
0000000                00000 00150  9048             =VPARM    RECORD BEGIN ,            PARM AREA FOR VARIABLES
 000000                             9056  1          =           DS    (L'VNENTRY)X        IS A VARIABLE ENTRY
 000050                             9057  1          =           DS    (((MAXSTRLN-1)/16)*16+16)X  AND A STRING AREA
 000150                00150 00150  9058             =         END
1SYSV     (SYSV4072) (12:56) (15MAR04) DSECTS                                                                               Page   12
0Current Usings:  (CP,R11) (CV,R12)
0Loc    Object Code    Addr1 Addr2  Stmt Lv Lineno    Source Statement           (Hibal 5, Asmedit 3.3)  HLASM R4.0  2004/03/15 12.56
+___    ______ ____    _____ _____  ____ __ ______    ______ _________
0                                   9068                       COPY  XSENTRY
                                    9069=            =   ¿þþþþþþþþþþþþþþþþþþþþþþþþþþþþþþþþþþþþÜ
                                    9070=            =   Ÿ  GENERATE EQUIVALENT SYMBOL ENTRY  Ÿ
                                    9071=            =   ¾þþþþþþþþþþþþþþþþþþþþþþþþþþþþþþþþþþþþ»
                                    9072             =         MACRO
                                    9073             =&L       SAMEAS &SYMBOL,&DSECT=,&BASE=
                                    9074             =         LCLC  &TYPE
                                    9075             =&TYPE    SETC  T'&SYMBOL
                                    9076             =&L       EQU   &BASE+(&SYMBOL-&DSECT),L'&SYMBOL,C'&TYPE'
                                    9077             =         MEND
0                                   9079=            =¿þþþþþþþþþþþþþþþþþþþþþþþþþþþþþþþþþþþþþþþþþþþþþþþþþþþþþþþþþþþþþþþþþþþþþÜ
                                    9080=            =Ÿ                                                                     Ÿ
                                    9081=            =Ÿ                                                                     Ÿ
                                    9082=            =Ÿ  EXPRESSION STACK ENTRY                                             Ÿ
                                    9083=            =Ÿ                                                                     Ÿ
                                    9084=            =Ÿ  *** NOTE ***                                                       Ÿ
                                    9085=            =Ÿ  THIS DSECT IS THE SAME AS A VARIABLE ENTRY DSECT, WITH THE         Ÿ
                                    9086=            =Ÿ  EXCEPTION THAT THE VARIABLE NAME (DESCRIPTOR) FIELD IS REPLACE     Ÿ
                                    9087=            =Ÿ  WITH SPECIAL TYPE FLAGS AND OPERATOR STACK ENTRIES.                Ÿ
                                    9088=            =Ÿ                                                                     Ÿ
                                    9089=            =Ÿ  THE POINT OF THE COMPATIBILITY BETWEEN THIS DSECT AND THE          Ÿ
                                    9090=            =Ÿ  VARIABLE ENTRY DSECT, IS SO THAT THE RESULT OF THE EXPRESSION      Ÿ
                                    9091=            =Ÿ  EVALUATION (TYPE AND VALUE) IS COMPATIBLE.                         Ÿ
                                    9092=            =Ÿ                                                                     Ÿ
                                    9093=            =Ÿ                                                                     Ÿ
                                                      ¾þþþþþþþþþþþþþþþþþþþþþþþþþþþþþþþþþþþþþþþþþþþþþþþþþþþþþþþþþþþþþþþþþþþþþ»
0000000                00000 00050  9094             =XSENTRY  RECORD BEGIN ,            EXPRESSION STACK ENTRY
 000000                             9102  1          =XXSSTART   DS    0D
 000000                             9103  1          =           DS    (L'VNENTRY)X
                                    9104  1          =XSLENGTH   EQU   8192                STANDARD EXPRESSION STACK LEN
                                    9105  1          =XSLENTRY   EQU   XXSSTART,L'VPARM    ACTUAL LEN OF ENTRY (INCL. STR)
                                    9106  1          =*
                                    9107  1          =* EXPRESSION STACK ENTRIES,,,
                                    9108  1          =*
                                    9109  1          =*  ** CAUTION **
                                    9110  1          =* EXPRESSION STACK ENTRIES SHOULD ONLY OVERLAY VNDESC FIELD !
 000050                00050 00000  9111  1          =           ORG   XXSSTART+(VNDESC-VNENTRY)
 000000 00                          9112  1          =XSTYPE     FLAG  ,                   STACK ENTRY TYPE
 XSTYPE.XSSTART    01 EQ            9116  1          =           FLAG  (XSSTART,1,EQ)      START OF EXPRESSION
 XSTYPE.XSVAL      02 EQ            9126  1          =           FLAG  (XSVAL,2,EQ)        TERM, EVALUATED
 XSTYPE.XSOPER     03 EQ            9136  1          =           FLAG  (XSOPER,3,EQ)       OPERATOR
 XSTYPE.XSEND      04 EQ            9146  1          =           FLAG  (XSEND,4,EQ)        END OF EXPRESSION
 XSTYPE.XSNULL     05 EQ            9156  1          =           FLAG  (XSNULL,5,EQ)       NULL EXPRESSION
                                    9166  1          =
 000001                             9167  1          =XSUOPLVL   DS    X                   UNARY OPERATOR PRIORITY LEVEL
 000002                             9168  1          =XSBOPLVL   DS    X                   BINARY OPERATOR PRIORITY LEVEL
 000004                             9169  1          =XSUOPRTN   DS    A                   UNARY OPERATOR ROUTINE
 000008                             9170  1          =XSBOPRTN   DS    A                   BINARY OPERATOR ROUTINE
 00000C                             9171  1          =XSOPCHAR   DS    CL4                 OPERATOR
 000010                             9172  1          =           DS    0S(L'VNDESC-(*-(XXSSTART+(VNDESC-VNENTRY))))
1SYSV     (SYSV4072) (12:56) (15MAR04) DSECTS                                                                               Page   13
0Current Usings:  (CP,R11) (CV,R12)
0Loc    Object Code    Addr1 Addr2  Stmt Lv Lineno    Source Statement           (Hibal 5, Asmedit 3.3)  HLASM R4.0  2004/03/15 12.56
+___    ______ ____    _____ _____  ____ __ ______    ______ _________
0                                   9173= 1          =     ¿þþþþþþþþþþþþþþþþþþþþþþþþþþþþþþþþÜ
                                    9174= 1          =     Ÿ  STANDARD VARIABLE ENTRIES !!  Ÿ
                                    9175= 1          =     ¾þþþþþþþþþþþþþþþþþþþþþþþþþþþþþþþþ»
                                    9176  1          =XSNAME     SAMEAS VNNAME,DSECT=VNENTRY,BASE=XSENTRY     NAME AREA
                                    9177  1 01-09076 +XSNAME     EQU   XSENTRY+(VNNAME-VNENTRY),L'VNNAME,C'C'
                                    9178  1          =
                                    9179  1          =XSNUMB     SAMEAS VNNUMB,DSECT=VNENTRY,BASE=XSENTRY     TYPE: NUMBER
                                    9180  1 01-09076 +XSNUMB     EQU   XSENTRY+(VNNUMB-VNENTRY),L'VNNUMB,C''
                                    9181  1          =XSBOOL     SAMEAS VNBOOL,DSECT=VNENTRY,BASE=XSENTRY           BOOLEAN
                                    9182  1 01-09076 +XSBOOL     EQU   XSENTRY+(VNBOOL-VNENTRY),L'VNBOOL,C''
                                    9183  1          =XSSTRING   SAMEAS VNSTRING,DSECT=VNENTRY,BASE=XSENTRY         STRING
                                    9184  1 01-09076 +XSSTRING   EQU   XSENTRY+(VNSTRING-VNENTRY),L'VNSTRING,C''
                                    9185  1          =XSARRAY    SAMEAS VNARRAY,DSECT=VNENTRY,BASE,XSENTRY          ARRAY
                                    9186  1 01-09076 +XSARRAY    EQU   +(VNARRAY-VNENTRY),L'VNARRAY,C''
                                    9187  1          =
                                    9188  1          =XSVALUE    SAMEAS VNVALUE,DSECT=VNENTRY,BASE=XSENTRY     VALUE
                                    9189  1 01-09076 +XSVALUE    EQU   XSENTRY+(VNVALUE-VNENTRY),L'VNVALUE,C'X'
                                    9190  1          =XSSTRLOC   SAMEAS VNSTRLOC,DSECT=VNENTRY,BASE=XSENTRY    STRING LOC
                                    9191  1 01-09076 +XSSTRLOC   EQU   XSENTRY+(VNSTRLOC-VNENTRY),L'VNSTRLOC,C'C'
                                    9192  1          =XSSTRLEN   SAMEAS VNSTRLEN,DSECT=VNENTRY,BASE=XSENTRY    STRING LEN
                                    9193  1 01-09076 +XSSTRLEN   EQU   XSENTRY+(VNSTRLEN-VNENTRY),L'VNSTRLEN,C'H'
                                    9194  1          =
 000010                             9195  1          =           DS    0S(L'VPARM-L'XSLENTRY)
 000010                             9196  1          =           DS    0S(L'XSLENTRY-L'VPARM)
 000010                00010 00050  9197             =         END
1SYSV     (SYSV4072) (12:56) (15MAR04) Local Macros                                                                         Page   14
0Current Usings:  (CP,R11) (CV,R12)
0Loc    Object Code    Addr1 Addr2  Stmt Lv Lineno    Source Statement           (Hibal 5, Asmedit 3.3)  HLASM R4.0  2004/03/15 12.56
+___    ______ ____    _____ _____  ____ __ ______    ______ _________
0                                   9207              *
                                    9208              *
                                    9209              *   SYSTEM ROUTINE TABLE ENTRY MACRO
                                    9210              *
                                    9211              *
 000000                00000 00014  9212              RTNENTRY RECORD BEGIN
 000000                             9220  1           RTNNAME    DS    CL16
                                    9221  1           RTNPTR     DEFRTNP
 000010                             9222  1 01-DEFRT +RTNPTR     DS    A
 000014                00014 00014  9223                       END
                                    9232              *
                                    9233              *C-DATA  struct sysrtn {
                                    9234              *C-DATA    unsigned char name[16];
                                    9235              *C-DATA    void (* routine)();
                                    9236              *C-DATA  };
                                    9237              *
                                    9238              *
 000018                             9239                       DS    0S(16-L'VNNAME)     VNNAME MUST BE 16 OR FIXED ABOVE
 000018                             9240                       DS    0S(L'VNNAME-16)       AND FIXED IN SYSRTN MACRO
 000018                             9241                       DS    0S(16-L'RTNNAME)    RTNNAME MUST BE 16 OR FIXED ABOVE
 000018                             9242                       DS    0S(L'RTNNAME-16)      AND FIXED IN SYSRTN MACRO
                                    9243
                                    9244                       MACRO
                                    9245              &L       SYSVAR    &NAME,&ROUTINE
                                    9246              &L       SYSRTN    &NAME,&ROUTINE
                                    9247                       MEND
                                    9248
                                    9249                       MACRO
                                    9250              &L       LA$TABLE &RX,&LOC
                                    9251                       GBLB  &$PCODE
                                    9252                       AIF   (&$PCODE).CGENLA
                                    9253                       L     &RX,=A(&LOC)
                                    9254                       MEXIT
                                    9255              .CGENLA  ANOP
                                    9256                       MNOTE *,'C-CODE &RX = (long int)((char *)( && &LOC));'
                                    9257                       MEND
                                    9258
1SYSV     (SYSV4072) (12:56) (15MAR04) Local Macros                                                                         Page   15
0Current Usings:  (CP,R11) (CV,R12)
0Loc    Object Code    Addr1 Addr2  Stmt Lv Lineno    Source Statement           (Hibal 5, Asmedit 3.3)  HLASM R4.0  2004/03/15 12.56
+___    ______ ____    _____ _____  ____ __ ______    ______ _________
0                                   9260              *
                                    9261              *
                                    9262              *   LOCAL MACROS
                                    9263              *
                                    9264              *        SETARGS - SET ARG TYPES
                                    9265              *        RETARGS - RETURN PROCEDURE ARGS
                                    9266              *        VRETURN - RETURN VARIABLE VALUE, TYPE
                                    9267              *        BADARG - CREATE BAD ARGUMENT MESSAGE
                                    9268              *
                                    9269              *.... ..   -... ..- -..
-                                   9271              *
                                    9272              *                               SET ARGUMENT TYPES
                                    9273                       MACRO
                                    9274              &L       SETARGS  &LIST
                                    9275              &L       LA    R2,=C&LIST          LIST OF ARGUMENT TYPES TO SET
                                    9276                       ACALL SETARGS             R1 - ARG LIST, R0 - ARG COUNT
                                    9277                       MEND
-                                   9279              *
                                    9280              *                             RETURN VARIABLE @R6
                                    9281                       MACRO
                                    9282              &L       VRETURN &TYPE,&VALUE,&LEN
                                    9283              &L       DS    0H
                                    9284                       AIF   ('&TYPE' EQ 'STRING').TYPESTR
                                    9285                       AIF   ('&TYPE' EQ 'INTEGER').TYPEINT
                                    9286                       AIF   ('&TYPE' EQ 'LINENO').TYPELNO
                                    9287                       AIF   ('&TYPE' EQ 'BOOLEAN').TYPEBOOL
                                    9288                       MNOTE 8,'INVALID TYPE SPECIFIED'
                                    9289              .*
                                    9290              .*                                 RETURN STRING VALUE
                                    9291              .TYPESTR ANOP
                                    9292                       WITH  (VNENTRY,R6),BEGIN
                                    9293                       CLEAR VNENTRY                 CLEAR ENTRY
                                    9294                       SET   VNSTRING                SET STRING TYPE
                                    9295                       SETMSG &VALUE,&LEN
                                    9296                       STH   R0,VNSTRLEN             SAVE STRING LEN
                                    9297                       LTR   R3,R0                   SAVE STRING VALUE
                                    9298                       IF    POS,BEGIN
                                    9299                       DEX   R3,' MVC VNSTRLOC(0),@R1 '
                                    9300                       END
                                    9301                       SR    R15,R15
                                    9302                       END   , WITH (VNENTRY,R6)
                                    9303                       MEXIT
                                    9304              .*                                 RETURN INTEGER VALUE
                                    9305              .TYPEINT ANOP
                                    9306                       WITH  (VNENTRY,R6),BEGIN
                                    9307                       CLEAR VNENTRY                 CLEAR ENTRY
                                    9308                       SET   VNNUMB                  SET NUMBER TYPE
                                    9309                       $L    R1,&VALUE,OP=LA         SET VALUE
                                    9310                       ST    R1,VNVALUE
                                    9311                       LA    R2,VNENTRY
1SYSV     (SYSV4072) (12:56) (15MAR04) Local Macros                                                                         Page   16
0Current Usings:  (CP,R11) (CV,R12)
0Loc    Object Code    Addr1 Addr2  Stmt Lv Lineno    Source Statement           (Hibal 5, Asmedit 3.3)  HLASM R4.0  2004/03/15 12.56
+___    ______ ____    _____ _____  ____ __ ______    ______ _________
0                                   9312                       VCALL MAKEITOD                ALL #'S RETURNED AS PKD DEC
                                    9313                       END   , WITH (VNENTRY,R6)
                                    9314                       MEXIT
                                    9315              .*                                 RETURN LINE NUMBER VALUE
                                    9316              .TYPELNO ANOP
                                    9317                       WITH  (VNENTRY,R6),BEGIN
                                    9318                       CLEAR VNENTRY                 CLEAR ENTRY
                                    9319                       SET   VNNUMB                  SET NUMBER TYPE
                                    9320                       $L    R1,&VALUE,OP=LA         SET VALUE
                                    9321                       ST    R1,VNVALUE
                                    9322                       LA    R2,VNENTRY
                                    9323                       VCALL MAKELTOD                ALL #'S RETURNED AS PKD DEC
                                    9324                       END   , WITH (VNENTRY,R6)
                                    9325                       MEXIT
                                    9326              .*                                 RETURN BOOLEAN
                                    9327              .TYPEBOOL ANOP
                                    9328                       AIF   ('&VALUE' EQ 'TRUE').TRUEVAL
                                    9329                       AIF   ('&VALUE' EQ 'FALSE').FALSEVAL
                                    9330                       MNOTE 8,'INVALID BOOLEAN VALUE'
                                    9331              .TRUEVAL ANOP
                                    9332                       WITH  (VNENTRY,R6),BEGIN
                                    9333                       CLEAR VNENTRY                 CLEAR ENTRY
                                    9334                       SET   VNBOOL                  SET BOOLEAN TYPE
                                    9335                       MVC   VNVALUE(12),=X'00000000000001000000000C'   TRUE
                                    9336                       SR    R15,R15
                                    9337                       END   , WITH (VNENTRY,R6)
                                    9338                       MEXIT
                                    9339              .FALSEVAL ANOP
                                    9340                       WITH  (VNENTRY,R6),BEGIN
                                    9341                       CLEAR VNENTRY                 CLEAR ENTRY
                                    9342                       SET   VNBOOL                  SET BOOLEAN TYPE
                                    9343                       MVC   VNVALUE(12),=X'00000000000000000000000C'   FALSE
                                    9344                       SR    R15,R15
                                    9345                       END   , WITH (VNENTRY,R6)
                                    9346                       MEXIT
                                    9347              .*                                 DECIMAL/ARRAY RETURNS MUST
                                    9348              .*                                 BE CODED BY HAND !!!!
                                    9349                       MEND
-                                   9351              *
                                    9352              *                               TRIM BLANKS FROM END OF STRING
                                    9353                       MACRO
                                    9354              &L       VTRIM
                                    9355              &L       ACALL VTRIM               TRIM BLANKS, R6 - VAR ENTRY
                                    9356                       MEND
-                                   9358              *
                                    9359              *                               BAD ARGUMENT
                                    9360                       MACRO
                                    9361              &L       BADARG &ARGNO
                                    9362              &L       $L    R2,&ARGNO,OP=LA     NUMBER OF BAD ARGUMENT
                                    9363                       ACALL BADARG
1SYSV     (SYSV4072) (12:56) (15MAR04) Local Macros                                                                         Page   17
0Current Usings:  (CP,R11) (CV,R12)
0Loc    Object Code    Addr1 Addr2  Stmt Lv Lineno    Source Statement           (Hibal 5, Asmedit 3.3)  HLASM R4.0  2004/03/15 12.56
+___    ______ ____    _____ _____  ____ __ ______    ______ _________
0                                   9364                       MEND
1SYSV     (SYSV4072) (12:56) (15MAR04) Binary Search Info for Procedure List                                                Page   18
0Current Usings:  (CP,R11) (CV,R12)
0Loc    Object Code    Addr1 Addr2  Stmt Lv Lineno    Source Statement           (Hibal 5, Asmedit 3.3)  HLASM R4.0  2004/03/15 12.56
+___    ______ ____    _____ _____  ____ __ ______    ______ _________
0                                   9366              *
                                    9367              **
                                    9368              **  BINARY SEARCH INFO FOR TABLE OF SYSTEM FUNCTIONS
                                    9369              **
                                    9370              **  INITIALIZED BY INITFNS ROUTINE IN THIS MODULE.
                                    9371              *$  SHOULD GETMAIN THIS AREA TO MAKE REENTRANT !
                                    9372              **
                                    9373              *
1SYSV     (SYSV4072) (12:56) (15MAR04) Initialize System Variables                                                          Page   19
0Current Usings:  (CP,R11) (CV,R12)
0Loc    Object Code    Addr1 Addr2  Stmt Lv Lineno    Source Statement           (Hibal 5, Asmedit 3.3)  HLASM R4.0  2004/03/15 12.56
+___    ______ ____    _____ _____  ____ __ ______    ______ _________
0                                   9375              ¿þþþþþþþþþþþþþþþþþþþþþþþþþþþþþþþþþþþþþþþþþþþþþþþþþþþþþþþþþþþþþþþþþþþþþÜ
                                    9376              Ÿ                                                                     Ÿ
                                    9377              Ÿ                                                                     Ÿ
                                    9378              Ÿ  INITSYSV - SYSV MODULE INITIALIZATION                              Ÿ
                                    9379              Ÿ                                                                     Ÿ
                                    9380              Ÿ  SET UP BINARY SEARCH INFO FOR SYSTEM VARIABLES/FUNCTIONS.          Ÿ
                                    9381              Ÿ                                                                     Ÿ
                                    9382              Ÿ                                                                     Ÿ
                                    9383              Ÿ                                                                     Ÿ
                                                      ¾þþþþþþþþþþþþþþþþþþþþþþþþþþþþþþþþþþþþþþþþþþþþþþþþþþþþþþþþþþþþþþþþþþþþþ»
0000018 50E0 D000/9008_      00000  9384              INITSYSV XPROC ,
 USING  *,R7
                                    9424
                                    9425                       COMMENT                   GET MEMORY FOR VAR BSEARCH INFO
 000032 4100 0020            00020  9426                       LA    R0,L'BSINFO
 000036 58E0 70CE/0DEE       00100  9427                       VCALL GETCORE
 00003C 5010 C260            00260  9431                       ST    R1,CVVBINFO
                                    9432
                                    9433                       COMMENT                   VARS BSEARCH INFO
 000040 5800 C260            00260  9434                       L     R0,CVVBINFO         R0 - BSEARCH INFO
 000044 5810 70D2            00104  9435                       LA$TABLE R1,SYSVEND       R1 - TOTAL POSSIBLE TABLE LEN
 000048 5820 70D6            00108  9437                       LA$TABLE R2,SYSVARS
 00004C 1B12                        9439                       SR    R1,R2
 00004E 4120 0014            00014  9440                       LA    R2,L'RTNENTRY       R2 - ENTRY LENGTH
 000052 4130 0010            00010  9441                       LA    R3,L'RTNNAME        R3 - SEARCH LENGTH (NAME LEN)
 000056 1841                        9442                       LR    R4,R1               R4 - END OF LAST ENTRY = TAB LEN
 000058 58E0 70DA/0DEE       0010C  9443                       VCALL BSINIT
                                    9447
 00005E 18D8/9808 D004_             9448                       PEND
 DROP   *,R7
1SYSV     (SYSV4072) (12:56) (15MAR04) Initialize System Variables                                                          Page   20
0Current Usings:  (CP,R11) (CV,R12)
0Loc    Object Code    Addr1 Addr2  Stmt Lv Lineno    Source Statement           (Hibal 5, Asmedit 3.3)  HLASM R4.0  2004/03/15 12.56
+___    ______ ____    _____ _____  ____ __ ______    ______ _________
0                                   9469              *
                                    9470              *
                                    9471              *  GTVARRTN - GET SYSTEM VARIABLE ROUTINE ADDRESS
                                    9472              *
                                    9473              *  ON ENTRY:
                                    9474              *    @R0 - PLACE TO RETURN ROUTINE ADDRESS
                                    9475              *    @R1 - VARIABLE NAME, LEFT JUSTIFIED BLANK PADDED
                                    9476              *
                                    9477              *  ON EXIT:
                                    9478              *    R15=Z, ROUTINE FOUND;  R15=NZ, ROUTINE NOT FOUND
                                    9479              *    R1 - POINTS TO FULL NAME OF VARIABLE (NOT SAME AS ENTRY VALUE)
                                    9480              *
                                    9481              *
                                    9482              *  NOTE:
                                    9483              *  IF ROUTINE POINTER IS ZERO, ROUTINE IS NOT DEFINED. THIS IS
                                    9484              *  SO THAT WE CAN CONTROL WHICH ABBREVAIATIONS FIND MATCHES.
                                    9485              *
                                    9486              *
 00006C 50E0 D000/9008_      00000  9487              GTVARRTN XPROC ,
 USING  *,R7
                                    9527
 000086 1840                        9528                       LR    R4,R0
 000088 1851                        9529                       LR    R5,R1
                                    9530
                                    9531                       COMMENT                   SEARCH FOR SYSTEM ROUTINE
 00008A 5800 C260            00260  9532                       L     R0,CVVBINFO
 00008E 5810 7082            00108  9533                       LA$TABLE R1,SYSVARS
 000092 1825                        9535                       LR    R2,R5 IE. NAME
 000094 58E0 708A/0DEE       00110  9536                       VCALL ABSEARCH
                                    9540
                                    9541                       COMMENT                   IF FOUND RETURN VALUES
 00009A 12FF/4770 7038              9542                       IF    (R15,Z),BEGIN
 0000A0 1861                        9556  1                      LR    R6,R1
 USING  RTNENTRY,R6                 9557  1                      USING RTNENTRY,R6
 0000A2 D603 6010 6010_00010 00010  9566  1                      IF    (RTNPTR,NZ),BEGIN
 0000AC D203 4000 6010 00000 00010  9582  2                        MVC   @R4(L'RTNPTR),RTNPTR
 0000B2 4110 6000            00000  9583  2                        LA    R1,RTNNAME
 DROP   RTNENTRY,R6                 9584  2                        DROP  R6
 0000B6                             9591  1                      END
 0000B6 7034/47F0 7038 000B6 000AA  9595  1                      ELSE  BEGIN               IF NO RTNPTR, RETURN R15=NZ
 0000BA 41F0 0004            00004  9606  2                        LA    R15,4
 0000BE                             9607  1                      END
 0000BE                             9611                       END
                                    9615
 0000BE 5018 0008            00008  9616                       PRETURN (R1)
 0000C2 18D8/9808 D004_             9618                       PEND
 DROP   *,R7
1SYSV     (SYSV4072) (12:56) (15MAR04) Initialize System Variables                                                          Page   21
0Current Usings:  (CP,R11) (CV,R12)
0Loc    Object Code    Addr1 Addr2  Stmt Lv Lineno    Source Statement           (Hibal 5, Asmedit 3.3)  HLASM R4.0  2004/03/15 12.56
+___    ______ ____    _____ _____  ____ __ ______    ______ _________
0                                   9639              ¿þþþþþþþþþþþþþþþþþþþþþþþþþþþþþþþþþþþþþþþþþþþþþþþþþþþþþþþþþþþþþþþþþþþþþÜ
                                    9640              Ÿ                                                                     Ÿ
                                    9641              Ÿ                                                                     Ÿ
                                    9642              Ÿ  VTRIM - TRIM TRAILING BLANKS FROM A VAR ENTRY                      Ÿ
                                    9643              Ÿ                                                                     Ÿ
                                    9644              Ÿ  ON ENTRY - R6 VARIABLE ENTRY                                       Ÿ
                                    9645              Ÿ                                                                     Ÿ
                                    9646              Ÿ  ROUTINE CALLED VIA VTRIM MACRO, TO TRIM SYSTEM VARIABLES           Ÿ
                                    9647              Ÿ  THAT ARE LEFT JUSTIFIED AND PADDED WITH BLANKS, OR ALL             Ÿ
                                    9648              Ÿ  ZEROS.                                                             Ÿ
                                    9649              Ÿ                                                                     Ÿ
                                    9650              Ÿ                                                                     Ÿ
                                                      ¾þþþþþþþþþþþþþþþþþþþþþþþþþþþþþþþþþþþþþþþþþþþþþþþþþþþþþþþþþþþþþþþþþþþþþ»
00000D0 50E0 D000/9008_      00000  9651              VTRIM    PROC  ,
 USING  *,R7
 0000EA 58E0 702A/0DEE       00114  9690                       VCALL VTRIM               IN FUNC MODULE
 0000F0 18D8/9808 D004_             9694                       PEND  ,
 DROP   *,R7
                                    9714
                                    9715                       QLTORG
1SYSV     (SYSV4072) (12:56) (15MAR04) Table of System Variables                                                            Page   22
0Current Usings:  (CP,R11) (CV,R12)
0Loc    Object Code    Addr1 Addr2  Stmt Lv Lineno    Source Statement           (Hibal 5, Asmedit 3.3)  HLASM R4.0  2004/03/15 12.56
+___    ______ ____    _____ _____  ____ __ ______    ______ _________
0000118                             9734                       DS    0D
                                    9735              ¿þþþþþþþþþþþþþþþþþþþþþþþþþþþþþþþþþþþþþþþþþþþþþþþþþþþþþþþþþþþþþþþþþþþþþÜ
                                    9736              Ÿ                                                                     Ÿ
                                    9737              Ÿ                                                                     Ÿ
                                    9738              Ÿ  SORTED TABLE OF SYSTEM VARIABLES                                   Ÿ
                                    9739              Ÿ                                                                     Ÿ
                                    9740              Ÿ  FOR TABLE ENTRIES USE THE FOLLOWING MACRO:                         Ÿ
                                    9741              Ÿ       SYSVAR  <VARIABLE NAME>,<ROUTINE>                             Ÿ
                                    9742              Ÿ                                                                     Ÿ
                                    9743              Ÿ                                                                     Ÿ
                                    9744              Ÿ       **** CAUTION !!! ****                                         Ÿ
                                    9745              Ÿ  ENTRIES MUST BE SORTED ALPHABETICALLY BY NAME !!                   Ÿ
                                    9746              Ÿ                                                                     Ÿ
                                    9747              Ÿ                                                                     Ÿ
                                    9748              Ÿ                                                                     Ÿ
                                    9749              Ÿ                                                                     Ÿ
                                                      ¾þþþþþþþþþþþþþþþþþþþþþþþþþþþþþþþþþþþþþþþþþþþþþþþþþþþþþþþþþþþþþþþþþþþþþ»
0                                   9750                       COMMENT                   SYSTEM VARIABLES
 000118 C1C3C3D6E4D5E340_           9751              SYSVARS  SYSVAR  ACCOUNT,FNACC         ALPHABETIZE !
 00012C C1C3C3E340404040_           9756                       SYSVAR  ACCT,FNACC            ALPHABETIZE !
 000140 C1C3E3C2E8E3C5E2_           9761                       SYSVAR  ACTBYTES,FNACTBYT
 000154 C1C3E3D5C1D4C540_           9766                       SYSVAR  ACTNAME,FNACTNAM
 000168 C1C3E3D5D6404040_           9771                       SYSVAR  ACTNO,FNACTNO
 00017C C1C3E3E3E8D7C540_           9776                       SYSVAR  ACTTYPE,FNACTTYP
 000190 C1E3E3D540404040_           9781                       SYSVAR  ATTN,FNATTN
 0001A4 C1E3E3D5C9C44040_           9786                       SYSVAR  ATTNID,FNATTNID       ALPHABETIZE !
 0001B8 C1E3E3D5C9D5C6D6_           9791                       SYSVAR  ATTNINFO,FNATTNIN
 0001CC C1E4E3C8C9C44040_           9796                       SYSVAR  AUTHID,FNAUTHID
 0001E0 C1E4E3C8C9C46DD5_           9801                       SYSVAR  AUTHID_NAME,FNAUTHNM
 0001F4 C1E4E3C8C9C46DD9_           9806                       SYSVAR  AUTHID_REALM,FNAUTHRL
 000208 C2C1C3D240404040_           9811                       SYSVAR  BACK,FNBACK
 00021C C3C1E2C540404040_           9816                       SYSVAR  CASE,FNCASE           ALPHABETIZE !
 000230 C3C8C1D5C7C5E240_           9821                       SYSVAR  CHANGES,FNCHNGS
 000244 C3D6E4D5E3404040_           9826                       SYSVAR  COUNT,FNCOUNT         ALPHABETIZE !
 000258 C3D7404040404040_           9831                       SYSVAR  CP,FNCP
 00026C C3D7D9D6D4D7E340_           9836                       SYSVAR  CPROMPT,FNCPRMT
 000280 C3E4D9D9C5D5E340_           9841                       SYSVAR  CURRENT,FNCURRNT
 000294 C3E5404040404040_           9846                       SYSVAR  CV,FNCV
 0002A8 C4C1E3C540404040_           9851                       SYSVAR  DATE,FNDATE
 0002BC C4C1E3C5C6404040_           9856                       SYSVAR  DATEF,FNDATEF
 0002D0 C4C1E84040404040_           9861                       SYSVAR  DAY,FNDAY
 0002E4 C4C5D3E3C1404040_           9866                       SYSVAR  DELTA,FNDELTA
 0002F8 C4C5E2E3C9D5C1E3_           9871                       SYSVAR  DESTINATION,FNDEST    ALPHABETIZE !
 00030C C540404040404040_           9876                       SYSVAR  E,FNE
 000320 C5D4D6C4C5404040_           9881                       SYSVAR  EMODE,FNEMODE
 000334 C5D5C44040404040_           9886                       SYSVAR  END,FNEND
 000348 C5D9D94040404040_           9891                       SYSVAR  ERR,FNERR             ALPHABETIZE !
 00035C C5D9D9C9C4404040_           9896                       SYSVAR  ERRID,FNERRID
 000370 C5D9D9C9D5C6D640_           9901                       SYSVAR  ERRINFO,FNERRINF
 000384 C5D9D9D4E2C74040_           9906                       SYSVAR  ERRMSG,FNERRMSG
 000398 C5D9D9D6D9404040_           9911                       SYSVAR  ERROR,FNERR
 0003AC C5E2C3C1D7C54040_           9916                       SYSVAR  ESCAPE,FNESCAPE
 0003C0 C5E5C1D36DD3D5D6_           9921                       SYSVAR  EVAL_LNO,FNEVALL
1SYSV     (SYSV4072) (12:56) (15MAR04) Table of System Variables                                                            Page   23
0Current Usings:  (CP,R11) (CV,R12)
0Loc    Object Code    Addr1 Addr2  Stmt Lv Lineno    Source Statement           (Hibal 5, Asmedit 3.3)  HLASM R4.0  2004/03/15 12.56
+___    ______ ____    _____ _____  ____ __ ______    ______ _________
00003D4 C5E5C1D36DE3C5E7_           9926                       SYSVAR  EVAL_TEXT,FNEVALT
 0003E8 C640404040404040_           9931                       SYSVAR  F,FNFIRST
 0003FC C6C1D3E2C5404040_           9936                       SYSVAR  FALSE,FNFALSE         ALPHABETIZE !
 000410 C6C2D3D6C3D24040_           9941                       SYSVAR  FBLOCK,FNFBLOCK
 000424 C6C4C5C6C1E4D3E3_           9946                       SYSVAR  FDEFAULT,FNFDEF
 000438 C6C56DC8D6E2E3D5_           9951                       SYSVAR  FE_HOSTNAME,FNFEHOST
 00044C C6C56DC9D7C1C4C4_           9956                       SYSVAR  FE_IPADDR,FNIPADR
 000460 C6C56DC9E2D3D6C3_           9961                       SYSVAR  FE_ISLOCAL,FNISLOC
 000474 C6C56DC9E2D5C5E3_           9966                       SYSVAR  FE_ISNET,FNISNET
 000488 C6C56DD5C5E3C1C4_           9971                       SYSVAR  FE_NETADDR,FNNETADR
 00049C C6C56DD5C5E3D5C1_           9976                       SYSVAR  FE_NETNAME,FNNETNAM
 0004B0 C6C5D5C1D4C54040_           9981                       SYSVAR  FENAME,FNFENAME
 0004C4 C6C5D7D6D9E34040_           9986                       SYSVAR  FEPORT,FNFEPORT
 0004D8 C6C5E3E8D7C54040_           9991                       SYSVAR  FETYPE,FNFETYPE
 0004EC C6C9D9E2E3404040_           9996                       SYSVAR  FIRST,FNFIRST
 000500 C6D7C1E3C8404040_          10001                       SYSVAR  FPATH,FNFPATH
 000514 C7D9D6E4D7404040_          10006                       SYSVAR  GROUP,FNGROUP         ALPHABETIZE !
 000528 C7D9D74040404040_          10011                       SYSVAR  GRP,FNGROUP           ALPHABETIZE !
 00053C C8C5C9C7C8E34040_          10016                       SYSVAR  HEIGHT,FNHEIGHT
 000550 C8D6E2E340404040_          10021                       SYSVAR  HOST,FNHOST
 000564 C9D5E2C5D9E34040_          10026                       SYSVAR  INSERT,NULL           RESERVE FOR INSERT() FUNCTION
 000578 C9D5E2E3C1D3D3C1_          10031                       SYSVAR  INSTALLATION,FNINSTAL
 00058C C9D6D9C5E2E4D3E3_          10036                       SYSVAR  IORESULT,FNIORES
 0005A0 D1C5E24040404040_          10041                       SYSVAR  JES,FNJES             ALPHABETIZE !
 0005B4 D1D6C2D5C1D4C540_          10046                       SYSVAR  JOBNAME,FNJOB
 0005C8 D340404040404040_          10051                       SYSVAR  L,FNLAST
 0005DC D3C1E2E340404040_          10056                       SYSVAR  LAST,FNLAST
 0005F0 D3C2D3D6C3D24040_          10061                       SYSVAR  LBLOCK,FNLBLOCK
 000604 D3C5D5C7E3C84040_          10066                       SYSVAR  LENGTH,FNLENGTH
 000618 D3C9C2D9C1D9E840_          10071                       SYSVAR  LIBRARY,FNLIB
 00062C D3C9D5C540404040_          10076                       SYSVAR  LINE,NULL             RESERVE FOR LINE() FUNCTION
 000640 D3C9D5C5E2404040_          10081                       SYSVAR  LINES,FNLINES         ALPHABETIZE !
 000654 D3D5C1D4C5404040_          10086                       SYSVAR  LNAME,FNLNAME
 000668 D3D6C3C1D3C8D6E2_          10091                       SYSVAR  LOCALHOS,FNINV    (Not abbreviatable)
 00067C D3D6C3C1D3C8D6E2_          10096                       SYSVAR  LOCALHOST,FNLHOST
 000690 D4C1C3C8C9D5C540_          10101                       SYSVAR  MACHINE,FNMACH
 0006A4 D4C1C3C8C9D5C56D_          10106                       SYSVAR  MACHINE_ACCESS,FNMACC
 0006B8 D4C1C3C8C9D5C56D_          10111                       SYSVAR  MACHINE_PRIMARY,FNMPRIM
 0006CC D4C5D4C2C5D94040_          10116                       SYSVAR  MEMBER,FNMEMBER       ALPHABETIZE !
 0006E0 D4C9D3E3C5D54040_          10121                       SYSVAR  MILTEN,FNMILTEN
 0006F4 D5C1D4C540404040_          10126                       SYSVAR  NAME,FNNAME
 000708 D5C5E6D4C1C9D340_          10131                       SYSVAR  NEWMAIL,FNNMAIL
 00071C D5C5E6D5C5E6E240_          10136                       SYSVAR  NEWNEWS,FNNNEWS
 000730 D5C5E7E340404040_          10141                       SYSVAR  NEXT,FNNEXT
 000744 D6D9C9C7E2E8E240_          10146                       SYSVAR  ORIGSYS,FNORGSYS
 000758 D6D9E5E8D3404040_          10151                       SYSVAR  ORVYL,FNORVYL
 00076C D6D9E5E8D36DC3D4_          10156                       SYSVAR  ORVYL_CMDS_OK,FNORVCOK
 000780 D6D9E5E8D36DC3D7_          10161                       SYSVAR  ORVYL_CPU,FNORVCPU
 000794 D6D9E5E8D36DC9D6_          10166                       SYSVAR  ORVYL_IO,FNORVIO
 0007A8 D6D9E5E8D36DE4D7_          10171                       SYSVAR  ORVYL_UP,FNORVUP
 0007BC D7C1C3C3D6E4D5E3_          10176                       SYSVAR  PACCOUNT,FNPACC
 0007D0 D7C1C3C3E3404040_          10181                       SYSVAR  PACCT,FNPACC
 0007E4 D7C1D9D440404040_          10186                       SYSVAR  PARM,FNPARM
 0007F8 D7C7D44040404040_          10191                       SYSVAR  PGM,FNPROG
1SYSV     (SYSV4072) (12:56) (15MAR04) Table of System Variables                                                            Page   24
0Current Usings:  (CP,R11) (CV,R12)
0Loc    Object Code    Addr1 Addr2  Stmt Lv Lineno    Source Statement           (Hibal 5, Asmedit 3.3)  HLASM R4.0  2004/03/15 12.56
+___    ______ ____    _____ _____  ____ __ ______    ______ _________
000080C D7C9404040404040_          10196                       SYSVAR  PI,FNPI               ALPHABETIZE !
 000820 D7D9C54040404040_          10201                       SYSVAR  PRE,FNPREV
 000834 D7D9C5C6C9E74040_          10206                       SYSVAR  PREFIX,FNPREFIX
 000848 D7D9C5E5C9D6E4E2_          10211                       SYSVAR  PREVIOUS,FNPREV
 00085C D7D9C9E56DC1C3C3_          10216                       SYSVAR  PRIV_ACCT,FNPRVACT
 000870 D7D9C9E56DC1C4D4_          10221                       SYSVAR  PRIV_ADM,FNPRVADM
 000884 D7D9C9E56DD6D7D9_          10226                       SYSVAR  PRIV_OPR,FNPRVOPR
 000898 D7D9C9E56DE2E8E2_          10231                       SYSVAR  PRIV_SYS,FNPRVSYS
 0008AC D7D9D6C7D9C1D440_          10236                       SYSVAR  PROGRAM,FNPROG
 0008C0 D7D9D6D1C5C3E340_          10241                       SYSVAR  PROJECT,FNPROJ        ALPHABETIZE !
 0008D4 D7E5D6D3E4D4C540_          10246                       SYSVAR  PVOLUME,FNPVOL
 0008E8 D8D5C1D4C5404040_          10251                       SYSVAR  QNAME,FNQNAME
 0008FC D8D5D64040404040_          10256                       SYSVAR  QNO,FNQNO
 000910 D8E4C5D9E8404040_          10261                       SYSVAR  QUERY,NULL            RESERVE FOR QUERY() FUNCTION
 000924 D8E4C5D9E86DC5D9_          10266                       SYSVAR  QUERY_ERRINFO,FNQERR
 000938 D9C1D5C4D6D44040_          10271                       SYSVAR  RANDOM,FNRANDOM
 00094C D9C36DE4D7D3D6C1_          10276                       SYSVAR  RC_UPLOAD,FNRCUPL
 000960 D9C5E3E4D9D54040_          10281                       SYSVAR  RETURN,FNRETURN
 000974 E2C1D46DC4C9C1D3_          10286                       SYSVAR  SAM_DIALOG,FNSAMDIA
 000988 E2C1D46DC6D6D5E3_          10291                       SYSVAR  SAM_FONT,FNSAMFNT
 00099C E2C1D46DD6E24040_          10296                       SYSVAR  SAM_OS,FNSAMOS
 0009B0 E2C1D46DE3E8D7C5_          10301                       SYSVAR  SAM_TYPE,FNSAMTYP
 0009C4 E2C1D46DE5C5D9E2_          10306                       SYSVAR  SAM_VERSION,FNSAMVER  ALPHABETIZE !
 0009D8 E2C1D4E2D6D54040_          10311                       SYSVAR  SAMSON,FNSAMSON
 0009EC E2C5E26DD5E4D4C2_          10316                       SYSVAR  SES_NUMBER,FNSESNUM   TEMP, SESNO IS GOING BYE BYE
 000A00 E2C5E26DE3C1C740_          10321                       SYSVAR  SES_TAG,FNSESTAG
 000A14 E2D2C9D740404040_          10326                       SYSVAR  SKIP,FNSKIP
 000A28 E2D6C64040404040_          10331                       SYSVAR  SOF,FNSOF
 000A3C E2E4C24040404040_          10336                       SYSVAR  SUB,NULL              RESERVED FOR SUBSTR() FUNCTION
 000A50 E2E4C2C7D9D6E4D7_          10341                       SYSVAR  SUBGROUP,FNSUBGRO
 000A64 E2E8E2E3C5D44040_          10346                       SYSVAR  SYSTEM,FNSYSTEM
 000A78 E3C3C8C1D9E24040_          10351                       SYSVAR  TCHARS,FNTCHARS
 000A8C E3C3D3C1E2E24040_          10356                       SYSVAR  TCLASS,FNTCLASS
 000AA0 E3C5D9D4C9D5C1D3_          10361                       SYSVAR  TERMINAL,FNTERM
 000AB4 E3C8C5C9C7C8E340_          10366                       SYSVAR  THEIGHT,FNTHEIGHT
 000AC8 E3C9D4C540404040_          10371                       SYSVAR  TIME,FNTIME
 000ADC E3C9D4C5C2C9D540_          10376                       SYSVAR  TIMEBIN,FNTIMEB
 000AF0 E3C9D4C5C2D3D6C3_          10381                       SYSVAR  TIMEBLOCK,FNTMBLK
 000B04 E3D4D6C4C5D34040_          10386                       SYSVAR  TMODEL,FNTMODEL
 000B18 E3D8E4C9C5E34040_          10391                       SYSVAR  TQUIET,FNTQUIET
 000B2C E3D9E4C540404040_          10396                       SYSVAR  TRUE,FNTRUE           ALPHABETIZE !
 000B40 E3D9E8C1E3E3D540_          10401                       SYSVAR  TRYATTN,FNTYATTN
 000B54 E3D9E8C5D9D9D6D9_          10406                       SYSVAR  TRYERROR,FNTYERR
 000B68 E3D9E8C9C4404040_          10411                       SYSVAR  TRYID,FNTYID
 000B7C E3D9E8C9D5C6D640_          10416                       SYSVAR  TRYINFO,FNTYINFO
 000B90 E3D9E8D4E2C74040_          10421                       SYSVAR  TRYMSG,FNTYMSG
 000BA4 E3E3E8D7C5404040_          10426                       SYSVAR  TTYPE,FNTTYPE
 000BB8 E3E6C9C4E3C84040_          10431                       SYSVAR  TWIDTH,FNTWIDTH
 000BCC E4E2C5D940404040_          10436                       SYSVAR  USER,FNUSER           ALPHABETIZE !
 000BE0 E4E2C5D9C9C44040_          10441                       SYSVAR  USERID,FNUID
 000BF4 E4E2C5D9C9C46DD3_          10446                       SYSVAR  USERID_LIST,FNUIDL
 000C08 E4E2D94040404040_          10451                       SYSVAR  USR,FNUSER            ALPHABETIZE !
 000C1C E5C9C5E66DC3D6D3_          10456                       SYSVAR  VIEW_COLUMN,FNVCOL
 000C30 E5C9C5E66DC8C5C9_          10461                       SYSVAR  VIEW_HEIGHT,FNVHEI
1SYSV     (SYSV4072) (12:56) (15MAR04) Table of System Variables                                                            Page   25
0Current Usings:  (CP,R11) (CV,R12)
0Loc    Object Code    Addr1 Addr2  Stmt Lv Lineno    Source Statement           (Hibal 5, Asmedit 3.3)  HLASM R4.0  2004/03/15 12.56
+___    ______ ____    _____ _____  ____ __ ______    ______ _________
0000C44 E5C9C5E66DD3C9D5_          10466                       SYSVAR  VIEW_LINENO,FNVLNO
 000C58 E5C9C5E66DD5E6C9_          10471                       SYSVAR  VIEW_NWIND,FNVNWIND
 000C6C E5C9C5E66DE6C9C4_          10476                       SYSVAR  VIEW_WIDTH,FNVWID
 000C80 E5C9C5E66DE6C9D5_          10481                       SYSVAR  VIEW_WINDOW,FNVWIND
 000C94 E5D1D6C2D5C1D4C5_          10486                       SYSVAR  VJOBNAME,FNVJOB
 000CA8 E5D1D6C2D5D64040_          10491                       SYSVAR  VJOBNO,FNVJOBNO
 000CBC E5D3D6C7D6D54040_          10496                       SYSVAR  VLOGON,FNVLOGON
 000CD0 E5D6D3E4D4C54040_          10501                       SYSVAR  VOLUME,FNVOLUME
 000CE4 E5E2C5E2E2C9D6D5_          10506                       SYSVAR  VSESSION,FNVSESS
 000CF8 E6C1D9D540404040_          10511                       SYSVAR  WARN,FNWARN
 000D0C E6C3C8C1D9C7C540_          10516                       SYSVAR  WCHARGE,FNWCHG
 000D20 E6C6C4C5C6C1E4D3_          10521                       SYSVAR  WFDEFAULT,FNWFDEF
 000D34 E6C9C4E3C8404040_          10526                       SYSVAR  WIDTH,FNWIDTH
 000D48 E6D7D9D6D1C5C3E3_          10531                       SYSVAR  WPROJECT,FNWPROJ
 000D5C E6E8D3C2E4D94040_          10536                       SYSVAR  WYLBUR,FNWYLBUR
 000D70 E6E8D3C2E4D96DC3_          10541                       SYSVAR  WYLBUR_CPU,FNWYLCPU   ALPHABETIZE !
 000D84 E6E8D3C2E4D96DC9_          10546                       SYSVAR  WYLBUR_IO,FNWYLIO
 000D98 E7C1C3C3D6E4D5E3_          10551                       SYSVAR  XACCOUNT,FNXACC
 000DAC E7C1C3C3E3404040_          10556                       SYSVAR  XACCT,FNXACC
 000DC0 E7C1E4E3C8404040_          10561                       SYSVAR  XAUTH,FNXAUTH
 000DD4 E7C3D6D4D4C1D5C4_          10566                       SYSVAR  XCOMMAND,FNXCMD
 000DE8 E7C4C1E3C5404040_          10571                       SYSVAR  XDATE,FNXDATE         ALPHABETIZE !
 000DFC E7C4C1E3C5C64040_          10576                       SYSVAR  XDATEF,FNXDATEF
 000E10 E7C4E4D4D7404040_          10581                       SYSVAR  XDUMP,FNXDUMP
 000E24 E7D3C9D5C5404040_          10586                       SYSVAR  XLINE,FNXLINE
 000E38 E7D8E4C9C5E34040_          10591                       SYSVAR  XQUIET,FNXQUIET       ALPHABETIZE !
 000E4C E9E9E9C4E4D4D4E8_          10596              SYSVEND  SYSVAR  ZZZDUMMY,NULL     END OF SYSTEM TABLE
                                   10601              *                                  END OF SYSTEM TABLE
1SYSV     (SYSV4072) (12:56) (15MAR04) Table of System Variables                                                            Page   26
0Current Usings:  (CP,R11) (CV,R12)
0Loc    Object Code    Addr1 Addr2  Stmt Lv Lineno    Source Statement           (Hibal 5, Asmedit 3.3)  HLASM R4.0  2004/03/15 12.56
+___    ______ ____    _____ _____  ____ __ ______    ______ _________
0                                  10603                       QLTORG
1SYSV     (SYSV4072) (12:56) (15MAR04) System Routines for Variables                                                        Page   27
0Current Usings:  (CP,R11) (CV,R12)
0Loc    Object Code    Addr1 Addr2  Stmt Lv Lineno    Source Statement           (Hibal 5, Asmedit 3.3)  HLASM R4.0  2004/03/15 12.56
+___    ______ ____    _____ _____  ____ __ ______    ______ _________
0                                  10616              ¿þþþþþþþþþþþþþþþþþþþþþþþþþþþþþþþþþþþþþþþþþþþþþþþþþþþþþþþþþþþþþþþþþþþþþÜ
                                   10617              Ÿ                                                                     Ÿ
                                   10618              Ÿ                                                                     Ÿ
                                   10619              Ÿ  SYSTEM FUNCTION, PROCEDURE, AND VARIABLE ROUTINES                  Ÿ
                                   10620              Ÿ                                                                     Ÿ
                                   10621              Ÿ  ****NOTE !!                                                        Ÿ
                                   10622              Ÿ  SEE COMMENTS AT START OF THIS MODULE.                              Ÿ
                                   10623              Ÿ                                                                     Ÿ
                                   10624              Ÿ                                                                     Ÿ
                                   10625              Ÿ  ON ENTRY:                                                          Ÿ
                                   10626              Ÿ       R0 - VARIABLE COUNT                                           Ÿ
                                   10627              Ÿ       R1 - ARGUMENT LIST                                            Ÿ
                                   10628              Ÿ       R6 - FUNCTION/VARIABLE RETURN AREA                            Ÿ
                                   10629              Ÿ            (AREA WILL INITIALLY CONTAIN FUNCTION/PROC/VAR NAME)     Ÿ
                                   10630              Ÿ                                                                     Ÿ
                                   10631              Ÿ                                                                     Ÿ
                                   10632              Ÿ  ON EXIT:                                                           Ÿ
                                   10633              Ÿ       R6 - RETURNED VALUE (SAME AS ON ENTRY)                        Ÿ
                                   10634              Ÿ      R15 - CC=ZERO, ALL OK                                          Ÿ
                                   10635              Ÿ            CC=NZ, IF ERROR,,, ERROR MSG TSEG 'D                     Ÿ
                                   10636              Ÿ                                                                     Ÿ
                                   10637              Ÿ                                                                     Ÿ
                                   10638              Ÿ                                                                     Ÿ
                                                      ¾þþþþþþþþþþþþþþþþþþþþþþþþþþþþþþþþþþþþþþþþþþþþþþþþþþþþþþþþþþþþþþþþþþþþþ»
0                                  10639              ARG1     EQU   0*L'VPARM           USUALLY @R1
                                   10640              ARG2     EQU   1*L'VPARM
                                   10641              ARG3     EQU   2*L'VPARM
                                   10642              ARG4     EQU   3*L'VPARM
                                   10643              ARG5     EQU   4*L'VPARM
                                   10644              ARG6     EQU   5*L'VPARM
                                   10645              ARG7     EQU   6*L'VPARM
                                   10646              ARG8     EQU   7*L'VPARM
                                   10647
                                   10648              FNRET    EQU   0*L'VPARM           USUALLY @R6
                                   10649              *
                                   10650              *
 000000                00000 00150 10651              FNWA     RECORD BEGIN ,            GENERALIZED WORK AREA !
 000000                            10659  1           FNWORK     DS    XL(L'VPARM)         256+ BYTE WORK AREA
 000150                00150 00150 10660                       END
                                   10669              *
                                   10670              *
                                   10671              **************** ROUTINES FOLLOW BELOW !!
                                   10672              ¿þþþþþþþþþþþþþþþþþþþþþþþþþþþþþþþþþþþþþþþþþþþþþþþþþþþþþþþþþþþþþþþþþþþþþÜ
                                   10673              Ÿ                                                                     Ÿ
                                   10674              Ÿ  FNINV -- Generic error message.                                    Ÿ
                                   10675              Ÿ                                                                     Ÿ
                                                      ¾þþþþþþþþþþþþþþþþþþþþþþþþþþþþþþþþþþþþþþþþþþþþþþþþþþþþþþþþþþþþþþþþþþþþþ»
0000E60 50E0 D000/9008_      00000 10676              FNINV    PROC
 USING  *,R7
 000E7A 4110 732E/4100_      011A8 10715                       TSEG  'Invalid variable of function name.',,CR
                                   10733
 000E8C 41F0 0004            00004 10734                       LA    R15,4               Error
1SYSV     (SYSV4072) (12:56) (15MAR04) System Routines for Variables                                                        Page   28
0Current Usings:  (CP,R11) (CV,R12)
0Loc    Object Code    Addr1 Addr2  Stmt Lv Lineno    Source Statement           (Hibal 5, Asmedit 3.3)  HLASM R4.0  2004/03/15 12.56
+___    ______ ____    _____ _____  ____ __ ______    ______ _________
0000E90 18D8/9808 D004_            10735                       PEND
 DROP   *,R7
1SYSV     (SYSV4072) (12:56) (15MAR04) System Routines for Variables                                                        Page   29
0Current Usings:  (CP,R11) (CV,R12)
0Loc    Object Code    Addr1 Addr2  Stmt Lv Lineno    Source Statement           (Hibal 5, Asmedit 3.3)  HLASM R4.0  2004/03/15 12.56
+___    ______ ____    _____ _____  ____ __ ______    ______ _________
0                                  10756              ¿þþþþþþþþþþþþþþþþþþþþþþþþþþþþþþþþþþþþþþþþþþþþþþþþþþþþþþþþþþþþþþþþþþþþþÜ
                                   10757              Ÿ                                                                     Ÿ
                                   10758              Ÿ                                                                     Ÿ
                                   10759              Ÿ  ACCOUNT                                                            Ÿ
                                   10760              Ÿ                                                                     Ÿ
                                   10761              Ÿ  SEE COMMENTS AT START OF THIS MODULE                               Ÿ
                                   10762              Ÿ                                                                     Ÿ
                                                      ¾þþþþþþþþþþþþþþþþþþþþþþþþþþþþþþþþþþþþþþþþþþþþþþþþþþþþþþþþþþþþþþþþþþþþþ»
0000E9E 50E0 D000/9008_      00000 10763              FNACC    PROC  ,
 USING  *,R7
 USING  VNENTRY,R6                 10802                       WITH  (VNENTRY,R6)
 000EB8 D74F 6000 6000 00000 00000 10815                       CLEAR VNENTRY
 000EBE 9201 6020      00020       10822                       SET   VNSTRING
 000EC2 D701 6024 6024 00024 00024 10828                       CLEAR VNSTRLEN            Assume no account
                                   10835
 000EC8 D604 B3B4 B3B4_003B4 003B4 10836                       IF    (CPSACCT,NZ),BEGIN  Return account...
 000ED2 D201 6024 7312 00024 011CA 10852  1                      MVC   VNSTRLEN,=H'6'
 000ED8 D202 6026 B3B4 00026 003B4 10853  1                      MVC   VNSTRLOC(3),CPSUSER
 000EDE 925B 6029      00029       10854  1                      MVI   VNSTRLOC+3,C'$'
 000EE2 D201 602A B3B7 0002A 003B7 10855  1                      MVC   VNSTRLOC+4(2),CPSGRP
 000EE8                            10856                       END
 000EE8 18D8/9808 D004_            10860                       PEND
 DROP   VNENTRY,R6
 DROP   *,R7
1SYSV     (SYSV4072) (12:56) (15MAR04) System Routines for Variables                                                        Page   30
0Current Usings:  (CP,R11) (CV,R12)
0Loc    Object Code    Addr1 Addr2  Stmt Lv Lineno    Source Statement           (Hibal 5, Asmedit 3.3)  HLASM R4.0  2004/03/15 12.56
+___    ______ ____    _____ _____  ____ __ ______    ______ _________
0                                  10886              ¿þþþþþþþþþþþþþþþþþþþþþþþþþþþþþþþþþþþþþþþþþþþþþþþþþþþþþþþþþþþþþþþþþþþþþÜ
                                   10887              Ÿ                                                                     Ÿ
                                   10888              Ÿ                                                                     Ÿ
                                   10889              Ÿ  ACTBYTES                                                           Ÿ
                                   10890              Ÿ                                                                     Ÿ
                                   10891              Ÿ  SEE COMMENTS AT START OF THIS MODULE                               Ÿ
                                   10892              Ÿ                                                                     Ÿ
                                                      ¾þþþþþþþþþþþþþþþþþþþþþþþþþþþþþþþþþþþþþþþþþþþþþþþþþþþþþþþþþþþþþþþþþþþþþ»
0000EF6 50E0 D000/9008_      00000 10893              FNACTBYT PROC  ,
 USING  *,R7
 000F10 D74F 6000 6000_00000 00000 10932                       VRETURN INTEGER,L:CPABYCT
 USING  VNENTRY,R6
 DROP   VNENTRY,R6
 000F2C 18D8/9808 D004_            10979                       PEND
 DROP   *,R7
1SYSV     (SYSV4072) (12:56) (15MAR04) System Routines for Variables                                                        Page   31
0Current Usings:  (CP,R11) (CV,R12)
0Loc    Object Code    Addr1 Addr2  Stmt Lv Lineno    Source Statement           (Hibal 5, Asmedit 3.3)  HLASM R4.0  2004/03/15 12.56
+___    ______ ____    _____ _____  ____ __ ______    ______ _________
0                                  11000              ¿þþþþþþþþþþþþþþþþþþþþþþþþþþþþþþþþþþþþþþþþþþþþþþþþþþþþþþþþþþþþþþþþþþþþþÜ
                                   11001              Ÿ                                                                     Ÿ
                                   11002              Ÿ                                                                     Ÿ
                                   11003              Ÿ  ACTNAME                                                            Ÿ
                                   11004              Ÿ                                                                     Ÿ
                                   11005              Ÿ  SEE COMMENTS AT START OF THIS MODULE                               Ÿ
                                   11006              Ÿ                                                                     Ÿ
                                                      ¾þþþþþþþþþþþþþþþþþþþþþþþþþþþþþþþþþþþþþþþþþþþþþþþþþþþþþþþþþþþþþþþþþþþþþ»
0000F3A 50E0 D000/9008_      00000 11007              FNACTNAM PROC  ,
 USING  *,R7
 000F54 D74F 6000 6000_00000 00000 11046                       VRETURN STRING,CPANAME
 USING  VNENTRY,R6
 DROP   VNENTRY,R6
 000F78 58E0 7234/0DEE       01188 11134                       VTRIM
 000F7E 18D8/9808 D004_            11139                       PEND
 DROP   *,R7
1SYSV     (SYSV4072) (12:56) (15MAR04) System Routines for Variables                                                        Page   32
0Current Usings:  (CP,R11) (CV,R12)
0Loc    Object Code    Addr1 Addr2  Stmt Lv Lineno    Source Statement           (Hibal 5, Asmedit 3.3)  HLASM R4.0  2004/03/15 12.56
+___    ______ ____    _____ _____  ____ __ ______    ______ _________
0                                  11160              ¿þþþþþþþþþþþþþþþþþþþþþþþþþþþþþþþþþþþþþþþþþþþþþþþþþþþþþþþþþþþþþþþþþþþþþÜ
                                   11161              Ÿ                                                                     Ÿ
                                   11162              Ÿ                                                                     Ÿ
                                   11163              Ÿ  ACTNO                                                              Ÿ
                                   11164              Ÿ                                                                     Ÿ
                                   11165              Ÿ  SEE COMMENTS AT START OF THIS MODULE                               Ÿ
                                   11166              Ÿ                                                                     Ÿ
                                                      ¾þþþþþþþþþþþþþþþþþþþþþþþþþþþþþþþþþþþþþþþþþþþþþþþþþþþþþþþþþþþþþþþþþþþþþ»
0000F8C 50E0 D000/9008_      00000 11167              FNACTNO  PROC  ,
 USING  *,R7
 000FA6 D74F 6000 6000_00000 00000 11206                       VRETURN INTEGER,L:CPACTNO
 USING  VNENTRY,R6
 DROP   VNENTRY,R6
 000FC2 18D8/9808 D004_            11253                       PEND
 DROP   *,R7
1SYSV     (SYSV4072) (12:56) (15MAR04) System Routines for Variables                                                        Page   33
0Current Usings:  (CP,R11) (CV,R12)
0Loc    Object Code    Addr1 Addr2  Stmt Lv Lineno    Source Statement           (Hibal 5, Asmedit 3.3)  HLASM R4.0  2004/03/15 12.56
+___    ______ ____    _____ _____  ____ __ ______    ______ _________
0                                  11274              ¿þþþþþþþþþþþþþþþþþþþþþþþþþþþþþþþþþþþþþþþþþþþþþþþþþþþþþþþþþþþþþþþþþþþþþÜ
                                   11275              Ÿ                                                                     Ÿ
                                   11276              Ÿ                                                                     Ÿ
                                   11277              Ÿ  ACTTYPE                                                            Ÿ
                                   11278              Ÿ                                                                     Ÿ
                                   11279              Ÿ  SEE COMMENTS AT START OF THIS MODULE                               Ÿ
                                   11280              Ÿ                                                                     Ÿ
                                                      ¾þþþþþþþþþþþþþþþþþþþþþþþþþþþþþþþþþþþþþþþþþþþþþþþþþþþþþþþþþþþþþþþþþþþþþ»
0000FD0 50E0 D000/9008_      00000 11281              FNACTTYP PROC  ,
 USING  *,R7
 000FEA D74F 6000 6000_00000 00000 11320                       VRETURN STRING,CPATYPE
 USING  VNENTRY,R6
 DROP   VNENTRY,R6
 00100E 58E0 719E/0DEE       01188 11408                       VTRIM
 001014 18D8/9808 D004_            11413                       PEND
 DROP   *,R7
1SYSV     (SYSV4072) (12:56) (15MAR04) System Routines for Variables                                                        Page   34
0Current Usings:  (CP,R11) (CV,R12)
0Loc    Object Code    Addr1 Addr2  Stmt Lv Lineno    Source Statement           (Hibal 5, Asmedit 3.3)  HLASM R4.0  2004/03/15 12.56
+___    ______ ____    _____ _____  ____ __ ______    ______ _________
0                                  11434              ¿þþþþþþþþþþþþþþþþþþþþþþþþþþþþþþþþþþþþþþþþþþþþþþþþþþþþþþþþþþþþþþþþþþþþþÜ
                                   11435              Ÿ                                                                     Ÿ
                                   11436              Ÿ                                                                     Ÿ
                                   11437              Ÿ  ATTN                                                               Ÿ
                                   11438              Ÿ                                                                     Ÿ
                                   11439              Ÿ  SEE COMMENTS AT START OF THIS MODULE                               Ÿ
                                   11440              Ÿ                                                                     Ÿ
                                                      ¾þþþþþþþþþþþþþþþþþþþþþþþþþþþþþþþþþþþþþþþþþþþþþþþþþþþþþþþþþþþþþþþþþþþþþ»
0001022 50E0 D000/9008_      00000 11441              FNATTN   PROC  ,
 USING  *,R7
 00103C 9110 B47A/47E0_0047A       11480                       IF    CPFXXATN,BEGIN
 001044 D74F 6000 6000_00000 00000 11495  1                      VRETURN BOOLEAN,TRUE
 USING  VNENTRY,R6
 DROP   VNENTRY,R6
 001056                            11534                       END
 001056 701E/47F0 7030 01056 01042 11538                       ELSE  BEGIN
 00105A D74F 6000 6000_00000 00000 11549  1                      VRETURN BOOLEAN,FALSE
 USING  VNENTRY,R6
 DROP   VNENTRY,R6
 00106C                            11588                       END
 00106C 18D8/9808 D004_            11592                       PEND
 DROP   *,R7
1SYSV     (SYSV4072) (12:56) (15MAR04) System Routines for Variables                                                        Page   35
0Current Usings:  (CP,R11) (CV,R12)
0Loc    Object Code    Addr1 Addr2  Stmt Lv Lineno    Source Statement           (Hibal 5, Asmedit 3.3)  HLASM R4.0  2004/03/15 12.56
+___    ______ ____    _____ _____  ____ __ ______    ______ _________
0                                  11613              ¿þþþþþþþþþþþþþþþþþþþþþþþþþþþþþþþþþþþþþþþþþþþþþþþþþþþþþþþþþþþþþþþþþþþþþÜ
                                   11614              Ÿ                                                                     Ÿ
                                   11615              Ÿ                                                                     Ÿ
                                   11616              Ÿ  ATTNID                                                             Ÿ
                                   11617              Ÿ                                                                     Ÿ
                                   11618              Ÿ  SEE COMMENTS AT START OF THIS MODULE                               Ÿ
                                   11619              Ÿ                                                                     Ÿ
                                                      ¾þþþþþþþþþþþþþþþþþþþþþþþþþþþþþþþþþþþþþþþþþþþþþþþþþþþþþþþþþþþþþþþþþþþþþ»
000107A 50E0 D000/9008_      00000 11620              FNATTNID PROC  FNWA
 USING  *,R7
 USING  FNWA-(4+36),R8
                                   11670
                                   11671                       COMMENT                   IF ATTN, RETURN ATTNID
 001094 9110 B47A/47E0_0047A       11672                       IF    CPFXXATN,BEGIN
 00109C 4100 0150            00150 11687  1                      LA    R0,L'FNWORK
 0010A0 4110 8028            00000 11688  1                      LA    R1,FNWORK
 0010A4 4120 70C4            01158 11689  1                      LA    R2,=CL16'SYS.ATTNID       '
 0010A8 58E0 7110/0DEE       011A4 11690  1                      VCALL GETDATA
 0010AE 4780 7020            010B4 11694  1                      IF    NZ,BEGIN
 0010B2 0000                       11705  2                        BOMB
 0010B4                            11707  1                      END
 0010B4                            11711                       END
                                   11715
                                   11716                       COMMENT                   IF NO ATTN, RETURN "NOATTN  "
 0010B4 7024/47F0 702C 010B4 0109A 11717                       ELSE  BEGIN
 0010B8 4100 0008            00008 11728  1                      LA    R0,8
 0010BC 4110 70D4            01168 11729  1                      LA    R1,=CL8'NOATTN  '
 0010C0                            11730                       END
                                   11734
 0010C0 D74F 6000 6000_00000 00000 11735                       VRETURN STRING,(R1),(R0)
 USING  VNENTRY,R6
 DROP   VNENTRY,R6
 0010DC 18D8/9808 D004_            11819                       PEND
 DROP   FNWA-(4+36),R8
 DROP   *,R7
1SYSV     (SYSV4072) (12:56) (15MAR04) System Routines for Variables                                                        Page   36
0Current Usings:  (CP,R11) (CV,R12)
0Loc    Object Code    Addr1 Addr2  Stmt Lv Lineno    Source Statement           (Hibal 5, Asmedit 3.3)  HLASM R4.0  2004/03/15 12.56
+___    ______ ____    _____ _____  ____ __ ______    ______ _________
0                                  11845              ¿þþþþþþþþþþþþþþþþþþþþþþþþþþþþþþþþþþþþþþþþþþþþþþþþþþþþþþþþþþþþþþþþþþþþþÜ
                                   11846              Ÿ                                                                     Ÿ
                                   11847              Ÿ                                                                     Ÿ
                                   11848              Ÿ  ATTNINFO                                                           Ÿ
                                   11849              Ÿ                                                                     Ÿ
                                   11850              Ÿ  SEE COMMENTS AT START OF THIS MODULE                               Ÿ
                                   11851              Ÿ                                                                     Ÿ
                                                      ¾þþþþþþþþþþþþþþþþþþþþþþþþþþþþþþþþþþþþþþþþþþþþþþþþþþþþþþþþþþþþþþþþþþþþþ»
00010EA 50E0 D000/9008_      00000 11852              FNATTNIN PROC  FNWA
 USING  *,R7
 USING  FNWA-(4+36),R8
                                   11902
                                   11903                       COMMENT                   IF ATTENTION, RETURN ATTN INFO
 001104 9110 B47A/47E0_0047A       11904                       IF    CPFXXATN,BEGIN
 00110C 4100 0150            00150 11919  1                      LA    R0,L'FNWORK
 001110 4110 8028            00000 11920  1                      LA    R1,FNWORK
 001114 4120 706C            01170 11921  1                      LA    R2,=CL16'SYS.ATTNINFO    '
 001118 58E0 70A0/0DEE       011A4 11922  1                      VCALL GETDATA
 00111E 4780 7020            01124 11926  1                      IF    NZ,BEGIN
 001122 1B00                       11937  2                        CLEAR R0
 001124                            11941  1                      END
 001124                            11945                       END
                                   11949
                                   11950                       COMMENT                   IF NO ATTENTIONN, RETURN NULL
 001124 7024/47F0 7028 01124 0110A 11951                       ELSE  BEGIN
 001128 1B00                       11962  1                      CLEAR R0
 00112A 1B11                       11966  1                      CLEAR R1
 00112C                            11970                       END
                                   11974
 00112C D74F 6000 6000_00000 00000 11975                       VRETURN STRING,(R1),(R0)
 USING  VNENTRY,R6
 DROP   VNENTRY,R6
 001148 18D8/9808 D004_            12059                       PEND
 DROP   FNWA-(4+36),R8
 DROP   *,R7
1SYSV     (SYSV4072) (12:56) (15MAR04) System Routines for Variables                                                        Page   37
0Current Usings:  (CP,R11) (CV,R12)
0Loc    Object Code    Addr1 Addr2  Stmt Lv Lineno    Source Statement           (Hibal 5, Asmedit 3.3)  HLASM R4.0  2004/03/15 12.56
+___    ______ ____    _____ _____  ____ __ ______    ______ _________
0                                  12085                       QLTORG
1SYSV     (SYSV4072) (12:56) (15MAR04) System Routines for Variables                                                        Page   38
0Current Usings:  (CP,R11) (CV,R12)
0Loc    Object Code    Addr1 Addr2  Stmt Lv Lineno    Source Statement           (Hibal 5, Asmedit 3.3)  HLASM R4.0  2004/03/15 12.56
+___    ______ ____    _____ _____  ____ __ ______    ______ _________
0                                  12109              ¿þþþþþþþþþþþþþþþþþþþþþþþþþþþþþþþþþþþþþþþþþþþþþþþþþþþþþþþþþþþþþþþþþþþþþÜ
                                   12110              Ÿ                                                                     Ÿ
                                   12111              Ÿ                                                                     Ÿ
                                   12112              Ÿ  AUTHID - Authorized identity (currently Kerberos                   Ÿ
                                   12113              Ÿ           principal name)                                           Ÿ
                                   12114              Ÿ                                                                     Ÿ
                                   12115              Ÿ  SEE COMMENTS AT START OF THIS MODULE                               Ÿ
                                   12116              Ÿ                                                                     Ÿ
                                                      ¾þþþþþþþþþþþþþþþþþþþþþþþþþþþþþþþþþþþþþþþþþþþþþþþþþþþþþþþþþþþþþþþþþþþþþ»
00011E4 50E0 D000/9008_      00000 12117              FNAUTHID PROC  ,
 USING  *,R7
 0011FE D74F 6000 6000_00000 00000 12156                       VRETURN STRING,CPAUTHID
 USING  VNENTRY,R6
 DROP   VNENTRY,R6
 001222 58E0 74B2/0DEE       016B0 12244                       VTRIM
 001228 18D8/9808 D004_            12249                       PEND
 DROP   *,R7
1SYSV     (SYSV4072) (12:56) (15MAR04) System Routines for Variables                                                        Page   39
0Current Usings:  (CP,R11) (CV,R12)
0Loc    Object Code    Addr1 Addr2  Stmt Lv Lineno    Source Statement           (Hibal 5, Asmedit 3.3)  HLASM R4.0  2004/03/15 12.56
+___    ______ ____    _____ _____  ____ __ ______    ______ _________
0                                  12270              ¿þþþþþþþþþþþþþþþþþþþþþþþþþþþþþþþþþþþþþþþþþþþþþþþþþþþþþþþþþþþþþþþþþþþþþÜ
                                   12271              Ÿ                                                                     Ÿ
                                   12272              Ÿ                                                                     Ÿ
                                   12273              Ÿ  AUTHID_NAME - Kerberos principal name without realm part           Ÿ
                                   12274              Ÿ                                                                     Ÿ
                                   12275              Ÿ  SEE COMMENTS AT START OF THIS MODULE                               Ÿ
                                   12276              Ÿ                                                                     Ÿ
                                                      ¾þþþþþþþþþþþþþþþþþþþþþþþþþþþþþþþþþþþþþþþþþþþþþþþþþþþþþþþþþþþþþþþþþþþþþ»
0001236 50E0 D000/9008_      00000 12277              FNAUTHNM PROC  ,
 USING  *,R7
 001250 4110 BB80            00B80 12316                       LA    R1,CPAUTHID
 001254 1B00                       12317                       CLEAR R0
 001256 D67F BB80 BB80_00B80 00B80 12321                       IF (CPAUTHID,NZ),BEGIN
 001260 4120 0080            00080 12337  1                      LA    R2,L'CPAUTHID
 001264 1831                       12338  1                      LR    R3,R1
 001266 1222/4780 7032_            12339  1                      WHILE ((R2,NZ),AND,(@R3,NE,'@')),BEGIN
 001274 0620                       12370  2                        DECR  R2
 001276 5E00 7464            016B4 12372  2                        INCR  R0
 00127A 5E30 7464            016B4 12375  2                        INCR  R3
 00127E 47F0 7016            01266 12378  1                      END
 001282                            12383                       END
 001282 D74F 6000 6000_00000 00000 12387                       VRETURN STRING,(R1),(R0)
 USING  VNENTRY,R6
 DROP   VNENTRY,R6
 00129E 58E0 7460/0DEE       016B0 12471                       VTRIM
 0012A4 18D8/9808 D004_            12476                       PEND
 DROP   *,R7
1SYSV     (SYSV4072) (12:56) (15MAR04) System Routines for Variables                                                        Page   40
0Current Usings:  (CP,R11) (CV,R12)
0Loc    Object Code    Addr1 Addr2  Stmt Lv Lineno    Source Statement           (Hibal 5, Asmedit 3.3)  HLASM R4.0  2004/03/15 12.56
+___    ______ ____    _____ _____  ____ __ ______    ______ _________
0                                  12497              ¿þþþþþþþþþþþþþþþþþþþþþþþþþþþþþþþþþþþþþþþþþþþþþþþþþþþþþþþþþþþþþþþþþþþþþÜ
                                   12498              Ÿ                                                                     Ÿ
                                   12499              Ÿ                                                                     Ÿ
                                   12500              Ÿ  AUTHID_REALM - Kerberos realm                                      Ÿ
                                   12501              Ÿ                                                                     Ÿ
                                   12502              Ÿ  SEE COMMENTS AT START OF THIS MODULE                               Ÿ
                                   12503              Ÿ                                                                     Ÿ
                                                      ¾þþþþþþþþþþþþþþþþþþþþþþþþþþþþþþþþþþþþþþþþþþþþþþþþþþþþþþþþþþþþþþþþþþþþþ»
00012B2 50E0 D000/9008_      00000 12504              FNAUTHRL PROC  ,
 USING  *,R7
 0012CC 4110 BB80            00B80 12543                       LA    R1,CPAUTHID
 0012D0 1B00                       12544                       CLEAR R0
 0012D2 D67F BB80 BB80_00B80 00B80 12548                       IF (CPAUTHID,NZ),BEGIN
 0012DC 4120 0080            00080 12564  1                      LA    R2,L'CPAUTHID
 0012E0 1831                       12565  1                      LR    R3,R1
 0012E2 1222/4780 702E_            12566  1                      WHILE ((R2,NZ),AND,(@R3,NE,'@')),BEGIN
 0012F0 0620                       12597  2                        DECR  R2
 0012F2 5E30 73E8            016B4 12599  2                        INCR  R3
 0012F6 47F0 7016            012E2 12602  1                      END
 0012FA 5920 73EC/47D0_      016B8 12607  1                      IF    (R2,GT,=F'1'),BEGIN Non-null realm
 001302 4110 3001            00001 12623  2                        LA    R1,1(,R3)           Point past '@'
 001306 1802                       12624  2                        LR    R0,R2               Length of realm part
 001308 0600                       12625  2                        DECR  R0
 00130A                            12627  1                      END
 00130A                            12631                       END
 00130A D74F 6000 6000_00000 00000 12635                       VRETURN STRING,(R1),(R0)
 USING  VNENTRY,R6
 DROP   VNENTRY,R6
 001326 58E0 73E4/0DEE       016B0 12719                       VTRIM
 00132C 18D8/9808 D004_            12724                       PEND
 DROP   *,R7
1SYSV     (SYSV4072) (12:56) (15MAR04) System Routines for Variables                                                        Page   41
0Current Usings:  (CP,R11) (CV,R12)
0Loc    Object Code    Addr1 Addr2  Stmt Lv Lineno    Source Statement           (Hibal 5, Asmedit 3.3)  HLASM R4.0  2004/03/15 12.56
+___    ______ ____    _____ _____  ____ __ ______    ______ _________
0                                  12745              ¿þþþþþþþþþþþþþþþþþþþþþþþþþþþþþþþþþþþþþþþþþþþþþþþþþþþþþþþþþþþþþþþþþþþþþÜ
                                   12746              Ÿ                                                                     Ÿ
                                   12747              Ÿ                                                                     Ÿ
                                   12748              Ÿ  BACK                                                               Ÿ
                                   12749              Ÿ                                                                     Ÿ
                                   12750              Ÿ  SEE COMMENTS AT START OF THIS MODULE                               Ÿ
                                   12751              Ÿ                                                                     Ÿ
                                                      ¾þþþþþþþþþþþþþþþþþþþþþþþþþþþþþþþþþþþþþþþþþþþþþþþþþþþþþþþþþþþþþþþþþþþþþ»
000133A 50E0 D000/9008_      00000 12752              FNBACK   PROC  ,
 USING  *,R7
 001354 4110 7384/4100_      016D8 12791                       SETMSG 'NOBACK'
 00135C 9140 B3F8/47E0_003F8       12795                       IF    CPSFBACK,'SETMSG "BACK"'
 00136C D74F 6000 6000_00000 00000 12819                       VRETURN STRING,(R1),(R0)
 USING  VNENTRY,R6
 DROP   VNENTRY,R6
 001388 18D8/9808 D004_            12903                       PEND
 DROP   *,R7
1SYSV     (SYSV4072) (12:56) (15MAR04) System Routines for Variables                                                        Page   42
0Current Usings:  (CP,R11) (CV,R12)
0Loc    Object Code    Addr1 Addr2  Stmt Lv Lineno    Source Statement           (Hibal 5, Asmedit 3.3)  HLASM R4.0  2004/03/15 12.56
+___    ______ ____    _____ _____  ____ __ ______    ______ _________
0                                  12924              ¿þþþþþþþþþþþþþþþþþþþþþþþþþþþþþþþþþþþþþþþþþþþþþþþþþþþþþþþþþþþþþþþþþþþþþÜ
                                   12925              Ÿ                                                                     Ÿ
                                   12926              Ÿ                                                                     Ÿ
                                   12927              Ÿ  CASE                                                               Ÿ
                                   12928              Ÿ                                                                     Ÿ
                                   12929              Ÿ  SEE COMMENTS AT START OF THIS MODULE                               Ÿ
                                   12930              Ÿ                                                                     Ÿ
                                                      ¾þþþþþþþþþþþþþþþþþþþþþþþþþþþþþþþþþþþþþþþþþþþþþþþþþþþþþþþþþþþþþþþþþþþþþ»
0001396 50E0 D000/9008_      00000 12931              FNCASE   PROC  ,
 USING  *,R7
 0013B0 4110 7330/4100_      016E0 12970                       SETMSG 'UPPER'
 0013B8 9180 B3F8/47E0_003F8       12974                       IF    CPSFUPL,'SETMSG "UPLOW"'
 0013C8 D74F 6000 6000_00000 00000 12998                       VRETURN STRING,(R1),(R0)
 USING  VNENTRY,R6
 DROP   VNENTRY,R6
 0013E4 18D8/9808 D004_            13082                       PEND
 DROP   *,R7
1SYSV     (SYSV4072) (12:56) (15MAR04) System Routines for Variables                                                        Page   43
0Current Usings:  (CP,R11) (CV,R12)
0Loc    Object Code    Addr1 Addr2  Stmt Lv Lineno    Source Statement           (Hibal 5, Asmedit 3.3)  HLASM R4.0  2004/03/15 12.56
+___    ______ ____    _____ _____  ____ __ ______    ______ _________
0                                  13103              ¿þþþþþþþþþþþþþþþþþþþþþþþþþþþþþþþþþþþþþþþþþþþþþþþþþþþþþþþþþþþþþþþþþþþþþÜ
                                   13104              Ÿ                                                                     Ÿ
                                   13105              Ÿ                                                                     Ÿ
                                   13106              Ÿ  CHANGES                                                            Ÿ
                                   13107              Ÿ                                                                     Ÿ
                                   13108              Ÿ  SEE COMMENTS AT START OF THIS MODULE                               Ÿ
                                   13109              Ÿ                                                                     Ÿ
                                                      ¾þþþþþþþþþþþþþþþþþþþþþþþþþþþþþþþþþþþþþþþþþþþþþþþþþþþþþþþþþþþþþþþþþþþþþ»
00013F2 50E0 D000/9008_      00000 13110              FNCHNGS  PROC  ,
 USING  *,R7
 00140C D74F 6000 6000_00000 00000 13149                       VRETURN INTEGER,L:CPACHCT
 USING  VNENTRY,R6
 DROP   VNENTRY,R6
 001428 18D8/9808 D004_            13196                       PEND
 DROP   *,R7
1SYSV     (SYSV4072) (12:56) (15MAR04) System Routines for Variables                                                        Page   44
0Current Usings:  (CP,R11) (CV,R12)
0Loc    Object Code    Addr1 Addr2  Stmt Lv Lineno    Source Statement           (Hibal 5, Asmedit 3.3)  HLASM R4.0  2004/03/15 12.56
+___    ______ ____    _____ _____  ____ __ ______    ______ _________
0                                  13217              ¿þþþþþþþþþþþþþþþþþþþþþþþþþþþþþþþþþþþþþþþþþþþþþþþþþþþþþþþþþþþþþþþþþþþþþÜ
                                   13218              Ÿ                                                                     Ÿ
                                   13219              Ÿ                                                                     Ÿ
                                   13220              Ÿ  COUNT                                                              Ÿ
                                   13221              Ÿ                                                                     Ÿ
                                   13222              Ÿ  SEE COMMENTS AT START OF THIS MODULE                               Ÿ
                                   13223              Ÿ                                                                     Ÿ
                                                      ¾þþþþþþþþþþþþþþþþþþþþþþþþþþþþþþþþþþþþþþþþþþþþþþþþþþþþþþþþþþþþþþþþþþþþþ»
0001436 50E0 D000/9008_      00000 13224              FNCOUNT  PROC  ,
 USING  *,R7
 001450 D74F 6000 6000_00000 00000 13263                       VRETURN INTEGER,L:CPCOUNT
 USING  VNENTRY,R6
 DROP   VNENTRY,R6
 00146C 18D8/9808 D004_            13310                       PEND
 DROP   *,R7
1SYSV     (SYSV4072) (12:56) (15MAR04) System Routines for Variables                                                        Page   45
0Current Usings:  (CP,R11) (CV,R12)
0Loc    Object Code    Addr1 Addr2  Stmt Lv Lineno    Source Statement           (Hibal 5, Asmedit 3.3)  HLASM R4.0  2004/03/15 12.56
+___    ______ ____    _____ _____  ____ __ ______    ______ _________
0                                  13331              ¿þþþþþþþþþþþþþþþþþþþþþþþþþþþþþþþþþþþþþþþþþþþþþþþþþþþþþþþþþþþþþþþþþþþþþÜ
                                   13332              Ÿ                                                                     Ÿ
                                   13333              Ÿ                                                                     Ÿ
                                   13334              Ÿ  CP - CP ADDRESS                                                    Ÿ
                                   13335              Ÿ                                                                     Ÿ
                                   13336              Ÿ  SEE COMMENTS AT START OF THIS MODULE                               Ÿ
                                   13337              Ÿ                                                                     Ÿ
                                                      ¾þþþþþþþþþþþþþþþþþþþþþþþþþþþþþþþþþþþþþþþþþþþþþþþþþþþþþþþþþþþþþþþþþþþþþ»
000147A 50E0 D000/9008_      00000 13338              FNCP     PROC  ,
 USING  *,R7
 001494 D74F 6000 6000_00000 00000 13377                       VRETURN INTEGER,LA:CP
 USING  VNENTRY,R6
 DROP   VNENTRY,R6
 0014B0 18D8/9808 D004_            13424                       PEND
 DROP   *,R7
1SYSV     (SYSV4072) (12:56) (15MAR04) System Routines for Variables                                                        Page   46
0Current Usings:  (CP,R11) (CV,R12)
0Loc    Object Code    Addr1 Addr2  Stmt Lv Lineno    Source Statement           (Hibal 5, Asmedit 3.3)  HLASM R4.0  2004/03/15 12.56
+___    ______ ____    _____ _____  ____ __ ______    ______ _________
0                                  13445              ¿þþþþþþþþþþþþþþþþþþþþþþþþþþþþþþþþþþþþþþþþþþþþþþþþþþþþþþþþþþþþþþþþþþþþþÜ
                                   13446              Ÿ                                                                     Ÿ
                                   13447              Ÿ                                                                     Ÿ
                                   13448              Ÿ  CPROMPT -- Current command prompt string.                          Ÿ
                                   13449              Ÿ                                                                     Ÿ
                                   13450              Ÿ  SEE COMMENTS AT START OF THIS MODULE                               Ÿ
                                   13451              Ÿ                                                                     Ÿ
                                                      ¾þþþþþþþþþþþþþþþþþþþþþþþþþþþþþþþþþþþþþþþþþþþþþþþþþþþþþþþþþþþþþþþþþþþþþ»
00014BE 50E0 D000/9008_      00000 13452              FNCPRMT  PROC  ,
 USING  *,R7
 0014D8 D74F 6000 6000_00000 00000 13491                       VRETURN STRING,CPCPRMT,LH:CPCPLEN
 USING  VNENTRY,R6
 DROP   VNENTRY,R6
 0014FC 18D8/9808 D004_            13578                       PEND
 DROP   *,R7
1SYSV     (SYSV4072) (12:56) (15MAR04) System Routines for Variables                                                        Page   47
0Current Usings:  (CP,R11) (CV,R12)
0Loc    Object Code    Addr1 Addr2  Stmt Lv Lineno    Source Statement           (Hibal 5, Asmedit 3.3)  HLASM R4.0  2004/03/15 12.56
+___    ______ ____    _____ _____  ____ __ ______    ______ _________
0                                  13599              ¿þþþþþþþþþþþþþþþþþþþþþþþþþþþþþþþþþþþþþþþþþþþþþþþþþþþþþþþþþþþþþþþþþþþþþÜ
                                   13600              Ÿ                                                                     Ÿ
                                   13601              Ÿ                                                                     Ÿ
                                   13602              Ÿ  CURRENT                                                            Ÿ
                                   13603              Ÿ                                                                     Ÿ
                                   13604              Ÿ  SEE COMMENTS AT START OF THIS MODULE                               Ÿ
                                   13605              Ÿ                                                                     Ÿ
                                                      ¾þþþþþþþþþþþþþþþþþþþþþþþþþþþþþþþþþþþþþþþþþþþþþþþþþþþþþþþþþþþþþþþþþþþþþ»
000150A 50E0 D000/9008_      00000 13606              FNCURRNT PROC  ,
 USING  *,R7
 001524 D74F 6000 6000_00000 00000 13645                       VRETURN LINENO,L:CPACLNO
 USING  VNENTRY,R6
 DROP   VNENTRY,R6
 001540 18D8/9808 D004_            13692                       PEND
 DROP   *,R7
1SYSV     (SYSV4072) (12:56) (15MAR04) System Routines for Variables                                                        Page   48
0Current Usings:  (CP,R11) (CV,R12)
0Loc    Object Code    Addr1 Addr2  Stmt Lv Lineno    Source Statement           (Hibal 5, Asmedit 3.3)  HLASM R4.0  2004/03/15 12.56
+___    ______ ____    _____ _____  ____ __ ______    ______ _________
0                                  13713              ¿þþþþþþþþþþþþþþþþþþþþþþþþþþþþþþþþþþþþþþþþþþþþþþþþþþþþþþþþþþþþþþþþþþþþþÜ
                                   13714              Ÿ                                                                     Ÿ
                                   13715              Ÿ                                                                     Ÿ
                                   13716              Ÿ  CV - CV ADDRESS                                                    Ÿ
                                   13717              Ÿ                                                                     Ÿ
                                   13718              Ÿ  SEE COMMENTS AT START OF THIS MODULE                               Ÿ
                                   13719              Ÿ                                                                     Ÿ
                                                      ¾þþþþþþþþþþþþþþþþþþþþþþþþþþþþþþþþþþþþþþþþþþþþþþþþþþþþþþþþþþþþþþþþþþþþþ»
000154E 50E0 D000/9008_      00000 13720              FNCV     PROC  ,
 USING  *,R7
 001568 D74F 6000 6000_00000 00000 13759                       VRETURN INTEGER,LA:CV
 USING  VNENTRY,R6
 DROP   VNENTRY,R6
 001584 18D8/9808 D004_            13806                       PEND
 DROP   *,R7
1SYSV     (SYSV4072) (12:56) (15MAR04) System Routines for Variables                                                        Page   49
0Current Usings:  (CP,R11) (CV,R12)
0Loc    Object Code    Addr1 Addr2  Stmt Lv Lineno    Source Statement           (Hibal 5, Asmedit 3.3)  HLASM R4.0  2004/03/15 12.56
+___    ______ ____    _____ _____  ____ __ ______    ______ _________
0                                  13827              ¿þþþþþþþþþþþþþþþþþþþþþþþþþþþþþþþþþþþþþþþþþþþþþþþþþþþþþþþþþþþþþþþþþþþþþÜ
                                   13828              Ÿ                                                                     Ÿ
                                   13829              Ÿ                                                                     Ÿ
                                   13830              Ÿ  DATE                                                               Ÿ
                                   13831              Ÿ                                                                     Ÿ
                                   13832              Ÿ  SEE COMMENTS AT START OF THIS MODULE                               Ÿ
                                   13833              Ÿ                                                                     Ÿ
                                                      ¾þþþþþþþþþþþþþþþþþþþþþþþþþþþþþþþþþþþþþþþþþþþþþþþþþþþþþþþþþþþþþþþþþþþþþ»
0001592 50E0 D000/9008_      00000 13834              FNDATE   PROC  ,
 USING  *,R7
 0015AC 18FD/41D0 D100             13873                       XPUSH  ,,MAXSTRLN,PTR=R15
 0015B2 58E0 711C/0DEE       016C8 13876                       VCALL LOCALTOD
 0015B8 58E0 7120/0DEE       016CC 13880                       VCALL FMTCLCK             IN CR MODULE
 0015BE D20C 100F 1011 0000F 00011 13884                       MVC   15(13,R1),17(R1)    Eliminate the century
 0015C4 D206 1013 1015 00013 00015 13885                       MVC   19(7,R1),21(R1)      for now
 0015CA 5B00 7124            016D0 13886                       S     R0,=F'4'
 0015CE D74F 6000 6000_00000 00000 13887                       VRETURN STRING,(R1),(R0)
 USING  VNENTRY,R6
 DROP   VNENTRY,R6
 0015EA 4BD0 7132            016DE 13971                       XPOP  ,,MAXSTRLN
 0015EE 18D8/9808 D004_            13973                       PEND
 DROP   *,R7
1SYSV     (SYSV4072) (12:56) (15MAR04) System Routines for Variables                                                        Page   50
0Current Usings:  (CP,R11) (CV,R12)
0Loc    Object Code    Addr1 Addr2  Stmt Lv Lineno    Source Statement           (Hibal 5, Asmedit 3.3)  HLASM R4.0  2004/03/15 12.56
+___    ______ ____    _____ _____  ____ __ ______    ______ _________
0                                  13994              ¿þþþþþþþþþþþþþþþþþþþþþþþþþþþþþþþþþþþþþþþþþþþþþþþþþþþþþþþþþþþþþþþþþþþþþÜ
                                   13995              Ÿ                                                                     Ÿ
                                   13996              Ÿ                                                                     Ÿ
                                   13997              Ÿ  DATEF - Date with full year (including century)                    Ÿ
                                   13998              Ÿ                                                                     Ÿ
                                   13999              Ÿ  SEE COMMENTS AT START OF THIS MODULE                               Ÿ
                                   14000              Ÿ                                                                     Ÿ
                                   14001              Ÿ                                                                     Ÿ
                                                      ¾þþþþþþþþþþþþþþþþþþþþþþþþþþþþþþþþþþþþþþþþþþþþþþþþþþþþþþþþþþþþþþþþþþþþþ»
00015FC 50E0 D000/9008_      00000 14002              FNDATEF  PROC  ,
 USING  *,R7
 001616 18FD/41D0 D100             14041                       XPUSH  ,,MAXSTRLN,PTR=R15
 00161C 58E0 70B2/0DEE       016C8 14044                       VCALL LOCALTOD
 001622 58E0 70B6/0DEE       016CC 14048                       VCALL FMTCLCK             IN CR MODULE
 001628 D74F 6000 6000_00000 00000 14052                       VRETURN STRING,(R1),(R0)
 USING  VNENTRY,R6
 DROP   VNENTRY,R6
 001644 4BD0 70C8            016DE 14136                       XPOP  ,,MAXSTRLN
 001648 18D8/9808 D004_            14138                       PEND
 DROP   *,R7
1SYSV     (SYSV4072) (12:56) (15MAR04) System Routines for Variables                                                        Page   51
0Current Usings:  (CP,R11) (CV,R12)
0Loc    Object Code    Addr1 Addr2  Stmt Lv Lineno    Source Statement           (Hibal 5, Asmedit 3.3)  HLASM R4.0  2004/03/15 12.56
+___    ______ ____    _____ _____  ____ __ ______    ______ _________
0                                  14159              ¿þþþþþþþþþþþþþþþþþþþþþþþþþþþþþþþþþþþþþþþþþþþþþþþþþþþþþþþþþþþþþþþþþþþþþÜ
                                   14160              Ÿ                                                                     Ÿ
                                   14161              Ÿ                                                                     Ÿ
                                   14162              Ÿ  DAY                                                                Ÿ
                                   14163              Ÿ                                                                     Ÿ
                                   14164              Ÿ  SEE COMMENTS AT START OF THIS MODULE                               Ÿ
                                   14165              Ÿ                                                                     Ÿ
                                                      ¾þþþþþþþþþþþþþþþþþþþþþþþþþþþþþþþþþþþþþþþþþþþþþþþþþþþþþþþþþþþþþþþþþþþþþ»
0001656 50E0 D000/9008_      00000 14166              FNDAY    PROC  ,
 USING  *,R7
 001670 18FD/41D0 D100             14205                       XPUSH  ,,MAXSTRLN,PTR=R15
 001676 58E0 7058/0DEE       016C8 14208                       VCALL LOCALTOD
 00167C 58E0 7064/0DEE       016D4 14212                       VCALL FMTDAY              IN CR MODULE
 001682 D74F 6000 6000_00000 00000 14216                       VRETURN STRING,(R1),(R0)
 USING  VNENTRY,R6
 DROP   VNENTRY,R6
 00169E 4BD0 706E            016DE 14300                       XPOP  ,,MAXSTRLN
 0016A2 18D8/9808 D004_            14302                       PEND
 DROP   *,R7
                                   14322
                                   14323                       QLTORG
1SYSV     (SYSV4072) (12:56) (15MAR04) System Routines for Variables                                                        Page   52
0Current Usings:  (CP,R11) (CV,R12)
0Loc    Object Code    Addr1 Addr2  Stmt Lv Lineno    Source Statement           (Hibal 5, Asmedit 3.3)  HLASM R4.0  2004/03/15 12.56
+___    ______ ____    _____ _____  ____ __ ______    ______ _________
0                                  14350              ¿þþþþþþþþþþþþþþþþþþþþþþþþþþþþþþþþþþþþþþþþþþþþþþþþþþþþþþþþþþþþþþþþþþþþþÜ
                                   14351              Ÿ                                                                     Ÿ
                                   14352              Ÿ                                                                     Ÿ
                                   14353              Ÿ  DELTA                                                              Ÿ
                                   14354              Ÿ                                                                     Ÿ
                                   14355              Ÿ  SEE COMMENTS AT START OF THIS MODULE                               Ÿ
                                   14356              Ÿ                                                                     Ÿ
                                                      ¾þþþþþþþþþþþþþþþþþþþþþþþþþþþþþþþþþþþþþþþþþþþþþþþþþþþþþþþþþþþþþþþþþþþþþ»
0001720 50E0 D000/9008_      00000 14357              FNDELTA  PROC  ,
 USING  *,R7
 00173A D74F 6000 6000_00000 00000 14396                       VRETURN LINENO,L:CPDELTA
 USING  VNENTRY,R6
 DROP   VNENTRY,R6
 001756 18D8/9808 D004_            14443                       PEND
 DROP   *,R7
1SYSV     (SYSV4072) (12:56) (15MAR04) System Routines for Variables                                                        Page   53
0Current Usings:  (CP,R11) (CV,R12)
0Loc    Object Code    Addr1 Addr2  Stmt Lv Lineno    Source Statement           (Hibal 5, Asmedit 3.3)  HLASM R4.0  2004/03/15 12.56
+___    ______ ____    _____ _____  ____ __ ______    ______ _________
0                                  14464              ¿þþþþþþþþþþþþþþþþþþþþþþþþþþþþþþþþþþþþþþþþþþþþþþþþþþþþþþþþþþþþþþþþþþþþþÜ
                                   14465              Ÿ                                                                     Ÿ
                                   14466              Ÿ                                                                     Ÿ
                                   14467              Ÿ  DESTINATION                                                        Ÿ
                                   14468              Ÿ                                                                     Ÿ
                                   14469              Ÿ  SEE COMMENTS AT START OF THIS MODULE                               Ÿ
                                   14470              Ÿ                                                                     Ÿ
                                                      ¾þþþþþþþþþþþþþþþþþþþþþþþþþþþþþþþþþþþþþþþþþþþþþþþþþþþþþþþþþþþþþþþþþþþþþ»
0001764 50E0 D000/9008_      00000 14471              FNDEST   PROC  ,
 USING  *,R7
 00177E D74F 6000 6000_00000 00000 14510                       VRETURN STRING,CPDEST
 USING  VNENTRY,R6
 DROP   VNENTRY,R6
 0017A2 58E0 703E/0DEE       017BC 14598                       VTRIM
 0017A8 18D8/9808 D004_            14603                       PEND
 DROP   *,R7
1SYSV     (SYSV4072) (12:56) (15MAR04) System Routines for Variables                                                        Page   54
0Current Usings:  (CP,R11) (CV,R12)
0Loc    Object Code    Addr1 Addr2  Stmt Lv Lineno    Source Statement           (Hibal 5, Asmedit 3.3)  HLASM R4.0  2004/03/15 12.56
+___    ______ ____    _____ _____  ____ __ ______    ______ _________
0                                  14624                       QLTORG
1SYSV     (SYSV4072) (12:56) (15MAR04) System Routines for Variables                                                        Page   55
0Current Usings:  (CP,R11) (CV,R12)
0Loc    Object Code    Addr1 Addr2  Stmt Lv Lineno    Source Statement           (Hibal 5, Asmedit 3.3)  HLASM R4.0  2004/03/15 12.56
+___    ______ ____    _____ _____  ____ __ ______    ______ _________
0                                  14639              ¿þþþþþþþþþþþþþþþþþþþþþþþþþþþþþþþþþþþþþþþþþþþþþþþþþþþþþþþþþþþþþþþþþþþþþÜ
                                   14640              Ÿ                                                                     Ÿ
                                   14641              Ÿ                                                                     Ÿ
                                   14642              Ÿ  E - 2.71828                                                        Ÿ
                                   14643              Ÿ                                                                     Ÿ
                                   14644              Ÿ  SEE COMMENTS AT START OF THIS MODULE                               Ÿ
                                   14645              Ÿ                                                                     Ÿ
                                                      ¾þþþþþþþþþþþþþþþþþþþþþþþþþþþþþþþþþþþþþþþþþþþþþþþþþþþþþþþþþþþþþþþþþþþþþ»
00017C6 50E0 D000/9008_      00000 14646              FNE      PROC  ,
 USING  *,R7
 USING  VNENTRY,R6                 14685                       USING VNENTRY,R6
 0017E0 D74F 6000 6000 00000 00000 14694                       CLEAR VNENTRY
 0017E6 9202 6020      00020       14701                       SET   VNNUMB
 0017EA D20B 6024 7080 00024 01860 14707                       MVC   VNVALUE(12),=X'00000000000002718281800C'
 0017F0 1BFF                       14708                       SR    R15,R15
 DROP   VNENTRY,R6                 14709                       DROP  R6
 0017F2 18D8/9808 D004_            14716                       PEND
 DROP   *,R7
1SYSV     (SYSV4072) (12:56) (15MAR04) System Routines for Variables                                                        Page   56
0Current Usings:  (CP,R11) (CV,R12)
0Loc    Object Code    Addr1 Addr2  Stmt Lv Lineno    Source Statement           (Hibal 5, Asmedit 3.3)  HLASM R4.0  2004/03/15 12.56
+___    ______ ____    _____ _____  ____ __ ______    ______ _________
0                                  14737              ¿þþþþþþþþþþþþþþþþþþþþþþþþþþþþþþþþþþþþþþþþþþþþþþþþþþþþþþþþþþþþþþþþþþþþþÜ
                                   14738              Ÿ                                                                     Ÿ
                                   14739              Ÿ                                                                     Ÿ
                                   14740              Ÿ  EMODE  (Editing mode)                                              Ÿ
                                   14741              Ÿ                                                                     Ÿ
                                   14742              Ÿ  SEE COMMENTS AT START OF THIS MODULE                               Ÿ
                                   14743              Ÿ                                                                     Ÿ
                                                      ¾þþþþþþþþþþþþþþþþþþþþþþþþþþþþþþþþþþþþþþþþþþþþþþþþþþþþþþþþþþþþþþþþþþþþþ»
0001800 50E0 D000/9008_      00000 14744              FNEMODE  PROC  ,
 USING  *,R7
 00181A 4110 7052/4100_      0186C 14783                       SETMSG 'LINE'
 001822 9180 BAC8/47E0_00AC8       14787                       IF    CPVFPAGE,'SETMSG "PAGE"'
 001832 D74F 6000 6000_00000 00000 14811                       VRETURN STRING,(R1),(R0)
 USING  VNENTRY,R6
 DROP   VNENTRY,R6
 00184E 18D8/9808 D004_            14895                       PEND
 DROP   *,R7
                                   14915
                                   14916                       QLTORG
1SYSV     (SYSV4072) (12:56) (15MAR04) System Routines for Variables                                                        Page   57
0Current Usings:  (CP,R11) (CV,R12)
0Loc    Object Code    Addr1 Addr2  Stmt Lv Lineno    Source Statement           (Hibal 5, Asmedit 3.3)  HLASM R4.0  2004/03/15 12.56
+___    ______ ____    _____ _____  ____ __ ______    ______ _________
0                                  14932              ¿þþþþþþþþþþþþþþþþþþþþþþþþþþþþþþþþþþþþþþþþþþþþþþþþþþþþþþþþþþþþþþþþþþþþþÜ
                                   14933              Ÿ                                                                     Ÿ
                                   14934              Ÿ                                                                     Ÿ
                                   14935              Ÿ  END                                                                Ÿ
                                   14936              Ÿ                                                                     Ÿ
                                   14937              Ÿ  SEE COMMENTS AT START OF THIS MODULE                               Ÿ
                                   14938              Ÿ                                                                     Ÿ
                                                      ¾þþþþþþþþþþþþþþþþþþþþþþþþþþþþþþþþþþþþþþþþþþþþþþþþþþþþþþþþþþþþþþþþþþþþþ»
000187A 50E0 D000/9008_      00000 14939              FNEND    PROC  ,
 USING  *,R7
 001894 58E0 7114/0DEE       019A8 14978                       VCALL ENDLNO              Get END line-number
 00189A 1810                       14982                       LR    R1,R0
 00189C D74F 6000 6000_00000 00000 14983                       VRETURN LINENO,(R1)
 USING  VNENTRY,R6
 DROP   VNENTRY,R6
 0018B4 18D8/9808 D004_            15029                       PEND
 DROP   *,R7
1SYSV     (SYSV4072) (12:56) (15MAR04) System Routines for Variables                                                        Page   58
0Current Usings:  (CP,R11) (CV,R12)
0Loc    Object Code    Addr1 Addr2  Stmt Lv Lineno    Source Statement           (Hibal 5, Asmedit 3.3)  HLASM R4.0  2004/03/15 12.56
+___    ______ ____    _____ _____  ____ __ ______    ______ _________
0                                  15050              ¿þþþþþþþþþþþþþþþþþþþþþþþþþþþþþþþþþþþþþþþþþþþþþþþþþþþþþþþþþþþþþþþþþþþþþÜ
                                   15051              Ÿ                                                                     Ÿ
                                   15052              Ÿ                                                                     Ÿ
                                   15053              Ÿ  ERR                                                                Ÿ
                                   15054              Ÿ                                                                     Ÿ
                                   15055              Ÿ  SEE COMMENTS AT START OF THIS MODULE                               Ÿ
                                   15056              Ÿ                                                                     Ÿ
                                                      ¾þþþþþþþþþþþþþþþþþþþþþþþþþþþþþþþþþþþþþþþþþþþþþþþþþþþþþþþþþþþþþþþþþþþþþ»
00018C2 50E0 D000/9008_      00000 15057              FNERR    PROC  ,
 USING  *,R7
 0018DC 9120 B479/47E0_00479       15096                       IF    CPFXXERR,BEGIN
 0018E4 D74F 6000 6000_00000 00000 15111  1                      VRETURN BOOLEAN,TRUE
 USING  VNENTRY,R6
 DROP   VNENTRY,R6
 0018F6                            15150                       END
 0018F6 701E/47F0 7030 018F6 018E2 15154                       ELSE  BEGIN
 0018FA D74F 6000 6000_00000 00000 15165  1                      VRETURN BOOLEAN,FALSE
 USING  VNENTRY,R6
 DROP   VNENTRY,R6
 00190C                            15204                       END
 00190C 18D8/9808 D004_            15208                       PEND
 DROP   *,R7
1SYSV     (SYSV4072) (12:56) (15MAR04) System Routines for Variables                                                        Page   59
0Current Usings:  (CP,R11) (CV,R12)
0Loc    Object Code    Addr1 Addr2  Stmt Lv Lineno    Source Statement           (Hibal 5, Asmedit 3.3)  HLASM R4.0  2004/03/15 12.56
+___    ______ ____    _____ _____  ____ __ ______    ______ _________
0                                  15229              ¿þþþþþþþþþþþþþþþþþþþþþþþþþþþþþþþþþþþþþþþþþþþþþþþþþþþþþþþþþþþþþþþþþþþþþÜ
                                   15230              Ÿ                                                                     Ÿ
                                   15231              Ÿ                                                                     Ÿ
                                   15232              Ÿ  ERRID                                                              Ÿ
                                   15233              Ÿ                                                                     Ÿ
                                   15234              Ÿ  SEE COMMENTS AT START OF THIS MODULE                               Ÿ
                                   15235              Ÿ                                                                     Ÿ
                                                      ¾þþþþþþþþþþþþþþþþþþþþþþþþþþþþþþþþþþþþþþþþþþþþþþþþþþþþþþþþþþþþþþþþþþþþþ»
000191A 50E0 D000/9008_      00000 15236              FNERRID  PROC  FNWA
 USING  *,R7
 USING  FNWA-(4+36),R8
                                   15286
                                   15287                       COMMENT                   IF ERROR, RETURN ERRID
 001934 9120 B479/47E0_00479       15288                       IF    CPFXXERR,BEGIN
 00193C 4100 0150            00150 15303  1                      LA    R0,L'FNWORK
 001940 4110 8028            00000 15304  1                      LA    R1,FNWORK
 001944 4120 705C            01990 15305  1                      LA    R2,=CL16'SYS.ERRID       '
 001948 58E0 7094/0DEE       019C8 15306  1                      VCALL GETDATA
 00194E 4780 7020            01954 15310  1                      IF    NZ,BEGIN
 001952 0000                       15321  2                        BOMB
 001954                            15323  1                      END
 001954                            15327                       END
                                   15331
                                   15332                       COMMENT                   IF NO ERROR, RETURN OK
 001954 7024/47F0 702C 01954 0193A 15333                       ELSE  BEGIN
 001958 4100 0008            00008 15344  1                      LA    R0,8
 00195C 4110 706C            019A0 15345  1                      LA    R1,=CL8'OK      '
 001960                            15346                       END
                                   15350
 001960 D74F 6000 6000_00000 00000 15351                       VRETURN STRING,(R1),(R0)
 USING  VNENTRY,R6
 DROP   VNENTRY,R6
 00197C 58E0 7098/0DEE       019CC 15435                       VTRIM
 001982 18D8/9808 D004_            15440                       PEND
 DROP   FNWA-(4+36),R8
 DROP   *,R7
                                   15465
                                   15466                       QLTORG
1SYSV     (SYSV4072) (12:56) (15MAR04) System Routines for Variables                                                        Page   60
0Current Usings:  (CP,R11) (CV,R12)
0Loc    Object Code    Addr1 Addr2  Stmt Lv Lineno    Source Statement           (Hibal 5, Asmedit 3.3)  HLASM R4.0  2004/03/15 12.56
+___    ______ ____    _____ _____  ____ __ ______    ______ _________
0                                  15487              ¿þþþþþþþþþþþþþþþþþþþþþþþþþþþþþþþþþþþþþþþþþþþþþþþþþþþþþþþþþþþþþþþþþþþþþÜ
                                   15488              Ÿ                                                                     Ÿ
                                   15489              Ÿ                                                                     Ÿ
                                   15490              Ÿ  ERRINFO                                                            Ÿ
                                   15491              Ÿ                                                                     Ÿ
                                   15492              Ÿ  SEE COMMENTS AT START OF THIS MODULE                               Ÿ
                                   15493              Ÿ                                                                     Ÿ
                                                      ¾þþþþþþþþþþþþþþþþþþþþþþþþþþþþþþþþþþþþþþþþþþþþþþþþþþþþþþþþþþþþþþþþþþþþþ»
00019D6 50E0 D000/9008_      00000 15494              FNERRINF PROC  FNWA
 USING  *,R7
 USING  FNWA-(4+36),R8
                                   15544
                                   15545                       COMMENT                   IF ERROR, RETURN ERROR INFO
 0019F0 9120 B479/47E0_00479       15546                       IF    CPFXXERR,BEGIN
 0019F8 4100 0150            00150 15561  1                      LA    R0,L'FNWORK
 0019FC 4110 8028            00000 15562  1                      LA    R1,FNWORK
 001A00 4120 7958            02348 15563  1                      LA    R2,=CL16'SYS.ERRINFO     '
 001A04 58E0 7990/0DEE       02380 15564  1                      VCALL GETDATA
 001A0A 4780 7020            01A10 15568  1                      IF    NZ,BEGIN
 001A0E 1B00                       15579  2                        CLEAR R0
 001A10                            15583  1                      END
 001A10                            15587                       END
                                   15591
                                   15592                       COMMENT                   IF NO ERROR, RETURN NULL
 001A10 7024/47F0 7028 01A10 019F6 15593                       ELSE  BEGIN
 001A14 1B00                       15604  1                      CLEAR R0
 001A16 1B11                       15608  1                      CLEAR R1
 001A18                            15612                       END
                                   15616
 001A18 D74F 6000 6000_00000 00000 15617                       VRETURN STRING,(R1),(R0)
 USING  VNENTRY,R6
 DROP   VNENTRY,R6
 001A34 18D8/9808 D004_            15701                       PEND
 DROP   FNWA-(4+36),R8
 DROP   *,R7
1SYSV     (SYSV4072) (12:56) (15MAR04) System Routines for Variables                                                        Page   61
0Current Usings:  (CP,R11) (CV,R12)
0Loc    Object Code    Addr1 Addr2  Stmt Lv Lineno    Source Statement           (Hibal 5, Asmedit 3.3)  HLASM R4.0  2004/03/15 12.56
+___    ______ ____    _____ _____  ____ __ ______    ______ _________
0                                  15727              ¿þþþþþþþþþþþþþþþþþþþþþþþþþþþþþþþþþþþþþþþþþþþþþþþþþþþþþþþþþþþþþþþþþþþþþÜ
                                   15728              Ÿ                                                                     Ÿ
                                   15729              Ÿ                                                                     Ÿ
                                   15730              Ÿ  ERRMSG                                                             Ÿ
                                   15731              Ÿ                                                                     Ÿ
                                   15732              Ÿ  SEE COMMENTS AT START OF THIS MODULE                               Ÿ
                                   15733              Ÿ                                                                     Ÿ
                                                      ¾þþþþþþþþþþþþþþþþþþþþþþþþþþþþþþþþþþþþþþþþþþþþþþþþþþþþþþþþþþþþþþþþþþþþþ»
0001A42 50E0 D000/9008_      00000 15734              FNERRMSG PROC  FNWA
 USING  *,R7
 USING  FNWA-(4+36),R8
                                   15784
                                   15785                       COMMENT                   IF ERROR, RETURN ERROR MSG
 001A5C 9120 B479/47E0_00479       15786                       IF    CPFXXERR,BEGIN
 001A64 4100 0150            00150 15801  1                      LA    R0,L'FNWORK
 001A68 4110 8028            00000 15802  1                      LA    R1,FNWORK
 001A6C 4120 78FC            02358 15803  1                      LA    R2,=CL16'SYS.ERRMSG      '
 001A70 58E0 7924/0DEE       02380 15804  1                      VCALL GETDATA
 001A76 4780 7020            01A7C 15808  1                      IF    NZ,BEGIN
 001A7A 1B00                       15819  2                        CLEAR R0
 001A7C                            15823  1                      END
 001A7C                            15827                       END
                                   15831
                                   15832                       COMMENT                   IF NO ERROR, RETURN NULL
 001A7C 7024/47F0 7028 01A7C 01A62 15833                       ELSE  BEGIN
 001A80 1B00                       15844  1                      CLEAR R0
 001A82 1B11                       15848  1                      CLEAR R1
 001A84                            15852                       END
                                   15856
 001A84 D74F 6000 6000_00000 00000 15857                       VRETURN STRING,(R1),(R0)
 USING  VNENTRY,R6
 DROP   VNENTRY,R6
 001AA0 18D8/9808 D004_            15941                       PEND
 DROP   FNWA-(4+36),R8
 DROP   *,R7
1SYSV     (SYSV4072) (12:56) (15MAR04) System Routines for Variables                                                        Page   62
0Current Usings:  (CP,R11) (CV,R12)
0Loc    Object Code    Addr1 Addr2  Stmt Lv Lineno    Source Statement           (Hibal 5, Asmedit 3.3)  HLASM R4.0  2004/03/15 12.56
+___    ______ ____    _____ _____  ____ __ ______    ______ _________
0                                  15967              ¿þþþþþþþþþþþþþþþþþþþþþþþþþþþþþþþþþþþþþþþþþþþþþþþþþþþþþþþþþþþþþþþþþþþþþÜ
                                   15968              Ÿ                                                                     Ÿ
                                   15969              Ÿ                                                                     Ÿ
                                   15970              Ÿ  ESCAPE                                                             Ÿ
                                   15971              Ÿ                                                                     Ÿ
                                   15972              Ÿ  SEE COMMENTS AT START OF THIS MODULE                               Ÿ
                                   15973              Ÿ                                                                     Ÿ
                                                      ¾þþþþþþþþþþþþþþþþþþþþþþþþþþþþþþþþþþþþþþþþþþþþþþþþþþþþþþþþþþþþþþþþþþþþþ»
0001AAE 50E0 D000/9008_      00000 15974              FNESCAPE PROC  ,
 USING  *,R7
 001AC8 D74F 6000 6000_00000 00000 16013                       VRETURN STRING,CPESCAPE
 USING  VNENTRY,R6
 DROP   VNENTRY,R6
 001AEC 58E0 78BC/0DEE       02384 16101                       VTRIM
 001AF2 18D8/9808 D004_            16106                       PEND
 DROP   *,R7
1SYSV     (SYSV4072) (12:56) (15MAR04) System Routines for Variables                                                        Page   63
0Current Usings:  (CP,R11) (CV,R12)
0Loc    Object Code    Addr1 Addr2  Stmt Lv Lineno    Source Statement           (Hibal 5, Asmedit 3.3)  HLASM R4.0  2004/03/15 12.56
+___    ______ ____    _____ _____  ____ __ ______    ______ _________
0                                  16127              ¿þþþþþþþþþþþþþþþþþþþþþþþþþþþþþþþþþþþþþþþþþþþþþþþþþþþþþþþþþþþþþþþþþþþþþÜ
                                   16128              Ÿ                                                                     Ÿ
                                   16129              Ÿ  EVAL_LNO -- EVAL Command parameter information.                    Ÿ
                                   16130              Ÿ                                                                     Ÿ
                                                      ¾þþþþþþþþþþþþþþþþþþþþþþþþþþþþþþþþþþþþþþþþþþþþþþþþþþþþþþþþþþþþþþþþþþþþþ»
0001B00 50E0 D000/9008_      00000 16131              FNEVALL  PROC  FNWA
 USING  *,R7
 USING  FNWA-(4+36),R8
 001B1A D74F 6000 6000_00000 00000 16181                       VRETURN LINENO,L:CPEVLNO
 USING  VNENTRY,R6
 DROP   VNENTRY,R6
 001B36 18D8/9808 D004_            16228                       PEND
 DROP   FNWA-(4+36),R8
 DROP   *,R7
1SYSV     (SYSV4072) (12:56) (15MAR04) System Routines for Variables                                                        Page   64
0Current Usings:  (CP,R11) (CV,R12)
0Loc    Object Code    Addr1 Addr2  Stmt Lv Lineno    Source Statement           (Hibal 5, Asmedit 3.3)  HLASM R4.0  2004/03/15 12.56
+___    ______ ____    _____ _____  ____ __ ______    ______ _________
0                                  16254              ¿þþþþþþþþþþþþþþþþþþþþþþþþþþþþþþþþþþþþþþþþþþþþþþþþþþþþþþþþþþþþþþþþþþþþþÜ
                                   16255              Ÿ                                                                     Ÿ
                                   16256              Ÿ  EVAL_TEXT -- EVAL Command parameter information.                   Ÿ
                                   16257              Ÿ                                                                     Ÿ
                                                      ¾þþþþþþþþþþþþþþþþþþþþþþþþþþþþþþþþþþþþþþþþþþþþþþþþþþþþþþþþþþþþþþþþþþþþþ»
0001B44 50E0 D000/9008_      00000 16258              FNEVALT  PROC  FNWA
 USING  *,R7
 USING  FNWA-(4+36),R8
 001B5E D74F 6000 6000_00000 00000 16308                       VRETURN STRING,L:CPEVLOC,L:CPEVLEN
 USING  VNENTRY,R6
 DROP   VNENTRY,R6
 001B82 18D8/9808 D004_            16394                       PEND
 DROP   FNWA-(4+36),R8
 DROP   *,R7
1SYSV     (SYSV4072) (12:56) (15MAR04) System Routines for Variables                                                        Page   65
0Current Usings:  (CP,R11) (CV,R12)
0Loc    Object Code    Addr1 Addr2  Stmt Lv Lineno    Source Statement           (Hibal 5, Asmedit 3.3)  HLASM R4.0  2004/03/15 12.56
+___    ______ ____    _____ _____  ____ __ ______    ______ _________
0                                  16420              ¿þþþþþþþþþþþþþþþþþþþþþþþþþþþþþþþþþþþþþþþþþþþþþþþþþþþþþþþþþþþþþþþþþþþþþÜ
                                   16421              Ÿ                                                                     Ÿ
                                   16422              Ÿ                                                                     Ÿ
                                   16423              Ÿ  FALSE                                                              Ÿ
                                   16424              Ÿ                                                                     Ÿ
                                   16425              Ÿ  SEE COMMENTS AT START OF THIS MODULE                               Ÿ
                                   16426              Ÿ                                                                     Ÿ
                                                      ¾þþþþþþþþþþþþþþþþþþþþþþþþþþþþþþþþþþþþþþþþþþþþþþþþþþþþþþþþþþþþþþþþþþþþþ»
0001B90 50E0 D000/9008_      00000 16427              FNFALSE  PROC  ,
 USING  *,R7
 001BAA D74F 6000 6000_00000 00000 16466                       VRETURN BOOLEAN,FALSE
 USING  VNENTRY,R6
 DROP   VNENTRY,R6
 001BBC 18D8/9808 D004_            16505                       PEND
 DROP   *,R7
1SYSV     (SYSV4072) (12:56) (15MAR04) System Routines for Variables                                                        Page   66
0Current Usings:  (CP,R11) (CV,R12)
0Loc    Object Code    Addr1 Addr2  Stmt Lv Lineno    Source Statement           (Hibal 5, Asmedit 3.3)  HLASM R4.0  2004/03/15 12.56
+___    ______ ____    _____ _____  ____ __ ______    ______ _________
0                                  16526              ¿þþþþþþþþþþþþþþþþþþþþþþþþþþþþþþþþþþþþþþþþþþþþþþþþþþþþþþþþþþþþþþþþþþþþþÜ
                                   16527              Ÿ                                                                     Ÿ
                                   16528              Ÿ                                                                     Ÿ
                                   16529              Ÿ  FBLOCK                                                             Ÿ
                                   16530              Ÿ                                                                     Ÿ
                                   16531              Ÿ  SEE COMMENTS AT START OF THIS MODULE                               Ÿ
                                   16532              Ÿ                                                                     Ÿ
                                                      ¾þþþþþþþþþþþþþþþþþþþþþþþþþþþþþþþþþþþþþþþþþþþþþþþþþþþþþþþþþþþþþþþþþþþþþ»
0001BCA 50E0 D000/9008_      00000 16533              FNFBLOCK PROC
 USING  *,R7
 001BE4 5810 B74C            0074C 16572                       L     R1,CPFBKLNO
 001BE8 D603 B748 B748_00748 00748 16573                       IF    (CPBLKACT,Z),'L R1,=F"-1000"'
 001BF6 D74F 6000 6000_00000 00000 16595                       VRETURN LINENO,(R1)
 USING  VNENTRY,R6
 DROP   VNENTRY,R6
 001C0E 18D8/9808 D004_            16641                       PEND
 DROP   *,R7
1SYSV     (SYSV4072) (12:56) (15MAR04) System Routines for Variables                                                        Page   67
0Current Usings:  (CP,R11) (CV,R12)
0Loc    Object Code    Addr1 Addr2  Stmt Lv Lineno    Source Statement           (Hibal 5, Asmedit 3.3)  HLASM R4.0  2004/03/15 12.56
+___    ______ ____    _____ _____  ____ __ ______    ______ _________
0                                  16662              ¿þþþþþþþþþþþþþþþþþþþþþþþþþþþþþþþþþþþþþþþþþþþþþþþþþþþþþþþþþþþþþþþþþþþþþÜ
                                   16663              Ÿ                                                                     Ÿ
                                   16664              Ÿ                                                                     Ÿ
                                   16665              Ÿ  FDEFAULT - Not relevant,,, we set to WFDEF value for now.          Ÿ
                                   16666              Ÿ                                                                     Ÿ
                                   16667              Ÿ  SEE COMMENTS AT START OF THIS MODULE                               Ÿ
                                   16668              Ÿ                                                                     Ÿ
                                                      ¾þþþþþþþþþþþþþþþþþþþþþþþþþþþþþþþþþþþþþþþþþþþþþþþþþþþþþþþþþþþþþþþþþþþþþ»
0001C1C 50E0 D000/9008_      00000 16669              FNFDEF   PROC  ,
 USING  *,R7
                                   16708
                                   16709                       COMMENT                   OUTPUT TYPE INFO
 001C36 4110 7786/4100_      023BC 16710                       SETMSG 'OLDIBM'
 001C3E 9120 C4C8/47E0_004C8       16714                       IF    CVFWINGS,' SETMSG "WINGS" '
 001C4E 9110 C4C8/47E0_004C8       16738                       IF    CVFOLDIBM,' SETMSG "OLDIBM" '
                                   16762
 001C5E D74F 6000 6000_00000 00000 16763                       VRETURN STRING,(R1),(R0)
 USING  VNENTRY,R6
 DROP   VNENTRY,R6
 001C7A 18D8/9808 D004_            16847                       PEND  ,
 DROP   *,R7
1SYSV     (SYSV4072) (12:56) (15MAR04) System Routines for Variables                                                        Page   68
0Current Usings:  (CP,R11) (CV,R12)
0Loc    Object Code    Addr1 Addr2  Stmt Lv Lineno    Source Statement           (Hibal 5, Asmedit 3.3)  HLASM R4.0  2004/03/15 12.56
+___    ______ ____    _____ _____  ____ __ ______    ______ _________
0                                  16868              ¿þþþþþþþþþþþþþþþþþþþþþþþþþþþþþþþþþþþþþþþþþþþþþþþþþþþþþþþþþþþþþþþþþþþþþÜ
                                   16869              Ÿ                                                                     Ÿ
                                   16870              Ÿ  FE_IPADDR -- Returns the network address of the terminal           Ÿ
                                   16871              Ÿ    session.                                                         Ÿ
                                   16872              Ÿ                                                                     Ÿ
                                   16873              Ÿ  See comments at the start of this module.                          Ÿ
                                   16874              Ÿ                                                                     Ÿ
                                                      ¾þþþþþþþþþþþþþþþþþþþþþþþþþþþþþþþþþþþþþþþþþþþþþþþþþþþþþþþþþþþþþþþþþþþþþ»
0000000                00000 0007C 16875              IPWA     RECORD BEGIN
 000000                            16883  1           IPBUF      DS     CL64
                                   16884  1           IPSEG      SEGCB
 000040 00                         16885  1 01-SEGCB +$$$SEGCB300   DS 0F
 IPSEGCOD.IPSEGSEG 01 EQ
 IPSEGCOD.IPSEGWR  02 EQ
 IPSEGCOD.IPSEGCLR 03 EQ
 IPSEGCOD.IPSEGSPP 04 EQ
 IPSEGCOD.IPSEGOVF 05 EQ
 IPSEGCOD.IPSEGCR  06 EQ
 IPSEGCOD.IPSEGMAR 07 EQ
 000041 00                         16960  1 01-SEGCB +           DC    X'00'               Reserved
 000042 0000                              1          +
 000044 00000000                   16961  1 01-SEGCB +IPSEGMAXF   DC   A(0)                Maximum buffer length
 000048 00000000                   16962  1 01-SEGCB +IPSEGMRKF   DC   A(0)                Length at last mark
 00004C 00000000                   16963  1 01-SEGCB +IPSEGLENF   DC   A(0)                Current length
 000050 00000000                   16964  1 01-SEGCB +IPSEGINDF   DC   A(0)                Overflow/indent count
 000054 00000000                   16965  1 01-SEGCB +IPSEGERR   DC    A(0)                Address of error recovery routine
 000058 0000000000000000           16966  1 01-SEGCB +           DC    2F'0'               Reserved
 000060 00000000                   16967  1 01-SEGCB +IPSEGLOC   DC    A(0)                Location of buffer
 000064 00000000                   16968  1 01-SEGCB +IPSEGRTN   DC    A(0)                Processing routine
 000068 0000000000000000           16969  1 01-SEGCB +           DC    4F'0'               Reserved
 000078 00000000                   16970  1 01-SEGCB +IPSEGUSR   DC    A(0)                USER field
                                   16971  1 01-SEGCB +IPSEG      EQU   $$$SEGCB300,*-$$$SEGCB300,C'X'
 00007C                0007C 0007C 16972                       END
                                   16981
 001C88 50E0 D000/9008_      00000 16982              FNIPADR  PROC IPWA
 USING  *,R7
 USING  IPWA-(4+36),R8
 001CA2 4110 8028/4100_      00000 17032                       SEGINIT IPBUF,L'IPBUF,IPSEG
 001CB4 9507 B38C/4770_0038C       17061                       IF   CPSTELF,BEGIN
 001CBC 1F11/4310 B428_            17076  1                      SEGDC LC:CPSIPADR           Format IP address "x.x.x.x"...
 001CCE 4110 772D/4100_      023CF 17102  1                      SEG   '.'
 001CE0 1F11/4310 B429_            17119  1                      SEGDC LC:CPSIPADR+1
 001CF2 4110 772D/4100_      023CF 17145  1                      SEG   '.'
 001D04 1F11/4310 B42A_            17162  1                      SEGDC LC:CPSIPADR+2
 001D16 4110 772D/4100_      023CF 17188  1                      SEG   '.'
 001D28 1F11/4310 B42B_            17205  1                      SEGDC LC:CPSIPADR+3
 001D3A 5810 8088/5800_      00060 17231  1                      SETMSG L:IPSEGLOC,L:IPSEGLENF
 001D42 D74F 6000 6000_00000 00000 17243  1                      VRETURN STRING,(R1),(R0)
 USING  VNENTRY,R6
 DROP   VNENTRY,R6
 001D5E                            17327                       END
 001D5E 70C0/47F0 70E0 01D5E 01CBA 17331                       ELSE BEGIN
 001D62 1B00                       17342  1                      CLEAR R0
1SYSV     (SYSV4072) (12:56) (15MAR04) System Routines for Variables                                                        Page   69
0Current Usings:  (*,R7) (IPWA-(4+36),R8) (CP,R11) (CV,R12)
0Loc    Object Code    Addr1 Addr2  Stmt Lv Lineno    Source Statement           (Hibal 5, Asmedit 3.3)  HLASM R4.0  2004/03/15 12.56
+___    ______ ____    _____ _____  ____ __ ______    ______ _________
0001D64 1B11                       17346  1                      CLEAR R1
 001D66 D74F 6000 6000_00000 00000 17350  1                      VRETURN STRING,(R1),(R0)
 USING  VNENTRY,R6
 DROP   VNENTRY,R6
 001D82                            17434                       END
 001D82 18D8/9808 D004_            17438                       PEND
 DROP   IPWA-(4+36),R8
 DROP   *,R7
                                   17463              ¿þþþþþþþþþþþþþþþþþþþþþþþþþþþþþþþþþþþþþþþþþþþþþþþþþþþþþþþþþþþþþþþþþþþþþÜ
                                   17464              Ÿ                                                                     Ÿ
                                   17465              Ÿ  FE_ISLOCAL -- Returns TRUE if this is a "local connection".        Ÿ
                                   17466              Ÿ    The following is highly Stanford dependent.  We added it so      Ÿ
                                   17467              Ÿ    that applications can tell the difference between local          Ÿ
                                   17468              Ÿ    Stanford sessions (those on net 36) and remote network           Ÿ
                                   17469              Ÿ    sessions.  It's probably a lost cause in the long run.           Ÿ
                                   17470              Ÿ                                                                     Ÿ
                                   17471              Ÿ  See comments at the start of this module.                          Ÿ
                                   17472              Ÿ                                                                     Ÿ
                                                      ¾þþþþþþþþþþþþþþþþþþþþþþþþþþþþþþþþþþþþþþþþþþþþþþþþþþþþþþþþþþþþþþþþþþþþþ»
0001D90 50E0 D000/9008_      00000 17473              FNISLOC  PROC
 USING  *,R7
 001DAA D74F 6000 6000_00000 00000 17512                       VRETURN BOOLEAN,TRUE      Always return TRUE for now
 USING  VNENTRY,R6
 DROP   VNENTRY,R6
 001DBC 18D8/9808 D004_            17551                       PEND
 DROP   *,R7
                                   17571              ¿þþþþþþþþþþþþþþþþþþþþþþþþþþþþþþþþþþþþþþþþþþþþþþþþþþþþþþþþþþþþþþþþþþþþþÜ
                                   17572              Ÿ                                                                     Ÿ
                                   17573              Ÿ  FE_ISNET -- Returns TRUE if this is a "network" connection.        Ÿ
                                   17574              Ÿ                                                                     Ÿ
                                   17575              Ÿ  See comments at the start of this module.                          Ÿ
                                   17576              Ÿ                                                                     Ÿ
                                                      ¾þþþþþþþþþþþþþþþþþþþþþþþþþþþþþþþþþþþþþþþþþþþþþþþþþþþþþþþþþþþþþþþþþþþþþ»
0001DCA 50E0 D000/9008_      00000 17577              FNISNET  PROC
 USING  *,R7
 001DE4 9507 B38C/4770_0038C       17616                       IF    CPSTELF,'VRETURN BOOLEAN,TRUE'  True if ELF
 USING  VNENTRY,R6
 DROP   VNENTRY,R6
 001DFE 701E/47F0 7030_01DFE 01DEA 17675                       ELSE  'VRETURN BOOLEAN,FALSE'  Otherwise, FALSE
 USING  VNENTRY,R6
 DROP   VNENTRY,R6
 001E14 18D8/9808 D004_            17730                       PEND
 DROP   *,R7
1SYSV     (SYSV4072) (12:56) (15MAR04) System Routines for Variables                                                        Page   70
0Current Usings:  (CP,R11) (CV,R12)
0Loc    Object Code    Addr1 Addr2  Stmt Lv Lineno    Source Statement           (Hibal 5, Asmedit 3.3)  HLASM R4.0  2004/03/15 12.56
+___    ______ ____    _____ _____  ____ __ ______    ______ _________
0                                  17751              ¿þþþþþþþþþþþþþþþþþþþþþþþþþþþþþþþþþþþþþþþþþþþþþþþþþþþþþþþþþþþþþþþþþþþþþÜ
                                   17752              Ÿ                                                                     Ÿ
                                   17753              Ÿ  FE_NETADDR -- Returns the network address of the terminal          Ÿ
                                   17754              Ÿ    session.                                                         Ÿ
                                   17755              Ÿ                                                                     Ÿ
                                   17756              Ÿ  See comments at the start of this module.                          Ÿ
                                   17757              Ÿ                                                                     Ÿ
                                                      ¾þþþþþþþþþþþþþþþþþþþþþþþþþþþþþþþþþþþþþþþþþþþþþþþþþþþþþþþþþþþþþþþþþþþþþ»
0001E22 50E0 D000/9008_      00000 17758              FNNETADR PROC
 USING  *,R7
 001E3C D74F 6000 6000_00000 00000 17797                       VRETURN STRING,CPSPLOC
 USING  VNENTRY,R6
 DROP   VNENTRY,R6
 001E60 58E0 7548/0DEE       02384 17885                       VTRIM
 001E66 18D8/9808 D004_            17890                       PEND
 DROP   *,R7
                                   17910              ¿þþþþþþþþþþþþþþþþþþþþþþþþþþþþþþþþþþþþþþþþþþþþþþþþþþþþþþþþþþþþþþþþþþþþþÜ
                                   17911              Ÿ                                                                     Ÿ
                                   17912              Ÿ  FE_NETNAME -- Returns the name of the workstation connecting       Ÿ
                                   17913              Ÿ    to us.                                                           Ÿ
                                   17914              Ÿ                                                                     Ÿ
                                   17915              Ÿ  See comments at the start of this module.                          Ÿ
                                   17916              Ÿ                                                                     Ÿ
                                                      ¾þþþþþþþþþþþþþþþþþþþþþþþþþþþþþþþþþþþþþþþþþþþþþþþþþþþþþþþþþþþþþþþþþþþþþ»
0001E74 50E0 D000/9008_      00000 17917              FNNETNAM PROC
 USING  *,R7
 001E8E 1B00                       17956                       CLEAR R0                  Assume not-available
 001E90 9507 B38C/4770_0038C       17960                       IF    CPSTELF,BEGIN       ELF connection...
 001E98 4110 B370/4100_      00370 17975  1                      SETMSG CPSPLOC             Name is in port information
 001EA0                            17989                       END
                                   17993
 001EA0 D74F 6000 6000_00000 00000 17994                       VRETURN STRING,(R1),(R0)
 USING  VNENTRY,R6
 DROP   VNENTRY,R6
 001EBC 58E0 74F6/0DEE       02384 18078                       VTRIM
 001EC2 18D8/9808 D004_            18083                       PEND
 DROP   *,R7
1SYSV     (SYSV4072) (12:56) (15MAR04) System Routines for Variables                                                        Page   71
0Current Usings:  (CP,R11) (CV,R12)
0Loc    Object Code    Addr1 Addr2  Stmt Lv Lineno    Source Statement           (Hibal 5, Asmedit 3.3)  HLASM R4.0  2004/03/15 12.56
+___    ______ ____    _____ _____  ____ __ ______    ______ _________
0                                  18104              ¿þþþþþþþþþþþþþþþþþþþþþþþþþþþþþþþþþþþþþþþþþþþþþþþþþþþþþþþþþþþþþþþþþþþþþÜ
                                   18105              Ÿ                                                                     Ÿ
                                   18106              Ÿ  FE_HOSTNAME -- Returns the fully-qulaified name of the             Ÿ
                                   18107              Ÿ  workstation connecting to us.                                      Ÿ
                                   18108              Ÿ                                                                     Ÿ
                                   18109              Ÿ  See comments at the start of this module.                          Ÿ
                                   18110              Ÿ                                                                     Ÿ
                                                      ¾þþþþþþþþþþþþþþþþþþþþþþþþþþþþþþþþþþþþþþþþþþþþþþþþþþþþþþþþþþþþþþþþþþþþþ»
0001ED0 50E0 D000/9008_      00000 18111              FNFEHOST PROC
 USING  *,R7
 001EEA 1B00                       18150                       CLEAR R0                  Assume not-available
 001EEC 9507 B38C/4770_0038C       18154                       IF    CPSTELF,BEGIN       ELF connection...
 001EF4 4110 B370/4100_      00370 18169  1                      SETMSG CPSPLOC             Name is in port information
 001EFC                            18183                       END
                                   18187
 001EFC D74F 6000 6000_00000 00000 18188                       VRETURN STRING,(R1),(R0)
 USING  VNENTRY,R6
 DROP   VNENTRY,R6
 001F18 58E0 749A/0DEE       02384 18272                       VTRIM
 001F1E 18D8/9808 D004_            18277                       PEND
 DROP   *,R7
1SYSV     (SYSV4072) (12:56) (15MAR04) System Routines for Variables                                                        Page   72
0Current Usings:  (CP,R11) (CV,R12)
0Loc    Object Code    Addr1 Addr2  Stmt Lv Lineno    Source Statement           (Hibal 5, Asmedit 3.3)  HLASM R4.0  2004/03/15 12.56
+___    ______ ____    _____ _____  ____ __ ______    ______ _________
0                                  18298              ¿þþþþþþþþþþþþþþþþþþþþþþþþþþþþþþþþþþþþþþþþþþþþþþþþþþþþþþþþþþþþþþþþþþþþþÜ
                                   18299              Ÿ                                                                     Ÿ
                                   18300              Ÿ  FENAME -- Front end name.                                          Ÿ
                                   18301              Ÿ                                                                     Ÿ
                                   18302              Ÿ  See comments at the start of this module.                          Ÿ
                                   18303              Ÿ                                                                     Ÿ
                                                      ¾þþþþþþþþþþþþþþþþþþþþþþþþþþþþþþþþþþþþþþþþþþþþþþþþþþþþþþþþþþþþþþþþþþþþþ»
0001F2C 50E0 D000/9008_      00000 18304              FNFENAME PROC
 USING  *,R7
 001F46 D74F 6000 6000_00000 00000 18343                       VRETURN STRING,CPSFE      Front-end name
 USING  VNENTRY,R6
 DROP   VNENTRY,R6
 001F6A 58E0 743E/0DEE       02384 18431                       VTRIM
 001F70 18D8/9808 D004_            18436                       PEND
 DROP   *,R7
                                   18456              ¿þþþþþþþþþþþþþþþþþþþþþþþþþþþþþþþþþþþþþþþþþþþþþþþþþþþþþþþþþþþþþþþþþþþþþÜ
                                   18457              Ÿ                                                                     Ÿ
                                   18458              Ÿ  FEPORT -- Front end port name.                                     Ÿ
                                   18459              Ÿ                                                                     Ÿ
                                   18460              Ÿ  See comments at the start of this module.                          Ÿ
                                   18461              Ÿ                                                                     Ÿ
                                                      ¾þþþþþþþþþþþþþþþþþþþþþþþþþþþþþþþþþþþþþþþþþþþþþþþþþþþþþþþþþþþþþþþþþþþþþ»
0001F7E 50E0 D000/9008_      00000 18462              FNFEPORT PROC
 USING  *,R7
 001F98 D74F 6000 6000_00000 00000 18501                       VRETURN STRING,CPSPORT    Front-end port name
 USING  VNENTRY,R6
 DROP   VNENTRY,R6
 001FBC 58E0 73EC/0DEE       02384 18589                       VTRIM
 001FC2 18D8/9808 D004_            18594                       PEND
 DROP   *,R7
1SYSV     (SYSV4072) (12:56) (15MAR04) System Routines for Variables                                                        Page   73
0Current Usings:  (CP,R11) (CV,R12)
0Loc    Object Code    Addr1 Addr2  Stmt Lv Lineno    Source Statement           (Hibal 5, Asmedit 3.3)  HLASM R4.0  2004/03/15 12.56
+___    ______ ____    _____ _____  ____ __ ______    ______ _________
0                                  18615              ¿þþþþþþþþþþþþþþþþþþþþþþþþþþþþþþþþþþþþþþþþþþþþþþþþþþþþþþþþþþþþþþþþþþþþþÜ
                                   18616              Ÿ                                                                     Ÿ
                                   18617              Ÿ                                                                     Ÿ
                                   18618              Ÿ  FETYPE - FRONT END TYPE                                            Ÿ
                                   18619              Ÿ                                                                     Ÿ
                                   18620              Ÿ  SEE COMMENTS AT START OF THIS MODULE                               Ÿ
                                   18621              Ÿ                                                                     Ÿ
                                                      ¾þþþþþþþþþþþþþþþþþþþþþþþþþþþþþþþþþþþþþþþþþþþþþþþþþþþþþþþþþþþþþþþþþþþþþ»
0001FD0 50E0 D000/9008_      00000 18622              FNFETYPE PROC  ,
 USING  *,R7
 001FEA 4110 73E6/4100_      023D0 18661                       SETMSG '???'
 001FF2 9501 B38C/4770_0038C       18665                       IF    CPSTCONS,'SETMSG "CONSOLE"'
 002002 9502 B38C/4770_0038C       18689                       IF    CPSTASYN,'SETMSG "ASYNC"'
 002012 9503 B38C/4770_0038C       18713                       IF    CPSTPDP,'SETMSG "PDP"'
 002022 9504 B38C/4770_0038C       18737                       IF    CPSTVTAM,'SETMSG "VTAM"'
 002032 9505 B38C/4770_0038C       18761                       IF    CPSTVIRT,'SETMSG "VIRTUAL"'
 002042 9506 B38C/4770_0038C       18785                       IF    CPSTNSC,'SETMSG "NSC"'
 002052 9507 B38C/4770_0038C       18809                       IF    CPSTELF,BEGIN
 00205A 4110 7402/4100_      023EC 18824  1                      SETMSG 'ELF'
 002062 9108 B384/47E0_00384       18828  1                      IF    CPSFDUMB,'SETMSG "TELNET"'
 002072                            18852                       END
 002072 9508 B38C/4770_0038C       18856                       IF    CPSTALF,'SETMSG "ALF"'
 002082 D74F 6000 6000_00000 00000 18880                       VRETURN STRING,(R1),(R0)
 USING  VNENTRY,R6
 DROP   VNENTRY,R6
 00209E 18D8/9808 D004_            18964                       PEND
 DROP   *,R7
1SYSV     (SYSV4072) (12:56) (15MAR04) System Routines for Variables                                                        Page   74
0Current Usings:  (CP,R11) (CV,R12)
0Loc    Object Code    Addr1 Addr2  Stmt Lv Lineno    Source Statement           (Hibal 5, Asmedit 3.3)  HLASM R4.0  2004/03/15 12.56
+___    ______ ____    _____ _____  ____ __ ______    ______ _________
0                                  18985              ¿þþþþþþþþþþþþþþþþþþþþþþþþþþþþþþþþþþþþþþþþþþþþþþþþþþþþþþþþþþþþþþþþþþþþþÜ
                                   18986              Ÿ                                                                     Ÿ
                                   18987              Ÿ                                                                     Ÿ
                                   18988              Ÿ  FIRST                                                              Ÿ
                                   18989              Ÿ                                                                     Ÿ
                                   18990              Ÿ  SEE COMMENTS AT START OF THIS MODULE                               Ÿ
                                   18991              Ÿ                                                                     Ÿ
                                                      ¾þþþþþþþþþþþþþþþþþþþþþþþþþþþþþþþþþþþþþþþþþþþþþþþþþþþþþþþþþþþþþþþþþþþþþ»
00020AC 50E0 D000/9008_      00000 18992              FNFIRST  PROC  ,
 USING  *,R7
 0020C6 D74F 6000 6000_00000 00000 19031                       VRETURN LINENO,L:CPAFLNO  FIRST line-number
 USING  VNENTRY,R6
 DROP   VNENTRY,R6
 0020E2 18D8/9808 D004_            19078                       PEND
 DROP   *,R7
1SYSV     (SYSV4072) (12:56) (15MAR04) System Routines for Variables                                                        Page   75
0Current Usings:  (CP,R11) (CV,R12)
0Loc    Object Code    Addr1 Addr2  Stmt Lv Lineno    Source Statement           (Hibal 5, Asmedit 3.3)  HLASM R4.0  2004/03/15 12.56
+___    ______ ____    _____ _____  ____ __ ______    ______ _________
0                                  19099              ¿þþþþþþþþþþþþþþþþþþþþþþþþþþþþþþþþþþþþþþþþþþþþþþþþþþþþþþþþþþþþþþþþþþþþþÜ
                                   19100              Ÿ                                                                     Ÿ
                                   19101              Ÿ                                                                     Ÿ
                                   19102              Ÿ  FPATH - WINGS PATH NAME.   (FROM 'SET FPATH')                      Ÿ
                                   19103              Ÿ                                                                     Ÿ
                                   19104              Ÿ  SEE COMMENTS AT START OF THIS MODULE                               Ÿ
                                   19105              Ÿ                                                                     Ÿ
                                                      ¾þþþþþþþþþþþþþþþþþþþþþþþþþþþþþþþþþþþþþþþþþþþþþþþþþþþþþþþþþþþþþþþþþþþþþ»
00020F0 50E0 D000/9008_      00000 19106              FNFPATH  PROC  ,
 USING  *,R7
 00210A D507 7232 B208_0233C 00208 19145                       IF    (CPWPATH,NE,0),BEGIN
 002114 D74F 6000 6000_00000 00000 19163  1                      VRETURN STRING,CPWPATH
 USING  VNENTRY,R6
 DROP   VNENTRY,R6
 002138                            19251                       END
 002138 7032/47F0 7060_02138 02112 19255                       ELSEIF  (CVWPATH,NE,0),BEGIN
 002146 D74F 6000 6000_00000 00000 19282  1                      VRETURN STRING,CVWPATH
 USING  VNENTRY,R6
 DROP   VNENTRY,R6
 00216A                            19370                       END
 00216A 7064/47F0 7088 0216A 02144 19374                       ELSE  BEGIN
 00216E D74F 6000 6000_00000 00000 19385  1                      VRETURN STRING,'WINGSV00'
 USING  VNENTRY,R6
 DROP   VNENTRY,R6
 002192                            19463                       END
 002192 18D8/9808 D004_            19467                       PEND
 DROP   *,R7
1SYSV     (SYSV4072) (12:56) (15MAR04) System Routines for Variables                                                        Page   76
0Current Usings:  (CP,R11) (CV,R12)
0Loc    Object Code    Addr1 Addr2  Stmt Lv Lineno    Source Statement           (Hibal 5, Asmedit 3.3)  HLASM R4.0  2004/03/15 12.56
+___    ______ ____    _____ _____  ____ __ ______    ______ _________
0                                  19488              ¿þþþþþþþþþþþþþþþþþþþþþþþþþþþþþþþþþþþþþþþþþþþþþþþþþþþþþþþþþþþþþþþþþþþþþÜ
                                   19489              Ÿ                                                                     Ÿ
                                   19490              Ÿ  GROUP                                                              Ÿ
                                   19491              Ÿ                                                                     Ÿ
                                   19492              Ÿ  SEE COMMENTS AT START OF THIS MODULE                               Ÿ
                                   19493              Ÿ                                                                     Ÿ
                                                      ¾þþþþþþþþþþþþþþþþþþþþþþþþþþþþþþþþþþþþþþþþþþþþþþþþþþþþþþþþþþþþþþþþþþþþþ»
00021A0 50E0 D000/9008_      00000 19494              FNGROUP  PROC  ,
 USING  *,R7
 0021BA D74F 6000 6000_00000 00000 19533                       VRETURN STRING,CPGRPSV
 USING  VNENTRY,R6
 DROP   VNENTRY,R6
 0021DE 18D8/9808 D004_            19621                       PEND
 DROP   *,R7
1SYSV     (SYSV4072) (12:56) (15MAR04) System Routines for Variables                                                        Page   77
0Current Usings:  (CP,R11) (CV,R12)
0Loc    Object Code    Addr1 Addr2  Stmt Lv Lineno    Source Statement           (Hibal 5, Asmedit 3.3)  HLASM R4.0  2004/03/15 12.56
+___    ______ ____    _____ _____  ____ __ ______    ______ _________
0                                  19642              ¿þþþþþþþþþþþþþþþþþþþþþþþþþþþþþþþþþþþþþþþþþþþþþþþþþþþþþþþþþþþþþþþþþþþþþÜ
                                   19643              Ÿ                                                                     Ÿ
                                   19644              Ÿ  HEIGHT - "Page-page" height                                        Ÿ
                                   19645              Ÿ                                                                     Ÿ
                                   19646              Ÿ  SEE COMMENTS AT START OF THIS MODULE                               Ÿ
                                   19647              Ÿ                                                                     Ÿ
                                                      ¾þþþþþþþþþþþþþþþþþþþþþþþþþþþþþþþþþþþþþþþþþþþþþþþþþþþþþþþþþþþþþþþþþþþþþ»
00021EC 50E0 D000/9008_      00000 19648              FNHEIGHT PROC  ,
 USING  *,R7
 002206 D74F 6000 6000_00000 00000 19687                       VRETURN INTEGER,LH:CPSHEIP
 USING  VNENTRY,R6
 DROP   VNENTRY,R6
 002222 18D8/9808 D004_            19733                       PEND
 DROP   *,R7
1SYSV     (SYSV4072) (12:56) (15MAR04) System Routines for Variables                                                        Page   78
0Current Usings:  (CP,R11) (CV,R12)
0Loc    Object Code    Addr1 Addr2  Stmt Lv Lineno    Source Statement           (Hibal 5, Asmedit 3.3)  HLASM R4.0  2004/03/15 12.56
+___    ______ ____    _____ _____  ____ __ ______    ______ _________
0                                  19754              ¿þþþþþþþþþþþþþþþþþþþþþþþþþþþþþþþþþþþþþþþþþþþþþþþþþþþþþþþþþþþþþþþþþþþþþÜ
                                   19755              Ÿ                                                                     Ÿ
                                   19756              Ÿ  HOST -- Network host name variable.                                Ÿ
                                   19757              Ÿ                                                                     Ÿ
                                   19758              Ÿ  See comments at the start of this module.                          Ÿ
                                   19759              Ÿ                                                                     Ÿ
                                                      ¾þþþþþþþþþþþþþþþþþþþþþþþþþþþþþþþþþþþþþþþþþþþþþþþþþþþþþþþþþþþþþþþþþþþþþ»
0002230 50E0 D000/9008_      00000 19760              FNHOST   PROC
 USING  *,R7
 00224A 4110 B1BD/4100_      001BD 19799                       SETMSG CPHOST              Current host name
 002252 D61F B1BD B1BD_001BD 001BD 19813                       IF    (CPHOST,Z),'CLEAR R0'  No current host
 00225E D74F 6000 6000_00000 00000 19838                       VRETURN STRING,(R1),(R0)
 USING  VNENTRY,R6
 DROP   VNENTRY,R6
 00227A 58E0 713A/0DEE       02384 19922                       VTRIM
 002280 18D8/9808 D004_            19927                       PEND
 DROP   *,R7
1SYSV     (SYSV4072) (12:56) (15MAR04) System Routines for Variables                                                        Page   79
0Current Usings:  (CP,R11) (CV,R12)
0Loc    Object Code    Addr1 Addr2  Stmt Lv Lineno    Source Statement           (Hibal 5, Asmedit 3.3)  HLASM R4.0  2004/03/15 12.56
+___    ______ ____    _____ _____  ____ __ ______    ______ _________
0                                  19948              ¿þþþþþþþþþþþþþþþþþþþþþþþþþþþþþþþþþþþþþþþþþþþþþþþþþþþþþþþþþþþþþþþþþþþþþÜ
                                   19949              Ÿ                                                                     Ÿ
                                   19950              Ÿ                                                                     Ÿ
                                   19951              Ÿ  INSTALLATION                                                       Ÿ
                                   19952              Ÿ                                                                     Ÿ
                                   19953              Ÿ  SEE COMMENTS AT START OF THIS MODULE                               Ÿ
                                   19954              Ÿ                                                                     Ÿ
                                                      ¾þþþþþþþþþþþþþþþþþþþþþþþþþþþþþþþþþþþþþþþþþþþþþþþþþþþþþþþþþþþþþþþþþþþþþ»
000228E 50E0 D000/9008_      00000 19955              FNINSTAL PROC  ,
 USING  *,R7
 0022A8 D74F 6000 6000_00000 00000 19994                       VRETURN STRING,CVINSTAL
 USING  VNENTRY,R6
 DROP   VNENTRY,R6
 0022CC 18D8/9808 D004_            20082                       PEND
 DROP   *,R7
1SYSV     (SYSV4072) (12:56) (15MAR04) System Routines for Variables                                                        Page   80
0Current Usings:  (CP,R11) (CV,R12)
0Loc    Object Code    Addr1 Addr2  Stmt Lv Lineno    Source Statement           (Hibal 5, Asmedit 3.3)  HLASM R4.0  2004/03/15 12.56
+___    ______ ____    _____ _____  ____ __ ______    ______ _________
0                                  20103              ¿þþþþþþþþþþþþþþþþþþþþþþþþþþþþþþþþþþþþþþþþþþþþþþþþþþþþþþþþþþþþþþþþþþþþþÜ
                                   20104              Ÿ                                                                     Ÿ
                                   20105              Ÿ  IORESULT -- String containing the return code from the last        Ÿ
                                   20106              Ÿ    terminal input/output function.                                  Ÿ
                                   20107              Ÿ                                                                     Ÿ
                                   20108              Ÿ  See comments at the start of this module.                          Ÿ
                                   20109              Ÿ                                                                     Ÿ
                                                      ¾þþþþþþþþþþþþþþþþþþþþþþþþþþþþþþþþþþþþþþþþþþþþþþþþþþþþþþþþþþþþþþþþþþþþþ»
00022DA 50E0 D000/9008_      00000 20110              FNIORES  PROC  FNWA
 USING  *,R7
 USING  FNWA-(4+36),R8
 0022F4 4110 8028/4100_      00000 20160                       SETMSG FNWORK
 0022FC 4120 707C            02370 20174                       LA    R2,=CL16'SYS.IORESULT'
 002300 58E0 708C/0DEE       02380 20175                       VCALL GETDATA             Get variable value
 002306 4780 701E/4110_      02312 20179                       IF    NZ,'SETMSG "OK"'       (Not yet defined--same as OK)
 002312 D74F 6000 6000_00000 00000 20199                       VRETURN STRING,(R1),(R0)
 USING  VNENTRY,R6
 DROP   VNENTRY,R6
 00232E 18D8/9808 D004_            20283                       PEND
 DROP   FNWA-(4+36),R8
 DROP   *,R7
                                   20308
                                   20309                       QLTORG
1SYSV     (SYSV4072) (12:56) (15MAR04) System Routines for Variables                                                        Page   81
0Current Usings:  (CP,R11) (CV,R12)
0Loc    Object Code    Addr1 Addr2  Stmt Lv Lineno    Source Statement           (Hibal 5, Asmedit 3.3)  HLASM R4.0  2004/03/15 12.56
+___    ______ ____    _____ _____  ____ __ ______    ______ _________
0                                  20351              ¿þþþþþþþþþþþþþþþþþþþþþþþþþþþþþþþþþþþþþþþþþþþþþþþþþþþþþþþþþþþþþþþþþþþþþÜ
                                   20352              Ÿ                                                                     Ÿ
                                   20353              Ÿ                                                                     Ÿ
                                   20354              Ÿ  JES                                                                Ÿ
                                   20355              Ÿ                                                                     Ÿ
                                   20356              Ÿ  SEE COMMENTS AT START OF THIS MODULE                               Ÿ
                                   20357              Ÿ                                                                     Ÿ
                                                      ¾þþþþþþþþþþþþþþþþþþþþþþþþþþþþþþþþþþþþþþþþþþþþþþþþþþþþþþþþþþþþþþþþþþþþþ»
000246A 50E0 D000/9008_      00000 20358              FNJES    PROC  ,
 USING  *,R7
 002484 D74F 6000 6000_00000 00000 20397                       VRETURN STRING,CVJES
 USING  VNENTRY,R6
 DROP   VNENTRY,R6
 0024A8 18D8/9808 D004_            20485                       PEND
 DROP   *,R7
1SYSV     (SYSV4072) (12:56) (15MAR04) System Routines for Variables                                                        Page   82
0Current Usings:  (CP,R11) (CV,R12)
0Loc    Object Code    Addr1 Addr2  Stmt Lv Lineno    Source Statement           (Hibal 5, Asmedit 3.3)  HLASM R4.0  2004/03/15 12.56
+___    ______ ____    _____ _____  ____ __ ______    ______ _________
0                                  20506              ¿þþþþþþþþþþþþþþþþþþþþþþþþþþþþþþþþþþþþþþþþþþþþþþþþþþþþþþþþþþþþþþþþþþþþþÜ
                                   20507              Ÿ                                                                     Ÿ
                                   20508              Ÿ                                                                     Ÿ
                                   20509              Ÿ  JOBNAME                                                            Ÿ
                                   20510              Ÿ                                                                     Ÿ
                                   20511              Ÿ  SEE COMMENTS AT START OF THIS MODULE                               Ÿ
                                   20512              Ÿ                                                                     Ÿ
                                                      ¾þþþþþþþþþþþþþþþþþþþþþþþþþþþþþþþþþþþþþþþþþþþþþþþþþþþþþþþþþþþþþþþþþþþþþ»
00024B6 50E0 D000/9008_      00000 20513              FNJOB    PROC  ,
 USING  *,R7
 0024D0 D74F 6000 6000_00000 00000 20552                       VRETURN STRING,CPJOBNM
 USING  VNENTRY,R6
 DROP   VNENTRY,R6
 0024F4 58E0 76D0/0DEE       02BA0 20640                       VTRIM
 0024FA 18D8/9808 D004_            20645                       PEND
 DROP   *,R7
1SYSV     (SYSV4072) (12:56) (15MAR04) System Routines for Variables                                                        Page   83
0Current Usings:  (CP,R11) (CV,R12)
0Loc    Object Code    Addr1 Addr2  Stmt Lv Lineno    Source Statement           (Hibal 5, Asmedit 3.3)  HLASM R4.0  2004/03/15 12.56
+___    ______ ____    _____ _____  ____ __ ______    ______ _________
0                                  20666              ¿þþþþþþþþþþþþþþþþþþþþþþþþþþþþþþþþþþþþþþþþþþþþþþþþþþþþþþþþþþþþþþþþþþþþþÜ
                                   20667              Ÿ                                                                     Ÿ
                                   20668              Ÿ  LAST                                                               Ÿ
                                   20669              Ÿ                                                                     Ÿ
                                   20670              Ÿ  SEE COMMENTS AT START OF THIS MODULE                               Ÿ
                                   20671              Ÿ                                                                     Ÿ
                                                      ¾þþþþþþþþþþþþþþþþþþþþþþþþþþþþþþþþþþþþþþþþþþþþþþþþþþþþþþþþþþþþþþþþþþþþþ»
0002508 50E0 D000/9008_      00000 20672              FNLAST   PROC  ,
 USING  *,R7
 002522 D74F 6000 6000_00000 00000 20711                       VRETURN LINENO,L:CPALLNO  LAST line-number
 USING  VNENTRY,R6
 DROP   VNENTRY,R6
 00253E 18D8/9808 D004_            20758                       PEND
 DROP   *,R7
1SYSV     (SYSV4072) (12:56) (15MAR04) System Routines for Variables                                                        Page   84
0Current Usings:  (CP,R11) (CV,R12)
0Loc    Object Code    Addr1 Addr2  Stmt Lv Lineno    Source Statement           (Hibal 5, Asmedit 3.3)  HLASM R4.0  2004/03/15 12.56
+___    ______ ____    _____ _____  ____ __ ______    ______ _________
0                                  20779              ¿þþþþþþþþþþþþþþþþþþþþþþþþþþþþþþþþþþþþþþþþþþþþþþþþþþþþþþþþþþþþþþþþþþþþþÜ
                                   20780              Ÿ                                                                     Ÿ
                                   20781              Ÿ  LBLOCK                                                             Ÿ
                                   20782              Ÿ                                                                     Ÿ
                                   20783              Ÿ  SEE COMMENTS AT START OF THIS MODULE                               Ÿ
                                   20784              Ÿ                                                                     Ÿ
                                                      ¾þþþþþþþþþþþþþþþþþþþþþþþþþþþþþþþþþþþþþþþþþþþþþþþþþþþþþþþþþþþþþþþþþþþþþ»
000254C 50E0 D000/9008_      00000 20785              FNLBLOCK PROC  ,
 USING  *,R7
 002566 5810 B750            00750 20824                       L     R1,CPLBKLNO
 00256A D603 B748 B748_00748 00748 20825                       IF    (CPBLKACT,Z),'L R1,=F"-1000"'
 002578 D74F 6000 6000_00000 00000 20847                       VRETURN LINENO,(R1)
 USING  VNENTRY,R6
 DROP   VNENTRY,R6
 002590 18D8/9808 D004_            20893                       PEND
 DROP   *,R7
1SYSV     (SYSV4072) (12:56) (15MAR04) System Routines for Variables                                                        Page   85
0Current Usings:  (CP,R11) (CV,R12)
0Loc    Object Code    Addr1 Addr2  Stmt Lv Lineno    Source Statement           (Hibal 5, Asmedit 3.3)  HLASM R4.0  2004/03/15 12.56
+___    ______ ____    _____ _____  ____ __ ______    ______ _________
0                                  20914              ¿þþþþþþþþþþþþþþþþþþþþþþþþþþþþþþþþþþþþþþþþþþþþþþþþþþþþþþþþþþþþþþþþþþþþþÜ
                                   20915              Ÿ                                                                     Ÿ
                                   20916              Ÿ  LENGTH                                                             Ÿ
                                   20917              Ÿ                                                                     Ÿ
                                   20918              Ÿ  SEE COMMENTS AT START OF THIS MODULE                               Ÿ
                                   20919              Ÿ                                                                     Ÿ
                                                      ¾þþþþþþþþþþþþþþþþþþþþþþþþþþþþþþþþþþþþþþþþþþþþþþþþþþþþþþþþþþþþþþþþþþþþþ»
000259E 50E0 D000/9008_      00000 20920              FNLENGTH PROC  ,
 USING  *,R7
 0025B8 D74F 6000 6000_00000 00000 20959                       VRETURN INTEGER,LH:CPLENGTH
 USING  VNENTRY,R6
 DROP   VNENTRY,R6
 0025D4 18D8/9808 D004_            21005                       PEND
 DROP   *,R7
1SYSV     (SYSV4072) (12:56) (15MAR04) System Routines for Variables                                                        Page   86
0Current Usings:  (CP,R11) (CV,R12)
0Loc    Object Code    Addr1 Addr2  Stmt Lv Lineno    Source Statement           (Hibal 5, Asmedit 3.3)  HLASM R4.0  2004/03/15 12.56
+___    ______ ____    _____ _____  ____ __ ______    ______ _________
0                                  21026              ¿þþþþþþþþþþþþþþþþþþþþþþþþþþþþþþþþþþþþþþþþþþþþþþþþþþþþþþþþþþþþþþþþþþþþþÜ
                                   21027              Ÿ                                                                     Ÿ
                                   21028              Ÿ  LIB                                                                Ÿ
                                   21029              Ÿ                                                                     Ÿ
                                   21030              Ÿ  SEE COMMENTS AT START OF THIS MODULE                               Ÿ
                                   21031              Ÿ                                                                     Ÿ
                                                      ¾þþþþþþþþþþþþþþþþþþþþþþþþþþþþþþþþþþþþþþþþþþþþþþþþþþþþþþþþþþþþþþþþþþþþþ»
00025E2 50E0 D000/9008_      00000 21032              FNLIB    PROC  ,
 USING  *,R7
 0025FC D74F 6000 6000_00000 00000 21071                       VRETURN STRING,CPLIB
 USING  VNENTRY,R6
 DROP   VNENTRY,R6
 002620 58E0 75A4/0DEE       02BA0 21159                       VTRIM
 002626 18D8/9808 D004_            21164                       PEND
 DROP   *,R7
1SYSV     (SYSV4072) (12:56) (15MAR04) System Routines for Variables                                                        Page   87
0Current Usings:  (CP,R11) (CV,R12)
0Loc    Object Code    Addr1 Addr2  Stmt Lv Lineno    Source Statement           (Hibal 5, Asmedit 3.3)  HLASM R4.0  2004/03/15 12.56
+___    ______ ____    _____ _____  ____ __ ______    ______ _________
0                                  21185              ¿þþþþþþþþþþþþþþþþþþþþþþþþþþþþþþþþþþþþþþþþþþþþþþþþþþþþþþþþþþþþþþþþþþþþþÜ
                                   21186              Ÿ                                                                     Ÿ
                                   21187              Ÿ                                                                     Ÿ
                                   21188              Ÿ  LINES - ACTIVE FILE LINE COUNT                                     Ÿ
                                   21189              Ÿ                                                                     Ÿ
                                   21190              Ÿ  SEE COMMENTS AT START OF THIS MODULE                               Ÿ
                                   21191              Ÿ                                                                     Ÿ
                                                      ¾þþþþþþþþþþþþþþþþþþþþþþþþþþþþþþþþþþþþþþþþþþþþþþþþþþþþþþþþþþþþþþþþþþþþþ»
0002634 50E0 D000/9008_      00000 21192              FNLINES  PROC  ,
 USING  *,R7
 00264E D74F 6000 6000_00000 00000 21231                       VRETURN INTEGER,L:CPALNCT  Number of lines
 USING  VNENTRY,R6
 DROP   VNENTRY,R6
 00266A 18D8/9808 D004_            21278                       PEND
 DROP   *,R7
1SYSV     (SYSV4072) (12:56) (15MAR04) System Routines for Variables                                                        Page   88
0Current Usings:  (CP,R11) (CV,R12)
0Loc    Object Code    Addr1 Addr2  Stmt Lv Lineno    Source Statement           (Hibal 5, Asmedit 3.3)  HLASM R4.0  2004/03/15 12.56
+___    ______ ____    _____ _____  ____ __ ______    ______ _________
0                                  21299              ¿þþþþþþþþþþþþþþþþþþþþþþþþþþþþþþþþþþþþþþþþþþþþþþþþþþþþþþþþþþþþþþþþþþþþþÜ
                                   21300              Ÿ                                                                     Ÿ
                                   21301              Ÿ                                                                     Ÿ
                                   21302              Ÿ  LNAME - LINE NAME                                                  Ÿ
                                   21303              Ÿ                                                                     Ÿ
                                   21304              Ÿ  SEE COMMENTS AT START OF THIS MODULE                               Ÿ
                                   21305              Ÿ                                                                     Ÿ
                                                      ¾þþþþþþþþþþþþþþþþþþþþþþþþþþþþþþþþþþþþþþþþþþþþþþþþþþþþþþþþþþþþþþþþþþþþþ»
0002678 50E0 D000/9008_      00000 21306              FNLNAME  PROC  ,
 USING  *,R7
 002692 D74F 6000 6000_00000 00000 21345                       VRETURN STRING,CPSNAME
 USING  VNENTRY,R6
 DROP   VNENTRY,R6
 0026B6 58E0 750E/0DEE       02BA0 21433                       VTRIM
 0026BC 18D8/9808 D004_            21438                       PEND
 DROP   *,R7
1SYSV     (SYSV4072) (12:56) (15MAR04) System Routines for Variables                                                        Page   89
0Current Usings:  (CP,R11) (CV,R12)
0Loc    Object Code    Addr1 Addr2  Stmt Lv Lineno    Source Statement           (Hibal 5, Asmedit 3.3)  HLASM R4.0  2004/03/15 12.56
+___    ______ ____    _____ _____  ____ __ ______    ______ _________
0                                  21459              ¿þþþþþþþþþþþþþþþþþþþþþþþþþþþþþþþþþþþþþþþþþþþþþþþþþþþþþþþþþþþþþþþþþþþþþÜ
                                   21460              Ÿ                                                                     Ÿ
                                   21461              Ÿ  LOCALHOST -- Our local host name.                                  Ÿ
                                   21462              Ÿ                                                                     Ÿ
                                   21463              Ÿ  See commments at the start of this module.                         Ÿ
                                   21464              Ÿ                                                                     Ÿ
                                                      ¾þþþþþþþþþþþþþþþþþþþþþþþþþþþþþþþþþþþþþþþþþþþþþþþþþþþþþþþþþþþþþþþþþþþþþ»
00026CA 50E0 D000/9008_      00000 21465              FNLHOST  PROC
 USING  *,R7
 0026E4 4110 7510/4100_      02BF4 21504                       SETMSG 'Unknown.Local.Host'  (Universal default)
                                   21508
 0026EC D503 74CC C00C_02BB0 0000C 21509                       IF    (CVMACHID,EQ,'RLG '),'SETMSG "RLG.ORG"'
 0026FE 701E/47F0 7030_026FE 026F4 21535                       ELSEIF (CVMACHID,EQ,'SYSC'),'SETMSG "SUH.Stanford.EDU"'
 002714 7034/47F0 7046_02714 0270A 21570                       ELSEIF (CVMACHID,EQ,'SYSD'),'SETMSG "SYSD.Stanford.EDU"'
 00272A 704A/47F0 705C_0272A 02720 21605                       ELSEIF (CVMACHID,EQ,'SYSG'),'SETMSG "SYSG.RLG.ORG"'
 002740 7060/47F0 7072_02740 02736 21640                       ELSEIF (CVMACHID,EQ,'SYSH'),'SETMSG "SYSH.Stanford.EDU"'
 002756 7076/47F0 707E_02756 0274C 21675                       ELSE  'SETMSG "Forsythe.Stanford.EDU"'
 002762 D74F 6000 6000_00000 00000 21695                       VRETURN STRING,(R1),(R0)
 USING  VNENTRY,R6
 DROP   VNENTRY,R6
 00277E 18D8/9808 D004_            21779                       PEND
 DROP   *,R7
1SYSV     (SYSV4072) (12:56) (15MAR04) System Routines for Variables                                                        Page   90
0Current Usings:  (CP,R11) (CV,R12)
0Loc    Object Code    Addr1 Addr2  Stmt Lv Lineno    Source Statement           (Hibal 5, Asmedit 3.3)  HLASM R4.0  2004/03/15 12.56
+___    ______ ____    _____ _____  ____ __ ______    ______ _________
0                                  21800              ¿þþþþþþþþþþþþþþþþþþþþþþþþþþþþþþþþþþþþþþþþþþþþþþþþþþþþþþþþþþþþþþþþþþþþþÜ
                                   21801              Ÿ                                                                     Ÿ
                                   21802              Ÿ                                                                     Ÿ
                                   21803              Ÿ  MACHINE                                                            Ÿ
                                   21804              Ÿ                                                                     Ÿ
                                   21805              Ÿ  SEE COMMENTS AT START OF THIS MODULE                               Ÿ
                                   21806              Ÿ                                                                     Ÿ
                                                      ¾þþþþþþþþþþþþþþþþþþþþþþþþþþþþþþþþþþþþþþþþþþþþþþþþþþþþþþþþþþþþþþþþþþþþþ»
000278C 50E0 D000/9008_      00000 21807              FNMACH   PROC
 USING  *,R7
 0027A6 D74F 6000 6000_00000 00000 21846                       VRETURN STRING,CVMACHID
 USING  VNENTRY,R6
 DROP   VNENTRY,R6
 0027CA 58E0 73FA/0DEE       02BA0 21934                       VTRIM
 0027D0 18D8/9808 D004_            21939                       PEND
 DROP   *,R7
1SYSV     (SYSV4072) (12:56) (15MAR04) System Routines for Variables                                                        Page   91
0Current Usings:  (CP,R11) (CV,R12)
0Loc    Object Code    Addr1 Addr2  Stmt Lv Lineno    Source Statement           (Hibal 5, Asmedit 3.3)  HLASM R4.0  2004/03/15 12.56
+___    ______ ____    _____ _____  ____ __ ______    ______ _________
0                                  21960              ¿þþþþþþþþþþþþþþþþþþþþþþþþþþþþþþþþþþþþþþþþþþþþþþþþþþþþþþþþþþþþþþþþþþþþþÜ
                                   21961              Ÿ                                                                     Ÿ
                                   21962              Ÿ  MACHINE_ACCESS -- Return the user's machine access list.           Ÿ
                                   21963              Ÿ                                                                     Ÿ
                                   21964              Ÿ    See comments at the start of this module.                        Ÿ
                                   21965              Ÿ                                                                     Ÿ
                                                      ¾þþþþþþþþþþþþþþþþþþþþþþþþþþþþþþþþþþþþþþþþþþþþþþþþþþþþþþþþþþþþþþþþþþþþþ»
00027DE 50E0 D000/9008_      00000 21966              FNMACC   PROC
 USING  *,R7
 0027F8 D74F 6000 6000_00000 00000 22005                       VRETURN STRING,(R1),0     Assume no access
 USING  VNENTRY,R6
 DROP   VNENTRY,R6
                                   22089
 002816 184D/41D0 D1F8             22090                       XPUSH ,,L'KWR,PTR=R4
 USING  KWR,R4                     22093                       WITH  (KWR,R4),BEGIN
 00281C D7FF 4000 4000_00000 00000 22107  1                      CLEAR KWR
 002828 4110 740E/4100_      02C06 22115  1                      XWTO  'FNMACC entered'    *** slp debug ***
 00283A D202 4000 B3B4 00000 003B4 22132  1                      MVC   KWRUSER,CPSUSER     Set logged...
 002840 D201 4003 B3B7 00003 003B7 22133  1                      MVC   KWRGRP,CPSGRP       ...on account
 002846 1814/4100 0040_            22134  1                      KREAD KWR
 002852 9180 400E/47E0_0000E       22147  1                      IF    KWRIFL.KWRIFVAL,BEGIN  Valid KWR record...
                                   22163  2
 USING  VNENTRY,R6                 22164  2                        WITH  (VNENTRY,R6),BEGIN
 00285A D74F 6000 6000 00000 00000 22178  3                          CLEAR VNENTRY
 002860 9201 6020      00020       22185  3                          SET   VNSTRING
 002864 1FFF/43F0 4035             22191  3                          LC    R15,KWRMACC         Machine access bits
 00286A 4110 6026/4100_      00026 22198  3                          SETMSG VNSTRLOC,MAXSTRLN   Output string area
 002872 58E0 73E0/0DEE       02BD8 22214  3                          ACALL GETMACH             Make string
 002878 4000 6024            00024 22218  3                          STH   R0,VNSTRLEN
 DROP   VNENTRY,R6                 22219  2                        END
 00287C                            22227  1                      END
                                   22231  1
 00287C D7FF 4000 4000_00000 00000 22232  1                      CLEAR KWR                 (Tidy)
 002888 1BFF                       22240  1                      CLEAR R15                 A-ok
 DROP   KWR,R4                     22244                       END
 00288A 18D8/9808 D004_            22252                       PEND
 DROP   *,R7
1SYSV     (SYSV4072) (12:56) (15MAR04) System Routines for Variables                                                        Page   92
0Current Usings:  (CP,R11) (CV,R12)
0Loc    Object Code    Addr1 Addr2  Stmt Lv Lineno    Source Statement           (Hibal 5, Asmedit 3.3)  HLASM R4.0  2004/03/15 12.56
+___    ______ ____    _____ _____  ____ __ ______    ______ _________
0                                  22273              ¿þþþþþþþþþþþþþþþþþþþþþþþþþþþþþþþþþþþþþþþþþþþþþþþþþþþþþþþþþþþþþþþþþþþþþÜ
                                   22274              Ÿ                                                                     Ÿ
                                   22275              Ÿ  MACHINE_PRIMARY -- Return the user's primary machine name.         Ÿ
                                   22276              Ÿ                                                                     Ÿ
                                   22277              Ÿ    See comments at the start of this module.                        Ÿ
                                   22278              Ÿ                                                                     Ÿ
                                                      ¾þþþþþþþþþþþþþþþþþþþþþþþþþþþþþþþþþþþþþþþþþþþþþþþþþþþþþþþþþþþþþþþþþþþþþ»
0002898 50E0 D000/9008_      00000 22279              FNMPRIM  PROC  ,
 USING  *,R7
 0028B2 D74F 6000 6000_00000 00000 22318                       VRETURN STRING,(R1),0     Assume no primary machine (odd)
 USING  VNENTRY,R6
 DROP   VNENTRY,R6
                                   22402
 0028D0 184D/41D0 D1F8             22403                       XPUSH ,,L'KWR,PTR=R4
 USING  KWR,R4                     22406                       WITH  (KWR,R4),BEGIN
 0028D6 D7FF 4000 4000_00000 00000 22420  1                      CLEAR KWR
 0028E2 4110 7354/4100_      02C06 22428  1                      XWTO  'FNMACC entered'    *** slp debug ***
 0028F4 D202 4000 B3B4 00000 003B4 22445  1                      MVC   KWRUSER,CPSUSER     Set logged...
 0028FA D201 4003 B3B7 00003 003B7 22446  1                      MVC   KWRGRP,CPSGRP       ...on account
 002900 1814/4100 0040_            22447  1                      KREAD KWR
 00290C 9180 400E/47E0_0000E       22460  1                      IF    KWRIFL.KWRIFVAL,BEGIN  Valid KWR record...
                                   22476  2
 USING  VNENTRY,R6                 22477  2                        WITH  (VNENTRY,R6),BEGIN
 002914 D74F 6000 6000 00000 00000 22491  3                          CLEAR VNENTRY
 00291A 9201 6020      00020       22498  3                          SET   VNSTRING
 00291E 1FFF/43F0 40AE             22504  3                          LC    R15,KWRMPRIM        Primary machine identification
 002924 4110 6026/4100_      00026 22511  3                          SETMSG VNSTRLOC,MAXSTRLN   Output string area
 00292C 58E0 7326/0DEE       02BD8 22527  3                          ACALL GETMACH             Make string
 002932 4000 6024            00024 22531  3                          STH   R0,VNSTRLEN
 DROP   VNENTRY,R6                 22532  2                        END
 002936                            22540  1                      END
                                   22544  1
 002936 D7FF 4000 4000_00000 00000 22545  1                      CLEAR KWR                 (Tidy)
 002942 1BFF                       22553  1                      CLEAR R15                 A-ok
 DROP   KWR,R4                     22557                       END
 002944 18D8/9808 D004_            22565                       PEND
 DROP   *,R7
1SYSV     (SYSV4072) (12:56) (15MAR04) System Routines for Variables                                                        Page   93
0Current Usings:  (CP,R11) (CV,R12)
0Loc    Object Code    Addr1 Addr2  Stmt Lv Lineno    Source Statement           (Hibal 5, Asmedit 3.3)  HLASM R4.0  2004/03/15 12.56
+___    ______ ____    _____ _____  ____ __ ______    ______ _________
0                                  22586              ¿þþþþþþþþþþþþþþþþþþþþþþþþþþþþþþþþþþþþþþþþþþþþþþþþþþþþþþþþþþþþþþþþþþþþþÜ
                                   22587              Ÿ                                                                     Ÿ
                                   22588              Ÿ  GETMACH -- Routine to make a string of machine names               Ÿ
                                   22589              Ÿ    from the access byte (see MACHINE_ACCESS and MACHINE_PRIMARY     Ÿ
                                   22590              Ÿ    above).                                                          Ÿ
                                   22591              Ÿ                                                                     Ÿ
                                   22592              Ÿ    On entry:                                                        Ÿ
                                   22593              Ÿ      R15 - machine access byte                                      Ÿ
                                   22594              Ÿ      R1,R0 - output string loc, len                                 Ÿ
                                   22595              Ÿ                                                                     Ÿ
                                                      ¾þþþþþþþþþþþþþþþþþþþþþþþþþþþþþþþþþþþþþþþþþþþþþþþþþþþþþþþþþþþþþþþþþþþþþ»
0000000                00000 00040 22596              MACHWA   RECORD BEGIN
 000000                            22604  1           MACHB      DS    X                   Machine id byte
                                   22605  1
                                   22606  1           MACHSG     SEGCB
 000004 00                         22607  1 01-SEGCB +$$$SEGCB497   DS 0F
 MACHSGCOD.MACHSGS 01 EQ
 MACHSGCOD.MACHSGW 02 EQ
 MACHSGCOD.MACHSGC 03 EQ
 MACHSGCOD.MACHSGS 04 EQ
 MACHSGCOD.MACHSGO 05 EQ
 MACHSGCOD.MACHSGC 06 EQ
 MACHSGCOD.MACHSGM 07 EQ
 000005 00                         22682  1 01-SEGCB +           DC    X'00'               Reserved
 000006 0000                              1          +
 000008 00000000                   22683  1 01-SEGCB +MACHSGMAXF   DC  A(0)                Maximum buffer length
 00000C 00000000                   22684  1 01-SEGCB +MACHSGMRKF   DC  A(0)                Length at last mark
 000010 00000000                   22685  1 01-SEGCB +MACHSGLENF   DC  A(0)                Current length
 000014 00000000                   22686  1 01-SEGCB +MACHSGINDF   DC  A(0)                Overflow/indent count
 000018 00000000                   22687  1 01-SEGCB +MACHSGERR   DC   A(0)                Address of error recovery routine
 00001C 0000000000000000           22688  1 01-SEGCB +           DC    2F'0'               Reserved
 000024 00000000                   22689  1 01-SEGCB +MACHSGLOC   DC   A(0)                Location of buffer
 000028 00000000                   22690  1 01-SEGCB +MACHSGRTN   DC   A(0)                Processing routine
 00002C 0000000000000000           22691  1 01-SEGCB +           DC    4F'0'               Reserved
 00003C 00000000                   22692  1 01-SEGCB +MACHSGUSR   DC   A(0)                USER field
                                   22693  1 01-SEGCB +MACHSG     EQU   $$$SEGCB497,*-$$$SEGCB497,C'X'
 000040                00040 00040 22694                       END
                                   22703              þþþþ
 002952 50E0 D000/9028_      00000 22704              GETMACH  XPROC  (R2,LSR),MACHWA
 USING  *,R7
 USING  MACHWA-(4+28),R8
 00296C D73F 8020 8020 00000 00000 22754                       CLEAR MACHWA
 002972 42F0 8020            00000 22761                       STC   R15,MACHB           Save machine access byte
                                   22762              *
                                   22763              *        XWTO 'GETMACH entered'    *** slp debug ***
                                   22764              *        IF   (MACHB.KWRFSYSB),' XWTO "GETMACH SYSB"' *** slp ***
                                   22765              *        IF   (MACHB.KWRFSYSG),' XWTO "GETMACH SYSG"' *** slp ***
 002976 1B22                       22766                       CLEAR R2
 002978 41F0 8024/58E0_      00004 22770                       SEGINIT (R1),(R0),MACHSG
 002982 9180 8020/47E0_00000       22793                       IF   (MACHB.KWRFSYSA),'SEG " ",(R2); SEG "SYSA"; LA R2,1'
 0029B0 9140 8020/47E0_00000       22853                       IF   (MACHB.KWRFSYSB),'SEG " ",(R2); SEG "SYSB"; LA R2,1'
 0029DE 9120 8020/47E0_00000       22913                       IF   (MACHB.KWRFSYSC),'SEG " ",(R2); SEG "SYSC"; LA R2,1'
 002A0C 9110 8020/47E0_00000       22973                       IF   (MACHB.KWRFSYSD),'SEG " ",(R2); SEG "SYSD"; LA R2,1'
1SYSV     (SYSV4072) (12:56) (15MAR04) System Routines for Variables                                                        Page   94
0Current Usings:  (*,R7) (MACHWA-(4+28),R8) (CP,R11) (CV,R12)
0Loc    Object Code    Addr1 Addr2  Stmt Lv Lineno    Source Statement           (Hibal 5, Asmedit 3.3)  HLASM R4.0  2004/03/15 12.56
+___    ______ ____    _____ _____  ____ __ ______    ______ _________
0002A3A 9108 8020/47E0_00000       23033                       IF   (MACHB.KWRFSYSE),'SEG " ",(R2); SEG "SYSH"; LA R2,1'
 002A68 9104 8020/47E0_00000       23093                       IF   (MACHB.KWRFSYSF),'SEG " ",(R2); SEG "SYSF"; LA R2,1'
 002A96 9102 8020/47E0_00000       23153                       IF   (MACHB.KWRFSYSG),'SEG " ",(R2); SEG "SYSG"; LA R2,1'
                                   23213
 002AC4 5810 8044/5800_      00024 23214                       SETMSG L:MACHSGLOC,L:MACHSGLENF  Message area
 002ACC 18D8/9828 D004_            23226                       PEND
 DROP   MACHWA-(4+28),R8
 DROP   *,R7
1SYSV     (SYSV4072) (12:56) (15MAR04) System Routines for Variables                                                        Page   95
0Current Usings:  (CP,R11) (CV,R12)
0Loc    Object Code    Addr1 Addr2  Stmt Lv Lineno    Source Statement           (Hibal 5, Asmedit 3.3)  HLASM R4.0  2004/03/15 12.56
+___    ______ ____    _____ _____  ____ __ ______    ______ _________
0                                  23252              ¿þþþþþþþþþþþþþþþþþþþþþþþþþþþþþþþþþþþþþþþþþþþþþþþþþþþþþþþþþþþþþþþþþþþþþÜ
                                   23253              Ÿ                                                                     Ÿ
                                   23254              Ÿ  MEMBER                                                             Ÿ
                                   23255              Ÿ                                                                     Ÿ
                                   23256              Ÿ  SEE COMMENTS AT START OF THIS MODULE                               Ÿ
                                   23257              Ÿ                                                                     Ÿ
                                                      ¾þþþþþþþþþþþþþþþþþþþþþþþþþþþþþþþþþþþþþþþþþþþþþþþþþþþþþþþþþþþþþþþþþþþþþ»
0002ADA 50E0 D000/9008_      00000 23258              FNMEMBER PROC
 USING  *,R7
                                   23297
                                   23298                       COMMENT                   EXTRACT MEMBER
 002AF4 4110 B62C/5800_      0062C 23299                       SETMSG CPAFNAME,L:CPAFNAMEL
 002AFC 58E0 70FC/0DEE       02BF0 23313                       VCALL RETFMEM
                                   23317
 002B02 D74F 6000 6000_00000 00000 23318                       VRETURN STRING,(R1),(R0)
 USING  VNENTRY,R6
 DROP   VNENTRY,R6
 002B1E 18D8/9808 D004_            23402                       PEND
 DROP   *,R7
1SYSV     (SYSV4072) (12:56) (15MAR04) System Routines for Variables                                                        Page   96
0Current Usings:  (CP,R11) (CV,R12)
0Loc    Object Code    Addr1 Addr2  Stmt Lv Lineno    Source Statement           (Hibal 5, Asmedit 3.3)  HLASM R4.0  2004/03/15 12.56
+___    ______ ____    _____ _____  ____ __ ______    ______ _________
0                                  23423              ¿þþþþþþþþþþþþþþþþþþþþþþþþþþþþþþþþþþþþþþþþþþþþþþþþþþþþþþþþþþþþþþþþþþþþþÜ
                                   23424              Ÿ                                                                     Ÿ
                                   23425              Ÿ  MILTEN -- Returns the jobname of the Milten we are connected to.   Ÿ
                                   23426              Ÿ                                                                     Ÿ
                                   23427              Ÿ    Well, eventually, it should do this -- for now it must conform   Ÿ
                                   23428              Ÿ    to the pathname that MILTEN uses (either MILTEN or TESTMIL).     Ÿ
                                   23429              Ÿ                                                                     Ÿ
                                   23430              Ÿ  SEE COMMENTS AT START OF THIS MODULE                               Ÿ
                                   23431              Ÿ                                                                     Ÿ
                                                      ¾þþþþþþþþþþþþþþþþþþþþþþþþþþþþþþþþþþþþþþþþþþþþþþþþþþþþþþþþþþþþþþþþþþþþþ»
0002B2C 50E0 D000/9008_      00000 23432              FNMILTEN PROC
 USING  *,R7
 002B46 4110 C020/4100_      00020 23471                       SETMSG CVMILSSN
 002B4E 9180 C4C4/47E0_004C4       23485                       IF    CVFTMIL,'SETMSG "TESTMIL"'
 002B5E D74F 6000 6000_00000 00000 23509                       VRETURN STRING,(R1),(R0)
 USING  VNENTRY,R6
 DROP   VNENTRY,R6
 002B7A 58E0 705A/0DEE       02BA0 23593                       VTRIM
 002B80 18D8/9808 D004_            23598                       PEND
 DROP   *,R7
                                   23618
                                   23619                       QLTORG
1SYSV     (SYSV4072) (12:56) (15MAR04) System Routines for Variables                                                        Page   97
0Current Usings:  (CP,R11) (CV,R12)
0Loc    Object Code    Addr1 Addr2  Stmt Lv Lineno    Source Statement           (Hibal 5, Asmedit 3.3)  HLASM R4.0  2004/03/15 12.56
+___    ______ ____    _____ _____  ____ __ ______    ______ _________
0                                  23660              ¿þþþþþþþþþþþþþþþþþþþþþþþþþþþþþþþþþþþþþþþþþþþþþþþþþþþþþþþþþþþþþþþþþþþþþÜ
                                   23661              Ÿ                                                                     Ÿ
                                   23662              Ÿ                                                                     Ÿ
                                   23663              Ÿ  NAME                                                               Ÿ
                                   23664              Ÿ                                                                     Ÿ
                                   23665              Ÿ  SEE COMMENTS AT START OF THIS MODULE                               Ÿ
                                   23666              Ÿ                                                                     Ÿ
                                                      ¾þþþþþþþþþþþþþþþþþþþþþþþþþþþþþþþþþþþþþþþþþþþþþþþþþþþþþþþþþþþþþþþþþþþþþ»
0002C98 50E0 D000/9008_      00000 23667              FNNAME   PROC  ,
 USING  *,R7
 002CB2 D74F 6000 6000_00000 00000 23706                       VRETURN STRING,CPNAME
 USING  VNENTRY,R6
 DROP   VNENTRY,R6
 002CD6 58E0 7A16/0DEE       036C8 23794                       VTRIM
 002CDC 18D8/9808 D004_            23799                       PEND
 DROP   *,R7
1SYSV     (SYSV4072) (12:56) (15MAR04) System Routines for Variables                                                        Page   98
0Current Usings:  (CP,R11) (CV,R12)
0Loc    Object Code    Addr1 Addr2  Stmt Lv Lineno    Source Statement           (Hibal 5, Asmedit 3.3)  HLASM R4.0  2004/03/15 12.56
+___    ______ ____    _____ _____  ____ __ ______    ______ _________
0                                  23820              ¿þþþþþþþþþþþþþþþþþþþþþþþþþþþþþþþþþþþþþþþþþþþþþþþþþþþþþþþþþþþþþþþþþþþþþÜ
                                   23821              Ÿ                                                                     Ÿ
                                   23822              Ÿ  NEWMAIL                                                            Ÿ
                                   23823              Ÿ                                                                     Ÿ
                                   23824              Ÿ    See comments at the start of this module.                        Ÿ
                                   23825              Ÿ                                                                     Ÿ
                                                      ¾þþþþþþþþþþþþþþþþþþþþþþþþþþþþþþþþþþþþþþþþþþþþþþþþþþþþþþþþþþþþþþþþþþþþþ»
0002CEA 50E0 D000/9008_      00000 23826              FNNMAIL  PROC  ,
 USING  *,R7
 002D04 D74F 6000 6000_00000 00000 23865                       VRETURN BOOLEAN,FALSE     Assume no new mail waiting
 USING  VNENTRY,R6
 DROP   VNENTRY,R6
                                   23904
 002D16 184D/41D0 D1F8             23905                       XPUSH ,,L'KWR,PTR=R4
 USING  KWR,R4                     23908                       WITH  (KWR,R4),BEGIN
 002D1C D7FF 4000 4000_00000 00000 23922  1                      CLEAR KWR
 002D28 D202 4000 B3B4 00000 003B4 23930  1                      MVC   KWRUSER,CPSUSER     Set logged...
 002D2E D201 4003 B3B7 00003 003B7 23931  1                      MVC   KWRGRP,CPSGRP       ...on account
 002D34 1814/4100 0040_            23932  1                      KREAD KWR
 002D40 9180 400E/47E0_0000E       23945  1                      IF    KWRIFL.KWRIFVAL,BEGIN  Valid KWR record...
                                   23961  2
 002D48 9140 4036/47E0_00036       23962  2                        IF    KWRSFL.KWRSFMAI,BEGIN  New mail waiting...
 002D50 D74F 6000 6000_00000 00000 23978  3                          VRETURN BOOLEAN,TRUE
 USING  VNENTRY,R6
 DROP   VNENTRY,R6
 002D62                            24017  2                        END
 002D62                            24021  1                      END
                                   24025  1
 002D62 D7FF 4000 4000_00000 00000 24026  1                      CLEAR KWR                 (Tidy)
 DROP   KWR,R4                     24034                       END
 002D6E 18D8/9808 D004_            24042                       PEND
 DROP   *,R7
1SYSV     (SYSV4072) (12:56) (15MAR04) System Routines for Variables                                                        Page   99
0Current Usings:  (CP,R11) (CV,R12)
0Loc    Object Code    Addr1 Addr2  Stmt Lv Lineno    Source Statement           (Hibal 5, Asmedit 3.3)  HLASM R4.0  2004/03/15 12.56
+___    ______ ____    _____ _____  ____ __ ______    ______ _________
0                                  24063              ¿þþþþþþþþþþþþþþþþþþþþþþþþþþþþþþþþþþþþþþþþþþþþþþþþþþþþþþþþþþþþþþþþþþþþþÜ
                                   24064              Ÿ                                                                     Ÿ
                                   24065              Ÿ  NEWNEWS                                                            Ÿ
                                   24066              Ÿ                                                                     Ÿ
                                   24067              Ÿ    See comments at the start of this module.                        Ÿ
                                   24068              Ÿ                                                                     Ÿ
                                                      ¾þþþþþþþþþþþþþþþþþþþþþþþþþþþþþþþþþþþþþþþþþþþþþþþþþþþþþþþþþþþþþþþþþþþþþ»
0002D7C 50E0 D000/9008_      00000 24069              FNNNEWS  PROC  ,
 USING  *,R7
 002D96 D74F 6000 6000_00000 00000 24108                       VRETURN BOOLEAN,FALSE     Assume no new news waiting
 USING  VNENTRY,R6
 DROP   VNENTRY,R6
                                   24147
 002DA8 184D/41D0 D1F8             24148                       XPUSH ,,L'KWR,PTR=R4
 USING  KWR,R4                     24151                       WITH  (KWR,R4),BEGIN
 002DAE D7FF 4000 4000_00000 00000 24165  1                      CLEAR KWR
 002DBA D202 4000 B3B4 00000 003B4 24173  1                      MVC   KWRUSER,CPSUSER     Set logged...
 002DC0 D201 4003 B3B7 00003 003B7 24174  1                      MVC   KWRGRP,CPSGRP       ...on account
 002DC6 1814/4100 0040_            24175  1                      KREAD KWR
 002DD2 9180 400E/47E0_0000E       24188  1                      IF    KWRIFL.KWRIFVAL,BEGIN  Valid KWR record...
                                   24204  2
 002DDA D503 40B4 C608_000B4 00608 24205  2                        IF    (KWRNEWDT,LT,CVNWDATE),BEGIN  New news waiting...
 002DE4 D74F 6000 6000_00000 00000 24223  3                          VRETURN BOOLEAN,TRUE
 USING  VNENTRY,R6
 DROP   VNENTRY,R6
 002DF6                            24262  2                        END
 002DF6                            24266  1                      END
                                   24270  1
 002DF6 D7FF 4000 4000_00000 00000 24271  1                      CLEAR KWR                 (Tidy)
 DROP   KWR,R4                     24279                       END
 002E02 18D8/9808 D004_            24287                       PEND
 DROP   *,R7
1SYSV     (SYSV4072) (12:56) (15MAR04) System Routines for Variables                                                        Page  100
0Current Usings:  (CP,R11) (CV,R12)
0Loc    Object Code    Addr1 Addr2  Stmt Lv Lineno    Source Statement           (Hibal 5, Asmedit 3.3)  HLASM R4.0  2004/03/15 12.56
+___    ______ ____    _____ _____  ____ __ ______    ______ _________
0                                  24308              ¿þþþþþþþþþþþþþþþþþþþþþþþþþþþþþþþþþþþþþþþþþþþþþþþþþþþþþþþþþþþþþþþþþþþþþÜ
                                   24309              Ÿ                                                                     Ÿ
                                   24310              Ÿ  NEXT                                                               Ÿ
                                   24311              Ÿ                                                                     Ÿ
                                   24312              Ÿ  SEE COMMENTS AT START OF THIS MODULE                               Ÿ
                                   24313              Ÿ                                                                     Ÿ
                                                      ¾þþþþþþþþþþþþþþþþþþþþþþþþþþþþþþþþþþþþþþþþþþþþþþþþþþþþþþþþþþþþþþþþþþþþþ»
0002E10 50E0 D000/9008_      00000 24314              FNNEXT   PROC  ,
 USING  *,R7
 002E2A 4110 0001            00001 24353                       LA    R1,1                SET INCREMENT
 002E2E 5800 B5A8            005A8 24354                       L     R0,CPACLNO
 002E32 4740 7052            02E7C 24355                       BM    FNNONEXT
 002E36 58E0 78BE/0DEE       036E8 24356                       VCALL ADDER               CALC NEXT POSSIBLE
 002E3C 4740 7052            02E7C 24360                       BM    FNNONEXT
 002E40 5000 B73C            0073C 24361                       ST    R0,CPLCNO
 002E44 4110 B73C            0073C 24362                       LA    R1,CPLCNO
 002E48 58E0 78C2/0DEE       036EC 24363                       VCALL LOCATE              FINE (LOCATE) NEXT
 002E4E 58E0 78C6/0DEE       036F0 24367                       PFREE PBR                 FREE ANY LOCATED PAGE
 002E54 91C0 BD84      00D84       24373                       TM    CPDRPT,CPFNTYT+CPFHIGH
 002E58 4770 7052            02E7C 24374                       BNZ   FNNONEXT
 002E5C D74F 6000 6000_00000 00000 24375                       VRETURN LINENO,L:CPLCNO   NEXT
 USING  VNENTRY,R6
 DROP   VNENTRY,R6
 002E78 47F0 7072            02E9C 24422                       B     FNNEXTX
                                   24423
 002E7C                            24424              FNNONEXT LABEL ,
 002E7C D74F 6000 6000_00000 00000 24426                       VRETURN LINENO,L:=F'-1000'
 USING  VNENTRY,R6
 DROP   VNENTRY,R6
 002E98 47F0 7072            02E9C 24473                       B     FNNEXTX
                                   24474
 002E9C                            24475              FNNEXTX  LABEL ,
 002E9C 18D8/9808 D004_            24477                       PEND
 DROP   *,R7
1SYSV     (SYSV4072) (12:56) (15MAR04) System Routines for Variables                                                        Page  101
0Current Usings:  (CP,R11) (CV,R12)
0Loc    Object Code    Addr1 Addr2  Stmt Lv Lineno    Source Statement           (Hibal 5, Asmedit 3.3)  HLASM R4.0  2004/03/15 12.56
+___    ______ ____    _____ _____  ____ __ ______    ______ _________
0                                  24498              ¿þþþþþþþþþþþþþþþþþþþþþþþþþþþþþþþþþþþþþþþþþþþþþþþþþþþþþþþþþþþþþþþþþþþþþÜ
                                   24499              Ÿ                                                                     Ÿ
                                   24500              Ÿ  ORIGSYS variable.                                                  Ÿ
                                   24501              Ÿ                                                                     Ÿ
                                                      ¾þþþþþþþþþþþþþþþþþþþþþþþþþþþþþþþþþþþþþþþþþþþþþþþþþþþþþþþþþþþþþþþþþþþþþ»
0002EAA 50E0 D000/9008_      00000 24502              FNORGSYS PROC
 USING  *,R7
 002EC4 D74F 6000 6000_00000 00000 24541                       VRETURN STRING,CPORGSYS
 USING  VNENTRY,R6
 DROP   VNENTRY,R6
 002EE8 58E0 7804/0DEE       036C8 24629                       VTRIM
 002EEE 18D8/9808 D004_            24634                       PEND
 DROP   *,R7
1SYSV     (SYSV4072) (12:56) (15MAR04) System Routines for Variables                                                        Page  102
0Current Usings:  (CP,R11) (CV,R12)
0Loc    Object Code    Addr1 Addr2  Stmt Lv Lineno    Source Statement           (Hibal 5, Asmedit 3.3)  HLASM R4.0  2004/03/15 12.56
+___    ______ ____    _____ _____  ____ __ ______    ______ _________
0                                  24655              ¿þþþþþþþþþþþþþþþþþþþþþþþþþþþþþþþþþþþþþþþþþþþþþþþþþþþþþþþþþþþþþþþþþþþþþÜ
                                   24656              Ÿ                                                                     Ÿ
                                   24657              Ÿ  ORVYL variable.                                                    Ÿ
                                   24658              Ÿ                                                                     Ÿ
                                                      ¾þþþþþþþþþþþþþþþþþþþþþþþþþþþþþþþþþþþþþþþþþþþþþþþþþþþþþþþþþþþþþþþþþþþþþ»
0002EFC 50E0 D000/9008_      00000 24659              FNORVYL  PROC
 USING  *,R7
 002F16 D74F 6000 6000_00000 00000 24698                       VRETURN STRING,CPORVYL
 USING  VNENTRY,R6
 DROP   VNENTRY,R6
 002F3A 58E0 77B2/0DEE       036C8 24786                       VTRIM
 002F40 18D8/9808 D004_            24791                       PEND
 DROP   *,R7
1SYSV     (SYSV4072) (12:56) (15MAR04) System Routines for Variables                                                        Page  103
0Current Usings:  (CP,R11) (CV,R12)
0Loc    Object Code    Addr1 Addr2  Stmt Lv Lineno    Source Statement           (Hibal 5, Asmedit 3.3)  HLASM R4.0  2004/03/15 12.56
+___    ______ ____    _____ _____  ____ __ ______    ______ _________
0                                  24812              ¿þþþþþþþþþþþþþþþþþþþþþþþþþþþþþþþþþþþþþþþþþþþþþþþþþþþþþþþþþþþþþþþþþþþþþÜ
                                   24813              Ÿ                                                                     Ÿ
                                   24814              Ÿ  ORVYL_CMDS_OK boolean variable.                                    Ÿ
                                   24815              Ÿ                                                                     Ÿ
                                                      ¾þþþþþþþþþþþþþþþþþþþþþþþþþþþþþþþþþþþþþþþþþþþþþþþþþþþþþþþþþþþþþþþþþþþþþ»
0002F4E 50E0 D000/9008_      00000 24816              FNORVCOK PROC  ,
 USING  *,R7
 002F68 9180 B140/4710_00140       24855                       IF    (CPFREDT,OR,(CPORVCMD,Z)),'VRETURN BOOLEAN,TRUE'
 USING  VNENTRY,R6
 DROP   VNENTRY,R6
 002F8A 7026/47F0 7038_02F8A 02F76 24929                       ELSE  'VRETURN BOOLEAN,FALSE'
 USING  VNENTRY,R6
 DROP   VNENTRY,R6
 002FA0 18D8/9808 D004_            24984                       PEND
 DROP   *,R7
1SYSV     (SYSV4072) (12:56) (15MAR04) System Routines for Variables                                                        Page  104
0Current Usings:  (CP,R11) (CV,R12)
0Loc    Object Code    Addr1 Addr2  Stmt Lv Lineno    Source Statement           (Hibal 5, Asmedit 3.3)  HLASM R4.0  2004/03/15 12.56
+___    ______ ____    _____ _____  ____ __ ______    ______ _________
0                                  25005              ¿þþþþþþþþþþþþþþþþþþþþþþþþþþþþþþþþþþþþþþþþþþþþþþþþþþþþþþþþþþþþþþþþþþþþþÜ
                                   25006              Ÿ                                                                     Ÿ
                                   25007              Ÿ  ORVYL_UP boolean variable.                                         Ÿ
                                   25008              Ÿ                                                                     Ÿ
                                                      ¾þþþþþþþþþþþþþþþþþþþþþþþþþþþþþþþþþþþþþþþþþþþþþþþþþþþþþþþþþþþþþþþþþþþþþ»
0002FAE 50E0 D000/9008_      00000 25009              FNORVUP  PROC  ,
 USING  *,R7
 002FC8 4110 B8BC/4100_      008BC 25048                       SETMSG CPORVYL
 002FD0 58E0 7734/0DEE       036FC 25062                       VCALL SYSCHECK            Is ORVYL up?
 002FD6 4770 7024/D74F_      02FEC 25066                       IF    Z,'VRETURN BOOLEAN,TRUE'
 USING  VNENTRY,R6
 DROP   VNENTRY,R6
 002FEC 7028/47F0 703A_02FEC 02FD8 25121                       ELSE  'VRETURN BOOLEAN,FALSE'
 USING  VNENTRY,R6
 DROP   VNENTRY,R6
 003002 18D8/9808 D004_            25176                       PEND
 DROP   *,R7
1SYSV     (SYSV4072) (12:56) (15MAR04) System Routines for Variables                                                        Page  105
0Current Usings:  (CP,R11) (CV,R12)
0Loc    Object Code    Addr1 Addr2  Stmt Lv Lineno    Source Statement           (Hibal 5, Asmedit 3.3)  HLASM R4.0  2004/03/15 12.56
+___    ______ ____    _____ _____  ____ __ ______    ______ _________
0                                  25197              ¿þþþþþþþþþþþþþþþþþþþþþþþþþþþþþþþþþþþþþþþþþþþþþþþþþþþþþþþþþþþþþþþþþþþþþÜ
                                   25198              Ÿ                                                                     Ÿ
                                   25199              Ÿ  ORVYL_CPU variable.                                                Ÿ
                                   25200              Ÿ                                                                     Ÿ
                                                      ¾þþþþþþþþþþþþþþþþþþþþþþþþþþþþþþþþþþþþþþþþþþþþþþþþþþþþþþþþþþþþþþþþþþþþþ»
0003010 50E0 D000/9008_      00000 25201              FNORVCPU PROC  ,
 USING  *,R7
 00302A 41F0 764E            03678 25240                       LA    R15,=CL16'ORVYL_CPU'
 00302E 58E0 76D6/0DEE       03700 25241                       VCALL GETCTOT             Get ORVYL cpu time in .001 sec
 003034 D74F 6000 6000_00000 00000 25245                       VRETURN LINENO,(R15)
 USING  VNENTRY,R6
 DROP   VNENTRY,R6
 00304E 18D8/9808 D004_            25292                       PEND
 DROP   *,R7
1SYSV     (SYSV4072) (12:56) (15MAR04) System Routines for Variables                                                        Page  106
0Current Usings:  (CP,R11) (CV,R12)
0Loc    Object Code    Addr1 Addr2  Stmt Lv Lineno    Source Statement           (Hibal 5, Asmedit 3.3)  HLASM R4.0  2004/03/15 12.56
+___    ______ ____    _____ _____  ____ __ ______    ______ _________
0                                  25313              ¿þþþþþþþþþþþþþþþþþþþþþþþþþþþþþþþþþþþþþþþþþþþþþþþþþþþþþþþþþþþþþþþþþþþþþÜ
                                   25314              Ÿ                                                                     Ÿ
                                   25315              Ÿ  ORVYL_IO variable.                                                 Ÿ
                                   25316              Ÿ                                                                     Ÿ
                                                      ¾þþþþþþþþþþþþþþþþþþþþþþþþþþþþþþþþþþþþþþþþþþþþþþþþþþþþþþþþþþþþþþþþþþþþþ»
000305C 50E0 D000/9008_      00000 25317              FNORVIO  PROC  ,
 USING  *,R7
 003076 41F0 7612            03688 25356                       LA    R15,=CL16'ORVYL_IO'
 00307A 58E0 768A/0DEE       03700 25357                       VCALL GETCTOT             Get ORVYL disk I/O count
 003080 D74F 6000 6000_00000 00000 25361                       VRETURN INTEGER,(R15)
 USING  VNENTRY,R6
 DROP   VNENTRY,R6
 00309A 18D8/9808 D004_            25408                       PEND
 DROP   *,R7
1SYSV     (SYSV4072) (12:56) (15MAR04) System Routines for Variables                                                        Page  107
0Current Usings:  (CP,R11) (CV,R12)
0Loc    Object Code    Addr1 Addr2  Stmt Lv Lineno    Source Statement           (Hibal 5, Asmedit 3.3)  HLASM R4.0  2004/03/15 12.56
+___    ______ ____    _____ _____  ____ __ ______    ______ _________
0                                  25429              ¿þþþþþþþþþþþþþþþþþþþþþþþþþþþþþþþþþþþþþþþþþþþþþþþþþþþþþþþþþþþþþþþþþþþþþÜ
                                   25430              Ÿ                                                                     Ÿ
                                   25431              Ÿ  PACCOUNT - Returns Pseudo Account.                                 Ÿ
                                   25432              Ÿ                                                                     Ÿ
                                   25433              Ÿ  See comments at the start of this module.                          Ÿ
                                   25434              Ÿ                                                                     Ÿ
                                                      ¾þþþþþþþþþþþþþþþþþþþþþþþþþþþþþþþþþþþþþþþþþþþþþþþþþþþþþþþþþþþþþþþþþþþþþ»
00030A8 50E0 D000/9008_      00000 25435              FNPACC   PROC  ,
 USING  *,R7
 USING  VNENTRY,R6                 25474                       WITH  (VNENTRY,R6)
 0030C2 D74F 6000 6000 00000 00000 25487                       CLEAR VNENTRY
 0030C8 9201 6020      00020       25494                       SET   VNSTRING
 0030CC D701 6024 6024 00024 00024 25500                       CLEAR VNSTRLEN            Assume no pseudo account set
                                   25507
 0030D2 D604 B7F8 B7F8_007F8 007F8 25508                       IF    (CPPACCT,NZ),BEGIN  Return pseudo account...
 0030DC D201 6024 766A 00024 0372C 25524  1                      MVC   VNSTRLEN,=H'6'
 0030E2 D201 6026 B7FB 00026 007FB 25525  1                      MVC   VNSTRLOC(2),CPPGRP
 0030E8 924B 6028      00028       25526  1                      MVI   VNSTRLOC+2,C'.'
 0030EC D202 6029 B7F8 00029 007F8 25527  1                      MVC   VNSTRLOC+3(3),CPPUSER
 0030F2                            25528                       END
 0030F2 18D8/9808 D004_            25532                       PEND
 DROP   VNENTRY,R6
 DROP   *,R7
1SYSV     (SYSV4072) (12:56) (15MAR04) System Routines for Variables                                                        Page  108
0Current Usings:  (CP,R11) (CV,R12)
0Loc    Object Code    Addr1 Addr2  Stmt Lv Lineno    Source Statement           (Hibal 5, Asmedit 3.3)  HLASM R4.0  2004/03/15 12.56
+___    ______ ____    _____ _____  ____ __ ______    ______ _________
0                                  25558              ¿þþþþþþþþþþþþþþþþþþþþþþþþþþþþþþþþþþþþþþþþþþþþþþþþþþþþþþþþþþþþþþþþþþþþþÜ
                                   25559              Ÿ                                                                     Ÿ
                                   25560              Ÿ                                                                     Ÿ
                                   25561              Ÿ  PARM                                                               Ÿ
                                   25562              Ÿ                                                                     Ÿ
                                   25563              Ÿ  SEE COMMENTS AT START OF THIS MODULE                               Ÿ
                                   25564              Ÿ                                                                     Ÿ
                                                      ¾þþþþþþþþþþþþþþþþþþþþþþþþþþþþþþþþþþþþþþþþþþþþþþþþþþþþþþþþþþþþþþþþþþþþþ»
0003100 50E0 D000/9008_      00000 25565              FNPARM   PROC  FNWA
 USING  *,R7
 USING  FNWA-(4+36),R8
 00311A 4100 0150            00150 25615                       LA    R0,L'FNWORK
 00311E 4110 8028            00000 25616                       LA    R1,FNWORK
 003122 4120 757E            03698 25617                       LA    R2,=CL16'SYS.PARM        '
 003126 58E0 75EE/0DEE       03708 25618                       VCALL GETDATA             GET PARM FROM SESSION DATA
 00312C 4780 7018            03132 25622                       IF    NZ,BEGIN
 003130 1B00                       25633  1                      CLEAR R0
 003132                            25637                       END
 003132 D74F 6000 6000_00000 00000 25641                       VRETURN STRING,(R1),(R0)
 USING  VNENTRY,R6
 DROP   VNENTRY,R6
 00314E 18D8/9808 D004_            25725                       PEND
 DROP   FNWA-(4+36),R8
 DROP   *,R7
1SYSV     (SYSV4072) (12:56) (15MAR04) System Routines for Variables                                                        Page  109
0Current Usings:  (CP,R11) (CV,R12)
0Loc    Object Code    Addr1 Addr2  Stmt Lv Lineno    Source Statement           (Hibal 5, Asmedit 3.3)  HLASM R4.0  2004/03/15 12.56
+___    ______ ____    _____ _____  ____ __ ______    ______ _________
0                                  25751              ¿þþþþþþþþþþþþþþþþþþþþþþþþþþþþþþþþþþþþþþþþþþþþþþþþþþþþþþþþþþþþþþþþþþþþþÜ
                                   25752              Ÿ                                                                     Ÿ
                                   25753              Ÿ                                                                     Ÿ
                                   25754              Ÿ  PI - 3.14159                                                       Ÿ
                                   25755              Ÿ                                                                     Ÿ
                                   25756              Ÿ  SEE COMMENTS AT START OF THIS MODULE                               Ÿ
                                   25757              Ÿ                                                                     Ÿ
                                                      ¾þþþþþþþþþþþþþþþþþþþþþþþþþþþþþþþþþþþþþþþþþþþþþþþþþþþþþþþþþþþþþþþþþþþþþ»
000315C 50E0 D000/9008_      00000 25758              FNPI     PROC  ,
 USING  *,R7
 USING  VNENTRY,R6                 25797                       USING VNENTRY,R6
 003176 D74F 6000 6000 00000 00000 25806                       CLEAR VNENTRY
 00317C 9202 6020      00020       25813                       SET   VNNUMB
 003180 D20B 6024 7596 00024 0370C 25819                       MVC   VNVALUE(12),=X'00000000000003141592700C'
 003186 1BFF                       25820                       SR    R15,R15
 DROP   VNENTRY,R6                 25821                       DROP  R6
 003188 18D8/9808 D004_            25828                       PEND
 DROP   *,R7
1SYSV     (SYSV4072) (12:56) (15MAR04) System Routines for Variables                                                        Page  110
0Current Usings:  (CP,R11) (CV,R12)
0Loc    Object Code    Addr1 Addr2  Stmt Lv Lineno    Source Statement           (Hibal 5, Asmedit 3.3)  HLASM R4.0  2004/03/15 12.56
+___    ______ ____    _____ _____  ____ __ ______    ______ _________
0                                  25849              ¿þþþþþþþþþþþþþþþþþþþþþþþþþþþþþþþþþþþþþþþþþþþþþþþþþþþþþþþþþþþþþþþþþþþþþÜ
                                   25850              Ÿ                                                                     Ÿ
                                   25851              Ÿ                                                                     Ÿ
                                   25852              Ÿ  PREFIX                                                             Ÿ
                                   25853              Ÿ                                                                     Ÿ
                                   25854              Ÿ  NOTE:                                                              Ÿ
                                   25855              Ÿ  WE HAVE JUNKED THIS UP,,, IN THE NAME OF BACKWARDS                 Ÿ
                                   25856              Ÿ  COMPATABILITY, WE DO NOT RETURN MEMBER PORTION OF                  Ÿ
                                   25857              Ÿ  PREFIX. WE STRIP IT OFF.                                           Ÿ
                                   25858              Ÿ                                                                     Ÿ
                                   25859              Ÿ  SEE COMMENTS AT START OF THIS MODULE                               Ÿ
                                   25860              Ÿ                                                                     Ÿ
                                                      ¾þþþþþþþþþþþþþþþþþþþþþþþþþþþþþþþþþþþþþþþþþþþþþþþþþþþþþþþþþþþþþþþþþþþþþ»
0003196 50E0 D000/9008_      00000 25861              FNPREFIX PROC  ,
 USING  *,R7
                                   25900
                                   25901                       COMMENT                   EXTRACT MEMBER
 0031B0 4110 B62C/5800_      0062C 25902                       SETMSG CPAFNAME,L:CPAFNAMEL
 0031B8 58E0 7568/0DEE       03718 25916                       VCALL RETFNAME
                                   25920
 0031BE D74F 6000 6000_00000 00000 25921                       VRETURN STRING,(R1),(R0)
 USING  VNENTRY,R6
 DROP   VNENTRY,R6
 0031DA 18D8/9808 D004_            26005                       PEND
 DROP   *,R7
1SYSV     (SYSV4072) (12:56) (15MAR04) System Routines for Variables                                                        Page  111
0Current Usings:  (CP,R11) (CV,R12)
0Loc    Object Code    Addr1 Addr2  Stmt Lv Lineno    Source Statement           (Hibal 5, Asmedit 3.3)  HLASM R4.0  2004/03/15 12.56
+___    ______ ____    _____ _____  ____ __ ______    ______ _________
0                                  26026              ¿þþþþþþþþþþþþþþþþþþþþþþþþþþþþþþþþþþþþþþþþþþþþþþþþþþþþþþþþþþþþþþþþþþþþþÜ
                                   26027              Ÿ                                                                     Ÿ
                                   26028              Ÿ                                                                     Ÿ
                                   26029              Ÿ  PREVIOUS                                                           Ÿ
                                   26030              Ÿ                                                                     Ÿ
                                   26031              Ÿ  SEE COMMENTS AT START OF THIS MODULE                               Ÿ
                                   26032              Ÿ                                                                     Ÿ
                                                      ¾þþþþþþþþþþþþþþþþþþþþþþþþþþþþþþþþþþþþþþþþþþþþþþþþþþþþþþþþþþþþþþþþþþþþþ»
00031E8 50E0 D000/9008_      00000 26033              FNPREV   PROC  ,
 USING  *,R7
 003202 58F0 B5A8/12FF       005A8 26072                       LT    R15,CPACLNO         Current lineno
 003208 4740 703A            0323C 26076                       BM    FNNOPREV
 00320C 50F0 B73C            0073C 26077                       ST    R15,CPLCNO
 003210 58E0 751A/0DEE       0371C 26078                       VCALL PREVLNO             Get previous lineno
 003216 4740 703A            0323C 26082                       BM    FNNOPREV            None
 00321A 5800 B73C            0073C 26083                       L     R0,CPLCNO
 00321E D74F 6000 6000_00000 00000 26084                       VRETURN LINENO,(R0)       RETURN PREVIOUS
 USING  VNENTRY,R6
 DROP   VNENTRY,R6
 003238 47F0 7056            03258 26131                       EXIT
                                   26134
 00323C D74F 6000 6000_00000 00000 26135              FNNOPREV VRETURN LINENO,L:=F'-1000'
 USING  VNENTRY,R6
 DROP   VNENTRY,R6
 003258 18D8/9808 D004_            26182                       PEND
 DROP   *,R7
1SYSV     (SYSV4072) (12:56) (15MAR04) System Routines for Variables                                                        Page  112
0Current Usings:  (CP,R11) (CV,R12)
0Loc    Object Code    Addr1 Addr2  Stmt Lv Lineno    Source Statement           (Hibal 5, Asmedit 3.3)  HLASM R4.0  2004/03/15 12.56
+___    ______ ____    _____ _____  ____ __ ______    ______ _________
0                                  26203              ¿þþþþþþþþþþþþþþþþþþþþþþþþþþþþþþþþþþþþþþþþþþþþþþþþþþþþþþþþþþþþþþþþþþþþþÜ
                                   26204              Ÿ                                                                     Ÿ
                                   26205              Ÿ                                                                     Ÿ
                                   26206              Ÿ  PRIV_ACCT                                                          Ÿ
                                   26207              Ÿ                                                                     Ÿ
                                   26208              Ÿ  SEE COMMENTS AT START OF THIS MODULE                               Ÿ
                                   26209              Ÿ                                                                     Ÿ
                                                      ¾þþþþþþþþþþþþþþþþþþþþþþþþþþþþþþþþþþþþþþþþþþþþþþþþþþþþþþþþþþþþþþþþþþþþþ»
0003266 50E0 D000/9008_      00000 26210              FNPRVACT PROC  ,
 USING  *,R7
 003280 9140 B3BE/47E0_003BE       26249                       IF    CPSFAPR,BEGIN
 003288 D74F 6000 6000_00000 00000 26264  1                      VRETURN BOOLEAN,TRUE
 USING  VNENTRY,R6
 DROP   VNENTRY,R6
 00329A                            26303                       END
 00329A 701E/47F0 7030 0329A 03286 26307                       ELSE  BEGIN
 00329E D74F 6000 6000_00000 00000 26318  1                      VRETURN BOOLEAN,FALSE
 USING  VNENTRY,R6
 DROP   VNENTRY,R6
 0032B0                            26357                       END
 0032B0 18D8/9808 D004_            26361                       PEND
 DROP   *,R7
1SYSV     (SYSV4072) (12:56) (15MAR04) System Routines for Variables                                                        Page  113
0Current Usings:  (CP,R11) (CV,R12)
0Loc    Object Code    Addr1 Addr2  Stmt Lv Lineno    Source Statement           (Hibal 5, Asmedit 3.3)  HLASM R4.0  2004/03/15 12.56
+___    ______ ____    _____ _____  ____ __ ______    ______ _________
0                                  26382              ¿þþþþþþþþþþþþþþþþþþþþþþþþþþþþþþþþþþþþþþþþþþþþþþþþþþþþþþþþþþþþþþþþþþþþþÜ
                                   26383              Ÿ                                                                     Ÿ
                                   26384              Ÿ                                                                     Ÿ
                                   26385              Ÿ  PRIV_ADM                                                           Ÿ
                                   26386              Ÿ                                                                     Ÿ
                                   26387              Ÿ  SEE COMMENTS AT START OF THIS MODULE                               Ÿ
                                   26388              Ÿ                                                                     Ÿ
                                                      ¾þþþþþþþþþþþþþþþþþþþþþþþþþþþþþþþþþþþþþþþþþþþþþþþþþþþþþþþþþþþþþþþþþþþþþ»
00032BE 50E0 D000/9008_      00000 26389              FNPRVADM PROC  ,
 USING  *,R7
 0032D8 9102 B3BE/47E0_003BE       26428                       IF    CPSFADM,BEGIN
 0032E0 D74F 6000 6000_00000 00000 26443  1                      VRETURN BOOLEAN,TRUE
 USING  VNENTRY,R6
 DROP   VNENTRY,R6
 0032F2                            26482                       END
 0032F2 701E/47F0 7030 032F2 032DE 26486                       ELSE  BEGIN
 0032F6 D74F 6000 6000_00000 00000 26497  1                      VRETURN BOOLEAN,FALSE
 USING  VNENTRY,R6
 DROP   VNENTRY,R6
 003308                            26536                       END
 003308 18D8/9808 D004_            26540                       PEND
 DROP   *,R7
1SYSV     (SYSV4072) (12:56) (15MAR04) System Routines for Variables                                                        Page  114
0Current Usings:  (CP,R11) (CV,R12)
0Loc    Object Code    Addr1 Addr2  Stmt Lv Lineno    Source Statement           (Hibal 5, Asmedit 3.3)  HLASM R4.0  2004/03/15 12.56
+___    ______ ____    _____ _____  ____ __ ______    ______ _________
0                                  26561              ¿þþþþþþþþþþþþþþþþþþþþþþþþþþþþþþþþþþþþþþþþþþþþþþþþþþþþþþþþþþþþþþþþþþþþþÜ
                                   26562              Ÿ                                                                     Ÿ
                                   26563              Ÿ                                                                     Ÿ
                                   26564              Ÿ  PRIV_OPR                                                           Ÿ
                                   26565              Ÿ                                                                     Ÿ
                                   26566              Ÿ  SEE COMMENTS AT START OF THIS MODULE                               Ÿ
                                   26567              Ÿ                                                                     Ÿ
                                                      ¾þþþþþþþþþþþþþþþþþþþþþþþþþþþþþþþþþþþþþþþþþþþþþþþþþþþþþþþþþþþþþþþþþþþþþ»
0003316 50E0 D000/9008_      00000 26568              FNPRVOPR PROC  ,
 USING  *,R7
 003330 9110 B3BE/47E0_003BE       26607                       IF    CPSFOPR,BEGIN
 003338 D74F 6000 6000_00000 00000 26622  1                      VRETURN BOOLEAN,TRUE
 USING  VNENTRY,R6
 DROP   VNENTRY,R6
 00334A                            26661                       END
 00334A 701E/47F0 7030 0334A 03336 26665                       ELSE  BEGIN
 00334E D74F 6000 6000_00000 00000 26676  1                      VRETURN BOOLEAN,FALSE
 USING  VNENTRY,R6
 DROP   VNENTRY,R6
 003360                            26715                       END
 003360 18D8/9808 D004_            26719                       PEND
 DROP   *,R7
1SYSV     (SYSV4072) (12:56) (15MAR04) System Routines for Variables                                                        Page  115
0Current Usings:  (CP,R11) (CV,R12)
0Loc    Object Code    Addr1 Addr2  Stmt Lv Lineno    Source Statement           (Hibal 5, Asmedit 3.3)  HLASM R4.0  2004/03/15 12.56
+___    ______ ____    _____ _____  ____ __ ______    ______ _________
0                                  26740              ¿þþþþþþþþþþþþþþþþþþþþþþþþþþþþþþþþþþþþþþþþþþþþþþþþþþþþþþþþþþþþþþþþþþþþþÜ
                                   26741              Ÿ                                                                     Ÿ
                                   26742              Ÿ                                                                     Ÿ
                                   26743              Ÿ  PRIV_SYS                                                           Ÿ
                                   26744              Ÿ                                                                     Ÿ
                                   26745              Ÿ  SEE COMMENTS AT START OF THIS MODULE                               Ÿ
                                   26746              Ÿ                                                                     Ÿ
                                                      ¾þþþþþþþþþþþþþþþþþþþþþþþþþþþþþþþþþþþþþþþþþþþþþþþþþþþþþþþþþþþþþþþþþþþþþ»
000336E 50E0 D000/9008_      00000 26747              FNPRVSYS PROC  ,
 USING  *,R7
 003388 9120 B3BE/47E0_003BE       26786                       IF    CPSFSPR,BEGIN
 003390 D74F 6000 6000_00000 00000 26801  1                      VRETURN BOOLEAN,TRUE
 USING  VNENTRY,R6
 DROP   VNENTRY,R6
 0033A2                            26840                       END
 0033A2 701E/47F0 7030 033A2 0338E 26844                       ELSE  BEGIN
 0033A6 D74F 6000 6000_00000 00000 26855  1                      VRETURN BOOLEAN,FALSE
 USING  VNENTRY,R6
 DROP   VNENTRY,R6
 0033B8                            26894                       END
 0033B8 18D8/9808 D004_            26898                       PEND
 DROP   *,R7
1SYSV     (SYSV4072) (12:56) (15MAR04) System Routines for Variables                                                        Page  116
0Current Usings:  (CP,R11) (CV,R12)
0Loc    Object Code    Addr1 Addr2  Stmt Lv Lineno    Source Statement           (Hibal 5, Asmedit 3.3)  HLASM R4.0  2004/03/15 12.56
+___    ______ ____    _____ _____  ____ __ ______    ______ _________
0                                  26919              ¿þþþþþþþþþþþþþþþþþþþþþþþþþþþþþþþþþþþþþþþþþþþþþþþþþþþþþþþþþþþþþþþþþþþþþÜ
                                   26920              Ÿ                                                                     Ÿ
                                   26921              Ÿ                                                                     Ÿ
                                   26922              Ÿ  PROGRAM                                                            Ÿ
                                   26923              Ÿ                                                                     Ÿ
                                   26924              Ÿ  SEE COMMENTS AT START OF THIS MODULE                               Ÿ
                                   26925              Ÿ                                                                     Ÿ
                                                      ¾þþþþþþþþþþþþþþþþþþþþþþþþþþþþþþþþþþþþþþþþþþþþþþþþþþþþþþþþþþþþþþþþþþþþþ»
00033C6 50E0 D000/9008_      00000 26926              FNPROG   PROC  ,
 USING  *,R7
 0033E0 4110 B39C/4100_      0039C 26965                       SETMSG CPSVPGM
 0033E8 D607 B39C B39C_0039C 0039C 26979                       IF    ((CPSVPGM,Z),OR,(CPSVPGM,EQ,' ')),'CLEAR R0'
 0033FC D74F 6000 6000_00000 00000 27020                       VRETURN STRING,(R1),(R0)
 USING  VNENTRY,R6
 DROP   VNENTRY,R6
 003418 58E0 72E8/0DEE       036C8 27104                       VTRIM
 00341E 18D8/9808 D004_            27109                       PEND
 DROP   *,R7
1SYSV     (SYSV4072) (12:56) (15MAR04) System Routines for Variables                                                        Page  117
0Current Usings:  (CP,R11) (CV,R12)
0Loc    Object Code    Addr1 Addr2  Stmt Lv Lineno    Source Statement           (Hibal 5, Asmedit 3.3)  HLASM R4.0  2004/03/15 12.56
+___    ______ ____    _____ _____  ____ __ ______    ______ _________
0                                  27130              ¿þþþþþþþþþþþþþþþþþþþþþþþþþþþþþþþþþþþþþþþþþþþþþþþþþþþþþþþþþþþþþþþþþþþþþÜ
                                   27131              Ÿ                                                                     Ÿ
                                   27132              Ÿ  PROJECT                                                            Ÿ
                                   27133              Ÿ                                                                     Ÿ
                                   27134              Ÿ  SEE COMMENTS AT START OF THIS MODULE                               Ÿ
                                   27135              Ÿ                                                                     Ÿ
                                                      ¾þþþþþþþþþþþþþþþþþþþþþþþþþþþþþþþþþþþþþþþþþþþþþþþþþþþþþþþþþþþþþþþþþþþþþ»
000342C 50E0 D000/9008_      00000 27136              FNPROJ   PROC  ,
 USING  *,R7
 003446 D74F 6000 6000_00000 00000 27175                       VRETURN STRING,CPSPROJ
 USING  VNENTRY,R6
 DROP   VNENTRY,R6
 00346A 58E0 7282/0DEE       036C8 27263                       VTRIM
 003470 18D8/9808 D004_            27268                       PEND
 DROP   *,R7
1SYSV     (SYSV4072) (12:56) (15MAR04) System Routines for Variables                                                        Page  118
0Current Usings:  (CP,R11) (CV,R12)
0Loc    Object Code    Addr1 Addr2  Stmt Lv Lineno    Source Statement           (Hibal 5, Asmedit 3.3)  HLASM R4.0  2004/03/15 12.56
+___    ______ ____    _____ _____  ____ __ ______    ______ _________
0                                  27289              ¿þþþþþþþþþþþþþþþþþþþþþþþþþþþþþþþþþþþþþþþþþþþþþþþþþþþþþþþþþþþþþþþþþþþþþÜ
                                   27290              Ÿ                                                                     Ÿ
                                   27291              Ÿ  PVOLUME - VOLUME OF PREFIX DATA SET                                Ÿ
                                   27292              Ÿ                                                                     Ÿ
                                   27293              Ÿ                                                                     Ÿ
                                   27294              Ÿ  NOTE:                                                              Ÿ
                                   27295              Ÿ  IN MODERN TIMES THIS MAY BE HOST NAME,,                            Ÿ
                                   27296              Ÿ  BACKWARDS COMPATABILITY... WE SHOULD                               Ÿ
                                   27297              Ÿ  REDO PREFIX,MEMBER,VOLUME PART OF IT ALL.                          Ÿ
                                   27298              Ÿ  BUT HOW ??  MORE AT 11:00.                                         Ÿ
                                   27299              Ÿ                                                                     Ÿ
                                   27300              Ÿ  SEE COMMENTS AT START OF THIS MODULE                               Ÿ
                                   27301              Ÿ                                                                     Ÿ
                                                      ¾þþþþþþþþþþþþþþþþþþþþþþþþþþþþþþþþþþþþþþþþþþþþþþþþþþþþþþþþþþþþþþþþþþþþþ»
000347E 50E0 D000/9008_      00000 27302              FNPVOL   PROC  ,
 USING  *,R7
 003498 D74F 6000 6000_00000 00000 27341                       VRETURN STRING,CPAHOST,L:CPAHOSTL
 USING  VNENTRY,R6
 DROP   VNENTRY,R6
 0034BC 58E0 7230/0DEE       036C8 27429                       VTRIM
 0034C2 18D8/9808 D004_            27434                       PEND
 DROP   *,R7
1SYSV     (SYSV4072) (12:56) (15MAR04) System Routines for Variables                                                        Page  119
0Current Usings:  (CP,R11) (CV,R12)
0Loc    Object Code    Addr1 Addr2  Stmt Lv Lineno    Source Statement           (Hibal 5, Asmedit 3.3)  HLASM R4.0  2004/03/15 12.56
+___    ______ ____    _____ _____  ____ __ ______    ______ _________
0                                  27455              ¿þþþþþþþþþþþþþþþþþþþþþþþþþþþþþþþþþþþþþþþþþþþþþþþþþþþþþþþþþþþþþþþþþþþþþÜ
                                   27456              Ÿ                                                                     Ÿ
                                   27457              Ÿ  QNAME -- String containing the current server name.                Ÿ
                                   27458              Ÿ                                                                     Ÿ
                                   27459              Ÿ  See comments at the start of this module.                          Ÿ
                                   27460              Ÿ                                                                     Ÿ
                                                      ¾þþþþþþþþþþþþþþþþþþþþþþþþþþþþþþþþþþþþþþþþþþþþþþþþþþþþþþþþþþþþþþþþþþþþþ»
00034D0 50E0 D000/9008_      00000 27461              FNQNAME  PROC  FNWA
 USING  *,R7
 USING  FNWA-(4+36),R8
 0034EA 58E0 7236/0DEE       03720 27511                       VCALL GETQINFO            Get current sevrer info
 0034F0 D74F 6000 6000_00000 00000 27515                       VRETURN STRING,(R1),(R0)  Return current server name
 USING  VNENTRY,R6
 DROP   VNENTRY,R6
 00350C 18D8/9808 D004_            27599                       PEND
 DROP   FNWA-(4+36),R8
 DROP   *,R7
1SYSV     (SYSV4072) (12:56) (15MAR04) System Routines for Variables                                                        Page  120
0Current Usings:  (CP,R11) (CV,R12)
0Loc    Object Code    Addr1 Addr2  Stmt Lv Lineno    Source Statement           (Hibal 5, Asmedit 3.3)  HLASM R4.0  2004/03/15 12.56
+___    ______ ____    _____ _____  ____ __ ______    ______ _________
0                                  27625              ¿þþþþþþþþþþþþþþþþþþþþþþþþþþþþþþþþþþþþþþþþþþþþþþþþþþþþþþþþþþþþþþþþþþþþþÜ
                                   27626              Ÿ                                                                     Ÿ
                                   27627              Ÿ  QNO -- Number containing the current server number.                Ÿ
                                   27628              Ÿ    (From the most recent QOPEN command.)                            Ÿ
                                   27629              Ÿ                                                                     Ÿ
                                   27630              Ÿ  See comments at the start of this module.                          Ÿ
                                   27631              Ÿ                                                                     Ÿ
                                                      ¾þþþþþþþþþþþþþþþþþþþþþþþþþþþþþþþþþþþþþþþþþþþþþþþþþþþþþþþþþþþþþþþþþþþþþ»
000351A 50E0 D000/9008_      00000 27632              FNQNO    PROC
 USING  *,R7
 003534 58E0 71EC/0DEE       03720 27671                       VCALL GETQINFO            Get current server info
 00353A 184F                       27675                       LR    R4,R15              Copy server number
 00353C D74F 6000 6000_00000 00000 27676                       VRETURN INTEGER,(R4)      Return current server number
 USING  VNENTRY,R6
 DROP   VNENTRY,R6
 003556 18D8/9808 D004_            27723                       PEND
 DROP   *,R7
1SYSV     (SYSV4072) (12:56) (15MAR04) System Routines for Variables                                                        Page  121
0Current Usings:  (CP,R11) (CV,R12)
0Loc    Object Code    Addr1 Addr2  Stmt Lv Lineno    Source Statement           (Hibal 5, Asmedit 3.3)  HLASM R4.0  2004/03/15 12.56
+___    ______ ____    _____ _____  ____ __ ______    ______ _________
0                                  27744              ¿þþþþþþþþþþþþþþþþþþþþþþþþþþþþþþþþþþþþþþþþþþþþþþþþþþþþþþþþþþþþþþþþþþþþþÜ
                                   27745              Ÿ                                                                     Ÿ
                                   27746              Ÿ  QUERY_ERRINFO -- String containing any error information from the  Ÿ
                                   27747              Ÿ    last QUERY function executed.                                    Ÿ
                                   27748              Ÿ                                                                     Ÿ
                                   27749              Ÿ  See comments at the start of this module.                          Ÿ
                                   27750              Ÿ                                                                     Ÿ
                                                      ¾þþþþþþþþþþþþþþþþþþþþþþþþþþþþþþþþþþþþþþþþþþþþþþþþþþþþþþþþþþþþþþþþþþþþþ»
0003564 50E0 D000/9008_      00000 27751              FNQERR   PROC  FNWA
 USING  *,R7
 USING  FNWA-(4+36),R8
 00357E 4110 8028/4100_      00000 27801                       SETMSG FNWORK
 003586 4120 712A            036A8 27815                       LA    R2,=CL16'SYS.QUERY_ERRINFO'
 00358A 58E0 718A/0DEE       03708 27816                       VCALL GETDATA             Get variable value
 003590 4780 7018/1B00       03596 27820                       IF    NZ,'CLEAR R0'       Not defined, return null string
 003596 D74F 6000 6000_00000 00000 27840                       VRETURN STRING,(R1),(R0)
 USING  VNENTRY,R6
 DROP   VNENTRY,R6
 0035B2 18D8/9808 D004_            27924                       PEND
 DROP   FNWA-(4+36),R8
 DROP   *,R7
1SYSV     (SYSV4072) (12:56) (15MAR04) System Routines for Variables                                                        Page  122
0Current Usings:  (CP,R11) (CV,R12)
0Loc    Object Code    Addr1 Addr2  Stmt Lv Lineno    Source Statement           (Hibal 5, Asmedit 3.3)  HLASM R4.0  2004/03/15 12.56
+___    ______ ____    _____ _____  ____ __ ______    ______ _________
0                                  27950              ¿þþþþþþþþþþþþþþþþþþþþþþþþþþþþþþþþþþþþþþþþþþþþþþþþþþþþþþþþþþþþþþþþþþþþþÜ
                                   27951              Ÿ                                                                     Ÿ
                                   27952              Ÿ                                                                     Ÿ
                                   27953              Ÿ  RANDOM - RETURN RANDOM VALUE BETWEEN 1.000 AND 0.000               Ÿ
                                   27954              Ÿ                                                                     Ÿ
                                   27955              Ÿ  SEE COMMENTS AT START OF THIS MODULE                               Ÿ
                                   27956              Ÿ                                                                     Ÿ
                                                      ¾þþþþþþþþþþþþþþþþþþþþþþþþþþþþþþþþþþþþþþþþþþþþþþþþþþþþþþþþþþþþþþþþþþþþþ»
00035C0 50E0 D000/9008_      00000 27957              FNRANDOM PROC  ,
 USING  *,R7
 0035DA B205 BC88      00C88       27996                       STCK  CPDOUB
 0035DE 1B00                       27997                       CLEAR R0
 0035E0 1F11/BF17 BC8C             28001                       L3    R1,CPDOUB+4         LEAST SIGNIFICAN BITS
 0035E6 8810 0008            00008 28009                       SRL   R1,8                (BITS THAT ARE ALWAYS ZERO)
 0035EA 5C00 714A            03724 28010                       M     R0,=F'2719'         JUMBLE
 0035EE 5D00 714E            03728 28011                       D     R0,=F'1000'         REM IS BETWEEN 0.000 AND 1.000
 0035F2 D74F 6000 6000_00000 00000 28012                       VRETURN LINENO,(R0)
 USING  VNENTRY,R6
 DROP   VNENTRY,R6
 00360C 18D8/9808 D004_            28059                       PEND
 DROP   *,R7
1SYSV     (SYSV4072) (12:56) (15MAR04) System Routines for Variables                                                        Page  123
0Current Usings:  (CP,R11) (CV,R12)
0Loc    Object Code    Addr1 Addr2  Stmt Lv Lineno    Source Statement           (Hibal 5, Asmedit 3.3)  HLASM R4.0  2004/03/15 12.56
+___    ______ ____    _____ _____  ____ __ ______    ______ _________
0                                  28080              ¿þþþþþþþþþþþþþþþþþþþþþþþþþþþþþþþþþþþþþþþþþþþþþþþþþþþþþþþþþþþþþþþþþþþþþÜ
                                   28081              Ÿ                                                                     Ÿ
                                   28082              Ÿ  RC_UPLOAD -- String containing the return code from the last       Ÿ
                                   28083              Ÿ    UPLOAD command.                                                  Ÿ
                                   28084              Ÿ                                                                     Ÿ
                                   28085              Ÿ  See comments at the start of this module.                          Ÿ
                                   28086              Ÿ                                                                     Ÿ
                                                      ¾þþþþþþþþþþþþþþþþþþþþþþþþþþþþþþþþþþþþþþþþþþþþþþþþþþþþþþþþþþþþþþþþþþþþþ»
000361A 50E0 D000/9008_      00000 28087              FNRCUPL  PROC  FNWA
 USING  *,R7
 USING  FNWA-(4+36),R8
 003634 4110 8028/4100_      00000 28137                       SETMSG FNWORK
 00363C 4120 7084            036B8 28151                       LA    R2,=CL16'SYS.RC_UPLOAD'
 003640 58E0 70D4/0DEE       03708 28152                       VCALL GETDATA             Get variable value
 003646 4780 7018/1B00       0364C 28156                       IF    NZ,'CLEAR R0'       Not defined, return null string
 00364C D74F 6000 6000_00000 00000 28176                       VRETURN STRING,(R1),(R0)
 USING  VNENTRY,R6
 DROP   VNENTRY,R6
 003668 18D8/9808 D004_            28260                       PEND
 DROP   FNWA-(4+36),R8
 DROP   *,R7
                                   28285
                                   28286                       QLTORG
1SYSV     (SYSV4072) (12:56) (15MAR04) System Routines for Variables                                                        Page  124
0Current Usings:  (CP,R11) (CV,R12)
0Loc    Object Code    Addr1 Addr2  Stmt Lv Lineno    Source Statement           (Hibal 5, Asmedit 3.3)  HLASM R4.0  2004/03/15 12.56
+___    ______ ____    _____ _____  ____ __ ______    ______ _________
0                                  28324              ¿þþþþþþþþþþþþþþþþþþþþþþþþþþþþþþþþþþþþþþþþþþþþþþþþþþþþþþþþþþþþþþþþþþþþþÜ
                                   28325              Ÿ                                                                     Ÿ
                                   28326              Ÿ                                                                     Ÿ
                                   28327              Ÿ  RETURN - RETURN VALUE                                              Ÿ
                                   28328              Ÿ                                                                     Ÿ
                                   28329              Ÿ  SEE COMMENTS AT START OF THIS MODULE                               Ÿ
                                   28330              Ÿ                                                                     Ÿ
                                                      ¾þþþþþþþþþþþþþþþþþþþþþþþþþþþþþþþþþþþþþþþþþþþþþþþþþþþþþþþþþþþþþþþþþþþþþ»
0003770 50E0 D000/9008_      00000 28331              FNRETURN PROC  ,
 USING  *,R7
 00378A D74F 6000 6000_00000 00000 28370                       VRETURN LINENO,L:CPRETURN
 USING  VNENTRY,R6
 DROP   VNENTRY,R6
 0037A6 18D8/9808 D004_            28417                       PEND
 DROP   *,R7
1SYSV     (SYSV4072) (12:56) (15MAR04) System Routines for Variables                                                        Page  125
0Current Usings:  (CP,R11) (CV,R12)
0Loc    Object Code    Addr1 Addr2  Stmt Lv Lineno    Source Statement           (Hibal 5, Asmedit 3.3)  HLASM R4.0  2004/03/15 12.56
+___    ______ ____    _____ _____  ____ __ ______    ______ _________
0                                  28438              ¿þþþþþþþþþþþþþþþþþþþþþþþþþþþþþþþþþþþþþþþþþþþþþþþþþþþþþþþþþþþþþþþþþþþþþÜ
                                   28439              Ÿ                                                                     Ÿ
                                   28440              Ÿ  SAM_DIALOG -- SAM_DIALOG variable.                                 Ÿ
                                   28441              Ÿ                                                                     Ÿ
                                                      ¾þþþþþþþþþþþþþþþþþþþþþþþþþþþþþþþþþþþþþþþþþþþþþþþþþþþþþþþþþþþþþþþþþþþþþ»
00037B4 50E0 D000/9008_      00000 28442              FNSAMDIA PROC  ,
 USING  *,R7
 0037CE D74F 6000 6000_00000 00000 28481                       VRETURN INTEGER,LH:CPSAMDV  Dialog support version
 USING  VNENTRY,R6
 DROP   VNENTRY,R6
 0037EA 18D8/9808 D004_            28527                       PEND
 DROP   *,R7
-                                  28548              ¿þþþþþþþþþþþþþþþþþþþþþþþþþþþþþþþþþþþþþþþþþþþþþþþþþþþþþþþþþþþþþþþþþþþþþÜ
                                   28549              Ÿ                                                                     Ÿ
                                   28550              Ÿ  SAM_OS -- SAM_OS variable.                                         Ÿ
                                   28551              Ÿ                                                                     Ÿ
                                                      ¾þþþþþþþþþþþþþþþþþþþþþþþþþþþþþþþþþþþþþþþþþþþþþþþþþþþþþþþþþþþþþþþþþþþþþ»
00037F8 50E0 D000/9008_      00000 28552              FNSAMOS  PROC
 USING  *,R7
 003812 4110 BA43/4100_      00A43 28591                       SETMSG CPSAMOS
 00381A D60F BA43 BA43_00A43 00A43 28605                       IF    (CPSAMOS,Z),'CLEAR R0'
 003826 D74F 6000 6000_00000 00000 28630                       VRETURN STRING,(R1),(R0)
 USING  VNENTRY,R6
 DROP   VNENTRY,R6
 003842 58E0 71BE/0DEE       039D0 28714                       VTRIM
 003848 18D8/9808 D004_            28719                       PEND
 DROP   *,R7
-                                  28740              ¿þþþþþþþþþþþþþþþþþþþþþþþþþþþþþþþþþþþþþþþþþþþþþþþþþþþþþþþþþþþþþþþþþþþþþÜ
                                   28741              Ÿ                                                                     Ÿ
                                   28742              Ÿ  SAM_FONT -- SAM_FONT variable.                                     Ÿ
                                   28743              Ÿ                                                                     Ÿ
                                                      ¾þþþþþþþþþþþþþþþþþþþþþþþþþþþþþþþþþþþþþþþþþþþþþþþþþþþþþþþþþþþþþþþþþþþþþ»
0003856 50E0 D000/9008_      00000 28744              FNSAMFNT PROC
 USING  *,R7
 003870 4110 BA73/4100_      00A73 28783                       SETMSG CPSAMFONT
 003878 D60F BA73 BA73_00A73 00A73 28797                       IF    (CPSAMFONT,Z),'CLEAR R0'
 003884 D74F 6000 6000_00000 00000 28822                       VRETURN STRING,(R1),(R0)
 USING  VNENTRY,R6
 DROP   VNENTRY,R6
 0038A0 58E0 7160/0DEE       039D0 28906                       VTRIM
 0038A6 18D8/9808 D004_            28911                       PEND
 DROP   *,R7
-                                  28932              ¿þþþþþþþþþþþþþþþþþþþþþþþþþþþþþþþþþþþþþþþþþþþþþþþþþþþþþþþþþþþþþþþþþþþþþÜ
                                   28933              Ÿ                                                                     Ÿ
                                   28934              Ÿ  SAM_TYPE -- SAM_TYPE variable.                                     Ÿ
1SYSV     (SYSV4072) (12:56) (15MAR04) System Routines for Variables                                                        Page  126
0Current Usings:  (CP,R11) (CV,R12)
0Loc    Object Code    Addr1 Addr2  Stmt Lv Lineno    Source Statement           (Hibal 5, Asmedit 3.3)  HLASM R4.0  2004/03/15 12.56
+___    ______ ____    _____ _____  ____ __ ______    ______ _________
0                                  28935              Ÿ                                                                     Ÿ
                                                      ¾þþþþþþþþþþþþþþþþþþþþþþþþþþþþþþþþþþþþþþþþþþþþþþþþþþþþþþþþþþþþþþþþþþþþþ»
00038B4 50E0 D000/9008_      00000 28936              FNSAMTYP PROC  ,
 USING  *,R7
 0038CE 4110 BA23/4100_      00A23 28975                       SETMSG CPSAMTYP
 0038D6 D60F BA23 BA23_00A23 00A23 28989                       IF    (CPSAMTYP,Z),'CLEAR R0'
 0038E2 D74F 6000 6000_00000 00000 29014                       VRETURN STRING,(R1),(R0)
 USING  VNENTRY,R6
 DROP   VNENTRY,R6
 0038FE 58E0 7102/0DEE       039D0 29098                       VTRIM
 003904 18D8/9808 D004_            29103                       PEND
 DROP   *,R7
-                                  29124              ¿þþþþþþþþþþþþþþþþþþþþþþþþþþþþþþþþþþþþþþþþþþþþþþþþþþþþþþþþþþþþþþþþþþþþþÜ
                                   29125              Ÿ                                                                     Ÿ
                                   29126              Ÿ  SAM_VERSION -- SAM_VERSION variable.                               Ÿ
                                   29127              Ÿ                                                                     Ÿ
                                                      ¾þþþþþþþþþþþþþþþþþþþþþþþþþþþþþþþþþþþþþþþþþþþþþþþþþþþþþþþþþþþþþþþþþþþþþ»
0003912 50E0 D000/9008_      00000 29128              FNSAMVER PROC  ,
 USING  *,R7
 00392C 4110 BA33/4100_      00A33 29167                       SETMSG CPSAMVER
 003934 D60F BA33 BA33_00A33 00A33 29181                       IF    (CPSAMVER,Z),'CLEAR R0'
 003940 D74F 6000 6000_00000 00000 29206                       VRETURN STRING,(R1),(R0)
 USING  VNENTRY,R6
 DROP   VNENTRY,R6
 00395C 58E0 70A4/0DEE       039D0 29290                       VTRIM
 003962 18D8/9808 D004_            29295                       PEND
 DROP   *,R7
-                                  29316              ¿þþþþþþþþþþþþþþþþþþþþþþþþþþþþþþþþþþþþþþþþþþþþþþþþþþþþþþþþþþþþþþþþþþþþþÜ
                                   29317              Ÿ                                                                     Ÿ
                                   29318              Ÿ  SAMSON -- SAMSON variable.                                         Ÿ
                                   29319              Ÿ                                                                     Ÿ
                                                      ¾þþþþþþþþþþþþþþþþþþþþþþþþþþþþþþþþþþþþþþþþþþþþþþþþþþþþþþþþþþþþþþþþþþþþþ»
0003970 50E0 D000/9008_      00000 29320              FNSAMSON PROC  ,
 USING  *,R7
 00398A 9140 B3EA/47E0_003EA       29359                       IF    CPSFSAM,'VRETURN BOOLEAN,TRUE'
 USING  VNENTRY,R6
 DROP   VNENTRY,R6
 0039A4 701E/47F0 7030_039A4 03990 29418                       ELSE  'VRETURN BOOLEAN,FALSE'
 USING  VNENTRY,R6
 DROP   VNENTRY,R6
 0039BA 18D8/9808 D004_            29473                       PEND
 DROP   *,R7
                                   29493
                                   29494                       QLTORG
1SYSV     (SYSV4072) (12:56) (15MAR04) System Routines for Variables                                                        Page  127
0Current Usings:  (CP,R11) (CV,R12)
0Loc    Object Code    Addr1 Addr2  Stmt Lv Lineno    Source Statement           (Hibal 5, Asmedit 3.3)  HLASM R4.0  2004/03/15 12.56
+___    ______ ____    _____ _____  ____ __ ______    ______ _________
0                                  29512              ¿þþþþþþþþþþþþþþþþþþþþþþþþþþþþþþþþþþþþþþþþþþþþþþþþþþþþþþþþþþþþþþþþþþþþþÜ
                                   29513              Ÿ                                                                     Ÿ
                                   29514              Ÿ  SES_NUMBER --                                                      Ÿ
                                   29515              Ÿ                                                                     Ÿ
                                   29516              Ÿ  SEE COMMENTS AT START OF THIS MODULE                               Ÿ
                                   29517              Ÿ                                                                     Ÿ
                                   29518              Ÿ  NOTE:                                                              Ÿ
                                   29519              Ÿ  SESSION NUMBERS ARE NOT UNIQUE, THEY ARE NOT                       Ÿ
                                   29520              Ÿ  NEEDED BY WYLBUR THEY ARE GOING AWAY... SO BE                      Ÿ
                                   29521              Ÿ  CAREFUL.  DO NOT USE UNLESS  YOU ARE WJB.                          Ÿ
                                   29522              Ÿ                                                                     Ÿ
                                                      ¾þþþþþþþþþþþþþþþþþþþþþþþþþþþþþþþþþþþþþþþþþþþþþþþþþþþþþþþþþþþþþþþþþþþþþ»
0003A04 50E0 D000/9008_      00000 29523              FNSESNUM PROC  ,
 USING  *,R7
 003A1E 1F33/BF33 B3B9             29562                       L2    R3,CPSANO
 003A24 D74F 6000 6000_00000 00000 29570                       VRETURN INTEGER,(R3)
 USING  VNENTRY,R6
 DROP   VNENTRY,R6
 003A3E 18D8/9808 D004_            29617                       PEND
 DROP   *,R7
1SYSV     (SYSV4072) (12:56) (15MAR04) System Routines for Variables                                                        Page  128
0Current Usings:  (CP,R11) (CV,R12)
0Loc    Object Code    Addr1 Addr2  Stmt Lv Lineno    Source Statement           (Hibal 5, Asmedit 3.3)  HLASM R4.0  2004/03/15 12.56
+___    ______ ____    _____ _____  ____ __ ______    ______ _________
0                                  29638              ¿þþþþþþþþþþþþþþþþþþþþþþþþþþþþþþþþþþþþþþþþþþþþþþþþþþþþþþþþþþþþþþþþþþþþþÜ
                                   29639              Ÿ                                                                     Ÿ
                                   29640              Ÿ  SES_TAG -- "Session tag".                                          Ÿ
                                   29641              Ÿ                                                                     Ÿ
                                   29642              Ÿ  SEE COMMENTS AT START OF THIS MODULE                               Ÿ
                                   29643              Ÿ                                                                     Ÿ
                                                      ¾þþþþþþþþþþþþþþþþþþþþþþþþþþþþþþþþþþþþþþþþþþþþþþþþþþþþþþþþþþþþþþþþþþþþþ»
0003A4C 50E0 D000/9008_      00000 29644              FNSESTAG PROC  ,
 USING  *,R7
 003A66 5830 C1C8            001C8 29683                       L     R3,CVCURJCB
 USING  JCB,R3                     29684                       WITH  (JCB,R3)
 003A6A 5820 3038            00038 29697                       L     R2,JCBSINP
 USING  SIN,R2                     29698                       WITH  (SIN,R2)
                                   29711
 003A6E D502 7590 2000_03FF6 00000 29712                       IF    (SIN,EQ,'SIN'),'SETMSG SINSTAG'
 003A80 701E/47F0 7026_03A80 03A76 29748                       ELSE  'SETMSG "???"'
                                   29768
 003A8C 9500 1000/4770_00000       29769                       IF    (@R1,EQ,X'00'),'CLEAR R0'  (Nulls)
 003A96 D74F 6000 6000_00000 00000 29794                       VRETURN STRING,(R1),(R0)
 USING  VNENTRY,R6
 DROP   VNENTRY,R6
 003AB2 58E0 753E/0DEE       03FA4 29878                       VTRIM
 003AB8 18D8/9808 D004_            29883                       PEND
 DROP   SIN,R2
 DROP   JCB,R3
 DROP   *,R7
1SYSV     (SYSV4072) (12:56) (15MAR04) System Routines for Variables                                                        Page  129
0Current Usings:  (CP,R11) (CV,R12)
0Loc    Object Code    Addr1 Addr2  Stmt Lv Lineno    Source Statement           (Hibal 5, Asmedit 3.3)  HLASM R4.0  2004/03/15 12.56
+___    ______ ____    _____ _____  ____ __ ______    ______ _________
0                                  29914              ¿þþþþþþþþþþþþþþþþþþþþþþþþþþþþþþþþþþþþþþþþþþþþþþþþþþþþþþþþþþþþþþþþþþþþþÜ
                                   29915              Ÿ                                                                     Ÿ
                                   29916              Ÿ  SKIP CHARACTER                                                     Ÿ
                                   29917              Ÿ                                                                     Ÿ
                                   29918              Ÿ  SEE COMMENTS AT START OF THIS MODULE                               Ÿ
                                   29919              Ÿ                                                                     Ÿ
                                                      ¾þþþþþþþþþþþþþþþþþþþþþþþþþþþþþþþþþþþþþþþþþþþþþþþþþþþþþþþþþþþþþþþþþþþþþ»
0003AC6 50E0 D000/9008_      00000 29920              FNSKIP   PROC  ,
 USING  *,R7
 003AE0 D74F 6000 6000_00000 00000 29959                       VRETURN STRING,CPSKIP
 USING  VNENTRY,R6
 DROP   VNENTRY,R6
 003B04 58E0 74C4/0DEE       03FA4 30047                       VTRIM
 003B0A 18D8/9808 D004_            30052                       PEND
 DROP   *,R7
1SYSV     (SYSV4072) (12:56) (15MAR04) System Routines for Variables                                                        Page  130
0Current Usings:  (CP,R11) (CV,R12)
0Loc    Object Code    Addr1 Addr2  Stmt Lv Lineno    Source Statement           (Hibal 5, Asmedit 3.3)  HLASM R4.0  2004/03/15 12.56
+___    ______ ____    _____ _____  ____ __ ______    ______ _________
0                                  30073              ¿þþþþþþþþþþþþþþþþþþþþþþþþþþþþþþþþþþþþþþþþþþþþþþþþþþþþþþþþþþþþþþþþþþþþþÜ
                                   30074              Ÿ                                                                     Ÿ
                                   30075              Ÿ  SOF -- Return source of funds and accounts receivable codes.       Ÿ
                                   30076              Ÿ                                                                     Ÿ
                                   30077              Ÿ  SEE COMMENTS AT START OF THIS MODULE                               Ÿ
                                   30078              Ÿ                                                                     Ÿ
                                                      ¾þþþþþþþþþþþþþþþþþþþþþþþþþþþþþþþþþþþþþþþþþþþþþþþþþþþþþþþþþþþþþþþþþþþþþ»
0003B18 50E0 D000/9008_      00000 30079              FNSOF    PROC  ,
 USING  *,R7
 003B32 D74F 6000 6000_00000 00000 30118                       VRETURN STRING,CPSOF2
 USING  VNENTRY,R6
 DROP   VNENTRY,R6
 003B56 18D8/9808 D004_            30206                       PEND
 DROP   *,R7
1SYSV     (SYSV4072) (12:56) (15MAR04) System Routines for Variables                                                        Page  131
0Current Usings:  (CP,R11) (CV,R12)
0Loc    Object Code    Addr1 Addr2  Stmt Lv Lineno    Source Statement           (Hibal 5, Asmedit 3.3)  HLASM R4.0  2004/03/15 12.56
+___    ______ ____    _____ _____  ____ __ ______    ______ _________
0                                  30227              ¿þþþþþþþþþþþþþþþþþþþþþþþþþþþþþþþþþþþþþþþþþþþþþþþþþþþþþþþþþþþþþþþþþþþþþÜ
                                   30228              Ÿ                                                                     Ÿ
                                   30229              Ÿ                                                                     Ÿ
                                   30230              Ÿ  SUBGROUP                                                           Ÿ
                                   30231              Ÿ                                                                     Ÿ
                                   30232              Ÿ  SEE COMMENTS AT START OF THIS MODULE                               Ÿ
                                   30233              Ÿ                                                                     Ÿ
                                                      ¾þþþþþþþþþþþþþþþþþþþþþþþþþþþþþþþþþþþþþþþþþþþþþþþþþþþþþþþþþþþþþþþþþþþþþ»
0003B64 50E0 D000/9008_      00000 30234              FNSUBGRO PROC  ,                   SUBGROUP IS SAME AS PROJECT ID
 USING  *,R7
 003B7E 58E0 742A/0DEE       03FA8 30273                       ACALL FNPROJ
 003B84 18D8/9808 D004_            30277                       PEND
 DROP   *,R7
1SYSV     (SYSV4072) (12:56) (15MAR04) System Routines for Variables                                                        Page  132
0Current Usings:  (CP,R11) (CV,R12)
0Loc    Object Code    Addr1 Addr2  Stmt Lv Lineno    Source Statement           (Hibal 5, Asmedit 3.3)  HLASM R4.0  2004/03/15 12.56
+___    ______ ____    _____ _____  ____ __ ______    ______ _________
0                                  30298              ¿þþþþþþþþþþþþþþþþþþþþþþþþþþþþþþþþþþþþþþþþþþþþþþþþþþþþþþþþþþþþþþþþþþþþþÜ
                                   30299              Ÿ                                                                     Ÿ
                                   30300              Ÿ                                                                     Ÿ
                                   30301              Ÿ  SYSTEM                                                             Ÿ
                                   30302              Ÿ                                                                     Ÿ
                                   30303              Ÿ  SEE COMMENTS AT START OF THIS MODULE                               Ÿ
                                   30304              Ÿ                                                                     Ÿ
                                                      ¾þþþþþþþþþþþþþþþþþþþþþþþþþþþþþþþþþþþþþþþþþþþþþþþþþþþþþþþþþþþþþþþþþþþþþ»
0003B92 50E0 D000/9008_      00000 30305              FNSYSTEM PROC  ,
 USING  *,R7
                                   30344                       AIF   (&$PCODE).NEWSYS
 003BAC 4110 7450/4100_      03FFC 30345                       SETMSG 'MVS'               Assume MVS
                                   30349
 003BB4 5820 0010            00010 30350                       L     R2,CVTPTR
 USING  CVT,R2                     30351                       WITH  (CVT,R2),BEGIN
 003BB8 9180 2074/47E0_00074       30365  1                      IF    CVTDCB.CVTMVSE,BEGIN  XA or ESA...
 003BC0 4110 7453/4100_      03FFF 30381  2                        SETMSG 'MVS/ESA'           Assume ESA
 003BC8 9593 2074/4770_00074       30385  2                        IF    (CVTDCB,EQ,X'93'),'SETMSG "MVS/XA"'  XA
 003BD8                            30411  1                      END
 DROP   CVT,R2                     30415                       END
                                   30423                       AGO   .ENDSYS
                                   30424              .ENDSYS  ANOP
 003BD8 D74F 6000 6000_00000 00000 30425                       VRETURN STRING,(R1),(R0)
 USING  VNENTRY,R6
 DROP   VNENTRY,R6
 003BF4 18D8/9808 D004_            30509                       PEND
 DROP   *,R7
1SYSV     (SYSV4072) (12:56) (15MAR04) System Routines for Variables                                                        Page  133
0Current Usings:  (CP,R11) (CV,R12)
0Loc    Object Code    Addr1 Addr2  Stmt Lv Lineno    Source Statement           (Hibal 5, Asmedit 3.3)  HLASM R4.0  2004/03/15 12.56
+___    ______ ____    _____ _____  ____ __ ______    ______ _________
0                                  30530              ¿þþþþþþþþþþþþþþþþþþþþþþþþþþþþþþþþþþþþþþþþþþþþþþþþþþþþþþþþþþþþþþþþþþþþþÜ
                                   30531              Ÿ                                                                     Ÿ
                                   30532              Ÿ  TCHARS - TERMINAL CHARACTER SET                                    Ÿ
                                   30533              Ÿ                                                                     Ÿ
                                   30534              Ÿ  SEE COMMENTS AT START OF THIS MODULE                               Ÿ
                                   30535              Ÿ                                                                     Ÿ
                                                      ¾þþþþþþþþþþþþþþþþþþþþþþþþþþþþþþþþþþþþþþþþþþþþþþþþþþþþþþþþþþþþþþþþþþþþþ»
0003C02 50E0 D000/9008_      00000 30536              FNTCHARS PROC  ,
 USING  *,R7
 003C1C 4110 B3FE/4100_      003FE 30575                       SETMSG CPSCHAR
 003C24 D607 B3FE B3FE_003FE 003FE 30589                       IF    (CPSCHAR,Z),'CLEAR R0'
 003C30 D74F 6000 6000_00000 00000 30614                       VRETURN STRING,(R1),(R0)
 USING  VNENTRY,R6
 DROP   VNENTRY,R6
 003C4C 58E0 7388/0DEE       03FA4 30698                       VTRIM
 003C52 18D8/9808 D004_            30703                       PEND
 DROP   *,R7
1SYSV     (SYSV4072) (12:56) (15MAR04) System Routines for Variables                                                        Page  134
0Current Usings:  (CP,R11) (CV,R12)
0Loc    Object Code    Addr1 Addr2  Stmt Lv Lineno    Source Statement           (Hibal 5, Asmedit 3.3)  HLASM R4.0  2004/03/15 12.56
+___    ______ ____    _____ _____  ____ __ ______    ______ _________
0                                  30724              ¿þþþþþþþþþþþþþþþþþþþþþþþþþþþþþþþþþþþþþþþþþþþþþþþþþþþþþþþþþþþþþþþþþþþþþÜ
                                   30725              Ÿ                                                                     Ÿ
                                   30726              Ÿ  TCLASS - TERMINAL CLASS                                            Ÿ
                                   30727              Ÿ                                                                     Ÿ
                                   30728              Ÿ  SEE COMMENTS AT START OF THIS MODULE                               Ÿ
                                   30729              Ÿ                                                                     Ÿ
                                                      ¾þþþþþþþþþþþþþþþþþþþþþþþþþþþþþþþþþþþþþþþþþþþþþþþþþþþþþþþþþþþþþþþþþþþþþ»
0003C60 50E0 D000/9008_      00000 30730              FNTCLASS PROC  ,
 USING  *,R7
 003C7A D74F 6000 6000_00000 00000 30769                       VRETURN STRING,CPSTCLS
 USING  VNENTRY,R6
 DROP   VNENTRY,R6
 003C9E 58E0 732A/0DEE       03FA4 30857                       VTRIM
 003CA4 18D8/9808 D004_            30862                       PEND
 DROP   *,R7
1SYSV     (SYSV4072) (12:56) (15MAR04) System Routines for Variables                                                        Page  135
0Current Usings:  (CP,R11) (CV,R12)
0Loc    Object Code    Addr1 Addr2  Stmt Lv Lineno    Source Statement           (Hibal 5, Asmedit 3.3)  HLASM R4.0  2004/03/15 12.56
+___    ______ ____    _____ _____  ____ __ ______    ______ _________
0                                  30883              ¿þþþþþþþþþþþþþþþþþþþþþþþþþþþþþþþþþþþþþþþþþþþþþþþþþþþþþþþþþþþþþþþþþþþþþÜ
                                   30884              Ÿ                                                                     Ÿ
                                   30885              Ÿ  TERMINAL ID                                                        Ÿ
                                   30886              Ÿ                                                                     Ÿ
                                   30887              Ÿ  SEE COMMENTS AT START OF THIS MODULE                               Ÿ
                                   30888              Ÿ                                                                     Ÿ
                                                      ¾þþþþþþþþþþþþþþþþþþþþþþþþþþþþþþþþþþþþþþþþþþþþþþþþþþþþþþþþþþþþþþþþþþþþþ»
0003CB2 50E0 D000/9008_      00000 30889              FNTERM   PROC
 USING  *,R7
 003CCC D74F 6000 6000_00000 00000 30928                       VRETURN STRING,CPSTID
 USING  VNENTRY,R6
 DROP   VNENTRY,R6
 003CF0 58E0 72D8/0DEE       03FA4 31016                       VTRIM
 003CF6 18D8/9808 D004_            31021                       PEND
 DROP   *,R7
                                   31041              ¿þþþþþþþþþþþþþþþþþþþþþþþþþþþþþþþþþþþþþþþþþþþþþþþþþþþþþþþþþþþþþþþþþþþþþÜ
                                   31042              Ÿ                                                                     Ÿ
                                   31043              Ÿ  THEIGHT -- Terminal (actual) height.                               Ÿ
                                   31044              Ÿ                                                                     Ÿ
                                   31045              Ÿ  SEE COMMENTS AT START OF THIS MODULE                               Ÿ
                                   31046              Ÿ                                                                     Ÿ
                                                      ¾þþþþþþþþþþþþþþþþþþþþþþþþþþþþþþþþþþþþþþþþþþþþþþþþþþþþþþþþþþþþþþþþþþþþþ»
0003D04 50E0 D000/9008_      00000 31047              FNTHEIGHT PROC
 USING  *,R7
 003D1E D74F 6000 6000_00000 00000 31086                       VRETURN INTEGER,LH:CPSHEI
 USING  VNENTRY,R6
 DROP   VNENTRY,R6
 003D3A 18D8/9808 D004_            31132                       PEND
 DROP   *,R7
1SYSV     (SYSV4072) (12:56) (15MAR04) System Routines for Variables                                                        Page  136
0Current Usings:  (CP,R11) (CV,R12)
0Loc    Object Code    Addr1 Addr2  Stmt Lv Lineno    Source Statement           (Hibal 5, Asmedit 3.3)  HLASM R4.0  2004/03/15 12.56
+___    ______ ____    _____ _____  ____ __ ______    ______ _________
0                                  31153              ¿þþþþþþþþþþþþþþþþþþþþþþþþþþþþþþþþþþþþþþþþþþþþþþþþþþþþþþþþþþþþþþþþþþþþþÜ
                                   31154              Ÿ                                                                     Ÿ
                                   31155              Ÿ  TIME                                                               Ÿ
                                   31156              Ÿ                                                                     Ÿ
                                   31157              Ÿ  SEE COMMENTS AT START OF THIS MODULE                               Ÿ
                                   31158              Ÿ                                                                     Ÿ
                                                      ¾þþþþþþþþþþþþþþþþþþþþþþþþþþþþþþþþþþþþþþþþþþþþþþþþþþþþþþþþþþþþþþþþþþþþþ»
0003D48 50E0 D000/9008_      00000 31159              FNTIME   PROC  ,
 USING  *,R7
 003D62 18FD/41D0 D100             31198                       XPUSH  ,,MAXSTRLN,PTR=R15
 003D68 58E0 724A/0DEE       03FAC 31201                       VCALL LOCALTOD
 003D6E 58E0 724E/0DEE       03FB0 31205                       VCALL FMTTIME             IN CR MODULE
 003D74 D74F 6000 6000_00000 00000 31209                       VRETURN STRING,(R1),(R0)
 USING  VNENTRY,R6
 DROP   VNENTRY,R6
 003D90 4BD0 7290            03FF2 31293                       XPOP  ,,MAXSTRLN
 003D94 18D8/9808 D004_            31295                       PEND
 DROP   *,R7
1SYSV     (SYSV4072) (12:56) (15MAR04) System Routines for Variables                                                        Page  137
0Current Usings:  (CP,R11) (CV,R12)
0Loc    Object Code    Addr1 Addr2  Stmt Lv Lineno    Source Statement           (Hibal 5, Asmedit 3.3)  HLASM R4.0  2004/03/15 12.56
+___    ______ ____    _____ _____  ____ __ ______    ______ _________
0                                  31316              ¿þþþþþþþþþþþþþþþþþþþþþþþþþþþþþþþþþþþþþþþþþþþþþþþþþþþþþþþþþþþþþþþþþþþþþÜ
                                   31317              Ÿ                                                                     Ÿ
                                   31318              Ÿ  TIMEBIN - NUMBER OF SECONDS SINCE MIDNIGHT                         Ÿ
                                   31319              Ÿ                                                                     Ÿ
                                   31320              Ÿ  SEE COMMENTS AT START OF THIS MODULE                               Ÿ
                                   31321              Ÿ                                                                     Ÿ
                                                      ¾þþþþþþþþþþþþþþþþþþþþþþþþþþþþþþþþþþþþþþþþþþþþþþþþþþþþþþþþþþþþþþþþþþþþþ»
0003DA2 50E0 D000/9008_      00000 31322              FNTIMEB  PROC  ,
 USING  *,R7
 003DBC 58E0 71F0/0DEE       03FAC 31361                       VCALL LOCALTOD
 003DC2 58E0 71F8/0DEE       03FB4 31365                       VCALL TIMEDATE            IN CR MODULE
 003DC8 4C00 7238            03FF4 31369                       MH    R0,=H'10'
 003DCC D74F 6000 6000_00000 00000 31370                       VRETURN LINENO,(R0)
 USING  VNENTRY,R6
 DROP   VNENTRY,R6
 003DE6 18D8/9808 D004_            31417                       PEND
 DROP   *,R7
1SYSV     (SYSV4072) (12:56) (15MAR04) System Routines for Variables                                                        Page  138
0Current Usings:  (CP,R11) (CV,R12)
0Loc    Object Code    Addr1 Addr2  Stmt Lv Lineno    Source Statement           (Hibal 5, Asmedit 3.3)  HLASM R4.0  2004/03/15 12.56
+___    ______ ____    _____ _____  ____ __ ______    ______ _________
0                                  31438              ¿þþþþþþþþþþþþþþþþþþþþþþþþþþþþþþþþþþþþþþþþþþþþþþþþþþþþþþþþþþþþþþþþþþþþþÜ
                                   31439              Ÿ                                                                     Ÿ
                                   31440              Ÿ  TIMEBLOCK -- Returns the time-block (DAY, EVENING, NIGHT, etc.)    Ÿ
                                   31441              Ÿ                                                                     Ÿ
                                                      ¾þþþþþþþþþþþþþþþþþþþþþþþþþþþþþþþþþþþþþþþþþþþþþþþþþþþþþþþþþþþþþþþþþþþþþ»
0003DF4 50E0 D000/9008_      00000 31442              FNTMBLK  PROC  ,
 USING  *,R7
 003E0E 4110 71EB/4100_      03FF9 31481                       SETMSG '???'               Assume unknown time-block
                                   31485                       AIF   (&$PCODE).NOTMBLK
 003E16 5820 0010            00010 31486                       L     R2,CVTPTR           OS CVT
 USING  CVT,R2                     31487                       WITH  (CVT,R2),BEGIN
 003E1A 5830 20CC/1233       000CC 31501  1                      LT    R3,CVTUSER          User CVT (aka SCIPCVT)
 003E20 4780 7074            03E82 31505  1                      IF    NZ,BEGIN
 USING  USERCVT,R3                 31516  2                        WITH  (USERCVT,R3)
 003E24 D503 71AE 3000_03FBC 00000 31529  2                        IF    (USERCVT,NE,'SCIP'),EXIT
 003E2E 1FFF/43F0 300F             31549  2                        LC    R15,USEBLOCK        Time block
 003E34 12FF/4770 7034_            31556  2                        IF    (R15,Z),'SETMSG "DAY"'
 003E42 59F0 71B2/4770_      03FC0 31579  2                        IF    (R15,EQ,1),'SETMSG "EVENING"'
 003E52 59F0 71B6/4770_      03FC4 31605  2                        IF    (R15,EQ,2),'SETMSG "NIGHT"'
 003E62 59F0 71BA/4770_      03FC8 31631  2                        IF    (R15,EQ,3),'SETMSG "WEEKEND"'
 003E72 59F0 71BE/4770_      03FCC 31657  2                        IF    (R15,EQ,4),'SETMSG "PEAK"'
 DROP   USERCVT,R3                 31683  1                      END
 DROP   CVT,R2                     31692                       END
                                   31700              .NOTMBLK ANOP
 003E82 D74F 6000 6000_00000 00000 31701                       VRETURN STRING,(R1),(R0)
 USING  VNENTRY,R6
 DROP   VNENTRY,R6
                                   31785
 003E9E 18D8/9808 D004_            31786                       PEND
 DROP   *,R7
1SYSV     (SYSV4072) (12:56) (15MAR04) System Routines for Variables                                                        Page  139
0Current Usings:  (CP,R11) (CV,R12)
0Loc    Object Code    Addr1 Addr2  Stmt Lv Lineno    Source Statement           (Hibal 5, Asmedit 3.3)  HLASM R4.0  2004/03/15 12.56
+___    ______ ____    _____ _____  ____ __ ______    ______ _________
0                                  31807              ¿þþþþþþþþþþþþþþþþþþþþþþþþþþþþþþþþþþþþþþþþþþþþþþþþþþþþþþþþþþþþþþþþþþþþþÜ
                                   31808              Ÿ                                                                     Ÿ
                                   31809              Ÿ                                                                     Ÿ
                                   31810              Ÿ  TMODEL =  MODEL/NOMODEL TERMINAL                                   Ÿ
                                   31811              Ÿ                                                                     Ÿ
                                   31812              Ÿ  SEE COMMENTS AT START OF THIS MODULE                               Ÿ
                                   31813              Ÿ                                                                     Ÿ
                                                      ¾þþþþþþþþþþþþþþþþþþþþþþþþþþþþþþþþþþþþþþþþþþþþþþþþþþþþþþþþþþþþþþþþþþþþþ»
0003EAC 50E0 D000/9008_      00000 31814              FNTMODEL PROC  ,
 USING  *,R7
 003EC6 4110 7156/4100_      0401C 31853                       SETMSG 'NOMODEL'           ASSUME NOT MODEL TERMINAL
 003ECE 9180 B3EA/47E0_003EA       31857                       IF    CPSFMOD,'SETMSG "MODEL"'      IF MODEL TERMINAL
 003EDE D74F 6000 6000_00000 00000 31881                       VRETURN STRING,(R1),(R0)
 USING  VNENTRY,R6
 DROP   VNENTRY,R6
 003EFA 18D8/9808 D004_            31965                       PEND
 DROP   *,R7
1SYSV     (SYSV4072) (12:56) (15MAR04) System Routines for Variables                                                        Page  140
0Current Usings:  (CP,R11) (CV,R12)
0Loc    Object Code    Addr1 Addr2  Stmt Lv Lineno    Source Statement           (Hibal 5, Asmedit 3.3)  HLASM R4.0  2004/03/15 12.56
+___    ______ ____    _____ _____  ____ __ ______    ______ _________
0                                  31986              ¿þþþþþþþþþþþþþþþþþþþþþþþþþþþþþþþþþþþþþþþþþþþþþþþþþþþþþþþþþþþþþþþþþþþþþÜ
                                   31987              Ÿ                                                                     Ÿ
                                   31988              Ÿ                                                                     Ÿ
                                   31989              Ÿ  TQUIET                                                             Ÿ
                                   31990              Ÿ                                                                     Ÿ
                                   31991              Ÿ  SEE COMMENTS AT START OF THIS MODULE                               Ÿ
                                   31992              Ÿ                                                                     Ÿ
                                                      ¾þþþþþþþþþþþþþþþþþþþþþþþþþþþþþþþþþþþþþþþþþþþþþþþþþþþþþþþþþþþþþþþþþþþþþ»
0003F08 50E0 D000/9008_      00000 31993              FNTQUIET PROC  ,
 USING  *,R7
 003F22 9108 B416/47E0_00416       32032                       IF    CPSFQUIET,BEGIN
 003F2A D74F 6000 6000_00000 00000 32047  1                      VRETURN BOOLEAN,TRUE
 USING  VNENTRY,R6
 DROP   VNENTRY,R6
 003F3C                            32086                       END
 003F3C 701E/47F0 7030 03F3C 03F28 32090                       ELSE  BEGIN
 003F40 D74F 6000 6000_00000 00000 32101  1                      VRETURN BOOLEAN,FALSE
 USING  VNENTRY,R6
 DROP   VNENTRY,R6
 003F52                            32140                       END
 003F52 18D8/9808 D004_            32144                       PEND
 DROP   *,R7
1SYSV     (SYSV4072) (12:56) (15MAR04) System Routines for Variables                                                        Page  141
0Current Usings:  (CP,R11) (CV,R12)
0Loc    Object Code    Addr1 Addr2  Stmt Lv Lineno    Source Statement           (Hibal 5, Asmedit 3.3)  HLASM R4.0  2004/03/15 12.56
+___    ______ ____    _____ _____  ____ __ ______    ______ _________
0                                  32165              ¿þþþþþþþþþþþþþþþþþþþþþþþþþþþþþþþþþþþþþþþþþþþþþþþþþþþþþþþþþþþþþþþþþþþþþÜ
                                   32166              Ÿ                                                                     Ÿ
                                   32167              Ÿ                                                                     Ÿ
                                   32168              Ÿ  TRUE                                                               Ÿ
                                   32169              Ÿ                                                                     Ÿ
                                   32170              Ÿ                                                                     Ÿ
                                   32171              Ÿ  SEE COMMENTS AT START OF THIS MODULE                               Ÿ
                                   32172              Ÿ                                                                     Ÿ
                                                      ¾þþþþþþþþþþþþþþþþþþþþþþþþþþþþþþþþþþþþþþþþþþþþþþþþþþþþþþþþþþþþþþþþþþþþþ»
0003F60 50E0 D000/9008_      00000 32173              FNTRUE   PROC  ,
 USING  *,R7
 003F7A D74F 6000 6000_00000 00000 32212                       VRETURN BOOLEAN,TRUE
 USING  VNENTRY,R6
 DROP   VNENTRY,R6
 003F8C 18D8/9808 D004_            32251                       PEND
 DROP   *,R7
                                   32271
                                   32272                       QLTORG
1SYSV     (SYSV4072) (12:56) (15MAR04) System Routines for Variables                                                        Page  142
0Current Usings:  (CP,R11) (CV,R12)
0Loc    Object Code    Addr1 Addr2  Stmt Lv Lineno    Source Statement           (Hibal 5, Asmedit 3.3)  HLASM R4.0  2004/03/15 12.56
+___    ______ ____    _____ _____  ____ __ ______    ______ _________
0                                  32313              ¿þþþþþþþþþþþþþþþþþþþþþþþþþþþþþþþþþþþþþþþþþþþþþþþþþþþþþþþþþþþþþþþþþþþþþÜ
                                   32314              Ÿ                                                                     Ÿ
                                   32315              Ÿ                                                                     Ÿ
                                   32316              Ÿ  TRYATTN                                                            Ÿ
                                   32317              Ÿ                                                                     Ÿ
                                   32318              Ÿ  SEE COMMENTS AT START OF THIS MODULE                               Ÿ
                                   32319              Ÿ                                                                     Ÿ
                                                      ¾þþþþþþþþþþþþþþþþþþþþþþþþþþþþþþþþþþþþþþþþþþþþþþþþþþþþþþþþþþþþþþþþþþþþþ»
0004064 50E0 D000/9008_      00000 32320              FNTYATTN PROC  ,
 USING  *,R7
 00407E 9120 B47B/47E0_0047B       32359                       IF    CPFTATTN,BEGIN
 004086 D74F 6000 6000_00000 00000 32374  1                      VRETURN BOOLEAN,TRUE
 USING  VNENTRY,R6
 DROP   VNENTRY,R6
 004098                            32413                       END
 004098 701E/47F0 7030 04098 04084 32417                       ELSE  BEGIN
 00409C D74F 6000 6000_00000 00000 32428  1                      VRETURN BOOLEAN,FALSE
 USING  VNENTRY,R6
 DROP   VNENTRY,R6
 0040AE                            32467                       END
 0040AE 18D8/9808 D004_            32471                       PEND
 DROP   *,R7
1SYSV     (SYSV4072) (12:56) (15MAR04) System Routines for Variables                                                        Page  143
0Current Usings:  (CP,R11) (CV,R12)
0Loc    Object Code    Addr1 Addr2  Stmt Lv Lineno    Source Statement           (Hibal 5, Asmedit 3.3)  HLASM R4.0  2004/03/15 12.56
+___    ______ ____    _____ _____  ____ __ ______    ______ _________
0                                  32492              ¿þþþþþþþþþþþþþþþþþþþþþþþþþþþþþþþþþþþþþþþþþþþþþþþþþþþþþþþþþþþþþþþþþþþþþÜ
                                   32493              Ÿ                                                                     Ÿ
                                   32494              Ÿ                                                                     Ÿ
                                   32495              Ÿ  TRYERROR                                                           Ÿ
                                   32496              Ÿ                                                                     Ÿ
                                   32497              Ÿ  SEE COMMENTS AT START OF THIS MODULE                               Ÿ
                                   32498              Ÿ                                                                     Ÿ
                                                      ¾þþþþþþþþþþþþþþþþþþþþþþþþþþþþþþþþþþþþþþþþþþþþþþþþþþþþþþþþþþþþþþþþþþþþþ»
00040BC 50E0 D000/9008_      00000 32499              FNTYERR  PROC  ,
 USING  *,R7
 0040D6 9110 B47B/47E0_0047B       32538                       IF    CPFTERR,BEGIN
 0040DE D74F 6000 6000_00000 00000 32553  1                      VRETURN BOOLEAN,TRUE
 USING  VNENTRY,R6
 DROP   VNENTRY,R6
 0040F0                            32592                       END
 0040F0 701E/47F0 7030 040F0 040DC 32596                       ELSE  BEGIN
 0040F4 D74F 6000 6000_00000 00000 32607  1                      VRETURN BOOLEAN,FALSE
 USING  VNENTRY,R6
 DROP   VNENTRY,R6
 004106                            32646                       END
 004106 18D8/9808 D004_            32650                       PEND
 DROP   *,R7
1SYSV     (SYSV4072) (12:56) (15MAR04) System Routines for Variables                                                        Page  144
0Current Usings:  (CP,R11) (CV,R12)
0Loc    Object Code    Addr1 Addr2  Stmt Lv Lineno    Source Statement           (Hibal 5, Asmedit 3.3)  HLASM R4.0  2004/03/15 12.56
+___    ______ ____    _____ _____  ____ __ ______    ______ _________
0                                  32671              ¿þþþþþþþþþþþþþþþþþþþþþþþþþþþþþþþþþþþþþþþþþþþþþþþþþþþþþþþþþþþþþþþþþþþþþÜ
                                   32672              Ÿ                                                                     Ÿ
                                   32673              Ÿ                                                                     Ÿ
                                   32674              Ÿ  TRYID                                                              Ÿ
                                   32675              Ÿ                                                                     Ÿ
                                   32676              Ÿ  SEE COMMENTS AT START OF THIS MODULE                               Ÿ
                                   32677              Ÿ                                                                     Ÿ
                                                      ¾þþþþþþþþþþþþþþþþþþþþþþþþþþþþþþþþþþþþþþþþþþþþþþþþþþþþþþþþþþþþþþþþþþþþþ»
0004114 50E0 D000/9008_      00000 32678              FNTYID   PROC  FNWA
 USING  *,R7
 USING  FNWA-(4+36),R8
                                   32728
                                   32729                       COMMENT                   IF ERROR, RETURN TRYID
 00412E 9110 B47B/47E0_0047B       32730                       IF    CPFTERR,BEGIN
 004136 4100 0150            00150 32745  1                      LA    R0,L'FNWORK
 00413A 4110 8028            00000 32746  1                      LA    R1,FNWORK
 00413E 4120 75C2            046F0 32747  1                      LA    R2,=CL16'SYS.TRYID       '
 004142 58E0 7612/0DEE       04740 32748  1                      VCALL GETDATA
 004148 12FF/4770 7026_            32752  1                      IF    ((R15,NZ),OR,(R0,Z)),BEGIN
 004154 4100 0008            00008 32779  2                        LA    R0,8
 004158 4110 75D2            04700 32780  2                        LA    R1,=CL8'OK      '   DEFAULT IS "OK"
 00415C                            32781  1                      END
 00415C                            32785                       END
                                   32789
                                   32790                       COMMENT                   IF NO ERROR, RETURN OK
 00415C 7032/47F0 703A 0415C 04134 32791                       ELSE  BEGIN
 004160 4100 0008            00008 32802  1                      LA    R0,8
 004164 4110 75D2            04700 32803  1                      LA    R1,=CL8'OK      '
 004168                            32804                       END
                                   32808
 004168 D74F 6000 6000_00000 00000 32809                       VRETURN STRING,(R1),(R0)
 USING  VNENTRY,R6
 DROP   VNENTRY,R6
 004184 58E0 7616/0DEE       04744 32893                       VTRIM
 00418A 18D8/9808 D004_            32898                       PEND
 DROP   FNWA-(4+36),R8
 DROP   *,R7
1SYSV     (SYSV4072) (12:56) (15MAR04) System Routines for Variables                                                        Page  145
0Current Usings:  (CP,R11) (CV,R12)
0Loc    Object Code    Addr1 Addr2  Stmt Lv Lineno    Source Statement           (Hibal 5, Asmedit 3.3)  HLASM R4.0  2004/03/15 12.56
+___    ______ ____    _____ _____  ____ __ ______    ______ _________
0                                  32924              ¿þþþþþþþþþþþþþþþþþþþþþþþþþþþþþþþþþþþþþþþþþþþþþþþþþþþþþþþþþþþþþþþþþþþþþÜ
                                   32925              Ÿ                                                                     Ÿ
                                   32926              Ÿ                                                                     Ÿ
                                   32927              Ÿ  TRYINFO                                                            Ÿ
                                   32928              Ÿ                                                                     Ÿ
                                   32929              Ÿ  SEE COMMENTS AT START OF THIS MODULE                               Ÿ
                                   32930              Ÿ                                                                     Ÿ
                                                      ¾þþþþþþþþþþþþþþþþþþþþþþþþþþþþþþþþþþþþþþþþþþþþþþþþþþþþþþþþþþþþþþþþþþþþþ»
0004198 50E0 D000/9008_      00000 32931              FNTYINFO PROC  FNWA
 USING  *,R7
 USING  FNWA-(4+36),R8
                                   32981
                                   32982                       COMMENT                   IF ERROR/ATTN, RETURN INFO
 0041B2 9120 B47B/4710_0047B       32983                       IF    (CPFTATTN,OR,CPFTERR),BEGIN
 0041C2 4100 0150            00150 33012  1                      LA    R0,L'FNWORK
 0041C6 4110 8028            00000 33013  1                      LA    R1,FNWORK
 0041CA 4120 7556            04708 33014  1                      LA    R2,=CL16'SYS.TRYINFO     '
 0041CE 58E0 758E/0DEE       04740 33015  1                      VCALL GETDATA
 0041D4 4780 7028            041DA 33019  1                      IF    NZ,BEGIN
 0041D8 1B00                       33030  2                        CLEAR R0
 0041DA                            33034  1                      END
 0041DA                            33038                       END
                                   33042
                                   33043                       COMMENT                   IF NO ERROR/ATTN, RETURN NULL
 0041DA 702C/47F0 7030 041DA 041C0 33044                       ELSE  BEGIN
 0041DE 1B00                       33055  1                      CLEAR R0
 0041E0 1B11                       33059  1                      CLEAR R1
 0041E2                            33063                       END
                                   33067
 0041E2 D74F 6000 6000_00000 00000 33068                       VRETURN STRING,(R1),(R0)
 USING  VNENTRY,R6
 DROP   VNENTRY,R6
 0041FE 18D8/9808 D004_            33152                       PEND
 DROP   FNWA-(4+36),R8
 DROP   *,R7
1SYSV     (SYSV4072) (12:56) (15MAR04) System Routines for Variables                                                        Page  146
0Current Usings:  (CP,R11) (CV,R12)
0Loc    Object Code    Addr1 Addr2  Stmt Lv Lineno    Source Statement           (Hibal 5, Asmedit 3.3)  HLASM R4.0  2004/03/15 12.56
+___    ______ ____    _____ _____  ____ __ ______    ______ _________
0                                  33178              ¿þþþþþþþþþþþþþþþþþþþþþþþþþþþþþþþþþþþþþþþþþþþþþþþþþþþþþþþþþþþþþþþþþþþþþÜ
                                   33179              Ÿ                                                                     Ÿ
                                   33180              Ÿ                                                                     Ÿ
                                   33181              Ÿ  TRYMSG                                                             Ÿ
                                   33182              Ÿ                                                                     Ÿ
                                   33183              Ÿ  SEE COMMENTS AT START OF THIS MODULE                               Ÿ
                                   33184              Ÿ                                                                     Ÿ
                                                      ¾þþþþþþþþþþþþþþþþþþþþþþþþþþþþþþþþþþþþþþþþþþþþþþþþþþþþþþþþþþþþþþþþþþþþþ»
000420C 50E0 D000/9008_      00000 33185              FNTYMSG  PROC  FNWA
 USING  *,R7
 USING  FNWA-(4+36),R8
                                   33235
                                   33236                       COMMENT                   IF ERROR, RETURN ERROR MSG
 004226 9110 B47B/47E0_0047B       33237                       IF    CPFTERR,BEGIN
 00422E 4100 0150            00150 33252  1                      LA    R0,L'FNWORK
 004232 4110 8028            00000 33253  1                      LA    R1,FNWORK
 004236 4120 74F2            04718 33254  1                      LA    R2,=CL16'SYS.TRYMSG      '
 00423A 58E0 751A/0DEE       04740 33255  1                      VCALL GETDATA
 004240 4780 7020            04246 33259  1                      IF    NZ,BEGIN
 004244 1B00                       33270  2                        CLEAR R0
 004246                            33274  1                      END
 004246                            33278                       END
                                   33282
                                   33283                       COMMENT                   IF NO ERROR, RETURN NULL
 004246 7024/47F0 7028 04246 0422C 33284                       ELSE  BEGIN
 00424A 1B00                       33295  1                      CLEAR R0
 00424C 1B11                       33299  1                      CLEAR R1
 00424E                            33303                       END
                                   33307
 00424E D74F 6000 6000_00000 00000 33308                       VRETURN STRING,(R1),(R0)
 USING  VNENTRY,R6
 DROP   VNENTRY,R6
 00426A 18D8/9808 D004_            33392                       PEND
 DROP   FNWA-(4+36),R8
 DROP   *,R7
1SYSV     (SYSV4072) (12:56) (15MAR04) System Routines for Variables                                                        Page  147
0Current Usings:  (CP,R11) (CV,R12)
0Loc    Object Code    Addr1 Addr2  Stmt Lv Lineno    Source Statement           (Hibal 5, Asmedit 3.3)  HLASM R4.0  2004/03/15 12.56
+___    ______ ____    _____ _____  ____ __ ______    ______ _________
0                                  33418              ¿þþþþþþþþþþþþþþþþþþþþþþþþþþþþþþþþþþþþþþþþþþþþþþþþþþþþþþþþþþþþþþþþþþþþþÜ
                                   33419              Ÿ                                                                     Ÿ
                                   33420              Ÿ  TTYPE - TERMINAL TYPE                                              Ÿ
                                   33421              Ÿ                                                                     Ÿ
                                   33422              Ÿ  SEE COMMENTS AT START OF THIS MODULE                               Ÿ
                                   33423              Ÿ                                                                     Ÿ
                                                      ¾þþþþþþþþþþþþþþþþþþþþþþþþþþþþþþþþþþþþþþþþþþþþþþþþþþþþþþþþþþþþþþþþþþþþþ»
0004278 50E0 D000/9008_      00000 33424              FNTTYPE  PROC
 USING  *,R7
 004292 D74F 6000 6000_00000 00000 33463                       VRETURN STRING,CPSTTYPE
 USING  VNENTRY,R6
 DROP   VNENTRY,R6
 0042B6 58E0 74B2/0DEE       04744 33551                       VTRIM
 0042BC 18D8/9808 D004_            33556                       PEND
 DROP   *,R7
                                   33576              ¿þþþþþþþþþþþþþþþþþþþþþþþþþþþþþþþþþþþþþþþþþþþþþþþþþþþþþþþþþþþþþþþþþþþþþÜ
                                   33577              Ÿ                                                                     Ÿ
                                   33578              Ÿ  TWIDTH -- Terminal (actual) width.                                 Ÿ
                                   33579              Ÿ                                                                     Ÿ
                                   33580              Ÿ  SEE COMMENTS AT START OF THIS MODULE                               Ÿ
                                   33581              Ÿ                                                                     Ÿ
                                                      ¾þþþþþþþþþþþþþþþþþþþþþþþþþþþþþþþþþþþþþþþþþþþþþþþþþþþþþþþþþþþþþþþþþþþþþ»
00042CA 50E0 D000/9008_      00000 33582              FNTWIDTH PROC
 USING  *,R7
 0042E4 D74F 6000 6000_00000 00000 33621                       VRETURN INTEGER,LH:CPSWID
 USING  VNENTRY,R6
 DROP   VNENTRY,R6
 004300 18D8/9808 D004_            33667                       PEND
 DROP   *,R7
1SYSV     (SYSV4072) (12:56) (15MAR04) System Routines for Variables                                                        Page  148
0Current Usings:  (CP,R11) (CV,R12)
0Loc    Object Code    Addr1 Addr2  Stmt Lv Lineno    Source Statement           (Hibal 5, Asmedit 3.3)  HLASM R4.0  2004/03/15 12.56
+___    ______ ____    _____ _____  ____ __ ______    ______ _________
0                                  33688              ¿þþþþþþþþþþþþþþþþþþþþþþþþþþþþþþþþþþþþþþþþþþþþþþþþþþþþþþþþþþþþþþþþþþþþþÜ
                                   33689              Ÿ                                                                     Ÿ
                                   33690              Ÿ  USER                                                               Ÿ
                                   33691              Ÿ                                                                     Ÿ
                                   33692              Ÿ  SEE COMMENTS AT START OF THIS MODULE                               Ÿ
                                   33693              Ÿ                                                                     Ÿ
                                                      ¾þþþþþþþþþþþþþþþþþþþþþþþþþþþþþþþþþþþþþþþþþþþþþþþþþþþþþþþþþþþþþþþþþþþþþ»
000430E 50E0 D000/9008_      00000 33694              FNUSER   PROC
 USING  *,R7
 004328 D74F 6000 6000_00000 00000 33733                       VRETURN STRING,CPUSERSV
 USING  VNENTRY,R6
 DROP   VNENTRY,R6
 00434C 18D8/9808 D004_            33821                       PEND
 DROP   *,R7
1SYSV     (SYSV4072) (12:56) (15MAR04) System Routines for Variables                                                        Page  149
0Current Usings:  (CP,R11) (CV,R12)
0Loc    Object Code    Addr1 Addr2  Stmt Lv Lineno    Source Statement           (Hibal 5, Asmedit 3.3)  HLASM R4.0  2004/03/15 12.56
+___    ______ ____    _____ _____  ____ __ ______    ______ _________
0                                  33842              ¿þþþþþþþþþþþþþþþþþþþþþþþþþþþþþþþþþþþþþþþþþþþþþþþþþþþþþþþþþþþþþþþþþþþþþÜ
                                   33843              Ÿ                                                                     Ÿ
                                   33844              Ÿ  USERID                                                             Ÿ
                                   33845              Ÿ                                                                     Ÿ
                                   33846              Ÿ    See comments at the start of this module.                        Ÿ
                                   33847              Ÿ                                                                     Ÿ
                                                      ¾þþþþþþþþþþþþþþþþþþþþþþþþþþþþþþþþþþþþþþþþþþþþþþþþþþþþþþþþþþþþþþþþþþþþþ»
000435A 50E0 D000/9008_      00000 33848              FNUID    PROC
 USING  *,R7
 004374 D74F 6000 6000_00000 00000 33887                       VRETURN STRING,CPUID
 USING  VNENTRY,R6
 DROP   VNENTRY,R6
 004398 58E0 73D0/0DEE       04744 33975                       VTRIM
 00439E 18D8/9808 D004_            33980                       PEND
 DROP   *,R7
1SYSV     (SYSV4072) (12:56) (15MAR04) System Routines for Variables                                                        Page  150
0Current Usings:  (CP,R11) (CV,R12)
0Loc    Object Code    Addr1 Addr2  Stmt Lv Lineno    Source Statement           (Hibal 5, Asmedit 3.3)  HLASM R4.0  2004/03/15 12.56
+___    ______ ____    _____ _____  ____ __ ______    ______ _________
0                                  34001              ¿þþþþþþþþþþþþþþþþþþþþþþþþþþþþþþþþþþþþþþþþþþþþþþþþþþþþþþþþþþþþþþþþþþþþþÜ
                                   34002              Ÿ                                                                     Ÿ
                                   34003              Ÿ  USERID_LIST                                                        Ÿ
                                   34004              Ÿ                                                                     Ÿ
                                   34005              Ÿ    See comments at the start of this module.                        Ÿ
                                   34006              Ÿ                                                                     Ÿ
                                                      ¾þþþþþþþþþþþþþþþþþþþþþþþþþþþþþþþþþþþþþþþþþþþþþþþþþþþþþþþþþþþþþþþþþþþþþ»
0000000                00000 00100 34007              FNIDLWA  RECORD BEGIN
 000000                            34015  1           FNIDAREA   DS    CL256               Work area
 000100                00100 00100 34016                       END
                                   34025              þþþþ
 0043AC 50E0 D000/9008_      00000 34026              FNUIDL   PROC  FNIDLWA
 USING  *,R7
 USING  FNIDLWA-(4+36),R8
 0043C6 41F0 B3B4            003B4 34076                       LA    R15,CPSACCT
 0043CA 4110 8028/4100_      00000 34077                       SETMSG FNIDAREA            Put result here
 0043D2 58E0 7386/0DEE       0474C 34091                       VCALL GETUIDL             Get IDLIST
 0043D8 D74F 6000 6000_00000 00000 34095                       VRETURN STRING,(R1),(R0)
 USING  VNENTRY,R6
 DROP   VNENTRY,R6
 0043F4 18D8/9808 D004_            34179                       PEND
 DROP   FNIDLWA-(4+36),R8
 DROP   *,R7
1SYSV     (SYSV4072) (12:56) (15MAR04) System Routines for Variables                                                        Page  151
0Current Usings:  (CP,R11) (CV,R12)
0Loc    Object Code    Addr1 Addr2  Stmt Lv Lineno    Source Statement           (Hibal 5, Asmedit 3.3)  HLASM R4.0  2004/03/15 12.56
+___    ______ ____    _____ _____  ____ __ ______    ______ _________
0                                  34205              ¿þþþþþþþþþþþþþþþþþþþþþþþþþþþþþþþþþþþþþþþþþþþþþþþþþþþþþþþþþþþþþþþþþþþþþÜ
                                   34206              Ÿ                                                                     Ÿ
                                   34207              Ÿ  VIEW_COLUMN Variable.                                              Ÿ
                                   34208              Ÿ                                                                     Ÿ
                                                      ¾þþþþþþþþþþþþþþþþþþþþþþþþþþþþþþþþþþþþþþþþþþþþþþþþþþþþþþþþþþþþþþþþþþþþþ»
0004402 50E0 D000/9008_      00000 34209              FNVCOL   PROC
 USING  *,R7
 00441C D74F 6000 6000_00000 00000 34248                       VRETURN INTEGER,LH:CPVCOL
 USING  VNENTRY,R6
 DROP   VNENTRY,R6
 004438 18D8/9808 D004_            34294                       PEND
 DROP   *,R7
1SYSV     (SYSV4072) (12:56) (15MAR04) System Routines for Variables                                                        Page  152
0Current Usings:  (CP,R11) (CV,R12)
0Loc    Object Code    Addr1 Addr2  Stmt Lv Lineno    Source Statement           (Hibal 5, Asmedit 3.3)  HLASM R4.0  2004/03/15 12.56
+___    ______ ____    _____ _____  ____ __ ______    ______ _________
0                                  34315              ¿þþþþþþþþþþþþþþþþþþþþþþþþþþþþþþþþþþþþþþþþþþþþþþþþþþþþþþþþþþþþþþþþþþþþþÜ
                                   34316              Ÿ                                                                     Ÿ
                                   34317              Ÿ  VIEW_HEIGHT Variable.                                              Ÿ
                                   34318              Ÿ                                                                     Ÿ
                                                      ¾þþþþþþþþþþþþþþþþþþþþþþþþþþþþþþþþþþþþþþþþþþþþþþþþþþþþþþþþþþþþþþþþþþþþþ»
0004446 50E0 D000/9008_      00000 34319              FNVHEI   PROC  ,
 USING  *,R7
 004460 D74F 6000 6000_00000 00000 34358                       VRETURN INTEGER,LH:CPVHEI
 USING  VNENTRY,R6
 DROP   VNENTRY,R6
 00447C 18D8/9808 D004_            34404                       PEND
 DROP   *,R7
1SYSV     (SYSV4072) (12:56) (15MAR04) System Routines for Variables                                                        Page  153
0Current Usings:  (CP,R11) (CV,R12)
0Loc    Object Code    Addr1 Addr2  Stmt Lv Lineno    Source Statement           (Hibal 5, Asmedit 3.3)  HLASM R4.0  2004/03/15 12.56
+___    ______ ____    _____ _____  ____ __ ______    ______ _________
0                                  34425              ¿þþþþþþþþþþþþþþþþþþþþþþþþþþþþþþþþþþþþþþþþþþþþþþþþþþþþþþþþþþþþþþþþþþþþþÜ
                                   34426              Ÿ                                                                     Ÿ
                                   34427              Ÿ  VIEW_LINENO Variable.                                              Ÿ
                                   34428              Ÿ                                                                     Ÿ
                                                      ¾þþþþþþþþþþþþþþþþþþþþþþþþþþþþþþþþþþþþþþþþþþþþþþþþþþþþþþþþþþþþþþþþþþþþþ»
000448A 50E0 D000/9008_      00000 34429              FNVLNO   PROC  ,
 USING  *,R7
 0044A4 D74F 6000 6000_00000 00000 34468                       VRETURN LINENO,L:CPVLNO
 USING  VNENTRY,R6
 DROP   VNENTRY,R6
 0044C0 18D8/9808 D004_            34515                       PEND
 DROP   *,R7
1SYSV     (SYSV4072) (12:56) (15MAR04) System Routines for Variables                                                        Page  154
0Current Usings:  (CP,R11) (CV,R12)
0Loc    Object Code    Addr1 Addr2  Stmt Lv Lineno    Source Statement           (Hibal 5, Asmedit 3.3)  HLASM R4.0  2004/03/15 12.56
+___    ______ ____    _____ _____  ____ __ ______    ______ _________
0                                  34536              ¿þþþþþþþþþþþþþþþþþþþþþþþþþþþþþþþþþþþþþþþþþþþþþþþþþþþþþþþþþþþþþþþþþþþþþÜ
                                   34537              Ÿ                                                                     Ÿ
                                   34538              Ÿ  VIEW_NWIND Variable.                                               Ÿ
                                   34539              Ÿ                                                                     Ÿ
                                                      ¾þþþþþþþþþþþþþþþþþþþþþþþþþþþþþþþþþþþþþþþþþþþþþþþþþþþþþþþþþþþþþþþþþþþþþ»
00044CE 50E0 D000/9008_      00000 34540              FNVNWIND PROC  ,
 USING  *,R7
 0044E8 D74F 6000 6000_00000 00000 34579                       VRETURN INTEGER,LH:CPVWCNT
 USING  VNENTRY,R6
 DROP   VNENTRY,R6
 004504 18D8/9808 D004_            34625                       PEND
 DROP   *,R7
                                   34645              ¿þþþþþþþþþþþþþþþþþþþþþþþþþþþþþþþþþþþþþþþþþþþþþþþþþþþþþþþþþþþþþþþþþþþþþÜ
                                   34646              Ÿ                                                                     Ÿ
                                   34647              Ÿ  VIEW_WIDTH Variable.                                               Ÿ
                                   34648              Ÿ                                                                     Ÿ
                                                      ¾þþþþþþþþþþþþþþþþþþþþþþþþþþþþþþþþþþþþþþþþþþþþþþþþþþþþþþþþþþþþþþþþþþþþþ»
0004512 50E0 D000/9008_      00000 34649              FNVWID   PROC  ,
 USING  *,R7
 00452C D74F 6000 6000_00000 00000 34688                       VRETURN INTEGER,LH:CPVWID
 USING  VNENTRY,R6
 DROP   VNENTRY,R6
 004548 18D8/9808 D004_            34734                       PEND
 DROP   *,R7
                                   34754              ¿þþþþþþþþþþþþþþþþþþþþþþþþþþþþþþþþþþþþþþþþþþþþþþþþþþþþþþþþþþþþþþþþþþþþþÜ
                                   34755              Ÿ                                                                     Ÿ
                                   34756              Ÿ  VIEW_WINDOW Variable.                                              Ÿ
                                   34757              Ÿ                                                                     Ÿ
                                                      ¾þþþþþþþþþþþþþþþþþþþþþþþþþþþþþþþþþþþþþþþþþþþþþþþþþþþþþþþþþþþþþþþþþþþþþ»
0004556 50E0 D000/9008_      00000 34758              FNVWIND  PROC  ,
 USING  *,R7
 004570 D74F 6000 6000_00000 00000 34797                       VRETURN INTEGER,LH:CPVWCUR
 USING  VNENTRY,R6
 DROP   VNENTRY,R6
 00458C 18D8/9808 D004_            34843                       PEND
 DROP   *,R7
1SYSV     (SYSV4072) (12:56) (15MAR04) System Routines for Variables                                                        Page  155
0Current Usings:  (CP,R11) (CV,R12)
0Loc    Object Code    Addr1 Addr2  Stmt Lv Lineno    Source Statement           (Hibal 5, Asmedit 3.3)  HLASM R4.0  2004/03/15 12.56
+___    ______ ____    _____ _____  ____ __ ______    ______ _________
0                                  34864              ¿þþþþþþþþþþþþþþþþþþþþþþþþþþþþþþþþþþþþþþþþþþþþþþþþþþþþþþþþþþþþþþþþþþþþþÜ
                                   34865              Ÿ                                                                     Ÿ
                                   34866              Ÿ  VJOBNAME -- Return's the jobname of the virtual session            Ÿ
                                   34867              Ÿ    running this job.  I.e., returns a BATWYL job's jobname or       Ÿ
                                   34868              Ÿ    the null string if this is not a virtual session.                Ÿ
                                   34869              Ÿ                                                                     Ÿ
                                                      ¾þþþþþþþþþþþþþþþþþþþþþþþþþþþþþþþþþþþþþþþþþþþþþþþþþþþþþþþþþþþþþþþþþþþþþ»
0000000                00000 00040 34870              FNVJWA   RECORD BEGIN
 000000                            34878  1           FNVJDATA   DS    CL64                Work area for HASPSERV info
 000040                00040 00040 34879                       END
                                   34888              þþþþ
 00459A 50E0 D000/9008_      00000 34889              FNVJOB   PROC  FNVJWA
 USING  *,R7
 USING  FNVJWA-(4+36),R8
 0045B4 58F0 B3C0/12FF       003C0 34939                       LT    R15,CPSASCBP        Get virtual job's ASCB ptr
 0045BA 4770 700E/1B00_      045C2 34943                       IF    Z,'CLEAR R0,R1'     Not a virtual job
                                   34965
 0045C2 7012/47F0 7032 045C2 045BC 34966                       ELSE  BEGIN               Go try to get jobname...
 0045C6 4100 0004/4110_      00004 34977  1                      HASPSERV JOBNAME,FNVJDATA,ASCB=(R15)  Get jobname
 0045D0 12FF/4770 702A_            34997  1                      IF    (R15,Z),'SETMSG FNVJDATA,8'  Jobname
 0045DE 702E/47F0 7032_045DE 045D4 35032  1                      ELSE  'CLEAR R0,R1'       Not available
 0045E6                            35054                       END
                                   35058
 0045E6 D74F 6000 6000_00000 00000 35059                       VRETURN STRING,(R1),(R0)  Jobname
 USING  VNENTRY,R6
 DROP   VNENTRY,R6
 004602 58E0 7190/0DEE       04744 35143                       VTRIM
 004608 18D8/9808 D004_            35148                       PEND
 DROP   FNVJWA-(4+36),R8
 DROP   *,R7
1SYSV     (SYSV4072) (12:56) (15MAR04) System Routines for Variables                                                        Page  156
0Current Usings:  (CP,R11) (CV,R12)
0Loc    Object Code    Addr1 Addr2  Stmt Lv Lineno    Source Statement           (Hibal 5, Asmedit 3.3)  HLASM R4.0  2004/03/15 12.56
+___    ______ ____    _____ _____  ____ __ ______    ______ _________
0                                  35174              ¿þþþþþþþþþþþþþþþþþþþþþþþþþþþþþþþþþþþþþþþþþþþþþþþþþþþþþþþþþþþþþþþþþþþþþÜ
                                   35175              Ÿ                                                                     Ÿ
                                   35176              Ÿ  VJOBNO -- Return's the jobno of the virtual session                Ÿ
                                   35177              Ÿ    running this job.  I.e., returns a BATWYL job's jobno or         Ÿ
                                   35178              Ÿ    the null string if this is not a virtual session.                Ÿ
                                   35179              Ÿ                                                                     Ÿ
                                                      ¾þþþþþþþþþþþþþþþþþþþþþþþþþþþþþþþþþþþþþþþþþþþþþþþþþþþþþþþþþþþþþþþþþþþþþ»
0000000                00000 00040 35180              FNVJNWA  RECORD BEGIN
 000000                            35188  1           FNVJNW     DS    CL64                Work area for HASPSERV info
 000040                00040 00040 35189                       END
                                   35198              þþþþ
 004616 50E0 D000/9008_      00000 35199              FNVJOBNO PROC  FNVJNWA
 USING  *,R7
 USING  FNVJNWA-(4+36),R8
 004630 58F0 B3C0/12FF       003C0 35249                       LT    R15,CPSASCBP        Get virtual job's ASCB ptr
 004636 4770 700E/1B00_      0463E 35253                       IF    Z,'CLEAR R0,R1'     Not a virtual job
                                   35275
 00463E 7012/47F0 7032 0463E 04638 35276                       ELSE  BEGIN               Go try to get jobno...
 004642 4100 0001/4110_      00001 35287  1                      HASPSERV JOBINFO,FNVJNW,ASCB=(R15)  Get jobno
 00464C 12FF/4770 702A_            35307  1                      IF    (R15,Z),'SETMSG FNVJNW,4'  Job number
 00465A 702E/47F0 7032_0465A 04650 35342  1                      ELSE  'CLEAR R0,R1'       Not available
 004662                            35364                       END
                                   35368
 004662 D74F 6000 6000_00000 00000 35369                       VRETURN STRING,(R1),(R0)  Job number
 USING  VNENTRY,R6
 DROP   VNENTRY,R6
 00467E 58E0 7114/0DEE       04744 35453                       VTRIM
 004684 18D8/9808 D004_            35458                       PEND
 DROP   FNVJNWA-(4+36),R8
 DROP   *,R7
1SYSV     (SYSV4072) (12:56) (15MAR04) System Routines for Variables                                                        Page  157
0Current Usings:  (CP,R11) (CV,R12)
0Loc    Object Code    Addr1 Addr2  Stmt Lv Lineno    Source Statement           (Hibal 5, Asmedit 3.3)  HLASM R4.0  2004/03/15 12.56
+___    ______ ____    _____ _____  ____ __ ______    ______ _________
0                                  35484              ¿þþþþþþþþþþþþþþþþþþþþþþþþþþþþþþþþþþþþþþþþþþþþþþþþþþþþþþþþþþþþþþþþþþþþþÜ
                                   35485              Ÿ                                                                     Ÿ
                                   35486              Ÿ  VLOGON -- True if VLOGONs are allowed from this WYLBUR.            Ÿ
                                   35487              Ÿ                                                                     Ÿ
                                                      ¾þþþþþþþþþþþþþþþþþþþþþþþþþþþþþþþþþþþþþþþþþþþþþþþþþþþþþþþþþþþþþþþþþþþþþ»
0004692 50E0 D000/9008_      00000 35488              FNVLOGON PROC
 USING  *,R7
 0046AC 58E0 70A8/0DEE       04754 35527                       VCALL VLOGCHK             Are VLOGONs allowed?
 0046B2 4770 701C/D74F_      046C8 35531                       IF    Z,'VRETURN BOOLEAN,TRUE'
 USING  VNENTRY,R6
 DROP   VNENTRY,R6
 0046C8 7020/47F0 7032_046C8 046B4 35586                       ELSE  'VRETURN BOOLEAN,FALSE'
 USING  VNENTRY,R6
 DROP   VNENTRY,R6
 0046DE 18D8/9808 D004_            35641                       PEND
 DROP   *,R7
                                   35661
                                   35662                       QLTORG
                                   35686              ¿þþþþþþþþþþþþþþþþþþþþþþþþþþþþþþþþþþþþþþþþþþþþþþþþþþþþþþþþþþþþþþþþþþþþþÜ
                                   35687              Ÿ                                                                     Ÿ
                                   35688              Ÿ  VOLUME                                                             Ÿ
                                   35689              Ÿ                                                                     Ÿ
                                   35690              Ÿ  SEE COMMENTS AT START OF THIS MODULE                               Ÿ
                                   35691              Ÿ                                                                     Ÿ
                                                      ¾þþþþþþþþþþþþþþþþþþþþþþþþþþþþþþþþþþþþþþþþþþþþþþþþþþþþþþþþþþþþþþþþþþþþþ»
000478E 50E0 D000/9008_      00000 35692              FNVOLUME PROC
 USING  *,R7
 0047A8 D74F 6000 6000_00000 00000 35731                       VRETURN STRING,CPVOLUME
 USING  VNENTRY,R6
 DROP   VNENTRY,R6
 0047CC 58E0 71E8/0DEE       04990 35819                       VTRIM
 0047D2 18D8/9808 D004_            35824                       PEND
 DROP   *,R7
1SYSV     (SYSV4072) (12:56) (15MAR04) System Routines for Variables                                                        Page  158
0Current Usings:  (CP,R11) (CV,R12)
0Loc    Object Code    Addr1 Addr2  Stmt Lv Lineno    Source Statement           (Hibal 5, Asmedit 3.3)  HLASM R4.0  2004/03/15 12.56
+___    ______ ____    _____ _____  ____ __ ______    ______ _________
0                                  35845              ¿þþþþþþþþþþþþþþþþþþþþþþþþþþþþþþþþþþþþþþþþþþþþþþþþþþþþþþþþþþþþþþþþþþþþþÜ
                                   35846              Ÿ                                                                     Ÿ
                                   35847              Ÿ  VSESSION -- True if we have a VLOGON session currently active.     Ÿ
                                   35848              Ÿ                                                                     Ÿ
                                                      ¾þþþþþþþþþþþþþþþþþþþþþþþþþþþþþþþþþþþþþþþþþþþþþþþþþþþþþþþþþþþþþþþþþþþþþ»
00047E0 50E0 D000/9008_      00000 35849              FNVSESS  PROC
 USING  *,R7
 0047FA 58E0 719A/0DEE       04994 35888                       VCALL VSESCHK             Is a VLOGON session going now?
 004800 4770 701C/D74F_      04816 35892                       IF    Z,'VRETURN BOOLEAN,FALSE'
 USING  VNENTRY,R6
 DROP   VNENTRY,R6
 004816 7020/47F0 7032_04816 04802 35947                       ELSE  'VRETURN BOOLEAN,TRUE'
 USING  VNENTRY,R6
 DROP   VNENTRY,R6
 00482C 18D8/9808 D004_            36002                       PEND
 DROP   *,R7
1SYSV     (SYSV4072) (12:56) (15MAR04) System Routines for Variables                                                        Page  159
0Current Usings:  (CP,R11) (CV,R12)
0Loc    Object Code    Addr1 Addr2  Stmt Lv Lineno    Source Statement           (Hibal 5, Asmedit 3.3)  HLASM R4.0  2004/03/15 12.56
+___    ______ ____    _____ _____  ____ __ ______    ______ _________
0                                  36023              ¿þþþþþþþþþþþþþþþþþþþþþþþþþþþþþþþþþþþþþþþþþþþþþþþþþþþþþþþþþþþþþþþþþþþþþÜ
                                   36024              Ÿ                                                                     Ÿ
                                   36025              Ÿ  WARN - WARNING COUNT                                               Ÿ
                                   36026              Ÿ                                                                     Ÿ
                                   36027              Ÿ  SEE COMMENTS AT START OF THIS MODULE                               Ÿ
                                   36028              Ÿ                                                                     Ÿ
                                                      ¾þþþþþþþþþþþþþþþþþþþþþþþþþþþþþþþþþþþþþþþþþþþþþþþþþþþþþþþþþþþþþþþþþþþþþ»
000483A 50E0 D000/9008_      00000 36029              FNWARN   PROC  ,
 USING  *,R7
 004854 D74F 6000 6000_00000 00000 36068                       VRETURN INTEGER,LH:CPWRNCNT
 USING  VNENTRY,R6
 DROP   VNENTRY,R6
 004870 18D8/9808 D004_            36114                       PEND
 DROP   *,R7
-                                  36135              ¿þþþþþþþþþþþþþþþþþþþþþþþþþþþþþþþþþþþþþþþþþþþþþþþþþþþþþþþþþþþþþþþþþþþþþÜ
                                   36136              Ÿ                                                                     Ÿ
                                   36137              Ÿ  WCHARGE -- Value of charge component.                              Ÿ
                                   36138              Ÿ                                                                     Ÿ
                                   36139              Ÿ  SEE COMMENTS AT START OF THIS MODULE                               Ÿ
                                   36140              Ÿ                                                                     Ÿ
                                                      ¾þþþþþþþþþþþþþþþþþþþþþþþþþþþþþþþþþþþþþþþþþþþþþþþþþþþþþþþþþþþþþþþþþþþþþ»
000487E 50E0 D000/9008_      00000 36141              FNWCHG   PROC  ,
 USING  *,R7
 004898 4110 B448/4100_      00448 36180                       SETMSG CPWCHAR             WCHARGE component name
 0048A0 D60F B448 B448_00448 00448 36194                       IF    (CPWCHAR,Z),'CLEAR R0'  Not set
 0048AC D74F 6000 6000_00000 00000 36219                       VRETURN STRING,(R1),(R0)
 USING  VNENTRY,R6
 DROP   VNENTRY,R6
 0048C8 58E0 70F8/0DEE       04990 36303                       VTRIM
 0048CE 18D8/9808 D004_            36308                       PEND
 DROP   *,R7
1SYSV     (SYSV4072) (12:56) (15MAR04) System Routines for Variables                                                        Page  160
0Current Usings:  (CP,R11) (CV,R12)
0Loc    Object Code    Addr1 Addr2  Stmt Lv Lineno    Source Statement           (Hibal 5, Asmedit 3.3)  HLASM R4.0  2004/03/15 12.56
+___    ______ ____    _____ _____  ____ __ ______    ______ _________
0                                  36329              ¿þþþþþþþþþþþþþþþþþþþþþþþþþþþþþþþþþþþþþþþþþþþþþþþþþþþþþþþþþþþþþþþþþþþþþÜ
                                   36330              Ÿ                                                                     Ÿ
                                   36331              Ÿ                                                                     Ÿ
                                   36332              Ÿ  WFDEF - Wylbur default file access mode (see SET WFDEF).           Ÿ
                                   36333              Ÿ                                                                     Ÿ
                                   36334              Ÿ  SEE COMMENTS AT START OF THIS MODULE                               Ÿ
                                   36335              Ÿ                                                                     Ÿ
                                   36336              Ÿ                                                                     Ÿ
                                                      ¾þþþþþþþþþþþþþþþþþþþþþþþþþþþþþþþþþþþþþþþþþþþþþþþþþþþþþþþþþþþþþþþþþþþþþ»
00048DC 50E0 D000/9008_      00000 36337              FNWFDEF  PROC  ,
 USING  *,R7
                                   36376
                                   36377                       COMMENT                   OUTPUT TYPE INFO
 0048F6 4110 70BE/4100_      049B4 36378                       SETMSG 'OLDIBM'
 0048FE 9120 C4C8/47E0_004C8       36382                       IF    CVFWINGS,' SETMSG "WINGS" '
 00490E 9110 C4C8/47E0_004C8       36406                       IF    CVFOLDIBM,' SETMSG "OLDIBM" '
                                   36430
 00491E D74F 6000 6000_00000 00000 36431                       VRETURN STRING,(R1),(R0)
 USING  VNENTRY,R6
 DROP   VNENTRY,R6
 00493A 18D8/9808 D004_            36515                       PEND  ,
 DROP   *,R7
1SYSV     (SYSV4072) (12:56) (15MAR04) System Routines for Variables                                                        Page  161
0Current Usings:  (CP,R11) (CV,R12)
0Loc    Object Code    Addr1 Addr2  Stmt Lv Lineno    Source Statement           (Hibal 5, Asmedit 3.3)  HLASM R4.0  2004/03/15 12.56
+___    ______ ____    _____ _____  ____ __ ______    ______ _________
0                                  36536              ¿þþþþþþþþþþþþþþþþþþþþþþþþþþþþþþþþþþþþþþþþþþþþþþþþþþþþþþþþþþþþþþþþþþþþþÜ
                                   36537              Ÿ                                                                     Ÿ
                                   36538              Ÿ                                                                     Ÿ
                                   36539              Ÿ  WIDTH - TERMINAL WIDTH                                             Ÿ
                                   36540              Ÿ                                                                     Ÿ
                                   36541              Ÿ  SEE COMMENTS AT START OF THIS MODULE                               Ÿ
                                   36542              Ÿ                                                                     Ÿ
                                                      ¾þþþþþþþþþþþþþþþþþþþþþþþþþþþþþþþþþþþþþþþþþþþþþþþþþþþþþþþþþþþþþþþþþþþþþ»
0004948 50E0 D000/9008_      00000 36543              FNWIDTH  PROC  ,
 USING  *,R7
 004962 D74F 6000 6000_00000 00000 36582                       VRETURN INTEGER,LH:CPSWID
 USING  VNENTRY,R6
 DROP   VNENTRY,R6
 00497E 18D8/9808 D004_            36628                       PEND
 DROP   *,R7
                                   36648
                                   36649                       QLTORG
1SYSV     (SYSV4072) (12:56) (15MAR04) System Routines for Variables                                                        Page  162
0Current Usings:  (CP,R11) (CV,R12)
0Loc    Object Code    Addr1 Addr2  Stmt Lv Lineno    Source Statement           (Hibal 5, Asmedit 3.3)  HLASM R4.0  2004/03/15 12.56
+___    ______ ____    _____ _____  ____ __ ______    ______ _________
0                                  36669              ¿þþþþþþþþþþþþþþþþþþþþþþþþþþþþþþþþþþþþþþþþþþþþþþþþþþþþþþþþþþþþþþþþþþþþþÜ
                                   36670              Ÿ                                                                     Ÿ
                                   36671              Ÿ  WPROJECT                                                           Ÿ
                                   36672              Ÿ                                                                     Ÿ
                                   36673              Ÿ  SEE COMMENTS AT START OF THIS MODULE                               Ÿ
                                   36674              Ÿ                                                                     Ÿ
                                                      ¾þþþþþþþþþþþþþþþþþþþþþþþþþþþþþþþþþþþþþþþþþþþþþþþþþþþþþþþþþþþþþþþþþþþþþ»
00049D2 50E0 D000/9008_      00000 36675              FNWPROJ  PROC  ,
 USING  *,R7
 0049EC D74F 6000 6000_00000 00000 36714                       VRETURN STRING,CPWPROJ
 USING  VNENTRY,R6
 DROP   VNENTRY,R6
 004A10 58E0 7314/0DEE       04D00 36802                       VTRIM
 004A16 18D8/9808 D004_            36807                       PEND
 DROP   *,R7
1SYSV     (SYSV4072) (12:56) (15MAR04) System Routines for Variables                                                        Page  163
0Current Usings:  (CP,R11) (CV,R12)
0Loc    Object Code    Addr1 Addr2  Stmt Lv Lineno    Source Statement           (Hibal 5, Asmedit 3.3)  HLASM R4.0  2004/03/15 12.56
+___    ______ ____    _____ _____  ____ __ ______    ______ _________
0                                  36828              ¿þþþþþþþþþþþþþþþþþþþþþþþþþþþþþþþþþþþþþþþþþþþþþþþþþþþþþþþþþþþþþþþþþþþþþÜ
                                   36829              Ÿ                                                                     Ÿ
                                   36830              Ÿ  WYLBUR - CURRENT WYLBUR SUBSYSTEM                                  Ÿ
                                   36831              Ÿ                                                                     Ÿ
                                   36832              Ÿ  SEE COMMENTS AT START OF THIS MODULE                               Ÿ
                                   36833              Ÿ                                                                     Ÿ
                                                      ¾þþþþþþþþþþþþþþþþþþþþþþþþþþþþþþþþþþþþþþþþþþþþþþþþþþþþþþþþþþþþþþþþþþþþþ»
0004A24 50E0 D000/9008_      00000 36834              FNWYLBUR PROC  ,
 USING  *,R7
 004A3E D74F 6000 6000_00000 00000 36873                       VRETURN STRING,CVWYLSSN
 USING  VNENTRY,R6
 DROP   VNENTRY,R6
 004A62 58E0 72C2/0DEE       04D00 36961                       VTRIM
 004A68 18D8/9808 D004_            36966                       PEND
 DROP   *,R7
1SYSV     (SYSV4072) (12:56) (15MAR04) System Routines for Variables                                                        Page  164
0Current Usings:  (CP,R11) (CV,R12)
0Loc    Object Code    Addr1 Addr2  Stmt Lv Lineno    Source Statement           (Hibal 5, Asmedit 3.3)  HLASM R4.0  2004/03/15 12.56
+___    ______ ____    _____ _____  ____ __ ______    ______ _________
0                                  36987              ¿þþþþþþþþþþþþþþþþþþþþþþþþþþþþþþþþþþþþþþþþþþþþþþþþþþþþþþþþþþþþþþþþþþþþþÜ
                                   36988              Ÿ                                                                     Ÿ
                                   36989              Ÿ  WYLBUR_CPU variable.                                               Ÿ
                                   36990              Ÿ                                                                     Ÿ
                                                      ¾þþþþþþþþþþþþþþþþþþþþþþþþþþþþþþþþþþþþþþþþþþþþþþþþþþþþþþþþþþþþþþþþþþþþþ»
0004A76 50E0 D000/9008_      00000 36991              FNWYLCPU PROC  ,
 USING  *,R7
 004A90 41F0 7250            04CE0 37030                       LA    R15,=CL16'WYLBUR_CPU'
 004A94 58E0 7274/0DEE       04D04 37031                       VCALL GETCTOT             Get WYLBUR cpu in .001 sec
 004A9A D74F 6000 6000_00000 00000 37035                       VRETURN LINENO,(R15)
 USING  VNENTRY,R6
 DROP   VNENTRY,R6
 004AB4 18D8/9808 D004_            37082                       PEND
 DROP   *,R7
1SYSV     (SYSV4072) (12:56) (15MAR04) System Routines for Variables                                                        Page  165
0Current Usings:  (CP,R11) (CV,R12)
0Loc    Object Code    Addr1 Addr2  Stmt Lv Lineno    Source Statement           (Hibal 5, Asmedit 3.3)  HLASM R4.0  2004/03/15 12.56
+___    ______ ____    _____ _____  ____ __ ______    ______ _________
0                                  37103              ¿þþþþþþþþþþþþþþþþþþþþþþþþþþþþþþþþþþþþþþþþþþþþþþþþþþþþþþþþþþþþþþþþþþþþþÜ
                                   37104              Ÿ                                                                     Ÿ
                                   37105              Ÿ  WYLBUR_IO variable.                                                Ÿ
                                   37106              Ÿ                                                                     Ÿ
                                                      ¾þþþþþþþþþþþþþþþþþþþþþþþþþþþþþþþþþþþþþþþþþþþþþþþþþþþþþþþþþþþþþþþþþþþþþ»
0004AC2 50E0 D000/9008_      00000 37107              FNWYLIO  PROC  ,
 USING  *,R7
 004ADC 41F0 7214            04CF0 37146                       LA    R15,=CL16'WYLBUR_IO'
 004AE0 58E0 7228/0DEE       04D04 37147                       VCALL GETCTOT             Get WYLBUR disk I/O count
 004AE6 D74F 6000 6000_00000 00000 37151                       VRETURN INTEGER,(R15)
 USING  VNENTRY,R6
 DROP   VNENTRY,R6
 004B00 18D8/9808 D004_            37198                       PEND
 DROP   *,R7
1SYSV     (SYSV4072) (12:56) (15MAR04) System Routines for Variables                                                        Page  166
0Current Usings:  (CP,R11) (CV,R12)
0Loc    Object Code    Addr1 Addr2  Stmt Lv Lineno    Source Statement           (Hibal 5, Asmedit 3.3)  HLASM R4.0  2004/03/15 12.56
+___    ______ ____    _____ _____  ____ __ ______    ______ _________
0                                  37219              ¿þþþþþþþþþþþþþþþþþþþþþþþþþþþþþþþþþþþþþþþþþþþþþþþþþþþþþþþþþþþþþþþþþþþþþÜ
                                   37220              Ÿ                                                                     Ÿ
                                   37221              Ÿ  XACCOUNT - Returns ACCOUNT in "GG.UUU" format.                     Ÿ
                                   37222              Ÿ                                                                     Ÿ
                                   37223              Ÿ    For compatibility reasons the ACCOUNT function returns the       Ÿ
                                   37224              Ÿ    account in UUU$GG format.  New exec should use XACCOUNT instead  Ÿ
                                   37225              Ÿ    of account.                                                      Ÿ
                                   37226              Ÿ                                                                     Ÿ
                                   37227              Ÿ    See comments at the start of this module.                        Ÿ
                                   37228              Ÿ                                                                     Ÿ
                                                      ¾þþþþþþþþþþþþþþþþþþþþþþþþþþþþþþþþþþþþþþþþþþþþþþþþþþþþþþþþþþþþþþþþþþþþþ»
0004B0E 50E0 D000/9008_      00000 37229              FNXACC   PROC  ,
 USING  *,R7
 USING  VNENTRY,R6                 37268                       WITH  (VNENTRY,R6)
 004B28 D74F 6000 6000 00000 00000 37281                       CLEAR VNENTRY
 004B2E 9201 6020      00020       37288                       SET   VNSTRING
 004B32 D701 6024 6024 00024 00024 37294                       CLEAR VNSTRLEN            Assume no account
                                   37301
 004B38 D604 B3B4 B3B4_003B4 003B4 37302                       IF    (CPSACCT,NZ),BEGIN  Return account...
 004B42 D201 6024 720C 00024 04D34 37318  1                      MVC   VNSTRLEN,=H'6'
 004B48 D201 6026 B3B7 00026 003B7 37319  1                      MVC   VNSTRLOC(2),CPSGRP
 004B4E 924B 6028      00028       37320  1                      MVI   VNSTRLOC+2,C'.'
 004B52 D202 6029 B3B4 00029 003B4 37321  1                      MVC   VNSTRLOC+3(3),CPSUSER
 004B58                            37322                       END
 004B58 18D8/9808 D004_            37326                       PEND
 DROP   VNENTRY,R6
 DROP   *,R7
1SYSV     (SYSV4072) (12:56) (15MAR04) System Routines for Variables                                                        Page  167
0Current Usings:  (CP,R11) (CV,R12)
0Loc    Object Code    Addr1 Addr2  Stmt Lv Lineno    Source Statement           (Hibal 5, Asmedit 3.3)  HLASM R4.0  2004/03/15 12.56
+___    ______ ____    _____ _____  ____ __ ______    ______ _________
0                                  37352              ¿þþþþþþþþþþþþþþþþþþþþþþþþþþþþþþþþþþþþþþþþþþþþþþþþþþþþþþþþþþþþþþþþþþþþþÜ
                                   37353              Ÿ                                                                     Ÿ
                                   37354              Ÿ                                                                     Ÿ
                                   37355              Ÿ  XAUTH                                                              Ÿ
                                   37356              Ÿ                                                                     Ÿ
                                   37357              Ÿ  SEE COMMENTS AT START OF THIS MODULE                               Ÿ
                                   37358              Ÿ                                                                     Ÿ
                                                      ¾þþþþþþþþþþþþþþþþþþþþþþþþþþþþþþþþþþþþþþþþþþþþþþþþþþþþþþþþþþþþþþþþþþþþþ»
0004B66 50E0 D000/9008_      00000 37359              FNXAUTH  PROC  ,
 USING  *,R7
 004B80 9140 B75A/47E0_0075A       37398                       IF    CPFXAUTH,BEGIN
 004B88 D74F 6000 6000_00000 00000 37413  1                      VRETURN BOOLEAN,TRUE
 USING  VNENTRY,R6
 DROP   VNENTRY,R6
 004B9A                            37452                       END
 004B9A 701E/47F0 7030 04B9A 04B86 37456                       ELSE  BEGIN
 004B9E D74F 6000 6000_00000 00000 37467  1                      VRETURN BOOLEAN,FALSE
 USING  VNENTRY,R6
 DROP   VNENTRY,R6
 004BB0                            37506                       END
 004BB0 18D8/9808 D004_            37510                       PEND
 DROP   *,R7
1SYSV     (SYSV4072) (12:56) (15MAR04) System Routines for Variables                                                        Page  168
0Current Usings:  (CP,R11) (CV,R12)
0Loc    Object Code    Addr1 Addr2  Stmt Lv Lineno    Source Statement           (Hibal 5, Asmedit 3.3)  HLASM R4.0  2004/03/15 12.56
+___    ______ ____    _____ _____  ____ __ ______    ______ _________
0                                  37531              ¿þþþþþþþþþþþþþþþþþþþþþþþþþþþþþþþþþþþþþþþþþþþþþþþþþþþþþþþþþþþþþþþþþþþþþÜ
                                   37532              Ÿ                                                                     Ÿ
                                   37533              Ÿ  XCOMMAND - Returns pending command.                                Ÿ
                                   37534              Ÿ                                                                     Ÿ
                                   37535              Ÿ  See comments at the start of this module.                          Ÿ
                                   37536              Ÿ                                                                     Ÿ
                                                      ¾þþþþþþþþþþþþþþþþþþþþþþþþþþþþþþþþþþþþþþþþþþþþþþþþþþþþþþþþþþþþþþþþþþþþþ»
0004BBE 50E0 D000/9008_      00000 37537              FNXCMD   PROC  ,
 USING  *,R7
                                   37576
 004BD8 5820 B8C8/1222       008C8 37577                       LT    R2,CPXCMDP
 004BDE 4770 700E/1B11_      04BE6 37581                       IF    Z,'CLEAR R1,R0'     No pending command
 004BE6 7012/47F0 701A_04BE6 04BE0 37603                       ELSE  'SETMSG LA:@R2+2,LH:@R2'
                                   37630
 004BF2 D74F 6000 6000_00000 00000 37631                       VRETURN STRING,(R1),(R0)
 USING  VNENTRY,R6
 DROP   VNENTRY,R6
 004C0E 18D8/9808 D004_            37715                       PEND
 DROP   *,R7
1SYSV     (SYSV4072) (12:56) (15MAR04) System Routines for Variables                                                        Page  169
0Current Usings:  (CP,R11) (CV,R12)
0Loc    Object Code    Addr1 Addr2  Stmt Lv Lineno    Source Statement           (Hibal 5, Asmedit 3.3)  HLASM R4.0  2004/03/15 12.56
+___    ______ ____    _____ _____  ____ __ ______    ______ _________
0                                  37736              ¿þþþþþþþþþþþþþþþþþþþþþþþþþþþþþþþþþþþþþþþþþþþþþþþþþþþþþþþþþþþþþþþþþþþþþÜ
                                   37737              Ÿ                                                                     Ÿ
                                   37738              Ÿ                                                                     Ÿ
                                   37739              Ÿ  XDATE - ARPA FORMAT TIME STAMP                                     Ÿ
                                   37740              Ÿ                                                                     Ÿ
                                   37741              Ÿ  SEE COMMENTS AT START OF THIS MODULE                               Ÿ
                                   37742              Ÿ                                                                     Ÿ
                                                      ¾þþþþþþþþþþþþþþþþþþþþþþþþþþþþþþþþþþþþþþþþþþþþþþþþþþþþþþþþþþþþþþþþþþþþþ»
0004C1C 50E0 D000/9008_      00000 37743              FNXDATE  PROC  ,
 USING  *,R7
 004C36 18FD/41D0 D100             37782                       XPUSH  ,,MAXSTRLN,PTR=R15
 004C3C 58E0 70F2/0DEE       04D28 37785                       VCALL LOCALTOD
 004C42 58E0 70F6/0DEE       04D2C 37789                       VCALL FMTXDATE            IN CR MODULE
 004C48 D20E 100C 100E 0000C 0000E 37793                       MVC   12(15,R1),14(R1)    Squeeze out century
 004C4E 5B00 70FA            04D30 37794                       S     R0,=F'2'
 004C52 D74F 6000 6000_00000 00000 37795                       VRETURN STRING,(R1),(R0)
 USING  VNENTRY,R6
 DROP   VNENTRY,R6
 004C6E 4BD0 7100            04D36 37879                       XPOP  ,,MAXSTRLN
 004C72 18D8/9808 D004_            37881                       PEND
 DROP   *,R7
1SYSV     (SYSV4072) (12:56) (15MAR04) System Routines for Variables                                                        Page  170
0Current Usings:  (CP,R11) (CV,R12)
0Loc    Object Code    Addr1 Addr2  Stmt Lv Lineno    Source Statement           (Hibal 5, Asmedit 3.3)  HLASM R4.0  2004/03/15 12.56
+___    ______ ____    _____ _____  ____ __ ______    ______ _________
0                                  37902              ¿þþþþþþþþþþþþþþþþþþþþþþþþþþþþþþþþþþþþþþþþþþþþþþþþþþþþþþþþþþþþþþþþþþþþþÜ
                                   37903              Ÿ                                                                     Ÿ
                                   37904              Ÿ                                                                     Ÿ
                                   37905              Ÿ  XDATEF - ARPA FORMAT TIME STAMP WITH CENTURY                       Ÿ
                                   37906              Ÿ                                                                     Ÿ
                                   37907              Ÿ  SEE COMMENTS AT START OF THIS MODULE                               Ÿ
                                   37908              Ÿ                                                                     Ÿ
                                                      ¾þþþþþþþþþþþþþþþþþþþþþþþþþþþþþþþþþþþþþþþþþþþþþþþþþþþþþþþþþþþþþþþþþþþþþ»
0004C80 50E0 D000/9008_      00000 37909              FNXDATEF PROC  ,
 USING  *,R7
 004C9A 18FD/41D0 D100             37948                       XPUSH  ,,MAXSTRLN,PTR=R15
 004CA0 58E0 708E/0DEE       04D28 37951                       VCALL LOCALTOD
 004CA6 58E0 7092/0DEE       04D2C 37955                       VCALL FMTXDATE           IN CR MODULE
 004CAC D74F 6000 6000_00000 00000 37959                       VRETURN STRING,(R1),(R0)
 USING  VNENTRY,R6
 DROP   VNENTRY,R6
 004CC8 4BD0 709C            04D36 38043                       XPOP  ,,MAXSTRLN
 004CCC 18D8/9808 D004_            38045                       PEND
 DROP   *,R7
                                   38065                       QLTORG
1SYSV     (SYSV4072) (12:56) (15MAR04) System Routines for Variables                                                        Page  171
0Current Usings:  (CP,R11) (CV,R12)
0Loc    Object Code    Addr1 Addr2  Stmt Lv Lineno    Source Statement           (Hibal 5, Asmedit 3.3)  HLASM R4.0  2004/03/15 12.56
+___    ______ ____    _____ _____  ____ __ ______    ______ _________
0                                  38091              ¿þþþþþþþþþþþþþþþþþþþþþþþþþþþþþþþþþþþþþþþþþþþþþþþþþþþþþþþþþþþþþþþþþþþþþÜ
                                   38092              Ÿ                                                                     Ÿ
                                   38093              Ÿ                                                                     Ÿ
                                   38094              Ÿ  XDUMP                                                              Ÿ
                                   38095              Ÿ                                                                     Ÿ
                                   38096              Ÿ  SEE COMMENTS AT START OF THIS MODULE                               Ÿ
                                   38097              Ÿ                                                                     Ÿ
                                                      ¾þþþþþþþþþþþþþþþþþþþþþþþþþþþþþþþþþþþþþþþþþþþþþþþþþþþþþþþþþþþþþþþþþþþþþ»
0004D56 50E0 D000/9008_      00000 38098              FNXDUMP  PROC  ,
 USING  *,R7
 004D70 9180 B7E4/47E0_007E4       38137                       IF    CPFXDUMP,BEGIN
 004D78 D74F 6000 6000_00000 00000 38152  1                      VRETURN BOOLEAN,TRUE
 USING  VNENTRY,R6
 DROP   VNENTRY,R6
 004D8A                            38191                       END
 004D8A 701E/47F0 7030 04D8A 04D76 38195                       ELSE  BEGIN
 004D8E D74F 6000 6000_00000 00000 38206  1                      VRETURN BOOLEAN,FALSE
 USING  VNENTRY,R6
 DROP   VNENTRY,R6
 004DA0                            38245                       END
 004DA0 18D8/9808 D004_            38249                       PEND
 DROP   *,R7
1SYSV     (SYSV4072) (12:56) (15MAR04) System Routines for Variables                                                        Page  172
0Current Usings:  (CP,R11) (CV,R12)
0Loc    Object Code    Addr1 Addr2  Stmt Lv Lineno    Source Statement           (Hibal 5, Asmedit 3.3)  HLASM R4.0  2004/03/15 12.56
+___    ______ ____    _____ _____  ____ __ ______    ______ _________
0                                  38270              ¿þþþþþþþþþþþþþþþþþþþþþþþþþþþþþþþþþþþþþþþþþþþþþþþþþþþþþþþþþþþþþþþþþþþþþÜ
                                   38271              Ÿ                                                                     Ÿ
                                   38272              Ÿ  XLINE -- Return the Milten line number of this session.            Ÿ
                                   38273              Ÿ                                                                     Ÿ
                                   38274              Ÿ  SEE COMMENTS AT START OF THIS MODULE                               Ÿ
                                   38275              Ÿ                                                                     Ÿ
                                                      ¾þþþþþþþþþþþþþþþþþþþþþþþþþþþþþþþþþþþþþþþþþþþþþþþþþþþþþþþþþþþþþþþþþþþþþ»
0004DAE 50E0 D000/9008_      00000 38276              FNXLINE  PROC  ,
 USING  *,R7
 004DC8 5850 C1C8            001C8 38315                       L     R5,CVCURJCB
 USING  JCB,R5                     38316                       WITH  (JCB,R5)
 004DCC D74F 6000 6000_00000 00000 38329                       VRETURN INTEGER,LH:JCBSEQ  Milten line number
 USING  VNENTRY,R6
 DROP   VNENTRY,R6
 004DE8 18D8/9808 D004_            38375                       PEND
 DROP   JCB,R5
 DROP   *,R7
1SYSV     (SYSV4072) (12:56) (15MAR04) System Routines for Variables                                                        Page  173
0Current Usings:  (CP,R11) (CV,R12)
0Loc    Object Code    Addr1 Addr2  Stmt Lv Lineno    Source Statement           (Hibal 5, Asmedit 3.3)  HLASM R4.0  2004/03/15 12.56
+___    ______ ____    _____ _____  ____ __ ______    ______ _________
0                                  38401              ¿þþþþþþþþþþþþþþþþþþþþþþþþþþþþþþþþþþþþþþþþþþþþþþþþþþþþþþþþþþþþþþþþþþþþþÜ
                                   38402              Ÿ                                                                     Ÿ
                                   38403              Ÿ                                                                     Ÿ
                                   38404              Ÿ  XQUIET                                                             Ÿ
                                   38405              Ÿ                                                                     Ÿ
                                   38406              Ÿ  SEE COMMENTS AT START OF THIS MODULE                               Ÿ
                                   38407              Ÿ                                                                     Ÿ
                                                      ¾þþþþþþþþþþþþþþþþþþþþþþþþþþþþþþþþþþþþþþþþþþþþþþþþþþþþþþþþþþþþþþþþþþþþþ»
0004DF6 50E0 D000/9008_      00000 38408              FNXQUIET PROC  ,
 USING  *,R7
 004E10 9140 B7E4/47E0_007E4       38447                       IF    CPFXQT,BEGIN
 004E18 D74F 6000 6000_00000 00000 38462  1                      VRETURN BOOLEAN,TRUE
 USING  VNENTRY,R6
 DROP   VNENTRY,R6
 004E2A                            38501                       END
 004E2A 701E/47F0 7030 04E2A 04E16 38505                       ELSE  BEGIN
 004E2E D74F 6000 6000_00000 00000 38516  1                      VRETURN BOOLEAN,FALSE
 USING  VNENTRY,R6
 DROP   VNENTRY,R6
 004E40                            38555                       END
 004E40 18D8/9808 D004_            38559                       PEND
 DROP   *,R7
                                   38579                       QLTORG
                                   38594
                                   38595                       VLTORG
 004E70                04E70 04E70 38603                       END   .

1SYSV     (SYSV4072) (12:56) (15MAR04) Relocation Dictionary                                                                Page  174
-   Pos.Id   Rel.Id   Flags    Address                                                       HLASM R4.0  2004/03/15 12.56
0  00000001 00000001    0C    00000104
   00000001 00000001    0C    00000108
   00000001 00000001    0C    00000128
   00000001 00000001    0C    0000013C
   00000001 00000001    0C    00000150
   00000001 00000001    0C    00000164
   00000001 00000001    0C    00000178
   00000001 00000001    0C    0000018C
   00000001 00000001    0C    000001A0
   00000001 00000001    0C    000001B4
   00000001 00000001    0C    000001C8
   00000001 00000001    0C    000001DC
   00000001 00000001    0C    000001F0
   00000001 00000001    0C    00000204
   00000001 00000001    0C    00000218
   00000001 00000001    0C    0000022C
   00000001 00000001    0C    00000240
   00000001 00000001    0C    00000254
   00000001 00000001    0C    00000268
   00000001 00000001    0C    0000027C
   00000001 00000001    0C    00000290
   00000001 00000001    0C    000002A4
   00000001 00000001    0C    000002B8
   00000001 00000001    0C    000002CC
   00000001 00000001    0C    000002E0
   00000001 00000001    0C    000002F4
   00000001 00000001    0C    00000308
   00000001 00000001    0C    0000031C
   00000001 00000001    0C    00000330
   00000001 00000001    0C    00000344
   00000001 00000001    0C    00000358
   00000001 00000001    0C    0000036C
   00000001 00000001    0C    00000380
   00000001 00000001    0C    00000394
   00000001 00000001    0C    000003A8
   00000001 00000001    0C    000003BC
   00000001 00000001    0C    000003D0
   00000001 00000001    0C    000003E4
   00000001 00000001    0C    000003F8
   00000001 00000001    0C    0000040C
   00000001 00000001    0C    00000420
   00000001 00000001    0C    00000434
   00000001 00000001    0C    00000448
   00000001 00000001    0C    0000045C
   00000001 00000001    0C    00000470
   00000001 00000001    0C    00000484
   00000001 00000001    0C    00000498
   00000001 00000001    0C    000004AC
   00000001 00000001    0C    000004C0
   00000001 00000001    0C    000004D4
   00000001 00000001    0C    000004E8
   00000001 00000001    0C    000004FC
   00000001 00000001    0C    00000510
   00000001 00000001    0C    00000524
   00000001 00000001    0C    00000538
1SYSV     (SYSV4072) (12:56) (15MAR04) Relocation Dictionary                                                                Page  175
   00000001 00000001    0C    0000054C
   00000001 00000001    0C    00000560
   00000001 00000001    0C    00000588
   00000001 00000001    0C    0000059C
   00000001 00000001    0C    000005B0
   00000001 00000001    0C    000005C4
   00000001 00000001    0C    000005D8
   00000001 00000001    0C    000005EC
   00000001 00000001    0C    00000600
   00000001 00000001    0C    00000614
   00000001 00000001    0C    00000628
   00000001 00000001    0C    00000650
   00000001 00000001    0C    00000664
   00000001 00000001    0C    00000678
   00000001 00000001    0C    0000068C
   00000001 00000001    0C    000006A0
   00000001 00000001    0C    000006B4
   00000001 00000001    0C    000006C8
   00000001 00000001    0C    000006DC
   00000001 00000001    0C    000006F0
   00000001 00000001    0C    00000704
   00000001 00000001    0C    00000718
   00000001 00000001    0C    0000072C
   00000001 00000001    0C    00000740
   00000001 00000001    0C    00000754
   00000001 00000001    0C    00000768
   00000001 00000001    0C    0000077C
   00000001 00000001    0C    00000790
   00000001 00000001    0C    000007A4
   00000001 00000001    0C    000007B8
   00000001 00000001    0C    000007CC
   00000001 00000001    0C    000007E0
   00000001 00000001    0C    000007F4
   00000001 00000001    0C    00000808
   00000001 00000001    0C    0000081C
   00000001 00000001    0C    00000830
   00000001 00000001    0C    00000844
   00000001 00000001    0C    00000858
   00000001 00000001    0C    0000086C
   00000001 00000001    0C    00000880
   00000001 00000001    0C    00000894
   00000001 00000001    0C    000008A8
   00000001 00000001    0C    000008BC
   00000001 00000001    0C    000008D0
   00000001 00000001    0C    000008E4
   00000001 00000001    0C    000008F8
   00000001 00000001    0C    0000090C
   00000001 00000001    0C    00000934
   00000001 00000001    0C    00000948
   00000001 00000001    0C    0000095C
   00000001 00000001    0C    00000970
   00000001 00000001    0C    00000984
   00000001 00000001    0C    00000998
   00000001 00000001    0C    000009AC
   00000001 00000001    0C    000009C0
   00000001 00000001    0C    000009D4
   00000001 00000001    0C    000009E8
   00000001 00000001    0C    000009FC
   00000001 00000001    0C    00000A10
1SYSV     (SYSV4072) (12:56) (15MAR04) Relocation Dictionary                                                                Page  176
   00000001 00000001    0C    00000A24
   00000001 00000001    0C    00000A38
   00000001 00000001    0C    00000A60
   00000001 00000001    0C    00000A74
   00000001 00000001    0C    00000A88
   00000001 00000001    0C    00000A9C
   00000001 00000001    0C    00000AB0
   00000001 00000001    0C    00000AC4
   00000001 00000001    0C    00000AD8
   00000001 00000001    0C    00000AEC
   00000001 00000001    0C    00000B00
   00000001 00000001    0C    00000B14
   00000001 00000001    0C    00000B28
   00000001 00000001    0C    00000B3C
   00000001 00000001    0C    00000B50
   00000001 00000001    0C    00000B64
   00000001 00000001    0C    00000B78
   00000001 00000001    0C    00000B8C
   00000001 00000001    0C    00000BA0
   00000001 00000001    0C    00000BB4
   00000001 00000001    0C    00000BC8
   00000001 00000001    0C    00000BDC
   00000001 00000001    0C    00000BF0
   00000001 00000001    0C    00000C04
   00000001 00000001    0C    00000C18
   00000001 00000001    0C    00000C2C
   00000001 00000001    0C    00000C40
   00000001 00000001    0C    00000C54
   00000001 00000001    0C    00000C68
   00000001 00000001    0C    00000C7C
   00000001 00000001    0C    00000C90
   00000001 00000001    0C    00000CA4
   00000001 00000001    0C    00000CB8
   00000001 00000001    0C    00000CCC
   00000001 00000001    0C    00000CE0
   00000001 00000001    0C    00000CF4
   00000001 00000001    0C    00000D08
   00000001 00000001    0C    00000D1C
   00000001 00000001    0C    00000D30
   00000001 00000001    0C    00000D44
   00000001 00000001    0C    00000D58
   00000001 00000001    0C    00000D6C
   00000001 00000001    0C    00000D80
   00000001 00000001    0C    00000D94
   00000001 00000001    0C    00000DA8
   00000001 00000001    0C    00000DBC
   00000001 00000001    0C    00000DD0
   00000001 00000001    0C    00000DE4
   00000001 00000001    0C    00000DF8
   00000001 00000001    0C    00000E0C
   00000001 00000001    0C    00000E20
   00000001 00000001    0C    00000E34
   00000001 00000001    0C    00000E48
   00000001 00000001    0C    00001188
   00000001 00000001    0C    000016B0
   00000001 00000001    0C    000017BC
   00000001 00000001    0C    000019CC
   00000001 00000001    0C    00002384
   00000001 00000001    0C    00002BA0
1SYSV     (SYSV4072) (12:56) (15MAR04) Relocation Dictionary                                                                Page  177
   00000001 00000001    0C    00002BD8
   00000001 00000001    0C    000036C8
   00000001 00000001    0C    000039D0
   00000001 00000001    0C    00003FA4
   00000001 00000001    0C    00003FA8
   00000001 00000001    0C    00004744
   00000001 00000001    0C    00004990
   00000001 00000001    0C    00004D00
   00000001 00000002    1C    00000100
   00000001 00000003    1C    0000010C
   00000001 00000004    1C    00000110
   00000001 00000005    1C    00000114
   00000001 00000006    1C    00001180
   00000001 00000007    1C    00001184
   00000001 00000007    1C    000016C0
   00000001 00000007    1C    000023B8
   00000001 00000007    1C    00002BAC
   00000001 00000007    1C    00003704
   00000001 00000007    1C    000039CC
   00000001 00000007    1C    00003FA0
   00000001 00000007    1C    00004748
   00000001 00000007    1C    000049B0
   00000001 00000007    1C    00004D0C
   00000001 00000007    1C    00004E68
   00000001 00000008    1C    000011A4
   00000001 00000008    1C    000019C8
   00000001 00000008    1C    00002380
   00000001 00000008    1C    00003708
   00000001 00000008    1C    00004740
   00000001 00000009    1C    000016C4
   00000001 00000009    1C    000017B8
   00000001 00000009    1C    000019AC
   00000001 00000009    1C    00002388
   00000001 00000009    1C    00002BA4
   00000001 00000009    1C    000036F4
   00000001 00000009    1C    000039C8
   00000001 00000009    1C    00003FB8
   00000001 00000009    1C    00004750
   00000001 00000009    1C    00004D08
   00000001 0000000A    1C    000016C8
   00000001 0000000A    1C    00003FAC
   00000001 0000000A    1C    00004D28
   00000001 0000000B    1C    000016CC
   00000001 0000000C    1C    000016D4
   00000001 0000000D    1C    000019A8
   00000001 0000000E    1C    0000239C
   00000001 0000000E    1C    00002BDC
   00000001 0000000F    1C    000023A0
   00000001 00000010    1C    000023A4
   00000001 00000010    1C    00002BE0
   00000001 00000011    1C    00002BD0
   00000001 00000012    1C    00002BD4
   00000001 00000012    1C    000036D8
   00000001 00000013    1C    00002BF0
   00000001 00000014    1C    000036E8
   00000001 00000015    1C    000036EC
   00000001 00000016    1C    000036F0
   00000001 00000017    1C    000036FC
   00000001 00000018    1C    00003700
1SYSV     (SYSV4072) (12:56) (15MAR04) Relocation Dictionary                                                                Page  178
   00000001 00000018    1C    00004D04
   00000001 00000019    1C    00003718
   00000001 0000001A    1C    0000371C
   00000001 0000001B    1C    00003720
   00000001 0000001C    1C    00003FB0
   00000001 0000001D    1C    00003FB4
   00000001 0000001E    1C    0000474C
   00000001 0000001F    1C    00004754
   00000001 00000020    1C    00004994
   00000001 00000021    1C    00004D2C

1SYSV     (SYSV4072) (12:56) (15MAR04) Ordinary Symbol and Literal Cross Reference                                          Page  179
-Symbol   Length   Value     Id    R Type   Defn References                                  HLASM R4.0  2004/03/15 12.56
0$$$@R0        1 00000000 FFFFFFFE     J     705  1173
 $$$@R10       1 00000000 FFFFFFF4     J     835  1237
 $$$@R11       1 00000000 FFFFFFF3     J     848  1250
 $$$@R12       1 00000000 FFFFFFF2     J     861  1263
 $$$@R13       1 00000000 FFFFFFF1     J     874  1276
 $$$@R14       1 00000000 FFFFFFF0     J     887  1289
 $$$@R7        1 00000000 FFFFFFF7     J     796  1186
 $$$@R8        1 00000000 FFFFFFF6     J     809  1199   1211
 $$$@R9        1 00000000 FFFFFFF5     J     822  1224
 $$$C1WYLSYSV
               1 00000118 00000001     J    9728  9730
 $$$C10WYLSYSV
               1 00003770 00000001     J   28318 28320  28699  28891  29083  29275
 $$$C11WYLSYSV
               1 00003A04 00000001     J   29506 29508  29863  30032  30191  30494  30683  30842  31001  31278  31770
                                                 31950
 $$$C12WYLSYSV
               1 00004064 00000001     J   32307 32309  32878  33137  33377  33536  33806  33960  34023  34164  34886
                                                 35128  35196  35438
 $$$C13WYLSYSV
               1 0000478E 00000001     J   35681 35683  35804  36288  36500
 $$$C14WYLSYSV
               1 000049D2 00000001     J   36663 36665  36787  36946  37700  37864  38028
 $$$C15WYLSYSV
               1 00004D56 00000001     J   38085 38087
 $$$C16WYLSYSV
               1 00004E6C 00000001     J   38589 38591
 $$$C17WYLSYSV
               1 00004E70 00000001     J   38606 38608
 $$$C2WYLSYSV
               1 00000E60 00000001     J   10610 10612  10667  11119  11393  11804  12044
 $$$C3WYLSYSV
               1 000011E4 00000001     J   12103 12105  12229  12456  12704  12888  13067  13563  13956  14121  14285
 $$$C4WYLSYSV
               1 00001720 00000001     J   14344 14346  14583
 $$$C5WYLSYSV
               1 000017C6 00000001     J   14633 14635  14880
 $$$C6WYLSYSV
               1 0000187A 00000001     J   14926 14928  15420
 $$$C7WYLSYSV
               1 000019D6 00000001     J   15481 15483  15686  15926  16086  16379  16832  16979  17312  17419  17870
                                                 18063  18257  18416  18574  18949  19236  19355  19448  19606  19907
                                                 20067  20268
 $$$C8WYLSYSV
               1 0000246A 00000001     J   20345 20347  20470  20625  21144  21418  21764  21919  22074  22387  22701
                                                 23387  23578
 $$$C9WYLSYSV
               1 00002C98 00000001     J   23654 23656  23779  24614  24771  25710  25990  27089  27248  27414  27584
                                                 27909  28245
 $$$D10WYLSYSV
               1 000039EC 00000001     J   28319 28688  28880  29072  29264
 $$$D11WYLSYSV
               1 00004028 00000001     J   29507 29852  30021  30180  30483  30672  30831  30990  31267  31759  31939
 $$$D12WYLSYSV
               1 00004758 00000001     J   32308 32867  33126  33366  33525  33795  33949  34153  35117  35427
1SYSV     (SYSV4072) (12:56) (15MAR04) Ordinary Symbol and Literal Cross Reference                                          Page  180
 $$$D13WYLSYSV
               1 000049BF 00000001     J   35682 35793  36277  36489
 $$$D14WYLSYSV
               1 00004D38 00000001     J   36664 36776  36935  37689  37853  38017
 $$$D2WYLSYSV
               1 000011CC 00000001     J   10611 11108  11382  11793  12033
 $$$D3WYLSYSV
               1 000016EA 00000001     J   12104 12218  12445  12693  12877  13056  13552  13945  14110  14274
 $$$D4WYLSYSV
               1 000017C0 00000001     J   14345 14572
 $$$D5WYLSYSV
               1 00001874 00000001     J   14634 14869
 $$$D6WYLSYSV
               1 000019D0 00000001     J   14927 15409
 $$$D7WYLSYSV
               1 000023F2 00000001     J   15482 15675  15915  16075  16368  16821  17301  17408  17859  18052  18246
                                                 18405  18563  18938  19225  19344  19437  19595  19896  20056  20257
 $$$D8WYLSYSV
               1 00002C5B 00000001     J   20346 20459  20614  21133  21407  21753  21908  22063  22376  23376  23567
 $$$D9WYLSYSV
               1 0000372E 00000001     J   23655 23768  24603  24760  25699  25979  27078  27237  27403  27573  27898
                                                 28234
 $$$RBSINFO
               1 00000000 FFFFFFE0     J    8704  8724   8724
 $$$RCP        1 00000000 FFFFFFEC     J    2620  4880   6354   6354
 $$$RCV        1 00000000 FFFFFFEE     J    1345  2530   2530
 $$$RDEV       1 00000000 FFFFFFEB     J    4834  4879   4879
 $$$RFFINFO
               1 00000000 FFFFFFE1     J    8477  8686   8686
 $$$RFNIDLWA
               1 00000000 FFFFFFD8     J   34009 34022  34022
 $$$RFNVJNWA
               1 00000000 FFFFFFD6     J   35182 35195  35195
 $$$RFNVJWA
               1 00000000 FFFFFFD7     J   34872 34885  34885
 $$$RFNWA      1 00000000 FFFFFFDB     J   10653 10666  10666
 $$$RIPWA      1 00000000 FFFFFFDA     J   16877 16978  16978
 $$$RJCB       1 00000000 FFFFFFE4     J    7894  8168   8168
 $$$RKWR       1 00000000 FFFFFFE3     J    8174  8378   8378
 $$$RMACHWA
               1 00000000 FFFFFFD9     J   22598 22700  22700
 $$$RNSCNCB
               1 00000000 FFFFFFED     J    2541  2614   2614
 $$$RRTNENTRY
               1 00000000 FFFFFFDC     J    9214  9229   9229
 $$$RSIN       1 00000000 FFFFFFE2     J    8384  8455   8455
 $$$RTTYPE
               1 00000000 FFFFFFEA     J    6365  6466   6466
 $$$RUSERCVT
               1 00000000 FFFFFFE5     J    7804  7887   7887
 $$$RVNENTRY
               1 00000000 FFFFFFDF     J    8738  9037   9037
 $$$RVPARM
               1 00000000 FFFFFFDE     J    9050  9064   9064
 $$$RXSENTRY
               1 00000000 FFFFFFDD     J    9096  9203   9203
 $$$SEGCB0
               4 00000050 FFFFFFEC     F    2651  2737   2737
 $$$SEGCB300
1SYSV     (SYSV4072) (12:56) (15MAR04) Ordinary Symbol and Literal Cross Reference                                          Page  181
               4 00000040 FFFFFFDA     F   16885 16971  16971
 $$$SEGCB497
               4 00000004 FFFFFFD9     F   22607 22693  22693
 $$$Z7         4 0000233C 00000001     F   20315 19157  19276
 $$$100F       2 00000F76 00000001     H   11124 11097B
 $$$1000E      2 00004D8E 00000001     H   38204 38198
 $$$1000F      2 00004DA0 00000001     H   38248 38200B
 $$$1001       1 00000050 00000001 A   U   38266 38263  38265
 $$$1003B      1 00004DC8 00000001     X   38299 38306U
 $$$1004       1 00000050 00000001 A   U   38397 38394  38396
 $$$1006B      1 00004E10 00000001     X   38431 38438U
 $$$1007B      4 00004E14 00000001     I   38457 38507
 $$$1007F      2 00004E2A 00000001     H   38504 38457B 38506
 $$$1008E      2 00004E2E 00000001     H   38514 38508
 $$$1008F      2 00004E40 00000001     H   38558 38510B
 $$$1009       1 00000050 00000001 A   U   38576 38573  38575
 $$$101        6 000011CC 00000001     I   11114 11106X
 $$$102        6 000011CC 00000001     I   11113 11114  11114
 $$$103        1 00000050 00000001 A   U   11156 11153  11155
 $$$105B       1 00000FA6 00000001     X   11190 11197U
 $$$106        1 00000050 00000001 A   U   11270 11267  11269
 $$$108B       1 00000FEA 00000001     X   11304 11311U
 $$$109F       2 0000100C 00000001     H   11398 11371B
 $$$110        6 000011D2 00000001     I   11388 11380X
 $$$111        6 000011D2 00000001     I   11387 11388  11388
 $$$112        1 00000050 00000001 A   U   11430 11427  11429
 $$$114B       1 0000103C 00000001     X   11464 11471U
 $$$115B       4 00001040 00000001     I   11490 11540
 $$$115F       2 00001056 00000001     H   11537 11490B 11539
 $$$116E       2 0000105A 00000001     H   11547 11541
 $$$116F       2 0000106C 00000001     H   11591 11543B
 $$$117        1 00000050 00000001 A   U   11609 11606  11608
 $$$119B       1 00001094 00000001     X   11645 11652U
 $$$120B       4 00001098 00000001     I   11682 11719
 $$$120F       2 000010B4 00000001     H   11714 11682B 11718
 $$$121F       2 000010B4 00000001     H   11710 11700B
 $$$122E       2 000010B8 00000001     H   11726 11720
 $$$122F       2 000010C0 00000001     H   11733 11722B
 $$$123F       2 000010DA 00000001     H   11809 11782B
 $$$124        6 000011D8 00000001     I   11799 11791X
 $$$125        6 000011D8 00000001     I   11798 11799  11799
 $$$126        1 000001A0 00000001 A   U   11841 11838  11840
 $$$128B       1 00001104 00000001     X   11877 11884U
 $$$129B       4 00001108 00000001     I   11914 11953
 $$$129F       2 00001124 00000001     H   11948 11914B 11952
 $$$130F       2 00001124 00000001     H   11944 11932B
 $$$131E       2 00001128 00000001     H   11960 11954
 $$$131F       2 0000112C 00000001     H   11973 11956B
 $$$132F       2 00001146 00000001     H   12049 12022B
 $$$133        6 000011DE 00000001     I   12039 12031X
 $$$134        6 000011DE 00000001     I   12038 12039  12039
 $$$135        1 000001A0 00000001 A   U   12081 12078  12080
 $$$137B       1 000011FE 00000001     X   12140 12147U
 $$$138F       2 00001220 00000001     H   12234 12207B
 $$$139        6 000016EA 00000001     I   12224 12216X
 $$$140        6 000016EA 00000001     I   12223 12224  12224
 $$$141        1 00000050 00000001 A   U   12266 12263  12265
 $$$143B       1 00001250 00000001     X   12300 12307U
 $$$144F       2 00001282 00000001     H   12386 12332B
1SYSV     (SYSV4072) (12:56) (15MAR04) Ordinary Symbol and Literal Cross Reference                                          Page  182
 $$$145F       2 00001282 00000001     H   12382 12352B 12365B
 $$$145S       2 00001266 00000001     H   12344 12381B
 $$$148F       2 0000129C 00000001     H   12461 12434B
 $$$149        6 000016F0 00000001     I   12451 12443X
 $$$150        6 000016F0 00000001     I   12450 12451  12451
 $$$151        1 00000050 00000001 A   U   12493 12490  12492
 $$$153B       1 000012CC 00000001     X   12527 12534U
 $$$154F       2 0000130A 00000001     H   12634 12559B
 $$$155F       2 000012FA 00000001     H   12606 12579B 12592B
 $$$155S       2 000012E2 00000001     H   12571 12605B
 $$$158F       2 0000130A 00000001     H   12630 12618B
 $$$159F       2 00001324 00000001     H   12709 12682B
 $$$160        6 000016F6 00000001     I   12699 12691X
 $$$161        6 000016F6 00000001     I   12698 12699  12699
 $$$162        1 00000050 00000001 A   U   12741 12738  12740
 $$$164B       1 00001354 00000001     X   12775 12782U
 $$$165F       2 0000136C 00000001     H   12818 12805B
 $$$166F       2 00001386 00000001     H   12893 12866B
 $$$167        6 000016FC 00000001     I   12883 12875X
 $$$168        6 000016FC 00000001     I   12882 12883  12883
 $$$169        1 00000050 00000001 A   U   12920 12917  12919
 $$$171B       1 000013B0 00000001     X   12954 12961U
 $$$172F       2 000013C8 00000001     H   12997 12984B
 $$$173F       2 000013E2 00000001     H   13072 13045B
 $$$174        6 00001702 00000001     I   13062 13054X
 $$$175        6 00001702 00000001     I   13061 13062  13062
 $$$176        1 00000050 00000001 A   U   13099 13096  13098
 $$$178B       1 0000140C 00000001     X   13133 13140U
 $$$179        1 00000050 00000001 A   U   13213 13210  13212
 $$$181B       1 00001450 00000001     X   13247 13254U
 $$$182        1 00000050 00000001 A   U   13327 13324  13326
 $$$184B       1 00001494 00000001     X   13361 13368U
 $$$185        1 00000050 00000001 A   U   13441 13438  13440
 $$$187B       1 000014D8 00000001     X   13475 13482U
 $$$188F       2 000014FA 00000001     H   13568 13541B
 $$$189        6 00001708 00000001     I   13558 13550X
 $$$190        6 00001708 00000001     I   13557 13558  13558
 $$$191        1 00000050 00000001 A   U   13595 13592  13594
 $$$193B       1 00001524 00000001     X   13629 13636U
 $$$194        1 00000050 00000001 A   U   13709 13706  13708
 $$$196B       1 00001568 00000001     X   13743 13750U
 $$$197        1 00000050 00000001 A   U   13823 13820  13822
 $$$199B       1 000015AC 00000001     X   13857 13864U
 $$$200F       2 000015E8 00000001     H   13961 13934B
 $$$201        6 0000170E 00000001     I   13951 13943X
 $$$202        6 0000170E 00000001     I   13950 13951  13951
 $$$203        1 00000050 00000001 A   U   13990 13987  13989
 $$$205B       1 00001616 00000001     X   14025 14032U
 $$$206F       2 00001642 00000001     H   14126 14099B
 $$$207        6 00001714 00000001     I   14116 14108X
 $$$208        6 00001714 00000001     I   14115 14116  14116
 $$$209        1 00000050 00000001 A   U   14155 14152  14154
 $$$211B       1 00001670 00000001     X   14189 14196U
 $$$212F       2 0000169C 00000001     H   14290 14263B
 $$$213        6 0000171A 00000001     I   14280 14272X
 $$$214        6 0000171A 00000001     I   14279 14280  14280
 $$$215        1 00000050 00000001 A   U   14319 14316  14318
 $$$217B       1 0000173A 00000001     X   14380 14387U
 $$$218        1 00000050 00000001 A   U   14460 14457  14459
1SYSV     (SYSV4072) (12:56) (15MAR04) Ordinary Symbol and Literal Cross Reference                                          Page  183
 $$$220B       1 0000177E 00000001     X   14494 14501U
 $$$221F       2 000017A0 00000001     H   14588 14561B
 $$$222        6 000017C0 00000001     I   14578 14570X
 $$$223        6 000017C0 00000001     I   14577 14578  14578
 $$$224        1 00000050 00000001 A   U   14620 14617  14619
 $$$226B       1 000017E0 00000001     X   14669 14676U
 $$$227        1 00000050 00000001 A   U   14733 14730  14732
 $$$229B       1 0000181A 00000001     X   14767 14774U
 $$$230F       2 00001832 00000001     H   14810 14797B
 $$$231F       2 0000184C 00000001     H   14885 14858B
 $$$232        6 00001874 00000001     I   14875 14867X
 $$$233        6 00001874 00000001     I   14874 14875  14875
 $$$234        1 00000050 00000001 A   U   14912 14909  14911
 $$$236B       1 00001894 00000001     X   14962 14969U
 $$$237        1 00000050 00000001 A   U   15046 15043  15045
 $$$239B       1 000018DC 00000001     X   15080 15087U
 $$$240B       4 000018E0 00000001     I   15106 15156
 $$$240F       2 000018F6 00000001     H   15153 15106B 15155
 $$$241E       2 000018FA 00000001     H   15163 15157
 $$$241F       2 0000190C 00000001     H   15207 15159B
 $$$242        1 00000050 00000001 A   U   15225 15222  15224
 $$$244B       1 00001934 00000001     X   15261 15268U
 $$$245B       4 00001938 00000001     I   15298 15335
 $$$245F       2 00001954 00000001     H   15330 15298B 15334
 $$$246F       2 00001954 00000001     H   15326 15316B
 $$$247E       2 00001958 00000001     H   15342 15336
 $$$247F       2 00001960 00000001     H   15349 15338B
 $$$248F       2 0000197A 00000001     H   15425 15398B
 $$$249        6 000019D0 00000001     I   15415 15407X
 $$$250        6 000019D0 00000001     I   15414 15415  15415
 $$$251        1 000001A0 00000001 A   U   15462 15459  15461
 $$$253B       1 000019F0 00000001     X   15519 15526U
 $$$254B       4 000019F4 00000001     I   15556 15595
 $$$254F       2 00001A10 00000001     H   15590 15556B 15594
 $$$255F       2 00001A10 00000001     H   15586 15574B
 $$$256E       2 00001A14 00000001     H   15602 15596
 $$$256F       2 00001A18 00000001     H   15615 15598B
 $$$257F       2 00001A32 00000001     H   15691 15664B
 $$$258        6 000023F2 00000001     I   15681 15673X
 $$$259        6 000023F2 00000001     I   15680 15681  15681
 $$$260        1 000001A0 00000001 A   U   15723 15720  15722
 $$$262B       1 00001A5C 00000001     X   15759 15766U
 $$$263B       4 00001A60 00000001     I   15796 15835
 $$$263F       2 00001A7C 00000001     H   15830 15796B 15834
 $$$264F       2 00001A7C 00000001     H   15826 15814B
 $$$265E       2 00001A80 00000001     H   15842 15836
 $$$265F       2 00001A84 00000001     H   15855 15838B
 $$$266F       2 00001A9E 00000001     H   15931 15904B
 $$$267        6 000023F8 00000001     I   15921 15913X
 $$$268        6 000023F8 00000001     I   15920 15921  15921
 $$$269        1 000001A0 00000001 A   U   15963 15960  15962
 $$$271B       1 00001AC8 00000001     X   15997 16004U
 $$$272F       2 00001AEA 00000001     H   16091 16064B
 $$$273        6 000023FE 00000001     I   16081 16073X
 $$$274        6 000023FE 00000001     I   16080 16081  16081
 $$$275        1 00000050 00000001 A   U   16123 16120  16122
 $$$277B       1 00001B1A 00000001     X   16156 16163U
 $$$278        1 000001A0 00000001 A   U   16250 16247  16249
 $$$280B       1 00001B5E 00000001     X   16283 16290U
1SYSV     (SYSV4072) (12:56) (15MAR04) Ordinary Symbol and Literal Cross Reference                                          Page  184
 $$$281F       2 00001B80 00000001     H   16384 16357B
 $$$282        6 00002404 00000001     I   16374 16366X
 $$$283        6 00002404 00000001     I   16373 16374  16374
 $$$284        1 000001A0 00000001 A   U   16416 16413  16415
 $$$286B       1 00001BAA 00000001     X   16450 16457U
 $$$287        1 00000050 00000001 A   U   16522 16519  16521
 $$$289B       1 00001BE4 00000001     X   16556 16563U
 $$$290F       2 00001BF6 00000001     H   16594 16584B
 $$$291        1 00000050 00000001 A   U   16658 16655  16657
 $$$293B       1 00001C36 00000001     X   16692 16699U
 $$$294F       2 00001C4E 00000001     H   16737 16724B
 $$$295F       2 00001C5E 00000001     H   16761 16748B
 $$$296F       2 00001C78 00000001     H   16837 16810B
 $$$297        6 0000240A 00000001     I   16827 16819X
 $$$298        6 0000240A 00000001     I   16826 16827  16827
 $$$299        1 00000050 00000001 A   U   16864 16861  16863
 $$$309B       1 00001CA2 00000001     X   17007 17014U
 $$$310B       4 00001CB8 00000001     I   17071 17333
 $$$310F       2 00001D5E 00000001     H   17330 17071B 17332
 $$$311F       2 00001D5C 00000001     H   17317 17290B
 $$$312        6 00002410 00000001     I   17307 17299X
 $$$313        6 00002410 00000001     I   17306 17307  17307
 $$$314E       2 00001D62 00000001     H   17340 17334
 $$$314F       2 00001D82 00000001     H   17437 17336B
 $$$315F       2 00001D80 00000001     H   17424 17397B
 $$$316        6 00002416 00000001     I   17414 17406X
 $$$317        6 00002416 00000001     I   17413 17414  17414
 $$$318        1 000000CC 00000001 A   U   17460 17457  17459
 $$$320B       1 00001DAA 00000001     X   17496 17503U
 $$$321        1 00000050 00000001 A   U   17568 17565  17567
 $$$323B       1 00001DE4 00000001     X   17600 17607U
 $$$324B       4 00001DE8 00000001     I   17626 17677
 $$$324F       2 00001DFE 00000001     H   17674 17626B 17676
 $$$325E       2 00001E02 00000001     H   17684 17678
 $$$325F       2 00001E14 00000001     H   17729 17680B
 $$$326        1 00000050 00000001 A   U   17747 17744  17746
 $$$328B       1 00001E3C 00000001     X   17781 17788U
 $$$329F       2 00001E5E 00000001     H   17875 17848B
 $$$330        6 0000241C 00000001     I   17865 17857X
 $$$331        6 0000241C 00000001     I   17864 17865  17865
 $$$332        1 00000050 00000001 A   U   17907 17904  17906
 $$$334B       1 00001E8E 00000001     X   17940 17947U
 $$$335F       2 00001EA0 00000001     H   17992 17970B
 $$$336F       2 00001EBA 00000001     H   18068 18041B
 $$$337        6 00002422 00000001     I   18058 18050X
 $$$338        6 00002422 00000001     I   18057 18058  18058
 $$$339        1 00000050 00000001 A   U   18100 18097  18099
 $$$341B       1 00001EEA 00000001     X   18134 18141U
 $$$342F       2 00001EFC 00000001     H   18186 18164B
 $$$343F       2 00001F16 00000001     H   18262 18235B
 $$$344        6 00002428 00000001     I   18252 18244X
 $$$345        6 00002428 00000001     I   18251 18252  18252
 $$$346        1 00000050 00000001 A   U   18294 18291  18293
 $$$348B       1 00001F46 00000001     X   18327 18334U
 $$$349F       2 00001F68 00000001     H   18421 18394B
 $$$350        6 0000242E 00000001     I   18411 18403X
 $$$351        6 0000242E 00000001     I   18410 18411  18411
 $$$352        1 00000050 00000001 A   U   18453 18450  18452
 $$$354B       1 00001F98 00000001     X   18485 18492U
1SYSV     (SYSV4072) (12:56) (15MAR04) Ordinary Symbol and Literal Cross Reference                                          Page  185
 $$$355F       2 00001FBA 00000001     H   18579 18552B
 $$$356        6 00002434 00000001     I   18569 18561X
 $$$357        6 00002434 00000001     I   18568 18569  18569
 $$$358        1 00000050 00000001 A   U   18611 18608  18610
 $$$360B       1 00001FEA 00000001     X   18645 18652U
 $$$361F       2 00002002 00000001     H   18688 18675B
 $$$362F       2 00002012 00000001     H   18712 18699B
 $$$363F       2 00002022 00000001     H   18736 18723B
 $$$364F       2 00002032 00000001     H   18760 18747B
 $$$365F       2 00002042 00000001     H   18784 18771B
 $$$366F       2 00002052 00000001     H   18808 18795B
 $$$367F       2 00002072 00000001     H   18855 18819B
 $$$368F       2 00002072 00000001     H   18851 18838B
 $$$369F       2 00002082 00000001     H   18879 18866B
 $$$370F       2 0000209C 00000001     H   18954 18927B
 $$$371        6 0000243A 00000001     I   18944 18936X
 $$$372        6 0000243A 00000001     I   18943 18944  18944
 $$$373        1 00000050 00000001 A   U   18981 18978  18980
 $$$375B       1 000020C6 00000001     X   19015 19022U
 $$$376        1 00000050 00000001 A   U   19095 19092  19094
 $$$378B       1 0000210A 00000001     X   19129 19136U
 $$$379B       4 00002110 00000001     I   19158 19258
 $$$379F       2 00002138 00000001     H   19254 19158B 19257
 $$$380F       2 00002136 00000001     H   19241 19214B
 $$$381        6 00002440 00000001     I   19231 19223X
 $$$382        6 00002440 00000001     I   19230 19231  19231
 $$$383B       4 00002142 00000001     I   19277 19376
 $$$383E       2 0000213C 00000001     H   19265 19259
 $$$383F       2 0000216A 00000001     H   19373 19261B 19277B 19375
 $$$385F       2 00002168 00000001     H   19360 19333B
 $$$386        6 00002446 00000001     I   19350 19342X
 $$$387        6 00002446 00000001     I   19349 19350  19350
 $$$388E       2 0000216E 00000001     H   19383 19377
 $$$388F       2 00002192 00000001     H   19466 19379B
 $$$389F       2 00002190 00000001     H   19453 19426B
 $$$390        6 0000244C 00000001     I   19443 19435X
 $$$391        6 0000244C 00000001     I   19442 19443  19443
 $$$392        1 00000050 00000001 A   U   19484 19481  19483
 $$$394B       1 000021BA 00000001     X   19517 19524U
 $$$395F       2 000021DC 00000001     H   19611 19584B
 $$$396        6 00002452 00000001     I   19601 19593X
 $$$397        6 00002452 00000001     I   19600 19601  19601
 $$$398        1 00000050 00000001 A   U   19638 19635  19637
 $$$400B       1 00002206 00000001     X   19671 19678U
 $$$401        1 00000050 00000001 A   U   19750 19747  19749
 $$$403B       1 0000224A 00000001     X   19783 19790U
 $$$404F       2 0000225E 00000001     H   19837 19824B
 $$$405F       2 00002278 00000001     H   19912 19885B
 $$$406        6 00002458 00000001     I   19902 19894X
 $$$407        6 00002458 00000001     I   19901 19902  19902
 $$$408        1 00000050 00000001 A   U   19944 19941  19943
 $$$410B       1 000022A8 00000001     X   19978 19985U
 $$$411F       2 000022CA 00000001     H   20072 20045B
 $$$412        6 0000245E 00000001     I   20062 20054X
 $$$413        6 0000245E 00000001     I   20061 20062  20062
 $$$414        1 00000050 00000001 A   U   20099 20096  20098
 $$$416B       1 000022F4 00000001     X   20135 20142U
 $$$417F       2 00002312 00000001     H   20198 20185B
 $$$418F       2 0000232C 00000001     H   20273 20246B
1SYSV     (SYSV4072) (12:56) (15MAR04) Ordinary Symbol and Literal Cross Reference                                          Page  186
 $$$419        6 00002464 00000001     I   20263 20255X
 $$$420        6 00002464 00000001     I   20262 20263  20263
 $$$421        1 000001A0 00000001 A   U   20305 20302  20304
 $$$423B       1 00002484 00000001     X   20381 20388U
 $$$424F       2 000024A6 00000001     H   20475 20448B
 $$$425        6 00002C5C 00000001     I   20465 20457X
 $$$426        6 00002C5C 00000001     I   20464 20465  20465
 $$$427        1 00000050 00000001 A   U   20502 20499  20501
 $$$429B       1 000024D0 00000001     X   20536 20543U
 $$$430F       2 000024F2 00000001     H   20630 20603B
 $$$431        6 00002C62 00000001     I   20620 20612X
 $$$432        6 00002C62 00000001     I   20619 20620  20620
 $$$433        1 00000050 00000001 A   U   20662 20659  20661
 $$$435B       1 00002522 00000001     X   20695 20702U
 $$$436        1 00000050 00000001 A   U   20775 20772  20774
 $$$438B       1 00002566 00000001     X   20808 20815U
 $$$439F       2 00002578 00000001     H   20846 20836B
 $$$440        1 00000050 00000001 A   U   20910 20907  20909
 $$$442B       1 000025B8 00000001     X   20943 20950U
 $$$443        1 00000050 00000001 A   U   21022 21019  21021
 $$$445B       1 000025FC 00000001     X   21055 21062U
 $$$446F       2 0000261E 00000001     H   21149 21122B
 $$$447        6 00002C68 00000001     I   21139 21131X
 $$$448        6 00002C68 00000001     I   21138 21139  21139
 $$$449        1 00000050 00000001 A   U   21181 21178  21180
 $$$451B       1 0000264E 00000001     X   21215 21222U
 $$$452        1 00000050 00000001 A   U   21295 21292  21294
 $$$454B       1 00002692 00000001     X   21329 21336U
 $$$455F       2 000026B4 00000001     H   21423 21396B
 $$$456        6 00002C6E 00000001     I   21413 21405X
 $$$457        6 00002C6E 00000001     I   21412 21413  21413
 $$$458        1 00000050 00000001 A   U   21455 21452  21454
 $$$460B       1 000026E4 00000001     X   21488 21495U
 $$$461B       4 000026F2 00000001     I   21521 21538
 $$$461F       2 000026FE 00000001     H   21534 21521B 21537
 $$$462B       4 00002708 00000001     I   21556 21573
 $$$462E       2 00002702 00000001     H   21545 21539
 $$$462F       2 00002714 00000001     H   21569 21541B 21556B 21572
 $$$464B       4 0000271E 00000001     I   21591 21608
 $$$464E       2 00002718 00000001     H   21580 21574
 $$$464F       2 0000272A 00000001     H   21604 21576B 21591B 21607
 $$$466B       4 00002734 00000001     I   21626 21643
 $$$466E       2 0000272E 00000001     H   21615 21609
 $$$466F       2 00002740 00000001     H   21639 21611B 21626B 21642
 $$$468B       4 0000274A 00000001     I   21661 21677
 $$$468E       2 00002744 00000001     H   21650 21644
 $$$468F       2 00002756 00000001     H   21674 21646B 21661B 21676
 $$$470E       2 0000275A 00000001     H   21684 21678
 $$$470F       2 00002762 00000001     H   21694 21680B
 $$$471F       2 0000277C 00000001     H   21769 21742B
 $$$472        6 00002C74 00000001     I   21759 21751X
 $$$473        6 00002C74 00000001     I   21758 21759  21759
 $$$474        1 00000050 00000001 A   U   21796 21793  21795
 $$$476B       1 000027A6 00000001     X   21830 21837U
 $$$477F       2 000027C8 00000001     H   21924 21897B
 $$$478        6 00002C7A 00000001     I   21914 21906X
 $$$479        6 00002C7A 00000001     I   21913 21914  21914
 $$$480        1 00000050 00000001 A   U   21956 21953  21955
 $$$482B       1 000027F8 00000001     X   21989 21996U
1SYSV     (SYSV4072) (12:56) (15MAR04) Ordinary Symbol and Literal Cross Reference                                          Page  187
 $$$483F       2 00002814 00000001     H   22079 22052B
 $$$484        6 00002C80 00000001     I   22069 22061X
 $$$485        6 00002C80 00000001     I   22068 22069  22069
 $$$486F       2 0000287C 00000001     H   22230 22158B
 $$$488        1 00000050 00000001 A   U   22269 22266  22268
 $$$490B       1 000028B2 00000001     X   22302 22309U
 $$$491F       2 000028CE 00000001     H   22392 22365B
 $$$492        6 00002C86 00000001     I   22382 22374X
 $$$493        6 00002C86 00000001     I   22381 22382  22382
 $$$494F       2 00002936 00000001     H   22543 22471B
 $$$496        1 00000050 00000001 A   U   22582 22579  22581
 $$$506B       1 0000296C 00000001     X   22729 22736U
 $$$507F       2 000029B0 00000001     H   22852 22804B
 $$$509F       2 000029DE 00000001     H   22912 22864B
 $$$511F       2 00002A0C 00000001     H   22972 22924B
 $$$513F       2 00002A3A 00000001     H   23032 22984B
 $$$515F       2 00002A68 00000001     H   23092 23044B
 $$$517F       2 00002A96 00000001     H   23152 23104B
 $$$519F       2 00002AC4 00000001     H   23212 23164B
 $$$521        1 00000080 00000001 A   U   23248 23245  23247
 $$$523B       1 00002AF4 00000001     X   23281 23288U
 $$$524F       2 00002B1C 00000001     H   23392 23365B
 $$$525        6 00002C8C 00000001     I   23382 23374X
 $$$526        6 00002C8C 00000001     I   23381 23382  23382
 $$$527        1 00000050 00000001 A   U   23419 23416  23418
 $$$529B       1 00002B46 00000001     X   23455 23462U
 $$$530F       2 00002B5E 00000001     H   23508 23495B
 $$$531F       2 00002B78 00000001     H   23583 23556B
 $$$532        6 00002C92 00000001     I   23573 23565X
 $$$533        6 00002C92 00000001     I   23572 23573  23573
 $$$534        1 00000050 00000001 A   U   23615 23612  23614
 $$$536B       1 00002CB2 00000001     X   23690 23697U
 $$$537F       2 00002CD4 00000001     H   23784 23757B
 $$$538        6 0000372E 00000001     I   23774 23766X
 $$$539        6 0000372E 00000001     I   23773 23774  23774
 $$$540        1 00000050 00000001 A   U   23816 23813  23815
 $$$542B       1 00002D04 00000001     X   23849 23856U
 $$$543F       2 00002D62 00000001     H   24024 23956B
 $$$545F       2 00002D62 00000001     H   24020 23973B
 $$$547        1 00000050 00000001 A   U   24059 24056  24058
 $$$549B       1 00002D96 00000001     X   24092 24099U
 $$$550F       2 00002DF6 00000001     H   24269 24199B
 $$$552F       2 00002DF6 00000001     H   24265 24218B
 $$$553        1 00000050 00000001 A   U   24304 24301  24303
 $$$555B       1 00002E2A 00000001     X   24337 24344U
 $$$556        1 00000050 00000001 A   U   24494 24491  24493
 $$$558B       1 00002EC4 00000001     X   24525 24532U
 $$$559F       2 00002EE6 00000001     H   24619 24592B
 $$$560        6 00003734 00000001     I   24609 24601X
 $$$561        6 00003734 00000001     I   24608 24609  24609
 $$$562        1 00000050 00000001 A   U   24651 24648  24650
 $$$564B       1 00002F16 00000001     X   24682 24689U
 $$$565F       2 00002F38 00000001     H   24776 24749B
 $$$566        6 0000373A 00000001     I   24766 24758X
 $$$567        6 0000373A 00000001     I   24765 24766  24766
 $$$568        1 00000050 00000001 A   U   24808 24805  24807
 $$$570B       1 00002F68 00000001     X   24839 24846U
 $$$571B       4 00002F74 00000001     I   24880 24931
 $$$571F       2 00002F8A 00000001     H   24928 24880B 24930
1SYSV     (SYSV4072) (12:56) (15MAR04) Ordinary Symbol and Literal Cross Reference                                          Page  188
 $$$571T       2 00002F78 00000001     H   24883 24869B
 $$$573E       2 00002F8E 00000001     H   24938 24932
 $$$573F       2 00002FA0 00000001     H   24983 24934B
 $$$574        1 00000050 00000001 A   U   25001 24998  25000
 $$$576B       1 00002FC8 00000001     X   25032 25039U
 $$$577B       4 00002FD6 00000001     I   25072 25123
 $$$577F       2 00002FEC 00000001     H   25120 25072B 25122
 $$$578E       2 00002FF0 00000001     H   25130 25124
 $$$578F       2 00003002 00000001     H   25175 25126B
 $$$579        1 00000050 00000001 A   U   25193 25190  25192
 $$$581B       1 0000302A 00000001     X   25224 25231U
 $$$582        1 00000050 00000001 A   U   25309 25306  25308
 $$$584B       1 00003076 00000001     X   25340 25347U
 $$$585        1 00000050 00000001 A   U   25425 25422  25424
 $$$587B       1 000030C2 00000001     X   25458 25465U
 $$$588F       2 000030F2 00000001     H   25531 25519B
 $$$589        1 00000050 00000001 A   U   25554 25551  25553
 $$$591B       1 0000311A 00000001     X   25590 25597U
 $$$592F       2 00003132 00000001     H   25640 25628B
 $$$593F       2 0000314C 00000001     H   25715 25688B
 $$$594        6 00003740 00000001     I   25705 25697X
 $$$595        6 00003740 00000001     I   25704 25705  25705
 $$$596        1 000001A0 00000001 A   U   25747 25744  25746
 $$$598B       1 00003176 00000001     X   25781 25788U
 $$$599        1 00000050 00000001 A   U   25845 25842  25844
 $$$601B       1 000031B0 00000001     X   25884 25891U
 $$$602F       2 000031D8 00000001     H   25995 25968B
 $$$603        6 00003746 00000001     I   25985 25977X
 $$$604        6 00003746 00000001     I   25984 25985  25985
 $$$605        1 00000050 00000001 A   U   26022 26019  26021
 $$$606F       2 00003258 00000001     H   26190 26133B
 $$$607B       1 00003202 00000001     X   26056 26063U
 $$$608        1 00000050 00000001 A   U   26199 26196  26198
 $$$610B       1 00003280 00000001     X   26233 26240U
 $$$611B       4 00003284 00000001     I   26259 26309
 $$$611F       2 0000329A 00000001     H   26306 26259B 26308
 $$$612E       2 0000329E 00000001     H   26316 26310
 $$$612F       2 000032B0 00000001     H   26360 26312B
 $$$613        1 00000050 00000001 A   U   26378 26375  26377
 $$$615B       1 000032D8 00000001     X   26412 26419U
 $$$616B       4 000032DC 00000001     I   26438 26488
 $$$616F       2 000032F2 00000001     H   26485 26438B 26487
 $$$617E       2 000032F6 00000001     H   26495 26489
 $$$617F       2 00003308 00000001     H   26539 26491B
 $$$618        1 00000050 00000001 A   U   26557 26554  26556
 $$$620B       1 00003330 00000001     X   26591 26598U
 $$$621B       4 00003334 00000001     I   26617 26667
 $$$621F       2 0000334A 00000001     H   26664 26617B 26666
 $$$622E       2 0000334E 00000001     H   26674 26668
 $$$622F       2 00003360 00000001     H   26718 26670B
 $$$623        1 00000050 00000001 A   U   26736 26733  26735
 $$$625B       1 00003388 00000001     X   26770 26777U
 $$$626B       4 0000338C 00000001     I   26796 26846
 $$$626F       2 000033A2 00000001     H   26843 26796B 26845
 $$$627E       2 000033A6 00000001     H   26853 26847
 $$$627F       2 000033B8 00000001     H   26897 26849B
 $$$628        1 00000050 00000001 A   U   26915 26912  26914
 $$$630B       1 000033E0 00000001     X   26949 26956U
 $$$631F       2 000033FC 00000001     H   27019 27006B
1SYSV     (SYSV4072) (12:56) (15MAR04) Ordinary Symbol and Literal Cross Reference                                          Page  189
 $$$631T       2 000033FA 00000001     H   27009 26994B
 $$$633F       2 00003416 00000001     H   27094 27067B
 $$$634        6 0000374C 00000001     I   27084 27076X
 $$$635        6 0000374C 00000001     I   27083 27084  27084
 $$$636        1 00000050 00000001 A   U   27126 27123  27125
 $$$638B       1 00003446 00000001     X   27159 27166U
 $$$639F       2 00003468 00000001     H   27253 27226B
 $$$640        6 00003752 00000001     I   27243 27235X
 $$$641        6 00003752 00000001     I   27242 27243  27243
 $$$642        1 00000050 00000001 A   U   27285 27282  27284
 $$$644B       1 00003498 00000001     X   27325 27332U
 $$$645F       2 000034BA 00000001     H   27419 27392B
 $$$646        6 00003758 00000001     I   27409 27401X
 $$$647        6 00003758 00000001     I   27408 27409  27409
 $$$648        1 00000050 00000001 A   U   27451 27448  27450
 $$$650B       1 000034EA 00000001     X   27486 27493U
 $$$651F       2 0000350A 00000001     H   27589 27562B
 $$$652        6 0000375E 00000001     I   27579 27571X
 $$$653        6 0000375E 00000001     I   27578 27579  27579
 $$$654        1 000001A0 00000001 A   U   27621 27618  27620
 $$$656B       1 00003534 00000001     X   27655 27662U
 $$$657        1 00000050 00000001 A   U   27740 27737  27739
 $$$659B       1 0000357E 00000001     X   27776 27783U
 $$$660F       2 00003596 00000001     H   27839 27826B
 $$$661F       2 000035B0 00000001     H   27914 27887B
 $$$662        6 00003764 00000001     I   27904 27896X
 $$$663        6 00003764 00000001     I   27903 27904  27904
 $$$664        1 000001A0 00000001 A   U   27946 27943  27945
 $$$666B       1 000035DA 00000001     X   27980 27987U
 $$$667        1 00000050 00000001 A   U   28076 28073  28075
 $$$669B       1 00003634 00000001     X   28112 28119U
 $$$670F       2 0000364C 00000001     H   28175 28162B
 $$$671F       2 00003666 00000001     H   28250 28223B
 $$$672        6 0000376A 00000001     I   28240 28232X
 $$$673        6 0000376A 00000001     I   28239 28240  28240
 $$$674        1 000001A0 00000001 A   U   28282 28279  28281
 $$$676B       1 0000378A 00000001     X   28354 28361U
 $$$677        1 00000050 00000001 A   U   28434 28431  28433
 $$$679B       1 000037CE 00000001     X   28465 28472U
 $$$680        1 00000050 00000001 A   U   28544 28541  28543
 $$$682B       1 00003812 00000001     X   28575 28582U
 $$$683F       2 00003826 00000001     H   28629 28616B
 $$$684F       2 00003840 00000001     H   28704 28677B
 $$$685        6 000039EC 00000001     I   28694 28686X
 $$$686        6 000039EC 00000001     I   28693 28694  28694
 $$$687        1 00000050 00000001 A   U   28736 28733  28735
 $$$689B       1 00003870 00000001     X   28767 28774U
 $$$690F       2 00003884 00000001     H   28821 28808B
 $$$691F       2 0000389E 00000001     H   28896 28869B
 $$$692        6 000039F2 00000001     I   28886 28878X
 $$$693        6 000039F2 00000001     I   28885 28886  28886
 $$$694        1 00000050 00000001 A   U   28928 28925  28927
 $$$696B       1 000038CE 00000001     X   28959 28966U
 $$$697F       2 000038E2 00000001     H   29013 29000B
 $$$698F       2 000038FC 00000001     H   29088 29061B
 $$$699        6 000039F8 00000001     I   29078 29070X
 $$$700        6 000039F8 00000001     I   29077 29078  29078
 $$$701        1 00000050 00000001 A   U   29120 29117  29119
 $$$703B       1 0000392C 00000001     X   29151 29158U
1SYSV     (SYSV4072) (12:56) (15MAR04) Ordinary Symbol and Literal Cross Reference                                          Page  190
 $$$704F       2 00003940 00000001     H   29205 29192B
 $$$705F       2 0000395A 00000001     H   29280 29253B
 $$$706        6 000039FE 00000001     I   29270 29262X
 $$$707        6 000039FE 00000001     I   29269 29270  29270
 $$$708        1 00000050 00000001 A   U   29312 29309  29311
 $$$710B       1 0000398A 00000001     X   29343 29350U
 $$$711B       4 0000398E 00000001     I   29369 29420
 $$$711F       2 000039A4 00000001     H   29417 29369B 29419
 $$$712E       2 000039A8 00000001     H   29427 29421
 $$$712F       2 000039BA 00000001     H   29472 29423B
 $$$713        1 00000050 00000001 A   U   29490 29487  29489
 $$$715B       1 00003A1E 00000001     X   29546 29553U
 $$$716        1 00000050 00000001 A   U   29634 29631  29633
 $$$718B       1 00003A66 00000001     X   29667 29674U
 $$$719B       4 00003A74 00000001     I   29724 29750
 $$$719F       2 00003A80 00000001     H   29747 29724B 29749
 $$$720E       2 00003A84 00000001     H   29757 29751
 $$$720F       2 00003A8C 00000001     H   29767 29753B
 $$$721F       2 00003A96 00000001     H   29793 29780B
 $$$722F       2 00003AB0 00000001     H   29868 29841B
 $$$723        6 00004028 00000001     I   29858 29850X
 $$$724        6 00004028 00000001     I   29857 29858  29858
 $$$725        1 00000050 00000001 A   U   29910 29907  29909
 $$$727B       1 00003AE0 00000001     X   29943 29950U
 $$$728F       2 00003B02 00000001     H   30037 30010B
 $$$729        6 0000402E 00000001     I   30027 30019X
 $$$730        6 0000402E 00000001     I   30026 30027  30027
 $$$731        1 00000050 00000001 A   U   30069 30066  30068
 $$$733B       1 00003B32 00000001     X   30102 30109U
 $$$734F       2 00003B54 00000001     H   30196 30169B
 $$$735        6 00004034 00000001     I   30186 30178X
 $$$736        6 00004034 00000001     I   30185 30186  30186
 $$$737        1 00000050 00000001 A   U   30223 30220  30222
 $$$739B       1 00003B7E 00000001     X   30257 30264U
 $$$740        1 00000050 00000001 A   U   30294 30291  30293
 $$$742B       1 00003BAC 00000001     X   30328 30335U
 $$$743F       2 00003BD8 00000001     H   30414 30376B
 $$$745F       2 00003BD8 00000001     H   30410 30397B
 $$$746F       2 00003BF2 00000001     H   30499 30472B
 $$$747        6 0000403A 00000001     I   30489 30481X
 $$$748        6 0000403A 00000001     I   30488 30489  30489
 $$$749        1 00000050 00000001 A   U   30526 30523  30525
 $$$751B       1 00003C1C 00000001     X   30559 30566U
 $$$752F       2 00003C30 00000001     H   30613 30600B
 $$$753F       2 00003C4A 00000001     H   30688 30661B
 $$$754        6 00004040 00000001     I   30678 30670X
 $$$755        6 00004040 00000001     I   30677 30678  30678
 $$$756        1 00000050 00000001 A   U   30720 30717  30719
 $$$758B       1 00003C7A 00000001     X   30753 30760U
 $$$759F       2 00003C9C 00000001     H   30847 30820B
 $$$760        6 00004046 00000001     I   30837 30829X
 $$$761        6 00004046 00000001     I   30836 30837  30837
 $$$762        1 00000050 00000001 A   U   30879 30876  30878
 $$$764B       1 00003CCC 00000001     X   30912 30919U
 $$$765F       2 00003CEE 00000001     H   31006 30979B
 $$$766        6 0000404C 00000001     I   30996 30988X
 $$$767        6 0000404C 00000001     I   30995 30996  30996
 $$$768        1 00000050 00000001 A   U   31038 31035  31037
 $$$77B        1 00000032 00000001     X    9408  9415U
1SYSV     (SYSV4072) (12:56) (15MAR04) Ordinary Symbol and Literal Cross Reference                                          Page  191
 $$$770B       1 00003D1E 00000001     X   31070 31077U
 $$$771        1 00000050 00000001 A   U   31149 31146  31148
 $$$773B       1 00003D62 00000001     X   31182 31189U
 $$$774F       2 00003D8E 00000001     H   31283 31256B
 $$$775        6 00004052 00000001     I   31273 31265X
 $$$776        6 00004052 00000001     I   31272 31273  31273
 $$$777        1 00000050 00000001 A   U   31312 31309  31311
 $$$779B       1 00003DBC 00000001     X   31345 31352U
 $$$78         1 00000050 00000001 A   U    9465  9462   9464
 $$$780        1 00000050 00000001 A   U   31434 31431  31433
 $$$782B       1 00003E0E 00000001     X   31465 31472U
 $$$783F       2 00003E82 00000001     H   31691 31511B 31543B
 $$$785F       2 00003E42 00000001     H   31578 31565B
 $$$786F       2 00003E52 00000001     H   31604 31591B
 $$$787F       2 00003E62 00000001     H   31630 31617B
 $$$788F       2 00003E72 00000001     H   31656 31643B
 $$$789F       2 00003E82 00000001     H   31682 31669B
 $$$790F       2 00003E9C 00000001     H   31775 31748B
 $$$791        6 00004058 00000001     I   31765 31757X
 $$$792        6 00004058 00000001     I   31764 31765  31765
 $$$793        1 00000050 00000001 A   U   31803 31800  31802
 $$$795B       1 00003EC6 00000001     X   31837 31844U
 $$$796F       2 00003EDE 00000001     H   31880 31867B
 $$$797F       2 00003EF8 00000001     H   31955 31928B
 $$$798        6 0000405E 00000001     I   31945 31937X
 $$$799        6 0000405E 00000001     I   31944 31945  31945
 $$$80B        1 00000086 00000001     X    9511  9518U
 $$$800        1 00000050 00000001 A   U   31982 31979  31981
 $$$802B       1 00003F22 00000001     X   32016 32023U
 $$$803B       4 00003F26 00000001     I   32042 32092
 $$$803F       2 00003F3C 00000001     H   32089 32042B 32091
 $$$804E       2 00003F40 00000001     H   32099 32093
 $$$804F       2 00003F52 00000001     H   32143 32095B
 $$$805        1 00000050 00000001 A   U   32161 32158  32160
 $$$807B       1 00003F7A 00000001     X   32196 32203U
 $$$808        1 00000050 00000001 A   U   32268 32265  32267
 $$$81F        2 000000BE 00000001     H    9614  9551B
 $$$810B       1 0000407E 00000001     X   32343 32350U
 $$$811B       4 00004082 00000001     I   32369 32419
 $$$811F       2 00004098 00000001     H   32416 32369B 32418
 $$$812E       2 0000409C 00000001     H   32426 32420
 $$$812F       2 000040AE 00000001     H   32470 32422B
 $$$813        1 00000050 00000001 A   U   32488 32485  32487
 $$$815B       1 000040D6 00000001     X   32522 32529U
 $$$816B       4 000040DA 00000001     I   32548 32598
 $$$816F       2 000040F0 00000001     H   32595 32548B 32597
 $$$817E       2 000040F4 00000001     H   32605 32599
 $$$817F       2 00004106 00000001     H   32649 32601B
 $$$818        1 00000050 00000001 A   U   32667 32664  32666
 $$$82B        4 000000A8 00000001     I    9577  9597
 $$$82F        2 000000B6 00000001     H    9594  9577B  9596
 $$$820B       1 0000412E 00000001     X   32703 32710U
 $$$821B       4 00004132 00000001     I   32740 32793
 $$$821F       2 0000415C 00000001     H   32788 32740B 32792
 $$$822F       2 0000415C 00000001     H   32784 32774B
 $$$822T       2 00004154 00000001     H   32777 32765B
 $$$824E       2 00004160 00000001     H   32800 32794
 $$$824F       2 00004168 00000001     H   32807 32796B
 $$$825F       2 00004182 00000001     H   32883 32856B
1SYSV     (SYSV4072) (12:56) (15MAR04) Ordinary Symbol and Literal Cross Reference                                          Page  192
 $$$826        6 00004758 00000001     I   32873 32865X
 $$$827        6 00004758 00000001     I   32872 32873  32873
 $$$828        1 000001A0 00000001 A   U   32920 32917  32919
 $$$83E        2 000000BA 00000001     H    9604  9598
 $$$83F        2 000000BE 00000001     H    9610  9600B
 $$$830B       1 000041B2 00000001     X   32956 32963U
 $$$831B       4 000041BE 00000001     I   33007 33046
 $$$831F       2 000041DA 00000001     H   33041 33007B 33045
 $$$831T       2 000041C2 00000001     H   33010 32997B
 $$$833F       2 000041DA 00000001     H   33037 33025B
 $$$834E       2 000041DE 00000001     H   33053 33047
 $$$834F       2 000041E2 00000001     H   33066 33049B
 $$$835F       2 000041FC 00000001     H   33142 33115B
 $$$836        6 0000475E 00000001     I   33132 33124X
 $$$837        6 0000475E 00000001     I   33131 33132  33132
 $$$838        1 000001A0 00000001 A   U   33174 33171  33173
 $$$84         1 00000050 00000001 A   U    9635  9632   9634
 $$$840B       1 00004226 00000001     X   33210 33217U
 $$$841B       4 0000422A 00000001     I   33247 33286
 $$$841F       2 00004246 00000001     H   33281 33247B 33285
 $$$842F       2 00004246 00000001     H   33277 33265B
 $$$843E       2 0000424A 00000001     H   33293 33287
 $$$843F       2 0000424E 00000001     H   33306 33289B
 $$$844F       2 00004268 00000001     H   33382 33355B
 $$$845        6 00004764 00000001     I   33372 33364X
 $$$846        6 00004764 00000001     I   33371 33372  33372
 $$$847        1 000001A0 00000001 A   U   33414 33411  33413
 $$$849B       1 00004292 00000001     X   33447 33454U
 $$$850F       2 000042B4 00000001     H   33541 33514B
 $$$851        6 0000476A 00000001     I   33531 33523X
 $$$852        6 0000476A 00000001     I   33530 33531  33531
 $$$853        1 00000050 00000001 A   U   33573 33570  33572
 $$$855B       1 000042E4 00000001     X   33605 33612U
 $$$856        1 00000050 00000001 A   U   33684 33681  33683
 $$$858B       1 00004328 00000001     X   33717 33724U
 $$$859F       2 0000434A 00000001     H   33811 33784B
 $$$86B        1 000000EA 00000001     X    9674  9681U
 $$$860        6 00004770 00000001     I   33801 33793X
 $$$861        6 00004770 00000001     I   33800 33801  33801
 $$$862        1 00000050 00000001 A   U   33838 33835  33837
 $$$864B       1 00004374 00000001     X   33871 33878U
 $$$865F       2 00004396 00000001     H   33965 33938B
 $$$866        6 00004776 00000001     I   33955 33947X
 $$$867        6 00004776 00000001     I   33954 33955  33955
 $$$868        1 00000050 00000001 A   U   33997 33994  33996
 $$$87         1 00000050 00000001 A   U    9711  9708   9710
 $$$870B       1 000043C6 00000001     X   34051 34058U
 $$$871F       2 000043F2 00000001     H   34169 34142B
 $$$872        6 0000477C 00000001     I   34159 34151X
 $$$873        6 0000477C 00000001     I   34158 34159  34159
 $$$874        1 00000150 00000001 A   U   34201 34198  34200
 $$$876B       1 0000441C 00000001     X   34232 34239U
 $$$877        1 00000050 00000001 A   U   34311 34308  34310
 $$$879B       1 00004460 00000001     X   34342 34349U
 $$$880        1 00000050 00000001 A   U   34421 34418  34420
 $$$882B       1 000044A4 00000001     X   34452 34459U
 $$$883        1 00000050 00000001 A   U   34532 34529  34531
 $$$885B       1 000044E8 00000001     X   34563 34570U
 $$$886        1 00000050 00000001 A   U   34642 34639  34641
1SYSV     (SYSV4072) (12:56) (15MAR04) Ordinary Symbol and Literal Cross Reference                                          Page  193
 $$$888B       1 0000452C 00000001     X   34672 34679U
 $$$889        1 00000050 00000001 A   U   34751 34748  34750
 $$$89B        1 00000E7A 00000001     X   10699 10706U
 $$$891B       1 00004570 00000001     X   34781 34788U
 $$$892        1 00000050 00000001 A   U   34860 34857  34859
 $$$894B       1 000045B4 00000001     X   34914 34921U
 $$$895B       4 000045BA 00000001     I   34949 34968
 $$$895F       2 000045C2 00000001     H   34964 34949B 34967
 $$$896E       2 000045C6 00000001     H   34975 34969
 $$$896F       2 000045E6 00000001     H   35057 34971B
 $$$897B       4 000045D2 00000001     I   35006 35034
 $$$897F       2 000045DE 00000001     H   35031 35006B 35033
 $$$898E       2 000045E2 00000001     H   35041 35035
 $$$898F       2 000045E6 00000001     H   35053 35037B
 $$$899F       2 00004600 00000001     H   35133 35106B
 $$$90         1 00000050 00000001 A   U   10752 10749  10751
 $$$900        6 00004782 00000001     I   35123 35115X
 $$$901        6 00004782 00000001     I   35122 35123  35123
 $$$902        1 00000090 00000001 A   U   35170 35167  35169
 $$$904B       1 00004630 00000001     X   35224 35231U
 $$$905B       4 00004636 00000001     I   35259 35278
 $$$905F       2 0000463E 00000001     H   35274 35259B 35277
 $$$906E       2 00004642 00000001     H   35285 35279
 $$$906F       2 00004662 00000001     H   35367 35281B
 $$$907B       4 0000464E 00000001     I   35316 35344
 $$$907F       2 0000465A 00000001     H   35341 35316B 35343
 $$$908E       2 0000465E 00000001     H   35351 35345
 $$$908F       2 00004662 00000001     H   35363 35347B
 $$$909F       2 0000467C 00000001     H   35443 35416B
 $$$910        6 00004788 00000001     I   35433 35425X
 $$$911        6 00004788 00000001     I   35432 35433  35433
 $$$912        1 00000090 00000001 A   U   35480 35477  35479
 $$$914B       1 000046AC 00000001     X   35511 35518U
 $$$915B       4 000046B2 00000001     I   35537 35588
 $$$915F       2 000046C8 00000001     H   35585 35537B 35587
 $$$916E       2 000046CC 00000001     H   35595 35589
 $$$916F       2 000046DE 00000001     H   35640 35591B
 $$$917        1 00000050 00000001 A   U   35658 35655  35657
 $$$919B       1 000047A8 00000001     X   35715 35722U
 $$$92B        1 00000EB8 00000001     X   10786 10793U
 $$$920F       2 000047CA 00000001     H   35809 35782B
 $$$921        6 000049C0 00000001     I   35799 35791X
 $$$922        6 000049C0 00000001     I   35798 35799  35799
 $$$923        1 00000050 00000001 A   U   35841 35838  35840
 $$$925B       1 000047FA 00000001     X   35872 35879U
 $$$926B       4 00004800 00000001     I   35898 35949
 $$$926F       2 00004816 00000001     H   35946 35898B 35948
 $$$927E       2 0000481A 00000001     H   35956 35950
 $$$927F       2 0000482C 00000001     H   36001 35952B
 $$$928        1 00000050 00000001 A   U   36019 36016  36018
 $$$93F        2 00000EE8 00000001     H   10859 10847B
 $$$930B       1 00004854 00000001     X   36052 36059U
 $$$931        1 00000050 00000001 A   U   36131 36128  36130
 $$$933B       1 00004898 00000001     X   36164 36171U
 $$$934F       2 000048AC 00000001     H   36218 36205B
 $$$935F       2 000048C6 00000001     H   36293 36266B
 $$$936        6 000049C6 00000001     I   36283 36275X
 $$$937        6 000049C6 00000001     I   36282 36283  36283
 $$$938        1 00000050 00000001 A   U   36325 36322  36324
1SYSV     (SYSV4072) (12:56) (15MAR04) Ordinary Symbol and Literal Cross Reference                                          Page  194
 $$$94         1 00000050 00000001 A   U   10882 10879  10881
 $$$940B       1 000048F6 00000001     X   36360 36367U
 $$$941F       2 0000490E 00000001     H   36405 36392B
 $$$942F       2 0000491E 00000001     H   36429 36416B
 $$$943F       2 00004938 00000001     H   36505 36478B
 $$$944        6 000049CC 00000001     I   36495 36487X
 $$$945        6 000049CC 00000001     I   36494 36495  36495
 $$$946        1 00000050 00000001 A   U   36532 36529  36531
 $$$948B       1 00004962 00000001     X   36566 36573U
 $$$949        1 00000050 00000001 A   U   36645 36642  36644
 $$$951B       1 000049EC 00000001     X   36698 36705U
 $$$952F       2 00004A0E 00000001     H   36792 36765B
 $$$953        6 00004D38 00000001     I   36782 36774X
 $$$954        6 00004D38 00000001     I   36781 36782  36782
 $$$955        1 00000050 00000001 A   U   36824 36821  36823
 $$$957B       1 00004A3E 00000001     X   36857 36864U
 $$$958F       2 00004A60 00000001     H   36951 36924B
 $$$959        6 00004D3E 00000001     I   36941 36933X
 $$$96B        1 00000F10 00000001     X   10916 10923U
 $$$960        6 00004D3E 00000001     I   36940 36941  36941
 $$$961        1 00000050 00000001 A   U   36983 36980  36982
 $$$963B       1 00004A90 00000001     X   37014 37021U
 $$$964        1 00000050 00000001 A   U   37099 37096  37098
 $$$966B       1 00004ADC 00000001     X   37130 37137U
 $$$967        1 00000050 00000001 A   U   37215 37212  37214
 $$$969B       1 00004B28 00000001     X   37252 37259U
 $$$97         1 00000050 00000001 A   U   10996 10993  10995
 $$$970F       2 00004B58 00000001     H   37325 37313B
 $$$971        1 00000050 00000001 A   U   37348 37345  37347
 $$$973B       1 00004B80 00000001     X   37382 37389U
 $$$974B       4 00004B84 00000001     I   37408 37458
 $$$974F       2 00004B9A 00000001     H   37455 37408B 37457
 $$$975E       2 00004B9E 00000001     H   37465 37459
 $$$975F       2 00004BB0 00000001     H   37509 37461B
 $$$976        1 00000050 00000001 A   U   37527 37524  37526
 $$$978B       1 00004BD8 00000001     X   37560 37567U
 $$$979B       4 00004BDE 00000001     I   37587 37605
 $$$979F       2 00004BE6 00000001     H   37602 37587B 37604
 $$$980E       2 00004BEA 00000001     H   37612 37606
 $$$980F       2 00004BF2 00000001     H   37629 37608B
 $$$981F       2 00004C0C 00000001     H   37705 37678B
 $$$982        6 00004D44 00000001     I   37695 37687X
 $$$983        6 00004D44 00000001     I   37694 37695  37695
 $$$984        1 00000050 00000001 A   U   37732 37729  37731
 $$$986B       1 00004C36 00000001     X   37766 37773U
 $$$987F       2 00004C6C 00000001     H   37869 37842B
 $$$988        6 00004D4A 00000001     I   37859 37851X
 $$$989        6 00004D4A 00000001     I   37858 37859  37859
 $$$99B        1 00000F54 00000001     X   11030 11037U
 $$$990        1 00000050 00000001 A   U   37898 37895  37897
 $$$992B       1 00004C9A 00000001     X   37932 37939U
 $$$993F       2 00004CC6 00000001     H   38033 38006B
 $$$994        6 00004D50 00000001     I   38023 38015X
 $$$995        6 00004D50 00000001     I   38022 38023  38023
 $$$996        1 00000050 00000001 A   U   38062 38059  38061
 $$$998B       1 00004D70 00000001     X   38121 38128U
 $$$999B       4 00004D74 00000001     I   38147 38197
 $$$999F       2 00004D8A 00000001     H   38194 38147B 38196
 @RAR          0 00000000 FFFFFFF0     @    1290  2328   2336B
1SYSV     (SYSV4072) (12:56) (15MAR04) Ordinary Symbol and Literal Cross Reference                                          Page  195
 @R0           0 00000000 FFFFFFFE     @     706   982U
 @R1           0 00000000 FFFFFFFD     @     719   978U  2334   2335  11113  11387  11798  12038  12223  12450  12698
                                                 12882  13061  13557  13950  14115  14279  14577  14874  15414  15680
                                                 15920  16080  16373  16826  17085U 17128U 17171U 17214U 17306  17413
                                                 17864  18057  18251  18410  18568  18943  19230  19349  19442  19600
                                                 19901  20061  20262  20464  20619  21138  21412  21758  21913  22068
                                                 22381  23381  23572  23773  24608  24765  25704  25984  27083  27242
                                                 27408  27578  27903  28008U 28239  28693  28885  29077  29269  29779
                                                 29857  30026  30185  30488  30677  30836  30995  31272  31764  31944
                                                 32872  33131  33371  33530  33800  33954  34158  35122  35432  35798
                                                 36282  36494  36781  36940  37694  37858  38022
 @R10          0 00000000 FFFFFFF4     @     836   942U
 @R11          0 00000000 FFFFFFF3     @     849   938U
 @R12          0 00000000 FFFFFFF2     @     862   934U
 @R13          0 00000000 FFFFFFF1     @     875   930U
 @R14          0 00000000 FFFFFFF0     @     888   926U
 @R15          0 00000000 FFFFFFEF     @     901   922U 22197U 22510U 31555U
 @R2           0 00000000 FFFFFFFC     @     732   974U 29889U 30421U 31698U 37621  37625
 @R3           0 00000000 FFFFFFFB     @     745   970U 12364  12591  29569U 29894U 31688U
 @R4           0 00000000 FFFFFFFA     @     758   966U  9582M 22250U 22563U 24040U 24285U
 @R5           0 00000000 FFFFFFF9     @     771   962U 38381U
 @R6           0 00000000 FFFFFFF8     @     784   958U  9589U 10866U 10977U 11132U 11251U 11406U 11532U 11586U 11817U
                                                 12057U 12242U 12469U 12717U 12901U 13080U 13194U 13308U 13422U 13576U
                                                 13690U 13804U 13969U 14134U 14298U 14441U 14596U 14714U 14893U 15027U
                                                 15148U 15202U 15433U 15699U 15939U 16099U 16226U 16392U 16503U 16639U
                                                 16845U 17325U 17432U 17549U 17669U 17724U 17883U 18076U 18270U 18429U
                                                 18587U 18962U 19076U 19249U 19368U 19461U 19619U 19731U 19920U 20080U
                                                 20281U 20483U 20638U 20756U 20891U 21003U 21157U 21276U 21431U 21777U
                                                 21932U 22087U 22225U 22400U 22538U 23400U 23591U 23792U 23902U 24015U
                                                 24145U 24260U 24420U 24471U 24627U 24784U 24923U 24978U 25115U 25170U
                                                 25290U 25406U 25538U 25723U 25826U 26003U 26129U 26180U 26301U 26355U
                                                 26480U 26534U 26659U 26713U 26838U 26892U 27102U 27261U 27427U 27597U
                                                 27721U 27922U 28057U 28258U 28415U 28525U 28712U 28904U 29096U 29288U
                                                 29412U 29467U 29615U 29876U 30045U 30204U 30507U 30696U 30855U 31014U
                                                 31130U 31291U 31415U 31783U 31963U 32084U 32138U 32249U 32411U 32465U
                                                 32590U 32644U 32891U 33150U 33390U 33549U 33665U 33819U 33973U 34177U
                                                 34292U 34402U 34513U 34623U 34732U 34841U 35141U 35451U 35580U 35635U
                                                 35817U 35941U 35996U 36112U 36301U 36513U 36626U 36800U 36959U 37080U
                                                 37196U 37332U 37450U 37504U 37713U 37877U 38041U 38189U 38243U 38373U
                                                 38499U 38553U
 @R7           0 00000000 FFFFFFF7     @     797   954U  9454U  9624U  9700U 10741U 10871U 10985U 11145U 11259U 11419U
                                                 11598U 11830U 12070U 12255U 12482U 12730U 12909U 13088U 13202U 13316U
                                                 13430U 13584U 13698U 13812U 13979U 14144U 14308U 14449U 14609U 14722U
                                                 14901U 15035U 15214U 15451U 15712U 15952U 16112U 16239U 16405U 16511U
                                                 16647U 16853U 17449U 17557U 17736U 17896U 18089U 18283U 18442U 18600U
                                                 18970U 19084U 19473U 19627U 19739U 19933U 20088U 20294U 20491U 20651U
                                                 20764U 20899U 21011U 21170U 21284U 21444U 21785U 21945U 22258U 22571U
                                                 23237U 23408U 23604U 23805U 24048U 24293U 24483U 24640U 24797U 24990U
                                                 25182U 25298U 25414U 25543U 25736U 25834U 26011U 26188U 26367U 26546U
                                                 26725U 26904U 27115U 27274U 27440U 27610U 27729U 27935U 28065U 28271U
                                                 28423U 28533U 28725U 28917U 29109U 29301U 29479U 29623U 29899U 30058U
                                                 30212U 30283U 30515U 30709U 30868U 31027U 31138U 31301U 31423U 31792U
                                                 31971U 32150U 32257U 32477U 32656U 32909U 33163U 33403U 33562U 33673U
                                                 33827U 33986U 34190U 34300U 34410U 34521U 34631U 34740U 34849U 35159U
                                                 35469U 35647U 35830U 36008U 36120U 36314U 36521U 36634U 36813U 36972U
                                                 37088U 37204U 37337U 37516U 37721U 37887U 38051U 38255U 38386U 38565U
 @R8           0 00000000 FFFFFFF6     @     810   950U 11825U 12065U 15446U 15707U 15947U 16234U 16400U 17444U 20289U
                                                 23232U 25731U 27605U 27930U 28266U 32904U 33158U 33398U 34185U 35154U
                                                 35464U
1SYSV     (SYSV4072) (12:56) (15MAR04) Ordinary Symbol and Literal Cross Reference                                          Page  196
 @R9           0 00000000 FFFFFFF5     @     823   946U
 ABSCENT       1 00000000 00000000 A   T    2344  2344
 ABSEARCH      1 00000000 00000004     T    9726  9726
 ADDER         1 00000000 00000014     T   28302 28302
 AHLHEAD       1 00000000 00000000 A   T    6877  6877
 AHLVCCR8      1 00000000 00000000 A   T    7368  7368
 ASCTBL        1 00000000 00000000 A   T    2352  2352
 ASMVT         1 00000000 00000000 A   T    7257  7257
 BLTBL         1 00000000 00000000 A   T    2354  2354
 BR            7 00000007 00000001 A   #    1180  9403M  9506M  9669M 10694M 10781M 10911M 11025M 11185M 11299M 11459M
                                                 11640M 11872M 12135M 12295M 12522M 12770M 12949M 13128M 13242M 13356M
                                                 13470M 13624M 13738M 13852M 14020M 14184M 14375M 14489M 14664M 14762M
                                                 14957M 15075M 15256M 15514M 15754M 15992M 16151M 16278M 16445M 16551M
                                                 16687M 17002M 17491M 17595M 17776M 17935M 18129M 18322M 18480M 18640M
                                                 19010M 19124M 19512M 19666M 19778M 19973M 20130M 20376M 20531M 20690M
                                                 20803M 20938M 21050M 21210M 21324M 21483M 21825M 21984M 22297M 22724M
                                                 23276M 23450M 23685M 23844M 24087M 24332M 24520M 24677M 24834M 25027M
                                                 25219M 25335M 25453M 25585M 25776M 25879M 26051M 26228M 26407M 26586M
                                                 26765M 26944M 27154M 27320M 27481M 27650M 27771M 27975M 28107M 28349M
                                                 28460M 28570M 28762M 28954M 29146M 29338M 29541M 29662M 29938M 30097M
                                                 30252M 30323M 30554M 30748M 30907M 31065M 31177M 31340M 31460M 31832M
                                                 32011M 32191M 32338M 32517M 32698M 32951M 33205M 33442M 33600M 33712M
                                                 33866M 34046M 34227M 34337M 34447M 34558M 34667M 34776M 34909M 35219M
                                                 35506M 35710M 35867M 36047M 36159M 36355M 36561M 36693M 36852M 37009M
                                                 37125M 37247M 37377M 37555M 37761M 37927M 38116M 38294M 38426M
 BSINFO       32 00000000 FFFFFFE0     J    8724  9426
 BSINIT        1 00000000 00000003     T    9725  9725
 CBBRANCH      1 00000000 00000000 A   T    7413  7413
 CHECKIOB      1 00000000 00000000 A   T    2400  2400
 COMMAND       1 00000000 00000000 A   T    2340  2340
 COMMSEG       1 00000000 00000000 A   T    2341  2341
 CP         4096 00000000 FFFFFFEC     J    6354  1329U 13409
 CP#XSTK       1 00000010 FFFFFFEC A   U    4086  4087
 CPABYCT       4 000005B0 FFFFFFEC     F    4145 10964
 CPACFLG       1 000005D5 FFFFFFEC     R    4189  4193   4198   4203   4208   4213
 CPACFLN       4 000005C4 FFFFFFEC     F    4181  4216   4216
 CPACHCT       4 000005B4 FFFFFFEC     F    4146 13181
 CPACLNO       4 000005A8 FFFFFFEC     F    4143 13677  24354  26074
 CPACTNO       4 0000057C FFFFFFEC     F    4125 11238
 CPAFLAG       1 000005C3 FFFFFFEC     R    4153  4157   4162   4167   4172
 CPAFLNO       4 000005A0 FFFFFFEC     F    4141 19063
 CPAFNAME    128 0000062C FFFFFFEC     C    4227 23307  25910
 CPAFNAMEL
               4 00000628 FFFFFFEC     F    4226 23312  25915
 CPAHOST     128 000006B0 FFFFFFEC     C    4229 27378
 CPAHOSTL      4 000006AC FFFFFFEC     F    4228 27383
 CPALLNO       4 000005A4 FFFFFFEC     F    4142 20743
 CPALNCT       4 000005AC FFFFFFEC     F    4144 21263
 CPANAME       8 00000588 FFFFFFEC     C    4135  4231   4231  11083  11088
 CPATYPE       8 00000590 FFFFFFEC     C    4136 11357  11362
 CPAUTFLG      1 000008A9 FFFFFFEC     R    4499  4503   4508   4513   4518
 CPAUTHID    128 00000B80 FFFFFFEC     C    5135 12193  12198  12316  12331M 12331  12337  12543  12558M 12558  12564
 CPBLKACT      4 00000748 FFFFFFEC     F    4245 16583M 16583  20835M 20835
 CPCHFLAG      1 00000B68 FFFFFFEC     R    5126  5130
 CPCOUNT       4 00000744 FFFFFFEC     F    4243 13295
 CPCPLEN       2 000007FE FFFFFFEC     H    4370 13532
 CPCPRMT      62 00000800 FFFFFFEC     C    4371 13528
 CPDELTA       4 00000738 FFFFFFEC     F    4238 14428
 CPDEST        8 000009EA FFFFFFEC     C    4642 14547  14552
1SYSV     (SYSV4072) (12:56) (15MAR04) Ordinary Symbol and Literal Cross Reference                                          Page  197
 CPDFLG        1 0000084C FFFFFFEC     R    4386  4390   4395   4400   4405   4410
 CPDFLG2       1 0000084D FFFFFFEC     R    4415  4419   4424   4429   4434   4439   4444
 CPDOUB        8 00000C88 FFFFFFEC     D    5372 27996M 28007
 CPDRPT        4 00000D84 FFFFFFEC     F    5814 24373
 CPESCAPE      1 000008BA FFFFFFEC     C    4561 16050  16055
 CPEVLEN       4 00000DE4 FFFFFFEC     F    5918 16348
 CPEVLNO       4 00000DE0 FFFFFFEC     F    5917 16213
 CPEVLOC       4 00000DE8 FFFFFFEC     F    5919 16343
 CPEXFLG       1 00000758 FFFFFFEC     R    4255  4259
 CPEXFLG2      1 00000759 FFFFFFEC     R    4265  4274   4284
 CPEXFLG3      1 0000075A FFFFFFEC     R    4291  4295   4300
 CPEXTFLG      1 00000E28 FFFFFFEC     R    5937  5941   5946   5951   5956   5961   5966
 CPFABORT    128 00000D5A FFFFFFEC         5703  2304M  2304   2309M  2309
 CPFBKLNO      4 0000074C FFFFFFEC     F    4246 16572
 CPFERROR     64 00000D5A FFFFFFEC         5708  2303M  2303   2308M  2308
 CPFHIGH       1 00000040 FFFFFFEC A   U    5817 24373
 CPFNTEX       1 00000040 FFFFFFEC A   U    5555  5556
 CPFNTYT       1 00000080 FFFFFFEC A   U    5816 24373
 CPFRDRNG      1 00000D88 FFFFFFEC     R    5823  5827   5832   5837   5842   5847   5852   5857
 CPFRDSRC      1 00000D89 FFFFFFEC     R    5862  5871   5881   5891
 CPFREDT     128 00000140 FFFFFFEC         2752 24866
 CPFTATTN     32 0000047B FFFFFFEC         3906 32368  32994
 CPFTERR      16 0000047B FFFFFFEC         3911 32547  32739  33006  33246
 CPFUNUM       1 00000080 FFFFFFEC A   U    5554  5556
 CPFXAUTH     64 0000075A FFFFFFEC         4300 37407
 CPFXDFLG      1 000007E4 FFFFFFEC     R    4333  4337   4342
 CPFXDUMP    128 000007E4 FFFFFFEC         4337 38146
 CPFXQT       64 000007E4 FFFFFFEC         4342 38456
 CPFXXATN     16 0000047A FFFFFFEC         3886 11489  11681  11913
 CPFXXERR     32 00000479 FFFFFFEC         3861 15105  15297  15555  15795
 CPGFLG1       1 00000474 FFFFFFEC     R    3696  3700   3705   3710   3715   3720   4050   4050
 CPGFLG10      1 0000047D FFFFFFEC     R    3933  3937   3942   3947   3952   3957   3962
 CPGFLG11      1 0000047E FFFFFFEC     R    3968  3972   3977
 CPGFLG12      1 0000047F FFFFFFEC     R    3983  3987   3992   3997
 CPGFLG13      1 00000480 FFFFFFEC     R    4003  4007
 CPGFLG14      1 00000481 FFFFFFEC     R    4013  4017   4022   4027   4032   4037
 CPGFLG4       1 00000477 FFFFFFEC     R    3749  3760   3769   3778   3787   3796
 CPGFLG5       1 00000478 FFFFFFEC     R    3802  3806   3811   3816   3821   3826   3831   3836   3841
 CPGFLG6       1 00000479 FFFFFFEC     R    3847  3851   3856   3861
 CPGFLG7       1 0000047A FFFFFFEC     R    3867  3871   3876   3881   3886
 CPGFLG8       1 0000047B FFFFFFEC     R    3892  3896   3901   3906   3911
 CPGFLG9       1 0000047C FFFFFFEC     R    3917  3921   3927
 CPGRPSV       2 000001BB FFFFFFEC     C    2874 19570  19575
 CPHOST       32 000001BD FFFFFFEC     C    2876 19807  19812  19823M 19823
 CPINIT        1 00000174 FFFFFFEC     U    2866  6323
 CPJESFLG      1 000009E1 FFFFFFEC     R    4598  4602   4607   4612   4617   4622   4627   4632   4637
 CPJESFLY      1 000009FD FFFFFFEC     R    4648  4652   4657   4662
 CPJESHFL      1 000009E0 FFFFFFEC     R    4583  4587   4592   4671   4671
 CPJOBNM       8 00000A11 FFFFFFEC     C    4673 20589  20594
 CPLBKLNO      4 00000750 FFFFFFEC     F    4247 20824
 CPLCNO        4 0000073C FFFFFFEC     F    4240 24361M 24362  24407  26077M 26083
 CPLENGTH      2 0000087E FFFFFFEC     H    4483 20990
 CPLFLG10      1 00000D59 FFFFFFEC     R    5689  5693
 CPLFLG11      1 00000D5A FFFFFFEC     R    5699  5703   5708   5713   5718
 CPLFLG12      1 00000D5B FFFFFFEC     R    5724  5728
 CPLFLG14      1 00000D5C FFFFFFEC     R    5734  5738   5743   5748   5753   5758
 CPLFLG6       1 00000D55 FFFFFFEC     R    5564  5568   5573   5578   5583   5588   5593
 CPLFLG7       1 00000D56 FFFFFFEC     R    5599  5603   5608   5613   5618   5623
 CPLFLG8       1 00000D57 FFFFFFEC     R    5629  5633   5638   5643   5648
1SYSV     (SYSV4072) (12:56) (15MAR04) Ordinary Symbol and Literal Cross Reference                                          Page  198
 CPLFLG9       1 00000D58 FFFFFFEC     R    5654  5658   5663   5668   5673   5678   5683
 CPLIB         8 000008AB FFFFFFEC     C    4557 21108  21113
 CPLOCALZ      1 00000C48 FFFFFFEC     U    5156  6317   6317
 CPMFLG        1 0000084F FFFFFFEC     R    4453  4457
 CPMODFLG      1 00000C78 FFFFFFEC     R    5184  5188   5193   5198   5203   5208
 CPNAME       20 00000174 FFFFFFEC     C    2867 23743  23748
 CPNAMELN      1 00000010 FFFFFFEC A   U    4079  4326
 CPNEDPFX     10 00000E29 FFFFFFEC     X    5970  5971   5972
 CPNUMFLG      1 00000C79 FFFFFFEC     R    5214  5226
 CPORGSYS      8 0000015C FFFFFFEC     C    2862 24578  24583
 CPORVCMD      1 00000140 FFFFFFEC     R    2748  2752   2757   2762   2767   2772   2777   2782   2787   2792   2792
                                                  2843   2843  24879
 CPORVFLG      1 00000149 FFFFFFEC     R    2799  2803   2808   2813   2818   2823   2828   2833   2838
 CPORVWF       1 00000150 FFFFFFEC     R    2851  2855
 CPORVYL       8 000008BC FFFFFFEC     C    4563 24735  24740  25056  25061
 CPOSCANX      4 00000CA8 FFFFFFEC     F    5383  5450   5450
 CPPACCT       5 000007F8 FFFFFFEC     C    4356 25518M 25518
 CPPGRP        2 000007FB FFFFFFEC     C    4358 25525
 CPPUSER       3 000007F8 FFFFFFEC     C    4357 25527
 CPR          11 0000000B 00000001 A   #    1244  1329U
 CPRACBAD     16 000001FC FFFFFFEC         2917  2951   2951   2952   2952
 CPRACF1       1 000001FC FFFFFFEC     R    2898  2902   2907   2912   2917   2922   2927   2932   2937   2953
 CPRACPSW     32 000001FC FFFFFFEC         2912  2950   2950   2952   2952
 CPRACUND     64 000001FC FFFFFFEC         2907  2950   2950   2951   2951
 CPRCVCUR      4 00000730 FFFFFFEC     A    4234  4236   4236
 CPRETURN      4 00000764 FFFFFFEC     F    4310 28402
 CPRFLG        1 000008AA FFFFFFEC     R    4524  4528   4533   4538   4543   4548   4553
 CPS         254 00000344 FFFFFFEC     X    3668  3671   3672   3674   3674
 CPSACCT       5 000003B4 FFFFFFEC     C    3267  3430   3430  10846M 10846  34076  37312M 37312
 CPSAMCOD      1 00000A22 FFFFFFEC     R    4720  4728   4738   4748   4757   4766   4775   4785   4794   4803
 CPSAMDV       2 00000AA4 FFFFFFEC     H    4822 28512
 CPSAMFLG      1 00000A21 FFFFFFEC     R    4680  4684   4689   4694   4699   4704   4709   4714   4825   4825
 CPSAMFONT
              16 00000A73 FFFFFFEC     C    4812 28791  28796  28807M 28807
 CPSAMOS      16 00000A43 FFFFFFEC     C    4809 28599  28604  28615M 28615
 CPSAMTYP     16 00000A23 FFFFFFEC     C    4807 28983  28988  28999M 28999
 CPSAMVER     16 00000A33 FFFFFFEC     C    4808 29175  29180  29191M 29191
 CPSANO        2 000003B9 FFFFFFEC     X    3270 29568
 CPSASCBP      4 000003C0 FFFFFFEC     A    3429 34941  35251
 CPSCHAR       8 000003FE FFFFFFEC     C    3610 30583  30588  30599M 30599
 CPSCNFLG      1 00000CD0 FFFFFFEC     R    5396  5407   5416   5427
 CPSCNF2       1 00000CD1 FFFFFFEC     R    5432  5436
 CPSCNMAX      1 00000014 FFFFFFEC A   U    5448  5449
 CPSCRI        2 00000434 FFFFFFEC     H    3657  3662   3662
 CPSEG        60 00000050 FFFFFFEC     X    2737 10728
 CPSEGCOD      1 00000050 FFFFFFEC     R    2654  2663   2673   2683   2693   2703   2713   2723
 CPSFADM       2 000003BE FFFFFFEC         3390 26437
 CPSFAPR      64 000003BE FFFFFFEC         3365 26258
 CPSFBACK     64 000003F8 FFFFFFEC         3554 12804
 CPSFDUMB      8 00000384 FFFFFFEC         3029 18837
 CPSFE         8 0000034C FFFFFFEC     C    2997 18380  18385
 CPSFL         1 00000384 FFFFFFEC     R    3005  3009   3014   3019   3024   3029
 CPSFLG        1 000003F8 FFFFFFEC     R    3545  3549   3554   3559   3564   3569   3574   3579   3584
 CPSFLG2       1 000003F9 FFFFFFEC     R    3590  3594   3599   3604
 CPSFL2        1 00000385 FFFFFFEC     R    3035  3039   3044   3049   3054
 CPSFL3        1 00000386 FFFFFFEC     R    3060  3064   3069   3074
 CPSFL4        1 00000387 FFFFFFEC     R    3080  3084   3089   3094
 CPSFL5        1 00000388 FFFFFFEC     R    3100  3104   3109   3114
 CPSFMOD     128 000003EA FFFFFFEC         3446 31866
1SYSV     (SYSV4072) (12:56) (15MAR04) Ordinary Symbol and Literal Cross Reference                                          Page  199
 CPSFOPR      16 000003BE FFFFFFEC         3375 26616
 CPSFQUIET
               8 00000416 FFFFFFEC         3639 32041
 CPSFSAM      64 000003EA FFFFFFEC         3451 29368
 CPSFSPR      32 000003BE FFFFFFEC         3370 26795
 CPSFUPL     128 000003F8 FFFFFFEC         3549 12983
 CPSGRP        2 000003B7 FFFFFFEC     C    3269 10855  22133  22446  23931  24174  37319
 CPSHEI        2 0000041C FFFFFFEC     H    3645 31117
 CPSHEIP       2 0000041A FFFFFFEC     H    3644 19718
 CPSIPADR      4 00000428 FFFFFFEC     F    3649 17084  17127  17170  17213
 CPSKAFL       1 000003BF FFFFFFEC     R    3401  3405   3410   3415   3420   3425
 CPSKIFL       1 000003BE FFFFFFEC     R    3356  3360   3365   3370   3375   3380   3385   3390   3395
 CPSKIP        1 000008BB FFFFFFEC     C    4562 29996  30001
 CPSNAME      20 000003C6 FFFFFFEC     C    3437 21382  21387
 CPSOF         1 000001F8 FFFFFFEC     X    2888  2890   2890
 CPSOFLAG      1 00000416 FFFFFFEC     R    3615  3619   3624   3629   3634   3639
 CPSOF2        2 000001F8 FFFFFFEC     X    2890 30155  30160
 CPSOPST       4 000003C4 FFFFFFEC     F    3435  3664   3664
 CPSPLOC      20 00000370 FFFFFFEC     C    3001 17834  17839  17983  17988  18177  18182
 CPSPORT       8 00000354 FFFFFFEC     C    2999  3119   3119  18538  18543
 CPSPROJ       8 000003F0 FFFFFFEC     C    3541 27212  27217
 CPSQFLG       1 000003EC FFFFFFEC     R    3464  3468
 CPSSFLG       1 000003BB FFFFFFEC     R    3274  3278   3283   3288   3293   3298   3303
 CPSSTART      4 00000344 FFFFFFEC     F    2991  2995   2995   3431   3431   3536   3536   3668   3668
 CPSSTAT       1 0000038F FFFFFFEC     R    3211  3215   3220   3225   3230   3235   3240   3245
 CPSTACF       1 000003BC FFFFFFEC     R    3309  3313   3318   3323   3328   3333   3338   3343   3348
 CPSTALF       8 0000038C FFFFFFEC         3203 18865
 CPSTART       4 00000000 FFFFFFEC     C    2627  6321   6325
 CPSTASYN      2 0000038C FFFFFFEC         3143 18698
 CPSTCLS       8 000003E2 FFFFFFEC     C    3439 30806  30811
 CPSTCONS      1 0000038C FFFFFFEC         3133 18674
 CPSTELF       7 0000038C FFFFFFEC         3193 17070  17625  17969  18163  18818
 CPSTFLAG      1 000003EA FFFFFFEC     R    3442  3446   3451   3456
 CPSTID        8 000003DA FFFFFFEC     C    3438 30965  30970
 CPSTNSC       6 0000038C FFFFFFEC         3183 18794
 CPSTPDP       3 0000038C FFFFFFEC         3153 18722
 CPSTTYPE      8 0000041E FFFFFFEC     C    3647 33500  33505
 CPSTVIRT      5 0000038C FFFFFFEC         3173 18770
 CPSTVTAM      4 0000038C FFFFFFEC         3163 18746
 CPSTYPE       1 0000038C FFFFFFEC     R    3124  3133   3143   3153   3163   3173   3183   3193   3203
 CPSUFLG       1 000003EE FFFFFFEC     R    3479  3483   3488   3493   3498   3503   3508   3513   3518
 CPSUFLG2      1 000003EF FFFFFFEC     R    3524  3528   3533
 CPSUSER       3 000003B4 FFFFFFEC     C    3268 10853  22132  22445  23930  24173  37321
 CPSVPGM       8 0000039C FFFFFFEC     C    3257  3263   3263  26973  26978  26991M 26991  27005
 CPSWID        2 00000418 FFFFFFEC     H    3643 33652  36613
 CPS1ST        4 0000038C FFFFFFEC     F    3121  3666   3666
 CPTEMPP#      1 0000005F FFFFFFEC A   U    4574  4576
 CPTRMFL1      1 00000C7A FFFFFFEC     R    5232  5236   5241   5246   5370   5370
 CPTRMFL2      1 00000C7B FFFFFFEC     R    5252  5256   5261   5266   5271   5276   5281
 CPTRMFL3      1 00000C7C FFFFFFEC     R    5287  5291   5296   5301   5306   5311   5316   5321
 CPTRMFL4      1 00000C7D FFFFFFEC     R    5327  5331   5336   5341   5346   5351   5356   5361
 CPUID        32 00000198 FFFFFFEC     C    2870 33924  33929
 CPUSED        1 00000FBC FFFFFFEC A   U    6321  6322
 CPUSERSV      3 000001B8 FFFFFFEC     C    2873 33770  33775
 CPVACURS      8 00000AF0 FFFFFFEC     D    5099  5100   5101
 CPVCOL        2 00000ADA FFFFFFEC     H    5091 34279
 CPVCURS       8 00000AE0 FFFFFFEC     D    5093  5094   5095
 CPVFLAG       1 00000AC8 FFFFFFEC     R    4894  4898   4903   4908   4913   4918
 CPVFLAG2      1 00000AC9 FFFFFFEC     R    4924  4928   4933   4938   4943   4948   4953
1SYSV     (SYSV4072) (12:56) (15MAR04) Ordinary Symbol and Literal Cross Reference                                          Page  200
 CPVFLAG3      1 00000ACA FFFFFFEC     R    4959  4963   4968   4973   4978   4983   4988
 CPVFLAG4      1 00000ACB FFFFFFEC     R    4994  4998   5003   5008
 CPVFPAGE    128 00000AC8 FFFFFFEC         4898 14796
 CPVHEI        2 00000AD4 FFFFFFEC     H    5085 34389
 CPVLFLAG      1 00000ACE FFFFFFEC     R    5063  5067   5072   5077
 CPVLNO        4 00000ADC FFFFFFEC     F    5092 34500
 CPVMODE       1 00000ACC FFFFFFEC     R    5016  5020   5025   5030   5035   5040   5045   5050   5055
 CPVOLUME      6 00000880 FFFFFFEC     C    4484 35768  35773
 CPVTWID       2 00000AD0 FFFFFFEC     H    5083  5086   5086
 CPVWCNT       2 00000AD8 FFFFFFEC     H    5089 34610
 CPVWCUR       2 00000AD6 FFFFFFEC     H    5088 34828
 CPVWID        2 00000AD2 FFFFFFEC     H    5084 34719
 CPWCHAR      16 00000448 FFFFFFEC     C    3679 36188  36193  36204M 36204
 CPWK1         4 00000D60 FFFFFFEC     F    5767  5782   5805
 CPWK2         4 00000D64 FFFFFFEC     F    5768  5783   5797
 CPWK3         4 00000D68 FFFFFFEC     F    5769  5784   5798
 CPWK4         4 00000D6C FFFFFFEC     F    5770  5785   5799
 CPWK5         4 00000D70 FFFFFFEC     F    5771  5787   5792   5800
 CPWK6         4 00000D74 FFFFFFEC     F    5772  5788   5793   5801   5808   5810
 CPWK7         4 00000D78 FFFFFFEC     F    5773  5786   5802
 CPWPATH       8 00000208 FFFFFFEC     C    2964 19157  19200  19205
 CPWPROJ       8 00000188 FFFFFFEC     C    2868 36751  36756
 CPWRNCNT      2 000008B6 FFFFFFEC     H    4559 36099
 CPXCMDP       4 000008C8 FFFFFFEC     A    4565 37579
 CPXFLAG       1 000007FD FFFFFFEC     R    4361  4365
 CPXSTATE      4 000007F8 FFFFFFEC     F    4355  4368   4368
 CRBRANCH      1 00000000 00000000 A   T    7154  7154
 CSRTABLE      1 00000000 00000000 A   T    7174  7174
 CSVARMGR      1 00000000 00000000 A   T    7222  7222
 CSVEXIT       1 00000000 00000000 A   T    7095  7095
 CSVLLCB       1 00000000 00000000 A   T    6695  6695
 CSVLLTRM      1 00000000 00000000 A   T    6696  6696
 CSVMEM        1 00000000 00000000 A   T    6923  6923
 CSVVFGET      1 00000000 00000000 A   T    7487  7487
 CSVVFIND      1 00000000 00000000 A   T    7485  7485
 CV         4016 00000000 FFFFFFEE     J    2530  1338U 13791
 CVABSRTN      4 0000088C FFFFFFEE     V    2344  2319
 CVBRMSK       1 00000751 FFFFFFEE     X    2260  2261   2262
 CVCFLAG       1 00000A00 FFFFFFEE     R    2425  2429   2434   2439   2444   2449
 CVCHKST       8 000009F0 FFFFFFEE     D    2415  2505   2505
 CVCHKST2      8 00000E28 FFFFFFEE     D    2508  2511   2511
 CVCOMRTN      4 0000087C FFFFFFEE     V    2340  2310
 CVCURJCB      4 000001C8 FFFFFFEE     A    1609 29683  38315
 CVDBGFLG      1 000004CC FFFFFFEE     R    2114  2118
 CVENT         4 0000074C FFFFFFEE     I    2258  9403B  9506B  9669B 10694B 10781B 10911B 11025B 11185B 11299B 11459B
                                                 11640B 11872B 12135B 12295B 12522B 12770B 12949B 13128B 13242B 13356B
                                                 13470B 13624B 13738B 13852B 14020B 14184B 14375B 14489B 14664B 14762B
                                                 14957B 15075B 15256B 15514B 15754B 15992B 16151B 16278B 16445B 16551B
                                                 16687B 17002B 17491B 17595B 17776B 17935B 18129B 18322B 18480B 18640B
                                                 19010B 19124B 19512B 19666B 19778B 19973B 20130B 20376B 20531B 20690B
                                                 20803B 20938B 21050B 21210B 21324B 21483B 21825B 21984B 22297B 22724B
                                                 23276B 23450B 23685B 23844B 24087B 24332B 24520B 24677B 24834B 25027B
                                                 25219B 25335B 25453B 25585B 25776B 25879B 26051B 26228B 26407B 26586B
                                                 26765B 26944B 27154B 27320B 27481B 27650B 27771B 27975B 28107B 28349B
                                                 28460B 28570B 28762B 28954B 29146B 29338B 29541B 29662B 29938B 30097B
                                                 30252B 30323B 30554B 30748B 30907B 31065B 31177B 31340B 31460B 31832B
                                                 32011B 32191B 32338B 32517B 32698B 32951B 33205B 33442B 33600B 33712B
                                                 33866B 34046B 34227B 34337B 34447B 34558B 34667B 34776B 34909B 35219B
                                                 35506B 35710B 35867B 36047B 36159B 36355B 36561B 36693B 36852B 37009B
1SYSV     (SYSV4072) (12:56) (15MAR04) Ordinary Symbol and Literal Cross Reference                                          Page  201
                                                 37125B 37247B 37377B 37555B 37761B 37927B 38116B 38294B 38426B
 CVENTBR       2 00000750 FFFFFFEE     I    2259  2260
 CVERROR       4 000007D6 FFFFFFEE     I    2308  2324B
 CVEXIRTN      4 0000077C FFFFFFEE     V    2288  2284
 CVFCHRKBPR
               8 000004C9 FFFFFFEE         2029  2045   2045
 CVFCHRKBSE
               4 000004C9 FFFFFFEE         2034  2045   2045
 CVFCHRKCPR
               2 000004C9 FFFFFFEE         2051  2067   2067
 CVFCHRKCSE
               1 000004C9 FFFFFFEE         2056  2067   2067
 CVFCHRUBPR
             128 000004C9 FFFFFFEE         1985  2001   2001
 CVFCHRUBSE
              64 000004C9 FFFFFFEE         1990  2001   2001
 CVFCHRUCPR
              32 000004C9 FFFFFFEE         2007  2023   2023
 CVFCHRUCSE
              16 000004C9 FFFFFFEE         2012  2023   2023
 CVFL          1 000004C4 FFFFFFEE     R    1781  1785   1790   1795   1800   1805   1810   1815   1820
 CVFL2         1 000004C5 FFFFFFEE     R    1826  1830   1835   1840   1845   1850   1855   1860   1865
 CVFL3         1 000004C6 FFFFFFEE     R    1871  1875   1880   1885   1890   1895   1900   1905   1910
 CVFL4         1 000004C7 FFFFFFEE     R    1916  1920   1925   1930   1935   1940   1945   1950
 CVFL5         1 000004C8 FFFFFFEE     R    1956  1960   1965   1970   1975
 CVFL6         1 000004C9 FFFFFFEE     R    1981  1985   1990   2002   2007   2012   2024   2029   2034   2046   2051
                                                  2056   2068
 CVFOLDIBM
              16 000004C8 FFFFFFEE         1975 16747  36415
 CVFTMIL     128 000004C4 FFFFFFEE         1785 23494
 CVFWINGS     32 000004C8 FFFFFFEE         1970 16723  36391
 CVHEAP#       1 00000200 FFFFFFEE A   U    1687  1688
 CVINSTAL      8 00000004 FFFFFFEE     C    1358 20031  20036
 CVINVRTN      4 00000888 FFFFFFEE     V    2343  2313
 CVJES         4 00000014 FFFFFFEE     C    1360 20434  20439
 CVJESFLG      1 000004CA FFFFFFEE     R    2074  2078
 CVLNKRGS      4 00000780 FFFFFFEE     F    2290  2265M  2291
 CVLNKRTN      4 000007B0 FFFFFFEE     U    2291  2280M
 CVLOCK1       1 00000088 FFFFFFEE     R    1432  1436   1441
 CVLOCK2       1 00000089 FFFFFFEE     R    1446  1450
 CVLOCK3       1 0000008A FFFFFFEE     R    1455  1459
 CVLOCK4       1 0000008B FFFFFFEE     R    1464  1468
 CVLOGMOD      1 00000068 FFFFFFEE     R    1419  1423
 CVMACH        1 00000067 FFFFFFEE     R    1379  1383   1388   1393   1398   1403   1408   1413
 CVMACHID      8 0000000C FFFFFFEE     C    1359 21520  21555  21590  21625  21660  21883  21888
 CVMILRTN      4 00000884 FFFFFFEE     V    2342  2322
 CVMILSSN      8 00000020 FFFFFFEE     C    1363 23479  23484
 CVNOARTN      4 00000890 FFFFFFEE     V    2345  2316
 CVNWDATE      4 00000608 FFFFFFEE     F    2147  2151   2151  24217
 CVNWMPG#      1 00000008 FFFFFFEE A   U    2149  2150
 CVPFXRTN      1 00000000 00000000 A   T    2288  2288
 CVPGFLAG      1 00000A01 FFFFFFEE     R    2455  2459   2464   2469
 CVPIOSZ       1 00004F80 FFFFFFEE A   U    1518  1520
 CVPPDBQH      4 0000009C FFFFFFEE     A    1476  1477
 CVPSFNO       1 000003E9 FFFFFFEE A   N    1640  1642
 CVPSLNO       1 000007CF FFFFFFEE A   N    1641  1642
 CVPXSZ        1 00000008 FFFFFFEE A   U    1519  1520
 CVR          12 0000000C 00000001 A   #    1257  1338U
 CVRKEY        1 00000008 FFFFFFEE A   U    2213  2214
1SYSV     (SYSV4072) (12:56) (15MAR04) Ordinary Symbol and Literal Cross Reference                                          Page  202
 CVSEGRTN      4 00000880 FFFFFFEE     V    2341  2305
 CVSTACK#      1 00000080 FFFFFFEE A   U    1679  1680
 CVSTART       4 00000000 FFFFFFEE     C    1352  2523
 CVT           1 00000000 FFFFFFE9     J    6665 30360U 31496U
 CVTBRET       2 00000052 FFFFFFE9     H    6720  7233   7312
 CVTDCB        1 00000074 FFFFFFE9     X    6735 30375  30396
 CVTMVSE       1 00000080 FFFFFFE9 A   U    6739 30373
 CVTPTR        1 00000010 00000001 A   U    6661 30350  31486
 CVTRC         4 00000768 FFFFFFEE     I    2280  2266B
 CVTRCRTN      4 00000778 FFFFFFEE     V    2287  2281
 CVTUSER       4 000000CC FFFFFFE9     A    6845 31503
 CVTVSTGX      1 00000000 FFFFFFE8     J    7685  7549
 CVTXTNT1      1 00000000 FFFFFFE7     J    7724  6892
 CVTXTNT2      1 00000000 FFFFFFE6     J    7732  6962   7888   8169   8379   8456   8687
 CVT4MS1       1 00000010 FFFFFFE9 A   U    6745  6753
 CVT6DAT       1 00000002 FFFFFFE9 A   U    6749  6753
 CVUSFNO       1 00000001 FFFFFFEE A   N    1647  1649
 CVUSLNO       1 000003E7 FFFFFFEE A   N    1648  1649
 CVVBINFO      4 00000260 FFFFFFEE     A    1673  9431M  9434   9532
 CVVOL#        1 00000005 FFFFFFEE A   U    2498  2499
 CVWPATH       8 00000244 FFFFFFEE     C    1667 19276  19319  19324
 CVWTOFLG      1 000004CB FFFFFFEE     R    2084  2088   2093   2098   2103   2108
 CVWTOSGP      4 00000748 FFFFFFEE     V    2247 22127  22440
 CVWYLSSN      8 00000028 FFFFFFEE     C    1364 36910  36915
 DEBUGSG       1 00000000 00000000 A   T    2241  2241
 DEV          12 00000000 FFFFFFEB     J    4879  4887
 DEVMAX#       1 00000002 FFFFFFEC A   U    4830  4887
 DEVTYPE       1 00000001 FFFFFFEB     R    4847  4856   4866
 DFAIDTAB      1 00000000 00000000 A   T    7562  7562
 DOTTBL        1 00000000 00000000 A   T    2357  2357
 DRENCFLG      1 00000F9F FFFFFFEC     R    6285  6289   6294   6299   6304   6309
 DRENPROT      1 00000F9E FFFFFFEC     R    6272  6280
 DSNON        40 00000E90 FFFFFFEC     C    6005  6006
 DSNWADSN     44 00000E5C FFFFFFEC     C    5992  5993   5994   5995   6004   6012   6243   6249   6251   6257   6260
                                                  6262   6265   6314
 DSNWAF4       1 00000F37 FFFFFFEC     R    6060  6064   6069   6074   6079   6084   6089   6094   6099
 DSNWAF5       1 00000F38 FFFFFFEC     R    6105  6109   6114   6119   6124   6129   6134   6139   6144
 DSNWAF6       1 00000F39 FFFFFFEC     R    6150  6154   6159   6164   6169   6174   6179   6184   6189
 DSNWAF7       1 00000F3A FFFFFFEC     R    6195  6199   6204   6209   6214
 DSNXG         1 00000004 FFFFFFEC A   U    5997  5999
 DSNXGL        1 00000003 FFFFFFEC A   U    5998  5999
 DSNXU         1 00000007 FFFFFFEC A   U    5999  6001
 DSNXUL        1 00000004 FFFFFFEC A   U    6000  6001
 DSSIZ         1 00000108 FFFFFFEC A   U    6243  6251   6260   6265
 EBCTBL        1 00000000 00000000 A   T    2353  2353
 EBCTBL7       1 00000000 00000000 A   T    2356  2356
 ECBLIST       1 00000000 00000000 A   T    2216  2216
 ENDLNO        1 00000000 0000000D     T   15475 15475
 EPARTBL       1 00000000 00000000 A   T    2348  2348
 FFMISC        1 00000002 FFFFFFE1     R    8583  8587   8592   8597   8602   8607
 FFPTYPE       1 00000003 FFFFFFE1     R    8612  8621   8631   8641   8651   8661
 FFRQTYPE      1 00000001 FFFFFFE1     R    8539  8548   8558   8568   8578
 FFTYPE        1 00000000 FFFFFFE1     R    8485  8494   8504   8514   8524   8534
 FMBRANCH      1 00000000 00000000 A   T    7338  7338
 FMTCLCK       1 00000000 0000000B     T   14337 14337
 FMTDAY        1 00000000 0000000C     T   14339 14339
 FMTTIME       1 00000000 0000001C     T   32283 32283
 FMTXDATE      1 00000000 00000021     T   38081 38081
 FNACC         2 00000E9E 00000001     H   10767  9755   9760
1SYSV     (SYSV4072) (12:56) (15MAR04) Ordinary Symbol and Literal Cross Reference                                          Page  203
 FNACTBYT      2 00000EF6 00000001     H   10897  9765
 FNACTNAM      2 00000F3A 00000001     H   11011  9770
 FNACTNO       2 00000F8C 00000001     H   11171  9775
 FNACTTYP      2 00000FD0 00000001     H   11285  9780
 FNATTN        2 00001022 00000001     H   11445  9785
 FNATTNID      2 0000107A 00000001     H   11624  9790
 FNATTNIN      2 000010EA 00000001     H   11856  9795
 FNAUTHID      2 000011E4 00000001     H   12121  9800
 FNAUTHNM      2 00001236 00000001     H   12281  9805
 FNAUTHRL      2 000012B2 00000001     H   12508  9810
 FNBACK        2 0000133A 00000001     H   12756  9815
 FNCASE        2 00001396 00000001     H   12935  9820
 FNCHNGS       2 000013F2 00000001     H   13114  9825
 FNCOUNT       2 00001436 00000001     H   13228  9830
 FNCP          2 0000147A 00000001     H   13342  9835
 FNCPRMT       2 000014BE 00000001     H   13456  9840
 FNCURRNT      2 0000150A 00000001     H   13610  9845
 FNCV          2 0000154E 00000001     H   13724  9850
 FNDATE        2 00001592 00000001     H   13838  9855
 FNDATEF       2 000015FC 00000001     H   14006  9860
 FNDAY         2 00001656 00000001     H   14170  9865
 FNDELTA       2 00001720 00000001     H   14361  9870
 FNDEST        2 00001764 00000001     H   14475  9875
 FNE           2 000017C6 00000001     H   14650  9880
 FNEMODE       2 00001800 00000001     H   14748  9885
 FNEND         2 0000187A 00000001     H   14943  9890
 FNERR         2 000018C2 00000001     H   15061  9895   9915
 FNERRID       2 0000191A 00000001     H   15240  9900
 FNERRINF      2 000019D6 00000001     H   15498  9905
 FNERRMSG      2 00001A42 00000001     H   15738  9910
 FNESCAPE      2 00001AAE 00000001     H   15978  9920
 FNEVALL       2 00001B00 00000001     H   16135  9925
 FNEVALT       2 00001B44 00000001     H   16262  9930
 FNFALSE       2 00001B90 00000001     H   16431  9940
 FNFBLOCK      2 00001BCA 00000001     H   16537  9945
 FNFDEF        2 00001C1C 00000001     H   16673  9950
 FNFEHOST      2 00001ED0 00000001     H   18115  9955
 FNFENAME      2 00001F2C 00000001     H   18308  9985
 FNFEPORT      2 00001F7E 00000001     H   18466  9990
 FNFETYPE      2 00001FD0 00000001     H   18626  9995
 FNFIRST       2 000020AC 00000001     H   18996  9935  10000
 FNFPATH       2 000020F0 00000001     H   19110 10005
 FNGROUP       2 000021A0 00000001     H   19498 10010  10015
 FNHEIGHT      2 000021EC 00000001     H   19652 10020
 FNHOST        2 00002230 00000001     H   19764 10025
 FNIDAREA    256 00000000 FFFFFFD8     C   34015 34085  34090
 FNIDLWA     256 00000000 FFFFFFD8     J   34022 34043  34072U 34198  34200  34201
 FNINSTAL      2 0000228E 00000001     H   19959 10035
 FNINV         2 00000E60 00000001     H   10680 10095
 FNIORES       2 000022DA 00000001     H   20114 10040
 FNIPADR       2 00001C88 00000001     H   16986  9960
 FNISLOC       2 00001D90 00000001     H   17477  9965
 FNISNET       2 00001DCA 00000001     H   17581  9970
 FNJES         2 0000246A 00000001     H   20362 10045
 FNJOB         2 000024B6 00000001     H   20517 10050
 FNLAST        2 00002508 00000001     H   20676 10055  10060
 FNLBLOCK      2 0000254C 00000001     H   20789 10065
 FNLENGTH      2 0000259E 00000001     H   20924 10070
 FNLHOST       2 000026CA 00000001     H   21469 10100
1SYSV     (SYSV4072) (12:56) (15MAR04) Ordinary Symbol and Literal Cross Reference                                          Page  204
 FNLIB         2 000025E2 00000001     H   21036 10075
 FNLINES       2 00002634 00000001     H   21196 10085
 FNLNAME       2 00002678 00000001     H   21310 10090
 FNMACC        2 000027DE 00000001     H   21970 10110
 FNMACH        2 0000278C 00000001     H   21811 10105
 FNMEMBER      2 00002ADA 00000001     H   23262 10120
 FNMILTEN      2 00002B2C 00000001     H   23436 10125
 FNMPRIM       2 00002898 00000001     H   22283 10115
 FNNAME        2 00002C98 00000001     H   23671 10130
 FNNETADR      2 00001E22 00000001     H   17762  9975
 FNNETNAM      2 00001E74 00000001     H   17921  9980
 FNNEXT        2 00002E10 00000001     H   24318 10145
 FNNEXTX       2 00002E9C 00000001     H   24476 24422B 24473B
 FNNMAIL       2 00002CEA 00000001     H   23830 10135
 FNNNEWS       2 00002D7C 00000001     H   24073 10140
 FNNONEXT      2 00002E7C 00000001     H   24425 24355B 24360B 24374B
 FNNOPREV      2 0000323C 00000001     H   26136 26076B 26082B
 FNORGSYS      2 00002EAA 00000001     H   24506 10150
 FNORVCOK      2 00002F4E 00000001     H   24820 10160
 FNORVCPU      2 00003010 00000001     H   25205 10165
 FNORVIO       2 0000305C 00000001     H   25321 10170
 FNORVUP       2 00002FAE 00000001     H   25013 10175
 FNORVYL       2 00002EFC 00000001     H   24663 10155
 FNPACC        2 000030A8 00000001     H   25439 10180  10185
 FNPARM        2 00003100 00000001     H   25569 10190
 FNPI          2 0000315C 00000001     H   25762 10200
 FNPREFIX      2 00003196 00000001     H   25865 10210
 FNPREV        2 000031E8 00000001     H   26037 10205  10215
 FNPROG        2 000033C6 00000001     H   26930 10195  10240
 FNPROJ        2 0000342C 00000001     H   27140 10245  32281
 FNPRVACT      2 00003266 00000001     H   26214 10220
 FNPRVADM      2 000032BE 00000001     H   26393 10225
 FNPRVOPR      2 00003316 00000001     H   26572 10230
 FNPRVSYS      2 0000336E 00000001     H   26751 10235
 FNPVOL        2 0000347E 00000001     H   27306 10250
 FNQERR        2 00003564 00000001     H   27755 10270
 FNQNAME       2 000034D0 00000001     H   27465 10255
 FNQNO         2 0000351A 00000001     H   27636 10260
 FNRANDOM      2 000035C0 00000001     H   27961 10275
 FNRCUPL       2 0000361A 00000001     H   28091 10280
 FNRETURN      2 00003770 00000001     H   28335 10285
 FNSAMDIA      2 000037B4 00000001     H   28446 10290
 FNSAMFNT      2 00003856 00000001     H   28748 10295
 FNSAMOS       2 000037F8 00000001     H   28556 10300
 FNSAMSON      2 00003970 00000001     H   29324 10315
 FNSAMTYP      2 000038B4 00000001     H   28940 10305
 FNSAMVER      2 00003912 00000001     H   29132 10310
 FNSESNUM      2 00003A04 00000001     H   29527 10320
 FNSESTAG      2 00003A4C 00000001     H   29648 10325
 FNSKIP        2 00003AC6 00000001     H   29924 10330
 FNSOF         2 00003B18 00000001     H   30083 10335
 FNSUBGRO      2 00003B64 00000001     H   30238 10345
 FNSYSTEM      2 00003B92 00000001     H   30309 10350
 FNTCHARS      2 00003C02 00000001     H   30540 10355
 FNTCLASS      2 00003C60 00000001     H   30734 10360
 FNTERM        2 00003CB2 00000001     H   30893 10365
 FNTHEIGHT
               2 00003D04 00000001     H   31051 10370
 FNTIME        2 00003D48 00000001     H   31163 10375
1SYSV     (SYSV4072) (12:56) (15MAR04) Ordinary Symbol and Literal Cross Reference                                          Page  205
 FNTIMEB       2 00003DA2 00000001     H   31326 10380
 FNTMBLK       2 00003DF4 00000001     H   31446 10385
 FNTMODEL      2 00003EAC 00000001     H   31818 10390
 FNTQUIET      2 00003F08 00000001     H   31997 10395
 FNTRUE        2 00003F60 00000001     H   32177 10400
 FNTTYPE       2 00004278 00000001     H   33428 10430
 FNTWIDTH      2 000042CA 00000001     H   33586 10435
 FNTYATTN      2 00004064 00000001     H   32324 10405
 FNTYERR       2 000040BC 00000001     H   32503 10410
 FNTYID        2 00004114 00000001     H   32682 10415
 FNTYINFO      2 00004198 00000001     H   32935 10420
 FNTYMSG       2 0000420C 00000001     H   33189 10425
 FNUID         2 0000435A 00000001     H   33852 10445
 FNUIDL        2 000043AC 00000001     H   34030 10450
 FNUSER        2 0000430E 00000001     H   33698 10440  10455
 FNVCOL        2 00004402 00000001     H   34213 10460
 FNVHEI        2 00004446 00000001     H   34323 10465
 FNVJDATA     64 00000000 FFFFFFD7     C   34878 34991  35020
 FNVJNW       64 00000000 FFFFFFD6     C   35188 35301  35330
 FNVJNWA      64 00000000 FFFFFFD6     J   35195 35216  35245U 35477  35479  35480
 FNVJOB        2 0000459A 00000001     H   34893 10490
 FNVJOBNO      2 00004616 00000001     H   35203 10495
 FNVJWA       64 00000000 FFFFFFD7     J   34885 34906  34935U 35167  35169  35170
 FNVLNO        2 0000448A 00000001     H   34433 10470
 FNVLOGON      2 00004692 00000001     H   35492 10500
 FNVNWIND      2 000044CE 00000001     H   34544 10475
 FNVOLUME      2 0000478E 00000001     H   35696 10505
 FNVSESS       2 000047E0 00000001     H   35853 10510
 FNVWID        2 00004512 00000001     H   34653 10480
 FNVWIND       2 00004556 00000001     H   34762 10485
 FNWA        336 00000000 FFFFFFDB     J   10666 11637  11666U 11838  11840  11841  11869  11898U 12078  12080  12081
                                                 15253  15282U 15459  15461  15462  15511  15540U 15720  15722  15723
                                                 15751  15780U 15960  15962  15963  16148  16177U 16247  16249  16250
                                                 16275  16304U 16413  16415  16416  20127  20156U 20302  20304  20305
                                                 25582  25611U 25744  25746  25747  27478  27507U 27618  27620  27621
                                                 27768  27797U 27943  27945  27946  28104  28133U 28279  28281  28282
                                                 32695  32724U 32917  32919  32920  32948  32977U 33171  33173  33174
                                                 33202  33231U 33411  33413  33414
 FNWARN        2 0000483A 00000001     H   36033 10515
 FNWCHG        2 0000487E 00000001     H   36145 10520
 FNWFDEF       2 000048DC 00000001     H   36341 10525
 FNWIDTH       2 00004948 00000001     H   36547 10530
 FNWORK      336 00000000 FFFFFFDB     X   10659 11687  11688  11919  11920  15303  15304  15561  15562  15801  15802
                                                 20168  20173  25615  25616  27809  27814  28145  28150  32745  32746
                                                 33012  33013  33252  33253
 FNWPROJ       2 000049D2 00000001     H   36679 10535
 FNWYLBUR      2 00004A24 00000001     H   36838 10540
 FNWYLCPU      2 00004A76 00000001     H   36995 10545
 FNWYLIO       2 00004AC2 00000001     H   37111 10550
 FNXACC        2 00004B0E 00000001     H   37233 10555  10560
 FNXAUTH       2 00004B66 00000001     H   37363 10565
 FNXCMD        2 00004BBE 00000001     H   37541 10570
 FNXDATE       2 00004C1C 00000001     H   37747 10575
 FNXDATEF      2 00004C80 00000001     H   37913 10580
 FNXDUMP       2 00004D56 00000001     H   38102 10585
 FNXLINE       2 00004DAE 00000001     H   38280 10590
 FNXQUIET      2 00004DF6 00000001     H   38412 10595
 FSR           0 00000000 00000001 A   #    1167  9398   9462M  9501   9617M  9632M  9664   9708M 10689  10749M 10776
                                                 10879M 10906  10993M 11020  11153M 11180  11267M 11294  11427M 11454
1SYSV     (SYSV4072) (12:56) (15MAR04) Ordinary Symbol and Literal Cross Reference                                          Page  206
                                                 11606M 11634  11838M 11866  12078M 12130  12263M 12290  12490M 12517
                                                 12738M 12765  12917M 12944  13096M 13123  13210M 13237  13324M 13351
                                                 13438M 13465  13592M 13619  13706M 13733  13820M 13847  13987M 14015
                                                 14152M 14179  14316M 14370  14457M 14484  14617M 14659  14730M 14757
                                                 14909M 14952  15043M 15070  15222M 15250  15459M 15508  15720M 15748
                                                 15960M 15987  16120M 16145  16247M 16272  16413M 16440  16519M 16546
                                                 16655M 16682  16861M 16996  17457M 17486  17565M 17590  17744M 17771
                                                 17904M 17930  18097M 18124  18291M 18317  18450M 18475  18608M 18635
                                                 18978M 19005  19092M 19119  19481M 19507  19635M 19661  19747M 19773
                                                 19941M 19968  20096M 20124  20302M 20371  20499M 20526  20659M 20685
                                                 20772M 20798  20907M 20933  21019M 21045  21178M 21205  21292M 21319
                                                 21452M 21478  21793M 21820  21953M 21979  22266M 22292  22579M 23271
                                                 23416M 23445  23612M 23680  23813M 23839  24056M 24082  24301M 24327
                                                 24491M 24515  24648M 24672  24805M 24829  24998M 25022  25190M 25214
                                                 25306M 25330  25422M 25448  25551M 25579  25744M 25771  25842M 25874
                                                 26019M 26046  26196M 26223  26375M 26402  26554M 26581  26733M 26760
                                                 26912M 26939  27123M 27149  27282M 27315  27448M 27475  27618M 27645
                                                 27737M 27765  27943M 27970  28073M 28101  28279M 28344  28431M 28455
                                                 28541M 28565  28733M 28757  28925M 28949  29117M 29141  29309M 29333
                                                 29487M 29536  29631M 29657  29907M 29933  30066M 30092  30220M 30247
                                                 30291M 30318  30523M 30549  30717M 30743  30876M 30902  31035M 31060
                                                 31146M 31172  31309M 31335  31431M 31455  31800M 31827  31979M 32006
                                                 32158M 32186  32265M 32333  32485M 32512  32664M 32692  32917M 32945
                                                 33171M 33199  33411M 33437  33570M 33595  33681M 33707  33835M 33861
                                                 33994M 34040  34198M 34222  34308M 34332  34418M 34442  34529M 34553
                                                 34639M 34662  34748M 34771  34857M 34903  35167M 35213  35477M 35501
                                                 35655M 35705  35838M 35862  36016M 36042  36128M 36154  36322M 36350
                                                 36529M 36556  36642M 36688  36821M 36847  36980M 37004  37096M 37120
                                                 37212M 37242  37345M 37372  37524M 37550  37729M 37756  37895M 37922
                                                 38059M 38111  38263M 38289  38394M 38421  38573M
 GETCORE       1 00000000 00000002     T    9722  9722
 GETCTOT       1 00000000 00000018     T   28308 28308  38075
 GETDATA       1 00000000 00000008     T   12100 12100  15479  20321  28310  35675
 GETMACH       2 00002952 00000001     H   22709 22705  23639
 GETQINFO      1 00000000 0000001B     T   28314 28314
 GETUIDL       1 00000000 0000001E     T   35678 35678
 GLBRANCH      1 00000000 00000000 A   T    7244  7244
 GMBRANCH      1 00000000 00000000 A   T    7340  7340
 GTVARRTN      2 0000006C 00000001     H    9492  9488
 GVT           1 00000000 00000000 A   T    7106  7106
 HIBAL         1 00000000 FFFFFFFF     J     691   707    720    733    746    759    772    785    798    811    824
                                                   837    850    863    876    889    902
 HSPFMIL       1 00000080 FFFFFFE5 A   U    7816  7820   7821
 HSPFORV       1 00000020 FFFFFFE5 A   U    7818  7820
 HSPFORVR      1 00000010 FFFFFFE5 A   U    7819  7821
 HSPFWYL       1 00000040 FFFFFFE5 A   U    7817  7820   7821
 IARMPVT       1 00000000 00000000 A   T    6981  6981
 IARMRRCE      1 00000000 00000000 A   T    7526  7526
 IARPIBR       1 00000000 00000000 A   T    7496  7496
 IARPSIV       1 00000000 00000000 A   T    7320  7320
 IARPSXM       1 00000000 00000000 A   T    7469  7469
 IARXKEY       1 00000000 00000000 A   T    7427  7427
 IARXVIO       1 00000000 00000000 A   T    7321  7321
 ICYMMVTC      1 00000000 00000000 A   T    7752  7752
 IDA121CV      1 00000000 00000000 A   T    7259  7259
 IEABEND       1 00000000 00000000 A   T    6843  6843
 IEADQIQE      1 00000000 00000000 A   T    7239  7239
 IEAECVT       1 00000000 00000000 A   T    6768  6768
 IEAGSMQ       1 00000000 00000000 A   T    7216  7216
1SYSV     (SYSV4072) (12:56) (15MAR04) Ordinary Symbol and Literal Cross Reference                                          Page  207
 IEAIHASU      1 00000000 00000000 A   T    7456  7456
 IEALSMQ       1 00000000 00000000 A   T    7218  7218
 IEAMASCB      1 00000000 00000000 A   T    7186  7186   7190
 IEAPATCH      1 00000000 00000000 A   T    6851  6851
 IEAPDSRT      1 00000000 00000000 A   T    7114  7114
 IEAPTRV       1 00000000 00000000 A   T    6930  6930
 IEAQCDSR      1 00000000 00000000 A   T    6834  6834
 IEAQCS01      1 00000000 00000000 A   T    7226  7226
 IEAQLPAQ      1 00000000 00000000 A   T    6835  6835
 IEAQTD00      1 00000000 00000000 A   T    6731  6731
 IEAQTE00      1 00000000 00000000 A   T    6729  6729
 IEARPOST      1 00000000 00000000 A   T    7241  7241
 IEASMFEX      1 00000000 00000000 A   T    7118  7118
 IEASMFSP      1 00000000 00000000 A   T    7464  7464
 IEASPOST      1 00000000 00000000 A   T    7261  7261
 IEASVDCB      1 00000000 00000000 A   T    6722  6722
 IEATCBP       1 00000000 00000000 A   T    6672  6672
 IEATPC        1 00000000 00000000 A   T    6724  6724
 IEATRSCN      1 00000000 00000000 A   T    7082  7082
 IEAVAR02      1 00000000 00000000 A   T    7166  7166
 IEAVBLDP      1 00000000 00000000 A   T    7150  7150
 IEAVDELP      1 00000000 00000000 A   T    7153  7153
 IEAVEAC0      1 00000000 00000000 A   T    7243  7243
 IEAVEADV      1 00000000 00000000 A   T    7401  7401
 IEAVEDR1      1 00000000 00000000 A   T    7286  7286
 IEAVELRM      1 00000000 00000000 A   T    7235  7235
 IEAVENLU      1 00000000 00000000 A   T    7582  7582
 IEAVENQ2      1 00000000 00000000 A   T    7232  7232
 IEAVEQV1      1 00000000 00000000 A   T    7389  7389
 IEAVEQV2      1 00000000 00000000 A   T    7392  7392
 IEAVEQV3      1 00000000 00000000 A   T    7395  7395
 IEAVERI1      1 00000000 00000000 A   T    7288  7288
 IEAVERP1      1 00000000 00000000 A   T    7290  7290
 IEAVERX1      1 00000000 00000000 A   T    7478  7478
 IEAVESC1      1 00000000 00000000 A   T    7417  7417
 IEAVESPR      1 00000000 00000000 A   T    7346  7346
 IEAVESTU      1 00000000 00000000 A   T    7580  7580
 IEAVESVT      1 00000000 00000000 A   T    7352  7352
 IEAVET6E      1 00000000 00000000 A   T    7452  7452
 IEAVEVT2      1 00000000 00000000 A   T    7406  7406
 IEAVEXPR      1 00000000 00000000 A   T    7214  7214
 IEAVEXP1      1 00000000 00000000 A   T    7383  7383
 IEAVFRCL      1 00000000 00000000 A   T    7152  7152
 IEAVGSDA      1 00000000 00000000 A   T    7397  7397
 IEAVGTCL      1 00000000 00000000 A   T    7151  7151
 IEAVGWSA      1 00000000 00000000 A   T    7246  7246
 IEAVLKRM      1 00000000 00000000 A   T    6953  6953
 IEAVMFRM      1 00000000 00000000 A   T    7331  7331
 IEAVMSGS      1 00000000 00000000 A   T    6900  6900
 IEAVNVT0      1 00000000 00000000 A   T    7565  7565
 IEAVRSUH      1 00000000 00000000 A   T    7444  7444
 IEAVRT03      1 00000000 00000000 A   T    7058  7058
 IEAVSPND      1 00000000 00000000 A   T    7454  7454
 IEAVSTAG      1 00000000 00000000 A   T    7194  7194
 IEAVTCTL      1 00000000 00000000 A   T    7446  7446
 IEAVTEST      1 00000000 00000000 A   T    6957  6957
 IEAVTRGR      1 00000000 00000000 A   T    7254  7254
 IEAVTRG1      1 00000000 00000000 A   T    6703  6703
 IEAVTRV3      1 00000000 00000000 A   T    6950  6950
1SYSV     (SYSV4072) (12:56) (15MAR04) Ordinary Symbol and Literal Cross Reference                                          Page  208
 IEAVTSBP      1 00000000 00000000 A   T    7200  7200
 IEAVTSFR      1 00000000 00000000 A   T    6921  6921
 IEAVTSGL      1 00000000 00000000 A   T    7198  7198
 IEAVVMSR      1 00000000 00000000 A   T    6979  6979
 IEAVWAIT      1 00000000 00000000 A   T    7221  7221
 IEAVWSAC      1 00000000 00000000 A   T    7252  7252
 IEAVWSAG      1 00000000 00000000 A   T    7250  7250
 IEAVWSAL      1 00000000 00000000 A   T    7248  7248
 IEAVXEXT      1 00000000 00000000 A   T    7329  7329
 IEAVXSFT      1 00000000 00000000 A   T    7296  7296
 IEAVXSTN      1 00000000 00000000 A   T    7302  7302
 IEAVXSTS      1 00000000 00000000 A   T    7300  7300
 IEAVXUNN      1 00000000 00000000 A   T    7325  7325
 IEAVXUNS      1 00000000 00000000 A   T    7304  7304
 IEAWTCB       1 00000000 00000000 A   T    7361  7361
 IEA0DS        1 00000000 00000000 A   T    6767  6767
 IEA0EF00      1 00000000 00000000 A   T    6673  6673
 IEA0EF01      1 00000000 00000000 A   T    6713  6713
 IEA0PT0E      1 00000000 00000000 A   T    7433  7433
 IEA0PT01      1 00000000 00000000 A   T    6774  6774
 IEA0PT02      1 00000000 00000000 A   T    7358  7358
 IEA0PT03      1 00000000 00000000 A   T    7435  7435
 IEA0VL00      1 00000000 00000000 A   T    6684  6684
 IEA0VL01      1 00000000 00000000 A   T    7091  7091
 IECIXAVL      1 00000000 00000000 A   T    6759  6759
 IECPCNVT      1 00000000 00000000 A   T    6687  6687
 IECPRLTV      1 00000000 00000000 A   T    6691  6691
 IECVEXCL      1 00000000 00000000 A   T    7323  7323
 IECXAPG       1 00000000 00000000 A   T    6682  6682
 IECXITP       1 00000000 00000000 A   T    6712  6712
 IECXTLER      1 00000000 00000000 A   T    6698  6698
 IEC0SCR1      1 00000000 00000000 A   T    6857  6857
 IEECUCB       1 00000000 00000000 A   T    6728  6728
 IEEMSER       1 00000000 00000000 A   T    6706  6706   6772
 IEEVEXSN      1 00000000 00000000 A   T    7061  7061
 IEEVSTOP      1 00000000 00000000 A   T    7371  7371
 IEFAQTOP      1 00000000 00000000 A   T    7178  7178
 IEFAUSDM      1 00000000 00000000 A   T    6678  6678
 IEFENFDM      1 00000000 00000000 A   T    6837  6837
 IEFJESCT      1 00000000 00000000 A   T    6937  6937
 IEFLINK       1 00000000 00000000 A   T    6675  6675
 IEFQMWR       1 00000000 00000000 A   T    6788  6788
 IEWFBOSV      1 00000000 00000000 A   T    6765  6765
 IEWMSEPT      1 00000000 00000000 A   T    7270  7270
 IFBDCB        1 00000000 00000000 A   T    6754  6754
 IFDOLT0A      1 00000000 00000000 A   T    7116  7116
 IFGDEBVR      1 00000000 00000000 A   T    7747  7747
 IGC043BR      1 00000000 00000000 A   T    7162  7162
 IGC044R2      1 00000000 00000000 A   T    7272  7272
 IGC062R1      1 00000000 00000000 A   T    7242  7242
 IGC07903      1 00000000 00000000 A   T    7387  7387
 IGC124        1 00000000 00000000 A   T    7403  7403
 IGFRVT        1 00000000 00000000 A   T    6852  6852
 IGVCPBDB      1 00000000 00000000 A   T    7518  7518
 IGVCPDLB      1 00000000 00000000 A   T    7520  7520
 IGVCPFRE      1 00000000 00000000 A   T    7510  7510
 IGVCPGTC      1 00000000 00000000 A   T    7508  7508
 IGVCPGUB      1 00000000 00000000 A   T    7502  7502
 IGVCPGUP      1 00000000 00000000 A   T    7505  7505
1SYSV     (SYSV4072) (12:56) (15MAR04) Ordinary Symbol and Literal Cross Reference                                          Page  209
 IGVCPGUS      1 00000000 00000000 A   T    7528  7528
 IGVGCAS       1 00000000 00000000 A   T    7156  7156
 IGVGFAS       1 00000000 00000000 A   T    7160  7160
 IGVGRRGN      1 00000000 00000000 A   T    7532  7532
 IGVGVRGN      1 00000000 00000000 A   T    7534  7534
 IGVQSPET      1 00000000 00000000 A   T    7158  7158
 IGVSLIST      1 00000000 00000000 A   T    7512  7512
 IGVSLOC       1 00000000 00000000 A   T    7516  7516
 IGVSREGN      1 00000000 00000000 A   T    7514  7514
 IGVSTSKI      1 00000000 00000000 A   T    7499  7499
 ILRJTERM      1 00000000 00000000 A   T    7441  7441
 INITSYSV      2 00000018 00000001     H    9389  9385
 INVALID       1 00000000 00000000 A   T    2343  2343
 IOSVDEVN      1 00000000 00000000 A   T    7458  7458
 IOSVHID       1 00000000 00000000 A   T    7468  7468
 IOSVSUCB      1 00000000 00000000 A   T    7471  7471
 IPBUF        64 00000000 FFFFFFDA     C   16883 17041  17048
 IPSEG        60 00000040 FFFFFFDA     X   16971 17056  17097  17114  17140  17157  17183  17200  17226
 IPSEGCOD      1 00000040 FFFFFFDA     R   16888 16897  16907  16917  16927  16937  16947  16957
 IPSEGLENF
               4 0000004C FFFFFFDA     A   16963 17242
 IPSEGLOC      4 00000060 FFFFFFDA     A   16967 17237
 IPWA        124 00000000 FFFFFFDA     J   16978 16999  17028U 17457  17459  17460
 IRARMCNS      1 00000000 00000000 A   T    7212  7212
 IRARMEPS      1 00000000 00000000 A   T    7430  7430
 IRARMI00      1 00000000 00000000 A   T    7169  7169
 ISNBRNCH      1 00000000 00000000 A   T    7327  7327
 JCB         208 00000000 FFFFFFE4     J    8168 29693U 38325U
 JCBAFL        1 00000062 FFFFFFE4     R    8013  8017   8022   8027   8032   8037   8042   8047   8052
 JCBBFL        1 00000063 FFFFFFE4     R    8058  8062   8067   8072   8077   8082   8087   8092
 JCBBILLX      8 00000088 FFFFFFE4     D    8143  8151   8151
 JCBRSCF1      1 00000064 FFFFFFE4     R    8098  8102   8107   8112
 JCBSEQ        2 00000048 FFFFFFE4     H    7929 38360
 JCBSFLG1      1 00000065 FFFFFFE4     R    8118  8122   8127
 JCBSINP       4 00000038 FFFFFFE4     A    7923 29697
 JCBWFL        1 00000060 FFFFFFE4     R    7942  7946   7951   7956   7961   7966   7971   7976   7981   8009
 JCBWWFL       1 00000061 FFFFFFE4     R    7987  7991   7996   8001   8006
 KWIO          1 00000000 00000012     T   23638 23638  28300
 KWR         504 00000000 FFFFFFE3     J    8378 22092  22102U 22113M 22113  22114M 22114  22238M 22238  22239M 22239
                                                 22405  22415U 22426M 22426  22427M 22427  22551M 22551  22552M 22552
                                                 23907  23917U 23928M 23928  23929M 23929  24032M 24032  24033M 24033
                                                 24150  24160U 24171M 24171  24172M 24172  24277M 24277  24278M 24278
 KWRCRD        1 00000040 FFFFFFE3 A   U    8370 22142  22455  23940  24183
 KWRDSTRT      1 00000005 FFFFFFE3     U    8189  8351   8351
 KWRFSYSA      1 00000080 FFFFFFE3 A   U    8232 22801
 KWRFSYSB      1 00000040 FFFFFFE3 A   U    8233 22861
 KWRFSYSC      1 00000020 FFFFFFE3 A   U    8234 22921
 KWRFSYSD      1 00000010 FFFFFFE3 A   U    8235 22981
 KWRFSYSE      1 00000008 FFFFFFE3 A   U    8236 23041
 KWRFSYSF      1 00000004 FFFFFFE3 A   U    8237 23101
 KWRFSYSG      1 00000002 FFFFFFE3 A   U    8238 23161
 KWRGRP        2 00000003 FFFFFFE3     C    8186 22133M 22446M 23931M 24174M
 KWRIFL        1 0000000E FFFFFFE3     X    8195 22157  22470  23955  24198
 KWRIFVAL      1 00000080 FFFFFFE3 A   U    8196 22155  22468  23953  24196
 KWRMACC       1 00000035 FFFFFFE3     X    8231 22196
 KWRMPRIM      1 000000AE FFFFFFE3     X    8325 22509
 KWRNEWDT      4 000000B4 FFFFFFE3     F    8331 24217
 KWRSFL        1 00000036 FFFFFFE3     X    8240 23972
 KWRSFMAI      1 00000040 FFFFFFE3 A   U    8242 23970
1SYSV     (SYSV4072) (12:56) (15MAR04) Ordinary Symbol and Literal Cross Reference                                          Page  210
 KWRSTART      4 00000000 FFFFFFE3     F    8184  8365
 KWRUSER       3 00000000 FFFFFFE3     C    8185  8187   8187  22132M 22445M 23930M 24173M
 LOCALTOD      1 00000000 0000000A     T   14336 14336  32282  38080
 LOCATE        1 00000000 00000015     T   28303 28303
 LOWTBL        1 00000000 00000000 A   T    2351  2351
 LSR           8 00000008 00000001 A   #    1205  9398   9462M  9501   9632M  9664   9708M 10689  10749M 10776  10879M
                                                 10906  10993M 11020  11153M 11180  11267M 11294  11427M 11454  11606M
                                                 11634  11838M 11866  12078M 12130  12263M 12290  12490M 12517  12738M
                                                 12765  12917M 12944  13096M 13123  13210M 13237  13324M 13351  13438M
                                                 13465  13592M 13619  13706M 13733  13820M 13847  13987M 14015  14152M
                                                 14179  14316M 14370  14457M 14484  14617M 14659  14730M 14757  14909M
                                                 14952  15043M 15070  15222M 15250  15459M 15508  15720M 15748  15960M
                                                 15987  16120M 16145  16247M 16272  16413M 16440  16519M 16546  16655M
                                                 16682  16861M 16996  17457M 17486  17565M 17590  17744M 17771  17904M
                                                 17930  18097M 18124  18291M 18317  18450M 18475  18608M 18635  18978M
                                                 19005  19092M 19119  19481M 19507  19635M 19661  19747M 19773  19941M
                                                 19968  20096M 20124  20302M 20371  20499M 20526  20659M 20685  20772M
                                                 20798  20907M 20933  21019M 21045  21178M 21205  21292M 21319  21452M
                                                 21478  21793M 21820  21953M 21979  22266M 22292  22579M 22718  23245M
                                                 23271  23416M 23445  23612M 23680  23813M 23839  24056M 24082  24301M
                                                 24327  24491M 24515  24648M 24672  24805M 24829  24998M 25022  25190M
                                                 25214  25306M 25330  25422M 25448  25551M 25579  25744M 25771  25842M
                                                 25874  26019M 26046  26196M 26223  26375M 26402  26554M 26581  26733M
                                                 26760  26912M 26939  27123M 27149  27282M 27315  27448M 27475  27618M
                                                 27645  27737M 27765  27943M 27970  28073M 28101  28279M 28344  28431M
                                                 28455  28541M 28565  28733M 28757  28925M 28949  29117M 29141  29309M
                                                 29333  29487M 29536  29631M 29657  29907M 29933  30066M 30092  30220M
                                                 30247  30291M 30318  30523M 30549  30717M 30743  30876M 30902  31035M
                                                 31060  31146M 31172  31309M 31335  31431M 31455  31800M 31827  31979M
                                                 32006  32158M 32186  32265M 32333  32485M 32512  32664M 32692  32917M
                                                 32945  33171M 33199  33411M 33437  33570M 33595  33681M 33707  33835M
                                                 33861  33994M 34040  34198M 34222  34308M 34332  34418M 34442  34529M
                                                 34553  34639M 34662  34748M 34771  34857M 34903  35167M 35213  35477M
                                                 35501  35655M 35705  35838M 35862  36016M 36042  36128M 36154  36322M
                                                 36350  36529M 36556  36642M 36688  36821M 36847  36980M 37004  37096M
                                                 37120  37212M 37242  37345M 37372  37524M 37550  37729M 37756  37895M
                                                 37922  38059M 38111  38263M 38289  38394M 38421  38573M
 MACHB         1 00000000 FFFFFFD9     X   22604 22761M 22803  22863  22923  22983  23043  23103  23163
 MACHSG       60 00000004 FFFFFFD9     X   22693 22788  22826  22843  22886  22903  22946  22963  23006  23023  23066
                                                 23083  23126  23143  23186  23203
 MACHSGCOD
               1 00000004 FFFFFFD9     R   22610 22619  22629  22639  22649  22659  22669  22679
 MACHSGLENF
               4 00000010 FFFFFFD9     A   22685 23225
 MACHSGLOC
               4 00000024 FFFFFFD9     A   22689 23220
 MACHWA       64 00000000 FFFFFFD9     J   22700 22721  22750U 22760M 22760  23245  23247  23248
 MAKEITOD      1 00000000 00000007     T   12096 12096  14334  20331  23630  28309  29502  32279  35677  36660  38077
                                                 38588
 MAKELTOD      1 00000000 00000009     T   14335 14335  14631  15476  20323  23628  28305  29501  32285  35679  38076
 MAXSTRLN      1 00000100 FFFFFFDF A   N    9029  9030   9057  13875  14043  14207  14341  22213  22526  31200  32295
                                                 37784  37950  38084
 MILERR        1 00000000 00000000 A   T    2342  2342
 NBLTBL        1 00000000 00000000 A   T    2355  2355
 NOACTION      1 00000000 00000000 A   T    2345  2345
 NPARTBL       1 00000000 00000000 A   T    2349  2349
 NSCNCB      176 00000000 FFFFFFED     J    2614  2740
 NSCNFLGS      1 00000008 FFFFFFED     R    2551  2555   2560
 NSCNTYPE      1 00000018 FFFFFFED     R    2569  2573   2578   2583   2588   2593
1SYSV     (SYSV4072) (12:56) (15MAR04) Ordinary Symbol and Literal Cross Reference                                          Page  211
 PFREEB        1 00000000 00000016     T   28304 28304
 PREVLNO       1 00000000 0000001A     T   28313 28313
 RAR          14 0000000E 00000001 A   #    1283  2280   2281M  2282B  2284M  2285B  2305M  2306B  2310M  2311B  2313M
                                                  2314B  2316M  2317B  2319M  2320B  2322M  2323M  2323B  2329   9395
                                                  9429M  9430M  9430B  9445M  9446M  9446B  9464M  9467B  9498   9538M
                                                  9539M  9539B  9634M  9637B  9661   9692M  9693M  9693B  9710M  9713B
                                                 10686  10731M 10732M 10732B 10751M 10754B 10773  10881M 10884B 10903
                                                 10969M 10970M 10970B 10995M 10998B 11017  11137M 11138M 11138B 11155M
                                                 11158B 11177  11243M 11244M 11244B 11269M 11272B 11291  11411M 11412M
                                                 11412B 11429M 11432B 11451  11608M 11611B 11631  11692M 11693M 11693B
                                                 11840M 11843B 11863  11924M 11925M 11925B 12080M 12083B 12127  12247M
                                                 12248M 12248B 12265M 12268B 12287  12474M 12475M 12475B 12492M 12495B
                                                 12514  12722M 12723M 12723B 12740M 12743B 12762  12919M 12922B 12941
                                                 13098M 13101B 13120  13186M 13187M 13187B 13212M 13215B 13234  13300M
                                                 13301M 13301B 13326M 13329B 13348  13414M 13415M 13415B 13440M 13443B
                                                 13462  13594M 13597B 13616  13682M 13683M 13683B 13708M 13711B 13730
                                                 13796M 13797M 13797B 13822M 13825B 13844  13878M 13879M 13879B 13882M
                                                 13883M 13883B 13989M 13992B 14012  14046M 14047M 14047B 14050M 14051M
                                                 14051B 14154M 14157B 14176  14210M 14211M 14211B 14214M 14215M 14215B
                                                 14318M 14321B 14367  14433M 14434M 14434B 14459M 14462B 14481  14601M
                                                 14602M 14602B 14619M 14622B 14656  14732M 14735B 14754  14911M 14914B
                                                 14949  14980M 14981M 14981B 15019M 15020M 15020B 15045M 15048B 15067
                                                 15224M 15227B 15247  15308M 15309M 15309B 15438M 15439M 15439B 15461M
                                                 15464B 15505  15566M 15567M 15567B 15722M 15725B 15745  15806M 15807M
                                                 15807B 15962M 15965B 15984  16104M 16105M 16105B 16122M 16125B 16142
                                                 16218M 16219M 16219B 16249M 16252B 16269  16415M 16418B 16437  16521M
                                                 16524B 16543  16631M 16632M 16632B 16657M 16660B 16679  16863M 16866B
                                                 16993  17059M 17060M 17060B 17100M 17101M 17101B 17117M 17118M 17118B
                                                 17143M 17144M 17144B 17160M 17161M 17161B 17186M 17187M 17187B 17203M
                                                 17204M 17204B 17229M 17230M 17230B 17459M 17462B 17483  17567M 17570B
                                                 17587  17746M 17749B 17768  17888M 17889M 17889B 17906M 17909B 17927
                                                 18081M 18082M 18082B 18099M 18102B 18121  18275M 18276M 18276B 18293M
                                                 18296B 18314  18434M 18435M 18435B 18452M 18455B 18472  18592M 18593M
                                                 18593B 18610M 18613B 18632  18980M 18983B 19002  19068M 19069M 19069B
                                                 19094M 19097B 19116  19483M 19486B 19504  19637M 19640B 19658  19723M
                                                 19724M 19724B 19749M 19752B 19770  19925M 19926M 19926B 19943M 19946B
                                                 19965  20098M 20101B 20121  20177M 20178M 20178B 20304M 20307B 20368
                                                 20501M 20504B 20523  20643M 20644M 20644B 20661M 20664B 20682  20748M
                                                 20749M 20749B 20774M 20777B 20795  20883M 20884M 20884B 20909M 20912B
                                                 20930  20995M 20996M 20996B 21021M 21024B 21042  21162M 21163M 21163B
                                                 21180M 21183B 21202  21268M 21269M 21269B 21294M 21297B 21316  21436M
                                                 21437M 21437B 21454M 21457B 21475  21795M 21798B 21817  21937M 21938M
                                                 21938B 21955M 21958B 21976  22130M 22131M 22131B 22145M 22146M 22146B
                                                 22216M 22217M 22217B 22268M 22271B 22289  22443M 22444M 22444B 22458M
                                                 22459M 22459B 22529M 22530M 22530B 22581M 22584B 22715  22791M 22792M
                                                 22792B 22829M 22830M 22830B 22846M 22847M 22847B 22889M 22890M 22890B
                                                 22906M 22907M 22907B 22949M 22950M 22950B 22966M 22967M 22967B 23009M
                                                 23010M 23010B 23026M 23027M 23027B 23069M 23070M 23070B 23086M 23087M
                                                 23087B 23129M 23130M 23130B 23146M 23147M 23147B 23189M 23190M 23190B
                                                 23206M 23207M 23207B 23247M 23250B 23268  23315M 23316M 23316B 23418M
                                                 23421B 23442  23596M 23597M 23597B 23614M 23617B 23677  23797M 23798M
                                                 23798B 23815M 23818B 23836  23943M 23944M 23944B 24058M 24061B 24079
                                                 24186M 24187M 24187B 24303M 24306B 24324  24358M 24359M 24359B 24365M
                                                 24366M 24366B 24371M 24372M 24372B 24412M 24413M 24413B 24463M 24464M
                                                 24464B 24493M 24496B 24512  24632M 24633M 24633B 24650M 24653B 24669
                                                 24789M 24790M 24790B 24807M 24810B 24826  25000M 25003B 25019  25064M
                                                 25065M 25065B 25192M 25195B 25211  25243M 25244M 25244B 25282M 25283M
                                                 25283B 25308M 25311B 25327  25359M 25360M 25360B 25398M 25399M 25399B
                                                 25424M 25427B 25445  25553M 25556B 25576  25620M 25621M 25621B 25746M
1SYSV     (SYSV4072) (12:56) (15MAR04) Ordinary Symbol and Literal Cross Reference                                          Page  212
                                                 25749B 25768  25844M 25847B 25871  25918M 25919M 25919B 26021M 26024B
                                                 26043  26080M 26081M 26081B 26121M 26122M 26122B 26172M 26173M 26173B
                                                 26198M 26201B 26220  26377M 26380B 26399  26556M 26559B 26578  26735M
                                                 26738B 26757  26914M 26917B 26936  27107M 27108M 27108B 27125M 27128B
                                                 27146  27266M 27267M 27267B 27284M 27287B 27312  27432M 27433M 27433B
                                                 27450M 27453B 27472  27513M 27514M 27514B 27620M 27623B 27642  27673M
                                                 27674M 27674B 27713M 27714M 27714B 27739M 27742B 27762  27818M 27819M
                                                 27819B 27945M 27948B 27967  28049M 28050M 28050B 28075M 28078B 28098
                                                 28154M 28155M 28155B 28281M 28284B 28341  28407M 28408M 28408B 28433M
                                                 28436B 28452  28517M 28518M 28518B 28543M 28546B 28562  28717M 28718M
                                                 28718B 28735M 28738B 28754  28909M 28910M 28910B 28927M 28930B 28946
                                                 29101M 29102M 29102B 29119M 29122B 29138  29293M 29294M 29294B 29311M
                                                 29314B 29330  29489M 29492B 29533  29607M 29608M 29608B 29633M 29636B
                                                 29654  29881M 29882M 29882B 29909M 29912B 29930  30050M 30051M 30051B
                                                 30068M 30071B 30089  30222M 30225B 30244  30275M 30276M 30276B 30293M
                                                 30296B 30315  30525M 30528B 30546  30701M 30702M 30702B 30719M 30722B
                                                 30740  30860M 30861M 30861B 30878M 30881B 30899  31019M 31020M 31020B
                                                 31037M 31040B 31057  31122M 31123M 31123B 31148M 31151B 31169  31203M
                                                 31204M 31204B 31207M 31208M 31208B 31311M 31314B 31332  31363M 31364M
                                                 31364B 31367M 31368M 31368B 31407M 31408M 31408B 31433M 31436B 31452
                                                 31802M 31805B 31824  31981M 31984B 32003  32160M 32163B 32183  32267M
                                                 32270B 32330  32487M 32490B 32509  32666M 32669B 32689  32750M 32751M
                                                 32751B 32896M 32897M 32897B 32919M 32922B 32942  33017M 33018M 33018B
                                                 33173M 33176B 33196  33257M 33258M 33258B 33413M 33416B 33434  33554M
                                                 33555M 33555B 33572M 33575B 33592  33657M 33658M 33658B 33683M 33686B
                                                 33704  33837M 33840B 33858  33978M 33979M 33979B 33996M 33999B 34037
                                                 34093M 34094M 34094B 34200M 34203B 34219  34284M 34285M 34285B 34310M
                                                 34313B 34329  34394M 34395M 34395B 34420M 34423B 34439  34505M 34506M
                                                 34506B 34531M 34534B 34550  34615M 34616M 34616B 34641M 34644B 34659
                                                 34724M 34725M 34725B 34750M 34753B 34768  34833M 34834M 34834B 34859M
                                                 34862B 34900  35146M 35147M 35147B 35169M 35172B 35210  35456M 35457M
                                                 35457B 35479M 35482B 35498  35529M 35530M 35530B 35657M 35660B 35702
                                                 35822M 35823M 35823B 35840M 35843B 35859  35890M 35891M 35891B 36018M
                                                 36021B 36039  36104M 36105M 36105B 36130M 36133B 36151  36306M 36307M
                                                 36307B 36324M 36327B 36347  36531M 36534B 36553  36618M 36619M 36619B
                                                 36644M 36647B 36685  36805M 36806M 36806B 36823M 36826B 36844  36964M
                                                 36965M 36965B 36982M 36985B 37001  37033M 37034M 37034B 37072M 37073M
                                                 37073B 37098M 37101B 37117  37149M 37150M 37150B 37188M 37189M 37189B
                                                 37214M 37217B 37239  37347M 37350B 37369  37526M 37529B 37547  37731M
                                                 37734B 37753  37787M 37788M 37788B 37791M 37792M 37792B 37897M 37900B
                                                 37919  37953M 37954M 37954B 37957M 37958M 37958B 38061M 38064B 38108
                                                 38265M 38268B 38286  38365M 38366M 38366B 38396M 38399B 38418  38575M
                                                 38578B
 RETFMEM       1 00000000 00000013     T   23645 23645
 RETFNAME      1 00000000 00000019     T   28312 28312
 RMBRANCH      1 00000000 00000000 A   T    7337  7337
 RTNENTRY     20 00000000 FFFFFFDC     J    9229  9440   9564U
 RTNNAME      16 00000000 FFFFFFDC     C    9220  9241   9242   9441   9583
 RTNPTR        4 00000010 FFFFFFDC     A    9222  9576M  9576   9582   9582
 R0            0 00000000 FFFFFFFF A   #     699  2265   2334M  9426M  9434M  9528   9532M 10720M 11088M 11089  11090
                                                 11362M 11363  11364  11687M 11728M 11774  11775  11919M 11940M 11940
                                                 11965M 11965  12014  12015  12198M 12199  12200  12320M 12320  12374M
                                                 12426  12427  12547M 12547  12624M 12626M 12674  12675  12794M 12814M
                                                 12858  12859  12973M 12993M 13037  13038  13532M 13533  13534  13886M
                                                 13926  13927  14091  14092  14255  14256  14552M 14553  14554  14786M
                                                 14806M 14850  14851  14982  15303M 15344M 15390  15391  15561M 15582M
                                                 15582  15607M 15607  15656  15657  15801M 15822M 15822  15847M 15847
                                                 15896  15897  16055M 16056  16057  16348M 16349  16350  16713M 16733M
                                                 16757M 16802  16803  17048M 17089M 17089  17106M 17132M 17132  17149M
1SYSV     (SYSV4072) (12:56) (15MAR04) Ordinary Symbol and Literal Cross Reference                                          Page  213
                                                 17175M 17175  17192M 17218M 17218  17242M 17282  17283  17345M 17345
                                                 17389  17390  17839M 17840  17841  17959M 17959  17988M 18033  18034
                                                 18153M 18153  18182M 18227  18228  18385M 18386  18387  18543M 18544
                                                 18545  18664M 18684M 18708M 18732M 18756M 18780M 18804M 18827M 18847M
                                                 18875M 18919  18920  19205M 19206  19207  19324M 19325  19326  19417M
                                                 19418  19419  19575M 19576  19577  19812M 19833M 19833  19877  19878
                                                 20036M 20037  20038  20173M 20194M 20238  20239  20439M 20440  20441
                                                 20594M 20595  20596  21113M 21114  21115  21387M 21388  21389  21507M
                                                 21530M 21565M 21600M 21635M 21670M 21690M 21734  21735  21888M 21889
                                                 21890  22043M 22043  22044  22045  22121M 22213M 22218  22356M 22356
                                                 22357  22358  22434M 22526M 22531  22818M 22835M 22878M 22895M 22938M
                                                 22955M 22998M 23015M 23058M 23075M 23118M 23135M 23178M 23195M 23225M
                                                 23312M 23357  23358  23484M 23504M 23548  23549  23748M 23749  23750
                                                 24354M 24361  24583M 24584  24585  24740M 24741  24742  25061M 25615M
                                                 25636M 25636  25680  25681  25915M 25960  25961  26083M 26116  26978M
                                                 27015M 27015  27059  27060  27217M 27218  27219  27383M 27384  27385
                                                 27554  27555  27814M 27835M 27835  27879  27880  28000M 28000  28010M
                                                 28011M 28044  28150M 28171M 28171  28215  28216  28604M 28625M 28625
                                                 28669  28670  28796M 28817M 28817  28861  28862  28988M 29009M 29009
                                                 29053  29054  29180M 29201M 29201  29245  29246  29743M 29763M 29789M
                                                 29789  29833  29834  30001M 30002  30003  30160M 30161  30162  30348M
                                                 30384M 30406M 30464  30465  30588M 30609M 30609  30653  30654  30811M
                                                 30812  30813  30970M 30971  30972  31248  31249  31369M 31402  31484M
                                                 31574M 31600M 31626M 31652M 31678M 31740  31741  31856M 31876M 31920
                                                 31921  32745M 32773M 32773  32779M 32802M 32848  32849  33012M 33033M
                                                 33033  33058M 33058  33107  33108  33252M 33273M 33273  33298M 33298
                                                 33347  33348  33505M 33506  33507  33775M 33776  33777  33929M 33930
                                                 33931  34090M 34134  34135  34958M 34958  35027M 35047M 35047  35098
                                                 35099  35268M 35268  35337M 35357M 35357  35408  35409  35773M 35774
                                                 35775  36193M 36214M 36214  36258  36259  36381M 36401M 36425M 36470
                                                 36471  36756M 36757  36758  36915M 36916  36917  37598M 37598  37625M
                                                 37670  37671  37794M 37834  37835  37998  37999
 R1            1 00000001 FFFFFFFF A   #     712  2328M  2329M  2335M  9431   9436M  9439M  9442   9529   9534M  9556
                                                  9583M  9617   9617M 10719M 10964M 10965  11083M 11238M 11239  11357M
                                                 11688M 11729M 11920M 11969M 11969  12193M 12316M 12338  12543M 12565
                                                 12623M 12793M 12813M 12972M 12992M 13181M 13182  13295M 13296  13409M
                                                 13410  13528M 13677M 13678  13791M 13792  13884  13884  13885  13885
                                                 14428M 14429  14547M 14785M 14805M 14982M 15015  15304M 15345M 15562M
                                                 15611M 15611  15802M 15851M 15851  16050M 16213M 16214  16343M 16572M
                                                 16590M 16627  16712M 16732M 16756M 17041M 17084M 17105M 17127M 17148M
                                                 17170M 17191M 17213M 17237M 17349M 17349  17834M 17983M 18177M 18380M
                                                 18538M 18663M 18683M 18707M 18731M 18755M 18779M 18803M 18826M 18846M
                                                 18874M 19063M 19064  19200M 19319M 19416M 19570M 19718M 19719  19807M
                                                 20031M 20168M 20193M 20434M 20589M 20743M 20744  20824M 20842M 20879
                                                 20990M 20991  21108M 21263M 21264  21382M 21506M 21529M 21564M 21599M
                                                 21634M 21669M 21689M 21883M 22120M 22141M 22206M 22433M 22454M 22519M
                                                 22813M 22834M 22873M 22894M 22933M 22954M 22993M 23014M 23053M 23074M
                                                 23113M 23134M 23173M 23194M 23220M 23307M 23479M 23503M 23743M 23939M
                                                 24182M 24353M 24362M 24407M 24408  24458M 24459  24578M 24735M 25056M
                                                 25277M 25278  25393M 25394  25616M 25910M 26116M 26117  26167M 26168
                                                 26973M 27212M 27378M 27708M 27709  27809M 28007M 28009M 28044M 28045
                                                 28145M 28402M 28403  28512M 28513  28599M 28791M 28983M 29175M 29602M
                                                 29603  29738M 29762M 29996M 30155M 30347M 30383M 30405M 30583M 30806M
                                                 30965M 31117M 31118  31402M 31403  31483M 31573M 31599M 31625M 31651M
                                                 31677M 31855M 31875M 32746M 32780M 32803M 33013M 33062M 33062  33253M
                                                 33302M 33302  33500M 33652M 33653  33770M 33924M 34085M 34279M 34280
                                                 34389M 34390  34500M 34501  34610M 34611  34719M 34720  34828M 34829
                                                 34960M 34960  35020M 35049M 35049  35270M 35270  35330M 35359M 35359
                                                 35768M 36099M 36100  36188M 36380M 36400M 36424M 36613M 36614  36751M
1SYSV     (SYSV4072) (12:56) (15MAR04) Ordinary Symbol and Literal Cross Reference                                          Page  214
                                                 36910M 37067M 37068  37183M 37184  37596M 37596  37621M 37793  37793
                                                 38360M 38361
 R12          12 0000000C FFFFFFFF A   #     855  2291
 R14          14 0000000E FFFFFFFF A   #     881  2266M
 R15          15 0000000F FFFFFFFF A   #     894  2265   9466M  9466   9550M  9550   9606M  9636M  9636   9712M  9712
                                                 10728M 10734M 10753M 10753  10883M 10883  10997M 10997  11125M 11125
                                                 11157M 11157  11271M 11271  11399M 11399  11431M 11431  11525M 11525
                                                 11579M 11579  11610M 11610  11810M 11810  11842M 11842  12050M 12050
                                                 12082M 12082  12235M 12235  12267M 12267  12462M 12462  12494M 12494
                                                 12710M 12710  12742M 12742  12894M 12894  12921M 12921  13073M 13073
                                                 13100M 13100  13214M 13214  13328M 13328  13442M 13442  13569M 13569
                                                 13596M 13596  13710M 13710  13824M 13824  13874M 13962M 13962  13991M
                                                 13991  14042M 14127M 14127  14156M 14156  14206M 14291M 14291  14320M
                                                 14320  14461M 14461  14589M 14589  14621M 14621  14708M 14708  14734M
                                                 14734  14886M 14886  14913M 14913  15047M 15047  15141M 15141  15195M
                                                 15195  15226M 15226  15426M 15426  15463M 15463  15692M 15692  15724M
                                                 15724  15932M 15932  15964M 15964  16092M 16092  16124M 16124  16251M
                                                 16251  16385M 16385  16417M 16417  16496M 16496  16523M 16523  16659M
                                                 16659  16838M 16838  16865M 16865  17056M 17097M 17114M 17140M 17157M
                                                 17183M 17200M 17226M 17318M 17318  17425M 17425  17461M 17461  17542M
                                                 17542  17569M 17569  17662M 17662  17717M 17717  17748M 17748  17876M
                                                 17876  17908M 17908  18069M 18069  18101M 18101  18263M 18263  18295M
                                                 18295  18422M 18422  18454M 18454  18580M 18580  18612M 18612  18955M
                                                 18955  18982M 18982  19096M 19096  19242M 19242  19361M 19361  19454M
                                                 19454  19485M 19485  19612M 19612  19639M 19639  19751M 19751  19913M
                                                 19913  19945M 19945  20073M 20073  20100M 20100  20274M 20274  20306M
                                                 20306  20476M 20476  20503M 20503  20631M 20631  20663M 20663  20776M
                                                 20776  20911M 20911  21023M 21023  21150M 21150  21182M 21182  21296M
                                                 21296  21424M 21424  21456M 21456  21770M 21770  21797M 21797  21925M
                                                 21925  21957M 21957  22080M 22080  22127M 22196M 22243M 22243  22270M
                                                 22270  22393M 22393  22440M 22509M 22556M 22556  22583M 22583  22761
                                                 22788M 22826M 22843M 22886M 22903M 22946M 22963M 23006M 23023M 23066M
                                                 23083M 23126M 23143M 23186M 23203M 23249M 23249  23393M 23393  23420M
                                                 23420  23584M 23584  23616M 23616  23785M 23785  23817M 23817  23895M
                                                 23895  24008M 24008  24060M 24060  24138M 24138  24253M 24253  24305M
                                                 24305  24495M 24495  24620M 24620  24652M 24652  24777M 24777  24809M
                                                 24809  24916M 24916  24971M 24971  25002M 25002  25108M 25108  25163M
                                                 25163  25194M 25194  25240M 25277  25310M 25310  25356M 25393  25426M
                                                 25426  25555M 25555  25716M 25716  25748M 25748  25820M 25820  25846M
                                                 25846  25996M 25996  26023M 26023  26074M 26075M 26075  26077  26200M
                                                 26200  26294M 26294  26348M 26348  26379M 26379  26473M 26473  26527M
                                                 26527  26558M 26558  26652M 26652  26706M 26706  26737M 26737  26831M
                                                 26831  26885M 26885  26916M 26916  27095M 27095  27127M 27127  27254M
                                                 27254  27286M 27286  27420M 27420  27452M 27452  27590M 27590  27622M
                                                 27622  27675  27741M 27741  27915M 27915  27947M 27947  28077M 28077
                                                 28251M 28251  28283M 28283  28435M 28435  28545M 28545  28705M 28705
                                                 28737M 28737  28897M 28897  28929M 28929  29089M 29089  29121M 29121
                                                 29281M 29281  29313M 29313  29405M 29405  29460M 29460  29491M 29491
                                                 29635M 29635  29869M 29869  29911M 29911  30038M 30038  30070M 30070
                                                 30197M 30197  30224M 30224  30295M 30295  30500M 30500  30527M 30527
                                                 30689M 30689  30721M 30721  30848M 30848  30880M 30880  31007M 31007
                                                 31039M 31039  31150M 31150  31199M 31284M 31284  31313M 31313  31435M
                                                 31435  31554M 31564M 31564  31590  31616  31642  31668  31776M 31776
                                                 31804M 31804  31956M 31956  31983M 31983  32077M 32077  32131M 32131
                                                 32162M 32162  32242M 32242  32269M 32269  32404M 32404  32458M 32458
                                                 32489M 32489  32583M 32583  32637M 32637  32668M 32668  32762M 32762
                                                 32884M 32884  32921M 32921  33143M 33143  33175M 33175  33383M 33383
                                                 33415M 33415  33542M 33542  33574M 33574  33685M 33685  33812M 33812
                                                 33839M 33839  33966M 33966  33998M 33998  34076M 34170M 34170  34202M
1SYSV     (SYSV4072) (12:56) (15MAR04) Ordinary Symbol and Literal Cross Reference                                          Page  215
                                                 34202  34312M 34312  34422M 34422  34533M 34533  34643M 34643  34752M
                                                 34752  34861M 34861  34941M 34942M 34942  35005M 35005  35134M 35134
                                                 35171M 35171  35251M 35252M 35252  35315M 35315  35444M 35444  35481M
                                                 35481  35573M 35573  35628M 35628  35659M 35659  35810M 35810  35842M
                                                 35842  35934M 35934  35989M 35989  36020M 36020  36132M 36132  36294M
                                                 36294  36326M 36326  36506M 36506  36533M 36533  36646M 36646  36793M
                                                 36793  36825M 36825  36952M 36952  36984M 36984  37030M 37067  37100M
                                                 37100  37146M 37183  37216M 37216  37349M 37349  37443M 37443  37497M
                                                 37497  37528M 37528  37706M 37706  37733M 37733  37783M 37870M 37870
                                                 37899M 37899  37949M 38034M 38034  38063M 38063  38182M 38182  38236M
                                                 38236  38267M 38267  38398M 38398  38492M 38492  38546M 38546  38577M
                                                 38577
 R2            2 00000002 FFFFFFFF A   #     725  9438M  9439   9440M  9535M 10966M 11240M 11689M 11921M 12337M 12351M
                                                 12351  12371M 12564M 12578M 12578  12598M 12617  12624  13183M 13297M
                                                 13411M 13679M 13793M 14430M 15016M 15305M 15563M 15803M 16215M 16628M
                                                 19065M 19720M 20174M 20745M 20880M 20992M 21265M 22718  22769M 22769
                                                 22818  22848M 22878  22908M 22938  22968M 22998  23028M 23058  23088M
                                                 23118  23148M 23178  23208M 23245M 23648  24409M 24460M 25279M 25395M
                                                 25617M 26118M 26169M 27710M 27815M 28046M 28151M 28404M 28514M 29604M
                                                 29697M 29707U 30350M 30360U 31119M 31404M 31486M 31496U 32747M 33014M
                                                 33254M 33654M 34281M 34391M 34502M 34612M 34721M 34830M 36101M 36615M
                                                 37069M 37185M 37579M 37580M 37580  38362M
 R3            3 00000003 FFFFFFFF A   #     738  9441M 11090M 11104M 11106  11364M 11378M 11380  11775M 11789M 11791
                                                 12015M 12029M 12031  12200M 12214M 12216  12338M 12377M 12427M 12441M
                                                 12443  12565M 12601M 12623  12675M 12689M 12691  12859M 12873M 12875
                                                 13038M 13052M 13054  13534M 13548M 13550  13927M 13941M 13943  14092M
                                                 14106M 14108  14256M 14270M 14272  14554M 14568M 14570  14851M 14865M
                                                 14867  15391M 15405M 15407  15657M 15671M 15673  15897M 15911M 15913
                                                 16057M 16071M 16073  16350M 16364M 16366  16803M 16817M 16819  17283M
                                                 17297M 17299  17390M 17404M 17406  17841M 17855M 17857  18034M 18048M
                                                 18050  18228M 18242M 18244  18387M 18401M 18403  18545M 18559M 18561
                                                 18920M 18934M 18936  19207M 19221M 19223  19326M 19340M 19342  19419M
                                                 19433M 19435  19577M 19591M 19593  19878M 19892M 19894  20038M 20052M
                                                 20054  20239M 20253M 20255  20441M 20455M 20457  20596M 20610M 20612
                                                 21115M 21129M 21131  21389M 21403M 21405  21735M 21749M 21751  21890M
                                                 21904M 21906  22045M 22059M 22061  22358M 22372M 22374  23358M 23372M
                                                 23374  23549M 23563M 23565  23750M 23764M 23766  24585M 24599M 24601
                                                 24742M 24756M 24758  25681M 25695M 25697  25961M 25975M 25977  27060M
                                                 27074M 27076  27219M 27233M 27235  27385M 27399M 27401  27555M 27569M
                                                 27571  27880M 27894M 27896  28216M 28230M 28232  28670M 28684M 28686
                                                 28862M 28876M 28878  29054M 29068M 29070  29246M 29260M 29262  29568M
                                                 29602  29683M 29693U 29834M 29848M 29850  30003M 30017M 30019  30162M
                                                 30176M 30178  30465M 30479M 30481  30654M 30668M 30670  30813M 30827M
                                                 30829  30972M 30986M 30988  31249M 31263M 31265  31503M 31504M 31504
                                                 31525U 31741M 31755M 31757  31921M 31935M 31937  32849M 32863M 32865
                                                 33108M 33122M 33124  33348M 33362M 33364  33507M 33521M 33523  33777M
                                                 33791M 33793  33931M 33945M 33947  34135M 34149M 34151  35099M 35113M
                                                 35115  35409M 35423M 35425  35775M 35789M 35791  36259M 36273M 36275
                                                 36471M 36485M 36487  36758M 36772M 36774  36917M 36931M 36933  37671M
                                                 37685M 37687  37835M 37849M 37851  37999M 38013M 38015
 R4            4 00000004 FFFFFFFF A   #     751  9442M  9528M 22091M 22102U 22404M 22415U 23906M 23917U 24149M 24160U
                                                 27675M 27708
 R5            5 00000005 FFFFFFFF A   #     764  9529M  9535  38315M 38325U
 R6            6 00000006 FFFFFFFF A   #     777  9556M  9564U 10811U 10943U 11057U 11217U 11331U 11506U 11560U 11746U
                                                 11986U 12167U 12398U 12646U 12830U 13009U 13160U 13274U 13388U 13502U
                                                 13656U 13770U 13898U 14063U 14227U 14407U 14521U 14692U 14822U 14994U
                                                 15122U 15176U 15362U 15628U 15868U 16024U 16192U 16319U 16477U 16606U
                                                 16774U 17254U 17361U 17523U 17643U 17698U 17808U 18005U 18199U 18354U
                                                 18512U 18891U 19042U 19174U 19293U 19396U 19544U 19698U 19849U 20005U
1SYSV     (SYSV4072) (12:56) (15MAR04) Ordinary Symbol and Literal Cross Reference                                          Page  216
                                                 20210U 20408U 20563U 20722U 20858U 20970U 21082U 21242U 21356U 21706U
                                                 21857U 22016U 22173U 22329U 22486U 23329U 23520U 23717U 23876U 23989U
                                                 24119U 24234U 24386U 24437U 24552U 24709U 24897U 24952U 25089U 25144U
                                                 25256U 25372U 25483U 25652U 25804U 25932U 26095U 26146U 26275U 26329U
                                                 26454U 26508U 26633U 26687U 26812U 26866U 27031U 27186U 27352U 27526U
                                                 27687U 27851U 28023U 28187U 28381U 28492U 28641U 28833U 29025U 29217U
                                                 29386U 29441U 29581U 29805U 29970U 30129U 30436U 30625U 30780U 30939U
                                                 31097U 31220U 31381U 31712U 31892U 32058U 32112U 32223U 32385U 32439U
                                                 32564U 32618U 32820U 33079U 33319U 33474U 33632U 33744U 33898U 34106U
                                                 34259U 34369U 34479U 34590U 34699U 34808U 35070U 35380U 35554U 35609U
                                                 35742U 35915U 35970U 36079U 36230U 36442U 36593U 36725U 36884U 37046U
                                                 37162U 37277U 37424U 37478U 37642U 37806U 37970U 38163U 38217U 38340U
                                                 38473U 38527U
 R7            7 00000007 FFFFFFFF A   #     790  2258M  2258   2259B  2271B
 R8            8 00000008 FFFFFFFF A   #     803 11666U 11898U 15282U 15540U 15780U 16177U 16304U 17028U 20156U 22750U
                                                 25611U 27507U 27797U 28133U 32724U 32977U 33231U 34072U 34935U 35245U
 SDSNQSZ       1 0000002C FFFFFFEC A   U    6246  6247   6248
 SEG           1 00000000 00000010     T   20328 20328  23641
 SEGCR         1 00000000 00000006     T   12095 12095
 SEGDC         1 00000000 0000000F     T   20327 20327
 SEGINIT       1 00000000 0000000E     T   20326 20326  23640
 SEGWR         1 00000000 00000011     T   23637 23637
 SIN         224 00000000 FFFFFFE2     J    8455 29707U 29723
 SINSTAG      16 00000052 FFFFFFE2     C    8413 29738  29743
 SINVPGM       8 00000098 FFFFFFE2     C    8423  8429   8429
 SPR          13 0000000D 00000001 A   #    1270  9395   9398   9399   9400M  9400   9458M  9462   9464   9498   9501
                                                  9502   9503M  9503   9628M  9632   9634   9661   9664   9665   9666M
                                                  9666   9704M  9708   9710  10686  10689  10690  10691M 10691  10745M
                                                 10749  10751  10773  10776  10777  10778M 10778  10875M 10879  10881
                                                 10903  10906  10907  10908M 10908  10989M 10993  10995  11017  11020
                                                 11021  11022M 11022  11149M 11153  11155  11177  11180  11181  11182M
                                                 11182  11263M 11267  11269  11291  11294  11295  11296M 11296  11423M
                                                 11427  11429  11451  11454  11455  11456M 11456  11602M 11606  11608
                                                 11631  11634  11636  11637M 11637  11834M 11838  11840  11863  11866
                                                 11868  11869M 11869  12074M 12078  12080  12127  12130  12131  12132M
                                                 12132  12259M 12263  12265  12287  12290  12291  12292M 12292  12486M
                                                 12490  12492  12514  12517  12518  12519M 12519  12734M 12738  12740
                                                 12762  12765  12766  12767M 12767  12913M 12917  12919  12941  12944
                                                 12945  12946M 12946  13092M 13096  13098  13120  13123  13124  13125M
                                                 13125  13206M 13210  13212  13234  13237  13238  13239M 13239  13320M
                                                 13324  13326  13348  13351  13352  13353M 13353  13434M 13438  13440
                                                 13462  13465  13466  13467M 13467  13588M 13592  13594  13616  13619
                                                 13620  13621M 13621  13702M 13706  13708  13730  13733  13734  13735M
                                                 13735  13816M 13820  13822  13844  13847  13848  13849M 13849  13983M
                                                 13987  13989  14012  14015  14016  14017M 14017  14148M 14152  14154
                                                 14176  14179  14180  14181M 14181  14312M 14316  14318  14367  14370
                                                 14371  14372M 14372  14453M 14457  14459  14481  14484  14485  14486M
                                                 14486  14613M 14617  14619  14656  14659  14660  14661M 14661  14726M
                                                 14730  14732  14754  14757  14758  14759M 14759  14905M 14909  14911
                                                 14949  14952  14953  14954M 14954  15039M 15043  15045  15067  15070
                                                 15071  15072M 15072  15218M 15222  15224  15247  15250  15252  15253M
                                                 15253  15455M 15459  15461  15505  15508  15510  15511M 15511  15716M
                                                 15720  15722  15745  15748  15750  15751M 15751  15956M 15960  15962
                                                 15984  15987  15988  15989M 15989  16116M 16120  16122  16142  16145
                                                 16147  16148M 16148  16243M 16247  16249  16269  16272  16274  16275M
                                                 16275  16409M 16413  16415  16437  16440  16441  16442M 16442  16515M
                                                 16519  16521  16543  16546  16547  16548M 16548  16651M 16655  16657
                                                 16679  16682  16683  16684M 16684  16857M 16861  16863  16993  16996
                                                 16998  16999M 16999  17453M 17457  17459  17483  17486  17487  17488M
1SYSV     (SYSV4072) (12:56) (15MAR04) Ordinary Symbol and Literal Cross Reference                                          Page  217
                                                 17488  17561M 17565  17567  17587  17590  17591  17592M 17592  17740M
                                                 17744  17746  17768  17771  17772  17773M 17773  17900M 17904  17906
                                                 17927  17930  17931  17932M 17932  18093M 18097  18099  18121  18124
                                                 18125  18126M 18126  18287M 18291  18293  18314  18317  18318  18319M
                                                 18319  18446M 18450  18452  18472  18475  18476  18477M 18477  18604M
                                                 18608  18610  18632  18635  18636  18637M 18637  18974M 18978  18980
                                                 19002  19005  19006  19007M 19007  19088M 19092  19094  19116  19119
                                                 19120  19121M 19121  19477M 19481  19483  19504  19507  19508  19509M
                                                 19509  19631M 19635  19637  19658  19661  19662  19663M 19663  19743M
                                                 19747  19749  19770  19773  19774  19775M 19775  19937M 19941  19943
                                                 19965  19968  19969  19970M 19970  20092M 20096  20098  20121  20124
                                                 20126  20127M 20127  20298M 20302  20304  20368  20371  20372  20373M
                                                 20373  20495M 20499  20501  20523  20526  20527  20528M 20528  20655M
                                                 20659  20661  20682  20685  20686  20687M 20687  20768M 20772  20774
                                                 20795  20798  20799  20800M 20800  20903M 20907  20909  20930  20933
                                                 20934  20935M 20935  21015M 21019  21021  21042  21045  21046  21047M
                                                 21047  21174M 21178  21180  21202  21205  21206  21207M 21207  21288M
                                                 21292  21294  21316  21319  21320  21321M 21321  21448M 21452  21454
                                                 21475  21478  21479  21480M 21480  21789M 21793  21795  21817  21820
                                                 21821  21822M 21822  21949M 21953  21955  21976  21979  21980  21981M
                                                 21981  22262M 22266  22268  22289  22292  22293  22294M 22294  22575M
                                                 22579  22581  22715  22718  22720  22721M 22721  23241M 23245  23247
                                                 23268  23271  23272  23273M 23273  23412M 23416  23418  23442  23445
                                                 23446  23447M 23447  23608M 23612  23614  23677  23680  23681  23682M
                                                 23682  23809M 23813  23815  23836  23839  23840  23841M 23841  24052M
                                                 24056  24058  24079  24082  24083  24084M 24084  24297M 24301  24303
                                                 24324  24327  24328  24329M 24329  24487M 24491  24493  24512  24515
                                                 24516  24517M 24517  24644M 24648  24650  24669  24672  24673  24674M
                                                 24674  24801M 24805  24807  24826  24829  24830  24831M 24831  24994M
                                                 24998  25000  25019  25022  25023  25024M 25024  25186M 25190  25192
                                                 25211  25214  25215  25216M 25216  25302M 25306  25308  25327  25330
                                                 25331  25332M 25332  25418M 25422  25424  25445  25448  25449  25450M
                                                 25450  25547M 25551  25553  25576  25579  25581  25582M 25582  25740M
                                                 25744  25746  25768  25771  25772  25773M 25773  25838M 25842  25844
                                                 25871  25874  25875  25876M 25876  26015M 26019  26021  26043  26046
                                                 26047  26048M 26048  26192M 26196  26198  26220  26223  26224  26225M
                                                 26225  26371M 26375  26377  26399  26402  26403  26404M 26404  26550M
                                                 26554  26556  26578  26581  26582  26583M 26583  26729M 26733  26735
                                                 26757  26760  26761  26762M 26762  26908M 26912  26914  26936  26939
                                                 26940  26941M 26941  27119M 27123  27125  27146  27149  27150  27151M
                                                 27151  27278M 27282  27284  27312  27315  27316  27317M 27317  27444M
                                                 27448  27450  27472  27475  27477  27478M 27478  27614M 27618  27620
                                                 27642  27645  27646  27647M 27647  27733M 27737  27739  27762  27765
                                                 27767  27768M 27768  27939M 27943  27945  27967  27970  27971  27972M
                                                 27972  28069M 28073  28075  28098  28101  28103  28104M 28104  28275M
                                                 28279  28281  28341  28344  28345  28346M 28346  28427M 28431  28433
                                                 28452  28455  28456  28457M 28457  28537M 28541  28543  28562  28565
                                                 28566  28567M 28567  28729M 28733  28735  28754  28757  28758  28759M
                                                 28759  28921M 28925  28927  28946  28949  28950  28951M 28951  29113M
                                                 29117  29119  29138  29141  29142  29143M 29143  29305M 29309  29311
                                                 29330  29333  29334  29335M 29335  29483M 29487  29489  29533  29536
                                                 29537  29538M 29538  29627M 29631  29633  29654  29657  29658  29659M
                                                 29659  29903M 29907  29909  29930  29933  29934  29935M 29935  30062M
                                                 30066  30068  30089  30092  30093  30094M 30094  30216M 30220  30222
                                                 30244  30247  30248  30249M 30249  30287M 30291  30293  30315  30318
                                                 30319  30320M 30320  30519M 30523  30525  30546  30549  30550  30551M
                                                 30551  30713M 30717  30719  30740  30743  30744  30745M 30745  30872M
                                                 30876  30878  30899  30902  30903  30904M 30904  31031M 31035  31037
                                                 31057  31060  31061  31062M 31062  31142M 31146  31148  31169  31172
1SYSV     (SYSV4072) (12:56) (15MAR04) Ordinary Symbol and Literal Cross Reference                                          Page  218
                                                 31173  31174M 31174  31305M 31309  31311  31332  31335  31336  31337M
                                                 31337  31427M 31431  31433  31452  31455  31456  31457M 31457  31796M
                                                 31800  31802  31824  31827  31828  31829M 31829  31975M 31979  31981
                                                 32003  32006  32007  32008M 32008  32154M 32158  32160  32183  32186
                                                 32187  32188M 32188  32261M 32265  32267  32330  32333  32334  32335M
                                                 32335  32481M 32485  32487  32509  32512  32513  32514M 32514  32660M
                                                 32664  32666  32689  32692  32694  32695M 32695  32913M 32917  32919
                                                 32942  32945  32947  32948M 32948  33167M 33171  33173  33196  33199
                                                 33201  33202M 33202  33407M 33411  33413  33434  33437  33438  33439M
                                                 33439  33566M 33570  33572  33592  33595  33596  33597M 33597  33677M
                                                 33681  33683  33704  33707  33708  33709M 33709  33831M 33835  33837
                                                 33858  33861  33862  33863M 33863  33990M 33994  33996  34037  34040
                                                 34042  34043M 34043  34194M 34198  34200  34219  34222  34223  34224M
                                                 34224  34304M 34308  34310  34329  34332  34333  34334M 34334  34414M
                                                 34418  34420  34439  34442  34443  34444M 34444  34525M 34529  34531
                                                 34550  34553  34554  34555M 34555  34635M 34639  34641  34659  34662
                                                 34663  34664M 34664  34744M 34748  34750  34768  34771  34772  34773M
                                                 34773  34853M 34857  34859  34900  34903  34905  34906M 34906  35163M
                                                 35167  35169  35210  35213  35215  35216M 35216  35473M 35477  35479
                                                 35498  35501  35502  35503M 35503  35651M 35655  35657  35702  35705
                                                 35706  35707M 35707  35834M 35838  35840  35859  35862  35863  35864M
                                                 35864  36012M 36016  36018  36039  36042  36043  36044M 36044  36124M
                                                 36128  36130  36151  36154  36155  36156M 36156  36318M 36322  36324
                                                 36347  36350  36351  36352M 36352  36525M 36529  36531  36553  36556
                                                 36557  36558M 36558  36638M 36642  36644  36685  36688  36689  36690M
                                                 36690  36817M 36821  36823  36844  36847  36848  36849M 36849  36976M
                                                 36980  36982  37001  37004  37005  37006M 37006  37092M 37096  37098
                                                 37117  37120  37121  37122M 37122  37208M 37212  37214  37239  37242
                                                 37243  37244M 37244  37341M 37345  37347  37369  37372  37373  37374M
                                                 37374  37520M 37524  37526  37547  37550  37551  37552M 37552  37725M
                                                 37729  37731  37753  37756  37757  37758M 37758  37891M 37895  37897
                                                 37919  37922  37923  37924M 37924  38055M 38059  38061  38108  38111
                                                 38112  38113M 38113  38259M 38263  38265  38286  38289  38290  38291M
                                                 38291  38390M 38394  38396  38418  38421  38422  38423M 38423  38569M
                                                 38573  38575
 SYSCHECK      1 00000000 00000017     T   28307 28307
 SYSVARS       4 00000118 00000001     F    9753  9724
 SYSVEND       4 00000E4C 00000001     F   10598  9723
 SYSV4072      1 00000000 00000001     R    1303  1301
 TIMEDATE      1 00000000 0000001D     T   32284 32284
 TRC           1 00000000 00000000 A   T    2287  2287
 TTYFLAG       1 00000004 FFFFFFEA     R    6375  6379
 TTYMAX#       1 00000006 FFFFFFEA A   U    6431  6432
 TTYTFLAG      1 00000005 FFFFFFEA     R    6385  6389   6394   6399   6404   6409   6414   6419
 UPPTBL        1 00000000 00000000 A   T    2350  2350
 USEBLOCK      1 0000000F FFFFFFE5     X    7843 31554
 USERCVT     863 00000000 FFFFFFE5     J    7887 31525U 31540
 VLOGCHK       1 00000000 0000001F     T   35680 35680
 VNADATA      48 00000020 FFFFFFDF     X    8825  9002   9002
 VNAFLAGS      1 00000011 FFFFFFDF     R    8806  8810
 VNAREA        1 00000024 FFFFFFDF     U    8943  8945   8949   8955   9004   9010   9015   9021
 VNARRAY       4 00000020 FFFFFFDF         8869  9186   9186
 VNATYPE       1 00000030 FFFFFFDF     R    8962  8971   8981   8991
 VNBOOL        3 00000020 FFFFFFDF         8859  9182   9182  11523M 11577M 15139M 15193M 16494M 17540M 17660M 17715M
                                                 23893M 24006M 24136M 24251M 24914M 24969M 25106M 25161M 26292M 26346M
                                                 26471M 26525M 26650M 26704M 26829M 26883M 29403M 29458M 32075M 32129M
                                                 32240M 32402M 32456M 32581M 32635M 35571M 35626M 35932M 35987M 37441M
                                                 37495M 38180M 38234M 38490M 38544M
 VNDATA       16 00000020 FFFFFFDF     X    8821  8822   8824   8826   9008   9008   9013   9013   9019   9019   9024
1SYSV     (SYSV4072) (12:56) (15MAR04) Ordinary Symbol and Literal Cross Reference                                          Page  219
                                                  9024
 VNDEBUG       1 00000021 FFFFFFDF     R    8904  8908   8913   8918   8923
 VNDESC       32 00000000 FFFFFFDF     X    8747  8748   8816   8816   9111   9172   9172
 VNENTRY      80 00000000 FFFFFFDF     J    9037  9056   9103   9111   9172   9177   9180   9182   9184   9186   9189
                                                  9191   9193  10811U 10821M 10821  10943U 10954M 10954  10966  11057U
                                                 11068M 11068  11217U 11228M 11228  11240  11331U 11342M 11342  11506U
                                                 11517M 11517  11560U 11571M 11571  11746U 11757M 11757  11986U 11997M
                                                 11997  12167U 12178M 12178  12398U 12409M 12409  12646U 12657M 12657
                                                 12830U 12841M 12841  13009U 13020M 13020  13160U 13171M 13171  13183
                                                 13274U 13285M 13285  13297  13388U 13399M 13399  13411  13502U 13513M
                                                 13513  13656U 13667M 13667  13679  13770U 13781M 13781  13793  13898U
                                                 13909M 13909  14063U 14074M 14074  14227U 14238M 14238  14407U 14418M
                                                 14418  14430  14521U 14532M 14532  14692U 14700M 14700  14822U 14833M
                                                 14833  14994U 15005M 15005  15016  15122U 15133M 15133  15176U 15187M
                                                 15187  15362U 15373M 15373  15628U 15639M 15639  15868U 15879M 15879
                                                 16024U 16035M 16035  16192U 16203M 16203  16215  16319U 16330M 16330
                                                 16477U 16488M 16488  16606U 16617M 16617  16628  16774U 16785M 16785
                                                 17254U 17265M 17265  17361U 17372M 17372  17523U 17534M 17534  17643U
                                                 17654M 17654  17698U 17709M 17709  17808U 17819M 17819  18005U 18016M
                                                 18016  18199U 18210M 18210  18354U 18365M 18365  18512U 18523M 18523
                                                 18891U 18902M 18902  19042U 19053M 19053  19065  19174U 19185M 19185
                                                 19293U 19304M 19304  19396U 19407M 19407  19544U 19555M 19555  19698U
                                                 19709M 19709  19720  19849U 19860M 19860  20005U 20016M 20016  20210U
                                                 20221M 20221  20408U 20419M 20419  20563U 20574M 20574  20722U 20733M
                                                 20733  20745  20858U 20869M 20869  20880  20970U 20981M 20981  20992
                                                 21082U 21093M 21093  21242U 21253M 21253  21265  21356U 21367M 21367
                                                 21706U 21717M 21717  21857U 21868M 21868  22016U 22027M 22027  22173U
                                                 22184M 22184  22329U 22340M 22340  22486U 22497M 22497  23329U 23340M
                                                 23340  23520U 23531M 23531  23717U 23728M 23728  23876U 23887M 23887
                                                 23989U 24000M 24000  24119U 24130M 24130  24234U 24245M 24245  24386U
                                                 24397M 24397  24409  24437U 24448M 24448  24460  24552U 24563M 24563
                                                 24709U 24720M 24720  24897U 24908M 24908  24952U 24963M 24963  25089U
                                                 25100M 25100  25144U 25155M 25155  25256U 25267M 25267  25279  25372U
                                                 25383M 25383  25395  25483U 25493M 25493  25652U 25663M 25663  25804U
                                                 25812M 25812  25932U 25943M 25943  26095U 26106M 26106  26118  26146U
                                                 26157M 26157  26169  26275U 26286M 26286  26329U 26340M 26340  26454U
                                                 26465M 26465  26508U 26519M 26519  26633U 26644M 26644  26687U 26698M
                                                 26698  26812U 26823M 26823  26866U 26877M 26877  27031U 27042M 27042
                                                 27186U 27197M 27197  27352U 27363M 27363  27526U 27537M 27537  27687U
                                                 27698M 27698  27710  27851U 27862M 27862  28023U 28034M 28034  28046
                                                 28187U 28198M 28198  28381U 28392M 28392  28404  28492U 28503M 28503
                                                 28514  28641U 28652M 28652  28833U 28844M 28844  29025U 29036M 29036
                                                 29217U 29228M 29228  29386U 29397M 29397  29441U 29452M 29452  29581U
                                                 29592M 29592  29604  29805U 29816M 29816  29970U 29981M 29981  30129U
                                                 30140M 30140  30436U 30447M 30447  30625U 30636M 30636  30780U 30791M
                                                 30791  30939U 30950M 30950  31097U 31108M 31108  31119  31220U 31231M
                                                 31231  31381U 31392M 31392  31404  31712U 31723M 31723  31892U 31903M
                                                 31903  32058U 32069M 32069  32112U 32123M 32123  32223U 32234M 32234
                                                 32385U 32396M 32396  32439U 32450M 32450  32564U 32575M 32575  32618U
                                                 32629M 32629  32820U 32831M 32831  33079U 33090M 33090  33319U 33330M
                                                 33330  33474U 33485M 33485  33632U 33643M 33643  33654  33744U 33755M
                                                 33755  33898U 33909M 33909  34106U 34117M 34117  34259U 34270M 34270
                                                 34281  34369U 34380M 34380  34391  34479U 34490M 34490  34502  34590U
                                                 34601M 34601  34612  34699U 34710M 34710  34721  34808U 34819M 34819
                                                 34830  35070U 35081M 35081  35380U 35391M 35391  35554U 35565M 35565
                                                 35609U 35620M 35620  35742U 35753M 35753  35915U 35926M 35926  35970U
                                                 35981M 35981  36079U 36090M 36090  36101  36230U 36241M 36241  36442U
                                                 36453M 36453  36593U 36604M 36604  36615  36725U 36736M 36736  36884U
                                                 36895M 36895  37046U 37057M 37057  37069  37162U 37173M 37173  37185
1SYSV     (SYSV4072) (12:56) (15MAR04) Ordinary Symbol and Literal Cross Reference                                          Page  220
                                                 37277U 37287M 37287  37424U 37435M 37435  37478U 37489M 37489  37642U
                                                 37653M 37653  37806U 37817M 37817  37970U 37981M 37981  38163U 38174M
                                                 38174  38217U 38228M 38228  38340U 38351M 38351  38362  38473U 38484M
                                                 38484  38527U 38538M 38538
 VNFLAGS1      1 00000022 FFFFFFDF     R    8928  8932
 VNNAME       16 00000000 FFFFFFDF     C    8749  9001   9177   9177   9239   9240
 VNNUMB        2 00000020 FFFFFFDF         8849  9180   9180  10960M 11234M 13177M 13291M 13405M 13673M 13787M 14424M
                                                 14706M 15011M 16209M 16623M 19059M 19715M 20739M 20875M 20987M 21259M
                                                 24403M 24454M 25273M 25389M 25818M 26112M 26163M 27704M 28040M 28398M
                                                 28509M 29598M 31114M 31398M 33649M 34276M 34386M 34496M 34607M 34716M
                                                 34825M 36096M 36610M 37063M 37179M 38357M
 VNPREFIX      1 00000010 FFFFFFDF     R    8752  8761   8771   8781   8791   8801
 VNSDATA       6 00000020 FFFFFFDF     X    8823  8953   8953
 VNSTRING      1 00000020 FFFFFFDF         8839  9184   9184  10827M 11074M 11348M 11763M 12003M 12184M 12415M 12663M
                                                 12847M 13026M 13519M 13915M 14080M 14244M 14538M 14839M 15379M 15645M
                                                 15885M 16041M 16336M 16791M 17271M 17378M 17825M 18022M 18216M 18371M
                                                 18529M 18908M 19191M 19310M 19413M 19561M 19866M 20022M 20227M 20425M
                                                 20580M 21099M 21373M 21723M 21874M 22033M 22190M 22346M 22503M 23346M
                                                 23537M 23734M 24569M 24726M 25499M 25669M 25949M 27048M 27203M 27369M
                                                 27543M 27868M 28204M 28658M 28850M 29042M 29234M 29822M 29987M 30146M
                                                 30453M 30642M 30797M 30956M 31237M 31729M 31909M 32837M 33096M 33336M
                                                 33491M 33761M 33915M 34123M 35087M 35397M 35759M 36247M 36459M 36742M
                                                 36901M 37293M 37659M 37823M 37987M
 VNSTRLEN      2 00000024 FFFFFFDF     H    8951  9193   9193  10834M 10834  10852M 11089M 11363M 11774M 12014M 12199M
                                                 12426M 12674M 12858M 13037M 13533M 13926M 14091M 14255M 14553M 14850M
                                                 15390M 15656M 15896M 16056M 16349M 16802M 17282M 17389M 17840M 18033M
                                                 18227M 18386M 18544M 18919M 19206M 19325M 19418M 19576M 19877M 20037M
                                                 20238M 20440M 20595M 21114M 21388M 21734M 21889M 22044M 22218M 22357M
                                                 22531M 23357M 23548M 23749M 24584M 24741M 25506M 25506  25524M 25680M
                                                 25960M 27059M 27218M 27384M 27554M 27879M 28215M 28669M 28861M 29053M
                                                 29245M 29833M 30002M 30161M 30464M 30653M 30812M 30971M 31248M 31740M
                                                 31920M 32848M 33107M 33347M 33506M 33776M 33930M 34134M 35098M 35408M
                                                 35774M 36258M 36470M 36757M 36916M 37300M 37300  37318M 37670M 37834M
                                                 37998M
 VNSTRLOC      1 00000026 FFFFFFDF     C    8952  9191   9191  10853M 10854M 10855M 11113M 11387M 11798M 12038M 12223M
                                                 12450M 12698M 12882M 13061M 13557M 13950M 14115M 14279M 14577M 14874M
                                                 15414M 15680M 15920M 16080M 16373M 16826M 17306M 17413M 17864M 18057M
                                                 18251M 18410M 18568M 18943M 19230M 19349M 19442M 19600M 19901M 20061M
                                                 20262M 20464M 20619M 21138M 21412M 21758M 21913M 22068M 22206  22381M
                                                 22519  23381M 23572M 23773M 24608M 24765M 25525M 25526M 25527M 25704M
                                                 25984M 27083M 27242M 27408M 27578M 27903M 28239M 28693M 28885M 29077M
                                                 29269M 29857M 30026M 30185M 30488M 30677M 30836M 30995M 31272M 31764M
                                                 31944M 32872M 33131M 33371M 33530M 33800M 33954M 34158M 35122M 35432M
                                                 35798M 36282M 36494M 36781M 36940M 37319M 37320M 37321M 37694M 37858M
                                                 38022M
 VNTYPE        1 00000020 FFFFFFDF     R    8830  8839   8849   8859   8869   8879   8889   8899
 VNVALUE      12 00000024 FFFFFFDF     X    8947  9028   9189   9189  10965M 11239M 11524M 11578M 13182M 13296M 13410M
                                                 13678M 13792M 14429M 14707M 15015M 15140M 15194M 16214M 16495M 16627M
                                                 17541M 17661M 17716M 19064M 19719M 20744M 20879M 20991M 21264M 23894M
                                                 24007M 24137M 24252M 24408M 24459M 24915M 24970M 25107M 25162M 25278M
                                                 25394M 25819M 26117M 26168M 26293M 26347M 26472M 26526M 26651M 26705M
                                                 26830M 26884M 27709M 28045M 28403M 28513M 29404M 29459M 29603M 31118M
                                                 31403M 32076M 32130M 32241M 32403M 32457M 32582M 32636M 33653M 34280M
                                                 34390M 34501M 34611M 34720M 34829M 35572M 35627M 35933M 35988M 36100M
                                                 36614M 37068M 37184M 37442M 37496M 38181M 38235M 38361M 38491M 38545M
 VPARM       336 00000000 FFFFFFDE     J    9064  9105   9195   9196  10639  10640  10641  10642  10643  10644  10645
                                                 10646  10648  10659
 VSESCHK       1 00000000 00000020     T   36657 36657
 VTRIM         2 000000D0 00000001     H    9655 12097  14330  14632  15480  20322  23627  28298  29503  32280  35676
1SYSV     (SYSV4072) (12:56) (15MAR04) Ordinary Symbol and Literal Cross Reference                                          Page  221
                                                 36656  38074
 VTRIM         1 00000000 00000005     T    9727  9727
 WAR           8 00000008 00000001 A   #    1193  9399M  9458   9502M  9617   9628   9665M  9704  10690M 10745  10777M
                                                 10875  10907M 10989  11021M 11149  11181M 11263  11295M 11423  11455M
                                                 11602  11636M 11834  11868M 12074  12131M 12259  12291M 12486  12518M
                                                 12734  12766M 12913  12945M 13092  13124M 13206  13238M 13320  13352M
                                                 13434  13466M 13588  13620M 13702  13734M 13816  13848M 13983  14016M
                                                 14148  14180M 14312  14371M 14453  14485M 14613  14660M 14726  14758M
                                                 14905  14953M 15039  15071M 15218  15252M 15455  15510M 15716  15750M
                                                 15956  15988M 16116  16147M 16243  16274M 16409  16441M 16515  16547M
                                                 16651  16683M 16857  16998M 17453  17487M 17561  17591M 17740  17772M
                                                 17900  17931M 18093  18125M 18287  18318M 18446  18476M 18604  18636M
                                                 18974  19006M 19088  19120M 19477  19508M 19631  19662M 19743  19774M
                                                 19937  19969M 20092  20126M 20298  20372M 20495  20527M 20655  20686M
                                                 20768  20799M 20903  20934M 21015  21046M 21174  21206M 21288  21320M
                                                 21448  21479M 21789  21821M 21949  21980M 22262  22293M 22575  22720M
                                                 23241  23272M 23412  23446M 23608  23681M 23809  23840M 24052  24083M
                                                 24297  24328M 24487  24516M 24644  24673M 24801  24830M 24994  25023M
                                                 25186  25215M 25302  25331M 25418  25449M 25547  25581M 25740  25772M
                                                 25838  25875M 26015  26047M 26192  26224M 26371  26403M 26550  26582M
                                                 26729  26761M 26908  26940M 27119  27150M 27278  27316M 27444  27477M
                                                 27614  27646M 27733  27767M 27939  27971M 28069  28103M 28275  28345M
                                                 28427  28456M 28537  28566M 28729  28758M 28921  28950M 29113  29142M
                                                 29305  29334M 29483  29537M 29627  29658M 29903  29934M 30062  30093M
                                                 30216  30248M 30287  30319M 30519  30550M 30713  30744M 30872  30903M
                                                 31031  31061M 31142  31173M 31305  31336M 31427  31456M 31796  31828M
                                                 31975  32007M 32154  32187M 32261  32334M 32481  32513M 32660  32694M
                                                 32913  32947M 33167  33201M 33407  33438M 33566  33596M 33677  33708M
                                                 33831  33862M 33990  34042M 34194  34223M 34304  34333M 34414  34443M
                                                 34525  34554M 34635  34663M 34744  34772M 34853  34905M 35163  35215M
                                                 35473  35502M 35651  35706M 35834  35863M 36012  36043M 36124  36155M
                                                 36318  36351M 36525  36557M 36638  36689M 36817  36848M 36976  37005M
                                                 37092  37121M 37208  37243M 37341  37373M 37520  37551M 37725  37757M
                                                 37891  37923M 38055  38112M 38259  38290M 38390  38422M 38569
 WTOSG         1 00000000 00000000 A   T    2247  2247
 WYLSYSV       1 00000000 00000001     J    1157  1159   1175   1188   1201   1213   1226   1239   1252   1265   1278
                                                  1291   2531   2615   6355   6467   8692   8695   8725   9038   9065
                                                  9204   9230
 XSENTRY      80 00000000 FFFFFFDD     J    9203  9177   9180   9182   9184   9189   9191   9193
 XSLENTRY    336 00000000 FFFFFFDD     U    9105  9195   9196
 XSTYPE        1 00000000 FFFFFFDD     R    9114  9123   9133   9143   9153   9163
 XXSSTART      8 00000000 FFFFFFDD     D    9102  9105   9111   9172
 =A(FNPROJ)
               4 00003FA8 00000001     A   32281 30275
 =A(GETMACH)
               4 00002BD8 00000001     A   23639 22216  22529
 =A(SYSVARS)
               4 00000108 00000001     A    9724  9438   9534
 =A(SYSVEND)
               4 00000104 00000001     A    9723  9436
 =A(VTRIM)
               4 00001188 00000001     A   12097 11137  11411
 =A(VTRIM)
               4 000016B0 00000001     A   14330 12247  12474  12722
 =A(VTRIM)
               4 000017BC 00000001     A   14632 14601
 =A(VTRIM)
               4 000019CC 00000001     A   15480 15438
 =A(VTRIM)
1SYSV     (SYSV4072) (12:56) (15MAR04) Ordinary Symbol and Literal Cross Reference                                          Page  222
               4 00002384 00000001     A   20322 16104  17888  18081  18275  18434  18592  19925
 =A(VTRIM)
               4 00002BA0 00000001     A   23627 20643  21162  21436  21937  23596
 =A(VTRIM)
               4 000036C8 00000001     A   28298 23797  24632  24789  27107  27266  27432
 =A(VTRIM)
               4 000039D0 00000001     A   29503 28717  28909  29101  29293
 =A(VTRIM)
               4 00003FA4 00000001     A   32280 29881  30050  30701  30860  31019
 =A(VTRIM)
               4 00004744 00000001     A   35676 32896  33554  33978  35146  35456
 =A(VTRIM)
               4 00004990 00000001     A   36656 35822  36306
 =A(VTRIM)
               4 00004D00 00000001     A   38074 36805  36964
 =A(1)         4 000016B4 00000001     A   14331 12374  12377  12601
 =A(1)         4 00003FC0 00000001     A   32287 31590
 =A(2)         4 00003FC4 00000001     A   32288 31616
 =A(3)         4 00003FC8 00000001     A   32289 31642
 =A(4)         4 00003FCC 00000001     A   32290 31668
 =C'.'         1 000023CF 00000001     C   20336 17105  17148  17191
 =C'???'       3 000023D0 00000001     C   20337 18663
 =C'???'       3 00003FF9 00000001     C   32298 29762  31483
 =C'ALF'       3 000023EF 00000001     C   20344 18874
 =C'ASYNC'
               5 000023DA 00000001     C   20339 18707
 =C'BACK'      4 000016BC 00000001     C   14333 12813
 =C'CONSOLE'
               7 000023D3 00000001     C   20338 18683
 =C'DAY'       3 00004006 00000001     C   32301 31573
 =C'ELF'       3 000023EC 00000001     C   20343 18826
 =C'EVENING'
               7 00004009 00000001     C   32302 31599
 =C'Forsythe.Stanford.EDU'
              21 00002C3F 00000001     C   23652 21689
 =C'FNMACC entered'
              14 00002C06 00000001     C   23647 22120  22433
 =C'Invalid variable of function name.'
              34 000011A8 00000001     C   12101 10719
 =C'LINE'      4 0000186C 00000001     C   14924 14785
 =C'MODEL'
               5 00004023 00000001     C   32306 31875
 =C'MVS/ESA'
               7 00003FFF 00000001     C   32300 30383
 =C'MVS/XA'
               6 00003FEC 00000001     C   32294 30405
 =C'MVS'       3 00003FFC 00000001     C   32299 30347
 =C'NIGHT'
               5 00004010 00000001     C   32303 31625
 =C'NOBACK'
               6 000016D8 00000001     C   14340 12793
 =C'NOMODEL'
               7 0000401C 00000001     C   32305 31855
 =C'NSC'       3 000023E9 00000001     C   20342 18803
 =C'OK'        2 000023C8 00000001     C   20334 20193
 =C'OLDIBM'
               6 000023BC 00000001     C   20332 16712  16756
 =C'OLDIBM'
               6 000049B4 00000001     C   36661 36380  36424
1SYSV     (SYSV4072) (12:56) (15MAR04) Ordinary Symbol and Literal Cross Reference                                          Page  223
 =C'PAGE'      4 00001870 00000001     C   14925 14805
 =C'PDP'       3 000023DF 00000001     C   20340 18731
 =C'PEAK'      4 00003FD0 00000001     C   32291 31677
 =C'RLG '      4 00002BB0 00000001     C   23631 21520
 =C'RLG.ORG'
               7 00002C16 00000001     C   23649 21529
 =C'SCIP'      4 00003FBC 00000001     C   32286 31540
 =C'SIN'       3 00003FF6 00000001     C   32297 29723
 =C'SUH.Stanford.EDU'
              16 00002B90 00000001     C   23626 21564
 =C'SYSA'      4 00002BE4 00000001     C   23642 22834
 =C'SYSB'      4 00002BE8 00000001     C   23643 22894
 =C'SYSC'      4 00002BB4 00000001     C   23632 21555  22954
 =C'SYSD.Stanford.EDU'
              17 00002C1D 00000001     C   23650 21599
 =C'SYSD'      4 00002BB8 00000001     C   23633 21590  23014
 =C'SYSF'      4 00002BEC 00000001     C   23644 23134
 =C'SYSG.RLG.ORG'
              12 00002BC0 00000001     C   23635 21634
 =C'SYSG'      4 00002BBC 00000001     C   23634 21625  23194
 =C'SYSH.Stanford.EDU'
              17 00002C2E 00000001     C   23651 21669
 =C'SYSH'      4 00002BCC 00000001     C   23636 21660  23074
 =C'TELNET'
               6 000023C2 00000001     C   20333 18846
 =C'TESTMIL'
               7 00002C54 00000001     C   23653 23503
 =C'Unknown.Local.Host'
              18 00002BF4 00000001     C   23646 21506
 =C'UPLOW'
               5 000016E5 00000001     C   14343 12992
 =C'UPPER'
               5 000016E0 00000001     C   14342 12972
 =C'VIRTUAL'
               7 000023E2 00000001     C   20341 18779
 =C'VTAM'      4 000023B4 00000001     C   20330 18755
 =C'WEEKEND'
               7 00004015 00000001     C   32304 31651
 =C'WINGS'
               5 000023CA 00000001     C   20335 16732
 =C'WINGS'
               5 000049BA 00000001     C   36662 36400
 =C'WINGSV00'
               8 00002368 00000001     C   20319 19416
 =CL((R2))' '
               2 00002C14 00000001     C   23648 22813  22873  22933  22993  23053  23113  23173
 =CL16'ORVYL_CPU'
              16 00003678 00000001     C   28293 25240
 =CL16'ORVYL_IO'
              16 00003688 00000001     C   28294 25356
 =CL16'SYS.ATTNID       '
              16 00001158 00000001     C   12092 11689
 =CL16'SYS.ATTNINFO    '
              16 00001170 00000001     C   12094 11921
 =CL16'SYS.ERRID       '
              16 00001990 00000001     C   15473 15305
 =CL16'SYS.ERRINFO     '
              16 00002348 00000001     C   20317 15563
 =CL16'SYS.ERRMSG      '
1SYSV     (SYSV4072) (12:56) (15MAR04) Ordinary Symbol and Literal Cross Reference                                          Page  224
              16 00002358 00000001     C   20318 15803
 =CL16'SYS.IORESULT'
              16 00002370 00000001     C   20320 20174
 =CL16'SYS.PARM        '
              16 00003698 00000001     C   28295 25617
 =CL16'SYS.QUERY_ERRINFO'
              16 000036A8 00000001     C   28296 27815
 =CL16'SYS.RC_UPLOAD'
              16 000036B8 00000001     C   28297 28151
 =CL16'SYS.TRYID       '
              16 000046F0 00000001     C   35669 32747
 =CL16'SYS.TRYINFO     '
              16 00004708 00000001     C   35671 33014
 =CL16'SYS.TRYMSG      '
              16 00004718 00000001     C   35672 33254
 =CL16'WYLBUR_CPU'
              16 00004CE0 00000001     C   38072 37030
 =CL16'WYLBUR_IO'
              16 00004CF0 00000001     C   38073 37146
 =CL8'NOATTN  '
               8 00001168 00000001     C   12093 11729
 =CL8'OK      '
               8 000019A0 00000001     C   15474 15345
 =CL8'OK      '
               8 00004700 00000001     C   35670 32780  32803
 =F'-1000'
               4 00002398 00000001     F   20325 16590
 =F'-1000'
               4 00002BA8 00000001     F   23629 20842
 =F'-1000'
               4 000036F8 00000001     F   28306 24458  26167
 =F'1'         4 000016B8 00000001     F   14332 12617
 =F'1000'      4 00003728 00000001     F   28316 28011
 =F'2'         4 00004D30 00000001     F   38082 37794
 =F'2719'      4 00003724 00000001     F   28315 28010
 =F'4'         4 000016D0 00000001     F   14338 13886
 =H'10'        2 00003FF4 00000001     H   32296 31369
 =H'6'         2 000011CA 00000001     H   12102 10852
 =H'6'         2 0000372C 00000001     H   28317 25524
 =H'6'         2 00004D34 00000001     H   38083 37318
 =V(ABSEARCH)
               4 00000110 00000001     V    9726  9538
 =V(ADDER)
               4 000036E8 00000001     V   28302 24358
 =V(BSINIT)
               4 0000010C 00000001     V    9725  9445
 =V(ENDLNO)
               4 000019A8 00000001     V   15475 14980
 =V(FMTCLCK)
               4 000016CC 00000001     V   14337 13882  14050
 =V(FMTDAY)
               4 000016D4 00000001     V   14339 14214
 =V(FMTTIME)
               4 00003FB0 00000001     V   32283 31207
 =V(FMTXDATE)
               4 00004D2C 00000001     V   38081 37791  37957
 =V(GETCORE)
               4 00000100 00000001     V    9722  9429
 =V(GETCTOT)
1SYSV     (SYSV4072) (12:56) (15MAR04) Ordinary Symbol and Literal Cross Reference                                          Page  225
               4 00003700 00000001     V   28308 25243  25359
 =V(GETCTOT)
               4 00004D04 00000001     V   38075 37033  37149
 =V(GETDATA)
               4 000011A4 00000001     V   12100 11692  11924
 =V(GETDATA)
               4 000019C8 00000001     V   15479 15308
 =V(GETDATA)
               4 00002380 00000001     V   20321 15566  15806  20177
 =V(GETDATA)
               4 00003708 00000001     V   28310 25620  27818  28154
 =V(GETDATA)
               4 00004740 00000001     V   35675 32750  33017  33257
 =V(GETQINFO)
               4 00003720 00000001     V   28314 27513  27673
 =V(GETUIDL)
               4 0000474C 00000001     V   35678 34093
 =V(KWIO)      4 00002BD4 00000001     V   23638 22145  22458
 =V(KWIO)      4 000036D8 00000001     V   28300 23943  24186
 =V(LOCALTOD)
               4 000016C8 00000001     V   14336 13878  14046  14210
 =V(LOCALTOD)
               4 00003FAC 00000001     V   32282 31203  31363
 =V(LOCALTOD)
               4 00004D28 00000001     V   38080 37787  37953
 =V(LOCATE)
               4 000036EC 00000001     V   28303 24365
 =V(MAKEITOD)
               4 00001184 00000001     V   12096 10969  11243
 =V(MAKEITOD)
               4 000016C0 00000001     V   14334 13186  13300  13414  13796
 =V(MAKEITOD)
               4 000023B8 00000001     V   20331 19723
 =V(MAKEITOD)
               4 00002BAC 00000001     V   23630 20995  21268
 =V(MAKEITOD)
               4 00003704 00000001     V   28309 25398  27713
 =V(MAKEITOD)
               4 000039CC 00000001     V   29502 28517
 =V(MAKEITOD)
               4 00003FA0 00000001     V   32279 29607  31122
 =V(MAKEITOD)
               4 00004748 00000001     V   35677 33657  34284  34394  34615  34724  34833
 =V(MAKEITOD)
               4 000049B0 00000001     V   36660 36104  36618
 =V(MAKEITOD)
               4 00004D0C 00000001     V   38077 37188
 =V(MAKEITOD)
               4 00004E68 00000001     V   38588 38365
 =V(MAKELTOD)
               4 000016C4 00000001     V   14335 13682
 =V(MAKELTOD)
               4 000017B8 00000001     V   14631 14433
 =V(MAKELTOD)
               4 000019AC 00000001     V   15476 15019
 =V(MAKELTOD)
               4 00002388 00000001     V   20323 16218  16631  19068
 =V(MAKELTOD)
               4 00002BA4 00000001     V   23628 20748  20883
1SYSV     (SYSV4072) (12:56) (15MAR04) Ordinary Symbol and Literal Cross Reference                                          Page  226
 =V(MAKELTOD)
               4 000036F4 00000001     V   28305 24412  24463  25282  26121  26172  28049
 =V(MAKELTOD)
               4 000039C8 00000001     V   29501 28407
 =V(MAKELTOD)
               4 00003FB8 00000001     V   32285 31407
 =V(MAKELTOD)
               4 00004750 00000001     V   35679 34505
 =V(MAKELTOD)
               4 00004D08 00000001     V   38076 37072
 =V(PFREEB)
               4 000036F0 00000001     V   28304 24371
 =V(PREVLNO)
               4 0000371C 00000001     V   28313 26080
 =V(RETFMEM)
               4 00002BF0 00000001     V   23645 23315
 =V(RETFNAME)
               4 00003718 00000001     V   28312 25918
 =V(SEG)       4 000023A4 00000001     V   20328 17117  17160  17203
 =V(SEG)       4 00002BE0 00000001     V   23641 22829  22846  22889  22906  22949  22966  23009  23026  23069  23086
                                                 23129  23146  23189  23206
 =V(SEGCR)
               4 00001180 00000001     V   12095 10731
 =V(SEGDC)
               4 000023A0 00000001     V   20327 17100  17143  17186  17229
 =V(SEGINIT)
               4 0000239C 00000001     V   20326 17059
 =V(SEGINIT)
               4 00002BDC 00000001     V   23640 22791
 =V(SEGWR)
               4 00002BD0 00000001     V   23637 22130  22443
 =V(SYSCHECK)
               4 000036FC 00000001     V   28307 25064
 =V(TIMEDATE)
               4 00003FB4 00000001     V   32284 31367
 =V(VLOGCHK)
               4 00004754 00000001     V   35680 35529
 =V(VSESCHK)
               4 00004994 00000001     V   36657 35890
 =V(VTRIM)
               4 00000114 00000001     V    9727  9692
 =X'00000000000000000000000C'
              12 00001198 00000001     X   12099 11578
 =X'00000000000000000000000C'
              12 000019BC 00000001     X   15478 15194
 =X'00000000000000000000000C'
              12 0000238C 00000001     X   20324 16495  17716
 =X'00000000000000000000000C'
              12 000036CC 00000001     X   28299 23894  24137  24970  25162  26347  26526  26705  26884
 =X'00000000000000000000000C'
              12 000039E0 00000001     X   29505 29459
 =X'00000000000000000000000C'
              12 00003FE0 00000001     X   32293 32130
 =X'00000000000000000000000C'
              12 00004734 00000001     X   35674 32457  32636  35627
 =X'00000000000000000000000C'
              12 00004998 00000001     X   36658 35933
 =X'00000000000000000000000C'
              12 00004D1C 00000001     X   38079 37496
1SYSV     (SYSV4072) (12:56) (15MAR04) Ordinary Symbol and Literal Cross Reference                                          Page  227
 =X'00000000000000000000000C'
              12 00004E5C 00000001     X   38587 38235  38545
 =X'00000000000001000000000C'
              12 0000118C 00000001     X   12098 11524
 =X'00000000000001000000000C'
              12 000019B0 00000001     X   15477 15140
 =X'00000000000001000000000C'
              12 000023A8 00000001     X   20329 17541  17661
 =X'00000000000001000000000C'
              12 000036DC 00000001     X   28301 24007  24252  24915  25107  26293  26472  26651  26830
 =X'00000000000001000000000C'
              12 000039D4 00000001     X   29504 29404
 =X'00000000000001000000000C'
              12 00003FD4 00000001     X   32292 32076  32241
 =X'00000000000001000000000C'
              12 00004728 00000001     X   35673 32403  32582  35572
 =X'00000000000001000000000C'
              12 000049A4 00000001     X   36659 35988
 =X'00000000000001000000000C'
              12 00004D10 00000001     X   38078 37442
 =X'00000000000001000000000C'
              12 00004E50 00000001     X   38586 38181  38491
 =X'00000000000002718281800C'
              12 00001860 00000001     X   14923 14707
 =X'00000000000003141592700C'
              12 0000370C 00000001     X   28311 25819
 =Y((MAXSTRLN+3)/4*4)
               2 000016DE 00000001     Y   14341 13972  14137  14301
 =Y((MAXSTRLN+3)/4*4)
               2 00003FF2 00000001     Y   32295 31294
 =Y((MAXSTRLN+3)/4*4)
               2 00004D36 00000001     Y   38084 37880  38044

1SYSV     (SYSV4072) (12:56) (15MAR04) Macro and Copy Code Source Summary                                                   Page  228
- Con Source                                        Volume    Members                        HLASM R4.0  2004/03/15 12.56
0     PRIMARY INPUT                                           BADARG   CSECT    DROP     END      EX       LA$TABLE
                                                              LTORG    POP      PRINT    PUSH     SAMEAS   SETARGS
                                                              START    SYSVAR   USING    VRETURN  VTRIM
   L1 WYL.GS.WYL.WYLBUR.MACLIB                      SYSB05    AINFO    BASE     BOMB     BSINFO   COLINFO  COMMENT
                                                              CONTROL  CP       CPLOCAL  CV       CVLOCAL  DEFRTNP
                                                              FFINFO   JCB      KREAD    PFREE    RG       SCANCB
                                                              SEGINIT  SYSRTN   TSEG     TTYPE    VLTORG   VNENTRY
                                                              VPARM    XSENTRY  XTRACE   XWTO
   L2 WYL.GG.SYS.MACLIB                             SYSB05    $BC      $BFLKUP  $BV      $CCLKUP  $CRS     $CSS     $L
                                                              $LA      $LBLAD   $LEXP    $LOR     $REL     $RGLKUP
                                                              $USLKUP  ACALL    BEGIN    CLEAR    COMPROC  CSECT    DATA
                                                              DECR     DEFCC    DEX      DROP     ELSE     ELSEIF   END
                                                              EX       EXIT     FLAG     GEN      HIBAL    IDENT    IF
                                                              INCR     LABEL    LC       LCM      LS       LT
                                                              LTORG    L2       L3       PEND     POP      PRETURN
                                                              PRINT    PROC     PUSH     QLTORG   RECORD   REG      REGS
                                                              SET      SETMSG   START    SYSLR    USING    VCALL
                                                              WHILE    WITH     XPROC
   L3 SYS3.IS.MACLIB                                SYSB05    KWR      SEG      SEGCB    SEGDC    SEGLD    SEGWR    SIB
                                                              SIN      SYSDEFN  XPOP     XPUSH
   L4 SYS3.MACLIB                                   SYSB02    HASPSERV SCIPCVT  USERCVT
   L5 SYS1.MACLIB                                   MVSBR9    CVT

1SYSV     (SYSV4072) (12:56) (15MAR04) Dsect Cross Reference                                                                Page  229
-Dsect     Length      Id       Defn                                                         HLASM R4.0  2004/03/15 12.56
0$$$@R0   00000000  FFFFFFFE     705
 $$$@R1   00000000  FFFFFFFD     718
 $$$@R10  00000000  FFFFFFF4     835
 $$$@R11  00000000  FFFFFFF3     848
 $$$@R12  00000000  FFFFFFF2     861
 $$$@R13  00000000  FFFFFFF1     874
 $$$@R14  00000000  FFFFFFF0     887
 $$$@R15  00000000  FFFFFFEF     900
 $$$@R2   00000000  FFFFFFFC     731
 $$$@R3   00000000  FFFFFFFB     744
 $$$@R4   00000000  FFFFFFFA     757
 $$$@R5   00000000  FFFFFFF9     770
 $$$@R6   00000000  FFFFFFF8     783
 $$$@R7   00000000  FFFFFFF7     796
 $$$@R8   00000000  FFFFFFF6     809
 $$$@R9   00000000  FFFFFFF5     822
 $$$RBSINFO
          00000020  FFFFFFE0    8704
 $$$RCP   00001000  FFFFFFEC    2620
 $$$RCV   00000FB0  FFFFFFEE    1345
 $$$RDEV  0000000C  FFFFFFEB    4834
 $$$RFFINFO
          000003A0  FFFFFFE1    8477
 $$$RFNIDLWA
          00000100  FFFFFFD8   34009
 $$$RFNVJNWA
          00000040  FFFFFFD6   35182
 $$$RFNVJWA
          00000040  FFFFFFD7   34872
 $$$RFNWA 00000150  FFFFFFDB   10653
 $$$RIPWA 0000007C  FFFFFFDA   16877
 $$$RJCB  000000D0  FFFFFFE4    7894
 $$$RKWR  000001F8  FFFFFFE3    8174
 $$$RMACHWA
          00000040  FFFFFFD9   22598
 $$$RNSCNCB
          000000B0  FFFFFFED    2541
 $$$RRTNENTRY
          00000014  FFFFFFDC    9214
 $$$RSIN  000000E0  FFFFFFE2    8384
 $$$RTTYPE
          0000010C  FFFFFFEA    6365
 $$$RUSERCVT
          0000035F  FFFFFFE5    7804
 $$$RVNENTRY
          00000050  FFFFFFDF    8738
 $$$RVPARM
          00000150  FFFFFFDE    9050
 $$$RXSENTRY
          00000050  FFFFFFDD    9096
 CVT      00000500  FFFFFFE9    6665
 CVTVSTGX 00000050  FFFFFFE8    7685
 CVTXTNT1 0000000C  FFFFFFE7    7724
 CVTXTNT2 00000084  FFFFFFE6    7732
 HIBAL    00000000  FFFFFFFF     691
1SYSV     (SYSV4072) (12:56) (15MAR04) Dsect Cross Reference                                                                Page  230

1SYSV     (SYSV4072) (12:56) (15MAR04) Using Map                                                                            Page  231
-                                                                                            HLASM R4.0  2004/03/15 12.56
   Stmt  -----Location----- Action ----------------Using----------------- Reg Max    Last  Label and Using Text
           Count      Id           Type          Value    Range     Id        Disp   Stmt
0   922  00000000  FFFFFFFF USING  ORDINARY    00000000 00001000 FFFFFFEF  15 000          @R15,15
    926  00000000  FFFFFFFF USING  ORDINARY    00000000 00001000 FFFFFFF0  14 002    2336  @R14,14
    930  00000000  FFFFFFFF USING  ORDINARY    00000000 00001000 FFFFFFF1  13 000          @R13,13
    934  00000000  FFFFFFFF USING  ORDINARY    00000000 00001000 FFFFFFF2  12 000          @R12,12
    938  00000000  FFFFFFFF USING  ORDINARY    00000000 00001000 FFFFFFF3  11 000          @R11,11
    942  00000000  FFFFFFFF USING  ORDINARY    00000000 00001000 FFFFFFF4  10 000          @R10,10
    946  00000000  FFFFFFFF USING  ORDINARY    00000000 00001000 FFFFFFF5   9 000          @R9,9
    950  00000000  FFFFFFFF USING  ORDINARY    00000000 00001000 FFFFFFF6   8 000          @R8,8
    954  00000000  FFFFFFFF USING  ORDINARY    00000000 00001000 FFFFFFF7   7 000          @R7,7
    958  00000000  FFFFFFFF USING  ORDINARY    00000000 00001000 FFFFFFF8   6 000          @R6,6
    962  00000000  FFFFFFFF USING  ORDINARY    00000000 00001000 FFFFFFF9   5 000          @R5,5
    966  00000000  FFFFFFFF USING  ORDINARY    00000000 00001000 FFFFFFFA   4 000    9582  @R4,4
    970  00000000  FFFFFFFF USING  ORDINARY    00000000 00001000 FFFFFFFB   3 000   12591  @R3,3
    974  00000000  FFFFFFFF USING  ORDINARY    00000000 00001000 FFFFFFFC   2 000          @R2,2
    978  00000000  FFFFFFFF USING  ORDINARY    00000000 00001000 FFFFFFFD   1 001   16826  @R1,1
    982  00000000  FFFFFFFF USING  ORDINARY    00000000 00001000 FFFFFFFE   0 000          @R0,0
    983  00000000  FFFFFFFF DROP                                            0              0
   1329  00000017  00000001 USING  ORDINARY    00000000 00001000 FFFFFFEC  11 DE8   38456  CP,CPR
   1338  00000017  00000001 USING  ORDINARY    00000000 00001000 FFFFFFEE  12 890   38426  CV,CVR
   9415  00000032  00000001 USING  ORDINARY    00000032 00001000 00000001   7 0DA    9445  $$$77B,7
   9454  0000005E  00000001 USING  ORDINARY    00000000 00001000 FFFFFFF7   7 000          @R7,7
   9518  00000086  00000001 USING  ORDINARY    00000086 00001000 00000001   7 08A    9600  $$$80B,7
   9564  000000A2  00000001 USING  ORDINARY    00000000 00001000 FFFFFFDC   6 010    9583  RTNENTRY,R6
   9589  000000B6  00000001 USING  ORDINARY    00000000 00001000 FFFFFFF8   6 000          @R6,6
   9624  000000C2  00000001 USING  ORDINARY    00000000 00001000 FFFFFFF7   7 000          @R7,7
   9681  000000EA  00000001 USING  ORDINARY    000000EA 00001000 00000001   7 02A    9692  $$$86B,7
   9700  000000F0  00000001 USING  ORDINARY    00000000 00001000 FFFFFFF7   7 000          @R7,7
  10706  00000E7A  00000001 USING  ORDINARY    00000E7A 00001000 00000001   7 32E   10731  $$$89B,7
  10741  00000E90  00000001 USING  ORDINARY    00000000 00001000 FFFFFFF7   7 000          @R7,7
  10793  00000EB8  00000001 USING  ORDINARY    00000EB8 00001000 00000001   7 312   10852  $$$92B,7
  10811  00000EB8  00000001 USING  ORDINARY    00000000 00001000 FFFFFFDF   6 02A   10855  VNENTRY,R6
  10866  00000EE8  00000001 USING  ORDINARY    00000000 00001000 FFFFFFF8   6 000          @R6,6
  10871  00000EE8  00000001 USING  ORDINARY    00000000 00001000 FFFFFFF7   7 000          @R7,7
  10923  00000F10  00000001 USING  ORDINARY    00000F10 00001000 00000001   7 274   10969  $$$96B,7
  10943  00000F10  00000001 USING  ORDINARY    00000000 00001000 FFFFFFDF   6 024   10966  VNENTRY,R6
  10977  00000F2C  00000001 USING  ORDINARY    00000000 00001000 FFFFFFF8   6 000          @R6,6
  10985  00000F2C  00000001 USING  ORDINARY    00000000 00001000 FFFFFFF7   7 000          @R7,7
  11037  00000F54  00000001 USING  ORDINARY    00000F54 00001000 00000001   7 278   11137  $$$99B,7
  11057  00000F54  00000001 USING  ORDINARY    00000000 00001000 FFFFFFDF   6 026   11113  VNENTRY,R6
  11132  00000F78  00000001 USING  ORDINARY    00000000 00001000 FFFFFFF8   6 000          @R6,6
  11145  00000F7E  00000001 USING  ORDINARY    00000000 00001000 FFFFFFF7   7 000          @R7,7
  11197  00000FA6  00000001 USING  ORDINARY    00000FA6 00001000 00000001   7 1DE   11243  $$$105B,7
  11217  00000FA6  00000001 USING  ORDINARY    00000000 00001000 FFFFFFDF   6 024   11240  VNENTRY,R6
  11251  00000FC2  00000001 USING  ORDINARY    00000000 00001000 FFFFFFF8   6 000          @R6,6
  11259  00000FC2  00000001 USING  ORDINARY    00000000 00001000 FFFFFFF7   7 000          @R7,7
  11311  00000FEA  00000001 USING  ORDINARY    00000FEA 00001000 00000001   7 1E8   11411  $$$108B,7
  11331  00000FEA  00000001 USING  ORDINARY    00000000 00001000 FFFFFFDF   6 026   11387  VNENTRY,R6
  11406  0000100E  00000001 USING  ORDINARY    00000000 00001000 FFFFFFF8   6 000          @R6,6
  11419  00001014  00000001 USING  ORDINARY    00000000 00001000 FFFFFFF7   7 000          @R7,7
  11471  0000103C  00000001 USING  ORDINARY    0000103C 00001000 00000001   7 15C   11578  $$$114B,7
  11506  00001044  00000001 USING  ORDINARY    00000000 00001000 FFFFFFDF   6 024   11524  VNENTRY,R6
  11532  00001056  00000001 USING  ORDINARY    00000000 00001000 FFFFFFF8   6 000          @R6,6
  11560  0000105A  00000001 USING  ORDINARY    00000000 00001000 FFFFFFDF   6 024   11578  VNENTRY,R6
1SYSV     (SYSV4072) (12:56) (15MAR04) Using Map                                                                            Page  232
  11586  0000106C  00000001 USING  ORDINARY    00000000 00001000 FFFFFFF8   6 000          @R6,6
  11598  0000106C  00000001 USING  ORDINARY    00000000 00001000 FFFFFFF7   7 000          @R7,7
  11652  00001094  00000001 USING  ORDINARY    00001094 00001000 00000001   7 144   11791  $$$119B,7
  11666  00001094  00000001 USING  ORDINARY    FFFFFFD8 00001000 FFFFFFDB   8 028   11688  FNWA-(4+36),R8
  11746  000010C0  00000001 USING  ORDINARY    00000000 00001000 FFFFFFDF   6 026   11798  VNENTRY,R6
  11817  000010DC  00000001 USING  ORDINARY    00000000 00001000 FFFFFFF8   6 000          @R6,6
  11825  000010DC  00000001 USING  ORDINARY    00000000 00001000 FFFFFFF6   8 000          @R8,8
  11830  000010DC  00000001 USING  ORDINARY    00000000 00001000 FFFFFFF7   7 000          @R7,7
  11884  00001104  00000001 USING  ORDINARY    00001104 00001000 00000001   7 0DA   12031  $$$128B,7
  11898  00001104  00000001 USING  ORDINARY    FFFFFFD8 00001000 FFFFFFDB   8 028   11920  FNWA-(4+36),R8
  11986  0000112C  00000001 USING  ORDINARY    00000000 00001000 FFFFFFDF   6 026   12038  VNENTRY,R6
  12057  00001148  00000001 USING  ORDINARY    00000000 00001000 FFFFFFF8   6 000          @R6,6
  12065  00001148  00000001 USING  ORDINARY    00000000 00001000 FFFFFFF6   8 000          @R8,8
  12070  00001148  00000001 USING  ORDINARY    00000000 00001000 FFFFFFF7   7 000          @R7,7
  12147  000011FE  00000001 USING  ORDINARY    000011FE 00001000 00000001   7 4EC   12247  $$$137B,7
  12167  000011FE  00000001 USING  ORDINARY    00000000 00001000 FFFFFFDF   6 026   12223  VNENTRY,R6
  12242  00001222  00000001 USING  ORDINARY    00000000 00001000 FFFFFFF8   6 000          @R6,6
  12255  00001228  00000001 USING  ORDINARY    00000000 00001000 FFFFFFF7   7 000          @R7,7
  12307  00001250  00000001 USING  ORDINARY    00001250 00001000 00000001   7 4A0   12474  $$$143B,7
  12398  00001282  00000001 USING  ORDINARY    00000000 00001000 FFFFFFDF   6 026   12450  VNENTRY,R6
  12469  0000129E  00000001 USING  ORDINARY    00000000 00001000 FFFFFFF8   6 000          @R6,6
  12482  000012A4  00000001 USING  ORDINARY    00000000 00001000 FFFFFFF7   7 000          @R7,7
  12534  000012CC  00000001 USING  ORDINARY    000012CC 00001000 00000001   7 42A   12722  $$$153B,7
  12646  0000130A  00000001 USING  ORDINARY    00000000 00001000 FFFFFFDF   6 026   12698  VNENTRY,R6
  12717  00001326  00000001 USING  ORDINARY    00000000 00001000 FFFFFFF8   6 000          @R6,6
  12730  0000132C  00000001 USING  ORDINARY    00000000 00001000 FFFFFFF7   7 000          @R7,7
  12782  00001354  00000001 USING  ORDINARY    00001354 00001000 00000001   7 3A8   12875  $$$164B,7
  12830  0000136C  00000001 USING  ORDINARY    00000000 00001000 FFFFFFDF   6 026   12882  VNENTRY,R6
  12901  00001388  00000001 USING  ORDINARY    00000000 00001000 FFFFFFF8   6 000          @R6,6
  12909  00001388  00000001 USING  ORDINARY    00000000 00001000 FFFFFFF7   7 000          @R7,7
  12961  000013B0  00000001 USING  ORDINARY    000013B0 00001000 00000001   7 352   13054  $$$171B,7
  13009  000013C8  00000001 USING  ORDINARY    00000000 00001000 FFFFFFDF   6 026   13061  VNENTRY,R6
  13080  000013E4  00000001 USING  ORDINARY    00000000 00001000 FFFFFFF8   6 000          @R6,6
  13088  000013E4  00000001 USING  ORDINARY    00000000 00001000 FFFFFFF7   7 000          @R7,7
  13140  0000140C  00000001 USING  ORDINARY    0000140C 00001000 00000001   7 2B4   13186  $$$178B,7
  13160  0000140C  00000001 USING  ORDINARY    00000000 00001000 FFFFFFDF   6 024   13183  VNENTRY,R6
  13194  00001428  00000001 USING  ORDINARY    00000000 00001000 FFFFFFF8   6 000          @R6,6
  13202  00001428  00000001 USING  ORDINARY    00000000 00001000 FFFFFFF7   7 000          @R7,7
  13254  00001450  00000001 USING  ORDINARY    00001450 00001000 00000001   7 270   13300  $$$181B,7
  13274  00001450  00000001 USING  ORDINARY    00000000 00001000 FFFFFFDF   6 024   13297  VNENTRY,R6
  13308  0000146C  00000001 USING  ORDINARY    00000000 00001000 FFFFFFF8   6 000          @R6,6
  13316  0000146C  00000001 USING  ORDINARY    00000000 00001000 FFFFFFF7   7 000          @R7,7
  13368  00001494  00000001 USING  ORDINARY    00001494 00001000 00000001   7 22C   13414  $$$184B,7
  13388  00001494  00000001 USING  ORDINARY    00000000 00001000 FFFFFFDF   6 024   13411  VNENTRY,R6
  13422  000014B0  00000001 USING  ORDINARY    00000000 00001000 FFFFFFF8   6 000          @R6,6
  13430  000014B0  00000001 USING  ORDINARY    00000000 00001000 FFFFFFF7   7 000          @R7,7
  13482  000014D8  00000001 USING  ORDINARY    000014D8 00001000 00000001   7 230   13550  $$$187B,7
  13502  000014D8  00000001 USING  ORDINARY    00000000 00001000 FFFFFFDF   6 026   13557  VNENTRY,R6
  13576  000014FC  00000001 USING  ORDINARY    00000000 00001000 FFFFFFF8   6 000          @R6,6
  13584  000014FC  00000001 USING  ORDINARY    00000000 00001000 FFFFFFF7   7 000          @R7,7
  13636  00001524  00000001 USING  ORDINARY    00001524 00001000 00000001   7 1A0   13682  $$$193B,7
  13656  00001524  00000001 USING  ORDINARY    00000000 00001000 FFFFFFDF   6 024   13679  VNENTRY,R6
  13690  00001540  00000001 USING  ORDINARY    00000000 00001000 FFFFFFF8   6 000          @R6,6
  13698  00001540  00000001 USING  ORDINARY    00000000 00001000 FFFFFFF7   7 000          @R7,7
  13750  00001568  00000001 USING  ORDINARY    00001568 00001000 00000001   7 158   13796  $$$196B,7
  13770  00001568  00000001 USING  ORDINARY    00000000 00001000 FFFFFFDF   6 024   13793  VNENTRY,R6
  13804  00001584  00000001 USING  ORDINARY    00000000 00001000 FFFFFFF8   6 000          @R6,6
  13812  00001584  00000001 USING  ORDINARY    00000000 00001000 FFFFFFF7   7 000          @R7,7
  13864  000015AC  00000001 USING  ORDINARY    000015AC 00001000 00000001   7 162   13972  $$$199B,7
1SYSV     (SYSV4072) (12:56) (15MAR04) Using Map                                                                            Page  233
  13898  000015CE  00000001 USING  ORDINARY    00000000 00001000 FFFFFFDF   6 026   13950  VNENTRY,R6
  13969  000015EA  00000001 USING  ORDINARY    00000000 00001000 FFFFFFF8   6 000          @R6,6
  13979  000015EE  00000001 USING  ORDINARY    00000000 00001000 FFFFFFF7   7 000          @R7,7
  14032  00001616  00000001 USING  ORDINARY    00001616 00001000 00000001   7 0FE   14137  $$$205B,7
  14063  00001628  00000001 USING  ORDINARY    00000000 00001000 FFFFFFDF   6 026   14115  VNENTRY,R6
  14134  00001644  00000001 USING  ORDINARY    00000000 00001000 FFFFFFF8   6 000          @R6,6
  14144  00001648  00000001 USING  ORDINARY    00000000 00001000 FFFFFFF7   7 000          @R7,7
  14196  00001670  00000001 USING  ORDINARY    00001670 00001000 00000001   7 0AA   14301  $$$211B,7
  14227  00001682  00000001 USING  ORDINARY    00000000 00001000 FFFFFFDF   6 026   14279  VNENTRY,R6
  14298  0000169E  00000001 USING  ORDINARY    00000000 00001000 FFFFFFF8   6 000          @R6,6
  14308  000016A2  00000001 USING  ORDINARY    00000000 00001000 FFFFFFF7   7 000          @R7,7
  14387  0000173A  00000001 USING  ORDINARY    0000173A 00001000 00000001   7 07E   14433  $$$217B,7
  14407  0000173A  00000001 USING  ORDINARY    00000000 00001000 FFFFFFDF   6 024   14430  VNENTRY,R6
  14441  00001756  00000001 USING  ORDINARY    00000000 00001000 FFFFFFF8   6 000          @R6,6
  14449  00001756  00000001 USING  ORDINARY    00000000 00001000 FFFFFFF7   7 000          @R7,7
  14501  0000177E  00000001 USING  ORDINARY    0000177E 00001000 00000001   7 042   14601  $$$220B,7
  14521  0000177E  00000001 USING  ORDINARY    00000000 00001000 FFFFFFDF   6 026   14577  VNENTRY,R6
  14596  000017A2  00000001 USING  ORDINARY    00000000 00001000 FFFFFFF8   6 000          @R6,6
  14609  000017A8  00000001 USING  ORDINARY    00000000 00001000 FFFFFFF7   7 000          @R7,7
  14676  000017E0  00000001 USING  ORDINARY    000017E0 00001000 00000001   7 080   14707  $$$226B,7
  14692  000017E0  00000001 USING  ORDINARY    00000000 00001000 FFFFFFDF   6 024   14707  VNENTRY,R6
  14714  000017F2  00000001 USING  ORDINARY    00000000 00001000 FFFFFFF8   6 000          @R6,6
  14722  000017F2  00000001 USING  ORDINARY    00000000 00001000 FFFFFFF7   7 000          @R7,7
  14774  0000181A  00000001 USING  ORDINARY    0000181A 00001000 00000001   7 05A   14867  $$$229B,7
  14822  00001832  00000001 USING  ORDINARY    00000000 00001000 FFFFFFDF   6 026   14874  VNENTRY,R6
  14893  0000184E  00000001 USING  ORDINARY    00000000 00001000 FFFFFFF8   6 000          @R6,6
  14901  0000184E  00000001 USING  ORDINARY    00000000 00001000 FFFFFFF7   7 000          @R7,7
  14969  00001894  00000001 USING  ORDINARY    00001894 00001000 00000001   7 118   15019  $$$236B,7
  14994  0000189C  00000001 USING  ORDINARY    00000000 00001000 FFFFFFDF   6 024   15016  VNENTRY,R6
  15027  000018B4  00000001 USING  ORDINARY    00000000 00001000 FFFFFFF8   6 000          @R6,6
  15035  000018B4  00000001 USING  ORDINARY    00000000 00001000 FFFFFFF7   7 000          @R7,7
  15087  000018DC  00000001 USING  ORDINARY    000018DC 00001000 00000001   7 0E0   15194  $$$239B,7
  15122  000018E4  00000001 USING  ORDINARY    00000000 00001000 FFFFFFDF   6 024   15140  VNENTRY,R6
  15148  000018F6  00000001 USING  ORDINARY    00000000 00001000 FFFFFFF8   6 000          @R6,6
  15176  000018FA  00000001 USING  ORDINARY    00000000 00001000 FFFFFFDF   6 024   15194  VNENTRY,R6
  15202  0000190C  00000001 USING  ORDINARY    00000000 00001000 FFFFFFF8   6 000          @R6,6
  15214  0000190C  00000001 USING  ORDINARY    00000000 00001000 FFFFFFF7   7 000          @R7,7
  15268  00001934  00000001 USING  ORDINARY    00001934 00001000 00000001   7 09C   15438  $$$244B,7
  15282  00001934  00000001 USING  ORDINARY    FFFFFFD8 00001000 FFFFFFDB   8 028   15304  FNWA-(4+36),R8
  15362  00001960  00000001 USING  ORDINARY    00000000 00001000 FFFFFFDF   6 026   15414  VNENTRY,R6
  15433  0000197C  00000001 USING  ORDINARY    00000000 00001000 FFFFFFF8   6 000          @R6,6
  15446  00001982  00000001 USING  ORDINARY    00000000 00001000 FFFFFFF6   8 000          @R8,8
  15451  00001982  00000001 USING  ORDINARY    00000000 00001000 FFFFFFF7   7 000          @R7,7
  15526  000019F0  00000001 USING  ORDINARY    000019F0 00001000 00000001   7 A02   15673  $$$253B,7
  15540  000019F0  00000001 USING  ORDINARY    FFFFFFD8 00001000 FFFFFFDB   8 028   15562  FNWA-(4+36),R8
  15628  00001A18  00000001 USING  ORDINARY    00000000 00001000 FFFFFFDF   6 026   15680  VNENTRY,R6
  15699  00001A34  00000001 USING  ORDINARY    00000000 00001000 FFFFFFF8   6 000          @R6,6
  15707  00001A34  00000001 USING  ORDINARY    00000000 00001000 FFFFFFF6   8 000          @R8,8
  15712  00001A34  00000001 USING  ORDINARY    00000000 00001000 FFFFFFF7   7 000          @R7,7
  15766  00001A5C  00000001 USING  ORDINARY    00001A5C 00001000 00000001   7 99C   15913  $$$262B,7
  15780  00001A5C  00000001 USING  ORDINARY    FFFFFFD8 00001000 FFFFFFDB   8 028   15802  FNWA-(4+36),R8
  15868  00001A84  00000001 USING  ORDINARY    00000000 00001000 FFFFFFDF   6 026   15920  VNENTRY,R6
  15939  00001AA0  00000001 USING  ORDINARY    00000000 00001000 FFFFFFF8   6 000          @R6,6
  15947  00001AA0  00000001 USING  ORDINARY    00000000 00001000 FFFFFFF6   8 000          @R8,8
  15952  00001AA0  00000001 USING  ORDINARY    00000000 00001000 FFFFFFF7   7 000          @R7,7
  16004  00001AC8  00000001 USING  ORDINARY    00001AC8 00001000 00000001   7 936   16104  $$$271B,7
  16024  00001AC8  00000001 USING  ORDINARY    00000000 00001000 FFFFFFDF   6 026   16080  VNENTRY,R6
  16099  00001AEC  00000001 USING  ORDINARY    00000000 00001000 FFFFFFF8   6 000          @R6,6
  16112  00001AF2  00000001 USING  ORDINARY    00000000 00001000 FFFFFFF7   7 000          @R7,7
1SYSV     (SYSV4072) (12:56) (15MAR04) Using Map                                                                            Page  234
  16163  00001B1A  00000001 USING  ORDINARY    00001B1A 00001000 00000001   7 86E   16218  $$$277B,7
  16177  00001B1A  00000001 USING  ORDINARY    FFFFFFD8 00001000 FFFFFFDB   8 000          FNWA-(4+36),R8
  16192  00001B1A  00000001 USING  ORDINARY    00000000 00001000 FFFFFFDF   6 024   16215  VNENTRY,R6
  16226  00001B36  00000001 USING  ORDINARY    00000000 00001000 FFFFFFF8   6 000          @R6,6
  16234  00001B36  00000001 USING  ORDINARY    00000000 00001000 FFFFFFF6   8 000          @R8,8
  16239  00001B36  00000001 USING  ORDINARY    00000000 00001000 FFFFFFF7   7 000          @R7,7
  16290  00001B5E  00000001 USING  ORDINARY    00001B5E 00001000 00000001   7 8A6   16366  $$$280B,7
  16304  00001B5E  00000001 USING  ORDINARY    FFFFFFD8 00001000 FFFFFFDB   8 000          FNWA-(4+36),R8
  16319  00001B5E  00000001 USING  ORDINARY    00000000 00001000 FFFFFFDF   6 026   16373  VNENTRY,R6
  16392  00001B82  00000001 USING  ORDINARY    00000000 00001000 FFFFFFF8   6 000          @R6,6
  16400  00001B82  00000001 USING  ORDINARY    00000000 00001000 FFFFFFF6   8 000          @R8,8
  16405  00001B82  00000001 USING  ORDINARY    00000000 00001000 FFFFFFF7   7 000          @R7,7
  16457  00001BAA  00000001 USING  ORDINARY    00001BAA 00001000 00000001   7 7E2   16495  $$$286B,7
  16477  00001BAA  00000001 USING  ORDINARY    00000000 00001000 FFFFFFDF   6 024   16495  VNENTRY,R6
  16503  00001BBC  00000001 USING  ORDINARY    00000000 00001000 FFFFFFF8   6 000          @R6,6
  16511  00001BBC  00000001 USING  ORDINARY    00000000 00001000 FFFFFFF7   7 000          @R7,7
  16563  00001BE4  00000001 USING  ORDINARY    00001BE4 00001000 00000001   7 7B4   16631  $$$289B,7
  16606  00001BF6  00000001 USING  ORDINARY    00000000 00001000 FFFFFFDF   6 024   16628  VNENTRY,R6
  16639  00001C0E  00000001 USING  ORDINARY    00000000 00001000 FFFFFFF8   6 000          @R6,6
  16647  00001C0E  00000001 USING  ORDINARY    00000000 00001000 FFFFFFF7   7 000          @R7,7
  16699  00001C36  00000001 USING  ORDINARY    00001C36 00001000 00000001   7 7D4   16819  $$$293B,7
  16774  00001C5E  00000001 USING  ORDINARY    00000000 00001000 FFFFFFDF   6 026   16826  VNENTRY,R6
  16845  00001C7A  00000001 USING  ORDINARY    00000000 00001000 FFFFFFF8   6 000          @R6,6
  16853  00001C7A  00000001 USING  ORDINARY    00000000 00001000 FFFFFFF7   7 000          @R7,7
  17014  00001CA2  00000001 USING  ORDINARY    00001CA2 00001000 00000001   7 774   17406  $$$309B,7
  17028  00001CA2  00000001 USING  ORDINARY    FFFFFFD8 00001000 FFFFFFDA   8 088   17242  IPWA-(4+36),R8
  17081  00001CBC  00000001 DROP                                            1              1
  17085  00001CC2  00000001 USING  ORDINARY    00000000 00001000 FFFFFFFD   1 000          @R1,1
  17124  00001CE0  00000001 DROP                                            1              1
  17128  00001CE6  00000001 USING  ORDINARY    00000000 00001000 FFFFFFFD   1 000          @R1,1
  17167  00001D04  00000001 DROP                                            1              1
  17171  00001D0A  00000001 USING  ORDINARY    00000000 00001000 FFFFFFFD   1 000          @R1,1
  17210  00001D28  00000001 DROP                                            1              1
  17214  00001D2E  00000001 USING  ORDINARY    00000000 00001000 FFFFFFFD   1 000   27903  @R1,1
  17254  00001D42  00000001 USING  ORDINARY    00000000 00001000 FFFFFFDF   6 026   17306  VNENTRY,R6
  17325  00001D5E  00000001 USING  ORDINARY    00000000 00001000 FFFFFFF8   6 000          @R6,6
  17361  00001D66  00000001 USING  ORDINARY    00000000 00001000 FFFFFFDF   6 026   17413  VNENTRY,R6
  17432  00001D82  00000001 USING  ORDINARY    00000000 00001000 FFFFFFF8   6 000          @R6,6
  17444  00001D82  00000001 USING  ORDINARY    00000000 00001000 FFFFFFF6   8 000          @R8,8
  17449  00001D82  00000001 USING  ORDINARY    00000000 00001000 FFFFFFF7   7 000          @R7,7
  17503  00001DAA  00000001 USING  ORDINARY    00001DAA 00001000 00000001   7 5FE   17541  $$$320B,7
  17523  00001DAA  00000001 USING  ORDINARY    00000000 00001000 FFFFFFDF   6 024   17541  VNENTRY,R6
  17549  00001DBC  00000001 USING  ORDINARY    00000000 00001000 FFFFFFF8   6 000          @R6,6
  17557  00001DBC  00000001 USING  ORDINARY    00000000 00001000 FFFFFFF7   7 000          @R7,7
  17607  00001DE4  00000001 USING  ORDINARY    00001DE4 00001000 00000001   7 5C4   17716  $$$323B,7
  17643  00001DEC  00000001 USING  ORDINARY    00000000 00001000 FFFFFFDF   6 024   17661  VNENTRY,R6
  17669  00001DFE  00000001 USING  ORDINARY    00000000 00001000 FFFFFFF8   6 000          @R6,6
  17698  00001E02  00000001 USING  ORDINARY    00000000 00001000 FFFFFFDF   6 024   17716  VNENTRY,R6
  17724  00001E14  00000001 USING  ORDINARY    00000000 00001000 FFFFFFF8   6 000          @R6,6
  17736  00001E14  00000001 USING  ORDINARY    00000000 00001000 FFFFFFF7   7 000          @R7,7
  17788  00001E3C  00000001 USING  ORDINARY    00001E3C 00001000 00000001   7 5E0   17888  $$$328B,7
  17808  00001E3C  00000001 USING  ORDINARY    00000000 00001000 FFFFFFDF   6 026   17864  VNENTRY,R6
  17883  00001E60  00000001 USING  ORDINARY    00000000 00001000 FFFFFFF8   6 000          @R6,6
  17896  00001E66  00000001 USING  ORDINARY    00000000 00001000 FFFFFFF7   7 000          @R7,7
  17947  00001E8E  00000001 USING  ORDINARY    00001E8E 00001000 00000001   7 594   18081  $$$334B,7
  18005  00001EA0  00000001 USING  ORDINARY    00000000 00001000 FFFFFFDF   6 026   18057  VNENTRY,R6
  18076  00001EBC  00000001 USING  ORDINARY    00000000 00001000 FFFFFFF8   6 000          @R6,6
  18089  00001EC2  00000001 USING  ORDINARY    00000000 00001000 FFFFFFF7   7 000          @R7,7
  18141  00001EEA  00000001 USING  ORDINARY    00001EEA 00001000 00000001   7 53E   18275  $$$341B,7
1SYSV     (SYSV4072) (12:56) (15MAR04) Using Map                                                                            Page  235
  18199  00001EFC  00000001 USING  ORDINARY    00000000 00001000 FFFFFFDF   6 026   18251  VNENTRY,R6
  18270  00001F18  00000001 USING  ORDINARY    00000000 00001000 FFFFFFF8   6 000          @R6,6
  18283  00001F1E  00000001 USING  ORDINARY    00000000 00001000 FFFFFFF7   7 000          @R7,7
  18334  00001F46  00000001 USING  ORDINARY    00001F46 00001000 00000001   7 4E8   18434  $$$348B,7
  18354  00001F46  00000001 USING  ORDINARY    00000000 00001000 FFFFFFDF   6 026   18410  VNENTRY,R6
  18429  00001F6A  00000001 USING  ORDINARY    00000000 00001000 FFFFFFF8   6 000          @R6,6
  18442  00001F70  00000001 USING  ORDINARY    00000000 00001000 FFFFFFF7   7 000          @R7,7
  18492  00001F98  00000001 USING  ORDINARY    00001F98 00001000 00000001   7 49C   18592  $$$354B,7
  18512  00001F98  00000001 USING  ORDINARY    00000000 00001000 FFFFFFDF   6 026   18568  VNENTRY,R6
  18587  00001FBC  00000001 USING  ORDINARY    00000000 00001000 FFFFFFF8   6 000          @R6,6
  18600  00001FC2  00000001 USING  ORDINARY    00000000 00001000 FFFFFFF7   7 000          @R7,7
  18652  00001FEA  00000001 USING  ORDINARY    00001FEA 00001000 00000001   7 450   18936  $$$360B,7
  18891  00002082  00000001 USING  ORDINARY    00000000 00001000 FFFFFFDF   6 026   18943  VNENTRY,R6
  18962  0000209E  00000001 USING  ORDINARY    00000000 00001000 FFFFFFF8   6 000          @R6,6
  18970  0000209E  00000001 USING  ORDINARY    00000000 00001000 FFFFFFF7   7 000          @R7,7
  19022  000020C6  00000001 USING  ORDINARY    000020C6 00001000 00000001   7 2C2   19068  $$$375B,7
  19042  000020C6  00000001 USING  ORDINARY    00000000 00001000 FFFFFFDF   6 024   19065  VNENTRY,R6
  19076  000020E2  00000001 USING  ORDINARY    00000000 00001000 FFFFFFF8   6 000          @R6,6
  19084  000020E2  00000001 USING  ORDINARY    00000000 00001000 FFFFFFF7   7 000          @R7,7
  19136  0000210A  00000001 USING  ORDINARY    0000210A 00001000 00000001   7 342   19435  $$$378B,7
  19174  00002114  00000001 USING  ORDINARY    00000000 00001000 FFFFFFDF   6 026   19230  VNENTRY,R6
  19249  00002138  00000001 USING  ORDINARY    00000000 00001000 FFFFFFF8   6 000          @R6,6
  19293  00002146  00000001 USING  ORDINARY    00000000 00001000 FFFFFFDF   6 026   19349  VNENTRY,R6
  19368  0000216A  00000001 USING  ORDINARY    00000000 00001000 FFFFFFF8   6 000          @R6,6
  19396  0000216E  00000001 USING  ORDINARY    00000000 00001000 FFFFFFDF   6 026   19442  VNENTRY,R6
  19461  00002192  00000001 USING  ORDINARY    00000000 00001000 FFFFFFF8   6 000          @R6,6
  19473  00002192  00000001 USING  ORDINARY    00000000 00001000 FFFFFFF7   7 000          @R7,7
  19524  000021BA  00000001 USING  ORDINARY    000021BA 00001000 00000001   7 298   19593  $$$394B,7
  19544  000021BA  00000001 USING  ORDINARY    00000000 00001000 FFFFFFDF   6 026   19600  VNENTRY,R6
  19619  000021DE  00000001 USING  ORDINARY    00000000 00001000 FFFFFFF8   6 000          @R6,6
  19627  000021DE  00000001 USING  ORDINARY    00000000 00001000 FFFFFFF7   7 000          @R7,7
  19678  00002206  00000001 USING  ORDINARY    00002206 00001000 00000001   7 1B2   19723  $$$400B,7
  19698  00002206  00000001 USING  ORDINARY    00000000 00001000 FFFFFFDF   6 024   19720  VNENTRY,R6
  19731  00002222  00000001 USING  ORDINARY    00000000 00001000 FFFFFFF8   6 000          @R6,6
  19739  00002222  00000001 USING  ORDINARY    00000000 00001000 FFFFFFF7   7 000          @R7,7
  19790  0000224A  00000001 USING  ORDINARY    0000224A 00001000 00000001   7 20E   19925  $$$403B,7
  19849  0000225E  00000001 USING  ORDINARY    00000000 00001000 FFFFFFDF   6 026   19901  VNENTRY,R6
  19920  0000227A  00000001 USING  ORDINARY    00000000 00001000 FFFFFFF8   6 000          @R6,6
  19933  00002280  00000001 USING  ORDINARY    00000000 00001000 FFFFFFF7   7 000          @R7,7
  19985  000022A8  00000001 USING  ORDINARY    000022A8 00001000 00000001   7 1B6   20054  $$$410B,7
  20005  000022A8  00000001 USING  ORDINARY    00000000 00001000 FFFFFFDF   6 026   20061  VNENTRY,R6
  20080  000022CC  00000001 USING  ORDINARY    00000000 00001000 FFFFFFF8   6 000          @R6,6
  20088  000022CC  00000001 USING  ORDINARY    00000000 00001000 FFFFFFF7   7 000          @R7,7
  20142  000022F4  00000001 USING  ORDINARY    000022F4 00001000 00000001   7 170   20255  $$$416B,7
  20156  000022F4  00000001 USING  ORDINARY    FFFFFFD8 00001000 FFFFFFDB   8 028   20168  FNWA-(4+36),R8
  20210  00002312  00000001 USING  ORDINARY    00000000 00001000 FFFFFFDF   6 026   20262  VNENTRY,R6
  20281  0000232E  00000001 USING  ORDINARY    00000000 00001000 FFFFFFF8   6 000          @R6,6
  20289  0000232E  00000001 USING  ORDINARY    00000000 00001000 FFFFFFF6   8 000          @R8,8
  20294  0000232E  00000001 USING  ORDINARY    00000000 00001000 FFFFFFF7   7 000          @R7,7
  20388  00002484  00000001 USING  ORDINARY    00002484 00001000 00000001   7 7D8   20457  $$$423B,7
  20408  00002484  00000001 USING  ORDINARY    00000000 00001000 FFFFFFDF   6 026   20464  VNENTRY,R6
  20483  000024A8  00000001 USING  ORDINARY    00000000 00001000 FFFFFFF8   6 000          @R6,6
  20491  000024A8  00000001 USING  ORDINARY    00000000 00001000 FFFFFFF7   7 000          @R7,7
  20543  000024D0  00000001 USING  ORDINARY    000024D0 00001000 00000001   7 792   20643  $$$429B,7
  20563  000024D0  00000001 USING  ORDINARY    00000000 00001000 FFFFFFDF   6 026   20619  VNENTRY,R6
  20638  000024F4  00000001 USING  ORDINARY    00000000 00001000 FFFFFFF8   6 000          @R6,6
  20651  000024FA  00000001 USING  ORDINARY    00000000 00001000 FFFFFFF7   7 000          @R7,7
  20702  00002522  00000001 USING  ORDINARY    00002522 00001000 00000001   7 682   20748  $$$435B,7
  20722  00002522  00000001 USING  ORDINARY    00000000 00001000 FFFFFFDF   6 024   20745  VNENTRY,R6
1SYSV     (SYSV4072) (12:56) (15MAR04) Using Map                                                                            Page  236
  20756  0000253E  00000001 USING  ORDINARY    00000000 00001000 FFFFFFF8   6 000          @R6,6
  20764  0000253E  00000001 USING  ORDINARY    00000000 00001000 FFFFFFF7   7 000          @R7,7
  20815  00002566  00000001 USING  ORDINARY    00002566 00001000 00000001   7 642   20883  $$$438B,7
  20858  00002578  00000001 USING  ORDINARY    00000000 00001000 FFFFFFDF   6 024   20880  VNENTRY,R6
  20891  00002590  00000001 USING  ORDINARY    00000000 00001000 FFFFFFF8   6 000          @R6,6
  20899  00002590  00000001 USING  ORDINARY    00000000 00001000 FFFFFFF7   7 000          @R7,7
  20950  000025B8  00000001 USING  ORDINARY    000025B8 00001000 00000001   7 5F4   20995  $$$442B,7
  20970  000025B8  00000001 USING  ORDINARY    00000000 00001000 FFFFFFDF   6 024   20992  VNENTRY,R6
  21003  000025D4  00000001 USING  ORDINARY    00000000 00001000 FFFFFFF8   6 000          @R6,6
  21011  000025D4  00000001 USING  ORDINARY    00000000 00001000 FFFFFFF7   7 000          @R7,7
  21062  000025FC  00000001 USING  ORDINARY    000025FC 00001000 00000001   7 66C   21162  $$$445B,7
  21082  000025FC  00000001 USING  ORDINARY    00000000 00001000 FFFFFFDF   6 026   21138  VNENTRY,R6
  21157  00002620  00000001 USING  ORDINARY    00000000 00001000 FFFFFFF8   6 000          @R6,6
  21170  00002626  00000001 USING  ORDINARY    00000000 00001000 FFFFFFF7   7 000          @R7,7
  21222  0000264E  00000001 USING  ORDINARY    0000264E 00001000 00000001   7 55E   21268  $$$451B,7
  21242  0000264E  00000001 USING  ORDINARY    00000000 00001000 FFFFFFDF   6 024   21265  VNENTRY,R6
  21276  0000266A  00000001 USING  ORDINARY    00000000 00001000 FFFFFFF8   6 000          @R6,6
  21284  0000266A  00000001 USING  ORDINARY    00000000 00001000 FFFFFFF7   7 000          @R7,7
  21336  00002692  00000001 USING  ORDINARY    00002692 00001000 00000001   7 5DC   21436  $$$454B,7
  21356  00002692  00000001 USING  ORDINARY    00000000 00001000 FFFFFFDF   6 026   21412  VNENTRY,R6
  21431  000026B6  00000001 USING  ORDINARY    00000000 00001000 FFFFFFF8   6 000          @R6,6
  21444  000026BC  00000001 USING  ORDINARY    00000000 00001000 FFFFFFF7   7 000          @R7,7
  21495  000026E4  00000001 USING  ORDINARY    000026E4 00001000 00000001   7 590   21751  $$$460B,7
  21706  00002762  00000001 USING  ORDINARY    00000000 00001000 FFFFFFDF   6 026   21758  VNENTRY,R6
  21777  0000277E  00000001 USING  ORDINARY    00000000 00001000 FFFFFFF8   6 000          @R6,6
  21785  0000277E  00000001 USING  ORDINARY    00000000 00001000 FFFFFFF7   7 000          @R7,7
  21837  000027A6  00000001 USING  ORDINARY    000027A6 00001000 00000001   7 4D4   21937  $$$476B,7
  21857  000027A6  00000001 USING  ORDINARY    00000000 00001000 FFFFFFDF   6 026   21913  VNENTRY,R6
  21932  000027CA  00000001 USING  ORDINARY    00000000 00001000 FFFFFFF8   6 000          @R6,6
  21945  000027D0  00000001 USING  ORDINARY    00000000 00001000 FFFFFFF7   7 000          @R7,7
  21996  000027F8  00000001 USING  ORDINARY    000027F8 00001000 00000001   7 488   22216  $$$482B,7
  22016  000027F8  00000001 USING  ORDINARY    00000000 00001000 FFFFFFDF   6 026   22068  VNENTRY,R6
  22087  00002816  00000001 USING  ORDINARY    00000000 00001000 FFFFFFF8   6 000          @R6,6
  22102  0000281C  00000001 USING  ORDINARY    00000000 00001000 FFFFFFE3   4 100   22239  KWR,R4
  22173  0000285A  00000001 USING  ORDINARY    00000000 00001000 FFFFFFDF   6 026   22218  VNENTRY,R6
  22193  00002864  00000001 DROP                                           15              15
  22197  0000286A  00000001 USING  ORDINARY    00000000 00001000 FFFFFFEF  15 000          @R15,15
  22225  0000287C  00000001 USING  ORDINARY    00000000 00001000 FFFFFFF8   6 000          @R6,6
  22250  0000288A  00000001 USING  ORDINARY    00000000 00001000 FFFFFFFA   4 000          @R4,4
  22258  0000288A  00000001 USING  ORDINARY    00000000 00001000 FFFFFFF7   7 000          @R7,7
  22309  000028B2  00000001 USING  ORDINARY    000028B2 00001000 00000001   7 3D4   22529  $$$490B,7
  22329  000028B2  00000001 USING  ORDINARY    00000000 00001000 FFFFFFDF   6 026   22381  VNENTRY,R6
  22400  000028D0  00000001 USING  ORDINARY    00000000 00001000 FFFFFFF8   6 000          @R6,6
  22415  000028D6  00000001 USING  ORDINARY    00000000 00001000 FFFFFFE3   4 100   22552  KWR,R4
  22486  00002914  00000001 USING  ORDINARY    00000000 00001000 FFFFFFDF   6 026   22531  VNENTRY,R6
  22506  0000291E  00000001 DROP                                           15              15
  22510  00002924  00000001 USING  ORDINARY    00000000 00001000 FFFFFFEF  15 000          @R15,15
  22538  00002936  00000001 USING  ORDINARY    00000000 00001000 FFFFFFF8   6 000          @R6,6
  22563  00002944  00000001 USING  ORDINARY    00000000 00001000 FFFFFFFA   4 000          @R4,4
  22571  00002944  00000001 USING  ORDINARY    00000000 00001000 FFFFFFF7   7 000          @R7,7
  22736  0000296C  00000001 USING  ORDINARY    0000296C 00001000 00000001   7 2A8   23206  $$$506B,7
  22750  0000296C  00000001 USING  ORDINARY    FFFFFFE0 00001000 FFFFFFD9   8 044   23225  MACHWA-(4+28),R8
  23232  00002ACC  00000001 USING  ORDINARY    00000000 00001000 FFFFFFF6   8 000          @R8,8
  23237  00002ACC  00000001 USING  ORDINARY    00000000 00001000 FFFFFFF7   7 000          @R7,7
  23288  00002AF4  00000001 USING  ORDINARY    00002AF4 00001000 00000001   7 198   23374  $$$523B,7
  23329  00002B02  00000001 USING  ORDINARY    00000000 00001000 FFFFFFDF   6 026   23381  VNENTRY,R6
  23400  00002B1E  00000001 USING  ORDINARY    00000000 00001000 FFFFFFF8   6 000          @R6,6
  23408  00002B1E  00000001 USING  ORDINARY    00000000 00001000 FFFFFFF7   7 000          @R7,7
  23462  00002B46  00000001 USING  ORDINARY    00002B46 00001000 00000001   7 14C   23596  $$$529B,7
1SYSV     (SYSV4072) (12:56) (15MAR04) Using Map                                                                            Page  237
  23520  00002B5E  00000001 USING  ORDINARY    00000000 00001000 FFFFFFDF   6 026   23572  VNENTRY,R6
  23591  00002B7A  00000001 USING  ORDINARY    00000000 00001000 FFFFFFF8   6 000          @R6,6
  23604  00002B80  00000001 USING  ORDINARY    00000000 00001000 FFFFFFF7   7 000          @R7,7
  23697  00002CB2  00000001 USING  ORDINARY    00002CB2 00001000 00000001   7 A7C   23797  $$$536B,7
  23717  00002CB2  00000001 USING  ORDINARY    00000000 00001000 FFFFFFDF   6 026   23773  VNENTRY,R6
  23792  00002CD6  00000001 USING  ORDINARY    00000000 00001000 FFFFFFF8   6 000          @R6,6
  23805  00002CDC  00000001 USING  ORDINARY    00000000 00001000 FFFFFFF7   7 000          @R7,7
  23856  00002D04  00000001 USING  ORDINARY    00002D04 00001000 00000001   7 9D8   24007  $$$542B,7
  23876  00002D04  00000001 USING  ORDINARY    00000000 00001000 FFFFFFDF   6 024   23894  VNENTRY,R6
  23902  00002D16  00000001 USING  ORDINARY    00000000 00001000 FFFFFFF8   6 000          @R6,6
  23917  00002D1C  00000001 USING  ORDINARY    00000000 00001000 FFFFFFE3   4 100   24033  KWR,R4
  23989  00002D50  00000001 USING  ORDINARY    00000000 00001000 FFFFFFDF   6 024   24007  VNENTRY,R6
  24015  00002D62  00000001 USING  ORDINARY    00000000 00001000 FFFFFFF8   6 000          @R6,6
  24040  00002D6E  00000001 USING  ORDINARY    00000000 00001000 FFFFFFFA   4 000          @R4,4
  24048  00002D6E  00000001 USING  ORDINARY    00000000 00001000 FFFFFFF7   7 000          @R7,7
  24099  00002D96  00000001 USING  ORDINARY    00002D96 00001000 00000001   7 946   24252  $$$549B,7
  24119  00002D96  00000001 USING  ORDINARY    00000000 00001000 FFFFFFDF   6 024   24137  VNENTRY,R6
  24145  00002DA8  00000001 USING  ORDINARY    00000000 00001000 FFFFFFF8   6 000          @R6,6
  24160  00002DAE  00000001 USING  ORDINARY    00000000 00001000 FFFFFFE3   4 100   24278  KWR,R4
  24234  00002DE4  00000001 USING  ORDINARY    00000000 00001000 FFFFFFDF   6 024   24252  VNENTRY,R6
  24260  00002DF6  00000001 USING  ORDINARY    00000000 00001000 FFFFFFF8   6 000          @R6,6
  24285  00002E02  00000001 USING  ORDINARY    00000000 00001000 FFFFFFFA   4 000          @R4,4
  24293  00002E02  00000001 USING  ORDINARY    00000000 00001000 FFFFFFF7   7 000          @R7,7
  24344  00002E2A  00000001 USING  ORDINARY    00002E2A 00001000 00000001   7 8CE   24473  $$$555B,7
  24386  00002E5C  00000001 USING  ORDINARY    00000000 00001000 FFFFFFDF   6 024   24409  VNENTRY,R6
  24420  00002E78  00000001 USING  ORDINARY    00000000 00001000 FFFFFFF8   6 000          @R6,6
  24437  00002E7C  00000001 USING  ORDINARY    00000000 00001000 FFFFFFDF   6 024   24460  VNENTRY,R6
  24471  00002E98  00000001 USING  ORDINARY    00000000 00001000 FFFFFFF8   6 000          @R6,6
  24483  00002E9C  00000001 USING  ORDINARY    00000000 00001000 FFFFFFF7   7 000          @R7,7
  24532  00002EC4  00000001 USING  ORDINARY    00002EC4 00001000 00000001   7 870   24632  $$$558B,7
  24552  00002EC4  00000001 USING  ORDINARY    00000000 00001000 FFFFFFDF   6 026   24608  VNENTRY,R6
  24627  00002EE8  00000001 USING  ORDINARY    00000000 00001000 FFFFFFF8   6 000          @R6,6
  24640  00002EEE  00000001 USING  ORDINARY    00000000 00001000 FFFFFFF7   7 000          @R7,7
  24689  00002F16  00000001 USING  ORDINARY    00002F16 00001000 00000001   7 824   24789  $$$564B,7
  24709  00002F16  00000001 USING  ORDINARY    00000000 00001000 FFFFFFDF   6 026   24765  VNENTRY,R6
  24784  00002F3A  00000001 USING  ORDINARY    00000000 00001000 FFFFFFF8   6 000          @R6,6
  24797  00002F40  00000001 USING  ORDINARY    00000000 00001000 FFFFFFF7   7 000          @R7,7
  24846  00002F68  00000001 USING  ORDINARY    00002F68 00001000 00000001   7 774   24970  $$$570B,7
  24897  00002F78  00000001 USING  ORDINARY    00000000 00001000 FFFFFFDF   6 024   24915  VNENTRY,R6
  24923  00002F8A  00000001 USING  ORDINARY    00000000 00001000 FFFFFFF8   6 000          @R6,6
  24952  00002F8E  00000001 USING  ORDINARY    00000000 00001000 FFFFFFDF   6 024   24970  VNENTRY,R6
  24978  00002FA0  00000001 USING  ORDINARY    00000000 00001000 FFFFFFF8   6 000          @R6,6
  24990  00002FA0  00000001 USING  ORDINARY    00000000 00001000 FFFFFFF7   7 000          @R7,7
  25039  00002FC8  00000001 USING  ORDINARY    00002FC8 00001000 00000001   7 734   25162  $$$576B,7
  25089  00002FDA  00000001 USING  ORDINARY    00000000 00001000 FFFFFFDF   6 024   25107  VNENTRY,R6
  25115  00002FEC  00000001 USING  ORDINARY    00000000 00001000 FFFFFFF8   6 000          @R6,6
  25144  00002FF0  00000001 USING  ORDINARY    00000000 00001000 FFFFFFDF   6 024   25162  VNENTRY,R6
  25170  00003002  00000001 USING  ORDINARY    00000000 00001000 FFFFFFF8   6 000          @R6,6
  25182  00003002  00000001 USING  ORDINARY    00000000 00001000 FFFFFFF7   7 000          @R7,7
  25231  0000302A  00000001 USING  ORDINARY    0000302A 00001000 00000001   7 6D6   25282  $$$581B,7
  25256  00003034  00000001 USING  ORDINARY    00000000 00001000 FFFFFFDF   6 024   25279  VNENTRY,R6
  25290  0000304E  00000001 USING  ORDINARY    00000000 00001000 FFFFFFF8   6 000          @R6,6
  25298  0000304E  00000001 USING  ORDINARY    00000000 00001000 FFFFFFF7   7 000          @R7,7
  25347  00003076  00000001 USING  ORDINARY    00003076 00001000 00000001   7 68E   25398  $$$584B,7
  25372  00003080  00000001 USING  ORDINARY    00000000 00001000 FFFFFFDF   6 024   25395  VNENTRY,R6
  25406  0000309A  00000001 USING  ORDINARY    00000000 00001000 FFFFFFF8   6 000          @R6,6
  25414  0000309A  00000001 USING  ORDINARY    00000000 00001000 FFFFFFF7   7 000          @R7,7
  25465  000030C2  00000001 USING  ORDINARY    000030C2 00001000 00000001   7 66A   25524  $$$587B,7
  25483  000030C2  00000001 USING  ORDINARY    00000000 00001000 FFFFFFDF   6 029   25527  VNENTRY,R6
1SYSV     (SYSV4072) (12:56) (15MAR04) Using Map                                                                            Page  238
  25538  000030F2  00000001 USING  ORDINARY    00000000 00001000 FFFFFFF8   6 000          @R6,6
  25543  000030F2  00000001 USING  ORDINARY    00000000 00001000 FFFFFFF7   7 000          @R7,7
  25597  0000311A  00000001 USING  ORDINARY    0000311A 00001000 00000001   7 626   25697  $$$591B,7
  25611  0000311A  00000001 USING  ORDINARY    FFFFFFD8 00001000 FFFFFFDB   8 028   25616  FNWA-(4+36),R8
  25652  00003132  00000001 USING  ORDINARY    00000000 00001000 FFFFFFDF   6 026   25704  VNENTRY,R6
  25723  0000314E  00000001 USING  ORDINARY    00000000 00001000 FFFFFFF8   6 000          @R6,6
  25731  0000314E  00000001 USING  ORDINARY    00000000 00001000 FFFFFFF6   8 000          @R8,8
  25736  0000314E  00000001 USING  ORDINARY    00000000 00001000 FFFFFFF7   7 000          @R7,7
  25788  00003176  00000001 USING  ORDINARY    00003176 00001000 00000001   7 596   25819  $$$598B,7
  25804  00003176  00000001 USING  ORDINARY    00000000 00001000 FFFFFFDF   6 024   25819  VNENTRY,R6
  25826  00003188  00000001 USING  ORDINARY    00000000 00001000 FFFFFFF8   6 000          @R6,6
  25834  00003188  00000001 USING  ORDINARY    00000000 00001000 FFFFFFF7   7 000          @R7,7
  25891  000031B0  00000001 USING  ORDINARY    000031B0 00001000 00000001   7 596   25977  $$$601B,7
  25932  000031BE  00000001 USING  ORDINARY    00000000 00001000 FFFFFFDF   6 026   25984  VNENTRY,R6
  26003  000031DA  00000001 USING  ORDINARY    00000000 00001000 FFFFFFF8   6 000          @R6,6
  26011  000031DA  00000001 USING  ORDINARY    00000000 00001000 FFFFFFF7   7 000          @R7,7
  26063  00003202  00000001 USING  ORDINARY    00003202 00001000 00000001   7 51A   26172  $$$607B,7
  26095  0000321E  00000001 USING  ORDINARY    00000000 00001000 FFFFFFDF   6 024   26118  VNENTRY,R6
  26129  00003238  00000001 USING  ORDINARY    00000000 00001000 FFFFFFF8   6 000          @R6,6
  26146  0000323C  00000001 USING  ORDINARY    00000000 00001000 FFFFFFDF   6 024   26169  VNENTRY,R6
  26180  00003258  00000001 USING  ORDINARY    00000000 00001000 FFFFFFF8   6 000          @R6,6
  26188  00003258  00000001 USING  ORDINARY    00000000 00001000 FFFFFFF7   7 000          @R7,7
  26240  00003280  00000001 USING  ORDINARY    00003280 00001000 00000001   7 45C   26347  $$$610B,7
  26275  00003288  00000001 USING  ORDINARY    00000000 00001000 FFFFFFDF   6 024   26293  VNENTRY,R6
  26301  0000329A  00000001 USING  ORDINARY    00000000 00001000 FFFFFFF8   6 000          @R6,6
  26329  0000329E  00000001 USING  ORDINARY    00000000 00001000 FFFFFFDF   6 024   26347  VNENTRY,R6
  26355  000032B0  00000001 USING  ORDINARY    00000000 00001000 FFFFFFF8   6 000          @R6,6
  26367  000032B0  00000001 USING  ORDINARY    00000000 00001000 FFFFFFF7   7 000          @R7,7
  26419  000032D8  00000001 USING  ORDINARY    000032D8 00001000 00000001   7 404   26526  $$$615B,7
  26454  000032E0  00000001 USING  ORDINARY    00000000 00001000 FFFFFFDF   6 024   26472  VNENTRY,R6
  26480  000032F2  00000001 USING  ORDINARY    00000000 00001000 FFFFFFF8   6 000          @R6,6
  26508  000032F6  00000001 USING  ORDINARY    00000000 00001000 FFFFFFDF   6 024   26526  VNENTRY,R6
  26534  00003308  00000001 USING  ORDINARY    00000000 00001000 FFFFFFF8   6 000          @R6,6
  26546  00003308  00000001 USING  ORDINARY    00000000 00001000 FFFFFFF7   7 000          @R7,7
  26598  00003330  00000001 USING  ORDINARY    00003330 00001000 00000001   7 3AC   26705  $$$620B,7
  26633  00003338  00000001 USING  ORDINARY    00000000 00001000 FFFFFFDF   6 024   26651  VNENTRY,R6
  26659  0000334A  00000001 USING  ORDINARY    00000000 00001000 FFFFFFF8   6 000          @R6,6
  26687  0000334E  00000001 USING  ORDINARY    00000000 00001000 FFFFFFDF   6 024   26705  VNENTRY,R6
  26713  00003360  00000001 USING  ORDINARY    00000000 00001000 FFFFFFF8   6 000          @R6,6
  26725  00003360  00000001 USING  ORDINARY    00000000 00001000 FFFFFFF7   7 000          @R7,7
  26777  00003388  00000001 USING  ORDINARY    00003388 00001000 00000001   7 354   26884  $$$625B,7
  26812  00003390  00000001 USING  ORDINARY    00000000 00001000 FFFFFFDF   6 024   26830  VNENTRY,R6
  26838  000033A2  00000001 USING  ORDINARY    00000000 00001000 FFFFFFF8   6 000          @R6,6
  26866  000033A6  00000001 USING  ORDINARY    00000000 00001000 FFFFFFDF   6 024   26884  VNENTRY,R6
  26892  000033B8  00000001 USING  ORDINARY    00000000 00001000 FFFFFFF8   6 000          @R6,6
  26904  000033B8  00000001 USING  ORDINARY    00000000 00001000 FFFFFFF7   7 000          @R7,7
  26956  000033E0  00000001 USING  ORDINARY    000033E0 00001000 00000001   7 36C   27107  $$$630B,7
  27031  000033FC  00000001 USING  ORDINARY    00000000 00001000 FFFFFFDF   6 026   27083  VNENTRY,R6
  27102  00003418  00000001 USING  ORDINARY    00000000 00001000 FFFFFFF8   6 000          @R6,6
  27115  0000341E  00000001 USING  ORDINARY    00000000 00001000 FFFFFFF7   7 000          @R7,7
  27166  00003446  00000001 USING  ORDINARY    00003446 00001000 00000001   7 30C   27266  $$$638B,7
  27186  00003446  00000001 USING  ORDINARY    00000000 00001000 FFFFFFDF   6 026   27242  VNENTRY,R6
  27261  0000346A  00000001 USING  ORDINARY    00000000 00001000 FFFFFFF8   6 000          @R6,6
  27274  00003470  00000001 USING  ORDINARY    00000000 00001000 FFFFFFF7   7 000          @R7,7
  27332  00003498  00000001 USING  ORDINARY    00003498 00001000 00000001   7 2C0   27432  $$$644B,7
  27352  00003498  00000001 USING  ORDINARY    00000000 00001000 FFFFFFDF   6 026   27408  VNENTRY,R6
  27427  000034BC  00000001 USING  ORDINARY    00000000 00001000 FFFFFFF8   6 000          @R6,6
  27440  000034C2  00000001 USING  ORDINARY    00000000 00001000 FFFFFFF7   7 000          @R7,7
  27493  000034EA  00000001 USING  ORDINARY    000034EA 00001000 00000001   7 274   27571  $$$650B,7
1SYSV     (SYSV4072) (12:56) (15MAR04) Using Map                                                                            Page  239
  27507  000034EA  00000001 USING  ORDINARY    FFFFFFD8 00001000 FFFFFFDB   8 000          FNWA-(4+36),R8
  27526  000034F0  00000001 USING  ORDINARY    00000000 00001000 FFFFFFDF   6 026   27578  VNENTRY,R6
  27597  0000350C  00000001 USING  ORDINARY    00000000 00001000 FFFFFFF8   6 000          @R6,6
  27605  0000350C  00000001 USING  ORDINARY    00000000 00001000 FFFFFFF6   8 000          @R8,8
  27610  0000350C  00000001 USING  ORDINARY    00000000 00001000 FFFFFFF7   7 000          @R7,7
  27662  00003534  00000001 USING  ORDINARY    00003534 00001000 00000001   7 1EC   27713  $$$656B,7
  27687  0000353C  00000001 USING  ORDINARY    00000000 00001000 FFFFFFDF   6 024   27710  VNENTRY,R6
  27721  00003556  00000001 USING  ORDINARY    00000000 00001000 FFFFFFF8   6 000          @R6,6
  27729  00003556  00000001 USING  ORDINARY    00000000 00001000 FFFFFFF7   7 000          @R7,7
  27783  0000357E  00000001 USING  ORDINARY    0000357E 00001000 00000001   7 1E6   27896  $$$659B,7
  27797  0000357E  00000001 USING  ORDINARY    FFFFFFD8 00001000 FFFFFFDB   8 028   27809  FNWA-(4+36),R8
  27851  00003596  00000001 USING  ORDINARY    00000000 00001000 FFFFFFDF   6 026   27903  VNENTRY,R6
  27922  000035B2  00000001 USING  ORDINARY    00000000 00001000 FFFFFFF8   6 000          @R6,6
  27930  000035B2  00000001 USING  ORDINARY    00000000 00001000 FFFFFFF6   8 000          @R8,8
  27935  000035B2  00000001 USING  ORDINARY    00000000 00001000 FFFFFFF7   7 000          @R7,7
  27987  000035DA  00000001 USING  ORDINARY    000035DA 00001000 00000001   7 14E   28049  $$$666B,7
  28004  000035E0  00000001 DROP                                            1              1
  28008  000035E6  00000001 USING  ORDINARY    00000000 00001000 FFFFFFFD   1 000   38022  @R1,1
  28023  000035F2  00000001 USING  ORDINARY    00000000 00001000 FFFFFFDF   6 024   28046  VNENTRY,R6
  28057  0000360C  00000001 USING  ORDINARY    00000000 00001000 FFFFFFF8   6 000          @R6,6
  28065  0000360C  00000001 USING  ORDINARY    00000000 00001000 FFFFFFF7   7 000          @R7,7
  28119  00003634  00000001 USING  ORDINARY    00003634 00001000 00000001   7 136   28232  $$$669B,7
  28133  00003634  00000001 USING  ORDINARY    FFFFFFD8 00001000 FFFFFFDB   8 028   28145  FNWA-(4+36),R8
  28187  0000364C  00000001 USING  ORDINARY    00000000 00001000 FFFFFFDF   6 026   28239  VNENTRY,R6
  28258  00003668  00000001 USING  ORDINARY    00000000 00001000 FFFFFFF8   6 000          @R6,6
  28266  00003668  00000001 USING  ORDINARY    00000000 00001000 FFFFFFF6   8 000          @R8,8
  28271  00003668  00000001 USING  ORDINARY    00000000 00001000 FFFFFFF7   7 000          @R7,7
  28361  0000378A  00000001 USING  ORDINARY    0000378A 00001000 00000001   7 23E   28407  $$$676B,7
  28381  0000378A  00000001 USING  ORDINARY    00000000 00001000 FFFFFFDF   6 024   28404  VNENTRY,R6
  28415  000037A6  00000001 USING  ORDINARY    00000000 00001000 FFFFFFF8   6 000          @R6,6
  28423  000037A6  00000001 USING  ORDINARY    00000000 00001000 FFFFFFF7   7 000          @R7,7
  28472  000037CE  00000001 USING  ORDINARY    000037CE 00001000 00000001   7 1FE   28517  $$$679B,7
  28492  000037CE  00000001 USING  ORDINARY    00000000 00001000 FFFFFFDF   6 024   28514  VNENTRY,R6
  28525  000037EA  00000001 USING  ORDINARY    00000000 00001000 FFFFFFF8   6 000          @R6,6
  28533  000037EA  00000001 USING  ORDINARY    00000000 00001000 FFFFFFF7   7 000          @R7,7
  28582  00003812  00000001 USING  ORDINARY    00003812 00001000 00000001   7 1DA   28717  $$$682B,7
  28641  00003826  00000001 USING  ORDINARY    00000000 00001000 FFFFFFDF   6 026   28693  VNENTRY,R6
  28712  00003842  00000001 USING  ORDINARY    00000000 00001000 FFFFFFF8   6 000          @R6,6
  28725  00003848  00000001 USING  ORDINARY    00000000 00001000 FFFFFFF7   7 000          @R7,7
  28774  00003870  00000001 USING  ORDINARY    00003870 00001000 00000001   7 182   28909  $$$689B,7
  28833  00003884  00000001 USING  ORDINARY    00000000 00001000 FFFFFFDF   6 026   28885  VNENTRY,R6
  28904  000038A0  00000001 USING  ORDINARY    00000000 00001000 FFFFFFF8   6 000          @R6,6
  28917  000038A6  00000001 USING  ORDINARY    00000000 00001000 FFFFFFF7   7 000          @R7,7
  28966  000038CE  00000001 USING  ORDINARY    000038CE 00001000 00000001   7 12A   29101  $$$696B,7
  29025  000038E2  00000001 USING  ORDINARY    00000000 00001000 FFFFFFDF   6 026   29077  VNENTRY,R6
  29096  000038FE  00000001 USING  ORDINARY    00000000 00001000 FFFFFFF8   6 000          @R6,6
  29109  00003904  00000001 USING  ORDINARY    00000000 00001000 FFFFFFF7   7 000          @R7,7
  29158  0000392C  00000001 USING  ORDINARY    0000392C 00001000 00000001   7 0D2   29293  $$$703B,7
  29217  00003940  00000001 USING  ORDINARY    00000000 00001000 FFFFFFDF   6 026   29269  VNENTRY,R6
  29288  0000395C  00000001 USING  ORDINARY    00000000 00001000 FFFFFFF8   6 000          @R6,6
  29301  00003962  00000001 USING  ORDINARY    00000000 00001000 FFFFFFF7   7 000          @R7,7
  29350  0000398A  00000001 USING  ORDINARY    0000398A 00001000 00000001   7 056   29459  $$$710B,7
  29386  00003992  00000001 USING  ORDINARY    00000000 00001000 FFFFFFDF   6 024   29404  VNENTRY,R6
  29412  000039A4  00000001 USING  ORDINARY    00000000 00001000 FFFFFFF8   6 000          @R6,6
  29441  000039A8  00000001 USING  ORDINARY    00000000 00001000 FFFFFFDF   6 024   29459  VNENTRY,R6
  29467  000039BA  00000001 USING  ORDINARY    00000000 00001000 FFFFFFF8   6 000          @R6,6
  29479  000039BA  00000001 USING  ORDINARY    00000000 00001000 FFFFFFF7   7 000          @R7,7
  29553  00003A1E  00000001 USING  ORDINARY    00003A1E 00001000 00000001   7 582   29607  $$$715B,7
  29565  00003A1E  00000001 DROP                                            3              3
1SYSV     (SYSV4072) (12:56) (15MAR04) Using Map                                                                            Page  240
  29569  00003A24  00000001 USING  ORDINARY    00000000 00001000 FFFFFFFB   3 000          @R3,3
  29581  00003A24  00000001 USING  ORDINARY    00000000 00001000 FFFFFFDF   6 024   29604  VNENTRY,R6
  29615  00003A3E  00000001 USING  ORDINARY    00000000 00001000 FFFFFFF8   6 000          @R6,6
  29623  00003A3E  00000001 USING  ORDINARY    00000000 00001000 FFFFFFF7   7 000          @R7,7
  29674  00003A66  00000001 USING  ORDINARY    00003A66 00001000 00000001   7 5C2   29881  $$$718B,7
  29693  00003A6A  00000001 USING  ORDINARY    00000000 00001000 FFFFFFE4   3 038   29697  JCB,R3
  29707  00003A6E  00000001 USING  ORDINARY    00000000 00001000 FFFFFFE2   2 052   29738  SIN,R2
  29805  00003A96  00000001 USING  ORDINARY    00000000 00001000 FFFFFFDF   6 026   29857  VNENTRY,R6
  29876  00003AB2  00000001 USING  ORDINARY    00000000 00001000 FFFFFFF8   6 000          @R6,6
  29889  00003AB8  00000001 USING  ORDINARY    00000000 00001000 FFFFFFFC   2 000          @R2,2
  29894  00003AB8  00000001 USING  ORDINARY    00000000 00001000 FFFFFFFB   3 000          @R3,3
  29899  00003AB8  00000001 USING  ORDINARY    00000000 00001000 FFFFFFF7   7 000          @R7,7
  29950  00003AE0  00000001 USING  ORDINARY    00003AE0 00001000 00000001   7 54E   30050  $$$727B,7
  29970  00003AE0  00000001 USING  ORDINARY    00000000 00001000 FFFFFFDF   6 026   30026  VNENTRY,R6
  30045  00003B04  00000001 USING  ORDINARY    00000000 00001000 FFFFFFF8   6 000          @R6,6
  30058  00003B0A  00000001 USING  ORDINARY    00000000 00001000 FFFFFFF7   7 000          @R7,7
  30109  00003B32  00000001 USING  ORDINARY    00003B32 00001000 00000001   7 502   30178  $$$733B,7
  30129  00003B32  00000001 USING  ORDINARY    00000000 00001000 FFFFFFDF   6 026   30185  VNENTRY,R6
  30204  00003B56  00000001 USING  ORDINARY    00000000 00001000 FFFFFFF8   6 000          @R6,6
  30212  00003B56  00000001 USING  ORDINARY    00000000 00001000 FFFFFFF7   7 000          @R7,7
  30264  00003B7E  00000001 USING  ORDINARY    00003B7E 00001000 00000001   7 42A   30275  $$$739B,7
  30283  00003B84  00000001 USING  ORDINARY    00000000 00001000 FFFFFFF7   7 000          @R7,7
  30335  00003BAC  00000001 USING  ORDINARY    00003BAC 00001000 00000001   7 48E   30481  $$$742B,7
  30360  00003BB8  00000001 USING  ORDINARY    00000000 00001000 FFFFFFE9   2 074   30396  CVT,R2
  30421  00003BD8  00000001 USING  ORDINARY    00000000 00001000 FFFFFFFC   2 000          @R2,2
  30436  00003BD8  00000001 USING  ORDINARY    00000000 00001000 FFFFFFDF   6 026   30488  VNENTRY,R6
  30507  00003BF4  00000001 USING  ORDINARY    00000000 00001000 FFFFFFF8   6 000          @R6,6
  30515  00003BF4  00000001 USING  ORDINARY    00000000 00001000 FFFFFFF7   7 000          @R7,7
  30566  00003C1C  00000001 USING  ORDINARY    00003C1C 00001000 00000001   7 424   30701  $$$751B,7
  30625  00003C30  00000001 USING  ORDINARY    00000000 00001000 FFFFFFDF   6 026   30677  VNENTRY,R6
  30696  00003C4C  00000001 USING  ORDINARY    00000000 00001000 FFFFFFF8   6 000          @R6,6
  30709  00003C52  00000001 USING  ORDINARY    00000000 00001000 FFFFFFF7   7 000          @R7,7
  30760  00003C7A  00000001 USING  ORDINARY    00003C7A 00001000 00000001   7 3CC   30860  $$$758B,7
  30780  00003C7A  00000001 USING  ORDINARY    00000000 00001000 FFFFFFDF   6 026   30836  VNENTRY,R6
  30855  00003C9E  00000001 USING  ORDINARY    00000000 00001000 FFFFFFF8   6 000          @R6,6
  30868  00003CA4  00000001 USING  ORDINARY    00000000 00001000 FFFFFFF7   7 000          @R7,7
  30919  00003CCC  00000001 USING  ORDINARY    00003CCC 00001000 00000001   7 380   31019  $$$764B,7
  30939  00003CCC  00000001 USING  ORDINARY    00000000 00001000 FFFFFFDF   6 026   30995  VNENTRY,R6
  31014  00003CF0  00000001 USING  ORDINARY    00000000 00001000 FFFFFFF8   6 000          @R6,6
  31027  00003CF6  00000001 USING  ORDINARY    00000000 00001000 FFFFFFF7   7 000          @R7,7
  31077  00003D1E  00000001 USING  ORDINARY    00003D1E 00001000 00000001   7 282   31122  $$$770B,7
  31097  00003D1E  00000001 USING  ORDINARY    00000000 00001000 FFFFFFDF   6 024   31119  VNENTRY,R6
  31130  00003D3A  00000001 USING  ORDINARY    00000000 00001000 FFFFFFF8   6 000          @R6,6
  31138  00003D3A  00000001 USING  ORDINARY    00000000 00001000 FFFFFFF7   7 000          @R7,7
  31189  00003D62  00000001 USING  ORDINARY    00003D62 00001000 00000001   7 2F0   31294  $$$773B,7
  31220  00003D74  00000001 USING  ORDINARY    00000000 00001000 FFFFFFDF   6 026   31272  VNENTRY,R6
  31291  00003D90  00000001 USING  ORDINARY    00000000 00001000 FFFFFFF8   6 000          @R6,6
  31301  00003D94  00000001 USING  ORDINARY    00000000 00001000 FFFFFFF7   7 000          @R7,7
  31352  00003DBC  00000001 USING  ORDINARY    00003DBC 00001000 00000001   7 238   31407  $$$779B,7
  31381  00003DCC  00000001 USING  ORDINARY    00000000 00001000 FFFFFFDF   6 024   31404  VNENTRY,R6
  31415  00003DE6  00000001 USING  ORDINARY    00000000 00001000 FFFFFFF8   6 000          @R6,6
  31423  00003DE6  00000001 USING  ORDINARY    00000000 00001000 FFFFFFF7   7 000          @R7,7
  31472  00003E0E  00000001 USING  ORDINARY    00003E0E 00001000 00000001   7 24A   31757  $$$782B,7
  31496  00003E1A  00000001 USING  ORDINARY    00000000 00001000 FFFFFFE9   2 0CC   31503  CVT,R2
  31525  00003E24  00000001 USING  ORDINARY    00000000 00001000 FFFFFFE5   3 00F   31554  USERCVT,R3
  31551  00003E2E  00000001 DROP                                           15              15
  31555  00003E34  00000001 USING  ORDINARY    00000000 00001000 FFFFFFEF  15 000          @R15,15
  31688  00003E82  00000001 USING  ORDINARY    00000000 00001000 FFFFFFFB   3 000          @R3,3
  31698  00003E82  00000001 USING  ORDINARY    00000000 00001000 FFFFFFFC   2 002   37625  @R2,2
1SYSV     (SYSV4072) (12:56) (15MAR04) Using Map                                                                            Page  241
  31712  00003E82  00000001 USING  ORDINARY    00000000 00001000 FFFFFFDF   6 026   31764  VNENTRY,R6
  31783  00003E9E  00000001 USING  ORDINARY    00000000 00001000 FFFFFFF8   6 000          @R6,6
  31792  00003E9E  00000001 USING  ORDINARY    00000000 00001000 FFFFFFF7   7 000          @R7,7
  31844  00003EC6  00000001 USING  ORDINARY    00003EC6 00001000 00000001   7 198   31937  $$$795B,7
  31892  00003EDE  00000001 USING  ORDINARY    00000000 00001000 FFFFFFDF   6 026   31944  VNENTRY,R6
  31963  00003EFA  00000001 USING  ORDINARY    00000000 00001000 FFFFFFF8   6 000          @R6,6
  31971  00003EFA  00000001 USING  ORDINARY    00000000 00001000 FFFFFFF7   7 000          @R7,7
  32023  00003F22  00000001 USING  ORDINARY    00003F22 00001000 00000001   7 0BE   32130  $$$802B,7
  32058  00003F2A  00000001 USING  ORDINARY    00000000 00001000 FFFFFFDF   6 024   32076  VNENTRY,R6
  32084  00003F3C  00000001 USING  ORDINARY    00000000 00001000 FFFFFFF8   6 000          @R6,6
  32112  00003F40  00000001 USING  ORDINARY    00000000 00001000 FFFFFFDF   6 024   32130  VNENTRY,R6
  32138  00003F52  00000001 USING  ORDINARY    00000000 00001000 FFFFFFF8   6 000          @R6,6
  32150  00003F52  00000001 USING  ORDINARY    00000000 00001000 FFFFFFF7   7 000          @R7,7
  32203  00003F7A  00000001 USING  ORDINARY    00003F7A 00001000 00000001   7 05A   32241  $$$807B,7
  32223  00003F7A  00000001 USING  ORDINARY    00000000 00001000 FFFFFFDF   6 024   32241  VNENTRY,R6
  32249  00003F8C  00000001 USING  ORDINARY    00000000 00001000 FFFFFFF8   6 000          @R6,6
  32257  00003F8C  00000001 USING  ORDINARY    00000000 00001000 FFFFFFF7   7 000          @R7,7
  32350  0000407E  00000001 USING  ORDINARY    0000407E 00001000 00000001   7 6B6   32457  $$$810B,7
  32385  00004086  00000001 USING  ORDINARY    00000000 00001000 FFFFFFDF   6 024   32403  VNENTRY,R6
  32411  00004098  00000001 USING  ORDINARY    00000000 00001000 FFFFFFF8   6 000          @R6,6
  32439  0000409C  00000001 USING  ORDINARY    00000000 00001000 FFFFFFDF   6 024   32457  VNENTRY,R6
  32465  000040AE  00000001 USING  ORDINARY    00000000 00001000 FFFFFFF8   6 000          @R6,6
  32477  000040AE  00000001 USING  ORDINARY    00000000 00001000 FFFFFFF7   7 000          @R7,7
  32529  000040D6  00000001 USING  ORDINARY    000040D6 00001000 00000001   7 65E   32636  $$$815B,7
  32564  000040DE  00000001 USING  ORDINARY    00000000 00001000 FFFFFFDF   6 024   32582  VNENTRY,R6
  32590  000040F0  00000001 USING  ORDINARY    00000000 00001000 FFFFFFF8   6 000          @R6,6
  32618  000040F4  00000001 USING  ORDINARY    00000000 00001000 FFFFFFDF   6 024   32636  VNENTRY,R6
  32644  00004106  00000001 USING  ORDINARY    00000000 00001000 FFFFFFF8   6 000          @R6,6
  32656  00004106  00000001 USING  ORDINARY    00000000 00001000 FFFFFFF7   7 000          @R7,7
  32710  0000412E  00000001 USING  ORDINARY    0000412E 00001000 00000001   7 62A   32896  $$$820B,7
  32724  0000412E  00000001 USING  ORDINARY    FFFFFFD8 00001000 FFFFFFDB   8 028   32746  FNWA-(4+36),R8
  32820  00004168  00000001 USING  ORDINARY    00000000 00001000 FFFFFFDF   6 026   32872  VNENTRY,R6
  32891  00004184  00000001 USING  ORDINARY    00000000 00001000 FFFFFFF8   6 000          @R6,6
  32904  0000418A  00000001 USING  ORDINARY    00000000 00001000 FFFFFFF6   8 000          @R8,8
  32909  0000418A  00000001 USING  ORDINARY    00000000 00001000 FFFFFFF7   7 000          @R7,7
  32963  000041B2  00000001 USING  ORDINARY    000041B2 00001000 00000001   7 5AC   33124  $$$830B,7
  32977  000041B2  00000001 USING  ORDINARY    FFFFFFD8 00001000 FFFFFFDB   8 028   33013  FNWA-(4+36),R8
  33079  000041E2  00000001 USING  ORDINARY    00000000 00001000 FFFFFFDF   6 026   33131  VNENTRY,R6
  33150  000041FE  00000001 USING  ORDINARY    00000000 00001000 FFFFFFF8   6 000          @R6,6
  33158  000041FE  00000001 USING  ORDINARY    00000000 00001000 FFFFFFF6   8 000          @R8,8
  33163  000041FE  00000001 USING  ORDINARY    00000000 00001000 FFFFFFF7   7 000          @R7,7
  33217  00004226  00000001 USING  ORDINARY    00004226 00001000 00000001   7 53E   33364  $$$840B,7
  33231  00004226  00000001 USING  ORDINARY    FFFFFFD8 00001000 FFFFFFDB   8 028   33253  FNWA-(4+36),R8
  33319  0000424E  00000001 USING  ORDINARY    00000000 00001000 FFFFFFDF   6 026   33371  VNENTRY,R6
  33390  0000426A  00000001 USING  ORDINARY    00000000 00001000 FFFFFFF8   6 000          @R6,6
  33398  0000426A  00000001 USING  ORDINARY    00000000 00001000 FFFFFFF6   8 000          @R8,8
  33403  0000426A  00000001 USING  ORDINARY    00000000 00001000 FFFFFFF7   7 000          @R7,7
  33454  00004292  00000001 USING  ORDINARY    00004292 00001000 00000001   7 4D8   33554  $$$849B,7
  33474  00004292  00000001 USING  ORDINARY    00000000 00001000 FFFFFFDF   6 026   33530  VNENTRY,R6
  33549  000042B6  00000001 USING  ORDINARY    00000000 00001000 FFFFFFF8   6 000          @R6,6
  33562  000042BC  00000001 USING  ORDINARY    00000000 00001000 FFFFFFF7   7 000          @R7,7
  33612  000042E4  00000001 USING  ORDINARY    000042E4 00001000 00000001   7 464   33657  $$$855B,7
  33632  000042E4  00000001 USING  ORDINARY    00000000 00001000 FFFFFFDF   6 024   33654  VNENTRY,R6
  33665  00004300  00000001 USING  ORDINARY    00000000 00001000 FFFFFFF8   6 000          @R6,6
  33673  00004300  00000001 USING  ORDINARY    00000000 00001000 FFFFFFF7   7 000          @R7,7
  33724  00004328  00000001 USING  ORDINARY    00004328 00001000 00000001   7 448   33793  $$$858B,7
  33744  00004328  00000001 USING  ORDINARY    00000000 00001000 FFFFFFDF   6 026   33800  VNENTRY,R6
  33819  0000434C  00000001 USING  ORDINARY    00000000 00001000 FFFFFFF8   6 000          @R6,6
  33827  0000434C  00000001 USING  ORDINARY    00000000 00001000 FFFFFFF7   7 000          @R7,7
1SYSV     (SYSV4072) (12:56) (15MAR04) Using Map                                                                            Page  242
  33878  00004374  00000001 USING  ORDINARY    00004374 00001000 00000001   7 402   33978  $$$864B,7
  33898  00004374  00000001 USING  ORDINARY    00000000 00001000 FFFFFFDF   6 026   33954  VNENTRY,R6
  33973  00004398  00000001 USING  ORDINARY    00000000 00001000 FFFFFFF8   6 000          @R6,6
  33986  0000439E  00000001 USING  ORDINARY    00000000 00001000 FFFFFFF7   7 000          @R7,7
  34058  000043C6  00000001 USING  ORDINARY    000043C6 00001000 00000001   7 3B6   34151  $$$870B,7
  34072  000043C6  00000001 USING  ORDINARY    FFFFFFD8 00001000 FFFFFFD8   8 028   34085  FNIDLWA-(4+36),R8
  34106  000043D8  00000001 USING  ORDINARY    00000000 00001000 FFFFFFDF   6 026   34158  VNENTRY,R6
  34177  000043F4  00000001 USING  ORDINARY    00000000 00001000 FFFFFFF8   6 000          @R6,6
  34185  000043F4  00000001 USING  ORDINARY    00000000 00001000 FFFFFFF6   8 000          @R8,8
  34190  000043F4  00000001 USING  ORDINARY    00000000 00001000 FFFFFFF7   7 000          @R7,7
  34239  0000441C  00000001 USING  ORDINARY    0000441C 00001000 00000001   7 32C   34284  $$$876B,7
  34259  0000441C  00000001 USING  ORDINARY    00000000 00001000 FFFFFFDF   6 024   34281  VNENTRY,R6
  34292  00004438  00000001 USING  ORDINARY    00000000 00001000 FFFFFFF8   6 000          @R6,6
  34300  00004438  00000001 USING  ORDINARY    00000000 00001000 FFFFFFF7   7 000          @R7,7
  34349  00004460  00000001 USING  ORDINARY    00004460 00001000 00000001   7 2E8   34394  $$$879B,7
  34369  00004460  00000001 USING  ORDINARY    00000000 00001000 FFFFFFDF   6 024   34391  VNENTRY,R6
  34402  0000447C  00000001 USING  ORDINARY    00000000 00001000 FFFFFFF8   6 000          @R6,6
  34410  0000447C  00000001 USING  ORDINARY    00000000 00001000 FFFFFFF7   7 000          @R7,7
  34459  000044A4  00000001 USING  ORDINARY    000044A4 00001000 00000001   7 2AC   34505  $$$882B,7
  34479  000044A4  00000001 USING  ORDINARY    00000000 00001000 FFFFFFDF   6 024   34502  VNENTRY,R6
  34513  000044C0  00000001 USING  ORDINARY    00000000 00001000 FFFFFFF8   6 000          @R6,6
  34521  000044C0  00000001 USING  ORDINARY    00000000 00001000 FFFFFFF7   7 000          @R7,7
  34570  000044E8  00000001 USING  ORDINARY    000044E8 00001000 00000001   7 260   34615  $$$885B,7
  34590  000044E8  00000001 USING  ORDINARY    00000000 00001000 FFFFFFDF   6 024   34612  VNENTRY,R6
  34623  00004504  00000001 USING  ORDINARY    00000000 00001000 FFFFFFF8   6 000          @R6,6
  34631  00004504  00000001 USING  ORDINARY    00000000 00001000 FFFFFFF7   7 000          @R7,7
  34679  0000452C  00000001 USING  ORDINARY    0000452C 00001000 00000001   7 21C   34724  $$$888B,7
  34699  0000452C  00000001 USING  ORDINARY    00000000 00001000 FFFFFFDF   6 024   34721  VNENTRY,R6
  34732  00004548  00000001 USING  ORDINARY    00000000 00001000 FFFFFFF8   6 000          @R6,6
  34740  00004548  00000001 USING  ORDINARY    00000000 00001000 FFFFFFF7   7 000          @R7,7
  34788  00004570  00000001 USING  ORDINARY    00004570 00001000 00000001   7 1D8   34833  $$$891B,7
  34808  00004570  00000001 USING  ORDINARY    00000000 00001000 FFFFFFDF   6 024   34830  VNENTRY,R6
  34841  0000458C  00000001 USING  ORDINARY    00000000 00001000 FFFFFFF8   6 000          @R6,6
  34849  0000458C  00000001 USING  ORDINARY    00000000 00001000 FFFFFFF7   7 000          @R7,7
  34921  000045B4  00000001 USING  ORDINARY    000045B4 00001000 00000001   7 1CE   35146  $$$894B,7
  34935  000045B4  00000001 USING  ORDINARY    FFFFFFD8 00001000 FFFFFFD7   8 028   35020  FNVJWA-(4+36),R8
  35070  000045E6  00000001 USING  ORDINARY    00000000 00001000 FFFFFFDF   6 026   35122  VNENTRY,R6
  35141  00004602  00000001 USING  ORDINARY    00000000 00001000 FFFFFFF8   6 000          @R6,6
  35154  00004608  00000001 USING  ORDINARY    00000000 00001000 FFFFFFF6   8 000          @R8,8
  35159  00004608  00000001 USING  ORDINARY    00000000 00001000 FFFFFFF7   7 000          @R7,7
  35231  00004630  00000001 USING  ORDINARY    00004630 00001000 00000001   7 158   35456  $$$904B,7
  35245  00004630  00000001 USING  ORDINARY    FFFFFFD8 00001000 FFFFFFD6   8 028   35330  FNVJNWA-(4+36),R8
  35380  00004662  00000001 USING  ORDINARY    00000000 00001000 FFFFFFDF   6 026   35432  VNENTRY,R6
  35451  0000467E  00000001 USING  ORDINARY    00000000 00001000 FFFFFFF8   6 000          @R6,6
  35464  00004684  00000001 USING  ORDINARY    00000000 00001000 FFFFFFF6   8 000          @R8,8
  35469  00004684  00000001 USING  ORDINARY    00000000 00001000 FFFFFFF7   7 000          @R7,7
  35518  000046AC  00000001 USING  ORDINARY    000046AC 00001000 00000001   7 0A8   35627  $$$914B,7
  35554  000046B6  00000001 USING  ORDINARY    00000000 00001000 FFFFFFDF   6 024   35572  VNENTRY,R6
  35580  000046C8  00000001 USING  ORDINARY    00000000 00001000 FFFFFFF8   6 000          @R6,6
  35609  000046CC  00000001 USING  ORDINARY    00000000 00001000 FFFFFFDF   6 024   35627  VNENTRY,R6
  35635  000046DE  00000001 USING  ORDINARY    00000000 00001000 FFFFFFF8   6 000          @R6,6
  35647  000046DE  00000001 USING  ORDINARY    00000000 00001000 FFFFFFF7   7 000          @R7,7
  35722  000047A8  00000001 USING  ORDINARY    000047A8 00001000 00000001   7 218   35822  $$$919B,7
  35742  000047A8  00000001 USING  ORDINARY    00000000 00001000 FFFFFFDF   6 026   35798  VNENTRY,R6
  35817  000047CC  00000001 USING  ORDINARY    00000000 00001000 FFFFFFF8   6 000          @R6,6
  35830  000047D2  00000001 USING  ORDINARY    00000000 00001000 FFFFFFF7   7 000          @R7,7
  35879  000047FA  00000001 USING  ORDINARY    000047FA 00001000 00000001   7 1AA   35988  $$$925B,7
  35915  00004804  00000001 USING  ORDINARY    00000000 00001000 FFFFFFDF   6 024   35933  VNENTRY,R6
  35941  00004816  00000001 USING  ORDINARY    00000000 00001000 FFFFFFF8   6 000          @R6,6
1SYSV     (SYSV4072) (12:56) (15MAR04) Using Map                                                                            Page  243
  35970  0000481A  00000001 USING  ORDINARY    00000000 00001000 FFFFFFDF   6 024   35988  VNENTRY,R6
  35996  0000482C  00000001 USING  ORDINARY    00000000 00001000 FFFFFFF8   6 000          @R6,6
  36008  0000482C  00000001 USING  ORDINARY    00000000 00001000 FFFFFFF7   7 000          @R7,7
  36059  00004854  00000001 USING  ORDINARY    00004854 00001000 00000001   7 15C   36104  $$$930B,7
  36079  00004854  00000001 USING  ORDINARY    00000000 00001000 FFFFFFDF   6 024   36101  VNENTRY,R6
  36112  00004870  00000001 USING  ORDINARY    00000000 00001000 FFFFFFF8   6 000          @R6,6
  36120  00004870  00000001 USING  ORDINARY    00000000 00001000 FFFFFFF7   7 000          @R7,7
  36171  00004898  00000001 USING  ORDINARY    00004898 00001000 00000001   7 12E   36306  $$$933B,7
  36230  000048AC  00000001 USING  ORDINARY    00000000 00001000 FFFFFFDF   6 026   36282  VNENTRY,R6
  36301  000048C8  00000001 USING  ORDINARY    00000000 00001000 FFFFFFF8   6 000          @R6,6
  36314  000048CE  00000001 USING  ORDINARY    00000000 00001000 FFFFFFF7   7 000          @R7,7
  36367  000048F6  00000001 USING  ORDINARY    000048F6 00001000 00000001   7 0D6   36487  $$$940B,7
  36442  0000491E  00000001 USING  ORDINARY    00000000 00001000 FFFFFFDF   6 026   36494  VNENTRY,R6
  36513  0000493A  00000001 USING  ORDINARY    00000000 00001000 FFFFFFF8   6 000          @R6,6
  36521  0000493A  00000001 USING  ORDINARY    00000000 00001000 FFFFFFF7   7 000          @R7,7
  36573  00004962  00000001 USING  ORDINARY    00004962 00001000 00000001   7 04E   36618  $$$948B,7
  36593  00004962  00000001 USING  ORDINARY    00000000 00001000 FFFFFFDF   6 024   36615  VNENTRY,R6
  36626  0000497E  00000001 USING  ORDINARY    00000000 00001000 FFFFFFF8   6 000          @R6,6
  36634  0000497E  00000001 USING  ORDINARY    00000000 00001000 FFFFFFF7   7 000          @R7,7
  36705  000049EC  00000001 USING  ORDINARY    000049EC 00001000 00000001   7 34C   36805  $$$951B,7
  36725  000049EC  00000001 USING  ORDINARY    00000000 00001000 FFFFFFDF   6 026   36781  VNENTRY,R6
  36800  00004A10  00000001 USING  ORDINARY    00000000 00001000 FFFFFFF8   6 000          @R6,6
  36813  00004A16  00000001 USING  ORDINARY    00000000 00001000 FFFFFFF7   7 000          @R7,7
  36864  00004A3E  00000001 USING  ORDINARY    00004A3E 00001000 00000001   7 300   36964  $$$957B,7
  36884  00004A3E  00000001 USING  ORDINARY    00000000 00001000 FFFFFFDF   6 026   36940  VNENTRY,R6
  36959  00004A62  00000001 USING  ORDINARY    00000000 00001000 FFFFFFF8   6 000          @R6,6
  36972  00004A68  00000001 USING  ORDINARY    00000000 00001000 FFFFFFF7   7 000          @R7,7
  37021  00004A90  00000001 USING  ORDINARY    00004A90 00001000 00000001   7 278   37072  $$$963B,7
  37046  00004A9A  00000001 USING  ORDINARY    00000000 00001000 FFFFFFDF   6 024   37069  VNENTRY,R6
  37080  00004AB4  00000001 USING  ORDINARY    00000000 00001000 FFFFFFF8   6 000          @R6,6
  37088  00004AB4  00000001 USING  ORDINARY    00000000 00001000 FFFFFFF7   7 000          @R7,7
  37137  00004ADC  00000001 USING  ORDINARY    00004ADC 00001000 00000001   7 230   37188  $$$966B,7
  37162  00004AE6  00000001 USING  ORDINARY    00000000 00001000 FFFFFFDF   6 024   37185  VNENTRY,R6
  37196  00004B00  00000001 USING  ORDINARY    00000000 00001000 FFFFFFF8   6 000          @R6,6
  37204  00004B00  00000001 USING  ORDINARY    00000000 00001000 FFFFFFF7   7 000          @R7,7
  37259  00004B28  00000001 USING  ORDINARY    00004B28 00001000 00000001   7 20C   37318  $$$969B,7
  37277  00004B28  00000001 USING  ORDINARY    00000000 00001000 FFFFFFDF   6 029   37321  VNENTRY,R6
  37332  00004B58  00000001 USING  ORDINARY    00000000 00001000 FFFFFFF8   6 000          @R6,6
  37337  00004B58  00000001 USING  ORDINARY    00000000 00001000 FFFFFFF7   7 000          @R7,7
  37389  00004B80  00000001 USING  ORDINARY    00004B80 00001000 00000001   7 19C   37496  $$$973B,7
  37424  00004B88  00000001 USING  ORDINARY    00000000 00001000 FFFFFFDF   6 024   37442  VNENTRY,R6
  37450  00004B9A  00000001 USING  ORDINARY    00000000 00001000 FFFFFFF8   6 000          @R6,6
  37478  00004B9E  00000001 USING  ORDINARY    00000000 00001000 FFFFFFDF   6 024   37496  VNENTRY,R6
  37504  00004BB0  00000001 USING  ORDINARY    00000000 00001000 FFFFFFF8   6 000          @R6,6
  37516  00004BB0  00000001 USING  ORDINARY    00000000 00001000 FFFFFFF7   7 000          @R7,7
  37567  00004BD8  00000001 USING  ORDINARY    00004BD8 00001000 00000001   7 16C   37687  $$$978B,7
  37642  00004BF2  00000001 USING  ORDINARY    00000000 00001000 FFFFFFDF   6 026   37694  VNENTRY,R6
  37713  00004C0E  00000001 USING  ORDINARY    00000000 00001000 FFFFFFF8   6 000          @R6,6
  37721  00004C0E  00000001 USING  ORDINARY    00000000 00001000 FFFFFFF7   7 000          @R7,7
  37773  00004C36  00000001 USING  ORDINARY    00004C36 00001000 00000001   7 114   37880  $$$986B,7
  37806  00004C52  00000001 USING  ORDINARY    00000000 00001000 FFFFFFDF   6 026   37858  VNENTRY,R6
  37877  00004C6E  00000001 USING  ORDINARY    00000000 00001000 FFFFFFF8   6 000          @R6,6
  37887  00004C72  00000001 USING  ORDINARY    00000000 00001000 FFFFFFF7   7 000          @R7,7
  37939  00004C9A  00000001 USING  ORDINARY    00004C9A 00001000 00000001   7 0B6   38044  $$$992B,7
  37970  00004CAC  00000001 USING  ORDINARY    00000000 00001000 FFFFFFDF   6 026   38022  VNENTRY,R6
  38041  00004CC8  00000001 USING  ORDINARY    00000000 00001000 FFFFFFF8   6 000          @R6,6
  38051  00004CCC  00000001 USING  ORDINARY    00000000 00001000 FFFFFFF7   7 000          @R7,7
  38128  00004D70  00000001 USING  ORDINARY    00004D70 00001000 00000001   7 0EC   38235  $$$998B,7
  38163  00004D78  00000001 USING  ORDINARY    00000000 00001000 FFFFFFDF   6 024   38181  VNENTRY,R6
1SYSV     (SYSV4072) (12:56) (15MAR04) Using Map                                                                            Page  244
  38189  00004D8A  00000001 USING  ORDINARY    00000000 00001000 FFFFFFF8   6 000          @R6,6
  38217  00004D8E  00000001 USING  ORDINARY    00000000 00001000 FFFFFFDF   6 024   38235  VNENTRY,R6
  38243  00004DA0  00000001 USING  ORDINARY    00000000 00001000 FFFFFFF8   6 000          @R6,6
  38255  00004DA0  00000001 USING  ORDINARY    00000000 00001000 FFFFFFF7   7 000          @R7,7
  38306  00004DC8  00000001 USING  ORDINARY    00004DC8 00001000 00000001   7 0A0   38365  $$$1003B,7
  38325  00004DCC  00000001 USING  ORDINARY    00000000 00001000 FFFFFFE4   5 048   38360  JCB,R5
  38340  00004DCC  00000001 USING  ORDINARY    00000000 00001000 FFFFFFDF   6 024   38362  VNENTRY,R6
  38373  00004DE8  00000001 USING  ORDINARY    00000000 00001000 FFFFFFF8   6 000          @R6,6
  38381  00004DE8  00000001 USING  ORDINARY    00000000 00001000 FFFFFFF9   5 000          @R5,5
  38386  00004DE8  00000001 USING  ORDINARY    00000000 00001000 FFFFFFF7   7 000          @R7,7
  38438  00004E10  00000001 USING  ORDINARY    00004E10 00001000 00000001   7 04C   38545  $$$1006B,7
  38473  00004E18  00000001 USING  ORDINARY    00000000 00001000 FFFFFFDF   6 024   38491  VNENTRY,R6
  38499  00004E2A  00000001 USING  ORDINARY    00000000 00001000 FFFFFFF8   6 000          @R6,6
  38527  00004E2E  00000001 USING  ORDINARY    00000000 00001000 FFFFFFDF   6 024   38545  VNENTRY,R6
  38553  00004E40  00000001 USING  ORDINARY    00000000 00001000 FFFFFFF8   6 000          @R6,6
  38565  00004E40  00000001 USING  ORDINARY    00000000 00001000 FFFFFFF7   7 000          @R7,7

1         (SYSV4072) (12:56) (15MAR04) General Purpose Register Cross Reference                                             Page  245
- Register  References (M=modified, B=branch, U=USING, D=DROP, N=index)                      HLASM R4.0  2004/03/15 12.56
0    0(0)      982U   983D  2265   2333M  2333   2334M  9398   9426M  9434M  9462M  9501   9528   9532M  9632M  9664
              9708M 10689  10720M 10749M 10776  10879M 10906  10993M 11020  11088M 11089  11090  11153M 11180  11267M
             11294  11362M 11363  11364  11427M 11454  11606M 11634  11687M 11728M 11774  11775  11838M 11866  11919M
             11940M 11940  11965M 11965  12014  12015  12078M 12130  12198M 12199  12200  12263M 12290  12320M 12320
             12374M 12426  12427  12490M 12517  12547M 12547  12624M 12626M 12674  12675  12738M 12765  12794M 12814M
             12858  12859  12917M 12944  12973M 12993M 13037  13038  13096M 13123  13210M 13237  13324M 13351  13438M
             13465  13532M 13533  13534  13592M 13619  13706M 13733  13820M 13847  13886M 13926  13927  13987M 14015
             14091  14092  14152M 14179  14255  14256  14316M 14370  14457M 14484  14552M 14553  14554  14617M 14659
             14730M 14757  14786M 14806M 14850  14851  14909M 14952  14982  15043M 15070  15222M 15250  15303M 15344M
             15390  15391  15459M 15508  15561M 15582M 15582  15607M 15607  15656  15657  15720M 15748  15801M 15822M
             15822  15847M 15847  15896  15897  15960M 15987  16055M 16056  16057  16120M 16145  16247M 16272  16348M
             16349  16350  16413M 16440  16519M 16546  16655M 16682  16713M 16733M 16757M 16802  16803  16861M 16996
             17048M 17089M 17089  17106M 17132M 17132  17149M 17175M 17175  17192M 17218M 17218  17242M 17282  17283
             17345M 17345  17389  17390  17457M 17486  17565M 17590  17744M 17771  17839M 17840  17841  17904M 17930
             17959M 17959  17988M 18033  18034  18097M 18124  18153M 18153  18182M 18227  18228  18291M 18317  18385M
             18386  18387  18450M 18475  18543M 18544  18545  18608M 18635  18664M 18684M 18708M 18732M 18756M 18780M
             18804M 18827M 18847M 18875M 18919  18920  18978M 19005  19092M 19119  19205M 19206  19207  19324M 19325
             19326  19417M 19418  19419  19481M 19507  19575M 19576  19577  19635M 19661  19747M 19773  19812M 19833M
             19833  19877  19878  19941M 19968  20036M 20037  20038  20096M 20124  20173M 20194M 20238  20239  20302M
             20371  20439M 20440  20441  20499M 20526  20594M 20595  20596  20659M 20685  20772M 20798  20907M 20933
             21019M 21045  21113M 21114  21115  21178M 21205  21292M 21319  21387M 21388  21389  21452M 21478  21507M
             21530M 21565M 21600M 21635M 21670M 21690M 21734  21735  21793M 21820  21888M 21889  21890  21953M 21979
             22043M 22043  22044  22045  22121M 22142M 22213M 22218  22266M 22292  22356M 22356  22357  22358  22434M
             22455M 22526M 22531  22579M 22818M 22835M 22878M 22895M 22938M 22955M 22998M 23015M 23058M 23075M 23118M
             23135M 23178M 23195M 23225M 23271  23312M 23357  23358  23416M 23445  23484M 23504M 23548  23549  23612M
             23680  23748M 23749  23750  23813M 23839  23940M 24056M 24082  24183M 24301M 24327  24354M 24361  24491M
             24515  24583M 24584  24585  24648M 24672  24740M 24741  24742  24805M 24829  24998M 25022  25061M 25190M
             25214  25306M 25330  25422M 25448  25551M 25579  25615M 25636M 25636  25680  25681  25744M 25771  25842M
             25874  25915M 25960  25961  26019M 26046  26083M 26116  26196M 26223  26375M 26402  26554M 26581  26733M
             26760  26912M 26939  26978M 27015M 27015  27059  27060  27123M 27149  27217M 27218  27219  27282M 27315
             27383M 27384  27385  27448M 27475  27554  27555  27618M 27645  27737M 27765  27814M 27835M 27835  27879
             27880  27943M 27970  28000M 28000  28010M 28011M 28044  28073M 28101  28150M 28171M 28171  28215  28216
             28279M 28344  28431M 28455  28541M 28565  28604M 28625M 28625  28669  28670  28733M 28757  28796M 28817M
             28817  28861  28862  28925M 28949  28988M 29009M 29009  29053  29054  29117M 29141  29180M 29201M 29201
             29245  29246  29309M 29333  29487M 29536  29631M 29657  29743M 29763M 29789M 29789  29833  29834  29907M
             29933  30001M 30002  30003  30066M 30092  30160M 30161  30162  30220M 30247  30291M 30318  30348M 30384M
             30406M 30464  30465  30523M 30549  30588M 30609M 30609  30653  30654  30717M 30743  30811M 30812  30813
             30876M 30902  30970M 30971  30972  31035M 31060  31146M 31172  31248  31249  31309M 31335  31369M 31402
             31431M 31455  31484M 31574M 31600M 31626M 31652M 31678M 31740  31741  31800M 31827  31856M 31876M 31920
             31921  31979M 32006  32158M 32186  32265M 32333  32485M 32512  32664M 32692  32745M 32773M 32773  32779M
             32802M 32848  32849  32917M 32945  33012M 33033M 33033  33058M 33058  33107  33108  33171M 33199  33252M
             33273M 33273  33298M 33298  33347  33348  33411M 33437  33505M 33506  33507  33570M 33595  33681M 33707
             33775M 33776  33777  33835M 33861  33929M 33930  33931  33994M 34040  34090M 34134  34135  34198M 34222
             34308M 34332  34418M 34442  34529M 34553  34639M 34662  34748M 34771  34857M 34903  34958M 34958  34984M
             35027M 35047M 35047  35098  35099  35167M 35213  35268M 35268  35294M 35337M 35357M 35357  35408  35409
             35477M 35501  35655M 35705  35773M 35774  35775  35838M 35862  36016M 36042  36128M 36154  36193M 36214M
             36214  36258  36259  36322M 36350  36381M 36401M 36425M 36470  36471  36529M 36556  36642M 36688  36756M
             36757  36758  36821M 36847  36915M 36916  36917  36980M 37004  37096M 37120  37212M 37242  37345M 37372
             37524M 37550  37598M 37598  37625M 37670  37671  37729M 37756  37794M 37834  37835  37895M 37922  37998
             37999  38059M 38111  38263M 38289  38394M 38421  38573M
     1(1)      978U  2265   2328M  2329M  2335M  9398   9431   9436M  9439M  9442   9462M  9501   9529   9534M  9556
              9583M  9617   9632M  9664   9708M 10689  10719M 10749M 10776  10879M 10906  10964M 10965  10993M 11020
             11083M 11153M 11180  11238M 11239  11267M 11294  11357M 11427M 11454  11606M 11634  11688M 11729M 11838M
             11866  11920M 11969M 11969  12078M 12130  12193M 12263M 12290  12316M 12338  12490M 12517  12543M 12565
             12623M 12738M 12765  12793M 12813M 12917M 12944  12972M 12992M 13096M 13123  13181M 13182  13210M 13237
1         (SYSV4072) (12:56) (15MAR04) General Purpose Register Cross Reference                                             Page  246
             13295M 13296  13324M 13351  13409M 13410  13438M 13465  13528M 13592M 13619  13677M 13678  13706M 13733
             13791M 13792  13820M 13847  13884  13884  13885  13885  13987M 14015  14152M 14179  14316M 14370  14428M
             14429  14457M 14484  14547M 14617M 14659  14730M 14757  14785M 14805M 14909M 14952  14982M 15015  15043M
             15070  15222M 15250  15304M 15345M 15459M 15508  15562M 15611M 15611  15720M 15748  15802M 15851M 15851
             15960M 15987  16050M 16120M 16145  16213M 16214  16247M 16272  16343M 16413M 16440  16519M 16546  16572M
             16590M 16627  16655M 16682  16712M 16732M 16756M 16861M 16996  17041M 17081D 17083M 17083  17084M 17085U
             17105M 17124D 17126M 17126  17127M 17128U 17148M 17167D 17169M 17169  17170M 17171U 17191M 17210D 17212M
             17212  17213M 17214U 17237M 17349M 17349  17457M 17486  17565M 17590  17744M 17771  17834M 17904M 17930
             17983M 18097M 18124  18177M 18291M 18317  18380M 18450M 18475  18538M 18608M 18635  18663M 18683M 18707M
             18731M 18755M 18779M 18803M 18826M 18846M 18874M 18978M 19005  19063M 19064  19092M 19119  19200M 19319M
             19416M 19481M 19507  19570M 19635M 19661  19718M 19719  19747M 19773  19807M 19941M 19968  20031M 20096M
             20124  20168M 20193M 20302M 20371  20434M 20499M 20526  20589M 20659M 20685  20743M 20744  20772M 20798
             20824M 20842M 20879  20907M 20933  20990M 20991  21019M 21045  21108M 21178M 21205  21263M 21264  21292M
             21319  21382M 21452M 21478  21506M 21529M 21564M 21599M 21634M 21669M 21689M 21793M 21820  21883M 21953M
             21979  22120M 22141M 22206M 22266M 22292  22433M 22454M 22519M 22579M 22813M 22834M 22873M 22894M 22933M
             22954M 22993M 23014M 23053M 23074M 23113M 23134M 23173M 23194M 23220M 23271  23307M 23416M 23445  23479M
             23503M 23612M 23680  23743M 23813M 23839  23939M 24056M 24082  24182M 24301M 24327  24353M 24362M 24407M
             24408  24458M 24459  24491M 24515  24578M 24648M 24672  24735M 24805M 24829  24998M 25022  25056M 25190M
             25214  25277M 25278  25306M 25330  25393M 25394  25422M 25448  25551M 25579  25616M 25744M 25771  25842M
             25874  25910M 26019M 26046  26116M 26117  26167M 26168  26196M 26223  26375M 26402  26554M 26581  26733M
             26760  26912M 26939  26973M 27123M 27149  27212M 27282M 27315  27378M 27448M 27475  27618M 27645  27708M
             27709  27737M 27765  27809M 27943M 27970  28004D 28006M 28006  28007M 28008U 28009M 28010M 28011M 28044M
             28045  28073M 28101  28145M 28279M 28344  28402M 28403  28431M 28455  28512M 28513  28541M 28565  28599M
             28733M 28757  28791M 28925M 28949  28983M 29117M 29141  29175M 29309M 29333  29487M 29536  29602M 29603
             29631M 29657  29738M 29762M 29907M 29933  29996M 30066M 30092  30155M 30220M 30247  30291M 30318  30347M
             30383M 30405M 30523M 30549  30583M 30717M 30743  30806M 30876M 30902  30965M 31035M 31060  31117M 31118
             31146M 31172  31309M 31335  31402M 31403  31431M 31455  31483M 31573M 31599M 31625M 31651M 31677M 31800M
             31827  31855M 31875M 31979M 32006  32158M 32186  32265M 32333  32485M 32512  32664M 32692  32746M 32780M
             32803M 32917M 32945  33013M 33062M 33062  33171M 33199  33253M 33302M 33302  33411M 33437  33500M 33570M
             33595  33652M 33653  33681M 33707  33770M 33835M 33861  33924M 33994M 34040  34085M 34198M 34222  34279M
             34280  34308M 34332  34389M 34390  34418M 34442  34500M 34501  34529M 34553  34610M 34611  34639M 34662
             34719M 34720  34748M 34771  34828M 34829  34857M 34903  34960M 34960  34991M 35020M 35049M 35049  35167M
             35213  35270M 35270  35301M 35330M 35359M 35359  35477M 35501  35655M 35705  35768M 35838M 35862  36016M
             36042  36099M 36100  36128M 36154  36188M 36322M 36350  36380M 36400M 36424M 36529M 36556  36613M 36614
             36642M 36688  36751M 36821M 36847  36910M 36980M 37004  37067M 37068  37096M 37120  37183M 37184  37212M
             37242  37345M 37372  37524M 37550  37596M 37596  37621M 37729M 37756  37793  37793  37895M 37922  38059M
             38111  38263M 38289  38360M 38361  38394M 38421  38573M
     2(2)      974U  2265   9398   9438M  9439   9440M  9462M  9501   9535M  9632M  9664   9708M 10689  10749M 10776
             10879M 10906  10966M 10993M 11020  11153M 11180  11240M 11267M 11294  11427M 11454  11606M 11634  11689M
             11838M 11866  11921M 12078M 12130  12263M 12290  12337M 12351M 12351  12371M 12490M 12517  12564M 12578M
             12578  12598M 12617  12624  12738M 12765  12917M 12944  13096M 13123  13183M 13210M 13237  13297M 13324M
             13351  13411M 13438M 13465  13592M 13619  13679M 13706M 13733  13793M 13820M 13847  13987M 14015  14152M
             14179  14316M 14370  14430M 14457M 14484  14617M 14659  14730M 14757  14909M 14952  15016M 15043M 15070
             15222M 15250  15305M 15459M 15508  15563M 15720M 15748  15803M 15960M 15987  16120M 16145  16215M 16247M
             16272  16413M 16440  16519M 16546  16628M 16655M 16682  16861M 16996  17457M 17486  17565M 17590  17744M
             17771  17904M 17930  18097M 18124  18291M 18317  18450M 18475  18608M 18635  18978M 19005  19065M 19092M
             19119  19481M 19507  19635M 19661  19720M 19747M 19773  19941M 19968  20096M 20124  20174M 20302M 20371
             20499M 20526  20659M 20685  20745M 20772M 20798  20880M 20907M 20933  20992M 21019M 21045  21178M 21205
             21265M 21292M 21319  21452M 21478  21793M 21820  21953M 21979  22266M 22292  22579M 22718  22769M 22769
             22818  22848M 22878  22908M 22938  22968M 22998  23028M 23058  23088M 23118  23148M 23178  23208M 23245M
             23271  23416M 23445  23612M 23680  23813M 23839  24056M 24082  24301M 24327  24409M 24460M 24491M 24515
             24648M 24672  24805M 24829  24998M 25022  25190M 25214  25279M 25306M 25330  25395M 25422M 25448  25551M
             25579  25617M 25744M 25771  25842M 25874  26019M 26046  26118M 26169M 26196M 26223  26375M 26402  26554M
             26581  26733M 26760  26912M 26939  27123M 27149  27282M 27315  27448M 27475  27618M 27645  27710M 27737M
             27765  27815M 27943M 27970  28046M 28073M 28101  28151M 28279M 28344  28404M 28431M 28455  28514M 28541M
             28565  28733M 28757  28925M 28949  29117M 29141  29309M 29333  29487M 29536  29604M 29631M 29657  29697M
             29707U 29889U 29907M 29933  30066M 30092  30220M 30247  30291M 30318  30350M 30360U 30421U 30523M 30549
             30717M 30743  30876M 30902  31035M 31060  31119M 31146M 31172  31309M 31335  31404M 31431M 31455  31486M
             31496U 31698U 31800M 31827  31979M 32006  32158M 32186  32265M 32333  32485M 32512  32664M 32692  32747M
1         (SYSV4072) (12:56) (15MAR04) General Purpose Register Cross Reference                                             Page  247
             32917M 32945  33014M 33171M 33199  33254M 33411M 33437  33570M 33595  33654M 33681M 33707  33835M 33861
             33994M 34040  34198M 34222  34281M 34308M 34332  34391M 34418M 34442  34502M 34529M 34553  34612M 34639M
             34662  34721M 34748M 34771  34830M 34857M 34903  35167M 35213  35477M 35501  35655M 35705  35838M 35862
             36016M 36042  36101M 36128M 36154  36322M 36350  36529M 36556  36615M 36642M 36688  36821M 36847  36980M
             37004  37069M 37096M 37120  37185M 37212M 37242  37345M 37372  37524M 37550  37579M 37580M 37580  37729M
             37756  37895M 37922  38059M 38111  38263M 38289  38362M 38394M 38421  38573M
     3(3)      970U  2265   9398   9441M  9462M  9501   9632M  9664   9708M 10689  10749M 10776  10879M 10906  10993M
             11020  11090M 11104M 11106  11153M 11180  11267M 11294  11364M 11378M 11380  11427M 11454  11606M 11634
             11775M 11789M 11791  11838M 11866  12015M 12029M 12031  12078M 12130  12200M 12214M 12216  12263M 12290
             12338M 12377M 12427M 12441M 12443  12490M 12517  12565M 12601M 12623  12675M 12689M 12691  12738M 12765
             12859M 12873M 12875  12917M 12944  13038M 13052M 13054  13096M 13123  13210M 13237  13324M 13351  13438M
             13465  13534M 13548M 13550  13592M 13619  13706M 13733  13820M 13847  13927M 13941M 13943  13987M 14015
             14092M 14106M 14108  14152M 14179  14256M 14270M 14272  14316M 14370  14457M 14484  14554M 14568M 14570
             14617M 14659  14730M 14757  14851M 14865M 14867  14909M 14952  15043M 15070  15222M 15250  15391M 15405M
             15407  15459M 15508  15657M 15671M 15673  15720M 15748  15897M 15911M 15913  15960M 15987  16057M 16071M
             16073  16120M 16145  16247M 16272  16350M 16364M 16366  16413M 16440  16519M 16546  16655M 16682  16803M
             16817M 16819  16861M 16996  17283M 17297M 17299  17390M 17404M 17406  17457M 17486  17565M 17590  17744M
             17771  17841M 17855M 17857  17904M 17930  18034M 18048M 18050  18097M 18124  18228M 18242M 18244  18291M
             18317  18387M 18401M 18403  18450M 18475  18545M 18559M 18561  18608M 18635  18920M 18934M 18936  18978M
             19005  19092M 19119  19207M 19221M 19223  19326M 19340M 19342  19419M 19433M 19435  19481M 19507  19577M
             19591M 19593  19635M 19661  19747M 19773  19878M 19892M 19894  19941M 19968  20038M 20052M 20054  20096M
             20124  20239M 20253M 20255  20302M 20371  20441M 20455M 20457  20499M 20526  20596M 20610M 20612  20659M
             20685  20772M 20798  20907M 20933  21019M 21045  21115M 21129M 21131  21178M 21205  21292M 21319  21389M
             21403M 21405  21452M 21478  21735M 21749M 21751  21793M 21820  21890M 21904M 21906  21953M 21979  22045M
             22059M 22061  22266M 22292  22358M 22372M 22374  22579M 22718  23245M 23271  23358M 23372M 23374  23416M
             23445  23549M 23563M 23565  23612M 23680  23750M 23764M 23766  23813M 23839  24056M 24082  24301M 24327
             24491M 24515  24585M 24599M 24601  24648M 24672  24742M 24756M 24758  24805M 24829  24998M 25022  25190M
             25214  25306M 25330  25422M 25448  25551M 25579  25681M 25695M 25697  25744M 25771  25842M 25874  25961M
             25975M 25977  26019M 26046  26196M 26223  26375M 26402  26554M 26581  26733M 26760  26912M 26939  27060M
             27074M 27076  27123M 27149  27219M 27233M 27235  27282M 27315  27385M 27399M 27401  27448M 27475  27555M
             27569M 27571  27618M 27645  27737M 27765  27880M 27894M 27896  27943M 27970  28073M 28101  28216M 28230M
             28232  28279M 28344  28431M 28455  28541M 28565  28670M 28684M 28686  28733M 28757  28862M 28876M 28878
             28925M 28949  29054M 29068M 29070  29117M 29141  29246M 29260M 29262  29309M 29333  29487M 29536  29565D
             29567M 29567  29568M 29569U 29602  29631M 29657  29683M 29693U 29834M 29848M 29850  29894U 29907M 29933
             30003M 30017M 30019  30066M 30092  30162M 30176M 30178  30220M 30247  30291M 30318  30465M 30479M 30481
             30523M 30549  30654M 30668M 30670  30717M 30743  30813M 30827M 30829  30876M 30902  30972M 30986M 30988
             31035M 31060  31146M 31172  31249M 31263M 31265  31309M 31335  31431M 31455  31503M 31504M 31504  31525U
             31688U 31741M 31755M 31757  31800M 31827  31921M 31935M 31937  31979M 32006  32158M 32186  32265M 32333
             32485M 32512  32664M 32692  32849M 32863M 32865  32917M 32945  33108M 33122M 33124  33171M 33199  33348M
             33362M 33364  33411M 33437  33507M 33521M 33523  33570M 33595  33681M 33707  33777M 33791M 33793  33835M
             33861  33931M 33945M 33947  33994M 34040  34135M 34149M 34151  34198M 34222  34308M 34332  34418M 34442
             34529M 34553  34639M 34662  34748M 34771  34857M 34903  35099M 35113M 35115  35167M 35213  35409M 35423M
             35425  35477M 35501  35655M 35705  35775M 35789M 35791  35838M 35862  36016M 36042  36128M 36154  36259M
             36273M 36275  36322M 36350  36471M 36485M 36487  36529M 36556  36642M 36688  36758M 36772M 36774  36821M
             36847  36917M 36931M 36933  36980M 37004  37096M 37120  37212M 37242  37345M 37372  37524M 37550  37671M
             37685M 37687  37729M 37756  37835M 37849M 37851  37895M 37922  37999M 38013M 38015  38059M 38111  38263M
             38289  38394M 38421  38573M
     4(4)      966U  2265   9398   9442M  9462M  9501   9528M  9632M  9664   9708M 10689  10749M 10776  10879M 10906
             10993M 11020  11153M 11180  11267M 11294  11427M 11454  11606M 11634  11838M 11866  12078M 12130  12263M
             12290  12490M 12517  12738M 12765  12917M 12944  13096M 13123  13210M 13237  13324M 13351  13438M 13465
             13592M 13619  13706M 13733  13820M 13847  13987M 14015  14152M 14179  14316M 14370  14457M 14484  14617M
             14659  14730M 14757  14909M 14952  15043M 15070  15222M 15250  15459M 15508  15720M 15748  15960M 15987
             16120M 16145  16247M 16272  16413M 16440  16519M 16546  16655M 16682  16861M 16996  17457M 17486  17565M
             17590  17744M 17771  17904M 17930  18097M 18124  18291M 18317  18450M 18475  18608M 18635  18978M 19005
             19092M 19119  19481M 19507  19635M 19661  19747M 19773  19941M 19968  20096M 20124  20302M 20371  20499M
             20526  20659M 20685  20772M 20798  20907M 20933  21019M 21045  21178M 21205  21292M 21319  21452M 21478
             21793M 21820  21953M 21979  22091M 22102U 22141  22250U 22266M 22292  22404M 22415U 22454  22563U 22579M
             22718  23245M 23271  23416M 23445  23612M 23680  23813M 23839  23906M 23917U 23939  24040U 24056M 24082
             24149M 24160U 24182  24285U 24301M 24327  24491M 24515  24648M 24672  24805M 24829  24998M 25022  25190M
1         (SYSV4072) (12:56) (15MAR04) General Purpose Register Cross Reference                                             Page  248
             25214  25306M 25330  25422M 25448  25551M 25579  25744M 25771  25842M 25874  26019M 26046  26196M 26223
             26375M 26402  26554M 26581  26733M 26760  26912M 26939  27123M 27149  27282M 27315  27448M 27475  27618M
             27645  27675M 27708  27737M 27765  27943M 27970  28073M 28101  28279M 28344  28431M 28455  28541M 28565
             28733M 28757  28925M 28949  29117M 29141  29309M 29333  29487M 29536  29631M 29657  29907M 29933  30066M
             30092  30220M 30247  30291M 30318  30523M 30549  30717M 30743  30876M 30902  31035M 31060  31146M 31172
             31309M 31335  31431M 31455  31800M 31827  31979M 32006  32158M 32186  32265M 32333  32485M 32512  32664M
             32692  32917M 32945  33171M 33199  33411M 33437  33570M 33595  33681M 33707  33835M 33861  33994M 34040
             34198M 34222  34308M 34332  34418M 34442  34529M 34553  34639M 34662  34748M 34771  34857M 34903  35167M
             35213  35477M 35501  35655M 35705  35838M 35862  36016M 36042  36128M 36154  36322M 36350  36529M 36556
             36642M 36688  36821M 36847  36980M 37004  37096M 37120  37212M 37242  37345M 37372  37524M 37550  37729M
             37756  37895M 37922  38059M 38111  38263M 38289  38394M 38421  38573M
     5(5)      962U  2265   9398   9462M  9501   9529M  9535   9632M  9664   9708M 10689  10749M 10776  10879M 10906
             10993M 11020  11153M 11180  11267M 11294  11427M 11454  11606M 11634  11838M 11866  12078M 12130  12263M
             12290  12490M 12517  12738M 12765  12917M 12944  13096M 13123  13210M 13237  13324M 13351  13438M 13465
             13592M 13619  13706M 13733  13820M 13847  13987M 14015  14152M 14179  14316M 14370  14457M 14484  14617M
             14659  14730M 14757  14909M 14952  15043M 15070  15222M 15250  15459M 15508  15720M 15748  15960M 15987
             16120M 16145  16247M 16272  16413M 16440  16519M 16546  16655M 16682  16861M 16996  17457M 17486  17565M
             17590  17744M 17771  17904M 17930  18097M 18124  18291M 18317  18450M 18475  18608M 18635  18978M 19005
             19092M 19119  19481M 19507  19635M 19661  19747M 19773  19941M 19968  20096M 20124  20302M 20371  20499M
             20526  20659M 20685  20772M 20798  20907M 20933  21019M 21045  21178M 21205  21292M 21319  21452M 21478
             21793M 21820  21953M 21979  22266M 22292  22579M 22718  23245M 23271  23416M 23445  23612M 23680  23813M
             23839  24056M 24082  24301M 24327  24491M 24515  24648M 24672  24805M 24829  24998M 25022  25190M 25214
             25306M 25330  25422M 25448  25551M 25579  25744M 25771  25842M 25874  26019M 26046  26196M 26223  26375M
             26402  26554M 26581  26733M 26760  26912M 26939  27123M 27149  27282M 27315  27448M 27475  27618M 27645
             27737M 27765  27943M 27970  28073M 28101  28279M 28344  28431M 28455  28541M 28565  28733M 28757  28925M
             28949  29117M 29141  29309M 29333  29487M 29536  29631M 29657  29907M 29933  30066M 30092  30220M 30247
             30291M 30318  30523M 30549  30717M 30743  30876M 30902  31035M 31060  31146M 31172  31309M 31335  31431M
             31455  31800M 31827  31979M 32006  32158M 32186  32265M 32333  32485M 32512  32664M 32692  32917M 32945
             33171M 33199  33411M 33437  33570M 33595  33681M 33707  33835M 33861  33994M 34040  34198M 34222  34308M
             34332  34418M 34442  34529M 34553  34639M 34662  34748M 34771  34857M 34903  35167M 35213  35477M 35501
             35655M 35705  35838M 35862  36016M 36042  36128M 36154  36322M 36350  36529M 36556  36642M 36688  36821M
             36847  36980M 37004  37096M 37120  37212M 37242  37345M 37372  37524M 37550  37729M 37756  37895M 37922
             38059M 38111  38263M 38289  38315M 38325U 38381U 38394M 38421  38573M
     6(6)      958U  2265   9398   9462M  9501   9556M  9564U  9589U  9632M  9664   9708M 10689  10749M 10776  10811U
             10866U 10879M 10906  10943U 10977U 10993M 11020  11057U 11132U 11153M 11180  11217U 11251U 11267M 11294
             11331U 11406U 11427M 11454  11506U 11532U 11560U 11586U 11606M 11634  11746U 11817U 11838M 11866  11986U
             12057U 12078M 12130  12167U 12242U 12263M 12290  12398U 12469U 12490M 12517  12646U 12717U 12738M 12765
             12830U 12901U 12917M 12944  13009U 13080U 13096M 13123  13160U 13194U 13210M 13237  13274U 13308U 13324M
             13351  13388U 13422U 13438M 13465  13502U 13576U 13592M 13619  13656U 13690U 13706M 13733  13770U 13804U
             13820M 13847  13898U 13969U 13987M 14015  14063U 14134U 14152M 14179  14227U 14298U 14316M 14370  14407U
             14441U 14457M 14484  14521U 14596U 14617M 14659  14692U 14714U 14730M 14757  14822U 14893U 14909M 14952
             14994U 15027U 15043M 15070  15122U 15148U 15176U 15202U 15222M 15250  15362U 15433U 15459M 15508  15628U
             15699U 15720M 15748  15868U 15939U 15960M 15987  16024U 16099U 16120M 16145  16192U 16226U 16247M 16272
             16319U 16392U 16413M 16440  16477U 16503U 16519M 16546  16606U 16639U 16655M 16682  16774U 16845U 16861M
             16996  17254U 17325U 17361U 17432U 17457M 17486  17523U 17549U 17565M 17590  17643U 17669U 17698U 17724U
             17744M 17771  17808U 17883U 17904M 17930  18005U 18076U 18097M 18124  18199U 18270U 18291M 18317  18354U
             18429U 18450M 18475  18512U 18587U 18608M 18635  18891U 18962U 18978M 19005  19042U 19076U 19092M 19119
             19174U 19249U 19293U 19368U 19396U 19461U 19481M 19507  19544U 19619U 19635M 19661  19698U 19731U 19747M
             19773  19849U 19920U 19941M 19968  20005U 20080U 20096M 20124  20210U 20281U 20302M 20371  20408U 20483U
             20499M 20526  20563U 20638U 20659M 20685  20722U 20756U 20772M 20798  20858U 20891U 20907M 20933  20970U
             21003U 21019M 21045  21082U 21157U 21178M 21205  21242U 21276U 21292M 21319  21356U 21431U 21452M 21478
             21706U 21777U 21793M 21820  21857U 21932U 21953M 21979  22016U 22087U 22173U 22225U 22266M 22292  22329U
             22400U 22486U 22538U 22579M 22718  23245M 23271  23329U 23400U 23416M 23445  23520U 23591U 23612M 23680
             23717U 23792U 23813M 23839  23876U 23902U 23989U 24015U 24056M 24082  24119U 24145U 24234U 24260U 24301M
             24327  24386U 24420U 24437U 24471U 24491M 24515  24552U 24627U 24648M 24672  24709U 24784U 24805M 24829
             24897U 24923U 24952U 24978U 24998M 25022  25089U 25115U 25144U 25170U 25190M 25214  25256U 25290U 25306M
             25330  25372U 25406U 25422M 25448  25483U 25538U 25551M 25579  25652U 25723U 25744M 25771  25804U 25826U
             25842M 25874  25932U 26003U 26019M 26046  26095U 26129U 26146U 26180U 26196M 26223  26275U 26301U 26329U
             26355U 26375M 26402  26454U 26480U 26508U 26534U 26554M 26581  26633U 26659U 26687U 26713U 26733M 26760
1         (SYSV4072) (12:56) (15MAR04) General Purpose Register Cross Reference                                             Page  249
             26812U 26838U 26866U 26892U 26912M 26939  27031U 27102U 27123M 27149  27186U 27261U 27282M 27315  27352U
             27427U 27448M 27475  27526U 27597U 27618M 27645  27687U 27721U 27737M 27765  27851U 27922U 27943M 27970
             28023U 28057U 28073M 28101  28187U 28258U 28279M 28344  28381U 28415U 28431M 28455  28492U 28525U 28541M
             28565  28641U 28712U 28733M 28757  28833U 28904U 28925M 28949  29025U 29096U 29117M 29141  29217U 29288U
             29309M 29333  29386U 29412U 29441U 29467U 29487M 29536  29581U 29615U 29631M 29657  29805U 29876U 29907M
             29933  29970U 30045U 30066M 30092  30129U 30204U 30220M 30247  30291M 30318  30436U 30507U 30523M 30549
             30625U 30696U 30717M 30743  30780U 30855U 30876M 30902  30939U 31014U 31035M 31060  31097U 31130U 31146M
             31172  31220U 31291U 31309M 31335  31381U 31415U 31431M 31455  31712U 31783U 31800M 31827  31892U 31963U
             31979M 32006  32058U 32084U 32112U 32138U 32158M 32186  32223U 32249U 32265M 32333  32385U 32411U 32439U
             32465U 32485M 32512  32564U 32590U 32618U 32644U 32664M 32692  32820U 32891U 32917M 32945  33079U 33150U
             33171M 33199  33319U 33390U 33411M 33437  33474U 33549U 33570M 33595  33632U 33665U 33681M 33707  33744U
             33819U 33835M 33861  33898U 33973U 33994M 34040  34106U 34177U 34198M 34222  34259U 34292U 34308M 34332
             34369U 34402U 34418M 34442  34479U 34513U 34529M 34553  34590U 34623U 34639M 34662  34699U 34732U 34748M
             34771  34808U 34841U 34857M 34903  35070U 35141U 35167M 35213  35380U 35451U 35477M 35501  35554U 35580U
             35609U 35635U 35655M 35705  35742U 35817U 35838M 35862  35915U 35941U 35970U 35996U 36016M 36042  36079U
             36112U 36128M 36154  36230U 36301U 36322M 36350  36442U 36513U 36529M 36556  36593U 36626U 36642M 36688
             36725U 36800U 36821M 36847  36884U 36959U 36980M 37004  37046U 37080U 37096M 37120  37162U 37196U 37212M
             37242  37277U 37332U 37345M 37372  37424U 37450U 37478U 37504U 37524M 37550  37642U 37713U 37729M 37756
             37806U 37877U 37895M 37922  37970U 38041U 38059M 38111  38163U 38189U 38217U 38243U 38263M 38289  38340U
             38373U 38394M 38421  38473U 38499U 38527U 38553U 38573M
     7(7)      954U  2258M  2258   2259B  2265   2271B  9398   9403M  9415U  9454U  9462M  9501   9506M  9518U  9624U
              9632M  9664   9669M  9681U  9700U  9708M 10689  10694M 10706U 10741U 10749M 10776  10781M 10793U 10871U
             10879M 10906  10911M 10923U 10985U 10993M 11020  11025M 11037U 11145U 11153M 11180  11185M 11197U 11259U
             11267M 11294  11299M 11311U 11419U 11427M 11454  11459M 11471U 11598U 11606M 11634  11640M 11652U 11830U
             11838M 11866  11872M 11884U 12070U 12078M 12130  12135M 12147U 12255U 12263M 12290  12295M 12307U 12482U
             12490M 12517  12522M 12534U 12730U 12738M 12765  12770M 12782U 12909U 12917M 12944  12949M 12961U 13088U
             13096M 13123  13128M 13140U 13202U 13210M 13237  13242M 13254U 13316U 13324M 13351  13356M 13368U 13430U
             13438M 13465  13470M 13482U 13584U 13592M 13619  13624M 13636U 13698U 13706M 13733  13738M 13750U 13812U
             13820M 13847  13852M 13864U 13979U 13987M 14015  14020M 14032U 14144U 14152M 14179  14184M 14196U 14308U
             14316M 14370  14375M 14387U 14449U 14457M 14484  14489M 14501U 14609U 14617M 14659  14664M 14676U 14722U
             14730M 14757  14762M 14774U 14901U 14909M 14952  14957M 14969U 15035U 15043M 15070  15075M 15087U 15214U
             15222M 15250  15256M 15268U 15451U 15459M 15508  15514M 15526U 15712U 15720M 15748  15754M 15766U 15952U
             15960M 15987  15992M 16004U 16112U 16120M 16145  16151M 16163U 16239U 16247M 16272  16278M 16290U 16405U
             16413M 16440  16445M 16457U 16511U 16519M 16546  16551M 16563U 16647U 16655M 16682  16687M 16699U 16853U
             16861M 16996  17002M 17014U 17449U 17457M 17486  17491M 17503U 17557U 17565M 17590  17595M 17607U 17736U
             17744M 17771  17776M 17788U 17896U 17904M 17930  17935M 17947U 18089U 18097M 18124  18129M 18141U 18283U
             18291M 18317  18322M 18334U 18442U 18450M 18475  18480M 18492U 18600U 18608M 18635  18640M 18652U 18970U
             18978M 19005  19010M 19022U 19084U 19092M 19119  19124M 19136U 19473U 19481M 19507  19512M 19524U 19627U
             19635M 19661  19666M 19678U 19739U 19747M 19773  19778M 19790U 19933U 19941M 19968  19973M 19985U 20088U
             20096M 20124  20130M 20142U 20294U 20302M 20371  20376M 20388U 20491U 20499M 20526  20531M 20543U 20651U
             20659M 20685  20690M 20702U 20764U 20772M 20798  20803M 20815U 20899U 20907M 20933  20938M 20950U 21011U
             21019M 21045  21050M 21062U 21170U 21178M 21205  21210M 21222U 21284U 21292M 21319  21324M 21336U 21444U
             21452M 21478  21483M 21495U 21785U 21793M 21820  21825M 21837U 21945U 21953M 21979  21984M 21996U 22258U
             22266M 22292  22297M 22309U 22571U 22579M 22718  22724M 22736U 23237U 23245M 23271  23276M 23288U 23408U
             23416M 23445  23450M 23462U 23604U 23612M 23680  23685M 23697U 23805U 23813M 23839  23844M 23856U 24048U
             24056M 24082  24087M 24099U 24293U 24301M 24327  24332M 24344U 24483U 24491M 24515  24520M 24532U 24640U
             24648M 24672  24677M 24689U 24797U 24805M 24829  24834M 24846U 24990U 24998M 25022  25027M 25039U 25182U
             25190M 25214  25219M 25231U 25298U 25306M 25330  25335M 25347U 25414U 25422M 25448  25453M 25465U 25543U
             25551M 25579  25585M 25597U 25736U 25744M 25771  25776M 25788U 25834U 25842M 25874  25879M 25891U 26011U
             26019M 26046  26051M 26063U 26188U 26196M 26223  26228M 26240U 26367U 26375M 26402  26407M 26419U 26546U
             26554M 26581  26586M 26598U 26725U 26733M 26760  26765M 26777U 26904U 26912M 26939  26944M 26956U 27115U
             27123M 27149  27154M 27166U 27274U 27282M 27315  27320M 27332U 27440U 27448M 27475  27481M 27493U 27610U
             27618M 27645  27650M 27662U 27729U 27737M 27765  27771M 27783U 27935U 27943M 27970  27975M 27987U 28065U
             28073M 28101  28107M 28119U 28271U 28279M 28344  28349M 28361U 28423U 28431M 28455  28460M 28472U 28533U
             28541M 28565  28570M 28582U 28725U 28733M 28757  28762M 28774U 28917U 28925M 28949  28954M 28966U 29109U
             29117M 29141  29146M 29158U 29301U 29309M 29333  29338M 29350U 29479U 29487M 29536  29541M 29553U 29623U
             29631M 29657  29662M 29674U 29899U 29907M 29933  29938M 29950U 30058U 30066M 30092  30097M 30109U 30212U
             30220M 30247  30252M 30264U 30283U 30291M 30318  30323M 30335U 30515U 30523M 30549  30554M 30566U 30709U
             30717M 30743  30748M 30760U 30868U 30876M 30902  30907M 30919U 31027U 31035M 31060  31065M 31077U 31138U
1         (SYSV4072) (12:56) (15MAR04) General Purpose Register Cross Reference                                             Page  250
             31146M 31172  31177M 31189U 31301U 31309M 31335  31340M 31352U 31423U 31431M 31455  31460M 31472U 31792U
             31800M 31827  31832M 31844U 31971U 31979M 32006  32011M 32023U 32150U 32158M 32186  32191M 32203U 32257U
             32265M 32333  32338M 32350U 32477U 32485M 32512  32517M 32529U 32656U 32664M 32692  32698M 32710U 32909U
             32917M 32945  32951M 32963U 33163U 33171M 33199  33205M 33217U 33403U 33411M 33437  33442M 33454U 33562U
             33570M 33595  33600M 33612U 33673U 33681M 33707  33712M 33724U 33827U 33835M 33861  33866M 33878U 33986U
             33994M 34040  34046M 34058U 34190U 34198M 34222  34227M 34239U 34300U 34308M 34332  34337M 34349U 34410U
             34418M 34442  34447M 34459U 34521U 34529M 34553  34558M 34570U 34631U 34639M 34662  34667M 34679U 34740U
             34748M 34771  34776M 34788U 34849U 34857M 34903  34909M 34921U 35159U 35167M 35213  35219M 35231U 35469U
             35477M 35501  35506M 35518U 35647U 35655M 35705  35710M 35722U 35830U 35838M 35862  35867M 35879U 36008U
             36016M 36042  36047M 36059U 36120U 36128M 36154  36159M 36171U 36314U 36322M 36350  36355M 36367U 36521U
             36529M 36556  36561M 36573U 36634U 36642M 36688  36693M 36705U 36813U 36821M 36847  36852M 36864U 36972U
             36980M 37004  37009M 37021U 37088U 37096M 37120  37125M 37137U 37204U 37212M 37242  37247M 37259U 37337U
             37345M 37372  37377M 37389U 37516U 37524M 37550  37555M 37567U 37721U 37729M 37756  37761M 37773U 37887U
             37895M 37922  37927M 37939U 38051U 38059M 38111  38116M 38128U 38255U 38263M 38289  38294M 38306U 38386U
             38394M 38421  38426M 38438U 38565U 38573M
     8(8)      950U  2265   9398   9399M  9458   9462M  9501   9502M  9617N  9628   9632M  9664   9665M  9704   9708M
             10689  10690M 10745  10749M 10776  10777M 10875  10879M 10906  10907M 10989  10993M 11020  11021M 11149
             11153M 11180  11181M 11263  11267M 11294  11295M 11423  11427M 11454  11455M 11602  11606M 11634  11636M
             11666U 11825U 11834  11838M 11866  11868M 11898U 12065U 12074  12078M 12130  12131M 12259  12263M 12290
             12291M 12486  12490M 12517  12518M 12734  12738M 12765  12766M 12913  12917M 12944  12945M 13092  13096M
             13123  13124M 13206  13210M 13237  13238M 13320  13324M 13351  13352M 13434  13438M 13465  13466M 13588
             13592M 13619  13620M 13702  13706M 13733  13734M 13816  13820M 13847  13848M 13983  13987M 14015  14016M
             14148  14152M 14179  14180M 14312  14316M 14370  14371M 14453  14457M 14484  14485M 14613  14617M 14659
             14660M 14726  14730M 14757  14758M 14905  14909M 14952  14953M 15039  15043M 15070  15071M 15218  15222M
             15250  15252M 15282U 15446U 15455  15459M 15508  15510M 15540U 15707U 15716  15720M 15748  15750M 15780U
             15947U 15956  15960M 15987  15988M 16116  16120M 16145  16147M 16177U 16234U 16243  16247M 16272  16274M
             16304U 16400U 16409  16413M 16440  16441M 16515  16519M 16546  16547M 16651  16655M 16682  16683M 16857
             16861M 16996  16998M 17028U 17444U 17453  17457M 17486  17487M 17561  17565M 17590  17591M 17740  17744M
             17771  17772M 17900  17904M 17930  17931M 18093  18097M 18124  18125M 18287  18291M 18317  18318M 18446
             18450M 18475  18476M 18604  18608M 18635  18636M 18974  18978M 19005  19006M 19088  19092M 19119  19120M
             19477  19481M 19507  19508M 19631  19635M 19661  19662M 19743  19747M 19773  19774M 19937  19941M 19968
             19969M 20092  20096M 20124  20126M 20156U 20289U 20298  20302M 20371  20372M 20495  20499M 20526  20527M
             20655  20659M 20685  20686M 20768  20772M 20798  20799M 20903  20907M 20933  20934M 21015  21019M 21045
             21046M 21174  21178M 21205  21206M 21288  21292M 21319  21320M 21448  21452M 21478  21479M 21789  21793M
             21820  21821M 21949  21953M 21979  21980M 22262  22266M 22292  22293M 22575  22579M 22718  22720M 22750U
             23232U 23241  23245M 23271  23272M 23412  23416M 23445  23446M 23608  23612M 23680  23681M 23809  23813M
             23839  23840M 24052  24056M 24082  24083M 24297  24301M 24327  24328M 24487  24491M 24515  24516M 24644
             24648M 24672  24673M 24801  24805M 24829  24830M 24994  24998M 25022  25023M 25186  25190M 25214  25215M
             25302  25306M 25330  25331M 25418  25422M 25448  25449M 25547  25551M 25579  25581M 25611U 25731U 25740
             25744M 25771  25772M 25838  25842M 25874  25875M 26015  26019M 26046  26047M 26192  26196M 26223  26224M
             26371  26375M 26402  26403M 26550  26554M 26581  26582M 26729  26733M 26760  26761M 26908  26912M 26939
             26940M 27119  27123M 27149  27150M 27278  27282M 27315  27316M 27444  27448M 27475  27477M 27507U 27605U
             27614  27618M 27645  27646M 27733  27737M 27765  27767M 27797U 27930U 27939  27943M 27970  27971M 28069
             28073M 28101  28103M 28133U 28266U 28275  28279M 28344  28345M 28427  28431M 28455  28456M 28537  28541M
             28565  28566M 28729  28733M 28757  28758M 28921  28925M 28949  28950M 29113  29117M 29141  29142M 29305
             29309M 29333  29334M 29483  29487M 29536  29537M 29627  29631M 29657  29658M 29903  29907M 29933  29934M
             30062  30066M 30092  30093M 30216  30220M 30247  30248M 30287  30291M 30318  30319M 30519  30523M 30549
             30550M 30713  30717M 30743  30744M 30872  30876M 30902  30903M 31031  31035M 31060  31061M 31142  31146M
             31172  31173M 31305  31309M 31335  31336M 31427  31431M 31455  31456M 31796  31800M 31827  31828M 31975
             31979M 32006  32007M 32154  32158M 32186  32187M 32261  32265M 32333  32334M 32481  32485M 32512  32513M
             32660  32664M 32692  32694M 32724U 32904U 32913  32917M 32945  32947M 32977U 33158U 33167  33171M 33199
             33201M 33231U 33398U 33407  33411M 33437  33438M 33566  33570M 33595  33596M 33677  33681M 33707  33708M
             33831  33835M 33861  33862M 33990  33994M 34040  34042M 34072U 34185U 34194  34198M 34222  34223M 34304
             34308M 34332  34333M 34414  34418M 34442  34443M 34525  34529M 34553  34554M 34635  34639M 34662  34663M
             34744  34748M 34771  34772M 34853  34857M 34903  34905M 34935U 35154U 35163  35167M 35213  35215M 35245U
             35464U 35473  35477M 35501  35502M 35651  35655M 35705  35706M 35834  35838M 35862  35863M 36012  36016M
             36042  36043M 36124  36128M 36154  36155M 36318  36322M 36350  36351M 36525  36529M 36556  36557M 36638
             36642M 36688  36689M 36817  36821M 36847  36848M 36976  36980M 37004  37005M 37092  37096M 37120  37121M
             37208  37212M 37242  37243M 37341  37345M 37372  37373M 37520  37524M 37550  37551M 37725  37729M 37756
1         (SYSV4072) (12:56) (15MAR04) General Purpose Register Cross Reference                                             Page  251
             37757M 37891  37895M 37922  37923M 38055  38059M 38111  38112M 38259  38263M 38289  38290M 38390  38394M
             38421  38422M 38569  38573M
     9(9)      946U  2265
    10(A)      942U  2265
    11(B)      938U  1329U  2265   7080B  7081B
    12(C)      934U  1338U  2265
    13(D)      930U  2265   9395   9398   9399   9400M  9400   9458M  9462   9464   9498   9501   9502   9503M  9503
              9628M  9632   9634   9661   9664   9665   9666M  9666   9704M  9708   9710  10686  10689  10690  10691M
             10691  10745M 10749  10751  10773  10776  10777  10778M 10778  10875M 10879  10881  10903  10906  10907
             10908M 10908  10989M 10993  10995  11017  11020  11021  11022M 11022  11149M 11153  11155  11177  11180
             11181  11182M 11182  11263M 11267  11269  11291  11294  11295  11296M 11296  11423M 11427  11429  11451
             11454  11455  11456M 11456  11602M 11606  11608  11631  11634  11636  11637M 11637  11834M 11838  11840
             11863  11866  11868  11869M 11869  12074M 12078  12080  12127  12130  12131  12132M 12132  12259M 12263
             12265  12287  12290  12291  12292M 12292  12486M 12490  12492  12514  12517  12518  12519M 12519  12734M
             12738  12740  12762  12765  12766  12767M 12767  12913M 12917  12919  12941  12944  12945  12946M 12946
             13092M 13096  13098  13120  13123  13124  13125M 13125  13206M 13210  13212  13234  13237  13238  13239M
             13239  13320M 13324  13326  13348  13351  13352  13353M 13353  13434M 13438  13440  13462  13465  13466
             13467M 13467  13588M 13592  13594  13616  13619  13620  13621M 13621  13702M 13706  13708  13730  13733
             13734  13735M 13735  13816M 13820  13822  13844  13847  13848  13849M 13849  13874  13875M 13875  13972M
             13983M 13987  13989  14012  14015  14016  14017M 14017  14042  14043M 14043  14137M 14148M 14152  14154
             14176  14179  14180  14181M 14181  14206  14207M 14207  14301M 14312M 14316  14318  14367  14370  14371
             14372M 14372  14453M 14457  14459  14481  14484  14485  14486M 14486  14613M 14617  14619  14656  14659
             14660  14661M 14661  14726M 14730  14732  14754  14757  14758  14759M 14759  14905M 14909  14911  14949
             14952  14953  14954M 14954  15039M 15043  15045  15067  15070  15071  15072M 15072  15218M 15222  15224
             15247  15250  15252  15253M 15253  15455M 15459  15461  15505  15508  15510  15511M 15511  15716M 15720
             15722  15745  15748  15750  15751M 15751  15956M 15960  15962  15984  15987  15988  15989M 15989  16116M
             16120  16122  16142  16145  16147  16148M 16148  16243M 16247  16249  16269  16272  16274  16275M 16275
             16409M 16413  16415  16437  16440  16441  16442M 16442  16515M 16519  16521  16543  16546  16547  16548M
             16548  16651M 16655  16657  16679  16682  16683  16684M 16684  16857M 16861  16863  16993  16996  16998
             16999M 16999  17453M 17457  17459  17483  17486  17487  17488M 17488  17561M 17565  17567  17587  17590
             17591  17592M 17592  17740M 17744  17746  17768  17771  17772  17773M 17773  17900M 17904  17906  17927
             17930  17931  17932M 17932  18093M 18097  18099  18121  18124  18125  18126M 18126  18287M 18291  18293
             18314  18317  18318  18319M 18319  18446M 18450  18452  18472  18475  18476  18477M 18477  18604M 18608
             18610  18632  18635  18636  18637M 18637  18974M 18978  18980  19002  19005  19006  19007M 19007  19088M
             19092  19094  19116  19119  19120  19121M 19121  19477M 19481  19483  19504  19507  19508  19509M 19509
             19631M 19635  19637  19658  19661  19662  19663M 19663  19743M 19747  19749  19770  19773  19774  19775M
             19775  19937M 19941  19943  19965  19968  19969  19970M 19970  20092M 20096  20098  20121  20124  20126
             20127M 20127  20298M 20302  20304  20368  20371  20372  20373M 20373  20495M 20499  20501  20523  20526
             20527  20528M 20528  20655M 20659  20661  20682  20685  20686  20687M 20687  20768M 20772  20774  20795
             20798  20799  20800M 20800  20903M 20907  20909  20930  20933  20934  20935M 20935  21015M 21019  21021
             21042  21045  21046  21047M 21047  21174M 21178  21180  21202  21205  21206  21207M 21207  21288M 21292
             21294  21316  21319  21320  21321M 21321  21448M 21452  21454  21475  21478  21479  21480M 21480  21789M
             21793  21795  21817  21820  21821  21822M 21822  21949M 21953  21955  21976  21979  21980  21981M 21981
             22091  22092M 22092  22262M 22266  22268  22289  22292  22293  22294M 22294  22404  22405M 22405  22575M
             22579  22581  22715  22718  22720  22721M 22721  23241M 23245  23247  23268  23271  23272  23273M 23273
             23412M 23416  23418  23442  23445  23446  23447M 23447  23608M 23612  23614  23677  23680  23681  23682M
             23682  23809M 23813  23815  23836  23839  23840  23841M 23841  23906  23907M 23907  24052M 24056  24058
             24079  24082  24083  24084M 24084  24149  24150M 24150  24297M 24301  24303  24324  24327  24328  24329M
             24329  24487M 24491  24493  24512  24515  24516  24517M 24517  24644M 24648  24650  24669  24672  24673
             24674M 24674  24801M 24805  24807  24826  24829  24830  24831M 24831  24994M 24998  25000  25019  25022
             25023  25024M 25024  25186M 25190  25192  25211  25214  25215  25216M 25216  25302M 25306  25308  25327
             25330  25331  25332M 25332  25418M 25422  25424  25445  25448  25449  25450M 25450  25547M 25551  25553
             25576  25579  25581  25582M 25582  25740M 25744  25746  25768  25771  25772  25773M 25773  25838M 25842
             25844  25871  25874  25875  25876M 25876  26015M 26019  26021  26043  26046  26047  26048M 26048  26192M
             26196  26198  26220  26223  26224  26225M 26225  26371M 26375  26377  26399  26402  26403  26404M 26404
             26550M 26554  26556  26578  26581  26582  26583M 26583  26729M 26733  26735  26757  26760  26761  26762M
             26762  26908M 26912  26914  26936  26939  26940  26941M 26941  27119M 27123  27125  27146  27149  27150
             27151M 27151  27278M 27282  27284  27312  27315  27316  27317M 27317  27444M 27448  27450  27472  27475
             27477  27478M 27478  27614M 27618  27620  27642  27645  27646  27647M 27647  27733M 27737  27739  27762
1         (SYSV4072) (12:56) (15MAR04) General Purpose Register Cross Reference                                             Page  252
             27765  27767  27768M 27768  27939M 27943  27945  27967  27970  27971  27972M 27972  28069M 28073  28075
             28098  28101  28103  28104M 28104  28275M 28279  28281  28341  28344  28345  28346M 28346  28427M 28431
             28433  28452  28455  28456  28457M 28457  28537M 28541  28543  28562  28565  28566  28567M 28567  28729M
             28733  28735  28754  28757  28758  28759M 28759  28921M 28925  28927  28946  28949  28950  28951M 28951
             29113M 29117  29119  29138  29141  29142  29143M 29143  29305M 29309  29311  29330  29333  29334  29335M
             29335  29483M 29487  29489  29533  29536  29537  29538M 29538  29627M 29631  29633  29654  29657  29658
             29659M 29659  29903M 29907  29909  29930  29933  29934  29935M 29935  30062M 30066  30068  30089  30092
             30093  30094M 30094  30216M 30220  30222  30244  30247  30248  30249M 30249  30287M 30291  30293  30315
             30318  30319  30320M 30320  30519M 30523  30525  30546  30549  30550  30551M 30551  30713M 30717  30719
             30740  30743  30744  30745M 30745  30872M 30876  30878  30899  30902  30903  30904M 30904  31031M 31035
             31037  31057  31060  31061  31062M 31062  31142M 31146  31148  31169  31172  31173  31174M 31174  31199
             31200M 31200  31294M 31305M 31309  31311  31332  31335  31336  31337M 31337  31427M 31431  31433  31452
             31455  31456  31457M 31457  31796M 31800  31802  31824  31827  31828  31829M 31829  31975M 31979  31981
             32003  32006  32007  32008M 32008  32154M 32158  32160  32183  32186  32187  32188M 32188  32261M 32265
             32267  32330  32333  32334  32335M 32335  32481M 32485  32487  32509  32512  32513  32514M 32514  32660M
             32664  32666  32689  32692  32694  32695M 32695  32913M 32917  32919  32942  32945  32947  32948M 32948
             33167M 33171  33173  33196  33199  33201  33202M 33202  33407M 33411  33413  33434  33437  33438  33439M
             33439  33566M 33570  33572  33592  33595  33596  33597M 33597  33677M 33681  33683  33704  33707  33708
             33709M 33709  33831M 33835  33837  33858  33861  33862  33863M 33863  33990M 33994  33996  34037  34040
             34042  34043M 34043  34194M 34198  34200  34219  34222  34223  34224M 34224  34304M 34308  34310  34329
             34332  34333  34334M 34334  34414M 34418  34420  34439  34442  34443  34444M 34444  34525M 34529  34531
             34550  34553  34554  34555M 34555  34635M 34639  34641  34659  34662  34663  34664M 34664  34744M 34748
             34750  34768  34771  34772  34773M 34773  34853M 34857  34859  34900  34903  34905  34906M 34906  35163M
             35167  35169  35210  35213  35215  35216M 35216  35473M 35477  35479  35498  35501  35502  35503M 35503
             35651M 35655  35657  35702  35705  35706  35707M 35707  35834M 35838  35840  35859  35862  35863  35864M
             35864  36012M 36016  36018  36039  36042  36043  36044M 36044  36124M 36128  36130  36151  36154  36155
             36156M 36156  36318M 36322  36324  36347  36350  36351  36352M 36352  36525M 36529  36531  36553  36556
             36557  36558M 36558  36638M 36642  36644  36685  36688  36689  36690M 36690  36817M 36821  36823  36844
             36847  36848  36849M 36849  36976M 36980  36982  37001  37004  37005  37006M 37006  37092M 37096  37098
             37117  37120  37121  37122M 37122  37208M 37212  37214  37239  37242  37243  37244M 37244  37341M 37345
             37347  37369  37372  37373  37374M 37374  37520M 37524  37526  37547  37550  37551  37552M 37552  37725M
             37729  37731  37753  37756  37757  37758M 37758  37783  37784M 37784  37880M 37891M 37895  37897  37919
             37922  37923  37924M 37924  37949  37950M 37950  38044M 38055M 38059  38061  38108  38111  38112  38113M
             38113  38259M 38263  38265  38286  38289  38290  38291M 38291  38390M 38394  38396  38418  38421  38422
             38423M 38423  38569M 38573  38575
    14(E)      926U  2265   2266M  2280   2281M  2282B  2284M  2285B  2305M  2306B  2310M  2311B  2313M  2314B  2316M
              2317B  2319M  2320B  2322M  2323M  2323B  2329   9395   9429M  9430M  9430B  9445M  9446M  9446B  9464M
              9467B  9498   9538M  9539M  9539B  9634M  9637B  9661   9692M  9693M  9693B  9710M  9713B 10686  10731M
             10732M 10732B 10751M 10754B 10773  10881M 10884B 10903  10969M 10970M 10970B 10995M 10998B 11017  11137M
             11138M 11138B 11155M 11158B 11177  11243M 11244M 11244B 11269M 11272B 11291  11411M 11412M 11412B 11429M
             11432B 11451  11608M 11611B 11631  11692M 11693M 11693B 11840M 11843B 11863  11924M 11925M 11925B 12080M
             12083B 12127  12247M 12248M 12248B 12265M 12268B 12287  12474M 12475M 12475B 12492M 12495B 12514  12722M
             12723M 12723B 12740M 12743B 12762  12919M 12922B 12941  13098M 13101B 13120  13186M 13187M 13187B 13212M
             13215B 13234  13300M 13301M 13301B 13326M 13329B 13348  13414M 13415M 13415B 13440M 13443B 13462  13594M
             13597B 13616  13682M 13683M 13683B 13708M 13711B 13730  13796M 13797M 13797B 13822M 13825B 13844  13878M
             13879M 13879B 13882M 13883M 13883B 13989M 13992B 14012  14046M 14047M 14047B 14050M 14051M 14051B 14154M
             14157B 14176  14210M 14211M 14211B 14214M 14215M 14215B 14318M 14321B 14367  14433M 14434M 14434B 14459M
             14462B 14481  14601M 14602M 14602B 14619M 14622B 14656  14732M 14735B 14754  14911M 14914B 14949  14980M
             14981M 14981B 15019M 15020M 15020B 15045M 15048B 15067  15224M 15227B 15247  15308M 15309M 15309B 15438M
             15439M 15439B 15461M 15464B 15505  15566M 15567M 15567B 15722M 15725B 15745  15806M 15807M 15807B 15962M
             15965B 15984  16104M 16105M 16105B 16122M 16125B 16142  16218M 16219M 16219B 16249M 16252B 16269  16415M
             16418B 16437  16521M 16524B 16543  16631M 16632M 16632B 16657M 16660B 16679  16863M 16866B 16993  17059M
             17060M 17060B 17100M 17101M 17101B 17117M 17118M 17118B 17143M 17144M 17144B 17160M 17161M 17161B 17186M
             17187M 17187B 17203M 17204M 17204B 17229M 17230M 17230B 17459M 17462B 17483  17567M 17570B 17587  17746M
             17749B 17768  17888M 17889M 17889B 17906M 17909B 17927  18081M 18082M 18082B 18099M 18102B 18121  18275M
             18276M 18276B 18293M 18296B 18314  18434M 18435M 18435B 18452M 18455B 18472  18592M 18593M 18593B 18610M
             18613B 18632  18980M 18983B 19002  19068M 19069M 19069B 19094M 19097B 19116  19483M 19486B 19504  19637M
             19640B 19658  19723M 19724M 19724B 19749M 19752B 19770  19925M 19926M 19926B 19943M 19946B 19965  20098M
             20101B 20121  20177M 20178M 20178B 20304M 20307B 20368  20501M 20504B 20523  20643M 20644M 20644B 20661M
1         (SYSV4072) (12:56) (15MAR04) General Purpose Register Cross Reference                                             Page  253
             20664B 20682  20748M 20749M 20749B 20774M 20777B 20795  20883M 20884M 20884B 20909M 20912B 20930  20995M
             20996M 20996B 21021M 21024B 21042  21162M 21163M 21163B 21180M 21183B 21202  21268M 21269M 21269B 21294M
             21297B 21316  21436M 21437M 21437B 21454M 21457B 21475  21795M 21798B 21817  21937M 21938M 21938B 21955M
             21958B 21976  22130M 22131M 22131B 22145M 22146M 22146B 22216M 22217M 22217B 22268M 22271B 22289  22443M
             22444M 22444B 22458M 22459M 22459B 22529M 22530M 22530B 22581M 22584B 22715  22791M 22792M 22792B 22829M
             22830M 22830B 22846M 22847M 22847B 22889M 22890M 22890B 22906M 22907M 22907B 22949M 22950M 22950B 22966M
             22967M 22967B 23009M 23010M 23010B 23026M 23027M 23027B 23069M 23070M 23070B 23086M 23087M 23087B 23129M
             23130M 23130B 23146M 23147M 23147B 23189M 23190M 23190B 23206M 23207M 23207B 23247M 23250B 23268  23315M
             23316M 23316B 23418M 23421B 23442  23596M 23597M 23597B 23614M 23617B 23677  23797M 23798M 23798B 23815M
             23818B 23836  23943M 23944M 23944B 24058M 24061B 24079  24186M 24187M 24187B 24303M 24306B 24324  24358M
             24359M 24359B 24365M 24366M 24366B 24371M 24372M 24372B 24412M 24413M 24413B 24463M 24464M 24464B 24493M
             24496B 24512  24632M 24633M 24633B 24650M 24653B 24669  24789M 24790M 24790B 24807M 24810B 24826  25000M
             25003B 25019  25064M 25065M 25065B 25192M 25195B 25211  25243M 25244M 25244B 25282M 25283M 25283B 25308M
             25311B 25327  25359M 25360M 25360B 25398M 25399M 25399B 25424M 25427B 25445  25553M 25556B 25576  25620M
             25621M 25621B 25746M 25749B 25768  25844M 25847B 25871  25918M 25919M 25919B 26021M 26024B 26043  26080M
             26081M 26081B 26121M 26122M 26122B 26172M 26173M 26173B 26198M 26201B 26220  26377M 26380B 26399  26556M
             26559B 26578  26735M 26738B 26757  26914M 26917B 26936  27107M 27108M 27108B 27125M 27128B 27146  27266M
             27267M 27267B 27284M 27287B 27312  27432M 27433M 27433B 27450M 27453B 27472  27513M 27514M 27514B 27620M
             27623B 27642  27673M 27674M 27674B 27713M 27714M 27714B 27739M 27742B 27762  27818M 27819M 27819B 27945M
             27948B 27967  28049M 28050M 28050B 28075M 28078B 28098  28154M 28155M 28155B 28281M 28284B 28341  28407M
             28408M 28408B 28433M 28436B 28452  28517M 28518M 28518B 28543M 28546B 28562  28717M 28718M 28718B 28735M
             28738B 28754  28909M 28910M 28910B 28927M 28930B 28946  29101M 29102M 29102B 29119M 29122B 29138  29293M
             29294M 29294B 29311M 29314B 29330  29489M 29492B 29533  29607M 29608M 29608B 29633M 29636B 29654  29881M
             29882M 29882B 29909M 29912B 29930  30050M 30051M 30051B 30068M 30071B 30089  30222M 30225B 30244  30275M
             30276M 30276B 30293M 30296B 30315  30525M 30528B 30546  30701M 30702M 30702B 30719M 30722B 30740  30860M
             30861M 30861B 30878M 30881B 30899  31019M 31020M 31020B 31037M 31040B 31057  31122M 31123M 31123B 31148M
             31151B 31169  31203M 31204M 31204B 31207M 31208M 31208B 31311M 31314B 31332  31363M 31364M 31364B 31367M
             31368M 31368B 31407M 31408M 31408B 31433M 31436B 31452  31802M 31805B 31824  31981M 31984B 32003  32160M
             32163B 32183  32267M 32270B 32330  32487M 32490B 32509  32666M 32669B 32689  32750M 32751M 32751B 32896M
             32897M 32897B 32919M 32922B 32942  33017M 33018M 33018B 33173M 33176B 33196  33257M 33258M 33258B 33413M
             33416B 33434  33554M 33555M 33555B 33572M 33575B 33592  33657M 33658M 33658B 33683M 33686B 33704  33837M
             33840B 33858  33978M 33979M 33979B 33996M 33999B 34037  34093M 34094M 34094B 34200M 34203B 34219  34284M
             34285M 34285B 34310M 34313B 34329  34394M 34395M 34395B 34420M 34423B 34439  34505M 34506M 34506B 34531M
             34534B 34550  34615M 34616M 34616B 34641M 34644B 34659  34724M 34725M 34725B 34750M 34753B 34768  34833M
             34834M 34834B 34859M 34862B 34900  35146M 35147M 35147B 35169M 35172B 35210  35456M 35457M 35457B 35479M
             35482B 35498  35529M 35530M 35530B 35657M 35660B 35702  35822M 35823M 35823B 35840M 35843B 35859  35890M
             35891M 35891B 36018M 36021B 36039  36104M 36105M 36105B 36130M 36133B 36151  36306M 36307M 36307B 36324M
             36327B 36347  36531M 36534B 36553  36618M 36619M 36619B 36644M 36647B 36685  36805M 36806M 36806B 36823M
             36826B 36844  36964M 36965M 36965B 36982M 36985B 37001  37033M 37034M 37034B 37072M 37073M 37073B 37098M
             37101B 37117  37149M 37150M 37150B 37188M 37189M 37189B 37214M 37217B 37239  37347M 37350B 37369  37526M
             37529B 37547  37731M 37734B 37753  37787M 37788M 37788B 37791M 37792M 37792B 37897M 37900B 37919  37953M
             37954M 37954B 37957M 37958M 37958B 38061M 38064B 38108  38265M 38268B 38286  38365M 38366M 38366B 38396M
             38399B 38418  38575M 38578B
    15(F)      922U  2265   7542M  7542   9466M  9466   9550M  9550   9606M  9636M  9636   9712M  9712  10728M 10734M
             10753M 10753  10883M 10883  10997M 10997  11125M 11125  11157M 11157  11271M 11271  11399M 11399  11431M
             11431  11525M 11525  11579M 11579  11610M 11610  11810M 11810  11842M 11842  12050M 12050  12082M 12082
             12235M 12235  12267M 12267  12462M 12462  12494M 12494  12710M 12710  12742M 12742  12894M 12894  12921M
             12921  13073M 13073  13100M 13100  13214M 13214  13328M 13328  13442M 13442  13569M 13569  13596M 13596
             13710M 13710  13824M 13824  13874M 13962M 13962  13991M 13991  14042M 14127M 14127  14156M 14156  14206M
             14291M 14291  14320M 14320  14461M 14461  14589M 14589  14621M 14621  14708M 14708  14734M 14734  14886M
             14886  14913M 14913  15047M 15047  15141M 15141  15195M 15195  15226M 15226  15426M 15426  15463M 15463
             15692M 15692  15724M 15724  15932M 15932  15964M 15964  16092M 16092  16124M 16124  16251M 16251  16385M
             16385  16417M 16417  16496M 16496  16523M 16523  16659M 16659  16838M 16838  16865M 16865  17056M 17097M
             17114M 17140M 17157M 17183M 17200M 17226M 17318M 17318  17425M 17425  17461M 17461  17542M 17542  17569M
             17569  17662M 17662  17717M 17717  17748M 17748  17876M 17876  17908M 17908  18069M 18069  18101M 18101
             18263M 18263  18295M 18295  18422M 18422  18454M 18454  18580M 18580  18612M 18612  18955M 18955  18982M
             18982  19096M 19096  19242M 19242  19361M 19361  19454M 19454  19485M 19485  19612M 19612  19639M 19639
             19751M 19751  19913M 19913  19945M 19945  20073M 20073  20100M 20100  20274M 20274  20306M 20306  20476M
             20476  20503M 20503  20631M 20631  20663M 20663  20776M 20776  20911M 20911  21023M 21023  21150M 21150
1         (SYSV4072) (12:56) (15MAR04) General Purpose Register Cross Reference                                             Page  254
             21182M 21182  21296M 21296  21424M 21424  21456M 21456  21770M 21770  21797M 21797  21925M 21925  21957M
             21957  22080M 22080  22127M 22193D 22195M 22195  22196M 22197U 22243M 22243  22270M 22270  22393M 22393
             22440M 22506D 22508M 22508  22509M 22510U 22556M 22556  22583M 22583  22761  22788M 22826M 22843M 22886M
             22903M 22946M 22963M 23006M 23023M 23066M 23083M 23126M 23143M 23186M 23203M 23249M 23249  23393M 23393
             23420M 23420  23584M 23584  23616M 23616  23785M 23785  23817M 23817  23895M 23895  24008M 24008  24060M
             24060  24138M 24138  24253M 24253  24305M 24305  24495M 24495  24620M 24620  24652M 24652  24777M 24777
             24809M 24809  24916M 24916  24971M 24971  25002M 25002  25108M 25108  25163M 25163  25194M 25194  25240M
             25277  25310M 25310  25356M 25393  25426M 25426  25555M 25555  25716M 25716  25748M 25748  25820M 25820
             25846M 25846  25996M 25996  26023M 26023  26074M 26075M 26075  26077  26200M 26200  26294M 26294  26348M
             26348  26379M 26379  26473M 26473  26527M 26527  26558M 26558  26652M 26652  26706M 26706  26737M 26737
             26831M 26831  26885M 26885  26916M 26916  27095M 27095  27127M 27127  27254M 27254  27286M 27286  27420M
             27420  27452M 27452  27590M 27590  27622M 27622  27675  27741M 27741  27915M 27915  27947M 27947  28077M
             28077  28251M 28251  28283M 28283  28435M 28435  28545M 28545  28705M 28705  28737M 28737  28897M 28897
             28929M 28929  29089M 29089  29121M 29121  29281M 29281  29313M 29313  29405M 29405  29460M 29460  29491M
             29491  29635M 29635  29869M 29869  29911M 29911  30038M 30038  30070M 30070  30197M 30197  30224M 30224
             30295M 30295  30500M 30500  30527M 30527  30689M 30689  30721M 30721  30848M 30848  30880M 30880  31007M
             31007  31039M 31039  31150M 31150  31199M 31284M 31284  31313M 31313  31435M 31435  31551D 31553M 31553
             31554M 31555U 31564M 31564  31590  31616  31642  31668  31776M 31776  31804M 31804  31956M 31956  31983M
             31983  32077M 32077  32131M 32131  32162M 32162  32242M 32242  32269M 32269  32404M 32404  32458M 32458
             32489M 32489  32583M 32583  32637M 32637  32668M 32668  32762M 32762  32884M 32884  32921M 32921  33143M
             33143  33175M 33175  33383M 33383  33415M 33415  33542M 33542  33574M 33574  33685M 33685  33812M 33812
             33839M 33839  33966M 33966  33998M 33998  34076M 34170M 34170  34202M 34202  34312M 34312  34422M 34422
             34533M 34533  34643M 34643  34752M 34752  34861M 34861  34941M 34942M 34942  35005M 35005  35134M 35134
             35171M 35171  35251M 35252M 35252  35315M 35315  35444M 35444  35481M 35481  35573M 35573  35628M 35628
             35659M 35659  35810M 35810  35842M 35842  35934M 35934  35989M 35989  36020M 36020  36132M 36132  36294M
             36294  36326M 36326  36506M 36506  36533M 36533  36646M 36646  36793M 36793  36825M 36825  36952M 36952
             36984M 36984  37030M 37067  37100M 37100  37146M 37183  37216M 37216  37349M 37349  37443M 37443  37497M
             37497  37528M 37528  37706M 37706  37733M 37733  37783M 37870M 37870  37899M 37899  37949M 38034M 38034
             38063M 38063  38182M 38182  38236M 38236  38267M 38267  38398M 38398  38492M 38492  38546M 38546  38577M
             38577

1SYSV     (SYSV4072) (12:56) (15MAR04) Diagnostic Cross Reference and Assembler Summary                                     Page  255
-                                                                                            HLASM R4.0  2004/03/15 12.56
0     No Statements Flagged in this Assembly
 HIGH LEVEL ASSEMBLER, 5696-234, RELEASE 4.0, PTF P72483
0SYSTEM: OS/390 02.10.00            JOBNAME: WYL#SYSV    STEPNAME: ASM        PROCSTEP: (NOPROC)
0Datasets Allocated for this Assembly
  Con DDname   Dataset Name                                 Volume  Member
   P1 SYSIN    WYL.GS.WYL.WYLBUR.SOURCE                     SYSB05  SYSV
   L1 SYSLIB   WYL.GS.WYL.WYLBUR.MACLIB                     SYSB05
   L2          WYL.GG.SYS.MACLIB                            SYSB05
   L3          SYS3.IS.MACLIB                               SYSB05
   L4          SYS3.MACLIB                                  SYSB02
   L5          SYS1.MACLIB                                  MVSBR9
   L6          SYS1.MODGEN                                  MVSBR9
      SYSPRINT SYS04075.T125604.RA000.WYL#SYSV.PRINT.H01    SCR101
      SYSTERM  GG$SLP.WYL#SYSV.JOB03566.D0000101.?

    3668K allocated to Buffer Pool,         4873K would be required for this to be an In-Storage Assembly
    3055 Primary Input Records Read         9126 Library Records Read                270 Work File Reads
       0 ASMAOPT Records Read              18383 Primary Print Records Written       305 Work File Writes
       0 Punch Records Written                 0 ADATA Records Written
0Assembly Start Time: 12.56.06 Stop Time: 12.56.25 Processor Time: 00.00.07.6801
 Return Code 000
