1                        J E S 2  J O B  L O G  --  S Y S T E M  S Y S B  --  N O D E  R L G
0
 12.53.08 JOB03558 ---- MONDAY,    15 MAR 2004 ----
 12.53.08 JOB03558  ICH70001I GG$SLP   LAST ACCESS AT 12:52:29 ON MONDAY, MARCH 15, 2004
 12.53.08 JOB03558  $HASP373 WYL#RECS STARTED - INIT 6    - CLASS B - SYS SYSB
 12.53.08 JOB03558  ***  HCMD      STEP $$QUIET
 12.53.08 JOB03558  PUR * Q OUT MUL
 12.53.08 JOB03558  JOB 5421 WYL#RECS WILL BE PURGED
 12.53.09 JOB03558  WYL#RECS.$$QUIET .         RC=Zero TapeIO=0000 DiskIO=0000 CPU=  .01s Elapsed=88.84s
 12.53.29 JOB03558  WYL#RECS.ASM     .         RC=Zero TapeIO=0000 DiskIO=0668 CPU= 4.93s Elapsed=89.97s
 12.53.32 JOB03558  WYL#RECS.EDIT    .         RC=Zero TapeIO=0000 DiskIO=0306 CPU= 1.10s Elapsed=09.97s
 12.53.32 JOB03558  WYL#RECS Ended.  Name=Assemble RECS                  Total CPU= 6.04s Elapsed=88.84s
 12.53.32 JOB03558
 12.53.32 JOB03558  Execution charges   Priority=Standard   Block=Day
 12.53.32 JOB03558
 12.53.32 JOB03558  CPU Usage         111.75          $69.28   Standard Processing Unit Equivalent
 12.53.32 JOB03558                                   =======
 12.53.32 JOB03558                                    $69.28   Total Job execution charge
 12.53.32 JOB03558
 12.53.32 JOB03558  See back separator page for print charges
 12.53.32 JOB03558
 12.53.33 JOB03558  $HASP395 WYL#RECS ENDED  ASM=0, EDIT=0
1        1 //WYL#RECS JOB SLP$GG,'Assemble RECS',TIME=4,REGION=4M                  JOB03558
           //*
           /*JOBPARM LINES=99,COPIES=1
           /*JOBPARM FORMS=3HOL,PFORMAT=LAND,CHARS=BD13,DUPLEX=YES,FLASH=BAR4
           //*
           /*JOBPARM NOTIFY=GG.SLP,HOLD=OUTPUT                                     WYLGEN
         2 //$$QUIET EXEC PGM=HCMDX,PARM='PUR * Q OUT MUL'
           //*
         3 //ASM    EXEC PGM=ASMA90,REGION=8M,
           //            PARM=('NORENT,TERM,FLAG(NOCONT),US(MAP,WARN(10)),NODECK',
           //            'LC(32767),XREF(SHORT),ESD,DXREF,NOOBJECT')
         4 //STEPLIB DD DSN=SYS3.IS.TESTASM,DISP=SHR
         5 //SYSLIB   DD  DSN=WYL.GS.WYL.WYLBUR.MACLIB,DISP=SHR
         6 //         DD  DSN=WYL.GG.SYS.MACLIB,DISP=SHR
         7 //         DD  DSN=SYS3.IS.MACLIB,DISP=SHR
         8 //         DD  DSN=SYS3.MACLIB,DISP=SHR
         9 //         DD  DSN=SYS1.MACLIB,DISP=SHR
        10 //         DD  DSN=SYS1.MODGEN,DISP=SHR
        11 //SYSUT1   DD DSN=&&SYSUT1,UNIT=VIO,DISP=(,DELETE),
           //            SPACE=(4088,(500,250),,CONTIG,ROUND)
        12 //SYSTERM  DD SYSOUT=T
        13 //SYSPRINT DD DSN=&&PRINT,UNIT=SYSDA,DISP=(,PASS),
           //            SPACE=(6650,(250,250),RLSE),
           //            DCB=(BLKSIZE=6650,LRECL=133,RECFM=FB)
        14 //SYSUDUMP DD SYSOUT=A
        15 //SYSIN    DD  DSN=WYL.GS.WYL.WYLBUR.SOURCE(RECS),DISP=SHR
           //*
        16 //EDIT    EXEC PGM=ASMEDIT,TIME=2,REGION=4000K,
           //             PARM='STMT'
        17 //STEPLIB  DD  DSN=WYL.GG.SYS.LINKLIB,DISP=SHR
        18 //ASMOUT   DD  DSN=&PRINT,DISP=(OLD,DELETE)
        19 //SYSPRINT DD  SYSOUT=A
1 STMT NO. MESSAGE
 -
        11 IGD01010I STORCLAS= TEMP STORGROUP =
        11 IGD01010I STORGRP=VIO ASSIGNED.
        13 IGD01010I STORCLAS= TEMP STORGROUP =
        13 IGD01010I STORGRP=VIO ASSIGNED.
 ICH70001I GG$SLP   LAST ACCESS AT 12:52:29 ON MONDAY, MARCH 15, 2004
 IEF142I WYL#RECS $$QUIET - STEP WAS EXECUTED - COND CODE 0000
 *********************************************************************************
 *   WYL#RECS/$$QUIET /                    Return Code      Zero                 *
 *   Region used      260K (16K user + 244K system)                              *
 *   Extended region  9692K (4K user + 9688K system)                             *
 *                                                                               *
 *   Paging              In      Out                                             *
 *   Private <-> Aux      0        0       CPU time (TCB)   00:00:00.01          *
 *   Private <-> Exp      0        0       CPU time (SRB)   00:00:00.00          *
 *   VIO                  0        0       Elapsed time    917:34:44.12          *
 *   Common               0      ---                                             *
 *                                                                               *
 *                                                                               *
 *   CPU Usage          0.18         $0.11  Standard Processing Unit Equivalent  *
 *                                   $0.11  Total Step execution charge          *
 *                                                                               *
 *    I/O count  DDname   Type Addr           I/O count  DDname   Type Addr      *
 *                         *** No I/O for this step ***                          *
 *********************************************************************************
 IEF373I STEP/$$QUIET /START 2004075.1253
 IEF374I STEP/$$QUIET /STOP  2004075.1253 CPU    0MIN 00.01SEC SRB    0MIN 00.00SEC VIRT    16K SYS   244K EXT       4K SYS    9688K
 IEF236I ALLOC. FOR WYL#RECS ASM
 IEF237I 04DC ALLOCATED TO STEPLIB
 IEF237I 04DC ALLOCATED TO SYSLIB
 IEF237I 04DC ALLOCATED TO
 IEF237I 04DC ALLOCATED TO
 IEF237I 0402 ALLOCATED TO
 IEF237I 04A0 ALLOCATED TO
 IEF237I 04A0 ALLOCATED TO
 IGD101I SMS ALLOCATED TO DDNAME (SYSUT1  )
         DSN (SYS04075.T125308.RA000.WYL#RECS.SYSUT1.H01  )
         STORCLAS (TEMP) MGMTCLAS (        ) DATACLAS (        )
         VOL SER NOS= VIO
 IEF237I JES2 ALLOCATED TO SYSTERM
 IGD101I SMS ALLOCATED TO DDNAME (SYSPRINT)
         DSN (SYS04075.T125308.RA000.WYL#RECS.PRINT.H01   )
         STORCLAS (TEMP) MGMTCLAS (        ) DATACLAS (        )
         VOL SER NOS= SCR100
 IEF237I JES2 ALLOCATED TO SYSUDUMP
 IEF237I 04DC ALLOCATED TO SYSIN
 IEF142I WYL#RECS ASM - STEP WAS EXECUTED - COND CODE 0000
 IEF285I   SYS3.IS.TESTASM                              KEPT
 IEF285I   VOL SER NOS= SYSB05.
 IEF285I   WYL.GS.WYL.WYLBUR.MACLIB                     KEPT
 IEF285I   VOL SER NOS= SYSB05.
 IEF285I   WYL.GG.SYS.MACLIB                            KEPT
 IEF285I   VOL SER NOS= SYSB05.
 IEF285I   SYS3.IS.MACLIB                               KEPT
 IEF285I   VOL SER NOS= SYSB05.
 IEF285I   SYS3.MACLIB                                  KEPT
 IEF285I   VOL SER NOS= SYSB02.
 IEF285I   SYS1.MACLIB                                  KEPT
 IEF285I   VOL SER NOS= MVSBR9.
 IEF285I   SYS1.MODGEN                                  KEPT
 IEF285I   VOL SER NOS= MVSBR9.
 IGD105I SYS04075.T125308.RA000.WYL#RECS.SYSUT1.H01   DELETED,   DDNAME=SYSUT1
 IEF285I   GG$SLP.WYL#RECS.JOB03558.D0000101.?          SYSOUT
 IGD106I SYS04075.T125308.RA000.WYL#RECS.PRINT.H01    PASSED,    DDNAME=SYSPRINT
 IEF285I   GG$SLP.WYL#RECS.JOB03558.D0000102.?          SYSOUT
 IEF285I   WYL.GS.WYL.WYLBUR.SOURCE                     KEPT
 IEF285I   VOL SER NOS= SYSB05.
 *********************************************************************************
 *   WYL#RECS/ASM     /                    Return Code      Zero                 *
 *   Region used      4376K (4096K user + 280K system)                           *
 *   Extended region  10292K (412K user + 9880K system)                          *
 *                                                                               *
 *   Paging              In      Out                                             *
 *   Private <-> Aux      0        0       CPU time (TCB)   00:00:04.88          *
 *   Private <-> Exp      0        0       CPU time (SRB)   00:00:00.05          *
 *   VIO                  0        0       Elapsed time    917:34:42.99          *
 *   Common               0      ---                                             *
 *                                                                               *
 *                                                                               *
 *   CPU Usage         91.50        $56.73  Standard Processing Unit Equivalent  *
 *                                  $56.73  Total Step execution charge          *
 *                                                                               *
 *    I/O count  DDname   Type Addr           I/O count  DDname   Type Addr      *
 *           83  STEPLIB  Disk 04DC                 264  SYSLIB   Disk 04DC      *
 *            0  SYSLIB   Disk 04DC                   0  SYSLIB   Disk 04DC      *
 *            0  SYSLIB   Disk 0402                   0  SYSLIB   Disk 04A0      *
 *            0  SYSLIB   Disk 04A0                   0  SYSUT1   VIO  ----      *
 *            0  SYSTERM       ----                 303  SYSPRINT Disk 038B      *
 *            0  SYSUDUMP      ----                  18  SYSIN    Disk 04DC      *
 *********************************************************************************
 IEF373I STEP/ASM     /START 2004075.1253
 IEF374I STEP/ASM     /STOP  2004075.1253 CPU    0MIN 04.88SEC SRB    0MIN 00.05SEC VIRT  4096K SYS   280K EXT     412K SYS    9880K
 IEF236I ALLOC. FOR WYL#RECS EDIT
 IEF237I 0402 ALLOCATED TO STEPLIB
 IGD103I SMS ALLOCATED TO DDNAME ASMOUT
 IEF237I JES2 ALLOCATED TO SYSPRINT
 IEF142I WYL#RECS EDIT - STEP WAS EXECUTED - COND CODE 0000
 IEF285I   WYL.GG.SYS.LINKLIB                           KEPT
 IEF285I   VOL SER NOS= SYSB02.
 IGD105I SYS04075.T125308.RA000.WYL#RECS.PRINT.H01    DELETED,   DDNAME=ASMOUT
 IEF285I   GG$SLP.WYL#RECS.JOB03558.D0000103.?          SYSOUT
 *********************************************************************************
 *   WYL#RECS/EDIT    /                    Return Code      Zero                 *
 *   Region used      380K (116K user + 264K system)                             *
 *   Extended region  9824K (4K user + 9820K system)                             *
 *                                                                               *
 *   Paging              In      Out                                             *
 *   Private <-> Aux      0        0       CPU time (TCB)   00:00:01.07          *
 *   Private <-> Exp      0        0       CPU time (SRB)   00:00:00.03          *
 *   VIO                  0        0       Elapsed time    917:34:22.99          *
 *   Common               0      ---                                             *
 *                                                                               *
 *                                                                               *
 *   CPU Usage         20.06        $12.43  Standard Processing Unit Equivalent  *
 *                                  $12.43  Total Step execution charge          *
 *                                                                               *
 *    I/O count  DDname   Type Addr           I/O count  DDname   Type Addr      *
 *            2  STEPLIB  Disk 0402                 304  ASMOUT   Disk 038B      *
 *            0  SYSPRINT      ----                                              *
 *********************************************************************************
 IEF373I STEP/EDIT    /START 2004075.1253
 IEF374I STEP/EDIT    /STOP  2004075.1253 CPU    0MIN 01.07SEC SRB    0MIN 00.03SEC VIRT   116K SYS   264K EXT       4K SYS    9820K
 *********************************************************************************
 *                                                                               *
 *                      S t a n f o r d   U n i v e r s i t y                    *
 *                                                                               *
 *                              *** Job Summary ***                              *
 *                                                                               *
 *   System Id      SYSB                   Input time     12:39:25  Mar 15, 2004 *
 *                                                                               *
 *   System Release SP6.1.0                Start time     12:53:08  Mar 15, 2004 *
 *                                                                               *
 *   Job name       WYL#RECS               Stop  time     00:00:00  Mar 15, 2004 *
 *                                                                               *
 *   Account        SLP$GG                 Elapsed time  917:34:44.12            *
 *                                                                               *
 *   User Name      Assemble RECS          CPU time       00:00:05.96            *
 *                                                                               *
 *   Job class      B                      SRB Time       00:00:00.08            *
 *                                                                               *
 *********************************************************************************
 IEF375I  JOB/WYL#RECS/START 2004075.1253
 IEF376I  JOB/WYL#RECS/STOP  2004075.1253 CPU    0MIN 05.96SEC SRB    0MIN 00.08SEC
1Assembler Done RECS No Statements Flagged
1         High Level Assembler Option Summary                   (PTF P72483 )                                               Page    1
-                                                                                            HLASM R4.0  2004/03/15 12.53
0  No Overriding ASMAOPT Parameters
   Overriding Parameters-  NORENT,TERM,FLAG(NOCONT),US(MAP,WARN(10)),NODECK,LC(32767),XREF(SHORT),ESD,DXREF,NOOBJECT
   No Process Statements


   Options for this Assembly
0  NOADATA
     ALIGN
   NOASA
     BATCH
     CODEPAGE(047C)
   NOCOMPAT
   NODBCS
 3 NODECK
 3   DXREF
 3   ESD
   NOEXIT
 3   FLAG(0,ALIGN,NOCONT,NOIMPLEN,NOPAGE0,PUSH,RECORD,NOSUBSTR,USING0)
   NOFOLD
   NOGOFF
   NOINFO
     LANGUAGE(EN)
   NOLIBMAC
 3   LINECOUNT(32767)
     LIST(121)
     MXREF(SOURCE)
 3 NOOBJECT
     OPTABLE(UNI,NOLIST)
   NOPCONTROL
   NOPESTOP
   NOPROFILE
   NORA2
 3 NORENT
     RLD
     RXREF
     SIZE(MAX)
     SYSPARM()
 3   TERM(WIDE)
   NOTEST
     THREAD
   NOTRANSLATE
 3   USING(NOLIMIT,MAP,WARN(10))
 3   XREF(SHORT)

   No Overriding DD Names

1RECS     External Symbol Dictionary                                                                                        Page    2
-Symbol   Type   Id     Address  Length     LD ID  Flags Alias-of                            HLASM R4.0  2004/03/15 12.53
0WYLRECS   SD 00000001 00000000 00003E48             00
 RECS2101  LD          00000000           00000001
 INITRG    LD          00000024           00000001
 FREERG    LD          000001AC           00000001
 XGETINFO  LD          000002D0           00000001
 MGETNEW   ER 00000002
 PGETNEW   ER 00000003
 NOMORPG   ER 00000004
 PTYPEA    ER 00000005
 PMARKA    ER 00000006
 PFREEA    ER 00000007
 RCVYINFO  ER 00000008
 PGETA     ER 00000009
 PJUNKA    ER 0000000A
 XGET      LD          0000035A           00000001
 XGETNEXT  LD          000003A2           00000001
 XGETPREV  LD          000003EA           00000001
 XGETFRST  LD          00000432           00000001
 XGETLAST  LD          0000047A           00000001
 XLOCATE   LD          0000057E           00000001
 LLOCNEXT  LD          00000640           00000001
 XLOCNEXT  LD          00000742           00000001
 XLOCPREV  LD          00000900           00000001
 XLOCFRST  LD          000009BC           00000001
 XLOCLAST  LD          000009FE           00000001
 XPUT      LD          00000A80           00000001
 XDELETE   LD          00000C66           00000001
 XDELRECS  LD          00000D3C           00000001
 XCNTRECS  LD          00000FF6           00000001
 XREPLACE  LD          000011AA           00000001
 CONDPAGE  LD          000012B6           00000001
 PGETB     ER 0000000B
 PFREEB    ER 0000000C
 PTYPEB    ER 0000000D
 PMARKB    ER 0000000E
 XSETSET   LD          00001FC4           00000001
 XSETSPLT  LD          00001FF6           00000001
 XCHKGRP   LD          00002030           00000001
 XCHKSETS  LD          000020A2           00000001
 XCHKSET   LD          0000215E           00000001
 XFRSTSET  LD          000021E4           00000001
 XLASTSET  LD          0000222E           00000001
 XDELGRP   LD          0000227A           00000001
 XDELSETS  LD          000022E8           00000001
 XDELSET   LD          00002358           00000001
 BSINIT    LD          000023FA           00000001
 BSEARCH   LD          00002472           00000001
 BINSERT   LD          0000251C           00000001
 BDELETE   LD          000025FE           00000001
 ABSEARCH  LD          00002694           00000001
 XLOCLINE  LD          00002792           00000001
 XPUTLINE  LD          00002900           00000001
 NNUMBER   LD          00002CE4           00000001
 NNUMFACT  LD          00002F24           00000001
 PAGENUM   ER 0000000F
1RECS     External Symbol Dictionary                                                                                        Page    3
 PAGENCLR  ER 00000010
 RGRCVY    LD          00003654           00000001
 RGCHECK   LD          00003744           00000001
 EDITCHK   LD          00003D50           00000001
 SAREAD    ER 00000011
 PRCVYCHK  ER 00000012
 PRCVYSET  ER 00000013
 PCHK      ER 00000014

1RECS     WYLBUR's RECORD GET/LOC/PUT/DELETE/ETC.                                                                           Page    4
0Loc    Object Code    Addr1 Addr2  Stmt Lv Lineno    Source Statement                    (Asmedit 3.3)  HLASM R4.0  2004/03/15 12.53
+___    ______ ____    _____ _____  ____ __ ______    ______ _________
0                                      2              *******************************************************************
                                       3              *                                                                 *
                                       4              *     WYLBUR/370 - Release VI - Class I - Stanford Proprietary    *
                                       5              *                                                                 *
                                       6              *******************************************************************
                                       7                       HIBAL
                                     988              *
                                     989              * MODULE COMMENTS GO HERE !
                                     990              *
                                     991              * COMMENTS ABOUT PURPOSE,, GROUPS, SETS, NAMES, AND KEYS !
1RECS     WYLBUR's RECORD GET/LOC/PUT/DELETE/ETC.                                                                           Page    5
0D-Loc  Object Code    Addr1 Addr2  Stmt Lv Lineno    Source Statement           (Hibal 5, Asmedit 3.3)  HLASM R4.0  2004/03/15 12.53
+_____  ______ ____    _____ _____  ____ __ ______    ______ _________
0000000                00000 03E48   993              WYLRECS  CSECT
                                     997                       REGS  FSR,,,,,,,BR,(WAR,LSR),PAR,PBR,CPR,CVR,SPR,RAR
                                    1133
                                    1134              RECS     IDENT 2101                11:33:18 04/10/92 (JDN)
                                    1137             +
                                    1138    01-IDENT +         ENTRY RECS2101
                                    1139             +
 000000 16D9C5C3E2F2F1F0            1140    01-IDENT +RECS2101 DC    AL1(22),C'RECS2101,15MAR04,12:53'
                                    1141             +*
                                    1143              *
                                    1144                       SYSDEFN ,                 Define installation values
                                    1145
                                    1146                       PUSH  DSECTS
 USING  CP,R11                      1158             =         USING (CP),(CV)
 USING  CV,R12
 000017                00000 03E48  1177             =         POP   PRINT
 000017                00000 03E48  6590              WYLRECS  CSECT
 000017 C9A34084964089A3            6592                       DC    C'It do it too!'
1RECS     (RECS2101) (12:53) (15MAR04) DSECTS                                                                               Page    6
0Current Usings:  (CP,R11) (CV,R12)
0Loc    Object Code    Addr1 Addr2  Stmt Lv Lineno    Source Statement           (Hibal 5, Asmedit 3.3)  HLASM R4.0  2004/03/15 12.53
+___    ______ ____    _____ _____  ____ __ ______    ______ _________
0                                   6594                      ¿þþþþþþþþþþþþþþþþþþþþþþþþþþþþþþþþþþþþþþþþþþþþþþþþþþþþþþþþþþþþþþþþÜ
                                    6595                      Ÿ  RPCHECK MACRO, CHECK TO SEE IF PAGE OBTAINED IS RECORDS PAGE  Ÿ
                                    6596                      ¾þþþþþþþþþþþþþþþþþþþþþþþþþþþþþþþþþþþþþþþþþþþþþþþþþþþþþþþþþþþþþþþþ»
                                    6597                       MACRO
                                    6598              &L       RPCHECK
                                    6599              &L       CLC   RPNAME(6),=CL6'RECS  '   IS RECORDS HEADER CORRECT
                                    6600                       BNE   CHK1&SYSNDX              YES, CONTINUE
                                    6601                       CLC   RPUTYPE(4),RECTYPE
                                    6602                       BE    CHK2&SYSNDX
                                    6603              CHK1&SYSNDX BOMB                        NO, BOMB RIGHT HERE
                                    6604              CHK2&SYSNDX DS 0H
                                    6605                       MEND
                                    6606                       ¿þþþþþþþþþþþþþþþþþþþþþþþþþþþþþþþþþþþþþþþþþþþþþþþþþþÜ
                                    6607                       Ÿ  XMARK MACRO, MARK CURRENT LOCATION (ADDRESS+2)  Ÿ
                                    6608                       ¾þþþþþþþþþþþþþþþþþþþþþþþþþþþþþþþþþþþþþþþþþþþþþþþþþþ»
                                    6609                       MACRO
                                    6610              &L       XMARK  &REG
                                    6611              &L       BASR   &REG,0
                                    6612                       MEND
1RECS     (RECS2101) (12:53) (15MAR04) BINARY SEARCH DSECTS                                                                 Page    7
0Current Usings:  (CP,R11) (CV,R12)
0Loc    Object Code    Addr1 Addr2  Stmt Lv Lineno    Source Statement           (Hibal 5, Asmedit 3.3)  HLASM R4.0  2004/03/15 12.53
+___    ______ ____    _____ _____  ____ __ ______    ______ _________
0                                   6614                       COPY  BSINFO
                                    6615=            =    ¿þþþþþþþþþþþþþþþþþþþþþþþþþþþþþþþþþþþÜ
                                    6616=            =    Ÿ  BINARY SEARCH INFORMATION DSECT  Ÿ
                                    6617=            =    Ÿ                                   Ÿ
                                    6618=            =    ¾þþþþþþþþþþþþþþþþþþþþþþþþþþþþþþþþþþþ»
 000000                00000 00020  6619             =BSINFO   RECORD BEGIN ,            BINARY SEARCH INFO
 000000                             6627  1          =BSTLEN     DS    F                   TOTAL LENGTH FOR ENTRIES
 000004                             6628  1          =BSELEN     DS    F                   ENTRY LENGTH
 000008                             6629  1          =BSSLEN     DS    F                   SEARCH FIELD LENGTH
 00000C                             6630  1          =BSSOFF     DS    F                   SEARCH FIELD OFFSET
 000010                             6631  1          =BSEND      DS    F                   END OF LAST VALID ENTRY
 000014                             6632  1          =BSCNT      DS    F                   COUNT OF BINARY SEARCH ITERATIONS
 000018                             6633  1          =BSSTART    DS    F                   START BINARY SEARCH AT MIDDLE
 00001C                             6634  1          =BSRSVD     DS    F                   NOT USED
 000020                00020 00020  6635             =         END
1RECS     (RECS2101) (12:53) (15MAR04) RECORD, RECORD PAGE DSECTS                                                           Page    8
0Current Usings:  (CP,R11) (CV,R12)
0Loc    Object Code    Addr1 Addr2  Stmt Lv Lineno    Source Statement           (Hibal 5, Asmedit 3.3)  HLASM R4.0  2004/03/15 12.53
+___    ______ ____    _____ _____  ____ __ ______    ______ _________
0                                   6645              ¿þþþþþþþþþþþþþþþþþþþþþþþþþþþþþþþþþþþþþþþþþþþþþþþþþþþþþþþþþþþþþþþþþþþþþÜ
                                    6646              Ÿ                                                                     Ÿ
                                    6647              Ÿ                                                                     Ÿ
                                    6648              Ÿ  RECORD PAGE                                                        Ÿ
                                    6649              Ÿ                                                                     Ÿ
                                    6650              Ÿ  THE RECORD GROUP IS A GENERALIZED STRUCTURE AND MAY BE USED        Ÿ
                                    6651              Ÿ  TO HOLD SEVERAL TYPES AND FORMATS OF RECORDS.  EACH RECORD         Ÿ
                                    6652              Ÿ  PAGE CONTAINS A SORTED INDEX LIST OF THE RECORDS ON THE PAGE       Ÿ
                                    6653              Ÿ  AND ALSO THE ASSOCIATED RECORDS.  THE INDEXES ARE BINARY           Ÿ
                                    6654              Ÿ  SEACHED AND CONSIST OF THE RECORD NAME AND AN OFFSET POINTER       Ÿ
                                    6655              Ÿ  TO THE RECORD DATA.  THE RECORD DATA IS PLACED AT THE END OF       Ÿ
                                    6656              Ÿ  THE PAGE.  THE RECORD DATA GROWS UP AS MORE RECORDS ARE            Ÿ
                                    6657              Ÿ  ADDED, LIKEWIZE THE RECORD INDEX ENTRIES GROWS DOWN.  IN           Ÿ
                                    6658              Ÿ  ADDITION TO A NAME, EACH RECORD HAS A SET NUMBER ASSOCIATED        Ÿ
                                    6659              Ÿ  WITH IT.  THUS EACH RECORD IS  UNIQUELY SPECIFIED BY A             Ÿ
                                    6660              Ÿ  RECORD GROUP POINTER, A SET NUMBER, AND A NAME.  A SET             Ÿ
                                    6661              Ÿ  NUMBER, AND A NAME TOGETHER WILL BE REFERED TO AS THE RECORD       Ÿ
                                    6662              Ÿ  KEY. (THE INDEX ENTRIES ACTUALLY CONTAIN RECORD KEYS, NOT          Ÿ
                                    6663              Ÿ  JUST THE NAMES.)  RECORD NAMES ARE FIXED LENGTH FOR EACH           Ÿ
                                    6664              Ÿ  RECORD GROUP.  DIG IT !                                            Ÿ
                                    6665              Ÿ                                                                     Ÿ
                                    6666              Ÿ  PAGE USAGE:                                                        Ÿ
                                    6667              Ÿ    PAGE A - PAGE A IS THE PRIMARY PAGE AREA.  ONLY IF TWO           Ÿ
                                    6668              Ÿ             PAGES ARE USED SIMULTANEOUSLY IS PAGE B USED.           Ÿ
                                    6669              Ÿ             PAGE A IS NEVER PFREED.                                 Ÿ
                                    6670              Ÿ    PAGE B - SECONDARY PAGE AREA, USED ONLY WHEN TWO PAGES           Ÿ
                                    6671              Ÿ             ARE NEEDED SIMULTANEOUSLY.  PAGE B MUST BE PFREED       Ÿ
                                    6672              Ÿ             IMMEDIATELY AFTER USE. (PBR SHOULD BE ZERO ON           Ÿ
                                    6673              Ÿ             ENTRY TO ALL ROUTINES!)                                 Ÿ
                                    6674              Ÿ  THESE PAGE USAGE RULES, PROVIDE EFFICIENCY - USUALLY THE PAGE      Ÿ
                                    6675              Ÿ  WE WANT IS ALREADY IN PAGE A.  AND ORDER - THE PAGE WE WANT IN     Ÿ
                                    6676              Ÿ  PAGE A IS NEVER IN PAGE B. (A SITUATION THAT CAUSES A FAILSOFT)    Ÿ
                                    6677              Ÿ                                                                     Ÿ
                                    6678              Ÿ                                                                     Ÿ
                                                      ¾þþþþþþþþþþþþþþþþþþþþþþþþþþþþþþþþþþþþþþþþþþþþþþþþþþþþþþþþþþþþþþþþþþþþþ»
0000000                00000 04F78  6679              RPAGE    RECORD BEGIN ,            RECORD PAGE
 000000                             6687  1           RPSTART    DS    0D
 000000                             6688  1           RPNAME     DS    CL6                 BLOCK TYPE NAME = 'RECS  '
 000006                             6689  1           RPUTYPE    DS    CL4                 BLOCK TYPE SPECIFIED BY USER
                                    6690  1           * EXAMPLES                           'TEXT'
                                    6691  1           *                                    'EXEC'
                                    6692  1           *                                    'RECS'
                                    6693  1           *                                    'FLOW'
                                    6694  1           *                                    'SYS '
 00000A                             6695  1           RPNAME2    DS    CL6                 SECODARY BLOCK TYPE NAME
                                    6696  1           * MAY BE                             'MASTER'
                                    6697  1           *                                    'DATA'
 000010                             6698  1           RPNUMB     DS    F                   BLOCK NUMBER
 000014 00                          6699  1           RPTYPE     FLAG  ,                   BLOCK TYPE
 RPTYPE.RPDATA     80 ONES          6703  1                      FLAG  RPDATA              STANDARD PAGE FORMAT
 RPTYPE.RPMASTER   40 ONES          6708  1                      FLAG  RPMASTER            MASTER INDEX FOR BINARY PAGES
 000015 00                          6713  1           RPFLAG2    FLAG  ,
 RPFLAG2.RPRECVRY  80 ONES          6717  1                      FLAG  RPRECVRY            RECORVER THESE PAGES
1RECS     (RECS2101) (12:53) (15MAR04) RECORD, RECORD PAGE DSECTS                                                           Page    9
0Current Usings:  (CP,R11) (CV,R12)
0Loc    Object Code    Addr1 Addr2  Stmt Lv Lineno    Source Statement           (Hibal 5, Asmedit 3.3)  HLASM R4.0  2004/03/15 12.53
+___    ______ ____    _____ _____  ____ __ ______    ______ _________
0RPFLAG2.RPMEMORY  40 ONES          6722  1                      FLAG  RPMEMORY            GET MEMORY PAGES
                                    6727  1
 000018                             6728  1           RPLINK     DS    F                   LINK TO MASTER PAGE
                                    6729  1
 00001C                             6730  1           RPKEYLN    DS    H                   SEARCH KEY LENGTH
 00001E                             6731  1           RPNAMELN   DS    H                   SEARCH NAME LENGTH
 000020                             6732  1           RPNTRYLN   DS    H                   INDEX ENTRY LENGTH
                                    6733  1
 000022                             6734  1           RPXSTART   DS    H                   START OF INDEX ENTRIES
 000024                             6735  1           RPXEND     DS    H                   END OF INDEX ENTRIES
 000026                             6736  1           RPXFIRST   DS    H                   ALL INDEXS, >= VALUE AT RPXFIRST
 000028                             6737  1           RPXLAST    DS    H                   ALL INDEXS, < VALUE AT RPXLAST
                                    6738  1
 00002A                             6739  1           RPDSTART   DS    H                   START OF DATA
 00002C                             6740  1           RPDEND     DS    H                   END OF DATA
 00002E                             6741  1           RPRESVD    DS    ((((*-RPSTART+15)/16)*16)-(*-RPSTART))X
                                    6742  1
 000030                             6743  1           RPINFO     DS    (L'BSINFO)X         BINARY SEARCH INFO
 000050                             6744  1           RPRSEVD2   DS    ((((*-RPSTART+15)/16)*16)-(*-RPSTART))X
                                    6745  1
 000050                             6746  1           RPAREA     DS    XL(CVPSZ-(*-RPSTART))   INDEX AND DATA AREA
                                    6747  1           RPEND      EQU   *                   END OF USER INDEX, DATA AREAS
 004F78                04F78 04F78  6748                       END
1RECS     (RECS2101) (12:53) (15MAR04) RECORD, RECORD PAGE DSECTS                                                           Page   10
0Current Usings:  (CP,R11) (CV,R12)
0Loc    Object Code    Addr1 Addr2  Stmt Lv Lineno    Source Statement           (Hibal 5, Asmedit 3.3)  HLASM R4.0  2004/03/15 12.53
+___    ______ ____    _____ _____  ____ __ ______    ______ _________
0                                   6758              *
 000000                00000 00020  6759              RGROUP   RECORD BEGIN
                                    6767  1                      RG    PREFIX=REC
 000000                             6768  1 01-RG    +RECGRP          DS      F                 RECORD GROUP (PAGE #)
 000004                             6769  1 01-RG    +RECSET          DS      F                 RECORD SET NUMBER
 000008                             6770  1 01-RG    +RECNLEN         DS      H                 RECORD NAME LENGTH
 00000A                             6771  1 01-RG    +RECFLGS         DS      X                 FLAGS,,, NOT USED
 00000B                             6772  1 01-RG    +RECSPLT         DS      X                 SPLIT VALUE (IN 128THS)
 00000C                             6773  1 01-RG    +RECTYPE         DS      CL4               PAGE TYPE
 000010                             6774  1 01-RG    +RECQPG          DS      F                 QUICK GET/LOC PAGE NUMBER
 000014                             6775  1 01-RG    +RECPPG          DS      F                 QUICK PUT PAGE NUMBER
 000018                             6776  1 01-RG    +RECQOFF         DS      H                 QUICK GET/LOC PAGE OFFSET
 00001A                             6777  1 01-RG    +RECPOFF         DS      H                 QUICK PUT PAGE OFFSET
 00001C                             6778  1 01-RG    +RECRSVD         DS      XL4               NOT USED
 000020                00020 00020  6779                       END
1RECS     (RECS2101) (12:53) (15MAR04) RECORD, RECORD PAGE DSECTS                                                           Page   11
0Current Usings:  (CP,R11) (CV,R12)
0Loc    Object Code    Addr1 Addr2  Stmt Lv Lineno    Source Statement           (Hibal 5, Asmedit 3.3)  HLASM R4.0  2004/03/15 12.53
+___    ______ ____    _____ _____  ____ __ ______    ______ _________
0                                   6789              *
                                    6790              *  RECORD INDEX ENTRY EQU'S
                                    6791              *
                                    6792              *  NOTE:
                                    6793              *     A RECORD KEY IS:
                                    6794              *        4 BYTE RECORD SET NUMBER
                                    6795              *        N BYTE RECORD NAME  (N < MXNAMELN)
                                    6796              *
                                    6797              * THE TERMS ARE ARBITRARY BUT WE TRY TO BE CONSISTENT !
                                    6798              *
                                    6799              MXNAMELN EQU   128                 MAX ALLOWABLE SEARCH NAME LENGTH
                                    6800              MXKEYLN  EQU   MXNAMELN+L'NDXSET
                                    6801              MXNTRYLN EQU   MXKEYLN+L'DATAPTR+L'DATALN
                                    6802              MXDATALN EQU   2048                ARBITRARY, MAX ~< PAGESIZE/10
                                    6803              *
                                    6804              *        INDEX ENTRY OFFSETS !
                                    6805              NDXKEY   EQU   0                   SEARCH KEY
                                    6806              NDXSET   EQU   0,4                    SEARCH KEY: SET NUMBER
                                    6807              NDXNAME  EQU   4                      SEARCH KEY: NAME
                                    6808              DATAPGNO EQU   0,4                 DATA PAGE NUMBER OFFSET AFTER KEY
                                    6809              DATAPTR  EQU   0,2                 DATA POINTER OFFSET AFTER KEY
                                    6810              DATALN   EQU   2,2                 DATA LENGTH OFFSET AFTER KEY
                                    6811
1RECS     (RECS2101) (12:53) (15MAR04) INITIALIZE/FREE RECORD GROUP                                                         Page   12
0Current Usings:  (CP,R11) (CV,R12)
0Loc    Object Code    Addr1 Addr2  Stmt Lv Lineno    Source Statement           (Hibal 5, Asmedit 3.3)  HLASM R4.0  2004/03/15 12.53
+___    ______ ____    _____ _____  ____ __ ______    ______ _________
0                                   6813              ¿þþþþþþþþþþþþþþþþþþþþþþþþþþþþþþþþþþþþþþþþþþþþþþþþþþþþþþþþþþþþþþþþþþþþþÜ
                                    6814              Ÿ                                                                     Ÿ
                                    6815              Ÿ                                                                     Ÿ
                                    6816              Ÿ  INITRG - INITIALIZE RECORD GROUP                                   Ÿ
                                    6817              Ÿ                                                                     Ÿ
                                    6818              Ÿ  SET UP A RECORD GROUP,,, THIS ROUTINE SETS UP THE FIRST            Ÿ
                                    6819              Ÿ  PAGE OF A RECORD GROUP.                                            Ÿ
                                    6820              Ÿ                                                                     Ÿ
                                    6821              Ÿ  ON ENTRY:                                                          Ÿ
                                    6822              Ÿ     @R15 - RECORD GROUP INFO BLOCK (SEE RG MACRO)                   Ÿ
                                    6823              Ÿ       R0 - LENGTH OF RECORD NAMES FOR GROUP                         Ÿ
                                    6824              Ÿ      @R1 - 4 CHARACTER TYPE NAME                                    Ÿ
                                    6825              Ÿ            (EG. 'TEXT','EXEC','VARS','FLOW')                        Ÿ
                                    6826              Ÿ      @R2 - 4 CHARACTER FLAG BYTES                                   Ÿ
                                    6827              Ÿ            IF C'M...', GET PAGES FROM MEMORY                        Ÿ
                                    6828              Ÿ            IF C'.R..', SET RECOVERY FLAG FOR PAGES                  Ÿ
                                    6829              Ÿ                                                                     Ÿ
                                    6830              Ÿ  ON EXIT:                                                           Ÿ
                                    6831              Ÿ       RECORD GROUP FORMATED.                                        Ÿ
                                    6832              Ÿ       RECORD GROUP INFO BLOCK SET UP.                               Ÿ
                                    6833              Ÿ                                                                     Ÿ
                                    6834              Ÿ  NOTES: ONLY USER SETTABLE FIELDS IN THE RECORD GROUP INFO          Ÿ
                                    6835              Ÿ         BLOCK IS THE SET NUMBER, AND THE SPLIT FACTOR.  THESE       Ÿ
                                    6836              Ÿ         FIELDS ARE SET WITH THE 'XSETSET' AND THE 'XSETSPLT'        Ÿ
                                    6837              Ÿ         ROUTINES.                                                   Ÿ
                                    6838              Ÿ  NOTES: IF RECOVERY FLAG IS SET, THE 'RCVYINFO' ROUTINE WILL        Ÿ
                                    6839              Ÿ         BE CALLED WITH THE ROOT PAGE NUMBER IN R0 AND THE           Ÿ
                                    6840              Ÿ         4 CHARACTER TYPE NAME @R1 EVERYTIME THE ROOT PAGE           Ÿ
                                    6841              Ÿ         NUMBER CHANGES.  (R0=0 IMPLIES NO ROOT PAGE).               Ÿ
                                    6842              Ÿ                                                                     Ÿ
                                                      ¾þþþþþþþþþþþþþþþþþþþþþþþþþþþþþþþþþþþþþþþþþþþþþþþþþþþþþþþþþþþþþþþþþþþþþ»
0000000                00000 0000C  6843              NITWA    RECORD BEGIN
 000000                             6851  1           NITNAMLN   DS    F                   LENGTH OF SEARCH NAME
 000004                             6852  1           NITTYPE    DS    CL4                 RECORD GROUP TYPE NAME
 000008                             6853  1           NITFLAGS   DS    4CL1                RECORD GROUP FLAGS
 00000C                0000C 0000C  6854                       END
                                    6863              *
                                    6864              *
 000024 50E0 D000/9008_      00000  6865              INITRG   XPROC NITWA
 USING  *,R7
 USING  NITWA-(4+36),R8
 USING  RPAGE,R9                    6916                       USING RPAGE,PAR
 USING  RGROUP,R6                   6925                       USING RGROUP,R6
 00003E 186F                        6934                       LR    R6,R15              INITIALIZE WORK AREA W/ENTRY PARMS
 000040 5000 8028            00000  6935                       ST    R0,NITNAMLN
 000044 D203 802C 1000 00004 00000  6936                       MVC   NITTYPE(4),0(R1)
 00004A D203 8030 2000 00008 00000  6937                       MVC   NITFLAGS(4),0(R2)
 000050 D71F 6000 6000 00000 00000  6938                       CLEAR RGROUP              INITIALIZE RECORD GROUP WORK AREA
 000056 4000 6008            00008  6945                       STH   R0,RECNLEN
 00005A D203 6004 72D2 00004 00310  6946                       MVC   RECSET,=F'1'
 000060 9270 600B      0000B        6947                       MVI   RECSPLT,128-16
 000064 D203 600C 802C 0000C 00004  6948                       MVC   RECTYPE,NITTYPE
                                    6949
1RECS     (RECS2101) (12:53) (15MAR04) INITIALIZE/FREE RECORD GROUP                                                         Page   13
0Current Usings:  (RGROUP,R6) (*,R7) (NITWA-(4+36),R8) (RPAGE,R9) (CP,R11) (CV,R12)
0Loc    Object Code    Addr1 Addr2  Stmt Lv Lineno    Source Statement           (Hibal 5, Asmedit 3.3)  HLASM R4.0  2004/03/15 12.53
+___    ______ ____    _____ _____  ____ __ ______    ______ _________
0                                   6950                       COMMENT                   GET RECORD ROOT PAGE
 00006A 95D4 8030/4770_00008        6951                       IF    (NITFLAGS,EQ,'M'),BEGIN
 000072 58E0 72D6/0DEE       00314  6968  1                      VCALL MGETNEW             GET NEW PAGE FROM MEMORY
 000078                             6972                       END
 000078 703E/47F0 7044 00078 00070  6976                       ELSE  BEGIN
 00007C 58E0 72DA/0DEE       00318  6987  1                      VCALL PGETNEW             GET NEW PAGE
 000082                             6991                       END
 000082 4780 704E            0008C  6995                       IF    NZ,BEGIN
 000086 58E0 72DE/0DEE       0031C  7006  1                      VCALL NOMORPG
 00008C                             7010                       END
 00008C 5000 6000            00000  7014                       ST    R0,RECGRP           SAVE ROOT PAGE NUMBER, RGROUP ID
                                    7015
                                    7016                       COMMENT                   FORMAT RECORD PAGE
 000090 1829                        7017                       LR    R2,PAR
 000092 5830 72E2            00320  7018                       L     R3,=A(L'RPAGE)      ZERO PAGE
 000096 1B55                        7019                       SR    R5,R5
 000098 0E24                        7020                       MVCL  R2,R4
 00009A D205 9000 730A 00000 00348  7021                       MVC   RPNAME,=CL6'RECS  ' SET UP PAGE HEADERS
 0000A0 D205 900A 7310 0000A 0034E  7022                       MVC   RPNAME2,=CL6'DATA  '
 0000A6 9680 9014      00014        7023                       SET   RPDATA
 0000AA D203 9006 802C 00006 00004  7029                       MVC   RPUTYPE,NITTYPE
 0000B0 5000 9010            00010  7030                       ST    R0,RPNUMB           PAGE NUMBER
 0000B4 5810 8028            00000  7031                       L     R1,NITNAMLN         SET SEARCH LENGTHS
 0000B8 4010 901E            0001E  7032                       STH   R1,RPNAMELN
 0000BC 4111 0004            00004  7033                       LA    R1,L'NDXSET(R1)
 0000C0 4010 901C            0001C  7034                       STH   R1,RPKEYLN
 0000C4 4111 0004            00004  7035                       LA    R1,L'DATAPTR+L'DATALN(R1)
 0000C8 4010 9020            00020  7036                       STH   R1,RPNTRYLN
 0000CC 4110 9050            00050  7037                       LA    R1,RPAREA           SET DATA POINTERS
 0000D0 1B19                        7038                       SR    R1,PAR
 0000D2 4010 9026            00026  7039                       STH   R1,RPXFIRST
 0000D6 4A10 901C            0001C  7040                       AH    R1,RPKEYLN
 0000DA 4010 9028            00028  7041                       STH   R1,RPXLAST
 0000DE 4A10 901C            0001C  7042                       AH    R1,RPKEYLN
 0000E2 4010 9022            00022  7043                       STH   R1,RPXSTART
 0000E6 4A10 9020            00020  7044                       AH    R1,RPNTRYLN
 0000EA 4010 9024            00024  7045                       STH   R1,RPXEND
 0000EE 4820 9022            00022  7046                       LH    R2,RPXSTART         ADD ZERO 1ST ENTRY
 0000F2 1A29                        7047                       AR    R2,PAR
 0000F4 4830 9020            00020  7048                       LH    R3,RPNTRYLN
 0000F8 1B55                        7049                       CLEAR R5
 0000FA 0E24                        7053                       MVCL  R2,R4
 0000FC 4820 9026            00026  7054                       LH    R2,RPXFIRST         ADD X'000..' FIRST ENTRY LIMIT
 000100 1A29                        7055                       AR    R2,PAR
 000102 4830 901C            0001C  7056                       LH    R3,RPKEYLN
 000106 1B55                        7057                       CLEAR R5
 000108 0E24                        7061                       MVCL  R2,R4
 00010A 4820 9028            00028  7062                       LH    R2,RPXLAST          ADD X'FFF..' LAST ENTRY LIMIT
 00010E 1A29                        7063                       AR    R2,PAR
 000110 4830 901C            0001C  7064                       LH    R3,RPKEYLN
 000114 5850 72E6            00324  7065                       L     R5,=X'FF000000'
 000118 0E24                        7066                       MVCL  R2,R4
 00011A 5810 72E2            00320  7067                       L     R1,=A(L'RPAGE)      SET UP DATA POINTERS
 00011E 4010 902A            0002A  7068                       STH   R1,RPDSTART
1RECS     (RECS2101) (12:53) (15MAR04) INITIALIZE/FREE RECORD GROUP                                                         Page   14
0Current Usings:  (RGROUP,R6) (*,R7) (NITWA-(4+36),R8) (RPAGE,R9) (CP,R11) (CV,R12)
0Loc    Object Code    Addr1 Addr2  Stmt Lv Lineno    Source Statement           (Hibal 5, Asmedit 3.3)  HLASM R4.0  2004/03/15 12.53
+___    ______ ____    _____ _____  ____ __ ______    ______ _________
0000122 4010 902C            0002C  7069                       STH   R1,RPDEND
 000126 4100 9030            00030  7070                       LA    R0,RPINFO           SET UP BINARY SEARCH INFO
 00012A 5810 72EA            00328  7071                       L     R1,=A(L'RPAREA)
 00012E 4820 9020            00020  7072                       LH    R2,RPNTRYLN
 000132 4830 901C            0001C  7073                       LH    R3,RPKEYLN
 000136 4840 9020            00020  7074                       LH    R4,RPNTRYLN
 00013A 58E0 72EE/0DEE       0032C  7075                       ACALL BSINIT
 000140 95D4 8030/4770_00008        7079                       IF    (NITFLAGS,EQ,C'M'),BEGIN
 000148 9640 9015      00015        7096  1                      SET   RPMEMORY            GET PAGES IN MEMORY
 00014C                             7102                       END
 00014C 95D9 8031/4770_00009        7106                       IF    (NITFLAGS+1,EQ,C'R'),BEGIN
 000154 9680 9015      00015        7123  1                      SET   RPRECVRY            RECOVER PAGE
 000158                             7129                       END
 000158 9180 9015/47E0_00015        7133                       IF    RPRECVRY,BEGIN      SET PAGE TYPE /RECOVERY BIT
 000160 4110 9006/1311_      00006  7148  1                      PTYPE PAR,RPUTYPE,RECOVERY=YES
 00016C                             7155                       END
 00016C 7132/47F0 713C 0016C 0015E  7159                       ELSE  BEGIN
 000170 4110 9006/58E0_      00006  7170  1                      PTYPE PAR,RPUTYPE
 00017A                             7176                       END
 00017A 58E0 72F6/0DEE       00334  7180                       PMARK PAR                 MARK PAGE AS CHANGED
 000180 58E0 72FA/0DEE       00338  7185                       PFREE PAR                 FREE PAGE
                                    7191
                                    7192                       COMMENT                   IF RECOVERY PAGES,
 000186 95D9 8031/4770_00009        7193                       IF    (NITFLAGS+1,EQ,C'R'),BEGIN     SET RECOVERY INFO
 00018E 5800 6000            00000  7210  1                      L     R0,RECGRP
 000192 4110 600C            0000C  7211  1                      LA    R1,RECTYPE
 000196 58E0 72FE/0DEE       0033C  7212  1                      VCALL RCVYINFO
 00019C                             7216                       END
                                    7220
 00019C 1BFF                        7221                       CLEAR R15                 RETURN CC = ZERO
 00019E 18D8/9808 D004_             7225                       PEND
 DROP   NITWA-(4+36),R8
 DROP   *,R7
 DROP   RPAGE,R9                    7250                       DROP  PAR
 DROP   RGROUP,R6                   7257                       DROP  R6
1RECS     (RECS2101) (12:53) (15MAR04) INITIALIZE/FREE RECORD GROUP                                                         Page   15
0Current Usings:  (CP,R11) (CV,R12)
0Loc    Object Code    Addr1 Addr2  Stmt Lv Lineno    Source Statement           (Hibal 5, Asmedit 3.3)  HLASM R4.0  2004/03/15 12.53
+___    ______ ____    _____ _____  ____ __ ______    ______ _________
0                                   7265              ¿þþþþþþþþþþþþþþþþþþþþþþþþþþþþþþþþþþþþþþþþþþþþþþþþþþþþþþþþþþþþþþþþþþþþþÜ
                                    7266              Ÿ                                                                     Ÿ
                                    7267              Ÿ                                                                     Ÿ
                                    7268              Ÿ  FREERG - FREE RECORD GROUP PAGES                                   Ÿ
                                    7269              Ÿ                                                                     Ÿ
                                    7270              Ÿ  ON ENTRY:                                                          Ÿ
                                    7271              Ÿ     @R15 - RECORD GROUP INFO BLOCK                                  Ÿ
                                    7272              Ÿ                                                                     Ÿ
                                    7273              Ÿ                                                                     Ÿ
                                    7274              Ÿ                                                                     Ÿ
                                                      ¾þþþþþþþþþþþþþþþþþþþþþþþþþþþþþþþþþþþþþþþþþþþþþþþþþþþþþþþþþþþþþþþþþþþþþ»
00001AC 50E0 D000/9008_      00000  7275              FREERG   XPROC
 USING  *,R7
 USING  RPAGE,R9                    7315                       USING RPAGE,PAR
 USING  RGROUP,R6                   7324                       USING RGROUP,R6
 0001C6 186F                        7333                       LR    R6,R15
 0001C8 1266/4780 70F4_             7334                       IF    ((R6,NZ),AND,(RECGRP,NE,0)),BEGIN
                                    7365  1
                                    7366  1                      COMMENT                   GET MASTER OR DATA PAGE @PAR
 0001D8 5800 6000            00000  7367  1                      L     R0,RECGRP
 0001DC 58E0 717A/0DEE       00340  7368  1                      PGET  PAR,(0)
 0001E2 D505 9000 7182_00000 00348  7377  1                      RPCHECK
                                    7385  1
                                    7386  1                      COMMENT                   IF RECOVERY PAGES,
 0001F8 9180 9015/47E0_00015        7387  1                      IF    RPRECVRY,BEGIN             CLEAR RECORVERY INFO
 000200 1B00                        7402  2                        CLEAR R0
 000202 4110 600C            0000C  7406  2                        LA    R1,RECTYPE
 000206 58E0 7176/0DEE       0033C  7407  2                        VCALL RCVYINFO
 00020C                             7411  1                      END
                                    7415  1
                                    7416  1                      COMMENT                   IF MASTER PAGE,
 00020C 9140 9014/47E0_00014        7417  1                      IF    RPMASTER,BEGIN         GET AND FREE ALL DATA PAGES
 000214 4820 9022            00022  7432  2                        LH    R2,RPXSTART
 000218 1A29                        7433  2                        AR    R2,PAR
 00021A 4840 9024            00024  7434  2                        LH    R4,RPXEND
 00021E 1A49                        7435  2                        AR    R4,PAR
 000220 4830 901C            0001C  7436  2                        LH    R3,RPKEYLN
 000224 50F0 D000/58F0_      00000  7437  2                        PFLIP ,                   PUT MASTER PAGE @PBR
 USING  JCB,R15
 DROP   JCB,R15
                                    7478  2                        USING RPAGE,PAR
 000248 1924/47B0 70C4              7480  2                        WHILE (R2,LT,R4),BEGIN    LOOP FREEING ALL DATA PAGES
 00024E 5803 2000            00000  7497  3                          L     R0,DATAPGNO(R3,R2)
 000252 1B2A                        7498  3                          SR    R2,PBR
 000254 1B4A                        7499  3                          SR    R4,PBR
 000256 58E0 717A/0DEE       00340  7500  3                          PGET  PAR,(R0)
 00025C D505 9000 7182_00000 00348  7508  3                          RPCHECK
 000272 D205 9000 718E 00000 00354  7516  3                          MVC   RPNAME(6),=C'FREED '
 000278 58E0 717E/0DEE       00344  7517  3                          PFREE PAR,EMPTY
 00027E 1A2A                        7523  3                          AR    R2,PBR
 000280 1A4A                        7524  3                          AR    R4,PBR
 000282 4A2A 0020            00020  7525  3                          AH    R2,RPNTRYLN-RPAGE(PBR)
 000286 47F0 7082            00248  7526  2                        END
1RECS     (RECS2101) (12:53) (15MAR04) INITIALIZE/FREE RECORD GROUP                                                         Page   16
0Current Usings:  (RGROUP,R6) (*,R7) (RPAGE,R9) (CP,R11) (CV,R12)
0Loc    Object Code    Addr1 Addr2  Stmt Lv Lineno    Source Statement           (Hibal 5, Asmedit 3.3)  HLASM R4.0  2004/03/15 12.53
+___    ______ ____    _____ _____  ____ __ ______    ______ _________
000028A 50F0 D000/58F0_      00000  7531  2                        PFLIP ,                   RETURN MASTER PAGE TO @PAR
 USING  JCB,R15
 DROP   JCB,R15
 0002AE                             7572  1                      END
                                    7576  1
                                    7577  1                      COMMENT                   FREE ROOT PAGE IN @PAR
 0002AE D205 9000 718E 00000 00354  7578  1                      MVC   RPNAME(6),=C'FREED '
 0002B4 58E0 717E/0DEE       00344  7579  1                      PFREE PAR,EMPTY
                                    7585  1
 0002BA                             7586                       END
 0002BA D71F 6000 6000 00000 00000  7590                       CLEAR RGROUP
 0002C0 1BFF                        7597                       CLEAR R15
 0002C2 18D8/9808 D004_             7601                       PEND
 DROP   *,R7
                                    7621                       DROP  PBR
 DROP   RGROUP,R6                   7625                       DROP  R6
1RECS     (RECS2101) (12:53) (15MAR04) INITIALIZE/FREE RECORD GROUP                                                         Page   17
0Current Usings:  (RPAGE,R9) (CP,R11) (CV,R12)
0Loc    Object Code    Addr1 Addr2  Stmt Lv Lineno    Source Statement           (Hibal 5, Asmedit 3.3)  HLASM R4.0  2004/03/15 12.53
+___    ______ ____    _____ _____  ____ __ ______    ______ _________
0                                   7633              ¿þþþþþþþþþþþþþþþþþþþþþþþþþþþþþþþþþþþþþþþþþþþþþþþþþþþþþþþþþþþþþþþþþþþþþÜ
                                    7634              Ÿ                                                                     Ÿ
                                    7635              Ÿ                                                                     Ÿ
                                    7636              Ÿ  XGETINFO - GET RECORD GROUP INFORMATION                            Ÿ
                                    7637              Ÿ                                                                     Ÿ
                                    7638              Ÿ  ON ENTRY:                                                          Ÿ
                                    7639              Ÿ     @R15 - RECORD GROUP INFO BLOCK                                  Ÿ
                                    7640              Ÿ                                                                     Ÿ
                                    7641              Ÿ  ON EXIT:                                                           Ÿ
                                    7642              Ÿ       R0 - MASTER PAGE NUMBER                                       Ÿ
                                    7643              Ÿ       R1 - LENGTH OF RECORD NAMES                                   Ÿ
                                    7644              Ÿ      R15 - CONTAINS 4 CHARATER RECORD GROUP TYPE NAME               Ÿ
                                    7645              Ÿ                                                                     Ÿ
                                    7646              Ÿ                                                                     Ÿ
                                    7647              Ÿ  NOTE: INPUT, OUTPUT PARAMETERS ARE NOT VALIDITY CHECKED.           Ÿ
                                    7648              Ÿ        PARMS ARE JUST LOADED FROM RECORD GROUP INFO OFFSETS.        Ÿ
                                    7649              Ÿ                                                                     Ÿ
                                    7650              Ÿ                                                                     Ÿ
                                                      ¾þþþþþþþþþþþþþþþþþþþþþþþþþþþþþþþþþþþþþþþþþþþþþþþþþþþþþþþþþþþþþþþþþþþþþ»
00002D0 50E0 D000/9008_      00000  7651              XGETINFO XPROC
 USING  *,R7
 USING  RGROUP,R6                   7691                       USING RGROUP,R6
 0002EA 186F                        7700                       LR    R6,R15
 0002EC 5800 6000            00000  7701                       L     R0,RECGRP
 0002F0 4810 6008            00008  7702                       LH    R1,RECNLEN
 0002F4 58F0 600C            0000C  7703                       L     R15,RECTYPE
 0002F8 9001 8004            00004  7704                       PRETURN (R0,R1)
 0002FC 18D8/9808 D004_             7706                       PEND
 DROP   *,R7
 DROP   RGROUP,R6                   7726                       DROP  R6
1RECS     (RECS2101) (12:53) (15MAR04) INITIALIZE/FREE RECORD GROUP                                                         Page   18
0Current Usings:  (RPAGE,R9) (CP,R11) (CV,R12)
0Loc    Object Code    Addr1 Addr2  Stmt Lv Lineno    Source Statement           (Hibal 5, Asmedit 3.3)  HLASM R4.0  2004/03/15 12.53
+___    ______ ____    _____ _____  ____ __ ______    ______ _________
0                                   7734                       QLTORG
1RECS     (RECS2101) (12:53) (15MAR04) GET RECORD ROUTINES                                                                  Page   19
0Current Usings:  (RPAGE,R9) (CP,R11) (CV,R12)
0Loc    Object Code    Addr1 Addr2  Stmt Lv Lineno    Source Statement           (Hibal 5, Asmedit 3.3)  HLASM R4.0  2004/03/15 12.53
+___    ______ ____    _____ _____  ____ __ ______    ______ _________
0                                   7765              ¿þþþþþþþþþþþþþþþþþþþþþþþþþþþþþþþþþþþþþþþþþþþþþþþþþþþþþþþþþþþþþþþþþþþþþÜ
                                    7766              Ÿ                                                                     Ÿ
                                    7767              Ÿ                                                                     Ÿ
                                    7768              Ÿ  XGET   - GET A RECORD                                              Ÿ
                                    7769              Ÿ                                                                     Ÿ
                                    7770              Ÿ  ON ENTRY:                                                          Ÿ
                                    7771              Ÿ     @R15 - RECORD GROUP INFO BLOCK                                  Ÿ
                                    7772              Ÿ       R0 - LENGTH OF RETURN BUFFER                                  Ÿ
                                    7773              Ÿ       R1 - ADDRESS OF RETURN BUFFER                                 Ÿ
                                    7774              Ÿ      @R2 - RECORD NAME                                              Ÿ
                                    7775              Ÿ                                                                     Ÿ
                                    7776              Ÿ  ON EXIT:                                                           Ÿ
                                    7777              Ÿ       R0 - LENGTH OF RECORD OBTAINED                                Ÿ
                                    7778              Ÿ       R1 - UNCHANGED, ADDRESS OF RECORD OBTAINED                    Ÿ
                                    7779              Ÿ      R15 - CC = ZERO, IF RECORD FOUND                               Ÿ
                                    7780              Ÿ            CC = NZ, IF RECORD NOT FOUND                             Ÿ
                                    7781              Ÿ      PAR - PAGE OBTAINED                                            Ÿ
                                    7782              Ÿ                                                                     Ÿ
                                    7783              Ÿ  WARNING: RECORD IS RETURNED INTO BUFFER SPECIFIED BY R1,R0.        Ÿ
                                    7784              Ÿ    IF THE BUFFER IS TOO SMALL THE RECORD WILL BE TRUNCATED,         Ÿ
                                    7785              Ÿ    R0 WILL BE THE TRUNCATED LENGTH, AND CC=ZERO.                    Ÿ
                                    7786              Ÿ                                                                     Ÿ
                                    7787              Ÿ                                                                     Ÿ
                                                      ¾þþþþþþþþþþþþþþþþþþþþþþþþþþþþþþþþþþþþþþþþþþþþþþþþþþþþþþþþþþþþþþþþþþþþþ»
000035A 50E0 D000/9008_      00000  7788              XGET     XPROC
 USING  *,R7
 000374 1841                        7828                       LR    R4,R1               R4,R5 - BUFFER LOC, LEN
 000376 1850                        7829                       LR    R5,R0
 000378 58E0 76D4/0DEE       00A48  7830                       ACALL XLOCATE
 00037E 4770 701C            00390  7834                       IF    Z,BEGIN
 000382 1905/47D0 7016              7845  1                      IF    (R0,GT,R5),BEGIN    TRUNCATE IF NECESSARY
 000388 1805                        7860  2                        LR    R0,R5
 00038A                             7861  1                      END
 00038A 1821                        7865  1                      LR    R2,R1               R2,R3 - RECORD LOC, LEN
 00038C 1830                        7866  1                      LR    R3,R0
 00038E 0E42                        7867  1                      MVCL  R4,R2
 000390                             7868                       END
 000390 5008 0004            00004  7872                       PRETURN R0
 000394 18D8/9808 D004_             7874                       PEND
 DROP   *,R7
1RECS     (RECS2101) (12:53) (15MAR04) GET RECORD ROUTINES                                                                  Page   20
0Current Usings:  (RPAGE,R9) (CP,R11) (CV,R12)
0Loc    Object Code    Addr1 Addr2  Stmt Lv Lineno    Source Statement           (Hibal 5, Asmedit 3.3)  HLASM R4.0  2004/03/15 12.53
+___    ______ ____    _____ _____  ____ __ ______    ______ _________
0                                   7895              ¿þþþþþþþþþþþþþþþþþþþþþþþþþþþþþþþþþþþþþþþþþþþþþþþþþþþþþþþþþþþþþþþþþþþþþÜ
                                    7896              Ÿ                                                                     Ÿ
                                    7897              Ÿ                                                                     Ÿ
                                    7898              Ÿ  XGETNEXT - GET NEXT RECORD                                         Ÿ
                                    7899              Ÿ                                                                     Ÿ
                                    7900              Ÿ  ON ENTRY:                                                          Ÿ
                                    7901              Ÿ     @R15 - RECORD GROUP INFO BLOCK                                  Ÿ
                                    7902              Ÿ       R0 - LENGTH OF RETURN BUFFER                                  Ÿ
                                    7903              Ÿ       R1 - ADDRESS OF RETURN BUFFER                                 Ÿ
                                    7904              Ÿ      @R2 - RECORD NAME                                              Ÿ
                                    7905              Ÿ                                                                     Ÿ
                                    7906              Ÿ  ON EXIT:                                                           Ÿ
                                    7907              Ÿ       R0 - LENGTH OF RECORD OBTAINED                                Ÿ
                                    7908              Ÿ       R1 - UNCHANGED, ADDRESS OF RECORD OBTAINED                    Ÿ
                                    7909              Ÿ      R15 - CC = ZERO, IF RECORD FOUND                               Ÿ
                                    7910              Ÿ            CC = NZ, IF NEXT RECORD DOES NOT EXIST                   Ÿ
                                    7911              Ÿ      PAR - PAGE OBTAINED                                            Ÿ
                                    7912              Ÿ                                                                     Ÿ
                                    7913              Ÿ  WARNING: RECORD IS RETURNED INTO BUFFER SPECIFIED BY R1,R0.        Ÿ
                                    7914              Ÿ    IF THE BUFFER IS TOO SMALL THE RECORD WILL BE TRUNCATED,         Ÿ
                                    7915              Ÿ    R0 WILL BE THE TRUNCATED LENGTH, AND CC=ZERO.                    Ÿ
                                    7916              Ÿ                                                                     Ÿ
                                    7917              Ÿ                                                                     Ÿ
                                                      ¾þþþþþþþþþþþþþþþþþþþþþþþþþþþþþþþþþþþþþþþþþþþþþþþþþþþþþþþþþþþþþþþþþþþþþ»
00003A2 50E0 D000/9008_      00000  7918              XGETNEXT XPROC
 USING  *,R7
 0003BC 1841                        7958                       LR    R4,R1               R4,R5 - BUFFER LOC, LEN
 0003BE 1850                        7959                       LR    R5,R0
 0003C0 58E0 7690/0DEE       00A4C  7960                       ACALL XLOCNEXT
 0003C6 4770 701C            003D8  7964                       IF    Z,BEGIN
 0003CA 1905/47D0 7016              7975  1                      IF    (R0,GT,R5),BEGIN    TRUNCATE IF NECESSARY
 0003D0 1805                        7990  2                        LR    R0,R5
 0003D2                             7991  1                      END
 0003D2 1821                        7995  1                      LR    R2,R1               R2,R3 - RECORD LOC, LEN
 0003D4 1830                        7996  1                      LR    R3,R0
 0003D6 0E42                        7997  1                      MVCL  R4,R2
 0003D8                             7998                       END
 0003D8 5008 0004            00004  8002                       PRETURN R0
 0003DC 18D8/9808 D004_             8004                       PEND
 DROP   *,R7
1RECS     (RECS2101) (12:53) (15MAR04) GET RECORD ROUTINES                                                                  Page   21
0Current Usings:  (RPAGE,R9) (CP,R11) (CV,R12)
0Loc    Object Code    Addr1 Addr2  Stmt Lv Lineno    Source Statement           (Hibal 5, Asmedit 3.3)  HLASM R4.0  2004/03/15 12.53
+___    ______ ____    _____ _____  ____ __ ______    ______ _________
0                                   8025              ¿þþþþþþþþþþþþþþþþþþþþþþþþþþþþþþþþþþþþþþþþþþþþþþþþþþþþþþþþþþþþþþþþþþþþþÜ
                                    8026              Ÿ                                                                     Ÿ
                                    8027              Ÿ                                                                     Ÿ
                                    8028              Ÿ  XGETPREV - GET PREVIOUS RECORD                                     Ÿ
                                    8029              Ÿ                                                                     Ÿ
                                    8030              Ÿ  ON ENTRY:                                                          Ÿ
                                    8031              Ÿ     @R15 - RECORD GROUP INFO BLOCK                                  Ÿ
                                    8032              Ÿ       R0 - LENGTH OF RETURN BUFFER                                  Ÿ
                                    8033              Ÿ       R1 - ADDRESS OF RETURN BUFFER                                 Ÿ
                                    8034              Ÿ      @R2 - RECORD NAME                                              Ÿ
                                    8035              Ÿ                                                                     Ÿ
                                    8036              Ÿ  ON EXIT:                                                           Ÿ
                                    8037              Ÿ       R0 - LENGTH OF RECORD OBTAINED                                Ÿ
                                    8038              Ÿ       R1 - UNCHANGED, ADDRESS OF RECORD OBTAINED                    Ÿ
                                    8039              Ÿ      R15 - CC = ZERO, IF RECORD FOUND                               Ÿ
                                    8040              Ÿ            CC = NZ, IF PREVIOUS RECORD DOES NOT EXIST               Ÿ
                                    8041              Ÿ      PAR - PAGE OBTAINED                                            Ÿ
                                    8042              Ÿ                                                                     Ÿ
                                    8043              Ÿ  WARNING: RECORD IS RETURNED INTO BUFFER SPECIFIED BY R1,R0.        Ÿ
                                    8044              Ÿ    IF THE BUFFER IS TOO SMALL THE RECORD WILL BE TRUNCATED,         Ÿ
                                    8045              Ÿ    R0 WILL BE THE TRUNCATED LENGTH, AND CC=ZERO.                    Ÿ
                                    8046              Ÿ                                                                     Ÿ
                                    8047              Ÿ                                                                     Ÿ
                                                      ¾þþþþþþþþþþþþþþþþþþþþþþþþþþþþþþþþþþþþþþþþþþþþþþþþþþþþþþþþþþþþþþþþþþþþþ»
00003EA 50E0 D000/9008_      00000  8048              XGETPREV XPROC
 USING  *,R7
 000404 1841                        8088                       LR    R4,R1               R4,R5 - BUFFER LOC, LEN
 000406 1850                        8089                       LR    R5,R0
 000408 58E0 764C/0DEE       00A50  8090                       ACALL XLOCPREV
 00040E 4770 701C            00420  8094                       IF    Z,BEGIN
 000412 1905/47D0 7016              8105  1                      IF    (R0,GT,R5),BEGIN    TRUNCATE IF NECESSARY
 000418 1805                        8120  2                        LR    R0,R5
 00041A                             8121  1                      END
 00041A 1821                        8125  1                      LR    R2,R1               R2,R3 - RECORD LOC, LEN
 00041C 1830                        8126  1                      LR    R3,R0
 00041E 0E42                        8127  1                      MVCL  R4,R2
 000420                             8128                       END
 000420 5008 0004            00004  8132                       PRETURN R0
 000424 18D8/9808 D004_             8134                       PEND
 DROP   *,R7
1RECS     (RECS2101) (12:53) (15MAR04) GET RECORD ROUTINES                                                                  Page   22
0Current Usings:  (RPAGE,R9) (CP,R11) (CV,R12)
0Loc    Object Code    Addr1 Addr2  Stmt Lv Lineno    Source Statement           (Hibal 5, Asmedit 3.3)  HLASM R4.0  2004/03/15 12.53
+___    ______ ____    _____ _____  ____ __ ______    ______ _________
0                                   8155              ¿þþþþþþþþþþþþþþþþþþþþþþþþþþþþþþþþþþþþþþþþþþþþþþþþþþþþþþþþþþþþþþþþþþþþþÜ
                                    8156              Ÿ                                                                     Ÿ
                                    8157              Ÿ                                                                     Ÿ
                                    8158              Ÿ  XGETFRST - GET FIRST RECORD IN RANGE                               Ÿ
                                    8159              Ÿ                                                                     Ÿ
                                    8160              Ÿ  ON ENTRY:                                                          Ÿ
                                    8161              Ÿ     @R15 - RECORD GROUP INFO BLOCK                                  Ÿ
                                    8162              Ÿ       R0 - LENGTH OF RETURN BUFFER                                  Ÿ
                                    8163              Ÿ       R1 - ADDRESS OF RETURN BUFFER                                 Ÿ
                                    8164              Ÿ      @R2 - RECORD NAME (MARKS START OF RANGE)                       Ÿ
                                    8165              Ÿ            (NO END OF RANGE IS SPECIFIED, LAST ALWAYS ASSUMED)      Ÿ
                                    8166              Ÿ                                                                     Ÿ
                                    8167              Ÿ  ON EXIT:                                                           Ÿ
                                    8168              Ÿ       R0 - LENGTH OF RECORD OBTAINED                                Ÿ
                                    8169              Ÿ       R1 - UNCHANGED, ADDRESS OF RECORD OBTAINED                    Ÿ
                                    8170              Ÿ      R15 - CC = ZERO, IF RECORD FOUND                               Ÿ
                                    8171              Ÿ            CC = NZ, IF RECORD NO RECORD IN RANGE                    Ÿ
                                    8172              Ÿ      PAR - PAGE OBTAINED                                            Ÿ
                                    8173              Ÿ                                                                     Ÿ
                                    8174              Ÿ  WARNING: RECORD IS RETURNED INTO BUFFER SPECIFIED BY R1,R0.        Ÿ
                                    8175              Ÿ    IF THE BUFFER IS TOO SMALL THE RECORD WILL BE TRUNCATED,         Ÿ
                                    8176              Ÿ    R0 WILL BE THE TRUNCATED LENGTH, AND CC=ZERO.                    Ÿ
                                    8177              Ÿ                                                                     Ÿ
                                    8178              Ÿ                                                                     Ÿ
                                                      ¾þþþþþþþþþþþþþþþþþþþþþþþþþþþþþþþþþþþþþþþþþþþþþþþþþþþþþþþþþþþþþþþþþþþþþ»
0000432 50E0 D000/9008_      00000  8179              XGETFRST XPROC
 USING  *,R7
 00044C 1841                        8219                       LR    R4,R1               R4,R5 - BUFFER LOC, LEN
 00044E 1850                        8220                       LR    R5,R0
 000450 58E0 7608/0DEE       00A54  8221                       ACALL XLOCFRST
 000456 4770 701C            00468  8225                       IF    Z,BEGIN
 00045A 1905/47D0 7016              8236  1                      IF    (R0,GT,R5),BEGIN    TRUNCATE IF NECESSARY
 000460 1805                        8251  2                        LR    R0,R5
 000462                             8252  1                      END
 000462 1821                        8256  1                      LR    R2,R1               R2,R3 - RECORD LOC, LEN
 000464 1830                        8257  1                      LR    R3,R0
 000466 0E42                        8258  1                      MVCL  R4,R2
 000468                             8259                       END
 000468 5008 0004            00004  8263                       PRETURN R0
 00046C 18D8/9808 D004_             8265                       PEND
 DROP   *,R7
1RECS     (RECS2101) (12:53) (15MAR04) GET RECORD ROUTINES                                                                  Page   23
0Current Usings:  (RPAGE,R9) (CP,R11) (CV,R12)
0Loc    Object Code    Addr1 Addr2  Stmt Lv Lineno    Source Statement           (Hibal 5, Asmedit 3.3)  HLASM R4.0  2004/03/15 12.53
+___    ______ ____    _____ _____  ____ __ ______    ______ _________
0                                   8286              ¿þþþþþþþþþþþþþþþþþþþþþþþþþþþþþþþþþþþþþþþþþþþþþþþþþþþþþþþþþþþþþþþþþþþþþÜ
                                    8287              Ÿ                                                                     Ÿ
                                    8288              Ÿ                                                                     Ÿ
                                    8289              Ÿ  XGETLAST - GET LAST RECORD IN RANGE                                Ÿ
                                    8290              Ÿ                                                                     Ÿ
                                    8291              Ÿ  ON ENTRY:                                                          Ÿ
                                    8292              Ÿ     @R15 - RECORD GROUP INFO BLOCK                                  Ÿ
                                    8293              Ÿ       R0 - LENGTH OF RETURN BUFFER                                  Ÿ
                                    8294              Ÿ       R1 - ADDRESS OF RETURN BUFFER                                 Ÿ
                                    8295              Ÿ      @R2 - RECORD NAME (MARKS END OF RANGE)                         Ÿ
                                    8296              Ÿ            (NO START OF RANGE IS SPECIFIED, ZERO ALWAYS ASSUMED)    Ÿ
                                    8297              Ÿ                                                                     Ÿ
                                    8298              Ÿ  ON EXIT:                                                           Ÿ
                                    8299              Ÿ       R0 - LENGTH OF RECORD OBTAINED                                Ÿ
                                    8300              Ÿ       R1 - UNCHANGED, ADDRESS OF RECORD OBTAINED                    Ÿ
                                    8301              Ÿ      R15 - CC = ZERO, IF RECORD FOUND                               Ÿ
                                    8302              Ÿ            CC = NZ, IF RECORD NO RECORD IN RANGE                    Ÿ
                                    8303              Ÿ      PAR - PAGE OBTAINED                                            Ÿ
                                    8304              Ÿ                                                                     Ÿ
                                    8305              Ÿ  WARNING: RECORD IS RETURNED INTO BUFFER SPECIFIED BY R1,R0.        Ÿ
                                    8306              Ÿ    IF THE BUFFER IS TOO SMALL THE RECORD WILL BE TRUNCATED,         Ÿ
                                    8307              Ÿ    R0 WILL BE THE TRUNCATED LENGTH, AND CC=ZERO.                    Ÿ
                                    8308              Ÿ                                                                     Ÿ
                                    8309              Ÿ                                                                     Ÿ
                                                      ¾þþþþþþþþþþþþþþþþþþþþþþþþþþþþþþþþþþþþþþþþþþþþþþþþþþþþþþþþþþþþþþþþþþþþþ»
000047A 50E0 D000/9008_      00000  8310              XGETLAST XPROC
 USING  *,R7
 000494 1841                        8350                       LR    R4,R1               R4,R5 - BUFFER LOC, LEN
 000496 1850                        8351                       LR    R5,R0
 000498 58E0 75C4/0DEE       00A58  8352                       ACALL XLOCLAST
 00049E 4770 701C            004B0  8356                       IF    Z,BEGIN
 0004A2 1905/47D0 7016              8367  1                      IF    (R0,GT,R5),BEGIN    TRUNCATE IF NECESSARY
 0004A8 1805                        8382  2                        LR    R0,R5
 0004AA                             8383  1                      END
 0004AA 1821                        8387  1                      LR    R2,R1               R2,R3 - RECORD LOC, LEN
 0004AC 1830                        8388  1                      LR    R3,R0
 0004AE 0E42                        8389  1                      MVCL  R4,R2
 0004B0                             8390                       END
 0004B0 5008 0004            00004  8394                       PRETURN R0
 0004B4 18D8/9808 D004_             8396                       PEND
 DROP   *,R7
1RECS     (RECS2101) (12:53) (15MAR04) LOCATE RECORD ROUTINES                                                               Page   24
0Current Usings:  (RPAGE,R9) (CP,R11) (CV,R12)
0Loc    Object Code    Addr1 Addr2  Stmt Lv Lineno    Source Statement           (Hibal 5, Asmedit 3.3)  HLASM R4.0  2004/03/15 12.53
+___    ______ ____    _____ _____  ____ __ ______    ______ _________
0                                   8417              ¿þþþþþþþþþþþþþþþþþþþþþþþþþþþþþþþþþþþþþþþþþþþþþþþþþþþþþþþþþþþþþþþþþþþþþÜ
                                    8418              Ÿ                                                                     Ÿ
                                    8419              Ÿ                                                                     Ÿ
                                    8420              Ÿ  LLOCATE - LOCATE RECORD (LONG VERSION)                             Ÿ
                                    8421              Ÿ                                                                     Ÿ
                                    8422              Ÿ  ON ENTRY:                                                          Ÿ
                                    8423              Ÿ     @R15 - RECORD GROUP INFO BLOCK                                  Ÿ
                                    8424              Ÿ       R0 - NOT USED                                                 Ÿ
                                    8425              Ÿ       R1 - NOT USED                                                 Ÿ
                                    8426              Ÿ      @R2 - SEARCH NAME                                              Ÿ
                                    8427              Ÿ                                                                     Ÿ
                                    8428              Ÿ  ON EXIT:                                                           Ÿ
                                    8429              Ÿ       R0 - LENGTH OF DATA                                           Ÿ
                                    8430              Ÿ       R1 - LOCATION OF DATA                                         Ÿ
                                    8431              Ÿ      R15 - CC = ZERO, IF RECORD FOUND                               Ÿ
                                    8432              Ÿ            CC = NZ, IF RECORD NOT FOUND                             Ÿ
                                    8433              Ÿ      PAR - PAGE OBTAINED                                            Ÿ
                                    8434              Ÿ                                                                     Ÿ
                                    8435              Ÿ  WARNING, R1 RETURNS POINTER INTO PAGED AREA, DATA MUST BE          Ÿ
                                    8436              Ÿ    MUST BE REFERENCED OR MOVED BEFORE ADDITIONAL DISPATCHES !       Ÿ
                                    8437              Ÿ                                                                     Ÿ
                                    8438              Ÿ                                                                     Ÿ
                                                      ¾þþþþþþþþþþþþþþþþþþþþþþþþþþþþþþþþþþþþþþþþþþþþþþþþþþþþþþþþþþþþþþþþþþþþþ»
0000000                00000 0008C  8439              SEARCHWA RECORD BEGIN
 000000                             8447  1           SRCHINFO   DS    A                   ADDRESS OF RECORD INFO
 000004                             8448  1           SRCHPARM   DS    A                   ADDRESS OF SEARCH NAME PARM
 000008                             8449  1           SRCHKEY    DS    (MXKEYLN)X          SEARCH KEY
                                    8450  1           SRCHSET    EQU   SRCHKEY,4             SEARCH SET NUMBER
                                    8451  1           SRCHNAME   EQU   SRCHKEY+4,MXNAMELN    SEARCH NAME
 00008C                0008C 0008C  8452                       END
                                    8461              *
                                    8462              *
 0004C2 50E0 D000/9008_      00000  8463              LLOCATE  PROC  SEARCHWA
 USING  *,R7
 USING  SEARCHWA-(4+36),R8
                                    8513                       USING RPAGE,PAR
 USING  RGROUP,R6                   8515                       USING RGROUP,R6
 0004DC 186F                        8524                       LR    R6,R15
 0004DE 5020 802C            00004  8525                       ST    R2,SRCHPARM         SAVE ENTRY PARM ADDRESSES
 0004E2 50F0 8028            00000  8526                       ST    R15,SRCHINFO
 0004E6 D203 8030 6004 00008 00004  8527                       MVC   SRCHSET,RECSET      SAVE SEARCH SET NUMBER
 0004EC 4830 6008            00008  8528                       LH    R3,RECNLEN
 0004F0 4140 8034            0000C  8529                       LA    R4,SRCHNAME
 0004F4 1853                        8530                       LR    R5,R3
 0004F6 0E42                        8531                       MVCL  R4,R2               SAVE SEARCH NAME
 0004F8 D703 6010 6010 00010 00010  8532                       CLEAR RECQPG              RESET QUICK GET/PUT INFO
 0004FE D701 6018 6018 00018 00018  8539                       CLEAR RECQOFF
 000504 D503 7564 6000_00A40 00000  8546                       IF    ((RECGRP,EQ,0),OR,(RECSET,EQ,0)),BEGIN  IF NULL
 000518 41F0 0004            00004  8581  1                      LA    R15,4
 00051C                             8582                       END
                                    8586
 00051C 7044/47F0 7090 0051C 00516  8587                       ELSE  BEGIN ,             IF VALID REC GROUP, SET,,,
 000520 41F0 6000            00000  8598  1                      LA    R15,RGROUP
1RECS     (RECS2101) (12:53) (15MAR04) LOCATE RECORD ROUTINES                                                               Page   25
0Current Usings:  (RGROUP,R6) (*,R7) (SEARCHWA-(4+36),R8) (RPAGE,R9) (CP,R11) (CV,R12)
0Loc    Object Code    Addr1 Addr2  Stmt Lv Lineno    Source Statement           (Hibal 5, Asmedit 3.3)  HLASM R4.0  2004/03/15 12.53
+___    ______ ____    _____ _____  ____ __ ______    ______ _________
0000524 4120 8030            00008  8599  1                      LA    R2,SRCHKEY
 000528 58E0 7580/0DEE       00A5C  8600  1                      ACALL GETDPAGE            GET DATA PAGE # INTO PAR
                                    8604  1
 00052E 4100 9030            00030  8605  1                      LA    R0,RPINFO           BSEARCH PAGE TO GET DATA INDEX
 000532 4810 9022            00022  8606  1                      LH    R1,RPXSTART
 000536 1A19                        8607  1                      AR    R1,PAR
 000538 4120 8030            00008  8608  1                      LA    R2,SRCHKEY
 00053C 58E0 7584/0DEE       00A60  8609  1                      ACALL BSEARCH             GET DATA INDEX
 000542 4780 706E            0054A  8613  1                      IF    NZ,BEGIN            IF DATA NOT FOUND,
 000546 41F0 0004            00004  8624  2                        LA    R15,4
 00054A                             8625  1                      END
 00054A 7072/47F0 7090 0054A 00544  8629  1                      ELSE  BEGIN  ,            IF DATA FOUND,,,
 00054E D203 6010 9010 00010 00010  8640  2                        MVC   RECQPG,RPNUMB       SET QUICK GET/PUT INFO
 000554 1831                        8641  2                        LR    R3,R1
 000556 1B39                        8642  2                        SR    R3,PAR
 000558 4030 6018            00018  8643  2                        STH   R3,RECQOFF
 00055C 4830 901C            0001C  8644  2                        LH    R3,RPKEYLN
 000560 4803 1002            00002  8645  2                        LH    R0,DATALN(R3,R1)      GET DATA ADDR, LENGTH
 000564 4813 1000            00000  8646  2                        LH    R1,DATAPTR(R3,R1)
 000568 1A19                        8647  2                        AR    R1,PAR                RETURN R1  - LOCATION OF DATA
                                    8648  2                        COMMENT                     RETURN R0  - LEN OF DATA
 00056A 1BFF                        8649  2                        CLEAR R15                   SET CC=ZERO, DATA FOUND
 00056C                             8653  1                      END
 00056C                             8657                       END
                                    8661
 00056C 9001 8004            00004  8662                       PRETURN (R0,R1)
 000570 18D8/9808 D004_             8664                       PEND
 DROP   SEARCHWA-(4+36),R8
 DROP   *,R7
 DROP   RPAGE,R9                    8689                       DROP  PAR
 DROP   RGROUP,R6                   8696                       DROP  R6
1RECS     (RECS2101) (12:53) (15MAR04) LOCATE RECORD ROUTINES                                                               Page   26
0Current Usings:  (CP,R11) (CV,R12)
0Loc    Object Code    Addr1 Addr2  Stmt Lv Lineno    Source Statement           (Hibal 5, Asmedit 3.3)  HLASM R4.0  2004/03/15 12.53
+___    ______ ____    _____ _____  ____ __ ______    ______ _________
0                                   8704              ¿þþþþþþþþþþþþþþþþþþþþþþþþþþþþþþþþþþþþþþþþþþþþþþþþþþþþþþþþþþþþþþþþþþþþþÜ
                                    8705              Ÿ                                                                     Ÿ
                                    8706              Ÿ                                                                     Ÿ
                                    8707              Ÿ  XLOCATE - LOCATE RECORD (QUICK VERSION)                            Ÿ
                                    8708              Ÿ                                                                     Ÿ
                                    8709              Ÿ  ON ENTRY:                                                          Ÿ
                                    8710              Ÿ     @R15 - RECORD GROUP INFO BLOCK                                  Ÿ
                                    8711              Ÿ       R0 - NOT USED                                                 Ÿ
                                    8712              Ÿ       R1 - NOT USED                                                 Ÿ
                                    8713              Ÿ      @R2 - SEARCH NAME                                              Ÿ
                                    8714              Ÿ                                                                     Ÿ
                                    8715              Ÿ  ON EXIT:                                                           Ÿ
                                    8716              Ÿ       R0 - LENGTH OF DATA                                           Ÿ
                                    8717              Ÿ       R1 - LOCATION OF DATA                                         Ÿ
                                    8718              Ÿ      R15 - CC = ZERO, IF RECORD FOUND                               Ÿ
                                    8719              Ÿ            CC = NZ, IF RECORD NOT FOUND                             Ÿ
                                    8720              Ÿ      PAR - PAGE OBTAINED                                            Ÿ
                                    8721              Ÿ                                                                     Ÿ
                                    8722              Ÿ  WARNING, R1 RETURNS POINTER INTO PAGED AREA, DATA MUST BE          Ÿ
                                    8723              Ÿ    MUST BE REFERENCED OR MOVED BEFORE ADDITIONAL DISPATCHES !       Ÿ
                                    8724              Ÿ                                                                     Ÿ
                                    8725              Ÿ                                                                     Ÿ
                                                      ¾þþþþþþþþþþþþþþþþþþþþþþþþþþþþþþþþþþþþþþþþþþþþþþþþþþþþþþþþþþþþþþþþþþþþþ»
000057E 50E0 D000/9008_      00000  8726              XLOCATE  XPROC SEARCHWA
 USING  *,R7
 USING  SEARCHWA-(4+36),R8
 USING  RPAGE,R9                    8777                       USING RPAGE,PAR
 USING  RGROUP,R6                   8786                       USING RGROUP,R6
 000598 186F                        8795                       LR    R6,R15
 00059A 5020 802C            00004  8796                       ST    R2,SRCHPARM         SAVE ENTRY PARM ADDRESSES
 00059E 50F0 8028            00000  8797                       ST    R15,SRCHINFO
 0005A2 D203 8030 6004 00008 00004  8798                       MVC   SRCHSET,RECSET      SAVE SEARCH SET NUMBER
 0005A8 4830 6008            00008  8799                       LH    R3,RECNLEN
 0005AC 4140 8034            0000C  8800                       LA    R4,SRCHNAME
 0005B0 1853                        8801                       LR    R5,R3
 0005B2 0E42                        8802                       MVCL  R4,R2               SAVE SEARCH NAME
 0005B4 D503 74A8 6000_00A40 00000  8803                       IF    ((RECGRP,EQ,0),OR,(RECSET,EQ,0)),BEGIN  IF NULL
 0005C8 41F0 0004            00004  8838  1                      LA    R15,4
 0005CC                             8839                       END
                                    8843
 0005CC 7038/47F0 7096 005CC 005C6  8844                       ELSE  BEGIN ,             IF VALID REC GROUP, SET,,,
 0005D0 41F0 6000            00000  8855  1                      LA    R15,RGROUP
 0005D4 4120 8030            00008  8856  1                      LA    R2,SRCHKEY
 0005D8 58E0 74CC/0DEE       00A64  8857  1                      ACALL CHKQPAGE            TRY QUICK PAGE GET
 0005DE 4780 7058            005F0  8861  1                      IF    NZ,BEGIN
 0005E2 41F0 6000            00000  8872  2                        LA    R15,RGROUP
 0005E6 4120 8030            00008  8873  2                        LA    R2,SRCHKEY
 0005EA 58E0 74C4/0DEE       00A5C  8874  2                        ACALL GETDPAGE            GET DATA PAGE # INTO PAR
 0005F0                             8878  1                      END
                                    8882  1
 0005F0 4100 9030            00030  8883  1                      LA    R0,RPINFO           BSEARCH PAGE TO GET DATA INDEX
 0005F4 4810 9022            00022  8884  1                      LH    R1,RPXSTART
 0005F8 1A19                        8885  1                      AR    R1,PAR
1RECS     (RECS2101) (12:53) (15MAR04) LOCATE RECORD ROUTINES                                                               Page   27
0Current Usings:  (RGROUP,R6) (*,R7) (SEARCHWA-(4+36),R8) (RPAGE,R9) (CP,R11) (CV,R12)
0Loc    Object Code    Addr1 Addr2  Stmt Lv Lineno    Source Statement           (Hibal 5, Asmedit 3.3)  HLASM R4.0  2004/03/15 12.53
+___    ______ ____    _____ _____  ____ __ ______    ______ _________
00005FA 4120 8030            00008  8886  1                      LA    R2,SRCHKEY
 0005FE 58E0 74C8/0DEE       00A60  8887  1                      ACALL BSEARCH             GET DATA INDEX
 000604 4780 7074            0060C  8891  1                      IF    NZ,BEGIN            IF DATA NOT FOUND,
 000608 41F0 0004            00004  8902  2                        LA    R15,4
 00060C                             8903  1                      END
 00060C 7078/47F0 7096 0060C 00606  8907  1                      ELSE  BEGIN  ,            IF DATA FOUND,,,
 000610 D203 6010 9010 00010 00010  8918  2                        MVC   RECQPG,RPNUMB       SET QUICK GET/PUT INFO
 000616 1831                        8919  2                        LR    R3,R1
 000618 1B39                        8920  2                        SR    R3,PAR
 00061A 4030 6018            00018  8921  2                        STH   R3,RECQOFF
 00061E 4830 901C            0001C  8922  2                        LH    R3,RPKEYLN
 000622 4803 1002            00002  8923  2                        LH    R0,DATALN(R3,R1)      GET DATA ADDR, LENGTH
 000626 4813 1000            00000  8924  2                        LH    R1,DATAPTR(R3,R1)
 00062A 1A19                        8925  2                        AR    R1,PAR                RETURN R1  - LOCATION OF DATA
                                    8926  2                        COMMENT                     RETURN R0  - LEN OF DATA
 00062C 1BFF                        8927  2                        CLEAR R15                   SET CC=ZERO, DATA FOUND
 00062E                             8931  1                      END
 00062E                             8935                       END
                                    8939
 00062E 9001 8004            00004  8940                       PRETURN (R0,R1)
 000632 18D8/9808 D004_             8942                       PEND
 DROP   SEARCHWA-(4+36),R8
 DROP   *,R7
 DROP   RPAGE,R9                    8967                       DROP  PAR
 DROP   RGROUP,R6                   8974                       DROP  R6
1RECS     (RECS2101) (12:53) (15MAR04) LOCATE RECORD ROUTINES                                                               Page   28
0Current Usings:  (CP,R11) (CV,R12)
0Loc    Object Code    Addr1 Addr2  Stmt Lv Lineno    Source Statement           (Hibal 5, Asmedit 3.3)  HLASM R4.0  2004/03/15 12.53
+___    ______ ____    _____ _____  ____ __ ______    ______ _________
0                                   8982              ¿þþþþþþþþþþþþþþþþþþþþþþþþþþþþþþþþþþþþþþþþþþþþþþþþþþþþþþþþþþþþþþþþþþþþþÜ
                                    8983              Ÿ                                                                     Ÿ
                                    8984              Ÿ                                                                     Ÿ
                                    8985              Ÿ  LLOCNEXT - LOCATE NEXT (LONG VERSION)                              Ÿ
                                    8986              Ÿ                                                                     Ÿ
                                    8987              Ÿ  ON ENTRY:                                                          Ÿ
                                    8988              Ÿ     @R15 - RECORD GROUP INFO BLOCK                                  Ÿ
                                    8989              Ÿ       R0 - NOT USED                                                 Ÿ
                                    8990              Ÿ       R1 - NOT USED                                                 Ÿ
                                    8991              Ÿ      @R2 - SEARCH NAME                                              Ÿ
                                    8992              Ÿ                                                                     Ÿ
                                    8993              Ÿ  ON EXIT:                                                           Ÿ
                                    8994              Ÿ       R0 - LENGTH OF DATA                                           Ÿ
                                    8995              Ÿ       R1 - LOCATION OF DATA                                         Ÿ
                                    8996              Ÿ      @R2 - SEARCH NAME UPDATED WITH VALUE OF NEXT, IF EXISTS        Ÿ
                                    8997              Ÿ      R15 - CC = ZERO, IF RECORD FOUND                               Ÿ
                                    8998              Ÿ            CC = NZ, IF RECORD NOT FOUND                             Ÿ
                                    8999              Ÿ      PAR - PAGE OBTAINED                                            Ÿ
                                    9000              Ÿ                                                                     Ÿ
                                    9001              Ÿ  WARNING, R1 RETURNS POINTER INTO PAGED AREA, DATA MUST BE          Ÿ
                                    9002              Ÿ    MUST BE REFERENCED OR MOVED BEFORE ADDITIONAL DISPATCHES !       Ÿ
                                    9003              Ÿ                                                                     Ÿ
                                    9004              Ÿ                                                                     Ÿ
                                                      ¾þþþþþþþþþþþþþþþþþþþþþþþþþþþþþþþþþþþþþþþþþþþþþþþþþþþþþþþþþþþþþþþþþþþþþ»
0000640 50E0 D000/9008_      00000  9005              LLOCNEXT XPROC SEARCHWA
 USING  *,R7
 USING  SEARCHWA-(4+36),R8
 USING  RPAGE,R9                    9056                       USING RPAGE,PAR
 USING  RGROUP,R6                   9065                       USING RGROUP,R6
 00065A 186F                        9074                       LR    R6,R15
 00065C 5020 802C            00004  9075                       ST    R2,SRCHPARM         SAVE ENTRY PARM ADDRESSES
 000660 50F0 8028            00000  9076                       ST    R15,SRCHINFO
 000664 D203 8030 6004 00008 00004  9077                       MVC   SRCHSET,RECSET      SAVE SEARCH SET NUMBER
 00066A 4830 6008            00008  9078                       LH    R3,RECNLEN
 00066E 4140 8034            0000C  9079                       LA    R4,SRCHNAME
 000672 1853                        9080                       LR    R5,R3
 000674 0E42                        9081                       MVCL  R4,R2               SAVE SEARCH NAME
 000676 D703 6010 6010 00010 00010  9082                       CLEAR RECQPG              RESET QUICK GET/PUT INFO
 00067C D701 6018 6018 00018 00018  9089                       CLEAR RECQOFF
 000682 D503 73E6 6000_00A40 00000  9096                       IF    ((RECGRP,EQ,0),OR,(RECSET,EQ,0)),BEGIN  IF NULL
 000696 47F0 70CA            00724  9131  1                      B     NONEXT
 00069A                             9132                       END
                                    9136
 00069A 41F0 6000            00000  9137                       LA    R15,RGROUP
 00069E 4120 8030            00008  9138                       LA    R2,SRCHKEY
 0006A2 58E0 7402/0DEE       00A5C  9139                       ACALL GETDPAGE            GET DATA PAGE INTO @PAR
 0006A8 4100 9030            00030  9143                       LA    R0,RPINFO           BSEARCH PAGE TO GET DATA INDEX
 0006AC 4810 9022            00022  9144                       LH    R1,RPXSTART
 0006B0 1A19                        9145                       AR    R1,PAR
 0006B2 4120 8030            00008  9146                       LA    R2,SRCHKEY
 0006B6 58E0 7406/0DEE       00A60  9147                       ACALL BSEARCH             GET CURRENT DATA INDEX
 0006BC 4770 706A            006C4  9151                       IF    Z,BEGIN             IF ENTRY FOUND, POINT AT NEXT
 0006C0 4A10 9020            00020  9162  1                      AH    R1,RPNTRYLN
1RECS     (RECS2101) (12:53) (15MAR04) LOCATE RECORD ROUTINES                                                               Page   29
0Current Usings:  (RGROUP,R6) (*,R7) (SEARCHWA-(4+36),R8) (RPAGE,R9) (CP,R11) (CV,R12)
0Loc    Object Code    Addr1 Addr2  Stmt Lv Lineno    Source Statement           (Hibal 5, Asmedit 3.3)  HLASM R4.0  2004/03/15 12.53
+___    ______ ____    _____ _____  ____ __ ______    ______ _________
00006C4                             9163                       END
 0006C4 4830 9024            00024  9167                       LH    R3,RPXEND
 0006C8 1A39                        9168                       AR    R3,PAR
 0006CA 1913/4750 708A              9169                       IF    (R1,GE,R3),BEGIN    IF NEXT ENTRY ON NEXT PAGE,,
 0006D0 41F0 6000            00000  9184  1                      LA    R15,RGROUP
 0006D4 58E0 740E/0DEE       00A68  9185  1                      ACALL NEXTPAGE               GO GET NEXT PAGE
 0006DA 4770 70CA            00724  9189  1                      BNZ   NONEXT
 0006DE 4810 9022            00022  9190  1                      LH    R1,RPXSTART            POINT TO 1ST INDEX ON NEW PAGE
 0006E2 1A19                        9191  1                      AR    R1,PAR
 0006E4                             9192                       END
                                    9196
 0006E4 D503 6004 1000_00004 00000  9197                       IF    (@R1,NE,RECSET),BEGIN  NO NEXT LINE IN THIS SEARCH SET
 0006EE 47F0 70CA            00724  9214  1                      B     NONEXT
 0006F2                             9215                       END
                                    9219
 0006F2 D203 6010 9010 00010 00010  9220                       MVC   RECQPG,RPNUMB       SET QUICK GET/PUT INFO
 0006F8 1831                        9221                       LR    R3,R1
 0006FA 1B39                        9222                       SR    R3,PAR
 0006FC 4030 6018            00018  9223                       STH   R3,RECQOFF          SET QUICK GET/PUT INFO
 000700 5820 802C            00004  9224                       L     R2,SRCHPARM
 000704 4830 901E            0001E  9225                       LH    R3,RPNAMELN
 000708 4141 0004            00004  9226                       LA    R4,NDXNAME(R1)
 00070C 1853                        9227                       LR    R5,R3
 00070E 0E24                        9228                       MVCL  R2,R4               UPDATE SREACH NAME TO PREVIOUS
 000710 4830 901C            0001C  9229                       LH    R3,RPKEYLN
 000714 4803 1002            00002  9230                       LH    R0,DATALN(R3,R1)    RETURN R1,R0 - DATA LOC,LEN
 000718 4813 1000            00000  9231                       LH    R1,DATAPTR(R3,R1)
 00071C 1A19                        9232                       AR    R1,PAR
                                    9233                       COMMENT
 00071E 1BFF                        9234                       CLEAR R15                 SET CC=ZERO, FOUND NEXT
                                    9238
 000720 47F0 70D6            00730  9239                       B     NEXTDONE
                                    9240              *
                                    9241              *  EXITS
                                    9242              *
 000724                             9243              NONEXT   LABEL ,                   NO NEXT LINE
 000724 1B00                        9245                       CLEAR R0
 000726 1B11                        9249                       CLEAR R1
 000728 41F0 0004            00004  9253                       LA    R15,4
 00072C 47F0 70D6            00730  9254                       B     NEXTDONE
                                    9255
 000730                             9256              NEXTDONE LABEL ,                   NORMAL EXIT
 000730 9001 8004            00004  9258                       PRETURN (R0,R1)
 000734 18D8/9808 D004_             9260                       PEND
 DROP   SEARCHWA-(4+36),R8
 DROP   *,R7
-DROP   RPAGE,R9                    9286                       DROP  PAR
 DROP   RGROUP,R6                   9293                       DROP  R6
1RECS     (RECS2101) (12:53) (15MAR04) LOCATE RECORD ROUTINES                                                               Page   30
0Current Usings:  (CP,R11) (CV,R12)
0Loc    Object Code    Addr1 Addr2  Stmt Lv Lineno    Source Statement           (Hibal 5, Asmedit 3.3)  HLASM R4.0  2004/03/15 12.53
+___    ______ ____    _____ _____  ____ __ ______    ______ _________
0                                   9301              ¿þþþþþþþþþþþþþþþþþþþþþþþþþþþþþþþþþþþþþþþþþþþþþþþþþþþþþþþþþþþþþþþþþþþþþÜ
                                    9302              Ÿ                                                                     Ÿ
                                    9303              Ÿ                                                                     Ÿ
                                    9304              Ÿ  XLOCNEXT - LOCATE NEXT, USE QUICK GET/LOC INFO                     Ÿ
                                    9305              Ÿ                                                                     Ÿ
                                    9306              Ÿ  ON ENTRY:                                                          Ÿ
                                    9307              Ÿ     @R15 - RECORD GROUP INFO BLOCK                                  Ÿ
                                    9308              Ÿ       R0 - NOT USED                                                 Ÿ
                                    9309              Ÿ       R1 - NOT USED                                                 Ÿ
                                    9310              Ÿ      @R2 - SEARCH NAME                                              Ÿ
                                    9311              Ÿ                                                                     Ÿ
                                    9312              Ÿ  ON EXIT:                                                           Ÿ
                                    9313              Ÿ       R0 - LENGTH OF DATA                                           Ÿ
                                    9314              Ÿ       R1 - LOCATION OF DATA                                         Ÿ
                                    9315              Ÿ      @R2 - SEARCH NAME UPDATED WITH VALUE OF NEXT, IF EXISTS        Ÿ
                                    9316              Ÿ      R15 - CC = ZERO, IF RECORD FOUND                               Ÿ
                                    9317              Ÿ            CC = NZ, IF RECORD NOT FOUND                             Ÿ
                                    9318              Ÿ      PAR - PAGE OBTAINED                                            Ÿ
                                    9319              Ÿ                                                                     Ÿ
                                    9320              Ÿ  WARNING, R1 RETURNS POINTER INTO PAGED AREA, DATA MUST BE          Ÿ
                                    9321              Ÿ    MUST BE REFERENCED OR MOVED BEFORE ADDITIONAL DISPATCHES !       Ÿ
                                    9322              Ÿ                                                                     Ÿ
                                    9323              Ÿ                                                                     Ÿ
                                                      ¾þþþþþþþþþþþþþþþþþþþþþþþþþþþþþþþþþþþþþþþþþþþþþþþþþþþþþþþþþþþþþþþþþþþþþ»
0000742 50E0 D000/9008_      00000  9324              XLOCNEXT XPROC SEARCHWA
 USING  *,R7
 USING  SEARCHWA-(4+36),R8
 USING  RPAGE,R9                    9375                       USING RPAGE,PAR
 USING  RGROUP,R6                   9384                       USING RGROUP,R6
 00075C 186F                        9393                       LR    R6,R15
 00075E 5020 802C            00004  9394                       ST    R2,SRCHPARM         SAVE ENTRY PARM ADDRESSES
 000762 50F0 8028            00000  9395                       ST    R15,SRCHINFO
 000766 D203 8030 6004 00008 00004  9396                       MVC   SRCHSET,RECSET      SAVE SEARCH SET NUMBER
 00076C 4830 6008            00008  9397                       LH    R3,RECNLEN
 000770 4140 8034            0000C  9398                       LA    R4,SRCHNAME
 000774 1853                        9399                       LR    R5,R3
 000776 0E42                        9400                       MVCL  R4,R2               SAVE SEARCH NAME
                                    9401
 000778 41F0 6000            00000  9402                       LA    R15,RGROUP
 00077C 4120 8030            00008  9403                       LA    R2,SRCHKEY
 000780 58E0 7310/0DEE       00A6C  9404                       ACALL CHKQINFO            POINT TO INDEX QUICKLY
 000786 4770 707E            007DA  9408                       BNZ   QNONEXT
 00078A 4A10 9020            00020  9409                       AH    R1,RPNTRYLN         POINT TO NEXT LINE
 00078E 4830 9024            00024  9410                       LH    R3,RPXEND
 000792 1A39                        9411                       AR    R3,PAR
 000794 1913/47A0 707E              9412                       IF    (R1,GE,R3),QNONEXT  IF NOT ON THIS PAGE ,,, OH NO
                                    9430
 00079A D503 6004 1000_00004 00000  9431                       IF    (@R1,NE,RECSET),BEGIN  NO NEXT LINE IN THIS SEARCH SET
 0007A4 47F0 707E            007DA  9448  1                      B     QNONEXT
 0007A8                             9449                       END
                                    9453
 0007A8 D203 6010 9010 00010 00010  9454                       MVC   RECQPG,RPNUMB       SET QUICK GET/PUT INFO
 0007AE 1831                        9455                       LR    R3,R1
1RECS     (RECS2101) (12:53) (15MAR04) LOCATE RECORD ROUTINES                                                               Page   31
0Current Usings:  (RGROUP,R6) (*,R7) (SEARCHWA-(4+36),R8) (RPAGE,R9) (CP,R11) (CV,R12)
0Loc    Object Code    Addr1 Addr2  Stmt Lv Lineno    Source Statement           (Hibal 5, Asmedit 3.3)  HLASM R4.0  2004/03/15 12.53
+___    ______ ____    _____ _____  ____ __ ______    ______ _________
00007B0 1B39                        9456                       SR    R3,PAR
 0007B2 4030 6018            00018  9457                       STH   R3,RECQOFF          SET QUICK GET/PUT INFO
 0007B6 5820 802C            00004  9458                       L     R2,SRCHPARM
 0007BA 4830 901E            0001E  9459                       LH    R3,RPNAMELN
 0007BE 4141 0004            00004  9460                       LA    R4,NDXNAME(R1)
 0007C2 1853                        9461                       LR    R5,R3
 0007C4 0E24                        9462                       MVCL  R2,R4               UPDATE SREACH NAME TO PREVIOUS
 0007C6 4830 901C            0001C  9463                       LH    R3,RPKEYLN
 0007CA 4803 1002            00002  9464                       LH    R0,DATALN(R3,R1)    RETURN R1,R0 - DATA LOC,LEN
 0007CE 4813 1000            00000  9465                       LH    R1,DATAPTR(R3,R1)
 0007D2 1A19                        9466                       AR    R1,PAR
                                    9467                       COMMENT
 0007D4 1BFF                        9468                       CLEAR R15                 SET CC=ZERO, FOUND NEXT
                                    9472
 0007D6 47F0 7090            007EC  9473                       B     QNXTDONE
                                    9474              *
                                    9475              *  EXITS
                                    9476              *
 0007DA                             9477              QNONEXT  LABEL ,                   NO QUICK NEXT,
 0007DA 41F0 6000            00000  9479                       LA    R15,RGROUP          CALL LONG VERSION OF LOCNEXT
 0007DE 5820 802C            00004  9480                       L     R2,SRCHPARM
 0007E2 58E0 7314/0DEE       00A70  9481                       ACALL LLOCNEXT
 0007E8 47F0 7090            007EC  9485                       B     QNXTDONE
                                    9486
 0007EC                             9487              QNXTDONE LABEL ,                   NORMAL EXIT
 0007EC 9001 8004            00004  9489                       PRETURN (R0,R1)
 0007F0 18D8/9808 D004_             9491                       PEND
 DROP   SEARCHWA-(4+36),R8
 DROP   *,R7
-DROP   RPAGE,R9                    9517                       DROP  PAR
 DROP   RGROUP,R6                   9524                       DROP  R6
1RECS     (RECS2101) (12:53) (15MAR04) LOCATE RECORD ROUTINES                                                               Page   32
0Current Usings:  (CP,R11) (CV,R12)
0Loc    Object Code    Addr1 Addr2  Stmt Lv Lineno    Source Statement           (Hibal 5, Asmedit 3.3)  HLASM R4.0  2004/03/15 12.53
+___    ______ ____    _____ _____  ____ __ ______    ______ _________
0                                   9532              ¿þþþþþþþþþþþþþþþþþþþþþþþþþþþþþþþþþþþþþþþþþþþþþþþþþþþþþþþþþþþþþþþþþþþþþÜ
                                    9533              Ÿ                                                                     Ÿ
                                    9534              Ÿ                                                                     Ÿ
                                    9535              Ÿ  LLOCPREV - LOCATE PREVIOUS RECORD (LONG VERSION)                   Ÿ
                                    9536              Ÿ                                                                     Ÿ
                                    9537              Ÿ  ON ENTRY:                                                          Ÿ
                                    9538              Ÿ     @R15 - RECORD GROUP INFO BLOCK                                  Ÿ
                                    9539              Ÿ       R0 - NOT USED                                                 Ÿ
                                    9540              Ÿ       R1 - NOT USED                                                 Ÿ
                                    9541              Ÿ      @R2 - SEARCH NAME                                              Ÿ
                                    9542              Ÿ                                                                     Ÿ
                                    9543              Ÿ  ON EXIT:                                                           Ÿ
                                    9544              Ÿ       R0 - LENGTH OF DATA                                           Ÿ
                                    9545              Ÿ       R1 - LOCATION OF DATA                                         Ÿ
                                    9546              Ÿ      @R2 - SEARCH NAME UPDATED WITH VALUE OF PREVIOUS,              Ÿ
                                    9547              Ÿ            IF IT EXISTS                                             Ÿ
                                    9548              Ÿ      R15 - CC = ZERO, IF RECORD FOUND                               Ÿ
                                    9549              Ÿ            CC = NZ, IF RECORD NOT FOUND                             Ÿ
                                    9550              Ÿ      PAR - PAGE OBTAINED                                            Ÿ
                                    9551              Ÿ                                                                     Ÿ
                                    9552              Ÿ  WARNING, R1 RETURNS POINTER INTO PAGED AREA, DATA MUST BE          Ÿ
                                    9553              Ÿ    MUST BE REFERENCED OR MOVED BEFORE ADDITIONAL DISPATCHES !       Ÿ
                                    9554              Ÿ                                                                     Ÿ
                                    9555              Ÿ                                                                     Ÿ
                                                      ¾þþþþþþþþþþþþþþþþþþþþþþþþþþþþþþþþþþþþþþþþþþþþþþþþþþþþþþþþþþþþþþþþþþþþþ»
00007FE 50E0 D000/9008_      00000  9556              LLOCPREV PROC  SEARCHWA
 USING  *,R7
 USING  SEARCHWA-(4+36),R8
 USING  RPAGE,R9                    9606                       USING RPAGE,PAR
 USING  RGROUP,R6                   9615                       USING RGROUP,R6
 000818 186F                        9624                       LR    R6,R15
 00081A 5020 802C            00004  9625                       ST    R2,SRCHPARM         SAVE ENTRY PARM ADDRESSES
 00081E 50F0 8028            00000  9626                       ST    R15,SRCHINFO
 000822 D203 8030 6004 00008 00004  9627                       MVC   SRCHSET,RECSET      SAVE SEARCH SET NUMBER
 000828 4830 6008            00008  9628                       LH    R3,RECNLEN
 00082C 4140 8034            0000C  9629                       LA    R4,SRCHNAME
 000830 1853                        9630                       LR    R5,R3
 000832 0E42                        9631                       MVCL  R4,R2               SAVE SEARCH NAME
 000834 D703 6010 6010 00010 00010  9632                       CLEAR RECQPG              RESET QUICK GET/PUT INFO
 00083A D701 6018 6018 00018 00018  9639                       CLEAR RECQOFF
 000840 D503 7228 6000_00A40 00000  9646                       IF    ((RECGRP,EQ,0),OR,(RECSET,EQ,0)),BEGIN  IF NULL
 000854 47F0 70CA            008E2  9681  1                      B     NOPREV
 000858                             9682                       END
                                    9686
 000858 41F0 6000            00000  9687                       LA    R15,RGROUP
 00085C 4120 8030            00008  9688                       LA    R2,SRCHKEY
 000860 58E0 7244/0DEE       00A5C  9689                       ACALL GETDPAGE            GET DATA PAGE INTO @PAR
 000866 4100 9030            00030  9693                       LA    R0,RPINFO           BSEARCH PAGE TO GET DATA INDEX
 00086A 4810 9022            00022  9694                       LH    R1,RPXSTART
 00086E 1A19                        9695                       AR    R1,PAR
 000870 4120 8030            00008  9696                       LA    R2,SRCHKEY
 000874 58E0 7248/0DEE       00A60  9697                       ACALL BSEARCH             GET CURRENT DATA INDEX
 00087A 4B10 9020            00020  9701                       SH    R1,RPNTRYLN         POINT AT PREVIOUS ENTRY
1RECS     (RECS2101) (12:53) (15MAR04) LOCATE RECORD ROUTINES                                                               Page   33
0Current Usings:  (RGROUP,R6) (*,R7) (SEARCHWA-(4+36),R8) (RPAGE,R9) (CP,R11) (CV,R12)
0Loc    Object Code    Addr1 Addr2  Stmt Lv Lineno    Source Statement           (Hibal 5, Asmedit 3.3)  HLASM R4.0  2004/03/15 12.53
+___    ______ ____    _____ _____  ____ __ ______    ______ _________
000087E 4830 9022            00022  9702                       LH    R3,RPXSTART
 000882 1A39                        9703                       AR    R3,PAR
 000884 1913/47B0 708A              9704                       IF    (R1,LT,R3),BEGIN    IF NEXT ENTRY ON PREV PAGE,,
 00088A 41F0 6000            00000  9719  1                      LA    R15,RGROUP
 00088E 58E0 725C/0DEE       00A74  9720  1                      ACALL PREVPAGE               GO GET PREVIOUS PAGE
 000894 4770 70CA            008E2  9724  1                      BNZ   NOPREV
 000898 4810 9024            00024  9725  1                      LH    R1,RPXEND           POINT TO LAST INDEX ON NEW PAGE
 00089C 1A19                        9726  1                      AR    R1,PAR
 00089E 4B10 9020            00020  9727  1                      SH    R1,RPNTRYLN
                                    9728  1                      COMMENT                   R1 - PREVIOUS RECORD NDX ENTRY
 0008A2                             9729                       END
                                    9733
 0008A2 D503 6004 1000_00004 00000  9734                       IF    (@R1,NE,RECSET),BEGIN  NO NEXT LINE IN THIS SEARCH SET
 0008AC 47F0 70CA            008E2  9751  1                      B     NOPREV
 0008B0                             9752                       END
                                    9756
 0008B0 D203 6010 9010 00010 00010  9757                       MVC   RECQPG,RPNUMB       SET QUICK GET/PUT INFO
 0008B6 1831                        9758                       LR    R3,R1
 0008B8 1B39                        9759                       SR    R3,PAR
 0008BA 4030 6018            00018  9760                       STH   R3,RECQOFF
 0008BE 5820 802C            00004  9761                       L     R2,SRCHPARM
 0008C2 4830 901E            0001E  9762                       LH    R3,RPNAMELN
 0008C6 4141 0004            00004  9763                       LA    R4,NDXNAME(R1)
 0008CA 1853                        9764                       LR    R5,R3
 0008CC 0E24                        9765                       MVCL  R2,R4               UPDATE SRCH NAME W/PREVIOUS
 0008CE 4830 901C            0001C  9766                       LH    R3,RPKEYLN
 0008D2 4803 1002            00002  9767                       LH    R0,DATALN(R3,R1)    RETURN R1,R0 - DATA LOC,LEN
 0008D6 4813 1000            00000  9768                       LH    R1,DATAPTR(R3,R1)
 0008DA 1A19                        9769                       AR    R1,PAR
                                    9770                       COMMENT
 0008DC 1BFF                        9771                       CLEAR R15                 SET CC=ZERO, FOUND NEXT
                                    9775
 0008DE 47F0 70D6            008EE  9776                       B     PREVDONE
                                    9777              *
                                    9778              *  EXITS
                                    9779              *
 0008E2                             9780              NOPREV   LABEL ,                   NO NEXT LINE
 0008E2 1B00                        9782                       CLEAR R0
 0008E4 1B11                        9786                       CLEAR R1
 0008E6 41F0 0004            00004  9790                       LA    R15,4
 0008EA 47F0 70D6            008EE  9791                       B     PREVDONE
                                    9792
 0008EE                             9793              PREVDONE LABEL ,                   NORMAL EXIT
 0008EE 9001 8004            00004  9795                       PRETURN (R0,R1)
 0008F2 18D8/9808 D004_             9797                       PEND
 DROP   SEARCHWA-(4+36),R8
 DROP   *,R7
-DROP   RPAGE,R9                    9823                       DROP  PAR
 DROP   RGROUP,R6                   9830                       DROP  R6
1RECS     (RECS2101) (12:53) (15MAR04) LOCATE RECORD ROUTINES                                                               Page   34
0Current Usings:  (CP,R11) (CV,R12)
0Loc    Object Code    Addr1 Addr2  Stmt Lv Lineno    Source Statement           (Hibal 5, Asmedit 3.3)  HLASM R4.0  2004/03/15 12.53
+___    ______ ____    _____ _____  ____ __ ______    ______ _________
0                                   9838              ¿þþþþþþþþþþþþþþþþþþþþþþþþþþþþþþþþþþþþþþþþþþþþþþþþþþþþþþþþþþþþþþþþþþþþþÜ
                                    9839              Ÿ                                                                     Ÿ
                                    9840              Ÿ                                                                     Ÿ
                                    9841              Ÿ  XLOCPREV - LOCATE PREVIOUS RECORD, USE QUICK GET/LOC INFO          Ÿ
                                    9842              Ÿ                                                                     Ÿ
                                    9843              Ÿ  ON ENTRY:                                                          Ÿ
                                    9844              Ÿ     @R15 - RECORD GROUP INFO BLOCK                                  Ÿ
                                    9845              Ÿ       R0 - NOT USED                                                 Ÿ
                                    9846              Ÿ       R1 - NOT USED                                                 Ÿ
                                    9847              Ÿ      @R2 - SEARCH NAME                                              Ÿ
                                    9848              Ÿ                                                                     Ÿ
                                    9849              Ÿ  ON EXIT:                                                           Ÿ
                                    9850              Ÿ       R0 - LENGTH OF DATA                                           Ÿ
                                    9851              Ÿ       R1 - LOCATION OF DATA                                         Ÿ
                                    9852              Ÿ      @R2 - SEARCH NAME UPDATED WITH VALUE OF PREV, IF EXISTS        Ÿ
                                    9853              Ÿ      R15 - CC = ZERO, IF RECORD FOUND                               Ÿ
                                    9854              Ÿ            CC = NZ, IF RECORD NOT FOUND                             Ÿ
                                    9855              Ÿ      PAR - PAGE OBTAINED                                            Ÿ
                                    9856              Ÿ                                                                     Ÿ
                                    9857              Ÿ  WARNING, R1 RETURNS POINTER INTO PAGED AREA, DATA MUST BE          Ÿ
                                    9858              Ÿ    MUST BE REFERENCED OR MOVED BEFORE ADDITIONAL DISPATCHES !       Ÿ
                                    9859              Ÿ                                                                     Ÿ
                                    9860              Ÿ                                                                     Ÿ
                                                      ¾þþþþþþþþþþþþþþþþþþþþþþþþþþþþþþþþþþþþþþþþþþþþþþþþþþþþþþþþþþþþþþþþþþþþþ»
0000900 50E0 D000/9008_      00000  9861              XLOCPREV XPROC SEARCHWA
 USING  *,R7
 USING  SEARCHWA-(4+36),R8
 USING  RPAGE,R9                    9912                       USING RPAGE,PAR
 USING  RGROUP,R6                   9921                       USING RGROUP,R6
 00091A 186F                        9930                       LR    R6,R15
 00091C 5020 802C            00004  9931                       ST    R2,SRCHPARM         SAVE ENTRY PARM ADDRESSES
 000920 50F0 8028            00000  9932                       ST    R15,SRCHINFO
 000924 D203 8030 6004 00008 00004  9933                       MVC   SRCHSET,RECSET      SAVE SEARCH SET NUMBER
 00092A 4830 6008            00008  9934                       LH    R3,RECNLEN
 00092E 4140 8034            0000C  9935                       LA    R4,SRCHNAME
 000932 1853                        9936                       LR    R5,R3
 000934 0E42                        9937                       MVCL  R4,R2               SAVE SEARCH NAME
                                    9938
 000936 41F0 6000            00000  9939                       LA    R15,RGROUP
 00093A 4120 8030            00008  9940                       LA    R2,SRCHKEY
 00093E 58E0 7152/0DEE       00A6C  9941                       ACALL CHKQINFO            POINT TO INDEX QUICKLY
 000944 4770 707E            00998  9945                       BNZ   QNOPREV
 000948 4B10 9020            00020  9946                       SH    R1,RPNTRYLN         POINT TO PREV LINE
 00094C 4830 9022            00022  9947                       LH    R3,RPXSTART
 000950 1A39                        9948                       AR    R3,PAR
 000952 1913/4740 707E              9949                       IF    (R1,LT,R3),QNOPREV  IF NOT ON THIS PAGE ,,, OH NO
                                    9967
 000958 D503 6004 1000_00004 00000  9968                       IF    (@R1,NE,RECSET),BEGIN  NO PREV LINE IN THIS SEARCH SET
 000962 47F0 707E            00998  9985  1                      B     QNOPREV
 000966                             9986                       END
                                    9990
 000966 D203 6010 9010 00010 00010  9991                       MVC   RECQPG,RPNUMB       SET QUICK GET/PUT INFO
 00096C 1831                        9992                       LR    R3,R1
1RECS     (RECS2101) (12:53) (15MAR04) LOCATE RECORD ROUTINES                                                               Page   35
0Current Usings:  (RGROUP,R6) (*,R7) (SEARCHWA-(4+36),R8) (RPAGE,R9) (CP,R11) (CV,R12)
0Loc    Object Code    Addr1 Addr2  Stmt Lv Lineno    Source Statement           (Hibal 5, Asmedit 3.3)  HLASM R4.0  2004/03/15 12.53
+___    ______ ____    _____ _____  ____ __ ______    ______ _________
000096E 1B39                        9993                       SR    R3,PAR
 000970 4030 6018            00018  9994                       STH   R3,RECQOFF
 000974 5820 802C            00004  9995                       L     R2,SRCHPARM
 000978 4830 901E            0001E  9996                       LH    R3,RPNAMELN
 00097C 4141 0004            00004  9997                       LA    R4,NDXNAME(R1)
 000980 1853                        9998                       LR    R5,R3
 000982 0E24                        9999                       MVCL  R2,R4               UPDATE SREACH NAME TO PREVIOUS
 000984 4830 901C            0001C 10000                       LH    R3,RPKEYLN
 000988 4803 1002            00002 10001                       LH    R0,DATALN(R3,R1)    RETURN R1,R0 - DATA LOC,LEN
 00098C 4813 1000            00000 10002                       LH    R1,DATAPTR(R3,R1)
 000990 1A19                       10003                       AR    R1,PAR
                                   10004                       COMMENT
 000992 1BFF                       10005                       CLEAR R15                 SET CC=ZERO, FOUND PREV
                                   10009
 000994 47F0 7090            009AA 10010                       B     QPREDONE
                                   10011              *
                                   10012              *  EXITS
                                   10013              *
 000998                            10014              QNOPREV  LABEL ,                   NO QUICK PREV,
 000998 41F0 6000            00000 10016                       LA    R15,RGROUP          CALL LONG VERSION OF LOCPREV
 00099C 5820 802C            00004 10017                       L     R2,SRCHPARM
 0009A0 58E0 715E/0DEE       00A78 10018                       ACALL LLOCPREV
 0009A6 47F0 7090            009AA 10022                       B     QPREDONE
                                   10023
 0009AA                            10024              QPREDONE LABEL ,                   NORMAL EXIT
 0009AA 9001 8004            00004 10026                       PRETURN (R0,R1)
 0009AE 18D8/9808 D004_            10028                       PEND
 DROP   SEARCHWA-(4+36),R8
 DROP   *,R7
-DROP   RPAGE,R9                   10054                       DROP  PAR
 DROP   RGROUP,R6                  10061                       DROP  R6
1RECS     (RECS2101) (12:53) (15MAR04) LOCATE RECORD ROUTINES                                                               Page   36
0Current Usings:  (CP,R11) (CV,R12)
0Loc    Object Code    Addr1 Addr2  Stmt Lv Lineno    Source Statement           (Hibal 5, Asmedit 3.3)  HLASM R4.0  2004/03/15 12.53
+___    ______ ____    _____ _____  ____ __ ______    ______ _________
0                                  10069              ¿þþþþþþþþþþþþþþþþþþþþþþþþþþþþþþþþþþþþþþþþþþþþþþþþþþþþþþþþþþþþþþþþþþþþþÜ
                                   10070              Ÿ                                                                     Ÿ
                                   10071              Ÿ                                                                     Ÿ
                                   10072              Ÿ  XLOCFRST - LOCATE FIRST ACTUAL RECORD IN RANGE,,,                  Ÿ
                                   10073              Ÿ                                                                     Ÿ
                                   10074              Ÿ  ON ENTRY:                                                          Ÿ
                                   10075              Ÿ     @R15 - RECORD GROUP INFO BLOCK                                  Ÿ
                                   10076              Ÿ       R0 - NOT USED                                                 Ÿ
                                   10077              Ÿ       R1 - NOT USED                                                 Ÿ
                                   10078              Ÿ      @R2 - SEARCH NAME FOR START OF RANGE                           Ÿ
                                   10079              Ÿ                                                                     Ÿ
                                   10080              Ÿ  ON EXIT:                                                           Ÿ
                                   10081              Ÿ       R0 - LENGTH OF DATA                                           Ÿ
                                   10082              Ÿ       R1 - LOCATION OF DATA                                         Ÿ
                                   10083              Ÿ      R15 - CC = ZERO, IF A RECORD IS FOUND                          Ÿ
                                   10084              Ÿ            CC = NZ, IF NO RECORDS AFTER SPECIFIED RECORD NAME       Ÿ
                                   10085              Ÿ      PAR - PAGE OBTAINED                                            Ÿ
                                   10086              Ÿ                                                                     Ÿ
                                   10087              Ÿ  WARNING, R1 RETURNS POINTER INTO PAGED AREA, DATA MUST BE          Ÿ
                                   10088              Ÿ    MUST BE REFERENCED OR MOVED BEFORE ADDITIONAL DISPATCHES !       Ÿ
                                   10089              Ÿ                                                                     Ÿ
                                   10090              Ÿ                                                                     Ÿ
                                                      ¾þþþþþþþþþþþþþþþþþþþþþþþþþþþþþþþþþþþþþþþþþþþþþþþþþþþþþþþþþþþþþþþþþþþþþ»
00009BC 50E0 D000/9008_      00000 10091              XLOCFRST XPROC
 USING  *,R7
 USING  RGROUP,R6                  10131                       USING RGROUP,R6
 0009D6 186F                       10140                       LR    R6,R15
 0009D8 58E0 70A6/0DEE       00A7C 10141                       ACALL LLOCATE
 0009DE 4780 7016            009EC 10145                       IF    NZ,BEGIN
 0009E2 41F0 6000            00000 10156  1                      LA    R15,RGROUP
 0009E6 58E0 709A/0DEE       00A70 10157  1                      ACALL LLOCNEXT
 0009EC                            10161                       END
 0009EC 9001 8004            00004 10165                       PRETURN (R0,R1)
 0009F0 18D8/9808 D004_            10167                       PEND
 DROP   *,R7
1RECS     (RECS2101) (12:53) (15MAR04) LOCATE RECORD ROUTINES                                                               Page   37
0Current Usings:  (RGROUP,R6) (CP,R11) (CV,R12)
0Loc    Object Code    Addr1 Addr2  Stmt Lv Lineno    Source Statement           (Hibal 5, Asmedit 3.3)  HLASM R4.0  2004/03/15 12.53
+___    ______ ____    _____ _____  ____ __ ______    ______ _________
0                                  10188              ¿þþþþþþþþþþþþþþþþþþþþþþþþþþþþþþþþþþþþþþþþþþþþþþþþþþþþþþþþþþþþþþþþþþþþþÜ
                                   10189              Ÿ                                                                     Ÿ
                                   10190              Ÿ                                                                     Ÿ
                                   10191              Ÿ  XLOCLAST - LOCATE LAST ACTUAL RECORD IN RANGE,,,                   Ÿ
                                   10192              Ÿ                                                                     Ÿ
                                   10193              Ÿ  ON ENTRY:                                                          Ÿ
                                   10194              Ÿ     @R15 - RECORD GROUP INFO BLOCK                                  Ÿ
                                   10195              Ÿ       R0 - NOT USED                                                 Ÿ
                                   10196              Ÿ       R1 - NOT USED                                                 Ÿ
                                   10197              Ÿ      @R2 - SEARCH NAME FOR END OF RANGE                             Ÿ
                                   10198              Ÿ                                                                     Ÿ
                                   10199              Ÿ  ON EXIT:                                                           Ÿ
                                   10200              Ÿ       R0 - LENGTH OF DATA                                           Ÿ
                                   10201              Ÿ       R1 - LOCATION OF DATA                                         Ÿ
                                   10202              Ÿ      R15 - CC = ZERO, IF A RECORD IS FOUND                          Ÿ
                                   10203              Ÿ            CC = NZ, IF NO RECORDS BEFORE SPECIFIED RECORD NAME      Ÿ
                                   10204              Ÿ      PAR - PAGE OBTAINED                                            Ÿ
                                   10205              Ÿ                                                                     Ÿ
                                   10206              Ÿ  WARNING, R1 RETURNS POINTER INTO PAGED AREA, DATA MUST BE          Ÿ
                                   10207              Ÿ    MUST BE REFERENCED OR MOVED BEFORE ADDITIONAL DISPATCHES !       Ÿ
                                   10208              Ÿ                                                                     Ÿ
                                   10209              Ÿ                                                                     Ÿ
                                                      ¾þþþþþþþþþþþþþþþþþþþþþþþþþþþþþþþþþþþþþþþþþþþþþþþþþþþþþþþþþþþþþþþþþþþþþ»
00009FE 50E0 D000/9008_      00000 10210              XLOCLAST XPROC
 USING  *,R7
                                   10250                       USING RGROUP,R6
 000A18 186F                       10252                       LR    R6,R15
 000A1A 58E0 7064/0DEE       00A7C 10253                       ACALL LLOCATE
 000A20 4780 7016            00A2E 10257                       IF    NZ,BEGIN
 000A24 41F0 6000            00000 10268  1                      LA    R15,RGROUP
 000A28 58E0 7060/0DEE       00A78 10269  1                      ACALL LLOCPREV
 000A2E                            10273                       END
 000A2E 9001 8004            00004 10277                       PRETURN (R0,R1)
 000A32 18D8/9808 D004_            10279                       PEND
 DROP   *,R7
                                   10299
                                   10300                       QLTORG
1RECS     (RECS2101) (12:53) (15MAR04) PUT RECORD ROUTINE                                                                   Page   38
0Current Usings:  (RGROUP,R6) (CP,R11) (CV,R12)
0Loc    Object Code    Addr1 Addr2  Stmt Lv Lineno    Source Statement           (Hibal 5, Asmedit 3.3)  HLASM R4.0  2004/03/15 12.53
+___    ______ ____    _____ _____  ____ __ ______    ______ _________
0                                  10328              ¿þþþþþþþþþþþþþþþþþþþþþþþþþþþþþþþþþþþþþþþþþþþþþþþþþþþþþþþþþþþþþþþþþþþþþÜ
                                   10329              Ÿ                                                                     Ÿ
                                   10330              Ÿ                                                                     Ÿ
                                   10331              Ÿ  XPUT   - SAVE SPECIFIED RECORD                                     Ÿ
                                   10332              Ÿ                                                                     Ÿ
                                   10333              Ÿ  ON ENTRY:                                                          Ÿ
                                   10334              Ÿ     @R15 - RECORD GROUP INFO BLOCK                                  Ÿ
                                   10335              Ÿ       R0 - RECORD DATA LENGTH                                       Ÿ
                                   10336              Ÿ       R1 - RECORD DATA ADDRESS                                      Ÿ
                                   10337              Ÿ      @R2 - SEARCH NAME                                              Ÿ
                                   10338              Ÿ                                                                     Ÿ
                                   10339              Ÿ  ON EXIT:                                                           Ÿ
                                   10340              Ÿ      R15 - CC = ZERO                                                Ÿ
                                   10341              Ÿ            CC = NEG, IF NO MORE ROOM                                Ÿ
                                   10342              Ÿ            CC = POS, IF INVALID SET, REC  GROUP ID (NO ZERO'S!)     Ÿ
                                   10343              Ÿ      PAR - PAGE OBTAINED                                            Ÿ
                                   10344              Ÿ                                                                     Ÿ
                                   10345              Ÿ                                                                     Ÿ
                                                      ¾þþþþþþþþþþþþþþþþþþþþþþþþþþþþþþþþþþþþþþþþþþþþþþþþþþþþþþþþþþþþþþþþþþþþþ»
0000000                00000 00090 10346              PUTWA    RECORD BEGIN
 000000                            10354  1           PUTLOC     DS    F                   RECORD LOCATION
 000004                            10355  1           PUTLEN     DS    F                   RECORD LENGTH
 000008                            10356  1           PUTNDX     DS    XL(MXNTRYLN)        DUMMY NDX AREA
                                   10357  1           PUTKEY     EQU   PUTNDX,MXKEYLN      SEARCH KEY
                                   10358  1           PUTSET     EQU   PUTKEY,4              SEARCH SET
                                   10359  1           PUTNAME    EQU   PUTKEY+4,MXNAMELN     SEARCH NAME (RECORD NAME)
 000090                00090 00090 10360                       END
                                   10369              MINSPACE EQU   1024                MIN FREE SPACE AFTER PAGE CONDENSE
                                   10370              þþþþ
 000A80 50E0 D000/9008_      00000 10371              XPUT     XPROC PUTWA
 USING  *,R7
 USING  PUTWA-(4+36),R8
 USING  RPAGE,R9                   10422                       USING RPAGE,PAR
                                   10431                       USING RGROUP,R6
 000A9A 186F                       10433                       LR    R6,R15              SAVE CALLING PARMS
 000A9C 5000 802C            00004 10434                       ST    R0,PUTLEN
 000AA0 5010 8028            00000 10435                       ST    R1,PUTLOC
 000AA4 D203 8030 6004 00008 00004 10436                       MVC   PUTSET,RECSET       SAVE RECORD SET NUMBER
 000AAA 4830 6008            00008 10437                       LH    R3,RECNLEN
 000AAE 4140 8034            0000C 10438                       LA    R4,PUTNAME
 000AB2 1853                       10439                       LR    R5,R3
 000AB4 0E42                       10440                       MVCL  R4,R2               SAVE RECORD NAME
                                   10441
                                   10442                       COMMENT                   VALIDITY CHECK
 000AB6 D503 77D2 6000_0126C 00000 10443                       IF    (RECGRP,EQ,0),BADPUT
 000AC0 D503 77D2 6004_0126C 00004 10464                       IF    (RECSET,EQ,0),BADPUT   (LOWEST LOGICAL RECD RESEVED)
 000ACA D503 77D6 6004_01270 00004 10485                       IF    (RECSET,EQ,-1),BADPUT  (HIGHEST LOGICAL RECD RESERVED)
                                   10506
                                   10507                       COMMENT                   GET DATA PAGE INTO @PAR
 000AD4 41F0 6000            00000 10508                       LA    R15,RGROUP
 000AD8 4120 8030            00008 10509                       LA    R2,PUTKEY
 000ADC 58E0 77DA/0DEE       01274 10510                       ACALL CHKQPAGE            CHECK QUICK PAGE INFO FIRST
 000AE2 4780 705A            00AF4 10514                       IF    NZ,BEGIN            IF QUICK INFO NOT CORRECT,,
1RECS     (RECS2101) (12:53) (15MAR04) PUT RECORD ROUTINE                                                                   Page   39
0Current Usings:  (RGROUP,R6) (*,R7) (PUTWA-(4+36),R8) (RPAGE,R9) (CP,R11) (CV,R12)
0Loc    Object Code    Addr1 Addr2  Stmt Lv Lineno    Source Statement           (Hibal 5, Asmedit 3.3)  HLASM R4.0  2004/03/15 12.53
+___    ______ ____    _____ _____  ____ __ ______    ______ _________
0000AE6 41F0 6000            00000 10525  1                      LA    R15,RGROUP
 000AEA 4120 8030            00008 10526  1                      LA    R2,PUTKEY
 000AEE 58E0 77DE/0DEE       01278 10527  1                      ACALL GETDPAGE            GET DATA PAGE INTO @PAR
 000AF4                            10531                       END
                                   10535
                                   10536                       COMMENT                   CHECK PAGE FOR SPACE
 000AF4 5840 802C            00004 10537                       L     R4,PUTLEN
 000AF8 4144 0098            00098 10538                       LA    R4,MXNTRYLN+16(R4)  R4 - MAX INDEX LEN + MAX DATA LEN
 000AFC 4830 902C            0002C 10539                       LH    R3,RPDEND
 000B00 4B30 9024            00024 10540                       SH    R3,RPXEND           R3 - SPACE LEFT ON BLOCK
 000B04 1943/47D0 70BE             10541                       IF    (R4,GT,R3),BEGIN    IF NOT ENOUGH SPACE,
 000B0A 58E0 77E2/0DEE       0127C 10556  1                      ACALL CONDPAGE               CONDENSE PAGE
 000B10 4830 902C            0002C 10560  1                      LH    R3,RPDEND
 000B14 4B30 9024            00024 10561  1                      SH    R3,RPXEND
                                   10562  1                      COMMENT                   CHECK FOR SPACE AFTER CONDENSE
 000B18 1943/4720 708C_            10563  1                      IF    ((R4,GT,R3),OR,(R3,LT,MINSPACE)),BEGIN    IF NONE,,
 000B26 41F0 6000            00000 10594  2                        LA    R15,RGROUP
 000B2A 58E0 77EA/0DEE       01284 10595  2                        ACALL ADDDPAGE               ADD A NEW PAGE (IE. SPLIT PAGE)
 000B30 4770 71B6            00C50 10599  2                        BNZ   NOSPACE
 000B34 41F0 6000            00000 10600  2                        LA    R15,RGROUP
 000B38 4120 8030            00008 10601  2                        LA    R2,PUTKEY
 000B3C 58E0 77DE/0DEE       01278 10602  2                        ACALL GETDPAGE               AND GET CORRECT DATA PAGE @PAR
 000B42 58E0 77E2/0DEE       0127C 10606  2                        ACALL CONDPAGE
 000B48 4830 902C            0002C 10610  2                        LH    R3,RPDEND
 000B4C 4B30 9024            00024 10611  2                        SH    R3,RPXEND
 000B50 1934/47B0 70BE_            10612  2                        IF    (R3,LT,R4),' BOMB'     FOUND SPACE, OR ELSE !
 000B58                            10634  1                      END
 000B58                            10638                       END
                                   10642
                                   10643                       COMMENT                   BSEARCH PAGE TO GET DATA INDEX
 000B58 4100 9030            00030 10644                       LA    R0,RPINFO
 000B5C 4810 9022            00022 10645                       LH    R1,RPXSTART
 000B60 1A19                       10646                       AR    R1,PAR
 000B62 4120 8030            00008 10647                       LA    R2,PUTKEY
 000B66 58E0 77EE/0DEE       01288 10648                       ACALL BSEARCH             GET CURRENT DATA INDEX
                                   10652                       COMMENT                   R1 - INDEX ADDRESS, IF EXIST
                                   10653
                                   10654                       COMMENT                   SAVE QUICK INFO
 000B6C 1831                       10655                       LR    R3,R1
 000B6E 1B39                       10656                       SR    R3,PAR
 000B70 4030 601A            0001A 10657                       STH   R3,RECPOFF
 000B74 5830 9010            00010 10658                       L     R3,RPNUMB
 000B78 5030 6014            00014 10659                       ST    R3,RECPPG
                                   10660
                                   10661                       COMMENT                   IF RECORD EXISTS, REPLACE IT
 000B7C 4770 7144            00BDE 10662                       IF    Z,BEGIN
 000B80 4830 901C            0001C 10673  1                      LH    R3,RPKEYLN
 000B84 5820 802C            00004 10674  1                      L     R2,PUTLEN           R2 - DATA LEN, ROUNDED UP
 000B88 4122 000F            0000F 10675  1                      LA    R2,15(R2)
 000B8C 8820 0004            00004 10676  1                      SRL   R2,4
 000B90 8920 0004            00004 10677  1                      SLL   R2,4
 000B94 4843 1002            00002 10678  1                      LH    R4,DATALN(R3,R1)    R4 - LEN OF CURRENT DATA SPOT,
 000B98 4144 000F            0000F 10679  1                      LA    R4,15(R4)                ROUNDED UP
 000B9C 8840 0004            00004 10680  1                      SRL   R4,4
1RECS     (RECS2101) (12:53) (15MAR04) PUT RECORD ROUTINE                                                                   Page   40
0Current Usings:  (RGROUP,R6) (*,R7) (PUTWA-(4+36),R8) (RPAGE,R9) (CP,R11) (CV,R12)
0Loc    Object Code    Addr1 Addr2  Stmt Lv Lineno    Source Statement           (Hibal 5, Asmedit 3.3)  HLASM R4.0  2004/03/15 12.53
+___    ______ ____    _____ _____  ____ __ ______    ______ _________
0000BA0 8940 0004            00004 10681  1                      SLL   R4,4
 000BA4 1924/47D0 711E             10682  1                      IF    (R2,GT,R4),BEGIN    IF DATA DOES NOT FIT, GET NEW
 000BAA 4840 902C            0002C 10697  2                        LH    R4,RPDEND              SPOT AT END OF DATA
 000BAE 1B42                       10698  2                        SR    R4,R2                  R4 - NEW SPOT
 000BB0 4040 902C            0002C 10699  2                        STH   R4,RPDEND
 000BB4 4043 1000            00000 10700  2                        STH   R4,DATAPTR(R3,R1)
 000BB8                            10701  1                      END
 000BB8 4823 1000            00000 10705  1                      LH    R2,DATAPTR(R3,R1)
 000BBC 1A29                       10706  1                      AR    R2,PAR
 000BBE 5830 802C            00004 10707  1                      L     R3,PUTLEN
 000BC2 5840 8028            00000 10708  1                      L     R4,PUTLOC
 000BC6 1853                       10709  1                      LR    R5,R3
 000BC8 0E24                       10710  1                      MVCL  R2,R4               REPLACE DATA,
 000BCA 4830 901C            0001C 10711  1                      LH    R3,RPKEYLN
 000BCE 5820 802C            00004 10712  1                      L     R2,PUTLEN
 000BD2 4023 1002            00002 10713  1                      STH   R2,DATALN(R3,R1)    REPLACE DATA LENGTH,
 000BD6 58E0 77F2/0DEE       0128C 10714  1                      PMARK PAR
 000BDC 1BFF                       10719  1                      CLEAR R15
 000BDE                            10723                       END
                                   10727
                                   10728                       COMMENT                   IF NEW RECORD, INSERT IT
 000BDE 7148/47F0 71AA 00BDE 00B7E 10729                       ELSE  BEGIN ,,
 000BE2 5820 802C            00004 10740  1                      L     R2,PUTLEN           R2 - DATA LENGTH ROUNDED UP
 000BE6 4122 000F            0000F 10741  1                      LA    R2,15(R2)
 000BEA 8820 0004            00004 10742  1                      SRL   R2,4
 000BEE 8920 0004            00004 10743  1                      SLL   R2,4
 000BF2 4840 902C            0002C 10744  1                      LH    R4,RPDEND           R4 - SPOT FOR DATA
 000BF6 1B42                       10745  1                      SR    R4,R2               PUT DATA AT END OF DATA AREA
 000BF8 4040 902C            0002C 10746  1                      STH   R4,RPDEND           (NOTE: DATA AREA GROWS UP)
 000BFC 4830 901C            0001C 10747  1                      LH    R3,RPKEYLN
 000C00 4150 8030            00008 10748  1                      LA    R5,PUTKEY           CREATE NEW DATA INDEX
 000C04 4043 5000            00000 10749  1                      STH   R4,DATAPTR(R3,R5)   SAVE DATA POINTER, LENGTH
 000C08 5800 802C            00004 10750  1                      L     R0,PUTLEN
 000C0C 4003 5002            00002 10751  1                      STH   R0,DATALN(R3,R5)
 000C10 4823 5000            00000 10752  1                      LH    R2,DATAPTR(R3,R5)   SAVE DATA
 000C14 1A29                       10753  1                      AR    R2,PAR
 000C16 5830 802C            00004 10754  1                      L     R3,PUTLEN
 000C1A 5840 8028            00000 10755  1                      L     R4,PUTLOC
 000C1E 1853                       10756  1                      LR    R5,R3
 000C20 0E24                       10757  1                      MVCL  R2,R4               SAVE DATA
 000C22 4100 9030            00030 10758  1                      LA    R0,RPINFO
 000C26 4810 9022            00022 10759  1                      LH    R1,RPXSTART
 000C2A 1A19                       10760  1                      AR    R1,PAR
 000C2C 4120 8030            00008 10761  1                      LA    R2,PUTNDX
 000C30 58E0 77F6/0DEE       01290 10762  1                      ACALL BINSERT             INSERT NEW DATA INDEX
 000C36 1B09                       10766  1                      SR    R0,PAR
 000C38 4000 9024            00024 10767  1                      STH   R0,RPXEND           UPDATE END OF INDEXES POINTER
 000C3C 58E0 77F2/0DEE       0128C 10768  1                      PMARK PAR
 000C42 1BFF                       10773  1                      CLEAR R15
 000C44                            10777                       END
                                   10781
 000C44 47F0 71BE            00C58 10782                       B     PUTDONE
                                   10783              *
                                   10784              *  EXITS
1RECS     (RECS2101) (12:53) (15MAR04) PUT RECORD ROUTINE                                                                   Page   41
0Current Usings:  (RGROUP,R6) (*,R7) (PUTWA-(4+36),R8) (RPAGE,R9) (CP,R11) (CV,R12)
0Loc    Object Code    Addr1 Addr2  Stmt Lv Lineno    Source Statement           (Hibal 5, Asmedit 3.3)  HLASM R4.0  2004/03/15 12.53
+___    ______ ____    _____ _____  ____ __ ______    ______ _________
0                                  10785              *
 000C48                            10786              BADPUT   LABEL ,
 000C48 41F0 0004            00004 10788                       LA    R15,4
 000C4C 47F0 71BE            00C58 10789                       B     PUTDONE
                                   10790
 000C50                            10791              NOSPACE  LABEL ,
 000C50 58F0 77FA            01294 10793                       L     R15,=F'-4'
 000C54 47F0 71BE            00C58 10794                       B     PUTDONE
                                   10795
 000C58                            10796              PUTDONE  LABEL ,                   NORMAL EXIT
 000C58 18D8/9808 D004_            10798                       PEND
 DROP   PUTWA-(4+36),R8
 DROP   *,R7
-DROP   RPAGE,R9                   10824                       DROP  PAR
 DROP   RGROUP,R6                  10831                       DROP  R6
1RECS     (RECS2101) (12:53) (15MAR04) DELETE RECORDS ROUTINES                                                              Page   42
0Current Usings:  (CP,R11) (CV,R12)
0Loc    Object Code    Addr1 Addr2  Stmt Lv Lineno    Source Statement           (Hibal 5, Asmedit 3.3)  HLASM R4.0  2004/03/15 12.53
+___    ______ ____    _____ _____  ____ __ ______    ______ _________
0                                  10839              ¿þþþþþþþþþþþþþþþþþþþþþþþþþþþþþþþþþþþþþþþþþþþþþþþþþþþþþþþþþþþþþþþþþþþþþÜ
                                   10840              Ÿ                                                                     Ÿ
                                   10841              Ÿ                                                                     Ÿ
                                   10842              Ÿ  XDELETE - XDELETE A RECORD                                         Ÿ
                                   10843              Ÿ                                                                     Ÿ
                                   10844              Ÿ  ON ENTRY:                                                          Ÿ
                                   10845              Ÿ     @R15 - RECORD GROUP INFO BLOCK                                  Ÿ
                                   10846              Ÿ       R0 - NOT USED                                                 Ÿ
                                   10847              Ÿ       R1 - NOT USED                                                 Ÿ
                                   10848              Ÿ      @R2 - SEARCH NAME                                              Ÿ
                                   10849              Ÿ                                                                     Ÿ
                                   10850              Ÿ  ON EXIT:                                                           Ÿ
                                   10851              Ÿ      R15 - CC=ZERO, RECORD DELETED                                  Ÿ
                                   10852              Ÿ            CC=NZ, RECORD NOT FOUND                                  Ÿ
                                   10853              Ÿ      PAR - PAGE OBTAINED                                            Ÿ
                                   10854              Ÿ                                                                     Ÿ
                                   10855              Ÿ                                                                     Ÿ
                                                      ¾þþþþþþþþþþþþþþþþþþþþþþþþþþþþþþþþþþþþþþþþþþþþþþþþþþþþþþþþþþþþþþþþþþþþþ»
0000C66 50E0 D000/9008_      00000 10856              XDELETE  XPROC SEARCHWA
 USING  *,R7
 USING  SEARCHWA-(4+36),R8
 USING  RPAGE,R9                   10907                       USING RPAGE,PAR
 USING  RGROUP,R6                  10916                       USING RGROUP,R6
 000C80 186F                       10925                       LR    R6,R15
 000C82 5020 802C            00004 10926                       ST    R2,SRCHPARM
 000C86 50F0 8028            00000 10927                       ST    R15,SRCHINFO        SAVE ENTRY PARM ADDRESSES
 000C8A D203 8030 6004 00008 00004 10928                       MVC   SRCHSET,RECSET
 000C90 4830 6008            00008 10929                       LH    R3,RECNLEN
 000C94 4140 8034            0000C 10930                       LA    R4,SRCHNAME
 000C98 1853                       10931                       LR    R5,R3
 000C9A 0E42                       10932                       MVCL  R4,R2               SAVE SERACH NAME
                                   10933
                                   10934                       COMMENT                   VALIDITY CHECK
 000C9C D503 75EC 6000_0126C 00000 10935                       IF    (RECGRP,EQ,0),NODELETE
 000CA6 D503 75EC 6004_0126C 00004 10956                       IF    (RECSET,EQ,0),NODELETE
                                   10977
                                   10978                       COMMENT                   GET DATA PAGE INTO @PAR
 000CB0 41F0 6000            00000 10979                       LA    R15,RGROUP
 000CB4 4120 8030            00008 10980                       LA    R2,SRCHKEY
 000CB8 58E0 75F4/0DEE       01274 10981                       ACALL CHKQPAGE            CHECK QUICK PAGE INFO FIRST
 000CBE 4780 7050            00CD0 10985                       IF    NZ,BEGIN            IN QUICK INFO NOT CORRECT,,
 000CC2 41F0 6000            00000 10996  1                      LA    R15,RGROUP
 000CC6 4120 8030            00008 10997  1                      LA    R2,SRCHKEY
 000CCA 58E0 75F8/0DEE       01278 10998  1                      ACALL GETDPAGE
 000CD0                            11002                       END
                                   11006
                                   11007                       COMMENT                   DELETE ENTRY
 000CD0 4100 9030            00030 11008                       LA    R0,RPINFO
 000CD4 4810 9022            00022 11009                       LH    R1,RPXSTART
 000CD8 1A19                       11010                       AR    R1,PAR
 000CDA 4120 8030            00008 11011                       LA    R2,SRCHKEY
 000CDE 58E0 7618/0DEE       01298 11012                       ACALL BDELETE             DELETE ENTRY
 000CE4 4770 70A6            00D26 11016                       BNZ   NODELETE
1RECS     (RECS2101) (12:53) (15MAR04) DELETE RECORDS ROUTINES                                                              Page   43
0Current Usings:  (RGROUP,R6) (*,R7) (SEARCHWA-(4+36),R8) (RPAGE,R9) (CP,R11) (CV,R12)
0Loc    Object Code    Addr1 Addr2  Stmt Lv Lineno    Source Statement           (Hibal 5, Asmedit 3.3)  HLASM R4.0  2004/03/15 12.53
+___    ______ ____    _____ _____  ____ __ ______    ______ _________
0000CE8 1B09                       11017                       SR    R0,PAR
 000CEA 4000 9024            00024 11018                       STH   R0,RPXEND
 000CEE 58E0 760C/0DEE       0128C 11019                       PMARK PAR
 000CF4 D501 9022 9024_00022 00024 11024                       IF    (RPXSTART,EQ,RPXEND),BEGIN   IF PAGE NOW EMPTY,,,
 000CFE 41F0 6000            00000 11042  1                      LA    R15,RGROUP
 000D02 58E0 761C/0DEE       0129C 11043  1                      ACALL DELDPAGE                        DELETE IT
 000D08 D703 6010 6010 00010 00010 11047  1                      CLEAR RECQPG                          AND CLEAR QUICK INFO
 000D0E D701 6018 6018 00018 00018 11054  1                      CLEAR RECQOFF
 000D14 D703 6014 6014 00014 00014 11061  1                      CLEAR RECPPG
 000D1A D701 601A 601A 0001A 0001A 11068  1                      CLEAR RECPOFF
 000D20                            11075                       END
 000D20 1BFF                       11079                       CLEAR R15
                                   11083
 000D22 47F0 70AE            00D2E 11084                       B     DELDONE
                                   11085              *
                                   11086              *  EXITS
                                   11087              *
 000D26                            11088              NODELETE LABEL ,
 000D26 41F0 0004            00004 11090                       LA    R15,4
 000D2A 47F0 70AE            00D2E 11091                       B     DELDONE
                                   11092
 000D2E                            11093              DELDONE  LABEL ,                   NORMAL EXIT
 000D2E 18D8/9808 D004_            11095                       PEND
 DROP   SEARCHWA-(4+36),R8
 DROP   *,R7
-DROP   RPAGE,R9                   11121                       DROP  PAR
 DROP   RGROUP,R6                  11128                       DROP  R6
1RECS     (RECS2101) (12:53) (15MAR04) DELETE RECORDS ROUTINES                                                              Page   44
0Current Usings:  (CP,R11) (CV,R12)
0Loc    Object Code    Addr1 Addr2  Stmt Lv Lineno    Source Statement           (Hibal 5, Asmedit 3.3)  HLASM R4.0  2004/03/15 12.53
+___    ______ ____    _____ _____  ____ __ ______    ______ _________
0                                  11136              ¿þþþþþþþþþþþþþþþþþþþþþþþþþþþþþþþþþþþþþþþþþþþþþþþþþþþþþþþþþþþþþþþþþþþþþÜ
                                   11137              Ÿ                                                                     Ÿ
                                   11138              Ÿ                                                                     Ÿ
                                   11139              Ÿ  XDELRECS  - DELETE A RANGE OF RECORDS                              Ÿ
                                   11140              Ÿ                                                                     Ÿ
                                   11141              Ÿ  DELETE ALL RECORDS FROM RECORD #1 TO RECORD #2 INCLUSIVE.          Ÿ
                                   11142              Ÿ                                                                     Ÿ
                                   11143              Ÿ  ON ENTRY:                                                          Ÿ
                                   11144              Ÿ     @R15 - RECORD GROUP INFO BLOCK                                  Ÿ
                                   11145              Ÿ            (CONTAINS SET NUMBER OF FIRST RECORD)                    Ÿ
                                   11146              Ÿ      @R0 - NAME OF FIRST RECORD                                     Ÿ
                                   11147              Ÿ      @R1 - NAME OF SECOND RECORD                                    Ÿ
                                   11148              Ÿ       R2 - SET NUMBER OF SECOND RECORD                              Ÿ
                                   11149              Ÿ            (ZERO IMPLIES SAME AS FIRST)                             Ÿ
                                   11150              Ÿ                                                                     Ÿ
                                   11151              Ÿ  ON EXIT:                                                           Ÿ
                                   11152              Ÿ      R15 - CC=ZERO, ALL RECORDS DELETED                             Ÿ
                                   11153              Ÿ            CC=NZ, NO RECORDS IN RANGE                               Ÿ
                                   11154              Ÿ                                                                     Ÿ
                                   11155              Ÿ                                                                     Ÿ
                                   11156              Ÿ                                                                     Ÿ
                                                      ¾þþþþþþþþþþþþþþþþþþþþþþþþþþþþþþþþþþþþþþþþþþþþþþþþþþþþþþþþþþþþþþþþþþþþþ»
0000000                00000 00116 11157              DDWA     RECORD BEGIN ,
 000000                            11165  1           DDXFIRST   DS    XL(MXKEYLN)         KEY OF FIRST RECORD
                                   11166  1           DDXFSET    EQU   DDXFIRST,L'NDXSET       RECORD SET
                                   11167  1           DDXFNAME   EQU   DDXFIRST+L'NDXSET,0     RECORD NAME
 000084                            11168  1           DDXLAST    DS    XL(MXKEYLN)         KEY FOR SECOND (LAST) RECORD
                                   11169  1           DDXLSET    EQU   DDXLAST,L'NDXSET        RECORD SET
                                   11170  1           DDXLNAME   EQU   DDXLAST+L'NDXSET,0      RECORD NAME
 000108                            11171  1           DDPAGE1    DS    F                   PAGE THAT CONTAINS FIRST DELETE
 00010C                            11172  1           DDPOINT1   DS    H                   OFFSET OF FIRST DELETE ON PAGE
 000110                            11173  1           DDPAGE2    DS    F                   PAGE THAT CONTAINS LAST DELETE
 000114                            11174  1           DDPOINT2   DS    H                   OFFSET OF END OF LAST DEL ON PAGE
 000116                            11175  1           DDTEMP     DS    0X                  PAGE SIZED TEMP AREA
                                   11176  1           *                                  AREA IS MANUALLY PUSHED, POP'D
 000116                00116 00116 11177                       END
 000D3C                            11186                       DS    0S(4-L'NDXSET)      SET NUMBER MUST BE FULLWORD
                                   11187              *
                                   11188              *
 000D3C 50E0 D000/9008_      00000 11189              XDELRECS XPROC DDWA
 USING  *,R7
 USING  DDWA-(4+36),R8
 USING  RPAGE,R9                   11240                       USING RPAGE,PAR
 USING  RGROUP,R6                  11249                       USING RGROUP,R6
 000D56 186F                       11258                       LR    R6,R15
 000D58 18F2                       11259                       LR    R15,R2
 000D5A D503 7516 6000_0126C 00000 11260                       IF    (RECGRP,EQ,0),NORECS
 000D64 D503 7516 6004_0126C 00004 11281                       IF    (RECSET,EQ,0),NORECS
                                   11302
                                   11303                       COMMENT                   SAVE SEARCH KEYS FOR DELETE RANGE
 000D6E D203 8028 6004 00000 00004 11304                       MVC   DDXFSET,RECSET      SAVE FIRST RECORD KEY: SET, NAME
 000D74 1820                       11305                       LR    R2,R0
 000D76 4830 6008            00008 11306                       LH    R3,RECNLEN
1RECS     (RECS2101) (12:53) (15MAR04) DELETE RECORDS ROUTINES                                                              Page   45
0Current Usings:  (RGROUP,R6) (*,R7) (DDWA-(4+36),R8) (RPAGE,R9) (CP,R11) (CV,R12)
0Loc    Object Code    Addr1 Addr2  Stmt Lv Lineno    Source Statement           (Hibal 5, Asmedit 3.3)  HLASM R4.0  2004/03/15 12.53
+___    ______ ____    _____ _____  ____ __ ______    ______ _________
0000D7A 4140 802C            00004 11307                       LA    R4,DDXFNAME
 000D7E 1853                       11308                       LR    R5,R3
 000D80 0E42                       11309                       MVCL  R4,R2
 000D82 182F                       11310                       LR    R2,R15
 000D84 5020 80AC            00084 11311                       ST    R2,DDXLSET          SAVE LAST RECORD KEY: SET, NAME
 000D88 1222/4770 703E             11312                       IF    (R2,Z),BEGIN
 000D8E D203 80AC 8028 00084 00000 11326  1                      MVC   DDXLSET,DDXFSET
 000D94                            11327                       END
 000D94 1821                       11331                       LR    R2,R1
 000D96 4830 6008            00008 11332                       LH    R3,RECNLEN
 000D9A 4140 80B0            00088 11333                       LA    R4,DDXLNAME
 000D9E 1853                       11334                       LR    R5,R3
 000DA0 0E42                       11335                       MVCL  R4,R2
                                   11336
                                   11337                       COMMENT                   POINT TO FIRST RECORD TO DELETE
 000DA2 41F0 6000            00000 11338                       LA    R15,RGROUP
 000DA6 4120 8028            00000 11339                       LA    R2,DDXFIRST
 000DAA 58E0 7522/0DEE       01278 11340                       ACALL GETDPAGE            GET PAGE CONTAINING RECORD
 000DB0 4100 9030            00030 11344                       LA    R0,RPINFO
 000DB4 4810 9022            00022 11345                       LH    R1,RPXSTART
 000DB8 1A19                       11346                       AR    R1,PAR
 000DBA 4120 8028            00000 11347                       LA    R2,DDXFIRST
 000DBE 58E0 7532/0DEE       01288 11348                       ACALL BSEARCH             GET RECORD INDEX OFFSET
 000DC4 4830 9024            00024 11352                       LH    R3,RPXEND
 000DC8 1A39                       11353                       AR    R3,PAR
 000DCA 1913/47D0 708E             11354                       IF    (R1,GT,R3),BEGIN    IF RECD DOES NOT EXIST,,
 000DD0 41F0 6000            00000 11369  1                      LA    R15,RGROUP
 000DD4 58E0 754A/0DEE       012A0 11370  1                      ACALL NEXTPAGE               MAY HAVE TO START DELETING
 000DDA 4770 728A            00FE0 11374  1                      BNZ   NORECS                 ON NEXT PAGE
 000DDE 4810 9022            00022 11375  1                      LH    R1,RPXSTART
 000DE2 1A19                       11376  1                      AR    R1,PAR
 000DE4                            11377                       END
 000DE4 1B19                       11381                       SR    R1,PAR
 000DE6 4010 8134            0010C 11382                       STH   R1,DDPOINT1         SAVE PLACE TO START DELETING
 000DEA 5800 9010            00010 11383                       L     R0,RPNUMB
 000DEE 5000 8130            00108 11384                       ST    R0,DDPAGE1
                                   11385
                                   11386                       COMMENT                   POINT TO LAST RECD IF ON PAGE
 000DF2 41F0 6000            00000 11387                       LA    R15,RGROUP
 000DF6 4120 80AC            00084 11388                       LA    R2,DDXLAST
 000DFA 58E0 7522/0DEE       01278 11389                       ACALL GETDPAGE
 000E00 4100 9030            00030 11393                       LA    R0,RPINFO
 000E04 4810 9022            00022 11394                       LH    R1,RPXSTART
 000E08 1A19                       11395                       AR    R1,PAR
 000E0A 4120 80AC            00084 11396                       LA    R2,DDXLAST
 000E0E 58E0 7532/0DEE       01288 11397                       ACALL BSEARCH
 000E14 4770 70C6            00E1C 11401                       IF    Z,BEGIN             IF RECORD FOUND, BUMP PAST IT
 000E18 4A10 9020            00020 11412  1                      AH    R1,RPNTRYLN         THIS DELETE IS INCLUSIVE
 000E1C                            11413                       END
 000E1C 1B19                       11417                       SR    R1,PAR
 000E1E 4010 813C            00114 11418                       STH   R1,DDPOINT2         SAVE POINT TO END DELETING
 000E22 5800 9010            00010 11419                       L     R0,RPNUMB
 000E26 5000 8138            00110 11420                       ST    R0,DDPAGE2
                                   11421
1RECS     (RECS2101) (12:53) (15MAR04) DELETE RECORDS ROUTINES                                                              Page   46
0Current Usings:  (RGROUP,R6) (*,R7) (DDWA-(4+36),R8) (RPAGE,R9) (CP,R11) (CV,R12)
0Loc    Object Code    Addr1 Addr2  Stmt Lv Lineno    Source Statement           (Hibal 5, Asmedit 3.3)  HLASM R4.0  2004/03/15 12.53
+___    ______ ____    _____ _____  ____ __ ______    ______ _________
0                                  11422                       COMMENT                   VALIDITY CHECK FOR ASCENDING RANGE
 000E2A 4120 8028            00000 11423                       LA    R2,DDXFIRST
 000E2E 4830 901C            0001C 11424                       LH    R3,RPKEYLN
 000E32 4140 80AC            00084 11425                       LA    R4,DDXLAST
 000E36 1853                       11426                       LR    R5,R3
 000E38 0F24                       11427                       CLCL  R2,R4
 000E3A 4720 728A            00FE0 11428                       BH    NORECS
                                   11429                       COMMENT                   VALIDTY CHECK FOR NON VOID RANGE
 000E3E D503 8130 8138_00108 00110 11430                       IF    (DDPAGE1,EQ,DDPAGE2),BEGIN
 000E48 D501 8134 813C_0010C 00114 11448  1                      IF    (DDPOINT1,EQ,DDPOINT2),NORECS
 000E52                            11469                       END
                                   11473                       ¿þþþþþþþþþþþþþþþþþþþþþþþþþþþþþþÜ
                                   11474                       Ÿ  PROCESS SINGLE PAGE DELETE  Ÿ
                                   11475                       ¾þþþþþþþþþþþþþþþþþþþþþþþþþþþþþþ»
 000E52 D503 8130 8138_00108 00110 11476                       IF    (DDPAGE1,EQ,DDPAGE2),BEGIN
 000E5C 5AD0 754E            012A4 11494  1                      A     R13,=A(L'RPAGE)     XPUSH TEMP AREA, DDTEMP
 000E60 4120 813E            00116 11495  1                      LA    R2,DDTEMP
 000E64 4830 9024            00024 11496  1                      LH    R3,RPXEND
 000E68 4B30 813C            00114 11497  1                      SH    R3,DDPOINT2
 000E6C 4840 813C            00114 11498  1                      LH    R4,DDPOINT2
 000E70 1A49                       11499  1                      AR    R4,PAR
 000E72 1853                       11500  1                      LR    R5,R3               MOVE ENTRIES AFTER DELETE POINT
 000E74 0E24                       11501  1                      MVCL  R2,R4               TO TEMP BUFFER
 000E76 4820 8134            0010C 11502  1                      LH    R2,DDPOINT1
 000E7A 1A29                       11503  1                      AR    R2,PAR
 000E7C 4830 9024            00024 11504  1                      LH    R3,RPXEND
 000E80 4B30 813C            00114 11505  1                      SH    R3,DDPOINT2
 000E84 4140 813E            00116 11506  1                      LA    R4,DDTEMP
 000E88 1853                       11507  1                      LR    R5,R3               NOW MOVE UP ENDING ENTRIES,
 000E8A 0E24                       11508  1                      MVCL  R2,R4               THIS DELETES OVERWRITTEN ENTRIES
 000E8C 5BD0 754E            012A4 11509  1                      S     R13,=A(L'RPAGE)     XPOP TEMP AREA
 000E90 4830 813C            00114 11510  1                      LH    R3,DDPOINT2         UPDATE INDEX POINTERS
 000E94 4B30 8134            0010C 11511  1                      SH    R3,DDPOINT1         R3 - LENGTH OF DELETED INDEXES
 000E98 4820 9024            00024 11512  1                      LH    R2,RPXEND
 000E9C 1B23                       11513  1                      SR    R2,R3
 000E9E 4020 9024            00024 11514  1                      STH   R2,RPXEND
 000EA2 4110 9030            00030 11515  1                      LA    R1,RPINFO
 USING  BSINFO,R1                  11516  1                      USING BSINFO,R1
 000EA6 4820 9024            00024 11525  1                      LH    R2,RPXEND
 000EAA 4B20 9022            00022 11526  1                      SH    R2,RPXSTART
 000EAE 5020 1010            00010 11527  1                      ST    R2,BSEND
 DROP   BSINFO,R1                  11528  1                      DROP  R1
 000EB2 58E0 7536/0DEE       0128C 11535  1                      PMARK PAR
 000EB8 D501 9022 9024_00022 00024 11540  1                      IF    (RPXSTART,EQ,RPXEND),BEGIN   IF PAGE NOW EMPTY,
 000EC2 41F0 6000            00000 11558  2                        LA    R15,RGROUP
 000EC6 58E0 7546/0DEE       0129C 11559  2                        ACALL DELDPAGE                         DELETE IT
 000ECC                            11563  1                      END
 000ECC                            11567                       END
                                   11571                       ¿þþþþþþþþþþþþþþþþþþþþþþþþþþþþþþþþÜ
                                   11572                       Ÿ  PROCESS MULTIPLE PAGE DELETE  Ÿ
                                   11573                       ¾þþþþþþþþþþþþþþþþþþþþþþþþþþþþþþþþ»
 000ECC D503 8130 8138_00108 00110 11574                       IF    (DDPAGE1,NE,DDPAGE2),BEGIN
                                   11592  1           * IF MULTI-PAGE DELETE, 1ST WE DELETE ALL THOSE PAGES THAT ARE TO
                                   11593  1           * BE COMPLETELY DELETED.  THIS IS DONE BELOW. WE WORK BACKWARDS
1RECS     (RECS2101) (12:53) (15MAR04) DELETE RECORDS ROUTINES                                                              Page   47
0Current Usings:  (RGROUP,R6) (*,R7) (DDWA-(4+36),R8) (RPAGE,R9) (CP,R11) (CV,R12)
0Loc    Object Code    Addr1 Addr2  Stmt Lv Lineno    Source Statement           (Hibal 5, Asmedit 3.3)  HLASM R4.0  2004/03/15 12.53
+___    ______ ____    _____ _____  ____ __ ______    ______ _________
0                                  11594  1           * FROM THE LAST PAGE, THIS IS SIMPLE BECAUSE DELDPAGE ALWAYS
                                   11595  1           * RETURNS WITH PAR POINTING TO THE PREVIOUS PAGE.
 000ED6 41F0 6000            00000 11596  1                      LA    R15,RGROUP
 000EDA 58E0 7552/0DEE       012A8 11597  1                      ACALL PREVPAGE            WE WORK BACKWARDS, FROM LAST
 000EE0 D503 9010 8130_00010 00108 11601  1                      WHILE (RPNUMB,NE,DDPAGE1),BEGIN
 000EEA 41F0 6000            00000 11621  2                        LA    R15,RGROUP
 000EEE 58E0 7546/0DEE       0129C 11622  2                        ACALL DELDPAGE            DELETE ALL COMPLETE PAGES 1ST
                                   11626  2                        COMMENT                   DELDPAGE RETNS PREV PAGE @PAR
 000EF4 47F0 718A            00EE0 11627  1                      END
                                   11632  1
                                   11633  1                      COMMENT                   DELETE RECORDS ON FIRST BLOCK
 000EF8 5800 8130            00108 11634  1                      L     R0,DDPAGE1
 000EFC 58E0 7556/0DEE       012AC 11635  1                      PGET  PAR,(R0)
 000F02 D505 9000 755A_00000 012B0 11643  1                      RPCHECK
 000F18 4820 8134            0010C 11651  1                      LH    R2,DDPOINT1         WE JUST FIX ENDING INDEX PTRS
 000F1C 4020 9024            00024 11652  1                      STH   R2,RPXEND
 000F20 4110 9030            00030 11653  1                      LA    R1,RPINFO
 USING  BSINFO,R1                  11654  1                      USING BSINFO,R1
 000F24 4820 9024            00024 11663  1                      LH    R2,RPXEND
 000F28 4B20 9022            00022 11664  1                      SH    R2,RPXSTART
 000F2C 5020 1010            00010 11665  1                      ST    R2,BSEND
 DROP   BSINFO,R1                  11666  1                      DROP  R1
 000F30 58E0 7536/0DEE       0128C 11673  1                      PMARK PAR
                                   11678  1           *  WARNING: THE DELDPAGE ROUTINE MAY CAUSE A DATA PAGE TO CHANGE
                                   11679  1           *  PAGE NUMBERS.  THIS OCCURS WHEN ONLY ONE PAGE IS LEFT AND THE
                                   11680  1           *  MASTER PAGE IS AXED.  IF THIS WERE TO OCCUR, DDPAGE1 OR DDPAGE2
                                   11681  1           *  MIGHT BE IN ERROR...  IT DOES NOT OCCUR, IF WE TAKE CARE OF 1ST
                                   11682  1           *  PAGE BEFORE THE LAST PAGE,, AS THE 1ST PAGE CONTAINS A ZERO ENTRY
                                   11683  1           *  AND WILL NEVER BE EMPTY.  AND HEY, LET'S BE CAREFUL OUT THERE !
 000F36 D501 9022 9024_00022 00024 11684  1                      IF    (RPXSTART,EQ,RPXEND),BEGIN   IF PAGE NOW EMPTY,
 000F40 41F0 6000            00000 11702  2                        LA    R15,RGROUP
 000F44 58E0 7546/0DEE       0129C 11703  2                        ACALL DELDPAGE                         DELETE IT
 000F4A                            11707  1                      END
                                   11711  1
                                   11712  1                      COMMENT                   DELETE RECORDS ON LAST BLOCK
 000F4A 5800 8138            00110 11713  1                      L     R0,DDPAGE2
 000F4E 58E0 7556/0DEE       012AC 11714  1                      PGET  PAR,(R0)
 000F54 D505 9000 755A_00000 012B0 11722  1                      RPCHECK
 000F6A 5AD0 754E            012A4 11730  1                      A     R13,=A(L'RPAGE)     XPUSH TEMP AREA, DDTEMP
 000F6E 4120 813E            00116 11731  1                      LA    R2,DDTEMP
 000F72 4830 9024            00024 11732  1                      LH    R3,RPXEND
 000F76 4B30 813C            00114 11733  1                      SH    R3,DDPOINT2
 000F7A 4840 813C            00114 11734  1                      LH    R4,DDPOINT2
 000F7E 1A49                       11735  1                      AR    R4,PAR
 000F80 1853                       11736  1                      LR    R5,R3               MOVE ENTRIES AFTER DELETE POINT
 000F82 0E24                       11737  1                      MVCL  R2,R4               TO TEMP BUFFER
 000F84 4820 9022            00022 11738  1                      LH    R2,RPXSTART
 000F88 1A29                       11739  1                      AR    R2,PAR
 000F8A 4830 9024            00024 11740  1                      LH    R3,RPXEND
 000F8E 4B30 813C            00114 11741  1                      SH    R3,DDPOINT2
 000F92 4140 813E            00116 11742  1                      LA    R4,DDTEMP
 000F96 1853                       11743  1                      LR    R5,R3               NOW MOVE UP ENDING ENTRIES,
 000F98 0E24                       11744  1                      MVCL  R2,R4               THIS DELETES OVERWRITTEN ENTRIES
 000F9A 5BD0 754E            012A4 11745  1                      S     R13,=A(L'RPAGE)     XPOP TEMP AREA
1RECS     (RECS2101) (12:53) (15MAR04) DELETE RECORDS ROUTINES                                                              Page   48
0Current Usings:  (RGROUP,R6) (*,R7) (DDWA-(4+36),R8) (RPAGE,R9) (CP,R11) (CV,R12)
0Loc    Object Code    Addr1 Addr2  Stmt Lv Lineno    Source Statement           (Hibal 5, Asmedit 3.3)  HLASM R4.0  2004/03/15 12.53
+___    ______ ____    _____ _____  ____ __ ______    ______ _________
0000F9E 4830 813C            00114 11746  1                      LH    R3,DDPOINT2         UPDATE INDEX POINTERS
 000FA2 4B30 9022            00022 11747  1                      SH    R3,RPXSTART         R3 - LENGTH OF DELETED INDEXES
 000FA6 4820 9024            00024 11748  1                      LH    R2,RPXEND
 000FAA 1B23                       11749  1                      SR    R2,R3
 000FAC 4020 9024            00024 11750  1                      STH   R2,RPXEND
 000FB0 4110 9030            00030 11751  1                      LA    R1,RPINFO
 USING  BSINFO,R1                  11752  1                      USING BSINFO,R1
 000FB4 4820 9024            00024 11761  1                      LH    R2,RPXEND
 000FB8 4B20 9022            00022 11762  1                      SH    R2,RPXSTART
 000FBC 5020 1010            00010 11763  1                      ST    R2,BSEND
 DROP   BSINFO,R1                  11764  1                      DROP  R1
 000FC0 58E0 7536/0DEE       0128C 11771  1                      PMARK PAR
 000FC6 D501 9022 9024_00022 00024 11776  1                      IF    (RPXSTART,EQ,RPXEND),BEGIN   IF PAGE NOW EMPTY,
 000FD0 41F0 6000            00000 11794  2                        LA    R15,RGROUP
 000FD4 58E0 7546/0DEE       0129C 11795  2                        ACALL DELDPAGE                         DELETE IT
 000FDA                            11799  1                      END
 000FDA                            11803                       END
 000FDA 1BFF                       11807                       CLEAR R15
                                   11811
 000FDC 47F0 7292            00FE8 11812                       B     DELSDONE
                                   11813              *
                                   11814              *  EXITS
                                   11815              *
 000FE0                            11816              NORECS   LABEL ,
 000FE0 41F0 0004            00004 11818                       LA    R15,4 FOR VOID RANGE
 000FE4 47F0 7292            00FE8 11819                       B     DELSDONE
                                   11820
 000FE8                            11821              DELSDONE LABEL ,                   NORMAL EXIT
 000FE8 18D8/9808 D004_            11823                       PEND
 DROP   DDWA-(4+36),R8
 DROP   *,R7
-DROP   RPAGE,R9                   11849                       DROP  PAR
 DROP   RGROUP,R6                  11856                       DROP  R6
1RECS     (RECS2101) (12:53) (15MAR04) COUNT RECORDS ROUTINE                                                                Page   49
0Current Usings:  (CP,R11) (CV,R12)
0Loc    Object Code    Addr1 Addr2  Stmt Lv Lineno    Source Statement           (Hibal 5, Asmedit 3.3)  HLASM R4.0  2004/03/15 12.53
+___    ______ ____    _____ _____  ____ __ ______    ______ _________
0                                  11864              ¿þþþþþþþþþþþþþþþþþþþþþþþþþþþþþþþþþþþþþþþþþþþþþþþþþþþþþþþþþþþþþþþþþþþþþÜ
                                   11865              Ÿ                                                                     Ÿ
                                   11866              Ÿ                                                                     Ÿ
                                   11867              Ÿ  XCNTRECS  - COUNT A RANGE OF RECORDS                               Ÿ
                                   11868              Ÿ                                                                     Ÿ
                                   11869              Ÿ  COUNT ALL RECORDS FROM RECORD #1 TO RECORD #2 INCLUSIVE.           Ÿ
                                   11870              Ÿ                                                                     Ÿ
                                   11871              Ÿ  ON ENTRY:                                                          Ÿ
                                   11872              Ÿ     @R15 - RECORD GROUP INFO BLOCK                                  Ÿ
                                   11873              Ÿ            (CONTAINS SET NUMBER OF FIRST RECORD)                    Ÿ
                                   11874              Ÿ      @R0 - NAME OF FIRST RECORD                                     Ÿ
                                   11875              Ÿ      @R1 - NAME OF SECOND RECORD                                    Ÿ
                                   11876              Ÿ       R2 - SET NUMBER OF SECOND RECORD                              Ÿ
                                   11877              Ÿ            (ZERO IMPLIES SAME AS FIRST)                             Ÿ
                                   11878              Ÿ                                                                     Ÿ
                                   11879              Ÿ  ON EXIT:                                                           Ÿ
                                   11880              Ÿ       R0 - TOTAL BYTE COUNT (DATA ONLY) OF RECORDS                  Ÿ
                                   11881              Ÿ      R15 - (and CC) NUMBER OF RECORDS                               Ÿ
                                   11882              Ÿ                                                                     Ÿ
                                   11883              Ÿ                                                                     Ÿ
                                                      ¾þþþþþþþþþþþþþþþþþþþþþþþþþþþþþþþþþþþþþþþþþþþþþþþþþþþþþþþþþþþþþþþþþþþþþ»
0000000                00000 00116 11884              CTWA     RECORD BEGIN ,
 000000                            11892  1           CTXFIRST   DS    XL(MXKEYLN)         KEY OF FIRST RECORD
                                   11893  1           CTXFSET    EQU   CTXFIRST,L'NDXSET       RECORD SET
                                   11894  1           CTXFNAME   EQU   CTXFIRST+L'NDXSET,0     RECORD NAME
 000084                            11895  1           CTXLAST    DS    XL(MXKEYLN)         KEY FOR SECOND (LAST) RECORD
                                   11896  1           CTXLSET    EQU   CTXLAST,L'NDXSET        RECORD SET
                                   11897  1           CTXLNAME   EQU   CTXLAST+L'NDXSET,0      RECORD NAME
 000108                            11898  1           CTPAGE1    DS    F                   PAGE THAT CONTAINS FIRST COUNT
 00010C                            11899  1           CTPOINT1   DS    H                   OFFSET OF FIRST COUNT ON PAGE
 000110                            11900  1           CTPAGE2    DS    F                   PAGE THAT CONTAINS LAST COUNT
 000114                            11901  1           CTPOINT2   DS    H                   OFFSET OF END OF LAST CNT ON PAGE
 000116                            11902  1           CTTEMP     DS    0X                  PAGE SIZED TEMP AREA
                                   11903  1           *                                  AREA IS MANUALLY PUSHED, POP'D
 000116                00116 00116 11904                       END
 000FF6                            11913                       DS    0S(4-L'NDXSET)      SET NUMBER MUST BE FULLWORD
                                   11914              *
                                   11915              *
 000FF6 50E0 D000/9008_      00000 11916              XCNTRECS XPROC CTWA
 USING  *,R7
 USING  CTWA-(4+36),R8
 USING  RPAGE,R9                   11967                       USING RPAGE,PAR
 USING  RGROUP,R6                  11976                       USING RGROUP,R6
 001010 186F                       11985                       LR    R6,R15
 001012 18F2                       11986                       LR    R15,R2
 001014 D503 725C 6000_0126C 00000 11987                       IF    (RECGRP,EQ,0),NOCOUNT
 00101E D503 725C 6004_0126C 00004 12008                       IF    (RECSET,EQ,0),NOCOUNT
                                   12029
                                   12030                       COMMENT                   SAVE SEARCH KEYS FOR COUNT RANGE
 001028 D203 8028 6004 00000 00004 12031                       MVC   CTXFSET,RECSET      SAVE FIRST RECORD KEY: SET, NAME
 00102E 1820                       12032                       LR    R2,R0
 001030 4830 6008            00008 12033                       LH    R3,RECNLEN
 001034 4140 802C            00004 12034                       LA    R4,CTXFNAME
1RECS     (RECS2101) (12:53) (15MAR04) COUNT RECORDS ROUTINE                                                                Page   50
0Current Usings:  (RGROUP,R6) (*,R7) (CTWA-(4+36),R8) (RPAGE,R9) (CP,R11) (CV,R12)
0Loc    Object Code    Addr1 Addr2  Stmt Lv Lineno    Source Statement           (Hibal 5, Asmedit 3.3)  HLASM R4.0  2004/03/15 12.53
+___    ______ ____    _____ _____  ____ __ ______    ______ _________
0001038 1853                       12035                       LR    R5,R3
 00103A 0E42                       12036                       MVCL  R4,R2
 00103C 182F                       12037                       LR    R2,R15
 00103E 5020 80AC            00084 12038                       ST    R2,CTXLSET          SAVE LAST RECORD KEY: SET, NAME
 001042 1222/4770 703E             12039                       IF    (R2,Z),BEGIN
 001048 D203 80AC 8028 00084 00000 12053  1                      MVC   CTXLSET,CTXFSET
 00104E                            12054                       END
 00104E 1821                       12058                       LR    R2,R1
 001050 4830 6008            00008 12059                       LH    R3,RECNLEN
 001054 4140 80B0            00088 12060                       LA    R4,CTXLNAME
 001058 1853                       12061                       LR    R5,R3
 00105A 0E42                       12062                       MVCL  R4,R2
                                   12063
                                   12064                       COMMENT                   POINT TO LAST RECD TO COUNT
                                   12065                       COMMENT
                                   12066                       COMMENT ,                 (WE POINT TO LAST, THEN FIRST
                                   12067                       COMMENT                    FOR EFFICIENCY REASONS)
 00105C 41F0 6000            00000 12068                       LA    R15,RGROUP
 001060 4120 80AC            00084 12069                       LA    R2,CTXLAST
 001064 58E0 7268/0DEE       01278 12070                       ACALL GETDPAGE
 00106A 4100 9030            00030 12074                       LA    R0,RPINFO
 00106E 4810 9022            00022 12075                       LH    R1,RPXSTART
 001072 1A19                       12076                       AR    R1,PAR
 001074 4120 80AC            00084 12077                       LA    R2,CTXLAST
 001078 58E0 7278/0DEE       01288 12078                       ACALL BSEARCH
 00107E 4770 7076            01086 12082                       IF    Z,BEGIN             IF RECORD FOUND, BUMP PAST IT
 001082 4A10 9020            00020 12093  1                      AH    R1,RPNTRYLN         THIS COUNT IS INCLUSIVE
 001086                            12094                       END
 001086 1B19                       12098                       SR    R1,PAR
 001088 4010 813C            00114 12099                       STH   R1,CTPOINT2         SAVE POINT TO END COUNTING
 00108C 5800 9010            00010 12100                       L     R0,RPNUMB
 001090 5000 8138            00110 12101                       ST    R0,CTPAGE2
                                   12102
                                   12103                       COMMENT                   POINT TO FIRST RECORD TO COUNT
 001094 41F0 6000            00000 12104                       LA    R15,RGROUP
 001098 4120 8028            00000 12105                       LA    R2,CTXFIRST
 00109C 58E0 7268/0DEE       01278 12106                       ACALL GETDPAGE            GET PAGE CONTAINING RECORD
 0010A2 4100 9030            00030 12110                       LA    R0,RPINFO
 0010A6 4810 9022            00022 12111                       LH    R1,RPXSTART
 0010AA 1A19                       12112                       AR    R1,PAR
 0010AC 4120 8028            00000 12113                       LA    R2,CTXFIRST
 0010B0 58E0 7278/0DEE       01288 12114                       ACALL BSEARCH             GET RECORD INDEX OFFSET
 0010B6 4830 9024            00024 12118                       LH    R3,RPXEND
 0010BA 1A39                       12119                       AR    R3,PAR
 0010BC 1913/47D0 70C6             12120                       IF    (R1,GT,R3),BEGIN    IF RECD DOES NOT EXIST,,
 0010C2 41F0 6000            00000 12135  1                      LA    R15,RGROUP
 0010C6 58E0 7290/0DEE       012A0 12136  1                      ACALL NEXTPAGE               MAY HAVE TO START COUNTING
 0010CC 4770 7180            01190 12140  1                      BNZ   NOCOUNT                ON NEXT PAGE
 0010D0 4810 9022            00022 12141  1                      LH    R1,RPXSTART
 0010D4 1A19                       12142  1                      AR    R1,PAR
 0010D6                            12143                       END
 0010D6 1B19                       12147                       SR    R1,PAR
 0010D8 4010 8134            0010C 12148                       STH   R1,CTPOINT1         SAVE PLACE TO START COUNTING
 0010DC 5800 9010            00010 12149                       L     R0,RPNUMB
1RECS     (RECS2101) (12:53) (15MAR04) COUNT RECORDS ROUTINE                                                                Page   51
0Current Usings:  (RGROUP,R6) (*,R7) (CTWA-(4+36),R8) (RPAGE,R9) (CP,R11) (CV,R12)
0Loc    Object Code    Addr1 Addr2  Stmt Lv Lineno    Source Statement           (Hibal 5, Asmedit 3.3)  HLASM R4.0  2004/03/15 12.53
+___    ______ ____    _____ _____  ____ __ ______    ______ _________
00010E0 5000 8130            00108 12150                       ST    R0,CTPAGE1
                                   12151
                                   12152                       COMMENT                   VALIDITY CHECK FOR ASCENDING RANGE
 0010E4 4120 8028            00000 12153                       LA    R2,CTXFIRST
 0010E8 4830 901C            0001C 12154                       LH    R3,RPKEYLN
 0010EC 4140 80AC            00084 12155                       LA    R4,CTXLAST
 0010F0 1853                       12156                       LR    R5,R3
 0010F2 0F24                       12157                       CLCL  R2,R4
 0010F4 4720 7180            01190 12158                       BH    NOCOUNT
                                   12159                       COMMENT                   VALIDTY CHECK FOR NON VOID RANGE
 0010F8 D503 8130 8138_00108 00110 12160                       IF    (CTPAGE1,EQ,CTPAGE2),BEGIN
 001102 D501 8134 813C_0010C 00114 12178  1                      IF    (CTPOINT1,EQ,CTPOINT2),NOCOUNT
 00110C                            12199                       END
                                   12203
                                   12204                       COMMENT                   GET R1 - FIRST INDEX ENTRY
 00110C 4810 8134            0010C 12205                       LH    R1,CTPOINT1
 001110 1A19                       12206                       AR    R1,PAR
 001112 D503 9010 8130_00010 00108 12207                       IF    (RPNUMB,NE,CTPAGE1),BEGIN PAGE MUST STILL BE FIRST ONE
 00111C 0000                       12225  1                      BOMB
 00111E                            12227                       END
                                   12231
                                   12232                       COMMENT                   COUNT RECORDS, BYTES
                                   12233                       COMMENT
                                   12234                       COMMENT                   R1 - INDEX ENTRY
 00111E 4820 9024            00024 12235                       LH    R2,RPXEND           R2 - END OF INDEX ENTRIES
 001122 1A29                       12236                       AR    R2,PAR
 001124 4830 901C            0001C 12237                       LH    R3,RPKEYLN          R3 - KEY LENGTH
 001128 1B44                       12238                       CLEAR R4                  COUNT RECORDS
 00112A 1B55                       12242                       CLEAR R5                  COUNT BYTES
                                   12246
                                   12247                       COMMENT                   LOOP THRU RECS
                                   12248                       COMMENT                   WHILE NOT ON LAST PAGE WE COUNT
                                   12249                       COMMENT                   ALL RECORDS ON PAGE
 00112C D503 9010 8138_00010 00110 12250                       WHILE (RPNUMB,NE,CTPAGE2),BEGIN
 001136 1912/47B0 713C             12270  1                      WHILE (R1,LT,R2),BEGIN
 00113C 4144 0001            00001 12287  2                        LA    R4,1(R4)
 001140 4A53 1002            00002 12288  2                        AH    R5,DATALN(R3,R1)
 001144 4A10 9020            00020 12289  2                        AH    R1,RPNTRYLN
 001148 47F0 7126            01136 12290  1                      END
 00114C 41F0 6000            00000 12295  1                      LA    R15,RGROUP
 001150 58E0 7290/0DEE       012A0 12296  1                      ACALL NEXTPAGE
 001156 4780 714C            0115C 12300  1                      IF    NZ,BEGIN
 00115A 0000                       12311  2                        BOMB
 00115C                            12313  1                      END
 00115C 4810 9022            00022 12317  1                      LH    R1,RPXSTART
 001160 1A19                       12318  1                      AR    R1,PAR
 001162 4820 9024            00024 12319  1                      LH    R2,RPXEND
 001166 1A29                       12320  1                      AR    R2,PAR
 001168 47F0 711C            0112C 12321                       END
                                   12326
                                   12327                       COMMENT                   LOOP THRU RECS,
                                   12328                       COMMENT                   COUNT TO END OF RANGE ON LAST PAGE
 00116C 4820 813C            00114 12329                       LH    R2,CTPOINT2
 001170 1A29                       12330                       AR    R2,PAR
1RECS     (RECS2101) (12:53) (15MAR04) COUNT RECORDS ROUTINE                                                                Page   52
0Current Usings:  (RGROUP,R6) (*,R7) (CTWA-(4+36),R8) (RPAGE,R9) (CP,R11) (CV,R12)
0Loc    Object Code    Addr1 Addr2  Stmt Lv Lineno    Source Statement           (Hibal 5, Asmedit 3.3)  HLASM R4.0  2004/03/15 12.53
+___    ______ ____    _____ _____  ____ __ ______    ______ _________
0001172 1912/47B0 7178             12331                       WHILE (R1,LT,R2),BEGIN
 001178 4144 0001            00001 12348  1                      LA    R4,1(R4)
 00117C 4A53 1002            00002 12349  1                      AH    R5,DATALN(R3,R1)
 001180 4A10 9020            00020 12350  1                      AH    R1,RPNTRYLN
 001184 47F0 7162            01172 12351                       END
                                   12356
                                   12357                       COMMENT                   THATS ALL FOLKS
 001188 1805                       12358                       LR    R0,R5               BYTE COUNT
 00118A 18F4                       12359                       LR    R15,R4              RECORD COUNT
                                   12360
 00118C 47F0 7188            01198 12361                       B     CNTDONE
                                   12362              *
                                   12363              *  EXITS
                                   12364              *
 001190                            12365              NOCOUNT  LABEL ,
 001190 1B00                       12367                       CLEAR R0
 001192 1BFF                       12371                       CLEAR R15 FOR VOID RANGE
 001194 47F0 7188            01198 12375                       B     CNTDONE
                                   12376
 001198                            12377              CNTDONE  LABEL ,                   NORMAL EXIT
 001198 5008 0004            00004 12379                       PRETURN R0
 00119C 18D8/9808 D004_            12381                       PEND
 DROP   CTWA-(4+36),R8
 DROP   *,R7
-DROP   RPAGE,R9                   12407                       DROP  PAR
 DROP   RGROUP,R6                  12414                       DROP  R6
1RECS     (RECS2101) (12:53) (15MAR04) INPLACE REPLACE                                                                      Page   53
0Current Usings:  (CP,R11) (CV,R12)
0Loc    Object Code    Addr1 Addr2  Stmt Lv Lineno    Source Statement           (Hibal 5, Asmedit 3.3)  HLASM R4.0  2004/03/15 12.53
+___    ______ ____    _____ _____  ____ __ ______    ______ _________
0                                  12422              ¿þþþþþþþþþþþþþþþþþþþþþþþþþþþþþþþþþþþþþþþþþþþþþþþþþþþþþþþþþþþþþþþþþþþþþÜ
                                   12423              Ÿ                                                                     Ÿ
                                   12424              Ÿ                                                                     Ÿ
                                   12425              Ÿ  XREPLACE - INPLACE (!!!) REPLACE OF RECORD                         Ÿ
                                   12426              Ÿ                                                                     Ÿ
                                   12427              Ÿ  THIS ROUTINE IS VERY RESTRICTIVE !!  IN GENERAL, "XPUT"            Ÿ
                                   12428              Ÿ  ROUTINE SHOULD BE USED TO REPLACE A RECORD.  THIS ROUTINE WAS      Ÿ
                                   12429              Ÿ  CODED SPECIFICALLY FOR REPLACING "AINFO" RECORD. SEE ADDITIONAL    Ÿ
                                   12430              Ÿ  NOTES BELOW                                                        Ÿ
                                   12431              Ÿ                                                                     Ÿ
                                   12432              Ÿ  ON ENTRY:                                                          Ÿ
                                   12433              Ÿ     @R15 - RECORD GROUP INFO BLOCK                                  Ÿ
                                   12434              Ÿ       R0 - RECORD DATA LENGTH                                       Ÿ
                                   12435              Ÿ       R1 - RECORD DATA ADDRESS                                      Ÿ
                                   12436              Ÿ      @R2 - SEARCH NAME                                              Ÿ
                                   12437              Ÿ                                                                     Ÿ
                                   12438              Ÿ  ON EXIT:                                                           Ÿ
                                   12439              Ÿ      R15 - CC = ZERO, IF RECORD REPLACED                            Ÿ
                                   12440              Ÿ            CC = NZ, IF UNABLE TO REPLACE RECORD                     Ÿ
                                   12441              Ÿ      PAR - PAGE OBTAINED                                            Ÿ
                                   12442              Ÿ                                                                     Ÿ
                                   12443              Ÿ  NOTE: THIS ROUTINE DOES AN INPLACE REPLACE OF SPECIFIED            Ÿ
                                   12444              Ÿ    RECORD.  THIS ROUTINE HAS THE FOLLOWING RESTRICTIONS:            Ÿ
                                   12445              Ÿ       1. RECORD TO REPLACE MUST EXIST.                              Ÿ
                                   12446              Ÿ          (USE XPUT OR XPUTLINE TO CREATE ORIGINAL)                  Ÿ
                                   12447              Ÿ       2. RECORD LENGTH MUST EQUAL RECORD LENGTH OF RECORD           Ÿ
                                   12448              Ÿ          BEING REPLACED.                                            Ÿ
                                   12449              Ÿ    IF RECORD CAN NOT BE REPLACED THEN, R15 - CC=NZ.                 Ÿ
                                   12450              Ÿ    FINALLY, WE NOTE THAT THIS ROUTINE IS USED TO WRITE THE          Ÿ
                                   12451              Ÿ    ACTIVE FILE "AINFO" RECORDS.  THIS ROUTINE IS USED AS IT         Ÿ
                                   12452              Ÿ    WILL NEVER GET A "NO MORE ROOM" ERROR.  DIG IT!                  Ÿ
                                   12453              Ÿ                                                                     Ÿ
                                   12454              Ÿ                                                                     Ÿ
                                   12455              Ÿ                                                                     Ÿ
                                                      ¾þþþþþþþþþþþþþþþþþþþþþþþþþþþþþþþþþþþþþþþþþþþþþþþþþþþþþþþþþþþþþþþþþþþþþ»
0000000                00000 0008C 12456              XREPWA   RECORD BEGIN
 000000                            12464  1           XREPLOC    DS    F                   RECORD LOCATION
 000004                            12465  1           XREPLEN    DS    F                   RECORD LENGTH
 000008                            12466  1           XREPKEY    DS    (MXKEYLN)X          SEARCH KEY
                                   12467  1           XREPSET    EQU   XREPKEY,4             SEARCH SET NUMBER
                                   12468  1           XREPNAME   EQU   XREPKEY+4,MXNAMELN    SEARCH NAME
 00008C                0008C 0008C 12469                       END
                                   12478              *
                                   12479              *
 0011AA 50E0 D000/9008_      00000 12480              XREPLACE XPROC XREPWA
 USING  *,R7
 USING  XREPWA-(4+36),R8
 USING  RPAGE,R9                   12531                       USING RPAGE,PAR
 USING  RGROUP,R6                  12540                       USING RGROUP,R6
 0011C4 186F                       12549                       LR    R6,R15
 0011C6 5010 8028            00000 12550                       ST    R1,XREPLOC          SAVE RECORD LOC, LEN
 0011CA 5000 802C            00004 12551                       ST    R0,XREPLEN
                                   12552
1RECS     (RECS2101) (12:53) (15MAR04) INPLACE REPLACE                                                                      Page   54
0Current Usings:  (RGROUP,R6) (*,R7) (XREPWA-(4+36),R8) (RPAGE,R9) (CP,R11) (CV,R12)
0Loc    Object Code    Addr1 Addr2  Stmt Lv Lineno    Source Statement           (Hibal 5, Asmedit 3.3)  HLASM R4.0  2004/03/15 12.53
+___    ______ ____    _____ _____  ____ __ ______    ______ _________
0                                  12553                       COMMENT                   CREATE SEARCH KEY:  SET, NAME
 0011CE D203 8030 6004 00008 00004 12554                       MVC   XREPSET,RECSET
 0011D4 4830 6008            00008 12555                       LH    R3,RECNLEN
 0011D8 4140 8034            0000C 12556                       LA    R4,XREPNAME
 0011DC 1853                       12557                       LR    R5,R3
 0011DE 0E42                       12558                       MVCL  R4,R2               SAVE SEARCH NAME
                                   12559
                                   12560                       COMMENT                   CHECK FOR VALID REC GROUP, SET #
 0011E0 D503 70A8 6000_0126C 00000 12561                       IF    ((RECGRP,EQ,0),OR,(RECSET,EQ,0)),BEGIN  IF NULL
 0011F4 41F0 0004            00004 12596  1                      LA    R15,4
 0011F8 47F0 709A            0125E 12597  1                      B     XREPDONE
 0011FC                            12598                       END
                                   12602
                                   12603                       COMMENT                   GET DATA PAGE IN PAR
 0011FC 41F0 6000            00000 12604                       LA    R15,RGROUP
 001200 4120 8030            00008 12605                       LA    R2,XREPKEY
 001204 58E0 70B4/0DEE       01278 12606                       ACALL GETDPAGE            GET DATA PAGE IN PAR
                                   12610
                                   12611                       COMMENT                   FIND DATA INDEX
 00120A 4100 9030            00030 12612                       LA    R0,RPINFO           BSEARCH PAGE TO GET DATA INDEX
 00120E 4810 9022            00022 12613                       LH    R1,RPXSTART
 001212 1A19                       12614                       AR    R1,PAR
 001214 4120 8030            00008 12615                       LA    R2,XREPKEY
 001218 58E0 70C4/0DEE       01288 12616                       ACALL BSEARCH             GET DATA INDEX
 00121E 4780 7066            0122A 12620                       IF    NZ,BEGIN            IF DATA NOT FOUND,
 001222 41F0 0004            00004 12631  1                      LA    R15,4
 001226 47F0 709A            0125E 12632  1                      B     XREPDONE
 00122A                            12633                       END
                                   12637
                                   12638                       COMMENT                   IF DATA FOUND,,,
 00122A 4830 901C            0001C 12639                       LH    R3,RPKEYLN
 00122E 4803 1002            00002 12640                       LH    R0,DATALN(R3,R1)      GET DATA ADDR, LENGTH
 001232 4813 1000            00000 12641                       LH    R1,DATAPTR(R3,R1)
 001236 1A19                       12642                       AR    R1,PAR                R1,R0 - EXISTING DATA LOC, LEN
 001238 5900 802C/4780_      00004 12643                       IF    (R0,NE,XREPLEN),BEGIN IF LENGTH DOES NOT MATCH
 001240 41F0 0004            00004 12660  1                      LA    R15,4
 001244 47F0 709A            0125E 12661  1                      B     XREPDONE
 001248                            12662                       END
                                   12666
                                   12667                       COMMENT                   IF ALL OK, REPLACE OLD RECORD W/NEW
 001248 1821                       12668                       LR    R2,R1
 00124A 1830                       12669                       LR    R3,R0
 00124C 5840 8028            00000 12670                       L     R4,XREPLOC
 001250 5850 802C            00004 12671                       L     R5,XREPLEN
 001254 0E24                       12672                       MVCL  R2,R4               MOVE IN NEW RECORD DATA
 001256 58E0 70C8/0DEE       0128C 12673                       PMARK PAR                 MARK PAGE CHANGED
 00125C 1BFF                       12678                       CLEAR R15                 SET CC=ZERO, ALL OK
                                   12682
 00125E                            12683              XREPDONE LABEL ,                   NORMAL EXIT
 00125E 18D8/9808 D004_            12685                       PEND
 DROP   XREPWA-(4+36),R8
 DROP   *,R7
 DROP   RPAGE,R9                   12710                       DROP  PAR
 DROP   RGROUP,R6                  12717                       DROP  R6
1RECS     (RECS2101) (12:53) (15MAR04) INPLACE REPLACE                                                                      Page   55
0Current Usings:  (CP,R11) (CV,R12)
0Loc    Object Code    Addr1 Addr2  Stmt Lv Lineno    Source Statement           (Hibal 5, Asmedit 3.3)  HLASM R4.0  2004/03/15 12.53
+___    ______ ____    _____ _____  ____ __ ______    ______ _________
0                                  12725                       QLTORG
1RECS     (RECS2101) (12:53) (15MAR04) RECORD PAGE HANDLING ROUTINES                                                        Page   56
0Current Usings:  (CP,R11) (CV,R12)
0Loc    Object Code    Addr1 Addr2  Stmt Lv Lineno    Source Statement           (Hibal 5, Asmedit 3.3)  HLASM R4.0  2004/03/15 12.53
+___    ______ ____    _____ _____  ____ __ ______    ______ _________
0                                  12756              ¿þþþþþþþþþþþþþþþþþþþþþþþþþþþþþþþþþþþþþþþþþþþþþþþþþþþþþþþþþþþþþþþþþþþþþÜ
                                   12757              Ÿ                                                                     Ÿ
                                   12758              Ÿ                                                                     Ÿ
                                   12759              Ÿ  CONDPAGE - CONDENSE DATA PAGE                                      Ÿ
                                   12760              Ÿ                                                                     Ÿ
                                   12761              Ÿ  RECOVER SPACE ON DATA PAGE LOST BY FRAGMENTATION.                  Ÿ
                                   12762              Ÿ  THIS OPERATATION IS SIMILAR TO A LIBRARY CONDENSE.                 Ÿ
                                   12763              Ÿ                                                                     Ÿ
                                   12764              Ÿ  ON ENTRY:                                                          Ÿ
                                   12765              Ÿ       PAR - PAGE TO CONDENSE                                        Ÿ
                                   12766              Ÿ  ON EXIT:                                                           Ÿ
                                   12767              Ÿ       PAR - PAGE IS CONDENSED                                       Ÿ
                                   12768              Ÿ       R15 - CC=ZERO                                                 Ÿ
                                   12769              Ÿ                                                                     Ÿ
                                   12770              Ÿ                                                                     Ÿ
                                                      ¾þþþþþþþþþþþþþþþþþþþþþþþþþþþþþþþþþþþþþþþþþþþþþþþþþþþþþþþþþþþþþþþþþþþþþ»
0000000                00000 00010 12771              CONDWA   RECORD BEGIN
 000000                            12779  1           CONDDMMY   DS    4F                  UNUSED
 000010                            12780  1           CONDTEMP   DS    0F                  TEMP WORK AREA
                                   12781  1           *                                  WORK AREA MANUALLY PUSHED, POP'D
 000010                00010 00010 12782                       END
                                   12791              *
                                   12792              *
 0012B6 50E0 D000/9008_      00000 12793              CONDPAGE XPROC CONDWA
 USING  *,R7
 USING  CONDWA-(4+36),R8
 0012D0 5AD0 7AD8            01DA8 12844                       A     R13,=A(L'RPAGE)     XPUSH TEMP AREA
 0012D4 4120 8038            00010 12845                       LA    R2,CONDTEMP
 0012D8 5830 7AD8            01DA8 12846                       L     R3,=A(L'RPAGE)
 0012DC 1849                       12847                       LR    R4,PAR
 0012DE 1853                       12848                       LR    R5,R3
 0012E0 0E24                       12849                       MVCL  R2,R4               COPY PAGE @PAR TO TEMP AREA
                                   12850
                                   12851                       COMMENT                   CONDENSE DATA INTO TEMP AREA
 USING  RPAGE,R9                   12852                       USING RPAGE,PAR
 0012E2 4810 9022            00022 12861                       LH    R1,RPXSTART         R1 - INDEX POINTER (IN PAR)
 0012E6 1A19                       12862                       AR    R1,PAR
 0012E8 4800 9024            00024 12863                       LH    R0,RPXEND           R0 - END OF INDEXES (IN PAR)
 0012EC 1A09                       12864                       AR    R0,PAR
 0012EE 4140 8038            00010 12865                       LA    R4,CONDTEMP         R4 - DATA POINTER (IN TEMP AREA)
 0012F2 4A40 902A            0002A 12866                       AH    R4,RPDSTART
 0012F6 4850 902A            0002A 12867                       LH    R5,RPDSTART         R5 - DATA OFFSET (IN TEMP AREA)
 0012FA 4160 8038            00010 12868                       LA    R6,CONDTEMP         R6 - INDEX POINTER (IN TEMP AREA)
 0012FE 4A60 9022            00022 12869                       AH    R6,RPXSTART
 001302 1910/47B0 706C             12870                       WHILE (R1,LT,R0),BEGIN    LOOP THRU ALL INDEXS AND DATAS
 001308 4830 901C            0001C 12887  1                      LH    R3,RPKEYLN
 00130C 48E3 1000            00000 12888  1                      LH    R14,DATAPTR(R3,R1)  R14 - DATA ADDR (IN @PAR)
 001310 1AE9                       12889  1                      AR    R14,PAR
 001312 48F3 1002            00002 12890  1                      LH    R15,DATALN(R3,R1)   R15 - DATA LEN  (ROUNDED UP)
 001316 41FF 000F            0000F 12891  1                      LA    R15,15(R15)
 00131A 88F0 0004            00004 12892  1                      SRL   R15,4
 00131E 89F0 0004            00004 12893  1                      SLL   R15,4
 001322 1B4F                       12894  1                      SR    R4,R15              R4,R2 - NEW SPOT FOR DATA
1RECS     (RECS2101) (12:53) (15MAR04) RECORD PAGE HANDLING ROUTINES                                                        Page   57
0Current Usings:  (*,R7) (CONDWA-(4+36),R8) (RPAGE,R9) (CP,R11) (CV,R12)
0Loc    Object Code    Addr1 Addr2  Stmt Lv Lineno    Source Statement           (Hibal 5, Asmedit 3.3)  HLASM R4.0  2004/03/15 12.53
+___    ______ ____    _____ _____  ____ __ ______    ______ _________
0001324 1B5F                       12895  1                      SR    R5,R15              R5 - NEW DATA OFFSET
 001326 4053 6000            00000 12896  1                      STH   R5,DATAPTR(R3,R6)   SAVE NEW DATA OFFSET
 00132A 1824                       12897  1                      LR    R2,R4
 00132C 183F                       12898  1                      LR    R3,R15
 00132E 0E2E                       12899  1                      MVCL  R2,R14              MOVE DATA
 001330 4A10 9020            00020 12900  1                      AH    R1,RPNTRYLN
 001334 4A60 9020            00020 12901  1                      AH    R6,RPNTRYLN
 001338 47F0 7032            01302 12902                       END
 DROP   RPAGE,R9                   12907                       DROP  PAR
 USING  RPAGE,R1                   12914                       USING RPAGE,R1
 00133C 4110 8038            00010 12923                       LA    R1,CONDTEMP
 001340 4050 102C            0002C 12924                       STH   R5,RPDEND           RESET DATA END POINTER
 DROP   RPAGE,R1                   12925                       DROP  R1
 001344 58E0 7ADC/0DEE       01DAC 12932                       PMARK PAR
                                   12937
                                   12938                       COMMENT                   COPY CONDENSED PAGE TO @PAR
 00134A 1829                       12939                       LR    R2,PAR
 00134C 5830 7AD8            01DA8 12940                       L     R3,=A(L'RPAGE)
 001350 4140 8038            00010 12941                       LA    R4,CONDTEMP
 001354 1853                       12942                       LR    R5,R3
 001356 0E24                       12943                       MVCL  R2,R4
 001358 58E0 7ADC/0DEE       01DAC 12944                       PMARK PAR
                                   12949
 00135E 1BFF                       12950                       CLEAR R15
 001360 5BD0 7AD8            01DA8 12954                       S     R13,=A(L'RPAGE)     XPOP TEMP AREA
 001364 18D8/9808 D004_            12955                       PEND
 DROP   CONDWA-(4+36),R8
 DROP   *,R7
1RECS     (RECS2101) (12:53) (15MAR04) RECORD PAGE HANDLING ROUTINES                                                        Page   58
0Current Usings:  (CP,R11) (CV,R12)
0Loc    Object Code    Addr1 Addr2  Stmt Lv Lineno    Source Statement           (Hibal 5, Asmedit 3.3)  HLASM R4.0  2004/03/15 12.53
+___    ______ ____    _____ _____  ____ __ ______    ______ _________
0                                  12981              ¿þþþþþþþþþþþþþþþþþþþþþþþþþþþþþþþþþþþþþþþþþþþþþþþþþþþþþþþþþþþþþþþþþþþþþÜ
                                   12982              Ÿ                                                                     Ÿ
                                   12983              Ÿ                                                                     Ÿ
                                   12984              Ÿ  CHKQINFO - VERIFY THAT QUICK GET/LOC POINTERS ARE OK !             Ÿ
                                   12985              Ÿ                                                                     Ÿ
                                   12986              Ÿ  THE QUICK GET/LOC POINTERS GIVE THE OFFSET AND                     Ÿ
                                   12987              Ÿ  PAGE NUMBER OF THE LAST DATA INDEX REFERENCED.  WHEN               Ÿ
                                   12988              Ÿ  SEQUENTIALLY ACCESSING A FILE, THESE QUICK GET/LOC                 Ÿ
                                   12989              Ÿ  POINTERS MAY BE USED TO SPEED UP ACCESS. THIS ROUTINE              Ÿ
                                   12990              Ÿ  CHECKS THE VALIDITY OF THE POINTERS !                              Ÿ
                                   12991              Ÿ                                                                     Ÿ
                                   12992              Ÿ  ON ENTRY:                                                          Ÿ
                                   12993              Ÿ     @R15 - RECORD GROUP INFO BLOCK                                  Ÿ
                                   12994              Ÿ            (CONTAINS QUICK GET/LOC INFO)                            Ÿ
                                   12995              Ÿ      @R2 - RECORD KEY (SET,NAME)                                    Ÿ
                                   12996              Ÿ                                                                     Ÿ
                                   12997              Ÿ  ON EXIT:                                                           Ÿ
                                   12998              Ÿ       R1 - CURRENT LINE INDEX POINTER, ZERO IF DOES NOT EXIST       Ÿ
                                   12999              Ÿ      R15 - CC=ZERO IF OK, CC=NZ IF INVALID QUICK INFO               Ÿ
                                   13000              Ÿ      PAR - PAGE OBTAINED                                            Ÿ
                                   13001              Ÿ                                                                     Ÿ
                                                      ¾þþþþþþþþþþþþþþþþþþþþþþþþþþþþþþþþþþþþþþþþþþþþþþþþþþþþþþþþþþþþþþþþþþþþþ»
0001372 50E0 D000/9008_      00000 13002              CHKQINFO PROC
 USING  *,R7
 USING  RPAGE,R9                   13041                       USING RPAGE,PAR
 USING  RGROUP,R6                  13050                       USING RGROUP,R6
 00138C 186F                       13059                       LR    R6,R15
 00138E D503 7A14 6010_01DA0 00010 13060                       IF    ((RECQPG,EQ,0),OR,(RECQOFF,EQ,0)),BEGIN
 0013A2 47F0 7098            01424 13095  1                      B     BADQINFO
 0013A6                            13096                       END
 0013A6 5800 6010            00010 13100                       L     R0,RECQPG
 0013AA 58E0 7A24/0DEE       01DB0 13101                       PGET  PAR,(R0)            GET SPECIFIED QUICK PAGE
 0013B0 D505 9000 7A7C_00000 01E08 13109                       RPCHECK                   CHECK IT
 0013C6 9180 9014/4710_00014       13117                       IF    ~RPDATA,BEGIN
 0013CE 47F0 7098            01424 13132  1                      B     BADQINFO
 0013D2                            13133                       END
 0013D2 D503 9010 6000_00010 00000 13137                       IF    ((RPNUMB,NE,RGROUP),AND,(RPLINK,NE,RGROUP)),BEGIN
 0013E6 47F0 7098            01424 13172  1                      B     BADQINFO
 0013EA                            13173                       END
 0013EA 4830 9022            00022 13177                       LH    R3,RPXSTART         R3 - START OF INDEX ENTRIES
 0013EE 1A39                       13178                       AR    R3,PAR
 0013F0 4840 9024            00024 13179                       LH    R4,RPXEND           R4 - END OF INDEX ENTRIES
 0013F4 1A49                       13180                       AR    R4,PAR
 0013F6 4810 6018            00018 13181                       LH    R1,RECQOFF          R1 - QUICK INDEX POINTER
 0013FA 1A19                       13182                       AR    R1,PAR
 0013FC 1913/4740 707C_            13183                       IF    ((R1,LT,R3),OR,(R1,GE,R4)),BEGIN
 001408 47F0 7098            01424 13212  1                      B     BADQINFO
 00140C                            13213                       END
 00140C 4850 901C            0001C 13217                       LH    R5,RPKEYLN          COMPARE QUICK INDEX TO KEY
 001410 0650/4450 7A8E_            13218                       DEX   R5,' CLC 0(0,R1),0(R2) '
 001416 4780 7092            0141E 13237                       IF    NZ,BEGIN
 00141A 47F0 7098            01424 13248  1                      B     BADQINFO
 00141E                            13249                       END
1RECS     (RECS2101) (12:53) (15MAR04) RECORD PAGE HANDLING ROUTINES                                                        Page   59
0Current Usings:  (RGROUP,R6) (*,R7) (RPAGE,R9) (CP,R11) (CV,R12)
0Loc    Object Code    Addr1 Addr2  Stmt Lv Lineno    Source Statement           (Hibal 5, Asmedit 3.3)  HLASM R4.0  2004/03/15 12.53
+___    ______ ____    _____ _____  ____ __ ______    ______ _________
0                                  13253                       COMMENT                   ALL OK -- WE GOT INDEX MATCH
 00141E 1BFF                       13254                       CLEAR R15
                                   13258
 001420 47F0 70A2            0142E 13259                       B     CHKQDONE
                                   13260              *
                                   13261              *  EXITS
                                   13262              *
 001424                            13263              BADQINFO LABEL ,
 001424 1B11                       13265                       CLEAR R1
 001426 41F0 0004            00004 13269                       LA    R15,4
 00142A 47F0 70A2            0142E 13270                       B     CHKQDONE
                                   13271
 00142E                            13272              CHKQDONE LABEL ,                   NORAML EXIT
 00142E 9001 8004            00004 13274                       PRETURN (R0,R1)
 001432 18D8/9808 D004_            13276                       PEND
 DROP   *,R7
-DROP   RPAGE,R9                   13297                       DROP  PAR
 DROP   RGROUP,R6                  13304                       DROP  R6
1RECS     (RECS2101) (12:53) (15MAR04) RECORD PAGE HANDLING ROUTINES                                                        Page   60
0Current Usings:  (CP,R11) (CV,R12)
0Loc    Object Code    Addr1 Addr2  Stmt Lv Lineno    Source Statement           (Hibal 5, Asmedit 3.3)  HLASM R4.0  2004/03/15 12.53
+___    ______ ____    _____ _____  ____ __ ______    ______ _________
0                                  13312              ¿þþþþþþþþþþþþþþþþþþþþþþþþþþþþþþþþþþþþþþþþþþþþþþþþþþþþþþþþþþþþþþþþþþþþþÜ
                                   13313              Ÿ                                                                     Ÿ
                                   13314              Ÿ                                                                     Ÿ
                                   13315              Ÿ  CHKQPAGE - VERIFY THAT QUICK GET/LOC PAGE POINTER IS OK !          Ÿ
                                   13316              Ÿ                                                                     Ÿ
                                   13317              Ÿ  THE QUICK GET/LOC POINTERS GIVE THE OFFSET AND                     Ÿ
                                   13318              Ÿ  PAGE NUMBER OF THE LAST DATA INDEX REFERENCED.  WHEN               Ÿ
                                   13319              Ÿ  SEQUENTIALLY ACCESSING A FILE, THESE QUICK GET/LOC                 Ÿ
                                   13320              Ÿ  POINTERS MAY BE USED TO SPEED UP ACCESS. THIS ROUTINE              Ÿ
                                   13321              Ÿ  CHECKS THE VALIDITY OF THE QUICK PAGE POINTER.                     Ÿ
                                   13322              Ÿ                                                                     Ÿ
                                   13323              Ÿ  ON ENTRY:                                                          Ÿ
                                   13324              Ÿ     @R15 - RECORD GROUP INFO BLOCK                                  Ÿ
                                   13325              Ÿ            (CONTAINS QUICK GET/LOC INFO)                            Ÿ
                                   13326              Ÿ      @R2 - RECORD KEY (SET,NAME)                                    Ÿ
                                   13327              Ÿ                                                                     Ÿ
                                   13328              Ÿ  ON EXIT:                                                           Ÿ
                                   13329              Ÿ      R15 - CC=ZERO IF OK, CC=NZ IF INVALID QUICK INFO               Ÿ
                                   13330              Ÿ      PAR - PAGE OBTAINED                                            Ÿ
                                   13331              Ÿ                                                                     Ÿ
                                                      ¾þþþþþþþþþþþþþþþþþþþþþþþþþþþþþþþþþþþþþþþþþþþþþþþþþþþþþþþþþþþþþþþþþþþþþ»
0001440 50E0 D000/9008_      00000 13332              CHKQPAGE PROC
 USING  *,R7
 USING  RPAGE,R9                   13371                       USING RPAGE,PAR
 USING  RGROUP,R6                  13380                       USING RGROUP,R6
 00145A 186F                       13389                       LR    R6,R15
 00145C D503 7946 6010_01DA0 00010 13390                       IF    ((RECQPG,EQ,0),OR,(RECQOFF,EQ,0)),BEGIN
 001470 47F0 7094            014EE 13425  1                      B     BADPINFO
 001474                            13426                       END
 001474 5800 6010            00010 13430                       L     R0,RECQPG
 001478 58E0 7956/0DEE       01DB0 13431                       PGET  PAR,(R0)            GET SPECIFIED QUICK PAGE
 00147E D505 9000 79AE_00000 01E08 13439                       RPCHECK                   CHECK IT
 001494 9180 9014/4710_00014       13447                       IF    ~RPDATA,BEGIN
 00149C 47F0 7094            014EE 13462  1                      B     BADPINFO
 0014A0                            13463                       END
 0014A0 D503 9010 6000_00010 00000 13467                       IF    ((RPNUMB,NE,RGROUP),AND,(RPLINK,NE,RGROUP)),BEGIN
 0014B4 47F0 7094            014EE 13502  1                      B     BADPINFO
 0014B8                            13503                       END
 0014B8 4830 9026            00026 13507                       LH    R3,RPXFIRST         R3 - 1ST VALID ENTRY LIMIT
 0014BC 1A39                       13508                       AR    R3,PAR
 0014BE 4840 9028            00028 13509                       LH    R4,RPXLAST          R4 - LAST VALID ENTRYL LIMIT
 0014C2 1A49                       13510                       AR    R4,PAR
 0014C4 4850 901C            0001C 13511                       LH    R5,RPKEYLN          CHECK IF ENTRY GOES ON THIS PAGE
 0014C8 0650/4450 79C6_            13512                       DEX   R5,' CLC 0(0,R2),0(R3) '
 0014CE 47B0 707C            014D6 13531                       IF    LT,BEGIN
 0014D2 47F0 7094            014EE 13542  1                      B     BADPINFO
 0014D6                            13543                       END
 0014D6 4850 901C            0001C 13547                       LH    R5,RPKEYLN          CHECK IF ENTRY GOES ON THIS PAGE
 0014DA 0650/4450 79CC_            13548                       DEX   R5,' CLC 0(0,R2),0(R4) '
 0014E0 4750 708E            014E8 13567                       IF    GE,BEGIN
 0014E4 47F0 7094            014EE 13578  1                      B     BADPINFO
 0014E8                            13579                       END
                                   13583                       COMMENT                   ALL OK -- WE GOT RIGHT PAGE
1RECS     (RECS2101) (12:53) (15MAR04) RECORD PAGE HANDLING ROUTINES                                                        Page   61
0Current Usings:  (RGROUP,R6) (*,R7) (RPAGE,R9) (CP,R11) (CV,R12)
0Loc    Object Code    Addr1 Addr2  Stmt Lv Lineno    Source Statement           (Hibal 5, Asmedit 3.3)  HLASM R4.0  2004/03/15 12.53
+___    ______ ____    _____ _____  ____ __ ______    ______ _________
00014E8 1BFF                       13584                       CLEAR R15
                                   13588
 0014EA 47F0 709C            014F6 13589                       B     CHKPDONE
                                   13590              *
                                   13591              *  EXITS
                                   13592              *
 0014EE                            13593              BADPINFO LABEL ,
 0014EE 41F0 0004            00004 13595                       LA    R15,4
 0014F2 47F0 709C            014F6 13596                       B     CHKPDONE
                                   13597
 0014F6                            13598              CHKPDONE LABEL ,                   NORMAL EXIT
 0014F6 18D8/9808 D004_            13600                       PEND
 DROP   *,R7
-DROP   RPAGE,R9                   13621                       DROP  PAR
 DROP   RGROUP,R6                  13628                       DROP  R6
1RECS     (RECS2101) (12:53) (15MAR04) RECORD PAGE HANDLING ROUTINES                                                        Page   62
0Current Usings:  (CP,R11) (CV,R12)
0Loc    Object Code    Addr1 Addr2  Stmt Lv Lineno    Source Statement           (Hibal 5, Asmedit 3.3)  HLASM R4.0  2004/03/15 12.53
+___    ______ ____    _____ _____  ____ __ ______    ______ _________
0                                  13636              ¿þþþþþþþþþþþþþþþþþþþþþþþþþþþþþþþþþþþþþþþþþþþþþþþþþþþþþþþþþþþþþþþþþþþþþÜ
                                   13637              Ÿ                                                                     Ÿ
                                   13638              Ÿ                                                                     Ÿ
                                   13639              Ÿ  GETDPAGE - GET DATA PAGE                                           Ÿ
                                   13640              Ÿ                                                                     Ÿ
                                   13641              Ÿ  ON ENTRY:                                                          Ÿ
                                   13642              Ÿ     @R15 - RECORD GROUP INFO BLOCK                                  Ÿ
                                   13643              Ÿ      @R2 - NAME OF RECORD TO FIND                                   Ÿ
                                   13644              Ÿ                                                                     Ÿ
                                   13645              Ÿ  ON EXIT:                                                           Ÿ
                                   13646              Ÿ       PAR - PAGE TO SEARCH                                          Ÿ
                                   13647              Ÿ             (IE. IF ANY PAGE CONTAINS THE RECORD, THIS ONE DOES)    Ÿ
                                   13648              Ÿ       R15 - CC=ZERO                                                 Ÿ
                                   13649              Ÿ                                                                     Ÿ
                                   13650              Ÿ                                                                     Ÿ
                                   13651              Ÿ                                                                     Ÿ
                                                      ¾þþþþþþþþþþþþþþþþþþþþþþþþþþþþþþþþþþþþþþþþþþþþþþþþþþþþþþþþþþþþþþþþþþþþþ»
0001504 50E0 D000/9008_      00000 13652              GETDPAGE PROC  ,                   GET PAGE THAT CONTAINS RECORD
 USING  *,R7
 USING  RPAGE,R9                   13691                       USING RPAGE,PAR
 USING  RGROUP,R6                  13700                       USING RGROUP,R6
 00151E 186F                       13709                       LR    R6,R15
                                   13710
 001520 5800 6000            00000 13711                       L     R0,RECGRP
 001524 58E0 7892/0DEE       01DB0 13712                       PGET  PAR,(R0)            GET ROOT PAGE
 00152A D505 9000 78EA_00000 01E08 13720                       RPCHECK
 001540 9180 9014/4710_00014       13728                       IF    RPDATA,GOTBPAGE     IF QUICK PAGE, SEARCH THIS PAGE
 001548 9140 9014/47E0_00014       13746                       IF    RPMASTER,BEGIN      IF MASTER PAGE, FIND PAGE TO SRCH
 001550 4100 9030            00030 13761  1                      LA    R0,RPINFO
 001554 4810 9022            00022 13762  1                      LH    R1,RPXSTART
 001558 1A19                       13763  1                      AR    R1,PAR              BINARY SEARCH MASTER PAGE TO
 00155A 58E0 7896/0DEE       01DB4 13764  1                      ACALL BSEARCH             FIND CORRECT DATA PAGE
 001560 4830 901C            0001C 13768  1                      LH    R3,RPKEYLN
 001564 0630/4430 790E_            13769  1                      DEX   R3,' CLC 0(0,R2),0(R1) '
 00156A 47B0 7054            01572 13788  1                      IF    LT,BEGIN            IF REC IS LESS THAN MASTER ENTRY
 00156E 4B10 9020            00020 13799  2                        SH    R1,RPNTRYLN         THEN SEARCH ON PREVIOUS PAGE
 001572                            13800  1                      END
 001572 4820 9022            00022 13804  1                      LH    R2,RPXSTART         UNLESS WE WERE ALREADY ON FIRST
 001576 1A29                       13805  1                      AR    R2,PAR              OR HAVE GONE PAST LAST PAGE
 001578 4830 9024            00024 13806  1                      LH    R3,RPXEND
 00157C 1A39                       13807  1                      AR    R3,PAR
 00157E 1912/47B0 7068             13808  1                      IF    (R1,LT,R2),BEGIN    R2-1ST REC PAGE, R3-LAST PAGE
 001584 1812                       13823  2                        LR    R1,R2
 001586                            13824  1                      END
 001586 1913/4750 7074             13828  1                      IF    (R1,GE,R3),BEGIN
 00158C 1813                       13843  2                        LR    R1,R3
 00158E 4B10 9020            00020 13844  2                        SH    R1,RPNTRYLN
 001592                            13845  1                      END
                                   13849  1                      COMMENT                   R1 - ADDR OF BLOCK NO TO SEARCH
 001592 4830 901C            0001C 13850  1                      LH    R3,RPKEYLN
 001596 5823 1000            00000 13851  1                      L     R2,DATAPGNO(R3,R1)  R2 - BLK NUMBER OF BLOCK TO SEARCH
 00159A 58E0 789A/0DEE       01DB8 13852  1                      PFREE PAR                 FREE MASTER PAGE
 0015A0 1802/58E0 7892_            13858  1                      PGET  PAR,(R2)            GET PAGE TO SEARCH
1RECS     (RECS2101) (12:53) (15MAR04) RECORD PAGE HANDLING ROUTINES                                                        Page   63
0Current Usings:  (RGROUP,R6) (*,R7) (RPAGE,R9) (CP,R11) (CV,R12)
0Loc    Object Code    Addr1 Addr2  Stmt Lv Lineno    Source Statement           (Hibal 5, Asmedit 3.3)  HLASM R4.0  2004/03/15 12.53
+___    ______ ____    _____ _____  ____ __ ______    ______ _________
00015A8 D505 9000 78EA_00000 01E08 13867  1                      RPCHECK
 0015BE                            13875                       END
                                   13879
 0015BE                            13880              GOTBPAGE LABEL ,
 0015BE 1BFF                       13882                       SR    R15,R15
 0015C0 18D8/9808 D004_            13883                       PEND
 DROP   *,R7
 DROP   RPAGE,R9                   13903                       DROP  PAR
 DROP   RGROUP,R6                  13910                       DROP  R6
1RECS     (RECS2101) (12:53) (15MAR04) RECORD PAGE HANDLING ROUTINES                                                        Page   64
0Current Usings:  (CP,R11) (CV,R12)
0Loc    Object Code    Addr1 Addr2  Stmt Lv Lineno    Source Statement           (Hibal 5, Asmedit 3.3)  HLASM R4.0  2004/03/15 12.53
+___    ______ ____    _____ _____  ____ __ ______    ______ _________
0                                  13918              ¿þþþþþþþþþþþþþþþþþþþþþþþþþþþþþþþþþþþþþþþþþþþþþþþþþþþþþþþþþþþþþþþþþþþþþÜ
                                   13919              Ÿ                                                                     Ÿ
                                   13920              Ÿ                                                                     Ÿ
                                   13921              Ÿ  NEXTPAGE - GET NEXT DATA PAGE                                      Ÿ
                                   13922              Ÿ                                                                     Ÿ
                                   13923              Ÿ  ON ENTRY:                                                          Ÿ
                                   13924              Ÿ     @R15 - RECORD GROUP INFO BLOCK                                  Ÿ
                                   13925              Ÿ      PAR - CURRENT DATA PAGE                                        Ÿ
                                   13926              Ÿ                                                                     Ÿ
                                   13927              Ÿ  ON EXIT:                                                           Ÿ
                                   13928              Ÿ       PAR - NEXT DATA PAGE                                          Ÿ
                                   13929              Ÿ       R15 - CC=ZERO, IF NEXT DATA PAGE EXISTS                       Ÿ
                                   13930              Ÿ             CC=NZ, IF NO NEXT DATA PAGE                             Ÿ
                                   13931              Ÿ                                                                     Ÿ
                                   13932              Ÿ                                                                     Ÿ
                                                      ¾þþþþþþþþþþþþþþþþþþþþþþþþþþþþþþþþþþþþþþþþþþþþþþþþþþþþþþþþþþþþþþþþþþþþþ»
00015CE 50E0 D000/9008_      00000 13933              NEXTPAGE PROC  SEARCHWA
 USING  *,R7
 USING  SEARCHWA-(4+36),R8
 USING  RPAGE,R9                   13983                       USING RPAGE,PAR
 USING  RGROUP,R6                  13992                       USING RGROUP,R6
 0015E8 186F                       14001                       LR    R6,R15
 0015EA D503 77B8 9018_01DA0 00018 14002                       IF    (RPLINK,EQ,0),BEGIN IF NO MASTER PAGE, NO NEXT PAGE
 0015F4 41F0 0004            00004 14020  1                      LA    R15,4
 0015F8                            14021                       END
 0015F8 7014/47F0 7052 015F8 015F2 14025                       ELSE  BEGIN
 0015FC 4820 9028            00028 14036  1                      LH    R2,RPXLAST
 001600 1A29                       14037  1                      AR    R2,PAR
 001602 4830 901C            0001C 14038  1                      LH    R3,RPKEYLN
 001606 5850 77D4            01DBC 14039  1                      L     R5,=X'FF000000'
 00160A 0F24                       14040  1                      CLCL  R2,R4
 00160C 4770 702C            01614 14041  1                      IF    E,BEGIN             IF LAST = X'FFFF..', NO NEXT PAGE
 001610 41F0 0004            00004 14052  2                        LA    R15,4
 001614                            14053  1                      END
                                   14057  1
 001614 7030/47F0 7052 01614 0160E 14058  1                      ELSE  BEGIN  ,,,          IF THERE IS NEXT PAGE, GET IT
 001618 4120 8030            00008 14069  2                        LA    R2,SRCHKEY
 00161C 4830 901C            0001C 14070  2                        LH    R3,RPKEYLN
 001620 4840 9028            00028 14071  2                        LH    R4,RPXLAST
 001624 1A49                       14072  2                        AR    R4,PAR
 001626 1853                       14073  2                        LR    R5,R3
 001628 0E24                       14074  2                        MVCL  R2,R4               SAVE SEARCH KEY FOR NEXT PAGE
 00162A 41F0 6000            00000 14075  2                        LA    R15,RGROUP
 00162E 4120 8030            00008 14076  2                        LA    R2,SRCHKEY
 001632 58E0 77D8/0DEE       01DC0 14077  2                        ACALL GETDPAGE            GET NEXT DIRECTORY PAGE !
 001638 1BFF                       14081  2                        CLEAR R15
 00163A                            14085  1                      END
 00163A                            14089                       END
 00163A 18D8/9808 D004_            14093                       PEND
 DROP   SEARCHWA-(4+36),R8
 DROP   *,R7
 DROP   RPAGE,R9                   14118                       DROP  PAR
 DROP   RGROUP,R6                  14125                       DROP  R6
1RECS     (RECS2101) (12:53) (15MAR04) RECORD PAGE HANDLING ROUTINES                                                        Page   65
0Current Usings:  (CP,R11) (CV,R12)
0Loc    Object Code    Addr1 Addr2  Stmt Lv Lineno    Source Statement           (Hibal 5, Asmedit 3.3)  HLASM R4.0  2004/03/15 12.53
+___    ______ ____    _____ _____  ____ __ ______    ______ _________
0                                  14133              ¿þþþþþþþþþþþþþþþþþþþþþþþþþþþþþþþþþþþþþþþþþþþþþþþþþþþþþþþþþþþþþþþþþþþþþÜ
                                   14134              Ÿ                                                                     Ÿ
                                   14135              Ÿ                                                                     Ÿ
                                   14136              Ÿ  PREVPAGE - GET PREVIOUS DATA PAGE                                  Ÿ
                                   14137              Ÿ                                                                     Ÿ
                                   14138              Ÿ  ON ENTRY:                                                          Ÿ
                                   14139              Ÿ     @R15 - RECORD GROUP INFO BLOCK                                  Ÿ
                                   14140              Ÿ      PAR - CURRENT DATA PAGE                                        Ÿ
                                   14141              Ÿ                                                                     Ÿ
                                   14142              Ÿ  ON EXIT:                                                           Ÿ
                                   14143              Ÿ       PAR - PREVIOUS DATA PAGE                                      Ÿ
                                   14144              Ÿ       R15 - CC=ZERO, IF PREVIOUS DATA PAGE EXISTS                   Ÿ
                                   14145              Ÿ             CC=NZ, IF NO PREVIOUS DATA PAGE                         Ÿ
                                   14146              Ÿ                                                                     Ÿ
                                   14147              Ÿ                                                                     Ÿ
                                                      ¾þþþþþþþþþþþþþþþþþþþþþþþþþþþþþþþþþþþþþþþþþþþþþþþþþþþþþþþþþþþþþþþþþþþþþ»
0001648 50E0 D000/9008_      00000 14148              PREVPAGE PROC  SEARCHWA
 USING  *,R7
 USING  SEARCHWA-(4+36),R8
 USING  RPAGE,R9                   14198                       USING RPAGE,PAR
 USING  RGROUP,R6                  14207                       USING RGROUP,R6
 001662 186F                       14216                       LR    R6,R15
 001664 D503 773E 9018_01DA0 00018 14217                       IF    (RPLINK,EQ,0),BEGIN IF NO MASTER PAGE, NO PREV PAGE
 00166E 41F0 0004            00004 14235  1                      LA    R15,4
 001672                            14236                       END
 001672 7014/47F0 70A6 01672 0166C 14240                       ELSE  BEGIN
 001676 4820 9026            00026 14251  1                      LH    R2,RPXFIRST
 00167A 1A29                       14252  1                      AR    R2,PAR
 00167C 4830 901C            0001C 14253  1                      LH    R3,RPKEYLN
 001680 1B55                       14254  1                      CLEAR R5
 001682 0F24                       14258  1                      CLCL  R2,R4
 001684 4770 702A            0168C 14259  1                      IF    E,BEGIN             IF FIRST = X'000..', NO PREV PAGE
 001688 41F0 0004            00004 14270  2                        LA    R15,4
 00168C                            14271  1                      END
                                   14275  1
 00168C 702E/47F0 70A6 0168C 01686 14276  1                      ELSE  BEGIN  ,,,          IF THERE IS PREV PAGE, GET IT
 001690 4120 8030            00008 14287  2                        LA    R2,SRCHKEY
 001694 4830 901C            0001C 14288  2                        LH    R3,RPKEYLN
 001698 4840 9026            00026 14289  2                        LH    R4,RPXFIRST
 00169C 1A49                       14290  2                        AR    R4,PAR
 00169E 1853                       14291  2                        LR    R5,R3
 0016A0 0E24                       14292  2                        MVCL  R2,R4               SAVE SEARCH KEY FOR THIS PAGE
 0016A2 5800 9018            00018 14293  2                        L     R0,RPLINK
 0016A6 58E0 774E/0DEE       01DB0 14294  2                        PGET  PAR,(R0)            GET MASTER PAGE
 0016AC D505 9000 77A6_00000 01E08 14302  2                        RPCHECK
 0016C2 9140 9014/4710_00014       14310  2                        IF    ~RPMASTER,' BOMB '
 0016CC 4100 9030            00030 14332  2                        LA    R0,RPINFO
 0016D0 4810 9022            00022 14333  2                        LH    R1,RPXSTART
 0016D4 1A19                       14334  2                        AR    R1,PAR
 0016D6 4120 8030            00008 14335  2                        LA    R2,SRCHKEY
 0016DA 58E0 7752/0DEE       01DB4 14336  2                        ACALL BSEARCH             SEARCH MASTER FOR NEXT PAGE
 0016E0 4780 7084/0000       016E6 14340  2                        IF    NZ,' BOMB '         WE MUST FIND CURRENT PAGE,
 0016E6 4B10 9020            00020 14358  2                        SH    R1,RPNTRYLN         NOW BACK UP ONE PAGE
1RECS     (RECS2101) (12:53) (15MAR04) RECORD PAGE HANDLING ROUTINES                                                        Page   66
0Current Usings:  (RGROUP,R6) (*,R7) (SEARCHWA-(4+36),R8) (RPAGE,R9) (CP,R11) (CV,R12)
0Loc    Object Code    Addr1 Addr2  Stmt Lv Lineno    Source Statement           (Hibal 5, Asmedit 3.3)  HLASM R4.0  2004/03/15 12.53
+___    ______ ____    _____ _____  ____ __ ______    ______ _________
00016EA 4820 9022            00022 14359  2                        LH    R2,RPXSTART
 0016EE 1A29                       14360  2                        AR    R2,PAR
 0016F0 1912/47B0 7096_            14361  2                        IF    (R1,LT,R2),' BOMB ' WE MUST BE ABLE TO BACK UP
 0016F8 4830 901C            0001C 14383  2                        LH    R3,RPKEYLN
 0016FC 5803 1000            00000 14384  2                        L     R0,DATAPGNO(R3,R1)  GET NEXT PAGE NUMBER
 001700 58E0 774E/0DEE       01DB0 14385  2                        PGET  PAR,(R0)            GET NEXT PAGE
 001706 1BFF                       14393  2                        CLEAR R15
 001708                            14397  1                      END
 001708                            14401                       END
 001708 18D8/9808 D004_            14405                       PEND
 DROP   SEARCHWA-(4+36),R8
 DROP   *,R7
 DROP   RPAGE,R9                   14430                       DROP  PAR
 DROP   RGROUP,R6                  14437                       DROP  R6
1RECS     (RECS2101) (12:53) (15MAR04) RECORD PAGE HANDLING ROUTINES                                                        Page   67
0Current Usings:  (CP,R11) (CV,R12)
0Loc    Object Code    Addr1 Addr2  Stmt Lv Lineno    Source Statement           (Hibal 5, Asmedit 3.3)  HLASM R4.0  2004/03/15 12.53
+___    ______ ____    _____ _____  ____ __ ______    ______ _________
0                                  14445              ¿þþþþþþþþþþþþþþþþþþþþþþþþþþþþþþþþþþþþþþþþþþþþþþþþþþþþþþþþþþþþþþþþþþþþþÜ
                                   14446              Ÿ                                                                     Ÿ
                                   14447              Ÿ                                                                     Ÿ
                                   14448              Ÿ  ADDDPAGE - ADD A NEW DATA PAGE                                     Ÿ
                                   14449              Ÿ                                                                     Ÿ
                                   14450              Ÿ  ON ENTRY:                                                          Ÿ
                                   14451              Ÿ     @R15 - RECORD GROUP INFO BLOCK                                  Ÿ
                                   14452              Ÿ            (CONTAINS ROOT PAGE POINTER, SPLIT INFO !)               Ÿ
                                   14453              Ÿ      PAR - PAGE TO SPLIT                                            Ÿ
                                   14454              Ÿ                                                                     Ÿ
                                   14455              Ÿ  ON EXIT:                                                           Ÿ
                                   14456              Ÿ       **  - THE GIVEN PAGE IS SPLIT AND THE MASTER INDEX UPDATED.   Ÿ
                                   14457              Ÿ             IF A MASTER INDEX DOES NOT EXIST ONE IS CREATED.        Ÿ
                                   14458              Ÿ       PAR - WILL CONTAIN MASTER INDEX, ALL DATA PAGES PFREED        Ÿ
                                   14459              Ÿ       R15 - CC=ZERO,                                                Ÿ
                                   14460              Ÿ             CC=NZ, IF MASTER PAGE FULL !  (VERY HARD TO DO!)        Ÿ
                                   14461              Ÿ                                                                     Ÿ
                                   14462              Ÿ  ORDER OF EVENTS:                                                   Ÿ
                                   14463              Ÿ       WE MAKE A COPY OF @PAR ONTO @PBR, THE WE CALCULATE            Ÿ
                                   14464              Ÿ       THE SPLIT POINT.  AND SET UP 2ND HALF OF SPLIT @PBR.          Ÿ
                                   14465              Ÿ       THEN WE SET UP THE FIRST HALF OF THE SPLIT @PAR.  WE THEN     Ÿ
                                   14466              Ÿ       UPDATE THE MASTER INDEX TO POINT AT THESE NEW PAGES.          Ÿ
                                   14467              Ÿ       SHOULD THERE BE A CRASH,, I HOPE LINKS WILL ALLOW ERROR       Ÿ
                                   14468              Ÿ       FREE RECOVERY !                                               Ÿ
                                   14469              Ÿ                                                                     Ÿ
                                   14470              Ÿ                                                                     Ÿ
                                                      ¾þþþþþþþþþþþþþþþþþþþþþþþþþþþþþþþþþþþþþþþþþþþþþþþþþþþþþþþþþþþþþþþþþþþþþ»
0000000                00000 0008E 14471              ADWA     RECORD BEGIN
 000000                            14479  1           ADKEEP     DS    F                   AMNT TO KEEP ON 1ST PAGE OF SPLIT
 000004                            14480  1           ADSPLITP   DS    H                   OFFSET OF SPLIT POINT
 000006                            14481  1           ADENTRY    DS    XL(MXKEYLN+4)       MASTER PAGE ENTRY FOR NEW PAGE
                                   14482  1
 00008E                0008E 0008E 14483                       END
                                   14492              *
                                   14493              *
 001716 50E0 D000/9008_      00000 14494              ADDDPAGE PROC  ADWA
 USING  *,R7
 USING  ADWA-(4+36),R8
 USING  RGROUP,R6                  14544                       USING RGROUP,R6
 001730 186F                       14553                       LR    R6,R15
                                   14554
                                   14555                       COMMENT                   IF NO MASTER PAGE, MAKE ONE
 USING  RPAGE,R9                   14556                       USING RPAGE,PAR
 001732 D503 7670 9018_01DA0 00018 14565                       IF    (RPLINK,EQ,0),BEGIN
 00173C 41F0 6000            00000 14583  1                      LA    R15,RGROUP
 001740 58E0 7694/0DEE       01DC4 14584  1                      ACALL MKMASTER
 001746                            14588                       END
 DROP   RPAGE,R9                   14592                       DROP  PAR
                                   14599
                                   14600                       COMMENT                   CHECK IF MASTER PAGE FULL,
                                   14601                       COMMENT                         IF FULL, WE DO NOT ADD PAGE
 USING  RPAGE,R10                  14602                       USING RPAGE,PBR
 001746 5809 0018            00018 14611                       L     R0,RPLINK-RPAGE(PAR)
1RECS     (RECS2101) (12:53) (15MAR04) RECORD PAGE HANDLING ROUTINES                                                        Page   68
0Current Usings:  (RGROUP,R6) (*,R7) (ADWA-(4+36),R8) (RPAGE,R10) (CP,R11) (CV,R12)
0Loc    Object Code    Addr1 Addr2  Stmt Lv Lineno    Source Statement           (Hibal 5, Asmedit 3.3)  HLASM R4.0  2004/03/15 12.53
+___    ______ ____    _____ _____  ____ __ ______    ______ _________
000174A 58E0 7698/0DEE       01DC8 14612                       PGET  PBR,(R0)            GET MASTER PAGE
 001750 D505 A000 76D8_00000 01E08 14620                       RPCHECK
 001766 4810 A024            00024 14628                       LH    R1,RPXEND           CALCULATE NEW END OF INDEXES
 00176A 4A10 A020            00020 14629                       AH    R1,RPNTRYLN
 00176E 4A10 A020            00020 14630                       AH    R1,RPNTRYLN         (PARANOIA CITY!   AX STMT AT WILL)
 001772 5820 7678            01DA8 14631                       L     R2,=A(L'RPAGE)
 001776 1912/4750 705A             14632                       IF    (R1,GE,R2),BEGIN    IF FULL, EXIT W/ERROR
 00177C 58E0 769C/0DEE       01DCC 14647  1                      PFREE PBR
 001782 41F0 0004            00004 14653  1                      LA    R15,4
 001786 47F0 7290            019C0 14654  1                      B     ADDDDONE
 00178A                            14655                       END
 DROP   RPAGE,R10                  14659                       DROP  PBR
                                   14666
 00178A 50F0 D000/58F0_      00000 14667                       PFLIP ,                   Preserve RPAGE in PBR
 USING  JCB,R15
 DROP   JCB,R15
 USING  RPAGE,R10                  14708                       WITH  (RPAGE,PBR),BEGIN
 0017AE 9140 A015/47E0_00015       14722  1                      IF    RPMEMORY,'VCALL MGETNEW'  Get page from memory
 0017BC 7090/47F0 7096_017BC 017B4 14746  1                      ELSE  'VCALL PGETNEW'     Get new page
 0017C6 4780 70A0/58E0_      017D0 14766  1                      IF    NZ,'VCALL NOMORPG'
 DROP   RPAGE,R10                  14786                       END
 0017D0 50F0 D000/58F0_      00000 14794                       PFLIP ,                   Flip new page into PBR
 USING  JCB,R15
 DROP   JCB,R15
                                   14835
                                   14836                       COMMENT                   COPY PAGE TO @PBR
 USING  RPAGE,R10                  14837                       USING RPAGE,PBR
 0017F4 182A                       14846                       LR    R2,PBR              COPY PAGE TO @PBR
 0017F6 5830 7678            01DA8 14847                       L     R3,=A(L'RPAGE)
 0017FA 1849                       14848                       LR    R4,PAR
 0017FC 1853                       14849                       LR    R5,R3
 0017FE 0E24                       14850                       MVCL  R2,R4
 001800 5000 A010            00010 14851                       ST    R0,RPNUMB           SET NEW PAGE NUMBER
 001804 9180 A015/47E0_00015       14852                       IF    RPRECVRY,BEGIN      SET PAGE TYPE /RECOVERY BIT
 00180C 4110 A006/1311_      00006 14867  1                      PTYPE PBR,RPUTYPE,RECOVERY=YES
 001818                            14874                       END
 001818 70EC/47F0 70F6 01818 0180A 14878                       ELSE  BEGIN
 00181C 4110 A006/58E0_      00006 14889  1                      PTYPE PBR,RPUTYPE
 001826                            14895                       END
 001826 58E0 76B0/0DEE       01DE0 14899                       PMARK PBR
 DROP   RPAGE,R10                  14904                       DROP  PBR
                                   14911
                                   14912                       COMMENT                   CALCULATE SPLIT FACTOR
 00182C 1F22/4320 600B             14913                       LC    R2,RECSPLT
 001832 5920 76B4/47D0_      01DE4 14920                       CEIL  R2,128-16           CHECK LIMITS OF SPLIT FACTOR
 00183E 5920 76B8/47B0_      01DE8 14939                       FLOOR R2,16
 00184A 1B00                       14958                       CLEAR R0
 00184C 5810 76BC            01DEC 14962                       L     R1,=A(L'RPAREA)     AMOUNT ON 1ST PAGE =
 001850 1C02                       14963                       MR    R0,R2                 PAGE AREA*SPLT FACTOR/128
 001852 8810 0007            00007 14964                       SRL   R1,7  (DIV BY 128)
 001856 5010 8028            00000 14965                       ST    R1,ADKEEP
                                   14966
                                   14967                       COMMENT                   CALCULATE SPLIT POINT
 USING  RPAGE,R9                   14968                       USING RPAGE,PAR
1RECS     (RECS2101) (12:53) (15MAR04) RECORD PAGE HANDLING ROUTINES                                                        Page   69
0Current Usings:  (RGROUP,R6) (*,R7) (ADWA-(4+36),R8) (RPAGE,R9) (CP,R11) (CV,R12)
0Loc    Object Code    Addr1 Addr2  Stmt Lv Lineno    Source Statement           (Hibal 5, Asmedit 3.3)  HLASM R4.0  2004/03/15 12.53
+___    ______ ____    _____ _____  ____ __ ______    ______ _________
000185A 4810 9022            00022 14977                       LH    R1,RPXSTART         CALCULATE SPLIT POINT
 00185E 1A19                       14978                       AR    R1,PAR
 001860 4800 9024            00024 14979                       LH    R0,RPXEND           R1 - START OF INDEXES
 001864 1A09                       14980                       AR    R0,PAR              R0 - END OF INDEXES
 001866 1B22                       14981                       CLEAR R2                  R2 - RUNNING SPACE USED TOTAL
 001868 4830 901C            0001C 14985                       LH    R3,RPKEYLN
 00186C 1910/47B0 7168_            14986                       WHILE ((R1,LT,R0),AND,(R2,LT,ADKEEP)),BEGIN
 00187A 4A20 9020            00020 15019  1                      AH    R2,RPNTRYLN         SPACE USED = INDEX ENTRY LEN +
 00187E 4843 1002            00002 15020  1                      LH    R4,DATALN(R3,R1)      + DATA LEN ,, FOR EACH INDEX
 001882 4144 000F            0000F 15021  1                      LA    R4,15(R4)
 001886 8840 0004            00004 15022  1                      SRL   R4,4
 00188A 8940 0004            00004 15023  1                      SLL   R4,4
 00188E 1A24                       15024  1                      AR    R2,R4
 001890 4A10 9020            00020 15025  1                      AH    R1,RPNTRYLN
 001894 47F0 713C            0186C 15026                       END
 001898 1910/4770 7172             15031                       IF    (R1,EQ,R0),BEGIN    INSURE NON TRIVIAL SPLIT
 00189E 4B10 9020            00020 15046  1                      SH    R1,RPNTRYLN
 0018A2                            15047                       END
 0018A2 1B19                       15051                       SR    R1,PAR
 0018A4 4010 802C            00004 15052                       STH   R1,ADSPLITP         SAVE SPLIT POINT OFFSET
 DROP   RPAGE,R9                   15053                       DROP  PAR
                                   15060
 USING  RPAGE,R10                  15061                       USING RPAGE,PBR
 0018A8 4120 802E            00006 15070                       LA    R2,ADENTRY          SAVE MASTER ENTRY FOR 2ND PAGE
 0018AC 4830 A01C            0001C 15071                       LH    R3,RPKEYLN
 0018B0 4840 802C            00004 15072                       LH    R4,ADSPLITP
 0018B4 1A4A                       15073                       AR    R4,PBR
 0018B6 1853                       15074                       LR    R5,R3
 0018B8 0E24                       15075                       MVCL  R2,R4               SAVE FIRST ENTRY ON NEW PAGE
 0018BA 5800 A010            00010 15076                       L     R0,RPNUMB           FOLLOWED BY NEW PAGE BLOCK NUMBER
 0018BE 4120 802E            00006 15077                       LA    R2,ADENTRY
 0018C2 4A20 A01C            0001C 15078                       AH    R2,RPKEYLN
 0018C6 5002 0000            00000 15079                       ST    R0,0(R2)
 DROP   RPAGE,R10                  15080                       DROP  PBR
                                   15087
                                   15088                       COMMENT                   SET 2ND HALF OF SPLIT @PBR
 USING  RPAGE,R10                  15089                       USING RPAGE,PBR
 0018CA 4820 A026            00026 15098                       LH    R2,RPXFIRST         SET UP NEW FIRST ENTRY LIMIT
 0018CE 1A2A                       15099                       AR    R2,PBR
 0018D0 4830 A01C            0001C 15100                       LH    R3,RPKEYLN
 0018D4 4840 802C            00004 15101                       LH    R4,ADSPLITP
 0018D8 1A4A                       15102                       AR    R4,PBR
 0018DA 1853                       15103                       LR    R5,R3
 0018DC 0E24                       15104                       MVCL  R2,R4
 0018DE 4820 A022            00022 15105                       LH    R2,RPXSTART         MOVE 2ND HALF OF INDEXES TO
 0018E2 1A2A                       15106                       AR    R2,PBR              START OF INDEX LIST
 0018E4 4840 802C            00004 15107                       LH    R4,ADSPLITP
 0018E8 1A4A                       15108                       AR    R4,PBR
 0018EA 4830 A024            00024 15109                       LH    R3,RPXEND
 0018EE 1A3A                       15110                       AR    R3,PBR
 0018F0 1B34                       15111                       SR    R3,R4
 0018F2 1853                       15112                       LR    R5,R3
 0018F4 0E24                       15113                       MVCL  R2,R4
 0018F6 4840 802C            00004 15114                       LH    R4,ADSPLITP         SET NEW END OF INDEXES POINTER
1RECS     (RECS2101) (12:53) (15MAR04) RECORD PAGE HANDLING ROUTINES                                                        Page   70
0Current Usings:  (RGROUP,R6) (*,R7) (ADWA-(4+36),R8) (RPAGE,R10) (CP,R11) (CV,R12)
0Loc    Object Code    Addr1 Addr2  Stmt Lv Lineno    Source Statement           (Hibal 5, Asmedit 3.3)  HLASM R4.0  2004/03/15 12.53
+___    ______ ____    _____ _____  ____ __ ______    ______ _________
00018FA 4830 A024            00024 15115                       LH    R3,RPXEND
 0018FE 1B34                       15116                       SR    R3,R4
 001900 4A30 A022            00022 15117                       AH    R3,RPXSTART
 001904 4030 A024            00024 15118                       STH   R3,RPXEND
 001908 4100 A030            00030 15119                       LA    R0,RPINFO           UPDATE BINARY SEARCH INFO
 00190C 5810 76BC            01DEC 15120                       L     R1,=A(L'RPAREA)
 001910 4820 A020            00020 15121                       LH    R2,RPNTRYLN
 001914 4830 A01C            0001C 15122                       LH    R3,RPKEYLN
 001918 4840 A024            00024 15123                       LH    R4,RPXEND
 00191C 4B40 A022            00022 15124                       SH    R4,RPXSTART
 001920 58E0 76C0/0DEE       01DF0 15125                       ACALL BSINIT
 001926 58E0 76B0/0DEE       01DE0 15129                       PMARK PBR                 MARK AND FREE PAGE
 00192C 58E0 769C/0DEE       01DCC 15134                       PFREE PBR
 DROP   RPAGE,R10                  15140                       DROP  PBR ,,              2ND HALF OF SPLIT DONE
                                   15147
                                   15148                       COMMENT                   SET UP 1ST HALF OF SPLIT @PAR
 USING  RPAGE,R9                   15149                       USING RPAGE,PAR
 001932 4820 9028            00028 15158                       LH    R2,RPXLAST          SET UP NEW LAST ENTRY LIMIT
 001936 1A29                       15159                       AR    R2,PAR
 001938 4830 901C            0001C 15160                       LH    R3,RPKEYLN
 00193C 4840 802C            00004 15161                       LH    R4,ADSPLITP
 001940 1A49                       15162                       AR    R4,PAR
 001942 1853                       15163                       LR    R5,R3
 001944 0E24                       15164                       MVCL  R2,R4
 001946 4810 802C            00004 15165                       LH    R1,ADSPLITP         SET NEW END OF INDEXES POINTER
 00194A 4010 9024            00024 15166                       STH   R1,RPXEND
 00194E 4100 9030            00030 15167                       LA    R0,RPINFO           UPDATE BINARY SEARCH INFO
 001952 5810 76BC            01DEC 15168                       L     R1,=A(L'RPAREA)
 001956 4820 9020            00020 15169                       LH    R2,RPNTRYLN
 00195A 4830 901C            0001C 15170                       LH    R3,RPKEYLN
 00195E 4840 9024            00024 15171                       LH    R4,RPXEND
 001962 4B40 9022            00022 15172                       SH    R4,RPXSTART
 001966 58E0 76C0/0DEE       01DF0 15173                       ACALL BSINIT
 00196C 58E0 767C/0DEE       01DAC 15177                       PMARK PAR                 MARK AND FREE PAGE
 001972 58E0 7688/0DEE       01DB8 15182                       PFREE PAR
 DROP   RPAGE,R9                   15188                       DROP  PAR ,,              1ST HALF OF SPLIT DONE
                                   15195
                                   15196                       COMMENT                   UPDATE MASTER PAGE NOW
 USING  RPAGE,R9                   15197                       USING RPAGE,PAR
 001978 5800 6000            00000 15206                       L     R0,RECGRP
 00197C 58E0 7680/0DEE       01DB0 15207                       PGET  PAR,(R0)
 001982 D505 9000 76D8_00000 01E08 15215                       RPCHECK
 001998 4100 9030            00030 15223                       LA    R0,RPINFO           INSERT NEW ENTRY
 00199C 4810 9022            00022 15224                       LH    R1,RPXSTART
 0019A0 1A19                       15225                       AR    R1,PAR
 0019A2 4120 802E            00006 15226                       LA    R2,ADENTRY
 0019A6 58E0 76C4/0DEE       01DF4 15227                       ACALL BINSERT
 0019AC 4780 7282/0000       019B2 15231                       IF    NZ,' BOMB '
 0019B2 1B09                       15249                       SR    R0,PAR
 0019B4 4000 9024            00024 15250                       STH   R0,RPXEND
 0019B8 58E0 767C/0DEE       01DAC 15251                       PMARK PAR
 0019BE 1BFF                       15256                       CLEAR R15                 PAGE ADDED, NO PROBLEMS
 DROP   RPAGE,R9                   15260                       DROP  PAR
                                   15267
1RECS     (RECS2101) (12:53) (15MAR04) RECORD PAGE HANDLING ROUTINES                                                        Page   71
0Current Usings:  (RGROUP,R6) (*,R7) (ADWA-(4+36),R8) (CP,R11) (CV,R12)
0Loc    Object Code    Addr1 Addr2  Stmt Lv Lineno    Source Statement           (Hibal 5, Asmedit 3.3)  HLASM R4.0  2004/03/15 12.53
+___    ______ ____    _____ _____  ____ __ ______    ______ _________
00019C0                            15268              ADDDDONE LABEL ,                   NORMAL EXIT
                                   15270                       COMMENT                   RETURNS R15 = ZERO, UNLESS FULL
 0019C0 18D8/9808 D004_            15271                       PEND
 DROP   ADWA-(4+36),R8
 DROP   *,R7
 DROP   RGROUP,R6                  15296                       DROP  R6
1RECS     (RECS2101) (12:53) (15MAR04) RECORD PAGE HANDLING ROUTINES                                                        Page   72
0Current Usings:  (CP,R11) (CV,R12)
0Loc    Object Code    Addr1 Addr2  Stmt Lv Lineno    Source Statement           (Hibal 5, Asmedit 3.3)  HLASM R4.0  2004/03/15 12.53
+___    ______ ____    _____ _____  ____ __ ______    ______ _________
0                                  15304              ¿þþþþþþþþþþþþþþþþþþþþþþþþþþþþþþþþþþþþþþþþþþþþþþþþþþþþþþþþþþþþþþþþþþþþþÜ
                                   15305              Ÿ                                                                     Ÿ
                                   15306              Ÿ                                                                     Ÿ
                                   15307              Ÿ  MKMASTER - MAKE AND INITIALIZE A MASTER INDEX PAGE                 Ÿ
                                   15308              Ÿ                                                                     Ÿ
                                   15309              Ÿ                                                                     Ÿ
                                   15310              Ÿ  ON ENTRY:                                                          Ÿ
                                   15311              Ÿ     @R15 - RECORD GROUP INFO BLOCK                                  Ÿ
                                   15312              Ÿ      PAR - CURRENT SINGLE DATA PAGE                                 Ÿ
                                   15313              Ÿ  ON EXIT:                                                           Ÿ
                                   15314              Ÿ       PAR - CURRENT DATA PAGE, RELOCATED, SEE COMMENTS BELOW        Ÿ
                                   15315              Ÿ       R15 - CC=ZERO                                                 Ÿ
                                   15316              Ÿ                                                                     Ÿ
                                   15317              Ÿ  THIS ROUTINE IS USED TO CREATE A MASTER INDEX PAGE.  IT IS         Ÿ
                                   15318              Ÿ  CALLED WHEN WE SPLIT THE FIRST AND ONLY DATA PAGE INTO             Ÿ
                                   15319              Ÿ  MULTIPLE DATA PAGES, WITH AN INDEX.  IT IS IMPERATIVE THAT         Ÿ
                                   15320              Ÿ  THE DATA PAGE BE COPIED TO A NEW PAGE (THAT WILL LATER BE          Ÿ
                                   15321              Ÿ  SPLIT.)  AND THAT THE INDEX PAGE BE CREATED ON THE CURRENT         Ÿ
                                   15322              Ÿ  PAGE.  WHY, BECAUSE THEN THE RECORD GROUP ROOT PAGE POINTER        Ÿ
                                   15323              Ÿ  STAYS THE SAME, (IE. THE REC GROUP PAGE POINTER POINTS EITHER      Ÿ
                                   15324              Ÿ  TO A MASTER INDEX,, OR A SINGLE UNSPLIT DATA PAGE.)  OH YEAH !     Ÿ
                                   15325              Ÿ                                                                     Ÿ
                                   15326              Ÿ                                                                     Ÿ
                                                      ¾þþþþþþþþþþþþþþþþþþþþþþþþþþþþþþþþþþþþþþþþþþþþþþþþþþþþþþþþþþþþþþþþþþþþþ»
00019CE 50E0 D000/9008_      00000 15327              MKMASTER PROC  ,                   MAKE A MASTER PAGE
 USING  *,R7
 USING  RGROUP,R6                  15366                       USING RGROUP,R6
 0019E8 186F                       15375                       LR    R6,R15
                                   15376
 0019EA 50F0 D000/58F0_      00000 15377                       PFLIP ,                   Preserve RPAGE in PBR
 USING  JCB,R15
 DROP   JCB,R15
 USING  RPAGE,R10                  15418                       WITH  (RPAGE,PBR),BEGIN
 001A0E 9140 A015/47E0_00015       15432  1                      IF    RPMEMORY,'VCALL MGETNEW'  Get page from memory
 001A1C 7038/47F0 703E_01A1C 01A14 15456  1                      ELSE  'VCALL PGETNEW'     Get new page
 001A26 4780 7048/58E0_      01A30 15476  1                      IF    NZ,'VCALL NOMORPG'
 DROP   RPAGE,R10                  15496                       END
 001A30 50F0 D000/58F0_      00000 15504                       PFLIP ,                   Flip new page into PBR
 USING  JCB,R15
 DROP   JCB,R15
                                   15545
 001A54 182A                       15546                       LR    R2,PBR              MOVE DATA PAGE TO NEW PAGE.
 001A56 5830 73C0            01DA8 15547                       L     R3,=A(L'RPAGE)      OLD PAGE WILL BECOME MASTER PAGE
 001A5A 1849                       15548                       LR    R4,PAR
 001A5C 1853                       15549                       LR    R5,R3
 001A5E 0E24                       15550                       MVCL  R2,R4
                                   15551
                                   15552                       COMMENT                   MAKE REQUIRED UPDATES TO NEW DATA
                                   15553                       COMMENT                   PAGE. (@PBR)
 USING  RPAGE,R10                  15554                       USING RPAGE,PBR
 001A60 5000 A010            00010 15563                       ST    R0,RPNUMB                         SET NEW PAGENO
 001A64 5809 0010            00010 15564                       L     R0,RPNUMB-RPAGE(PAR)              GET MASTER PAGENO
 001A68 5000 A018            00018 15565                       ST    R0,RPLINK                         SET LINK TO MASTER
1RECS     (RECS2101) (12:53) (15MAR04) RECORD PAGE HANDLING ROUTINES                                                        Page   73
0Current Usings:  (RGROUP,R6) (*,R7) (RPAGE,R10) (CP,R11) (CV,R12)
0Loc    Object Code    Addr1 Addr2  Stmt Lv Lineno    Source Statement           (Hibal 5, Asmedit 3.3)  HLASM R4.0  2004/03/15 12.53
+___    ______ ____    _____ _____  ____ __ ______    ______ _________
0001A6C 58E0 73F8/0DEE       01DE0 15566                       PMARK PBR
 001A72 9180 A015/47E0_00015       15571                       IF    RPRECVRY,BEGIN
 001A7A 4110 A006/1311_      00006 15586  1                      PTYPE PBR,RPUTYPE,RECOVERY=YES          SET PAGE TYPE
 001A86                            15593                       END
 001A86 70A2/47F0 70AC 01A86 01A78 15597                       ELSE  BEGIN
 001A8A 4110 A006/58E0_      00006 15608  1                      PTYPE PBR,RPUTYPE
 001A94                            15614                       END
 001A94 58E0 73F8/0DEE       01DE0 15618                       PMARK PBR
 DROP   RPAGE,R10                  15623                       DROP  PBR
                                   15630
                                   15631                       COMMENT                   MAKE REQUIRED CHANGES TO NEW
                                   15632                       COMMENT                   MASTER PAGE. (@PAR)
 USING  RPAGE,R9                   15633                       USING RPAGE,PAR
 001A9A D205 900A 7426 0000A 01E0E 15642                       MVC   RPNAME2(6),=CL6'MASTER  '
 001AA0 947F 9014      00014       15643                       CLEAR RPDATA              SET PAGE TYPE
 001AA4 9640 9014      00014       15650                       SET   RPMASTER
                                   15656                       COMMENT                   SET UP MASTER HEADER INFO
 001AA8 D703 9018 9018 00018 00018 15657                       CLEAR RPLINK                  ZERO LINKS
 001AAE 4810 901C            0001C 15664                       LH    R1,RPKEYLN              SET UP MASTER INDEX LENGTH
 001AB2 4111 0004            00004 15665                       LA    R1,L'DATAPGNO(R1)
 001AB6 4010 9020            00020 15666                       STH   R1,RPNTRYLN
 001ABA 4110 9050            00050 15667                       LA    R1,RPAREA               SET UP INDEX POINTERS
 001ABE 1B19                       15668                       SR    R1,PAR
 001AC0 4010 9022            00022 15669                       STH   R1,RPXSTART
 001AC4 4A10 9020            00020 15670                       AH    R1,RPNTRYLN
 001AC8 4010 9024            00024 15671                       STH   R1,RPXEND
 001ACC D701 9026 9026 00026 00026 15672                       CLEAR RPXFIRST
 001AD2 D701 9028 9028 00028 00028 15679                       CLEAR RPXLAST
 001AD8 D701 902A 902A 0002A 0002A 15686                       CLEAR RPDSTART                ZERO DATA POINTERS
 001ADE D701 902C 902C 0002C 0002C 15693                       CLEAR RPDEND
 001AE4 4100 9030            00030 15700                       LA    R0,RPINFO           SET UP BINARY SEARCH INFO FOR
 001AE8 5810 7404            01DEC 15701                       L     R1,=A(L'RPAREA)     MASTER PAGE
 001AEC 4820 9020            00020 15702                       LH    R2,RPNTRYLN
 001AF0 4830 901C            0001C 15703                       LH    R3,RPKEYLN
 001AF4 4840 9024            00024 15704                       LH    R4,RPXEND
 001AF8 4B40 9022            00022 15705                       SH    R4,RPXSTART
 001AFC 58E0 7408/0DEE       01DF0 15706                       ACALL BSINIT
 001B02 4810 9022            00022 15710                       LH    R1,RPXSTART         R1 - ADDRESS OF FIRST MASTER NDX
 001B06 1A19                       15711                       AR    R1,PAR
 001B08 1821                       15712                       LR    R2,R1
 001B0A 4830 901C            0001C 15713                       LH    R3,RPKEYLN
 001B0E 1B55                       15714                       SR    R5,R5
 001B10 0E24                       15715                       MVCL  R2,R4               ZERO 1ST MASTER ENTRY KEY,,
                                   15716                       COMMENT
 001B12 580A 0010            00010 15717                       L     R0,RPNUMB-RPAGE(PBR)
 001B16 4830 901C            0001C 15718                       LH    R3,RPKEYLN
 001B1A 5003 1000            00000 15719                       ST    R0,DATAPGNO(R3,R1)  SET DATA PAGE POINTER IN 1ST NDX
 001B1E 58E0 73C4/0DEE       01DAC 15720                       PMARK PAR
 001B24 58E0 73D0/0DEE       01DB8 15725                       PFREE PAR                 FREE MASTER PAGE
 DROP   RPAGE,R9                   15731                       DROP  PAR
 001B2A 50F0 D000/58F0_      00000 15738                       PFLIP ,                   FLIP DATA PAGE BACK INTO PAR
 USING  JCB,R15
 DROP   JCB,R15
 001B4E 1BFF                       15779                       CLEAR R15
1RECS     (RECS2101) (12:53) (15MAR04) RECORD PAGE HANDLING ROUTINES                                                        Page   74
0Current Usings:  (RGROUP,R6) (CP,R11) (CV,R12)
0Loc    Object Code    Addr1 Addr2  Stmt Lv Lineno    Source Statement           (Hibal 5, Asmedit 3.3)  HLASM R4.0  2004/03/15 12.53
+___    ______ ____    _____ _____  ____ __ ______    ______ _________
0001B50 18D8/9808 D004_            15783                       PEND
 DROP   *,R7
 DROP   RGROUP,R6                  15803                       DROP  R6
1RECS     (RECS2101) (12:53) (15MAR04) RECORD PAGE HANDLING ROUTINES                                                        Page   75
0Current Usings:  (CP,R11) (CV,R12)
0Loc    Object Code    Addr1 Addr2  Stmt Lv Lineno    Source Statement           (Hibal 5, Asmedit 3.3)  HLASM R4.0  2004/03/15 12.53
+___    ______ ____    _____ _____  ____ __ ______    ______ _________
0                                  15811              ¿þþþþþþþþþþþþþþþþþþþþþþþþþþþþþþþþþþþþþþþþþþþþþþþþþþþþþþþþþþþþþþþþþþþþþÜ
                                   15812              Ÿ                                                                     Ÿ
                                   15813              Ÿ                                                                     Ÿ
                                   15814              Ÿ  DELDPAGE - DELETE DATA PAGE                                        Ÿ
                                   15815              Ÿ                                                                     Ÿ
                                   15816              Ÿ  ON ENTRY:                                                          Ÿ
                                   15817              Ÿ     @R15 - RECORD GROUP INFO BLOCK                                  Ÿ
                                   15818              Ÿ      PAR - PAGE TO DELETE                                           Ÿ
                                   15819              Ÿ                                                                     Ÿ
                                   15820              Ÿ  ON EXIT:                                                           Ÿ
                                   15821              Ÿ       R15 - CC=ZERO                                                 Ÿ
                                   15822              Ÿ       PAR - PREVIOUS PAGE                                           Ÿ
                                   15823              Ÿ                                                                     Ÿ
                                   15824              Ÿ  NOTE: THIS ROUTINE MUST CLEAR QUICK GET/LOC INFO, SO               Ÿ
                                   15825              Ÿ        THAT WE WILL NOT TRY TO PGET THE DELETED PAGE LATER.         Ÿ
                                   15826              Ÿ  NOTE: WE UPDATE THE MASTER PAGE BEFORE WE DELETE THE PAGE,         Ÿ
                                   15827              Ÿ        THIS EXTRA WORK INSURES INDEX INTEGRITY. THOUGH IT           Ÿ
                                   15828              Ÿ        IS FOR NAUGHT, AS THERE IS NO WAY TO FORCE OUT THE           Ÿ
                                   15829              Ÿ        MASTER PAGE BEFORE THE PAGE DELETE. OH WELL.                 Ÿ
                                   15830              Ÿ                                                                     Ÿ
                                                      ¾þþþþþþþþþþþþþþþþþþþþþþþþþþþþþþþþþþþþþþþþþþþþþþþþþþþþþþþþþþþþþþþþþþþþþ»
0000000                00000 00114 15831              DLWA     RECORD BEGIN
 000000                            15839  1           DLPAGENO   DS    F                   NUMBER OF PAGE TO DELETE
 000004                            15840  1           DLPREVPG   DS    F                   NUMBER OF PREVIOUS PAGE
 000008                            15841  1           DLMASTPG   DS    F                   NUMBER OF MASTER PAGE
 00000C                            15842  1           DLXFIRST   DS    XL(MXKEYLN)         FIRST ENTRY LIMIT ON PAGE
 000090                            15843  1           DLXLAST    DS    XL(MXKEYLN)         LAST ENTRY LIMIT ON PAGE
 000114                00114 00114 15844                       END
                                   15853              *
                                   15854              *
 001B5E 50E0 D000/9008_      00000 15855              DELDPAGE PROC  DLWA
 USING  *,R7
 USING  DLWA-(4+36),R8
 USING  RPAGE,R9                   15905                       USING RPAGE,PAR
 USING  RGROUP,R6                  15914                       USING RGROUP,R6
 001B78 186F                       15923                       LR    R6,R15
 001B7A 9180 9014/4710_00014       15924                       IF    ~RPDATA,' BOMB'
 001B84 5800 9010            00010 15946                       L     R0,RPNUMB           SAVE PAGE NUMBER TO DELETE
 001B88 5000 8028            00000 15947                       ST    R0,DLPAGENO
 001B8C 5800 9018            00018 15948                       L     R0,RPLINK           SAVE MASTER PAGE NUMBER
 001B90 5000 8030            00008 15949                       ST    R0,DLMASTPG
 001B94 D703 6010 6010 00010 00010 15950                       CLEAR RECQPG              CLEAR QUICK GET/LOC NUMBER
 001B9A D701 6018 6018 00018 00018 15957                       CLEAR RECQOFF
 001BA0 D703 6014 6014 00014 00014 15964                       CLEAR RECPPG
 001BA6 D701 601A 601A 0001A 0001A 15971                       CLEAR RECPOFF
                                   15978
                                   15979                       COMMENT                   SAVE FIRST, LAST ENTRY LIMITS
 001BAC 4120 8034            0000C 15980                       LA    R2,DLXFIRST
 001BB0 4830 901C            0001C 15981                       LH    R3,RPKEYLN
 001BB4 4840 9026            00026 15982                       LH    R4,RPXFIRST
 001BB8 1A49                       15983                       AR    R4,PAR
 001BBA 1853                       15984                       LR    R5,R3
 001BBC 0E24                       15985                       MVCL  R2,R4
1RECS     (RECS2101) (12:53) (15MAR04) RECORD PAGE HANDLING ROUTINES                                                        Page   76
0Current Usings:  (RGROUP,R6) (*,R7) (DLWA-(4+36),R8) (RPAGE,R9) (CP,R11) (CV,R12)
0Loc    Object Code    Addr1 Addr2  Stmt Lv Lineno    Source Statement           (Hibal 5, Asmedit 3.3)  HLASM R4.0  2004/03/15 12.53
+___    ______ ____    _____ _____  ____ __ ______    ______ _________
0001BBE 4120 80B8            00090 15986                       LA    R2,DLXLAST
 001BC2 4830 901C            0001C 15987                       LH    R3,RPKEYLN
 001BC6 4840 9028            00028 15988                       LH    R4,RPXLAST
 001BCA 1A49                       15989                       AR    R4,PAR
 001BCC 1853                       15990                       LR    R5,R3
 001BCE 0E24                       15991                       MVCL  R2,R4
                                   15992
                                   15993                       COMMENT                   GET PREVIOUS PAGE
 001BD0 41F0 6000            00000 15994                       LA    R15,RGROUP
 001BD4 58E0 7280/0DEE       01DF8 15995                       ACALL PREVPAGE
 001BDA 4780 7068/0000       01BE0 15999                       IF    NZ,' BOMB '
 001BE0 5800 9010            00010 16017                       L     R0,RPNUMB
 001BE4 5000 802C            00004 16018                       ST    R0,DLPREVPG
                                   16019
                                   16020                       COMMENT                   RESET LAST LIMIT ON PREVIOUS PAGE
 001BE8 4820 9028            00028 16021                       LH    R2,RPXLAST
 001BEC 1A29                       16022                       AR    R2,PAR
 001BEE 4830 901C            0001C 16023                       LH    R3,RPKEYLN
 001BF2 4140 80B8            00090 16024                       LA    R4,DLXLAST
 001BF6 1853                       16025                       LR    R5,R3
 001BF8 0E24                       16026                       MVCL  R2,R4               RESET LAST LIMIT ON PREV PAGE
 001BFA 58E0 7234/0DEE       01DAC 16027                       PMARK PAR
 001C00 58E0 7240/0DEE       01DB8 16032                       PFREE PAR
                                   16038
                                   16039                       COMMENT                   GET MASTER PAGE @PAR
 001C06 5800 8030            00008 16040                       L     R0,DLMASTPG
 001C0A 58E0 7238/0DEE       01DB0 16041                       PGET  PAR,(R0)
 001C10 D505 9000 7290_00000 01E08 16049                       RPCHECK
 001C26 9140 9014/4710_00014       16057                       IF    ~RPMASTER,' BOMB '
                                   16079
                                   16080                       COMMENT                   DELETE MASTER PAGE ENTRY FOR PAGE
 001C30 4100 9030            00030 16081                       LA    R0,RPINFO
 001C34 4810 9022            00022 16082                       LH    R1,RPXSTART
 001C38 1A19                       16083                       AR    R1,PAR
 001C3A 4120 8034            0000C 16084                       LA    R2,DLXFIRST
 001C3E 58E0 7284/0DEE       01DFC 16085                       ACALL BDELETE             DELETE MASTER PAGE ENTRY FOR PAGE
 001C44 4780 70D2/0000       01C4A 16089                       IF    NZ,' BOMB '
 001C4A 1B09                       16107                       SR    R0,PAR
 001C4C 4000 9024            00024 16108                       STH   R0,RPXEND
 001C50 58E0 7234/0DEE       01DAC 16109                       PMARK PAR
 001C56 4810 9022            00022 16114                       LH    R1,RPXSTART
 001C5A 4A10 9020            00020 16115                       AH    R1,RPNTRYLN
 001C5E 4820 9024            00024 16116                       LH    R2,RPXEND
 001C62 1912/4770 7102             16117                       IF    (R1,EQ,R2),BEGIN    IF MASTER PAGE EMPTY, DELETE IT
 001C68 41F0 6000            00000 16132  1                      LA    R15,RGROUP
 001C6C 58E0 7288/0DEE       01E00 16133  1                      ACALL AXMASTER
 001C72 5800 9010            00010 16137  1                      L     R0,RPNUMB           AXMASTER SCRAMBLES PAGE NUMBERS
 001C76 5000 802C            00004 16138  1                      ST    R0,DLPREVPG         WE RESTORE THEM
 001C7A                            16139                       END
                                   16143
                                   16144                       COMMENT                   NOW DELETE PAGE
 001C7A 5800 8028            00000 16145                       L     R0,DLPAGENO
 001C7E 58E0 7238/0DEE       01DB0 16146                       PGET  PAR,(R0)
 001C84 D505 9000 7290_00000 01E08 16154                       RPCHECK
1RECS     (RECS2101) (12:53) (15MAR04) RECORD PAGE HANDLING ROUTINES                                                        Page   77
0Current Usings:  (RGROUP,R6) (*,R7) (DLWA-(4+36),R8) (RPAGE,R9) (CP,R11) (CV,R12)
0Loc    Object Code    Addr1 Addr2  Stmt Lv Lineno    Source Statement           (Hibal 5, Asmedit 3.3)  HLASM R4.0  2004/03/15 12.53
+___    ______ ____    _____ _____  ____ __ ______    ______ _________
0001C9A D205 9000 729C 00000 01E14 16162                       MVC   RPNAME(6),=C'FREED '
 001CA0 58E0 728C/0DEE       01E04 16163                       PFREE PAR,EMPTY
                                   16169
                                   16170                       COMMENT                   NOW GET PREVIOUS PAGE
 001CA6 5800 802C            00004 16171                       L     R0,DLPREVPG
 001CAA 58E0 7238/0DEE       01DB0 16172                       PGET  PAR,(R0)
 001CB0 D505 9000 7290_00000 01E08 16180                       RPCHECK
                                   16188
 001CC6 1BFF                       16189                       CLEAR R15
 001CC8 18D8/9808 D004_            16193                       PEND
 DROP   DLWA-(4+36),R8
 DROP   *,R7
 DROP   RPAGE,R9                   16218                       DROP  PAR
 DROP   RGROUP,R6                  16225                       DROP  R6
1RECS     (RECS2101) (12:53) (15MAR04) RECORD PAGE HANDLING ROUTINES                                                        Page   78
0Current Usings:  (CP,R11) (CV,R12)
0Loc    Object Code    Addr1 Addr2  Stmt Lv Lineno    Source Statement           (Hibal 5, Asmedit 3.3)  HLASM R4.0  2004/03/15 12.53
+___    ______ ____    _____ _____  ____ __ ______    ______ _________
0                                  16233              ¿þþþþþþþþþþþþþþþþþþþþþþþþþþþþþþþþþþþþþþþþþþþþþþþþþþþþþþþþþþþþþþþþþþþþþÜ
                                   16234              Ÿ                                                                     Ÿ
                                   16235              Ÿ                                                                     Ÿ
                                   16236              Ÿ  AXMASTER - AX MASTER PAGE, ROOT PAGE WILL BE DATA PAGE             Ÿ
                                   16237              Ÿ                                                                     Ÿ
                                   16238              Ÿ  ON ENTRY:                                                          Ÿ
                                   16239              Ÿ     @R15 - RECORD GROUP INFO BLOCK                                  Ÿ
                                   16240              Ÿ      PAR - MASTER PAGE TO DELETE                                    Ÿ
                                   16241              Ÿ                                                                     Ÿ
                                   16242              Ÿ  ON EXIT:                                                           Ÿ
                                   16243              Ÿ      R15 - CC=ZERO                                                  Ÿ
                                   16244              Ÿ      PAR - ROOT PAGE, NOW A DATA PAGE                               Ÿ
                                   16245              Ÿ                                                                     Ÿ
                                   16246              Ÿ                                                                     Ÿ
                                   16247              Ÿ                                                                     Ÿ
                                                      ¾þþþþþþþþþþþþþþþþþþþþþþþþþþþþþþþþþþþþþþþþþþþþþþþþþþþþþþþþþþþþþþþþþþþþþ»
0001CD6 50E0 D000/9008_      00000 16248              AXMASTER PROC
 USING  *,R7
 USING  RPAGE,R9                   16287                       USING RPAGE,PAR
 USING  RGROUP,R6                  16296                       USING RGROUP,R6
 001CF0 186F                       16305                       LR    R6,R15
                                   16306
 001CF2 4810 9022            00022 16307                       LH    R1,RPXSTART
 001CF6 1A19                       16308                       AR    R1,PAR
 001CF8 4830 901C            0001C 16309                       LH    R3,RPKEYLN
 001CFC 5803 1000            00000 16310                       L     R0,DATAPGNO(R3,R1)
 DROP   RPAGE,R9                   16311                       DROP  PAR
 USING  RPAGE,R10                  16318                       USING RPAGE,PBR
 001D00 58E0 70D8/0DEE       01DC8 16327                       PGET  PBR,(R0)            GET LAST DATA PAGE IN @PBR
 001D06 D505 A000 7118_00000 01E08 16335                       RPCHECK
 DROP   RPAGE,R10                  16343                       DROP  PBR
 USING  RPAGE,R9                   16350                       USING RPAGE,PAR
 001D1C 5800 9010            00010 16359                       L     R0,RPNUMB
 001D20 1829                       16360                       LR    R2,PAR
 001D22 5830 70B8            01DA8 16361                       L     R3,=A(L'RPAGE)
 001D26 184A                       16362                       LR    R4,PBR
 001D28 1853                       16363                       LR    R5,R3
 001D2A 0E24                       16364                       MVCL  R2,R4               COPY DATA PAGE OVER MASTER PAGE
 001D2C 5000 9010            00010 16365                       ST    R0,RPNUMB           SET CORRECT PAGE NUMBER
 001D30 D703 9018 9018 00018 00018 16366                       CLEAR RPLINK              CLEAR MASTER LINK (NO MASTER NOW)
                                   16373                       COMMENT                   ALL OTHER FIELDS CORRECT
 001D36 58E0 70BC/0DEE       01DAC 16374                       PMARK PAR
                                   16379
                                   16380                       COMMENT                   DELETE OLD COPY OF DATA PAGE
                                   16381                       COMMENT                   NEW DATA PAGE IS AT ROOT PAGE NO.
 001D3C 50F0 D000/58F0_      00000 16382                       PFLIP ,                   Flip PBR into PAR
 USING  JCB,R15
 DROP   JCB,R15
 001D60 D205 9000 7124 00000 01E14 16423                       MVC   RPNAME(6),=C'FREED '
 001D66 58E0 7114/0DEE       01E04 16424                       PFREE PAR,EMPTY           Junk PAR
 001D6C 50F0 D000/58F0_      00000 16430                       PFLIP ,                   Flip back
 USING  JCB,R15
 DROP   JCB,R15
1RECS     (RECS2101) (12:53) (15MAR04) RECORD PAGE HANDLING ROUTINES                                                        Page   79
0Current Usings:  (RGROUP,R6) (*,R7) (RPAGE,R9) (CP,R11) (CV,R12)
0Loc    Object Code    Addr1 Addr2  Stmt Lv Lineno    Source Statement           (Hibal 5, Asmedit 3.3)  HLASM R4.0  2004/03/15 12.53
+___    ______ ____    _____ _____  ____ __ ______    ______ _________
0                                  16471
 001D90 1BFF                       16472                       CLEAR R15
 001D92 18D8/9808 D004_            16476                       PEND
 DROP   *,R7
 DROP   RPAGE,R9                   16496                       DROP  PAR
 DROP   RGROUP,R6                  16503                       DROP  R6
1RECS     (RECS2101) (12:53) (15MAR04) RECORD PAGE HANDLING ROUTINES                                                        Page   80
0Current Usings:  (CP,R11) (CV,R12)
0Loc    Object Code    Addr1 Addr2  Stmt Lv Lineno    Source Statement           (Hibal 5, Asmedit 3.3)  HLASM R4.0  2004/03/15 12.53
+___    ______ ____    _____ _____  ____ __ ______    ______ _________
0                                  16511                       QLTORG
1RECS     (RECS2101) (12:53) (15MAR04) INDEX SEARCH ROUTINES                                                                Page   81
0Current Usings:  (CP,R11) (CV,R12)
0Loc    Object Code    Addr1 Addr2  Stmt Lv Lineno    Source Statement           (Hibal 5, Asmedit 3.3)  HLASM R4.0  2004/03/15 12.53
+___    ______ ____    _____ _____  ____ __ ______    ______ _________
0                                  16552              ¿þþþþþþþþþþþþþþþþþþþþþþþþþþþþþþþþþþþþþþþþþþþþþþþþþþþþþþþþþþþþþþþþþþþþþÜ
                                   16553              Ÿ                                                                     Ÿ
                                   16554              Ÿ                                                                     Ÿ
                                   16555              Ÿ  FRSTNDX - GET FIRST INDEX STARTING FROM SEARCH KEY.                Ÿ
                                   16556              Ÿ                                                                     Ÿ
                                   16557              Ÿ  ON ENTRY:                                                          Ÿ
                                   16558              Ÿ     @R15 - RECORD GROUP INFO BLOCK                                  Ÿ
                                   16559              Ÿ       R0 - SEARCH SET NUMBER                                        Ÿ
                                   16560              Ÿ       R1 - NOT USED                                                 Ÿ
                                   16561              Ÿ      @R2 - SEARCH NAME                                              Ÿ
                                   16562              Ÿ                                                                     Ÿ
                                   16563              Ÿ  ON EXIT:                                                           Ÿ
                                   16564              Ÿ       R1 - LOCATION OF FIRST INDEX                                  Ÿ
                                   16565              Ÿ      R15 - CC = ZERO, IF FIRST INDEX FOUND                          Ÿ
                                   16566              Ÿ            CC = NZ, IF NO FIRST INDEX                               Ÿ
                                   16567              Ÿ      PAR - PAGE OBTAINED                                            Ÿ
                                   16568              Ÿ                                                                     Ÿ
                                   16569              Ÿ                                                                     Ÿ
                                   16570              Ÿ  NOTE: THIS IS A LOW LEVEL ROUTINE.  THE FIRST INDEX SEARCH IS      Ÿ
                                   16571              Ÿ    DONE IRRESPECTIVE TO SET NUMBER. THE INDEX POINTED TO MAY        Ÿ
                                   16572              Ÿ    HAVE A DIFFERENT SET NUMBER.  QUICK GET/LOC INFO NOT AFFECTED.   Ÿ
                                   16573              Ÿ                                                                     Ÿ
                                   16574              Ÿ  WARNING: R1 RETURNS POINTER INTO PAGED AREA, DATA MUST BE          Ÿ
                                   16575              Ÿ    MUST BE REFERENCED OR MOVED BEFORE ADDITIONAL DISPATCHES !       Ÿ
                                   16576              Ÿ                                                                     Ÿ
                                   16577              Ÿ                                                                     Ÿ
                                                      ¾þþþþþþþþþþþþþþþþþþþþþþþþþþþþþþþþþþþþþþþþþþþþþþþþþþþþþþþþþþþþþþþþþþþþþ»
0001E32 50E0 D000/9008_      00000 16578              FRSTNDX  PROC  SEARCHWA
 USING  *,R7
 USING  SEARCHWA-(4+36),R8
 USING  RPAGE,R9                   16628                       USING RPAGE,PAR
 USING  RGROUP,R6                  16637                       USING RGROUP,R6
 001E4C 186F                       16646                       LR    R6,R15
 001E4E 5000 8030            00008 16647                       ST    R0,SRCHSET          SAVE SEARCH SET NUMBER
 001E52 4830 6008            00008 16648                       LH    R3,RECNLEN
 001E56 4140 8034            0000C 16649                       LA    R4,SRCHNAME
 001E5A 1853                       16650                       LR    R5,R3
 001E5C 0E42                       16651                       MVCL  R4,R2               SAVE SEARCH NAME
 001E5E D503 715C 6000_01FA8 00000 16652                       IF    (RECGRP,EQ,0),BEGIN  IF NULL
 001E68 41F0 0004            00004 16670  1                      LA    R15,4
 001E6C 47F0 708A            01ED6 16671  1                      B     FRSTDONE
 001E70                            16672                       END
 001E70 1200/4770 703E             16676                       IF    (R0,Z),BEGIN        ZERO SET IS INVISIBLE TO USER
 001E76 4120 0001            00001 16690  1                      LA    R2,1                START SEARCH AT SET 1 RECD 0
 001E7A 5020 8030            00008 16691  1                      ST    R2,SRCHSET
 001E7E 4120 8034            0000C 16692  1                      LA    R2,SRCHNAME
 001E82 4130 0080            00080 16693  1                      LA    R3,L'SRCHNAME
 001E86 1B55                       16694  1                      CLEAR R5
 001E88 0E24                       16698  1                      MVCL  R2,R4
 001E8A                            16699                       END
                                   16703
 001E8A 41F0 6000            00000 16704                       LA    R15,RGROUP
 001E8E 4120 8030            00008 16705                       LA    R2,SRCHKEY
1RECS     (RECS2101) (12:53) (15MAR04) INDEX SEARCH ROUTINES                                                                Page   82
0Current Usings:  (RGROUP,R6) (*,R7) (SEARCHWA-(4+36),R8) (RPAGE,R9) (CP,R11) (CV,R12)
0Loc    Object Code    Addr1 Addr2  Stmt Lv Lineno    Source Statement           (Hibal 5, Asmedit 3.3)  HLASM R4.0  2004/03/15 12.53
+___    ______ ____    _____ _____  ____ __ ______    ______ _________
0001E92 58E0 7164/0DEE       01FB0 16706                       ACALL GETDPAGE            GET DATA PAGE INTO @PAR
 001E98 4100 9030            00030 16710                       LA    R0,RPINFO           BSEARCH PAGE TO GET DATA INDEX
 001E9C 4810 9022            00022 16711                       LH    R1,RPXSTART
 001EA0 1A19                       16712                       AR    R1,PAR
 001EA2 4120 8030            00008 16713                       LA    R2,SRCHKEY
 001EA6 58E0 7168/0DEE       01FB4 16714                       ACALL BSEARCH             GET CURRENT DATA INDEX
                                   16718                       COMMENT                   RETURNS R1 - FIRST INDEX POINTER
 001EAC 4830 9024            00024 16719                       LH    R3,RPXEND
 001EB0 1A39                       16720                       AR    R3,PAR
 001EB2 1913/4750 7088             16721                       IF    (R1,GE,R3),BEGIN    IF NEXT ENTRY ON NEXT PAGE,,
 001EB8 41F0 6000            00000 16736  1                      LA    R15,RGROUP
 001EBC 58E0 716C/0DEE       01FB8 16737  1                      ACALL NEXTPAGE               GO GET NEXT PAGE
 001EC2 4780 7082            01ECE 16741  1                      IF    NZ,BEGIN
 001EC6 41F0 0004            00004 16752  2                        LA    R15,4
 001ECA 4770 708A            01ED6 16753  2                        BNZ   FRSTDONE
 001ECE                            16754  1                      END
 001ECE 4810 9022            00022 16758  1                      LH    R1,RPXSTART            POINT TO 1ST INDEX ON NEW PAGE
 001ED2 1A19                       16759  1                      AR    R1,PAR
 001ED4                            16760                       END
                                   16764
                                   16765                       COMMENT
 001ED4 1BFF                       16766                       CLEAR R15                 SET CC=ZERO, FOUND NEXT
                                   16770
 001ED6                            16771              FRSTDONE LABEL ,
 001ED6 9001 8004            00004 16773                       PRETURN (R0,R1)
 001EDA 18D8/9808 D004_            16775                       PEND
 DROP   SEARCHWA-(4+36),R8
 DROP   *,R7
 DROP   RPAGE,R9                   16800                       DROP  PAR
1RECS     (RECS2101) (12:53) (15MAR04) INDEX SEARCH ROUTINES                                                                Page   83
0Current Usings:  (RGROUP,R6) (CP,R11) (CV,R12)
0Loc    Object Code    Addr1 Addr2  Stmt Lv Lineno    Source Statement           (Hibal 5, Asmedit 3.3)  HLASM R4.0  2004/03/15 12.53
+___    ______ ____    _____ _____  ____ __ ______    ______ _________
0                                  16808              ¿þþþþþþþþþþþþþþþþþþþþþþþþþþþþþþþþþþþþþþþþþþþþþþþþþþþþþþþþþþþþþþþþþþþþþÜ
                                   16809              Ÿ                                                                     Ÿ
                                   16810              Ÿ                                                                     Ÿ
                                   16811              Ÿ  LASTNDX - GET LAST INDEX STARTING FROM SEARCH KEY                  Ÿ
                                   16812              Ÿ                                                                     Ÿ
                                   16813              Ÿ  ON ENTRY:                                                          Ÿ
                                   16814              Ÿ     @R15 - RECORD GROUP INFO BLOCK                                  Ÿ
                                   16815              Ÿ       R0 - SEARCH SET NUMBER                                        Ÿ
                                   16816              Ÿ       R1 - NOT USED                                                 Ÿ
                                   16817              Ÿ      @R2 - SEARCH NAME                                              Ÿ
                                   16818              Ÿ                                                                     Ÿ
                                   16819              Ÿ  ON EXIT:                                                           Ÿ
                                   16820              Ÿ       R1 - LOCATION OF LAST INDEX                                   Ÿ
                                   16821              Ÿ      R15 - CC = ZERO, IF LAST INDEX FOUND                           Ÿ
                                   16822              Ÿ            CC = NZ, IF NO LAST INDEX                                Ÿ
                                   16823              Ÿ      PAR - PAGE OBTAINED                                            Ÿ
                                   16824              Ÿ                                                                     Ÿ
                                   16825              Ÿ  NOTE: THIS IS A LOW LEVEL ROUTINE.  THE LAST INDEX SEARCH IS       Ÿ
                                   16826              Ÿ    DONE IRRESPECTIVE TO SET NUMBER. THE INDEX POINTED TO MAY        Ÿ
                                   16827              Ÿ    HAVE A DIFFERENT SET NUMBER.  QUICK GET/LOC INFO NOT AFFECTED.   Ÿ
                                   16828              Ÿ                                                                     Ÿ
                                   16829              Ÿ  WARNING, R1 RETURNS POINTER INTO PAGED AREA, DATA MUST BE          Ÿ
                                   16830              Ÿ    MUST BE REFERENCED OR MOVED BEFORE ADDITIONAL DISPATCHES !       Ÿ
                                   16831              Ÿ                                                                     Ÿ
                                   16832              Ÿ                                                                     Ÿ
                                                      ¾þþþþþþþþþþþþþþþþþþþþþþþþþþþþþþþþþþþþþþþþþþþþþþþþþþþþþþþþþþþþþþþþþþþþþ»
0001EE8 50E0 D000/9008_      00000 16833              LASTNDX  PROC  SEARCHWA
 USING  *,R7
 USING  SEARCHWA-(4+36),R8
 USING  RPAGE,R9                   16883                       USING RPAGE,PAR
                                   16892                       USING RGROUP,R6
 001F02 186F                       16894                       LR    R6,R15
 001F04 5000 8030            00008 16895                       ST    R0,SRCHSET          SAVE SEARCH SET NUMBER
 001F08 4830 6008            00008 16896                       LH    R3,RECNLEN
 001F0C 4140 8034            0000C 16897                       LA    R4,SRCHNAME
 001F10 1853                       16898                       LR    R5,R3
 001F12 0E42                       16899                       MVCL  R4,R2               SAVE SEARCH NAME
 001F14 D503 70A6 6000_01FA8 00000 16900                       IF    ((RECGRP,EQ,0),OR,(R0,Z)),BEGIN  IF NULL
 001F24 41F0 0004            00004 16931  1                      LA    R15,4
 001F28 47F0 7094            01F96 16932  1                      B     LASTDONE
 001F2C                            16933                       END
                                   16937
 001F2C 41F0 6000            00000 16938                       LA    R15,RGROUP
 001F30 4120 8030            00008 16939                       LA    R2,SRCHKEY
 001F34 58E0 70AE/0DEE       01FB0 16940                       ACALL GETDPAGE            GET DATA PAGE INTO @PAR
 001F3A 4100 9030            00030 16944                       LA    R0,RPINFO           BSEARCH PAGE TO GET DATA INDEX
 001F3E 4810 9022            00022 16945                       LH    R1,RPXSTART
 001F42 1A19                       16946                       AR    R1,PAR
 001F44 4120 8030            00008 16947                       LA    R2,SRCHKEY
 001F48 58E0 70B2/0DEE       01FB4 16948                       ACALL BSEARCH             GET CURRENT DATA INDEX
                                   16952                       COMMENT                   RETURNS R1 - SAME OR NEXT ENTRY
 001F4E 4780 7054            01F56 16953                       IF    NZ,BEGIN            IF NOT SAME, (IE LAST)
 001F52 4B10 9020            00020 16964  1                      SH    R1,RPNTRYLN         POINT AT PREVIOUS ENTRY
1RECS     (RECS2101) (12:53) (15MAR04) INDEX SEARCH ROUTINES                                                                Page   84
0Current Usings:  (RGROUP,R6) (*,R7) (SEARCHWA-(4+36),R8) (RPAGE,R9) (CP,R11) (CV,R12)
0Loc    Object Code    Addr1 Addr2  Stmt Lv Lineno    Source Statement           (Hibal 5, Asmedit 3.3)  HLASM R4.0  2004/03/15 12.53
+___    ______ ____    _____ _____  ____ __ ______    ______ _________
0001F56                            16965                       END
 001F56 4830 9022            00022 16969                       LH    R3,RPXSTART
 001F5A 1A39                       16970                       AR    R3,PAR
 001F5C 1913/47B0 7080             16971                       IF    (R1,LT,R3),BEGIN    IF NEXT ENTRY ON PREV PAGE,,
 001F62 41F0 6000            00000 16986  1                      LA    R15,RGROUP
 001F66 58E0 70BA/0DEE       01FBC 16987  1                      ACALL PREVPAGE               GO GET PREVIOUS PAGE
 001F6C 4780 7076            01F78 16991  1                      IF    NZ,BEGIN
 001F70 41F0 0004            00004 17002  2                        LA    R15,4
 001F74 47F0 7094            01F96 17003  2                        B     LASTDONE
 001F78                            17004  1                      END
 001F78 4810 9024            00024 17008  1                      LH    R1,RPXEND           POINT TO LAST INDEX ON NEW PAGE
 001F7C 1A19                       17009  1                      AR    R1,PAR
 001F7E 4B10 9020            00020 17010  1                      SH    R1,RPNTRYLN
                                   17011  1                      COMMENT                   R1 - PREVIOUS RECORD NDX ENTRY
 001F82                            17012                       END
                                   17016
                                   17017                       COMMENT                   IF R1 POINTS TO ZERO RECORD,,
 001F82 D503 1000 70BE 00000 01FC0 17018                       CLC   0(L'NDXSET,R1),=F'0'  SET ZERO IS INVISIBLE TO USER
 001F88 4770 7092            01F94 17019                       IF    E,BEGIN
 001F8C 41F0 0004            00004 17030  1                      LA    R15,4
 001F90 47F0 7094            01F96 17031  1                      B     LASTDONE
 001F94                            17032                       END
                                   17036
                                   17037                       COMMENT
 001F94 1BFF                       17038                       CLEAR R15                 SET CC=ZERO, FOUND NEXT
                                   17042
 001F96                            17043              LASTDONE LABEL ,
 001F96 9001 8004            00004 17045                       PRETURN (R0,R1)
 001F9A 18D8/9808 D004_            17047                       PEND
 DROP   SEARCHWA-(4+36),R8
 DROP   *,R7
 DROP   RPAGE,R9                   17072                       DROP  PAR
 DROP   RGROUP,R6                  17079                       DROP  R6
1RECS     (RECS2101) (12:53) (15MAR04) INDEX SEARCH ROUTINES                                                                Page   85
0Current Usings:  (CP,R11) (CV,R12)
0Loc    Object Code    Addr1 Addr2  Stmt Lv Lineno    Source Statement           (Hibal 5, Asmedit 3.3)  HLASM R4.0  2004/03/15 12.53
+___    ______ ____    _____ _____  ____ __ ______    ______ _________
0                                  17087                       QLTORG
1RECS     (RECS2101) (12:53) (15MAR04) MISCELLANEOUS ROUTINES                                                               Page   86
0Current Usings:  (CP,R11) (CV,R12)
0Loc    Object Code    Addr1 Addr2  Stmt Lv Lineno    Source Statement           (Hibal 5, Asmedit 3.3)  HLASM R4.0  2004/03/15 12.53
+___    ______ ____    _____ _____  ____ __ ______    ______ _________
0                                  17106              ¿þþþþþþþþþþþþþþþþþþþþþþþþþþþþþþþþþþþþþþþþþþþþþþþþþþþþþþþþþþþþþþþþþþþþþÜ
                                   17107              Ÿ                                                                     Ÿ
                                   17108              Ÿ                                                                     Ÿ
                                   17109              Ÿ  XSETSET - SET GROUP SET NUMBER, RETURN OLD SET NUMBER              Ÿ
                                   17110              Ÿ                                                                     Ÿ
                                   17111              Ÿ  ON ENTRY:                                                          Ÿ
                                   17112              Ÿ     @R15 - RECORD GROUP INFO BLOCK                                  Ÿ
                                   17113              Ÿ       R0 - SET NUMBER                                               Ÿ
                                   17114              Ÿ                                                                     Ÿ
                                   17115              Ÿ  ON EXIT:                                                           Ÿ
                                   17116              Ÿ      R15 - PREVIOUS SET NUMBER                                      Ÿ
                                   17117              Ÿ                                                                     Ÿ
                                   17118              Ÿ                                                                     Ÿ
                                                      ¾þþþþþþþþþþþþþþþþþþþþþþþþþþþþþþþþþþþþþþþþþþþþþþþþþþþþþþþþþþþþþþþþþþþþþ»
0001FC4 50E0 D000/9008_      00000 17119              XSETSET  XPROC
 USING  *,R7
 USING  RGROUP,R6                  17159                       USING RGROUP,R6
 001FDE 186F                       17168                       LR    R6,R15
 001FE0 58F0 6004            00004 17169                       L     R15,RECSET
 001FE4 5000 6004            00004 17170                       ST    R0,RECSET
 001FE8 18D8/9808 D004_            17171                       PEND
 DROP   *,R7
1RECS     (RECS2101) (12:53) (15MAR04) MISCELLANEOUS ROUTINES                                                               Page   87
0Current Usings:  (RGROUP,R6) (CP,R11) (CV,R12)
0Loc    Object Code    Addr1 Addr2  Stmt Lv Lineno    Source Statement           (Hibal 5, Asmedit 3.3)  HLASM R4.0  2004/03/15 12.53
+___    ______ ____    _____ _____  ____ __ ______    ______ _________
0                                  17192              ¿þþþþþþþþþþþþþþþþþþþþþþþþþþþþþþþþþþþþþþþþþþþþþþþþþþþþþþþþþþþþþþþþþþþþþÜ
                                   17193              Ÿ                                                                     Ÿ
                                   17194              Ÿ                                                                     Ÿ
                                   17195              Ÿ  XSETSPLT - SET PAGE SPLIT FACTOR IN 128THS                         Ÿ
                                   17196              Ÿ                                                                     Ÿ
                                   17197              Ÿ  SPLIT FACTOR IS USED WHENEVER A RECORD PAGE IS SPLIT.              Ÿ
                                   17198              Ÿ  IT DETERMINES THE AMOUNT OF DATA THAT GOES ON THE SPLIT            Ÿ
                                   17199              Ÿ  PAGES.  IT IS SPECIFIED IN 128THS.                                 Ÿ
                                   17200              Ÿ                                                                     Ÿ
                                   17201              Ÿ  ON ENTRY:                                                          Ÿ
                                   17202              Ÿ     @R15 - RECORD GROUP INFO BLOCK                                  Ÿ
                                   17203              Ÿ       R0 - SPLIT FACTOR (1 TO 128)                                  Ÿ
                                   17204              Ÿ            IF R0=0, JUST RETURNS OLD SPLIT FACTOR                   Ÿ
                                   17205              Ÿ                                                                     Ÿ
                                   17206              Ÿ  ON EXIT:                                                           Ÿ
                                   17207              Ÿ      R15 - PREVIOUS SPLIT FACTOR                                    Ÿ
                                   17208              Ÿ                                                                     Ÿ
                                   17209              Ÿ                                                                     Ÿ
                                                      ¾þþþþþþþþþþþþþþþþþþþþþþþþþþþþþþþþþþþþþþþþþþþþþþþþþþþþþþþþþþþþþþþþþþþþþ»
0001FF6 50E0 D000/9008_      00000 17210              XSETSPLT XPROC
 USING  *,R7
                                   17250                       USING RGROUP,R6
 002010 186F                       17252                       LR    R6,R15
 002012 1FFF/43F0 600B             17253                       LC    R15,RECSPLT
 002018 1200/47D0 7012             17260                       IF    (R0,POS),BEGIN
 00201E 4200 600B            0000B 17274  1                      STC   R0,RECSPLT
 002022                            17275                       END
 002022 18D8/9808 D004_            17279                       PEND
 DROP   *,R7
1RECS     (RECS2101) (12:53) (15MAR04) MISCELLANEOUS ROUTINES                                                               Page   88
0Current Usings:  (RGROUP,R6) (CP,R11) (CV,R12)
0Loc    Object Code    Addr1 Addr2  Stmt Lv Lineno    Source Statement           (Hibal 5, Asmedit 3.3)  HLASM R4.0  2004/03/15 12.53
+___    ______ ____    _____ _____  ____ __ ______    ______ _________
0                                  17300              ¿þþþþþþþþþþþþþþþþþþþþþþþþþþþþþþþþþþþþþþþþþþþþþþþþþþþþþþþþþþþþþþþþþþþþþÜ
                                   17301              Ÿ                                                                     Ÿ
                                   17302              Ÿ                                                                     Ÿ
                                   17303              Ÿ  XCHKGRP - CHECK FOR EMPTY RECORD GROUP                             Ÿ
                                   17304              Ÿ                                                                     Ÿ
                                   17305              Ÿ  ON ENTRY:                                                          Ÿ
                                   17306              Ÿ     @R15 - RECORD GROUP INFO BLOCK                                  Ÿ
                                   17307              Ÿ                                                                     Ÿ
                                   17308              Ÿ  ON EXIT:                                                           Ÿ
                                   17309              Ÿ      R15 - CC=ZERO, NO RECORDS IN RECORD GROUP                      Ÿ
                                   17310              Ÿ            CC=NZ, NON-EMPTY RECORD GROUP                            Ÿ
                                   17311              Ÿ                                                                     Ÿ
                                   17312              Ÿ  NOTE: THE RECORD GROUP ROOT BLOCK ALWAYS EXISTS EVEN IF            Ÿ
                                   17313              Ÿ        THERE ARE NO RECORDS IN THE GROUP                            Ÿ
                                   17314              Ÿ                                                                     Ÿ
                                   17315              Ÿ                                                                     Ÿ
                                                      ¾þþþþþþþþþþþþþþþþþþþþþþþþþþþþþþþþþþþþþþþþþþþþþþþþþþþþþþþþþþþþþþþþþþþþþ»
0002030 50E0 D000/9008_      00000 17316              XCHKGRP  XPROC
 USING  *,R7
 USING  RPAGE,R9                   17356                       USING RPAGE,PAR
                                   17365                       USING RGROUP,R6
 00204A 186F                       17367                       LR    R6,R15
                                   17368
 00204C 1854                       17369                       LR    R5,4                ASSUME NON EMPTY PAGE
                                   17370
 00204E D503 737A 6000_023C4 00000 17371                       IF    (RECGRP,NE,0),BEGIN IF ROOT PAGE, AND...
 002058 5800 6000            00000 17389  1                      L     R0,RECGRP
 00205C 58E0 737E/0DEE       023C8 17390  1                      PGET  PAR,(0)
 002062 D505 9000 73AA_00000 023F4 17399  1                      RPCHECK
 002078 9180 9014/4710_00014       17407  1                      IF    ~RPDATA,BEGIN       AND IF ROOT PAGE, DATA PAGE
 002080 4810 9022            00022 17422  2                        LH    R1,RPXSTART
 002084 4A10 9020            00020 17423  2                        AH    R1,RPNTRYLN
 002088 4910 9024            00024 17424  2                        CH    R1,RPXEND
 00208C 4770 7048            02092 17425  2                        IF    E,BEGIN             AND IF ONLY ONE (ZERO) ENTRY
 002090 1B55                       17436  3                          CLEAR R5                  We have an empty record group
 002092                            17440  2                        END
 002092                            17444  1                      END
 002092                            17448                       END
                                   17452
 002092 18F5                       17453                       LR    R15,R5
 002094 18D8/9808 D004_            17454                       PEND
 DROP   *,R7
 DROP   RPAGE,R9                   17474                       DROP  PAR
 DROP   RGROUP,R6                  17481                       DROP  R6
1RECS     (RECS2101) (12:53) (15MAR04) MISCELLANEOUS ROUTINES                                                               Page   89
0Current Usings:  (CP,R11) (CV,R12)
0Loc    Object Code    Addr1 Addr2  Stmt Lv Lineno    Source Statement           (Hibal 5, Asmedit 3.3)  HLASM R4.0  2004/03/15 12.53
+___    ______ ____    _____ _____  ____ __ ______    ______ _________
0                                  17489              ¿þþþþþþþþþþþþþþþþþþþþþþþþþþþþþþþþþþþþþþþþþþþþþþþþþþþþþþþþþþþþþþþþþþþþþÜ
                                   17490              Ÿ                                                                     Ÿ
                                   17491              Ÿ                                                                     Ÿ
                                   17492              Ÿ  XCHKSETS - CHECK A RANGE OF SETS,  DO THEY CONTAIN RECORDS ?       Ÿ
                                   17493              Ÿ                                                                     Ÿ
                                   17494              Ÿ  ON ENTRY:                                                          Ÿ
                                   17495              Ÿ     @R15 - RECORD GROUP INFO BLOCK                                  Ÿ
                                   17496              Ÿ       R0 - FIRST SET NUMBER                                         Ÿ
                                   17497              Ÿ       R1 - SECOND SET NUMBER                                        Ÿ
                                   17498              Ÿ                                                                     Ÿ
                                   17499              Ÿ  ON EXIT:                                                           Ÿ
                                   17500              Ÿ      R15 - CC=Z, THE SPECIFIED SETS ARE ALL EMPTY                   Ÿ
                                   17501              Ÿ            CC=NZ, THE SPECIFIED SETS ARE NOT ALL EMPTY              Ÿ
                                   17502              Ÿ                                                                     Ÿ
                                   17503              Ÿ                                                                     Ÿ
                                                      ¾þþþþþþþþþþþþþþþþþþþþþþþþþþþþþþþþþþþþþþþþþþþþþþþþþþþþþþþþþþþþþþþþþþþþþ»
0000000                00000 00108 17504              XMISCWA  RECORD BEGIN
 000000                            17512  1           XMSET1     DS    F
 000004                            17513  1           XMNAME1    DS    XL(MXNAMELN)
                                   17514  1           XMKEY1     EQU   XMSET1
 000084                            17515  1           XMSET2     DS    F
 000088                            17516  1           XMNAME2    DS    XL(MXNAMELN)
                                   17517  1           XMKEY2     EQU   XMSET2
 000108                00108 00108 17518                       END
                                   17527              *
                                   17528              *
 0020A2 50E0 D000/9008_      00000 17529              XCHKSETS XPROC XMISCWA
 USING  *,R7
 USING  XMISCWA-(4+36),R8
 USING  RPAGE,R9                   17580                       USING RPAGE,PAR
 USING  RGROUP,R6                  17589                       USING RGROUP,R6
 0020BC 186F                       17598                       LR    R6,R15
 0020BE 5900 7310/47B0_      023CC 17599                       FLOOR R0,1
 0020CA 5000 8028            00000 17618                       ST    R0,XMSET1           SET FIRST LIMIT
 0020CE 4120 802C            00004 17619                       LA    R2,XMNAME1
 0020D2 4130 0080            00080 17620                       LA    R3,MXNAMELN
 0020D6 1B55                       17621                       CLEAR R5
 0020D8 0E24                       17625                       MVCL  R2,R4
 0020DA 5010 80AC            00084 17626                       ST    R1,XMSET2           SET LAST LIMIT
 0020DE 4120 80B0            00088 17627                       LA    R2,XMNAME2
 0020E2 4130 0080            00080 17628                       LA    R3,MXNAMELN
 0020E6 5850 7314            023D0 17629                       L     R5,=X'FF000000'
 0020EA 0E24                       17630                       MVCL  R2,R4
                                   17631
 0020EC 4150 0004            00004 17632                       LA    R5,4                ASSUME SETS CONTAIN RECORDS
                                   17633
                                   17634                       COMMENT                   FIND PAGES,,,
 0020F0 41F0 6000            00000 17635                       LA    R15,RGROUP
 0020F4 4120 8028            00000 17636                       LA    R2,XMKEY1
 0020F8 58E0 7318/0DEE       023D4 17637                       ACALL GETDPAGE
 0020FE 5830 9010            00010 17641                       L     R3,RPNUMB           R3 - PAGE OF FIRST SET
 002102 41F0 6000            00000 17642                       LA    R15,RGROUP
 002106 4120 80AC            00084 17643                       LA    R2,XMKEY2
1RECS     (RECS2101) (12:53) (15MAR04) MISCELLANEOUS ROUTINES                                                               Page   90
0Current Usings:  (RGROUP,R6) (*,R7) (XMISCWA-(4+36),R8) (RPAGE,R9) (CP,R11) (CV,R12)
0Loc    Object Code    Addr1 Addr2  Stmt Lv Lineno    Source Statement           (Hibal 5, Asmedit 3.3)  HLASM R4.0  2004/03/15 12.53
+___    ______ ____    _____ _____  ____ __ ______    ______ _________
000210A 58E0 7318/0DEE       023D4 17644                       ACALL GETDPAGE
 002110 5840 9010            00010 17648                       L     R4,RPNUMB           R4 - PAGE OF SECOND SET
                                   17649                       COMMENT
 002114 1934/4770 7092             17650                       IF    (R3,EQ,R4),BEGIN    IF SETS ON SAME PAGE,
 00211A 4100 9030            00030 17665  1                      LA    R0,RPINFO              SEE IF THEY ARE AT SAME OFFSET
 00211E 4810 9022            00022 17666  1                      LH    R1,RPXSTART
 002122 1A19                       17667  1                      AR    R1,PAR
 002124 4120 8028            00000 17668  1                      LA    R2,XMKEY1
 002128 58E0 731C/0DEE       023D8 17669  1                      ACALL BSEARCH
 00212E 1831                       17673  1                      LR    R3,R1               R3 - OFFSET OF FIRST SET
 002130 4100 9030            00030 17674  1                      LA    R0,RPINFO
 002134 4810 9022            00022 17675  1                      LH    R1,RPXSTART
 002138 1A19                       17676  1                      AR    R1,PAR
 00213A 4120 8028            00000 17677  1                      LA    R2,XMKEY1
 00213E 58E0 731C/0DEE       023D8 17678  1                      ACALL BSEARCH
 002144 1841                       17682  1                      LR    R4,R1               R4 - OFFSET OF SECOND SET
                                   17683  1                      COMMENT
 002146 1934/4770 7092             17684  1                      IF    (R3,EQ,R4),BEGIN    IF PAGE, OFFSET SAME
 00214C 1B55                       17699  2                        CLEAR R5                     THEN THERE ARE NO RECORDS
 00214E                            17703  1                      END
 00214E                            17707                       END
                                   17711
 00214E 18F5                       17712                       LR    R15,R5
 002150 18D8/9808 D004_            17713                       PEND
 DROP   XMISCWA-(4+36),R8
 DROP   *,R7
 DROP   RPAGE,R9                   17738                       DROP  PAR
 DROP   RGROUP,R6                  17745                       DROP  R6
1RECS     (RECS2101) (12:53) (15MAR04) MISCELLANEOUS ROUTINES                                                               Page   91
0Current Usings:  (CP,R11) (CV,R12)
0Loc    Object Code    Addr1 Addr2  Stmt Lv Lineno    Source Statement           (Hibal 5, Asmedit 3.3)  HLASM R4.0  2004/03/15 12.53
+___    ______ ____    _____ _____  ____ __ ______    ______ _________
0                                  17753              ¿þþþþþþþþþþþþþþþþþþþþþþþþþþþþþþþþþþþþþþþþþþþþþþþþþþþþþþþþþþþþþþþþþþþþþÜ
                                   17754              Ÿ                                                                     Ÿ
                                   17755              Ÿ                                                                     Ÿ
                                   17756              Ÿ  XCHKSET - CHECK SET, DOES IT CONTAIN ANY RECORDS ??                Ÿ
                                   17757              Ÿ                                                                     Ÿ
                                   17758              Ÿ  ON ENTRY:                                                          Ÿ
                                   17759              Ÿ     @R15 - RECORD GROUP INFO BLOCK                                  Ÿ
                                   17760              Ÿ       R0 - SET NUMBER                                               Ÿ
                                   17761              Ÿ                                                                     Ÿ
                                   17762              Ÿ  ON EXIT:                                                           Ÿ
                                   17763              Ÿ      R15 - CC=ZERO, NO RECORD IN THE SET                            Ÿ
                                   17764              Ÿ            CC=NZ, SET CONTAINS RECORDS                              Ÿ
                                   17765              Ÿ                                                                     Ÿ
                                   17766              Ÿ                                                                     Ÿ
                                                      ¾þþþþþþþþþþþþþþþþþþþþþþþþþþþþþþþþþþþþþþþþþþþþþþþþþþþþþþþþþþþþþþþþþþþþþ»
000215E 50E0 D000/9008_      00000 17767              XCHKSET  XPROC XMISCWA
 USING  *,R7
 USING  XMISCWA-(4+36),R8
 USING  RGROUP,R6                  17818                       USING RGROUP,R6
 002178 186F                       17827                       LR    R6,R15
 00217A 5960 7264/4780_      023DC 17828                       IF    ((R6,EQ,0),OR,(RECGRP,EQ,0),OR,(RECSET,EQ,0)),BEGIN
 002196 1BFF                       17877  1                      CLEAR R15                 IF NULL RECORD GROUP, SET
 002198                            17881                       END
                                   17885
                                   17886                       COMMENT                   IF NON NULL GROUP SET, CHECK IT
 002198 7024/47F0 705E 02198 02194 17887                       ELSE  BEGIN
 00219C 186F                       17898  1                      LR    R6,R15
 00219E D203 8028 6004 00000 00004 17899  1                      MVC   XMSET1,RECSET       SAVE, THEN SET NEW SET NUMBER
 0021A4 5000 6004            00004 17900  1                      ST    R0,RECSET
 0021A8 4120 802C            00004 17901  1                      LA    R2,XMNAME1          ZERO RECORD NAME
 0021AC 4130 0080            00080 17902  1                      LA    R3,MXNAMELN
 0021B0 1B55                       17903  1                      CLEAR R5
 0021B2 0E24                       17907  1                      MVCL  R2,R4
                                   17908  1
 0021B4 41F0 6000            00000 17909  1                      LA    R15,RGROUP
 0021B8 4120 802C            00004 17910  1                      LA    R2,XMNAME1
 0021BC 58E0 7268/0DEE       023E0 17911  1                      ACALL XLOCFRST            LOOK FOR FIRST RECORD IN SET
 0021C2 4770 7052            021CA 17915  1                      IF    Z,BEGIN
 0021C6 41F0 0004            00004 17926  2                        LA    R15,4               FOUND FIRST
 0021CA                            17927  1                      END
 0021CA 7056/47F0 7058 021CA 021C4 17931  1                      ELSE  BEGIN ,
 0021CE 1BFF                       17942  2                        CLEAR R15                 NO FIRST
 0021D0                            17946  1                      END
                                   17950  1
 0021D0 D203 6004 8028 00004 00000 17951  1                      MVC   RECSET,XMSET1       RESTORE SET NUMBER
 0021D6                            17952                       END   ,                   OF CHECK SET
                                   17956
 0021D6 18D8/9808 D004_            17957                       PEND
 DROP   XMISCWA-(4+36),R8
 DROP   *,R7
 DROP   RGROUP,R6                  17982                       DROP  R6
1RECS     (RECS2101) (12:53) (15MAR04) MISCELLANEOUS ROUTINES                                                               Page   92
0Current Usings:  (CP,R11) (CV,R12)
0Loc    Object Code    Addr1 Addr2  Stmt Lv Lineno    Source Statement           (Hibal 5, Asmedit 3.3)  HLASM R4.0  2004/03/15 12.53
+___    ______ ____    _____ _____  ____ __ ______    ______ _________
0                                  17990              ¿þþþþþþþþþþþþþþþþþþþþþþþþþþþþþþþþþþþþþþþþþþþþþþþþþþþþþþþþþþþþþþþþþþþþþÜ
                                   17991              Ÿ                                                                     Ÿ
                                   17992              Ÿ                                                                     Ÿ
                                   17993              Ÿ  XSETFRST - GET FIRST NON-EMPTY SET NUMBER GREATER THAN OR EQUAL    Ÿ
                                   17994              Ÿ             TO THE ONE SPECIFIED.                                   Ÿ
                                   17995              Ÿ                                                                     Ÿ
                                   17996              Ÿ  ON ENTRY:                                                          Ÿ
                                   17997              Ÿ     @R15 - RECORD GROUP INFO BLOCK                                  Ÿ
                                   17998              Ÿ       R0 - STARTING SET NUMBER                                      Ÿ
                                   17999              Ÿ                                                                     Ÿ
                                   18000              Ÿ  ON EXIT:                                                           Ÿ
                                   18001              Ÿ       R0 - FIRST SET NUMBER                                         Ÿ
                                   18002              Ÿ      R15 - CC=ZERO, IF FOUND                                        Ÿ
                                   18003              Ÿ            CC=NZ, IF NO NON-EMPTY SETS FOUND                        Ÿ
                                   18004              Ÿ                                                                     Ÿ
                                   18005              Ÿ                                                                     Ÿ
                                                      ¾þþþþþþþþþþþþþþþþþþþþþþþþþþþþþþþþþþþþþþþþþþþþþþþþþþþþþþþþþþþþþþþþþþþþþ»
0000000                00000 00080 18006              XFSWA    RECORD BEGIN
 000000                            18014  1           XFSNAME    DS    XL(MXNAMELN)
 000080                00080 00080 18015                       END
                                   18024              *
                                   18025              *
 0021E4 50E0 D000/9008_      00000 18026              XFRSTSET XPROC XFSWA
 USING  *,R7
 USING  XFSWA-(4+36),R8
                                   18077
                                   18078                       COMMENT                   CLEAR NAME
 0021FE 4120 8028            00000 18079                       LA    R2,XFSNAME
 002202 4130 0080            00080 18080                       LA    R3,MXNAMELN
 002206 1B55                       18081                       CLEAR R5
 002208 0E24                       18085                       MVCL  R2,R4
                                   18086
                                   18087                       COMMENT                   FIND FIRST INDEX (CONTAINS SET #)
                                   18088                       COMMENT                   R15 - REC GROUP INFO
                                   18089                       COMMENT                   R0 - STARTING SET NUMBER
 00220A 4120 8028            00000 18090                       LA    R2,XFSNAME          R2 - STARTING NAME
 00220E 58E0 71E6/0DEE       023E4 18091                       ACALL FRSTNDX             GO GET FIRST INDEX
                                   18095                       COMMENT                   RETURNS R1 - NEXT INDEX POINTER
 002214 4770 701E            0221C 18096                       IF    Z,BEGIN
 002218 5801 0000            00000 18107  1                      L     R0,NDXSET(R1)       GET SET NUMBER OF INDEX
 00221C                            18108                       END
                                   18112
 00221C 5008 0004            00004 18113                       PRETURN R0
 002220 18D8/9808 D004_            18115                       PEND
 DROP   XFSWA-(4+36),R8
 DROP   *,R7
1RECS     (RECS2101) (12:53) (15MAR04) MISCELLANEOUS ROUTINES                                                               Page   93
0Current Usings:  (CP,R11) (CV,R12)
0Loc    Object Code    Addr1 Addr2  Stmt Lv Lineno    Source Statement           (Hibal 5, Asmedit 3.3)  HLASM R4.0  2004/03/15 12.53
+___    ______ ____    _____ _____  ____ __ ______    ______ _________
0                                  18141              ¿þþþþþþþþþþþþþþþþþþþþþþþþþþþþþþþþþþþþþþþþþþþþþþþþþþþþþþþþþþþþþþþþþþþþþÜ
                                   18142              Ÿ                                                                     Ÿ
                                   18143              Ÿ                                                                     Ÿ
                                   18144              Ÿ  XSETLAST - GET LAST NON-EMPTY SET NUMBER LESS THAN OR EQUAL        Ÿ
                                   18145              Ÿ             TO THE ONE SPECIFIED.                                   Ÿ
                                   18146              Ÿ                                                                     Ÿ
                                   18147              Ÿ  ON ENTRY:                                                          Ÿ
                                   18148              Ÿ     @R15 - RECORD GROUP INFO BLOCK                                  Ÿ
                                   18149              Ÿ       R0 - ENDING SET NUMBER                                        Ÿ
                                   18150              Ÿ                                                                     Ÿ
                                   18151              Ÿ  ON EXIT:                                                           Ÿ
                                   18152              Ÿ       R0 - LAST SET NUMBER                                          Ÿ
                                   18153              Ÿ      R15 - CC=ZERO, IF FOUND                                        Ÿ
                                   18154              Ÿ            CC=NZ, IF NO NON-EMPTY SETS FOUND                        Ÿ
                                   18155              Ÿ                                                                     Ÿ
                                   18156              Ÿ                                                                     Ÿ
                                                      ¾þþþþþþþþþþþþþþþþþþþþþþþþþþþþþþþþþþþþþþþþþþþþþþþþþþþþþþþþþþþþþþþþþþþþþ»
0000000                00000 00080 18157              XLSWA    RECORD BEGIN
 000000                            18165  1           XLSNAME    DS    XL(MXNAMELN)
 000080                00080 00080 18166                       END
                                   18175              *
                                   18176              *
 00222E 50E0 D000/9008_      00000 18177              XLASTSET XPROC XLSWA
 USING  *,R7
 USING  XLSWA-(4+36),R8
                                   18228
                                   18229                       COMMENT                   CLEAR NAME
 002248 4120 8028            00000 18230                       LA    R2,XLSNAME
 00224C 4130 0080            00080 18231                       LA    R3,MXNAMELN
 002250 5850 7188            023D0 18232                       L     R5,=X'FF000000'
 002254 0E24                       18233                       MVCL  R2,R4
                                   18234
                                   18235                       COMMENT                   FIND LAST INDEX (CONTAINS SET #)
                                   18236                       COMMENT                   R15 - REC GROUP INFO
                                   18237                       COMMENT                   R0 - STARTING SET NUMBER
 002256 4120 8028            00000 18238                       LA    R2,XLSNAME          R2 - STARTING NAME
 00225A 58E0 71A0/0DEE       023E8 18239                       ACALL LASTNDX             GO GET LAST INDEX
                                   18243                       COMMENT                   RETURNS R1 - NEXT INDEX POINTER
 002260 4770 7020            02268 18244                       IF    Z,BEGIN
 002264 5801 0000            00000 18255  1                      L     R0,NDXSET(R1)       GET SET NUMBER OF INDEX
 002268                            18256                       END
                                   18260
 002268 5008 0004            00004 18261                       PRETURN R0
 00226C 18D8/9808 D004_            18263                       PEND
 DROP   XLSWA-(4+36),R8
 DROP   *,R7
1RECS     (RECS2101) (12:53) (15MAR04) MISCELLANEOUS ROUTINES                                                               Page   94
0Current Usings:  (CP,R11) (CV,R12)
0Loc    Object Code    Addr1 Addr2  Stmt Lv Lineno    Source Statement           (Hibal 5, Asmedit 3.3)  HLASM R4.0  2004/03/15 12.53
+___    ______ ____    _____ _____  ____ __ ______    ______ _________
0                                  18289              ¿þþþþþþþþþþþþþþþþþþþþþþþþþþþþþþþþþþþþþþþþþþþþþþþþþþþþþþþþþþþþþþþþþþþþþÜ
                                   18290              Ÿ                                                                     Ÿ
                                   18291              Ÿ                                                                     Ÿ
                                   18292              Ÿ  XDELGRP - DELETE ALL RECORDS IN RECORD GROUP                       Ÿ
                                   18293              Ÿ                                                                     Ÿ
                                   18294              Ÿ  ON ENTRY:                                                          Ÿ
                                   18295              Ÿ     @R15 - RECORD GROUP INFO BLOCK                                  Ÿ
                                   18296              Ÿ                                                                     Ÿ
                                   18297              Ÿ  ON EXIT:                                                           Ÿ
                                   18298              Ÿ      R15 - CC=ZERO                                                  Ÿ
                                   18299              Ÿ                                                                     Ÿ
                                   18300              Ÿ  NOTE: THIS ROUTINE DELETES ALL RECORDS IN RECORD GROUP,            Ÿ
                                   18301              Ÿ        BUT DOES NOT DELETE RECORE ROOT PAGE.                        Ÿ
                                   18302              Ÿ                                                                     Ÿ
                                   18303              Ÿ                                                                     Ÿ
                                                      ¾þþþþþþþþþþþþþþþþþþþþþþþþþþþþþþþþþþþþþþþþþþþþþþþþþþþþþþþþþþþþþþþþþþþþþ»
000227A 50E0 D000/9008_      00000 18304              XDELGRP  XPROC XMISCWA
 USING  *,R7
 USING  XMISCWA-(4+36),R8
 USING  RGROUP,R6                  18355                       USING RGROUP,R6
 002294 186F                       18364                       LR    R6,R15
 002296 D203 8028 6004 00000 00004 18365                       MVC   XMSET1,RECSET       SAVE SET NUMBER
                                   18366
 00229C D203 6004 7158 00004 023EC 18367                       MVC   RECSET,=F'1'        FIRST SET TO DELETE = 0001
 0022A2 4120 802C            00004 18368                       LA    R2,XMNAME1          FIRST REX TO DELETE = 000000...
 0022A6 4130 0080            00080 18369                       LA    R3,MXNAMELN
 0022AA 1B55                       18370                       CLEAR R5
 0022AC 0E24                       18374                       MVCL  R2,R4
 0022AE 4120 80AC            00084 18375                       LA    R2,XMKEY2           LAST SET TO DELETE = FFFF
 0022B2 4130 0084            00084 18376                       LA    R3,MXKEYLN          LAST REC TO DELETE = FFFFFFFF...
 0022B6 5850 713C            023D0 18377                       L     R5,=X'FF000000'
 0022BA 0E24                       18378                       MVCL  R2,R4
                                   18379
 0022BC 41F0 6000            00000 18380                       LA    R15,RGROUP          DELETE ALL RECORDS
 0022C0 4100 802C            00004 18381                       LA    R0,XMNAME1
 0022C4 4110 80B0            00088 18382                       LA    R1,XMNAME2
 0022C8 5820 80AC            00084 18383                       L     R2,XMSET2
 0022CC 58E0 715C/0DEE       023F0 18384                       ACALL XDELRECS            DELETE ALL RECORDS
                                   18388
 0022D2 D203 6004 8028 00004 00000 18389                       MVC   RECSET,XMSET1       RESTORE SET NUMBER
 0022D8 1BFF                       18390                       CLEAR R15                 RETURN CC=0
 0022DA 18D8/9808 D004_            18394                       PEND
 DROP   XMISCWA-(4+36),R8
 DROP   *,R7
 DROP   RGROUP,R6                  18419                       DROP  R6
1RECS     (RECS2101) (12:53) (15MAR04) MISCELLANEOUS ROUTINES                                                               Page   95
0Current Usings:  (CP,R11) (CV,R12)
0Loc    Object Code    Addr1 Addr2  Stmt Lv Lineno    Source Statement           (Hibal 5, Asmedit 3.3)  HLASM R4.0  2004/03/15 12.53
+___    ______ ____    _____ _____  ____ __ ______    ______ _________
0                                  18427              ¿þþþþþþþþþþþþþþþþþþþþþþþþþþþþþþþþþþþþþþþþþþþþþþþþþþþþþþþþþþþþþþþþþþþþþÜ
                                   18428              Ÿ                                                                     Ÿ
                                   18429              Ÿ                                                                     Ÿ
                                   18430              Ÿ  XDELSETS - DELETE ALL RECORDS IN SPECIFIED SETS                    Ÿ
                                   18431              Ÿ                                                                     Ÿ
                                   18432              Ÿ  ON ENTRY:                                                          Ÿ
                                   18433              Ÿ     @R15 - RECORD GROUP INFO BLOCK                                  Ÿ
                                   18434              Ÿ       R0 - FIRST SET TO DELETE                                      Ÿ
                                   18435              Ÿ       R1 - LAST SET TO DELETE                                       Ÿ
                                   18436              Ÿ                                                                     Ÿ
                                   18437              Ÿ  ON EXIT:                                                           Ÿ
                                   18438              Ÿ      R15 - CC=ZERO                                                  Ÿ
                                   18439              Ÿ                                                                     Ÿ
                                   18440              Ÿ                                                                     Ÿ
                                                      ¾þþþþþþþþþþþþþþþþþþþþþþþþþþþþþþþþþþþþþþþþþþþþþþþþþþþþþþþþþþþþþþþþþþþþþ»
00022E8 50E0 D000/9008_      00000 18441              XDELSETS XPROC XMISCWA
 USING  *,R7
 USING  XMISCWA-(4+36),R8
 USING  RGROUP,R6                  18492                       USING RGROUP,R6
 002302 186F                       18501                       LR    R6,R15
 002304 D203 8028 6004 00000 00004 18502                       MVC   XMSET1,RECSET       SAVE SET NUMBER
                                   18503
 00230A 5000 6004            00004 18504                       ST    R0,RECSET           FIRST SET TO DELETE IN R0
 00230E 4120 802C            00004 18505                       LA    R2,XMNAME1          FIRST REX TO DELETE = 000000...
 002312 4130 0080            00080 18506                       LA    R3,MXNAMELN
 002316 1B55                       18507                       CLEAR R5
 002318 0E24                       18511                       MVCL  R2,R4
 00231A 5010 80AC            00084 18512                       ST    R1,XMSET2           LAST SET TO DELETE IN R1
 00231E 4120 80B0            00088 18513                       LA    R2,XMNAME2          LAST REC TO DELETE = FFFFFFFF...
 002322 4130 0080            00080 18514                       LA    R3,MXNAMELN
 002326 5850 70CE            023D0 18515                       L     R5,=X'FF000000'
 00232A 0E24                       18516                       MVCL  R2,R4
                                   18517
 00232C 41F0 6000            00000 18518                       LA    R15,RGROUP          DELETE ALL RECORDS IN SETS
 002330 4100 802C            00004 18519                       LA    R0,XMNAME1
 002334 4110 80B0            00088 18520                       LA    R1,XMNAME2
 002338 5820 80AC            00084 18521                       L     R2,XMSET2
 00233C 58E0 70EE/0DEE       023F0 18522                       ACALL XDELRECS            DELETE ALL RECORDS IN SETS
                                   18526
 002342 D203 6004 8028 00004 00000 18527                       MVC   RECSET,XMSET1       RESTORE SET NUMBER
 002348 1BFF                       18528                       CLEAR R15                 RETURN CC=0
 00234A 18D8/9808 D004_            18532                       PEND
 DROP   XMISCWA-(4+36),R8
 DROP   *,R7
 DROP   RGROUP,R6                  18557                       DROP  R6
1RECS     (RECS2101) (12:53) (15MAR04) MISCELLANEOUS ROUTINES                                                               Page   96
0Current Usings:  (CP,R11) (CV,R12)
0Loc    Object Code    Addr1 Addr2  Stmt Lv Lineno    Source Statement           (Hibal 5, Asmedit 3.3)  HLASM R4.0  2004/03/15 12.53
+___    ______ ____    _____ _____  ____ __ ______    ______ _________
0                                  18565              ¿þþþþþþþþþþþþþþþþþþþþþþþþþþþþþþþþþþþþþþþþþþþþþþþþþþþþþþþþþþþþþþþþþþþþþÜ
                                   18566              Ÿ                                                                     Ÿ
                                   18567              Ÿ                                                                     Ÿ
                                   18568              Ÿ  XDELSET - DELETE ALL RECORDS IN SPECIFIED SET                      Ÿ
                                   18569              Ÿ                                                                     Ÿ
                                   18570              Ÿ  ON ENTRY:                                                          Ÿ
                                   18571              Ÿ     @R15 - RECORD GROUP INFO BLOCK                                  Ÿ
                                   18572              Ÿ       R0 - SET TO DELETE                                            Ÿ
                                   18573              Ÿ                                                                     Ÿ
                                   18574              Ÿ  ON EXIT:                                                           Ÿ
                                   18575              Ÿ      R15 - CC=ZERO                                                  Ÿ
                                   18576              Ÿ                                                                     Ÿ
                                   18577              Ÿ                                                                     Ÿ
                                                      ¾þþþþþþþþþþþþþþþþþþþþþþþþþþþþþþþþþþþþþþþþþþþþþþþþþþþþþþþþþþþþþþþþþþþþþ»
0002358 50E0 D000/9008_      00000 18578              XDELSET  XPROC XMISCWA
 USING  *,R7
 USING  XMISCWA-(4+36),R8
 USING  RGROUP,R6                  18629                       USING RGROUP,R6
 002372 186F                       18638                       LR    R6,R15
 002374 D203 8028 6004 00000 00004 18639                       MVC   XMSET1,RECSET       SAVE SET NUMBER
                                   18640
 00237A 5000 6004            00004 18641                       ST    R0,RECSET           FIRST SET TO DELETE IN R0
 00237E 4120 802C            00004 18642                       LA    R2,XMNAME1          FIRST REX TO DELETE = 000000...
 002382 4130 0080            00080 18643                       LA    R3,MXNAMELN
 002386 1B55                       18644                       CLEAR R5
 002388 0E24                       18648                       MVCL  R2,R4
 00238A 4120 80B0            00088 18649                       LA    R2,XMNAME2          LAST REC TO DELETE = FFFFFFFF...
 00238E 4130 0080            00080 18650                       LA    R3,MXNAMELN
 002392 5850 705E            023D0 18651                       L     R5,=X'FF000000'
 002396 0E24                       18652                       MVCL  R2,R4
                                   18653
 002398 41F0 6000            00000 18654                       LA    R15,RGROUP          DELETE ALL RECORDS IN SET
 00239C 4100 802C            00004 18655                       LA    R0,XMNAME1
 0023A0 4110 80B0            00088 18656                       LA    R1,XMNAME2
 0023A4 1B22                       18657                       CLEAR R2
 0023A6 58E0 707E/0DEE       023F0 18661                       ACALL XDELRECS            DELETE ALL RECORDS IN SET
                                   18665
 0023AC D203 6004 8028 00004 00000 18666                       MVC   RECSET,XMSET1       RESTORE SET NUMBER
 0023B2 1BFF                       18667                       CLEAR R15                 RETURN CC=0
 0023B4 18D8/9808 D004_            18671                       PEND
 DROP   XMISCWA-(4+36),R8
 DROP   *,R7
 DROP   RGROUP,R6                  18696                       DROP  R6
1RECS     (RECS2101) (12:53) (15MAR04) MISCELLANEOUS ROUTINES                                                               Page   97
0Current Usings:  (CP,R11) (CV,R12)
0Loc    Object Code    Addr1 Addr2  Stmt Lv Lineno    Source Statement           (Hibal 5, Asmedit 3.3)  HLASM R4.0  2004/03/15 12.53
+___    ______ ____    _____ _____  ____ __ ______    ______ _________
0                                  18704                       QLTORG
1RECS     (RECS2101) (12:53) (15MAR04) BINARY SEARCH/INSERT ROUTINES                                                        Page   98
0Current Usings:  (CP,R11) (CV,R12)
0Loc    Object Code    Addr1 Addr2  Stmt Lv Lineno    Source Statement           (Hibal 5, Asmedit 3.3)  HLASM R4.0  2004/03/15 12.53
+___    ______ ____    _____ _____  ____ __ ______    ______ _________
0                                  18730              ¿þþþþþþþþþþþþþþþþþþþþþþþþþþþþþþþþþþþþþþþþþþþþþþþþþþþþþþþþþþþþþþþþþþþþþÜ
                                   18731              Ÿ                                                                     Ÿ
                                   18732              Ÿ                                                                     Ÿ
                                   18733              Ÿ  BSINIT - INITIALIZE BINARY SEARCH INFO                             Ÿ
                                   18734              Ÿ                                                                     Ÿ
                                   18735              Ÿ                                                                     Ÿ
                                   18736              Ÿ  ON ENTRY:                                                          Ÿ
                                   18737              Ÿ       R0 - BINARY SEARCH INFO AREA                                  Ÿ
                                   18738              Ÿ       R1 - TOTAL LENGTH IN AREA FOR ENTRIES                         Ÿ
                                   18739              Ÿ       R2 - ENTRY LENGTH                                             Ÿ
                                   18740              Ÿ       R3 - SEARCH FIELD LENGTH ( < 255 )                            Ÿ
                                   18741              Ÿ       R4 - END OF LAST VALID ENTRY                                  Ÿ
                                   18742              Ÿ                                                                     Ÿ
                                   18743              Ÿ  ON EXIT:                                                           Ÿ
                                   18744              Ÿ       ALL BSINFO FIELDS SET.  (SEE BSINFO DSECT !!)                 Ÿ
                                   18745              Ÿ                                                                     Ÿ
                                   18746              Ÿ  THE BS (BINARY SEARCH) ROUTINES CONSIST OF BSINIT, BSEARCH,        Ÿ
                                   18747              Ÿ  AND BINSERT.  THEY ARE USED TO HANDLE GENERALIZED BINARY           Ÿ
                                   18748              Ÿ  SEARCHING AND INSERTING.                                           Ÿ
                                   18749              Ÿ                                                                     Ÿ
                                   18750              Ÿ  NOTE THAT THE LENGTHS PASSED TO BSINIT MUST BE REASONABLE          Ÿ
                                   18751              Ÿ  NON-ZERO VALUES. DFJL DAFLK DALKJD. THE TOTAL LENGTH MUST          Ÿ
                                   18752              Ÿ  BE LARGE ENOUGH TO HOLD AT LEAST 4 ENTRIES.  IF YOU INTEND         Ÿ
                                   18753              Ÿ  DO INSERTS THE TOTAL LENGTH MUST BE LESS THAN ABOUT 12K AS         Ÿ
                                   18754              Ÿ  THE STACK IS USED FOR A TEMP AREA.                                 Ÿ
                                   18755              Ÿ                                                                     Ÿ
                                   18756              Ÿ                                                                     Ÿ
                                                      ¾þþþþþþþþþþþþþþþþþþþþþþþþþþþþþþþþþþþþþþþþþþþþþþþþþþþþþþþþþþþþþþþþþþþþþ»
00023FA 50E0 D000/9008_      00000 18757              BSINIT   XPROC ,                    SET UP BINARY SEARCH INFO FIELDS
 USING  *,R7
 USING  BSINFO,R6                  18797                       USING BSINFO,R6
 002414 1860                       18806                       LR    R6,R0
 002416 D71F 6000 6000 00000 00000 18807                       CLEAR BSINFO
 00241C 5010 6000            00000 18814                       ST    R1,BSTLEN           SAVE PASSED INFO
 002420 5020 6004            00004 18815                       ST    R2,BSELEN
 002424 5030 6008            00008 18816                       ST    R3,BSSLEN
 002428 5040 6010            00010 18817                       ST    R4,BSEND
                                   18818
                                   18819                       COMMENT
                                   18820              *  WE CALCULATE THE NUMBER OF SEARCH ITERATIONS,, IN MATH JARGON
                                   18821              *  WE CALCULATE  LOG(TOTAL LEN/ENTRY LEN) IN BASE 2  ROUNDED
                                   18822              *  UP TO THE NEAREST INTEGER. IN SIMPLE TERMS, WE COUNT HOW MANY
                                   18823              *  TIMES WE MUST DOUBLE THE ENTRY LENGTH UNTIL WE REACH THE TOTAL
                                   18824              *  LENGTH,,, THIS GIVES US THE SEARCH COUNT.   SEE BELOW.
 00242C 5810 6000            00000 18825                       L     R1,BSTLEN           R1 - TOTAL LENGTH
 002430 5820 6004            00004 18826                       L     R2,BSELEN           R2 - DOUBLING ENTRY LENGTH
 002434 1B33                       18827                       SR    R3,R3               SEARCH COUNT
 002436 1921/4730 7034             18828                       WHILE (R2,LE,R1),BEGIN
 00243C 8920 0001            00001 18845  1                      SLL   R2,1
 002440 4133 0001            00001 18846  1                      LA    R3,1(R3)
 002444 47F0 7022            02436 18847                       END
 002448 5030 6014            00014 18852                       ST    R3,BSCNT            SAVE CALCULATED SEARCH COUNT
                                   18853              * WE CALCULATE LOCATION TO START SEARCH,, FORGET THE MATH JARGON.
1RECS     (RECS2101) (12:53) (15MAR04) BINARY SEARCH/INSERT ROUTINES                                                        Page   99
0Current Usings:  (BSINFO,R6) (*,R7) (CP,R11) (CV,R12)
0Loc    Object Code    Addr1 Addr2  Stmt Lv Lineno    Source Statement           (Hibal 5, Asmedit 3.3)  HLASM R4.0  2004/03/15 12.53
+___    ______ ____    _____ _____  ____ __ ______    ______ _________
0                                  18854              * IN SIMPLE TERMS, WE DOUBLE THE ENTRY LENGTH UNTIL WE REACH AT
                                   18855              * LEAST 1/2 THE TOTAL LENGTH.  (THAT IS WE TAKE 1/2 THE LENGTH
                                   18856              * THAT WE CALCULATED ABOVE.)  THINK ABOUT IT.  OR DON'T BOTHER.
 00244C 1233/47D0 7046             18857                       IF    (R3,POS),BEGIN
 002452 8820 0001            00001 18871  1                      SRL   R2,1
 002456 5020 6018            00018 18872  1                      ST    R2,BSSTART
 00245A                            18873                       END
 00245A 1233/4770 7050             18877                       IF    (R3,ZERO),BEGIN
 002460 5030 6018            00018 18891  1                      ST    R3,BSSTART
 002464                            18892                       END
                                   18896              * AN EXAMPLE
                                   18897              * IF TOTAL LEN=512 AND ENTRY LEN=64, WE KNOW THAT 2*2*2*2*64=512
                                   18898              * SO THE SEARCH COUNT IS 4. AND THE STARTING SEARCH OFFSET IS 256.
                                   18899              * ANOTHER EXAMPLE
                                   18900              * IF TOTAL LEN=50 AND THE ENTRY IS 7, WE KNOW THAT 2*2*2*7=56
                                   18901              * SO THE SEARCH COUNT IS 3. AND  THE STARTING OFFSET IS 28.
                                   18902                       COMMENT
 002464 18D8/9808 D004_            18903                       PEND
 DROP   *,R7
 DROP   BSINFO,R6                  18923                       DROP  R6
1RECS     (RECS2101) (12:53) (15MAR04) BINARY SEARCH/INSERT ROUTINES                                                        Page  100
0Current Usings:  (CP,R11) (CV,R12)
0Loc    Object Code    Addr1 Addr2  Stmt Lv Lineno    Source Statement           (Hibal 5, Asmedit 3.3)  HLASM R4.0  2004/03/15 12.53
+___    ______ ____    _____ _____  ____ __ ______    ______ _________
0                                  18931              ¿þþþþþþþþþþþþþþþþþþþþþþþþþþþþþþþþþþþþþþþþþþþþþþþþþþþþþþþþþþþþþþþþþþþþþÜ
                                   18932              Ÿ                                                                     Ÿ
                                   18933              Ÿ                                                                     Ÿ
                                   18934              Ÿ  BSEARCH - BINARY SEARCH SORTED LIST                                Ÿ
                                   18935              Ÿ                                                                     Ÿ
                                   18936              Ÿ                                                                     Ÿ
                                   18937              Ÿ  ON ENTRY:                                                          Ÿ
                                   18938              Ÿ       R0 - ADDRESS OF BSINFO                                        Ÿ
                                   18939              Ÿ       R1 - ADDRESS OF BINARY SORTED LIST                            Ÿ
                                   18940              Ÿ       R2 - ADDRESS OF ENTRY NAME                                    Ÿ
                                   18941              Ÿ                                                                     Ÿ
                                   18942              Ÿ  ON EXIT:                                                           Ÿ
                                   18943              Ÿ       R0 - ENTRY LENGTH                                             Ÿ
                                   18944              Ÿ       R1 - ENTRY ADDRESS, OR ADDRESS OF PLACE TO INSERT ENTRY       Ÿ
                                   18945              Ÿ       R15 - CC=ZERO IF ENTRY FOUND, CC=NZ IF ENTRY NOT FOUND        Ÿ
                                   18946              Ÿ                                                                     Ÿ
                                   18947              Ÿ                                                                     Ÿ
                                   18948              Ÿ                                                                     Ÿ
                                                      ¾þþþþþþþþþþþþþþþþþþþþþþþþþþþþþþþþþþþþþþþþþþþþþþþþþþþþþþþþþþþþþþþþþþþþþ»
0002472 50E0 D000/9008_      00000 18949              BSEARCH  XPROC ,                   BINARY SEARCH SORTED LIST
 USING  *,R7
 USING  BSINFO,R6                  18989                       USING BSINFO,R6
 00248C 1860                       18998                       LR    R6,R0
 00248E 5800 6018            00018 18999                       L     R0,BSSTART          R0 - +/- ADDR CORRECTION AMOUNT
 002492 1A10                       19000                       AR    R1,R0               R1 - ADDR OF ENTRY TO COMPARE
                                   19001                       COMMENT                   R2 - ENTRY NAME TO COMPARE
 002494 5830 6010            00010 19002                       L     R3,BSEND            R3 - END OF LAST VALID ENTRY
 002498 1A31                       19003                       AR    R3,R1
 00249A 1B30                       19004                       SR    R3,R0
 00249C 5840 6014            00014 19005                       L     R4,BSCNT            R4 - NUMBER OF SEARCH INTERATIONS
 0024A0 5850 6008            00008 19006                       L     R5,BSSLEN           R5 - COMPARE LENGTH (DECR FOR EX)
 0024A4 0650                       19007                       BCTR  R5,0
 0024A6 5940 72DC/47D0_      02768 19008                       WHILE (R4,GT,1),BEGIN     DO BINARY SEARCH
 0024AE 0640                       19027  1                      BCTR  R4,0
 0024B0 8800 0001            00001 19028  1                      SRL   R0,1
 0024B4 1913/4750 7030             19029  1                      IF    (R1,GE,R3),BEGIN         MUST NOT POINT PAST VALID
 0024BA 1B10                       19044  2                        SR    R1,R0                    ENTRIES
 0024BC                            19045  1                      END
 0024BC 7034/47F0 7044 024BC 024B8 19049  1                      ELSE  BEGIN
 0024C0 4450 72EE/D500_      0277A 19060  2                        EX    R5,' CLC 0(0,R2),0(R1) ' COMPARE ENTRY TO SEARCH NAME
 0024C4 47B0 703E            024CA 19076  2                        IF    LT,BEGIN                 AND MOVE UP OR DOWN
 0024C8 1B10                       19087  3                          SR    R1,R0
 0024CA                            19088  2                        END
 0024CA 7042/47F0 7044 024CA 024C6 19092  2                        ELSE  BEGIN
 0024CE 1A10                       19103  3                          AR    R1,R0
 0024D0                            19104  2                        END
 0024D0                            19108  1                      END
 0024D0 47F0 701A            024A6 19112                       END
 0024D4 5800 6004            00004 19117                       L     R0,BSELEN           MAKE FINAL ADJUSTMENTS
 0024D8 1B10                       19118                       SR    R1,R0                 BACK UP ONE ENTRY AND LOOK AT
 0024DA 4140 0002            00002 19119                       LA    R4,2                  NEXT 2 ENTRIES,,,
 0024DE 41F0 0004            00004 19120                       LA    R15,4
 0024E2 1913/47B0 707A_            19121                       WHILE ((R1,LT,R3),AND,(R4,POS)),BEGIN
1RECS     (RECS2101) (12:53) (15MAR04) BINARY SEARCH/INSERT ROUTINES                                                        Page  101
0Current Usings:  (BSINFO,R6) (*,R7) (CP,R11) (CV,R12)
0Loc    Object Code    Addr1 Addr2  Stmt Lv Lineno    Source Statement           (Hibal 5, Asmedit 3.3)  HLASM R4.0  2004/03/15 12.53
+___    ______ ____    _____ _____  ____ __ ______    ______ _________
00024EE 0640                       19151  1                      BCTR  R4,0
 0024F0 4450 72F4/D500_      02780 19152  1                      EX    R5,' CLC 0(0,R2),0(R1) '    DO COMPARE
 0024F4 4770 7070/41F0_      024FC 19168  1                      IF    EQ,' LA R15,0 '
 0024FC 47D0 7076/1A10       02502 19185  1                      IF    GT,' AR R1,R0 '
 002502 47F0 7056            024E2 19202                       END
 002506 5800 6004            00004 19207                       L     R0,BSELEN           RETURN R0 - ENTRY LENGTH
                                   19208                       COMMENT                   RETURN R1 - ENTRY ADDRESS
                                   19209                       COMMENT                   RETURN R15=CC, Z=FOUND, NZ=NOT F.
 00250A 9001 8004            00004 19210                       PRETURN (R0,R1)
 00250E 18D8/9808 D004_            19212                       PEND
 DROP   *,R7
 DROP   BSINFO,R6                  19232                       DROP  R6
1RECS     (RECS2101) (12:53) (15MAR04) BINARY SEARCH/INSERT ROUTINES                                                        Page  102
0Current Usings:  (CP,R11) (CV,R12)
0Loc    Object Code    Addr1 Addr2  Stmt Lv Lineno    Source Statement           (Hibal 5, Asmedit 3.3)  HLASM R4.0  2004/03/15 12.53
+___    ______ ____    _____ _____  ____ __ ______    ______ _________
0                                  19240              ¿þþþþþþþþþþþþþþþþþþþþþþþþþþþþþþþþþþþþþþþþþþþþþþþþþþþþþþþþþþþþþþþþþþþþþÜ
                                   19241              Ÿ                                                                     Ÿ
                                   19242              Ÿ                                                                     Ÿ
                                   19243              Ÿ  BINSERT - INSERT OR REPLACE ENTRY IN BINARY SORTED LIST            Ÿ
                                   19244              Ÿ                                                                     Ÿ
                                   19245              Ÿ                                                                     Ÿ
                                   19246              Ÿ  ON ENTRY:                                                          Ÿ
                                   19247              Ÿ       R0 - ADDRESS OF BSINFO                                        Ÿ
                                   19248              Ÿ       R1 - ADDRESS OF BINARY SORTED LIST                            Ÿ
                                   19249              Ÿ       R2 - ADDRESS OF ENTRY TO INSERT OR REPLACE                    Ÿ
                                   19250              Ÿ                                                                     Ÿ
                                   19251              Ÿ  ON EXIT:                                                           Ÿ
                                   19252              Ÿ       R0 - NEW END OF BINARY SORTED LIST (ACTUAL ADDR)              Ÿ
                                   19253              Ÿ      R15 - CC=ZERO IF INSERTED OK                                   Ÿ
                                   19254              Ÿ            CC=NZ, IF ENTRY WON'T FIT                                Ÿ
                                   19255              Ÿ   BSINFO - UPDATED                                                  Ÿ
                                   19256              Ÿ                                                                     Ÿ
                                   19257              Ÿ                                                                     Ÿ
                                                      ¾þþþþþþþþþþþþþþþþþþþþþþþþþþþþþþþþþþþþþþþþþþþþþþþþþþþþþþþþþþþþþþþþþþþþþ»
0000000                00000 0000C 19258              BNWA     RECORD BEGIN ,,,          BINSERT WORK AREA
 000000                            19266  1           BNENTRY    DS    A                   ADDR OF ENTRY TO INSERT
 000004                            19267  1           BNLIST     DS    A                   ADDR OF BINARY SORTED LIST
 000008                            19268  1           BNINSAD    DS    A                   ADDR OF PLACE TO INSERT
 00000C                            19269  1           BNSPACE    DS    0X                  PAGE SIZED TEMP WORK AREA
                                   19270  1           *                                  AREA IS MANUALLY PUSHED, POPD
 00000C                0000C 0000C 19271                       END
                                   19280              *
                                   19281              *
 00251C 50E0 D000/9008_      00000 19282              BINSERT  XPROC BNWA                INSERT OR REPLACE ENTRY
 USING  *,R7
 USING  BNWA-(4+36),R8
 002536 5AD0 7236            0276C 19333                       A     R13,=A(L'RPAGE)     XPUSH TEMP AREA
 USING  BSINFO,R6                  19334                       USING BSINFO,R6
 00253A 1860                       19343                       LR    R6,R0
 00253C 5010 802C            00004 19344                       ST    R1,BNLIST
 002540 5020 8028            00000 19345                       ST    R2,BNENTRY
                                   19346
 002544 58E0 723A/0DEE       02770 19347                       ACALL BSEARCH             FIND PLACE TO INSERT OF REPLACE
                                   19351
                                   19352                       COMMENT                   REPLACE ENTRY
 00254A 4770 702A            02560 19353                       IF    Z,BEGIN
 00254E 1821                       19364  1                      LR    R2,R1
 002550 5830 6004            00004 19365  1                      L     R3,BSELEN
 002554 5840 8028            00000 19366  1                      L     R4,BNENTRY
 002558 5850 6004            00004 19367  1                      L     R5,BSELEN
 00255C 0E24                       19368  1                      MVCL  R2,R4               REPLACE ENTRY
 00255E 1BFF                       19369  1                      SR    R15,R15
 002560                            19370                       END
                                   19374
                                   19375                       COMMENT                   INSERT ENTRY
 002560 702E/47F0 70A4 02560 0254C 19376                       ELSE  BEGIN ,,
 002564 5010 8030            00008 19387  1                      ST    R1,BNINSAD
 002568 5810 6010            00010 19388  1                      L     R1,BSEND            SEE IF ROOM TO ADD ENTRY
1RECS     (RECS2101) (12:53) (15MAR04) BINARY SEARCH/INSERT ROUTINES                                                        Page  103
0Current Usings:  (BSINFO,R6) (*,R7) (BNWA-(4+36),R8) (CP,R11) (CV,R12)
0Loc    Object Code    Addr1 Addr2  Stmt Lv Lineno    Source Statement           (Hibal 5, Asmedit 3.3)  HLASM R4.0  2004/03/15 12.53
+___    ______ ____    _____ _____  ____ __ ______    ______ _________
000256C 5A10 6004            00004 19389  1                      A     R1,BSELEN           WILL NEW END BE LARGER THAN TOTAL
 002570 5800 6000            00000 19390  1                      L     R0,BSTLEN             TABLE LENGTH ??
 002574 1910/47D0 7048             19391  1                      IF    (R1,GT,R0),BEGIN
 00257A 41F0 0004            00004 19406  2                        LA    R15,4               IF SO WE HAVE OVERFLOW
 00257E                            19407  1                      END
 00257E 1910/4730 70A4             19411  1                      IF    (R1,LE,R0),BEGIN    IF ENTRY WILL FIT, INSERT IT
 002584 5810 8030            00008 19426  2                        L     R1,BNINSAD          WE OPEN UP SPACE FOR INSERT
 002588 5B10 802C            00004 19427  2                        S     R1,BNLIST                INSERT OFFSET
 00258C 5800 6010            00010 19428  2                        L     R0,BSEND
 002590 1B01                       19429  2                        SR    R0,R1                    LENGTH OF LIST AFTER INSERT
 002592 5900 7236/4720_      0276C 19430  2                        IF    (R0,GT,L'RPAGE),BINSBOMB
 00259A 5820 8030            00008 19450  2                        L     R2,BNINSAD          MOVE END OF LIST TO TEMP AREA
 00259E 1830                       19451  2                        LR    R3,R0
 0025A0 4140 8034            0000C 19452  2                        LA    R4,BNSPACE
 0025A4 1850                       19453  2                        LR    R5,R0
 0025A6 0E42                       19454  2                        MVCL  R4,R2
 0025A8 5820 8030            00008 19455  2                        L     R2,BNINSAD          MOVE END OF LIST BACK,
 0025AC 5A20 6004            00004 19456  2                        A     R2,BSELEN             OPENING UP PLACE FOR NEW ENTRY
 0025B0 1830                       19457  2                        LR    R3,R0
 0025B2 4140 8034            0000C 19458  2                        LA    R4,BNSPACE
 0025B6 1850                       19459  2                        LR    R5,R0
 0025B8 0E24                       19460  2                        MVCL  R2,R4
 0025BA 5820 8030            00008 19461  2                        L     R2,BNINSAD          R1 - ADDR TO INSERT
 0025BE 5830 6004            00004 19462  2                        L     R3,BSELEN
 0025C2 5840 8028            00000 19463  2                        L     R4,BNENTRY          R2 - ADDR OF ENTRY TO INSERT
 0025C6 5850 6004            00004 19464  2                        L     R5,BSELEN
 0025CA 0E24                       19465  2                        MVCL  R2,R4               INSERT ENTRY
 0025CC 5800 6010            00010 19466  2                        L     R0,BSEND
 0025D0 5A00 6004            00004 19467  2                        A     R0,BSELEN
 0025D4 5000 6010            00010 19468  2                        ST    R0,BSEND
 0025D8 1BFF                       19469  2                        SR    R15,R15             ENTRY INSERTED OK !!
 0025DA                            19470  1                      END
 0025DA                            19474                       END
                                   19478
 0025DA 5800 802C            00004 19479                       L     R0,BNLIST           RETURN R0 - NEW END OF SORTED LIST
 0025DE 5A00 6010            00010 19480                       A     R0,BSEND
 0025E2 5BD0 7236            0276C 19481                       S     R13,=A(L'RPAGE)     XPOP TEMP AREA
                                   19482
 0025E6 47F0 70B6            025EC 19483                       B     BINSDONE
                                   19484              *
                                   19485              *  EXITS
                                   19486              *
 0025EA                            19487              BINSBOMB LABEL ,                   BOMB IF STACK TEMP SPACE TOO SMALL
 0025EA 0000                       19489                       BOMB
                                   19491
 0025EC                            19492              BINSDONE LABEL ,                   NORMAL EXIT
 0025EC 5008 0004            00004 19494                       PRETURN R0
 0025F0 18D8/9808 D004_            19496                       PEND
 DROP   BNWA-(4+36),R8
 DROP   *,R7
 DROP   BSINFO,R6                  19521                       DROP  R6
1RECS     (RECS2101) (12:53) (15MAR04) BINARY SEARCH/INSERT ROUTINES                                                        Page  104
0Current Usings:  (CP,R11) (CV,R12)
0Loc    Object Code    Addr1 Addr2  Stmt Lv Lineno    Source Statement           (Hibal 5, Asmedit 3.3)  HLASM R4.0  2004/03/15 12.53
+___    ______ ____    _____ _____  ____ __ ______    ______ _________
0                                  19529              ¿þþþþþþþþþþþþþþþþþþþþþþþþþþþþþþþþþþþþþþþþþþþþþþþþþþþþþþþþþþþþþþþþþþþþþÜ
                                   19530              Ÿ                                                                     Ÿ
                                   19531              Ÿ                                                                     Ÿ
                                   19532              Ÿ  BDELETE - DELETE ENTRY IN BINARY SORTED LIST                       Ÿ
                                   19533              Ÿ                                                                     Ÿ
                                   19534              Ÿ  ON ENTRY:                                                          Ÿ
                                   19535              Ÿ       R0 - ADDRESS OF BINARY SEARCH INFO                            Ÿ
                                   19536              Ÿ       R1 - START OF BINARY SORTED LIST                              Ÿ
                                   19537              Ÿ       R2 - ADDRESS OF ENTRY TO DELETE                               Ÿ
                                   19538              Ÿ                                                                     Ÿ
                                   19539              Ÿ  ON EXIT:                                                           Ÿ
                                   19540              Ÿ       R0 - NEW END OF BINARY SORTED LIST (ACTUAL ADDR)              Ÿ
                                   19541              Ÿ      R15 - CC=ZERO, ENTRY DELETED                                   Ÿ
                                   19542              Ÿ            CC=NZ, ENTRY NOT FOUND                                   Ÿ
                                   19543              Ÿ                                                                     Ÿ
                                   19544              Ÿ                                                                     Ÿ
                                                      ¾þþþþþþþþþþþþþþþþþþþþþþþþþþþþþþþþþþþþþþþþþþþþþþþþþþþþþþþþþþþþþþþþþþþþþ»
0000000                00000 00004 19545              BDWA     RECORD BEGIN
 000000                            19553  1           BDLIST     DS    A                   ADDRESS OF SORTED LIST
 000004                            19554  1           BDTEMP     DS    0X                  PAGE SIZED TEMP WORK AREA
                                   19555  1           *                                  AREA IS MANUALLY PUSHED, POP'D
 000004                00004 00004 19556                       END
                                   19565              *
                                   19566              *
 0025FE 50E0 D000/9008_      00000 19567              BDELETE  XPROC BDWA
 USING  *,R7
 USING  BDWA-(4+36),R8
 USING  BSINFO,R6                  19618                       USING BSINFO,R6
 002618 5AD0 7154            0276C 19627                       A     R13,=A(L'RPAGE)     XPUSH TEMP AREA
 00261C 1860                       19628                       LR    R6,R0
 00261E 5010 8028            00000 19629                       ST    R1,BDLIST
                                   19630
 002622 58E0 7158/0DEE       02770 19631                       ACALL BSEARCH             FIND ENTRY TO DELETE
                                   19635
                                   19636                       COMMENT                   IF ENTRY, DELETE IT
 002628 4770 7056            0266E 19637                       IF    Z,BEGIN
 00262C 4120 802C            00004 19648  1                      LA    R2,BDTEMP
 002630 5830 8028            00000 19649  1                      L     R3,BDLIST
 002634 5A30 6010            00010 19650  1                      A     R3,BSEND
 002638 1B31                       19651  1                      SR    R3,R1
 00263A 5B30 6004            00004 19652  1                      S     R3,BSELEN
 00263E 1841                       19653  1                      LR    R4,R1
 002640 5A40 6004            00004 19654  1                      A     R4,BSELEN
 002644 1853                       19655  1                      LR    R5,R3
 002646 9025 D000/41D0_      00000 19656  1                      XPUSH R2,R5
 00264E 0E24                       19659  1                      MVCL  R2,R4               MOVE END OF LIST TO TEMP AREA
 002650 4BD0 7160/9825_      02778 19660  1                      XPOP  R2,R5
 002658 1821                       19663  1                      LR    R2,R1
 00265A 4140 802C            00004 19664  1                      LA    R4,BDTEMP
 00265E 0E24                       19665  1                      MVCL  R2,R4               MOVE END OF LIST BACK, DELETING
                                   19666  1                      COMMENT                      REQUESTED ENTRY
 002660 5800 6010            00010 19667  1                      L     R0,BSEND
 002664 5B00 6004            00004 19668  1                      S     R0,BSELEN
1RECS     (RECS2101) (12:53) (15MAR04) BINARY SEARCH/INSERT ROUTINES                                                        Page  105
0Current Usings:  (BSINFO,R6) (*,R7) (BDWA-(4+36),R8) (CP,R11) (CV,R12)
0Loc    Object Code    Addr1 Addr2  Stmt Lv Lineno    Source Statement           (Hibal 5, Asmedit 3.3)  HLASM R4.0  2004/03/15 12.53
+___    ______ ____    _____ _____  ____ __ ______    ______ _________
0002668 5000 6010            00010 19669  1                      ST    R0,BSEND
 00266C 1BFF                       19670  1                      CLEAR R15
 00266E                            19674                       END
                                   19678
                                   19679                       COMMENT                   IF NOT FOUND, CAN NOT DELETE
 00266E 705A/47F0 705E 0266E 0262A 19680                       ELSE  BEGIN ,
 002672 41F0 0004            00004 19691  1                      LA    R15,4
 002676                            19692                       END
                                   19696
 002676 5800 8028            00000 19697                       L     R0,BDLIST           RETURN R0 - NEW END OF LIST
 00267A 5A00 6010            00010 19698                       A     R0,BSEND
 00267E 5BD0 7154            0276C 19699                       S     R13,=A(L'RPAGE)     XPOP TEMP AREA
 002682 5008 0004            00004 19700                       PRETURN R0
 002686 18D8/9808 D004_            19702                       PEND
 DROP   BDWA-(4+36),R8
 DROP   *,R7
 DROP   BSINFO,R6                  19727                       DROP  R6
1RECS     (RECS2101) (12:53) (15MAR04) BINARY SEARCH/INSERT ROUTINES                                                        Page  106
0Current Usings:  (CP,R11) (CV,R12)
0Loc    Object Code    Addr1 Addr2  Stmt Lv Lineno    Source Statement           (Hibal 5, Asmedit 3.3)  HLASM R4.0  2004/03/15 12.53
+___    ______ ____    _____ _____  ____ __ ______    ______ _________
0                                  19735              ¿þþþþþþþþþþþþþþþþþþþþþþþþþþþþþþþþþþþþþþþþþþþþþþþþþþþþþþþþþþþþþþþþþþþþþÜ
                                   19736              Ÿ                                                                     Ÿ
                                   19737              Ÿ                                                                     Ÿ
                                   19738              Ÿ  ABSEARCH - BINARY SEARCH, ALLOWING ABREVIATIONS !                  Ÿ
                                   19739              Ÿ                                                                     Ÿ
                                   19740              Ÿ  THIS ROUTINE ALLOWS ABREVIATIONS TO MATCH.  SEE DETAILS BELOW.     Ÿ
                                   19741              Ÿ                                                                     Ÿ
                                   19742              Ÿ                                                                     Ÿ
                                   19743              Ÿ  ON ENTRY:                                                          Ÿ
                                   19744              Ÿ       R0 - ADDRESS OF BSINFO                                        Ÿ
                                   19745              Ÿ       R1 - ADDRESS OF BINARY SORTED LIST                            Ÿ
                                   19746              Ÿ       R2 - ADDRESS OF ENTRY NAME                                    Ÿ
                                   19747              Ÿ                                                                     Ÿ
                                   19748              Ÿ  ON EXIT:                                                           Ÿ
                                   19749              Ÿ       R0 - ENTRY LENGTH                                             Ÿ
                                   19750              Ÿ       R1 - ENTRY ADDRESS, OR ADDRESS OF PLACE TO INSERT ENTRY       Ÿ
                                   19751              Ÿ       R15 - CC=ZERO IF ENTRY FOUND, CC=NZ IF ENTRY NOT FOUND        Ÿ
                                   19752              Ÿ                                                                     Ÿ
                                   19753              Ÿ                                                                     Ÿ
                                   19754              Ÿ  THIS ROUTINE IS SIMILAR TO BSEARCH.  THE DIFFERENCE IS THAT        Ÿ
                                   19755              Ÿ  BSEARCH FINDS ONLY EXACT MATCHES, WHEREAS THIS ROUTINE WILL        Ÿ
                                   19756              Ÿ  MATCH IF THE NON-BLANK PORTION OF THE SEARCH KEY MATCHES THE       Ÿ
                                   19757              Ÿ  ALL OR THE FIRST PART OF THE KEYWORD.  A MINIMUM OF 3 CHARS        Ÿ
                                   19758              Ÿ  MUST MATCH.  IF THERE ARE MULTIPLE MATCHES, THEN THE FIRST         Ÿ
                                   19759              Ÿ  MATCHING KEYWORD IN THE LIST WILL BE RETURNED.  USED TO            Ÿ
                                   19760              Ÿ  SEARCH THE SYSTEM VARIABLE/FUNCTION/PROCEDURE TABLE.               Ÿ
                                   19761              Ÿ                                                                     Ÿ
                                   19762              Ÿ                                                                     Ÿ
                                                      ¾þþþþþþþþþþþþþþþþþþþþþþþþþþþþþþþþþþþþþþþþþþþþþþþþþþþþþþþþþþþþþþþþþþþþþ»
0002694 50E0 D000/9008_      00000 19763              ABSEARCH XPROC ,                   BINARY SEARCH SORTED LIST
 USING  *,R7
 USING  BSINFO,R6                  19803                       USING BSINFO,R6
 0026AE 1860                       19812                       LR    R6,R0
 0026B0 5800 6018            00018 19813                       L     R0,BSSTART          R0 - +/- ADDR CORRECTION AMOUNT
 0026B4 1A10                       19814                       AR    R1,R0               R1 - ADDR OF ENTRY TO COMPARE
                                   19815                       COMMENT                   R2 - ENTRY NAME TO COMPARE
 0026B6 5830 6010            00010 19816                       L     R3,BSEND            R3 - END OF LAST VALID ENTRY
 0026BA 1A31                       19817                       AR    R3,R1
 0026BC 1B30                       19818                       SR    R3,R0
 0026BE 5840 6014            00014 19819                       L     R4,BSCNT            R4 - NUMBER OF SEARCH INTERATIONS
                                   19820                       COMMENT                   R5 - COMPARE LENGTH  (-1 FOR EX)
 0026C2 1852                       19821                       LR    R5,R2
 0026C4 5A50 6008            00008 19822                       A     R5,BSSLEN           CALCULATE COMPARE LENGTH
 0026C8 0650                       19823                       DECR  R5
 0026CA 9540 5000/4770_00000       19825                       WHILE ((@R5,EQ,' '),AND,(R5,GT,R2)),BEGIN
 0026D8 0650                       19857  1                      DECR  R5
 0026DA 47F0 701C            026CA 19859                       END
 0026DE 1B52                       19864                       SR    R5,R2
 0026E0 5950 70C6/47B0_      02774 19865                       IF    (R5,LT,2),' LA R5,2 '
                                   19888                       COMMENT
 0026EC 5940 70BA/47D0_      02768 19889                       WHILE (R4,GT,1),BEGIN     DO BINARY SEARCH
 0026F4 0640                       19908  1                      BCTR  R4,0
 0026F6 8800 0001            00001 19909  1                      SRL   R0,1
1RECS     (RECS2101) (12:53) (15MAR04) BINARY SEARCH/INSERT ROUTINES                                                        Page  107
0Current Usings:  (BSINFO,R6) (*,R7) (CP,R11) (CV,R12)
0Loc    Object Code    Addr1 Addr2  Stmt Lv Lineno    Source Statement           (Hibal 5, Asmedit 3.3)  HLASM R4.0  2004/03/15 12.53
+___    ______ ____    _____ _____  ____ __ ______    ______ _________
00026FA 1913/4750 7054             19910  1                      IF    (R1,GE,R3),BEGIN         MUST NOT POINT PAST VALID
 002700 1B10                       19925  2                        SR    R1,R0                    ENTRIES
 002702                            19926  1                      END
 002702 7058/47F0 7068 02702 026FE 19930  1                      ELSE  BEGIN
                                   19941  2           * 'le' test below gives 1st match in list if multiple entries match
 002706 4450 70D8/D500_      02786 19942  2                        EX    R5,' CLC 0(0,R2),0(R1) ' COMPARE ENTRY TO SEARCH NAME
 00270A 4730 7062            02710 19958  2                        IF    LE,BEGIN                 AND MOVE UP OR DOWN
 00270E 1B10                       19969  3                          SR    R1,R0
 002710                            19970  2                        END
 002710 7066/47F0 7068 02710 0270C 19974  2                        ELSE  BEGIN
 002714 1A10                       19985  3                          AR    R1,R0
 002716                            19986  2                        END
 002716                            19990  1                      END
 002716 47F0 703E            026EC 19994                       END
 00271A 5800 6004            00004 19999                       L     R0,BSELEN           MAKE FINAL ADJUSTMENTS
 00271E 1B10                       20000                       SR    R1,R0                 BACK UP ONE ENTRY AND LOOK AT
 002720 4140 0003            00003 20001                       LA    R4,3                  NEXT 3 ENTRIES,,,
 002724 41F0 0004            00004 20002                       LA    R15,4
 002728 1913/47B0 709E_            20003                       WHILE ((R1,LT,R3),AND,(R4,POS)),BEGIN
 002734 0640                       20033  1                      BCTR  R4,0
 002736 4450 70DE/D500_      0278C 20034  1                      EX    R5,' CLC 0(0,R2),0(R1) '    DO COMPARE
 00273A 4770 7094/41F0_      02742 20050  1                      IF    EQ,' LA R15,0 '
 002742 47D0 709A/1A10       02748 20067  1                      IF    GT,' AR R1,R0 '
 002748 47F0 707A            02728 20084                       END
 00274C 5800 6004            00004 20089                       L     R0,BSELEN           RETURN R0 - ENTRY LENGTH
                                   20090                       COMMENT                   RETURN R1 - ENTRY ADDRESS
                                   20091                       COMMENT                   RETURN R15=CC, Z=FOUND, NZ=NOT F.
 002750 9001 8004            00004 20092                       PRETURN (R0,R1)
 002754 18D8/9808 D004_            20094                       PEND
 DROP   *,R7
 DROP   BSINFO,R6                  20114                       DROP  R6
1RECS     (RECS2101) (12:53) (15MAR04) BINARY SEARCH/INSERT ROUTINES                                                        Page  108
0Current Usings:  (CP,R11) (CV,R12)
0Loc    Object Code    Addr1 Addr2  Stmt Lv Lineno    Source Statement           (Hibal 5, Asmedit 3.3)  HLASM R4.0  2004/03/15 12.53
+___    ______ ____    _____ _____  ____ __ ______    ______ _________
0                                  20122                       QLTORG
1RECS     (RECS2101) (12:53) (15MAR04) SUPER OPTIMIZED ACTIVE LOCATE/PUT                                                    Page  109
0Current Usings:  (CP,R11) (CV,R12)
0Loc    Object Code    Addr1 Addr2  Stmt Lv Lineno    Source Statement           (Hibal 5, Asmedit 3.3)  HLASM R4.0  2004/03/15 12.53
+___    ______ ____    _____ _____  ____ __ ______    ______ _________
0                                  20140              ¿þþþþþþþþþþþþþþþþþþþþþþþþþþþþþþþþþþþþþþþþþþþþþþþþþþþþþþþþþþþþþþþþþþþþþÜ
                                   20141              Ÿ                                                                     Ÿ
                                   20142              Ÿ  XLOCLINE - HIGH PERFORMANCE LINE LOCATE ROUTINE                    Ÿ
                                   20143              Ÿ                                                                     Ÿ
                                   20144              Ÿ  THIS ROUTINE DOES FAST LOCATE OF FIRST LINE IN RANGE,,             Ÿ
                                   20145              Ÿ  SEE XLOCFRST ROUTINE.                                              Ÿ
                                   20146              Ÿ                                                                     Ÿ
                                   20147              Ÿ  ON ENTRY:                                                          Ÿ
                                   20148              Ÿ       SAME AS XLOCFRST                                              Ÿ
                                   20149              Ÿ                                                                     Ÿ
                                   20150              Ÿ  ON EXIT:                                                           Ÿ
                                   20151              Ÿ       SAME AS XLOCFRST                                              Ÿ
                                   20152              Ÿ                                                                     Ÿ
                                   20153              Ÿ                                                                     Ÿ
                                   20154              Ÿ  WARNING !!, THIS ROUTINE DIDDLES DIRECTLY SEVERAL DATA             Ÿ
                                   20155              Ÿ      STRUCTURES.  CHANGES IN OTHER ROUTINES MAY HAVE SIDE EFFECTS   Ÿ
                                   20156              Ÿ      HERE.  ISN'T OPTIMIZATION FUN.                                 Ÿ
                                   20157              Ÿ                                                                     Ÿ
                                   20158              Ÿ  WARNING !!, CAN BE USED ONLY WITH RECORDS HAVING 4 BYTE LINE       Ÿ
                                   20159              Ÿ      NUMBERS (IE. ACTIVE FILE, EXEC FILES)                          Ÿ
                                   20160              Ÿ                                                                     Ÿ
                                   20161              Ÿ                                                                     Ÿ
                                                      ¾þþþþþþþþþþþþþþþþþþþþþþþþþþþþþþþþþþþþþþþþþþþþþþþþþþþþþþþþþþþþþþþþþþþþþ»
0000000                00000 00018 20162              LCLWA    RECORD BEGIN
 000000                            20170  1           LCLKEY     DS    XL(L'NDXSET+4)      LINE NUMBER KEY
                                   20171  1           LCLSET     EQU   LCLKEY,L'NDXSET
                                   20172  1           LCLLNO     EQU   LCLKEY+L'NDXSET,4
 000008                            20173  1           LCLREGS    DS    4F                  ENTRY PARMS
                                   20174  1           LCLREG2    EQU   LCLREGS+12
 000018                00018 00018 20175                       END
                                   20184              TEXTLN   EQU   L'LCLKEY+DATALN,L'DATALN
                                   20185              TEXTPTR  EQU   L'LCLKEY+DATAPTR,L'DATAPTR
                                   20186              *
                                   20187              *
 002792 50E0 D000/9008_      00000 20188              XLOCLINE XPROC LCLWA
 USING  *,R7
 USING  LCLWA-(4+36),R8
 USING  RPAGE,R9                   20239                       USING RPAGE,PAR
 USING  RGROUP,R6                  20248                       USING RGROUP,R6
 0027AC 186F                       20257                       LR    R6,R15
 0027AE 90F2 8030            00008 20258                       STM   R15,R2,LCLREGS
 0027B2 D203 8028 6004 00000 00004 20259                       MVC   LCLSET,RECSET       CREATE RECORD KEY
 0027B8 D203 802C 2000 00004 00000 20260                       MVC   LCLLNO,@R2
                                   20261
                                   20262                       COMMENT                   ENTRANCE EXAM
 0027BE 4830 6018            00018 20263                       LH    R3,RECQOFF          R3 - QUICK OFFSET
 0027C2 5840 6010            00010 20264                       L     R4,RECQPG           R4 - QUICK PAGE
 0027C6 1244/4780 7134_            20265                       IF    ((R4,Z),OR,(R3,Z)),USEXLOC
 0027D2 D501 7530 6008_02CDC 00008 20295                       IF    (RECNLEN,NE,4),' BOMB '
                                   20320
                                   20321                       COMMENT                   GET PAGE
 0027DE 1804                       20322                       LR    R0,R4
 0027E0 58E0 7514/0DEE       02CC0 20323                       PGET  PAR,(R0)
1RECS     (RECS2101) (12:53) (15MAR04) SUPER OPTIMIZED ACTIVE LOCATE/PUT                                                    Page  110
0Current Usings:  (RGROUP,R6) (*,R7) (LCLWA-(4+36),R8) (RPAGE,R9) (CP,R11) (CV,R12)
0Loc    Object Code    Addr1 Addr2  Stmt Lv Lineno    Source Statement           (Hibal 5, Asmedit 3.3)  HLASM R4.0  2004/03/15 12.53
+___    ______ ____    _____ _____  ____ __ ______    ______ _________
00027E6 D505 9000 7532_00000 02CDE 20331                       RPCHECK
 0027FC 9180 9014/47E0_00014       20339                       IF    ~RPDATA,USEXLOC
                                   20357
                                   20358                       COMMENT                   GET ENTRY OFFSETS
 002804 1813                       20359                       LR    R1,R3               R1 - 1ST ENTRY OFFSET
 002806 1A19                       20360                       AR    R1,PAR
 002808 4820 9020            00020 20361                       LH    R2,RPNTRYLN         R2 - NEXT ENTRY OFFSET
 00280C 1A21                       20362                       AR    R2,R1
 00280E 4830 9024            00024 20363                       LH    R3,RPXEND           R3 - LAST ENTRY ON PAGE
 002812 1A39                       20364                       AR    R3,PAR
 002814 4840 9028            00028 20365                       LH    R4,RPXLAST          R4 - LAST VALID ENTRY LIMIT
 002818 1A49                       20366                       AR    R4,PAR
                                   20367              *
                                   20368              * THE FOLLOWING CHECKS INSURE
                                   20369              *   1. THAT THE QUICK INDEX OFFSET POINTER IS GOOD
                                   20370              *   2. THAT THE RECORD BELONGS ON THIS PAGE
 00281A 1913/47A0 7134             20371                       IF    (R1,GE,R3),USEXLOC
 002820 D507 8028 1000_00000 00000 20389                       IF    ((LCLKEY,LT,@R1),OR,(LCLKEY,GE,@R4)),USEXLOC
 002834 D507 8028 2000_00000 00000 20425                       IF    ((LCLKEY,GT,@R2),AND,(R2,LT,R3)),USEXLOC
                                   20459
                                   20460                       COMMENT                   IF FIRST ENTRY MATCH
 002844 D507 8028 1000_00000 00000 20461                       IF    (LCLKEY,EQ,@R1),BEGIN
 00284E 1821                       20478  1                      LR    R2,R1
 002850 4802 000A            0000A 20479  1                      LH    R0,TEXTLN(R2)       GET LENGTH, LOCATION
 002854 4812 0008            00008 20480  1                      LH    R1,TEXTPTR(R2)
 002858 1A19                       20481  1                      AR    R1,PAR
 00285A 1842                       20482  1                      LR    R4,R2               SET QUICK GET/LOC INFO
 00285C 1B49                       20483  1                      SR    R4,PAR
 00285E 4040 6018            00018 20484  1                      STH   R4,RECQOFF
 002862 5840 9010            00010 20485  1                      L     R4,RPNUMB
 002866 5040 6010            00010 20486  1                      ST    R4,RECQPG
 00286A 1BFF                       20487  1                      CLEAR R15
 00286C                            20491                       END
                                   20495
                                   20496                       COMMENT                   IF NEXT SET NOT SAME AS CURRENT,
                                   20497                       COMMENT                   THEN WE HAVE NO MATCH
 00286C 70C4/47F0 70E0_0286C 0284C 20498                       ELSEIF (('CLC LCLSET,@R2',NE),AND,(R2,LT,R3)),BEGIN
 002880 1B00                       20534  1                      CLEAR R0
 002882 1B11                       20538  1                      CLEAR R1
 002884 41F0 0004            00004 20542  1                      LA    R15,4
 002888 47F0 7142            028EE 20543  1                      B     XLCLDONE
 00288C                            20544                       END
                                   20548
                                   20549                       COMMENT                   IF NEXT ENTRY MATCH
 00288C 70E4/70E4/47F0_0288C 02878 20550                       ELSEIF ((LCLKEY,LE,@R2),AND,(R2,LT,R3)),BEGIN
 0028A0 4802 000A            0000A 20592  1                      LH    R0,TEXTLN(R2)       GET LENGTH, LOCATION
 0028A4 4812 0008            00008 20593  1                      LH    R1,TEXTPTR(R2)
 0028A8 1A19                       20594  1                      AR    R1,PAR
 0028AA 1842                       20595  1                      LR    R4,R2               SET QUICK GET/LOC INFO
 0028AC 1B49                       20596  1                      SR    R4,PAR
 0028AE 4040 6018            00018 20597  1                      STH   R4,RECQOFF
 0028B2 5840 9010            00010 20598  1                      L     R4,RPNUMB
 0028B6 5040 6010            00010 20599  1                      ST    R4,RECQPG
 0028BA 5842 0004            00004 20600  1                      L     R4,NDXNAME(R2)      RETURN LINENO (@ ENTRY R2)
1RECS     (RECS2101) (12:53) (15MAR04) SUPER OPTIMIZED ACTIVE LOCATE/PUT                                                    Page  111
0Current Usings:  (RGROUP,R6) (*,R7) (LCLWA-(4+36),R8) (RPAGE,R9) (CP,R11) (CV,R12)
0Loc    Object Code    Addr1 Addr2  Stmt Lv Lineno    Source Statement           (Hibal 5, Asmedit 3.3)  HLASM R4.0  2004/03/15 12.53
+___    ______ ____    _____ _____  ____ __ ______    ______ _________
00028BE 5850 803C            00014 20601  1                      L     R5,LCLREG2
 0028C2 5045 0000            00000 20602  1                      ST    R4,0(R5)
 0028C6 1BFF                       20603  1                      CLEAR R15
 0028C8                            20607                       END
                                   20611
                                   20612                       COMMENT                   IF AT END OF ENTRIES,
 0028C8 7120/7120/47F0_028C8 02898 20613                       ELSEIF (R2,GE,R3),BEGIN
 0028D2 47F0 7134            028E0 20639  1                      B     USEXLOC
 0028D6                            20640                       END
                                   20644
 0028D6 712E/47F0 7130 028D6 028D0 20645                       ELSE  BEGIN               ALL OTHER CASES, IMPOSIBLE
 0028DA 0000                       20656  1                      BOMB
 0028DC                            20658                       END
                                   20662              *
                                   20663              *        ALL DONE,  EXIT BELOW
                                   20664              *
 0028DC 47F0 7142            028EE 20665                       B     XLCLDONE
                                   20666              *
                                   20667              *  EXITS
                                   20668              *
0                                  20670              *  OPTIMIZED XLOCLINE WILL NOT WORK,,, WE CALL STANDARD FORM OF
                                   20671              *  XLOCATE ROUTINE
 0028E0                            20672              USEXLOC  LABEL ,
 0028E0 98F2 8030            00008 20674                       LM    R15,R2,LCLREGS      CALL LOCATE TO GET PREVIOUS
 0028E4 58E0 7518/0DEE       02CC4 20675                       ACALL XLOCFRST            BYTE COUNT
 0028EA 47F0 7142            028EE 20679                       B     XLCLDONE
-                                  20681              *
                                   20682              *
 0028EE                            20683              XLCLDONE LABEL ,                   NORMAL EXIT
 0028EE 9001 8004            00004 20685                       PRETURN (R0,R1)
 0028F2 18D8/9808 D004_            20687                       PEND
 DROP   LCLWA-(4+36),R8
 DROP   *,R7
-DROP   RPAGE,R9                   20713                       DROP  PAR
 DROP   RGROUP,R6                  20720                       DROP  R6
1RECS     (RECS2101) (12:53) (15MAR04) SUPER OPTIMIZED ACTIVE LOCATE/PUT                                                    Page  112
0Current Usings:  (CP,R11) (CV,R12)
0Loc    Object Code    Addr1 Addr2  Stmt Lv Lineno    Source Statement           (Hibal 5, Asmedit 3.3)  HLASM R4.0  2004/03/15 12.53
+___    ______ ____    _____ _____  ____ __ ______    ______ _________
0                                  20728              ¿þþþþþþþþþþþþþþþþþþþþþþþþþþþþþþþþþþþþþþþþþþþþþþþþþþþþþþþþþþþþþþþþþþþþþÜ
                                   20729              Ÿ                                                                     Ÿ
                                   20730              Ÿ  XPUTLINE - HIGH PERFORMANCE PUT LINE ROUTINE                       Ÿ
                                   20731              Ÿ                                                                     Ÿ
                                   20732              Ÿ                                                                     Ÿ
                                   20733              Ÿ  ON ENTRY:                                                          Ÿ
                                   20734              Ÿ      SAME AS XPUT, WITH                                             Ÿ
                                   20735              Ÿ      @R3 - 4 CHARACTER FLAG BYTES                                   Ÿ
                                   20736              Ÿ             IF C'I...'  INSERT ONLY                                 Ÿ
                                   20737              Ÿ             IF C'R...'  REPLACE ONLY                                Ÿ
                                   20738              Ÿ             IF C'....'  DON'T CARE                                  Ÿ
                                   20739              Ÿ                                                                     Ÿ
                                   20740              Ÿ  ON EXIT:                                                           Ÿ
                                   20741              Ÿ       R0 - LENGTH (DATA) OF RECORD REPLACED.  (-1 IF NONE)          Ÿ
                                   20742              Ÿ      R15 - CC=0  ALL OK                                             Ÿ
                                   20743              Ÿ            CC=4  NO ROOM FOR LINE (>200000 LINES SAVED !)           Ÿ
                                   20744              Ÿ            CC=8  INVALID SET, RECORD NUMBERS (CAN'T BE ZERO)        Ÿ
                                   20745              Ÿ            CC=12 ATTEMPTED VIOLATION OF INSERT/REPACE ONLY MODE     Ÿ
                                   20746              Ÿ      PAR - PAGE OBTAINED                                            Ÿ
                                   20747              Ÿ                                                                     Ÿ
                                   20748              Ÿ                                                                     Ÿ
                                   20749              Ÿ  WARNING !!, THIS ROUTINE DIDDLES DIRECTLY SEVERAL DATA             Ÿ
                                   20750              Ÿ      STRUCTURES.  CHANGES IN OTHER ROUTINES MAY HAVE SIDE EFFECTS   Ÿ
                                   20751              Ÿ      HERE.  ISN'T OPTIMIZATION FUN.                                 Ÿ
                                   20752              Ÿ                                                                     Ÿ
                                   20753              Ÿ  WARNING !!, CAN BE USED ONLY WITH RECORDS HAVING 4 BYTE LINE       Ÿ
                                   20754              Ÿ      NUMBERS (IE. ACTIVE FILE, EXEC FILES)                          Ÿ
                                   20755              Ÿ                                                                     Ÿ
                                   20756              Ÿ                                                                     Ÿ
                                                      ¾þþþþþþþþþþþþþþþþþþþþþþþþþþþþþþþþþþþþþþþþþþþþþþþþþþþþþþþþþþþþþþþþþþþþþ»
0000000                00000 0001C 20757              PTLWA    RECORD BEGIN
 000000                            20765  1           PTLKEY     DS    XL(L'NDXSET+4)      LINE NUMBER KEY
                                   20766  1           PTLSET     EQU   PTLKEY,L'NDXSET
                                   20767  1           PTLLNO     EQU   PTLKEY+L'NDXSET,4
 000008                            20768  1           PTLFLAG    DS    4CL1                ENTRY PARM: FLAGS
 00000C                            20769  1           PTLREGS    DS    4F                  ENTRY PARMS: REGISTERS
                                   20770  1           PTLLEN     EQU   PTLREGS+4
                                   20771  1           PTLLOC     EQU   PTLREGS+8
 00001C                            20772  1           PTLTEMP    DS    0X                  PAGE SIZED TEMP AREA
                                   20773  1           *                                  AREA IS MANUALLY PUSHED, POP'D
 00001C                0001C 0001C 20774                       END
                                   20783              *
                                   20784              *
 002900 50E0 D000/9008_      00000 20785              XPUTLINE XPROC PTLWA
 USING  *,R7
 USING  PTLWA-(4+36),R8
 USING  RPAGE,R9                   20836                       USING RPAGE,PAR
 USING  RGROUP,R6                  20845                       USING RGROUP,R6
 00291A 186F                       20854                       LR    R6,R15
 00291C 90F2 8034            0000C 20855                       STM   R15,R2,PTLREGS
 002920 D203 8030 3000 00008 00000 20856                       MVC   PTLFLAG(4),0(R3)
 002926 D203 8028 6004 00000 00004 20857                       MVC   PTLSET,RECSET       CREATE RECORD KEY
 00292C D203 802C 2000 00004 00000 20858                       MVC   PTLLNO,@R2
1RECS     (RECS2101) (12:53) (15MAR04) SUPER OPTIMIZED ACTIVE LOCATE/PUT                                                    Page  113
0Current Usings:  (RGROUP,R6) (*,R7) (PTLWA-(4+36),R8) (RPAGE,R9) (CP,R11) (CV,R12)
0Loc    Object Code    Addr1 Addr2  Stmt Lv Lineno    Source Statement           (Hibal 5, Asmedit 3.3)  HLASM R4.0  2004/03/15 12.53
+___    ______ ____    _____ _____  ____ __ ______    ______ _________
0                                  20859
                                   20860                       COMMENT                   ENTRANCE EXAM
 002932 4830 601A            0001A 20861                       LH    R3,RECPOFF          R3 - QUICK OFFSET
 002936 5840 6014            00014 20862                       L     R4,RECPPG           R4 - QUICK PAGE
 00293A 1244/4780 733A_            20863                       IF    ((R4,Z),OR,(R3,Z)),USEXPUT
 002946 D501 73C2 6008_02CDC 00008 20893                       IF    (RECNLEN,NE,4),' BOMB '
                                   20918
                                   20919                       COMMENT                   GET PAGE
 002952 1804                       20920                       LR    R0,R4
 002954 58E0 73A6/0DEE       02CC0 20921                       PGET  PAR,(R0)
 00295A D505 9000 73C4_00000 02CDE 20929                       RPCHECK
 002970 9180 9014/47E0_00014       20937                       IF    ~RPDATA,USEXPUT
                                   20955
                                   20956                       COMMENT                   GET ENTRY OFFSETS
 002978 1813                       20957                       LR    R1,R3               R1 - 1ST ENTRY OFFSET
 00297A 1A19                       20958                       AR    R1,PAR
 00297C 4820 9020            00020 20959                       LH    R2,RPNTRYLN         R2 - NEXT ENTRY OFFSET
 002980 1A21                       20960                       AR    R2,R1
 002982 4830 9024            00024 20961                       LH    R3,RPXEND           R3 - LAST ENTRY ON PAGE
 002986 1A39                       20962                       AR    R3,PAR
 002988 4840 9028            00028 20963                       LH    R4,RPXLAST          R4 - LAST VALID ENTRY LIMIT
 00298C 1A49                       20964                       AR    R4,PAR
                                   20965              *
                                   20966              * THE FOLLOWING CHECKS INSURE
                                   20967              *   1. THAT THE QUICK INDEX POINTER (R3 ON ENTRY) IS GOOD
                                   20968              *   2. THAT THE RECORD BELONGS ON THIS PAGE
 00298E 1913/47A0 733A             20969                       IF    (R1,GE,R3),USEXPUT
 002994 D507 8028 1000_00000 00000 20987                       IF    ((PTLKEY,LT,@R1),OR,(PTLKEY,GE,@R4)),USEXPUT
 0029A8 D507 8028 2000_00000 00000 21023                       IF    ((PTLKEY,GT,@R2),AND,(R2,LT,R3)),USEXPUT
                                   21057
                                   21058                       COMMENT                   CHECK FOR ROOM, ON THIS PAGE
 0029B8 5850 8038            00010 21059                       L     R5,PTLLEN
 0029BC 4155 0098            00098 21060                       LA    R5,MXNTRYLN+16(R5)
 0029C0 4840 902C            0002C 21061                       LH    R4,RPDEND
 0029C4 4B40 9024            00024 21062                       SH    R4,RPXEND
 0029C8 1954/4720 733A             21063                       IF    (R5,GT,R4),USEXPUT
                                   21081              *
                                   21082              *
                                   21083              * THE FOLLOWING ROUTINES HANDLE DIFFERENT CASES:
                                   21084              *   1. INSERT AT END
                                   21085              *   2. INSERT IN MIDDLE
                                   21086              *   3. REPLACE CURRENT RECORD
                                   21087              *   4. REPLACE NEXT RECORD
                                   21088              * HEY BUD !! MUCH IN LINE CODE FOLLOWS.      STRAIGHT ARROWS!
                                   21089              *
-                                  21091                       ¿þþþþþþþþþþþþþþþþþþþþþþþþþþþþþþþÜ
                                   21092                       Ÿ  INSERT AT END OF INDEX LIST  Ÿ
                                   21093                       ¾þþþþþþþþþþþþþþþþþþþþþþþþþþþþþþþ»
                                   21094                       COMMENT                   INSERT ENTRY AT END
 0029CE D507 8028 1000_00000 00000 21095                       IF    ((PTLKEY,GT,@R1),AND,(R2,EQ,R3)),BEGIN
 0029DE 95D9 8030/4780_00008       21126  1                      IF    (PTLFLAG,EQ,'R'),BADREP
                                   21146  1                      COMMENT                   MOVE DATA
1RECS     (RECS2101) (12:53) (15MAR04) SUPER OPTIMIZED ACTIVE LOCATE/PUT                                                    Page  114
0Current Usings:  (RGROUP,R6) (*,R7) (PTLWA-(4+36),R8) (RPAGE,R9) (CP,R11) (CV,R12)
0Loc    Object Code    Addr1 Addr2  Stmt Lv Lineno    Source Statement           (Hibal 5, Asmedit 3.3)  HLASM R4.0  2004/03/15 12.53
+___    ______ ____    _____ _____  ____ __ ______    ______ _________
00029E6 5850 8038            00010 21147  1                      L     R5,PTLLEN
 0029EA 4155 000F            0000F 21148  1                      LA    R5,15(R5)
 0029EE 8850 0004            00004 21149  1                      SRL   R5,4
 0029F2 8950 0004            00004 21150  1                      SLL   R5,4
 0029F6 4840 902C            0002C 21151  1                      LH    R4,RPDEND
 0029FA 1B45                       21152  1                      SR    R4,R5
 0029FC 4040 902C            0002C 21153  1                      STH   R4,RPDEND           (SAVE NEW DATA POINTER TOO)
 002A00 1A49                       21154  1                      AR    R4,PAR
 002A02 5800 803C            00014 21155  1                      L     R0,PTLLOC
 002A06 5810 8038            00010 21156  1                      L     R1,PTLLEN
 002A0A 0E40                       21157  1                      MVCL  R4,R0
                                   21158  1                      COMMENT                   SET UP INDEX
 002A0C D207 3000 8028 00000 00000 21159  1                      MVC   NDXKEY(L'PTLKEY,R3),PTLKEY
 002A12 5850 8038            00010 21160  1                      L     R5,PTLLEN
 002A16 4053 000A            0000A 21161  1                      STH   R5,TEXTLN(R3)
 002A1A 4850 902C            0002C 21162  1                      LH    R5,RPDEND
 002A1E 4053 0008            00008 21163  1                      STH   R5,TEXTPTR(R3)
                                   21164  1                      COMMENT                   RESET VARIOUS POINTERS
 002A22 4840 9024            00024 21165  1                      LH    R4,RPXEND
 002A26 4A40 9020            00020 21166  1                      AH    R4,RPNTRYLN
 002A2A 4040 9024            00024 21167  1                      STH   R4,RPXEND           SAVE END OF INDEXES
 002A2E 1843                       21168  1                      LR    R4,R3
 002A30 1B49                       21169  1                      SR    R4,PAR
 002A32 4040 601A            0001A 21170  1                      STH   R4,RECPOFF          SAVE QUICK PUT INFORMATION
 002A36 5840 9010            00010 21171  1                      L     R4,RPNUMB
 002A3A 5040 6014            00014 21172  1                      ST    R4,RECPPG
 002A3E 4140 9030            00030 21173  1                      LA    R4,RPINFO           UPDATE BSINFO END POINTER
 USING  BSINFO,R4                  21174  1                      USING BSINFO,R4
 002A42 5810 4010            00010 21183  1                      L     R1,BSEND
 002A46 5A10 4004            00004 21184  1                      A     R1,BSELEN
 002A4A 5010 4010            00010 21185  1                      ST    R1,BSEND
 DROP   BSINFO,R4                  21186  1                      DROP  R4
 002A4E 58E0 73AE/0DEE       02CC8 21193  1                      PMARK PAR
 002A54 5800 73B2            02CCC 21198  1                      L     R0,=F'-1'           SET RETURNS
 002A58 1BFF                       21199  1                      CLEAR R15
 002A5A                            21203                       END
                                   21207                       ¿þþþþþþþþþþþþþþþþþþþþþþþþþþþþþþþþþþÜ
                                   21208                       Ÿ  INSERT AT MIDDLE OF INDEX LIST  Ÿ
                                   21209                       ¾þþþþþþþþþþþþþþþþþþþþþþþþþþþþþþþþþþ»
                                   21210                       COMMENT                   IF INSERT ENTRY AT MIDDLE
 002A5A 7144/7144/47F0_02A5A 029D6 21211                       ELSEIF ((PTLKEY,GT,@R1),AND,(PTLKEY,LT,@R2)),BEGIN
 002A72 95D9 8030/4780_00008       21255  1                      IF    (PTLFLAG,EQ,'R'),BADREP
 002A7A 5AD0 73B6            02CD0 21275  1                      A     R13,=A(L'RPAGE)     XPUSH TEMP AREA
 002A7E 4140 8044            0001C 21276  1                      LA    R4,PTLTEMP          OPEN PLACE IN INDEX LIST @R2
 002A82 1853                       21277  1                      LR    R5,R3
 002A84 1B52                       21278  1                      SR    R5,R2
 002A86 18E2                       21279  1                      LR    R14,R2
 002A88 18F5                       21280  1                      LR    R15,R5
 002A8A 0E4E                       21281  1                      MVCL  R4,R14
 002A8C 4140 8044            0001C 21282  1                      LA    R4,PTLTEMP
 002A90 1853                       21283  1                      LR    R5,R3
 002A92 1B52                       21284  1                      SR    R5,R2
 002A94 18E2                       21285  1                      LR    R14,R2
 002A96 4AE0 9020            00020 21286  1                      AH    R14,RPNTRYLN
1RECS     (RECS2101) (12:53) (15MAR04) SUPER OPTIMIZED ACTIVE LOCATE/PUT                                                    Page  115
0Current Usings:  (RGROUP,R6) (*,R7) (PTLWA-(4+36),R8) (RPAGE,R9) (CP,R11) (CV,R12)
0Loc    Object Code    Addr1 Addr2  Stmt Lv Lineno    Source Statement           (Hibal 5, Asmedit 3.3)  HLASM R4.0  2004/03/15 12.53
+___    ______ ____    _____ _____  ____ __ ______    ______ _________
0002A9A 18F5                       21287  1                      LR    R15,R5
 002A9C 0EE4                       21288  1                      MVCL  R14,R4
 002A9E 5BD0 73B6            02CD0 21289  1                      S     R13,=A(L'RPAGE)     XPOP TEMP AREA
                                   21290  1                      COMMENT                   MOVE DATA
 002AA2 5850 8038            00010 21291  1                      L     R5,PTLLEN
 002AA6 4155 000F            0000F 21292  1                      LA    R5,15(R5)
 002AAA 8850 0004            00004 21293  1                      SRL   R5,4
 002AAE 8950 0004            00004 21294  1                      SLL   R5,4
 002AB2 4840 902C            0002C 21295  1                      LH    R4,RPDEND
 002AB6 1B45                       21296  1                      SR    R4,R5
 002AB8 4040 902C            0002C 21297  1                      STH   R4,RPDEND           (SAVE NEW DATA POINTER TOO)
 002ABC 1A49                       21298  1                      AR    R4,PAR
 002ABE 5800 803C            00014 21299  1                      L     R0,PTLLOC
 002AC2 5810 8038            00010 21300  1                      L     R1,PTLLEN
 002AC6 0E40                       21301  1                      MVCL  R4,R0
                                   21302  1                      COMMENT                   SET UP INDEX
 002AC8 D207 2000 8028 00000 00000 21303  1                      MVC   NDXKEY(L'PTLKEY,R2),PTLKEY
 002ACE 5850 8038            00010 21304  1                      L     R5,PTLLEN
 002AD2 4052 000A            0000A 21305  1                      STH   R5,TEXTLN(R2)
 002AD6 4850 902C            0002C 21306  1                      LH    R5,RPDEND
 002ADA 4052 0008            00008 21307  1                      STH   R5,TEXTPTR(R2)
                                   21308  1                      COMMENT                   RESET VARIOUS POINTERS
 002ADE 4840 9024            00024 21309  1                      LH    R4,RPXEND
 002AE2 4A40 9020            00020 21310  1                      AH    R4,RPNTRYLN
 002AE6 4040 9024            00024 21311  1                      STH   R4,RPXEND           SAVE END OF INDEXES
 002AEA 1842                       21312  1                      LR    R4,R2
 002AEC 1B49                       21313  1                      SR    R4,PAR
 002AEE 4040 601A            0001A 21314  1                      STH   R4,RECPOFF          SAVE QUICK PUT INFORMATION
 002AF2 5840 9010            00010 21315  1                      L     R4,RPNUMB
 002AF6 5040 6014            00014 21316  1                      ST    R4,RECPPG
 002AFA 4140 9030            00030 21317  1                      LA    R4,RPINFO           UPDATE BSINFO END POINTER
 USING  BSINFO,R4                  21318  1                      USING BSINFO,R4
 002AFE 5810 4010            00010 21327  1                      L     R1,BSEND
 002B02 5A10 4004            00004 21328  1                      A     R1,BSELEN
 002B06 5010 4010            00010 21329  1                      ST    R1,BSEND
 DROP   BSINFO,R4                  21330  1                      DROP  R4
 002B0A 58E0 73AE/0DEE       02CC8 21337  1                      PMARK PAR
 002B10 5800 73B2            02CCC 21342  1                      L     R0,=F'-1'           SET RETURNS
 002B14 1BFF                       21343  1                      CLEAR R15
 002B16                            21347                       END
                                   21351                       ¿þþþþþþþþþþþþþþþþþþþþþþþþþÜ
                                   21352                       Ÿ  REPLACE CURRENT ENTRY  Ÿ
                                   21353                       ¾þþþþþþþþþþþþþþþþþþþþþþþþþ»
                                   21354                       COMMENT                   IF REPLACE 1ST ENTRY
 002B16 7200/7200/47F0_02B16 02A66 21355                       ELSEIF (PTLKEY,EQ,@R1),BEGIN
 002B24 95C9 8030/4780_00008       21383  1                      IF    (PTLFLAG,EQ,'I'),BADINS
 002B2C 4801 000A            0000A 21403  1                      LH    R0,TEXTLN(R1)       R0 - REPLACED TEXT LENGTH
 002B30 4841 000A            0000A 21404  1                      LH    R4,TEXTLN(R1)       R4 - OLD RECORD AREA SIZE
 002B34 4144 000F            0000F 21405  1                      LA    R4,15(R4)
 002B38 8840 0004            00004 21406  1                      SRL   R4,4
 002B3C 8940 0004            00004 21407  1                      SLL   R4,4
 002B40 5850 8038            00010 21408  1                      L     R5,PTLLEN           R5 - NEW RECORD AREA SIZE
 002B44 4155 000F            0000F 21409  1                      LA    R5,15(R5)
 002B48 8850 0004            00004 21410  1                      SRL   R5,4
1RECS     (RECS2101) (12:53) (15MAR04) SUPER OPTIMIZED ACTIVE LOCATE/PUT                                                    Page  116
0Current Usings:  (RGROUP,R6) (*,R7) (PTLWA-(4+36),R8) (RPAGE,R9) (CP,R11) (CV,R12)
0Loc    Object Code    Addr1 Addr2  Stmt Lv Lineno    Source Statement           (Hibal 5, Asmedit 3.3)  HLASM R4.0  2004/03/15 12.53
+___    ______ ____    _____ _____  ____ __ ______    ______ _________
0002B4C 8950 0004            00004 21411  1                      SLL   R5,4
 002B50 1954/4730 7254             21412  1                      IF    (R5,LE,R4),BEGIN    NEW RECORD FITS, REPLACE CURRENT
 002B56 4841 0008            00008 21427  2                        LH    R4,TEXTPTR(R1)      MOVE DATA
 002B5A 1A49                       21428  2                        AR    R4,PAR
 002B5C 58E0 803C            00014 21429  2                        L     R14,PTLLOC
 002B60 58F0 8038            00010 21430  2                        L     R15,PTLLEN
 002B64 0E4E                       21431  2                        MVCL  R4,R14
 002B66 5840 8038            00010 21432  2                        L     R4,PTLLEN           SAVE NEW TEXT LENGTH IN INDEX
 002B6A 4041 000A            0000A 21433  2                        STH   R4,TEXTLN(R1)
 002B6E                            21434  1                      END
 002B6E 7258/47F0 727E 02B6E 02B54 21438  1                      ELSE  BEGIN               NEW RECORD DOES NOT FIT, ADD IT
 002B72 4840 902C            0002C 21449  2                        LH    R4,RPDEND           MOVE DATA
 002B76 1B45                       21450  2                        SR    R4,R5
 002B78 4040 902C            0002C 21451  2                        STH   R4,RPDEND           (SAVE NEW END OF DATA POINTER)
 002B7C 1A49                       21452  2                        AR    R4,PAR
 002B7E 58E0 803C            00014 21453  2                        L     R14,PTLLOC
 002B82 58F0 8038            00010 21454  2                        L     R15,PTLLEN
 002B86 0E4E                       21455  2                        MVCL  R4,R14
 002B88 5840 8038            00010 21456  2                        L     R4,PTLLEN           SAVE NEW INDEX POINTERS
 002B8C 4041 000A            0000A 21457  2                        STH   R4,TEXTLN(R1)       (LENGTH AND OFFSET)
 002B90 4840 902C            0002C 21458  2                        LH    R4,RPDEND
 002B94 4041 0008            00008 21459  2                        STH   R4,TEXTPTR(R1)
 002B98                            21460  1                      END
 002B98 1841                       21464  1                      LR    R4,R1               SET QUIQK PUT POINTERS
 002B9A 1B49                       21465  1                      SR    R4,PAR
 002B9C 4040 601A            0001A 21466  1                      STH   R4,RECPOFF
 002BA0 5840 9010            00010 21467  1                      L     R4,RPNUMB
 002BA4 5040 6014            00014 21468  1                      ST    R4,RECPPG
 002BA8 58E0 73AE/0DEE       02CC8 21469  1                      PMARK PAR                 MARK PAGE CHANGED
 002BAE 1BFF                       21474  1                      CLEAR R15                 SET RETURN
 002BB0                            21478                       END
                                   21482                       ¿þþþþþþþþþþþþþþþþþþþþþþÜ
                                   21483                       Ÿ  REPLACE NEXT ENTRY  Ÿ
                                   21484                       ¾þþþþþþþþþþþþþþþþþþþþþþ»
                                   21485                       COMMENT                   IF REPLACE 2ND ENTRY
 002BB0 729A/47F0 7330_02BB0 02B22 21486                       ELSEIF (PTLKEY,EQ,@R2),BEGIN
 002BBE 95C9 8030/4780_00008       21512  1                      IF    (PTLFLAG,EQ,'I'),BADINS
 002BC6 4802 000A            0000A 21532  1                      LH    R0,TEXTLN(R2)       R0 - REPLACED TEXT LENGTH
 002BCA 4842 000A            0000A 21533  1                      LH    R4,TEXTLN(R2)       R4 - OLD RECORD AREA SIZE
 002BCE 4144 000F            0000F 21534  1                      LA    R4,15(R4)
 002BD2 8840 0004            00004 21535  1                      SRL   R4,4
 002BD6 8940 0004            00004 21536  1                      SLL   R4,4
 002BDA 5850 8038            00010 21537  1                      L     R5,PTLLEN           R5 - NEW RECORD AREA SIZE
 002BDE 4155 000F            0000F 21538  1                      LA    R5,15(R5)
 002BE2 8850 0004            00004 21539  1                      SRL   R5,4
 002BE6 8950 0004            00004 21540  1                      SLL   R5,4
 002BEA 1954/4730 72EE             21541  1                      IF    (R5,LE,R4),BEGIN    NEW RECORD FITS, REPLACE CURRENT
 002BF0 4842 0008            00008 21556  2                        LH    R4,TEXTPTR(R2)      MOVE DATA
 002BF4 1A49                       21557  2                        AR    R4,PAR
 002BF6 58E0 803C            00014 21558  2                        L     R14,PTLLOC
 002BFA 58F0 8038            00010 21559  2                        L     R15,PTLLEN
 002BFE 0E4E                       21560  2                        MVCL  R4,R14
 002C00 5840 8038            00010 21561  2                        L     R4,PTLLEN           SAVE NEW TEXT LENGTH IN INDEX
 002C04 4042 000A            0000A 21562  2                        STH   R4,TEXTLN(R2)
1RECS     (RECS2101) (12:53) (15MAR04) SUPER OPTIMIZED ACTIVE LOCATE/PUT                                                    Page  117
0Current Usings:  (RGROUP,R6) (*,R7) (PTLWA-(4+36),R8) (RPAGE,R9) (CP,R11) (CV,R12)
0Loc    Object Code    Addr1 Addr2  Stmt Lv Lineno    Source Statement           (Hibal 5, Asmedit 3.3)  HLASM R4.0  2004/03/15 12.53
+___    ______ ____    _____ _____  ____ __ ______    ______ _________
0002C08                            21563  1                      END
 002C08 72F2/47F0 7318 02C08 02BEE 21567  1                      ELSE  BEGIN               NEW RECORD DOES NOT FIT, ADD IT
 002C0C 4840 902C            0002C 21578  2                        LH    R4,RPDEND           MOVE DATA
 002C10 1B45                       21579  2                        SR    R4,R5
 002C12 4040 902C            0002C 21580  2                        STH   R4,RPDEND           (SAVE NEW END OF DATA POINTER)
 002C16 1A49                       21581  2                        AR    R4,PAR
 002C18 58E0 803C            00014 21582  2                        L     R14,PTLLOC
 002C1C 58F0 8038            00010 21583  2                        L     R15,PTLLEN
 002C20 0E4E                       21584  2                        MVCL  R4,R14
 002C22 5840 8038            00010 21585  2                        L     R4,PTLLEN           SAVE NEW INDEX POINTERS
 002C26 4042 000A            0000A 21586  2                        STH   R4,TEXTLN(R2)       (LENGTH AND OFFSET)
 002C2A 4840 902C            0002C 21587  2                        LH    R4,RPDEND
 002C2E 4042 0008            00008 21588  2                        STH   R4,TEXTPTR(R2)
 002C32                            21589  1                      END
 002C32 1842                       21593  1                      LR    R4,R2               SET QUICK PUT POINTERS
 002C34 1B49                       21594  1                      SR    R4,PAR
 002C36 4040 601A            0001A 21595  1                      STH   R4,RECPOFF
 002C3A 5840 9010            00010 21596  1                      L     R4,RPNUMB
 002C3E 5040 6014            00014 21597  1                      ST    R4,RECPPG
 002C42 58E0 73AE/0DEE       02CC8 21598  1                      PMARK PAR                 MARK PAGE AS CHANGED
 002C48 1BFF                       21603  1                      CLEAR R15                 SET RETURN
 002C4A                            21607                       END
                                   21611
 002C4A 7334/47F0 7336 02C4A 02BBC 21612                       ELSE  BEGIN               ALL OTHER CASES, IMPOSIBLE
 002C4E 0000                       21623  1                      BOMB
 002C50                            21625                       END
                                   21629              *
                                   21630              *        ALL DONE,  EXIT BELOW
                                   21631              *
 002C50 47F0 738E            02CA8 21632                       B     XPTLDONE
                                   21633              *
                                   21634              *  EXITS
                                   21635              *
0                                  21637              *  OPTIMIZED XPUTLINE WILL NOT WORK,,, WE CALL STANDARD FORM OF
                                   21638              *  XPUT ROUTINE
 002C54                            21639              USEXPUT  LABEL ,                   DO LONG VERSION OF XPUT
                                   21641
                                   21642                       COMMENT                   CHECK INSERT/REPLACE ONLY LOGIC
 002C54 98F2 8034            0000C 21643                       LM    R15,R2,PTLREGS      ALSO, GET PREV RECORD LEN, IF ANY
 002C58 58E0 73BA/0DEE       02CD4 21644                       ACALL LLOCATE
 002C5E 4770 7352            02C6C 21648                       IF    Z,BEGIN             IF RECORD EXISTS,
 002C62 95C9 8030/4780_00008       21659  1                      IF    (PTLFLAG,EQ,'I'),BADINS
 002C6A 1840                       21679  1                      LR    R4,R0
 002C6C                            21680                       END
 002C6C 7356/47F0 7362 02C6C 02C60 21684                       ELSE  BEGIN               IF DOES NOT EXIST,
 002C70 95D9 8030/4780_00008       21695  1                      IF    (PTLFLAG,EQ,'R'),BADREP
 002C78 5840 73B2            02CCC 21715  1                      L     R4,=F'-1'
 002C7C                            21716                       END
                                   21720
                                   21721                       COMMENT                   DO LONG VERSION OF XPUT
 002C7C 98F2 8034            0000C 21722                       LM    R15,R2,PTLREGS
 002C80 58E0 73BE/0DEE       02CD8 21723                       ACALL XPUT
 002C86 12FF/47B0 7376             21727                       IF    (R15,NEG),BEGIN     UNSCRAMBLE AND RESET CC
1RECS     (RECS2101) (12:53) (15MAR04) SUPER OPTIMIZED ACTIVE LOCATE/PUT                                                    Page  118
0Current Usings:  (RGROUP,R6) (*,R7) (PTLWA-(4+36),R8) (RPAGE,R9) (CP,R11) (CV,R12)
0Loc    Object Code    Addr1 Addr2  Stmt Lv Lineno    Source Statement           (Hibal 5, Asmedit 3.3)  HLASM R4.0  2004/03/15 12.53
+___    ______ ____    _____ _____  ____ __ ______    ______ _________
0002C8C 41F0 0004            00004 21741  1                      LA    R15,4
 002C90                            21742                       END
 002C90 12FF/47D0 7380             21746                       IF    (R15,POS),BEGIN
 002C96 41F0 0008            00008 21760  1                      LA    R15,8
 002C9A                            21761                       END
 002C9A 1804                       21765                       LR    R0,R4               RETURN R0 - PREVIOUS RECORD LEN
 002C9C 47F0 738E            02CA8 21766                       B     XPTLDONE
                                   21767              *
                                   21768              *        IF INVALID INSERT OR REPLACE,,,
                                   21769              *        WHEN ADDING IN REPLACE OR INSERT ONLY MODE.
                                   21770              *
 002CA0                            21771              BADINS   LABEL ,
 002CA0                            21773              BADREP   LABEL
 002CA0 41F0 000C            0000C 21775                       LA    R15,12
 002CA4 47F0 738E            02CA8 21776                       B     XPTLDONE
0                                  21778              *
                                   21779              *        NORMAL EXIT
                                   21780              *
 002CA8                            21781              XPTLDONE LABEL ,                   NORMAL EXIT
 002CA8 5008 0004            00004 21783                       PRETURN R0
 002CAC 18D8/9808 D004_            21785                       PEND
 DROP   PTLWA-(4+36),R8
 DROP   *,R7
 DROP   RPAGE,R9                   21810                       DROP  PAR
 DROP   RGROUP,R6                  21817                       DROP  R6
1RECS     (RECS2101) (12:53) (15MAR04) SUPER OPTIMIZED ACTIVE LOCATE/PUT                                                    Page  119
0Current Usings:  (CP,R11) (CV,R12)
0Loc    Object Code    Addr1 Addr2  Stmt Lv Lineno    Source Statement           (Hibal 5, Asmedit 3.3)  HLASM R4.0  2004/03/15 12.53
+___    ______ ____    _____ _____  ____ __ ______    ______ _________
0                                  21825                       QLTORG
1RECS     (RECS2101) (12:53) (15MAR04) LOW-LEVEL NUMBER ROUTINES                                                            Page  120
0Current Usings:  (CP,R11) (CV,R12)
0Loc    Object Code    Addr1 Addr2  Stmt Lv Lineno    Source Statement           (Hibal 5, Asmedit 3.3)  HLASM R4.0  2004/03/15 12.53
+___    ______ ____    _____ _____  ____ __ ______    ______ _________
0                                  21847              ¿þþþþþþþþþþþþþþþþþþþþþþþþþþþþþþþþþþþþþþþþþþþþþþþþþþþþþþþþþþþþþþþþþþþþþÜ
                                   21848              Ÿ                                                                     Ÿ
                                   21849              Ÿ                                                                     Ÿ
                                   21850              Ÿ  NNUMBER - NUMBER BY ROUTINE                                        Ÿ
                                   21851              Ÿ                                                                     Ÿ
                                   21852              Ÿ  ON ENTRY:                                                          Ÿ
                                   21853              Ÿ     @R15 - RECORD GROUP INFO BLOCK                                  Ÿ
                                   21854              Ÿ       R0 - START OF RANGE                                           Ÿ
                                   21855              Ÿ       R1 - END OF RANGE                                             Ÿ
                                   21856              Ÿ       R2 - DELTA FACTOR FOR THIS NUMBER                             Ÿ
                                   21857              Ÿ       R3 - NEW STARTING LINENO, (-1 IF NONE)                        Ÿ
                                   21858              Ÿ                                                                     Ÿ
                                   21859              Ÿ  ON EXIT:                                                           Ÿ
                                   21860              Ÿ       R0 - LAST LINE NUMBER IN RENUMBERED RANGE, IF CC=ZERO         Ÿ
                                   21861              Ÿ      R15 - CC=ZERO, SUCCESS                                         Ÿ
                                   21862              Ÿ            RC=4  - BAD DELTA                                        Ÿ
                                   21863              Ÿ            RC=8  - VOID RANGE                                       Ÿ
                                   21864              Ÿ            RC=12 - BAD RANGE                                        Ÿ
                                   21865              Ÿ            RC=16 - ROUNDING ERROR (NUMBER TIMES)                    Ÿ
                                   21866              Ÿ                                                                     Ÿ
                                   21867              Ÿ                                                                     Ÿ
                                                      ¾þþþþþþþþþþþþþþþþþþþþþþþþþþþþþþþþþþþþþþþþþþþþþþþþþþþþþþþþþþþþþþþþþþþþþ»
0000000                00000 0001D 21868              NMWA     RECORD BEGIN
 000000                            21876  1           NMPREV     DS    F                   LINENO PRIOR TO NUMBER RANGE
 000004                            21877  1           NMFIRST    DS    F                   FIRST LINENO IN NUMBER RANGE
 000008                            21878  1           NMLAST     DS    F                   LAST LINENO IN NUMBER RANGE
 00000C                            21879  1           NMNEXT     DS    F                   NEXT LINENO AFTER NUMBER RANGE
 000010                            21880  1           NMSTART    DS    F                   STARTING LINENO (NEW)
 000014                            21881  1           NMDELTA    DS    F                   DELTA, RENUMBERING FACTOR
 000018                            21882  1           NMTEMP     DS    F                   CURRENT WORKING LINE NUMBER
 00001C 00                         21883  1           NMFLAGS    FLAG
 NMFLAGS.NMFROUND  80 ONES         21887  1                      FLAG  NMFROUND            GOT ROUNDING ERROR
 00001D                0001D 0001D 21892                       END
                                   21901              *
                                   21902              *
 002CE4 50E0 D000/9008_      00000 21903              NNUMBER  XPROC NMWA
 USING  *,R7
 USING  NMWA-(4+36),R8
 USING  RGROUP,R6                  21954                       USING RGROUP,R6
 002CFE 186F                       21963                       LR    R6,R15
 002D00 5000 802C            00004 21964                       ST    R0,NMFIRST
 002D04 5010 8030            00008 21965                       ST    R1,NMLAST
 002D08 5020 803C            00014 21966                       ST    R2,NMDELTA
 002D0C 5030 8038            00010 21967                       ST    R3,NMSTART
                                   21968
                                   21969                       COMMENT                   WE CAN ONLY RENUMBER LINE #'S
 002D10 D501 7942 6008_03640 00008 21970                       IF    (RECNLEN,NE,4),' BOMB '
                                   21995
 002D1C D203 8040 802C 00018 00004 21996                       MVC   NMTEMP,NMFIRST      FIND ACTUAL FIRST IN RANGE
 002D22 41F0 6000            00000 21997                       LA    R15,RGROUP
 002D26 4120 8040            00018 21998                       LA    R2,NMTEMP
 002D2A 58E0 78EA/0DEE       035E8 21999                       ACALL XLOCFRST
 002D30 4770 7204            02F02 22003                       BNZ   VOIDRNG
1RECS     (RECS2101) (12:53) (15MAR04) LOW-LEVEL NUMBER ROUTINES                                                            Page  121
0Current Usings:  (RGROUP,R6) (*,R7) (NMWA-(4+36),R8) (CP,R11) (CV,R12)
0Loc    Object Code    Addr1 Addr2  Stmt Lv Lineno    Source Statement           (Hibal 5, Asmedit 3.3)  HLASM R4.0  2004/03/15 12.53
+___    ______ ____    _____ _____  ____ __ ______    ______ _________
0002D34 D203 802C 8040 00004 00018 22004                       MVC   NMFIRST,NMTEMP
 002D3A 41F0 6000            00000 22005                       LA    R15,RGROUP          FIND ACTUAL PREVOIUS TO RANGE
 002D3E 4120 8040            00018 22006                       LA    R2,NMTEMP
 002D42 58E0 78EE/0DEE       035EC 22007                       ACALL XLOCPREV
 002D48 4780 7054            02D52 22011                       IF    NZ,BEGIN
 002D4C D203 8040 78F2 00018 035F0 22022  1                      MVC   NMTEMP,=F'-1'
 002D52                            22023                       END
 002D52 D203 8028 8040 00000 00018 22027                       MVC   NMPREV,NMTEMP
 002D58 D203 8040 8030 00018 00008 22028                       MVC   NMTEMP,NMLAST       FIND ACTUAL LAST IN RANGE
 002D5E 41F0 6000            00000 22029                       LA    R15,RGROUP
 002D62 4120 8040            00018 22030                       LA    R2,NMTEMP
 002D66 58E0 78F6/0DEE       035F4 22031                       ACALL XLOCLAST
 002D6C 4770 7204            02F02 22035                       BNZ   VOIDRNG
 002D70 D203 8030 8040 00008 00018 22036                       MVC   NMLAST,NMTEMP
 002D76 41F0 6000            00000 22037                       LA    R15,RGROUP          FIND ACTUAL NEXT AFTER RANGE
 002D7A 4120 8040            00018 22038                       LA    R2,NMTEMP
 002D7E 58E0 78FA/0DEE       035F8 22039                       ACALL XLOCNEXT
 002D84 4780 7090            02D8E 22043                       IF    NZ,BEGIN            IF NO NEXT, OR IF NEXT TOO BIG
 002D88 D203 8040 C160 00018 00160 22054  1                      MVC   NMTEMP,CVHILNO      SET TO HIGHEST LNO+1
 002D8E                            22055                       END
 002D8E D503 8040 C160_00018 00160 22059                       IF    (NMTEMP,LGT,CVHILNO),BEGIN
 002D98 D203 8040 C160 00018 00160 22077  1                      MVC   NMTEMP,CVHILNO
 002D9E                            22078                       END
 002D9E D203 8034 8040 0000C 00018 22082                       MVC   NMNEXT,NMTEMP
 002DA4 D503 78FE 8038_035FC 00010 22083                       IF    (NMSTART,EQ,-1),BEGIN   FIND ACTUAL STARTING RANGE
 002DAE D203 8038 802C 00010 00004 22101  1                      MVC   NMSTART,NMFIRST
 002DB4                            22102                       END
                                   22106
                                   22107                       COMMENT                   VALIDITY CHECK RANGE
 002DB4 D503 802C 8030_00004 00008 22108                       IF    (NMFIRST,GT,NMLAST),VOIDRNG
 002DBE D503 78FE 8028_035FC 00000 22129                       IF    (NMPREV,NE,-1),BEGIN
 002DC8 D503 8028 802C_00000 00004 22147  1                      IF    (NMPREV,GE,NMFIRST),BADRNG
 002DD2 D503 8028 8038_00000 00010 22168  1                      IF    ((NMPREV,GE,NMSTART),AND,(NMSTART,NE,-1)),BADRNG
 002DE6                            22206                       END
 002DE6 D503 78FE 8034_035FC 0000C 22210                       IF    (NMNEXT,NE,-1),BEGIN  (NMNEXT NEVER SET -1) 4/86
 002DF0 D503 8034 8030_0000C 00008 22228  1                      IF    (NMNEXT,LE,NMLAST),BADRNG
 002DFA D503 8034 8038_0000C 00010 22249  1                      IF    ((NMNEXT,LE,NMSTART),AND,(NMSTART,NE,-1)),BADRNG
 002E0E                            22287                       END
 USING  RPAGE,R9                   22291                       USING RPAGE,PAR
 002E0E D501 7942 901E_03640 0001E 22300                       IF    (RPNAMELN,NE,4),' BOMB '     ALSO CHECK LINENO LEN
 DROP   RPAGE,R9                   22325                       DROP  PAR
 002E1A D503 78E2 803C_035E0 00014 22332                       IF    (NMDELTA,EQ,0),BADDELTA      ALSO CHECK DELTA
                                   22353
                                   22354                       COMMENT                   TRIAL RUN THROUGH NUMBER
 002E24 D203 8040 802C 00018 00004 22355                       MVC   NMTEMP,NMFIRST
 002E2A 41F0 6000            00000 22356                       LA    R15,RGROUP
 002E2E 4120 8040            00018 22357                       LA    R2,NMTEMP
 002E32 58E0 78EA/0DEE       035E8 22358                       ACALL XLOCFRST
 002E38 5840 8038            00010 22362                       L     R4,NMSTART
 002E3C D503 8040 8030_00018 00008 22363                       WHILE ((NMTEMP,LE,NMLAST),AND,(R15,Z)),BEGIN
                                   22396  1                      COMMENT                   LOOP THRU RANGE RENUMBERING
                                   22397  1                      COMMENT                   R4 IS NEW LINE NUMBER
 002E4C 5A40 803C            00014 22398  1                      A     R4,NMDELTA          R4 IS NOW NEXT NEW LINE NUMBER
 002E50 41F0 6000            00000 22399  1                      LA    R15,RGROUP
1RECS     (RECS2101) (12:53) (15MAR04) LOW-LEVEL NUMBER ROUTINES                                                            Page  122
0Current Usings:  (RGROUP,R6) (*,R7) (NMWA-(4+36),R8) (CP,R11) (CV,R12)
0Loc    Object Code    Addr1 Addr2  Stmt Lv Lineno    Source Statement           (Hibal 5, Asmedit 3.3)  HLASM R4.0  2004/03/15 12.53
+___    ______ ____    _____ _____  ____ __ ______    ______ _________
0002E54 4120 8040            00018 22400  1                      LA    R2,NMTEMP
 002E58 58E0 78FA/0DEE       035F8 22401  1                      ACALL XLOCNEXT            GET NEXT LINE
 002E5E 47F0 713E            02E3C 22405                       END
 002E62 5B40 803C            00014 22410                       S     R4,NMDELTA          R4 - LAST LINE RENUMBERED (NEW)
                                   22411                       COMMENT                   CHECK RANGE
 002E66 5540 8034/4750_      0000C 22412                       IF    ((R4,LGE,NMNEXT),AND,(NMNEXT,NE,-1)),BADDELTA
                                   22449
                                   22450                       COMMENT                   NOW NUMBER FOR REAL !
 002E78 D203 8040 802C 00018 00004 22451                       MVC   NMTEMP,NMFIRST
 002E7E 41F0 6000            00000 22452                       LA    R15,RGROUP
 002E82 4120 8040            00018 22453                       LA    R2,NMTEMP
 002E86 58E0 78EA/0DEE       035E8 22454                       ACALL XLOCFRST
 002E8C 5840 8038            00010 22458                       L     R4,NMSTART
 002E90 D503 8040 8030_00018 00008 22459                       WHILE ((NMTEMP,LE,NMLAST),AND,(R15,Z)),BEGIN
                                   22492  1                      COMMENT                   LOOP THRU RANGE RENUMBERING
                                   22493  1                      COMMENT                   R4 IS NEW LINE NUMBER
                                   22494  1
 002EA0 5800 8040            00018 22495  1                      L     R0,NMTEMP           R0 = old line-number
 002EA4 1814                       22496  1                      LR    R1,R4               R1 = new line-number
 002EA6 58E0 7902/0DEE       03600 22497  1                      ACALL NFIXNUM             Line-number has changed
                                   22501  1
 002EAC 5040 8040            00018 22502  1                      ST    R4,NMTEMP
 002EB0 4810 6018            00018 22503  1                      LH    R1,RECQOFF          GET LOCATION OF LINE INDEX
 002EB4 1A19                       22504  1                      AR    R1,PAR
 002EB6 5041 0004            00004 22505  1                      ST    R4,NDXNAME(R1)      SAVE NEW LINE NUMBER
 002EBA 58E0 7906/0DEE       03604 22506  1                      PMARK PAR
 002EC0 5A40 803C            00014 22511  1                      A     R4,NMDELTA          R4 IS NOW NEXT NEW LINE NUMBER
 002EC4 41F0 6000            00000 22512  1                      LA    R15,RGROUP
 002EC8 4120 8040            00018 22513  1                      LA    R2,NMTEMP
 002ECC 58E0 790A/0DEE       03608 22514  1                      ACALL NLOCNEXT            LOCATE NEXT LINE
 002ED2 47F0 7192            02E90 22518                       END
 002ED6 5B40 803C            00014 22523                       S     R4,NMDELTA          R4 - LAST LINE RENUMBERED (NEW)
                                   22524
                                   22525                       COMMENT                   FIX UP BLOCK POINTERS
 002EDA 41F0 6000            00000 22526                       LA    R15,RGROUP
 002EDE 5800 802C            00004 22527                       L     R0,NMFIRST
 002EE2 5810 8030            00008 22528                       L     R1,NMLAST
 002EE6 58E0 790E/0DEE       0360C 22529                       ACALL NFIXLINK
                                   22533
 002EEC 58E0 7912/0DEE       03610 22534                       ACALL NFIXNCLR            We are finished with the renumber
                                   22538
 002EF2 1804                       22539                       LR    R0,R4               R0 - LAST LINE, R15 - CC
 002EF4 1BFF                       22540                       CLEAR R15
                                   22544
 002EF6 47F0 7214            02F12 22545                       B     NUMBDONE
                                   22546              *
                                   22547              *  EXITS
                                   22548              *
 002EFA                            22549              BADDELTA LABEL ,
 002EFA 41F0 0004            00004 22551                       LA    R15,4
 002EFE 47F0 7214            02F12 22552                       B     NUMBDONE
                                   22553
 002F02                            22554              VOIDRNG  LABEL ,
 002F02 41F0 0008            00008 22556                       LA    R15,8
1RECS     (RECS2101) (12:53) (15MAR04) LOW-LEVEL NUMBER ROUTINES                                                            Page  123
0Current Usings:  (RGROUP,R6) (*,R7) (NMWA-(4+36),R8) (CP,R11) (CV,R12)
0Loc    Object Code    Addr1 Addr2  Stmt Lv Lineno    Source Statement           (Hibal 5, Asmedit 3.3)  HLASM R4.0  2004/03/15 12.53
+___    ______ ____    _____ _____  ____ __ ______    ______ _________
0002F06 47F0 7214            02F12 22557                       B     NUMBDONE
                                   22558
 002F0A                            22559              BADRNG   LABEL
 002F0A 41F0 000C            0000C 22561                       LA    R15,12
 002F0E 47F0 7214            02F12 22562                       B     NUMBDONE
                                   22563
 002F12                            22564              NUMBDONE LABEL ,                   NORMAL EXIT
 002F12 5008 0004            00004 22566                       PRETURN R0
 002F16 18D8/9808 D004_            22568                       PEND
 DROP   NMWA-(4+36),R8
 DROP   *,R7
 DROP   RGROUP,R6                  22593                       DROP  R6
1RECS     (RECS2101) (12:53) (15MAR04) LOW-LEVEL NUMBER ROUTINES                                                            Page  124
0Current Usings:  (CP,R11) (CV,R12)
0Loc    Object Code    Addr1 Addr2  Stmt Lv Lineno    Source Statement           (Hibal 5, Asmedit 3.3)  HLASM R4.0  2004/03/15 12.53
+___    ______ ____    _____ _____  ____ __ ______    ______ _________
0                                  22601              ¿þþþþþþþþþþþþþþþþþþþþþþþþþþþþþþþþþþþþþþþþþþþþþþþþþþþþþþþþþþþþþþþþþþþþþÜ
                                   22602              Ÿ                                                                     Ÿ
                                   22603              Ÿ                                                                     Ÿ
                                   22604              Ÿ  NNUMFACT -  NUMBER TIMES/PLUS ROUTINE                              Ÿ
                                   22605              Ÿ                                                                     Ÿ
                                   22606              Ÿ  NEW LINENO = (OLD LINENO*MULT FACTOR)+ADDITION FACTOR              Ÿ
                                   22607              Ÿ                                                                     Ÿ
                                   22608              Ÿ  ON ENTRY:                                                          Ÿ
                                   22609              Ÿ     @R15 - RECORD GROUP INFO BLOCK                                  Ÿ
                                   22610              Ÿ       R0 - START OF RANGE                                           Ÿ
                                   22611              Ÿ       R1 - END OF RANGE                                             Ÿ
                                   22612              Ÿ       R2 - SIGNED ADDITION FACTOR  (0 IF NONE)                      Ÿ
                                   22613              Ÿ       R3 - POSITIVE MULTIPLICATION FACTOR (0 IF NONE)               Ÿ
                                   22614              Ÿ                                                                     Ÿ
                                   22615              Ÿ  ON EXIT:                                                           Ÿ
                                   22616              Ÿ       R0 - LAST LINE NUMBER IN RENUMBERED RANGE, IF CC=ZERO         Ÿ
                                   22617              Ÿ      R15 - CC=ZERO, SUCCESS                                         Ÿ
                                   22618              Ÿ            RC=4  - BAD FACTOR                                       Ÿ
                                   22619              Ÿ            RC=8  - VOID RANGE                                       Ÿ
                                   22620              Ÿ            RC=12 - BAD RANGE                                        Ÿ
                                   22621              Ÿ            RC=16 - ROUNDING ERROR (NUMBER TIMES)                    Ÿ
                                   22622              Ÿ                                                                     Ÿ
                                   22623              Ÿ                                                                     Ÿ
                                                      ¾þþþþþþþþþþþþþþþþþþþþþþþþþþþþþþþþþþþþþþþþþþþþþþþþþþþþþþþþþþþþþþþþþþþþþ»
0000000                00000 00029 22624              NFWA     RECORD BEGIN
 000000                            22632  1           NFPREV     DS    F                   LINENO PRIOR TO NUMBER RANGE
 000004                            22633  1           NFFIRST    DS    F                   FIRST LINENO IN NUMBER RANGE
 000008                            22634  1           NFLAST     DS    F                   LAST LINENO IN NUMBER RANGE
 00000C                            22635  1           NFNEXT     DS    F                   NEXT LINENO AFTER NUMBER RANGE
 000010                            22636  1           NFADD      DS    F                   ADDITION FACTOR
 000014                            22637  1           NFMULT     DS    F                   MULTPLICATION FACTOR
 000018                            22638  1           NFSTART    DS    F                   FIRST NUMBERED LINENO (NEW)
 00001C                            22639  1           NFEND      DS    F                   LAST NUMBERED LINENO (NEW)
 000020                            22640  1           NFROUND    DS    F                   LAST NEW LNO, USED FOR ROUNDING
 000024                            22641  1           NFTEMP     DS    F                   CURRENT WORKING LINE NUMBER
 000028 00                         22642  1           NFFLAGS    FLAG
 NFFLAGS.NFFROUND  80 ONES         22646  1                      FLAG  NFFROUND            GOT ROUNDING ERROR
 000029                00029 00029 22651                       END
                                   22660              *
                                   22661              *
 002F24 50E0 D000/9008_      00000 22662              NNUMFACT XPROC NFWA
 USING  *,R7
 USING  NFWA-(4+36),R8
 USING  RGROUP,R6                  22713                       USING RGROUP,R6
 002F3E 186F                       22722                       LR    R6,R15
 002F40 5000 802C            00004 22723                       ST    R0,NFFIRST
 002F44 5010 8030            00008 22724                       ST    R1,NFLAST
 002F48 5020 8038            00010 22725                       ST    R2,NFADD
 002F4C 5030 803C            00014 22726                       ST    R3,NFMULT
 002F50 58E0 C160            00160 22727                       L     R14,CVHILNO         Highest possible lineno+1
 002F54 192E/4720 72FE             22728                       IF    (R2,GT,R14),BADFACTR
 002F5A 193E/4720 72FE             22746                       IF    (R3,GT,R14),BADFACTR
 002F60 11EE                       22764                       LNR   R14,R14             Max possible neg incr+1
1RECS     (RECS2101) (12:53) (15MAR04) LOW-LEVEL NUMBER ROUTINES                                                            Page  125
0Current Usings:  (RGROUP,R6) (*,R7) (NFWA-(4+36),R8) (CP,R11) (CV,R12)
0Loc    Object Code    Addr1 Addr2  Stmt Lv Lineno    Source Statement           (Hibal 5, Asmedit 3.3)  HLASM R4.0  2004/03/15 12.53
+___    ______ ____    _____ _____  ____ __ ______    ______ _________
0002F62 192E/4740 72FE             22765                       IF    (R2,LT,R14),BADFACTR
 002F68 1233/4740 72FE             22783                       IF    (R3,NEG),BADFACTR
 002F6E 9200 8050      00028       22800                       CLEAR NFFLAGS
                                   22807
                                   22808                       COMMENT                   WE CAN ONLY RENUMBER LINE #'S
 002F72 D501 7702 6008_03640 00008 22809                       IF    (RECNLEN,NE,4),' BOMB '
                                   22834
 002F7E D203 804C 802C 00024 00004 22835                       MVC   NFTEMP,NFFIRST      FIND ACTUAL FIRST IN RANGE
 002F84 41F0 6000            00000 22836                       LA    R15,RGROUP
 002F88 4120 804C            00024 22837                       LA    R2,NFTEMP
 002F8C 58E0 76AA/0DEE       035E8 22838                       ACALL XLOCFRST
 002F92 4770 7306            03244 22842                       BNZ   VOIDRNGE
 002F96 D203 802C 804C 00004 00024 22843                       MVC   NFFIRST,NFTEMP
 002F9C 41F0 6000            00000 22844                       LA    R15,RGROUP          FIND ACTUAL PREVOIUS TO RANGE
 002FA0 4120 804C            00024 22845                       LA    R2,NFTEMP
 002FA4 58E0 76AE/0DEE       035EC 22846                       ACALL XLOCPREV
 002FAA 4780 7076            02FB4 22850                       IF    NZ,BEGIN
 002FAE D203 804C 76B2 00024 035F0 22861  1                      MVC   NFTEMP,=F'-1'
 002FB4                            22862                       END
 002FB4 D203 8028 804C 00000 00024 22866                       MVC   NFPREV,NFTEMP
 002FBA D203 804C 8030 00024 00008 22867                       MVC   NFTEMP,NFLAST       FIND ACTUAL LAST IN RANGE
 002FC0 41F0 6000            00000 22868                       LA    R15,RGROUP
 002FC4 4120 804C            00024 22869                       LA    R2,NFTEMP
 002FC8 58E0 76B6/0DEE       035F4 22870                       ACALL XLOCLAST
 002FCE 4770 7306            03244 22874                       BNZ   VOIDRNGE
 002FD2 D203 8030 804C 00008 00024 22875                       MVC   NFLAST,NFTEMP
 002FD8 41F0 6000            00000 22876                       LA    R15,RGROUP          FIND ACTUAL NEXT AFTER RANGE
 002FDC 4120 804C            00024 22877                       LA    R2,NFTEMP
 002FE0 58E0 76BA/0DEE       035F8 22878                       ACALL XLOCNEXT
 002FE6 4780 70B2            02FF0 22882                       IF    NZ,BEGIN            IF NO NEXT, OR IF NEXT TOO BIG
 002FEA D203 804C C160 00024 00160 22893  1                      MVC   NFTEMP,CVHILNO      SET TO HIGHEST LNO+1
 002FF0                            22894                       END
 002FF0 D503 804C C160_00024 00160 22898                       IF    (NFTEMP,LGT,CVHILNO),BEGIN
 002FFA D203 804C C160 00024 00160 22916  1                      MVC   NFTEMP,CVHILNO
 003000                            22917                       END
 003000 D203 8034 804C 0000C 00024 22921                       MVC   NFNEXT,NFTEMP
                                   22922
 003006 5810 802C            00004 22923                       L     R1,NFFIRST              FIND ACTUAL NEW FIRST LINE
 00300A 1211/47D0 730E             22924                       IF    (R1,NP),BADRNGE
 003010 D503 76A2 803C_035E0 00014 22941                       IF    (NFMULT,NE,0),BEGIN
 00301A 5C00 803C            00014 22959  1                      M     R0,NFMULT
 00301E 5900 76D6/4720_      03614 22960  1                      IF    (R0,GT,256),BADFACTR
 003026 5D00 76DA            03618 22980  1                      D     R0,=F'1000'
 00302A 1211/4740 72FE             22981  1                      IF    (R1,NEG),BADFACTR
 003030 5910 C15C/4720_      0015C 22998  1                      IF    (R1,GT,CVMAXLNO),BADFACTR
 003038                            23018                       END
 003038 5A10 8038            00010 23022                       A     R1,NFADD
 00303C 1211/4740 72FE             23023                       IF    (R1,NEG),BADFACTR
 003042 5910 C15C/4720_      0015C 23040                       IF    (R1,GT,CVMAXLNO),BADFACTR
 00304A 5010 8040            00018 23060                       ST    R1,NFSTART
 00304E 5810 8030            00008 23061                       L     R1,NFLAST               FIND ACTUAL NEW LAST LINE
 003052 1211/4740 730E             23062                       IF    (R1,NEG),BADRNGE
 003058 D503 76A2 803C_035E0 00014 23079                       IF    (NFMULT,NE,0),BEGIN
 003062 5C00 803C            00014 23097  1                      M     R0,NFMULT
1RECS     (RECS2101) (12:53) (15MAR04) LOW-LEVEL NUMBER ROUTINES                                                            Page  126
0Current Usings:  (RGROUP,R6) (*,R7) (NFWA-(4+36),R8) (CP,R11) (CV,R12)
0Loc    Object Code    Addr1 Addr2  Stmt Lv Lineno    Source Statement           (Hibal 5, Asmedit 3.3)  HLASM R4.0  2004/03/15 12.53
+___    ______ ____    _____ _____  ____ __ ______    ______ _________
0003066 5900 76D6/4720_      03614 23098  1                      IF    (R0,GT,256),BADFACTR
 00306E 5D00 76DA            03618 23118  1                      D     R0,=F'1000'
 003072 1211/4740 72FE             23119  1                      IF    (R1,NEG),BADFACTR
 003078 5910 C15C/4720_      0015C 23136  1                      IF    (R1,GT,CVMAXLNO),BADFACTR
 003080                            23156                       END
 003080 5A10 8038            00010 23160                       A     R1,NFADD
 003084 1211/4740 72FE             23161                       IF    (R1,NEG),BADFACTR
 00308A 5910 C15C/4720_      0015C 23178                       IF    (R1,GT,CVMAXLNO),BADFACTR
 003092 5010 8044            0001C 23198                       ST    R1,NFEND
                                   23199                       COMMENT                   IF NEW FIRST,LAST VALID LINENOS
                                   23200                       COMMENT                   ALL IN BETWEEN WILL BE TOO !
                                   23201
                                   23202                       COMMENT                   VALIDITY CHECK RANGE
 003096 D503 802C 8030_00004 00008 23203                       IF    (NFFIRST,GT,NFLAST),VOIDRNGE
 0030A0 D503 76BE 8028_035FC 00000 23224                       IF    (NFPREV,NE,-1),BEGIN
 0030AA D503 8028 802C_00000 00004 23242  1                      IF    (NFPREV,GE,NFFIRST),' BOMB '
 0030B6 D503 8028 8040_00000 00018 23267  1                      IF    (NFPREV,GE,NFSTART),BADRNGE
 0030C0                            23288                       END
 0030C0 D503 76BE 8034_035FC 0000C 23292                       IF    (NFNEXT,NE,-1),BEGIN  (NFNEXT NEVER SET TO -1) 4/86
 0030CA D503 8034 8030_0000C 00008 23310  1                      IF    (NFNEXT,LE,NFLAST),' BOMB '
 0030D6 D503 8034 8044_0000C 0001C 23335  1                      IF    (NFNEXT,LE,NFEND),BADRNGE
 0030E0                            23356                       END
 0030E0 D503 8040 8044_00018 0001C 23360                       IF    (NFSTART,GT,NFEND),' BOMB '
 USING  RPAGE,R9                   23385                       USING RPAGE,PAR
 0030EC D501 7702 901E_03640 0001E 23394                       IF    (RPNAMELN,NE,4),' BOMB '     ALSO CHECK LINENO LEN
 DROP   RPAGE,R9                   23419                       DROP  PAR
                                   23426              *$ CAN REMOVE 3 'BOMB' INSTRUCTIONS, ON 3/3/86,, H.B. JHM
                                   23427              *$ THEY SHOULD BE LOGICALLY IMPOSSIBLE. (DUHH)
                                   23428              *
                                   23429                       COMMENT                   TRIAL RUN THROUGH NUMBER
 0030F8 D203 804C 802C 00024 00004 23430                       MVC   NFTEMP,NFFIRST
 0030FE D203 8048 8028 00020 00000 23431                       MVC   NFROUND,NFPREV
 003104 41F0 6000            00000 23432                       LA    R15,RGROUP
 003108 4120 804C            00024 23433                       LA    R2,NFTEMP
 00310C 58E0 76AA/0DEE       035E8 23434                       ACALL XLOCFRST
 003112 D503 804C 8030_00024 00008 23438                       WHILE ((NFTEMP,LE,NFLAST),AND,(R15,Z)),BEGIN
                                   23471  1                      COMMENT                   LOOP THRU RANGE RENUMBERING
                                   23472  1                      COMMENT                   CALCULATE NEW LINE NO IN R5
 003122 5850 804C            00024 23473  1                      L     R5,NFTEMP
 003126 D503 76A2 803C_035E0 00014 23474  1                      IF    (NFMULT,NE,0),BEGIN
 003130 5C40 803C            00014 23492  2                        M     R4,NFMULT
 003134 5D40 76DA            03618 23493  2                        D     R4,=F'1000'
 003138                            23494  1                      END
 003138 5A50 8038            00010 23498  1                      A     R5,NFADD
 00313C 5950 8048/4730_      00020 23499  1                      IF    (R5,LE,NFROUND),BEGIN
 003144 5850 8048            00020 23516  2                        L     R5,NFROUND
 003148 4155 0001            00001 23517  2                        LA    R5,1(R5)
 00314C 9680 8050      00028       23518  2                        SET   NFFROUND
 003150                            23524  1                      END
 003150 5050 8048            00020 23528  1                      ST    R5,NFROUND
 003154 41F0 6000            00000 23529  1                      LA    R15,RGROUP
 003158 4120 804C            00024 23530  1                      LA    R2,NFTEMP
 00315C 58E0 76BA/0DEE       035F8 23531  1                      ACALL XLOCNEXT            GET NEXT LINE
 003162 47F0 71D4            03112 23535                       END
1RECS     (RECS2101) (12:53) (15MAR04) LOW-LEVEL NUMBER ROUTINES                                                            Page  127
0Current Usings:  (RGROUP,R6) (*,R7) (NFWA-(4+36),R8) (CP,R11) (CV,R12)
0Loc    Object Code    Addr1 Addr2  Stmt Lv Lineno    Source Statement           (Hibal 5, Asmedit 3.3)  HLASM R4.0  2004/03/15 12.53
+___    ______ ____    _____ _____  ____ __ ______    ______ _________
0                                  23540                       COMMENT                   CHECK RANGE
 003166 1255/4740 72FE             23541                       IF    (R5,NEG),BADFACTR
 00316C 5950 C15C/4720_      0015C 23558                       IF    (R5,GT,CVMAXLNO),BADFACTR
 003174 5550 8034/4750_      0000C 23578                       IF    ((R5,LGE,NFNEXT),AND,(NFNEXT,NE,-1)),BADFACTR
                                   23615
                                   23616                       COMMENT                   NOW NUMBER FOR REAL !
 003186 D203 804C 802C 00024 00004 23617                       MVC   NFTEMP,NFFIRST
 00318C D203 8048 8028 00020 00000 23618                       MVC   NFROUND,NFPREV
 003192 41F0 6000            00000 23619                       LA    R15,RGROUP
 003196 4120 804C            00024 23620                       LA    R2,NFTEMP
 00319A 58E0 76AA/0DEE       035E8 23621                       ACALL XLOCFRST
 0031A0 D503 804C 8030_00024 00008 23625                       WHILE ((NFTEMP,LE,NFLAST),AND,(R15,Z)),BEGIN
                                   23658  1                      COMMENT                   LOOP THRU RANGE RENUMBERING
                                   23659  1                      COMMENT                   CALCULATE NEW LINENO IN R5
 0031B0 5850 804C            00024 23660  1                      L     R5,NFTEMP
 0031B4 D503 76A2 803C_035E0 00014 23661  1                      IF    (NFMULT,NE,0),BEGIN
 0031BE 5C40 803C            00014 23679  2                        M     R4,NFMULT
 0031C2 5D40 76DA            03618 23680  2                        D     R4,=F'1000'
 0031C6                            23681  1                      END
 0031C6 5A50 8038            00010 23685  1                      A     R5,NFADD
 0031CA 5950 8048/4730_      00020 23686  1                      IF    (R5,LE,NFROUND),BEGIN
 0031D2 5850 8048            00020 23703  2                        L     R5,NFROUND
 0031D6 4155 0001            00001 23704  2                        LA    R5,1(R5)
 0031DA 9680 8050      00028       23705  2                        SET   NFFROUND
 0031DE                            23711  1                      END
 0031DE 5050 8048            00020 23715  1                      ST    R5,NFROUND
                                   23716  1
 0031E2 5800 804C            00024 23717  1                      L     R0,NFTEMP           R0 = old line-number
 0031E6 1815                       23718  1                      LR    R1,R5               R1 = new line-number
 0031E8 58E0 76C2/0DEE       03600 23719  1                      ACALL NFIXNUM             Line-number has changed
                                   23723  1
 0031EE 5050 804C            00024 23724  1                      ST    R5,NFTEMP
 0031F2 4810 6018            00018 23725  1                      LH    R1,RECQOFF          GET LOCATION OF LINE INDEX
 0031F6 1A19                       23726  1                      AR    R1,PAR
 0031F8 5051 0004            00004 23727  1                      ST    R5,NDXNAME(R1)      SAVE NEW LINE NUMBER
 0031FC 58E0 76C6/0DEE       03604 23728  1                      PMARK PAR
 003202 41F0 6000            00000 23733  1                      LA    R15,RGROUP
 003206 4120 804C            00024 23734  1                      LA    R2,NFTEMP
 00320A 58E0 76CA/0DEE       03608 23735  1                      ACALL NLOCNEXT            LOCATE NEXT LINE
 003210 47F0 7262            031A0 23739                       END
                                   23744
                                   23745                       COMMENT                   FIX UP BLOCK POINTERS
 003214 41F0 6000            00000 23746                       LA    R15,RGROUP
 003218 5800 802C            00004 23747                       L     R0,NFFIRST
 00321C 5810 8030            00008 23748                       L     R1,NFLAST
 003220 58E0 76CE/0DEE       0360C 23749                       ACALL NFIXLINK
                                   23753
 003226 58E0 76D2/0DEE       03610 23754                       ACALL NFIXNCLR            We are finished with the renumber
 00322C 9180 8050/4710_00028       23758                       IF    NFFROUND,ROUNDERR
                                   23776
 003234 1805                       23777                       LR    R0,R5               R0 - LAST LINE, R15 - CC
 003236 1BFF                       23778                       CLEAR R15
                                   23782
 003238 47F0 731E            0325C 23783                       B     NUMFDONE
1RECS     (RECS2101) (12:53) (15MAR04) LOW-LEVEL NUMBER ROUTINES                                                            Page  128
0Current Usings:  (RGROUP,R6) (*,R7) (NFWA-(4+36),R8) (CP,R11) (CV,R12)
0Loc    Object Code    Addr1 Addr2  Stmt Lv Lineno    Source Statement           (Hibal 5, Asmedit 3.3)  HLASM R4.0  2004/03/15 12.53
+___    ______ ____    _____ _____  ____ __ ______    ______ _________
0                                  23784              *
                                   23785              *  EXITS
                                   23786              *
 00323C                            23787              BADFACTR LABEL ,
 00323C 41F0 0004            00004 23789                       LA    R15,4
 003240 47F0 731E            0325C 23790                       B     NUMFDONE
                                   23791
 003244                            23792              VOIDRNGE LABEL ,
 003244 41F0 0008            00008 23794                       LA    R15,8
 003248 47F0 731E            0325C 23795                       B     NUMFDONE
                                   23796
 00324C                            23797              BADRNGE  LABEL
 00324C 41F0 000C            0000C 23799                       LA    R15,12
 003250 47F0 731E            0325C 23800                       B     NUMFDONE
                                   23801
 003254                            23802              ROUNDERR LABEL ,                   ROUNDING WARNING,,, LINE NOS OK
 003254 41F0 0010            00010 23804                       LA    R15,16
 003258 47F0 731E            0325C 23805                       B     NUMFDONE
                                   23806
 00325C                            23807              NUMFDONE LABEL ,                   NORMAL EXIT
 00325C 5008 0004            00004 23809                       PRETURN R0
 003260 18D8/9808 D004_            23811                       PEND
 DROP   NFWA-(4+36),R8
 DROP   *,R7
 DROP   RGROUP,R6                  23836                       DROP  R6
1RECS     (RECS2101) (12:53) (15MAR04) LOW-LEVEL NUMBER ROUTINES                                                            Page  129
0Current Usings:  (CP,R11) (CV,R12)
0Loc    Object Code    Addr1 Addr2  Stmt Lv Lineno    Source Statement           (Hibal 5, Asmedit 3.3)  HLASM R4.0  2004/03/15 12.53
+___    ______ ____    _____ _____  ____ __ ______    ______ _________
0                                  23844              ¿þþþþþþþþþþþþþþþþþþþþþþþþþþþþþþþþþþþþþþþþþþþþþþþþþþþþþþþþþþþþþþþþþþþþþÜ
                                   23845              Ÿ                                                                     Ÿ
                                   23846              Ÿ                                                                     Ÿ
                                   23847              Ÿ  NLOCNEXT - LOCATE NEXT, USE QUICK GET/LOC INFO                     Ÿ
                                   23848              Ÿ                                                                     Ÿ
                                   23849              Ÿ  NOTE: THIS ROUTINE IS USED WITH NUMBER !! DATA PAGE NUMBERS        Ÿ
                                   23850              Ÿ        MAY WILL BE IN A STATE OF DISARRAY.  THIS ROUTINE OR         Ÿ
                                   23851              Ÿ        ANY IT CALLS MAY NOT DO A BSEARCH ON THE DATA PAGE INDEX.    Ÿ
                                   23852              Ÿ        THE MASTER INDEX IF ANY IS STILL BASED ON OLD LINENOS.       Ÿ
                                   23853              Ÿ        WE BE CAREFUL !                                              Ÿ
                                   23854              Ÿ                                                                     Ÿ
                                   23855              Ÿ  ON ENTRY:                                                          Ÿ
                                   23856              Ÿ     @R15 - RECORD GROUP INFO BLOCK                                  Ÿ
                                   23857              Ÿ            (CONTAINS QUICK INFO, MUST BE CORRECT !@!)               Ÿ
                                   23858              Ÿ       R0 - NOT USED                                                 Ÿ
                                   23859              Ÿ       R1 - NOT USED                                                 Ÿ
                                   23860              Ÿ      @R2 - NEWEST LINE NUMBER                                       Ÿ
                                   23861              Ÿ                                                                     Ÿ
                                   23862              Ÿ  ON EXIT:                                                           Ÿ
                                   23863              Ÿ      @R2 - NEXT LINE NUMBER TO RENUMBER (OLD)                       Ÿ
                                   23864              Ÿ      @RGROUP - NEW QUICK INFO IS UPDATED, WITH POINTER TO           Ÿ
                                   23865              Ÿ            (OFFSET) TO NEXT LINE NUMBER IN RECQOFF !!               Ÿ
                                   23866              Ÿ      R15 - CC = ZERO, IF RECORD FOUND                               Ÿ
                                   23867              Ÿ            CC = NZ, IF RECORD NOT FOUND                             Ÿ
                                   23868              Ÿ      PAR - PAGE OBTAINED                                            Ÿ
                                   23869              Ÿ                                                                     Ÿ
                                   23870              Ÿ  WARNING,  RETURNS POINTERS INTO PAGED AREA, DATA MUST BE           Ÿ
                                   23871              Ÿ    MUST BE REFERENCED OR MOVED BEFORE ADDITIONAL DISPATCHES !       Ÿ
                                   23872              Ÿ                                                                     Ÿ
                                   23873              Ÿ                                                                     Ÿ
                                                      ¾þþþþþþþþþþþþþþþþþþþþþþþþþþþþþþþþþþþþþþþþþþþþþþþþþþþþþþþþþþþþþþþþþþþþþ»
000326E 50E0 D000/9008_      00000 23874              NLOCNEXT PROC  SEARCHWA
 USING  *,R7
 USING  SEARCHWA-(4+36),R8
 USING  RPAGE,R9                   23924                       USING RPAGE,PAR
 USING  RGROUP,R6                  23933                       USING RGROUP,R6
 003288 186F                       23942                       LR    R6,R15
 00328A 5020 802C            00004 23943                       ST    R2,SRCHPARM         SAVE ENTRY PARM ADDRESSES
 00328E 50F0 8028            00000 23944                       ST    R15,SRCHINFO
 003292 D203 8030 6004 00008 00004 23945                       MVC   SRCHSET,RECSET      SAVE SEARCH SET NUMBER
 003298 4830 6008            00008 23946                       LH    R3,RECNLEN
 00329C 4140 8034            0000C 23947                       LA    R4,SRCHNAME
 0032A0 1853                       23948                       LR    R5,R3
 0032A2 0E42                       23949                       MVCL  R4,R2               SAVE SEARCH NAME
                                   23950
 0032A4 41F0 6000            00000 23951                       LA    R15,RGROUP
 0032A8 4120 8030            00008 23952                       LA    R2,SRCHKEY
 0032AC 58E0 7394/0DEE       0361C 23953                       ACALL CHKQINFO            POINT TO INDEX QUICKLY
 0032B2 4780 7030/0000       032B8 23957                       IF    NZ,' BOMB '
 0032B8 4A10 9020            00020 23975                       AH    R1,RPNTRYLN         POINT TO NEXT LINE
 0032BC 4830 9024            00024 23976                       LH    R3,RPXEND
 0032C0 1A39                       23977                       AR    R3,PAR
 0032C2 1913/4750 7054             23978                       IF    (R1,GE,R3),BEGIN    IF NOT ON THIS PAGE ,,,
1RECS     (RECS2101) (12:53) (15MAR04) LOW-LEVEL NUMBER ROUTINES                                                            Page  130
0Current Usings:  (RGROUP,R6) (*,R7) (SEARCHWA-(4+36),R8) (RPAGE,R9) (CP,R11) (CV,R12)
0Loc    Object Code    Addr1 Addr2  Stmt Lv Lineno    Source Statement           (Hibal 5, Asmedit 3.3)  HLASM R4.0  2004/03/15 12.53
+___    ______ ____    _____ _____  ____ __ ______    ______ _________
00032C8 41F0 6000            00000 23993  1                      LA    R15,RGROUP
 0032CC 58E0 7398/0DEE       03620 23994  1                      ACALL NEXTPAGE            BE CAREFUL !! NUMBERS IN FLUX
 0032D2 4770 7086            0330E 23998  1                      BNZ   NNONEXT
 0032D6 4810 9022            00022 23999  1                      LH    R1,RPXSTART
 0032DA 1A19                       24000  1                      AR    R1,PAR
 0032DC                            24001                       END
                                   24005
 0032DC D503 6004 1000_00004 00000 24006                       IF    (@R1,NE,RECSET),BEGIN  NO NEXT LINE IN THIS SEARCH SET
 0032E6 47F0 7086            0330E 24023  1                      B     NNONEXT
 0032EA                            24024                       END
                                   24028
 0032EA D203 6010 9010 00010 00010 24029                       MVC   RECQPG,RPNUMB       SET QUICK GET/PUT INFO
 0032F0 1831                       24030                       LR    R3,R1
 0032F2 1B39                       24031                       SR    R3,PAR
 0032F4 4030 6018            00018 24032                       STH   R3,RECQOFF          SET QUICK GET/PUT INFO
 0032F8 5820 802C            00004 24033                       L     R2,SRCHPARM
 0032FC 4830 901E            0001E 24034                       LH    R3,RPNAMELN
 003300 4141 0004            00004 24035                       LA    R4,NDXNAME(R1)
 003304 1853                       24036                       LR    R5,R3
 003306 0E24                       24037                       MVCL  R2,R4               UPDATE SREACH NAME TO PREVIOUS
 003308 1BFF                       24038                       CLEAR R15                 SET CC=ZERO, FOUND NEXT
                                   24042
 00330A 47F0 708E            03316 24043                       B     NNXTDONE
                                   24044              *
                                   24045              *  EXITS
                                   24046              *
 00330E                            24047              NNONEXT  LABEL ,                   NO NEXT FOUND,,
 00330E 41F0 0004            00004 24049                       LA    R15,4
 003312 47F0 708E            03316 24050                       B     NNXTDONE
                                   24051
 003316                            24052              NNXTDONE LABEL ,                   NORMAL EXIT
 003316 18D8/9808 D004_            24054                       PEND
 DROP   SEARCHWA-(4+36),R8
 DROP   *,R7
 DROP   RPAGE,R9                   24079                       DROP  PAR
 DROP   RGROUP,R6                  24086                       DROP  R6
1RECS     (RECS2101) (12:53) (15MAR04) LOW-LEVEL NUMBER ROUTINES                                                            Page  131
0Current Usings:  (CP,R11) (CV,R12)
0Loc    Object Code    Addr1 Addr2  Stmt Lv Lineno    Source Statement           (Hibal 5, Asmedit 3.3)  HLASM R4.0  2004/03/15 12.53
+___    ______ ____    _____ _____  ____ __ ______    ______ _________
0                                  24094              ¿þþþþþþþþþþþþþþþþþþþþþþþþþþþþþþþþþþþþþþþþþþþþþþþþþþþþþþþþþþþþþþþþþþþþþÜ
                                   24095              Ÿ                                                                     Ÿ
                                   24096              Ÿ                                                                     Ÿ
                                   24097              Ÿ  NFIXLINK - FIX PAGE LINKS TO NEXT PAGE (IE. RESET RPLAST) AND      Ÿ
                                   24098              Ÿ             FIX UP MASTER INDEXES (IF ANY)                          Ÿ
                                   24099              Ÿ                                                                     Ÿ
                                   24100              Ÿ  ON ENTRY:                                                          Ÿ
                                   24101              Ÿ     @R15 - RECORD GROUP INFO BLOCK                                  Ÿ
                                   24102              Ÿ       R0 - FIRST RECORD RENUMBERED (OLD VALUE)                      Ÿ
                                   24103              Ÿ       R1 - LAST RECORD RENUMBERD (OLD VALUE)                        Ÿ
                                   24104              Ÿ                                                                     Ÿ
                                   24105              Ÿ  ON EXIT:                                                           Ÿ
                                   24106              Ÿ      R15 - CC=ZERO                                                  Ÿ
                                   24107              Ÿ                                                                     Ÿ
                                   24108              Ÿ  NOTE: WE GET THE MASTER INDEX PAGE @PBR,  WE THEN LOOP THRU        Ÿ
                                   24109              Ÿ  ALL THE PAGES THAT HAVE BEEN RENUMBERED. WE LOOP                   Ÿ
                                   24110              Ÿ  BACKWARDS, FROM THE LAST (HIGHEST) PAGE RENUMBERED TO THE          Ÿ
                                   24111              Ÿ  LOWEST.  WE FIX THE FOLLOWING LINKS: 1) THE FIRST INDEX LIMIT      Ÿ
                                   24112              Ÿ  ON THE PAGE, 2) THE INDEX RECORD NAME IN THE MASTER PAGE, AND      Ÿ
                                   24113              Ÿ  3) THE LAST INDEX LIMIT ON THE PREVIOUS PAGE.  IN CASE 3)          Ÿ
                                   24114              Ÿ  WE ARE PUTTING THE FIRST ENTRY AS THE LAST LIMIT ON THE            Ÿ
                                   24115              Ÿ  PREVIOUS PAGE; THIS IS WHY WE LOOP BACKWARDS.  DIG IT !            Ÿ
                                   24116              Ÿ                                                                     Ÿ
                                   24117              Ÿ                                                                     Ÿ
                                                      ¾þþþþþþþþþþþþþþþþþþþþþþþþþþþþþþþþþþþþþþþþþþþþþþþþþþþþþþþþþþþþþþþþþþþþþ»
0000000                00000 00010 24118              NXWA     RECORD BEGIN
 000000                            24126  1                      DS    0F                  MUST HAVE FULLWORD ALIGNMENT
 000000                            24127  1           NXFKEY     DS    XL8                 SEARCH KEY OF..
                                   24128  1           NXFIRST    EQU   NXFKEY+4,4          FIRST RECORD RENUMBERED (OLD)
 000008                            24129  1           NXLKEY     DS    XL8                 SEARCH KEY OF..
                                   24130  1           NXLAST     EQU   NXLKEY+4,4          LAST RECORD RENUMBERED (OLD)
 000010                00010 00010 24131                       END
 003324                            24140                       DS    0S(4-L'NDXSET)      SET LENGTH MUST BE FULLWORD
                                   24141              *
                                   24142              *
 003324 50E0 D000/9008_      00000 24143              NFIXLINK PROC  NXWA
 USING  *,R7
 USING  NXWA-(4+36),R8
 USING  RPAGE,R9                   24193                       USING RPAGE,PAR
 USING  RGROUP,R6                  24202                       USING RGROUP,R6
 00333E 186F                       24211                       LR    R6,R15              SET UP ENTRY PARMS, WORK AREA
 003340 5000 802C            00004 24212                       ST    R0,NXFIRST
 003344 5010 8034            0000C 24213                       ST    R1,NXLAST
 003348 5800 6004            00004 24214                       L     R0,RECSET
 00334C 5000 8028            00000 24215                       ST    R0,NXFKEY
 003350 5000 8030            00008 24216                       ST    R0,NXLKEY
                                   24217
                                   24218                       COMMENT                   GET ROOT PAGE
 003354 5800 6000            00000 24219                       L     R0,RECGRP
 003358 58E0 72E6/0DEE       03624 24220                       PGET  PAR,(R0)
 00335E D505 9000 7304_00000 03642 24228                       RPCHECK
 003374 D501 7302 901E_03640 0001E 24236                       IF    (RPNAMELN,NE,4),BEGIN
 00337E 0000                       24254  1                      BOMB
1RECS     (RECS2101) (12:53) (15MAR04) LOW-LEVEL NUMBER ROUTINES                                                            Page  132
0Current Usings:  (RGROUP,R6) (*,R7) (NXWA-(4+36),R8) (RPAGE,R9) (CP,R11) (CV,R12)
0Loc    Object Code    Addr1 Addr2  Stmt Lv Lineno    Source Statement           (Hibal 5, Asmedit 3.3)  HLASM R4.0  2004/03/15 12.53
+___    ______ ____    _____ _____  ____ __ ______    ______ _________
0003380                            24256                       END
                                   24260
                                   24261                       COMMENT                   IF MASTER, FIX UP LINKS
 003380 9140 9014/47E0_00014       24262                       IF    RPMASTER,BEGIN      IF MASTER, FIX UP LINKS
                                   24277  1                      COMMENT
 003388 50F0 D000/58F0_      00000 24278  1                      PFLIP ,                   PUT MASTER PAGE @PBR !
 USING  JCB,R15
 DROP   JCB,R15
 DROP   RPAGE,R9                   24319  1                      DROP  PAR
 USING  RPAGE,R10                  24326  1                      USING RPAGE,PBR
                                   24335  1
                                   24336  1                      COMMENT                   GET INDEX OF FIRST PAGE
                                   24337  1                      COMMENT                       RENUMBERED-1
 0033AC 4100 A030            00030 24338  1                      LA    R0,RPINFO
 0033B0 4810 A022            00022 24339  1                      LH    R1,RPXSTART
 0033B4 1A1A                       24340  1                      AR    R1,PBR
 0033B6 4120 8028            00000 24341  1                      LA    R2,NXFKEY
 0033BA 58E0 72EA/0DEE       03628 24342  1                      ACALL BSEARCH             SEARCH FOR INDEX OF LAST
 0033C0 4830 A01C            0001C 24346  1                      LH    R3,RPKEYLN                 RENUMBERED PAGE
 0033C4 0630/4430 730A_            24347  1                      DEX   R3,' CLC 0(0,R2),0(R1) '
 0033CA 47B0 7094            033D2 24366  1                      IF    LT,BEGIN            IF REC IS LESS THAN MASTER ENTRY
 0033CE 4B10 A020            00020 24377  2                        SH    R1,RPNTRYLN         THEN SEARCH ON PREVIOUS PAGE
 0033D2                            24378  1                      END
 0033D2 4B10 A020            00020 24382  1                      SH    R1,RPNTRYLN         LAST PAGE+1
 0033D6 1841                       24383  1                      LR    R4,R1               R4 - INDEX OF FIRST PAGE TO FIX
                                   24384  1
                                   24385  1                      COMMENT                   GET INDEX OF LAST PAGE
                                   24386  1                      COMMENT                       RENUMBERED+1
 0033D8 4100 A030            00030 24387  1                      LA    R0,RPINFO
 0033DC 4810 A022            00022 24388  1                      LH    R1,RPXSTART
 0033E0 1A1A                       24389  1                      AR    R1,PBR
 0033E2 4120 8030            00008 24390  1                      LA    R2,NXLKEY
 0033E6 58E0 72EA/0DEE       03628 24391  1                      ACALL BSEARCH             SEARCH FOR INDEX OF LAST
 0033EC 4830 A01C            0001C 24395  1                      LH    R3,RPKEYLN                 RENUMBERED PAGE
 0033F0 0630/4430 7310_            24396  1                      DEX   R3,' CLC 0(0,R2),0(R1) '
 0033F6 47B0 70C0            033FE 24415  1                      IF    LT,BEGIN            IF REC IS LESS THAN MASTER ENTRY
 0033FA 4B10 A020            00020 24426  2                        SH    R1,RPNTRYLN         THEN SEARCH ON PREVIOUS PAGE
 0033FE                            24427  1                      END
 0033FE 4A10 A020            00020 24431  1                      AH    R1,RPNTRYLN         LAST PAGE+1
 003402 1821                       24432  1                      LR    R2,R1               R2 - INDEX OF LAST PAGE TO FIX
                                   24433  1                      COMMENT
                                   24434  1
                                   24435  1                      COMMENT                   MAKE SURE FIRST/LAST INDEXS VALID
 003404 4850 A022            00022 24436  1                      LH    R5,RPXSTART
 003408 1A5A                       24437  1                      AR    R5,PBR              R5 - FIRST VALID MASTER INDEX
 00340A 1925/47B0 70D4             24438  1                      IF    (R2,LT,R5),BEGIN    MAKE INDEXES ARE VALID
 003410 1825                       24453  2                        LR    R2,R5
 003412                            24454  1                      END
 003412 1945/47B0 70DC             24458  1                      IF    (R4,LT,R5),BEGIN
 003418 1845                       24473  2                        LR    R4,R5
 00341A                            24474  1                      END
 00341A 4850 A024            00024 24478  1                      LH    R5,RPXEND
 00341E 1A5A                       24479  1                      AR    R5,PBR
 003420 4B50 A020            00020 24480  1                      SH    R5,RPNTRYLN         R5 - LAST VALID MASTER INDEX
1RECS     (RECS2101) (12:53) (15MAR04) LOW-LEVEL NUMBER ROUTINES                                                            Page  133
0Current Usings:  (RGROUP,R6) (*,R7) (NXWA-(4+36),R8) (RPAGE,R10) (CP,R11) (CV,R12)
0Loc    Object Code    Addr1 Addr2  Stmt Lv Lineno    Source Statement           (Hibal 5, Asmedit 3.3)  HLASM R4.0  2004/03/15 12.53
+___    ______ ____    _____ _____  ____ __ ______    ______ _________
0003424 1925/4750 70EE             24481  1                      IF    (R2,GE,R5),BEGIN
 00342A 1825                       24496  2                        LR    R2,R5
 00342C                            24497  1                      END
 00342C 1945/4750 70F6             24501  1                      IF    (R4,GE,R5),BEGIN
 003432 1845                       24516  2                        LR    R4,R5
 003434                            24517  1                      END
 003434 4850 A022            00022 24521  1                      LH    R5,RPXSTART         R5 - FIRST VALID MASTER INDEX
 003438 1A5A                       24522  1                      AR    R5,PBR
 00343A 4830 A01C            0001C 24523  1                      LH    R3,RPKEYLN          R3 - MASTER INDEX KEY LENGTH
                                   24524  1
 DROP   RPAGE,R10                  24525  1                      DROP  PBR
 USING  RPAGE,R9                   24532  1                      USING RPAGE,PAR
                                   24541  1
                                   24542  1                      COMMENT                   LOOP FIXING UP LINKS
                                   24543  1                      COMMENT                   R3 - MASTER KEY LENGTH
                                   24544  1                      COMMENT                   @R2 - INDEX OF LAST PAGE TO FIX
                                   24545  1                      COMMENT                   @R4 - INDEX OF FIRST PAGE TO FIX
                                   24546  1                      COMMENT                   @R5 - FIRST VALID MASTER INDEX
                                   24547  1                      COMMENT
 00343E 1924/4750 71B6             24548  1                      WHILE (R2,GE,R4),BEGIN    LOOP THRU PAGES FIXING POINTERS
 003444 5803 2000            00000 24565  2                        L     R0,DATAPGNO(R3,R2)
 003448 1B2A                       24566  2                        SR    R2,PBR
 00344A 1B4A                       24567  2                        SR    R4,PBR
 00344C 1B5A                       24568  2                        SR    R5,PBR
 00344E 58E0 72E6/0DEE       03624 24569  2                        PGET  PAR,(R0)            GET RENUMBERED PAGE
 003454 D505 9000 7304_00000 03642 24577  2                        RPCHECK
 00346A 1A2A                       24585  2                        AR    R2,PBR
 00346C 1A4A                       24586  2                        AR    R4,PBR
 00346E 1A5A                       24587  2                        AR    R5,PBR
 003470 48E0 9026            00026 24588  2                        LH    R14,RPXFIRST        SET FIRST LIMIT ON PAGE
 003474 1AE9                       24589  2                        AR    R14,PAR
 003476 48F0 901C            0001C 24590  2                        LH    R15,RPKEYLN
 00347A 4800 9022            00022 24591  2                        LH    R0,RPXSTART
 00347E 1A09                       24592  2                        AR    R0,PAR
 003480 181F                       24593  2                        LR    R1,R15
 003482 0EE0                       24594  2                        MVCL  R14,R0
 003484 58E0 72C6/0DEE       03604 24595  2                        PMARK PAR
 00348A 18E2                       24600  2                        LR    R14,R2              SET NEW MASTER INDEX LINENO VALUE
 00348C 48F0 901C            0001C 24601  2                        LH    R15,RPKEYLN
 003490 4800 9026            00026 24602  2                        LH    R0,RPXFIRST
 003494 1A09                       24603  2                        AR    R0,PAR
 003496 181F                       24604  2                        LR    R1,R15
 003498 0EE0                       24605  2                        MVCL  R14,R0
 00349A 58E0 72EE/0DEE       0362C 24606  2                        PMARK PBR
 0034A0 4B2A 0020            00020 24611  2                        SH    R2,RPNTRYLN-RPAGE(PBR)  POINT TO PREV PAGE
 0034A4 1925/4750 71B2             24612  2                        IF    (R2,GE,R5),BEGIN    IF PREVIOUS PAGE,,,
 0034AA 5803 2000            00000 24627  3                          L     R0,DATAPGNO(R3,R2)
 0034AE 1B2A                       24628  3                          SR    R2,PBR
 0034B0 1B4A                       24629  3                          SR    R4,PBR
 0034B2 1B5A                       24630  3                          SR    R5,PBR
 0034B4 58E0 72E6/0DEE       03624 24631  3                          PGET  PAR,(R0)            GET PREVIOUS PAGE
 0034BA D505 9000 7304_00000 03642 24639  3                          RPCHECK
 0034D0 1A2A                       24647  3                          AR    R2,PBR
 0034D2 1A4A                       24648  3                          AR    R4,PBR
1RECS     (RECS2101) (12:53) (15MAR04) LOW-LEVEL NUMBER ROUTINES                                                            Page  134
0Current Usings:  (RGROUP,R6) (*,R7) (NXWA-(4+36),R8) (RPAGE,R9) (CP,R11) (CV,R12)
0Loc    Object Code    Addr1 Addr2  Stmt Lv Lineno    Source Statement           (Hibal 5, Asmedit 3.3)  HLASM R4.0  2004/03/15 12.53
+___    ______ ____    _____ _____  ____ __ ______    ______ _________
00034D4 1A5A                       24649  3                          AR    R5,PBR
 0034D6 48E0 9028            00028 24650  3                          LH    R14,RPXLAST         SET LAST INDEX LIMIT
 0034DA 1AE9                       24651  3                          AR    R14,PAR
 0034DC 48F0 901C            0001C 24652  3                          LH    R15,RPKEYLN
 0034E0 1802                       24653  3                          LR    R0,R2
 0034E2 4A0A 0020            00020 24654  3                          AH    R0,RPNTRYLN-RPAGE(PBR)
 0034E6 181F                       24655  3                          LR    R1,R15
 0034E8 0EE0                       24656  3                          MVCL  R14,R0
 0034EA 58E0 72C6/0DEE       03604 24657  3                          PMARK PAR
 0034F0                            24662  2                        END
 0034F0 47F0 7100            0343E 24666  1                      END   , OF SETTING LINKS LOOP
                                   24671  1
                                   24672  1                      COMMENT                   FREE MASTER PAGE @PBR
 0034F4 58E0 72EE/0DEE       0362C 24673  1                      PMARK PBR
 0034FA 58E0 72F2/0DEE       03630 24678  1                      PFREE PBR
 003500                            24684                       END   , END OF IF MASTER
                                   24688
 003500 1BFF                       24689                       CLEAR R15
 003502 18D8/9808 D004_            24693                       PEND
 DROP   NXWA-(4+36),R8
 DROP   *,R7
 DROP   RPAGE,R9                   24718                       DROP  PAR
1RECS     (RECS2101) (12:53) (15MAR04) LOW-LEVEL NUMBER ROUTINES                                                            Page  135
0Current Usings:  (RGROUP,R6) (CP,R11) (CV,R12)
0Loc    Object Code    Addr1 Addr2  Stmt Lv Lineno    Source Statement           (Hibal 5, Asmedit 3.3)  HLASM R4.0  2004/03/15 12.53
+___    ______ ____    _____ _____  ____ __ ______    ______ _________
0                                  24726              ¿þþþþþþþþþþþþþþþþþþþþþþþþþþþþþþþþþþþþþþþþþþþþþþþþþþþþþþþþþþþþþþþþþþþþþÜ
                                   24727              Ÿ                                                                     Ÿ
                                   24728              Ÿ  NFIXNUM -- Routine to update a line-number that has been           Ÿ
                                   24729              Ÿ    renumbered.  Line-numbers that are changed are marked so they    Ÿ
                                   24730              Ÿ    do not get changed again during the renumber process.            Ÿ
                                   24731              Ÿ                                                                     Ÿ
                                   24732              Ÿ    On entry:                                                        Ÿ
                                   24733              Ÿ      R0 - Old line-number                                           Ÿ
                                   24734              Ÿ      R1 - New line-number                                           Ÿ
                                   24735              Ÿ                                                                     Ÿ
                                   24736              Ÿ    Note:  This routine is ONLY called by the lowest level           Ÿ
                                   24737              Ÿ      re-numbering routine in RECS (NNUMBER and NNUMFACT).           Ÿ
                                   24738              Ÿ                                                                     Ÿ
                                                      ¾þþþþþþþþþþþþþþþþþþþþþþþþþþþþþþþþþþþþþþþþþþþþþþþþþþþþþþþþþþþþþþþþþþþþþ»
0003510 50E0 D000/9008_      00000 24739              NFIXNUM  PROC
 USING  *,R7
 00352A 1901/4780 7044             24778                       IF    (R0,NE,R1),BEGIN    Line-number has changed...
                                   24793  1                      ¿þþþþþþþþþþþþþþþþþþþþþþþþþþþþþþÜ
                                   24794  1                      Ÿ  Check current line-number.  Ÿ
                                   24795  1                      ¾þþþþþþþþþþþþþþþþþþþþþþþþþþþþþþ»
 003530 9180 B5A8/4710_005A8       24796  1                      IF    ~CPACLNO.X'80',BEGIN  Check current lineno...
 003538 5900 B5A8/4770_      005A8 24812  2                        IF    (CPACLNO,NE,R0),EXIT  No change, scram
 003540 5010 B5A8            005A8 24832  2                        ST    R1,CPACLNO          Set new lineno
 003544 9680 B5A8      005A8       24833  2                        SET   CPACLNO.X'80'       Mark it so it's not changed again
 003548 9604 BAC9      00AC9       24840  2                        SET   CPVFREN
 00354C                            24846  1                      END
                                   24850  1                      ¿þþþþþþþþþþþþþþþþþþþþþþþþþþþþþþÜ
                                   24851  1                      Ÿ  Check working line-number.  Ÿ
                                   24852  1                      ¾þþþþþþþþþþþþþþþþþþþþþþþþþþþþþþ»
 00354C 9180 BE1C/4710_00E1C       24853  1                      IF    ~CPNUMLNO.X'80',BEGIN  Check number's lineno...
 003554 5900 BE1C/4770_      00E1C 24869  2                        IF    (CPNUMLNO,NE,R0),EXIT  No change, scram
 00355C 5010 BE1C            00E1C 24889  2                        ST    R1,CPNUMLNO         Set new lineno
 003560 9680 BE1C      00E1C       24890  2                        SET   CPNUMLNO.X'80'      Mark it so it's not changed again
 003564 9604 BAC9      00AC9       24897  2                        SET   CPVFREN
 003568                            24903  1                      END
                                   24907  1                      ¿þþþþþþþþþþþþþþþþþþþþþþþþþþþþþþþþþþþþþþþþþþþþþþþþþþþþþþþþþþþþþÜ
                                   24908  1                      Ÿ  PAGENUM expects R0=old lineno, R1=new lineno; same as us.  Ÿ
                                   24909  1                      ¾þþþþþþþþþþþþþþþþþþþþþþþþþþþþþþþþþþþþþþþþþþþþþþþþþþþþþþþþþþþþþ»
 003568 58E0 710A/0DEE       03634 24910  1                      VCALL PAGENUM             Check line-numbers in page image
 00356E                            24914                       END
 00356E 18D8/9808 D004_            24918                       PEND
 DROP   *,R7
1RECS     (RECS2101) (12:53) (15MAR04) LOW-LEVEL NUMBER ROUTINES                                                            Page  136
0Current Usings:  (RGROUP,R6) (CP,R11) (CV,R12)
0Loc    Object Code    Addr1 Addr2  Stmt Lv Lineno    Source Statement           (Hibal 5, Asmedit 3.3)  HLASM R4.0  2004/03/15 12.53
+___    ______ ____    _____ _____  ____ __ ______    ______ _________
0                                  24939              ¿þþþþþþþþþþþþþþþþþþþþþþþþþþþþþþþþþþþþþþþþþþþþþþþþþþþþþþþþþþþþþþþþþþþþþÜ
                                   24940              Ÿ                                                                     Ÿ
                                   24941              Ÿ  NFIXNCLR -- Routine to unmark the renumbered lines.  Lines         Ÿ
                                   24942              Ÿ    are marked as renumbered so they only get processed once         Ÿ
                                   24943              Ÿ    (see FIXNUM).  After the renumber is done then these marks       Ÿ
                                   24944              Ÿ    have to be cleared (by this routine).                            Ÿ
                                   24945              Ÿ                                                                     Ÿ
                                   24946              Ÿ    Note:  This routine is ONLY called by the lowest level           Ÿ
                                   24947              Ÿ      re-numbering routine in RECS (NNUMBER and NNUMFACT).           Ÿ
                                   24948              Ÿ                                                                     Ÿ
                                                      ¾þþþþþþþþþþþþþþþþþþþþþþþþþþþþþþþþþþþþþþþþþþþþþþþþþþþþþþþþþþþþþþþþþþþþþ»
000357C 50E0 D000/9008_      00000 24949              NFIXNCLR PROC
 USING  *,R7
 003596 9104 BAC9/47E0_00AC9       24988                       IF    CPVFREN,BEGIN       Lineno's have been renumbered...
                                   25003  1                      ¿þþþþþþþþþþþþþþþþþþþþþþþþþþþþþþþþþþÜ
                                   25004  1                      Ÿ  Reset any marked line-numbers.  Ÿ
                                   25005  1                      ¾þþþþþþþþþþþþþþþþþþþþþþþþþþþþþþþþþþ»
 00359E 9180 B5A8/47E0_005A8       25006  1                      IF    CPACLNO.X'80',BEGIN  Marked or undefined lineno...
 0035A6 D503 70A2 B5A8_03638 005A8 25022  2                        IF    (CPACLNO,NE,-1000),'CLEAR CPACLNO.X"80"'  Unmark it
 0035B4                            25053  1                      END
                                   25057  1
 0035B4 9180 BE1C/47E0_00E1C       25058  1                      IF    CPNUMLNO.X'80',BEGIN  Marked or undefined lineno...
 0035BC D503 7066 BE1C_035FC 00E1C 25074  2                        IF    (CPNUMLNO,NE,-1),'CLEAR CPNUMLNO.X"80"'  Unmark it
 0035CA                            25105  1                      END
                                   25109  1
 0035CA 58E0 70A6/0DEE       0363C 25110  1                      VCALL PAGENCLR            Clear any marked lineno in page
 0035D0                            25114                       END
 0035D0 18D8/9808 D004_            25118                       PEND
 DROP   *,R7
                                   25138
1RECS     (RECS2101) (12:53) (15MAR04) LOW-LEVEL NUMBER ROUTINES                                                            Page  137
0Current Usings:  (RGROUP,R6) (CP,R11) (CV,R12)
0Loc    Object Code    Addr1 Addr2  Stmt Lv Lineno    Source Statement           (Hibal 5, Asmedit 3.3)  HLASM R4.0  2004/03/15 12.53
+___    ______ ____    _____ _____  ____ __ ______    ______ _________
0                                  25140                       QLTORG
1RECS     (RECS2101) (12:53) (15MAR04) RECORD GROUP RECOVERY / VALIDITY CHECK                                               Page  138
0Current Usings:  (RGROUP,R6) (CP,R11) (CV,R12)
0Loc    Object Code    Addr1 Addr2  Stmt Lv Lineno    Source Statement           (Hibal 5, Asmedit 3.3)  HLASM R4.0  2004/03/15 12.53
+___    ______ ____    _____ _____  ____ __ ______    ______ _________
0                                  25178              ¿þþþþþþþþþþþþþþþþþþþþþþþþþþþþþþþþþþþþþþþþþþþþþþþþþþþþþþþþþþþþþþþþþþþþþÜ
                                   25179              Ÿ                                                                     Ÿ
                                   25180              Ÿ                                                                     Ÿ
                                   25181              Ÿ   RGRCVY - RECORD GROUP RECOVERY                                    Ÿ
                                   25182              Ÿ                                                                     Ÿ
                                   25183              Ÿ   ON ENTRY:                                                         Ÿ
                                   25184              Ÿ     @R15 - DUMMY RECORD GROUP INFO BLOCK, (0 IF NONE)               Ÿ
                                   25185              Ÿ       R0 - ROOT PAGE NUMBER FOR RECORD GROUP                        Ÿ
                                   25186              Ÿ      @R1 - 4 CHARACTER TYPE NAME                                    Ÿ
                                   25187              Ÿ            (EG. 'TEXT' 'EXEC',,,)                                   Ÿ
                                   25188              Ÿ                                                                     Ÿ
                                   25189              Ÿ   ON EXIT:                                                          Ÿ
                                   25190              Ÿ      R15 - CC=ZERO, RECORD GROUP RECOVERED,                         Ÿ
                                   25191              Ÿ               DUMMY RECORD GROUP INFO SET, IF REQUESTED             Ÿ
                                   25192              Ÿ            CC=NZ, RECORD GROUP NOT RECOVERED                        Ÿ
                                   25193              Ÿ               DUMMY RECORD GROUP INFO IS ZERO                       Ÿ
                                   25194              Ÿ                                                                     Ÿ
                                   25195              Ÿ   THIS ROUTINE IN TURN CALLS:                                       Ÿ
                                   25196              Ÿ       PRCVYCHK - CHECK IF PAGE ALREADY RECOVERED                    Ÿ
                                   25197              Ÿ       PRCVYSET - SET PAGE AS RECOVERED                              Ÿ
                                   25198              Ÿ                                                                     Ÿ
                                   25199              Ÿ   WARNING !!!                                                       Ÿ
                                   25200              Ÿ       THIS ROUTINE USES STAND ALONE READS, CVEMBUFQ MUST POINT      Ÿ
                                   25201              Ÿ       TO A UNUSED PCB (PAGE CONTROL BLOCK)!!  CALL ONLY DURING      Ÿ
                                   25202              Ÿ       INIT !!  PAGES MUST NOT BE IN CORE !                          Ÿ
                                   25203              Ÿ                                                                     Ÿ
                                   25204              Ÿ                                                                     Ÿ
                                                      ¾þþþþþþþþþþþþþþþþþþþþþþþþþþþþþþþþþþþþþþþþþþþþþþþþþþþþþþþþþþþþþþþþþþþþþ»
0003654 50E0 D000/9008_      00000 25205              RGRCVY   XPROC
 USING  *,R7
 USING  RPAGE,R9                   25245                       USING RPAGE,PAR
                                   25254                       USING RGROUP,R6
 00366E 186F                       25256                       LR    R6,R15
 003670 1830                       25257                       LR    R3,R0
                                   25258
                                   25259                       COMMENT                   CHECK RECORD GROUP
 003672 4120 777A            03DE8 25260                       LA    R2,=CL4'S...'
 003676 58E0 777E/0DEE       03DEC 25261                       ACALL RGCHECK
 00367C 4770 70B2            03720 25265                       BNZ   BADRCVY
                                   25266
                                   25267                       COMMENT                   VALID GROUP, READ FIRST BLOCK
 003680 58F0 C1E8            001E8 25268                       L     R15,CVEMBUFQ
 003684 1813                       25269                       LR    R1,R3
 003686 58E0 7782/0DEE       03DF0 25270                       VCALL SAREAD
 00368C 4770 70B2            03720 25274                       BNZ   BADRCVY
 003690 1890                       25275                       LR    PAR,R0
                                   25276
                                   25277                       COMMENT                   TEST ALL PAGES
 003692 5800 9010            00010 25278                       L     R0,RPNUMB
 003696 58E0 7786/0DEE       03DF4 25279                       VCALL PRCVYCHK            CHECK FIRST PAGE
 00369C 4770 70B2            03720 25283                       BNZ   BADRCVY
 0036A0 9140 9014/47E0_00014       25284                       IF    RPMASTER,BEGIN      IF MASTER PAGE, CHECK DATA PAGES
 0036A8 4820 901C            0001C 25299  1                      LH    R2,RPKEYLN          KEY LENGTH
1RECS     (RECS2101) (12:53) (15MAR04) RECORD GROUP RECOVERY / VALIDITY CHECK                                               Page  139
0Current Usings:  (RGROUP,R6) (*,R7) (RPAGE,R9) (CP,R11) (CV,R12)
0Loc    Object Code    Addr1 Addr2  Stmt Lv Lineno    Source Statement           (Hibal 5, Asmedit 3.3)  HLASM R4.0  2004/03/15 12.53
+___    ______ ____    _____ _____  ____ __ ______    ______ _________
00036AC 4830 9020            00020 25300  1                      LH    R3,RPNTRYLN         ENTRY LENGTH
 0036B0 4840 9022            00022 25301  1                      LH    R4,RPXSTART         FIRST THEN CURRENT ENTRY
 0036B4 1A49                       25302  1                      AR    R4,PAR
 0036B6 4850 9024            00024 25303  1                      LH    R5,RPXEND           LAST ENTRY
 0036BA 1A59                       25304  1                      AR    R5,PAR
 0036BC 1945/47B0 7068             25305  1                      WHILE (R4,LT,R5),BEGIN    LOOP THRU PAGES
 0036C2 5802 4000            00000 25322  2                        L     R0,DATAPGNO(R2,R4)
 0036C6 58E0 7786/0DEE       03DF4 25323  2                        VCALL PRCVYCHK
 0036CC 4770 70B2            03720 25327  2                        BNZ   BADRCVY
 0036D0 1A43                       25328  2                        AR    R4,R3
 0036D2 47F0 704E            036BC 25329  1                      END
 0036D6                            25334                       END
                                   25338
                                   25339                       COMMENT                   ALL PAGES TESTED, SET THEM ALL
 0036D6 5800 9010            00010 25340                       L     R0,RPNUMB
 0036DA 58E0 778A/0DEE       03DF8 25341                       VCALL PRCVYSET            CHECK FIRST PAGE
 0036E0 4770 70B2            03720 25345                       BNZ   BADRCVY
 0036E4 9140 9014/47E0_00014       25346                       IF    RPMASTER,BEGIN      IF MASTER PAGE, CHECK DATA PAGES
 0036EC 4820 901C            0001C 25361  1                      LH    R2,RPKEYLN          KEY LENGTH
 0036F0 4830 9020            00020 25362  1                      LH    R3,RPNTRYLN         ENTRY LENGTH
 0036F4 4840 9022            00022 25363  1                      LH    R4,RPXSTART         FIRST THEN CURRENT ENTRY
 0036F8 1A49                       25364  1                      AR    R4,PAR
 0036FA 4850 9024            00024 25365  1                      LH    R5,RPXEND           LAST ENTRY
 0036FE 1A59                       25366  1                      AR    R5,PAR
 003700 1945/47B0 70AC             25367  1                      WHILE (R4,LT,R5),BEGIN    LOOP THRU PAGES
 003706 5802 4000            00000 25384  2                        L     R0,DATAPGNO(R2,R4)
 00370A 58E0 778A/0DEE       03DF8 25385  2                        VCALL PRCVYSET
 003710 4770 70B2            03720 25389  2                        BNZ   BADRCVY
 003714 1A43                       25390  2                        AR    R4,R3
 003716 47F0 7092            03700 25391  1                      END
 00371A                            25396                       END
 00371A 1BFF                       25400                       CLEAR R15
                                   25404
 00371C 47F0 70C2            03730 25405                       B     RCVYDONE
                                   25406              *
                                   25407              *  EXITS
                                   25408              *
 003720                            25409              BADRCVY  LABEL ,
 003720 1266/4780 70BE             25411                       IF    (R6,NZ),BEGIN
 003726 D71F 6000 6000 00000 00000 25425  1                      CLEAR RGROUP
 00372C                            25432                       END
 00372C 47F0 70C2            03730 25436                       B     RCVYDONE
                                   25437
 003730                            25438              RCVYDONE LABEL ,
 003730 1B99                       25440                       CLEAR PAR                 REQUIRED (WE DO NOT OWN CVEMBUFQ)
 003732 47F0 70C8            03736 25444                       EXIT  RGRCVY
 003736 18D8/9808 D004_            25447                       PEND
 DROP   *,R7
 DROP   RGROUP,R6                  25467                       DROP  R6
1RECS     (RECS2101) (12:53) (15MAR04) RECORD GROUP RECOVERY / VALIDITY CHECK                                               Page  140
0Current Usings:  (RPAGE,R9) (CP,R11) (CV,R12)
0Loc    Object Code    Addr1 Addr2  Stmt Lv Lineno    Source Statement           (Hibal 5, Asmedit 3.3)  HLASM R4.0  2004/03/15 12.53
+___    ______ ____    _____ _____  ____ __ ______    ______ _________
0                                  25475              ¿þþþþþþþþþþþþþþþþþþþþþþþþþþþþþþþþþþþþþþþþþþþþþþþþþþþþþþþþþþþþþþþþþþþþþÜ
                                   25476              Ÿ                                                                     Ÿ
                                   25477              Ÿ                                                                     Ÿ
                                   25478              Ÿ  RGCHECK - RECORD GROUP VALIDITY CHECK                              Ÿ
                                   25479              Ÿ                                                                     Ÿ
                                   25480              Ÿ  ON ENTRY:                                                          Ÿ
                                   25481              Ÿ     @R15 - DUMMY RECORD GROUP INFO BLOCK OR R15=0 IF NONE           Ÿ
                                   25482              Ÿ       R0 - ROOT PAGE NUMBER FOR RECORD GROUP                        Ÿ
                                   25483              Ÿ      @R1 - 4 CHARACTER TYPE NAME (EG. 'TEXT','EXEC',,,)             Ÿ
                                   25484              Ÿ      @R2 - 4 CHARACTER FLAG BYTE                                    Ÿ
                                   25485              Ÿ            IF C'S...', USE STAND ALONE READ, DO NOT USE PGET        Ÿ
                                   25486              Ÿ                                                                     Ÿ
                                   25487              Ÿ  ON EXIT:                                                           Ÿ
                                   25488              Ÿ      *** - RECORD GROUP INFO BLOCK SET UP FOR RECORD GROUP.         Ÿ
                                   25489              Ÿ            SET NUMBER AND SPLIT FACTOR ARE SET TO DEFAULTS.         Ÿ
                                   25490              Ÿ      R15 - CC=Z, PAGES ALL VALID                                    Ÿ
                                   25491              Ÿ            CC=NZ, PAGES NOT VALID, (R15=ERR DETECTION ADDR)         Ÿ
                                   25492              Ÿ                                                                     Ÿ
                                   25493              Ÿ  THIS ROUTINE CHECKS THE VALIDIY OF ALL PAGES IN THE                Ÿ
                                   25494              Ÿ  IN THE SPECIFIED RECORD GROUP.                                     Ÿ
                                   25495              Ÿ                                                                     Ÿ
                                   25496              Ÿ  WARNING: IF STAND ALONE READ SPECIFIED FOR PAGE READ, THEN         Ÿ
                                   25497              Ÿ           CVEMBUFQ MUST POINT TO A UNUSED PCB (PAGE CONTROL         Ÿ
                                   25498              Ÿ           BLOCK)!!  CALL ONLY DURING INIT !!  PAGES MUST NOT        Ÿ
                                   25499              Ÿ           BE IN CORE !                                              Ÿ
                                   25500              Ÿ                                                                     Ÿ
                                   25501              Ÿ                                                                     Ÿ
                                                      ¾þþþþþþþþþþþþþþþþþþþþþþþþþþþþþþþþþþþþþþþþþþþþþþþþþþþþþþþþþþþþþþþþþþþþþ»
0000000                00000 0015C 25502              VCWA     RECORD BEGIN
 000000                            25510  1           VCROOT     DS    F                   ROOT PAGE NUMBER
 000004                            25511  1           VCRGROUP   DS    A                   DUMMY RECORD GROUP INFO BLOCK ADDR
 000008                            25512  1           VCTYPE     DS    CL4                 RECORD GROUP TYPE NAME
 00000C                            25513  1           VCFLAGS    DS    4XL1                VALIDTY CHECK FLAGS
 000010                            25514  1           VCNAMELN   DS    H                   RECORD GROUP NAME LENGTH
 000012                            25515  1           VCXFIRST   DS    XL(MXKEYLN)         LIMIT FOR FIRST ENTRY
 000096                            25516  1           VCXLAST    DS    XL(MXKEYLN)         LIMIT FOR LAST ENTRY
 00011A                            25517  1           VCBINFO    DS    XL(L'BSINFO)        BINARY INFO CHECK
 00013C                            25518  1           VCTEMP     DS    8F                  TEMP REGISTER SAVE AREA
                                   25519  1           VCPAGE     EQU   *                   PAGED SIZED TEMP WORK AREA
                                   25520  1           *                                  AREA IS MANUALLY PIUSHED, POP'D
 00015C                0015C 0015C 25521                       END
                                   25530              *
                                   25531              *
 003744 50E0 D000/9008_      00000 25532              RGCHECK  XPROC VCWA
 USING  *,R7
 USING  VCWA-(4+36),R8
                                   25583                       USING RPAGE,PAR
 00375E 5000 8028            00000 25585                       ST    R0,VCROOT
 003762 D203 8030 1000 00008 00000 25586                       MVC   VCTYPE(4),0(R1)
 003768 D203 8034 2000 0000C 00000 25587                       MVC   VCFLAGS(4),0(R2)
 00376E 50F0 802C            00004 25588                       ST    R15,VCRGROUP
                                   25589
                                   25590                       COMMENT                   READ RECORD GROUP ROOT PAGE
1RECS     (RECS2101) (12:53) (15MAR04) RECORD GROUP RECOVERY / VALIDITY CHECK                                               Page  141
0Current Usings:  (*,R7) (VCWA-(4+36),R8) (RPAGE,R9) (CP,R11) (CV,R12)
0Loc    Object Code    Addr1 Addr2  Stmt Lv Lineno    Source Statement           (Hibal 5, Asmedit 3.3)  HLASM R4.0  2004/03/15 12.53
+___    ______ ____    _____ _____  ____ __ ______    ______ _________
0003772 95E2 8034/4780_0000C       25591                       IF    (VCFLAGS,NE,C'S'),BEGIN
 00377A 58E0 769E/0DEE       03DFC 25608  1                      PCHK  (R0)                CHECK PAGE NUMBER
 003780 0DF0                       25616  1                      XMARK R15
 003782 4770 7288            039E6 25618  1                      BNZ   BADPAGE
 003786 58E0 76A2/0DEE       03E00 25619  1                      PGET  PAR,(R0)            GET PAGE INTO @PAR
 00378C                            25627                       END
 00378C 7032/47F0 7046 0378C 03778 25631                       ELSE  BEGIN ,,            IF STAND ALONE READ REQUESTED,
 003790 58F0 C1E8            001E8 25642  1                      L     R15,CVEMBUFQ        USE EMPTY BUFFER AS WORK AREA
 003794 1810                       25643  1                      LR    R1,R0
 003796 58E0 7692/0DEE       03DF0 25644  1                      VCALL SAREAD              STAND ALONE PAGE READ
 00379C 0DF0                       25648  1                      XMARK R15
 00379E 4770 7288            039E6 25650  1                      BNZ   BADPAGE
 0037A2 1890                       25651  1                      LR    PAR,R0
 0037A4                            25652                       END
                                   25656
 0037A4 D201 8038 901E 00010 0001E 25657                       MVC   VCNAMELN,RPNAMELN   Save RG name length (NIZ)
                                   25658
                                   25659                       COMMENT                   IF ROOT PAGE, IS DATA PAGE
 0037AA 9180 9014/47E0_00014       25660                       IF    RPDATA,BEGIN        CHECK DATA PAGE
 0037B2 5800 9010            00010 25675  1                      L     R0,RPNUMB
 0037B6 1B11                       25676  1                      SR    R1,R1
 0037B8 4120 803A            00012 25677  1                      LA    R2,VCXFIRST
 0037BC 4130 0084            00084 25678  1                      LA    R3,MXKEYLN
 0037C0 1B55                       25679  1                      CLEAR R5
 0037C2 0E24                       25683  1                      MVCL  R2,R4
 0037C4 4120 80BE            00096 25684  1                      LA    R2,VCXLAST
 0037C8 4130 0084            00084 25685  1                      LA    R3,MXKEYLN
 0037CC 5850 76A6            03E04 25686  1                      L     R5,=X'FF000000'
 0037D0 0E24                       25687  1                      MVCL  R2,R4
 0037D2 4120 803A            00012 25688  1                      LA    R2,VCXFIRST
 0037D6 4130 80BE            00096 25689  1                      LA    R3,VCXLAST
 0037DA 4840 901E            0001E 25690  1                      LH    R4,RPNAMELN
 0037DE 4150 8030            00008 25691  1                      LA    R5,VCTYPE
 0037E2 58E0 76AA/0DEE       03E08 25692  1                      ACALL CHKDPAGE            VALIDITY CHECK DATA PAGE
 0037E8 4770 7288            039E6 25696  1                      BNZ   BADPAGE
 0037EC                            25697                       END
                                   25701
                                   25702                       COMMENT                   IF ROOT PAGE IS MASTER PAGE,
 0037EC 9140 9014/47E0_00014       25703                       IF    RPMASTER,BEGIN         VALIDITY CHECK MASTER PAGE
                                   25718  1                      COMMENT
                                   25719  1                      COMMENT                   CHECK HEADER FIELDS IN ORDER
 0037F4 D505 9000 76CE 00000 03E2C 25720  1                      CLC   RPNAME(6),=C'RECS  '            (MORE OR LESS)
 0037FA 0DF0                       25721  1                      XMARK R15
 0037FC 4770 7288            039E6 25723  1                      BNE   BADPAGE
 003800 D505 900A 76D4 0000A 03E32 25724  1                      CLC   RPNAME2(6),=C'MASTER'
 003806 0DF0                       25725  1                      XMARK R15
 003808 4770 7288            039E6 25727  1                      BNE   BADPAGE
 00380C D503 9006 8030 00006 00008 25728  1                      CLC   RPUTYPE,VCTYPE
 003812 0DF0                       25729  1                      XMARK R15
 003814 4770 7288            039E6 25731  1                      BNE   BADPAGE
 003818 D503 9010 8028 00010 00000 25732  1                      CLC   RPNUMB,VCROOT
 00381E 0DF0                       25733  1                      XMARK R15
 003820 4770 7288            039E6 25735  1                      BNE   BADPAGE
 003824 D503 9018 76AE 00018 03E0C 25736  1                      CLC   RPLINK,=F'0'
1RECS     (RECS2101) (12:53) (15MAR04) RECORD GROUP RECOVERY / VALIDITY CHECK                                               Page  142
0Current Usings:  (*,R7) (VCWA-(4+36),R8) (RPAGE,R9) (CP,R11) (CV,R12)
0Loc    Object Code    Addr1 Addr2  Stmt Lv Lineno    Source Statement           (Hibal 5, Asmedit 3.3)  HLASM R4.0  2004/03/15 12.53
+___    ______ ____    _____ _____  ____ __ ______    ______ _________
000382A 0DF0                       25737  1                      XMARK R15
 00382C 4770 7288            039E6 25739  1                      BNE   BADPAGE
 003830 9180 9014/47E0_00014       25740  1                      IF    RPDATA,BEGIN
 003838 0DF0                       25755  2                        XMARK R15
 00383A 47F0 7288            039E6 25757  2                        B     BADPAGE
 00383E                            25758  1                      END
 00383E 4810 901E            0001E 25762  1                      LH    R1,RPNAMELN
 003842 4111 0004            00004 25763  1                      LA    R1,L'NDXSET(R1)
 003846 4910 901C            0001C 25764  1                      CH    R1,RPKEYLN
 00384A 0DF0                       25765  1                      XMARK R15
 00384C 4770 7288            039E6 25767  1                      BNE   BADPAGE
 003850 4111 0004            00004 25768  1                      LA    R1,L'DATAPGNO(R1)
 003854 4910 9020            00020 25769  1                      CH    R1,RPNTRYLN
 003858 0DF0                       25770  1                      XMARK R15
 00385A 4770 7288            039E6 25772  1                      BNE   BADPAGE
 00385E 4110 9050            00050 25773  1                      LA    R1,RPAREA
 003862 1B19                       25774  1                      SR    R1,PAR
 003864 4910 9022            00022 25775  1                      CH    R1,RPXSTART
 003868 0DF0                       25776  1                      XMARK R15
 00386A 4770 7288            039E6 25778  1                      BNE   BADPAGE
 00386E 4A10 9020            00020 25779  1                      AH    R1,RPNTRYLN
 003872 4910 9024            00024 25780  1                      CH    R1,RPXEND
 003876 0DF0                       25781  1                      XMARK R15
 003878 47B0 7288            039E6 25783  1                      BNL   BADPAGE
 00387C 5810 76B2            03E10 25784  1                      L     R1,=A(L'RPAGE)
 003880 4910 9024            00024 25785  1                      CH    R1,RPXEND
 003884 0DF0                       25786  1                      XMARK R15
 003886 4740 7288            039E6 25788  1                      BL    BADPAGE
 00388A 1B11                       25789  1                      CLEAR R1
 00388C 4910 9026            00026 25793  1                      CH    R1,RPXFIRST
 003890 0DF0                       25794  1                      XMARK R15
 003892 4770 7288            039E6 25796  1                      BNE   BADPAGE
 003896 4910 9028            00028 25797  1                      CH    R1,RPXLAST
 00389A 0DF0                       25798  1                      XMARK R15
 00389C 4770 7288            039E6 25800  1                      BNE   BADPAGE
 0038A0 4910 902A            0002A 25801  1                      CH    R1,RPDSTART
 0038A4 0DF0                       25802  1                      XMARK R15
 0038A6 4770 7288            039E6 25804  1                      BNE   BADPAGE
 0038AA 4910 902C            0002C 25805  1                      CH    R1,RPDEND
 0038AE 0DF0                       25806  1                      XMARK R15
 0038B0 4770 7288            039E6 25808  1                      BNE   BADPAGE
                                   25809  1
                                   25810  1                      COMMENT                   CHECK INDEX ORDER
 0038B4 4810 9022            00022 25811  1                      LH    R1,RPXSTART
 0038B8 1A19                       25812  1                      AR    R1,PAR
 0038BA 4800 9024            00024 25813  1                      LH    R0,RPXEND
 0038BE 1A09                       25814  1                      AR    R0,PAR
 0038C0 1821                       25815  1                      LR    R2,R1
 0038C2 4A10 9020            00020 25816  1                      AH    R1,RPNTRYLN
 0038C6 1910/47B0 7188             25817  1                      WHILE (R1,LT,R0),BEGIN
 0038CC 4830 901C            0001C 25834  2                        LH    R3,RPKEYLN
 0038D0 1841                       25835  2                        LR    R4,R1
 0038D2 1853                       25836  2                        LR    R5,R3
 0038D4 0F24                       25837  2                        CLCL  R2,R4
1RECS     (RECS2101) (12:53) (15MAR04) RECORD GROUP RECOVERY / VALIDITY CHECK                                               Page  143
0Current Usings:  (*,R7) (VCWA-(4+36),R8) (RPAGE,R9) (CP,R11) (CV,R12)
0Loc    Object Code    Addr1 Addr2  Stmt Lv Lineno    Source Statement           (Hibal 5, Asmedit 3.3)  HLASM R4.0  2004/03/15 12.53
+___    ______ ____    _____ _____  ____ __ ______    ______ _________
00038D6 0DF0                       25838  2                        XMARK R15
 0038D8 47B0 7288            039E6 25840  2                        BNL   BADPAGE
 0038DC 1821                       25841  2                        LR    R2,R1
 0038DE 4A10 9020            00020 25842  2                        AH    R1,RPNTRYLN
 0038E2 47F0 7168            038C6 25843  1                      END
                                   25848  1
                                   25849  1                      COMMENT                   CHECK BSEARCH INFO
 0038E6 4100 8142            0011A 25850  1                      LA    R0,VCBINFO          SET UP BINARY SEARCH INFO FOR
 0038EA 5810 76B6            03E14 25851  1                      L     R1,=A(L'RPAREA)     MASTER PAGE
 0038EE 4820 9020            00020 25852  1                      LH    R2,RPNTRYLN
 0038F2 4830 901C            0001C 25853  1                      LH    R3,RPKEYLN
 0038F6 4840 9024            00024 25854  1                      LH    R4,RPXEND
 0038FA 4B40 9022            00022 25855  1                      SH    R4,RPXSTART
 0038FE 58E0 76BA/0DEE       03E18 25856  1                      ACALL BSINIT
 003904 D51F 9030 8142 00030 0011A 25860  1                      CLC   RPINFO(L'BSINFO),VCBINFO
 00390A 0DF0                       25861  1                      XMARK R15
 00390C 4770 7288            039E6 25863  1                      BNE   BADPAGE
                                   25864  1
                                   25865  1                      COMMENT                   NOW CHECK ALL DATA PAGES,,
                                   25866  1                      COMMENT                       POINTED TO BY MASTER INDEXES
 003910 5AD0 76B2            03E10 25867  1                      A     R13,=A(L'RPAGE)     XPUSH TEMP PAGE
 003914 4120 8184            0015C 25868  1                      LA    R2,VCPAGE           COPY MASTER PAGE TO STACK
 003918 5830 76B2            03E10 25869  1                      L     R3,=A(L'RPAGE)
 00391C 1849                       25870  1                      LR    R4,PAR
 00391E 1853                       25871  1                      LR    R5,R3
 003920 0E24                       25872  1                      MVCL  R2,R4
 003922 4160 8184            0015C 25873  1                      LA    R6,VCPAGE           R6 - POINTS TO MASTER PAGE !!
 DROP   RPAGE,R9                   25874  1                      DROP  PAR
 USING  RPAGE,R6                   25881  1                      USING RPAGE,R6
                                   25890  1                      COMMENT
 003926 4840 6022            00022 25891  1                      LH    R4,RPXSTART         CHECK ALL DATA PAGES
 00392A 1A46                       25892  1                      AR    R4,R6
 00392C 4850 6024            00024 25893  1                      LH    R5,RPXEND
 003930 1A56                       25894  1                      AR    R5,R6
 003932 4830 601C            0001C 25895  1                      LH    R3,RPKEYLN
 003936 1945/47B0 7252             25896  1                      WHILE (R4,LT,R5),BEGIN
 00393C 9036 8164            0013C 25913  2                        STM   R3,R6,VCTEMP
 003940 95E2 8034/4780_0000C       25914  2                        IF    (VCFLAGS,NE,C'S'),BEGIN
 003948 5803 4000            00000 25931  3                          L     R0,DATAPGNO(R3,R4)
 00394C 58E0 769E/0DEE       03DFC 25932  3                          PCHK  (R0)
 003952 0DF0                       25940  3                          XMARK R15
 003954 4770 7288            039E6 25942  3                          BNZ   BADPAGE
 003958 58E0 76A2/0DEE       03E00 25943  3                          PGET  PAR,(R0)            GET DATA PAGE INTO @PAR
 00395E                            25951  2                        END
 00395E 7204/47F0 721A 0395E 03946 25955  2                        ELSE  BEGIN ,,            STAND ALONE READ REQUESTED
 003962 58F0 C1E8            001E8 25966  3                          L     R15,CVEMBUFQ        USE EMPTY BUFFER AS WORK AREA
 003966 5813 4000            00000 25967  3                          L     R1,DATAPGNO(R3,R4)  R1 - DATA PAGE NUMBER
 00396A 58E0 7692/0DEE       03DF0 25968  3                          VCALL SAREAD              STAND ALONE READ DATA PAGE
 003970 0DF0                       25972  3                          XMARK R15
 003972 4770 7288            039E6 25974  3                          BNZ   BADPAGE
 003976 1890                       25975  3                          LR    PAR,R0
 003978                            25976  2                        END
                                   25980  2
                                   25981  2                        COMMENT                   CHECK DATA PAGE
1RECS     (RECS2101) (12:53) (15MAR04) RECORD GROUP RECOVERY / VALIDITY CHECK                                               Page  144
0Current Usings:  (RPAGE,R6) (*,R7) (VCWA-(4+36),R8) (CP,R11) (CV,R12)
0Loc    Object Code    Addr1 Addr2  Stmt Lv Lineno    Source Statement           (Hibal 5, Asmedit 3.3)  HLASM R4.0  2004/03/15 12.53
+___    ______ ____    _____ _____  ____ __ ______    ______ _________
0003978 5803 4000            00000 25982  2                        L     R0,DATAPGNO(R3,R4)        PAGE NUMBER
 00397C 5816 0010            00010 25983  2                        L     R1,RPNUMB-RPAGE(R6)       LINK TO MASTER
 003980 1824                       25984  2                        LR    R2,R4                     FIRST ENTRY LIMIT
 003982 1834                       25985  2                        LR    R3,R4                     LAST ENTRY LIMIT
 003984 4A36 0020            00020 25986  2                        AH    R3,RPNTRYLN-RPAGE(R6)
 003988 1935/4750 7234             25987  2                        IF    (R3,GE,R5),BEGIN
 00398E 4130 72A4            03A02 26002  3                          LA    R3,MAXRECD
 003992                            26003  2                        END
 003992 4846 001E            0001E 26007  2                        LH    R4,RPNAMELN-RPAGE(R6)     NAME LENGTH
 003996 4150 8030            00008 26008  2                        LA    R5,VCTYPE                 USER TYPE FIELD
 00399A 58E0 76AA/0DEE       03E08 26009  2                        ACALL CHKDPAGE            CHECK DATA PAGE VALIDITY
 0039A0 4770 7288            039E6 26013  2                        BNZ   BADPAGE
                                   26014  2
 0039A4 9836 8164            0013C 26015  2                        LM    R3,R6,VCTEMP
 0039A8 4A46 0020            00020 26016  2                        AH    R4,RPNTRYLN-RPAGE(R6)
 0039AC 47F0 71D8            03936 26017  1                      END   ,,                  END OF CHECK DATA PAGES LOOP
 0039B0 5BD0 76B2            03E10 26022  1                      S     R13,=A(L'RPAGE)     XPOP TEMP AREA
 0039B4                            26023                       END   ,,                  END OF IF MASTER PAGE
 DROP   RPAGE,R6                   26027                       DROP  R6
 USING  RPAGE,R9                   26034                       USING RPAGE,PAR
                                   26043
                                   26044                       COMMENT                   SET UP RECORD GROUP INFO BLOCK
 USING  RGROUP,R6                  26045                       USING RGROUP,R6
 0039B4 5860 802C            00004 26054                       L     R6,VCRGROUP
 0039B8 1266/4780 7282             26055                       IF    (R6,NZ),BEGIN
 0039BE D71F 6000 6000 00000 00000 26069  1                      CLEAR RGROUP
 0039C4 D203 6000 8028 00000 00000 26076  1                      MVC   RECGRP,VCROOT
 0039CA D203 6004 76BE 00004 03E1C 26077  1                      MVC   RECSET,=F'1'
 0039D0 D201 6008 8038 00008 00010 26078  1                      MVC   RECNLEN,VCNAMELN
 0039D6 9270 600B      0000B       26079  1                      MVI   RECSPLT,128-16
 0039DA D203 600C 9006 0000C 00006 26080  1                      MVC   RECTYPE,RPUTYPE
 0039E0                            26081                       END
 DROP   RGROUP,R6                  26085                       DROP  R6
                                   26092
 0039E0 1BFF                       26093                       CLEAR R15
                                   26097
 0039E2 47F0 728C            039EA 26098                       B     VCHKDONE
                                   26099              *
                                   26100              *  EXITS
                                   26101              *
 0039E6                            26102              BADPAGE  LABEL ,
                                   26104                       COMMENT                   R15 - ERROR DETECTION ADDRESS
 0039E6 47F0 728C            039EA 26105                       B     VCHKDONE
                                   26106
 0039EA                            26107              VCHKDONE LABEL ,
                                   26109                       COMMENT                   IF STAND ALONE READ, ,,
 0039EA 95E2 8034/4770_0000C       26110                       IF    (VCFLAGS,EQ,C'S'),BEGIN    WE CLEAR PAGE POINTER
 0039F2 1B99                       26127  1                      CLEAR PAR                 REQUIRED (WE DO NOT OWN CVEMBUFQ)
 0039F4                            26131                       END
                                   26135                       COMMENT                   R15 - ZERO OR ERR DETECTION ADDR
 0039F4 18D8/9808 D004_            26136                       PEND
 DROP   VCWA-(4+36),R8
 DROP   *,R7
 DROP   RPAGE,R9                   26161                       DROP  PAR
1RECS     (RECS2101) (12:53) (15MAR04) RECORD GROUP RECOVERY / VALIDITY CHECK                                               Page  145
0Current Usings:  (CP,R11) (CV,R12)
0Loc    Object Code    Addr1 Addr2  Stmt Lv Lineno    Source Statement           (Hibal 5, Asmedit 3.3)  HLASM R4.0  2004/03/15 12.53
+___    ______ ____    _____ _____  ____ __ ______    ______ _________
0
 003A02 FFFFFFFFFFFFFFFF           26169              MAXRECD  DC    (MXKEYLN)X'FF'      MAXIMUM RECORD KEY
 003A88                            26170                       DS    0F                  ALIGNMENT
1RECS     (RECS2101) (12:53) (15MAR04) RECORD GROUP RECOVERY / VALIDITY CHECK                                               Page  146
0Current Usings:  (CP,R11) (CV,R12)
0Loc    Object Code    Addr1 Addr2  Stmt Lv Lineno    Source Statement           (Hibal 5, Asmedit 3.3)  HLASM R4.0  2004/03/15 12.53
+___    ______ ____    _____ _____  ____ __ ______    ______ _________
0                                  26172              ¿þþþþþþþþþþþþþþþþþþþþþþþþþþþþþþþþþþþþþþþþþþþþþþþþþþþþþþþþþþþþþþþþþþþþþÜ
                                   26173              Ÿ                                                                     Ÿ
                                   26174              Ÿ                                                                     Ÿ
                                   26175              Ÿ  CHKDPAGE - VALIDITY CHECK DATA PAGE.                               Ÿ
                                   26176              Ÿ                                                                     Ÿ
                                   26177              Ÿ  ON ENTRY:                                                          Ÿ
                                   26178              Ÿ       R0 - PAGE NUMBER                                              Ÿ
                                   26179              Ÿ       R1 - MASTER PAGE LINK                                         Ÿ
                                   26180              Ÿ      @R2 - LIMIT OF FIRST INDEX ON PAGE                             Ÿ
                                   26181              Ÿ      @R3 - LIMIT OF LAST INDEX ON PAGE                              Ÿ
                                   26182              Ÿ       R4 - RECORD NAME LENGTH                                       Ÿ
                                   26183              Ÿ      @R5 - 4 CHARACTER TYPE NAME                                    Ÿ
                                   26184              Ÿ      PAR - PAGE TO CHECK                                            Ÿ
                                   26185              Ÿ                                                                     Ÿ
                                   26186              Ÿ  ON EXIT:                                                           Ÿ
                                   26187              Ÿ      R15 - CC=Z, PAGE VALID                                         Ÿ
                                   26188              Ÿ            CC=NZ, PAGE INVALID, (R15 = ERROR DETECTION ADDR)        Ÿ
                                   26189              Ÿ                                                                     Ÿ
                                   26190              Ÿ                                                                     Ÿ
                                                      ¾þþþþþþþþþþþþþþþþþþþþþþþþþþþþþþþþþþþþþþþþþþþþþþþþþþþþþþþþþþþþþþþþþþþþþ»
0000000                00000 00030 26191              CKDWA    RECORD BEGIN
 000000                            26199  1           CKDFIRST   DS    A
 000004                            26200  1           CKDLAST    DS    A
 000008                            26201  1           CKDNAMLN   DS    A
 00000C                            26202  1           CKDTYPE    DS    F
 000010                            26203  1           CKDBINFO   DS    XL(L'BSINFO)
 000030                            26204  1           CKDTEMP    DS    0H                  PAGED SIZE TEMP AREA
                                   26205  1
 000030                00030 00030 26206                       END
                                   26215              *
                                   26216              *
 003A88 50E0 D000/9008_      00000 26217              CHKDPAGE PROC  CKDWA
 USING  *,R7
 USING  CKDWA-(4+36),R8
 003AA2 5AD0 736E            03E10 26267                       A     R13,=A(L'RPAGE)     XPUSH TEMP AREA
 USING  RPAGE,R9                   26268                       USING RPAGE,PAR
 003AA6 5020 8028            00000 26277                       ST    R2,CKDFIRST         SAVE INPUT PARMS
 003AAA 5030 802C            00004 26278                       ST    R3,CKDLAST
 003AAE 5040 8030            00008 26279                       ST    R4,CKDNAMLN
 003AB2 D203 8034 5000 0000C 00000 26280                       MVC   CKDTYPE(4),0(R5)
                                   26281
                                   26282                       COMMENT                   CHECK HEADER FIELDS,
                                   26283                       COMMENT                     IN APPOX. ORDER OF APPEARANCE
 003AB8 9180 9014/4710_00014       26284                       IF    ~RPDATA,BEGIN
 003AC0 0DF0                       26299  1                      XMARK R15
 003AC2 47F0 7298            03D3A 26301  1                      B     BADDPAGE
 003AC6                            26302                       END
 003AC6 9140 9014/47E0_00014       26306                       IF    RPMASTER,BEGIN
 003ACE 0DF0                       26321  1                      XMARK R15
 003AD0 47F0 7298            03D3A 26323  1                      B     BADDPAGE
 003AD4                            26324                       END
 003AD4 5900 9010            00010 26328                       C     R0,RPNUMB
 003AD8 0DF0                       26329                       XMARK R15
1RECS     (RECS2101) (12:53) (15MAR04) RECORD GROUP RECOVERY / VALIDITY CHECK                                               Page  147
0Current Usings:  (*,R7) (CKDWA-(4+36),R8) (RPAGE,R9) (CP,R11) (CV,R12)
0Loc    Object Code    Addr1 Addr2  Stmt Lv Lineno    Source Statement           (Hibal 5, Asmedit 3.3)  HLASM R4.0  2004/03/15 12.53
+___    ______ ____    _____ _____  ____ __ ______    ______ _________
0003ADA 4770 7298            03D3A 26331                       BNE   BADDPAGE
 003ADE 5910 9018            00018 26332                       C     R1,RPLINK
 003AE2 0DF0                       26333                       XMARK R15
 003AE4 4770 7298            03D3A 26335                       BNE   BADDPAGE
 003AE8 D505 9000 7396 00000 03E38 26336                       CLC   RPNAME(6),=CL6'RECS  '
 003AEE 0DF0                       26337                       XMARK R15
 003AF0 4770 7298            03D3A 26339                       BNE   BADDPAGE
 003AF4 D503 9006 8034 00006 0000C 26340                       CLC   RPUTYPE(4),CKDTYPE
 003AFA 0DF0                       26341                       XMARK R15
 003AFC 4770 7298            03D3A 26343                       BNE   BADDPAGE
 003B00 D505 900A 739C 0000A 03E3E 26344                       CLC   RPNAME2(6),=CL6'DATA  '
 003B06 0DF0                       26345                       XMARK R15
 003B08 4770 7298            03D3A 26347                       BNE   BADDPAGE
 003B0C 5810 8030            00008 26348                       L     R1,CKDNAMLN
 003B10 4910 901E            0001E 26349                       CH    R1,RPNAMELN
 003B14 0DF0                       26350                       XMARK R15
 003B16 4770 7298            03D3A 26352                       BNE   BADDPAGE
 003B1A 4111 0004            00004 26353                       LA    R1,L'NDXSET(R1)
 003B1E 4910 901C            0001C 26354                       CH    R1,RPKEYLN
 003B22 0DF0                       26355                       XMARK R15
 003B24 4770 7298            03D3A 26357                       BNE   BADDPAGE
 003B28 4111 0004            00004 26358                       LA    R1,L'DATAPTR+L'DATALN(R1)
 003B2C 4910 9020            00020 26359                       CH    R1,RPNTRYLN
 003B30 0DF0                       26360                       XMARK R15
 003B32 4770 7298            03D3A 26362                       BNE   BADDPAGE
 003B36 4110 9050            00050 26363                       LA    R1,RPAREA
 003B3A 1B19                       26364                       SR    R1,PAR
 003B3C 4910 9026            00026 26365                       CH    R1,RPXFIRST
 003B40 4770 7298            03D3A 26366                       BNE   BADDPAGE
 003B44 4A10 901C            0001C 26367                       AH    R1,RPKEYLN
 003B48 4910 9028            00028 26368                       CH    R1,RPXLAST
 003B4C 0DF0                       26369                       XMARK R15
 003B4E 4770 7298            03D3A 26371                       BNE   BADDPAGE
 003B52 4A10 901C            0001C 26372                       AH    R1,RPKEYLN
 003B56 4910 9022            00022 26373                       CH    R1,RPXSTART
 003B5A 0DF0                       26374                       XMARK R15
 003B5C 4770 7298            03D3A 26376                       BNE   BADDPAGE
 003B60 4A10 9020            00020 26377                       AH    R1,RPNTRYLN
 003B64 4910 9024            00024 26378                       CH    R1,RPXEND
 003B68 0DF0                       26379                       XMARK R15
 003B6A 4720 7298            03D3A 26381                       BH    BADDPAGE
 003B6E 5810 736E            03E10 26382                       L     R1,=A(L'RPAGE)
 003B72 4910 9024            00024 26383                       CH    R1,RPXEND
 003B76 0DF0                       26384                       XMARK R15
 003B78 4740 7298            03D3A 26386                       BL    BADDPAGE
 003B7C 4910 902A            0002A 26387                       CH    R1,RPDSTART
 003B80 0DF0                       26388                       XMARK R15
 003B82 4770 7298            03D3A 26390                       BNE   BADDPAGE
 003B86 4910 902C            0002C 26391                       CH    R1,RPDEND
 003B8A 0DF0                       26392                       XMARK R15
 003B8C 4740 7298            03D3A 26394                       BL    BADDPAGE
 003B90 4810 9024            00024 26395                       LH    R1,RPXEND
 003B94 4910 902C            0002C 26396                       CH    R1,RPDEND
 003B98 0DF0                       26397                       XMARK R15
1RECS     (RECS2101) (12:53) (15MAR04) RECORD GROUP RECOVERY / VALIDITY CHECK                                               Page  148
0Current Usings:  (*,R7) (CKDWA-(4+36),R8) (RPAGE,R9) (CP,R11) (CV,R12)
0Loc    Object Code    Addr1 Addr2  Stmt Lv Lineno    Source Statement           (Hibal 5, Asmedit 3.3)  HLASM R4.0  2004/03/15 12.53
+___    ______ ____    _____ _____  ____ __ ______    ______ _________
0003B9A 47B0 7298            03D3A 26399                       BNL   BADDPAGE
 003B9E 4820 9026            00026 26400                       LH    R2,RPXFIRST         CHECK FIRST ENTRY LIMIT
 003BA2 1A29                       26401                       AR    R2,PAR
 003BA4 4830 901C            0001C 26402                       LH    R3,RPKEYLN
 003BA8 5840 8028            00000 26403                       L     R4,CKDFIRST
 003BAC 1853                       26404                       LR    R5,R3
 003BAE 0F24                       26405                       CLCL  R2,R4
 003BB0 0DF0                       26406                       XMARK R15
 003BB2 4770 7298            03D3A 26408                       BNE   BADDPAGE
 003BB6 4820 9028            00028 26409                       LH    R2,RPXLAST          CHECK SECOND ENTRY LIMIT
 003BBA 1A29                       26410                       AR    R2,PAR
 003BBC 4830 901C            0001C 26411                       LH    R3,RPKEYLN
 003BC0 5840 802C            00004 26412                       L     R4,CKDLAST
 003BC4 1853                       26413                       LR    R5,R3
 003BC6 0F24                       26414                       CLCL  R2,R4
 003BC8 0DF0                       26415                       XMARK R15
 003BCA 4770 7298            03D3A 26417                       BNE   BADDPAGE
 003BCE 4820 9022            00022 26418                       LH    R2,RPXSTART         CHECK FISRT ENTRY
 003BD2 1A29                       26419                       AR    R2,PAR
 003BD4 4830 901C            0001C 26420                       LH    R3,RPKEYLN
 003BD8 4840 9026            00026 26421                       LH    R4,RPXFIRST
 003BDC 1A49                       26422                       AR    R4,PAR
 003BDE 1853                       26423                       LR    R5,R3
 003BE0 0F24                       26424                       CLCL  R2,R4
 003BE2 0DF0                       26425                       XMARK R15
 003BE4 4740 7298            03D3A 26427                       BL    BADDPAGE
 003BE8 4820 9024            00024 26428                       LH    R2,RPXEND
 003BEC 1A29                       26429                       AR    R2,PAR
 003BEE 4B20 9020            00020 26430                       SH    R2,RPNTRYLN
 003BF2 4830 901C            0001C 26431                       LH    R3,RPKEYLN
 003BF6 4840 9028            00028 26432                       LH    R4,RPXLAST
 003BFA 1A49                       26433                       AR    R4,PAR
 003BFC 1853                       26434                       LR    R5,R3
 003BFE 0F24                       26435                       CLCL  R2,R4
 003C00 0DF0                       26436                       XMARK R15
 003C02 47B0 7298            03D3A 26438                       BNL   BADDPAGE
 003C06 4810 9022            00022 26439                       LH    R1,RPXSTART         CHECK THAT INDEXS ARE SORTED
 003C0A 1A19                       26440                       AR    R1,PAR
 003C0C 4800 9024            00024 26441                       LH    R0,RPXEND
 003C10 1A09                       26442                       AR    R0,PAR
 003C12 1821                       26443                       LR    R2,R1
 003C14 4A10 9020            00020 26444                       AH    R1,RPNTRYLN
 003C18 1910/47B0 7196             26445                       WHILE (R1,LT,R0),BEGIN
 003C1E 4830 9020            00020 26462  1                      LH    R3,RPNTRYLN
 003C22 1841                       26463  1                      LR    R4,R1
 003C24 1853                       26464  1                      LR    R5,R3
 003C26 0F24                       26465  1                      CLCL  R2,R4
 003C28 0DF0                       26466  1                      XMARK R15
 003C2A 47B0 7298            03D3A 26468  1                      BNL   BADDPAGE
 003C2E 1821                       26469  1                      LR    R2,R1
 003C30 4A10 9020            00020 26470  1                      AH    R1,RPNTRYLN
 003C34 47F0 7176            03C18 26471                       END
 003C38 4810 9022            00022 26476                       LH    R1,RPXSTART         CHECK INDEX DATA POINTERS
 003C3C 1A19                       26477                       AR    R1,PAR
1RECS     (RECS2101) (12:53) (15MAR04) RECORD GROUP RECOVERY / VALIDITY CHECK                                               Page  149
0Current Usings:  (*,R7) (CKDWA-(4+36),R8) (RPAGE,R9) (CP,R11) (CV,R12)
0Loc    Object Code    Addr1 Addr2  Stmt Lv Lineno    Source Statement           (Hibal 5, Asmedit 3.3)  HLASM R4.0  2004/03/15 12.53
+___    ______ ____    _____ _____  ____ __ ______    ______ _________
0003C3E 4800 9024            00024 26478                       LH    R0,RPXEND
 003C42 1A09                       26479                       AR    R0,PAR
 003C44 4830 901C            0001C 26480                       LH    R3,RPKEYLN
 003C48 1910/47B0 7212             26481                       WHILE (R1,LT,R0),BEGIN
 003C4E 4823 1000            00000 26498  1                      LH    R2,DATAPTR(R3,R1)   CHECK POINTER LIMITS
 003C52 4843 1002            00002 26499  1                      LH    R4,DATALN(R3,R1)
                                   26500  1                      COMMENT ,                 (CHECK ONLY IF NON-ZERO RECORD)
 003C56 1222/4770 71C0_            26501  1                      IF    ((R2,NZ),OR,(R4,NZ)),BEGIN
 003C62 4920 902C            0002C 26528  2                        CH    R2,RPDEND
 003C66 0DF0                       26529  2                        XMARK R15
 003C68 4740 7298            03D3A 26531  2                        BL    BADDPAGE
 003C6C 4920 902A            0002A 26532  2                        CH    R2,RPDSTART
 003C70 0DF0                       26533  2                        XMARK R15
 003C72 4720 7298            03D3A 26535  2                        BH    BADDPAGE
 003C76 4840 902A            0002A 26536  2                        LH    R4,RPDSTART         CHECK POINTER ROUNDING
 003C7A 1B42                       26537  2                        SR    R4,R2
 003C7C 1824                       26538  2                        LR    R2,R4
 003C7E 8840 0004            00004 26539  2                        SRL   R4,4
 003C82 8940 0004            00004 26540  2                        SLL   R4,4
 003C86 1924                       26541  2                        CR    R2,R4
 003C88 0DF0                       26542  2                        XMARK R15
 003C8A 4770 7298            03D3A 26544  2                        BNE   BADDPAGE
 003C8E 4823 1000            00000 26545  2                        LH    R2,DATAPTR(R3,R1)
 003C92 4843 1002            00002 26546  2                        LH    R4,DATALN(R3,R1)    CHECK DATALEN LIMITS
 003C96 5940 737E            03E20 26547  2                        C     R4,=A(MXDATALN)
 003C9A 0DF0                       26548  2                        XMARK R15
 003C9C 4720 7298            03D3A 26550  2                        BH    BADDPAGE
 003CA0 1A24                       26551  2                        AR    R2,R4
 003CA2 4920 902A            0002A 26552  2                        CH    R2,RPDSTART
 003CA6 0DF0                       26553  2                        XMARK R15
 003CA8 4720 7298            03D3A 26555  2                        BH    BADDPAGE
 003CAC                            26556  1                      END   ,
 003CAC 4A10 9020            00020 26560  1                      AH    R1,RPNTRYLN
 003CB0 47F0 71A6            03C48 26561                       END
                                   26566                       COMMENT                   CHECK FOR OVERLAPPPING RECORD DATA
 003CB4 4120 8058            00030 26567                       LA    R2,CKDTEMP
 003CB8 5830 736E            03E10 26568                       L     R3,=A(L'RPAGE)
 003CBC 1B55                       26569                       SR    R5,R5
 003CBE 0E24                       26570                       MVCL  R2,R4
 003CC0 4160 8058            00030 26571                       LA    R6,CKDTEMP          R6 - ZEROED PAGE SIZED AREA
 003CC4 4810 9022            00022 26572                       LH    R1,RPXSTART
 003CC8 1A19                       26573                       AR    R1,PAR
 003CCA 4800 9024            00024 26574                       LH    R0,RPXEND
 003CCE 1A09                       26575                       AR    R0,PAR
 003CD0 1910/47B0 7268             26576                       WHILE (R1,LT,R0),BEGIN    LOOP CHECKING/MARKING DATA AREAS
 003CD6 4830 901C            0001C 26593  1                      LH    R3,RPKEYLN
 003CDA 4823 1000            00000 26594  1                      LH    R2,DATAPTR(R3,R1)
 003CDE 1A26                       26595  1                      AR    R2,R6
 003CE0 4833 1002            00002 26596  1                      LH    R3,DATALN(R3,R1)
 003CE4 1B55                       26597  1                      SR    R5,R5
 003CE6 0F24                       26598  1                      CLCL  R2,R4               CHECK DATA AREA
 003CE8 0DF0                       26599  1                      XMARK R15
 003CEA 4770 7298            03D3A 26601  1                      BNE   BADDPAGE
 003CEE 4830 901C            0001C 26602  1                      LH    R3,RPKEYLN
1RECS     (RECS2101) (12:53) (15MAR04) RECORD GROUP RECOVERY / VALIDITY CHECK                                               Page  150
0Current Usings:  (*,R7) (CKDWA-(4+36),R8) (RPAGE,R9) (CP,R11) (CV,R12)
0Loc    Object Code    Addr1 Addr2  Stmt Lv Lineno    Source Statement           (Hibal 5, Asmedit 3.3)  HLASM R4.0  2004/03/15 12.53
+___    ______ ____    _____ _____  ____ __ ______    ______ _________
0003CF2 4823 1000            00000 26603  1                      LH    R2,DATAPTR(R3,R1)
 003CF6 1A26                       26604  1                      AR    R2,R6               MARK DATA AREA
 003CF8 4833 1002            00002 26605  1                      LH    R3,DATALN(R3,R1)
 003CFC 5850 7362            03E04 26606  1                      L     R5,=X'FF000000'
 003D00 0E24                       26607  1                      MVCL  R2,R4
 003D02 4A10 9020            00020 26608  1                      AH    R1,RPNTRYLN
 003D06 47F0 722E            03CD0 26609                       END
                                   26614                       COMMENT                   CHECK BSEARCH INFO
 003D0A 4100 8038            00010 26615                       LA    R0,CKDBINFO
 003D0E 5810 7372            03E14 26616                       L     R1,=A(L'RPAREA)
 003D12 4820 9020            00020 26617                       LH    R2,RPNTRYLN
 003D16 4830 901C            0001C 26618                       LH    R3,RPKEYLN
 003D1A 4840 9024            00024 26619                       LH    R4,RPXEND
 003D1E 4B40 9022            00022 26620                       SH    R4,RPXSTART
 003D22 58E0 7376/0DEE       03E18 26621                       ACALL BSINIT
 003D28 D51F 9030 8038 00030 00010 26625                       CLC   RPINFO(L'BSINFO),CKDBINFO
 003D2E 0DF0                       26626                       XMARK R15
 003D30 4770 7298            03D3A 26628                       BNE   BADDPAGE
 003D34 1BFF                       26629                       CLEAR R15                 ALL CHECKED, ALL OK !
                                   26633
 003D36 47F0 729C            03D3E 26634                       B     CKDDONE
                                   26635              *
                                   26636              *  EXITS
                                   26637              *
 003D3A                            26638              BADDPAGE LABEL ,
                                   26640                       COMMENT                   R15 - ERROR DETECTION ADDR
 003D3A 47F0 729C            03D3E 26641                       B     CKDDONE
                                   26642
 003D3E                            26643              CKDDONE  LABEL ,
                                   26645                       COMMENT                   R15 - ZERO OR ERR DETECTION ADDR
 003D3E 5BD0 736E            03E10 26646                       S     R13,=A(L'RPAGE)     XPOP TEMP AREA
 003D42 18D8/9808 D004_            26647                       PEND
 DROP   CKDWA-(4+36),R8
 DROP   *,R7
 DROP   RPAGE,R9                   26672                       DROP  PAR
1RECS     (RECS2101) (12:53) (15MAR04) RECORD GROUP RECOVERY / VALIDITY CHECK                                               Page  151
0Current Usings:  (CP,R11) (CV,R12)
0Loc    Object Code    Addr1 Addr2  Stmt Lv Lineno    Source Statement           (Hibal 5, Asmedit 3.3)  HLASM R4.0  2004/03/15 12.53
+___    ______ ____    _____ _____  ____ __ ______    ______ _________
0                                  26680              *
                                   26681              **
                                   26682              **  CHECK FOR VALID EDIT FORMAT
                                   26683              **
                                   26684              **  ON ENTRY
                                   26685              **       R0 - LENGTH OF DATA
                                   26686              **       R1 - LOCATION OF DATE   (LINE NO. NOT INCLUDED)
                                   26687              **
                                   26688              **  ON EXIT:
                                   26689              **      R15 - CC=ZERO, VALID EDIT FORMAT
                                   26690              **            CC=NZ, INVALID EDIT FORMAT
                                   26691              **
                                   26692              *$ MOVE THIS INTO ACT SOON !!!!
                                   26693              *$ MOVE THIS INTO ACT SOON !!!!
                                   26694              *$ MOVE THIS INTO ACT SOON !!!!
                                   26695              *
 003D50 50E0 D000/9008_      00000 26696              EDITCHK  XPROC
 USING  *,R7
                                   26736
 003D6A 5900 70BA/47A0_      03E24 26737                       IF    (R0,GE,256),BADEDIT
 003D72 1F22/4321 0000             26757                       LC    R2,0(R1)            R2 - EDIT LINE LENGTH -1
 003D78 0600                       26764                       DECR  R0
 003D7A 1920/4770 7062             26766                       IF    (R2,NE,R0),BADEDIT
 003D80 4121 0001            00001 26784                       LA    R2,1(R1)            R2 - LINE INDEX
 003D84 1830                       26785                       LR    R3,R0               R3 - END OF LINE
 003D86 4133 0001            00001 26786                       LA    R3,1(R3,R0)
 003D8A 1B44                       26787                       SR    R4,R4               R4 - COUNT BYTE
 003D8C 1B55                       26788                       SR    R5,R5               R5 - UNPRESSED LINE LENGTH
 003D8E 1923/47B0 704E             26789                       WHILE (R2,LT,R3),BEGIN
 003D94 4342 0000            00000 26806  1                      IC    R4,0(R2)
 003D98 8840 0004            00004 26807  1                      SRL   R4,4                # OF BLANKS
 003D9C 1A54                       26808  1                      AR    R5,R4
 003D9E 4342 0000            00000 26809  1                      IC    R4,0(R2)
 003DA2 8940 001C            0001C 26810  1                      SLL   R4,28
 003DA6 8840 001C            0001C 26811  1                      SRL   R4,28               # OF CHARS
 003DAA 1244/4780 7062             26812  1                      IF    (R4,Z),BADEDIT
 003DB0 1A54                       26829  1                      AR    R5,R4
 003DB2 1A24                       26830  1                      AR    R2,R4
 003DB4 47F0 7024            03D8E 26831                       END
 003DB8 1923/4770 7062             26836                       IF    (R2,NE,R3),BADEDIT
 003DBE 5940 70BE/4720_      03E28 26854                       IF    (R4,GT,&LINESZ),BADEDIT
 003DC6 1BFF                       26874                       CLEAR R15
                                   26878
 003DC8 47F0 706A            03DD4 26879                       B     EDITDONE
                                   26880              *
                                   26881              *  EXITS
                                   26882              *
 003DCC                            26883              BADEDIT  LABEL ,
 003DCC 41F0 0004            00004 26885                       LA    R15,4
 003DD0 47F0 706A            03DD4 26886                       B     EDITDONE
                                   26887
 003DD4                            26888              EDITDONE LABEL ,
 003DD4 18D8/9808 D004_            26890                       PEND
 DROP   *,R7
1RECS     (RECS2101) (12:53) (15MAR04) RECORD GROUP RECOVERY / VALIDITY CHECK                                               Page  152
0Current Usings:  (CP,R11) (CV,R12)
0Loc    Object Code    Addr1 Addr2  Stmt Lv Lineno    Source Statement           (Hibal 5, Asmedit 3.3)  HLASM R4.0  2004/03/15 12.53
+___    ______ ____    _____ _____  ____ __ ______    ______ _________
0                                  26910
1RECS     (RECS2101) (12:53) (15MAR04) RECORD GROUP RECOVERY / VALIDITY CHECK                                               Page  153
0Current Usings:  (CP,R11) (CV,R12)
0Loc    Object Code    Addr1 Addr2  Stmt Lv Lineno    Source Statement           (Hibal 5, Asmedit 3.3)  HLASM R4.0  2004/03/15 12.53
+___    ______ ____    _____ _____  ____ __ ______    ______ _________
0                                  26912                       QLTORG
                                   26945
 003E48                03E48 03E48 26946                       END   .

1RECS     (RECS2101) (12:53) (15MAR04) Relocation Dictionary                                                                Page  154
-   Pos.Id   Rel.Id   Flags    Address                                                       HLASM R4.0  2004/03/15 12.53
0  00000001 00000001    0C    0000032C
   00000001 00000001    0C    00000A48
   00000001 00000001    0C    00000A4C
   00000001 00000001    0C    00000A50
   00000001 00000001    0C    00000A54
   00000001 00000001    0C    00000A58
   00000001 00000001    0C    00000A5C
   00000001 00000001    0C    00000A60
   00000001 00000001    0C    00000A64
   00000001 00000001    0C    00000A68
   00000001 00000001    0C    00000A6C
   00000001 00000001    0C    00000A70
   00000001 00000001    0C    00000A74
   00000001 00000001    0C    00000A78
   00000001 00000001    0C    00000A7C
   00000001 00000001    0C    00001274
   00000001 00000001    0C    00001278
   00000001 00000001    0C    0000127C
   00000001 00000001    0C    00001284
   00000001 00000001    0C    00001288
   00000001 00000001    0C    00001290
   00000001 00000001    0C    00001298
   00000001 00000001    0C    0000129C
   00000001 00000001    0C    000012A0
   00000001 00000001    0C    000012A8
   00000001 00000001    0C    00001DB4
   00000001 00000001    0C    00001DC0
   00000001 00000001    0C    00001DC4
   00000001 00000001    0C    00001DF0
   00000001 00000001    0C    00001DF4
   00000001 00000001    0C    00001DF8
   00000001 00000001    0C    00001DFC
   00000001 00000001    0C    00001E00
   00000001 00000001    0C    00001FB0
   00000001 00000001    0C    00001FB4
   00000001 00000001    0C    00001FB8
   00000001 00000001    0C    00001FBC
   00000001 00000001    0C    000023D4
   00000001 00000001    0C    000023D8
   00000001 00000001    0C    000023E0
   00000001 00000001    0C    000023E4
   00000001 00000001    0C    000023E8
   00000001 00000001    0C    000023F0
   00000001 00000001    0C    00002770
   00000001 00000001    0C    00002CC4
   00000001 00000001    0C    00002CD4
   00000001 00000001    0C    00002CD8
   00000001 00000001    0C    000035E8
   00000001 00000001    0C    000035EC
   00000001 00000001    0C    000035F4
   00000001 00000001    0C    000035F8
   00000001 00000001    0C    00003600
   00000001 00000001    0C    00003608
   00000001 00000001    0C    0000360C
   00000001 00000001    0C    00003610
1RECS     (RECS2101) (12:53) (15MAR04) Relocation Dictionary                                                                Page  155
   00000001 00000001    0C    0000361C
   00000001 00000001    0C    00003620
   00000001 00000001    0C    00003628
   00000001 00000001    0C    00003DEC
   00000001 00000001    0C    00003E08
   00000001 00000001    0C    00003E18
   00000001 00000002    1C    00000314
   00000001 00000002    1C    00001DD0
   00000001 00000003    1C    00000318
   00000001 00000003    1C    00001DD4
   00000001 00000004    1C    0000031C
   00000001 00000004    1C    00001DD8
   00000001 00000005    1C    00000330
   00000001 00000006    1C    00000334
   00000001 00000006    1C    0000128C
   00000001 00000006    1C    00001DAC
   00000001 00000006    1C    00002CC8
   00000001 00000006    1C    00003604
   00000001 00000007    1C    00000338
   00000001 00000007    1C    00001DB8
   00000001 00000008    1C    0000033C
   00000001 00000009    1C    00000340
   00000001 00000009    1C    000012AC
   00000001 00000009    1C    00001DB0
   00000001 00000009    1C    000023C8
   00000001 00000009    1C    00002CC0
   00000001 00000009    1C    00003624
   00000001 00000009    1C    00003E00
   00000001 0000000A    1C    00000344
   00000001 0000000A    1C    00001E04
   00000001 0000000B    1C    00001DC8
   00000001 0000000C    1C    00001DCC
   00000001 0000000C    1C    00003630
   00000001 0000000D    1C    00001DDC
   00000001 0000000E    1C    00001DE0
   00000001 0000000E    1C    0000362C
   00000001 0000000F    1C    00003634
   00000001 00000010    1C    0000363C
   00000001 00000011    1C    00003DF0
   00000001 00000012    1C    00003DF4
   00000001 00000013    1C    00003DF8
   00000001 00000014    1C    00003DFC

1RECS     (RECS2101) (12:53) (15MAR04) Ordinary Symbol and Literal Cross Reference                                          Page  156
-Symbol   Length   Value     Id    R Type   Defn References                                  HLASM R4.0  2004/03/15 12.53
0$$$@R0        1 00000000 FFFFFFFE     J     705  1010
 $$$@R10       1 00000000 FFFFFFF4     J     835  1074
 $$$@R11       1 00000000 FFFFFFF3     J     848  1087
 $$$@R12       1 00000000 FFFFFFF2     J     861  1100
 $$$@R13       1 00000000 FFFFFFF1     J     874  1113
 $$$@R14       1 00000000 FFFFFFF0     J     887  1126
 $$$@R7        1 00000000 FFFFFFF7     J     796  1023
 $$$@R8        1 00000000 FFFFFFF6     J     809  1036   1048
 $$$@R9        1 00000000 FFFFFFF5     J     822  1061
 $$$C1WYLRECS
               1 0000035A 00000001     J    7759  7761   8459
 $$$C10WYLRECS
               1 00003E44 00000001     J   26940 26942
 $$$C11WYLRECS
               1 00003E48 00000001     J   26949 26951
 $$$C2WYLRECS
               1 00000A80 00000001     J   10322 10324  10367  11184  11911  12476
 $$$C3WYLRECS
               1 000012B6 00000001     J   12750 12752  12789  13235  13529  13565  13786  14490  15851
 $$$C4WYLRECS
               1 00001E32 00000001     J   16546 16548
 $$$C5WYLRECS
               1 00001FC4 00000001     J   17100 17102  17525  18022  18173
 $$$C6WYLRECS
               1 000023FA 00000001     J   18724 18726  19074  19166  19278  19563  19956  20048
 $$$C7WYLRECS
               1 00002792 00000001     J   20134 20136  20182  20781
 $$$C8WYLRECS
               1 00002CE4 00000001     J   21841 21843  21899  22658  24138  24364  24413
 $$$C9WYLRECS
               1 00003654 00000001     J   25172 25174  25528  26213
 $$$D3WYLRECS
               1 00001E1A 00000001     J   12751 13224  13518  13554  13775
 $$$D6WYLRECS
               1 0000277A 00000001     J   18725 19063  19155  19945  20037
 $$$D8WYLRECS
               1 00003648 00000001     J   21842 24353  24402
 $$$RADWA      1 00000000 FFFFFFDE     J   14473 14489  14489
 $$$RBDWA      1 00000000 FFFFFFD8     J   19547 19562  19562
 $$$RBNWA      1 00000000 FFFFFFD9     J   19260 19277  19277
 $$$RBSINFO
               1 00000000 FFFFFFE8     J    6621  6641   6641
 $$$RCKDWA
               1 00000000 FFFFFFD1     J   26193 26212  26212
 $$$RCONDWA
               1 00000000 FFFFFFDF     J   12773 12788  12788
 $$$RCP        1 00000000 FFFFFFEC     J    2457  4717   6191   6191
 $$$RCTWA      1 00000000 FFFFFFE1     J   11886 11910  11910
 $$$RCV        1 00000000 FFFFFFEE     J    1182  2367   2367
 $$$RDDWA      1 00000000 FFFFFFE2     J   11159 11183  11183
 $$$RDEV       1 00000000 FFFFFFEB     J    4671  4716   4716
 $$$RDLWA      1 00000000 FFFFFFDD     J   15833 15850  15850
 $$$RJCB       1 00000000 FFFFFFE9     J    6309  6583   6583
 $$$RLCLWA
               1 00000000 FFFFFFD7     J   20164 20181  20181
1RECS     (RECS2101) (12:53) (15MAR04) Ordinary Symbol and Literal Cross Reference                                          Page  157
 $$$RNFWA      1 00000000 FFFFFFD4     J   22626 22657  22657
 $$$RNITWA
               1 00000000 FFFFFFE5     J    6845  6860   6860
 $$$RNMWA      1 00000000 FFFFFFD5     J   21870 21898  21898
 $$$RNSCNCB
               1 00000000 FFFFFFED     J    2378  2451   2451
 $$$RNXWA      1 00000000 FFFFFFD3     J   24120 24137  24137
 $$$RPTLWA
               1 00000000 FFFFFFD6     J   20759 20780  20780
 $$$RPUTWA
               1 00000000 FFFFFFE3     J   10348 10366  10366
 $$$RRGROUP
               1 00000000 FFFFFFE6     J    6761  6785   6785
 $$$RRPAGE
               1 00000000 FFFFFFE7     J    6681  6754   6754
 $$$RSEARCHWA
               1 00000000 FFFFFFE4     J    8441  8458   8458
 $$$RTTYPE
               1 00000000 FFFFFFEA     J    6202  6303   6303
 $$$RVCWA      1 00000000 FFFFFFD2     J   25504 25527  25527
 $$$RXFSWA
               1 00000000 FFFFFFDB     J   18008 18021  18021
 $$$RXLSWA
               1 00000000 FFFFFFDA     J   18159 18172  18172
 $$$RXMISCWA
               1 00000000 FFFFFFDC     J   17506 17524  17524
 $$$RXREPWA
               1 00000000 FFFFFFE0     J   12458 12475  12475
 $$$SEGCB0
               4 00000050 FFFFFFEC     F    2488  2574   2574
 $$$Z0         4 0000030C 00000001     F    7740  7359
 $$$Z1         4 00000A40 00000001     F   10306  8560   8575   8817   8832   9110   9125   9660   9675
 $$$Z2         4 0000126C 00000001     F   12731 10455  10476  10947  10968  11272  11293  11999  12020  12575  12590
 $$$Z3         4 00001DA0 00000001     F   16517 13074  13089  13404  13419  14014  14229  14577
 $$$Z4         4 00001FA8 00000001     F   17093 16664  16914
 $$$Z5         4 000023C4 00000001     F   18710 17383  17856  17871
 $$$Z8         4 000035E0 00000001     F   25146 22344  22953  23091  23486  23673
 $$$100B       4 000005C4 00000001     I    8833  8846
 $$$100F       2 000005CC 00000001     H    8842  8833B  8845
 $$$100T       2 000005C8 00000001     H    8836  8820B
 $$$102E       2 000005D0 00000001     H    8853  8847
 $$$102F       2 0000062E 00000001     H    8938  8849B
 $$$103F       2 000005F0 00000001     H    8881  8867B
 $$$104B       4 00000604 00000001     I    8897  8909
 $$$104F       2 0000060C 00000001     H    8906  8897B  8908
 $$$105E       2 00000610 00000001     H    8916  8910
 $$$105F       2 0000062E 00000001     H    8934  8912B
 $$$106        1 000000DC 00000001 A   U    8964  8961   8963
 $$$108B       1 0000065A 00000001     X    9031  9038U
 $$$109F       2 0000069A 00000001     H    9135  9126B
 $$$109T       2 00000696 00000001     H    9129  9113B
 $$$111F       2 000006C4 00000001     H    9166  9157B
 $$$112F       2 000006E4 00000001     H    9195  9179B
 $$$113F       2 000006F2 00000001     H    9218  9209B
 $$$114        1 000000DC 00000001 A   U    9282  9279   9281
 $$$116B       1 0000075C 00000001     X    9350  9357U
 $$$118F       2 000007A8 00000001     H    9452  9443B
 $$$119        1 000000DC 00000001 A   U    9513  9510   9512
 $$$121B       1 00000818 00000001     X    9581  9588U
1RECS     (RECS2101) (12:53) (15MAR04) Ordinary Symbol and Literal Cross Reference                                          Page  158
 $$$122F       2 00000858 00000001     H    9685  9676B
 $$$122T       2 00000854 00000001     H    9679  9663B
 $$$124F       2 000008A2 00000001     H    9732  9714B
 $$$125F       2 000008B0 00000001     H    9755  9746B
 $$$126        1 000000DC 00000001 A   U    9819  9816   9818
 $$$128B       1 0000091A 00000001     X    9887  9894U
 $$$130F       2 00000966 00000001     H    9989  9980B
 $$$131        1 000000DC 00000001 A   U   10050 10047  10049
 $$$133B       1 000009D6 00000001     X   10115 10122U
 $$$134F       2 000009EC 00000001     H   10164 10151B
 $$$135        1 00000050 00000001 A   U   10184 10181  10183
 $$$137B       1 00000A18 00000001     X   10234 10241U
 $$$138F       2 00000A2E 00000001     H   10276 10263B
 $$$139        1 00000050 00000001 A   U   10296 10293  10295
 $$$141B       1 00000A9A 00000001     X   10397 10404U
 $$$145F       2 00000AF4 00000001     H   10534 10520B
 $$$146F       2 00000B58 00000001     H   10641 10551B
 $$$147F       2 00000B58 00000001     H   10637 10589B
 $$$147T       2 00000B26 00000001     H   10592 10577B
 $$$149F       2 00000B58 00000001     H   10633 10622B
 $$$150B       4 00000B7C 00000001     I   10668 10731
 $$$150F       2 00000BDE 00000001     H   10726 10668B 10730
 $$$151F       2 00000BB8 00000001     H   10704 10692B
 $$$152E       2 00000BE2 00000001     H   10738 10732
 $$$152F       2 00000C44 00000001     H   10780 10734B
 $$$153        1 000000E0 00000001 A   U   10820 10817  10819
 $$$155B       1 00000C80 00000001     X   10882 10889U
 $$$158F       2 00000CD0 00000001     H   11005 10991B
 $$$159F       2 00000D20 00000001     H   11078 11037B
 $$$160        1 000000DC 00000001 A   U   11117 11114  11116
 $$$162B       1 00000D56 00000001     X   11215 11222U
 $$$165F       2 00000D94 00000001     H   11330 11321B
 $$$166F       2 00000DE4 00000001     H   11380 11364B
 $$$167F       2 00000E1C 00000001     H   11416 11407B
 $$$168F       2 00000E52 00000001     H   11472 11443B
 $$$170F       2 00000ECC 00000001     H   11570 11489B
 $$$171F       2 00000ECC 00000001     H   11566 11553B
 $$$172F       2 00000FDA 00000001     H   11806 11587B
 $$$173F       2 00000EF8 00000001     H   11631 11616B
 $$$173S       2 00000EE0 00000001     H   11606 11630B
 $$$175F       2 00000F4A 00000001     H   11710 11697B
 $$$176F       2 00000FDA 00000001     H   11802 11789B
 $$$177        1 00000168 00000001 A   U   11845 11842  11844
 $$$179B       1 00001010 00000001     X   11942 11949U
 $$$182F       2 0000104E 00000001     H   12057 12048B
 $$$183F       2 00001086 00000001     H   12097 12088B
 $$$184F       2 000010D6 00000001     H   12146 12130B
 $$$185F       2 0000110C 00000001     H   12202 12173B
 $$$187F       2 0000111E 00000001     H   12230 12220B
 $$$188F       2 0000116C 00000001     H   12325 12265B
 $$$188S       2 0000112C 00000001     H   12255 12324B
 $$$190F       2 0000114C 00000001     H   12294 12282B
 $$$190S       2 00001136 00000001     H   12275 12293B
 $$$192F       2 0000115C 00000001     H   12316 12306B
 $$$193F       2 00001188 00000001     H   12355 12343B
 $$$193S       2 00001172 00000001     H   12336 12354B
 $$$195        1 00000168 00000001 A   U   12403 12400  12402
 $$$197B       1 000011C4 00000001     X   12506 12513U
 $$$198F       2 000011FC 00000001     H   12601 12591B
1RECS     (RECS2101) (12:53) (15MAR04) Ordinary Symbol and Literal Cross Reference                                          Page  159
 $$$198T       2 000011F4 00000001     H   12594 12578B
 $$$200F       2 0000122A 00000001     H   12636 12626B
 $$$201F       2 00001248 00000001     H   12665 12655B
 $$$202        1 000000DC 00000001 A   U   12707 12704  12706
 $$$204B       1 000012D0 00000001     X   12819 12826U
 $$$205F       2 0000133C 00000001     H   12906 12882B
 $$$205S       2 00001302 00000001     H   12875 12905B
 $$$207        1 00000060 00000001 A   U   12977 12974  12976
 $$$209B       1 0000138C 00000001     X   13025 13032U
 $$$210F       2 000013A6 00000001     H   13099 13090B
 $$$210T       2 000013A2 00000001     H   13093 13077B
 $$$212F       2 000013D2 00000001     H   13136 13127B
 $$$213F       2 000013EA 00000001     H   13176 13152B 13167B
 $$$215F       2 0000140C 00000001     H   13216 13207B
 $$$215T       2 00001408 00000001     H   13210 13197B
 $$$217        6 00001E1A 00000001     I   13230 13222X
 $$$218        6 00001E1A 00000001     I   13229 13230  13230
 $$$219F       2 0000141E 00000001     H   13252 13243B
 $$$220        1 00000050 00000001 A   U   13293 13290  13292
 $$$222B       1 0000145A 00000001     X   13355 13362U
 $$$223F       2 00001474 00000001     H   13429 13420B
 $$$223T       2 00001470 00000001     H   13423 13407B
 $$$225F       2 000014A0 00000001     H   13466 13457B
 $$$226F       2 000014B8 00000001     H   13506 13482B 13497B
 $$$228        6 00001E20 00000001     I   13524 13516X
 $$$229        6 00001E20 00000001     I   13523 13524  13524
 $$$230F       2 000014D6 00000001     H   13546 13537B
 $$$231        6 00001E26 00000001     I   13560 13552X
 $$$232        6 00001E26 00000001     I   13559 13560  13560
 $$$233F       2 000014E8 00000001     H   13582 13573B
 $$$234        1 00000050 00000001 A   U   13617 13614  13616
 $$$236B       1 0000151E 00000001     X   13675 13682U
 $$$238F       2 000015BE 00000001     H   13878 13756B
 $$$239        6 00001E2C 00000001     I   13781 13773X
 $$$240        6 00001E2C 00000001     I   13780 13781  13781
 $$$241F       2 00001572 00000001     H   13803 13794B
 $$$242F       2 00001586 00000001     H   13827 13818B
 $$$243F       2 00001592 00000001     H   13848 13838B
 $$$244        1 00000050 00000001 A   U   13900 13897  13899
 $$$246B       1 000015E8 00000001     X   13958 13965U
 $$$247B       4 000015F0 00000001     I   14015 14027
 $$$247F       2 000015F8 00000001     H   14024 14015B 14026
 $$$248E       2 000015FC 00000001     H   14034 14028
 $$$248F       2 0000163A 00000001     H   14092 14030B
 $$$249B       4 0000160C 00000001     I   14047 14060
 $$$249F       2 00001614 00000001     H   14056 14047B 14059
 $$$250E       2 00001618 00000001     H   14067 14061
 $$$250F       2 0000163A 00000001     H   14088 14063B
 $$$251        1 000000DC 00000001 A   U   14115 14112  14114
 $$$253B       1 00001662 00000001     X   14173 14180U
 $$$254B       4 0000166A 00000001     I   14230 14242
 $$$254F       2 00001672 00000001     H   14239 14230B 14241
 $$$255E       2 00001676 00000001     H   14249 14243
 $$$255F       2 00001708 00000001     H   14404 14245B
 $$$256B       4 00001684 00000001     I   14265 14278
 $$$256F       2 0000168C 00000001     H   14274 14265B 14277
 $$$257E       2 00001690 00000001     H   14285 14279
 $$$257F       2 00001708 00000001     H   14400 14281B
 $$$258F       2 000016CC 00000001     H   14331 14320B
1RECS     (RECS2101) (12:53) (15MAR04) Ordinary Symbol and Literal Cross Reference                                          Page  160
 $$$259F       2 000016E6 00000001     H   14357 14346B
 $$$260F       2 000016F8 00000001     H   14382 14371B
 $$$261        1 000000DC 00000001 A   U   14427 14424  14426
 $$$263B       1 00001730 00000001     X   14519 14526U
 $$$264F       2 00001746 00000001     H   14591 14578B
 $$$265F       2 0000178A 00000001     H   14658 14642B
 $$$266B       4 000017B2 00000001     I   14732 14748
 $$$266F       2 000017BC 00000001     H   14745 14732B 14747
 $$$267E       2 000017C0 00000001     H   14755 14749
 $$$267F       2 000017C6 00000001     H   14765 14751B
 $$$268F       2 000017D0 00000001     H   14785 14772B
 $$$269B       4 00001808 00000001     I   14862 14880
 $$$269F       2 00001818 00000001     H   14877 14862B 14879
 $$$270E       2 0000181C 00000001     H   14887 14881
 $$$270F       2 00001826 00000001     H   14898 14883B
 $$$271F       2 0000183E 00000001     H   14938 14929B
 $$$272F       2 0000184A 00000001     H   14957 14948B
 $$$273F       2 00001898 00000001     H   15030 15000B 15014B
 $$$273S       2 0000186C 00000001     H   14991 15029B
 $$$276F       2 000018A2 00000001     H   15050 15041B
 $$$277F       2 000019B2 00000001     H   15248 15237B
 $$$278        1 000000E0 00000001 A   U   15293 15290  15292
 $$$280B       1 000019E8 00000001     X   15350 15357U
 $$$281B       4 00001A12 00000001     I   15442 15458
 $$$281F       2 00001A1C 00000001     H   15455 15442B 15457
 $$$282E       2 00001A20 00000001     H   15465 15459
 $$$282F       2 00001A26 00000001     H   15475 15461B
 $$$283F       2 00001A30 00000001     H   15495 15482B
 $$$284B       4 00001A76 00000001     I   15581 15599
 $$$284F       2 00001A86 00000001     H   15596 15581B 15598
 $$$285E       2 00001A8A 00000001     H   15606 15600
 $$$285F       2 00001A94 00000001     H   15617 15602B
 $$$286        1 00000050 00000001 A   U   15800 15797  15799
 $$$288B       1 00001B78 00000001     X   15880 15887U
 $$$289F       2 00001B84 00000001     H   15945 15934B
 $$$290F       2 00001BE0 00000001     H   16016 16005B
 $$$291F       2 00001C30 00000001     H   16078 16067B
 $$$292F       2 00001C4A 00000001     H   16106 16095B
 $$$293F       2 00001C7A 00000001     H   16142 16127B
 $$$294        1 00000164 00000001 A   U   16215 16212  16214
 $$$296B       1 00001CF0 00000001     X   16271 16278U
 $$$297        1 00000050 00000001 A   U   16493 16490  16492
 $$$299B       1 00001E4C 00000001     X   16603 16610U
 $$$300F       2 00001E70 00000001     H   16675 16665B
 $$$301F       2 00001E8A 00000001     H   16702 16685B
 $$$302F       2 00001ED4 00000001     H   16763 16731B
 $$$303F       2 00001ECE 00000001     H   16757 16747B
 $$$304        1 000000DC 00000001 A   U   16797 16794  16796
 $$$306B       1 00001F02 00000001     X   16858 16865U
 $$$307F       2 00001F2C 00000001     H   16936 16926B
 $$$307T       2 00001F24 00000001     H   16929 16917B
 $$$309F       2 00001F56 00000001     H   16968 16959B
 $$$310F       2 00001F82 00000001     H   17015 16981B
 $$$311F       2 00001F78 00000001     H   17007 16997B
 $$$312F       2 00001F94 00000001     H   17035 17025B
 $$$313        1 000000DC 00000001 A   U   17069 17066  17068
 $$$315B       1 00001FDE 00000001     X   17143 17150U
 $$$316        1 00000050 00000001 A   U   17188 17185  17187
 $$$318B       1 00002010 00000001     X   17234 17241U
1RECS     (RECS2101) (12:53) (15MAR04) Ordinary Symbol and Literal Cross Reference                                          Page  161
 $$$319F       2 00002022 00000001     H   17278 17269B
 $$$320        1 00000050 00000001 A   U   17296 17293  17295
 $$$322B       1 0000204A 00000001     X   17340 17347U
 $$$323F       2 00002092 00000001     H   17451 17384B
 $$$324F       2 00002092 00000001     H   17447 17417B
 $$$325F       2 00002092 00000001     H   17443 17431B
 $$$326        1 00000050 00000001 A   U   17471 17468  17470
 $$$328B       1 000020BC 00000001     X   17555 17562U
 $$$329F       2 000020CA 00000001     H   17617 17608B
 $$$330F       2 0000214E 00000001     H   17710 17660B
 $$$331F       2 0000214E 00000001     H   17706 17694B
 $$$332        1 00000158 00000001 A   U   17735 17732  17734
 $$$334B       1 00002178 00000001     X   17793 17800U
 $$$335B       4 00002192 00000001     I   17872 17889
 $$$335F       2 00002198 00000001     H   17884 17872B 17888
 $$$335T       2 00002196 00000001     H   17875 17844B 17859B
 $$$338E       2 0000219C 00000001     H   17896 17890
 $$$338F       2 000021D6 00000001     H   17955 17892B
 $$$339B       4 000021C2 00000001     I   17921 17933
 $$$339F       2 000021CA 00000001     H   17930 17921B 17932
 $$$340E       2 000021CE 00000001     H   17940 17934
 $$$340F       2 000021D0 00000001     H   17949 17936B
 $$$341        1 00000158 00000001 A   U   17979 17976  17978
 $$$343B       1 000021FE 00000001     X   18052 18059U
 $$$344F       2 0000221C 00000001     H   18111 18102B
 $$$345        1 000000D0 00000001 A   U   18137 18134  18136
 $$$347B       1 00002248 00000001     X   18203 18210U
 $$$348F       2 00002268 00000001     H   18259 18250B
 $$$349        1 000000D0 00000001 A   U   18285 18282  18284
 $$$351B       1 00002294 00000001     X   18330 18337U
 $$$352        1 00000158 00000001 A   U   18416 18413  18415
 $$$354B       1 00002302 00000001     X   18467 18474U
 $$$355        1 00000158 00000001 A   U   18554 18551  18553
 $$$357B       1 00002372 00000001     X   18604 18611U
 $$$358        1 00000158 00000001 A   U   18693 18690  18692
 $$$360B       1 00002414 00000001     X   18781 18788U
 $$$361F       2 00002448 00000001     H   18851 18840B
 $$$361S       2 00002436 00000001     H   18833 18850B
 $$$363F       2 0000245A 00000001     H   18876 18866B
 $$$364F       2 00002464 00000001     H   18895 18886B
 $$$365        1 00000050 00000001 A   U   18920 18917  18919
 $$$367B       1 0000248C 00000001     X   18973 18980U
 $$$368F       2 000024D4 00000001     H   19116 19022B
 $$$368S       2 000024A6 00000001     H   19013 19115B
 $$$370B       4 000024B6 00000001     I   19039 19051
 $$$370F       2 000024BC 00000001     H   19048 19039B 19050
 $$$371E       2 000024C0 00000001     H   19058 19052
 $$$371F       2 000024D0 00000001     H   19111 19054B
 $$$372        6 0000277A 00000001     I   19069 19061X
 $$$373        6 0000277A 00000001     I   19068 19069  19069
 $$$374B       4 000024C4 00000001     I   19082 19094
 $$$374F       2 000024CA 00000001     H   19091 19082B 19093
 $$$375E       2 000024CE 00000001     H   19101 19095
 $$$375F       2 000024D0 00000001     H   19107 19097B
 $$$376F       2 00002506 00000001     H   19206 19135B 19146B
 $$$376S       2 000024E2 00000001     H   19126 19205B
 $$$379        6 00002780 00000001     I   19161 19153X
 $$$380        6 00002780 00000001     I   19160 19161  19161
 $$$381F       2 000024FC 00000001     H   19184 19174B
1RECS     (RECS2101) (12:53) (15MAR04) Ordinary Symbol and Literal Cross Reference                                          Page  162
 $$$382F       2 00002502 00000001     H   19201 19191B
 $$$383        1 00000050 00000001 A   U   19229 19226  19228
 $$$385B       1 00002536 00000001     X   19308 19315U
 $$$386B       4 0000254A 00000001     I   19359 19378
 $$$386F       2 00002560 00000001     H   19373 19359B 19377
 $$$387E       2 00002564 00000001     H   19385 19379
 $$$387F       2 000025DA 00000001     H   19477 19381B
 $$$388F       2 0000257E 00000001     H   19410 19401B
 $$$389F       2 000025DA 00000001     H   19473 19421B
 $$$391        1 0000005C 00000001 A   U   19518 19515  19517
 $$$393B       1 00002618 00000001     X   19593 19600U
 $$$394B       4 00002628 00000001     I   19643 19682
 $$$394F       2 0000266E 00000001     H   19677 19643B 19681
 $$$395E       2 00002672 00000001     H   19689 19683
 $$$395F       2 00002676 00000001     H   19695 19685B
 $$$396        1 00000054 00000001 A   U   19724 19721  19723
 $$$398B       1 000026AE 00000001     X   19787 19794U
 $$$399F       2 000026DE 00000001     H   19863 19840B 19852B
 $$$399S       2 000026CA 00000001     H   19830 19862B
 $$$402F       2 000026EC 00000001     H   19887 19877B
 $$$403F       2 0000271A 00000001     H   19998 19903B
 $$$403S       2 000026EC 00000001     H   19894 19997B
 $$$405B       4 000026FC 00000001     I   19920 19932
 $$$405F       2 00002702 00000001     H   19929 19920B 19931
 $$$406E       2 00002706 00000001     H   19939 19933
 $$$406F       2 00002716 00000001     H   19993 19935B
 $$$407        6 00002786 00000001     I   19951 19943X
 $$$408        6 00002786 00000001     I   19950 19951  19951
 $$$409B       4 0000270A 00000001     I   19964 19976
 $$$409F       2 00002710 00000001     H   19973 19964B 19975
 $$$410E       2 00002714 00000001     H   19983 19977
 $$$410F       2 00002716 00000001     H   19989 19979B
 $$$411F       2 0000274C 00000001     H   20088 20017B 20028B
 $$$411S       2 00002728 00000001     H   20008 20087B
 $$$414        6 0000278C 00000001     I   20043 20035X
 $$$415        6 0000278C 00000001     I   20042 20043  20043
 $$$416F       2 00002742 00000001     H   20066 20056B
 $$$417F       2 00002748 00000001     H   20083 20073B
 $$$418        1 00000050 00000001 A   U   20111 20108  20110
 $$$420B       1 000027AC 00000001     X   20214 20221U
 $$$423F       2 000027DE 00000001     H   20319 20308B
 $$$428F       2 00002844 00000001     H   20456 20439B
 $$$43B        1 0000003E 00000001     X    6891  6898U
 $$$430B       4 0000284A 00000001     I   20473 20501
 $$$430F       2 0000286C 00000001     H   20494 20473B 20500
 $$$431B       4 0000287C 00000001     I   20529 20555
 $$$431E       2 00002870 00000001     H   20508 20502
 $$$431F       2 0000288C 00000001     H   20547 20504B 20517B 20529B 20552
 $$$433B       4 00002876 00000001     I   20517 20553
 $$$434B       4 0000289C 00000001     I   20587 20618
 $$$434E       2 00002890 00000001     H   20562 20554  20556
 $$$434F       2 000028C8 00000001     H   20610 20558B 20575B 20587B 20615
 $$$436B       4 00002896 00000001     I   20575 20616
 $$$437B       4 000028CE 00000001     I   20634 20647
 $$$437E       2 000028CC 00000001     H   20625 20617  20619
 $$$437F       2 000028D6 00000001     H   20643 20621B 20634B 20646
 $$$439E       2 000028DA 00000001     H   20654 20648
 $$$439F       2 000028DC 00000001     H   20661 20650B
 $$$44B        4 0000006E 00000001     I    6963  6978
1RECS     (RECS2101) (12:53) (15MAR04) Ordinary Symbol and Literal Cross Reference                                          Page  163
 $$$44F        2 00000078 00000001     H    6975  6963B  6977
 $$$440        1 00000068 00000001 A   U   20709 20706  20708
 $$$442B       1 0000291A 00000001     X   20811 20818U
 $$$445F       2 00002952 00000001     H   20917 20906B
 $$$45E        2 0000007C 00000001     H    6985  6979
 $$$45F        2 00000082 00000001     H    6994  6981B
 $$$450F       2 000029B8 00000001     H   21054 21037B
 $$$453B       4 000029DA 00000001     I   21121 21216
 $$$453F       2 00002A5A 00000001     H   21206 21109B 21121B 21213
 $$$454B       4 000029D4 00000001     I   21109 21214
 $$$456B       4 00002A6E 00000001     I   21250 21360
 $$$456E       2 00002A5E 00000001     H   21223 21215  21217
 $$$456F       2 00002B16 00000001     H   21350 21219B 21236B 21250B 21357
 $$$458B       4 00002A64 00000001     I   21236 21358
 $$$46F        2 0000008C 00000001     H    7013  7001B
 $$$460B       4 00002B20 00000001     I   21378 21489
 $$$460E       2 00002B1A 00000001     H   21367 21359  21361
 $$$460F       2 00002BB0 00000001     H   21481 21363B 21378B 21488
 $$$463B       4 00002B52 00000001     I   21422 21440
 $$$463F       2 00002B6E 00000001     H   21437 21422B 21439
 $$$464E       2 00002B72 00000001     H   21447 21441
 $$$464F       2 00002B98 00000001     H   21463 21443B
 $$$465B       4 00002BBA 00000001     I   21507 21614
 $$$465E       2 00002BB4 00000001     H   21496 21490
 $$$465F       2 00002C4A 00000001     H   21610 21492B 21507B 21613
 $$$468B       4 00002BEC 00000001     I   21551 21569
 $$$468F       2 00002C08 00000001     H   21566 21551B 21568
 $$$469E       2 00002C0C 00000001     H   21576 21570
 $$$469F       2 00002C32 00000001     H   21592 21572B
 $$$47F        2 0000014C 00000001     H    7105  7091B
 $$$470E       2 00002C4E 00000001     H   21621 21615
 $$$470F       2 00002C50 00000001     H   21628 21617B
 $$$471B       4 00002C5E 00000001     I   21654 21686
 $$$471F       2 00002C6C 00000001     H   21683 21654B 21685
 $$$473E       2 00002C70 00000001     H   21693 21687
 $$$473F       2 00002C7C 00000001     H   21719 21689B
 $$$475F       2 00002C90 00000001     H   21745 21736B
 $$$476F       2 00002C9A 00000001     H   21764 21755B
 $$$477        1 0000006C 00000001 A   U   21807 21804  21806
 $$$479B       1 00002CFE 00000001     X   21929 21936U
 $$$48F        2 00000158 00000001     H    7132  7118B
 $$$480F       2 00002D1C 00000001     H   21994 21983B
 $$$481F       2 00002D52 00000001     H   22026 22017B
 $$$482F       2 00002D8E 00000001     H   22058 22049B
 $$$483F       2 00002D9E 00000001     H   22081 22072B
 $$$484F       2 00002DB4 00000001     H   22105 22096B
 $$$486F       2 00002DE6 00000001     H   22209 22142B
 $$$488F       2 00002DE6 00000001     H   22203 22183B
 $$$49B        4 0000015C 00000001     I    7143  7161
 $$$49F        2 0000016C 00000001     H    7158  7143B  7160
 $$$490F       2 00002E0E 00000001     H   22290 22223B
 $$$492F       2 00002E0E 00000001     H   22284 22264B
 $$$494F       2 00002E1A 00000001     H   22324 22313B
 $$$496F       2 00002E62 00000001     H   22409 22380B 22391B
 $$$496S       2 00002E3C 00000001     H   22368 22408B
 $$$499F       2 00002E78 00000001     H   22446 22426B
 $$$50E        2 00000170 00000001     H    7168  7162
 $$$50F        2 0000017A 00000001     H    7179  7164B
 $$$501F       2 00002ED6 00000001     H   22522 22476B 22487B
1RECS     (RECS2101) (12:53) (15MAR04) Ordinary Symbol and Literal Cross Reference                                          Page  164
 $$$501S       2 00002E90 00000001     H   22464 22521B
 $$$504        1 00000070 00000001 A   U   22590 22587  22589
 $$$506B       1 00002F3E 00000001     X   22688 22695U
 $$$51F        2 0000019C 00000001     H    7219  7205B
 $$$511F       2 00002F7E 00000001     H   22833 22822B
 $$$512F       2 00002FB4 00000001     H   22865 22856B
 $$$513F       2 00002FF0 00000001     H   22897 22888B
 $$$514F       2 00003000 00000001     H   22920 22911B
 $$$516F       2 00003038 00000001     H   23021 22954B
 $$$52         1 0000005C 00000001 A   U    7247  7244   7246
 $$$523F       2 00003080 00000001     H   23159 23092B
 $$$530F       2 000030C0 00000001     H   23291 23237B
 $$$531F       2 000030B6 00000001     H   23266 23255B
 $$$533F       2 000030E0 00000001     H   23359 23305B
 $$$534F       2 000030D6 00000001     H   23334 23323B
 $$$536F       2 000030EC 00000001     H   23384 23373B
 $$$537F       2 000030F8 00000001     H   23418 23407B
 $$$538F       2 00003166 00000001     H   23539 23455B 23466B
 $$$538S       2 00003112 00000001     H   23443 23538B
 $$$54B        1 000001C6 00000001     X    7299  7306U
 $$$541F       2 00003138 00000001     H   23497 23487B
 $$$542F       2 00003150 00000001     H   23527 23511B
 $$$545F       2 00003186 00000001     H   23612 23592B
 $$$547F       2 00003214 00000001     H   23743 23642B 23653B
 $$$547S       2 000031A0 00000001     H   23630 23742B
 $$$55F        2 000002BA 00000001     H    7589  7345B  7360B
 $$$550F       2 000031C6 00000001     H   23684 23674B
 $$$551F       2 000031DE 00000001     H   23714 23698B
 $$$553        1 0000007C 00000001 A   U   23833 23830  23832
 $$$555B       1 00003288 00000001     X   23899 23906U
 $$$556F       2 000032B8 00000001     H   23974 23963B
 $$$557F       2 000032DC 00000001     H   24004 23988B
 $$$558F       2 000032EA 00000001     H   24027 24018B
 $$$559        1 000000DC 00000001 A   U   24076 24073  24075
 $$$561B       1 0000333E 00000001     X   24168 24175U
 $$$562F       2 00003380 00000001     H   24259 24249B
 $$$563F       2 00003500 00000001     H   24687 24272B
 $$$564        6 00003648 00000001     I   24359 24351X
 $$$565        6 00003648 00000001     I   24358 24359  24359
 $$$566F       2 000033D2 00000001     H   24381 24372B
 $$$567        6 0000364E 00000001     I   24408 24400X
 $$$568        6 0000364E 00000001     I   24407 24408  24408
 $$$569F       2 000033FE 00000001     H   24430 24421B
 $$$57F        2 0000020C 00000001     H    7414  7397B
 $$$570F       2 00003412 00000001     H   24457 24448B
 $$$571F       2 0000341A 00000001     H   24477 24468B
 $$$572F       2 0000342C 00000001     H   24500 24491B
 $$$573F       2 00003434 00000001     H   24520 24511B
 $$$574F       2 000034F4 00000001     H   24670 24560B
 $$$574S       2 0000343E 00000001     H   24553 24669B
 $$$576F       2 000034F0 00000001     H   24665 24622B
 $$$577        1 00000060 00000001 A   U   24715 24712  24714
 $$$579B       1 0000352A 00000001     X   24762 24769U
 $$$58F        2 000002AE 00000001     H    7575  7427B
 $$$580F       2 0000356E 00000001     H   24917 24788B
 $$$581F       2 0000354C 00000001     H   24849 24807B 24826B
 $$$585F       2 00003568 00000001     H   24906 24864B 24883B
 $$$589        1 00000050 00000001 A   U   24935 24932  24934
 $$$59F        2 0000028A 00000001     H    7530  7492B
1RECS     (RECS2101) (12:53) (15MAR04) Ordinary Symbol and Literal Cross Reference                                          Page  165
 $$$59S        2 00000248 00000001     H    7485  7529B
 $$$591B       1 00003596 00000001     X   24972 24979U
 $$$592F       2 000035D0 00000001     H   25117 24998B
 $$$593F       2 000035B4 00000001     H   25056 25017B
 $$$595F       2 000035B4 00000001     H   25052 25035B
 $$$597F       2 000035CA 00000001     H   25108 25069B
 $$$599F       2 000035CA 00000001     H   25104 25087B
 $$$601        1 00000050 00000001 A   U   25135 25132  25134
 $$$602F       2 00003736 00000001     H   25455 25446B
 $$$603B       1 0000366E 00000001     X   25229 25236U
 $$$604F       2 000036D6 00000001     H   25337 25294B
 $$$605F       2 000036D6 00000001     H   25333 25317B
 $$$605S       2 000036BC 00000001     H   25310 25332B
 $$$607F       2 0000371A 00000001     H   25399 25356B
 $$$608F       2 0000371A 00000001     H   25395 25379B
 $$$608S       2 00003700 00000001     H   25372 25394B
 $$$61         1 00000050 00000001 A   U    7618  7615   7617
 $$$610F       2 0000372C 00000001     H   25435 25420B
 $$$611        1 00000050 00000001 A   U   25464 25461  25463
 $$$613B       1 0000375E 00000001     X   25558 25565U
 $$$614B       4 00003776 00000001     I   25603 25633
 $$$614F       2 0000378C 00000001     H   25630 25603B 25632
 $$$615E       2 00003790 00000001     H   25640 25634
 $$$615F       2 000037A4 00000001     H   25655 25636B
 $$$616F       2 000037EC 00000001     H   25700 25670B
 $$$617F       2 000039B4 00000001     H   26026 25713B
 $$$618F       2 0000383E 00000001     H   25761 25750B
 $$$619F       2 000038E6 00000001     H   25847 25829B
 $$$619S       2 000038C6 00000001     H   25822 25846B
 $$$621F       2 000039B0 00000001     H   26021 25908B
 $$$621S       2 00003936 00000001     H   25901 26020B
 $$$623B       4 00003944 00000001     I   25926 25957
 $$$623F       2 0000395E 00000001     H   25954 25926B 25956
 $$$624E       2 00003962 00000001     H   25964 25958
 $$$624F       2 00003978 00000001     H   25979 25960B
 $$$625F       2 00003992 00000001     H   26006 25997B
 $$$626F       2 000039E0 00000001     H   26084 26064B
 $$$627F       2 000039F4 00000001     H   26134 26122B
 $$$628        1 000001AC 00000001 A   U   26158 26155  26157
 $$$63B        1 000002EA 00000001     X    7675  7682U
 $$$630B       1 00003AA2 00000001     X   26242 26249U
 $$$631F       2 00003AC6 00000001     H   26305 26294B
 $$$632F       2 00003AD4 00000001     H   26327 26316B
 $$$633F       2 00003C38 00000001     H   26475 26457B
 $$$633S       2 00003C18 00000001     H   26450 26474B
 $$$635F       2 00003CB4 00000001     H   26565 26493B
 $$$635S       2 00003C48 00000001     H   26486 26564B
 $$$637F       2 00003CAC 00000001     H   26559 26523B
 $$$637T       2 00003C62 00000001     H   26526 26514B
 $$$639F       2 00003D0A 00000001     H   26613 26588B
 $$$639S       2 00003CD0 00000001     H   26581 26612B
 $$$64         1 00000050 00000001 A   U    7723  7720   7722
 $$$641        1 00000080 00000001 A   U   26669 26666  26668
 $$$643B       1 00003D6A 00000001     X   26720 26727U
 $$$646F       2 00003DB8 00000001     H   26835 26801B
 $$$646S       2 00003D8E 00000001     H   26794 26834B
 $$$651        1 00000050 00000001 A   U   26907 26904  26906
 $$$66B        1 00000374 00000001     X    7812  7819U
 $$$67F        2 00000390 00000001     H    7871  7840B
1RECS     (RECS2101) (12:53) (15MAR04) Ordinary Symbol and Literal Cross Reference                                          Page  166
 $$$68F        2 0000038A 00000001     H    7864  7855B
 $$$69         1 00000050 00000001 A   U    7891  7888   7890
 $$$71B        1 000003BC 00000001     X    7942  7949U
 $$$72F        2 000003D8 00000001     H    8001  7970B
 $$$73F        2 000003D2 00000001     H    7994  7985B
 $$$74         1 00000050 00000001 A   U    8021  8018   8020
 $$$76B        1 00000404 00000001     X    8072  8079U
 $$$77F        2 00000420 00000001     H    8131  8100B
 $$$78F        2 0000041A 00000001     H    8124  8115B
 $$$79         1 00000050 00000001 A   U    8151  8148   8150
 $$$81B        1 0000044C 00000001     X    8203  8210U
 $$$82F        2 00000468 00000001     H    8262  8231B
 $$$83F        2 00000462 00000001     H    8255  8246B
 $$$84         1 00000050 00000001 A   U    8282  8279   8281
 $$$86B        1 00000494 00000001     X    8334  8341U
 $$$87F        2 000004B0 00000001     H    8393  8362B
 $$$88F        2 000004AA 00000001     H    8386  8377B
 $$$89         1 00000050 00000001 A   U    8413  8410   8412
 $$$91B        1 000004DC 00000001     X    8488  8495U
 $$$92B        4 00000514 00000001     I    8576  8589
 $$$92F        2 0000051C 00000001     H    8585  8576B  8588
 $$$92T        2 00000518 00000001     H    8579  8563B
 $$$94E        2 00000520 00000001     H    8596  8590
 $$$94F        2 0000056C 00000001     H    8660  8592B
 $$$95B        4 00000542 00000001     I    8619  8631
 $$$95F        2 0000054A 00000001     H    8628  8619B  8630
 $$$96E        2 0000054E 00000001     H    8638  8632
 $$$96F        2 0000056C 00000001     H    8656  8634B
 $$$97         1 000000DC 00000001 A   U    8686  8683   8685
 $$$99B        1 00000598 00000001     X    8752  8759U
 @RAR          0 00000000 FFFFFFF0     @    1127  2165   2173B
 @R0           0 00000000 FFFFFFFE     @     706   982U
 @R1           0 00000000 FFFFFFFD     @     719   978U  2171   2172   9208   9442   9745   9979  11533U 11671U 11769U
                                                 12930U 20402  20472  21000  21108  21235  21377  24017
 @R10          0 00000000 FFFFFFF4     @     836   942U 14664U 14792U 14909U 15085U 15145U 15502U 15628U 16348U 24530U
 @R11          0 00000000 FFFFFFF3     @     849   938U
 @R12          0 00000000 FFFFFFF2     @     862   934U
 @R13          0 00000000 FFFFFFF1     @     875   930U  7438M  7477   7532M  7571  14668M 14707  14795M 14834  15378M
                                                 15417  15505M 15544  15739M 15778  16383M 16422  16431M 16470  24279M
                                                 24318
 @R14          0 00000000 FFFFFFF0     @     888   926U
 @R15          0 00000000 FFFFFFEF     @     901   922U  7475U  7569U 14705U 14832U 15415U 15542U 15776U 16420U 16468U
                                                 17259U 24316U
 @R2           0 00000000 FFFFFFFC     @     732   974U 14919U 20260  20438  20516  20574  20858  21036  21249  21506
                                                 26763U
 @R3           0 00000000 FFFFFFFB     @     745   970U
 @R4           0 00000000 FFFFFFFA     @     758   966U 20416  21014  21191U 21335U
 @R5           0 00000000 FFFFFFF9     @     771   962U 19839
 @R6           0 00000000 FFFFFFF8     @     784   958U  7262U  7630U  7731U  8701U  8979U  9298U  9529U  9835U 10066U
                                                 10836U 11133U 11861U 12419U 12722U 13309U 13633U 13915U 14130U 14442U
                                                 15301U 15808U 16230U 16508U 17084U 17486U 17750U 17987U 18424U 18562U
                                                 18701U 18928U 19237U 19526U 19732U 20119U 20725U 21822U 22598U 23841U
                                                 24091U 25472U 26032U 26090U
 @R7           0 00000000 FFFFFFF7     @     797   954U  7236U  7607U  7712U  7880U  8010U  8140U  8271U  8402U  8675U
                                                  8953U  9271U  9502U  9808U 10039U 10173U 10285U 10809U 11106U 11834U
                                                 12392U 12696U 12966U 13282U 13606U 13889U 14104U 14416U 15282U 15789U
                                                 16204U 16482U 16786U 17058U 17177U 17285U 17460U 17724U 17968U 18126U
                                                 18274U 18405U 18543U 18682U 18909U 19218U 19507U 19713U 20100U 20698U
                                                 21796U 22579U 23822U 24065U 24704U 24924U 25124U 25453U 26147U 26658U
1RECS     (RECS2101) (12:53) (15MAR04) Ordinary Symbol and Literal Cross Reference                                          Page  167
                                                 26896U
 @R8           0 00000000 FFFFFFF6     @     810   950U  7231U  8670U  8948U  9266U  9497U  9803U 10034U 10804U 11101U
                                                 11829U 12387U 12691U 12961U 14099U 14411U 15277U 16199U 16781U 17053U
                                                 17719U 17963U 18121U 18269U 18400U 18538U 18677U 19502U 19708U 20693U
                                                 21791U 22574U 23817U 24060U 24699U 26142U 26653U
 @R9           0 00000000 FFFFFFF5     @     823   946U  7255U  8694U  8972U  9291U  9522U  9828U 10059U 10829U 11126U
                                                 11854U 12412U 12715U 12912U 13302U 13626U 13908U 14123U 14435U 14597U
                                                 15058U 15193U 15265U 15736U 16223U 16316U 16501U 16805U 17077U 17479U
                                                 17743U 20718U 21815U 22330U 23424U 24084U 24324U 24723U 25879U 26166U
                                                 26677U
 ABSCENT       1 00000000 00000000 A   T    2181  2181
 ABSEARCH      2 00002694 00000001     H   19768 19764
 ADDDDONE      2 000019C0 00000001     H   15269 14654B
 ADDDPAGE      2 00001716 00000001     H   14498 12738
 ADENTRY     136 00000006 FFFFFFDE     X   14481 15070  15077  15226
 ADKEEP        4 00000000 FFFFFFDE     F   14479 14965M 15013
 ADSPLITP      2 00000004 FFFFFFDE     H   14480 15052M 15072  15101  15107  15114  15161  15165
 ADWA        142 00000000 FFFFFFDE     J   14489 14511  14540U 15290  15292  15293
 ASCTBL        1 00000000 00000000 A   T    2189  2189
 AXMASTER      2 00001CD6 00000001     H   16252 16541
 BADDELTA      2 00002EFA 00000001     H   22550 22347B 22443B
 BADDPAGE      2 00003D3A 00000001     H   26639 26301B 26323B 26331B 26335B 26339B 26343B 26347B 26352B 26357B 26362B
                                                 26366B 26371B 26376B 26381B 26386B 26390B 26394B 26399B 26408B 26417B
                                                 26427B 26438B 26468B 26531B 26535B 26544B 26550B 26555B 26601B 26628B
 BADEDIT       2 00003DCC 00000001     H   26884 26751B 26778B 26823B 26848B 26868B
 BADFACTR      2 0000323C 00000001     H   23788 22740B 22758B 22777B 22794B 22974B 22992B 23012B 23034B 23054B 23112B
                                                 23130B 23150B 23172B 23192B 23552B 23572B 23609B
 BADINS        2 00002CA0 00000001     H   21772 21397B 21526B 21673B
 BADPAGE       2 000039E6 00000001     H   26103 25618B 25650B 25696B 25723B 25727B 25731B 25735B 25739B 25757B 25767B
                                                 25772B 25778B 25783B 25788B 25796B 25800B 25804B 25808B 25840B 25863B
                                                 25942B 25974B 26013B
 BADPINFO      2 000014EE 00000001     H   13594 13425B 13462B 13502B 13542B 13578B
 BADPUT        2 00000C48 00000001     H   10787 10458B 10479B 10500B
 BADQINFO      2 00001424 00000001     H   13264 13095B 13132B 13172B 13212B 13248B
 BADRCVY       2 00003720 00000001     H   25410 25265B 25274B 25283B 25327B 25345B 25389B
 BADREP        2 00002CA0 00000001     H   21774 21140B 21269B 21709B
 BADRNG        2 00002F0A 00000001     H   22560 22162B 22200B 22243B 22281B
 BADRNGE       2 0000324C 00000001     H   23798 22935B 23073B 23282B 23350B
 BDELETE       2 000025FE 00000001     H   19572 12743  16540  19568
 BDLIST        4 00000000 FFFFFFD8     A   19553 19629M 19649  19697
 BDTEMP        1 00000004 FFFFFFD8     X   19554 19648  19664
 BDWA          4 00000000 FFFFFFD8     J   19562 19585  19614U 19721  19723  19724
 BINSBOMB      2 000025EA 00000001     H   19488 19444B
 BINSDONE      2 000025EC 00000001     H   19493 19483B
 BINSERT       2 0000251C 00000001     H   19287 12741  16538  19283
 BLTBL         1 00000000 00000000 A   T    2191  2191
 BNENTRY       4 00000000 FFFFFFD9     A   19266 19345M 19366  19463
 BNINSAD       4 00000008 FFFFFFD9     A   19268 19387M 19426  19450  19455  19461
 BNLIST        4 00000004 FFFFFFD9     A   19267 19344M 19427  19479
 BNSPACE       1 0000000C FFFFFFD9     X   19269 19452  19458
 BNWA         12 00000000 FFFFFFD9     J   19277 19300  19329U 19515  19517  19518
 BR            7 00000007 00000001 A   #    1017  6886M  7294M  7670M  7807M  7937M  8067M  8198M  8329M  8483M  8747M
                                                  9026M  9345M  9576M  9882M 10110M 10229M 10392M 10877M 11210M 11937M
                                                 12501M 12814M 13020M 13350M 13670M 13953M 14168M 14514M 15345M 15875M
                                                 16266M 16598M 16853M 17138M 17229M 17335M 17550M 17788M 18047M 18198M
                                                 18325M 18462M 18599M 18776M 18968M 19303M 19588M 19782M 20209M 20806M
                                                 21924M 22683M 23894M 24163M 24757M 24967M 25224M 25553M 26237M 26715M
 BSCNT         4 00000014 FFFFFFE8     F    6632 18852M 19005  19819
 BSEARCH       2 00002472 00000001     H   18954 10314  12739  16522  17096  18716  18950  20131  25164
1RECS     (RECS2101) (12:53) (15MAR04) Ordinary Symbol and Literal Cross Reference                                          Page  168
 BSELEN        4 00000004 FFFFFFE8     F    6628 18815M 18826  19117  19207  19365  19367  19389  19456  19462  19464
                                                 19467  19652  19654  19668  19999  20089  21184  21328
 BSEND         4 00000010 FFFFFFE8     F    6631 11527M 11665M 11763M 18817M 19002  19388  19428  19466  19468M 19480
                                                 19650  19667  19669M 19698  19816  21183  21185M 21327  21329M
 BSINFO       32 00000000 FFFFFFE8     J    6641  6743  11523U 11661U 11759U 18804U 18813M 18813  18996U 19341U 19625U
                                                 19810U 21181U 21325U 25517  25860  26203  26625
 BSINIT        2 000023FA 00000001     H   18762  7749  16537  18758  26931
 BSSLEN        4 00000008 FFFFFFE8     F    6629 18816M 19006  19822
 BSSTART       4 00000018 FFFFFFE8     F    6633 18872M 18891M 18999  19813
 BSTLEN        4 00000000 FFFFFFE8     F    6627 18814M 18825  19390
 CHECKIOB      1 00000000 00000000 A   T    2237  2237
 CHKDPAGE      2 00003A88 00000001     H   26221 26927
 CHKPDONE      2 000014F6 00000001     H   13599 13589B 13596B
 CHKQDONE      2 0000142E 00000001     H   13273 13259B 13270B
 CHKQINFO      2 00001372 00000001     H   13006 10317  25161
 CHKQPAGE      2 00001440 00000001     H   13336 10315  12734
 CHK110346
               2 00003372 00000001     H   24234 24230B
 CHK110541
               2 00003468 00000001     H   24583 24579B
 CHK110562
               2 000034CE 00000001     H   24645 24641B
 CHK11442      2 000001F6 00000001     H    7383  7379B
 CHK11517      2 00000270 00000001     H    7514  7510B
 CHK13603      2 00000F16 00000001     H   11649 11645B
 CHK13642      2 00000F68 00000001     H   11728 11724B
 CHK14332      2 000013C4 00000001     H   13115 13111B
 CHK14525      2 00001492 00000001     H   13445 13441B
 CHK14680      2 0000153E 00000001     H   13726 13722B
 CHK14760      2 000015BC 00000001     H   13873 13869B
 CHK14996      2 000016C0 00000001     H   14308 14304B
 CHK15169      2 00001764 00000001     H   14626 14622B
 CHK15477      2 00001996 00000001     H   15221 15217B
 CHK15929      2 00001C24 00000001     H   16055 16051B
 CHK15981      2 00001C98 00000001     H   16160 16156B
 CHK15992      2 00001CC4 00000001     H   16186 16182B
 CHK16080      2 00001D1A 00000001     H   16341 16337B
 CHK16630      2 00002076 00000001     H   17405 17401B
 CHK18113      2 000027FA 00000001     H   20337 20333B
 CHK18439      2 0000296E 00000001     H   20935 20931B
 CHK210346
               2 00003374 00000001     H   24235 24232B
 CHK210541
               2 0000346A 00000001     H   24584 24581B
 CHK210562
               2 000034D0 00000001     H   24646 24643B
 CHK21442      2 000001F8 00000001     H    7384  7381B
 CHK21517      2 00000272 00000001     H    7515  7512B
 CHK23603      2 00000F18 00000001     H   11650 11647B
 CHK23642      2 00000F6A 00000001     H   11729 11726B
 CHK24332      2 000013C6 00000001     H   13116 13113B
 CHK24525      2 00001494 00000001     H   13446 13443B
 CHK24680      2 00001540 00000001     H   13727 13724B
 CHK24760      2 000015BE 00000001     H   13874 13871B
 CHK24996      2 000016C2 00000001     H   14309 14306B
 CHK25169      2 00001766 00000001     H   14627 14624B
 CHK25477      2 00001998 00000001     H   15222 15219B
 CHK25929      2 00001C26 00000001     H   16056 16053B
 CHK25981      2 00001C9A 00000001     H   16161 16158B
1RECS     (RECS2101) (12:53) (15MAR04) Ordinary Symbol and Literal Cross Reference                                          Page  169
 CHK25992      2 00001CC6 00000001     H   16187 16184B
 CHK26080      2 00001D1C 00000001     H   16342 16339B
 CHK26630      2 00002078 00000001     H   17406 17403B
 CHK28113      2 000027FC 00000001     H   20338 20335B
 CHK28439      2 00002970 00000001     H   20936 20933B
 CKDBINFO     32 00000010 FFFFFFD1     X   26203 26615  26625
 CKDDONE       2 00003D3E 00000001     H   26644 26634B 26641B
 CKDFIRST      4 00000000 FFFFFFD1     A   26199 26277M 26403
 CKDLAST       4 00000004 FFFFFFD1     A   26200 26278M 26412
 CKDNAMLN      4 00000008 FFFFFFD1     A   26201 26279M 26348
 CKDTEMP       2 00000030 FFFFFFD1     H   26204 26567  26571
 CKDTYPE       4 0000000C FFFFFFD1     F   26202 26280M 26340
 CKDWA        48 00000000 FFFFFFD1     J   26212 26234  26263U 26666  26668  26669
 CNTDONE       2 00001198 00000001     H   12378 12361B 12375B
 COMMAND       1 00000000 00000000 A   T    2177  2177
 COMMSEG       1 00000000 00000000 A   T    2178  2178
 CONDPAGE      2 000012B6 00000001     H   12798 12736  12794
 CONDTEMP      4 00000010 FFFFFFDF     F   12780 12845  12865  12868  12923  12941
 CONDWA       16 00000000 FFFFFFDF     J   12788 12811  12840U 12974  12976  12977
 CP         4096 00000000 FFFFFFEC     J    6191  1166U
 CP#XSTK       1 00000010 FFFFFFEC A   U    3923  3924
 CPACFLG       1 000005D5 FFFFFFEC     R    4026  4030   4035   4040   4045   4050
 CPACFLN       4 000005C4 FFFFFFEC     F    4018  4053   4053
 CPACLNO       4 000005A8 FFFFFFEC     F    3980 24806  24823  24832M 24839M 25016  25034  25048M
 CPAFLAG       1 000005C3 FFFFFFEC     R    3990  3994   3999   4004   4009
 CPANAME       8 00000588 FFFFFFEC     C    3972  4068   4068
 CPAUTFLG      1 000008A9 FFFFFFEC     R    4336  4340   4345   4350   4355
 CPCHFLAG      1 00000B68 FFFFFFEC     R    4963  4967
 CPDFLG        1 0000084C FFFFFFEC     R    4223  4227   4232   4237   4242   4247
 CPDFLG2       1 0000084D FFFFFFEC     R    4252  4256   4261   4266   4271   4276   4281
 CPEXFLG       1 00000758 FFFFFFEC     R    4092  4096
 CPEXFLG2      1 00000759 FFFFFFEC     R    4102  4111   4121
 CPEXFLG3      1 0000075A FFFFFFEC     R    4128  4132   4137
 CPEXTFLG      1 00000E28 FFFFFFEC     R    5774  5778   5783   5788   5793   5798   5803
 CPFABORT    128 00000D5A FFFFFFEC         5540  2141M  2141   2146M  2146
 CPFERROR     64 00000D5A FFFFFFEC         5545  2140M  2140   2145M  2145
 CPFNTEX       1 00000040 FFFFFFEC A   U    5392  5393
 CPFRDRNG      1 00000D88 FFFFFFEC     R    5660  5664   5669   5674   5679   5684   5689   5694
 CPFRDSRC      1 00000D89 FFFFFFEC     R    5699  5708   5718   5728
 CPFUNUM       1 00000080 FFFFFFEC A   U    5391  5393
 CPFXDFLG      1 000007E4 FFFFFFEC     R    4170  4174   4179
 CPGFLG1       1 00000474 FFFFFFEC     R    3533  3537   3542   3547   3552   3557   3887   3887
 CPGFLG10      1 0000047D FFFFFFEC     R    3770  3774   3779   3784   3789   3794   3799
 CPGFLG11      1 0000047E FFFFFFEC     R    3805  3809   3814
 CPGFLG12      1 0000047F FFFFFFEC     R    3820  3824   3829   3834
 CPGFLG13      1 00000480 FFFFFFEC     R    3840  3844
 CPGFLG14      1 00000481 FFFFFFEC     R    3850  3854   3859   3864   3869   3874
 CPGFLG4       1 00000477 FFFFFFEC     R    3586  3597   3606   3615   3624   3633
 CPGFLG5       1 00000478 FFFFFFEC     R    3639  3643   3648   3653   3658   3663   3668   3673   3678
 CPGFLG6       1 00000479 FFFFFFEC     R    3684  3688   3693   3698
 CPGFLG7       1 0000047A FFFFFFEC     R    3704  3708   3713   3718   3723
 CPGFLG8       1 0000047B FFFFFFEC     R    3729  3733   3738   3743   3748
 CPGFLG9       1 0000047C FFFFFFEC     R    3754  3758   3764
 CPINIT        1 00000174 FFFFFFEC     U    2703  6160
 CPJESFLG      1 000009E1 FFFFFFEC     R    4435  4439   4444   4449   4454   4459   4464   4469   4474
 CPJESFLY      1 000009FD FFFFFFEC     R    4485  4489   4494   4499
 CPJESHFL      1 000009E0 FFFFFFEC     R    4420  4424   4429   4508   4508
 CPLFLG10      1 00000D59 FFFFFFEC     R    5526  5530
 CPLFLG11      1 00000D5A FFFFFFEC     R    5536  5540   5545   5550   5555
1RECS     (RECS2101) (12:53) (15MAR04) Ordinary Symbol and Literal Cross Reference                                          Page  170
 CPLFLG12      1 00000D5B FFFFFFEC     R    5561  5565
 CPLFLG14      1 00000D5C FFFFFFEC     R    5571  5575   5580   5585   5590   5595
 CPLFLG6       1 00000D55 FFFFFFEC     R    5401  5405   5410   5415   5420   5425   5430
 CPLFLG7       1 00000D56 FFFFFFEC     R    5436  5440   5445   5450   5455   5460
 CPLFLG8       1 00000D57 FFFFFFEC     R    5466  5470   5475   5480   5485
 CPLFLG9       1 00000D58 FFFFFFEC     R    5491  5495   5500   5505   5510   5515   5520
 CPLOCALZ      1 00000C48 FFFFFFEC     U    4993  6154   6154
 CPMFLG        1 0000084F FFFFFFEC     R    4290  4294
 CPMODFLG      1 00000C78 FFFFFFEC     R    5021  5025   5030   5035   5040   5045
 CPNAMELN      1 00000010 FFFFFFEC A   U    3916  4163
 CPNEDPFX     10 00000E29 FFFFFFEC     X    5807  5808   5809
 CPNUMFLG      1 00000C79 FFFFFFEC     R    5051  5063
 CPNUMLNO      4 00000E1C FFFFFFEC     F    5765 24863  24880  24889M 24896M 25068  25086  25100M
 CPORVCMD      1 00000140 FFFFFFEC     R    2585  2589   2594   2599   2604   2609   2614   2619   2624   2629   2629
                                                  2680   2680
 CPORVFLG      1 00000149 FFFFFFEC     R    2636  2640   2645   2650   2655   2660   2665   2670   2675
 CPORVWF       1 00000150 FFFFFFEC     R    2688  2692
 CPOSCANX      4 00000CA8 FFFFFFEC     F    5220  5287   5287
 CPR          11 0000000B 00000001 A   #    1081  1166U
 CPRACBAD     16 000001FC FFFFFFEC         2754  2788   2788   2789   2789
 CPRACF1       1 000001FC FFFFFFEC     R    2735  2739   2744   2749   2754   2759   2764   2769   2774   2790
 CPRACPSW     32 000001FC FFFFFFEC         2749  2787   2787   2789   2789
 CPRACUND     64 000001FC FFFFFFEC         2744  2787   2787   2788   2788
 CPRCVCUR      4 00000730 FFFFFFEC     A    4071  4073   4073
 CPRFLG        1 000008AA FFFFFFEC     R    4361  4365   4370   4375   4380   4385   4390
 CPS         254 00000344 FFFFFFEC     X    3505  3508   3509   3511   3511
 CPSACCT       5 000003B4 FFFFFFEC     C    3104  3267   3267
 CPSAMCOD      1 00000A22 FFFFFFEC     R    4557  4565   4575   4585   4594   4603   4612   4622   4631   4640
 CPSAMFLG      1 00000A21 FFFFFFEC     R    4517  4521   4526   4531   4536   4541   4546   4551   4662   4662
 CPSCNFLG      1 00000CD0 FFFFFFEC     R    5233  5244   5253   5264
 CPSCNF2       1 00000CD1 FFFFFFEC     R    5269  5273
 CPSCNMAX      1 00000014 FFFFFFEC A   U    5285  5286
 CPSCRI        2 00000434 FFFFFFEC     H    3494  3499   3499
 CPSEGCOD      1 00000050 FFFFFFEC     R    2491  2500   2510   2520   2530   2540   2550   2560
 CPSFL         1 00000384 FFFFFFEC     R    2842  2846   2851   2856   2861   2866
 CPSFLG        1 000003F8 FFFFFFEC     R    3382  3386   3391   3396   3401   3406   3411   3416   3421
 CPSFLG2       1 000003F9 FFFFFFEC     R    3427  3431   3436   3441
 CPSFL2        1 00000385 FFFFFFEC     R    2872  2876   2881   2886   2891
 CPSFL3        1 00000386 FFFFFFEC     R    2897  2901   2906   2911
 CPSFL4        1 00000387 FFFFFFEC     R    2917  2921   2926   2931
 CPSFL5        1 00000388 FFFFFFEC     R    2937  2941   2946   2951
 CPSKAFL       1 000003BF FFFFFFEC     R    3238  3242   3247   3252   3257   3262
 CPSKIFL       1 000003BE FFFFFFEC     R    3193  3197   3202   3207   3212   3217   3222   3227   3232
 CPSOF         1 000001F8 FFFFFFEC     X    2725  2727   2727
 CPSOFLAG      1 00000416 FFFFFFEC     R    3452  3456   3461   3466   3471   3476
 CPSOPST       4 000003C4 FFFFFFEC     F    3272  3501   3501
 CPSPORT       8 00000354 FFFFFFEC     C    2836  2956   2956
 CPSQFLG       1 000003EC FFFFFFEC     R    3301  3305
 CPSSFLG       1 000003BB FFFFFFEC     R    3111  3115   3120   3125   3130   3135   3140
 CPSSTART      4 00000344 FFFFFFEC     F    2828  2832   2832   3268   3268   3373   3373   3505   3505
 CPSSTAT       1 0000038F FFFFFFEC     R    3048  3052   3057   3062   3067   3072   3077   3082
 CPSTACF       1 000003BC FFFFFFEC     R    3146  3150   3155   3160   3165   3170   3175   3180   3185
 CPSTART       4 00000000 FFFFFFEC     C    2464  6158   6162
 CPSTFLAG      1 000003EA FFFFFFEC     R    3279  3283   3288   3293
 CPSTYPE       1 0000038C FFFFFFEC     R    2961  2970   2980   2990   3000   3010   3020   3030   3040
 CPSUFLG       1 000003EE FFFFFFEC     R    3316  3320   3325   3330   3335   3340   3345   3350   3355
 CPSUFLG2      1 000003EF FFFFFFEC     R    3361  3365   3370
 CPSVPGM       8 0000039C FFFFFFEC     C    3094  3100   3100
 CPS1ST        4 0000038C FFFFFFEC     F    2958  3503   3503
1RECS     (RECS2101) (12:53) (15MAR04) Ordinary Symbol and Literal Cross Reference                                          Page  171
 CPTEMPP#      1 0000005F FFFFFFEC A   U    4411  4413
 CPTRMFL1      1 00000C7A FFFFFFEC     R    5069  5073   5078   5083   5207   5207
 CPTRMFL2      1 00000C7B FFFFFFEC     R    5089  5093   5098   5103   5108   5113   5118
 CPTRMFL3      1 00000C7C FFFFFFEC     R    5124  5128   5133   5138   5143   5148   5153   5158
 CPTRMFL4      1 00000C7D FFFFFFEC     R    5164  5168   5173   5178   5183   5188   5193   5198
 CPUSED        1 00000FBC FFFFFFEC A   U    6158  6159
 CPVACURS      8 00000AF0 FFFFFFEC     D    4936  4937   4938
 CPVCURS       8 00000AE0 FFFFFFEC     D    4930  4931   4932
 CPVFLAG       1 00000AC8 FFFFFFEC     R    4731  4735   4740   4745   4750   4755
 CPVFLAG2      1 00000AC9 FFFFFFEC     R    4761  4765   4770   4775   4780   4785   4790
 CPVFLAG3      1 00000ACA FFFFFFEC     R    4796  4800   4805   4810   4815   4820   4825
 CPVFLAG4      1 00000ACB FFFFFFEC     R    4831  4835   4840   4845
 CPVFREN       4 00000AC9 FFFFFFEC         4790 24845M 24902M 24997
 CPVLFLAG      1 00000ACE FFFFFFEC     R    4900  4904   4909   4914
 CPVMODE       1 00000ACC FFFFFFEC     R    4853  4857   4862   4867   4872   4877   4882   4887   4892
 CPVTWID       2 00000AD0 FFFFFFEC     H    4920  4923   4923
 CPWK1         4 00000D60 FFFFFFEC     F    5604  5619   5642
 CPWK2         4 00000D64 FFFFFFEC     F    5605  5620   5634
 CPWK3         4 00000D68 FFFFFFEC     F    5606  5621   5635
 CPWK4         4 00000D6C FFFFFFEC     F    5607  5622   5636
 CPWK5         4 00000D70 FFFFFFEC     F    5608  5624   5629   5637
 CPWK6         4 00000D74 FFFFFFEC     F    5609  5625   5630   5638   5645   5647
 CPWK7         4 00000D78 FFFFFFEC     F    5610  5623   5639
 CPXFLAG       1 000007FD FFFFFFEC     R    4198  4202
 CPXSTATE      4 000007F8 FFFFFFEC     F    4192  4205   4205
 CTPAGE1       4 00000108 FFFFFFE1     F   11898 12150M 12172  12219
 CTPAGE2       4 00000110 FFFFFFE1     F   11900 12101M 12172  12264
 CTPOINT1      2 0000010C FFFFFFE1     H   11899 12148M 12190  12205
 CTPOINT2      2 00000114 FFFFFFE1     H   11901 12099M 12190  12329
 CTWA        278 00000000 FFFFFFE1     J   11910 11934  11963U 12400  12402  12403
 CTXFIRST    132 00000000 FFFFFFE1     X   11892 11893  11894  12105  12113  12153
 CTXFNAME      0 00000004 FFFFFFE1     U   11894 12034
 CTXFSET       4 00000000 FFFFFFE1     U   11893 12031M 12053
 CTXLAST     132 00000084 FFFFFFE1     X   11895 11896  11897  12069  12077  12155
 CTXLNAME      0 00000088 FFFFFFE1     U   11897 12060
 CTXLSET       4 00000084 FFFFFFE1     U   11896 12038M 12053M
 CV         4016 00000000 FFFFFFEE     J    2367  1175U
 CVABSRTN      4 0000088C FFFFFFEE     V    2181  2156
 CVBRMSK       1 00000751 FFFFFFEE     X    2097  2098   2099
 CVCFLAG       1 00000A00 FFFFFFEE     R    2262  2266   2271   2276   2281   2286
 CVCHKST       8 000009F0 FFFFFFEE     D    2252  2342   2342
 CVCHKST2      8 00000E28 FFFFFFEE     D    2345  2348   2348
 CVCOMRTN      4 0000087C FFFFFFEE     V    2177  2147
 CVCURJCB      4 000001C8 FFFFFFEE     A    1446  7439   7533  14669  14796  15379  15506  15740  16384  16432  24280
 CVDBGFLG      1 000004CC FFFFFFEE     R    1951  1955
 CVEMBUFQ      4 000001E8 FFFFFFEE     A    1459 25268  25642  25966
 CVENT         4 0000074C FFFFFFEE     I    2095  6886B  7294B  7670B  7807B  7937B  8067B  8198B  8329B  8483B  8747B
                                                  9026B  9345B  9576B  9882B 10110B 10229B 10392B 10877B 11210B 11937B
                                                 12501B 12814B 13020B 13350B 13670B 13953B 14168B 14514B 15345B 15875B
                                                 16266B 16598B 16853B 17138B 17229B 17335B 17550B 17788B 18047B 18198B
                                                 18325B 18462B 18599B 18776B 18968B 19303B 19588B 19782B 20209B 20806B
                                                 21924B 22683B 23894B 24163B 24757B 24967B 25224B 25553B 26237B 26715B
 CVENTBR       2 00000750 FFFFFFEE     I    2096  2097
 CVERROR       4 000007D6 FFFFFFEE     I    2145  2161B
 CVEXIRTN      4 0000077C FFFFFFEE     V    2125  2121
 CVFCHRKBPR
               8 000004C9 FFFFFFEE         1866  1882   1882
 CVFCHRKBSE
               4 000004C9 FFFFFFEE         1871  1882   1882
1RECS     (RECS2101) (12:53) (15MAR04) Ordinary Symbol and Literal Cross Reference                                          Page  172
 CVFCHRKCPR
               2 000004C9 FFFFFFEE         1888  1904   1904
 CVFCHRKCSE
               1 000004C9 FFFFFFEE         1893  1904   1904
 CVFCHRUBPR
             128 000004C9 FFFFFFEE         1822  1838   1838
 CVFCHRUBSE
              64 000004C9 FFFFFFEE         1827  1838   1838
 CVFCHRUCPR
              32 000004C9 FFFFFFEE         1844  1860   1860
 CVFCHRUCSE
              16 000004C9 FFFFFFEE         1849  1860   1860
 CVFL          1 000004C4 FFFFFFEE     R    1618  1622   1627   1632   1637   1642   1647   1652   1657
 CVFL2         1 000004C5 FFFFFFEE     R    1663  1667   1672   1677   1682   1687   1692   1697   1702
 CVFL3         1 000004C6 FFFFFFEE     R    1708  1712   1717   1722   1727   1732   1737   1742   1747
 CVFL4         1 000004C7 FFFFFFEE     R    1753  1757   1762   1767   1772   1777   1782   1787
 CVFL5         1 000004C8 FFFFFFEE     R    1793  1797   1802   1807   1812
 CVFL6         1 000004C9 FFFFFFEE     R    1818  1822   1827   1839   1844   1849   1861   1866   1871   1883   1888
                                                  1893   1905
 CVHEAP#       1 00000200 FFFFFFEE A   U    1524  1525
 CVHILNO       4 00000160 FFFFFFEE     A    1411 22054  22071  22077  22727  22893  22910  22916
 CVINVRTN      4 00000888 FFFFFFEE     V    2180  2150
 CVJESFLG      1 000004CA FFFFFFEE     R    1911  1915
 CVLNKRGS      4 00000780 FFFFFFEE     F    2127  2102M  2128
 CVLNKRTN      4 000007B0 FFFFFFEE     U    2128  2117M
 CVLOCK1       1 00000088 FFFFFFEE     R    1269  1273   1278
 CVLOCK2       1 00000089 FFFFFFEE     R    1283  1287
 CVLOCK3       1 0000008A FFFFFFEE     R    1292  1296
 CVLOCK4       1 0000008B FFFFFFEE     R    1301  1305
 CVLOGMOD      1 00000068 FFFFFFEE     R    1256  1260
 CVMACH        1 00000067 FFFFFFEE     R    1216  1220   1225   1230   1235   1240   1245   1250
 CVMAXLNO      4 0000015C FFFFFFEE     A    1410 23009  23051  23147  23189  23569
 CVMILRTN      4 00000884 FFFFFFEE     V    2179  2159
 CVNOARTN      4 00000890 FFFFFFEE     V    2182  2153
 CVNWDATE      4 00000608 FFFFFFEE     F    1984  1988   1988
 CVNWMPG#      1 00000008 FFFFFFEE A   U    1986  1987
 CVPFXRTN      1 00000000 00000000 A   T    2125  2125
 CVPGFLAG      1 00000A01 FFFFFFEE     R    2292  2296   2301   2306
 CVPIOSZ       1 00004F80 FFFFFFEE A   U    1355  1357
 CVPPDBQH      4 0000009C FFFFFFEE     A    1313  1314
 CVPSFNO       1 000003E9 FFFFFFEE A   N    1477  1479
 CVPSLNO       1 000007CF FFFFFFEE A   N    1478  1479
 CVPSZ         1 00004F78 FFFFFFEE A   U    1357  6746
 CVPXSZ        1 00000008 FFFFFFEE A   U    1356  1357
 CVR          12 0000000C 00000001 A   #    1094  1175U
 CVRKEY        1 00000008 FFFFFFEE A   U    2050  2051
 CVSEGRTN      4 00000880 FFFFFFEE     V    2178  2142
 CVSTACK#      1 00000080 FFFFFFEE A   U    1516  1517
 CVSTART       4 00000000 FFFFFFEE     C    1189  2360
 CVTRC         4 00000768 FFFFFFEE     I    2117  2103B
 CVTRCRTN      4 00000778 FFFFFFEE     V    2124  2118
 CVUSFNO       1 00000001 FFFFFFEE A   N    1484  1486
 CVUSLNO       1 000003E7 FFFFFFEE A   N    1485  1486
 CVVOL#        1 00000005 FFFFFFEE A   U    2335  2336
 CVWTOFLG      1 000004CB FFFFFFEE     R    1921  1925   1930   1935   1940   1945
 DATALN        2 00000002 00000001 A   U    6810  6801   7035   8645   8923   9230   9464   9767  10001  10678  10713M
                                                 10751M 12288  12349  12640  12890  15020  20184  20184  26358  26499
                                                 26546  26596  26605
 DATAPGNO      4 00000000 00000001 A   U    6808  7497  13851  14384  15665  15719M 16310  24565  24627  25322  25384
1RECS     (RECS2101) (12:53) (15MAR04) Ordinary Symbol and Literal Cross Reference                                          Page  173
                                                 25768  25931  25967  25982
 DATAPTR       2 00000000 00000001 A   U    6809  6801   7035   8646   8924   9231   9465   9768  10002  10700M 10705
                                                 10749M 10752  12641  12888  12896M 20185  20185  26358  26498  26545
                                                 26594  26603
 DDPAGE1       4 00000108 FFFFFFE2     F   11171 11384M 11442  11488  11586  11615  11634
 DDPAGE2       4 00000110 FFFFFFE2     F   11173 11420M 11442  11488  11586  11713
 DDPOINT1      2 0000010C FFFFFFE2     H   11172 11382M 11460  11502  11511  11651
 DDPOINT2      2 00000114 FFFFFFE2     H   11174 11418M 11460  11497  11498  11505  11510  11733  11734  11741  11746
 DDTEMP        1 00000116 FFFFFFE2     X   11175 11495  11506  11731  11742
 DDWA        278 00000000 FFFFFFE2     J   11183 11207  11236U 11842  11844  11845
 DDXFIRST    132 00000000 FFFFFFE2     X   11165 11166  11167  11339  11347  11423
 DDXFNAME      0 00000004 FFFFFFE2     U   11167 11307
 DDXFSET       4 00000000 FFFFFFE2     U   11166 11304M 11326
 DDXLAST     132 00000084 FFFFFFE2     X   11168 11169  11170  11388  11396  11425
 DDXLNAME      0 00000088 FFFFFFE2     U   11170 11333
 DDXLSET       4 00000084 FFFFFFE2     U   11169 11311M 11326M
 DEBUGSG       1 00000000 00000000 A   T    2078  2078
 DELDONE       2 00000D2E 00000001     H   11094 11084B 11091B
 DELDPAGE      2 00001B5E 00000001     H   15859 12744
 DELSDONE      2 00000FE8 00000001     H   11822 11812B 11819B
 DEV          12 00000000 FFFFFFEB     J    4716  4724
 DEVMAX#       1 00000002 FFFFFFEC A   U    4667  4724
 DEVTYPE       1 00000001 FFFFFFEB     R    4684  4693   4703
 DLMASTPG      4 00000008 FFFFFFDD     F   15841 15949M 16040
 DLPAGENO      4 00000000 FFFFFFDD     F   15839 15947M 16145
 DLPREVPG      4 00000004 FFFFFFDD     F   15840 16018M 16138M 16171
 DLWA        276 00000000 FFFFFFDD     J   15850 15872  15901U 16212  16214  16215
 DLXFIRST    132 0000000C FFFFFFDD     X   15842 15980  16084
 DLXLAST     132 00000090 FFFFFFDD     X   15843 15986  16024
 DOTTBL        1 00000000 00000000 A   T    2194  2194
 DRENCFLG      1 00000F9F FFFFFFEC     R    6122  6126   6131   6136   6141   6146
 DRENPROT      1 00000F9E FFFFFFEC     R    6109  6117
 DSNON        40 00000E90 FFFFFFEC     C    5842  5843
 DSNWADSN     44 00000E5C FFFFFFEC     C    5829  5830   5831   5832   5841   5849   6080   6086   6088   6094   6097
                                                  6099   6102   6151
 DSNWAF4       1 00000F37 FFFFFFEC     R    5897  5901   5906   5911   5916   5921   5926   5931   5936
 DSNWAF5       1 00000F38 FFFFFFEC     R    5942  5946   5951   5956   5961   5966   5971   5976   5981
 DSNWAF6       1 00000F39 FFFFFFEC     R    5987  5991   5996   6001   6006   6011   6016   6021   6026
 DSNWAF7       1 00000F3A FFFFFFEC     R    6032  6036   6041   6046   6051
 DSNXG         1 00000004 FFFFFFEC A   U    5834  5836
 DSNXGL        1 00000003 FFFFFFEC A   U    5835  5836
 DSNXU         1 00000007 FFFFFFEC A   U    5836  5838
 DSNXUL        1 00000004 FFFFFFEC A   U    5837  5838
 DSSIZ         1 00000108 FFFFFFEC A   U    6080  6088   6097   6102
 EBCTBL        1 00000000 00000000 A   T    2190  2190
 EBCTBL7       1 00000000 00000000 A   T    2193  2193
 ECBLIST       1 00000000 00000000 A   T    2053  2053
 EDITCHK       2 00003D50 00000001     H   26701 26697
 EDITDONE      2 00003DD4 00000001     H   26889 26879B 26886B
 EPARTBL       1 00000000 00000000 A   T    2185  2185
 FREERG        2 000001AC 00000001     H    7280  7276
 FRSTDONE      2 00001ED6 00000001     H   16772 16671B 16753B
 FRSTNDX       2 00001E32 00000001     H   16582 18719
 FSR           0 00000000 00000001 A   #    1004  6880   7244M  7289   7615M  7665   7705M  7720M  7802   7873M  7888M
                                                  7932   8003M  8018M  8062   8133M  8148M  8193   8264M  8279M  8324
                                                  8395M  8410M  8477   8663M  8683M  8741   8941M  8961M  9020   9259M
                                                  9279M  9339   9490M  9510M  9570   9796M  9816M  9876  10027M 10047M
                                                 10105  10166M 10181M 10224  10278M 10293M 10386  10817M 10871  11114M
                                                 11204  11842M 11931  12380M 12400M 12495  12704M 12808  12974M 13015
1RECS     (RECS2101) (12:53) (15MAR04) Ordinary Symbol and Literal Cross Reference                                          Page  174
                                                 13275M 13290M 13345  13614M 13665  13897M 13947  14112M 14162  14424M
                                                 14508  15290M 15340  15797M 15869  16212M 16261  16490M 16592  16774M
                                                 16794M 16847  17046M 17066M 17133  17185M 17224  17293M 17330  17468M
                                                 17544  17732M 17782  17976M 18041  18114M 18134M 18192  18262M 18282M
                                                 18319  18413M 18456  18551M 18593  18690M 18771  18917M 18963  19211M
                                                 19226M 19297  19495M 19515M 19582  19701M 19721M 19777  20093M 20108M
                                                 20203  20686M 20706M 20800  21784M 21804M 21918  22567M 22587M 22677
                                                 23810M 23830M 23888  24073M 24157  24712M 24752  24932M 24962  25132M
                                                 25219  25461M 25547  26155M 26231  26666M 26710  26904M
 GETDPAGE      2 00001504 00000001     H   13656 10313  12735  16525  17095  18715
 GOTBPAGE      2 000015BE 00000001     H   13881 13740B
 HIBAL         1 00000000 FFFFFFFF     J     691   707    720    733    746    759    772    785    798    811    824
                                                   837    850    863    876    889    902
 INITRG        2 00000024 00000001     H    6870  6866
 INVALID       1 00000000 00000000 A   T    2180  2180
 JCB         208 00000000 FFFFFFE9     J    6583  7449U  7543U 14679U 14806U 15389U 15516U 15750U 16394U 16442U 24290U
 JCBAFL        1 00000062 FFFFFFE9     R    6428  6432   6437   6442   6447   6452   6457   6462   6467
 JCBBFL        1 00000063 FFFFFFE9     R    6473  6477   6482   6487   6492   6497   6502   6507
 JCBBILLX      8 00000088 FFFFFFE9     D    6558  6566   6566
 JCBPTA        4 00000040 FFFFFFE9     A    6341  7458   7458M  7459   7459   7460   7460M  7552   7552M  7553   7553
                                                  7554   7554M 14688  14688M 14689  14689  14690  14690M 14815  14815M
                                                 14816  14816  14817  14817M 15398  15398M 15399  15399  15400  15400M
                                                 15525  15525M 15526  15526  15527  15527M 15759  15759M 15760  15760
                                                 15761  15761M 16403  16403M 16404  16404  16405  16405M 16451  16451M
                                                 16452  16452  16453  16453M 24299  24299M 24300  24300  24301  24301M
 JCBPTB        4 00000044 FFFFFFE9     A    6342  7458   7459M  7460   7552   7553M  7554  14688  14689M 14690  14815
                                                 14816M 14817  15398  15399M 15400  15525  15526M 15527  15759  15760M
                                                 15761  16403  16404M 16405  16451  16452M 16453  24299  24300M 24301
 JCBRSCF1      1 00000064 FFFFFFE9     R    6513  6517   6522   6527
 JCBSFLG1      1 00000065 FFFFFFE9     R    6533  6537   6542
 JCBWFL        1 00000060 FFFFFFE9     R    6357  6361   6366   6371   6376   6381   6386   6391   6396   6424
 JCBWWFL       1 00000061 FFFFFFE9     R    6402  6406   6411   6416   6421
 LASTDONE      2 00001F96 00000001     H   17044 16932B 17003B 17031B
 LASTNDX       2 00001EE8 00000001     H   16837 18720
 LCLKEY        8 00000000 FFFFFFD7     X   20170 20171  20172  20184  20185  20402  20416  20438  20472  20574
 LCLLNO        4 00000004 FFFFFFD7     U   20172 20260M
 LCLREGS       4 00000008 FFFFFFD7     F   20173 20174  20258M 20674
 LCLREG2       4 00000014 FFFFFFD7     U   20174 20601
 LCLSET        4 00000000 FFFFFFD7     U   20171 20259M 20516
 LCLWA        24 00000000 FFFFFFD7     J   20181 20206  20235U 20706  20708  20709
 LLOCATE       2 000004C2 00000001     H    8467 10321  21837
 LLOCNEXT      2 00000640 00000001     H    9010  9006  10318
 LLOCPREV      2 000007FE 00000001     H    9560 10320
 LOWTBL        1 00000000 00000000 A   T    2188  2188
 LSR           8 00000008 00000001 A   #    1042  6880   7244M  7289   7615M  7665   7720M  7802   7888M  7932   8018M
                                                  8062   8148M  8193   8279M  8324   8410M  8477   8683M  8741   8961M
                                                  9020   9279M  9339   9510M  9570   9816M  9876  10047M 10105  10181M
                                                 10224  10293M 10386  10817M 10871  11114M 11204  11842M 11931  12400M
                                                 12495  12704M 12808  12974M 13015  13290M 13345  13614M 13665  13897M
                                                 13947  14112M 14162  14424M 14508  15290M 15340  15797M 15869  16212M
                                                 16261  16490M 16592  16794M 16847  17066M 17133  17185M 17224  17293M
                                                 17330  17468M 17544  17732M 17782  17976M 18041  18134M 18192  18282M
                                                 18319  18413M 18456  18551M 18593  18690M 18771  18917M 18963  19226M
                                                 19297  19515M 19582  19721M 19777  20108M 20203  20706M 20800  21804M
                                                 21918  22587M 22677  23830M 23888  24073M 24157  24712M 24752  24932M
                                                 24962  25132M 25219  25461M 25547  26155M 26231  26666M 26710  26904M
 MAXRECD       1 00003A02 00000001     X   26169 26002
 MGETNEW       1 00000000 00000002     T    7743  7743  16529
 MILERR        1 00000000 00000000 A   T    2179  2179
1RECS     (RECS2101) (12:53) (15MAR04) Ordinary Symbol and Literal Cross Reference                                          Page  175
 MINSPACE      1 00000400 00000001 A   U   10369 12737
 MKMASTER      2 000019CE 00000001     H   15331 16526
 MXDATALN      1 00000800 00000001 A   U    6802 26933
 MXKEYLN       1 00000084 00000001 A   U    6800  6801   8449  10357  11165  11168  11892  11895  12466  14481  15842
                                                 15843  18376  25515  25516  25678  25685  26169
 MXNAMELN      1 00000080 00000001 A   U    6799  6800   8451  10359  12468  17513  17516  17620  17628  17902  18014
                                                 18080  18165  18231  18369  18506  18514  18643  18650
 MXNTRYLN      1 00000088 00000001 A   U    6801 10356  10538  21060
 NBLTBL        1 00000000 00000000 A   T    2192  2192
 NDXKEY        1 00000000 00000001 A   U    6805 21159M 21303M
 NDXNAME       1 00000004 00000001 A   U    6807  9226   9460   9763   9997  20600  22505M 23727M 24035
 NDXSET        4 00000000 00000001 A   U    6806  6800   7033  11166  11167  11169  11170  11186  11893  11894  11896
                                                 11897  11913  17018  18107  18255  20170  20171  20172  20765  20766
                                                 20767  24140  25763  26353
 NEXTDONE      2 00000730 00000001     H    9257  9239B  9254B
 NEXTPAGE      2 000015CE 00000001     H   13937 10316  12745  17097  25162
 NFADD         4 00000010 FFFFFFD4     F   22636 22725M 23022  23160  23498  23685
 NFEND         4 0000001C FFFFFFD4     F   22639 23198M 23347  23372
 NFFIRST       4 00000004 FFFFFFD4     F   22633 22723M 22835  22843M 22923  23215  23254  23430  23617  23747
 NFFLAGS       1 00000028 FFFFFFD4     R   22644 22648  22806M
 NFFROUND    128 00000028 FFFFFFD4        22648 23523M 23710M 23767
 NFIXLINK      2 00003324 00000001     H   24147 25157
 NFIXNCLR      2 0000357C 00000001     H   24953 25158
 NFIXNUM       2 00003510 00000001     H   24743 25154
 NFLAST        4 00000008 FFFFFFD4     F   22634 22724M 22867  22875M 23061  23215  23322  23454  23641  23748
 NFMULT        4 00000014 FFFFFFD4     F   22637 22726M 22953  22959  23091  23097  23486  23492  23673  23679
 NFNEXT        4 0000000C FFFFFFD4     F   22635 22921M 23304  23322  23347  23591  23606
 NFPREV        4 00000000 FFFFFFD4     F   22632 22866M 23236  23254  23279  23431  23618
 NFROUND       4 00000020 FFFFFFD4     F   22640 23431M 23510  23516  23528M 23618M 23697  23703  23715M
 NFSTART       4 00000018 FFFFFFD4     F   22638 23060M 23279  23372
 NFTEMP        4 00000024 FFFFFFD4     F   22641 22835M 22837  22843  22845  22861M 22866  22867M 22869  22875  22877
                                                 22893M 22910  22916M 22921  23430M 23433  23454  23473  23530  23617M
                                                 23620  23641  23660  23717  23724M 23734
 NFWA         41 00000000 FFFFFFD4     J   22657 22680  22709U 23830  23832  23833
 NITFLAGS      1 00000008 FFFFFFE5     C    6853  6937M  6962   7090   7117   7204
 NITNAMLN      4 00000000 FFFFFFE5     F    6851  6935M  7031
 NITTYPE       4 00000004 FFFFFFE5     C    6852  6936M  6948   7029
 NITWA        12 00000000 FFFFFFE5     J    6860  6883   6912U  7244   7246   7247
 NLOCNEXT      2 0000326E 00000001     H   23878 25156
 NMDELTA       4 00000014 FFFFFFD5     F   21881 21966M 22344  22398  22410  22511  22523
 NMFIRST       4 00000004 FFFFFFD5     F   21877 21964M 21996  22004M 22101  22120  22159  22355  22451  22527
 NMFLAGS       1 0000001C FFFFFFD5     R   21885 21889
 NMLAST        4 00000008 FFFFFFD5     F   21878 21965M 22028  22036M 22120  22240  22379  22475  22528
 NMNEXT        4 0000000C FFFFFFD5     F   21879 22082M 22222  22240  22263  22425  22440
 NMPREV        4 00000000 FFFFFFD5     F   21876 22027M 22141  22159  22182
 NMSTART       4 00000010 FFFFFFD5     F   21880 21967M 22095  22101M 22182  22197  22263  22278  22362  22458
 NMTEMP        4 00000018 FFFFFFD5     F   21882 21996M 21998  22004  22006  22022M 22027  22028M 22030  22036  22038
                                                 22054M 22071  22077M 22082  22355M 22357  22379  22400  22451M 22453
                                                 22475  22495  22502M 22513
 NMWA         29 00000000 FFFFFFD5     J   21898 21921  21950U 22587  22589  22590
 NNONEXT       2 0000330E 00000001     H   24048 23998B 24023B
 NNUMBER       2 00002CE4 00000001     H   21908 21904
 NNUMFACT      2 00002F24 00000001     H   22667 22663
 NNXTDONE      2 00003316 00000001     H   24053 24043B 24050B
 NOACTION      1 00000000 00000000 A   T    2182  2182
 NOCOUNT       2 00001190 00000001     H   12366 12002B 12023B 12140B 12158B 12193B
 NODELETE      2 00000D26 00000001     H   11089 10950B 10971B 11016B
 NOMORPG       1 00000000 00000004     T    7745  7745  16531
 NONEXT        2 00000724 00000001     H    9244  9131B  9189B  9214B
1RECS     (RECS2101) (12:53) (15MAR04) Ordinary Symbol and Literal Cross Reference                                          Page  176
 NOPREV        2 000008E2 00000001     H    9781  9681B  9724B  9751B
 NORECS        2 00000FE0 00000001     H   11817 11275B 11296B 11374B 11428B 11463B
 NOSPACE       2 00000C50 00000001     H   10792 10599B
 NPARTBL       1 00000000 00000000 A   T    2186  2186
 NSCNCB      176 00000000 FFFFFFED     J    2451  2577
 NSCNFLGS      1 00000008 FFFFFFED     R    2388  2392   2397
 NSCNTYPE      1 00000018 FFFFFFED     R    2406  2410   2415   2420   2425   2430
 NUMBDONE      2 00002F12 00000001     H   22565 22545B 22552B 22557B 22562B
 NUMFDONE      2 0000325C 00000001     H   23808 23783B 23790B 23795B 23800B 23805B
 NXFIRST       4 00000004 FFFFFFD3     U   24128 24212M
 NXFKEY        8 00000000 FFFFFFD3     X   24127 24128  24215M 24341
 NXLAST        4 0000000C FFFFFFD3     U   24130 24213M
 NXLKEY        8 00000008 FFFFFFD3     X   24129 24130  24216M 24390
 NXWA         16 00000000 FFFFFFD3     J   24137 24160  24189U 24712  24714  24715
 PAGENCLR      1 00000000 00000010     T   25169 25169
 PAGENUM       1 00000000 0000000F     T   25167 25167
 PAR           9 00000009 00000001 A   #    1055  6923U  7017   7038   7047   7055   7063   7322U  7433   7435   7466M
                                                  7467   7468M  7560M  7561   7562M  8607   8642   8647   8784U  8885
                                                  8920   8925   9063U  9145   9168   9191   9222   9232   9382U  9411
                                                  9456   9466   9613U  9695   9703   9726   9759   9769   9919U  9948
                                                  9993  10003  10429U 10646  10656  10706  10753  10760  10766  10914U
                                                 11010  11017  11247U 11346  11353  11376  11381  11395  11417  11499
                                                 11503  11735  11739  11974U 12076  12098  12112  12119  12142  12147
                                                 12206  12236  12318  12320  12330  12538U 12614  12642  12847  12859U
                                                 12862  12864  12889  12939  13048U 13178  13180  13182  13378U 13508
                                                 13510  13698U 13763  13805  13807  13990U 14037  14072  14205U 14252
                                                 14290  14334  14360  14563U 14611  14696M 14697  14698M 14823M 14824
                                                 14825M 14848  14975U 14978  14980  15051  15156U 15159  15162  15204U
                                                 15225  15249  15406M 15407  15408M 15533M 15534  15535M 15548  15564
                                                 15640U 15668  15711  15767M 15768  15769M 15912U 15983  15989  16022
                                                 16083  16107  16294U 16308  16357U 16360  16411M 16412  16413M 16459M
                                                 16460  16461M 16635U 16712  16720  16759  16890U 16946  16970  17009
                                                 17363U 17587U 17667  17676  20246U 20360  20364  20366  20481  20483
                                                 20594  20596  20843U 20958  20962  20964  21154  21169  21298  21313
                                                 21428  21452  21465  21557  21581  21594  22298U 22504  23392U 23726
                                                 23931U 23977  24000  24031  24200U 24307M 24308  24309M 24539U 24589
                                                 24592  24603  24651  25252U 25275M 25302  25304  25364  25366  25443M
                                                 25443  25651M 25774  25812  25814  25870  25975M 26041U 26130M 26130
                                                 26275U 26364  26401  26410  26419  26422  26429  26433  26440  26442
                                                 26477  26479  26573  26575
 PBR          10 0000000A 00000001 A   #    1068  7466   7467M  7468   7498   7499   7523   7524   7525   7560   7561M
                                                  7562  14609U 14696  14697M 14698  14717U 14823  14824M 14825  14844U
                                                 14846  15068U 15073  15096U 15099  15102  15106  15108  15110  15406
                                                 15407M 15408  15427U 15533  15534M 15535  15546  15561U 15717  15767
                                                 15768M 15769  16325U 16362  16411  16412M 16413  16459  16460M 16461
                                                 24307  24308M 24309  24333U 24340  24389  24437  24479  24522  24566
                                                 24567  24568  24585  24586  24587  24611  24628  24629  24630  24647
                                                 24648  24649  24654
 PCHK          1 00000000 00000014     T   26924 26924
 PFREEA        1 00000000 00000007     T    7752  7752  16523
 PFREEB        1 00000000 0000000C     T   16528 16528  25166
 PGETA         1 00000000 00000009     T    7754  7754  12748  16521  18712  21832  25163  26925
 PGETB         1 00000000 0000000B     T   16527 16527
 PGETNEW       1 00000000 00000003     T    7744  7744  16530
 PJUNKA        1 00000000 0000000A     T    7755  7755  16542
 PMARKA        1 00000000 00000006     T    7751  7751  12740  16520  21834  25155
 PMARKB        1 00000000 0000000E     T   16533 16533  25165
 PRCVYCHK      1 00000000 00000012     T   26922 26922
 PRCVYSET      1 00000000 00000013     T   26923 26923
1RECS     (RECS2101) (12:53) (15MAR04) Ordinary Symbol and Literal Cross Reference                                          Page  177
 PREVDONE      2 000008EE 00000001     H    9794  9776B  9791B
 PREVPAGE      2 00001648 00000001     H   14152 10319  12747  16539  17098
 PTLFLAG       1 00000008 FFFFFFD6     C   20768 20856M 21137  21266  21394  21523  21670  21706
 PTLKEY        8 00000000 FFFFFFD6     X   20765 20766  20767  21000  21014  21036  21108  21159  21159  21235  21249
                                                 21303  21303  21377  21506
 PTLLEN        4 00000010 FFFFFFD6     U   20770 21059  21147  21156  21160  21291  21300  21304  21408  21430  21432
                                                 21454  21456  21537  21559  21561  21583  21585
 PTLLNO        4 00000004 FFFFFFD6     U   20767 20858M
 PTLLOC        4 00000014 FFFFFFD6     U   20771 21155  21299  21429  21453  21558  21582
 PTLREGS       4 0000000C FFFFFFD6     F   20769 20770  20771  20855M 21643  21722
 PTLSET        4 00000000 FFFFFFD6     U   20766 20857M
 PTLTEMP       1 0000001C FFFFFFD6     X   20772 21276  21282
 PTLWA        28 00000000 FFFFFFD6     J   20780 20803  20832U 21804  21806  21807
 PTYPEA        1 00000000 00000005     T    7750  7750
 PTYPEB        1 00000000 0000000D     T   16532 16532
 PUTDONE       2 00000C58 00000001     H   10797 10782B 10789B 10794B
 PUTKEY      132 00000008 FFFFFFE3     U   10357 10358  10359  10509  10526  10601  10647  10748
 PUTLEN        4 00000004 FFFFFFE3     F   10355 10434M 10537  10674  10707  10712  10740  10750  10754
 PUTLOC        4 00000000 FFFFFFE3     F   10354 10435M 10708  10755
 PUTNAME     128 0000000C FFFFFFE3     U   10359 10438
 PUTNDX      136 00000008 FFFFFFE3     X   10356 10357  10761
 PUTSET        4 00000008 FFFFFFE3     U   10358 10436M
 PUTWA       144 00000000 FFFFFFE3     J   10366 10389  10418U 10817  10819  10820
 QNONEXT       2 000007DA 00000001     H    9478  9408B  9424B  9448B
 QNOPREV       2 00000998 00000001     H   10015  9945B  9961B  9985B
 QNXTDONE      2 000007EC 00000001     H    9488  9473B  9485B
 QPREDONE      2 000009AA 00000001     H   10025 10010B 10022B
 RAR          14 0000000E 00000001 A   #    1120  2117   2118M  2119B  2121M  2122B  2142M  2143B  2147M  2148B  2150M
                                                  2151B  2153M  2154B  2156M  2157B  2159M  2160M  2160B  2166   6877
                                                  6970M  6971M  6971B  6989M  6990M  6990B  7008M  7009M  7009B  7077M
                                                  7078M  7078B  7153M  7154M  7154B  7174M  7175M  7175B  7183M  7184M
                                                  7184B  7189M  7190M  7190B  7214M  7215M  7215B  7246M  7249B  7286
                                                  7375M  7376M  7376B  7409M  7410M  7410B  7506M  7507M  7507B  7521M
                                                  7522M  7522B  7583M  7584M  7584B  7617M  7620B  7662   7722M  7725B
                                                  7799   7832M  7833M  7833B  7890M  7893B  7929   7962M  7963M  7963B
                                                  8020M  8023B  8059   8092M  8093M  8093B  8150M  8153B  8190   8223M
                                                  8224M  8224B  8281M  8284B  8321   8354M  8355M  8355B  8412M  8415B
                                                  8474   8602M  8603M  8603B  8611M  8612M  8612B  8685M  8688B  8738
                                                  8859M  8860M  8860B  8876M  8877M  8877B  8889M  8890M  8890B  8963M
                                                  8966B  9017   9141M  9142M  9142B  9149M  9150M  9150B  9187M  9188M
                                                  9188B  9281M  9284B  9336   9406M  9407M  9407B  9483M  9484M  9484B
                                                  9512M  9515B  9567   9691M  9692M  9692B  9699M  9700M  9700B  9722M
                                                  9723M  9723B  9818M  9821B  9873   9943M  9944M  9944B 10020M 10021M
                                                 10021B 10049M 10052B 10102  10143M 10144M 10144B 10159M 10160M 10160B
                                                 10183M 10186B 10221  10255M 10256M 10256B 10271M 10272M 10272B 10295M
                                                 10298B 10383  10512M 10513M 10513B 10529M 10530M 10530B 10558M 10559M
                                                 10559B 10597M 10598M 10598B 10604M 10605M 10605B 10608M 10609M 10609B
                                                 10650M 10651M 10651B 10717M 10718M 10718B 10764M 10765M 10765B 10771M
                                                 10772M 10772B 10819M 10822B 10868  10983M 10984M 10984B 11000M 11001M
                                                 11001B 11014M 11015M 11015B 11022M 11023M 11023B 11045M 11046M 11046B
                                                 11116M 11119B 11201  11342M 11343M 11343B 11350M 11351M 11351B 11372M
                                                 11373M 11373B 11391M 11392M 11392B 11399M 11400M 11400B 11538M 11539M
                                                 11539B 11561M 11562M 11562B 11599M 11600M 11600B 11624M 11625M 11625B
                                                 11641M 11642M 11642B 11676M 11677M 11677B 11705M 11706M 11706B 11720M
                                                 11721M 11721B 11774M 11775M 11775B 11797M 11798M 11798B 11844M 11847B
                                                 11928  12072M 12073M 12073B 12080M 12081M 12081B 12108M 12109M 12109B
                                                 12116M 12117M 12117B 12138M 12139M 12139B 12298M 12299M 12299B 12402M
                                                 12405B 12492  12608M 12609M 12609B 12618M 12619M 12619B 12676M 12677M
                                                 12677B 12706M 12709B 12805  12935M 12936M 12936B 12947M 12948M 12948B
1RECS     (RECS2101) (12:53) (15MAR04) Ordinary Symbol and Literal Cross Reference                                          Page  178
                                                 12976M 12979B 13012  13107M 13108M 13108B 13292M 13295B 13342  13437M
                                                 13438M 13438B 13616M 13619B 13662  13718M 13719M 13719B 13766M 13767M
                                                 13767B 13856M 13857M 13857B 13865M 13866M 13866B 13899M 13902B 13944
                                                 14079M 14080M 14080B 14114M 14117B 14159  14300M 14301M 14301B 14338M
                                                 14339M 14339B 14391M 14392M 14392B 14426M 14429B 14505  14586M 14587M
                                                 14587B 14618M 14619M 14619B 14651M 14652M 14652B 14740M 14741M 14741B
                                                 14760M 14761M 14761B 14780M 14781M 14781B 14872M 14873M 14873B 14893M
                                                 14894M 14894B 14902M 14903M 14903B 15127M 15128M 15128B 15132M 15133M
                                                 15133B 15138M 15139M 15139B 15175M 15176M 15176B 15180M 15181M 15181B
                                                 15186M 15187M 15187B 15213M 15214M 15214B 15229M 15230M 15230B 15254M
                                                 15255M 15255B 15292M 15295B 15337  15450M 15451M 15451B 15470M 15471M
                                                 15471B 15490M 15491M 15491B 15569M 15570M 15570B 15591M 15592M 15592B
                                                 15612M 15613M 15613B 15621M 15622M 15622B 15708M 15709M 15709B 15723M
                                                 15724M 15724B 15729M 15730M 15730B 15799M 15802B 15866  15997M 15998M
                                                 15998B 16030M 16031M 16031B 16036M 16037M 16037B 16047M 16048M 16048B
                                                 16087M 16088M 16088B 16112M 16113M 16113B 16135M 16136M 16136B 16152M
                                                 16153M 16153B 16167M 16168M 16168B 16178M 16179M 16179B 16214M 16217B
                                                 16258  16333M 16334M 16334B 16377M 16378M 16378B 16428M 16429M 16429B
                                                 16492M 16495B 16589  16708M 16709M 16709B 16716M 16717M 16717B 16739M
                                                 16740M 16740B 16796M 16799B 16844  16942M 16943M 16943B 16950M 16951M
                                                 16951B 16989M 16990M 16990B 17068M 17071B 17130  17187M 17190B 17221
                                                 17295M 17298B 17327  17397M 17398M 17398B 17470M 17473B 17541  17639M
                                                 17640M 17640B 17646M 17647M 17647B 17671M 17672M 17672B 17680M 17681M
                                                 17681B 17734M 17737B 17779  17913M 17914M 17914B 17978M 17981B 18038
                                                 18093M 18094M 18094B 18136M 18139B 18189  18241M 18242M 18242B 18284M
                                                 18287B 18316  18386M 18387M 18387B 18415M 18418B 18453  18524M 18525M
                                                 18525B 18553M 18556B 18590  18663M 18664M 18664B 18692M 18695B 18768
                                                 18919M 18922B 18960  19228M 19231B 19294  19349M 19350M 19350B 19517M
                                                 19520B 19579  19633M 19634M 19634B 19723M 19726B 19774  20110M 20113B
                                                 20200  20329M 20330M 20330B 20677M 20678M 20678B 20708M 20711B 20797
                                                 20927M 20928M 20928B 21196M 21197M 21197B 21340M 21341M 21341B 21472M
                                                 21473M 21473B 21601M 21602M 21602B 21646M 21647M 21647B 21725M 21726M
                                                 21726B 21806M 21809B 21915  22001M 22002M 22002B 22009M 22010M 22010B
                                                 22033M 22034M 22034B 22041M 22042M 22042B 22360M 22361M 22361B 22403M
                                                 22404M 22404B 22456M 22457M 22457B 22499M 22500M 22500B 22509M 22510M
                                                 22510B 22516M 22517M 22517B 22531M 22532M 22532B 22536M 22537M 22537B
                                                 22589M 22592B 22674  22840M 22841M 22841B 22848M 22849M 22849B 22872M
                                                 22873M 22873B 22880M 22881M 22881B 23436M 23437M 23437B 23533M 23534M
                                                 23534B 23623M 23624M 23624B 23721M 23722M 23722B 23731M 23732M 23732B
                                                 23737M 23738M 23738B 23751M 23752M 23752B 23756M 23757M 23757B 23832M
                                                 23835B 23885  23955M 23956M 23956B 23996M 23997M 23997B 24075M 24078B
                                                 24154  24226M 24227M 24227B 24344M 24345M 24345B 24393M 24394M 24394B
                                                 24575M 24576M 24576B 24598M 24599M 24599B 24609M 24610M 24610B 24637M
                                                 24638M 24638B 24660M 24661M 24661B 24676M 24677M 24677B 24682M 24683M
                                                 24683B 24714M 24717B 24749  24912M 24913M 24913B 24934M 24937B 24959
                                                 25112M 25113M 25113B 25134M 25137B 25216  25263M 25264M 25264B 25272M
                                                 25273M 25273B 25281M 25282M 25282B 25325M 25326M 25326B 25343M 25344M
                                                 25344B 25387M 25388M 25388B 25463M 25466B 25544  25614M 25615M 25615B
                                                 25625M 25626M 25626B 25646M 25647M 25647B 25694M 25695M 25695B 25858M
                                                 25859M 25859B 25938M 25939M 25939B 25949M 25950M 25950B 25970M 25971M
                                                 25971B 26011M 26012M 26012B 26157M 26160B 26228  26623M 26624M 26624B
                                                 26668M 26671B 26707  26906M 26909B
 RCVYDONE      2 00003730 00000001     H   25439 25405B 25436B
 RCVYINFO      1 00000000 00000008     T    7753  7753
 RECGRP        4 00000000 FFFFFFE6     F    6768  7014M  7210   7359   7367   7701   8560   8817   9110   9660  10455
                                                 10947  11272  11999  12575  13711  15206  16664  16914  17383  17389
                                                 17856  24219  26076M
 RECNLEN       2 00000008 FFFFFFE6     H    6770  6945M  7702   8528   8799   9078   9397   9628   9934  10437  10929
                                                 11306  11332  12033  12059  12555  16648  16896  20307  20905  21982
1RECS     (RECS2101) (12:53) (15MAR04) Ordinary Symbol and Literal Cross Reference                                          Page  179
                                                 22821  23946  26078M
 RECPOFF       2 0000001A FFFFFFE6     H    6777 10657M 11074M 11074  15977M 15977  20861  21170M 21314M 21466M 21595M
 RECPPG        4 00000014 FFFFFFE6     F    6775 10659M 11067M 11067  15970M 15970  20862  21172M 21316M 21468M 21597M
 RECQOFF       2 00000018 FFFFFFE6     H    6776  8545M  8545   8643M  8921M  9095M  9095   9223M  9457M  9645M  9645
                                                  9760M  9994M 11060M 11060  13089  13181  13419  15963M 15963  20263
                                                 20484M 20597M 22503  23725  24032M
 RECQPG        4 00000010 FFFFFFE6     F    6774  8538M  8538   8640M  8918M  9088M  9088   9220M  9454M  9638M  9638
                                                  9757M  9991M 11053M 11053  13074  13100  13404  13430  15956M 15956
                                                 20264  20486M 20599M 24029M
 RECSET        4 00000004 FFFFFFE6     F    6769  6946M  8527   8575   8798   8832   9077   9125   9208   9396   9442
                                                  9627   9675   9745   9933   9979  10436  10476  10497  10928  10968
                                                 11293  11304  12020  12031  12554  12590  17169  17170M 17871  17899
                                                 17900M 17951M 18365  18367M 18389M 18502  18504M 18527M 18639  18641M
                                                 18666M 20259  20857  23945  24017  24214  26077M
 RECSPLT       1 0000000B FFFFFFE6     X    6772  6947M 14918  17258  17274M 26079M
 RECS2101      1 00000000 00000001     R    1140  1138
 RECTYPE       4 0000000C FFFFFFE6     C    6773  6948M  7211   7380   7406   7511   7703  11646  11725  13112  13442
                                                 13723  13870  14305  14623  15218  16052  16157  16183  16338  17402
                                                 20334  20932  24231  24580  24642  26080M
 RGCHECK       2 00003744 00000001     H   25537 25533  26920
 RGRCVY        2 00003654 00000001     H   25210 25206
 RGROUP       32 00000000 FFFFFFE6     J    6785  6932U  6944M  6944   7331U  7596M  7596   7698U  8522U  8598   8793U
                                                  8855   8872   9072U  9137   9184   9391U  9402   9479   9622U  9687
                                                  9719   9928U  9939  10016  10138U 10156  10268  10508  10525  10594
                                                 10600  10923U 10979  10996  11042  11256U 11338  11369  11387  11558
                                                 11596  11621  11702  11794  11983U 12068  12104  12135  12295  12547U
                                                 12604  13057U 13151  13166  13387U 13481  13496  13707U 13999U 14075
                                                 14214U 14551U 14583  15373U 15921U 15994  16132  16303U 16644U 16704
                                                 16736  16938  16986  17166U 17596U 17635  17642  17825U 17909  18362U
                                                 18380  18499U 18518  18636U 18654  20255U 20852U 21961U 21997  22005
                                                 22029  22037  22356  22399  22452  22512  22526  22720U 22836  22844
                                                 22868  22876  23432  23529  23619  23733  23746  23940U 23951  23993
                                                 24209U 25431M 25431  26052U 26075M 26075
 ROUNDERR      2 00003254 00000001     H   23803 23770B
 RPAGE     20344 00000000 FFFFFFE7     J    6754  6923U  7322U  7525   7746   8784U  9063U  9382U  9613U  9919U 10429U
                                                 10914U 11247U 11974U 12538U 12746  12859U 12921U 13048U 13378U 13698U
                                                 13990U 14205U 14563U 14609U 14611  14717U 14844U 14975U 15068U 15096U
                                                 15156U 15204U 15427U 15561U 15564  15640U 15717  15912U 16294U 16325U
                                                 16357U 16519  16635U 16890U 17363U 17587U 20130  20246U 20843U 21836
                                                 22298U 23392U 23931U 24200U 24333U 24539U 24611  24654  25252U 25888U
                                                 25983  25986  26007  26016  26041U 26275U 26929
 RPAREA    20264 00000050 FFFFFFE7     X    6746  7037   7748  15667  16536  25773  26363  26930
 RPDATA      128 00000014 FFFFFFE7         6705  7028M 13126  13456  13737  15649M 15933  17416  20348  20946  25669
                                                 25749  26293
 RPDEND        2 0000002C FFFFFFE7     H    6740  7069M 10539  10560  10610  10697  10699M 10744  10746M 12924M 15699M
                                                 15699  21061  21151  21153M 21162  21295  21297M 21306  21449  21451M
                                                 21458  21578  21580M 21587  25805  26391  26396  26528
 RPDSTART      2 0000002A FFFFFFE7     H    6739  7068M 12866  12867  15692M 15692  25801  26387  26532  26536  26552
 RPFLAG2       1 00000015 FFFFFFE7     R    6715  6719   6724
 RPINFO        1 00000030 FFFFFFE7     X    6743  7070   8605   8883   9143   9693  10644  10758  11008  11344  11393
                                                 11515  11653  11751  12074  12110  12612  13761  14332  15119  15167
                                                 15223  15700  16081  16710  16944  17665  17674  21173  21317  24338
                                                 24387  25860  26625
 RPKEYLN       2 0000001C FFFFFFE7     H    6730  7034M  7040   7042   7056   7064   7073   7436   8644   8922   9229
                                                  9463   9766  10000  10673  10711  10747  11424  12154  12237  12639
                                                 12887  13217  13511  13547  13768  13850  14038  14070  14253  14288
                                                 14383  14985  15071  15078  15100  15122  15160  15170  15664  15703
                                                 15713  15718  15981  15987  16023  16309  24346  24395  24523  24590
                                                 24601  24652  25299  25361  25764  25834  25853  25895  26354  26367
1RECS     (RECS2101) (12:53) (15MAR04) Ordinary Symbol and Literal Cross Reference                                          Page  180
                                                 26372  26402  26411  26420  26431  26480  26593  26602  26618
 RPLINK        4 00000018 FFFFFFE7     F    6728 13166  13496  14014  14229  14293  14577  14611  15565M 15663M 15663
                                                 15948  16372M 16372  25736  26332
 RPMASTER     64 00000014 FFFFFFE7         6710  7426  13755  14319  15655M 16066  24271  25293  25355  25712  26315
 RPMEMORY     64 00000015 FFFFFFE7         6724  7101M 14731  15441
 RPNAME        6 00000000 FFFFFFE7     C    6688  7021M  7378   7509   7516M  7578M 11644  11723  13110  13440  13721
                                                 13868  14303  14621  15216  16050  16155  16162M 16181  16336  16423M
                                                 17400  20332  20930  24229  24578  24640  25720  26336
 RPNAMELN      2 0000001E FFFFFFE7     H    6731  7032M  9225   9459   9762   9996  22312  23406  24034  24248  25657
                                                 25690  25762  26007  26349
 RPNAME2       6 0000000A FFFFFFE7     C    6695  7022M 15642M 25724  26344
 RPNTRYLN      2 00000020 FFFFFFE7     H    6732  7036M  7044   7048   7072   7074   7525   9162   9409   9701   9727
                                                  9946  11412  12093  12289  12350  12900  12901  13799  13844  14358
                                                 14629  14630  15019  15025  15046  15121  15169  15666M 15670  15702
                                                 16115  16964  17010  17423  20361  20959  21166  21286  21310  23975
                                                 24377  24382  24426  24431  24480  24611  24654  25300  25362  25769
                                                 25779  25816  25842  25852  25986  26016  26359  26377  26430  26444
                                                 26462  26470  26560  26608  26617
 RPNUMB        4 00000010 FFFFFFE7     F    6698  7030M  8640   8918   9220   9454   9757   9991  10658  11383  11419
                                                 11615  12100  12149  12219  12264  13151  13481  14851M 15076  15563M
                                                 15564  15717  15946  16017  16137  16359  16365M 17641  17648  20485
                                                 20598  21171  21315  21467  21596  24029  25278  25340  25675  25732
                                                 25983  26328
 RPRECVRY    128 00000015 FFFFFFE7         6719  7128M  7142   7396  14861  15580
 RPSTART       8 00000000 FFFFFFE7     D    6687  6741   6741   6744   6744   6746
 RPTYPE        1 00000014 FFFFFFE7     R    6701  6705   6710
 RPUTYPE       4 00000006 FFFFFFE7     C    6689  7029M  7149   7171   7380   7511  11646  11725  13112  13442  13723
                                                 13870  14305  14623  14868  14890  15218  15587  15609  16052  16157
                                                 16183  16338  17402  20334  20932  24231  24580  24642  25728  26080
                                                 26340
 RPXEND        2 00000024 FFFFFFE7     H    6735  7045M  7434   9167   9410   9725  10540  10561  10611  10767M 11018M
                                                 11036  11352  11496  11504  11512  11514M 11525  11552  11652M 11663
                                                 11696  11732  11740  11748  11750M 11761  11788  12118  12235  12319
                                                 12863  13179  13806  14628  14979  15109  15115  15118M 15123  15166M
                                                 15171  15250M 15671M 15704  16108M 16116  16719  17008  17424  20363
                                                 20961  21062  21165  21167M 21309  21311M 23976  24478  25303  25365
                                                 25780  25785  25813  25854  25893  26378  26383  26395  26428  26441
                                                 26478  26574  26619
 RPXFIRST      2 00000026 FFFFFFE7     H    6736  7039M  7054  13507  14251  14289  15098  15678M 15678  15982  24588
                                                 24602  25793  26365  26400  26421
 RPXLAST       2 00000028 FFFFFFE7     H    6737  7041M  7062  13509  14036  14071  15158  15685M 15685  15988  16021
                                                 20365  20963  24650  25797  26368  26409  26432
 RPXSTART      2 00000022 FFFFFFE7     H    6734  7043M  7046   7432   8606   8884   9144   9190   9694   9702   9947
                                                 10645  10759  11009  11036  11345  11375  11394  11526  11552  11664
                                                 11696  11738  11747  11762  11788  12075  12111  12141  12317  12613
                                                 12861  12869  13177  13762  13804  14333  14359  14977  15105  15117
                                                 15124  15172  15224  15669M 15705  15710  16082  16114  16307  16711
                                                 16758  16945  16969  17422  17666  17675  23999  24339  24388  24436
                                                 24521  24591  25301  25363  25775  25811  25855  25891  26373  26418
                                                 26439  26476  26572  26620
 R0            0 00000000 FFFFFFFF A   #     699  2102   2171M  6935   6945   7014   7030   7070M  7210M  7367M  7405M
                                                  7405   7497M  7701M  7705   7705M  7829   7854   7860M  7866   7873
                                                  7873M  7959   7984   7990M  7996   8003   8003M  8089   8114   8120M
                                                  8126   8133   8133M  8220   8245   8251M  8257   8264   8264M  8351
                                                  8376   8382M  8388   8395   8395M  8605M  8645M  8663   8663M  8883M
                                                  8923M  8941   8941M  9143M  9230M  9248M  9248   9259   9259M  9464M
                                                  9490   9490M  9693M  9767M  9785M  9785   9796   9796M 10001M 10027
                                                 10027M 10166  10166M 10278  10278M 10434  10644M 10750M 10751  10758M
                                                 10766M 10767  11008M 11017M 11018  11305  11344M 11383M 11384  11393M
1RECS     (RECS2101) (12:53) (15MAR04) Ordinary Symbol and Literal Cross Reference                                          Page  181
                                                 11419M 11420  11634M 11713M 12032  12074M 12100M 12101  12110M 12149M
                                                 12150  12358M 12370M 12370  12380  12380M 12551  12612M 12640M 12654
                                                 12669  12863M 12864M 12881  13100M 13275  13275M 13430M 13711M 13761M
                                                 13862M 14293M 14332M 14384M 14611M 14851  14961M 14961  14963M 14979M
                                                 14980M 14999  15040  15076M 15079  15119M 15167M 15206M 15223M 15249M
                                                 15250  15563  15564M 15565  15700M 15717M 15719  15946M 15947  15948M
                                                 15949  16017M 16018  16040M 16081M 16107M 16108  16137M 16138  16145M
                                                 16171M 16310M 16359M 16365  16647  16684M 16684  16710M 16774  16774M
                                                 16895  16925M 16925  16944M 17046  17046M 17170  17268M 17268  17274
                                                 17389M 17601  17613M 17618  17665M 17674M 17900  18107M 18114  18114M
                                                 18255M 18262  18262M 18381M 18504  18519M 18641  18655M 18806  18998
                                                 18999M 19000  19004  19028M 19044  19087  19103  19117M 19118  19197
                                                 19207M 19211  19211M 19343  19390M 19400  19420  19428M 19429M 19441
                                                 19451  19453  19457  19459  19466M 19467M 19468  19479M 19480M 19495
                                                 19495M 19628  19667M 19668M 19669  19697M 19698M 19701  19701M 19812
                                                 19813M 19814  19818  19909M 19925  19969  19985  19999M 20000  20079
                                                 20089M 20093  20093M 20322M 20479M 20537M 20537  20592M 20686  20686M
                                                 20920M 21155M 21157M 21198M 21299M 21301M 21342M 21403M 21532M 21679
                                                 21765M 21784  21784M 21964  22495M 22527M 22539M 22567  22567M 22723
                                                 22959M 22971  22980M 23097M 23109  23118M 23717M 23747M 23777M 23810
                                                 23810M 24212  24214M 24215  24216  24219M 24338M 24387M 24565M 24591M
                                                 24592M 24594M 24602M 24603M 24605M 24627M 24653M 24654M 24656M 24787
                                                 24823  24880  25257  25275  25278M 25322M 25340M 25384M 25585  25643
                                                 25651  25675M 25813M 25814M 25828  25850M 25931M 25975  25982M 26328
                                                 26441M 26442M 26456  26478M 26479M 26492  26574M 26575M 26587  26615M
                                                 26748  26765M 26775  26785  26786
 R1            1 00000001 FFFFFFFF A   #     712  2165M  2166M  2172M  6936   7031M  7032   7033M  7033   7034   7035M
                                                  7035   7036   7037M  7038M  7039   7040M  7041   7042M  7043   7044M
                                                  7045   7067M  7068   7069   7071M  7149M  7150M  7150   7171M  7211M
                                                  7406M  7702M  7705   7828   7865   7958   7995   8088   8125   8219
                                                  8256   8350   8387   8606M  8607M  8641   8645   8646M  8646   8647M
                                                  8663   8884M  8885M  8919   8923   8924M  8924   8925M  8941   9144M
                                                  9145M  9162M  9178   9190M  9191M  9221   9226   9230   9231M  9231
                                                  9232M  9252M  9252   9259   9409M  9421   9455   9460   9464   9465M
                                                  9465   9466M  9490   9694M  9695M  9701M  9713   9725M  9726M  9727M
                                                  9758   9763   9767   9768M  9768   9769M  9789M  9789   9796   9946M
                                                  9958   9992   9997  10001  10002M 10002  10003M 10027  10166  10278
                                                 10435  10645M 10646M 10655  10678  10700  10705  10713  10759M 10760M
                                                 11009M 11010M 11331  11345M 11346M 11363  11375M 11376M 11381M 11382
                                                 11394M 11395M 11412M 11417M 11418  11515M 11523U 11653M 11661U 11751M
                                                 11759U 12058  12075M 12076M 12093M 12098M 12099  12111M 12112M 12129
                                                 12141M 12142M 12147M 12148  12205M 12206M 12281  12288  12289M 12317M
                                                 12318M 12342  12349  12350M 12550  12613M 12614M 12640  12641M 12641
                                                 12642M 12668  12861M 12862M 12881  12888  12890  12900M 12921U 12923M
                                                 13181M 13182M 13194  13206  13229  13268M 13268  13275  13762M 13763M
                                                 13780  13799M 13817  13823M 13837  13843M 13844M 13851  14333M 14334M
                                                 14358M 14370  14384  14628M 14629M 14630M 14641  14868M 14869M 14869
                                                 14890M 14962M 14964M 14965  14977M 14978M 14999  15020  15025M 15040
                                                 15046M 15051M 15052  15120M 15165M 15166  15168M 15224M 15225M 15587M
                                                 15588M 15588  15609M 15664M 15665M 15665  15666  15667M 15668M 15669
                                                 15670M 15671  15701M 15710M 15711M 15712  15719  16082M 16083M 16114M
                                                 16115M 16126  16307M 16308M 16310  16711M 16712M 16730  16758M 16759M
                                                 16774  16945M 16946M 16964M 16980  17008M 17009M 17010M 17018  17046
                                                 17422M 17423M 17424  17626  17666M 17667M 17673  17675M 17676M 17682
                                                 18107  18255  18382M 18512  18520M 18656M 18814  18825M 18839  19000M
                                                 19003  19038  19044M 19068  19087M 19103M 19118M 19134  19160  19197M
                                                 19211  19344  19364  19387  19388M 19389M 19400  19420  19426M 19427M
                                                 19429  19629  19651  19653  19663  19814M 19817  19919  19925M 19950
                                                 19969M 19985M 20000M 20016  20042  20079M 20093  20359M 20360M 20362
1RECS     (RECS2101) (12:53) (15MAR04) Ordinary Symbol and Literal Cross Reference                                          Page  182
                                                 20380  20478  20480M 20481M 20541M 20541  20593M 20594M 20686  20957M
                                                 20958M 20960  20978  21156M 21183M 21184M 21185  21300M 21327M 21328M
                                                 21329  21403  21404  21427  21433  21457  21459  21464  21965  22496M
                                                 22503M 22504M 22505  22528M 22724  22923M 22932M 22932  22989M 22989
                                                 23009  23022M 23031M 23031  23051  23060  23061M 23070M 23070  23127M
                                                 23127  23147  23160M 23169M 23169  23189  23198  23718M 23725M 23726M
                                                 23727  23748M 23975M 23987  23999M 24000M 24030  24035  24213  24339M
                                                 24340M 24358  24377M 24382M 24383  24388M 24389M 24407  24426M 24431M
                                                 24432  24593M 24604M 24655M 24787  24832  24889  25269M 25586  25643M
                                                 25676M 25676  25762M 25763M 25763  25764  25768M 25768  25769  25773M
                                                 25774M 25775  25779M 25780  25784M 25785  25792M 25792  25793  25797
                                                 25801  25805  25811M 25812M 25815  25816M 25828  25835  25841  25842M
                                                 25851M 25967M 25983M 26332  26348M 26349  26353M 26353  26354  26358M
                                                 26358  26359  26363M 26364M 26365  26367M 26368  26372M 26373  26377M
                                                 26378  26382M 26383  26387  26391  26395M 26396  26439M 26440M 26443
                                                 26444M 26456  26463  26469  26470M 26476M 26477M 26492  26498  26499
                                                 26545  26546  26560M 26572M 26573M 26587  26594  26596  26603  26605
                                                 26608M 26616M 26762  26784
 R12          12 0000000C FFFFFFFF A   #     855  2128
 R13          13 0000000D FFFFFFFF A   #     868 11494M 11509M 11730M 11745M 12844M 12954M 19333M 19481M 19627M 19699M
                                                 21275M 21289M 25867M 26022M 26267M 26646M
 R14          14 0000000E FFFFFFFF A   #     881  2103M 12888M 12889M 12899M 21279M 21281M 21285M 21286M 21288M 21429M
                                                 21431M 21453M 21455M 21558M 21560M 21582M 21584M 22727M 22737  22755
                                                 22764M 22764  22774  24588M 24589M 24594M 24600M 24605M 24650M 24651M
                                                 24656M
 R15          15 0000000F FFFFFFFF A   #     894  2102   6934   7224M  7224   7248M  7248   7333   7438   7439M  7449U
                                                  7477M  7532   7533M  7543U  7571M  7600M  7600   7619M  7619   7700
                                                  7703M  7724M  7724   7892M  7892   8022M  8022   8152M  8152   8283M
                                                  8283   8414M  8414   8524   8526   8581M  8598M  8624M  8652M  8652
                                                  8687M  8687   8795   8797   8838M  8855M  8872M  8902M  8930M  8930
                                                  8965M  8965   9074   9076   9137M  9184M  9237M  9237   9253M  9283M
                                                  9283   9393   9395   9402M  9471M  9471   9479M  9514M  9514   9624
                                                  9626   9687M  9719M  9774M  9774   9790M  9820M  9820   9930   9932
                                                  9939M 10008M 10008  10016M 10051M 10051  10140  10156M 10185M 10185
                                                 10252  10268M 10297M 10297  10433  10508M 10525M 10594M 10600M 10722M
                                                 10722  10776M 10776  10788M 10793M 10821M 10821  10925  10927  10979M
                                                 10996M 11042M 11082M 11082  11090M 11118M 11118  11258  11259M 11310
                                                 11338M 11369M 11387M 11558M 11596M 11621M 11702M 11794M 11810M 11810
                                                 11818M 11846M 11846  11985  11986M 12037  12068M 12104M 12135M 12295M
                                                 12359M 12374M 12374  12404M 12404  12549  12596M 12604M 12631M 12660M
                                                 12681M 12681  12708M 12708  12890M 12891M 12891  12892M 12893M 12894
                                                 12895  12898  12953M 12953  12978M 12978  13059  13257M 13257  13269M
                                                 13294M 13294  13389  13587M 13587  13595M 13618M 13618  13709  13882M
                                                 13882  13901M 13901  14001  14020M 14052M 14075M 14084M 14084  14116M
                                                 14116  14216  14235M 14270M 14396M 14396  14428M 14428  14553  14583M
                                                 14653M 14668  14669M 14679U 14707M 14795  14796M 14806U 14834M 15259M
                                                 15259  15294M 15294  15375  15378  15379M 15389U 15417M 15505  15506M
                                                 15516U 15544M 15739  15740M 15750U 15778M 15782M 15782  15801M 15801
                                                 15923  15994M 16132M 16192M 16192  16216M 16216  16305  16383  16384M
                                                 16394U 16422M 16431  16432M 16442U 16470M 16475M 16475  16494M 16494
                                                 16646  16670M 16704M 16736M 16752M 16769M 16769  16798M 16798  16894
                                                 16931M 16938M 16986M 17002M 17030M 17041M 17041  17070M 17070  17168
                                                 17169M 17189M 17189  17252  17258M 17297M 17297  17367  17453M 17472M
                                                 17472  17598  17635M 17642M 17712M 17736M 17736  17827  17880M 17880
                                                 17898  17909M 17926M 17945M 17945  17980M 17980  18138M 18138  18286M
                                                 18286  18364  18380M 18393M 18393  18417M 18417  18501  18518M 18531M
                                                 18531  18555M 18555  18638  18654M 18670M 18670  18694M 18694  18921M
                                                 18921  19120M 19180M 19230M 19230  19369M 19369  19406M 19469M 19469
                                                 19519M 19519  19673M 19673  19691M 19725M 19725  20002M 20062M 20112M
1RECS     (RECS2101) (12:53) (15MAR04) Ordinary Symbol and Literal Cross Reference                                          Page  183
                                                 20112  20257  20258  20490M 20490  20542M 20606M 20606  20674M 20710M
                                                 20710  20854  20855  21202M 21202  21280M 21287M 21346M 21346  21430M
                                                 21454M 21477M 21477  21559M 21583M 21606M 21606  21643M 21722M 21735M
                                                 21735  21741M 21754M 21754  21760M 21775M 21808M 21808  21963  21997M
                                                 22005M 22029M 22037M 22356M 22390M 22390  22399M 22452M 22486M 22486
                                                 22512M 22526M 22543M 22543  22551M 22556M 22561M 22591M 22591  22722
                                                 22836M 22844M 22868M 22876M 23432M 23465M 23465  23529M 23619M 23652M
                                                 23652  23733M 23746M 23781M 23781  23789M 23794M 23799M 23804M 23834M
                                                 23834  23942  23944  23951M 23993M 24041M 24041  24049M 24077M 24077
                                                 24211  24279  24280M 24290U 24318M 24590M 24593  24601M 24604  24652M
                                                 24655  24692M 24692  24716M 24716  24936M 24936  25136M 25136  25256
                                                 25268M 25403M 25403  25465M 25465  25588  25617M 25642M 25649M 25722M
                                                 25726M 25730M 25734M 25738M 25756M 25766M 25771M 25777M 25782M 25787M
                                                 25795M 25799M 25803M 25807M 25839M 25862M 25941M 25966M 25973M 26096M
                                                 26096  26159M 26159  26300M 26322M 26330M 26334M 26338M 26342M 26346M
                                                 26351M 26356M 26361M 26370M 26375M 26380M 26385M 26389M 26393M 26398M
                                                 26407M 26416M 26426M 26437M 26467M 26530M 26534M 26543M 26549M 26554M
                                                 26600M 26627M 26632M 26632  26670M 26670  26877M 26877  26885M 26908M
                                                 26908
 R2            2 00000002 FFFFFFFF A   #     725  6937   7017M  7020M  7046M  7047M  7053M  7054M  7055M  7061M  7062M
                                                  7063M  7066M  7072M  7432M  7433M  7491   7497   7498M  7523M  7525M
                                                  7865M  7867M  7995M  7997M  8125M  8127M  8256M  8258M  8387M  8389M
                                                  8525   8531M  8599M  8608M  8796   8802M  8856M  8873M  8886M  9075
                                                  9081M  9138M  9146M  9224M  9228M  9394   9400M  9403M  9458M  9462M
                                                  9480M  9625   9631M  9688M  9696M  9761M  9765M  9931   9937M  9940M
                                                  9995M  9999M 10017M 10440M 10509M 10526M 10601M 10647M 10674M 10675M
                                                 10675  10676M 10677M 10691  10698  10705M 10706M 10710M 10712M 10713
                                                 10740M 10741M 10741  10742M 10743M 10745  10752M 10753M 10757M 10761M
                                                 10926  10932M 10980M 10997M 11011M 11259  11305M 11309M 11310M 11311
                                                 11320M 11320  11331M 11335M 11339M 11347M 11388M 11396M 11423M 11427M
                                                 11495M 11501M 11502M 11503M 11508M 11512M 11513M 11514  11525M 11526M
                                                 11527  11651M 11652  11663M 11664M 11665  11731M 11737M 11738M 11739M
                                                 11744M 11748M 11749M 11750  11761M 11762M 11763  11986  12032M 12036M
                                                 12037M 12038  12047M 12047  12058M 12062M 12069M 12077M 12105M 12113M
                                                 12153M 12157M 12235M 12236M 12281  12319M 12320M 12329M 12330M 12342
                                                 12558M 12605M 12615M 12668M 12672M 12845M 12849M 12897M 12899M 12939M
                                                 12943M 13229  13523  13559  13780  13804M 13805M 13817  13823  13851M
                                                 13862  14036M 14037M 14040M 14069M 14074M 14076M 14251M 14252M 14258M
                                                 14287M 14292M 14335M 14359M 14360M 14370  14631M 14641  14846M 14850M
                                                 14918M 14922  14934M 14941  14953M 14963  14984M 14984  15013  15019M
                                                 15024M 15070M 15075M 15077M 15078M 15079  15098M 15099M 15104M 15105M
                                                 15106M 15113M 15121M 15158M 15159M 15164M 15169M 15226M 15546M 15550M
                                                 15702M 15712M 15715M 15980M 15985M 15986M 15991M 16021M 16022M 16026M
                                                 16084M 16116M 16126  16360M 16364M 16651M 16690M 16691  16692M 16698M
                                                 16705M 16713M 16899M 16939M 16947M 17619M 17625M 17627M 17630M 17636M
                                                 17643M 17668M 17677M 17901M 17907M 17910M 18079M 18085M 18090M 18230M
                                                 18233M 18238M 18368M 18374M 18375M 18378M 18383M 18505M 18511M 18513M
                                                 18516M 18521M 18642M 18648M 18649M 18652M 18660M 18660  18815  18826M
                                                 18839  18845M 18871M 18872  19068  19160  19345  19364M 19368M 19450M
                                                 19454M 19455M 19456M 19460M 19461M 19465M 19648M 19657  19658  19658
                                                 19658  19659M 19662M 19663M 19665M 19821  19851  19864  19950  20042
                                                 20133  20133  20133  20258  20361M 20362M 20450  20478M 20479  20480
                                                 20482  20528  20586  20592  20593  20595  20600  20633  20674M 20855
                                                 20959M 20960M 21048  21120  21278  21279  21284  21285  21303  21305
                                                 21307  21312  21532  21533  21556  21562  21586  21588  21593  21643M
                                                 21722M 21966  21998M 22006M 22030M 22038M 22357M 22400M 22453M 22513M
                                                 22725  22737  22774  22837M 22845M 22869M 22877M 23433M 23530M 23620M
                                                 23734M 23943  23949M 23952M 24033M 24037M 24341M 24358  24390M 24407
                                                 24432M 24447  24453M 24490  24496M 24559  24565  24566M 24585M 24600
1RECS     (RECS2101) (12:53) (15MAR04) Ordinary Symbol and Literal Cross Reference                                          Page  184
                                                 24611M 24621  24627  24628M 24647M 24653  25260M 25299M 25322  25361M
                                                 25384  25587  25677M 25683M 25684M 25687M 25688M 25815M 25837M 25841M
                                                 25852M 25868M 25872M 25984M 26277  26400M 26401M 26405M 26409M 26410M
                                                 26414M 26418M 26419M 26424M 26428M 26429M 26430M 26435M 26443M 26465M
                                                 26469M 26498M 26511M 26511  26528  26532  26537  26538M 26541  26545M
                                                 26551M 26552  26567M 26570M 26594M 26595M 26598M 26603M 26604M 26607M
                                                 26617M 26762M 26775  26784M 26800  26806  26809  26830M 26845
 R3            3 00000003 FFFFFFFF A   #     738  7018M  7048M  7056M  7064M  7073M  7436M  7497   7866M  7996M  8126M
                                                  8257M  8388M  8528M  8530   8641M  8642M  8643   8644M  8645   8646
                                                  8799M  8801   8919M  8920M  8921   8922M  8923   8924   9078M  9080
                                                  9167M  9168M  9178   9221M  9222M  9223   9225M  9227   9229M  9230
                                                  9231   9397M  9399   9410M  9411M  9421   9455M  9456M  9457   9459M
                                                  9461   9463M  9464   9465   9628M  9630   9702M  9703M  9713   9758M
                                                  9759M  9760   9762M  9764   9766M  9767   9768   9934M  9936   9947M
                                                  9948M  9958   9992M  9993M  9994   9996M  9998  10000M 10001  10002
                                                 10437M 10439  10539M 10540M 10550  10560M 10561M 10574  10588  10610M
                                                 10611M 10621  10655M 10656M 10657  10658M 10659  10673M 10678  10700
                                                 10705  10707M 10709  10711M 10713  10747M 10749  10751  10752  10754M
                                                 10756  10929M 10931  11306M 11308  11332M 11334  11352M 11353M 11363
                                                 11424M 11426  11496M 11497M 11500  11504M 11505M 11507  11510M 11511M
                                                 11513  11732M 11733M 11736  11740M 11741M 11743  11746M 11747M 11749
                                                 12033M 12035  12059M 12061  12118M 12119M 12129  12154M 12156  12237M
                                                 12288  12349  12555M 12557  12639M 12640  12641  12669M 12846M 12848
                                                 12887M 12888  12890  12896  12898M 12940M 12942  13177M 13178M 13194
                                                 13507M 13508M 13523  13768M 13771M 13773  13806M 13807M 13837  13843
                                                 13850M 13851  14038M 14070M 14073  14253M 14288M 14291  14383M 14384
                                                 14847M 14849  14985M 15020  15071M 15074  15100M 15103  15109M 15110M
                                                 15111M 15112  15115M 15116M 15117M 15118  15122M 15160M 15163  15170M
                                                 15547M 15549  15703M 15713M 15718M 15719  15981M 15984  15987M 15990
                                                 16023M 16025  16309M 16310  16361M 16363  16648M 16650  16693M 16719M
                                                 16720M 16730  16896M 16898  16969M 16970M 16980  17620M 17628M 17641M
                                                 17659  17673M 17693  17902M 18080M 18231M 18369M 18376M 18506M 18514M
                                                 18643M 18650M 18816  18827M 18827  18846M 18846  18852  18865M 18865
                                                 18885M 18885  18891  19002M 19003M 19004M 19038  19134  19365M 19451M
                                                 19457M 19462M 19649M 19650M 19651M 19652M 19655  19816M 19817M 19818M
                                                 19919  20016  20263M 20286M 20286  20359  20363M 20364M 20380  20450
                                                 20528  20586  20633  20856  20861M 20884M 20884  20957  20961M 20962M
                                                 20978  21048  21120  21159  21161  21163  21168  21277  21283  21967
                                                 22726  22755  22791M 22791  23946M 23948  23976M 23977M 23987  24030M
                                                 24031M 24032  24034M 24036  24346M 24349M 24351  24395M 24398M 24400
                                                 24523M 24565  24627  25257M 25269  25300M 25328  25362M 25390  25678M
                                                 25685M 25689M 25834M 25836  25853M 25869M 25871  25895M 25913  25931
                                                 25967  25982  25985M 25986M 25996  26002M 26015M 26278  26402M 26404
                                                 26411M 26413  26420M 26423  26431M 26434  26462M 26464  26480M 26498
                                                 26499  26545  26546  26568M 26593M 26594  26596M 26596  26602M 26603
                                                 26605M 26605  26618M 26785M 26786M 26786  26800  26845
 R4            4 00000004 FFFFFFFF A   #     751  7020M  7053M  7061M  7066M  7074M  7434M  7435M  7491   7499M  7524M
                                                  7828M  7867M  7958M  7997M  8088M  8127M  8219M  8258M  8350M  8389M
                                                  8529M  8531M  8800M  8802M  9079M  9081M  9226M  9228M  9398M  9400M
                                                  9460M  9462M  9629M  9631M  9763M  9765M  9935M  9937M  9997M  9999M
                                                 10438M 10440M 10537M 10538M 10538  10550  10574  10621  10678M 10679M
                                                 10679  10680M 10681M 10691  10697M 10698M 10699  10700  10708M 10710M
                                                 10744M 10745M 10746  10749  10755M 10757M 10930M 10932M 11307M 11309M
                                                 11333M 11335M 11425M 11427M 11498M 11499M 11501M 11506M 11508M 11734M
                                                 11735M 11737M 11742M 11744M 12034M 12036M 12060M 12062M 12155M 12157M
                                                 12241M 12241  12287M 12287  12348M 12348  12359  12556M 12558M 12670M
                                                 12672M 12847M 12849M 12865M 12866M 12894M 12897  12941M 12943M 13179M
                                                 13180M 13206  13509M 13510M 13559  14040M 14071M 14072M 14074M 14258M
                                                 14289M 14290M 14292M 14848M 14850M 15020M 15021M 15021  15022M 15023M
1RECS     (RECS2101) (12:53) (15MAR04) Ordinary Symbol and Literal Cross Reference                                          Page  185
                                                 15024  15072M 15073M 15075M 15101M 15102M 15104M 15107M 15108M 15111
                                                 15113M 15114M 15116  15123M 15124M 15161M 15162M 15164M 15171M 15172M
                                                 15548M 15550M 15704M 15705M 15715M 15982M 15983M 15985M 15988M 15989M
                                                 15991M 16024M 16026M 16362M 16364M 16649M 16651M 16698M 16897M 16899M
                                                 17625M 17630M 17648M 17659  17682M 17693  17907M 18085M 18233M 18374M
                                                 18378M 18511M 18516M 18648M 18652M 18817  19005M 19021  19027M 19119M
                                                 19145M 19145  19151M 19366M 19368M 19452M 19454M 19458M 19460M 19463M
                                                 19465M 19653M 19654M 19659M 19664M 19665M 19819M 19902  19908M 20001M
                                                 20027M 20027  20033M 20264M 20275M 20275  20322  20365M 20366M 20482M
                                                 20483M 20484  20485M 20486  20595M 20596M 20597  20598M 20599  20600M
                                                 20602  20862M 20873M 20873  20920  20963M 20964M 21061M 21062M 21072
                                                 21151M 21152M 21153  21154M 21157M 21165M 21166M 21167  21168M 21169M
                                                 21170  21171M 21172  21173M 21181U 21276M 21281M 21282M 21288M 21295M
                                                 21296M 21297  21298M 21301M 21309M 21310M 21311  21312M 21313M 21314
                                                 21315M 21316  21317M 21325U 21404M 21405M 21405  21406M 21407M 21421
                                                 21427M 21428M 21431M 21432M 21433  21449M 21450M 21451  21452M 21455M
                                                 21456M 21457  21458M 21459  21464M 21465M 21466  21467M 21468  21533M
                                                 21534M 21534  21535M 21536M 21550  21556M 21557M 21560M 21561M 21562
                                                 21578M 21579M 21580  21581M 21584M 21585M 21586  21587M 21588  21593M
                                                 21594M 21595  21596M 21597  21679M 21715M 21765  22362M 22398M 22410M
                                                 22425  22458M 22496  22502  22505  22511M 22523M 22539  23492M 23493M
                                                 23679M 23680M 23947M 23949M 24035M 24037M 24383M 24467  24473M 24510
                                                 24516M 24559  24567M 24586M 24629M 24648M 25301M 25302M 25316  25322
                                                 25328M 25363M 25364M 25378  25384  25390M 25683M 25687M 25690M 25835M
                                                 25837M 25854M 25855M 25870M 25872M 25891M 25892M 25907  25931  25967
                                                 25982  25984  25985  26007M 26016M 26279  26403M 26405M 26412M 26414M
                                                 26421M 26422M 26424M 26432M 26433M 26435M 26463M 26465M 26499M 26522M
                                                 26522  26536M 26537M 26538  26539M 26540M 26541  26546M 26547  26551
                                                 26570M 26598M 26607M 26619M 26620M 26787M 26787  26806M 26807M 26808
                                                 26809M 26810M 26811M 26820M 26820  26829  26830  26865
 R5            5 00000005 FFFFFFFF A   #     764  7019M  7019   7052M  7052   7060M  7060   7065M  7829M  7854   7860
                                                  7959M  7984   7990   8089M  8114   8120   8220M  8245   8251   8351M
                                                  8376   8382   8530M  8801M  9080M  9227M  9399M  9461M  9630M  9764M
                                                  9936M  9998M 10439M 10709M 10748M 10749  10751  10752  10756M 10931M
                                                 11308M 11334M 11426M 11500M 11507M 11736M 11743M 12035M 12061M 12156M
                                                 12245M 12245  12288M 12349M 12358  12557M 12671M 12848M 12867M 12895M
                                                 12896  12924  12942M 13217M 13220M 13222  13511M 13514M 13516  13547M
                                                 13550M 13552  14039M 14073M 14257M 14257  14291M 14849M 15074M 15103M
                                                 15112M 15163M 15549M 15714M 15714  15984M 15990M 16025M 16363M 16650M
                                                 16697M 16697  16898M 17369M 17439M 17439  17453  17624M 17624  17629M
                                                 17632M 17702M 17702  17712  17906M 17906  18084M 18084  18232M 18373M
                                                 18373  18377M 18510M 18510  18515M 18647M 18647  18651M 19006M 19007M
                                                 19061  19153  19367M 19453M 19459M 19464M 19655M 19657  19658  19658
                                                 19658  19662M 19821M 19822M 19824M 19851  19858M 19864M 19876  19883M
                                                 19943  20035  20133  20133  20133  20601M 20602  21059M 21060M 21060
                                                 21072  21147M 21148M 21148  21149M 21150M 21152  21160M 21161  21162M
                                                 21163  21277M 21278M 21280  21283M 21284M 21287  21291M 21292M 21292
                                                 21293M 21294M 21296  21304M 21305  21306M 21307  21408M 21409M 21409
                                                 21410M 21411M 21421  21450  21537M 21538M 21538  21539M 21540M 21550
                                                 21579  23473M 23498M 23510  23516M 23517M 23517  23528  23549M 23549
                                                 23569  23591  23660M 23685M 23697  23703M 23704M 23704  23715  23718
                                                 23724  23727  23777  23948M 24036M 24436M 24437M 24447  24453  24467
                                                 24473  24478M 24479M 24480M 24490  24496  24510  24516  24521M 24522M
                                                 24568M 24587M 24621  24630M 24649M 25303M 25304M 25316  25365M 25366M
                                                 25378  25682M 25682  25686M 25691M 25836M 25871M 25893M 25894M 25907
                                                 25996  26008M 26280  26404M 26413M 26423M 26434M 26464M 26569M 26569
                                                 26597M 26597  26606M 26788M 26788  26808M 26829M
 R6            6 00000006 FFFFFFFF A   #     777  6932U  6934M  7331U  7333M  7344M  7344   7698U  7700M  8522U  8524M
                                                  8793U  8795M  9072U  9074M  9391U  9393M  9622U  9624M  9928U  9930M
1RECS     (RECS2101) (12:53) (15MAR04) Ordinary Symbol and Literal Cross Reference                                          Page  186
                                                 10138U 10140M 10252M 10433M 10923U 10925M 11256U 11258M 11983U 11985M
                                                 12547U 12549M 12868M 12869M 12896  12901M 13057U 13059M 13387U 13389M
                                                 13707U 13709M 13999U 14001M 14214U 14216M 14551U 14553M 15373U 15375M
                                                 15921U 15923M 16303U 16305M 16644U 16646M 16894M 17166U 17168M 17252M
                                                 17367M 17596U 17598M 17825U 17827M 17841  17898M 18362U 18364M 18499U
                                                 18501M 18636U 18638M 18804U 18806M 18996U 18998M 19341U 19343M 19625U
                                                 19628M 19810U 19812M 20255U 20257M 20852U 20854M 21961U 21963M 22720U
                                                 22722M 23940U 23942M 24209U 24211M 25256M 25419M 25419  25873M 25888U
                                                 25892  25894  25913  25983  25986  26007  26015M 26016  26052U 26054M
                                                 26063M 26063  26571M 26595  26604
 R7            7 00000007 FFFFFFFF A   #     790  2095M  2095   2096B  2108B
 R8            8 00000008 FFFFFFFF A   #     803  6912U  8509U  8773U  9052U  9371U  9602U  9908U 10418U 10903U 11236U
                                                 11963U 12527U 12840U 13979U 14194U 14540U 15901U 16624U 16879U 17576U
                                                 17814U 18073U 18224U 18351U 18488U 18625U 19329U 19614U 20235U 20832U
                                                 21950U 22709U 23920U 24189U 25579U 26263U
 SAREAD        1 00000000 00000011     T   26921 26921
 SDSNQSZ       1 0000002C FFFFFFEC A   U    6083  6084   6085
 SEARCHWA    140 00000000 FFFFFFE4     J    8458  8480   8509U  8683   8685   8686   8744   8773U  8961   8963   8964
                                                  9023   9052U  9279   9281   9282   9342   9371U  9510   9512   9513
                                                  9573   9602U  9816   9818   9819   9879   9908U 10047  10049  10050
                                                 10874  10903U 11114  11116  11117  13950  13979U 14112  14114  14115
                                                 14165  14194U 14424  14426  14427  16595  16624U 16794  16796  16797
                                                 16850  16879U 17066  17068  17069  23891  23920U 24073  24075  24076
 SPR          13 0000000D 00000001 A   #    1107  6877   6880   6882   6883M  6883   7240M  7244   7246   7286   7289
                                                  7290   7291M  7291   7611M  7615   7617   7662   7665   7666   7667M
                                                  7667   7716M  7720   7722   7799   7802   7803   7804M  7804   7884M
                                                  7888   7890   7929   7932   7933   7934M  7934   8014M  8018   8020
                                                  8059   8062   8063   8064M  8064   8144M  8148   8150   8190   8193
                                                  8194   8195M  8195   8275M  8279   8281   8321   8324   8325   8326M
                                                  8326   8406M  8410   8412   8474   8477   8479   8480M  8480   8679M
                                                  8683   8685   8738   8741   8743   8744M  8744   8957M  8961   8963
                                                  9017   9020   9022   9023M  9023   9275M  9279   9281   9336   9339
                                                  9341   9342M  9342   9506M  9510   9512   9567   9570   9572   9573M
                                                  9573   9812M  9816   9818   9873   9876   9878   9879M  9879  10043M
                                                 10047  10049  10102  10105  10106  10107M 10107  10177M 10181  10183
                                                 10221  10224  10225  10226M 10226  10289M 10293  10295  10383  10386
                                                 10388  10389M 10389  10813M 10817  10819  10868  10871  10873  10874M
                                                 10874  11110M 11114  11116  11201  11204  11206  11207M 11207  11838M
                                                 11842  11844  11928  11931  11933  11934M 11934  12396M 12400  12402
                                                 12492  12495  12497  12498M 12498  12700M 12704  12706  12805  12808
                                                 12810  12811M 12811  12970M 12974  12976  13012  13015  13016  13017M
                                                 13017  13286M 13290  13292  13342  13345  13346  13347M 13347  13610M
                                                 13614  13616  13662  13665  13666  13667M 13667  13893M 13897  13899
                                                 13944  13947  13949  13950M 13950  14108M 14112  14114  14159  14162
                                                 14164  14165M 14165  14420M 14424  14426  14505  14508  14510  14511M
                                                 14511  15286M 15290  15292  15337  15340  15341  15342M 15342  15793M
                                                 15797  15799  15866  15869  15871  15872M 15872  16208M 16212  16214
                                                 16258  16261  16262  16263M 16263  16486M 16490  16492  16589  16592
                                                 16594  16595M 16595  16790M 16794  16796  16844  16847  16849  16850M
                                                 16850  17062M 17066  17068  17130  17133  17134  17135M 17135  17181M
                                                 17185  17187  17221  17224  17225  17226M 17226  17289M 17293  17295
                                                 17327  17330  17331  17332M 17332  17464M 17468  17470  17541  17544
                                                 17546  17547M 17547  17728M 17732  17734  17779  17782  17784  17785M
                                                 17785  17972M 17976  17978  18038  18041  18043  18044M 18044  18130M
                                                 18134  18136  18189  18192  18194  18195M 18195  18278M 18282  18284
                                                 18316  18319  18321  18322M 18322  18409M 18413  18415  18453  18456
                                                 18458  18459M 18459  18547M 18551  18553  18590  18593  18595  18596M
                                                 18596  18686M 18690  18692  18768  18771  18772  18773M 18773  18913M
                                                 18917  18919  18960  18963  18964  18965M 18965  19222M 19226  19228
1RECS     (RECS2101) (12:53) (15MAR04) Ordinary Symbol and Literal Cross Reference                                          Page  187
                                                 19294  19297  19299  19300M 19300  19511M 19515  19517  19579  19582
                                                 19584  19585M 19585  19717M 19721  19723  19774  19777  19778  19779M
                                                 19779  20104M 20108  20110  20200  20203  20205  20206M 20206  20702M
                                                 20706  20708  20797  20800  20802  20803M 20803  21800M 21804  21806
                                                 21915  21918  21920  21921M 21921  22583M 22587  22589  22674  22677
                                                 22679  22680M 22680  23826M 23830  23832  23885  23888  23890  23891M
                                                 23891  24069M 24073  24075  24154  24157  24159  24160M 24160  24708M
                                                 24712  24714  24749  24752  24753  24754M 24754  24928M 24932  24934
                                                 24959  24962  24963  24964M 24964  25128M 25132  25134  25216  25219
                                                 25220  25221M 25221  25457M 25461  25463  25544  25547  25549  25550M
                                                 25550  26151M 26155  26157  26228  26231  26233  26234M 26234  26662M
                                                 26666  26668  26707  26710  26711  26712M 26712  26900M 26904  26906
 SRCHINFO      4 00000000 FFFFFFE4     A    8447  8526M  8797M  9076M  9395M  9626M  9932M 10927M 23944M
 SRCHKEY       1 00000008 FFFFFFE4     X    8449  8450   8451   8599   8608   8856   8873   8886   9138   9146   9403
                                                  9688   9696   9940  10980  10997  11011  14069  14076  14287  14335
                                                 16705  16713  16939  16947  23952
 SRCHNAME    128 0000000C FFFFFFE4     U    8451  8529   8800   9079   9398   9629   9935  10930  16649  16692  16693
                                                 16897  23947
 SRCHPARM      4 00000004 FFFFFFE4     A    8448  8525M  8796M  9075M  9224   9394M  9458   9480   9625M  9761   9931M
                                                  9995  10017  10926M 23943M 24033
 SRCHSET       4 00000008 FFFFFFE4     U    8450  8527M  8798M  9077M  9396M  9627M  9933M 10928M 16647M 16691M 16895M
                                                 23945M
 TEXTLN        2 0000000A 00000001 A   U   20184 20479  20592  21161M 21305M 21403  21404  21433M 21457M 21532  21533
                                                 21562M 21586M
 TEXTPTR       2 00000008 00000001 A   U   20185 20480  20593  21163M 21307M 21427  21459M 21556  21588M
 TRC           1 00000000 00000000 A   T    2124  2124
 TTYFLAG       1 00000004 FFFFFFEA     R    6212  6216
 TTYMAX#       1 00000006 FFFFFFEA A   U    6268  6269
 TTYTFLAG      1 00000005 FFFFFFEA     R    6222  6226   6231   6236   6241   6246   6251   6256
 UPPTBL        1 00000000 00000000 A   T    2187  2187
 USEXLOC       2 000028E0 00000001     H   20673 20278B 20289B 20351B 20383B 20405B 20419B 20453B 20639B
 USEXPUT       2 00002C54 00000001     H   21640 20876B 20887B 20949B 20981B 21003B 21017B 21051B 21075B
 VCBINFO      32 0000011A FFFFFFD2     X   25517 25850  25860
 VCFLAGS       1 0000000C FFFFFFD2     X   25513 25587M 25602  25925  26121
 VCHKDONE      2 000039EA 00000001     H   26108 26098B 26105B
 VCNAMELN      2 00000010 FFFFFFD2     H   25514 25657M 26078
 VCPAGE        1 0000015C FFFFFFD2     U   25519 25868  25873
 VCRGROUP      4 00000004 FFFFFFD2     A   25511 25588M 26054
 VCROOT        4 00000000 FFFFFFD2     F   25510 25585M 25732  26076
 VCTEMP        4 0000013C FFFFFFD2     F   25518 25913M 26015
 VCTYPE        4 00000008 FFFFFFD2     C   25512 25586M 25691  25728  26008
 VCWA        348 00000000 FFFFFFD2     J   25527 25550  25579U 26155  26157  26158
 VCXFIRST    132 00000012 FFFFFFD2     X   25515 25677  25688
 VCXLAST     132 00000096 FFFFFFD2     X   25516 25684  25689
 VOIDRNG       2 00002F02 00000001     H   22555 22003B 22035B 22123B
 VOIDRNGE      2 00003244 00000001     H   23793 22842B 22874B 23218B
 WAR           8 00000008 00000001 A   #    1030  6882M  7240   7290M  7611   7666M  7705   7716   7803M  7873   7884
                                                  7933M  8003   8014   8063M  8133   8144   8194M  8264   8275   8325M
                                                  8395   8406   8479M  8663   8679   8743M  8941   8957   9022M  9259
                                                  9275   9341M  9490   9506   9572M  9796   9812   9878M 10027  10043
                                                 10106M 10166  10177  10225M 10278  10289  10388M 10813  10873M 11110
                                                 11206M 11838  11933M 12380  12396  12497M 12700  12810M 12970  13016M
                                                 13275  13286  13346M 13610  13666M 13893  13949M 14108  14164M 14420
                                                 14510M 15286  15341M 15793  15871M 16208  16262M 16486  16594M 16774
                                                 16790  16849M 17046  17062  17134M 17181  17225M 17289  17331M 17464
                                                 17546M 17728  17784M 17972  18043M 18114  18130  18194M 18262  18278
                                                 18321M 18409  18458M 18547  18595M 18686  18772M 18913  18964M 19211
                                                 19222  19299M 19495  19511  19584M 19701  19717  19778M 20093  20104
                                                 20205M 20686  20702  20802M 21784  21800  21920M 22567  22583  22679M
1RECS     (RECS2101) (12:53) (15MAR04) Ordinary Symbol and Literal Cross Reference                                          Page  188
                                                 23810  23826  23890M 24069  24159M 24708  24753M 24928  24963M 25128
                                                 25220M 25457  25549M 26151  26233M 26662  26711M 26900
 WTOSG         1 00000000 00000000 A   T    2084  2084
 WYLRECS       1 00000000 00000001     J     994   996   1012   1025   1038   1050   1063   1076   1089   1102   1115
                                                  1128   2368   2452   6192   6304   6584   6588   6591   6642   6755
                                                  6786   6861
 XCHKGRP       2 00002030 00000001     H   17321 17317
 XCHKSET       2 0000215E 00000001     H   17772 17768
 XCHKSETS      2 000020A2 00000001     H   17534 17530
 XCNTRECS      2 00000FF6 00000001     H   11921 11917
 XDELETE       2 00000C66 00000001     H   10861 10857
 XDELGRP       2 0000227A 00000001     H   18309 18305
 XDELRECS      2 00000D3C 00000001     H   11194 11190  18722
 XDELSET       2 00002358 00000001     H   18583 18579
 XDELSETS      2 000022E8 00000001     H   18446 18442
 XFRSTSET      2 000021E4 00000001     H   18031 18027
 XFSNAME     128 00000000 FFFFFFDB     X   18014 18079  18090
 XFSWA       128 00000000 FFFFFFDB     J   18021 18044  18073U 18134  18136  18137
 XGET          2 0000035A 00000001     H    7793  7789
 XGETFRST      2 00000432 00000001     H    8184  8180
 XGETINFO      2 000002D0 00000001     H    7656  7652
 XGETLAST      2 0000047A 00000001     H    8315  8311
 XGETNEXT      2 000003A2 00000001     H    7923  7919
 XGETPREV      2 000003EA 00000001     H    8053  8049
 XLASTSET      2 0000222E 00000001     H   18182 18178
 XLCLDONE      2 000028EE 00000001     H   20684 20543B 20665B 20679B
 XLOCATE       2 0000057E 00000001     H    8731  8727  10308
 XLOCFRST      2 000009BC 00000001     H   10096 10092  10311  18718  21833  25148
 XLOCLAST      2 000009FE 00000001     H   10215 10211  10312  25151
 XLOCLINE      2 00002792 00000001     H   20193 20189
 XLOCNEXT      2 00000742 00000001     H    9329  9325  10309  25152
 XLOCPREV      2 00000900 00000001     H    9866  9862  10310  25149
 XLSNAME     128 00000000 FFFFFFDA     X   18165 18230  18238
 XLSWA       128 00000000 FFFFFFDA     J   18172 18195  18224U 18282  18284  18285
 XMISCWA     264 00000000 FFFFFFDC     J   17524 17547  17576U 17732  17734  17735  17785  17814U 17976  17978  17979
                                                 18322  18351U 18413  18415  18416  18459  18488U 18551  18553  18554
                                                 18596  18625U 18690  18692  18693
 XMKEY1        4 00000000 FFFFFFDC     U   17514 17636  17668  17677
 XMKEY2        4 00000084 FFFFFFDC     U   17517 17643  18375
 XMNAME1     128 00000004 FFFFFFDC     X   17513 17619  17901  17910  18368  18381  18505  18519  18642  18655
 XMNAME2     128 00000088 FFFFFFDC     X   17516 17627  18382  18513  18520  18649  18656
 XMSET1        4 00000000 FFFFFFDC     F   17512 17514  17618M 17899M 17951  18365M 18389  18502M 18527  18639M 18666
 XMSET2        4 00000084 FFFFFFDC     F   17515 17517  17626M 18383  18512M 18521
 XPTLDONE      2 00002CA8 00000001     H   21782 21632B 21766B 21776B
 XPUT          2 00000A80 00000001     H   10376 10372  21838
 XPUTLINE      2 00002900 00000001     H   20790 20786
 XREPDONE      2 0000125E 00000001     H   12684 12597B 12632B 12661B
 XREPKEY       1 00000008 FFFFFFE0     X   12466 12467  12468  12605  12615
 XREPLACE      2 000011AA 00000001     H   12485 12481
 XREPLEN       4 00000004 FFFFFFE0     F   12465 12551M 12654  12671
 XREPLOC       4 00000000 FFFFFFE0     F   12464 12550M 12670
 XREPNAME    128 0000000C FFFFFFE0     U   12468 12556
 XREPSET       4 00000008 FFFFFFE0     U   12467 12554M
 XREPWA      140 00000000 FFFFFFE0     J   12475 12498  12527U 12704  12706  12707
 XSETSET       2 00001FC4 00000001     H   17124 17120
 XSETSPLT      2 00001FF6 00000001     H   17215 17211
 =A(ADDDPAGE)
               4 00001284 00000001     A   12738 10597
 =A(AXMASTER)
1RECS     (RECS2101) (12:53) (15MAR04) Ordinary Symbol and Literal Cross Reference                                          Page  189
               4 00001E00 00000001     A   16541 16135
 =A(BDELETE)
               4 00001298 00000001     A   12743 11014
 =A(BDELETE)
               4 00001DFC 00000001     A   16540 16087
 =A(BINSERT)
               4 00001290 00000001     A   12741 10764
 =A(BINSERT)
               4 00001DF4 00000001     A   16538 15229
 =A(BSEARCH)
               4 00000A60 00000001     A   10314  8611   8889   9149   9699
 =A(BSEARCH)
               4 00001288 00000001     A   12739 10650  11350  11399  12080  12116  12618
 =A(BSEARCH)
               4 00001DB4 00000001     A   16522 13766  14338
 =A(BSEARCH)
               4 00001FB4 00000001     A   17096 16716  16950
 =A(BSEARCH)
               4 000023D8 00000001     A   18716 17671  17680
 =A(BSEARCH)
               4 00002770 00000001     A   20131 19349  19633
 =A(BSEARCH)
               4 00003628 00000001     A   25164 24344  24393
 =A(BSINIT)
               4 0000032C 00000001     A    7749  7077
 =A(BSINIT)
               4 00001DF0 00000001     A   16537 15127  15175  15708
 =A(BSINIT)
               4 00003E18 00000001     A   26931 25858  26623
 =A(CHKDPAGE)
               4 00003E08 00000001     A   26927 25694  26011
 =A(CHKQINFO)
               4 00000A6C 00000001     A   10317  9406   9943
 =A(CHKQINFO)
               4 0000361C 00000001     A   25161 23955
 =A(CHKQPAGE)
               4 00000A64 00000001     A   10315  8859
 =A(CHKQPAGE)
               4 00001274 00000001     A   12734 10512  10983
 =A(CONDPAGE)
               4 0000127C 00000001     A   12736 10558  10608
 =A(DELDPAGE)
               4 0000129C 00000001     A   12744 11045  11561  11624  11705  11797
 =A(FRSTNDX)
               4 000023E4 00000001     A   18719 18093
 =A(GETDPAGE)
               4 00000A5C 00000001     A   10313  8602   8876   9141   9691
 =A(GETDPAGE)
               4 00001278 00000001     A   12735 10529  10604  11000  11342  11391  12072  12108  12608
 =A(GETDPAGE)
               4 00001DC0 00000001     A   16525 14079
 =A(GETDPAGE)
               4 00001FB0 00000001     A   17095 16708  16942
 =A(GETDPAGE)
               4 000023D4 00000001     A   18715 17639  17646
 =A(L'RPAGE)
               4 00000320 00000001     A    7746  7018   7067
 =A(L'RPAGE)
               4 000012A4 00000001     A   12746 11494  11509  11730  11745
1RECS     (RECS2101) (12:53) (15MAR04) Ordinary Symbol and Literal Cross Reference                                          Page  190
 =A(L'RPAGE)
               4 00001DA8 00000001     A   16519 12844  12846  12940  12954  14631  14847  15547  16361
 =A(L'RPAGE)
               4 0000276C 00000001     A   20130 19333  19441  19481  19627  19699
 =A(L'RPAGE)
               4 00002CD0 00000001     A   21836 21275  21289
 =A(L'RPAGE)
               4 00003E10 00000001     A   26929 25784  25867  25869  26022  26267  26382  26568  26646
 =A(L'RPAREA)
               4 00000328 00000001     A    7748  7071
 =A(L'RPAREA)
               4 00001DEC 00000001     A   16536 14962  15120  15168  15701
 =A(L'RPAREA)
               4 00003E14 00000001     A   26930 25851  26616
 =A(LASTNDX)
               4 000023E8 00000001     A   18720 18241
 =A(LLOCATE)
               4 00000A7C 00000001     A   10321 10143  10255
 =A(LLOCATE)
               4 00002CD4 00000001     A   21837 21646
 =A(LLOCNEXT)
               4 00000A70 00000001     A   10318  9483  10159
 =A(LLOCPREV)
               4 00000A78 00000001     A   10320 10020  10271
 =A(MINSPACE)
               4 00001280 00000001     A   12737 10588
 =A(MKMASTER)
               4 00001DC4 00000001     A   16526 14586
 =A(MXDATALN)
               4 00003E20 00000001     A   26933 26547
 =A(NEXTPAGE)
               4 00000A68 00000001     A   10316  9187
 =A(NEXTPAGE)
               4 000012A0 00000001     A   12745 11372  12138  12298
 =A(NEXTPAGE)
               4 00001FB8 00000001     A   17097 16739
 =A(NEXTPAGE)
               4 00003620 00000001     A   25162 23996
 =A(NFIXLINK)
               4 0000360C 00000001     A   25157 22531  23751
 =A(NFIXNCLR)
               4 00003610 00000001     A   25158 22536  23756
 =A(NFIXNUM)
               4 00003600 00000001     A   25154 22499  23721
 =A(NLOCNEXT)
               4 00003608 00000001     A   25156 22516  23737
 =A(PREVPAGE)
               4 00000A74 00000001     A   10319  9722
 =A(PREVPAGE)
               4 000012A8 00000001     A   12747 11599
 =A(PREVPAGE)
               4 00001DF8 00000001     A   16539 15997
 =A(PREVPAGE)
               4 00001FBC 00000001     A   17098 16989
 =A(RGCHECK)
               4 00003DEC 00000001     A   26920 25263
 =A(XDELRECS)
               4 000023F0 00000001     A   18722 18386  18524  18663
 =A(XLOCATE)
1RECS     (RECS2101) (12:53) (15MAR04) Ordinary Symbol and Literal Cross Reference                                          Page  191
               4 00000A48 00000001     A   10308  7832
 =A(XLOCFRST)
               4 00000A54 00000001     A   10311  8223
 =A(XLOCFRST)
               4 000023E0 00000001     A   18718 17913
 =A(XLOCFRST)
               4 00002CC4 00000001     A   21833 20677
 =A(XLOCFRST)
               4 000035E8 00000001     A   25148 22001  22360  22456  22840  23436  23623
 =A(XLOCLAST)
               4 00000A58 00000001     A   10312  8354
 =A(XLOCLAST)
               4 000035F4 00000001     A   25151 22033  22872
 =A(XLOCNEXT)
               4 00000A4C 00000001     A   10309  7962
 =A(XLOCNEXT)
               4 000035F8 00000001     A   25152 22041  22403  22880  23533
 =A(XLOCPREV)
               4 00000A50 00000001     A   10310  8092
 =A(XLOCPREV)
               4 000035EC 00000001     A   25149 22009  22848
 =A(XPUT)      4 00002CD8 00000001     A   21838 21725
 =A(0)         4 000023DC 00000001     A   18717 17841
 =A(1)         4 000023CC 00000001     A   18713 17601  17613
 =A(1)         4 00002768 00000001     A   20129 19021  19902
 =A(128-16)
               4 00001DE4 00000001     A   16534 14922  14934
 =A(16)        4 00001DE8 00000001     A   16535 14941  14953
 =A(2)         4 00002774 00000001     A   20132 19876
 =A(235)       4 00003E28 00000001     A   26935 26865
 =A(256)       4 00003614 00000001     A   25159 22971  23109
 =A(256)       4 00003E24 00000001     A   26934 26748
 =AL2(4)       2 00002CDC 00000001     R   21839 20307  20905
 =AL2(4)       2 00003640 00000001     R   25170 21982  22312  22821  23406  24248
 =AL4(-1)      4 00001270 00000001     R   12733 10497
 =AL4(-1)      4 000035FC 00000001     R   25153 22095  22141  22197  22222  22278  22440  23236  23304  23606  25086
 =AL4(-1000)
               4 00003638 00000001     R   25168 25034
 =C'FREED '
               6 00000354 00000001     C    7758  7516   7578
 =C'FREED '
               6 00001E14 00000001     C   16545 16162  16423
 =C'MASTER'
               6 00003E32 00000001     C   26937 25724
 =C'RECS  '
               6 00003E2C 00000001     C   26936 25720
 =CL4'S...'
               4 00003DE8 00000001     C   26919 25260
 =CL6'DATA  '
               6 0000034E 00000001     C    7757  7022
 =CL6'DATA  '
               6 00003E3E 00000001     C   26939 26344
 =CL6'MASTER  '
               6 00001E0E 00000001     C   16544 15642
 =CL6'RECS  '
               6 00000348 00000001     C    7756  7021   7378   7509
 =CL6'RECS  '
               6 000012B0 00000001     C   12749 11644  11723
 =CL6'RECS  '
1RECS     (RECS2101) (12:53) (15MAR04) Ordinary Symbol and Literal Cross Reference                                          Page  192
               6 00001E08 00000001     C   16543 13110  13440  13721  13868  14303  14621  15216  16050  16155  16181
                                                 16336
 =CL6'RECS  '
               6 000023F4 00000001     C   18723 17400
 =CL6'RECS  '
               6 00002CDE 00000001     C   21840 20332  20930
 =CL6'RECS  '
               6 00003642 00000001     C   25171 24229  24578  24640
 =CL6'RECS  '
               6 00003E38 00000001     C   26938 26336
 =F'-1'        4 00002CCC 00000001     F   21835 21198  21342  21715
 =F'-1'        4 000035F0 00000001     F   25150 22022  22861
 =F'-4'        4 00001294 00000001     F   12742 10793
 =F'0'         4 00001FC0 00000001     F   17099 17018
 =F'0'         4 00003E0C 00000001     F   26928 25736
 =F'1'         4 00000310 00000001     F    7742  6946
 =F'1'         4 000023EC 00000001     F   18721 18367
 =F'1'         4 00003E1C 00000001     F   26932 26077
 =F'1000'      4 00003618 00000001     F   25160 22980  23118  23493  23680
 =V(MGETNEW)
               4 00000314 00000001     V    7743  6970
 =V(MGETNEW)
               4 00001DD0 00000001     V   16529 14740  15450
 =V(NOMORPG)
               4 0000031C 00000001     V    7745  7008
 =V(NOMORPG)
               4 00001DD8 00000001     V   16531 14780  15490
 =V(PAGENCLR)
               4 0000363C 00000001     V   25169 25112
 =V(PAGENUM)
               4 00003634 00000001     V   25167 24912
 =V(PCHK)      4 00003DFC 00000001     V   26924 25614  25938
 =V(PFREEA)
               4 00000338 00000001     V    7752  7189
 =V(PFREEA)
               4 00001DB8 00000001     V   16523 13856  15186  15729  16036
 =V(PFREEB)
               4 00001DCC 00000001     V   16528 14651  15138
 =V(PFREEB)
               4 00003630 00000001     V   25166 24682
 =V(PGETA)
               4 00000340 00000001     V    7754  7375   7506
 =V(PGETA)
               4 000012AC 00000001     V   12748 11641  11720
 =V(PGETA)
               4 00001DB0 00000001     V   16521 13107  13437  13718  13865  14300  14391  15213  16047  16152  16178
 =V(PGETA)
               4 000023C8 00000001     V   18712 17397
 =V(PGETA)
               4 00002CC0 00000001     V   21832 20329  20927
 =V(PGETA)
               4 00003624 00000001     V   25163 24226  24575  24637
 =V(PGETA)
               4 00003E00 00000001     V   26925 25625  25949
 =V(PGETB)
               4 00001DC8 00000001     V   16527 14618  16333
 =V(PGETNEW)
               4 00000318 00000001     V    7744  6989
 =V(PGETNEW)
1RECS     (RECS2101) (12:53) (15MAR04) Ordinary Symbol and Literal Cross Reference                                          Page  193
               4 00001DD4 00000001     V   16530 14760  15470
 =V(PJUNKA)
               4 00000344 00000001     V    7755  7521   7583
 =V(PJUNKA)
               4 00001E04 00000001     V   16542 16167  16428
 =V(PMARKA)
               4 00000334 00000001     V    7751  7183
 =V(PMARKA)
               4 0000128C 00000001     V   12740 10717  10771  11022  11538  11676  11774  12676
 =V(PMARKA)
               4 00001DAC 00000001     V   16520 12935  12947  15180  15254  15723  16030  16112  16377
 =V(PMARKA)
               4 00002CC8 00000001     V   21834 21196  21340  21472  21601
 =V(PMARKA)
               4 00003604 00000001     V   25155 22509  23731  24598  24660
 =V(PMARKB)
               4 00001DE0 00000001     V   16533 14902  15132  15569  15621
 =V(PMARKB)
               4 0000362C 00000001     V   25165 24609  24676
 =V(PRCVYCHK)
               4 00003DF4 00000001     V   26922 25281  25325
 =V(PRCVYSET)
               4 00003DF8 00000001     V   26923 25343  25387
 =V(PTYPEA)
               4 00000330 00000001     V    7750  7153   7174
 =V(PTYPEB)
               4 00001DDC 00000001     V   16532 14872  14893  15591  15612
 =V(RCVYINFO)
               4 0000033C 00000001     V    7753  7214   7409
 =V(SAREAD)
               4 00003DF0 00000001     V   26921 25272  25646  25970
 =X'FF000000'
               4 00000324 00000001     X    7747  7065
 =X'FF000000'
               4 00001DBC 00000001     X   16524 14039
 =X'FF000000'
               4 000023D0 00000001     X   18714 17629  18232  18377  18515  18651
 =X'FF000000'
               4 00003E04 00000001     X   26926 25686  26606
 =Y((R5+1-(R2)+16*((R2)/(R5+1))/((R2)/(R5+1)))*4)
               2 00002778 00000001     Y   20133 19661

1RECS     (RECS2101) (12:53) (15MAR04) Macro and Copy Code Source Summary                                                   Page  194
- Con Source                                        Volume    Members                        HLASM R4.0  2004/03/15 12.53
0     PRIMARY INPUT                                           CSECT    DROP     END      EX       LTORG    POP
                                                              PRINT    PUSH     RPCHECK  START    USING    XMARK
   L1 WYL.GS.WYL.WYLBUR.MACLIB                      SYSB05    AINFO    BASE     BOMB     BSINFO   COLINFO  COMMENT
                                                              CONTROL  CP       CPLOCAL  CV       CVLOCAL  JCB      PCHK
                                                              PFLIP    PFREE    PGET     PMARK    PTYPE    RG
                                                              SCANCB   TTYPE    XTRACE
   L2 WYL.GG.SYS.MACLIB                             SYSB05    $BC      $BFLKUP  $BV      $CCLKUP  $CRS     $CSS     $L
                                                              $LBLAD   $LEXP    $LOR     $REL     $RGLKUP  $USLKUP
                                                              ACALL    BEGIN    CEIL     CLEAR    COMPROC  CSECT    DATA
                                                              DECR     DEFCC    DEX      DROP     ELSE     ELSEIF   END
                                                              EX       EXIT     FLAG     FLIP     FLOOR    GEN
                                                              HIBAL    IDENT    IF       LABEL    LC       LTORG    PEND
                                                              POP      PRETURN  PRINT    PROC     PUSH     QLTORG
                                                              RECORD   REG      REGS     SET      START    USING
                                                              VCALL    WHILE    WITH     XPROC
   L3 SYS3.IS.MACLIB                                SYSB05    SEGCB    SIB      SYSDEFN  XPOP     XPUSH

1RECS     (RECS2101) (12:53) (15MAR04) Dsect Cross Reference                                                                Page  195
-Dsect     Length      Id       Defn                                                         HLASM R4.0  2004/03/15 12.53
0$$$@R0   00000000  FFFFFFFE     705
 $$$@R1   00000000  FFFFFFFD     718
 $$$@R10  00000000  FFFFFFF4     835
 $$$@R11  00000000  FFFFFFF3     848
 $$$@R12  00000000  FFFFFFF2     861
 $$$@R13  00000000  FFFFFFF1     874
 $$$@R14  00000000  FFFFFFF0     887
 $$$@R15  00000000  FFFFFFEF     900
 $$$@R2   00000000  FFFFFFFC     731
 $$$@R3   00000000  FFFFFFFB     744
 $$$@R4   00000000  FFFFFFFA     757
 $$$@R5   00000000  FFFFFFF9     770
 $$$@R6   00000000  FFFFFFF8     783
 $$$@R7   00000000  FFFFFFF7     796
 $$$@R8   00000000  FFFFFFF6     809
 $$$@R9   00000000  FFFFFFF5     822
 $$$RADWA 0000008E  FFFFFFDE   14473
 $$$RBDWA 00000004  FFFFFFD8   19547
 $$$RBNWA 0000000C  FFFFFFD9   19260
 $$$RBSINFO
          00000020  FFFFFFE8    6621
 $$$RCKDWA
          00000030  FFFFFFD1   26193
 $$$RCONDWA
          00000010  FFFFFFDF   12773
 $$$RCP   00001000  FFFFFFEC    2457
 $$$RCTWA 00000116  FFFFFFE1   11886
 $$$RCV   00000FB0  FFFFFFEE    1182
 $$$RDDWA 00000116  FFFFFFE2   11159
 $$$RDEV  0000000C  FFFFFFEB    4671
 $$$RDLWA 00000114  FFFFFFDD   15833
 $$$RJCB  000000D0  FFFFFFE9    6309
 $$$RLCLWA
          00000018  FFFFFFD7   20164
 $$$RNFWA 00000029  FFFFFFD4   22626
 $$$RNITWA
          0000000C  FFFFFFE5    6845
 $$$RNMWA 0000001D  FFFFFFD5   21870
 $$$RNSCNCB
          000000B0  FFFFFFED    2378
 $$$RNXWA 00000010  FFFFFFD3   24120
 $$$RPTLWA
          0000001C  FFFFFFD6   20759
 $$$RPUTWA
          00000090  FFFFFFE3   10348
 $$$RRGROUP
          00000020  FFFFFFE6    6761
 $$$RRPAGE
          00004F78  FFFFFFE7    6681
 $$$RSEARCHWA
          0000008C  FFFFFFE4    8441
 $$$RTTYPE
          0000010C  FFFFFFEA    6202
 $$$RVCWA 0000015C  FFFFFFD2   25504
 $$$RXFSWA
1RECS     (RECS2101) (12:53) (15MAR04) Dsect Cross Reference                                                                Page  196
          00000080  FFFFFFDB   18008
 $$$RXLSWA
          00000080  FFFFFFDA   18159
 $$$RXMISCWA
          00000108  FFFFFFDC   17506
 $$$RXREPWA
          0000008C  FFFFFFE0   12458
 HIBAL    00000000  FFFFFFFF     691

1RECS     (RECS2101) (12:53) (15MAR04) Using Map                                                                            Page  197
-                                                                                            HLASM R4.0  2004/03/15 12.53
   Stmt  -----Location----- Action ----------------Using----------------- Reg Max    Last  Label and Using Text
           Count      Id           Type          Value    Range     Id        Disp   Stmt
0   922  00000000  FFFFFFFF USING  ORDINARY    00000000 00001000 FFFFFFEF  15 000          @R15,15
    926  00000000  FFFFFFFF USING  ORDINARY    00000000 00001000 FFFFFFF0  14 002    2173  @R14,14
    930  00000000  FFFFFFFF USING  ORDINARY    00000000 00001000 FFFFFFF1  13 000   24318  @R13,13
    934  00000000  FFFFFFFF USING  ORDINARY    00000000 00001000 FFFFFFF2  12 000          @R12,12
    938  00000000  FFFFFFFF USING  ORDINARY    00000000 00001000 FFFFFFF3  11 000          @R11,11
    942  00000000  FFFFFFFF USING  ORDINARY    00000000 00001000 FFFFFFF4  10 000          @R10,10
    946  00000000  FFFFFFFF USING  ORDINARY    00000000 00001000 FFFFFFF5   9 000          @R9,9
    950  00000000  FFFFFFFF USING  ORDINARY    00000000 00001000 FFFFFFF6   8 000          @R8,8
    954  00000000  FFFFFFFF USING  ORDINARY    00000000 00001000 FFFFFFF7   7 000          @R7,7
    958  00000000  FFFFFFFF USING  ORDINARY    00000000 00001000 FFFFFFF8   6 000          @R6,6
    962  00000000  FFFFFFFF USING  ORDINARY    00000000 00001000 FFFFFFF9   5 000   19839  @R5,5
    966  00000000  FFFFFFFF USING  ORDINARY    00000000 00001000 FFFFFFFA   4 000   21014  @R4,4
    970  00000000  FFFFFFFF USING  ORDINARY    00000000 00001000 FFFFFFFB   3 000          @R3,3
    974  00000000  FFFFFFFF USING  ORDINARY    00000000 00001000 FFFFFFFC   2 000          @R2,2
    978  00000000  FFFFFFFF USING  ORDINARY    00000000 00001000 FFFFFFFD   1 001    9979  @R1,1
    982  00000000  FFFFFFFF USING  ORDINARY    00000000 00001000 FFFFFFFE   0 000          @R0,0
    983  00000000  FFFFFFFF DROP                                            0              0
   1166  00000017  00000001 USING  ORDINARY    00000000 00001000 FFFFFFEC  11 E1C   25100  CP,CPR
   1175  00000017  00000001 USING  ORDINARY    00000000 00001000 FFFFFFEE  12 890   26715  CV,CVR
   6898  0000003E  00000001 USING  ORDINARY    0000003E 00001000 00000001   7 310    7214  $$$43B,7
   6912  0000003E  00000001 USING  ORDINARY    FFFFFFD8 00001000 FFFFFFE5   8 031    7204  NITWA-(4+36),R8
   6923  0000003E  00000001 USING  ORDINARY    00000000 00001000 FFFFFFE7   9 050    7171  RPAGE,PAR
   6932  0000003E  00000001 USING  ORDINARY    00000000 00001000 FFFFFFE6   6 00C    7211  RGROUP,R6
   7231  0000019E  00000001 USING  ORDINARY    00000000 00001000 FFFFFFF6   8 000          @R8,8
   7236  0000019E  00000001 USING  ORDINARY    00000000 00001000 FFFFFFF7   7 000          @R7,7
   7255  000001AC  00000001 USING  ORDINARY    00000000 00001000 FFFFFFF5   9 000          @R9,9
   7262  000001AC  00000001 USING  ORDINARY    00000000 00001000 FFFFFFF8   6 000          @R6,6
   7306  000001C6  00000001 USING  ORDINARY    000001C6 00001000 00000001   7 18E    7583  $$$54B,7
   7322  000001C6  00000001 USING  ORDINARY    00000000 00001000 FFFFFFE7   9 030    8644  RPAGE,PAR
   7331  000001C6  00000001 USING  ORDINARY    00000000 00001000 FFFFFFE6   6 00C    7596  RGROUP,R6
   7449  0000022C  00000001 USING  ORDINARY    00000000 00001000 FFFFFFE9  15 044    7460  JCB,R15
   7475  00000244  00000001 USING  ORDINARY    00000000 00001000 FFFFFFEF  15 000          @R15,15
   7543  00000292  00000001 USING  ORDINARY    00000000 00001000 FFFFFFE9  15 044    7554  JCB,R15
   7569  000002AA  00000001 USING  ORDINARY    00000000 00001000 FFFFFFEF  15 000          @R15,15
   7607  000002C2  00000001 USING  ORDINARY    00000000 00001000 FFFFFFF7   7 000          @R7,7
   7630  000002D0  00000001 USING  ORDINARY    00000000 00001000 FFFFFFF8   6 000          @R6,6
   7682  000002EA  00000001 USING  ORDINARY    000002EA 00001000 00000001   7 000          $$$63B,7
   7698  000002EA  00000001 USING  ORDINARY    00000000 00001000 FFFFFFE6   6 00C    7703  RGROUP,R6
   7712  000002FC  00000001 USING  ORDINARY    00000000 00001000 FFFFFFF7   7 000          @R7,7
   7731  0000030A  00000001 USING  ORDINARY    00000000 00001000 FFFFFFF8   6 000          @R6,6
   7819  00000374  00000001 USING  ORDINARY    00000374 00001000 00000001   7 6D4    7855  $$$66B,7
   7880  00000394  00000001 USING  ORDINARY    00000000 00001000 FFFFFFF7   7 000          @R7,7
   7949  000003BC  00000001 USING  ORDINARY    000003BC 00001000 00000001   7 690    7985  $$$71B,7
   8010  000003DC  00000001 USING  ORDINARY    00000000 00001000 FFFFFFF7   7 000          @R7,7
   8079  00000404  00000001 USING  ORDINARY    00000404 00001000 00000001   7 64C    8115  $$$76B,7
   8140  00000424  00000001 USING  ORDINARY    00000000 00001000 FFFFFFF7   7 000          @R7,7
   8210  0000044C  00000001 USING  ORDINARY    0000044C 00001000 00000001   7 608    8246  $$$81B,7
   8271  0000046C  00000001 USING  ORDINARY    00000000 00001000 FFFFFFF7   7 000          @R7,7
   8341  00000494  00000001 USING  ORDINARY    00000494 00001000 00000001   7 5C4    8377  $$$86B,7
   8402  000004B4  00000001 USING  ORDINARY    00000000 00001000 FFFFFFF7   7 000          @R7,7
   8495  000004DC  00000001 USING  ORDINARY    000004DC 00001000 00000001   7 584    8634  $$$91B,7
   8509  000004DC  00000001 USING  ORDINARY    FFFFFFD8 00001000 FFFFFFE4   8 034    8608  SEARCHWA-(4+36),R8
   8522  000004DC  00000001 USING  ORDINARY    00000000 00001000 FFFFFFE6   6 018    8643  RGROUP,R6
1RECS     (RECS2101) (12:53) (15MAR04) Using Map                                                                            Page  198
   8670  00000570  00000001 USING  ORDINARY    00000000 00001000 FFFFFFF6   8 000          @R8,8
   8675  00000570  00000001 USING  ORDINARY    00000000 00001000 FFFFFFF7   7 000          @R7,7
   8694  0000057E  00000001 USING  ORDINARY    00000000 00001000 FFFFFFF5   9 000          @R9,9
   8701  0000057E  00000001 USING  ORDINARY    00000000 00001000 FFFFFFF8   6 000          @R6,6
   8759  00000598  00000001 USING  ORDINARY    00000598 00001000 00000001   7 4CC    8912  $$$99B,7
   8773  00000598  00000001 USING  ORDINARY    FFFFFFD8 00001000 FFFFFFE4   8 034    8886  SEARCHWA-(4+36),R8
   8784  00000598  00000001 USING  ORDINARY    00000000 00001000 FFFFFFE7   9 030    8922  RPAGE,PAR
   8793  00000598  00000001 USING  ORDINARY    00000000 00001000 FFFFFFE6   6 018    8921  RGROUP,R6
   8948  00000632  00000001 USING  ORDINARY    00000000 00001000 FFFFFFF6   8 000          @R8,8
   8953  00000632  00000001 USING  ORDINARY    00000000 00001000 FFFFFFF7   7 000          @R7,7
   8972  00000640  00000001 USING  ORDINARY    00000000 00001000 FFFFFFF5   9 000          @R9,9
   8979  00000640  00000001 USING  ORDINARY    00000000 00001000 FFFFFFF8   6 000          @R6,6
   9038  0000065A  00000001 USING  ORDINARY    0000065A 00001000 00000001   7 40E    9254  $$$108B,7
   9052  0000065A  00000001 USING  ORDINARY    FFFFFFD8 00001000 FFFFFFE4   8 034    9224  SEARCHWA-(4+36),R8
   9063  0000065A  00000001 USING  ORDINARY    00000000 00001000 FFFFFFE7   9 030    9229  RPAGE,PAR
   9072  0000065A  00000001 USING  ORDINARY    00000000 00001000 FFFFFFE6   6 018    9223  RGROUP,R6
   9266  00000734  00000001 USING  ORDINARY    00000000 00001000 FFFFFFF6   8 000          @R8,8
   9271  00000734  00000001 USING  ORDINARY    00000000 00001000 FFFFFFF7   7 000          @R7,7
   9291  00000742  00000001 USING  ORDINARY    00000000 00001000 FFFFFFF5   9 000          @R9,9
   9298  00000742  00000001 USING  ORDINARY    00000000 00001000 FFFFFFF8   6 000          @R6,6
   9357  0000075C  00000001 USING  ORDINARY    0000075C 00001000 00000001   7 314    9485  $$$116B,7
   9371  0000075C  00000001 USING  ORDINARY    FFFFFFD8 00001000 FFFFFFE4   8 034    9480  SEARCHWA-(4+36),R8
   9382  0000075C  00000001 USING  ORDINARY    00000000 00001000 FFFFFFE7   9 024    9463  RPAGE,PAR
   9391  0000075C  00000001 USING  ORDINARY    00000000 00001000 FFFFFFE6   6 018    9479  RGROUP,R6
   9497  000007F0  00000001 USING  ORDINARY    00000000 00001000 FFFFFFF6   8 000          @R8,8
   9502  000007F0  00000001 USING  ORDINARY    00000000 00001000 FFFFFFF7   7 000          @R7,7
   9522  000007FE  00000001 USING  ORDINARY    00000000 00001000 FFFFFFF5   9 000          @R9,9
   9529  000007FE  00000001 USING  ORDINARY    00000000 00001000 FFFFFFF8   6 000          @R6,6
   9588  00000818  00000001 USING  ORDINARY    00000818 00001000 00000001   7 25C    9791  $$$121B,7
   9602  00000818  00000001 USING  ORDINARY    FFFFFFD8 00001000 FFFFFFE4   8 034    9761  SEARCHWA-(4+36),R8
   9613  00000818  00000001 USING  ORDINARY    00000000 00001000 FFFFFFE7   9 030    9766  RPAGE,PAR
   9622  00000818  00000001 USING  ORDINARY    00000000 00001000 FFFFFFE6   6 018    9760  RGROUP,R6
   9803  000008F2  00000001 USING  ORDINARY    00000000 00001000 FFFFFFF6   8 000          @R8,8
   9808  000008F2  00000001 USING  ORDINARY    00000000 00001000 FFFFFFF7   7 000          @R7,7
   9828  00000900  00000001 USING  ORDINARY    00000000 00001000 FFFFFFF5   9 000          @R9,9
   9835  00000900  00000001 USING  ORDINARY    00000000 00001000 FFFFFFF8   6 000          @R6,6
   9894  0000091A  00000001 USING  ORDINARY    0000091A 00001000 00000001   7 15E   10022  $$$128B,7
   9908  0000091A  00000001 USING  ORDINARY    FFFFFFD8 00001000 FFFFFFE4   8 034   10017  SEARCHWA-(4+36),R8
   9919  0000091A  00000001 USING  ORDINARY    00000000 00001000 FFFFFFE7   9 022   10000  RPAGE,PAR
   9928  0000091A  00000001 USING  ORDINARY    00000000 00001000 FFFFFFE6   6 018   10016  RGROUP,R6
  10034  000009AE  00000001 USING  ORDINARY    00000000 00001000 FFFFFFF6   8 000          @R8,8
  10039  000009AE  00000001 USING  ORDINARY    00000000 00001000 FFFFFFF7   7 000          @R7,7
  10059  000009BC  00000001 USING  ORDINARY    00000000 00001000 FFFFFFF5   9 000          @R9,9
  10066  000009BC  00000001 USING  ORDINARY    00000000 00001000 FFFFFFF8   6 000          @R6,6
  10122  000009D6  00000001 USING  ORDINARY    000009D6 00001000 00000001   7 0A6   10159  $$$133B,7
  10138  000009D6  00000001 USING  ORDINARY    00000000 00001000 FFFFFFE6   6 01A   10659  RGROUP,R6
  10173  000009F0  00000001 USING  ORDINARY    00000000 00001000 FFFFFFF7   7 000          @R7,7
  10241  00000A18  00000001 USING  ORDINARY    00000A18 00001000 00000001   7 064   10271  $$$137B,7
  10285  00000A32  00000001 USING  ORDINARY    00000000 00001000 FFFFFFF7   7 000          @R7,7
  10404  00000A9A  00000001 USING  ORDINARY    00000A9A 00001000 00000001   7 7FA   10794  $$$141B,7
  10418  00000A9A  00000001 USING  ORDINARY    FFFFFFD8 00001000 FFFFFFE3   8 034   10761  PUTWA-(4+36),R8
  10429  00000A9A  00000001 USING  ORDINARY    00000000 00001000 FFFFFFE7   9 030   10767  RPAGE,PAR
  10804  00000C58  00000001 USING  ORDINARY    00000000 00001000 FFFFFFF6   8 000          @R8,8
  10809  00000C58  00000001 USING  ORDINARY    00000000 00001000 FFFFFFF7   7 000          @R7,7
  10829  00000C66  00000001 USING  ORDINARY    00000000 00001000 FFFFFFF5   9 000          @R9,9
  10836  00000C66  00000001 USING  ORDINARY    00000000 00001000 FFFFFFF8   6 000          @R6,6
  10889  00000C80  00000001 USING  ORDINARY    00000C80 00001000 00000001   7 61C   11091  $$$155B,7
  10903  00000C80  00000001 USING  ORDINARY    FFFFFFD8 00001000 FFFFFFE4   8 034   11011  SEARCHWA-(4+36),R8
  10914  00000C80  00000001 USING  ORDINARY    00000000 00001000 FFFFFFE7   9 030   11036  RPAGE,PAR
1RECS     (RECS2101) (12:53) (15MAR04) Using Map                                                                            Page  199
  10923  00000C80  00000001 USING  ORDINARY    00000000 00001000 FFFFFFE6   6 01A   11074  RGROUP,R6
  11101  00000D2E  00000001 USING  ORDINARY    00000000 00001000 FFFFFFF6   8 000          @R8,8
  11106  00000D2E  00000001 USING  ORDINARY    00000000 00001000 FFFFFFF7   7 000          @R7,7
  11126  00000D3C  00000001 USING  ORDINARY    00000000 00001000 FFFFFFF5   9 000          @R9,9
  11133  00000D3C  00000001 USING  ORDINARY    00000000 00001000 FFFFFFF8   6 000          @R6,6
  11222  00000D56  00000001 USING  ORDINARY    00000D56 00001000 00000001   7 55A   11819  $$$162B,7
  11236  00000D56  00000001 USING  ORDINARY    FFFFFFD8 00001000 FFFFFFE2   8 13E   11746  DDWA-(4+36),R8
  11247  00000D56  00000001 USING  ORDINARY    00000000 00001000 FFFFFFE7   9 030   11788  RPAGE,PAR
  11256  00000D56  00000001 USING  ORDINARY    00000000 00001000 FFFFFFE6   6 00C   11794  RGROUP,R6
  11523  00000EA6  00000001 USING  ORDINARY    00000000 00001000 FFFFFFE8   1 010   11527  BSINFO,R1
  11533  00000EB2  00000001 USING  ORDINARY    00000000 00001000 FFFFFFFD   1 000          @R1,1
  11661  00000F24  00000001 USING  ORDINARY    00000000 00001000 FFFFFFE8   1 010   11665  BSINFO,R1
  11671  00000F30  00000001 USING  ORDINARY    00000000 00001000 FFFFFFFD   1 000          @R1,1
  11759  00000FB4  00000001 USING  ORDINARY    00000000 00001000 FFFFFFE8   1 010   11763  BSINFO,R1
  11769  00000FC0  00000001 USING  ORDINARY    00000000 00001000 FFFFFFFD   1 000          @R1,1
  11829  00000FE8  00000001 USING  ORDINARY    00000000 00001000 FFFFFFF6   8 000          @R8,8
  11834  00000FE8  00000001 USING  ORDINARY    00000000 00001000 FFFFFFF7   7 000          @R7,7
  11854  00000FF6  00000001 USING  ORDINARY    00000000 00001000 FFFFFFF5   9 000          @R9,9
  11861  00000FF6  00000001 USING  ORDINARY    00000000 00001000 FFFFFFF8   6 000          @R6,6
  11949  00001010  00000001 USING  ORDINARY    00001010 00001000 00000001   7 290   12375  $$$179B,7
  11963  00001010  00000001 USING  ORDINARY    FFFFFFD8 00001000 FFFFFFE1   8 13C   12329  CTWA-(4+36),R8
  11974  00001010  00000001 USING  ORDINARY    00000000 00001000 FFFFFFE7   9 030   12350  RPAGE,PAR
  11983  00001010  00000001 USING  ORDINARY    00000000 00001000 FFFFFFE6   6 008   12295  RGROUP,R6
  12387  0000119C  00000001 USING  ORDINARY    00000000 00001000 FFFFFFF6   8 000          @R8,8
  12392  0000119C  00000001 USING  ORDINARY    00000000 00001000 FFFFFFF7   7 000          @R7,7
  12412  000011AA  00000001 USING  ORDINARY    00000000 00001000 FFFFFFF5   9 000          @R9,9
  12419  000011AA  00000001 USING  ORDINARY    00000000 00001000 FFFFFFF8   6 000          @R6,6
  12513  000011C4  00000001 USING  ORDINARY    000011C4 00001000 00000001   7 0C8   12676  $$$197B,7
  12527  000011C4  00000001 USING  ORDINARY    FFFFFFD8 00001000 FFFFFFE0   8 034   12671  XREPWA-(4+36),R8
  12538  000011C4  00000001 USING  ORDINARY    00000000 00001000 FFFFFFE7   9 030   12639  RPAGE,PAR
  12547  000011C4  00000001 USING  ORDINARY    00000000 00001000 FFFFFFE6   6 008   12604  RGROUP,R6
  12691  0000125E  00000001 USING  ORDINARY    00000000 00001000 FFFFFFF6   8 000          @R8,8
  12696  0000125E  00000001 USING  ORDINARY    00000000 00001000 FFFFFFF7   7 000          @R7,7
  12715  0000126C  00000001 USING  ORDINARY    00000000 00001000 FFFFFFF5   9 000          @R9,9
  12722  0000126C  00000001 USING  ORDINARY    00000000 00001000 FFFFFFF8   6 000          @R6,6
  12826  000012D0  00000001 USING  ORDINARY    000012D0 00001000 00000001   7 ADC   12954  $$$204B,7
  12840  000012D0  00000001 USING  ORDINARY    FFFFFFD8 00001000 FFFFFFDF   8 038   12941  CONDWA-(4+36),R8
  12859  000012E2  00000001 USING  ORDINARY    00000000 00001000 FFFFFFE7   9 02A   12901  RPAGE,PAR
  12912  0000133C  00000001 USING  ORDINARY    00000000 00001000 FFFFFFF5   9 000          @R9,9
  12921  0000133C  00000001 USING  ORDINARY    00000000 00001000 FFFFFFE7   1 02C   12924  RPAGE,R1
  12930  00001344  00000001 USING  ORDINARY    00000000 00001000 FFFFFFFD   1 000   24017  @R1,1
  12961  00001364  00000001 USING  ORDINARY    00000000 00001000 FFFFFFF6   8 000          @R8,8
  12966  00001364  00000001 USING  ORDINARY    00000000 00001000 FFFFFFF7   7 000          @R7,7
  13032  0000138C  00000001 USING  ORDINARY    0000138C 00001000 00000001   7 A8E   13270  $$$209B,7
  13048  0000138C  00000001 USING  ORDINARY    00000000 00001000 FFFFFFE7   9 024   13217  RPAGE,PAR
  13057  0000138C  00000001 USING  ORDINARY    00000000 00001000 FFFFFFE6   6 018   13181  RGROUP,R6
  13282  00001432  00000001 USING  ORDINARY    00000000 00001000 FFFFFFF7   7 000          @R7,7
  13302  00001440  00000001 USING  ORDINARY    00000000 00001000 FFFFFFF5   9 000          @R9,9
  13309  00001440  00000001 USING  ORDINARY    00000000 00001000 FFFFFFF8   6 000          @R6,6
  13362  0000145A  00000001 USING  ORDINARY    0000145A 00001000 00000001   7 9CC   13596  $$$222B,7
  13378  0000145A  00000001 USING  ORDINARY    00000000 00001000 FFFFFFE7   9 028   13547  RPAGE,PAR
  13387  0000145A  00000001 USING  ORDINARY    00000000 00001000 FFFFFFE6   6 018   13496  RGROUP,R6
  13606  000014F6  00000001 USING  ORDINARY    00000000 00001000 FFFFFFF7   7 000          @R7,7
  13626  00001504  00000001 USING  ORDINARY    00000000 00001000 FFFFFFF5   9 000          @R9,9
  13633  00001504  00000001 USING  ORDINARY    00000000 00001000 FFFFFFF8   6 000          @R6,6
  13682  0000151E  00000001 USING  ORDINARY    0000151E 00001000 00000001   7 90E   13871  $$$236B,7
  13698  0000151E  00000001 USING  ORDINARY    00000000 00001000 FFFFFFE7   9 030   13870  RPAGE,PAR
  13707  0000151E  00000001 USING  ORDINARY    00000000 00001000 FFFFFFE6   6 00C   13870  RGROUP,R6
  13889  000015C0  00000001 USING  ORDINARY    00000000 00001000 FFFFFFF7   7 000          @R7,7
1RECS     (RECS2101) (12:53) (15MAR04) Using Map                                                                            Page  200
  13908  000015CE  00000001 USING  ORDINARY    00000000 00001000 FFFFFFF5   9 000          @R9,9
  13915  000015CE  00000001 USING  ORDINARY    00000000 00001000 FFFFFFF8   6 000          @R6,6
  13965  000015E8  00000001 USING  ORDINARY    000015E8 00001000 00000001   7 7D8   14079  $$$246B,7
  13979  000015E8  00000001 USING  ORDINARY    FFFFFFD8 00001000 FFFFFFE4   8 030   14076  SEARCHWA-(4+36),R8
  13990  000015E8  00000001 USING  ORDINARY    00000000 00001000 FFFFFFE7   9 028   14071  RPAGE,PAR
  13999  000015E8  00000001 USING  ORDINARY    00000000 00001000 FFFFFFE6   6 000   14075  RGROUP,R6
  14099  0000163A  00000001 USING  ORDINARY    00000000 00001000 FFFFFFF6   8 000          @R8,8
  14104  0000163A  00000001 USING  ORDINARY    00000000 00001000 FFFFFFF7   7 000          @R7,7
  14123  00001648  00000001 USING  ORDINARY    00000000 00001000 FFFFFFF5   9 000          @R9,9
  14130  00001648  00000001 USING  ORDINARY    00000000 00001000 FFFFFFF8   6 000          @R6,6
  14180  00001662  00000001 USING  ORDINARY    00001662 00001000 00000001   7 7A6   14391  $$$253B,7
  14194  00001662  00000001 USING  ORDINARY    FFFFFFD8 00001000 FFFFFFE4   8 030   14335  SEARCHWA-(4+36),R8
  14205  00001662  00000001 USING  ORDINARY    00000000 00001000 FFFFFFE7   9 030   14383  RPAGE,PAR
  14214  00001662  00000001 USING  ORDINARY    00000000 00001000 FFFFFFE6   6 00C   14305  RGROUP,R6
  14411  00001708  00000001 USING  ORDINARY    00000000 00001000 FFFFFFF6   8 000          @R8,8
  14416  00001708  00000001 USING  ORDINARY    00000000 00001000 FFFFFFF7   7 000          @R7,7
  14435  00001716  00000001 USING  ORDINARY    00000000 00001000 FFFFFFF5   9 000          @R9,9
  14442  00001716  00000001 USING  ORDINARY    00000000 00001000 FFFFFFF8   6 000          @R6,6
  14526  00001730  00000001 USING  ORDINARY    00001730 00001000 00000001   7 6D8   15254  $$$263B,7
  14540  00001730  00000001 USING  ORDINARY    FFFFFFD8 00001000 FFFFFFDE   8 02E   15226  ADWA-(4+36),R8
  14551  00001730  00000001 USING  ORDINARY    00000000 00001000 FFFFFFE6   6 00C   15218  RGROUP,R6
  14563  00001732  00000001 USING  ORDINARY    00000000 00001000 FFFFFFE7   9 018   14577  RPAGE,PAR
  14597  00001746  00000001 USING  ORDINARY    00000000 00001000 FFFFFFF5   9 000          @R9,9
  14609  00001746  00000001 USING  ORDINARY    00000000 00001000 FFFFFFE7  10 024   14630  RPAGE,PBR
  14664  0000178A  00000001 USING  ORDINARY    00000000 00001000 FFFFFFF4  10 000          @R10,10
  14679  00001792  00000001 USING  ORDINARY    00000000 00001000 FFFFFFE9  15 044   14690  JCB,R15
  14705  000017AA  00000001 USING  ORDINARY    00000000 00001000 FFFFFFEF  15 000          @R15,15
  14717  000017AE  00000001 USING  ORDINARY    00000000 00001000 FFFFFFE7  10 015   14731  RPAGE,PBR
  14792  000017D0  00000001 USING  ORDINARY    00000000 00001000 FFFFFFF4  10 000          @R10,10
  14806  000017D8  00000001 USING  ORDINARY    00000000 00001000 FFFFFFE9  15 044   14817  JCB,R15
  14832  000017F0  00000001 USING  ORDINARY    00000000 00001000 FFFFFFEF  15 000          @R15,15
  14844  000017F4  00000001 USING  ORDINARY    00000000 00001000 FFFFFFE7  10 015   14890  RPAGE,PBR
  14909  0000182C  00000001 USING  ORDINARY    00000000 00001000 FFFFFFF4  10 000          @R10,10
  14915  0000182C  00000001 DROP                                            2              2
  14919  00001832  00000001 USING  ORDINARY    00000000 00001000 FFFFFFFC   2 000   21506  @R2,2
  14975  0000185A  00000001 USING  ORDINARY    00000000 00001000 FFFFFFE7   9 024   15046  RPAGE,PAR
  15058  000018A8  00000001 USING  ORDINARY    00000000 00001000 FFFFFFF5   9 000          @R9,9
  15068  000018A8  00000001 USING  ORDINARY    00000000 00001000 FFFFFFE7  10 01C   15078  RPAGE,PBR
  15085  000018CA  00000001 USING  ORDINARY    00000000 00001000 FFFFFFF4  10 000          @R10,10
  15096  000018CA  00000001 USING  ORDINARY    00000000 00001000 FFFFFFE7  10 030   15124  RPAGE,PBR
  15145  00001932  00000001 USING  ORDINARY    00000000 00001000 FFFFFFF4  10 000          @R10,10
  15156  00001932  00000001 USING  ORDINARY    00000000 00001000 FFFFFFE7   9 030   15172  RPAGE,PAR
  15193  00001978  00000001 USING  ORDINARY    00000000 00001000 FFFFFFF5   9 000          @R9,9
  15204  00001978  00000001 USING  ORDINARY    00000000 00001000 FFFFFFE7   9 030   15250  RPAGE,PAR
  15265  000019C0  00000001 USING  ORDINARY    00000000 00001000 FFFFFFF5   9 000          @R9,9
  15277  000019C0  00000001 USING  ORDINARY    00000000 00001000 FFFFFFF6   8 000          @R8,8
  15282  000019C0  00000001 USING  ORDINARY    00000000 00001000 FFFFFFF7   7 000          @R7,7
  15301  000019CE  00000001 USING  ORDINARY    00000000 00001000 FFFFFFF8   6 000          @R6,6
  15357  000019E8  00000001 USING  ORDINARY    000019E8 00001000 00000001   7 426   15729  $$$280B,7
  15373  000019E8  00000001 USING  ORDINARY    00000000 00001000 FFFFFFE6   6 000          RGROUP,R6
  15389  000019F2  00000001 USING  ORDINARY    00000000 00001000 FFFFFFE9  15 044   15400  JCB,R15
  15415  00001A0A  00000001 USING  ORDINARY    00000000 00001000 FFFFFFEF  15 000          @R15,15
  15427  00001A0E  00000001 USING  ORDINARY    00000000 00001000 FFFFFFE7  10 015   15441  RPAGE,PBR
  15502  00001A30  00000001 USING  ORDINARY    00000000 00001000 FFFFFFF4  10 000          @R10,10
  15516  00001A38  00000001 USING  ORDINARY    00000000 00001000 FFFFFFE9  15 044   15527  JCB,R15
  15542  00001A50  00000001 USING  ORDINARY    00000000 00001000 FFFFFFEF  15 000          @R15,15
  15561  00001A60  00000001 USING  ORDINARY    00000000 00001000 FFFFFFE7  10 018   15609  RPAGE,PBR
  15628  00001A9A  00000001 USING  ORDINARY    00000000 00001000 FFFFFFF4  10 000          @R10,10
  15640  00001A9A  00000001 USING  ORDINARY    00000000 00001000 FFFFFFE7   9 050   15718  RPAGE,PAR
1RECS     (RECS2101) (12:53) (15MAR04) Using Map                                                                            Page  201
  15736  00001B2A  00000001 USING  ORDINARY    00000000 00001000 FFFFFFF5   9 000          @R9,9
  15750  00001B32  00000001 USING  ORDINARY    00000000 00001000 FFFFFFE9  15 044   15761  JCB,R15
  15776  00001B4A  00000001 USING  ORDINARY    00000000 00001000 FFFFFFEF  15 000          @R15,15
  15789  00001B50  00000001 USING  ORDINARY    00000000 00001000 FFFFFFF7   7 000          @R7,7
  15808  00001B5E  00000001 USING  ORDINARY    00000000 00001000 FFFFFFF8   6 000          @R6,6
  15887  00001B78  00000001 USING  ORDINARY    00001B78 00001000 00000001   7 29C   16184  $$$288B,7
  15901  00001B78  00000001 USING  ORDINARY    FFFFFFD8 00001000 FFFFFFDD   8 0B8   16171  DLWA-(4+36),R8
  15912  00001B78  00000001 USING  ORDINARY    00000000 00001000 FFFFFFE7   9 030   16183  RPAGE,PAR
  15921  00001B78  00000001 USING  ORDINARY    00000000 00001000 FFFFFFE6   6 01A   16183  RGROUP,R6
  16199  00001CC8  00000001 USING  ORDINARY    00000000 00001000 FFFFFFF6   8 000          @R8,8
  16204  00001CC8  00000001 USING  ORDINARY    00000000 00001000 FFFFFFF7   7 000          @R7,7
  16223  00001CD6  00000001 USING  ORDINARY    00000000 00001000 FFFFFFF5   9 000          @R9,9
  16230  00001CD6  00000001 USING  ORDINARY    00000000 00001000 FFFFFFF8   6 000          @R6,6
  16278  00001CF0  00000001 USING  ORDINARY    00001CF0 00001000 00000001   7 124   16428  $$$296B,7
  16294  00001CF0  00000001 USING  ORDINARY    00000000 00001000 FFFFFFE7   9 022   16309  RPAGE,PAR
  16303  00001CF0  00000001 USING  ORDINARY    00000000 00001000 FFFFFFE6   6 00C   16338  RGROUP,R6
  16316  00001D00  00000001 USING  ORDINARY    00000000 00001000 FFFFFFF5   9 000          @R9,9
  16325  00001D00  00000001 USING  ORDINARY    00000000 00001000 FFFFFFE7  10 006   16338  RPAGE,PBR
  16348  00001D1C  00000001 USING  ORDINARY    00000000 00001000 FFFFFFF4  10 000          @R10,10
  16357  00001D1C  00000001 USING  ORDINARY    00000000 00001000 FFFFFFE7   9 018   16423  RPAGE,PAR
  16394  00001D44  00000001 USING  ORDINARY    00000000 00001000 FFFFFFE9  15 044   16405  JCB,R15
  16420  00001D5C  00000001 USING  ORDINARY    00000000 00001000 FFFFFFEF  15 000          @R15,15
  16442  00001D74  00000001 USING  ORDINARY    00000000 00001000 FFFFFFE9  15 044   16453  JCB,R15
  16468  00001D8C  00000001 USING  ORDINARY    00000000 00001000 FFFFFFEF  15 000          @R15,15
  16482  00001D92  00000001 USING  ORDINARY    00000000 00001000 FFFFFFF7   7 000          @R7,7
  16501  00001DA0  00000001 USING  ORDINARY    00000000 00001000 FFFFFFF5   9 000          @R9,9
  16508  00001DA0  00000001 USING  ORDINARY    00000000 00001000 FFFFFFF8   6 000          @R6,6
  16610  00001E4C  00000001 USING  ORDINARY    00001E4C 00001000 00000001   7 16C   16753  $$$299B,7
  16624  00001E4C  00000001 USING  ORDINARY    FFFFFFD8 00001000 FFFFFFE4   8 034   16713  SEARCHWA-(4+36),R8
  16635  00001E4C  00000001 USING  ORDINARY    00000000 00001000 FFFFFFE7   9 030   16758  RPAGE,PAR
  16644  00001E4C  00000001 USING  ORDINARY    00000000 00001000 FFFFFFE6   6 008   16986  RGROUP,R6
  16781  00001EDA  00000001 USING  ORDINARY    00000000 00001000 FFFFFFF6   8 000          @R8,8
  16786  00001EDA  00000001 USING  ORDINARY    00000000 00001000 FFFFFFF7   7 000          @R7,7
  16805  00001EE8  00000001 USING  ORDINARY    00000000 00001000 FFFFFFF5   9 000          @R9,9
  16865  00001F02  00000001 USING  ORDINARY    00001F02 00001000 00000001   7 0BE   17031  $$$306B,7
  16879  00001F02  00000001 USING  ORDINARY    FFFFFFD8 00001000 FFFFFFE4   8 034   16947  SEARCHWA-(4+36),R8
  16890  00001F02  00000001 USING  ORDINARY    00000000 00001000 FFFFFFE7   9 030   17010  RPAGE,PAR
  17053  00001F9A  00000001 USING  ORDINARY    00000000 00001000 FFFFFFF6   8 000          @R8,8
  17058  00001F9A  00000001 USING  ORDINARY    00000000 00001000 FFFFFFF7   7 000          @R7,7
  17077  00001FA8  00000001 USING  ORDINARY    00000000 00001000 FFFFFFF5   9 000          @R9,9
  17084  00001FA8  00000001 USING  ORDINARY    00000000 00001000 FFFFFFF8   6 000          @R6,6
  17150  00001FDE  00000001 USING  ORDINARY    00001FDE 00001000 00000001   7 000          $$$315B,7
  17166  00001FDE  00000001 USING  ORDINARY    00000000 00001000 FFFFFFE6   6 00C   17402  RGROUP,R6
  17177  00001FE8  00000001 USING  ORDINARY    00000000 00001000 FFFFFFF7   7 000          @R7,7
  17241  00002010  00000001 USING  ORDINARY    00002010 00001000 00000001   7 012   17269  $$$318B,7
  17255  00002012  00000001 DROP                                           15              15
  17259  00002018  00000001 USING  ORDINARY    00000000 00001000 FFFFFFEF  15 000          @R15,15
  17285  00002022  00000001 USING  ORDINARY    00000000 00001000 FFFFFFF7   7 000          @R7,7
  17347  0000204A  00000001 USING  ORDINARY    0000204A 00001000 00000001   7 3AA   17431  $$$322B,7
  17363  0000204A  00000001 USING  ORDINARY    00000000 00001000 FFFFFFE7   9 024   17424  RPAGE,PAR
  17460  00002094  00000001 USING  ORDINARY    00000000 00001000 FFFFFFF7   7 000          @R7,7
  17479  000020A2  00000001 USING  ORDINARY    00000000 00001000 FFFFFFF5   9 000          @R9,9
  17486  000020A2  00000001 USING  ORDINARY    00000000 00001000 FFFFFFF8   6 000          @R6,6
  17562  000020BC  00000001 USING  ORDINARY    000020BC 00001000 00000001   7 31C   17694  $$$328B,7
  17576  000020BC  00000001 USING  ORDINARY    FFFFFFD8 00001000 FFFFFFDC   8 0B0   17677  XMISCWA-(4+36),R8
  17587  000020BC  00000001 USING  ORDINARY    00000000 00001000 FFFFFFE7   9 030   17675  RPAGE,PAR
  17596  000020BC  00000001 USING  ORDINARY    00000000 00001000 FFFFFFE6   6 000   17642  RGROUP,R6
  17719  00002150  00000001 USING  ORDINARY    00000000 00001000 FFFFFFF6   8 000          @R8,8
  17724  00002150  00000001 USING  ORDINARY    00000000 00001000 FFFFFFF7   7 000          @R7,7
1RECS     (RECS2101) (12:53) (15MAR04) Using Map                                                                            Page  202
  17743  0000215E  00000001 USING  ORDINARY    00000000 00001000 FFFFFFF5   9 000          @R9,9
  17750  0000215E  00000001 USING  ORDINARY    00000000 00001000 FFFFFFF8   6 000          @R6,6
  17800  00002178  00000001 USING  ORDINARY    00002178 00001000 00000001   7 268   17936  $$$334B,7
  17814  00002178  00000001 USING  ORDINARY    FFFFFFD8 00001000 FFFFFFDC   8 02C   17951  XMISCWA-(4+36),R8
  17825  00002178  00000001 USING  ORDINARY    00000000 00001000 FFFFFFE6   6 004   17951  RGROUP,R6
  17963  000021D6  00000001 USING  ORDINARY    00000000 00001000 FFFFFFF6   8 000          @R8,8
  17968  000021D6  00000001 USING  ORDINARY    00000000 00001000 FFFFFFF7   7 000          @R7,7
  17987  000021E4  00000001 USING  ORDINARY    00000000 00001000 FFFFFFF8   6 000          @R6,6
  18059  000021FE  00000001 USING  ORDINARY    000021FE 00001000 00000001   7 1E6   18102  $$$343B,7
  18073  000021FE  00000001 USING  ORDINARY    FFFFFFD8 00001000 FFFFFFDB   8 028   18090  XFSWA-(4+36),R8
  18121  00002220  00000001 USING  ORDINARY    00000000 00001000 FFFFFFF6   8 000          @R8,8
  18126  00002220  00000001 USING  ORDINARY    00000000 00001000 FFFFFFF7   7 000          @R7,7
  18210  00002248  00000001 USING  ORDINARY    00002248 00001000 00000001   7 1A0   18250  $$$347B,7
  18224  00002248  00000001 USING  ORDINARY    FFFFFFD8 00001000 FFFFFFDA   8 028   18238  XLSWA-(4+36),R8
  18269  0000226C  00000001 USING  ORDINARY    00000000 00001000 FFFFFFF6   8 000          @R8,8
  18274  0000226C  00000001 USING  ORDINARY    00000000 00001000 FFFFFFF7   7 000          @R7,7
  18337  00002294  00000001 USING  ORDINARY    00002294 00001000 00000001   7 15C   18386  $$$351B,7
  18351  00002294  00000001 USING  ORDINARY    FFFFFFD8 00001000 FFFFFFDC   8 0B0   18389  XMISCWA-(4+36),R8
  18362  00002294  00000001 USING  ORDINARY    00000000 00001000 FFFFFFE6   6 004   18389  RGROUP,R6
  18400  000022DA  00000001 USING  ORDINARY    00000000 00001000 FFFFFFF6   8 000          @R8,8
  18405  000022DA  00000001 USING  ORDINARY    00000000 00001000 FFFFFFF7   7 000          @R7,7
  18424  000022E8  00000001 USING  ORDINARY    00000000 00001000 FFFFFFF8   6 000          @R6,6
  18474  00002302  00000001 USING  ORDINARY    00002302 00001000 00000001   7 0EE   18524  $$$354B,7
  18488  00002302  00000001 USING  ORDINARY    FFFFFFD8 00001000 FFFFFFDC   8 0B0   18527  XMISCWA-(4+36),R8
  18499  00002302  00000001 USING  ORDINARY    00000000 00001000 FFFFFFE6   6 004   18527  RGROUP,R6
  18538  0000234A  00000001 USING  ORDINARY    00000000 00001000 FFFFFFF6   8 000          @R8,8
  18543  0000234A  00000001 USING  ORDINARY    00000000 00001000 FFFFFFF7   7 000          @R7,7
  18562  00002358  00000001 USING  ORDINARY    00000000 00001000 FFFFFFF8   6 000          @R6,6
  18611  00002372  00000001 USING  ORDINARY    00002372 00001000 00000001   7 07E   18663  $$$357B,7
  18625  00002372  00000001 USING  ORDINARY    FFFFFFD8 00001000 FFFFFFDC   8 0B0   18666  XMISCWA-(4+36),R8
  18636  00002372  00000001 USING  ORDINARY    00000000 00001000 FFFFFFE6   6 004   18666  RGROUP,R6
  18677  000023B4  00000001 USING  ORDINARY    00000000 00001000 FFFFFFF6   8 000          @R8,8
  18682  000023B4  00000001 USING  ORDINARY    00000000 00001000 FFFFFFF7   7 000          @R7,7
  18701  000023C2  00000001 USING  ORDINARY    00000000 00001000 FFFFFFF8   6 000          @R6,6
  18788  00002414  00000001 USING  ORDINARY    00002414 00001000 00000001   7 050   18886  $$$360B,7
  18804  00002414  00000001 USING  ORDINARY    00000000 00001000 FFFFFFE8   6 018   18891  BSINFO,R6
  18909  00002464  00000001 USING  ORDINARY    00000000 00001000 FFFFFFF7   7 000          @R7,7
  18928  00002472  00000001 USING  ORDINARY    00000000 00001000 FFFFFFF8   6 000          @R6,6
  18980  0000248C  00000001 USING  ORDINARY    0000248C 00001000 00000001   7 2F4   19205  $$$367B,7
  18996  0000248C  00000001 USING  ORDINARY    00000000 00001000 FFFFFFE8   6 018   19207  BSINFO,R6
  19218  0000250E  00000001 USING  ORDINARY    00000000 00001000 FFFFFFF7   7 000          @R7,7
  19237  0000251C  00000001 USING  ORDINARY    00000000 00001000 FFFFFFF8   6 000          @R6,6
  19315  00002536  00000001 USING  ORDINARY    00002536 00001000 00000001   7 23A   19483  $$$385B,7
  19329  00002536  00000001 USING  ORDINARY    FFFFFFD8 00001000 FFFFFFD9   8 034   19479  BNWA-(4+36),R8
  19341  0000253A  00000001 USING  ORDINARY    00000000 00001000 FFFFFFE8   6 010   19480  BSINFO,R6
  19502  000025F0  00000001 USING  ORDINARY    00000000 00001000 FFFFFFF6   8 000          @R8,8
  19507  000025F0  00000001 USING  ORDINARY    00000000 00001000 FFFFFFF7   7 000          @R7,7
  19526  000025FE  00000001 USING  ORDINARY    00000000 00001000 FFFFFFF8   6 000          @R6,6
  19600  00002618  00000001 USING  ORDINARY    00002618 00001000 00000001   7 160   19699  $$$393B,7
  19614  00002618  00000001 USING  ORDINARY    FFFFFFD8 00001000 FFFFFFD8   8 02C   19697  BDWA-(4+36),R8
  19625  00002618  00000001 USING  ORDINARY    00000000 00001000 FFFFFFE8   6 010   19698  BSINFO,R6
  19708  00002686  00000001 USING  ORDINARY    00000000 00001000 FFFFFFF6   8 000          @R8,8
  19713  00002686  00000001 USING  ORDINARY    00000000 00001000 FFFFFFF7   7 000          @R7,7
  19732  00002694  00000001 USING  ORDINARY    00000000 00001000 FFFFFFF8   6 000          @R6,6
  19794  000026AE  00000001 USING  ORDINARY    000026AE 00001000 00000001   7 0DE   20087  $$$398B,7
  19810  000026AE  00000001 USING  ORDINARY    00000000 00001000 FFFFFFE8   6 018   20089  BSINFO,R6
  20100  00002754  00000001 USING  ORDINARY    00000000 00001000 FFFFFFF7   7 000          @R7,7
  20119  00002762  00000001 USING  ORDINARY    00000000 00001000 FFFFFFF8   6 000          @R6,6
  20221  000027AC  00000001 USING  ORDINARY    000027AC 00001000 00000001   7 532   20679  $$$420B,7
1RECS     (RECS2101) (12:53) (15MAR04) Using Map                                                                            Page  203
  20235  000027AC  00000001 USING  ORDINARY    FFFFFFD8 00001000 FFFFFFD7   8 03C   20674  LCLWA-(4+36),R8
  20246  000027AC  00000001 USING  ORDINARY    00000000 00001000 FFFFFFE7   9 028   20598  RPAGE,PAR
  20255  000027AC  00000001 USING  ORDINARY    00000000 00001000 FFFFFFE6   6 018   20599  RGROUP,R6
  20693  000028F2  00000001 USING  ORDINARY    00000000 00001000 FFFFFFF6   8 000          @R8,8
  20698  000028F2  00000001 USING  ORDINARY    00000000 00001000 FFFFFFF7   7 000          @R7,7
  20718  00002900  00000001 USING  ORDINARY    00000000 00001000 FFFFFFF5   9 000          @R9,9
  20725  00002900  00000001 USING  ORDINARY    00000000 00001000 FFFFFFF8   6 000          @R6,6
  20818  0000291A  00000001 USING  ORDINARY    0000291A 00001000 00000001   7 3C4   21776  $$$442B,7
  20832  0000291A  00000001 USING  ORDINARY    FFFFFFD8 00001000 FFFFFFD6   8 044   21722  PTLWA-(4+36),R8
  20843  0000291A  00000001 USING  ORDINARY    00000000 00001000 FFFFFFE7   9 030   21596  RPAGE,PAR
  20852  0000291A  00000001 USING  ORDINARY    00000000 00001000 FFFFFFE6   6 01A   21597  RGROUP,R6
  21181  00002A42  00000001 USING  ORDINARY    00000000 00001000 FFFFFFE8   4 010   21185  BSINFO,R4
  21191  00002A4E  00000001 USING  ORDINARY    00000000 00001000 FFFFFFFA   4 000          @R4,4
  21325  00002AFE  00000001 USING  ORDINARY    00000000 00001000 FFFFFFE8   4 010   21329  BSINFO,R4
  21335  00002B0A  00000001 USING  ORDINARY    00000000 00001000 FFFFFFFA   4 000          @R4,4
  21791  00002CAC  00000001 USING  ORDINARY    00000000 00001000 FFFFFFF6   8 000          @R8,8
  21796  00002CAC  00000001 USING  ORDINARY    00000000 00001000 FFFFFFF7   7 000          @R7,7
  21815  00002CBA  00000001 USING  ORDINARY    00000000 00001000 FFFFFFF5   9 000          @R9,9
  21822  00002CBA  00000001 USING  ORDINARY    00000000 00001000 FFFFFFF8   6 000          @R6,6
  21936  00002CFE  00000001 USING  ORDINARY    00002CFE 00001000 00000001   7 942   22562  $$$479B,7
  21950  00002CFE  00000001 USING  ORDINARY    FFFFFFD8 00001000 FFFFFFD5   8 040   22528  NMWA-(4+36),R8
  21961  00002CFE  00000001 USING  ORDINARY    00000000 00001000 FFFFFFE6   6 018   22526  RGROUP,R6
  22298  00002E0E  00000001 USING  ORDINARY    00000000 00001000 FFFFFFE7   9 01E   22312  RPAGE,PAR
  22330  00002E1A  00000001 USING  ORDINARY    00000000 00001000 FFFFFFF5   9 000          @R9,9
  22574  00002F16  00000001 USING  ORDINARY    00000000 00001000 FFFFFFF6   8 000          @R8,8
  22579  00002F16  00000001 USING  ORDINARY    00000000 00001000 FFFFFFF7   7 000          @R7,7
  22598  00002F24  00000001 USING  ORDINARY    00000000 00001000 FFFFFFF8   6 000          @R6,6
  22695  00002F3E  00000001 USING  ORDINARY    00002F3E 00001000 00000001   7 702   23805  $$$506B,7
  22709  00002F3E  00000001 USING  ORDINARY    FFFFFFD8 00001000 FFFFFFD4   8 050   23767  NFWA-(4+36),R8
  22720  00002F3E  00000001 USING  ORDINARY    00000000 00001000 FFFFFFE6   6 018   23746  RGROUP,R6
  23392  000030EC  00000001 USING  ORDINARY    00000000 00001000 FFFFFFE7   9 01E   23406  RPAGE,PAR
  23424  000030F8  00000001 USING  ORDINARY    00000000 00001000 FFFFFFF5   9 000          @R9,9
  23817  00003260  00000001 USING  ORDINARY    00000000 00001000 FFFFFFF6   8 000          @R8,8
  23822  00003260  00000001 USING  ORDINARY    00000000 00001000 FFFFFFF7   7 000          @R7,7
  23841  0000326E  00000001 USING  ORDINARY    00000000 00001000 FFFFFFF8   6 000          @R6,6
  23906  00003288  00000001 USING  ORDINARY    00003288 00001000 00000001   7 398   24050  $$$555B,7
  23920  00003288  00000001 USING  ORDINARY    FFFFFFD8 00001000 FFFFFFE4   8 034   24033  SEARCHWA-(4+36),R8
  23931  00003288  00000001 USING  ORDINARY    00000000 00001000 FFFFFFE7   9 024   24034  RPAGE,PAR
  23940  00003288  00000001 USING  ORDINARY    00000000 00001000 FFFFFFE6   6 018   24032  RGROUP,R6
  24060  00003316  00000001 USING  ORDINARY    00000000 00001000 FFFFFFF6   8 000          @R8,8
  24065  00003316  00000001 USING  ORDINARY    00000000 00001000 FFFFFFF7   7 000          @R7,7
  24084  00003324  00000001 USING  ORDINARY    00000000 00001000 FFFFFFF5   9 000          @R9,9
  24091  00003324  00000001 USING  ORDINARY    00000000 00001000 FFFFFFF8   6 000          @R6,6
  24175  0000333E  00000001 USING  ORDINARY    0000333E 00001000 00000001   7 310   24682  $$$561B,7
  24189  0000333E  00000001 USING  ORDINARY    FFFFFFD8 00001000 FFFFFFD3   8 034   24390  NXWA-(4+36),R8
  24200  0000333E  00000001 USING  ORDINARY    00000000 00001000 FFFFFFE7   9 01E   24271  RPAGE,PAR
  24209  0000333E  00000001 USING  ORDINARY    00000000 00001000 FFFFFFE6   6 00C   25431  RGROUP,R6
  24290  00003390  00000001 USING  ORDINARY    00000000 00001000 FFFFFFE9  15 044   24301  JCB,R15
  24316  000033A8  00000001 USING  ORDINARY    00000000 00001000 FFFFFFEF  15 000          @R15,15
  24324  000033AC  00000001 USING  ORDINARY    00000000 00001000 FFFFFFF5   9 000          @R9,9
  24333  000033AC  00000001 USING  ORDINARY    00000000 00001000 FFFFFFE7  10 030   24523  RPAGE,PBR
  24530  0000343E  00000001 USING  ORDINARY    00000000 00001000 FFFFFFF4  10 000          @R10,10
  24539  0000343E  00000001 USING  ORDINARY    00000000 00001000 FFFFFFE7   9 028   24652  RPAGE,PAR
  24699  00003502  00000001 USING  ORDINARY    00000000 00001000 FFFFFFF6   8 000          @R8,8
  24704  00003502  00000001 USING  ORDINARY    00000000 00001000 FFFFFFF7   7 000          @R7,7
  24723  00003510  00000001 USING  ORDINARY    00000000 00001000 FFFFFFF5   9 000          @R9,9
  24769  0000352A  00000001 USING  ORDINARY    0000352A 00001000 00000001   7 10A   24912  $$$579B,7
  24924  0000356E  00000001 USING  ORDINARY    00000000 00001000 FFFFFFF7   7 000          @R7,7
  24979  00003596  00000001 USING  ORDINARY    00003596 00001000 00000001   7 0A6   25112  $$$591B,7
1RECS     (RECS2101) (12:53) (15MAR04) Using Map                                                                            Page  204
  25124  000035D0  00000001 USING  ORDINARY    00000000 00001000 FFFFFFF7   7 000          @R7,7
  25236  0000366E  00000001 USING  ORDINARY    0000366E 00001000 00000001   7 78A   25446  $$$603B,7
  25252  0000366E  00000001 USING  ORDINARY    00000000 00001000 FFFFFFE7   9 050   25860  RPAGE,PAR
  25453  00003736  00000001 USING  ORDINARY    00000000 00001000 FFFFFFF7   7 000          @R7,7
  25472  00003744  00000001 USING  ORDINARY    00000000 00001000 FFFFFFF8   6 000          @R6,6
  25565  0000375E  00000001 USING  ORDINARY    0000375E 00001000 00000001   7 6D4   26122  $$$613B,7
  25579  0000375E  00000001 USING  ORDINARY    FFFFFFD8 00001000 FFFFFFD2   8 184   26121  VCWA-(4+36),R8
  25879  00003926  00000001 USING  ORDINARY    00000000 00001000 FFFFFFF5   9 000          @R9,9
  25888  00003926  00000001 USING  ORDINARY    00000000 00001000 FFFFFFE7   6 024   25895  RPAGE,R6
  26032  000039B4  00000001 USING  ORDINARY    00000000 00001000 FFFFFFF8   6 000          @R6,6
  26041  000039B4  00000001 USING  ORDINARY    00000000 00001000 FFFFFFE7   9 006   26080  RPAGE,PAR
  26052  000039B4  00000001 USING  ORDINARY    00000000 00001000 FFFFFFE6   6 00C   26080  RGROUP,R6
  26090  000039E0  00000001 USING  ORDINARY    00000000 00001000 FFFFFFF8   6 000          @R6,6
  26142  000039F4  00000001 USING  ORDINARY    00000000 00001000 FFFFFFF6   8 000          @R8,8
  26147  000039F4  00000001 USING  ORDINARY    00000000 00001000 FFFFFFF7   7 000          @R7,7
  26166  00003A02  00000001 USING  ORDINARY    00000000 00001000 FFFFFFF5   9 000          @R9,9
  26249  00003AA2  00000001 USING  ORDINARY    00003AA2 00001000 00000001   7 39C   26646  $$$630B,7
  26263  00003AA2  00000001 USING  ORDINARY    FFFFFFD8 00001000 FFFFFFD1   8 058   26625  CKDWA-(4+36),R8
  26275  00003AA6  00000001 USING  ORDINARY    00000000 00001000 FFFFFFE7   9 050   26625  RPAGE,PAR
  26653  00003D42  00000001 USING  ORDINARY    00000000 00001000 FFFFFFF6   8 000          @R8,8
  26658  00003D42  00000001 USING  ORDINARY    00000000 00001000 FFFFFFF7   7 000          @R7,7
  26677  00003D50  00000001 USING  ORDINARY    00000000 00001000 FFFFFFF5   9 000          @R9,9
  26727  00003D6A  00000001 USING  ORDINARY    00003D6A 00001000 00000001   7 0BE   26886  $$$643B,7
  26759  00003D72  00000001 DROP                                            2              2
  26763  00003D78  00000001 USING  ORDINARY    00000000 00001000 FFFFFFFC   2 000          @R2,2
  26896  00003DD4  00000001 USING  ORDINARY    00000000 00001000 FFFFFFF7   7 000          @R7,7

1         (RECS2101) (12:53) (15MAR04) General Purpose Register Cross Reference                                             Page  205
- Register  References (M=modified, B=branch, U=USING, D=DROP, N=index)                      HLASM R4.0  2004/03/15 12.53
0    0(0)      982U   983D  2102   2170M  2170   2171M  6880   6935   6945   7014   7030   7070M  7210M  7244M  7289
              7367M  7405M  7405   7497M  7615M  7665   7701M  7705   7720M  7802   7829   7854   7860M  7866   7873
              7888M  7932   7959   7984   7990M  7996   8003   8018M  8062   8089   8114   8120M  8126   8133   8148M
              8193   8220   8245   8251M  8257   8264   8279M  8324   8351   8376   8382M  8388   8395   8410M  8477
              8605M  8645M  8663   8683M  8741   8883M  8923M  8941   8961M  9020   9143M  9230M  9248M  9248   9259
              9279M  9339   9464M  9490   9510M  9570   9693M  9767M  9785M  9785   9796   9816M  9876  10001M 10027
             10047M 10105  10166  10181M 10224  10278  10293M 10386  10434  10644M 10750M 10751  10758M 10766M 10767
             10817M 10871  11008M 11017M 11018  11114M 11204  11305  11344M 11383M 11384  11393M 11419M 11420  11634M
             11713M 11842M 11931  12032  12074M 12100M 12101  12110M 12149M 12150  12358M 12370M 12370  12380  12400M
             12495  12551  12612M 12640M 12654  12669  12704M 12808  12863M 12864M 12881  12974M 13015  13100M 13275
             13290M 13345  13430M 13614M 13665  13711M 13761M 13862M 13897M 13947  14112M 14162  14293M 14332M 14384M
             14424M 14508  14611M 14851  14961M 14961  14963M 14979M 14980M 14999  15040  15076M 15079  15119M 15167M
             15206M 15223M 15249M 15250  15290M 15340  15563  15564M 15565  15700M 15717M 15719  15797M 15869  15946M
             15947  15948M 15949  16017M 16018  16040M 16081M 16107M 16108  16137M 16138  16145M 16171M 16212M 16261
             16310M 16359M 16365  16490M 16592  16647  16684M 16684  16710M 16774  16794M 16847  16895  16925M 16925
             16944M 17046  17066M 17133  17170  17185M 17224  17268M 17268  17274  17293M 17330  17389M 17468M 17544
             17601  17613M 17618  17665M 17674M 17732M 17782  17900  17976M 18041  18107M 18114  18134M 18192  18255M
             18262  18282M 18319  18381M 18413M 18456  18504  18519M 18551M 18593  18641  18655M 18690M 18771  18806
             18917M 18963  18998  18999M 19000  19004  19028M 19044  19087  19103  19117M 19118  19197  19207M 19211
             19226M 19297  19343  19390M 19400  19420  19428M 19429M 19441  19451  19453  19457  19459  19466M 19467M
             19468  19479M 19480M 19495  19515M 19582  19628  19667M 19668M 19669  19697M 19698M 19701  19721M 19777
             19812  19813M 19814  19818  19909M 19925  19969  19985  19999M 20000  20079  20089M 20093  20108M 20203
             20258  20322M 20479M 20537M 20537  20592M 20674M 20686  20706M 20800  20855  20920M 21155M 21157M 21198M
             21299M 21301M 21342M 21403M 21532M 21643M 21679  21722M 21765M 21784  21804M 21918  21964  22495M 22527M
             22539M 22567  22587M 22677  22723  22959M 22971  22980M 23097M 23109  23118M 23717M 23747M 23777M 23810
             23830M 23888  24073M 24157  24212  24214M 24215  24216  24219M 24338M 24387M 24565M 24591M 24592M 24594M
             24602M 24603M 24605M 24627M 24653M 24654M 24656M 24712M 24752  24787  24823  24880  24932M 24962  25132M
             25219  25257  25275  25278M 25322M 25340M 25384M 25461M 25547  25585  25643  25651  25675M 25813M 25814M
             25828  25850M 25931M 25975  25982M 26155M 26231  26328  26441M 26442M 26456  26478M 26479M 26492  26574M
             26575M 26587  26615M 26666M 26710  26748  26765M 26775  26785  26904M
     1(1)      978U  2102   2165M  2166M  2172M  6880   6936   7031M  7032   7033M  7033N  7034   7035M  7035N  7036
              7037M  7038M  7039   7040M  7041   7042M  7043   7044M  7045   7067M  7068   7069   7071M  7149M  7150M
              7150   7171M  7211M  7244M  7289   7406M  7615M  7665   7702M  7705   7720M  7802   7828   7865   7888M
              7932   7958   7995   8018M  8062   8088   8125   8148M  8193   8219   8256   8279M  8324   8350   8387
              8410M  8477   8606M  8607M  8641   8645   8646M  8646   8647M  8663   8683M  8741   8884M  8885M  8919
              8923   8924M  8924   8925M  8941   8961M  9020   9144M  9145M  9162M  9178   9190M  9191M  9221   9226N
              9230   9231M  9231   9232M  9252M  9252   9259   9279M  9339   9409M  9421   9455   9460N  9464   9465M
              9465   9466M  9490   9510M  9570   9694M  9695M  9701M  9713   9725M  9726M  9727M  9758   9763N  9767
              9768M  9768   9769M  9789M  9789   9796   9816M  9876   9946M  9958   9992   9997N 10001  10002M 10002
             10003M 10027  10047M 10105  10166  10181M 10224  10278  10293M 10386  10435  10645M 10646M 10655  10678
             10700  10705  10713  10759M 10760M 10817M 10871  11009M 11010M 11114M 11204  11331  11345M 11346M 11363
             11375M 11376M 11381M 11382  11394M 11395M 11412M 11417M 11418  11515M 11523U 11533U 11653M 11661U 11671U
             11751M 11759U 11769U 11842M 11931  12058  12075M 12076M 12093M 12098M 12099  12111M 12112M 12129  12141M
             12142M 12147M 12148  12205M 12206M 12281  12288  12289M 12317M 12318M 12342  12349  12350M 12400M 12495
             12550  12613M 12614M 12640  12641M 12641  12642M 12668  12704M 12808  12861M 12862M 12881  12888  12890
             12900M 12921U 12923M 12930U 12974M 13015  13181M 13182M 13194  13206  13229  13268M 13268  13275  13290M
             13345  13614M 13665  13762M 13763M 13780  13799M 13817  13823M 13837  13843M 13844M 13851  13897M 13947
             14112M 14162  14333M 14334M 14358M 14370  14384  14424M 14508  14628M 14629M 14630M 14641  14868M 14869M
             14869  14890M 14962M 14963M 14964M 14965  14977M 14978M 14999  15020  15025M 15040  15046M 15051M 15052
             15120M 15165M 15166  15168M 15224M 15225M 15290M 15340  15587M 15588M 15588  15609M 15664M 15665M 15665N
             15666  15667M 15668M 15669  15670M 15671  15701M 15710M 15711M 15712  15719  15797M 15869  16082M 16083M
             16114M 16115M 16126  16212M 16261  16307M 16308M 16310  16490M 16592  16711M 16712M 16730  16758M 16759M
             16774  16794M 16847  16945M 16946M 16964M 16980  17008M 17009M 17010M 17018  17046  17066M 17133  17185M
             17224  17293M 17330  17422M 17423M 17424  17468M 17544  17626  17666M 17667M 17673  17675M 17676M 17682
             17732M 17782  17976M 18041  18107N 18134M 18192  18255N 18282M 18319  18382M 18413M 18456  18512  18520M
1         (RECS2101) (12:53) (15MAR04) General Purpose Register Cross Reference                                             Page  206
             18551M 18593  18656M 18690M 18771  18814  18825M 18839  18917M 18963  19000M 19003  19038  19044M 19068
             19087M 19103M 19118M 19134  19160  19197M 19211  19226M 19297  19344  19364  19387  19388M 19389M 19400
             19420  19426M 19427M 19429  19515M 19582  19629  19651  19653  19663  19721M 19777  19814M 19817  19919
             19925M 19950  19969M 19985M 20000M 20016  20042  20079M 20093  20108M 20203  20258  20359M 20360M 20362
             20380  20478  20480M 20481M 20541M 20541  20593M 20594M 20674M 20686  20706M 20800  20855  20957M 20958M
             20960  20978  21156M 21157M 21183M 21184M 21185  21300M 21301M 21327M 21328M 21329  21403N 21404N 21427N
             21433N 21457N 21459N 21464  21643M 21722M 21804M 21918  21965  22496M 22503M 22504M 22505N 22528M 22587M
             22677  22724  22923M 22932M 22932  22959M 22980M 22989M 22989  23009  23022M 23031M 23031  23051  23060
             23061M 23070M 23070  23097M 23118M 23127M 23127  23147  23160M 23169M 23169  23189  23198  23718M 23725M
             23726M 23727N 23748M 23830M 23888  23975M 23987  23999M 24000M 24030  24035N 24073M 24157  24213  24339M
             24340M 24358  24377M 24382M 24383  24388M 24389M 24407  24426M 24431M 24432  24593M 24594M 24604M 24605M
             24655M 24656M 24712M 24752  24787  24832  24889  24932M 24962  25132M 25219  25269M 25461M 25547  25586
             25643M 25676M 25676  25762M 25763M 25763N 25764  25768M 25768N 25769  25773M 25774M 25775  25779M 25780
             25784M 25785  25792M 25792  25793  25797  25801  25805  25811M 25812M 25815  25816M 25828  25835  25841
             25842M 25851M 25967M 25983M 26155M 26231  26332  26348M 26349  26353M 26353N 26354  26358M 26358N 26359
             26363M 26364M 26365  26367M 26368  26372M 26373  26377M 26378  26382M 26383  26387  26391  26395M 26396
             26439M 26440M 26443  26444M 26456  26463  26469  26470M 26476M 26477M 26492  26498  26499  26545  26546
             26560M 26572M 26573M 26587  26594  26596  26603  26605  26608M 26616M 26666M 26710  26762N 26784N 26904M
     2(2)      974U  2102   6880   6937   7017M  7020M  7046M  7047M  7053M  7054M  7055M  7061M  7062M  7063M  7066M
              7072M  7244M  7289   7432M  7433M  7491   7497   7498M  7523M  7525M  7615M  7665   7720M  7802   7865M
              7867M  7888M  7932   7995M  7997M  8018M  8062   8125M  8127M  8148M  8193   8256M  8258M  8279M  8324
              8387M  8389M  8410M  8477   8525   8531M  8599M  8608M  8683M  8741   8796   8802M  8856M  8873M  8886M
              8961M  9020   9075   9081M  9138M  9146M  9224M  9228M  9279M  9339   9394   9400M  9403M  9458M  9462M
              9480M  9510M  9570   9625   9631M  9688M  9696M  9761M  9765M  9816M  9876   9931   9937M  9940M  9995M
              9999M 10017M 10047M 10105  10181M 10224  10293M 10386  10440M 10509M 10526M 10601M 10647M 10674M 10675M
             10675N 10676M 10677M 10691  10698  10705M 10706M 10710M 10712M 10713  10740M 10741M 10741N 10742M 10743M
             10745  10752M 10753M 10757M 10761M 10817M 10871  10926  10932M 10980M 10997M 11011M 11114M 11204  11259
             11305M 11309M 11310M 11311  11320M 11320  11331M 11335M 11339M 11347M 11388M 11396M 11423M 11427M 11495M
             11501M 11502M 11503M 11508M 11512M 11513M 11514  11525M 11526M 11527  11651M 11652  11663M 11664M 11665
             11731M 11737M 11738M 11739M 11744M 11748M 11749M 11750  11761M 11762M 11763  11842M 11931  11986  12032M
             12036M 12037M 12038  12047M 12047  12058M 12062M 12069M 12077M 12105M 12113M 12153M 12157M 12235M 12236M
             12281  12319M 12320M 12329M 12330M 12342  12400M 12495  12558M 12605M 12615M 12668M 12672M 12704M 12808
             12845M 12849M 12897M 12899M 12939M 12943M 12974M 13015  13229  13290M 13345  13523  13559  13614M 13665
             13780  13804M 13805M 13817  13823  13851M 13862  13897M 13947  14036M 14037M 14040M 14069M 14074M 14076M
             14112M 14162  14251M 14252M 14258M 14287M 14292M 14335M 14359M 14360M 14370  14424M 14508  14631M 14641
             14846M 14850M 14915D 14917M 14917  14918M 14919U 14922  14934M 14941  14953M 14963  14984M 14984  15013
             15019M 15024M 15070M 15075M 15077M 15078M 15079N 15098M 15099M 15104M 15105M 15106M 15113M 15121M 15158M
             15159M 15164M 15169M 15226M 15290M 15340  15546M 15550M 15702M 15712M 15715M 15797M 15869  15980M 15985M
             15986M 15991M 16021M 16022M 16026M 16084M 16116M 16126  16212M 16261  16360M 16364M 16490M 16592  16651M
             16690M 16691  16692M 16698M 16705M 16713M 16794M 16847  16899M 16939M 16947M 17066M 17133  17185M 17224
             17293M 17330  17468M 17544  17619M 17625M 17627M 17630M 17636M 17643M 17668M 17677M 17732M 17782  17901M
             17907M 17910M 17976M 18041  18079M 18085M 18090M 18134M 18192  18230M 18233M 18238M 18282M 18319  18368M
             18374M 18375M 18378M 18383M 18413M 18456  18505M 18511M 18513M 18516M 18521M 18551M 18593  18642M 18648M
             18649M 18652M 18660M 18660  18690M 18771  18815  18826M 18839  18845M 18871M 18872  18917M 18963  19068
             19160  19226M 19297  19345  19364M 19368M 19450M 19454M 19455M 19456M 19460M 19461M 19465M 19515M 19582
             19648M 19657  19659M 19662M 19663M 19665M 19721M 19777  19821  19851  19864  19950  20042  20108M 20203
             20258  20361M 20362M 20450  20478M 20479N 20480N 20482  20528  20586  20592N 20593N 20595  20600N 20633
             20674M 20706M 20800  20855  20959M 20960M 21048  21120  21278  21279  21284  21285  21303  21305N 21307N
             21312  21532N 21533N 21556N 21562N 21586N 21588N 21593  21643M 21722M 21804M 21918  21966  21998M 22006M
             22030M 22038M 22357M 22400M 22453M 22513M 22587M 22677  22725  22737  22774  22837M 22845M 22869M 22877M
             23433M 23530M 23620M 23734M 23830M 23888  23943  23949M 23952M 24033M 24037M 24073M 24157  24341M 24358
             24390M 24407  24432M 24447  24453M 24490  24496M 24559  24565  24566M 24585M 24600  24611M 24621  24627
             24628M 24647M 24653  24712M 24752  24932M 24962  25132M 25219  25260M 25299M 25322N 25361M 25384N 25461M
             25547  25587  25677M 25683M 25684M 25687M 25688M 25815M 25837M 25841M 25852M 25868M 25872M 25984M 26155M
             26231  26277  26400M 26401M 26405M 26409M 26410M 26414M 26418M 26419M 26424M 26428M 26429M 26430M 26435M
             26443M 26465M 26469M 26498M 26511M 26511  26528  26532  26537  26538M 26541  26545M 26551M 26552  26567M
             26570M 26594M 26595M 26598M 26603M 26604M 26607M 26617M 26666M 26710  26759D 26761M 26761  26762M 26763U
             26775  26784M 26800  26806N 26809N 26830M 26845  26904M
     3(3)      970U  2102   6880   7018M  7020M  7048M  7053M  7056M  7061M  7064M  7066M  7073M  7244M  7289   7436M
1         (RECS2101) (12:53) (15MAR04) General Purpose Register Cross Reference                                             Page  207
              7497N  7615M  7665   7720M  7802   7866M  7867M  7888M  7932   7996M  7997M  8018M  8062   8126M  8127M
              8148M  8193   8257M  8258M  8279M  8324   8388M  8389M  8410M  8477   8528M  8530   8531M  8641M  8642M
              8643   8644M  8645N  8646N  8683M  8741   8799M  8801   8802M  8919M  8920M  8921   8922M  8923N  8924N
              8961M  9020   9078M  9080   9081M  9167M  9168M  9178   9221M  9222M  9223   9225M  9227   9228M  9229M
              9230N  9231N  9279M  9339   9397M  9399   9400M  9410M  9411M  9421   9455M  9456M  9457   9459M  9461
              9462M  9463M  9464N  9465N  9510M  9570   9628M  9630   9631M  9702M  9703M  9713   9758M  9759M  9760
              9762M  9764   9765M  9766M  9767N  9768N  9816M  9876   9934M  9936   9937M  9947M  9948M  9958   9992M
              9993M  9994   9996M  9998   9999M 10000M 10001N 10002N 10047M 10105  10181M 10224  10293M 10386  10437M
             10439  10440M 10539M 10540M 10550  10560M 10561M 10574  10588  10610M 10611M 10621  10655M 10656M 10657
             10658M 10659  10673M 10678N 10700N 10705N 10707M 10709  10710M 10711M 10713N 10747M 10749N 10751N 10752N
             10754M 10756  10757M 10817M 10871  10929M 10931  10932M 11114M 11204  11306M 11308  11309M 11332M 11334
             11335M 11352M 11353M 11363  11424M 11426  11427M 11496M 11497M 11500  11501M 11504M 11505M 11507  11508M
             11510M 11511M 11513  11732M 11733M 11736  11737M 11740M 11741M 11743  11744M 11746M 11747M 11749  11842M
             11931  12033M 12035  12036M 12059M 12061  12062M 12118M 12119M 12129  12154M 12156  12157M 12237M 12288N
             12349N 12400M 12495  12555M 12557  12558M 12639M 12640N 12641N 12669M 12672M 12704M 12808  12846M 12848
             12849M 12887M 12888N 12890N 12896N 12898M 12899M 12940M 12942  12943M 12974M 13015  13177M 13178M 13194
             13290M 13345  13507M 13508M 13523  13614M 13665  13768M 13771M 13773  13806M 13807M 13837  13843  13850M
             13851N 13897M 13947  14038M 14040M 14070M 14073  14074M 14112M 14162  14253M 14258M 14288M 14291  14292M
             14383M 14384N 14424M 14508  14847M 14849  14850M 14985M 15020N 15071M 15074  15075M 15100M 15103  15104M
             15109M 15110M 15111M 15112  15113M 15115M 15116M 15117M 15118  15122M 15160M 15163  15164M 15170M 15290M
             15340  15547M 15549  15550M 15703M 15713M 15715M 15718M 15719N 15797M 15869  15981M 15984  15985M 15987M
             15990  15991M 16023M 16025  16026M 16212M 16261  16309M 16310N 16361M 16363  16364M 16490M 16592  16648M
             16650  16651M 16693M 16698M 16719M 16720M 16730  16794M 16847  16896M 16898  16899M 16969M 16970M 16980
             17066M 17133  17185M 17224  17293M 17330  17468M 17544  17620M 17625M 17628M 17630M 17641M 17659  17673M
             17693  17732M 17782  17902M 17907M 17976M 18041  18080M 18085M 18134M 18192  18231M 18233M 18282M 18319
             18369M 18374M 18376M 18378M 18413M 18456  18506M 18511M 18514M 18516M 18551M 18593  18643M 18648M 18650M
             18652M 18690M 18771  18816  18827M 18827  18846M 18846N 18852  18865M 18865  18885M 18885  18891  18917M
             18963  19002M 19003M 19004M 19038  19134  19226M 19297  19365M 19368M 19451M 19454M 19457M 19460M 19462M
             19465M 19515M 19582  19649M 19650M 19651M 19652M 19655  19657  19659M 19662M 19665M 19721M 19777  19816M
             19817M 19818M 19919  20016  20108M 20203  20263M 20286M 20286  20359  20363M 20364M 20380  20450  20528
             20586  20633  20706M 20800  20856  20861M 20884M 20884  20957  20961M 20962M 20978  21048  21120  21159
             21161N 21163N 21168  21277  21283  21804M 21918  21967  22587M 22677  22726  22755  22791M 22791  23830M
             23888  23946M 23948  23949M 23976M 23977M 23987  24030M 24031M 24032  24034M 24036  24037M 24073M 24157
             24346M 24349M 24351  24395M 24398M 24400  24523M 24565N 24627N 24712M 24752  24932M 24962  25132M 25219
             25257M 25269  25300M 25328  25362M 25390  25461M 25547  25678M 25683M 25685M 25687M 25689M 25834M 25836
             25837M 25853M 25869M 25871  25872M 25895M 25913  25931N 25967N 25982N 25985M 25986M 25996  26002M 26015M
             26155M 26231  26278  26402M 26404  26405M 26411M 26413  26414M 26420M 26423  26424M 26431M 26434  26435M
             26462M 26464  26465M 26480M 26498N 26499N 26545N 26546N 26568M 26570M 26593M 26594N 26596M 26596N 26598M
             26602M 26603N 26605M 26605N 26607M 26618M 26666M 26710  26785M 26786M 26786N 26800  26845  26904M
     4(4)      966U  2102   6880   7020M  7053M  7061M  7066M  7074M  7244M  7289   7434M  7435M  7491   7499M  7524M
              7615M  7665   7720M  7802   7828M  7867M  7888M  7932   7958M  7997M  8018M  8062   8088M  8127M  8148M
              8193   8219M  8258M  8279M  8324   8350M  8389M  8410M  8477   8529M  8531M  8683M  8741   8800M  8802M
              8961M  9020   9079M  9081M  9226M  9228M  9279M  9339   9398M  9400M  9460M  9462M  9510M  9570   9629M
              9631M  9763M  9765M  9816M  9876   9935M  9937M  9997M  9999M 10047M 10105  10181M 10224  10293M 10386
             10438M 10440M 10537M 10538M 10538N 10550  10574  10621  10678M 10679M 10679N 10680M 10681M 10691  10697M
             10698M 10699  10700  10708M 10710M 10744M 10745M 10746  10749  10755M 10757M 10817M 10871  10930M 10932M
             11114M 11204  11307M 11309M 11333M 11335M 11425M 11427M 11498M 11499M 11501M 11506M 11508M 11734M 11735M
             11737M 11742M 11744M 11842M 11931  12034M 12036M 12060M 12062M 12155M 12157M 12241M 12241  12287M 12287N
             12348M 12348N 12359  12400M 12495  12556M 12558M 12670M 12672M 12704M 12808  12847M 12849M 12865M 12866M
             12894M 12897  12941M 12943M 12974M 13015  13179M 13180M 13206  13290M 13345  13509M 13510M 13559  13614M
             13665  13897M 13947  14040M 14071M 14072M 14074M 14112M 14162  14258M 14289M 14290M 14292M 14424M 14508
             14848M 14850M 15020M 15021M 15021N 15022M 15023M 15024  15072M 15073M 15075M 15101M 15102M 15104M 15107M
             15108M 15111  15113M 15114M 15116  15123M 15124M 15161M 15162M 15164M 15171M 15172M 15290M 15340  15548M
             15550M 15704M 15705M 15715M 15797M 15869  15982M 15983M 15985M 15988M 15989M 15991M 16024M 16026M 16212M
             16261  16362M 16364M 16490M 16592  16649M 16651M 16698M 16794M 16847  16897M 16899M 17066M 17133  17185M
             17224  17293M 17330  17369  17468M 17544  17625M 17630M 17648M 17659  17682M 17693  17732M 17782  17907M
             17976M 18041  18085M 18134M 18192  18233M 18282M 18319  18374M 18378M 18413M 18456  18511M 18516M 18551M
             18593  18648M 18652M 18690M 18771  18817  18917M 18963  19005M 19021  19027M 19119M 19145M 19145  19151M
             19226M 19297  19366M 19368M 19452M 19454M 19458M 19460M 19463M 19465M 19515M 19582  19653M 19654M 19657
1         (RECS2101) (12:53) (15MAR04) General Purpose Register Cross Reference                                             Page  208
             19659M 19662M 19664M 19665M 19721M 19777  19819M 19902  19908M 20001M 20027M 20027  20033M 20108M 20203
             20264M 20275M 20275  20322  20365M 20366M 20482M 20483M 20484  20485M 20486  20595M 20596M 20597  20598M
             20599  20600M 20602  20706M 20800  20862M 20873M 20873  20920  20963M 20964M 21061M 21062M 21072  21151M
             21152M 21153  21154M 21157M 21165M 21166M 21167  21168M 21169M 21170  21171M 21172  21173M 21181U 21191U
             21276M 21281M 21282M 21288M 21295M 21296M 21297  21298M 21301M 21309M 21310M 21311  21312M 21313M 21314
             21315M 21316  21317M 21325U 21335U 21404M 21405M 21405N 21406M 21407M 21421  21427M 21428M 21431M 21432M
             21433  21449M 21450M 21451  21452M 21455M 21456M 21457  21458M 21459  21464M 21465M 21466  21467M 21468
             21533M 21534M 21534N 21535M 21536M 21550  21556M 21557M 21560M 21561M 21562  21578M 21579M 21580  21581M
             21584M 21585M 21586  21587M 21588  21593M 21594M 21595  21596M 21597  21679M 21715M 21765  21804M 21918
             22362M 22398M 22410M 22425  22458M 22496  22502  22505  22511M 22523M 22539  22587M 22677  23492M 23493M
             23679M 23680M 23830M 23888  23947M 23949M 24035M 24037M 24073M 24157  24383M 24467  24473M 24510  24516M
             24559  24567M 24586M 24629M 24648M 24712M 24752  24932M 24962  25132M 25219  25301M 25302M 25316  25322
             25328M 25363M 25364M 25378  25384  25390M 25461M 25547  25683M 25687M 25690M 25835M 25837M 25854M 25855M
             25870M 25872M 25891M 25892M 25907  25913  25931  25967  25982  25984  25985  26007M 26015M 26016M 26155M
             26231  26279  26403M 26405M 26412M 26414M 26421M 26422M 26424M 26432M 26433M 26435M 26463M 26465M 26499M
             26522M 26522  26536M 26537M 26538  26539M 26540M 26541  26546M 26547  26551  26570M 26598M 26607M 26619M
             26620M 26666M 26710  26787M 26787  26806M 26807M 26808  26809M 26810M 26811M 26820M 26820  26829  26830
             26865  26904M
     5(5)      962U  2102   6880   7019M  7019   7020M  7052M  7052   7053M  7060M  7060   7061M  7065M  7066M  7244M
              7289   7615M  7665   7720M  7802   7829M  7854   7860   7867M  7888M  7932   7959M  7984   7990   7997M
              8018M  8062   8089M  8114   8120   8127M  8148M  8193   8220M  8245   8251   8258M  8279M  8324   8351M
              8376   8382   8389M  8410M  8477   8530M  8531M  8683M  8741   8801M  8802M  8961M  9020   9080M  9081M
              9227M  9228M  9279M  9339   9399M  9400M  9461M  9462M  9510M  9570   9630M  9631M  9764M  9765M  9816M
              9876   9936M  9937M  9998M  9999M 10047M 10105  10181M 10224  10293M 10386  10439M 10440M 10709M 10710M
             10748M 10749  10751  10752  10756M 10757M 10817M 10871  10931M 10932M 11114M 11204  11308M 11309M 11334M
             11335M 11426M 11427M 11500M 11501M 11507M 11508M 11736M 11737M 11743M 11744M 11842M 11931  12035M 12036M
             12061M 12062M 12156M 12157M 12245M 12245  12288M 12349M 12358  12400M 12495  12557M 12558M 12671M 12672M
             12704M 12808  12848M 12849M 12867M 12895M 12896  12924  12942M 12943M 12974M 13015  13217M 13220M 13222
             13290M 13345  13511M 13514M 13516  13547M 13550M 13552  13614M 13665  13897M 13947  14039M 14040M 14073M
             14074M 14112M 14162  14257M 14257  14258M 14291M 14292M 14424M 14508  14849M 14850M 15074M 15075M 15103M
             15104M 15112M 15113M 15163M 15164M 15290M 15340  15549M 15550M 15714M 15714  15715M 15797M 15869  15984M
             15985M 15990M 15991M 16025M 16026M 16212M 16261  16363M 16364M 16490M 16592  16650M 16651M 16697M 16697
             16698M 16794M 16847  16898M 16899M 17066M 17133  17185M 17224  17293M 17330  17369M 17439M 17439  17453
             17468M 17544  17624M 17624  17625M 17629M 17630M 17632M 17702M 17702  17712  17732M 17782  17906M 17906
             17907M 17976M 18041  18084M 18084  18085M 18134M 18192  18232M 18233M 18282M 18319  18373M 18373  18374M
             18377M 18378M 18413M 18456  18510M 18510  18511M 18515M 18516M 18551M 18593  18647M 18647  18648M 18651M
             18652M 18690M 18771  18917M 18963  19006M 19007M 19061  19153  19226M 19297  19367M 19368M 19453M 19454M
             19459M 19460M 19464M 19465M 19515M 19582  19655M 19657  19659M 19662M 19665M 19721M 19777  19821M 19822M
             19824M 19851  19858M 19864M 19876  19883M 19943  20035  20108M 20203  20601M 20602N 20706M 20800  21059M
             21060M 21060N 21072  21147M 21148M 21148N 21149M 21150M 21152  21157M 21160M 21161  21162M 21163  21277M
             21278M 21280  21281M 21283M 21284M 21287  21288M 21291M 21292M 21292N 21293M 21294M 21296  21301M 21304M
             21305  21306M 21307  21408M 21409M 21409N 21410M 21411M 21421  21431M 21450  21455M 21537M 21538M 21538N
             21539M 21540M 21550  21560M 21579  21584M 21804M 21918  22587M 22677  23473M 23492M 23493M 23498M 23510
             23516M 23517M 23517N 23528  23549M 23549  23569  23591  23660M 23679M 23680M 23685M 23697  23703M 23704M
             23704N 23715  23718  23724  23727  23777  23830M 23888  23948M 23949M 24036M 24037M 24073M 24157  24436M
             24437M 24447  24453  24467  24473  24478M 24479M 24480M 24490  24496  24510  24516  24521M 24522M 24568M
             24587M 24621  24630M 24649M 24712M 24752  24932M 24962  25132M 25219  25303M 25304M 25316  25365M 25366M
             25378  25461M 25547  25682M 25682  25683M 25686M 25687M 25691M 25836M 25837M 25871M 25872M 25893M 25894M
             25907  25913  25996  26008M 26015M 26155M 26231  26280  26404M 26405M 26413M 26414M 26423M 26424M 26434M
             26435M 26464M 26465M 26569M 26569  26570M 26597M 26597  26598M 26606M 26607M 26666M 26710  26788M 26788
             26808M 26829M 26904M
     6(6)      958U  2102   6880   6932U  6934M  7244M  7262U  7289   7331U  7333M  7344M  7344   7615M  7630U  7665
              7698U  7700M  7720M  7731U  7802   7888M  7932   8018M  8062   8148M  8193   8279M  8324   8410M  8477
              8522U  8524M  8683M  8701U  8741   8793U  8795M  8961M  8979U  9020   9072U  9074M  9279M  9298U  9339
              9391U  9393M  9510M  9529U  9570   9622U  9624M  9816M  9835U  9876   9928U  9930M 10047M 10066U 10105
             10138U 10140M 10181M 10224  10252M 10293M 10386  10433M 10817M 10836U 10871  10923U 10925M 11114M 11133U
             11204  11256U 11258M 11842M 11861U 11931  11983U 11985M 12400M 12419U 12495  12547U 12549M 12704M 12722U
             12808  12868M 12869M 12896  12901M 12974M 13015  13057U 13059M 13290M 13309U 13345  13387U 13389M 13614M
             13633U 13665  13707U 13709M 13897M 13915U 13947  13999U 14001M 14112M 14130U 14162  14214U 14216M 14424M
1         (RECS2101) (12:53) (15MAR04) General Purpose Register Cross Reference                                             Page  209
             14442U 14508  14551U 14553M 15290M 15301U 15340  15373U 15375M 15797M 15808U 15869  15921U 15923M 16212M
             16230U 16261  16303U 16305M 16490M 16508U 16592  16644U 16646M 16794M 16847  16894M 17066M 17084U 17133
             17166U 17168M 17185M 17224  17252M 17293M 17330  17367M 17468M 17486U 17544  17596U 17598M 17732M 17750U
             17782  17825U 17827M 17841  17898M 17976M 17987U 18041  18134M 18192  18282M 18319  18362U 18364M 18413M
             18424U 18456  18499U 18501M 18551M 18562U 18593  18636U 18638M 18690M 18701U 18771  18804U 18806M 18917M
             18928U 18963  18996U 18998M 19226M 19237U 19297  19341U 19343M 19515M 19526U 19582  19625U 19628M 19721M
             19732U 19777  19810U 19812M 20108M 20119U 20203  20255U 20257M 20706M 20725U 20800  20852U 20854M 21804M
             21822U 21918  21961U 21963M 22587M 22598U 22677  22720U 22722M 23830M 23841U 23888  23940U 23942M 24073M
             24091U 24157  24209U 24211M 24712M 24752  24932M 24962  25132M 25219  25256M 25419M 25419  25461M 25472U
             25547  25873M 25888U 25892  25894  25913  25983N 25986N 26007N 26015M 26016N 26032U 26052U 26054M 26063M
             26063  26090U 26155M 26231  26571M 26595  26604  26666M 26710  26904M
     7(7)      954U  2095M  2095   2096B  2102   2108B  6880   6886M  6898U  7236U  7244M  7289   7294M  7306U  7607U
              7615M  7665   7670M  7682U  7712U  7720M  7802   7807M  7819U  7880U  7888M  7932   7937M  7949U  8010U
              8018M  8062   8067M  8079U  8140U  8148M  8193   8198M  8210U  8271U  8279M  8324   8329M  8341U  8402U
              8410M  8477   8483M  8495U  8675U  8683M  8741   8747M  8759U  8953U  8961M  9020   9026M  9038U  9271U
              9279M  9339   9345M  9357U  9502U  9510M  9570   9576M  9588U  9808U  9816M  9876   9882M  9894U 10039U
             10047M 10105  10110M 10122U 10173U 10181M 10224  10229M 10241U 10285U 10293M 10386  10392M 10404U 10809U
             10817M 10871  10877M 10889U 11106U 11114M 11204  11210M 11222U 11834U 11842M 11931  11937M 11949U 12392U
             12400M 12495  12501M 12513U 12696U 12704M 12808  12814M 12826U 12966U 12974M 13015  13020M 13032U 13282U
             13290M 13345  13350M 13362U 13606U 13614M 13665  13670M 13682U 13889U 13897M 13947  13953M 13965U 14104U
             14112M 14162  14168M 14180U 14416U 14424M 14508  14514M 14526U 15282U 15290M 15340  15345M 15357U 15789U
             15797M 15869  15875M 15887U 16204U 16212M 16261  16266M 16278U 16482U 16490M 16592  16598M 16610U 16786U
             16794M 16847  16853M 16865U 17058U 17066M 17133  17138M 17150U 17177U 17185M 17224  17229M 17241U 17285U
             17293M 17330  17335M 17347U 17460U 17468M 17544  17550M 17562U 17724U 17732M 17782  17788M 17800U 17968U
             17976M 18041  18047M 18059U 18126U 18134M 18192  18198M 18210U 18274U 18282M 18319  18325M 18337U 18405U
             18413M 18456  18462M 18474U 18543U 18551M 18593  18599M 18611U 18682U 18690M 18771  18776M 18788U 18909U
             18917M 18963  18968M 18980U 19218U 19226M 19297  19303M 19315U 19507U 19515M 19582  19588M 19600U 19713U
             19721M 19777  19782M 19794U 20100U 20108M 20203  20209M 20221U 20698U 20706M 20800  20806M 20818U 21796U
             21804M 21918  21924M 21936U 22579U 22587M 22677  22683M 22695U 23822U 23830M 23888  23894M 23906U 24065U
             24073M 24157  24163M 24175U 24704U 24712M 24752  24757M 24769U 24924U 24932M 24962  24967M 24979U 25124U
             25132M 25219  25224M 25236U 25453U 25461M 25547  25553M 25565U 26147U 26155M 26231  26237M 26249U 26658U
             26666M 26710  26715M 26727U 26896U 26904M
     8(8)      950U  2102   6880   6882M  6912U  7231U  7240   7244M  7289   7290M  7611   7615M  7665   7666M  7705
              7716   7720M  7802   7803M  7873N  7884   7888M  7932   7933M  8003N  8014   8018M  8062   8063M  8133N
              8144   8148M  8193   8194M  8264N  8275   8279M  8324   8325M  8395N  8406   8410M  8477   8479M  8509U
              8663   8670U  8679   8683M  8741   8743M  8773U  8941   8948U  8957   8961M  9020   9022M  9052U  9259
              9266U  9275   9279M  9339   9341M  9371U  9490   9497U  9506   9510M  9570   9572M  9602U  9796   9803U
              9812   9816M  9876   9878M  9908U 10027  10034U 10043  10047M 10105  10106M 10166  10177  10181M 10224
             10225M 10278  10289  10293M 10386  10388M 10418U 10804U 10813  10817M 10871  10873M 10903U 11101U 11110
             11114M 11204  11206M 11236U 11829U 11838  11842M 11931  11933M 11963U 12380N 12387U 12396  12400M 12495
             12497M 12527U 12691U 12700  12704M 12808  12810M 12840U 12961U 12970  12974M 13015  13016M 13275  13286
             13290M 13345  13346M 13610  13614M 13665  13666M 13893  13897M 13947  13949M 13979U 14099U 14108  14112M
             14162  14164M 14194U 14411U 14420  14424M 14508  14510M 14540U 15277U 15286  15290M 15340  15341M 15793
             15797M 15869  15871M 15901U 16199U 16208  16212M 16261  16262M 16486  16490M 16592  16594M 16624U 16774
             16781U 16790  16794M 16847  16849M 16879U 17046  17053U 17062  17066M 17133  17134M 17181  17185M 17224
             17225M 17289  17293M 17330  17331M 17464  17468M 17544  17546M 17576U 17719U 17728  17732M 17782  17784M
             17814U 17963U 17972  17976M 18041  18043M 18073U 18114N 18121U 18130  18134M 18192  18194M 18224U 18262N
             18269U 18278  18282M 18319  18321M 18351U 18400U 18409  18413M 18456  18458M 18488U 18538U 18547  18551M
             18593  18595M 18625U 18677U 18686  18690M 18771  18772M 18913  18917M 18963  18964M 19211  19222  19226M
             19297  19299M 19329U 19495N 19502U 19511  19515M 19582  19584M 19614U 19701N 19708U 19717  19721M 19777
             19778M 20093  20104  20108M 20203  20205M 20235U 20686  20693U 20702  20706M 20800  20802M 20832U 21784N
             21791U 21800  21804M 21918  21920M 21950U 22567N 22574U 22583  22587M 22677  22679M 22709U 23810N 23817U
             23826  23830M 23888  23890M 23920U 24060U 24069  24073M 24157  24159M 24189U 24699U 24708  24712M 24752
             24753M 24928  24932M 24962  24963M 25128  25132M 25219  25220M 25457  25461M 25547  25549M 25579U 26142U
             26151  26155M 26231  26233M 26263U 26653U 26662  26666M 26710  26711M 26900  26904M
     9(9)      946U  2102   6923U  7017   7038   7047   7055   7063   7255U  7322U  7433   7435   7466M  7467   7468M
              7560M  7561   7562M  8607   8642   8647   8694U  8784U  8885   8920   8925   8972U  9063U  9145   9168
              9191   9222   9232   9291U  9382U  9411   9456   9466   9522U  9613U  9695   9703   9726   9759   9769
              9828U  9919U  9948   9993  10003  10059U 10429U 10646  10656  10706  10753  10760  10766  10829U 10914U
1         (RECS2101) (12:53) (15MAR04) General Purpose Register Cross Reference                                             Page  210
             11010  11017  11126U 11247U 11346  11353  11376  11381  11395  11417  11499  11503  11735  11739  11854U
             11974U 12076  12098  12112  12119  12142  12147  12206  12236  12318  12320  12330  12412U 12538U 12614
             12642  12715U 12847  12859U 12862  12864  12889  12912U 12939  13048U 13178  13180  13182  13302U 13378U
             13508  13510  13626U 13698U 13763  13805  13807  13908U 13990U 14037  14072  14123U 14205U 14252  14290
             14334  14360  14435U 14563U 14597U 14611N 14696M 14697  14698M 14823M 14824  14825M 14848  14975U 14978
             14980  15051  15058U 15156U 15159  15162  15193U 15204U 15225  15249  15265U 15406M 15407  15408M 15533M
             15534  15535M 15548  15564N 15640U 15668  15711  15736U 15767M 15768  15769M 15912U 15983  15989  16022
             16083  16107  16223U 16294U 16308  16316U 16357U 16360  16411M 16412  16413M 16459M 16460  16461M 16501U
             16635U 16712  16720  16759  16805U 16890U 16946  16970  17009  17077U 17363U 17479U 17587U 17667  17676
             17743U 20246U 20360  20364  20366  20481  20483  20594  20596  20718U 20843U 20958  20962  20964  21154
             21169  21298  21313  21428  21452  21465  21557  21581  21594  21815U 22298U 22330U 22504  23392U 23424U
             23726  23931U 23977  24000  24031  24084U 24200U 24307M 24308  24309M 24324U 24539U 24589  24592  24603
             24651  24723U 25252U 25275M 25302  25304  25364  25366  25443M 25443  25651M 25774  25812  25814  25870
             25879U 25975M 26041U 26130M 26130  26166U 26275U 26364  26401  26410  26419  26422  26429  26433  26440
             26442  26477  26479  26573  26575  26677U
    10(A)      942U  2102   7466   7467M  7468   7498   7499   7523   7524   7525N  7560   7561M  7562  14609U 14664U
             14696  14697M 14698  14717U 14792U 14823  14824M 14825  14844U 14846  14909U 15068U 15073  15085U 15096U
             15099  15102  15106  15108  15110  15145U 15406  15407M 15408  15427U 15502U 15533  15534M 15535  15546
             15561U 15628U 15717N 15767  15768M 15769  16325U 16348U 16362  16411  16412M 16413  16459  16460M 16461
             24307  24308M 24309  24333U 24340  24389  24437  24479  24522  24530U 24566  24567  24568  24585  24586
             24587  24611N 24628  24629  24630  24647  24648  24649  24654N
    11(B)      938U  1166U  2102
    12(C)      934U  1175U  2102
    13(D)      930U  2102   6877   6880   6882   6883M  6883   7240M  7244   7246   7286   7289   7290   7291M  7291
              7611M  7615   7617   7662   7665   7666   7667M  7667   7716M  7720   7722   7799   7802   7803   7804M
              7804   7884M  7888   7890   7929   7932   7933   7934M  7934   8014M  8018   8020   8059   8062   8063
              8064M  8064   8144M  8148   8150   8190   8193   8194   8195M  8195   8275M  8279   8281   8321   8324
              8325   8326M  8326   8406M  8410   8412   8474   8477   8479   8480M  8480   8679M  8683   8685   8738
              8741   8743   8744M  8744   8957M  8961   8963   9017   9020   9022   9023M  9023   9275M  9279   9281
              9336   9339   9341   9342M  9342   9506M  9510   9512   9567   9570   9572   9573M  9573   9812M  9816
              9818   9873   9876   9878   9879M  9879  10043M 10047  10049  10102  10105  10106  10107M 10107  10177M
             10181  10183  10221  10224  10225  10226M 10226  10289M 10293  10295  10383  10386  10388  10389M 10389
             10813M 10817  10819  10868  10871  10873  10874M 10874  11110M 11114  11116  11201  11204  11206  11207M
             11207  11494M 11509M 11730M 11745M 11838M 11842  11844  11928  11931  11933  11934M 11934  12396M 12400
             12402  12492  12495  12497  12498M 12498  12700M 12704  12706  12805  12808  12810  12811M 12811  12844M
             12954M 12970M 12974  12976  13012  13015  13016  13017M 13017  13286M 13290  13292  13342  13345  13346
             13347M 13347  13610M 13614  13616  13662  13665  13666  13667M 13667  13893M 13897  13899  13944  13947
             13949  13950M 13950  14108M 14112  14114  14159  14162  14164  14165M 14165  14420M 14424  14426  14505
             14508  14510  14511M 14511  15286M 15290  15292  15337  15340  15341  15342M 15342  15793M 15797  15799
             15866  15869  15871  15872M 15872  16208M 16212  16214  16258  16261  16262  16263M 16263  16486M 16490
             16492  16589  16592  16594  16595M 16595  16790M 16794  16796  16844  16847  16849  16850M 16850  17062M
             17066  17068  17130  17133  17134  17135M 17135  17181M 17185  17187  17221  17224  17225  17226M 17226
             17289M 17293  17295  17327  17330  17331  17332M 17332  17464M 17468  17470  17541  17544  17546  17547M
             17547  17728M 17732  17734  17779  17782  17784  17785M 17785  17972M 17976  17978  18038  18041  18043
             18044M 18044  18130M 18134  18136  18189  18192  18194  18195M 18195  18278M 18282  18284  18316  18319
             18321  18322M 18322  18409M 18413  18415  18453  18456  18458  18459M 18459  18547M 18551  18553  18590
             18593  18595  18596M 18596  18686M 18690  18692  18768  18771  18772  18773M 18773  18913M 18917  18919
             18960  18963  18964  18965M 18965  19222M 19226  19228  19294  19297  19299  19300M 19300  19333M 19481M
             19511M 19515  19517  19579  19582  19584  19585M 19585  19627M 19657  19658M 19658  19661M 19662  19699M
             19717M 19721  19723  19774  19777  19778  19779M 19779  20104M 20108  20110  20200  20203  20205  20206M
             20206  20702M 20706  20708  20797  20800  20802  20803M 20803  21275M 21289M 21800M 21804  21806  21915
             21918  21920  21921M 21921  22583M 22587  22589  22674  22677  22679  22680M 22680  23826M 23830  23832
             23885  23888  23890  23891M 23891  24069M 24073  24075  24154  24157  24159  24160M 24160  24708M 24712
             24714  24749  24752  24753  24754M 24754  24928M 24932  24934  24959  24962  24963  24964M 24964  25128M
             25132  25134  25216  25219  25220  25221M 25221  25457M 25461  25463  25544  25547  25549  25550M 25550
             25867M 26022M 26151M 26155  26157  26228  26231  26233  26234M 26234  26267M 26646M 26662M 26666  26668
             26707  26710  26711  26712M 26712  26900M 26904  26906
    14(E)      926U  2102   2103M  2117   2118M  2119B  2121M  2122B  2142M  2143B  2147M  2148B  2150M  2151B  2153M
              2154B  2156M  2157B  2159M  2160M  2160B  2166   6877   6970M  6971M  6971B  6989M  6990M  6990B  7008M
1         (RECS2101) (12:53) (15MAR04) General Purpose Register Cross Reference                                             Page  211
              7009M  7009B  7077M  7078M  7078B  7153M  7154M  7154B  7174M  7175M  7175B  7183M  7184M  7184B  7189M
              7190M  7190B  7214M  7215M  7215B  7246M  7249B  7286   7375M  7376M  7376B  7409M  7410M  7410B  7506M
              7507M  7507B  7521M  7522M  7522B  7583M  7584M  7584B  7617M  7620B  7662   7722M  7725B  7799   7832M
              7833M  7833B  7890M  7893B  7929   7962M  7963M  7963B  8020M  8023B  8059   8092M  8093M  8093B  8150M
              8153B  8190   8223M  8224M  8224B  8281M  8284B  8321   8354M  8355M  8355B  8412M  8415B  8474   8602M
              8603M  8603B  8611M  8612M  8612B  8685M  8688B  8738   8859M  8860M  8860B  8876M  8877M  8877B  8889M
              8890M  8890B  8963M  8966B  9017   9141M  9142M  9142B  9149M  9150M  9150B  9187M  9188M  9188B  9281M
              9284B  9336   9406M  9407M  9407B  9483M  9484M  9484B  9512M  9515B  9567   9691M  9692M  9692B  9699M
              9700M  9700B  9722M  9723M  9723B  9818M  9821B  9873   9943M  9944M  9944B 10020M 10021M 10021B 10049M
             10052B 10102  10143M 10144M 10144B 10159M 10160M 10160B 10183M 10186B 10221  10255M 10256M 10256B 10271M
             10272M 10272B 10295M 10298B 10383  10512M 10513M 10513B 10529M 10530M 10530B 10558M 10559M 10559B 10597M
             10598M 10598B 10604M 10605M 10605B 10608M 10609M 10609B 10650M 10651M 10651B 10717M 10718M 10718B 10764M
             10765M 10765B 10771M 10772M 10772B 10819M 10822B 10868  10983M 10984M 10984B 11000M 11001M 11001B 11014M
             11015M 11015B 11022M 11023M 11023B 11045M 11046M 11046B 11116M 11119B 11201  11342M 11343M 11343B 11350M
             11351M 11351B 11372M 11373M 11373B 11391M 11392M 11392B 11399M 11400M 11400B 11538M 11539M 11539B 11561M
             11562M 11562B 11599M 11600M 11600B 11624M 11625M 11625B 11641M 11642M 11642B 11676M 11677M 11677B 11705M
             11706M 11706B 11720M 11721M 11721B 11774M 11775M 11775B 11797M 11798M 11798B 11844M 11847B 11928  12072M
             12073M 12073B 12080M 12081M 12081B 12108M 12109M 12109B 12116M 12117M 12117B 12138M 12139M 12139B 12298M
             12299M 12299B 12402M 12405B 12492  12608M 12609M 12609B 12618M 12619M 12619B 12676M 12677M 12677B 12706M
             12709B 12805  12888M 12889M 12899M 12935M 12936M 12936B 12947M 12948M 12948B 12976M 12979B 13012  13107M
             13108M 13108B 13292M 13295B 13342  13437M 13438M 13438B 13616M 13619B 13662  13718M 13719M 13719B 13766M
             13767M 13767B 13856M 13857M 13857B 13865M 13866M 13866B 13899M 13902B 13944  14079M 14080M 14080B 14114M
             14117B 14159  14300M 14301M 14301B 14338M 14339M 14339B 14391M 14392M 14392B 14426M 14429B 14505  14586M
             14587M 14587B 14618M 14619M 14619B 14651M 14652M 14652B 14740M 14741M 14741B 14760M 14761M 14761B 14780M
             14781M 14781B 14872M 14873M 14873B 14893M 14894M 14894B 14902M 14903M 14903B 15127M 15128M 15128B 15132M
             15133M 15133B 15138M 15139M 15139B 15175M 15176M 15176B 15180M 15181M 15181B 15186M 15187M 15187B 15213M
             15214M 15214B 15229M 15230M 15230B 15254M 15255M 15255B 15292M 15295B 15337  15450M 15451M 15451B 15470M
             15471M 15471B 15490M 15491M 15491B 15569M 15570M 15570B 15591M 15592M 15592B 15612M 15613M 15613B 15621M
             15622M 15622B 15708M 15709M 15709B 15723M 15724M 15724B 15729M 15730M 15730B 15799M 15802B 15866  15997M
             15998M 15998B 16030M 16031M 16031B 16036M 16037M 16037B 16047M 16048M 16048B 16087M 16088M 16088B 16112M
             16113M 16113B 16135M 16136M 16136B 16152M 16153M 16153B 16167M 16168M 16168B 16178M 16179M 16179B 16214M
             16217B 16258  16333M 16334M 16334B 16377M 16378M 16378B 16428M 16429M 16429B 16492M 16495B 16589  16708M
             16709M 16709B 16716M 16717M 16717B 16739M 16740M 16740B 16796M 16799B 16844  16942M 16943M 16943B 16950M
             16951M 16951B 16989M 16990M 16990B 17068M 17071B 17130  17187M 17190B 17221  17295M 17298B 17327  17397M
             17398M 17398B 17470M 17473B 17541  17639M 17640M 17640B 17646M 17647M 17647B 17671M 17672M 17672B 17680M
             17681M 17681B 17734M 17737B 17779  17913M 17914M 17914B 17978M 17981B 18038  18093M 18094M 18094B 18136M
             18139B 18189  18241M 18242M 18242B 18284M 18287B 18316  18386M 18387M 18387B 18415M 18418B 18453  18524M
             18525M 18525B 18553M 18556B 18590  18663M 18664M 18664B 18692M 18695B 18768  18919M 18922B 18960  19228M
             19231B 19294  19349M 19350M 19350B 19517M 19520B 19579  19633M 19634M 19634B 19723M 19726B 19774  20110M
             20113B 20200  20329M 20330M 20330B 20677M 20678M 20678B 20708M 20711B 20797  20927M 20928M 20928B 21196M
             21197M 21197B 21279M 21281M 21285M 21286M 21288M 21340M 21341M 21341B 21429M 21431M 21453M 21455M 21472M
             21473M 21473B 21558M 21560M 21582M 21584M 21601M 21602M 21602B 21646M 21647M 21647B 21725M 21726M 21726B
             21806M 21809B 21915  22001M 22002M 22002B 22009M 22010M 22010B 22033M 22034M 22034B 22041M 22042M 22042B
             22360M 22361M 22361B 22403M 22404M 22404B 22456M 22457M 22457B 22499M 22500M 22500B 22509M 22510M 22510B
             22516M 22517M 22517B 22531M 22532M 22532B 22536M 22537M 22537B 22589M 22592B 22674  22727M 22737  22755
             22764M 22764  22774  22840M 22841M 22841B 22848M 22849M 22849B 22872M 22873M 22873B 22880M 22881M 22881B
             23436M 23437M 23437B 23533M 23534M 23534B 23623M 23624M 23624B 23721M 23722M 23722B 23731M 23732M 23732B
             23737M 23738M 23738B 23751M 23752M 23752B 23756M 23757M 23757B 23832M 23835B 23885  23955M 23956M 23956B
             23996M 23997M 23997B 24075M 24078B 24154  24226M 24227M 24227B 24344M 24345M 24345B 24393M 24394M 24394B
             24575M 24576M 24576B 24588M 24589M 24594M 24598M 24599M 24599B 24600M 24605M 24609M 24610M 24610B 24637M
             24638M 24638B 24650M 24651M 24656M 24660M 24661M 24661B 24676M 24677M 24677B 24682M 24683M 24683B 24714M
             24717B 24749  24912M 24913M 24913B 24934M 24937B 24959  25112M 25113M 25113B 25134M 25137B 25216  25263M
             25264M 25264B 25272M 25273M 25273B 25281M 25282M 25282B 25325M 25326M 25326B 25343M 25344M 25344B 25387M
             25388M 25388B 25463M 25466B 25544  25614M 25615M 25615B 25625M 25626M 25626B 25646M 25647M 25647B 25694M
             25695M 25695B 25858M 25859M 25859B 25938M 25939M 25939B 25949M 25950M 25950B 25970M 25971M 25971B 26011M
             26012M 26012B 26157M 26160B 26228  26623M 26624M 26624B 26668M 26671B 26707  26906M 26909B
    15(F)      922U  2102   6934   7224M  7224   7248M  7248   7333   7438   7439M  7449U  7475U  7477M  7532   7533M
              7543U  7569U  7571M  7600M  7600   7619M  7619   7700   7703M  7724M  7724   7892M  7892   8022M  8022
              8152M  8152   8283M  8283   8414M  8414   8524   8526   8581M  8598M  8624M  8652M  8652   8687M  8687
1         (RECS2101) (12:53) (15MAR04) General Purpose Register Cross Reference                                             Page  212
              8795   8797   8838M  8855M  8872M  8902M  8930M  8930   8965M  8965   9074   9076   9137M  9184M  9237M
              9237   9253M  9283M  9283   9393   9395   9402M  9471M  9471   9479M  9514M  9514   9624   9626   9687M
              9719M  9774M  9774   9790M  9820M  9820   9930   9932   9939M 10008M 10008  10016M 10051M 10051  10140
             10156M 10185M 10185  10252  10268M 10297M 10297  10433  10508M 10525M 10594M 10600M 10722M 10722  10776M
             10776  10788M 10793M 10821M 10821  10925  10927  10979M 10996M 11042M 11082M 11082  11090M 11118M 11118
             11258  11259M 11310  11338M 11369M 11387M 11558M 11596M 11621M 11702M 11794M 11810M 11810  11818M 11846M
             11846  11985  11986M 12037  12068M 12104M 12135M 12295M 12359M 12374M 12374  12404M 12404  12549  12596M
             12604M 12631M 12660M 12681M 12681  12708M 12708  12890M 12891M 12891N 12892M 12893M 12894  12895  12898
             12899M 12953M 12953  12978M 12978  13059  13257M 13257  13269M 13294M 13294  13389  13587M 13587  13595M
             13618M 13618  13709  13882M 13882  13901M 13901  14001  14020M 14052M 14075M 14084M 14084  14116M 14116
             14216  14235M 14270M 14396M 14396  14428M 14428  14553  14583M 14653M 14668  14669M 14679U 14705U 14707M
             14795  14796M 14806U 14832U 14834M 15259M 15259  15294M 15294  15375  15378  15379M 15389U 15415U 15417M
             15505  15506M 15516U 15542U 15544M 15739  15740M 15750U 15776U 15778M 15782M 15782  15801M 15801  15923
             15994M 16132M 16192M 16192  16216M 16216  16305  16383  16384M 16394U 16420U 16422M 16431  16432M 16442U
             16468U 16470M 16475M 16475  16494M 16494  16646  16670M 16704M 16736M 16752M 16769M 16769  16798M 16798
             16894  16931M 16938M 16986M 17002M 17030M 17041M 17041  17070M 17070  17168  17169M 17189M 17189  17252
             17255D 17257M 17257  17258M 17259U 17297M 17297  17367  17453M 17472M 17472  17598  17635M 17642M 17712M
             17736M 17736  17827  17880M 17880  17898  17909M 17926M 17945M 17945  17980M 17980  18138M 18138  18286M
             18286  18364  18380M 18393M 18393  18417M 18417  18501  18518M 18531M 18531  18555M 18555  18638  18654M
             18670M 18670  18694M 18694  18921M 18921  19120M 19180M 19230M 19230  19369M 19369  19406M 19469M 19469
             19519M 19519  19673M 19673  19691M 19725M 19725  20002M 20062M 20112M 20112  20257  20258  20490M 20490
             20542M 20606M 20606  20674M 20710M 20710  20854  20855  21202M 21202  21280M 21281M 21287M 21288M 21346M
             21346  21430M 21431M 21454M 21455M 21477M 21477  21559M 21560M 21583M 21584M 21606M 21606  21643M 21722M
             21735M 21735  21741M 21754M 21754  21760M 21775M 21808M 21808  21963  21997M 22005M 22029M 22037M 22356M
             22390M 22390  22399M 22452M 22486M 22486  22512M 22526M 22543M 22543  22551M 22556M 22561M 22591M 22591
             22722  22836M 22844M 22868M 22876M 23432M 23465M 23465  23529M 23619M 23652M 23652  23733M 23746M 23781M
             23781  23789M 23794M 23799M 23804M 23834M 23834  23942  23944  23951M 23993M 24041M 24041  24049M 24077M
             24077  24211  24279  24280M 24290U 24316U 24318M 24590M 24593  24594M 24601M 24604  24605M 24652M 24655
             24656M 24692M 24692  24716M 24716  24936M 24936  25136M 25136  25256  25268M 25403M 25403  25465M 25465
             25588  25617M 25642M 25649M 25722M 25726M 25730M 25734M 25738M 25756M 25766M 25771M 25777M 25782M 25787M
             25795M 25799M 25803M 25807M 25839M 25862M 25941M 25966M 25973M 26096M 26096  26159M 26159  26300M 26322M
             26330M 26334M 26338M 26342M 26346M 26351M 26356M 26361M 26370M 26375M 26380M 26385M 26389M 26393M 26398M
             26407M 26416M 26426M 26437M 26467M 26530M 26534M 26543M 26549M 26554M 26600M 26627M 26632M 26632  26670M
             26670  26877M 26877  26885M 26908M 26908

1RECS     (RECS2101) (12:53) (15MAR04) Diagnostic Cross Reference and Assembler Summary                                     Page  213
-                                                                                            HLASM R4.0  2004/03/15 12.53
0     No Statements Flagged in this Assembly
 HIGH LEVEL ASSEMBLER, 5696-234, RELEASE 4.0, PTF P72483
0SYSTEM: OS/390 02.10.00            JOBNAME: WYL#RECS    STEPNAME: ASM        PROCSTEP: (NOPROC)
0Datasets Allocated for this Assembly
  Con DDname   Dataset Name                                 Volume  Member
   P1 SYSIN    WYL.GS.WYL.WYLBUR.SOURCE                     SYSB05  RECS
   L1 SYSLIB   WYL.GS.WYL.WYLBUR.MACLIB                     SYSB05
   L2          WYL.GG.SYS.MACLIB                            SYSB05
   L3          SYS3.IS.MACLIB                               SYSB05
   L4          SYS3.MACLIB                                  SYSB02
   L5          SYS1.MACLIB                                  MVSBR9
   L6          SYS1.MODGEN                                  MVSBR9
      SYSPRINT SYS04075.T125308.RA000.WYL#RECS.PRINT.H01    SCR100
      SYSTERM  GG$SLP.WYL#RECS.JOB03558.D0000101.?

    3668K allocated to Buffer Pool,         3229K would be required for this to be an In-Storage Assembly
    5679 Primary Input Records Read         6269 Library Records Read                  0 Work File Reads
       0 ASMAOPT Records Read              15107 Primary Print Records Written         0 Work File Writes
       0 Punch Records Written                 0 ADATA Records Written
0Assembly Start Time: 12.53.10 Stop Time: 12.53.29 Processor Time: 00.00.04.7690
 Return Code 000
