1                        J E S 2  J O B  L O G  --  S Y S T E M  S Y S B  --  N O D E  R L G
0
 12.55.18 JOB03564 ---- MONDAY,    15 MAR 2004 ----
 12.55.18 JOB03564  ICH70001I GG$SLP   LAST ACCESS AT 12:54:44 ON MONDAY, MARCH 15, 2004
 12.55.18 JOB03564  $HASP373 WYL#SPEL STARTED - INIT 9    - CLASS B - SYS SYSB
 12.55.18 JOB03564  ***  HCMD      STEP $$QUIET
 12.55.18 JOB03564  PUR * Q OUT MUL
 12.55.18 JOB03564  JOB 5426 WYL#SPEL WILL BE PURGED
 12.55.19 JOB03564  WYL#SPEL.$$QUIET .         RC=Zero TapeIO=0000 DiskIO=0000 CPU=  .01s Elapsed=18.67s
 12.55.40 JOB03564  WYL#SPEL.ASM     .         RC=Zero TapeIO=0000 DiskIO=0683 CPU= 3.63s Elapsed=19.82s
 12.55.43 JOB03564  WYL#SPEL.EDIT    .         RC=Zero TapeIO=0000 DiskIO=0211 CPU=  .72s Elapsed=40.25s
 12.55.43 JOB03564  WYL#SPEL Ended.  Name=Assemble SPELL                 Total CPU= 4.36s Elapsed=18.67s
 12.55.43 JOB03564
 12.55.43 JOB03564  Execution charges   Priority=Standard   Block=Day
 12.55.43 JOB03564
 12.55.43 JOB03564  CPU Usage          80.25          $49.75   Standard Processing Unit Equivalent
 12.55.43 JOB03564                                   =======
 12.55.43 JOB03564                                    $49.75   Total Job execution charge
 12.55.43 JOB03564
 12.55.43 JOB03564  See back separator page for print charges
 12.55.43 JOB03564
 12.55.44 JOB03564  $HASP395 WYL#SPEL ENDED  ASM=0, EDIT=0
1        1 //WYL#SPEL JOB SLP$GG,'Assemble SPELL',TIME=4,REGION=4M                 JOB03564
           //*
           /*JOBPARM LINES=99,COPIES=1
           /*JOBPARM FORMS=3HOL,PFORMAT=LAND,CHARS=BD13,DUPLEX=YES,FLASH=BAR4
           //*
           /*JOBPARM NOTIFY=GG.SLP,HOLD=OUTPUT                                     WYLGEN
         2 //$$QUIET EXEC PGM=HCMDX,PARM='PUR * Q OUT MUL'
           //*
         3 //ASM    EXEC PGM=ASMA90,REGION=8M,
           //            PARM=('NORENT,TERM,FLAG(NOCONT),US(MAP,WARN(10)),NODECK',
           //            'LC(32767),XREF(SHORT),ESD,DXREF,NOOBJECT')
         4 //STEPLIB DD DSN=SYS3.IS.TESTASM,DISP=SHR
         5 //SYSLIB   DD  DSN=WYL.GS.WYL.WYLBUR.MACLIB,DISP=SHR
         6 //         DD  DSN=WYL.GG.SYS.MACLIB,DISP=SHR
         7 //         DD  DSN=SYS3.IS.MACLIB,DISP=SHR
         8 //         DD  DSN=SYS3.MACLIB,DISP=SHR
         9 //         DD  DSN=SYS1.MACLIB,DISP=SHR
        10 //         DD  DSN=SYS1.MODGEN,DISP=SHR
        11 //SYSUT1   DD DSN=&&SYSUT1,UNIT=VIO,DISP=(,DELETE),
           //            SPACE=(4088,(500,250),,CONTIG,ROUND)
        12 //SYSTERM  DD SYSOUT=T
        13 //SYSPRINT DD DSN=&&PRINT,UNIT=SYSDA,DISP=(,PASS),
           //            SPACE=(6650,(250,250),RLSE),
           //            DCB=(BLKSIZE=6650,LRECL=133,RECFM=FB)
        14 //SYSUDUMP DD SYSOUT=A
        15 //SYSIN    DD  DSN=WYL.GS.WYL.WYLBUR.SOURCE(SPELL),DISP=SHR
           //*
        16 //EDIT    EXEC PGM=ASMEDIT,TIME=2,REGION=4000K,
           //             PARM='STMT'
        17 //STEPLIB  DD  DSN=WYL.GG.SYS.LINKLIB,DISP=SHR
        18 //ASMOUT   DD  DSN=&PRINT,DISP=(OLD,DELETE)
        19 //SYSPRINT DD  SYSOUT=A
1 STMT NO. MESSAGE
 -
        11 IGD01010I STORCLAS= TEMP STORGROUP =
        11 IGD01010I STORGRP=VIO ASSIGNED.
        13 IGD01010I STORCLAS= TEMP STORGROUP =
        13 IGD01010I STORGRP=VIO ASSIGNED.
 ICH70001I GG$SLP   LAST ACCESS AT 12:54:44 ON MONDAY, MARCH 15, 2004
 IEF142I WYL#SPEL $$QUIET - STEP WAS EXECUTED - COND CODE 0000
 *********************************************************************************
 *   WYL#SPEL/$$QUIET /                    Return Code      Zero                 *
 *   Region used      260K (16K user + 244K system)                              *
 *   Extended region  9464K (4K user + 9460K system)                             *
 *                                                                               *
 *   Paging              In      Out                                             *
 *   Private <-> Aux      0        0       CPU time (TCB)   00:00:00.01          *
 *   Private <-> Exp      0        0       CPU time (SRB)   00:00:00.00          *
 *   VIO                  0        0       Elapsed time    917:32:34.29          *
 *   Common               0      ---                                             *
 *                                                                               *
 *                                                                               *
 *   CPU Usage          0.18         $0.11  Standard Processing Unit Equivalent  *
 *                                   $0.11  Total Step execution charge          *
 *                                                                               *
 *    I/O count  DDname   Type Addr           I/O count  DDname   Type Addr      *
 *                         *** No I/O for this step ***                          *
 *********************************************************************************
 IEF373I STEP/$$QUIET /START 2004075.1255
 IEF374I STEP/$$QUIET /STOP  2004075.1255 CPU    0MIN 00.01SEC SRB    0MIN 00.00SEC VIRT    16K SYS   244K EXT       4K SYS    9460K
 IEF236I ALLOC. FOR WYL#SPEL ASM
 IEF237I 04DC ALLOCATED TO STEPLIB
 IEF237I 04DC ALLOCATED TO SYSLIB
 IEF237I 04DC ALLOCATED TO
 IEF237I 04DC ALLOCATED TO
 IEF237I 0402 ALLOCATED TO
 IEF237I 04A0 ALLOCATED TO
 IEF237I 04A0 ALLOCATED TO
 IGD101I SMS ALLOCATED TO DDNAME (SYSUT1  )
         DSN (SYS04075.T125518.RA000.WYL#SPEL.SYSUT1.H01  )
         STORCLAS (TEMP) MGMTCLAS (        ) DATACLAS (        )
         VOL SER NOS= VIO
 IEF237I JES2 ALLOCATED TO SYSTERM
 IGD101I SMS ALLOCATED TO DDNAME (SYSPRINT)
         DSN (SYS04075.T125518.RA000.WYL#SPEL.PRINT.H01   )
         STORCLAS (TEMP) MGMTCLAS (        ) DATACLAS (        )
         VOL SER NOS= SCR101
 IEF237I JES2 ALLOCATED TO SYSUDUMP
 IEF237I 04DC ALLOCATED TO SYSIN
 IEF142I WYL#SPEL ASM - STEP WAS EXECUTED - COND CODE 0000
 IEF285I   SYS3.IS.TESTASM                              KEPT
 IEF285I   VOL SER NOS= SYSB05.
 IEF285I   WYL.GS.WYL.WYLBUR.MACLIB                     KEPT
 IEF285I   VOL SER NOS= SYSB05.
 IEF285I   WYL.GG.SYS.MACLIB                            KEPT
 IEF285I   VOL SER NOS= SYSB05.
 IEF285I   SYS3.IS.MACLIB                               KEPT
 IEF285I   VOL SER NOS= SYSB05.
 IEF285I   SYS3.MACLIB                                  KEPT
 IEF285I   VOL SER NOS= SYSB02.
 IEF285I   SYS1.MACLIB                                  KEPT
 IEF285I   VOL SER NOS= MVSBR9.
 IEF285I   SYS1.MODGEN                                  KEPT
 IEF285I   VOL SER NOS= MVSBR9.
 IGD105I SYS04075.T125518.RA000.WYL#SPEL.SYSUT1.H01   DELETED,   DDNAME=SYSUT1
 IEF285I   GG$SLP.WYL#SPEL.JOB03564.D0000101.?          SYSOUT
 IGD106I SYS04075.T125518.RA000.WYL#SPEL.PRINT.H01    PASSED,    DDNAME=SYSPRINT
 IEF285I   GG$SLP.WYL#SPEL.JOB03564.D0000102.?          SYSOUT
 IEF285I   WYL.GS.WYL.WYLBUR.SOURCE                     KEPT
 IEF285I   VOL SER NOS= SYSB05.
 *********************************************************************************
 *   WYL#SPEL/ASM     /                    Return Code      Zero                 *
 *   Region used      4376K (4096K user + 280K system)                           *
 *   Extended region  10064K (412K user + 9652K system)                          *
 *                                                                               *
 *   Paging              In      Out                                             *
 *   Private <-> Aux      0        0       CPU time (TCB)   00:00:03.57          *
 *   Private <-> Exp      0        0       CPU time (SRB)   00:00:00.06          *
 *   VIO                  0        0       Elapsed time    917:32:33.14          *
 *   Common               0      ---                                             *
 *                                                                               *
 *                                                                               *
 *   CPU Usage         66.93        $41.49  Standard Processing Unit Equivalent  *
 *                                  $41.49  Total Step execution charge          *
 *                                                                               *
 *    I/O count  DDname   Type Addr           I/O count  DDname   Type Addr      *
 *           88  STEPLIB  Disk 04DC                 307  SYSLIB   Disk 04DC      *
 *            0  SYSLIB   Disk 04DC                   0  SYSLIB   Disk 04DC      *
 *            0  SYSLIB   Disk 0402                  68  SYSLIB   Disk 04A0      *
 *            0  SYSLIB   Disk 04A0                   0  SYSUT1   VIO  ----      *
 *            0  SYSTERM       ----                 208  SYSPRINT Disk 04E3      *
 *            0  SYSUDUMP      ----                  12  SYSIN    Disk 04DC      *
 *********************************************************************************
 IEF373I STEP/ASM     /START 2004075.1255
 IEF374I STEP/ASM     /STOP  2004075.1255 CPU    0MIN 03.57SEC SRB    0MIN 00.06SEC VIRT  4096K SYS   280K EXT     412K SYS    9652K
 IEF236I ALLOC. FOR WYL#SPEL EDIT
 IEF237I 0402 ALLOCATED TO STEPLIB
 IGD103I SMS ALLOCATED TO DDNAME ASMOUT
 IEF237I JES2 ALLOCATED TO SYSPRINT
 IEF142I WYL#SPEL EDIT - STEP WAS EXECUTED - COND CODE 0000
 IEF285I   WYL.GG.SYS.LINKLIB                           KEPT
 IEF285I   VOL SER NOS= SYSB02.
 IGD105I SYS04075.T125518.RA000.WYL#SPEL.PRINT.H01    DELETED,   DDNAME=ASMOUT
 IEF285I   GG$SLP.WYL#SPEL.JOB03564.D0000103.?          SYSOUT
 *********************************************************************************
 *   WYL#SPEL/EDIT    /                    Return Code      Zero                 *
 *   Region used      380K (116K user + 264K system)                             *
 *   Extended region  9620K (4K user + 9616K system)                             *
 *                                                                               *
 *   Paging              In      Out                                             *
 *   Private <-> Aux      0        0       CPU time (TCB)   00:00:00.70          *
 *   Private <-> Exp      0        0       CPU time (SRB)   00:00:00.02          *
 *   VIO                  0        0       Elapsed time    917:32:12.71          *
 *   Common               0      ---                                             *
 *                                                                               *
 *                                                                               *
 *   CPU Usage         13.12         $8.13  Standard Processing Unit Equivalent  *
 *                                   $8.13  Total Step execution charge          *
 *                                                                               *
 *    I/O count  DDname   Type Addr           I/O count  DDname   Type Addr      *
 *            2  STEPLIB  Disk 0402                 209  ASMOUT   Disk 04E3      *
 *            0  SYSPRINT      ----                                              *
 *********************************************************************************
 IEF373I STEP/EDIT    /START 2004075.1255
 IEF374I STEP/EDIT    /STOP  2004075.1255 CPU    0MIN 00.70SEC SRB    0MIN 00.02SEC VIRT   116K SYS   264K EXT       4K SYS    9616K
 *********************************************************************************
 *                                                                               *
 *                      S t a n f o r d   U n i v e r s i t y                    *
 *                                                                               *
 *                              *** Job Summary ***                              *
 *                                                                               *
 *   System Id      SYSB                   Input time     12:39:26  Mar 15, 2004 *
 *                                                                               *
 *   System Release SP6.1.0                Start time     12:55:18  Mar 15, 2004 *
 *                                                                               *
 *   Job name       WYL#SPEL               Stop  time     00:00:00  Mar 15, 2004 *
 *                                                                               *
 *   Account        SLP$GG                 Elapsed time  917:32:34.29            *
 *                                                                               *
 *   User Name      Assemble SPELL         CPU time       00:00:04.28            *
 *                                                                               *
 *   Job class      B                      SRB Time       00:00:00.08            *
 *                                                                               *
 *********************************************************************************
 IEF375I  JOB/WYL#SPEL/START 2004075.1255
 IEF376I  JOB/WYL#SPEL/STOP  2004075.1255 CPU    0MIN 04.28SEC SRB    0MIN 00.08SEC
1Assembler Done SPELL No Statements Flagged
1         High Level Assembler Option Summary                   (PTF P72483 )                                               Page    1
-                                                                                            HLASM R4.0  2004/03/15 12.55
0  No Overriding ASMAOPT Parameters
   Overriding Parameters-  NORENT,TERM,FLAG(NOCONT),US(MAP,WARN(10)),NODECK,LC(32767),XREF(SHORT),ESD,DXREF,NOOBJECT
   No Process Statements


   Options for this Assembly
0  NOADATA
     ALIGN
   NOASA
     BATCH
     CODEPAGE(047C)
   NOCOMPAT
   NODBCS
 3 NODECK
 3   DXREF
 3   ESD
   NOEXIT
 3   FLAG(0,ALIGN,NOCONT,NOIMPLEN,NOPAGE0,PUSH,RECORD,NOSUBSTR,USING0)
   NOFOLD
   NOGOFF
   NOINFO
     LANGUAGE(EN)
   NOLIBMAC
 3   LINECOUNT(32767)
     LIST(121)
     MXREF(SOURCE)
 3 NOOBJECT
     OPTABLE(UNI,NOLIST)
   NOPCONTROL
   NOPESTOP
   NOPROFILE
   NORA2
 3 NORENT
     RLD
     RXREF
     SIZE(MAX)
     SYSPARM()
 3   TERM(WIDE)
   NOTEST
     THREAD
   NOTRANSLATE
 3   USING(NOLIMIT,MAP,WARN(10))
 3   XREF(SHORT)

   No Overriding DD Names

1SPELL    External Symbol Dictionary                                                                                        Page    2
-Symbol   Type   Id     Address  Length     LD ID  Flags Alias-of                            HLASM R4.0  2004/03/15 12.55
0WYLSPELL  SD 00000001 00000000 00003D10             00
 SPEL2025  LD          00000000           00000001
 SETWDICT  LD          00000018           00000001
 SEGCR     ER 00000002
 SEG       ER 00000003
 EXIT0     ER 00000004
 DOFNAME   ER 00000005
 FNAMOPTS  ER 00000006
 FNAMEFIN  ER 00000007
 NDETRNG   ER 00000008
 EXTOPEN   ER 00000009
 RDRNG     ER 0000000A
 EXTCLOSE  ER 0000000B
 PRESS     ER 0000000C
 SPELL     LD          00000E52           00000001
 MTOKEN    ER 0000000D
 FNAMESCN  ER 0000000E
 FNAMPSHF  ER 0000000F
 SCNNOOP   ER 00000010
 LTNPSH    ER 00000011
 QUIETPSH  ER 00000012
 COLLPSH   ER 00000013
 MALL      ER 00000014
 DICTCLS   LD          0000160A           00000001
 SCNEXFR   ER 00000015
 MKFFINFO  ER 00000016
 NSCAN     ER 00000017
 SCANCHK   ER 00000018
 PAGEMOD   ER 00000019
 SEGDC     ER 0000001A
 PAGELINE  ER 0000001B
 RNGABORT  ER 0000001C
 SPELLINE  LD          000017B8           00000001
 LEARN     LD          000018C6           00000001
 LEARNWD   LD          00001A10           00000001
 SHOWLRN   LD          00001AF2           00000001
 SCNINVAL  ER 0000001D
 CLRLRN    LD          00001CAC           00000001
 UNLEARN   LD          00001D72           00000001
 UNLRNWD   LD          00001E7E           00000001
 XSETSET   ER 0000001E
 XPUT      ER 0000001F
 XLOCNEXT  ER 00000020
 SEGTB     ER 00000021
 XDELSET   ER 00000022
 XDELETE   ER 00000023
 GUESS     LD          0000214C           00000001
 GUESSWD   LD          000022AC           00000001
 CHECKWD   LD          00002BDC           00000001
 CHECKLRN  LD          00002E22           00000001
 XLOCATE   ER 00000024
 PFREEA    ER 00000025
 GETWD     LD          00002F4C           00000001
 GETDICT   LD          0000316C           00000001
 FREEDICT  LD          000031B2           00000001
1SPELL    External Symbol Dictionary                                                                                        Page    3

1SPELL    WYLBUR's Spelling Commands                                                                                        Page    4
0Loc    Object Code    Addr1 Addr2  Stmt Lv Lineno    Source Statement                    (Asmedit 3.3)  HLASM R4.0  2004/03/15 12.55
+___    ______ ____    _____ _____  ____ __ ______    ______ _________
0                                      2              *******************************************************************
                                       3              *                                                                 *
                                       4              *     WYLBUR/370 - Release VI - Class i - Stanford Proprietary    *
                                       5              *                                                                 *
                                       6              *******************************************************************
                                       7                       HIBAL
                                     988
 000000                00000 03D10   989              WYLSPELL CSECT
-                                    994                       REGS  FSR,,,,,,,BR,(WAR,LSR),PAR,PBR,CPR,CVR,SPR,RAR
                                    1130                       SYSDEFN ,                 Define installation params
                                    1131
                                    1132              SPEL     IDENT 2025                11:49:32 01/25/02  (SLP)
                                    1135             +
                                    1136    01-IDENT +         ENTRY SPEL2025
                                    1137             +
 000000 16E2D7C5D3F2F0F2            1138    01-IDENT +SPEL2025 DC    AL1(22),C'SPEL2025,15MAR04,12:55'
                                    1139             +*
                                    1141              *
                                    1142                       PUSH  DSECTS
 USING  CP,R11                      1202             =         USING (CP),(CV)
 USING  CV,R12
 000017                00000 03D10  1221             =         POP   PRINT
1SPELL    (SPEL2025) (12:55) (15MAR04) WYLBUR'S Spelling Commands                                                           Page    5
0Current Usings:  (CP,R11) (CV,R12)
0Loc    Object Code    Addr1 Addr2  Stmt Lv Lineno    Source Statement           (Hibal 5, Asmedit 3.3)  HLASM R4.0  2004/03/15 12.55
+___    ______ ____    _____ _____  ____ __ ______    ______ _________
0                                   6636              *
                                    6637              * LOCAL MACROS
                                    6638              *
                                    6639                       MACRO
                                    6640              &L       COMMENT
                                    6641                       MEND
                                    6642                       ¿þþþþþþþþþþþþþþþþþþþþþþþþþþþþþþþþþþþþþþþþþþþþþþþþþþþþþþþþþÜ
                                    6643                       Ÿ  TOPWORD, LIST WORD TO PUT AT HEAD OF DICTIONARY INDEX  Ÿ
                                    6644                       ¾þþþþþþþþþþþþþþþþþþþþþþþþþþþþþþþþþþþþþþþþþþþþþþþþþþþþþþþþþ»
                                    6645                       MACRO
                                    6646              &L       TOPWD &WORD
                                    6647              &L       DC    CL5'&WORD'
                                    6648                       MEND
                                    6649                        ¿þþþþþþþþþþþþþþþþþþþþþþþþþþþþþþþþþþþþþþþþþþþþþþþþþþþþþþþþþþþþþþÜ
                                    6650                        Ÿ  LPCHECK MACRO, CHECK TO SEE IF PAGE OBTAINED IS LEARN PAGE  Ÿ
                                    6651                        ¾þþþþþþþþþþþþþþþþþþþþþþþþþþþþþþþþþþþþþþþþþþþþþþþþþþþþþþþþþþþþþþ»
                                    6652                       MACRO
                                    6653              &L       LPCHECK
                                    6654              &L       CLC   LPHDR(8),=CL8'LEARN   '  IS LEARN HEADER CORRECT
                                    6655                       BE    LPCK&SYSNDX              YES, CONTINUE
                                    6656                       DC    H'0'                     NO, BOMB RIGHT HERE
                                    6657              LPCK&SYSNDX DS 0H
                                    6658                       MEND
1SPELL    (SPEL2025) (12:55) (15MAR04) SET WDICTIONARY Command                                                              Page    6
0Current Usings:  (CP,R11) (CV,R12)
0Loc    Object Code    Addr1 Addr2  Stmt Lv Lineno    Source Statement           (Hibal 5, Asmedit 3.3)  HLASM R4.0  2004/03/15 12.55
+___    ______ ____    _____ _____  ____ __ ______    ______ _________
0                                   6660              ¿þþþþþþþþþþþþþþþþþþþþþþþþþþþþþþþþþþþþþþþþþþþþþþþþþþþþþþþþþþþþþþþþþþþþþÜ
                                    6661              Ÿ                                                                     Ÿ
                                    6662              Ÿ                                                                     Ÿ
                                    6663              Ÿ  SETWDICT -- SET WDICTIONARY Command.  (Priv'd.)                    Ÿ
                                    6664              Ÿ                                                                     Ÿ
                                    6665              Ÿ                                                                     Ÿ
                                    6666              Ÿ   WE MAKE A DICTIONARY                                              Ÿ
                                    6667              Ÿ                                                                     Ÿ
                                    6668              Ÿ                                                                     Ÿ
                                    6669              Ÿ                                                                     Ÿ
                                    6670              Ÿ  Make a compressed dictionary and a index into it.                  Ÿ
                                    6671              Ÿ                                                                     Ÿ
                                    6672              Ÿ  We read in an alphabetized list of words and create an in core     Ÿ
                                    6673              Ÿ  dictionary.  The dictionary is compressed using a simple scheeme.  Ÿ
                                    6674              Ÿ  The words in the input file are in alphabetical order.  The        Ÿ
                                    6675              Ÿ  letters at the start of each word that are in common with the      Ÿ
                                    6676              Ÿ  previous word are changed to blanks.  These blanks are then        Ÿ
                                    6677              Ÿ  compressed using the wylbur edit format compression scheem.        Ÿ
                                    6678              Ÿ  Additionally, each word is preceeded by a blank that acts as       Ÿ
                                    6679              Ÿ  a word separator.  The leading blank is compressed as are the      Ÿ
                                    6680              Ÿ  other blanks in wylbur edit format fashion.  See example  !!!      Ÿ
                                    6681              Ÿ                                                                     Ÿ
                                    6682              Ÿ  Example:                                                           Ÿ
                                    6683              Ÿ                                                                     Ÿ
                                    6684              Ÿ     list:           compressed list:       sample output:           Ÿ
                                    6685              Ÿ                                                                     Ÿ
                                    6686              Ÿ       bat              bat                   x'13',c'bat'           Ÿ
                                    6687              Ÿ       batting             ting               x'44',c'ting'          Ÿ
                                    6688              Ÿ       battle               le                x'42',c'le'            Ÿ
                                    6689              Ÿ       butler            utler                x'25',c'utler'         Ÿ
                                    6690              Ÿ                                                                     Ÿ
                                    6691              Ÿ  Can you dig it !                                                   Ÿ
                                    6692              Ÿ                                                                     Ÿ
                                    6693              Ÿ                                                                     Ÿ
                                    6694              Ÿ  In addition to the dictionary, a 8192 entry index into the         Ÿ
                                    6695              Ÿ  dictionary is built.  The top (most used) two hundred words        Ÿ
                                    6696              Ÿ  are forced to be at the start of index entries.  this is a         Ÿ
                                    6697              Ÿ  random search optimization.  It is estimated that the 100 top      Ÿ
                                    6698              Ÿ  words are used about 50% of the time. hot city.                    Ÿ
                                    6699              Ÿ                                                                     Ÿ
                                    6700              Ÿ  Finally, we getmain enough core for a 120,000 word dictionary.     Ÿ
                                    6701              Ÿ  (appox 4 bytes per word entry). We freemain whatever core is       Ÿ
                                    6702              Ÿ  left over.  We set a use count byte on the dictionaries, so that   Ÿ
                                    6703              Ÿ  we may build and switch while wylbur is running.                   Ÿ
                                    6704              Ÿ                                                                     Ÿ
                                    6705              Ÿ***                                                                  Ÿ
                                                      ¾þþþþþþþþþþþþþþþþþþþþþþþþþþþþþþþþþþþþþþþþþþþþþþþþþþþþþþþþþþþþþþþþþþþþþ»
-
1SPELL    (SPEL2025) (12:55) (15MAR04) SET WDICTIONARY Command                                                              Page    7
0Current Usings:  (CP,R11) (CV,R12)
0Loc    Object Code    Addr1 Addr2  Stmt Lv Lineno    Source Statement           (Hibal 5, Asmedit 3.3)  HLASM R4.0  2004/03/15 12.55
+___    ______ ____    _____ _____  ____ __ ______    ______ _________
0                                   6707                       ¿þþþþþþþþþþþþþþþþþþþþþþþþþþþþþþþþþþþþþþþþþþþÜ
                                    6708                       Ÿ  DICTIONARY DSECT AND COMMON SPELL EQU'S  Ÿ
                                    6709                       ¾þþþþþþþþþþþþþþþþþþþþþþþþþþþþþþþþþþþþþþþþþþþ»
 000000                00000 00020  6710              DICTNRY  RECORD BEGIN ,
 000000                             6718  1           DICTHDR    DS    0F                 DICTIONARY HEADER
 000000                             6719  1           DICTADDR   DS    F                  DICT HEADR: ADDRESS OF DICT MEMORY
 000004                             6720  1           DICTLEN    DS    F                  DICT HEADR: LENGTH OF DICT MEMORY
 000008                             6721  1           DICTEND    DS    F                  DICT HEADR: END OF DICT ENTRIES
 00000C                             6722  1           DICTUCNT   DS    H                  DICT HEADR: USE COUNT HALFWORD
 00000E 00                          6723  1           DICTFLGS   FLAG  ,,                 DICT HEADR: DICTIONARY FLAGS
 DICTFLGS.DICTOLD  10 ONES          6727  1                      FLAG  DICTOLD                        OLD COPY OF DICTIONARY
 00000F 00                          6732  1           DICTXTRA   FLAG  ,                  DICT HEADR: EXTRA FLAGS
 000010                             6736  1           DICTWDCT   DS    F                  DICT HEADR: COUNT OF WORDS IN DICT
 000014                             6737  1           DICTRSVD   DS    3F                 DICT HEADR: 12 BYTES, NOT USED
                                    6738  1
                                    6739  1           DICTNDX    EQU   *                  DICTIONARY INDEX: 8192*8 ENTRIES
                                    6740  1
                                    6741  1           HDRSIZE    EQU   32                 32     BYTE DICTIONARY HEADER
                                    6742  1           NDXSIZE    EQU   8192*8             8192   ENTRY DICTIONARY INDEX
                                    6743  1           DICTSTRT   EQU   (8192*8)+20        500+K, DICTIONARY
                                    6744  1           DICTSIZE   EQU   524288+(8192*8)    512K - AMOUNT OF MEM TO GETMAIN
                                    6745  1           *                                        FOR DICTIONARY AND INDEX
                                    6746  1           *
                                    6747  1           WDTOTAL    EQU   120000             ASSUME 120,000 WORDS IN DICTNRY
                                    6748  1           NDXFACTR   EQU   (WDTOTAL/8192)-4   AVERAGE NUMBER OF WORDS PER INDEX
                                    6749  1           *$ NDXFACTR EQU (WDTOTAL/(8192-TOP#/2))-5
                                    6750  1           *
                                    6751  1           NTRY       EQU   0                  GENERIC ENTRY
                                    6752  1           NDX        EQU   0                  INDEX ENTRY: 1ST 5 LETTERS OF WORD
                                    6753  1           NLINK      EQU   4                  INDEX ENTRY: DICTIONARY POINTER
                                    6754  1           NLEN       EQU   8                  INDEX ENTRY: LENGTH OF INDEX ENTRY
                                    6755  1                      COMMENT ***              5TH LETTER OF NDX IS HOB OF NLINK
 000020                00020 00020  6756                       END
                                    6765                       ¿þþþþþþþþþþþþþþþþþþþþþþþþþþþþþþþÜ
                                    6766                       Ÿ  SET WDICTIONARY - Work Area  Ÿ
                                    6767                       ¾þþþþþþþþþþþþþþþþþþþþþþþþþþþþþþþ»
 000000                00000 000F0  6768              DTWA     RECORD BEGIN
 000000                             6776  1           DTMEMADR   DS    F                  Start of dictionary memory
 000004                             6777  1           DTMEMLEN   DS    F                  Length of dictionary memory
 000008                             6778  1           DTHDR      DS    F                  Addr of dict header (32 bytes)
 00000C                             6779  1           DTNDXADR   DS    F                  Addr of dict index (8k bytes)
 000010                             6780  1           DTNDXPTR   DS    F                  Addr of index entry
 000014                             6781  1           DTNDXEND   DS    F                  Addr of end of index list
 000018                             6782  1           DTPTR      DS    F                  Pointer into dictionary
 00001C                             6783  1           DTEND      DS    F                  Addr of end of dict (=mem end)
                                    6784  1
 000020                             6785  1           DTWORDLN   DS    F                  Word length
 000024                             6786  1           DTWORD     DS    CL64  *' '         Word to add to dictnry
 000064                             6787  1           DTPREV     DS    CL64  *' '         Previous word added to dictionary
 0000A4                             6788  1           DTBLANKS   DS    CL64  *' '         Some blanks
                                    6789  1
 0000E4                             6790  1           DTWORDCT   DS    F                  Words in dictnry
 0000E8                             6791  1           DTTOPPTR   DS    F                  Pointer in to top (most used) words
                                    6792  1
1SPELL    (SPEL2025) (12:55) (15MAR04) SET WDICTIONARY Command                                                              Page    8
0Current Usings:  (CP,R11) (CV,R12)
0Loc    Object Code    Addr1 Addr2  Stmt Lv Lineno    Source Statement           (Hibal 5, Asmedit 3.3)  HLASM R4.0  2004/03/15 12.55
+___    ______ ____    _____ _____  ____ __ ______    ______ _________
00000EC                             6793  1           DTNEXTDX   DS    F                  Number of next index
 0000F0                000F0 000F0  6794                       END
1SPELL    (SPEL2025) (12:55) (15MAR04) SET WDICTIONARY Command                                                              Page    9
0Current Usings:  (CP,R11) (CV,R12)
0Loc    Object Code    Addr1 Addr2  Stmt Lv Lineno    Source Statement           (Hibal 5, Asmedit 3.3)  HLASM R4.0  2004/03/15 12.55
+___    ______ ____    _____ _____  ____ __ ______    ______ _________
0                                   6804              ¿þþþþþþþþþþþþþþþþþþþþþþþþþþþþþþþþþþþþþþþþþþþþþþþþþþþþþþþþþþþþþþþþþþþþþÜ
                                    6805              Ÿ                                                                     Ÿ
                                    6806              Ÿ  SETWDICT -- SET WDICTIONARY Command.  (Priv'd.)                    Ÿ
                                    6807              Ÿ                                                                     Ÿ
                                    6808              Ÿ    Note:  This routine is also called after a successful save       Ÿ
                                    6809              Ÿ           of "WORDS ACCOUNT GS.WYL".                                Ÿ
                                    6810              Ÿ                                                                     Ÿ
                                                      ¾þþþþþþþþþþþþþþþþþþþþþþþþþþþþþþþþþþþþþþþþþþþþþþþþþþþþþþþþþþþþþþþþþþþþþ»
0000018 50E0 D000/9008_      00000  6811              SETWDICT XPROC DTWA
 USING  *,R7
 USING  DTWA-(4+36),R8
 000032 D7EF 8028 8028 00000 00000  6862                       CLEAR DTWA
 000038 4160 8028            00000  6869                       LA    R6,DTWA
 00003C 5060 BCA4            00CA4  6870                       ST    R6,CPCWA
 USING  DTWA,R6                     6871                       USING DTWA,R6
 000040 5810 7C7E            00CB0  6880                       L     R1,=A(BLANKS)
 000044 D23F 60A4 1000 000A4 00000  6881                       MVC   DTBLANKS(64),0(R1)
 00004A D23F 6024 1000 00024 00000  6882                       MVC   DTWORD(64),0(R1)
 000050 D23F 6064 1000 00064 00000  6883                       MVC   DTPREV(64),0(R1)
 000056 D203 60E8 7C82 000E8 00CB4  6884                       MVC   DTTOPPTR(4),=A(TOPHITS)
                                    6885
 00005C 95E6 BD24/4780_00D24        6886                       IF    (CPCMNM,NE,'W'),BEGIN  entered after SAVE...
 000064 D603 B05C B05C_0005C 0005C  6903  1                      TCCR  ,
 000084 4110 7D40/4100_      00D72  6965  1                      TSEG  'Type SET WDICT to reload spelling dictionary.'
 000096 47F0 C7DE            007DE  6983  1                      B     CVNEXT
                                    6984  1           *        COMMENT                   we do not reload, that is uug
                                    6985  1           *        VCALL INITCMD             Initialize
 00009A                             6986                       END
                                    6990
 00009A 9120 B3BE/47E0_003BE        6991                       IF    ~CPSFSPR,CVNVALID   Sorry pal
                                    7009
 0000A2 4100 0004            00004  7010                       LA    R0,SDSNWORD
 0000A6 58E0 7C8E/0DEE       00CC0  7011                       VCALL EXIT0               LOCAL exit - Format system dsname
 0000AC 58E0 B08C/501E_      0008C  7015                       SCINIT (R1),(R0)
 0000BA 58E0 7C92/0DEE       00CC4  7035                       VCALL DOFNAME
 0000C0 58E0 7C96/0DEE       00CC8  7039                       VCALL FNAMOPTS
 0000C6 58E0 7C9A/0DEE       00CCC  7043                       VCALL FNAMEFIN
                                    7047
 0000CC 9610 BD50      00D50        7048                       SET   CPLFLG1.CPFALL
 0000D0 9203 BD89      00D89        7055                       SET   CPFRDEXT
 0000D4 58E0 7C9E/0DEE       00CD0  7061                       VCALL NDETRNG
                                    7065
 0000DA 5810 7CA2            00CD4  7066                       L     R1,=AL4(DICTSIZE)  Getmain 512k for dictionary
 0000DE 5010 6004            00004  7067                       ST    R1,DTMEMLEN
 0000E2 1801                        7068                       LR    R0,R1              R0 - MEMORY SIZE
 0000E4 4510 70B6/0A0A       000E8  7069                       GETMAIN R,LV=(0)
 0000EA 5010 6000            00000  7073                       ST    R1,DTMEMADR
                                    7074              *$       GETMAIN TYPE=R DOES NOT ALLOW FOR CONDITIONAL,,, NOT SO HOT
                                    7075              *$       ABORT 'Not enough memory to create spell dictionary.'
                                    7076              *
                                    7077              *                                 Set dictionary addresses
 0000EE 5810 6000            00000  7078                       L     R1,DTMEMADR             r1 - start of dictionary
 0000F2 5010 6008            00008  7079                       ST    R1,DTHDR                32 bytes dictionary header
1SPELL    (SPEL2025) (12:55) (15MAR04) SET WDICTIONARY Command                                                              Page   10
0Current Usings:  (DTWA,R6) (*,R7) (DTWA-(4+36),R8) (CP,R11) (CV,R12)
0Loc    Object Code    Addr1 Addr2  Stmt Lv Lineno    Source Statement           (Hibal 5, Asmedit 3.3)  HLASM R4.0  2004/03/15 12.55
+___    ______ ____    _____ _____  ____ __ ______    ______ _________
00000F6 D71F 1000 1000 00000 00000  7080                       XC    0(HDRSIZE,R1),0(R1)        zero header
 0000FC 4111 0020            00020  7081                       LA    R1,HDRSIZE(R1)          8k dictionary index
 000100 5010 600C            0000C  7082                       ST    R1,DTNDXADR
 000104 5010 6010            00010  7083                       ST    R1,DTNDXPTR
 000108 5A10 7CA6            00CD8  7084                       A     R1,=AL4(NDXSIZE)        500k dictionary
 00010C 5010 6014            00014  7085                       ST    R1,DTNDXEND
 000110 5010 6018            00018  7086                       ST    R1,DTPTR
 000114 5810 6000            00000  7087                       L     R1,DTMEMADR
 000118 5A10 6004            00004  7088                       A     R1,DTMEMLEN             r1 - end of memory
 00011C 5010 601C            0001C  7089                       ST    R1,DTEND                   end of dictionary
                                    7090              *
                                    7091              *                                 Set up first index pointer
 000120 5810 6010            00010  7092                       L     R1,DTNDXPTR
 000124 5820 6018            00018  7093                       L     R2,DTPTR
 000128 D203 1000 7CAA 00000 00CDC  7094                       MVC   NDX(4,R1),=F'0'    First index is zeros,
 00012E 5021 0004            00004  7095                       ST    R2,NLINK(R1)       First link is start of dictnry
 000132 4111 0008            00008  7096                       LA    R1,NLEN(R1)        Bump index pointer
 000136 5010 6010            00010  7097                       ST    R1,DTNDXPTR
 00013A 5810 60E4            000E4  7098                       L     R1,DTWORDCT        Set word number for next index
 00013E 5A10 7CAE            00CE0  7099                       A     R1,=AL4(NDXFACTR)
 000142 5010 60EC            000EC  7100                       ST    R1,DTNEXTDX
0                                   7102              **
                                    7103              **       Open file and set up to input dictionary file
                                    7104              **
 000146 58E0 7CB2/0DEE       00CE4  7105                       VCALL EXTOPEN             Open the file
 00014C 12FF/4770 C7DE              7109                       IF    (R15,NZ),CVNEXT
 000152 D603 B05C B05C_0005C 0005C  7126                       TCCR
                                    7188
 000172 5800 7CB6/5810_      00CE8  7189                       RDRNG DICTLOOP,(DESRTRN+LXCATRTN+UNPRST)
                                    7196
 000180 58E0 7CC2/0DEE       00CF4  7197                       VCALL EXTCLOSE            All done
0                                   7202              **
                                    7203              **  Now do post-processing.
                                    7204              **
                                    7205              **  Dictionary entries complete, we set up dictionary header,
                                    7206              **  fix up extra indexes, free extra memory, and mark old dictionary
                                    7207              **  as old.
                                    7208              **
                                    7209              *
                                    7210              *                                 IF ANY PROBLEMS, ABORT COMMAND
 000186 D503 60E4 7CAA 000E4 00CDC  7211                       CLC   DTWORDCT(4),=F'0'  IF NO WORDS,,,
                                    7212                       COMMENT HEY              ARE THERE ANY OTHERS ???
 00018C 4780 7250            00282  7213                       BE    SETWERR
                                    7214              *                                 MARK END OF DICTIONARY
                                    7215              *
 000190 5810 6018            00018  7216                       L     R1,DTPTR           R1 - PLACE FOR NEXT DICTNRY WORD
 000194 4111 0010            00010  7217                       LA    R1,16(R1)
 000198 5910 601C/4750_      0001C  7218                       IF    (R1,GE,DTEND),BEGIN  IF NO ROOM FOR FINAL ENTRIES
 0001A0 4110 7D6D/4100_      00D9F  7235  1                      TSEG  'Spelling dictionary overflow.',,CR
 0001B2 47F0 7250            00282  7253  1                      B     SETWERR
 0001B6                             7254                       END
 0001B6 5810 6018            00018  7258                       L     R1,DTPTR           R1 - PLACE FOR NEXT DICTNRY WORD
1SPELL    (SPEL2025) (12:55) (15MAR04) SET WDICTIONARY Command                                                              Page   11
0Current Usings:  (DTWA,R6) (*,R7) (DTWA-(4+36),R8) (CP,R11) (CV,R12)
0Loc    Object Code    Addr1 Addr2  Stmt Lv Lineno    Source Statement           (Hibal 5, Asmedit 3.3)  HLASM R4.0  2004/03/15 12.55
+___    ______ ____    _____ _____  ____ __ ______    ______ _________
00001BA D207 1000 7C3E 00000 00C70  7259                       MVC   0(8,R1),=X'17FFFFFFFFFFFFFF'  MARK END OF DICTIONARY
 0001C0 D207 1008 7C3E 00008 00C70  7260                       MVC   8(8,R1),=X'17FFFFFFFFFFFFFF'
 0001C6 4111 0010            00010  7261                       LA    R1,16(R1)
 0001CA 5010 6018            00018  7262                       ST    R1,DTPTR
                                    7263              *                                 SET UP DICTIONARY HEADER
                                    7264              *
 0001CE 5810 6000            00000  7265                       L     R1,DTMEMADR        R1 - START OF DICTIONARY MEMORY
 USING  DICTNRY,R1                  7266                       USING DICTNRY,R1
 0001D2 5820 6018            00018  7275                       L     R2,DTPTR           R2 - END OF DICTIONARY MEMORY
 0001D6 1832                        7276                       LR    R3,R2              R3 - LENGTH OF DICTIONARY MEMORY
 0001D8 1B31                        7277                       SR    R3,R1                   ROUNDED OFF TO DOUBLE WORDS
 0001DA 4133 0007            00007  7278                       LA    R3,7(R3)
 0001DE 8830 0003            00003  7279                       SRL   R3,3
 0001E2 8930 0003            00003  7280                       SLL   R3,3
 0001E6 5010 1000            00000  7281                       ST    R1,DICTADDR        SAVE START OF DICTIONAY MEMORY
 0001EA 5020 1008            00008  7282                       ST    R2,DICTEND         SAVE END OF DICTIONARY ENTRIES
 0001EE 5030 1004            00004  7283                       ST    R3,DICTLEN         SAVE LENGTH OF DICTIONARY MEMORY
 0001F2 1B00                        7284                       SR    R0,R0              ZERO DICTIONARY USER COUNT AND
 0001F4 4000 100C            0000C  7285                       STH   R0,DICTUCNT          AND FLAGS
 0001F8 4000 100E            0000E  7286                       STH   R0,DICTFLGS
 0001FC D203 1010 60E4 00010 000E4  7287                       MVC   DICTWDCT(4),DTWORDCT     SAVE TOTAL WORD COUNT
                                    7288              *
                                    7289              *                                 FIX UP REMAININD DICTIONARY INDEXES
 000202 5820 6010            00010  7290                       L     R2,DTNDXPTR        R2 - REMAINING INDEXES
 000206 5830 6014            00014  7291                       L     R3,DTNDXEND        R3 - END OF REMINAING INDEXES
 00020A 1842                        7292                       LR    R4,R2              R4 - LAST INDEX SET
 00020C 5B40 7CC6            00CF8  7293                       S     R4,=F'8'
 000210 1923/47B0 71F2              7294                       WHILE (R2,LT,R3),BEGIN   RIPPLE MOVE LAST INDEX TO ALL
 000216 D207 2000 4000 00000 00000  7311  1                      MVC   NDX(8,R2),NDX(R4)     REMAINING INDEXES
 00021C 4122 0008            00008  7312  1                      LA    R2,8(R2)
 000220 47F0 71DE            00210  7313                       END
                                    7318              *
                                    7319              *                                 FREE MEMORY NOT NEEDED,,,
 000224 5820 1004            00004  7320                       L     R2,DICTLEN         R2 - LENGTH OF DICTIONARY MEMORY
 000228 4132 1000            00000  7321                       LA    R3,0(R2,R1)        R3 - START OF EXTRA MEMORY
 00022C 5840 7CA2            00CD4  7322                       L     R4,=AL4(DICTSIZE)  R4 - LENGTH OF EXTRA MEMORY
 000230 1B42                        7323                       SR    R4,R2
 DROP   DICTNRY,R1                  7324                       DROP  R1
 000232 1813                        7331                       LR    R1,R3              R1,R0 - ADDR, LEN OF EXTRA MEMORY
 000234 1804                        7332                       LR    R0,R4
 000236 D203 1000 7CCA 00000 00CFC  7333                       MVC   0(4,R1),=C'FREE'
 00023C 5001 0004            00004  7334                       ST    R0,4(R1)
 000240 4110 1000/0A0A       00000  7335                       FREEMAIN R,LV=(0),A=(1)
                                    7339              *
                                    7340              *                                 MARK OLD DICTIONARY AS OLD
 000246 5810 C600            00600  7341                       L     R1,CVDICPTR        GET OLD DICTIONARY ADDRESS
 00024A 5910 7CCE/4780_      00D00  7342                       IF    (R1,NE,0),BEGIN    IF OLD DICTIONARY, WE DO IT TO IT
 USING  DICTNRY,R1                  7359  1                      USING DICTNRY,R1
 000252 9610 100E      0000E        7368  1                      SET   DICTOLD            MARK DICTIONARY AS OLD
 000256 4800 100C            0000C  7374  1                      LH    R0,DICTUCNT        GET USER COUNT FOR OLD DICTNRY
 00025A 5900 7CCE/4770_      00D00  7375  1                      IF    (R0,EQ,0),BEGIN    IF ZERO, WE FREE UP OLD DICTNRY
 000262 5800 1004            00004  7392  2                        L     R0,DICTLEN            R1,R0 - DICTNRY MEMORY ADDR, LEN
 DROP   DICTNRY,R1                  7393  2                        DROP  R1
 000266 D203 1000 7CCA 00000 00CFC  7400  2                        MVC   0(4,R1),=C'FREE'
1SPELL    (SPEL2025) (12:55) (15MAR04) SET WDICTIONARY Command                                                              Page   12
0Current Usings:  (DTWA,R6) (*,R7) (DTWA-(4+36),R8) (CP,R11) (CV,R12)
0Loc    Object Code    Addr1 Addr2  Stmt Lv Lineno    Source Statement           (Hibal 5, Asmedit 3.3)  HLASM R4.0  2004/03/15 12.55
+___    ______ ____    _____ _____  ____ __ ______    ______ _________
000026C 5001 0004            00004  7401  2                        ST    R0,4(R1)
 000270 4110 1000/0A0A       00000  7402  2                        FREEMAIN R,LV=(0),A=(1)
 000276                             7406  1                      END
 000276                             7410                       END
 000276 5810 6000            00000  7414                       L     R1,DTMEMADR        R1 - NEW DICTIONARY MEMORY ADDRESS
 00027A 5010 C600            00600  7415                       ST    R1,CVDICPTR             SAVE NEW DICTIONARY POINTER
 00027E 47F0 7274            002A6  7416                       B     SETWEXIT           EXIT
-                                   7418              *        COMMAND BOMBED, RETURN MEMORY AND EXIT
                                    7419              *
 000282                             7420              SETWERR  LABEL ,
 000282 5810 6000            00000  7422                       L     R1,DTMEMADR        R1 - LOC, LEN OF MEMORY
 000286 5800 6004            00004  7423                       L     R0,DTMEMLEN
 00028A D203 1000 7CCA 00000 00CFC  7424                       MVC   0(4,R1),=C'FREE'
 000290 5001 0004            00004  7425                       ST    R0,4(R1)
 000294 4110 1000/0A0A       00000  7426                       FREEMAIN R,LV=(0),A=(1) ,
 00029A 4110 7CF2/4100_      00D24  7430                       ABORT 'Dictionary not loaded.'
-                                   7438                       ¿þþþþþþþþþþþþþþþþþþþþþþþþÜ
                                    7439                       Ÿ  EXIT SET WDICTIONARY  Ÿ
                                    7440                       ¾þþþþþþþþþþþþþþþþþþþþþþþþ»
 0002A6                             7441              SETWEXIT LABEL ,                  SET WDICTIONARY COMMAND PROCESSED
 0002A6 47F0 C7DE            007DE  7443                       B     CVNEXT             WE EXIT
 0002AA 18D8/9808 D004_             7444                       PEND  ,
 DROP   DTWA-(4+36),R8
 DROP   *,R7
 DROP   DTWA,R6                     7469                       DROP  R6
1SPELL    (SPEL2025) (12:55) (15MAR04) SET WDICTIONARY Command                                                              Page   13
0Current Usings:  (CP,R11) (CV,R12)
0Loc    Object Code    Addr1 Addr2  Stmt Lv Lineno    Source Statement           (Hibal 5, Asmedit 3.3)  HLASM R4.0  2004/03/15 12.55
+___    ______ ____    _____ _____  ____ __ ______    ______ _________
0                                   7477              ¿þþþþþþþþþþþþþþþþþþþþþþþþþþþþþþþþþþþþþþþþþþþþþþþþþþþþþþþþþþþþþþþþþþþþþÜ
                                    7478              Ÿ                                                                     Ÿ
                                    7479              Ÿ  DICTLOOP -- Co-routine to process lines from the WORDS file.       Ÿ
                                    7480              Ÿ                                                                     Ÿ
                                    7481              Ÿ    On entry:                                                        Ÿ
                                    7482              Ÿ      R1,R0 - line loc, len                                          Ÿ
                                    7483              Ÿ                                                                     Ÿ
                                                      ¾þþþþþþþþþþþþþþþþþþþþþþþþþþþþþþþþþþþþþþþþþþþþþþþþþþþþþþþþþþþþþþþþþþþþþ»
00002B8 50E0 D000/9008_      00000  7484              DICTLOOP PROC  ,
 USING  *,R7
 0002D2 5860 BCA4            00CA4  7523                       L     R6,CPCWA
 USING  DTWA,R6                     7524                       USING DTWA,R6
                                    7533
 0002D6 58E0 7A32/0DEE       00D04  7534                       ACALL SCANTOKN           SCAN FOR NEXT DICTNRY TOKEN (WORD)
 0002DC 58E0 7A36/0DEE       00D08  7538                       ACALL CHKTOKEN           CHECK TOKEN (WORD) FOR VALIDITY
 0002E2 12FF/4770 702E              7542                       IF    (R15,Z),BEGIN      IF TOKEN OK ,,,
 0002E8 58E0 7A3A/0DEE       00D0C  7556  1                      ACALL ADDNDX             CREATE INDEX IF NEEDED
 0002EE 58E0 7A3E/0DEE       00D10  7560  1                      ACALL ADDTOKEN           ADD TOKEN (WORD) TO DICTIONARY
 0002F4 5810 60E4            000E4  7564  1                      L     R1,DTWORDCT
 0002F8 4111 0001            00001  7565  1                      LA    R1,1(R1)           BUMP WORD COUNT
 0002FC 5010 60E4            000E4  7566  1                      ST    R1,DTWORDCT
 000300                             7567                       END
 000300 18D8/9808 D004_             7571                       PEND  ,
 DROP   *,R7
1SPELL    (SPEL2025) (12:55) (15MAR04) SET WDICTIONARY Command                                                              Page   14
0Current Usings:  (DTWA,R6) (CP,R11) (CV,R12)
0Loc    Object Code    Addr1 Addr2  Stmt Lv Lineno    Source Statement           (Hibal 5, Asmedit 3.3)  HLASM R4.0  2004/03/15 12.55
+___    ______ ____    _____ _____  ____ __ ______    ______ _________
0                                   7592              ¿þþþþþþþþþþþþþþþþþþþþþþþþþþþþþþþþþþþþþþþþþþþþþþþþþþþþþþþþþþþþþþþþþþþþþÜ
                                    7593              Ÿ                                                                     Ÿ
                                    7594              Ÿ                                                                     Ÿ
                                    7595              Ÿ  SCAN FIRST WORD ON LINE                                            Ÿ
                                    7596              Ÿ                                                                     Ÿ
                                    7597              Ÿ   R1,R0 - line loc, len                                             Ÿ
                                    7598              Ÿ                                                                     Ÿ
                                    7599              Ÿ   ON EXIT, DTWORD CONTAINS THIS WORD,, DTPREV CONTAINS              Ÿ
                                    7600              Ÿ       FORMER WORD.                                                  Ÿ
                                    7601              Ÿ                                                                     Ÿ
                                    7602              Ÿ   NOTE: WYLBUR SCANNER MAY NOT BE USED AS WE MUST BE ABLE TO        Ÿ
                                    7603              Ÿ         SCAN WEIRD PUCTUATION WITHIN WORDS, (E.G. BOB'S)            Ÿ
                                    7604              Ÿ                                                                     Ÿ
                                    7605              Ÿ                                                                     Ÿ
                                                      ¾þþþþþþþþþþþþþþþþþþþþþþþþþþþþþþþþþþþþþþþþþþþþþþþþþþþþþþþþþþþþþþþþþþþþþ»
000030E 50E0 D000/9008_      00000  7606              SCANTOKN PROC  ,                  SCAN WORD FROM LINE
 USING  *,R7
                                    7645              *$ ADD LRTRIM CALL TO PRUNE OFF BLANKS !!!
 000328 D23F 6064 6024 00064 00024  7646                       MVC   DTPREV(64),DTWORD
 00032E D23F 6024 60A4 00024 000A4  7647                       MVC   DTWORD(64),DTBLANKS
 000334 1821                        7648                       LR    R2,R1              R2,R3 - ADDR, END OF INPUT LINE
 000336 1830                        7649                       LR    R3,R0
 000338 5930 79EC/47D0_      00D14  7650                       CEIL  R3,64
 000344 0630/1233/4740_             7669                       MOVE  R3,DTWORD,@R2      MOVE WORD INTO DTWORD
 000350 5000 6020            00020  7707                       ST    R0,DTWORDLN
 000354 5810 79F0            00D18  7708                       L     R1,=AL4(LOWERTAB)
 000358 DC3F 6024 1000 00024 00000  7709                       TR    DTWORD(64),0(R1)   CHANGE WORD TO LOWER CASE
 00035E 18D8/9808 D004_             7710                       PEND  ,
 DROP   *,R7
1SPELL    (SPEL2025) (12:55) (15MAR04) SET WDICTIONARY Command                                                              Page   15
0Current Usings:  (DTWA,R6) (CP,R11) (CV,R12)
0Loc    Object Code    Addr1 Addr2  Stmt Lv Lineno    Source Statement           (Hibal 5, Asmedit 3.3)  HLASM R4.0  2004/03/15 12.55
+___    ______ ____    _____ _____  ____ __ ______    ______ _________
0                                   7731              ¿þþþþþþþþþþþþþþþþþþþþþþþþþþþþþþþþþþþþþþþþþþþþþþþþþþþþþþþþþþþþþþþþþþþþþÜ
                                    7732              Ÿ                                                                     Ÿ
                                    7733              Ÿ                                                                     Ÿ
                                    7734              Ÿ  CHECK FOR VALID DICTIONARY INPUT                                   Ÿ
                                    7735              Ÿ                                                                     Ÿ
                                    7736              Ÿ  R15 - RETURN CODE,, 0 IS OK, NZ - IS NON FATAL ERROR (IGNORE)      Ÿ
                                    7737              Ÿ                      ALL FATAL ERRORS, PURGE DICTIONARY             Ÿ
                                    7738              Ÿ                                                                     Ÿ
                                    7739              Ÿ                                                                     Ÿ
                                    7740              Ÿ   WORDS MUST BE ,,,                                                 Ÿ
                                    7741              Ÿ       1. ALPHABETIZED                                               Ÿ
                                    7742              Ÿ       2. ALL WORDS MUST START IN COLUMN 1                           Ÿ
                                    7743              Ÿ       3. A ';' IN COLUMN 1, IS ACCEPTED AS A COMMENT                Ÿ
                                    7744              Ÿ       4. ONLY ONE WORD IS ALLOWED ON A LINE                         Ÿ
                                    7745              Ÿ       5. ALL WORDS CONVERTED TO LOWER CASE                          Ÿ
                                    7746              Ÿ       6. LENGTH MAY NOT BE OVER 64 CHARACTERS                       Ÿ
                                    7747              Ÿ       7. ALL PUCTUATION IS TREATED AS PART OF WORD                  Ÿ
                                    7748              Ÿ       8. WORD MUST BE CORRECTLY SPELLED                             Ÿ
                                    7749              Ÿ                                                                     Ÿ
                                    7750              Ÿ  NOTE: WE CHECK FOR ALL BUT NUMBER 8, SO GET IT RIGHT GUYS.         Ÿ
                                    7751              Ÿ                                                                     Ÿ
                                    7752              Ÿ                                                                     Ÿ
                                                      ¾þþþþþþþþþþþþþþþþþþþþþþþþþþþþþþþþþþþþþþþþþþþþþþþþþþþþþþþþþþþþþþþþþþþþþ»
000036C 50E0 D000/9008_      00000  7753              CHKTOKEN PROC  ,     ,,           CHECK DICTIONARY INPUT
 USING  *,R7
 000386 1BFF                        7792                       SR    R15,R15            R15 - RETURN CODE
 000388 1200                        7793                       LTR   R0,R0              IF NULL WORD, WE IGNORE
 00038A 4780 707C            00402  7794                       BE    IGNORE
 00038E 955E 1000      00000        7795                       CLI   0(R1),C';'         IF ';'1, THEN COMMENT, WE IGNORE
 000392 4780 707C            00402  7796                       BE    IGNORE
 000396 9540 1000      00000        7797                       CLI   0(R1),C' '         WORD MUST START IN COL 1.
 00039A 4780 708A            00410  7798                       BE    BLANKERR
 00039E 5900 798E/4720_      00D14  7799                       IF    (R0,GT,64),LENERR
 0003A6 D53F 6064 6024 00064 00024  7819                       CLC   DTPREV(64),DTWORD  IF EQUAL, IGONRE
 0003AC 4780 707C            00402  7820                       BE    IGNORE
 0003B0 D53F 6064 6024 00064 00024  7821                       CLC   DTPREV(64),DTWORD  IF NOT ALPHABETIZED, ERROR
 0003B6 47B0 70D2            00458  7822                       BNL   ALPHAERR
 0003BA 1821                        7823                       LR    R2,R1              R2,R3 - ADDR, END OF INPUT LINE
 0003BC 1830                        7824                       LR    R3,R0
 0003BE 1A32                        7825                       AR    R3,R2
 0003C0 1B44                        7826                       SR    R4,R4              R4 - BLANK COUNT
 0003C2 1923/47B0 706E              7827                       WHILE (R2,LT,R3),BEGIN
 0003C8 9540 2000/4770_00000        7844  1                      IF    (@R2,EQ,' '),' LA R4,1'  MULTIPLE WORDS NOT ALLOWED
 0003D4 956B 2000/4770_00000        7866  1                      IF    (@R2,EQ,','),' LA R4,1'  ON LINE
 0003E0 955E 2000/4770_00000        7888  1                      IF    (@R2,EQ,';'),' LA R4,1'
 0003EC 4122 0001            00001  7910  1                      LA    R2,1(R2)
 0003F0 47F0 703C            003C2  7911                       END
 0003F4 5940 797A/4720_      00D00  7916                       IF    (R4,GT,0),MULTERR
                                    7936
 0003FC 1BFF                        7937                       CLEAR R15
 0003FE 47F0 70EA            00470  7941                       B     CHKEXIT
                                    7942              *
                                    7943              *  ERROR EXITS,,,   ALL ARE FATAL EXCEPT FOR IGNORED LINES
1SPELL    (SPEL2025) (12:55) (15MAR04) SET WDICTIONARY Command                                                              Page   16
0Current Usings:  (DTWA,R6) (*,R7) (CP,R11) (CV,R12)
0Loc    Object Code    Addr1 Addr2  Stmt Lv Lineno    Source Statement           (Hibal 5, Asmedit 3.3)  HLASM R4.0  2004/03/15 12.55
+___    ______ ____    _____ _____  ____ __ ______    ______ _________
0                                   7944              *
 000402                             7945              IGNORE   LABEL ,
 000402 D23F 6024 6064 00024 00064  7947                       MVC   DTWORD(64),DTPREV  RESTORE WORD FROM PREVIOUS WORD
 000408 41F0 0004            00004  7948                       LA    R15,4
 00040C 47F0 70EA            00470  7949                       B     CHKEXIT
                                    7950
 000410                             7951              BLANKERR LABEL ,
 000410 4110 79B4/4100_      00D3A  7953                 TSEG  'Error in dictionary file, word must start in column 1.',,CR
 000422 58E0 7996/0DEE       00D1C  7971                       ACALL DICTERR             EXITS VIA CVERROR
                                    7975
 000428                             7976              LENERR   LABEL ,
 000428 4110 78F2/4100_      00C78  7978                 TSEG  'Error in dictionary file, word is to long. (>64)',,CR
 00043A 58E0 7996/0DEE       00D1C  7996                       ACALL DICTERR             EXITS VIA CVERROR
                                    8000
 000440                             8001              MULTERR  LABEL ,
 000440 4110 7A36/4100_      00DBC  8003                 TSEG  'Error in dictionary file, only one word per line.',,CR
 000452 58E0 7996/0DEE       00D1C  8021                       ACALL DICTERR             EXITS VIA CVERROR
                                    8025
 000458                             8026              ALPHAERR LABEL ,
 000458 4110 7A67/4100_      00DED  8028                TSEG  'Error in dictionary file, words must be alpahbetized.',,CR
 00046A 58E0 7996/0DEE       00D1C  8046                       ACALL DICTERR             EXITS VIA CVERROR
                                    8050              *
                                    8051              *  EXIT
                                    8052              *
 000470                             8053              CHKEXIT  LABEL ,
 000470 18D8/9808 D004_             8055                       PEND  ,
 DROP   *,R7
1SPELL    (SPEL2025) (12:55) (15MAR04) SET WDICTIONARY Command                                                              Page   17
0Current Usings:  (DTWA,R6) (CP,R11) (CV,R12)
0Loc    Object Code    Addr1 Addr2  Stmt Lv Lineno    Source Statement           (Hibal 5, Asmedit 3.3)  HLASM R4.0  2004/03/15 12.55
+___    ______ ____    _____ _____  ____ __ ______    ______ _________
0                                   8076              ¿þþþþþþþþþþþþþþþþþþþþþþþþþþþþþþþþþþþþþþþþþþþþþþþþþþþþþþþþþþþþþþþþþþþþþÜ
                                    8077              Ÿ                                                                     Ÿ
                                    8078              Ÿ                                                                     Ÿ
                                    8079              Ÿ       MAKE INDEX ENTRY INTO DICTIONARY                              Ÿ
                                    8080              Ÿ                                                                     Ÿ
                                    8081              Ÿ  WE MAKE ONE ENTRY INTO THE DICTIONARY FOR EVERY 120+- WORDS.       Ÿ
                                    8082              Ÿ  TOTAL WORDS IN DICTNRY/TOTAL NUMBER OF INDEXES= WORDS PER INDEX.   Ÿ
                                    8083              Ÿ  SO WE MAKE AN INDEX APPROXIMATELY EVERY 120+- WORDS,,, SPECIAL     Ÿ
                                    8084              Ÿ  CONDITIONS ARE,                                                    Ÿ
                                    8085              Ÿ   1. WE ALWAYS PUT IN AN INDEX INTO THE DICTIONARY FOR THE MOST     Ÿ
                                    8086              Ÿ      USED WORDS.                                                    Ÿ
                                    8087              Ÿ   2. WHEN WE PUT AN INDEX WE MAKE SURE THAT IT IS THE FIRST         Ÿ
                                    8088              Ÿ      OCCURANCE OF THOSE FIRST 4 LETTERS IN THE DICTIONARY.          Ÿ
                                    8089              Ÿ  DIG IT.                                                            Ÿ
                                    8090              Ÿ                                                                     Ÿ
                                    8091              Ÿ  COMMENT: DTNEXTDX - PUT IN INDEX WHEN WORD COUNT .GT. DTNEXTDX     Ÿ
                                    8092              Ÿ                                                                     Ÿ
                                    8093              Ÿ                                                                     Ÿ
                                    8094              Ÿ                                                                     Ÿ
                                                      ¾þþþþþþþþþþþþþþþþþþþþþþþþþþþþþþþþþþþþþþþþþþþþþþþþþþþþþþþþþþþþþþþþþþþþþ»
000047E 50E0 D000/9008_      00000  8095              ADDNDX   PROC  ,     ,,           MAKE INDEX IF REQUIRED
 USING  *,R7
 000498 D503 6010 6014_00010 00014  8134                       IF    (DTNDXPTR,LT,DTNDXEND),BEGIN
 0004A2 5820 60E8            000E8  8152  1                      L     R2,DTTOPPTR        GET POINTER TO MOST USED WORDS
                                    8153  1                      COMMENT                  IF WORD > MOST USED WORD,,
 0004A6 D504 6024 2000_00024 00000  8154  1                      WHILE (' CLC DTWORD(5),0(R2)',GT),' LA R2,5(R2)'
 0004B8 5020 60E8            000E8  8176  1                      ST    R2,DTTOPPTR        GET NEXT TOP HIT (MOST USED) WORD
                                    8177  1           *
                                    8178  1           *                                 IF WORD = TOP HIT WORD, MAKE INDEX
 0004BC D504 6024 2000 00024 00000  8179  1                      CLC   DTWORD(5),0(R2)
 0004C2 4770 708A            00522  8180  1                      IF    E,BEGIN            IF WORD = TOP HIT WORD, MAKE INDEX
 0004C6 5830 6010            00010  8191  2                        L     R3,DTNDXPTR            R3 - INDEX POINTER
 0004CA D204 3000 6024 00000 00024  8192  2                        MVC   NDX(5,R3),DTWORD       SAVE INDEX VALUE
 0004D0 D202 3005 6019 00005 00019  8193  2                        MVC   NLINK+1(3,R3),DTPTR+1  SAVE ADDRESS OF DICTNRY TOKEN
 0004D6 4133 0008            00008  8194  2                        LA    R3,NLEN(R3)            BUMP INDEX POINTER
 0004DA 5030 6010            00010  8195  2                        ST    R3,DTNDXPTR
 0004DE D503 6010 6014_00010 00014  8196  2                        IF    (DTNDXPTR,GE,DTNDXEND),BEGIN
 0004E8 4110 798A/4100_      00E22  8214  3                          TSEG  'Spelling dictionary index overflow.',,CR
 0004FA                             8232  2                        END
                                    8236  2                        COMMENT                    SKIP TO NEXT TOP HIT WORD
 0004FA D504 6024 2000_00024 00000  8237  2                        WHILE (' CLC DTWORD(5),0(R2)',EQ),' LA R2,5(R2)'
 00050C 5020 60E8            000E8  8259  2                        ST    R2,DTTOPPTR
 000510 5820 60E4            000E4  8260  2                        L     R2,DTWORDCT          RESET COUNT TILL NEXT INDEX
 000514 5A20 7848            00CE0  8261  2                        A     R2,=AL4(NDXFACTR)
 000518 5020 60EC            000EC  8262  2                        ST    R2,DTNEXTDX
 00051C D23F 6064 60A4 00064 000A4  8263  2                        MVC   DTPREV(64),DTBLANKS  CAUSE ENTIRE WORD TO BE IN DICTNY
 000522                             8264  1                      END
                                    8268  1           *
                                    8269  1           *                                 IF WORD COUNT SUFFICIENT, ADD INDEX
 000522 D503 60E4 60EC_000E4 000EC  8270  1                      IF    (DTWORDCT,GE,DTNEXTDX),BEGIN   ADD INDEX TO LIST
 00052C D504 6064 6024 00064 00024  8288  2                        CLC   DTPREV(5),DTWORD   WE TAG ENTRIES ONLY IF 1ST 5
 000532 4780 70E4            0057C  8289  2                        IF    NE,BEGIN             LETTERS ARE 1ST IN DICTNRY
 000536 5830 6010            00010  8300  3                          L     R3,DTNDXPTR            R3 - INDEX POINTER
1SPELL    (SPEL2025) (12:55) (15MAR04) SET WDICTIONARY Command                                                              Page   18
0Current Usings:  (DTWA,R6) (*,R7) (CP,R11) (CV,R12)
0Loc    Object Code    Addr1 Addr2  Stmt Lv Lineno    Source Statement           (Hibal 5, Asmedit 3.3)  HLASM R4.0  2004/03/15 12.55
+___    ______ ____    _____ _____  ____ __ ______    ______ _________
000053A D204 3000 6024 00000 00024  8301  3                          MVC   NDX(5,R3),DTWORD       SAVE INDEX VALUE
 000540 D202 3005 6019 00005 00019  8302  3                          MVC   NLINK+1(3,R3),DTPTR+1  SAVE ADDRESS OF DICTNRY TOKEN
 000546 4133 0008            00008  8303  3                          LA    R3,NLEN(R3)            BUMP INDEX POINTER
 00054A 5030 6010            00010  8304  3                          ST    R3,DTNDXPTR
 00054E D503 6010 6014_00010 00014  8305  3                          IF    (DTNDXPTR,GE,DTNDXEND),BEGIN
 000558 4110 798A/4100_      00E22  8323  4                            TSEG  'Spelling dictionary index overflow.',,CR
 00056A                             8341  3                          END
 00056A 5820 60E4            000E4  8345  3                          L     R2,DTWORDCT        RESET COUNT TILL NEXT INDEX
 00056E 5A20 7848            00CE0  8346  3                          A     R2,=AL4(NDXFACTR)
 000572 5020 60EC            000EC  8347  3                          ST    R2,DTNEXTDX
 000576 D23F 6064 60A4 00064 000A4  8348  3                          MVC   DTPREV(64),DTBLANKS  CAUSE ENTIRE WORD TO BE IN DICTNY
 00057C                             8349  2                        END
 00057C                             8353  1                      END
 00057C                             8357                       END
 00057C 18D8/9808 D004_             8361                       PEND  ,
 DROP   *,R7
1SPELL    (SPEL2025) (12:55) (15MAR04) SET WDICTIONARY Command                                                              Page   19
0Current Usings:  (DTWA,R6) (CP,R11) (CV,R12)
0Loc    Object Code    Addr1 Addr2  Stmt Lv Lineno    Source Statement           (Hibal 5, Asmedit 3.3)  HLASM R4.0  2004/03/15 12.55
+___    ______ ____    _____ _____  ____ __ ______    ______ _________
0                                   8382              ¿þþþþþþþþþþþþþþþþþþþþþþþþþþþþþþþþþþþþþþþþþþþþþþþþþþþþþþþþþþþþþþþþþþþþþÜ
                                    8383              Ÿ                                                                     Ÿ
                                    8384              Ÿ                                                                     Ÿ
                                    8385              Ÿ  ADD WORD TO DICTIONARY                                             Ÿ
                                    8386              Ÿ                                                                     Ÿ
                                    8387              Ÿ  WE JUST ADD WORD IN WORD TO END OF DICTIONARY IN WYLBUR PRESSED    Ÿ
                                    8388              Ÿ  FORMAT.                                                            Ÿ
                                    8389              Ÿ                                                                     Ÿ
                                    8390              Ÿ                                                                     Ÿ
                                                      ¾þþþþþþþþþþþþþþþþþþþþþþþþþþþþþþþþþþþþþþþþþþþþþþþþþþþþþþþþþþþþþþþþþþþþþ»
000058A 50E0 D000/9008_      00000  8391              ADDTOKEN PROC  ,     ,,           ADD TOKEN TO DICTIONARY
 USING  *,R7
 0005A4 181D/41D0 D0EC              8430                       XPUSH ,,&LINESZ,PTR=R1   R1 - PLACE TO COMPRESS WORD
 0005AA 9240 1000      00000        8433                       MVI   0(R1),C' '              SEPARATE WORDS WITH BLANK
 0005AE D23F 1001 6024 00001 00024  8434                       MVC   1(64,R1),DTWORD         MOVE IN WORD
 0005B4 4121 0001            00001  8435                       LA    R2,1(R1)           R2 - CURRENT WORD
 0005B8 4130 6064            00064  8436                       LA    R3,DTPREV          R3 - PREVIOUS WORD
 0005BC D500 2000 3000_00000 00000  8437                       WHILE ('CLC @R2(1),@R3',EQ),BEGIN REMOVE PREFIX COMMON CHARS
 0005C6 9240 2000      00000        8452  1                      MVI   0(R2),C' '           NOTE (PREVIOUS,NE,WORD) !!!
 0005CA 4122 0001            00001  8453  1                      LA    R2,1(R2)
 0005CE 4133 0001            00001  8454  1                      LA    R3,1(R3)
 0005D2 47F0 7018            005BC  8455                       END
 0005D6 5830 6020            00020  8460                       L     R3,DTWORDLN
 0005DA 4133 0001            00001  8461                       LA    R3,1(R3)           WORD LENGTH +1 FOR LEADING BLANK
 0005DE 1803                        8462                       LR    R0,R3
                                    8463                       COMMENT                  R1,R0 - TEXT ADDR, LEN
 0005E0 58E0 777C/0DEE       00D20  8464                       VCALL PRESS              PRESS DICTIONARY TOKEN
 0005E6 5820 6018            00018  8468                       L     R2,DTPTR           R2 - PLACE TO PUT THIS TOKEN
 0005EA 4111 0005            00005  8469                       LA    R1,5(R1)           SKIP LINENO, LINELEN HEADER
 0005EE 1830                        8470                       LR    R3,R0              R1,R3 - PRESSED TEXT ADDR, LENGTH
 0005F0 4142 3000            00000  8471                       LA    R4,0(R2,R3)        R4 - WHERE END OF ENTRY WILL BE
 0005F4 5040 6018            00018  8472                       ST    R4,DTPTR
 0005F8 5940 601C/4750_      0001C  8473                       IF    (R4,GE,DTEND),BEGIN
 000600 4110 77FB/4100_      00D9F  8490  1                      TSEG  'Spelling dictionary overflow.',,CR
 000612 58E0 7778/0DEE       00D1C  8508  1                      ACALL DICTERR
 000618                             8512                       END
 000618 0630/1233/4740_             8516                       MOVE  R3,@R2,@R1         MOVE PRESSED WORD INTO DICTIONARY
 000624 4BD0 77CC            00D70  8554                       XPOP  ,,&LINESZ
 000628 18D8/9808 D004_             8556                       PEND  ,
 DROP   *,R7
1SPELL    (SPEL2025) (12:55) (15MAR04) SET WDICTIONARY Command                                                              Page   20
0Current Usings:  (DTWA,R6) (CP,R11) (CV,R12)
0Loc    Object Code    Addr1 Addr2  Stmt Lv Lineno    Source Statement           (Hibal 5, Asmedit 3.3)  HLASM R4.0  2004/03/15 12.55
+___    ______ ____    _____ _____  ____ __ ______    ______ _________
0                                   8577              ¿þþþþþþþþþþþþþþþþþþþþþþþþþþþþþþþþþþþþþþþþþþþþþþþþþþþþþþþþþþþþþþþþþþþþþÜ
                                    8578              Ÿ                                                                     Ÿ
                                    8579              Ÿ                                                                     Ÿ
                                    8580              Ÿ  RETURN FROM DICTIONARY LINE-BY-LINE PROCESSING                     Ÿ
                                    8581              Ÿ                                                                     Ÿ
                                    8582              Ÿ                                                                     Ÿ
                                                      ¾þþþþþþþþþþþþþþþþþþþþþþþþþþþþþþþþþþþþþþþþþþþþþþþþþþþþþþþþþþþþþþþþþþþþþ»
0000636 50E0 D000/9008_      00000  8583              DICTERR  PROC  ,                  SEVERE ERROR, ABORT COMMAND !!
 USING  *,R7
 000650 5810 6000            00000  8622                       L     R1,DTMEMADR        FREE UP GETMAINED MEMORY
 000654 5800 6004            00004  8623                       L     R0,DTMEMLEN
 000658 D203 1000 76AC 00000 00CFC  8624                       MVC   0(4,R1),=C'FREE'
 00065E 5001 0004            00004  8625                       ST    R0,4(R1)
 000662 4110 1000/0A0A       00000  8626                       FREEMAIN R,LV=(0),A=(1)
 000668 D207 B886 7658_00886 00CA8  8630                       ERROR 'Dictionary not loaded.',,BADDICT
 00067A 18D8/9808 D004_             8638                       PEND  ,
 DROP   *,R7
 DROP   DTWA,R6                     8658                       DROP  R6
1SPELL    (SPEL2025) (12:55) (15MAR04) SET WDICTIONARY Command                                                              Page   21
0Current Usings:  (CP,R11) (CV,R12)
0Loc    Object Code    Addr1 Addr2  Stmt Lv Lineno    Source Statement           (Hibal 5, Asmedit 3.3)  HLASM R4.0  2004/03/15 12.55
+___    ______ ____    _____ _____  ____ __ ______    ______ _________
0                                   8666              ¿þþþþþþþþþþþþþþþþþþþþþþþþþþþþþþþþþþþþþþþþþþþþþþþþþþþþþþþþþþþþþþþþþþþþþÜ
                                    8667              Ÿ                                                                     Ÿ
                                    8668              Ÿ                                                                     Ÿ
                                    8669              Ÿ  TOP 200 WORDS, THE 100 MOST USED WORDS ACCOUNT FOR 50 % OF THE     Ÿ
                                    8670              Ÿ  WORDS IN RANDOM TEXT.  OH YEAH.                                    Ÿ
                                    8671              Ÿ                                                                     Ÿ
                                    8672              Ÿ  NOTE: WORDS MUST BE IN ALPHABETICAL ORDER AND IN LOWER CASE        Ÿ
                                    8673              Ÿ                                                                     Ÿ
                                    8674              Ÿ                                                                     Ÿ
                                                      ¾þþþþþþþþþþþþþþþþþþþþþþþþþþþþþþþþþþþþþþþþþþþþþþþþþþþþþþþþþþþþþþþþþþþþþ»
0000688                             8675              TOPHITS  LABEL ,                  TOP 100+ WORDS
 000688 818296A4A3                  8677                       TOPWD about
 00068D 818296A585                  8679                       TOPWD above
 000692 81839996A2                  8681                       TOPWD across
 000697 8183A34040                  8683                       TOPWD act
 00069C 8183A38996                  8685                       TOPWD action
 0006A1 8186A38599                  8687                       TOPWD after
 0006A6 8187818995                  8689                       TOPWD again
 0006AB 8187818995                  8691                       TOPWD against
 0006B0 8193934040                  8693                       TOPWD all
 0006B5 81939496A2                  8695                       TOPWD almost
 0006BA 8193969587                  8697                       TOPWD along
 0006BF 8193A29640                  8699                       TOPWD also
 0006C4 8193A38896                  8701                       TOPWD although
 0006C9 8193A681A8                  8703                       TOPWD always
 0006CE 8194859989                  8705                       TOPWD american
 0006D3 8194969587                  8707                       TOPWD among
 0006D8 8195844040                  8709                       TOPWD and
 0006DD 819596A388                  8711                       TOPWD another
 0006E2 8195A84040                  8713                       TOPWD any
 0006E7 8199854040                  8715                       TOPWD are
 0006EC 8199858140                  8717                       TOPWD area
 0006F1 819996A495                  8719                       TOPWD around
 0006F6 81A2928584                  8721                       TOPWD asked
 0006FB 81A681A840                  8723                       TOPWD away
 000700 8281839240                  8725                       TOPWD back
 000705 82858381A4                  8727                       TOPWD because
 00070A 8285839694                  8729                       TOPWD become
 00070F 8285859540                  8731                       TOPWD been
 000714 8285869699                  8733                       TOPWD before
 000719 828587A495                  8735                       TOPWD begun
 00071E 8285899587                  8737                       TOPWD being
 000723 8285A2A340                  8739                       TOPWD best
 000728 8285A3A385                  8741                       TOPWD better
 00072D 8285A3A685                  8743                       TOPWD between
 000732 8289874040                  8745                       TOPWD big
 000737 8296A38840                  8747                       TOPWD both
 00073C 82A489A295                  8749                       TOPWD buisness
 000741 82A4A34040                  8751                       TOPWD but
 000746 8381939385                  8753                       TOPWD called
 00074B 8381948540                  8755                       TOPWD came
 000750 8381954040                  8757                       TOPWD can
 000755 8381A28540                  8759                       TOPWD case
1SPELL    (SPEL2025) (12:55) (15MAR04) SET WDICTIONARY Command                                                              Page   22
0Current Usings:  (CP,R11) (CV,R12)
0Loc    Object Code    Addr1 Addr2  Stmt Lv Lineno    Source Statement           (Hibal 5, Asmedit 3.3)  HLASM R4.0  2004/03/15 12.55
+___    ______ ____    _____ _____  ____ __ ______    ______ _________
000075A 838599A381                  8761                       TOPWD certain
 00075F 8388899384                  8763                       TOPWD children
 000764 8388A49983                  8765                       TOPWD church
 000769 8389A3A840                  8767                       TOPWD city
 00076E 8396948540                  8769                       TOPWD come
 000773 8396949781                  8771                       TOPWD company
 000778 8396A49384                  8773                       TOPWD could
 00077D 8396A495A3                  8775                       TOPWD country
 000782 8396A499A2                  8777                       TOPWD course
 000787 8481A84040                  8779                       TOPWD day
 00078C 8481A8A240                  8781                       TOPWD days
 000791 8485A58593                  8783                       TOPWD development
 000796 8489844040                  8785                       TOPWD did
 00079B 848984957D                  8787                       TOPWD didn''t
 0007A0 8489868685                  8789                       TOPWD different
 0007A5 849685A240                  8791                       TOPWD does
 0007AA 8496957DA3                  8793                       TOPWD don''t
 0007AF 8496958540                  8795                       TOPWD done
 0007B4 8496969940                  8797                       TOPWD door
 0007B9 8496A69540                  8799                       TOPWD down
 0007BE 84A4998995                  8801                       TOPWD during
 0007C3 8581838840                  8803                       TOPWD each
 0007C8 85819993A8                  8805                       TOPWD early
 0007CD 8589A38885                  8807                       TOPWD either
 0007D2 8595844040                  8809                       TOPWD end
 0007D7 859596A487                  8811                       TOPWD enough
 0007DC 85A5859540                  8813                       TOPWD even
 0007E1 85A5859940                  8815                       TOPWD ever
 0007E6 85A58599A8                  8817                       TOPWD every
 0007EB 85A7819497                  8819                       TOPWD example
 0007F0 85A885A240                  8821                       TOPWD eyes
 0007F5 8681838540                  8823                       TOPWD face
 0007FA 868183A340                  8825                       TOPWD fact
 0007FF 8681948993                  8827                       TOPWD family
 000804 8681994040                  8829                       TOPWD far
 000809 868585A340                  8831                       TOPWD feet
 00080E 868593A340                  8833                       TOPWD felt
 000813 8685A64040                  8835                       TOPWD few
 000818 8689958440                  8837                       TOPWD find
 00081D 868999A2A3                  8839                       TOPWD first
 000822 8689A58540                  8841                       TOPWD five
 000827 8696994040                  8843                       TOPWD for
 00082C 8696999440                  8845                       TOPWD form
 000831 8696A49584                  8847                       TOPWD found
 000836 8696A49940                  8849                       TOPWD four
 00083B 8699969440                  8851                       TOPWD from
 000840 8781A58540                  8853                       TOPWD gave
 000845 8785958599                  8855                       TOPWD general
 00084A 8785A34040                  8857                       TOPWD get
 00084F 8789A58540                  8859                       TOPWD give
 000854 8789A58595                  8861                       TOPWD given
 000859 8796844040                  8863                       TOPWD god
 00085E 8796899587                  8865                       TOPWD going
 000863 8796968440                  8867                       TOPWD good
1SPELL    (SPEL2025) (12:55) (15MAR04) SET WDICTIONARY Command                                                              Page   23
0Current Usings:  (CP,R11) (CV,R12)
0Loc    Object Code    Addr1 Addr2  Stmt Lv Lineno    Source Statement           (Hibal 5, Asmedit 3.3)  HLASM R4.0  2004/03/15 12.55
+___    ______ ____    _____ _____  ____ __ ______    ______ _________
0000868 8796A34040                  8869                       TOPWD got
 00086D 8796A58599                  8871                       TOPWD government
 000872 87998581A3                  8873                       TOPWD great
 000877 879996A497                  8875                       TOPWD group
 00087C 8881844040                  8877                       TOPWD had
 000881 8881958440                  8879                       TOPWD hand
 000886 88819584A2                  8881                       TOPWD hands
 00088B 8881A24040                  8883                       TOPWD has
 000890 8881A58540                  8885                       TOPWD have
 000895 8885818440                  8887                       TOPWD head
 00089A 8885939740                  8889                       TOPWD help
 00089F 8885994040                  8891                       TOPWD her
 0008A4 8885998540                  8893                       TOPWD here
 0008A9 8889878840                  8895                       TOPWD high
 0008AE 8889944040                  8897                       TOPWD him
 0008B3 888994A285                  8899                       TOPWD himself
 0008B8 8889A24040                  8901                       TOPWD his
 0008BD 8889A2A396                  8903                       TOPWD history
 0008C2 8896948540                  8905                       TOPWD home
 0008C7 8896A4A285                  8907                       TOPWD house
 0008CC 8896A64040                  8909                       TOPWD how
 0008D1 8896A685A5                  8911                       TOPWD however
 0008D6 88A4948195                  8913                       TOPWD human
 0008DB 8994979699                  8915                       TOPWD important
 0008E0 8995A38599                  8917                       TOPWD interest
 0008E5 8995A39640                  8919                       TOPWD into
 0008EA 89A37DA240                  8921                       TOPWD it''s
 0008EF 89A3A24040                  8923                       TOPWD its
 0008F4 89A3A28593                  8925                       TOPWD itself
 0008F9 9196889540                  8927                       TOPWD john
 0008FE 91A4A2A340                  8929                       TOPWD just
 000903 9289958440                  8931                       TOPWD kind
 000908 929585A640                  8933                       TOPWD knew
 00090D 929596A640                  8935                       TOPWD know
 000912 9381998785                  8937                       TOPWD large
 000917 9381A2A340                  8939                       TOPWD last
 00091C 9381A38599                  8941                       TOPWD later
 000921 9381A64040                  8943                       TOPWD law
 000926 938581A2A3                  8945                       TOPWD least
 00092B 938586A340                  8947                       TOPWD left
 000930 9385A2A240                  8949                       TOPWD less
 000935 9385A34040                  8951                       TOPWD let
 00093A 9389868540                  8953                       TOPWD life
 00093F 93898788A3                  8955                       TOPWD light
 000944 9389928540                  8957                       TOPWD like
 000949 9389958540                  8959                       TOPWD line
 00094E 9389A3A393                  8961                       TOPWD little
 000953 9396838193                  8963                       TOPWD local
 000958 9396958740                  8965                       TOPWD long
 00095D 9396969240                  8967                       TOPWD look
 000962 9396969285                  8969                       TOPWD looked
 000967 9481848540                  8971                       TOPWD made
 00096C 9481928540                  8973                       TOPWD make
 000971 9481954040                  8975                       TOPWD man
1SPELL    (SPEL2025) (12:55) (15MAR04) SET WDICTIONARY Command                                                              Page   24
0Current Usings:  (CP,R11) (CV,R12)
0Loc    Object Code    Addr1 Addr2  Stmt Lv Lineno    Source Statement           (Hibal 5, Asmedit 3.3)  HLASM R4.0  2004/03/15 12.55
+___    ______ ____    _____ _____  ____ __ ______    ______ _________
0000976 948195A840                  8977                       TOPWD many
 00097B 9481A84040                  8979                       TOPWD may
 000980 94858195A2                  8981                       TOPWD means
 000985 9485948285                  8983                       TOPWD members
 00098A 9485954040                  8985                       TOPWD men
 00098F 94898788A3                  8987                       TOPWD might
 000994 9489958440                  8989                       TOPWD mind
 000999 9496998540                  8991                       TOPWD more
 00099E 9496A2A340                  8993                       TOPWD most
 0009A3 9499A24040                  8995                       TOPWD mrs
 0009A8 94A4838840                  8997                       TOPWD much
 0009AD 94A4A2A340                  8999                       TOPWD must
 0009B2 9581948540                  9001                       TOPWD name
 0009B7 9581A38996                  9003                       TOPWD national
 0009BC 9585858440                  9005                       TOPWD need
 0009C1 9585A58599                  9007                       TOPWD never
 0009C6 9585A64040                  9009                       TOPWD new
 0009CB 9585A7A340                  9011                       TOPWD next
 0009D0 95898788A3                  9013                       TOPWD night
 0009D5 9596A34040                  9015                       TOPWD not
 0009DA 9596A38889                  9017                       TOPWD nothing
 0009DF 9596A64040                  9019                       TOPWD now
 0009E4 95A4948285                  9021                       TOPWD number
 0009E9 9686864040                  9023                       TOPWD off
 0009EE 9686A38595                  9025                       TOPWD often
 0009F3 9693844040                  9027                       TOPWD old
 0009F8 9695838540                  9029                       TOPWD once
 0009FD 9695854040                  9031                       TOPWD one
 000A02 969593A840                  9033                       TOPWD only
 000A07 9697859540                  9035                       TOPWD open
 000A0C 9699848599                  9037                       TOPWD order
 000A11 96A3888599                  9039                       TOPWD other
 000A16 96A3888599                  9041                       TOPWD others
 000A1B 96A4994040                  9043                       TOPWD our
 000A20 96A4A34040                  9045                       TOPWD out
 000A25 96A5859940                  9047                       TOPWD over
 000A2A 96A6954040                  9049                       TOPWD own
 000A2F 978199A340                  9051                       TOPWD part
 000A34 9781A2A340                  9053                       TOPWD past
 000A39 9785969793                  9055                       TOPWD people
 000A3E 9785994040                  9057                       TOPWD per
 000A43 9785998881                  9059                       TOPWD perhaps
 000A48 9793818385                  9061                       TOPWD place
 000A4D 9796A2A289                  9063                       TOPWD possible
 000A52 9796A68599                  9065                       TOPWD power
 000A57 979985A285                  9067                       TOPWD present
 000A5C 979985A289                  9069                       TOPWD president
 000A61 9799968293                  9071                       TOPWD problem
 000A66 9799968799                  9073                       TOPWD program
 000A6B 97A4829389                  9075                       TOPWD public
 000A70 97A4A34040                  9077                       TOPWD put
 000A75 98A489A385                  9079                       TOPWD quite
 000A7A 9981A38885                  9081                       TOPWD rather
 000A7F 99898788A3                  9083                       TOPWD right
1SPELL    (SPEL2025) (12:55) (15MAR04) SET WDICTIONARY Command                                                              Page   25
0Current Usings:  (CP,R11) (CV,R12)
0Loc    Object Code    Addr1 Addr2  Stmt Lv Lineno    Source Statement           (Hibal 5, Asmedit 3.3)  HLASM R4.0  2004/03/15 12.55
+___    ______ ____    _____ _____  ____ __ ______    ______ _________
0000A84 9996969440                  9085                       TOPWD room
 000A89 A281898440                  9087                       TOPWD said
 000A8E A281948540                  9089                       TOPWD same
 000A93 A281A64040                  9091                       TOPWD saw
 000A98 A281A84040                  9093                       TOPWD say
 000A9D A283889696                  9095                       TOPWD school
 000AA2 A285839695                  9097                       TOPWD second
 000AA7 A285854040                  9099                       TOPWD see
 000AAC A285859485                  9101                       TOPWD seemed
 000AB1 A28595A285                  9103                       TOPWD sense
 000AB6 A28599A589                  9105                       TOPWD service
 000ABB A285A34040                  9107                       TOPWD set
 000AC0 A285A58599                  9109                       TOPWD several
 000AC5 A288854040                  9111                       TOPWD she
 000ACA A28896A493                  9113                       TOPWD should
 000ACF A28896A640                  9115                       TOPWD show
 000AD4 A289848540                  9117                       TOPWD side
 000AD9 A289958385                  9119                       TOPWD since
 000ADE A294819393                  9121                       TOPWD small
 000AE3 A296838981                  9123                       TOPWD social
 000AE8 A296948540                  9125                       TOPWD some
 000AED A2969485A3                  9127                       TOPWD something
 000AF2 A2A381A385                  9129                       TOPWD state
 000AF7 A2A381A385                  9131                       TOPWD states
 000AFC A2A3899393                  9133                       TOPWD still
 000B01 A2A4838840                  9135                       TOPWD such
 000B06 A2A8A2A385                  9137                       TOPWD system
 000B0B A381928540                  9139                       TOPWD take
 000B10 A381928595                  9141                       TOPWD taken
 000B15 A388819540                  9143                       TOPWD than
 000B1A A38881A340                  9145                       TOPWD that
 000B1F A388854040                  9147                       TOPWD the
 000B24 A388858999                  9149                       TOPWD their
 000B29 A388859440                  9151                       TOPWD them
 000B2E A388859540                  9153                       TOPWD then
 000B33 A388859985                  9155                       TOPWD there
 000B38 A38885A285                  9157                       TOPWD these
 000B3D A38885A840                  9159                       TOPWD they
 000B42 A388899587                  9161                       TOPWD thing
 000B47 A388899587                  9163                       TOPWD things
 000B4C A388899592                  9165                       TOPWD think
 000B51 A38889A240                  9167                       TOPWD this
 000B56 A38896A285                  9169                       TOPWD those
 000B5B A38896A487                  9171                       TOPWD though
 000B60 A38896A487                  9173                       TOPWD thought
 000B65 A388998585                  9175                       TOPWD three
 000B6A A3889996A4                  9177                       TOPWD through
 000B6F A388A4A240                  9179                       TOPWD thus
 000B74 A389948540                  9181                       TOPWD time
 000B79 A3899485A2                  9183                       TOPWD times
 000B7E A3968481A8                  9185                       TOPWD today
 000B83 A396938440                  9187                       TOPWD told
 000B88 A396964040                  9189                       TOPWD too
 000B8D A396969240                  9191                       TOPWD took
1SPELL    (SPEL2025) (12:55) (15MAR04) SET WDICTIONARY Command                                                              Page   26
0Current Usings:  (CP,R11) (CV,R12)
0Loc    Object Code    Addr1 Addr2  Stmt Lv Lineno    Source Statement           (Hibal 5, Asmedit 3.3)  HLASM R4.0  2004/03/15 12.55
+___    ______ ____    _____ _____  ____ __ ______    ______ _________
0000B92 A396A68199                  9193                       TOPWD toward
 000B97 A3A4999585                  9195                       TOPWD turned
 000B9C A3A6964040                  9197                       TOPWD two
 000BA1 A495848599                  9199                       TOPWD under
 000BA6 A49589A385                  9201                       TOPWD united
 000BAB A495A38993                  9203                       TOPWD until
 000BB0 A497969540                  9205                       TOPWD upon
 000BB5 A4A2854040                  9207                       TOPWD use
 000BBA A4A2858440                  9209                       TOPWD used
 000BBF A58599A840                  9211                       TOPWD very
 000BC4 A68195A340                  9213                       TOPWD want
 000BC9 A681994040                  9215                       TOPWD war
 000BCE A681A24040                  9217                       TOPWD was
 000BD3 A681A38599                  9219                       TOPWD water
 000BD8 A681A84040                  9221                       TOPWD way
 000BDD A685939340                  9223                       TOPWD well
 000BE2 A68595A340                  9225                       TOPWD went
 000BE7 A685998540                  9227                       TOPWD were
 000BEC A68881A340                  9229                       TOPWD what
 000BF1 A688859540                  9231                       TOPWD when
 000BF6 A688859985                  9233                       TOPWD where
 000BFB A68885A388                  9235                       TOPWD whether
 000C00 A688898388                  9237                       TOPWD which
 000C05 A688899385                  9239                       TOPWD while
 000C0A A68889A385                  9241                       TOPWD white
 000C0F A688964040                  9243                       TOPWD who
 000C14 A688969385                  9245                       TOPWD whole
 000C19 A688A84040                  9247                       TOPWD why
 000C1E A689939340                  9249                       TOPWD will
 000C23 A689A38840                  9251                       TOPWD with
 000C28 A689A38889                  9253                       TOPWD within
 000C2D A689A38896                  9255                       TOPWD without
 000C32 A696999240                  9257                       TOPWD work
 000C37 A696999384                  9259                       TOPWD world
 000C3C A696A49384                  9261                       TOPWD would
 000C41 A885819940                  9263                       TOPWD year
 000C46 A8858199A2                  9265                       TOPWD years
 000C4B A885A34040                  9267                       TOPWD yet
 000C50 A896999240                  9269                       TOPWD york
 000C55 A896A44040                  9271                       TOPWD you
 000C5A A896A49587                  9273                       TOPWD young
 000C5F A896A49940                  9275                       TOPWD your
 000C64 F9F9F9F9F9                  9277                       TOPWD 99999              9999 MARKS END OF LIST
1SPELL    (SPEL2025) (12:55) (15MAR04) SET WDICTIONARY Command                                                              Page   27
0Current Usings:  (CP,R11) (CV,R12)
0Loc    Object Code    Addr1 Addr2  Stmt Lv Lineno    Source Statement           (Hibal 5, Asmedit 3.3)  HLASM R4.0  2004/03/15 12.55
+___    ______ ____    _____ _____  ____ __ ______    ______ _________
0                                   9280                       QLTORG
1SPELL    (SPEL2025) (12:55) (15MAR04) SPELL - check spelling of active file                                                Page   28
0Current Usings:  (CP,R11) (CV,R12)
0Loc    Object Code    Addr1 Addr2  Stmt Lv Lineno    Source Statement           (Hibal 5, Asmedit 3.3)  HLASM R4.0  2004/03/15 12.55
+___    ______ ____    _____ _____  ____ __ ______    ______ _________
0                                   9333              ¿þþþþþþþþþþþþþþþþþþþþþþþþþþþþþþþþþþþþþþþþþþþþþþþþþþþþþþþþþþþþþþþþþþþþþÜ
                                    9334              Ÿ                                                                     Ÿ
                                    9335              Ÿ                                                                     Ÿ
                                    9336              Ÿ       SPELL command, Check spelling of active file range.           Ÿ
                                    9337              Ÿ                                                                     Ÿ
                                    9338              Ÿ                                                                     Ÿ
                                                      ¾þþþþþþþþþþþþþþþþþþþþþþþþþþþþþþþþþþþþþþþþþþþþþþþþþþþþþþþþþþþþþþþþþþþþþ»
0000000                00000 0038C  9339              SPWA     RECORD BEGIN ,,          SPELLING CHECK WORK AREA
 000000                             9347  1           SPPARMS    DS    0F                 * PARAMETER BLOCK PASSED TO SCAN
 000000 00                          9348  1           SPFLAGS    FLAG  ,                  * SCAN FLAGS
 SPFLAGS.SPSPECL   80 ONES          9352  1                      FLAG  SPSPECL            * SCAN SPECIAL,, DEFAULT NO SPECIAL
 SPFLAGS.SPNOUPP   40 ONES          9357  1                      FLAG  SPNOUPP            * DON'T SCAN UPPER, DEFAULT IS SCAN
 000004                             9362  1           SPSTART    DS    F                  * START OF STRING TO SCAN
 000008                             9363  1           SPPTR      DS    F                  * PLACE TO START SCANNING, UPDATED
 00000C                             9364  1           SPEND      DS    F                  * END OF SCAN STRING
 000010                             9365  1           SPWLEN     DS    F                  * LENGTH OF WORD SCANNED
 000014                             9366  1           SPWPTR     DS    F                  * POINTER TO WORD IN SCANNED STRING
 000018                             9367  1           SPWORD     DS    CL64               * WORD SCANNED (IN ORIGINAL CASE)
                                    9368  1                      COMMENT
 000058                             9369  1           SPDICPTR   DS    F                  ADDRESS OF DICTIONARY MEMORY
 00005C 00                          9370  1           SPFLGS     FLAG  ,
 SPFLGS.SPPSPELL   80 ONES          9374  1                      FLAG  SPPSPELL           PAGE MODE VERION OF SPELL COMMAND
 000060                             9379  1           SPLINENO   DS    F                  CURRENT LINE NUMBER
 000064                             9380  1           SPUCNT     DS    F                  UNKNOWN WORD COUNT
 000068                             9381  1           SPUEND     DS    F                  END OF UNKNOWN WORD LIST
 00006C                             9382  1           SPULIST    DS    800C               UNKNOWN WORD LIST
 00038C                0038C 0038C  9383                       END
                                    9392              ULEN     EQU   0                  UNKNOWN WORD LIST CONSISTS OF
                                    9393              UWORD    EQU   1                  1 BYTE LEN, N BYTES WORD, ETC.
-
                                    9395              ¿þþþþþþþþþþþþþþþþþþþþþþþþþþþþþþþþþþþþþþþþþþþþþþþþþþþþþþþþþþþþþþþþþþþþþÜ
                                    9396              Ÿ                                                                     Ÿ
                                    9397              Ÿ                                                                     Ÿ
                                    9398              Ÿ       SPELL - SPELL command                                         Ÿ
                                    9399              Ÿ                                                                     Ÿ
                                    9400              Ÿ  We check spelling of active file.  Unknown words that are found    Ÿ
                                    9401              Ÿ  are kept in a sorted list (SPULIST).  Each entry consists of       Ÿ
                                    9402              Ÿ  a length byte followed by the word.  Note that the same word       Ÿ
                                    9403              Ÿ  in different cases will be listed for each case.                   Ÿ
                                    9404              Ÿ                                                                     Ÿ
                                    9405              Ÿ  If in page mode, command causes all pages containing unknown       Ÿ
                                    9406              Ÿ  words to be displayed.                                             Ÿ
                                    9407              Ÿ                                                                     Ÿ
                                    9408              Ÿ                                                                     Ÿ
                                                      ¾þþþþþþþþþþþþþþþþþþþþþþþþþþþþþþþþþþþþþþþþþþþþþþþþþþþþþþþþþþþþþþþþþþþþþ»
0000E52 50E0 D000/9008_      00000  9409              SPELL    XPROC SPWA
 USING  *,R7
 USING  SPWA-(4+36),R8
 000E6C 4160 8028            00000  9460                       LA    R6,SPWA
 USING  SPWA,R6                     9461                       USING SPWA,R6
1SPELL    (SPEL2025) (12:55) (15MAR04) SPELL - check spelling of active file                                                Page   29
0Current Usings:  (SPWA,R6) (*,R7) (SPWA-(4+36),R8) (CP,R11) (CV,R12)
0Loc    Object Code    Addr1 Addr2  Stmt Lv Lineno    Source Statement           (Hibal 5, Asmedit 3.3)  HLASM R4.0  2004/03/15 12.55
+___    ______ ____    _____ _____  ____ __ ______    ______ _________
0                                   9470                       ¿þþþþþþþþþþþþþþþþþþþþþþþþÜ
                                    9471                       Ÿ  INITIALIZE WORK AREA  Ÿ
                                    9472                       ¾þþþþþþþþþþþþþþþþþþþþþþþþ»
 000E70 5060 BCA4            00CA4  9473                       ST    R6,CPCWA            Save work area pointer
 000E74 D7FF 6000 6000_00000 00000  9474                       CLEAR SPWA                Initialize work area
 000E8C 4110 606C            0006C  9484                       LA    R1,SPULIST
 000E90 5010 6068            00068  9485                       ST    R1,SPUEND
                                    9486                       ¿þþþþþþþþþþþþþþþþþþþþþþþþþþþÜ
                                    9487                       Ÿ  SET UP RANGE PROCESSOR,  Ÿ
                                    9488                       ¾þþþþþþþþþþþþþþþþþþþþþþþþþþþ»
                                    9489                       COMMENT                  OBTAIN WORK AREA AFTER CALL TO
                                    9490                       COMMENT                  RANGE PROCESSOR (DETRNG)
                                    9491                       COMMENT                  UGLY BUT NECESSARY FOR NOW.
                                    9492
 000E94 58E0 77CC/0DEE       01638  9493                       VCALL SCNEXFR            ALLOW ACTIVE/EXEC/FROM DSNAME
 000E9A 9610 BD50      00D50        9497                       SET   CPLFLG1.CPFALL     DEFAULT IS ALL
 000E9E 58E0 77D0/0DEE       0163C  9504                       VCALL NDETRNG            DETERMINE RANGE
                                    9508                       ¿þþþþþþþþþþþþþþþþþþþþþþþþþÜ
                                    9509                       Ÿ  LOCK SPELL DICTIONARY  Ÿ
                                    9510                       ¾þþþþþþþþþþþþþþþþþþþþþþþþþ»
 000EA4 58E0 77D4/0DEE       01640  9511                       ACALL GETDICT            GET SPELLING DICTIONARY
 000EAA 5010 6058            00058  9515                       ST    R1,SPDICPTR        R1 - DICTIONARY AREA ADDRESS
 000EAE 4770 7052            00EBE  9516                       IF    Z,BEGIN            IF NO DICTIONARY, ABORT COMMAND
 000EB2 4110 78B2/4100_      0171E  9527  1                      ABORT 'No spelling dictionary available.  Command ignored.'
 000EBE                             9534                       END
                                    9538              *$       SET   CPRFDICT           FREE DICTNRY USE COUNT IF ABORT
                                    9539                       ¿þþþþþþþþþþþþþþþþþþþþþþþþþþþþþþÜ
                                    9540                       Ÿ  SCAN REST OF SPELL COMMAND  Ÿ
                                    9541                       ¾þþþþþþþþþþþþþþþþþþþþþþþþþþþþþþ»
 000EBE 9503 BD89/4770_00D89        9542                       IF    CPFRDEXT,BEGIN
 000EC6 58E0 77D8/0DEE       01644  9557  1                      VCALL MKFFINFO
 000ECC 5810 B08C/1B00_      0008C  9561  1                      SCAN  SPLPRTX
 000F1E 58E0 77E4/0DEE       01650  9593  1                      SCANCHK
 000F24                             9598                       END
 000F24 70BC/47F0 7114 00F24 00EC4  9602                       ELSE  BEGIN
 000F28 5810 B08C/1B00_      0008C  9613  1                      SCAN  SPLPRT
 000F7A 58E0 77E4/0DEE       01650  9645  1                      SCANCHK
 000F80                             9650                       END
                                    9654              *
                                    9655              *   PROCESS LINES IN RANGE,, AS PER EXEC, EXTERN, ACTIVE
                                    9656              *
                                    9657              *
 000F80 9180 BAC8/47E0_00AC8        9658                       IF    CPVFPAGE,BEGIN     IF IN PAGE MODE,
 000F88 9680 605C      0005C        9673  1                      SET   SPPSPELL              DO PAGE MODE SPELL COMMAND
 000F8C 9680 BD59      00D59        9679  1                      SET   CPLFSPEL              ONE SHOT VIEW SPELL FLAG
 000F90                             9685                       END
                                    9689
                                    9690                       COMMENT                         IF EXEC,
 000F90 9502 BD89/4770_00D89        9691                       IF    CPFRDEXE,BEGIN
 000F98 947F 605C      0005C        9706  1                      CLEAR SPPSPELL                   DOES NOT WORK FOR PAGE MODE
 000F9C 947F BD59      00D59        9713  1                      CLEAR CPLFSPEL
 000FA0 5800 77EC/5810_      01658  9720  1                      RDRNG SPELLRTN,(DESRTRN+LEXATRTN+UNPRST+DESABORT)
 000FAE                             9727                       END
                                    9731
1SPELL    (SPEL2025) (12:55) (15MAR04) SPELL - check spelling of active file                                                Page   30
0Current Usings:  (SPWA,R6) (*,R7) (SPWA-(4+36),R8) (CP,R11) (CV,R12)
0Loc    Object Code    Addr1 Addr2  Stmt Lv Lineno    Source Statement           (Hibal 5, Asmedit 3.3)  HLASM R4.0  2004/03/15 12.55
+___    ______ ____    _____ _____  ____ __ ______    ______ _________
0                                   9732                       COMMENT                         IF EXTERNAL (SPELL FROM ..)
 000FAE 7146/47F0 7176_00FAE 00F96  9733                       ELSEIF CPFRDEXT,BEGIN
 000FBA 947F 605C      0005C        9757  1                      CLEAR SPPSPELL                   DOES NOT WORK FOR PAGE MODE
 000FBE 947F BD59      00D59        9764  1                      CLEAR CPLFSPEL
 000FC2 58E0 77F8/0DEE       01664  9771  1                      VCALL FNAMEFIN                   GET FILE NAME
 000FC8 58E0 77FC/0DEE       01668  9775  1                      VCALL EXTOPEN                    OPEN
 000FCE 12FF/4770 C7DE              9779  1                      IF    (R15,NZ),CVNEXT
 000FD4 5800 7800/5810_      0166C  9796  1                      RDRNG SPELLRTN,(DESRTRN+LXCATRTN+UNPRST+DESABORT)
 000FE2                             9803                       END
                                    9807
 000FE2 717A/47F0 7188 00FE2 00FB8  9808                       ELSE  BEGIN               IF RANGE FROM ACTIVE
 000FE6 5800 7804/5810_      01670  9819  1                      RDRNG SPELLRTN,(DESRTRN+LOCATRTN+UNPRST+DESABORT)
 000FF4                             9826                       END
                                    9830                       ¿þþþþþþþþþþþþþþþþþþþþþþþþþþÜ
                                    9831                       Ÿ  POST PROCESS PAGE MODE  Ÿ
                                    9832                       ¾þþþþþþþþþþþþþþþþþþþþþþþþþþ»
 000FF4 9180 605C/47E0_0005C        9833                       IF    SPPSPELL,BEGIN     IF PAGE MODE SPELL,,
 000FFC D503 77C8 6064_01634 00064  9848  1                      IF    (SPUCNT,EQ,0),BEGIN   IF NO ERRORS,
 001006 4110 7842/4100_      016AE  9866  2                        TSEG  'No misspelled words found.',,CR
 001018                             9884  1                      END
 001018 D503 77C8 6064_01634 00064  9888  1                      IF    (SPUCNT,NE,0),BEGIN   IF ERRORS, FORCE OUT LAST PAGE
 001022 D24F BAFC C4D8 00AFC 004D8  9906  2                        MVC   CPVMSG,CVBLANKS
 001028 9640 BAC9      00AC9        9907  2                        SET   CPVFREWR
 00102C 58E0 780C/0DEE       01678  9913  2                        VCALL PAGEMOD            WRITE OUT LAST PAGE,
 001032                             9917  1                      END
 001032 947F BD59      00D59        9921  1                      CLEAR CPLFSPEL           DONE WITH PAGE MODE SPELL COMMAND
 001036 47F0 723C            010A8  9928  1                      B     SPELLRET
 00103A                             9929                       END
                                    9933                       ¿þþþþþþþþþþþþþþþþþþþþþþþþþþþþþþþþþþþþþþþþÜ
                                    9934                       Ÿ  POST PROCESS LINE MODE SPELL COMMAND  Ÿ
                                    9935                       Ÿ                                        Ÿ
                                    9936                       Ÿ  PRINT OUT UNKNOWN WORD LIST AND EXIT  Ÿ
                                    9937                       ¾þþþþþþþþþþþþþþþþþþþþþþþþþþþþþþþþþþþþþþþþ»
 00103A 5840 6064            00064  9938                       L     R4,SPUCNT          R4 NUMBER OF UNKNOWN WORDS FOUND
 00103E 5940 7810/4770_      0167C  9939                       IF    (R4,EQ,0),BEGIN
 001046 4110 7842/4100_      016AE  9956  1                      TSEG  'No misspelled words found.',,CR
 001058                             9974                       END
 001058 71F0/47F0 723C 01058 01044  9978                       ELSE  BEGIN ,,,          MISPELLED WORDS FOUND,, WE LIST
 00105C 1814/1B00/41F0_             9989  1                      TNUM  (R4)
 00106A 4110 78E5/4100_      01751 10011  1                      TSEG  ' unknown words found.',,CR
 00107C 4110 606C            0006C 10029  1                      LA    R1,SPULIST         R1 - UNKNOWN WORD LIST
 001080 1B00                       10030  1                      SR    R0,R0
 001082 5940 7810/47D0_      0167C 10031  1                      WHILE (R4,GT,0),BEGIN    PRINT ALL UNKNOWN WORDS
 00108A 4301 0000            00000 10050  2                        IC    R0,ULEN(R1)        R1, R0 - UNKNOWN WORD ADDR, LEN
 00108E 4111 0001            00001 10051  2                        LA    R1,UWORD(R1)
 001092 58E0 7818/0DEE       01684 10052  2                        ACALL TLIST              LIST OUT EACH WORD
 001098 1A10                       10056  2                        AR    R1,R0
 00109A 0640                       10057  2                        BCTR  R4,0
 00109C 47F0 7216            01082 10058  1                      END
 0010A0 1B00                       10063  1                      SR    R0,R0              FORCE OUT LAST LINE OF UNKNOWNS
 0010A2 58E0 7818/0DEE       01684 10064  1                      ACALL TLIST
 0010A8                            10068                       END
1SPELL    (SPEL2025) (12:55) (15MAR04) SPELL - check spelling of active file                                                Page   31
0Current Usings:  (SPWA,R6) (*,R7) (SPWA-(4+36),R8) (CP,R11) (CV,R12)
0Loc    Object Code    Addr1 Addr2  Stmt Lv Lineno    Source Statement           (Hibal 5, Asmedit 3.3)  HLASM R4.0  2004/03/15 12.55
+___    ______ ____    _____ _____  ____ __ ______    ______ _________
0                                  10072                       ¿þþþþþþþþþþþþþþþþþþþþþþþþþþþÜ
                                   10073                       Ÿ  EXIT FROM SPELL COMMAND  Ÿ
                                   10074                       ¾þþþþþþþþþþþþþþþþþþþþþþþþþþþ»
 0010A8                            10075              SPELLRET LABEL ,                  RETURN FROM CHECK COMMAND
 0010A8 5810 6058            00058 10077                       L     R1,SPDICPTR        FREE LOCKED DICTIONARY
 0010AC 58E0 781C/0DEE       01688 10078                       ACALL FREEDICT
 0010B2 94FB B8AA      008AA       10082                       CLEAR CPRFDICT           DICTNRY IS FREED
 0010B6 47F0 C7DE            007DE 10089                       B     CVNEXT
 0010BA 18D8/9808 D004_            10090                       PEND  ,
 DROP   SPWA-(4+36),R8
 DROP   *,R7
                                   10115
 0010C8 C6D9D6D440404040_          10116              SPLPRTX  SCKW  FROM,V(FNAMESCN),A
 0010F0 4040404040404040_          10131                       SCKW  ,V(FNAMPSHF),PUSH
 001118 C5E7C5C3E4E3C540_          10146                       SCKW  EXECUTE,V(SCNNOOP),A
 001140 C1C3E3C9E5C54040_          10161                       SCKW  ACTIVE,V(SCNNOOP),A
 001168 4040404040404040_          10176                       SCKW  ,V(LTNPSH),PUSH     Allow NOLIST
 001190 4040404040404040_          10191                       SCKW  ,V(QUIETPSH),PUSH
 0011B8 4040404040404040_          10206                       SCKW  ,V(COLLPSH),PUSH
 0011E0 4040404040404040_          10221                       SCKW  ,INVSPELL
                                   10236
 001208 C5E7C5C3E4E3C540_          10237              SPLPRT   SCKW  EXECUTE,V(SCNNOOP),A
 001230 C1C3E3C9E5C54040_          10252                       SCKW  ACTIVE,V(SCNNOOP),A
 001258 4040404040404040_          10267                       SCKW  ,V(LTNPSH),PUSH     Allow NOLIST
 001280 4040404040404040_          10282                       SCKW  ,V(QUIETPSH),PUSH
 0012A8 4040404040404040_          10297                       SCKW  ,V(COLLPSH),PUSH
 0012D0 4040404040404040_          10312                       SCKW  ,INVSPELL
                                   10327
 0012F8 50E0 D000/9008_      00000 10328              INVSPELL PROC  ,
 USING  *,R7
 001312 41F0 B050/58E0_      00050 10367                       TSEG  (R1),(R0)
 00131C 4110 7454/4100_      01766 10391                       TSEG  ': invalid line range.',,CR
 00132E 4110 7469/4100_      0177B 10409                       TSEG  '(The command "GUESS word" can be used to '
 001340 4110 73B6/4100_      016C8 10427                       ERROR 'check the spelling of a word.)'
 00134C 18D8/9808 D004_            10434                       PEND
 DROP   *,R7
1SPELL    (SPEL2025) (12:55) (15MAR04) SPELL - check spelling of active file                                                Page   32
0Current Usings:  (SPWA,R6) (CP,R11) (CV,R12)
0Loc    Object Code    Addr1 Addr2  Stmt Lv Lineno    Source Statement           (Hibal 5, Asmedit 3.3)  HLASM R4.0  2004/03/15 12.55
+___    ______ ____    _____ _____  ____ __ ______    ______ _________
0                                  10455              ¿þþþþþþþþþþþþþþþþþþþþþþþþþþþþþþþþþþþþþþþþþþþþþþþþþþþþþþþþþþþþþþþþþþþþþÜ
                                   10456              Ÿ                                                                     Ÿ
                                   10457              Ÿ                                                                     Ÿ
                                   10458              Ÿ       SPELL CO-ROUTINE                                              Ÿ
                                   10459              Ÿ                                                                     Ÿ
                                   10460              Ÿ  ON ENTRY: R1,R0 - LOC, LEN OF LINE TEXT                            Ÿ
                                   10461              Ÿ                                                                     Ÿ
                                   10462              Ÿ  WE CHECK THE SPELLING OF EACH WORD IN LINE, IF WORD IS             Ÿ
                                   10463              Ÿ  UNKOWN WE ADD IT TO THE UNKOWN WORD LIST.  OH YEAH !               Ÿ
                                   10464              Ÿ                                                                     Ÿ
                                   10465              Ÿ  IF IN PAGE MODE, WE DISPLAY THOSE PAGES CONTAINING UNKNOWN         Ÿ
                                   10466              Ÿ  WORDS.                                                             Ÿ
                                   10467              Ÿ                                                                     Ÿ
                                   10468              Ÿ                                                                     Ÿ
                                                      ¾þþþþþþþþþþþþþþþþþþþþþþþþþþþþþþþþþþþþþþþþþþþþþþþþþþþþþþþþþþþþþþþþþþþþþ»
000135A 50E0 D000/9008_      00000 10469              SPELLRTN PROC  ,
 USING  *,R7
 001374 5860 BCA4            00CA4 10508                       L     R6,CPCWA           GET CHECK WORK AREA
                                   10509                       USING SPWA,R6
 001378 5820 B73C            0073C 10511                       L     R2,CPLCNO          SAVE CURRENT LINE NUMBER
 00137C 5020 6060            00060 10512                       ST    R2,SPLINENO
                                   10513
 001380 5010 6004            00004 10514                       ST    R1,SPSTART         R1 - START OF LINE TO SCAN
 001384 5010 6008            00008 10515                       ST    R1,SPPTR           R1 - SCAN POINTER,, UPDATED EACH
 001388 1A01                       10516                       AR    R0,R1                   ON EACH CALL TO SCAN
 00138A 5000 600C            0000C 10517                       ST    R0,SPEND  ,        R0 - END TO LINE TO SCAN
 00138E 4110 6000            00000 10518                       LA    R1,SPPARMS         R1 - SCAN PARM BLOCK
 001392 58E0 731C/0DEE       01690 10519                       ACALL SCANTEXT           SCAN TEXT LINE
 001398 4770 70A2            01416 10523                       WHILE Z,BEGIN            LOOP SCANNING EACH TEXT WORD
 00139C 4110 6018            00018 10536  1                      LA    R1,SPWORD
 0013A0 5800 6010            00010 10537  1                      L     R0,SPWLEN          R1,R0 - TEXT WORD ADDR, LENGTH
 0013A4 58E0 7320/0DEE       01694 10538  1                      ACALL CHECKWD            SEE IF WORD IS IN DICTIONARY
                                   10542  1                      ¿þþþþþþþþþþþþþþþþþþþþþþþþþþþþþþþþþþþþþþþþþþþþþþþþþþþþþþþÜ
                                   10543  1                      Ÿ  IF WORD NOT FOUND IN DICTIONARY   --- REGULAR SPELL  Ÿ
                                   10544  1                      ¾þþþþþþþþþþþþþþþþþþþþþþþþþþþþþþþþþþþþþþþþþþþþþþþþþþþþþþþ»
 0013AA 4780 7094            01408 10545  1                      IF    NZ,BEGIN
 0013AE 9180 605C/4710_0005C       10556  2                        IF    ~SPPSPELL,BEGIN    IF NOT PAGE MODE AND IF ...
 0013B6 58E0 7324/0DEE       01698 10571  3                          ACALL ADDUN              IF NOT IN DICTIONARY, ADD WORD TO
                                   10575  3                          COMMENT                     UNKOWN WORD LIST
 0013BC                            10576  2                        END
                                   10580  2                        ¿þþþþþþþþþþþþþþþþþþþþþþþþþþþþþþþþþþþþþþþþþþþþþþþþþþþþþþþþÜ
                                   10581  2                        Ÿ  IF WORD NOT FOUND IN DICTIONARY  --- VIEW MODE SPELL  Ÿ
                                   10582  2                        ¾þþþþþþþþþþþþþþþþþþþþþþþþþþþþþþþþþþþþþþþþþþþþþþþþþþþþþþþþ»
 0013BC 9180 605C/47E0_0005C       10583  2                        IF    SPPSPELL,BEGIN
 0013C4 9201 6064      00064       10598  3                          MVI   SPUCNT,X'01'       MARK THAT WE HAVE UNKOWN WORDS
 0013C8 58F0 6060            00060 10599  3                          L     R15,SPLINENO
 0013CC 58E0 7328/0DEE       0169C 10600  3                          VCALL PAGELINE           MARK LINE FOR PAGE OUTPUT
 0013D2 4780 7094            01408 10604  3                          IF    NZ,BEGIN           IF LINE NOT ON CURRENT PAGE
 0013D6 D24F BAFC C4D8 00AFC 004D8 10615  4                            MVC   CPVMSG,CVBLANKS
 0013DC D242 BAFC 70B0 00AFC 01424 10616  4                            MVC   CPVMSG(L'SPLLMSG),SPLLMSG
 0013E2 9640 BAC9      00AC9       10617  4                            SET   CPVFREWR
 0013E6 58E0 7304/0DEE       01678 10623  4                            VCALL PAGEMOD            WRITE CURRENT,
 0013EC 4780 708A            013FE 10627  4                            IF    NZ,BEGIN              IF PAGE MODE BREAK,
1SPELL    (SPEL2025) (12:55) (15MAR04) SPELL - check spelling of active file                                                Page   33
0Current Usings:  (SPWA,R6) (*,R7) (CP,R11) (CV,R12)
0Loc    Object Code    Addr1 Addr2  Stmt Lv Lineno    Source Statement           (Hibal 5, Asmedit 3.3)  HLASM R4.0  2004/03/15 12.55
+___    ______ ____    _____ _____  ____ __ ______    ______ _________
00013F0 947F BD59      00D59       10638  5                              CLEAR CPLFSPEL              NO MORE PAGE MODE SPELL
 0013F4 58E0 732C/0DEE       016A0 10645  5                              VCALL RNGABORT              ABORT RANGE,,
 0013FA 47F0 C7DA            007DA 10649  5                              B     CVABORT               ABORT COMMAND
 0013FE                            10650  4                            END
 0013FE 58F0 6060            00060 10654  4                            L     R15,SPLINENO       START NEW CURRENT PAGE W/LAST LINE
 001402 58E0 7328/0DEE       0169C 10655  4                            VCALL PAGELINE
 001408                            10659  3                          END
 001408                            10663  2                        END
 001408                            10667  1                      END   ,, ,               END OF WORD NOT IN DICTIONARY
                                   10671  1           *
                                   10672  1           *                                 LOOP THRU ALL LINES IN RANGE
 001408 4110 6000            00000 10673  1                      LA    R1,SPPARMS         R1 - SCAN PARM BLOCK
 00140C 58E0 731C/0DEE       01690 10674  1                      ACALL SCANTEXT           SCAN NEXT TEXT WORD, AND LOOP
 001412 47F0 7024            01398 10678                       END
                                   10683                       ¿þþþþþþþþþþþþþþþÜ
                                   10684                       Ÿ  DONE. EXIT.  Ÿ
                                   10685                       ¾þþþþþþþþþþþþþþþ»
 001416 18D8/9808 D004_            10686                       PEND  ,
 DROP   *,R7
-
-001424 D79985A2A240C3D6           10707              SPLLMSGX DC    C'Press CONTINUE [ESC RETURN] '
 001440 869699409585A7A3           10708                       DC    C'for next page containing unknown words.'
                                   10709              SPLLMSG  EQU   SPLLMSGX,*-SPLLMSGX,C'X'
1SPELL    (SPEL2025) (12:55) (15MAR04) SPELL - check spelling of active file                                                Page   34
0Current Usings:  (SPWA,R6) (CP,R11) (CV,R12)
0Loc    Object Code    Addr1 Addr2  Stmt Lv Lineno    Source Statement           (Hibal 5, Asmedit 3.3)  HLASM R4.0  2004/03/15 12.55
+___    ______ ____    _____ _____  ____ __ ______    ______ _________
0000000                00000 003E0 10711              ADWA     RECORD BEGIN ,,          ADD UNKNOWN WORD WORK AREA
 000000                            10719  1           ADWORD     DS    64C                WORD TO ADD (IN LOWER CASE)
 000040                            10720  1           ADENTRY    DS    64C                WORD IN LIST (IN LOWER CASE)
 000080                            10721  1           ADBLANKS   DS    64C                BLANKS
 0000C0                            10722  1           ADSPACE    DS    800C               SPACE
 0003E0                003E0 003E0 10723                       END   ,,,
                                   10732              ¿þþþþþþþþþþþþþþþþþþþþþþþþþþþþþþþþþþþþþþþþþþþþþþþþþþþþþþþþþþþþþþþþþþþþþÜ
                                   10733              Ÿ                                                                     Ÿ
                                   10734              Ÿ                                                                     Ÿ
                                   10735              Ÿ       ADDUN - ADD WORD TO UNKNOWN WORD LIST                         Ÿ
                                   10736              Ÿ                                                                     Ÿ
                                   10737              Ÿ       WORD TO INSERT INTO SPULIST IS IN SPWORD                      Ÿ
                                   10738              Ÿ                                                                     Ÿ
                                   10739              Ÿ                                                                     Ÿ
                                                      ¾þþþþþþþþþþþþþþþþþþþþþþþþþþþþþþþþþþþþþþþþþþþþþþþþþþþþþþþþþþþþþþþþþþþþþ»
0001468 50E0 D000/9008_      00000 10740              ADDUN    PROC  ,
 USING  *,R7
                                   10779                       ¿þþþþþþþþþþþþþþþþþþþþþþþÜ
                                   10780                       Ÿ  SEE IF WORD IN LIST  Ÿ
                                   10781                       ¾þþþþþþþþþþþþþþþþþþþþþþþ»
 001482 1B33                       10782                       SR    R3,R3
 001484 4140 606C            0006C 10783                       LA    R4,SPULIST         R4 - ADDR OF UNKOWN WORD ENTRY
 001488 5850 6068            00068 10784                       L     R5,SPUEND          R5 - END OF UNKNOWN LIST
                                   10785                       COMMENT
 00148C 1945/47B0 7032             10786                       WHILE (R4,LT,R5),BEGIN   SEARCH THRU LIST
 001492 4334 0000            00000 10803  1                      IC    R3,ULEN(R4)        R3 - UNKNOWN WORD LENGTH
 001496 5930 6010            00010 10804  1                      C     R3,SPWLEN          IF WORD LENGTHS EQUAL, COMPARE
 00149A 4770 702A            014AC 10805  1                      IF    E,BEGIN
 00149E 0630/4430 7324_            10816  2                        DEX   R3,' CLC SPWORD(0),UWORD(R4)'
 0014A4 4133 0001            00001 10835  2                        LA    R3,1(R3)
 0014A8 4780 717A            015FC 10836  2                        BE    ADDEXIT            IF IN LIST, NO NEED TO ADD WORD
 0014AC                            10837  1                      END
 0014AC 4143 4001            00001 10841  1                      LA    R4,UWORD(R3,R4)    BUMP TO NEXT WORD IN LIST
 0014B0 47F0 700A            0148C 10842                       END
                                   10847                       ¿þþþþþþþþþþþþþþþþþþþþþþþþþþþþþþþÜ
                                   10848                       Ÿ  IF WORD NOT IN LIST, ADD IT  Ÿ
                                   10849                       ¾þþþþþþþþþþþþþþþþþþþþþþþþþþþþþþþ»
 0014B4 4140 638C            0038C 10850                       LA    R4,SPULIST+800     R4 - MAXIMUM END OF LIST
 0014B8 5850 6068            00068 10851                       L     R5,SPUEND          R5 - CURRENT LIST END
 0014BC 5A50 6010            00010 10852                       A     R5,SPWLEN          R5 - LIST END AFTER ADDITION
 0014C0 4155 0001            00001 10853                       LA    R5,UWORD(R5)
 0014C4 1954                       10854                       CR    R5,R4              IF ADDITION CAUSES OVERFLOW,
 0014C6 4720 70FC            0157E 10855                       BH    ADDOVERF               GIVE ERR AND THE RESULTS SO
                                   10856                       COMMENT
                                   10857                       COMMENT                  IF NO OVERFLOW, ADD TO LIST
 0014CA 182D/41D0 D3E0             10858                       XPUSH ,,L'ADWA,PTR=R2
 USING  ADWA,R2                    10861                       USING ADWA,R2
 0014D0 5810 7222            016A4 10870                       L     R1,=A(BLANKS)
 0014D4 D23F 2080 1000 00080 00000 10871                       MVC   ADBLANKS(64),0(R1) INITIALIZE ADD WORK AREA
 0014DA D23F 2000 6018 00000 00018 10872                       MVC   ADWORD(64),SPWORD  WORD TO ADD (IN LOWER CASE)
 0014E0 5810 7226            016A8 10873                       L     R1,=A(LOWERTAB)
 0014E4 DC3F 2000 1000 00000 00000 10874                       TR    ADWORD(64),0(R1)
 0014EA 4140 606C            0006C 10875                       LA    R4,SPULIST         R4 - UNKOWN WORD LIST ENTRY
1SPELL    (SPEL2025) (12:55) (15MAR04) SPELL - check spelling of active file                                                Page   35
0Current Usings:  (ADWA,R2) (SPWA,R6) (*,R7) (CP,R11) (CV,R12)
0Loc    Object Code    Addr1 Addr2  Stmt Lv Lineno    Source Statement           (Hibal 5, Asmedit 3.3)  HLASM R4.0  2004/03/15 12.55
+___    ______ ____    _____ _____  ____ __ ______    ______ _________
00014EE 5850 6068            00068 10876                       L     R5,SPUEND          R5 - END OF UNKNOWN LIST
 0014F2 1945/47B0 70A2             10877                       WHILE (R4,LT,R5),BEGIN
 0014F8 4334 0000            00000 10894  1                      IC    R3,0(R4)           R3 - UNKOWN WORD LENGTH
 0014FC D23F 2040 2080 00040 00080 10895  1                      MVC   ADENTRY(64),ADBLANKS
 001502 0630/4430 732A_            10896  1                      DEX   R3,' MVC ADENTRY(0),UWORD(R4) '  GET UNKNOWN ENTRY
 001508 4133 0001            00001 10915  1                      LA    R3,1(R3)
 00150C DC3F 2040 1000 00040 00000 10916  1                      TR    ADENTRY(64),0(R1)  UNKNOWN WORD ENTRY IN LOWER CASE
 001512 D53F 2000 2040 00000 00040 10917  1                      CLC   ADWORD(64),ADENTRY COMPARE NEW WORD TO ENTRY WORD
 001518 4740 70A6            01528 10918  1                      BL    INSERTWD           IF PLACE TO INSERT NEW,
 00151C 4143 4001            00001 10919  1                      LA    R4,UWORD(R3,R4)              DO IT TO IT
 001520 47F0 7070            014F2 10920                       END
 001524 47F0 70A6            01528 10925                       B     INSERTWD
                                   10926                       ¿þþþþþþþþþþþþþþþþþþþþþÜ
                                   10927                       Ÿ  INSERT WORD AT R4  Ÿ
                                   10928                       ¾þþþþþþþþþþþþþþþþþþþþþ»
 001528                            10929              INSERTWD LABEL ,                  MOVE TEXT TO OPEN PLACE FOR NEW
                                   10931                       COMMENT                     ENTRY IN UNKNOWN WORD LIST
                                   10932                       COMMENT
 001528 1834                       10933                       LR    R3,R4              R4 - PLACE TO INSERT WORD
 00152A 1B54                       10934                       SR    R5,R4              R5 - LENGTH OF STUFF TO MOVE
 00152C 4100 20C0            000C0 10935                       LA    R0,ADSPACE         RIPPLE MOVE BY MOVING TO STACK
 001530 1815                       10936                       LR    R1,R5
 001532 0E04                       10937                       MVCL  R0,R4
 001534 1843                       10938                       LR    R4,R3              R4 - PLACE TO INSERT WORD
 001536 5830 6010            00010 10939                       L     R3,SPWLEN          R3 - WORD LENGTH
 00153A 4234 0000            00000 10940                       STC   R3,ULEN(R4)        SAVE WORD LENGTH, SAVE WORD
 00153E 0630/4430 7330_            10941                       DEX   R3,' MVC UWORD(0,R4),SPWORD '
 001544 4133 0001            00001 10960                       LA    R3,1(R3)
 001548 5850 6068            00068 10961                       L     R5,SPUEND
 00154C 1B54                       10962                       SR    R5,R4              R5 - LENGTH OF STUFF TO MOVE
 00154E 4143 4001            00001 10963                       LA    R4,UWORD(R3,R4)    R4 - PLACE TO MOVE STUFF
 001552 4100 20C0            000C0 10964                       LA    R0,ADSPACE         RESTORE END OF LIST FROM STACK
 001556 1815                       10965                       LR    R1,R5
 001558 0E40                       10966                       MVCL  R4,R0              MOVE BACK ENDING ENTRIES
 00155A 5850 6068            00068 10967                       L     R5,SPUEND
 00155E 5A50 6010            00010 10968                       A     R5,SPWLEN          UPDATE END OF UNKNOWN LIST PTR
 001562 4155 0001            00001 10969                       LA    R5,UWORD(R5)          AND BUMP UNKNOWN WORD COUNT
 001566 5050 6068            00068 10970                       ST    R5,SPUEND
 00156A 5810 6064            00064 10971                       L     R1,SPUCNT
 00156E 4111 0001            00001 10972                       LA    R1,1(R1)
 001572 5010 6064            00064 10973                       ST    R1,SPUCNT
 001576 4BD0 7264            016E6 10974                       XPOP  ,,L'ADWA
 00157A 47F0 717A            015FC 10976                       B     ADDEXIT            BYE FOR NOW
-
                                   10978                       ¿þþþþþþþþþþþþþþþþþþþþþþþþþþþþþþþþþþþþþþþþþþþþþþþþþþþþþþþþþþþÜ
                                   10979                       Ÿ  IF OVER FLOW, PRINT ERROR AND PARTIAL UNKNOWN WORD LIST  Ÿ
                                   10980                       ¾þþþþþþþþþþþþþþþþþþþþþþþþþþþþþþþþþþþþþþþþþþþþþþþþþþþþþþþþþþþ»
 00157E                            10981              ADDOVERF LABEL ,
 00157E 5840 6064            00064 10983                       L     R4,SPUCNT          R4 - NUMBER OF UNKOWN WORDS
 001582 1814/1B00/41F0_            10984                       TNUM  (R4)
 001590 4110 72CF/4100_      01751 11006                       TSEG  ' unknown words found.',,CR
 0015A2 4110 606C            0006C 11024                       LA    R1,SPULIST         R1 - UNKNOWN WORD LIST
1SPELL    (SPEL2025) (12:55) (15MAR04) SPELL - check spelling of active file                                                Page   36
0Current Usings:  (ADWA,R2) (SPWA,R6) (*,R7) (CP,R11) (CV,R12)
0Loc    Object Code    Addr1 Addr2  Stmt Lv Lineno    Source Statement           (Hibal 5, Asmedit 3.3)  HLASM R4.0  2004/03/15 12.55
+___    ______ ____    _____ _____  ____ __ ______    ______ _________
00015A6 1B00                       11025                       SR    R0,R0
 0015A8 5940 71FA/47D0_      0167C 11026                       WHILE (R4,GT,0),BEGIN    PRINT ALL UNKNOWN WORDS
 0015B0 4301 0000            00000 11045  1                      IC    R0,ULEN(R1)        R1,R0 - UNKNOWN WORD ADDR, LEN
 0015B4 4111 0001            00001 11046  1                      LA    R1,UWORD(R1)
 0015B8 58E0 7202/0DEE       01684 11047  1                      ACALL TLIST              LIST OUT EACH WORD
 0015BE 1A10                       11051  1                      AR    R1,R0
 0015C0 0640                       11052  1                      BCTR  R4,0
 0015C2 47F0 7126            015A8 11053                       END
 0015C6 1B00                       11058                       SR    R0,R0              FORCE OUT LAST LINE OF UNKNOWNS
 0015C8 58E0 7202/0DEE       01684 11059                       ACALL TLIST
 0015CE 4110 7322/4100_      017A4 11063                       TSEG  ' ',,CR
 0015E0 4110 7266/4100_      016E8 11081                TSEG  'Unknown word list is too long; this is a partial list.',,CR
 0015F2 58E0 721E/0DEE       016A0 11099                       VCALL RNGABORT           ABORT SPELL COMMAND
 0015F8 47F0 C7DA            007DA 11103                       B     CVABORT
-
                                   11105                       ¿þþþþþþþþþþþþþþþþþþþþþþþþþþþþþþÜ
                                   11106                       Ÿ  UNKOWN WORD ADDED, WE EXIT  Ÿ
                                   11107                       ¾þþþþþþþþþþþþþþþþþþþþþþþþþþþþþþ»
 0015FC                            11108              ADDEXIT  LABEL ,
 0015FC 18D8/9808 D004_            11110                       PEND  ,
 DROP   *,R7
 DROP   ADWA,R2                    11130                       DROP  R2,R6
 DROP   SPWA,R6
1SPELL    (SPEL2025) (12:55) (15MAR04) SPELL - check spelling of active file                                                Page   37
0Current Usings:  (CP,R11) (CV,R12)
0Loc    Object Code    Addr1 Addr2  Stmt Lv Lineno    Source Statement           (Hibal 5, Asmedit 3.3)  HLASM R4.0  2004/03/15 12.55
+___    ______ ____    _____ _____  ____ __ ______    ______ _________
0                                  11144              ¿þþþþþþþþþþþþþþþþþþþþþþþþþþþþþþþþþþþþþþþþþþþþþþþþþþþþþþþþþþþþþþþþþþþþþÜ
                                   11145              Ÿ                                                                     Ÿ
                                   11146              Ÿ                                                                     Ÿ
                                   11147              Ÿ  DICTCLS - DECREMENT DICTIONARY USE COUNT, CALLED ONLY IF SPELL     Ÿ
                                   11148              Ÿ            COMMAND IS ABORTED,                                      Ÿ
                                   11149              Ÿ                                                                     Ÿ
                                   11150              Ÿ                                                                     Ÿ
                                                      ¾þþþþþþþþþþþþþþþþþþþþþþþþþþþþþþþþþþþþþþþþþþþþþþþþþþþþþþþþþþþþþþþþþþþþþ»
000160A 50E0 D000/9008_      00000 11151              DICTCLS  XPROC  ,
 USING  *,R7
                                   11191              *$
                                   11192              *$ TEMP ZAP TO FIX IGNORE USE COUNT STUFF
                                   11193              *$
 001624 18D8/9808 D004_            11194                       PEND  ,
 DROP   *,R7
                                   11214              *        L     R6,CPCWA           CHECK WORK AREA STILL VALID
                                   11215              *        USING SPWA,R6
                                   11216              *        L     R1,SPDICPTR        R1 - DICTNRY ADDRESS
                                   11217              *        ACALL FREEDICT           DECREMENT DICTNRY USE COUNT
                                   11218              *        CLEAR CPRFDICT           DICTNRY USE COUNT DECRMTED
                                   11219              *        PEND  ,
                                   11220              *        DROP  R6
1SPELL    (SPEL2025) (12:55) (15MAR04) SPELL - check spelling of active file                                                Page   38
0Current Usings:  (CP,R11) (CV,R12)
0Loc    Object Code    Addr1 Addr2  Stmt Lv Lineno    Source Statement           (Hibal 5, Asmedit 3.3)  HLASM R4.0  2004/03/15 12.55
+___    ______ ____    _____ _____  ____ __ ______    ______ _________
0                                  11222                       QLTORG
1SPELL    (SPEL2025) (12:55) (15MAR04) SPELLINE - check spelling of a line for view                                         Page   39
0Current Usings:  (CP,R11) (CV,R12)
0Loc    Object Code    Addr1 Addr2  Stmt Lv Lineno    Source Statement           (Hibal 5, Asmedit 3.3)  HLASM R4.0  2004/03/15 12.55
+___    ______ ____    _____ _____  ____ __ ______    ______ _________
0                                  11275              ¿þþþþþþþþþþþþþþþþþþþþþþþþþþþþþþþþþþþþþþþþþþþþþþþþþþþþþþþþþþþþþþþþþþþþþÜ
                                   11276              Ÿ                                                                     Ÿ
                                   11277              Ÿ  SPELLINE -- Routine to check the spelling of every word in         Ÿ
                                   11278              Ÿ    the line passed to it.  This routine is called by the page       Ÿ
                                   11279              Ÿ    manager for the VIEW command if the user wants automatic         Ÿ
                                   11280              Ÿ    spelling checking.                                               Ÿ
                                   11281              Ÿ                                                                     Ÿ
                                   11282              Ÿ    On entry:                                                        Ÿ
                                   11283              Ÿ      R1,R0 - Line loc, len                                          Ÿ
                                   11284              Ÿ      R2 - Rendition line buffer  (may be zero)                      Ÿ
                                   11285              Ÿ      R15 - column number                                            Ÿ
                                   11286              Ÿ                                                                     Ÿ
                                   11287              Ÿ     On exit, R15 (and cc):                                          Ÿ
                                   11288              Ÿ       0 - no misspelled words in line after column specified        Ÿ
                                   11289              Ÿ       pos - column number of next mispelled word.                   Ÿ
                                   11290              Ÿ                                                                     Ÿ
                                   11291              Ÿ     On exit, redition buffer:                                       Ÿ
                                   11292              Ÿ       The X'01' bit is set in the rendition line buffer             Ÿ
                                   11293              Ÿ       for every position where there is a character of a            Ÿ
                                   11294              Ÿ       misspelled word.                                              Ÿ
                                   11295              Ÿ                                                                     Ÿ
                                   11296              Ÿ                                                                     Ÿ
                                   11297              Ÿ                                                                     Ÿ
                                                      ¾þþþþþþþþþþþþþþþþþþþþþþþþþþþþþþþþþþþþþþþþþþþþþþþþþþþþþþþþþþþþþþþþþþþþþ»
0000000                00000 00064 11298              SLWA     RECORD BEGIN ,           SPELL LINE WORK AREA
 000000                            11306  1           SLBUF      DS    F                  REDITION BUFFER ADDR
 000004                            11307  1           SLCOL      DS    F                  COLUMN NUMBER AT ENTRY (IN R15)
 000008                            11308  1           SLCOLRET   DS    F                  COLUMN NUMBER TO RETURN
                                   11309  1                      COMMENT
                                   11310  1                      COMMENT                  COPY OF SCAN PARM BLOCK
 00000C                            11311  1           SLPARMS    DS    0F                 * PARAMETER BLOCK PASSED TO SCAN
 00000C 00                         11312  1           SLFLAGS    FLAG  ,                  * SCAN FLAGS
 SLFLAGS.SLSPECL   80 ONES         11316  1                      FLAG  SLSPECL            * SCAN SPECIAL,, DEFAULT NO SPECIAL
 SLFLAGS.SLNOUPP   40 ONES         11321  1                      FLAG  SLNOUPP            * DON'T SCAN UPPER, DEFAULT IS SCAN
 000010                            11326  1           SLSTART    DS    F                  * START OF STRING TO SCAN
 000014                            11327  1           SLPTR      DS    F                  * PLACE TO START SCANNING, UPDATED
 000018                            11328  1           SLEND      DS    F                  * END OF SCAN STRING
 00001C                            11329  1           SLWLEN     DS    F                  * LENGTH OF WORD SCANNED
 000020                            11330  1           SLWPTR     DS    F                  * POINTER TO WORD IN SCANNED STRING
 000024                            11331  1           SLWORD     DS    CL64               * WORD SCANNED (IN ORIGINAL CASE)
 000064                00064 00064 11332                       END
-
                                   11342                       ¿þþþþþþþþþþþþþÜ
                                   11343                       Ÿ  SCAN TEXT  Ÿ
                                   11344                       ¾þþþþþþþþþþþþþ»
 0017B8 50E0 D000/9008_      00000 11345              SPELLINE XPROC SLWA
 USING  *,R7
 USING  SLWA-(4+36),R8
 0017D2 D763 8028 8028 00000 00000 11396                       CLEAR SLWA               INITIALIZE WORK AREA,,,
                                   11403                       COMMENT                       RET COL #, SET TO ZERO
 0017D8 5010 8038            00010 11404                       ST    R1,SLSTART              START OF LINE TO SCAN
1SPELL    (SPEL2025) (12:55) (15MAR04) SPELLINE - check spelling of a line for view                                         Page   40
0Current Usings:  (*,R7) (SLWA-(4+36),R8) (CP,R11) (CV,R12)
0Loc    Object Code    Addr1 Addr2  Stmt Lv Lineno    Source Statement           (Hibal 5, Asmedit 3.3)  HLASM R4.0  2004/03/15 12.55
+___    ______ ____    _____ _____  ____ __ ______    ______ _________
00017DC 5010 803C            00014 11405                       ST    R1,SLPTR                SCAN POINTER,, UPDATED EACH
 0017E0 1A01                       11406                       AR    R0,R1
 0017E2 5000 8040            00018 11407                       ST    R0,SLEND                END OF LINE TO SCAN
 0017E6 5020 8028            00000 11408                       ST    R2,SLBUF                REDITION BUFFER
 0017EA 50F0 802C            00004 11409                       ST    R15,SLCOL               COLUMN NUMBER
                                   11410                       ¿þþþþþþþþþþþþþþþþþþþþþþþþþþþþþþþþþþþÜ
                                   11411                       Ÿ  SCAN EACH LINE, CHECK EACH WORD  Ÿ
                                   11412                       ¾þþþþþþþþþþþþþþþþþþþþþþþþþþþþþþþþþþþ»
 0017EE 4110 8034            0000C 11413                       LA    R1,SLPARMS         R1 - SCAN PARM BLOCK
 0017F2 58E0 70E6/0DEE       018B8 11414                       ACALL SCANTEXT           SCAN TEXT LINE
 0017F8 4770 708C            0185E 11418                       WHILE Z,BEGIN            LOOP SCANNING EACH TEXT WORD
 0017FC 4110 804C            00024 11431  1                      LA    R1,SLWORD
 001800 5800 8044            0001C 11432  1                      L     R0,SLWLEN          R1,R0 - TEXT WORD ADDR, LENGTH
 001804 58E0 70EA/0DEE       018BC 11433  1                      ACALL CHECKWD            SEE IF WORD IS IN DICTIONARY
                                   11437  1                      ¿þþþþþþþþþþþþþþþþþþþþþþþþþþþþþþþþþþþþþþþþþþþþþþþþþþþþþþþþþþþþþÜ
                                   11438  1                      Ÿ  IF WORD NOT IN DICTIONARY, GET COLUMN, MARK SHADOW BUFFER  Ÿ
                                   11439  1                      ¾þþþþþþþþþþþþþþþþþþþþþþþþþþþþþþþþþþþþþþþþþþþþþþþþþþþþþþþþþþþþþ»
 00180A 4780 707E            01850 11440  1                      IF    NZ,BEGIN           IF WORD NOT IN DICTIONARY,,,
 00180E 5810 8048            00020 11451  2                        L     R1,SLWPTR
 001812 5B10 8038            00010 11452  2                        S     R1,SLSTART         R1 - OFFSET OF WORD
 001816 4121 0001            00001 11453  2                        LA    R2,1(R1)           R2 - COL # OF WORD
 00181A D503 70DE 8028_018B0 00000 11454  2                        IF    (SLBUF,NE,0),BEGIN IF RENDITION BUFFER MARK IT
 001824 5840 8028            00000 11472  3                          L     R4,SLBUF
 001828 1A41                       11473  3                          AR    R4,R1              R4 - ADDR OF WORD IN SHADOW BUFFER
 00182A 5830 8044            0001C 11474  3                          L     R3,SLWLEN          R3 - WORD LENGTH
 00182E 1233/47D0 7068             11475  3                          IF    (R3,POS),BEGIN
 001834 0630/4430 70EE_            11489  4                            DEX   R3,'OC @R4(0),SPELMASK'    MARK SHADOW BUFFER
 00183A                            11508  3                          END
 00183A                            11512  2                        END
 00183A 5920 802C/47D0_      00004 11516  2                        IF    ((R2,GT,SLCOL),AND,(SLCOLRET,LE,SLCOL)),BEGIN
 00184C 5020 8030            00008 11550  3                          ST    R2,SLCOLRET        SET RETURN COLUMN
 001850                            11551  2                        END
 001850                            11555  1                      END
 001850 4110 8034            0000C 11559  1                      LA    R1,SLPARMS         R1 - SCAN PARM BLOCK
 001854 58E0 70E6/0DEE       018B8 11560  1                      ACALL SCANTEXT           SCAN NEXT TEXT WORD, AND LOOP
 00185A 47F0 7026            017F8 11564                       END
                                   11569
 00185E 58F0 8030            00008 11570                       L     R15,SLCOLRET       SET RETURN COLUNM, CODE
 001862 18D8/9808 D004_            11571                       PEND  ,
 DROP   SLWA-(4+36),R8
 DROP   *,R7
-
 001870 0101010101010101           11597              SPELMASK DC    64X'01'            SPELL MASK FOR SHADOW BUFFER
1SPELL    (SPEL2025) (12:55) (15MAR04) SPELLINE - check spelling of a line for view                                         Page   41
0Current Usings:  (CP,R11) (CV,R12)
0Loc    Object Code    Addr1 Addr2  Stmt Lv Lineno    Source Statement           (Hibal 5, Asmedit 3.3)  HLASM R4.0  2004/03/15 12.55
+___    ______ ____    _____ _____  ____ __ ______    ______ _________
0                                  11599                       QLTORG
1SPELL    (SPEL2025) (12:55) (15MAR04) LEARN/UNLEARN commands                                                               Page   42
0Current Usings:  (CP,R11) (CV,R12)
0Loc    Object Code    Addr1 Addr2  Stmt Lv Lineno    Source Statement           (Hibal 5, Asmedit 3.3)  HLASM R4.0  2004/03/15 12.55
+___    ______ ____    _____ _____  ____ __ ______    ______ _________
0                                  11615              *
                                   11616              *
                                   11617              *       WORK AREA FOR LEARN/UNLEARN SPELLING COMMANDS
                                   11618              *
                                   11619              *
 000000                00000 00044 11620              LWWA     RECORD BEGIN ,,          LEARN WORD WORK AREA
 000000                            11628  1           LWWORDLN   DS    F                  LENGTH OF LEARN WORD
 000004                            11629  1           LWWORD     DS    CL64               LEARN WORD (IN LOWER CASE)
 000044                00044 00044 11630                       END
1SPELL    (SPEL2025) (12:55) (15MAR04) LEARN/UNLEARN commands                                                               Page   43
0Current Usings:  (CP,R11) (CV,R12)
0Loc    Object Code    Addr1 Addr2  Stmt Lv Lineno    Source Statement           (Hibal 5, Asmedit 3.3)  HLASM R4.0  2004/03/15 12.55
+___    ______ ____    _____ _____  ____ __ ______    ______ _________
0                                  11640              ¿þþþþþþþþþþþþþþþþþþþþþþþþþþþþþþþþþþþþþþþþþþþþþþþþþþþþþþþþþþþþþþþþþþþþþÜ
                                   11641              Ÿ                                                                     Ÿ
                                   11642              Ÿ                                                                     Ÿ
                                   11643              Ÿ       LEARN -- LEARN COMMAND                                        Ÿ
                                   11644              Ÿ                                                                     Ÿ
                                   11645              Ÿ                                                                     Ÿ
                                   11646              Ÿ  WE ADD A WORD TO THE USERS DICTIONARY, GOOD FOR THIS SESSION       Ÿ
                                   11647              Ÿ                                                                     Ÿ
                                   11648              Ÿ                                                                     Ÿ
                                   11649              Ÿ                                                                     Ÿ
                                                      ¾þþþþþþþþþþþþþþþþþþþþþþþþþþþþþþþþþþþþþþþþþþþþþþþþþþþþþþþþþþþþþþþþþþþþþ»
0000000                00000 00058 11650              LXWA     RECORD BEGIN ,           LEARN WORK AREA
                                   11658  1                      COMMENT                  REST OF WORK AREA IS ESSENTIALLY A
                                   11659  1                      COMMENT                  COPY OF THE SCAN PARAMETER BLOCK
 000000                            11660  1           LXPARMS    DS    0F                 * PARAMETER BLOCK PASSED TO SCAN
 000000 00                         11661  1           LXFLAGS    FLAG  ,                  * SCAN FLAGS
 LXFLAGS.LXSPECL   80 ONES         11665  1                      FLAG  LXSPECL            * SCAN SPECIAL,, DEFAULT NO SPECIAL
 LXFLAGS.LXNOUPP   40 ONES         11670  1                      FLAG  LXNOUPP            * DON'T SCAN UPPER, DEFAULT IS SCAN
 000004                            11675  1           LXSTART    DS    F                  * START OF STRING TO SCAN
 000008                            11676  1           LXPTR      DS    F                  * PLACE TO START SCANNING, UPDATED
 00000C                            11677  1           LXEND      DS    F                  * END OF SCAN STRING
 000010                            11678  1           LXWLEN     DS    F                  * LENGTH OF WORD SCANNED
 000014                            11679  1           LXWPTR     DS    F                  * POINTER TO WORD IN SCANNED STRING
 000018                            11680  1           LXWORD     DS    CL64               * WORD SCANNED (IN ORIGINAL CASE)
 000058                00058 00058 11681                       END
-
                                   11691                       ¿þþþþþþþþþþþþþþþþþþþþþþþþþÜ
                                   11692                       Ÿ  LEARN - LEARN COMMAND  Ÿ
                                   11693                       ¾þþþþþþþþþþþþþþþþþþþþþþþþþ»
 0018C6 50E0 D000/9008_      00000 11694              LEARN    XPROC LXWA            LEARN WORD
 USING  *,R7
 USING  LXWA-(4+36),R8
 0018E0 D757 8028 8028 00000 00000 11745                       CLEAR LXWA            INITIALIZE WORK AREA TO ZEROS
                                   11752
 0018E6 D503 7664 C600_01F44 00600 11753                       IF    (CVDICPTR,E,0),BEGIN   IF NO DICTNRY, NO SPELL CHECKN
 0018F0 4110 77E4/4100_      020C4 11771  1                      ABORT 'No spelling dictionary available.  Command ignored.'
 0018FC                            11778                       END
                                   11782                       ¿þþþþþþþþþþþþþþþþþÜ
                                   11783                       Ÿ  SCAN FOR WORD  Ÿ
                                   11784                       ¾þþþþþþþþþþþþþþþþþ»
 0018FC 58E0 B08C/581E_      0008C 11785                       SCINFO ,                 RETURNS R1,R0 LOC, LEN OF CMD STR
 00190A 5010 802C            00004 11794                       ST    R1,LXSTART         R1 - START OF LINE TO SCAN
 00190E 5010 8030            00008 11795                       ST    R1,LXPTR           R1 - SCAN POINTER,, UPDATED BY
 001912 1A01                       11796                       AR    R0,R1                   EACH SCAN
 001914 5000 8034            0000C 11797                       ST    R0,LXEND           R0 - END OF LINE TO SCAN
 001918 4110 8028            00000 11798                       LA    R1,LXPARMS         R1 - SCAN PARAMETER BLOCK
 00191C 58E0 76C0/0DEE       01FA0 11799                       ACALL SCANWORD           SCAN COMMAND FOR WORD TO LEARN
 001922 4780 7052            01932 11803                       IF    NZ,BEGIN           IF NO WORD, BAD REQUEST
                                   11814  1           *$ IN LEARNWD, CHECK FOR MAX LENGTH
 001926 4110 7817/4100_      020F7 11815  1                      ABORT 'Missing LEARN word.'
 001932                            11822                       END
1SPELL    (SPEL2025) (12:55) (15MAR04) LEARN/UNLEARN commands                                                               Page   44
0Current Usings:  (*,R7) (LXWA-(4+36),R8) (CP,R11) (CV,R12)
0Loc    Object Code    Addr1 Addr2  Stmt Lv Lineno    Source Statement           (Hibal 5, Asmedit 3.3)  HLASM R4.0  2004/03/15 12.55
+___    ______ ____    _____ _____  ____ __ ______    ______ _________
0                                  11826              *
                                   11827              *                                 SCAN REST OF COMMAND
 001932 5810 8030            00008 11828                       L     R1,LXPTR           R1,R0 - LOC, LEN OF REST OF CMD
 001936 5800 8034            0000C 11829                       L     R0,LXEND
 00193A 1B01                       11830                       SR    R0,R1
 00193C 47D0 70E8            019C8 11831                       IF    P,BEGIN            IF MORE TO COMMAND, SCAN IT ,,,
 001940 58E0 B08C/501E_      0008C 11842  1                      SCINIT (R1),(R0)
 00194E 5810 B08C/1B00_      0008C 11862  1                      SCAN ,,,                 SCAN REMAINDER OF COMMAND
 00199C 58E0 76C8/0DEE       01FA8 11893  1                      SCANCHK
 0019A2 1200/4780 70E8             11898  1                      IF    (R0,NZ),BEGIN      NO FURTHER OPTIONS SUPORTED
 0019A8 41F0 B050/58E0_      00050 11912  2                        TSEG  (R1),(R0)
 0019B2 4110 76D0/4100_      01FB0 11936  2                        TSEG  ': unrecognized LEARN option.',,CR
 0019C4 47F0 C7DA            007DA 11954  2                        ABORT
 0019C8                            11957  1                      END
 0019C8                            11961                       END
-                                  11966                       ¿þþþþþþþþþþþþþþþþþþþþþþþþþþþþþþþþþþþþþþÜ
                                   11967                       Ÿ  CALL LEARNWD ROUTINE TO LEARN WORD  Ÿ
                                   11968                       ¾þþþþþþþþþþþþþþþþþþþþþþþþþþþþþþþþþþþþþþ»
 0019C8 4110 8040            00018 11969                       LA    R1,LXWORD          R1,R0 - WORD LOC, LEN
 0019CC 5800 8038            00010 11970                       L     R0,LXWLEN
 0019D0 58E0 76F0/0DEE       01FD0 11971                       ACALL LEARNWD
 0019D6 59F0 76F4/4770_      01FD4 11975                       IF    (R15,EQ,4),BEGIN
 0019DE 4110 7782/4100_      02062 11992  1                      SETMSG 'Word already in system dictionary.'
 0019E6 47F0 C7DE            007DE 11996  1                      B     CVNEXT
 0019EA                            11997                       END
 0019EA 59F0 76F8/4770_      01FD8 12001                       IF    (R15,EQ,8),BEGIN
 0019F2 4110 77A4/4100_      02084 12018  1                      SETMSG 'Word already in user''s dictionary.'
 0019FA 47F0 C7DE            007DE 12022  1                      B     CVNEXT
 0019FE                            12023                       END
                                   12027                       ¿þþþþþþþþþþþþþþþÜ
                                   12028                       Ÿ  DONE. EXIT.  Ÿ
                                   12029                       ¾þþþþþþþþþþþþþþþ»
 0019FE 47F0 C7DE            007DE 12030                       B     CVNEXT
 001A02 18D8/9808 D004_            12031                       PEND  ,
 DROP   LXWA-(4+36),R8
 DROP   *,R7
1SPELL    (SPEL2025) (12:55) (15MAR04) LEARN/UNLEARN commands                                                               Page   45
0Current Usings:  (CP,R11) (CV,R12)
0Loc    Object Code    Addr1 Addr2  Stmt Lv Lineno    Source Statement           (Hibal 5, Asmedit 3.3)  HLASM R4.0  2004/03/15 12.55
+___    ______ ____    _____ _____  ____ __ ______    ______ _________
0                                  12057              ¿þþþþþþþþþþþþþþþþþþþþþþþþþþþþþþþþþþþþþþþþþþþþþþþþþþþþþþþþþþþþþþþþþþþþþÜ
                                   12058              Ÿ                                                                     Ÿ
                                   12059              Ÿ                                                                     Ÿ
                                   12060              Ÿ       LEARNWD - ADD WORD TO USER'S SPELLING DICTIONARY              Ÿ
                                   12061              Ÿ                                                                     Ÿ
                                   12062              Ÿ       R1,R0 - ADDRESS, LENGTH OF WORD TO ADD                        Ÿ
                                   12063              Ÿ                                                                     Ÿ
                                   12064              Ÿ       RETURNS R15=CC,  0 - SUCESSFUL LEARN                          Ÿ
                                   12065              Ÿ                        4 - WORD IN SYSTEM DICTIONARY                Ÿ
                                   12066              Ÿ                        8 - WORD IN USER'S DICTIONARY                Ÿ
                                   12067              Ÿ                                                                     Ÿ
                                   12068              Ÿ                                                                     Ÿ
                                                      ¾þþþþþþþþþþþþþþþþþþþþþþþþþþþþþþþþþþþþþþþþþþþþþþþþþþþþþþþþþþþþþþþþþþþþþ»
0001A10 50E0 D000/9008_      00000 12069              LEARNWD  XPROC LWWA
 USING  *,R7
 USING  LWWA-(4+36),R8
 001A2A 5900 75B2/47C0_      01FDC 12120                       IF    ((R0,LE,0),OR,(R0,GE,64)),BEGIN    CHECK WORD LENGTH
 001A3A 1BFF                       12153  1                      CLEAR R15
 001A3C 47F0 70BA            01AE4 12157  1                      B     LEARNED
 001A40                            12158                       END
 001A40 58E0 75BA/0DEE       01FE4 12162                       ACALL CHECKLRN           SEE IF WORD IN USER'S DICTNRY,
 001A46 4770 7028            01A52 12166                       IF    Z,BEGIN            IF ALREADY KNOWN, DON'T LEARN IT
 001A4A 41F0 0008            00008 12177  1                      LA    R15,8
 001A4E 47F0 70BA            01AE4 12178  1                      B     LEARNED
 001A52                            12179                       END
 001A52 58E0 75BE/0DEE       01FE8 12183                       ACALL CHECKWD            SEE IF WORD IN SYSTEM DICTNRY
 001A58 4770 703A            01A64 12187                       IF    Z,BEGIN            IF ALREADY KNOWN, DON'T LEARN IT
 001A5C 41F0 0004            00004 12198  1                      LA    R15,4
 001A60 47F0 70BA            01AE4 12199  1                      B     LEARNED
 001A64                            12200                       END
                                   12204
                                   12205                       COMMENT                  SAVE WORD, BLANK PADDED,
 001A64 5000 8028            00000 12206                       ST    R0,LWWORDLN        IN LOWER CASE
 001A68 5820 75C2            01FEC 12207                       L     R2,=A(BLANKS)
 001A6C D23F 802C 2000 00004 00000 12208                       MVC   LWWORD(64),0(R2)
 001A72 1830                       12209                       LR    R3,R0
 001A74 0630/4430 7716_            12210                       DEX   R3,' MVC LWWORD(0),0(R1) '     MOVE WORD
 001A7A 5820 75C6            01FF0 12229                       L     R2,=A(LOWERTAB)
 001A7E DC3F 802C 2000 00004 00000 12230                       TR    LWWORD(64),0(R2)
                                   12231              *
                                   12232              *  ADD LEARED WORD TO RECORD GROUP
                                   12233              *
                                   12234                       COMMENT                   ADD LEARN WORD
 001A84 1830                       12235                       LR    R3,R0 R3-WORD LEN
 001A86 9680 B47F      0047F       12236                       SET   CPFLEARN
 001A8A 41F0 B524            00524 12242                       LA    R15,CPRG16
 001A8E 5930 75CA/47D0_      01FF4 12243                       IF    (R3,GT,16),' LA R15,CPRG64'
 001A9A 4100 0005            00005 12266                       LA    R0,CP#LRN
 001A9E 58E0 75CE/0DEE       01FF8 12267                       VCALL XSETSET             SELECT RG16 OR RG64
 001AA4 41F0 B524            00524 12271                       LA    R15,CPRG16
 001AA8 5930 75CA/47D0_      01FF4 12272                       IF    (R3,GT,16),' LA R15,CPRG64'
 001AB4 1B00                       12295                       CLEAR R0
 001AB6 4110 C4D8            004D8 12299                       LA    R1,CVBLANKS
1SPELL    (SPEL2025) (12:55) (15MAR04) LEARN/UNLEARN commands                                                               Page   46
0Current Usings:  (*,R7) (LWWA-(4+36),R8) (CP,R11) (CV,R12)
0Loc    Object Code    Addr1 Addr2  Stmt Lv Lineno    Source Statement           (Hibal 5, Asmedit 3.3)  HLASM R4.0  2004/03/15 12.55
+___    ______ ____    _____ _____  ____ __ ______    ______ _________
0001ABA 4120 802C            00004 12300                       LA    R2,LWWORD
 001ABE 58E0 75D2/0DEE       01FFC 12301                       VCALL XPUT                PUT WORD AS KEY/ NULL DATA
 001AC4 12FF/4780 70AC             12305                       IF    (R15,NZ),BEGIN
 001ACA 4110 751E/4100_      01F48 12319  1                      ERROR 'Word not added; user dictionary is full.'
 001AD6                            12326                       END
                                   12330                       ¿þþþþþþþþþþþþþþþþþþþþþþþþþþþþþþþþþþþþþþþþþþþþþÜ
                                   12331                       Ÿ  IF IN PAGE MODE WITH SPELL, UPDATE SCREEN  Ÿ
                                   12332                       ¾þþþþþþþþþþþþþþþþþþþþþþþþþþþþþþþþþþþþþþþþþþþþþ»
 001AD6 9180 BAC8/47E0_00AC8       12333                       IF    CPVFPAGE,BEGIN     IF IN VIEW,
 001ADE 9640 BAC9      00AC9       12348  1                      SET   CPVFREWR           UPDATE LEARNED WORDS ON SCREEN
 001AE2                            12354                       END
0                                  12359              ¿þþþþþþþþþþþþþþþþþþþþþþþþþþþþþþþþþþþþþþþþþþþþþþþþþþþþþþþþþþþþþþþþþþþþþÜ
                                   12360              Ÿ                                                                     Ÿ
                                   12361              Ÿ                                                                     Ÿ
                                   12362              Ÿ       RETURN FROM LEARN WORD ROUTINE,,,,    BYE. BYE.               Ÿ
                                   12363              Ÿ                                                                     Ÿ
                                   12364              Ÿ                                                                     Ÿ
                                                      ¾þþþþþþþþþþþþþþþþþþþþþþþþþþþþþþþþþþþþþþþþþþþþþþþþþþþþþþþþþþþþþþþþþþþþþ»
0001AE2 1BFF                       12365                       CLEAR R15                SUCCESSFUL LEARN FALLS THRU,
 001AE4                            12369              LEARNED  LABEL ,                  WE RETURN
 001AE4 18D8/9808 D004_            12371                       PEND  ,
 DROP   LWWA-(4+36),R8
 DROP   *,R7
1SPELL    (SPEL2025) (12:55) (15MAR04) LEARN/UNLEARN commands                                                               Page   47
0Current Usings:  (CP,R11) (CV,R12)
0Loc    Object Code    Addr1 Addr2  Stmt Lv Lineno    Source Statement           (Hibal 5, Asmedit 3.3)  HLASM R4.0  2004/03/15 12.55
+___    ______ ____    _____ _____  ____ __ ______    ______ _________
0                                  12397              ¿þþþþþþþþþþþþþþþþþþþþþþþþþþþþþþþþþþþþþþþþþþþþþþþþþþþþþþþþþþþþþþþþþþþþþÜ
                                   12398              Ÿ                                                                     Ÿ
                                   12399              Ÿ                                                                     Ÿ
                                   12400              Ÿ       SHOWLRN - SHOW LEARN COMMAND                                  Ÿ
                                   12401              Ÿ                                                                     Ÿ
                                   12402              Ÿ  LIST THE WORDS THAT HAVE BEEN ADDED (LEARNED) TO THE               Ÿ
                                   12403              Ÿ  USERS SPELLING DICTIONARY, THE DICTIONARY LAST ONLY FOR            Ÿ
                                   12404              Ÿ  THE DURATION OF THE LOGON SESSION.                                 Ÿ
                                   12405              Ÿ                                                                     Ÿ
                                   12406              Ÿ                                                                     Ÿ
                                                      ¾þþþþþþþþþþþþþþþþþþþþþþþþþþþþþþþþþþþþþþþþþþþþþþþþþþþþþþþþþþþþþþþþþþþþþ»
0001AF2 50E0 D000/9008_      00000 12407              SHOWLRN  XPROC LWWA               SHOW LEARNED WORDS
 USING  *,R7
 USING  LWWA-(4+36),R8
 001B0C 5810 B08C/1B00_      0008C 12458                       SCAN  SHOWLSCN           SCAN SHOW LEARNED OPTIONS
 001B5E 58E0 749C/0DEE       01FA8 12490                       SCANCHK ,
 001B64 9180 B47F/4710_0047F       12495                       IF    ~CPFLEARN,BEGIN   IF NO WORDS
 001B6C 4110 74F8/4100_      02004 12510  1                      TSEG  'No words in user''s LEARN dictionary.',,CR
 001B7E 47F0 713C            01C48 12528  1                      B     SHOWDONE
 001B82                            12529                       END
                                   12533
                                   12534                       COMMENT                   IF WORDS, LIST 'EM
 001B82 4110 75FE/4100_      0210A 12535                       TSEG  'Words in user''s LEARN dictionary:',,CR
                                   12553
                                   12554                       COMMENT                   SET LEARN SET..
 001B94 41F0 B524            00524 12555                       LA    R15,CPRG16
 001B98 4100 0005            00005 12556                       LA    R0,CP#LRN
 001B9C 58E0 74EC/0DEE       01FF8 12557                       VCALL XSETSET
 001BA2 41F0 B544            00544 12561                       LA    R15,CPRG64
 001BA6 4100 0005            00005 12562                       LA    R0,CP#LRN
 001BAA 58E0 74EC/0DEE       01FF8 12563                       VCALL XSETSET
                                   12567
                                   12568                       COMMENT                   LIST RG 16
 001BB0 D743 8028 8028 00000 00000 12569                       CLEAR LWWA
 001BB6 1BFF                       12576                       CLEAR R15
 001BB8 12FF/4770 70F0             12580                       WHILE (R15,Z),BEGIN
 001BBE 41F0 B524            00524 12596  1                      LA    R15,CPRG16
 001BC2 4110 802C            00004 12597  1                      LA    R1,LWWORD
 001BC6 1B00                       12598  1                      CLEAR R0
 001BC8 4120 802C            00004 12602  1                      LA    R2,LWWORD
 001BCC 58E0 751C/0DEE       02028 12603  1                      VCALL XLOCNEXT
 001BD2 12FF/4770 70EC             12607  1                      IF    (R15,Z),BEGIN
 001BD8 4110 802C/4100_      00004 12621  2                        TSEG  LWWORD,CPRG16NL,TB
 001BEA 1B00/41F0 B050_            12651  2                        TCR
 001BF6 1BFF                       12676  2                        CLEAR R15
 001BF8                            12680  1                      END
 001BF8 47F0 70AC            01BB8 12684                       END
                                   12689
                                   12690                       COMMENT                   LIST RG 64
 001BFC D743 8028 8028 00000 00000 12691                       CLEAR LWWA
 001C02 1BFF                       12698                       CLEAR R15
 001C04 12FF/4770 713C             12702                       WHILE (R15,Z),BEGIN
 001C0A 41F0 B544            00544 12718  1                      LA    R15,CPRG64
1SPELL    (SPEL2025) (12:55) (15MAR04) LEARN/UNLEARN commands                                                               Page   48
0Current Usings:  (*,R7) (LWWA-(4+36),R8) (CP,R11) (CV,R12)
0Loc    Object Code    Addr1 Addr2  Stmt Lv Lineno    Source Statement           (Hibal 5, Asmedit 3.3)  HLASM R4.0  2004/03/15 12.55
+___    ______ ____    _____ _____  ____ __ ______    ______ _________
0001C0E 4110 802C            00004 12719  1                      LA    R1,LWWORD
 001C12 1B00                       12720  1                      CLEAR R0
 001C14 4120 802C            00004 12724  1                      LA    R2,LWWORD
 001C18 58E0 751C/0DEE       02028 12725  1                      VCALL XLOCNEXT
 001C1E 12FF/4770 7138             12729  1                      IF    (R15,Z),BEGIN
 001C24 4110 802C/4100_      00004 12743  2                        TSEG  LWWORD,L'LWWORD,TB
 001C36 1B00/41F0 B050_            12773  2                        TCR
 001C42 1BFF                       12798  2                        CLEAR R15
 001C44                            12802  1                      END
 001C44 47F0 70F8            01C04 12806                       END
                                   12811              *
                                   12812              * DONE. RETURN
                                   12813              *
 001C48                            12814              SHOWDONE LABEL ,
 001C48 47F0 C7DE            007DE 12816                       B     CVNEXT
 001C4C 18D8/9808 D004_            12817                       PEND  ,
 DROP   LWWA-(4+36),R8
 DROP   *,R7
-
-                                  12843              * SHOW LEARNED SCAN OPTIONS
 001C5C 4040404040404040_          12844              SHOWLSCN SCKW  ,V(COLLPSH),PUSH
 001C84 4040404040404040_          12859                       SCKW  ,V(SCNINVAL)
1SPELL    (SPEL2025) (12:55) (15MAR04) LEARN/UNLEARN commands                                                               Page   49
0Current Usings:  (CP,R11) (CV,R12)
0Loc    Object Code    Addr1 Addr2  Stmt Lv Lineno    Source Statement           (Hibal 5, Asmedit 3.3)  HLASM R4.0  2004/03/15 12.55
+___    ______ ____    _____ _____  ____ __ ______    ______ _________
0                                  12875              ¿þþþþþþþþþþþþþþþþþþþþþþþþþþþþþþþþþþþþþþþþþþþþþþþþþþþþþþþþþþþþþþþþþþþþþÜ
                                   12876              Ÿ                                                                     Ÿ
                                   12877              Ÿ                                                                     Ÿ
                                   12878              Ÿ       CLEAR LEARN - delete user's learned dictionary                Ÿ
                                   12879              Ÿ                                                                     Ÿ
                                   12880              Ÿ                                                                     Ÿ
                                   12881              Ÿ  This command unlearns all words previously learned by user.        Ÿ
                                   12882              Ÿ                                                                     Ÿ
                                   12883              Ÿ                                                                     Ÿ
                                                      ¾þþþþþþþþþþþþþþþþþþþþþþþþþþþþþþþþþþþþþþþþþþþþþþþþþþþþþþþþþþþþþþþþþþþþþ»
0001CAC 50E0 D000/9008_      00000 12884              CLRLRN   XPROC ,
 USING  *,R7
 001CC6 5810 B08C/1B00_      0008C 12924                       SCAN  ,
 001D14 58E0 72E2/0DEE       01FA8 12955                       SCANCHK ,
 001D1A 1200/4780 707A             12960                       IF    (R0,NZ),BEGIN      ANY OPTION IS INVALID
 001D20 41F0 B050/58E0_      00050 12974  1                      TSEG  (R1),(R0)
 001D2A 4110 736A/4100_      02030 12998  1                      TSEG  ': unrecognized CLEAR LEARNED option.',,CR
 001D3C 47F0 C7DA            007DA 13016  1                      ABORT
 001D40                            13019                       END
 001D40 41F0 B544            00544 13023                       LA    R15,CPRG64
 001D44 4100 0005            00005 13024                       LA    R0,CP#LRN
 001D48 58E0 738E/0DEE       02054 13025                       VCALL XDELSET
 001D4E 41F0 B524            00524 13029                       LA    R15,CPRG16
 001D52 4100 0005            00005 13030                       LA    R0,CP#LRN
 001D56 58E0 738E/0DEE       02054 13031                       VCALL XDELSET
 001D5C 947F B47F      0047F       13035                       CLEAR CPFLEARN
 001D60 47F0 C7DE            007DE 13042                       B     CVNEXT
 001D64 18D8/9808 D004_            13043                       PEND
 DROP   *,R7
1SPELL    (SPEL2025) (12:55) (15MAR04) LEARN/UNLEARN commands                                                               Page   50
0Current Usings:  (CP,R11) (CV,R12)
0Loc    Object Code    Addr1 Addr2  Stmt Lv Lineno    Source Statement           (Hibal 5, Asmedit 3.3)  HLASM R4.0  2004/03/15 12.55
+___    ______ ____    _____ _____  ____ __ ______    ______ _________
0                                  13064              ¿þþþþþþþþþþþþþþþþþþþþþþþþþþþþþþþþþþþþþþþþþþþþþþþþþþþþþþþþþþþþþþþþþþþþþÜ
                                   13065              Ÿ                                                                     Ÿ
                                   13066              Ÿ                                                                     Ÿ
                                   13067              Ÿ       UNLEARN -- UNLEARN COMMAND                                    Ÿ
                                   13068              Ÿ                                                                     Ÿ
                                   13069              Ÿ                                                                     Ÿ
                                   13070              Ÿ  DELETE A WORD FROM THE USERS SESSION SPELL DICTIONARY              Ÿ
                                   13071              Ÿ                                                                     Ÿ
                                   13072              Ÿ                                                                     Ÿ
                                   13073              Ÿ                                                                     Ÿ
                                                      ¾þþþþþþþþþþþþþþþþþþþþþþþþþþþþþþþþþþþþþþþþþþþþþþþþþþþþþþþþþþþþþþþþþþþþþ»
0001D72 50E0 D000/9008_      00000 13074              UNLEARN  XPROC LXWA            UNLEARN WORD
 USING  *,R7
 USING  LXWA-(4+36),R8
 001D8C D757 8028 8028 00000 00000 13125                       CLEAR LXWA               INITIALIZE WORK AREA TO ZEROS
                                   13132                       ¿þþþþþþþþþþþþþþþþþÜ
                                   13133                       Ÿ  SCAN FOR WORD  Ÿ
                                   13134                       ¾þþþþþþþþþþþþþþþþþ»
 001D92 58E0 B08C/581E_      0008C 13135                       SCINFO ,                 RETURNS R1,R0 LOC, LEN OF CMD STR
 001DA0 5010 802C            00004 13144                       ST    R1,LXSTART         R1 - START OF LINE TO SCAN
 001DA4 5010 8030            00008 13145                       ST    R1,LXPTR           R1 - SCAN POINTER,, UPDATED BY
 001DA8 1A01                       13146                       AR    R0,R1                   EACH SCAN
 001DAA 5000 8034            0000C 13147                       ST    R0,LXEND           R0 - END OF LINE TO SCAN
 001DAE 4110 8028            00000 13148                       LA    R1,LXPARMS         R1 - SCAN PARAMETER BLOCK
 001DB2 58E0 7214/0DEE       01FA0 13149                       ACALL SCANWORD           SCAN COMMAND FOR WORD TO LEARN
 001DB8 4780 703C            01DC8 13153                       IF    NZ,BEGIN           IF NO WORD, BAD REQUEST
 001DBC 4110 739F/4100_      0212B 13164  1                      ABORT 'Missing UNLEARN word.'
 001DC8                            13171                       END
                                   13175              *
                                   13176              *                                 SCAN REST OF COMMAND
 001DC8 5810 8030            00008 13177                       L     R1,LXPTR           R1,R0 - LOC, LEN OF REST OF CMD
 001DCC 5800 8034            0000C 13178                       L     R0,LXEND
 001DD0 1B01                       13179                       SR    R0,R1
 001DD2 47D0 70D2            01E5E 13180                       IF    P,BEGIN            IF MORE TO COMMAND, SCAN IT ,,,
 001DD6 58E0 B08C/501E_      0008C 13191  1                      SCINIT (R1),(R0)
 001DE4 5810 B08C/1B00_      0008C 13211  1                      SCAN ,,,                 SCAN REMAINDER OF COMMAND
 001E32 58E0 721C/0DEE       01FA8 13242  1                      SCANCHK
 001E38 1200/4780 70D2             13247  1                      IF    (R0,NZ),BEGIN      NO FURTHER OPTIONS SUPORTED
 001E3E 41F0 B050/58E0_      00050 13261  2                        TSEG  (R1),(R0)
 001E48 4110 731A/4100_      020A6 13285  2                        TSEG  ': unrecognized UNLEARN option.',,CR
 001E5A 47F0 C7DA            007DA 13303  2                        ABORT
 001E5E                            13306  1                      END
 001E5E                            13310                       END
-                                  13315                       ¿þþþþþþþþþþþþþþþþþþþþþþþþþþþþþþþþþþþþþþþþÜ
                                   13316                       Ÿ  CALL UNLRNWD ROUTINE TO UNLEARN WORD  Ÿ
                                   13317                       ¾þþþþþþþþþþþþþþþþþþþþþþþþþþþþþþþþþþþþþþþþ»
 001E5E 4110 8040            00018 13318                       LA    R1,LXWORD          R1,R0 - WORD LOC, LEN
 001E62 5800 8038            00010 13319                       L     R0,LXWLEN
 001E66 58E0 72CC/0DEE       02058 13320                       ACALL UNLRNWD            REMOVE WORD FROM SESSION DICTNRY
1SPELL    (SPEL2025) (12:55) (15MAR04) LEARN/UNLEARN commands                                                               Page   51
0Current Usings:  (*,R7) (LXWA-(4+36),R8) (CP,R11) (CV,R12)
0Loc    Object Code    Addr1 Addr2  Stmt Lv Lineno    Source Statement           (Hibal 5, Asmedit 3.3)  HLASM R4.0  2004/03/15 12.55
+___    ______ ____    _____ _____  ____ __ ______    ______ _________
0                                  13324                       ¿þþþþþþþþþþþþþþþÜ
                                   13325                       Ÿ  DONE. EXIT.  Ÿ
                                   13326                       ¾þþþþþþþþþþþþþþþ»
 001E6C 47F0 C7DE            007DE 13327                       B     CVNEXT
 001E70 18D8/9808 D004_            13328                       PEND  ,
 DROP   LXWA-(4+36),R8
 DROP   *,R7
1SPELL    (SPEL2025) (12:55) (15MAR04) LEARN/UNLEARN commands                                                               Page   52
0Current Usings:  (CP,R11) (CV,R12)
0Loc    Object Code    Addr1 Addr2  Stmt Lv Lineno    Source Statement           (Hibal 5, Asmedit 3.3)  HLASM R4.0  2004/03/15 12.55
+___    ______ ____    _____ _____  ____ __ ______    ______ _________
0                                  13354              ¿þþþþþþþþþþþþþþþþþþþþþþþþþþþþþþþþþþþþþþþþþþþþþþþþþþþþþþþþþþþþþþþþþþþþþÜ
                                   13355              Ÿ                                                                     Ÿ
                                   13356              Ÿ                                                                     Ÿ
                                   13357              Ÿ       UNLRNWD - UNLEARN WORD                                        Ÿ
                                   13358              Ÿ                                                                     Ÿ
                                   13359              Ÿ       R1,R0 - WORD ADDRESS, LENGTH                                  Ÿ
                                   13360              Ÿ                                                                     Ÿ
                                   13361              Ÿ                                                                     Ÿ
                                   13362              Ÿ                                                                     Ÿ
                                                      ¾þþþþþþþþþþþþþþþþþþþþþþþþþþþþþþþþþþþþþþþþþþþþþþþþþþþþþþþþþþþþþþþþþþþþþ»
0001E7E 50E0 D000/9008_      00000 13363              UNLRNWD  XPROC LWWA
 USING  *,R7
 USING  LWWA-(4+36),R8
 001E98 5900 7148/4720_      01FE0 13414                       IF    ((R0,GT,64),OR,(R0,LE,0)),UNLEARND   CHECK WORD LEN
 001EA8 58E0 714C/0DEE       01FE4 13450                       ACALL CHECKLRN           IF WORD LEARNED ??
 001EAE 4780 7030            01EC8 13454                       IF    NZ,BEGIN           IF NOT LEARNED, NO NEED TO UNLEARN
 001EB2 4110 70D8/4100_      01F70 13465  1                      TSEG 'Word not in user''s dictionary.  Command ignored.',,CR
 001EC4 47F0 709C            01F34 13483  1                      B     UNLEARND
 001EC8                            13484                       END
                                   13488
                                   13489                       COMMENT                  SAVE WORD, BLANK PADDED,
 001EC8 5000 8028            00000 13490                       ST    R0,LWWORDLN        AND IN LOWER CASE
 001ECC 5820 7154            01FEC 13491                       L     R2,=A(BLANKS)
 001ED0 D23F 802C 2000 00004 00000 13492                       MVC   LWWORD(64),0(R2)
 001ED6 1830                       13493                       LR    R3,R0
 001ED8 0630/4430 72AE_            13494                       DEX   R3,' MVC LWWORD(0),0(R1) '     MOVE WORD
 001EDE 5820 7158            01FF0 13513                       L     R2,=A(LOWERTAB)
 001EE2 DC3F 802C 2000 00004 00000 13514                       TR    LWWORD(64),0(R2)
                                   13515              *
                                   13516              *  DELETE WORD FROM RECORD GROUP
                                   13517              *
                                   13518                       COMMENT                   DELETE LEARN WORD
 001EE8 1830                       13519                       LR    R3,R0 R3-WORD LEN
 001EEA 41F0 B524            00524 13520                       LA    R15,CPRG16
 001EEE 5930 715C/47D0_      01FF4 13521                       IF    (R3,GT,16),' LA R15,CPRG64'
 001EFA 4100 0005            00005 13544                       LA    R0,CP#LRN
 001EFE 58E0 7160/0DEE       01FF8 13545                       VCALL XSETSET             SELECT RG16 OR RG64
 001F04 41F0 B524            00524 13549                       LA    R15,CPRG16
 001F08 5930 715C/47D0_      01FF4 13550                       IF    (R3,GT,16),' LA R15,CPRG64'
 001F14 1B00                       13573                       CLEAR R0
 001F16 4110 C4D8            004D8 13577                       LA    R1,CVBLANKS
 001F1A 4120 802C            00004 13578                       LA    R2,LWWORD
 001F1E 58E0 71C4/0DEE       0205C 13579                       VCALL XDELETE             PUT WORD AS KEY/ NULL DATA
                                   13583                       ¿þþþþþþþþþþþþþþþþþþþþþþþþþþþþþþþþþþþþþþþþþþþþþÜ
                                   13584                       Ÿ  IF IN PAGE MODE WITH SPELL, UPDATE SCREEN  Ÿ
                                   13585                       ¾þþþþþþþþþþþþþþþþþþþþþþþþþþþþþþþþþþþþþþþþþþþþþ»
 001F24 9180 BAC8/47E0_00AC8       13586                       IF    CPVFPAGE,BEGIN     IF IN PAGE MODE,
 001F2C 9640 BAC9      00AC9       13601  1                      SET   CPVFREWR           UPDATE UNLEARNED WORDS ON SCREEN
 001F30                            13607                       END
 001F30 47F0 709C            01F34 13611                       B     UNLEARND           BRANCH TO UNLEARN EXIT
                                   13612              *
                                   13613              *
                                   13614              *  DONE. EXIT.
1SPELL    (SPEL2025) (12:55) (15MAR04) LEARN/UNLEARN commands                                                               Page   53
0Current Usings:  (*,R7) (LWWA-(4+36),R8) (CP,R11) (CV,R12)
0Loc    Object Code    Addr1 Addr2  Stmt Lv Lineno    Source Statement           (Hibal 5, Asmedit 3.3)  HLASM R4.0  2004/03/15 12.55
+___    ______ ____    _____ _____  ____ __ ______    ______ _________
0001F34                            13615              UNLEARND LABEL ,                  WORD UNLEARNED, EXIT
 001F34 18D8/9808 D004_            13617                       PEND  ,
 DROP   LWWA-(4+36),R8
 DROP   *,R7
1SPELL    (SPEL2025) (12:55) (15MAR04) LEARN/UNLEARN commands                                                               Page   54
0Current Usings:  (CP,R11) (CV,R12)
0Loc    Object Code    Addr1 Addr2  Stmt Lv Lineno    Source Statement           (Hibal 5, Asmedit 3.3)  HLASM R4.0  2004/03/15 12.55
+___    ______ ____    _____ _____  ____ __ ______    ______ _________
0                                  13643                       QLTORG
1SPELL    (SPEL2025) (12:55) (15MAR04) GUESS command                                                                        Page   55
0Current Usings:  (CP,R11) (CV,R12)
0Loc    Object Code    Addr1 Addr2  Stmt Lv Lineno    Source Statement           (Hibal 5, Asmedit 3.3)  HLASM R4.0  2004/03/15 12.55
+___    ______ ____    _____ _____  ____ __ ______    ______ _________
0                                  13693              ¿þþþþþþþþþþþþþþþþþþþþþþþþþþþþþþþþþþþþþþþþþþþþþþþþþþþþþþþþþþþþþþþþþþþþþÜ
                                   13694              Ÿ                                                                     Ÿ
                                   13695              Ÿ                                                                     Ÿ
                                   13696              Ÿ       GUESS <query word>                                            Ÿ
                                   13697              Ÿ                                                                     Ÿ
                                   13698              Ÿ                                                                     Ÿ
                                   13699              Ÿ       QUERY SPELLING DICTIONARY,,                                   Ÿ
                                   13700              Ÿ                                                                     Ÿ
                                   13701              Ÿ       THIS ROUTINE CHECKS THE QUERY WORD TO SEE IF IT IS SPELLED    Ÿ
                                   13702              Ÿ       CORRECTLY, IF NOT ALL SIMILAR WORDS ARE LISTED. ALL THE       Ÿ
                                   13703              Ÿ       WORK IS DONE BY THE GUESSWD ROUTINE.                          Ÿ
                                   13704              Ÿ                                                                     Ÿ
                                   13705              Ÿ                                                                     Ÿ
                                   13706              Ÿ                                                                     Ÿ
                                                      ¾þþþþþþþþþþþþþþþþþþþþþþþþþþþþþþþþþþþþþþþþþþþþþþþþþþþþþþþþþþþþþþþþþþþþþ»
0000000                00000 0005C 13707              GGWA     RECORD BEGIN ,           GUESS WORK AREA
 000000                            13715  1           GGDICPTR   DS    F                  DICTIONARY MEMORY ADDRESS
                                   13716  1                      COMMENT
                                   13717  1                      COMMENT                  REST OF WORK AREA IS ESSENTIALLY A
                                   13718  1                      COMMENT                  COPY OF THE SCAN PARAMETER BLOCK
 000004                            13719  1           GGPARMS    DS    0F                 * PARAMETER BLOCK PASSED TO SCAN
 000004 00                         13720  1           GGFLAGS    FLAG  ,                  * SCAN FLAGS
 GGFLAGS.GGSPECL   80 ONES         13724  1                      FLAG  GGSPECL            * SCAN SPECIAL,, DEFAULT NO SPECIAL
 GGFLAGS.GGNOUPP   40 ONES         13729  1                      FLAG  GGNOUPP            * DON'T SCAN UPPER, DEFAULT IS SCAN
 000008                            13734  1           GGSTART    DS    F                  * START OF STRING TO SCAN
 00000C                            13735  1           GGPTR      DS    F                  * PLACE TO START SCANNING, UPDATED
 000010                            13736  1           GGEND      DS    F                  * END OF SCAN STRING
 000014                            13737  1           GGWLEN     DS    F                  * LENGTH OF WORD SCANNED
 000018                            13738  1           GGWPTR     DS    F                  * POINTER TO WORD IN SCANNED STRING
 00001C                            13739  1           GGWORD     DS    CL64               * WORD SCANNED (IN ORIGINAL CASE)
 00005C                0005C 0005C 13740                       END
-
                                   13750                       ¿þþþþþþþþþþþþþþþþþþþþþþþþþÜ
                                   13751                       Ÿ  GUESS - GUESS command  Ÿ
                                   13752                       ¾þþþþþþþþþþþþþþþþþþþþþþþþþ»
 00214C 50E0 D000/9008_      00000 13753              GUESS    XPROC GGWA
 USING  *,R7
 USING  GGWA-(4+36),R8
 002166 D75B 8028 8028 00000 00000 13804                       CLEAR GGWA               INITIALIZE WORK AREA,,,  ,IT IS
 00216C 58E0 78E2/0DEE       02A48 13811                       ACALL GETDICT            GET DICTIONARY ADDRESS
 002172 5010 8028            00000 13815                       ST    R1,GGDICPTR        R1 - DICTIONARY ADDR
 002176 4770 7020            02186 13816                       IF    Z,BEGIN            IF NO DICTIONARY,, ABORT
 00217A 4110 7978/4100_      02ADE 13827  1                      ABORT 'No spelling dictionary available.  Command ignored.'
 002186                            13834                       END
                                   13838              *
                                   13839              *                                 SCAN QUERY WORD
 002186 58E0 B08C/581E_      0008C 13840                       SCINFO ,                 RETURNS R1,R0 LOC, LEN OF CMD STR
 002194 5010 8030            00008 13849                       ST    R1,GGSTART         R1 - START OF LINE TO SCAN
 002198 5010 8034            0000C 13850                       ST    R1,GGPTR           R1 - SCAN POINTER,, UPDATED EACH
 00219C 1A01                       13851                       AR    R0,R1
 00219E 5000 8038            00010 13852                       ST    R0,GGEND           R0 - END OF LINE TO SCAN
1SPELL    (SPEL2025) (12:55) (15MAR04) GUESS command                                                                        Page   56
0Current Usings:  (*,R7) (GGWA-(4+36),R8) (CP,R11) (CV,R12)
0Loc    Object Code    Addr1 Addr2  Stmt Lv Lineno    Source Statement           (Hibal 5, Asmedit 3.3)  HLASM R4.0  2004/03/15 12.55
+___    ______ ____    _____ _____  ____ __ ______    ______ _________
00021A2 4110 802C            00004 13853                       LA    R1,GGPARMS         R1 - SCAN PARM BLOCK
 0021A6 58E0 78E6/0DEE       02A4C 13854                       ACALL SCANWORD           SCAN TEXT LINE FOR QUERY
 0021AC 4780 7056            021BC 13858                       IF    NZ,BEGIN           IF NO QUERY, BAD REQUEST
 0021B0 4110 78EA/4100_      02A50 13869  1                      ABORT 'Missing GUESS query.'
 0021BC                            13876                       END
                                   13880              *
                                   13881              *                                 SCAN REST OF COMMAND
 0021BC 5810 8034            0000C 13882                       L     R1,GGPTR           R1,R0 - LOC, LEN OF REST OF
 0021C0 5800 8038            00010 13883                       L     R0,GGEND                   SPELL COMMAND
 0021C4 1B01                       13884                       SR    R0,R1
 0021C6 47D0 70CA            02230 13885                       IF    P,BEGIN            IF MORE TO COMMAND SCAN IT,,
 0021CA 58E0 B08C/501E_      0008C 13896  1                      SCINIT (R1),(R0)
 0021D8 5810 B08C/1B00_      0008C 13916  1                      SCAN  GUESSSCN           SCAN REMAINDER OF SPELL COMMAND
 00222A 58E0 7906/0DEE       02A6C 13948  1                      SCANCHK
 002230                            13953                       END
                                   13957                       ¿þþþþþþþþþþþþþþþþþþþþþþþþþþþþþþþþþþþþþþþþþþþþþþÜ
                                   13958                       Ÿ  CALL GUESSWD ROUTINE TO FIND SIMILAR WORDS  Ÿ
                                   13959                       ¾þþþþþþþþþþþþþþþþþþþþþþþþþþþþþþþþþþþþþþþþþþþþþþ»
 002230 4110 8044            0001C 13960                       LA    R1,GGWORD
 002234 5800 803C            00014 13961                       L     R0,GGWLEN          R1,R0 - TEXT WORD ADDR, LENGTH
 002238 1BFF                       13962                       SR    R15,R15            PRINT GUESSES AT TERMINAL
 00223A 58E0 790A/0DEE       02A70 13963                       ACALL GUESSWD            SEE IF WORD IS IN DICTIONARY
                                   13967              *
                                   13968              *                                 FREE DICTNRY LOCK AND EXIT
 002240 5810 8028            00000 13969                       L     R1,GGDICPTR        R1 - CURRENT DICTIONARY ADDR
 002244 58E0 790E/0DEE       02A74 13970                       ACALL FREEDICT
 00224A 47F0 C7DE            007DE 13974                       B     CVNEXT
 00224E 18D8/9808 D004_            13975                       PEND  ,
 DROP   GGWA-(4+36),R8
 DROP   *,R7
                                   14000              *  GUESS SCAN OPTIONS
 00225C 4040404040404040_          14001              GUESSSCN SCKW  ,V(COLLPSH),PUSH
 002284 4040404040404040_          14016                       SCKW  ,V(SCNINVAL)
1SPELL    (SPEL2025) (12:55) (15MAR04) GUESSWD - find all similar words                                                     Page   57
0Current Usings:  (CP,R11) (CV,R12)
0Loc    Object Code    Addr1 Addr2  Stmt Lv Lineno    Source Statement           (Hibal 5, Asmedit 3.3)  HLASM R4.0  2004/03/15 12.55
+___    ______ ____    _____ _____  ____ __ ______    ______ _________
0                                  14032              ¿þþþþþþþþþþþþþþþþþþþþþþþþþþþþþþþþþþþþþþþþþþþþþþþþþþþþþþþþþþþþþþþþþþþþþÜ
                                   14033              Ÿ                                                                     Ÿ
                                   14034              Ÿ                                                                     Ÿ
                                   14035              Ÿ    GUESSWD - GUESS CORRECT SPELLING, (IE, FIND SIMILAR WORDS)       Ÿ
                                   14036              Ÿ                                                                     Ÿ
                                   14037              Ÿ       INPUTS:  R1,R0 - WORD LOCATION, LENGTH                        Ÿ
                                   14038              Ÿ                R15   - 0, OR RETURN AREA FOR GUESS WORDS.           Ÿ
                                   14039              Ÿ                        AREA SIZE IS ASSUMED TO BE 128 BYTES.        Ÿ
                                   14040              Ÿ                                                                     Ÿ
                                   14041              Ÿ       OUTPUTS: IF R15=0, SIMILAR WORDS ARE LISTED TO TERMINAL.      Ÿ
                                   14042              Ÿ                IF R15=RETURN AREA, WORDS ARE RETURNED IN AREA       Ÿ
                                   14043              Ÿ                EACH WORD IS 1 BYTE LENGTH FOLLOWED BY WORD, LIST    Ÿ
                                   14044              Ÿ                IS TERMINATED BY A ZERO LENGTH.                      Ÿ
                                   14045              Ÿ                                                                     Ÿ
                                   14046              Ÿ       RETURN CODES:                                                 Ÿ
                                   14047              Ÿ                R15=0,  RETURN AREA CONTAINS GUESSES                 Ÿ
                                   14048              Ÿ                R15=4,  WORD IS SPELLED CORRECTLY                    Ÿ
                                   14049              Ÿ                R15=8,  NO (GUESSES) SIMILAR WORDS FOUND             Ÿ
                                   14050              Ÿ                R15=12, GUESSES OVERFLOW 128 BYTE AREA               Ÿ
                                   14051              Ÿ                R16=16, NO SPELLING DICTIONARY AVAILABLE             Ÿ
                                   14052              Ÿ                R15=20, INVALID GUESS QUERY, ('*'1 OR '?'1)          Ÿ
                                   14053              Ÿ                                                                     Ÿ
                                   14054              Ÿ                                                                     Ÿ
                                   14055              Ÿ       THERE ARE THREE MODES OF OPERATION,                           Ÿ
                                   14056              Ÿ          IF '*' IN WORD, USE UNLIMITED SUBSTITUTION FOR '*'         Ÿ
                                   14057              Ÿ          IF '?' IN WORD, USE 1-1 LETTER SUBSTITUTIOTION FOR '?'     Ÿ
                                   14058              Ÿ          IF PLAIN WORD, IF CORRECT WE SAY SO, IF NOT CORRECT        Ÿ
                                   14059              Ÿ               WE GUESS CORRECT (IE. LIST SIMILAR) WORDS             Ÿ
                                   14060              Ÿ                                                                     Ÿ
                                   14061              Ÿ                                                                     Ÿ
                                   14062              Ÿ                                                                     Ÿ
                                                      ¾þþþþþþþþþþþþþþþþþþþþþþþþþþþþþþþþþþþþþþþþþþþþþþþþþþþþþþþþþþþþþþþþþþþþþ»
0000000                00000 0016C 14063              GSWA     RECORD BEGIN             GUESS WORK AREA
 000000                            14071  1           GSRET      DS    F                  RETURN AREA FOR GUESSES
 000004                            14072  1           GSRETPTR   DS    F                  PLACE FOR NEXT GUESS TO RETURN
 000008                            14073  1           GSRETEND   DS    F                  END OF RETURN AREA (GSRET+128)
 00000C 00                         14074  1           GSFLAGS    FLAG  ,
 GSFLAGS.GSPRINT   80 ONES         14078  1                      FLAG  GSPRINT ,,,        GUESSES ARE TO BE PRINTED OUT
 GSFLAGS.GSNOFIX   40 ONES         14083  1                      FLAG  GSNOFIX ,,,        NO SIMILAR WORDS FOUND
 000010                            14088  1           GSDADDR    DS    F                  ADDRESS OF DICTNRY MEMORY AREA
 000014                            14089  1           GSDNDX     DS    F                  ADDRESS OF DICTNRY INDEX
 000018                            14090  1           GSPARMS    DS    0F                 * KEEP * STUFF TOGETHER, PARMS
 000018                            14091  1           GSDPTR     DS    F                  * POINTER TO CURRENT DICTNRY WORD
 00001C                            14092  1           GSDEND     DS    F                  * END OF DICTNRY WORD LIST
 000020                            14093  1           GSDWLEN    DS    F                  * CURRENT DICTNRY WORD LENGTH
 000024                            14094  1           GSDWORD    DS    CL64               * CURRENT DICTNRY WORD (+4 EXTRA)
 000064                            14095  1           GSWORDLN   DS    F                  WORD LENGTH
 000068                            14096  1           GSWORD     DS    CL64               WORD TO LOOK UP (IN LOWER CASE)
 0000A8                            14097  1           GSOCWORD   DS    CL64               WORD TO LOOK UP (IN ORIGINAL CASE)
 0000E8                            14098  1           GSTEMP     DS    CL64               TEMPORARY WORD STORAGE
 000128                            14099  1           GSBLANKS   DS    CL64               BLANKS
 000168                            14100  1           GSTEST     DS    CL4                LOOP TEST
 00016C                0016C 0016C 14101                       END
1SPELL    (SPEL2025) (12:55) (15MAR04) GUESSWD - find all similar words                                                     Page   58
0Current Usings:  (CP,R11) (CV,R12)
0Loc    Object Code    Addr1 Addr2  Stmt Lv Lineno    Source Statement           (Hibal 5, Asmedit 3.3)  HLASM R4.0  2004/03/15 12.55
+___    ______ ____    _____ _____  ____ __ ______    ______ _________
0
                                   14111              ¿þþþþþþþþþþþþþþþþþþþþþþþþþþþþþþþþþþþþþþþþþþþþþþþþþþþþþþþþþþþþþþþþþþþþþÜ
                                   14112              Ÿ                                                                     Ÿ
                                   14113              Ÿ                                                                     Ÿ
                                   14114              Ÿ       GUESSWD - FIND SIMILAR WORDS TO ONE GIVEN                     Ÿ
                                   14115              Ÿ                                                                     Ÿ
                                   14116              Ÿ                                                                     Ÿ
                                                      ¾þþþþþþþþþþþþþþþþþþþþþþþþþþþþþþþþþþþþþþþþþþþþþþþþþþþþþþþþþþþþþþþþþþþþþ»
00022AC 50E0 D000/9008_      00000 14117              GUESSWD  XPROC GSWA
 USING  *,R7
 USING  GSWA-(4+36),R8
                                   14168                       ¿þþþþþþþþþþþþþþþþþþþþþþþþþþþþþþþÜ
                                   14169                       Ÿ  INITIALIZE WORK AREA MEMORY  Ÿ
                                   14170                       ¾þþþþþþþþþþþþþþþþþþþþþþþþþþþþþþþ»
 0022C6 4160 8028            00000 14171                       LA    R6,GSWA
 USING  GSWA,R6                    14172                       USING GSWA,R6
 0022CA D7FF 6000 6000_00000 00000 14181                       CLEAR GSWA               CLEAR WORK AREA,, AND INITIALIZE IT
 0022D6 9001 D000/41D0_      00000 14189                       XPUSH R0,R1              PUSH INPUT PARMS
                                   14192
 0022DE 59F0 77B2/4770_      02A78 14193                       IF    (R15,EQ,0),BEGIN   SET UP RETURN AREA,,,
 0022E6 9680 600C      0000C       14210  1                      SET   GSPRINT            IF NO RETURN AREA, PRINT RESULTS
 0022EA                            14216                       END   ,                       AT THE TERMINAL
 0022EA 7028/47F0 703C 022EA 022E4 14220                       ELSE  BEGIN ,            IF RETURN AREA, WE SET IT UP
 0022EE 50F0 6000            00000 14231  1                      ST    R15,GSRET          R15 - RETURN AREA POINTER
 0022F2 50F0 6004            00004 14232  1                      ST    R15,GSRETPTR       PLACE FOR NEXT GUESS
 0022F6 9200 F000      00000       14233  1                      MVI   0(R15),X'00'       ZERO MARKS END OF LIST
 0022FA 41FF 0080            00080 14234  1                      LA    R15,128(R15)       SAVE END ON RETURN AREA
 0022FE 50F0 6008            00008 14235  1                      ST    R15,GSRETEND
 002302                            14236                       END
                                   14240
 002302 58E0 7782/0DEE       02A48 14241                       ACALL GETDICT            GET DICTIONARY ADDRESS
 002308 4780 71AA            02470 14245                       BZ    NODICT             IF NO DICTIONARY, THEN NO GUESS
 00230C 5010 6010            00010 14246                       ST    R1,GSDADDR         SAVE DICTIONARY POINTERS
 USING  DICTNRY,R1                 14247                       USING DICTNRY,R1
 002310 4120 1020            00020 14256                       LA    R2,DICTNDX         SAVE DICTIONARY INDEX ADDRESS
 002314 5020 6014            00014 14257                       ST    R2,GSDNDX
 002318 5820 1008            00008 14258                       L     R2,DICTEND         SAVE END OF DICTIONARY
 00231C 5020 601C            0001C 14259                       ST    R2,GSDEND
 DROP   DICTNRY,R1                 14260                       DROP  R1
                                   14267
 002320 9240 6128      00128       14268                       MVI   GSBLANKS,C' '      BLANK ALL WORD STORAGE LOCATIONS
 002324 D23E 6129 6128 00129 00128 14269                       MVC   GSBLANKS+1(63),GSBLANKS
 00232A D23F 60A8 6128 000A8 00128 14270                       MVC   GSOCWORD(64),GSBLANKS
 002330 D23F 6068 6128 00068 00128 14271                       MVC   GSWORD(64),GSBLANKS
 002336 D23F 6024 6128 00024 00128 14272                       MVC   GSDWORD(64),GSBLANKS
 00233C D23F 60E8 6128 000E8 00128 14273                       MVC   GSTEMP(64),GSBLANKS
 002342 D203 6168 6128 00168 00128 14274                       MVC   GSTEST(4),GSBLANKS
 002348 9640 600C      0000C       14275                       SET   GSNOFIX            SO FAR NO GUESSES
                                   14281
 00234C 4BD0 77E8/9801_      02AAE 14282                       XPOP  R0,R1              R1,R0 - WORD ADDRESS, LENGTH
 002354 5000 6064            00064 14285                       ST    R0,GSWORDLN        SAVE LENGTH
 002358 1850                       14286                       LR    R5,R0
 00235A 0650/1255/4740_            14287                       MOVE  R5,GSOCWORD,@R1    SAVE WORD
1SPELL    (SPEL2025) (12:55) (15MAR04) GUESSWD - find all similar words                                                     Page   59
0Current Usings:  (GSWA,R6) (*,R7) (GSWA-(4+36),R8) (CP,R11) (CV,R12)
0Loc    Object Code    Addr1 Addr2  Stmt Lv Lineno    Source Statement           (Hibal 5, Asmedit 3.3)  HLASM R4.0  2004/03/15 12.55
+___    ______ ____    _____ _____  ____ __ ______    ______ _________
0002366 D23F 6068 60A8 00068 000A8 14325                       MVC   GSWORD(64),GSOCWORD  GET WORD IN LOWER CASE
 00236C 5810 77B6            02A7C 14326                       L     R1,=A(LOWERTAB)
 002370 DC3F 6068 1000 00068 00000 14327                       TR    GSWORD(64),0(R1)   TRANSLATE WORD TO LOWER CASE
 002376 D603 B05C B05C_0005C 0005C 14328                       TCCR  ,,,                FORCE OUT ANY OUTSTANDING MESSAGES
                                   14390                       ¿þþþþþþþþþþþþþþþþþþþþþþþþþþþþþþþþþþþþþþþþþþþþþþÜ
                                   14391                       Ÿ  SEE IF WORD IS CORRECT, (IE IN DICTIONARY)  Ÿ
                                   14392                       ¾þþþþþþþþþþþþþþþþþþþþþþþþþþþþþþþþþþþþþþþþþþþþþþ»
 002396 1200                       14393                       LTR   R0,R0              IF NO WORD, NO GUESS
 002398 4780 7188            0244E 14394                       BZ    NOGUESS
 00239C 4110 6068            00068 14395                       LA    R1,GSWORD          R1 - WORD IN LOWER CASE
 0023A0 5800 6064            00064 14396                       L     R0,GSWORDLN        R0 - WORD LENGTH
 0023A4 58E0 77BE/0DEE       02A84 14397                       ACALL CHECKWD            IS WORD IN DICTIONARY ???
 0023AA 4780 7154            0241A 14401                       BZ    CORRECT            IF WORD IN DICTNRY, ASSUME CORRECT
                                   14402                       COMMENT                  IF '?' OR '*' IS 1ST CHAR IN WORD,,
 0023AE 956F 6068/4780_00068       14403                       IF (('CLI GSWORD,C"?"',E),OR,('CLI GSWORD,C"*"',E)),BEGIN
 0023BE 47F0 71CC            02492 14428  1                      B     BADQUERY           '?'1 OR '*'1 IS ILLEGAL IN QUERY
 0023C2                            14429                       END
                                   14433                       ¿þþþþþþþþþþþþþþþþþþþþþþþþþþþþþþþþþþþþþþþÜ
                                   14434                       Ÿ  BRANCH TO APPROPRIATE GUESS ROUTINE  Ÿ
                                   14435                       ¾þþþþþþþþþþþþþþþþþþþþþþþþþþþþþþþþþþþþþþþ»
 0023C2 4110 6068            00068 14436                       LA    R1,GSWORD
 0023C6 5800 6064            00064 14437                       L     R0,GSWORDLN        R1,R0 - WORD ADDRESS, LENGTH
 0023CA 1A01                       14438                       AR    R0,R1
 0023CC 1821                       14439                       LR    R2,R1
 0023CE 1910/47B0 7128             14440                       WHILE (R1,LT,R0),BEGIN
 0023D4 955C 1000      00000       14457  1                      CLI   0(R1),C'*'
 0023D8 4770 7120            023E6 14458  1                      IF    E,BEGIN            IF WORD CONTAINS '*' ,,,,
 0023DC 58E0 77C2/0DEE       02A88 14469  2                        ACALL GUESSXXX              CHECK USING ANY SUBSTITUTIONS
 0023E2 47F0 7200            024C6 14473  2                        B     GUESSRET
 0023E6                            14474  1                      END
 0023E6 4111 0001            00001 14478  1                      LA    R1,1(R1)
 0023EA 47F0 7108            023CE 14479                       END
 0023EE 1812                       14484                       LR    R1,R2
 0023F0 1910/47B0 714A             14485                       WHILE (R1,LT,R0),BEGIN
 0023F6 956F 1000      00000       14502  1                      CLI   0(R1),C'?'
 0023FA 4770 7142            02408 14503  1                      IF    E,BEGIN            IF WORD CONTAINS '?' ,,,,
 0023FE 58E0 77C6/0DEE       02A8C 14514  2                        ACALL GUESSQQQ              CHECK USING ONE CHARACTER PER
 002404 47F0 7200            024C6 14518  2                        B     GUESSRET              '?' AS A SUBSTITUTION
 002408                            14519  1                      END
 002408 4111 0001            00001 14523  1                      LA    R1,1(R1)
 00240C 47F0 712A            023F0 14524                       END
                                   14529                       COMMENT                  IF NO '?' OR '*' IMBEDDED IN WORD,,
 002410 58E0 77CA/0DEE       02A90 14530                       ACALL GSIMILAR             FIND ALL SIMILAR WORDS,
 002416 47F0 7200            024C6 14534                       B     GUESSRET
-
-                                  14536              ¿þþþþþþþþþþþþþþþþþþþþþþþþþþþþþþþþþþþþþþþþþþþþþþþþþþþþþþþþþþþþþþþþþþþþþÜ
                                   14537              Ÿ                                                                     Ÿ
                                   14538              Ÿ                                                                     Ÿ
                                   14539              Ÿ       PROCESS VARIOUS GUESS WORD RETURNS                            Ÿ
                                   14540              Ÿ                                                                     Ÿ
1SPELL    (SPEL2025) (12:55) (15MAR04) GUESSWD - find all similar words                                                     Page   60
0Current Usings:  (GSWA,R6) (*,R7) (GSWA-(4+36),R8) (CP,R11) (CV,R12)
0Loc    Object Code    Addr1 Addr2  Stmt Lv Lineno    Source Statement           (Hibal 5, Asmedit 3.3)  HLASM R4.0  2004/03/15 12.55
+___    ______ ____    _____ _____  ____ __ ______    ______ _________
0                                  14541              Ÿ                                                                     Ÿ
                                                      ¾þþþþþþþþþþþþþþþþþþþþþþþþþþþþþþþþþþþþþþþþþþþþþþþþþþþþþþþþþþþþþþþþþþþþþ»
000241A                            14542              CORRECT  LABEL ,                  WORD IS SPELLED CORECTLY
 00241A 9180 600C/47E0_0000C       14544                       IF    GSPRINT,BEGIN
 002422 4110 60A8            000A8 14559  1                      LA    R1,GSOCWORD            SO WE SAY SO
 002426 5800 6064            00064 14560  1                      L     R0,GSWORDLN            AND SET CC (R15=4)
 00242A 41F0 B050/58E0_      00050 14561  1                      TSEG  (R1),(R0)
 002434 4110 77EA/4100_      02AB0 14585  1                      TSEG  ' is spelled correctly.',,CR
 002446                            14603                       END
 002446 41F0 0004            00004 14607                       LA    R15,4
 00244A 47F0 7200            024C6 14608                       B     GUESSRET
-                                  14610
 00244E                            14611              NOGUESS  LABEL ,                  NO GUESSES,  GOOD OR BAD
 00244E 9180 600C/47E0_0000C       14613                       IF    GSPRINT,BEGIN      RETURN CC (R15=8)
 002456 4110 784B/4100_      02B11 14628  1                      TSEG  'No simliar words found in dictionary.'
 002468                            14646                       END
 002468 41F0 0008            00008 14650                       LA    R15,8
 00246C 47F0 7200            024C6 14651                       B     GUESSRET
-                                  14653
 002470                            14654              NODICT   LABEL ,                  NO DICTIONARY AVAILABLE
 002470 9180 600C/47E0_0000C       14656                       IF    GSPRINT,BEGIN      GIVE MESSAGE AND SET CC (R15=16)
 002478 4110 7870/4100_      02B36 14671  1                TSEG  'No spelling dictionary available. No similar words found.'
 00248A                            14689                       END
 00248A 41F0 0010            00010 14693                       LA    R15,16
 00248E 47F0 7200            024C6 14694                       B     GUESSRET
-                                  14696
 002492                            14697              BADQUERY LABEL ,                  ILLEGAL QUERY OF DICTIONARY
 002492 9180 600C/47E0_0000C       14699                       IF    GSPRINT,BEGIN      SET CC (R15=20)
 00249A 4110 78A9/4100_      02B6F 14714  1                      TSEG  '"?" and "*" are not accepted as first letter '
 0024AC 4110 7800/4100_      02AC6 14732  1                      TSEG  'in spelling query.',,CR
 0024BE                            14750                       END
 0024BE 41F0 0014            00014 14754                       LA    R15,20
 0024C2 47F0 7200            024C6 14755                       B     GUESSRET
-                                  14757              *
                                   14758              *        RETURN TO CALLER
                                   14759              *                                 **************** EXIT >>>>>
 0024C6                            14760              GUESSRET LABEL ,
 0024C6 50F0 D000/41D0_      00000 14762                       XPUSH R15                PUSH RETURN CODE
 0024CE 5810 6010            00010 14765                       L     R1,GSDADDR         R1 - CURRENT DICTNRY MEMORY ADDR
 0024D2 58E0 77AE/0DEE       02A74 14766                       ACALL FREEDICT           FREE DICTNRY USE LOCK, AND RETURN
 0024D8 4BD0 7812/58F0_      02AD8 14770                       XPOP  R15
 0024E0 18D8/9808 D004_            14773                       PEND  ,
 DROP   GSWA-(4+36),R8
 DROP   *,R7
1SPELL    (SPEL2025) (12:55) (15MAR04) GUESSWD - find all similar words                                                     Page   61
0Current Usings:  (GSWA,R6) (CP,R11) (CV,R12)
0Loc    Object Code    Addr1 Addr2  Stmt Lv Lineno    Source Statement           (Hibal 5, Asmedit 3.3)  HLASM R4.0  2004/03/15 12.55
+___    ______ ____    _____ _____  ____ __ ______    ______ _________
0                                  14799              ¿þþþþþþþþþþþþþþþþþþþþþþþþþþþþþþþþþþþþþþþþþþþþþþþþþþþþþþþþþþþþþþþþþþþþþÜ
                                   14800              Ÿ                                                                     Ÿ
                                   14801              Ÿ                                                                     Ÿ
                                   14802              Ÿ       GUESSQQQ                                                      Ÿ
                                   14803              Ÿ                                                                     Ÿ
                                   14804              Ÿ       FIND WORDS SIMILAR TO ONE WITH QUESTION MARKS,                Ÿ
                                   14805              Ÿ            VALID LETTERS ARE USED TO REPLACE QUESTION MARKS.        Ÿ
                                   14806              Ÿ                                                                     Ÿ
                                   14807              Ÿ       ON INPUT:                                                     Ÿ
                                   14808              Ÿ              GSWORD - CONTAINS WORD WITH QUESTION MARKS FOR         Ÿ
                                   14809              Ÿ                         UNSURE LETTERS.   (LOWER CASE)              Ÿ
                                   14810              Ÿ                                                                     Ÿ
                                   14811              Ÿ FOR EXAMPLE, A QUERY OF: CH?MP                                      Ÿ
                                   14812              Ÿ WILL FIND WORDS, ,,,,        CHAMP CHIMP CHOMP CHUMP                Ÿ
                                   14813              Ÿ                                                                     Ÿ
                                   14814              Ÿ                                                                     Ÿ
                                                      ¾þþþþþþþþþþþþþþþþþþþþþþþþþþþþþþþþþþþþþþþþþþþþþþþþþþþþþþþþþþþþþþþþþþþþþ»
00024EE 50E0 D000/9008_      00000 14815              GUESSQQQ PROC  ,                  CHECK FOR SIMILAR WORDS
 USING  *,R7
                                   14854                       ¿þþþþþþþþþþþþþþþþþþþþþþþþþþþþþþþþþþþþþþþþþþþþþþþþþþþþþþþÜ
                                   14855                       Ÿ  WE SEARCH THRU ALL WORDS WITH SAME FIRST 3 LETTERS,  Ÿ
                                   14856                       Ÿ  GET 1ST 3 LETTERS, OR LESS IF ONE IS '?' OR '*'      Ÿ
                                   14857                       ¾þþþþþþþþþþþþþþþþþþþþþþþþþþþþþþþþþþþþþþþþþþþþþþþþþþþþþþþ»
 002508 D23F 60E8 6068 000E8 00068 14858                       MVC   GSTEMP(64),GSWORD
 00250E D23C 606B 6128 0006B 00128 14859                       MVC   GSWORD+3(64-3),GSBLANKS    MOVE IN 1ST 3 LETTERS
 002514 D203 6168 6068 00168 00068 14860                       MVC   GSTEST(4),GSWORD
 00251A 956F 6069      00069       14861                       CLI   GSWORD+1,C'?'              IF 2ND LETTER IS '?'
 00251E 4770 7026            0252E 14862                       IF    E,BEGIN                      USE ONLY 1ST LETTER
 002522 D201 6069 75D2 00069 02ADA 14873  1                      MVC   GSWORD+1(2),=C'  '
 002528 D201 6169 75D4 00169 02ADC 14874  1                      MVC   GSTEST+1(2),=X'FFFF'
 00252E                            14875                       END
 00252E 956F 606A      0006A       14879                       CLI   GSWORD+2,C'?'              IF 3RD LETTER IS '?'
 002532 4770 7036            0253E 14880                       IF    E,BEGIN                      USE ONLY 1ST 2 LETTERS
 002536 9240 606A      0006A       14891  1                      MVI   GSWORD+2,C' '
 00253A 92FF 616A      0016A       14892  1                      MVI   GSTEST+2,X'FF'
 00253E                            14893                       END
 00253E 5810 6014            00014 14897                       L     R1,GSDNDX          R1 - INDEX ADDRESS
 002542 4100 6068            00068 14898                       LA    R0,GSWORD          R0 - 1ST 4 CHARS OF GUESS WORD
 002546 58E0 7590/0DEE       02A98 14899                       ACALL DSEARCH            INDEX INTO DICTIONARY,,,
 00254C 5010 6018            00018 14903                       ST    R1,GSDPTR          R1 - RETURNS POINTER INTO DICTNRY
 002550 D23F 6068 60E8 00068 000E8 14904                       MVC   GSWORD(64),GSTEMP  RESET WORD
 002556 9640 600C      0000C       14905                       SET   GSNOFIX            SO FAR, NO SIMILAR WORDS FOUND
                                   14911                       COMMENT
                                   14912                       COMMENT
 00255A                            14913              GSQQLOOP LABEL ,                  LOOP LOOKING FOR SIMILAR WORDS
                                   14915                       COMMENT
                                   14916                       COMMENT
 00255A 4110 6018            00018 14917                       LA    R1,GSPARMS         R1 - PARMS TO PASS TO NEXTDICT
 00255E 58E0 7594/0DEE       02A9C 14918                       ACALL NEXTDICT           GET NEXT WORD FROM DICTIONARY
 002564 4770 70B8            025C0 14922                       BNZ   GSQQDONE           IF END OF DICTIONARY, WE ARE DONE
 002568 D502 6024 6168 00024 00168 14923                       CLC   GSDWORD(3),GSTEST  ARE THE FIRST LETTERS STILL
 00256E 4720 70B8            025C0 14924                       BH    GSQQDONE               THE SAME AS IN QUERY WORD
                                   14925                       COMMENT                      IF NOT, WE ARE DONE
1SPELL    (SPEL2025) (12:55) (15MAR04) GUESSWD - find all similar words                                                     Page   62
0Current Usings:  (GSWA,R6) (*,R7) (CP,R11) (CV,R12)
0Loc    Object Code    Addr1 Addr2  Stmt Lv Lineno    Source Statement           (Hibal 5, Asmedit 3.3)  HLASM R4.0  2004/03/15 12.55
+___    ______ ____    _____ _____  ____ __ ______    ______ _________
0002572 5800 6020            00020 14926                       L     R0,GSDWLEN         R0 - DICTIONARY WORD LENGTH
 002576 5900 6064            00064 14927                       C     R0,GSWORDLN        IF WORD NOT SAME LENGTH, LOOP
 00257A 4770 7052            0255A 14928                       BNE   GSQQLOOP
 00257E                            14929                       BEGIN ,                  IF WORD LENGTHS ARE THE SAME,
 00257E 4110 6068            00068 14933  1                      LA    R1,GSWORD              CHECK TO SEE IF SIMILAR WORDS
 002582 4120 6024            00024 14934  1                      LA    R2,GSDWORD             R1 - WORD, R2 - DICTNRY WORD
 002586 1831                       14935  1                      LR    R3,R1                  R3 - END OF WORD
 002588 1A30                       14936  1                      AR    R3,R0
 00258A 1913/47B0 70A6             14937  1                      WHILE (R1,LT,R3),BEGIN   COMPARE ALL NON '?' LETTERS
 002590 956F 1000      00000       14954  2                        CLI   0(R1),C'?'
 002594 4780 709A            025A2 14955  2                        IF    NE,BEGIN               FOR MATCH, ALL MUST MATCH
 002598 D500 1000 2000 00000 00000 14966  3                          CLC   0(1,R1),0(R2)
 00259E 4770 7052            0255A 14967  3                          BNE   GSQQLOOP               IF NO MATCH, LOOP TO NEXT
 0025A2                            14968  2                        END   ,                            WORD
 0025A2 4111 0001            00001 14972  2                        LA    R1,1(R1)
 0025A6 4122 0001            00001 14973  2                        LA    R2,1(R2)
 0025AA 47F0 7082            0258A 14974  1                      END
                                   14979  1                      COMMENT
 0025AE                            14980  1           GSQQYES    LABEL ,                  SIMILAR WORDS, FALL THRU TO HERE
 0025AE 4110 6024            00024 14982  1                      LA    R1,GSDWORD         R1,R0 - WORD ADDRESS, LENGTH
 0025B2 5800 6020            00020 14983  1                      L     R0,GSDWLEN         WE OUTPUT OR RETURN GUESS TO
 0025B6 58E0 7598/0DEE       02AA0 14984  1                      ACALL GSLIST               IN PROPER FORMAT
 0025BC 47F0 7052            0255A 14988  1                      B     GSQQLOOP           GO LOOK FOR NEXT SIMILAR WORD
 0025C0                            14989                       END
00025C0                            14994              GSQQDONE LABEL ,                  END OF SIMILAR WORD SEARCH,
 0025C0 1B00                       14996                       SR    R0,R0              IF FOUND SIMILAR WORDS,
 0025C2 58E0 7598/0DEE       02AA0 14997                       ACALL GSLIST               FORCE OUT LAST LINE OF THEM
                                   15001                       COMMENT                    IF ANY
 0025C8 18D8/9808 D004_            15002                       PEND  ,                  RESTORE AND RETURN
 DROP   *,R7
1SPELL    (SPEL2025) (12:55) (15MAR04) GUESSWD - find all similar words                                                     Page   63
0Current Usings:  (GSWA,R6) (CP,R11) (CV,R12)
0Loc    Object Code    Addr1 Addr2  Stmt Lv Lineno    Source Statement           (Hibal 5, Asmedit 3.3)  HLASM R4.0  2004/03/15 12.55
+___    ______ ____    _____ _____  ____ __ ______    ______ _________
0                                  15023              ¿þþþþþþþþþþþþþþþþþþþþþþþþþþþþþþþþþþþþþþþþþþþþþþþþþþþþþþþþþþþþþþþþþþþþþÜ
                                   15024              Ÿ                                                                     Ÿ
                                   15025              Ÿ                                                                     Ÿ
                                   15026              Ÿ       GUESSXXX                                                      Ÿ
                                   15027              Ÿ                                                                     Ÿ
                                   15028              Ÿ       FIND WORDS SIMILAR TO ONE CONTAINING '*' CHARACTERS.          Ÿ
                                   15029              Ÿ          VALID LETTERS ARE USED TO REPLACE THE '*' CHARACTERS.      Ÿ
                                   15030              Ÿ                                                                     Ÿ
                                   15031              Ÿ       ON INPUT:                                                     Ÿ
                                   15032              Ÿ          GSWORD   - CONTAINS WORD WITH '*' CHARACTERS FOR           Ÿ
                                   15033              Ÿ                     UNSURE LETTERS.   (IN LOWER CASE)               Ÿ
                                   15034              Ÿ                                                                     Ÿ
                                   15035              Ÿ FOR EXAMPLE, A QUERY OF: OR*ATION                                   Ÿ
                                   15036              Ÿ WILL FIND WORDS, ,,,,     ORATION, ORGANIZATION, ORIENTATION, ....  Ÿ
                                   15037              Ÿ                                                                     Ÿ
                                   15038              Ÿ                                                                     Ÿ
                                   15039              Ÿ THE BIG DIFFERENCE BETWEEN '?' AND '*' IN A QUERY WORD IS THAT      Ÿ
                                   15040              Ÿ '?' IS REPLACED BY LETTERS IN A ONE TO ONE FASHION, WHILE '*'       Ÿ
                                   15041              Ÿ IS REPLACED BY SUBSTITUTIONS OF ANY NUMBER OF LETTERS. SEE          Ÿ
                                   15042              Ÿ ABOVE EXAMPLE.                                                      Ÿ
                                   15043              Ÿ                                                                     Ÿ
                                   15044              Ÿ                                                                     Ÿ
                                                      ¾þþþþþþþþþþþþþþþþþþþþþþþþþþþþþþþþþþþþþþþþþþþþþþþþþþþþþþþþþþþþþþþþþþþþþ»
00025D6 50E0 D000/9008_      00000 15045              GUESSXXX PROC  ,                  CHECK FOR SIMILAR WORDS
 USING  *,R7
                                   15084                       ¿þþþþþþþþþþþþþþþþþþþþþþþþþþþþþþþþþþþþþþþþþþþþþþþþþþþþþþþÜ
                                   15085                       Ÿ  WE SEARCH THRU ALL WORDS WITH SAME FIRST 3 LETTERS,  Ÿ
                                   15086                       Ÿ  GET 1ST 3 LETTERS, OR LESS IF ONE IS '?' OR '*'      Ÿ
                                   15087                       ¾þþþþþþþþþþþþþþþþþþþþþþþþþþþþþþþþþþþþþþþþþþþþþþþþþþþþþþþ»
 0025F0 D23F 60E8 6068 000E8 00068 15088                       MVC   GSTEMP(64),GSWORD
 0025F6 D23C 606B 6128 0006B 00128 15089                       MVC   GSWORD+3(64-3),GSBLANKS    MOVE IN 1ST 3 LETTERS
 0025FC D203 6168 6068 00168 00068 15090                       MVC   GSTEST(4),GSWORD
 002602 956F 6069      00069       15091                       CLI   GSWORD+1,C'?'              IF 2ND LETTER IS '?'
 002606 4770 7026            02616 15092                       IF    E,BEGIN                      USE ONLY 1ST LETTER
 00260A D201 6069 74EA 00069 02ADA 15103  1                      MVC   GSWORD+1(2),=C'  '
 002610 D201 6169 74EC 00169 02ADC 15104  1                      MVC   GSTEST+1(2),=X'FFFF'
 002616                            15105                       END
 002616 956F 606A      0006A       15109                       CLI   GSWORD+2,C'?'              IF 3RD LETTER IS '?'
 00261A 4770 7036            02626 15110                       IF    E,BEGIN                      USE ONLY 1ST 2 LETTERS
 00261E 9240 606A      0006A       15121  1                      MVI   GSWORD+2,C' '
 002622 92FF 616A      0016A       15122  1                      MVI   GSTEST+2,X'FF'
 002626                            15123                       END
 002626 955C 6069      00069       15127                       CLI   GSWORD+1,C'*'              IF 2ND LETTER IS '*'
 00262A 4770 704A            0263A 15128                       IF    E,BEGIN                      USE ONLY 1ST LETTER
 00262E D201 6069 74EA 00069 02ADA 15139  1                      MVC   GSWORD+1(2),=C'  '
 002634 D201 6169 74EC 00169 02ADC 15140  1                      MVC   GSTEST+1(2),=X'FFFF'
 00263A                            15141                       END
 00263A 955C 606A      0006A       15145                       CLI   GSWORD+2,C'*'              IF 3RD LETTER IS '*'
 00263E 4770 705A            0264A 15146                       IF    E,BEGIN                      USE ONLY 1ST 2 LETTERS
 002642 9240 606A      0006A       15157  1                      MVI   GSWORD+2,C' '
 002646 92FF 616A      0016A       15158  1                      MVI   GSTEST+2,X'FF'
 00264A                            15159                       END
                                   15163              *
1SPELL    (SPEL2025) (12:55) (15MAR04) GUESSWD - find all similar words                                                     Page   64
0Current Usings:  (GSWA,R6) (*,R7) (CP,R11) (CV,R12)
0Loc    Object Code    Addr1 Addr2  Stmt Lv Lineno    Source Statement           (Hibal 5, Asmedit 3.3)  HLASM R4.0  2004/03/15 12.55
+___    ______ ____    _____ _____  ____ __ ______    ______ _________
0                                  15164              *                                 SEARCH FOR SIMILAR WORDS,,,
 00264A 5810 6014            00014 15165                       L     R1,GSDNDX          R1 - INDEX ADDRESS
 00264E 4100 6068            00068 15166                       LA    R0,GSWORD          R0 - 1ST 4 CHARS OF GUESS WORD
 002652 58E0 74A8/0DEE       02A98 15167                       ACALL DSEARCH            INDEX INTO DICTIONARY,,,
 002658 5010 6018            00018 15171                       ST    R1,GSDPTR          R1 - RETURNS POINTER INTO DICTNRY
 00265C D23F 6068 60E8 00068 000E8 15172                       MVC   GSWORD(64),GSTEMP  RESET WORD
 002662 9640 600C      0000C       15173                       SET   GSNOFIX            SO FAR, NO SIMILAR WORDS FOUND
                                   15179                       COMMENT
                                   15180                       COMMENT
 002666                            15181              GSXXLOOP LOOP  BEGIN  ,           LOOP LOOKING FOR SIMILAR WORDS
                                   15188  1                      COMMENT
                                   15189  1                      COMMENT
 002666 4110 6018            00018 15190  1                      LA    R1,GSPARMS         R1 - PARMS TO PASS TO NEXTDICT
 00266A 58E0 74AC/0DEE       02A9C 15191  1                      ACALL NEXTDICT           GET NEXT WORD FROM DICTIONARY
 002670 4770 7168            02758 15195  1                      BNZ   GSXXDONE           IF END OF DICTIONARY, WE ARE DONE
 002674 5800 6020            00020 15196  1                      L     R0,GSDWLEN         R0 - DICTIONARY WORD LENGTH
 002678 D502 6024 6168 00024 00168 15197  1                      CLC   GSDWORD(3),GSTEST  ARE THE FIRST LETTERS STILL THE
 00267E 4720 7168            02758 15198  1                      BH    GSXXDONE               THE SAME AS IN QUERY WORD
                                   15199  1                      COMMENT                      IF NOT, WE ARE DONE
                                   15200  1           *
                                   15201  1           *  WE SEARCH ALL WORDS,  REGISTER USAGE IS AS FOLLOWS
                                   15202  1           *
                                   15203  1           *  R0 - DICTIONARY WORD LENGTH
                                   15204  1           *  R1 - WORD INDEX
                                   15205  1           *  R2 - DICTIONARY WORD INDEX
                                   15206  1           *  R4 - END OF DICTIONARY WORD INDEX   (1ST MATCH ENDING CHAR)
                                   15207  1           * R14 - END OF WORD INDEX              (1ST NON MATCH ENDING CHAR)
                                   15208  1           *
                                   15209  1           *      OR*N*ATION               ORGANIZATION
                                   15210  1           *        | |                      |    |
                                   15211  1           *       R1 R14                   R2    R4
                                   15212  1           *
                                   15213  1           *  NOTE:  ABOVE REGISTERS ARE INDEXS. THEY CHANGE, THE EXAMPLE
                                   15214  1           *         REPRESENTS ONLY ONE POINT IN TIME.  DIG IT.
                                   15215  1           *
                                   15216  1           *  COMPARE ENDS OF WORDS
 002682 41E0 6068            00068 15217  1                      LA    R14,GSWORD         R14 - END OF WORD
 002686 5AE0 6064            00064 15218  1                      A     R14,GSWORDLN
 00268A 4140 6024            00024 15219  1                      LA    R4,GSDWORD         R4 - END OF DICTNRY WORD
 00268E 1A40                       15220  1                      AR    R4,R0
 002690                            15221  1                      LOOP  BEGIN ,            COMPARE THE END OF THE WORDS
 002690 0640                       15227  2                        BCTR  R4,0
 002692 06E0                       15228  2                        BCTR  R14,0
 002694 956F E000      00000       15229  2                        CLI   0(R14),C'?'          '?' MATCHES WITH ANY LETTER
 002698 4780 70B2            026A2 15230  2                        IF    NE,BEGIN             IF NOT '?', CHECK FOR MATCH
 00269C D500 4000 E000 00000 00000 15241  3                          CLC   0(1,R4),0(R14)
 0026A2                            15242  2                        END
 0026A2 4770 70BA            026AA 15246  2                        UNTIL NE                 LOOP UNTIL ENDINGS DO NOT MATCH
 0026A6 47F0 70A0            02690 15261  1                      END   ,
 0026AA 4144 0001            00001 15266  1                      LA    R4,1(R4)           R4 - LAST ENDING CHAR TO MATCH
 0026AE 955C E000      00000       15267  1                      CLI   0(R14),C'*'        IF MATCH DID NOT BOMB ON '*'
 0026B2 4770 7076            02666 15268  1                      BNE   GSXXLOOP             THEN NO MATCH, SO WE LOOP TO NEXT
                                   15269  1                      COMMENT
                                   15270  1           *  COMPARE START OF WORDS
1SPELL    (SPEL2025) (12:55) (15MAR04) GUESSWD - find all similar words                                                     Page   65
0Current Usings:  (GSWA,R6) (*,R7) (CP,R11) (CV,R12)
0Loc    Object Code    Addr1 Addr2  Stmt Lv Lineno    Source Statement           (Hibal 5, Asmedit 3.3)  HLASM R4.0  2004/03/15 12.55
+___    ______ ____    _____ _____  ____ __ ______    ______ _________
00026B6 4110 6067            00067 15271  1                      LA    R1,GSWORD-1        R1 - WORD INDEX
 0026BA 4120 6023            00023 15272  1                      LA    R2,GSDWORD-1       R2 - DICTIONARY WORD INDEX
 0026BE                            15273  1                      LOOP  BEGIN ,
 0026BE 4111 0001            00001 15279  2                        LA    R1,1(R1)           CHECK TO SEE IF BEGINNING OF WORDS
 0026C2 4122 0001            00001 15280  2                        LA    R2,1(R2)                       ARE SIMILAR
 0026C6 956F 1000      00000       15281  2                        CLI   0(R1),C'?'           '?' MATCHES WITH ANY LETTER
 0026CA 4780 70E4            026D4 15282  2                        IF    NE,BEGIN             IF NOT '?', CHECK FOR MATCH
 0026CE D500 2000 1000 00000 00000 15293  3                          CLC   0(1,R2),0(R1)
 0026D4                            15294  2                        END
 0026D4 4770 70EC            026DC 15298  2                        UNTIL NE                 LOOP UNTIL BEGINNINGS DO NOT MATCH
 0026D8 47F0 70CE            026BE 15313  1                      END   ,
 0026DC 955C 1000      00000       15318  1                      CLI   0(R1),C'*'         IF MATCH DID NOT BOMB ON '*'
 0026E0 4770 7076            02666 15319  1                      BNE   GSXXLOOP             THEN NO MATCH, SO WE LOOP TO NEXT
 0026E4 1924                       15320  1                      CR    R2,R4              IF START MATCHED INTO END,,
 0026E6 4720 7076            02666 15321  1                      BH    GSXXLOOP             THEN NO MATCH
 0026EA 191E                       15322  1                      CR    R1,R14             IF WE MET IN MIDDLE OF WORD,
 0026EC 4780 7152            02742 15323  1                      BE    GSXXYES               WE HAVE VALID MATCH !!!! ****
 0026F0 4111 0001            00001 15324  1                      LA    R1,1(R1)              ELSE WE BUMP R1 PAST '*'
                                   15325  1                      COMMENT
                                   15326  1           *  RIPPLE TEST MIDDLE OF DICT WORD COMPARING TO MIDDLE OF WORD.
                                   15327  1                      COMMENT                  NOW WE CHECK MIDDLE LETTERS FOR
                                   15328  1                      COMMENT                     TO SEE IF THEY MATCH
                                   15329  1                      COMMENT
                                   15330  1                      COMMENT                  LOOK MOM NO HANDS,  FEW COMMENTS !
 0026F4                            15331  1                      LOOP  BEGIN ,            OH YEAH
 0026F4 1831                       15337  2                        LR    R3,R1              R3 - PART TO TEST AGAINST DICTNRY
 0026F6 0610                       15338  2                        BCTR  R1,0
 0026F8 0620                       15339  2                        BCTR  R2,0
 0026FA                            15340  2                        LOOP  BEGIN ,            COMPARE WORD MIDDLE TO
 0026FA 4111 0001            00001 15346  3                          LA    R1,1(R1)                TO DICTNRY WORD MIDDLE
 0026FE 4122 0001            00001 15347  3                          LA    R2,1(R2)
 002702 956F 1000      00000       15348  3                          CLI   0(R1),C'?'              '?' MATCHES ALL
 002706 4780 7120            02710 15349  3                          IF    NE,BEGIN                IF NOT '?', CHECK FOR MATCH
 00270A D500 1000 2000 00000 00000 15360  4                            CLC   0(1,R1),0(R2)
 002710                            15361  3                          END
 002710 4770 7128            02718 15365  3                          UNTIL NE
 002714 47F0 710A            026FA 15380  2                        END
 002718 1924                       15385  2                        CR    R2,R4              IF MIDDLE MATCHED INTO END,,
 00271A 4720 7076            02666 15386  2                        BH    GSXXLOOP             THEN NO MATCH
 00271E 191E                       15387  2                        CR    R1,R14             IF FRONT MATCH UNTIL END MATCH,,
 002720 4780 7152            02742 15388  2                        BE    GSXXYES              THEN WE HAVE VALID MATCH
 002724 955C 1000      00000       15389  2                        CLI   0(R1),C'*'         IF MATCHED UP TO NEXT '*'
 002728 4770 7140            02730 15390  2                        IF    E,BEGIN              THEN WE CONTINUE TO CHECK NEXT
 00272C 4111 0001            00001 15401  3                          LA    R1,1(R1)             PART OF MIDDLE.  THIS HAPPENS
                                   15402  3                          COMMENT                    ON MULTIPLE '*'S
 002730                            15403  2                        END
 002730 7144/47F0 714E 02730 0272A 15407  2                        ELSE  BEGIN ,            IF NO MATCH, RIPPLE THROUGH
 002734 1B13                       15418  3                          SR    R1,R3                MIDDLE OF DICTNRY WORD
 002736 1B21                       15419  3                          SR    R2,R1                BACK UP BOTH WORD INDEXES
 002738 4122 0001            00001 15420  3                          LA    R2,1(R2)             ADVANCE DICTNRY INDEX BY ONE
 00273C 1813                       15421  3                          LR    R1,R3
 00273E                            15422  2                        END
 00273E 47F0 7104            026F4 15426  1                      END   ,                  LOOP, WE KEEP LOOPING
                                   15431  1                      COMMENT
1SPELL    (SPEL2025) (12:55) (15MAR04) GUESSWD - find all similar words                                                     Page   66
0Current Usings:  (GSWA,R6) (*,R7) (CP,R11) (CV,R12)
0Loc    Object Code    Addr1 Addr2  Stmt Lv Lineno    Source Statement           (Hibal 5, Asmedit 3.3)  HLASM R4.0  2004/03/15 12.55
+___    ______ ____    _____ _____  ____ __ ______    ______ _________
0                                  15433  1                      COMMENT
 002742                            15434  1           GSXXYES    LABEL ,                  SIMILAR WORDS, FALL THRU TO HERE
 002742 4110 6024            00024 15436  1                      LA    R1,GSDWORD         R1,R0 - WORD ADDRESS, LENGTH
 002746 5800 6020            00020 15437  1                      L     R0,GSDWLEN         WE OUTPUT OR RETURN GUESSES IN
 00274A 58E0 74B0/0DEE       02AA0 15438  1                      ACALL GSLIST                PROPER FORMAT
 002750 47F0 7076            02666 15442  1                      B     GSXXLOOP           GO LOOK FOR NEXT SIMILAR WORD
 002754 47F0 7076            02666 15443                       END   ,                  OF CKXXLOOP
0002758                            15449              GSXXDONE LABEL ,                  END OF SIMILAR WORD SEARCH,
 002758 1B00                       15451                       SR    R0,R0              IF FOUND SIMILAR WORDS,
 00275A 58E0 74B0/0DEE       02AA0 15452                       ACALL GSLIST               FORCE OUT LAST LINE OF THEM
                                   15456                       COMMENT                    IF ANY
 002760 18D8/9808 D004_            15457                       PEND  ,
 DROP   *,R7
1SPELL    (SPEL2025) (12:55) (15MAR04) GUESSWD - find all similar words                                                     Page   67
0Current Usings:  (GSWA,R6) (CP,R11) (CV,R12)
0Loc    Object Code    Addr1 Addr2  Stmt Lv Lineno    Source Statement           (Hibal 5, Asmedit 3.3)  HLASM R4.0  2004/03/15 12.55
+___    ______ ____    _____ _____  ____ __ ______    ______ _________
0                                  15478              ¿þþþþþþþþþþþþþþþþþþþþþþþþþþþþþþþþþþþþþþþþþþþþþþþþþþþþþþþþþþþþþþþþþþþþþÜ
                                   15479              Ÿ                                                                     Ÿ
                                   15480              Ÿ                                                                     Ÿ
                                   15481              Ÿ       GSIMILAR                                                      Ÿ
                                   15482              Ÿ                                                                     Ÿ
                                   15483              Ÿ                                                                     Ÿ
                                   15484              Ÿ                                                                     Ÿ
                                   15485              Ÿ GET SIMILAR WORDS TO MISSPELLED WORD                                Ÿ
                                   15486              Ÿ                                                                     Ÿ
                                   15487              Ÿ ON ENTRY:                                                           Ÿ
                                   15488              Ÿ       MISPELLED WORD IS IN VARIABLE: WORD,                          Ÿ
                                   15489              Ÿ ON EXIT:                                                            Ÿ
                                   15490              Ÿ       PRINTS SIMILAR, BUT CORRECTLY SPELLED WORDS PRINTED AT        Ÿ
                                   15491              Ÿ       TERMINAL                                                      Ÿ
                                   15492              Ÿ                                                                     Ÿ
                                   15493              Ÿ   WE FIND SIMILAR WORDS BY ASSUMMING THAT THE ERROR IS ONE          Ÿ
                                   15494              Ÿ OF THE FOLLOWING:                                                   Ÿ
                                   15495              Ÿ       1. ONE LETTER IS MISSING                                      Ÿ
                                   15496              Ÿ       2. ONE LETTER IS ADDED                                        Ÿ
                                   15497              Ÿ       3. ONE LETTER IS WRONG                                        Ÿ
                                   15498              Ÿ       4. TWO LETTERS ARE EXCHANGED                                  Ÿ
                                   15499              Ÿ TO IMPLEMENT CHECK FOR THESE ERRORS, WE COMPARE THE BEGINING        Ÿ
                                   15500              Ÿ AND THE ENDING OF THE WORDS, IF THEY MATCH ALL THE WAY TO           Ÿ
                                   15501              Ÿ SOMEPLACE IN THE MIDDLE, AND THEY MATCH TO WITHIN ONE CHARACTER     Ÿ
                                   15502              Ÿ THEN WE HAVE A SIMILAR WORD.  THINK ABOUT IT.  DOES IT WORK OUT ??  Ÿ
                                   15503              Ÿ                                                                     Ÿ
                                   15504              Ÿ FURTHERMORE TO INCREASE EFFICIENCY, WE ASSUME THAT THE FIRST TWO    Ÿ
                                   15505              Ÿ LETTERS ARE CORRECT, THIS LIMITS THE NUMBER OF WORDS WE MUST        Ÿ
                                   15506              Ÿ SURVEY.  IF NO SIMILAR WORDS ARE FOUND, THEN WE ASSUME ONLY THE     Ÿ
                                   15507              Ÿ FIRST LETTER IS CORRECT.  IF STILL NO SIMILAR WORDS ARE FOUND,      Ÿ
                                   15508              Ÿ WE GIVE UP.                                                         Ÿ
                                   15509              Ÿ                                                                     Ÿ
                                   15510              Ÿ       THEREFORE      BREECH     REMIMD    RECEIVE                   Ÿ
                                   15511              Ÿ       THERFORE       BRECH      REMIND    RECIEVE                   Ÿ
                                   15512              Ÿ   CHECK OUT FIX FINDING,, DOES ALGORITHM REALLY WORK ??             Ÿ
                                   15513              Ÿ                                                                     Ÿ
                                   15514              Ÿ                                                                     Ÿ
                                                      ¾þþþþþþþþþþþþþþþþþþþþþþþþþþþþþþþþþþþþþþþþþþþþþþþþþþþþþþþþþþþþþþþþþþþþþ»
000276E 50E0 D000/9008_      00000 15515              GSIMILAR PROC  ,     , ,,          GET SIMILAR WORDS
 USING  *,R7
                                   15554                       COMMENT
 002788 D23F 60E8 6068 000E8 00068 15555                       MVC   GSTEMP(64),GSWORD
 00278E D23D 606A 6128 0006A 00128 15556                       MVC   GSWORD+2(64-2),GSBLANKS ASSUME 1ST 2 CHARS ARE OK
 002794 5810 6014            00014 15557                       L     R1,GSDNDX          R1 - INDEX ADDRESS
 002798 4100 6068            00068 15558                       LA    R0,GSWORD          R0 - 1ST 4 CHARS OF GUESS WORD
 00279C 58E0 7310/0DEE       02A98 15559                       ACALL DSEARCH            INDEX INTO DICTIONARY,,,
 0027A2 5010 6018            00018 15563                       ST    R1,GSDPTR          R1 - RETURNS POINTER INTO DICTNRY
 0027A6 D23F 6068 60E8 00068 000E8 15564                       MVC   GSWORD(64),GSTEMP  RESET WORD
 0027AC D201 6168 6068 00168 00068 15565                       MVC   GSTEST(2),GSWORD   SET LOOP TEST
 0027B2 D503 6064 731C 00064 02AA4 15566                       CLC   GSWORDLN(4),=F'3'
 0027B8 4740 7176            028FE 15567                       BL    GSSSDONE           IF WORD LENGTH < 3, NOOP REQUEST
 0027BC 9640 600C      0000C       15568                       SET   GSNOFIX            SO FAR, NO SIMILAR WORDS FOUND...
                                   15574                       COMMENT
1SPELL    (SPEL2025) (12:55) (15MAR04) GUESSWD - find all similar words                                                     Page   68
0Current Usings:  (GSWA,R6) (*,R7) (CP,R11) (CV,R12)
0Loc    Object Code    Addr1 Addr2  Stmt Lv Lineno    Source Statement           (Hibal 5, Asmedit 3.3)  HLASM R4.0  2004/03/15 12.55
+___    ______ ____    _____ _____  ____ __ ______    ______ _________
0                                  15575                       COMMENT
                                   15576              *
                                   15577              *
 0027C0                            15578              FINDLOOP LOOP  BEGIN ,            LOOP THRU WORDS IN ALPHABETICAL
                                   15585  1                      COMMENT                    ORDER SEARCHING FOR A SIMILAR ONE
                                   15586  1                      COMMENT
 0027C0 4110 6018            00018 15587  1                      LA    R1,GSPARMS
 0027C4 58E0 7314/0DEE       02A9C 15588  1                      ACALL NEXTDICT           GET NEXT WORD FROM DICTIONARY
 0027CA 4770 7176            028FE 15592  1                      BNZ   GSSSDONE           IF END OF DICTIONARY, WE ARE DONE
 0027CE 5800 6020            00020 15593  1                      L     R0,GSDWLEN            R0 - DICTNRY WORD LENGTH
 0027D2 1830                       15594  1                      LR    R3,R0                 R3 - DICTNRY WORD LENGTH,,
                                   15595  1                      COMMENT                     MUST BE +/-1 OF WORD LENGTH,,
 0027D4 58F0 6064            00064 15596  1                      L     R15,GSWORDLN
 0027D8 18EF                       15597  1                      LR    R14,R15               R15 - MISPELLED WORD LENGTH +1
 0027DA 41FF 0001            00001 15598  1                      LA    R15,1(R15)            R14 - MISPELLED WORD LENGTH -1
 0027DE 06E0                       15599  1                      BCTR  R14,0
 0027E0 193E/4750 7152_            15600  1                      IF    ((R3,GE,R14),AND,(R3,LE,R15)),BEGIN  CHECK LENGTH OUT
                                   15629  2                        ¿þþþþþþþþþþþþþþþþþþþþþþþþþþþþþþþþþþþþþþþþþþþþþþþÜ
                                   15630  2                        Ÿ  WE HAVE ONE EXTRA LETTER IN MISSPELLED WORD  Ÿ
                                   15631  2                        ¾þþþþþþþþþþþþþþþþþþþþþþþþþþþþþþþþþþþþþþþþþþþþþþþ»
 0027EC 193E/4770 70A8             15632  2                        IF    (R3,EQ,R14),BEGIN  *** WE HAVE ONE LETTER EXTRA ***
 0027F2 4110 6067            00067 15647  3                          LA    R1,GSWORD-1
 0027F6 4120 6023            00023 15648  3                          LA    R2,GSDWORD-1
 0027FA                            15649  3                          LOOP  BEGIN              COMPARE BEGINING OF WORD
 0027FA 4111 0001            00001 15655  4                            LA    R1,1(R1)
 0027FE 4122 0001            00001 15656  4                            LA    R2,1(R2)
 002802 D500 1000 2000 00000 00000 15657  4                            CLC   0(1,R1),0(R2)
 002808 4770 7088            02810 15658  4                            UNTIL NE
 00280C 47F0 7072            027FA 15673  3                          END
 002810 4143 6069            00069 15678  3                          LA    R4,GSWORD+1(R3)              (ONE EXTRA LETTER)
 002814 4153 6024            00024 15679  3                          LA    R5,GSDWORD(R3)
 002818                            15680  3                          LOOP  BEGIN              COMPARE ENDING OF WORD
 002818 0640                       15686  4                            BCTR  R4,0
 00281A 0650                       15687  4                            BCTR  R5,0
 00281C D500 4000 5000 00000 00000 15688  4                            CLC   0(1,R4),0(R5)
 002822 4770 70A2            0282A 15689  4                            UNTIL NE
 002826 47F0 7090            02818 15704  3                          END
 00282A 1914                       15709  3                          CR    R1,R4              DID WE ERROR AT ONE LETTER IN
 00282C 47B0 7164            028EC 15710  3                          BNL   GOTAFIX             IN MIDDLE OF WORD?  YES, GOT FIX
 002830                            15711  2                        END
                                   15715  2                        ¿þþþþþþþþþþþþþþþþþþþþþþþþþþþþþþþþþþþþþþþþþþþþþþþþÜ
                                   15716  2                        Ÿ  WE HAVE ON MISSING LETTER IN MISSPELLED WORD  Ÿ
                                   15717  2                        ¾þþþþþþþþþþþþþþþþþþþþþþþþþþþþþþþþþþþþþþþþþþþþþþþþ»
 002830 193F/4770 70EC             15718  2                        IF    (R3,EQ,R15),BEGIN  *** WE HAVE ONE MISSING LETTER ***
 002836 4110 6067            00067 15733  3                          LA    R1,GSWORD-1
 00283A 4120 6023            00023 15734  3                          LA    R2,GSDWORD-1
 00283E                            15735  3                          LOOP  BEGIN              COMPARE BEGINING OF WORD
 00283E 4111 0001            00001 15741  4                            LA    R1,1(R1)
 002842 4122 0001            00001 15742  4                            LA    R2,1(R2)
 002846 D500 1000 2000 00000 00000 15743  4                            CLC   0(1,R1),0(R2)
 00284C 4770 70CC            02854 15744  4                            UNTIL NE
 002850 47F0 70B6            0283E 15759  3                          END
 002854 4143 6067            00067 15764  3                          LA    R4,GSWORD-1(R3)            (ONE MISSING LETTER)
 002858 4153 6024            00024 15765  3                          LA    R5,GSDWORD(R3)
1SPELL    (SPEL2025) (12:55) (15MAR04) GUESSWD - find all similar words                                                     Page   69
0Current Usings:  (GSWA,R6) (*,R7) (CP,R11) (CV,R12)
0Loc    Object Code    Addr1 Addr2  Stmt Lv Lineno    Source Statement           (Hibal 5, Asmedit 3.3)  HLASM R4.0  2004/03/15 12.55
+___    ______ ____    _____ _____  ____ __ ______    ______ _________
000285C                            15766  3                          LOOP  BEGIN              COMPARE ENDING OF WORD
 00285C 0640                       15772  4                            BCTR  R4,0
 00285E 0650                       15773  4                            BCTR  R5,0
 002860 D500 4000 5000 00000 00000 15774  4                            CLC   0(1,R4),0(R5)
 002866 4770 70E6            0286E 15775  4                            UNTIL NE
 00286A 47F0 70D4            0285C 15790  3                          END
 00286E 1925                       15795  3                          CR    R2,R5              DID COMPARES MEET IN MIDDLE OF WORD
 002870 47B0 7164            028EC 15796  3                          BNL   GOTAFIX             IF SO, WE GOT A SIMILAR WORD
 002874                            15797  2                        END
                                   15801  2                        ¿þþþþþþþþþþþþþþþþþþþþþþþþþÜ
                                   15802  2                        Ÿ  WORDS OF EQUAL LENGTH  Ÿ
                                   15803  2                        ¾þþþþþþþþþþþþþþþþþþþþþþþþþ»
 002874 5930 6064/4770_      00064 15804  2                        IF    (R3,EQ,GSWORDLN),BEGIN   *** WORDS EQUAL IN LENGTH ***
 00287C 4110 6067            00067 15821  3                          LA    R1,GSWORD-1
 002880 4120 6023            00023 15822  3                          LA    R2,GSDWORD-1
 002884                            15823  3                          LOOP  BEGIN              COMPARE BEGINING OF WORD
 002884 4111 0001            00001 15829  4                            LA    R1,1(R1)
 002888 4122 0001            00001 15830  4                            LA    R2,1(R2)
 00288C D500 1000 2000 00000 00000 15831  4                            CLC   0(1,R1),0(R2)
 002892 4770 7112            0289A 15832  4                            UNTIL NE
 002896 47F0 70FC            02884 15847  3                          END
 00289A 4143 6068            00068 15852  3                          LA    R4,GSWORD(R3)
 00289E 4153 6024            00024 15853  3                          LA    R5,GSDWORD(R3)
 0028A2                            15854  3                          LOOP  BEGIN              COMPARE ENDINGS OF WORDS
 0028A2 0640                       15860  4                            BCTR  R4,0
 0028A4 0650                       15861  4                            BCTR  R5,0
 0028A6 D500 4000 5000 00000 00000 15862  4                            CLC   0(1,R4),0(R5)
 0028AC 4770 712C            028B4 15863  4                            UNTIL NE
 0028B0 47F0 711A            028A2 15878  3                          END
 0028B4 1914                       15883  3                          CR    R1,R4              IF ONLY ONE LETTER IN ERROR,
 0028B6 4780 7164            028EC 15884  3                          BE    GOTAFIX              WE GOT A SIMILAR WORD
 0028BA 4111 0001            00001 15885  3                          LA    R1,1(R1)
 0028BE 1914                       15886  3                          CR    R1,R4              IF TWO LETTER ERROR,,
 0028C0 4770 7152            028DA 15887  3                          IF    E,BEGIN            SEE IF WE HAVE EXCHANGED LETTERS
 0028C4 0610                       15898  4                            BCTR  R1,0
 0028C6 D500 1000 2001 00000 00001 15899  4                            CLC   0(1,R1),1(R2)
 0028CC 4770 7152            028DA 15900  4                            IF    E,BEGIN
 0028D0 D500 1001 2000 00001 00000 15911  5                              CLC   1(1,R1),0(R2)             COMPARE FOR EXCHANGED LCHARS
 0028D6 4780 7164            028EC 15912  5                              BE    GOTAFIX
 0028DA                            15913  4                            END
 0028DA                            15917  3                          END
 0028DA                            15921  2                        END   ,, END OF = LENGTHS
                                   15925  2           *
                                   15926  2           *
 0028DA                            15927  1                      END   ,, END OF THIS WORD CHECK
                                   15931  1                      COMMENT
                                   15932  1                      COMMENT                  LOOP THRU ALL WORDS IN DICTIONARY
                                   15933  1                      COMMENT                   THAT START WITH SAME TWO CHARS
 0028DA D501 6024 6168 00024 00168 15934  1                      CLC   GSDWORD(2),GSTEST
 0028E0 4720 7160            028E8 15935  1                      UNTIL GT
 0028E4 47F0 7038            027C0 15950                       END
                                   15955              *
                                   15956              *
                                   15957                       COMMENT                  DONE WITH GUESS SEARCH !!
1SPELL    (SPEL2025) (12:55) (15MAR04) GUESSWD - find all similar words                                                     Page   70
0Current Usings:  (GSWA,R6) (*,R7) (CP,R11) (CV,R12)
0Loc    Object Code    Addr1 Addr2  Stmt Lv Lineno    Source Statement           (Hibal 5, Asmedit 3.3)  HLASM R4.0  2004/03/15 12.55
+___    ______ ____    _____ _____  ____ __ ______    ______ _________
00028E8 47F0 7176            028FE 15958                       B     GSSSDONE
-
00028EC                            15960              GOTAFIX  LABEL ,                  WE HAVE A SIMILAR WORD PRINT, IT
 0028EC 4110 6024            00024 15962                       LA    R1,GSDWORD         R1,R0 - WORD ADDRESS AND LENGTH
 0028F0 5800 6020            00020 15963                       L     R0,GSDWLEN
 0028F4 58E0 7318/0DEE       02AA0 15964                       ACALL GSLIST             OUTPUT OR RETURN WORD TO CALLER
 0028FA 47F0 7038            027C0 15968                       B     FINDLOOP           LOOP LOOKING FOR MORE WORDS
-0028FE                            15970              GSSSDONE LABEL ,                  WE HAVE FOUND AND PRINTED ALL
                                   15972                       COMMENT                    ALL SIMILAR WORDS, WE RETURN
 0028FE 9140 600C/47E0_0000C       15973                       IF    GSNOFIX,BEGIN
 002906 95FF 6169      00169       15988  1                      CLI   GSTEST+1,X'FF'     IF NO FIXES ON FIRST TWO LETTERS,
 00290A 4780 71B2            0293A 15989  1                      IF    NE,BEGIN             ASSUME ONLY THE FIRST LETTER IS
 00290E 92FF 6169      00169       16000  2                        MVI   GSTEST+1,X'FF'       IS CORRECT   (WILL LOOP THRU ALL)
 002912 D23F 60E8 6068 000E8 00068 16001  2                        MVC   GSTEMP(64),GSWORD    WE RESET DICTIONARY POINTER
 002918 D23E 6069 6128 00069 00128 16002  2                        MVC   GSWORD+1(64-1),GSBLANKS USING ONLY 1ST LETTER
 00291E 5810 6014            00014 16003  2                        L     R1,GSDNDX          R1 - INDEX ADDRESS
 002922 4100 6068            00068 16004  2                        LA    R0,GSWORD          R0 - 1ST 5 CHARS OF GUESS WORD
 002926 58E0 7310/0DEE       02A98 16005  2                        ACALL DSEARCH            INDEX INTO DICTIONARY,,,
 00292C 5010 6018            00018 16009  2                        ST    R1,GSDPTR          R1 - RETURNS POINTER INTO DICTNRY
 002930 D23F 6068 60E8 00068 000E8 16010  2                        MVC   GSWORD(64),GSTEMP  RESET WORD
 002936 47F0 7038            027C0 16011  2                        B     FINDLOOP
 00293A                            16012  1                      END
 00293A                            16016                       END
                                   16020                       COMMENT                  IF WE ARE DONE SEARCHING, FINISH
 00293A 1B00                       16021                       SR    R0,R0                ALL END PROCESSING OF SIMILAR
 00293C 58E0 7318/0DEE       02AA0 16022                       ACALL GSLIST               WORD LIST
 002942 18D8/9808 D004_            16026                       PEND  ,                  FINALLY, WE RETURN
 DROP   *,R7
1SPELL    (SPEL2025) (12:55) (15MAR04) GUESSWD - find all similar words                                                     Page   71
0Current Usings:  (GSWA,R6) (CP,R11) (CV,R12)
0Loc    Object Code    Addr1 Addr2  Stmt Lv Lineno    Source Statement           (Hibal 5, Asmedit 3.3)  HLASM R4.0  2004/03/15 12.55
+___    ______ ____    _____ _____  ____ __ ______    ______ _________
0                                  16047              ¿þþþþþþþþþþþþþþþþþþþþþþþþþþþþþþþþþþþþþþþþþþþþþþþþþþþþþþþþþþþþþþþþþþþþþÜ
                                   16048              Ÿ                                                                     Ÿ
                                   16049              Ÿ                                                                     Ÿ
                                   16050              Ÿ       GSLIST - FORMAT OUTPUT OF GUESSED WRODS,,,,                   Ÿ
                                   16051              Ÿ                                                                     Ÿ
                                   16052              Ÿ       R1, R0 - LOC, LENGTH OF GUESS                                 Ÿ
                                   16053              Ÿ                                                                     Ÿ
                                   16054              Ÿ  IF R0=0, FORCE OUT ALL BUFFERS,                                    Ÿ
                                   16055              Ÿ  IF GSPRINT FLAG IS OFF, DO NOT PRINT RESULTS, PLACE IN RETURN      Ÿ
                                   16056              Ÿ     AREA. IF GSPRINT ON, WE PRINT.                                  Ÿ
                                   16057              Ÿ                                                                     Ÿ
                                   16058              Ÿ                                                                     Ÿ
                                                      ¾þþþþþþþþþþþþþþþþþþþþþþþþþþþþþþþþþþþþþþþþþþþþþþþþþþþþþþþþþþþþþþþþþþþþþ»
0002950 50E0 D000/9008_      00000 16059              GSLIST   PROC  ,     ,,,          PRINT OR RETURN GUESSES
 USING  *,R7
                                   16098                       ¿þþþþþþþþþþþþþþþþþþþþþþþþþþþþþþþþþþþþþþþÜ
                                   16099                       Ÿ  IF PRINT, PRINT GUESSES AT TERMINAL  Ÿ
                                   16100                       ¾þþþþþþþþþþþþþþþþþþþþþþþþþþþþþþþþþþþþþþþ»
 00296A 9180 600C/47E0_0000C       16101                       IF    GSPRINT,BEGIN      IF PRINT, TYPE GUESSES TO TERMINAL
 002972 5900 710E/4780_      02A78 16116  1                      IF    (R0,NE,0),BEGIN    IF ELEMENT, TYPE IT
 00297A 9140 600C/47E0_0000C       16133  2                        IF    GSNOFIX,BEGIN      IF FIRST GUESS, TYPE HEADER
 002982 9001 D000/41D0_      00000 16148  3                          XPUSH R0,R1
 00298A 4110 7232/4100_      02B9C 16151  3                          TSEG  'Similar Words: '
 00299C 94BF 600C      0000C       16169  3                          CLEAR GSNOFIX
 0029A0 4BD0 7144/9801_      02AAE 16176  3                          XPOP  R0,R1
 0029A8                            16179  2                        END
 0029A8 58E0 713E/0DEE       02AA8 16183  2                        ACALL TLIST              LIST GUESS AT TERMINAL
 0029AE                            16187  1                      END
 0029AE 7048/47F0 706C 029AE 02978 16191  1                      ELSE  BEGIN ,,,          IF R0=0, END OF LIST PROCESSING
 0029B2 9140 600C/47E0_0000C       16202  2                        IF    GSNOFIX,BEGIN      IF NO GUESSES
 0029BA 4110 7241/4100_      02BAB 16217  3                          TSEG  'No similar words found in dictionary.'
 0029CC                            16235  2                        END
 0029CC 7066/47F0 706C 029CC 029B8 16239  2                        ELSE  BEGIN ,,,          IF ~GSNOFIX AND R0=0
 0029D0 58E0 713E/0DEE       02AA8 16250  3                          ACALL TLIST              FORCE OUT REMAINING GUESSES
 0029D6                            16254  2                        END
 0029D6                            16258  1                      END
 0029D6                            16262                       END
                                   16266                       ¿þþþþþþþþþþþþþþþþþþþþþþþþþþþþþþþþþþþþþþþþþþþþþþÜ
                                   16267                       Ÿ  IF NO PRINT, JUST RETURN GUESSES TO CALLER  Ÿ
                                   16268                       ¾þþþþþþþþþþþþþþþþþþþþþþþþþþþþþþþþþþþþþþþþþþþþþþ»
 0029D6 9180 600C/4710_0000C       16269                       IF    ~GSPRINT,BEGIN     IF NO PRINT, WE RETURN GUESS LIST
 0029DE 5900 710E/4780_      02A78 16284  1                      IF    (R0,NE,0),BEGIN    IF GUESS TO RETURN,,,
 0029E6 94BF 600C      0000C       16301  2                        CLEAR GSNOFIX            SET WE HAVE GUESSES FLAG
 0029EA 5820 6004            00004 16308  2                        L     R2,GSRETPTR        R2 - POINTER TO GUESS LIST
 0029EE 5830 6008            00008 16309  2                        L     R3,GSRETEND        R3 - END OF GUESS LIST
 0029F2 1840                       16310  2                        LR    R4,R0              R4 - LENGTH OF GUESS
 0029F4 4154 2001            00001 16311  2                        LA    R5,1(R4,R2)        R5 - END OF GUESS IN LIST
 0029F8 5050 6004            00004 16312  2                        ST    R5,GSRETPTR
 0029FC 1953                       16313  2                        CR    R5,R3
 0029FE 47B0 70AC            02A16 16314  2                        IF    L,BEGIN            IF WORD WILL FIT IN LIST, ,,,
 002A02 4202 0000            00000 16325  3                          STC   R0,0(R2)                 SAVE GUESS LENGTH
 002A06 0640/4440 726C_            16326  3                          DEX   R4,' MVC 1(0,R2),0(R1)'  SAVE GUESS
 002A0C 4124 2002            00002 16345  3                          LA    R2,2(R4,R2)        BUMP AND SAVE RETURN LIST POINTER
1SPELL    (SPEL2025) (12:55) (15MAR04) GUESSWD - find all similar words                                                     Page   72
0Current Usings:  (GSWA,R6) (*,R7) (CP,R11) (CV,R12)
0Loc    Object Code    Addr1 Addr2  Stmt Lv Lineno    Source Statement           (Hibal 5, Asmedit 3.3)  HLASM R4.0  2004/03/15 12.55
+___    ______ ____    _____ _____  ____ __ ______    ______ _________
0002A10 1B44                       16346  3                          SR    R4,R4
 002A12 4242 0000            00000 16347  3                          STC   R4,0(R2)           MARK END OF LIST
 002A16                            16348  2                        END
 002A16                            16352  1                      END
 002A16 70B0/47F0 70CE 02A16 029E4 16356  1                      ELSE  BEGIN ,,,          IF R0=0, WE ARE DONE GUESSING,,,
 002A1A 1BFF                       16367  2                        SR    R15,R15            WE SET CC, ASSUME CC IS ZERO,
 002A1C D503 6004 6000_00004 00000 16368  2                        IF    (GSRETPTR,EQ,GSRET),' LA R15,8 '     NO GUESSES
 002A2A D503 6004 6008_00004 00008 16392  2                        IF    (GSRETPTR,GT,GSRETEND),' LA R15,12 ' GUESS OVERFLOW
 002A38                            16416  1                      END
 002A38                            16420                       END
 002A38 18D8/9808 D004_            16424                       PEND  ,
 DROP   *,R7
1SPELL    (SPEL2025) (12:55) (15MAR04) GUESSWD - find all similar words                                                     Page   73
0Current Usings:  (GSWA,R6) (CP,R11) (CV,R12)
0Loc    Object Code    Addr1 Addr2  Stmt Lv Lineno    Source Statement           (Hibal 5, Asmedit 3.3)  HLASM R4.0  2004/03/15 12.55
+___    ______ ____    _____ _____  ____ __ ______    ______ _________
0                                  16445                       QLTORG
1SPELL    (SPEL2025) (12:55) (15MAR04) CHECKWD - See if word is in spelling dictionary                                      Page   74
0Current Usings:  (GSWA,R6) (CP,R11) (CV,R12)
0Loc    Object Code    Addr1 Addr2  Stmt Lv Lineno    Source Statement           (Hibal 5, Asmedit 3.3)  HLASM R4.0  2004/03/15 12.55
+___    ______ ____    _____ _____  ____ __ ______    ______ _________
0                                  16492              ¿þþþþþþþþþþþþþþþþþþþþþþþþþþþþþþþþþþþþþþþþþþþþþþþþþþþþþþþþþþþþþþþþþþþþþÜ
                                   16493              Ÿ                                                                     Ÿ
                                   16494              Ÿ                                                                     Ÿ
                                   16495              Ÿ    CHECKWD - SEE IF WORD IS IN DICTIONARY                           Ÿ
                                   16496              Ÿ                                                                     Ÿ
                                   16497              Ÿ       INPUTS:  R1,R0 - WORD LOCATION, LENGTH                        Ÿ
                                   16498              Ÿ                                                                     Ÿ
                                   16499              Ÿ       OUTPUTS:  R15 - 0=FOUND, NZ=NOT FOUND, CC SET ON RETURN       Ÿ
                                   16500              Ÿ                                                                     Ÿ
                                   16501              Ÿ                                                                     Ÿ
                                   16502              Ÿ       WE FIRST DO A BINARY SEARCH OF THE DICTIONARY INDEX,          Ÿ
                                   16503              Ÿ       WE LINEARLY SEARCH FOR WORD FROM THERE.                       Ÿ
                                   16504              Ÿ                                                                     Ÿ
                                   16505              Ÿ                                                                     Ÿ
                                   16506              Ÿ                                                                     Ÿ
                                   16507              Ÿ    THIS ROUTINE MUST BE OPTIMIZED, IT IS CRITICAL FOR TO THE        Ÿ
                                   16508              Ÿ    PERFORMANCE OF ALL WYLBUR SPELL COMMANDS !!!!!!!!!!!!!!!!!       Ÿ
                                   16509              Ÿ                                                                     Ÿ
                                                      ¾þþþþþþþþþþþþþþþþþþþþþþþþþþþþþþþþþþþþþþþþþþþþþþþþþþþþþþþþþþþþþþþþþþþþþ»
0000000                00000 00098 16510              CXWA     RECORD BEGIN
 000000                            16518  1           CXDADDR    DS    F                  ADDRESS OF DICTNRY MEMORY AREA
 000004                            16519  1           CXDNDX     DS    F                  ADDRESS OF DICTNRY INDEX
 000008                            16520  1           CXPARMS    DS    0H                 * KEEP * STUFF TOGETHER, PARMS
 000008                            16521  1           CXDPTR     DS    F                  * POINTER TO CURRENT DICTNRY WORD
 00000C                            16522  1           CXDEND     DS    F                  * END OF DICTNRY WORD LIST
 000010                            16523  1           CXDWLEN    DS    F                  * CURRENT DICTNRY WORD LENGTH
 000014                            16524  1           CXDWORD    DS    CL64               * CURRENT DICTNRY WORD
 000054                            16525  1           CXWORDLN   DS    F                  LENGTH OF WORD TO LOOK UP
 000058                            16526  1           CXWORD     DS    CL64               WORD TO LOOK UP (IN LOWER CASE)
 000098                00098 00098 16527                       END
-
                                   16537              ¿þþþþþþþþþþþþþþþþþþþþþþþþþþþþþþþþþþþþþþþþþþþþþþþþþþþþþþþþþþþþþþþþþþþþþÜ
                                   16538              Ÿ                                                                     Ÿ
                                   16539              Ÿ                                                                     Ÿ
                                   16540              Ÿ       CHECKWD - SEE IF WORD IS IN DICTIONARY                        Ÿ
                                   16541              Ÿ                                                                     Ÿ
                                   16542              Ÿ                                                                     Ÿ
                                                      ¾þþþþþþþþþþþþþþþþþþþþþþþþþþþþþþþþþþþþþþþþþþþþþþþþþþþþþþþþþþþþþþþþþþþþþ»
0002BDC 50E0 D000/9008_      00000 16543              CHECKWD  XPROC CXWA
 USING  *,R7
 USING  CXWA-(4+36),R8
                                   16594              *                                 INITIALIZE WORK AREA MEMORY
                                   16595              *
 002BF6 D797 8028 8028 00000 00000 16596                       CLEAR CXWA               CLEAR WORK AREA,, AND INITIALIZE IT
 002BFC 1841                       16603                       LR    R4,R1              R4,R5 - WORD ADDRESS, LENGTH
 002BFE 1850                       16604                       LR    R5,R0
 002C00 58E0 72FA/0DEE       02EF0 16605                       ACALL GETDICT            GET DICTIONARY ADDRESS
 002C06 4770 701A            02C10 16609                       IF    Z,BEGIN            IF NO DICTIONARY, EXIT CC=0
 002C0A 1BFF                       16620  1                      SR    R15,R15
 002C0C 47F0 70A6            02C9C 16621  1                      B     CXUPEXIT
1SPELL    (SPEL2025) (12:55) (15MAR04) CHECKWD - See if word is in spelling dictionary                                      Page   75
0Current Usings:  (GSWA,R6) (*,R7) (CXWA-(4+36),R8) (CP,R11) (CV,R12)
0Loc    Object Code    Addr1 Addr2  Stmt Lv Lineno    Source Statement           (Hibal 5, Asmedit 3.3)  HLASM R4.0  2004/03/15 12.55
+___    ______ ____    _____ _____  ____ __ ______    ______ _________
0002C10                            16622                       END
 002C10 5010 8028            00000 16626                       ST    R1,CXDADDR         SAVE DICTIONARY POINTERS
 USING  DICTNRY,R1                 16627                       USING DICTNRY,R1
 002C14 4120 1020            00020 16636                       LA    R2,DICTNDX         SAVE DICTIONARY INDEX ADDRESS
 002C18 5020 802C            00004 16637                       ST    R2,CXDNDX
 002C1C 5820 1008            00008 16638                       L     R2,DICTEND         SAVE END OF DICTIONARY
 002C20 5020 8034            0000C 16639                       ST    R2,CXDEND
 DROP   DICTNRY,R1                 16640                       DROP  R1
 002C24 5810 72FE            02EF4 16647                       L     R1,=A(BLANKS)      BLANK ALL WORD STORAGE LOCATIONS
 002C28 D23F 8080 1000 00058 00000 16648                       MVC   CXWORD(64),0(R1)
 002C2E D23F 803C 1000 00014 00000 16649                       MVC   CXDWORD(64),0(R1)
 002C34 1814                       16650                       LR    R1,R4
 002C36 1805                       16651                       LR    R0,R5              R1,R0 - WORD ADDRESS, LENGTH
 002C38 5000 807C            00054 16652                       ST    R0,CXWORDLN        SAVE LENGTH
 002C3C 0650/1255/4740_            16653                       MOVE  R5,CXWORD,@R1      SAVE WORD
 002C48 5810 7302            02EF8 16691                       L     R1,=A(LOWERTAB)
 002C4C DC3F 8080 1000 00058 00000 16692                       TR    CXWORD(64),0(R1)   TRANSLATE WORD TO LOWER CASE
                                   16693                       ¿þþþþþþþþþþþþþþþþþþþþþþþþþþþþþþþþþþþþþþþþþþþþþþþþþþþþþþÜ
                                   16694                       Ÿ  BINARY SEARCH INDEX, THEN LINEAR SEARCH DICTIONARY  Ÿ
                                   16695                       ¾þþþþþþþþþþþþþþþþþþþþþþþþþþþþþþþþþþþþþþþþþþþþþþþþþþþþþþ»
 002C52 5810 802C            00004 16696                       L     R1,CXDNDX          R1 - INDEX ADDRESS
 002C56 4100 8080            00058 16697                       LA    R0,CXWORD          R0 - 1ST 4 CHARS OF LOOK UP WORD
 002C5A 58E0 7306/0DEE       02EFC 16698                       ACALL DSEARCH            INDEX INTO DICTIONARY
 002C60 5010 8030            00008 16702                       ST    R1,CXDPTR          R1 - RETURNS PTR INTO DICTNRY
 002C64                            16703                       LOOP  BEGIN              LINEAR SEARCH LOOP
 002C64 4110 8030            00008 16709  1                      LA    R1,CXPARMS         R1 - ADDRESS OF PARMS FOR NEXTDICT
 002C68 58E0 730A/0DEE       02F00 16710  1                      ACALL NEXTDICT           GET NEXT DICTNRY WORD
 002C6E 4770 7094            02C8A 16714  1                      BNZ   NOMATCH            IF END OF DICTNRY, NO MATCH FOUND
 002C72 D53F 8080 803C 00058 00014 16715  1                      CLC   CXWORD(64),CXDWORD  COMPARE WORDS,,,
 002C78 4780 708E            02C84 16716  1                      BE    MATCH              FOUND
 002C7C 4740 7094            02C8A 16717  1                      BL    NOMATCH            NOT FOUND
                                   16718  1                      COMMENT                  OR KEEP LOOKING
 002C80 47F0 706E            02C64 16719                       END   , OF LOOP
-
 002C84                            16725              MATCH    LABEL ,                  IF WORD FOUND IN DICTIONARY,,,
 002C84 1BFF                       16727                       SR    R15,R15            SET CC=0
 002C86 47F0 70A6            02C9C 16728                       B     CXUPEXIT
0002C8A                            16730              NOMATCH  LABEL ,
 002C8A 4110 8080            00058 16732                       LA    R1,CXWORD
 002C8E 5800 807C            00054 16733                       L     R0,CXWORDLN        IF WORD NOT FOUND IN DICTIONARY,,
 002C92 58E0 730E/0DEE       02F04 16734                       ACALL CHECKLRN           CHECK USER LEARNED WORDS FOR A
                                   16738                       COMMENT ,                   A MATCH, ROUTINE SETS CC,
                                   16739                       COMMENT ,                   CC=0 IF MATCH, CC=NZ IF NOT
 002C98 47F0 70A6            02C9C 16740                       B     CXUPEXIT
0002C9C                            16742              CXUPEXIT LABEL ,
 002C9C 50F0 D000/41D0_      00000 16744                       XPUSH R15                PUSH RETURN CODE
 002CA4 5810 8028            00000 16747                       L     R1,CXDADDR         R1 - CURRENT DICTNRY MEMORY ADDR
 002CA8 58E0 7312/0DEE       02F08 16748                       ACALL FREEDICT           FREE DICTNRY USE LOCK, AND RETURN
 002CAE 4BD0 7336/58F0_      02F2C 16752                       XPOP  R15
 002CB6 18D8/9808 D004_            16755                       PEND  ,
1SPELL    (SPEL2025) (12:55) (15MAR04) CHECKWD - See if word is in spelling dictionary                                      Page   76
0Current Usings:  (GSWA,R6) (CP,R11) (CV,R12)
0Loc    Object Code    Addr1 Addr2  Stmt Lv Lineno    Source Statement           (Hibal 5, Asmedit 3.3)  HLASM R4.0  2004/03/15 12.55
+___    ______ ____    _____ _____  ____ __ ______    ______ _________
0DROP   CXWA-(4+36),R8
 DROP   *,R7
1SPELL    (SPEL2025) (12:55) (15MAR04) CHECKWD - See if word is in spelling dictionary                                      Page   77
0Current Usings:  (GSWA,R6) (CP,R11) (CV,R12)
0Loc    Object Code    Addr1 Addr2  Stmt Lv Lineno    Source Statement           (Hibal 5, Asmedit 3.3)  HLASM R4.0  2004/03/15 12.55
+___    ______ ____    _____ _____  ____ __ ______    ______ _________
0                                  16781              ¿þþþþþþþþþþþþþþþþþþþþþþþþþþþþþþþþþþþþþþþþþþþþþþþþþþþþþþþþþþþþþþþþþþþþþÜ
                                   16782              Ÿ                                                                     Ÿ
                                   16783              Ÿ                                                                     Ÿ
                                   16784              Ÿ   BINARY SEARCH DICTIONARY INDEX                                    Ÿ
                                   16785              Ÿ                                                                     Ÿ
                                   16786              Ÿ       INPUT:    R1 - DICTIONARY INDEX ADDRESS                       Ÿ
                                   16787              Ÿ                 R0 - ADDR OF FIRST 5 CHARS IN WORD TO LOOK UP       Ÿ
                                   16788              Ÿ                                                                     Ÿ
                                   16789              Ÿ       OUTPUT:   R1 - DICTIONARY POINTER                             Ÿ
                                   16790              Ÿ                                                                     Ÿ
                                   16791              Ÿ                                                                     Ÿ
                                                      ¾þþþþþþþþþþþþþþþþþþþþþþþþþþþþþþþþþþþþþþþþþþþþþþþþþþþþþþþþþþþþþþþþþþþþþ»
0002CC4 50E0 D000/9008_      00000 16792              DSEARCH  PROC  ,     R2 THRU R8
 USING  *,R7
 002CDE 1820                       16831                       LR    R2,R0              R2 - 1ST 5 CHARS OF WORD
 002CE0 1831                       16832                       LR    R3,R1              R3 - POINTER TO NDX ENTRY
 002CE2 5840 722E            02F0C 16833                       L     R4,=AL4(8192*8/2)  R4 - LENGTH OF INDEX/2
 002CE6 4150 000C            0000C 16834                       LA    R5,12              R5 - NUMBER OF SEARCH ITERATIONS
 002CEA 1A34                       16835                       AR    R3,R4              START BINARY SEARCH W/MIDDLE ENTRY
 002CEC 5950 7232/47D0_      02F10 16836                       WHILE (R5,GT,0),BEGIN    DO BINARY SEARCH
 002CF4 8840 0001            00001 16855  1                      SRL   R4,1
 002CF8 D504 2000 3000 00000 00000 16856  1                      CLC   0(5,R2),NDX(R3)    COMPARE WORD TO NDX ENTRY
 002CFE 47D0 7026            02D04 16857  1                      IF    GT,BEGIN           AND MOVE UP OR DOWN APPROPRIATELY
 002D02 1A34                       16868  2                        AR    R3,R4
 002D04                            16869  1                      END
 002D04 702A/47F0 702C 02D04 02D00 16873  1                      ELSE  BEGIN
 002D08 1B34                       16884  2                        SR    R3,R4
 002D0A                            16885  1                      END
 002D0A 0650                       16889  1                      BCTR  R5,0
 002D0C 47F0 700E            02CEC 16890                       END
                                   16895                       COMMENT                  MAKE FINAL ADJUSTMENT,,,
 002D10 D504 2000 3000 00000 00000 16896                       CLC   0(5,R2),NDX(R3)    COMPARE WORD TO INDEX ENTRY
 002D16 47B0 7040/5B30_      02D1E 16897                       IF    LT,' S R3,=F'8' '  IF STILL <,, BACK UP ONE ENTRY
                                   16914                       COMMENT                  R3 - INDEX ENTRY FOR WORD
 002D1E 5813 0004            00004 16915                       L     R1,NLINK(R3)       R1 - POINTER INTO DICTIONARY
 002D22 8910 0008/8810_      00008 16916                       CLRHI R1                 CLEAR 5TH LETER OUT OF HOB.
 002D2A 9001 8004            00004 16919                       PRETURN (R0,R1)
 002D2E 18D8/9808 D004_            16921                       PEND  ,              RETURN
 DROP   *,R7
1SPELL    (SPEL2025) (12:55) (15MAR04) CHECKWD - See if word is in spelling dictionary                                      Page   78
0Current Usings:  (GSWA,R6) (CP,R11) (CV,R12)
0Loc    Object Code    Addr1 Addr2  Stmt Lv Lineno    Source Statement           (Hibal 5, Asmedit 3.3)  HLASM R4.0  2004/03/15 12.55
+___    ______ ____    _____ _____  ____ __ ______    ______ _________
0                                  16942              ¿þþþþþþþþþþþþþþþþþþþþþþþþþþþþþþþþþþþþþþþþþþþþþþþþþþþþþþþþþþþþþþþþþþþþþÜ
                                   16943              Ÿ                                                                     Ÿ
                                   16944              Ÿ                                                                     Ÿ
                                   16945              Ÿ    NEXTDICT - GET NEXT DICTIONARY WORD IN LIST                      Ÿ
                                   16946              Ÿ                                                                     Ÿ
                                   16947              Ÿ       INPUT:  R1 - PARMS POINTER, SEE ND WORK AREA                  Ÿ
                                   16948              Ÿ                                                                     Ÿ
                                   16949              Ÿ       OUTPUT: R15=0 - OK,, R15=NZ - END OF DICTIONARY               Ÿ
                                   16950              Ÿ               PARM AREA VALUES UPDATED. SEE WORK AREA               Ÿ
                                   16951              Ÿ                                                                     Ÿ
                                   16952              Ÿ                                                                     Ÿ
                                   16953              Ÿ                                                                     Ÿ
                                   16954              Ÿ    THIS ROUTINE MUST BE OPTIMIZED, IT IS CRITICAL FOR TO THE        Ÿ
                                   16955              Ÿ    PERFORMANCE OF ALL WYLBUR SPELL COMMANDS !!!!!!!!!!!!!!!!!       Ÿ
                                   16956              Ÿ                                                                     Ÿ
                                   16957              Ÿ                                                                     Ÿ
                                   16958              Ÿ                                                                     Ÿ
                                   16959              Ÿ    EACH WORD MUST BE UNPRESSED, THE LEADING BLANK AXED, AND THE     Ÿ
                                   16960              Ÿ    COMMON STARTING CHARACTERS ARE LEFT FROM THE PREVIOUS WORD       Ÿ
                                   16961              Ÿ    (FOUND IN NDDWORD ON ENTRY)                                      Ÿ
                                   16962              Ÿ                                                                     Ÿ
                                                      ¾þþþþþþþþþþþþþþþþþþþþþþþþþþþþþþþþþþþþþþþþþþþþþþþþþþþþþþþþþþþþþþþþþþþþþ»
0000000                00000 0004C 16963              NDWA     RECORD BEGIN ,,,
 000000                            16971  1           NDPARMS    DS    0F                 * PARMS PASSED TO ROUTINE
 000000                            16972  1           NDDPTR     DS    F                  * POINTER TO CURRENT DICTNRY WORD
 000004                            16973  1           NDDEND     DS    F                  * END OF DICTNRY WORD LIST
 000008                            16974  1           NDDWLEN    DS    F                  * LENGTH OF CURRENT DICTNRY WORD
 00000C                            16975  1           NDDWORD    DS    CL64               * CURRENT DICTNRY WORD
                                   16976  1           NDPARMLN   EQU   *-NDPARMS          * END OF PARMS PASSED
 00004C                0004C 0004C 16977                       END
                                   16986              *
                                   16987              *
 002D3C 50E0 D000/9008_      00000 16988              NEXTDICT PROC  ,  READ LINEARLY THROUGH DICTIONARY
 USING  *,R7
 002D56 1861                       17027                       LR    R6,R1                    R1 - PARM AREA POINTER
 DROP   GSWA,R6                    17028                       USING NDWA,R6
 USING  NDWA,R6
 002D58 5840 6000            00000 17040                       L     R4,NDDPTR
 002D5C 5940 6004            00004 17041                       C     R4,NDDEND          R4 - NEXT WORD POINTER
 002D60 47B0 70B6            02E0C 17042                       BNL   NEXTEOF            IF END OF DICTNARY, GO EXIT
                                   17043                       ¿þþþþþþþþþþþþþþþþþþþþþþþþþþþþþþþþþþþþþþþþþþþþþþþþþþþþþþþþþÜ
                                   17044                       Ÿ  UNPRESS WORD,  (CAN'T USE UNPRESS, DON'T KNOW LENGTH)  Ÿ
                                   17045                       ¾þþþþþþþþþþþþþþþþþþþþþþþþþþþþþþþþþþþþþþþþþþþþþþþþþþþþþþþþþ»
                                   17046                       COMMENT                  R4 - PRESSED WORD INDEX
 002D64 4110 600C            0000C 17047                       LA    R1,NDDWORD         R1 - UNPRESSED WORD INDEX
 002D68 1B22                       17048                       SR    R2,R2              R2 - PRESSED CONTROL BYTE
 002D6A 4324 0000            00000 17049                       IC    R2,0(R4)                R2 - BLANK COUNT
 002D6E 8C20 0004            00004 17050                       SRDL  R2,4                    R3 - CHARACTER COUNT
 002D72 8830 001C            0001C 17051                       SRL   R3,28
 002D76 0620                       17052                       BCTR  R2,0               GET RID OF LEADING SEPARATOR
 002D78 1233                       17053                       LTR   R3,R3              IF ZERO CHAR COUNT, DO BLANKS
 002D7A 4770 7040            02D96 17054                       WHILE Z,BEGIN
 002D7E 1A12                       17067  1                      AR    R1,R2              SKIP PAST COMMON CHARACTERS
1SPELL    (SPEL2025) (12:55) (15MAR04) CHECKWD - See if word is in spelling dictionary                                      Page   79
0Current Usings:  (NDWA,R6) (*,R7) (CP,R11) (CV,R12)
0Loc    Object Code    Addr1 Addr2  Stmt Lv Lineno    Source Statement           (Hibal 5, Asmedit 3.3)  HLASM R4.0  2004/03/15 12.55
+___    ______ ____    _____ _____  ____ __ ______    ______ _________
0002D80 4144 0001            00001 17068  1                      LA    R4,1(R4)           BUMP WORD INDECIES
 002D84 4324 0000            00000 17069  1                      IC    R2,0(R4)
 002D88 8C20 0004            00004 17070  1                      SRDL  R2,4               GET NEXT PRESSED CONTROL BYTE
 002D8C 8830 001C            0001C 17071  1                      SRL   R3,28
 002D90 1233                       17072  1                      LTR   R3,R3
 002D92 47F0 7024            02D7A 17073                       END
 002D96 1A12                       17078                       AR    R1,R2              SKIP PAST REMAINING COMMON CHARS
 002D98 0630/4430 71DE_            17079                       DEX   R3,' MVC 0(0,R1),1(R4) '   MOVE IN FIRST ACTUAL CHARS
 002D9E 4113 1001            00001 17098                       LA    R1,1(R3,R1)                UPDATE OUTPUT POINTER
 002DA2 4143 4002            00002 17099                       LA    R4,2(R3,R4)                UPDATE PRESSED POINTER
 002DA6 4324 0000            00000 17100                       IC    R2,0(R4)           GET NEXT PRESSED CONTROL BYTE
 002DAA 8C20 0004            00004 17101                       SRDL  R2,4
 002DAE 8830 001C            0001C 17102                       SRL   R3,28
                                   17103                       COMMENT              WHILE BLANK COUNT=0, KEPP UNPRESSING
 002DB2 5920 71BA/4770_      02F10 17104                       WHILE ((R2,EQ,0),AND,(R4,LT,NDDEND)),BEGIN
 002DC2 0630/4430 71E4_            17139  1                      DEX   R3,' MVC 0(0,R1),1(R4)'    MOVE IN CHARACTERS
 002DC8 4113 1001            00001 17158  1                      LA    R1,1(R3,R1)                UPDATE OUTPUT POINTER
 002DCC 4143 4002            00002 17159  1                      LA    R4,2(R3,R4)                UPDATE PRESSED POINTER
 002DD0 4324 0000            00000 17160  1                      IC    R2,0(R4)           GET NEXT PRESSED CONTROL BYTE
 002DD4 8C20 0004            00004 17161  1                      SRDL  R2,4
 002DD8 8830 001C            0001C 17162  1                      SRL   R3,28
 002DDC 1222                       17163  1                      LTR   R2,R2
 002DDE 47F0 705C            02DB2 17164                       END
                                   17169              *
                                   17170              *
                                   17171              *                                 DONE WITH UNPRESS
 002DE2 5040 6000            00000 17172                       ST    R4,NDDPTR          R4 - DICTNRY WORD PTR (UPDATED)
 002DE6 1821                       17173                       LR    R2,R1              R1 - END OF UNPRESSED DICTNRY WORD
 002DE8 4130 600C            0000C 17174                       LA    R3,NDDWORD         R3 - START OF UNPRESSED WORD
 002DEC 4140 604C            0004C 17175                       LA    R4,NDDWORD+64      R4 - END OF UNPRESSED WORD BUFFER
 002DF0 5850 719E            02EF4 17176                       L     R5,=A(BLANKS)      R5 - SOME BLANKS
 002DF4 1B23                       17177                       SR    R2,R3              SAVE WORD LENGTH
 002DF6 5020 6008            00008 17178                       ST    R2,NDDWLEN
 002DFA 1B41                       17179                       SR    R4,R1              BLANK OUT END OF WORD
 002DFC 47D0 70B0            02E06 17180                       IF    H,BEGIN
 002E00 0640/4440 71EA_            17191  1                      DEX   R4,' MVC 0(0,R1),0(R5) '
 002E06                            17210                       END
 002E06 1BFF                       17214                       SR    R15,R15            ZERO RETRUN CODE
 002E08 47F0 70BE            02E14 17215                       B     NEXTDONE
                                   17216
 002E0C                            17217              NEXTEOF  LABEL ,                  END OF FILE ON DICTIONARY
 002E0C 41F0 0004            00004 17219                       LA    R15,4              NON ZERO RETRUN CODE
 002E10 47F0 70BE            02E14 17220                       B     NEXTDONE
                                   17221
 002E14                            17222              NEXTDONE LABEL ,
 002E14 18D8/9808 D004_            17224                       PEND  ,         RETURN
 DROP   *,R7
1SPELL    (SPEL2025) (12:55) (15MAR04) CHECKLRN - See if word in user learned dictionary                                    Page   80
0Current Usings:  (NDWA,R6) (CP,R11) (CV,R12)
0Loc    Object Code    Addr1 Addr2  Stmt Lv Lineno    Source Statement           (Hibal 5, Asmedit 3.3)  HLASM R4.0  2004/03/15 12.55
+___    ______ ____    _____ _____  ____ __ ______    ______ _________
0                                  17245              ¿þþþþþþþþþþþþþþþþþþþþþþþþþþþþþþþþþþþþþþþþþþþþþþþþþþþþþþþþþþþþþþþþþþþþþÜ
                                   17246              Ÿ                                                                     Ÿ
                                   17247              Ÿ                                                                     Ÿ
                                   17248              Ÿ       CHECKLRN - check user's dictionary                            Ÿ
                                   17249              Ÿ                                                                     Ÿ
                                   17250              Ÿ       R1,R0 - LOC, LEN OF WORD TO CHECK                             Ÿ
                                   17251              Ÿ                                                                     Ÿ
                                   17252              Ÿ       ON RETURN: R15=0, WORD FOUND.   R15=NZ, WORD NOT FOUND.       Ÿ
                                   17253              Ÿ                                                                     Ÿ
                                   17254              Ÿ                                                                     Ÿ
                                   17255              Ÿ  WE SEARCH FOR WORD IN USERS PAGES OF LEARNED WORDS.  THE           Ÿ
                                   17256              Ÿ  LEARN PAGES ARE LINKED AND THE ENTRIES ON THOSE PAGES ARE          Ÿ
                                   17257              Ÿ  IN ALPHABETICAL ORDER.  WE FIND THE RIGHT PAGE AND SEARCH          Ÿ
                                   17258              Ÿ  LINEARLY.  HOPE THAT IS FAST ENOUGH.                               Ÿ
                                   17259              Ÿ                                                                     Ÿ
                                   17260              Ÿ                                                                     Ÿ
                                                      ¾þþþþþþþþþþþþþþþþþþþþþþþþþþþþþþþþþþþþþþþþþþþþþþþþþþþþþþþþþþþþþþþþþþþþþ»
0002E22 50E0 D000/9008_      00000 17261              CHECKLRN XPROC LWWA
 USING  *,R7
 USING  LWWA-(4+36),R8
 002E3C 9180 B47F/47E0_0047F       17312                       IF    ~CPFLEARN,NOLEARN  NO USER DICTIONARY ,,,
 002E44 5900 70DC/4720_      02F18 17330                       IF    ((R0,GT,64),OR,(R0,LE,0)),NOLEARN    CHECK WORD LEN
 002E54 5000 8028            00000 17366                       ST    R0,LWWORDLN        SAVE WORD LENGTH, WORD
 002E58 5820 70B8            02EF4 17367                       L     R2,=A(BLANKS)      WORD IS SAVED IN LOWER CASE
 002E5C D23F 802C 2000 00004 00000 17368                       MVC   LWWORD(64),0(R2)
 002E62 1830                       17369                       LR    R3,R0
 002E64 0630/4430 710A_            17370                       DEX   R3,' MVC LWWORD(0),0(R1) '     MOVE WORD
 002E6A 5820 70BC            02EF8 17389                       L     R2,=A(LOWERTAB)
 002E6E DC3F 802C 2000 00004 00000 17390                       TR    LWWORD(64),0(R2)
                                   17391              *
                                   17392              *  SEARCH FOR WORD IN RECORD GROUP
                                   17393              *
                                   17394                       COMMENT                   ADD LEARN WORD
 002E74 1830                       17395                       LR    R3,R0 R3-WORD LEN
 002E76 41F0 B524            00524 17396                       LA    R15,CPRG16
 002E7A 5930 70E0/47D0_      02F1C 17397                       IF    (R3,GT,16),' LA R15,CPRG64'
 002E86 4100 0005            00005 17420                       LA    R0,CP#LRN
 002E8A 58E0 70E4/0DEE       02F20 17421                       VCALL XSETSET             SELECT RG16 OR RG64
 002E90 41F0 B524            00524 17425                       LA    R15,CPRG16
 002E94 5930 70E0/47D0_      02F1C 17426                       IF    (R3,GT,16),' LA R15,CPRG64'
 002EA0 1B00                       17449                       CLEAR R0
 002EA2 4110 C4D8            004D8 17453                       LA    R1,CVBLANKS
 002EA6 4120 802C            00004 17454                       LA    R2,LWWORD
 002EAA 58E0 70E8/0DEE       02F24 17455                       VCALL XLOCATE             PUT WORD AS KEY/ NULL DATA
 002EB0 12FF/4770 7084             17459                       IF    (R15,NZ),NOLEARN
 002EB6 47F0 707E            02EBA 17476                       B     YESLEARN
                                   17477              *
                                   17478                       ¿þþþþþþþþþþþþþþþþþþþþþþÜ
                                   17479                       Ÿ  RETURN FROM SEARCH  Ÿ
                                   17480                       ¾þþþþþþþþþþþþþþþþþþþþþþ»
 002EBA                            17481              YESLEARN LABEL ,                  WORD IN USER DICTIONARY
 002EBA 1BFF                       17483                       SR    R15,R15            CC=0
 002EBC 47F0 708C            02EC8 17484                       B     CHKLEXIT
1SPELL    (SPEL2025) (12:55) (15MAR04) CHECKLRN - See if word in user learned dictionary                                    Page   81
0Current Usings:  (NDWA,R6) (*,R7) (LWWA-(4+36),R8) (CP,R11) (CV,R12)
0Loc    Object Code    Addr1 Addr2  Stmt Lv Lineno    Source Statement           (Hibal 5, Asmedit 3.3)  HLASM R4.0  2004/03/15 12.55
+___    ______ ____    _____ _____  ____ __ ______    ______ _________
0                                  17485
 002EC0                            17486              NOLEARN  LABEL ,                  WORD NOT IN USER DICTIONARY
 002EC0 41F0 0004            00004 17488                       LA    R15,4              CC=NZ
 002EC4 47F0 708C            02EC8 17489                       B     CHKLEXIT
                                   17490                       ¿þþþþþþþþÜ
                                   17491                       Ÿ  EXIT  Ÿ
                                   17492                       ¾þþþþþþþþ»
 002EC8                            17493              CHKLEXIT LABEL ,                  RETURN TO CALLER
 002EC8 50F0 D000/41D0_      00000 17495                       XPUSH R15                PUSH RETURN CODE,,,
 002ED0 58E0 70EC/0DEE       02F28 17498                       PFREE PAR                DONE WITH LEARN PAGE FOR NOW
                                   17504                       DROP  PAR
 002ED6 4BD0 70F0/58F0_      02F2C 17508                       XPOP  R15
 002EDE 18D8/9808 D004_            17511                       PEND  ,
 DROP   LWWA-(4+36),R8
 DROP   *,R7
1SPELL    (SPEL2025) (12:55) (15MAR04) CHECKLRN - See if word in user learned dictionary                                    Page   82
0Current Usings:  (NDWA,R6) (CP,R11) (CV,R12)
0Loc    Object Code    Addr1 Addr2  Stmt Lv Lineno    Source Statement           (Hibal 5, Asmedit 3.3)  HLASM R4.0  2004/03/15 12.55
+___    ______ ____    _____ _____  ____ __ ______    ______ _________
0                                  17537                       QLTORG
1SPELL    (SPEL2025) (12:55) (15MAR04) GETWD - find word in buffer                                                          Page   83
0Current Usings:  (NDWA,R6) (CP,R11) (CV,R12)
0Loc    Object Code    Addr1 Addr2  Stmt Lv Lineno    Source Statement           (Hibal 5, Asmedit 3.3)  HLASM R4.0  2004/03/15 12.55
+___    ______ ____    _____ _____  ____ __ ______    ______ _________
0                                  17566              ¿þþþþþþþþþþþþþþþþþþþþþþþþþþþþþþþþþþþþþþþþþþþþþþþþþþþþþþþþþþþþþþþþþþþþþÜ
                                   17567              Ÿ                                                                     Ÿ
                                   17568              Ÿ                                                                     Ÿ
                                   17569              Ÿ  GETWD - Routine to find word in buffer.  This routine is           Ÿ
                                   17570              Ÿ       called by page mode to find which word the cursor points      Ÿ
                                   17571              Ÿ       at.  A specialized routine is required because SPELL          Ÿ
                                   17572              Ÿ       uses special scanning routines to determine what is a         Ÿ
                                   17573              Ÿ       word and what is not.  This routine uses SPELL scan tables    Ÿ
                                   17574              Ÿ       determine what the word is.  See code below.                  Ÿ
                                   17575              Ÿ                                                                     Ÿ
                                   17576              Ÿ  on entry:  r1,r0 - location, length of line buffer                 Ÿ
                                   17577              Ÿ             r15   - column number of cursor location                Ÿ
                                   17578              Ÿ                                                                     Ÿ
                                   17579              Ÿ  on exit:   r1,r0 - location, length of word                        Ÿ
                                   17580              Ÿ             r15   - start of word offset                            Ÿ
                                   17581              Ÿ             r0=0  - if r0=0, word not found                         Ÿ
                                   17582              Ÿ                                                                     Ÿ
                                   17583              Ÿ                                                                     Ÿ
                                                      ¾þþþþþþþþþþþþþþþþþþþþþþþþþþþþþþþþþþþþþþþþþþþþþþþþþþþþþþþþþþþþþþþþþþþþþ»
0002F4C 50E0 D000/9008_      00000 17584              GETWD    XPROC  ,
 USING  *,R7
                                   17624              *
                                   17625              * REGISTER USAGE
                                   17626              *
 002F66 1AF1                       17627                       AR    R15,R1             R15 - ADDR OF CURSOR IN BUFFER
 002F68 06F0                       17628                       DECR  R15
 002F6A 1A01                       17630                       AR    R0,R1              R0 - END OF LINE
                                   17631                       COMMENT                  R1 - START OF LINE
 002F6C 1B22                       17632                       SR    R2,R2              R2 - CHAR/TABLE VALUE FOR CHAR
 002F6E 1B33                       17633                       SR    R3,R3              R3 - WORK REGISTER
 002F70 184F                       17634                       LR    R4,R15             R4 - START OF WROD INDEX
 002F72 185F                       17635                       LR    R5,R15             R5 - END OF WORD INDEX
                                   17636                       COMMENT                  R6 - SCAN TABLE
                                   17637                       ¿þþþþþþþþþþþþþþþþþþþþþþþþþþþÜ
                                   17638                       Ÿ  find starting separator  Ÿ
                                   17639                       ¾þþþþþþþþþþþþþþþþþþþþþþþþþþþ»
 002F74 5860 715A            030C0 17640                       L     R6,=A(SEPTBL)      R6 - SEPARATOR TABLE
 002F78 4144 0001            00001 17641                       LA    R4,1(R4)
 002F7C                            17642                       LOOP  BEGIN ,
 002F7C 0640                       17648  1                      BCTR  R4,0
 002F7E 4324 0000            00000 17649  1                      IC    R2,0(R4)
 002F82 4326 2000            00000 17650  1                      IC    R2,0(R6,R2)
 002F86 955C 4000/4770_00000       17651  1                      IF    (@R4,EQ,'*'),' SR R2,R2'
 002F90 956F 4000/4770_00000       17673  1                      IF    (@R4,EQ,'?'),' SR R2,R2'
 002F9A 1941/47C0 7044_            17695  1                      UNTIL ((R4,LE,R1),OR,(R2,NZ))         LOOP TOWARDS START
 002FA6 47F0 7016            02F7C 17727                       END
                                   17732                       ¿þþþþþþþþþþþþþþþþþþþþþþþþþþþÜ
                                   17733                       Ÿ  get first alpha of word  Ÿ
                                   17734                       ¾þþþþþþþþþþþþþþþþþþþþþþþþþþþ»
 002FAA 5860 715E            030C4 17735                       L     R6,=A(ALPHATBL)
 002FAE 0640                       17736                       BCTR  R4,0
 002FB0                            17737                       LOOP  BEGIN
 002FB0 4144 0001            00001 17743  1                      LA    R4,1(R4)
1SPELL    (SPEL2025) (12:55) (15MAR04) GETWD - find word in buffer                                                          Page   84
0Current Usings:  (NDWA,R6) (*,R7) (CP,R11) (CV,R12)
0Loc    Object Code    Addr1 Addr2  Stmt Lv Lineno    Source Statement           (Hibal 5, Asmedit 3.3)  HLASM R4.0  2004/03/15 12.55
+___    ______ ____    _____ _____  ____ __ ______    ______ _________
0002FB4 4324 0000            00000 17744  1                      IC    R2,0(R4)
 002FB8 4326 2000            00000 17745  1                      IC    R2,0(R6,R2)
 002FBC 1940/47A0 7066_            17746  1                      UNTIL ((R4,GE,R0),OR,(R2,NZ))
 002FC8 47F0 704A            02FB0 17778                       END
 002FCC 194F/4720 7142             17783                       IF    (R4,GT,R15),NOGOT  IF NO ALPHA, NO WORD
                                   17801                       ¿þþþþþþþþþþþþþþþþþþþþþÜ
                                   17802                       Ÿ  get start of word  Ÿ
                                   17803                       ¾þþþþþþþþþþþþþþþþþþþþþ»
 002FD2 5860 7162            030C8 17804                       L     R6,=A(STARTTBL)
 002FD6 4144 0001            00001 17805                       LA    R4,1(R4)
 002FDA                            17806                       LOOP  BEGIN
 002FDA 0640                       17812  1                      BCTR  R4,0
 002FDC 4324 0000            00000 17813  1                      IC    R2,0(R4)
 002FE0 4326 2000            00000 17814  1                      IC    R2,0(R6,R2)
 002FE4 955C 4000/4770_00000       17815  1                      IF    (@R4,EQ,'*'),' SR R2,R2'
 002FEE 956F 4000/4770_00000       17837  1                      IF    (@R4,EQ,'?'),' SR R2,R2'
 002FF8 1941/4740 70A2_            17859  1                      UNTIL ((R4,LT,R1),OR,(R2,NZ))         LOOP TOWARDS START
 003004 47F0 7074            02FDA 17891                       END
 003008 4144 0001            00001 17896                       LA    R4,1(R4)           ****** R4 IS START OF WORD *****
                                   17897                       ¿þþþþþþþþþþþþþþþþþþþþþþþþþþþþþþþþþÜ
                                   17898                       Ÿ  find separator at end of word  Ÿ
                                   17899                       ¾þþþþþþþþþþþþþþþþþþþþþþþþþþþþþþþþþ»
 00300C 1854                       17900                       LR    R5,R4
 00300E 5860 715A            030C0 17901                       L     R6,=A(SEPTBL)
 003012 0650                       17902                       BCTR  R5,0
 003014                            17903                       LOOP  BEGIN
 003014 4155 0001            00001 17909  1                      LA    R5,1(R5)
 003018 4325 0000            00000 17910  1                      IC    R2,0(R5)
 00301C 4326 2000            00000 17911  1                      IC    R2,0(R6,R2)
 003020 955C 5000/4770_00000       17912  1                      IF    (@R5,EQ,'*'),' SR R2,R2'
 00302A 956F 5000/4770_00000       17934  1                      IF    (@R5,EQ,'?'),' SR R2,R2'
 003034 1950/47A0 70DE_            17956  1                      UNTIL ((R5,GE,R0),OR,(R2,NZ))
 003040 47F0 70AE            03014 17988                       END
 003044 1950/4770 70E6_            17993                       IF    (R5,EQ,R0),' BCTR R5,0 '
                                   18014                       ¿þþþþþþþþþþþþþþþþþþþþþþþþþþþþþþþþþÜ
                                   18015                       Ÿ  back up to valid ending chars  Ÿ
                                   18016                       ¾þþþþþþþþþþþþþþþþþþþþþþþþþþþþþþþþþ»
 00304C 5860 7166            030CC 18017                       L     R6,=A(ENDTBL)
 003050 4155 0001            00001 18018                       LA    R5,1(R5)
 003054                            18019                       LOOP  BEGIN
 003054 0650                       18025  1                      BCTR  R5,0
 003056 4325 0000            00000 18026  1                      IC    R2,0(R5)
 00305A 4326 2000            00000 18027  1                      IC    R2,0(R6,R2)
 00305E 955C 5000/4770_00000       18028  1                      IF    (@R5,EQ,'*'),' LA R2,4 '
 00306A 956F 5000/4770_00000       18050  1                      IF    (@R5,EQ,'?'),' LA R2,4 '
 003076 1951/47C0 7120_            18072  1                      UNTIL ((R5,LE,R1),OR,(R2,Z))
 003082 47F0 70EE            03054 18104                       END
 003086 4155 0001            00001 18109                       LA    R5,1(R5)           R5 IS END OF WORD (+1)
                                   18110                       ¿þþþþþþþþþþþþþþþþþþþþþþþþþþþþþþþþþþþÜ
                                   18111                       Ÿ  check if pointer points to word  Ÿ
                                   18112                       ¾þþþþþþþþþþþþþþþþþþþþþþþþþþþþþþþþþþþ»
 00308A 19F4/4740 7142_            18113                       IF    ((R15,LT,R4),OR,(R15,GE,R5)),NOGOT
 003096 18F4                       18145                       LR    R15,R4             R15 - COL # OF START OF WORD
 003098 1BF1                       18146                       SR    R15,R1
1SPELL    (SPEL2025) (12:55) (15MAR04) GETWD - find word in buffer                                                          Page   85
0Current Usings:  (NDWA,R6) (*,R7) (CP,R11) (CV,R12)
0Loc    Object Code    Addr1 Addr2  Stmt Lv Lineno    Source Statement           (Hibal 5, Asmedit 3.3)  HLASM R4.0  2004/03/15 12.55
+___    ______ ____    _____ _____  ____ __ ______    ______ _________
000309A 41FF 0001            00001 18147                       LA    R15,1(R15)
 00309E 1805                       18148                       LR    R0,R5
 0030A0 1814                       18149                       LR    R1,R4              R1,R0 - RETURN WORD LOC, LEN
 0030A2 1B01                       18150                       SR    R0,R1
 0030A4 47F0 7148            030AE 18151                       B     GETWEXIT
                                   18152                       ¿þþþþþþþþþÜ
                                   18153                       Ÿ  exits  Ÿ
                                   18154                       ¾þþþþþþþþþ»
 0030A8                            18155              NOGOT    LABEL ,                  no word found
 0030A8 1B00                       18157                       SR    R0,R0
 0030AA 47F0 7148            030AE 18158                       B     GETWEXIT
                                   18159
 0030AE                            18160              GETWEXIT LABEL ,
 0030AE 9001 8004            00004 18162                       PRETURN (R0,R1)
 0030B2 18D8/9808 D004_            18164                       PEND  ,
 DROP   *,R7
-
1SPELL    (SPEL2025) (12:55) (15MAR04) GETWD - find word in buffer                                                          Page   86
0Current Usings:  (NDWA,R6) (CP,R11) (CV,R12)
0Loc    Object Code    Addr1 Addr2  Stmt Lv Lineno    Source Statement           (Hibal 5, Asmedit 3.3)  HLASM R4.0  2004/03/15 12.55
+___    ______ ____    _____ _____  ____ __ ______    ______ _________
0                                  18186                       QLTORG
1SPELL    (SPEL2025) (12:55) (15MAR04) MISC - miscelleneous spell routines                                                  Page   87
0Current Usings:  (NDWA,R6) (CP,R11) (CV,R12)
0Loc    Object Code    Addr1 Addr2  Stmt Lv Lineno    Source Statement           (Hibal 5, Asmedit 3.3)  HLASM R4.0  2004/03/15 12.55
+___    ______ ____    _____ _____  ____ __ ______    ______ _________
0                                  18203              ¿þþþþþþþþþþþþþþþþþþþþþþþþþþþþþþþþþþþþþþþþþþþþþþþþþþþþþþþþþþþþþþþþþþþþþÜ
                                   18204              Ÿ                                                                     Ÿ
                                   18205              Ÿ  TLIST - LIST MULTIPLE ELEMENTS ON ONE LINE,,,                      Ÿ
                                   18206              Ÿ                                                                     Ÿ
                                   18207              Ÿ                                                                     Ÿ
                                   18208              Ÿ  ON INPUT:                                                          Ÿ
                                   18209              Ÿ       R1 - LIST ELEMENT ADDRESS                                     Ÿ
                                   18210              Ÿ       R0 - LIST ELEMENT LENGTH                                      Ÿ
                                   18211              Ÿ                                                                     Ÿ
                                   18212              Ÿ  THIS ROUTINE COLLECTS ELEMENTS UNTIL THEY WILL MAKE A LINE         Ÿ
                                   18213              Ÿ  OF LENGTH 48 OR LONGER. IT THEN FORCES OUT THE LINE.  IF           Ÿ
                                   18214              Ÿ  A <ATTN> OCCURRES, ALL SUBSEQUENT LINES ARE NOT WRITTEN.           Ÿ
                                   18215              Ÿ                                                                     Ÿ
                                   18216              Ÿ  IF R0 IS ZERO IT IS A CALL TO FORCE OUT THE LINE COLLECTED         Ÿ
                                   18217              Ÿ  SO FAR EVEN IF IT IS LESS THAN 48 CHARS.                           Ÿ
                                   18218              Ÿ                                                                     Ÿ
                                   18219              Ÿ                                                                     Ÿ
                                                      ¾þþþþþþþþþþþþþþþþþþþþþþþþþþþþþþþþþþþþþþþþþþþþþþþþþþþþþþþþþþþþþþþþþþþþþ»
00030D0 50E0 D000/9008_      00000 18220              TLIST    PROC  ,
 USING  *,R7
 0030EA 5900 7A56/47D0_      03B40 18259                       IF    (R0,GT,0),BEGIN    WE HAVE LIST ELEMENT
 0030F2 9001 D000/41D0_      00000 18276  1                      XPUSH R0,R1                   PUT OUT LEADING BLANK
 0030FA 4110 7A80/4100_      03B6A 18279  1                      TSEG  ' '
 00310C 4BD0 7A7E/9801_      03B68 18297  1                      XPOP  R0,R1
 003114 41F0 B050/58E0_      00050 18300  1                      TSEG  (R1),(R0)               ADD ELEMENT TO LINE
 00311E 5820 B05C            0005C 18324  1                      L     R2,CPSEGLENF
 003122 5B20 B058            00058 18325  1                      S     R2,CPSEGMRKF
 003126 5920 7A5E/47D0_      03B48 18326  1                      IF    (R2,GT,48),BEGIN        IF LINE LENGTH > 48
 00312E 1B00/41F0 B050_            18343  2                        TCR                           WRITE OUT LINE
 00313A                            18368  1                      END
 00313A                            18372                       END
 00313A 7054/47F0 7074 0313A 030F0 18376                       ELSE  BEGIN ,            IF R0=0, FORCE OUT LAST LINE
 00313E D603 B05C B05C_0005C 0005C 18387  1                      TCCR
 00315E                            18449                       END
 00315E 18D8/9808 D004_            18453                       PEND  ,                  BYE
 DROP   *,R7
1SPELL    (SPEL2025) (12:55) (15MAR04) MISC - miscelleneous spell routines                                                  Page   88
0Current Usings:  (NDWA,R6) (CP,R11) (CV,R12)
0Loc    Object Code    Addr1 Addr2  Stmt Lv Lineno    Source Statement           (Hibal 5, Asmedit 3.3)  HLASM R4.0  2004/03/15 12.55
+___    ______ ____    _____ _____  ____ __ ______    ______ _________
0                                  18474              ¿þþþþþþþþþþþþþþþþþþþþþþþþþþþþþþþþþþþþþþþþþþþþþþþþþþþþþþþþþþþþþþþþþþþþþÜ
                                   18475              Ÿ                                                                     Ÿ
                                   18476              Ÿ                                                                     Ÿ
                                   18477              Ÿ       GETDICT, FREEDICT - get and free dictionary                   Ÿ
                                   18478              Ÿ                                                                     Ÿ
                                   18479              Ÿ       Dictionary address is found in CVDICPTR, when in use the      Ÿ
                                   18480              Ÿ       current dictionary is locked in memory via a use count.       Ÿ
                                   18481              Ÿ       The dictionary used is changed via the SET WDICTIONARY        Ÿ
                                   18482              Ÿ       command.  See code for details                                Ÿ
                                   18483              Ÿ                                                                     Ÿ
                                   18484              Ÿ                                                                     Ÿ
                                   18485              Ÿ                                                                     Ÿ
                                                      ¾þþþþþþþþþþþþþþþþþþþþþþþþþþþþþþþþþþþþþþþþþþþþþþþþþþþþþþþþþþþþþþþþþþþþþ»
-
                                   18487              ¿þþþþþþþþþþþþþþþþþþþþþþþþþþþþþþþþþþþþþþþþþþþþþþþþþþþþþþþþþþþþþþþþþþþþþÜ
                                   18488              Ÿ                                                                     Ÿ
                                   18489              Ÿ                                                                     Ÿ
                                   18490              Ÿ       GETDICT                                                       Ÿ
                                   18491              Ÿ                                                                     Ÿ
                                   18492              Ÿ       returns r1  - dictionary address, cc is set                   Ÿ
                                   18493              Ÿ               r15 - cc is set, =0 if no dictionary, =nz otherwise   Ÿ
                                   18494              Ÿ                                                                     Ÿ
                                   18495              Ÿ                                                                     Ÿ
                                                      ¾þþþþþþþþþþþþþþþþþþþþþþþþþþþþþþþþþþþþþþþþþþþþþþþþþþþþþþþþþþþþþþþþþþþþþ»
000316C 50E0 D000/9008_      00000 18496              GETDICT  XPROC  ,
 USING  *,R7
 003186 5810 C600            00600 18536                       L     R1,CVDICPTR        R1 - DICTIONARY ADDRESS
 00318A 5910 79BA/4780_      03B40 18537                       IF    (R1,NE,0),BEGIN    IF DICTIONARY, SET USE COUNT
 USING  DICTNRY,R1                 18554  1                      USING DICTNRY,R1
 003192 4820 100C            0000C 18563  1                      LH    R2,DICTUCNT        BUMP USE COUNT
 003196 4122 0001            00001 18564  1                      LA    R2,1(R2)
 00319A 4020 100C            0000C 18565  1                      STH   R2,DICTUCNT
 DROP   DICTNRY,R1                 18566  1                      DROP  R1
 00319E                            18573                       END
 00319E 18F1                       18577                       LR    R15,R1             R15 SETS RETURN CODE
 0031A0 9001 8004            00004 18578                       PRETURN (R0,R1)
 0031A4 18D8/9808 D004_            18580                       PEND  ,
 DROP   *,R7
1SPELL    (SPEL2025) (12:55) (15MAR04) MISC - miscelleneous spell routines                                                  Page   89
0Current Usings:  (NDWA,R6) (CP,R11) (CV,R12)
0Loc    Object Code    Addr1 Addr2  Stmt Lv Lineno    Source Statement           (Hibal 5, Asmedit 3.3)  HLASM R4.0  2004/03/15 12.55
+___    ______ ____    _____ _____  ____ __ ______    ______ _________
0                                  18601              ¿þþþþþþþþþþþþþþþþþþþþþþþþþþþþþþþþþþþþþþþþþþþþþþþþþþþþþþþþþþþþþþþþþþþþþÜ
                                   18602              Ÿ                                                                     Ÿ
                                   18603              Ÿ                                                                     Ÿ
                                   18604              Ÿ       GETDICT, FREEDICT - get and free dictionary                   Ÿ
                                   18605              Ÿ                                                                     Ÿ
                                   18606              Ÿ       Dictionary address is found in CVDICPTR, when in use the      Ÿ
                                   18607              Ÿ       current dictionary is locked in memory via a use count.       Ÿ
                                   18608              Ÿ       The dictionary used is changed via the SET WDICTIONARY        Ÿ
                                   18609              Ÿ       command.  See code for details                                Ÿ
                                   18610              Ÿ                                                                     Ÿ
                                   18611              Ÿ                                                                     Ÿ
                                   18612              Ÿ                                                                     Ÿ
                                                      ¾þþþþþþþþþþþþþþþþþþþþþþþþþþþþþþþþþþþþþþþþþþþþþþþþþþþþþþþþþþþþþþþþþþþþþ»
-
                                   18614              ¿þþþþþþþþþþþþþþþþþþþþþþþþþþþþþþþþþþþþþþþþþþþþþþþþþþþþþþþþþþþþþþþþþþþþþÜ
                                   18615              Ÿ                                                                     Ÿ
                                   18616              Ÿ                                                                     Ÿ
                                   18617              Ÿ       FREEDICT -                                                    Ÿ
                                   18618              Ÿ                                                                     Ÿ
                                   18619              Ÿ       input: r1 - dictionary address used by caller                 Ÿ
                                   18620              Ÿ                                                                     Ÿ
                                   18621              Ÿ       if dictionary address is zero, routine is a noop              Ÿ
                                   18622              Ÿ                                                                     Ÿ
                                   18623              Ÿ                                                                     Ÿ
                                                      ¾þþþþþþþþþþþþþþþþþþþþþþþþþþþþþþþþþþþþþþþþþþþþþþþþþþþþþþþþþþþþþþþþþþþþþ»
00031B2 50E0 D000/9008_      00000 18624              FREEDICT XPROC  ,
 USING  *,R7
                                   18664              *$
                                   18665              *$  ZAP TO IGNORE USE COUNT STUFF, UNTIL BUG FIXED
                                   18666              *$
 0031CC 47F0 703C            03208 18667                       B     FREERETN            *** ZAP !!
 USING  DICTNRY,R1                 18668                       USING DICTNRY,R1         R1 - DICTIONARY ADDRESS
 0031D0 1211                       18677                       LTR   R1,R1              IF NO DICTIONARY NO UNLOCK,,
 0031D2 4780 703C            03208 18678                       BZ    FREERETN
 0031D6 4820 100C            0000C 18679                       LH    R2,DICTUCNT        DECREMENT USE COUNT
 0031DA 0620                       18680                       BCTR  R2,0
 0031DC 4020 100C            0000C 18681                       STH   R2,DICTUCNT
                                   18682                       COMMENT                  IF OLD AND ZERO USE COUNT,,,
 0031E0 5920 7974/4770_      03B40 18683                       IF    ((R2,EQ,0),AND,DICTOLD),BEGIN     FREE UP OLD DICTNRY
 0031F0 5800 1004            00004 18714  1                      L     R0,DICTLEN
 0031F4 5810 1000            00000 18715  1                      L     R1,DICTADDR        R1,R0 - DICTNRY MEMORY ADDR, LEN
 DROP   DICTNRY,R1                 18716  1                      DROP  R1
 0031F8 D203 1000 7984 00000 03B50 18723  1                      MVC   0(4,R1),=C'FREE'
 0031FE 5001 0004            00004 18724  1                      ST    R0,4(R1)
 003202 4110 1000/0A0A       00000 18725  1                      FREEMAIN R,LV=(0),A=(1)
 003208                            18729                       END
 003208                            18733              FREERETN LABEL ,,                 RETURN
 003208 9001 8004            00004 18735                       PRETURN (R0,R1)
 00320C 18D8/9808 D004_            18737                       PEND  ,
 DROP   *,R7
1SPELL    (SPEL2025) (12:55) (15MAR04) SPELL SCANNER ROUTINES                                                               Page   90
0Current Usings:  (NDWA,R6) (CP,R11) (CV,R12)
0Loc    Object Code    Addr1 Addr2  Stmt Lv Lineno    Source Statement           (Hibal 5, Asmedit 3.3)  HLASM R4.0  2004/03/15 12.55
+___    ______ ____    _____ _____  ____ __ ______    ______ _________
0                                  18758              ¿þþþþþþþþþþþþþþþþþþþþþþþþþþþþþþþþþþþþþþþþþþþþþþþþþþþþþþþþþþþþþþþþþþþþþÜ
                                   18759              Ÿ                                                                     Ÿ
                                   18760              Ÿ                                                                     Ÿ
                                   18761              Ÿ       SCANTEXT - SCAN WORDS FORM INPUT TEXT,,,                      Ÿ
                                   18762              Ÿ                                                                     Ÿ
                                   18763              Ÿ                                                                     Ÿ
                                   18764              Ÿ                                                                     Ÿ
                                   18765              Ÿ       ON ENTRY:                                                     Ÿ
                                   18766              Ÿ             R1 - SCAN PARAMETER BLOCK.                              Ÿ
                                   18767              Ÿ                     SCPTR,SCEND: START AND END OF STRING TO         Ÿ
                                   18768              Ÿ                     SCAN, MUST BE INITIALIZED IN PARM BLOCK         Ÿ
                                   18769              Ÿ                                                                     Ÿ
                                   18770              Ÿ       ON EXIT:                                                      Ÿ
                                   18771              Ÿ             SCAN PARAMETER BLOCK FIELD UPDATED.                     Ÿ
                                   18772              Ÿ             R15 - CC, R15=0 WORD SCANNED, R15=NZ NULL SCAN          Ÿ
                                   18773              Ÿ                                                                     Ÿ
                                   18774              Ÿ  NOTE, WE SCAN WORDS OF UP TO 64 CHARACTERS.  THIS ROUTINE IS       Ÿ
                                   18775              Ÿ  MOSTLY BASED ON THE TRT INSTRUCTION.  ACCEPTABLE CHARACTERS        Ÿ
                                   18776              Ÿ  IN WORDS ARE BASED ON TRT TABLES.  A PERIOD ('.'), FOR EXAMPLE,    Ÿ
                                   18777              Ÿ  IS OK IN THE MIDDLE OF A NAME, (IE. WYL.GG.USR.DSN) BUT NOT AT     Ÿ
                                   18778              Ÿ  THE BEGINING OR END OF A WORD.  WE USE 4 TRT TABLES:               Ÿ
                                   18779              Ÿ       1. ALPHATBL - SCAN FOR ALPHABETIC CHARACTERS.                 Ÿ
                                   18780              Ÿ       2. SEPTBL   - TABLE OF CHARACTERS USED AS SEPARATORS          Ÿ
                                   18781              Ÿ       3. STARTTBL - VALID STARTING CHARACTERS                       Ÿ
                                   18782              Ÿ       4. ENDTBL   - INVALID ENDING CHARACTERS                       Ÿ
                                   18783              Ÿ  IN SHORT, WE SCAN UNTIL A ALPHA. THEN WE BACK UP OVER VALID        Ÿ
                                   18784              Ÿ  STARTING CHARACTERS THAT MAY HAVE BEEN SKIPPED. THUS WE FIND       Ÿ
                                   18785              Ÿ  THE START OF WORD.  FOR THE END OF WORD, WE SCAN OVER WORD         Ÿ
                                   18786              Ÿ  LOOKING FOR END.  WE FIND THE END WHEN WE HIT A SEPARATOR.         Ÿ
                                   18787              Ÿ  THEN WE BACK UP OVER INVALID ENDING CHARACTERS.  THUS WE FIND      Ÿ
                                   18788              Ÿ  THE END OF THE WORD.                                               Ÿ
                                   18789              Ÿ       IN OTHER WORDS, WE DO A SCAN THAT IS A BIT COMPLICATED IN     Ÿ
                                   18790              Ÿ  THAT THERE ARE THREE PLACES IN WHICH WE CHECK A CHARACTERS         Ÿ
                                   18791              Ÿ  VALIDITY WITHIN A WORD, DEPENDING ON WHETHER THE CHARACTER IS AT   Ÿ
                                   18792              Ÿ  THE START, MIDDLE OR END OF THE WORD.  SEE THE CODE AND TRT        Ÿ
                                   18793              Ÿ  TABLES FOR PARTICULARS.                                            Ÿ
                                   18794              Ÿ                                                                     Ÿ
                                   18795              Ÿ                                                                     Ÿ
                                                      ¾þþþþþþþþþþþþþþþþþþþþþþþþþþþþþþþþþþþþþþþþþþþþþþþþþþþþþþþþþþþþþþþþþþþþþ»
0000000                00000 00058 18796              SCWA     RECORD BEGIN ,           SCAN WORK AREA
 000000                            18804  1           SCPARMS    DS    0F                 PARAMETER BLOCK PASSED TO SCAN
 000000 00                         18805  1           SCFLAGS    FLAG  ,                  SCAN FLAGS
 SCFLAGS.SCSPECL   80 ONES         18809  1                      FLAG  SCSPECL            SCAN SPECIAL,, DEFAULT NO SPECIAL
 SCFLAGS.SCNOUPP   40 ONES         18814  1                      FLAG  SCNOUPP            DON'T SCAN UPPER, DEFAULT IS SCAN
 000004                            18819  1           SCSTART    DS    F                  START OF STRING TO SCAN
 000008                            18820  1           SCPTR      DS    F                  PLACE TO START SCANNING, UPDATED
 00000C                            18821  1           SCEND      DS    F                  END OF SCAN STRING
 000010                            18822  1           SCWLEN     DS    F                  LENGTH OF WORD SCANNED
 000014                            18823  1           SCWPTR     DS    F                  POINTER TO WORD IN SCANNED STRING
 000018                            18824  1           SCWORD     DS    CL64               WORD SCANNED (IN ORIGINAL CASE)
 000058                00058 00058 18825                       END
1SPELL    (SPEL2025) (12:55) (15MAR04) SPELL SCANNER ROUTINES                                                               Page   91
0Current Usings:  (NDWA,R6) (CP,R11) (CV,R12)
0Loc    Object Code    Addr1 Addr2  Stmt Lv Lineno    Source Statement           (Hibal 5, Asmedit 3.3)  HLASM R4.0  2004/03/15 12.55
+___    ______ ____    _____ _____  ____ __ ______    ______ _________
0
                                   18835                       ¿þþþþþþþþþþþþþÜ
                                   18836                       Ÿ  SCAN TEXT  Ÿ
                                   18837                       ¾þþþþþþþþþþþþþ»
 00321A 50E0 D000/9008_      00000 18838              SCANTEXT PROC  ,
 USING  *,R7
 003234 1861                       18877                       LR    R6,R1              WAR POINTS TO INPUT PARM BLOCK
 DROP   NDWA,R6                    18878                       USING SCWA,R6
 USING  SCWA,R6
 003236                            18890              RESCAN   LABEL ,
 003236 5810 7920            03B54 18892                       L     R1,=A(BLANKS)
 00323A D23F 6018 1000 00018 00000 18893                       MVC   SCWORD(64),0(R1)   BLANK OUT WORD
 003240 D203 6010 7924 00010 03B58 18894                       MVC   SCWLEN(4),=F'0'    ZERO WORD LENGTH, POINTER
 003246 D203 6014 7924 00014 03B58 18895                       MVC   SCWPTR(4),=F'0'
 00324C 1B11                       18896                       SR    R1,R1              R1 - RETURNS NON-ZERO TRT ADDRESS
 00324E 1B22                       18897                       SR    R2,R2              R2 - RETURNS NON ZERO TRT FUNC BYTE
 003250 5830 6008            00008 18898                       L     R3,SCPTR           R3 - PLACE TO START TRT SCAN
 003254 5840 600C            0000C 18899                       L     R4,SCEND           R4 - LENGTH TO SCAN
 003258 1B43                       18900                       SR    R4,R3
 00325A 4780 712A            0335E 18901                       BZ    NULLSCAN           IF NULL STRING, NULL SCAN
 00325E 5940 7928/47D0_      03B5C 18902                       IF    (R4,GT,256),' LA R4,256'       256 IS MAX SCAN
 00326A 0640/4440 7938_            18925                       DEX   R4,' TRT 0(0,R3),ALPHATBL '    SCAN FOR ALPHA CHAR
 003270 4770 7056            0328A 18944                       BNZ   SCANNAME           IF GOOD SCAN, WE HAVE A WORD !!
                                   18945                       COMMENT
 003274                            18946                       BEGIN ,                  IF NULL SCAN, ,,,
 003274 4114 3001            00001 18950  1                      LA    R1,1(R4,R3)          FIND THE LAST CHAR SCANNED
 003278 5010 6008            00008 18951  1                      ST    R1,SCPTR             UPDATE THE SCAN POINTER
 00327C D503 6008 600C 00008 0000C 18952  1                      CLC   SCPTR(4),SCEND     IF NULL SCAN OF LONG STRING
 003282 4740 7002            03236 18953  1                      BL    RESCAN               THEN WE GO SCAN REST OF STRING
 003286 47F0 712A            0335E 18954  1                      B     NULLSCAN             ELSE, WE HAVE A TRUE NULL SCAN
 00328A                            18955                       END
1SPELL    (SPEL2025) (12:55) (15MAR04) SPELL SCANNER ROUTINES                                                               Page   92
0Current Usings:  (SCWA,R6) (*,R7) (CP,R11) (CV,R12)
0Loc    Object Code    Addr1 Addr2  Stmt Lv Lineno    Source Statement           (Hibal 5, Asmedit 3.3)  HLASM R4.0  2004/03/15 12.55
+___    ______ ____    _____ _____  ____ __ ______    ______ _________
000328A                            18960              SCANNAME LABEL ,                  R1 - FIRST ALPHA CHAR OF NAME
 00328A 5910 6008            00008 18962                       C     R1,SCPTR
 00328E 47D0 7086            032BA 18963                       IF    H,BEGIN            START A LOOP TO LOOK FOR NON-ALPHA
 003292 1B33                       18974  1                      SR    R3,R3                BUT VALID STARTING CHARACTERS
 003294 4770 707C/5910_      032B0 18975  1                      WHILE (Z,AND,(R1,GT,SCPTR)),BEGIN
 0032A0 0610                       19004  2                        BCTR  R1,0                 R1 - BACK UP WORD POINTER
 0032A2 4331 0000            00000 19005  2                        IC    R3,0(R1)             R3 - CHARACTER
 0032A6 4333 7302            03536 19006  2                        IC    R3,STARTTBL(R3)      R3 - CHARACTER VALIDITY CODE
 0032AA 1233                       19007  2                        LTR   R3,R3                R3 - IF ZERO, VALID
 0032AC 47F0 7060            03294 19008  1                      END
 0032B0 1233/4780 7086             19013  1                      IF    (R3,NZ),BEGIN
 0032B6 4111 0001            00001 19027  2                        LA    R1,1(R1)               START OF WORD
 0032BA                            19028  1                      END
 0032BA                            19032                       END
 0032BA 1851                       19036                       LR    R5,R1              R5 - START OF WORD
 0032BC 1B11                       19037                       SR    R1,R1
 0032BE 1B22                       19038                       SR    R2,R2              R1, R2 - CLEARED FOR TRT RETURNS
 0032C0 1835                       19039                       LR    R3,R5              R3 - START OF WORD
 0032C2 5840 600C            0000C 19040                       L     R4,SCEND           R4 - LENGTH, R3 TO END OF STRING
 0032C6 1B43                       19041                       SR    R4,R3
 0032C8 4780 712A            0335E 19042                       BZ    NULLSCAN
 0032CC 5940 7928/47D0_      03B5C 19043                       IF    (R4,GT,256),' LA R4,256 '    MAXIMUM SCAN IS 256 CHARS
 0032D8 0640/4440 793E_            19066                       DEX   R4,' TRT 0(0,R3),SEPTBL '    SCAN TILL END OF WORD
 0032DE 4770 70B2            032E6 19085                       IF    Z,BEGIN
 0032E2 4114 3001            00001 19096  1                      LA    R1,1(R4,R3)        R1 - LAST CHARACTER SCANNED+1
 0032E6                            19097                       END
 0032E6 1B33                       19101                       SR    R3,R3
 0032E8 12EE                       19102                       LTR   RAR,RAR            SET CC=NZ
 0032EA 4780 70CA            032FE 19103                       WHILE NZ,BEGIN           START LOOP TO LOOK FOR VALID LAST
 0032EE 0610                       19116  1                      BCTR  R1,0                  CHARACTER
 0032F0 4331 0000            00000 19117  1                      IC    R3,0(R1)              R3 - CHARACTER
 0032F4 4333 7302            03536 19118  1                      IC    R3,ENDTBL(R3)         R3 - CHARACTER VALIDITY CODE
 0032F8 1233                       19119  1                      LTR   R3,R3                 R3 - ZERO=VALID
 0032FA 47F0 70B6            032EA 19120                       END
 0032FE 4111 0001            00001 19125                       LA    R1,1(R1)           R1 - END OF STRING (LAST CHAR+1)
                                   19126                       COMMENT IT                  R1,R5 - END, START OF WORD
                                   19127                       COMMENT OH YEAH
 003302 1835                       19128                       LR    R3,R5                 R3 - START OF SCANNED STRING
 003304 1841                       19129                       LR    R4,R1                 R4 - LENGTH OF SCANNED STRING
 003306 1B43                       19130                       SR    R4,R3 (NEVER=0)
 003308 5940 792C/47D0_      03B60 19131                       IF    (R4,GT,64),' LA R4,64 '     MAXIMUM WORD LENGTH IS 64
 003314 5040 6010            00010 19154                       ST    R4,SCWLEN                   SAVE WORD LENGTH
 003318 0640/4440 7944_            19155                       DEX   R4,' MVC SCWORD(0),0(R3)'      SAVE WORD !!
 00331E 5010 6008            00008 19174                       ST    R1,SCPTR           UPDATE SCPTR, SCEND STAYS SAME
 003322 5050 6014            00014 19175                       ST    R5,SCWPTR          SAVE START OF SCANNED WORD
1SPELL    (SPEL2025) (12:55) (15MAR04) SPELL SCANNER ROUTINES                                                               Page   93
0Current Usings:  (SCWA,R6) (*,R7) (CP,R11) (CV,R12)
0Loc    Object Code    Addr1 Addr2  Stmt Lv Lineno    Source Statement           (Hibal 5, Asmedit 3.3)  HLASM R4.0  2004/03/15 12.55
+___    ______ ____    _____ _____  ____ __ ______    ______ _________
0003326                            19177              SCANCHK  LABEL ,                  CHECK WORD SCANED,
                                   19179                       COMMENT
                                   19180              *$       ACALL CHKHYPN            CHECK IF HYPHENATED WORD-
                                   19181                       COMMENT ,,               (NEVER SAY NEVER)
 003326 D503 6010 7930 00010 03B64 19182                       CLC   SCWLEN(4),=F'2'
 00332C 47D0 7002            03236 19183                       BNH   RESCAN             WORD MUST BE LONGER THAN 2 CHARS
 003330 4440 794A/DD00_      03B7E 19184                       EX    R4,' TRT SCWORD(0),NONALPHA '
 003334 4780 7110            03344 19200                       IF    NZ,BEGIN           IF NON-ALPHA CHARACTERS IN WORD,,
 003338 9180 6000/4710_00000       19211  1                      IF    ~SCSPECL,BEGIN        IF NOT CHECKING SPECIAL CHAR
 003340 47F0 7002            03236 19226  2                        B     RESCAN                  WORDS, THEN WE GO RESCAN
 003344                            19227  1                      END   ,,
 003344                            19231                       END
 003344 4440 7950/DD00_      03B84 19235                       EX    R4,' TRT SCWORD(0),NONUPPER '
 003348 4770 7124            03358 19251                       IF    Z,BEGIN            IF ALL UPPER CASE WORD ,,,,
 00334C 9140 6000/47E0_00000       19262  1                      IF    SCNOUPP,BEGIN         IF NOT CHECKING ALL UPPER CASE
 003354 47F0 7002            03236 19277  2                        B     RESCAN                  WORDS, THEN WE GO RESCAN
 003358                            19278  1                      END ,,
 003358                            19282                       END
                                   19286
 003358 1BFF                       19287                       SR    R15,R15            GOOD SCANS FALL THROUGH TO HERE
 00335A 47F0 7132            03366 19288                       B     SCANDONE
                                   19289
 00335E                            19290              NULLSCAN LABEL ,                  NULL SCAN (NO WORD RETURNED)
 00335E 41F0 0004            00004 19292                       LA    R15,4              SET NON-ZERO RETURN CODE
 003362 47F0 7132            03366 19293                       B     SCANDONE
                                   19294
 003366                            19295              SCANDONE LABEL ,                  SCAN FINISHED, RETURN TO CALLER
 003366 18D8/9808 D004_            19297                       PEND  ,         WE RETURN
 DROP   *,R7
1SPELL    (SPEL2025) (12:55) (15MAR04) SPELL SCANNER ROUTINES                                                               Page   94
0Current Usings:  (SCWA,R6) (CP,R11) (CV,R12)
0Loc    Object Code    Addr1 Addr2  Stmt Lv Lineno    Source Statement           (Hibal 5, Asmedit 3.3)  HLASM R4.0  2004/03/15 12.55
+___    ______ ____    _____ _____  ____ __ ______    ______ _________
0                                  19318              ¿þþþþþþþþþþþþþþþþþþþþþþþþþþþþþþþþþþþþþþþþþþþþþþþþþþþþþþþþþþþþþþþþþþþþþÜ
                                   19319              Ÿ                                                                     Ÿ
                                   19320              Ÿ  SCAN ANY WORD, WITHOUT RESTRICTION                                 Ÿ
                                   19321              Ÿ                                                                     Ÿ
                                   19322              Ÿ       INPUT: R1 - SCAN PARM BLOCK                                   Ÿ
                                   19323              Ÿ                                                                     Ÿ
                                   19324              Ÿ       RETURNS: SCAN PARM BLOCK, R15=CC, NZ IF NOTHING TO SCAN       Ÿ
                                   19325              Ÿ                                                                     Ÿ
                                   19326              Ÿ                                                                     Ÿ
                                   19327              Ÿ  THIS ROUTINE SCANS ANY TOKEN,, BETWEEN BLANKS OR COMMAS, ALL       Ÿ
                                   19328              Ÿ  WIERD PUNCTUATION MARKS (*?' ETC) ARE CONSIDERED PART OF WORD      Ÿ
                                   19329              Ÿ                                                                     Ÿ
                                   19330              Ÿ                                                                     Ÿ
                                                      ¾þþþþþþþþþþþþþþþþþþþþþþþþþþþþþþþþþþþþþþþþþþþþþþþþþþþþþþþþþþþþþþþþþþþþþ»
0003374 50E0 D000/9008_      00000 19331              SCANWORD PROC  ,     SCAN WORD FROM COMMAND
 USING  *,R7
 00338E 1861                       19370                       LR    R6,R1              POINT TO SCAN PARM BLOCK
                                   19371                       USING SCWA,R6
 003390 5810 77C6            03B54 19373                       L     R1,=A(BLANKS)      INITIALIZE WORD TO BLANKS
 003394 D23F 6018 1000 00018 00000 19374                       MVC   SCWORD(64),0(R1)
 00339A D203 6010 77CA 00010 03B58 19375                       MVC   SCWLEN(4),=F'0'    ZERO WORD LENGTH, POINTER
 0033A0 D203 6014 77CA 00014 03B58 19376                       MVC   SCWPTR(4),=F'0'
 0033A6 5810 6008            00008 19377                       L     R1,SCPTR           R1,R0 - START, END OF STRING
 0033AA 5800 600C            0000C 19378                       L     R0,SCEND
 0033AE                            19379                       LOOP  BEGIN ,            SKIP LEADING BLANKS, COMMAS
 0033AE 1910                       19385  1                      CR    R1,R0
 0033B0 47B0 703E            033CC 19386  1                      BNL   WRDSTART
 0033B4 9540 1000      00000       19387  1                      CLI   0(R1),C' '                 TEST FOR ' ' OR ','
 0033B8 4780 7032            033C0 19388  1                      IF    NE,BEGIN
 0033BC 956B 1000      00000       19399  2                        CLI   0(R1),C','
 0033C0                            19400  1                      END
 0033C0 4770 703E            033CC 19404  1                      BNE   WRDSTART
 0033C4 4111 0001            00001 19405  1                      LA    R1,1(R1)
 0033C8 47F0 7020            033AE 19406                       END
 0033CC                            19411              WRDSTART LABEL ,                  R1 - START OF WORD
 0033CC 1841                       19413                       LR    R4,R1              R4 - START OF WORD
 0033CE 5040 6014            00014 19414                       ST    R4,SCWPTR               SAVE START OF WORD
 0033D2                            19415                       LOOP  BEGIN ,            SKIP UNTIL A BLANK, COMMA
 0033D2 1910                       19421  1                      CR    R1,R0
 0033D4 47B0 706A            033F8 19422  1                      BNL   WRDEND
 0033D8 9540 1000      00000       19423  1                      CLI   0(R1),C' '
 0033DC 4780 706A            033F8 19424  1                      BE    WRDEND
 0033E0 956B 1000      00000       19425  1                      CLI   0(R1),C','
 0033E4 4780 706A            033F8 19426  1                      BE    WRDEND
 0033E8 955E 1000      00000       19427  1                      CLI   0(R1),C';'
 0033EC 4780 706A            033F8 19428  1                      BE    WRDEND
 0033F0 4111 0001            00001 19429  1                      LA    R1,1(R1)
 0033F4 47F0 7044            033D2 19430                       END
 0033F8                            19435              WRDEND   LABEL ,
 0033F8 5010 6008            00008 19437                       ST    R1,SCPTR           R1 - END OF SCANNED WORD
 0033FC 1B14                       19438                       SR    R1,R4              R4,R1 - WORD ADDR, LENGTH
 0033FE 5010 6010            00010 19439                       ST    R1,SCWLEN
 003402 4780 708A            03418 19440                       IF    NZ,BEGIN           SAVE WORD AND LENGTH
1SPELL    (SPEL2025) (12:55) (15MAR04) SPELL SCANNER ROUTINES                                                               Page   95
0Current Usings:  (SCWA,R6) (*,R7) (CP,R11) (CV,R12)
0Loc    Object Code    Addr1 Addr2  Stmt Lv Lineno    Source Statement           (Hibal 5, Asmedit 3.3)  HLASM R4.0  2004/03/15 12.55
+___    ______ ____    _____ _____  ____ __ ______    ______ _________
0003406 5910 77D2/47D0_      03B60 19451  1                      IF    (R1,GT,64),'LA R1,64'   MAX WORD LENGTH IS 64
 003412 0610/4410 77FC_            19474  1                      DEX   R1,' MVC SCWORD(0),0(R4) '
 003418                            19493                       END
 003418 1BFF                       19497                       SR    R15,R15            SET RETURN CODE, CC=NZ IF NULL SCAN
 00341A D503 77AA 6010_03B38 00010 19498                       IF    (SCWLEN,EQ,0),' LA R15,4 '
 003428 18D8/9808 D004_            19522                       PEND  ,
 DROP   *,R7
1SPELL    (SPEL2025) (12:55) (15MAR04) SPELL SCANNER ROUTINES                                                               Page   96
0Current Usings:  (SCWA,R6) (CP,R11) (CV,R12)
0Loc    Object Code    Addr1 Addr2  Stmt Lv Lineno    Source Statement           (Hibal 5, Asmedit 3.3)  HLASM R4.0  2004/03/15 12.55
+___    ______ ____    _____ _____  ____ __ ______    ______ _________
0                                  19543              ¿þþþþþþþþþþþþþþþþþþþþþþþþþþþþþþþþþþþþþþþþþþþþþþþþþþþþþþþþþþþþþþþþþþþþþÜ
                                   19544              Ÿ                                                                     Ÿ
                                   19545              Ÿ                                                                     Ÿ
                                   19546              Ÿ       TRT TABLES FOR SCAN                                           Ÿ
                                   19547              Ÿ                                                                     Ÿ
                                   19548              Ÿ                                                                     Ÿ
                                   19549              Ÿ TRT SCAN TABLES,                                                    Ÿ
                                   19550              Ÿ                                                                     Ÿ
                                   19551              Ÿ                                                                     Ÿ
                                   19552              Ÿ NOTE: STARTING AND ENDING VALID CHARACTER TABLES ARE THE SAME.      Ÿ
                                   19553              Ÿ                                                                     Ÿ
                                   19554              Ÿ NOTE: VALID STARTING AND ENDING CHARACTERS MUST ALSO BE VALID       Ÿ
                                   19555              Ÿ  INTERMEDIATE CHARACTERS.  DIG IT AND GET THESE TABLES RIGHT !!     Ÿ
                                   19556              Ÿ                                                                     Ÿ
                                   19557              Ÿ                                                                     Ÿ
                                                      ¾þþþþþþþþþþþþþþþþþþþþþþþþþþþþþþþþþþþþþþþþþþþþþþþþþþþþþþþþþþþþþþþþþþþþþ»
0003436                            19558              ALPHATBL LABEL ,                  TABLE OF ALL A-Z, a-z
 003436 0000000000000000           19560                       DC    256XL1'0'          ALPHAS SET AS 4
 003536                03536 034F7 19561                       ORG   ALPHATBL+C'A'
 0034F7 0404040404040404           19562                       DC    9XL1'04'
 003500                03500 03507 19563                       ORG   ALPHATBL+C'J'
 003507 0404040404040404           19564                       DC    9XL1'04'
 003510                03510 03518 19565                       ORG   ALPHATBL+C'S'
 003518 0404040404040404           19566                       DC    8XL1'04'
 003520                03520 034B7 19567                       ORG   ALPHATBL+C'a'
 0034B7 0404040404040404           19568                       DC    9XL1'04'
 0034C0                034C0 034C7 19569                       ORG   ALPHATBL+C'j'
 0034C7 0404040404040404           19570                       DC    9XL1'04'
 0034D0                034D0 034D8 19571                       ORG   ALPHATBL+C's'
 0034D8 0404040404040404           19572                       DC    8XL1'04'
 0034E0                034E0 03536 19573                       ORG   ALPHATBL+256
                                   19574              ¿þþþþþþÜ
                                   19575              Ÿ      Ÿ
                                   19576              ¾þþþþþþ»
 003536                            19577              STARTTBL LABEL ,                  TABLE OF VALID STARTING CHARS
 003536 0404040404040404           19579                       DC    256XL1'04'
 003636                03636 035F7 19580                       ORG   STARTTBL+C'A'      THE ALPHABET
 0035F7 0000000000000000           19581                       DC    9XL1'00'
 003600                03600 03607 19582                       ORG   STARTTBL+C'J'
 003607 0000000000000000           19583                       DC    9XL1'00'
 003610                03610 03618 19584                       ORG   STARTTBL+C'S'
 003618 0000000000000000           19585                       DC    8XL1'00'
 003620                03620 035B7 19586                       ORG   STARTTBL+C'a'
 0035B7 0000000000000000           19587                       DC    9XL1'00'
 0035C0                035C0 035C7 19588                       ORG   STARTTBL+C'j'
 0035C7 0000000000000000           19589                       DC    9XL1'00'
 0035D0                035D0 035D8 19590                       ORG   STARTTBL+C's'
 0035D8 0000000000000000           19591                       DC    8XL1'00'
 0035E0                035E0 03626 19592                       ORG   STARTTBL+C'0'      THE NUMBERS
 003626 0000000000000000           19593                       DC    10XL1'00'
 003630                03630 03591 19594                       ORG   STARTTBL+C'$'      AND $,&,@,#
 003591 00                         19595                       DC    X'00'
 003592                03592 035B2 19596                       ORG   STARTTBL+C'@'
1SPELL    (SPEL2025) (12:55) (15MAR04) SPELL SCANNER ROUTINES                                                               Page   97
0Current Usings:  (SCWA,R6) (CP,R11) (CV,R12)
0Loc    Object Code    Addr1 Addr2  Stmt Lv Lineno    Source Statement           (Hibal 5, Asmedit 3.3)  HLASM R4.0  2004/03/15 12.55
+___    ______ ____    _____ _____  ____ __ ______    ______ _________
00035B2 00                         19597                       DC    X'00'
 0035B3                035B3 03586 19598                       ORG   STARTTBL+C'&&'
 003586 00                         19599                       DC    X'00'
 003587                03587 035B1 19600                       ORG   STARTTBL+C'#'
 0035B1 00                         19601                       DC    X'00'
 0035B2                035B2 03636 19602                       ORG   STARTTBL+256
 003636                03636 03536 19603                       ORG   STARTTBL           START AND END TABLES ARE THE SAME
                                   19604              ¿þþþþþþÜ
                                   19605              Ÿ      Ÿ
                                   19606              ¾þþþþþþ»
 003536                            19607              ENDTBL   LABEL ,                  TABLE OF VALID ENDING CHARS
 003536 0404040404040404           19609                       DC    256XL1'04'
 003636                03636 035F7 19610                       ORG   ENDTBL+C'A'       THE ALPHABET
 0035F7 0000000000000000           19611                       DC    9XL1'00'
 003600                03600 03607 19612                       ORG   ENDTBL+C'J'
 003607 0000000000000000           19613                       DC    9XL1'00'
 003610                03610 03618 19614                       ORG   ENDTBL+C'S'
 003618 0000000000000000           19615                       DC    8XL1'00'
 003620                03620 035B7 19616                       ORG   ENDTBL+C'a'
 0035B7 0000000000000000           19617                       DC    9XL1'00'
 0035C0                035C0 035C7 19618                       ORG   ENDTBL+C'j'
 0035C7 0000000000000000           19619                       DC    9XL1'00'
 0035D0                035D0 035D8 19620                       ORG   ENDTBL+C's'
 0035D8 0000000000000000           19621                       DC    8XL1'00'
 0035E0                035E0 03626 19622                       ORG   ENDTBL+C'0'       THE NUMBERS
 003626 0000000000000000           19623                       DC    10XL1'00'
 003630                03630 03591 19624                       ORG   ENDTBL+C'$'       AND $,&,@,#
 003591 00                         19625                       DC    X'00'
 003592                03592 035B2 19626                       ORG   ENDTBL+C'@'
 0035B2 00                         19627                       DC    X'00'
 0035B3                035B3 03586 19628                       ORG   ENDTBL+C'&&'
 003586 00                         19629                       DC    X'00'
 003587                03587 035B1 19630                       ORG   ENDTBL+C'#'
 0035B1 00                         19631                       DC    X'00'
 0035B2                035B2 03636 19632                       ORG   ENDTBL+256
                                   19633              ¿þþþþþþÜ
                                   19634              Ÿ      Ÿ
                                   19635              ¾þþþþþþ»
 003636                            19636              SEPTBL   LABEL ,                  TABLE OF VALID INTERMEDIATE CHARS
 003636 0404040404040404           19638                       DC    256XL1'04'
 003736                03736 036F7 19639                       ORG   SEPTBL+C'A'       THE ALPHABET
 0036F7 0000000000000000           19640                       DC    9XL1'00'
 003700                03700 03707 19641                       ORG   SEPTBL+C'J'
 003707 0000000000000000           19642                       DC    9XL1'00'
 003710                03710 03718 19643                       ORG   SEPTBL+C'S'
 003718 0000000000000000           19644                       DC    8XL1'00'
 003720                03720 036B7 19645                       ORG   SEPTBL+C'a'
 0036B7 0000000000000000           19646                       DC    9XL1'00'
 0036C0                036C0 036C7 19647                       ORG   SEPTBL+C'j'
 0036C7 0000000000000000           19648                       DC    9XL1'00'
 0036D0                036D0 036D8 19649                       ORG   SEPTBL+C's'
 0036D8 0000000000000000           19650                       DC    8XL1'00'
 0036E0                036E0 03726 19651                       ORG   SEPTBL+C'0'       THE NUMBERS
 003726 0000000000000000           19652                       DC    10XL1'00'
1SPELL    (SPEL2025) (12:55) (15MAR04) SPELL SCANNER ROUTINES                                                               Page   98
0Current Usings:  (SCWA,R6) (CP,R11) (CV,R12)
0Loc    Object Code    Addr1 Addr2  Stmt Lv Lineno    Source Statement           (Hibal 5, Asmedit 3.3)  HLASM R4.0  2004/03/15 12.55
+___    ______ ____    _____ _____  ____ __ ______    ______ _________
0003730                03730 03691 19653                       ORG   SEPTBL+C'$'       AND $,&,@,#,',.
 003691 00                         19654                       DC    X'00'
 003692                03692 036B2 19655                       ORG   SEPTBL+C'@'
 0036B2 00                         19656                       DC    X'00'
 0036B3                036B3 03686 19657                       ORG   SEPTBL+C'&&'
 003686 00                         19658                       DC    X'00'
 003687                03687 036B1 19659                       ORG   SEPTBL+C'#'
 0036B1 00                         19660                       DC    X'00'
 0036B2                036B2 036B3 19661                       ORG   SEPTBL+C''''        *** DO NOT CHECK "'s"
 0036B3 00                         19662                       DC    X'00'               *** -- THESE LINES 1/1/86
 0036B4                036B4 03681 19663                       ORG   SEPTBL+C'.'
 003681 00                         19664                       DC    X'00'
 003682                03682 03736 19665                       ORG   SEPTBL+256
                                   19666              ¿þþþþþþÜ
                                   19667              Ÿ      Ÿ
                                   19668              ¾þþþþþþ»
 003736                            19669              NONALPHA LABEL ,                  NON ALPHA TRT TABLE
 003736 0404040404040404           19671                       DC    256XL1'04'         NON ALPHA'S SET TO 4
 003836                03836 037B3 19672                       ORG   NONALPHA+C''''      *** SPELL TREATS C"'" AS ALPHA !
 0037B3 00                         19673                       DC    1XL1'00'            (IE. CHECK WORDS LIKE "BUD'S")
                                   19674                       COMMENT OH YEAH           *** NO LONGER, -- LINES 1/1/86
 0037B4                037B4 037F7 19675                       ORG   NONALPHA+C'A'
 0037F7 0000000000000000           19676                       DC    9XL1'00'
 003800                03800 03807 19677                       ORG   NONALPHA+C'J'
 003807 0000000000000000           19678                       DC    9XL1'00'
 003810                03810 03818 19679                       ORG   NONALPHA+C'S'
 003818 0000000000000000           19680                       DC    8XL1'00'
 003820                03820 037B7 19681                       ORG   NONALPHA+C'a'
 0037B7 0000000000000000           19682                       DC    9XL1'00'
 0037C0                037C0 037C7 19683                       ORG   NONALPHA+C'j'
 0037C7 0000000000000000           19684                       DC    9XL1'00'
 0037D0                037D0 037D8 19685                       ORG   NONALPHA+C's'
 0037D8 0000000000000000           19686                       DC    8XL1'00'
 0037E0                037E0 03836 19687                       ORG   NONALPHA+256
                                   19688              ¿þþþþþþÜ
                                   19689              Ÿ      Ÿ
                                   19690              ¾þþþþþþ»
 003836                            19691              NONUPPER LABEL ,                  NON UPPER TRT TABLE
 003836 0404040404040404           19693                       DC    256XL1'04'         NON UPPER'S SET TO 4
 003936                03936 038F7 19694                       ORG   NONUPPER+C'A'
 0038F7 0000000000000000           19695                       DC    9XL1'00'
 003900                03900 03907 19696                       ORG   NONUPPER+C'J'
 003907 0000000000000000           19697                       DC    9XL1'00'
 003910                03910 03918 19698                       ORG   NONUPPER+C'S'
 003918 0000000000000000           19699                       DC    8XL1'00'
 003920                03920 03936 19700                       ORG   NONUPPER+256
                                   19701              ¿þþþþþþÜ
                                   19702              Ÿ      Ÿ
                                   19703              ¾þþþþþþ»
 003936                            19704              UPPTABLE LABEL ,                  UPPER CASE TRANSLATE TABLE
 003936 0001020304050607           19706                       DC    X'000102030405060708090A0B0C0D0E0F'
 003946 1011121314151617           19707                       DC    X'101112131415161718191A1B1C1D1E1F'
 003956 2021222324252627           19708                       DC    X'202122232425262728292A2B2C2D2E2F'
 003966 3031323334353637           19709                       DC    X'303132333435363738393A3B3C3D3E3F'
1SPELL    (SPEL2025) (12:55) (15MAR04) SPELL SCANNER ROUTINES                                                               Page   99
0Current Usings:  (SCWA,R6) (CP,R11) (CV,R12)
0Loc    Object Code    Addr1 Addr2  Stmt Lv Lineno    Source Statement           (Hibal 5, Asmedit 3.3)  HLASM R4.0  2004/03/15 12.55
+___    ______ ____    _____ _____  ____ __ ______    ______ _________
0003976 4041424344454647           19710                       DC    X'404142434445464748494A4B4C4D4E4F'
 003986 5051525354555657           19711                       DC    X'505152535455565758595A5B5C5D5E5F'
 003996 6061626364656667           19712                       DC    X'606162636465666768696A6B6C6D6E6F'
 0039A6 7071727374757677           19713                       DC    X'707172737475767778797A7B7C7D7E7F'
 0039B6 8081828384858687           19714                       DC    X'808182838485868788898A8B8C8D8E8F'
 0039C6 9091929394959697           19715                       DC    X'909192939495969798999A9B9C9D9E9F'
 0039D6 A0A1A2A3A4A5A6A7           19716                       DC    X'A0A1A2A3A4A5A6A7A8A9AAABACADAEAF'
 0039E6 B0B1B2B3B4B5B6B7           19717                       DC    X'B0B1B2B3B4B5B6B7B8B9BABBBCBDBEBF'
 0039F6 C0C1C2C3C4C5C6C7           19718                       DC    X'C0C1C2C3C4C5C6C7C8C9CACBCCCDCECF'
 003A06 D0D1D2D3D4D5D6D7           19719                       DC    X'D0D1D2D3D4D5D6D7D8D9DADBDCDDDEDF'
 003A16 E0E1E2E3E4E5E6E7           19720                       DC    X'E0E1E2E3E4E5E6E7E8E9EAEBECEDEEEF'
 003A26 F0F1F2F3F4F5F6F7           19721                       DC    X'F0F1F2F3F4F5F6F7F8F9FAFBFCFDFEFF'
 003A36                03A36 039B7 19722                       ORG   UPPTABLE+C'a'
 0039B7 C1C2C3C4C5C6C7C8           19723                       DC    C'ABCDEFGHI'
 0039C0                039C0 039C7 19724                       ORG   UPPTABLE+C'j'
 0039C7 D1D2D3D4D5D6D7D8           19725                       DC    C'JKLMNOPQR'
 0039D0                039D0 039D8 19726                       ORG   UPPTABLE+C's'
 0039D8 E2E3E4E5E6E7E8E9           19727                       DC    C'STUVWXYZ'
 0039E0                039E0 03A36 19728                       ORG   UPPTABLE+256
                                   19729              ¿þþþþþþÜ
                                   19730              Ÿ      Ÿ
                                   19731              ¾þþþþþþ»
 003A36                            19732              LOWTABLE LABEL ,                  LOWER CASE TRANSLATE TABLE
 003A36 0001020304050607           19734                       DC    X'000102030405060708090A0B0C0D0E0F'
 003A46 1011121314151617           19735                       DC    X'101112131415161718191A1B1C1D1E1F'
 003A56 2021222324252627           19736                       DC    X'202122232425262728292A2B2C2D2E2F'
 003A66 3031323334353637           19737                       DC    X'303132333435363738393A3B3C3D3E3F'
 003A76 4041424344454647           19738                       DC    X'404142434445464748494A4B4C4D4E4F'
 003A86 5051525354555657           19739                       DC    X'505152535455565758595A5B5C5D5E5F'
 003A96 6061626364656667           19740                       DC    X'606162636465666768696A6B6C6D6E6F'
 003AA6 7071727374757677           19741                       DC    X'707172737475767778797A7B7C7D7E7F'
 003AB6 8081828384858687           19742                       DC    X'808182838485868788898A8B8C8D8E8F'
 003AC6 9091929394959697           19743                       DC    X'909192939495969798999A9B9C9D9E9F'
 003AD6 A0A1A2A3A4A5A6A7           19744                       DC    X'A0A1A2A3A4A5A6A7A8A9AAABACADAEAF'
 003AE6 B0B1B2B3B4B5B6B7           19745                       DC    X'B0B1B2B3B4B5B6B7B8B9BABBBCBDBEBF'
 003AF6 C0C1C2C3C4C5C6C7           19746                       DC    X'C0C1C2C3C4C5C6C7C8C9CACBCCCDCECF'
 003B06 D0D1D2D3D4D5D6D7           19747                       DC    X'D0D1D2D3D4D5D6D7D8D9DADBDCDDDEDF'
 003B16 E0E1E2E3E4E5E6E7           19748                       DC    X'E0E1E2E3E4E5E6E7E8E9EAEBECEDEEEF'
 003B26 F0F1F2F3F4F5F6F7           19749                       DC    X'F0F1F2F3F4F5F6F7F8F9FAFBFCFDFEFF'
 003B36                03B36 03AF7 19750                       ORG   LOWTABLE+C'A'
 003AF7 8182838485868788           19751                       DC    C'abcdefghi'
 003B00                03B00 03B07 19752                       ORG   LOWTABLE+C'J'
 003B07 9192939495969798           19753                       DC    C'jklmnopqr'
 003B10                03B10 03B18 19754                       ORG   LOWTABLE+C'S'
 003B18 A2A3A4A5A6A7A8A9           19755                       DC    C'stuvwxyz'
 003B20                03B20 03B36 19756                       ORG   LOWTABLE+256
1SPELL    (SPEL2025) (12:55) (15MAR04) SPELL SCANNER ROUTINES                                                               Page  100
0Current Usings:  (SCWA,R6) (CP,R11) (CV,R12)
0Loc    Object Code    Addr1 Addr2  Stmt Lv Lineno    Source Statement           (Hibal 5, Asmedit 3.3)  HLASM R4.0  2004/03/15 12.55
+___    ______ ____    _____ _____  ____ __ ______    ______ _________
0                                  19758                       QLTORG
1SPELL    (SPEL2025) (12:55) (15MAR04) SPELL SCANNER ROUTINES                                                               Page  101
0Current Usings:  (SCWA,R6) (CP,R11) (CV,R12)
0Loc    Object Code    Addr1 Addr2  Stmt Lv Lineno    Source Statement           (Hibal 5, Asmedit 3.3)  HLASM R4.0  2004/03/15 12.55
+___    ______ ____    _____ _____  ____ __ ______    ______ _________
0                                  19784                       ¿þþþþþþþþþþþþþþþþþþþþþþþþþþþþþþþÜ
                                   19785                       Ÿ  SPELL COMMON CONSTANT DATA   Ÿ
                                   19786                       Ÿ                               Ÿ
-                                  19788                       Ÿ                               Ÿ
                                   19789                       Ÿ  LOWER CASE CONVERSION TABLE  Ÿ
                                   19790                       ¾þþþþþþþþþþþþþþþþþþþþþþþþþþþþþþþ»
 003B90                            19791              LOWERTAB LABEL ,                  LOWER CASE TRANSLATE TABLE
 003B90 0001020304050607           19793                       DC    X'000102030405060708090A0B0C0D0E0F'
 003BA0 1011121314151617           19794                       DC    X'101112131415161718191A1B1C1D1E1F'
 003BB0 2021222324252627           19795                       DC    X'202122232425262728292A2B2C2D2E2F'
 003BC0 3031323334353637           19796                       DC    X'303132333435363738393A3B3C3D3E3F'
 003BD0 4041424344454647           19797                       DC    X'404142434445464748494A4B4C4D4E4F'
 003BE0 5051525354555657           19798                       DC    X'505152535455565758595A5B5C5D5E5F'
 003BF0 6061626364656667           19799                       DC    X'606162636465666768696A6B6C6D6E6F'
 003C00 7071727374757677           19800                       DC    X'707172737475767778797A7B7C7D7E7F'
 003C10 8081828384858687           19801                       DC    X'808182838485868788898A8B8C8D8E8F'
 003C20 9091929394959697           19802                       DC    X'909192939495969798999A9B9C9D9E9F'
 003C30 A0A1A2A3A4A5A6A7           19803                       DC    X'A0A1A2A3A4A5A6A7A8A9AAABACADAEAF'
 003C40 B0B1B2B3B4B5B6B7           19804                       DC    X'B0B1B2B3B4B5B6B7B8B9BABBBCBDBEBF'
 003C50 C0C1C2C3C4C5C6C7           19805                       DC    X'C0C1C2C3C4C5C6C7C8C9CACBCCCDCECF'
 003C60 D0D1D2D3D4D5D6D7           19806                       DC    X'D0D1D2D3D4D5D6D7D8D9DADBDCDDDEDF'
 003C70 E0E1E2E3E4E5E6E7           19807                       DC    X'E0E1E2E3E4E5E6E7E8E9EAEBECEDEEEF'
 003C80 F0F1F2F3F4F5F6F7           19808                       DC    X'F0F1F2F3F4F5F6F7F8F9FAFBFCFDFEFF'
 003C90                03C90 03C51 19809                       ORG   LOWERTAB+C'A'
 003C51 8182838485868788           19810                       DC    C'abcdefghi'
 003C5A                03C5A 03C61 19811                       ORG   LOWERTAB+C'J'
 003C61 9192939495969798           19812                       DC    C'jklmnopqr'
 003C6A                03C6A 03C72 19813                       ORG   LOWERTAB+C'S'
 003C72 A2A3A4A5A6A7A8A9           19814                       DC    C'stuvwxyz'
 003C7A                03C7A 03C90 19815                       ORG   LOWERTAB+256
                                   19816              *
                                   19817              *
 003C90 4040404040404040           19818              BLANKS   DC    128C' '
                                   19819                       QLTORG
                                   19831
                                   19832                       VLTORG
 003D10                03D10 03D10 19840                       END   .

1SPELL    (SPEL2025) (12:55) (15MAR04) Relocation Dictionary                                                                Page  102
-   Pos.Id   Rel.Id   Flags    Address                                                       HLASM R4.0  2004/03/15 12.55
0  00000001 00000001    0C    00000CB0
   00000001 00000001    0C    00000CB4
   00000001 00000001    0C    00000CEC
   00000001 00000001    0C    00000D04
   00000001 00000001    0C    00000D08
   00000001 00000001    0C    00000D0C
   00000001 00000001    0C    00000D10
   00000001 00000001    0C    00000D18
   00000001 00000001    0C    00000D1C
   00000001 00000001    0C    00001204
   00000001 00000001    0C    000012F4
   00000001 00000001    0C    00001640
   00000001 00000001    0C    00001648
   00000001 00000001    0C    00001654
   00000001 00000001    0C    0000165C
   00000001 00000001    0C    00001684
   00000001 00000001    0C    00001688
   00000001 00000001    0C    00001690
   00000001 00000001    0C    00001694
   00000001 00000001    0C    00001698
   00000001 00000001    0C    000016A4
   00000001 00000001    0C    000016A8
   00000001 00000001    0C    000018B8
   00000001 00000001    0C    000018BC
   00000001 00000001    0C    00001FA0
   00000001 00000001    0C    00001FD0
   00000001 00000001    0C    00001FE4
   00000001 00000001    0C    00001FE8
   00000001 00000001    0C    00001FEC
   00000001 00000001    0C    00001FF0
   00000001 00000001    0C    00002000
   00000001 00000001    0C    00002058
   00000001 00000001    0C    00002A48
   00000001 00000001    0C    00002A4C
   00000001 00000001    0C    00002A64
   00000001 00000001    0C    00002A70
   00000001 00000001    0C    00002A74
   00000001 00000001    0C    00002A7C
   00000001 00000001    0C    00002A84
   00000001 00000001    0C    00002A88
   00000001 00000001    0C    00002A8C
   00000001 00000001    0C    00002A90
   00000001 00000001    0C    00002A98
   00000001 00000001    0C    00002A9C
   00000001 00000001    0C    00002AA0
   00000001 00000001    0C    00002AA8
   00000001 00000001    0C    00002EF0
   00000001 00000001    0C    00002EF4
   00000001 00000001    0C    00002EF8
   00000001 00000001    0C    00002EFC
   00000001 00000001    0C    00002F00
   00000001 00000001    0C    00002F04
   00000001 00000001    0C    00002F08
   00000001 00000001    0C    000030C0
   00000001 00000001    0C    000030C4
1SPELL    (SPEL2025) (12:55) (15MAR04) Relocation Dictionary                                                                Page  103
   00000001 00000001    0C    000030C8
   00000001 00000001    0C    000030CC
   00000001 00000001    0C    00003B54
   00000001 00000002    1C    00000CB8
   00000001 00000002    1C    00001674
   00000001 00000002    1C    00001FCC
   00000001 00000002    1C    00002A80
   00000001 00000002    1C    00003B4C
   00000001 00000003    1C    00000CBC
   00000001 00000003    1C    0000168C
   00000001 00000003    1C    00001FAC
   00000001 00000003    1C    00002A94
   00000001 00000003    1C    00003B44
   00000001 00000004    1C    00000CC0
   00000001 00000005    1C    00000CC4
   00000001 00000006    1C    00000CC8
   00000001 00000007    1C    00000CCC
   00000001 00000007    1C    00001664
   00000001 00000008    1C    00000CD0
   00000001 00000008    1C    0000163C
   00000001 00000009    1C    00000CE4
   00000001 00000009    1C    00001668
   00000001 0000000A    1C    00000CF0
   00000001 0000000A    1C    00001660
   00000001 0000000B    1C    00000CF4
   00000001 0000000C    1C    00000D20
   00000001 0000000D    1C    000010E8
   00000001 0000000D    1C    00001138
   00000001 0000000D    1C    00001160
   00000001 0000000D    1C    00001228
   00000001 0000000D    1C    00001250
   00000001 0000000E    1C    000010EC
   00000001 0000000F    1C    00001114
   00000001 00000010    1C    0000113C
   00000001 00000010    1C    00001164
   00000001 00000010    1C    0000122C
   00000001 00000010    1C    00001254
   00000001 00000011    1C    0000118C
   00000001 00000011    1C    0000127C
   00000001 00000012    1C    000011B4
   00000001 00000012    1C    000012A4
   00000001 00000013    1C    000011DC
   00000001 00000013    1C    000012CC
   00000001 00000013    1C    00001C80
   00000001 00000013    1C    00002280
   00000001 00000014    1C    00001200
   00000001 00000014    1C    000012F0
   00000001 00000014    1C    00001CA4
   00000001 00000014    1C    000022A4
   00000001 00000015    1C    00001638
   00000001 00000016    1C    00001644
   00000001 00000017    1C    0000164C
   00000001 00000017    1C    00001FA4
   00000001 00000017    1C    00002A68
   00000001 00000018    1C    00001650
   00000001 00000018    1C    00001FA8
   00000001 00000018    1C    00002A6C
   00000001 00000019    1C    00001678
   00000001 0000001A    1C    00001680
1SPELL    (SPEL2025) (12:55) (15MAR04) Relocation Dictionary                                                                Page  104
   00000001 0000001B    1C    0000169C
   00000001 0000001C    1C    000016A0
   00000001 0000001D    1C    00001CA8
   00000001 0000001D    1C    000022A8
   00000001 0000001E    1C    00001FF8
   00000001 0000001E    1C    00002F20
   00000001 0000001F    1C    00001FFC
   00000001 00000020    1C    00002028
   00000001 00000021    1C    0000202C
   00000001 00000022    1C    00002054
   00000001 00000023    1C    0000205C
   00000001 00000024    1C    00002F24
   00000001 00000025    1C    00002F28

1SPELL    (SPEL2025) (12:55) (15MAR04) Ordinary Symbol and Literal Cross Reference                                          Page  105
-Symbol   Length   Value     Id    R Type   Defn References                                  HLASM R4.0  2004/03/15 12.55
0$$$@R0        1 00000000 FFFFFFFE     J     705  1007
 $$$@R10       1 00000000 FFFFFFF4     J     835  1071
 $$$@R11       1 00000000 FFFFFFF3     J     848  1084
 $$$@R12       1 00000000 FFFFFFF2     J     861  1097
 $$$@R13       1 00000000 FFFFFFF1     J     874  1110
 $$$@R14       1 00000000 FFFFFFF0     J     887  1123
 $$$@R7        1 00000000 FFFFFFF7     J     796  1020
 $$$@R8        1 00000000 FFFFFFF6     J     809  1033   1045
 $$$@R9        1 00000000 FFFFFFF5     J     822  1058
 $$$C1WYLSPELL
               1 00000E52 00000001     J    9327  9329   9390  10730  10833  10913  10958
 $$$C10WYLSPELL
               1 00003D10 00000001     J   19843 19845
 $$$C2WYLSPELL
               1 000017B8 00000001     J   11269 11271  11339  11506
 $$$C3WYLSPELL
               1 000018C6 00000001     J   11609 11611  11637  11688  12227  13511
 $$$C4WYLSPELL
               1 0000214C 00000001     J   13687 13689  13747  14108  14319  16343
 $$$C5WYLSPELL
               1 00002BDC 00000001     J   16486 16488  16534  16685  16984  17096  17156  17208  17387
 $$$C6WYLSPELL
               1 00002F4C 00000001     J   17560 17562
 $$$C7WYLSPELL
               1 000030D0 00000001     J   18197 18199  18832  18942  19083  19172  19198  19249  19491
 $$$C8WYLSPELL
               1 00003B90 00000001     J   19778 19780
 $$$C9WYLSPELL
               1 00003D10 00000001     J   19826 19828
 $$$D0WYLSPELL
               1 00000E45 00000001     J     991  7690   8537
 $$$D1WYLSPELL
               1 000017A5 00000001     J    9328 10822  10902  10947
 $$$D2WYLSPELL
               1 000018C0 00000001     J   11270 11495
 $$$D3WYLSPELL
               1 00002140 00000001     J   11610 12216  13500
 $$$D4WYLSPELL
               1 00002BD0 00000001     J   13688 14308  16332
 $$$D5WYLSPELL
               1 00002F2E 00000001     J   16487 16674  17085  17145  17197  17376
 $$$D7WYLSPELL
               1 00003B6B 00000001     J   18198 18931  19072  19161  19187  19238  19480
 $$$RADWA      1 00000000 FFFFFFE5     J   10713 10729  10729
 $$$RCP        1 00000000 FFFFFFEC     J    2501  4761   6235   6235
 $$$RCV        1 00000000 FFFFFFEE     J    1226  2411   2411
 $$$RCXWA      1 00000000 FFFFFFDF     J   16512 16533  16533
 $$$RDEV       1 00000000 FFFFFFEB     J    4715  4760   4760
 $$$RDICTNRY
               1 00000000 FFFFFFE8     J    6712  6762   6762
 $$$RDTWA      1 00000000 FFFFFFE7     J    6770  6800   6800
 $$$RGGWA      1 00000000 FFFFFFE1     J   13709 13746  13746
 $$$RGSWA      1 00000000 FFFFFFE0     J   14065 14107  14107
 $$$RJCB       1 00000000 FFFFFFE9     J    6353  6627   6627
 $$$RLWWA      1 00000000 FFFFFFE3     J   11622 11636  11636
1SPELL    (SPEL2025) (12:55) (15MAR04) Ordinary Symbol and Literal Cross Reference                                          Page  106
 $$$RLXWA      1 00000000 FFFFFFE2     J   11652 11687  11687
 $$$RNDWA      1 00000000 FFFFFFDE     J   16965 16983  16983
 $$$RNSCNCB
               1 00000000 FFFFFFED     J    2422  2495   2495
 $$$RSCWA      1 00000000 FFFFFFDD     J   18798 18831  18831
 $$$RSLWA      1 00000000 FFFFFFE4     J   11300 11338  11338
 $$$RSPWA      1 00000000 FFFFFFE6     J    9341  9389   9389
 $$$RTTYPE
               1 00000000 FFFFFFEA     J    6246  6347   6347
 $$$SEGCB0
               4 00000050 FFFFFFEC     F    2532  2618   2618
 $$$Z1         4 00001634 00000001     F   11228  9860   9900
 $$$Z2         4 000018B0 00000001     F   11605 11466
 $$$Z3         4 00001F44 00000001     F   13649 11765
 $$$Z7         4 00003B38 00000001     F   19764 19510
 $$$100        1 00000050 00000001 A   U    8573  8570   8572
 $$$102B       1 00000650 00000001     X    8606  8613U
 $$$103        1 00000050 00000001 A   U    8655  8652   8654
 $$$105B       1 00000E6C 00000001     X    9435  9442U
 $$$107F       2 00000EBE 00000001     H    9537  9522B
 $$$108B       4 00000EC2 00000001     I    9552  9604
 $$$108F       2 00000F24 00000001     H    9601  9552B  9603
 $$$109E       2 00000F28 00000001     H    9611  9605
 $$$109F       2 00000F80 00000001     H    9653  9607B
 $$$110F       2 00000F90 00000001     H    9688  9668B
 $$$111B       4 00000F94 00000001     I    9701  9736
 $$$111F       2 00000FAE 00000001     H    9730  9701B  9735
 $$$112B       4 00000FB6 00000001     I    9752  9810
 $$$112E       2 00000FB2 00000001     H    9743  9737
 $$$112F       2 00000FE2 00000001     H    9806  9739B  9752B  9809
 $$$115E       2 00000FE6 00000001     H    9817  9811
 $$$115F       2 00000FF4 00000001     H    9829  9813B
 $$$116F       2 0000103A 00000001     H    9932  9843B
 $$$117F       2 00001018 00000001     H    9887  9861B
 $$$118F       2 00001032 00000001     H    9920  9901B
 $$$119B       4 00001042 00000001     I    9951  9980
 $$$119F       2 00001058 00000001     H    9977  9951B  9979
 $$$120E       2 0000105C 00000001     H    9987  9981
 $$$120F       2 000010A8 00000001     H   10071  9983B
 $$$121F       2 000010A0 00000001     H   10062 10045B
 $$$121S       2 00001082 00000001     H   10036 10061B
 $$$123        1 000003DC 00000001 A   U   10112 10109  10111
 $$$125B       1 00001312 00000001     X   10351 10358U
 $$$126        1 00000050 00000001 A   U   10451 10448  10450
 $$$128B       1 00001374 00000001     X   10492 10499U
 $$$129F       2 00001416 00000001     H   10682 10531B
 $$$129S       2 00001398 00000001     H   10528 10681B
 $$$131F       2 00001408 00000001     H   10670 10551B
 $$$132F       2 000013BC 00000001     H   10579 10566B
 $$$133F       2 00001408 00000001     H   10666 10593B
 $$$134F       2 00001408 00000001     H   10662 10610B
 $$$135F       2 000013FE 00000001     H   10653 10633B
 $$$136        1 00000050 00000001 A   U   10703 10700  10702
 $$$138B       1 00001482 00000001     X   10763 10770U
 $$$139F       2 000014B4 00000001     H   10846 10798B
 $$$139S       2 0000148C 00000001     H   10791 10845B
 $$$141F       2 000014AC 00000001     H   10840 10811B
 $$$142        6 000017A6 00000001     I   10828 10820X
 $$$143        6 000017A6 00000001     I   10827 10828  10828
1SPELL    (SPEL2025) (12:55) (15MAR04) Ordinary Symbol and Literal Cross Reference                                          Page  107
 $$$144F       2 00001524 00000001     H   10924 10889B
 $$$144S       2 000014F2 00000001     H   10882 10923B
 $$$146        6 000017AC 00000001     I   10908 10900X
 $$$147        6 000017AC 00000001     I   10907 10908  10908
 $$$148        6 000017B2 00000001     I   10953 10945X
 $$$149        6 000017B2 00000001     I   10952 10953  10953
 $$$150F       2 000015C6 00000001     H   11057 11040B
 $$$150S       2 000015A8 00000001     H   11031 11056B
 $$$152        1 00000050 00000001 A   U   11127 11124  11126
 $$$154B       1 00001624 00000001     X   11175 11182U
 $$$155        1 00000050 00000001 A   U   11211 11208  11210
 $$$157B       1 000017D2 00000001     X   11371 11378U
 $$$158F       2 0000185E 00000001     H   11568 11426B
 $$$158S       2 000017F8 00000001     H   11423 11567B
 $$$160F       2 00001850 00000001     H   11558 11446B
 $$$161F       2 0000183A 00000001     H   11515 11467B
 $$$162F       2 0000183A 00000001     H   11511 11484B
 $$$163        6 000018C0 00000001     I   11501 11493X
 $$$164        6 000018C0 00000001     I   11500 11501  11501
 $$$165F       2 00001850 00000001     H   11554 11530B 11545B
 $$$167        1 000000B4 00000001 A   U   11593 11590  11592
 $$$169B       1 000018E0 00000001     X   11720 11727U
 $$$170F       2 000018FC 00000001     H   11781 11766B
 $$$171F       2 00001932 00000001     H   11825 11809B
 $$$172F       2 000019C8 00000001     H   11964 11837B
 $$$173F       2 000019C8 00000001     H   11960 11907B
 $$$174F       2 000019EA 00000001     H   12000 11987B
 $$$175F       2 000019FE 00000001     H   12026 12013B
 $$$176        1 000000A8 00000001 A   U   12053 12050  12052
 $$$178B       1 00001A2A 00000001     X   12095 12102U
 $$$179F       2 00001A40 00000001     H   12161 12148B
 $$$179T       2 00001A3A 00000001     H   12151 12136B
 $$$181F       2 00001A52 00000001     H   12182 12172B
 $$$182F       2 00001A64 00000001     H   12203 12193B
 $$$183        6 00002140 00000001     I   12222 12214X
 $$$184        6 00002140 00000001     I   12221 12222  12222
 $$$185F       2 00001A9A 00000001     H   12265 12255B
 $$$186F       2 00001AB4 00000001     H   12294 12284B
 $$$187F       2 00001AD6 00000001     H   12329 12314B
 $$$188F       2 00001AE2 00000001     H   12357 12343B
 $$$189        1 00000094 00000001 A   U   12393 12390  12392
 $$$191B       1 00001B0C 00000001     X   12433 12440U
 $$$192F       2 00001B82 00000001     H   12532 12505B
 $$$193F       2 00001BFC 00000001     H   12688 12591B
 $$$193S       2 00001BB8 00000001     H   12585 12687B
 $$$195F       2 00001BF8 00000001     H   12683 12616B
 $$$196F       2 00001C48 00000001     H   12810 12713B
 $$$196S       2 00001C04 00000001     H   12707 12809B
 $$$198F       2 00001C44 00000001     H   12805 12738B
 $$$199        1 00000094 00000001 A   U   12839 12836  12838
 $$$201B       1 00001CC6 00000001     X   12908 12915U
 $$$202F       2 00001D40 00000001     H   13022 12969B
 $$$203        1 00000050 00000001 A   U   13060 13057  13059
 $$$205B       1 00001D8C 00000001     X   13100 13107U
 $$$206F       2 00001DC8 00000001     H   13174 13159B
 $$$207F       2 00001E5E 00000001     H   13313 13186B
 $$$208F       2 00001E5E 00000001     H   13309 13256B
 $$$209        1 000000A8 00000001 A   U   13350 13347  13349
 $$$211B       1 00001E98 00000001     X   13389 13396U
1SPELL    (SPEL2025) (12:55) (15MAR04) Ordinary Symbol and Literal Cross Reference                                          Page  108
 $$$214F       2 00001EC8 00000001     H   13487 13460B
 $$$215        6 00002146 00000001     I   13506 13498X
 $$$216        6 00002146 00000001     I   13505 13506  13506
 $$$217F       2 00001EFA 00000001     H   13543 13533B
 $$$218F       2 00001F14 00000001     H   13572 13562B
 $$$219F       2 00001F30 00000001     H   13610 13596B
 $$$220        1 00000094 00000001 A   U   13639 13636  13638
 $$$222B       1 00002166 00000001     X   13779 13786U
 $$$223F       2 00002186 00000001     H   13837 13822B
 $$$224F       2 000021BC 00000001     H   13879 13864B
 $$$225F       2 00002230 00000001     H   13956 13891B
 $$$226        1 000000AC 00000001 A   U   13997 13994  13996
 $$$228B       1 000022C6 00000001     X   14143 14150U
 $$$229B       4 000022E2 00000001     I   14205 14222
 $$$229F       2 000022EA 00000001     H   14219 14205B 14221
 $$$230E       2 000022EE 00000001     H   14229 14223
 $$$230F       2 00002302 00000001     H   14239 14225B
 $$$231F       2 00002366 00000001     H   14324 14300B
 $$$232        6 00002BD0 00000001     I   14314 14306X
 $$$233        6 00002BD0 00000001     I   14313 14314  14314
 $$$234F       2 00002396 00000001     H   14389 14342B 14357B
 $$$236F       2 000023C2 00000001     H   14432 14423B
 $$$236T       2 000023BE 00000001     H   14426 14415B
 $$$238F       2 000023EE 00000001     H   14483 14452B
 $$$238S       2 000023CE 00000001     H   14445 14482B
 $$$240F       2 000023E6 00000001     H   14477 14464B
 $$$241F       2 00002410 00000001     H   14528 14497B
 $$$241S       2 000023F0 00000001     H   14490 14527B
 $$$243F       2 00002408 00000001     H   14522 14509B
 $$$244F       2 00002446 00000001     H   14606 14554B
 $$$245F       2 00002468 00000001     H   14649 14623B
 $$$246F       2 0000248A 00000001     H   14692 14666B
 $$$247F       2 000024BE 00000001     H   14753 14709B
 $$$248        1 000001BC 00000001 A   U   14795 14792  14794
 $$$250B       1 00002508 00000001     X   14838 14845U
 $$$251F       2 0000252E 00000001     H   14878 14868B
 $$$252F       2 0000253E 00000001     H   14896 14886B
 $$$254F       2 000025AE 00000001     H   14978 14949B
 $$$254S       2 0000258A 00000001     H   14942 14977B
 $$$256F       2 000025A2 00000001     H   14971 14961B
 $$$257        1 00000050 00000001 A   U   15019 15016  15018
 $$$259B       1 000025F0 00000001     X   15068 15075U
 $$$260F       2 00002616 00000001     H   15108 15098B
 $$$261F       2 00002626 00000001     H   15126 15116B
 $$$262F       2 0000263A 00000001     H   15144 15134B
 $$$263F       2 0000264A 00000001     H   15162 15152B
 $$$264S       2 00002666 00000001     H   15186 15446B
 $$$265F       2 000026AA 00000001     H   15265 15256B
 $$$265S       2 00002690 00000001     H   15225 15264B
 $$$266F       2 000026A2 00000001     H   15245 15236B
 $$$269F       2 000026DC 00000001     H   15317 15308B
 $$$269S       2 000026BE 00000001     H   15277 15316B
 $$$270F       2 000026D4 00000001     H   15297 15288B
 $$$273S       2 000026F4 00000001     H   15335 15429B
 $$$274F       2 00002718 00000001     H   15384 15375B
 $$$274S       2 000026FA 00000001     H   15344 15383B
 $$$275F       2 00002710 00000001     H   15364 15355B
 $$$278B       4 00002728 00000001     I   15396 15409
 $$$278F       2 00002730 00000001     H   15406 15396B 15408
1SPELL    (SPEL2025) (12:55) (15MAR04) Ordinary Symbol and Literal Cross Reference                                          Page  109
 $$$279E       2 00002734 00000001     H   15416 15410
 $$$279F       2 0000273E 00000001     H   15425 15412B
 $$$280        1 00000050 00000001 A   U   15474 15471  15473
 $$$282B       1 00002788 00000001     X   15538 15545U
 $$$283F       2 000028E8 00000001     H   15954 15945B
 $$$283S       2 000027C0 00000001     H   15583 15953B
 $$$284F       2 000028DA 00000001     H   15930 15612B 15624B
 $$$286F       2 00002830 00000001     H   15714 15642B
 $$$287F       2 00002810 00000001     H   15677 15668B
 $$$287S       2 000027FA 00000001     H   15653 15676B
 $$$290F       2 0000282A 00000001     H   15708 15699B
 $$$290S       2 00002818 00000001     H   15684 15707B
 $$$293F       2 00002874 00000001     H   15800 15728B
 $$$294F       2 00002854 00000001     H   15763 15754B
 $$$294S       2 0000283E 00000001     H   15739 15762B
 $$$297F       2 0000286E 00000001     H   15794 15785B
 $$$297S       2 0000285C 00000001     H   15770 15793B
 $$$300F       2 000028DA 00000001     H   15924 15816B
 $$$301F       2 0000289A 00000001     H   15851 15842B
 $$$301S       2 00002884 00000001     H   15827 15850B
 $$$304F       2 000028B4 00000001     H   15882 15873B
 $$$304S       2 000028A2 00000001     H   15858 15881B
 $$$307F       2 000028DA 00000001     H   15920 15893B
 $$$308F       2 000028DA 00000001     H   15916 15906B
 $$$311F       2 0000293A 00000001     H   16019 15983B
 $$$312F       2 0000293A 00000001     H   16015 15995B
 $$$313        1 00000050 00000001 A   U   16043 16040  16042
 $$$315B       1 0000296A 00000001     X   16082 16089U
 $$$316F       2 000029D6 00000001     H   16265 16111B
 $$$317B       4 00002976 00000001     I   16128 16193
 $$$317F       2 000029AE 00000001     H   16190 16128B 16192
 $$$318F       2 000029A8 00000001     H   16182 16143B
 $$$319E       2 000029B2 00000001     H   16200 16194
 $$$319F       2 000029D6 00000001     H   16261 16196B
 $$$320B       4 000029B6 00000001     I   16212 16241
 $$$320F       2 000029CC 00000001     H   16238 16212B 16240
 $$$321E       2 000029D0 00000001     H   16248 16242
 $$$321F       2 000029D6 00000001     H   16257 16244B
 $$$322F       2 00002A38 00000001     H   16423 16279B
 $$$323B       4 000029E2 00000001     I   16296 16358
 $$$323F       2 00002A16 00000001     H   16355 16296B 16357
 $$$324F       2 00002A16 00000001     H   16351 16320B
 $$$325        6 00002BD6 00000001     I   16338 16330X
 $$$326        6 00002BD6 00000001     I   16337 16338  16338
 $$$327E       2 00002A1A 00000001     H   16365 16359
 $$$327F       2 00002A38 00000001     H   16419 16361B
 $$$328F       2 00002A2A 00000001     H   16391 16381B
 $$$329F       2 00002A38 00000001     H   16415 16405B
 $$$330        1 00000050 00000001 A   U   16441 16438  16440
 $$$332B       1 00002BF6 00000001     X   16569 16576U
 $$$333F       2 00002C10 00000001     H   16625 16615B
 $$$334F       2 00002C48 00000001     H   16690 16666B
 $$$335        6 00002F2E 00000001     I   16680 16672X
 $$$336        6 00002F2E 00000001     I   16679 16680  16680
 $$$337S       2 00002C64 00000001     H   16707 16722B
 $$$338        1 000000E8 00000001 A   U   16777 16774  16776
 $$$340B       1 00002CDE 00000001     X   16815 16822U
 $$$341F       2 00002D10 00000001     H   16894 16850B
 $$$341S       2 00002CEC 00000001     H   16841 16893B
1SPELL    (SPEL2025) (12:55) (15MAR04) Ordinary Symbol and Literal Cross Reference                                          Page  110
 $$$343B       4 00002CFE 00000001     I   16863 16875
 $$$343F       2 00002D04 00000001     H   16872 16863B 16874
 $$$344E       2 00002D08 00000001     H   16882 16876
 $$$344F       2 00002D0A 00000001     H   16888 16878B
 $$$345F       2 00002D1E 00000001     H   16913 16903B
 $$$346        1 00000050 00000001 A   U   16938 16935  16937
 $$$348B       1 00002D56 00000001     X   17011 17018U
 $$$349F       2 00002D96 00000001     H   17077 17062B
 $$$349S       2 00002D7A 00000001     H   17059 17076B
 $$$351        6 00002F34 00000001     I   17091 17083X
 $$$352        6 00002F34 00000001     I   17090 17091  17091
 $$$353F       2 00002DE2 00000001     H   17168 17120B 17134B
 $$$353S       2 00002DB2 00000001     H   17109 17167B
 $$$356        6 00002F3A 00000001     I   17151 17143X
 $$$357        6 00002F3A 00000001     I   17150 17151  17151
 $$$358F       2 00002E06 00000001     H   17213 17186B
 $$$359        6 00002F40 00000001     I   17203 17195X
 $$$360        6 00002F40 00000001     I   17202 17203  17203
 $$$361        1 00000050 00000001 A   U   17241 17238  17240
 $$$363B       1 00002E3C 00000001     X   17287 17294U
 $$$367        6 00002F46 00000001     I   17382 17374X
 $$$368        6 00002F46 00000001     I   17381 17382  17382
 $$$369F       2 00002E86 00000001     H   17419 17409B
 $$$370F       2 00002EA0 00000001     H   17448 17438B
 $$$372        1 00000094 00000001 A   U   17533 17530  17532
 $$$374B       1 00002F66 00000001     X   17608 17615U
 $$$375F       2 00002FAA 00000001     H   17731 17713B 17722B
 $$$375S       2 00002F7C 00000001     H   17646 17730B
 $$$376F       2 00002F90 00000001     H   17672 17662B
 $$$377F       2 00002F9A 00000001     H   17694 17684B
 $$$381F       2 00002FCC 00000001     H   17782 17764B 17773B
 $$$381S       2 00002FB0 00000001     H   17741 17781B
 $$$386F       2 00003008 00000001     H   17895 17877B 17886B
 $$$386S       2 00002FDA 00000001     H   17810 17894B
 $$$387F       2 00002FEE 00000001     H   17836 17826B
 $$$388F       2 00002FF8 00000001     H   17858 17848B
 $$$392F       2 00003044 00000001     H   17992 17974B 17983B
 $$$392S       2 00003014 00000001     H   17907 17991B
 $$$393F       2 0000302A 00000001     H   17933 17923B
 $$$394F       2 00003034 00000001     H   17955 17945B
 $$$398F       2 0000304C 00000001     H   18013 18003B
 $$$399F       2 00003086 00000001     H   18108 18090B 18099B
 $$$399S       2 00003054 00000001     H   18023 18107B
 $$$400F       2 0000306A 00000001     H   18049 18039B
 $$$401F       2 00003076 00000001     H   18071 18061B
 $$$407        1 00000050 00000001 A   U   18181 18178  18180
 $$$409B       1 000030EA 00000001     X   18243 18250U
 $$$410B       4 000030EE 00000001     I   18271 18378
 $$$410F       2 0000313A 00000001     H   18375 18271B 18377
 $$$411F       2 0000313A 00000001     H   18371 18338B
 $$$412E       2 0000313E 00000001     H   18385 18379
 $$$412F       2 0000315E 00000001     H   18452 18381B
 $$$413F       2 0000315E 00000001     H   18448 18401B 18416B
 $$$415        1 00000050 00000001 A   U   18470 18467  18469
 $$$417B       1 00003186 00000001     X   18520 18527U
 $$$418F       2 0000319E 00000001     H   18576 18549B
 $$$419        1 00000050 00000001 A   U   18597 18594  18596
 $$$421B       1 000031CC 00000001     X   18648 18655U
 $$$422F       2 00003208 00000001     H   18732 18697B 18709B
1SPELL    (SPEL2025) (12:55) (15MAR04) Ordinary Symbol and Literal Cross Reference                                          Page  111
 $$$424        1 00000050 00000001 A   U   18754 18751  18753
 $$$426B       1 00003234 00000001     X   18861 18868U
 $$$427F       2 0000326A 00000001     H   18924 18914B
 $$$428        6 00003B6C 00000001     I   18937 18929X
 $$$429        6 00003B6C 00000001     I   18936 18937  18937
 $$$43B        1 00000032 00000001     X    6837  6844U
 $$$431F       2 000032BA 00000001     H   19035 18969B
 $$$432F       2 000032B0 00000001     H   19012 18985B 18999B
 $$$432S       2 00003294 00000001     H   18980 19011B
 $$$435F       2 000032BA 00000001     H   19031 19022B
 $$$436F       2 000032D8 00000001     H   19065 19055B
 $$$437        6 00003B72 00000001     I   19078 19070X
 $$$438        6 00003B72 00000001     I   19077 19078  19078
 $$$439F       2 000032E6 00000001     H   19100 19091B
 $$$44F        2 0000009A 00000001     H    6989  6898B
 $$$440F       2 000032FE 00000001     H   19124 19111B
 $$$440S       2 000032EA 00000001     H   19108 19123B
 $$$442F       2 00003314 00000001     H   19153 19143B
 $$$443        6 00003B78 00000001     I   19167 19159X
 $$$444        6 00003B78 00000001     I   19166 19167  19167
 $$$445        6 00003B7E 00000001     I   19193 19185X
 $$$446        6 00003B7E 00000001     I   19192 19193  19193
 $$$447F       2 00003344 00000001     H   19234 19206B
 $$$448F       2 00003344 00000001     H   19230 19221B
 $$$449        6 00003B84 00000001     I   19244 19236X
 $$$45F        2 00000084 00000001     H    6964  6917B  6932B
 $$$450        6 00003B84 00000001     I   19243 19244  19244
 $$$451F       2 00003358 00000001     H   19285 19257B
 $$$452F       2 00003358 00000001     H   19281 19272B
 $$$453        1 00000050 00000001 A   U   19314 19311  19313
 $$$455B       1 0000338E 00000001     X   19354 19361U
 $$$456S       2 000033AE 00000001     H   19383 19409B
 $$$457F       2 000033C0 00000001     H   19403 19394B
 $$$458S       2 000033D2 00000001     H   19419 19433B
 $$$459F       2 00003418 00000001     H   19496 19446B
 $$$460F       2 00003412 00000001     H   19473 19463B
 $$$461        6 00003B8A 00000001     I   19486 19478X
 $$$462        6 00003B8A 00000001     I   19485 19486  19486
 $$$463F       2 00003428 00000001     H   19521 19511B
 $$$464        1 00000050 00000001 A   U   19539 19536  19538
 $$$50F        2 00000172 00000001     H    7187  7140B  7155B
 $$$52F        2 000001B6 00000001     H    7257  7230B
 $$$53F        2 00000224 00000001     H    7317  7306B
 $$$53S        2 00000210 00000001     H    7299  7316B
 $$$55F        2 00000276 00000001     H    7413  7354B
 $$$56F        2 00000276 00000001     H    7409  7387B
 $$$57         1 00000140 00000001 A   U    7466  7463   7465
 $$$59B        1 000002D2 00000001     X    7507  7514U
 $$$60F        2 00000300 00000001     H    7570  7551B
 $$$61         1 00000050 00000001 A   U    7588  7585   7587
 $$$63B        1 00000328 00000001     X    7629  7636U
 $$$64F        2 00000344 00000001     H    7668  7659B
 $$$65F        2 00000350 00000001     H    7706  7682B
 $$$66         6 00000E46 00000001     I    7696  7688X
 $$$67         6 00000E46 00000001     I    7695  7696   7696
 $$$68         1 00000050 00000001 A   U    7727  7724   7726
 $$$70B        1 00000386 00000001     X    7776  7783U
 $$$72F        2 000003F4 00000001     H    7915  7839B
 $$$72S        2 000003C2 00000001     H    7832  7914B
1SPELL    (SPEL2025) (12:55) (15MAR04) Ordinary Symbol and Literal Cross Reference                                          Page  112
 $$$74F        2 000003D4 00000001     H    7865  7855B
 $$$75F        2 000003E0 00000001     H    7887  7877B
 $$$76F        2 000003EC 00000001     H    7909  7899B
 $$$78         1 00000050 00000001 A   U    8072  8069   8071
 $$$80B        1 00000498 00000001     X    8118  8125U
 $$$81F        2 0000057C 00000001     H    8360  8147B
 $$$82F        2 000004B8 00000001     H    8175  8164B
 $$$82S        2 000004A6 00000001     H    8159  8174B
 $$$84F        2 00000522 00000001     H    8267  8186B
 $$$85F        2 000004FA 00000001     H    8235  8209B
 $$$86F        2 0000050C 00000001     H    8258  8247B
 $$$86S        2 000004FA 00000001     H    8242  8257B
 $$$88F        2 0000057C 00000001     H    8356  8283B
 $$$89F        2 0000057C 00000001     H    8352  8295B
 $$$90F        2 0000056A 00000001     H    8344  8318B
 $$$91         1 00000050 00000001 A   U    8378  8375   8377
 $$$93B        1 000005A4 00000001     X    8414  8421U
 $$$94F        2 000005D6 00000001     H    8459  8447B
 $$$94S        2 000005BC 00000001     H    8442  8458B
 $$$96F        2 00000618 00000001     H    8515  8485B
 $$$97F        2 00000624 00000001     H    8553  8529B
 $$$98         6 00000E4C 00000001     I    8543  8535X
 $$$99         6 00000E4C 00000001     I    8542  8543   8543
 @RAR          0 00000000 FFFFFFF0     @    1124  2209   2217B
 @R0           0 00000000 FFFFFFFE     @     706   982U
 @R1           0 00000000 FFFFFFFD     @     719   978U  2215   2216   7329U  7398U  8542  14265U 14313  16645U 16679
                                                 18571U 18721U
 @R10          0 00000000 FFFFFFF4     @     836   942U
 @R11          0 00000000 FFFFFFF3     @     849   938U
 @R12          0 00000000 FFFFFFF2     @     862   934U
 @R13          0 00000000 FFFFFFF1     @     875   930U
 @R14          0 00000000 FFFFFFF0     @     888   926U
 @R15          0 00000000 FFFFFFEF     @     901   922U
 @R2           0 00000000 FFFFFFFC     @     732   974U  7695   7854   7876   7898   8446   8542M 11135U
 @R3           0 00000000 FFFFFFFB     @     745   970U  8446
 @R4           0 00000000 FFFFFFFA     @     758   966U 11500M 17661  17683  17825  17847
 @R5           0 00000000 FFFFFFF9     @     771   962U 17922  17944  18038  18060
 @R6           0 00000000 FFFFFFF8     @     784   958U  7474U  8663U 11141U 17035U 18885U
 @R7           0 00000000 FFFFFFF7     @     797   954U  7455U  7577U  7716U  8061U  8367U  8562U  8644U 10101U 10440U
                                                 10692U 11116U 11200U 11582U 12042U 12382U 12828U 13049U 13339U 13628U
                                                 13986U 14784U 15008U 15463U 16032U 16430U 16766U 16927U 17230U 17522U
                                                 18170U 18459U 18586U 18743U 19303U 19528U
 @R8           0 00000000 FFFFFFF6     @     810   950U  7450U 10096U 11577U 12037U 12377U 12823U 13334U 13623U 13981U
                                                 14779U 16761U 17517U
 @R9           0 00000000 FFFFFFF5     @     823   946U
 ABSCENT       1 00000000 00000000 A   T    2225  2225
 ADBLANKS      1 00000080 FFFFFFE5     C   10721 10871M 10895
 ADDEXIT       2 000015FC 00000001     H   11109 10836B 10976B
 ADDNDX        2 0000047E 00000001     H    8099  9313
 ADDOVERF      2 0000157E 00000001     H   10982 10855B
 ADDTOKEN      2 0000058A 00000001     H    8395  9314
 ADDUN         2 00001468 00000001     H   10744 11254
 ADENTRY       1 00000040 FFFFFFE5     C   10720 10895M 10907M 10916M 10917
 ADSPACE       1 000000C0 FFFFFFE5     C   10722 10935  10964
 ADWA        992 00000000 FFFFFFE5     J   10729 10860  10868U 11262
 ADWORD        1 00000000 FFFFFFE5     C   10719 10872M 10874M 10917
 ALPHAERR      2 00000458 00000001     H    8027  7822B
 ALPHATBL      2 00003436 00000001     H   19559 18194  18936  19561  19563  19565  19567  19569  19571  19573
 ASCTBL        1 00000000 00000000 A   T    2233  2233
1SPELL    (SPEL2025) (12:55) (15MAR04) Ordinary Symbol and Literal Cross Reference                                          Page  113
 BADQUERY      2 00002492 00000001     H   14698 14428B
 BLANKERR      2 00000410 00000001     H    7952  7798B
 BLANKS        1 00003C90 00000001     C   19818  9290  11257  13666  17545  19771
 BLTBL         1 00000000 00000000 A   T    2235  2235
 BR            7 00000007 00000001 A   #    1014  6832M  7502M  7624M  7771M  8113M  8409M  8601M  9430M 10346M 10487M
                                                 10758M 11170M 11366M 11715M 12090M 12428M 12903M 13095M 13384M 13774M
                                                 14138M 14833M 15063M 15533M 16077M 16564M 16810M 17006M 17282M 17603M
                                                 18238M 18515M 18643M 18856M 19349M
 CHECKIOB      1 00000000 00000000 A   T    2281  2281
 CHECKLRN      2 00002E22 00000001     H   17266 13664  17262  17549
 CHECKWD       2 00002BDC 00000001     H   16548 11253  11608  13665  16463  16544
 CHKEXIT       2 00000470 00000001     H    8054  7941B  7949B
 CHKLEXIT      2 00002EC8 00000001     H   17494 17484B 17489B
 CHKTOKEN      2 0000036C 00000001     H    7757  9312
 CLRLRN        2 00001CAC 00000001     H   12889 12885
 COLLPSH       1 00000000 00000013     T   10220 10220  10311  12858  14015
 COMMAND       1 00000000 00000000 A   T    2221  2221
 COMMSEG       1 00000000 00000000 A   T    2222  2222
 CORRECT       2 0000241A 00000001     H   14543 14401B
 CP         4096 00000000 FFFFFFEC     J    6235  1210U
 CP#LRN        1 00000005 FFFFFFEC A   U    3976 12266  12556  12562  13024  13030  13544  17420
 CP#XSTK       1 00000010 FFFFFFEC A   U    3967  3968
 CPACFLG       1 000005D5 FFFFFFEC     R    4070  4074   4079   4084   4089   4094
 CPACFLN       4 000005C4 FFFFFFEC     F    4062  4097   4097
 CPAFLAG       1 000005C3 FFFFFFEC     R    4034  4038   4043   4048   4053
 CPANAME       8 00000588 FFFFFFEC     C    4016  4112   4112
 CPAUTFLG      1 000008A9 FFFFFFEC     R    4380  4384   4389   4394   4399
 CPCHFLAG      1 00000B68 FFFFFFEC     R    5007  5011
 CPCMNM        3 00000D24 FFFFFFEC     C    5333  6897
 CPCWA         4 00000CA4 FFFFFFEC     F    5259  6870M  7523   9473M 10508
 CPDFLG        1 0000084C FFFFFFEC     R    4267  4271   4276   4281   4286   4291
 CPDFLG2       1 0000084D FFFFFFEC     R    4296  4300   4305   4310   4315   4320   4325
 CPERRID       8 00000886 FFFFFFEC     C    4366  8632M
 CPEXFLG       1 00000758 FFFFFFEC     R    4136  4140
 CPEXFLG2      1 00000759 FFFFFFEC     R    4146  4155   4165
 CPEXFLG3      1 0000075A FFFFFFEC     R    4172  4176   4181
 CPEXTFLG      1 00000E28 FFFFFFEC     R    5818  5822   5827   5832   5837   5842   5847
 CPFABORT    128 00000D5A FFFFFFEC         5584  2185M  2185   2190M  2190
 CPFALL        1 00000010 FFFFFFEC A   U    5350  7052   9501
 CPFERROR     64 00000D5A FFFFFFEC         5589  2184M  2184   2189M  2189
 CPFLEARN    128 0000047F FFFFFFEC         3868 12241M 12504  13041M 17321
 CPFNTEX       1 00000040 FFFFFFEC A   U    5436  5437
 CPFRDEXE      2 00000D89 FFFFFFEC         5762  9700
 CPFRDEXT      3 00000D89 FFFFFFEC         5772  7060M  9551   9751
 CPFRDRNG      1 00000D88 FFFFFFEC     R    5704  5708   5713   5718   5723   5728   5733   5738
 CPFRDSRC      1 00000D89 FFFFFFEC     R    5743  5752   5762   5772
 CPFUNUM       1 00000080 FFFFFFEC A   U    5435  5437
 CPFXDFLG      1 000007E4 FFFFFFEC     R    4214  4218   4223
 CPGFLG1       1 00000474 FFFFFFEC     R    3577  3581   3586   3591   3596   3601   3931   3931
 CPGFLG10      1 0000047D FFFFFFEC     R    3814  3818   3823   3828   3833   3838   3843
 CPGFLG11      1 0000047E FFFFFFEC     R    3849  3853   3858
 CPGFLG12      1 0000047F FFFFFFEC     R    3864  3868   3873   3878
 CPGFLG13      1 00000480 FFFFFFEC     R    3884  3888
 CPGFLG14      1 00000481 FFFFFFEC     R    3894  3898   3903   3908   3913   3918
 CPGFLG4       1 00000477 FFFFFFEC     R    3630  3641   3650   3659   3668   3677
 CPGFLG5       1 00000478 FFFFFFEC     R    3683  3687   3692   3697   3702   3707   3712   3717   3722
 CPGFLG6       1 00000479 FFFFFFEC     R    3728  3732   3737   3742
 CPGFLG7       1 0000047A FFFFFFEC     R    3748  3752   3757   3762   3767
 CPGFLG8       1 0000047B FFFFFFEC     R    3773  3777   3782   3787   3792
1SPELL    (SPEL2025) (12:55) (15MAR04) Ordinary Symbol and Literal Cross Reference                                          Page  114
 CPGFLG9       1 0000047C FFFFFFEC     R    3798  3802   3808
 CPINIT        1 00000174 FFFFFFEC     U    2747  6204
 CPJESFLG      1 000009E1 FFFFFFEC     R    4479  4483   4488   4493   4498   4503   4508   4513   4518
 CPJESFLY      1 000009FD FFFFFFEC     R    4529  4533   4538   4543
 CPJESHFL      1 000009E0 FFFFFFEC     R    4464  4468   4473   4552   4552
 CPLCNO        4 0000073C FFFFFFEC     F    4121 10511
 CPLFLG1       1 00000D50 FFFFFFEC     R    5347  7054M  9503M
 CPLFLG10      1 00000D59 FFFFFFEC     R    5570  5574
 CPLFLG11      1 00000D5A FFFFFFEC     R    5580  5584   5589   5594   5599
 CPLFLG12      1 00000D5B FFFFFFEC     R    5605  5609
 CPLFLG14      1 00000D5C FFFFFFEC     R    5615  5619   5624   5629   5634   5639
 CPLFLG6       1 00000D55 FFFFFFEC     R    5445  5449   5454   5459   5464   5469   5474
 CPLFLG7       1 00000D56 FFFFFFEC     R    5480  5484   5489   5494   5499   5504
 CPLFLG8       1 00000D57 FFFFFFEC     R    5510  5514   5519   5524   5529
 CPLFLG9       1 00000D58 FFFFFFEC     R    5535  5539   5544   5549   5554   5559   5564
 CPLFSPEL    128 00000D59 FFFFFFEC         5574  9684M  9719M  9770M  9927M 10644M
 CPLOCALZ      1 00000C48 FFFFFFEC     U    5037  6198   6198
 CPMFLG        1 0000084F FFFFFFEC     R    4334  4338
 CPMODFLG      1 00000C78 FFFFFFEC     R    5065  5069   5074   5079   5084   5089
 CPNAMELN      1 00000010 FFFFFFEC A   U    3960  4207
 CPNEDPFX     10 00000E29 FFFFFFEC     X    5851  5852   5853
 CPNSCANP      4 0000008C FFFFFFEC     A    2620  7028   9563   9570   9586   9615   9622   9638  11787  11855  11864
                                                 11871  11886  12460  12467  12483  12926  12933  12948  13137  13204
                                                 13213  13220  13235  13842  13909  13918  13925  13941
 CPNUMFLG      1 00000C79 FFFFFFEC     R    5095  5107
 CPORVCMD      1 00000140 FFFFFFEC     R    2629  2633   2638   2643   2648   2653   2658   2663   2668   2673   2673
                                                  2724   2724
 CPORVFLG      1 00000149 FFFFFFEC     R    2680  2684   2689   2694   2699   2704   2709   2714   2719
 CPORVWF       1 00000150 FFFFFFEC     R    2732  2736
 CPOSCANX      4 00000CA8 FFFFFFEC     F    5264  5331   5331
 CPR          11 0000000B 00000001 A   #    1078  1210U
 CPRACBAD     16 000001FC FFFFFFEC         2798  2832   2832   2833   2833
 CPRACF1       1 000001FC FFFFFFEC     R    2779  2783   2788   2793   2798   2803   2808   2813   2818   2834
 CPRACPSW     32 000001FC FFFFFFEC         2793  2831   2831   2833   2833
 CPRACUND     64 000001FC FFFFFFEC         2788  2831   2831   2832   2832
 CPRCVCUR      4 00000730 FFFFFFEC     A    4115  4117   4117
 CPRFDICT      4 000008AA FFFFFFEC         4434 10088M
 CPRFLG        1 000008AA FFFFFFEC     R    4405  4409   4414   4419   4424   4429   4434
 CPRG16       32 00000524 FFFFFFEC     X    3954 12242  12271  12555  12596  13029  13520  13549  17396  17425
 CPRG16NL      1 00000010 FFFFFFEC A   U    3958 12638
 CPRG64       32 00000544 FFFFFFEC     X    3957 12261  12290  12561  12718  13023  13539  13568  17415  17444
 CPS         254 00000344 FFFFFFEC     X    3549  3552   3553   3555   3555
 CPSACCT       5 000003B4 FFFFFFEC     C    3148  3311   3311
 CPSAMCOD      1 00000A22 FFFFFFEC     R    4601  4609   4619   4629   4638   4647   4656   4666   4675   4684
 CPSAMFLG      1 00000A21 FFFFFFEC     R    4561  4565   4570   4575   4580   4585   4590   4595   4706   4706
 CPSCNFLG      1 00000CD0 FFFFFFEC     R    5277  5288   5297   5308
 CPSCNF2       1 00000CD1 FFFFFFEC     R    5313  5317
 CPSCNMAX      1 00000014 FFFFFFEC A   U    5329  5330
 CPSCRI        2 00000434 FFFFFFEC     H    3538  3543   3543
 CPSEG        60 00000050 FFFFFFEC     X    2618  6956   6978   7179   7248   7966   7991   8016   8041   8227   8336
                                                  8503   9879   9969  10006  10024  10386  10404  10422  11001  11019
                                                 11076  11094  11931  11949  12523  12548  12646  12671  12768  12793
                                                 12993  13011  13280  13298  13478  14381  14580  14598  14641  14684
                                                 14727  14745  16164  16230  18292  18319  18363  18440
 CPSEGCOD      1 00000050 FFFFFFEC     R    2535  2544   2554   2564   2574   2584   2594   2604
 CPSEGLENF
               4 0000005C FFFFFFEC     A    2610  6916M  6916   6931   7139M  7139   7154  14341M 14341  14356  18324
                                                 18400M 18400  18415
 CPSEGMRKF
1SPELL    (SPEL2025) (12:55) (15MAR04) Ordinary Symbol and Literal Cross Reference                                          Page  115
               4 00000058 FFFFFFEC     A    2609  6931   7154  14356  18325  18415
 CPSFL         1 00000384 FFFFFFEC     R    2886  2890   2895   2900   2905   2910
 CPSFLG        1 000003F8 FFFFFFEC     R    3426  3430   3435   3440   3445   3450   3455   3460   3465
 CPSFLG2       1 000003F9 FFFFFFEC     R    3471  3475   3480   3485
 CPSFL2        1 00000385 FFFFFFEC     R    2916  2920   2925   2930   2935
 CPSFL3        1 00000386 FFFFFFEC     R    2941  2945   2950   2955
 CPSFL4        1 00000387 FFFFFFEC     R    2961  2965   2970   2975
 CPSFL5        1 00000388 FFFFFFEC     R    2981  2985   2990   2995
 CPSFSPR      32 000003BE FFFFFFEC         3251  7000
 CPSKAFL       1 000003BF FFFFFFEC     R    3282  3286   3291   3296   3301   3306
 CPSKIFL       1 000003BE FFFFFFEC     R    3237  3241   3246   3251   3256   3261   3266   3271   3276
 CPSOF         1 000001F8 FFFFFFEC     X    2769  2771   2771
 CPSOFLAG      1 00000416 FFFFFFEC     R    3496  3500   3505   3510   3515   3520
 CPSOPST       4 000003C4 FFFFFFEC     F    3316  3545   3545
 CPSPORT       8 00000354 FFFFFFEC     C    2880  3000   3000
 CPSQFLG       1 000003EC FFFFFFEC     R    3345  3349
 CPSSFLG       1 000003BB FFFFFFEC     R    3155  3159   3164   3169   3174   3179   3184
 CPSSTART      4 00000344 FFFFFFEC     F    2872  2876   2876   3312   3312   3417   3417   3549   3549
 CPSSTAT       1 0000038F FFFFFFEC     R    3092  3096   3101   3106   3111   3116   3121   3126
 CPSTACF       1 000003BC FFFFFFEC     R    3190  3194   3199   3204   3209   3214   3219   3224   3229
 CPSTART       4 00000000 FFFFFFEC     C    2508  6202   6206
 CPSTFLAG      1 000003EA FFFFFFEC     R    3323  3327   3332   3337
 CPSTYPE       1 0000038C FFFFFFEC     R    3005  3014   3024   3034   3044   3054   3064   3074   3084
 CPSUFLG       1 000003EE FFFFFFEC     R    3360  3364   3369   3374   3379   3384   3389   3394   3399
 CPSUFLG2      1 000003EF FFFFFFEC     R    3405  3409   3414
 CPSVPGM       8 0000039C FFFFFFEC     C    3138  3144   3144
 CPS1ST        4 0000038C FFFFFFEC     F    3002  3547   3547
 CPTEMPP#      1 0000005F FFFFFFEC A   U    4455  4457
 CPTRMFL1      1 00000C7A FFFFFFEC     R    5113  5117   5122   5127   5251   5251
 CPTRMFL2      1 00000C7B FFFFFFEC     R    5133  5137   5142   5147   5152   5157   5162
 CPTRMFL3      1 00000C7C FFFFFFEC     R    5168  5172   5177   5182   5187   5192   5197   5202
 CPTRMFL4      1 00000C7D FFFFFFEC     R    5208  5212   5217   5222   5227   5232   5237   5242
 CPUSED        1 00000FBC FFFFFFEC A   U    6202  6203
 CPVACURS      8 00000AF0 FFFFFFEC     D    4980  4981   4982
 CPVCURS       8 00000AE0 FFFFFFEC     D    4974  4975   4976
 CPVFLAG       1 00000AC8 FFFFFFEC     R    4775  4779   4784   4789   4794   4799
 CPVFLAG2      1 00000AC9 FFFFFFEC     R    4805  4809   4814   4819   4824   4829   4834
 CPVFLAG3      1 00000ACA FFFFFFEC     R    4840  4844   4849   4854   4859   4864   4869
 CPVFLAG4      1 00000ACB FFFFFFEC     R    4875  4879   4884   4889
 CPVFPAGE    128 00000AC8 FFFFFFEC         4779  9667  12342  13595
 CPVFREWR     64 00000AC9 FFFFFFEC         4814  9912M 10622M 12353M 13606M
 CPVLFLAG      1 00000ACE FFFFFFEC     R    4944  4948   4953   4958
 CPVMODE       1 00000ACC FFFFFFEC     R    4897  4901   4906   4911   4916   4921   4926   4931   4936
 CPVMSG       80 00000AFC FFFFFFEC     C    4985  9906M 10615M 10616M
 CPVTWID       2 00000AD0 FFFFFFEC     H    4964  4967   4967
 CPWK1         4 00000D60 FFFFFFEC     F    5648  5663   5686
 CPWK2         4 00000D64 FFFFFFEC     F    5649  5664   5678
 CPWK3         4 00000D68 FFFFFFEC     F    5650  5665   5679
 CPWK4         4 00000D6C FFFFFFEC     F    5651  5666   5680
 CPWK5         4 00000D70 FFFFFFEC     F    5652  5668   5673   5681
 CPWK6         4 00000D74 FFFFFFEC     F    5653  5669   5674   5682   5689   5691
 CPWK7         4 00000D78 FFFFFFEC     F    5654  5667   5683
 CPXFLAG       1 000007FD FFFFFFEC     R    4242  4246
 CPXSTATE      4 000007F8 FFFFFFEC     F    4236  4249   4249
 CV         4016 00000000 FFFFFFEE     J    2411  1219U
 CVABORT       4 000007DA FFFFFFEE     I    2190 10649B 11103B 11956B 13018B 13305B
 CVABSRTN      4 0000088C FFFFFFEE     V    2225  2200
 CVABTMSG      4 000007CC FFFFFFEE     I    2185  7436B  9533B 11777B 11821B 13170B 13833B 13875B
 CVBLANKS    235 000004D8 FFFFFFEE     C    2005  9906  10615  12299  13577  17453
1SPELL    (SPEL2025) (12:55) (15MAR04) Ordinary Symbol and Literal Cross Reference                                          Page  116
 CVBRMSK       1 00000751 FFFFFFEE     X    2141  2142   2143
 CVCFLAG       1 00000A00 FFFFFFEE     R    2306  2310   2315   2320   2325   2330
 CVCHKST       8 000009F0 FFFFFFEE     D    2296  2386   2386
 CVCHKST2      8 00000E28 FFFFFFEE     D    2389  2392   2392
 CVCOMRTN      4 0000087C FFFFFFEE     V    2221  2191
 CVDBGFLG      1 000004CC FFFFFFEE     R    1995  1999
 CVDICPTR      4 00000600 FFFFFFEE     A    2023  7341   7415M 11765  18536
 CVENT         4 0000074C FFFFFFEE     I    2139  6832B  7502B  7624B  7771B  8113B  8409B  8601B  9430B 10346B 10487B
                                                 10758B 11170B 11366B 11715B 12090B 12428B 12903B 13095B 13384B 13774B
                                                 14138B 14833B 15063B 15533B 16077B 16564B 16810B 17006B 17282B 17603B
                                                 18238B 18515B 18643B 18856B 19349B
 CVENTBR       2 00000750 FFFFFFEE     I    2140  2141
 CVERRMSG      4 000007C8 FFFFFFEE     I    2184  8637B 10433B 12325B
 CVERROR       4 000007D6 FFFFFFEE     I    2189  2205B
 CVEXIRTN      4 0000077C FFFFFFEE     V    2169  2165
 CVFCHRKBPR
               8 000004C9 FFFFFFEE         1910  1926   1926
 CVFCHRKBSE
               4 000004C9 FFFFFFEE         1915  1926   1926
 CVFCHRKCPR
               2 000004C9 FFFFFFEE         1932  1948   1948
 CVFCHRKCSE
               1 000004C9 FFFFFFEE         1937  1948   1948
 CVFCHRUBPR
             128 000004C9 FFFFFFEE         1866  1882   1882
 CVFCHRUBSE
              64 000004C9 FFFFFFEE         1871  1882   1882
 CVFCHRUCPR
              32 000004C9 FFFFFFEE         1888  1904   1904
 CVFCHRUCSE
              16 000004C9 FFFFFFEE         1893  1904   1904
 CVFL          1 000004C4 FFFFFFEE     R    1662  1666   1671   1676   1681   1686   1691   1696   1701
 CVFL2         1 000004C5 FFFFFFEE     R    1707  1711   1716   1721   1726   1731   1736   1741   1746
 CVFL3         1 000004C6 FFFFFFEE     R    1752  1756   1761   1766   1771   1776   1781   1786   1791
 CVFL4         1 000004C7 FFFFFFEE     R    1797  1801   1806   1811   1816   1821   1826   1831
 CVFL5         1 000004C8 FFFFFFEE     R    1837  1841   1846   1851   1856
 CVFL6         1 000004C9 FFFFFFEE     R    1862  1866   1871   1883   1888   1893   1905   1910   1915   1927   1932
                                                  1937   1949
 CVHEAP#       1 00000200 FFFFFFEE A   U    1568  1569
 CVINVRTN      4 00000888 FFFFFFEE     V    2224  2194
 CVJESFLG      1 000004CA FFFFFFEE     R    1955  1959
 CVLNKRGS      4 00000780 FFFFFFEE     F    2171  2146M  2172
 CVLNKRTN      4 000007B0 FFFFFFEE     U    2172  2161M
 CVLOCK1       1 00000088 FFFFFFEE     R    1313  1317   1322
 CVLOCK2       1 00000089 FFFFFFEE     R    1327  1331
 CVLOCK3       1 0000008A FFFFFFEE     R    1336  1340
 CVLOCK4       1 0000008B FFFFFFEE     R    1345  1349
 CVLOGMOD      1 00000068 FFFFFFEE     R    1300  1304
 CVMACH        1 00000067 FFFFFFEE     R    1260  1264   1269   1274   1279   1284   1289   1294
 CVMILRTN      4 00000884 FFFFFFEE     V    2223  2203
 CVNEXT        4 000007DE FFFFFFEE     I    2191  6983B  7120B  7443B  9790B 10089B 11996B 12022B 12030B 12816B 13042B
                                                 13327B 13974B
 CVNOARTN      4 00000890 FFFFFFEE     V    2226  2197
 CVNVALID      4 000007E4 FFFFFFEE     I    2194  7003B
 CVNWDATE      4 00000608 FFFFFFEE     F    2028  2032   2032
 CVNWMPG#      1 00000008 FFFFFFEE A   U    2030  2031
 CVPFXRTN      1 00000000 00000000 A   T    2169  2169
 CVPGFLAG      1 00000A01 FFFFFFEE     R    2336  2340   2345   2350
 CVPIOSZ       1 00004F80 FFFFFFEE A   U    1399  1401
1SPELL    (SPEL2025) (12:55) (15MAR04) Ordinary Symbol and Literal Cross Reference                                          Page  117
 CVPPDBQH      4 0000009C FFFFFFEE     A    1357  1358
 CVPSFNO       1 000003E9 FFFFFFEE A   N    1521  1523
 CVPSLNO       1 000007CF FFFFFFEE A   N    1522  1523
 CVPXSZ        1 00000008 FFFFFFEE A   U    1400  1401
 CVR          12 0000000C 00000001 A   #    1091  1219U
 CVRKEY        1 00000008 FFFFFFEE A   U    2094  2095
 CVSEGRTN      4 00000880 FFFFFFEE     V    2222  2186
 CVSTACK#      1 00000080 FFFFFFEE A   U    1560  1561
 CVSTART       4 00000000 FFFFFFEE     C    1233  2404
 CVTRC         4 00000768 FFFFFFEE     I    2161  2147B
 CVTRCRTN      4 00000778 FFFFFFEE     V    2168  2162
 CVUSFNO       1 00000001 FFFFFFEE A   N    1528  1530
 CVUSLNO       1 000003E7 FFFFFFEE A   N    1529  1530
 CVVOL#        1 00000005 FFFFFFEE A   U    2379  2380
 CVWTOFLG      1 000004CB FFFFFFEE     R    1965  1969   1974   1979   1984   1989
 CXDADDR       4 00000000 FFFFFFDF     F   16518 16626M 16747
 CXDEND        4 0000000C FFFFFFDF     F   16522 16639M
 CXDNDX        4 00000004 FFFFFFDF     F   16519 16637M 16696
 CXDPTR        4 00000008 FFFFFFDF     F   16521 16702M
 CXDWORD      64 00000014 FFFFFFDF     C   16524 16649M 16715
 CXPARMS       2 00000008 FFFFFFDF     H   16520 16709
 CXUPEXIT      2 00002C9C 00000001     H   16743 16621B 16728B 16740B
 CXWA        152 00000000 FFFFFFDF     J   16533 16561  16590U 16602M 16602  16774  16776  16777
 CXWORD       64 00000058 FFFFFFDF     C   16526 16648M 16679M 16692M 16697  16715  16732
 CXWORDLN      4 00000054 FFFFFFDF     F   16525 16652M 16733
 DEBUGSG       1 00000000 00000000 A   T    2122  2122
 DESABORT      1 00000004 FFFFFFEC A   U    6218 11238  11243  11244
 DESRTRN       1 00000080 FFFFFFEC A   U    6211  9304  11238  11243  11244
 DEV          12 00000000 FFFFFFEB     J    4760  4768
 DEVMAX#       1 00000002 FFFFFFEC A   U    4711  4768
 DEVTYPE       1 00000001 FFFFFFEB     R    4728  4737   4747
 DICTADDR      4 00000000 FFFFFFE8     F    6719  7281M 18715
 DICTCLS       2 0000160A 00000001     H   11156 11152
 DICTEND       4 00000008 FFFFFFE8     F    6721  7282M 14258  16638
 DICTERR       2 00000636 00000001     H    8587  9317
 DICTFLGS      1 0000000E FFFFFFE8     R    6725  6729   7286M
 DICTLEN       4 00000004 FFFFFFE8     F    6720  7283M  7320   7392  18714
 DICTLOOP      2 000002B8 00000001     H    7488  9305
 DICTNDX       1 00000020 FFFFFFE8     U    6739 14256  16636
 DICTNRY      32 00000000 FFFFFFE8     J    6762  7273U  7366U 14254U 16634U 18561U 18675U
 DICTOLD      16 0000000E FFFFFFE8         6729  7373M 18708
 DICTSIZE      1 00090000 FFFFFFE8 A   U    6744  9299
 DICTUCNT      2 0000000C FFFFFFE8     H    6722  7285M  7374  18563  18565M 18679  18681M
 DICTWDCT      4 00000010 FFFFFFE8     F    6736  7287M
 DOFNAME       1 00000000 00000005     T    9295  9295
 DOTTBL        1 00000000 00000000 A   T    2238  2238
 DRENCFLG      1 00000F9F FFFFFFEC     R    6166  6170   6175   6180   6185   6190
 DRENPROT      1 00000F9E FFFFFFEC     R    6153  6161
 DSEARCH       2 00002CC4 00000001     H   16796 16468  17547
 DSNON        40 00000E90 FFFFFFEC     C    5886  5887
 DSNWADSN     44 00000E5C FFFFFFEC     C    5873  5874   5875   5876   5885   5893   6124   6130   6132   6138   6141
                                                  6143   6146   6195
 DSNWAF4       1 00000F37 FFFFFFEC     R    5941  5945   5950   5955   5960   5965   5970   5975   5980
 DSNWAF5       1 00000F38 FFFFFFEC     R    5986  5990   5995   6000   6005   6010   6015   6020   6025
 DSNWAF6       1 00000F39 FFFFFFEC     R    6031  6035   6040   6045   6050   6055   6060   6065   6070
 DSNWAF7       1 00000F3A FFFFFFEC     R    6076  6080   6085   6090   6095
 DSNXG         1 00000004 FFFFFFEC A   U    5878  5880
 DSNXGL        1 00000003 FFFFFFEC A   U    5879  5880
 DSNXU         1 00000007 FFFFFFEC A   U    5880  5882
1SPELL    (SPEL2025) (12:55) (15MAR04) Ordinary Symbol and Literal Cross Reference                                          Page  118
 DSNXUL        1 00000004 FFFFFFEC A   U    5881  5882
 DSSIZ         1 00000108 FFFFFFEC A   U    6124  6132   6141   6146
 DTBLANKS     64 000000A4 FFFFFFE7     C    6788  6881M  7647   8263   8348
 DTEND         4 0000001C FFFFFFE7     F    6783  7089M  7229   8484
 DTHDR         4 00000008 FFFFFFE7     F    6778  7079M
 DTMEMADR      4 00000000 FFFFFFE7     F    6776  7073M  7078   7087   7265   7414   7422   8622
 DTMEMLEN      4 00000004 FFFFFFE7     F    6777  7067M  7088   7423   8623
 DTNDXADR      4 0000000C FFFFFFE7     F    6779  7082M
 DTNDXEND      4 00000014 FFFFFFE7     F    6781  7085M  7291   8146   8208   8317
 DTNDXPTR      4 00000010 FFFFFFE7     F    6780  7083M  7092   7097M  7290   8146   8191   8195M  8208   8300   8304M
                                                  8317
 DTNEXTDX      4 000000EC FFFFFFE7     F    6793  7100M  8262M  8282   8347M
 DTPREV       64 00000064 FFFFFFE7     C    6787  6883M  7646M  7819   7821   7947   8263M  8288   8348M  8436
 DTPTR         4 00000018 FFFFFFE7     F    6782  7086M  7093   7216   7258   7262M  7275   8193   8302   8468   8472M
 DTTOPPTR      4 000000E8 FFFFFFE7     F    6791  6884M  8152   8176M  8259M
 DTWA        240 00000000 FFFFFFE7     J    6800  6829   6858U  6868M  6868   6869   6878U  7463   7465   7466   7531U
 DTWORD       64 00000024 FFFFFFE7     C    6786  6882M  7646   7647M  7695M  7709M  7819   7821   7947M  8163   8179
                                                  8192   8246   8288   8301   8434
 DTWORDCT      4 000000E4 FFFFFFE7     F    6790  7098   7211   7287   7564   7566M  8260   8282   8345
 DTWORDLN      4 00000020 FFFFFFE7     F    6785  7707M  8460
 EBCTBL        1 00000000 00000000 A   T    2234  2234
 EBCTBL7       1 00000000 00000000 A   T    2237  2237
 ECBLIST       1 00000000 00000000 A   T    2097  2097
 ENDTBL        2 00003536 00000001     H   19608 18196  19118  19610  19612  19614  19616  19618  19620  19622  19624
                                                 19626  19628  19630  19632
 EPARTBL       1 00000000 00000000 A   T    2229  2229
 EXIT0         1 00000000 00000004     T    9294  9294
 EXTCLOSE      1 00000000 0000000B     T    9307  9307
 EXTOPEN       1 00000000 00000009     T    9303  9303  11242
 FINDLOOP      2 000027C0 00000001     H   15580 15968B 16011B
 FNAMEFIN      1 00000000 00000007     T    9297  9297  11241
 FNAMESCN      1 00000000 0000000E     T   10130 10130
 FNAMOPTS      1 00000000 00000006     T    9296  9296
 FNAMPSHF      1 00000000 0000000F     T   10145 10145
 FREEDICT      2 000031B2 00000001     H   18629 11250  16459  17550  18625
 FREERETN      2 00003208 00000001     H   18734 18667B 18678B
 FSR           0 00000000 00000001 A   #    1001  6826   7463M  7497   7585M  7619   7724M  7766   8069M  8108   8375M
                                                  8404   8570M  8596   8652M  9424  10109M 10341  10448M 10482  10700M
                                                 10753  11124M 11165  11208M 11360  11590M 11709  12050M 12084  12390M
                                                 12422  12836M 12898  13057M 13089  13347M 13378  13636M 13768  13994M
                                                 14132  14792M 14828  15016M 15058  15471M 15528  16040M 16072  16438M
                                                 16558  16774M 16805  16920M 16935M 17001  17238M 17276  17530M 17598
                                                 18163M 18178M 18233  18467M 18510  18579M 18594M 18638  18736M 18751M
                                                 18851  19311M 19344  19536M
 GETDICT       2 0000316C 00000001     H   18501 11232  16452  17544  18497
 GETWD         2 00002F4C 00000001     H   17589 17585
 GETWEXIT      2 000030AE 00000001     H   18161 18151B 18158B
 GGDICPTR      4 00000000 FFFFFFE1     F   13715 13815M 13969
 GGEND         4 00000010 FFFFFFE1     F   13736 13852M 13883
 GGFLAGS       1 00000004 FFFFFFE1     R   13722 13726  13731
 GGPARMS       4 00000004 FFFFFFE1     F   13719 13853
 GGPTR         4 0000000C FFFFFFE1     F   13735 13850M 13882
 GGSTART       4 00000008 FFFFFFE1     F   13734 13849M
 GGWA         92 00000000 FFFFFFE1     J   13746 13771  13800U 13810M 13810  13994  13996  13997
 GGWLEN        4 00000014 FFFFFFE1     F   13737 13961
 GGWORD       64 0000001C FFFFFFE1     C   13739 13960
 GOTAFIX       2 000028EC 00000001     H   15961 15710B 15796B 15884B 15912B
 GSBLANKS     64 00000128 FFFFFFE0     C   14099 14268M 14269M 14269  14270  14271  14272  14273  14274  14859  15089
                                                 15556  16002
1SPELL    (SPEL2025) (12:55) (15MAR04) Ordinary Symbol and Literal Cross Reference                                          Page  119
 GSDADDR       4 00000010 FFFFFFE0     F   14088 14246M 14765
 GSDEND        4 0000001C FFFFFFE0     F   14092 14259M
 GSDNDX        4 00000014 FFFFFFE0     F   14089 14257M 14897  15165  15557  16003
 GSDPTR        4 00000018 FFFFFFE0     F   14091 14903M 15171M 15563M 16009M
 GSDWLEN       4 00000020 FFFFFFE0     F   14093 14926  14983  15196  15437  15593  15963
 GSDWORD      64 00000024 FFFFFFE0     C   14094 14272M 14923  14934  14982  15197  15219  15272  15436  15648  15679
                                                 15734  15765  15822  15853  15934  15962
 GSFLAGS       1 0000000C FFFFFFE0     R   14076 14080  14085
 GSIMILAR      2 0000276E 00000001     H   15519 16466
 GSLIST        2 00002950 00000001     H   16063 16470
 GSNOFIX      64 0000000C FFFFFFE0        14085 14280M 14910M 15178M 15573M 15982  16142  16175M 16211  16307M
 GSOCWORD     64 000000A8 FFFFFFE0     C   14097 14270M 14313M 14325  14559
 GSPARMS       4 00000018 FFFFFFE0     F   14090 14917  15190  15587
 GSPRINT     128 0000000C FFFFFFE0        14080 14215M 14553  14622  14665  14708  16110  16278
 GSQQDONE      2 000025C0 00000001     H   14995 14922B 14924B
 GSQQLOOP      2 0000255A 00000001     H   14914 14928B 14967B 14988B
 GSRET         4 00000000 FFFFFFE0     F   14071 14231M 16380
 GSRETEND      4 00000008 FFFFFFE0     F   14073 14235M 16309  16404
 GSRETPTR      4 00000004 FFFFFFE0     F   14072 14232M 16308  16312M 16380  16404
 GSSSDONE      2 000028FE 00000001     H   15971 15567B 15592B 15958B
 GSTEMP       64 000000E8 FFFFFFE0     C   14098 14273M 14858M 14904  15088M 15172  15555M 15564  16001M 16010
 GSTEST        4 00000168 FFFFFFE0     C   14100 14274M 14860M 14874M 14892M 14923  15090M 15104M 15122M 15140M 15158M
                                                 15197  15565M 15934  15988  16000M
 GSWA        364 00000000 FFFFFFE0     J   14107 14135  14164U 14171  14179U 14187M 14187  14188M 14188  14792  14794
                                                 14795
 GSWORD       64 00000068 FFFFFFE0     C   14096 14271M 14325M 14327M 14395  14412  14422  14436  14858  14859M 14860
                                                 14861  14873M 14879  14891M 14898  14904M 14933  15088  15089M 15090
                                                 15091  15103M 15109  15121M 15127  15139M 15145  15157M 15166  15172M
                                                 15217  15271  15555  15556M 15558  15564M 15565  15647  15678  15733
                                                 15764  15821  15852  16001  16002M 16004  16010M
 GSWORDLN      4 00000064 FFFFFFE0     F   14095 14285M 14396  14437  14560  14927  15218  15566  15596  15815
 GSXXDONE      2 00002758 00000001     H   15450 15195B 15198B
 GSXXLOOP      2 00002666 00000001     H   15183 15268B 15319B 15321B 15386B 15442B
 GSXXYES       2 00002742 00000001     H   15435 15323B 15388B
 GUESS         2 0000214C 00000001     H   13758 13754
 GUESSQQQ      2 000024EE 00000001     H   14819 16465
 GUESSRET      2 000024C6 00000001     H   14761 14473B 14518B 14534B 14608B 14651B 14694B 14755B
 GUESSSCN      4 0000225C 00000001     F   14003 16455
 GUESSWD       2 000022AC 00000001     H   14122 14118  16458
 GUESSXXX      2 000025D6 00000001     H   15049 16464
 HDRSIZE       1 00000020 FFFFFFE8 A   U    6741  7080   7081
 HIBAL         1 00000000 FFFFFFFF     J     691   707    720    733    746    759    772    785    798    811    824
                                                   837    850    863    876    889    902
 IGNORE        2 00000402 00000001     H    7946  7794B  7796B  7820B
 INSERTWD      2 00001528 00000001     H   10930 10918B 10925B
 INVALID       1 00000000 00000000 A   T    2224  2224
 INVSPELL      2 000012F8 00000001     H   10332 10235  10326
 JCBAFL        1 00000062 FFFFFFE9     R    6472  6476   6481   6486   6491   6496   6501   6506   6511
 JCBBFL        1 00000063 FFFFFFE9     R    6517  6521   6526   6531   6536   6541   6546   6551
 JCBBILLX      8 00000088 FFFFFFE9     D    6602  6610   6610
 JCBRSCF1      1 00000064 FFFFFFE9     R    6557  6561   6566   6571
 JCBSFLG1      1 00000065 FFFFFFE9     R    6577  6581   6586
 JCBWFL        1 00000060 FFFFFFE9     R    6401  6405   6410   6415   6420   6425   6430   6435   6440   6468
 JCBWWFL       1 00000061 FFFFFFE9     R    6446  6450   6455   6460   6465
 LEARN         2 000018C6 00000001     H   11699 11695
 LEARNED       2 00001AE4 00000001     H   12370 12157B 12178B 12199B
 LEARNWD       2 00001A10 00000001     H   12074 12070  13659
 LENERR        2 00000428 00000001     H    7977  7813B
 LEXATRTN      1 00000040 FFFFFFEC A   U    6213 11238
1SPELL    (SPEL2025) (12:55) (15MAR04) Ordinary Symbol and Literal Cross Reference                                          Page  120
 LOCATRTN      1 00000000 FFFFFFEC A   U    6215 11244
 LOWERTAB      2 00003B90 00000001     H   19792  9316  11258  13667  16461  17546  19809  19811  19813  19815
 LOWTABLE      2 00003A36 00000001     H   19733 19750  19752  19754  19756
 LOWTBL        1 00000000 00000000 A   T    2232  2232
 LSR           8 00000008 00000001 A   #    1039  6826   7463M  7497   7585M  7619   7724M  7766   8069M  8108   8375M
                                                  8404   8570M  8596   8652M  9424  10109M 10341  10448M 10482  10700M
                                                 10753  11124M 11165  11208M 11360  11590M 11709  12050M 12084  12390M
                                                 12422  12836M 12898  13057M 13089  13347M 13378  13636M 13768  13994M
                                                 14132  14792M 14828  15016M 15058  15471M 15528  16040M 16072  16438M
                                                 16558  16774M 16805  16935M 17001  17238M 17276  17530M 17598  18178M
                                                 18233  18467M 18510  18594M 18638  18751M 18851  19311M 19344  19536M
 LTNPSH        1 00000000 00000011     T   10190 10190  10281
 LWWA         68 00000000 FFFFFFE3     J   11636 12087  12116U 12390  12392  12393  12425  12454U 12575M 12575  12697M
                                                 12697  12836  12838  12839  13381  13410U 13636  13638  13639  17279
                                                 17308U 17530  17532  17533
 LWWORD       64 00000004 FFFFFFE3     C   11629 12208M 12221M 12230M 12300  12597  12602  12631  12719  12724  12753
                                                 12760  13492M 13505M 13514M 13578  17368M 17381M 17390M 17454
 LWWORDLN      4 00000000 FFFFFFE3     F   11628 12206M 13490M 17366M
 LXCATRTN      1 00000060 FFFFFFEC A   U    6214  9304  11243
 LXEND         4 0000000C FFFFFFE2     F   11677 11797M 11829  13147M 13178
 LXFLAGS       1 00000000 FFFFFFE2     R   11663 11667  11672
 LXPARMS       4 00000000 FFFFFFE2     F   11660 11798  13148
 LXPTR         4 00000008 FFFFFFE2     F   11676 11795M 11828  13145M 13177
 LXSTART       4 00000004 FFFFFFE2     F   11675 11794M 13144M
 LXWA         88 00000000 FFFFFFE2     J   11687 11712  11741U 11751M 11751  12050  12052  12053  13092  13121U 13131M
                                                 13131  13347  13349  13350
 LXWLEN        4 00000010 FFFFFFE2     F   11678 11970  13319
 LXWORD       64 00000018 FFFFFFE2     C   11680 11969  13318
 MALL          1 00000000 00000014     T   10234 10234  10325  12872  14029
 MATCH         2 00002C84 00000001     H   16726 16716B
 MILERR        1 00000000 00000000 A   T    2223  2223
 MKFFINFO      1 00000000 00000016     T   11233 11233
 MTOKEN        1 00000000 0000000D     T   10129 10129  10159  10174  10250  10265
 MULTERR       2 00000440 00000001     H    8002  7930B
 NBLTBL        1 00000000 00000000 A   T    2236  2236
 NDDEND        4 00000004 FFFFFFDE     F   16973 17041  17133
 NDDPTR        4 00000000 FFFFFFDE     F   16972 17040  17172M
 NDDWLEN       4 00000008 FFFFFFDE     F   16974 17178M
 NDDWORD      64 0000000C FFFFFFDE     C   16975 17047  17174  17175
 NDETRNG       1 00000000 00000008     T    9298  9298  11231
 NDPARMS       4 00000000 FFFFFFDE     F   16971 16976
 NDWA         76 00000000 FFFFFFDE     J   16983 17038U
 NDX           1 00000000 FFFFFFE8 A   U    6752  7094M  7311M  7311   8192M  8301M 16856  16896
 NDXFACTR      1 0000000A FFFFFFE8 A   U    6748  9302
 NDXSIZE       1 00010000 FFFFFFE8 A   U    6742  9300
 NEXTDICT      2 00002D3C 00000001     H   16992 16469  17548
 NEXTDONE      2 00002E14 00000001     H   17223 17215B 17220B
 NEXTEOF       2 00002E0C 00000001     H   17218 17042B
 NLEN          1 00000008 FFFFFFE8 A   U    6754  7096   8194   8303
 NLINK         1 00000004 FFFFFFE8 A   U    6753  7095M  8193M  8302M 16915
 NOACTION      1 00000000 00000000 A   T    2226  2226
 NODICT        2 00002470 00000001     H   14655 14245B
 NOGOT         2 000030A8 00000001     H   18156 17795B 18127B 18139B
 NOGUESS       2 0000244E 00000001     H   14612 14394B
 NOLEARN       2 00002EC0 00000001     H   17487 17324B 17346B 17360B 17470B
 NOMATCH       2 00002C8A 00000001     H   16731 16714B 16717B
 NONALPHA      2 00003736 00000001     H   19670 19192  19672  19675  19677  19679  19681  19683  19685  19687
 NONUPPER      2 00003836 00000001     H   19692 19243  19694  19696  19698  19700
 NPARTBL       1 00000000 00000000 A   T    2230  2230
1SPELL    (SPEL2025) (12:55) (15MAR04) Ordinary Symbol and Literal Cross Reference                                          Page  121
 NSCAN         1 00000000 00000017     T   11235 11235  13654  16456
 NSCNCB      176 00000000 FFFFFFED     J    2495  2621   7029M  7030M  9571   9572   9573   9576M  9577M  9579M  9589M
                                                  9590M  9591M  9623   9624   9625   9628M  9629M  9631M  9641M  9642M
                                                  9643M 11788  11789  11856M 11857M 11872  11873  11874  11877M 11878M
                                                 11879M 11889M 11890M 11891M 12468  12469  12470  12473M 12474M 12476M
                                                 12486M 12487M 12488M 12934  12935  12936  12939M 12940M 12941M 12951M
                                                 12952M 12953M 13138  13139  13205M 13206M 13221  13222  13223  13226M
                                                 13227M 13228M 13238M 13239M 13240M 13843  13844  13910M 13911M 13926
                                                 13927  13928  13931M 13932M 13934M 13944M 13945M 13946M
 NSCNFLGS      1 00000008 FFFFFFED     R    2432  2436   2441
 NSCNKWS       4 00000028 FFFFFFED     A    2481  9571   9579M  9589M  9623   9631M  9641M 11872  11879M 11889M 12468
                                                 12476M 12486M 12934  12941M 12951M 13221  13228M 13238M 13926  13934M
                                                 13944M
 NSCNLEN       4 00000004 FFFFFFED     F    2429  7030M 11789  11857M 13139  13206M 13844  13911M
 NSCNLOC       4 00000000 FFFFFFED     A    2428  7029M 11788  11856M 13138  13205M 13843  13910M
 NSCNSKIP      4 00000024 FFFFFFED     A    2480  9572   9576M  9590M  9624   9628M  9642M 11873  11877M 11890M 12469
                                                 12473M 12487M 12935  12939M 12952M 13222  13226M 13239M 13927  13931M
                                                 13945M
 NSCNSTOP      4 00000020 FFFFFFED     A    2479  9573   9577M  9591M  9625   9629M  9643M 11874  11878M 11891M 12470
                                                 12474M 12488M 12936  12940M 12953M 13223  13227M 13240M 13928  13932M
                                                 13946M
 NSCNTYPE      1 00000018 FFFFFFED     R    2450  2454   2459   2464   2469   2474
 NULLSCAN      2 0000335E 00000001     H   19291 18901B 18954B 19042B
 PAGELINE      1 00000000 0000001B     T   11255 11255
 PAGEMOD       1 00000000 00000019     T   11246 11246
 PFREEA        1 00000000 00000025     T   17558 17558
 PRESS         1 00000000 0000000C     T    9318  9318
 QUIETPSH      1 00000000 00000012     T   10205 10205  10296
 RAR          14 0000000E 00000001 A   #    1117  2161   2162M  2163B  2165M  2166B  2186M  2187B  2191M  2192B  2194M
                                                  2195B  2197M  2198B  2200M  2201B  2203M  2204M  2204B  2210   6823
                                                  6959M  6960M  6960B  6981M  6982M  6982B  7013M  7014M  7014B  7037M
                                                  7038M  7038B  7041M  7042M  7042B  7045M  7046M  7046B  7063M  7064M
                                                  7064B  7107M  7108M  7108B  7182M  7183M  7183B  7194M  7195M  7195B
                                                  7199M  7200M  7200B  7251M  7252M  7252B  7465M  7468B  7494   7536M
                                                  7537M  7537B  7540M  7541M  7541B  7558M  7559M  7559B  7562M  7563M
                                                  7563B  7587M  7590B  7616   7726M  7729B  7763   7969M  7970M  7970B
                                                  7973M  7974M  7974B  7994M  7995M  7995B  7998M  7999M  7999B  8019M
                                                  8020M  8020B  8023M  8024M  8024B  8044M  8045M  8045B  8048M  8049M
                                                  8049B  8071M  8074B  8105   8230M  8231M  8231B  8339M  8340M  8340B
                                                  8377M  8380B  8401   8466M  8467M  8467B  8506M  8507M  8507B  8510M
                                                  8511M  8511B  8572M  8575B  8593   8654M  8657B  9421   9495M  9496M
                                                  9496B  9506M  9507M  9507B  9513M  9514M  9514B  9559M  9560M  9560B
                                                  9582M  9583M  9583B  9596M  9597M  9597B  9634M  9635M  9635B  9648M
                                                  9649M  9649B  9725M  9726M  9726B  9773M  9774M  9774B  9777M  9778M
                                                  9778B  9801M  9802M  9802B  9824M  9825M  9825B  9882M  9883M  9883B
                                                  9915M  9916M  9916B  9972M  9973M  9973B 10009M 10010M 10010B 10027M
                                                 10028M 10028B 10054M 10055M 10055B 10066M 10067M 10067B 10080M 10081M
                                                 10081B 10111M 10114B 10338  10389M 10390M 10390B 10407M 10408M 10408B
                                                 10425M 10426M 10426B 10450M 10453B 10479  10521M 10522M 10522B 10540M
                                                 10541M 10541B 10573M 10574M 10574B 10602M 10603M 10603B 10625M 10626M
                                                 10626B 10647M 10648M 10648B 10657M 10658M 10658B 10676M 10677M 10677B
                                                 10702M 10705B 10750  11004M 11005M 11005B 11022M 11023M 11023B 11049M
                                                 11050M 11050B 11061M 11062M 11062B 11079M 11080M 11080B 11097M 11098M
                                                 11098B 11101M 11102M 11102B 11126M 11129B 11162  11210M 11213B 11357
                                                 11416M 11417M 11417B 11435M 11436M 11436B 11562M 11563M 11563B 11592M
                                                 11595B 11706  11801M 11802M 11802B 11882M 11883M 11883B 11896M 11897M
                                                 11897B 11934M 11935M 11935B 11952M 11953M 11953B 11973M 11974M 11974B
                                                 12052M 12055B 12081  12164M 12165M 12165B 12185M 12186M 12186B 12269M
                                                 12270M 12270B 12303M 12304M 12304B 12392M 12395B 12419  12479M 12480M
1SPELL    (SPEL2025) (12:55) (15MAR04) Ordinary Symbol and Literal Cross Reference                                          Page  122
                                                 12480B 12493M 12494M 12494B 12526M 12527M 12527B 12551M 12552M 12552B
                                                 12559M 12560M 12560B 12565M 12566M 12566B 12605M 12606M 12606B 12649M
                                                 12650M 12650B 12674M 12675M 12675B 12727M 12728M 12728B 12771M 12772M
                                                 12772B 12796M 12797M 12797B 12838M 12841B 12895  12944M 12945M 12945B
                                                 12958M 12959M 12959B 12996M 12997M 12997B 13014M 13015M 13015B 13027M
                                                 13028M 13028B 13033M 13034M 13034B 13059M 13062B 13086  13151M 13152M
                                                 13152B 13231M 13232M 13232B 13245M 13246M 13246B 13283M 13284M 13284B
                                                 13301M 13302M 13302B 13322M 13323M 13323B 13349M 13352B 13375  13452M
                                                 13453M 13453B 13481M 13482M 13482B 13547M 13548M 13548B 13581M 13582M
                                                 13582B 13638M 13641B 13765  13813M 13814M 13814B 13856M 13857M 13857B
                                                 13937M 13938M 13938B 13951M 13952M 13952B 13965M 13966M 13966B 13972M
                                                 13973M 13973B 13996M 13999B 14129  14243M 14244M 14244B 14384M 14385M
                                                 14385B 14399M 14400M 14400B 14471M 14472M 14472B 14516M 14517M 14517B
                                                 14532M 14533M 14533B 14583M 14584M 14584B 14601M 14602M 14602B 14644M
                                                 14645M 14645B 14687M 14688M 14688B 14730M 14731M 14731B 14748M 14749M
                                                 14749B 14768M 14769M 14769B 14794M 14797B 14825  14901M 14902M 14902B
                                                 14920M 14921M 14921B 14986M 14987M 14987B 14999M 15000M 15000B 15018M
                                                 15021B 15055  15169M 15170M 15170B 15193M 15194M 15194B 15440M 15441M
                                                 15441B 15454M 15455M 15455B 15473M 15476B 15525  15561M 15562M 15562B
                                                 15590M 15591M 15591B 15966M 15967M 15967B 16007M 16008M 16008B 16024M
                                                 16025M 16025B 16042M 16045B 16069  16167M 16168M 16168B 16185M 16186M
                                                 16186B 16233M 16234M 16234B 16252M 16253M 16253B 16440M 16443B 16555
                                                 16607M 16608M 16608B 16700M 16701M 16701B 16712M 16713M 16713B 16736M
                                                 16737M 16737B 16750M 16751M 16751B 16776M 16779B 16802  16937M 16940B
                                                 16998  17240M 17243B 17273  17423M 17424M 17424B 17457M 17458M 17458B
                                                 17502M 17503M 17503B 17532M 17535B 17595  18180M 18183B 18230  18295M
                                                 18296M 18296B 18322M 18323M 18323B 18366M 18367M 18367B 18443M 18444M
                                                 18444B 18469M 18472B 18507  18596M 18599B 18635  18753M 18756B 18848
                                                 19102M 19102  19313M 19316B 19341  19538M 19541B
 RDRNG         1 00000000 0000000A     T    9306  9306  11240
 RESCAN        2 00003236 00000001     H   18891 18953B 19183B 19226B 19277B
 RNGABORT      1 00000000 0000001C     T   11256 11256
 R0            0 00000000 FFFFFFFF A   #     699  2146   2215M  6948M  6948   6970M  7010M  7030   7068M  7171M  7171
                                                  7190M  7240M  7284M  7284   7285   7286   7332M  7334   7374M  7386
                                                  7392M  7401   7423M  7425   7435M  7649   7707   7793M  7793   7810
                                                  7824   7958M  7983M  8008M  8033M  8219M  8328M  8462M  8470   8495M
                                                  8623M  8625   8636M  9532M  9567M  9567   9576   9577   9619M  9619
                                                  9628   9629   9721M  9797M  9820M  9871M  9961M  9998M  9998  10016M
                                                 10030M 10030  10050M 10056  10063M 10063  10396M 10414M 10432M 10516M
                                                 10517  10537M 10935M 10937M 10964M 10966M 10993M 10993  11011M 11025M
                                                 11025  11045M 11051  11058M 11058  11068M 11086M 11406M 11407  11432M
                                                 11776M 11789M 11796M 11797  11820M 11829M 11830M 11857  11868M 11868
                                                 11877  11878  11879  11906M 11906  11941M 11970M 11995M 12021M 12133
                                                 12147  12206  12209  12235  12266M 12298M 12298  12324M 12464M 12464
                                                 12473  12474  12515M 12540M 12556M 12562M 12601M 12601  12638M 12663M
                                                 12663  12723M 12723  12760M 12785M 12785  12930M 12930  12939  12940
                                                 12941  12968M 12968  13003M 13024M 13030M 13139M 13146M 13147  13169M
                                                 13178M 13179M 13206  13217M 13217  13226  13227  13228  13255M 13255
                                                 13290M 13319M 13427  13441  13470M 13490  13493  13519  13544M 13576M
                                                 13576  13832M 13844M 13851M 13852  13874M 13883M 13884M 13911  13922M
                                                 13922  13931  13932  13961M 14190  14191  14191  14191  14284M 14285
                                                 14286  14373M 14373  14393M 14393  14396M 14437M 14438M 14451  14496
                                                 14560M 14590M 14633M 14676M 14719M 14737M 14898M 14926M 14927  14936
                                                 14983M 14996M 14996  15166M 15196M 15220  15437M 15451M 15451  15558M
                                                 15593M 15594  15963M 16004M 16021M 16021  16127  16149  16150  16150
                                                 16150  16156M 16178M 16222M 16295  16310  16325  16474  16474  16474
                                                 16604  16651M 16652  16697M 16733M 16831  16920  16920M 17343  17357
                                                 17366  17369  17395  17420M 17452M 17452  17630M 17761  17971  18002
                                                 18148M 18150M 18157M 18157  18163  18163M 18270  18277  18278  18278
1SPELL    (SPEL2025) (12:55) (15MAR04) Ordinary Symbol and Literal Cross Reference                                          Page  123
                                                 18278  18284M 18299M 18355M 18355  18432M 18432  18579  18579M 18714M
                                                 18724  18736  18736M 19378M 19385  19421  19776  19776  19776
 R1            1 00000001 FFFFFFFF A   #     712  2209M  2210M  2216M  6880M  6881   6882   6883   6969M  7029   7066M
                                                  7067   7068   7073   7078M  7079   7080   7080   7081M  7081   7082
                                                  7083   7084M  7085   7086   7087M  7088M  7089   7092M  7094   7095
                                                  7096M  7096   7097   7098M  7099M  7100   7191M  7216M  7217M  7217
                                                  7229   7239M  7258M  7259   7260   7261M  7261   7262   7265M  7273U
                                                  7277   7281   7321   7331M  7333   7334   7341M  7353   7366U  7400
                                                  7401   7414M  7415   7422M  7424   7425   7434M  7564M  7565M  7565
                                                  7566   7648   7708M  7709   7795   7797   7823   7957M  7982M  8007M
                                                  8032M  8218M  8327M  8431M  8433   8434   8435   8469M  8469   8494M
                                                  8622M  8624   8625   8635M  9484M  9485   9515   9531M  9563M  9576
                                                  9577   9579   9615M  9628   9629   9631   9722M  9798M  9821M  9870M
                                                  9960M  9994M 10015M 10029M 10050  10051M 10051  10056M 10077M 10395M
                                                 10413M 10431M 10514  10515  10516  10518M 10536M 10673M 10870M 10871
                                                 10873M 10874  10916  10936M 10965M 10971M 10972M 10972  10973  10989M
                                                 11010M 11024M 11045  11046M 11046  11051M 11067M 11085M 11404  11405
                                                 11406  11413M 11431M 11451M 11452M 11453  11473  11559M 11775M 11788M
                                                 11794  11795  11796  11798M 11819M 11828M 11830  11856  11864M 11877
                                                 11878  11879  11940M 11969M 11994M 12020M 12221  12299M 12323M 12460M
                                                 12473  12474  12476  12514M 12539M 12597M 12631M 12719M 12753M 12926M
                                                 12939  12940  12941  13002M 13138M 13144  13145  13146  13148M 13168M
                                                 13177M 13179  13205  13213M 13226  13227  13228  13289M 13318M 13469M
                                                 13505  13577M 13815  13831M 13843M 13849  13850  13851  13853M 13873M
                                                 13882M 13884  13910  13918M 13931  13932  13934  13960M 13969M 14190
                                                 14191  14191  14191  14246  14254U 14284M 14326M 14327  14395M 14436M
                                                 14438  14439  14451  14457  14478M 14478  14484M 14496  14502  14523M
                                                 14523  14559M 14589M 14632M 14675M 14718M 14736M 14765M 14897M 14903
                                                 14917M 14933M 14935  14948  14954  14966  14972M 14972  14982M 15165M
                                                 15171  15190M 15271M 15279M 15279  15281  15293  15318  15322  15324M
                                                 15324  15337  15338M 15346M 15346  15348  15360  15387  15389  15401M
                                                 15401  15418M 15419  15421M 15436M 15557M 15563  15587M 15647M 15655M
                                                 15655  15657  15709  15733M 15741M 15741  15743  15821M 15829M 15829
                                                 15831  15883  15885M 15885  15886  15898M 15899  15911  15962M 16003M
                                                 16009  16149  16150  16150  16150  16155M 16178M 16221M 16337  16474
                                                 16474  16474  16603  16626  16634U 16647M 16648  16649  16650M 16691M
                                                 16692  16696M 16702  16709M 16732M 16747M 16832  16915M 16917M 16918M
                                                 16920  17027  17047M 17067M 17078M 17090  17098M 17098  17150  17158M
                                                 17158  17173  17179  17202  17381  17453M 17627  17630  17710  17874
                                                 18087  18146  18149M 18150  18163  18277  18278  18278  18278  18283M
                                                 18299M 18536M 18548  18561U 18577  18579  18675U 18677M 18677  18715M
                                                 18723  18724  18736  18877  18892M 18893  18896M 18896  18950M 18951
                                                 18962  18998  19004M 19005  19027M 19027  19036  19037M 19037  19096M
                                                 19116M 19117  19125M 19125  19129  19174  19370  19373M 19374  19377M
                                                 19385  19387  19399  19405M 19405  19413  19421  19423  19425  19427
                                                 19429M 19429  19437  19438M 19439  19462  19469M 19476M 19478  19776
                                                 19776  19776
 R12          12 0000000C FFFFFFFF A   #     855  2172
 R13          13 0000000D FFFFFFFF A   #     868  9571   9572   9573   9589   9590   9591   9623   9624   9625   9641
                                                  9642   9643  11872  11873  11874  11889  11890  11891  12468  12469
                                                 12470  12486  12487  12488  12934  12935  12936  12951  12952  12953
                                                 13221  13222  13223  13238  13239  13240  13926  13927  13928  13944
                                                 13945  13946
 R14          14 0000000E FFFFFFFF A   #     881  2147M  7028M  7029   7030   7034M  7034   9570M  9571   9572   9573
                                                  9578M  9579   9586M  9589   9590   9591   9622M  9623   9624   9625
                                                  9630M  9631   9638M  9641   9642   9643  11787M 11788  11789  11793M
                                                 11793  11855M 11856  11857  11861M 11861  11871M 11872  11873  11874
                                                 11886M 11889  11890  11891  12467M 12468  12469  12470  12475M 12476
                                                 12483M 12486  12487  12488  12933M 12934  12935  12936  12948M 12951
1SPELL    (SPEL2025) (12:55) (15MAR04) Ordinary Symbol and Literal Cross Reference                                          Page  124
                                                 12952  12953  13137M 13138  13139  13143M 13143  13204M 13205  13206
                                                 13210M 13210  13220M 13221  13222  13223  13235M 13238  13239  13240
                                                 13842M 13843  13844  13848M 13848  13909M 13910  13911  13915M 13915
                                                 13925M 13926  13927  13928  13933M 13934  13941M 13944  13945  13946
                                                 15217M 15218M 15228M 15229  15241  15267  15322  15387  15597M 15599M
                                                 15611  15641
 R15          15 0000000F FFFFFFFF A   #     894  2146   6956M  6978M  7117M  7117   7179M  7248M  7467M  7467   7550M
                                                  7550   7589M  7589   7728M  7728   7792M  7792   7940M  7940   7948M
                                                  7966M  7991M  8016M  8041M  8073M  8073   8227M  8336M  8379M  8379
                                                  8503M  8574M  8574   8656M  8656   9592M  9592   9644M  9644   9787M
                                                  9787   9879M  9969M 10006M 10024M 10113M 10113  10386M 10404M 10422M
                                                 10452M 10452  10599M 10654M 10704M 10704  11001M 11019M 11076M 11094M
                                                 11128M 11128  11212M 11212  11409  11570M 11594M 11594  11892M 11892
                                                 11931M 11949M 11986  12012  12054M 12054  12156M 12156  12177M 12198M
                                                 12242M 12261M 12271M 12290M 12313M 12313  12368M 12368  12394M 12394
                                                 12489M 12489  12523M 12548M 12555M 12561M 12579M 12579  12590M 12590
                                                 12596M 12615M 12615  12646M 12671M 12679M 12679  12701M 12701  12712M
                                                 12712  12718M 12737M 12737  12768M 12793M 12801M 12801  12840M 12840
                                                 12954M 12954  12993M 13011M 13023M 13029M 13061M 13061  13241M 13241
                                                 13280M 13298M 13351M 13351  13478M 13520M 13539M 13549M 13568M 13640M
                                                 13640  13947M 13947  13962M 13962  13998M 13998  14204  14231  14232
                                                 14233  14234M 14234  14235  14381M 14580M 14598M 14607M 14641M 14650M
                                                 14684M 14693M 14727M 14745M 14754M 14763  14772M 14796M 14796  15020M
                                                 15020  15475M 15475  15596M 15597  15598M 15598  15623  15727  16044M
                                                 16044  16164M 16230M 16367M 16367  16387M 16411M 16442M 16442  16620M
                                                 16620  16727M 16727  16745  16754M 16778M 16778  16939M 16939  17214M
                                                 17214  17219M 17242M 17242  17396M 17415M 17425M 17444M 17467M 17467
                                                 17483M 17483  17488M 17496  17510M 17534M 17534  17627M 17629M 17634
                                                 17635  17792  18124  18136  18145M 18146M 18147M 18147  18182M 18182
                                                 18292M 18319M 18363M 18440M 18471M 18471  18577M 18598M 18598  18755M
                                                 18755  19287M 19287  19292M 19315M 19315  19497M 19497  19517M 19540M
                                                 19540
 R2            2 00000002 FFFFFFFF A   #     725  7093M  7095   7275M  7276   7282   7290M  7292   7305   7311   7312M
                                                  7312   7320M  7321   7323   7648M  7823M  7825   7838   7910M  7910
                                                  8152M  8163   8170M  8170   8176   8179   8246   8253M  8253   8259
                                                  8260M  8261M  8262   8345M  8346M  8347   8435M  8452   8453M  8453
                                                  8468M  8471  10511M 10512  10859M 10868U 11408  11453M 11529  11550
                                                 12207M 12208  12229M 12230  12300M 12602M 12724M 13491M 13492  13513M
                                                 13514  13578M 14256M 14257  14258M 14259  14439M 14484  14934M 14966
                                                 14973M 14973  15272M 15280M 15280  15293  15320  15339M 15347M 15347
                                                 15360  15385  15419M 15420M 15420  15648M 15656M 15656  15657  15734M
                                                 15742M 15742  15743  15795  15822M 15830M 15830  15831  15899  15911
                                                 16308M 16311  16325  16337  16345M 16345  16347  16636M 16637  16638M
                                                 16639  16831M 16856  16896  17048M 17048  17049M 17050M 17052M 17067
                                                 17069M 17070M 17078  17100M 17101M 17119  17160M 17161M 17163M 17163
                                                 17173M 17177M 17178  17367M 17368  17389M 17390  17454M 17632M 17632
                                                 17649M 17650M 17650  17668M 17668  17690M 17690  17721M 17721  17744M
                                                 17745M 17745  17772M 17772  17813M 17814M 17814  17832M 17832  17854M
                                                 17854  17885M 17885  17910M 17911M 17911  17929M 17929  17951M 17951
                                                 17982M 17982  18026M 18027M 18027  18045M 18067M 18098M 18098  18324M
                                                 18325M 18337  18563M 18564M 18564  18565  18679M 18680M 18681  18696
                                                 18897M 18897  19038M 19038
 R3            3 00000003 FFFFFFFF A   #     738  7276M  7277M  7278M  7278   7279M  7280M  7283   7291M  7305   7321M
                                                  7331   7649M  7652   7664M  7672M  7681M  7681   7688   7824M  7825M
                                                  7838   8191M  8192   8193   8194M  8194   8195   8300M  8301   8302
                                                  8303M  8303   8304   8436M  8454M  8454   8460M  8461M  8461   8462
                                                  8470M  8471   8519M  8528M  8528   8535  10782M 10782  10803M 10804
                                                 10818M 10820  10835M 10835  10841  10894M 10898M 10900  10915M 10915
                                                 10919  10933M 10938  10939M 10940  10943M 10945  10960M 10960  10963
1SPELL    (SPEL2025) (12:55) (15MAR04) Ordinary Symbol and Literal Cross Reference                                          Page  125
                                                 11474M 11483M 11483  11491M 11493  12209M 12212M 12214  12235M 12254
                                                 12283  13493M 13496M 13498  13519M 13532  13561  14935M 14936M 14948
                                                 15337M 15418  15421  15594M 15611  15623  15641  15678  15679  15727
                                                 15764  15765  15815  15852  15853  16309M 16313  16832M 16835M 16856
                                                 16868M 16884M 16896  16909M 16915  17051M 17053M 17053  17071M 17072M
                                                 17072  17081M 17083  17098  17099  17102M 17141M 17143  17158  17159
                                                 17162M 17174M 17177  17369M 17372M 17374  17395M 17408  17437  17633M
                                                 17633  18898M 18900  18936  18950  18974M 18974  19005M 19006M 19006
                                                 19007M 19007  19021M 19021  19039M 19041  19077  19096  19101M 19101
                                                 19117M 19118M 19118  19119M 19119  19128M 19130  19166
 R4            4 00000004 FFFFFFFF A   #     751  7292M  7293M  7311   7322M  7323M  7332   7826M  7826   7861M  7883M
                                                  7905M  7927   8471M  8472   8484   9938M  9950   9994  10044  10057M
                                                 10783M 10797  10803  10827  10841M 10841  10850M 10854  10875M 10888
                                                 10894  10907  10919M 10919  10933  10934  10937M 10938M 10940  10952
                                                 10962  10963M 10963  10966M 10983M 10989  11039  11052M 11472M 11473M
                                                 15219M 15220M 15227M 15241  15266M 15266  15320  15385  15678M 15686M
                                                 15688  15709  15764M 15772M 15774  15852M 15860M 15862  15883  15886
                                                 16310M 16311  16328M 16330  16345  16346M 16346  16347  16603M 16650
                                                 16833M 16835  16855M 16868  16884  17040M 17041  17049  17068M 17068
                                                 17069  17090  17099M 17099  17100  17133  17150  17159M 17159  17160
                                                 17172  17175M 17179M 17193M 17195  17634M 17641M 17641  17648M 17649
                                                 17710  17736M 17743M 17743  17744  17761  17792  17805M 17805  17812M
                                                 17813  17874  17896M 17896  17900  18124  18145  18149  18899M 18900M
                                                 18913  18920M 18927M 18929  18950  19040M 19041M 19054  19061M 19068M
                                                 19070  19096  19129M 19130M 19142  19149M 19154  19157M 19159  19185
                                                 19236  19413M 19414  19438  19485
 R5            5 00000005 FFFFFFFF A   #     764 10784M 10797  10851M 10852M 10853M 10853  10854  10876M 10888  10934M
                                                 10936  10961M 10962M 10965  10967M 10968M 10969M 10969  10970  14286M
                                                 14290M 14299M 14299  14306  15679M 15687M 15688  15765M 15773M 15774
                                                 15795  15853M 15861M 15862  16311M 16312  16313  16604M 16651  16656M
                                                 16665M 16665  16672  16834M 16849  16889M 17176M 17202  17635M 17900M
                                                 17902M 17909M 17909  17910  17971  18002  18009M 18018M 18018  18025M
                                                 18026  18087  18109M 18109  18136  18148  19036M 19039  19128  19175
 R6            6 00000006 FFFFFFFF A   #     777  6869M  6870   6878U  7523M  7531U  9460M  9468U  9473  10508M 14171M
                                                 14179U 17027M 17038U 17640M 17650  17735M 17745  17804M 17814  17901M
                                                 17911  18017M 18027  18877M 18888U 19370M
 R7            7 00000007 FFFFFFFF A   #     790  2139M  2139   2140B  2152B
 R8            8 00000008 FFFFFFFF A   #     803  6858U  9456U 11392U 11741U 12116U 12454U 13121U 13410U 13800U 14164U
                                                 16590U 17308U
 SCANCHK       1 00000000 00000018     T   11236 11236  13655  16457
 SCANDONE      2 00003366 00000001     H   19296 19288B 19293B
 SCANNAME      2 0000328A 00000001     H   18961 18944B
 SCANTEXT      2 0000321A 00000001     H   18842 11252  11607
 SCANTOKN      2 0000030E 00000001     H    7610  9311
 SCANWORD      2 00003374 00000001     H   19335 13653  16453
 SCEND         4 0000000C FFFFFFDD     F   18821 18899  18952  19040  19378
 SCFLAGS       1 00000000 FFFFFFDD     R   18807 18811  18816
 SCNEXFR       1 00000000 00000015     T   11230 11230
 SCNINVAL      1 00000000 0000001D     T   12873 12873  14030
 SCNNOOP       1 00000000 00000010     T   10160 10160  10175  10251  10266
 SCNOUPP      64 00000000 FFFFFFDD        18816 19271
 SCPTR         4 00000008 FFFFFFDD     F   18820 18898  18951M 18952  18962  18998  19174M 19377  19437M
 SCSPECL     128 00000000 FFFFFFDD        18811 19220
 SCWA         88 00000000 FFFFFFDD     J   18831 18888U
 SCWLEN        4 00000010 FFFFFFDD     F   18822 18894M 19154M 19182  19375M 19439M 19510
 SCWORD       64 00000018 FFFFFFDD     C   18824 18893M 19166M 19192  19243  19374M 19485M
 SCWPTR        4 00000014 FFFFFFDD     F   18823 18895M 19175M 19376M 19414M
 SDSNQSZ       1 0000002C FFFFFFEC A   U    6127  6128   6129
 SDSNWORD      1 00000004 00000001 A   U    1185  7010
1SPELL    (SPEL2025) (12:55) (15MAR04) Ordinary Symbol and Literal Cross Reference                                          Page  126
 SEG           1 00000000 00000003     T    9293  9293  11251  13656  16467  19767
 SEGCR         1 00000000 00000002     T    9292  9292  11245  13658  16462  19769
 SEGDC         1 00000000 0000001A     T   11248 11248
 SEGTB         1 00000000 00000021     T   13674 13674
 SEPTBL        2 00003636 00000001     H   19637 18193  19077  19639  19641  19643  19645  19647  19649  19651  19653
                                                 19655  19657  19659  19661  19663  19665
 SETWDICT      2 00000018 00000001     H    6816  6812
 SETWERR       2 00000282 00000001     H    7421  7213B  7253B
 SETWEXIT      2 000002A6 00000001     H    7442  7416B
 SHOWDONE      2 00001C48 00000001     H   12815 12528B
 SHOWLRN       2 00001AF2 00000001     H   12412 12408
 SHOWLSCN      4 00001C5C 00000001     F   12846 13671
 SLBUF         4 00000000 FFFFFFE4     F   11306 11408M 11466  11472
 SLCOL         4 00000004 FFFFFFE4     F   11307 11409M 11529  11544
 SLCOLRET      4 00000008 FFFFFFE4     F   11308 11544  11550M 11570
 SLEND         4 00000018 FFFFFFE4     F   11328 11407M
 SLFLAGS       1 0000000C FFFFFFE4     R   11314 11318  11323
 SLPARMS       4 0000000C FFFFFFE4     F   11311 11413  11559
 SLPTR         4 00000014 FFFFFFE4     F   11327 11405M
 SLSTART       4 00000010 FFFFFFE4     F   11326 11404M 11452
 SLWA        100 00000000 FFFFFFE4     J   11338 11363  11392U 11402M 11402  11590  11592  11593
 SLWLEN        4 0000001C FFFFFFE4     F   11329 11432  11474
 SLWORD       64 00000024 FFFFFFE4     C   11331 11431
 SLWPTR        4 00000020 FFFFFFE4     F   11330 11451
 SPDICPTR      4 00000058 FFFFFFE6     F    9369  9515M 10077
 SPELL         2 00000E52 00000001     H    9414  9410
 SPELLINE      2 000017B8 00000001     H   11350 11346
 SPELLRET      2 000010A8 00000001     H   10076  9928B
 SPELLRTN      2 0000135A 00000001     H   10473 11239
 SPELMASK      1 00001870 00000001     X   11597 11500
 SPEL2025      1 00000000 00000001     R    1138  1136
 SPEND         4 0000000C FFFFFFE6     F    9364 10517M
 SPFLAGS       1 00000000 FFFFFFE6     R    9350  9354   9359
 SPFLGS        1 0000005C FFFFFFE6     R    9372  9376
 SPLINENO      4 00000060 FFFFFFE6     F    9379 10512M 10599  10654
 SPLLMSG      67 00001424 00000001     X   10709 10616  10616
 SPLLMSGX     28 00001424 00000001     C   10707 10709  10709
 SPLPRT        4 00001208 00000001     F   10239 11237
 SPLPRTX       4 000010C8 00000001     F   10118 11234
 SPPARMS       4 00000000 FFFFFFE6     F    9347 10518  10673
 SPPSPELL    128 0000005C FFFFFFE6         9376  9678M  9712M  9763M  9842  10565  10592
 SPPTR         4 00000008 FFFFFFE6     F    9363 10515M
 SPR          13 0000000D 00000001 A   #    1104  6823   6826   6828   6829M  6829   7459M  7463   7465   7494   7497
                                                  7498   7499M  7499   7581M  7585   7587   7616   7619   7620   7621M
                                                  7621   7720M  7724   7726   7763   7766   7767   7768M  7768   8065M
                                                  8069   8071   8105   8108   8109   8110M  8110   8371M  8375   8377
                                                  8401   8404   8405   8406M  8406   8566M  8570   8572   8593   8596
                                                  8597   8598M  8598   8648M  8652   8654   9421   9424   9426   9427M
                                                  9427  10105M 10109  10111  10338  10341  10342  10343M 10343  10444M
                                                 10448  10450  10479  10482  10483  10484M 10484  10696M 10700  10702
                                                 10750  10753  10754  10755M 10755  11120M 11124  11126  11162  11165
                                                 11166  11167M 11167  11204M 11208  11210  11357  11360  11362  11363M
                                                 11363  11586M 11590  11592  11706  11709  11711  11712M 11712  12046M
                                                 12050  12052  12081  12084  12086  12087M 12087  12386M 12390  12392
                                                 12419  12422  12424  12425M 12425  12832M 12836  12838  12895  12898
                                                 12899  12900M 12900  13053M 13057  13059  13086  13089  13091  13092M
                                                 13092  13343M 13347  13349  13375  13378  13380  13381M 13381  13632M
                                                 13636  13638  13765  13768  13770  13771M 13771  13990M 13994  13996
                                                 14129  14132  14134  14135M 14135  14788M 14792  14794  14825  14828
1SPELL    (SPEL2025) (12:55) (15MAR04) Ordinary Symbol and Literal Cross Reference                                          Page  127
                                                 14829  14830M 14830  15012M 15016  15018  15055  15058  15059  15060M
                                                 15060  15467M 15471  15473  15525  15528  15529  15530M 15530  16036M
                                                 16040  16042  16069  16072  16073  16074M 16074  16434M 16438  16440
                                                 16555  16558  16560  16561M 16561  16770M 16774  16776  16802  16805
                                                 16806  16807M 16807  16931M 16935  16937  16998  17001  17002  17003M
                                                 17003  17234M 17238  17240  17273  17276  17278  17279M 17279  17526M
                                                 17530  17532  17595  17598  17599  17600M 17600  18174M 18178  18180
                                                 18230  18233  18234  18235M 18235  18463M 18467  18469  18507  18510
                                                 18511  18512M 18512  18590M 18594  18596  18635  18638  18639  18640M
                                                 18640  18747M 18751  18753  18848  18851  18852  18853M 18853  19307M
                                                 19311  19313  19341  19344  19345  19346M 19346  19532M 19536  19538
 SPSTART       4 00000004 FFFFFFE6     F    9362 10514M
 SPUCNT        4 00000064 FFFFFFE6     F    9380  9860   9900   9938  10598M 10971  10973M 10983
 SPUEND        4 00000068 FFFFFFE6     F    9381  9485M 10784  10851  10876  10961  10967  10970M
 SPULIST       1 0000006C FFFFFFE6     C    9382  9484  10029  10783  10850  10875  11024
 SPWA        908 00000000 FFFFFFE6     J    9389  9427   9456U  9460   9468U  9480M  9480   9481M  9481   9482M  9482
                                                  9483M  9483  10109  10111  10112
 SPWLEN        4 00000010 FFFFFFE6     F    9365 10537  10804  10852  10939  10968
 SPWORD       64 00000018 FFFFFFE6     C    9367 10536  10827  10872  10952
 STARTTBL      2 00003536 00000001     H   19578 18195  19006  19580  19582  19584  19586  19588  19590  19592  19594
                                                 19596  19598  19600  19602  19603
 TLIST         2 000030D0 00000001     H   18224 11249  16472
 TOPHITS       2 00000688 00000001     H    8676  9291
 TRC           1 00000000 00000000 A   T    2168  2168
 TTYFLAG       1 00000004 FFFFFFEA     R    6256  6260
 TTYMAX#       1 00000006 FFFFFFEA A   U    6312  6313
 TTYTFLAG      1 00000005 FFFFFFEA     R    6266  6270   6275   6280   6285   6290   6295   6300
 ULEN          1 00000000 00000001 A   U    9392 10050  10803  10940M 11045
 UNLEARN       2 00001D72 00000001     H   13079 13075
 UNLEARND      2 00001F34 00000001     H   13616 13430B 13444B 13483B 13611B
 UNLRNWD       2 00001E7E 00000001     H   13368 13364  13677
 UNPRST        1 00000001 FFFFFFEC A   U    6216  9304  11238  11243  11244
 UPPTABLE      2 00003936 00000001     H   19705 19722  19724  19726  19728
 UPPTBL        1 00000000 00000000 A   T    2231  2231
 UWORD         1 00000001 00000001 A   U    9393 10051  10827  10841  10853  10907  10919  10952M 10963  10969  11046
 WAR           8 00000008 00000001 A   #    1027  6828M  7459   7498M  7581   7620M  7720   7767M  8065   8109M  8371
                                                  8405M  8566   8597M  8648   9426M 10105  10342M 10444  10483M 10696
                                                 10754M 11120  11166M 11204  11362M 11586  11711M 12046  12086M 12386
                                                 12424M 12832  12899M 13053  13091M 13343  13380M 13632  13770M 13990
                                                 14134M 14788  14829M 15012  15059M 15467  15529M 16036  16073M 16434
                                                 16560M 16770  16806M 16920  16931  17002M 17234  17278M 17526  17599M
                                                 18163  18174  18234M 18463  18511M 18579  18590  18639M 18736  18747
                                                 18852M 19307  19345M 19532
 WDTOTAL       1 0001D4C0 FFFFFFE8 A   U    6747  6748
 WRDEND        2 000033F8 00000001     H   19436 19422B 19424B 19426B 19428B
 WRDSTART      2 000033CC 00000001     H   19412 19386B 19404B
 WTOSG         1 00000000 00000000 A   T    2128  2128
 WYLSPELL      1 00000000 00000001     J     990   992   1009   1022   1035   1047   1060   1073   1086   1099   1112
                                                  1125   2412   2496   6236   6348   6628   6633   6763   6801   7701
                                                  8548
 XDELETE       1 00000000 00000023     T   13678 13678
 XDELSET       1 00000000 00000022     T   13676 13676
 XLOCATE       1 00000000 00000024     T   17557 17557
 XLOCNEXT      1 00000000 00000020     T   13673 13673
 XPUT          1 00000000 0000001F     T   13670 13670
 XSETSET       1 00000000 0000001E     T   13669 13669  17556
 YESLEARN      2 00002EBA 00000001     H   17482 17476B
 =A((DESRTRN+LEXATRTN+UNPRST+DESABORT))
               4 00001658 00000001     A   11238  9721
1SPELL    (SPEL2025) (12:55) (15MAR04) Ordinary Symbol and Literal Cross Reference                                          Page  128
 =A((DESRTRN+LOCATRTN+UNPRST+DESABORT))
               4 00001670 00000001     A   11244  9820
 =A((DESRTRN+LXCATRTN+UNPRST+DESABORT))
               4 0000166C 00000001     A   11243  9797
 =A((DESRTRN+LXCATRTN+UNPRST))
               4 00000CE8 00000001     A    9304  7190
 =A(ADDNDX)
               4 00000D0C 00000001     A    9313  7558
 =A(ADDTOKEN)
               4 00000D10 00000001     A    9314  7562
 =A(ADDUN)
               4 00001698 00000001     A   11254 10573
 =A(ALPHATBL)
               4 000030C4 00000001     A   18194 17735
 =A(BLANKS)
               4 00000CB0 00000001     A    9290  6880
 =A(BLANKS)
               4 000016A4 00000001     A   11257 10870
 =A(BLANKS)
               4 00001FEC 00000001     A   13666 12207  13491
 =A(BLANKS)
               4 00002EF4 00000001     A   17545 16647  17176  17367
 =A(BLANKS)
               4 00003B54 00000001     A   19771 18892  19373
 =A(CHECKLRN)
               4 00001FE4 00000001     A   13664 12164  13452
 =A(CHECKLRN)
               4 00002F04 00000001     A   17549 16736
 =A(CHECKWD)
               4 00001694 00000001     A   11253 10540
 =A(CHECKWD)
               4 000018BC 00000001     A   11608 11435
 =A(CHECKWD)
               4 00001FE8 00000001     A   13665 12185
 =A(CHECKWD)
               4 00002A84 00000001     A   16463 14399
 =A(CHKTOKEN)
               4 00000D08 00000001     A    9312  7540
 =A(DICTERR)
               4 00000D1C 00000001     A    9317  7973   7998   8023   8048   8510
 =A(DICTLOOP)
               4 00000CEC 00000001     A    9305  7191
 =A(DSEARCH)
               4 00002A98 00000001     A   16468 14901  15169  15561  16007
 =A(DSEARCH)
               4 00002EFC 00000001     A   17547 16700
 =A(ENDTBL)
               4 000030CC 00000001     A   18196 18017
 =A(FREEDICT)
               4 00001688 00000001     A   11250 10080
 =A(FREEDICT)
               4 00002A74 00000001     A   16459 13972  14768
 =A(FREEDICT)
               4 00002F08 00000001     A   17550 16750
 =A(GETDICT)
               4 00001640 00000001     A   11232  9513
 =A(GETDICT)
               4 00002A48 00000001     A   16452 13813  14243
 =A(GETDICT)
1SPELL    (SPEL2025) (12:55) (15MAR04) Ordinary Symbol and Literal Cross Reference                                          Page  129
               4 00002EF0 00000001     A   17544 16607
 =A(GSIMILAR)
               4 00002A90 00000001     A   16466 14532
 =A(GSLIST)
               4 00002AA0 00000001     A   16470 14986  14999  15440  15454  15966  16024
 =A(GUESSQQQ)
               4 00002A8C 00000001     A   16465 14516
 =A(GUESSSCN)
               4 00002A64 00000001     A   16455 13933
 =A(GUESSWD)
               4 00002A70 00000001     A   16458 13965
 =A(GUESSXXX)
               4 00002A88 00000001     A   16464 14471
 =A(LEARNWD)
               4 00001FD0 00000001     A   13659 11973
 =A(LOWERTAB)
               4 000016A8 00000001     A   11258 10873
 =A(LOWERTAB)
               4 00001FF0 00000001     A   13667 12229  13513
 =A(LOWERTAB)
               4 00002A7C 00000001     A   16461 14326
 =A(LOWERTAB)
               4 00002EF8 00000001     A   17546 16691  17389
 =A(NEXTDICT)
               4 00002A9C 00000001     A   16469 14920  15193  15590
 =A(NEXTDICT)
               4 00002F00 00000001     A   17548 16712
 =A(SCANTEXT)
               4 00001690 00000001     A   11252 10521  10676
 =A(SCANTEXT)
               4 000018B8 00000001     A   11607 11416  11562
 =A(SCANTOKN)
               4 00000D04 00000001     A    9311  7536
 =A(SCANWORD)
               4 00001FA0 00000001     A   13653 11801  13151
 =A(SCANWORD)
               4 00002A4C 00000001     A   16453 13856
 =A(SEPTBL)
               4 000030C0 00000001     A   18193 17640  17901
 =A(SHOWLSCN)
               4 00002000 00000001     A   13671 12475
 =A(SPELLRTN)
               4 0000165C 00000001     A   11239  9722   9798   9821
 =A(SPLPRT)
               4 00001654 00000001     A   11237  9630
 =A(SPLPRTX)
               4 00001648 00000001     A   11234  9578
 =A(STARTTBL)
               4 000030C8 00000001     A   18195 17804
 =A(TLIST)
               4 00001684 00000001     A   11249 10054  10066  11049  11061
 =A(TLIST)
               4 00002AA8 00000001     A   16472 16185  16252
 =A(TOPHITS)
               4 00000CB4 00000001     A    9291  6884
 =A(UNLRNWD)
               4 00002058 00000001     A   13677 13322
 =A(0)         4 00000D00 00000001     A    9310  7353   7386   7927
 =A(0)         4 0000167C 00000001     A   11247  9950  10044  11039
1SPELL    (SPEL2025) (12:55) (15MAR04) Ordinary Symbol and Literal Cross Reference                                          Page  130
 =A(0)         4 00001FDC 00000001     A   13662 12133  13441
 =A(0)         4 00002A78 00000001     A   16460 14204  16127  16295
 =A(0)         4 00002F10 00000001     A   17552 16849  17119  17357
 =A(0)         4 00003B40 00000001     A   19766 18270  18548  18696
 =A(16)        4 00001FF4 00000001     A   13668 12254  12283  13532  13561
 =A(16)        4 00002F1C 00000001     A   17555 17408  17437
 =A(256)       4 00003B5C 00000001     A   19773 18913  19054
 =A(4)         4 00001FD4 00000001     A   13660 11986
 =A(48)        4 00003B48 00000001     A   19768 18337
 =A(64)        4 00000D14 00000001     A    9315  7652   7664   7810
 =A(64)        4 00001FE0 00000001     A   13663 12147  13427
 =A(64)        4 00002F18 00000001     A   17554 17343
 =A(64)        4 00003B60 00000001     A   19774 19142  19462
 =A(8)         4 00001FD8 00000001     A   13661 12012
 =AL4(DICTSIZE)
               4 00000CD4 00000001     R    9299  7066   7322
 =AL4(LOWERTAB)
               4 00000D18 00000001     R    9316  7708
 =AL4(NDXFACTR)
               4 00000CE0 00000001     R    9302  7099   8261   8346
 =AL4(NDXSIZE)
               4 00000CD8 00000001     R    9300  7084
 =AL4(8192*8/2)
               4 00002F0C 00000001     R   17551 16833
 =C'  '        2 00002ADA 00000001     C   16478 14873  15103  15139
 =C' '         1 000017A4 00000001     C   11268 11067
 =C' '         1 00003B6A 00000001     C   19777 18283
 =C' is spelled correctly.'
              22 00002AB0 00000001     C   16475 14589
 =C' unknown words found.'
              21 00001751 00000001     C   11265 10015  11010
 =C'(The command "GUESS word" can be used to '
              41 0000177B 00000001     C   11267 10413
 =C': invalid line range.'
              21 00001766 00000001     C   11266 10395
 =C': unrecognized CLEAR LEARNED option.'
              36 00002030 00000001     C   13675 13002
 =C': unrecognized LEARN option.'
              28 00001FB0 00000001     C   13657 11940
 =C': unrecognized UNLEARN option.'
              30 000020A6 00000001     C   13682 13289
 =C'"?" and "*" are not accepted as first letter '
              45 00002B6F 00000001     C   16483 14718
 =C'check the spelling of a word.)'
              30 000016C8 00000001     C   11261 10431
 =C'in spelling query.'
              18 00002AC6 00000001     C   16476 14736
 =C'Dictionary not loaded.'
              22 00000D24 00000001     C    9319  7434   8635
 =C'Error in dictionary file, only one word per line.'
              49 00000DBC 00000001     C    9324  8007
 =C'Error in dictionary file, word is to long. (>64)'
              48 00000C78 00000001     C    9288  7982
 =C'Error in dictionary file, word must start in column 1.'
              54 00000D3A 00000001     C    9320  7957
 =C'Error in dictionary file, words must be alpahbetized.'
              53 00000DED 00000001     C    9325  8032
 =C'FREE'      4 00000CFC 00000001     C    9309  7333   7400   7424   8624
 =C'FREE'      4 00003B50 00000001     C   19770 18723
1SPELL    (SPEL2025) (12:55) (15MAR04) Ordinary Symbol and Literal Cross Reference                                          Page  131
 =C'Missing GUESS query.'
              20 00002A50 00000001     C   16454 13873
 =C'Missing LEARN word.'
              19 000020F7 00000001     C   13684 11819
 =C'Missing UNLEARN word.'
              21 0000212B 00000001     C   13686 13168
 =C'No misspelled words found.'
              26 000016AE 00000001     C   11260  9870   9960
 =C'No similar words found in dictionary.'
              37 00002BAB 00000001     C   16485 16221
 =C'No simliar words found in dictionary.'
              37 00002B11 00000001     C   16481 14632
 =C'No spelling dictionary available.  Command ignored.'
              51 0000171E 00000001     C   11264  9531
 =C'No spelling dictionary available.  Command ignored.'
              51 000020C4 00000001     C   13683 11775
 =C'No spelling dictionary available.  Command ignored.'
              51 00002ADE 00000001     C   16480 13831
 =C'No spelling dictionary available. No similar words found.'
              57 00002B36 00000001     C   16482 14675
 =C'No words in user''s LEARN dictionary.'
              36 00002004 00000001     C   13672 12514
 =C'Similar Words: '
              15 00002B9C 00000001     C   16484 16155
 =C'Spelling dictionary index overflow.'
              35 00000E22 00000001     C    9326  8218   8327
 =C'Spelling dictionary overflow.'
              29 00000D9F 00000001     C    9323  7239   8494
 =C'Type SET WDICT to reload spelling dictionary.'
              45 00000D72 00000001     C    9322  6969
 =C'Unknown word list is too long; this is a partial list.'
              54 000016E8 00000001     C   11263 11085
 =C'Word already in system dictionary.'
              34 00002062 00000001     C   13680 11994
 =C'Word already in user''s dictionary.'
              34 00002084 00000001     C   13681 12020
 =C'Word not added; user dictionary is full.'
              40 00001F48 00000001     C   13651 12323
 =C'Word not in user''s dictionary.  Command ignored.'
              48 00001F70 00000001     C   13652 13469
 =C'Words in user''s LEARN dictionary:'
              33 0000210A 00000001     C   13685 12539
 =CL8'BADDICT'
               8 00000CA8 00000001     C    9289  8632
 =F'0'         4 00000CDC 00000001     F    9301  7094   7211
 =F'0'         4 00003B58 00000001     F   19772 18894  18895  19375  19376
 =F'2'         4 00003B64 00000001     F   19775 19182
 =F'3'         4 00002AA4 00000001     F   16471 15566
 =F'8'         4 00000CF8 00000001     F    9308  7293
 =F'8'         4 00002F14 00000001     F   17553 16909
 =V(DOFNAME)
               4 00000CC4 00000001     V    9295  7037
 =V(EXIT0)
               4 00000CC0 00000001     V    9294  7013
 =V(EXTCLOSE)
               4 00000CF4 00000001     V    9307  7199
 =V(EXTOPEN)
               4 00000CE4 00000001     V    9303  7107
 =V(EXTOPEN)
1SPELL    (SPEL2025) (12:55) (15MAR04) Ordinary Symbol and Literal Cross Reference                                          Page  132
               4 00001668 00000001     V   11242  9777
 =V(FNAMEFIN)
               4 00000CCC 00000001     V    9297  7045
 =V(FNAMEFIN)
               4 00001664 00000001     V   11241  9773
 =V(FNAMOPTS)
               4 00000CC8 00000001     V    9296  7041
 =V(MKFFINFO)
               4 00001644 00000001     V   11233  9559
 =V(NDETRNG)
               4 00000CD0 00000001     V    9298  7063
 =V(NDETRNG)
               4 0000163C 00000001     V   11231  9506
 =V(NSCAN)
               4 0000164C 00000001     V   11235  9582   9634
 =V(NSCAN)
               4 00001FA4 00000001     V   13654 11882  12479  12944  13231
 =V(NSCAN)
               4 00002A68 00000001     V   16456 13937
 =V(PAGELINE)
               4 0000169C 00000001     V   11255 10602  10657
 =V(PAGEMOD)
               4 00001678 00000001     V   11246  9915  10625
 =V(PFREEA)
               4 00002F28 00000001     V   17558 17502
 =V(PRESS)
               4 00000D20 00000001     V    9318  8466
 =V(RDRNG)
               4 00000CF0 00000001     V    9306  7194
 =V(RDRNG)
               4 00001660 00000001     V   11240  9725   9801   9824
 =V(RNGABORT)
               4 000016A0 00000001     V   11256 10647  11101
 =V(SCANCHK)
               4 00001650 00000001     V   11236  9596   9648
 =V(SCANCHK)
               4 00001FA8 00000001     V   13655 11896  12493  12958  13245
 =V(SCANCHK)
               4 00002A6C 00000001     V   16457 13951
 =V(SCNEXFR)
               4 00001638 00000001     V   11230  9495
 =V(SEG)       4 00000CBC 00000001     V    9293  6981
 =V(SEG)       4 0000168C 00000001     V   11251 10389  10425
 =V(SEG)       4 00001FAC 00000001     V   13656 11934  12996  13283
 =V(SEG)       4 00002A94 00000001     V   16467 14583  14644  14687  14730  16167  16233
 =V(SEG)       4 00003B44 00000001     V   19767 18295  18322
 =V(SEGCR)
               4 00000CB8 00000001     V    9292  6959   7182   7251   7969   7994   8019   8044   8230   8339   8506
 =V(SEGCR)
               4 00001674 00000001     V   11245  9882   9972  10027  10407  11022  11079  11097
 =V(SEGCR)
               4 00001FCC 00000001     V   13658 11952  12526  12551  12674  12796  13014  13301  13481
 =V(SEGCR)
               4 00002A80 00000001     V   16462 14384  14601  14748
 =V(SEGCR)
               4 00003B4C 00000001     V   19769 18366  18443
 =V(SEGDC)
               4 00001680 00000001     V   11248 10009  11004
 =V(SEGTB)
1SPELL    (SPEL2025) (12:55) (15MAR04) Ordinary Symbol and Literal Cross Reference                                          Page  133
               4 0000202C 00000001     V   13674 12649  12771
 =V(XDELETE)
               4 0000205C 00000001     V   13678 13581
 =V(XDELSET)
               4 00002054 00000001     V   13676 13027  13033
 =V(XLOCATE)
               4 00002F24 00000001     V   17557 17457
 =V(XLOCNEXT)
               4 00002028 00000001     V   13673 12605  12727
 =V(XPUT)      4 00001FFC 00000001     V   13670 12303
 =V(XSETSET)
               4 00001FF8 00000001     V   13669 12269  12559  12565  13547
 =V(XSETSET)
               4 00002F20 00000001     V   17556 17423
 =X'FFFF'      2 00002ADC 00000001     X   16479 14874  15104  15140
 =X'17FFFFFFFFFFFFFF'
               8 00000C70 00000001     X    9287  7259   7260
 =Y((L'ADWA+3)/4*4)
               2 000016E6 00000001     Y   11262 10975
 =Y((R1+1-(R0)+16*((R0)/(R1+1))/((R0)/(R1+1)))*4)
               2 00002AAE 00000001     Y   16474 14283  16177
 =Y((R1+1-(R0)+16*((R0)/(R1+1))/((R0)/(R1+1)))*4)
               2 00003B68 00000001     Y   19776 18298
 =Y((12+3)/4*4)
               2 000016AC 00000001     Y   11259  9588   9640
 =Y((12+3)/4*4)
               2 00002060 00000001     Y   13679 11888  12485  12950  13237
 =Y((12+3)/4*4)
               2 00002AAC 00000001     Y   16473 13943
 =Y((235+3)/4*4)
               2 00000D70 00000001     Y    9321  8555
 =Y(4)         2 00002AD8 00000001     Y   16477 14771
 =Y(4)         2 00002F2C 00000001     Y   17559 16753  17509

1SPELL    (SPEL2025) (12:55) (15MAR04) Macro and Copy Code Source Summary                                                   Page  134
- Con Source                                        Volume    Members                        HLASM R4.0  2004/03/15 12.55
0     PRIMARY INPUT                                           COMMENT  CSECT    DROP     END      EX       LPCHECK
                                                              LTORG    POP      PRINT    PUSH     START    TOPWD
                                                              USING
   L1 WYL.GS.WYL.WYLBUR.MACLIB                      SYSB05    ABORT    AINFO    BASE     COLINFO  CONTROL  CP
                                                              CPLOCAL  CV       CVLOCAL  ERROR    JCB      PFREE
                                                              RDRNG    RG       RTNCODES SCAN     SCANCB   SCANCHK
                                                              SCCBADR  SCINFO   SCINIT   SCKW     SCPOP    SCPUSH
                                                              SYSDSNS  TCCR     TCR      TNUM     TSEG     TTYPE
                                                              VLTORG   XTRACE
   L2 WYL.GG.SYS.MACLIB                             SYSB05    $BC      $BFLKUP  $BV      $CCLKUP  $CRS     $CSS     $L
                                                              $LA      $LBLAD   $LEXP    $LOR     $REL     $RGLKUP
                                                              $USLKUP  ACALL    BEGIN    CEIL     CLEAR    COMPROC
                                                              CSECT    DATA     DECR     DEFCC    DEX      DROP     DTEX
                                                              ELSE     ELSEIF   END      EX       FLAG     GEN
                                                              HIBAL    IDENT    IF       LABEL    LC       LOOP     LS
                                                              LTORG    MOVE     PEND     POP      PRETURN  PRINT    PROC
                                                              PUSH     QLTORG   RECORD   REG      REGS     SET
                                                              SETMSG   START    UNTIL    USING    VCALL    WHILE    WITH
                                                              XPROC
   L3 SYS3.IS.MACLIB                                SYSB05    CLRHI    SEG      SEGCB    SEGCR    SEGDC    SEGLD    SIB
                                                              SYSDEFN  XPOP     XPUSH
   L5 SYS1.MACLIB                                   MVSBR9    FREEMAIN GETMAIN  SYSSTATE

1SPELL    (SPEL2025) (12:55) (15MAR04) Dsect Cross Reference                                                                Page  135
-Dsect     Length      Id       Defn                                                         HLASM R4.0  2004/03/15 12.55
0$$$@R0   00000000  FFFFFFFE     705
 $$$@R1   00000000  FFFFFFFD     718
 $$$@R10  00000000  FFFFFFF4     835
 $$$@R11  00000000  FFFFFFF3     848
 $$$@R12  00000000  FFFFFFF2     861
 $$$@R13  00000000  FFFFFFF1     874
 $$$@R14  00000000  FFFFFFF0     887
 $$$@R15  00000000  FFFFFFEF     900
 $$$@R2   00000000  FFFFFFFC     731
 $$$@R3   00000000  FFFFFFFB     744
 $$$@R4   00000000  FFFFFFFA     757
 $$$@R5   00000000  FFFFFFF9     770
 $$$@R6   00000000  FFFFFFF8     783
 $$$@R7   00000000  FFFFFFF7     796
 $$$@R8   00000000  FFFFFFF6     809
 $$$@R9   00000000  FFFFFFF5     822
 $$$RADWA 000003E0  FFFFFFE5   10713
 $$$RCP   00001000  FFFFFFEC    2501
 $$$RCV   00000FB0  FFFFFFEE    1226
 $$$RCXWA 00000098  FFFFFFDF   16512
 $$$RDEV  0000000C  FFFFFFEB    4715
 $$$RDICTNRY
          00000020  FFFFFFE8    6712
 $$$RDTWA 000000F0  FFFFFFE7    6770
 $$$RGGWA 0000005C  FFFFFFE1   13709
 $$$RGSWA 0000016C  FFFFFFE0   14065
 $$$RJCB  000000D0  FFFFFFE9    6353
 $$$RLWWA 00000044  FFFFFFE3   11622
 $$$RLXWA 00000058  FFFFFFE2   11652
 $$$RNDWA 0000004C  FFFFFFDE   16965
 $$$RNSCNCB
          000000B0  FFFFFFED    2422
 $$$RSCWA 00000058  FFFFFFDD   18798
 $$$RSLWA 00000064  FFFFFFE4   11300
 $$$RSPWA 0000038C  FFFFFFE6    9341
 $$$RTTYPE
          0000010C  FFFFFFEA    6246
 HIBAL    00000000  FFFFFFFF     691

1SPELL    (SPEL2025) (12:55) (15MAR04) Using Map                                                                            Page  136
-                                                                                            HLASM R4.0  2004/03/15 12.55
   Stmt  -----Location----- Action ----------------Using----------------- Reg Max    Last  Label and Using Text
           Count      Id           Type          Value    Range     Id        Disp   Stmt
0   922  00000000  FFFFFFFF USING  ORDINARY    00000000 00001000 FFFFFFEF  15 000          @R15,15
    926  00000000  FFFFFFFF USING  ORDINARY    00000000 00001000 FFFFFFF0  14 002    2217  @R14,14
    930  00000000  FFFFFFFF USING  ORDINARY    00000000 00001000 FFFFFFF1  13 000          @R13,13
    934  00000000  FFFFFFFF USING  ORDINARY    00000000 00001000 FFFFFFF2  12 000          @R12,12
    938  00000000  FFFFFFFF USING  ORDINARY    00000000 00001000 FFFFFFF3  11 000          @R11,11
    942  00000000  FFFFFFFF USING  ORDINARY    00000000 00001000 FFFFFFF4  10 000          @R10,10
    946  00000000  FFFFFFFF USING  ORDINARY    00000000 00001000 FFFFFFF5   9 000          @R9,9
    950  00000000  FFFFFFFF USING  ORDINARY    00000000 00001000 FFFFFFF6   8 000          @R8,8
    954  00000000  FFFFFFFF USING  ORDINARY    00000000 00001000 FFFFFFF7   7 000          @R7,7
    958  00000000  FFFFFFFF USING  ORDINARY    00000000 00001000 FFFFFFF8   6 000          @R6,6
    962  00000000  FFFFFFFF USING  ORDINARY    00000000 00001000 FFFFFFF9   5 000   18060  @R5,5
    966  00000000  FFFFFFFF USING  ORDINARY    00000000 00001000 FFFFFFFA   4 000   17847  @R4,4
    970  00000000  FFFFFFFF USING  ORDINARY    00000000 00001000 FFFFFFFB   3 000    8446  @R3,3
    974  00000000  FFFFFFFF USING  ORDINARY    00000000 00001000 FFFFFFFC   2 000    8542  @R2,2
    978  00000000  FFFFFFFF USING  ORDINARY    00000000 00001000 FFFFFFFD   1 001    2216  @R1,1
    982  00000000  FFFFFFFF USING  ORDINARY    00000000 00001000 FFFFFFFE   0 000          @R0,0
    983  00000000  FFFFFFFF DROP                                            0              0
   1210  00000017  00000001 USING  ORDINARY    00000000 00001000 FFFFFFEC  11 D89   18440  CP,CPR
   1219  00000017  00000001 USING  ORDINARY    00000000 00001000 FFFFFFEE  12 890   19349  CV,CVR
   6844  00000032  00000001 USING  ORDINARY    00000032 00001000 00000001   7 D6D    7434  $$$43B,7
   6858  00000032  00000001 USING  ORDINARY    FFFFFFD8 00001000 FFFFFFE7   8 028    6869  DTWA-(4+36),R8
   6878  00000040  00000001 USING  ORDINARY    00000000 00001000 FFFFFFE7   6 0EC    7423  DTWA,R6
   7273  000001D2  00000001 USING  ORDINARY    00000000 00001000 FFFFFFE8   1 010    7320  DICTNRY,R1
   7329  00000232  00000001 USING  ORDINARY    00000000 00001000 FFFFFFFD   1 000          @R1,1
   7366  00000252  00000001 USING  ORDINARY    00000000 00001000 FFFFFFE8   1 00E    7392  DICTNRY,R1
   7398  00000266  00000001 USING  ORDINARY    00000000 00001000 FFFFFFFD   1 000    8542  @R1,1
   7450  000002AA  00000001 USING  ORDINARY    00000000 00001000 FFFFFFF6   8 000          @R8,8
   7455  000002AA  00000001 USING  ORDINARY    00000000 00001000 FFFFFFF7   7 000          @R7,7
   7474  000002B8  00000001 USING  ORDINARY    00000000 00001000 FFFFFFF8   6 000          @R6,6
   7514  000002D2  00000001 USING  ORDINARY    000002D2 00001000 00000001   7 A3E    7562  $$$59B,7
   7531  000002D6  00000001 USING  ORDINARY    00000000 00001000 FFFFFFE7   6 0EC    8623  DTWA,R6
   7577  00000300  00000001 USING  ORDINARY    00000000 00001000 FFFFFFF7   7 000          @R7,7
   7636  00000328  00000001 USING  ORDINARY    00000328 00001000 00000001   7 B1E    7708  $$$63B,7
   7716  0000035E  00000001 USING  ORDINARY    00000000 00001000 FFFFFFF7   7 000          @R7,7
   7783  00000386  00000001 USING  ORDINARY    00000386 00001000 00000001   7 A67    8048  $$$70B,7
   8061  00000470  00000001 USING  ORDINARY    00000000 00001000 FFFFFFF7   7 000          @R7,7
   8125  00000498  00000001 USING  ORDINARY    00000498 00001000 00000001   7 98A    8346  $$$80B,7
   8367  0000057C  00000001 USING  ORDINARY    00000000 00001000 FFFFFFF7   7 000          @R7,7
   8421  000005A4  00000001 USING  ORDINARY    000005A4 00001000 00000001   7 8A8    8555  $$$93B,7
   8562  00000628  00000001 USING  ORDINARY    00000000 00001000 FFFFFFF7   7 000          @R7,7
   8613  00000650  00000001 USING  ORDINARY    00000650 00001000 00000001   7 6D4    8635  $$$102B,7
   8644  0000067A  00000001 USING  ORDINARY    00000000 00001000 FFFFFFF7   7 000          @R7,7
   8663  00000688  00000001 USING  ORDINARY    00000000 00001000 FFFFFFF8   6 000          @R6,6
   9442  00000E6C  00000001 USING  ORDINARY    00000E6C 00001000 00000001   7 8E5   10080  $$$105B,7
   9456  00000E6C  00000001 USING  ORDINARY    FFFFFFD8 00001000 FFFFFFE6   8 028    9460  SPWA-(4+36),R8
   9468  00000E70  00000001 USING  ORDINARY    00000000 00001000 FFFFFFE6   6 38C   11024  SPWA,R6
  10096  000010BA  00000001 USING  ORDINARY    00000000 00001000 FFFFFFF6   8 000          @R8,8
  10101  000010BA  00000001 USING  ORDINARY    00000000 00001000 FFFFFFF7   7 000          @R7,7
  10358  00001312  00000001 USING  ORDINARY    00001312 00001000 00000001   7 469   10431  $$$125B,7
  10440  0000134C  00000001 USING  ORDINARY    00000000 00001000 FFFFFFF7   7 000          @R7,7
  10499  00001374  00000001 USING  ORDINARY    00001374 00001000 00000001   7 32C   10681  $$$128B,7
  10692  00001416  00000001 USING  ORDINARY    00000000 00001000 FFFFFFF7   7 000          @R7,7
  10770  00001482  00000001 USING  ORDINARY    00001482 00001000 00000001   7 330   11101  $$$138B,7
1SPELL    (SPEL2025) (12:55) (15MAR04) Using Map                                                                            Page  137
  10868  000014D0  00000001 USING  ORDINARY    00000000 00001000 FFFFFFE5   2 0C0   10964  ADWA,R2
  11116  000015FC  00000001 USING  ORDINARY    00000000 00001000 FFFFFFF7   7 000          @R7,7
  11135  0000160A  00000001 USING  ORDINARY    00000000 00001000 FFFFFFFC   2 000          @R2,2
  11141  0000160A  00000001 USING  ORDINARY    00000000 00001000 FFFFFFF8   6 000          @R6,6
  11182  00001624  00000001 USING  ORDINARY    00001624 00001000 00000001   7 000          $$$154B,7
  11200  00001624  00000001 USING  ORDINARY    00000000 00001000 FFFFFFF7   7 000          @R7,7
  11378  000017D2  00000001 USING  ORDINARY    000017D2 00001000 00000001   7 0EE   11567  $$$157B,7
  11392  000017D2  00000001 USING  ORDINARY    FFFFFFD8 00001000 FFFFFFE4   8 04C   11570  SLWA-(4+36),R8
  11577  00001862  00000001 USING  ORDINARY    00000000 00001000 FFFFFFF6   8 000          @R8,8
  11582  00001862  00000001 USING  ORDINARY    00000000 00001000 FFFFFFF7   7 000          @R7,7
  11727  000018E0  00000001 USING  ORDINARY    000018E0 00001000 00000001   7 817   12020  $$$169B,7
  11741  000018E0  00000001 USING  ORDINARY    FFFFFFD8 00001000 FFFFFFE2   8 040   11970  LXWA-(4+36),R8
  12037  00001A02  00000001 USING  ORDINARY    00000000 00001000 FFFFFFF6   8 000          @R8,8
  12042  00001A02  00000001 USING  ORDINARY    00000000 00001000 FFFFFFF7   7 000          @R7,7
  12102  00001A2A  00000001 USING  ORDINARY    00001A2A 00001000 00000001   7 716   12343  $$$178B,7
  12116  00001A2A  00000001 USING  ORDINARY    FFFFFFD8 00001000 FFFFFFE3   8 02C   12300  LWWA-(4+36),R8
  12377  00001AE4  00000001 USING  ORDINARY    00000000 00001000 FFFFFFF6   8 000          @R8,8
  12382  00001AE4  00000001 USING  ORDINARY    00000000 00001000 FFFFFFF7   7 000          @R7,7
  12440  00001B0C  00000001 USING  ORDINARY    00001B0C 00001000 00000001   7 5FE   12809  $$$191B,7
  12454  00001B0C  00000001 USING  ORDINARY    FFFFFFD8 00001000 FFFFFFE3   8 02C   12753  LWWA-(4+36),R8
  12823  00001C4C  00000001 USING  ORDINARY    00000000 00001000 FFFFFFF6   8 000          @R8,8
  12828  00001C4C  00000001 USING  ORDINARY    00000000 00001000 FFFFFFF7   7 000          @R7,7
  12915  00001CC6  00000001 USING  ORDINARY    00001CC6 00001000 00000001   7 39A   13033  $$$201B,7
  13049  00001D64  00000001 USING  ORDINARY    00000000 00001000 FFFFFFF7   7 000          @R7,7
  13107  00001D8C  00000001 USING  ORDINARY    00001D8C 00001000 00000001   7 39F   13322  $$$205B,7
  13121  00001D8C  00000001 USING  ORDINARY    FFFFFFD8 00001000 FFFFFFE2   8 040   13319  LXWA-(4+36),R8
  13334  00001E70  00000001 USING  ORDINARY    00000000 00001000 FFFFFFF6   8 000          @R8,8
  13339  00001E70  00000001 USING  ORDINARY    00000000 00001000 FFFFFFF7   7 000          @R7,7
  13396  00001E98  00000001 USING  ORDINARY    00001E98 00001000 00000001   7 2AE   13611  $$$211B,7
  13410  00001E98  00000001 USING  ORDINARY    FFFFFFD8 00001000 FFFFFFE3   8 02C   13578  LWWA-(4+36),R8
  13623  00001F34  00000001 USING  ORDINARY    00000000 00001000 FFFFFFF6   8 000          @R8,8
  13628  00001F34  00000001 USING  ORDINARY    00000000 00001000 FFFFFFF7   7 000          @R7,7
  13786  00002166  00000001 USING  ORDINARY    00002166 00001000 00000001   7 978   13972  $$$222B,7
  13800  00002166  00000001 USING  ORDINARY    FFFFFFD8 00001000 FFFFFFE1   8 044   13969  GGWA-(4+36),R8
  13981  0000224E  00000001 USING  ORDINARY    00000000 00001000 FFFFFFF6   8 000          @R8,8
  13986  0000224E  00000001 USING  ORDINARY    00000000 00001000 FFFFFFF7   7 000          @R7,7
  14150  000022C6  00000001 USING  ORDINARY    000022C6 00001000 00000001   7 90A   14771  $$$228B,7
  14164  000022C6  00000001 USING  ORDINARY    FFFFFFD8 00001000 FFFFFFE0   8 028   14171  GSWA-(4+36),R8
  14179  000022CA  00000001 USING  ORDINARY    00000000 00001000 FFFFFFE0   6 16A   16404  GSWA,R6
  14254  00002310  00000001 USING  ORDINARY    00000000 00001000 FFFFFFE8   1 020   14258  DICTNRY,R1
  14265  00002320  00000001 USING  ORDINARY    00000000 00001000 FFFFFFFD   1 000   14313  @R1,1
  14779  000024E0  00000001 USING  ORDINARY    00000000 00001000 FFFFFFF6   8 000          @R8,8
  14784  000024E0  00000001 USING  ORDINARY    00000000 00001000 FFFFFFF7   7 000          @R7,7
  14845  00002508  00000001 USING  ORDINARY    00002508 00001000 00000001   7 5D4   14999  $$$250B,7
  15008  000025C8  00000001 USING  ORDINARY    00000000 00001000 FFFFFFF7   7 000          @R7,7
  15075  000025F0  00000001 USING  ORDINARY    000025F0 00001000 00000001   7 4EC   15454  $$$259B,7
  15463  00002760  00000001 USING  ORDINARY    00000000 00001000 FFFFFFF7   7 000          @R7,7
  15545  00002788  00000001 USING  ORDINARY    00002788 00001000 00000001   7 31C   16024  $$$282B,7
  16032  00002942  00000001 USING  ORDINARY    00000000 00001000 FFFFFFF7   7 000          @R7,7
  16089  0000296A  00000001 USING  ORDINARY    0000296A 00001000 00000001   7 26C   16405  $$$315B,7
  16430  00002A38  00000001 USING  ORDINARY    00000000 00001000 FFFFFFF7   7 000          @R7,7
  16576  00002BF6  00000001 USING  ORDINARY    00002BF6 00001000 00000001   7 338   16753  $$$332B,7
  16590  00002BF6  00000001 USING  ORDINARY    FFFFFFD8 00001000 FFFFFFDF   8 080   16747  CXWA-(4+36),R8
  16634  00002C14  00000001 USING  ORDINARY    00000000 00001000 FFFFFFE8   1 020   16638  DICTNRY,R1
  16645  00002C24  00000001 USING  ORDINARY    00000000 00001000 FFFFFFFD   1 000   16679  @R1,1
  16761  00002CB6  00000001 USING  ORDINARY    00000000 00001000 FFFFFFF6   8 000          @R8,8
  16766  00002CB6  00000001 USING  ORDINARY    00000000 00001000 FFFFFFF7   7 000          @R7,7
  16822  00002CDE  00000001 USING  ORDINARY    00002CDE 00001000 00000001   7 236   16909  $$$340B,7
  16927  00002D2E  00000001 USING  ORDINARY    00000000 00001000 FFFFFFF7   7 000          @R7,7
1SPELL    (SPEL2025) (12:55) (15MAR04) Using Map                                                                            Page  138
  17018  00002D56  00000001 USING  ORDINARY    00002D56 00001000 00000001   7 1EA   17220  $$$348B,7
  17035  00002D58  00000001 USING  ORDINARY    00000000 00001000 FFFFFFF8   6 000          @R6,6
  17038  00002D58  00000001 USING  ORDINARY    00000000 00001000 FFFFFFDE   6 04C   17178  NDWA,R6
  17230  00002E14  00000001 USING  ORDINARY    00000000 00001000 FFFFFFF7   7 000          @R7,7
  17294  00002E3C  00000001 USING  ORDINARY    00002E3C 00001000 00000001   7 10A   17509  $$$363B,7
  17308  00002E3C  00000001 USING  ORDINARY    FFFFFFD8 00001000 FFFFFFE3   8 02C   17454  LWWA-(4+36),R8
  17517  00002EDE  00000001 USING  ORDINARY    00000000 00001000 FFFFFFF6   8 000          @R8,8
  17522  00002EDE  00000001 USING  ORDINARY    00000000 00001000 FFFFFFF7   7 000          @R7,7
  17615  00002F66  00000001 USING  ORDINARY    00002F66 00001000 00000001   7 166   18158  $$$374B,7
  18170  000030B2  00000001 USING  ORDINARY    00000000 00001000 FFFFFFF7   7 000          @R7,7
  18250  000030EA  00000001 USING  ORDINARY    000030EA 00001000 00000001   7 A80   18443  $$$409B,7
  18459  0000315E  00000001 USING  ORDINARY    00000000 00001000 FFFFFFF7   7 000          @R7,7
  18527  00003186  00000001 USING  ORDINARY    00003186 00001000 00000001   7 9BA   18549  $$$417B,7
  18561  00003192  00000001 USING  ORDINARY    00000000 00001000 FFFFFFE8   1 00C   18565  DICTNRY,R1
  18571  0000319E  00000001 USING  ORDINARY    00000000 00001000 FFFFFFFD   1 000          @R1,1
  18586  000031A4  00000001 USING  ORDINARY    00000000 00001000 FFFFFFF7   7 000          @R7,7
  18655  000031CC  00000001 USING  ORDINARY    000031CC 00001000 00000001   7 984   18723  $$$421B,7
  18675  000031D0  00000001 USING  ORDINARY    00000000 00001000 FFFFFFE8   1 00E   18715  DICTNRY,R1
  18721  000031F8  00000001 USING  ORDINARY    00000000 00001000 FFFFFFFD   1 000          @R1,1
  18743  0000320C  00000001 USING  ORDINARY    00000000 00001000 FFFFFFF7   7 000          @R7,7
  18868  00003234  00000001 USING  ORDINARY    00003234 00001000 00000001   7 950   19293  $$$426B,7
  18885  00003236  00000001 USING  ORDINARY    00000000 00001000 FFFFFFF8   6 000          @R6,6
  18888  00003236  00000001 USING  ORDINARY    00000000 00001000 FFFFFFDD   6 018   19510  SCWA,R6
  19303  00003366  00000001 USING  ORDINARY    00000000 00001000 FFFFFFF7   7 000          @R7,7
  19361  0000338E  00000001 USING  ORDINARY    0000338E 00001000 00000001   7 7FC   19511  $$$455B,7
  19528  00003428  00000001 USING  ORDINARY    00000000 00001000 FFFFFFF7   7 000          @R7,7

1         (SPEL2025) (12:55) (15MAR04) General Purpose Register Cross Reference                                             Page  139
- Register  References (M=modified, B=branch, U=USING, D=DROP, N=index)                      HLASM R4.0  2004/03/15 12.55
0    0(0)      982U   983D  2146   2214M  2214   2215M  6826   6948M  6948   6970M  7010M  7030   7068M  7171M  7171
              7190M  7240M  7284M  7284   7285   7286   7332M  7334   7374M  7386   7392M  7401   7423M  7425   7435M
              7463M  7497   7585M  7619   7649   7707   7724M  7766   7793M  7793   7810   7824   7958M  7983M  8008M
              8033M  8069M  8108   8219M  8328M  8375M  8404   8462M  8470   8495M  8570M  8596   8623M  8625   8636M
              8652M  9424   9532M  9567M  9567   9576   9577   9619M  9619   9628   9629   9721M  9797M  9820M  9871M
              9961M  9998M  9998  10016M 10030M 10030  10050M 10056  10063M 10063  10109M 10341  10396M 10414M 10432M
             10448M 10482  10516M 10517  10537M 10700M 10753  10935M 10937M 10964M 10966M 10993M 10993  11011M 11025M
             11025  11045M 11051  11058M 11058  11068M 11086M 11124M 11165  11208M 11360  11406M 11407  11432M 11590M
             11709  11776M 11789M 11796M 11797  11820M 11829M 11830M 11857  11868M 11868  11877  11878  11879  11906M
             11906  11941M 11970M 11995M 12021M 12050M 12084  12133  12147  12206  12209  12235  12266M 12298M 12298
             12324M 12390M 12422  12464M 12464  12473  12474  12515M 12540M 12556M 12562M 12601M 12601  12638M 12663M
             12663  12723M 12723  12760M 12785M 12785  12836M 12898  12930M 12930  12939  12940  12941  12968M 12968
             13003M 13024M 13030M 13057M 13089  13139M 13146M 13147  13169M 13178M 13179M 13206  13217M 13217  13226
             13227  13228  13255M 13255  13290M 13319M 13347M 13378  13427  13441  13470M 13490  13493  13519  13544M
             13576M 13576  13636M 13768  13832M 13844M 13851M 13852  13874M 13883M 13884M 13911  13922M 13922  13931
             13932  13961M 13994M 14132  14190  14284M 14285  14286  14373M 14373  14393M 14393  14396M 14437M 14438M
             14451  14496  14560M 14590M 14633M 14676M 14719M 14737M 14792M 14828  14898M 14926M 14927  14936  14983M
             14996M 14996  15016M 15058  15166M 15196M 15220  15437M 15451M 15451  15471M 15528  15558M 15593M 15594
             15963M 16004M 16021M 16021  16040M 16072  16127  16149  16156M 16178M 16222M 16295  16310  16325  16438M
             16558  16604  16651M 16652  16697M 16733M 16774M 16805  16831  16920  16935M 17001  17238M 17276  17343
             17357  17366  17369  17395  17420M 17452M 17452  17530M 17598  17630M 17761  17971  18002  18148M 18150M
             18157M 18157  18163  18178M 18233  18270  18277  18284M 18299M 18355M 18355  18432M 18432  18467M 18510
             18579  18594M 18638  18714M 18724  18736  18751M 18851  19311M 19344  19378M 19385  19421  19536M
     1(1)      978U  2146   2209M  2210M  2216M  6826   6880M  6881   6882   6883   6969M  7029   7066M  7067   7068
              7071M  7073   7078M  7079   7080   7080   7081M  7081N  7082   7083   7084M  7085   7086   7087M  7088M
              7089   7092M  7094   7095N  7096M  7096N  7097   7098M  7099M  7100   7191M  7216M  7217M  7217N  7229
              7239M  7258M  7259   7260   7261M  7261N  7262   7265M  7273U  7277   7281   7321   7329U  7331M  7333
              7334N  7337M  7337   7341M  7353   7366U  7398U  7400   7401N  7404M  7404   7414M  7415   7422M  7424
              7425N  7428M  7428   7434M  7463M  7497   7564M  7565M  7565N  7566   7585M  7619   7648   7708M  7709
              7724M  7766   7795   7797   7823   7957M  7982M  8007M  8032M  8069M  8108   8218M  8327M  8375M  8404
              8431M  8433   8434   8435N  8469M  8469N  8494M  8570M  8596   8622M  8624   8625N  8628M  8628   8635M
              8652M  9424   9484M  9485   9515   9531M  9563M  9576N  9577N  9579N  9615M  9628N  9629N  9631N  9722M
              9798M  9821M  9870M  9960M  9994M 10015M 10029M 10050N 10051M 10051N 10056M 10077M 10109M 10341  10395M
             10413M 10431M 10448M 10482  10514  10515  10516  10518M 10536M 10673M 10700M 10753  10870M 10871  10873M
             10874  10916  10936M 10937M 10965M 10966M 10971M 10972M 10972N 10973  10989M 11010M 11024M 11045N 11046M
             11046N 11051M 11067M 11085M 11124M 11165  11208M 11360  11404  11405  11406  11413M 11431M 11451M 11452M
             11453N 11473  11559M 11590M 11709  11775M 11788M 11794  11795  11796  11798M 11819M 11828M 11830  11856
             11864M 11877N 11878N 11879N 11940M 11969M 11994M 12020M 12050M 12084  12221  12299M 12323M 12390M 12422
             12460M 12473N 12474N 12476N 12514M 12539M 12597M 12631M 12719M 12753M 12836M 12898  12926M 12939N 12940N
             12941N 13002M 13057M 13089  13138M 13144  13145  13146  13148M 13168M 13177M 13179  13205  13213M 13226N
             13227N 13228N 13289M 13318M 13347M 13378  13469M 13505  13577M 13636M 13768  13815  13831M 13843M 13849
             13850  13851  13853M 13873M 13882M 13884  13910  13918M 13931N 13932N 13934N 13960M 13969M 13994M 14132
             14190  14246  14254U 14265U 14284M 14326M 14327  14395M 14436M 14438  14439  14451  14457  14478M 14478N
             14484M 14496  14502  14523M 14523N 14559M 14589M 14632M 14675M 14718M 14736M 14765M 14792M 14828  14897M
             14903  14917M 14933M 14935  14948  14954  14966  14972M 14972N 14982M 15016M 15058  15165M 15171  15190M
             15271M 15279M 15279N 15281  15293  15318  15322  15324M 15324N 15337  15338M 15346M 15346N 15348  15360
             15387  15389  15401M 15401N 15418M 15419  15421M 15436M 15471M 15528  15557M 15563  15587M 15647M 15655M
             15655N 15657  15709  15733M 15741M 15741N 15743  15821M 15829M 15829N 15831  15883  15885M 15885N 15886
             15898M 15899  15911  15962M 16003M 16009  16040M 16072  16149  16155M 16178M 16221M 16337  16438M 16558
             16603  16626  16634U 16645U 16647M 16648  16649  16650M 16691M 16692  16696M 16702  16709M 16732M 16747M
             16774M 16805  16832  16915M 16917M 16918M 16920  16935M 17001  17027  17047M 17067M 17078M 17090  17098M
             17098  17150  17158M 17158  17173  17179  17202  17238M 17276  17381  17453M 17530M 17598  17627  17630
             17710  17874  18087  18146  18149M 18150  18163  18178M 18233  18277  18283M 18299M 18467M 18510  18536M
             18548  18561U 18571U 18577  18579  18594M 18638  18675U 18677M 18677  18715M 18721U 18723  18724N 18727M
             18727  18736  18751M 18851  18877  18892M 18893  18896M 18896  18936M 18950M 18951  18962  18998  19004M
1         (SPEL2025) (12:55) (15MAR04) General Purpose Register Cross Reference                                             Page  140
             19005N 19027M 19027N 19036  19037M 19037  19077M 19096M 19116M 19117N 19125M 19125N 19129  19174  19192M
             19243M 19311M 19344  19370  19373M 19374  19377M 19385  19387  19399  19405M 19405N 19413  19421  19423
             19425  19427  19429M 19429N 19437  19438M 19439  19462  19469M 19476M 19478  19536M
     2(2)      974U  2146   6826   7093M  7095   7275M  7276   7282   7290M  7292   7305   7311   7312M  7312N  7320M
              7321N  7323   7463M  7497   7585M  7619   7648M  7724M  7766   7823M  7825   7838   7910M  7910N  8069M
              8108   8152M  8163   8170M  8170N  8176   8179   8246   8253M  8253N  8259   8260M  8261M  8262   8345M
              8346M  8347   8375M  8404   8435M  8452   8453M  8453N  8468M  8471N  8570M  8596   8652M  9424  10109M
             10341  10448M 10482  10511M 10512  10700M 10753  10859M 10868U 11124M 11135U 11165  11208M 11360  11408
             11453M 11529  11550  11590M 11709  12050M 12084  12207M 12208  12229M 12230  12300M 12390M 12422  12602M
             12724M 12836M 12898  13057M 13089  13347M 13378  13491M 13492  13513M 13514  13578M 13636M 13768  13994M
             14132  14256M 14257  14258M 14259  14439M 14484  14792M 14828  14934M 14966  14973M 14973N 15016M 15058
             15272M 15280M 15280N 15293  15320  15339M 15347M 15347N 15360  15385  15419M 15420M 15420N 15471M 15528
             15648M 15656M 15656N 15657  15734M 15742M 15742N 15743  15795  15822M 15830M 15830N 15831  15899  15911
             16040M 16072  16308M 16311  16325N 16337  16345M 16345  16347N 16438M 16558  16636M 16637  16638M 16639
             16774M 16805  16831M 16856  16896  16935M 17001  17048M 17048  17049M 17050M 17052M 17067  17069M 17070M
             17078  17100M 17101M 17119  17160M 17161M 17163M 17163  17173M 17177M 17178  17238M 17276  17367M 17368
             17389M 17390  17454M 17530M 17598  17632M 17632  17649M 17650M 17650  17668M 17668  17690M 17690  17721M
             17721  17744M 17745M 17745  17772M 17772  17813M 17814M 17814  17832M 17832  17854M 17854  17885M 17885
             17910M 17911M 17911  17929M 17929  17951M 17951  17982M 17982  18026M 18027M 18027  18045M 18067M 18098M
             18098  18178M 18233  18324M 18325M 18337  18467M 18510  18563M 18564M 18564N 18565  18594M 18638  18679M
             18680M 18681  18696  18751M 18851  18897M 18897  18936M 19038M 19038  19077M 19192M 19243M 19311M 19344
             19536M
     3(3)      970U  2146   6826   7276M  7277M  7278M  7278N  7279M  7280M  7283   7291M  7305   7321M  7331   7463M
              7497   7585M  7619   7649M  7652   7664M  7672M  7681M  7681   7688   7724M  7766   7824M  7825M  7838
              8069M  8108   8191M  8192   8193   8194M  8194N  8195   8300M  8301   8302   8303M  8303N  8304   8375M
              8404   8436M  8454M  8454N  8460M  8461M  8461N  8462   8470M  8471   8519M  8528M  8528   8535   8570M
              8596   8652M  9424  10109M 10341  10448M 10482  10700M 10753  10782M 10782  10803M 10804  10818M 10820
             10835M 10835N 10841N 10894M 10898M 10900  10915M 10915N 10919N 10933M 10938  10939M 10940  10943M 10945
             10960M 10960N 10963N 11124M 11165  11208M 11360  11474M 11483M 11483  11491M 11493  11590M 11709  12050M
             12084  12209M 12212M 12214  12235M 12254  12283  12390M 12422  12836M 12898  13057M 13089  13347M 13378
             13493M 13496M 13498  13519M 13532  13561  13636M 13768  13994M 14132  14792M 14828  14935M 14936M 14948
             15016M 15058  15337M 15418  15421  15471M 15528  15594M 15611  15623  15641  15678N 15679N 15727  15764N
             15765N 15815  15852N 15853N 16040M 16072  16309M 16313  16438M 16558  16774M 16805  16832M 16835M 16856
             16868M 16884M 16896  16909M 16915N 16935M 17001  17050M 17051M 17053M 17053  17070M 17071M 17072M 17072
             17081M 17083  17098N 17099N 17101M 17102M 17141M 17143  17158N 17159N 17161M 17162M 17174M 17177  17238M
             17276  17369M 17372M 17374  17395M 17408  17437  17530M 17598  17633M 17633  18178M 18233  18467M 18510
             18594M 18638  18751M 18851  18898M 18900  18936  18950  18974M 18974  19005M 19006M 19006N 19007M 19007
             19021M 19021  19039M 19041  19077  19096  19101M 19101  19117M 19118M 19118N 19119M 19119  19128M 19130
             19166  19311M 19344  19536M
     4(4)      966U  2146   6826   7292M  7293M  7311   7322M  7323M  7332   7463M  7497   7585M  7619   7724M  7766
              7826M  7826   7861M  7883M  7905M  7927   8069M  8108   8375M  8404   8471M  8472   8484   8570M  8596
              8652M  9424   9938M  9950   9994  10044  10057M 10109M 10341  10448M 10482  10700M 10753  10783M 10797
             10803N 10827  10841M 10841  10850M 10854  10875M 10888  10894N 10907  10919M 10919  10933  10934  10937M
             10938M 10940N 10952  10962  10963M 10963  10966M 10983M 10989  11039  11052M 11124M 11165  11208M 11360
             11472M 11473M 11590M 11709  12050M 12084  12390M 12422  12836M 12898  13057M 13089  13347M 13378  13636M
             13768  13994M 14132  14792M 14828  15016M 15058  15219M 15220M 15227M 15241  15266M 15266N 15320  15385
             15471M 15528  15678M 15686M 15688  15709  15764M 15772M 15774  15852M 15860M 15862  15883  15886  16040M
             16072  16310M 16311N 16328M 16330  16345N 16346M 16346  16347  16438M 16558  16603M 16650  16774M 16805
             16833M 16835  16855M 16868  16884  16935M 17001  17040M 17041  17049N 17068M 17068N 17069N 17090  17099M
             17099  17100N 17133  17150  17159M 17159  17160N 17172  17175M 17179M 17193M 17195  17238M 17276  17530M
             17598  17634M 17641M 17641N 17648M 17649N 17710  17736M 17743M 17743N 17744N 17761  17792  17805M 17805N
             17812M 17813N 17874  17896M 17896N 17900  18124  18145  18149  18178M 18233  18467M 18510  18594M 18638
             18751M 18851  18899M 18900M 18913  18920M 18927M 18929  18950N 19040M 19041M 19054  19061M 19068M 19070
             19096N 19129M 19130M 19142  19149M 19154  19157M 19159  19185  19236  19311M 19344  19413M 19414  19438
             19485  19536M
     5(5)      962U  2146   6826   7463M  7497   7585M  7619   7724M  7766   8069M  8108   8375M  8404   8570M  8596
              8652M  9424  10109M 10341  10448M 10482  10700M 10753  10784M 10797  10851M 10852M 10853M 10853N 10854
             10876M 10888  10934M 10936  10937M 10961M 10962M 10965  10966M 10967M 10968M 10969M 10969N 10970  11124M
             11165  11208M 11360  11590M 11709  12050M 12084  12390M 12422  12836M 12898  13057M 13089  13347M 13378
1         (SPEL2025) (12:55) (15MAR04) General Purpose Register Cross Reference                                             Page  141
             13636M 13768  13994M 14132  14286M 14290M 14299M 14299  14306  14792M 14828  15016M 15058  15471M 15528
             15679M 15687M 15688  15765M 15773M 15774  15795  15853M 15861M 15862  16040M 16072  16311M 16312  16313
             16438M 16558  16604M 16651  16656M 16665M 16665  16672  16774M 16805  16834M 16849  16889M 16935M 17001
             17176M 17202  17238M 17276  17530M 17598  17635M 17900M 17902M 17909M 17909N 17910N 17971  18002  18009M
             18018M 18018N 18025M 18026N 18087  18109M 18109N 18136  18148  18178M 18233  18467M 18510  18594M 18638
             18751M 18851  19036M 19039  19128  19175  19311M 19344  19536M
     6(6)      958U  2146   6826   6869M  6870   6878U  7463M  7474U  7497   7523M  7531U  7585M  7619   7724M  7766
              8069M  8108   8375M  8404   8570M  8596   8652M  8663U  9424   9460M  9468U  9473  10109M 10341  10448M
             10482  10508M 10700M 10753  11124M 11141U 11165  11208M 11360  11590M 11709  12050M 12084  12390M 12422
             12836M 12898  13057M 13089  13347M 13378  13636M 13768  13994M 14132  14171M 14179U 14792M 14828  15016M
             15058  15471M 15528  16040M 16072  16438M 16558  16774M 16805  16935M 17001  17027M 17035U 17038U 17238M
             17276  17530M 17598  17640M 17650N 17735M 17745N 17804M 17814N 17901M 17911N 18017M 18027N 18178M 18233
             18467M 18510  18594M 18638  18751M 18851  18877M 18885U 18888U 19311M 19344  19370M 19536M
     7(7)      954U  2139M  2139   2140B  2146   2152B  6826   6832M  6844U  7455U  7463M  7497   7502M  7514U  7577U
              7585M  7619   7624M  7636U  7716U  7724M  7766   7771M  7783U  8061U  8069M  8108   8113M  8125U  8367U
              8375M  8404   8409M  8421U  8562U  8570M  8596   8601M  8613U  8644U  8652M  9424   9430M  9442U 10101U
             10109M 10341  10346M 10358U 10440U 10448M 10482  10487M 10499U 10692U 10700M 10753  10758M 10770U 11116U
             11124M 11165  11170M 11182U 11200U 11208M 11360  11366M 11378U 11582U 11590M 11709  11715M 11727U 12042U
             12050M 12084  12090M 12102U 12382U 12390M 12422  12428M 12440U 12828U 12836M 12898  12903M 12915U 13049U
             13057M 13089  13095M 13107U 13339U 13347M 13378  13384M 13396U 13628U 13636M 13768  13774M 13786U 13986U
             13994M 14132  14138M 14150U 14784U 14792M 14828  14833M 14845U 15008U 15016M 15058  15063M 15075U 15463U
             15471M 15528  15533M 15545U 16032U 16040M 16072  16077M 16089U 16430U 16438M 16558  16564M 16576U 16766U
             16774M 16805  16810M 16822U 16927U 16935M 17001  17006M 17018U 17230U 17238M 17276  17282M 17294U 17522U
             17530M 17598  17603M 17615U 18170U 18178M 18233  18238M 18250U 18459U 18467M 18510  18515M 18527U 18586U
             18594M 18638  18643M 18655U 18743U 18751M 18851  18856M 18868U 19303U 19311M 19344  19349M 19361U 19528U
             19536M
     8(8)      950U  2146   6826   6828M  6858U  7450U  7459   7463M  7497   7498M  7581   7585M  7619   7620M  7720
              7724M  7766   7767M  8065   8069M  8108   8109M  8371   8375M  8404   8405M  8566   8570M  8596   8597M
              8648   8652M  9424   9426M  9456U 10096U 10105  10109M 10341  10342M 10444  10448M 10482  10483M 10696
             10700M 10753  10754M 11120  11124M 11165  11166M 11204  11208M 11360  11362M 11392U 11577U 11586  11590M
             11709  11711M 11741U 12037U 12046  12050M 12084  12086M 12116U 12377U 12386  12390M 12422  12424M 12454U
             12823U 12832  12836M 12898  12899M 13053  13057M 13089  13091M 13121U 13334U 13343  13347M 13378  13380M
             13410U 13623U 13632  13636M 13768  13770M 13800U 13981U 13990  13994M 14132  14134M 14164U 14779U 14788
             14792M 14828  14829M 15012  15016M 15058  15059M 15467  15471M 15528  15529M 16036  16040M 16072  16073M
             16434  16438M 16558  16560M 16590U 16761U 16770  16774M 16805  16806M 16920  16931  16935M 17001  17002M
             17234  17238M 17276  17278M 17308U 17517U 17526  17530M 17598  17599M 18163  18174  18178M 18233  18234M
             18463  18467M 18510  18511M 18579  18590  18594M 18638  18639M 18736  18747  18751M 18851  18852M 19307
             19311M 19344  19345M 19532  19536M
     9(9)      946U  2146
    10(A)      942U  2146
    11(B)      938U  1210U  2146
    12(C)      934U  1219U  2146
    13(D)      930U  2146   6823   6826   6828   6829M  6829   7459M  7463   7465   7494   7497   7498   7499M  7499
              7581M  7585   7587   7616   7619   7620   7621M  7621   7720M  7724   7726   7763   7766   7767   7768M
              7768   8065M  8069   8071   8105   8108   8109   8110M  8110   8371M  8375   8377   8401   8404   8405
              8406M  8406   8431   8432M  8432   8555M  8566M  8570   8572   8593   8596   8597   8598M  8598   8648M
              8652   8654   9421   9424   9426   9427M  9427   9571   9572   9573   9575M  9575   9588M  9589   9590
              9591   9623   9624   9625   9627M  9627   9640M  9641   9642   9643  10105M 10109  10111  10338  10341
             10342  10343M 10343  10444M 10448  10450  10479  10482  10483  10484M 10484  10696M 10700  10702  10750
             10753  10754  10755M 10755  10859  10860M 10860  10975M 11120M 11124  11126  11162  11165  11166  11167M
             11167  11204M 11208  11210  11357  11360  11362  11363M 11363  11586M 11590  11592  11706  11709  11711
             11712M 11712  11872  11873  11874  11876M 11876  11888M 11889  11890  11891  12046M 12050  12052  12081
             12084  12086  12087M 12087  12386M 12390  12392  12419  12422  12424  12425M 12425  12468  12469  12470
             12472M 12472  12485M 12486  12487  12488  12832M 12836  12838  12895  12898  12899  12900M 12900  12934
             12935  12936  12938M 12938  12950M 12951  12952  12953  13053M 13057  13059  13086  13089  13091  13092M
             13092  13221  13222  13223  13225M 13225  13237M 13238  13239  13240  13343M 13347  13349  13375  13378
             13380  13381M 13381  13632M 13636  13638  13765  13768  13770  13771M 13771  13926  13927  13928  13930M
             13930  13943M 13944  13945  13946  13990M 13994  13996  14129  14132  14134  14135M 14135  14190  14191M
             14191  14283M 14284  14763  14764M 14764  14771M 14772  14788M 14792  14794  14825  14828  14829  14830M
1         (SPEL2025) (12:55) (15MAR04) General Purpose Register Cross Reference                                             Page  142
             14830  15012M 15016  15018  15055  15058  15059  15060M 15060  15467M 15471  15473  15525  15528  15529
             15530M 15530  16036M 16040  16042  16069  16072  16073  16074M 16074  16149  16150M 16150  16177M 16178
             16434M 16438  16440  16555  16558  16560  16561M 16561  16745  16746M 16746  16753M 16754  16770M 16774
             16776  16802  16805  16806  16807M 16807  16931M 16935  16937  16998  17001  17002  17003M 17003  17234M
             17238  17240  17273  17276  17278  17279M 17279  17496  17497M 17497  17509M 17510  17526M 17530  17532
             17595  17598  17599  17600M 17600  18174M 18178  18180  18230  18233  18234  18235M 18235  18277  18278M
             18278  18298M 18299  18463M 18467  18469  18507  18510  18511  18512M 18512  18590M 18594  18596  18635
             18638  18639  18640M 18640  18747M 18751  18753  18848  18851  18852  18853M 18853  19307M 19311  19313
             19341  19344  19345  19346M 19346  19532M 19536  19538
    14(E)      926U  2146   2147M  2161   2162M  2163B  2165M  2166B  2186M  2187B  2191M  2192B  2194M  2195B  2197M
              2198B  2200M  2201B  2203M  2204M  2204B  2210   6823   6959M  6960M  6960B  6981M  6982M  6982B  7013M
              7014M  7014B  7028M  7029N  7030N  7034M  7034   7037M  7038M  7038B  7041M  7042M  7042B  7045M  7046M
              7046B  7063M  7064M  7064B  7107M  7108M  7108B  7182M  7183M  7183B  7194M  7195M  7195B  7199M  7200M
              7200B  7251M  7252M  7252B  7465M  7468B  7494   7536M  7537M  7537B  7540M  7541M  7541B  7558M  7559M
              7559B  7562M  7563M  7563B  7587M  7590B  7616   7726M  7729B  7763   7969M  7970M  7970B  7973M  7974M
              7974B  7994M  7995M  7995B  7998M  7999M  7999B  8019M  8020M  8020B  8023M  8024M  8024B  8044M  8045M
              8045B  8048M  8049M  8049B  8071M  8074B  8105   8230M  8231M  8231B  8339M  8340M  8340B  8377M  8380B
              8401   8466M  8467M  8467B  8506M  8507M  8507B  8510M  8511M  8511B  8572M  8575B  8593   8654M  8657B
              9421   9495M  9496M  9496B  9506M  9507M  9507B  9513M  9514M  9514B  9559M  9560M  9560B  9570M  9571
              9572   9573   9578M  9579   9582M  9583M  9583B  9586M  9589   9590   9591   9596M  9597M  9597B  9622M
              9623   9624   9625   9630M  9631   9634M  9635M  9635B  9638M  9641   9642   9643   9648M  9649M  9649B
              9725M  9726M  9726B  9773M  9774M  9774B  9777M  9778M  9778B  9801M  9802M  9802B  9824M  9825M  9825B
              9882M  9883M  9883B  9915M  9916M  9916B  9972M  9973M  9973B 10009M 10010M 10010B 10027M 10028M 10028B
             10054M 10055M 10055B 10066M 10067M 10067B 10080M 10081M 10081B 10111M 10114B 10338  10389M 10390M 10390B
             10407M 10408M 10408B 10425M 10426M 10426B 10450M 10453B 10479  10521M 10522M 10522B 10540M 10541M 10541B
             10573M 10574M 10574B 10602M 10603M 10603B 10625M 10626M 10626B 10647M 10648M 10648B 10657M 10658M 10658B
             10676M 10677M 10677B 10702M 10705B 10750  11004M 11005M 11005B 11022M 11023M 11023B 11049M 11050M 11050B
             11061M 11062M 11062B 11079M 11080M 11080B 11097M 11098M 11098B 11101M 11102M 11102B 11126M 11129B 11162
             11210M 11213B 11357  11416M 11417M 11417B 11435M 11436M 11436B 11562M 11563M 11563B 11592M 11595B 11706
             11787M 11788N 11789N 11793M 11793  11801M 11802M 11802B 11855M 11856N 11857N 11861M 11861  11871M 11872
             11873  11874  11882M 11883M 11883B 11886M 11889  11890  11891  11896M 11897M 11897B 11934M 11935M 11935B
             11952M 11953M 11953B 11973M 11974M 11974B 12052M 12055B 12081  12164M 12165M 12165B 12185M 12186M 12186B
             12269M 12270M 12270B 12303M 12304M 12304B 12392M 12395B 12419  12467M 12468  12469  12470  12475M 12476
             12479M 12480M 12480B 12483M 12486  12487  12488  12493M 12494M 12494B 12526M 12527M 12527B 12551M 12552M
             12552B 12559M 12560M 12560B 12565M 12566M 12566B 12605M 12606M 12606B 12649M 12650M 12650B 12674M 12675M
             12675B 12727M 12728M 12728B 12771M 12772M 12772B 12796M 12797M 12797B 12838M 12841B 12895  12933M 12934
             12935  12936  12944M 12945M 12945B 12948M 12951  12952  12953  12958M 12959M 12959B 12996M 12997M 12997B
             13014M 13015M 13015B 13027M 13028M 13028B 13033M 13034M 13034B 13059M 13062B 13086  13137M 13138N 13139N
             13143M 13143  13151M 13152M 13152B 13204M 13205N 13206N 13210M 13210  13220M 13221  13222  13223  13231M
             13232M 13232B 13235M 13238  13239  13240  13245M 13246M 13246B 13283M 13284M 13284B 13301M 13302M 13302B
             13322M 13323M 13323B 13349M 13352B 13375  13452M 13453M 13453B 13481M 13482M 13482B 13547M 13548M 13548B
             13581M 13582M 13582B 13638M 13641B 13765  13813M 13814M 13814B 13842M 13843N 13844N 13848M 13848  13856M
             13857M 13857B 13909M 13910N 13911N 13915M 13915  13925M 13926  13927  13928  13933M 13934  13937M 13938M
             13938B 13941M 13944  13945  13946  13951M 13952M 13952B 13965M 13966M 13966B 13972M 13973M 13973B 13996M
             13999B 14129  14243M 14244M 14244B 14384M 14385M 14385B 14399M 14400M 14400B 14471M 14472M 14472B 14516M
             14517M 14517B 14532M 14533M 14533B 14583M 14584M 14584B 14601M 14602M 14602B 14644M 14645M 14645B 14687M
             14688M 14688B 14730M 14731M 14731B 14748M 14749M 14749B 14768M 14769M 14769B 14794M 14797B 14825  14901M
             14902M 14902B 14920M 14921M 14921B 14986M 14987M 14987B 14999M 15000M 15000B 15018M 15021B 15055  15169M
             15170M 15170B 15193M 15194M 15194B 15217M 15218M 15228M 15229  15241  15267  15322  15387  15440M 15441M
             15441B 15454M 15455M 15455B 15473M 15476B 15525  15561M 15562M 15562B 15590M 15591M 15591B 15597M 15599M
             15611  15641  15966M 15967M 15967B 16007M 16008M 16008B 16024M 16025M 16025B 16042M 16045B 16069  16167M
             16168M 16168B 16185M 16186M 16186B 16233M 16234M 16234B 16252M 16253M 16253B 16440M 16443B 16555  16607M
             16608M 16608B 16700M 16701M 16701B 16712M 16713M 16713B 16736M 16737M 16737B 16750M 16751M 16751B 16776M
             16779B 16802  16937M 16940B 16998  17240M 17243B 17273  17423M 17424M 17424B 17457M 17458M 17458B 17502M
             17503M 17503B 17532M 17535B 17595  18180M 18183B 18230  18295M 18296M 18296B 18322M 18323M 18323B 18366M
             18367M 18367B 18443M 18444M 18444B 18469M 18472B 18507  18596M 18599B 18635  18753M 18756B 18848  19102M
             19102  19313M 19316B 19341  19538M 19541B
    15(F)      922U  2146   6956M  6978M  7117M  7117   7179M  7248M  7467M  7467   7550M  7550   7589M  7589   7728M
              7728   7792M  7792   7940M  7940   7948M  7966M  7991M  8016M  8041M  8073M  8073   8227M  8336M  8379M
1         (SPEL2025) (12:55) (15MAR04) General Purpose Register Cross Reference                                             Page  143
              8379   8503M  8574M  8574   8656M  8656   9592M  9592   9644M  9644   9787M  9787   9879M  9969M 10006M
             10024M 10113M 10113  10386M 10404M 10422M 10452M 10452  10599M 10654M 10704M 10704  11001M 11019M 11076M
             11094M 11128M 11128  11212M 11212  11409  11570M 11594M 11594  11892M 11892  11931M 11949M 11986  12012
             12054M 12054  12156M 12156  12177M 12198M 12242M 12261M 12271M 12290M 12313M 12313  12368M 12368  12394M
             12394  12489M 12489  12523M 12548M 12555M 12561M 12579M 12579  12590M 12590  12596M 12615M 12615  12646M
             12671M 12679M 12679  12701M 12701  12712M 12712  12718M 12737M 12737  12768M 12793M 12801M 12801  12840M
             12840  12954M 12954  12993M 13011M 13023M 13029M 13061M 13061  13241M 13241  13280M 13298M 13351M 13351
             13478M 13520M 13539M 13549M 13568M 13640M 13640  13947M 13947  13962M 13962  13998M 13998  14204  14231
             14232  14233  14234M 14234N 14235  14381M 14580M 14598M 14607M 14641M 14650M 14684M 14693M 14727M 14745M
             14754M 14763  14772M 14796M 14796  15020M 15020  15475M 15475  15596M 15597  15598M 15598N 15623  15727
             16044M 16044  16164M 16230M 16367M 16367  16387M 16411M 16442M 16442  16620M 16620  16727M 16727  16745
             16754M 16778M 16778  16939M 16939  17214M 17214  17219M 17242M 17242  17396M 17415M 17425M 17444M 17467M
             17467  17483M 17483  17488M 17496  17510M 17534M 17534  17627M 17629M 17634  17635  17792  18124  18136
             18145M 18146M 18147M 18147N 18182M 18182  18292M 18319M 18363M 18440M 18471M 18471  18577M 18598M 18598
             18755M 18755  19287M 19287  19292M 19315M 19315  19497M 19497  19517M 19540M 19540

1SPELL    (SPEL2025) (12:55) (15MAR04) Diagnostic Cross Reference and Assembler Summary                                     Page  144
-                                                                                            HLASM R4.0  2004/03/15 12.55
0     No Statements Flagged in this Assembly
 HIGH LEVEL ASSEMBLER, 5696-234, RELEASE 4.0, PTF P72483
0SYSTEM: OS/390 02.10.00            JOBNAME: WYL#SPEL    STEPNAME: ASM        PROCSTEP: (NOPROC)
0Datasets Allocated for this Assembly
  Con DDname   Dataset Name                                 Volume  Member
   P1 SYSIN    WYL.GS.WYL.WYLBUR.SOURCE                     SYSB05  SPELL
   L1 SYSLIB   WYL.GS.WYL.WYLBUR.MACLIB                     SYSB05
   L2          WYL.GG.SYS.MACLIB                            SYSB05
   L3          SYS3.IS.MACLIB                               SYSB05
   L4          SYS3.MACLIB                                  SYSB02
   L5          SYS1.MACLIB                                  MVSBR9
   L6          SYS1.MODGEN                                  MVSBR9
      SYSPRINT SYS04075.T125518.RA000.WYL#SPEL.PRINT.H01    SCR101
      SYSTERM  GG$SLP.WYL#SPEL.JOB03564.D0000101.?

    3668K allocated to Buffer Pool,         2869K would be required for this to be an In-Storage Assembly
    3559 Primary Input Records Read        11930 Library Records Read                  0 Work File Reads
       0 ASMAOPT Records Read              10384 Primary Print Records Written         0 Work File Writes
       0 Punch Records Written                 0 ADATA Records Written
0Assembly Start Time: 12.55.20 Stop Time: 12.55.39 Processor Time: 00.00.03.4565
 Return Code 000
