1                        J E S 2  J O B  L O G  --  S Y S T E M  S Y S B  --  N O D E  R L G
0
 12.45.07 JOB03526 ---- MONDAY,    15 MAR 2004 ----
 12.45.07 JOB03526  ICH70001I GG$SLP   LAST ACCESS AT 12:44:39 ON MONDAY, MARCH 15, 2004
 12.45.07 JOB03526  $HASP373 WYL#FILE STARTED - INIT 9    - CLASS B - SYS SYSB
 12.45.07 JOB03526  ***  HCMD      STEP $$QUIET
 12.45.07 JOB03526  PUR * Q OUT MUL
 12.45.07 JOB03526  JOB 5390 WYL#FILE WILL BE PURGED
 12.45.08 JOB03526  WYL#FILE.$$QUIET .         RC=Zero TapeIO=0000 DiskIO=0000 CPU=  .01s Elapsed=07.09s
 12.45.23 JOB03526  WYL#FILE.ASM     .         RC=Zero TapeIO=0000 DiskIO=0734 CPU= 3.70s Elapsed=08.39s
 12.45.24 JOB03526  WYL#FILE.EDIT    .         RC=Zero TapeIO=0000 DiskIO=0129 CPU=  .39s Elapsed=23.60s
 12.45.24 JOB03526  WYL#FILE Ended.  Name=Assemble FILE                  Total CPU= 4.10s Elapsed=07.09s
 12.45.24 JOB03526
 12.45.24 JOB03526  Execution charges   Priority=Standard   Block=Day
 12.45.24 JOB03526
 12.45.24 JOB03526  CPU Usage          75.37          $46.72   Standard Processing Unit Equivalent
 12.45.24 JOB03526                                   =======
 12.45.24 JOB03526                                    $46.72   Total Job execution charge
 12.45.24 JOB03526
 12.45.24 JOB03526  See back separator page for print charges
 12.45.24 JOB03526
 12.45.24 JOB03526  $HASP395 WYL#FILE ENDED  ASM=0, EDIT=0
1        1 //WYL#FILE JOB SLP$GG,'Assemble FILE',TIME=4,REGION=4M                  JOB03526
           //*
           /*JOBPARM LINES=99,COPIES=1
           /*JOBPARM FORMS=3HOL,PFORMAT=LAND,CHARS=BD13,DUPLEX=YES,FLASH=BAR4
           //*
           /*JOBPARM NOTIFY=GG.SLP,HOLD=OUTPUT                                     WYLGEN
         2 //$$QUIET EXEC PGM=HCMDX,PARM='PUR * Q OUT MUL'
           //*
         3 //ASM    EXEC PGM=ASMA90,REGION=8M,
           //            PARM=('NORENT,TERM,FLAG(NOCONT),US(MAP,WARN(10)),NODECK',
           //            'LC(32767),XREF(SHORT),ESD,DXREF,NOOBJECT')
         4 //STEPLIB DD DSN=SYS3.IS.TESTASM,DISP=SHR
         5 //SYSLIB   DD  DSN=WYL.GS.WYL.WYLBUR.MACLIB,DISP=SHR
         6 //         DD  DSN=WYL.GG.SYS.MACLIB,DISP=SHR
         7 //         DD  DSN=SYS3.IS.MACLIB,DISP=SHR
         8 //         DD  DSN=SYS3.MACLIB,DISP=SHR
         9 //         DD  DSN=SYS1.MACLIB,DISP=SHR
        10 //         DD  DSN=SYS1.MODGEN,DISP=SHR
        11 //SYSUT1   DD DSN=&&SYSUT1,UNIT=VIO,DISP=(,DELETE),
           //            SPACE=(4088,(500,250),,CONTIG,ROUND)
        12 //SYSTERM  DD SYSOUT=T
        13 //SYSPRINT DD DSN=&&PRINT,UNIT=SYSDA,DISP=(,PASS),
           //            SPACE=(6650,(250,250),RLSE),
           //            DCB=(BLKSIZE=6650,LRECL=133,RECFM=FB)
        14 //SYSUDUMP DD SYSOUT=A
        15 //SYSIN    DD  DSN=WYL.GS.WYL.WYLBUR.SOURCE(FILE),DISP=SHR
           //*
        16 //EDIT    EXEC PGM=ASMEDIT,TIME=2,REGION=4000K,
           //             PARM='STMT'
        17 //STEPLIB  DD  DSN=WYL.GG.SYS.LINKLIB,DISP=SHR
        18 //ASMOUT   DD  DSN=&PRINT,DISP=(OLD,DELETE)
        19 //SYSPRINT DD  SYSOUT=A
1 STMT NO. MESSAGE
 -
        11 IGD01010I STORCLAS= TEMP STORGROUP =
        11 IGD01010I STORGRP=VIO ASSIGNED.
        13 IGD01010I STORCLAS= TEMP STORGROUP =
        13 IGD01010I STORGRP=VIO ASSIGNED.
 ICH70001I GG$SLP   LAST ACCESS AT 12:44:39 ON MONDAY, MARCH 15, 2004
 IEF142I WYL#FILE $$QUIET - STEP WAS EXECUTED - COND CODE 0000
 *********************************************************************************
 *   WYL#FILE/$$QUIET /                    Return Code      Zero                 *
 *   Region used      260K (16K user + 244K system)                              *
 *   Extended region  9464K (4K user + 9460K system)                             *
 *                                                                               *
 *   Paging              In      Out                                             *
 *   Private <-> Aux      0        0       CPU time (TCB)   00:00:00.01          *
 *   Private <-> Exp      0        0       CPU time (SRB)   00:00:00.00          *
 *   VIO                  0        0       Elapsed time    917:42:45.87          *
 *   Common               0      ---                                             *
 *                                                                               *
 *                                                                               *
 *   CPU Usage          0.18         $0.11  Standard Processing Unit Equivalent  *
 *                                   $0.11  Total Step execution charge          *
 *                                                                               *
 *    I/O count  DDname   Type Addr           I/O count  DDname   Type Addr      *
 *                         *** No I/O for this step ***                          *
 *********************************************************************************
 IEF373I STEP/$$QUIET /START 2004075.1245
 IEF374I STEP/$$QUIET /STOP  2004075.1245 CPU    0MIN 00.01SEC SRB    0MIN 00.00SEC VIRT    16K SYS   244K EXT       4K SYS    9460K
 IEF236I ALLOC. FOR WYL#FILE ASM
 IEF237I 04DC ALLOCATED TO STEPLIB
 IEF237I 04DC ALLOCATED TO SYSLIB
 IEF237I 04DC ALLOCATED TO
 IEF237I 04DC ALLOCATED TO
 IEF237I 0402 ALLOCATED TO
 IEF237I 04A0 ALLOCATED TO
 IEF237I 04A0 ALLOCATED TO
 IGD101I SMS ALLOCATED TO DDNAME (SYSUT1  )
         DSN (SYS04075.T124507.RA000.WYL#FILE.SYSUT1.H01  )
         STORCLAS (TEMP) MGMTCLAS (        ) DATACLAS (        )
         VOL SER NOS= VIO
 IEF237I JES2 ALLOCATED TO SYSTERM
 IGD101I SMS ALLOCATED TO DDNAME (SYSPRINT)
         DSN (SYS04075.T124507.RA000.WYL#FILE.PRINT.H01   )
         STORCLAS (TEMP) MGMTCLAS (        ) DATACLAS (        )
         VOL SER NOS= SCR101
 IEF237I JES2 ALLOCATED TO SYSUDUMP
 IEF237I 04DC ALLOCATED TO SYSIN
 IEF142I WYL#FILE ASM - STEP WAS EXECUTED - COND CODE 0000
 IEF285I   SYS3.IS.TESTASM                              KEPT
 IEF285I   VOL SER NOS= SYSB05.
 IEF285I   WYL.GS.WYL.WYLBUR.MACLIB                     KEPT
 IEF285I   VOL SER NOS= SYSB05.
 IEF285I   WYL.GG.SYS.MACLIB                            KEPT
 IEF285I   VOL SER NOS= SYSB05.
 IEF285I   SYS3.IS.MACLIB                               KEPT
 IEF285I   VOL SER NOS= SYSB05.
 IEF285I   SYS3.MACLIB                                  KEPT
 IEF285I   VOL SER NOS= SYSB02.
 IEF285I   SYS1.MACLIB                                  KEPT
 IEF285I   VOL SER NOS= MVSBR9.
 IEF285I   SYS1.MODGEN                                  KEPT
 IEF285I   VOL SER NOS= MVSBR9.
 IGD105I SYS04075.T124507.RA000.WYL#FILE.SYSUT1.H01   DELETED,   DDNAME=SYSUT1
 IEF285I   GG$SLP.WYL#FILE.JOB03526.D0000101.?          SYSOUT
 IGD106I SYS04075.T124507.RA000.WYL#FILE.PRINT.H01    PASSED,    DDNAME=SYSPRINT
 IEF285I   GG$SLP.WYL#FILE.JOB03526.D0000102.?          SYSOUT
 IEF285I   WYL.GS.WYL.WYLBUR.SOURCE                     KEPT
 IEF285I   VOL SER NOS= SYSB05.
 *********************************************************************************
 *   WYL#FILE/ASM     /                    Return Code      Zero                 *
 *   Region used      4376K (4096K user + 280K system)                           *
 *   Extended region  10064K (412K user + 9652K system)                          *
 *                                                                               *
 *   Paging              In      Out                                             *
 *   Private <-> Aux      0        0       CPU time (TCB)   00:00:03.63          *
 *   Private <-> Exp      0        0       CPU time (SRB)   00:00:00.07          *
 *   VIO                  0        0       Elapsed time    917:42:44.57          *
 *   Common               0      ---                                             *
 *                                                                               *
 *                                                                               *
 *   CPU Usage         68.06        $42.19  Standard Processing Unit Equivalent  *
 *                                  $42.19  Total Step execution charge          *
 *                                                                               *
 *    I/O count  DDname   Type Addr           I/O count  DDname   Type Addr      *
 *           83  STEPLIB  Disk 04DC                 349  SYSLIB   Disk 04DC      *
 *            0  SYSLIB   Disk 04DC                   0  SYSLIB   Disk 04DC      *
 *            0  SYSLIB   Disk 0402                 171  SYSLIB   Disk 04A0      *
 *            0  SYSLIB   Disk 04A0                   0  SYSUT1   VIO  ----      *
 *            0  SYSTERM       ----                 126  SYSPRINT Disk 04E3      *
 *            0  SYSUDUMP      ----                   5  SYSIN    Disk 04DC      *
 *********************************************************************************
 IEF373I STEP/ASM     /START 2004075.1245
 IEF374I STEP/ASM     /STOP  2004075.1245 CPU    0MIN 03.63SEC SRB    0MIN 00.07SEC VIRT  4096K SYS   280K EXT     412K SYS    9652K
 IEF236I ALLOC. FOR WYL#FILE EDIT
 IEF237I 0402 ALLOCATED TO STEPLIB
 IGD103I SMS ALLOCATED TO DDNAME ASMOUT
 IEF237I JES2 ALLOCATED TO SYSPRINT
 IEF142I WYL#FILE EDIT - STEP WAS EXECUTED - COND CODE 0000
 IEF285I   WYL.GG.SYS.LINKLIB                           KEPT
 IEF285I   VOL SER NOS= SYSB02.
 IGD105I SYS04075.T124507.RA000.WYL#FILE.PRINT.H01    DELETED,   DDNAME=ASMOUT
 IEF285I   GG$SLP.WYL#FILE.JOB03526.D0000103.?          SYSOUT
 *********************************************************************************
 *   WYL#FILE/EDIT    /                    Return Code      Zero                 *
 *   Region used      380K (116K user + 264K system)                             *
 *   Extended region  9588K (4K user + 9584K system)                             *
 *                                                                               *
 *   Paging              In      Out                                             *
 *   Private <-> Aux      0        0       CPU time (TCB)   00:00:00.38          *
 *   Private <-> Exp      0        0       CPU time (SRB)   00:00:00.01          *
 *   VIO                  0        0       Elapsed time    917:42:29.36          *
 *   Common               0      ---                                             *
 *                                                                               *
 *                                                                               *
 *   CPU Usage          7.12         $4.41  Standard Processing Unit Equivalent  *
 *                                   $4.41  Total Step execution charge          *
 *                                                                               *
 *    I/O count  DDname   Type Addr           I/O count  DDname   Type Addr      *
 *            2  STEPLIB  Disk 0402                 127  ASMOUT   Disk 04E3      *
 *            0  SYSPRINT      ----                                              *
 *********************************************************************************
 IEF373I STEP/EDIT    /START 2004075.1245
 IEF374I STEP/EDIT    /STOP  2004075.1245 CPU    0MIN 00.38SEC SRB    0MIN 00.01SEC VIRT   116K SYS   264K EXT       4K SYS    9584K
 *********************************************************************************
 *                                                                               *
 *                      S t a n f o r d   U n i v e r s i t y                    *
 *                                                                               *
 *                              *** Job Summary ***                              *
 *                                                                               *
 *   System Id      SYSB                   Input time     12:39:18  Mar 15, 2004 *
 *                                                                               *
 *   System Release SP6.1.0                Start time     12:45:07  Mar 15, 2004 *
 *                                                                               *
 *   Job name       WYL#FILE               Stop  time     00:00:00  Mar 15, 2004 *
 *                                                                               *
 *   Account        SLP$GG                 Elapsed time  917:42:45.87            *
 *                                                                               *
 *   User Name      Assemble FILE          CPU time       00:00:04.02            *
 *                                                                               *
 *   Job class      B                      SRB Time       00:00:00.08            *
 *                                                                               *
 *********************************************************************************
 IEF375I  JOB/WYL#FILE/START 2004075.1245
 IEF376I  JOB/WYL#FILE/STOP  2004075.1245 CPU    0MIN 04.02SEC SRB    0MIN 00.08SEC
1Assembler Done FILE No Statements Flagged
1         High Level Assembler Option Summary                   (PTF P72483 )                                               Page    1
-                                                                                            HLASM R4.0  2004/03/15 12.45
0  No Overriding ASMAOPT Parameters
   Overriding Parameters-  NORENT,TERM,FLAG(NOCONT),US(MAP,WARN(10)),NODECK,LC(32767),XREF(SHORT),ESD,DXREF,NOOBJECT
   No Process Statements


   Options for this Assembly
0  NOADATA
     ALIGN
   NOASA
     BATCH
     CODEPAGE(047C)
   NOCOMPAT
   NODBCS
 3 NODECK
 3   DXREF
 3   ESD
   NOEXIT
 3   FLAG(0,ALIGN,NOCONT,NOIMPLEN,NOPAGE0,PUSH,RECORD,NOSUBSTR,USING0)
   NOFOLD
   NOGOFF
   NOINFO
     LANGUAGE(EN)
   NOLIBMAC
 3   LINECOUNT(32767)
     LIST(121)
     MXREF(SOURCE)
 3 NOOBJECT
     OPTABLE(UNI,NOLIST)
   NOPCONTROL
   NOPESTOP
   NOPROFILE
   NORA2
 3 NORENT
     RLD
     RXREF
     SIZE(MAX)
     SYSPARM()
 3   TERM(WIDE)
   NOTEST
     THREAD
   NOTRANSLATE
 3   USING(NOLIMIT,MAP,WARN(10))
 3   XREF(SHORT)

   No Overriding DD Names

1FILE     External Symbol Dictionary                                                                                        Page    2
-Symbol   Type   Id     Address  Length     LD ID  Flags Alias-of                            HLASM R4.0  2004/03/15 12.45
0WYLFILE   SD 00000001 00000000 00002760             00
 FILE2025  LD          00000000           00000001
 OLDSAVE   LD          00000018           00000001
 EOV       LD          000007DC           00000001
 SCANTOK   ER 00000002
 SCINIT    ER 00000003
 ZODSNM    ER 00000004
 SCINFO    ER 00000005
 SCNEXFR   ER 00000006
 SCAN      ER 00000007
 SEG       ER 00000008
 ZDETRNG   ER 00000009
 ZSNFIN    ER 0000000A
 SEGB      ER 0000000B
 SEGTB     ER 0000000C
 YESREQ    ER 0000000D
 DOPEN     ER 0000000E
 SETPFXNS  ER 0000000F
 ACTNEXT   ER 00000010
 ACTPICK   ER 00000011
 DESPOT    ER 00000012
 EXTCLOSE  ER 00000013
 SEGCR     ER 00000014
 SEGDC     ER 00000015
 ACTRESET  ER 00000016
 CLRTEXT   ER 00000017
 CHKMBRIG  ER 00000018
 LRTRIM    ER 00000019
 EXIT0     ER 0000001A
 SETWNEWS  ER 0000001B
 SETWHELP  ER 0000001C
 SETWHOST  ER 0000001D
 SETWTERM  ER 0000001E
 SETWPRT   ER 0000001F
 SEGT      ER 00000020
 INITSTK   ER 00000021
 BTD       ER 00000022
 DEQUOTE   ER 00000023
 CLSCRPRT  ER 00000024
 DSNPRTF   ER 00000025
 VERPRT    ER 00000026
 COLLPRT   ER 00000027
 QUIETPRT  ER 00000028
 INVALID   ER 00000029
 DSNAUTH   LD          0000130A           00000001
 CONDENSE  ER 0000002A
 GETVINFO  ER 0000002B
 EXTWRITE  ER 0000002C
 GETLINFO  ER 0000002D
 CHKKW     ER 0000002E
 NTGDOPN   LD          00001A6E           00000001
 SEGCLR    ER 0000002F
 ACSCHECK  LD          000023B2           00000001
 SEGDSN    LD          00002452           00000001
 MEMBERED  LD          000025CC           00000001
1FILE     External Symbol Dictionary                                                                                        Page    3
 CHKMBRIG  LD          0000268C           00000001
 DSNAUTH   ER 00000030
 NTGDOPN   ER 00000031

1FILE     WYLBUR's File Access Commands                                                                                     Page    4
0Loc    Object Code    Addr1 Addr2  Stmt Lv Lineno    Source Statement                    (Asmedit 3.3)  HLASM R4.0  2004/03/15 12.45
+___    ______ ____    _____ _____  ____ __ ______    ______ _________
0                                      2              *******************************************************************
                                       3              *                                                                 *
                                       4              *     WYLBUR/370 - Release VI - Class I - Stanford Proprietary    *
                                       5              *                                                                 *
                                       6              *******************************************************************
                                       7                       HIBAL
                                     988
 000000                00000 02760   989              WYLFILE  CSECT
                                     993              FILE     IDENT 2025                11:49:23 01/25/02  (SLP)
                                     996             +
                                     997    01-IDENT +         ENTRY FILE2025
                                     998             +
 000000 16C6C9D3C5F2F0F2             999    01-IDENT +FILE2025 DC    AL1(22),C'FILE2025,15MAR04,12:45'
                                    1000             +*
                                    1002              *
                                    1003                       REGS   FSR,,,,,,IOWAR,BR,(WAR,LSR),PAR,PBR,CPR,CVR,SPR,RAR
-                                   1153                       SYSDEFN ,                 Define installation params
                                    1154                       GBLC  &PUBUSER,&PUBGRP,&INSTALN
                                    1155                       GBLB  &PROTECT
-                                   1157                       PUSH  DSECTS
 USING  CP,R11                      1169             =         USING (CP),(CV)
 USING  CV,R12
 000017                00000 02760  1188             =         POP   PRINT
1FILE     (FILE2025) (12:45) (15MAR04) DSECTS                                                                               Page    5
0Current Usings:  (CP,R11) (CV,R12)
0Loc    Object Code    Addr1 Addr2  Stmt Lv Lineno    Source Statement           (Hibal 5, Asmedit 3.3)  HLASM R4.0  2004/03/15 12.45
+___    ______ ____    _____ _____  ____ __ ______    ______ _________
0                                   9580                       COPY  LUVHDR
 000000                00000 00008  9581             =LUVHDR   RECORD BEGIN
 000000                             9589  1          =LUVENTNO   DS    A                   Number of lookup entries
 000004                             9590  1          =LUVENTLN   DS    A                   Length of lookup entry
 000008                             9591  1          =LUVENTS    DS    0F                  Location of first entry
 000008                00008 00008  9592             =         END
-
                                    9602                       COPY LUVENTRY
 000000                00000 00020  9603             =LUVENTRY RECORD BEGIN
 000000                             9611  1          =LUVNAME    DS    CL8                 Lookup name
 000008                             9612  1          =LUVCODE    DS    CL4                 Lookup value
 00000C                             9613  1          =LUVGMTP    DS    A                   A(primary mask table)
 000010                             9614  1          =LUVGENNO   DS    A                   Number of generic entries
 000014                             9615  1          =LUVGENP    DS    A                   A(first generic) GENSECT
 000018                             9616  1          =LUVFLAGS   DS    BL3                 FLAGS
 00001C                             9617  1          =           DS    0F
 00001C                             9618  1          =LUVAGMTP   DS    A                   A(alternate mask)
 000020                00020 00020  9619             =         END
1FILE     (FILE2025) (12:45) (15MAR04) SAVE Command                                                                         Page    6
0Current Usings:  (CP,R11) (CV,R12)
0Loc    Object Code    Addr1 Addr2  Stmt Lv Lineno    Source Statement           (Hibal 5, Asmedit 3.3)  HLASM R4.0  2004/03/15 12.45
+___    ______ ____    _____ _____  ____ __ ______    ______ _________
0                                   9629              ¿þþþþþþþþþþþþþþþþþþþþþþþþþþþþþþþþþþþþþþþþþþþþþþþþþþþþþþþþþþþþþþþþþþþþþÜ
                                    9630              Ÿ                                                                     Ÿ
                                    9631              Ÿ  SAVE -- SAVE/RESAVE commands.                                      Ÿ
                                    9632              Ÿ                                                                     Ÿ
                                                      ¾þþþþþþþþþþþþþþþþþþþþþþþþþþþþþþþþþþþþþþþþþþþþþþþþþþþþþþþþþþþþþþþþþþþþþ»
0000018 188D/4570 C74C_             9633              OLDSAVE  GENTER
 USING  *,R7
 000026                             9650              SAVEBASE LABEL ,                   Value in base register
 000026 D7FF BE5C BE5C_00E5C 00E5C  9652                       CLEAR (DSNWADSN,DSAVSIZ)
                                    9660
 000032 9610 BD50      00D50        9661                       SET   CPLFLG1.CPFALL      Set ALL ok for range
 000036 D502 7DFA BD24_00E20 00D24  9668                       IF    (CPCMNM,EQ,'RES'),BEGIN  Resave...
 000040 9640 BD51      00D51        9685  1                      SET   CPLFLG2.CPFSCRTC    Resave
 000044                             9692                       END
                                    9696
 000044 D202 BD24 7DFD 00D24 00E23  9697                       MVC   CPCMNM,=C'SAV'      SAVE from now on
                                    9698                       ¿þþþþþþþþþþþþþþþþþþþþþþþþþþÜ
                                    9699                       Ÿ  Check for no operands.  Ÿ
                                    9700                       ¾þþþþþþþþþþþþþþþþþþþþþþþþþþ»
 00004A D205 BC94 BCA8 00C94 00CA8  9701                       OSCSAVE
 000050 58E0 7BCA/0DEE       00BF0  9703                       VCALL SCANTOK             Pick up next token
 000056 4770 703A/D205_      00060  9707                       IF    Z,'OSCRSTR'        We have one, yeah
 000060 703E/47F0 704C 00060 00058  9725                       ELSE  BEGIN               No dsname...
 000064 4110 7B4A/4100_      00B70  9736  1                      OSCINIT '* VERIFY'        Default is "SAVE * VERIFY"
 000072                             9746                       END
                                    9750
 000072 58E0 7BD2/0DEE       00BF8  9751                       VCALL ZODSNM              Go get either or both
 000078 58E0 7BD6/0DEE       00BFC  9755                       OSCINFO                   Bump new scanner ptrs
 00007E 58E0 B08C/501E_      0008C  9760                       SCINIT (R1),(R0)            for SCNEXFR call
 00008C 58E0 7BDA/0DEE       00C00  9780                       VCALL SCNEXFR             See if execute file range
                                    9784
 000092 9501 BD89/4770_00D89        9785                       IF    CPFRDACT,BEGIN      Saving Active...
 00009A 9680 BD52      00D52        9800  1                      SET   CPLFLG3.CPFSET      SET is the default
 00009E                             9807                       END
                                    9811
 00009E 1B33/5030 BD64              9812                       CLEAR R3,CPNREC           Set nrecs to 0
 0000A4 5810 7BDE/58E0_      00C04  9821              GOTOSCN  OSCAN L:=A(SAVEPRT)       Go scan
 0000AE 5860 BD9C            00D9C  9833                       L     R6,CPLRCL           Set r6 to type specified
 0000B2 1203                        9834                       LTR   R0,R3               Nrecs given?
 0000B4 4780 70A8            000CE  9835                       BZ    CHKFRMT             No
 0000B8 1814/58E0 7BCE_             9836                       OSCINIT (R4),(R0)         Init scan
 0000C0 5810 7BE6/58E0_      00C0C  9853                       OSCAN L:=A(NRECPRT)       Get "nrec"
 0000CA 47F0 C7F0            007F0  9864                       B     CVABSENT            Error if missing
 0000CE 1266                        9865              CHKFRMT  LTR   R6,R6               Lrecl given
 0000D0 4740 712C            00152  9866                       BM    BESTER              None given, do no checking now
 0000D4 4780 7106            0012C  9867                       BZ    CHKEDT              Yes EDIT format
 0000D8 9110 BD54/47E0_00D54        9868              CHKLREC  IF    (~CPLFLG5.CPFFOPT,OR,CPLFLG5.CPFUNUM),CHKBLK  Unn
 0000E8 4800 BDA2            00DA2  9903                       LH    R0,CPSEQLN          Get length of seq field
 0000EC 9180 BDA0      00DA0        9904                       TM    CPSEQFLD,X'80'      Seq field at end
 0000F0 4710 70D4            000FA  9905                       BO    CHKLREC2            Yes
 0000F4 4A00 BDA0            00DA0  9906                       AH    R0,CPSEQFLD         Add start col for seq
 0000F8 0600                        9907                       DECR  R0                  Set for compare to lrecl
 0000FA 1906/47D0 70E6              9909              CHKLREC2 IF    (R0,GT,R6),BEGIN    Seq field out of bounds...
1FILE     (FILE2025) (12:45) (15MAR04) SAVE Command                                                                         Page    7
0Current Usings:  (*,R7) (CP,R11) (CV,R12)
0Loc    Object Code    Addr1 Addr2  Stmt Lv Lineno    Source Statement           (Hibal 5, Asmedit 3.3)  HLASM R4.0  2004/03/15 12.45
+___    ______ ____    _____ _____  ____ __ ______    ______ _________
0000100 4110 7BEA/4100_      00C10  9925  1                      ERROR 'Sequence field greater than lrecl specified.'
 00010C                             9932                       END
 00010C 5810 BD64            00D64  9936              CHKBLK   L     R1,CPNREC           Get block factor
 000110 1211                        9937                       LTR   R1,R1               Default block factor needed
 000112 4780 712C            00152  9938                       BZ    BESTER              Yes
 000116 1C06                        9939                       MR    R0,R6               Mult block factor & lrecl
 000118 4910 7CEA            00D10  9940                       CH    R1,=AL2(&BUFRMAX)   Too big?
 00011C 47D0 712C            00152  9941                       BNH   BESTER              No
 000120 4110 7E00/4100_      00E26  9942                       ERROR 'Blocksize is too big.'
                                    9949
 00012C 9110 BD54/47E0_00D54        9950              CHKEDT   IF    CPLFLG5.CPFFOPT,BEGIN   Number with EDIT format...
 000134 4110 7CEC/4100_      00D12  9967  1                      TSEG  'Sequence number can''t be added to '
 000146 4110 7D0E/4100_      00D34  9985  1                      ERROR 'EDIT format data sets.'
 000152                             9992                       END
                                    9996
 000152 58E0 7C1A/0DEE       00C40  9997              BESTER   ACALL SAVEOPTS            Check for consistent SAVE options
                                   10001
 000158 9110 BE28/4710_00E28       10002                       IF    (~CPFXMULT,AND,~DSNWAF3.DSNFLIN),'VCALL ZDETRNG'
 00016E 58E0 7C22/0DEE       00C48 10041                       VCALL ZSNFIN              Finish dsname parameters
                                   10045                       ¿þþþþþþþþþþþþþþþþþþþþþþþþþþþþþþþþþþþþþþþþþþþÜ
                                   10046                       Ÿ  Do verification prompt for SAVE VERIFY.  Ÿ
                                   10047                       ¾þþþþþþþþþþþþþþþþþþþþþþþþþþþþþþþþþþþþþþþþþþþ»
 000174 9120 BD58/47E0_00D58       10048                       IF    CPFVER,BEGIN        Verify...
 00017C 4110 7D24/4100_      00D4A 10063  1                      TSEG  'OK to '
 00018E 4110 7C26/4100_      00C4C 10081  1                      SETMSG 'save'
 000196 9140 BD51/47E0_00D51       10085  1                      IF    CPLFLG2.CPFSCRTC,'SETMSG "resave"'
 0001A6 41F0 B050/58E0_      00050 10110  1                      TSEG  (R1),(R0),B
 0001B0 D607 BE88 BE88_00E88 00E88 10134  1                      IF    ((DSNWAMBR,NZ),AND,(DSNWAMBR,NE,CVBLANKS)),BEGIN
 0001C4 4110 BE88/4100_      00E88 10167  2                        TSEG  DSNWAMBR,,TB
 0001D6 4110 7E15/4100_      00E3B 10195  2                        TSEG  'in '
 0001E8                            10213  1                      END
 0001E8 58E0 7C32/0DEE       00C58 10217  1                      ACALL SEGDSN              Dsname
 0001EE D627 BE90 BE90_00E90 00E90 10221  1                      IF    (DSNON,NZ),'TSEG "on "; TSEG DSNON,,TB'
 00021C 58F0 B05C/06F0_      0005C 10288  1                      DECR  R15,CPSEGLENF       Unseg trailing blank (kludge)
 000226 1B00                       10293  1                      CLEAR R0
 000228 58E0 7C36/0DEE       00C5C 10297  1                      VCALL YESREQ              Get Yes/No
 00022E                            10301                       END
                                   10305                      ¿þþþþþþþþþþþþþþþþþþþþþþþþþþþþþþþþþþþþþþþþþþþþþþþþþþþþþþþþþþþþþþþþÜ
                                   10306                      Ÿ   Do external device open if it's not for a disk.  Eventually  Ÿ
                                   10307                      Ÿ  disk opens should go through this mechanism too, but for now  Ÿ
                                   10308                      Ÿ   it uses the same old code which follows.                     Ÿ
                                   10309                      ¾þþþþþþþþþþþþþþþþþþþþþþþþþþþþþþþþþþþþþþþþþþþþþþþþþþþþþþþþþþþþþþþþ»
                                   10310              *         IF    (DSNDTYPE,NE,DSNDDISK),BEGIN  Not a disk...
                                   10311              *         IF    ~DSNWAF3.DSNFLIN,BEGIN  Saving entire file...
                                   10312              *         IF    CPFRDACT,'MVC DSNLTOT,CPALNCT'  No. lines
                                   10313              *         END
                                   10314              **
                                   10315              *         VCALL EXTOPEN             Open an external file for output
                                   10316              *         IF    (R15,NZ),CVNEXT
                                   10317              *         B     SAVECOM
                                   10318              *         END
1FILE     (FILE2025) (12:45) (15MAR04) SAVE Command                                                                         Page    8
0Current Usings:  (*,R7) (CP,R11) (CV,R12)
0Loc    Object Code    Addr1 Addr2  Stmt Lv Lineno    Source Statement           (Hibal 5, Asmedit 3.3)  HLASM R4.0  2004/03/15 12.45
+___    ______ ____    _____ _____  ____ __ ______    ______ _________
0                                  10319                       ¿þþþþþþþþþþþþþþþþþþþþþþþþþþþþþþþþþþþþþþþþþþþþþþþþÜ
                                   10320                       Ÿ  Our Disk driver doesn't know about "APPEND".  Ÿ
                                   10321                       ¾þþþþþþþþþþþþþþþþþþþþþþþþþþþþþþþþþþþþþþþþþþþþþþþþ»
 00022E 9110 BF39/47E0_00F39       10322                       IF    DSNFAPP,BEGIN
 000236 4110 7D30/4100_      00D56 10337  1                      ABORT 'APPEND option is not supported for this file type.'
 000242                            10344                       END
                                   10348
 000242 5800 BD9C/58F0_      00D9C 10349              ROPENN   DOPEN CPLRCL,=A(GETSIZE),SAVE  Open data set
                                   10363
 000254 58E0 7C42/0DEE_      00C68 10364                       IF    ('ACALL CHKVOL',Z),ROPENN  Retry operation
                                   10383
 00025E 12FF/4770 77CE             10384                       IF    (R15,NZ),PROBOPN    Something's wrong
                                   10401
 000264 90F1 D000/41D0_      00000 10402                       XPUSH R15,R1              (Safety)
 00026C 9180 BD52/47E0_00D52       10405                       IF    CPLFLG3.CPFSET,'VCALL SETPFXNS'  Set prefix
 00027A 4BD0 7D62/98F1_      00D88 10430                       XPOP  R15,R1
                                   10433
 000282 4120 0002            00002 10434                       LA    R2,2                Assume EDIT save
 000286 5830 BD9C            00D9C 10435                       L     R3,CPLRCL           Get lrecl
 00028A 1233                       10436                       LTR   R3,R3               Is it EDIT or fixed
 00028C 4780 7272            00298 10437                       BZ    ROPENN2             Br if EDIT
 000290 0630                       10438                       DECR  R3                  Set lrecl for ex moves
 000292 5030 BD64            00D64 10440                       ST    R3,CPNREC           Put in nrec
 000296 1B22                       10441                       CLEAR R2                  Set displacement for fixed
 000298 5010 BDD8            00DD8 10445              ROPENN2  ST    R1,CPDRED           Save external I/O buff addr
 00029C 5000 BD68            00D68 10446                       ST    R0,CPRCSZ           Save output record size
 0002A0 1A12                       10447                       AR    R1,R2               Point to addr for first text byte
 0002A2 5010 BD6C            00D6C 10448                       ST    R1,CPNXAD           Save
 0002A6 5020 BD70            00D70 10449                       ST    R2,CPNWCT           Into current count
                                   10450
 0002AA 9640 BD57      00D57       10451              SAVECOM  SET   CPFNCUR             Set not to change current
 0002AE D709 BE29 BE29 00E29 00E29 10458                       CLEAR CPNEDPFX            Always start of with zeros
                                   10465                       ¿þþþþþþþþþþþþþþþþþþÜ
                                   10466                       Ÿ  SAVE MULTIPLE.  Ÿ
                                   10467                       ¾þþþþþþþþþþþþþþþþþþ»
 0002B4 9110 BE28/47E0_00E28       10468                       IF    CPFXMULT,BEGIN      Save multiple...
 0002BC D203 BE38 B57C 00E38 0057C 10483  1                      MVC   CPSAVACT,CPACTNO    Save current Active file number
                                   10484  1                      ¿þþþþþþþþþþþþþþþþþþþþþþþþþþþþþþþþþþþþþþþþþþþþþþþþÜ
                                   10485  1                      Ÿ  First save all Actives (except the current).  Ÿ
                                   10486  1                      ¾þþþþþþþþþþþþþþþþþþþþþþþþþþþþþþþþþþþþþþþþþþþþþþþþ»
 0002C2 1B44                       10487  1                      CLEAR R4                  R4 = external set number
 0002C4 1B33                       10491  1                      CLEAR R3                  R3 = working set number
 0002C6                            10495  1                      LOOP  BEGIN
 0002C6 4110 7B52            00B78 10501  2                        LA    R1,=CL8'TEXT'
 0002CA 18F3                       10502  2                        LR    R15,R3
 0002CC 58E0 7C4A/0DEE       00C70 10503  2                        VCALL ACTNEXT             Find next Active
 0002D2 4780 72F8            0031E 10507  2                        IF    Z,EXIT              No more Actives, scram
 0002D6 183F                       10521  2                        LR    R3,R15              Save new working set number
 0002D8 58E0 7C4E/0DEE       00C74 10522  2                        VCALL ACTPICK             Select this Active
                                   10526  2
 0002DE D603 B5AC B5AC_005AC 005AC 10527  2                        IF    (CPALNCT,NZ),BEGIN  Save this Active...
 0002E8 5930 BE38/4780_      00E38 10543  3                          IF    (R3,EQ,CPSAVACT),EXIT  Current Active is saved last
 0002F0 4140 4001            00001 10563  3                          LA    R4,@R4+1            Kick working set counter
 0002F4 4040BE31                   10564  3                          ST2   R4,CPNEDSET         Save set number
1FILE     (FILE2025) (12:45) (15MAR04) SAVE Command                                                                         Page    9
0Current Usings:  (*,R7) (CP,R11) (CV,R12)
0Loc    Object Code    Addr1 Addr2  Stmt Lv Lineno    Source Statement           (Hibal 5, Asmedit 3.3)  HLASM R4.0  2004/03/15 12.45
+___    ______ ____    _____ _____  ____ __ ______    ______ _________
0                                  10566  3
 0002F8 D703 BD90 BD90 00D90 00D90 10567  3                          CLEAR CPFSLN
 0002FE D203 BD94 C15C 00D94 0015C 10574  3                          MVC   CPLSLN,CVMAXLNO     Set range=ALL
 000304 9200 BD88      00D88       10575  3                          CLEAR CPFRDRNG
 000308 9680 BD88      00D88       10582  3                          SET   CPFEXPRG            Explicit range
 00030C 9602 BD88      00D88       10588  3                          SET   CPFSOME             (Avoid "no lines found" message)
                                   10594  3
 000310 58F0 7B46            00B6C 10595  3                          L     R15,SAVEWRK
 000314 58E0 7C52/0DEE       00C78 10596  3                          VCALL DESPOT              Save this Active file
 00031A                            10600  2                        END
 00031A 47F0 72A0            002C6 10604  1                      END
                                   10609  1                      ¿þþþþþþþþþþþþþþþþþþþþþþþþþþþþþþþþþþþþþþÜ
                                   10610  1                      Ÿ  Save the current Active file last.  Ÿ
                                   10611  1                      ¾þþþþþþþþþþþþþþþþþþþþþþþþþþþþþþþþþþþþþþ»
 00031E 58F0 BE38            00E38 10612  1                      L     R15,CPSAVACT
 000322 58E0 7C4E/0DEE       00C74 10613  1                      VCALL ACTPICK             Switch back to orig Active
                                   10617  1
 000328 D507 7B52 B590_00B78 00590 10618  1                      IF    (CPATYPE,EQ,=CL8'TEXT'),BEGIN  Save current Active...
 000332 D701 BE31 BE31 00E31 00E31 10635  2                        CLEAR CPNEDSET            Set number is zero
 000338 D703 BD90 BD90 00D90 00D90 10642  2                        CLEAR CPFSLN
 00033E D203 BD94 C15C 00D94 0015C 10649  2                        MVC   CPLSLN,CVMAXLNO     Set range=ALL
 000344 9200 BD88      00D88       10650  2                        CLEAR CPFRDRNG
 000348 9680 BD88      00D88       10657  2                        SET   CPFEXPRG            Explicit range
 00034C 9602 BD88      00D88       10663  2                        SET   CPFSOME             (Avoid "no lines found" message)
                                   10669  2
 000350 58F0 7B46            00B6C 10670  2                        L     R15,SAVEWRK
 000354 58E0 7C52/0DEE       00C78 10671  2                        VCALL DESPOT              Save this Active file
 00035A                            10675  1                      END
 00035A                            10679                       END
                                   10683                       ¿þþþþþþþþþÜ
                                   10684                       Ÿ  SAVE.  Ÿ
                                   10685                       ¾þþþþþþþþþ»
 00035A 7338/47F0 7356 0035A 002BA 10686                       ELSE  BEGIN               Save current Active/Exec...
 00035E 58F0 7B46            00B6C 10697  1                      L     R15,SAVEWRK         Set addr for despot
 000362 9501 BD89/4780_00D89       10698  1                      IF    ~CPFRDACT,BEGIN     Is it active or exec range
 00036A 56F0 7C56            00C7C 10713  2                        O     R15,=AL1(LEXATRTN,0,0,0)  Set for exec range
 00036E                            10714  1                      END
 00036E 58E0 7C52/0DEE       00C78 10718  1                      VCALL DESPOT              Go to despot
 000374 9102 BD88/47E0_00D88       10722  1                      IF    ~CPFSOME,DOCLOSVD   Was range void
                                   10740  1                      COMMENT ,                 Branch yes for special close
 00037C                            10741                       END
                                   10745
 00037C 58E0 7C5A/0DEE       00C80 10746                       VCALL EXTCLOSE
 000382 D703 B5B4 B5B4 005B4 005B4 10750                       CLEAR CPACHCT             Clear change count
                                   10757
 000388 1B22/1B33                  10758                       CLEAR R2,R3               Compatibility with DCLOSE
 00038C 9501 BF3B/4770_00F3B       10764                       IF    (DSNDTYPE,EQ,DSNDDISK),BEGIN  DCLOSE passed rc...
 000394 182F                       10782  1                      LR    R2,R15              Save return code
 000396 1830                       10783  1                      LR    R3,R0               Also save second return code
 000398                            10784                       END
                                   10788
 000398 D603 B05C B05C_0005C 0005C 10789                       TCCR
 0003B8 9140 B474/47E0_00474       10851                       IF    CPFRCVY,BEGIN       Recovery save...
 0003C0 9601 B475      00475       10866  1                      SET   CPGFLG2.CPFACTSV    Set flag that recovery saved
1FILE     (FILE2025) (12:45) (15MAR04) SAVE Command                                                                         Page   10
0Current Usings:  (*,R7) (CP,R11) (CV,R12)
0Loc    Object Code    Addr1 Addr2  Stmt Lv Lineno    Source Statement           (Hibal 5, Asmedit 3.3)  HLASM R4.0  2004/03/15 12.45
+___    ______ ____    _____ _____  ____ __ ______    ______ _________
00003C4                            10873                       END
                                   10877
 0003C4 9140 BD56/47E0_00D56       10878                       IF    CPFTRUNC,BEGIN      Lines truncated...
 0003CC 4110 7E1B/4100_      00E41 10893  1                      TSEG  'Lines truncated to '
 0003DE 5810 BD9C/1B00_      00D9C 10911  1                      TNUM  L:CPLRCL
 0003EE 4110 7E2E/4100_      00E54 10933  1                      TSEG  ' characters when saved.',,CR
 000400                            10951                       END
                                   10955
 000400 1803                       10956                       LR    R0,R3               Restore R0 return code
 000402 12F2                       10957                       LTR   R15,R2              Restore and test return code
 000404 4780 7404            0042A 10958                       BZ    GOODCLOS            Br if everything normal
 000408 47B0 73FC            00422 10959                       IF    NEG,BEGIN           EOV or out of dir space...
 00040C 59F0 7C66/4770_      00C8C 10970  1                      IF    (R15,EQ,-2),'LA R15,RTNDIRFL; B PROBOPNA'  Dir
 00041C 58E0 7C6A/0DEE       00C90 10993  1                      ACALL NORMPDS             EOV -- no more space
 000422                            10997                       END
 000422 49F0 7D64            00D8A 11001                       CH    R15,=AL2(RTNCATER)  Test for cater
 000426 4780 789C            008C2 11002                       BE    BADOPEN             if yes it's error on stow
                                   11003              **  otherwise it's a catlg error
 00042A D601 BF64 BF64_00F64 00F64 11004              GOODCLOS IF    ((DSAVTITL,NZ),AND,~DSNWAF2.DSNFPDS),BEGIN
 00043C 4110 7E45/4100_      00E6B 11036  1                      TSEG  'TITLE option ignored.',,CR
 00044E 4110 7E5A/4100_      00E80 11054  1                      TSEG  'The TITLE option is only '
 000460 4110 7E73/4100_      00E99 11072  1                      TSEG  'allowed when saving into a library.',,CR
 000472                            11090                       END
                                   11094
 000472 9501 BD89/4770_00D89       11095                       IF    CPFRDACT,BEGIN  Only for Active file...
 00047A 9110 BE28/47E0_00E28       11110  1                      IF    CPFXMULT,BEGIN      Multiple...
 000482 9110 BD55/47E0_00D55       11125  2                        IF    CPFCLEAR,BEGIN      Clear specified...
 00048A 9604 BD55      00D55       11140  3                          SET   CPFNWARN            Must have NOWARN too
                                   11146  3           *        VCALL CLRMULT             Clear all
 00048E 58E0 7C6E/0DEE       00C94 11147  3                          VCALL ACTRESET            Wipe them out - MPD
 000494 D603 B56C B56C_0056C 0056C 11151  3                          IF    (CPATTEXT,NZ),BEGIN  Temporary???...    !!!!
 00049E D703 B56C B56C 0056C 0056C 11167  4                            CLEAR CPATTEXT                                !!!!
 0004A4                            11174  3                          END   ,                                       !!!!
 0004A4                            11178  2                        END
 0004A4                            11182  1                      END
                                   11186  1
 0004A4 7482/47F0 7490 004A4 00480 11187  1                      ELSE  BEGIN               Just clear current Active...
 0004A8 9118 BD55/4780_00D55       11198  2                        IF    CPFCLEAR+CPFKEEP,'VCALL CLRTEXT'  Clear/Keep
 0004B6                            11225  1                      END
 0004B6                            11229                       END
                                   11233
 0004B6 58E0 7C76/0DEE       00C9C 11234                       VCALL CHKMBRIG            Check member ignored
 0004BC 4D40 7738            0075E 11238                       BAS   R4,DSNORMEM         Go tseg first part of message
 0004C0 4110 7E96/4100_      00EBC 11239                       SETMSG 'saved'
 0004C8 9140 BD51/47E0_00D51       11243                       IF    CPLFLG2.CPFSCRTC,'SETMSG "replaced"'
 0004D8 9110 BF39/47E0_00F39       11268                       IF    DSNFAPP,'SETMSG "appended"'
 0004E8 41F0 B050/58E0_      00050 11292                       TSEG  (R1),(R0),B
                                   11316
 0004F2 9120 BD56/47E0_00D56       11317                       IF    CPFNOCAT,BEGIN
 0004FA 9120 BF35/4710_00F35       11332  1                      IF    DSNWAF2.DSNFPDS,EXIT
 000502 4110 7E9B/4100_      00EC1 11351  1                      SETMSG 'but not'
 00050A D505 BE90 BEB8_00E90 00EB8 11355  1                      IF    (DSNON6,EQ,DSNCATV),BEGIN
 000514 9140 BD51/4710_00D51       11373  2                        IF    CPLFLG2.CPFSCRTC,SAVINO  replaced
 00051C 4110 7EA2/4100_      00EC8 11392  2                        SETMSG 'and already'
1FILE     (FILE2025) (12:45) (15MAR04) SAVE Command                                                                         Page   11
0Current Usings:  (*,R7) (CP,R11) (CV,R12)
0Loc    Object Code    Addr1 Addr2  Stmt Lv Lineno    Source Statement           (Hibal 5, Asmedit 3.3)  HLASM R4.0  2004/03/15 12.45
+___    ______ ____    _____ _____  ____ __ ______    ______ _________
0000524                            11396  1                      END
 000524 41F0 B050/58E0_      00050 11400  1                      TSEG  (R1),(R0),B
 00052E 58E0 7C7A/0DEE       00CA0 11424  1                      ACALL CAT
 000534                            11428                       END
                                   11432
 000534 4D40 7750            00776 11433              SAVINO   BAS   R4,INORON           Put out in or on msg
 000538 D505 BEBE C4D8_00EBE 004D8 11434                       IF    (DSNBADV,NE,CVBLANKS),BEGIN  We had to improvise...
 000542 4110 7EAD/4100_      00ED3 11452  1                      TSEG  ' (instead of '
 000554 4110 BEBE/4100_      00EBE 11470  1                      SETMSG DSNBADV
 00055C 58E0 7C7E/0DEE       00CA4 11484  1                      VCALL LRTRIM
 000562 41F0 B050/58E0_      00050 11488  1                      TSEG  (R1),(R0),B
 00056C 4110 7EBA/4100_      00EE0 11512  1                      TSEG  'which is full) '
 00057E                            11530                       END
                                   11534
 00057E 9502 BD89/4770_00D89       11535              CHKCATD  IF    CPFRDEXE,'TSEG " from EXEC"'
 000598 1B00/41F0 B050_            11574                       TCR
 0005A4 12F2/4780 7590             11599                       IF    ('LTR R15,R2',NZ),BEGIN
 0005AA 4540 7738            0075E 11612  1                      BAL   R4,DSNORMEM
 0005AE 18F2                       11613  1                      LR    R15,R2
 0005B0 58E0 7C82/0DEE       00CA8 11614  1                      ACALL NTGDCAT
 0005B6                            11618                       END
                                   11622
 0005B6 4100 0007            00007 11623                       LA    R0,SDSNNEWS         Our news
 0005BA 58E0 7C86/0DEE       00CAC 11624                       VCALL EXIT0               LOCAL exit - format system dsname
 0005C0 955B 1000/4770_00000       11628                       IF    (@R1,EQ,'$'),'INCR R1; DECR R0'
 0005CE 4900 BF06/4770_      00F06 11654                       IF    (R0,EQ,DSNWANL),BEGIN
 0005D6 1820                       11671  1                      LR    R2,R0
 0005D8 1222/47D0 75BE_            11672  1                      TDEX  R2,'CLC @R1(*-*),DSNWADSN'
 0005E4 4770 75CC/58E0_      005F2 11710  1                      IF    EQ,'VCALL SETWNEWS; B UTILMSG'
 0005F2                            11731                       END
                                   11735                       ¿þþþþþþþþþþþþþþþþþþþþþþþþþþþþþþþþþþþþþþþþþþþþþþþþþþþÜ
                                   11736                       Ÿ  Local Stanford checks for RLGNEWS and SUH.NEWS.  Ÿ
                                   11737                       ¾þþþþþþþþþþþþþþþþþþþþþþþþþþþþþþþþþþþþþþþþþþþþþþþþþþþ»
                                   11738                       AIF   ('&INSTALN' NE 'STANFORD').NOT4S
 0005F2 D511 7D70 BE5C_00D96 00E5C 11739                       IF    (DSNWADSN,EQ,'WYL.GA.PUB.RLGNEWS'),BEGIN
 0005FC 9110 C4C4/47E0_004C4       11756  1                      IF    ~CVFRLG,EXIT        Not RLG machine
 000604 58E0 7C92/0DEE       00CB8 11774  1                      VCALL SETWHELP            Update help file
 00060A 47F0 772C            00752 11778  1                      B     UTILMSG
 00060E                            11779                       END
                                   11783
 00060E D512 7EC9 BE5C_00EEF 00E5C 11784                       IF    (DSNWADSN,EQ,'WYL.GA.PUB.SUH.NEWS'),BEGIN
 000618 D503 7C96 C00C_00CBC 0000C 11801  1                      IF    (CVMACHID,NE,'SYSC'),EXIT  Not SUH/SYSC machine
 000622 58E0 7C92/0DEE       00CB8 11821  1                      VCALL SETWHELP            Update help file
 000628 47F0 772C            00752 11825  1                      B     UTILMSG
 00062C                            11826                       END
                                   11830              .NOT4S   ANOP
                                   11831              *
                                   11832              *
 00062C 4100 0000            00000 11833                       LA    R0,SDSNHDIR         Help directory
 000630 58E0 7C86/0DEE       00CAC 11834                       VCALL EXIT0               LOCAL exit - format system dsname
 000636 955B 1000/4770_00000       11838                       IF    (@R1,EQ,'$'),'INCR R1; DECR R0'
 000644 4900 BF06/4770_      00F06 11864                       IF    (R0,EQ,DSNWANL),BEGIN
 00064C 1820                       11881  1                      LR    R2,R0
 00064E 1222/47D0 7634_            11882  1                      TDEX  R2,'CLC @R1(*-*),DSNWADSN'
1FILE     (FILE2025) (12:45) (15MAR04) SAVE Command                                                                         Page   12
0Current Usings:  (*,R7) (CP,R11) (CV,R12)
0Loc    Object Code    Addr1 Addr2  Stmt Lv Lineno    Source Statement           (Hibal 5, Asmedit 3.3)  HLASM R4.0  2004/03/15 12.45
+___    ______ ____    _____ _____  ____ __ ______    ______ _________
000065A 4770 7642/58E0_      00668 11920  1                      IF    EQ,'VCALL SETWHELP; B UTILMSG'
 000668                            11941                       END
                                   11945
 000668 4100 000A            0000A 11946                       LA    R0,SDSNHOSA         SYSA host table
 00066C 9110 C4C4/47E0_004C4       11947                       IF    CVFRLG,'LA R0,SDSNHOSR'  RLG host table
 000678 D504 7EDC C00C_00F02 0000C 11968                       IF    (CVMACHID,EQ,'SYSC '),'LA R0,SDSNHOSC'  SYSC host
 000686 D504 7EE1 C00C_00F07 0000C 11991                       IF    (CVMACHID,EQ,'SYSD '),'LA R0,SDSNHOSD'  SYSD host
 000694 D504 7EE6 C00C_00F0C 0000C 12014                       IF    (CVMACHID,EQ,'SYSH '),'LA R0,SDSNHOSH'  SYSH host
 0006A2 58E0 7C86/0DEE       00CAC 12037                       VCALL EXIT0               LOCAL exit - format system dsname
 0006A8 955B 1000/4770_00000       12041                       IF    (@R1,EQ,'$'),'INCR R1; DECR R0'
 0006B6 4900 BF06/4770_      00F06 12067                       IF    (R0,EQ,DSNWANL),BEGIN
 0006BE 1820                       12084  1                      LR    R2,R0
 0006C0 1222/47D0 76A6_            12085  1                      TDEX  R2,'CLC @R1(*-*),DSNWADSN'
 0006CC 4770 76B4/58E0_      006DA 12123  1                      IF    EQ,'VCALL SETWHOST; B UTILMSG'
 0006DA                            12144                       END
                                   12148
 0006DA 4100 0003            00003 12149                       LA    R0,SDSNTERM         Terminal table
 0006DE 58E0 7C86/0DEE       00CAC 12150                       VCALL EXIT0               LOCAL exit - format system dsname
 0006E4 955B 1000/4770_00000       12154                       IF    (@R1,EQ,'$'),'INCR R1; DECR R0'
 0006F2 4900 BF06/4770_      00F06 12180                       IF    (R0,EQ,DSNWANL),BEGIN
 0006FA 1820                       12197  1                      LR    R2,R0
 0006FC 1222/47D0 76E2_            12198  1                      TDEX  R2,'CLC @R1(*-*),DSNWADSN'
 000708 4770 76F0/58E0_      00716 12236  1                      IF    EQ,'VCALL SETWTERM; B UTILMSG'
 000716                            12257                       END
                                   12261
 000716 4100 0006            00006 12262                       LA    R0,SDSNPRIN         Printer table
 00071A 58E0 7C86/0DEE       00CAC 12263                       VCALL EXIT0               LOCAL exit - format system dsname
 000720 955B 1000/4770_00000       12267                       IF    (@R1,EQ,'$'),'INCR R1; DECR R0'
 00072E 4900 BF06/4770_      00F06 12293                       IF    (R0,EQ,DSNWANL),BEGIN
 000736 1820                       12310  1                      LR    R2,R0
 000738 1222/47D0 771E_            12311  1                      TDEX  R2,'CLC @R1(*-*),DSNWADSN'
 000744 4770 772C/58E0_      00752 12349  1                      IF    EQ,'VCALL SETWPRT; B UTILMSG'
 000752                            12370                       END
                                   12374              ¿þþþþþþþþþþþþþþþþþþþþþþþþþþþþþþþþþþþþþþþþþþþþþþþþþþþþþþþþþþþþþþþþþþþþþÜ
                                   12375              Ÿ                                                                     Ÿ
                                   12376              Ÿ Display percent utilized for PDS                                    Ÿ
                                   12377              Ÿ                                                                     Ÿ
                                                      ¾þþþþþþþþþþþþþþþþþþþþþþþþþþþþþþþþþþþþþþþþþþþþþþþþþþþþþþþþþþþþþþþþþþþþþ»
0000752 9120 BF35/47E0_00F35       12378              UTILMSG  IF    DSNWAF2.DSNFPDS,BEGIN
                                   12395  1                      AIF   ('&INSTALN' EQ 'STANFORD').NOPRCT
                                   12396  1           .NOPRCT    ANOP
 00075A                            12397                       END
                                   12401
 00075A 47F0 C7DE            007DE 12402                       B     CVNEXT
1FILE     (FILE2025) (12:45) (15MAR04) SAVE Command                                                                         Page   13
0Current Usings:  (*,R7) (CP,R11) (CV,R12)
0Loc    Object Code    Addr1 Addr2  Stmt Lv Lineno    Source Statement           (Hibal 5, Asmedit 3.3)  HLASM R4.0  2004/03/15 12.45
+___    ______ ____    _____ _____  ____ __ ______    ______ _________
0                                  12404                       ¿þþþþþþþþþþþþþþþþþþþþþþþþþþþþþþþþþþþþþþþþþþþþþþþþþþþþþþþþþþþþþþÜ
                                   12405                       Ÿ  Routine to put out member name or dsname depending on pds.  Ÿ
                                   12406                       ¾þþþþþþþþþþþþþþþþþþþþþþþþþþþþþþþþþþþþþþþþþþþþþþþþþþþþþþþþþþþþþþ»
 00075E 9120 BF35      00F35       12407              DSNORMEM TM    DSNWAF2,DSNFPDS     Was this a pds save
 000762 4780 7748            0076E 12408                       BZ    DSNOR1              Br no
 000766 58E0 7CA6/0DEE       00CCC 12409                       ACALL MEMBERED            Put out member name
 00076C 07F4                       12413                       BR    R4                  Return
                                   12414
 00076E 58E0 7C32/0DEE       00C58 12415              DSNOR1   ACALL SEGDSN
 000774 07F4                       12419                       BR    R4                  Return
                                   12420              *
                                   12421              *routine to put out in dsname or on volume depending on pds
 000776 9120 BF35/47E0_00F35       12422              INORON   IF    DSNWAF2.DSNFPDS,'TSEG "in "; ACALL SEGDSN'  Library
                                   12466
 000796 D627 BE90 BE90_00E90 00E90 12467                       IF    (DSNON,NZ),'TSEG "on "; TSEG DSNON,,T'
 0007C4 07F4                       12534                       BR    R4                  Return
                                   12535              * scratch with save code
                                   12536              *
 0007C6 9640 BD51      00D51       12537              SCRTGO   SET   CPLFLG2.CPFSCRTC    Set scratch bit
 0007CA 47F0 721C            00242 12545                       B     ROPENN              Go open
                                   12546              *
                                   12547              * the range specified for a pds save was void -- close data
                                   12548              * set and go issue aborted message -- note that the void range
                                   12549              * message has already been issued by despot
 0007CE 58E0 7C5A/0DEE       00C80 12550              DOCLOSVD VCALL EXTCLOSE
 0007D4 41F0 0024            00024 12554                       LA    R15,ABRTCODE        Set code for abort
 0007D8 47F0 789C            008C2 12555                       B     BADOPEN             Go do message
1FILE     (FILE2025) (12:45) (15MAR04) SAVE Command                                                                         Page   14
0Current Usings:  (*,R7) (CP,R11) (CV,R12)
0Loc    Object Code    Addr1 Addr2  Stmt Lv Lineno    Source Statement           (Hibal 5, Asmedit 3.3)  HLASM R4.0  2004/03/15 12.45
+___    ______ ____    _____ _____  ____ __ ______    ______ _________
0                                  12557              **  if eov (no more space) during save go here.  the dcb is
                                   12558              **       already closed.
                                   12559              **
                                   12560              **  This is a very non-standard interface; see code in the DISK
                                   12561              **  module which calls this routine.
                                   12562              *
                                   12563                       ENTRY EOV
 0007DC 183F                       12564              EOV      LR    R3,R15              Save return code
 0007DE 0DF0                       12565                       BASR  R15,0
 0007E0 5870 F4F4            00CD4 12566                       WITH  (*,R15),'L BR,=A(SAVEBASE)'  Set correct base reg
 USING  *,R15
 DROP   *,R15
                                   12591
 0007E4 58E0 7CB2/0DEE       00CD8 12592                       VCALL INITSTK             Reset stack
 0007EA 18F3                       12596                       LR    R15,R3              Restore rc
                                   12597
 0007EC 947F B8AA      008AA       12598                       CLEAR CPRFEXT             Turn off external data set open
 0007F0 47F0 77D2            007F8 12605                       B     PROBOPNA
                                   12606                       ¿þþþþþþþþþþþþþþþþþþþþþþþþþþþþþþþþþþþþþþþþþþþÜ
                                   12607                       Ÿ  Handle DOPEN error codes for SAVE here.  Ÿ
                                   12608                       ¾þþþþþþþþþþþþþþþþþþþþþþþþþþþþþþþþþþþþþþþþþþþ»
 0007F4 4740 78DA            00900 12609              PROBOPN  BM    CHTYPE              Type being changed if minus
 0007F8 49F0 7D82            00DA8 12610              PROBOPNA CH    R15,=AL2(RTNNOSPC)  Was it no space?
 0007FC 4720 77EA            00810 12611                       BH    PROBOPNB            Check for access violation
 000800 4780 7800            00826 12612                       BE    PROBNOSP
 000804 49F0 7D84            00DAA 12613                       CH    R15,=AL2(RTNDUPDS)  Is it dup data set
 000808 4780 78A2            008C8 12614                       BE    ALREDDY             Yes
 00080C 47F0 789C            008C2 12615                       B     BADOPEN             No, must be ds not on cat
                                   12616
 000810 58E0 7CB6/0DEE       00CDC 12617              PROBOPNB ACALL ACSCHECK            See if it was an access prob
 000816 4780 721C            00242 12621                       BZ    ROPENN              It was and its ok now
 00081A 49F0 7D86            00DAC 12622                       CH    R15,=AL2(RTNNTPDS)  Type conflict?
 00081E 4780 799C            009C2 12623                       BE    BADTYPSV            Yes, isssue error msg
 000822 47F0 789C            008C2 12624                       B     BADOPEN             it wasn't - check others
                                   12625
 000826 9120 BF35      00F35       12626              PROBNOSP TM    DSNWAF2,DSNFPDS     Was it a pds save?
 00082A 4780 780E            00834 12627                       IF    NZ,BEGIN
 00082E 58E0 7C6A/0DEE       00C90 12638  1                      ACALL NORMPDS             Br if yes
 000834                            12642                       END
                                   12646
 000834 41F0 0001/4AF0_      00001 12647                       INCR  R15,DSNVOLCT        Count number of attempts
 000840 59F0 7CBA/47B0_      00CE0 12653                       IF    (R15,LT,15),BEGIN   Try a different volume...
 000848 D205 BEBE BE90 00EBE 00E90 12670  1                      MVC   DSNBADV,DSNON6      Save the volume which is ng
 00084E 9120 BD56/4710_00D56       12671  1                      IF    ~CPFNOCAT,'SET CPFRECAT'  Must recatalog
 00085A D727 BE90 BE90 00E90 00E90 12697  1                      CLEAR DSNON               Pick an alternate volume
 000860 47F0 721C            00242 12704  1                      B     ROPENN
 000864                            12705                       END
                                   12709                       ¿þþþþþþþþþþþþþþþþþþþþþþþþþþþþþþþÜ
                                   12710                       Ÿ  We can't save the data set.  Ÿ
                                   12711                       ¾þþþþþþþþþþþþþþþþþþþþþþþþþþþþþþþ»
 000864 9140 BD51/47E0_00D51       12712                       IF    CPLFLG2.CPFSCRTC,BEGIN  Scratched...
 00086C 4110 7D88/4100_      00DAE 12728  1                      TSEG  'After scratch '    Scratch was done
 00087E D627 BE90 BE90_00E90 00E90 12746  1                      IF    (DSNON,NZ),'TSEG "on "; TSEG DSNON,,CR'
 0008AC 4110 7D96/4100_      00DBC 12813  1                      TSEG  ', '
1FILE     (FILE2025) (12:45) (15MAR04) SAVE Command                                                                         Page   15
0Current Usings:  (*,R7) (CP,R11) (CV,R12)
0Loc    Object Code    Addr1 Addr2  Stmt Lv Lineno    Source Statement           (Hibal 5, Asmedit 3.3)  HLASM R4.0  2004/03/15 12.45
+___    ______ ____    _____ _____  ____ __ ______    ______ _________
00008BE                            12831                       END
                                   12835
 0008BE 41F0 000C            0000C 12836                       LA    R15,RTNNOSPC        Reset return code
 0008C2 58E0 7CBE/0DEE       00CE4 12837              BADOPEN  ACALL NTGDOPN             Error msg (no return)
-                                  12842              **  data set already there
 0008C8 4110 7B6A/4100_      00B90 12843              ALREDDY  TSEG  'Replace '
 0008DA 9120 BF35/47E0_00F35       12861                       IF    DSNWAF2.DSNFPDS,'ACALL MEMBERED'  Just member name
 0008E8 78C6/47F0 78CA_008E8 008E0 12886                       ELSE  'BAS R4,DSNORMEM'   Otherwise, dsname
 0008F0 4D40 7750            00776 12903                       BAS   R4,INORON           On vol/in dsn
 0008F4 1B00                       12904                       CLEAR R0                  Use current stuff as prompt
 0008F6 58E0 7C36/0DEE       00C5C 12908                       VCALL YESREQ              Get permission
 0008FC 47F0 77A0            007C6 12912                       B     SCRTGO
                                   12913
 000900 1830                       12914              CHTYPE   LR    R3,R0               Save blocksize returned
 000902 4110 7D98/4100_      00DBE 12915                       TSEG  'Warning: Data set type will be changed to '
 000914 4110 7DC2/4100_      00DE8 12933                       SETMSG 'PO'                Assume partitioned data set
 00091C 9120 BF35      00F35       12937                       TM    DSNWAF2,DSNFPDS     Is it a pds
 000920 4710 7906            0092C 12938                       BO    CHTYPE1             Br yes
 000924 4110 7DC4/4100_      00DEA 12939                       SETMSG 'PS'                No, set for sequential
 00092C 41F0 B050/58E0_      00050 12943              CHTYPE1  TSEG  (R1),(R0),B         Put in ps or po
 000936 91FF BD9F      00D9F       12968                       TM    CPLRCL+3,X'FF'      Is it EDIT or fixed save?
 00093A 4770 7930            00956 12969                       BNZ   CHTYPE2             Br if fixed
 00093E 4110 7DC6/4100_      00DEC 12970                       TSEG  'U/'                Set recfm=u
 000950 18F3                       12988                       LR    R15,R3              Set r15 to lrecl
 000952 47F0 7946            0096C 12989                       B     CHTYPE3             Go finish
                                   12990
 000956 4110 7EEB/4100_      00F11 12991              CHTYPE2  TSEG  'FB/'               Set fixed part
 000968 58F0 BD9C            00D9C 13009                       L     R15,CPLRCL          Get lrecl
 00096C 1B00/4110 BC88_            13010              CHTYPE3  BTD   CPDOUB,0,(15)       Do lrecl
 000978 41F0 B050/58E0_      00050 13031                       TSEG  (R1),(R0)           Put in buffer
 000982 4110 7EEE/4100_      00F14 13055                       TSEG  '/'                 Put in /
 000994 18F3/1B00/4110_            13073                       BTD   CPDOUB,0,(R3)       Do blksize
 0009A2 41F0 B050/58E0_      00050 13093                       TSEG  (R1),(R0),CR
 0009AC 4110 7DC8/4100_      00DEE 13117                       SETMSG 'OK'                Set prompt
 0009B4 58E0 7C36/0DEE       00C5C 13121                       VCALL YESREQ              Go see if ok to change
 0009BA 9604 BF36      00F36       13125                       OI    DSNWAF3,DSNFCHT     Yes, set change flag
 0009BE 47F0 721C            00242 13126                       B     ROPENN              Do open again
-0009C2 4110 7EEF/4100_      00F15 13128              BADTYPSV TSEG  'Data set '
 0009D4 58E0 7C32/0DEE       00C58 13146                       ACALL SEGDSN
 0009DA 4110 7EF8/4100_      00F1E 13150                       TSEG  'is not a library.',,CR
 0009EC 41F0 0024            00024 13168                       LA    R15,ABRTCODE        Issue abort msg
 0009F0 47F0 789C            008C2 13169                       B     BADOPEN
-0009F4 4110 7F09/4100_      00F2F 13171              SAVERB   ERROR 'Blocksize is invalid.'
1FILE     (FILE2025) (12:45) (15MAR04) SAVE Command                                                                         Page   16
0Current Usings:  (*,R7) (CP,R11) (CV,R12)
0Loc    Object Code    Addr1 Addr2  Stmt Lv Lineno    Source Statement           (Hibal 5, Asmedit 3.3)  HLASM R4.0  2004/03/15 12.45
+___    ______ ____    _____ _____  ____ __ ______    ______ _________
0000A00 50F0 BD64            00D64 13180              NRECDOO  ST    R15,CPNREC          Set nrecs
 000A04 5810 7BE6/58E0_      00C0C 13181                       OSCAN L:=A(NRECPRT)       Make sure ok
 000A0E 1266                       13192                       LTR   R6,R6               Any lrecl given
 000A10 4720 70A8            000CE 13193                       BP    CHKFRMT             Yes, go do normal check
 000A14 4770 7A10            00A36 13194                       IF    Z,BEGIN             Nrecs with EDIT specified...
 000A18 4110 7B72/4100_      00B98 13205  1                      TSEG  'Blocking factor can''t be specified with '
 000A2A 4110 7D0E/4100_      00D34 13223  1                      ERROR 'EDIT format data sets.'
 000A36                            13230                       END
 000A36 4160 0050            00050 13234                       LA    R6,80               Set for card
 000A3A 5060 BD9C            00D9C 13235                       ST    R6,CPLRCL           Save card format
 000A3E 47F0 70A8            000CE 13236                       B     CHKFRMT             Go do check
                                   13237
 000A42 954D 1000      00000       13238              NRCTRY   CLI   @R1,C'('            Need left paren for nrecs
 000A46 4770 C7E4            007E4 13239                       BNE   CVNVALID            Need left paren
 000A4A 4141 0001            00001 13240                       LA    R4,1(R1)            Save ptr
 000A4E 4B00 7DCA            00DF0 13241                       SH    R0,=H'2'            Decrement for parens
 000A52 1230                       13242                       LTR   R3,R0               Save count
 000A54 47D0 C7E4            007E4 13243                       BNP   CVNVALID            Nix
 000A58 07FE                       13244                       BR    RAR                 More?
                                   13245
 000A5A 9602 BF36      00F36       13246              EXPDT    OI    DSNWAF3,DSNFEXP     Set expdt override ok
 000A5E 9120 B3BE/47E0_003BE       13247                       IF    ~CPSFSPR,CVNVALID   priv'd request
 000A66 07FE                       13265                       BR    RAR
                                   13266
 000A68 9608 BD56      00D56       13267              SAVRECAT SET   CPFRECAT
 000A6C 07FE                       13274                       BR    RAR
                                   13275
 000A6E 50E0 D000/41D0_      00000 13276              STITLE   LENTER
 000A76 58E0 7CC6/0DEE       00CEC 13280                       VCALL DEQUOTE
 000A7C 47B0 7A66            00A8C 13284                       IF    NEG,BEGIN
 000A80 4110 7B9A/4100_      00BC0 13295  1                      ABORT 'The text after TITLE must be enclosed in quotes.'
 000A8C                            13302                       END
 000A8C D229 BF66 C4D8 00F66 004D8 13306                       MVC   DSAVTIT,CVBLANKS
 000A92 1200/4770 7A7A_            13307                       IF    (R0,Z),'SETMSG CVBLANKS,1'
 000AA0 18F0                       13342                       LR    R15,R0
 000AA2 59F0 7CCA/47D0_      00CF0 13343                       CEIL  R15,L'DSAVTIT
 000AAE 40F0 BF64            00F64 13362                       STH   R15,DSAVTITL        Title length
 000AB2 06F0/12FF/4740_            13363                       MOVE  R15,DSAVTIT,@R1     Title text
 000ABE 4B00 7DCC            00DF2 13401                       SH    R0,=AL2(L'DSAVTIT)  Too long?
 000AC2 47D0 7AEA            00B10 13402                       IF    POS,BEGIN           Yes...
 000AC6 5000 D000/41D0_      00000 13413  1                      XPUSH R0
 000ACE 4110 7CCE/4100_      00CF4 13416  1                      TSEG  'Title is too long, the last '
 000AE0 4BD0 7DCE/58F0_      00DF4 13434  1                      XPOP  R15
 000AE8 1B00/4110 BC88_            13437  1                      BTD   CPDOUB,0,(R15)
 000AF4 41F0 B050/58E0_      00050 13456  1                      TSEG  (R1),(R0),B
 000AFE 4110 7F1E/4100_      00F44 13480  1                      TSEG  'characters have been ignored.',,CR
 000B10                            13498                       END
 000B10 4BD0 7DCE/58E0_      00DF4 13502                       LEXIT
                                   13508
 000B1A 9110 BE28/47E0_00E28       13509              LINES    IF    CPFXMULT,BEGIN      MULTIPLE also specified...
 000B22 4110 7DD0/4100_      00DF6 13525  1                      ABORT 'MULTIPLE and LINES are mutually exclusive.'
 000B2E                            13532                       END
 000B2E 58E0 7C1E/0DEE       00C44 13536                       VCALL ZDETRNG             Go do range
 000B34 9680 BF36      00F36       13540                       OI    DSNWAF3,DSNFLIN     Set lines specified
1FILE     (FILE2025) (12:45) (15MAR04) SAVE Command                                                                         Page   17
0Current Usings:  (*,R7) (CP,R11) (CV,R12)
0Loc    Object Code    Addr1 Addr2  Stmt Lv Lineno    Source Statement           (Hibal 5, Asmedit 3.3)  HLASM R4.0  2004/03/15 12.45
+___    ______ ____    _____ _____  ____ __ ______    ______ _________
0000B38 9110 BD50      00D50       13541                       TM    CPLFLG1,CPFALL      Was range null
 000B3C 4780 C7E4            007E4 13542                       BZ    CVNVALID            Yes, it is invalid
 000B40 47F0 707E            000A4 13543                       B     GOTOSCN             Continue scan
                                   13544
 000B44 9620 BD56      00D56       13545              SNOCAT   SET   CPFNOCAT
 000B48 07FE                       13552                       BR    RAR
                                   13553
 000B4A 9640 BF39      00F39       13554              STREAM   SET   DSNFSTRM            Stream
 000B4E 07FE                       13561                       BR    RAR
                                   13562
 000B50 9610 BF39      00F39       13563              APPEND   SET   DSNFAPP             Append
 000B54 07FE                       13570                       BR    RAR
                                   13571
 000B56 9610 BE28      00E28       13572              MULT     SET   CPFXMULT            Multiple
 000B5A D703 BD9C BD9C 00D9C 00D9C 13579                       CLEAR CPLRCL              Edit
 000B60 9680 BE28      00E28       13586                       SET   CPFNEWED            NEWEDIT
 000B64 07FE                       13592                       BR    RAR
                                   13593
 000B66 9604 BE28      00E28       13594              NOCOND   SET   CPFNCOND            No condense
 000B6A 07FE                       13601                       BR    RAR
 DROP   *,R7                       13602                       DROP  BR
                                   13609
 000B6C                            13610                       DS    0F
 000B6C 80001194                   13611              SAVEWRK  DC    AL1(DESRTRN+LOCATRTN+PREST),AL3(SAVERTN)
                                   13612
                                   13613                       QLTORG
1FILE     (FILE2025) (12:45) (15MAR04) SAVE Command                                                                         Page   18
0Current Usings:  (CP,R11) (CV,R12)
0Loc    Object Code    Addr1 Addr2  Stmt Lv Lineno    Source Statement           (Hibal 5, Asmedit 3.3)  HLASM R4.0  2004/03/15 12.45
+___    ______ ____    _____ _____  ____ __ ______    ______ _________
0                                  13738              ¿þþþþþþþþþþþþþþþþþþþþþþþþþþþþþþþþþþþþþþþþþþþþþþþþþþþþþþþþþþþþþþþþþþþþþÜ
                                   13739              Ÿ                                                                     Ÿ
                                   13740              Ÿ  SAVEOPTS -- Local routine to make sure that no inconsistent        Ÿ
                                   13741              Ÿ    SAVE options have been specified.  The only reason this is a     Ÿ
                                   13742              Ÿ    separate routine is that the main SAVE routine is almost out     Ÿ
                                   13743              Ÿ    of addressablity.                                                Ÿ
                                   13744              Ÿ                                                                     Ÿ
                                                      ¾þþþþþþþþþþþþþþþþþþþþþþþþþþþþþþþþþþþþþþþþþþþþþþþþþþþþþþþþþþþþþþþþþþþþþ»
0000F86 50E0 D000/9008_      00000 13745              SAVEOPTS PROC
 USING  *,R7
 000FA0 9110 BE28/47E0_00E28       13784                       IF    (CPFXMULT,AND,DSNWAF3.DSNFLIN),BEGIN  Error...
 000FB0 4110 74CC/4100_      0146C 13814  1                      ABORT 'MULTIPLE and LINES are mutually exclusive.'
 000FBC                            13821                       END
                                   13825
 000FBC 9502 BD89/4770_00D89       13826                       IF    (CPFRDEXE,AND,CPFXMULT),BEGIN
 000FCC 4110 7532/4100_      014D2 13855  1                      ABORT 'MULTIPLE and EXEC are mutually exclusive.'
 000FD8                            13862                       END
                                   13866
 000FD8 9140 BD51/47E0_00D51       13867                       IF    (CPLFLG2.CPFSCRTC,AND,DSNFAPP),BEGIN
 000FE8 4110 74F6/4100_      01496 13897  1                      ERROR 'REPLACE and APPEND are mutually exclusive.'
 000FF4                            13904                       END
                                   13908
 000FF4 9101 BF39/47E0_00F39       13909                       IF    DSNFUFMT,BEGIN      Unformatted...
 000FFC 4110 755B/4100_      014FB 13924  1                      ERROR 'UNFORMATTED option not allowed on the SAVE command.'
 001008                            13931                       END
                                   13935
 001008 9180 BF3A/47E0_00F3A       13936                       IF    DSNFTEXTONLY,BEGIN  Textonly...
 001010 4110 7448/4100_      013E8 13951  1                      ERROR 'TEXTONLY option not allowed on the SAVE command.'
 00101C                            13958                       END
                                   13962
 00101C 18D8/9808 D004_            13963                       PEND
 DROP   *,R7
1FILE     (FILE2025) (12:45) (15MAR04) SAVE Command                                                                         Page   19
0Current Usings:  (CP,R11) (CV,R12)
0Loc    Object Code    Addr1 Addr2  Stmt Lv Lineno    Source Statement           (Hibal 5, Asmedit 3.3)  HLASM R4.0  2004/03/15 12.45
+___    ______ ____    _____ _____  ____ __ ______    ______ _________
0                                  13984                       ¿þþþþþþþþþþþþþþþþÜ
                                   13985                       Ÿ  SAVE options  Ÿ
                                   13986                       ¾þþþþþþþþþþþþþþþþ»
 00102A 0C000A5AC5E7D7C4           13987              SAVEPRT  OSCKW EXPDT,EXPDT,A
 001033 8C000A6EE3C9E3D3           13989                       OSCKW TITLE,STITLE,(A,P)
 00103C 0C000B1AD3C9D5C5           13991                       OSCKW LINES,LINES,A
 001045 03000B1AD3C9D5E2           13993                       OSCKW LINS,LINES
 00104D 0E000000C5E7C5C3           13995                       OSCKW EXECUTE,,A
 001058 0C000000C3C1E3D3           13997                       OSCKW CATLG,,A            (Compatability)
 001061 0E000000C3C1E3C1           13999                       OSCKW CATALOG,,A          (Compatability)
 00106C 0E000A68D9C5C3C1           14001                       OSCKW RECATLG,SAVRECAT,A
 001077 0F000A68D9C5C3C1           14003                       OSCKW RECATALOG,SAVRECAT,A
 001083 0E000000E4D5C3C1           14005                       OSCKW UNCATLG,,A          (Compatability)
 00108E 0F000000E4D5C3C1           14007                       OSCKW UNCATALOG,,A        (Compatability)
 00109A 0F000B44D5D6C3C1           14009                       OSCKW NOCATALOG,SNOCAT,A
 0010A6 0D000B4AE2E3D9C5           14011                       OSCKW STREAM,STREAM,A
 0010B0 0D000B50C1D7D7C5           14013                       OSCKW APPEND,APPEND,A
 0010BA 0F000B56D4E4D3E3           14015                       OSCKW MULTIPLE,MULT,A
 0010C6 0F000B66D5D6C3D6           14017                       OSCKW NOCONDENSE,NOCOND,A
 0010D2 F8000000                   14019                       OSCKW ,V(CLSCRPRT),PUSH
 0010D6 F8000000                   14021                       OSCKW ,V(DSNPRTF),PUSH
 0010DA F8000000                   14023                       OSCKW ,V(VERPRT),PUSH
 0010DE F8000000                   14025                       OSCKW ,V(COLLPRT),PUSH
 0010E2 F8000000                   14027                       OSCKW ,V(QUIETPRT),PUSH
 0010E6 FF000A42                   14029                       OSCKW ,NRCTRY             Check for nrec (blocking factor)
                                   14031
 0010EA 30000A0040/00000_          14032              NRECPRT  OSCKW ,NRECDOO,PI,1000
 0010F3 FF000000                   14035              NRECERT  OSCKW ,V(INVALID)
1FILE     (FILE2025) (12:45) (15MAR04) SAVE Command                                                                         Page   20
0Current Usings:  (CP,R11) (CV,R12)
0Loc    Object Code    Addr1 Addr2  Stmt Lv Lineno    Source Statement           (Hibal 5, Asmedit 3.3)  HLASM R4.0  2004/03/15 12.45
+___    ______ ____    _____ _____  ____ __ ______    ______ _________
0                                  14038                       ¿þþþþþþþþþþþþþþþþþþþþþþþþþþþþþþþþþþþþþþþþþþþþþþþþþþþþþþþþþþþÜ
                                   14039                       Ÿ  No room in library.  Give error or prompt for condense.  Ÿ
                                   14040                       ¾þþþþþþþþþþþþþþþþþþþþþþþþþþþþþþþþþþþþþþþþþþþþþþþþþþþþþþþþþþþ»
 0010F7 00/50E0 D000/900_          14041              NORMPDS  XENTER R0,R8,,LOCAL       Routine does not return
 USING  *,R7
 001112 9104 BE28/47E0_00E28       14059                       IF    CPFNCOND,BEGIN
 00111A 58E0 7316/0DEE       01428 14074  1                      ACALL SEGDSN
 001120 4110 741C/4100_      0152E 14078  1                      TSEG  ' is full. Member '
 001132 58E0 731E/0DEE       01430 14096  1                      ACALL MEMBERED
 001138 D207 B886 7306_00886 01418 14100  1                      ERROR 'not saved.',,LIBFULL
 00114A                            14108                       END
 00114A 703C/47F0 7082 0114A 01118 14112                       ELSE  BEGIN
 00114E 4110 7322/4100_      01434 14123  1                      TSEG  'Not enough space in '
 001160 58E0 7316/0DEE       01428 14141  1                      ACALL SEGDSN
 001166 9180 BD55/4710_00D55       14145  1                      IF    CPFDUMP,CVABORT
 00116E 1B00/41F0 B050_            14163  1                      TCR
 00117A 4110 730E/4100_      01420 14188  1                      SETMSG 'Condense'
 001182 58E0 733A/0DEE       0144C 14192  1                      VCALL YESREQ              Go check if ok
 001188 D201 BD24 73B8 00D24 014CA 14196  1                      MVC   CPCMNM(2),=C'C*'    Condense command simulated
 00118E 58E0 733E/0DEE       01450 14197  1                      VCALL CONDENSE            Go do condense (in RJE)
 001194                            14201                       END
1FILE     (FILE2025) (12:45) (15MAR04) SAVE Command                                                                         Page   21
0Current Usings:  (*,R7) (CP,R11) (CV,R12)
0Loc    Object Code    Addr1 Addr2  Stmt Lv Lineno    Source Statement           (Hibal 5, Asmedit 3.3)  HLASM R4.0  2004/03/15 12.45
+___    ______ ____    _____ _____  ____ __ ______    ______ _________
0000000                00000 00100 14206              SRTNWA   RECORD BEGIN
                                   14214  1           SRTNLINE   DS    CL(&LINESZ)         Working line area
 000000                                   1          +SRTNLINE   DS    CL(235)             Working line area
                                   14215  1                      DS    XL(&PRESSZ-&LINESZ)
 0000EB                                   1          +           DS    XL(256-235)
 000100                00100 00100 14216                       END
-                                  14226              ¿þþþþþþþþþþþþþþþþþþþþþþþþþþþþþþþþþþþþþþþþþþþþþþþþþþþþþþþþþþþþþþþþþþþþþÜ
                                   14227              Ÿ                                                                     Ÿ
                                   14228              Ÿ  SAVERTN -- Range co-routine to SAVE lines for the SAVE command.    Ÿ
                                   14229              Ÿ                                                                     Ÿ
                                   14230              Ÿ    On entry:                                                        Ÿ
                                   14231              Ÿ      R1,R0 - line text location, length                             Ÿ
                                   14232              Ÿ      CPLCNO - line number                                           Ÿ
                                   14233              Ÿ                                                                     Ÿ
                                   14234              Ÿ                                                                     Ÿ
                                   14235              Ÿ  PREST option removed by CH 05/91.  EXTWRITE does not want          Ÿ
                                   14236              Ÿ  pressed records as of 05/91.  Universal harmony.                   Ÿ
                                   14237              Ÿ                                                                     Ÿ
                                   14238              Ÿ                                                                     Ÿ
                                                      ¾þþþþþþþþþþþþþþþþþþþþþþþþþþþþþþþþþþþþþþþþþþþþþþþþþþþþþþþþþþþþþþþþþþþþþ»
0001194 50E0 D000/9008_      00000 14239              SAVERTN  PROC  SRTNWA
 DROP   *,R7
 USING  *,R7
 USING  SRTNWA-(4+36),R8
                                   14292
 0011AE 9001 D000/41D0_      00000 14293                       XPUSH R0,R1               Save text loc, len
                                   14296
 0011B6 D707 BE29 BE29 00E29 00E29 14297                       CLEAR CPNEDL
                                   14304                       ¿þþþþþþþþþþþþþþþþþþþþþþþþþþþþþþþþþþþþþþþþþÜ
                                   14305                       Ÿ  This code should eventually be moved.  Ÿ
                                   14306                       ¾þþþþþþþþþþþþþþþþþþþþþþþþþþþþþþþþþþþþþþþþþ»
 0011BC 9501 BD89/4770_00D89       14307                       IF    CPFRDACT,BEGIN  From ACTIVE file...
 0011C4 D503 BE34 B57C_00E34 0057C 14322  1                      IF    (CPSAVOLD,NE,CPACTNO),BEGIN  New Active file...
 0011CE 9501 BF3B/4770_00F3B       14340  2                        IF    (DSNDTYPE,NE,DSNDDISK),EXIT  Not a disk, scram
 0011D6 D603 BD9C BD9C_00D9C 00D9C 14361  2                        IF    ((CPLRCL,NZ),OR,~CPFNEWED),EXIT  Not NEWEDIT, scram
                                   14394  2
 0011E8 9680 BE31      00E31       14395  2                        SET   CPNEDSET.X'80'      We are writing internal lines
                                   14402  2
 0011EC 4110 8028/4100_      00000 14403  2                        SETMSG SRTNLINE
 0011F4 58E0 72A6/0DEE       01454 14417  2                        VCALL GETVINFO            Get current VIEW info
 0011FA 1B22                       14421  2                        CLEAR R2                  "Line-number"
 0011FC 58E0 72AA/0DEE       01458 14425  2                        VCALL EXTWRITE            Put VIEW info line into buffer
 001202                            14429  1                      END
                                   14433  1
 001202 947F BE31      00E31       14434  1                      CLEAR CPNEDSET.X'80'      Reset
 001206 D203 BE34 B57C 00E34 0057C 14442  1                      MVC   CPSAVOLD,CPACTNO    Save current Active file number
 00120C                            14443                       END
1FILE     (FILE2025) (12:45) (15MAR04) SAVE Command                                                                         Page   22
0Current Usings:  (*,R7) (SRTNWA-(4+36),R8) (CP,R11) (CV,R12)
0Loc    Object Code    Addr1 Addr2  Stmt Lv Lineno    Source Statement           (Hibal 5, Asmedit 3.3)  HLASM R4.0  2004/03/15 12.45
+___    ______ ____    _____ _____  ____ __ ______    ______ _________
0                                  14447                       ¿þþþþþþþþþþþþþþþþþþþþþþþþÜ
                                   14448                       Ÿ  Write the line text.  Ÿ
                                   14449                       ¾þþþþþþþþþþþþþþþþþþþþþþþþ»
 00120C 9501 BD89/4770_00D89       14450                       IF    CPFRDACT,BEGIN  From ACTIVE file...
 001214 D707 BE29 BE29 00E29 00E29 14465  1                      CLEAR CPNEDL              Neatness
 00121A 9180 BE28/47E0_00E28       14472  1                      IF    ~CPFNEWED,EXIT      Not NEWEDIT, forget it
 001222 4110 BE29/4100_      00E29 14490  1                      SETMSG CPNEDL              Put line prefix info here
 00122A 58F0 B73C            0073C 14504  1                      L     R15,CPLCNO
 00122E 58E0 72AE/0DEE       0145C 14505  1                      VCALL GETLINFO            Get prefix info (for DSKWRITE)
 001234                            14509                       END
                                   14513
 001234 4BD0 731E/9801_      014CC 14514                       XPOP  R0,R1               Text location, length
 00123C 5820 B73C            0073C 14517                       L     R2,CPLCNO           Line number
 001240 58E0 72AA/0DEE       01458 14518                       VCALL EXTWRITE            Put line into I/O buffer, etc.
 001246 18D8/9808 D004_            14522                       PEND
 DROP   SRTNWA-(4+36),R8
 DROP   *,R7
 USING  *,R7
1FILE     (FILE2025) (12:45) (15MAR04) SAVE Command                                                                         Page   23
0Current Usings:  (*,R7) (CP,R11) (CV,R12)
0Loc    Object Code    Addr1 Addr2  Stmt Lv Lineno    Source Statement           (Hibal 5, Asmedit 3.3)  HLASM R4.0  2004/03/15 12.45
+___    ______ ____    _____ _____  ____ __ ______    ______ _________
0                                  14555              ¿þþþþþþþþþþþþþþþþþþþþþþþþþþþþþþþþþþþþþþþþþþþþþþþþþþþþþþþþþþþþþþþþþþþþþÜ
                                   14556              Ÿ                                                                     Ÿ
                                   14557              Ÿ  GETSIZE -- This is a co-routine called by DOPEN (in DISK) to       Ÿ
                                   14558              Ÿ    estimate the amount of space needed for a file.  Only a rough    Ÿ
                                   14559              Ÿ    estimate is needed.                                              Ÿ
                                   14560              Ÿ                                                                     Ÿ
                                   14561              Ÿ    On entry:                                                        Ÿ
                                   14562              Ÿ      R15 - block size for SAVE                                      Ÿ
                                   14563              Ÿ                                                                     Ÿ
                                   14564              Ÿ    On exit:                                                         Ÿ
                                   14565              Ÿ      DSNLTOT - number of lines                                      Ÿ
                                   14566              Ÿ      DSAVBLK - number of blocks needed                              Ÿ
                                   14567              Ÿ                                                                     Ÿ
                                                      ¾þþþþþþþþþþþþþþþþþþþþþþþþþþþþþþþþþþþþþþþþþþþþþþþþþþþþþþþþþþþþþþþþþþþþþ»
0001254 50E0 D000/9008_      00000 14568              GETSIZE  PROC
 DROP   *,R7
 USING  *,R7
 00126E 185F                       14610                       LR    R5,R15              Save block size
                                   14611                       ¿þþþþþþþþþþþþþþþþþþþþþþþþÜ
                                   14612                       Ÿ  R2 = number of lines  Ÿ
                                   14613                       Ÿ  R3 = byte count       Ÿ
                                   14614                       ¾þþþþþþþþþþþþþþþþþþþþþþþþ»
 001270 5820 B5AC            005AC 14615                       L     R2,CPALNCT          Number of lines
 001274 5830 B5B0            005B0 14616                       L     R3,CPABYCT          Number of bytes
                                   14617
 001278 9110 BE28/47E0_00E28       14618                       IF    CPFXMULT,BEGIN      Saving All Actives...
 001280 5820 B578            00578 14633  1                      L     R2,CPATLINS         Total number of lines
 001284 5830 B564            00564 14634  1                      L     R3,CPATBYTS         Total number of bytes
 001288                            14635                       END
                                   14639
 001288 9502 BD89/4770_00D89       14640                       IF    CPFRDEXE,BEGIN  SAVE EXEC...
 001290 5820 71F2            01460 14655  1                      L     R2,=F'2000'         (Simply)
 001294 5830 71F6            01464 14656  1                      L     R3,=F'300000'       (Guess)
 001298                            14657                       END
                                   14661
 001298 5020 BF54            00F54 14662                       ST    R2,DSNLTOT          Save total number of lines
                                   14663                       ¿þþþþþþþþþþþþþþþþÜ
                                   14664                       Ÿ  Edit format.  Ÿ
                                   14665                       ¾þþþþþþþþþþþþþþþþ»
 00129C D603 BD9C BD9C_00D9C 00D9C 14666                       IF    (CPLRCL,Z),BEGIN    Edit format...
 0012A6 18F3                       14682  1                      LR    R15,R3              Total byte count
 0012A8 88F0 0004            00004 14683  1                      SRL   R15,4               Worst case pressed text count
 0012AC 1A3F                       14684  1                      AR    R3,R15              Get new "total byte count"
                                   14685  1
 0012AE 41F0 0005            00005 14686  1                      LA    R15,5               Overhead per line-number
 0012B2 9180 BE28/47E0_00E28       14687  1                      IF    CPFNEWED,'LA R15,15'  Newedit needs more
 0012BE 1BEE                       14708  1                      CLEAR R14
 0012C0 1CE2                       14712  1                      MR    R14,R2              Bytes for overhead
 0012C2 1A3F                       14713  1                      AR    R3,R15              Total byte count incl overhead
                                   14714  1
 0012C4 4B50 7260            014CE 14715  1                      SH    R5,=H'256'          Assume worst case unused space
 0012C8 4720 7062/4150_      012D0 14716  1                      IF    NP,'LA R5,1'        (Shouldn't ever happen)
 0012D0 1B22                       14733  1                      CLEAR R2
1FILE     (FILE2025) (12:45) (15MAR04) SAVE Command                                                                         Page   24
0Current Usings:  (*,R7) (CP,R11) (CV,R12)
0Loc    Object Code    Addr1 Addr2  Stmt Lv Lineno    Source Statement           (Hibal 5, Asmedit 3.3)  HLASM R4.0  2004/03/15 12.45
+___    ______ ____    _____ _____  ____ __ ______    ______ _________
00012D2 1D25                       14737  1                      DR    R2,R5               Calc number of blocks
 0012D4 1222/4780 7070_            14738  1                      IF    (R2,NZ),'LA R3,@R3+1'
 0012DE 4030 BF96            00F96 14758  1                      STH   R3,DSAVBLK          Save block count estimate
 0012E2                            14759                       END
                                   14763                       ¿þþþþþþþþþþþþþþþþþþþþþþþþþþþþþÜ
                                   14764                       Ÿ  Fixed (LRECL=xxx) format.  Ÿ
                                   14765                       ¾þþþþþþþþþþþþþþþþþþþþþþþþþþþþþ»
 0012E2 7078/47F0 708E 012E2 012A4 14766                       ELSE  BEGIN               Fixed format...
 0012E6 1832                       14777  1                      LR    R3,R2               No. of lines
 0012E8 1B22                       14778  1                      CLEAR R2
 0012EA 5D20 BD64            00D64 14782  1                      D     R2,CPNREC           No. of blocks
 0012EE 1222/4780 708A_            14783  1                      IF    (R2,NZ),'LA R3,@R3+1'
 0012F8 4030 BF96            00F96 14803  1                      STH   R3,DSAVBLK          Save block count estimate
 0012FC                            14804                       END
                                   14808
 0012FC 18D8/9808 D004_            14809                       PEND
 DROP   *,R7
 USING  *,R7
1FILE     (FILE2025) (12:45) (15MAR04) SAVE Command                                                                         Page   25
0Current Usings:  (*,R7) (CP,R11) (CV,R12)
0Loc    Object Code    Addr1 Addr2  Stmt Lv Lineno    Source Statement           (Hibal 5, Asmedit 3.3)  HLASM R4.0  2004/03/15 12.45
+___    ______ ____    _____ _____  ____ __ ______    ______ _________
0                                  14837              ¿þþþþþþþþþþþþþþþþþþþþþþþþþþþþþþþþþþþþþþþþþþþþþþþþþþþþþþþþþþþþþþþþþþþþþÜ
                                   14838              Ÿ                                                                     Ÿ
                                   14839              Ÿ  DSNAUTH -- Routine to get permission to SCRATCH/UNCATALOG a        Ÿ
                                   14840              Ÿ    data set.                                                        Ÿ
                                   14841              Ÿ                                                                     Ÿ
                                   14842              Ÿ    On exit, R15 (and cc):                                           Ÿ
                                   14843              Ÿ      0 - ok                                                         Ÿ
                                   14844              Ÿ      nz- can't                                                      Ÿ
                                   14845              Ÿ                                                                     Ÿ
                                                      ¾þþþþþþþþþþþþþþþþþþþþþþþþþþþþþþþþþþþþþþþþþþþþþþþþþþþþþþþþþþþþþþþþþþþþþ»
000130A 50E0 D000/9008_      00000 14846              DSNAUTH  XENTER R0,R8,*+L'KWR
 DROP   *,R7
 USING  *,R7
 001324 9140 B477/47E0_00477       14868                       IF    CPGFLG4.CPFAUSET,BEGIN  set auth...
                                   14884  1         C            IF    (('CLC CPAUTHUS(3),DSNWAUSR',EQ),AND,
 00132C D502 B8A4 BE63_008A4 00E63        1                            ('CLC CPAUTHUS+3(2),DSNWAGRP',EQ)),SCRALL  it's ok
 001340                            14912                       END
                                   14916
 001340 D604 B7F8 B7F8_007F8 007F8 14917                       IF    (CPPACCT,NZ),BEGIN  Check pseudo account...
 00134A D501 B7FB BE60_007FB 00E60 14933  1                      IF ((CPPGRP,EQ,DSNWAGRP),AND,(CPPUSER,EQ,DSNWAUSR)),SCRALL
 00135E                            14971                       END
                                   14975
 00135E 58E0 7104/0DEE       01428 14976                       ACALL SEGDSN
 001364 4110 721B/4100_      0153F 14980                       TSEG  'is not yours.',,CR
                                   14998
 001376 9120 BD55/4710_00D55       14999                       IF    CPFKOK,TESTOK       Get only yes or ok
 00137E 9180 BF34      00F34       15017                       TM    DSNWAF1,DSNFSTD     Is this standard dsn
 001382 4780 7092            013B6 15018                       BZ    TESTPRIV            Br no, only priv access
                                   15019
 001386 4118 0028            00028 15020                       LA    R1,40(R8)           Point to password area
 USING  KWR,R1                     15021                       WITH  (KWR,R1),BEGIN
 00138A D7FF 1000 1000_00524 00524 15035  1                      CLEAR KWR                 Init area
 001396 D202 1000 BE63 00524 00E63 15043  1                      MVC   KWRUSER,DSNWADSN+DSNXU set user inits in area
 00139C D201 1003 BE60 00527 00E60 15044  1                      MVC   KWRGRP,DSNWADSN+DSNXG  Set group
 0013A2 1B00                       15045  1                      CLEAR R0                  Standard options
 0013A4 58E0 7144/0DEE       01468 15049  1                      VCALL CHKKW               Go see if ok to access
 0013AA 4780 70AC            013D0 15053  1                      BZ    SCRALL              Zero return means ok
 DROP   KWR,R1                     15054                       END
 0013AE 41F0 0024            00024 15062              NOTMYNO  LA    R15,ABRTCODE        Return a no reply
 0013B2 47F0 70B2            013D6 15063                       B     NOTMYRTN            Br if not his
                                   15064
 0013B6 9120 B3BE/47E0_003BE       15065              TESTPRIV IF    ~CPSFSPR,CVERROR    priv'd request
 0013BE 4110 71AC/4100_      014D0 15084              TESTOK   SETMSG 'OK'                Set prompt
 0013C6 58E0 7128/0DEE       0144C 15088                       VCALL YESREQ              Go check if ok
 0013CC 4770 708A            013AE 15092                       BNZ   NOTMYNO             Br if not his
 0013D0 9641 BF34      00F34       15093              SCRALL   OI    DSNWAF1,DSNFMYDS+DSNFACCS   indicate ds access
                                   15094              *                                  ok/has been verified
 0013D4 1BFF                       15095                       CLEAR R15                 Zero indicate it is ok
 0013D6 18D8/58E0 D000_            15099              NOTMYRTN XEXIT R0,R8,LTR
 DROP   *,R7                       15105                       DROP  BR
                                   15112
                                   15113                       QLTORG
1FILE     (FILE2025) (12:45) (15MAR04) CHKVOL Routine                                                                       Page   26
0Current Usings:  (CP,R11) (CV,R12)
0Loc    Object Code    Addr1 Addr2  Stmt Lv Lineno    Source Statement           (Hibal 5, Asmedit 3.3)  HLASM R4.0  2004/03/15 12.45
+___    ______ ____    _____ _____  ____ __ ______    ______ _________
0                                  15153              ¿þþþþþþþþþþþþþþþþþþþþþþþþþþþþþþþþþþþþþþþþþþþþþþþþþþþþþþþþþþþþþþþþþþþþþÜ
                                   15154              Ÿ                                                                     Ÿ
                                   15155              Ÿ  CHKVOL -- Routine to check to see if the user want's to            Ÿ
                                   15156              Ÿ    go ahead and SAVE/SCRATCH/USE the data set, even                 Ÿ
                                   15157              Ÿ    though it is cataloged on a different volume.                    Ÿ
                                   15158              Ÿ                                                                     Ÿ
                                   15159              Ÿ    On entry:                                                        Ÿ
                                   15160              Ÿ      R15 - contains RTNCODE (same as for NTGDOPN)                   Ÿ
                                   15161              Ÿ      R0  - LOCATE return code                                       Ÿ
                                   15162              Ÿ                                                                     Ÿ
                                   15163              Ÿ    On exit, cc:                                                     Ÿ
                                   15164              Ÿ      Z - retry operation                                            Ÿ
                                   15165              Ÿ                                                                     Ÿ
                                                      ¾þþþþþþþþþþþþþþþþþþþþþþþþþþþþþþþþþþþþþþþþþþþþþþþþþþþþþþþþþþþþþþþþþþþþþ»
000154C 50E0 D000/90F8_      00000 15166              CHKVOL   XENTER R15,R8,,LOCAL
 USING  *,R7
 001566 4120 0001            00001 15184                       LA    R2,1                flag: don't retry
 00156A 1830                       15185                       LR    R3,R0               LOCATE rc
                                   15186
 00156C 59F0 7372/4770_      018D8 15187                       IF    (R15,EQ,RTNCATDV),BEGIN  It's a vol mismatch...
 001574 58E0 7376/0DEE       018DC 15204  1                      ACALL SEGDSN
 00157A 1233/4780 7076             15208  1                      IF    (R3,NZ),BEGIN       Problem locating data set...
 001580 4110 7476/4100_      019DC 15222  2                        TSEG  'will not be cataloged'
 001592 4110 748B/4100_      019F1 15240  2                        SETMSG '.'
 00159A 5930 737E/4770_      018E4 15244  2                        IF    (R3,EQ,16),BEGIN
 0015A2 4110 72AA/4100_      01810 15261  3                          SETMSG ' because another data set starts with this name.'
 0015AA                            15265  2                        END
 0015AA 5930 7382/4770_      018E8 15269  2                        IF    (R3,EQ,12),BEGIN
 0015B2 4110 748C/4100_      019F2 15286  3                          SETMSG ' because of conflicting data set level names.'
 0015BA                            15290  2                        END
 0015BA 41F0 B050/58E0_      00050 15294  2                        TSEG  (R1),(R0),CR
 0015C4 9110 B477/47E0_00477       15318  2                        IF    (~CPFTYPED,OR,CPSTVIRT),CHKVSKIP
 0015D4 4110 738A/4100_      018F0 15350  2                        SETMSG 'Do you want to use this data set name anyway'
 0015DC                            15354  1                      END
                                   15358  1
 0015DC 707A/47F0 70CA 015DC 0157E 15359  1                      ELSE  BEGIN
 0015E0 4110 73F6/4100_      0195C 15370  2                        TSEG  'is already on '
 0015F2 4110 BEB8/4100_      00EB8 15388  2                        TSEG  DSNCATV,,CR
 001604 4110 74B9/4100_      01A1F 15416  2                        TSEG  'Do you want to use '
 001616 4110 BE90/4100_      00E90 15434  2                        TSEG  DSNON,,TB
 001628 4110 7404/4100_      0196A 15462  2                        SETMSG 'anyway'
 001630                            15466  1                      END
                                   15470  1
 001630 58E0 73BA/0DEE       01920 15471  1                      VCALL YESREQ              Get yes/no
 001636 9620 BD56      00D56       15475  1           CHKVSKIP   SET   CPFNOCAT            don't use the catalog this time
 00163A 1B22                       15482  1                      CLEAR R2
 00163C                            15486                       END
 00163C 1222                       15490                       LTR   R2,R2               Set cc
 00163E 18D8/58E0 D000_            15491                       XEXIT R15,R8
 DROP   *,R7                       15496                       DROP  BR
1FILE     (FILE2025) (12:45) (15MAR04) NTGDCAT Routine                                                                      Page   27
0Current Usings:  (CP,R11) (CV,R12)
0Loc    Object Code    Addr1 Addr2  Stmt Lv Lineno    Source Statement           (Hibal 5, Asmedit 3.3)  HLASM R4.0  2004/03/15 12.45
+___    ______ ____    _____ _____  ____ __ ______    ______ _________
000164A 0D70                       15504              NTGDCAT  BASE
 USING  *,R7
 00164C 900F C780/4DE0_      00780 15518                       XTRACE NTGDCAT,REGS=ALL
                                   15523              * note that the r15 code is the return code from the catlg
                                   15524              * function.  however, if the catlg function code was 8 then
                                   15525              * 32 was added to the locate return code in r1 and this value
                                   15526              * appears in r15.
 001660 102F                       15527                       LPR    R2,R15             Save rc
 001662 4110 72D8/4100_      01924 15528                       TSEG  'not '
 001674 58E0 72DC/0DEE       01928 15546                       ACALL CAT
 00167A 58F0 B05C/06F0_      0005C 15550                       DECR  R15,CPSEGLENF       Unseg trailing blank
 001684 4110 73E6/4100_      01A32 15555                       TSEG  '.  '
 001696 1222/4780 7926_            15573                       IF    ((R2,Z),OR,(R2,GT,68)),RTNERR  bad error
                                   15606
 0016A4 47F2 7058            016A4 15607                       B     *(R2)               Take proper branch
 0016A8 47F0 70A0            016EC 15608                       B     CATRC4              Cvol not available
 0016AC 47F0 718C            017D8 15609                       B     CATSKIP             can't happen - locate rc used
 0016B0 47F0 718C            017D8 15610                       B     CATSKIP             can't happen - not used
 0016B4 47F0 70B2            016FE 15611                       B     CATRC16             Index does not exist
 0016B8 47F0 70C4            01710 15612                       B     CATRC20             No space on cvol
 0016BC 47F0 70D6            01722 15613                       B     CATRC24             Invalid dsname
 0016C0 47F0 70E8            01734 15614                       B     CATRC28             I/O error
 0016C4 47F0 70FA            01746 15615                       B     LOCRC0              Already cataloged
 0016C8 47F0 70A0            016EC 15616                       B     CATRC4              Cvol no t available
 0016CC 47F0 710C            01758 15617                       B     LOCRC8              Not in catlg
 0016D0 47F0 7132            0177E 15618                       B     LOCRC12             Name is index
 0016D4 47F0 7144            01790 15619                       B     LOCRC16             Data set at lower level
 0016D8 47F0 7156            017A2 15620                       B     LOCRC20             Bad dsname
 0016DC 47F0 70E8            01734 15621                       B     CATRC28             I/O error
 0016E0 47F0 718C            017D8 15622                       B     CATSKIP             Bad ttr -- can't happen
 0016E4 47F0 7168            017B4 15623                       B     CATRC64             Vol unrecognized, no UNIT parm
 0016E8 47F0 717A            017C6 15624                       B     CATRC68             No access to master catlg
                                   15625
 0016EC 4110 7324/4100_      01970 15626              CATRC4   SETMSG 'CVOL is not available.'
 0016F4 D207 B886 71F4 00886 01840 15630                       MVC   CPERRID,=CL8'CATNCVOL'
 0016FA 47F0 71B6            01802 15631                       B     NTGDCATX
                                   15632
 0016FE 4110 73E9/4100_      01A35 15633              CATRC16  SETMSG 'Index does not exist.'
 001706 D207 B886 71FC 00886 01848 15637                       MVC   CPERRID,=CL8'CATNINDX'
 00170C 47F0 71B6            01802 15638                       B     NTGDCATX
                                   15639
 001710 4110 72E4/4100_      01930 15640              CATRC20  SETMSG 'No space in catalog.'
 001718 D207 B886 7204 00886 01850 15644                       MVC   CPERRID,=CL8'CATNSP'
 00171E 47F0 71B6            01802 15645                       B     NTGDCATX
                                   15646
 001722 4110 73FE/4100_      01A4A 15647              CATRC24  SETMSG 'Invalid dsname.'
 00172A D207 B886 720C 00886 01858 15651                       MVC   CPERRID,=CL8'CATBDGDG'
 001730 47F0 71B6            01802 15652                       B     NTGDCATX
                                   15653
 001734 4110 733A/4100_      01986 15654              CATRC28  SETMSG 'I/O error.'
 00173C D207 B886 7214 00886 01860 15658                       MVC   CPERRID,=CL8'CATIOERR'
 001742 47F0 71B6            01802 15659                       B     NTGDCATX
1FILE     (FILE2025) (12:45) (15MAR04) NTGDCAT Routine                                                                      Page   28
0Current Usings:  (*,R7) (CP,R11) (CV,R12)
0Loc    Object Code    Addr1 Addr2  Stmt Lv Lineno    Source Statement           (Hibal 5, Asmedit 3.3)  HLASM R4.0  2004/03/15 12.45
+___    ______ ____    _____ _____  ____ __ ______    ______ _________
0
 001746 4110 7344/4100_      01990 15661              LOCRC0   SETMSG 'Already cataloged.'
 00174E D207 B886 721C 00886 01868 15665                       MVC   CPERRID,=CL8'CATALRDY'
 001754 47F0 71B6            01802 15666                       B     NTGDCATX
                                   15667
 001758 D502 740D BD24_01A59 00D24 15668              LOCRC8   IF    ((CPCMNM,EQ,'OSR'),OR,(CPCMNM,EQ,'REN')),LOCRC0
 00176C 4110 7413/4100_      01A5F 15705                       SETMSG 'Not in catalog.'
 001774 D207 B886 7224 00886 01870 15709                       MVC   CPERRID,=CL8'CATNOT'
 00177A 47F0 71B6            01802 15710                       B     NTGDCATX
                                   15711
 00177E 4110 722C/4100_      01878 15712              LOCRC12  SETMSG 'Dsname is index.'
 001786 D207 B886 723C 00886 01888 15716                       MVC   CPERRID,=CL8'CATINDEX'
 00178C 47F0 71B6            01802 15717                       B     NTGDCATX
                                   15718
 001790 4110 7356/4100_      019A2 15719              LOCRC16  SETMSG 'Dsname at lower level.'
 001798 D207 B886 7244 00886 01890 15723                       MVC   CPERRID,=CL8'CATLOWER'
 00179E 47F0 71B6            01802 15724                       B     NTGDCATX
                                   15725
 0017A2 4110 72F8/4100_      01944 15726              LOCRC20  SETMSG 'Dsname syntax error.'
 0017AA D207 B886 724C 00886 01898 15730                       MVC   CPERRID,=CL8'CATBDDSN'
 0017B0 47F0 71B6            01802 15731                       B     NTGDCATX
                                   15732
 0017B4 4110 736C/4100_      019B8 15733              CATRC64  SETMSG 'Missing UNIT parameter'
 0017BC D207 B886 7254 00886 018A0 15737                       MVC   CPERRID,=CL8'CATUNREQ'
 0017C2 47F0 71B6            01802 15738                       B     NTGDCATX
                                   15739
 0017C6 4110 725C/4100_      018A8 15740              CATRC68  SETMSG 'Master catalog cannot be updated'
 0017CE D207 B886 727C 00886 018C8 15744                       MVC   CPERRID,=CL8'CATMASNA'
 0017D4 47F0 71B6            01802 15745                       B     NTGDCATX
                                   15746
 0017D8 4110 7382/4100_      019CE 15747              CATSKIP  TSEG  'Catalog error='
 0017EA 1812/1B00/41F0_            15765                       TNUM  (R2)
 0017F8 D207 B886 7284 00886 018D0 15787                       MVC   CPERRID,=CL8'CATBDRET'
 0017FE 47F0 7926            01F72 15788                       B     RTNERR
                                   15789
 001802 41F0 B050/58E0_      00050 15790              NTGDCATX TSEG  (R1),(R0)           Put message in buffer
 00180C 47F0 7926            01F72 15815                       B     RTNERR
                                   15816                       QLTORG
1FILE     (FILE2025) (12:45) (15MAR04) Open Error Message Routine                                                           Page   29
0Current Usings:  (*,R7) (CP,R11) (CV,R12)
0Loc    Object Code    Addr1 Addr2  Stmt Lv Lineno    Source Statement           (Hibal 5, Asmedit 3.3)  HLASM R4.0  2004/03/15 12.45
+___    ______ ____    _____ _____  ____ __ ______    ______ _________
0001A6E 188D/4570 C74C_            15878              NTGDOPN  GENTER
 DROP   *,R7
 USING  *,R7
 001A7C 186F                       15898                       LR    R6,R15              Save error condition
 001A7E 1850                       15899                       LR    R5,R0               Save any parm passed back
 001A80 D502 7816 BD24_02292 00D24 15900                       IF    ((CPCMNM,EQ,'HEL'),OR,(CPCMNM,EQ,'?  ')),BEGIN
 001A94 4110 781C/4100_      02298 15933  1                      TSEG  'No help available -- '
 001AA6                            15951                       END
 001AA6 4960 7770            021EC 15955                       CH    R6,=AL2(RTNCATER)   Is it possible catastrphe?
 001AAA 47B0 728E            01D0A 15956                       BNL   CATER
 001AAE 4960 7772            021EE 15957                       CH    R6,=AL2(TALOCODE)   Talo on dopen?
 001AB2 47B6 7040            01ABC 15958                       BNL   THISEN(R6)          don't print dsname
 001AB6 58E0 7688/0DEE       02104 15959                       ACALL SEGDSN
 001ABC 47F6 7040            01ABC 15963              THISEN   B     THISEN(R6)          Branch to proper continuation
 001AC0 47F0 70F4            01B70 15964                       B     NOSUCH              4
 001AC4 47F0 7154            01BD0 15965                       B     EXISTS              8
 001AC8 47F0 71BC            01C38 15966                       B     NOROOM              12
 001ACC 47F0 72C8            01D44 15967                       B     BATCH               16
 001AD0 47F0 73FA            01E76 15968                       B     ILLBLKSZ            20
 001AD4 47F0 70BE            01B3A 15969                       B     DSILLEG             24
 001AD8 47F0 70AC            01B28 15970                       B     ILLORG              28
 001ADC 47F0 74F6            01F72 15971                       B     RTNERR              32    talo
 001AE0 47F0 7334            01DB0 15972                       B     ABORTMS             36    abort
 001AE4 47F0 70D0            01B4C 15973                       B     BDVOLM              40
 001AE8 47F0 7362            01DDE 15974                       B     ILLMEMB             44
 001AEC 47F0 7436            01EB2 15975                       B     NODIRSPC            48
 001AF0 47F0 7312            01D8E 15976                       B     EXPDTPRO            52
 001AF4 47F0 72DA            01D56 15977                       B     OUTOFSP             56
 001AF8 47F0 7458            01ED4 15978                       B     DIRIOERR            60
 001AFC 47F0 7474            01EF0 15979                       B     ILLCATRF            64
 001B00 47F0 7334            01DB0 15980                       B     ABORTMS             68   seq ds with mem specified
 001B04 47F0 7350            01DCC 15981                       B     NOACCESS            72   (restricted volume)
 001B08 47F0 74C2            01F3E 15982                       B     BUSYMSG             76   allocation busy
 001B0C 4700 0000            00000 15983                       NOP   0                   80   sho rtn err not handled here
 001B10 47F0 72F6            01D72 15984                       B     NOSTORE             84   no disk usage allowed
 001B14 47F0 7480            01EFC 15985                       B     ALLOCERR            88   allocation error
 001B18 47F0 7496            01F12 15986                       B     NOTAVAIL            92   volume not available
 001B1C 47F0 74AC            01F28 15987                       B     NOPATHS             96   no volume paths available
 001B20 47F0 71D8            01C54 15988                       B     WRONGVOL            100  not the same vol as catalog
 001B24 47F0 7260            01CDC 15989                       B     BACKUPS             104  volume in backup status
                                   15990
 001B28 4110 768C/4100_      02108 15991              ILLORG   SETMSG 'DSORG or RECFM not valid for WYLBUR.'
 001B30 D207 B886 755C 00886 01FD8 15995                       MVC   CPERRID,=CL8'BADDSORG'
 001B36 47F0 74EA            01F66 15996                       B     RTNERRMS
 001B3A 4110 7564/4100_      01FE0 15997              DSILLEG  SETMSG ': invalid dsname'
 001B42 D207 B886 7574 00886 01FF0 16001                       MVC   CPERRID,=CL8'INVDSN'
 001B48 47F0 74EA            01F66 16002                       B     RTNERRMS
 001B4C 4110 BE90/4100_      00E90 16003              BDVOLM   TSEG  DSNON,,T
 001B5E 4110 757C/4100_      01FF8 16031                       SETMSG ': volume/host not found.'
 001B66 D207 B886 7594 00886 02010 16035                       MVC   CPERRID,=CL8'BADVOL'
 001B6C 47F0 74EA            01F66 16036                       B     RTNERRMS
                                   16037
 001B70 D502 7831 BD24_022AD 00D24 16038              NOSUCH   IF    ((CPCMNM,EQ,'EXE'),AND,CPFQUIET),BEGIN
 001B82 41F0 B050/58E0_      00050 16070  1                      TCLEAR
1FILE     (FILE2025) (12:45) (15MAR04) Open Error Message Routine                                                           Page   30
0Current Usings:  (*,R7) (CP,R11) (CV,R12)
0Loc    Object Code    Addr1 Addr2  Stmt Lv Lineno    Source Statement           (Hibal 5, Asmedit 3.3)  HLASM R4.0  2004/03/15 12.45
+___    ______ ____    _____ _____  ____ __ ______    ______ _________
0001B8C 47F0 C7DE            007DE 16084  1                      B     CVNEXT
 001B90                            16085                       END
 001B90 D627 BE90 BE90_00E90 00E90 16089                       IF    (DSNON,Z),BEGIN
 001B9A D207 B886 759C 00886 02018 16105  1                      MVC   CPERRID,=CL8'NOTINCAT'
 001BA0 4110 7774/4100_      021F0 16106  1                      SETMSG 'does not exist in the catalog.'
 001BA8 950C BF35/4780_00F35       16110  1                      IF    (DSNWAF2,EQ,DSNFSHOW+DSNFCAT),CVNXTMSG
 001BB0 47F0 C7C8            007C8 16131  1                      B     CVERRMSG
 001BB4                            16132                       END
 001BB4 4110 76B8/4100_      02134 16136                       TSEG  'not '
 001BC6 D207 B886 75A4 00886 02020 16154                       MVC   CPERRID,=CL8'NOTONVOL'
 001BCC 47F0 716C            01BE8 16155                       B     VOLTOMSG
                                   16156
 001BD0 4110 75AC/4100_      02028 16157              EXISTS   TSEG  'already '
 001BE2 D207 B886 75B4 00886 02030 16175                       MVC   CPERRID,=CL8'ONVOL'
                                   16176
 001BE8 D627 BE90 BE90_00E90 00E90 16177              VOLTOMSG IF    (DSNON,NZ),'TSEG "on "; TSEG DSNON,,T'
 001C16 9140 B474/47E0_00474       16245                       IF    CPFRCVY,'TCLEAR; B RTNERR'
 001C2C 950C BF35      00F35       16280                       CLI   DSNWAF2,DSNFSHOW+DSNFCAT  Is cmd show catalog?
 001C30 4780 C7DE            007DE 16281                       BE    CVNEXT              No error then
 001C34 47F0 C7D6            007D6 16282                       B     CVERROR
                                   16283
 001C38 4110 7837/4100_      022B3 16284              NOROOM   TSEG  'can''t find space '
 001C4A D207 B886 75BC 00886 02038 16302                       MVC   CPERRID,=CL8'NOROOM'
 001C50 47F0 716C            01BE8 16303                       B     VOLTOMSG
                                   16304
 001C54 58E0 7688/0DEE       02104 16305              WRONGVOL ACALL SEGDSN
 001C5A 4110 76BC/4100_      02138 16309                       TSEG  'is already cataloged'
                                   16327
 001C6C 1255/4770 721A             16328                       IF    (R5,Z),BEGIN
 001C72 4110 76D0/4100_      0214C 16342  1                      TSEG  ' on '
 001C84 D207 B886 759C_00886 02018 16360  1                      ERROR DSNCATV,,NOTINCAT
 001C96                            16378                       END
                                   16382
 001C96 5950 76D4/4770_      02150 16383                       IF    (R5,EQ,16),BEGIN
 001C9E D207 B886 75C4_00886 02040 16400  1                      ERROR ' as part of another data set name.',,INCATIND
 001CB0                            16408                       END
 001CB0 5950 76D8/4770_      02154 16412                       IF    (R5,EQ,12),BEGIN
 001CB8 4110 75CC/4100_      02048 16429  1                      SETMSG ' and conflicts with another data set level name.'
 001CC0 D207 B886 75FC_00886 02078 16433  1                      ERROR (R1),(R0),INCATLOW
 001CCA                            16447                       END
 001CCA D207 B886 7604_00886 02080 16451                       ERROR '.',,INCAT
                                   16459
 001CDC 4110 BE90/4100_      00E90 16460              BACKUPS  TSEG  DSNON,,T
 001CEE 4110 76DC/4100_      02158 16488                       TSEG  ': Volume currently undergoing system backup.',,CR
 001D00 D207 B886 760C 00886 02088 16506                       MVC   CPERRID,=CL8'VOLBKUP'
 001D06 47F0 7334            01DB0 16507                       B     ABORTMS
                                   16508
 001D0A 4110 7849/4100_      022C5 16509              CATER    TSEG  'Error #'
 001D1C 5050 BC88            00C88 16527                       ST    R5,CPDOUB           Save formatted error number
 001D20 4110 BC89/4100_      00C89 16528                       TSEG  CPDOUB+1,3          And write it
 001D32 4110 77B4/4100_      02230 16558                       SETMSG '.  Command incomplete.'
 001D3A D207 B886 7614 00886 02090 16562                       MVC   CPERRID,=CL8'CATER'
 001D40 47F0 74EA            01F66 16563                       B     RTNERRMS
 001D44 4110 7850/4100_      022CC 16564              BATCH    SETMSG 'data set is in use.'
1FILE     (FILE2025) (12:45) (15MAR04) Open Error Message Routine                                                           Page   31
0Current Usings:  (*,R7) (CP,R11) (CV,R12)
0Loc    Object Code    Addr1 Addr2  Stmt Lv Lineno    Source Statement           (Hibal 5, Asmedit 3.3)  HLASM R4.0  2004/03/15 12.45
+___    ______ ____    _____ _____  ____ __ ______    ______ _________
0001D4C D207 B886 761C 00886 02098 16568                       MVC   CPERRID,=CL8'DSNINUSE'
 001D52 47F0 74EA            01F66 16569                       B     RTNERRMS
                                   16570
 001D56 4110 770C/4100_      02188 16571              OUTOFSP  TSEG  'Allowed disk space exceeded.',,CR
 001D68 D207 B886 7624 00886 020A0 16589                       MVC   CPERRID,=CL8'OUTOFSP'
 001D6E 47F0 C7EA            007EA 16590                       B     CVNOACTN            No retry (even if recovery)
                                   16591
 001D72 4110 7863/4100_      022DF 16592              NOSTORE  TSEG  'Disk storage not allowed.',,CR
 001D84 D207 B886 762C 00886 020A8 16610                       MVC   CPERRID,=CL8'NOSTORE'
 001D8A 47F0 C7EA            007EA 16611                       B     CVNOACTN            No retry (even if recovery)
                                   16612
 001D8E 58E0 7688/0DEE       02104 16613              EXPDTPRO ACALL SEGDSN
 001D94 4110 77CA/4100_      02246 16617                       TSEG  'is date protected.',,CR
 001DA6 D207 B886 7634 00886 020B0 16635                       MVC   CPERRID,=CL8'DSNEXPDT'
 001DAC 47F0 74EA            01F66 16636                       B     RTNERRMS
                                   16637
 001DB0 4110 763C/4100_      020B8 16638              ABORTMS  SETMSG 'No action taken.'
 001DB8 D607 B886 B886_00886 00886 16642                       IF    (CPERRID,Z),'MVC CPERRID,=CL8"NOACTION"'
 001DC8 47F0 74EA            01F66 16664                       B     RTNERRMS
                                   16665
 001DCC 4110 7728/4100_      021A4 16666              NOACCESS SETMSG 'Access not permitted'
 001DD4 D207 B886 7654 00886 020D0 16670                       MVC   CPERRID,=CL8'NOACCESS'
 001DDA 47F0 74EA            01F66 16671                       B     RTNERRMS
                                   16672
 001DDE 91BF BE88      00E88       16673              ILLMEMB  TM    DSNWAMBR,X'BF'      Was member specified?
 001DE2 4780 73E8            01E64 16674                       BZ    ILLMEMB2            no - that's what's wrong
 001DE6 D502 7831 BD24_022AD 00D24 16675                       IF    ((CPCMNM,EQ,'EXE'),AND,CPFQUIET),BEGIN
 001DF8 41F0 B050/58E0_      00050 16706  1                      TCLEAR
 001E02 47F0 C7DE            007DE 16720  1                      B     CVNEXT
 001E06                            16721                       END
 001E06 D502 7816 BD24_02292 00D24 16725                       IF    ((CPCMNM,EQ,'HEL'),OR,(CPCMNM,EQ,'?  ')),BEGIN
 001E1A 41F0 B050/58E0_      00050 16758  1                      TCLEAR
 001E24 4110 77DC/4100_      02258 16772  1                      TSEG  'No help available for '
 001E36 4110 BE88/4100_      00E88 16790  1                      SETMSG DSNWAMBR
 001E3E 47F0 74EA            01F66 16804  1                      B     RTNERRMS
 001E42                            16805                       END
 001E42 58E0 773C/0DEE       021B8 16809                       ACALL MEMBERED            Go tseg member name
 001E48 4110 787C/4100_      022F8 16813                       TSEG  'not in '
 001E5A D207 B886 765C 00886 020D8 16831                       MVC   CPERRID,=CL8'NOTINPDS'
 001E60 47F0 744E            01ECA 16832                       B     DIRDSN              Put out dsname
 001E64 4110 7740/4100_      021BC 16833              ILLMEMB2 SETMSG 'Member not specified'
 001E6C D207 B886 7664 00886 020E0 16837                       MVC   CPERRID,=CL8'NOMEMBER'
 001E72 47F0 74EA            01F66 16838                       B     RTNERRMS
                                   16839
 001E76 4110 77F2/4100_      0226E 16840              ILLBLKSZ TSEG  ': '
 001E88 18F5/1B00/4110_            16858                       BTD   CPDOUB,0,(R5)       Get invalid blocksize
 001E96 41F0 B050/58E0_      00050 16878                       TSEG  (R1),(R0),B
 001EA0 4110 775C/4100_      021D8 16902                       SETMSG 'Block size too large'
 001EA8 D207 B886 766C 00886 020E8 16906                       MVC   CPERRID,=CL8'BIGBLKSZ'
 001EAE 47F0 74EA            01F66 16907                       B     RTNERRMS
                                   16908
 001EB2 4110 7883/4100_      022FF 16909              NODIRSPC TSEG  'No more directory space in '
 001EC4 D207 B886 7674 00886 020F0 16927                       MVC   CPERRID,=C'DIRNOSPC'
 001ECA 58E0 7688/0DEE       02104 16928              DIRDSN   ACALL SEGDSN
1FILE     (FILE2025) (12:45) (15MAR04) Open Error Message Routine                                                           Page   32
0Current Usings:  (*,R7) (CP,R11) (CV,R12)
0Loc    Object Code    Addr1 Addr2  Stmt Lv Lineno    Source Statement           (Hibal 5, Asmedit 3.3)  HLASM R4.0  2004/03/15 12.45
+___    ______ ____    _____ _____  ____ __ ______    ______ _________
0001ED0 47F0 74F6            01F72 16932                       B     RTNERR
                                   16933
 001ED4 4110 789E/4100_      0231A 16934              DIRIOERR TSEG  'Directory I/O error in '
 001EE6 D207 B886 767C 00886 020F8 16952                       MVC   CPERRID,=CL8'DIRIOERR'
 001EEC 47F0 744E            01ECA 16953                       B     DIRDSN              Go put in dsname
                                   16954
 001EF0 4110 77F4/4100_      02270 16955              ILLCATRF SETMSG 'Specific volume must be specified.'
 001EF8 47F0 74EA            01F66 16959                       B     RTNERRMS
                                   16960
 001EFC 4110 78B5/4100_      02331 16961              ALLOCERR TSEG  'Error in allocation',,CR
 001F0E 47F0 7334            01DB0 16979                       B     ABORTMS
                                   16980
 001F12 4110 78C8/4100_      02344 16981              NOTAVAIL TSEG  'Volume not currently available to WYLBUR.',,CR
 001F24 47F0 7334            01DB0 16999                       B     ABORTMS
                                   17000
 001F28 4110 78F1/4100_      0236D 17001              NOPATHS  TSEG  'No volume paths available. '
 001F3A 47F0 74D4            01F50 17019                       B     TRYAGAIN
                                   17020
 001F3E 4110 790C/4100_      02388 17021              BUSYMSG  TSEG  'Volume busy. '
 001F50 4110 7919/4100_      02395 17039              TRYAGAIN TSEG  ' Try again later.',,CR
 001F62 47F0 7334            01DB0 17057                       B     ABORTMS
1FILE     (FILE2025) (12:45) (15MAR04) Open Error Message Routine                                                           Page   33
0Current Usings:  (*,R7) (CP,R11) (CV,R12)
0Loc    Object Code    Addr1 Addr2  Stmt Lv Lineno    Source Statement           (Hibal 5, Asmedit 3.3)  HLASM R4.0  2004/03/15 12.45
+___    ______ ____    _____ _____  ____ __ ______    ______ _________
0001F66 0D70                       17059              RTNERRMS BASE
 DROP   *,R7
 USING  *,R7
 001F68 41F0 B050/58E0_      00050 17076                       TSEG  (R1),(R0)
                                   17100
 001F72 0D70                       17101              RTNERR   BASE
 DROP   *,R7
 USING  *,R7
 001F74 9110 C4C5/47E0_004C5       17118                       IF    (CVFRCVY,AND,(CPSEGLENF,NZ)),BEGIN
 001F86 4110 7432/4100_      023A6 17148  1                      TSEG  ' - Account '
 001F98 4110 B3B7/4100_      003B7 17166  1                      TSEG  CPSGRP
 001FAA 4110 7350/4100_      022C4 17194  1                      TSEG  '.'
 001FBC 4110 B3B4/4100_      003B4 17212  1                      TSEG  CPSUSER
 001FCE                            17240                       END
 001FCE 47F0 C7D6            007D6 17244                       B     CVERROR
 DROP   *,R7                       17245                       DROP  BR
                                   17252
                                   17253                       QLTORG
1FILE     (FILE2025) (12:45) (15MAR04) Access Check Subroutine                                                              Page   34
0Current Usings:  (CP,R11) (CV,R12)
0Loc    Object Code    Addr1 Addr2  Stmt Lv Lineno    Source Statement           (Hibal 5, Asmedit 3.3)  HLASM R4.0  2004/03/15 12.45
+___    ______ ____    _____ _____  ____ __ ______    ______ _________
0                                  17341              ¿þþþþþþþþþþþþþþþþþþþþþþþþþþþþþþþþþþþþþþþþþþþþþþþþþþþþþþþþþþþþþþþþþþþþþÜ
                                   17342              Ÿ                                                                     Ÿ
                                   17343              Ÿ  ACSCHECK -- Routine to check to see if the user can access         Ÿ
                                   17344              Ÿ    the data set.                                                    Ÿ
                                   17345              Ÿ                                                                     Ÿ
                                   17346              Ÿ                                                                     Ÿ
                                                      ¾þþþþþþþþþþþþþþþþþþþþþþþþþþþþþþþþþþþþþþþþþþþþþþþþþþþþþþþþþþþþþþþþþþþþþ»
00023B1 00/50E0 D000/900_          17347              ACSCHECK XENTER R0,R8
 USING  *,R7
 0023CC 49F0 7348            02714 17366                       CH    R15,=AL2(RTNNOACS)  No access return code?
 0023D0 4770 7030            023FC 17367                       BNE   ACSEXIT             No, exit to caller
 0023D4 1200                       17368                       LTR   R0,R0               No access allowed?
 0023D6 4780 703E            0240A 17369                       BZ    NOTPERMT            Not permitted at all
 0023DA 9120 B3BE/47E0_003BE       17370                       IF    (CPSFSPR,AND,(CPSPROJ,EQ,'NC')),ACSSKIP  niz, kludge
 0023EC 58E0 731C/0DEE       026E8 17404                       VCALL DSNAUTH             Check if ok to use dsname
 0023F2 4770 7080            0244C 17408                       BNZ   ACSABRT             No, abort
 0023F6 9640 BF34      00F34       17409              ACSSKIP  OI    DSNWAF1,DSNFMYDS    Its ok - tell the world
 0023FA 1BFF                       17410                       CLEAR R15
 0023FC 18D8/58E0 D000_            17414              ACSEXIT  XEXIT R0,R8,LTR
                                   17420
 00240A D502 735E BD24_0272A 00D24 17421              NOTPERMT IF    ((CPCMNM,EQ,'HEL'),OR,(CPCMNM,EQ,'?  ')),BEGIN
 00241E 4110 7364/4100_      02730 17455  1                      TSEG  'No help available -- '
 002430                            17473                       END
 002430 4110 7379/4100_      02745 17477                       TSEG  'Access not permitted for '
 002442 58E0 7324/0DEE       026F0 17495                       ACALL SEGDSN
 002448 47F0 C7D6            007D6 17499                       B     CVERROR             Good bye cruel world
                                   17500
 00244C 58E0 7328/0DEE       026F4 17501              ACSABRT  VCALL NTGDOPN             Abort the command
                                   17505
 DROP   *,R7                       17506                       DROP  BR
1FILE     (FILE2025) (12:45) (15MAR04) Access Check Subroutine                                                              Page   35
0Current Usings:  (CP,R11) (CV,R12)
0Loc    Object Code    Addr1 Addr2  Stmt Lv Lineno    Source Statement           (Hibal 5, Asmedit 3.3)  HLASM R4.0  2004/03/15 12.45
+___    ______ ____    _____ _____  ____ __ ______    ______ _________
0                                  17514              ¿þþþþþþþþþþþþþþþþþþþþþþþþþþþþþþþþþþþþþþþþþþþþþþþþþþþþþþþþþþþþþþþþþþþþþÜ
                                   17515              Ÿ                                                                     Ÿ
                                   17516              Ÿ  SEGDSN -- Routine to seg dsname.                                   Ÿ
                                   17517              Ÿ                                                                     Ÿ
                                                      ¾þþþþþþþþþþþþþþþþþþþþþþþþþþþþþþþþþþþþþþþþþþþþþþþþþþþþþþþþþþþþþþþþþþþþþ»
0002452 50E0 D000/9008_      00000 17518              SEGDSN   XPROC ,
 USING  *,R7
                                   17558
 00246C 5860 BE54            00E54 17559                       L     R6,CPFINFOP
 USING  FFINFO,R6                  17560                       USING FFINFO,R6
                                   17569
 002470 D503 7270 BE54_026DC 00E54 17570                       IF    ((CPFINFOP,NE,0),AND,~FFFOLD),BEGIN
                                   17602  1                      COMMENT                   GET NAME LOC, LEN
 002482 4110 6218/5800_      00218 17603  1                      SETMSG FFRNAME,L:FFRNAMEL  FULL NAME
 00248A 1200/4770 702C             17617  1                      IF    (R0,Z),BEGIN        IF NONE, TYPED NAME
 002490 4110 600C/5800_      0000C 17631  2                        SETMSG FFNAME,L:FFNAMEL
 002498                            17645  1                      END
 002498 5900 728C/4770_      026F8 17649  1                      IF    ((R0,EQ,1),AND,(@R1,EQ,'*')),BEGIN  IF NAME '*'
 0024A8 4110 629C/5800_      0029C 17681  2                        SETMSG FFPNAME,L:FFPNAMEL  PREVIOUS (CURRENT) FULL NAME
 0024B0                            17695  1                      END
 0024B0 1200/4770 7052             17699  1                      IF    (R0,Z),BEGIN        IF NONE, TYPED NAME
 0024B6 4110 600C/5800_      0000C 17713  2                        SETMSG FFNAME,L:FFNAMEL
 0024BE                            17727  1                      END
                                   17731  1                      COMMENT                   SUPPRESS WYL.GG.UUU IF NEEDED
                                   17732  1         C            IF    ((R0,GE,11),AND,(@R1,EQ,'WYL.'),AND,
                                          1         C                  (@R1+6,EQ,'.'),AND,(@R1+10,EQ,'.'),AND,
 0024BE 5900 7290/4750_      026FC        1                            (CPSGRP,EQ,@R1+4),AND,(CPSUSER,EQ,@R1+7)),BEGIN
 0024F4 4110 100B            0000B 17818  2                        LA    R1,@R1+11           Skip past the standard prefix
 0024F8 4B00 72AC            02718 17819  2                        SH    R0,=H'11'
 0024FC                            17820  1                      END
 0024FC 41F0 B050/58E0_      00050 17824  1                      TSEG  (R1),(R0)
 002506                            17848                       END
                                   17852              *
                                   17853              * ** DEBUG ** OLD DSN FILE SCANNING, USE NAME IN DSNWA IN CP
                                   17854              *
 002506 709E/709E/47F0_02506 02478 17855                       ELSE  BEGIN
 00250A 9501 BF3B/4770_00F3B       17868  1                      IF    (DSNDTYPE,EQ,DSNDDISK),BEGIN  Disk...
 002512 9120 BF37/47E0_00F37       17886  2                        IF    DSNFBADN,'TSEG '''''
 00252C 9180 BF34/4710_00F34       17924  2                        IF    ~DSNWAF1.DSNFSTD,'TSEG "$"'  Non-WYLBUR dsname
 002546                            17963  1                      END
                                   17967  1
 002546 4110 BE5C/4100_      00E5C 17968  1                      SETMSG DSNWADSN            Dsname
 00254E 9180 BF34/47E0_00F34       17982  1                      IF    DSNWAF1.DSNFSTD,BEGIN  WYLBUR dsname...
 002556 D501 BE60 B3B7_00E60 003B7 17998  2                        IF    ((DSNWAGRP,NE,CPSGRP),OR,(DSNWAUSR,NE,CPSUSER)),EXIT
 00256A 9108 C4C5/4710_004C5       18036  2                        IF    CVFINIT,EXIT        (Show full dsname if recovery)
                                   18054  2
 002572 4110 100B            0000B 18055  2                        LA    R1,@R1+DSNXN        Skip past WYLBUR prefix
 002576 4B00 72AE            0271A 18056  2                        SH    R0,=AL2(DSNXN)
 00257A 47B0 7114/1B00       02580 18057  2                        IF    NEG,'CLEAR R0'
 002580                            18077  1                      END
 002580 41F0 B050/58E0_      00050 18081  1                      TSEG  (R1),(R0),T
                                   18105  1
 00258A 9501 BF3B/4770_00F3B       18106  1                      IF    (DSNDTYPE,EQ,DSNDDISK),BEGIN  Disk...
1FILE     (FILE2025) (12:45) (15MAR04) Access Check Subroutine                                                              Page   36
0Current Usings:  (FFINFO,R6) (*,R7) (CP,R11) (CV,R12)
0Loc    Object Code    Addr1 Addr2  Stmt Lv Lineno    Source Statement           (Hibal 5, Asmedit 3.3)  HLASM R4.0  2004/03/15 12.45
+___    ______ ____    _____ _____  ____ __ ______    ______ _________
0002592 9120 BF37/47E0_00F37       18124  2                        IF    DSNFBADN,'TSEG '''''
 0025AC                            18162  1                      END
 0025AC                            18166                       END
                                   18170
 0025AC 4110 C4D8/4100_      004D8 18171                       TSEG  CVBLANKS,1
 0025BE 18D8/9808 D004_            18201                       PEND
 DROP   *,R7
 DROP   FFINFO,R6                  18221                       DROP  R6
1FILE     (FILE2025) (12:45) (15MAR04) Access Check Subroutine                                                              Page   37
0Current Usings:  (CP,R11) (CV,R12)
0Loc    Object Code    Addr1 Addr2  Stmt Lv Lineno    Source Statement           (Hibal 5, Asmedit 3.3)  HLASM R4.0  2004/03/15 12.45
+___    ______ ____    _____ _____  ____ __ ______    ______ _________
0                                  18229              ***  routine to tseg variable length member with trailing blank
                                   18230              *
 0025CC 50E0 D000/9028_      00000 18231              MEMBERED XENTER
 USING  *,R7
 0025E6 4130 BE88            00E88 18250                       LA    R3,DSNWAMBR         Get member addr
 0025EA 4120 0008            00008 18251                       LA    R2,L'DSNWAMBR
 0025EE 4110 3007            00007 18252                       LA    R1,@R3+L'DSNWAMBR-1
 0025F2 1222/47D0 7022_            18253                       WHILE ((R2,POS),AND,(@R1,EQ,' ')),'DECR R1; DECR R2'
 DROP   *,R7                       18294                       DROP  BR
 002608 0D70                       18301                       BASE
 USING  *,R7
 00260A 1813/1802/41F0_            18315                       TSEG  (R3),(R2),B
 002618 1813                       18341                       LR    R1,R3
 00261A 1802                       18342                       LR    R0,R2
 00261C 18D8/58E0 D000_            18343                       XEXIT R2,R8               Rtrn
 DROP   *,R7                       18348                       DROP  BR
1FILE     (FILE2025) (12:45) (15MAR04) Access Check Subroutine                                                              Page   38
0Current Usings:  (CP,R11) (CV,R12)
0Loc    Object Code    Addr1 Addr2  Stmt Lv Lineno    Source Statement           (Hibal 5, Asmedit 3.3)  HLASM R4.0  2004/03/15 12.45
+___    ______ ____    _____ _____  ____ __ ______    ______ _________
0002628 50E0 D000/9028_      00000 18356              CAT      XENTER R2,R8,,LOCAL
 USING  *,R7
 002642 1B00                       18374                       CLEAR R0
 002644 9108 BD56/47E0_00D56       18378                       IF    CPFRECAT,'SETMSG "re"'
 002654 9110 BD56/47E0_00D56       18402                       IF    CPFUNCAT,'SETMSG "un"'
 002664 41F0 B050/58E0_      00050 18426                       TSEG  (R1),(R0)
 00266E 4110 70DE/4100_      02720 18450                       TSEG  'cataloged '
 002680 18D8/58E0 D000_            18468                       XEXIT
 DROP   *,R7                       18473                       DROP  BR
-00268C 50E0 D000/90F8_      00000 18481              CHKMBRIG XENTER R15,R8
 USING  *,R7
 0026A6 9120 BF35      00F35       18500                       TM    DSNWAF2,DSNFPDS     Was pds accessed?
 0026AA 4710 7028            026CE 18501                       BO    CHKMIX              Exit if so
 0026AE 91BF BE88      00E88       18502                       TM    DSNWAMBR,X'BF'      Was a member specified?
 0026B2 47B0 7028            026CE 18503                       BNM   CHKMIX              br if not or if x'ff'
 0026B6 58E0 7066/0DEE       0270C 18504                       ACALL MEMBERED            Go seg member name
 0026BC 4110 703A/4100_      026E0 18508                       TSEG  'ignored.',,CR
 0026CE 18D8/58E0 D000_            18526              CHKMIX   XEXIT R15,R8
 DROP   *,R7                       18531                       DROP  BR
                                   18538
                                   18539                       QLTORG
                                   18577
                                   18578                       VLTORG
 002760                02760 02760 18586                       END   .

1FILE     (FILE2025) (12:45) (15MAR04) Relocation Dictionary                                                                Page   39
-   Pos.Id   Rel.Id   Flags    Address                                                       HLASM R4.0  2004/03/15 12.45
0  00000001 00000001    08    00000B6D
   00000001 00000001    0C    00000C04
   00000001 00000001    0C    00000C0C
   00000001 00000001    0C    00000C40
   00000001 00000001    0C    00000C58
   00000001 00000001    0C    00000C60
   00000001 00000001    0C    00000C68
   00000001 00000001    0C    00000C90
   00000001 00000001    0C    00000CA0
   00000001 00000001    0C    00000CA8
   00000001 00000001    0C    00000CCC
   00000001 00000001    0C    00000CD4
   00000001 00000001    0C    00000CDC
   00000001 00000001    0C    00000CE4
   00000001 00000001    08    0000102B
   00000001 00000001    08    00001034
   00000001 00000001    08    0000103D
   00000001 00000001    08    00001046
   00000001 00000001    08    0000106D
   00000001 00000001    08    00001078
   00000001 00000001    08    0000109B
   00000001 00000001    08    000010A7
   00000001 00000001    08    000010B1
   00000001 00000001    08    000010BB
   00000001 00000001    08    000010C7
   00000001 00000001    08    000010E7
   00000001 00000001    08    000010EB
   00000001 00000001    0C    00001428
   00000001 00000001    0C    00001430
   00000001 00000001    0C    000018DC
   00000001 00000001    0C    00001928
   00000001 00000001    0C    00002104
   00000001 00000001    0C    000021B8
   00000001 00000001    0C    000026F0
   00000001 00000001    0C    0000270C
   00000001 00000002    1C    00000BF0
   00000001 00000003    1C    00000BF4
   00000001 00000004    1C    00000BF8
   00000001 00000005    1C    00000BFC
   00000001 00000006    1C    00000C00
   00000001 00000007    1C    00000C08
   00000001 00000008    1C    00000C3C
   00000001 00000008    1C    0000142C
   00000001 00000008    1C    000018E0
   00000001 00000008    1C    00002100
   00000001 00000008    1C    000026EC
   00000001 00000009    1C    00000C44
   00000001 0000000A    1C    00000C48
   00000001 0000000B    1C    00000C50
   00000001 0000000B    1C    000021D4
   00000001 0000000B    1C    00002708
   00000001 0000000C    1C    00000C54
   00000001 0000000C    1C    0000191C
   00000001 0000000D    1C    00000C5C
   00000001 0000000D    1C    0000144C
1FILE     (FILE2025) (12:45) (15MAR04) Relocation Dictionary                                                                Page   40
   00000001 0000000D    1C    00001920
   00000001 0000000E    1C    00000C64
   00000001 0000000F    1C    00000C6C
   00000001 00000010    1C    00000C70
   00000001 00000011    1C    00000C74
   00000001 00000012    1C    00000C78
   00000001 00000013    1C    00000C80
   00000001 00000014    1C    00000C84
   00000001 00000014    1C    00001448
   00000001 00000014    1C    000018EC
   00000001 00000014    1C    00002184
   00000001 00000014    1C    00002710
   00000001 00000015    1C    00000C88
   00000001 00000015    1C    00001958
   00000001 00000016    1C    00000C94
   00000001 00000017    1C    00000C98
   00000001 00000018    1C    00000C9C
   00000001 00000019    1C    00000CA4
   00000001 0000001A    1C    00000CAC
   00000001 0000001B    1C    00000CB4
   00000001 0000001C    1C    00000CB8
   00000001 0000001D    1C    00000CC0
   00000001 0000001E    1C    00000CC4
   00000001 0000001F    1C    00000CC8
   00000001 00000020    1C    00000CD0
   00000001 00000020    1C    0000212C
   00000001 00000020    1C    00002704
   00000001 00000021    1C    00000CD8
   00000001 00000022    1C    00000CE8
   00000001 00000022    1C    000021D0
   00000001 00000023    1C    00000CEC
   00000001 00000024    18    000010D3
   00000001 00000025    18    000010D7
   00000001 00000026    18    000010DB
   00000001 00000027    18    000010DF
   00000001 00000028    18    000010E3
   00000001 00000029    18    000010F4
   00000001 0000002A    1C    00001450
   00000001 0000002B    1C    00001454
   00000001 0000002C    1C    00001458
   00000001 0000002D    1C    0000145C
   00000001 0000002E    1C    00001468
   00000001 0000002F    1C    00002130
   00000001 00000030    1C    000026E8
   00000001 00000031    1C    000026F4

1FILE     (FILE2025) (12:45) (15MAR04) Ordinary Symbol and Literal Cross Reference                                          Page   41
-Symbol   Length   Value     Id    R Type   Defn References                                  HLASM R4.0  2004/03/15 12.45
0$$$@R0        1 00000000 FFFFFFFE     J     705  1016
 $$$@R10       1 00000000 FFFFFFF4     J     835  1093
 $$$@R11       1 00000000 FFFFFFF3     J     848  1106
 $$$@R12       1 00000000 FFFFFFF2     J     861  1119
 $$$@R13       1 00000000 FFFFFFF1     J     874  1132
 $$$@R14       1 00000000 FFFFFFF0     J     887  1145
 $$$@R6        1 00000000 FFFFFFF8     J     783  1029
 $$$@R7        1 00000000 FFFFFFF7     J     796  1042
 $$$@R8        1 00000000 FFFFFFF6     J     809  1055   1067
 $$$@R9        1 00000000 FFFFFFF5     J     822  1080
 $$$C1WYLFILE
               1 00000F86 00000001     J   13732 13734  14223
 $$$C2WYLFILE
               1 0000154C 00000001     J   15147 15149
 $$$C3WYLFILE
               1 00001A6E 00000001     J   15872 15874
 $$$C4WYLFILE
               1 000023B1 00000001     J   17335 17337
 $$$C5WYLFILE
               1 00002760 00000001     J   18572 18574
 $$$C6WYLFILE
               1 00002760 00000001     J   18589 18591
 $$$DVT        4 000008B8 FFFFFFE9     F    7155  7209   7209
 $$$D0WYLFILE
               1 00000F61 00000001     J     991 11693  11903  12106  12219  12332  13384
 $$$RCP        1 00000000 FFFFFFEC     J    2468  4728   6202   6202
 $$$RCV        1 00000000 FFFFFFEE     J    1193  2378   2378
 $$$RDEV       1 00000000 FFFFFFEB     J    4682  4727   4727
 $$$RFFINFO
               1 00000000 FFFFFFE7     J    9299  9508   9508
 $$$RJCB       1 00000000 FFFFFFE8     J    9004  9278   9278
 $$$RLUVENTRY
               1 00000000 FFFFFFE4     J    9605  9625   9625
 $$$RLUVHDR
               1 00000000 FFFFFFE5     J    9583  9598   9598
 $$$RNSCNCB
               1 00000000 FFFFFFED     J    2389  2462   2462
 $$$RSRTNWA
               1 00000000 FFFFFFE3     J   14208 14222  14222
 $$$RTTYPE
               1 00000000 FFFFFFEA     J    6213  6314   6314
 $$$SEGCB0
               4 00000050 FFFFFFEC     F    2499  2585   2585
 $$$Z4         4 000026DC 00000001     F   18545 17584
 $$$100F       2 00000400 00000001     H   10954 10888B
 $$$101F       2 00000422 00000001     H   11000 10965B
 $$$102F       2 0000041C 00000001     H   10992 10981B
 $$$103F       2 00000472 00000001     H   11093 11018B 11031B
 $$$106F       2 000004B6 00000001     H   11232 11105B
 $$$107B       4 0000047E 00000001     I   11120 11189
 $$$107F       2 000004A4 00000001     H   11185 11120B 11188
 $$$108F       2 000004A4 00000001     H   11181 11135B
 $$$109F       2 000004A4 00000001     H   11177 11162B
 $$$110E       2 000004A8 00000001     H   11196 11190
 $$$110F       2 000004B6 00000001     H   11228 11192B
1FILE     (FILE2025) (12:45) (15MAR04) Ordinary Symbol and Literal Cross Reference                                          Page   42
 $$$111F       2 000004B6 00000001     H   11224 11211B
 $$$112F       2 000004D8 00000001     H   11267 11254B
 $$$114F       2 000004E8 00000001     H   11291 11278B
 $$$115F       2 00000534 00000001     H   11431 11327B 11345B
 $$$118F       2 00000524 00000001     H   11399 11368B
 $$$121F       2 0000057E 00000001     H   11533 11447B
 $$$122F       2 00000598 00000001     H   11573 11546B
 $$$123F       2 000005B6 00000001     H   11621 11607B
 $$$124F       2 000005CE 00000001     H   11653 11639B
 $$$125F       2 000005F2 00000001     H   11734 11666B
 $$$126F       2 000005E4 00000001     H   11709 11682B
 $$$127        6 00000F62 00000001     I   11699 11691X
 $$$128        6 00000F62 00000001     I   11698 11699  11699
 $$$129F       2 000005F2 00000001     H   11730 11716B
 $$$130F       2 0000060E 00000001     H   11782 11751B 11768B
 $$$132F       2 0000062C 00000001     H   11829 11796B 11815B
 $$$134F       2 00000644 00000001     H   11863 11849B
 $$$135F       2 00000668 00000001     H   11944 11876B
 $$$136F       2 0000065A 00000001     H   11919 11892B
 $$$137        6 00000F68 00000001     I   11909 11901X
 $$$138        6 00000F68 00000001     I   11908 11909  11909
 $$$139F       2 00000668 00000001     H   11940 11926B
 $$$140F       2 00000678 00000001     H   11967 11957B
 $$$141F       2 00000686 00000001     H   11990 11980B
 $$$142F       2 00000694 00000001     H   12013 12003B
 $$$143F       2 000006A2 00000001     H   12036 12026B
 $$$144F       2 000006B6 00000001     H   12066 12052B
 $$$145F       2 000006DA 00000001     H   12147 12079B
 $$$146F       2 000006CC 00000001     H   12122 12095B
 $$$147        6 00000F6E 00000001     I   12112 12104X
 $$$148        6 00000F6E 00000001     I   12111 12112  12112
 $$$149F       2 000006DA 00000001     H   12143 12129B
 $$$150F       2 000006F2 00000001     H   12179 12165B
 $$$151F       2 00000716 00000001     H   12260 12192B
 $$$152F       2 00000708 00000001     H   12235 12208B
 $$$153        6 00000F74 00000001     I   12225 12217X
 $$$154        6 00000F74 00000001     I   12224 12225  12225
 $$$155F       2 00000716 00000001     H   12256 12242B
 $$$156F       2 0000072E 00000001     H   12292 12278B
 $$$157F       2 00000752 00000001     H   12373 12305B
 $$$158F       2 00000744 00000001     H   12348 12321B
 $$$159        6 00000F7A 00000001     I   12338 12330X
 $$$160        6 00000F7A 00000001     I   12337 12338  12338
 $$$161F       2 00000752 00000001     H   12369 12355B
 $$$162F       2 0000075A 00000001     H   12400 12390B
 $$$164F       2 00000796 00000001     H   12465 12434B
 $$$166F       2 000007C4 00000001     H   12533 12478B
 $$$168B       1 000007E0 00000001     X   12569 12576U
 $$$169F       2 00000834 00000001     H   12645 12633B
 $$$170F       2 00000864 00000001     H   12708 12665B
 $$$171F       2 0000085A 00000001     H   12696 12681B
 $$$172F       2 000008BE 00000001     H   12834 12723B
 $$$174F       2 000008AC 00000001     H   12812 12757B
 $$$175B       4 000008DE 00000001     I   12872 12888
 $$$175F       2 000008E8 00000001     H   12885 12872B 12887
 $$$177E       2 000008EC 00000001     H   12895 12889
 $$$177F       2 000008F0 00000001     H   12902 12891B
 $$$178F       2 00000A36 00000001     H   13233 13200B
 $$$180F       2 00000A8C 00000001     H   13305 13290B
1FILE     (FILE2025) (12:45) (15MAR04) Ordinary Symbol and Literal Cross Reference                                          Page   43
 $$$181F       2 00000AA0 00000001     H   13341 13316B
 $$$182F       2 00000AAE 00000001     H   13361 13352B
 $$$183F       2 00000ABE 00000001     H   13400 13376B
 $$$184        6 00000F80 00000001     I   13390 13382X
 $$$185        6 00000F80 00000001     I   13389 13390  13390
 $$$186F       2 00000B10 00000001     H   13501 13408B
 $$$187F       2 00000B2E 00000001     H   13535 13520B
 $$$189B       1 00000FA0 00000001     X   13768 13775U
 $$$190F       2 00000FBC 00000001     H   13824 13796B 13809B
 $$$193F       2 00000FD8 00000001     H   13865 13838B 13850B
 $$$195F       2 00000FF4 00000001     H   13907 13880B 13892B
 $$$198F       2 00001008 00000001     H   13934 13919B
 $$$199F       2 0000101C 00000001     H   13961 13946B
 $$$200        1 00000050 00000001 A   U   13980 13977  13979
 $$$201B       1 00001112 00000001     X   14050 14057U 14540U 14822U
 $$$202B       4 00001116 00000001     I   14069 14114
 $$$202F       2 0000114A 00000001     H   14111 14069B 14113
 $$$203E       2 0000114E 00000001     H   14121 14115
 $$$203F       2 00001194 00000001     H   14204 14117B
 $$$206B       1 000011AE 00000001     X   14264 14274U
 $$$207F       2 0000120C 00000001     H   14446 14317B
 $$$208F       2 00001202 00000001     H   14432 14335B 14355B 14376B 14388B
 $$$214F       2 00001234 00000001     H   14512 14460B 14484B
 $$$216        1 00000150 00000001 A   U   14551 14548  14550
 $$$218B       1 0000126E 00000001     X   14591 14601U
 $$$219F       2 00001288 00000001     H   14638 14628B
 $$$220F       2 00001298 00000001     H   14660 14650B
 $$$221B       4 000012A2 00000001     I   14677 14768
 $$$221F       2 000012E2 00000001     H   14762 14677B 14767
 $$$222F       2 000012BE 00000001     H   14707 14697B
 $$$223F       2 000012D0 00000001     H   14732 14722B
 $$$224F       2 000012DE 00000001     H   14757 14747B
 $$$225E       2 000012E6 00000001     H   14775 14769
 $$$225F       2 000012FC 00000001     H   14807 14771B
 $$$226F       2 000012F8 00000001     H   14802 14792B
 $$$227        1 00000050 00000001 A   U   14833 14830  14832
 $$$228B       1 00001324 00000001     X   14856 14866U
 $$$229F       2 00001340 00000001     H   14915 14879B
 $$$231F       2 00001340 00000001     H   14909 14894B
 $$$233F       2 0000135E 00000001     H   14974 14928B
 $$$234F       2 0000135E 00000001     H   14968 14948B
 $$$238B       1 00001566 00000001     X   15175 15182U
 $$$239F       2 0000163C 00000001     H   15489 15199B
 $$$240B       4 0000157C 00000001     I   15217 15361
 $$$240F       2 000015DC 00000001     H   15357 15217B 15360
 $$$241F       2 000015AA 00000001     H   15268 15256B
 $$$242F       2 000015BA 00000001     H   15293 15281B
 $$$245E       2 000015E0 00000001     H   15368 15362
 $$$245F       2 00001630 00000001     H   15469 15364B
 $$$246B       1 0000164C 00000001     X   15509 15516U
 $$$251B       1 00001A7C 00000001     X   15886 15896U
 $$$252F       2 00001AA6 00000001     H   15954 15928B
 $$$252T       2 00001A94 00000001     H   15931 15916B
 $$$254F       2 00001B90 00000001     H   16088 16053B 16065B
 $$$256F       2 00001BB4 00000001     H   16135 16100B
 $$$258F       2 00001C16 00000001     H   16244 16189B
 $$$259F       2 00001C2C 00000001     H   16279 16255B
 $$$260F       2 00001C96 00000001     H   16381 16337B
 $$$261F       2 00001CB0 00000001     H   16411 16395B
1FILE     (FILE2025) (12:45) (15MAR04) Ordinary Symbol and Literal Cross Reference                                          Page   44
 $$$262F       2 00001CCA 00000001     H   16450 16424B
 $$$263F       2 00001DC8 00000001     H   16663 16653B
 $$$264F       2 00001E06 00000001     H   16724 16689B 16701B
 $$$266F       2 00001E42 00000001     H   16808 16753B
 $$$266T       2 00001E1A 00000001     H   16756 16741B
 $$$268B       1 00001F68 00000001     X   17064 17074U
 $$$269B       1 00001F74 00000001     X   17106 17116U
 $$$270F       2 00001FCE 00000001     H   17243 17130B 17143B
 $$$272B       1 000023CC 00000001     X   17357 17364U
 $$$273F       2 000023EC 00000001     H   17401 17382B
 $$$275F       2 00002430 00000001     H   17476 17450B
 $$$275T       2 0000241E 00000001     H   17453 17438B
 $$$278B       1 0000246C 00000001     X   17542 17549U
 $$$279B       4 0000247E 00000001     I   17597 17859
 $$$279F       2 00002506 00000001     H   17851 17585B 17597B 17856
 $$$280B       4 00002476 00000001     I   17585 17857
 $$$281F       2 00002498 00000001     H   17648 17626B
 $$$282F       2 000024B0 00000001     H   17698 17663B 17676B
 $$$284F       2 000024BE 00000001     H   17730 17708B
 $$$285F       2 000024FC 00000001     H   17823 17746B 17759B 17772B 17785B 17799B 17813B
 $$$291E       2 0000250A 00000001     H   17866 17858  17860
 $$$291F       2 000025AC 00000001     H   18169 17862B
 $$$292F       2 00002546 00000001     H   17966 17881B
 $$$293F       2 0000252C 00000001     H   17923 17896B
 $$$294F       2 00002546 00000001     H   17962 17935B
 $$$296F       2 00002580 00000001     H   18080 17993B 18015B 18030B 18048B
 $$$301F       2 00002580 00000001     H   18076 18063B
 $$$302F       2 000025AC 00000001     H   18165 18119B
 $$$303F       2 000025AC 00000001     H   18161 18134B
 $$$304        1 00000050 00000001 A   U   18218 18215  18217
 $$$305B       1 000025E6 00000001     X   18241 18248U
 $$$306F       2 00002608 00000001     H   18293 18266B 18279B
 $$$306S       2 000025F2 00000001     H   18258 18292B
 $$$309B       1 0000260A 00000001     X   18306 18313U
 $$$310B       1 00002642 00000001     X   18365 18372U
 $$$311F       2 00002654 00000001     H   18401 18388B
 $$$312F       2 00002664 00000001     H   18425 18412B
 $$$313B       1 000026A6 00000001     X   18491 18498U
 $$$56B        1 00000026 00000001     X    9641  9648U
 $$$59F        2 00000044 00000001     H    9695  9680B
 $$$61B        4 00000056 00000001     I    9713  9727
 $$$61F        2 00000060 00000001     H    9724  9713B  9726
 $$$62E        2 00000064 00000001     H    9734  9728
 $$$62F        2 00000072 00000001     H    9749  9730B
 $$$63F        2 0000009E 00000001     H    9810  9795B
 $$$69F        2 0000010C 00000001     H    9935  9920B
 $$$70F        2 00000152 00000001     H    9995  9962B
 $$$72F        2 0000016E 00000001     H   10040 10014B 10027B
 $$$75F        2 0000022E 00000001     H   10304 10058B
 $$$76F        2 000001A6 00000001     H   10109 10096B
 $$$78F        2 000001E8 00000001     H   10216 10147B 10162B
 $$$80F        2 0000021C 00000001     H   10287 10232B
 $$$81F        2 00000242 00000001     H   10347 10332B
 $$$84F        2 0000027A 00000001     H   10429 10416B
 $$$86B        4 000002B8 00000001     I   10478 10688
 $$$86F        2 0000035A 00000001     H   10682 10478B 10687
 $$$87F        2 0000031E 00000001     H   10608 10515B
 $$$87S        2 000002C6 00000001     H   10499 10607B
 $$$89F        2 0000031A 00000001     H   10603 10538B 10557B
1FILE     (FILE2025) (12:45) (15MAR04) Ordinary Symbol and Literal Cross Reference                                          Page   45
 $$$91F        2 0000035A 00000001     H   10678 10630B
 $$$92E        2 0000035E 00000001     H   10695 10689
 $$$92F        2 0000037C 00000001     H   10744 10691B
 $$$93F        2 0000036E 00000001     H   10717 10708B
 $$$95F        2 00000398 00000001     H   10787 10777B
 $$$96F        2 000003B8 00000001     H   10850 10803B 10818B
 $$$98F        2 000003C4 00000001     H   10876 10861B
 @RAR          0 00000000 FFFFFFF0     @    1146  2176   2184B
 @R0           0 00000000 FFFFFFFE     @     706   982U
 @R1           0 00000000 FFFFFFFD     @     719   978U  2182   2183  11638  11698  11848  11908  12051  12111  12164
                                                 12224  12277  12337  13238  13389  15060U 17675  17758  17771  17784
                                                 17798  17812  17818  18055  18278
 @R10          0 00000000 FFFFFFF4     @     836   942U
 @R11          0 00000000 FFFFFFF3     @     849   938U
 @R12          0 00000000 FFFFFFF2     @     862   934U
 @R13          0 00000000 FFFFFFF1     @     875   930U 14042M 14848M 15167M 17349M 18233M 18357M 18483M
 @R14          0 00000000 FFFFFFF0     @     888   926U
 @R15          0 00000000 FFFFFFEF     @     901   922U 12589U
 @R2           0 00000000 FFFFFFFC     @     732   974U
 @R3           0 00000000 FFFFFFFB     @     745   970U 14753  14798  18252
 @R4           0 00000000 FFFFFFFA     @     758   966U 10563
 @R5           0 00000000 FFFFFFF9     @     771   962U
 @R6           0 00000000 FFFFFFF8     @     784   958U 18226U
 @R7           0 00000000 FFFFFFF7     @     797   954U 13607U 13969U 14271U 14537U 14598U 14819U 14863U 15110U 15501U
                                                 15893U 17071U 17113U 17250U 17511U 18207U 18299U 18353U 18478U 18536U
 @R8           0 00000000 FFFFFFF6     @     810   950U 14528U
 @R9           0 00000000 FFFFFFF5     @     823   946U
 ABORTMS       4 00001DB0 00000001     I   16640 15972B 15980B 16507B 16979B 16999B 17057B
 ABRTCODE      1 00000024 FFFFFFEC A   U    6193 12554  13168  15062
 ABSCENT       1 00000000 00000000 A   T    2192  2192
 ACSABRT       4 0000244C 00000001     I   17503 17408B
 ACSCHECK      4 000023B2 00000001     I   17349 13676  17348
 ACSEXIT       2 000023FC 00000001     I   17415 17367B
 ACSSKIP       4 000023F6 00000001     I   17409 17398B
 ACTNEXT       1 00000000 00000010     T   13649 13649
 ACTPICK       1 00000000 00000011     T   13650 13650
 ACTRESET      1 00000000 00000016     T   13658 13658
 ACWOPER       1 00000468 FFFFFFE9     X    6704  6700
 ALLOCERR      4 00001EFC 00000001     I   16965 15985B
 ALREDDY       4 000008C8 00000001     I   12847 12614B
 APPEND        2 00000B50 00000001     H   13565 14014
 ASCTBL        1 00000000 00000000 A   T    2200  2200
 BACKUPS       4 00001CDC 00000001     I   16470 15989B
 BADOPEN       4 000008C2 00000001     I   12839 11002B 12555B 12615B 12624B 13169B
 BADTYPSV      4 000009C2 00000001     I   13132 12623B
 BATCH         4 00001D44 00000001     I   16566 15967B
 BDVOLM        4 00001B4C 00000001     I   16013 15973B
 BESTER        4 00000152 00000001     I    9999  9866B  9938B  9941B
 BLDLSZ        1 0000004C FFFFFFE9 A   U    6546  6535
 BLTBL         1 00000000 00000000 A   T    2202  2202
 BR            7 00000007 00000001 A   #    1036 12582M 13763M 14047M 14057U 14259M 14586M 14853M 14866U 15172M 15182U
                                                 17354M 17364U 17537M 18238M 18248U 18362M 18372U 18488M 18498U
 BTD           1 00000000 00000022     T   13679 13679  17304
 BUSYMSG       4 00001F3E 00000001     I   17025 15982B
 CAT           4 00002628 00000001     I   18357 13661  15849
 CATBLOCK      8 00000988 FFFFFFE9     D    8374  6609   6619   8381   8383   8657
 CATDVTYP      4 0000098A FFFFFFE9     C    8376  8379
 CATER         4 00001D0A 00000001     I   16513 15956B
 CATNTTR       8 00000A88 FFFFFFE9     U    8381  6617   8382
1FILE     (FILE2025) (12:45) (15MAR04) Ordinary Symbol and Literal Cross Reference                                          Page   46
 CATRC16       4 000016FE 00000001     I   15635 15611B
 CATRC20       4 00001710 00000001     I   15642 15612B
 CATRC24       4 00001722 00000001     I   15649 15613B
 CATRC28       4 00001734 00000001     I   15656 15614B 15621B
 CATRC4        4 000016EC 00000001     I   15628 15608B 15616B
 CATRC64       4 000017B4 00000001     I   15735 15623B
 CATRC68       4 000017C6 00000001     I   15742 15624B
 CATRSIZE      8 00000109 FFFFFFE9 A   U    8383  8657
 CATSKIP       4 000017D8 00000001     I   15751 15609B 15610B 15622B
 CATVOLID      8 00000A8B FFFFFFE9     U    8382  6618   8383
 CC            1 00000040 FFFFFFE9 A   U    6469  6475   6477   6479   6481   6483   6485   6489   6491   6497   6499
                                                  6501   6503   6505   6515   6517   6523
 CHECKIOB      1 00000000 00000000 A   T    2248  2248
 CHKBLK        4 0000010C 00000001     I    9936  9884B  9897B
 CHKEDT        2 0000012C 00000001     H    9952  9867B
 CHKFRMT       2 000000CE 00000001     I    9865  9835B 13193B 13236B
 CHKKW         1 00000000 0000002E     T   15135 15135
 CHKLREC2      2 000000FA 00000001     H    9911  9905B
 CHKMBRIG      4 0000268C 00000001     I   18483 18482
 CHKMBRIG      1 00000000 00000018     T   13660 13660
 CHKMIX        2 000026CE 00000001     I   18527 18501B 18503B
 CHKVOL        4 0000154C 00000001     I   15167 13647
 CHKVSKIP      2 00001636 00000001     H   15477 15332B 15344B
 CHTYPE        2 00000900 00000001     I   12914 12609B
 CHTYPE1       2 0000092C 00000001     H   12951 12938B
 CHTYPE2       4 00000956 00000001     I   12995 12969B
 CHTYPE3       2 0000096C 00000001     H   13015 12989B
 CLRTEXT       1 00000000 00000017     T   13659 13659
 CLSCRPRT      1 00000000 00000024     T   14020 14020
 COLLPRT       1 00000000 00000027     T   14026 14026
 COMMAND       1 00000000 00000000 A   T    2188  2188
 COMMSEG       1 00000000 00000000 A   T    2189  2189
 CONDENSE      1 00000000 0000002A     T   15129 15129
 CP         4096 00000000 FFFFFFEC     J    6202  1177U
 CP#XSTK       1 00000010 FFFFFFEC A   U    3934  3935
 CPABYCT       4 000005B0 FFFFFFEC     F    3993 14616
 CPACFLG       1 000005D5 FFFFFFEC     R    4037  4041   4046   4051   4056   4061
 CPACFLN       4 000005C4 FFFFFFEC     F    4029  4064   4064
 CPACHCT       4 000005B4 FFFFFFEC     F    3994 10756M 10756
 CPACTNO       4 0000057C FFFFFFEC     F    3973 10483  14334  14442
 CPAFLAG       1 000005C3 FFFFFFEC     R    4001  4005   4010   4015   4020
 CPALNCT       4 000005AC FFFFFFEC     F    3992 10537M 10537  14615
 CPANAME       8 00000588 FFFFFFEC     C    3983  4079   4079
 CPATBYTS      4 00000564 FFFFFFEC     F    3965 14634
 CPATLINS      4 00000578 FFFFFFEC     F    3971 14633
 CPATTEXT      4 0000056C FFFFFFEC     F    3967 11161M 11161  11173M 11173
 CPATYPE       8 00000590 FFFFFFEC     C    3984 10629
 CPAUTFLG      1 000008A9 FFFFFFEC     R    4347  4351   4356   4361   4366
 CPAUTHUS      3 000008A4 FFFFFFEC     C    4342 14893  14903
 CPCHFLAG      1 00000B68 FFFFFFEC     R    4974  4978
 CPCMNM        3 00000D24 FFFFFFEC     C    5300  9679   9697M 14196M 15682  15696  15913  15927  16052  16688  16738
                                                 16752  17435  17449
 CPDFLG        1 0000084C FFFFFFEC     R    4234  4238   4243   4248   4253   4258
 CPDFLG2       1 0000084D FFFFFFEC     R    4263  4267   4272   4277   4282   4287   4292
 CPDOUB        8 00000C88 FFFFFFEC     D    5220 13026  13088  13451  16527M 16538  16873
 CPDRED        4 00000DD8 FFFFFFEC     F    5759 10445M
 CPERRID       8 00000886 FFFFFFEC     C    4333 14102M 15630M 15637M 15644M 15651M 15658M 15665M 15709M 15716M 15723M
                                                 15730M 15737M 15744M 15787M 15995M 16001M 16035M 16105M 16154M 16175M
                                                 16302M 16362M 16402M 16435M 16453M 16506M 16562M 16568M 16589M 16610M
1FILE     (FILE2025) (12:45) (15MAR04) Ordinary Symbol and Literal Cross Reference                                          Page   47
                                                 16635M 16652M 16652  16659M 16670M 16831M 16837M 16906M 16927M 16952M
 CPEXFLG       1 00000758 FFFFFFEC     R    4103  4107
 CPEXFLG2      1 00000759 FFFFFFEC     R    4113  4122   4132
 CPEXFLG3      1 0000075A FFFFFFEC     R    4139  4143   4148
 CPEXTFLG      1 00000E28 FFFFFFEC     R    5785  5789   5794   5799   5804   5809   5814
 CPFABORT    128 00000D5A FFFFFFEC         5551  2152M  2152   2157M  2157
 CPFACTSV      1 00000001 FFFFFFEC A   U    3577 10870
 CPFALL        1 00000010 FFFFFFEC A   U    5317  9665  13541
 CPFAUSET      1 00000040 FFFFFFEC A   U    3600 14876
 CPFCLEAR     16 00000D55 FFFFFFEC         5431 11134  11209  11209  11210
 CPFDUMP     128 00000D55 FFFFFFEC         5416 14154
 CPFERROR     64 00000D5A FFFFFFEC         5556  2151M  2151   2156M  2156
 CPFEXPRG    128 00000D88 FFFFFFEC         5675 10587M 10662M
 CPFFOPT       1 00000010 FFFFFFEC A   U    5406  9879   9959
 CPFINFOP      4 00000E54 FFFFFFEC     A    5833 17559  17584
 CPFKEEP       8 00000D55 FFFFFFEC         5436 11209  11209
 CPFKOK       32 00000D55 FFFFFFEC         5426 15008
 CPFNCOND      4 00000E28 FFFFFFEC         5814 13600M 14068
 CPFNCUR      64 00000D57 FFFFFFEC         5486 10457M
 CPFNEWED    128 00000E28 FFFFFFEC         5789 13591M 14385  14481  14696
 CPFNOCAT     32 00000D56 FFFFFFEC         5461 11326  12680  13551M 15481M
 CPFNTEX       1 00000040 FFFFFFEC A   U    5403  5404
 CPFNWARN      4 00000D55 FFFFFFEC         5441 11145M
 CPFQUIET     64 00000D55 FFFFFFEC         5421 16064  16700
 CPFRCVY      64 00000474 FFFFFFEC         3553 10860  16254
 CPFRDACT      1 00000D89 FFFFFFEC         5719  9794  10707  11104  14316  14459
 CPFRDEXE      2 00000D89 FFFFFFEC         5729 11545  13837  14649
 CPFRDRNG      1 00000D88 FFFFFFEC     R    5671  5675   5680   5685   5690   5695   5700   5705  10581M 10656M
 CPFRDSRC      1 00000D89 FFFFFFEC     R    5710  5719   5729   5739
 CPFRECAT      8 00000D56 FFFFFFEC         5471 12692M 13273M 18387
 CPFSCRTC      1 00000040 FFFFFFEC A   U    5326  9689  10093  11251  11381  12542  12720  13877
 CPFSET        1 00000080 FFFFFFEC A   U    5357  9804  10413
 CPFSLN        4 00000D90 FFFFFFEC     F    5743 10573M 10573  10648M 10648
 CPFSOME       2 00000D88 FFFFFFEC         5705 10593M 10668M 10731
 CPFTRUNC     64 00000D56 FFFFFFEC         5456 10887
 CPFTYPED     16 00000477 FFFFFFEC         3608 15329
 CPFUNCAT     16 00000D56 FFFFFFEC         5466 18411
 CPFUNUM       1 00000080 FFFFFFEC A   U    5402  5404   9892
 CPFVER       32 00000D58 FFFFFFEC         5516 10057
 CPFXDFLG      1 000007E4 FFFFFFEC     R    4181  4185   4190
 CPFXMULT     16 00000E28 FFFFFFEC         5804 10013  10477  11119  13519  13578M 13795  13849  14627
 CPGFLG1       1 00000474 FFFFFFEC     R    3544  3548   3553   3558   3563   3568   3898   3898
 CPGFLG10      1 0000047D FFFFFFEC     R    3781  3785   3790   3795   3800   3805   3810
 CPGFLG11      1 0000047E FFFFFFEC     R    3816  3820   3825
 CPGFLG12      1 0000047F FFFFFFEC     R    3831  3835   3840   3845
 CPGFLG13      1 00000480 FFFFFFEC     R    3851  3855
 CPGFLG14      1 00000481 FFFFFFEC     R    3861  3865   3870   3875   3880   3885
 CPGFLG2       1 00000475 FFFFFFEC     R    3574 10872M
 CPGFLG4       1 00000477 FFFFFFEC     R    3597  3608   3617   3626   3635   3644  14878
 CPGFLG5       1 00000478 FFFFFFEC     R    3650  3654   3659   3664   3669   3674   3679   3684   3689
 CPGFLG6       1 00000479 FFFFFFEC     R    3695  3699   3704   3709
 CPGFLG7       1 0000047A FFFFFFEC     R    3715  3719   3724   3729   3734
 CPGFLG8       1 0000047B FFFFFFEC     R    3740  3744   3749   3754   3759
 CPGFLG9       1 0000047C FFFFFFEC     R    3765  3769   3775
 CPINIT        1 00000174 FFFFFFEC     U    2714  6171
 CPJESFLG      1 000009E1 FFFFFFEC     R    4446  4450   4455   4460   4465   4470   4475   4480   4485
 CPJESFLY      1 000009FD FFFFFFEC     R    4496  4500   4505   4510
 CPJESHFL      1 000009E0 FFFFFFEC     R    4431  4435   4440   4519   4519
 CPLCNO        4 0000073C FFFFFFEC     F    4088 14504  14517
1FILE     (FILE2025) (12:45) (15MAR04) Ordinary Symbol and Literal Cross Reference                                          Page   48
 CPLFLG1       1 00000D50 FFFFFFEC     R    5314  9667M 13541
 CPLFLG10      1 00000D59 FFFFFFEC     R    5537  5541
 CPLFLG11      1 00000D5A FFFFFFEC     R    5547  5551   5556   5561   5566
 CPLFLG12      1 00000D5B FFFFFFEC     R    5572  5576
 CPLFLG14      1 00000D5C FFFFFFEC     R    5582  5586   5591   5596   5601   5606
 CPLFLG2       1 00000D51 FFFFFFEC     R    5324  9691M 10095  11253  11383  12544M 12722  13879
 CPLFLG3       1 00000D52 FFFFFFEC     R    5355  9806M 10415
 CPLFLG5       1 00000D54 FFFFFFEC     R    5399  9881   9894   9961
 CPLFLG6       1 00000D55 FFFFFFEC     R    5412  5416   5421   5426   5431   5436   5441
 CPLFLG7       1 00000D56 FFFFFFEC     R    5447  5451   5456   5461   5466   5471
 CPLFLG8       1 00000D57 FFFFFFEC     R    5477  5481   5486   5491   5496
 CPLFLG9       1 00000D58 FFFFFFEC     R    5502  5506   5511   5516   5521   5526   5531
 CPLOCALZ      1 00000C48 FFFFFFEC     U    5004  6165   6165
 CPLRCL        4 00000D9C FFFFFFEC     F    5746  9833  10353  10435  10916  12968  13009  13235M 13585M 13585  14373M
                                                 14373  14676M 14676
 CPLSLN        4 00000D94 FFFFFFEC     F    5744 10574M 10649M
 CPMFLG        1 0000084F FFFFFFEC     R    4301  4305
 CPMODFLG      1 00000C78 FFFFFFEC     R    5032  5036   5041   5046   5051   5056
 CPNAMELN      1 00000010 FFFFFFEC A   U    3927  4174
 CPNEDL        8 00000E29 FFFFFFEC     X    5819 14303M 14303  14471M 14471  14498  14503
 CPNEDPFX     10 00000E29 FFFFFFEC     X    5818  5819   5820  10464M 10464
 CPNEDSET      2 00000E31 FFFFFFEC     X    5820 10565  10641M 10641  14401M 14441M
 CPNREC        4 00000D64 FFFFFFEC     F    5645  9820M  9936  10440M 13180M 14782
 CPNSCANP      4 0000008C FFFFFFEC     A    2587  9773
 CPNUMFLG      1 00000C79 FFFFFFEC     R    5062  5074
 CPNWCT        4 00000D70 FFFFFFEC     U    5648 10449M
 CPNXAD        4 00000D6C FFFFFFEC     U    5647 10448M
 CPORVCMD      1 00000140 FFFFFFEC     R    2596  2600   2605   2610   2615   2620   2625   2630   2635   2640   2640
                                                  2691   2691
 CPORVFLG      1 00000149 FFFFFFEC     R    2647  2651   2656   2661   2666   2671   2676   2681   2686
 CPORVWF       1 00000150 FFFFFFEC     R    2699  2703
 CPOSCAN     124 00000CA8 FFFFFFEC     X    5298  9702   9720M
 CPOSCANX      4 00000CA8 FFFFFFEC     F    5231  5298   5298
 CPPACCT       5 000007F8 FFFFFFEC     C    4204 14927M 14927
 CPPGRP        2 000007FB FFFFFFEC     C    4206 14947
 CPPUSER       3 000007F8 FFFFFFEC     C    4205 14962
 CPR          11 0000000B 00000001 A   #    1100  1177U
 CPRACBAD     16 000001FC FFFFFFEC         2765  2799   2799   2800   2800
 CPRACF1       1 000001FC FFFFFFEC     R    2746  2750   2755   2760   2765   2770   2775   2780   2785   2801
 CPRACPSW     32 000001FC FFFFFFEC         2760  2798   2798   2800   2800
 CPRACUND     64 000001FC FFFFFFEC         2755  2798   2798   2799   2799
 CPRCSZ        4 00000D68 FFFFFFEC     U    5646 10446M
 CPRCVCUR      4 00000730 FFFFFFEC     A    4082  4084   4084
 CPRFEXT     128 000008AA FFFFFFEC         4376 12604M
 CPRFLG        1 000008AA FFFFFFEC     R    4372  4376   4381   4386   4391   4396   4401
 CPS         254 00000344 FFFFFFEC     X    3516  3519   3520   3522   3522
 CPSACCT       5 000003B4 FFFFFFEC     C    3115  3278   3278
 CPSAMCOD      1 00000A22 FFFFFFEC     R    4568  4576   4586   4596   4605   4614   4623   4633   4642   4651
 CPSAMFLG      1 00000A21 FFFFFFEC     R    4528  4532   4537   4542   4547   4552   4557   4562   4673   4673
 CPSAVACT      4 00000E38 FFFFFFEC     F    5823 10483M 10554  10612
 CPSAVOLD      4 00000E34 FFFFFFEC     F    5822 14334  14442M
 CPSCNFLG      1 00000CD0 FFFFFFEC     R    5244  5255   5264   5275
 CPSCNF2       1 00000CD1 FFFFFFEC     R    5280  5284
 CPSCNMAX      1 00000014 FFFFFFEC A   U    5296  5297
 CPSCRI        2 00000434 FFFFFFEC     H    3505  3510   3510
 CPSEG        60 00000050 FFFFFFEC     X    2585  9980  10076  10129  10190  10208  10251  10279  10842  10906  10928
                                                 10946  11049  11067  11085  11311  11419  11465  11507  11525  11565
                                                 11594  12453  12497  12525  12741  12776  12804  12826  12856  12928
                                                 12963  12983  13004  13050  13068  13112  13141  13163  13218  13429
1FILE     (FILE2025) (12:45) (15MAR04) Ordinary Symbol and Literal Cross Reference                                          Page   49
                                                 13475  13493  14091  14136  14183  14993  15235  15313  15383  15411
                                                 15429  15457  15541  15568  15760  15782  15810  15946  16026  16079
                                                 16149  16170  16208  16236  16270  16297  16322  16355  16483  16501
                                                 16522  16553  16584  16605  16630  16715  16767  16785  16826  16853
                                                 16897  16922  16947  16974  16994  17014  17034  17052  17095  17161
                                                 17189  17207  17235  17468  17490  17843  17915  17954  18100  18153
                                                 18196  18336  18445  18463  18521
 CPSEGCOD      1 00000050 FFFFFFEC     R    2502  2511   2521   2531   2541   2551   2561   2571
 CPSEGLENF
               4 0000005C FFFFFFEC     A    2577 10290  10292M 10802M 10802  10817  15552  15554M 17142M 17142
 CPSEGMRKF
               4 00000058 FFFFFFEC     A    2576 10817
 CPSEQFLD      2 00000DA0 FFFFFFEC     H    5747  9904   9906
 CPSEQLN       2 00000DA2 FFFFFFEC     H    5748  9903
 CPSFL         1 00000384 FFFFFFEC     R    2853  2857   2862   2867   2872   2877
 CPSFLG        1 000003F8 FFFFFFEC     R    3393  3397   3402   3407   3412   3417   3422   3427   3432
 CPSFLG2       1 000003F9 FFFFFFEC     R    3438  3442   3447   3452
 CPSFL2        1 00000385 FFFFFFEC     R    2883  2887   2892   2897   2902
 CPSFL3        1 00000386 FFFFFFEC     R    2908  2912   2917   2922
 CPSFL4        1 00000387 FFFFFFEC     R    2928  2932   2937   2942
 CPSFL5        1 00000388 FFFFFFEC     R    2948  2952   2957   2962
 CPSFSPR      32 000003BE FFFFFFEC         3218 13256  15075  17381
 CPSGRP        2 000003B7 FFFFFFEC     C    3117 17176  17181  17798  18012
 CPSKAFL       1 000003BF FFFFFFEC     R    3249  3253   3258   3263   3268   3273
 CPSKIFL       1 000003BE FFFFFFEC     R    3204  3208   3213   3218   3223   3228   3233   3238   3243
 CPSOF         1 000001F8 FFFFFFEC     X    2736  2738   2738
 CPSOFLAG      1 00000416 FFFFFFEC     R    3463  3467   3472   3477   3482   3487
 CPSOPST       4 000003C4 FFFFFFEC     F    3283  3512   3512
 CPSPORT       8 00000354 FFFFFFEC     C    2847  2967   2967
 CPSPROJ       8 000003F0 FFFFFFEC     C    3389 17395
 CPSQFLG       1 000003EC FFFFFFEC     R    3312  3316
 CPSSFLG       1 000003BB FFFFFFEC     R    3122  3126   3131   3136   3141   3146   3151
 CPSSTART      4 00000344 FFFFFFEC     F    2839  2843   2843   3279   3279   3384   3384   3516   3516
 CPSSTAT       1 0000038F FFFFFFEC     R    3059  3063   3068   3073   3078   3083   3088   3093
 CPSTACF       1 000003BC FFFFFFEC     R    3157  3161   3166   3171   3176   3181   3186   3191   3196
 CPSTART       4 00000000 FFFFFFEC     C    2475  6169   6173
 CPSTFLAG      1 000003EA FFFFFFEC     R    3290  3294   3299   3304
 CPSTVIRT      5 0000038C FFFFFFEC         3021 15341
 CPSTYPE       1 0000038C FFFFFFEC     R    2972  2981   2991   3001   3011   3021   3031   3041   3051
 CPSUFLG       1 000003EE FFFFFFEC     R    3327  3331   3336   3341   3346   3351   3356   3361   3366
 CPSUFLG2      1 000003EF FFFFFFEC     R    3372  3376   3381
 CPSUSER       3 000003B4 FFFFFFEC     C    3116 17222  17227  17812  18027
 CPSVPGM       8 0000039C FFFFFFEC     C    3105  3111   3111
 CPS1ST        4 0000038C FFFFFFEC     F    2969  3514   3514
 CPTELL        4 00000C94 FFFFFFEC     F    5224  9702M  9720
 CPTEMPP#      1 0000005F FFFFFFEC A   U    4422  4424
 CPTRMFL1      1 00000C7A FFFFFFEC     R    5080  5084   5089   5094   5218   5218
 CPTRMFL2      1 00000C7B FFFFFFEC     R    5100  5104   5109   5114   5119   5124   5129
 CPTRMFL3      1 00000C7C FFFFFFEC     R    5135  5139   5144   5149   5154   5159   5164   5169
 CPTRMFL4      1 00000C7D FFFFFFEC     R    5175  5179   5184   5189   5194   5199   5204   5209
 CPUSED        1 00000FBC FFFFFFEC A   U    6169  6170
 CPVACURS      8 00000AF0 FFFFFFEC     D    4947  4948   4949
 CPVCURS       8 00000AE0 FFFFFFEC     D    4941  4942   4943
 CPVFLAG       1 00000AC8 FFFFFFEC     R    4742  4746   4751   4756   4761   4766
 CPVFLAG2      1 00000AC9 FFFFFFEC     R    4772  4776   4781   4786   4791   4796   4801
 CPVFLAG3      1 00000ACA FFFFFFEC     R    4807  4811   4816   4821   4826   4831   4836
 CPVFLAG4      1 00000ACB FFFFFFEC     R    4842  4846   4851   4856
 CPVLFLAG      1 00000ACE FFFFFFEC     R    4911  4915   4920   4925
 CPVMODE       1 00000ACC FFFFFFEC     R    4864  4868   4873   4878   4883   4888   4893   4898   4903
1FILE     (FILE2025) (12:45) (15MAR04) Ordinary Symbol and Literal Cross Reference                                          Page   50
 CPVTWID       2 00000AD0 FFFFFFEC     H    4931  4934   4934
 CPWK1         4 00000D60 FFFFFFEC     F    5615  5630   5653
 CPWK2         4 00000D64 FFFFFFEC     F    5616  5631   5645
 CPWK3         4 00000D68 FFFFFFEC     F    5617  5632   5646
 CPWK4         4 00000D6C FFFFFFEC     F    5618  5633   5647
 CPWK5         4 00000D70 FFFFFFEC     F    5619  5635   5640   5648
 CPWK6         4 00000D74 FFFFFFEC     F    5620  5636   5641   5649   5656   5658
 CPWK7         4 00000D78 FFFFFFEC     F    5621  5634   5650
 CPXFLAG       1 000007FD FFFFFFEC     R    4209  4213
 CPXSTATE      4 000007F8 FFFFFFEC     F    4203  4216   4216
 CV         4016 00000000 FFFFFFEE     J    2378  1186U
 CVABORT       4 000007DA FFFFFFEE     I    2157 14157B
 CVABSENT      4 000007F0 FFFFFFEE     I    2167  9864B
 CVABSRTN      4 0000088C FFFFFFEE     V    2192  2167
 CVABTMSG      4 000007CC FFFFFFEE     I    2152 10343B 13301B 13531B 13820B 13861B
 CVBLANKS    235 000004D8 FFFFFFEE     C    1972 10161  11446  13306  13330  18181
 CVBRMSK       1 00000751 FFFFFFEE     X    2108  2109   2110
 CVCFLAG       1 00000A00 FFFFFFEE     R    2273  2277   2282   2287   2292   2297
 CVCHKST       8 000009F0 FFFFFFEE     D    2263  2353   2353
 CVCHKST2      8 00000E28 FFFFFFEE     D    2356  2359   2359
 CVCOMRTN      4 0000087C FFFFFFEE     V    2188  2158
 CVDBGFLG      1 000004CC FFFFFFEE     R    1962  1966
 CVENT         4 0000074C FFFFFFEE     I    2106  9638B 13763B 14047B 14259B 14586B 14853B 15172B 15883B 17354B 17537B
                                                 18238B 18362B 18488B
 CVENTBR       2 00000750 FFFFFFEE     I    2107  2108
 CVERRMSG      4 000007C8 FFFFFFEE     I    2151  9931B  9948B  9991B 13178B 13229B 13903B 13930B 13957B 14107B 16131B
                                                 16377B 16407B 16446B 16458B
 CVERROR       4 000007D6 FFFFFFEE     I    2156  2172B 15078B 16282B 17244B 17499B
 CVEXIRTN      4 0000077C FFFFFFEE     V    2136  2132
 CVFCHRKBPR
               8 000004C9 FFFFFFEE         1877  1893   1893
 CVFCHRKBSE
               4 000004C9 FFFFFFEE         1882  1893   1893
 CVFCHRKCPR
               2 000004C9 FFFFFFEE         1899  1915   1915
 CVFCHRKCSE
               1 000004C9 FFFFFFEE         1904  1915   1915
 CVFCHRUBPR
             128 000004C9 FFFFFFEE         1833  1849   1849
 CVFCHRUBSE
              64 000004C9 FFFFFFEE         1838  1849   1849
 CVFCHRUCPR
              32 000004C9 FFFFFFEE         1855  1871   1871
 CVFCHRUCSE
              16 000004C9 FFFFFFEE         1860  1871   1871
 CVFINIT       8 000004C5 FFFFFFEE         1698 18045
 CVFL          1 000004C4 FFFFFFEE     R    1629  1633   1638   1643   1648   1653   1658   1663   1668
 CVFL2         1 000004C5 FFFFFFEE     R    1674  1678   1683   1688   1693   1698   1703   1708   1713
 CVFL3         1 000004C6 FFFFFFEE     R    1719  1723   1728   1733   1738   1743   1748   1753   1758
 CVFL4         1 000004C7 FFFFFFEE     R    1764  1768   1773   1778   1783   1788   1793   1798
 CVFL5         1 000004C8 FFFFFFEE     R    1804  1808   1813   1818   1823
 CVFL6         1 000004C9 FFFFFFEE     R    1829  1833   1838   1850   1855   1860   1872   1877   1882   1894   1899
                                                  1904   1916
 CVFRCVY      16 000004C5 FFFFFFEE         1693 17129
 CVFRLG       16 000004C4 FFFFFFEE         1648 11765  11956
 CVHEAP#       1 00000200 FFFFFFEE A   U    1535  1536
 CVINVRTN      4 00000888 FFFFFFEE     V    2191  2161
 CVJESFLG      1 000004CA FFFFFFEE     R    1922  1926
 CVLNKRGS      4 00000780 FFFFFFEE     F    2138  2113M  2139  15520M
1FILE     (FILE2025) (12:45) (15MAR04) Ordinary Symbol and Literal Cross Reference                                          Page   51
 CVLNKRTN      4 000007B0 FFFFFFEE     U    2139  2128M
 CVLOCK1       1 00000088 FFFFFFEE     R    1280  1284   1289
 CVLOCK2       1 00000089 FFFFFFEE     R    1294  1298
 CVLOCK3       1 0000008A FFFFFFEE     R    1303  1307
 CVLOCK4       1 0000008B FFFFFFEE     R    1312  1316
 CVLOGMOD      1 00000068 FFFFFFEE     R    1267  1271
 CVMACH        1 00000067 FFFFFFEE     R    1227  1231   1236   1241   1246   1251   1256   1261
 CVMACHID      8 0000000C FFFFFFEE     C    1207 11812  11979  12002  12025
 CVMAXLNO      4 0000015C FFFFFFEE     A    1421 10574  10649
 CVMILRTN      4 00000884 FFFFFFEE     V    2190  2170
 CVNEXT        4 000007DE FFFFFFEE     I    2158 12402B 16084B 16281B 16720B
 CVNOACTN      4 000007EA FFFFFFEE     I    2164 16590B 16611B
 CVNOARTN      4 00000890 FFFFFFEE     V    2193  2164
 CVNVALID      4 000007E4 FFFFFFEE     I    2161 13239B 13243B 13259B 13542B
 CVNWDATE      4 00000608 FFFFFFEE     F    1995  1999   1999
 CVNWMPG#      1 00000008 FFFFFFEE A   U    1997  1998
 CVNXTMSG      4 000007D0 FFFFFFEE     I    2153 16125B
 CVPFXRTN      1 00000000 00000000 A   T    2136  2136
 CVPGFLAG      1 00000A01 FFFFFFEE     R    2303  2307   2312   2317
 CVPIOSZ       1 00004F80 FFFFFFEE A   U    1366  1368
 CVPPDBQH      4 0000009C FFFFFFEE     A    1324  1325
 CVPSFNO       1 000003E9 FFFFFFEE A   N    1488  1490
 CVPSLNO       1 000007CF FFFFFFEE A   N    1489  1490
 CVPXSZ        1 00000008 FFFFFFEE A   U    1367  1368
 CVR          12 0000000C 00000001 A   #    1113  1186U
 CVRKEY        1 00000008 FFFFFFEE A   U    2061  2062
 CVSEGRTN      4 00000880 FFFFFFEE     V    2189  2153
 CVSTACK#      1 00000080 FFFFFFEE A   U    1527  1528
 CVSTART       4 00000000 FFFFFFEE     C    1200  2371
 CVTRC         4 00000768 FFFFFFEE     I    2128  2114B 15521B
 CVTRCRTN      4 00000778 FFFFFFEE     V    2135  2129
 CVUSFNO       1 00000001 FFFFFFEE A   N    1495  1497
 CVUSLNO       1 000003E7 FFFFFFEE A   N    1496  1497
 CVVOL#        1 00000005 FFFFFFEE A   U    2346  2347
 CVWTOFLG      1 000004CB FFFFFFEE     R    1932  1936   1941   1946   1951   1956
 DBUF          8 00000720 FFFFFFE9     D    7004  6525   6577   7010
 DCB           4 00000498 FFFFFFE9     F    6741  6576   6665
 DEBUGSG       1 00000000 00000000 A   T    2089  2089
 DECB          4 0000037C FFFFFFE9     F    6572  6380
 DEQUOTE       1 00000000 00000023     T   13680 13680
 DESPOT        1 00000000 00000012     T   13651 13651
 DESRTRN       1 00000080 FFFFFFEC A   U    6178 13611
 DEV          12 00000000 FFFFFFEB     J    4727  4735
 DEVMAX#       1 00000002 FFFFFFEC A   U    4678  4735
 DEVTYPE       1 00000001 FFFFFFEB     R    4695  4704   4714
 DIRDSN        4 00001ECA 00000001     I   16930 16832B 16953B
 DIRIOERR      4 00001ED4 00000001     I   16938 15978B
 DOCLOSVD      4 000007CE 00000001     I   12552 10734B
 DOPEN         1 00000000 0000000E     T   13646 13646
 DOTTBL        1 00000000 00000000 A   T    2205  2205
 DRENCFLG      1 00000F9F FFFFFFEC     R    6133  6137   6142   6147   6152   6157
 DRENPROT      1 00000F9E FFFFFFEC     R    6120  6128
 DSAVBLK       2 00000F96 FFFFFFEC     H    6104 14758M 14803M
 DSAVSIZ       1 0000013C FFFFFFEC A   U    6105  9657
 DSAVTIT      42 00000F66 FFFFFFEC     C    6101 13306M 13389M 13681  13704
 DSAVTITL      2 00000F64 FFFFFFEC     H    6100 11017M 11017  13362M
 DSILLEG       4 00001B3A 00000001     I   15999 15969B
 DSN           1 0000029C FFFFFFE9     X    6530  6628
 DSNAME       44 00000270 FFFFFFE9     C    6529  6489   6497   6586   6597   6607   6648   6658   6701
1FILE     (FILE2025) (12:45) (15MAR04) Ordinary Symbol and Literal Cross Reference                                          Page   52
 DSNAUTH       4 0000130A 00000001     I   14848 14847
 DSNAUTH       1 00000000 00000030     T   18548 18548
 DSNBADV       6 00000EBE FFFFFFEC     C    5856 11446  11478  11483  12670M
 DSNCATV       6 00000EB8 FFFFFFEC     C    5855 11367  15398  15403  16371  16376
 DSNDDISK      1 00000001 FFFFFFEC A   U    6067 10776  14352  17880  18118
 DSNDTYPE      1 00000F3B FFFFFFEC     X    6066 10776  14352  17880  18118
 DSNFACCS      1 00000001 FFFFFFEC A   U    5876 15093
 DSNFAPP      16 00000F39 FFFFFFEC         6017 10331  11277  13569M 13891
 DSNFBADN     32 00000F37 FFFFFFEC         5922 17895  18133
 DSNFCAT       1 00000004 FFFFFFEC A   U    5888 16122  16280
 DSNFCHT       1 00000004 FFFFFFEC A   U    5902 13125
 DSNFEXP       1 00000002 FFFFFFEC A   U    5903 13246
 DSNFLIN       1 00000080 FFFFFFEC A   U    5897 10024  13540  13806
 DSNFMYDS      1 00000040 FFFFFFEC A   U    5870 15093  17409
 DSNFPDS       1 00000020 FFFFFFEC A   U    5885 11028  11340  12387  12407  12431  12626  12869  12937  18500
 DSNFSHOW      1 00000008 FFFFFFEC A   U    5887 16122  16280
 DSNFSTD       1 00000080 FFFFFFEC A   U    5869 15017  17932  17990
 DSNFSTRM     64 00000F39 FFFFFFEC         6007 13560M
 DSNFTEXTONLY
             128 00000F3A FFFFFFEC         6047 13945
 DSNFUFMT      1 00000F39 FFFFFFEC         6037 13918
 DSNFWRT       1 00000080 FFFFFFEC A   U    5883 10358
 DSNLTOT       4 00000F54 FFFFFFEC     F    6083 14662M
 DSNON        40 00000E90 FFFFFFEC     C    5853  5854  10231M 10231  10266  10271  12477M 12477  12512  12517  12703M
                                                 12703  12756M 12756  12791  12796  15444  15449  16013  16018  16099M
                                                 16099  16188M 16188  16223  16228  16470  16475
 DSNON6        6 00000E90 FFFFFFEC     X    5854 11367  12670
 DSNORMEM      4 0000075E 00000001     I   12407 11238B 11612B 12898B
 DSNOR1        4 0000076E 00000001     I   12417 12408B
 DSNPRTF       1 00000000 00000025     T   14022 14022
 DSNVOLCT      2 00000F44 FFFFFFEC     H    6078 12651  12652M
 DSNWADSN     44 00000E5C FFFFFFEC     C    5840  5841   5842   5843   5852   5860   6091   6097   6099   6105   6108
                                                  6110   6113   6162   9658M  9658   9659M  9659  11698  11750  11795
                                                 11908  12111  12224  12337  15043  15044  17976  17981
 DSNWAF1       1 00000F34 FFFFFFEC     R    5867 15017  15093M 17409M 17934  17992
 DSNWAF2       1 00000F35 FFFFFFEC     R    5880 10358M 11030  11342  12389  12407  12433  12626  12871  12937  16122
                                                 16280  18500
 DSNWAF3       1 00000F36 FFFFFFEC     R    5894 10026  13125M 13246M 13540M 13808
 DSNWAF4       1 00000F37 FFFFFFEC     R    5908  5912   5917   5922   5927   5932   5937   5942   5947
 DSNWAF5       1 00000F38 FFFFFFEC     R    5953  5957   5962   5967   5972   5977   5982   5987   5992
 DSNWAF6       1 00000F39 FFFFFFEC     R    5998  6002   6007   6012   6017   6022   6027   6032   6037
 DSNWAF7       1 00000F3A FFFFFFEC     R    6043  6047   6052   6057   6062
 DSNWAGRP      2 00000E60 FFFFFFEC     X    5841 14903  14947  18012
 DSNWAMBR      8 00000E88 FFFFFFEC     C    5851 10146M 10146  10161  10177  10182  16673  16798  16803  18250  18251
                                                 18252  18502
 DSNWANL       2 00000F06 FFFFFFEC     H    5861 11665  11875  12078  12191  12304
 DSNWAUSR      3 00000E63 FFFFFFEC     X    5842 14893  14962  18027
 DSNXG         1 00000004 FFFFFFEC A   U    5845  5847  15044
 DSNXGL        1 00000003 FFFFFFEC A   U    5846  5847
 DSNXN         1 0000000B FFFFFFEC A   U    5849 18055  18562
 DSNXU         1 00000007 FFFFFFEC A   U    5847  5849  15043
 DSNXUL        1 00000004 FFFFFFEC A   U    5848  5849
 DSSIZ         1 00000108 FFFFFFEC A   U    6091  6099   6108   6113
 DSVID         6 0000034E FFFFFFE9     C    6553  6587   6629   6639   6678
 DS1DSNAM     44 00000998 FFFFFFE9     C    8390  6507   6507   6519   6519
 DS1END        1 00000A24 FFFFFFE9     U    8601  6507   6519   8603
 DS1FMTID      1 000009C4 FFFFFFE9     C    8391  6588   6702   8603
 DS1IND01      1 00000001 FFFFFFE9 A   U    8550  8551
 DS1IND02      1 00000002 FFFFFFE9 A   U    8546  8549
1FILE     (FILE2025) (12:45) (15MAR04) Ordinary Symbol and Literal Cross Reference                                          Page   53
 DS1IND04      1 00000004 FFFFFFE9 A   U    8539  8545
 DS1IND10      1 00000010 FFFFFFE9 A   U    8534  8537
 DS1IND40      1 00000040 FFFFFFE9 A   U    8530  8531
 DS1PTRDS      5 00000A1F FFFFFFE9     X    8599  6638
 DS1SIZE       1 00000060 FFFFFFE9 A   U    8603  8672
 DS1SYSCD     13 000009D6 FFFFFFE9     C    8409  8604
 DS4DEVSZ      4 00000732 FFFFFFE9     X    7066  7067
 DS4VTOCE     10 0000075D FFFFFFE9     X    7122  7143
 DS5AVEXT      5 0000099C FFFFFFE9     X    8637  8648
 DS5EXTAV     35 000009A1 FFFFFFE9     X    8642  8648
 DVTDEVCD      4 000008B8 FFFFFFE9     F    7156  7158   7162   7171
 EBCTBL        1 00000000 00000000 A   T    2201  2201
 EBCTBL7       1 00000000 00000000 A   T    2204  2204
 ECBLIST       1 00000000 00000000 A   T    2064  2064
 ENDCCW        8 00000238 FFFFFFE9     W    6510  6499   6559   6560
 ENDCCW1       8 00000208 FFFFFFE9     W    6497  6485
 ENDCCW2       8 00000220 FFFFFFE9     W    6503  6505
 ENDTEST       5 000008B0 FFFFFFE9     X    7152  6481   6503
 EOV           2 000007DC 00000001     I   12564 12563
 EPARTBL       1 00000000 00000000 A   T    2196  2196
 ERROR         4 0000036C FFFFFFE9     F    6563  6564
 EXISTS        4 00001BD0 00000001     I   16161 15965B
 EXIT0         1 00000000 0000001A     T   13664 13664
 EXLST         4 0000018C FFFFFFE9     F    6431  6799
 EXPDT         4 00000A5A 00000001     I   13246 13988
 EXPDTPRO      4 00001D8E 00000001     I   16615 15976B
 EXTCLOSE      1 00000000 00000013     T   13653 13653
 EXTWRITE      1 00000000 0000002C     T   15131 15131
 FFFOLD        5 00000000 FFFFFFE7         9356 17596
 FFINFO      928 00000000 FFFFFFE7     J    9508 17567U
 FFMISC        1 00000002 FFFFFFE7     R    9405  9409   9414   9419   9424   9429
 FFNAME      128 0000000C FFFFFFE7     C    9491 17639  17721
 FFNAMEL       4 00000008 FFFFFFE7     F    9490 17644  17726
 FFPNAME     128 0000029C FFFFFFE7     C    9499 17689
 FFPNAMEL      4 00000298 FFFFFFE7     F    9498 17694
 FFPTYPE       1 00000003 FFFFFFE7     R    9434  9443   9453   9463   9473   9483
 FFRNAME     128 00000218 FFFFFFE7     C    9497 17611
 FFRNAMEL      4 00000214 FFFFFFE7     F    9496 17616
 FFRQTYPE      1 00000001 FFFFFFE7     R    9361  9370   9380   9390   9400
 FFTYPE        1 00000000 FFFFFFE7     R    9307  9316   9326   9336   9346   9356
 FILE2025      1 00000000 00000001     R     999   997
 FLAGS         5 0000016B FFFFFFE9     C    6408  6409   6410   6411   6412   6413
 FSR           0 00000000 00000001 A   #    1010 13758  13977M 14253  14548M 14581  14830M 17532  18215M
 GETLINFO      1 00000000 0000002D     T   15132 15132
 GETSIZE       2 00001254 00000001     H   14572 13645
 GETVINFO      1 00000000 0000002B     T   15130 15130
 GOODCLOS      2 0000042A 00000001     H   11006 10958B
 GOTOSCN       2 000000A4 00000001     H    9823 13543B
 HIBAL         1 00000000 FFFFFFFF     J     691   707    720    733    746    759    772    785    798    811    824
                                                   837    850    863    876    889    902
 ICHELST       4 00000DE8 FFFFFFE9     F    8729  8827   8827
 ICHSETP       2 00000E10 FFFFFFE9     H    8781  8775
 ICHSETPD      2 00000E24 FFFFFFE9     H    8805  8778
 ID            8 000001D8 FFFFFFE9     W    6481  6479   6491   6557
 IECSDSL1      1 00000998 FFFFFFE9     U    8388  8389   8610   8631
 IECSDSL3      1 00000998 FFFFFFE9     U    8613  6640   8614
 IECSDSL4      1 00000720 FFFFFFE9     U    7013  7014
 IECSDSL5      1 00000998 FFFFFFE9     U    8634  8635
 IHB1146C      1 00000E04 FFFFFFE9     U    8760  8747
1FILE     (FILE2025) (12:45) (15MAR04) Ordinary Symbol and Literal Cross Reference                                          Page   54
 IHB1209C      1 00000E04 FFFFFFE9     U    8861  8848
 IHB1238C      1 00000E04 FFFFFFE9     U    8907  8894
 IHB1267C      1 00000E04 FFFFFFE9     U    8953  8940
 ILLBLKSZ      4 00001E76 00000001     I   16844 15968B
 ILLCATRF      4 00001EF0 00000001     I   16957 15979B
 ILLMEMB       4 00001DDE 00000001     I   16673 15974B
 ILLMEMB2      4 00001E64 00000001     I   16835 16674B
 ILLORG        4 00001B28 00000001     I   15993 15970B
 INITSTK       1 00000000 00000021     T   13675 13675
 INORON        2 00000776 00000001     H   12424 11433B 12903B
 INVALID       1 00000000 00000029     T    2191  2191  14036
 IOBCSW        4 000001A0 FFFFFFE9     F    6442  6443   6444   6445
 IOWA          1 00000000 FFFFFFE9     J    6336  9279   9509
 IWAFLAGS      1 00000014 FFFFFFE9     R    6361  6365   6370   6375
 JCBAFL        1 00000062 FFFFFFE8     R    9123  9127   9132   9137   9142   9147   9152   9157   9162
 JCBBFL        1 00000063 FFFFFFE8     R    9168  9172   9177   9182   9187   9192   9197   9202
 JCBBILLX      8 00000088 FFFFFFE8     D    9253  9261   9261
 JCBRSCF1      1 00000064 FFFFFFE8     R    9208  9212   9217   9222
 JCBSFLG1      1 00000065 FFFFFFE8     R    9228  9232   9237
 JCBWFL        1 00000060 FFFFFFE8     R    9052  9056   9061   9066   9071   9076   9081   9086   9091   9119
 JCBWWFL       1 00000061 FFFFFFE8     R    9097  9101   9106   9111   9116
 JFCB          8 000008D8 FFFFFFE9     D    7217  6435
 JFCBLGTH      1 000000B0 FFFFFFE9 A   U    8368  8663
 JFCRESRV      4 00000944 FFFFFFE9     B    8177  8214
 KEY           8 000001F0 FFFFFFE9     W    6489  6483
 KWR         504 00000524 FFFFFFE9     X    6995 14852  15030U 15041M 15041  15042M 15042
 KWRDSTRT      1 00000529 FFFFFFE9     U    6819  6981   6981
 KWRGRP        2 00000527 FFFFFFE9     C    6816 15044M
 KWRSTART      4 00000524 FFFFFFE9     F    6814  6995   6995   6996
 KWRUSER       3 00000524 FFFFFFE9     C    6815  6817   6817  15043M
 LEXATRTN      1 00000040 FFFFFFEC A   U    6180 13652
 LINES         2 00000B1A 00000001     H   13511 13992  13994
 LOCATRTN      1 00000000 FFFFFFEC A   U    6182 13611
 LOCRC0        4 00001746 00000001     I   15663 15615B 15685B 15699B
 LOCRC12       4 0000177E 00000001     I   15714 15618B
 LOCRC16       4 00001790 00000001     I   15721 15619B
 LOCRC20       4 000017A2 00000001     I   15728 15620B
 LOCRC8        2 00001758 00000001     H   15670 15617B
 LOWTBL        1 00000000 00000000 A   T    2199  2199
 LRTRIM        1 00000000 00000019     T   13662 13662
 LSR           8 00000008 00000001 A   #    1061 13758  13977M 14253  14548M 14581  14830M 17532  18215M
 MEMBER        8 000002F8 FFFFFFE9     C    6536  6541   6546
 MEMBERED      4 000025CC 00000001     I   18233 13672  15125  17302  18232  18557
 MILERR        1 00000000 00000000 A   T    2190  2190
 MT            1 00000080 FFFFFFE9 A   U    6454  6481   6489   6493   6523
 MULT          2 00000B56 00000001     H   13574 14016
 NBLTBL        1 00000000 00000000 A   T    2203  2203
 NEWDSNAM     44 000002C8 FFFFFFE9     C    6531  6659
 NOACCESS      4 00001DCC 00000001     I   16668 15981B
 NOACTION      1 00000000 00000000 A   T    2193  2193
 NOCOND        2 00000B66 00000001     H   13596 14018
 NODIRSPC      4 00001EB2 00000001     I   16913 15975B
 NOPATHS       4 00001F28 00000001     I   17005 15987B
 NOPIC         1 00000003 FFFFFFE9 A   U    6467  6501   6510
 NORMPDS       4 000010F8 00000001     I   14042 13657
 NOROOM        4 00001C38 00000001     I   16288 15966B
 NOSTORE       4 00001D72 00000001     I   16596 15984B
 NOSUCH        2 00001B70 00000001     H   16040 15964B
 NOTAVAIL      4 00001F12 00000001     I   16985 15986B
1FILE     (FILE2025) (12:45) (15MAR04) Ordinary Symbol and Literal Cross Reference                                          Page   55
 NOTMYNO       4 000013AE 00000001     I   15062 15092B
 NOTMYRTN      2 000013D6 00000001     I   15100 15063B
 NOTPERMT      2 0000240A 00000001     H   17423 17369B
 NPARTBL       1 00000000 00000000 A   T    2197  2197
 NRCTRY        4 00000A42 00000001     I   13238 14030
 NRECDOO       4 00000A00 00000001     I   13180 14033
 NRECPRT       1 000010EA 00000001     R   14033 13634
 NSCNCB      176 00000000 FFFFFFED     J    2462  2588   9774M  9775M
 NSCNFLGS      1 00000008 FFFFFFED     R    2399  2403   2408
 NSCNLEN       4 00000004 FFFFFFED     F    2396  9775M
 NSCNLOC       4 00000000 FFFFFFED     A    2395  9774M
 NSCNTYPE      1 00000018 FFFFFFED     R    2417  2421   2426   2431   2436   2441
 NTGDCAT       2 0000164A 00000001     I   15506 13663
 NTGDCATX      2 00001802 00000001     H   15798 15631B 15638B 15645B 15652B 15659B 15666B 15710B 15717B 15724B 15731B
                                                 15738B 15745B
 NTGDOPN       2 00001A6E 00000001     H   15881 13678  15879
 NTGDOPN       1 00000000 00000031     T   18551 18551
 OLDSAVE       2 00000018 00000001     H    9636  9634
 OUTOFSP       4 00001D56 00000001     I   16575 15977B
 PDSREAD       8 00000258 FFFFFFE9     W    6523  6558
 PREST         1 00000000 FFFFFFEC A   U    6184 13611
 PROBNOSP      4 00000826 00000001     I   12626 12612B
 PROBOPN       4 000007F4 00000001     I   12609 10395B
 PROBOPNA      4 000007F8 00000001     I   12610 10988B 12605B
 PROBOPNB      4 00000810 00000001     I   12619 12611B
 QUIETPRT      1 00000000 00000028     T   14028 14028
 RACFID        1 00000DA8 FFFFFFE9     X    8678  8693   8744
 RACFPDAT      3 00000DB8 FFFFFFE9     X    8680  8826
 RACFPSWD      1 00000DAF FFFFFFE9     X    8679  8694   8802
 RACINIT       4 00000DE8 FFFFFFE9     F    8687  8706   8707   8727   8828   8874   8920
 RAR          14 0000000E 00000001 A   #    1139  2128   2129M  2130B  2132M  2133B  2153M  2154B  2158M  2159B  2161M
                                                  2162B  2164M  2165B  2167M  2168B  2170M  2171M  2171B  2177   9705M
                                                  9706M  9706B  9744M  9745M  9745B  9753M  9754M  9754B  9758M  9759M
                                                  9759B  9782M  9783M  9783B  9831M  9832M  9832B  9851M  9852M  9852B
                                                  9862M  9863M  9863B  9983M  9984M  9984B  9999M 10000M 10000B 10035M
                                                 10036M 10036B 10043M 10044M 10044B 10079M 10080M 10080B 10132M 10133M
                                                 10133B 10193M 10194M 10194B 10211M 10212M 10212B 10219M 10220M 10220B
                                                 10254M 10255M 10255B 10282M 10283M 10283B 10299M 10300M 10300B 10361M
                                                 10362M 10362B 10373M 10374M 10374B 10424M 10425M 10425B 10505M 10506M
                                                 10506B 10524M 10525M 10525B 10598M 10599M 10599B 10615M 10616M 10616B
                                                 10673M 10674M 10674B 10720M 10721M 10721B 10748M 10749M 10749B 10845M
                                                 10846M 10846B 10909M 10910M 10910B 10931M 10932M 10932B 10949M 10950M
                                                 10950B 10995M 10996M 10996B 11052M 11053M 11053B 11070M 11071M 11071B
                                                 11088M 11089M 11089B 11149M 11150M 11150B 11219M 11220M 11220B 11236M
                                                 11237M 11237B 11314M 11315M 11315B 11422M 11423M 11423B 11426M 11427M
                                                 11427B 11468M 11469M 11469B 11486M 11487M 11487B 11510M 11511M 11511B
                                                 11528M 11529M 11529B 11568M 11569M 11569B 11597M 11598M 11598B 11616M
                                                 11617M 11617B 11626M 11627M 11627B 11724M 11725M 11725B 11776M 11777M
                                                 11777B 11823M 11824M 11824B 11836M 11837M 11837B 11934M 11935M 11935B
                                                 12039M 12040M 12040B 12137M 12138M 12138B 12152M 12153M 12153B 12250M
                                                 12251M 12251B 12265M 12266M 12266B 12363M 12364M 12364B 12411M 12412M
                                                 12412B 12417M 12418M 12418B 12456M 12457M 12457B 12460M 12461M 12461B
                                                 12500M 12501M 12501B 12528M 12529M 12529B 12552M 12553M 12553B 12594M
                                                 12595M 12595B 12619M 12620M 12620B 12640M 12641M 12641B 12744M 12745M
                                                 12745B 12779M 12780M 12780B 12807M 12808M 12808B 12829M 12830M 12830B
                                                 12839M 12840M 12840B 12859M 12860M 12860B 12880M 12881M 12881B 12910M
                                                 12911M 12911B 12931M 12932M 12932B 12966M 12967M 12967B 12986M 12987M
                                                 12987B 13007M 13008M 13008B 13029M 13030M 13030B 13053M 13054M 13054B
                                                 13071M 13072M 13072B 13091M 13092M 13092B 13115M 13116M 13116B 13123M
1FILE     (FILE2025) (12:45) (15MAR04) Ordinary Symbol and Literal Cross Reference                                          Page   56
                                                 13124M 13124B 13144M 13145M 13145B 13148M 13149M 13149B 13166M 13167M
                                                 13167B 13190M 13191M 13191B 13221M 13222M 13222B 13244B 13265B 13274B
                                                 13278  13282M 13283M 13283B 13432M 13433M 13433B 13454M 13455M 13455B
                                                 13478M 13479M 13479B 13496M 13497M 13497B 13506M 13507B 13538M 13539M
                                                 13539B 13552B 13561B 13570B 13592B 13601B 13755  13979M 13982B 14076M
                                                 14077M 14077B 14094M 14095M 14095B 14098M 14099M 14099B 14139M 14140M
                                                 14140B 14143M 14144M 14144B 14186M 14187M 14187B 14194M 14195M 14195B
                                                 14199M 14200M 14200B 14250  14419M 14420M 14420B 14427M 14428M 14428B
                                                 14507M 14508M 14508B 14520M 14521M 14521B 14550M 14553B 14578  14832M
                                                 14835B 14978M 14979M 14979B 14996M 14997M 14997B 15051M 15052M 15052B
                                                 15090M 15091M 15091B 15206M 15207M 15207B 15238M 15239M 15239B 15316M
                                                 15317M 15317B 15386M 15387M 15387B 15414M 15415M 15415B 15432M 15433M
                                                 15433B 15460M 15461M 15461B 15473M 15474M 15474B 15544M 15545M 15545B
                                                 15548M 15549M 15549B 15571M 15572M 15572B 15763M 15764M 15764B 15785M
                                                 15786M 15786B 15813M 15814M 15814B 15949M 15950M 15950B 15961M 15962M
                                                 15962B 16029M 16030M 16030B 16082M 16083M 16083B 16152M 16153M 16153B
                                                 16173M 16174M 16174B 16211M 16212M 16212B 16239M 16240M 16240B 16273M
                                                 16274M 16274B 16300M 16301M 16301B 16307M 16308M 16308B 16325M 16326M
                                                 16326B 16358M 16359M 16359B 16486M 16487M 16487B 16504M 16505M 16505B
                                                 16525M 16526M 16526B 16556M 16557M 16557B 16587M 16588M 16588B 16608M
                                                 16609M 16609B 16615M 16616M 16616B 16633M 16634M 16634B 16718M 16719M
                                                 16719B 16770M 16771M 16771B 16788M 16789M 16789B 16811M 16812M 16812B
                                                 16829M 16830M 16830B 16856M 16857M 16857B 16876M 16877M 16877B 16900M
                                                 16901M 16901B 16925M 16926M 16926B 16930M 16931M 16931B 16950M 16951M
                                                 16951B 16977M 16978M 16978B 16997M 16998M 16998B 17017M 17018M 17018B
                                                 17037M 17038M 17038B 17055M 17056M 17056B 17098M 17099M 17099B 17164M
                                                 17165M 17165B 17192M 17193M 17193B 17210M 17211M 17211B 17238M 17239M
                                                 17239B 17406M 17407M 17407B 17471M 17472M 17472B 17493M 17494M 17494B
                                                 17497M 17498M 17498B 17503M 17504M 17504B 17529  17846M 17847M 17847B
                                                 17918M 17919M 17919B 17957M 17958M 17958B 18103M 18104M 18104B 18156M
                                                 18157M 18157B 18199M 18200M 18200B 18217M 18220B 18339M 18340M 18340B
                                                 18448M 18449M 18449B 18466M 18467M 18467B 18506M 18507M 18507B 18524M
                                                 18525M 18525B
 RDCNT         1 00000012 FFFFFFE9 A   U    6464  6493   6523
 RDKYDATA      1 0000000E FFFFFFE9 A   U    6466  6507   6519   6525
 READCCW       8 00000240 FFFFFFE9     W    6515  6517
 ROPENN        4 00000242 00000001     I   10353 10377B 12545B 12621B 12704B 13126B
 ROPENN2       4 00000298 00000001     I   10445 10437B
 RTNCATDV      1 00000064 FFFFFFE9 A   U    8998 15839
 RTNCATER      1 0000006C FFFFFFE9 A   U    9000 13690  17307
 RTNDIRFL      1 00000030 FFFFFFE9 A   U    8985 10987
 RTNDUPDS      1 00000008 FFFFFFE9 A   U    8975 13694
 RTNERR        2 00001F72 00000001     I   17103 15586B 15600B 15788B 15815B 15971B 16275B 16932B
 RTNERRMS      2 00001F66 00000001     I   17061 15996B 16002B 16036B 16563B 16569B 16636B 16664B 16671B 16804B 16838B
                                                 16907B 16959B
 RTNNOACS      1 00000048 FFFFFFE9 A   U    8991 18559
 RTNNOSPC      1 0000000C FFFFFFE9 A   U    8976 12836  13693
 RTNNTPDS      1 00000044 FFFFFFE9 A   U    8990 13695
 R0            0 00000000 FFFFFFFF A   #     699  2113   2182M  9741M  9775   9834M  9903M  9906M  9908M  9919   9930M
                                                  9939M  9947M  9972M  9990M 10068M 10084M 10105M 10182M 10200M 10243M
                                                 10271M 10296M 10296  10342M 10353M 10446  10783  10834M 10834  10898M
                                                 10920M 10920  10938M 10956M 11041M 11059M 11077M 11242M 11263M 11287M
                                                 11354M 11395M 11457M 11483M 11517M 11557M 11586M 11586  11623M 11649M
                                                 11665  11671  11833M 11859M 11875  11881  11946M 11963M 11986M 12009M
                                                 12032M 12062M 12078  12084  12149M 12175M 12191  12197  12262M 12288M
                                                 12304  12310  12445M 12489M 12517M 12733M 12768M 12796M 12818M 12848M
                                                 12907M 12907  12914  12920M 12936M 12942M 12975M 12996M 13019M 13019
                                                 13060M 13081M 13081  13120M 13133M 13155M 13177M 13210M 13228M 13241M
                                                 13242  13300M 13315M 13315  13337M 13342  13401M 13414  13421M 13444M
1FILE     (FILE2025) (12:45) (15MAR04) Ordinary Symbol and Literal Cross Reference                                          Page   57
                                                 13444  13485M 13530M 13819M 13860M 13902M 13929M 13956M 14044  14046
                                                 14046  14046  14083M 14106M 14128M 14175M 14175  14191M 14294  14295
                                                 14295  14295  14416M 14503M 14516M 14850  14852  14852  14852  14985M
                                                 15048M 15048  15087M 15102M 15140  15140  15140  15185  15227M 15243M
                                                 15264M 15289M 15353M 15375M 15403M 15421M 15449M 15465M 15520  15533M
                                                 15560M 15629M 15636M 15643M 15650M 15657M 15664M 15708M 15715M 15722M
                                                 15729M 15736M 15743M 15752M 15774M 15774  15899  15938M 15994M 16000M
                                                 16018M 16034M 16109M 16141M 16162M 16200M 16228M 16289M 16314M 16347M
                                                 16376M 16406M 16432M 16457M 16475M 16493M 16514M 16545M 16561M 16567M
                                                 16576M 16597M 16622M 16641M 16669M 16777M 16803M 16818M 16836M 16845M
                                                 16866M 16866  16905M 16914M 16939M 16958M 16966M 16986M 17006M 17026M
                                                 17044M 17153M 17181M 17199M 17227M 17351  17353  17353  17353  17368M
                                                 17368  17417M 17460M 17482M 17616M 17625M 17625  17644M 17662  17694M
                                                 17707M 17707  17726M 17745  17819M 17907M 17946M 17981M 18056M 18072M
                                                 18072  18145M 18188M 18328M 18342M 18377M 18377  18397M 18421M 18455M
                                                 18513M
 R1            1 00000001 FFFFFFFF A   #     712  2176M  2177M  2183M  9740M  9774   9828M  9844M  9859M  9929M  9936M
                                                  9937M  9937   9940   9946M  9971M  9989M 10067M 10083M 10104M 10177M
                                                 10199M 10242M 10266M 10341M 10403  10404  10404  10404  10432M 10445
                                                 10447M 10448  10501M 10897M 10916M 10937M 11040M 11058M 11076M 11241M
                                                 11262M 11286M 11353M 11394M 11456M 11478M 11516M 11556M 11647M 11857M
                                                 12060M 12173M 12286M 12444M 12488M 12512M 12732M 12767M 12791M 12817M
                                                 12847M 12919M 12935M 12941M 12974M 12995M 13026M 13059M 13088M 13119M
                                                 13132M 13154M 13176M 13187M 13209M 13227M 13240  13299M 13330M 13420M
                                                 13451M 13484M 13529M 13689  13689  13689  13818M 13859M 13901M 13928M
                                                 13955M 14082M 14105M 14127M 14190M 14294  14295  14295  14295  14411M
                                                 14498M 14516M 14984M 15020M 15030U 15086M 15140  15140  15140  15226M
                                                 15242M 15263M 15288M 15352M 15374M 15398M 15420M 15444M 15464M 15532M
                                                 15559M 15628M 15635M 15642M 15649M 15656M 15663M 15707M 15714M 15721M
                                                 15728M 15735M 15742M 15751M 15770M 15937M 15993M 15999M 16013M 16033M
                                                 16108M 16140M 16161M 16199M 16223M 16288M 16313M 16346M 16371M 16405M
                                                 16431M 16456M 16470M 16492M 16513M 16538M 16560M 16566M 16575M 16596M
                                                 16621M 16640M 16668M 16776M 16798M 16817M 16835M 16844M 16873M 16904M
                                                 16913M 16938M 16957M 16965M 16985M 17005M 17025M 17043M 17152M 17176M
                                                 17198M 17222M 17459M 17481M 17611M 17639M 17689M 17721M 17818M 17906M
                                                 17945M 17976M 18055M 18144M 18181M 18252M 18286M 18323M 18341M 18396M
                                                 18420M 18454M 18512M
 R12          12 0000000C FFFFFFFF A   #     855  2139
 R13          13 0000000D FFFFFFFF A   #     868  9637  15882
 R14          14 0000000E FFFFFFFF A   #     881  2114M  9773M  9774   9775   9779M  9779  14042  14711M 14711  14712M
                                                 14848  15167  15521M 17349  18233  18357  18483
 R15          15 0000000F FFFFFFFF A   #     894  2113   9980M 10076M 10129M 10190M 10208M 10251M 10279M 10290M 10291M
                                                 10292  10357M 10392M 10392  10403  10404  10404  10404  10432M 10502M
                                                 10521  10595M 10612M 10670M 10697M 10713M 10782  10842M 10906M 10928M
                                                 10946M 10957M 10980  10987M 11001  11049M 11067M 11085M 11311M 11419M
                                                 11465M 11507M 11525M 11565M 11594M 11606M 11613M 12453M 12497M 12525M
                                                 12554M 12564  12565M 12576U 12596M 12610  12613  12622  12650M 12651M
                                                 12652  12664  12741M 12776M 12804M 12826M 12836M 12856M 12928M 12963M
                                                 12983M 12988M 13004M 13009M 13050M 13068M 13077M 13112M 13141M 13163M
                                                 13168M 13180  13218M 13342M 13345  13357M 13362  13366M 13375M 13375
                                                 13382  13429M 13436M 13475M 13493M 13689  13689  13689  13981M 13981
                                                 14091M 14136M 14183M 14504M 14552M 14552  14610  14682M 14683M 14684
                                                 14686M 14703M 14713  14834M 14834  14993M 15062M 15098M 15098  15169
                                                 15171  15171  15171  15198  15235M 15313M 15383M 15411M 15429M 15457M
                                                 15494M 15520  15527  15541M 15552M 15553M 15554  15568M 15760M 15782M
                                                 15810M 15898  15946M 16026M 16079M 16149M 16170M 16208M 16236M 16270M
                                                 16297M 16322M 16355M 16483M 16501M 16522M 16553M 16584M 16605M 16630M
                                                 16715M 16767M 16785M 16826M 16853M 16862M 16897M 16922M 16947M 16974M
                                                 16994M 17014M 17034M 17052M 17095M 17161M 17189M 17207M 17235M 17366
1FILE     (FILE2025) (12:45) (15MAR04) Ordinary Symbol and Literal Cross Reference                                          Page   58
                                                 17413M 17413  17468M 17490M 17843M 17915M 17954M 18100M 18153M 18196M
                                                 18219M 18219  18336M 18445M 18463M 18485  18487  18487  18487  18521M
                                                 18529M
 R2            2 00000002 FFFFFFFF A   #     725 10434M 10444M 10444  10447  10449  10761M 10761  10782M 10957  11606
                                                 11613  11671M 11681M 11681  11689M 11691  11881M 11891M 11891  11899M
                                                 11901  12084M 12094M 12094  12102M 12104  12197M 12207M 12207  12215M
                                                 12217  12310M 12320M 12320  12328M 12330  14424M 14424  14517M 14615M
                                                 14633M 14655M 14662  14712  14736M 14736  14737M 14746M 14746  14777
                                                 14781M 14781  14782M 14791M 14791  15184M 15485M 15485  15490M 15490
                                                 15527M 15583M 15583  15597  15607B 15770  18235  18237  18237  18237
                                                 18251M 18265M 18265  18288M 18328  18342  18346M 18359  18361  18361
                                                 18361
 R3            3 00000003 FFFFFFFF A   #     738  9815M  9815   9834  10435M 10436M 10436  10439M 10440  10494M 10494
                                                 10502  10521M 10554  10763M 10763  10783M 10956  12564M 12596  12914M
                                                 12988  13077  13242M 14616M 14634M 14656M 14682  14684M 14713M 14753M
                                                 14758  14777M 14798M 14803  15185M 15216M 15216  15255  15280  18250M
                                                 18323  18341
 R4            4 00000004 FFFFFFFF A   #     751  9844  10490M 10490  10563M 10565  11238M 11433M 11612M 12413B 12419B
                                                 12534B 12898M 12903M 13240M
 R5            5 00000005 FFFFFFFF A   #     764 14610M 14715M 14728M 14737  15899M 16336M 16336  16394  16423  16527
                                                 16862
 R6            6 00000006 FFFFFFFF A   #     777  9833M  9865M  9865   9919   9939  13192M 13192  13234M 13235  15898M
                                                 15955  15957  15958B 15963B 17559M 17567U
 R7            7 00000007 FFFFFFFF A   #     790  2106M  2106   2107B  2119B  9638M  9648U 15883M 15896U
 R8            8 00000008 FFFFFFFF A   #     803  9637M 14044  14045M 14046  14046  14046  14288U 14850  14851M 14852
                                                 14852  14852  15020  15102M 15169  15170M 15171  15171  15171  15494M
                                                 15882M 17351  17352M 17353  17353  17353  17417M 18235  18236M 18237
                                                 18237  18237  18346M 18359  18360M 18361  18361  18361  18485  18486M
                                                 18487  18487  18487  18529M
 SAVEBASE      2 00000026 00000001     H    9651 13674
 SAVEOPTS      2 00000F86 00000001     H   13749 13637
 SAVEPRT       1 0000102A 00000001     R   13988 13632
 SAVERTN       2 00001194 00000001     H   14243 13611
 SAVEWRK       1 00000B6C 00000001     R   13611 10595  10670  10697
 SAVINO        4 00000534 00000001     I   11433 11386B
 SAVRECAT      2 00000A68 00000001     H   13269 14002  14004
 SCAN          1 00000000 00000007     T   13633 13633
 SCANTOK       1 00000000 00000002     T   13627 13627
 SCHIDEQ       1 00000031 FFFFFFE9 A   U    6455  6475   6481   6503   6515
 SCHKADEQ      1 0000002D FFFFFFE9 A   U    6460  6489   6497
 SCHKADHE      1 0000006D FFFFFFE9 A   U    6462  6463
 SCHKYHE       1 00000069 FFFFFFE9 A   U    6459  6463
 SCINFO        1 00000000 00000005     T   13630 13630
 SCINIT        1 00000000 00000003     T   13628 13628
 SCNEXFR       1 00000000 00000006     T   13631 13631
 SCRALL        4 000013D0 00000001     I   15093 14906B 14965B 15053B
 SCRTGO        2 000007C6 00000001     H   12539 12912B
 SCRVLST       4 00000348 FFFFFFE9     F    6550  6599   6650   6660
 SDSNHDIR      1 00000000 00000001 A   U    6319 11833
 SDSNHOSA      1 0000000A 00000001 A   U    6329 11946
 SDSNHOSC      1 0000000C 00000001 A   U    6331 11986
 SDSNHOSD      1 0000000D 00000001 A   U    6332 12009
 SDSNHOSH      1 00000008 00000001 A   U    6327 12032
 SDSNHOSR      1 0000000B 00000001 A   U    6330 11963
 SDSNNEWS      1 00000007 00000001 A   U    6326 11623
 SDSNPRIN      1 00000006 00000001 A   U    6325 12262
 SDSNQSZ       1 0000002C FFFFFFEC A   U    6094  6095   6096
 SDSNTERM      1 00000003 00000001 A   U    6322 12149
 SEEK          5 000001BB FFFFFFE9     X    6451  6475   6501   6510
1FILE     (FILE2025) (12:45) (15MAR04) Ordinary Symbol and Literal Cross Reference                                          Page   59
 SEG           1 00000000 00000008     T   13636 13636  15124  15841  17288  18549
 SEGB          1 00000000 0000000B     T   13641 13641  17305  18556
 SEGCLR        1 00000000 0000002F     T   17292 17292
 SEGCR         1 00000000 00000014     T   13654 13654  15127  15844  17299  18558
 SEGDC         1 00000000 00000015     T   13655 13655  15853
 SEGDSN        2 00002452 00000001     H   17523 13643  15123  15840  17289  17519  18550
 SEGT          1 00000000 00000020     T   13673 13673  17291  18555
 SEGTB         1 00000000 0000000C     T   13642 13642  15846
 SETPFXNS      1 00000000 0000000F     T   13648 13648
 SETWHELP      1 00000000 0000001C     T   13667 13667
 SETWHOST      1 00000000 0000001D     T   13669 13669
 SETWNEWS      1 00000000 0000001B     T   13666 13666
 SETWPRT       1 00000000 0000001F     T   13671 13671
 SETWTERM      1 00000000 0000001E     T   13670 13670
 SKP           1 00000010 FFFFFFE9 A   U    6472  6501
 SLI           1 00000020 FFFFFFE9 A   U    6471  6475   6477   6479   6481   6483   6485   6489   6491   6493   6497
                                                  6499   6501   6503   6505   6507   6510   6515   6517   6519   6523
                                                  6525
 SNOCAT        2 00000B44 00000001     H   13547 14010
 SPR          13 0000000D 00000001 A   #    1126 13755  13758  13759  13760M 13760  13973M 13977  13979  14250  14253
                                                 14255  14256M 14256  14544M 14548  14550  14578  14581  14582  14583M
                                                 14583  14826M 14830  14832  17529  17532  17533  17534M 17534  18211M
                                                 18215  18217
 SRCHC         2 000008D2 FFFFFFE9     H    7213  6493   6515   6523
 SRCHCCW       8 000001C0 FFFFFFE9     W    6475  6477
 SRTNLINE    235 00000000 FFFFFFE3     C   14214 14411  14416
 SRTNWA      256 00000000 FFFFFFE3     J   14222 14256  14288U 14548  14550  14551
 STITLE        4 00000A6E 00000001     I   13278 13990
 STOWLEN       1 00000303 FFFFFFE9     X    6539  6542
 STREAM        2 00000B4A 00000001     H   13556 14012
 TALOCODE      1 00000020 FFFFFFEC A   U    6192 17308
 TESTOK        4 000013BE 00000001     I   15086 15011B
 TESTPRIV      2 000013B6 00000001     H   15067 15018B
 THISEN        4 00001ABC 00000001     I   15963 15958B 15963B
 TIC           1 00000008 FFFFFFE9 A   U    6456  6477   6479   6483   6485   6491   6499   6505   6517
 TRC           1 00000000 00000000 A   T    2135  2135
 TRYAGAIN      4 00001F50 00000001     I   17043 17019B
 TTYFLAG       1 00000004 FFFFFFEA     R    6223  6227
 TTYMAX#       1 00000006 FFFFFFEA A   U    6279  6280
 TTYTFLAG      1 00000005 FFFFFFEA     R    6233  6237   6242   6247   6252   6257   6262   6267
 UALAUTH       5 0000046E FFFFFFE9     C    6709  6703
 UPPTBL        1 00000000 00000000 A   T    2198  2198
 UTILMSG       2 00000752 00000001     H   12380 11726B 11778B 11825B 11936B 12139B 12252B 12365B
 VERPRT        1 00000000 00000026     T   14024 14024
 VOLDSECT      1 00000000 FFFFFFE6     J    9513  9566
 VOLOPNS       2 00000010 FFFFFFE6     H    9543  9550   9550
 VOLOWNF1      1 00000030 FFFFFFE6     X    9561  9565   9565
 VOLTOMSG      2 00001BE8 00000001     H   16179 16155B 16303B
 VTOCAREA      8 00000720 FFFFFFE9     D    7011  6630
 WAR           8 00000008 00000001 A   #    1049 13759M 13973  14255M 14544  14582M 14826  17533M 18211
 WAR14         4 00000134 FFFFFFE9     F    6392  6393
 WRONGVOL      4 00001C54 00000001     I   16307 15988B
 WTOSG         1 00000000 00000000 A   T    2095  2095
 WYLFILE       1 00000000 00000001     J     990   992   1018   1031   1044   1057   1069   1082   1095   1108   1121
                                                  1134   1147   2379   2463   6203   6315   9577   9599   9626  11704
                                                 11914  12117  12230  12343  13395
 YESREQ        1 00000000 0000000D     T   13644 13644  15128  15847
 ZDETRNG       1 00000000 00000009     T   13638 13638
 ZODSNM        1 00000000 00000004     T   13629 13629
1FILE     (FILE2025) (12:45) (15MAR04) Ordinary Symbol and Literal Cross Reference                                          Page   60
 ZSNFIN        1 00000000 0000000A     T   13639 13639
 =A(-2)        4 00000C8C 00000001     A   13656 10980
 =A(ACSCHECK)
               4 00000CDC 00000001     A   13676 12619
 =A(CAT)       4 00000CA0 00000001     A   13661 11426
 =A(CAT)       4 00001928 00000001     A   15849 15548
 =A(CHKVOL)
               4 00000C68 00000001     A   13647 10373
 =A(GETSIZE)
               4 00000C60 00000001     A   13645 10357
 =A(L'DSAVTIT)
               4 00000CF0 00000001     A   13681 13345  13357
 =A(MEMBERED)
               4 00000CCC 00000001     A   13672 12411  12880
 =A(MEMBERED)
               4 00001430 00000001     A   15125 14098
 =A(MEMBERED)
               4 000021B8 00000001     A   17302 16811
 =A(MEMBERED)
               4 0000270C 00000001     A   18557 18506
 =A(NORMPDS)
               4 00000C90 00000001     A   13657 10995  12640
 =A(NRECPRT)
               4 00000C0C 00000001     A   13634  9859  13187
 =A(NTGDCAT)
               4 00000CA8 00000001     A   13663 11616
 =A(NTGDOPN)
               4 00000CE4 00000001     A   13678 12839
 =A(RTNCATDV)
               4 000018D8 00000001     A   15839 15198
 =A(SAVEBASE)
               4 00000CD4 00000001     A   13674 12582
 =A(SAVEOPTS)
               4 00000C40 00000001     A   13637  9999
 =A(SAVEPRT)
               4 00000C04 00000001     A   13632  9828
 =A(SEGDSN)
               4 00000C58 00000001     A   13643 10219  12417  12460  13148
 =A(SEGDSN)
               4 00001428 00000001     A   15123 14076  14143  14978
 =A(SEGDSN)
               4 000018DC 00000001     A   15840 15206
 =A(SEGDSN)
               4 00002104 00000001     A   17289 15961  16307  16615  16930
 =A(SEGDSN)
               4 000026F0 00000001     A   18550 17497
 =A(1)         4 00000CB0 00000001     A   13665 11647  11857  12060  12173  12286
 =A(1)         4 000026F8 00000001     A   18552 17662
 =A(11)        4 000026FC 00000001     A   18553 17745
 =A(12)        4 000018E8 00000001     A   15843 15280
 =A(12)        4 00002154 00000001     A   17297 16423
 =A(15)        4 00000CE0 00000001     A   13677 12664
 =A(16)        4 000018E4 00000001     A   15842 15255
 =A(16)        4 00002150 00000001     A   17296 16394
 =A(68)        4 0000192C 00000001     A   15850 15597
 =AL1(LEXATRTN,0,0,0)
               1 00000C7C 00000001     R   13652 10713
 =AL2(DSNXN)
               2 0000271A 00000001     R   18562 18056
1FILE     (FILE2025) (12:45) (15MAR04) Ordinary Symbol and Literal Cross Reference                                          Page   61
 =AL2(L'DSAVTIT)
               2 00000DF2 00000001     R   13704 13401
 =AL2(RTNCATER)
               2 00000D8A 00000001     R   13690 11001
 =AL2(RTNCATER)
               2 000021EC 00000001     R   17307 15955
 =AL2(RTNDUPDS)
               2 00000DAA 00000001     R   13694 12613
 =AL2(RTNNOACS)
               2 00002714 00000001     R   18559 17366
 =AL2(RTNNOSPC)
               2 00000DA8 00000001     R   13693 12610
 =AL2(RTNNTPDS)
               2 00000DAC 00000001     R   13695 12622
 =AL2(TALOCODE)
               2 000021EE 00000001     R   17308 15957
 =AL2(32760)
               2 00000D10 00000001     R   13683  9940
 =C' (instead of '
              13 00000ED3 00000001     C   13720 11456
 =C' - Account '
              11 000023A6 00000001     C   17334 17152
 =C' and conflicts with another data set level name.'
              48 00002048 00000001     C   17271 16431
 =C' as part of another data set name.'
              34 0000220E 00000001     C   17310 16405
 =C' because another data set starts with this name.'
              48 00001810 00000001     C   15823 15263
 =C' because of conflicting data set level names.'
              45 000019F2 00000001     C   15864 15288
 =C' characters when saved.'
              23 00000E54 00000001     C   13713 10937
 =C' from EXEC'
              10 00000D8C 00000001     C   13691 11556
 =C' is full. Member '
              17 0000152E 00000001     C   15145 14082
 =C' on '      4 0000214C 00000001     C   17295 16346
 =C' Try again later.'
              17 00002395 00000001     C   17333 17043
 =C'.  '       3 00001A32 00000001     C   15866 15559
 =C'.  Command incomplete.'
              22 00002230 00000001     C   17311 16560
 =C'.'         1 000019F1 00000001     C   15863 15242
 =C'.'         1 000022C4 00000001     C   17322 16456  17198
 =C'$'         1 0000275F 00000001     C   18571 17945
 =C'* VERIFY'
               8 00000B70 00000001     C   13620  9740
 =C'/'         1 00000F14 00000001     C   13727 13059
 =C', '        2 00000DBC 00000001     C   13697 12817
 =C'?  '       3 00002295 00000001     C   17317 15927  16752
 =C'?  '       3 0000272D 00000001     C   18567 17449
 =C': '        2 0000226E 00000001     C   17314 16844
 =C': invalid dsname'
              16 00001FE0 00000001     C   17261 15999
 =C': volume/host not found.'
              24 00001FF8 00000001     C   17263 16033
 =C': Volume currently undergoing system backup.'
              44 00002158 00000001     C   17298 16492
 =C''''        1 0000275E 00000001     C   18570 17906  18144
1FILE     (FILE2025) (12:45) (15MAR04) Ordinary Symbol and Literal Cross Reference                                          Page   62
 =C'allowed when saving into a library.'
              35 00000E99 00000001     C   13716 11076
 =C'already '
               8 00002028 00000001     C   17267 16161
 =C'and already'
              11 00000EC8 00000001     C   13719 11394
 =C'anyway'
               6 0000196A 00000001     C   15855 15464
 =C'appended'
               8 00000B88 00000001     C   13623 11286
 =C'but not'
               7 00000EC1 00000001     C   13718 11353
 =C'can''t find space '
              17 000022B3 00000001     C   17321 16288
 =C'cataloged '
              10 00002720 00000001     C   18565 18454
 =C'characters have been ignored.'
              29 00000F44 00000001     C   13731 13484
 =C'data set is in use.'
              19 000022CC 00000001     C   17324 16566
 =C'does not exist in the catalog.'
              30 000021F0 00000001     C   17309 16108
 =C'ignored.'
               8 000026E0 00000001     C   18547 18512
 =C'in '       3 00000E3B 00000001     C   13710 10199  12444
 =C'is already cataloged'
              20 00002138 00000001     C   17294 16313
 =C'is already on '
              14 0000195C 00000001     C   15854 15374
 =C'is date protected.'
              18 00002246 00000001     C   17312 16621
 =C'is not a library.'
              17 00000F1E 00000001     C   13729 13154
 =C'is not yours.'
              13 0000153F 00000001     C   15146 14984
 =C'not '      4 00001924 00000001     C   15848 15532
 =C'not '      4 00002134 00000001     C   17293 16140
 =C'not in '
               7 000022F8 00000001     C   17326 16817
 =C'not saved.'
              10 000014C0 00000001     C   15138 14105
 =C'on '       3 00000E3E 00000001     C   13711 10242  12488  12767
 =C'on '       3 000022B0 00000001     C   17320 16199
 =C're'        2 0000271C 00000001     C   18563 18396
 =C'replaced'
               8 00000B80 00000001     C   13622 11262
 =C'resave'
               6 00000D50 00000001     C   13687 10104
 =C'save'      4 00000C4C 00000001     C   13640 10083
 =C'saved'
               5 00000EBC 00000001     C   13717 11241
 =C'un'        2 0000271E 00000001     C   18564 18420
 =C'which is full) '
              15 00000EE0 00000001     C   13721 11516
 =C'will not be cataloged'
              21 000019DC 00000001     C   15862 15226
 =C'Access not permitted for '
              25 00002745 00000001     C   18569 17481
 =C'Access not permitted'
1FILE     (FILE2025) (12:45) (15MAR04) Ordinary Symbol and Literal Cross Reference                                          Page   63
              20 000021A4 00000001     C   17301 16668
 =C'After scratch '
              14 00000DAE 00000001     C   13696 12732
 =C'Allowed disk space exceeded.'
              28 00002188 00000001     C   17300 16575
 =C'Already cataloged.'
              18 00001990 00000001     C   15858 15663
 =C'APPEND option is not supported for this file type.'
              50 00000D56 00000001     C   13688 10341
 =C'Block size too large'
              20 000021D8 00000001     C   17306 16904
 =C'Blocking factor can''t be specified with '
              40 00000B98 00000001     C   13625 13209
 =C'Blocksize is invalid.'
              21 00000F2F 00000001     C   13730 13176
 =C'Blocksize is too big.'
              21 00000E26 00000001     C   13709  9946
 =C'C*'        2 000014CA 00000001     C   15139 14196
 =C'Catalog error='
              14 000019CE 00000001     C   15861 15751
 =C'Condense'
               8 00001420 00000001     C   15122 14190
 =C'CVOL is not available.'
              22 00001970 00000001     C   15856 15628
 =C'Data set '
               9 00000F15 00000001     C   13728 13132
 =C'Directory I/O error in '
              23 0000231A 00000001     C   17328 16938
 =C'Disk storage not allowed.'
              25 000022DF 00000001     C   17325 16596
 =C'Do you want to use '
              19 00001A1F 00000001     C   15865 15420
 =C'Do you want to use this data set name anyway'
              44 000018F0 00000001     C   15845 15352
 =C'Dsname at lower level.'
              22 000019A2 00000001     C   15859 15721
 =C'Dsname is index.'
              16 00001878 00000001     C   15831 15714
 =C'Dsname syntax error.'
              20 00001944 00000001     C   15852 15728
 =C'DIRNOSPC'
               8 000020F0 00000001     C   17286 16927
 =C'DSORG or RECFM not valid for WYLBUR.'
              36 00002108 00000001     C   17290 15993
 =C'Error #'
               7 000022C5 00000001     C   17323 16513
 =C'Error in allocation'
              19 00002331 00000001     C   17329 16965
 =C'EDIT format data sets.'
              22 00000D34 00000001     C   13685  9989  13227
 =C'EXE'       3 000022AD 00000001     C   17319 16052  16688
 =C'FB/'       3 00000F11 00000001     C   13726 12995
 =C'HEL'       3 00002292 00000001     C   17316 15913  16738
 =C'HEL'       3 0000272A 00000001     C   18566 17435
 =C'I/O error.'
              10 00001986 00000001     C   15857 15656
 =C'Index does not exist.'
              21 00001A35 00000001     C   15867 15635
 =C'Invalid dsname.'
1FILE     (FILE2025) (12:45) (15MAR04) Ordinary Symbol and Literal Cross Reference                                          Page   64
              15 00001A4A 00000001     C   15868 15649
 =C'Lines truncated to '
              19 00000E41 00000001     C   13712 10897
 =C'Master catalog cannot be updated'
              32 000018A8 00000001     C   15836 15742
 =C'Member not specified'
              20 000021BC 00000001     C   17303 16835
 =C'Missing UNIT parameter'
              22 000019B8 00000001     C   15860 15735
 =C'MULTIPLE and EXEC are mutually exclusive.'
              41 000014D2 00000001     C   15143 13859
 =C'MULTIPLE and LINES are mutually exclusive.'
              42 00000DF6 00000001     C   13706 13529
 =C'MULTIPLE and LINES are mutually exclusive.'
              42 0000146C 00000001     C   15136 13818
 =C'No action taken.'
              16 000020B8 00000001     C   17280 16640
 =C'No help available -- '
              21 00002298 00000001     C   17318 15937
 =C'No help available -- '
              21 00002730 00000001     C   18568 17459
 =C'No help available for '
              22 00002258 00000001     C   17313 16776
 =C'No more directory space in '
              27 000022FF 00000001     C   17327 16913
 =C'No space in catalog.'
              20 00001930 00000001     C   15851 15642
 =C'No volume paths available. '
              27 0000236D 00000001     C   17331 17005
 =C'Not enough space in '
              20 00001434 00000001     C   15126 14127
 =C'Not in catalog.'
              15 00001A5F 00000001     C   15871 15707
 =C'NC'        2 00002716 00000001     C   18560 17395
 =C'OK to '
               6 00000D4A 00000001     C   13686 10067
 =C'OK'        2 00000DEE 00000001     C   13702 13119
 =C'OK'        2 000014D0 00000001     C   15142 15086
 =C'OSR'       3 00001A59 00000001     C   15869 15682
 =C'PO'        2 00000DE8 00000001     C   13699 12935
 =C'PS'        2 00000DEA 00000001     C   13700 12941
 =C'Replace '
               8 00000B90 00000001     C   13624 12847
 =C'REN'       3 00001A5C 00000001     C   15870 15696
 =C'REPLACE and APPEND are mutually exclusive.'
              42 00001496 00000001     C   15137 13901
 =C'RES'       3 00000E20 00000001     C   13707  9679
 =C'Sequence field greater than lrecl specified.'
              44 00000C10 00000001     C   13635  9929
 =C'Sequence number can''t be added to '
              34 00000D12 00000001     C   13684  9971
 =C'Specific volume must be specified.'
              34 00002270 00000001     C   17315 16957
 =C'SAV'       3 00000E23 00000001     C   13708  9697
 =C'SYSC '
               5 00000F02 00000001     C   13723 11979
 =C'SYSC'      4 00000CBC 00000001     C   13668 11812
 =C'SYSD '
               5 00000F07 00000001     C   13724 12002
1FILE     (FILE2025) (12:45) (15MAR04) Ordinary Symbol and Literal Cross Reference                                          Page   65
 =C'SYSH '
               5 00000F0C 00000001     C   13725 12025
 =C'The text after TITLE must be enclosed in quotes.'
              48 00000BC0 00000001     C   13626 13299
 =C'The TITLE option is only '
              25 00000E80 00000001     C   13715 11058
 =C'Title is too long, the last '
              28 00000CF4 00000001     C   13682 13420
 =C'TEXTONLY option not allowed on the SAVE command.'
              48 000013E8 00000001     C   15120 13955
 =C'TITLE option ignored.'
              21 00000E6B 00000001     C   13714 11040
 =C'U/'        2 00000DEC 00000001     C   13701 12974
 =C'UNFORMATTED option not allowed on the SAVE command.'
              51 000014FB 00000001     C   15144 13928
 =C'Volume busy. '
              13 00002388 00000001     C   17332 17025
 =C'Volume not currently available to WYLBUR.'
              41 00002344 00000001     C   17330 16985
 =C'Warning: Data set type will be changed to '
              42 00000DBE 00000001     C   13698 12919
 =C'WYL.'      4 00002700 00000001     C   18554 17758
 =C'WYL.GA.PUB.RLGNEWS'
              18 00000D96 00000001     C   13692 11750
 =C'WYL.GA.PUB.SUH.NEWS'
              19 00000EEF 00000001     C   13722 11795
 =CL8'BADDSORG'
               8 00001FD8 00000001     C   17260 15995
 =CL8'BADVOL'
               8 00002010 00000001     C   17264 16035
 =CL8'BIGBLKSZ'
               8 000020E8 00000001     C   17285 16906
 =CL8'CATALRDY'
               8 00001868 00000001     C   15829 15665
 =CL8'CATBDDSN'
               8 00001898 00000001     C   15834 15730
 =CL8'CATBDGDG'
               8 00001858 00000001     C   15827 15651
 =CL8'CATBDRET'
               8 000018D0 00000001     C   15838 15787
 =CL8'CATER'
               8 00002090 00000001     C   17275 16562
 =CL8'CATINDEX'
               8 00001888 00000001     C   15832 15716
 =CL8'CATIOERR'
               8 00001860 00000001     C   15828 15658
 =CL8'CATLOWER'
               8 00001890 00000001     C   15833 15723
 =CL8'CATMASNA'
               8 000018C8 00000001     C   15837 15744
 =CL8'CATNCVOL'
               8 00001840 00000001     C   15824 15630
 =CL8'CATNINDX'
               8 00001848 00000001     C   15825 15637
 =CL8'CATNOT'
               8 00001870 00000001     C   15830 15709
 =CL8'CATNSP'
               8 00001850 00000001     C   15826 15644
 =CL8'CATUNREQ'
1FILE     (FILE2025) (12:45) (15MAR04) Ordinary Symbol and Literal Cross Reference                                          Page   66
               8 000018A0 00000001     C   15835 15737
 =CL8'DIRIOERR'
               8 000020F8 00000001     C   17287 16952
 =CL8'DSNEXPDT'
               8 000020B0 00000001     C   17279 16635
 =CL8'DSNINUSE'
               8 00002098 00000001     C   17276 16568
 =CL8'INCAT'
               8 00002080 00000001     C   17273 16453
 =CL8'INCATIND'
               8 00002040 00000001     C   17270 16402
 =CL8'INCATLOW'
               8 00002078 00000001     C   17272 16435
 =CL8'INVDSN'
               8 00001FF0 00000001     C   17262 16001
 =CL8'LIBFULL'
               8 00001418 00000001     C   15121 14102
 =CL8'NOACCESS'
               8 000020D0 00000001     C   17282 16670
 =CL8'NOACTION'
               8 000020C8 00000001     C   17281 16659
 =CL8'NOMEMBER'
               8 000020E0 00000001     C   17284 16837
 =CL8'NOROOM'
               8 00002038 00000001     C   17269 16302
 =CL8'NOSTORE'
               8 000020A8 00000001     C   17278 16610
 =CL8'NOTINCAT'
               8 00002018 00000001     C   17265 16105  16362
 =CL8'NOTINPDS'
               8 000020D8 00000001     C   17283 16831
 =CL8'NOTONVOL'
               8 00002020 00000001     C   17266 16154
 =CL8'ONVOL'
               8 00002030 00000001     C   17268 16175
 =CL8'OUTOFSP'
               8 000020A0 00000001     C   17277 16589
 =CL8'TEXT'
               8 00000B78 00000001     C   13621 10501  10629
 =CL8'VOLBKUP'
               8 00002088 00000001     C   17274 16506
 =F'2000'      4 00001460 00000001     F   15133 14655
 =F'300000'
               4 00001464 00000001     F   15134 14656
 =H'11'        2 00002718 00000001     H   18561 17819
 =H'2'         2 00000DF0 00000001     H   13703 13241
 =H'256'       2 000014CE 00000001     H   15141 14715
 =V(ACTNEXT)
               4 00000C70 00000001     V   13649 10505
 =V(ACTPICK)
               4 00000C74 00000001     V   13650 10524  10615
 =V(ACTRESET)
               4 00000C94 00000001     V   13658 11149
 =V(BTD)       4 00000CE8 00000001     V   13679 13029  13091  13454
 =V(BTD)       4 000021D0 00000001     V   17304 16876
 =V(CHKKW)
               4 00001468 00000001     V   15135 15051
 =V(CHKMBRIG)
               4 00000C9C 00000001     V   13660 11236
1FILE     (FILE2025) (12:45) (15MAR04) Ordinary Symbol and Literal Cross Reference                                          Page   67
 =V(CLRTEXT)
               4 00000C98 00000001     V   13659 11219
 =V(CONDENSE)
               4 00001450 00000001     V   15129 14199
 =V(DEQUOTE)
               4 00000CEC 00000001     V   13680 13282
 =V(DESPOT)
               4 00000C78 00000001     V   13651 10598  10673  10720
 =V(DOPEN)
               4 00000C64 00000001     V   13646 10361
 =V(DSNAUTH)
               4 000026E8 00000001     V   18548 17406
 =V(EXIT0)
               4 00000CAC 00000001     V   13664 11626  11836  12039  12152  12265
 =V(EXTCLOSE)
               4 00000C80 00000001     V   13653 10748  12552
 =V(EXTWRITE)
               4 00001458 00000001     V   15131 14427  14520
 =V(GETLINFO)
               4 0000145C 00000001     V   15132 14507
 =V(GETVINFO)
               4 00001454 00000001     V   15130 14419
 =V(INITSTK)
               4 00000CD8 00000001     V   13675 12594
 =V(LRTRIM)
               4 00000CA4 00000001     V   13662 11486
 =V(NTGDOPN)
               4 000026F4 00000001     V   18551 17503
 =V(SCAN)      4 00000C08 00000001     V   13633  9831   9862  13190
 =V(SCANTOK)
               4 00000BF0 00000001     V   13627  9705
 =V(SCINFO)
               4 00000BFC 00000001     V   13630  9758
 =V(SCINIT)
               4 00000BF4 00000001     V   13628  9744   9851
 =V(SCNEXFR)
               4 00000C00 00000001     V   13631  9782
 =V(SEG)       4 00000C3C 00000001     V   13636  9983  10079  10211  10254  10909  11070  11468  11528  11568  12456
                                                 12500  12744  12779  12829  12859  12931  12986  13007  13053  13071
                                                 13144  13221  13432
 =V(SEG)       4 0000142C 00000001     V   15124 14094  14139
 =V(SEG)       4 000018E0 00000001     V   15841 15238  15386  15432  15544  15571  15763  15813
 =V(SEG)       4 00002100 00000001     V   17288 15949  16152  16173  16211  16300  16325  16358  16525  16556  16788
                                                 16829  16856  16925  16950  17017  17037  17098  17164  17192  17210
                                                 17238
 =V(SEG)       4 000026EC 00000001     V   18549 17471  17493  17846  17918  17957  18156  18199  18448  18466
 =V(SEGB)      4 00000C50 00000001     V   13641 10132  11314  11422  11510  12966  13478
 =V(SEGB)      4 000021D4 00000001     V   17305 16900
 =V(SEGB)      4 00002708 00000001     V   18556 18339
 =V(SEGCLR)
               4 00002130 00000001     V   17292 16082  16273  16718  16770
 =V(SEGCR)
               4 00000C84 00000001     V   13654 10845  10949  11052  11088  11597  12807  13115  13166  13496
 =V(SEGCR)
               4 00001448 00000001     V   15127 14186  14996
 =V(SEGCR)
               4 000018EC 00000001     V   15844 15316  15414
 =V(SEGCR)
               4 00002184 00000001     V   17299 16504  16587  16608  16633  16977  16997  17055
1FILE     (FILE2025) (12:45) (15MAR04) Ordinary Symbol and Literal Cross Reference                                          Page   68
 =V(SEGCR)
               4 00002710 00000001     V   18558 18524
 =V(SEGDC)
               4 00000C88 00000001     V   13655 10931
 =V(SEGDC)
               4 00001958 00000001     V   15853 15785
 =V(SEGT)      4 00000CD0 00000001     V   13673 12528
 =V(SEGT)      4 0000212C 00000001     V   17291 16029  16239  16486
 =V(SEGT)      4 00002704 00000001     V   18555 18103
 =V(SEGTB)
               4 00000C54 00000001     V   13642 10193  10282
 =V(SEGTB)
               4 0000191C 00000001     V   15846 15460
 =V(SETPFXNS)
               4 00000C6C 00000001     V   13648 10424
 =V(SETWHELP)
               4 00000CB8 00000001     V   13667 11776  11823  11934
 =V(SETWHOST)
               4 00000CC0 00000001     V   13669 12137
 =V(SETWNEWS)
               4 00000CB4 00000001     V   13666 11724
 =V(SETWPRT)
               4 00000CC8 00000001     V   13671 12363
 =V(SETWTERM)
               4 00000CC4 00000001     V   13670 12250
 =V(YESREQ)
               4 00000C5C 00000001     V   13644 10299  12910  13123
 =V(YESREQ)
               4 0000144C 00000001     V   15128 14194  15090
 =V(YESREQ)
               4 00001920 00000001     V   15847 15473
 =V(ZDETRNG)
               4 00000C44 00000001     V   13638 10035  13538
 =V(ZODSNM)
               4 00000BF8 00000001     V   13629  9753
 =V(ZSNFIN)
               4 00000C48 00000001     V   13639 10043
 =Y((R1+1-(R0)+16*((R0)/(R1+1))/((R0)/(R1+1)))*4)
               2 000014CC 00000001     Y   15140 14515
 =Y((R1+1-(R15)+16*((R15)/(R1+1))/((R15)/(R1+1)))*4)
               2 00000D88 00000001     Y   13689 10431
 =Y(4)         2 00000DF4 00000001     Y   13705 13435  13505

1FILE     (FILE2025) (12:45) (15MAR04) Macro and Copy Code Source Summary                                                   Page   69
- Con Source                                        Volume    Members                        HLASM R4.0  2004/03/15 12.45
0     PRIMARY INPUT                                           CSECT    DROP     END      EX       LTORG    POP
                                                              PRINT    PUSH     START    USING
   L1 WYL.GS.WYL.WYLBUR.MACLIB                      SYSB05    ABORT    AINFO    ALLOPARM BASE     BTD      CCWP
                                                              COLINFO  COMMENT  CONTROL  CP       CPLOCAL  CV
                                                              CVLOCAL  DIOWAHDR DOPEN    ERROR    FFINFO   GENTER   IOWA
                                                              JCB      LENTER   LEXIT    LUVENTRY LUVHDR   OSCAN
                                                              OSCINFO  OSCINIT  OSCKW    OSCRSTR  OSCSAVE  RG
                                                              RSCHDR   RTNCODES SCANCB   SCCBADR  SCINIT   SYSDSNS  TCCR
                                                              TCLEAR   TCR      TNUM     TSEG     TTYPE    VLTORG
                                                              VOLUME   XENTER   XEXIT    XTRACE
   L2 WYL.GG.SYS.MACLIB                             SYSB05    $BC      $BFLKUP  $BV      $CCLKUP  $CRS     $CSS     $L
                                                              $LA      $LBLAD   $LEXP    $LOR     $REL     $RGLKUP
                                                              $USLKUP  ACALL    BEGIN    CEIL     CLEAR    COMPROC
                                                              CSECT    DATA     DECR     DEFCC    DEX      DROP     DTEX
                                                              ELSE     END      EX       FLAG     GEN      HIBAL
                                                              IDENT    IF       INCR     LABEL    LC       LOOP     LS
                                                              LTORG    MOVE     PEND     POP      PRINT    PROC     PUSH
                                                              QLTORG   RECORD   REG      REGS     SET      SETMSG
                                                              START    ST2      TDEX     USING    VCALL    WHILE    WITH
                                                              XPROC
   L3 SYS3.IS.MACLIB                                SYSB05    DVTAREA  KWR      SEG      SEGCB    SEGCLR   SEGCR
                                                              SEGDC    SEGLD    SIB      SYSDEFN  XPOP     XPUSH
   L5 SYS1.MACLIB                                   MVSBR9    CAMLST   DCB      ENQ      IEFJFCBN IHBERMAC IHBRDWRS
                                                              IHB01    OPEN     RACHECK  RACINIT  READ
   L6 SYS1.MODGEN                                   MVSBR9    ICHEACTN ICHEIN   ICHEINTY ICHEOPT  IECSDSL1

1FILE     (FILE2025) (12:45) (15MAR04) Dsect Cross Reference                                                                Page   70
-Dsect     Length      Id       Defn                                                         HLASM R4.0  2004/03/15 12.45
0$$$@R0   00000000  FFFFFFFE     705
 $$$@R1   00000000  FFFFFFFD     718
 $$$@R10  00000000  FFFFFFF4     835
 $$$@R11  00000000  FFFFFFF3     848
 $$$@R12  00000000  FFFFFFF2     861
 $$$@R13  00000000  FFFFFFF1     874
 $$$@R14  00000000  FFFFFFF0     887
 $$$@R15  00000000  FFFFFFEF     900
 $$$@R2   00000000  FFFFFFFC     731
 $$$@R3   00000000  FFFFFFFB     744
 $$$@R4   00000000  FFFFFFFA     757
 $$$@R5   00000000  FFFFFFF9     770
 $$$@R6   00000000  FFFFFFF8     783
 $$$@R7   00000000  FFFFFFF7     796
 $$$@R8   00000000  FFFFFFF6     809
 $$$@R9   00000000  FFFFFFF5     822
 $$$RCP   00001000  FFFFFFEC    2468
 $$$RCV   00000FB0  FFFFFFEE    1193
 $$$RDEV  0000000C  FFFFFFEB    4682
 $$$RFFINFO
          000003A0  FFFFFFE7    9299
 $$$RJCB  000000D0  FFFFFFE8    9004
 $$$RLUVENTRY
          00000020  FFFFFFE4    9605
 $$$RLUVHDR
          00000008  FFFFFFE5    9583
 $$$RNSCNCB
          000000B0  FFFFFFED    2389
 $$$RSRTNWA
          00000100  FFFFFFE3   14208
 $$$RTTYPE
          0000010C  FFFFFFEA    6213
 HIBAL    00000000  FFFFFFFF     691
 IOWA     00008718  FFFFFFE9    6336
 VOLDSECT 00000048  FFFFFFE6    9513

1FILE     (FILE2025) (12:45) (15MAR04) Using Map                                                                            Page   71
-                                                                                            HLASM R4.0  2004/03/15 12.45
   Stmt  -----Location----- Action ----------------Using----------------- Reg Max    Last  Label and Using Text
           Count      Id           Type          Value    Range     Id        Disp   Stmt
0   922  00000000  FFFFFFFF USING  ORDINARY    00000000 00001000 FFFFFFEF  15 000          @R15,15
    926  00000000  FFFFFFFF USING  ORDINARY    00000000 00001000 FFFFFFF0  14 002    2184  @R14,14
    930  00000000  FFFFFFFF USING  ORDINARY    00000000 00001000 FFFFFFF1  13 000   18483  @R13,13
    934  00000000  FFFFFFFF USING  ORDINARY    00000000 00001000 FFFFFFF2  12 000          @R12,12
    938  00000000  FFFFFFFF USING  ORDINARY    00000000 00001000 FFFFFFF3  11 000          @R11,11
    942  00000000  FFFFFFFF USING  ORDINARY    00000000 00001000 FFFFFFF4  10 000          @R10,10
    946  00000000  FFFFFFFF USING  ORDINARY    00000000 00001000 FFFFFFF5   9 000          @R9,9
    950  00000000  FFFFFFFF USING  ORDINARY    00000000 00001000 FFFFFFF6   8 000          @R8,8
    954  00000000  FFFFFFFF USING  ORDINARY    00000000 00001000 FFFFFFF7   7 000          @R7,7
    958  00000000  FFFFFFFF USING  ORDINARY    00000000 00001000 FFFFFFF8   6 000          @R6,6
    962  00000000  FFFFFFFF USING  ORDINARY    00000000 00001000 FFFFFFF9   5 000          @R5,5
    966  00000000  FFFFFFFF USING  ORDINARY    00000000 00001000 FFFFFFFA   4 001   10563  @R4,4
    970  00000000  FFFFFFFF USING  ORDINARY    00000000 00001000 FFFFFFFB   3 007   18252  @R3,3
    974  00000000  FFFFFFFF USING  ORDINARY    00000000 00001000 FFFFFFFC   2 000          @R2,2
    978  00000000  FFFFFFFF USING  ORDINARY    00000000 00001000 FFFFFFFD   1 001   13389  @R1,1
    982  00000000  FFFFFFFF USING  ORDINARY    00000000 00001000 FFFFFFFE   0 000          @R0,0
    983  00000000  FFFFFFFF DROP                                            0              0
   1177  00000017  00000001 USING  ORDINARY    00000000 00001000 FFFFFFEC  11 F96   18521  CP,CPR
   1186  00000017  00000001 USING  ORDINARY    00000000 00001000 FFFFFFEE  12 890   18488  CV,CVR
   9648  00000026  00000001 USING  ORDINARY    00000026 00001000 00000001   7 F5A   13543  $$$56B,R7
  12576  000007E0  00000001 USING  ORDINARY    000007E0 00001000 00000001  15 4F4   12582  $$$168B,R15
  12589  000007E4  00000001 USING  ORDINARY    00000000 00001000 FFFFFFEF  15 000          @R15,15
  13607  00000B6C  00000001 USING  ORDINARY    00000000 00001000 FFFFFFF7   7 000          @R7,7
  13775  00000FA0  00000001 USING  ORDINARY    00000FA0 00001000 00000001   7 55B   13955  $$$189B,7
  13969  0000101C  00000001 USING  ORDINARY    00000000 00001000 FFFFFFF7   7 000          @R7,7
  14057  00001112  00000001 USING  ORDINARY    00001112 00001000 00000001   7 41C   14199  $$$201B,BR
  14271  000011AE  00000001 USING  ORDINARY    00000000 00001000 FFFFFFF7   7 000          @R7,7
  14274  000011AE  00000001 USING  ORDINARY    000011AE 00001000 00000001   7 31E   14520  $$$206B,7
  14288  000011AE  00000001 USING  ORDINARY    FFFFFFD8 00001000 FFFFFFE3   8 028   14411  SRTNWA-(4+36),R8
  14528  00001246  00000001 USING  ORDINARY    00000000 00001000 FFFFFFF6   8 000          @R8,8
  14537  00001246  00000001 USING  ORDINARY    00000000 00001000 FFFFFFF7   7 000          @R7,7
  14540  00001246  00000001 USING  ORDINARY    00001112 00001000 00000001   7 000          $$$201B,7
  14598  0000126E  00000001 USING  ORDINARY    00000000 00001000 FFFFFFF7   7 000          @R7,7
  14601  0000126E  00000001 USING  ORDINARY    0000126E 00001000 00000001   7 260   14792  $$$218B,7
  14819  000012FC  00000001 USING  ORDINARY    00000000 00001000 FFFFFFF7   7 000          @R7,7
  14822  000012FC  00000001 USING  ORDINARY    00001112 00001000 00000001   7 000          $$$201B,7
  14863  00001324  00000001 USING  ORDINARY    00000000 00001000 FFFFFFF7   7 000          @R7,7
  14866  00001324  00000001 USING  ORDINARY    00001324 00001000 00000001   7 21B   15092  $$$228B,BR
  15030  0000138A  00000001 USING  ORDINARY    00000524 00001000 FFFFFFE9   1 100   15044  KWR,R1
  15060  000013AE  00000001 USING  ORDINARY    00000000 00001000 FFFFFFFD   1 00B   18278  @R1,1
  15110  000013E4  00000001 USING  ORDINARY    00000000 00001000 FFFFFFF7   7 000          @R7,7
  15182  00001566  00000001 USING  ORDINARY    00001566 00001000 00000001   7 4B9   15473  $$$238B,BR
  15501  0000164A  00000001 USING  ORDINARY    00000000 00001000 FFFFFFF7   7 000          @R7,7
  15516  0000164C  00000001 USING  ORDINARY    0000164C 00001000 00000001   7 926   15815  $$$246B,7
  15893  00001A7C  00000001 USING  ORDINARY    00000000 00001000 FFFFFFF7   7 000          @R7,7
  15896  00001A7C  00000001 USING  ORDINARY    00001A7C 00001000 00000001   7 919   17057  $$$251B,R7
  17071  00001F68  00000001 USING  ORDINARY    00000000 00001000 FFFFFFF7   7 000          @R7,7
  17074  00001F68  00000001 USING  ORDINARY    00001F68 00001000 00000001   7 198   17098  $$$268B,7
  17113  00001F74  00000001 USING  ORDINARY    00000000 00001000 FFFFFFF7   7 000          @R7,7
  17116  00001F74  00000001 USING  ORDINARY    00001F74 00001000 00000001   7 432   17238  $$$269B,7
  17250  00001FD2  00000001 USING  ORDINARY    00000000 00001000 FFFFFFF7   7 000          @R7,7
  17364  000023CC  00000001 USING  ORDINARY    000023CC 00001000 00000001   7 379   17503  $$$272B,BR
  17511  00002452  00000001 USING  ORDINARY    00000000 00001000 FFFFFFF7   7 000          @R7,7
1FILE     (FILE2025) (12:45) (15MAR04) Using Map                                                                            Page   72
  17549  0000246C  00000001 USING  ORDINARY    0000246C 00001000 00000001   7 2F3   18199  $$$278B,7
  17567  00002470  00000001 USING  ORDINARY    00000000 00001000 FFFFFFE7   6 29C   17726  FFINFO,R6
  18207  000025BE  00000001 USING  ORDINARY    00000000 00001000 FFFFFFF7   7 000          @R7,7
  18226  000025CC  00000001 USING  ORDINARY    00000000 00001000 FFFFFFF8   6 000          @R6,6
  18248  000025E6  00000001 USING  ORDINARY    000025E6 00001000 00000001   7 022   18292  $$$305B,BR
  18299  00002608  00000001 USING  ORDINARY    00000000 00001000 FFFFFFF7   7 000          @R7,7
  18313  0000260A  00000001 USING  ORDINARY    0000260A 00001000 00000001   7 0FE   18339  $$$309B,7
  18353  00002628  00000001 USING  ORDINARY    00000000 00001000 FFFFFFF7   7 000          @R7,7
  18372  00002642  00000001 USING  ORDINARY    00002642 00001000 00000001   7 0DE   18466  $$$310B,BR
  18478  0000268C  00000001 USING  ORDINARY    00000000 00001000 FFFFFFF7   7 000          @R7,7
  18498  000026A6  00000001 USING  ORDINARY    000026A6 00001000 00000001   7 06A   18524  $$$313B,BR
  18536  000026DA  00000001 USING  ORDINARY    00000000 00001000 FFFFFFF7   7 000          @R7,7

1         (FILE2025) (12:45) (15MAR04) General Purpose Register Cross Reference                                             Page   73
- Register  References (M=modified, B=branch, U=USING, D=DROP, N=index)                      HLASM R4.0  2004/03/15 12.45
0    0(0)      982U   983D  2113   2181M  2181   2182M  9741M  9775   9834M  9903M  9906M  9908M  9919   9930M  9939M
              9947M  9972M  9990M 10068M 10084M 10105M 10182M 10200M 10243M 10271M 10296M 10296  10342M 10353M 10403
             10432M 10446  10783  10834M 10834  10898M 10920M 10920  10938M 10956M 11041M 11059M 11077M 11242M 11263M
             11287M 11354M 11395M 11457M 11483M 11517M 11557M 11586M 11586  11623M 11649M 11665  11671  11833M 11859M
             11875  11881  11946M 11963M 11986M 12009M 12032M 12062M 12078  12084  12149M 12175M 12191  12197  12262M
             12288M 12304  12310  12445M 12489M 12517M 12733M 12768M 12796M 12818M 12848M 12907M 12907  12914  12920M
             12936M 12942M 12975M 12996M 13019M 13019  13060M 13081M 13081  13120M 13133M 13155M 13177M 13210M 13228M
             13241M 13242  13300M 13315M 13315  13337M 13342  13401M 13414  13421M 13444M 13444  13485M 13530M 13758
             13819M 13860M 13902M 13929M 13956M 13977M 14044  14083M 14106M 14128M 14175M 14175  14191M 14253  14294
             14416M 14503M 14516M 14548M 14581  14830M 14850  14985M 15048M 15048  15087M 15102M 15169  15185  15227M
             15243M 15264M 15289M 15353M 15375M 15403M 15421M 15449M 15465M 15494M 15520  15533M 15560M 15629M 15636M
             15643M 15650M 15657M 15664M 15708M 15715M 15722M 15729M 15736M 15743M 15752M 15774M 15774  15899  15938M
             15994M 16000M 16018M 16034M 16109M 16141M 16162M 16200M 16228M 16289M 16314M 16347M 16376M 16406M 16432M
             16457M 16475M 16493M 16514M 16545M 16561M 16567M 16576M 16597M 16622M 16641M 16669M 16777M 16803M 16818M
             16836M 16845M 16866M 16866  16905M 16914M 16939M 16958M 16966M 16986M 17006M 17026M 17044M 17153M 17181M
             17199M 17227M 17351  17368M 17368  17417M 17460M 17482M 17532  17616M 17625M 17625  17644M 17662  17694M
             17707M 17707  17726M 17745  17819M 17907M 17946M 17981M 18056M 18072M 18072  18145M 18188M 18215M 18328M
             18342M 18377M 18377  18397M 18421M 18455M 18485  18513M 18529M
     1(1)      978U  2113   2176M  2177M  2183M  9740M  9774   9828M  9844M  9859M  9929M  9936M  9937M  9937   9939M
              9940   9946M  9971M  9989M 10067M 10083M 10104M 10177M 10199M 10242M 10266M 10341M 10403  10432M 10445
             10447M 10448  10501M 10897M 10916M 10937M 11040M 11058M 11076M 11241M 11262M 11286M 11353M 11394M 11456M
             11478M 11516M 11556M 11647M 11857M 12060M 12173M 12286M 12444M 12488M 12512M 12732M 12767M 12791M 12817M
             12847M 12919M 12935M 12941M 12974M 12995M 13026M 13059M 13088M 13119M 13132M 13154M 13176M 13187M 13209M
             13227M 13240N 13299M 13330M 13420M 13451M 13484M 13529M 13758  13818M 13859M 13901M 13928M 13955M 13977M
             14044  14082M 14105M 14127M 14190M 14253  14294  14411M 14498M 14516M 14548M 14581  14830M 14850  14984M
             15020M 15030U 15060U 15086M 15102M 15169  15226M 15242M 15263M 15288M 15352M 15374M 15398M 15420M 15444M
             15464M 15494M 15520  15532M 15559M 15628M 15635M 15642M 15649M 15656M 15663M 15707M 15714M 15721M 15728M
             15735M 15742M 15751M 15770M 15937M 15993M 15999M 16013M 16033M 16108M 16140M 16161M 16199M 16223M 16288M
             16313M 16346M 16371M 16405M 16431M 16456M 16470M 16492M 16513M 16538M 16560M 16566M 16575M 16596M 16621M
             16640M 16668M 16776M 16798M 16817M 16835M 16844M 16873M 16904M 16913M 16938M 16957M 16965M 16985M 17005M
             17025M 17043M 17152M 17176M 17198M 17222M 17351  17417M 17459M 17481M 17532  17611M 17639M 17689M 17721M
             17818M 17906M 17945M 17976M 18055M 18144M 18181M 18215M 18252M 18286M 18323M 18341M 18396M 18420M 18454M
             18485  18512M 18529M
     2(2)      974U  2113  10434M 10444M 10444  10447  10449  10761M 10761  10782M 10957  11606  11613  11671M 11681M
             11681  11689M 11691  11881M 11891M 11891  11899M 11901  12084M 12094M 12094  12102M 12104  12197M 12207M
             12207  12215M 12217  12310M 12320M 12320  12328M 12330  13758  13977M 14044  14253  14424M 14424  14517M
             14548M 14581  14615M 14633M 14655M 14662  14712  14736M 14736  14737M 14746M 14746  14777  14781M 14781
             14782M 14791M 14791  14830M 14850  15102M 15169  15184M 15485M 15485  15490M 15490  15494M 15520  15527M
             15583M 15583  15597  15607N 15770  17351  17417M 17532  18215M 18235  18251M 18265M 18265  18288M 18328
             18342  18346M 18359  18471M 18485  18529M
     3(3)      970U  2113   9815M  9815   9820   9834  10435M 10436M 10436  10439M 10440  10494M 10494  10502  10521M
             10554  10763M 10763  10783M 10956  12564M 12596  12914M 12988  13077  13242M 13758  13977M 14044  14253
             14548M 14581  14616M 14634M 14656M 14682  14684M 14713M 14737M 14753M 14758  14777M 14782M 14798M 14803
             14830M 14850  15102M 15169  15185M 15216M 15216  15255  15280  15494M 15520  17351  17417M 17532  18215M
             18235  18250M 18323  18341  18346M 18359  18471M 18485  18529M
     4(4)      966U  2113   9844  10490M 10490  10563M 11238M 11433M 11612M 12413B 12419B 12534B 12898M 12903M 13240M
             13758  13977M 14044  14253  14548M 14581  14830M 14850  15102M 15169  15494M 15520  17351  17417M 17532
             18215M 18235  18346M 18359  18471M 18485  18529M
     5(5)      962U  2113  13758  13977M 14044  14253  14548M 14581  14610M 14715M 14728M 14737  14830M 14850  15102M
             15169  15494M 15520  15899M 16336M 16336  16394  16423  16527  16862  17351  17417M 17532  18215M 18235
             18346M 18359  18471M 18485  18529M
     6(6)      958U  2113   9833M  9865M  9865   9919   9939  13192M 13192  13234M 13235  13758  13977M 14044  14253
             14548M 14581  14830M 14850  15102M 15169  15494M 15520  15898M 15955  15957  15958N 15963N 17351  17417M
             17532  17559M 17567U 18215M 18226U 18235  18346M 18359  18471M 18485  18529M
     7(7)      954U  2106M  2106   2107B  2113   2119B  9638M  9648U 12582M 13607U 13758  13763M 13775U 13969U 13977M
1         (FILE2025) (12:45) (15MAR04) General Purpose Register Cross Reference                                             Page   74
             14044  14047M 14057U 14253  14259M 14271U 14274U 14537U 14540U 14548M 14581  14586M 14598U 14601U 14819U
             14822U 14830M 14850  14853M 14863U 14866U 15102M 15110U 15169  15172M 15182U 15494M 15501U 15506M 15516U
             15520  15883M 15893U 15896U 17061M 17071U 17074U 17103M 17113U 17116U 17250U 17351  17354M 17364U 17417M
             17511U 17532  17537M 17549U 18207U 18215M 18235  18238M 18248U 18299U 18303M 18313U 18346M 18353U 18359
             18362M 18372U 18471M 18478U 18485  18488M 18498U 18529M 18536U
     8(8)      950U  2113   9637M 13758  13759M 13973  13977M 14044  14045M 14253  14255M 14288U 14528U 14544  14548M
             14581  14582M 14826  14830M 14850  14851M 15020N 15100  15102M 15169  15170M 15492  15494M 15520  15882M
             17351  17352M 17415  17417M 17532  17533M 18211  18215M 18235  18236M 18344  18346M 18359  18360M 18469
             18471M 18485  18486M 18527  18529M
     9(9)      946U  2113  15520
    10(A)      942U  2113  15520
    11(B)      938U  1177U  2113  15520
    12(C)      934U  1186U  2113  15520
    13(D)      930U  2113   9637  10403  10404M 10404  10431M 10432  13278  13279M 13279  13414  13415M 13415  13435M
             13436  13505M 13506  13755  13758  13759  13760M 13760  13973M 13977  13979  14044  14045  14046M 14046
             14250  14253  14255  14256M 14256  14294  14295M 14295  14515M 14516  14544M 14548  14550  14578  14581
             14582  14583M 14583  14826M 14830  14832  14850  14851  14852M 14852  15100M 15101  15102  15169  15170
             15171M 15171  15492M 15493  15494  15520  15882  17351  17352  17353M 17353  17415M 17416  17417  17529
             17532  17533  17534M 17534  18211M 18215  18217  18235  18236  18237M 18237  18344M 18345  18346  18359
             18360  18361M 18361  18469M 18470  18471  18485  18486  18487M 18487  18527M 18528  18529
    14(E)      926U  2113   2114M  2128   2129M  2130B  2132M  2133B  2153M  2154B  2158M  2159B  2161M  2162B  2164M
              2165B  2167M  2168B  2170M  2171M  2171B  2177   9705M  9706M  9706B  9744M  9745M  9745B  9753M  9754M
              9754B  9758M  9759M  9759B  9773M  9774N  9775N  9779M  9779   9782M  9783M  9783B  9831M  9832M  9832B
              9851M  9852M  9852B  9862M  9863M  9863B  9983M  9984M  9984B  9999M 10000M 10000B 10035M 10036M 10036B
             10043M 10044M 10044B 10079M 10080M 10080B 10132M 10133M 10133B 10193M 10194M 10194B 10211M 10212M 10212B
             10219M 10220M 10220B 10254M 10255M 10255B 10282M 10283M 10283B 10299M 10300M 10300B 10361M 10362M 10362B
             10373M 10374M 10374B 10424M 10425M 10425B 10505M 10506M 10506B 10524M 10525M 10525B 10598M 10599M 10599B
             10615M 10616M 10616B 10673M 10674M 10674B 10720M 10721M 10721B 10748M 10749M 10749B 10845M 10846M 10846B
             10909M 10910M 10910B 10931M 10932M 10932B 10949M 10950M 10950B 10995M 10996M 10996B 11052M 11053M 11053B
             11070M 11071M 11071B 11088M 11089M 11089B 11149M 11150M 11150B 11219M 11220M 11220B 11236M 11237M 11237B
             11314M 11315M 11315B 11422M 11423M 11423B 11426M 11427M 11427B 11468M 11469M 11469B 11486M 11487M 11487B
             11510M 11511M 11511B 11528M 11529M 11529B 11568M 11569M 11569B 11597M 11598M 11598B 11616M 11617M 11617B
             11626M 11627M 11627B 11724M 11725M 11725B 11776M 11777M 11777B 11823M 11824M 11824B 11836M 11837M 11837B
             11934M 11935M 11935B 12039M 12040M 12040B 12137M 12138M 12138B 12152M 12153M 12153B 12250M 12251M 12251B
             12265M 12266M 12266B 12363M 12364M 12364B 12411M 12412M 12412B 12417M 12418M 12418B 12456M 12457M 12457B
             12460M 12461M 12461B 12500M 12501M 12501B 12528M 12529M 12529B 12552M 12553M 12553B 12594M 12595M 12595B
             12619M 12620M 12620B 12640M 12641M 12641B 12744M 12745M 12745B 12779M 12780M 12780B 12807M 12808M 12808B
             12829M 12830M 12830B 12839M 12840M 12840B 12859M 12860M 12860B 12880M 12881M 12881B 12910M 12911M 12911B
             12931M 12932M 12932B 12966M 12967M 12967B 12986M 12987M 12987B 13007M 13008M 13008B 13029M 13030M 13030B
             13053M 13054M 13054B 13071M 13072M 13072B 13091M 13092M 13092B 13115M 13116M 13116B 13123M 13124M 13124B
             13144M 13145M 13145B 13148M 13149M 13149B 13166M 13167M 13167B 13190M 13191M 13191B 13221M 13222M 13222B
             13244B 13265B 13274B 13278  13282M 13283M 13283B 13432M 13433M 13433B 13454M 13455M 13455B 13478M 13479M
             13479B 13496M 13497M 13497B 13506M 13507B 13538M 13539M 13539B 13552B 13561B 13570B 13592B 13601B 13755
             13979M 13982B 14042  14076M 14077M 14077B 14094M 14095M 14095B 14098M 14099M 14099B 14139M 14140M 14140B
             14143M 14144M 14144B 14186M 14187M 14187B 14194M 14195M 14195B 14199M 14200M 14200B 14250  14419M 14420M
             14420B 14427M 14428M 14428B 14507M 14508M 14508B 14520M 14521M 14521B 14550M 14553B 14578  14711M 14711
             14712M 14832M 14835B 14848  14978M 14979M 14979B 14996M 14997M 14997B 15051M 15052M 15052B 15090M 15091M
             15091B 15101M 15104B 15167  15206M 15207M 15207B 15238M 15239M 15239B 15316M 15317M 15317B 15386M 15387M
             15387B 15414M 15415M 15415B 15432M 15433M 15433B 15460M 15461M 15461B 15473M 15474M 15474B 15493M 15495B
             15520  15521M 15544M 15545M 15545B 15548M 15549M 15549B 15571M 15572M 15572B 15763M 15764M 15764B 15785M
             15786M 15786B 15813M 15814M 15814B 15949M 15950M 15950B 15961M 15962M 15962B 16029M 16030M 16030B 16082M
             16083M 16083B 16152M 16153M 16153B 16173M 16174M 16174B 16211M 16212M 16212B 16239M 16240M 16240B 16273M
             16274M 16274B 16300M 16301M 16301B 16307M 16308M 16308B 16325M 16326M 16326B 16358M 16359M 16359B 16486M
             16487M 16487B 16504M 16505M 16505B 16525M 16526M 16526B 16556M 16557M 16557B 16587M 16588M 16588B 16608M
             16609M 16609B 16615M 16616M 16616B 16633M 16634M 16634B 16718M 16719M 16719B 16770M 16771M 16771B 16788M
             16789M 16789B 16811M 16812M 16812B 16829M 16830M 16830B 16856M 16857M 16857B 16876M 16877M 16877B 16900M
             16901M 16901B 16925M 16926M 16926B 16930M 16931M 16931B 16950M 16951M 16951B 16977M 16978M 16978B 16997M
             16998M 16998B 17017M 17018M 17018B 17037M 17038M 17038B 17055M 17056M 17056B 17098M 17099M 17099B 17164M
             17165M 17165B 17192M 17193M 17193B 17210M 17211M 17211B 17238M 17239M 17239B 17349  17406M 17407M 17407B
1         (FILE2025) (12:45) (15MAR04) General Purpose Register Cross Reference                                             Page   75
             17416M 17419B 17471M 17472M 17472B 17493M 17494M 17494B 17497M 17498M 17498B 17503M 17504M 17504B 17529
             17846M 17847M 17847B 17918M 17919M 17919B 17957M 17958M 17958B 18103M 18104M 18104B 18156M 18157M 18157B
             18199M 18200M 18200B 18217M 18220B 18233  18339M 18340M 18340B 18345M 18347B 18357  18448M 18449M 18449B
             18466M 18467M 18467B 18470M 18472B 18483  18506M 18507M 18507B 18524M 18525M 18525B 18528M 18530B
    15(F)      922U  2113   9980M 10076M 10129M 10190M 10208M 10251M 10279M 10290M 10291M 10292  10357M 10392M 10392
             10403  10432M 10502M 10521  10595M 10612M 10670M 10697M 10713M 10782  10842M 10906M 10928M 10946M 10957M
             10980  10987M 11001  11049M 11067M 11085M 11311M 11419M 11465M 11507M 11525M 11565M 11594M 11606M 11613M
             12453M 12497M 12525M 12554M 12564  12565M 12596M 12610  12613  12622  12650M 12651M 12652  12664  12741M
             12776M 12804M 12826M 12836M 12856M 12928M 12963M 12983M 12988M 13004M 13009M 13050M 13068M 13077M 13112M
             13141M 13163M 13168M 13180  13218M 13342M 13345  13357M 13362  13366M 13375M 13375  13382  13429M 13436M
             13475M 13493M 13981M 13981  14091M 14136M 14183M 14504M 14552M 14552  14610  14682M 14683M 14684  14686M
             14703M 14712M 14713  14834M 14834  14993M 15062M 15098M 15098  15103M 15103  15169  15198  15235M 15313M
             15383M 15411M 15429M 15457M 15494M 15520  15527  15541M 15552M 15553M 15554  15568M 15760M 15782M 15810M
             15898  15946M 16026M 16079M 16149M 16170M 16208M 16236M 16270M 16297M 16322M 16355M 16483M 16501M 16522M
             16553M 16584M 16605M 16630M 16715M 16767M 16785M 16826M 16853M 16862M 16897M 16922M 16947M 16974M 16994M
             17014M 17034M 17052M 17095M 17161M 17189M 17207M 17235M 17366  17413M 17413  17418M 17418  17468M 17490M
             17843M 17915M 17954M 18100M 18153M 18196M 18219M 18219  18336M 18445M 18463M 18485  18521M 18529M

1FILE     (FILE2025) (12:45) (15MAR04) Diagnostic Cross Reference and Assembler Summary                                     Page   76
-                                                                                            HLASM R4.0  2004/03/15 12.45
0     No Statements Flagged in this Assembly
 HIGH LEVEL ASSEMBLER, 5696-234, RELEASE 4.0, PTF P72483
0SYSTEM: OS/390 02.10.00            JOBNAME: WYL#FILE    STEPNAME: ASM        PROCSTEP: (NOPROC)
0Datasets Allocated for this Assembly
  Con DDname   Dataset Name                                 Volume  Member
   P1 SYSIN    WYL.GS.WYL.WYLBUR.SOURCE                     SYSB05  FILE
   L1 SYSLIB   WYL.GS.WYL.WYLBUR.MACLIB                     SYSB05
   L2          WYL.GG.SYS.MACLIB                            SYSB05
   L3          SYS3.IS.MACLIB                               SYSB05
   L4          SYS3.MACLIB                                  SYSB02
   L5          SYS1.MACLIB                                  MVSBR9
   L6          SYS1.MODGEN                                  MVSBR9
      SYSPRINT SYS04075.T124507.RA000.WYL#FILE.PRINT.H01    SCR101
      SYSTERM  GG$SLP.WYL#FILE.JOB03526.D0000101.?

    3668K allocated to Buffer Pool,         3581K would be required for this to be an In-Storage Assembly
    1341 Primary Input Records Read        19098 Library Records Read                  0 Work File Reads
       0 ASMAOPT Records Read               6276 Primary Print Records Written         0 Work File Writes
       0 Punch Records Written                 0 ADATA Records Written
0Assembly Start Time: 12.45.08 Stop Time: 12.45.23 Processor Time: 00.00.03.5277
 Return Code 000
