1                        J E S 2  J O B  L O G  --  S Y S T E M  S Y S B  --  N O D E  R L G
0
 13.01.06 JOB03590 ---- MONDAY,    15 MAR 2004 ----
 13.01.06 JOB03590  ICH70001I GG$SLP   LAST ACCESS AT 13:00:49 ON MONDAY, MARCH 15, 2004
 13.01.06 JOB03590  $HASP373 WYL#WGS  STARTED - INIT 7    - CLASS B - SYS SYSB
 13.01.06 JOB03590  ***  HCMD      STEP $$QUIET
 13.01.06 JOB03590  PUR * Q OUT MUL
 13.01.06 JOB03590  JOB 5454 WYL#WGS  WILL BE PURGED
 13.01.07 JOB03590  WYL#WGS .$$QUIET .         RC=Zero TapeIO=0000 DiskIO=0000 CPU=  .01s Elapsed=66.04s
 13.01.21 JOB03590  WYL#WGS .ASM     .         RC=Zero TapeIO=0000 DiskIO=1010 CPU= 9.00s Elapsed=67.09s
 13.01.25 JOB03590  WYL#WGS .EDIT    .         RC=Zero TapeIO=0000 DiskIO=0539 CPU= 1.65s Elapsed=81.61s
 13.01.25 JOB03590  WYL#WGS  Ended.  Name=Assemble WGS                   Total CPU=10.66s Elapsed=66.04s
 13.01.25 JOB03590
 13.01.25 JOB03590  Execution charges   Priority=Standard   Block=Day
 13.01.25 JOB03590
 13.01.25 JOB03590  CPU Usage         197.81         $122.64   Standard Processing Unit Equivalent
 13.01.25 JOB03590                                   =======
 13.01.25 JOB03590                                   $122.64   Total Job execution charge
 13.01.25 JOB03590
 13.01.25 JOB03590  See back separator page for print charges
 13.01.25 JOB03590
 13.01.26 JOB03590  $HASP395 WYL#WGS  ENDED  ASM=0, EDIT=0
1        1 //WYL#WGS JOB SLP$GG,'Assemble WGS',TIME=4,REGION=4M                    JOB03590
           //*
           /*JOBPARM LINES=99,COPIES=1
           /*JOBPARM FORMS=3HOL,PFORMAT=LAND,CHARS=BD13,DUPLEX=YES,FLASH=BAR4
           //*
           /*JOBPARM NOTIFY=GG.SLP,HOLD=OUTPUT                                     WYLGEN
         2 //$$QUIET EXEC PGM=HCMDX,PARM='PUR * Q OUT MUL'
           //*
         3 //ASM    EXEC PGM=ASMA90,REGION=8M,
           //            PARM=('NORENT,TERM,FLAG(NOCONT),US(MAP,WARN(10)),NODECK',
           //            'LC(32767),XREF(SHORT),ESD,DXREF,NOOBJECT')
         4 //STEPLIB DD DSN=SYS3.IS.TESTASM,DISP=SHR
         5 //SYSLIB   DD  DSN=WYL.GS.WYL.WYLBUR.MACLIB,DISP=SHR
         6 //         DD  DSN=WYL.GG.SYS.MACLIB,DISP=SHR
         7 //         DD  DSN=SYS3.IS.MACLIB,DISP=SHR
         8 //         DD  DSN=SYS3.MACLIB,DISP=SHR
         9 //         DD  DSN=SYS1.MACLIB,DISP=SHR
        10 //         DD  DSN=SYS1.MODGEN,DISP=SHR
        11 //SYSUT1   DD DSN=&&SYSUT1,UNIT=VIO,DISP=(,DELETE),
           //            SPACE=(4088,(500,250),,CONTIG,ROUND)
        12 //SYSTERM  DD SYSOUT=T
        13 //SYSPRINT DD DSN=&&PRINT,UNIT=SYSDA,DISP=(,PASS),
           //            SPACE=(6650,(250,250),RLSE),
           //            DCB=(BLKSIZE=6650,LRECL=133,RECFM=FB)
        14 //SYSUDUMP DD SYSOUT=A
        15 //SYSIN    DD  DSN=WYL.GS.WYL.WYLBUR.SOURCE(WGS),DISP=SHR
           //*
        16 //EDIT    EXEC PGM=ASMEDIT,TIME=2,REGION=4000K,
           //             PARM='STMT'
        17 //STEPLIB  DD  DSN=WYL.GG.SYS.LINKLIB,DISP=SHR
        18 //ASMOUT   DD  DSN=&PRINT,DISP=(OLD,DELETE)
        19 //SYSPRINT DD  SYSOUT=A
1 STMT NO. MESSAGE
 -
        11 IGD01010I STORCLAS= TEMP STORGROUP =
        11 IGD01010I STORGRP=VIO ASSIGNED.
        13 IGD01010I STORCLAS= TEMP STORGROUP =
        13 IGD01010I STORGRP=VIO ASSIGNED.
 ICH70001I GG$SLP   LAST ACCESS AT 13:00:49 ON MONDAY, MARCH 15, 2004
 IEF142I WYL#WGS $$QUIET - STEP WAS EXECUTED - COND CODE 0000
 *********************************************************************************
 *   WYL#WGS /$$QUIET /                    Return Code      Zero                 *
 *   Region used      260K (16K user + 244K system)                              *
 *   Extended region  9580K (4K user + 9576K system)                             *
 *                                                                               *
 *   Paging              In      Out                                             *
 *   Private <-> Aux      0        0       CPU time (TCB)   00:00:00.01          *
 *   Private <-> Exp      0        0       CPU time (SRB)   00:00:00.00          *
 *   VIO                  0        0       Elapsed time    917:26:46.92          *
 *   Common               0      ---                                             *
 *                                                                               *
 *                                                                               *
 *   CPU Usage          0.18         $0.11  Standard Processing Unit Equivalent  *
 *                                   $0.11  Total Step execution charge          *
 *                                                                               *
 *    I/O count  DDname   Type Addr           I/O count  DDname   Type Addr      *
 *                         *** No I/O for this step ***                          *
 *********************************************************************************
 IEF373I STEP/$$QUIET /START 2004075.1301
 IEF374I STEP/$$QUIET /STOP  2004075.1301 CPU    0MIN 00.01SEC SRB    0MIN 00.00SEC VIRT    16K SYS   244K EXT       4K SYS    9576K
 IEF236I ALLOC. FOR WYL#WGS ASM
 IEF237I 04DC ALLOCATED TO STEPLIB
 IEF237I 04DC ALLOCATED TO SYSLIB
 IEF237I 04DC ALLOCATED TO
 IEF237I 04DC ALLOCATED TO
 IEF237I 0402 ALLOCATED TO
 IEF237I 04A0 ALLOCATED TO
 IEF237I 04A0 ALLOCATED TO
 IGD101I SMS ALLOCATED TO DDNAME (SYSUT1  )
         DSN (SYS04075.T130105.RA000.WYL#WGS.SYSUT1.H01   )
         STORCLAS (TEMP) MGMTCLAS (        ) DATACLAS (        )
         VOL SER NOS= VIO
 IEF237I JES2 ALLOCATED TO SYSTERM
 IGD101I SMS ALLOCATED TO DDNAME (SYSPRINT)
         DSN (SYS04075.T130105.RA000.WYL#WGS.PRINT.H01    )
         STORCLAS (TEMP) MGMTCLAS (        ) DATACLAS (        )
         VOL SER NOS= SCR100
 IEF237I JES2 ALLOCATED TO SYSUDUMP
 IEF237I 04DC ALLOCATED TO SYSIN
 IEF142I WYL#WGS ASM - STEP WAS EXECUTED - COND CODE 0000
 IEF285I   SYS3.IS.TESTASM                              KEPT
 IEF285I   VOL SER NOS= SYSB05.
 IEF285I   WYL.GS.WYL.WYLBUR.MACLIB                     KEPT
 IEF285I   VOL SER NOS= SYSB05.
 IEF285I   WYL.GG.SYS.MACLIB                            KEPT
 IEF285I   VOL SER NOS= SYSB05.
 IEF285I   SYS3.IS.MACLIB                               KEPT
 IEF285I   VOL SER NOS= SYSB05.
 IEF285I   SYS3.MACLIB                                  KEPT
 IEF285I   VOL SER NOS= SYSB02.
 IEF285I   SYS1.MACLIB                                  KEPT
 IEF285I   VOL SER NOS= MVSBR9.
 IEF285I   SYS1.MODGEN                                  KEPT
 IEF285I   VOL SER NOS= MVSBR9.
 IGD105I SYS04075.T130105.RA000.WYL#WGS.SYSUT1.H01    DELETED,   DDNAME=SYSUT1
 IEF285I   GG$SLP.WYL#WGS.JOB03590.D0000101.?           SYSOUT
 IGD106I SYS04075.T130105.RA000.WYL#WGS.PRINT.H01     PASSED,    DDNAME=SYSPRINT
 IEF285I   GG$SLP.WYL#WGS.JOB03590.D0000102.?           SYSOUT
 IEF285I   WYL.GS.WYL.WYLBUR.SOURCE                     KEPT
 IEF285I   VOL SER NOS= SYSB05.
 *********************************************************************************
 *   WYL#WGS /ASM     /                    Return Code      Zero                 *
 *   Region used      4376K (4096K user + 280K system)                           *
 *   Extended region  10196K (412K user + 9784K system)                          *
 *                                                                               *
 *   Paging              In      Out                                             *
 *   Private <-> Aux      0        0       CPU time (TCB)   00:00:08.93          *
 *   Private <-> Exp      0        0       CPU time (SRB)   00:00:00.07          *
 *   VIO                  0        0       Elapsed time    917:26:45.87          *
 *   Common               0      ---                                             *
 *                                                                               *
 *                                                                               *
 *   CPU Usage        167.43       $103.80  Standard Processing Unit Equivalent  *
 *                                 $103.80  Total Step execution charge          *
 *                                                                               *
 *    I/O count  DDname   Type Addr           I/O count  DDname   Type Addr      *
 *           90  STEPLIB  Disk 04DC                 361  SYSLIB   Disk 04DC      *
 *            0  SYSLIB   Disk 04DC                   0  SYSLIB   Disk 04DC      *
 *            4  SYSLIB   Disk 0402                   0  SYSLIB   Disk 04A0      *
 *            0  SYSLIB   Disk 04A0                 971  SYSUT1   VIO  ----      *
 *            0  SYSTERM       ----                 536  SYSPRINT Disk 038B      *
 *            0  SYSUDUMP      ----                  19  SYSIN    Disk 04DC      *
 *********************************************************************************
 IEF373I STEP/ASM     /START 2004075.1301
 IEF374I STEP/ASM     /STOP  2004075.1301 CPU    0MIN 08.93SEC SRB    0MIN 00.07SEC VIRT  4096K SYS   280K EXT     412K SYS    9784K
 IEF236I ALLOC. FOR WYL#WGS EDIT
 IEF237I 0402 ALLOCATED TO STEPLIB
 IGD103I SMS ALLOCATED TO DDNAME ASMOUT
 IEF237I JES2 ALLOCATED TO SYSPRINT
 IEF142I WYL#WGS EDIT - STEP WAS EXECUTED - COND CODE 0000
 IEF285I   WYL.GG.SYS.LINKLIB                           KEPT
 IEF285I   VOL SER NOS= SYSB02.
 IGD105I SYS04075.T130105.RA000.WYL#WGS.PRINT.H01     DELETED,   DDNAME=ASMOUT
 IEF285I   GG$SLP.WYL#WGS.JOB03590.D0000103.?           SYSOUT
 *********************************************************************************
 *   WYL#WGS /EDIT    /                    Return Code      Zero                 *
 *   Region used      380K (116K user + 264K system)                             *
 *   Extended region  9700K (4K user + 9696K system)                             *
 *                                                                               *
 *   Paging              In      Out                                             *
 *   Private <-> Aux      0        0       CPU time (TCB)   00:00:01.61          *
 *   Private <-> Exp      0        0       CPU time (SRB)   00:00:00.04          *
 *   VIO                  0        0       Elapsed time    917:26:31.35          *
 *   Common               0      ---                                             *
 *                                                                               *
 *                                                                               *
 *   CPU Usage         30.18        $18.71  Standard Processing Unit Equivalent  *
 *                                  $18.71  Total Step execution charge          *
 *                                                                               *
 *    I/O count  DDname   Type Addr           I/O count  DDname   Type Addr      *
 *            2  STEPLIB  Disk 0402                 537  ASMOUT   Disk 038B      *
 *            0  SYSPRINT      ----                                              *
 *********************************************************************************
 IEF373I STEP/EDIT    /START 2004075.1301
 IEF374I STEP/EDIT    /STOP  2004075.1301 CPU    0MIN 01.61SEC SRB    0MIN 00.04SEC VIRT   116K SYS   264K EXT       4K SYS    9696K
 *********************************************************************************
 *                                                                               *
 *                      S t a n f o r d   U n i v e r s i t y                    *
 *                                                                               *
 *                              *** Job Summary ***                              *
 *                                                                               *
 *   System Id      SYSB                   Input time     12:39:39  Mar 15, 2004 *
 *                                                                               *
 *   System Release SP6.1.0                Start time     13:01:06  Mar 15, 2004 *
 *                                                                               *
 *   Job name       WYL#WGS                Stop  time     00:00:00  Mar 15, 2004 *
 *                                                                               *
 *   Account        SLP$GG                 Elapsed time  917:26:46.92            *
 *                                                                               *
 *   User Name      Assemble WGS           CPU time       00:00:10.55            *
 *                                                                               *
 *   Job class      B                      SRB Time       00:00:00.11            *
 *                                                                               *
 *********************************************************************************
 IEF375I  JOB/WYL#WGS /START 2004075.1301
 IEF376I  JOB/WYL#WGS /STOP  2004075.1301 CPU    0MIN 10.55SEC SRB    0MIN 00.11SEC
1Assembler Done WGS No Statements Flagged
1         High Level Assembler Option Summary                   (PTF P72483 )                                               Page    1
-                                                                                            HLASM R4.0  2004/03/15 13.01
0  No Overriding ASMAOPT Parameters
   Overriding Parameters-  NORENT,TERM,FLAG(NOCONT),US(MAP,WARN(10)),NODECK,LC(32767),XREF(SHORT),ESD,DXREF,NOOBJECT
   No Process Statements


   Options for this Assembly
0  NOADATA
     ALIGN
   NOASA
     BATCH
     CODEPAGE(047C)
   NOCOMPAT
   NODBCS
 3 NODECK
 3   DXREF
 3   ESD
   NOEXIT
 3   FLAG(0,ALIGN,NOCONT,NOIMPLEN,NOPAGE0,PUSH,RECORD,NOSUBSTR,USING0)
   NOFOLD
   NOGOFF
   NOINFO
     LANGUAGE(EN)
   NOLIBMAC
 3   LINECOUNT(32767)
     LIST(121)
     MXREF(SOURCE)
 3 NOOBJECT
     OPTABLE(UNI,NOLIST)
   NOPCONTROL
   NOPESTOP
   NOPROFILE
   NORA2
 3 NORENT
     RLD
     RXREF
     SIZE(MAX)
     SYSPARM()
 3   TERM(WIDE)
   NOTEST
     THREAD
   NOTRANSLATE
 3   USING(NOLIMIT,MAP,WARN(10))
 3   XREF(SHORT)

   No Overriding DD Names

1WGS      External Symbol Dictionary                                                                                        Page    2
-Symbol   Type   Id     Address  Length     LD ID  Flags Alias-of                            HLASM R4.0  2004/03/15 13.01
0WYLWGS    SD 00000001 00000000 00009988             00
 WGS2193   LD          00000000           00000001
 MARKHEAP  ER 00000002
 GETHEAP   ER 00000003
 SEGINIT   ER 00000004
 SEGINITR  ER 00000005
 RELHEAP   ER 00000006
 WGSOPEN   LD          00000120           00000001
 SEG       ER 00000007
 SEGDC     ER 00000008
 SEGT      ER 00000009
 NSCAN     ER 0000000A
 SCANCHK   ER 0000000B
 SEGWR     ER 0000000C
 WGSACCES  LD          000007DE           00000001
 SEGCLR    ER 0000000D
 WGSTRKS   LD          00000CB6           00000001
 MPARM     ER 0000000E
 MALL      ER 0000000F
 SCDQUOTE  ER 00000010
 SEGCR     ER 00000011
 WGSCRTCH  LD          0000101E           00000001
 MTOKEN    ER 00000012
 NOTVALID  ER 00000013
 LOGCMD    ER 00000014
 LOGEVENT  ER 00000015
 WGSRENAM  LD          000015F2           00000001
 PMARKA    ER 00000016
 PGETA     ER 00000017
 PJUNKA    ER 00000018
 WGSHODIR  LD          00001BC8           00000001
 PGETNEW   ER 00000019
 WGSHODSN  LD          000023B6           00000001
 WGSHOCAT  LD          00002B60           00000001
 WGSALLOC  LD          000031FE           00000001
 YESREQ    ER 0000001A
 MPINT     ER 0000001B
 WGSCATLG  LD          00003DE0           00000001
 VOLPSH    LD          0000444E           00000001
 ACCTPUSH  LD          00004484           00000001
 NACCTPSH  LD          000044BA           00000001
 FORMPSH   LD          000044F0           00000001
 LINEPSH   LD          00004526           00000001
 XFERPSH   LD          0000455C           00000001
 CATPSH    LD          00004592           00000001
 PDSPSH    LD          000045C8           00000001
 WSMSPSH   LD          000045FE           00000001
 RLOOKUP   ER 0000001C
 SCNNOOP   ER 0000001D
 MPAREN    ER 0000001E
 LRTRIM    ER 0000001F
 DTB       ER 00000020
 SCSEG     ER 00000021
 MNULL     ER 00000022
 WGSREAD   LD          00006046           00000001
1WGS      External Symbol Dictionary                                                                                        Page    3
 WGSWRITE  LD          0000619E           00000001
 BTDZEROS  ER 00000023
 WGSCLOSE  LD          00006230           00000001
 NRESOLVE  ER 00000024
 GTINTVAL  ER 00000025
 RTRIM     ER 00000026
 CVEXNO    ER 00000027
 NSCANSTR  ER 00000028
 SCUPCASE  ER 00000029
 WPSEG     LD          00007AD4           00000001
 PATHALLO  ER 0000002A
 PATHOPEN  ER 0000002B
 PATHREAD  ER 0000002C
 BTX       ER 0000002D
 PATHCLS   ER 0000002E
 PATHWRIT  ER 0000002F
 EDTCOMNH  ER 00000030
 GTINTVAL  LD          00007E6C           00000001
 CHECKVOL  LD          00007FBE           00000001
 VOLCHK    ER 00000031
 RETFNAME  LD          00008120           00000001
 RETFNGDG  LD          00008190           00000001
 RETFMEM   LD          00008222           00000001
 RETLIBMB  LD          000082B2           00000001
 WGSRESLV  LD          00008354           00000001
 ACCTPSH   ER 00000032
 TOUPPER   ER 00000033

1WGS      Wylbur's WINGS Interface                                                                                          Page    4
0Loc    Object Code    Addr1 Addr2  Stmt Lv Lineno    Source Statement                    (Asmedit 3.3)  HLASM R4.0  2004/03/15 13.01
+___    ______ ____    _____ _____  ____ __ ______    ______ _________
0                                      2              *******************************************************************
                                       3              *                                                                 *
                                       4              *     WYLBUR/370 - Release VI - Class I - Stanford Proprietary    *
                                       5              *                                                                 *
                                       6              *******************************************************************
                                       7                       HIBAL
                                     988
                                     989                       SYSDEFN
                                     990                       GBLC  &PUBUSER,&PUBGRP
                                     991
 000000                00000 09988   992              WYLWGS   CSECT
                                     996
                                     997              WGS      IDENT 2193                15:11:57 07/12/02  (SLP)
                                    1000             +
                                    1001    01-IDENT +         ENTRY WGS2193
                                    1002             +
 000000 15E6C7E2F2F1F9F3            1003    01-IDENT +WGS2193  DC    AL1(21),C'WGS2193,15MAR04,13:01'
                                    1004             +*
                                    1006                       REGS  FSR,,,,,,,BR,(WAR,LSR),PAR,PBR,CPR,CVR,SPR,RAR
                                    1142
                                    1143                       PUSH  DSECTS
 USING  CP,R11                      1154             =         USING (CP),(CV)
 USING  CV,R12
 000016                00000 09988  1173             =         POP   PRINT
 000016                00000 09988  7394              WYLWGS   CSECT
1WGS      (WGS2193) (13:01) (15MAR04) Wings File Interface (Client)                                                         Page    5
0Current Usings:  (CP,R11) (CV,R12)
0Loc    Object Code    Addr1 Addr2  Stmt Lv Lineno    Source Statement           (Hibal 5, Asmedit 3.3)  HLASM R4.0  2004/03/15 13.01
+___    ______ ____    _____ _____  ____ __ ______    ______ _________
0                                   7397              *
                                    7398              *  DEFINES NEEDED FOR WINGS
                                    7399              *
                                    7400              *
                                    7401              *
                                    7402              *  WINGS LINE OFFSETS
                                    7403              *
                                    7404              WGSLNHDR EQU   0,12
                                    7405              WGSLNLEN EQU   0,4
                                    7406              WGSLNLNO EQU   4,8
                                    7407              WGSLNTXT EQU   12
                                    7408
                                    7409              WGSBKHDR EQU   0,16
                                    7410              WGSBKLEN EQU   4096                MAKE BIGGER !! (after testing)
                                    7411              *
                                    7412              *
                                    7413              *  WGSWA - WINGS WORK AREA FOR WGS ROUTINES
                                    7414              *
                                    7415              *  THIS CONTROL BLOCK IS POINTED TO BY CPDEVP.
                                    7416              *
                                    7417              *
 000000                00000 00094  7418              WGSWA    RECORD BEGIN
                                    7426  1
                                    7427  1                      COMMENT                   OPEN STUFF, MISC
 000000                             7428  1           WGSOHEAP   DS    A                   Old heap mark
 000004                             7429  1           WGSNHEAP   DS    A                   New heap mark
 000008                             7430  1           WGSPATH    DS    A                   PATH CONTROL BLOCK
 00000C                             7431  1           WGSLRECL   DS    F                   FILE LRECL
 000010                             7432  1           WGSBLKSI   DS    F                   FILE BLOCKSIZE
 000014                             7433  1           WGSNREC    DS    F                   NREC '(nnn)' OPTION VALUE
 000018                             7434  1           WGSPRQTY   DS    F                   PRIQTY for allocate
 00001C                             7435  1           WGSSCQTY   DS    F                   SECQTY for allocate
 000020                             7436  1           WGSDRBLK   DS    F                   DIRBLKS for allocate
 000024                             7437  1           WGSDRARG   DS    A                   Pointer to SHOW DIR args
 000028 00                          7438  1           WGSALOFG   FLAG  ,                   Allocation flags
 WGSALOFG.WGSFCYL  80 ONES          7442  1                      FLAG  WGSFCYL             Cylinders
 WGSALOFG.WGSFTRK  40 ONES          7447  1                      FLAG  WGSFTRK             Tracks
 WGSALOFG.WGSFKB   20 ONES          7452  1                      FLAG  WGSFKB              Kilobytes
 WGSALOFG.WGSFMB   10 ONES          7457  1                      FLAG  WGSFMB              Megabytes
 WGSALOFG.WGSFMEMB 08 ONES          7462  1                      FLAG  WGSFMEMB            Members specified not blocks
 000029 00                          7467  1           WGSRECFM   FLAG  ,                   FILE RECFM
 WGSRECFM.WGSFEDIT 80 ONES          7471  1                      FLAG  WGSFEDIT            EDIT
 WGSRECFM.WGSFF    40 ONES          7476  1                      FLAG  WGSFF               FIXED
 WGSRECFM.WGSFV    20 ONES          7481  1                      FLAG  WGSFV               VARIABLE
 00002A 00                          7486  1           WGSOPTS    FLAG  ,                   OPTIONS
 WGSOPTS.WGSFNUM   80 ONES          7490  1                      FLAG  WGSFNUM             NUMBERED
 WGSOPTS.WGSFNNUM  40 ONES          7495  1                      FLAG  WGSFNNUM            NONUMBERED
 WGSOPTS.WGSFINT   20 ONES          7500  1                      FLAG  WGSFINT             INTEGER
 WGSOPTS.WGSFUNUM  10 ONES          7505  1                      FLAG  WGSFUNUM            UNNUMBERED
 WGSOPTS.WGSFSEQ   08 ONES          7510  1                      FLAG  WGSFSEQ             SEQUENCE FIELDV 912
 00002B 00                          7515  1           WGSSTAT    FLAG  ,
 WGSSTAT.WGSFEOF   80 ONES          7519  1                      FLAG  WGSFEOF             EOF RECIEVED
 WGSSTAT.WGSFLUSH  40 ONES          7524  1                      FLAG  WGSFLUSH            FLUSHING TO EOF
 00002C 00                          7529  1           WGSFLG0    FLAG  ,
1WGS      (WGS2193) (13:01) (15MAR04) Wings File Interface (Client)                                                         Page    6
0Current Usings:  (CP,R11) (CV,R12)
0Loc    Object Code    Addr1 Addr2  Stmt Lv Lineno    Source Statement           (Hibal 5, Asmedit 3.3)  HLASM R4.0  2004/03/15 13.01
+___    ______ ____    _____ _____  ____ __ ______    ______ _________
000002D 00                          7533  1           WGSFLG1    FLAG  ,
 WGSFLG1.WGSFWRAP  80 ONES          7537  1                      FLAG  WGSFWRAP            LINES NEED TO WRAP
 00002E 00                          7542  1           WGSFLG2    FLAG  ,
 00002F 00                          7546  1           WGSFLG3    FLAG  ,
 000030 00                          7550  1           WGSFLG4    FLAG  ,
 000034                             7554  1           WGSSEQF    DS    F                   SEQUENCE FIELD
 000038                             7555  1           WGSSEQFL   DS    F                   SEQUENCE FIELD LENGTH
                                    7556  1
                                    7557  1                      COMMENT                   READ STUFF
 00003C                             7558  1           WGRDBLK    DS    A                   READ BUFFER POINTER
 000040                             7559  1           WGRDNDX    DS    A                   INDEX INTO READ BUFFER
 000044                             7560  1           WGRDLIM    DS    A                   READ BUFFER END
 000048                             7561  1           WGRDOFF    DS    A                   OFFSET INTO READ LINE
 00004C                             7562  1           WGRDLNO    DS    A                   READ LINE NUMBER, IF NOT SUPPLIED
                                    7563  1
                                    7564  1                      COMMENT                   WRITE STUFF
 000050                             7565  1           WGWTBLK    DS    F                   WRITE SEG BUFFER (INCL. HEADER)
 000054                             7566  1           WGWTBLKL   DS    F                   WRITE SEG BUFFER LEN
                                    7567  1           WGSSG      SEGCB ,                   WINGS PATH SEG BUFFER
 000058 00                          7568  1 01-SEGCB +$$$SEGCB50   DS  0F
 WGSSGCOD.WGSSGSEG 01 EQ
 WGSSGCOD.WGSSGWR  02 EQ
 WGSSGCOD.WGSSGCLR 03 EQ
 WGSSGCOD.WGSSGSPP 04 EQ
 WGSSGCOD.WGSSGOVF 05 EQ
 WGSSGCOD.WGSSGCR  06 EQ
 WGSSGCOD.WGSSGMAR 07 EQ
 000059 00                          7643  1 01-SEGCB +           DC    X'00'               Reserved
 00005A 0000                              1          +
 00005C 00000000                    7644  1 01-SEGCB +WGSSGMAXF   DC   A(0)                Maximum buffer length
 000060 00000000                    7645  1 01-SEGCB +WGSSGMRKF   DC   A(0)                Length at last mark
 000064 00000000                    7646  1 01-SEGCB +WGSSGLENF   DC   A(0)                Current length
 000068 00000000                    7647  1 01-SEGCB +WGSSGINDF   DC   A(0)                Overflow/indent count
 00006C 00000000                    7648  1 01-SEGCB +WGSSGERR   DC    A(0)                Address of error recovery routine
 000070 0000000000000000            7649  1 01-SEGCB +           DC    2F'0'               Reserved
 000078 00000000                    7650  1 01-SEGCB +WGSSGLOC   DC    A(0)                Location of buffer
 00007C 00000000                    7651  1 01-SEGCB +WGSSGRTN   DC    A(0)                Processing routine
 000080 0000000000000000            7652  1 01-SEGCB +           DC    4F'0'               Reserved
 000090 00000000                    7653  1 01-SEGCB +WGSSGUSR   DC    A(0)                USER field
                                    7654  1 01-SEGCB +WGSSG      EQU   $$$SEGCB50,*-$$$SEGCB50,C'X'
 000094                00094 00094  7655                       END
                                    7664
1WGS      (WGS2193) (13:01) (15MAR04) Wings File Interface (Client)                                                         Page    7
0Current Usings:  (CP,R11) (CV,R12)
0Loc    Object Code    Addr1 Addr2  Stmt Lv Lineno    Source Statement           (Hibal 5, Asmedit 3.3)  HLASM R4.0  2004/03/15 13.01
+___    ______ ____    _____ _____  ____ __ ______    ______ _________
0                                   7666                       COPY  FFINFO
                                    7667             =*
                                    7668             =*
                                    7669             =*  FILE INFO DSECT
                                    7670             =*
                                    7671             =*  THIS DSECT CONTAINS THE INFO NEEDED TO OPEN FILES.
                                    7672             =*  IT CONTAINS THE FILE NAME, FILE OPTIONS, FILE SYSTEM
                                    7673             =*  NAME AND FILE SYSTEM OPTIONS. THIS DSECT SHOULD CONTAIN
                                    7674             =*  ONLY DESCRIPTIVE INFO NEEDED TO OPEN THE FILE.
                                    7675             =*
                                    7676             =*
                                    7677             =FNAMELN  EQU   128                 MAXIMUM FILE NAME LENGTH
                                    7678             =FSYSLN   EQU   128                 MAXIMUM FILE SYSTEM LENGTH
                                    7679             =FHOSTLN  EQU   128                 MAXIMUM FILE SYSTEM HOST LENGTH
                                    7680             =*
                                    7681             =*
 000000                00000 003A0  7682             =FFINFO   RECORD BEGIN
 000000 00                          7690  1          =FFTYPE     FLAG  ,                   FILE SYSTEM TYPE FLAGS
 FFTYPE.FFFWINGS   01 EQ            7694  1          =           FLAG  (FFFWINGS,1,EQ)     WINGS
 FFTYPE.FFFUNIX    02 EQ            7704  1          =           FLAG  (FFFUNIX,2,EQ)      UNIX (NOT IMPLEMENTED)
 FFTYPE.FFFSAM     03 EQ            7714  1          =           FLAG  (FFFSAM,3,EQ)       SAMSON
 FFTYPE.FFFNET     04 EQ            7724  1          =           FLAG  (FFFNET,4,EQ)       NET
 FFTYPE.FFFOLD     05 EQ            7734  1          =           FLAG  (FFFOLD,5,EQ)       OLD IBM
 000001 00                          7744  1          =FFRQTYPE   FLAG  ,                   REQUEST TYPE FLAGS
 FFRQTYPE.FFFREAD  01 EQ            7748  1          =           FLAG  (FFFREAD,1,EQ)      READ (DEFAULT)
 FFRQTYPE.FFFWRITE 02 EQ            7758  1          =           FLAG  (FFFWRITE,2,EQ)     WRITE
 FFRQTYPE.FFFAPPD  04 EQ            7768  1          =           FLAG  (FFFAPPD,4,EQ)      APPEND
 FFRQTYPE.FFFREPL  08 EQ            7778  1          =           FLAG  (FFFREPL,8,EQ)      REPLACE
 000002 00                          7788  1          =FFMISC     FLAG  ,                   MISC FLAGS
 FFMISC.FFFPASSW   80 ONES          7792  1          =           FLAG  FFFPASSW            PASSWORD ACCESS OK
 FFMISC.FFFDIFFV   40 ONES          7797  1          =           FLAG  FFFDIFFV            DIFFERENT VOL SAVE OK
 FFMISC.FFFCHFMT   20 ONES          7802  1          =           FLAG  FFFCHFMT            CHANGE DSN FORMAT OK
 FFMISC.FFFNRACF   10 ONES          7807  1          =           FLAG  FFFNRACF            NO RACF PROCESSING
 FFMISC.FFFPDS     08 ONES          7812  1          =           FLAG  FFFPDS              OP APPLIES TO PDS
 000003 00                          7817  1          =FFPTYPE    FLAG  ,                   PREVIOUS FILE TYPE
 FFPTYPE.FFFPWINGS 01 EQ            7821  1          =           FLAG  (FFFPWINGS,1,EQ)    WINGS
 FFPTYPE.FFFPUNIX  02 EQ            7831  1          =           FLAG  (FFFPUNIX,2,EQ)     UNIX (NOT IMPLEMENTED)
 FFPTYPE.FFFPSAM   03 EQ            7841  1          =           FLAG  (FFFPSAM,3,EQ)      SAMSON
 FFPTYPE.FFFPNET   04 EQ            7851  1          =           FLAG  (FFFPNET,4,EQ)      NET
 FFPTYPE.FFFPOLD   05 EQ            7861  1          =           FLAG  (FFFPOLD,5,EQ)      OLD IBM
 000004 00                          7871  1          =FFFLAG4    FLAG  ,
 000008                             7875  1          =FFNAMEL    DS    F                   FILE NAME
 00000C                             7876  1          =FFNAME     DS    CL128
 00008C                             7877  1          =FFHOSTL    DS    F                   FILE HOST
 000090                             7878  1          =FFHOST     DS    CL128
 000110                             7879  1          =FFOPTSL    DS    F                   FILE OPTIONS (FORMAT ETC)
 000114                             7880  1          =FFOPTS     DS    CL256
 000214                             7881  1          =FFRNAMEL   DS    F                   RESOLVED FULL FILE NAME
 000218                             7882  1          =FFRNAME    DS    CL128
 000298                             7883  1          =FFPNAMEL   DS    F                   PREVIOUS FILE NAME (IE. *)
 00029C                             7884  1          =FFPNAME    DS    CL128
 00031C                             7885  1          =FFPHOSTL   DS    F                   PREVIOUS HOST
 000320                             7886  1          =FFPHOST    DS    CL128
 0003A0                003A0 003A0  7887             =         END   ,
1WGS      (WGS2193) (13:01) (15MAR04) Wings File Interface (Client)                                                         Page    8
0Current Usings:  (CP,R11) (CV,R12)
0Loc    Object Code    Addr1 Addr2  Stmt Lv Lineno    Source Statement           (Hibal 5, Asmedit 3.3)  HLASM R4.0  2004/03/15 13.01
+___    ______ ____    _____ _____  ____ __ ______    ______ _________
0                                   7896
1WGS      (WGS2193) (13:01) (15MAR04) Wings File Interface (Client)                                                         Page    9
0Current Usings:  (CP,R11) (CV,R12)
0Loc    Object Code    Addr1 Addr2  Stmt Lv Lineno    Source Statement           (Hibal 5, Asmedit 3.3)  HLASM R4.0  2004/03/15 13.01
+___    ______ ____    _____ _____  ____ __ ______    ______ _________
0                                   7898              *
                                    7899              *
                                    7900              *   WINGS FILE INTERFACE ...
                                    7901              *
                                    7902              *
                                    7903              *   WINGS IS A 'HOMEBREW' MVS FILE SERVER BUILT FOR WYLBUR.
                                    7904              *   THIS MODULE CONTAINS THE WYLBUR INTERFACE TO THE WINGS
                                    7905              *   FILE SERVER.
                                    7906              *
                                    7907              *
1WGS      (WGS2193) (13:01) (15MAR04) Get Wings work area                                                                   Page   10
0Current Usings:  (CP,R11) (CV,R12)
0Loc    Object Code    Addr1 Addr2  Stmt Lv Lineno    Source Statement           (Hibal 5, Asmedit 3.3)  HLASM R4.0  2004/03/15 13.01
+___    ______ ____    _____ _____  ____ __ ______    ______ _________
0                                   7910              *
                                    7911              *
                                    7912              *  Create WINGS work area and initialize it.
                                    7913              *
                                    7914              *  ON EXIT:
                                    7915              *  R1 Points to initialized work area.
                                    7916              *
                                    7917              *
 000016 50E0 D000/9008_      00000  7918              GETWA    PROC  ,
 USING  *,R7
 000030 58E0 7078/0DEE       000A8  7957                       VCALL MARKHEAP            Get current heap ptr
 000036 182F                        7961                       LR    R2,R15
 000038 5800 707C            000AC  7962                       L     R0,=AL4(L'WGSWA)
 00003C 58E0 7080/0DEE       000B0  7963                       VCALL GETHEAP
 000042 5010 BE58            00E58  7967                       ST    R1,CPDEVP
 000046 1851                        7968                       LR    R5,R1
 USING  WGSWA,R5                    7969                       USING WGSWA,R5
 000048 D793 5000 5000 00000 00000  7978                       CLEAR WGSWA
 00004E 5020 5000            00000  7985                       ST    R2,WGSOHEAP         Save old heap ptr
                                    7986
                                    7987                       COMMENT                   GET A BUFFER FOR PROCESSING
                                    7988                       COMMENT                   FILE NAME OPTIONS AND LATER
                                    7989                       COMMENT                   FOR DOING WINGS PATH WRITES.
 000052 5800 7084            000B4  7990                       L     R0,=AL4(WGSBKLEN)
 000056 58E0 7080/0DEE       000B0  7991                       VCALL GETHEAP
 00005C 5010 5050            00050  7995                       ST    R1,WGWTBLK
 000060 5000 5054            00054  7996                       ST    R0,WGWTBLKL
 000064 5A10 7088            000B8  7997                       A     R1,=AL4(L'WGSBKHDR)
 000068 5B00 7088            000B8  7998                       S     R0,=AL4(L'WGSBKHDR)
 00006C 41F0 5058/58E0_      00058  7999                       SEGINIT (R1),(R0),WGSSG,RTNTYPE=A,RTN=WPSEG
                                    8037
 000084 58E0 7078/0DEE       000A8  8038                       VCALL MARKHEAP            Get current heap ptr
 00008A 50F0 5004            00004  8042                       ST    R15,WGSNHEAP        Save new heap ptr
                                    8043
 00008E 1815                        8044                       LR    R1,R5               RETURN WORK AREA ADDRESS
 000090 5018 0008            00008  8045                       PRETURN R1
 000094 18D8/9808 D004_             8047                       PEND  ,
 DROP   *,R7
                                    8067
 DROP   WGSWA,R5                    8068                       DROP  R5
                                    8075                       QLTORG
1WGS      (WGS2193) (13:01) (15MAR04) Release Wings work area                                                               Page   11
0Current Usings:  (CP,R11) (CV,R12)
0Loc    Object Code    Addr1 Addr2  Stmt Lv Lineno    Source Statement           (Hibal 5, Asmedit 3.3)  HLASM R4.0  2004/03/15 13.01
+___    ______ ____    _____ _____  ____ __ ______    ______ _________
0                                   8097              *
                                    8098              *  Release the Wings work area (if the heap hasn't
                                    8099              *  changed on us in the meantime).
                                    8100              *
                                    8101              *  On entry:
                                    8102              *    CPDEVP - Points to the work area to be released.
                                    8103              *
                                    8104              *  ON EXIT:
                                    8105              *     If the heap hasn't changed, the work area will be
                                    8106              *     released and CPDEVP will be cleared. Otherwise,
                                    8107              *     the work area will not be freed (because we can't
                                    8108              *     shrink the heap).
                                    8109              *
                                    8110              *
 0000C8 50E0 D000/9008_      00000  8111              RLSWA    PROC  ,
 USING  *,R7
 0000E2 5850 BE58            00E58  8150                       L     R5,CPDEVP
 USING  WGSWA,R5                    8151                       WITH  (WGSWA,R5),BEGIN
 0000E6 58E0 7036/0DEE       00118  8165  1                      VCALL MARKHEAP            Get current heap ptr
 0000EC 59F0 5004/4770_      00004  8169  1                      IF    (R15,EQ,WGSNHEAP),BEGIN  We can reduce the heap...
 0000F4 58F0 5000            00000  8186  2                        L     R15,WGSOHEAP
 0000F8 58E0 703A/0DEE       0011C  8187  2                        VCALL RELHEAP             Release WGSWA
 0000FE D703 BE58 BE58 00E58 00E58  8191  2                        CLEAR CPDEVP
 000104                             8198  1                      END
 DROP   WGSWA,R5                    8202                       END
 000104 18D8/9808 D004_             8210                       PEND  ,
 DROP   *,R7
                                    8230                       QLTORG
1WGS      (WGS2193) (13:01) (15MAR04) Release Wings work area                                                               Page   12
0Current Usings:  (CP,R11) (CV,R12)
0Loc    Object Code    Addr1 Addr2  Stmt Lv Lineno    Source Statement           (Hibal 5, Asmedit 3.3)  HLASM R4.0  2004/03/15 13.01
+___    ______ ____    _____ _____  ____ __ ______    ______ _________
0                                   8245              *
                                    8246              *
                                    8247              *  WGSOPEN - WINGS OPEN
                                    8248              *
                                    8249              *  ON ENTRY:
                                    8250              *  FFINFO DSECT CONTAINS FILE NAME/FORMAT/OPTIONS AND
                                    8251              *  FILE SYSTEM INFORMATION.
                                    8252              *
                                    8253              *  ON EXIT:
                                    8254              *  R15=0, ALL OK
                                    8255              *  R15=NZ, CPERRID CONTAINS ERROR, MSG TSEG'D
                                    8256              *
                                    8257              *  CAUTION!:
                                    8258              *  SOME SCANNING ERRORS EXIT VIA CVERROR
                                    8259              *  (THIS COULD BE CHANGED AND FIXED.)
                                    8260              *
                                    8261              *  THIS ROUTINE MUST PROCESS FILE NAME AND OPTIONS.
                                    8262              *  THIS ROUTINE MUST GATHER INFO REQUIRED TO OPEN FILE.
                                    8263              *  THIS ROUTINE MUST OPEN A PATH TO WINGS FILE SERVER.
                                    8264              *  THIS ROUTINE MUST START UP WINGS SERVER PROTOCOL.
                                    8265              *  THIS ROUTINE MUST PROCESS FILE SERVER RETURNS.
                                    8266              *
                                    8267              *  NOTE:
                                    8268              *  MOST OPTIONS ARE PROCESSED BY SEG'ING THEM INTO THE WINGS
                                    8269              *  WRITE BUFFER.   THE BUFFER IS NOT (MUST NOT BE!) WRITTEN
                                    8270              *  TO WINGS UNTIL THE PATH IS OPENED.  WE DO NOT OPEN THE
                                    8271              *  PATH FIRST BECAUSE WE WANT TO CATCH ANY SYNTAX OR OPTION
                                    8272              *  ERRORS BEFORE WE GO TO THE OVERHEAD OF OPENING THE PATH.
                                    8273              *
                                    8274              *  CAUTION!!
                                    8275              *  FILE SYSTEM OPTIONS MAY BE SAME AS FILE OPTIONS. (EG. VOLUME=
                                    8276              *  MAY BE SPECIFIED TWICE.)  WE PROCESS THE FILE SYSTEM FIRST
                                    8277              *  AND THE SPECIFIC FILE OPTIONS NEXT.  THUS, IF THERE ARE
                                    8278              *  DUPLICATE OPTIONS, THE SECOND OCCURANCE SHOULD OVERRIDE THE
                                    8279              *  FIRST.  WINGS SERVER BEWARE !
                                    8280              *
                                    8281              *
 000120 50E0 D000/9008_      00000  8282              WGSOPEN  XPROC ,
 USING  *,R7
 00013A 5860 BE54            00E54  8322                       L     R6,CPFINFOP
 USING  FFINFO,R6                   8323                       USING FFINFO,R6
                                    8332
 00013E 9501 6001/4770_00001        8333                       IF    FFFREAD,'INCR R15,CVWGRDOP'
 000152 701C/47F0 7028_00152 00144  8359                       ELSE  'INCR R15,CVWGWROP'
                                    8381
                                    8382                       COMMENT                   GET CLEAR WINGS WORKAREA
 000162 58E0 7576/0DEE       006B0  8383                       ACALL GETWA
 000168 1851                        8387                       LR    R5,R1
 USING  WGSWA,R5                    8388                       USING WGSWA,R5
                                    8397
                                    8398                       COMMENT                   PASS OPEN INFO TO WINGS
                                    8399                       COMMENT
                                    8400
                                    8401                       COMMENT                   PASS NAME
1WGS      (WGS2193) (13:01) (15MAR04) Release Wings work area                                                               Page   13
0Current Usings:  (WGSWA,R5) (FFINFO,R6) (*,R7) (CP,R11) (CV,R12)
0Loc    Object Code    Addr1 Addr2  Stmt Lv Lineno    Source Statement           (Hibal 5, Asmedit 3.3)  HLASM R4.0  2004/03/15 13.01
+___    ______ ____    _____ _____  ____ __ ______    ______ _________
000016A D503 7536 6008_00670 00008  8402                       IF    (FFNAMEL,EQ,0),BEGIN
 000174 D207 B886 753E 00886 00678  8420  1                      MVC   CPERRID,=CL8'NOFNAME'
 00017A 4110 75C6/4100_      00700  8421  1                      TSEG  'Missing file name.'
 00018C 41F0 0004            00004  8439  1                      LA    R15,4
 000190 47F0 7526            00660  8440  1                      B     WPDONE
 000194                             8441                       END
                                    8445                       COMMENT                   SEG FILE_OPEN:  NAME=<FILE NAME>
 000194 5840 5050            00050  8446                       L     R4,WGWTBLK
 000198 D20F 4000 7546 00000 00680  8447                       MVC   @R4(L'WGSBKHDR),=CL16'FILE_OPEN:      '
 00019E 4110 7642/4100_      0077C  8448                       SEG   'NAME=',,WGSSG
 0001B0 4110 600C/5800_      0000C  8465                       SEG   FFNAME,L:FFNAMEL,WGSSG
                                    8492
                                    8493                       COMMENT                   ACCESS
 0001C2 4110 7647/4100_      00781  8494                       SEG   ' REQTYPE=',,WGSSG
 0001D4 9502 6001/4770_00001        8511                       IF    FFFWRITE,BEGIN
 0001DC 4110 7650/4100_      0078A  8526  1                      SEG   'WRITE',,WGSSG
 0001EE                             8543                       END
 0001EE 70B8/47F0 70D2_001EE 001DA  8547                       ELSEIF FFFREAD,BEGIN
 0001FA 4110 757E/4100_      006B8  8571  1                      SEG   'READ',,WGSSG
 00020C                             8588                       END
 00020C 70D6/47F0 70F0_0020C 001F8  8592                       ELSEIF FFFAPPD,BEGIN
 000218 4110 75D8/4100_      00712  8616  1                      SEG   'APPEND',,WGSSG
 00022A                             8633                       END
 00022A 70F4/47F0 710E_0022A 00216  8637                       ELSEIF FFFREPL,BEGIN
 000236 4110 7655/4100_      0078F  8661  1                      SEG   'REPLACE',,WGSSG
 000248                             8678                       END
 000248 7112/47F0 7128 00248 00234  8682                       ELSE  BEGIN  DEFAULT IS READ
 00024C 9201 6001      00001        8693  1                      SET   FFFREAD
 000250 4110 757E/4100_      006B8  8699  1                      SEG   'READ',,WGSSG
 000262                             8716                       END
                                    8720
                                    8721                       COMMENT                   BYTE COUNT
 000262 4110 765C/4100_      00796  8722                       SEG   ' BYTECNT=',,WGSSG
 000274 5810 B5B0            005B0  8739                       L     R1,CPABYCT
 000278 9110 BE28/47E0_00E28        8740                       IF    CPFXMULT,'L R1,CPATBYTS'
 000284 9502 BD89/4770_00D89        8761                       IF    CPFRDEXE,'L R3,=A(300000)' IF EXEC, WE GUESS
 000290 1B00                        8782                       CLEAR R0
 000292 41F0 5058/58E0_      00058  8786                       SEGDC (R1),(R0),WGSSG
                                    8806
                                    8807                       COMMENT                   LINE COUNT
 00029C 4110 7665/4100_      0079F  8808                       SEG   ' LINECNT=',,WGSSG
 0002AE 5810 B5AC            005AC  8825                       L     R1,CPALNCT
 0002B2 9110 BE28/47E0_00E28        8826                       IF    CPFXMULT,'L R1,CPATLINS'
 0002BE 9502 BD89/4770_00D89        8847                       IF    CPFRDEXE,'L R3,=A(2000)' IF EXEC, WE GUESS
 0002CA 1B00                        8868                       CLEAR R0
 0002CC 41F0 5058/58E0_      00058  8872                       SEGDC (R1),(R0),WGSSG
                                    8892
                                    8893                       COMMENT                   CURRENT NAME
                                    8894              *
                                    8895              *  USE PREVIOUS NAME ONLY IF WINGS OR OLDIBM TYPE
                                    8896              *  (IE. SAVE XX ON LINDY, WILL NOT PASS WINGS WITH CURRENT NAME)
                                    8897              *
                                    8898            C          IF    ((FFPTYPE,EQ,L'FFFWINGS),OR,
 0002D6 9501 6003/4780_00003                                         (FFPTYPE,EQ,L'FFFOLD)),BEGIN
1WGS      (WGS2193) (13:01) (15MAR04) Release Wings work area                                                               Page   14
0Current Usings:  (WGSWA,R5) (FFINFO,R6) (*,R7) (CP,R11) (CV,R12)
0Loc    Object Code    Addr1 Addr2  Stmt Lv Lineno    Source Statement           (Hibal 5, Asmedit 3.3)  HLASM R4.0  2004/03/15 13.01
+___    ______ ____    _____ _____  ____ __ ______    ______ _________
00002E6 D503 7536 6298_00670 00298  8931  1                      IF    (FFPNAMEL,GT,0),BEGIN   SEND CURRENT NAME
 0002F0 4110 766E/4100_      007A8  8949  2                        SEG   ' CNAME=',,WGSSG
 000302 4110 629C/5800_      0029C  8966  2                        SEG   FFPNAME,L:FFPNAMEL,WGSSG
 000314                             8993  1                      END
 000314                             8997                       END
                                    9001              * we do not check volume name here other than 6 char test.
                                    9002              * we let wings check it.  also we have a hack for adding
                                    9003              * the current volume (for 'sav *') when needed, yuck.
                                    9004              *
                                    9005                       COMMENT                   PROCESS 'ON VOLUME'
                                    9006                       COMMENT
 000314 58E0 758E/0DEE       006C8  9007                       ACALL CATHACK             IF VOL=CATLG, CLEAR IT
 00031A 58E0 7592/0DEE       006CC  9011                       ACALL CVOLHACK            CHECK FOR 'SAVE *' CUR VOL HACK
 000320 D603 608C 608C_0008C 0008C  9015                       IF    (FFHOSTL,NZ),BEGIN
 00032A D503 7596 608C_006D0 0008C  9031  1                      IF    (FFHOSTL,NE,6),BEGIN   ALLOW no host names
 000334 4110 6090/5800_      00090  9049  2                        TSEG  FFHOST,L:FFHOSTL
 000346 4110 75DE/4100_      00718  9077  2                        TSEG  ': invalid volume name.'
 000358 41F0 0004            00004  9095  2                        LA    R15,4
 00035C 47F0 7526            00660  9096  2                        B     WPDONE
 000360                             9097  1                      END
 000360 4110 7675/4100_      007AF  9101  1                      SEG   ' VOL='
 000372 4110 6090/5800_      00090  9118  1                      SEG   FFHOST,L:FFHOSTL
 000384                             9145                       END
                                    9149
                                    9150                       COMMENT                   SET USER GROUP
 000384 D604 B1B8 B1B8_001B8 001B8  9151                       IF    (CPACCTSV,NZ),BEGIN
 00038E 4110 767A/4100_      007B4  9167  1                      SEG   ' SETUSER=',,WGSSG
 0003A0 4110 B1B8/4100_      001B8  9184  1                      SEG   CPUSERSV,3,WGSSG
 0003B2 4110 75F4/4100_      0072E  9213  1                      SEG   ' SETGROUP=',,WGSSG
 0003C4 4110 B1BB/4100_      001BB  9230  1                      SEG   CPGRPSV,2,WGSSG
 0003D6                             9259                       END
                                    9263              *
                                    9264              *  ** DEBUG ** SET ACCOUNT REMOVE 7/93
                                    9265              *         COMMENT                   SET VOL
                                    9266              *         IF    (CPVOLUME,NE,0),BEGIN
                                    9267              *         SEG   ' SETVOL=',,WGSSG
                                    9268              *         SEG   CPVOLUME,L'CPVOLUME,WGSSG
                                    9269              *         END
                                    9270              *
                                    9271                       COMMENT                   SET LIB
 0003D6 D507 7536 B8AB_00670 008AB  9272                       IF    (CPLIB,NE,0),BEGIN
 0003E0 4110 7556/4100_      00690  9290  1                      SEG   ' SETLIB=',,WGSSG
 0003F2 4110 B8AB/4100_      008AB  9307  1                      SEGT  CPLIB,L'CPLIB,WGSSG
 000404                             9337                       END
                                    9341              * note:
                                    9342              * we check and allow NORACF for 'set account .. pass ..' data sets.
                                    9343              * Pitfall is if data set is set to not update for owner. Ahhh!
                                    9344                       COMMENT                   CHECK ACCESS, IF OK, SET RACF=NO
 000404 58E0 759E/0DEE       006D8  9345                       ACALL CKACCESS
 00040A 4770 72D8            00412  9349                       IF    Z,BEGIN
 00040E 9610 6002      00002        9360  1                      SET   FFFNRACF
 000412                             9366                       END
                                    9370
                                    9371                       COMMENT                   IF PASSWORD GIVEN,
1WGS      (WGS2193) (13:01) (15MAR04) Release Wings work area                                                               Page   15
0Current Usings:  (WGSWA,R5) (FFINFO,R6) (*,R7) (CP,R11) (CV,R12)
0Loc    Object Code    Addr1 Addr2  Stmt Lv Lineno    Source Statement           (Hibal 5, Asmedit 3.3)  HLASM R4.0  2004/03/15 13.01
+___    ______ ____    _____ _____  ____ __ ______    ______ _________
0000412 9180 6002/47E0_00002        9372                       IF    FFFPASSW,BEGIN
 00041A 4110 75A2/4100_      006DC  9387  1                      SEG   ' PASSCHK=YES'
 00042C                             9404                       END
                                    9408
                                    9409                       COMMENT                   IF DIFFVOL OK,
 00042C 9140 6002/47E0_00002        9410                       IF    FFFDIFFV,BEGIN
 000434 4110 7683/4100_      007BD  9425  1                      SEG   ' VOLCHK=YES'
 000446                             9442                       END
                                    9446
                                    9447                       COMMENT                   IF CHANGE DSN FORMAT OK
 000446 9120 6002/47E0_00002        9448                       IF    FFFCHFMT,BEGIN
 00044E 4110 768E/4100_      007C8  9463  1                      SEG   ' CHANGFMT=YES'
 000460                             9480                       END
                                    9484
                                    9485                       COMMENT                   IF NORACF, SKIP RACF CHECK
 000460 9110 6002/47E0_00002        9486                       IF    FFFNRACF,BEGIN
 000468 4110 755E/4100_      00698  9501  1                      SEG   ' RACF=NO'
 00047A                             9518                       END
                                    9522
                                    9523                       COMMENT                   PROCESS OPTIONS
 00047A 58E0 B08C/D2AF_      0008C  9524                       SCPUSH ,
 000488 58E0 B08C/D7AF_      0008C  9530                       SCCLR
 000494 4110 6114/5800_      00114  9539                       SCINIT FFOPTS,L:FFOPTSL
 0004AA 5810 B08C/1B00_      0008C  9563                       SCAN  FILEOPTS
 0004FC 58E0 75B6/0DEE       006F0  9595                       SCANCHK                   * ERR EXIT TO CVNEXT INDIRECTLY
 000502 58E0 B08C/4BD0_      0008C  9600                       SCPOP ,
 000510 12FF/4780 73EA              9606                       IF    (R15,NZ),BEGIN
 000516 D207 B886 7566 00886 006A0  9620  1                      MVC   CPERRID,=CL8'SYNTAX'
 00051C 41F0 0004            00004  9621  1                      LA    R15,4
 000520 47F0 7526            00660  9622  1                      B     WPDONE
 000524                             9623                       END
                                    9627              *
                                    9628              * ** DEBUG ** (nnn) for BLKSIZE=xxx is UGLY !!!
                                    9629              * this must come after we scan the opts because we need (nnn) and
                                    9630              * lrecl to calcualte the blksize=lrecl*nnn.
                                    9631              *
                                    9632                       COMMENT                   BLOCKSIZE
 000524 D503 7536 5014_00670 00014  9633                       IF    ((WGSNREC,NE,0),AND,(WGSLRECL,NE,0)),BEGIN
 000538 1B00                        9668  1                      CLEAR R0
 00053A 5810 500C            0000C  9672  1                      L     R1,WGSLRECL
 00053E 5C00 5014            00014  9673  1                      M     R0,WGSNREC
 000542 5010 5010            00010  9674  1                      ST    R1,WGSBLKSI
 000546 4110 769B/4100_      007D5  9675  1                      SEG   ' BLKSIZE=',,WGSSG
 000558 1B00                        9692  1                      CLEAR R0
 00055A 5810 5010            00010  9696  1                      L     R1,WGSBLKSI
 00055E 41F0 5058/58E0_      00058  9697  1                      SEGDC (R1),(R0),WGSSG
 000568                             9717                       END
                                    9721              *
                                    9722              *  ** DEBUG ** lrecl=nn for recfm=f lrecl=nn is UGLY !!
                                    9723              *  not as ugly as (nnn) for BLKSIZE (see above) but still
                                    9724              *  ugly.  if we have lrecl and no recfm, we set recfm=f
                                    9725                       COMMENT                   DO IT
 000568 D503 7536 500C_00670 0000C  9726                       IF    ((WGSLRECL,NE,0),AND,(WGSRECFM,EQ,0)),BEGIN
 00057A 9640 5029      00029        9761  1                      SET   WGSFF
1WGS      (WGS2193) (13:01) (15MAR04) Release Wings work area                                                               Page   16
0Current Usings:  (WGSWA,R5) (FFINFO,R6) (*,R7) (CP,R11) (CV,R12)
0Loc    Object Code    Addr1 Addr2  Stmt Lv Lineno    Source Statement           (Hibal 5, Asmedit 3.3)  HLASM R4.0  2004/03/15 13.01
+___    ______ ____    _____ _____  ____ __ ______    ______ _________
000057E 4110 756E/4100_      006A8  9767  1                      SEG   ' RECFM=F',,WGSSG
 000590                             9784                       END
                                    9788
                                    9789                       COMMENT                   VALIDITY CHECK OPTIONS
                                    9790            C          IF    ((WGSFINT,OR,WGSFNUM,OR,WGSFSEQ),AND,
 000590 9120 502A/4710_0002A                                         (WGSFV,OR,WGSFEDIT)),BEGIN
 0005B8 4110 7602/4100_      0073C  9859  1                      ERROR 'NUMBER/INTEGER must be used with LRECL option.'
 0005C4                             9866                       END
                                    9870            C          IF    ((WGSFINT,OR,WGSFNUM,OR,WGSFSEQ),AND,
 0005C4 9120 502A/4710_0002A                                         (WGSLRECL,EQ,0)),BEGIN
 0005E6 9640 5029      00029        9928  1                      SET   WGSFF
 0005EA 4100 0050            00050  9934  1                      LA    R0,80
 0005EE 5000 500C            0000C  9935  1                      ST    R0,WGSLRECL
 0005F2 9502 6001/4770_00001        9936  1                      IF    FFFWRITE,BEGIN
 0005FA 4110 7630/4100_      0076A  9951  2                        SEG   ' RECFM=F LRECL=80 ',,WGSSG
 00060C                             9968  1                      END
 00060C                             9972                       END
                                    9976
                                    9977                       COMMENT
 00060C 58E0 75BA/0DEE       006F4  9978                       ACALL WPOPEN              OPEN PHYSICAL PATH
 000612 12FF/4780 74E6              9982                       IF    (R15,NZ),BEGIN
 000618 41F0 0004            00004  9996  1                      LA    R15,4
 00061C 47F0 7526            00660  9997  1                      B     WPDONE
 000620                             9998                       END
                                   10002
                                   10003                       COMMENT                   IF WRITE, WE DO NOT ALLOW ATTNS
                                   10004                       COMMENT                     AFTER PATH HAS OPENED
 000620 9502 6001/4780_00001       10005                       IF    (FFFWRITE,OR,FFFREPL,OR,FFFAPPD),BEGIN
 000638 5840 C1C8            001C8 10046  1                      L     R4,CVCURJCB
 00063C 9640 4062      00062       10047  1                      WITH  (JCB,R4),' SET JCBFNATN '  NO ATTN ALLOWED ON WRITES
 USING  JCB,R4
 DROP   JCB,R4
 000640                            10076                       END
                                   10080
                                   10081                       COMMENT                   NOW OPEN WINGS CONNECTION
                                   10082
                                   10083                       COMMENT                   WRITE FILE_OPEN: INFO
 000640 1B00/41F0 5058_            10084                       SEGWR ,,WGSSG
                                   10108
                                   10109                       COMMENT                   PROCESS OPEN RETURN
 00064C 58E0 75C2/0DEE       006FC 10110                       ACALL WRDOPEN
 000652 4780 7524            0065E 10114                       IF    NZ,BEGIN
 000656 41F0 0004            00004 10125  1                      LA    R15,4
 00065A 47F0 7526            00660 10126  1                      B     WPDONE
 00065E                            10127                       END
                                   10131
 00065E 1BFF                       10132                       CLEAR R15
                                   10136
 000660                            10137              WPDONE   LABEL ,
 000660 18D8/9808 D004_            10139                       PEND  ,
 DROP   *,R7
                                   10159
                                   10160                       QLTORG
1WGS      (WGS2193) (13:01) (15MAR04) Release Wings work area                                                               Page   17
0Current Usings:  (WGSWA,R5) (FFINFO,R6) (CP,R11) (CV,R12)
0Loc    Object Code    Addr1 Addr2  Stmt Lv Lineno    Source Statement           (Hibal 5, Asmedit 3.3)  HLASM R4.0  2004/03/15 13.01
+___    ______ ____    _____ _____  ____ __ ______    ______ _________
0                                  10218              *
                                   10219              *
                                   10220              *  WGSACCES - Test file access for USE
                                   10221              *
                                   10222              *  ON ENTRY:
                                   10223              *  FFINFO DSECT CONTAINS FILE NAME/FORMAT/OPTIONS AND
                                   10224              *  FILE SYSTEM INFORMATION.
                                   10225              *
                                   10226              *  ON EXIT:
                                   10227              *  R15=0, ALL OK - File can be accessed for use
                                   10228              *  R15=NZ, CPERRID CONTAINS ERROR
                                   10229              *
                                   10230              *  CAUTION!:
                                   10231              *  SOME SCANNING ERRORS EXIT VIA CVERROR
                                   10232              *  (THIS COULD BE CHANGED AND FIXED.)
                                   10233              *
                                   10234              *
 0007DE 50E0 D000/9008_      00000 10235              WGSACCES XPROC ,
 USING  *,R7
 0007F8 5860 BE54            00E54 10275                       L     R6,CPFINFOP
                                   10276                       USING FFINFO,R6
                                   10278
                                   10279                       COMMENT                   GET CLEAR WINGS WORKAREA
 0007FC 58E0 7410/0DEE       00C08 10280                       ACALL GETWA
 000802 1851                       10284                       LR    R5,R1
                                   10285                       USING WGSWA,R5
                                   10287
                                   10288                       COMMENT                   PASS OPEN INFO TO WINGS
                                   10289                       COMMENT
                                   10290
                                   10291                       COMMENT                   PASS NAME
 000804 D503 73C0 6214_00BB8 00214 10292                       IF    (FFRNAMEL,EQ,0),BEGIN
 00080E D207 B886 73C8 00886 00BC0 10310  1                      MVC   CPERRID,=CL8'NOFNAME'
 000814 41F0 0004            00004 10311  1                      LA    R15,4
 000818 47F0 7394            00B8C 10312  1                      B     WACSDONE
 00081C                            10313                       END
                                   10317                       COMMENT                   SEG FILE_OPEN:  NAME=<FILE NAME>
 00081C 5840 5050            00050 10318                       L     R4,WGWTBLK
 000820 D20F 4000 73D0 00000 00BC8 10319                       MVC   @R4(L'WGSBKHDR),=CL16'FILE_OPEN:      '
 000826 4110 7472/4100_      00C6A 10320                       SEG   'NAME=',,WGSSG
 000838 4110 6218/5800_      00218 10337                       SEG   FFRNAME,L:FFRNAMEL,WGSSG
                                   10364
 00084A 4110 7477/4100_      00C6F 10365                       SEG   ' REQTYPE=VERIFY NTYPE=EXACT',,WGSSG
                                   10382
 00085C 4110 7492/4100_      00C8A 10383                       SEG   ' VTYPE=',,WGSSG
 00086E 9502 6001/4770_00001       10400                       IF    FFFWRITE,BEGIN
 000876 4110 7499/4100_      00C91 10415  1                      SEG   'WRITE',,WGSSG
 000888                            10432                       END
 000888 7094/47F0 70AE_00888 00874 10436                       ELSEIF FFFREAD,BEGIN
 000894 4110 7418/4100_      00C10 10460  1                      SEG   'READ',,WGSSG
 0008A6                            10477                       END
 0008A6 70B2/47F0 70CC_008A6 00892 10481                       ELSEIF FFFAPPD,BEGIN
 0008B2 4110 7499/4100_      00C91 10505  1                      SEG   'WRITE',,WGSSG
 0008C4                            10522                       END
1WGS      (WGS2193) (13:01) (15MAR04) Release Wings work area                                                               Page   18
0Current Usings:  (WGSWA,R5) (FFINFO,R6) (*,R7) (CP,R11) (CV,R12)
0Loc    Object Code    Addr1 Addr2  Stmt Lv Lineno    Source Statement           (Hibal 5, Asmedit 3.3)  HLASM R4.0  2004/03/15 13.01
+___    ______ ____    _____ _____  ____ __ ______    ______ _________
00008C4 70D0/47F0 70EA_008C4 008B0 10526                       ELSEIF FFFREPL,BEGIN
 0008D0 4110 7499/4100_      00C91 10550  1                      SEG   'WRITE',,WGSSG
 0008E2                            10567                       END
 0008E2 70EE/47F0 7104 008E2 008CE 10571                       ELSE  BEGIN  DEFAULT IS READ
 0008E6 9201 6001      00001       10582  1                      SET   FFFREAD
 0008EA 4110 7418/4100_      00C10 10588  1                      SEG   'READ',,WGSSG
 0008FC                            10605                       END
                                   10609              *
                                   10610              *
                                   10611              * we do not check volume name here other than 6 char test.
                                   10612              * we let wings check it.  also we have a hack for adding
                                   10613              * the current volume (for 'sav *') when needed, yuck.
                                   10614              *
                                   10615                       COMMENT                   PROCESS 'ON VOLUME'
                                   10616                       COMMENT
 0008FC 58E0 741C/0DEE       00C14 10617                       ACALL CATHACK             IF VOL=CATLG, CLEAR IT
 000902 58E0 7420/0DEE       00C18 10621                       ACALL CVOLHACK            CHECK FOR 'SAVE *' CUR VOL HACK
 000908 D603 608C 608C_0008C 0008C 10625                       IF    (FFHOSTL,NZ),BEGIN
 000912 D503 7424 608C_00C1C 0008C 10641  1                      IF    (FFHOSTL,NE,6),BEGIN   ALLOW no host names
 00091C D207 B886 73E0 00886 00BD8 10659  2                        MVC   CPERRID,=CL8'INVVOL'
 000922 41F0 0004            00004 10660  2                        LA    R15,4
 000926 47F0 7394            00B8C 10661  2                        B     WACSDONE
 00092A                            10662  1                      END
 00092A 4110 749E/4100_      00C96 10666  1                      SEG   ' VOL='
 00093C 4110 6090/5800_      00090 10683  1                      SEG   FFHOST,L:FFHOSTL
 00094E                            10710                       END
                                   10714              *
                                   10715              * note:
                                   10716              * we check and allow NORACF for 'set account .. pass ..' data sets.
                                   10717              * Pitfall is if data set is set to not update for owner. Ahhh!
                                   10718                       COMMENT                   CHECK ACCESS, IF OK, SET RACF=NO
 00094E 58E0 7428/0DEE       00C20 10719                       ACALL CKACCESS
 000954 4770 7164            0095C 10723                       IF    Z,BEGIN
 000958 9610 6002      00002       10734  1                      SET   FFFNRACF
 00095C                            10740                       END
                                   10744
                                   10745                       COMMENT                   IF PASSWORD GIVEN,
 00095C 9180 6002/47E0_00002       10746                       IF    FFFPASSW,BEGIN
 000964 4110 742C/4100_      00C24 10761  1                      SEG   ' PASSCHK=YES'
 000976                            10778                       END
                                   10782
                                   10783                       COMMENT                   IF DIFFVOL OK,
 000976 9140 6002/47E0_00002       10784                       IF    FFFDIFFV,BEGIN
 00097E 4110 74A3/4100_      00C9B 10799  1                      SEG   ' VOLCHK=YES'
 000990                            10816                       END
                                   10820
                                   10821                       COMMENT                   IF NORACF, SKIP RACF CHECK
 000990 9110 6002/47E0_00002       10822                       IF    FFFNRACF,BEGIN
 000998 4110 73E8/4100_      00BE0 10837  1                      SEG   ' RACF=NO'
 0009AA                            10854                       END
                                   10858
                                   10859                       COMMENT                   PROCESS OPTIONS
 0009AA 58E0 B08C/D2AF_      0008C 10860                       SCPUSH ,
 0009B8 58E0 B08C/D7AF_      0008C 10866                       SCCLR
1WGS      (WGS2193) (13:01) (15MAR04) Release Wings work area                                                               Page   19
0Current Usings:  (WGSWA,R5) (FFINFO,R6) (*,R7) (CP,R11) (CV,R12)
0Loc    Object Code    Addr1 Addr2  Stmt Lv Lineno    Source Statement           (Hibal 5, Asmedit 3.3)  HLASM R4.0  2004/03/15 13.01
+___    ______ ____    _____ _____  ____ __ ______    ______ _________
00009C4 4110 6114/5800_      00114 10875                       SCINIT FFOPTS,L:FFOPTSL
 0009DA 5810 B08C/1B00_      0008C 10899                       SCAN  FILEOPTS
 000A2C 58E0 7440/0DEE       00C38 10931                       SCANCHK                   * ERR EXIT TO CVNEXT INDIRECTLY
 000A32 58E0 B08C/4BD0_      0008C 10936                       SCPOP ,
 000A40 12FF/4780 725C             10942                       IF    (R15,NZ),BEGIN
 000A46 D207 B886 73F0 00886 00BE8 10956  1                      MVC   CPERRID,=CL8'SYNTAX'
 000A4C 41F0 0004            00004 10957  1                      LA    R15,4
 000A50 47F0 7394            00B8C 10958  1                      B     WACSDONE
 000A54                            10959                       END
                                   10963
                                   10964                       COMMENT
 000A54 58E0 7444/0DEE       00C3C 10965                       ACALL WPOPEN              OPEN PHYSICAL PATH
 000A5A 12FF/4780 727A             10969                       IF    (R15,NZ),BEGIN
 000A60 41F0 B050/58E0_      00050 10983  1                      SEGCLR .CPSEG
 000A6A 41F0 0004            00004 10996  1                      LA    R15,4
 000A6E 47F0 7394            00B8C 10997  1                      B     WACSDONE
 000A72                            10998                       END
                                   11002
 000A72 5840 C1C8            001C8 11003                       L     R4,CVCURJCB
 000A76 9640 4062      00062       11004                       WITH  (JCB,R4),' SET JCBFNATN '  NO ATTN ALLOWED ON WRITES
 USING  JCB,R4
 DROP   JCB,R4
                                   11033
                                   11034                       COMMENT                   NOW OPEN WINGS CONNECTION
                                   11035
                                   11036                       COMMENT                   WRITE FILE_OPEN: INFO
 000A7A 1B00/41F0 5058_            11037                       SEGWR ,,WGSSG
                                   11061
                                   11062                       COMMENT                   PROCESS THE RETURN
 000A86 58E0 7450/0DEE       00C48 11063                       ACALL WPREAD
 000A8C 4780 72A0            00A98 11067                       IF    NZ,BEGIN
 000A90 41F0 0004            00004 11078  1                      LA    R15,4
 000A94 47F0 7394            00B8C 11079  1                      B     WACSDONE
 000A98                            11080                       END
                                   11084                       COMMENT                   CHECK FOR WINGS ERROR RETURN
 000A98 5900 7454/4750_      00C4C 11085                       IF    ((R0,GE,16),AND,(@R1,EQ,'FILE_ERROR:     ')),BEGIN
 000AAA 58E0 7458/0DEE       00C50 11117  1                      ACALL WRDERROR
 000AB0 41F0 B050/58E0_      00050 11121  1                      SEGCLR .CPSEG
 000ABA 41F0 0004            00004 11134  1                      LA    R15,4
 000ABE 47F0 7394            00B8C 11135  1                      B     WACSDONE
 000AC2                            11136                       END
                                   11140
                                   11141                       COMMENT
                                   11142            C          IF    ((R0,LT,L'WGSBKHDR),OR,
 000AC2 5900 745C/4740_      00C54                                   (@R1,NE,'FILE_VERIFY:   ')),BEGIN
 000AD4 D207 B886 7408 00886 00C00 11174  1                      MVC   CPERRID,=CL8'PATHERR'
 000ADA 41F0 0004            00004 11175  1                      LA    R15,4
 000ADE 47F0 7394            00B8C 11176  1                      B     WACSDONE
 000AE2                            11177                       END
                                   11181
                                   11182                       COMMENT                   SCAN/PROCESS RETURNS
 000AE2 4111 0010            00010 11183                       LA    R1,L'WGSBKHDR(R1)
 000AE6 5B00 7460            00C58 11184                       S     R0,=AL4(L'WGSBKHDR)
 000AEA 58E0 B08C/D2AF_      0008C 11185                       SCPUSH ,
1WGS      (WGS2193) (13:01) (15MAR04) Release Wings work area                                                               Page   20
0Current Usings:  (WGSWA,R5) (FFINFO,R6) (*,R7) (CP,R11) (CV,R12)
0Loc    Object Code    Addr1 Addr2  Stmt Lv Lineno    Source Statement           (Hibal 5, Asmedit 3.3)  HLASM R4.0  2004/03/15 13.01
+___    ______ ____    _____ _____  ____ __ ______    ______ _________
0000AF8 58E0 B08C/D7AF_      0008C 11191                       SCCLR
 000B04 58E0 B08C/501E_      0008C 11200                       SCINIT (R1),(R0)
 000B12 5810 B08C/1B00_      0008C 11220                       SCAN  WGSEPRT
 000B64 58E0 B08C/4BD0_      0008C 11252                       SCPOP ,
 000B72 12FF/4780 7392             11258                       IF    (R15,NZ),BEGIN
 000B78 41F0 B050/58E0_      00050 11272  1                      SEGCLR .CPSEG
 000B82 41F0 0004            00004 11285  1                      LA    R15,4
 000B86 47F0 7394            00B8C 11286  1                      B     WACSDONE
 000B8A                            11287                       END
                                   11291              *
                                   11292              *  Everything OK if we get here.
                                   11293              *
 000B8A 1BFF                       11294                       CLEAR R15
                                   11298
 000B8C                            11299              WACSDONE LABEL ,
 000B8C 50F0 D000/41D0_      00000 11301                       XPUSH R15
 000B94 58E0 7468/0DEE       00C60 11304                       ACALL WPCLOSE             CLOSE THE PATH
 000B9A 4BD0 7470/58F0_      00C68 11308                       XPOP  R15
 000BA2 5840 C1C8            001C8 11311                       L     R4,CVCURJCB
 000BA6 94BF 4062      00062       11312                       WITH  (JCB,R4),' CLEAR JCBFNATN '
 USING  JCB,R4
 DROP   JCB,R4
 000BAA 18D8/9808 D004_            11342                       PEND  ,
 DROP   *,R7
                                   11362
                                   11363                       QLTORG
1WGS      (WGS2193) (13:01) (15MAR04) Release Wings work area                                                               Page   21
0Current Usings:  (WGSWA,R5) (FFINFO,R6) (CP,R11) (CV,R12)
0Loc    Object Code    Addr1 Addr2  Stmt Lv Lineno    Source Statement           (Hibal 5, Asmedit 3.3)  HLASM R4.0  2004/03/15 13.01
+___    ______ ____    _____ _____  ____ __ ______    ______ _________
0                                  11415              *
                                   11416              *
                                   11417              *  WGSTRKS - Show space on volume
                                   11418              *
                                   11419              *  ON ENTRY:
                                   11420              *  FFINFO DSECT CONTAINS FILE NAME/FORMAT/OPTIONS AND
                                   11421              *  FILE SYSTEM INFORMATION.
                                   11422              *
                                   11423              *  ON EXIT:
                                   11424              *  R15=0, ALL OK - File can be accessed for use
                                   11425              *  R15=NZ, CPERRID CONTAINS ERROR
                                   11426              *
                                   11427              *  CAUTION!:
                                   11428              *  SOME SCANNING ERRORS EXIT VIA CVERROR
                                   11429              *  (THIS COULD BE CHANGED AND FIXED.)
                                   11430              *
                                   11431              *
 000CB6 50E0 D000/9008_      00000 11432              WGSTRKS  XPROC ,
 USING  *,R7
 000CD0 5860 BE54            00E54 11472                       L     R6,CPFINFOP
                                   11473                       USING FFINFO,R6
                                   11475
                                   11476                       COMMENT                   GET CLEAR WINGS WORKAREA
 000CD4 58E0 72F0/0DEE       00FC0 11477                       ACALL GETWA
 000CDA 1851                       11481                       LR    R5,R1
                                   11482                       USING WGSWA,R5
                                   11484
                                   11485                       COMMENT                   SEG FILE_LSPACE:  VOL=<VOLUME>
 000CDC 5840 5050            00050 11486                       L     R4,WGWTBLK
 000CE0 D20F 4000 72C8 00000 00F98 11487                       MVC   @R4(L'WGSBKHDR),=CL16'FILE_LSPACE:    '
                                   11488
 000CE6 4110 733A/4100_      0100A 11489                       SEG   ' VOL='
 000CF8 4110 6090/5800_      00090 11506                       SEG   FFHOST,L:FFHOSTL
                                   11533
                                   11534                       COMMENT
 000D0A 58E0 72F8/0DEE       00FC8 11535                       ACALL WPOPEN              OPEN PHYSICAL PATH
 000D10 12FF/4780 704E             11539                       IF    (R15,NZ),BEGIN
 000D16 41F0 0004            00004 11553  1                      LA    R15,4
 000D1A 47F0 7154            00E24 11554  1                      B     WTRKDONE
 000D1E                            11555                       END
                                   11559
 000D1E 5840 C1C8            001C8 11560                       L     R4,CVCURJCB
 000D22 9640 4062      00062       11561                       WITH  (JCB,R4),' SET JCBFNATN '  NO ATTN ALLOWED ON WRITES
 USING  JCB,R4
 DROP   JCB,R4
                                   11590
                                   11591                       COMMENT                   WRITE FILE_LSPACE: INFO
 000D26 1B00/41F0 5058_            11592                       SEGWR ,,WGSSG
                                   11616
                                   11617                       COMMENT                   PROCESS THE RETURN
 000D32 58E0 7300/0DEE       00FD0 11618                       ACALL WPREAD
 000D38 4780 7074            00D44 11622                       IF    NZ,BEGIN
 000D3C 41F0 0004            00004 11633  1                      LA    R15,4
 000D40 47F0 7154            00E24 11634  1                      B     WTRKDONE
1WGS      (WGS2193) (13:01) (15MAR04) Release Wings work area                                                               Page   22
0Current Usings:  (WGSWA,R5) (FFINFO,R6) (*,R7) (CP,R11) (CV,R12)
0Loc    Object Code    Addr1 Addr2  Stmt Lv Lineno    Source Statement           (Hibal 5, Asmedit 3.3)  HLASM R4.0  2004/03/15 13.01
+___    ______ ____    _____ _____  ____ __ ______    ______ _________
0000D44                            11635                       END
                                   11639
                                   11640                       COMMENT                   CHECK FOR WINGS ERROR RETURN
 000D44 5900 7304/4750_      00FD4 11641                       IF    ((R0,GE,16),AND,(@R1,EQ,'FILE_ERROR:     ')),BEGIN
 000D56 58E0 7308/0DEE       00FD8 11673  1                      ACALL WRDERROR
 000D5C 41F0 0004            00004 11677  1                      LA    R15,4
 000D60 47F0 7154            00E24 11678  1                      B     WTRKDONE
 000D64                            11679                       END
                                   11683
                                   11684                       COMMENT
                                   11685            C          IF    ((R0,LT,L'WGSBKHDR),OR,
 000D64 5900 730C/4740_      00FDC                                   (@R1,NE,'DATA:          ')),BEGIN
 000D76 D207 B886 72E8 00886 00FB8 11717  1                      MVC   CPERRID,=CL8'PATHERR'
 000D7C 41F0 0004            00004 11718  1                      LA    R15,4
 000D80 47F0 7154            00E24 11719  1                      B     WTRKDONE
 000D84                            11720                       END
                                   11724
                                   11725                       COMMENT                   SCAN/PROCESS RETURNS
 000D84 4111 0010            00010 11726                       LA    R1,L'WGSBKHDR(R1)
 000D88 5B00 7310            00FE0 11727                       S     R0,=AL4(L'WGSBKHDR)
 000D8C 58E0 B08C/D2AF_      0008C 11728                       SCPUSH ,
 000D9A 58E0 B08C/D7AF_      0008C 11734                       SCCLR
 000DA6 58E0 B08C/501E_      0008C 11743                       SCINIT (R1),(R0)
 000DB4 5810 B08C/1B00_      0008C 11763                       SCAN  WGSTPRT
 000E06 58E0 B08C/4BD0_      0008C 11795                       SCPOP ,
 000E14 12FF/4780 7152             11801                       IF    (R15,NZ),BEGIN
 000E1A 41F0 0004            00004 11815  1                      LA    R15,4
 000E1E 47F0 7154            00E24 11816  1                      B     WTRKDONE
 000E22                            11817                       END
                                   11821              *
                                   11822              *  Everything OK if we get here.
                                   11823              *
 000E22 1BFF                       11824                       CLEAR R15
                                   11828
 000E24                            11829              WTRKDONE LABEL ,
 000E24 50F0 D000/41D0_      00000 11831                       XPUSH R15
 000E2C 58E0 731C/0DEE       00FEC 11834                       ACALL WPCLOSE             CLOSE THE PATH
 000E32 58E0 7320/0DEE       00FF0 11838                       ACALL RLSWA
 000E38 4BD0 7338/58F0_      01008 11842                       XPOP  R15
 000E40 5840 C1C8            001C8 11845                       L     R4,CVCURJCB
 000E44 94BF 4062      00062       11846                       WITH  (JCB,R4),' CLEAR JCBFNATN '
 USING  JCB,R4
 DROP   JCB,R4
 000E48 18D8/9808 D004_            11876                       PEND  ,
 DROP   *,R7
                                   11896              *
                                   11897              *  We specially process the return message here
                                   11898              *  rather than using WGSEPRT because we need to
                                   11899              *  remove the volume name from the reply.
                                   11900              *
 000E58 D4E2C74040404040_          11901              WGSTPRT  SCKW  MSG,DOTRKMSG,P
 000E80 C5D9D9C4C1E3C140_          11916                       SCKW  ERRDATA,WRTERRDT,P
 000EA8 C9D5C6D6D4E2C740_          11931                       SCKW  INFOMSG,WRTIMSG,P
 000ED0 4040404040404040_          11946                       SCKW  ,WRTOTHER
1WGS      (WGS2193) (13:01) (15MAR04) Release Wings work area                                                               Page   23
0Current Usings:  (WGSWA,R5) (FFINFO,R6) (CP,R11) (CV,R12)
0Loc    Object Code    Addr1 Addr2  Stmt Lv Lineno    Source Statement           (Hibal 5, Asmedit 3.3)  HLASM R4.0  2004/03/15 13.01
+___    ______ ____    _____ _____  ____ __ ______    ______ _________
0                                  11961              *
                                   11962              *
 000000                00000 000EF 11963              TRKMSGWA RECORD BEGIN
 000000                            11971  1           TRKMSGL    DS    F
                                   11972  1           TRKMSG     DS    CL(&LINESZ)
 000004                                   1          +TRKMSG     DS    CL(235)
 0000EF                000EF 000EF 11973                       END
                                   11982              *
                                   11983              *
 000EF8 50E0 D000/9008_      00000 11984              DOTRKMSG PROC  TRKMSGWA
 USING  *,R7
 USING  TRKMSGWA-(4+36),R8
                                   12034                       COMMENT                   WRITE MESSAGE TO TERMINAL
 000F12 58F0 B08C/4110_      0008C 12035                       SCDQUOTE TRKMSG
 000F24 18F1                       12056                       LR    R15,R1
 000F26 1AF0                       12057                       AR    R15,R0
 000F28 06F0                       12058                       BCTR  R15,0
 000F2A 954E F000      00000       12059                       CLI   0(R15),C'+'         ADDITIONAL INFORMATION?
 000F2E 4770 7024            00F36 12060                       BNE   TRKMSGNP            NOPE
 000F32 5B00 70E6            00FF8 12061                       S     R0,=F'1'            TAKE OUT THE '+' SYMBOL
 000F36                            12062              TRKMSGNP LABEL ,
 000F36 5000 8028            00000 12064                       ST    R0,TRKMSGL
 000F3A D603 B05C B05C_0005C 0005C 12065                       TCCR  ,
 000F5A 4110 802C            00004 12127                       LA    R1,TRKMSG
 000F5E 4100 0006/41F0_      00006 12128                       TSEG  (R1),6,CR
 000F6C 5800 8028            00000 12155                       L     R0,TRKMSGL
 000F70 4110 802C            00004 12156                       LA    R1,TRKMSG
 000F74 5B00 70EE            01000 12157                       S     R0,=F'9'            Remove 'VOLNNN - '
 000F78 4110 1009            00009 12158                       LA    R1,9(,R1)
 000F7C 41F0 B050/58E0_      00050 12159                       TSEG  (R1),(R0)
 000F86 1BFF                       12183                       CLEAR R15
 000F88 18D8/9808 D004_            12187                       PEND  ,
 DROP   TRKMSGWA-(4+36),R8
 DROP   *,R7
                                   12212                       QLTORG
1WGS      (WGS2193) (13:01) (15MAR04) Release Wings work area                                                               Page   24
0Current Usings:  (WGSWA,R5) (FFINFO,R6) (CP,R11) (CV,R12)
0Loc    Object Code    Addr1 Addr2  Stmt Lv Lineno    Source Statement           (Hibal 5, Asmedit 3.3)  HLASM R4.0  2004/03/15 13.01
+___    ______ ____    _____ _____  ____ __ ______    ______ _________
0                                  12250              *
                                   12251              *
                                   12252              *  WGSCRTCH - WINGS SCRATCH
                                   12253              *
                                   12254              *  ON ENTRY:
                                   12255              *  FFINFO DSECT CONTAINS FILE NAME/FORMAT/OPTIONS AND
                                   12256              *  FILE SYSTEM INFORMATION.
                                   12257              *
                                   12258              *  ON EXIT:
                                   12259              *  R15=0, ALL OK
                                   12260              *  R15=NZ, CPERRID CONTAINS ERROR, MSG TSEG'D
                                   12261              *
                                   12262              *  CAUTION!:
                                   12263              *  SOME SCANNING ERRORS EXIT VIA CVERROR
                                   12264              *  (THIS COULD BE CHANGED AND FIXED.)
                                   12265              *
                                   12266              *
 00101E 50E0 D000/9008_      00000 12267              WGSCRTCH XPROC ,
 USING  *,R7
 001038 5860 BE54            00E54 12307                       L     R6,CPFINFOP
                                   12308                       USING FFINFO,R6
                                   12310
 00103C D503 7494 6214_014CC 00214 12311                       IF    (FFRNAMEL,EQ,0),BEGIN
 001046 D207 B886 7498 00886 014D0 12329  1                      MVC   CPERRID,=CL8'NOFNAME'
 00104C 4110 753C/4100_      01574 12330  1                      TSEG  'Missing file name.'
 00105E 41F0 0004            00004 12348  1                      LA    R15,4
 001062 47F0 733C            01374 12349  1                      B     WSCRDON1
 001066                            12350                       END
                                   12354
                                   12355                       COMMENT                   GET CLEAR WINGS WORKAREA
 001066 58E0 74D4/0DEE       0150C 12356                       ACALL GETWA
 00106C 1851                       12360                       LR    R5,R1
                                   12361                       USING WGSWA,R5
                                   12363
                                   12364                       COMMENT                   PASS SCRATCH INFO TO WINGS
                                   12365                       COMMENT                   PASS NAME
                                   12366                       COMMENT              SEG FILE_SCRATCH:  NAME=<FILE NAME>
 00106E 5840 5050            00050 12367                       L     R4,WGWTBLK
 001072 D20F 4000 74A0 00000 014D8 12368                       MVC   @R4(L'WGSBKHDR),=CL16'FILE_SCRATCH:   '
 001078 4110 7594/4100_      015CC 12369                       SEG   'NAME=',,WGSSG
 00108A 4110 6218/5800_      00218 12386                       SEG   FFRNAME,L:FFRNAMEL,WGSSG
                                   12413
                                   12414                       COMMENT                   SET NTYPE=EXACT
 00109C 4110 74D8/4100_      01510 12415                       SEG   ' NTYPE=EXACT',,WGSSG
                                   12432              *
                                   12433              *        COMMENT                   CURRENT NAME
                                   12434              *
                                   12435              *  USE PREVIOUS NAME ONLY IF WINGS OR OLDIBM TYPE
                                   12436              *  (IE. SAVE XX ON LINDY, WILL NOT PASS WINGS WITH CURRENT NAME)
                                   12437              *
                                   12438              *        IF    ((FFPTYPE,EQ,L'FFFWINGS),OR,
                                   12439              *              (FFPTYPE,EQ,L'FFFOLD)),BEGIN
                                   12440              *        IF    (FFPNAMEL,GT,0),BEGIN   SEND CURRENT NAME
                                   12441              *        SEG   ' CNAME=',,WGSSG
1WGS      (WGS2193) (13:01) (15MAR04) Release Wings work area                                                               Page   25
0Current Usings:  (WGSWA,R5) (FFINFO,R6) (*,R7) (CP,R11) (CV,R12)
0Loc    Object Code    Addr1 Addr2  Stmt Lv Lineno    Source Statement           (Hibal 5, Asmedit 3.3)  HLASM R4.0  2004/03/15 13.01
+___    ______ ____    _____ _____  ____ __ ______    ______ _________
0                                  12442              *        SEG   FFPNAME,L:FFPNAMEL,WGSSG
                                   12443              *        END
                                   12444              *        END
                                   12445              * we do not check volume name here other than 6 char test.
                                   12446              * we let wings check it.  also we have a hack for adding
                                   12447              * the current volume (for 'sav *') when needed, yuck.
                                   12448              *
                                   12449                       COMMENT                   PROCESS 'ON VOLUME'
                                   12450                       COMMENT
 0010AE 58E0 74E4/0DEE       0151C 12451                       ACALL CATHACK             IF VOL=CATLG, CLEAR IT
 0010B4 58E0 74E8/0DEE       01520 12455                       ACALL CVOLHACK            CHECK FOR 'SAVE *' CUR VOL HACK
 0010BA D603 608C 608C_0008C 0008C 12459                       IF    (FFHOSTL,NZ),BEGIN
 0010C4 D503 74EC 608C_01524 0008C 12475  1                      IF    (FFHOSTL,NE,6),BEGIN   ALLOW no host names
 0010CE 4110 6090/5800_      00090 12493  2                        TSEG  FFHOST,L:FFHOSTL
 0010E0 4110 754E/4100_      01586 12521  2                        TSEG  ': invalid volume name.'
 0010F2 41F0 0004            00004 12539  2                        LA    R15,4
 0010F6 47F0 7320            01358 12540  2                        B     WSCRDONE
 0010FA                            12541  1                      END
 0010FA 4110 7599/4100_      015D1 12545  1                      SEG   ' VOL=',,WGSSG
 00110C 4110 6090/5800_      00090 12562  1                      SEG   FFHOST,L:FFHOSTL,WGSSG
 00111E                            12589                       END
                                   12593
                                   12594                       COMMENT                   CHECK ACCESS, IF OK, SET RACF=NO
 00111E 58E0 74F0/0DEE       01528 12595                       ACALL CKACCESS
 001124 4770 70F4            0112C 12599                       IF    Z,BEGIN
 001128 9610 6002      00002       12610  1                      SET   FFFNRACF
 00112C                            12616                       END
                                   12620
                                   12621                       COMMENT                   IF PASSWORD GIVEN,
 00112C 9180 6002/47E0_00002       12622                       IF    FFFPASSW,BEGIN
 001134 4110 74F4/4100_      0152C 12637  1                      SEG   ' PASSCHK=YES',,WGSSG
 001146                            12654                       END
                                   12658
                                   12659                       COMMENT                   IF NORACF, SKIP RACF CHECK
 001146 9110 6002/47E0_00002       12660                       IF    FFFNRACF,BEGIN
 00114E 4110 74B0/4100_      014E8 12675  1                      SEG   ' RACF=NO',,WGSSG
 001160                            12692                       END
                                   12696
                                   12697                       COMMENT                   IF PDS SPECIFIED,
 001160 9108 6002/47E0_00002       12698                       IF    FFFPDS,BEGIN
 001168 4110 759E/4100_      015D6 12713  1                      SEG   ' WHOLEPDS=YES',,WGSSG
 00117A                            12730                       END
                                   12734
                                   12735                       COMMENT                   PROCESS OPTIONS
 00117A 58E0 B08C/D2AF_      0008C 12736                       SCPUSH ,
 001188 58E0 B08C/D7AF_      0008C 12742                       SCCLR
 001194 4110 6114/5800_      00114 12751                       SCINIT FFOPTS,L:FFOPTSL
 0011AA 5810 B08C/1B00_      0008C 12775                       SCAN  SCRTOPTS
 0011FC 58E0 7508/0DEE       01540 12807                       SCANCHK                   * ERR EXIT TO CVNEXT INDIRECTLY
 001202 58E0 B08C/4BD0_      0008C 12812                       SCPOP ,
 001210 12FF/4780 71EC             12818                       IF    (R15,NZ),BEGIN
 001216 D207 B886 74B8 00886 014F0 12832  1                      MVC   CPERRID,=CL8'SYNTAX'
 00121C 41F0 0004            00004 12833  1                      LA    R15,4
 001220 47F0 7320            01358 12834  1                      B     WSCRDONE
1WGS      (WGS2193) (13:01) (15MAR04) Release Wings work area                                                               Page   26
0Current Usings:  (WGSWA,R5) (FFINFO,R6) (*,R7) (CP,R11) (CV,R12)
0Loc    Object Code    Addr1 Addr2  Stmt Lv Lineno    Source Statement           (Hibal 5, Asmedit 3.3)  HLASM R4.0  2004/03/15 13.01
+___    ______ ____    _____ _____  ____ __ ______    ______ _________
0001224                            12835                       END
                                   12839                       COMMENT
 001224 58E0 750C/0DEE       01544 12840                       ACALL WPOPEN              OPEN PHYSICAL PATH
 00122A 12FF/4780 7200             12844                       IF    (R15,NZ),BEGIN
 001230 41F0 0004            00004 12858  1                      LA    R15,4
 001234 47F0 7320            01358 12859  1                      B     WSCRDONE
 001238                            12860                       END
                                   12864
 001238 5840 C1C8            001C8 12865                       L     R4,CVCURJCB
 00123C 9640 4062      00062       12866                       WITH  (JCB,R4),' SET JCBFNATN '  NO ATTN ALLOWED ON SCRATCH
 USING  JCB,R4
 DROP   JCB,R4
                                   12895
                                   12896                       COMMENT                   NOW OPEN WINGS CONNECTION
                                   12897
                                   12898                       COMMENT                   SEND THE SCRATCH COMMAND
 001240 1B00/41F0 5058_            12899                       SEGWR ,,WGSSG
                                   12923
                                   12924                       COMMENT                   PROCESS THE RETURN
 00124C 58E0 7514/0DEE       0154C 12925                       ACALL WPREAD
 001252 4780 7226            0125E 12929                       IF    NZ,BEGIN
 001256 41F0 0004            00004 12940  1                      LA    R15,4
 00125A 47F0 7320            01358 12941  1                      B     WSCRDONE
 00125E                            12942                       END
                                   12946                       COMMENT                   CHECK FOR WINGS ERROR RETURN
 00125E 5900 7518/4750_      01550 12947                       IF    ((R0,GE,16),AND,(@R1,EQ,'FILE_ERROR:     ')),BEGIN
 001270 58E0 751C/0DEE       01554 12979  1                      ACALL WRDERROR
 001276 41F0 0004            00004 12983  1                      LA    R15,4
 00127A 47F0 7320            01358 12984  1                      B     WSCRDONE
 00127E                            12985                       END
                                   12989
                                   12990                       COMMENT
                                   12991            C          IF    ((R0,LT,L'WGSBKHDR),OR,
 00127E 5900 7520/4740_      01558                                   (@R1,NE,'FILE_SCRATCH:  ')),BEGIN
 001290 58E0 7524/0DEE       0155C 13023  1                      VCALL LOGCMD
 001296 1BFF                       13027  1                      CLEAR R15
 001298 58E0 7528/0DEE       01560 13031  1                      VCALL LOGEVENT
 00129E 4110 7568/4100_      015A0 13035  1                      TSEG  'WINGS path error.  Unable to scratch file.'
 0012B0 41F0 0004            00004 13053  1                      LA    R15,4
 0012B4 47F0 7320            01358 13054  1                      B     WSCRDONE
 0012B8                            13055                       END
                                   13059
                                   13060                       COMMENT                   SCAN/PROCESS RETURNS
 0012B8 4111 0010            00010 13061                       LA    R1,L'WGSBKHDR(R1)
 0012BC 5B00 752C            01564 13062                       S     R0,=AL4(L'WGSBKHDR)
 0012C0 58E0 B08C/D2AF_      0008C 13063                       SCPUSH ,
 0012CE 58E0 B08C/D7AF_      0008C 13069                       SCCLR
 0012DA 58E0 B08C/501E_      0008C 13078                       SCINIT (R1),(R0)
 0012E8 5810 B08C/1B00_      0008C 13098                       SCAN  WGSEPRT
 00133A 58E0 B08C/4BD0_      0008C 13130                       SCPOP ,
 001348 12FF/4780 731E             13136                       IF    (R15,NZ),BEGIN      BAD OPTION ON SCRATCH
 00134E 41F0 0004            00004 13150  1                      LA    R15,4
 001352 47F0 7320            01358 13151  1                      B     WSCRDONE
 001356                            13152                       END
1WGS      (WGS2193) (13:01) (15MAR04) Release Wings work area                                                               Page   27
0Current Usings:  (WGSWA,R5) (FFINFO,R6) (*,R7) (CP,R11) (CV,R12)
0Loc    Object Code    Addr1 Addr2  Stmt Lv Lineno    Source Statement           (Hibal 5, Asmedit 3.3)  HLASM R4.0  2004/03/15 13.01
+___    ______ ____    _____ _____  ____ __ ______    ______ _________
0                                  13156              *
                                   13157              *  Everything OK if we get here.
                                   13158              *
 001356 1BFF                       13159                       CLEAR R15
                                   13163
 001358                            13164              WSCRDONE LABEL ,
 001358 50F0 D000/41D0_      00000 13166                       XPUSH R15
 001360 58E0 7534/0DEE       0156C 13169                       ACALL WPCLOSE             CLOSE THE PATH
 001366 58E0 7538/0DEE       01570 13173                       ACALL RLSWA
 00136C 4BD0 7592/58F0_      015CA 13177                       XPOP  R15
 001374 5840 C1C8            001C8 13180              WSCRDON1 L     R4,CVCURJCB
 001378 94BF 4062      00062       13181                       WITH  (JCB,R4),' CLEAR JCBFNATN '
 USING  JCB,R4
 DROP   JCB,R4
 00137C 18D8/9808 D004_            13211                       PEND  ,
 DROP   *,R7
                                   13231
 00138C 4040404040404040_          13232              SCRTOPTS SCKW ,VOLPSH,PUSH
 0013B4 4040404040404040_          13247                       SCKW ,NACCTPSH,PUSH
 0013DC 4040404040404040_          13262                       SCKW ,CATPSH,PUSH
 001404 D9C5E3C1C9D54040_          13277                       SCKW RETAIN,WSNRTAIN,A
 00142C D5D6D9C5E3C1C9D5_          13292                       SCKW NORETAIN,WSNNRTN,A
 001454 C5E7D7C4E3404040_          13307                       SCKW EXPDT,WSNEXPDT,A
 00147C C5D9C1E2C5404040_          13322                       SCKW ERASE,WSNERASE,A
 0014A4 4040404040404040_          13337                       SCKW ,V(NOTVALID)
                                   13352
                                   13353                       QLTORG
1WGS      (WGS2193) (13:01) (15MAR04) Release Wings work area                                                               Page   28
0Current Usings:  (WGSWA,R5) (FFINFO,R6) (CP,R11) (CV,R12)
0Loc    Object Code    Addr1 Addr2  Stmt Lv Lineno    Source Statement           (Hibal 5, Asmedit 3.3)  HLASM R4.0  2004/03/15 13.01
+___    ______ ____    _____ _____  ____ __ ______    ______ _________
0                                  13405              *
                                   13406              *
                                   13407              *  WGSRENAM - WINGS RENAME
                                   13408              *
                                   13409              *  ON ENTRY:
                                   13410              *  FFINFO DSECT CONTAINS FILE NAME/FORMAT/OPTIONS AND
                                   13411              *  FILE SYSTEM INFORMATION. The current file name is
                                   13412              *  in the FFNAME field and the new name is in the FFRNAME
                                   13413              *  field. Both names are fully-qulaified.
                                   13414              *
                                   13415              *  ON EXIT:
                                   13416              *  R15=0, ALL OK
                                   13417              *  R15=NZ, CPERRID CONTAINS ERROR, MSG TSEG'D
                                   13418              *
                                   13419              *  CAUTION!:
                                   13420              *  SOME SCANNING ERRORS EXIT VIA CVERROR
                                   13421              *  (THIS COULD BE CHANGED AND FIXED.)
                                   13422              *
                                   13423              *
 0015F2 50E0 D000/9008_      00000 13424              WGSRENAM XPROC ,
 USING  *,R7
 00160C 5860 BE54            00E54 13464                       L     R6,CPFINFOP
                                   13465                       USING FFINFO,R6
                                   13467
 001610 D503 7398 6214_019A4 00214 13468                       IF    (FFRNAMEL,EQ,0),BEGIN
 00161A D207 B886 739C 00886 019A8 13486  1                      MVC   CPERRID,=CL8'NOFNAME'
 001620 4110 7434/4100_      01A40 13487  1                      TSEG  'Missing file name.'
 001632 41F0 0004            00004 13505  1                      LA    R15,4
 001636 47F0 7332            0193E 13506  1                      B     WRENDON1
 00163A                            13507                       END
                                   13511
                                   13512                       COMMENT                   GET CLEAR WINGS WORKAREA
 00163A 58E0 73D8/0DEE       019E4 13513                       ACALL GETWA
 001640 1851                       13517                       LR    R5,R1
                                   13518                       USING WGSWA,R5
                                   13520
                                   13521                       COMMENT                   PASS RENAME INFO TO WINGS
                                   13522                       COMMENT
                                   13523
                                   13524                       COMMENT                   PASS NAME
                                   13525                       COMMENT              SEG FILE_RENAME:  NAME=<FILE NAME>
 001642 5840 5050            00050 13526                       L     R4,WGWTBLK
 001646 D20F 4000 73A4 00000 019B0 13527                       MVC   @R4(L'WGSBKHDR),=CL16'FILE_RENAME:    '
 00164C 4110 7462/4100_      01A6E 13528                       SEG   'NAME=',,WGSSG
 00165E 4110 600C/5800_      0000C 13545                       SEG   FFNAME,L:FFNAMEL,WGSSG
                                   13572
 001670 58E0 73DC/0DEE       019E8 13573                       ACALL CATHACK             IF VOL=CATLG, CLEAR IT
 001676 D603 608C 608C_0008C 0008C 13577                       IF    (FFHOSTL,NZ),BEGIN
 001680 D503 73E0 608C_019EC 0008C 13593  1                      IF    (FFHOSTL,NE,6),BEGIN   ALLOW no host names
 00168A 4110 6090/5800_      00090 13611  2                        TSEG  FFHOST,L:FFHOSTL
 00169C 4110 7446/4100_      01A52 13639  2                        TSEG  ': invalid volume name.'
 0016AE 41F0 0004            00004 13657  2                        LA    R15,4
 0016B2 47F0 7316            01922 13658  2                        B     WRENDONE
 0016B6                            13659  1                      END
1WGS      (WGS2193) (13:01) (15MAR04) Release Wings work area                                                               Page   29
0Current Usings:  (WGSWA,R5) (FFINFO,R6) (*,R7) (CP,R11) (CV,R12)
0Loc    Object Code    Addr1 Addr2  Stmt Lv Lineno    Source Statement           (Hibal 5, Asmedit 3.3)  HLASM R4.0  2004/03/15 13.01
+___    ______ ____    _____ _____  ____ __ ______    ______ _________
00016B6 4110 7467/4100_      01A73 13663  1                      SEG   ' VOL='
 0016C8 4110 6090/5800_      00090 13680  1                      SEG   FFHOST,L:FFHOSTL
 0016DA                            13707                       END
                                   13711
 0016DA 4110 746C/4100_      01A78 13712                       SEG   ' NEWNAME=',,WGSSG
 0016EC 4110 6218/5800_      00218 13729                       SEG   FFRNAME,L:FFRNAMEL,WGSSG
                                   13756
                                   13757                       COMMENT                   SET NTYPE=EXACT
 0016FE 4110 73E4/4100_      019F0 13758                       SEG   ' NTYPE=EXACT',,WGSSG
                                   13775
                                   13776                       COMMENT                   CHECK ACCESS, IF OK, SET RACF=NO
 001710 58E0 73F0/0DEE       019FC 13777                       ACALL CKACCESS
 001716 4770 7112            0171E 13781                       IF    Z,BEGIN
 00171A 9610 6002      00002       13792  1                      SET   FFFNRACF
 00171E                            13798                       END
                                   13802
                                   13803                       COMMENT                   IF PASSWORD GIVEN,
 00171E 9180 6002/47E0_00002       13804                       IF    FFFPASSW,BEGIN
 001726 4110 73F4/4100_      01A00 13819  1                      SEG   ' PASSCHK=YES',,WGSSG
 001738                            13836                       END
                                   13840
                                   13841                       COMMENT                   IF NORACF, SKIP RACF CHECK
 001738 9110 6002/47E0_00002       13842                       IF    FFFNRACF,BEGIN
 001740 4110 73B4/4100_      019C0 13857  1                      SEG   ' RACF=NO',,WGSSG
 001752                            13874                       END
                                   13878
                                   13879                       COMMENT                   PROCESS OPTIONS
 001752 58E0 B08C/D2AF_      0008C 13880                       SCPUSH ,
 001760 58E0 B08C/D7AF_      0008C 13886                       SCCLR
 00176C 4110 6114/5800_      00114 13895                       SCINIT FFOPTS,L:FFOPTSL
 001782 5810 B08C/1B00_      0008C 13919                       SCAN  RENOPTS
 0017D4 58E0 7408/0DEE       01A14 13951                       SCANCHK                   * ERR EXIT TO CVNEXT INDIRECTLY
 0017DA 58E0 B08C/4BD0_      0008C 13956                       SCPOP ,
 0017E8 12FF/4780 71F0             13962                       IF    (R15,NZ),BEGIN
 0017EE D207 B886 73BC 00886 019C8 13976  1                      MVC   CPERRID,=CL8'SYNTAX'
 0017F4 41F0 0004            00004 13977  1                      LA    R15,4
 0017F8 47F0 7316            01922 13978  1                      B     WRENDONE
 0017FC                            13979                       END
                                   13983                       COMMENT
 0017FC 58E0 740C/0DEE       01A18 13984                       ACALL WPOPEN              OPEN PHYSICAL PATH
 001802 12FF/4780 7204             13988                       IF    (R15,NZ),BEGIN
 001808 41F0 0004            00004 14002  1                      LA    R15,4
 00180C 47F0 7316            01922 14003  1                      B     WRENDONE
 001810                            14004                       END
                                   14008
 001810 5840 C1C8            001C8 14009                       L     R4,CVCURJCB
 001814 9640 4062      00062       14010                       WITH  (JCB,R4),' SET JCBFNATN '  NO ATTN ALLOWED
 USING  JCB,R4
 DROP   JCB,R4
                                   14039
                                   14040                       COMMENT                   NOW OPEN WINGS CONNECTION
                                   14041
                                   14042                       COMMENT                   SEND THE COMMAND
 001818 1B00/41F0 5058_            14043                       SEGWR ,,WGSSG
1WGS      (WGS2193) (13:01) (15MAR04) Release Wings work area                                                               Page   30
0Current Usings:  (WGSWA,R5) (FFINFO,R6) (*,R7) (CP,R11) (CV,R12)
0Loc    Object Code    Addr1 Addr2  Stmt Lv Lineno    Source Statement           (Hibal 5, Asmedit 3.3)  HLASM R4.0  2004/03/15 13.01
+___    ______ ____    _____ _____  ____ __ ______    ______ _________
0                                  14067
                                   14068                       COMMENT                   PROCESS THE RETURN
 001824 58E0 7414/0DEE       01A20 14069                       ACALL WPREAD
 00182A 4780 722A            01836 14073                       IF    NZ,BEGIN
 00182E 41F0 0004            00004 14084  1                      LA    R15,4
 001832 47F0 7316            01922 14085  1                      B     WRENDONE
 001836                            14086                       END
                                   14090                       COMMENT                   CHECK FOR WINGS ERROR RETURN
 001836 5900 7418/4750_      01A24 14091                       IF    ((R0,GE,16),AND,(@R1,EQ,'FILE_ERROR:     ')),BEGIN
 001848 58E0 741C/0DEE       01A28 14123  1                      ACALL WRDERROR
 00184E 41F0 0004            00004 14127  1                      LA    R15,4
 001852 47F0 7316            01922 14128  1                      B     WRENDONE
 001856                            14129                       END
                                   14133
                                   14134                       COMMENT
                                   14135            C          IF    ((R0,LT,L'WGSBKHDR),OR,
 001856 5900 7420/4740_      01A2C                                   (@R1,NE,'FILE_RENAME:   ')),BEGIN
 001868 4110 7484/4100_      01A90 14167  1                      TSEG  'WINGS path error.  Unable to rename file.'
 00187A 41F0 0004            00004 14185  1                      LA    R15,4
 00187E 47F0 7316            01922 14186  1                      B     WRENDONE
 001882                            14187                       END
                                   14191
                                   14192                       COMMENT                   SCAN/PROCESS RETURNS
 001882 4111 0010            00010 14193                       LA    R1,L'WGSBKHDR(R1)
 001886 5B00 7424            01A30 14194                       S     R0,=AL4(L'WGSBKHDR)
 00188A 58E0 B08C/D2AF_      0008C 14195                       SCPUSH ,
 001898 58E0 B08C/D7AF_      0008C 14201                       SCCLR
 0018A4 58E0 B08C/501E_      0008C 14210                       SCINIT (R1),(R0)
 0018B2 5810 B08C/1B00_      0008C 14230                       SCAN  WGSEPRT
 001904 58E0 B08C/4BD0_      0008C 14262                       SCPOP ,
 001912 12FF/4780 7314             14268                       IF    (R15,NZ),BEGIN      BAD OPTION
 001918 41F0 0004            00004 14282  1                      LA    R15,4
 00191C 47F0 7316            01922 14283  1                      B     WRENDONE
 001920                            14284                       END
                                   14288              *
                                   14289              *  Everything OK if we get here.
                                   14290              *
 001920 1BFF                       14291                       CLEAR R15
                                   14295
 001922                            14296              WRENDONE LABEL ,
 001922 50F0 D000/41D0_      00000 14298                       XPUSH R15
 00192A 58E0 742C/0DEE       01A38 14301                       ACALL WPCLOSE             CLOSE THE PATH
 001930 58E0 7430/0DEE       01A3C 14305                       ACALL RLSWA
 001936 4BD0 7460/58F0_      01A6C 14309                       XPOP  R15
 00193E 5840 C1C8            001C8 14312              WRENDON1 L     R4,CVCURJCB
 001942 94BF 4062      00062       14313                       WITH  (JCB,R4),' CLEAR JCBFNATN '
 USING  JCB,R4
 DROP   JCB,R4
 001946 18D8/9808 D004_            14343                       PEND  ,
 DROP   *,R7
                                   14363
 001954 4040404040404040_          14364              RENOPTS  SCKW ,NACCTPSH,PUSH
 00197C 4040404040404040_          14379                       SCKW ,V(NOTVALID)
                                   14394
1WGS      (WGS2193) (13:01) (15MAR04) Release Wings work area                                                               Page   31
0Current Usings:  (WGSWA,R5) (FFINFO,R6) (CP,R11) (CV,R12)
0Loc    Object Code    Addr1 Addr2  Stmt Lv Lineno    Source Statement           (Hibal 5, Asmedit 3.3)  HLASM R4.0  2004/03/15 13.01
+___    ______ ____    _____ _____  ____ __ ______    ______ _________
0                                  14395                       QLTORG
1WGS      (WGS2193) (13:01) (15MAR04) Release Wings work area                                                               Page   32
0Current Usings:  (WGSWA,R5) (FFINFO,R6) (CP,R11) (CV,R12)
0Loc    Object Code    Addr1 Addr2  Stmt Lv Lineno    Source Statement           (Hibal 5, Asmedit 3.3)  HLASM R4.0  2004/03/15 13.01
+___    ______ ____    _____ _____  ____ __ ______    ______ _________
0                                  14444              *
                                   14445              *  PGAPPEND - Append indicated line to current Page A
                                   14446              *
                                   14447              *  This routine is used by the various SHOW routines to
                                   14448              *  append the indicated display line coming back from the
                                   14449              *  Wings server to the current page in the Page A register.
                                   14450              *
                                   14451              *  On entry:
                                   14452              *     R1,R0 hold the location and length of the line
                                   14453              *     PAR   points to the page
                                   14454              *
                                   14455              *     Note: Since a 0 length line cannot be stored on
                                   14456              *           the page, this routine will store a line
                                   14457              *           consisting of 1 blank if R0 is 0 on input.
                                   14458              *
                                   14459              *
                                   14460              *  On exit:
                                   14461              *     R15=0 Line appended successfully
                                   14462              *     R15=NZ Not enough space on page
                                   14463              *
 001ABA 50E0 D000/9008_      00000 14464              PGAPPEND PROC ,
 USING  *,R7
 001AD4 9001 D000/41D0_      00000 14503                       XPUSH R0,R1
 001ADC 1200/4770 7016             14506                       IF    (R0,Z),BEGIN
 001AE2 4100 0001            00001 14520  1                      LA    R0,1
 001AE6 4110 C4D8            004D8 14521  1                      LA    R1,CVBLANKS
 001AEA                            14522                       END
 001AEA 4830 9000            00000 14526                       LH    R3,@PAR             Get count on page now
 001AEE 1A30                       14527                       AR    R3,R0
 001AF0 5930 707C            01B50 14528                       C     R3,=A(CVPSZ-3)      That's how much there is
 001AF4 4730 705C            01B30 14529                       IF    LE,BEGIN
 001AF8 4830 9000            00000 14540  1                      LH    R3,@PAR             Amount currently on page
 001AFC 4129 3001            00001 14541  1                      LA    R2,@R3+1(PAR)       Convert offset to address
 001B00 1A30                       14542  1                      AR    R3,R0
 001B02 4130 3001            00001 14543  1                      LA    R3,@R3+1            Store the new count
 001B06 4030 9000            00000 14544  1                      STH   R3,@PAR
 001B0A 1830                       14545  1                      LR    R3,R0
 001B0C 1200/47D0 7044             14546  1                      IF    (R0,P),BEGIN
 001B12 0630/4430 7086_            14560  2                        DEX   R3,'MVC @R2+1(0),@R1'  Move the message in
 001B18                            14579  1                      END
 001B18 4130 3001            00001 14583  1                      LA    R3,@R3+1            Prefix message with
 001B1C 4230 2000            00000 14584  1                      STC   R3,@R2                 a count field.
 001B20 4132 3001            00001 14585  1                      LA    R3,@R3+1(R2)
 001B24 9200 3000      00000       14586  1                      MVI   @R3,0               Store an end flag
 001B28 58E0 7080/0DEE       01B54 14587  1                      PMARK PAR                  and mark the page as changed
 001B2E 1BFF                       14592  1                      CLEAR R15                 All ok
 001B30                            14596                       END
 001B30 7060/47F0 7064 01B30 01AF6 14600                       ELSE  BEGIN
 001B34 41F0 0004            00004 14611  1                      LA    R15,4               Insufficient space
 001B38                            14612                       END
 001B38 4BD0 7084/9801_      01B58 14616                       XPOP  R0,R1
 001B40 18D8/9808 D004_            14619                       PEND ,
 DROP   *,R7
                                   14639                       QLTORG
1WGS      (WGS2193) (13:01) (15MAR04) Release Wings work area                                                               Page   33
0Current Usings:  (WGSWA,R5) (FFINFO,R6) (CP,R11) (CV,R12)
0Loc    Object Code    Addr1 Addr2  Stmt Lv Lineno    Source Statement           (Hibal 5, Asmedit 3.3)  HLASM R4.0  2004/03/15 13.01
+___    ______ ____    _____ _____  ____ __ ______    ______ _________
0                                  14655              *
                                   14656              *  PGRELS   - Release all pages in a page array
                                   14657              *
                                   14658              *  This routine is called to release all the pages in an array
                                   14659              *  of pages. It's called by the SHOW commands.
                                   14660              *
                                   14661              *  On entry:
                                   14662              *   R0 - Contains the number of items in the array
                                   14663              *   R1 - Points to the array of page identifiers
                                   14664              *
                                   14665              *  On output:
                                   14666              *   Pages released.
                                   14667              *
 001B60 50E0 D000/9008_      00000 14668              PGRELS   PROC  ,
 USING  *,R7
 001B7A 1200/47D0 7032             14707                       IF    (R0,P),BEGIN
 001B80 1840                       14721  1                      LR    R4,R0
 001B82 1851                       14722  1                      LR    R5,R1
 001B84 1B33                       14723  1                      CLEAR R3
 001B86 1934/47B0 7032             14727  1                      WHILE (R3,LT,R4),BEGIN
 001B8C 1813                       14744  2                        LR    R1,R3
 001B8E 8910 0002            00002 14745  2                        SLL   R1,2
 001B92 5821 5000            00000 14746  2                        L     R2,0(R1,R5)
 001B96 1802/58E0 7046_            14747  2                        PGET  PAR,(R2)
 001B9E 58E0 704A/0DEE       01BC4 14756  2                        PFREE PAR,EMPTY
 001BA4 4130 3001            00001 14762  2                        LA    R3,1(,R3)
 001BA8 47F0 700C            01B86 14763  1                      END
 001BAC                            14768                       END
 001BAC 18D8/9808 D004_            14772                       PEND  ,
 DROP   *,R7
                                   14792                       QLTORG
1WGS      (WGS2193) (13:01) (15MAR04) Show directory                                                                        Page   34
0Current Usings:  (WGSWA,R5) (FFINFO,R6) (CP,R11) (CV,R12)
0Loc    Object Code    Addr1 Addr2  Stmt Lv Lineno    Source Statement           (Hibal 5, Asmedit 3.3)  HLASM R4.0  2004/03/15 13.01
+___    ______ ____    _____ _____  ____ __ ______    ______ _________
0                                  14808              *
                                   14809              *  WGSHODIR - WINGS SHO DIRECTORY
                                   14810              *
                                   14811              *  ON ENTRY:
                                   14812              *  FFINFO DSECT CONTAINS FILE NAME/OPTIONS AND
                                   14813              *  FILE SYSTEM INFORMATION.
                                   14814              *  R1  Point to show directory argument and
                                   14815              *      return block.
                                   14816              *
                                   14817              *  ON EXIT:
                                   14818              *  R15=0, ALL OK
                                   14819              *  R15=4 CPERRID CONTAINS ERROR, MSG TSEG'D
                                   14820              *  R15 = 8 ALL OK, BUT WE RAN OUT OF PAGES TO HOLD
                                   14821              *        THE OUTPUT SO THE DIRECTORY LISTING IS
                                   14822              *        NOT COMPLETE.
                                   14823              *
                                   14824              *  CAUTION!:
                                   14825              *  SOME SCANNING ERRORS EXIT VIA CVERROR
                                   14826              *  (THIS COULD BE CHANGED AND FIXED.)
                                   14827              *
                                   14828              *
 001BC8 50E0 D000/9008_      00000 14829              WGSHODIR XPROC ,
 USING  *,R7
 001BE2 1841                       14869                       LR    R4,R1               Save pointer to args
 001BE4 5860 BE54            00E54 14870                       L     R6,CPFINFOP
                                   14871                       USING FFINFO,R6
                                   14873
 001BE8 D503 766E 6214_02250 00214 14874                       IF    (FFRNAMEL,EQ,0),BEGIN
 001BF2 D207 B886 7676 00886 02258 14892  1                      MVC   CPERRID,=CL8'NOFNAME'
 001BF8 4110 771E/4100_      02300 14893  1                      TSEG  'Missing file name.'
 001C0A 41F0 0004            00004 14911  1                      LA    R15,4
 001C0E 47F0 75DE            021C0 14912  1                      B     WDIRDON1
 001C12                            14913                       END
                                   14917
                                   14918                       COMMENT                   GET CLEAR WINGS WORKAREA
 001C12 58E0 76BA/0DEE       0229C 14919                       ACALL GETWA
 001C18 1851                       14923                       LR    R5,R1
                                   14924                       USING WGSWA,R5
                                   14926
 001C1A 5040 5024            00024 14927                       ST    R4,WGSDRARG         Save pointer to args.
 USING  SHDRARGS,R4                14928                       USING SHDRARGS,R4
                                   14937
                                   14938                       COMMENT                   PASS NAME
                                   14939                       COMMENT              SEG SHOW_DIR:  NAME=<FILE NAME>
 001C1E 5830 5050            00050 14940                       L     R3,WGWTBLK
 001C22 D20F 3000 767E 00000 02260 14941                       MVC   @R3(L'WGSBKHDR),=CL16'SHOW_DIR:       '
 001C28 4110 775E/4100_      02340 14942                       SEG   'NAME=',,WGSSG
 001C3A 4110 6218/5800_      00218 14959                       SEG   FFRNAME,L:FFRNAMEL,WGSSG
                                   14986
                                   14987                       COMMENT                   SET NTYPE=EXACT
 001C4C 4110 76BE/4100_      022A0 14988                       SEG   ' NTYPE=EXACT'
                                   15005              *
                                   15006              * we do not check volume name here other than 6 char test.
                                   15007              * we let wings check it.  also we have a hack for adding
1WGS      (WGS2193) (13:01) (15MAR04) Show directory                                                                        Page   35
0Current Usings:  (SHDRARGS,R4) (WGSWA,R5) (FFINFO,R6) (*,R7) (CP,R11) (CV,R12)
0Loc    Object Code    Addr1 Addr2  Stmt Lv Lineno    Source Statement           (Hibal 5, Asmedit 3.3)  HLASM R4.0  2004/03/15 13.01
+___    ______ ____    _____ _____  ____ __ ______    ______ _________
0                                  15008              * the current volume (for 'sav *') when needed, yuck.
                                   15009              *
                                   15010                       COMMENT                   PROCESS 'ON VOLUME'
                                   15011                       COMMENT
 001C5E 58E0 76CA/0DEE       022AC 15012                       ACALL CATHACK             IF VOL=CATLG, CLEAR IT
 001C64 58E0 76CE/0DEE       022B0 15016                       ACALL CVOLHACK            CHECK FOR '*' CUR VOL HACK
 001C6A D603 608C 608C_0008C 0008C 15020                       IF    (FFHOSTL,NZ),BEGIN
 001C74 D503 76D2 608C_022B4 0008C 15036  1                      IF    (FFHOSTL,NE,6),BEGIN   ALLOW no host names
 001C7E 4110 6090/5800_      00090 15054  2                        TSEG  FFHOST,L:FFHOSTL
 001C90 4110 7730/4100_      02312 15082  2                        TSEG  ': invalid volume name.'
 001CA2 41F0 0004            00004 15100  2                        LA    R15,4
 001CA6 47F0 75C8            021AA 15101  2                        B     WDIRDONE
 001CAA                            15102  1                      END
 001CAA 4110 7763/4100_      02345 15106  1                      SEG   ' VOL='
 001CBC 4110 6090/5800_      00090 15123  1                      SEG   FFHOST,L:FFHOSTL
 001CCE                            15150                       END
                                   15154
 001CCE D503 766E 4010_02250 00010 15155                       IF    (SHDRLOWL,GT,0),BEGIN
 001CD8 4110 7746/4100_      02328 15173  1                      SEG   ' FROM=',,WGSSG
 001CEA 4110 4014/5800_      00014 15190  1                      SEG   SHDRLOWB,L:SHDRLOWL,WGSSG
 001CFC                            15217                       END
 001CFC D503 766E 4004_02250 00004 15221                       IF    (SHDRUPL,GT,0),BEGIN
 001D06 4110 76D6/4100_      022B8 15239  1                      SEG   ' TO=',,WGSSG
 001D18 4110 4008/5800_      00008 15256  1                      SEG   SHDRUPB,L:SHDRUPL,WGSSG
 001D2A                            15283                       END
 001D2A D503 766E 401C_02250 0001C 15287                       IF    (SHDRLIKL,GT,0),BEGIN
 001D34 4110 774C/4100_      0232E 15305  1                      SEG   ' LIKE=',,WGSSG
 001D46 4110 4020/5800_      00020 15322  1                      SEG   SHDRLIKE,L:SHDRLIKL,WGSSG
 001D58                            15349                       END
                                   15353
 001D58 9140 4000/47E0_00000       15354                       IF    SHDRHEX,BEGIN
 001D60 4110 7768/4100_      0234A 15369  1                      SEG   ' FORMAT=HEX',,WGSSG
 001D72                            15386                       END
 001D72 7194/47F0 71AE_01D72 01D5E 15390                       ELSEIF SHDRTAB,BEGIN
 001D7E 4110 7773/4100_      02355 15414  1                      SEG   ' FORMAT=MEMBERS',,WGSSG
 001D90                            15431                       END
 001D90 71B2/47F0 71EA_01D90 01D7C 15435                       ELSEIF SHDRALL,BEGIN
 001D9C 9102 4000/47E0_00000       15459  1                      IF    SHDROLD,BEGIN
 001DA4 4110 7782/4100_      02364 15474  2                        SEG   ' FORMAT=OLD',,WGSSG
 001DB6                            15491  1                      END
 001DB6 71D8/47F0 71EA 01DB6 01DA2 15495  1                      ELSE  BEGIN
 001DBA 4110 778D/4100_      0236F 15506  2                        SEG   ' FORMAT=ALL',,WGSSG
 001DCC                            15523  1                      END
 001DCC                            15527                       END
 001DCC 71EE/47F0 7200 01DCC 01D9A 15531                       ELSE  BEGIN
 001DD0 4110 7798/4100_      0237A 15542  1                      SEG   ' FORMAT=TERSE',,WGSSG
 001DE2                            15559                       END
                                   15563
                                   15564                       COMMENT                   PROCESS OPTIONS
 001DE2 58E0 B08C/D2AF_      0008C 15565                       SCPUSH ,
 001DF0 58E0 B08C/D7AF_      0008C 15571                       SCCLR
 001DFC 4110 6114/5800_      00114 15580                       SCINIT FFOPTS,L:FFOPTSL
 001E12 5810 B08C/1B00_      0008C 15604                       SCAN  DIROPTS
 001E64 58E0 76E2/0DEE       022C4 15636                       SCANCHK                   * ERR EXIT TO CVNEXT INDIRECTLY
1WGS      (WGS2193) (13:01) (15MAR04) Show directory                                                                        Page   36
0Current Usings:  (SHDRARGS,R4) (WGSWA,R5) (FFINFO,R6) (*,R7) (CP,R11) (CV,R12)
0Loc    Object Code    Addr1 Addr2  Stmt Lv Lineno    Source Statement           (Hibal 5, Asmedit 3.3)  HLASM R4.0  2004/03/15 13.01
+___    ______ ____    _____ _____  ____ __ ______    ______ _________
0001E6A 58E0 B08C/4BD0_      0008C 15641                       SCPOP ,
 001E78 12FF/4780 72AA             15647                       IF    (R15,NZ),BEGIN
 001E7E D207 B886 768E 00886 02270 15661  1                      MVC   CPERRID,=CL8'SYNTAX'
 001E84 41F0 0004            00004 15662  1                      LA    R15,4
 001E88 47F0 75C8            021AA 15663  1                      B     WDIRDONE
 001E8C                            15664                       END
                                   15668                       COMMENT
 001E8C 58E0 76E6/0DEE       022C8 15669                       ACALL WPOPEN              OPEN PHYSICAL PATH
 001E92 12FF/4780 72BE             15673                       IF    (R15,NZ),BEGIN
 001E98 41F0 0004            00004 15687  1                      LA    R15,4
 001E9C 47F0 75C8            021AA 15688  1                      B     WDIRDONE
 001EA0                            15689                       END
                                   15693
 001EA0 5820 C1C8            001C8 15694                       L     R2,CVCURJCB
 001EA4 9640 2062      00062       15695                       WITH  (JCB,R2),' SET JCBFNATN '  NO ATTN ALLOWED ON DIR
 USING  JCB,R2
 DROP   JCB,R2
                                   15724
                                   15725                       COMMENT                   NOW OPEN WINGS CONNECTION
                                   15726
                                   15727                       COMMENT                   SEND THE COMMAND
 001EA8 1B00/41F0 5058_            15728                       SEGWR ,,WGSSG
                                   15752
                                   15753                       COMMENT                   PROCESS THE RETURN
 001EB4 58E0 76EE/0DEE       022D0 15754                       ACALL WPREAD
 001EBA 4780 72E4            01EC6 15758                       IF    NZ,BEGIN
 001EBE 41F0 0004            00004 15769  1                      LA    R15,4
 001EC2 47F0 75C8            021AA 15770  1                      B     WDIRDONE
 001EC6                            15771                       END
                                   15775                       COMMENT                   CHECK FOR WINGS ERROR RETURN
                                   15776            C          IF    ((R0,GE,L'WGSBKHDR),AND,
 001EC6 5900 76F2/4750_      022D4                                   (@R1,EQ,'FILE_ERROR:     ')),BEGIN
 001ED8 58E0 76F6/0DEE       022D8 15808  1                      ACALL WRDERROR
 001EDE 41F0 0004            00004 15812  1                      LA    R15,4
 001EE2 47F0 75C8            021AA 15813  1                      B     WDIRDONE
 001EE6                            15814                       END
                                   15818              *
                                   15819              *  Loop, processing the directory lines and storing them into
                                   15820              *  pages.
                                   15821              *
                                   15822            C          IF    ((R0,GE,L'WGSBKHDR),AND,
 001EE6 5900 76F2/4750_      022D4                                   (@R1,EQ,'DATA:           ')),BEGIN
 001EF8 9001 D000/41D0_      00000 15854  1                      XPUSH R0,R1
 001F00 58E0 76FA/0DEE       022DC 15857  1                      VCALL PGETNEW
 001F06 4770 7340            01F22 15861  1                      IF    Z,BEGIN
 001F0A 5000 4034            00034 15872  2                        ST    R0,SHDRPAGS
 001F0E D201 4030 7756 00030 02338 15873  2                        MVC   SHDRPGCT,=H'1'
 001F14 D201 9000 7756 00000 02338 15874  2                        MVC   0(2,PAR),=H'1'          Initialize it for PGAPPEND
 001F1A 4BD0 7758/9801_      0233A 15875  2                        XPOP  R0,R1
 001F22                            15878  1                      END
 001F22 7344/47F0 7350 01F22 01F08 15882  1                      ELSE  BEGIN
 001F26 4BD0 7758/9801_      0233A 15893  2                        XPOP  R0,R1
 001F2E 47F0 7450            02032 15896  2                        B     WGSDRFLS                 Flush the rest
 001F32                            15897  1                      END
1WGS      (WGS2193) (13:01) (15MAR04) Show directory                                                                        Page   37
0Current Usings:  (SHDRARGS,R4) (WGSWA,R5) (FFINFO,R6) (*,R7) (CP,R11) (CV,R12)
0Loc    Object Code    Addr1 Addr2  Stmt Lv Lineno    Source Statement           (Hibal 5, Asmedit 3.3)  HLASM R4.0  2004/03/15 13.01
+___    ______ ____    _____ _____  ____ __ ______    ______ _________
0001F32                            15901                       END
                                   15905
                                   15906            C          WHILE ((SHDRPGCT,LT,SHDRMXPG),AND,
                                                    C                (R0,GE,L'WGSBKHDR),AND,
 001F32 D501 775A 4030_0233C 00030                                   (@R1,EQ,'DATA:           ')),BEGIN
 001F4E 9001 D000/41D0_      00000 15955  1                      XPUSH R0,R1
 001F56 5A10 76FE            022E0 15958  1                      A     R1,=AL4(L'WGSBKHDR)     Skip over block header
 001F5A 5B00 76FE            022E0 15959  1                      S     R0,=AL4(L'WGSBKHDR)
 001F5E 58E0 7702/0DEE       022E4 15960  1                      ACALL PGAPPEND            Now append the line
 001F64 4780 73E0            01FC2 15964  1                      IF    NZ,BEGIN            Oops - no room on this page
 001F68 4830 9000            00000 15975  2                        LH    R3,@PAR             Adjust the page count
 001F6C 0630                       15976  2                        DECR  R3                   to remove the additional
 001F6E 4030 9000            00000 15978  2                        STH   R3,@PAR               end-of-page marker
 001F72 58E0 7706/0DEE       022E8 15979  2                        PMARK PAR                 Mark page changed
 001F78 58E0 76FA/0DEE       022DC 15984  2                        VCALL PGETNEW               and get a new one
 001F7E 4770 73D0            01FB2 15988  2                        IF    Z,BEGIN
 001F82 4810 4030            00030 15999  3                          LH    R1,SHDRPGCT
 001F86 4110 1001            00001 16000  3                          LA    R1,1(,R1)
 001F8A 4010 4030            00030 16001  3                          STH   R1,SHDRPGCT
 001F8E 8910 0002            00002 16002  3                          SLL   R1,2
 001F92 5001 4030            00030 16003  3                          ST    R0,SHDRPAGS-4(R1)   Save the page id
 001F96 D201 9000 7756 00000 02338 16004  3                          MVC   0(2,PAR),=H'1'      Initialize it for PGAPPEND
 001F9C 4BD0 7758/9801_      0233A 16005  3                          XPOP  R0,R1
 001FA4 5A10 76FE            022E0 16008  3                          A     R1,=AL4(L'WGSBKHDR)     Skip over block header
 001FA8 5B00 76FE            022E0 16009  3                          S     R0,=AL4(L'WGSBKHDR)
 001FAC 58E0 7702/0DEE       022E4 16010  3                          ACALL PGAPPEND            Now append the line
 001FB2                            16014  2                        END
 001FB2 73D4/47F0 73E0 01FB2 01F80 16018  2                        ELSE  BEGIN
 001FB6 4BD0 7758/9801_      0233A 16029  3                          XPOP  R0,R1
 001FBE 47F0 7450            02032 16032  3                          B     WGSDRFLS            Flush the rest
 001FC2                            16033  2                        END
 001FC2                            16037  1                      END
 001FC2 58E0 76EE/0DEE       022D0 16041  1                      ACALL WPREAD              Read the next line
 001FC8 4780 73F2            01FD4 16045  1                      IF    NZ,BEGIN
 001FCC 41F0 0004            00004 16056  2                        LA    R15,4
 001FD0 47F0 75C8            021AA 16057  2                        B     WDIRDONE
 001FD4                            16058  1                      END
 001FD4 47F0 7350            01F32 16062                       END
                                   16067              *
                                   16068              * This loop is entered when we've allocated the maximum pages
                                   16069              * and we're adding entries to the last page.
                                   16070              *
                                   16071            C          WHILE ((R0,GE,L'WGSBKHDR),AND,
 001FD8 5900 76F2/4750_      022D4                                   (@R1,EQ,'DATA:           ')),BEGIN
 001FEA 9001 D000/41D0_      00000 16105  1                      XPUSH R0,R1
 001FF2 5A10 76FE            022E0 16108  1                      A     R1,=AL4(L'WGSBKHDR)     Skip over block header
 001FF6 5B00 76FE            022E0 16109  1                      S     R0,=AL4(L'WGSBKHDR)
 001FFA 58E0 7702/0DEE       022E4 16110  1                      ACALL PGAPPEND            Append the line
 002000 4780 742E            02010 16114  1                      IF    NZ,BEGIN            Oops - no room on this page
 002004 4BD0 7758/9801_      0233A 16125  2                        XPOP  R0,R1
 00200C 47F0 7450            02032 16128  2                        B     WGSDRFLS             so we'll have to flush the rest.
 002010                            16129  1                      END
 002010 4BD0 7758/9801_      0233A 16133  1                      XPOP  R0,R1
 002018 58E0 76EE/0DEE       022D0 16136  1                      ACALL WPREAD              Read another line
1WGS      (WGS2193) (13:01) (15MAR04) Show directory                                                                        Page   38
0Current Usings:  (SHDRARGS,R4) (WGSWA,R5) (FFINFO,R6) (*,R7) (CP,R11) (CV,R12)
0Loc    Object Code    Addr1 Addr2  Stmt Lv Lineno    Source Statement           (Hibal 5, Asmedit 3.3)  HLASM R4.0  2004/03/15 13.01
+___    ______ ____    _____ _____  ____ __ ______    ______ _________
000201E 4780 7448            0202A 16140  1                      IF    NZ,BEGIN
 002022 41F0 0004            00004 16151  2                        LA    R15,4
 002026 47F0 75C8            021AA 16152  2                        B     WDIRDONE
 00202A                            16153  1                      END
 00202A 47F0 73F6            01FD8 16157                       END
                                   16162
 00202E 47F0 747C            0205E 16163                       B     WDIRLAST            Handle last message
                                   16164              *
                                   16165              * We come here to flush excess directory entries.
                                   16166              *
                                   16167              *
 002032 9640 502B      0002B       16168              WGSDRFLS SET   WGSFLUSH
                                   16175            C          WHILE ((R0,GE,L'WGSBKHDR),AND,
 002036 5900 76F2/4750_      022D4                                   (@R1,EQ,'DATA:           ')),BEGIN
 002048 58E0 76EE/0DEE       022D0 16209  1                      ACALL WPREAD              Read another line
 00204E 4780 7478            0205A 16213  1                      IF    NZ,BEGIN
 002052 41F0 0004            00004 16224  2                        LA    R15,4
 002056 47F0 75C8            021AA 16225  2                        B     WDIRDONE
 00205A                            16226  1                      END
 00205A 47F0 7454            02036 16230                       END
                                   16235              *
                                   16236              *
 00205E                            16237              WDIRLAST LABEL
 00205E 5900 76F2/47B0_      022D4 16239                       IF    (R0,LT,L'WGSBKHDR),BEGIN
 002066 4110 77A5/4100_      02387 16256  1                      TSEG  'WINGS path error.  Unable to display directory.'
 002078 58E0 770A/0DEE       022EC 16274  1                      ACALL WPCLOSE
                                   16278  1           *
                                   16279  1           * Release the page array
                                   16280  1           *
 00207E 1299/4780 74BE             16281  1                      IF    (PAR,NZ),BEGIN
 002084 58E0 770E/0DEE       022F0 16295  2                        PFREE PAR,EMPTY
 00208A 4800 4030            00030 16301  2                        LH    R0,SHDRPGCT
 00208E 0600                       16302  2                        DECR  R0                  Adjust for page we just freed
 002090 4110 4034            00034 16304  2                        LA    R1,SHDRPAGS
 002094 58E0 7712/0DEE       022F4 16305  2                        ACALL PGRELS
 00209A D701 4030 4030 00030 00030 16309  2                        CLEAR SHDRPGCT
 0020A0                            16316  1                      END
 0020A0 41F0 0004            00004 16320  1                      LA    R15,4
 0020A4 47F0 75C8            021AA 16321  1                      B     WDIRDONE
 0020A8                            16322                       END
                                   16326              *
                                   16327              *   Look for Error.
                                   16328              *
                                   16329                       COMMENT                   CHECK FOR WINGS ERROR RETURN
                                   16330            C          IF    ((R0,GT,L'WGSBKHDR),AND,
 0020A8 5900 76F2/47D0_      022D4                                   (@R1,EQ,'FILE_ERROR:     ')),BEGIN
 0020BA 58E0 76F6/0DEE       022D8 16362  1                      ACALL WRDERROR
                                   16366  1           *
                                   16367  1           * Release the page array
                                   16368  1           *
 0020C0 1299/4780 7500             16369  1                      IF    (PAR,NZ),BEGIN
 0020C6 58E0 770E/0DEE       022F0 16383  2                        PFREE PAR,EMPTY
 0020CC 4800 4030            00030 16389  2                        LH    R0,SHDRPGCT
 0020D0 0600                       16390  2                        DECR  R0                  Adjust for page we just freed
1WGS      (WGS2193) (13:01) (15MAR04) Show directory                                                                        Page   39
0Current Usings:  (SHDRARGS,R4) (WGSWA,R5) (FFINFO,R6) (*,R7) (CP,R11) (CV,R12)
0Loc    Object Code    Addr1 Addr2  Stmt Lv Lineno    Source Statement           (Hibal 5, Asmedit 3.3)  HLASM R4.0  2004/03/15 13.01
+___    ______ ____    _____ _____  ____ __ ______    ______ _________
00020D2 4110 4034            00034 16392  2                        LA    R1,SHDRPAGS
 0020D6 58E0 7712/0DEE       022F4 16393  2                        ACALL PGRELS
 0020DC D701 4030 4030 00030 00030 16397  2                        CLEAR SHDRPGCT
 0020E2                            16404  1                      END
 0020E2 41F0 0004            00004 16408  1                      LA    R15,4
 0020E6 47F0 75C8            021AA 16409  1                      B     WDIRDONE
 0020EA                            16410                       END
                                   16414              *
                                   16415              * Command completed successfully, process the final message
                                   16416              * (if any) on the FILE_EOF: message.
                                   16417              *
                                   16418                       COMMENT                   SCAN/PROCESS RETURNS
 0020EA 4111 0010            00010 16419                       LA    R1,L'WGSBKHDR(R1)
 0020EE 5B00 76FE            022E0 16420                       S     R0,=AL4(L'WGSBKHDR)
 0020F2 58E0 B08C/D2AF_      0008C 16421                       SCPUSH ,
 002100 58E0 B08C/D7AF_      0008C 16427                       SCCLR
 00210C 58E0 B08C/501E_      0008C 16436                       SCINIT (R1),(R0)
 00211A 5810 B08C/1B00_      0008C 16456                       SCAN  WGSEPRT
 00216C 58E0 B08C/4BD0_      0008C 16488                       SCPOP ,
 00217A 12FF/4780 75AC             16494                       IF    (R15,NZ),BEGIN      BAD OPTION ON DIRECTORY
 002180 58E0 770A/0DEE       022EC 16508  1                      ACALL WPCLOSE
 002186 41F0 0004            00004 16512  1                      LA    R15,4
 00218A 47F0 75C8            021AA 16513  1                      B     WDIRDONE
 00218E                            16514                       END
 00218E 75B0/47F0 75B6 0218E 0217E 16518                       ELSE  BEGIN
 002192 58E0 770A/0DEE       022EC 16529  1                      ACALL WPCLOSE
 002198                            16533                       END
                                   16537              *
                                   16538              *  Everything OK if we get here.
                                   16539              *
 002198 9140 502B/47E0_0002B       16540                       IF    (WGSFLUSH),BEGIN
 0021A0 41F0 0008            00008 16555  1                      LA    R15,8
 0021A4                            16556                       END
 0021A4 75C6/47F0 75C8 021A4 0219E 16560                       ELSE  BEGIN
 0021A8 1BFF                       16571  1                      CLEAR R15
 0021AA                            16575                       END
                                   16579
 0021AA                            16580              WDIRDONE LABEL ,
 0021AA 50F0 D000/41D0_      00000 16582                       XPUSH R15
 0021B2 58E0 771A/0DEE       022FC 16585                       ACALL RLSWA
 0021B8 4BD0 775C/58F0_      0233E 16589                       XPOP  R15
 0021C0 5820 C1C8            001C8 16592              WDIRDON1 L     R2,CVCURJCB
 0021C4 94BF 2062      00062       16593                       WITH  (JCB,R2),' CLEAR JCBFNATN '
 USING  JCB,R2
 DROP   JCB,R2
 0021C8 18D8/9808 D004_            16623                       PEND  ,
 DROP   *,R7
 DROP   SHDRARGS,R4                16643                       DROP  R4
                                   16650
 0021D8 4040404040404040_          16651              DIROPTS  SCKW ,VOLPSH,PUSH
 002200 4040404040404040_          16666                       SCKW ,NACCTPSH,PUSH
 002228 4040404040404040_          16681                       SCKW ,V(NOTVALID)
                                   16696
                                   16697                       QLTORG
1WGS      (WGS2193) (13:01) (15MAR04) Show dsnames                                                                          Page   40
0Current Usings:  (WGSWA,R5) (FFINFO,R6) (CP,R11) (CV,R12)
0Loc    Object Code    Addr1 Addr2  Stmt Lv Lineno    Source Statement           (Hibal 5, Asmedit 3.3)  HLASM R4.0  2004/03/15 13.01
+___    ______ ____    _____ _____  ____ __ ______    ______ _________
0                                  16759              *
                                   16760              *  WGSHODSN - WINGS SHOW DSNAMES
                                   16761              *
                                   16762              *  ON ENTRY:
                                   16763              *  FFINFO DSECT CONTAINS FILE NAME/OPTIONS AND
                                   16764              *  FILE SYSTEM INFORMATION.
                                   16765              *  R1  Point to show dsnames  argument and
                                   16766              *      return block.
                                   16767              *
                                   16768              *  ON EXIT:
                                   16769              *  R15=0, ALL OK
                                   16770              *  R15=4 CPERRID CONTAINS ERROR, MSG TSEG'D
                                   16771              *  R15 = 8 ALL OK, BUT WE RAN OUT OF PAGES TO HOLD
                                   16772              *        THE OUTPUT SO THE LISTING IS
                                   16773              *        NOT COMPLETE.
                                   16774              *
                                   16775              *  CAUTION!:
                                   16776              *  SOME SCANNING ERRORS EXIT VIA CVERROR
                                   16777              *  (THIS COULD BE CHANGED AND FIXED.)
                                   16778              *
                                   16779              *
 0023B6 50E0 D000/9008_      00000 16780              WGSHODSN XPROC ,
 USING  *,R7
 0023D0 1841                       16820                       LR    R4,R1               Save pointer to args
 0023D2 5860 BE54            00E54 16821                       L     R6,CPFINFOP
                                   16822                       USING FFINFO,R6
                                   16824
                                   16825                       COMMENT                   GET CLEAR WINGS WORKAREA
 0023D6 58E0 7628/0DEE       029F8 16826                       ACALL GETWA
 0023DC 1851                       16830                       LR    R5,R1
                                   16831                       USING WGSWA,R5
                                   16833
 0023DE 5040 5024            00024 16834                       ST    R4,WGSDRARG         Save pointer to args.
 USING  SHDSARGS,R4                16835                       USING SHDSARGS,R4
                                   16844
                                   16845                       COMMENT                   PASS NAME
                                   16846                       COMMENT              SEG FILE_SHOW:
 0023E2 5830 5050            00050 16847                       L     R3,WGWTBLK
 0023E6 D20F 3000 75F0 00000 029C0 16848                       MVC   @R3(L'WGSBKHDR),=CL16'FILE_SHOW:      '
                                   16849              *
                                   16850              * we do not check volume name here other than 6 char test.
                                   16851              * we let wings check it.  also we have a hack for adding
                                   16852              * the current volume (for 'sav *') when needed, yuck.
                                   16853              *
                                   16854                       COMMENT                   PROCESS 'ON VOLUME'
                                   16855                       COMMENT
 0023EC 58E0 762C/0DEE       029FC 16856                       ACALL CATHACK             IF VOL=CATLG, CLEAR IT
                                   16860              *        ACALL CVOLHACK            CHECK FOR 'SAVE *' CUR VOL HACK
 0023F2 D603 608C 608C_0008C 0008C 16861                       IF    (FFHOSTL,NZ),BEGIN
                                   16877  1           *        IF    (FFHOSTL,NE,6),BEGIN   ALLOW no host names
                                   16878  1           *        TSEG  FFHOST,L:FFHOSTL
                                   16879  1           *        TSEG  ': invalid volume name.'
                                   16880  1           *        LA    R15,4
                                   16881  1           *        B     WDSNDONE
1WGS      (WGS2193) (13:01) (15MAR04) Show dsnames                                                                          Page   41
0Current Usings:  (SHDSARGS,R4) (WGSWA,R5) (FFINFO,R6) (*,R7) (CP,R11) (CV,R12)
0Loc    Object Code    Addr1 Addr2  Stmt Lv Lineno    Source Statement           (Hibal 5, Asmedit 3.3)  HLASM R4.0  2004/03/15 13.01
+___    ______ ____    _____ _____  ____ __ ______    ______ _________
0                                  16882  1           *        END
 0023FC 4110 76B0/4100_      02A80 16883  1                      SEG   ' VOL='
 00240E 4110 6090/5800_      00090 16900  1                      SEG   FFHOST,L:FFHOSTL
 002420                            16927                       END
                                   16931
 002420 D503 75EC 4088_029BC 00088 16932                       IF    (SHDSLOWL,GT,0),BEGIN
 00242A 4110 7698/4100_      02A68 16950  1                      SEG   ' FROM=',,WGSSG
 00243C 4110 408C/5800_      0008C 16967  1                      SEG   SHDSLOWB,L:SHDSLOWL,WGSSG
 00244E                            16994                       END
                                   16998
 00244E D503 75EC 4004_029BC 00004 16999                       IF    (SHDSUPL,GT,0),BEGIN
 002458 4110 7634/4100_      02A04 17017  1                      SEG   ' TO=',,WGSSG
 00246A 4110 4008/5800_      00008 17034  1                      SEG   SHDSUPB,L:SHDSUPL,WGSSG
 00247C                            17061                       END
                                   17065
 00247C D503 75EC 410C_029BC 0010C 17066                       IF    (SHDSLIKL,GT,0),BEGIN
 002486 4110 769E/4100_      02A6E 17084  1                      SEG   ' LIKE=',,WGSSG
 002498 4110 4110/5800_      00110 17101  1                      SEG   SHDSLIKE,L:SHDSLIKL,WGSSG
 0024AA 9102 4000/47E0_00000       17128  1                      IF    SHDSONLY,BEGIN
 0024B2 4110 76B5/4100_      02A85 17143  2                        SEG   ' ONLY=YES',,WGSSG
 0024C4                            17160  1                      END
 0024C4                            17164                       END
                                   17168
 0024C4 4110 7638/4100_      02A08 17169                       SEG   ' NTYPE=EXACT',,WGSSG
                                   17186
 0024D6 9140 4000/4710_00000       17187                       IF    (SHDSTRK,OR,SHDSTYP,OR,SHDSDAT,OR,SHDSINT),BEGIN
 0024F6 4110 76BE/4100_      02A8E 17240  1                      SEG   ' CATREPT=DSCB',,WGSSG
 002508                            17257                       END
 002508 713C/47F0 714E 02508 024F4 17261                       ELSE  BEGIN
 00250C 4110 7644/4100_      02A14 17272  1                      SEG   ' CATREPT=DSN',,WGSSG
 00251E                            17289                       END
                                   17293              *
                                   17294              *  If an exact volume name was specified, tell Wings to just look
                                   17295              *  at the volume and not search the catalog for now until we've
                                   17296              *  fully converted to SMS.
                                   17297              *
 00251E D503 7650 608C_02A20 0008C 17298                       IF    (FFHOSTL,EQ,6),BEGIN
 002528 4110 76CB/4100_      02A9B 17316  1                      SEG   ' CATTYPE=VTOC',,WGSSG
 00253A                            17333                       END
 00253A 716E/47F0 7180 0253A 02526 17337                       ELSE  BEGIN
 00253E 4110 76D8/4100_      02AA8 17348  1                      SEG   ' CATTYPE=DISK',,WGSSG
 002550                            17365                       END
                                   17369
                                   17370                       COMMENT                   PROCESS OPTIONS
 002550 58E0 B08C/D2AF_      0008C 17371                       SCPUSH ,
 00255E 58E0 B08C/D7AF_      0008C 17377                       SCCLR
 00256A 4110 6114/5800_      00114 17386                       SCINIT FFOPTS,L:FFOPTSL
 002580 5810 B08C/1B00_      0008C 17410                       SCAN  DSNOPTS
 0025D2 58E0 765C/0DEE       02A2C 17442                       SCANCHK                   * ERR EXIT TO CVNEXT INDIRECTLY
 0025D8 58E0 B08C/4BD0_      0008C 17447                       SCPOP ,
 0025E6 12FF/4780 722A             17453                       IF    (R15,NZ),BEGIN
 0025EC D207 B886 7600 00886 029D0 17467  1                      MVC   CPERRID,=CL8'SYNTAX'
 0025F2 41F0 0004            00004 17468  1                      LA    R15,4
 0025F6 47F0 7548            02918 17469  1                      B     WDSNDONE
1WGS      (WGS2193) (13:01) (15MAR04) Show dsnames                                                                          Page   42
0Current Usings:  (SHDSARGS,R4) (WGSWA,R5) (FFINFO,R6) (*,R7) (CP,R11) (CV,R12)
0Loc    Object Code    Addr1 Addr2  Stmt Lv Lineno    Source Statement           (Hibal 5, Asmedit 3.3)  HLASM R4.0  2004/03/15 13.01
+___    ______ ____    _____ _____  ____ __ ______    ______ _________
00025FA                            17470                       END
                                   17474                       COMMENT
 0025FA 58E0 7660/0DEE       02A30 17475                       ACALL WPOPEN              OPEN PHYSICAL PATH
 002600 12FF/4780 723E             17479                       IF    (R15,NZ),BEGIN
 002606 41F0 0004            00004 17493  1                      LA    R15,4
 00260A 47F0 7548            02918 17494  1                      B     WDSNDONE
 00260E                            17495                       END
                                   17499
 00260E 5820 C1C8            001C8 17500                       L     R2,CVCURJCB
 002612 9640 2062      00062       17501                       WITH  (JCB,R2),' SET JCBFNATN '  NO ATTN ALLOWED ON DIR
 USING  JCB,R2
 DROP   JCB,R2
                                   17530
                                   17531                       COMMENT                   NOW OPEN WINGS CONNECTION
                                   17532
                                   17533                       COMMENT                   SEND THE COMMAND
                                   17534              *
                                   17535              * For debugging
                                   17536              *
                                   17537              *        XPUSH R15,R1
                                   17538              *        L     R0,WGSSGLENF
                                   17539              *        A     R0,=F'16'
                                   17540              *        L     R1,WGWTBLK
                                   17541              *        TSEG  (R1),(R0)
                                   17542              *        TWRITE
                                   17543              *        XPOP  R15,R1
                                   17544              *
 002616 1B00/41F0 5058_            17545                       SEGWR ,,WGSSG
                                   17569
                                   17570                       COMMENT                   PROCESS THE RETURN
 002622 58E0 7668/0DEE       02A38 17571                       ACALL WPREAD
 002628 4780 7264            02634 17575                       IF    NZ,BEGIN
 00262C 41F0 0004            00004 17586  1                      LA    R15,4
 002630 47F0 7548            02918 17587  1                      B     WDSNDONE
 002634                            17588                       END
                                   17592                       COMMENT                   CHECK FOR WINGS ERROR RETURN
                                   17593            C          IF    ((R0,GE,L'WGSBKHDR),AND,
 002634 5900 766C/4750_      02A3C                                   (@R1,EQ,'FILE_ERROR:     ')),BEGIN
 002646 58E0 7670/0DEE       02A40 17625  1                      ACALL WRDERROR
 00264C 41F0 0004            00004 17629  1                      LA    R15,4
 002650 47F0 7548            02918 17630  1                      B     WDSNDONE
 002654                            17631                       END
                                   17635              *
                                   17636              *  Loop, processing the lines and storing them into
                                   17637              *  pages.
                                   17638              *
                                   17639            C          IF    ((R0,GE,L'WGSBKHDR),AND,
 002654 5900 766C/4750_      02A3C                                   (@R1,EQ,'DATA:           ')),BEGIN
 002666 9001 D000/41D0_      00000 17671  1                      XPUSH R0,R1
 00266E 58E0 7674/0DEE       02A44 17674  1                      VCALL PGETNEW
 002674 4770 72C0            02690 17678  1                      IF    Z,BEGIN
 002678 5000 4194            00194 17689  2                        ST    R0,SHDSPAGS
 00267C D201 4190 76A8 00190 02A78 17690  2                        MVC   SHDSPGCT,=H'1'
 002682 D201 9000 76A8 00000 02A78 17691  2                        MVC   0(2,PAR),=H'1'          Initialize it for PGAPPEND
1WGS      (WGS2193) (13:01) (15MAR04) Show dsnames                                                                          Page   43
0Current Usings:  (SHDSARGS,R4) (WGSWA,R5) (FFINFO,R6) (*,R7) (CP,R11) (CV,R12)
0Loc    Object Code    Addr1 Addr2  Stmt Lv Lineno    Source Statement           (Hibal 5, Asmedit 3.3)  HLASM R4.0  2004/03/15 13.01
+___    ______ ____    _____ _____  ____ __ ______    ______ _________
0002688 4BD0 76AA/9801_      02A7A 17692  2                        XPOP  R0,R1
 002690                            17695  1                      END
 002690 72C4/47F0 72D0 02690 02676 17699  1                      ELSE  BEGIN
 002694 4BD0 76AA/9801_      02A7A 17710  2                        XPOP  R0,R1
 00269C 47F0 73D0            027A0 17713  2                        B     WGSDSFLS                 Flush the rest
 0026A0                            17714  1                      END
 0026A0                            17718                       END
                                   17722
                                   17723            C          WHILE ((SHDSPGCT,LT,SHDSMXPG),AND,
                                                    C                (R0,GE,L'WGSBKHDR),AND,
 0026A0 D501 76AC 4190_02A7C 00190                                   (@R1,EQ,'DATA:           ')),BEGIN
 0026BC 9001 D000/41D0_      00000 17772  1                      XPUSH R0,R1
 0026C4 5A10 7678            02A48 17775  1                      A     R1,=AL4(L'WGSBKHDR)     Skip over block header
 0026C8 5B00 7678            02A48 17776  1                      S     R0,=AL4(L'WGSBKHDR)
 0026CC 58E0 767C/0DEE       02A4C 17777  1                      ACALL PGAPPEND            Now append the line
 0026D2 4780 7360            02730 17781  1                      IF    NZ,BEGIN            Oops - no room on this page
 0026D6 4830 9000            00000 17792  2                        LH    R3,@PAR             Adjust the page count
 0026DA 0630                       17793  2                        DECR  R3                   to remove the additional
 0026DC 4030 9000            00000 17795  2                        STH   R3,@PAR               end-of-page marker
 0026E0 58E0 7680/0DEE       02A50 17796  2                        PMARK PAR                 Mark page changed
 0026E6 58E0 7674/0DEE       02A44 17801  2                        VCALL PGETNEW               and get a new one
 0026EC 4770 7350            02720 17805  2                        IF    Z,BEGIN
 0026F0 4810 4190            00190 17816  3                          LH    R1,SHDSPGCT
 0026F4 4110 1001            00001 17817  3                          LA    R1,1(,R1)
 0026F8 4010 4190            00190 17818  3                          STH   R1,SHDSPGCT
 0026FC 8910 0002            00002 17819  3                          SLL   R1,2
 002700 5001 4190            00190 17820  3                          ST    R0,SHDSPAGS-4(R1)   Save the page id
 002704 D201 9000 76A8 00000 02A78 17821  3                          MVC   0(2,PAR),=H'1'      Initialize it for PGAPPEND
 00270A 4BD0 76AA/9801_      02A7A 17822  3                          XPOP  R0,R1
 002712 5A10 7678            02A48 17825  3                          A     R1,=AL4(L'WGSBKHDR)     Skip over block header
 002716 5B00 7678            02A48 17826  3                          S     R0,=AL4(L'WGSBKHDR)
 00271A 58E0 767C/0DEE       02A4C 17827  3                          ACALL PGAPPEND            Now append the line
 002720                            17831  2                        END
 002720 7354/47F0 7360 02720 026EE 17835  2                        ELSE  BEGIN
 002724 4BD0 76AA/9801_      02A7A 17846  3                          XPOP  R0,R1
 00272C 47F0 73D0            027A0 17849  3                          B     WGSDSFLS            Flush the rest
 002730                            17850  2                        END
 002730                            17854  1                      END
 002730 58E0 7668/0DEE       02A38 17858  1                      ACALL WPREAD              Read the next line
 002736 4780 7372            02742 17862  1                      IF    NZ,BEGIN
 00273A 41F0 0004            00004 17873  2                        LA    R15,4
 00273E 47F0 7548            02918 17874  2                        B     WDSNDONE
 002742                            17875  1                      END
 002742 47F0 72D0            026A0 17879                       END
                                   17884              *
                                   17885              * This loop is entered when we've allocated the maximum pages
                                   17886              * and we're adding entries to the last page.
                                   17887              *
                                   17888            C          WHILE ((R0,GE,L'WGSBKHDR),AND,
 002746 5900 766C/4750_      02A3C                                   (@R1,EQ,'DATA:           ')),BEGIN
 002758 9001 D000/41D0_      00000 17922  1                      XPUSH R0,R1
 002760 5A10 7678            02A48 17925  1                      A     R1,=AL4(L'WGSBKHDR)     Skip over block header
 002764 5B00 7678            02A48 17926  1                      S     R0,=AL4(L'WGSBKHDR)
 002768 58E0 767C/0DEE       02A4C 17927  1                      ACALL PGAPPEND            Append the line
1WGS      (WGS2193) (13:01) (15MAR04) Show dsnames                                                                          Page   44
0Current Usings:  (SHDSARGS,R4) (WGSWA,R5) (FFINFO,R6) (*,R7) (CP,R11) (CV,R12)
0Loc    Object Code    Addr1 Addr2  Stmt Lv Lineno    Source Statement           (Hibal 5, Asmedit 3.3)  HLASM R4.0  2004/03/15 13.01
+___    ______ ____    _____ _____  ____ __ ______    ______ _________
000276E 4780 73AE            0277E 17931  1                      IF    NZ,BEGIN            Oops - no room on this page
 002772 4BD0 76AA/9801_      02A7A 17942  2                        XPOP  R0,R1
 00277A 47F0 73D0            027A0 17945  2                        B     WGSDSFLS             so we'll have to flush the rest.
 00277E                            17946  1                      END
 00277E 4BD0 76AA/9801_      02A7A 17950  1                      XPOP  R0,R1
 002786 58E0 7668/0DEE       02A38 17953  1                      ACALL WPREAD              Read another line
 00278C 4780 73C8            02798 17957  1                      IF    NZ,BEGIN
 002790 41F0 0004            00004 17968  2                        LA    R15,4
 002794 47F0 7548            02918 17969  2                        B     WDSNDONE
 002798                            17970  1                      END
 002798 47F0 7376            02746 17974                       END
                                   17979
 00279C 47F0 73FC            027CC 17980                       B     WDSNLAST            Handle last message
                                   17981              *
                                   17982              * We come here to flush excess directory entries.
                                   17983              *
                                   17984              *
 0027A0 9640 502B      0002B       17985              WGSDSFLS SET   WGSFLUSH
                                   17992            C          WHILE ((R0,GE,L'WGSBKHDR),AND,
 0027A4 5900 766C/4750_      02A3C                                   (@R1,EQ,'DATA:           ')),BEGIN
 0027B6 58E0 7668/0DEE       02A38 18026  1                      ACALL WPREAD              Read another line
 0027BC 4780 73F8            027C8 18030  1                      IF    NZ,BEGIN
 0027C0 41F0 0004            00004 18041  2                        LA    R15,4
 0027C4 47F0 7548            02918 18042  2                        B     WDSNDONE
 0027C8                            18043  1                      END
 0027C8 47F0 73D4            027A4 18047                       END
                                   18052              *
                                   18053              *
 0027CC                            18054              WDSNLAST LABEL
 0027CC 5900 766C/47B0_      02A3C 18056                       IF    (R0,LT,L'WGSBKHDR),BEGIN
 0027D4 4110 76E5/4100_      02AB5 18073  1                      TSEG  'WINGS path error.  Unable to display files.'
 0027E6 58E0 7684/0DEE       02A54 18091  1                      ACALL WPCLOSE
                                   18095  1           *
                                   18096  1           * Release the page array
                                   18097  1           *
 0027EC 1299/4780 743E             18098  1                      IF    (PAR,NZ),BEGIN
 0027F2 58E0 7688/0DEE       02A58 18112  2                        PFREE PAR,EMPTY
 0027F8 4800 4190            00190 18118  2                        LH    R0,SHDSPGCT
 0027FC 0600                       18119  2                        DECR  R0                  Adjust for page we just freed
 0027FE 4110 4194            00194 18121  2                        LA    R1,SHDSPAGS
 002802 58E0 768C/0DEE       02A5C 18122  2                        ACALL PGRELS
 002808 D701 4190 4190 00190 00190 18126  2                        CLEAR SHDSPGCT
 00280E                            18133  1                      END
 00280E 41F0 0004            00004 18137  1                      LA    R15,4
 002812 47F0 7548            02918 18138  1                      B     WDSNDONE
 002816                            18139                       END
                                   18143              *
                                   18144              *   Look for Error.
                                   18145              *
                                   18146                       COMMENT                   CHECK FOR WINGS ERROR RETURN
                                   18147            C          IF    ((R0,GT,L'WGSBKHDR),AND,
 002816 5900 766C/47D0_      02A3C                                   (@R1,EQ,'FILE_ERROR:     ')),BEGIN
 002828 58E0 7670/0DEE       02A40 18179  1                      ACALL WRDERROR
                                   18183  1           *
1WGS      (WGS2193) (13:01) (15MAR04) Show dsnames                                                                          Page   45
0Current Usings:  (SHDSARGS,R4) (WGSWA,R5) (FFINFO,R6) (*,R7) (CP,R11) (CV,R12)
0Loc    Object Code    Addr1 Addr2  Stmt Lv Lineno    Source Statement           (Hibal 5, Asmedit 3.3)  HLASM R4.0  2004/03/15 13.01
+___    ______ ____    _____ _____  ____ __ ______    ______ _________
0                                  18184  1           * Release the page array
                                   18185  1           *
 00282E 1299/4780 7480             18186  1                      IF    (PAR,NZ),BEGIN
 002834 58E0 7688/0DEE       02A58 18200  2                        PFREE PAR,EMPTY
 00283A 4800 4190            00190 18206  2                        LH    R0,SHDSPGCT
 00283E 0600                       18207  2                        DECR  R0                  Adjust for page we just freed
 002840 4110 4194            00194 18209  2                        LA    R1,SHDSPAGS
 002844 58E0 768C/0DEE       02A5C 18210  2                        ACALL PGRELS
 00284A D701 4190 4190 00190 00190 18214  2                        CLEAR SHDSPGCT
 002850                            18221  1                      END
 002850 41F0 0004            00004 18225  1                      LA    R15,4
 002854 47F0 7548            02918 18226  1                      B     WDSNDONE
 002858                            18227                       END
                                   18231              *
                                   18232              * Command completed successfully, process the final message
                                   18233              * (if any) on the FILE_EOF: message.
                                   18234              *
                                   18235                       COMMENT                   SCAN/PROCESS RETURNS
 002858 4111 0010            00010 18236                       LA    R1,L'WGSBKHDR(R1)
 00285C 5B00 7678            02A48 18237                       S     R0,=AL4(L'WGSBKHDR)
 002860 58E0 B08C/D2AF_      0008C 18238                       SCPUSH ,
 00286E 58E0 B08C/D7AF_      0008C 18244                       SCCLR
 00287A 58E0 B08C/501E_      0008C 18253                       SCINIT (R1),(R0)
 002888 5810 B08C/1B00_      0008C 18273                       SCAN  WGSEPRT
 0028DA 58E0 B08C/4BD0_      0008C 18305                       SCPOP ,
 0028E8 12FF/4780 752C             18311                       IF    (R15,NZ),BEGIN      BAD OPTION ON DIRECTORY
 0028EE 58E0 7684/0DEE       02A54 18325  1                      ACALL WPCLOSE
 0028F4 41F0 0004            00004 18329  1                      LA    R15,4
 0028F8 47F0 7548            02918 18330  1                      B     WDSNDONE
 0028FC                            18331                       END
 0028FC 7530/47F0 7536 028FC 028EC 18335                       ELSE  BEGIN
 002900 58E0 7684/0DEE       02A54 18346  1                      ACALL WPCLOSE
 002906                            18350                       END
                                   18354              *
                                   18355              *  Everything OK if we get here.
                                   18356              *
 002906 9140 502B/47E0_0002B       18357                       IF    (WGSFLUSH),BEGIN
 00290E 41F0 0008            00008 18372  1                      LA    R15,8
 002912                            18373                       END
 002912 7546/47F0 7548 02912 0290C 18377                       ELSE  BEGIN
 002916 1BFF                       18388  1                      CLEAR R15
 002918                            18392                       END
                                   18396
 002918                            18397              WDSNDONE LABEL ,
 002918 50F0 D000/41D0_      00000 18399                       XPUSH R15
 002920 58E0 7694/0DEE       02A64 18402                       ACALL RLSWA
 002926 4BD0 76AE/58F0_      02A7E 18406                       XPOP  R15
 00292E 5820 C1C8            001C8 18409                       L     R2,CVCURJCB
 002932 94BF 2062      00062       18410                       WITH  (JCB,R2),' CLEAR JCBFNATN '
 USING  JCB,R2
 DROP   JCB,R2
 002936 18D8/9808 D004_            18440                       PEND  ,
 DROP   *,R7
 DROP   SHDSARGS,R4                18460                       DROP  R4
1WGS      (WGS2193) (13:01) (15MAR04) Show dsnames                                                                          Page   46
0Current Usings:  (WGSWA,R5) (FFINFO,R6) (CP,R11) (CV,R12)
0Loc    Object Code    Addr1 Addr2  Stmt Lv Lineno    Source Statement           (Hibal 5, Asmedit 3.3)  HLASM R4.0  2004/03/15 13.01
+___    ______ ____    _____ _____  ____ __ ______    ______ _________
0                                  18467
 002944 4040404040404040_          18468              DSNOPTS  SCKW ,VOLPSH,PUSH
 00296C 4040404040404040_          18483                       SCKW ,NACCTPSH,PUSH
 002994 4040404040404040_          18498                       SCKW ,V(NOTVALID)
                                   18513
                                   18514                       QLTORG
1WGS      (WGS2193) (13:01) (15MAR04) Catalog filter routine                                                                Page   47
0Current Usings:  (WGSWA,R5) (FFINFO,R6) (CP,R11) (CV,R12)
0Loc    Object Code    Addr1 Addr2  Stmt Lv Lineno    Source Statement           (Hibal 5, Asmedit 3.3)  HLASM R4.0  2004/03/15 13.01
+___    ______ ____    _____ _____  ____ __ ______    ______ _________
0                                  18571              *
                                   18572              * This routine determines whether or not the indicated catalog
                                   18573              * entry should be accepted and stored, based on criteria specified
                                   18574              * in the SHOW CAT arguments.
                                   18575              *
                                   18576              * Inputs:
                                   18577              *  R0,R1 - Describe the length and location of the entry to be
                                   18578              *          checked.
                                   18579              *  R2    - Points to the SHOW CATALOG argument list
                                   18580              *
                                   18581              * Outputs:
                                   18582              *  R0,R1 - Same as on input
                                   18583              *  R15   - Zero if the line is accepted
                                   18584              *          Nonzero if the line doesn't meet the criteria
                                   18585              *
 002AE0 50E0 D000/9008_      00000 18586              CATLINOK PROC  ,
 USING  *,R7
 USING  DSNINFO,R1                 18625                       WITH  (DSNINFO,R1),BEGIN
                                   18639  1
 002AFA 954E 1000/4780_00000       18640  1                      IF    (DSNCATTP,NE,'+'),BEGIN
 USING  SHCTARGS,R2                18657  2                        WITH  (SHCTARGS,R2),BEGIN
 002B02 9120 2000/4710_00000       18671  3                          IF    (SHCTDSK,OR,SHCTTAP),BEGIN
 002B12 9120 2000/47E0_00000       18700  4                            IF    (SHCTDSK,AND,(DSNDEVTP,EQ,'D')),'CLEAR R15'
 002B24 702E/702E/47F0_02B24 02B18 18740  4                            ELSEIF (SHCTTAP,AND,(DSNDEVTP,EQ,'T')),'CLEAR R15'
 002B3A 7044/7044/47F0_02B3A 02B2E 18791  4                            ELSE  'LA R15,4'
 002B42                            18810  3                          END
 002B42 704C/47F0 704E_02B42 02B10 18814  3                          ELSE  'CLEAR R15'
 DROP   SHCTARGS,R2                18834  2                        END
 002B48                            18842  1                      END
                                   18846  1
 002B48 7052/47F0 7054 02B48 02B00 18847  1                      ELSE  BEGIN
 002B4C 1BFF                       18858  2                        CLEAR R15
 002B4E                            18862  1                      END
                                   18866  1
 DROP   DSNINFO,R1                 18867                       END
 002B4E 18D8/9808 D004_            18875                       PEND  ,
 DROP   *,R7
                                   18895                       QLTORG
1WGS      (WGS2193) (13:01) (15MAR04) Show catalog                                                                          Page   48
0Current Usings:  (WGSWA,R5) (FFINFO,R6) (CP,R11) (CV,R12)
0Loc    Object Code    Addr1 Addr2  Stmt Lv Lineno    Source Statement           (Hibal 5, Asmedit 3.3)  HLASM R4.0  2004/03/15 13.01
+___    ______ ____    _____ _____  ____ __ ______    ______ _________
0                                  18909              *
                                   18910              *  WGSHOCAT - WINGS SHOW CATALOG
                                   18911              *
                                   18912              *  ON ENTRY:
                                   18913              *  FFINFO DSECT CONTAINS FILE NAME/OPTIONS AND
                                   18914              *  FILE SYSTEM INFORMATION.
                                   18915              *  R1  Point to show catalog argument and
                                   18916              *      return block.
                                   18917              *
                                   18918              *  ON EXIT:
                                   18919              *  R15=0, ALL OK
                                   18920              *  R15=4 CPERRID CONTAINS ERROR, MSG TSEG'D
                                   18921              *  R15 = 8 ALL OK, BUT WE RAN OUT OF PAGES TO HOLD
                                   18922              *        THE OUTPUT SO THE LISTING IS
                                   18923              *        NOT COMPLETE.
                                   18924              *
                                   18925              *  CAUTION!:
                                   18926              *  SOME SCANNING ERRORS EXIT VIA CVERROR
                                   18927              *  (THIS COULD BE CHANGED AND FIXED.)
                                   18928              *
                                   18929              *
 002B60 50E0 D000/9008_      00000 18930              WGSHOCAT XPROC ,
 USING  *,R7
 002B7A 1841                       18970                       LR    R4,R1               Save pointer to args
 002B7C 5860 BE54            00E54 18971                       L     R6,CPFINFOP
                                   18972                       USING FFINFO,R6
                                   18974
                                   18975                       COMMENT                   GET CLEAR WINGS WORKAREA
 002B80 58E0 75C6/0DEE       03140 18976                       ACALL GETWA
 002B86 1851                       18980                       LR    R5,R1
                                   18981                       USING WGSWA,R5
                                   18983
 002B88 5040 5024            00024 18984                       ST    R4,WGSDRARG         Save pointer to args.
 USING  SHCTARGS,R4                18985                       USING SHCTARGS,R4
                                   18994
                                   18995                       COMMENT                   PASS NAME
                                   18996                       COMMENT              SEG FILE_SHOW:
 002B8C 5830 5050            00050 18997                       L     R3,WGWTBLK
 002B90 D20F 3000 758E 00000 03108 18998                       MVC   @R3(L'WGSBKHDR),=CL16'FILE_SHOW:      '
                                   18999
 002B96 D503 7586 4088_03100 00088 19000                       IF    (SHCTLOWL,GT,0),BEGIN
 002BA0 4110 763E/4100_      031B8 19018  1                      SEG   ' FROM=',,WGSSG
 002BB2 4110 408C/5800_      0008C 19035  1                      SEG   SHCTLOWB,L:SHCTLOWL,WGSSG
 002BC4                            19062                       END
                                   19066
 002BC4 D503 7586 4004_03100 00004 19067                       IF    (SHCTUPL,GT,0),BEGIN
 002BCE 4110 75CE/4100_      03148 19085  1                      SEG   ' TO=',,WGSSG
 002BE0 4110 4008/5800_      00008 19102  1                      SEG   SHCTUPB,L:SHCTUPL,WGSSG
 002BF2                            19129                       END
                                   19133
 002BF2 D503 7586 410C_03100 0010C 19134                       IF    (SHCTLIKL,GT,0),BEGIN
 002BFC 4110 7644/4100_      031BE 19152  1                      SEG   ' LIKE=',,WGSSG
 002C0E 4110 4110/5800_      00110 19169  1                      SEG   SHCTLIKE,L:SHCTLIKL,WGSSG
 002C20                            19196                       END
1WGS      (WGS2193) (13:01) (15MAR04) Show catalog                                                                          Page   49
0Current Usings:  (SHCTARGS,R4) (WGSWA,R5) (FFINFO,R6) (*,R7) (CP,R11) (CV,R12)
0Loc    Object Code    Addr1 Addr2  Stmt Lv Lineno    Source Statement           (Hibal 5, Asmedit 3.3)  HLASM R4.0  2004/03/15 13.01
+___    ______ ____    _____ _____  ____ __ ______    ______ _________
0                                  19200
                                   19201            C          IF    ((SHCTUPL,GT,0),OR,
                                                    C                (SHCTLOWL,GT,0),OR,
 002C20 D503 7586 4004_03100 00004                                   (SHCTLIKL,GT,0)),BEGIN
 002C3E 4110 75D2/4100_      0314C 19251  1                      SEG   ' NTYPE=EXACT',,WGSSG
 002C50                            19268                       END
                                   19272              *
                                   19273              *   Remove performance change. We have to ask for volume information
                                   19274              *   on every request, because WYLBUR (in the DIR module) TSEGs the
                                   19275              *   filenames from SHOW CAT differently, depending on whether or not
                                   19276              *   the dataset is on disk, and is a standard WYLBUR dsname. Thus,
                                   19277              *   we need the information about the device type.
                                   19278              *
                                   19279    X         *         IF    (SHCTVOL,OR,SHCTDSK,OR,SHCTTAP,
                                   19280              *              OR,SHCTUNIT,OR,SHCTINT),BEGIN
 002C50 4110 75DE/4100_      03158 19281                       SEG   ' CATREPT=VOL',,WGSSG
                                   19298              *        END
                                   19299              *        ELSE  BEGIN
                                   19300              *        SEG   ' CATREPT=DSN',,WGSSG
                                   19301              *        END
                                   19302              *
                                   19303              *        IF    (SHCTDSK,AND,SHCTTAP),BEGIN
                                   19304              *        SEG   ' CATTYPE=DATA',,WGSSG
                                   19305              *        END
                                   19306              *        ELSEIF SHCTTAP,BEGIN
                                   19307              *        SEG   ' CATTYPE=TAPE',,WGSSG
                                   19308              *        END
                                   19309              *        ELSE  BEGIN
                                   19310              *        SEG   ' CATTYPE=DISK',,WGSSG
                                   19311              *        END
 002C62 4110 75EA/4100_      03164 19312                       SEG   ' CATTYPE=ALL',,WGSSG
                                   19329
                                   19330                       COMMENT                   PROCESS OPTIONS
 002C74 58E0 B08C/D2AF_      0008C 19331                       SCPUSH ,
 002C82 58E0 B08C/D7AF_      0008C 19337                       SCCLR
 002C8E 4110 6114/5800_      00114 19346                       SCINIT FFOPTS,L:FFOPTSL
 002CA4 5810 B08C/1B00_      0008C 19370                       SCAN  SHOCTOPT
 002CF6 58E0 75FE/0DEE       03178 19402                       SCANCHK                   * ERR EXIT TO CVNEXT INDIRECTLY
 002CFC 58E0 B08C/4BD0_      0008C 19407                       SCPOP ,
 002D0A 12FF/4780 71A4             19413                       IF    (R15,NZ),BEGIN
 002D10 D207 B886 759E 00886 03118 19427  1                      MVC   CPERRID,=CL8'SYNTAX'
 002D16 41F0 0004            00004 19428  1                      LA    R15,4
 002D1A 47F0 74E2            0305C 19429  1                      B     WCATDONE
 002D1E                            19430                       END
                                   19434                       COMMENT
 002D1E 58E0 7602/0DEE       0317C 19435                       ACALL WPOPEN              OPEN PHYSICAL PATH
 002D24 12FF/4780 71B8             19439                       IF    (R15,NZ),BEGIN
 002D2A 41F0 0004            00004 19453  1                      LA    R15,4
 002D2E 47F0 74E2            0305C 19454  1                      B     WCATDONE
 002D32                            19455                       END
                                   19459
 002D32 5820 C1C8            001C8 19460                       L     R2,CVCURJCB
 002D36 9640 2062      00062       19461                       WITH  (JCB,R2),' SET JCBFNATN '  NO ATTN ALLOWED ON CAT
 USING  JCB,R2
1WGS      (WGS2193) (13:01) (15MAR04) Show catalog                                                                          Page   50
0Current Usings:  (SHCTARGS,R4) (WGSWA,R5) (FFINFO,R6) (*,R7) (CP,R11) (CV,R12)
0Loc    Object Code    Addr1 Addr2  Stmt Lv Lineno    Source Statement           (Hibal 5, Asmedit 3.3)  HLASM R4.0  2004/03/15 13.01
+___    ______ ____    _____ _____  ____ __ ______    ______ _________
0DROP   JCB,R2
                                   19490
                                   19491                       COMMENT                   NOW OPEN WINGS CONNECTION
                                   19492
                                   19493                       COMMENT                   SEND THE COMMAND
 002D3A 1B00/41F0 5058_            19494                       SEGWR ,,WGSSG
                                   19518
                                   19519                       COMMENT                   PROCESS THE RETURN
 002D46 58E0 760A/0DEE       03184 19520                       ACALL WPREAD
 002D4C 4780 71DE            02D58 19524                       IF    NZ,BEGIN
 002D50 41F0 0004            00004 19535  1                      LA    R15,4
 002D54 47F0 74E2            0305C 19536  1                      B     WCATDONE
 002D58                            19537                       END
                                   19541                       COMMENT                   CHECK FOR WINGS ERROR RETURN
                                   19542            C          IF    ((R0,GE,L'WGSBKHDR),AND,
 002D58 5900 760E/4750_      03188                                   (@R1,EQ,'FILE_ERROR:     ')),BEGIN
 002D6A 58E0 7612/0DEE       0318C 19574  1                      ACALL WRDERROR
 002D70 41F0 0004            00004 19578  1                      LA    R15,4
 002D74 47F0 74E2            0305C 19579  1                      B     WCATDONE
 002D78                            19580                       END
                                   19584              *
                                   19585              *  Loop, processing the lines and storing them into
                                   19586              *  pages.
                                   19587              *
                                   19588            C          IF    ((R0,GE,L'WGSBKHDR),AND,
 002D78 5900 760E/4750_      03188                                   (@R1,EQ,'DATA:           ')),BEGIN
 002D8A 9001 D000/41D0_      00000 19620  1                      XPUSH R0,R1
 002D92 58E0 7616/0DEE       03190 19623  1                      VCALL PGETNEW
 002D98 4770 723A            02DB4 19627  1                      IF    Z,BEGIN
 002D9C 5000 4194            00194 19638  2                        ST    R0,SHCTPAGS
 002DA0 D201 4190 764E 00190 031C8 19639  2                        MVC   SHCTPGCT,=H'1'
 002DA6 D201 9000 764E 00000 031C8 19640  2                        MVC   0(2,PAR),=H'1'          Initialize it for PGAPPEND
 002DAC 4BD0 7650/9801_      031CA 19641  2                        XPOP  R0,R1
 002DB4                            19644  1                      END
 002DB4 723E/47F0 724A 02DB4 02D9A 19648  1                      ELSE  BEGIN
 002DB8 4BD0 7650/9801_      031CA 19659  2                        XPOP  R0,R1
 002DC0 47F0 736A            02EE4 19662  2                        B     WGSCTFLS                 Flush the rest
 002DC4                            19663  1                      END
 002DC4                            19667                       END
                                   19671
                                   19672            C          WHILE ((SHCTPGCT,LT,SHCTMXPG),AND,
                                                    C                (R0,GE,L'WGSBKHDR),AND,
 002DC4 D501 7652 4190_031CC 00190                                   (@R1,EQ,'DATA:           ')),BEGIN
 002DE0 9001 D000/41D0_      00000 19721  1                      XPUSH R0,R1
 002DE8 5A10 761A            03194 19724  1                      A     R1,=AL4(L'WGSBKHDR)     Skip over block header
 002DEC 5B00 761A            03194 19725  1                      S     R0,=AL4(L'WGSBKHDR)
 002DF0 4120 4000            00000 19726  1                      LA    R2,SHCTARGS
 002DF4 58E0 761E/0DEE       03198 19727  1                      ACALL CATLINOK
 002DFA 12FF/4770 72EA             19731  1                      IF    (R15,Z),BEGIN
 002E00 58E0 7622/0DEE       0319C 19745  2                        ACALL PGAPPEND            Now append the line
 002E06 4780 72EA            02E64 19749  2                        IF    NZ,BEGIN            Oops - no room on this page
 002E0A 4830 9000            00000 19760  3                          LH    R3,@PAR             Adjust the page count
 002E0E 0630                       19761  3                          DECR  R3                   to remove the additional
 002E10 4030 9000            00000 19763  3                          STH   R3,@PAR               end-of-page marker
1WGS      (WGS2193) (13:01) (15MAR04) Show catalog                                                                          Page   51
0Current Usings:  (SHCTARGS,R4) (WGSWA,R5) (FFINFO,R6) (*,R7) (CP,R11) (CV,R12)
0Loc    Object Code    Addr1 Addr2  Stmt Lv Lineno    Source Statement           (Hibal 5, Asmedit 3.3)  HLASM R4.0  2004/03/15 13.01
+___    ______ ____    _____ _____  ____ __ ______    ______ _________
0002E14 58E0 7626/0DEE       031A0 19764  3                          PMARK PAR                 Mark page changed
 002E1A 58E0 7616/0DEE       03190 19769  3                          VCALL PGETNEW               and get a new one
 002E20 4770 72DA            02E54 19773  3                          IF    Z,BEGIN
 002E24 4810 4190            00190 19784  4                            LH    R1,SHCTPGCT
 002E28 4110 1001            00001 19785  4                            LA    R1,1(,R1)
 002E2C 4010 4190            00190 19786  4                            STH   R1,SHCTPGCT
 002E30 8910 0002            00002 19787  4                            SLL   R1,2
 002E34 5001 4190            00190 19788  4                            ST    R0,SHCTPAGS-4(R1)   Save the page id
 002E38 D201 9000 764E 00000 031C8 19789  4                            MVC   0(2,PAR),=H'1'      Initialize it for PGAPPEND
 002E3E 4BD0 7650/9801_      031CA 19790  4                            XPOP  R0,R1
 002E46 5A10 761A            03194 19793  4                            A     R1,=AL4(L'WGSBKHDR)     Skip over block header
 002E4A 5B00 761A            03194 19794  4                            S     R0,=AL4(L'WGSBKHDR)
 002E4E 58E0 7622/0DEE       0319C 19795  4                            ACALL PGAPPEND            Now append the line
 002E54                            19799  3                          END
 002E54 72DE/47F0 72EA 02E54 02E22 19803  3                          ELSE  BEGIN
 002E58 4BD0 7650/9801_      031CA 19814  4                            XPOP  R0,R1
 002E60 47F0 736A            02EE4 19817  4                            B     WGSCTFLS            Flush the rest
 002E64                            19818  3                          END
 002E64                            19822  2                        END
 002E64                            19826  1                      END
 002E64 58E0 760A/0DEE       03184 19830  1                      ACALL WPREAD              Read the next line
 002E6A 4780 72FC            02E76 19834  1                      IF    NZ,BEGIN
 002E6E 41F0 0004            00004 19845  2                        LA    R15,4
 002E72 47F0 74E2            0305C 19846  2                        B     WCATDONE
 002E76                            19847  1                      END
 002E76 47F0 724A            02DC4 19851                       END
                                   19856              *
                                   19857              * This loop is entered when we've allocated the maximum pages
                                   19858              * and we're adding entries to the last page.
                                   19859              *
                                   19860            C          WHILE ((R0,GE,L'WGSBKHDR),AND,
 002E7A 5900 760E/4750_      03188                                   (@R1,EQ,'DATA:           ')),BEGIN
 002E8C 9001 D000/41D0_      00000 19894  1                      XPUSH R0,R1
 002E94 5A10 761A            03194 19897  1                      A     R1,=AL4(L'WGSBKHDR)     Skip over block header
 002E98 5B00 761A            03194 19898  1                      S     R0,=AL4(L'WGSBKHDR)
 002E9C 4120 4000            00000 19899  1                      LA    R2,SHCTARGS
 002EA0 58E0 761E/0DEE       03198 19900  1                      ACALL CATLINOK
 002EA6 12FF/4770 7348             19904  1                      IF    (R15,Z),BEGIN
 002EAC 58E0 7622/0DEE       0319C 19918  2                        ACALL PGAPPEND            Append the line
 002EB2 4780 7348            02EC2 19922  2                        IF    NZ,BEGIN            Oops - no room on this page
 002EB6 4BD0 7650/9801_      031CA 19933  3                          XPOP  R0,R1
 002EBE 47F0 736A            02EE4 19936  3                          B     WGSCTFLS             so we'll have to flush the rest.
 002EC2                            19937  2                        END
 002EC2                            19941  1                      END
 002EC2 4BD0 7650/9801_      031CA 19945  1                      XPOP  R0,R1
 002ECA 58E0 760A/0DEE       03184 19948  1                      ACALL WPREAD              Read another line
 002ED0 4780 7362            02EDC 19952  1                      IF    NZ,BEGIN
 002ED4 41F0 0004            00004 19963  2                        LA    R15,4
 002ED8 47F0 74E2            0305C 19964  2                        B     WCATDONE
 002EDC                            19965  1                      END
 002EDC 47F0 7300            02E7A 19969                       END
                                   19974
 002EE0 47F0 7396            02F10 19975                       B     WCATLAST            Handle last message
                                   19976              *
1WGS      (WGS2193) (13:01) (15MAR04) Show catalog                                                                          Page   52
0Current Usings:  (SHCTARGS,R4) (WGSWA,R5) (FFINFO,R6) (*,R7) (CP,R11) (CV,R12)
0Loc    Object Code    Addr1 Addr2  Stmt Lv Lineno    Source Statement           (Hibal 5, Asmedit 3.3)  HLASM R4.0  2004/03/15 13.01
+___    ______ ____    _____ _____  ____ __ ______    ______ _________
0                                  19977              * We come here to flush excess catalog entries.
                                   19978              *
                                   19979              *
 002EE4 9640 502B      0002B       19980              WGSCTFLS SET   WGSFLUSH
                                   19987            C          WHILE ((R0,GE,L'WGSBKHDR),AND,
 002EE8 5900 760E/4750_      03188                                   (@R1,EQ,'DATA:           ')),BEGIN
 002EFA 58E0 760A/0DEE       03184 20021  1                      ACALL WPREAD              Read another line
 002F00 4780 7392            02F0C 20025  1                      IF    NZ,BEGIN
 002F04 41F0 0004            00004 20036  2                        LA    R15,4
 002F08 47F0 74E2            0305C 20037  2                        B     WCATDONE
 002F0C                            20038  1                      END
 002F0C 47F0 736E            02EE8 20042                       END
                                   20047              *
                                   20048              *
 002F10                            20049              WCATLAST LABEL
 002F10 5900 760E/47B0_      03188 20051                       IF    (R0,LT,L'WGSBKHDR),BEGIN
 002F18 4110 7656/4100_      031D0 20068  1                      TSEG  'WINGS path error.  Unable to display catalog.'
 002F2A 58E0 762A/0DEE       031A4 20086  1                      ACALL WPCLOSE
                                   20090  1           *
                                   20091  1           * Release the page array
                                   20092  1           *
 002F30 1299/4780 73D8             20093  1                      IF    (PAR,NZ),BEGIN
 002F36 58E0 762E/0DEE       031A8 20107  2                        PFREE PAR,EMPTY
 002F3C 4800 4190            00190 20113  2                        LH    R0,SHCTPGCT
 002F40 0600                       20114  2                        DECR  R0                  Adjust for page we just freed
 002F42 4110 4194            00194 20116  2                        LA    R1,SHCTPAGS
 002F46 58E0 7632/0DEE       031AC 20117  2                        ACALL PGRELS
 002F4C D701 4190 4190 00190 00190 20121  2                        CLEAR SHCTPGCT
 002F52                            20128  1                      END
 002F52 41F0 0004            00004 20132  1                      LA    R15,4
 002F56 47F0 74E2            0305C 20133  1                      B     WCATDONE
 002F5A                            20134                       END
                                   20138              *
                                   20139              *   Look for Error.
                                   20140              *
                                   20141                       COMMENT                   CHECK FOR WINGS ERROR RETURN
                                   20142            C          IF    ((R0,GT,L'WGSBKHDR),AND,
 002F5A 5900 760E/47D0_      03188                                   (@R1,EQ,'FILE_ERROR:     ')),BEGIN
 002F6C 58E0 7612/0DEE       0318C 20174  1                      ACALL WRDERROR
                                   20178  1           *
                                   20179  1           * Release the page array
                                   20180  1           *
 002F72 1299/4780 741A             20181  1                      IF    (PAR,NZ),BEGIN
 002F78 58E0 762E/0DEE       031A8 20195  2                        PFREE PAR,EMPTY
 002F7E 4800 4190            00190 20201  2                        LH    R0,SHCTPGCT
 002F82 0600                       20202  2                        DECR  R0                  Adjust for page we just freed
 002F84 4110 4194            00194 20204  2                        LA    R1,SHCTPAGS
 002F88 58E0 7632/0DEE       031AC 20205  2                        ACALL PGRELS
 002F8E D701 4190 4190 00190 00190 20209  2                        CLEAR SHCTPGCT
 002F94                            20216  1                      END
 002F94 41F0 0004            00004 20220  1                      LA    R15,4
 002F98 47F0 74E2            0305C 20221  1                      B     WCATDONE
 002F9C                            20222                       END
                                   20226              *
1WGS      (WGS2193) (13:01) (15MAR04) Show catalog                                                                          Page   53
0Current Usings:  (SHCTARGS,R4) (WGSWA,R5) (FFINFO,R6) (*,R7) (CP,R11) (CV,R12)
0Loc    Object Code    Addr1 Addr2  Stmt Lv Lineno    Source Statement           (Hibal 5, Asmedit 3.3)  HLASM R4.0  2004/03/15 13.01
+___    ______ ____    _____ _____  ____ __ ______    ______ _________
0                                  20227              * Command completed successfully, process the final message
                                   20228              * (if any) on the FILE_EOF: message.
                                   20229              *
                                   20230                       COMMENT                   SCAN/PROCESS RETURNS
 002F9C 4111 0010            00010 20231                       LA    R1,L'WGSBKHDR(R1)
 002FA0 5B00 761A            03194 20232                       S     R0,=AL4(L'WGSBKHDR)
 002FA4 58E0 B08C/D2AF_      0008C 20233                       SCPUSH ,
 002FB2 58E0 B08C/D7AF_      0008C 20239                       SCCLR
 002FBE 58E0 B08C/501E_      0008C 20248                       SCINIT (R1),(R0)
 002FCC 5810 B08C/1B00_      0008C 20268                       SCAN  WGSEPRT
 00301E 58E0 B08C/4BD0_      0008C 20300                       SCPOP ,
 00302C 12FF/4780 74C6             20306                       IF    (R15,NZ),BEGIN      BAD OPTION ON DIRECTORY
 003032 58E0 762A/0DEE       031A4 20320  1                      ACALL WPCLOSE
 003038 41F0 0004            00004 20324  1                      LA    R15,4
 00303C 47F0 74E2            0305C 20325  1                      B     WCATDONE
 003040                            20326                       END
 003040 74CA/47F0 74D0 03040 03030 20330                       ELSE  BEGIN
 003044 58E0 762A/0DEE       031A4 20341  1                      ACALL WPCLOSE
 00304A                            20345                       END
                                   20349              *
                                   20350              *  Everything OK if we get here.
                                   20351              *
 00304A 9140 502B/47E0_0002B       20352                       IF    (WGSFLUSH),BEGIN
 003052 41F0 0008            00008 20367  1                      LA    R15,8
 003056                            20368                       END
 003056 74E0/47F0 74E2 03056 03050 20372                       ELSE  BEGIN
 00305A 1BFF                       20383  1                      CLEAR R15
 00305C                            20387                       END
                                   20391
 00305C                            20392              WCATDONE LABEL ,
 00305C 50F0 D000/41D0_      00000 20394                       XPUSH R15
 003064 58E0 763A/0DEE       031B4 20397                       ACALL RLSWA
 00306A 4BD0 7654/58F0_      031CE 20401                       XPOP  R15
 003072 5820 C1C8            001C8 20404                       L     R2,CVCURJCB
 003076 94BF 2062      00062       20405                       WITH  (JCB,R2),' CLEAR JCBFNATN '
 USING  JCB,R2
 DROP   JCB,R2
 00307A 18D8/9808 D004_            20435                       PEND  ,
 DROP   *,R7
 DROP   SHCTARGS,R4                20455                       DROP  R4
                                   20462
 003088 4040404040404040_          20463              SHOCTOPT SCKW ,VOLPSH,PUSH
 0030B0 4040404040404040_          20478                       SCKW ,NACCTPSH,PUSH
 0030D8 4040404040404040_          20493                       SCKW ,V(NOTVALID)
                                   20508
                                   20509                       QLTORG
1WGS      (WGS2193) (13:01) (15MAR04) Show catalog                                                                          Page   54
0Current Usings:  (WGSWA,R5) (FFINFO,R6) (CP,R11) (CV,R12)
0Loc    Object Code    Addr1 Addr2  Stmt Lv Lineno    Source Statement           (Hibal 5, Asmedit 3.3)  HLASM R4.0  2004/03/15 13.01
+___    ______ ____    _____ _____  ____ __ ______    ______ _________
0                                  20560              *
                                   20561              *
                                   20562              *  WGSALLOC - WINGS ALLOCATE
                                   20563              *
                                   20564              *  ON ENTRY:
                                   20565              *  FFINFO DSECT CONTAINS FILE NAME/FORMAT/OPTIONS AND
                                   20566              *  FILE SYSTEM INFORMATION.
                                   20567              *
                                   20568              *  ON EXIT:
                                   20569              *  R15=0, ALL OK
                                   20570              *  R15=NZ, CPERRID CONTAINS ERROR, MSG TSEG'D
                                   20571              *
                                   20572              *  CAUTION!:
                                   20573              *  SOME SCANNING ERRORS EXIT VIA CVERROR
                                   20574              *  (THIS COULD BE CHANGED AND FIXED.)
                                   20575              *
                                   20576              *
 0031FE 50E0 D000/9008_      00000 20577              WGSALLOC XPROC ,
 USING  *,R7
 003218 5860 BE54            00E54 20617                       L     R6,CPFINFOP
                                   20618                       USING FFINFO,R6
                                   20620
 00321C D503 7678 6214_03890 00214 20621                       IF    (FFRNAMEL,EQ,0),BEGIN
 003226 D207 B886 7680 00886 03898 20639  1                      MVC   CPERRID,=CL8'NOFNAME'
 00322C 4110 7770/4100_      03988 20640  1                      TSEG  'Missing file name.'
 00323E 41F0 0004            00004 20658  1                      LA    R15,4
 003242 47F0 7662            0387A 20659  1                      B     WALLDON1
 003246                            20660                       END
                                   20664
                                   20665                       COMMENT                   GET CLEAR WINGS WORKAREA
 003246 58E0 76D4/0DEE       038EC 20666                       ACALL GETWA
 00324C 1851                       20670                       LR    R5,R1
                                   20671                       USING WGSWA,R5
                                   20673
                                   20674                       COMMENT                   PASS ALLOCATE INFO TO WINGS
                                   20675                       COMMENT
                                   20676
                                   20677                       COMMENT                   PASS NAME
                                   20678
                                   20679                    Send FILE_ALLOCATE: NAME=<filename> NTYPE=EXACT
                                   20680
 00324E 5840 5050            00050 20681                       L     R4,WGWTBLK
 003252 D20F 4000 7688 00000 038A0 20682                       MVC   @R4(L'WGSBKHDR),=CL16'FILE_ALLOCATE:  '
 003258 4110 7806/4100_      03A1E 20683                       SEG   'NAME=',,WGSSG
 00326A 4110 6218/5800_      00218 20700                       SEG   FFRNAME,L:FFRNAMEL,WGSSG
                                   20727
                                   20728                       COMMENT                   SET NTYPE=EXACT
 00327C 4110 76D8/4100_      038F0 20729                       SEG   ' NTYPE=EXACT'
                                   20746                       COMMENT                   PROCESS 'ON VOLUME'
                                   20747                       COMMENT
 00328E 58E0 76E4/0DEE       038FC 20748                       ACALL CATHACK             IF VOL=CATLG, CLEAR IT
 003294 58E0 76E8/0DEE       03900 20752                       ACALL CVOLHACK            CHECK FOR 'SAVE *' CUR VOL HACK
 00329A D603 608C 608C_0008C 0008C 20756                       IF    (FFHOSTL,NZ),BEGIN
 0032A4 D503 76EC 608C_03904 0008C 20772  1                      IF    (FFHOSTL,NE,6),BEGIN   ALLOW no host names
1WGS      (WGS2193) (13:01) (15MAR04) Show catalog                                                                          Page   55
0Current Usings:  (WGSWA,R5) (FFINFO,R6) (*,R7) (CP,R11) (CV,R12)
0Loc    Object Code    Addr1 Addr2  Stmt Lv Lineno    Source Statement           (Hibal 5, Asmedit 3.3)  HLASM R4.0  2004/03/15 13.01
+___    ______ ____    _____ _____  ____ __ ______    ______ _________
00032AE 4110 6090/5800_      00090 20790  2                        TSEG  FFHOST,L:FFHOSTL
 0032C0 4110 7782/4100_      0399A 20818  2                        TSEG  ': invalid volume name.'
 0032D2 41F0 0004            00004 20836  2                        LA    R15,4
 0032D6 47F0 7646            0385E 20837  2                        B     WALLDONE
 0032DA                            20838  1                      END
 0032DA 4110 780B/4100_      03A23 20842  1                      SEG   ' VOL='
 0032EC 4110 6090/5800_      00090 20859  1                      SEG   FFHOST,L:FFHOSTL
 0032FE                            20886                       END
                                   20890
                                   20891                       COMMENT                   CHECK ACCESS, IF OK, SET RACF=NO
 0032FE 58E0 76F0/0DEE       03908 20892                       ACALL CKACCESS
 003304 4770 70F4            0330C 20896                       IF    Z,BEGIN
 003308 9610 6002      00002       20907  1                      SET   FFFNRACF
 00330C                            20913                       END
                                   20917
                                   20918                       COMMENT                   IF PASSWORD GIVEN,
 00330C 9180 6002/47E0_00002       20919                       IF    FFFPASSW,BEGIN
 003314 4110 76F4/4100_      0390C 20934  1                      SEG   ' PASSCHK=YES'
 003326                            20951                       END
                                   20955
                                   20956                       COMMENT                   IF NORACF, SKIP RACF CHECK
 003326 9110 6002/47E0_00002       20957                       IF    FFFNRACF,BEGIN
 00332E 4110 7698/4100_      038B0 20972  1                      SEG   ' RACF=NO'
 003340                            20989                       END
                                   20993
                                   20994                       COMMENT                   IF DIFFVOL OK,
 003340 9140 6002/47E0_00002       20995                       IF    FFFDIFFV,BEGIN
 003348 4110 7810/4100_      03A28 21010  1                      SEG   ' VOLCHK=YES'
 00335A                            21027                       END
                                   21031                       COMMENT                   PROCESS OPTIONS
                                   21032              *
                                   21033              *  Indicate nothing specified yet
                                   21034              *
 00335A D203 5018 7700 00018 03918 21035                       MVC   WGSPRQTY,=F'-1'
 003360 D203 501C 7700 0001C 03918 21036                       MVC   WGSSCQTY,=F'-1'
 003366 D203 5020 7700 00020 03918 21037                       MVC   WGSDRBLK,=F'-1'
 00336C 9640 5028      00028       21038                       SET   WGSFTRK
                                   21044
 003370 58E0 B08C/D2AF_      0008C 21045                       SCPUSH ,
 00337E 58E0 B08C/D7AF_      0008C 21051                       SCCLR
 00338A 4110 6114/5800_      00114 21060                       SCINIT FFOPTS,L:FFOPTSL
 0033A0 5810 B08C/1B00_      0008C 21084                       SCAN  ALLOOPTS
 0033F2 58E0 770C/0DEE       03924 21116                       SCANCHK                   * ERR EXIT TO CVNEXT INDIRECTLY
 0033F8 58E0 B08C/4BD0_      0008C 21121                       SCPOP ,
 003406 12FF/4780 7202             21127                       IF    (R15,NZ),BEGIN
 00340C D207 B886 76A0 00886 038B8 21141  1                      MVC   CPERRID,=CL8'SYNTAX'
 003412 41F0 0004            00004 21142  1                      LA    R15,4
 003416 47F0 7646            0385E 21143  1                      B     WALLDONE
 00341A                            21144                       END
                                   21148              *
                                   21149              *
                                   21150              *   Check out specified allocations or set defaults, which are:
                                   21151              *
                                   21152              *   For a PDS:
1WGS      (WGS2193) (13:01) (15MAR04) Show catalog                                                                          Page   56
0Current Usings:  (WGSWA,R5) (FFINFO,R6) (*,R7) (CP,R11) (CV,R12)
0Loc    Object Code    Addr1 Addr2  Stmt Lv Lineno    Source Statement           (Hibal 5, Asmedit 3.3)  HLASM R4.0  2004/03/15 13.01
+___    ______ ____    _____ _____  ____ __ ______    ______ _________
0                                  21153              *
                                   21154              *        Primary quantity = 10 tracks
                                   21155              *
                                   21156              *   For a sequential dataset:
                                   21157              *
                                   21158              *        Primary quantity = 1 track
                                   21159              *
                                   21160              *   For both, secondary quantity = 1/2 primary.
                                   21161              *
 00341A 58F0 5018/12FF       00018 21162                       LT    R15,WGSPRQTY
 003420 47B0 7226            0343E 21166                       IF    (NEG),BEGIN
 003424 5800 5020/1200       00020 21177  1                      LT    R0,WGSDRBLK
 00342A 4770 721A/41F0_      03432 21181  1                      IF    (Z),'LA R15,1'
 003432 721E/47F0 7222_03432 0342C 21198  1                      ELSE  'LA R15,10'
 00343A 50F0 5018            00018 21215  1                      ST    R15,WGSPRQTY
 00343E                            21216                       END
                                   21220
 00343E 5800 501C/1200       0001C 21221                       LT    R0,WGSSCQTY
 003444 47B0 7246            0345E 21225                       IF    (NEG),BEGIN
 003448 9140 5028/47E0_00028       21236  1                      IF    WGSFTRK,BEGIN
 003450 88F0 0001            00001 21251  2                        SRL   R15,1
 003454                            21252  1                      END
 003454 7240/47F0 7242 03454 0344E 21256  1                      ELSE  BEGIN
 003458 1BFF                       21267  2                        CLEAR R15                 Can't make a good guess
 00345A                            21271  1                      END
 00345A 50F0 501C            0001C 21275  1                      ST    R15,WGSSCQTY
 00345E                            21276                       END
                                   21280
 00345E 9120 BD58/47E0_00D58       21281                       IF    CPFVER,BEGIN        Verify (default)...
 003466 9110 5028/47E0_00028       21296  1                      IF    WGSFMB,BEGIN
 00346E 58F0 5018            00018 21311  2                        L     R15,WGSPRQTY        No. of megabytes to allocate
 003472 59F0 7710/47D0_      03928 21312  2                        IF    (R15,GT,50),BEGIN  Be reasonable...
 00347A 181F/1B00/41F0_            21329  3                          TNUM  (R15)
 003488 4110 781B/4100_      03A33 21351  3                          TSEG  ' megabytes is a lot of space.',,CR
 00349A 4110 771C/4100_      03934 21369  3                          SETMSG 'Are you sure'
 0034A2 58E0 7728/0DEE       03940 21373  3                          VCALL YESREQ
 0034A8                            21377  2                        END
 0034A8                            21381  1                      END
 0034A8 7294/47F0 729C_034A8 0346C 21385  1                      ELSEIF WGSFKB,BEGIN
 0034B4                            21409  1                      END
 0034B4 72A0/47F0 72E2_034B4 034B2 21413  1                      ELSEIF WGSFCYL,BEGIN
 0034C0 58F0 5018            00018 21437  2                        L     R15,WGSPRQTY        No. of cylinders to allocate
 0034C4 59F0 772C/47D0_      03944 21438  2                        IF    (R15,GT,20),BEGIN  Be reasonable...
 0034CC 181F/1B00/41F0_            21455  3                          TNUM  (R15)
 0034DA 4110 7838/4100_      03A50 21477  3                          TSEG  ' cylinders is a lot of space.',,CR
 0034EC 4110 771C/4100_      03934 21495  3                          SETMSG 'Are you sure'
 0034F4 58E0 7728/0DEE       03940 21499  3                          VCALL YESREQ
 0034FA                            21503  2                        END
 0034FA                            21507  1                      END
 0034FA 72E6/47F0 7320 034FA 034BE 21511  1                      ELSE  BEGIN
 0034FE 58F0 5018            00018 21522  2                        L     R15,WGSPRQTY        No. of tracks to allocate
 003502 59F0 7730/47D0_      03948 21523  2                        IF    (R15,GT,300),BEGIN  Be reasonable...
 00350A 181F/1B00/41F0_            21540  3                          TNUM  (R15)
 003518 4110 779C/4100_      039B4 21562  3                          TSEG  ' tracks is a lot of space.',,CR
1WGS      (WGS2193) (13:01) (15MAR04) Show catalog                                                                          Page   57
0Current Usings:  (WGSWA,R5) (FFINFO,R6) (*,R7) (CP,R11) (CV,R12)
0Loc    Object Code    Addr1 Addr2  Stmt Lv Lineno    Source Statement           (Hibal 5, Asmedit 3.3)  HLASM R4.0  2004/03/15 13.01
+___    ______ ____    _____ _____  ____ __ ______    ______ _________
000352A 4110 771C/4100_      03934 21580  3                          SETMSG 'Are you sure'
 003532 58E0 7728/0DEE       03940 21584  3                          VCALL YESREQ
 003538                            21588  2                        END
 003538                            21592  1                      END
 003538                            21596                       END
                                   21600              *
                                   21601              *  Final option checking and processing
                                   21602              *
                                   21603              *
                                   21604              *  ** DEBUG ** lrecl=nn for recfm=f lrecl=nn is UGLY !!
                                   21605              *  not as ugly as (nnn) for BLKSIZE (see above) but still
                                   21606              *  ugly.  if we have lrecl and no recfm, we set recfm=f
                                   21607                       COMMENT                   DO IT
 003538 D503 7678 500C_03890 0000C 21608                       IF    ((WGSLRECL,NE,0),AND,(WGSRECFM,EQ,0)),BEGIN
 00354A 9640 5029      00029       21643  1                      SET   WGSFF
 00354E 4110 76A8/4100_      038C0 21649  1                      SEG   ' RECFM=F',,WGSSG
 003560                            21666                       END
                                   21670
                                   21671                       COMMENT                   VALIDITY CHECK OPTIONS
                                   21672            C          IF    ((WGSFINT,OR,WGSFNUM,OR,WGSFSEQ),AND,
 003560 9120 502A/4710_0002A                                         (WGSFV,OR,WGSFEDIT)),BEGIN
 003588 4110 77B6/4100_      039CE 21741  1                      ERROR 'NUMBER/INTEGER must be used with LRECL option.'
 003594                            21748                       END
                                   21752            C          IF    ((WGSFINT,OR,WGSFNUM,OR,WGSFSEQ),AND,
 003594 9120 502A/4710_0002A                                         (WGSLRECL,EQ,0)),BEGIN
 0035B6 9640 5029      00029       21810  1                      SET   WGSFF
 0035BA 4100 0050            00050 21816  1                      LA    R0,80
 0035BE 5000 500C            0000C 21817  1                      ST    R0,WGSLRECL
 0035C2 4110 77E4/4100_      039FC 21818  1                      SEG   ' RECFM=F LRECL=80 ',,WGSSG
 0035D4                            21835                       END
                                   21839
 0035D4 4110 77F6/4100_      03A0E 21840                       SEG   ' ALOCUNIT=',,WGSSG
 0035E6 9110 5028/47E0_00028       21857                       IF    WGSFMB,BEGIN
 0035EE 4110 7800/4100_      03A18 21872  1                      SEG   'MB',,WGSSG
 003600                            21889                       END
 003600 73EC/47F0 7406_03600 035EC 21893                       ELSEIF WGSFCYL,BEGIN
 00360C 4110 7855/4100_      03A6D 21917  1                      SEG   'CYL',,WGSSG
 00361E                            21934                       END
 00361E 740A/47F0 7424_0361E 0360A 21938                       ELSEIF WGSFKB,BEGIN
 00362A 4110 7802/4100_      03A1A 21962  1                      SEG   'KB',,WGSSG
 00363C                            21979                       END
 00363C 7428/47F0 743A 0363C 03628 21983                       ELSE  BEGIN
 003640 4110 7858/4100_      03A70 21994  1                      SEG   'TRK',,WGSSG
 003652                            22011                       END
                                   22015
 003652 4110 76B0/4100_      038C8 22016                       SEG   ' PRIQTY=',,WGSSG
 003664 5810 5018            00018 22033                       L     R1,WGSPRQTY
 003668 1B00                       22034                       CLEAR R0
 00366A 41F0 5058/58E0_      00058 22038                       SEGDC (R1),(R0),WGSSG
                                   22058
 003674 5830 501C/1233       0001C 22059                       LT    R3,WGSSCQTY
 00367A 1233/47D0 7488             22063                       IF    (R3,POS),BEGIN
 003680 4110 76B8/4100_      038D0 22077  1                      SEG   ' SECQTY=',,WGSSG
 003692 1B00                       22094  1                      CLEAR R0
1WGS      (WGS2193) (13:01) (15MAR04) Show catalog                                                                          Page   58
0Current Usings:  (WGSWA,R5) (FFINFO,R6) (*,R7) (CP,R11) (CV,R12)
0Loc    Object Code    Addr1 Addr2  Stmt Lv Lineno    Source Statement           (Hibal 5, Asmedit 3.3)  HLASM R4.0  2004/03/15 13.01
+___    ______ ____    _____ _____  ____ __ ______    ______ _________
0003694 1813/41F0 5058_            22098  1                      SEGDC (R3),(R0),WGSSG
 0036A0                            22119                       END
                                   22123              *
                                   22124              *  If directory blocks not specified for PDS,
                                   22125              *  then check the allocation type. If it's tracks,
                                   22126              *  set the number of blocks to min(320,max(32,WGSPRQTY)).
                                   22127              *  If allocation is some other type, just pick 32 for
                                   22128              *  now. The user should really set it.
                                   22129              *
 0036A0 5810 5020/1211       00020 22130                       LT    R1,WGSDRBLK
 0036A6 47B0 74BE            036D6 22134                       IF    NEG,BEGIN
 0036AA 9140 5028/47E0_00028       22145  1                      IF    WGSFTRK,BEGIN
 0036B2 5810 5018            00018 22160  2                        L     R1,WGSPRQTY
 0036B6 5910 7734/47B0_      0394C 22161  2                        FLOOR R1,32               At least 32 dir blocks
 0036C2 5910 7738/47D0_      03950 22180  2                        CEIL  R1,320              Be reasonable
 0036CE                            22199  1                      END
 0036CE 74BA/47F0 74BE 036CE 036B0 22203  1                      ELSE  BEGIN
 0036D2 4110 0020            00020 22214  2                        LA    R1,32
 0036D6                            22215  1                      END
 0036D6                            22219                       END
                                   22223
 0036D6 5910 773C/47D0_      03954 22224                       IF    (R1,GT,0),BEGIN
 0036DE 5010 D000/41D0_      00000 22241  1                      XPUSH R1
 0036E6 9108 5028/47E0_00028       22244  1                      IF    WGSFMEMB,BEGIN
 0036EE 4110 785B/4100_      03A73 22259  2                        SEG   ' DIRMEMS=',,WGSSG
 003700                            22276  1                      END
 003700 74EC/47F0 74FE 03700 036EC 22280  1                      ELSE  BEGIN
 003704 4110 7864/4100_      03A7C 22291  2                        SEG   ' DIRBLKS=',,WGSSG
 003716                            22308  1                      END
 003716 4BD0 7804/5810_      03A1C 22312  1                      XPOP  R1
 00371E 1B00                       22315  1                      CLEAR R0
 003720 41F0 5058/58E0_      00058 22319  1                      SEGDC (R1),(R0),WGSSG
 00372A                            22339                       END
                                   22343                       COMMENT
 00372A 58E0 7740/0DEE       03958 22344                       ACALL WPOPEN              OPEN PHYSICAL PATH
 003730 12FF/4780 7526             22348                       IF    (R15,NZ),BEGIN
 003736 41F0 0004            00004 22362  1                      LA    R15,4
 00373A 47F0 7646            0385E 22363  1                      B     WALLDONE
 00373E                            22364                       END
                                   22368
 00373E 5840 C1C8            001C8 22369                       L     R4,CVCURJCB
 003742 9640 4062      00062       22370                       WITH  (JCB,R4),' SET JCBFNATN '  NO ATTN ALLOWED ON ALLOC
 USING  JCB,R4
 DROP   JCB,R4
                                   22399
                                   22400                       COMMENT                   NOW OPEN WINGS CONNECTION
                                   22401
                                   22402                       COMMENT                   SEND THE COMMAND
                                   22403
 003746 1B00/41F0 5058_            22404                       SEGWR ,,WGSSG
                                   22428
                                   22429                       COMMENT                   PROCESS THE RETURN
 003752 58E0 7748/0DEE       03960 22430                       ACALL WPREAD
 003758 4780 754C            03764 22434                       IF    NZ,BEGIN
1WGS      (WGS2193) (13:01) (15MAR04) Show catalog                                                                          Page   59
0Current Usings:  (WGSWA,R5) (FFINFO,R6) (*,R7) (CP,R11) (CV,R12)
0Loc    Object Code    Addr1 Addr2  Stmt Lv Lineno    Source Statement           (Hibal 5, Asmedit 3.3)  HLASM R4.0  2004/03/15 13.01
+___    ______ ____    _____ _____  ____ __ ______    ______ _________
000375C 41F0 0004            00004 22445  1                      LA    R15,4
 003760 47F0 7646            0385E 22446  1                      B     WALLDONE
 003764                            22447                       END
                                   22451                       COMMENT                   CHECK FOR WINGS ERROR RETURN
 003764 5900 774C/4750_      03964 22452                       IF    ((R0,GE,16),AND,(@R1,EQ,'FILE_ERROR:     ')),BEGIN
 003776 58E0 7750/0DEE       03968 22484  1                      ACALL WRDERROR
 00377C 41F0 0004            00004 22488  1                      LA    R15,4
 003780 47F0 7646            0385E 22489  1                      B     WALLDONE
 003784                            22490                       END
                                   22494
                                   22495                       COMMENT
                                   22496            C          IF    ((R0,LT,L'WGSBKHDR),OR,
 003784 5900 7754/4740_      0396C                                   (@R1,NE,'FILE_ALLOCATED:')),BEGIN
 003796 58E0 7758/0DEE       03970 22528  1                      VCALL LOGCMD
 00379C 1BFF                       22532  1                      CLEAR R15
 00379E 58E0 775C/0DEE       03974 22536  1                      VCALL LOGEVENT
 0037A4 4110 787C/4100_      03A94 22540  1                      TSEG  'WINGS path error.  Unable to allocate file.'
 0037B6 41F0 0004            00004 22558  1                      LA    R15,4
 0037BA 47F0 7646            0385E 22559  1                      B     WALLDONE
 0037BE                            22560                       END
                                   22564
                                   22565                       COMMENT                   SCAN/PROCESS RETURNS
 0037BE 4111 0010            00010 22566                       LA    R1,L'WGSBKHDR(R1)
 0037C2 5B00 7760            03978 22567                       S     R0,=AL4(L'WGSBKHDR)
 0037C6 58E0 B08C/D2AF_      0008C 22568                       SCPUSH ,
 0037D4 58E0 B08C/D7AF_      0008C 22574                       SCCLR
 0037E0 58E0 B08C/501E_      0008C 22583                       SCINIT (R1),(R0)
 0037EE 5810 B08C/1B00_      0008C 22603                       SCAN  WGSAPRT
 003840 58E0 B08C/4BD0_      0008C 22635                       SCPOP ,
 00384E 12FF/4780 7644             22641                       IF    (R15,NZ),BEGIN      BAD OPTION ON ALLOCATE
 003854 41F0 0004            00004 22655  1                      LA    R15,4
 003858 47F0 7646            0385E 22656  1                      B     WALLDONE
 00385C                            22657                       END
                                   22661              *
                                   22662              *  Everything OK if we get here.
                                   22663              *
 00385C 1BFF                       22664                       CLEAR R15
                                   22668
 00385E                            22669              WALLDONE LABEL ,
 00385E 50F0 D000/41D0_      00000 22671                       XPUSH R15
 003866 58E0 7768/0DEE       03980 22674                       ACALL WPCLOSE             CLOSE THE PATH
 00386C 58E0 776C/0DEE       03984 22678                       ACALL RLSWA
 003872 4BD0 7804/58F0_      03A1C 22682                       XPOP  R15
 00387A 5840 C1C8            001C8 22685              WALLDON1 L     R4,CVCURJCB
 00387E 94BF 4062      00062       22686                       WITH  (JCB,R4),' CLEAR JCBFNATN '
 USING  JCB,R4
 DROP   JCB,R4
 003882 18D8/9808 D004_            22716                       PEND  ,
 DROP   *,R7
                                   22736                       QLTORG
                                   22813
 003AC0 E3D9C1C3D2E24040_          22814              ALLOOPTS SCKW TRACKS,ALLOTRK,(A,P,I),32767
 003AE8 E2C5D8E4C5D5E3C9_          22829                       SCKW SEQUENTIAL,ALLOSEQ,A
 003B10 C2D3D6C3D2E24040_          22844                       SCKW BLOCKS,ALLOBLK,(A,P,I),32767
1WGS      (WGS2193) (13:01) (15MAR04) Show catalog                                                                          Page   60
0Current Usings:  (WGSWA,R5) (FFINFO,R6) (CP,R11) (CV,R12)
0Loc    Object Code    Addr1 Addr2  Stmt Lv Lineno    Source Statement           (Hibal 5, Asmedit 3.3)  HLASM R4.0  2004/03/15 13.01
+___    ______ ____    _____ _____  ____ __ ______    ______ _________
0003B38 C4C9D9C5C3E3D6D9_          22859                       SCKW DIRECTORY,ALLOBLK,(A,P,I),32767
 003B60 D4C5D4C2C5D9E240_          22874                       SCKW MEMBERS,ALLOMEM,(A,P,I),32767
 003B88 D2C9D3D6C2E8E3C5_          22889                       SCKW KILOBYTES,ALLOKB,(A,P,I)
 003BB0 D2C2E8E3C5E24040_          22904                       SCKW KBYTES,ALLOKB,(A,P,I)
 003BD8 D2C2404040404040_          22919                       SCKW KB,ALLOKB,(A,P,I)
 003C00 D4C5C7C1C2E8E3C5_          22934                       SCKW MEGABYTES,ALLOMB,(A,P,I),32767
 003C28 D4C2E8E3C5E24040_          22949                       SCKW MBYTES,ALLOMB,(A,P,I),32767
 003C50 D4C2404040404040_          22964                       SCKW MB,ALLOMB,(A,P,I),32767
 003C78 C3E8D3C9D5C4C5D9_          22979                       SCKW CYLINDERS,ALLOCYL,(A,P,I),32767
 003CA0 E2C5C3D6D5C4C1D9_          22994                       SCKW SECONDARY,ALLOSQTY,(A,P,I)
 003CC8 4040404040404040_          23009                       SCKW ,VOLPSH,PUSH
 003CF0 4040404040404040_          23024                       SCKW ,NACCTPSH,PUSH
 003D18 4040404040404040_          23039                       SCKW ,CATPSH,PUSH
 003D40 4040404040404040_          23054                       SCKW ,FORMPSH,PUSH
 003D68 4040404040404040_          23069                       SCKW ,LINEPSH,PUSH
 003D90 4040404040404040_          23084                       SCKW ,WSMSPSH,PUSH
 003DB8 4040404040404040_          23099                       SCKW ,V(NOTVALID)
                                   23114
                                   23115                       QLTORG
1WGS      (WGS2193) (13:01) (15MAR04) Show catalog                                                                          Page   61
0Current Usings:  (WGSWA,R5) (FFINFO,R6) (CP,R11) (CV,R12)
0Loc    Object Code    Addr1 Addr2  Stmt Lv Lineno    Source Statement           (Hibal 5, Asmedit 3.3)  HLASM R4.0  2004/03/15 13.01
+___    ______ ____    _____ _____  ____ __ ______    ______ _________
0                                  23128              *
                                   23129              *
                                   23130              *  WGSCATLG - WINGS CATALOG
                                   23131              *
                                   23132              *  ON ENTRY:
                                   23133              *  FFINFO DSECT CONTAINS FILE NAME/FORMAT/OPTIONS AND
                                   23134              *  FILE SYSTEM INFORMATION.
                                   23135              *  R0 = <, = or > 0 depending on whether or not the
                                   23136              *       operation is RECATLG, CATLG or UNCATLG.
                                   23137              *
                                   23138              *  ON EXIT:
                                   23139              *  R15=0, ALL OK
                                   23140              *  R15=NZ, CPERRID CONTAINS ERROR, MSG TSEG'D
                                   23141              *
                                   23142              *  CAUTION!:
                                   23143              *  SOME SCANNING ERRORS EXIT VIA CVERROR
                                   23144              *  (THIS COULD BE CHANGED AND FIXED.)
                                   23145              *
                                   23146              *
 003DE0 50E0 D000/9008_      00000 23147              WGSCATLG XPROC ,
 USING  *,R7
 003DFA 1830                       23187                       LR    R3,R0               Save operation type
 003DFC 5860 BE54            00E54 23188                       L     R6,CPFINFOP
                                   23189                       USING FFINFO,R6
                                   23191
 003E00 D503 7396 6214_04190 00214 23192                       IF    (FFRNAMEL,EQ,0),BEGIN
 003E0A D207 B886 739E 00886 04198 23210  1                      MVC   CPERRID,=CL8'NOFNAME'
 003E10 4110 746E/4100_      04268 23211  1                      TSEG  'Missing file name.'
 003E22 41F0 0004            00004 23229  1                      LA    R15,4
 003E26 47F0 7380            0417A 23230  1                      B     WCATDON1
 003E2A                            23231                       END
                                   23235
                                   23236                       COMMENT                   GET CLEAR WINGS WORKAREA
 003E2A 58E0 740A/0DEE       04204 23237                       ACALL GETWA
 003E30 1851                       23241                       LR    R5,R1
                                   23242                       USING WGSWA,R5
                                   23244
                                   23245                       COMMENT                   PASS NAME
                                   23246
                                   23247                    Send FILE_CATLG: NAME=<filename> NTYPE=EXACT
                                   23248
 003E32 5840 5050            00050 23249                       L     R4,WGWTBLK
 003E36 D20F 4000 73A6 00000 041A0 23250                       MVC   @R4(L'WGSBKHDR),=CL16'FILE_CATLG:     '
 003E3C 4110 749C/4100_      04296 23251                       SEG   'NAME=',,WGSSG
 003E4E 4110 6218/5800_      00218 23268                       SEG   FFRNAME,L:FFRNAMEL,WGSSG
                                   23295
                                   23296                       COMMENT                   SET NTYPE=EXACT
 003E60 4110 740E/4100_      04208 23297                       SEG   ' NTYPE=EXACT'
                                   23314
 003E72 1233/4730 70E8             23315                       IF    (R3,LE),BEGIN       Process volume
                                   23329  1                      COMMENT                   PROCESS 'ON VOLUME'
                                   23330  1                      COMMENT
 003E78 58E0 741A/0DEE       04214 23331  1                      ACALL CATHACK             IF VOL=CATLG, CLEAR IT
 003E7E D603 608C 608C_0008C 0008C 23335  1                      IF    (FFHOSTL,NZ),BEGIN
1WGS      (WGS2193) (13:01) (15MAR04) Show catalog                                                                          Page   62
0Current Usings:  (WGSWA,R5) (FFINFO,R6) (*,R7) (CP,R11) (CV,R12)
0Loc    Object Code    Addr1 Addr2  Stmt Lv Lineno    Source Statement           (Hibal 5, Asmedit 3.3)  HLASM R4.0  2004/03/15 13.01
+___    ______ ____    _____ _____  ____ __ ______    ______ _________
0003E88 D503 741E 608C_04218 0008C 23351  2                        IF    (FFHOSTL,NE,6),BEGIN   ALLOW no host names
 003E92 4110 6090/5800_      00090 23369  3                          TSEG  FFHOST,L:FFHOSTL
 003EA4 4110 7480/4100_      0427A 23397  3                          TSEG  ': invalid volume name.'
 003EB6 41F0 0004            00004 23415  3                          LA    R15,4
 003EBA 47F0 7364            0415E 23416  3                          B     WCTLGDON
 003EBE                            23417  2                        END
 003EBE 4110 74A1/4100_      0429B 23421  2                        SEG   ' VOL='
 003ED0 4110 6090/5800_      00090 23438  2                        SEG   FFHOST,L:FFHOSTL
 003EE2                            23465  1                      END
 003EE2                            23469                       END
                                   23473
                                   23474                       COMMENT                   CHECK ACCESS, IF OK, SET RACF=NO
 003EE2 58E0 7422/0DEE       0421C 23475                       ACALL CKACCESS
 003EE8 4770 70F6            03EF0 23479                       IF    Z,BEGIN
 003EEC 9610 6002      00002       23490  1                      SET   FFFNRACF
 003EF0                            23496                       END
                                   23500
                                   23501                       COMMENT                   IF PASSWORD GIVEN,
 003EF0 9180 6002/47E0_00002       23502                       IF    FFFPASSW,BEGIN
 003EF8 4110 7426/4100_      04220 23517  1                      SEG   ' PASSCHK=YES'
 003F0A                            23534                       END
                                   23538
                                   23539                       COMMENT                   IF NORACF, SKIP RACF CHECK
 003F0A 9110 6002/47E0_00002       23540                       IF    FFFNRACF,BEGIN
 003F12 4110 73B6/4100_      041B0 23555  1                      SEG   ' RACF=NO'
 003F24                            23572                       END
                                   23576
 003F24 58E0 B08C/D2AF_      0008C 23577                       SCPUSH ,
 003F32 58E0 B08C/D7AF_      0008C 23583                       SCCLR
 003F3E 4110 6114/5800_      00114 23592                       SCINIT FFOPTS,L:FFOPTSL
 003F54 5810 B08C/1B00_      0008C 23616                       SCAN  CTLGOPTS
 003FA6 58E0 743A/0DEE       04234 23648                       SCANCHK                   * ERR EXIT TO CVNEXT INDIRECTLY
 003FAC 58E0 B08C/4BD0_      0008C 23653                       SCPOP ,
 003FBA 12FF/4780 71D4             23659                       IF    (R15,NZ),BEGIN
 003FC0 D207 B886 73BE 00886 041B8 23673  1                      MVC   CPERRID,=CL8'SYNTAX'
 003FC6 41F0 0004            00004 23674  1                      LA    R15,4
 003FCA 47F0 7364            0415E 23675  1                      B     WCTLGDON
 003FCE                            23676                       END
                                   23680
 003FCE 58E0 743E/0DEE       04238 23681                       ACALL WPOPEN              OPEN PHYSICAL PATH
 003FD4 12FF/4780 71E8             23685                       IF    (R15,NZ),BEGIN
 003FDA 41F0 0004            00004 23699  1                      LA    R15,4
 003FDE 47F0 7364            0415E 23700  1                      B     WCTLGDON
 003FE2                            23701                       END
                                   23705
 003FE2 4110 74A6/4100_      042A0 23706                       SEG   ' CATLG='
 003FF4 1233/4770 7212             23723                       IF    (R3,Z),BEGIN
 003FFA 4110 74AD/4100_      042A7 23737  1                      SEG   'CAT'
 00400C                            23754                       END
 00400C 7216/47F0 722E_0400C 03FF8 23758                       ELSEIF (R3,LT),BEGIN
 004016 4110 74B0/4100_      042AA 23781  1                      SEG   'RECAT'
 004028                            23798                       END
 004028 7232/47F0 7244 04028 04014 23802                       ELSE   BEGIN
 00402C 4110 74B5/4100_      042AF 23813  1                      SEG   'UNCAT'
1WGS      (WGS2193) (13:01) (15MAR04) Show catalog                                                                          Page   63
0Current Usings:  (WGSWA,R5) (FFINFO,R6) (*,R7) (CP,R11) (CV,R12)
0Loc    Object Code    Addr1 Addr2  Stmt Lv Lineno    Source Statement           (Hibal 5, Asmedit 3.3)  HLASM R4.0  2004/03/15 13.01
+___    ______ ____    _____ _____  ____ __ ______    ______ _________
000403E                            23830                       END
                                   23834
 00403E 5840 C1C8            001C8 23835                       L     R4,CVCURJCB
 004042 9640 4062      00062       23836                       WITH  (JCB,R4),' SET JCBFNATN '  NO ATTN ALLOWED ON CATALOG
 USING  JCB,R4
 DROP   JCB,R4
                                   23865
 004046 1B00/41F0 5058_            23866                       SEGWR ,,WGSSG             Send the catalog command
                                   23890
                                   23891                       COMMENT                   PROCESS THE RETURN
 004052 58E0 7446/0DEE       04240 23892                       ACALL WPREAD
 004058 4780 726A            04064 23896                       IF    NZ,BEGIN
 00405C 41F0 0004            00004 23907  1                      LA    R15,4
 004060 47F0 7364            0415E 23908  1                      B     WCTLGDON
 004064                            23909                       END
                                   23913                       COMMENT                   CHECK FOR WINGS ERROR RETURN
 004064 5900 744A/4750_      04244 23914                       IF    ((R0,GE,16),AND,(@R1,EQ,'FILE_ERROR:     ')),BEGIN
 004076 58E0 744E/0DEE       04248 23946  1                      ACALL WRDERROR
 00407C 41F0 0004            00004 23950  1                      LA    R15,4
 004080 47F0 7364            0415E 23951  1                      B     WCTLGDON
 004084                            23952                       END
                                   23956
                                   23957                       COMMENT
                                   23958            C          IF    ((R0,LT,L'WGSBKHDR),OR,
 004084 5900 7452/4740_      0424C                                   (@R1,NE,'FILE_CATLG:    ')),BEGIN
 004096 58E0 7456/0DEE       04250 23990  1                      VCALL LOGCMD
 00409C 1BFF                       23994  1                      CLEAR R15
 00409E 58E0 745A/0DEE       04254 23998  1                      VCALL LOGEVENT
 0040A4 4110 73D6/4100_      041D0 24002  1                      TSEG  'WINGS path error.  Unable to CATLG/UNCATLG file.'
 0040B6 41F0 0004            00004 24020  1                      LA    R15,4
 0040BA 47F0 7364            0415E 24021  1                      B     WCTLGDON
 0040BE                            24022                       END
                                   24026
                                   24027                       COMMENT                   SCAN/PROCESS RETURNS
 0040BE 4111 0010            00010 24028                       LA    R1,L'WGSBKHDR(R1)
 0040C2 5B00 745E            04258 24029                       S     R0,=AL4(L'WGSBKHDR)
 0040C6 58E0 B08C/D2AF_      0008C 24030                       SCPUSH ,
 0040D4 58E0 B08C/D7AF_      0008C 24036                       SCCLR
 0040E0 58E0 B08C/501E_      0008C 24045                       SCINIT (R1),(R0)
 0040EE 5810 B08C/1B00_      0008C 24065                       SCAN  WGSEPRT
 004140 58E0 B08C/4BD0_      0008C 24097                       SCPOP ,
 00414E 12FF/4780 7362             24103                       IF    (R15,NZ),BEGIN
 004154 41F0 0004            00004 24117  1                      LA    R15,4
 004158 47F0 7364            0415E 24118  1                      B     WCTLGDON
 00415C                            24119                       END
                                   24123              *
                                   24124              *  Everything OK if we get here.
                                   24125              *
 00415C 1BFF                       24126                       CLEAR R15
                                   24130
 00415E                            24131              WCTLGDON LABEL ,
 00415E 50F0 D000/41D0_      00000 24133                       XPUSH R15
 004166 58E0 7466/0DEE       04260 24136                       ACALL WPCLOSE             CLOSE THE PATH
 00416C 58E0 746A/0DEE       04264 24140                       ACALL RLSWA
1WGS      (WGS2193) (13:01) (15MAR04) Show catalog                                                                          Page   64
0Current Usings:  (WGSWA,R5) (FFINFO,R6) (*,R7) (CP,R11) (CV,R12)
0Loc    Object Code    Addr1 Addr2  Stmt Lv Lineno    Source Statement           (Hibal 5, Asmedit 3.3)  HLASM R4.0  2004/03/15 13.01
+___    ______ ____    _____ _____  ____ __ ______    ______ _________
0004172 4BD0 749A/58F0_      04294 24144                       XPOP  R15
 00417A 5840 C1C8            001C8 24147              WCATDON1 L     R4,CVCURJCB
 00417E 94BF 4062      00062       24148                       WITH  (JCB,R4),' CLEAR JCBFNATN '
 USING  JCB,R4
 DROP   JCB,R4
 004182 18D8/9808 D004_            24178                       PEND  ,
 DROP   *,R7
                                   24198                       QLTORG
                                   24251
 0042C4 E4D5C9E340404040_          24252              CTLGOPTS SCKW UNIT,CATUNIT,(A,P)
 0042EC C6C9D3C5E2C5D840_          24267                       SCKW FILESEQ,FILESEQ,(A,P)
 004314 4040404040404040_          24282                       SCKW ,VOLPSH,PUSH
 00433C 4040404040404040_          24297                       SCKW ,NACCTPSH,PUSH
 004364 4040404040404040_          24312                       SCKW ,V(NOTVALID)
                                   24327
 00438C 50E0 D000/9008_      00000 24328              CATUNIT  PROC  ,
 USING  *,R7
 0043A6 9001 D000/41D0_      00000 24367                       XPUSH R0,R1
 0043AE 4110 7096/4100_      0443C 24370                       SEG  ' UNIT=',,WGSSG
 0043C0 4BD0 709C/9801_      04442 24387                       XPOP R0,R1
 0043C8 41F0 5058/58E0_      00058 24390                       SEG  (R1),(R0),WGSSG
 0043D2 1BFF                       24413                       CLEAR R15
 0043D4 18D8/9808 D004_            24417                       PEND  ,
 DROP   *,R7
                                   24437
 0043E2 50E0 D000/9008_      00000 24438              FILESEQ  PROC  ,
 USING  *,R7
 0043FC 9001 D000/41D0_      00000 24477                       XPUSH R0,R1
 004404 4110 7048/4100_      04444 24480                       SEG  ' FILESEQ=',,WGSSG
 004416 4BD0 7046/9801_      04442 24497                       XPOP R0,R1
 00441E 41F0 5058/58E0_      00058 24500                       SEG  (R1),(R0),WGSSG
 004428 1BFF                       24523                       CLEAR R15
 00442A 18D8/9808 D004_            24527                       PEND  ,
 DROP   *,R7
                                   24547
                                   24548                       QLTORG
1WGS      (WGS2193) (13:01) (15MAR04) Show catalog                                                                          Page   65
0Current Usings:  (WGSWA,R5) (FFINFO,R6) (CP,R11) (CV,R12)
0Loc    Object Code    Addr1 Addr2  Stmt Lv Lineno    Source Statement           (Hibal 5, Asmedit 3.3)  HLASM R4.0  2004/03/15 13.01
+___    ______ ____    _____ _____  ____ __ ______    ______ _________
0                                  24565              *
                                   24566              *
                                   24567              *  FILE OPTION SCANNING
                                   24568              *
                                   24569              *  WE JUST PASS MOST OPTIONS TO WINGS... SOME FORMAT OPTIONS
                                   24570              *  SET STUFF IN THE CP.
                                   24571              *
                                   24572              *
 00444E 50E0 D000/9008_      00000 24573              VOLPSH   XPUSHRTN VOLOPTS
 USING  *,R7
 DROP   *,R7
                                   24641
 004484 50E0 D000/9008_      00000 24642              ACCTPUSH XPUSHRTN ACCTOPTS
 USING  *,R7
 DROP   *,R7
                                   24710
 0044BA 50E0 D000/9008_      00000 24711              NACCTPSH XPUSHRTN NACCTOPT
 USING  *,R7
 DROP   *,R7
                                   24779
 0044F0 50E0 D000/9008_      00000 24780              FORMPSH  XPUSHRTN FORMOPTS
 USING  *,R7
 DROP   *,R7
                                   24848
 004526 50E0 D000/9008_      00000 24849              LINEPSH  XPUSHRTN LINEOPTS
 USING  *,R7
 DROP   *,R7
                                   24917
 00455C 50E0 D000/9008_      00000 24918              XFERPSH  XPUSHRTN XFEROPTS
 USING  *,R7
 DROP   *,R7
                                   24986
 004592 50E0 D000/9008_      00000 24987              CATPSH   XPUSHRTN CATOPTS
 USING  *,R7
 DROP   *,R7
                                   25055
 0045C8 50E0 D000/9008_      00000 25056              PDSPSH   XPUSHRTN PDSOPTS
 USING  *,R7
 DROP   *,R7
                                   25124
 0045FE 50E0 D000/9008_      00000 25125              WSMSPSH  XPUSHRTN SMSOPTS
 USING  *,R7
 DROP   *,R7
                                   25193
                                   25194                       QLTORG
                                   25216              *
                                   25217              * The following table recognizes the account options
                                   25218              * but tosses them. They should have been handled by
                                   25219              * name resolution and should not be passed on to
                                   25220              * WINGS.
                                   25221              *
 004660 C1C3C3D6E4D5E340_          25222              NACCTOPT SCKW ACCOUNT,V(SCNNOOP),(A,P)
 004688 C1C3C3E340404040_          25237                       SCKW ACCT,V(SCNNOOP),(A,P)
 0046B0 E4E2C5D940404040_          25252                       SCKW USER,V(SCNNOOP),(A,P)
1WGS      (WGS2193) (13:01) (15MAR04) Show catalog                                                                          Page   66
0Current Usings:  (WGSWA,R5) (FFINFO,R6) (CP,R11) (CV,R12)
0Loc    Object Code    Addr1 Addr2  Stmt Lv Lineno    Source Statement           (Hibal 5, Asmedit 3.3)  HLASM R4.0  2004/03/15 13.01
+___    ______ ____    _____ _____  ____ __ ______    ______ _________
00046D8 C7D9D6E4D7404040_          25267                       SCKW GROUP,V(SCNNOOP),(A,P)
 004700 C7D9D74040404040_          25282                       SCKW GRP,V(SCNNOOP),(A,P)
 004728 D7E4C2D3C9C34040_          25297                       SCKW PUBLIC,V(SCNNOOP),A
 004750 E4E2C5D9C9C44040_          25312                       SCKW USERID,V(SCNNOOP),P
 004778 C7E4C5E2E3404040_          25327                       SCKW GUEST,V(SCNNOOP),A
 0047A0 4040404040404040_          25342                       SCKW ,,END
                                   25357
 0047C8 C5C4C9E340404040_          25358              FORMOPTS SCKW EDIT,WSNEDIT,A
 0047F0 C3C1D9C440404040_          25373                       SCKW CARD,WSNCARD,A
 004818 D7D9C9D5E3404040_          25388                       SCKW PRINT,WSNPRINT,A
 004840 D3D9C5C3D3404040_          25403                       SCKW LRECL,WSNLRECL,(A,P,PI),256
 004868 D9C5C3C6D4404040_          25418                       SCKW RECFM,WSNRECFM,P
 004890 C2D3D2E2C9E9C540_          25433                       SCKW BLKSIZE,WSNBLKSI,(A,P,PI)
 0048B8 4040404040404040_          25448                       SCKW ,WSNBCALC,V(MPAREN) RECORD COUNT BLOCK SIZE CALC
 0048E0 4040404040404040_          25463                       SCKW ,,END
                                   25478
 004908 C9D5E3C5C7C5D940_          25479              LINEOPTS SCKW INTEGER,WSNINT,A
 004930 D5E4D4C2C5D9C5C4_          25494                       SCKW NUMBERED,WSNNUM,A
 004958 D5D6D5E4D4C2C5D9_          25509                       SCKW NONUMBERED,WSNNONUM,A
 004980 E4D5D5E4D4C2C5D9_          25524                       SCKW UNNUMBERED,WSNUNNUM,A
 0049A8 E2C5D8C6D3C44040_          25539                       SCKW SEQFLD,WSNSEQF,(A,P)
 0049D0 4040404040404040_          25554                       SCKW ,,END
                                   25569
 0049F8 C1C3C3D6E4D5E340_          25570              ACCTOPTS SCKW ACCOUNT,WSNACCT,(A,P)
 004A20 C1C3C3E340404040_          25585                       SCKW ACCT,WSNACCT,(A,P)
 004A48 E4E2C5D940404040_          25600                       SCKW USER,WSNUSER,(A,P)
 004A70 C7D9D6E4D7404040_          25615                       SCKW GROUP,WSNGROUP,(A,P)
 004A98 C7D9D74040404040_          25630                       SCKW GRP,WSNGROUP,(A,P)
 004AC0 D7E4C2D3C9C34040_          25645                       SCKW PUBLIC,WSNPUB,A
 004AE8 4040404040404040_          25660                       SCKW ,,END
                                   25675
 004B10 C4C1E3C1C3D3C1E2_          25676              SMSOPTS  SCKW DATACLAS,SMSDATA,(A,P)
 004B38 D4C7D4E3C3D3C1E2_          25691                       SCKW MGMTCLAS,SMSMGMT,(A,P)
 004B60 E2E3D6D9C3D3C1E2_          25706                       SCKW STORCLAS,SMSSTOR,(A,P)
 004B88 4040404040404040_          25721                       SCKW ,,END
                                   25736
 004BB0 C3C1E3D3C7404040_          25737              CATOPTS  SCKW CATLG,V(SCNNOOP),A
 004BD8 C3C1E3C1D3D6C740_          25752                       SCKW CATALOG,V(SCNNOOP),A
 004C00 D5D6C3C1E3D3C740_          25767                       SCKW NOCATLG,WSNNOCAT,A
 004C28 D5D6C3C1E3C1D3D6_          25782                       SCKW NOCATALOG,WSNNOCAT,A
 004C50 D9C5C3C1E3D3C740_          25797                       SCKW RECATLG,WSNRECAT,A
 004C78 D9C5C3C1E3C1D3D6_          25812                       SCKW RECATALOG,WSNRECAT,A
 004CA0 E4D5C3C1E3D3C740_          25827                       SCKW UNCATLG,V(SCNNOOP),A
 004CC8 E4D5C3C1E3C1D3D6_          25842                       SCKW UNCATALOG,V(SCNNOOP),A
 004CF0 4040404040404040_          25857                       SCKW ,,END
                                   25872
 004D18 E5D6D3E4D4C54040_          25873              VOLOPTS  SCKW VOLUME,WSNVOL,(A,P)
 004D40 E3C5D4D7D6D9C1D9_          25888                       SCKW TEMPORARY,WSNTEMP,A
 004D68 4040404040404040_          25903                       SCKW ,,END
                                   25918
 004D90 E3C9E3D3C5404040_          25919              PDSOPTS  SCKW TITLE,WSNTITLE,(A,P)
 004DB8 4040404040404040_          25934                       SCKW ,,END
                                   25949
 004DE0 E3D9C1D5E2D7C1D9_          25950              XFEROPTS SCKW TRANSPARENT,V(SCNNOOP),A
1WGS      (WGS2193) (13:01) (15MAR04) Show catalog                                                                          Page   67
0Current Usings:  (WGSWA,R5) (FFINFO,R6) (CP,R11) (CV,R12)
0Loc    Object Code    Addr1 Addr2  Stmt Lv Lineno    Source Statement           (Hibal 5, Asmedit 3.3)  HLASM R4.0  2004/03/15 13.01
+___    ______ ____    _____ _____  ____ __ ______    ______ _________
0004E08 4040404040404040_          25965                       SCKW ,,END
                                   25980
 004E30 4040404040404040_          25981              FILEOPTS SCKW ,VOLPSH,PUSH
 004E58 4040404040404040_          25996                       SCKW ,ACCTPUSH,PUSH
 004E80 4040404040404040_          26011                       SCKW ,FORMPSH,PUSH
 004EA8 4040404040404040_          26026                       SCKW ,LINEPSH,PUSH
 004ED0 4040404040404040_          26041                       SCKW ,PDSPSH,PUSH
 004EF8 4040404040404040_          26056                       SCKW ,XFERPSH,PUSH
 004F20 4040404040404040_          26071                       SCKW ,CATPSH,PUSH
 004F48 4040404040404040_          26086                       SCKW ,WSMSPSH,PUSH
 004F70 D5D6C5D5D8E4C540_          26101                       SCKW NOENQUE,WSNOENQ,A
 004F98 4040404040404040_          26116                       SCKW ,V(NOTVALID)
1WGS      (WGS2193) (13:01) (15MAR04) Show catalog                                                                          Page   68
0Current Usings:  (WGSWA,R5) (FFINFO,R6) (CP,R11) (CV,R12)
0Loc    Object Code    Addr1 Addr2  Stmt Lv Lineno    Source Statement           (Hibal 5, Asmedit 3.3)  HLASM R4.0  2004/03/15 13.01
+___    ______ ____    _____ _____  ____ __ ______    ______ _________
0                                  26132              *
                                   26133              *
 004FC0 50E0 D000/9008_      00000 26134              WSNOENQ  PROC  ,
 USING  *,R7
 004FDA 4110 7C7E/4100_      05C58 26173                       SEG  ' SHARE=YES',,WGSSG
 004FEC 1BFF                       26190                       CLEAR R15
 004FEE 18D8/9808 D004_            26194                       PEND  ,
 DROP   *,R7
                                   26214
 004FFC 50E0 D000/9008_      00000 26215              WSNVOL   PROC  ,
 USING  *,R7
 005016 9001 D000/41D0_      00000 26254                       XPUSH R0,R1
 00501E 4110 7CAA/4100_      05CC0 26257                       SEG  ' VOL=',,WGSSG
 005030 4BD0 7C4C/9801_      05C62 26274                       XPOP R0,R1
 005038 41F0 5058/58E0_      00058 26277                       SEG  (R1),(R0),WGSSG
 005042 1BFF                       26300                       CLEAR R15
 005044 18D8/9808 D004_            26304                       PEND  ,
 DROP   *,R7
                                   26324
 005052 50E0 D000/9008_      00000 26325              WSNACCT  PROC  ,
 USING  *,R7
 00506C 9001 D000/41D0_      00000 26364                       XPUSH R0,R1
 005074 4110 7C59/4100_      05CC5 26367                       SEG  ' ACCOUNT=',,WGSSG
 005086 4BD0 7BF6/9801_      05C62 26384                       XPOP R0,R1
 00508E 41F0 5058/58E0_      00058 26387                       SEG  (R1),(R0),WGSSG
 005098 1BFF                       26410                       CLEAR R15
 00509A 18D8/9808 D004_            26414                       PEND  ,
 DROP   *,R7
                                   26434
 0050A8 50E0 D000/9008_      00000 26435              WSNUSER  PROC  ,
 USING  *,R7
 0050C2 9001 D000/41D0_      00000 26474                       XPUSH R0,R1
 0050CA 4110 7BA2/4100_      05C64 26477                       SEG  ' USER=',,WGSSG
 0050DC 4BD0 7BA0/9801_      05C62 26494                       XPOP R0,R1
 0050E4 41F0 5058/58E0_      00058 26497                       SEG  (R1),(R0),WGSSG
 0050EE 1BFF                       26520                       CLEAR R15
 0050F0 18D8/9808 D004_            26524                       PEND  ,
 DROP   *,R7
                                   26544
 0050FE 50E0 D000/9008_      00000 26545              WSNGROUP PROC  ,
 USING  *,R7
 005118 9001 D000/41D0_      00000 26584                       XPUSH R0,R1
 005120 4110 7BB6/4100_      05CCE 26587                       SEG  ' GROUP=',,WGSSG
 005132 4BD0 7B4A/9801_      05C62 26604                       XPOP R0,R1
 00513A 41F0 5058/58E0_      00058 26607                       SEG  (R1),(R0),WGSSG
 005144 1BFF                       26630                       CLEAR R15
 005146 18D8/9808 D004_            26634                       PEND  ,
 DROP   *,R7
                                   26654
 005154 50E0 D000/9008_      00000 26655              WSNTEMP  PROC  ,
 USING  *,R7
 00516E 4110 7B67/4100_      05CD5 26694                       SEG   ' TEMP=YES',,WGSSG
 005180 1BFF                       26711                       CLEAR R15
 005182 18D8/9808 D004_            26715                       PEND  ,
1WGS      (WGS2193) (13:01) (15MAR04) Show catalog                                                                          Page   69
0Current Usings:  (WGSWA,R5) (FFINFO,R6) (CP,R11) (CV,R12)
0Loc    Object Code    Addr1 Addr2  Stmt Lv Lineno    Source Statement           (Hibal 5, Asmedit 3.3)  HLASM R4.0  2004/03/15 13.01
+___    ______ ____    _____ _____  ____ __ ______    ______ _________
0DROP   *,R7
                                   26735
 005190 50E0 D000/9008_      00000 26736              WSNPUB   PROC  ,
 USING  *,R7
                                   26775              *        SEG   ' ACCOUNT=&PUBUSER..&PUBGRP',,WGSSG
 0051AA 4110 7B34/4100_      05CDE 26776                       SEG   ' ACCOUNT=GA.PUB',,WGSSG ** DEBUG **
 0051BC 1BFF                       26793                       CLEAR R15
 0051BE 18D8/9808 D004_            26797                       PEND  ,
 DROP   *,R7
                                   26817
 0051CC 50E0 D000/9008_      00000 26818              WSNEDIT  PROC  ,                   NO,NO,NO !!
 USING  *,R7
 0051E6 9680 5029      00029       26857                       SET   WGSFEDIT
 0051EA 4110 7B07/4100_      05CED 26863                       SEG   ' RECFM=EDIT',,WGSSG
 0051FC 18D8/9808 D004_            26880                       PEND  ,
 DROP   *,R7
                                   26900
 00520A 50E0 D000/9008_      00000 26901              WSNCARD  PROC  ,
 USING  *,R7
 005224 9640 5029      00029       26940                       SET   WGSFF
 005228 4100 0050            00050 26946                       LA    R0,80
 00522C 5000 500C            0000C 26947                       ST    R0,WGSLRECL
 005230 4110 7AD4/4100_      05CF8 26948                       SEG   ' RECFM=F LRECL=80',,WGSSG
 005242 1BFF                       26965                       CLEAR R15
 005244 18D8/9808 D004_            26969                       PEND  ,
 DROP   *,R7
                                   26989
 005252 50E0 D000/9008_      00000 26990              WSNPRINT PROC  ,
 USING  *,R7
 00526C 9640 5029      00029       27029                       SET   WGSFF
 005270 4100 0085            00085 27035                       LA    R0,133
 005274 5000 500C            0000C 27036                       ST    R0,WGSLRECL
 005278 4110 79FE/4100_      05C6A 27037                       SEG   ' RECFM=F LRECL=133',,WGSSG
 00528A 1BFF                       27054                       CLEAR R15
 00528C 18D8/9808 D004_            27058                       PEND  ,
 DROP   *,R7
                                   27078
 00529A 50E0 D000/9008_      00000 27079              WSNLRECL PROC  ,
 USING  *,R7
 0052B4 5000 500C            0000C 27118                       ST    R0,WGSLRECL
 0052B8 4110 7A55/4100_      05D09 27119                       SEG   ' LRECL=',,WGSSG
 0052CA 5810 500C            0000C 27136                       L     R1,WGSLRECL
 0052CE 1B00                       27137                       CLEAR R0
 0052D0 41F0 5058/58E0_      00058 27141                       SEGDC (R1),(R0),WGSSG
 0052DA 18D8/9808 D004_            27161                       PEND  ,
 DROP   *,R7
                                   27181
 0052E8 50E0 D000/9008_      00000 27182              WSNRECFM PROC  ,
 USING  *,R7
 005302 5810 B08C/4111_      0008C 27221                       SCUPTOK R1
 00530A D501 797A 1000_05C7C 00000 27225                       IF    ((@R1,EQ,'F '),OR,(@R1,EQ,'FB ')),BEGIN
 00531E 9640 5029      00029       27256  1                      SET   WGSFF
 005322 4110 78F6/4100_      05BF8 27262  1                      SEG   ' RECFM=F',,WGSSG
 005334                            27279                       END
1WGS      (WGS2193) (13:01) (15MAR04) Show catalog                                                                          Page   70
0Current Usings:  (WGSWA,R5) (FFINFO,R6) (*,R7) (CP,R11) (CV,R12)
0Loc    Object Code    Addr1 Addr2  Stmt Lv Lineno    Source Statement           (Hibal 5, Asmedit 3.3)  HLASM R4.0  2004/03/15 13.01
+___    ______ ____    _____ _____  ____ __ ______    ______ _________
0005334 7036/47F0 7060_05334 0531C 27283                       ELSEIF ((@R1,EQ,'FA '),OR,(@R1,EQ,'FBA ')),BEGIN
 00534C 9640 5029      00029       27323  1                      SET   WGSFF
 005350 4110 7A14/4100_      05D16 27329  1                      SEG   ' RECFM=FA',,WGSSG
 005362                            27346                       END
 005362 7064/47F0 708E_05362 0534A 27350                       ELSEIF ((@R1,EQ,'V '),OR,(@R1,EQ,'VB ')),BEGIN
 00537A 9620 5029      00029       27390  1                      SET   WGSFV
 00537E 4110 78FE/4100_      05C00 27396  1                      SEG   ' RECFM=V',,WGSSG
 005390                            27413                       END
 005390 7092/47F0 70BC_05390 05378 27417                       ELSEIF ((@R1,EQ,'VA '),OR,(@R1,EQ,'VBA ')),BEGIN
 0053A8 9620 5029      00029       27457  1                      SET   WGSFV
 0053AC 4110 7A23/4100_      05D25 27463  1                      SEG   ' RECFM=VA',,WGSSG
 0053BE                            27480                       END
 0053BE 70C0/47F0 70E0_053BE 053A6 27484                       ELSEIF (@R1,EQ,'EDIT '),BEGIN
 0053CC 9680 5029      00029       27509  1                      SET   WGSFEDIT
 0053D0 4110 79EB/4100_      05CED 27515  1                      SEG   ' RECFM=EDIT'
 0053E2                            27532                       END
 0053E2 70E4/47F0 70FA 053E2 053CA 27536                       ELSE  BEGIN
 0053E6 41F0 B050/58E0_      00050 27547  1                      TSEG  (R1),(R0)
 0053F0 4110 7906/4100_      05C08 27571  1                      ERROR ': invalid RECFM.'
 0053FC                            27578                       END
 0053FC 1BFF                       27582                       CLEAR R15
 0053FE 18D8/9808 D004_            27586                       PEND  ,
 DROP   *,R7
                                   27606
 00540C 50E0 D000/9008_      00000 27607              WSNBLKSI PROC  ,
 USING  *,R7
                                   27646              *** NO   SET   WGSFF               *** 5.1.92
 005426 5000 5010            00010 27647                       ST    R0,WGSBLKSI
 00542A 4110 790D/4100_      05D33 27648                       SEG   ' BLKSIZE=',,WGSSG
 00543C 5810 5010            00010 27665                       L     R1,WGSBLKSI
 005440 1B00                       27666                       CLEAR R0
 005442 41F0 5058/58E0_      00058 27670                       SEGDC (R1),(R0),WGSSG
 00544C 1BFF                       27690                       CLEAR R15
 00544E 18D8/9808 D004_            27694                       PEND  ,
 DROP   *,R7
                                   27714
 00545C 50E0 D000/9008_      00000 27715              WSNBCALC PROC  ,                   GET RECORD COUNT '(nnn)'
 USING  *,R7
 005476 1831                       27754                       LR    R3,R1
 005478 1A30                       27755                       AR    R3,R0
 00547A 0630                       27756                       DECR  R3
 00547C 5900 77B2/47C0_      05C28 27758                       IF    ((R0,LE,2),OR,(@R1,NE,'('),OR,(@R3,NE,')')),BEGIN
 005494 58E0 77B6/0DEE       05C2C 27803  1                      VCALL NOTVALID
 00549A                            27807                       END
 00549A 5E10 77BA            05C30 27811                       INCR  R1
 00549E 0600                       27814                       DECR  R0
 0054A0 0600                       27816                       DECR  R0
 0054A2 58E0 77BE/0DEE       05C34 27818                       VCALL LRTRIM
 0054A8 58E0 77C2/0DEE       05C38 27822                       VCALL DTB
 0054AE 4770 7040            054B6 27826                       IF    Z,BEGIN
 0054B2 50F0 5014            00014 27837  1                      ST    R15,WGSNREC
 0054B6                            27838                       END
 0054B6 7044/47F0 704A 054B6 054B0 27842                       ELSE  BEGIN
 0054BA 58E0 77B6/0DEE       05C2C 27853  1                      VCALL NOTVALID
1WGS      (WGS2193) (13:01) (15MAR04) Show catalog                                                                          Page   71
0Current Usings:  (WGSWA,R5) (FFINFO,R6) (*,R7) (CP,R11) (CV,R12)
0Loc    Object Code    Addr1 Addr2  Stmt Lv Lineno    Source Statement           (Hibal 5, Asmedit 3.3)  HLASM R4.0  2004/03/15 13.01
+___    ______ ____    _____ _____  ____ __ ______    ______ _________
00054C0                            27857                       END
 0054C0 1BFF                       27861                       CLEAR R15
 0054C2 18D8/9808 D004_            27865                       PEND  ,
 DROP   *,R7
                                   27885
 0054D0 50E0 D000/9008_      00000 27886              WSNTITLE PROC  ,
 USING  *,R7
 0054EA 9001 D000/41D0_      00000 27925                       XPUSH R0,R1
 0054F2 4110 7852/4100_      05D3C 27928                       SEG   ' TITLE=',,WGSSG
 005504 4BD0 7778/9801_      05C62 27945                       XPOP  R0,R1
 00550C 41F0 5058/58E0_      00058 27948                       SEG   (R1),(R0),WGSSG
 005516 1BFF                       27971                       CLEAR R15
 005518 18D8/9808 D004_            27975                       PEND  ,
 DROP   *,R7
                                   27995
 005526 50E0 D000/9008_      00000 27996              ALLOBLK  PROC  ,
 USING  *,R7
 005540 94F7 5028      00028       28035                       CLEAR WGSFMEMB
 005544 5000 5020            00020 28042                       ST    R0,WGSDRBLK
 005548 18D8/9808 D004_            28043                       PEND  ,
 DROP   *,R7
                                   28063
 005556 50E0 D000/9008_      00000 28064              ALLOMEM  PROC  ,
 USING  *,R7
 005570 9608 5028      00028       28103                       SET   WGSFMEMB
 005574 5000 5020            00020 28109                       ST    R0,WGSDRBLK
 005578 18D8/9808 D004_            28110                       PEND  ,
 DROP   *,R7
                                   28130
 005586 50E0 D000/9008_      00000 28131              ALLOTRK  PROC  ,
 USING  *,R7
 0055A0 944F 5028      00028       28170                       CLEAR WGSFCYL+WGSFKB+WGSFMB
 0055A4 9640 5028      00028       28184                       SET   WGSFTRK
 0055A8 5000 5018            00018 28190                       ST    R0,WGSPRQTY
 0055AC 18D8/9808 D004_            28191                       PEND  ,
 DROP   *,R7
                                   28211
 0055BA 50E0 D000/9008_      00000 28212              ALLOCYL  PROC  ,
 USING  *,R7
 0055D4 948F 5028      00028       28251                       CLEAR WGSFTRK+WGSFKB+WGSFMB
 0055D8 9680 5028      00028       28265                       SET   WGSFCYL
 0055DC 5000 5018            00018 28271                       ST    R0,WGSPRQTY
 0055E0 18D8/9808 D004_            28272                       PEND  ,
 DROP   *,R7
                                   28292
 0055EE 50E0 D000/9008_      00000 28293              ALLOKB   PROC  ,
 USING  *,R7
 005608 942F 5028      00028       28332                       CLEAR WGSFCYL+WGSFMB+WGSFTRK
 00560C 9620 5028      00028       28346                       SET   WGSFKB
 005610 5000 5018            00018 28352                       ST    R0,WGSPRQTY
 005614 18D8/9808 D004_            28353                       PEND  ,
 DROP   *,R7
                                   28373
 005622 50E0 D000/9008_      00000 28374              ALLOMB   PROC  ,
1WGS      (WGS2193) (13:01) (15MAR04) Show catalog                                                                          Page   72
0Current Usings:  (WGSWA,R5) (FFINFO,R6) (*,R7) (CP,R11) (CV,R12)
0Loc    Object Code    Addr1 Addr2  Stmt Lv Lineno    Source Statement           (Hibal 5, Asmedit 3.3)  HLASM R4.0  2004/03/15 13.01
+___    ______ ____    _____ _____  ____ __ ______    ______ _________
0USING  *,R7
 00563C 941F 5028      00028       28413                       CLEAR WGSFCYL+WGSFKB+WGSFTRK
 005640 9610 5028      00028       28427                       SET   WGSFMB
 005644 5000 5018            00018 28433                       ST    R0,WGSPRQTY
 005648 18D8/9808 D004_            28434                       PEND  ,
 DROP   *,R7
                                   28454
 005656 50E0 D000/9008_      00000 28455              ALLOSQTY PROC  ,
 USING  *,R7
 005670 5000 501C            0001C 28494                       ST    R0,WGSSCQTY
 005674 18D8/9808 D004_            28495                       PEND  ,
 DROP   *,R7
                                   28515
 005682 50E0 D000/9008_      00000 28516              ALLOSEQ  PROC  ,
 USING  *,R7
 00569C D703 5020 5020 00020 00020 28555                       CLEAR WGSDRBLK
 0056A2 18D8/9808 D004_            28562                       PEND  ,
 DROP   *,R7
                                   28582
 0056B0 50E0 D000/9008_      00000 28583              SMSDATA  PROC  ,
 USING  *,R7
 0056CA 9001 D000/41D0_      00000 28622                       XPUSH R0,R1
 0056D2 4110 75B6/4100_      05C80 28625                       SEG  ' DATACLAS=',,WGSSG
 0056E4 4BD0 7598/9801_      05C62 28642                       XPOP R0,R1
 0056EC 41F0 5058/58E0_      00058 28645                       SEG  (R1),(R0),WGSSG
 0056F6 1BFF                       28668                       CLEAR R15
 0056F8 18D8/9808 D004_            28672                       PEND  ,
 DROP   *,R7
                                   28692
 005706 50E0 D000/9008_      00000 28693              SMSMGMT  PROC  ,
 USING  *,R7
 005720 9001 D000/41D0_      00000 28732                       XPUSH R0,R1
 005728 4110 756A/4100_      05C8A 28735                       SEG  ' MGMTCLAS=',,WGSSG
 00573A 4BD0 7542/9801_      05C62 28752                       XPOP R0,R1
 005742 41F0 5058/58E0_      00058 28755                       SEG  (R1),(R0),WGSSG
 00574C 1BFF                       28778                       CLEAR R15
 00574E 18D8/9808 D004_            28782                       PEND  ,
 DROP   *,R7
                                   28802
 00575C 50E0 D000/9008_      00000 28803              SMSSTOR  PROC  ,
 USING  *,R7
 005776 9001 D000/41D0_      00000 28842                       XPUSH R0,R1
 00577E 4110 751E/4100_      05C94 28845                       SEG  ' STORCLAS=',,WGSSG
 005790 4BD0 74EC/9801_      05C62 28862                       XPOP R0,R1
 005798 41F0 5058/58E0_      00058 28865                       SEG  (R1),(R0),WGSSG
 0057A2 1BFF                       28888                       CLEAR R15
 0057A4 18D8/9808 D004_            28892                       PEND  ,
 DROP   *,R7
                                   28912
 0057B2 50E0 D000/9008_      00000 28913              WSNRTAIN PROC  ,
 USING  *,R7
 0057CC 4110 7577/4100_      05D43 28952                       SEG   ' RETAIN=YES',,WGSSG
 0057DE 1BFF                       28969                       CLEAR R15
 0057E0 18D8/9808 D004_            28973                       PEND  ,
1WGS      (WGS2193) (13:01) (15MAR04) Show catalog                                                                          Page   73
0Current Usings:  (WGSWA,R5) (FFINFO,R6) (CP,R11) (CV,R12)
0Loc    Object Code    Addr1 Addr2  Stmt Lv Lineno    Source Statement           (Hibal 5, Asmedit 3.3)  HLASM R4.0  2004/03/15 13.01
+___    ______ ____    _____ _____  ____ __ ______    ______ _________
0DROP   *,R7
                                   28993
 0057EE 50E0 D000/9008_      00000 28994              WSNNRTN  PROC  ,
 USING  *,R7
 005808 4110 7496/4100_      05C9E 29033                       SEG   ' RETAIN=NO',,WGSSG
 00581A 1BFF                       29050                       CLEAR R15
 00581C 18D8/9808 D004_            29054                       PEND  ,
 DROP   *,R7
                                   29074
 00582A 50E0 D000/9008_      00000 29075              WSNEXPDT PROC  ,
 USING  *,R7
 005844 4110 750A/4100_      05D4E 29114                       SEG   ' OVRD=YES',,WGSSG
 005856 1BFF                       29131                       CLEAR R15
 005858 18D8/9808 D004_            29135                       PEND  ,
 DROP   *,R7
                                   29155
 005866 50E0 D000/9008_      00000 29156              WSNERASE PROC  ,
 USING  *,R7
 005880 4110 7428/4100_      05CA8 29195                       SEG   ' ERASE=YES',,WGSSG
 005892 1BFF                       29212                       CLEAR R15
 005894 18D8/9808 D004_            29216                       PEND  ,
 DROP   *,R7
                                   29236
 0058A2 50E0 D000/9008_      00000 29237              WSNINT   PROC  ,
 USING  *,R7
 0058BC 9620 502A      0002A       29276                       SET   WGSFINT
 0058C0 18D8/9808 D004_            29282                       PEND  ,
 DROP   *,R7
                                   29302
 0058CE 50E0 D000/9008_      00000 29303              WSNNUM   PROC  ,
 USING  *,R7
 0058E8 9680 502A      0002A       29342                       SET   WGSFNUM
 0058EC 18D8/9808 D004_            29348                       PEND  ,
 DROP   *,R7
                                   29368
 0058FA 50E0 D000/9008_      00000 29369              WSNNONUM PROC  ,
 USING  *,R7
 005914 9640 502A      0002A       29408                       SET   WGSFNNUM
 005918 18D8/9808 D004_            29414                       PEND  ,
 DROP   *,R7
                                   29434
 005926 50E0 D000/9008_      00000 29435              WSNUNNUM PROC  ,
 USING  *,R7
 005940 9610 502A      0002A       29474                       SET   WGSFUNUM
 005944 18D8/9808 D004_            29480                       PEND  ,
 DROP   *,R7
                                   29500
 005952 50E0 D000/9008_      00000 29501              WSNNOCAT PROC  ,
 USING  *,R7
                                   29540              *        IF    CPSFSPR,BEGIN
 00596C 4110 73EB/4100_      05D57 29541                       SEG   ' CAT=NO',,WGSSG
 00597E 1BFF                       29558                       CLEAR R15
                                   29562              *        END
                                   29563              *        ELSE  BEGIN
1WGS      (WGS2193) (13:01) (15MAR04) Show catalog                                                                          Page   74
0Current Usings:  (WGSWA,R5) (FFINFO,R6) (*,R7) (CP,R11) (CV,R12)
0Loc    Object Code    Addr1 Addr2  Stmt Lv Lineno    Source Statement           (Hibal 5, Asmedit 3.3)  HLASM R4.0  2004/03/15 13.01
+___    ______ ____    _____ _____  ____ __ ______    ______ _________
0                                  29564              *        VCALL NOTVALID   Does not return
                                   29565              *        END
 005980 18D8/9808 D004_            29566                       PEND  ,
 DROP   *,R7
                                   29586
 00598E 50E0 D000/9008_      00000 29587              WSNRECAT PROC  ,
 USING  *,R7
                                   29626              * Don't log the use of RECAT. You'll fill up
                                   29627              * the WLOG every time WYLBUR goes down and
                                   29628              * zillions of active files get recovered,
                                   29629              * because the SAVE command specified RECAT
                                   29630              * for now...
                                   29631              *         VCALL LOGCMD
 0059A8 4110 730A/4100_      05CB2 29632                       SEG   ' CAT=RECAT',,WGSSG
 0059BA 1BFF                       29649                       CLEAR R15
 0059BC 18D8/9808 D004_            29653                       PEND  ,
 DROP   *,R7
1WGS      (WGS2193) (13:01) (15MAR04) Show catalog                                                                          Page   75
0Current Usings:  (WGSWA,R5) (FFINFO,R6) (CP,R11) (CV,R12)
0Loc    Object Code    Addr1 Addr2  Stmt Lv Lineno    Source Statement           (Hibal 5, Asmedit 3.3)  HLASM R4.0  2004/03/15 13.01
+___    ______ ____    _____ _____  ____ __ ______    ______ _________
0                                  29674              *
                                   29675              *  SCAN SEQFLD=
                                   29676              *
 0059CA 50E0 D000/9008_      00000 29677              WSNSEQF  PROC  ,
 USING  *,R7
 USING  NSCNCB,R2                  29716                       USING NSCNCB,R2
                                   29725
                                   29726                       COMMENT                   SEQUENCE FIELD GIVEN
 0059E4 9608 502A      0002A       29727                       SET   WGSFSEQ
                                   29733
                                   29734                       COMMENT                   SAVE CURRENT SCAN
 0059E8 58E0 B08C/D2AF_      0008C 29735                       SCPUSH ,
                                   29741
                                   29742                       COMMENT                   SET UP NEW SCAN
 0059F6 954D 1000/4770_00000       29743                       IF    (@R1,EQ,'('),BEGIN
 0059FE 5E10 724C            05C30 29759  1                      INCR  R1
 005A02 0600                       29762  1                      DECR  R0
 005A04 0600                       29764  1                      DECR  R0
 005A06                            29766                       END
 005A06 58E0 B08C/501E_      0008C 29770                       SCINIT (R1),(R0)
                                   29790
                                   29791                       COMMENT                   SCAN 1ST SEQFLD ARG
 005A14 5810 B08C/1B00_      0008C 29792                       SCAN  ,
 005A62 12FF/4770 71CC_            29823                       IF    ((R15,NZ),OR,(R0,NP)),SSEQBAD
 005A6E 5810 B08C/4111_      0008C 29853                       SCUPTOK R1
 005A76 D503 725C 1000_05C40 00000 29857                       IF    (@R1,EQ,'END '),BEGIN
 005A80 5830 7260            05C44 29873  1                      L     R3,=F'-1'
 005A84 5030 5034            00034 29874  1                      ST    R3,WGSSEQF
 005A88 4130 0008            00008 29875  1                      LA    R3,8
 005A8C 5030 5038            00038 29876  1                      ST    R3,WGSSEQFL
 005A90                            29877                       END
 005A90 70B0/47F0 70D6_05A90 05A7E 29881                       ELSEIF NSCNFINT,BEGIN
 005A9C 5830 201C            0001C 29905  1                      L     R3,NSCNTVAL
 005AA0 1233/47D0 71CC_            29906  1                      IF    ((R3,NP),OR,(R3,GT,&LINESZ)),SSEQBAD
 005AAE 5030 5034            00034 29939  1                      ST    R3,WGSSEQF
 005AB2 4130 0008            00008 29940  1                      LA    R3,8
 005AB6 5030 5038            00038 29941  1                      ST    R3,WGSSEQFL
 005ABA                            29942                       END
 005ABA 70DA/47F0 70DE 05ABA 05A9A 29946                       ELSE  BEGIN
 005ABE 47F0 71CC            05BB0 29957  1                      B     SSEQBAD
 005AC2                            29958                       END
                                   29962
                                   29963                       COMMENT                   SCAN 2ND SEQFLD ARG
 005AC2 5810 B08C/1B00_      0008C 29964                       SCAN  ,
 005B10 12FF/4770 71CC             29995                       IF    (R15,NZ),SSEQBAD
 005B16 1200/4780 715E             30012                       IF    (R0,NZ),BEGIN       IF 2ND ARG
 005B1C 9120 2018/47E0_00018       30026  1                      IF    NSCNFINT,BEGIN
 005B24 5830 201C            0001C 30041  2                        L     R3,NSCNTVAL
 005B28 1233/47D0 71CC_            30042  2                        IF    ((R3,NP),OR,(R3,GT,9)),SSEQBAD
 005B36 5030 5038            00038 30075  2                        ST    R3,WGSSEQFL
 005B3A                            30076  1                      END
 005B3A 715A/47F0 715E 05B3A 05B22 30080  1                      ELSE  BEGIN
 005B3E 47F0 71CC            05BB0 30091  2                        B     SSEQBAD
 005B42                            30092  1                      END
1WGS      (WGS2193) (13:01) (15MAR04) Show catalog                                                                          Page   76
0Current Usings:  (NSCNCB,R2) (WGSWA,R5) (FFINFO,R6) (*,R7) (CP,R11) (CV,R12)
0Loc    Object Code    Addr1 Addr2  Stmt Lv Lineno    Source Statement           (Hibal 5, Asmedit 3.3)  HLASM R4.0  2004/03/15 13.01
+___    ______ ____    _____ _____  ____ __ ______    ______ _________
0005B42                            30096                       END
                                   30100
                                   30101                       COMMENT                   ONLY 2 ARGS ALLOWED
 005B42 5810 B08C/1B00_      0008C 30102                       SCAN  ,
 005B90 12FF/4770 71CC             30133                       IF    (R15,NZ),SSEQBAD
 005B96 1200/4720 71CC             30150                       IF    (R0,POS),SSEQBAD
                                   30167
 005B9C 1BFF                       30168                       CLEAR R15
 005B9E 58E0 B08C/4BD0_      0008C 30172                       SCPOP ,
 005BAC 47F0 7200            05BE4 30178                       B     SSEQDONE
                                   30179
 005BB0                            30180              SSEQBAD  LABEL ,
 005BB0 58E0 B08C/4BD0_      0008C 30182                       SCPOP ,
 005BBE 58E0 B08C/D703_      0008C 30188                       SCSEGCLR
 005BCA 4110 737A/4100_      05D5E 30197                       SCSEG 'Invalid sequence field specification.'
 005BDC 58F0 7270            05C54 30209                       L     R15,=F'-4'
 005BE0 47F0 7200            05BE4 30210                       B     SSEQDONE
                                   30211
 005BE4                            30212              SSEQDONE LABEL ,
 005BE4 18D8/9808 D004_            30214                       PEND  ,
 DROP   *,R7
 DROP   NSCNCB,R2                  30234                       DROP  R2
 DROP   FFINFO,R6                  30241                       DROP  R6
 DROP   WGSWA,R5                   30248                       DROP  R5
                                   30255                       QLTORG
1WGS      (WGS2193) (13:01) (15MAR04) Show catalog                                                                          Page   77
0Current Usings:  (CP,R11) (CV,R12)
0Loc    Object Code    Addr1 Addr2  Stmt Lv Lineno    Source Statement           (Hibal 5, Asmedit 3.3)  HLASM R4.0  2004/03/15 13.01
+___    ______ ____    _____ _____  ____ __ ______    ______ _________
0                                  30322              *
                                   30323              *  CATHACK, IF VOL=CATLG,,,
                                   30324              *
                                   30325              *  WE CLEAR VOLUME AND PREFIX VOLUME.  THE REASON WE
                                   30326              *  CLEAR THE PREFIX VOLUME IS SO THAT THE PREFIX VOLUME
                                   30327              *  IS NOT USED AS A DEFAULT WHEN THE USER WANTS VOL=CAT
                                   30328              *
 005D84 50E0 D000/9008_      00000 30329              CATHACK  PROC  ,
 USING  *,R7
                                   30368
 005D9E 5860 BE54            00E54 30369                       L     R6,CPFINFOP
 USING  FFINFO,R6                  30370                       USING FFINFO,R6
                                   30379
 005DA2 D603 608C 608C_0008C 0008C 30380                       IF    (FFHOSTL,NZ),BEGIN
 005DAC 58E0 B08C/D2AF_      0008C 30396  1                      SCPUSH
 005DBA 58E0 B08C/D7AF_      0008C 30402  1                      SCCLR
 005DC6 4110 6090/5800_      00090 30411  1                      SCINIT FFHOST,L:FFHOSTL
 005DDC 5810 B08C/1B00_      0008C 30435  1                      SCAN  CATHPRT
                                   30467  1                      COMMENT                   IF VOL=CATLG
 005E2E 59F0 71C2/4770_      05F60 30468  1                      IF    (R15,EQ,4),BEGIN
 005E36 D703 608C 608C 0008C 0008C 30485  2                        CLEAR FFHOSTL
 005E3C D703 631C 631C 0031C 0031C 30492  2                        CLEAR FFPHOSTL
 005E42                            30499  1                      END
 005E42 58E0 B08C/4BD0_      0008C 30503  1                      SCPOP
 005E50                            30509                       END
                                   30513
 005E50 1BFF                       30514                       CLEAR R15
 005E52 18D8/9808 D004_            30518                       PEND
 DROP   *,R7
                                   30538              *
                                   30539              *
 005E60 C3C1E3D3C7404040_          30540              CATHPRT  SCKW  CATLG,CTFOUND,A
 005E88 C3C1E3C1D3D6C740_          30555                       SCKW  CATALOG,CTFOUND,A
 005EB0 4040404040404040_          30570                       SCKW  ,CTOTHER,NULL
 005ED8 4040404040404040_          30585                       SCKW  ,CTOTHER
                                   30600
 005F00 50E0 D000/9008_      00000 30601              CTFOUND  PROC
 USING  *,R7
 005F1A 41F0 0004            00004 30640                       LA    R15,4
 005F1E 18D8/9808 D004_            30641                       PEND
 DROP   *,R7
                                   30661
 005F2C 50E0 D000/9008_      00000 30662              CTOTHER  PROC
 USING  *,R7
 005F46 41F0 0008            00008 30701                       LA    R15,8
 005F4A 18D8/9808 D004_            30702                       PEND
 DROP   *,R7
                                   30722                       QLTORG
1WGS      (WGS2193) (13:01) (15MAR04) Show catalog                                                                          Page   78
0Current Usings:  (FFINFO,R6) (CP,R11) (CV,R12)
0Loc    Object Code    Addr1 Addr2  Stmt Lv Lineno    Source Statement           (Hibal 5, Asmedit 3.3)  HLASM R4.0  2004/03/15 13.01
+___    ______ ____    _____ _____  ____ __ ______    ______ _________
0                                  30740              *
                                   30741              *  CVOLHACK - CURRENT VOLUME HACK
                                   30742              *
                                   30743              *  IF WE HAD 'USE X ON SYSXXX' FOLLOWED BY A
                                   30744              *  'SAVE *' OR A 'USE *' ETC.  WE MUST USE THE
                                   30745              *  PREFIX VOLUME SYSXXX.  THAT IS WHAT THIS HACK
                                   30746              *  DOES.
                                   30747              *
                                   30748              *  APPLY HACK IF, 1. NAME IS *, 2. NO VOLUME IS SPECIFIED,
                                   30749              *  AND 3. IF PREFIX VOLUME EXISTS.
                                   30750              *
                                   30751              *  HACK IS TO MOVE PREFIX VOLUME IN AS A SPECIFIED VOLUME.
                                   30752              *  UGG.  EFFECTIVE THOUGH.
                                   30753              *
                                   30754              *  YUCK2,,, THIS ROUTINE MAY EXIT DIRECTLY IF PROMPT IS
                                   30755              *  NOT ANSWERED PROPERLY FOR 'SAV XXX#*', VERY UNUSUAL CASE
                                   30756              *  BUT STILL A YUCK2
                                   30757              *
 005F68 50E0 D000/9008_      00000 30758              CVOLHACK PROC  ,
 USING  *,R7
                                   30797
 005F82 5860 BE54            00E54 30798                       L     R6,CPFINFOP
                                   30799                       USING FFINFO,R6
                                   30801
                                   30802                       COMMENT                   CHECK FOR '*' IN FILE NAME
 005F86 5800 6008            00008 30803                       L     R0,FFNAMEL
 005F8A 4110 600C            0000C 30804                       LA    R1,FFNAME
 005F8E 1B22                       30805                       CLEAR R2
 005F90 1200/47D0 702A             30809                       WHILE (R0,POS),BEGIN
 005F96 955C 1000/4770_00000       30825  1                      IF    (@R1,EQ,'*'),' LA R2,1 '
 005FA2 5E10 70A6            06028 30847  1                      INCR  R1
 005FA6 0600                       30850  1                      DECR  R0
 005FA8 47F0 700E            05F90 30852                       END
                                   30857
 005FAC 1222/47D0 7098             30858                       IF    (R2,POS),BEGIN      IF '*' IN FILE NAME
 005FB2 D603 608C 608C_0008C 0008C 30872  1                      IF    (FFHOSTL,Z),BEGIN   IF NO VOL SPECIFIED
                                   30888  2           * *** DEBUG IF VOL=CATALOG, WE HOSE OURSELVES !
                                   30889  2           * BECAUSE CAT IS TREATED AS NO VOLUME, CAT SHOULD CLEAR PREFIX VOL
 005FBC D603 631C 631C_0031C 0031C 30890  2                        IF    (FFPHOSTL,NZ),BEGIN IF PREFIX VOLUME,
 005FC6 4110 600C            0000C 30906  3                          LA    R1,FFNAME
 005FCA 955C 1000/4770_00000       30907  3                          IF    (@R1,EQ,'*'),BEGIN
 005FD2 D203 608C 631C 0008C 0031C 30923  4                            MVC   FFHOSTL,FFPHOSTL
 005FD8 D27F 6090 6320 00090 00320 30924  4                            MVC   FFHOST,FFPHOST
 005FDE                            30925  3                          END
 005FDE 7060/47F0 7098 05FDE 05FD0 30929  3                          ELSE  BEGIN
 005FE2 4110 70B2/4100_      06034 30940  4                            TSEG  'OK to use volume '
 005FF4 4110 6320/5800_      00320 30958  4                            TSEG  FFPHOST,L:FFPHOSTL
 006006 1B00                       30986  4                            CLEAR R0
 006008 58E0 70AE/0DEE       06030 30990  4                            VCALL YESREQ
 00600E D203 608C 631C 0008C 0031C 30994  4                            MVC   FFHOSTL,FFPHOSTL
 006014 D27F 6090 6320 00090 00320 30995  4                            MVC   FFHOST,FFPHOST
 00601A                            30996  3                          END
 00601A                            31000  2                        END
 00601A                            31004  1                      END
1WGS      (WGS2193) (13:01) (15MAR04) Show catalog                                                                          Page   79
0Current Usings:  (FFINFO,R6) (*,R7) (CP,R11) (CV,R12)
0Loc    Object Code    Addr1 Addr2  Stmt Lv Lineno    Source Statement           (Hibal 5, Asmedit 3.3)  HLASM R4.0  2004/03/15 13.01
+___    ______ ____    _____ _____  ____ __ ______    ______ _________
000601A                            31008                       END
                                   31012
 00601A 18D8/9808 D004_            31013                       PEND
 DROP   *,R7
 DROP   FFINFO,R6                  31033                       DROP  R6
                                   31040                       QLTORG
1WGS      (WGS2193) (13:01) (15MAR04) Show catalog                                                                          Page   80
0Current Usings:  (CP,R11) (CV,R12)
0Loc    Object Code    Addr1 Addr2  Stmt Lv Lineno    Source Statement           (Hibal 5, Asmedit 3.3)  HLASM R4.0  2004/03/15 13.01
+___    ______ ____    _____ _____  ____ __ ______    ______ _________
0                                  31057              *
                                   31058              *  WGSREAD - WINGS READ
                                   31059              *
                                   31060              *  ON ENTRY:
                                   31061              *    R1,R0 - BUFFER LOC,LEN TO READ LINE INTO
                                   31062              *
                                   31063              *  ON EXIT:
                                   31064              *    R1,R0 - LINE TEXT
                                   31065              *    R2 - LINE NUMBER
                                   31066              *    R15=0 IF ALL OK,  R15=NZ IF END OF FILE
                                   31067              *
                                   31068              *  NOTE:
                                   31069              *  THE BUFFER LENGTH (PASSED IN R0) IS CURRENTLY
                                   31070              *  IGNORED.  BUFFER MUST BE &LINESZ+16 OR BIGGER.
                                   31071              *
                                   31072              *
                                   31073              *
 006046 50E0 D000/9008_      00000 31074              WGSREAD  XPROC ,
 USING  *,R7
                                   31114
 006060 5860 BE58            00E58 31115                       L     R6,CPDEVP
 USING  WGSWA,R6                   31116                       USING WGSWA,R6
                                   31125
 006064 9180 602B/47E0_0002B       31126                       IF    WGSFEOF,'B WREADEOF'
                                   31147
 006070 1841                       31148                       LR    R4,R1               R4,R5 - RETURN BUFFER LOC, LEN
 006072 1850                       31149                       LR    R5,R0
                                   31150
                                   31151                       COMMENT                   READ A NEW BLOCK IF NEEDED
 006074 D503 70F0 603C_06150 0003C 31152                       WHILE ((WGRDBLK,EQ,0),OR,(WGRDNDX,GE,WGRDLIM)),BEGIN
 006088 58E0 7100/0DEE       06160 31189  1                      ACALL WRDREAD
 00608E 4780 703A            0609A 31193  1                      IF    NZ,BEGIN
 006092 9680 602B      0002B       31204  2                        SET   WGSFEOF
 006096 47F0 70D8            06138 31210  2                        B     WREADEOF
 00609A                            31211  1                      END
 00609A 1A01                       31215  1                      AR    R0,R1
 00609C 5000 6044            00044 31216  1                      ST    R0,WGRDLIM
 0060A0 4111 0010            00010 31217  1                      LA    R1,L'WGSBKHDR(R1)
 0060A4 5010 603C            0003C 31218  1                      ST    R1,WGRDBLK
 0060A8 5010 6040            00040 31219  1                      ST    R1,WGRDNDX
 0060AC 47F0 7014            06074 31220                       END
                                   31225
                                   31226                       COMMENT                   CHECK FOR LINE WRAP PROCESSING
 0060B0 5810 6040            00040 31227                       L     R1,WGRDNDX          R0 - LINE LEN
 0060B4 5801 0000            00000 31228                       L     R0,WGSLNLEN(R1)
 0060B8 5B00 7104            06164 31229                       S     R0,=AL4(L'WGSLNHDR)
 0060BC 1200/47B0 7074             31230                       IF    (R0,NEG),BEGIN
 0060C2 D207 B886 70F8_00886 06158 31244  1                      ERROR 'WINGS format error.  Unable to read file.',,ERROR
 0060D4                            31252                       END
 0060D4 4120 00EB            000EB 31256                       LA    R2,&LINESZ
 0060D8 5A20 6038            00038 31257                       A     R2,WGSSEQFL
 0060DC 1902/47D0 7086             31258                       IF    (R0,GT,R2),BEGIN  IF LONG LINE, SET WRAP
 0060E2 9680 602D      0002D       31273  1                      SET   WGSFWRAP
 0060E6                            31279                       END
1WGS      (WGS2193) (13:01) (15MAR04) Show catalog                                                                          Page   81
0Current Usings:  (WGSWA,R6) (*,R7) (CP,R11) (CV,R12)
0Loc    Object Code    Addr1 Addr2  Stmt Lv Lineno    Source Statement           (Hibal 5, Asmedit 3.3)  HLASM R4.0  2004/03/15 13.01
+___    ______ ____    _____ _____  ____ __ ______    ______ _________
0                                  31283
                                   31284                       COMMENT                   IF WRAPPED LINES, GO PROCESS
 0060E6 9180 602D/47E0_0002D       31285                       IF    WGSFWRAP,BEGIN
 0060EE 1814                       31300  1                      LR    R1,R4
 0060F0 4100 0005            00005 31301  1                      LA    R0,R5
 0060F4 58E0 7108/0DEE       06168 31302  1                      ACALL WRWRAP
 0060FA                            31306                       END
                                   31310
                                   31311                       COMMENT                   IF INT, NUM, OR SEQFLD,
                                   31312                       COMMENT                     UNFORMAT LINE
 0060FA 709E/47F0 70C0_060FA 060EC 31313                       ELSEIF    (WGSFINT,OR,WGSFNUM,OR,WGSFSEQ),BEGIN
 006116 1814                       31363  1                      LR    R1,R4
 006118 1805                       31364  1                      LR    R0,R5
 00611A 58E0 710C/0DEE       0616C 31365  1                      ACALL WRFORMAT
 006120                            31369                       END
                                   31373
                                   31374                       COMMENT                   OTHERWISE DO STANDARD READ
 006120 70C4/47F0 70CE 06120 06114 31375                       ELSE  BEGIN
 006124 1814                       31386  1                      LR    R1,R4
 006126 1805                       31387  1                      LR    R0,R5
 006128 58E0 7110/0DEE       06170 31388  1                      ACALL WRNORMAL
 00612E                            31392                       END
                                   31396
 00612E 9002 8004            00004 31397                       PRETURN (R0,R2)
 006132 1BFF                       31399                       CLEAR R15
 006134 47F0 70E0            06140 31403                       B     WGSRDONE
                                   31404              *
                                   31405              *
 006138                            31406              WREADEOF LABEL ,
 006138 41F0 0004            00004 31408                       LA    R15,4
 00613C 47F0 70E0            06140 31409                       B     WGSRDONE
                                   31410
 006140                            31411              WGSRDONE LABEL ,
 006140 18D8/9808 D004_            31413                       PEND  ,
 DROP   *,R7
 DROP   WGSWA,R6                   31433                       DROP  R6
                                   31440                       QLTORG
1WGS      (WGS2193) (13:01) (15MAR04) Show catalog                                                                          Page   82
0Current Usings:  (CP,R11) (CV,R12)
0Loc    Object Code    Addr1 Addr2  Stmt Lv Lineno    Source Statement           (Hibal 5, Asmedit 3.3)  HLASM R4.0  2004/03/15 13.01
+___    ______ ____    _____ _____  ____ __ ______    ______ _________
0                                  31461              *
                                   31462              *
                                   31463              *  WGSWRITE - WINGS WRITE ROUTINE
                                   31464              *
                                   31465              *  WE USE SEG WRITE TO WRITE TO WINGS OUTPUT BUFFER.
                                   31466              *
                                   31467              *  ON ENTRY:
                                   31468              *    R1,R0 - LINE TO WRITE
                                   31469              *    R2 - LINE NUMBER TO WRITE
                                   31470              *
                                   31471              *  ON EXIT:
                                   31472              *    IF ERROR, WE EXIT DIRECTLY
                                   31473              *
                                   31474              *  NOTE:
                                   31475              *  THIS ROUTINE WRITES ONLY LINES (IE. FILE TEXT).
                                   31476              *  TO WRITE STRAIGHT WINGS STUFF, YOU CAN SEG IT
                                   31477              *  TO THE WINGS BUFFER. OR DIRECTLY WRITE IT IF
                                   31478              *  YOU CALL WPWRITE (WINGS PATH WRITE). IF YOU WRITE
                                   31479              *  DIRECTLY, THE BUFFER STUFF IS BYPASSED AND MAY BE
                                   31480              *  OUT OF ORDER.
                                   31481              *
                                   31482              *  NOTE:
                                   31483              *  EACH LINE IS WRITTEN TO WINGS AS 4 BYTES TOTAL LENGTH,
                                   31484              *  8 BYTES LINE NUMBER IN CHAR FORMAT, N BYTES TEXT.
                                   31485              *
 000000                00000 001E6 31486              WGSWWA   RECORD BEGIN
 000000                            31494  1           WGSWLLEN   DS    F
                                   31495  1           WGSWLINE   DS    XL(2*&LINESZ+12)
 000004                                   1          +WGSWLINE   DS    XL(2*235+12)
 0001E6                001E6 001E6 31496                       END
                                   31505              *
                                   31506              *
 00619E 50E0 D000/9008_      00000 31507              WGSWRITE XPROC WGSWWA
 USING  *,R7
 USING  WGSWWA-(4+36),R8
                                   31558
 0061B8 5860 BE58            00E58 31559                       L     R6,CPDEVP
 USING  WGSWA,R6                   31560                       USING WGSWA,R6
                                   31569
                                   31570                       COMMENT                   PROCCESS FILE FORMATS
                                   31571                       COMMENT ,                 (EG. CARD NUMBERED)
 0061BC 41F0 8038            00010 31572                       LA    R15,WGSWLINE+L'WGSLNHDR
 0061C0 58E0 7068/0DEE       06220 31573                       ACALL WWFORMAT
 0061C6 5A00 706C            06224 31577                       A     R0,=AL4(L'WGSLNHDR)
 0061CA 5000 8028            00000 31578                       ST    R0,WGSWLLEN         CALC ACTUAL TOTAL LEGTH
                                   31579
                                   31580                       COMMENT                   SAVE LENGTH AT START OF RECORD
 0061CE 5000 802C            00004 31581                       ST    R0,WGSWLINE+WGSLNLEN
                                   31582
                                   31583                       COMMENT                   LINE NUMBER IN 8 BYTE FIELD
 0061D2 4110 8030            00008 31584                       LA    R1,WGSWLINE+WGSLNLNO
 0061D6 4100 0008            00008 31585                       LA    R0,8
 0061DA 18F2                       31586                       LR    R15,R2
 0061DC 58E0 7070/0DEE       06228 31587                       VCALL BTDZEROS
1WGS      (WGS2193) (13:01) (15MAR04) Show catalog                                                                          Page   83
0Current Usings:  (WGSWA,R6) (*,R7) (WGSWWA-(4+36),R8) (CP,R11) (CV,R12)
0Loc    Object Code    Addr1 Addr2  Stmt Lv Lineno    Source Statement           (Hibal 5, Asmedit 3.3)  HLASM R4.0  2004/03/15 13.01
+___    ______ ____    _____ _____  ____ __ ______    ______ _________
0                                  31591
                                   31592                       COMMENT                   WRITE LINE RECORD
 0061E2 5840 6050            00050 31593                       L     R4,WGWTBLK
 0061E6 D20F 4000 7058 00000 06210 31594                       MVC   @R4(L'WGSBKHDR),=CL16'FILE_WRITE:     '
 0061EC 4110 802C            00004 31595                       LA    R1,WGSWLINE
 0061F0 5800 8028            00000 31596                       L     R0,WGSWLLEN
 0061F4 41F0 6058/58E0_      00058 31597                       SEG   (R1),(R0),WGSSG
                                   31620
 0061FE 18D8/9808 D004_            31621                       PEND  ,
 DROP   WGSWWA-(4+36),R8
 DROP   *,R7
 DROP   WGSWA,R6                   31646                       DROP  R6
                                   31653                       QLTORG
1WGS      (WGS2193) (13:01) (15MAR04) Show catalog                                                                          Page   84
0Current Usings:  (CP,R11) (CV,R12)
0Loc    Object Code    Addr1 Addr2  Stmt Lv Lineno    Source Statement           (Hibal 5, Asmedit 3.3)  HLASM R4.0  2004/03/15 13.01
+___    ______ ____    _____ _____  ____ __ ______    ______ _________
0                                  31671              *
                                   31672              *
                                   31673              *  WGSCLOSE - WINGS CLOSE ...
                                   31674              *
                                   31675              *
                                   31676              *
                                   31677              *  WE FINISH UP END OF WINGS PROTOCOL.  THE PROTOCOL IS DIFFERENT
                                   31678              *  FOR READ VS. WRITE.  SO THERE ARE TWO VERSIONS OF CODE BELOW.
                                   31679              *
                                   31680              *
                                   31681              *  NOTE:
                                   31682              *  THIS ROUTINE WILL INDIRECTLY TSEG ANY MSG PASSED TO IT ON THE
                                   31683              *  'FILE_EOF:  ' MESSAGE.   SEE WRDEOF ROUTINE.
                                   31684              *
                                   31685              *  NOTE:
                                   31686              *  IF FILE IS ALREADY CLOSED.  THEN WE DO NOT CLOSE IT AGAIN.
                                   31687              *
                                   31688              *
 006230 50E0 D000/9008_      00000 31689              WGSCLOSE XPROC ,
 USING  *,R7
                                   31729
 00624A 5860 BE58            00E58 31730                       L     R6,CPDEVP
 USING  WGSWA,R6                   31731                       USING WGSWA,R6
 00624E 5850 BE54            00E54 31740                       L     R5,CPFINFOP
 USING  FFINFO,R5                  31741                       USING FFINFO,R5
                                   31750
                                   31751                       COMMENT                   IF PATH ALREADY CLOSED, DONE
 006252 58E0 70E6/0DEE       06330 31752                       ACALL WPCHECK
 006258 4770 70B6            06300 31756                       IF    NZ,WGSCDONE
                                   31770
                                   31771                       COMMENT                   READ PROTOCOL
                                   31772                       COMMENT                   W/SUCCESSFUL EOF RECEIVED
 00625C 9501 5001/4770_00001       31773                       IF    (FFFREAD,AND,WGSFEOF),BEGIN
                                   31802  1                      COMMENT SEND EOF MSG
 00626C 5840 6050            00050 31803  1                      L     R4,WGWTBLK
 006270 D20F 4000 70C6 00000 06310 31804  1                      MVC   @R4(L'WGSBKHDR),=CL16'FILE_EOF:       '
 006276 1B00/41F0 6058_            31805  1                      SEGWR ,,WGSSG
                                   31829  1                      COMMENT SEND CLOSE MSG
 006282 5840 6050            00050 31830  1                      L     R4,WGWTBLK
 006286 D20F 4000 70D6 00000 06320 31831  1                      MVC   @R4(L'WGSBKHDR),=CL16'FILE_CLOSE:     '
 00628C 1B00/41F0 6058_            31832  1                      SEGWR ,,WGSSG
                                   31856  1                      COMMENT READ CLOSE MSG
 006298 58E0 70EE/0DEE       06338 31857  1                      ACALL WRDCLOSE
 00629E                            31861                       END
                                   31865
                                   31866                       COMMENT                   WRITE (APPEND/REPLACE) PROTOCOL
 00629E 9502 5001/4780_00001       31867                       IF    (FFFWRITE,OR,FFFAPPD,OR,FFFREPL),BEGIN
                                   31908  1                      COMMENT FORCE OUT PREV 'FILE_WRITE:     ' SEGS
 0062B6 1B00/41F0 6058_            31909  1                      SEGWR ,,WGSSG
                                   31933  1                      COMMENT SEND EOF MSG
 0062C2 5840 6050            00050 31934  1                      L     R4,WGWTBLK
 0062C6 D20F 4000 70C6 00000 06310 31935  1                      MVC   @R4(L'WGSBKHDR),=CL16'FILE_EOF:       '
 0062CC 1B00/41F0 6058_            31936  1                      SEGWR ,,WGSSG
                                   31960  1                      COMMENT READ EOF MSG
1WGS      (WGS2193) (13:01) (15MAR04) Show catalog                                                                          Page   85
0Current Usings:  (FFINFO,R5) (WGSWA,R6) (*,R7) (CP,R11) (CV,R12)
0Loc    Object Code    Addr1 Addr2  Stmt Lv Lineno    Source Statement           (Hibal 5, Asmedit 3.3)  HLASM R4.0  2004/03/15 13.01
+___    ______ ____    _____ _____  ____ __ ______    ______ _________
00062D8 58E0 70F2/0DEE       0633C 31961  1                      ACALL WRDEOF
                                   31965  1                      COMMENT SEND CLOSE MSG
 0062DE 5840 6050            00050 31966  1                      L     R4,WGWTBLK
 0062E2 D20F 4000 70D6 00000 06320 31967  1                      MVC   @R4(L'WGSBKHDR),=CL16'FILE_CLOSE:     '
 0062E8 1B00/41F0 6058_            31968  1                      SEGWR ,,WGSSG
                                   31992  1                      COMMENT READ CLOSE MSG
 0062F4 58E0 70EE/0DEE       06338 31993  1                      ACALL WRDCLOSE
 0062FA                            31997                       END
                                   32001
                                   32002                       COMMENT                   CLOSE PATH
 0062FA 58E0 70F6/0DEE       06340 32003                       ACALL WPCLOSE
                                   32007
 006300                            32008              WGSCDONE LABEL ,
 006300 1BFF                       32010                       CLEAR R15
 006302 18D8/9808 D004_            32014                       PEND  ,
 DROP   *,R7
 DROP   WGSWA,R6                   32034                       DROP  R6
 DROP   FFINFO,R5                  32041                       DROP  R5
                                   32048
                                   32049                       QLTORG
1WGS      (WGS2193) (13:01) (15MAR04) Show catalog                                                                          Page   86
0Current Usings:  (CP,R11) (CV,R12)
0Loc    Object Code    Addr1 Addr2  Stmt Lv Lineno    Source Statement           (Hibal 5, Asmedit 3.3)  HLASM R4.0  2004/03/15 13.01
+___    ______ ____    _____ _____  ____ __ ______    ______ _________
0                                  32069              *
                                   32070              *
                                   32071              *  CKACCESS - CHECK FOR DSN ACCESS
                                   32072              *
                                   32073              *  WE CHECK IF USER REALLY HAS ACCESS TO THIS DATA
                                   32074              *  SET BASEED ON 'SET ACCT ... PASS ..' AND 'SET AUTH'
                                   32075              *  ETC.
                                   32076              *
                                   32077              *  NOTE:
                                   32078              *  IF NO ACCOUNT ASSOCIATED WITH THE DATA SET, THEN
                                   32079              *  NO ACCESS IS GRANTED.
                                   32080              *
                                   32081              *  ON EXIT:
                                   32082              *    R15 - ZERO, ACCESS ALLOWED
                                   32083              *    R15 - NZ, NO ACCESS ALLOWED
                                   32084              *
                                   32085              *
                                   32086              *
 000000                00000 00005 32087              CKACWA   RECORD BEGIN
 000000                            32095  1           CKACGRP    DS    CL2
 000002                            32096  1           CKACUSER   DS    CL3
 000005                00005 00005 32097                       END
                                   32106              *
                                   32107              *
 006344 50E0 D000/9008_      00000 32108              CKACCESS PROC  CKACWA
 USING  *,R7
 USING  CKACWA-(4+36),R8
 00635E 5860 BE54            00E54 32158                       L     R6,CPFINFOP
 USING  FFINFO,R6                  32159                       USING FFINFO,R6
                                   32168
                                   32169                       COMMENT                   IF NOT WINGS, ERR
                                   32170                       COMMENT ,                 (IE. NO 'NOTYOURS' FOR NET,
 006362 9501 6000/4780_00000       32171                       IF    ~FFFWINGS,BEGIN      SAMSON, ETC.)
 00636A 47F0 C7D6            007D6 32186  1                      B     CVERROR
 00636E                            32187                       END
                                   32191
                                   32192                       COMMENT                   GET ACCOUNT FOR DATA SET WE
                                   32193                       COMMENT                   ARE TRYING TO ACCESS.
 00636E 58E0 7592/0DEE       068F0 32194                       VCALL NRESOLVE            GET FULL NAME
 006374 4110 6218/5800_      00218 32198                       SETMSG FFRNAME,L:FFRNAMEL
                                   32212            C          IF    ((R0,GT,11),AND,(@R1,EQ,'WYL.'),AND,
 00637C 5900 7596/47D0_      068F4                                   (@R1+6,EQ,'.'),AND,(@R1+10,EQ,'.')),BEGIN
 00639E D201 8028 1004 00000 00004 32270  1                      MVC   CKACGRP,@R1+4
 0063A4 D202 802A 1007 00002 00007 32271  1                      MVC   CKACUSER,@R1+7
 0063AA                            32272                       END
                                   32276
                                   32277                       COMMENT                   CHECK 'SET ACC .. PASS ..'
 0063AA D501 8028 B1BB_00000 001BB 32278                       IF ((CKACGRP,EQ,CPGRPSV),AND,(CKACUSER,EQ,CPUSERSV)),BEGIN
 0063BE 9180 B476/47E0_00476       32313  1                      IF    CPGFLG3.CPFKWENT,BEGIN    PASS SPECIFIED
 0063C6 1BFF                       32329  2                        CLEAR R15
 0063C8 47F0 708C            063EA 32333  2                        B     CKACEXIT
 0063CC                            32334  1                      END
 0063CC                            32338                       END
                                   32342
1WGS      (WGS2193) (13:01) (15MAR04) Show catalog                                                                          Page   87
0Current Usings:  (FFINFO,R6) (*,R7) (CKACWA-(4+36),R8) (CP,R11) (CV,R12)
0Loc    Object Code    Addr1 Addr2  Stmt Lv Lineno    Source Statement           (Hibal 5, Asmedit 3.3)  HLASM R4.0  2004/03/15 13.01
+___    ______ ____    _____ _____  ____ __ ______    ______ _________
0                                  32343                       COMMENT                   CHECK FOR SET AUTH
 0063CC D501 8028 B8A7_00000 008A7 32344                       IF ((CKACGRP,EQ,CPAUTHGP),AND,(CKACUSER,EQ,CPAUTHUS)),BEGIN
 0063E0 1BFF                       32379  1                      CLEAR R15
 0063E2 47F0 708C            063EA 32383  1                      B     CKACEXIT
 0063E6                            32384                       END
                                   32388
                                   32389                       COMMENT                   CHECK FOR PACCT (SOMEDAY ??)
                                   32390              *        IF    ((CKACGRP,EQ,CPPGRP),AND,(CKACUSER,EQ,CPPUSER)),BEGIN
                                   32391              *        IF    CPGFLG5.CPFKWENT,BEGIN    PASS SPECIFIED
                                   32392              *        CLEAR R15
                                   32393              *        B     CKACEXIT
                                   32394              *        END
                                   32395              *        END
                                   32396              *
                                   32397                       COMMENT                   FOR ALL OTHERS, WE MUST PROMPT
 0063E6 41F0 0004            00004 32398                       LA    R15,4
                                   32399
 0063EA                            32400              CKACEXIT LABEL ,
 0063EA 18D8/9808 D004_            32402                       PEND
 DROP   CKACWA-(4+36),R8
 DROP   *,R7
1WGS      (WGS2193) (13:01) (15MAR04) Show catalog                                                                          Page   88
0Current Usings:  (FFINFO,R6) (CP,R11) (CV,R12)
0Loc    Object Code    Addr1 Addr2  Stmt Lv Lineno    Source Statement           (Hibal 5, Asmedit 3.3)  HLASM R4.0  2004/03/15 13.01
+___    ______ ____    _____ _____  ____ __ ______    ______ _________
0                                  32428              *
                                   32429              *
                                   32430              *  WRNORMAL - REGULAR WINGS READ
                                   32431              *
                                   32432              *  ON ENTRY:
                                   32433              *    R1,R0 - BUFFER LOC,LEN TO READ LINE INTO
                                   32434              *    WGSNDX - PTR TO WINGS FORMAT LINE
                                   32435              *
                                   32436              *  ON EXIT:
                                   32437              *    R1,R0 - LINE TEXT
                                   32438              *    R2 - LINE NUMBER
                                   32439              *    R15 = ALWAYS RETURN ZERO
                                   32440              *
                                   32441              *  NOTE:
                                   32442              *  THE BUFFER LENGTH (PASSED IN R0) IS CURRENTLY
                                   32443              *  IGNORED.  BUFFER MUST BE &LINESZ+16 OR BIGGER.
                                   32444              *
                                   32445              *
                                   32446              *
 0063F8 50E0 D000/9008_      00000 32447              WRNORMAL PROC ,
 USING  *,R7
                                   32486
 006412 5860 BE58            00E58 32487                       L     R6,CPDEVP
 DROP   FFINFO,R6                  32488                       USING WGSWA,R6
 USING  WGSWA,R6
                                   32500
                                   32501                       COMMENT                   MOVE TEXT
 006416 1821                       32502                       LR    R2,R1               R2,R3 - OUTPUT LOC LEN
 006418 5840 6040            00040 32503                       L     R4,WGRDNDX          R4,R5 - INPUT LINE LOC, LEN
 00641C 5854 0000            00000 32504                       L     R5,WGSLNLEN(R4)
 006420 4144 000C            0000C 32505                       LA    R4,WGSLNTXT(R4)     ADJUST FOR START WGS LINE HDR
 006424 5B50 74EA            068FC 32506                       S     R5,=AL4(L'WGSLNHDR)
 006428 1255/47B0 702E             32507                       IF    (R5,NEG),BEGIN
 00642E D207 B886 74C6_00886 068D8 32521  1                      ERROR 'WINGS format error.  Unable to read file.',,ERROR
 006440                            32529                       END
 006440 1805                       32533                       LR    R0,R5               R0 - LENGTH OF TEXT MOVED
 006442 1835                       32534                       LR    R3,R5
 006444 0E24                       32535                       MVCL  R2,R4               MOVE TEXT
                                   32536
                                   32537                       COMMENT                   CALC LINE NUMBER IN R2
 006446 9001 D000/41D0_      00000 32538                       XPUSH R0,R1
 00644E 5810 6040            00040 32541                       L     R1,WGRDNDX
 006452 D507 1004 74CE 00004 068E0 32542                       CLC   WGSLNLNO(L'WGSLNLNO,R1),=XL(L'WGSLNLNO)'00'
 006458 4780 7072            06484 32543                       IF    NE,BEGIN            IF LINENO, GET IT
 00645C 4111 0004            00004 32554  1                      LA    R1,WGSLNLNO(R1)
 006460 4100 0008            00008 32555  1                      LA    R0,L'WGSLNLNO
 006464 58E0 74EE/0DEE       06900 32556  1                      VCALL GTINTVAL
 00646A 12FF/47B0 7070             32560  1                      IF    (R15,NEG),BEGIN
 006470 D207 B886 74C6_00886 068D8 32574  2                        ERROR 'WINGS format error.  Unable to read file.',,ERROR
 006482                            32582  1                      END
 006482 182F                       32586  1                      LR    R2,R15
 006484                            32587                       END
 006484 7076/47F0 7082 06484 0645A 32591                       ELSE  BEGIN               ELSE IF NO LINENO, WE SUPPLY ONE
 006488 5820 604C            0004C 32602  1                      L     R2,WGRDLNO
1WGS      (WGS2193) (13:01) (15MAR04) Show catalog                                                                          Page   89
0Current Usings:  (WGSWA,R6) (*,R7) (CP,R11) (CV,R12)
0Loc    Object Code    Addr1 Addr2  Stmt Lv Lineno    Source Statement           (Hibal 5, Asmedit 3.3)  HLASM R4.0  2004/03/15 13.01
+___    ______ ____    _____ _____  ____ __ ______    ______ _________
000648C 5A20 B738            00738 32603  1                      A     R2,CPDELTA
 006490 5020 604C            0004C 32604  1                      ST    R2,WGRDLNO
 006494                            32605                       END
 006494 4BD0 751E/9801_      06930 32609                       XPOP  R0,R1
                                   32612
                                   32613                       COMMENT                   BUMP BLOCK POINTERS
 00649C 5840 6040            00040 32614                       L     R4,WGRDNDX
 0064A0 5834 0000            00000 32615                       L     R3,WGSLNLEN(R4)     BUMP NDX
 0064A4 5A30 6040            00040 32616                       A     R3,WGRDNDX
 0064A8 5030 6040            00040 32617                       ST    R3,WGRDNDX
                                   32618
 0064AC 9002 8004            00004 32619                       PRETURN (R0,R2)
 0064B0 1BFF                       32621                       CLEAR R15
 0064B2 18D8/9808 D004_            32625                       PEND
 DROP   *,R7
 DROP   WGSWA,R6                   32645                       DROP  R6
1WGS      (WGS2193) (13:01) (15MAR04) Show catalog                                                                          Page   90
0Current Usings:  (CP,R11) (CV,R12)
0Loc    Object Code    Addr1 Addr2  Stmt Lv Lineno    Source Statement           (Hibal 5, Asmedit 3.3)  HLASM R4.0  2004/03/15 13.01
+___    ______ ____    _____ _____  ____ __ ______    ______ _________
0                                  32653              *
                                   32654              *
                                   32655              *  WRWRAP - WINGS READ, PROCESS WRAPPED READS
                                   32656              *
                                   32657              *  ON ENTRY:
                                   32658              *    R1,R0 - BUFFER LOC,LEN TO READ LINE INTO
                                   32659              *    WGSNDX - PTR TO WINGS FORMAT LINE
                                   32660              *
                                   32661              *  ON EXIT:
                                   32662              *    R1,R0 - LINE TEXT
                                   32663              *    R2 - LINE NUMBER
                                   32664              *    R15 = ALWAYS RETURN ZERO
                                   32665              *
                                   32666              *  NOTE:
                                   32667              *  THE BUFFER LENGTH (PASSED IN R0) IS CURRENTLY
                                   32668              *  IGNORED.  BUFFER MUST BE &LINESZ+16 OR BIGGER.
                                   32669              *
                                   32670              *  HEY: !!
                                   32671              *  FOR NOW ** WE DO NOT WRAP ** WE TRUNCATE **
                                   32672              *  THIS IS WHAT OLDIBM DOES FOR VBS FILES.  TO
                                   32673              *  START WRAPPING AT 235 INSTEAD OF TRUNCATING
                                   32674              *  SEE ** DEBUG ** COMMENTS BELOW.
                                   32675              *
                                   32676              *
 0064C0 50E0 D000/9008_      00000 32677              WRWRAP   PROC ,
 USING  *,R7
                                   32716
 0064DA 5860 BE58            00E58 32717                       L     R6,CPDEVP
 USING  WGSWA,R6                   32718                       USING WGSWA,R6
                                   32727
                                   32728                       COMMENT                   MOVE TEXT
 0064DE 1821                       32729                       LR    R2,R1               R2,R3 - OUTPUT LOC LEN
 0064E0 5840 6040            00040 32730                       L     R4,WGRDNDX          R4,R5 - INPUT LINE LOC, LEN
 0064E4 5854 0000            00000 32731                       L     R5,WGSLNLEN(R4)
 0064E8 4144 000C            0000C 32732                       LA    R4,WGSLNTXT(R4)     ADJUST FOR START WGS LINE HDR
 0064EC 5B50 7422            068FC 32733                       S     R5,=AL4(L'WGSLNHDR)
 0064F0 5A40 6048            00048 32734                       A     R4,WGRDOFF           ADJUST FOR LINE OFFSET
 0064F4 5B50 6048            00048 32735                       S     R5,WGRDOFF
 0064F8 1255/47B0 7036             32736                       IF    (R5,NEG),BEGIN
 0064FE D207 B886 73FE_00886 068D8 32750  1                      ERROR 'WINGS format error.  Unable to read file.',,ERROR
 006510                            32758                       END
 006510 5950 742A/47D0_      06904 32762                       IF    (R5,GT,&LINESZ),BEGIN   USE A MAXIMUM OF &LINESZ TEXT
 006518 4150 00EB            000EB 32779  1                      LA    R5,&LINESZ
 00651C                            32780                       END
 00651C 1805                       32784                       LR    R0,R5               R0 - LENGTH OF TEXT MOVED
 00651E 1835                       32785                       LR    R3,R5
 006520 0E24                       32786                       MVCL  R2,R4               MOVE TEXT
                                   32787
                                   32788                       COMMENT                   BUMP BLOCK POINTERS
 006522 5820 6048            00048 32789                       L     R2,WGRDOFF          GET, BUMP OFFSET
 006526 1A20                       32790                       AR    R2,R0
 006528 5020 6048            00048 32791                       ST    R2,WGRDOFF
 00652C 5820 6040            00040 32792                       L     R2,WGRDNDX          GET TOTAL TEXT LEN IN R3
 006530 5832 0000            00000 32793                       L     R3,WGSLNLEN(R2)
1WGS      (WGS2193) (13:01) (15MAR04) Show catalog                                                                          Page   91
0Current Usings:  (WGSWA,R6) (*,R7) (CP,R11) (CV,R12)
0Loc    Object Code    Addr1 Addr2  Stmt Lv Lineno    Source Statement           (Hibal 5, Asmedit 3.3)  HLASM R4.0  2004/03/15 13.01
+___    ______ ____    _____ _____  ____ __ ______    ______ _________
0006534 5B30 7422            068FC 32794                       S     R3,=AL4(L'WGSLNHDR)
                                   32795              * ** DEBUG **    TO WRAP AND NOT TRUNCATE DO THE FOLLOWING:
                                   32796              * ** DEBUG **    DELETE (COMMENT OUT) FOLLOWING LINE:
 006538 1900/4770 7076             32797                       IF    (R0,EQ,R0),BEGIN    ALWAYS BUMP TO NEXT RECORD
                                   32812  1           * ** DEBUG **    TO WRAP AND NOT TRUNCATE DO THE FOLLOWING:
                                   32813  1           * ** DEBUG **    ADD (UNCOMMENT OUT) FOLLOWING LINE:
                                   32814  1           * ***    IF    (WGRDOFF,GE,R3),BEGIN  IF AT END OF RECORD
 00653E D703 6048 6048 00048 00048 32815  1                      CLEAR WGRDOFF             CLEAR OFFSET
 006544 5832 0000            00000 32822  1                      L     R3,WGSLNLEN(R2)     BUMP NDX
 006548 5A30 6040            00040 32823  1                      A     R3,WGRDNDX
 00654C 5030 6040            00040 32824  1                      ST    R3,WGRDNDX
 006550                            32825                       END
                                   32829
                                   32830                       COMMENT                   CALCULATE LINE NUMBER
 006550 5820 604C            0004C 32831                       L     R2,WGRDLNO            WRAPPED LINES GET AUTOMATIC
 006554 5A20 B738            00738 32832                       A     R2,CPDELTA            NUMBERING
 006558 5020 604C            0004C 32833                       ST    R2,WGRDLNO
                                   32834
 00655C 9002 8004            00004 32835                       PRETURN (R0,R2)
 006560 1BFF                       32837                       CLEAR R15
 006562 18D8/9808 D004_            32841                       PEND
 DROP   *,R7
1WGS      (WGS2193) (13:01) (15MAR04) Show catalog                                                                          Page   92
0Current Usings:  (WGSWA,R6) (CP,R11) (CV,R12)
0Loc    Object Code    Addr1 Addr2  Stmt Lv Lineno    Source Statement           (Hibal 5, Asmedit 3.3)  HLASM R4.0  2004/03/15 13.01
+___    ______ ____    _____ _____  ____ __ ______    ______ _________
0                                  32862              *
                                   32863              *
                                   32864              *  WRFORMAT - WINGS READ FORMATTED LINE ROUTINE
                                   32865              *
                                   32866              *  THIS ROUTINE DOES ANY INTEGER, NUMBERED, LRECL PROCESSING
                                   32867              *
                                   32868              *  ON ENTRY:
                                   32869              *    R1,R0 - BUFFER LOC,LEN TO READ LINE INTO
                                   32870              *    WGSNDX - PTR TO WINGS FORMAT LINE
                                   32871              *
                                   32872              *  ON EXIT:
                                   32873              *    R1,R0 - LINE TEXT
                                   32874              *    R2 - LINE NUMBER
                                   32875              *    R15 = ALWAYS RETURN ZERO
                                   32876              *
                                   32877              *  NOTE:
                                   32878              *  THE BUFFER LENGTH (PASSED IN R0) IS CURRENTLY
                                   32879              *  IGNORED.  BUFFER MUST BE &LINESZ+16 OR BIGGER.
                                   32880              *
                                   32881              *  NOTE:
                                   32882              *  IF LINES WRAP, INTEGER, NUMBER, SEQFLD STUFF NOT PROCESSED.
                                   32883              *
                                   32884              *
 000000                00000 00010 32885              WRFWA    RECORD BEGIN
 000000                            32893  1           WRFLOC     DS    F
 000004                            32894  1           WRFLEN     DS    F
 000008                            32895  1           WRFDEST    DS    F
 00000C                            32896  1           WRFLNO     DS    F
 000010                00010 00010 32897                       END
                                   32906              *
                                   32907              *
 006570 50E0 D000/9008_      00000 32908              WRFORMAT PROC  WRFWA
 USING  *,R7
 USING  WRFWA-(4+36),R8
                                   32958
 00658A 5860 BE58            00E58 32959                       L     R6,CPDEVP
                                   32960                       USING WGSWA,R6
                                   32962
                                   32963                       COMMENT                   GET/SAVE INPUT/OUTPUT BUF PTRS
 00658E 5010 8030            00008 32964                       ST    R1,WRFDEST          R1,R0 - OUTPUT BUFFER LOC, LEN
 006592 5840 6040            00040 32965                       L     R4,WGRDNDX          R4,R5 - INPUT LINE LOC, LEN
 006596 5854 0000            00000 32966                       L     R5,WGSLNLEN(R4)
 00659A 5B50 7372            068FC 32967                       S     R5,=AL4(L'WGSLNHDR) ADJUST FOR START WGS LINE HDR
 00659E 5A40 7372            068FC 32968                       A     R4,=AL4(L'WGSLNHDR)
 0065A2 1255/47B0 7030             32969                       IF    (R5,NEG),BEGIN
 0065A8 D207 B886 734E_00886 068D8 32983  1                      ERROR 'WINGS format error.  Unable to read file.',,ERROR
 0065BA                            32991                       END
 0065BA 5040 8028            00000 32995                       ST    R4,WRFLOC
 0065BE 5050 802C            00004 32996                       ST    R5,WRFLEN
                                   32997
                                   32998                       COMMENT                   MOVE LINE TO BUFFER
 0065C2 5820 8030            00008 32999                       L     R2,WRFDEST
 0065C6 5830 802C            00004 33000                       L     R3,WRFLEN
 0065CA 5840 8028            00000 33001                       L     R4,WRFLOC
1WGS      (WGS2193) (13:01) (15MAR04) Show catalog                                                                          Page   93
0Current Usings:  (WGSWA,R6) (*,R7) (WRFWA-(4+36),R8) (CP,R11) (CV,R12)
0Loc    Object Code    Addr1 Addr2  Stmt Lv Lineno    Source Statement           (Hibal 5, Asmedit 3.3)  HLASM R4.0  2004/03/15 13.01
+___    ______ ____    _____ _____  ____ __ ______    ______ _________
00065CE 5850 802C            00004 33002                       L     R5,WRFLEN
 0065D2 0E24                       33003                       MVCL  R2,R4
                                   33004
                                   33005                       COMMENT                   ** DEBUG **  EXTEND LINES TO LRECL
 0065D4 D503 7346 600C_068D0 0000C 33006                       IF    (WGSLRECL,NE,0),BEGIN
 0065DE 5830 8030            00008 33024  1                      L     R3,WRFDEST
 0065E2 5A30 802C            00004 33025  1                      A     R3,WRFLEN
 0065E6 5840 8030            00008 33026  1                      L     R4,WRFDEST
 0065EA 5A40 600C            0000C 33027  1                      A     R4,WGSLRECL
 0065EE 1934/47B0 7076             33028  1                      WHILE (R3,LT,R4),BEGIN
 0065F4 9240 3000      00000       33045  2                        MVI   @R3,C' '
 0065F8 5E30 737E            06908 33046  2                        INCR  R3
 0065FC 47F0 7064            065EE 33049  1                      END
 006600 5830 600C            0000C 33054  1                      L     R3,WGSLRECL
 006604 5030 802C            00004 33055  1                      ST    R3,WRFLEN
 006608                            33056                       END
                                   33060
                                   33061                       COMMENT                   IF INTEGER/NUMBER DO IT
 006608 9180 602A/4710_0002A       33062                       IF    ((WGSFNUM,OR,WGSFINT),AND,~WGSFSEQ),BEGIN
 006620 5810 8030            00008 33105  1                      L     R1,WRFDEST
 006624 5A10 802C            00004 33106  1                      A     R1,WRFLEN
 006628 5B10 7382            0690C 33107  1                      S     R1,=F'8'
 00662C 4100 0008            00008 33108  1                      LA    R0,8
 006630 58E0 7386/0DEE       06910 33109  1                      ACALL GTINTVAL
 006636 12FF/47B0 70CA             33113  1                      IF    (R15,NEG),BEGIN
 00663C 58E0 738A/0DEE       06914 33127  2                        ACALL GTLNOVAL
 006642 12FF/47B0 70CA             33131  2                        IF    (R15,NEG),BEGIN
 006648 4110 73DB/4100_      06965 33145  3                          ERROR 'Invalid NUMBER/INTEGER option.  Command incomplete.'
 006654                            33152  2                        END
 006654                            33156  1                      END
 006654 50F0 8034            0000C 33160  1                      ST    R15,WRFLNO
 006658 D207 1000 735E 00000 068E8 33161  1                      MVC   @R1(8),=CL8'        '  BLANK LINE NUMBER
 00665E                            33162                       END
                                   33166
                                   33167                       COMMENT                   IF SEQFLD= ..
 00665E 70D8/70D8/47F0_0665E 06616 33168                       ELSEIF WGSFSEQ,BEGIN
                                   33194  1                      COMMENT                   GET R3 - SEQFLD OFFSET
 00666A 5830 6034            00034 33195  1                      L     R3,WGSSEQF
 00666E 0630                       33196  1                      DECR  R3
 006670 1233/47B0 70F4             33198  1                      IF    (R3,NEG),BEGIN
 006676 5830 802C            00004 33212  2                        L     R3,WRFLEN
 00667A 5B30 6038            00038 33213  2                        S     R3,WGSSEQFL
 00667E                            33214  1                      END
                                   33218  1                      COMMENT                   GET SEQFLD VALUE
 00667E 5810 8030            00008 33219  1                      L     R1,WRFDEST
 006682 1A13                       33220  1                      AR    R1,R3
 006684 5800 6038            00038 33221  1                      L     R0,WGSSEQFL
 006688 58E0 7386/0DEE       06910 33222  1                      ACALL GTINTVAL
 00668E 12FF/47B0 7122             33226  1                      IF    (R15,NEG),BEGIN
 006694 58E0 738A/0DEE       06914 33240  2                        ACALL GTLNOVAL
 00669A 12FF/47B0 7122             33244  2                        IF    (R15,NEG),BEGIN
 0066A0 4110 73DB/4100_      06965 33258  3                          ERROR 'Invalid NUMBER/INTEGER option.  Command incomplete.'
 0066AC                            33265  2                        END
 0066AC                            33269  1                      END
1WGS      (WGS2193) (13:01) (15MAR04) Show catalog                                                                          Page   94
0Current Usings:  (WGSWA,R6) (*,R7) (WRFWA-(4+36),R8) (CP,R11) (CV,R12)
0Loc    Object Code    Addr1 Addr2  Stmt Lv Lineno    Source Statement           (Hibal 5, Asmedit 3.3)  HLASM R4.0  2004/03/15 13.01
+___    ______ ____    _____ _____  ____ __ ______    ______ _________
00066AC 50F0 8034            0000C 33273  1                      ST    R15,WRFLNO          GOT NUMBER
                                   33274  1                      COMMENT                   BLANK SEQ NUMBER
 0066B0 5840 8030            00008 33275  1                      L     R4,WRFDEST
 0066B4 1A43                       33276  1                      AR    R4,R3 SEQF
 0066B6 5850 6038            00038 33277  1                      L     R5,WGSSEQFL
 0066BA 0650/1255/4740_            33278  1                      MOVE  R5,@R4,=CL10'         '
                                   33316  1                      COMMENT                   SHRINK LINE
 0066C6 5840 8030            00008 33317  1                      L     R4,WRFDEST
 0066CA 1A43                       33318  1                      AR    R4,R3 SEQF
 0066CC 5A40 6038            00038 33319  1                      A     R4,WGSSEQFL
 0066D0 5820 8030            00008 33320  1                      L     R2,WRFDEST
 0066D4 1A23                       33321  1                      AR    R2,R3 SEQF
 0066D6 5850 802C            00004 33322  1                      L     R5,WRFLEN
 0066DA 1B53                       33323  1                      SR    R5,R3 SEQF
 0066DC 5B50 6038            00038 33324  1                      S     R5,WGSSEQFL
 0066E0 1255/47D0 7162             33325  1                      IF    (R5,POS),BEGIN
 0066E6 0650/4450 7414_            33339  2                        DEX   R5,' MVC @R2(0),@R4 '
 0066EC                            33358  1                      END
 0066EC                            33362                       END
                                   33366
                                   33367                       COMMENT                   BUMP BLOCK POINTERS
 0066EC 5840 6040            00040 33368                       L     R4,WGRDNDX
 0066F0 5834 0000            00000 33369                       L     R3,WGSLNLEN(R4)     BUMP NDX
 0066F4 5A30 6040            00040 33370                       A     R3,WGRDNDX
 0066F8 5030 6040            00040 33371                       ST    R3,WGRDNDX
                                   33372
                                   33373                       COMMENT                   SET RETURNS
 0066FC 5810 8030            00008 33374                       L     R1,WRFDEST
 006700 5800 802C            00004 33375                       L     R0,WRFLEN
 006704 58E0 738E/0DEE       06918 33376                       VCALL RTRIM
 00670A 5820 8034            0000C 33380                       L     R2,WRFLNO
 00670E 9002 8004            00004 33381                       PRETURN (R0,R2)
                                   33383
 006712 18D8/9808 D004_            33384                       PEND  ,
 DROP   WRFWA-(4+36),R8
 DROP   *,R7
 DROP   WGSWA,R6                   33409                       DROP  R6
1WGS      (WGS2193) (13:01) (15MAR04) Show catalog                                                                          Page   95
0Current Usings:  (CP,R11) (CV,R12)
0Loc    Object Code    Addr1 Addr2  Stmt Lv Lineno    Source Statement           (Hibal 5, Asmedit 3.3)  HLASM R4.0  2004/03/15 13.01
+___    ______ ____    _____ _____  ____ __ ______    ______ _________
0                                  33417              *
                                   33418              *
                                   33419              *  WWFORMAT - WINGS WRITE LINE FORMAT ROUTINE
                                   33420              *
                                   33421              *  THIS ROUTINE DOES ANY INTEGER, NUMBERED, LRECL PROCESSING
                                   33422              *
                                   33423              *  ON ENTRY:
                                   33424              *    R1,R0 - LINE LOCATION LENGTH
                                   33425              *    R2 - LINE NUMBER
                                   33426              *    R15 - PLACE TO PUT TEXT (MAY EXPAND!)
                                   33427              *
                                   33428              *  ON EXIT:
                                   33429              *    R1,R0 - NEW LINE LOCATION LENGTH
                                   33430              *    R2 - NOT CHANGED
                                   33431              *
                                   33432              *
                                   33433              *
 000000                00000 00014 33434              WWFWA    RECORD BEGIN
 000000                            33442  1           WWFLOC     DS    F
 000004                            33443  1           WWFLEN     DS    F
 000008                            33444  1           WWFDEST    DS    F
 00000C                            33445  1           WWFLNO     DS    F
 000010                            33446  1           WWFLNUSD   DS    F       Actual record length
 000014                00014 00014 33447                       END
                                   33456              *
                                   33457              *
 006720 50E0 D000/9008_      00000 33458              WWFORMAT PROC  WWFWA
 USING  *,R7
 USING  WWFWA-(4+36),R8
                                   33508
 00673A 5860 BE58            00E58 33509                       L     R6,CPDEVP
 USING  WGSWA,R6                   33510                       USING WGSWA,R6
                                   33519
 00673E 5000 802C            00004 33520                       ST    R0,WWFLEN
 006742 5010 8028            00000 33521                       ST    R1,WWFLOC
 006746 5020 8034            0000C 33522                       ST    R2,WWFLNO
 00674A 50F0 8030            00008 33523                       ST    R15,WWFDEST
 00674E D703 8038 8038 00010 00010 33524                       CLEAR WWFLNUSD
                                   33531
                                   33532                       COMMENT                   IF NO FORMATTING, JUST MOVE
 006754 D503 7196 600C_068D0 0000C 33533                       IF    (WGSLRECL,EQ,0),BEGIN
 00675E 182F                       33551  1                      LR    R2,R15
 006760 1830                       33552  1                      LR    R3,R0
 006762 1841                       33553  1                      LR    R4,R1
 006764 1850                       33554  1                      LR    R5,R0
 006766 0E24                       33555  1                      MVCL  R2,R4
 006768 5000 8038            00010 33556  1                      ST    R0,WWFLNUSD
 00676C                            33557                       END
                                   33561
 00676C 7036/47F0 716C 0676C 0675C 33562                       ELSE  BEGIN               FORMAT RECORD
 006770 182F                       33573  1                      LR    R2,R15
 006772 5830 600C            0000C 33574  1                      L     R3,WGSLRECL
 006776 1841                       33575  1                      LR    R4,R1
 006778 1850                       33576  1                      LR    R5,R0
1WGS      (WGS2193) (13:01) (15MAR04) Show catalog                                                                          Page   96
0Current Usings:  (WGSWA,R6) (*,R7) (WWFWA-(4+36),R8) (CP,R11) (CV,R12)
0Loc    Object Code    Addr1 Addr2  Stmt Lv Lineno    Source Statement           (Hibal 5, Asmedit 3.3)  HLASM R4.0  2004/03/15 13.01
+___    ______ ____    _____ _____  ____ __ ______    ______ _________
000677A 1953/47D0 704C             33577  1                      IF    (R5,GT,R3),BEGIN
 006780 9640 BD56      00D56       33592  2                        SET   CPFTRUNC
 006784 1853                       33598  2                        LR    R5,R3
 006786                            33599  1                      END
                                   33603  1           *
                                   33604  1           * For RECFM=V or RECFM=VB, use the source line length
                                   33605  1           * (possibly truncated above), as the destination length.
                                   33606  1           *
 006786 9120 6029/47E0_00029       33607  1                      IF    WGSFV,BEGIN
 00678E 1835                       33622  2                        LR    R3,R5
 006790                            33623  1                      END
 006790 5030 8038            00010 33627  1                      ST    R3,WWFLNUSD
 006794 5650 71E2            0691C 33628  1                      O     R5,=X'40000000'
 006798 0E24                       33629  1                      MVCL  R2,R4
                                   33630  1
                                   33631  1                      COMMENT                   IF INTEGER
 00679A 9120 602A/47E0_0002A       33632  1                      IF    (WGSFINT,AND,~WGSFSEQ),BEGIN
 0067AA 5810 8030            00008 33661  2                        L     R1,WWFDEST
 0067AE 5A10 600C            0000C 33662  2                        A     R1,WGSLRECL
 0067B2 5B10 71D2            0690C 33663  2                        S     R1,=F'8'
 0067B6 4100 0008            00008 33664  2                        LA    R0,8
 0067BA 58F0 8034            0000C 33665  2                        L     R15,WWFLNO
 0067BE 58E0 71E6/0DEE       06920 33666  2                        VCALL BTDZEROS
 0067C4                            33670  1                      END
                                   33674  1
                                   33675  1                      COMMENT                   IF NUMBER
 0067C4 708E/708E/47F0_067C4 067A0 33676  1                      ELSEIF (WGSFNUM,AND,~WGSFSEQ),BEGIN
 0067D8 5800 8034            0000C 33716  2                        L     R0,WWFLNO
 0067DC 58E0 71EA/0DEE       06924 33717  2                        VCALL CVEXNO
 0067E2 5810 8030            00008 33721  2                        L     R1,WWFDEST
 0067E6 5A10 600C            0000C 33722  2                        A     R1,WGSLRECL
                                   33723  2           *
                                   33724  2           * If numbered specified, and CARD specified, default the
                                   33725  2           * sequence field to (73,8) if it wasn't specified.
                                   33726  2           *
 0067EA D503 71EE 600C_06928 0000C 33727  2                        IF    (WGSLRECL,EQ,80),BEGIN
 0067F4 4120 BC91            00C91 33745  3                          LA    R2,CPDOUB+9
 0067F8 4130 0008            00008 33746  3                          LA    R3,8
 0067FC 1B23                       33747  3                          SR    R2,R3
 0067FE 1B13                       33748  3                          SR    R1,R3
 006800 0630/4430 726A_            33749  3                          DEX   R3,'MVC @R1(0),@R2'
 006806                            33768  2                        END
 006806 70D0/47F0 70DA 06806 067F2 33772  2                        ELSE  BEGIN
 00680A 5B10 71F2            0692C 33783  3                          S     R1,=F'9'
 00680E D208 1000 BC88 00000 00C88 33784  3                          MVC   @R1(9),CPDOUB
 006814                            33785  2                        END
 006814                            33789  1                      END
                                   33793  1
                                   33794  1                      COMMENT                   IF SEQFLD= ..
 006814 70DE/70DE/47F0_06814 067CE 33795  1                      ELSEIF WGSFSEQ,BEGIN
                                   33821  2                        COMMENT                   GET R4,R5 SEQFLD OFFSET LEN
 006820 5840 6034            00034 33822  2                        L     R4,WGSSEQF
 006824 0640                       33823  2                        DECR  R4
 006826 1244/47B0 70FA             33825  2                        IF    (R4,NEG),BEGIN
1WGS      (WGS2193) (13:01) (15MAR04) Show catalog                                                                          Page   97
0Current Usings:  (WGSWA,R6) (*,R7) (WWFWA-(4+36),R8) (CP,R11) (CV,R12)
0Loc    Object Code    Addr1 Addr2  Stmt Lv Lineno    Source Statement           (Hibal 5, Asmedit 3.3)  HLASM R4.0  2004/03/15 13.01
+___    ______ ____    _____ _____  ____ __ ______    ______ _________
000682C 5840 600C            0000C 33839  3                          L     R4,WGSLRECL
 006830 5B40 6038            00038 33840  3                          S     R4,WGSSEQFL
 006834                            33841  2                        END
 006834 5850 6038            00038 33845  2                        L     R5,WGSSEQFL
                                   33846  2                        COMMENT                   MOVE LINE TEXT
 006838 5800 8030            00008 33847  2                        L     R0,WWFDEST          LAST PART, THEN FIRST PART
 00683C 5A00 6038            00038 33848  2                        A     R0,WGSSEQFL
 006840 5810 600C            0000C 33849  2                        L     R1,WGSLRECL
 006844 5B10 6038            00038 33850  2                        S     R1,WGSSEQFL
 006848 5820 8028            00000 33851  2                        L     R2,WWFLOC
 00684C 5830 802C            00004 33852  2                        L     R3,WWFLEN
 006850 5630 71E2            0691C 33853  2                        O     R3,=X'40000000'
 006854 0E02                       33854  2                        MVCL  R0,R2
 006856 5800 8030            00008 33855  2                        L     R0,WWFDEST
 00685A 1814                       33856  2                        LR    R1,R4
 00685C 5820 8028            00000 33857  2                        L     R2,WWFLOC
 006860 5830 802C            00004 33858  2                        L     R3,WWFLEN
 006864 5630 71E2            0691C 33859  2                        O     R3,=X'40000000'
 006868 0E02                       33860  2                        MVCL  R0,R2
                                   33861  2                        COMMENT                   MOVE IN INTEGER LINE NUMBER
 00686A 9120 602A/47E0_0002A       33862  2                        IF    WGSFINT,BEGIN
 006872 5810 8030            00008 33877  3                          L     R1,WWFDEST
 006876 1A14                       33878  3                          AR    R1,R4
 006878 1805                       33879  3                          LR    R0,R5
 00687A 58F0 8034            0000C 33880  3                          L     R15,WWFLNO
 00687E 58E0 71E6/0DEE       06920 33881  3                          VCALL BTDZEROS
 006884                            33885  2                        END
                                   33889  2                        COMMENT                   MOVE IN LINE NUMBER W/DECIMAL
 006884 714E/47F0 716C 06884 06870 33890  2                        ELSE  BEGIN
 006888 5800 8034            0000C 33901  3                          L     R0,WWFLNO
 00688C 58E0 71EA/0DEE       06924 33902  3                          VCALL CVEXNO
 006892 5810 8030            00008 33906  3                          L     R1,WWFDEST
 006896 1A14                       33907  3                          AR    R1,R4
 006898 4120 BC91            00C91 33908  3                          LA    R2,CPDOUB+9
 00689C 1B25                       33909  3                          SR    R2,R5
 00689E 1835                       33910  3                          LR    R3,R5
 0068A0 0630/4430 7270_            33911  3                          DEX   R3,'MVC @R1(0),@R2'
 0068A6                            33930  2                        END
 0068A6                            33934  1                      END
 0068A6                            33938                       END
                                   33942
                                   33943                       COMMENT                   SET RETURNS
 0068A6 5810 8030            00008 33944                       L     R1,WWFDEST
 0068AA 5800 802C            00004 33945                       L     R0,WWFLEN
 0068AE D503 7196 8038_068D0 00010 33946                       IF    (WWFLNUSD,NE,0),BEGIN
 0068B8 5800 8038            00010 33964  1                      L     R0,WWFLNUSD
 0068BC                            33965                       END
 0068BC 9001 8004            00004 33969                       PRETURN (R0,R1)
                                   33971
 0068C0 18D8/9808 D004_            33972                       PEND  ,
 DROP   WWFWA-(4+36),R8
 DROP   *,R7
 DROP   WGSWA,R6                   33997                       DROP  R6
                                   34004
1WGS      (WGS2193) (13:01) (15MAR04) Show catalog                                                                          Page   98
0Current Usings:  (CP,R11) (CV,R12)
0Loc    Object Code    Addr1 Addr2  Stmt Lv Lineno    Source Statement           (Hibal 5, Asmedit 3.3)  HLASM R4.0  2004/03/15 13.01
+___    ______ ____    _____ _____  ____ __ ______    ______ _________
0                                  34005                       QLTORG
1WGS      (WGS2193) (13:01) (15MAR04) Show catalog                                                                          Page   99
0Current Usings:  (CP,R11) (CV,R12)
0Loc    Object Code    Addr1 Addr2  Stmt Lv Lineno    Source Statement           (Hibal 5, Asmedit 3.3)  HLASM R4.0  2004/03/15 13.01
+___    ______ ____    _____ _____  ____ __ ______    ______ _________
0                                  34042              *
                                   34043              *
                                   34044              *  WRDOPEN - READ/PROCESS OPEN FILE RESPONSE
                                   34045              *
                                   34046              *  ON EXIT:
                                   34047              *    R15=0, ALL OK
                                   34048              *    R15=NZ, ERROR, ERR MSG TSEG'D, PATH CLOSED.
                                   34049              *
                                   34050              *
 0069B0 50E0 D000/9008_      00000 34051              WRDOPEN  PROC  ,
 USING  *,R7
                                   34090
                                   34091                       COMMENT                   READ FROM WINGS PATH
 0069CA 58E0 7CD6/0DEE       076A0 34092                       ACALL WPREAD
 0069D0 4780 7012            069DC 34096                       IF    NZ,BEGIN
 0069D4 41F0 0004            00004 34107  1                      LA    R15,4
 0069D8 47F0 710E            06AD8 34108  1                      B     WRDODONE
 0069DC                            34109                       END
                                   34113
                                   34114                       COMMENT                   CHECK FOR WINGS ERROR RETURN
 0069DC 5900 7CDA/4750_      076A4 34115                       IF    ((R0,GE,16),AND,(@R1,EQ,'FILE_ERROR:     ')),BEGIN
 0069EE 58E0 7CDE/0DEE       076A8 34147  1                      ACALL WRDERROR
 0069F4 58E0 7CE2/0DEE       076AC 34151  1                      ACALL WPCLOSE
 0069FA 41F0 0004            00004 34155  1                      LA    R15,4
 0069FE 47F0 710E            06AD8 34156  1                      B     WRDODONE
 006A02                            34157                       END
                                   34161
                                   34162                       COMMENT
                                   34163            C          IF    ((R0,LT,L'WGSBKHDR),OR,
 006A02 5900 7CE6/4740_      076B0                                   (@R1,NE,'FILE_OPEN:     ')),BEGIN
 006A14 4110 7D69/4100_      07733 34195  1                      TSEG  'WINGS path error.  Unable to open file.'
 006A26 58E0 7CE2/0DEE       076AC 34213  1                      ACALL WPCLOSE
 006A2C 41F0 0004            00004 34217  1                      LA    R15,4
 006A30 47F0 710E            06AD8 34218  1                      B     WRDODONE
 006A34                            34219                       END
                                   34223
                                   34224                       COMMENT                   SCAN/PROCESS RETURNS
 006A34 4111 0010            00010 34225                       LA    R1,L'WGSBKHDR(R1)
 006A38 5B00 7CEE            076B8 34226                       S     R0,=AL4(L'WGSBKHDR)
 006A3C 58E0 B08C/D2AF_      0008C 34227                       SCPUSH ,
 006A4A 58E0 B08C/D7AF_      0008C 34233                       SCCLR
 006A56 58E0 B08C/501E_      0008C 34242                       SCINIT (R1),(R0)
 006A64 5810 B08C/1B00_      0008C 34262                       SCAN  WGSOPRT
 006AB6 58E0 B08C/4BD0_      0008C 34294                       SCPOP ,
 006AC4 12FF/4780 710E             34300                       IF    (R15,NZ),BEGIN      BAD OPTION ON FILE_OPEN,
 006ACA 58E0 7CE2/0DEE       076AC 34314  1                      ACALL WPCLOSE             SHOULD NEVER HAPPEN
 006AD0 41F0 0004            00004 34318  1                      LA    R15,4
 006AD4 47F0 710E            06AD8 34319  1                      B     WRDODONE
 006AD8                            34320                       END
                                   34324
 006AD8                            34325              WRDODONE LABEL ,
 006AD8 18D8/9808 D004_            34327                       PEND  ,
 DROP   *,R7
                                   34347              *
1WGS      (WGS2193) (13:01) (15MAR04) Show catalog                                                                          Page  100
0Current Usings:  (CP,R11) (CV,R12)
0Loc    Object Code    Addr1 Addr2  Stmt Lv Lineno    Source Statement           (Hibal 5, Asmedit 3.3)  HLASM R4.0  2004/03/15 13.01
+___    ______ ____    _____ _____  ____ __ ______    ______ _________
0                                  34348              *  OPEN RETURNS SCKWS
                                   34349              *
 006AE8 D5C1D4C540404040_          34350              WGSOPRT  SCKW  NAME,WRTNAME
 006B10 C3C1E3C1D3D6C740_          34365                       SCKW  CATALOG,WRTCAT
 006B38 E5D6D3E4D4C54040_          34380                       SCKW  VOLUME,WRTVOL
 006B60 4040404040404040_          34395                       SCKW  ,WRTOTHER
                                   34410              *
                                   34411              *  FULLY RESOLVED, LONG FORMAT (CANONICAL) FILE NAME RETURNED
                                   34412              *
                                   34413              *  NOTE:
                                   34414              *  WE SAVE THIS NAME IN THE FFINFO DSECT, THE CPFSET FLAG WILL
                                   34415              *  DETERMINE WHETHER THIS BECOMES THE CURRENT FILE NAME. THIS
                                   34416              *  CODE IS FOUND IN MODE AND ACT, ETC.
                                   34417              *
                                   34418              *  TAKE THE ROUND-A-BOUT.  --   K-9 TO DR. WHO
                                   34419              *
                                   34420              *
 006B88 50E0 D000/9008_      00000 34421              WRTNAME  PROC  ,
 USING  *,R7
 006BA2 5860 BE54            00E54 34460                       L     R6,CPFINFOP
 USING  FFINFO,R6                  34461                       USING FFINFO,R6
                                   34470
                                   34471                       COMMENT                   SCAN NAME
 006BA6 5810 B08C/1B00_      0008C 34472                       SCANSTR ,                 SCAN W/SKIP=' ' STOP=' ,;='
                                   34501
 006BEC 12FF/4770 7076_            34502                       IF    ((R15,Z),AND,(R0,POS)),BEGIN  GOT NAME
                                   34529  1                      COMMENT                   SAVE CURRENT NAME IN FFINFO
                                   34530  1                      COMMENT                   SAVE CANONICAL NAME IN FFINFO
 006BF8 5900 7B26/47D0_      076C8 34531  1                      CEIL  R0,L'FFRNAME
 006C04 5000 6214            00214 34550  1                      ST    R0,FFRNAMEL
 006C08 1830                       34551  1                      LR    R3,R0
 006C0A 0630/1233/4740_            34552  1                      MOVE  R3,FFRNAME,@R1
 006C16 1BFF                       34590  1                      CLEAR R15
 006C18                            34594                       END
                                   34598
 006C18 707A/707A/47F0_06C18 06BF0 34599                       ELSE  BEGIN               NO NAME
 006C1C 41F0 0004            00004 34612  1                      LA    R15,4
 006C20                            34613                       END
                                   34617
 006C20 18D8/9808 D004_            34618                       PEND  ,
 DROP   *,R7
 DROP   FFINFO,R6                  34638                       DROP  R6
                                   34645              *
                                   34646              *  WINGS saved the file on another volume. Update that information
                                   34647              *  in the necessary areas.
                                   34648              *
                                   34649              *  NOTE:
                                   34650              *  WE SAVE THIS NAME IN THE FFINFO DSECT, THE CPFSET FLAG WILL
                                   34651              *  DETERMINE WHETHER THIS BECOMES THE CURRENT FILE NAME. THIS
                                   34652              *  CODE IS FOUND IN MODE AND ACT, ETC.
                                   34653              *
                                   34654              *
 006C2E 50E0 D000/9008_      00000 34655              WRTVOL   PROC  ,
 USING  *,R7
1WGS      (WGS2193) (13:01) (15MAR04) Show catalog                                                                          Page  101
0Current Usings:  (*,R7) (CP,R11) (CV,R12)
0Loc    Object Code    Addr1 Addr2  Stmt Lv Lineno    Source Statement           (Hibal 5, Asmedit 3.3)  HLASM R4.0  2004/03/15 13.01
+___    ______ ____    _____ _____  ____ __ ______    ______ _________
0006C48 5860 BE54            00E54 34694                       L     R6,CPFINFOP
 USING  FFINFO,R6                  34695                       USING FFINFO,R6
                                   34704
                                   34705                       COMMENT                   SCAN NAME
 006C4C 5810 B08C/1B00_      0008C 34706                       SCANSTR ,                 SCAN W/SKIP=' ' STOP=' ,;='
                                   34735
 006C92 12FF/4770 7088_            34736                       IF    ((R15,Z),AND,(R0,POS)),BEGIN  GOT NAME
 006C9E 5900 7A84/47D0_      076CC 34763  1                      CEIL  R0,L'FFHOST
 006CAA 5000 608C            0008C 34782  1                      ST    R0,FFHOSTL
 006CAE 5000 631C            0031C 34783  1                      ST    R0,FFPHOSTL
 006CB2 1830                       34784  1                      LR    R3,R0
 006CB4 0630/1233/4740_            34785  1                      MOVE  R3,FFHOST,@R1
 006CC0 1830                       34823  1                      LR    R3,R0
 006CC2 0630/1233/4740_            34824  1                      MOVE  R3,FFPHOST,@R1
 006CCE 1BFF                       34862  1                      CLEAR R15
 006CD0                            34866                       END
                                   34870
 006CD0 708C/708C/47F0_06CD0 06C96 34871                       ELSE  BEGIN               Forget it
 006CD4 1BFF                       34884  1                      CLEAR R15                 Don't treat it as an error
 006CD6                            34888                       END
                                   34892
 006CD6 18D8/9808 D004_            34893                       PEND  ,
 DROP   *,R7
 DROP   FFINFO,R6                  34913                       DROP  R6
                                   34920              *
                                   34921              *  WINGS cataloged the file so delete any volume that the user
                                   34922              *  might have specified so that volume name doesn't become part
                                   34923              *  of '*'.
                                   34924              *
 006CE4 50E0 D000/9008_      00000 34925              WRTCAT   PROC  ,
 USING  *,R7
 006CFE 5860 BE54            00E54 34964                       L     R6,CPFINFOP
 USING  FFINFO,R6                  34965                       USING FFINFO,R6
 006D02 D703 608C 608C 0008C 0008C 34974                       CLEAR FFHOSTL
 006D08 D703 631C 631C 0031C 0031C 34981                       CLEAR FFPHOSTL
 006D0E 1BFF                       34988                       CLEAR R15                 Don't treat it as an error
 006D10 18D8/9808 D004_            34992                       PEND  ,
 DROP   *,R7
 DROP   FFINFO,R6                  35012                       DROP  R6
                                   35019              *
                                   35020              *
 006D1E 50E0 D000/9008_      00000 35021              WRTOTHER PROC  ,
 USING  *,R7
                                   35060                       COMMENT                   IGNORE UNREC KEYWORD
 006D38 5810 B08C/1B00_      0008C 35061                       SCAN  ,                   IGNORE UNREC VALUE
 006D86 1BFF                       35092                       CLEAR R15
 006D88 18D8/9808 D004_            35096                       PEND  ,
 DROP   *,R7
1WGS      (WGS2193) (13:01) (15MAR04) Show catalog                                                                          Page  102
0Current Usings:  (CP,R11) (CV,R12)
0Loc    Object Code    Addr1 Addr2  Stmt Lv Lineno    Source Statement           (Hibal 5, Asmedit 3.3)  HLASM R4.0  2004/03/15 13.01
+___    ______ ____    _____ _____  ____ __ ______    ______ _________
0                                  35117              *
                                   35118              *
                                   35119              *  WRDREAD - READ/PROCESS FILE READS
                                   35120              *
                                   35121              *  ON EXIT:
                                   35122              *    R1,R0 - LOCATION, LENGTH OF STUFF READ (HEADER INCLUDED)
                                   35123              *    R15=0, ALL OK
                                   35124              *    R15=NZ, END OF FILE
                                   35125              *
                                   35126              *
                                   35127              *  ERRORS EXIT VIA CVERROR
                                   35128              *
                                   35129              *
 006D96 50E0 D000/9008_      00000 35130              WRDREAD  PROC  ,
 USING  *,R7
                                   35169
                                   35170                       COMMENT                   READ FROM WINGS PATH
 006DB0 58E0 78F0/0DEE       076A0 35171                       ACALL WPREAD
 006DB6 4780 700E            06DBE 35175                       IF    NZ,BEGIN
 006DBA 47F0 C7D6            007D6 35186  1                      B     CVERROR
 006DBE                            35187                       END
                                   35191
                                   35192                       COMMENT
 006DBE 5900 7900/47B0_      076B0 35193                       IF    (R0,LT,L'WGSBKHDR),BEGIN
 006DC6 58E0 78FC/0DEE       076AC 35210  1                      ACALL WPCLOSE
 006DCC 4110 7920/4100_      076D0 35214  1                      ERROR 'WINGS path error (server file read).'
 006DD8                            35221                       END
                                   35225
                                   35226                       COMMENT                   CHECK FOR WINGS ERROR RETURN
 006DD8 D50F 78B0 1000_07660 00000 35227                       IF    (@R1,EQ,'FILE_ERROR:     '),BEGIN
 006DE2 58E0 78F8/0DEE       076A8 35243  1                      ACALL WRDERROR
 006DE8 58E0 78FC/0DEE       076AC 35247  1                      ACALL WPCLOSE
 006DEE 41F0 0004            00004 35251  1                      LA    R15,4
 006DF2 47F0 C7D6            007D6 35252  1                      B     CVERROR
 006DF6                            35253                       END
                                   35257
                                   35258            C          IF    ((@R1,NE,'FILE_READ:      '),AND,
 006DF6 D50F 78C0 1000_07670 00000                                   (@R1,NE,'FILE_EOF:       ')),BEGIN
 006E0A 58E0 78FC/0DEE       076AC 35289  1                      ACALL WPCLOSE
 006E10 4110 7920/4100_      076D0 35293  1                      ERROR 'WINGS path error (server file read).'
 006E1C                            35300                       END
                                   35304
                                   35305                       COMMENT                   IF FILE BLOCK READ ,,
 006E1C D50F 78C0 1000_07670 00000 35306                       IF    (@R1,EQ,'FILE_READ:      '),BEGIN
 006E26 1BFF                       35322  1                      CLEAR R15
 006E28                            35326                       END
                                   35330
                                   35331                       COMMENT                   IF END OF FILE ,,
 006E28 D50F 78D0 1000_07680 00000 35332                       IF    (@R1,EQ,'FILE_EOF:       '),BEGIN
 006E32 4111 0010            00010 35348  1                      LA    R1,L'WGSBKHDR(R1)
 006E36 5B00 7908            076B8 35349  1                      S     R0,=AL4(L'WGSBKHDR)
 006E3A 58E0 B08C/D2AF_      0008C 35350  1                      SCPUSH ,
 006E48 58E0 B08C/D7AF_      0008C 35356  1                      SCCLR
 006E54 58E0 B08C/501E_      0008C 35365  1                      SCINIT (R1),(R0)
1WGS      (WGS2193) (13:01) (15MAR04) Show catalog                                                                          Page  103
0Current Usings:  (*,R7) (CP,R11) (CV,R12)
0Loc    Object Code    Addr1 Addr2  Stmt Lv Lineno    Source Statement           (Hibal 5, Asmedit 3.3)  HLASM R4.0  2004/03/15 13.01
+___    ______ ____    _____ _____  ____ __ ______    ______ _________
0006E62 5810 B08C/1B00_      0008C 35385  1                      SCAN  WGSEPRT
                                   35417  1           *        SCANCHK                   BAD OPTIONS OF FILE_EOF: IGNORED
 006EB4 58E0 B08C/4BD0_      0008C 35418  1                      SCPOP ,
 006EC2 41F0 0004            00004 35424  1                      LA    R15,4               END OF FILE
 006EC6                            35425                       END
                                   35429
 006EC6 9001 8004            00004 35430                       PRETURN (R0,R1)
 006ECA 18D8/9808 D004_            35432                       PEND  ,
 DROP   *,R7
1WGS      (WGS2193) (13:01) (15MAR04) Show catalog                                                                          Page  104
0Current Usings:  (CP,R11) (CV,R12)
0Loc    Object Code    Addr1 Addr2  Stmt Lv Lineno    Source Statement           (Hibal 5, Asmedit 3.3)  HLASM R4.0  2004/03/15 13.01
+___    ______ ____    _____ _____  ____ __ ______    ______ _________
0                                  35453              *
                                   35454              *
                                   35455              *  WRDEOF - READ/PROCESS EOF
                                   35456              *
                                   35457              *  ERRORS EXIT VIA CVERROR
                                   35458              *
                                   35459              *
 006ED8 50E0 D000/9008_      00000 35460              WRDEOF   PROC  ,
 USING  *,R7
                                   35499
                                   35500                       COMMENT                   READ FROM WINGS PATH
 006EF2 58E0 77AE/0DEE       076A0 35501                       ACALL WPREAD
 006EF8 4780 700E            06F00 35505                       IF    NZ,BEGIN
 006EFC 47F0 C7D6            007D6 35516  1                      B     CVERROR
 006F00                            35517                       END
                                   35521
                                   35522                       COMMENT                   CHECK FOR WINGS ERROR RETURN
 006F00 5900 77B2/4750_      076A4 35523                       IF    ((R0,GE,16),AND,(@R1,EQ,'FILE_ERROR:     ')),BEGIN
 006F12 58E0 77B6/0DEE       076A8 35555  1                      ACALL WRDERROR
 006F18 58E0 77BA/0DEE       076AC 35559  1                      ACALL WPCLOSE
 006F1E 41F0 0004            00004 35563  1                      LA    R15,4
 006F22 47F0 C7D6            007D6 35564  1                      B     CVERROR
 006F26                            35565                       END
                                   35569
                                   35570                       COMMENT
                                   35571            C          IF    ((R0,LT,L'WGSBKHDR),OR,
 006F26 5900 77BE/4740_      076B0                                   (@R1,NE,'FILE_EOF:      ')),BEGIN
 006F38 58E0 77BA/0DEE       076AC 35603  1                      ACALL WPCLOSE
 006F3E 4110 7877/4100_      07769 35607  1                      ERROR 'WINGS path error during close. '
 006F4A                            35614                       END
                                   35618
                                   35619                       COMMENT                   SCAN/PROCESS RETURNS
 006F4A 4111 0010            00010 35620                       LA    R1,L'WGSBKHDR(R1)
 006F4E 5B00 77C6            076B8 35621                       S     R0,=AL4(L'WGSBKHDR)
 006F52 58E0 B08C/D2AF_      0008C 35622                       SCPUSH ,
 006F60 58E0 B08C/D7AF_      0008C 35628                       SCCLR
 006F6C 58E0 B08C/501E_      0008C 35637                       SCINIT (R1),(R0)
 006F7A 5810 B08C/1B00_      0008C 35657                       SCAN  WGSEPRT
                                   35689              * IF ERROR WHO WILL CLOSE WINGS PATH ??
                                   35690              *        SCANCHK
 006FCC 58E0 B08C/4BD0_      0008C 35691                       SCPOP ,
                                   35697
 006FDA 1BFF                       35698                       CLEAR R15
 006FDC 18D8/9808 D004_            35702                       PEND  ,
 DROP   *,R7
                                   35722              *
                                   35723              *
                                   35724              *  XWRDEOF - READ/PROCESS EOF: (not FILE_EOF:)
                                   35725              *
                                   35726              *  ERRORS EXIT VIA CVERROR
                                   35727              *
                                   35728              *
 006FEA 50E0 D000/9008_      00000 35729              XWRDEOF   PROC  ,
 USING  *,R7
1WGS      (WGS2193) (13:01) (15MAR04) Show catalog                                                                          Page  105
0Current Usings:  (*,R7) (CP,R11) (CV,R12)
0Loc    Object Code    Addr1 Addr2  Stmt Lv Lineno    Source Statement           (Hibal 5, Asmedit 3.3)  HLASM R4.0  2004/03/15 13.01
+___    ______ ____    _____ _____  ____ __ ______    ______ _________
0                                  35768
                                   35769                       COMMENT                   READ FROM WINGS PATH
 007004 58E0 769C/0DEE       076A0 35770                       ACALL WPREAD
 00700A 4780 700E            07012 35774                       IF    NZ,BEGIN
 00700E 47F0 C7D6            007D6 35785  1                      B     CVERROR
 007012                            35786                       END
                                   35790
                                   35791                       COMMENT                   CHECK FOR WINGS ERROR RETURN
 007012 5900 76A0/4750_      076A4 35792                       IF    ((R0,GE,16),AND,(@R1,EQ,'FILE_ERROR:     ')),BEGIN
 007024 58E0 76A4/0DEE       076A8 35824  1                      ACALL WRDERROR
 00702A 58E0 76A8/0DEE       076AC 35828  1                      ACALL WPCLOSE
 007030 41F0 0004            00004 35832  1                      LA    R15,4
 007034 47F0 C7D6            007D6 35833  1                      B     CVERROR
 007038                            35834                       END
                                   35838
                                   35839                       COMMENT
                                   35840            C          IF    ((R0,LT,L'WGSBKHDR),OR,
 007038 5900 76AC/4740_      076B0                                   (@R1,NE,'EOF:           ')),BEGIN
 00704A 58E0 76A8/0DEE       076AC 35872  1                      ACALL WPCLOSE
 007050 4110 7765/4100_      07769 35876  1                      ERROR 'WINGS path error during close. '
 00705C                            35883                       END
                                   35887
                                   35888                       COMMENT                   SCAN/PROCESS RETURNS
 00705C 4111 0010            00010 35889                       LA    R1,L'WGSBKHDR(R1)
 007060 5B00 76B4            076B8 35890                       S     R0,=AL4(L'WGSBKHDR)
 007064 58E0 B08C/D2AF_      0008C 35891                       SCPUSH ,
 007072 58E0 B08C/D7AF_      0008C 35897                       SCCLR
 00707E 58E0 B08C/501E_      0008C 35906                       SCINIT (R1),(R0)
 00708C 5810 B08C/1B00_      0008C 35926                       SCAN  WGSEPRT
                                   35958              * IF ERROR WHO WILL CLOSE WINGS PATH ??
                                   35959              *        SCANCHK
 0070DE 58E0 B08C/4BD0_      0008C 35960                       SCPOP ,
                                   35966
 0070EC 1BFF                       35967                       CLEAR R15
 0070EE 18D8/9808 D004_            35971                       PEND  ,
 DROP   *,R7
                                   35991              *
                                   35992              * Returns from the ALLOCATE command
                                   35993              *
 0070FC D4E2C74040404040_          35994              WGSAPRT  SCKW  MSG,WRTMSG,P
 007124 C5D9D9C4C1E3C140_          36009                       SCKW  ERRDATA,WRTERRDT,P
 00714C C9D5C6D6D4E2C740_          36024                       SCKW  INFOMSG,WRTIMSG,P
 007174 C3C1E3C1D3D6C740_          36039                       SCKW  CATALOG,WRTCAT
 00719C E5D6D3E4D4C54040_          36054                       SCKW  VOLUME,WRTVOL
 0071C4 4040404040404040_          36069                       SCKW  ,WRTOTHER
0                                  36085              *
                                   36086              *  EOF RETURNS SCKWS
                                   36087              *
 0071EC D4E2C74040404040_          36088              WGSEPRT  SCKW  MSG,WRTMSG,P
 007214 C5D9D9C4C1E3C140_          36103                       SCKW  ERRDATA,WRTERRDT,P
 00723C C9D5C6D6D4E2C740_          36118                       SCKW  INFOMSG,WRTIMSG,P
 007264 4040404040404040_          36133                       SCKW  ,WRTOTHER
                                   36148              *
1WGS      (WGS2193) (13:01) (15MAR04) Show catalog                                                                          Page  106
0Current Usings:  (CP,R11) (CV,R12)
0Loc    Object Code    Addr1 Addr2  Stmt Lv Lineno    Source Statement           (Hibal 5, Asmedit 3.3)  HLASM R4.0  2004/03/15 13.01
+___    ______ ____    _____ _____  ____ __ ______    ______ _________
0                                  36149              *
 000000                00000 000EF 36150              WRTMWA   RECORD BEGIN
 000000                            36158  1           WRTMMSGL   DS    F
                                   36159  1           WRTMMSG    DS    CL(&LINESZ)
 000004                                   1          +WRTMMSG    DS    CL(235)
 0000EF                000EF 000EF 36160                       END
                                   36169              *
                                   36170              *
 00728C 50E0 D000/9008_      00000 36171              WRTMSG   PROC  WRTMWA
 USING  *,R7
 USING  WRTMWA-(4+36),R8
                                   36221                       COMMENT                   WRITE MESSAGE TO TERMINAL
 0072A6 58F0 B08C/4110_      0008C 36222                       SCDQUOTE WRTMMSG
 0072B8 18F1                       36243                       LR    R15,R1
 0072BA 1AF0                       36244                       AR    R15,R0
 0072BC 06F0                       36245                       BCTR  R15,0
 0072BE 954E F000      00000       36246                       CLI   0(R15),C'+'         ADDITIONAL INFORMATION?
 0072C2 4770 7024            072CA 36247                       BNE   WRTMSGNP            NOPE
 0072C6 5B00 7456            076FC 36248                       S     R0,=F'1'            TAKE OUT THE '+' SYMBOL
 0072CA                            36249              WRTMSGNP LABEL ,
 0072CA 5000 8028            00000 36251                       ST    R0,WRTMMSGL
 0072CE D603 B05C B05C_0005C 0005C 36252                       TCCR  ,
 0072EE 5800 8028            00000 36314                       L     R0,WRTMMSGL
 0072F2 4110 802C            00004 36315                       LA    R1,WRTMMSG
 0072F6 41F0 B050/58E0_      00050 36316                       TSEG  (R1),(R0)
 007300 1BFF                       36340                       CLEAR R15
 007302 18D8/9808 D004_            36344                       PEND  ,
 DROP   WRTMWA-(4+36),R8
 DROP   *,R7
                                   36369
 007310 50E0 D000/9008_      00000 36370              WRTERRDT PROC  ,
 USING  *,R7
 00732A 1BFF                       36409                       CLEAR R15
 00732C 18D8/9808 D004_            36413                       PEND  ,
 DROP   *,R7
1WGS      (WGS2193) (13:01) (15MAR04) Show catalog                                                                          Page  107
0Current Usings:  (CP,R11) (CV,R12)
0Loc    Object Code    Addr1 Addr2  Stmt Lv Lineno    Source Statement           (Hibal 5, Asmedit 3.3)  HLASM R4.0  2004/03/15 13.01
+___    ______ ____    _____ _____  ____ __ ______    ______ _________
000733A 50E0 D000/9008_      00000 36434              WRTIMSG  PROC  ,
 USING  *,R7
 007354 1BFF                       36473                       CLEAR R15
 007356 18D8/9808 D004_            36477                       PEND  ,
 DROP   *,R7
1WGS      (WGS2193) (13:01) (15MAR04) Show catalog                                                                          Page  108
0Current Usings:  (CP,R11) (CV,R12)
0Loc    Object Code    Addr1 Addr2  Stmt Lv Lineno    Source Statement           (Hibal 5, Asmedit 3.3)  HLASM R4.0  2004/03/15 13.01
+___    ______ ____    _____ _____  ____ __ ______    ______ _________
0                                  36498              *
                                   36499              *
                                   36500              *
                                   36501              *  WRDCLOSE -  READ/PROCESS CLOSE
                                   36502              *
                                   36503              *  ERRORS EXIT VIA CVERROR
                                   36504              *
                                   36505              *
 007364 50E0 D000/9008_      00000 36506              WRDCLOSE PROC  ,
 USING  *,R7
                                   36545
                                   36546                       COMMENT                   READ FROM WINGS PATH
 00737E 58E0 7322/0DEE       076A0 36547                       ACALL WPREAD
 007384 4780 700E            0738C 36551                       IF    NZ,BEGIN
 007388 47F0 C7D6            007D6 36562  1                      B     CVERROR
 00738C                            36563                       END
                                   36567
                                   36568                       COMMENT                   CHECK FOR WINGS ERROR RETURN
 00738C 5900 7326/4750_      076A4 36569                       IF    ((R0,GE,16),AND,(@R1,EQ,'FILE_ERROR:     ')),BEGIN
 00739E 58E0 732A/0DEE       076A8 36601  1                      ACALL WRDERROR
 0073A4 58E0 732E/0DEE       076AC 36605  1                      ACALL WPCLOSE
 0073AA 41F0 0004            00004 36609  1                      LA    R15,4
 0073AE 47F0 C7D6            007D6 36610  1                      B     CVERROR
 0073B2                            36611                       END
                                   36615
                                   36616                       COMMENT
                                   36617            C          IF    ((R0,LT,L'WGSBKHDR),OR,
 0073B2 5900 7332/4740_      076B0                                   (@R1,NE,'FILE_CLOSE:    ')),BEGIN
 0073C4 58E0 732E/0DEE       076AC 36649  1                      ACALL WPCLOSE
 0073CA 4110 73EB/4100_      07769 36653  1                      ERROR 'WINGS path error during close. '
 0073D6                            36660                       END
                                   36664
                                   36665                       COMMENT                   ALL RETURNS IGNORED
                                   36666
 0073D6 18D8/9808 D004_            36667                       PEND  ,
 DROP   *,R7
1WGS      (WGS2193) (13:01) (15MAR04) Show catalog                                                                          Page  109
0Current Usings:  (CP,R11) (CV,R12)
0Loc    Object Code    Addr1 Addr2  Stmt Lv Lineno    Source Statement           (Hibal 5, Asmedit 3.3)  HLASM R4.0  2004/03/15 13.01
+___    ______ ____    _____ _____  ____ __ ______    ______ _________
0                                  36688              *
                                   36689              *  WRDERROR
                                   36690              *
                                   36691              *  GET ERRID AND ERROR MSG FROM PATH ERROR PACKET
                                   36692              *
                                   36693              *  ON ENTRY:
                                   36694              *    R1,R0 - ERROR PACKET LOCATION LENGTH
                                   36695              *
                                   36696              *  ON EXIT:
                                   36697              *    CPERRID SET.  ERROR MESSAGE IS TSEG'ED
                                   36698              *    R15 SET TO ZERO.
                                   36699              *
                                   36700              *  NOTE:
                                   36701              *  ANYTHING THAT IS NOT RECOGNIZED IS IGNORED.
                                   36702              *
                                   36703              *  NOTE:
                                   36704              *  WE PROCESS LIBFULL CONDENSE ERROR HERE.  IT
                                   36705              *  WOULD BE BEST IF THIS WAS PROCESSED IN HIGHER
                                   36706              *  LEVEL ROUTINE, (EG. SAVE ROUTINE),  BUT WE
                                   36707              *  MAY GET ERROR RETURN DURING WRITE, AND
                                   36708              *  AS OF NOW WYLBUR DOES NOT RETURN ERRORS ON
                                   36709              *  WRITE.  SO WE DO IT HERE.
                                   36710              *
                                   36711              *
 0073E4 50E0 D000/9008_      00000 36712              WRDERROR PROC  ,
 USING  *,R7
                                   36751
 0073FE 5900 72A6/4750_      076A4 36752                       IF    ((R0,GE,16),AND,(@R1,EQ,'FILE_ERROR:     ')),BEGIN
 007410 5A10 7306            07704 36784  1                      A     R1,=F'16'
 007414 5B00 7306            07704 36785  1                      S     R0,=F'16'
 007418 58E0 730A/0DEE       07708 36786  1                      VCALL LOGCMD
 00741E 58E0 730E/0DEE       0770C 36790  1                      VCALL LOGEVENT
 007424 58E0 B08C/D2AF_      0008C 36794  1                      SCPUSH ,
 007432 58E0 B08C/D7AF_      0008C 36800  1                      SCCLR ,
 00743E 58E0 B08C/501E_      0008C 36809  1                      SCINIT (R1),(R0)
 00744C 5810 B08C/1B00_      0008C 36829  1                      SCAN  WGERRPRT
 00749E 1BFF                       36861  1                      CLEAR R15
 0074A0 58E0 B08C/4BD0_      0008C 36865  1                      SCPOP ,
 0074AE                            36871                       END
                                   36875
                                   36876                       COMMENT                   CLOSE FILE
 0074AE 58E0 72AE/0DEE       076AC 36877                       ACALL WPCLOSE
                                   36881
                                   36882                       COMMENT                   IF LIB FULL, TRY CONDENSE
 0074B4 D507 7292 B886_07690 00886 36883                       IF    ((CPERRID,EQ,'LIBFULL '),AND,~CPFNCOND),BEGIN
 0074C6 4110 729A/4100_      07698 36914  1                      SETMSG 'Condense'
 0074CE 58E0 7316/0DEE       07714 36918  1                      VCALL YESREQ              Go check if ok
 0074D4 58E0 731A/0DEE       07718 36922  1                      ACALL WCONDSE             Condense library
 0074DA 0000                       36926  1                      BOMB  ,                   No return
 0074DC                            36928                       END
                                   36932              *
                                   36933              *
 0074DC 18D8/9808 D004_            36934                       PEND  ,
 DROP   *,R7
1WGS      (WGS2193) (13:01) (15MAR04) Show catalog                                                                          Page  110
0Current Usings:  (CP,R11) (CV,R12)
0Loc    Object Code    Addr1 Addr2  Stmt Lv Lineno    Source Statement           (Hibal 5, Asmedit 3.3)  HLASM R4.0  2004/03/15 13.01
+___    ______ ____    _____ _____  ____ __ ______    ______ _________
0                                  36954              *
                                   36955              *
 0074EC C5D9D9C9C4404040_          36956              WGERRPRT SCKW  ERRID,WGERRID,P
 007514 C5D9D9D4E2C74040_          36971                       SCKW  ERRMSG,WGERRMSG,P
 00753C 4040404040404040_          36986                       SCKW  ,WGERRXXX
                                   37001              *
                                   37002              *
 007564 50E0 D000/9008_      00000 37003              WGERRID  PROC  ,
 USING  *,R7
 00757E 58F0 B08C/4110_      0008C 37042                       SCUPCASE CPERRID
 007590 1BFF                       37063                       CLEAR R15
 007592 18D8/9808 D004_            37067                       PEND  ,
 DROP   *,R7
                                   37087              *
                                   37088              *
 000000                00000 000EB 37089              WGEMSGWA RECORD BEGIN
                                   37097  1           WGEMSG     DS    CL(&LINESZ)
 000000                                   1          +WGEMSG     DS    CL(235)
 0000EB                000EB 000EB 37098                       END
                                   37107
 0075A0 50E0 D000/9008_      00000 37108              WGERRMSG PROC  WGEMSGWA
 USING  *,R7
 USING  WGEMSGWA-(4+36),R8
 0075BA 58F0 B08C/4110_      0008C 37158                       SCDQUOTE WGEMSG
 0075CC 41F0 B050/58E0_      00050 37179                       TSEG  (R1),(R0),CR
 0075D6 1BFF                       37203                       CLEAR R15
 0075D8 18D8/9808 D004_            37207                       PEND  ,
 DROP   WGEMSGWA-(4+36),R8
 DROP   *,R7
                                   37232
 0075E6 50E0 D000/9008_      00000 37233              WGERRXXX PROC  ,
 USING  *,R7
                                   37272                       COMMENT                   IGNORE UNRECOGNIZED KEYWORD
 007600 5810 B08C/1B00_      0008C 37273                       SCAN  ,                   INGNORE UNRECOGNIZED VALUE
 00764E 1BFF                       37304                       CLEAR R15
 007650 18D8/9808 D004_            37308                       PEND  ,
 DROP   *,R7
                                   37328
                                   37329                       QLTORG
1WGS      (WGS2193) (13:01) (15MAR04) Show catalog                                                                          Page  111
0Current Usings:  (CP,R11) (CV,R12)
0Loc    Object Code    Addr1 Addr2  Stmt Lv Lineno    Source Statement           (Hibal 5, Asmedit 3.3)  HLASM R4.0  2004/03/15 13.01
+___    ______ ____    _____ _____  ____ __ ______    ______ _________
0                                  37379              *
                                   37380              *
                                   37381              *  WPOPEN - WINGS PATH OPEN
                                   37382              *
                                   37383              *  THIS ROUTINES OPEN A SUZAN PATH TO WINGS SERVER.
                                   37384              *  IT *DOES NOT* DO ANY OF THE WINGS PROTOCOL START UP.
                                   37385              *
                                   37386              *  ON ENTRY:
                                   37387              *    NOTHING.
                                   37388              *
                                   37389              *  ON EXIT:
                                   37390              *    R15=0, ALL OK. PATH CONTROL BLOCK POINTER SET IN WGSPATH
                                   37391              *    R15=NZ, ERROR, ERROR MSG TSEG'ED
                                   37392              *
                                   37393              *
 0077B8 50E0 D000/9008_      00000 37394              WPOPEN   PROC  ,
 USING  *,R7
                                   37433
 0077D2 5860 BE58            00E58 37434                       L     R6,CPDEVP
 USING  WGSWA,R6                   37435                       USING WGSWA,R6
                                   37444
                                   37445                       COMMENT                   CHECK FOR MULTIPLE OPENS
 0077D6 D503 74AA 6008_07C7C 00008 37446                       IF    (WGSPATH,NE,0),BEGIN
 0077E0 900F C780/4DE0_      00780 37464  1                      KAPUT ERROR,'Multiple WINGS connections not supported.'
 0077F8                            37471                       END
                                   37475
                                   37476                       COMMENT                   ALLOCATE PATH
 0077F8 1B00                       37477                       CLEAR R0
 0077FA 58E0 7576/0DEE       07D48 37481                       VCALL PATHALLO
 007800 4780 704A            0781C 37485                       IF    NZ,BEGIN
 007804 D207 B886 74B6 00886 07C88 37496  1                      MVC   CPERRID,=CL8'ERROR'
 00780A 41F0 B050/58E0_      00050 37497  1                      TSEG  (R1),(R0)
 007814 41F0 0004            00004 37521  1                      LA    R15,4
 007818 47F0 70EC            078BE 37522  1                      B     WPOPDONE
 00781C                            37523                       END
 00781C 5010 6008            00008 37527                       ST    R1,WGSPATH
                                   37528
                                   37529                       COMMENT                   SET UP PATH CHARACTERISTCS
 007820 1851                       37530                       LR    R5,R1
 USING  UPATH,R5                   37531                       USING UPATH,R5
 007822 D507 74AA B208_07C7C 00208 37540                       IF    (CPWPATH,NE,0),BEGIN  SET PATH NAME
 00782C D207 5084 B208 00084 00208 37558  1                      MVC   UPATYOU,CPWPATH
 007832                            37559                       END
 007832 7064/47F0 7074_07832 0782A 37563                       ELSEIF (CVWPATH,NE,0),BEGIN
 007840 D207 5084 C244 00084 00244 37590  1                      MVC   UPATYOU,CVWPATH
 007846                            37591                       END
 007846 7078/47F0 707E 07846 0783E 37595                       ELSE  BEGIN
 00784A D207 5084 74BE 00084 07C90 37606  1                      MVC   UPATYOU,=CL8'WINGSV00' PARTNER IS WINGS SERVER
 007850                            37607                       END
 007850 9620 508C      0008C       37611                       SET   UPATMFL.UPATMNAM
 007854 94F7 5018      00018       37618                       CLEAR UPATFHDR            DON'T ADD LENGTH HEADERS
                                   37625              *        CLEAR UPATFNOWAIT         WAIT 10 SECONDS TO OPEN
                                   37626              *        LA    R0,5*60             5 minute timeout
                                   37627              *        IF    CPFNTMO,'L R0,=A(1*60*60)'  1 hour timeout (debug)
1WGS      (WGS2193) (13:01) (15MAR04) Show catalog                                                                          Page  112
0Current Usings:  (UPATH,R5) (WGSWA,R6) (*,R7) (CP,R11) (CV,R12)
0Loc    Object Code    Addr1 Addr2  Stmt Lv Lineno    Source Statement           (Hibal 5, Asmedit 3.3)  HLASM R4.0  2004/03/15 13.01
+___    ______ ____    _____ _____  ____ __ ______    ______ _________
0                                  37628              *        IF    CPSTVIRT,'L R0,=A(4*60*60)'  4 hour timeout
                                   37629              *        ST    R0,UPATWAIT         Save timeout value
                                   37630              *
                                   37631                       COMMENT                   OPEN PATH
 007858 4110 757E            07D50 37632                       LA    R1,=C'AUTH'         Caller ID
 00785C 41F0 5000            00000 37633                       LA    R15,UPATH
 007860 58E0 7582/0DEE       07D54 37634                       VCALL PATHOPEN
 007866 4780 70EA            078BC 37638                       IF    NZ,BEGIN            IF ERROR ,,,
 00786A 5900 7586/4770_      07D58 37649  1                      IF    ((R0,EQ,4),AND,(@R1,EQ,'ATTN')),BEGIN
 00787C 4110 760A/4100_      07DDC 37681  2                        SETMSG 'No action taken (stopped before path open).'
 007884                            37685  1                      END
 007884 5900 758E/4770_      07D60 37689  1                      IF    ((R0,EQ,7),AND,(@R1,EQ,'TIMEOUT')),BEGIN
 007896 4110 74C6/4100_      07C98 37721  2                        SETMSG 'Wings file server not responding.  Path timeout.'
 00789E                            37725  1                      END
 00789E D207 B886 74B6 00886 07C88 37729  1                      MVC   CPERRID,=CL8'ERROR'
 0078A4 41F0 B050/58E0_      00050 37730  1                      TSEG  (R1),(R0)
 0078AE 58E0 7592/0DEE       07D64 37754  1                      ACALL WPCLOSE DEALLOCATE PATH W/CLOSE
 0078B4 41F0 0004            00004 37758  1                      LA    R15,4
 0078B8 47F0 70EC            078BE 37759  1                      B     WPOPDONE
 0078BC                            37760                       END
                                   37764
                                   37765                       COMMENT                   ALL OK !
 0078BC 1BFF                       37766                       CLEAR R15
                                   37770
 0078BE                            37771              WPOPDONE LABEL ,
 0078BE 18D8/9808 D004_            37773                       PEND  ,
 DROP   *,R7
 DROP   WGSWA,R6                   37793                       DROP  R6
 DROP   UPATH,R5                   37800                       DROP  R5
1WGS      (WGS2193) (13:01) (15MAR04) Show catalog                                                                          Page  113
0Current Usings:  (CP,R11) (CV,R12)
0Loc    Object Code    Addr1 Addr2  Stmt Lv Lineno    Source Statement           (Hibal 5, Asmedit 3.3)  HLASM R4.0  2004/03/15 13.01
+___    ______ ____    _____ _____  ____ __ ______    ______ _________
0                                  37808              *
                                   37809              *
                                   37810              *  WPREAD - WINGS PATH READ
                                   37811              *
                                   37812              *  DO IT TO IT !!
                                   37813              *
                                   37814              *  THIS ROUTINES OPEN A SUZAN PATH TO WINGS SERVER.
                                   37815              *  IT *DOES NOT* DO ANY OF THE WINGS PROTOCOL START UP.
                                   37816              *
                                   37817              *  ON ENTRY:
                                   37818              *    NOTHING.
                                   37819              *
                                   37820              *  ON EXIT:
                                   37821              *    R15=0, ALL OK.  R1,R0 - BUFFER READ
                                   37822              *    R15=NZ, ERROR, ERROR MSG TSEG'ED
                                   37823              *
                                   37824              *
 0078CC 50E0 D000/9008_      00000 37825              WPREAD   PROC  ,
 USING  *,R7
                                   37864
 0078E6 5860 BE58            00E58 37865                       L     R6,CPDEVP
 USING  WGSWA,R6                   37866                       USING WGSWA,R6
                                   37875
                                   37876                       COMMENT                   READ ONLY IF PATH OPEN
 0078EA D503 7396 6008_07C7C 00008 37877                       IF    (WGSPATH,EQ,0),BEGIN
 0078F4 D207 B886 73A2 00886 07C88 37895  1                      MVC   CPERRID,=CL8'ERROR'
 0078FA 4110 7482/4100_      07D68 37896  1                      TSEG  'Wings path not open.'
 00790C 1B00                       37914  1                      CLEAR R0
 00790E 41F0 0004            00004 37918  1                      LA    R15,4
 007912 47F0 7154            07A3A 37919  1                      B     WPRDDONE
 007916                            37920                       END
                                   37924
                                   37925                       COMMENT                   READ FROM PATH
 007916 58F0 6008            00008 37926              WPRDLOOP L     R15,WGSPATH
 00791A 58E0 7496/0DEE       07D7C 37927                       VCALL PATHREAD
                                   37931              **
                                   37932              ** For debugging
                                   37933              **
 007920 9180 C068/47E0_00068       37934                       IF    (CVLGPATH),BEGIN
 007928 90F2 D000/41D0_      00000 37949  1                      XPUSH R15,R2
 007930 4100 0008/4110_      00008 37952  1                      BTX   CPDOUB,8,(R15)
 00793E 41F0 73E2            07CC8 37974  1                      LA    R15,=CL8'READ R15'
 007942 58E0 749E/0DEE       07D84 37975  1                      VCALL LOGEVENT
 007948 4BD0 74EA/98F2_      07DD0 37979  1                      XPOP  R15,R2
0007950 12FF/4770 70C4             37983  1                      IF    (R15,Z),BEGIN
 007956 90F2 D000/41D0_      00000 37997  2                        XPUSH R15,R2
                                   38000  2         C              IF    ((@R1,EQ,'FILE_READ:      '),OR,
 00795E D50F 73EA 1000_07CD0 00000        2                              (@R1,EQ,'DATA:           ')),BEGIN
 007972 4100 0010            00010 38031  3                          LA    R0,L'WGSBKHDR       Log only the header
 007976                            38032  2                        END   ,
 007976 41F0 740A            07CF0 38036  2                        LA    R15,=CL8'<-Wings '
 00797A 58E0 749E/0DEE       07D84 38037  2                        VCALL LOGEVENT
 007980 5820 6008            00008 38041  2                        L     R2,WGSPATH
1WGS      (WGS2193) (13:01) (15MAR04) Show catalog                                                                          Page  114
0Current Usings:  (WGSWA,R6) (*,R7) (CP,R11) (CV,R12)
0Loc    Object Code    Addr1 Addr2  Stmt Lv Lineno    Source Statement           (Hibal 5, Asmedit 3.3)  HLASM R4.0  2004/03/15 13.01
+___    ______ ____    _____ _____  ____ __ ______    ______ _________
0007984 5820 2074            00074 38042  2                        WITH  (UPATH,R2),'L R2,UPATMGC'
 USING  UPATH,R2
 DROP   UPATH,R2
 007988 18F2/4100 0008_            38066  2                        BTX   CPDOUB,8,(R2)       Log the identifier
 007998 41F0 7412            07CF8 38089  2                        LA    R15,=CL8'ON PATH#'
 00799C 58E0 749E/0DEE       07D84 38090  2                        VCALL LOGEVENT
 0079A2 4BD0 74EA/98F2_      07DD0 38094  2                        XPOP  R15,R2
 0079AA                            38097  1                      END   ,
 0079AA                            38101                       END   ,
0                                  38106              **
                                   38107              ** End of debugging code
                                   38108              **
 0079AA 12FF/4780 7152             38109                       IF    (R15,NZ),BEGIN      IF READ ERROR, CLOSE PATH
                                   38123  1           *
                                   38124  1           * On an attention from the terminal, the path is only closed
                                   38125  1           * if the line is logging off. This usually occurred because
                                   38126  1           * of a WINGS server hang. If the user has just signalled attention
                                   38127  1           * because they don't want to wait for the read to complete, the
                                   38128  1           * path was never closed, despite the original comment because
                                   38129  1           * the attention was signalled on the subsequent read.
                                   38130  1           *
 0079B0 5900 7472/4770_      07D58 38131  1                      IF    ((R0,EQ,4),AND,(@R1,EQ,'ATTN')),BEGIN
 0079C2 58F0 C1C8            001C8 38163  2                        L     R15,CVCURJCB
 USING  JCB,R15                    38164  2                        WITH  (JCB,R15),BEGIN
 0079C6 9180 F062/47E0_00062       38178  3                          IF    JCBAFALO,BEGIN
 0079CE 4110 74A2/4100_      07D88 38193  4                            SETMSG 'DISCONNECTED'
 0079D6 47F0 7132            07A18 38197  4                            B     WPRDCLOS
 0079DA                            38198  3                          END
 0079DA 70F8/47F0 7100 079DA 079CC 38202  3                          ELSE  BEGIN
 0079DE 9602 F062      00062       38213  4                            SET   JCBFATTN
 0079E2 47F0 7030            07916 38219  4                            B     WPRDLOOP
 0079E6                            38220  3                          END
 DROP   JCB,R15                    38224  2                        END
 0079E6                            38232  1                      END
                                   38236  1
 0079E6 5900 747A/4770_      07D60 38237  1                      IF    ((R0,EQ,7),AND,(@R1,EQ,'TIMEOUT')),BEGIN
 0079F8 4110 7528/4100_      07E0E 38269  2                        SETMSG 'No response from Wings file server.'
 007A00                            38273  1                      END
                                   38277  1
 007A00 59F0 74AE/4770_      07D94 38278  1                      IF    (R15,EQ,=F'20'),BEGIN  PATH CLOSED
 007A08 58E0 74B2/0DEE       07D98 38294  2                        VCALL LOGCMD
 007A0E 41F0 741A            07D00 38298  2                        LA    R15,=CL8'WPREADER'
 007A12 58E0 749E/0DEE       07D84 38299  2                        VCALL LOGEVENT
 007A18                            38303  1                      END
                                   38307  1
 007A18                            38308  1           WPRDCLOS   LABEL ,
 007A18 D207 B886 73A2 00886 07C88 38310  1                      MVC   CPERRID,=CL8'ERROR'
 007A1E 41F0 B050/58E0_      00050 38311  1                      TSEG  (R1),(R0)
 007A28 58E0 747E/0DEE       07D64 38335  1                      ACALL WPCLOSE
 007A2E 1B00                       38339  1                      CLEAR R0
 007A30 41F0 0004            00004 38343  1                      LA    R15,4
 007A34 47F0 7154            07A3A 38344  1                      B     WPRDDONE
 007A38                            38345                       END
1WGS      (WGS2193) (13:01) (15MAR04) Show catalog                                                                          Page  115
0Current Usings:  (WGSWA,R6) (*,R7) (CP,R11) (CV,R12)
0Loc    Object Code    Addr1 Addr2  Stmt Lv Lineno    Source Statement           (Hibal 5, Asmedit 3.3)  HLASM R4.0  2004/03/15 13.01
+___    ______ ____    _____ _____  ____ __ ______    ______ _________
0                                  38349
                                   38350                       COMMENT                   ALL OK !
 007A38 1BFF                       38351                       CLEAR R15
                                   38355
 007A3A                            38356              WPRDDONE LABEL ,
 007A3A 9001 8004            00004 38358                       PRETURN (R0,R1)
 007A3E 18D8/9808 D004_            38360                       PEND  ,
 DROP   *,R7
 DROP   WGSWA,R6                   38380                       DROP  R6
1WGS      (WGS2193) (13:01) (15MAR04) Show catalog                                                                          Page  116
0Current Usings:  (CP,R11) (CV,R12)
0Loc    Object Code    Addr1 Addr2  Stmt Lv Lineno    Source Statement           (Hibal 5, Asmedit 3.3)  HLASM R4.0  2004/03/15 13.01
+___    ______ ____    _____ _____  ____ __ ______    ______ _________
0                                  38388              *
                                   38389              *
                                   38390              *  WPCLOSE - WINGS PATH CLOSE
                                   38391              *
                                   38392              *  THIS ROUTINES CLOSES A SUZAN PATH TO WINGS SERVER.
                                   38393              *  IT *DOES NOT* DO ANY OF THE WINGS PROTOCOL SHUT DOWN.
                                   38394              *
                                   38395              *  ON ENTRY:
                                   38396              *    WGSPATH - WINGS UPATH PTR.
                                   38397              *
                                   38398              *  ON EXIT:
                                   38399              *    PATH CLOSED.   WGSPATH SET TO ZERO.
                                   38400              *
                                   38401              *
                                   38402              *
 007A4C 50E0 D000/9008_      00000 38403              WPCLOSE  PROC  ,
 USING  *,R7
                                   38442
 007A66 5860 BE58            00E58 38443                       L     R6,CPDEVP
 USING  WGSWA,R6                   38444                       USING WGSWA,R6
                                   38453
                                   38454                       COMMENT                   CLOSE PATH ONLY IF OPEN
 007A6A D503 7216 6008_07C7C 00008 38455                       IF    (WGSPATH,NE,0),BEGIN
 007A74 58F0 6008            00008 38473  1                      L     R15,WGSPATH
 007A78 58E0 7336/0DEE       07D9C 38474  1                      VCALL PATHCLS
 007A7E D703 6008 6008 00008 00008 38478  1                      CLEAR WGSPATH
 007A84                            38485                       END
                                   38489
 007A84 1BFF                       38490                       CLEAR R15                 NO RETURN CODE RETURNED
 007A86 18D8/9808 D004_            38494                       PEND  ,
 DROP   *,R7
 DROP   WGSWA,R6                   38514                       DROP  R6
1WGS      (WGS2193) (13:01) (15MAR04) Show catalog                                                                          Page  117
0Current Usings:  (CP,R11) (CV,R12)
0Loc    Object Code    Addr1 Addr2  Stmt Lv Lineno    Source Statement           (Hibal 5, Asmedit 3.3)  HLASM R4.0  2004/03/15 13.01
+___    ______ ____    _____ _____  ____ __ ______    ______ _________
0                                  38522              *
                                   38523              *  WPCHECK - SEE IF PATH IS OPEN
                                   38524              *
                                   38525              *  ON EXIT:
                                   38526              *    R15=0 - PATH OPEN
                                   38527              *    R15=NZ - PATH CLOSED
                                   38528              *
                                   38529              *
 007A94 50E0 D000/9008_      00000 38530              WPCHECK  PROC  ,
 USING  *,R7
                                   38569
 007AAE 5860 BE58            00E58 38570                       L     R6,CPDEVP
 USING  WGSWA,R6                   38571                       USING WGSWA,R6
                                   38580
 007AB2 D503 71CE 6008_07C7C 00008 38581                       IF    (WGSPATH,EQ,0),' LA R15,4'
 007AC0 7016/47F0 7018_07AC0 07ABA 38605                       ELSE  'CLEAR R15'
                                   38625
 007AC6 18D8/9808 D004_            38626                       PEND  ,
 DROP   *,R7
 DROP   WGSWA,R6                   38646                       DROP  R6
1WGS      (WGS2193) (13:01) (15MAR04) Show catalog                                                                          Page  118
0Current Usings:  (CP,R11) (CV,R12)
0Loc    Object Code    Addr1 Addr2  Stmt Lv Lineno    Source Statement           (Hibal 5, Asmedit 3.3)  HLASM R4.0  2004/03/15 13.01
+___    ______ ____    _____ _____  ____ __ ______    ______ _________
0                                  38654              *
                                   38655              *
                                   38656              *  WPSEG -- SEG PROCESSING ROUTINE TO HANDLE WRITING
                                   38657              *    DATE ACROSS A SUZAN PATH TO WINGS FILE SERVER.
                                   38658              *
                                   38659              *    ON ENTRY:
                                   38660              *      R15 - SEGCB PTR
                                   38661              *
                                   38662              *    ON EXIT:
                                   38663              *      ERRORS EXIT VIA CVERROR.
                                   38664              *
                                   38665              *
 007AD4 50E0 D000/9008_      00000 38666              WPSEG    XPROC
 USING  *,R7
                                   38706
 007AEE 5860 BE58            00E58 38707                       L     R6,CPDEVP
 USING  WGSWA,R6                   38708                       USING WGSWA,R6
                                   38717
 007AF2 185F                       38718                       LR    R5,R15
 USING  SEGCB,R5                   38719                       WITH  (SEGCB,R5)
                                   38732
                                   38733                       COMMENT                   DO SEG WRITE OR OVERFLOW ...
 007AF4 9502 5000/4780_00000       38734                       IF    (SEGCBWR,OR,SEGCBOVF),BEGIN
 007B04 1220                       38763  1                      LTR   R2,R0               CURRENT BUFFER LENGTH
                                   38764  1
                                   38765  1                      COMMENT                   GET PATH POINTER
 007B06 58F0 6008            00008 38766  1                      L     R15,WGSPATH
 007B0A 12FF/4770 702E             38767  1                      IF    (R15,Z),BEGIN
 007B10 4110 7343/4100_      07E31 38781  2                        ERROR 'WINGS path non-existant.  Unable to write file.'
 007B1C                            38788  1                      END
                                   38792  1
                                   38793  1                      COMMENT                   WRITE TO PATH
 007B1C 5B10 72B2            07DA0 38794  1                      S     R1,=AL4(L'WGSBKHDR) INCLUDE 'FILE_XXXX: ' HEADER
 007B20 5A00 72B2            07DA0 38795  1                      A     R0,=AL4(L'WGSBKHDR)
                                   38796  1           *
                                   38797  1           ** For debugging
                                   38798  1           **
                                   38799  1           *         XPUSH R15,R2
                                   38800  1 X         *         IF    ((@R1,EQ,'FILE_READ:      '),OR,
                                   38801  1           *               (@R1,EQ,'DATA:           ')),BEGIN
                                   38802  1           *         LA    R0,L'WGSBKHDR       Log only the header
                                   38803  1           *         END
                                   38804  1           *         LA    R15,=CL8'->Wings '
                                   38805  1           *         VCALL LOGEVENT
                                   38806  1           *         L     R2,WGSPATH
                                   38807  1           *         WITH  (UPATH,R2),'L R2,UPATMGC'
                                   38808  1           *         BTX   CPDOUB,8,(R2)       Log the identifier
                                   38809  1           *         LA    R15,=CL8'ON PATH#'
                                   38810  1           *         VCALL LOGEVENT
                                   38811  1           *         XPOP  R15,R2
                                   38812  1           **
                                   38813  1           ** End of debugging code
                                   38814  1           **
 007B24 58E0 72B6/0DEE       07DA4 38815  1                      VCALL PATHWRIT
1WGS      (WGS2193) (13:01) (15MAR04) Show catalog                                                                          Page  119
0Current Usings:  (SEGCB,R5) (WGSWA,R6) (*,R7) (CP,R11) (CV,R12)
0Loc    Object Code    Addr1 Addr2  Stmt Lv Lineno    Source Statement           (Hibal 5, Asmedit 3.3)  HLASM R4.0  2004/03/15 13.01
+___    ______ ____    _____ _____  ____ __ ______    ______ _________
0007B2A 4780 7068            07B56 38819  1                      IF    NZ,BEGIN            Log some information
 007B2E 182F                       38830  2                        LR    R2,R15              Save the return code
 007B30 58E0 72AA/0DEE       07D98 38831  2                        VCALL LOGCMD              Log the command we were doing
                                   38835  2 X         *         IF    ((@R1,EQ,'FILE_READ:      '),OR,
                                   38836  2           *              (@R1,EQ,'DATA:           ')),BEGIN
                                   38837  2           *        LA    R0,L'WGSBKHDR       Log only the header
                                   38838  2           *        END
                                   38839  2           *        LA    R15,=CL8'TO WINGS'
                                   38840  2           *        VCALL LOGEVENT
 007B36 18F2/4100 0008_            38841  2                        BTX   CPDOUB,8,(R2)       Now log the return code
 007B46 41F0 721A            07D08 38864  2                        LA    R15,=CL8'PATHERR '
 007B4A 58E0 7296/0DEE       07D84 38865  2                        VCALL LOGEVENT
 007B50 58E0 72BA/0DEE       07DA8 38869  2                        ACALL WPSEGERR            Does not return (tacky!)
 007B56                            38873  1                      END
                                   38877  1
 007B56 1302                       38878  1                      LCR   R0,R2               FOR OVERFLOW: NBYTES PROCESSED
 007B58 5008 0004            00004 38879  1                      PRETURN (R0)
 007B5C                            38881                       END
                                   38885
                                   38886                       COMMENT                   DO SEG POST PROCESSING ...
 007B5C 9504 5000/4770_00000       38887                       IF    SEGCBSPP,BEGIN
 007B64 1B00                       38902  1                      CLEAR R0                  ASSUME A-OK
                                   38906  1           *        IF    (UPATRCMP,NZ),'LA R0,4'  TROUBLE
 007B66 5008 0004            00004 38907  1                      PRETURN (R0)              RETURN THE RC
 007B6A                            38909                       END
                                   38913
 007B6A 1BFF                       38914                       CLEAR R15
 007B6C 18D8/9808 D004_            38918                       PEND
 DROP   SEGCB,R5
 DROP   *,R7
 DROP   WGSWA,R6                   38943                       DROP  R6
1WGS      (WGS2193) (13:01) (15MAR04) Show catalog                                                                          Page  120
0Current Usings:  (CP,R11) (CV,R12)
0Loc    Object Code    Addr1 Addr2  Stmt Lv Lineno    Source Statement           (Hibal 5, Asmedit 3.3)  HLASM R4.0  2004/03/15 13.01
+___    ______ ____    _____ _____  ____ __ ______    ______ _________
0                                  38951              *
                                   38952              *  WPSEGERR - PROCESS WINGS PATH SEG WRITE ERROR
                                   38953              *
                                   38954              *  WE GOT AN ERROR WHILE TRYING TO WRITE A WINGS
                                   38955              *  FILE.   WE TRY TO  READ A 'FILE_ERROR:' FROM
                                   38956              *  OUR PARTNER TO SEE WHAT THE ERROR IS.
                                   38957              *
                                   38958              *  IF ERROR IS 'LIBFULL' WE ASK TO CONDENSE.
                                   38959              *  IF ERROR IS '....' (NO OTHERS YET)
                                   38960              *  IF WE GET UNRECOGNIZED 'FILE_ERROR:' WE SEND
                                   38961              *     ERROR ID, ERROR MSG BACK TO USER
                                   38962              *  IF WE GET ERROR TRYING TO READ FROM PARTNER,
                                   38963              *     WE GIVE UP WITH GENERIC
                                   38964              *
                                   38965              *  FINALLY WE CLOSE FILE
                                   38966              *
                                   38967              *
 000000                00000 00200 38968              WSEWA    RECORD BEGIN
 000000                            38976  1           WSEBUF     DS    CL512
 000200                00200 00200 38977                       END
                                   38986              *
                                   38987              *
 007B7A 50E0 D000/9008_      00000 38988              WPSEGERR PROC  WSEWA
 USING  *,R7
 USING  WSEWA-(4+36),R8
                                   39038
                                   39039                       COMMENT                   TRY TO READ FROM WINGS PATH
 007B94 4110 8028            00000 39040                       LA    R1,WSEWA
 007B98 4100 0200            00200 39041                       LA    R0,L'WSEWA
 007B9C 58E0 7218/0DEE       07DAC 39042                       ACALL WPREAD
 007BA2 4780 701E            07BB2 39046                       IF    NZ,BEGIN
 007BA6 4110 717C/4100_      07D10 39057  1                      ERROR 'WINGS path error.  Unable to write file.'
 007BB2                            39064                       END
                                   39068
                                   39069                       COMMENT                   IF READ UNEXPECTED LINE, ERROR
 007BB2 5900 721C/4740_      07DB0 39070                       IF    ((R0,LT,16),OR,(@R1,NE,'FILE_ERROR:     ')),BEGIN
 007BC4 4110 717C/4100_      07D10 39102  1                      ERROR 'WINGS path error.  Unable to write file.'
 007BD0                            39109                       END
                                   39113
                                   39114                       COMMENT                   PROCESSS 'FILE_ERROR: ' MSG
 007BD0 58E0 7220/0DEE       07DB4 39115                       ACALL WRDERROR
 007BD6 58E0 71D0/0DEE       07D64 39119                       ACALL WPCLOSE             BE SURE WE ARE CLOSED
                                   39123                       COMMENT                   OTHER ERRS, JUST EXIT VIA CVERROR
 007BDC 47F0 C7D6            007D6 39124                       B     CVERROR
                                   39125
 007BE0 18D8/9808 D004_            39126                       PEND
 DROP   WSEWA-(4+36),R8
 DROP   *,R7
1WGS      (WGS2193) (13:01) (15MAR04) Show catalog                                                                          Page  121
0Current Usings:  (CP,R11) (CV,R12)
0Loc    Object Code    Addr1 Addr2  Stmt Lv Lineno    Source Statement           (Hibal 5, Asmedit 3.3)  HLASM R4.0  2004/03/15 13.01
+___    ______ ____    _____ _____  ____ __ ______    ______ _________
0                                  39152              *
                                   39153              *  WCONDENSE,  WINGS LIB FULL, CONDENSE LIB
                                   39154              *
                                   39155              *
 007BEE 50E0 D000/9008_      00000 39156              WCONDSE  PROC  ,
 USING  *,R7
 007C08 5860 BE54            00E54 39195                       L     R6,CPFINFOP
 USING  FFINFO,R6                  39196                       USING FFINFO,R6
                                   39205
                                   39206                       COMMENT                   FORMAT COMMAND IN CPCMD
 007C0C 4110 B242            00242 39207                       LA    R1,CPCMD
 007C10 D209 B242 71CA 00242 07DD2 39208                       MVC   CPCMD(10),=CL10'Condense  '
 007C16 5820 6214            00214 39209                       L     R2,FFRNAMEL
 007C1A 1222/47D0 7022             39210                       IF    (R2,POS),BEGIN
 007C20 0620/4420 7258_            39224  1                      DEX   R2,' MVC CPCMD+10,FFRNAME'
 007C26 5820 6214            00214 39243  1                      L     R2,FFRNAMEL
 007C2A                            39244                       END
 007C2A 7026/47F0 7034 07C2A 07C1E 39248                       ELSE  BEGIN
 007C2E 5820 6008            00008 39259  1                      L     R2,FFNAMEL
 007C32 0620/4420 725E_            39260  1                      DEX   R2,' MVC CPCMD+10,FFNAME'
 007C38 5820 6008            00008 39279  1                      L     R2,FFNAMEL
 007C3C                            39280                       END
 007C3C 5A20 71B0            07DB8 39284                       A     R2,=A(10)
 007C40 4020 B240            00240 39285                       STH   R2,CPCMDLEN
                                   39286
 007C44 4110 B242            00242 39287                       LA    R1,CPCMD            ADD 'NOSAVE' WARNING ON COND
 007C48 4A10 B240            00240 39288                       AH    R1,CPCMDLEN
 007C4C D20B 1000 71B4 00000 07DBC 39289                       MVC   @R1(12),=CL12' SAVEFAILED '
 007C52 4810 B240            00240 39290                       LH    R1,CPCMDLEN
 007C56 5A10 71C0            07DC8 39291                       A     R1,=A(12)
 007C5A 4010 B240            00240 39292                       STH   R1,CPCMDLEN
                                   39293
                                   39294                       COMMENT                   GO EXECUTE COMMAND
 007C5E 4110 B242            00242 39295                       LA    R1,CPCMD
 007C62 4800 B240            00240 39296                       LH    R0,CPCMDLEN
 007C66 58E0 71C4/0DEE       07DCC 39297                       VCALL EDTCOMNH
 007C6C 0000                       39301                       BOMB  ,                   NO RETURN
                                   39303
 007C6E 18D8/9808 D004_            39304                       PEND
 DROP   *,R7
 DROP   FFINFO,R6                  39324                       DROP  R6
                                   39331
                                   39332                       QLTORG
1WGS      (WGS2193) (13:01) (15MAR04) Show catalog                                                                          Page  122
0Current Usings:  (CP,R11) (CV,R12)
0Loc    Object Code    Addr1 Addr2  Stmt Lv Lineno    Source Statement           (Hibal 5, Asmedit 3.3)  HLASM R4.0  2004/03/15 13.01
+___    ______ ____    _____ _____  ____ __ ______    ______ _________
0                                  39390              *
                                   39391              *  GTINTVAL - GET INTEGER VALUE
                                   39392              *
                                   39393              *  ON ENTRY: R1,R0 - INTEGER LOCATION LENGTH
                                   39394              *
                                   39395              *  ON EXIT:
                                   39396              *    R15=VALUE  (>=0)
                                   39397              *    R15=NEGATIVE, STRING IS NOT INTEGER
                                   39398              *
                                   39399              *
                                   39400              *   NOTE:
                                   39401              *   INTEGER MUST BE ALL DIGITS (NO BLANKS).
                                   39402              *   MAY BE 9 DIGITS MAX.
                                   39403              *
                                   39404              *   CAUTION:
                                   39405              *   VALUE RETURNED IS ACTUAL INTEGER VALUE.
                                   39406              *   VALUE RETURNED IS **NOT** NUMBERx1000.
                                   39407              *
 007E6C 50E0 D000/9008_      00000 39408              GTINTVAL XPROC ,
 USING  *,R7
                                   39448
 007E86 1200/4780 700E_            39449                       IF    ((R0,Z),OR,(R0,GT,9)),BEGIN
 007E94 58F0 726E            080F4 39479  1                      L     R15,=F'-4'
 007E98 47F0 705E            07EE4 39480  1                      B     GTIVDONE
 007E9C                            39481                       END
                                   39485
                                   39486                       COMMENT                   R1,R0 - INTEGER STRING LOC, LEN
 007E9C 1820                       39487                       LR    R2,R0               R2 - DIGIT INDEX
 007E9E 1A21                       39488                       AR    R2,R1
 007EA0 0620                       39489                       DECR  R2
 007EA2 4130 000F            0000F 39491                       LA    R3,X'0F'            R3 - MASK
 007EA6 1B55                       39492                       CLEAR R5                  R5 - DIGIT VALUE
 007EA8 4160 0001            00001 39496                       LA    R6,1                R6 - MULTIPLIER
 007EAC 1BFF                       39497                       CLEAR R15                 R15 - TOTAL
                                   39501
                                   39502                       COMMENT                   LOOP THRU INTEGER, R. TO LEFT.
 007EAE 1921/4750 705E             39503                       WHILE (R2,GE,R1),BEGIN
 007EB4 95F0 2000/4740_00000       39520  1                      IF    ((@R2,LT,'0'),OR,(@R2,GT,'9')),BEGIN IF NOT DIGIT,,
 007EC4 58F0 726E            080F4 39551  2                        L     R15,=F'-4'
 007EC8 47F0 705E            07EE4 39552  2                        B     GTIVDONE
 007ECC                            39553  1                      END
 007ECC 1B44                       39557  1                      CLEAR R4
 007ECE 1B55                       39561  1                      CLEAR R5
 007ED0 4350 2000            00000 39565  1                      IC    R5,@R2              GET DIGIT
 007ED4 1453                       39566  1                      NR    R5,R3
 007ED6 1C46                       39567  1                      MR    R4,R6               DIGIT*MULTIPLIER
 007ED8 1AF5                       39568  1                      AR    R15,R5              ACCUMULATE TOTAL
 007EDA 4C60 728E            08114 39569  1                      MH    R6,=H'10'
 007EDE 0620                       39570  1                      DECR  R2
 007EE0 47F0 7028            07EAE 39572                       END
                                   39577
 007EE4                            39578              GTIVDONE LABEL ,
 007EE4 18D8/9808 D004_            39580                       PEND  ,
 DROP   *,R7
1WGS      (WGS2193) (13:01) (15MAR04) Show catalog                                                                          Page  123
0Current Usings:  (CP,R11) (CV,R12)
0Loc    Object Code    Addr1 Addr2  Stmt Lv Lineno    Source Statement           (Hibal 5, Asmedit 3.3)  HLASM R4.0  2004/03/15 13.01
+___    ______ ____    _____ _____  ____ __ ______    ______ _________
0                                  39601              *
                                   39602              *  GTLNOVAL - GET LINE NUMBER VALUE
                                   39603              *
                                   39604              *  ON ENTRY: R1,R0 - LINE NUMBER LOCATION LENGTH
                                   39605              *
                                   39606              *  ON EXIT:
                                   39607              *    R15=VALUE  (>=0)
                                   39608              *    R15=NEGATIVE, STRING IS NOT INTEGER
                                   39609              *
                                   39610              *
                                   39611              *   NOTE:
                                   39612              *   LINE NUMBER MAY HAVE LEADING AND/OR TRAILING BLANKS.
                                   39613              *   LINE NUMBER MAY CONTAIN ONE DECIMAL POINT.  OTHER THAN
                                   39614              *   THE ABOVE LINE NUMBER MUST BE DIGITS.
                                   39615              *   LINE NUMBER MAY BE 9 DIGITS MAX, (3 DIGITS MAX AFTER A
                                   39616              *   DECIMAL POINT.)
                                   39617              *
                                   39618              *   CAUTION:
                                   39619              *   LINE NUMBER VALUE **EQUALS** VALUEx1000.  !!
                                   39620              *   IF LINE NUMBER IS INTEGER, VALUE **EQUALS** INTEGERx1000.
                                   39621              *
                                   39622              *
 000000                00000 0000A 39623              GTLVWA   RECORD BEGIN
 000000                            39631  1           GTLVINT    DS    CL10
 00000A                0000A 0000A 39632                       END
                                   39641              *
                                   39642              *
 007EF2 50E0 D000/9008_      00000 39643              GTLNOVAL PROC  GTLVWA
 USING  *,R7
 USING  GTLVWA-(4+36),R8
                                   39693
 007F0C 1200/47D0 700E_            39694                       IF    ((R0,NP),OR,(R0,GT,9)),BEGIN
 007F1A 58F0 71E8            080F4 39724  1                      L     R15,=F'-4'
 007F1E 47F0 70A4            07FB0 39725  1                      B     GTLVDONE
 007F22                            39726                       END
                                   39730
                                   39731                       COMMENT                   STRIP LEADING/TRAILING BLANKS
 007F22 58E0 71EC/0DEE       080F8 39732                       VCALL LRTRIM
                                   39736
                                   39737                       COMMENT                   CONVERT STRING TO INTEGER STRING
 007F28 D209 8028 720A 00000 08116 39738                       MVC   GTLVINT,=CL10'0000000000'
 007F2E 1B33                       39739                       CLEAR R3
 007F30 4120 8028            00000 39743                       LA    R2,GTLVINT
 007F34 1200/47D0 7078             39744                       WHILE (R0,POS),BEGIN      LOOP THRU LINE NUMBER
 007F3A 95F0 1000/4750_00000       39760  1                      IF    ((@R1,GE,'0'),AND,(@R1,LE,'9')),BEGIN COPY NUMBERS
 007F4A D200 2000 1000 00000 00000 39791  2                        MVC   @R2(1),@R1
 007F50 5E10 71F0            080FC 39792  2                        INCR  R1
 007F54 5E20 71F0            080FC 39795  2                        INCR  R2
 007F58 0600                       39798  2                        DECR  R0
 007F5A                            39800  1                      END
 007F5A 7052/7052/47F0_07F5A 07F40 39804  1                      ELSEIF ((@R1,EQ,'.'),AND,(R3,Z)),BEGIN  MARK DEC. POINT
 007F6C 1832                       39844  2                        LR    R3,R2
 007F6E 5E10 71F0            080FC 39845  2                        INCR  R1
 007F72 0600                       39848  2                        DECR  R0
1WGS      (WGS2193) (13:01) (15MAR04) Show catalog                                                                          Page  124
0Current Usings:  (*,R7) (GTLVWA-(4+36),R8) (CP,R11) (CV,R12)
0Loc    Object Code    Addr1 Addr2  Stmt Lv Lineno    Source Statement           (Hibal 5, Asmedit 3.3)  HLASM R4.0  2004/03/15 13.01
+___    ______ ____    _____ _____  ____ __ ______    ______ _________
0007F74                            39850  1                      END
 007F74 706C/706C/47F0_07F74 07F64 39854  1                      ELSE  BEGIN               OTHER IS ERR
 007F78 58F0 71E8            080F4 39867  2                        L     R15,=F'-4'
 007F7C 47F0 70A4            07FB0 39868  2                        B     GTLVDONE
 007F80                            39869  1                      END
 007F80 47F0 7028            07F34 39873                       END
                                   39878
                                   39879                       COMMENT                   NOW CONVERT INTEGER
 007F84 4110 8028            00000 39880                       LA    R1,GTLVINT
 007F88 1912/4770 708A             39881                       IF    (R1,EQ,R2),BEGIN
 007F8E 58F0 71E8            080F4 39896  1                      L     R15,=F'-4'
 007F92 47F0 70A4            07FB0 39897  1                      B     GTLVDONE
 007F96                            39898                       END
 007F96 1233/4770 7092_            39902                       IF    (R3,Z),' LR R3,R2 ' IF NO DEC PNT, MARK END OF NUM
 007F9E 7096/47F0 709A_07F9E 07F9A 39922                       ELSE  'LA  R3,3(R3)'      ELSE, USE 3 DIGITS PAST DEC PNT
 007FA6 1B31                       39939                       SR    R3,R1
 007FA8 1803                       39940                       LR    R0,R3
 007FAA 58E0 71F4/0DEE       08100 39941                       ACALL GTINTVAL
                                   39945
 007FB0                            39946              GTLVDONE LABEL ,
 007FB0 18D8/9808 D004_            39948                       PEND  ,
 DROP   GTLVWA-(4+36),R8
 DROP   *,R7
1WGS      (WGS2193) (13:01) (15MAR04) Show catalog                                                                          Page  125
0Current Usings:  (CP,R11) (CV,R12)
0Loc    Object Code    Addr1 Addr2  Stmt Lv Lineno    Source Statement           (Hibal 5, Asmedit 3.3)  HLASM R4.0  2004/03/15 13.01
+___    ______ ____    _____ _____  ____ __ ______    ______ _________
0                                  39974              *
                                   39975              *  CHECKVOL - CHECK VOLUME NAME
                                   39976              *
                                   39977              *  ON ENTRY:  R1,R0 VOLUME LOC, LENGTH
                                   39978              *
                                   39979              *  ON EXIT:
                                   39980              *    R15=ZERO, VALID VOLUME NAME
                                   39981              *    R15=NZ, NOT VALID
                                   39982              *
 000000                00000 00008 39983              CHVWA    RECORD BEGIN
 000000                            39991  1           CHVVOL     DS    CL8
 000008                00008 00008 39992                       END
                                   40001              *
                                   40002              *
 007FBE 50E0 D000/9008_      00000 40003              CHECKVOL XPROC CHVWA
 USING  *,R7
 USING  CHVWA-(4+36),R8
                                   40054
                                   40055                       COMMENT                   BLANK PAD, UPPER CASE NAME
 007FD8 4120 8028            00000 40056                       LA    R2,CHVVOL
 007FDC 4130 0008            00008 40057                       LA    R3,8
 007FE0 1841                       40058                       LR    R4,R1
 007FE2 1850                       40059                       LR    R5,R0
 007FE4 5650 712C            08104 40060                       O     R5,=X'40000000'
 007FE8 0E24                       40061                       MVCL  R2,R4
 007FEA 5840 C8A8            008A8 40062                       L     R4,CVUPPTBL
 007FEE DC07 8028 4000 00000 00000 40063                       TR    CHVVOL,@R4
                                   40064
                                   40065                       COMMENT                   DO CHECKS
 007FF4 5900 7130/4720_      08108 40066                       IF    (R0,GT,8),BADVOL
 007FFC D507 7108 8028_080E0 00000 40086                       IF    (CHVVOL,EQ,'CAT     '),GOODVOL
 008006 D507 7110 8028_080E8 00000 40106                       IF    (CHVVOL,EQ,'CATLG   '),GOODVOL
 008010 5900 7134/4770_      0810C 40126                       IF    (R0,NE,6),BADVOL
 008018 4120 8028            00000 40146                       LA    R2,CHVVOL
 00801C 95C1 2000/4740_00000       40147                       IF    ((@R2,LT,'A'),OR,(@R2,GT,'Z')),CHKWVOL
 00802C 5E20 7124            080FC 40181                       INCR  R2
 008030 95C1 2000/4740_00000       40184                       IF    ((@R2,LT,'A'),OR,(@R2,GT,'Z')),CHKWVOL
 008040 5E20 7124            080FC 40218                       INCR  R2
 008044 95C1 2000/4740_00000       40221                       IF    ((@R2,LT,'A'),OR,(@R2,GT,'Z')),CHKWVOL
 008054 5E20 7124            080FC 40255                       INCR  R2
 008058 95C1 2000/4740_00000       40258                       IF    ((@R2,LT,'A'),OR,(@R2,GT,'Z')),BEGIN
 008068 95F0 2000/4740_00000       40289  1                      IF    ((@R2,LT,'0'),OR,(@R2,GT,'9')),CHKWVOL
 008078                            40323                       END
 008078 5E20 7124            080FC 40327                       INCR  R2
 00807C 95C1 2000/4740_00000       40330                       IF    ((@R2,LT,'A'),OR,(@R2,GT,'Z')),BEGIN
 00808C 95F0 2000/4740_00000       40361  1                      IF    ((@R2,LT,'0'),OR,(@R2,GT,'9')),CHKWVOL
 00809C                            40395                       END
 00809C 5E20 7124            080FC 40399                       INCR  R2
 0080A0 95F0 2000/4740_00000       40402                       IF    ((@R2,LT,'0'),OR,(@R2,GT,'9')),CHKWVOL
 0080B0 47F0 70DC            080B4 40436                       B     GOODVOL
                                   40437
 0080B4                            40438              GOODVOL  LABEL ,
 0080B4 1BFF                       40440                       CLEAR R15
 0080B6 47F0 70F8            080D0 40444                       B     VOLDONE
1WGS      (WGS2193) (13:01) (15MAR04) Show catalog                                                                          Page  126
0Current Usings:  (*,R7) (CHVWA-(4+36),R8) (CP,R11) (CV,R12)
0Loc    Object Code    Addr1 Addr2  Stmt Lv Lineno    Source Statement           (Hibal 5, Asmedit 3.3)  HLASM R4.0  2004/03/15 13.01
+___    ______ ____    _____ _____  ____ __ ______    ______ _________
0                                  40445
 0080BA                            40446              CHKWVOL  LABEL ,
 0080BA 4110 8028            00000 40448                       LA    R1,CHVVOL
 0080BE 58E0 7138/0DEE       08110 40449                       VCALL VOLCHK
 0080C4 47F0 70F8            080D0 40453                       B     VOLDONE
                                   40454
 0080C8                            40455              BADVOL   LABEL ,
 0080C8 41F0 0004            00004 40457                       LA    R15,4
 0080CC 47F0 70F8            080D0 40458                       B     VOLDONE
                                   40459
 0080D0                            40460              VOLDONE  LABEL ,
 0080D0 18D8/9808 D004_            40462                       PEND  ,
 DROP   CHVWA-(4+36),R8
 DROP   *,R7
                                   40487
                                   40488                       QLTORG
1WGS      (WGS2193) (13:01) (15MAR04) Show catalog                                                                          Page  127
0Current Usings:  (CP,R11) (CV,R12)
0Loc    Object Code    Addr1 Addr2  Stmt Lv Lineno    Source Statement           (Hibal 5, Asmedit 3.3)  HLASM R4.0  2004/03/15 13.01
+___    ______ ____    _____ _____  ____ __ ______    ______ _________
0                                  40514              *
                                   40515              *
                                   40516              *   RETFNAME - RETURN FILE NAME
                                   40517              *
                                   40518              *   STRIP '(MEMBER)' FROM 'FILE_NAME(MEMBER)', IF ANY
                                   40519              *
                                   40520              *   ON ENTRY:
                                   40521              *      R1,R0 - FILE NAME LOC, LEN
                                   40522              *
                                   40523              *   ON EXIT:
                                   40524              *      R1,R0 - FILE NAME LOC, LEN WITHOUT '(MEMBER)'
                                   40525              *
                                   40526              *
                                   40527              *   NOTES: IF NOT TYPE WINGS/OLDIBM WE SHOULD NOT
                                   40528              *     RETURN MEMBER. '(' OR ')' MAY BE PART OF THE FILE
                                   40529              *     NAME.   WHAT DO YOU SAY !
                                   40530              *
 008120 50E0 D000/9008_      00000 40531              RETFNAME XPROC ,
 USING  *,R7
                                   40571
 00813A 1821                       40572                       LR    R2,R1               R2,R3,R4 - START,END,INDEX
 00813C 1831                       40573                       LR    R3,R1
 00813E 1A30                       40574                       AR    R3,R0
 008140 1843                       40575                       LR    R4,R3
 008142 0640                       40576                       DECR  R4
 008144 1200/47D0 7048_            40578                       IF    ((R0,POS),AND,(@R4,EQ,')')),BEGIN  IF NAME, MEMBER
 008152 1942/47D0 702C_            40607  1                      WHILE ((R4,GT,R2),AND,(@R4,NE,'(')),BEGIN
 008160 0640                       40639  2                        DECR  R4
 008162 47F0 7018            08152 40641  1                      END
 008166 1854                       40646  1                      LR    R5,R4               R5,R4 - AT '('
 008168 1B51                       40647  1                      SR    R5,R1
 00816A 1B34                       40648  1                      SR    R3,R4
 00816C 1255/47D0 7048_            40649  1                      IF    ((R5,POS),AND,(R3,LE,10)),BEGIN
 00817A 1804                       40679  2                        LR    R0,R4
 00817C 1B01                       40680  2                        SR    R0,R1
 00817E 5008 0004            00004 40681  2                        PRETURN (R0)
 008182                            40683  1                      END
 008182                            40687                       END
                                   40691
 008182 18D8/9808 D004_            40692                       PEND
 DROP   *,R7
1WGS      (WGS2193) (13:01) (15MAR04) Show catalog                                                                          Page  128
0Current Usings:  (CP,R11) (CV,R12)
0Loc    Object Code    Addr1 Addr2  Stmt Lv Lineno    Source Statement           (Hibal 5, Asmedit 3.3)  HLASM R4.0  2004/03/15 13.01
+___    ______ ____    _____ _____  ____ __ ______    ______ _________
0                                  40713              *
                                   40714              *
                                   40715              *   RETFNGDG - RETURN FILE NAME
                                   40716              *
                                   40717              *   STRIP '(MEMBER)' FROM 'FILE_NAME(MEMBER)', IF ANY
                                   40718              *   UNLESS IT'S A GDG.
                                   40719              *
                                   40720              *   ON ENTRY:
                                   40721              *      R1,R0 - FILE NAME LOC, LEN
                                   40722              *
                                   40723              *   ON EXIT:
                                   40724              *      R1,R0 - FILE NAME LOC, LEN WITHOUT '(MEMBER)'
                                   40725              *
                                   40726              *
                                   40727              *   NOTES: IF NOT TYPE WINGS/OLDIBM WE SHOULD NOT
                                   40728              *     RETURN MEMBER. '(' OR ')' MAY BE PART OF THE FILE
                                   40729              *     NAME.   WHAT DO YOU SAY !
                                   40730              *
 008190 50E0 D000/9008_      00000 40731              RETFNGDG XPROC ,
 USING  *,R7
                                   40771
 0081AA 1821                       40772                       LR    R2,R1               R2,R3,R4 - START,END,INDEX
 0081AC 1831                       40773                       LR    R3,R1
 0081AE 1A30                       40774                       AR    R3,R0
 0081B0 1843                       40775                       LR    R4,R3
 0081B2 0640                       40776                       DECR  R4
 0081B4 1200/47D0 706A_            40778                       IF    ((R0,POS),AND,(@R4,EQ,')')),BEGIN  IF NAME, MEMBER
 0081C2 1942/47D0 702C_            40807  1                      WHILE ((R4,GT,R2),AND,(@R4,NE,'(')),BEGIN
 0081D0 0640                       40839  2                        DECR  R4
 0081D2 47F0 7018            081C2 40841  1                      END
 0081D6 1854                       40846  1                      LR    R5,R4               R5,R4 - AT '('
 0081D8 4120 5001            00001 40847  1                      LA    R2,1(,R5)           POINT PAST '('
                                   40848  1         C            IF    ((@R2,EQ,C'+'),OR,(@R2,EQ,C'-'),OR,
 0081DC 954E 2000/4780_00000              1                            (@R2,EQ,'0)')),BEGIN
 0081F6                            40892  1                      END
 0081F6 7050/47F0 706A 081F6 081F4 40896  1                      ELSE  BEGIN
 0081FA 1B51                       40907  2                        SR    R5,R1
 0081FC 1B34                       40908  2                        SR    R3,R4
 0081FE 1255/47D0 706A_            40909  2                        IF    ((R5,POS),AND,(R3,LE,10)),BEGIN
 00820C 1804                       40939  3                          LR    R0,R4
 00820E 1B01                       40940  3                          SR    R0,R1
 008210 5008 0004            00004 40941  3                          PRETURN (R0)
 008214                            40943  2                        END
 008214                            40947  1                      END
 008214                            40951                       END
                                   40955
 008214 18D8/9808 D004_            40956                       PEND
 DROP   *,R7
1WGS      (WGS2193) (13:01) (15MAR04) Show catalog                                                                          Page  129
0Current Usings:  (CP,R11) (CV,R12)
0Loc    Object Code    Addr1 Addr2  Stmt Lv Lineno    Source Statement           (Hibal 5, Asmedit 3.3)  HLASM R4.0  2004/03/15 13.01
+___    ______ ____    _____ _____  ____ __ ______    ______ _________
0                                  40977              *
                                   40978              *
                                   40979              *   RETFMEM - RETURN FILE MEMBER, IF ANY
                                   40980              *
                                   40981              *   RETURN 'MEMBER' FROM 'FILE_NAME(MEMBER)', IF ANY
                                   40982              *
                                   40983              *   ON ENTRY:
                                   40984              *      R1,R0 - FILE NAME LOC, LEN
                                   40985              *
                                   40986              *   ON EXIT:
                                   40987              *      R1,R0 - 'MEMBER' NAME LOC, LEN
                                   40988              *
                                   40989              *
                                   40990              *   NOTES: IF NOT TYPE WINGS/OLDIBM WE SHOULD NOT
                                   40991              *     RETURN MEMBER. '(' OR ')' MAY BE PART OF THE FILE
                                   40992              *     NAME.   WHAT DO YOU SAY !
                                   40993              *
 008222 50E0 D000/9008_      00000 40994              RETFMEM  XPROC ,
 USING  *,R7
                                   41034
 00823C 1821                       41035                       LR    R2,R1               R2,R3,R4 - START,END,INDEX
 00823E 1831                       41036                       LR    R3,R1
 008240 1A30                       41037                       AR    R3,R0
 008242 1843                       41038                       LR    R4,R3
 008244 0640                       41039                       DECR  R4
 008246 1200/47D0 705C_            41041                       IF    ((R0,POS),AND,(@R4,EQ,')')),BEGIN  IF NAME, MEMBER
 008254 1942/47D0 702C_            41070  1                      WHILE ((R4,GT,R2),AND,(@R4,NE,'(')),BEGIN
 008262 0640                       41102  2                        DECR  R4
 008264 47F0 7018            08254 41104  1                      END
 008268 1854                       41109  1                      LR    R5,R4               R5,R4 - AT '('
 00826A 1B51                       41110  1                      SR    R5,R1
 00826C 1B34                       41111  1                      SR    R3,R4
 00826E 1255/47D0 7054_            41112  1                      IF    ((R5,POS),AND,(R3,GE,3),AND,(R3,LE,10)),BEGIN
 008284 1803                       41156  2                        LR    R0,R3
 008286 0600                       41157  2                        DECR  R0
 008288 0600                       41159  2                        DECR  R0
 00828A 1814                       41161  2                        LR    R1,R4
 00828C 5E10 710C            08348 41162  2                        INCR  R1
 008290                            41165  1                      END
 008290 7058/7058/7058_08290 08272 41169  1                      ELSE  BEGIN
 008294 1A10                       41184  2                        AR    R1,R0
 008296 1B00                       41185  2                        CLEAR R0
 008298                            41189  1                      END
 008298                            41193                       END
 008298 7060/7060/47F0_08298 0824A 41197                       ELSE  BEGIN
 00829C 1A10                       41210  1                      AR    R1,R0
 00829E 1B00                       41211  1                      CLEAR R0
 0082A0                            41215                       END
                                   41219
 0082A0 9001 8004            00004 41220                       PRETURN (R0,R1)
 0082A4 18D8/9808 D004_            41222                       PEND
 DROP   *,R7
1WGS      (WGS2193) (13:01) (15MAR04) Show catalog                                                                          Page  130
0Current Usings:  (CP,R11) (CV,R12)
0Loc    Object Code    Addr1 Addr2  Stmt Lv Lineno    Source Statement           (Hibal 5, Asmedit 3.3)  HLASM R4.0  2004/03/15 13.01
+___    ______ ____    _____ _____  ____ __ ______    ______ _________
0                                  41243              *
                                   41244              *
                                   41245              *   RETLIBMB - RETURN FILE NAME IN LIB#MEMBER FORMAT
                                   41246              *
                                   41247              *
                                   41248              *   ON ENTRY:
                                   41249              *      R1,R0 - FILE NAME LOC, LEN
                                   41250              *      R2 - LOCATION TO PUT NAME
                                   41251              *
                                   41252              *   ON EXIT:
                                   41253              *      R1,R0 - FILE NAME (LIB#MEM) LOC, LEN
                                   41254              *              (R1=R2 ON EXIT; R0 IS ACTUAL LEN)
                                   41255              *
                                   41256              *   NOTE:
                                   41257              *     IF NO MEMBER, FILE NAME IS RETURNED AS EXPECTED
                                   41258              *
                                   41259              *   NOTE:
                                   41260              *     IF NOT TYPE WINGS/OLDIBM WE SHOULD NOT
                                   41261              *     RETURN MEMBER. '(' OR ')' MAY BE PART OF THE FILE
                                   41262              *     NAME.   WHAT DO YOU SAY !
                                   41263              *
                                   41264              *   NOTES, CAUTION!
                                   41265              *     RETURN AREA (@R2) SHOULD BE BIG ENOUGH TO HOLD
                                   41266              *     MAX FILE NAME (CURRENTLY 128 BYTES).  ON EXIT
                                   41267              *     R1 = R2.
                                   41268              *
                                   41269              *
 0082B2 50E0 D000/9008_      00000 41270              RETLIBMB XPROC ,
 USING  *,R7
                                   41310
                                   41311                       COMMENT                   MOVE FILE NAME
 0082CC 1830                       41312                       LR    R3,R0
 0082CE 0630/1233/4740_            41313                       MOVE  R3,@R2,@R1
 0082DA 1812                       41351                       LR    R1,R2               R1 - NEW NAME LOC, R0 - LEN
                                   41352
                                   41353                       COMMENT                   R2,R3,R4 - START,END,INDEX
 0082DC 1831                       41354                       LR    R3,R1
 0082DE 1A30                       41355                       AR    R3,R0
 0082E0 1843                       41356                       LR    R4,R3
 0082E2 0640                       41357                       DECR  R4
 0082E4 1200/47D0 705C_            41359                       IF    ((R0,POS),AND,(@R4,EQ,')')),BEGIN  IF NAME, MEMBER
 0082F2 1942/47D0 703A_            41388  1                      WHILE ((R4,GT,R2),AND,(@R4,NE,'(')),BEGIN
 008300 0640                       41420  2                        DECR  R4
 008302 47F0 7026            082F2 41422  1                      END
 008306 1854                       41427  1                      LR    R5,R4               R5,R4 - AT '('
 008308 1B51                       41428  1                      SR    R5,R1
 00830A 1863                       41429  1                      LR    R6,R3
 00830C 1B64                       41430  1                      SR    R6,R4               R6 - MEMBER LEN+2
 00830E 1255/47D0 705C_            41431  1                      IF    ((R5,POS),AND,(R6,LE,10)),BEGIN    IF MEMBER
 00831C 927B 4000      00000       41461  2                        MVI   @R4,C'#'
 008320 0630                       41462  2                        DECR  R3
 008322 9240 3000      00000       41464  2                        MVI   @R3,C' '
 008326 0600                       41465  2                        DECR  R0
 008328                            41467  1                      END
1WGS      (WGS2193) (13:01) (15MAR04) Show catalog                                                                          Page  131
0Current Usings:  (*,R7) (CP,R11) (CV,R12)
0Loc    Object Code    Addr1 Addr2  Stmt Lv Lineno    Source Statement           (Hibal 5, Asmedit 3.3)  HLASM R4.0  2004/03/15 13.01
+___    ______ ____    _____ _____  ____ __ ______    ______ _________
0008328                            41471                       END
                                   41475
 008328 9001 8004            00004 41476                       PRETURN (R0,R1)
 00832C 18D8/9808 D004_            41478                       PEND
 DROP   *,R7
                                   41498                       QLTORG
1WGS      (WGS2193) (13:01) (15MAR04) Show catalog                                                                          Page  132
0Current Usings:  (CP,R11) (CV,R12)
0Loc    Object Code    Addr1 Addr2  Stmt Lv Lineno    Source Statement           (Hibal 5, Asmedit 3.3)  HLASM R4.0  2004/03/15 13.01
+___    ______ ____    _____ _____  ____ __ ______    ______ _________
0                                  41515
                                   41516
                                   41517                File parameter area (needed for BUILDDSN).
                                   41518

0000000                00000 001DC 41519              FILPB    RECORD 'FILPB'            File parameter block
                                   41529+ 1          +
                                   41530+ 1          +             File open parameters.
                                   41531+ 1          +
 000000                            41532  1 03-FILPB +FILPBSTART       DS  0D
                                   41533+ 1          +
                                   41534+ 1          +             File information built from components below.
                                   41535+ 1          +
 000000                            41536  1 03-FILPB +FILPBDSNAME      DS  CL44            Full OS data set name
 00002C                            41537  1 03-FILPB +FILPBDSMEM       DS  CL8             Member name for library
 000034                            41538  1 03-FILPB +FILPBDSACCT      DS  CL5'uuugg'      Account of dsname owner
                                   41539+ 1          +
                                   41540+ 1          +             Component information used to build dsname.
                                   41541+ 1          +
 000039                            41542  1 03-FILPB +FILPBNAME        DS  CL128           File name
 0000B9                            41543  1 03-FILPB +FILPBCNAME       DS  CL128           Current file name
 000139                            41544  1 03-FILPB +FILPBUSER        DS  CL3'uuu'        User override
 00013C                            41545  1 03-FILPB +FILPBGROUP       DS  CL2'gg'         Group override
 00013E                            41546  1 03-FILPB +FILPBVOL         DS  CL6'volser'     Volume override
 000144                            41547  1 03-FILPB +FILPBACCOUNT     DS  CL6'gg.uuu'     Account override
                                   41548  1 03-FILPB +FILPBACUSER      EQU FILPBACCOUNT,3,C'C'    .uuu
                                   41549  1 03-FILPB +FILPBACGROUP     EQU FILPBACCOUNT+3,2,C'C'  .gg
 00014A                            41550  1 03-FILPB +FILPBSETUSER     DS  CL3'uuu'        Default user (if none specifed)
 00014D                            41551  1 03-FILPB +FILPBSETGROUP    DS  CL2'gg'         Default group (if none specified)
 00014F                            41552  1 03-FILPB +FILPBSETVOL      DS  CL6'volser'     Default volume (if none specified)
 000155                            41553  1 03-FILPB +FILPBSETLIB      DS  CL128           Default lib (if none specified)
 0001D5 00                         41554  1          +*
 FILPBDTYPE.FILPBF 01 EQ
 FILPBDTYPE.FILPBF 02 EQ
 FILPBDTYPE.FILPBF 03 EQ
                                   41589  1          +*
 0001D8                            41590  1 03-FILPB +FILPBLEVEL   DS  F                   Current recursion level
 0001DC                001DC 001DC 41591             +*
                                   41601
                                   41602                         XFILPB is just a copy of FILPB, so we can have
                                   41603                           addressability to two FILPBs at once.
                                   41604
 000000                00000 001DC 41605              XFILPB   RECORD BEGIN
                                   41613  1                      FILPB PFX=XFILPB
                                   41614+ 1          +
                                   41615+ 1          +             File open parameters.
                                   41616+ 1          +
 000000                            41617  1 01-FILPB +XFILPBSTART      DS  0D
1WGS      (WGS2193) (13:01) (15MAR04) Show catalog                                                                          Page  133
0Current Usings:  (CP,R11) (CV,R12)
0Loc    Object Code    Addr1 Addr2  Stmt Lv Lineno    Source Statement           (Hibal 5, Asmedit 3.3)  HLASM R4.0  2004/03/15 13.01
+___    ______ ____    _____ _____  ____ __ ______    ______ _________
0                                  41618+ 1          +
                                   41619+ 1          +             File information built from components below.
                                   41620+ 1          +
 000000                            41621  1 01-FILPB +XFILPBDSNAME     DS  CL44            Full OS data set name
 00002C                            41622  1 01-FILPB +XFILPBDSMEM      DS  CL8             Member name for library
 000034                            41623  1 01-FILPB +XFILPBDSACCT     DS  CL5'uuugg'      Account of dsname owner
                                   41624+ 1          +
                                   41625+ 1          +             Component information used to build dsname.
                                   41626+ 1          +
 000039                            41627  1 01-FILPB +XFILPBNAME       DS  CL128           File name
 0000B9                            41628  1 01-FILPB +XFILPBCNAME      DS  CL128           Current file name
 000139                            41629  1 01-FILPB +XFILPBUSER       DS  CL3'uuu'        User override
 00013C                            41630  1 01-FILPB +XFILPBGROUP      DS  CL2'gg'         Group override
 00013E                            41631  1 01-FILPB +XFILPBVOL        DS  CL6'volser'     Volume override
 000144                            41632  1 01-FILPB +XFILPBACCOUNT    DS  CL6'gg.uuu'     Account override
                                   41633  1 01-FILPB +XFILPBACUSER     EQU XFILPBACCOUNT,3,C'C'   .uuu
                                   41634  1 01-FILPB +XFILPBACGROUP    EQU XFILPBACCOUNT+3,2,C'C' .gg
 00014A                            41635  1 01-FILPB +XFILPBSETUSER    DS  CL3'uuu'        Default user (if none specifed)
 00014D                            41636  1 01-FILPB +XFILPBSETGROUP   DS  CL2'gg'         Default group (if none specified)
 00014F                            41637  1 01-FILPB +XFILPBSETVOL     DS  CL6'volser'     Default volume (if none specified)
 000155                            41638  1 01-FILPB +XFILPBSETLIB     DS  CL128           Default lib (if none specified)
 0001D5 00                         41639  1          +*
 XFILPBDTYPE.XFILP 01 EQ
 XFILPBDTYPE.XFILP 02 EQ
 XFILPBDTYPE.XFILP 03 EQ
                                   41674  1          +*
 0001D8                            41675  1 01-FILPB +XFILPBLEVEL   DS F                   Current recursion level
                                   41676  1          +
 0001DC                001DC 001DC 41677                       END
1WGS      (WGS2193) (13:01) (15MAR04) Show catalog                                                                          Page  134
0Current Usings:  (CP,R11) (CV,R12)
0Loc    Object Code    Addr1 Addr2  Stmt Lv Lineno    Source Statement           (Hibal 5, Asmedit 3.3)  HLASM R4.0  2004/03/15 13.01
+___    ______ ____    _____ _____  ____ __ ______    ______ _________
0                                  41687              *
                                   41688              *
                                   41689              *  IBM (WINGS, OLDIBM) FILE NAME RESOLUTION
                                   41690              *
                                   41691              *  ON ENTRY:
                                   41692              *    @R1 - FFINFO DSECT
                                   41693              *    FFINFO CONTAINS FFNAME, FFHOST.
                                   41694              *  ON EXIT:
                                   41695              *    FFRNAME SET IN FFINFO.
                                   41696              *
                                   41697              *   NOTE:
                                   41698              *   SOME SCAN ERRORS EXIT VIA CVERROR
                                   41699              *
                                   41700              *
 000000                00000 00320 41701              WNWA     RECORD BEGIN
 000000                            41709  1           WNERRID    DS    CL8                 Space for ERRID
                                   41710  1           WNSG       SEGCB
 000008 00                         41711  1 01-SEGCB +$$$SEGCB1034   DS 0F
 WNSGCOD.WNSGSEG   01 EQ
 WNSGCOD.WNSGWR    02 EQ
 WNSGCOD.WNSGCLR   03 EQ
 WNSGCOD.WNSGSPP   04 EQ
 WNSGCOD.WNSGOVF   05 EQ
 WNSGCOD.WNSGCR    06 EQ
 WNSGCOD.WNSGMAR   07 EQ
 000009 00                         41786  1 01-SEGCB +           DC    X'00'               Reserved
 00000A 0000                              1          +
 00000C 00000000                   41787  1 01-SEGCB +WNSGMAXF   DC    A(0)                Maximum buffer length
 000010 00000000                   41788  1 01-SEGCB +WNSGMRKF   DC    A(0)                Length at last mark
 000014 00000000                   41789  1 01-SEGCB +WNSGLENF   DC    A(0)                Current length
 000018 00000000                   41790  1 01-SEGCB +WNSGINDF   DC    A(0)                Overflow/indent count
 00001C 00000000                   41791  1 01-SEGCB +WNSGERR    DC    A(0)                Address of error recovery routine
 000020 0000000000000000           41792  1 01-SEGCB +           DC    2F'0'               Reserved
 000028 00000000                   41793  1 01-SEGCB +WNSGLOC    DC    A(0)                Location of buffer
 00002C 00000000                   41794  1 01-SEGCB +WNSGRTN    DC    A(0)                Processing routine
 000030 0000000000000000           41795  1 01-SEGCB +           DC    4F'0'               Reserved
 000040 00000000                   41796  1 01-SEGCB +WNSGUSR    DC    A(0)                USER field
                                   41797  1 01-SEGCB +WNSG       EQU   $$$SEGCB1034,*-$$$SEGCB1034,C'X'
 000044                            41798  1           WNSGBUF    DS    CL256               Error message buffer
 000144                            41799  1           WNFILPB    DS    XL(L'FILPB)
 000320                00320 00320 41800                       END
                                   41809
 008354 50E0 D000/9008_      00000 41810              WGSRESLV XPROC WNWA
 USING  *,R7
 USING  WNWA-(4+36),R8
 00836E D7FF 8028 8028_00000 00000 41861                       CLEAR WNWA
                                   41871
 008386 1861                       41872                       LR    R6,R1
 USING  FFINFO,R6                  41873                       USING FFINFO,R6
 008388 4150 816C            00144 41882                       LA    R5,WNFILPB
 USING  FILPB,R5                   41883                       USING FILPB,R5
                                   41892
                                   41893                       COMMENT                   SET UP FILE PARM BLOCK
 00838C D27F 5039 C4D8 00039 004D8 41894                       MVC   FILPBNAME,CVBLANKS  FILE NAME
1WGS      (WGS2193) (13:01) (15MAR04) Show catalog                                                                          Page  135
0Current Usings:  (FILPB,R5) (FFINFO,R6) (*,R7) (WNWA-(4+36),R8) (CP,R11) (CV,R12)
0Loc    Object Code    Addr1 Addr2  Stmt Lv Lineno    Source Statement           (Hibal 5, Asmedit 3.3)  HLASM R4.0  2004/03/15 13.01
+___    ______ ____    _____ _____  ____ __ ______    ______ _________
0008392 5830 6008            00008 41895                       L     R3,FFNAMEL
 008396 5930 72CA/47D0_      08638 41896                       CEIL  R3,L'FILPBNAME
 0083A2 0630/1233/4740_            41915                       MOVE  R3,FILPBNAME,FFNAME
 0083AE D503 72C2 6298_08630 00298 41953                       IF    (FFPNAMEL,NE,0),BEGIN IF PREV (CURRENT) FILE NAME
 0083B8 D27F 50B9 C4D8 000B9 004D8 41971  1                      MVC   FILPBCNAME,CVBLANKS PREVIOUS
 0083BE 5830 6298            00298 41972  1                      L     R3,FFPNAMEL
 0083C2 5930 72CE/47D0_      0863C 41973  1                      CEIL  R3,L'FILPBCNAME
 0083CE 0630/1233/4740_            41992  1                      MOVE  R3,FILPBCNAME,FFPNAME
 0083DA                            42030                       END
 0083DA D27F 5155 C4D8 00155 004D8 42034                       MVC   FILPBSETLIB,CVBLANKS  DEFAULT LIB
 0083E0 D207 5155 B8AB 00155 008AB 42035                       MVC   FILPBSETLIB(L'CPLIB),CPLIB
                                   42036                       COMMENT                   FIND USER, GROUP, ACCOUNT OPTIONS
 0083E6 58E0 B08C/D2AF_      0008C 42037                       SCPUSH ,
 0083F4 4110 6114/5800_      00114 42043                       SCINIT FFOPTS,L:FFOPTSL
 00840A 5810 B08C/1B00_      0008C 42067                       SCAN  RESLVPRT
 00845C 58E0 72DA/0DEE       08648 42099                       SCANCHK
 008462 58E0 B08C/4BD0_      0008C 42104                       SCPOP ,
 008470 D202 5139 BC48 00139 00C48 42110                       MVC   FILPBUSER,CPCUSER
 008476 D201 513C BC4B 0013C 00C4B 42111                       MVC   FILPBGROUP,CPCGRP
 00847C D202 514A B1B8 0014A 001B8 42112                       MVC   FILPBSETUSER,CPUSERSV
 008482 D201 514D B1BB 0014D 001BB 42113                       MVC   FILPBSETGROUP,CPGRPSV
 008488 9201 51D5      001D5       42114                       SET   FILPBFTYPWYL        WE WANT WYLBUR FORMAT NAME
                                   42120
                                   42121                       COMMENT                   INIT ERROR BUFFER
 00848C 4110 806C/4100_      00044 42122                       SEGINIT WNSGBUF,,WNSG
                                   42149
                                   42150                       COMMENT                   BUILD FULL DSNAME
 00849E 4110 5000            00000 42151                       LA    R1,FILPB
 0084A2 4120 8028            00000 42152                       LA    R2,WNERRID
 0084A6 41F0 8030            00008 42153                       LA    R15,WNSG
 0084AA 58E0 72E2/0DEE       08650 42154                       ACALL BUILDDSN            Build full dsname
                                   42158
 0084B0 12FF/4780 7168             42159                       IF    (R15,NZ),BEGIN
 0084B6 D207 B886 8028 00886 00000 42173  1                      MVC   CPERRID,WNERRID
 0084BC 9110 BD5C/4710_00D5C       42174  1                      IF    ~CPFDSNNE,BEGIN
 0084C4 41F0 B050/58E0_      00050 42189  2                        TSEG  (R1),(R0)
 0084CE                            42213  1                      END
 0084CE 41F0 0004            00004 42217  1                      LA    R15,4
 0084D2 47F0 720A            08578 42218  1                      B     WGSREXIT
 0084D6                            42219                       END
                                   42223
                                   42224                       COMMENT                   RETURN DATA SET NAME IN FFINFO
 0084D6 4120 5000            00000 42225                       LA    R2,FILPBDSNAME      CALC R2 FILE NAME LEN
 0084DA 4130 502C            0002C 42226                       LA    R3,FILPBDSNAME+L'FILPBDSNAME
 0084DE 9500 2000/4780_00000       42227                       IF    (@R2,NE,0),BEGIN
 0084E6 9540 2000/4780_00000       42244  1                      WHILE ((@R2,NE,' '),AND,(R2,LT,R3)),BEGIN
 0084F4 5E20 72EA            08658 42276  2                        INCR  R2
 0084F8 47F0 7178            084E6 42279  1                      END
 0084FC                            42284                       END
 0084FC 4130 5000            00000 42288                       LA    R3,FILPBDSNAME
 008500 1B23                       42289                       SR    R2,R3
 008502 4140 502C            0002C 42290                       LA    R4,FILPBDSMEM       CALC R4 FILE NAME LEN
 008506 4130 5034            00034 42291                       LA    R3,FILPBDSMEM+L'FILPBDSMEM
 00850A 9500 4000/4780_00000       42292                       IF    (@R4,NE,0),BEGIN
1WGS      (WGS2193) (13:01) (15MAR04) Show catalog                                                                          Page  136
0Current Usings:  (FILPB,R5) (FFINFO,R6) (*,R7) (WNWA-(4+36),R8) (CP,R11) (CV,R12)
0Loc    Object Code    Addr1 Addr2  Stmt Lv Lineno    Source Statement           (Hibal 5, Asmedit 3.3)  HLASM R4.0  2004/03/15 13.01
+___    ______ ____    _____ _____  ____ __ ______    ______ _________
0008512 9540 4000/4780_00000       42309  1                      WHILE ((@R4,NE,' '),AND,(R4,LT,R3)),BEGIN
 008520 5E40 72EA            08658 42341  2                        INCR  R4
 008524 47F0 71A4            08512 42344  1                      END
 008528                            42349                       END
 008528 4130 502C            0002C 42353                       LA    R3,FILPBDSMEM
 00852C 1B43                       42354                       SR    R4,R3
                                   42355                       COMMENT                   MOVE IN FILE NAME
 00852E 1832                       42356                       LR    R3,R2
 008530 0630/1233/4740_            42357                       MOVE  R3,FFRNAME,FILPBDSNAME
 00853C 5020 6214            00214 42395                       ST    R2,FFRNAMEL
 008540 1244/47D0 7208             42396                       IF    (R4,POS),BEGIN      IF MEMBER, MOVE IT TOO
 008546 4120 6218            00218 42410  1                      LA    R2,FFRNAME
 00854A 5A20 6214            00214 42411  1                      A     R2,FFRNAMEL
 00854E 924D 2000      00000       42412  1                      MVI   @R2,C'('
 008552 5E20 72EA            08658 42413  1                      INCR  R2
 008556 1834                       42416  1                      LR    R3,R4
 008558 0630/1233/4740_            42417  1                      MOVE  R3,@R2,FILPBDSMEM
 008564 1A24                       42455  1                      AR    R2,R4
 008566 925D 2000      00000       42456  1                      MVI   @R2,C')'
 00856A 5A40 6214            00214 42457  1                      A     R4,FFRNAMEL
 00856E 5A40 72EE            0865C 42458  1                      A     R4,=A(2) FOR '()'
 008572 5040 6214            00214 42459  1                      ST    R4,FFRNAMEL
 008576                            42460                       END
 008576 1BFF                       42464                       CLEAR R15
                                   42468
 008578                            42469              WGSREXIT LABEL ,
 008578 18D8/9808 D004_            42471                       PEND
 DROP   WNWA-(4+36),R8
 DROP   *,R7
                                   42496
 DROP   FFINFO,R6                  42497                       DROP  R6
 DROP   FILPB,R5                   42504                       DROP  R5
                                   42511
                                   42512                       SEGDEF DUMMY              (Neatness)
1WGS      (WGS2193) (13:01) (15MAR04) Show catalog                                                                          Page  137
0Current Usings:  (CP,R11) (CV,R12)
0Loc    Object Code    Addr1 Addr2  Stmt Lv Lineno    Source Statement           (Hibal 5, Asmedit 3.3)  HLASM R4.0  2004/03/15 13.01
+___    ______ ____    _____ _____  ____ __ ______    ______ _________
0                                  42514              *
                                   42515              *  SCKWS AND ROUTINES TO SCAN ACCOUNT, GROUP, USER
                                   42516              *  FROM FILE OPTIONS IN FFOPTS IN FFINFO
                                   42517              *
 008588 4040404040404040_          42518              RESLVPRT SCKW  ,V(ACCTPSH),PUSH
 0085B0 D7E4C2D3C9C34040_          42533                       SCKW  PUBLIC,RESLVPUB,A
 0085D8 4040404040404040_          42548                       SCKW  ,V(SCNNOOP)
                                   42563
 008600 50E0 D000/9008_      00000 42564              RESLVPUB PROC  ,
 USING  *,R7
 00861A D204 BC48 704A 00C48 08664 42603                       MVC   CPCACCT,=C'&PUBUSER&PUBGRP'  Public account
 008620 1BFF                       42604                       CLEAR R15
 008622 18D8/9808 D004_            42608                       PEND  ,
 DROP   *,R7
                                   42628
                                   42629                       DROP  R6
                                   42633                       DROP  R5
                                   42637                       QLTORG
1WGS      (WGS2193) (13:01) (15MAR04) Show catalog                                                                          Page  138
0Current Usings:  (CP,R11) (CV,R12)
0Loc    Object Code    Addr1 Addr2  Stmt Lv Lineno    Source Statement           (Hibal 5, Asmedit 3.3)  HLASM R4.0  2004/03/15 13.01
+___    ______ ____    _____ _____  ____ __ ______    ______ _________
0                                  42664
                                   42665
                                   42666                BUILDDSN -- Routine to build the OS file name given the name
                                   42667                  and all the other pieces.
                                   42668
                                   42669                  On entry:
                                   42670                     R1  - FILPB ptr
                                   42671                     R2  - Pointer to store ERRID
                                   42672                     R15 - Error message SEGCB ptr
                                   42673
                                   42674                  On exit, R15 (and cc):
                                   42675                     0 = ok; DSNAME and MEMBER filled in:
                                   42676                           FILPBDSNAME - 44 character OS file name
                                   42677                           FILPBDSMEM  - 8 character member name
                                   42678                                           (binary zero if none)
                                   42679                           FILPBDSACCT - account (uuugg) of dsname owner
                                   42680                                           (binary zero if non-standard ds)
                                   42681
                                   42682                     nz= error, R1,R0 = error message loc, len, ERRID stored
                                   42683

0000000                00000 000CC 42684              BDSNWA   RECORD BEGIN
 000000                            42692  1           BDSNERAD   DS    A                   ERRID ptr
 000004                            42693  1           BDSNESGP   DS    A                   Error SEGCB ptr
 000008                            42694  1           BDSNERID   DS    CL8                 ERRID save
                                   42695  1           BDSNSG     SEGCB ,                   Filname expansion SEGCB
 000010 00                         42696  1 01-SEGCB +$$$SEGCB1074   DS 0F
 BDSNSGCOD.BDSNSGS 01 EQ
 BDSNSGCOD.BDSNSGW 02 EQ
 BDSNSGCOD.BDSNSGC 03 EQ
 BDSNSGCOD.BDSNSGS 04 EQ
 BDSNSGCOD.BDSNSGO 05 EQ
 BDSNSGCOD.BDSNSGC 06 EQ
 BDSNSGCOD.BDSNSGM 07 EQ
 000011 00                         42771  1 01-SEGCB +           DC    X'00'               Reserved
 000012 0000                              1          +
 000014 00000000                   42772  1 01-SEGCB +BDSNSGMAXF   DC  A(0)                Maximum buffer length
 000018 00000000                   42773  1 01-SEGCB +BDSNSGMRKF   DC  A(0)                Length at last mark
 00001C 00000000                   42774  1 01-SEGCB +BDSNSGLENF   DC  A(0)                Current length
 000020 00000000                   42775  1 01-SEGCB +BDSNSGINDF   DC  A(0)                Overflow/indent count
 000024 00000000                   42776  1 01-SEGCB +BDSNSGERR   DC   A(0)                Address of error recovery routine
 000028 0000000000000000           42777  1 01-SEGCB +           DC    2F'0'               Reserved
 000030 00000000                   42778  1 01-SEGCB +BDSNSGLOC   DC   A(0)                Location of buffer
 000034 00000000                   42779  1 01-SEGCB +BDSNSGRTN   DC   A(0)                Processing routine
 000038 0000000000000000           42780  1 01-SEGCB +           DC    4F'0'               Reserved
 000048 00000000                   42781  1 01-SEGCB +BDSNSGUSR   DC   A(0)                USER field
                                   42782  1 01-SEGCB +BDSNSG     EQU   $$$SEGCB1074,*-$$$SEGCB1074,C'X'
 00004C                            42783  1           BDSNBUF    DS    CL128               Full filename area
 0000CC                000CC 000CC 42784                       END
                                   42793
 008682 50E0 D000/9008_      00000 42794              BUILDDSN PROC  BDSNWA
 USING  *,R7
 USING  BDSNWA-(4+36),R8
1WGS      (WGS2193) (13:01) (15MAR04) Show catalog                                                                          Page  139
0Current Usings:  (*,R7) (BDSNWA-(4+36),R8) (CP,R11) (CV,R12)
0Loc    Object Code    Addr1 Addr2  Stmt Lv Lineno    Source Statement           (Hibal 5, Asmedit 3.3)  HLASM R4.0  2004/03/15 13.01
+___    ______ ____    _____ _____  ____ __ ______    ______ _________
000869C 1831                       42844                       LR    R3,R1
 USING  FILPB,R3                   42845                       WITH  (FILPB,R3)
                                   42858
 00869E D7CB 8028 8028 00000 00000 42859                       CLEAR BDSNWA
 0086A4 50F0 802C            00004 42866                       ST    R15,BDSNESGP        Save error SEGCB ptr
 0086A8 5020 8028            00000 42867                       ST    R2,BDSNERAD         Save ERRID ptr
 0086AC 58E0 7C04/0DEE       092A0 42868                       SEGCLR .(R15)             Reset error SEGCB
                                   42878
 0086B2 D72B 3000 3000 00000 00000 42879                       CLEAR FILPBDSNAME         No dsname yet
 0086B8 D707 302C 302C 0002C 0002C 42886                       CLEAR FILPBDSMEM          No member speified
 0086BE D704 3034 3034 00034 00034 42893                       CLEAR FILPBDSACCT         No account for this dsname yet
                                   42900
 0086C4 4110 8074/4100_      0004C 42901                       SEGINIT BDSNBUF,,BDSNSG
 0086D6 D27F 8074 C4D8 0004C 004D8 42928                       MVC   BDSNBUF,CVBLANKS    Pre-blank filename area
                                   42929
                                   42930                         Check for too many levels of recursion (this could
                                   42931                           happen, for example, if the current filename
                                   42932                           was "*").
                                   42933
 0086DC 41F0 0001/5EF0_      00001 42934                       INCR  R15,FILPBLEVEL      Count nest level
 0086E8 59F0 7C0C/47D0_      092A8 42940                       IF    (R15,GT,3),BEGIN    Nested too deep...
 0086F0 4110 3039/4100_      00039 42957  1                      SEGT  FILPBNAME,,.L:BDSNESGP
 008702 4110 7ABC/4100_      09158 42983  1                      SEG   ': file name can not be resolved.',,.L:BDSNESGP
 008714 D207 8030 7ADC 00008 09178 42998  1                      MVC   BDSNERID,=CL8'ERROR'
 00871A 47F0 7A0C            090A8 42999  1                      B     BDSNERR
 00871E                            43000                       END
                                   43004
                                   43005                         Process USER/GROUP/ACCOUNT overrides.
                                   43006
                                   43007            C          IF    ((FILPBACCOUNT,NZ),AND,
 00871E D605 3144 3144_00144 00144                                   ((FILPBUSER,NZ),OR,(FILPBGROUP,NZ))),BEGIN
 00873C 1B00                       43053  1                      CLEAR R0
                                   43057  1
 00873E D602 3139 3139_00139 00139 43058  1                      IF    (FILPBUSER,NZ),BEGIN
 008748 58F0 802C/58E0_      00004 43074  2                        SEG   (R1),(R0),.L:BDSNESGP
 008752 4110 7D18/4100_      093B4 43095  2                        SEG   'USER=',,.L:BDSNESGP
 008764 4110 3139/4100_      00139 43110  2                        SEGT  FILPBUSER,,.L:BDSNESGP
 008776 4110 7D1D/4100_      093B9 43136  2                        SETMSG ' and '
 00877E                            43140  1                      END
                                   43144  1
 00877E D601 313C 313C_0013C 0013C 43145  1                      IF    (FILPBGROUP,NZ),BEGIN
 008788 58F0 802C/58E0_      00004 43161  2                        SEG   (R1),(R0),.L:BDSNESGP
 008792 4110 7C68/4100_      09304 43182  2                        SEG   'GROUP=',,.L:BDSNESGP
 0087A4 4110 313C/4100_      0013C 43197  2                        SEGT  FILPBGROUP,,.L:BDSNESGP
 0087B6 4110 7D1D/4100_      093B9 43223  2                        SETMSG ' and '
 0087BE                            43227  1                      END
                                   43231  1
 0087BE D605 3144 3144_00144 00144 43232  1                      IF    (FILPBACCOUNT,NZ),BEGIN
 0087C8 58F0 802C/58E0_      00004 43248  2                        SEG   (R1),(R0),.L:BDSNESGP
 0087D2 4110 7AE4/4100_      09180 43269  2                        SEG   'ACCOUNT=',,.L:BDSNESGP
 0087E4 4110 3144/4100_      00144 43284  2                        SEGT  FILPBACCOUNT,,.L:BDSNESGP
 0087F6                            43310  1                      END
                                   43314  1
 0087F6 4110 7AEC/4100_      09188 43315  1                      SEG   ' are mutually exclusive options.',,.L:BDSNESGP
1WGS      (WGS2193) (13:01) (15MAR04) Show catalog                                                                          Page  140
0Current Usings:  (FILPB,R3) (*,R7) (BDSNWA-(4+36),R8) (CP,R11) (CV,R12)
0Loc    Object Code    Addr1 Addr2  Stmt Lv Lineno    Source Statement           (Hibal 5, Asmedit 3.3)  HLASM R4.0  2004/03/15 13.01
+___    ______ ____    _____ _____  ____ __ ______    ______ _________
0008808 D207 8030 7ADC 00008 09178 43330  1                      MVC   BDSNERID,=CL8'ERROR'
 00880E 47F0 7A0C            090A8 43331  1                      B     BDSNERR
 008812                            43332                       END
                                   43336
                                   43337                         Check out ACCOUNT option and convert it to USER and GROUP.
                                   43338
 008812 D605 3144 3144_00144 00144 43339                       IF    (FILPBACCOUNT,NZ),BEGIN  Validate account option...
 00881C 4110 3144/4100_      00144 43355  1                      SETMSG FILPBACCOUNT        Account
 008824 58E0 7C18/0DEE       092B4 43369  1                      VCALL RTRIM
 00882A 5900 7C1C/4770_      092B8 43373  1                      IF    ((R0,EQ,6),AND,(@R1+3,EQ,'$')),BEGIN  uuu$gg...
 00883A D204 D000 3144 00000 00144 43405  2                        MVC   @R13(5),FILPBACCOUNT  Save "uuu$gg"
 008840 D201 3144 D004 00144 00004 43406  2                        MVC   FILPBACCOUNT(2),@R13+4  Convert...
 008846 924B 3146      00146       43407  2                        MVI   FILPBACCOUNT+2,C'.'       to...
 00884A D202 3147 D000 00147 00000 43408  2                        MVC   FILPBACCOUNT+3(3),@R13      gg.uuu
 008850                            43409  1                      END
                                   43413  1
                                   43414  1         C            IF    ((R0,NE,6),OR,
 008850 5900 7C1C/4770_      092B8        1                            ((@R1+2,NE,'.'),AND,(@R1+2,NE,'$'))),BEGIN  Bad...
 008868 4110 7AE4/4100_      09180 43461  2                        SEG   'ACCOUNT=',,.L:BDSNESGP
 00887A 4110 3144/4100_      00144 43476  2                        SEGT  FILPBACCOUNT,,.L:BDSNESGP
 00888C 4110 7C6E/4100_      0930A 43502  2                        SEG   ' is incorrectly specified.',,.L:BDSNESGP
 00889E D207 8030 7ADC 00008 09178 43517  2                        MVC   BDSNERID,=CL8'ERROR'
 0088A4 47F0 7A0C            090A8 43518  2                        B     BDSNERR
 0088A8                            43519  1                      END
                                   43523  1
 0088A8 D201 313C 3144 0013C 00144 43524  1                      MVC   FILPBGROUP,FILPBACCOUNT  Save group
 0088AE D202 3139 3147 00139 00147 43525  1                      MVC   FILPBUSER,FILPBACCOUNT+3  Save user
 0088B4 D705 3144 3144 00144 00144 43526  1                      CLEAR FILPBACCOUNT        Reset account
 0088BA                            43533                       END
                                   43537
                                   43538                         Isolate file name and member name.
                                   43539
 0088BA 4110 3039/4100_      00039 43540                       SETMSG FILPBNAME           Filename
 0088C2 58E0 7C20/0DEE       092BC 43554                       VCALL LRTRIM              Strip blanks
 0088C8 58E0 7C24/0DEE       092C0 43558                       VCALL TOUPPER             Upper case
 0088CE 1861                       43562                       LR    R6,R1
 0088D0 1850                       43563                       LR    R5,R0               R6,R5 = file name loc, len
                                   43564
                                   43565                         Allow quoted names but do no special processing
                                   43566
 0088D2 58E0 7C20/0DEE       092BC 43567                       VCALL LRTRIM
 0088D8 957D 1000/4780_00000       43571                       IF    ((@R1,EQ,''''),OR,(@R1,EQ,'"')),BEGIN
 0088E8 5E10 7C28            092C4 43602  1                      INCR  R1
 0088EC 0600                       43605  1                      DECR  R0
 0088EE 0600                       43607  1                      DECR  R0
 0088F0 58E0 7C20/0DEE       092BC 43609  1                      VCALL LRTRIM
 0088F6 5900 7C2C/4770_      092C8 43613  1                      IF    (R0,EQ,0),BEGIN     If no name, default is lib
 0088FE D27F 3039 7B0C 00039 091A8 43630  2                        MVC   FILPBNAME,=CL(L'FILPBNAME)'LIB '
 008904 4110 3039/4100_      00039 43631  2                        SETMSG FILPBNAME,3
 00890C                            43647  1                      END
 00890C 1861                       43651  1                      LR    R6,R1
 00890E 1850                       43652  1                      LR    R5,R0
 008910                            43653                       END
1WGS      (WGS2193) (13:01) (15MAR04) Show catalog                                                                          Page  141
0Current Usings:  (FILPB,R3) (*,R7) (BDSNWA-(4+36),R8) (CP,R11) (CV,R12)
0Loc    Object Code    Addr1 Addr2  Stmt Lv Lineno    Source Statement           (Hibal 5, Asmedit 3.3)  HLASM R4.0  2004/03/15 13.01
+___    ______ ____    _____ _____  ____ __ ______    ______ _________
0                                  43657
                                   43658                         It's a library, case 1A:  filename(member).
                                   43659
 008910 1826                       43660                       LR    R2,R6
 008912 1A25                       43661                       AR    R2,R5
 008914 0620                       43662                       DECR  R2                  R2 = last char of dsname
 008916 955D 2000/4770_00000       43664                       IF    (@R2,EQ,')'),BEGIN  It's file(member)...
 00891E 0650                       43680  1                      DECR  R5                  Account for ")"
 008920 0620                       43682  1                      DECR  R2                  Back up ptr
 008922 1BFF                       43684  1                      CLEAR R15                 Init member length
                                   43688  1
 008924                            43689  1                      LOOP  BEGIN               Backscan for "("...
 008924 1255/47D0 7A0C             43695  2                        IF    (R5,NP),BDSNERR     Bad dsname format
 00892A 954D 2000/4780_00000       43712  2                        IF    (@R2,EQ,'('),EXIT   Found start of member, scram
 008932 0620                       43731  2                        DECR  R2                  Back up ptr
 008934 0650                       43733  2                        DECR  R5                  Reduce length
 008936 41F0 F001            00001 43735  2                        LA    R15,@R15+1          One more character
 00893A 59F0 7C30/47D0_      092CC 43736  2                        IF    (R15,GT,8),BEGIN    Member name too long...
 008942 4110 3039/4100_      00039 43753  3                          SEGT  FILPBNAME,,.L:BDSNESGP
 008954 4110 7C88/4100_      09324 43779  3                          SEG   ': member name is too long.',,.L:BDSNESGP
 008966 D207 8030 7ADC 00008 09178 43794  3                          MVC   BDSNERID,=CL8'ERROR'
 00896C 47F0 7A0C            090A8 43795  3                          B     BDSNERR
 008970                            43796  2                        END
 008970 47F0 7288            08924 43800  1                      END
                                   43805  1
 008974 0650                       43806  1                      DECR  R5                  Account for "("
                                   43808  1
 008976 D207 302C C4D8 0002C 004D8 43809  1                      MVC   FILPBDSMEM,CVBLANKS  Pre-blank
 00897C 06F0/12FF/4740_            43810  1                      MOVE  R15,FILPBDSMEM,@R2+1  Save member name
                                   43848  1
                                   43849  1                        Its really a GDG name, case 1B:  filename(gdg #).
                                   43850  1
                                   43851  1                      COMMENT                   Check if member is really GDG
 008988 4120 302C            0002C 43852  1                      LA    R2,FILPBDSMEM
                                   43853  1         C            IF    ((@R2,EQ,C'+'),OR,(@R2,EQ,C'-'),OR,
 00898C 954E 2000/4780_00000              1                            (@R2,EQ,'0)')),BEGIN
 0089A6 1850                       43897  2                        LR    R5,R0               If GDG, restore orig len
 0089A8 D707 302C 302C 0002C 0002C 43898  2                        CLEAR FILPBDSMEM
 0089AE                            43905  1                      END
 0089AE                            43909                       END
                                   43913
                                   43914                         It's a library, case 2:  filename#member.
                                   43915
 0089AE 7316/47F0 738C 089AE 0891C 43916                       ELSE  BEGIN               Might be "file#member"...
 0089B2 1816/1805                  43927  1                      SETMSG (R6),(R5)           Complete filename
                                   43939  1
 0089B6 1200/47D0 7332             43940  1                      WHILE (R0,POS),BEGIN      Look for "#"...
 0089BC 957B 1000/4780_00000       43956  2                        IF    (@R1,EQ,'#'),EXIT   Start of member name, scram
 0089C4 4110 1001            00001 43975  2                        LA    R1,@R1+1
 0089C8 0600                       43976  2                        DECR  R0
 0089CA 47F0 731A            089B6 43978  1                      END
                                   43983  1
 0089CE 1200/47D0 738C             43984  1                      IF    (R0,POS),BEGIN      Found a member name...
 0089D4 1851                       43998  2                        LR    R5,R1
1WGS      (WGS2193) (13:01) (15MAR04) Show catalog                                                                          Page  142
0Current Usings:  (FILPB,R3) (*,R7) (BDSNWA-(4+36),R8) (CP,R11) (CV,R12)
0Loc    Object Code    Addr1 Addr2  Stmt Lv Lineno    Source Statement           (Hibal 5, Asmedit 3.3)  HLASM R4.0  2004/03/15 13.01
+___    ______ ____    _____ _____  ____ __ ______    ______ _________
00089D6 1B56                       43999  2                        SR    R5,R6               Calculate length before "#"
                                   44000  2
 0089D8 4110 1001            00001 44001  2                        LA    R1,@R1+1            Skip past "#"
 0089DC 0600                       44002  2                        DECR  R0                  Adjust remaining length
                                   44004  2
 0089DE 5900 7C30/47D0_      092CC 44005  2                        IF    (R0,GT,8),BEGIN     Member name too long...
 0089E6 4110 3039/4100_      00039 44022  3                          SEGT  FILPBNAME,,.L:BDSNESGP
 0089F8 4110 7C88/4100_      09324 44048  3                          SEG   ': member name is too long.',,.L:BDSNESGP
 008A0A D207 8030 7ADC 00008 09178 44063  3                          MVC   BDSNERID,=CL8'ERROR'
 008A10 47F0 7A0C            090A8 44064  3                          B     BDSNERR
 008A14                            44065  2                        END
                                   44069  2
 008A14 D207 302C C4D8 0002C 004D8 44070  2                        MVC   FILPBDSMEM,CVBLANKS  Pre-blank
 008A1A 18F0                       44071  2                        LR    R15,R0
 008A1C 06F0/12FF/4740_            44072  2                        MOVE  R15,FILPBDSMEM,@R1  Save member name
 008A28                            44110  1                      END
 008A28                            44114                       END
                                   44118
                                   44119                         Handle "$filename" fully qualified dsnames.
                                   44120
 008A28 955B 6000/4770_00000       44121                       IF    (@R6,EQ,'$'),BEGIN  $-style...
 008A30 D602 3139 3139_00139 00139 44137  1                      IF    ((FILPBUSER,NZ),OR,(FILPBGROUP,NZ)),BEGIN
 008A44 4110 7B8C/4100_      09228 44168  2                        SEG   'ACCOUNT/USER/GROUP override not ',,.L:BDSNESGP
 008A56 4110 7CA4/4100_      09340 44183  2                        SEG   'allowed with $ file names.',,.L:BDSNESGP
 008A68 D207 8030 7ADC 00008 09178 44198  2                        MVC   BDSNERID,=CL8'ERROR'
 008A6E 47F0 7A0C            090A8 44199  2                        B     BDSNERR
 008A72                            44200  1                      END
 008A72 4160 6001            00001 44204  1                      LA    R6,@R6+1
 008A76 0650                       44205  1                      DECR  R5
 008A78 1816/1805/41F0_            44207  1                      SEG   (R6),(R5)           Full dsname
 008A86 47F0 798A            09026 44232  1                      B     BDSNCHK             All done
 008A8A                            44233                       END
                                   44237
                                   44238                         Process "&uuu." and "@gg." prefixes (in any order).
                                   44239
 008A8A 1255/47D0 7560_            44240                       WHILE ((R5,POS),AND,((@R6,EQ,'&&'),OR,(@R6,EQ,'@'))),BEGIN
                                   44286  1
                                   44287  1                        Handle "&.filename" or "&uuu.filename".
                                   44288  1
 008AA2 D500 7D22 6000_093BE 00000 44289  1                      IF    (@R6,EQ,'&&'),BEGIN  Starts with ampersand...
 008AAC 5950 7C34/4750_      092D0 44305  2                        IF    ((R5,GE,2),AND,(@R6+1,EQ,'.')),BEGIN  &.file...
 008ABC D202 3139 B3B4 00139 003B4 44337  3                          MVC   FILPBUSER,CPSUSER   Use requestor's user code
 008AC2 4160 6002            00002 44338  3                          LA    R6,@R6+2
 008AC6 4B50 7CBE            0935A 44339  3                          SH    R5,=H'2'
 008ACA                            44340  2                        END
                                   44344  2
 008ACA 7432/7432/47F0_08ACA 08AB2 44345  2                        ELSEIF ((R5,GE,5),AND,(@R6+4,EQ,'.')),BEGIN  &uuu.file...
 008ADE D202 3139 6001 00139 00001 44388  3                          MVC   FILPBUSER,@R6+1     Save userid
 008AE4 4160 6005            00005 44389  3                          LA    R6,@R6+5            Skip past "&uuu"
 008AE8 4B50 7CC0            0935C 44390  3                          SH    R5,=H'5'            Adjust length
 008AEC                            44391  2                        END
                                   44395  2
 008AEC 7454/7454/47F0_08AEC 08AD4 44396  2                        ELSEIF (R5,EQ,1),BEGIN    &...
 008AF8 D202 3139 B3B4 00139 003B4 44424  3                          MVC   FILPBUSER,CPSUSER   Use requestor's user code
1WGS      (WGS2193) (13:01) (15MAR04) Show catalog                                                                          Page  143
0Current Usings:  (FILPB,R3) (*,R7) (BDSNWA-(4+36),R8) (CP,R11) (CV,R12)
0Loc    Object Code    Addr1 Addr2  Stmt Lv Lineno    Source Statement           (Hibal 5, Asmedit 3.3)  HLASM R4.0  2004/03/15 13.01
+___    ______ ____    _____ _____  ____ __ ______    ______ _________
0008AFE 4160 6001            00001 44425  3                          LA    R6,@R6+1            Skip past "&"
 008B02 0650                       44426  3                          DECR  R5                  Adjust length
 008B04                            44428  2                        END
                                   44432  2
 008B04 746C/47F0 7482_08B04 08AF6 44433  2                        ELSEIF (R5,EQ,4),BEGIN    &uuu...
 008B10 D202 3139 6001 00139 00001 44459  3                          MVC   FILPBUSER,@R6+1     Save userid
 008B16 4160 6004            00004 44460  3                          LA    R6,@R6+4            Skip past "&uuu"
 008B1A 4B50 7CC2            0935E 44461  3                          SH    R5,=H'4'            Adjust length
 008B1E                            44462  2                        END
                                   44466  2
 008B1E 7486/47F0 74B0 08B1E 08B0E 44467  2                        ELSE  BEGIN               Bad format file name...
 008B22 1816/1805/58F0_            44478  3                          SEG   (R6),(R5),.L:BDSNESGP
 008B30 4110 7D23/4100_      093BF 44501  3                          SEG   ': invalid user.',,.L:BDSNESGP
 008B42 D207 8030 7BAC 00008 09248 44516  3                          MVC   BDSNERID,=CL8'INVUSER'
 008B48 47F0 7A0C            090A8 44517  3                          B     BDSNERR
 008B4C                            44518  2                        END
 008B4C                            44522  1                      END
                                   44526  1
                                   44527  1                        Handle "@.filename" or "@gg.filename".
                                   44528  1
 008B4C 74B4/47F0 755C_08B4C 08AAA 44529  1                      ELSEIF (@R6,EQ,'@'),BEGIN  Starts with at-sign...
 008B58 5950 7C34/4750_      092D0 44554  2                        IF    ((R5,GE,2),AND,(@R6+1,EQ,'.')),BEGIN  @.file...
 008B68 D201 313C B3B7 0013C 003B7 44586  3                          MVC   FILPBGROUP,CPSGRP   Use requestor's group code
 008B6E 4160 6002            00002 44587  3                          LA    R6,@R6+2
 008B72 4B50 7CBE            0935A 44588  3                          SH    R5,=H'2'
 008B76                            44589  2                        END
                                   44593  2
 008B76 74DE/74DE/47F0_08B76 08B5E 44594  2                        ELSEIF ((R5,GE,2),AND,(@R6+3,EQ,'.')),BEGIN  @gg.file...
 008B8A D201 313C 6001 0013C 00001 44637  3                          MVC   FILPBGROUP,@R6+1    Save group
 008B90 4160 6004            00004 44638  3                          LA    R6,@R6+4            Skip past "@gg"
 008B94 4B50 7CC2            0935E 44639  3                          SH    R5,=H'4'            Adjust length
 008B98                            44640  2                        END
                                   44644  2
 008B98 7500/7500/47F0_08B98 08B80 44645  2                        ELSEIF (R5,EQ,1),BEGIN    @...
 008BA4 D201 313C B3B7 0013C 003B7 44673  3                          MVC   FILPBGROUP,CPSGRP   Use requestor's group
 008BAA 4160 6001            00001 44674  3                          LA    R6,@R6+1            Skip past "@"
 008BAE 0650                       44675  3                          DECR  R5                  Adjust length
 008BB0                            44677  2                        END
                                   44681  2
 008BB0 7518/47F0 752E_08BB0 08BA2 44682  2                        ELSEIF (R5,EQ,3),BEGIN    @gg...
 008BBC D201 313C 6001 0013C 00001 44708  3                          MVC   FILPBGROUP,@R6+1    Save group
 008BC2 4160 6003            00003 44709  3                          LA    R6,@R6+3            Skip past "@gg"
 008BC6 4B50 7CC4            09360 44710  3                          SH    R5,=H'3'            Adjust length
 008BCA                            44711  2                        END
                                   44715  2
 008BCA 7532/47F0 755C 08BCA 08BBA 44716  2                        ELSE  BEGIN               Bad format file name...
 008BCE 1816/1805/58F0_            44727  3                          SEG   (R6),(R5),.L:BDSNESGP
 008BDC 4110 7BB4/4100_      09250 44750  3                          SEG   ': invalid group.',,.L:BDSNESGP
 008BEE D207 8030 7BC4 00008 09260 44765  3                          MVC   BDSNERID,=CL8'INVGRP'
 008BF4 47F0 7A0C            090A8 44766  3                          B     BDSNERR
 008BF8                            44767  2                        END
 008BF8                            44771  1                      END
 008BF8 47F0 73EE            08A8A 44775                       END
1WGS      (WGS2193) (13:01) (15MAR04) Show catalog                                                                          Page  144
0Current Usings:  (FILPB,R3) (*,R7) (BDSNWA-(4+36),R8) (CP,R11) (CV,R12)
0Loc    Object Code    Addr1 Addr2  Stmt Lv Lineno    Source Statement           (Hibal 5, Asmedit 3.3)  HLASM R4.0  2004/03/15 13.01
+___    ______ ____    _____ _____  ____ __ ______    ______ _________
0                                  44780
                                   44781                         Handle resolving "*" member name specification.
                                   44782                           This is done by expanding CNAME (a recursive call
                                   44783                           to BUILDDSN) and then saving the member name.
                                   44784
 008BFC D501 7CC6 302C_09362 0002C 44785                       IF    (FILPBDSMEM,EQ,'* '),BEGIN  Expand * member...
 008C06 D707 302C 302C 0002C 0002C 44802  1                      CLEAR FILPBDSMEM          Reset member name
                                   44809  1
 008C0C D67F 30B9 30B9_000B9 000B9 44810  1                      IF    (FILPBCNAME,NZ),BEGIN  We have a current name...
 008C16 184D/41D0 D1DC             44826  2                        XPUSH ,,L'XFILPB,PTR=R4   Make a new FILPB
 USING  XFILPB,R4                  44829  2                        WITH  (XFILPB,R4),BEGIN
 008C1C 18E4/41F0 01DC_            44843  3                          MOVEL XFILPB,FILPB,L'FILPB  Initialize it with our FILPB
 008C28 D27F 4039 30B9 00039 000B9 44867  3                          MVC   XFILPBNAME,FILPBCNAME  Set name to resolve
 008C2E 4110 4000            00000 44868  3                          LA    R1,XFILPB           File parameters
 008C32 58F0 802C            00004 44869  3                          L     R15,BDSNESGP        Pass our error SEGCB ptr
 008C36 58E0 7C40/0DEE       092DC 44870  3                          ACALL BUILDDSN            Expand current dsname
 008C3C 4770 7AAC            09148 44874  3                          BNZ   BDSNEXIT            Nested error, scram
 008C40 D207 302C 402C 0002C 0002C 44875  3                          MVC   FILPBDSMEM,XFILPBDSMEM  Save current member name
 DROP   XFILPB,R4                  44876  2                        END
 008C46 4BD0 7CC8            09364 44884  2                        XPOP  ,,L'XFILPB
 008C4A                            44886  1                      END
                                   44890  1
 008C4A D607 302C 302C_0002C 0002C 44891  1                      IF    (FILPBDSMEM,Z),BEGIN  No member name...
 008C54 4110 3039/4100_      00039 44907  2                        SEGT  FILPBNAME,,.L:BDSNESGP
 008C66 4110 7CCA/4100_      09366 44933  2                        SEG   ': illegal, no current member name.',,.L:BDSNESGP
 008C78 D207 8030 7BCC 00008 09268 44948  2                        MVC   BDSNERID,=CL8'NOSTAR'
 008C7E 47F0 7A0C            090A8 44949  2                        B     BDSNERR
 008C82                            44950  1                      END
 008C82                            44954                       END
                                   44958
                                   44959                         Add default library if member specified with no file name.
                                   44960
 008C82 1255/4770 764C_            44961                       IF    ((R5,Z),AND,(FILPBDSMEM,NZ)),BEGIN  Mem w/no lib...
 008C92 184D/41D0 D1DC             44990  1                      XPUSH ,,L'XFILPB,PTR=R4   Make a new FILPB
 USING  XFILPB,R4                  44993  1                      WITH  (XFILPB,R4),BEGIN
 008C98 18E4/41F0 01DC_            45007  2                        MOVEL XFILPB,FILPB,L'FILPB  Initialize with our FILPB
 008CA4 D27F 4039 3155 00039 00155 45031  2                        MVC   XFILPBNAME,FILPBSETLIB  Set name to resolve
 008CAA D67F 4039 4039_00039 00039 45032  2                        IF    (XFILPBNAME,Z),BEGIN If no default lib
 008CB4 D27F 4039 C4D8 00039 004D8 45048  3                          MVC   XFILPBNAME,CVBLANKS  Default lib to LIB
 008CBA D202 4039 7D32 00039 093CE 45049  3                          MVC   XFILPBNAME(3),=CL3'LIB'
 008CC0                            45050  2                        END
 008CC0 4110 4000            00000 45054  2                        LA    R1,XFILPB           File parameters
 008CC4 58F0 802C            00004 45055  2                        L     R15,BDSNESGP        Pass our error SEGCB ptr
 008CC8 58E0 7C40/0DEE       092DC 45056  2                        ACALL BUILDDSN            Expand library prefix
 008CCE 4770 7AAC            09148 45060  2                        BNZ   BDSNEXIT            Nested error, scram
 008CD2 D22B 3000 4000 00000 00000 45061  2                        MVC   FILPBDSNAME,XFILPBDSNAME  Save full library name
 008CD8 D204 3034 4034 00034 00034 45062  2                        MVC   FILPBDSACCT,XFILPBDSACCT  Copy ownership account too
 DROP   XFILPB,R4                  45063  1                      END
 008CDE 4BD0 7CC8            09364 45071  1                      XPOP  ,,L'XFILPB
                                   45073  1
 008CE2 1BFF                       45074  1                      CLEAR R15                 All done
 008CE4 47F0 7AAC            09148 45078  1                      B     BDSNEXIT            Scram
 008CE8                            45079                       END
1WGS      (WGS2193) (13:01) (15MAR04) Show catalog                                                                          Page  145
0Current Usings:  (FILPB,R3) (*,R7) (BDSNWA-(4+36),R8) (CP,R11) (CV,R12)
0Loc    Object Code    Addr1 Addr2  Stmt Lv Lineno    Source Statement           (Hibal 5, Asmedit 3.3)  HLASM R4.0  2004/03/15 13.01
+___    ______ ____    _____ _____  ____ __ ______    ______ _________
0                                  45083
                                   45084                         Handle resolving "*" file name.
                                   45085                           We expand CNAME with a recursive call to BUILDDSN
                                   45086                           and then exit.
                                   45087
 008CE8 1255/47D0 771C_            45088                       IF    ((R5,POS),AND,(@R6,EQ,'*')),BEGIN  * file name...
 008CF6 5950 7C28/47D0_      092C4 45117  1                      IF    (R5,GT,1),BEGIN
 008CFE 4110 3039/4100_      00039 45134  2                        SEGT  FILPBNAME,,.L:BDSNESGP
 008D10 4110 7D35/4100_      093D1 45160  2                        SEG   ': invalid characters in dsname.',,.L:BDSNESGP
 008D22 D207 8030 7BD4 00008 09270 45175  2                        MVC   BDSNERID,=CL8'STARBAD'
 008D28 47F0 7A0C            090A8 45176  2                        B     BDSNERR
 008D2C                            45177  1                      END
 008D2C D67F 30B9 30B9_000B9 000B9 45181  1                      IF    (FILPBCNAME,Z),BEGIN  No current filename...
 008D36 4110 3039/4100_      00039 45197  2                        SEGT  FILPBNAME,,.L:BDSNESGP
 008D48 4110 7BDC/4100_      09278 45223  2                        SEG   ': illegal, no current file name.',,.L:BDSNESGP
 008D5A D207 8030 7BCC 00008 09268 45238  2                        MVC   BDSNERID,=CL8'NOSTAR'
 008D60 47F0 7A0C            090A8 45239  2                        B     BDSNERR
 008D64                            45240  1                      END
                                   45244  1
 008D64 184D/41D0 D1DC             45245  1                      XPUSH ,,L'XFILPB,PTR=R4   Make a new FILPB
 USING  XFILPB,R4                  45248  1                      WITH  (XFILPB,R4),BEGIN
 008D6A 18E4/41F0 01DC_            45262  2                        MOVEL XFILPB,FILPB,L'FILPB  Initialize it with our FILPB
 008D76 D27F 4039 30B9 00039 000B9 45286  2                        MVC   XFILPBNAME,FILPBCNAME  Set name to resolve
 008D7C 4110 4000            00000 45287  2                        LA    R1,XFILPB           File parameters
 008D80 58F0 802C            00004 45288  2                        L     R15,BDSNESGP        Pass our error SEGCB ptr
 008D84 4120 8030            00008 45289  2                        LA    R2,BDSNERID          and our ERRID pointer
 008D88 58E0 7C40/0DEE       092DC 45290  2                        ACALL BUILDDSN            Expand library prefix
 008D8E 4770 7AAC            09148 45294  2                        BNZ   BDSNEXIT            Nested error, scram
                                   45295  2
 008D92 D22B 3000 4000 00000 00000 45296  2                        MVC   FILPBDSNAME,XFILPBDSNAME  Save expanded dsname
 008D98 D204 3034 4034 00034 00034 45297  2                        MVC   FILPBDSACCT,XFILPBDSACCT  Save ownership account too
 008D9E D607 302C 302C_0002C 0002C 45298  2                        IF    (FILPBDSMEM,Z),BEGIN      If not *#member
 008DA8 D207 302C 402C 0002C 0002C 45314  3                          MVC   FILPBDSMEM,XFILPBDSMEM    Save current member name
 008DAE                            45315  2                        END
 DROP   XFILPB,R4                  45319  1                      END
 008DAE 4BD0 7CC8            09364 45327  1                      XPOP  ,,L'XFILPB
                                   45329  1
 008DB2 1BFF                       45330  1                      CLEAR R15                 All done
 008DB4 47F0 7AAC            09148 45334  1                      B     BDSNEXIT            Scram
 008DB8                            45335                       END
                                   45339
                                   45340                         Check for "WYL.gg.uuu.<anything>" filenames.
                                   45341
 008DB8 5950 7C44/47D0_      092E0 45342                       IF    ((R5,GT,11),AND,(@R6,EQ,'WYL.')),BEGIN
 008DCA 954B 6003/4770_00003       45374  1                      IF    (@R6+3,NE,'.'),EXIT
 008DD2 954B 6006/4770_00006       45393  1                      IF    (@R6+6,NE,'.'),EXIT
 008DDA 954B 600A/4770_0000A       45412  1                      IF    (@R6+10,NE,'.'),EXIT
                                   45431  1                      COMMENT                   Specified user/grp override
 008DE2 D601 313C 313C_0013C 0013C 45432  1                      IF    (FILPBGROUP,NZ),'MVC @R6+4(2),FILPBGROUP'
 008DF2 D602 3139 3139_00139 00139 45454  1                      IF    (FILPBUSER,NZ),'MVC @R6+7(3),FILPBUSER'
 008E02 1816/1805/41F0_            45476  1                      SEG   (R6),(R5)           Full dsname
 008E10 47F0 798A            09026 45501  1                      B     BDSNCHK
 008E14                            45502                       END
1WGS      (WGS2193) (13:01) (15MAR04) Show catalog                                                                          Page  146
0Current Usings:  (FILPB,R3) (*,R7) (BDSNWA-(4+36),R8) (CP,R11) (CV,R12)
0Loc    Object Code    Addr1 Addr2  Stmt Lv Lineno    Source Statement           (Hibal 5, Asmedit 3.3)  HLASM R4.0  2004/03/15 13.01
+___    ______ ____    _____ _____  ____ __ ______    ______ _________
0                                  45506
                                   45507                         Check for "gg$uuu.<anything>" filenames.
                                   45508
 008E14 5950 7C4C/47D0_      092E8 45509                       IF    ((R5,GT,7),AND,(@R6+2,EQ,'$')),BEGIN
 008E24 954B 6006/4770_00006       45541  1                      IF    (@R6+6,NE,'.'),EXIT
                                   45560  1                      COMMENT                   Specified user/grp override
 008E2C D601 313C 313C_0013C 0013C 45561  1                      IF    (FILPBGROUP,NZ),'MVC @R6(2),FILPBGROUP'
 008E3C D602 3139 3139_00139 00139 45583  1                      IF    (FILPBUSER,NZ),'MVC @R6+3(3),FILPBUSER'
 008E4C 1816/1805/41F0_            45605  1                      SEG   (R6),(R5)           Full dsname
 008E5A 47F0 798A            09026 45630  1                      B     BDSNCHK
 008E5E                            45631                       END
                                   45635
                                   45636                         Check for "SYSn.<anything>" filenames.
                                   45637
 008E5E 5950 7C38/47D0_      092D4 45638                       IF    ((R5,GT,5),AND,(@R6,EQ,'SYS')),BEGIN
 008E70 95F0 6003/4740_00003       45670  1                      IF    ((@R6+3,LT,'0'),OR,(@R6+3,GT,'9')),EXIT
 008E80 954B 6004/4770_00004       45704  1                      IF    (@R6+4,NE,'.'),EXIT
 008E88 1816/1805/41F0_            45723  1                      SEG   (R6),(R5)           Full dsname
 008E96 47F0 798A            09026 45748  1                      B     BDSNCHK
 008E9A                            45749                       END
                                   45753
                                   45754                         If Type=Wylbur means "WYL.gg.uuu.filename".
                                   45755
 008E9A 9501 31D5/4770_001D5       45756                       IF    FILPBFTYPWYL,BEGIN  Wylbur format...
 008EA2 4110 7C48/4100_      092E4 45771  1                      SEG   'WYL.'
                                   45788  1
 008EB4 4110 313C/4100_      0013C 45789  1                      SETMSG FILPBGROUP          Group override
 008EBC D601 313C 313C_0013C 0013C 45803  1                      IF    (FILPBGROUP,Z),BEGIN
 008EC6 4110 314D/4100_      0014D 45819  2                        SETMSG FILPBSETGROUP       Default group
 008ECE D601 314D 314D_0014D 0014D 45833  2                        IF    (FILPBSETGROUP,Z),'SETMSG CPSGRP'
 008EE0                            45868  1                      END
 008EE0 41F0 8038/58E0_      00010 45872  1                      SEG   (R1),(R0)
 008EEA 4110 7D57/4100_      093F3 45895  1                      SEG   '.'
                                   45912  1
 008EFC 4110 3139/4100_      00139 45913  1                      SETMSG FILPBUSER           User override
 008F04 D602 3139 3139_00139 00139 45927  1                      IF    (FILPBUSER,Z),BEGIN
 008F0E 4110 314A/4100_      0014A 45943  2                        SETMSG FILPBSETUSER        Default user
 008F16 D602 314A 314A_0014A 0014A 45957  2                        IF    (FILPBSETUSER,Z),'SETMSG CPSUSER'
 008F28                            45992  1                      END
 008F28 41F0 8038/58E0_      00010 45996  1                      SEG   (R1),(R0)
 008F32 4110 7D57/4100_      093F3 46019  1                      SEG   '.'
                                   46036  1
 008F44 1816/1805/41F0_            46037  1                      SEG   (R6),(R5)
 008F52 47F0 798A            09026 46062  1                      B     BDSNCHK
 008F56                            46063                       END
                                   46067
                                   46068                         If Type=TSO means "gg$uuu.filename".
                                   46069
 008F56 9502 31D5/4770_001D5       46070                       IF    FILPBFTYPTSO,BEGIN  TSO format...
 008F5E 4110 313C/4100_      0013C 46085  1                      SETMSG FILPBGROUP          Group override
 008F66 D601 313C 313C_0013C 0013C 46099  1                      IF    (FILPBGROUP,Z),BEGIN
 008F70 4110 314D/4100_      0014D 46115  2                        SETMSG FILPBSETGROUP       Default group
 008F78 D601 314D 314D_0014D 0014D 46129  2                        IF    (FILPBSETGROUP,Z),'SETMSG CPSGRP'
 008F8A                            46164  1                      END
1WGS      (WGS2193) (13:01) (15MAR04) Show catalog                                                                          Page  147
0Current Usings:  (FILPB,R3) (*,R7) (BDSNWA-(4+36),R8) (CP,R11) (CV,R12)
0Loc    Object Code    Addr1 Addr2  Stmt Lv Lineno    Source Statement           (Hibal 5, Asmedit 3.3)  HLASM R4.0  2004/03/15 13.01
+___    ______ ____    _____ _____  ____ __ ______    ______ _________
0008F8A 41F0 8038/58E0_      00010 46168  1                      SEG   (R1),(R0)
 008F94 4110 7D58/4100_      093F4 46191  1                      SEG   '$'
 008FA6 4110 3139/4100_      00139 46208  1                      SETMSG FILPBUSER           User override
 008FAE D602 3139 3139_00139 00139 46222  1                      IF    (FILPBUSER,Z),BEGIN
 008FB8 4110 314A/4100_      0014A 46238  2                        SETMSG FILPBSETUSER        Default user
 008FC0 D602 314A 314A_0014A 0014A 46252  2                        IF    (FILPBSETUSER,Z),'SETMSG CPSUSER'
 008FD2                            46287  1                      END
 008FD2 41F0 8038/58E0_      00010 46291  1                      SEG   (R1),(R0)
 008FDC 4110 7D57/4100_      093F3 46314  1                      SEG   '.'
                                   46331  1
 008FEE 1816/1805/41F0_            46332  1                      SEG   (R6),(R5)
 008FFC 47F0 798A            09026 46357  1                      B     BDSNCHK
 009000                            46358                       END
                                   46362
                                   46363                         If Type=EXACT then don't change it at all.
                                   46364
 009000 9503 31D5/4770_001D5       46365                       IF    FILPBFTYPEXACT,BEGIN  Exact format...
 009008 1816/1805/41F0_            46380  1                      SEG   (R6),(R5)
 009016 47F0 7A5E            090FA 46405  1                      B     BDSNOK
 00901A                            46406                       END
                                   46410
                                   46411                         Unknown file type.
                                   46412
 00901A 4110 7CEC/4100_      09388 46413                       SETMSG 'Unknown file type (expecting TYPE=WYLBUR).'
 009022 47F0 7A0C            090A8 46417                       B     BDSNERR
                                   46418
                                   46419                         Do final data set name cleanup and checking.
                                   46420
 009026 D507 302C C4D8_0002C 004D8 46421              BDSNCHK  IF    (FILPBDSMEM,EQ,CVBLANKS),'CLEAR FILPBDSMEM'
                                   46452
 009036 4110 8074/4100_      0004C 46453                       SETMSG BDSNBUF             Dsname
 00903E 58E0 7C18/0DEE       092B4 46467                       VCALL RTRIM               Trim trailing blanks
 009044 58E0 7C24/0DEE       092C0 46471                       VCALL TOUPPER             Convert to upper case
 00904A 5820 8044            0001C 46475                       L     R2,BDSNSGLENF
 00904E 4B20 7D16            093B2 46476                       SH    R2,=AL2(L'FILPBDSNAME)  Too long?
 009052 47D0 7A08            090A4 46477                       IF    POS,BEGIN           Yes...
 009056 4110 3039/4100_      00039 46488  1                      SEGT  FILPBNAME,,.L:BDSNESGP
 009068 4110 7D59/4100_      093F5 46514  1                      SEG   ': file name is ',,.L:BDSNESGP
 00907A 1812/1B00/58F0_            46529  1                      SEGDC (R2),,.L:BDSNESGP
 009088 4110 7D68/4100_      09404 46548  1                      SEG   ' characters too long.',,.L:BDSNESGP
 00909A D207 8030 7ADC 00008 09178 46563  1                      MVC   BDSNERID,=CL8'ERROR'
 0090A0 47F0 7A0C            090A8 46564  1                      B     BDSNERR
 0090A4                            46565                       END
 0090A4 47F0 7A5E            090FA 46569                       B     BDSNOK              All done
                                   46570
                                   46571                         Error return.
                                   46572
 0090A8 5850 802C            00004 46573              BDSNERR  L     R5,BDSNESGP
 USING  SEGCB,R5                   46574                       WITH  (SEGCB,R5),BEGIN
 0090AC D603 500C 500C_0000C 0000C 46588  1                      IF    (SEGCBLENF,Z),BEGIN  Generic error message...
 0090B6 4110 3039/4100_      00039 46604  2                        SEGT  FILPBNAME,,.SEGCB
 0090C6 4110 7C54/4100_      092F0 46632  2                        SEG   ': illegal file name.',,.SEGCB
 0090D6 D207 8030 7BFC 00008 09298 46649  2                        MVC   BDSNERID,=CL8'INVDSN'
 0090DC                            46650  1                      END
1WGS      (WGS2193) (13:01) (15MAR04) Show catalog                                                                          Page  148
0Current Usings:  (FILPB,R3) (SEGCB,R5) (*,R7) (BDSNWA-(4+36),R8) (CP,R11) (CV,R12)
0Loc    Object Code    Addr1 Addr2  Stmt Lv Lineno    Source Statement           (Hibal 5, Asmedit 3.3)  HLASM R4.0  2004/03/15 13.01
+___    ______ ____    _____ _____  ____ __ ______    ______ _________
0                                  46654  1
 0090DC 5810 5020/5800_      00020 46655  1                      SETMSG L:SEGCBLOC,L:SEGCBLENF  Error message
 DROP   SEGCB,R5                   46667                       END
                                   46675
 0090E4 58F0 8028            00000 46676                       L     R15,BDSNERAD
 0090E8 D207 F000 8030 00000 00008 46677                       MVC   0(8,R15),BDSNERID
 0090EE 9001 8004            00004 46678                       PRETURN (R0,R1)
 0090F2 41F0 0004            00004 46680                       LA    R15,4
 0090F6 47F0 7AAC            09148 46681                       B     BDSNEXIT
                                   46682
                                   46683                         Normal return.
                                   46684
 0090FA D22B 3000 8074 00000 0004C 46685              BDSNOK   MVC   FILPBDSNAME,BDSNBUF  Return full dsname
                                   46686
                                   46687                         Save owner's account for this file name.
                                   46688                           This means picking the "uuugg" out of a
                                   46689                           file name of the forms:
                                   46690                              . WYL.gg.uuu.FILENAME
                                   46691                              . gg$uuu.FILENAME
                                   46692
                                   46693            C          IF    ((FILPBDSNAME,EQ,'WYL.'),AND,
                                                    C                (FILPBDSNAME+3,EQ,'.'),AND,
 009100 D503 7C48 3000_092E4 00000                                   (FILPBDSNAME+10,EQ,'.')),BEGIN
 00911A D202 3034 3007 00034 00007 46740  1                      MVC   FILPBDSACCT(3),FILPBDSNAME+7  uuu
 009120 D201 3037 3004 00037 00004 46741  1                      MVC   FILPBDSACCT+3(2),FILPBDSNAME+4  gg
 009126                            46742                       END
                                   46746
                                   46747            C          ELSEIF ((FILPBDSNAME+2,EQ,'$'),AND,
 009126 7A8E/7A8E/7A8E_09126 09108                                   (FILPBDSNAME+6,EQ,'.')),BEGIN
 00913A D202 3034 3003 00034 00003 46793  1                      MVC   FILPBDSACCT(3),FILPBDSNAME+3  uuu
 009140 D201 3037 3000 00037 00000 46794  1                      MVC   FILPBDSACCT+3(2),FILPBDSNAME  gg
 009146                            46795                       END
                                   46799
 009146 1BFF                       46800                       CLEAR R15                 A-ok
 009148 18D8/9808 D004_            46804              BDSNEXIT PEND
 DROP   FILPB,R3
 DROP   BDSNWA-(4+36),R8
 DROP   *,R7
                                   46835
                                   46836                       SEGDEF DUMMY              (Neatness)
                                   46837
                                   46838                       QLTORG
1WGS      (WGS2193) (13:01) (15MAR04) Show catalog                                                                          Page  149
0Current Usings:  (CP,R11) (CV,R12)
0Loc    Object Code    Addr1 Addr2  Stmt Lv Lineno    Source Statement           (Hibal 5, Asmedit 3.3)  HLASM R4.0  2004/03/15 13.01
+___    ______ ____    _____ _____  ____ __ ______    ______ _________
0                                  46910
                                   46911
                                   46912                CHECKDSN -- Routine to check that the file name conforms
                                   46913                  to the OS data set name conventions.
                                   46914
                                   46915                    On entry:
                                   46916                      R1  - FILPB ptr
                                   46917                      R15 - Error message SEGCB ptr
                                   46918
                                   46919                    On exit, R15 (and CC):
                                   46920                      0 = ok
                                   46921                      nz= error, R1,R0 = error message loc, len
                                   46922

0000000                00000 00008 46923              CDSNWA   RECORD BEGIN
 000000                            46931  1           CDSNESGP   DS    A                   Error SEGCB ptr
 000004                            46932  1           CDSNTYPE   DS    F                   Max TRT value for valid dsn chars
 000008                00008 00008 46933                       END
                                   46942
 009426 50E0 D000/9008_      00000 46943              CHECKDSN PROC  CDSNWA
 USING  *,R7
 USING  CDSNWA-(4+36),R8
 009440 1831                       46993                       LR    R3,R1
 USING  FILPB,R3                   46994                       WITH  (FILPB,R3)
                                   47007
 009442 50F0 8028            00000 47008                       ST    R15,CDSNESGP        Error SEGCB ptr
 009446 58E0 72F0/0DEE       09730 47009                       SEGCLR .(R15)             Reset error SEGCB
                                   47019
 00944C 4110 3000/4100_      00000 47020                       SETMSG FILPBDSNAME         File name
 009454 58E0 72F4/0DEE       09734 47034                       VCALL RTRIM               Trim trailing blanks
                                   47038
                                   47039                         Check for null file name.
                                   47040
 00945A 1861                       47041                       LR    R6,R1
 00945C 1250                       47042                       LTR   R5,R0
 00945E 4720 7038            09478 47043                       IF    NP,BEGIN            Null filename...
 009462 4110 7344/4100_      09784 47054  1                      SEG   'Null file name is not allowed.',,.L:CDSNESGP
 009474 47F0 72C8            09708 47069  1                      B     CDSNERR
 009478                            47070                       END
                                   47074
                                   47075                         Check file name character by character.
                                   47076
 009478 4140 0008            00008 47077                       LA    R4,8                Max no. of chars per level
 00947C D203 802C 72FC 00004 0973C 47078                       MVC   CDSNTYPE,=A(2)      Allow dot, alpha, or national
 009482 1255/47D0 72C4             47079                       WHILE (R5,POS),BEGIN
 009488 1F22/4320 6000             47095  1                      LC    R2,@R6              Get char
 00948E 1F00/4302 7413             47102  1                      LC    R0,DSNCHR(R2)       Get char type
                                   47107  1
                                   47108  1                      COMMENT                   IF '.',
 009494 954B 6000/4770_00000       47109  1                      IF    (@R6,EQ,'.'),BEGIN
 00949C 5940 7300/4750_      09740 47125  2                        IF    (R4,GE,8),BEGIN     Another dot...
 0094A4 4110 3000/4100_      00000 47142  3                          SEGT  FILPBDSNAME,,.L:CDSNESGP
 0094B6 4110 7362/4100_      097A2 47168  3                          SEG   ': illegal file name',,.L:CDSNESGP
1WGS      (WGS2193) (13:01) (15MAR04) Show catalog                                                                          Page  150
0Current Usings:  (FILPB,R3) (*,R7) (CDSNWA-(4+36),R8) (CP,R11) (CV,R12)
0Loc    Object Code    Addr1 Addr2  Stmt Lv Lineno    Source Statement           (Hibal 5, Asmedit 3.3)  HLASM R4.0  2004/03/15 13.01
+___    ______ ____    _____ _____  ____ __ ______    ______ _________
00094C8 4110 7375/4100_      097B5 47183  3                          SEG   ' (file name has two dots together).',,.L:CDSNESGP
 0094DA 47F0 72C8            09708 47198  3                          B     CDSNERR
 0094DE                            47199  2                        END
 0094DE 5950 7308/4770_      09748 47203  2                        IF    (R5,EQ,1),BEGIN     Ends with a dot...
 0094E6 4110 3000/4100_      00000 47220  3                          SEGT  FILPBDSNAME,,.L:CDSNESGP
 0094F8 4110 7362/4100_      097A2 47246  3                          SEG   ': illegal file name',,.L:CDSNESGP
 00950A 4110 7398/4100_      097D8 47261  3                          SEG   ' (file name ends with a dot).',,.L:CDSNESGP
 00951C 47F0 72C8            09708 47276  3                          B     CDSNERR
 009520                            47277  2                        END
 009520 4140 0008            00008 47281  2                        LA    R4,8                Allow eight more chars
 009524 D203 802C 72FC 00004 0973C 47282  2                        MVC   CDSNTYPE,=A(2)      Allow dot, alpha, or national
 00952A                            47283  1                      END
                                   47287  1
                                   47288  1                      COMMENT                   IF '('
 00952A 70EE/47F0 722E_0952A 0949A 47289  1                      ELSEIF (@R6,EQ,'('),BEGIN Lib Member or GDG
 009536 4126 5000            00000 47314  2                        LA    R2,0(R6,R5)
 00953A 0620                       47315  2                        DECR  R2
 00953C 955D 2000/4780_00000       47317  2                        IF    (@R2,NE,')'),BEGIN
 009544 4110 3000/4100_      00000 47333  3                          SEGT  FILPBDSNAME,,.L:CDSNESGP
 009556 4110 730C/4100_      0974C 47359  3                          SEG   ': illegal file name.',,.L:CDSNESGP
 009568 4110 73B5/4100_      097F5 47374  3                          SEG   'Mismatched parenthesis.',,.L:CDSNESGP
 00957A 47F0 72C8            09708 47389  3                          B     CDSNERR
 00957E                            47390  2                        END
 00957E 1F22/4326 0001             47394  2                        LC    R2,1(R6)
 009584 1F00/4302 7413             47401  2                        LC    R0,DSNCHR(R2)
                                   47406  2         C              IF    ((R2,NE,C'+'),AND,(R2,NE,C'-'),AND,
 00958A 5920 7320/4780_      09760        2                              (@R6,NE,'(0)')),BEGIN
                                   47452  3                          COMMENT                   If member, check as if name
 0095A4 0650                       47453  3                          DECR  R5  ignore ')'
 0095A6 4140 0008            00008 47455  3                          LA    R4,8
 0095AA D203 802C 72FC 00004 0973C 47456  3                          MVC   CDSNTYPE,=A(2)
 0095B0                            47457  2                        END
 0095B0 7174/7174/7174_095B0 09590 47461  2                        ELSE  BEGIN               Otherwise, check as GDG
 0095B4 5E60 7308            09748 47476  3                          INCR  R6
 0095B8 0650                       47479  3                          DECR  R5
 0095BA 0650                       47481  3                          DECR  R5  ignore ')'
 0095BC 5900 7328/4770_      09768 47483  3                          IF    (R0,EQ,4),BEGIN
 0095C4 5E60 7308            09748 47500  4                            INCR  R6
 0095C8 0650                       47503  4                            DECR  R5
 0095CA                            47505  3                          END
 0095CA 1255/47D0 7198_            47509  3                          IF    ((R5,NP),OR,(R5,GT,4)),BEGIN
 0095D8 4110 3000/4100_      00000 47539  4                            SEGT  FILPBDSNAME,,.L:CDSNESGP
 0095EA 4110 730C/4100_      0974C 47565  4                            SEG   ': illegal file name.',,.L:CDSNESGP
 0095FC 4110 732C/4100_      0976C 47580  4                            SEG   'Invalid member name.',,.L:CDSNESGP
 00960E 47F0 72C8            09708 47595  4                            B     CDSNERR
 009612                            47596  3                          END
 009612 1255/47D0 722E             47600  3                          WHILE (R5,POS),BEGIN
 009618 1F22/4320 6000             47616  4                            LC    R2,@R6
 00961E 1F00/4302 7413             47623  4                            LC    R0,DSNCHR(R2)
 009624 5900 7340/4780_      09780 47628  4                            IF    (R0,NE,3),BEGIN
 00962C 1816/4100 0001_            47645  5                              SEG   @R6,1,.L:CDSNESGP
 00963C 4110 73CF/4100_      0980F 47672  5                              SEG   ': illegal character in file name ',,.L:CDSNESGP
 00964E 4110 3000/4100_      00000 47687  5                              SEGT  FILPBDSNAME,,.L:CDSNESGP
 009660 47F0 72C8            09708 47713  5                              B     CDSNERR
1WGS      (WGS2193) (13:01) (15MAR04) Show catalog                                                                          Page  151
0Current Usings:  (FILPB,R3) (*,R7) (CDSNWA-(4+36),R8) (CP,R11) (CV,R12)
0Loc    Object Code    Addr1 Addr2  Stmt Lv Lineno    Source Statement           (Hibal 5, Asmedit 3.3)  HLASM R4.0  2004/03/15 13.01
+___    ______ ____    _____ _____  ____ __ ______    ______ _________
0009664                            47714  4                            END
 009664 5E60 7308            09748 47718  4                            INCR  R6
 009668 0650                       47721  4                            DECR  R5
 00966A 47F0 71D2            09612 47723  3                          END
 00966E                            47728  2                        END
 00966E                            47732  1                      END
                                   47736  1
                                   47737  1                      COMMENT                   OTHER CHARACTERS
 00966E 7232/47F0 72BA 0966E 09534 47738  1                      ELSE  BEGIN               All other chars
 009672 5900 802C/47D0_      00004 47749  2                        IF    (R0,GT,CDSNTYPE),BEGIN Illegal character ...
 00967A 1816/4100 0001_            47766  3                          SEG   @R6,1,.L:CDSNESGP
 00968A 4110 73CF/4100_      0980F 47793  3                          SEG   ': illegal character in file name ',,.L:CDSNESGP
 00969C 4110 3000/4100_      00000 47808  3                          SEGT  FILPBDSNAME,,.L:CDSNESGP
 0096AE 47F0 72C8            09708 47834  3                          B     CDSNERR
 0096B2                            47835  2                        END
 0096B2 0640                       47839  2                        DECR  R4
 0096B4 1244/47B0 72B4             47841  2                        IF    (R4,NEG),BEGIN      Over 8 chars w/o a dot...
 0096BA 4110 3000/4100_      00000 47855  3                          SEGT  FILPBDSNAME,,.L:CDSNESGP
 0096CC 4110 7362/4100_      097A2 47881  3                          SEG   ': illegal file name',,.L:CDSNESGP
 0096DE 4110 73F0/4100_      09830 47896  3                          SEG   ' (over 8 characters without a dot).',,.L:CDSNESGP
 0096F0 47F0 72C8            09708 47911  3                          B     CDSNERR
 0096F4                            47912  2                        END
 0096F4 D203 802C 7340 00004 09780 47916  2                        MVC   CDSNTYPE,=A(3)      Allow numbers too now
 0096FA                            47917  1                      END
                                   47921  1
 0096FA 4160 6001            00001 47922  1                      LA    R6,@R6+1
 0096FE 0650                       47923  1                      DECR  R5
 009700 47F0 7042            09482 47925                       END
                                   47930
 009704 47F0 72E0            09720 47931                       B     CDSNOK              All done
                                   47932
                                   47933                         Error return.
                                   47934
 009708 58F0 8028            00000 47935              CDSNERR  L     R15,CDSNESGP
 00970C 5810 F020/5800_      00020 47936                       WITH  (SEGCB,R15),'SETMSG L:SEGCBLOC,L:SEGCBLENF' Err msg
 USING  SEGCB,R15
 DROP   SEGCB,R15
 009714 9001 8004            00004 47971                       PRETURN (R0,R1)
 009718 41F0 0004            00004 47973                       LA    R15,4
 00971C 47F0 72E2            09722 47974                       B     CDSNEXIT
                                   47975
                                   47976                         Normal return.
                                   47977
 009720 1BFF                       47978              CDSNOK   CLEAR R15                 A-ok
 009722 18D8/9808 D004_            47983              CDSNEXIT PEND
 DROP   FILPB,R3
 DROP   CDSNWA-(4+36),R8
 DROP   *,R7
                                   48014
                                   48015                       SEGDEF DUMMY              (Neatness)
                                   48016
                                   48017                       QLTORG
1WGS      (WGS2193) (13:01) (15MAR04) Show catalog                                                                          Page  152
0Current Usings:  (CP,R11) (CV,R12)
0Loc    Object Code    Addr1 Addr2  Stmt Lv Lineno    Source Statement           (Hibal 5, Asmedit 3.3)  HLASM R4.0  2004/03/15 13.01
+___    ______ ____    _____ _____  ____ __ ______    ______ _________
0                                  48050
                                   48051                         OS file name character type table.
                                   48052
                                   48053                           0 - Dot (.)
                                   48054                           1 - Alphabetic
                                   48055                           2 - National ($,@,#)
                                   48056                           3 - Numeric
                                   48057                           4 - GDG start chars (+-)
                                   48058                         255 - Everything else
                                   48059
 009853 FFFFFFFFFFFFFFFF           48060              DSNCHR   DC    256X'FF'
 009953                09953 0989E 48061                       ORG   DSNCHR+C'.'
 00989E 00                         48062                       DC    X'00'
 00989F                0989F 09914 48063                       ORG   DSNCHR+C'A'
 009914 0101010101010101           48064                       DC    X'010101010101010101'
 00991D                0991D 09924 48065                       ORG   DSNCHR+C'J'
 009924 0101010101010101           48066                       DC    X'010101010101010101'
 00992D                0992D 09935 48067                       ORG   DSNCHR+C'S'
 009935 0101010101010101           48068                       DC    X'0101010101010101'
 00993D                0993D 098AE 48069                       ORG   DSNCHR+C'$'
 0098AE 02                         48070                       DC    X'02'
 0098AF                098AF 098CF 48071                       ORG   DSNCHR+C'@'
 0098CF 02                         48072                       DC    X'02'
 0098D0                098D0 098CE 48073                       ORG   DSNCHR+C'#'
 0098CE 02                         48074                       DC    X'02'
 0098CF                098CF 09943 48075                       ORG   DSNCHR+C'0'
 009943 0303030303030303           48076                       DC    X'03030303030303030303'
 00994D                0994D 098A1 48077                       ORG   DSNCHR+C'+'
 0098A1 04                         48078                       DC    X'04'
 0098A2                098A2 098B3 48079                       ORG   DSNCHR+C'-'
 0098B3 04                         48080                       DC    X'04'
 0098B4                098B4 09953 48081                       ORG   ,
                                   48082
                                   48083                       QLTORG
1WGS      (WGS2193) (13:01) (15MAR04) Show catalog                                                                          Page  153
0Current Usings:  (CP,R11) (CV,R12)
0Loc    Object Code    Addr1 Addr2  Stmt Lv Lineno    Source Statement           (Hibal 5, Asmedit 3.3)  HLASM R4.0  2004/03/15 13.01
+___    ______ ____    _____ _____  ____ __ ______    ______ _________
0                                  48096              *
                                   48097              *
                                   48098              *
                                   48099              *  ** DEBUG **
                                   48100              *  WE NEED SOME FIXING OF THE ERROR INTERFACE AND CLOSING OF
                                   48101              *  THE WINGS PATH SHOULD AN ERROR OCCUR,,, HOW COULD WE RETURN
                                   48102              *  AN ERROR AND AN END OF FILE ON THE EXTREAD CALL ,,, SHOULD
                                   48103              *  WE ???
                                   48104              *
                                   48105              *  WHAT ABOUT A EXT -- DSECT AREA ,,, WHAT ABOUT PASSING OPTIONS
                                   48106              *  ON EXTOPEN ,,, ETC . ETC.
                                   48107              *
                                   48108              *
1WGS      (WGS2193) (13:01) (15MAR04) Show catalog                                                                          Page  154
0Current Usings:  (CP,R11) (CV,R12)
0Loc    Object Code    Addr1 Addr2  Stmt Lv Lineno    Source Statement           (Hibal 5, Asmedit 3.3)  HLASM R4.0  2004/03/15 13.01
+___    ______ ____    _____ _____  ____ __ ______    ______ _________
0                                  48110                       QLTORG
                                   48122
                                   48123                       VLTORG
 009988                09988 09988 48132                       END   .

1WGS      (WGS2193) (13:01) (15MAR04) Relocation Dictionary                                                                 Page  155
-   Pos.Id   Rel.Id   Flags    Address                                                       HLASM R4.0  2004/03/15 13.01
0  00000001 00000001    0C    000000C0
   00000001 00000001    0C    000006B0
   00000001 00000001    0C    000006C8
   00000001 00000001    0C    000006CC
   00000001 00000001    0C    000006D8
   00000001 00000001    0C    000006E8
   00000001 00000001    0C    000006F4
   00000001 00000001    0C    000006FC
   00000001 00000001    0C    00000C08
   00000001 00000001    0C    00000C14
   00000001 00000001    0C    00000C18
   00000001 00000001    0C    00000C20
   00000001 00000001    0C    00000C30
   00000001 00000001    0C    00000C3C
   00000001 00000001    0C    00000C48
   00000001 00000001    0C    00000C50
   00000001 00000001    0C    00000C5C
   00000001 00000001    0C    00000C60
   00000001 00000001    0C    00000E7C
   00000001 00000001    0C    00000EA4
   00000001 00000001    0C    00000ECC
   00000001 00000001    0C    00000EF4
   00000001 00000001    0C    00000FC0
   00000001 00000001    0C    00000FC8
   00000001 00000001    0C    00000FD0
   00000001 00000001    0C    00000FD8
   00000001 00000001    0C    00000FE4
   00000001 00000001    0C    00000FEC
   00000001 00000001    0C    00000FF0
   00000001 00000001    0C    000013B0
   00000001 00000001    0C    000013D8
   00000001 00000001    0C    00001400
   00000001 00000001    0C    00001428
   00000001 00000001    0C    00001450
   00000001 00000001    0C    00001478
   00000001 00000001    0C    000014A0
   00000001 00000001    0C    0000150C
   00000001 00000001    0C    0000151C
   00000001 00000001    0C    00001520
   00000001 00000001    0C    00001528
   00000001 00000001    0C    00001538
   00000001 00000001    0C    00001544
   00000001 00000001    0C    0000154C
   00000001 00000001    0C    00001554
   00000001 00000001    0C    00001568
   00000001 00000001    0C    0000156C
   00000001 00000001    0C    00001570
   00000001 00000001    0C    00001978
   00000001 00000001    0C    000019E4
   00000001 00000001    0C    000019E8
   00000001 00000001    0C    000019FC
   00000001 00000001    0C    00001A0C
   00000001 00000001    0C    00001A18
   00000001 00000001    0C    00001A20
   00000001 00000001    0C    00001A28
1WGS      (WGS2193) (13:01) (15MAR04) Relocation Dictionary                                                                 Page  156
   00000001 00000001    0C    00001A34
   00000001 00000001    0C    00001A38
   00000001 00000001    0C    00001A3C
   00000001 00000001    0C    000021FC
   00000001 00000001    0C    00002224
   00000001 00000001    0C    0000229C
   00000001 00000001    0C    000022AC
   00000001 00000001    0C    000022B0
   00000001 00000001    0C    000022BC
   00000001 00000001    0C    000022C8
   00000001 00000001    0C    000022D0
   00000001 00000001    0C    000022D8
   00000001 00000001    0C    000022E4
   00000001 00000001    0C    000022EC
   00000001 00000001    0C    000022F4
   00000001 00000001    0C    000022F8
   00000001 00000001    0C    000022FC
   00000001 00000001    0C    00002968
   00000001 00000001    0C    00002990
   00000001 00000001    0C    000029F8
   00000001 00000001    0C    000029FC
   00000001 00000001    0C    00002A24
   00000001 00000001    0C    00002A30
   00000001 00000001    0C    00002A38
   00000001 00000001    0C    00002A40
   00000001 00000001    0C    00002A4C
   00000001 00000001    0C    00002A54
   00000001 00000001    0C    00002A5C
   00000001 00000001    0C    00002A60
   00000001 00000001    0C    00002A64
   00000001 00000001    0C    000030AC
   00000001 00000001    0C    000030D4
   00000001 00000001    0C    00003140
   00000001 00000001    0C    00003170
   00000001 00000001    0C    0000317C
   00000001 00000001    0C    00003184
   00000001 00000001    0C    0000318C
   00000001 00000001    0C    00003198
   00000001 00000001    0C    0000319C
   00000001 00000001    0C    000031A4
   00000001 00000001    0C    000031AC
   00000001 00000001    0C    000031B0
   00000001 00000001    0C    000031B4
   00000001 00000001    0C    000038EC
   00000001 00000001    0C    000038FC
   00000001 00000001    0C    00003900
   00000001 00000001    0C    00003908
   00000001 00000001    0C    0000391C
   00000001 00000001    0C    00003958
   00000001 00000001    0C    00003960
   00000001 00000001    0C    00003968
   00000001 00000001    0C    0000397C
   00000001 00000001    0C    00003980
   00000001 00000001    0C    00003984
   00000001 00000001    0C    00003AE4
   00000001 00000001    0C    00003B0C
   00000001 00000001    0C    00003B34
   00000001 00000001    0C    00003B5C
   00000001 00000001    0C    00003B84
1WGS      (WGS2193) (13:01) (15MAR04) Relocation Dictionary                                                                 Page  157
   00000001 00000001    0C    00003BAC
   00000001 00000001    0C    00003BD4
   00000001 00000001    0C    00003BFC
   00000001 00000001    0C    00003C24
   00000001 00000001    0C    00003C4C
   00000001 00000001    0C    00003C74
   00000001 00000001    0C    00003C9C
   00000001 00000001    0C    00003CC4
   00000001 00000001    0C    00003CEC
   00000001 00000001    0C    00003D14
   00000001 00000001    0C    00003D3C
   00000001 00000001    0C    00003D64
   00000001 00000001    0C    00003D8C
   00000001 00000001    0C    00003DB4
   00000001 00000001    0C    00004204
   00000001 00000001    0C    00004214
   00000001 00000001    0C    0000421C
   00000001 00000001    0C    0000422C
   00000001 00000001    0C    00004238
   00000001 00000001    0C    00004240
   00000001 00000001    0C    00004248
   00000001 00000001    0C    0000425C
   00000001 00000001    0C    00004260
   00000001 00000001    0C    00004264
   00000001 00000001    0C    000042E8
   00000001 00000001    0C    00004310
   00000001 00000001    0C    00004338
   00000001 00000001    0C    00004360
   00000001 00000001    0C    00004638
   00000001 00000001    0C    00004640
   00000001 00000001    0C    00004644
   00000001 00000001    0C    00004648
   00000001 00000001    0C    0000464C
   00000001 00000001    0C    00004650
   00000001 00000001    0C    00004654
   00000001 00000001    0C    00004658
   00000001 00000001    0C    0000465C
   00000001 00000001    0C    000047EC
   00000001 00000001    0C    00004814
   00000001 00000001    0C    0000483C
   00000001 00000001    0C    00004864
   00000001 00000001    0C    0000488C
   00000001 00000001    0C    000048B4
   00000001 00000001    0C    000048DC
   00000001 00000001    0C    0000492C
   00000001 00000001    0C    00004954
   00000001 00000001    0C    0000497C
   00000001 00000001    0C    000049A4
   00000001 00000001    0C    000049CC
   00000001 00000001    0C    00004A1C
   00000001 00000001    0C    00004A44
   00000001 00000001    0C    00004A6C
   00000001 00000001    0C    00004A94
   00000001 00000001    0C    00004ABC
   00000001 00000001    0C    00004AE4
   00000001 00000001    0C    00004B34
   00000001 00000001    0C    00004B5C
   00000001 00000001    0C    00004B84
   00000001 00000001    0C    00004C24
1WGS      (WGS2193) (13:01) (15MAR04) Relocation Dictionary                                                                 Page  158
   00000001 00000001    0C    00004C4C
   00000001 00000001    0C    00004C74
   00000001 00000001    0C    00004C9C
   00000001 00000001    0C    00004D3C
   00000001 00000001    0C    00004D64
   00000001 00000001    0C    00004DB4
   00000001 00000001    0C    00004E54
   00000001 00000001    0C    00004E7C
   00000001 00000001    0C    00004EA4
   00000001 00000001    0C    00004ECC
   00000001 00000001    0C    00004EF4
   00000001 00000001    0C    00004F1C
   00000001 00000001    0C    00004F44
   00000001 00000001    0C    00004F6C
   00000001 00000001    0C    00004F94
   00000001 00000001    0C    00005E84
   00000001 00000001    0C    00005EAC
   00000001 00000001    0C    00005ED4
   00000001 00000001    0C    00005EFC
   00000001 00000001    0C    00005F58
   00000001 00000001    0C    00006160
   00000001 00000001    0C    00006168
   00000001 00000001    0C    0000616C
   00000001 00000001    0C    00006170
   00000001 00000001    0C    00006220
   00000001 00000001    0C    00006330
   00000001 00000001    0C    00006338
   00000001 00000001    0C    0000633C
   00000001 00000001    0C    00006340
   00000001 00000001    0C    00006910
   00000001 00000001    0C    00006914
   00000001 00000001    0C    00006B0C
   00000001 00000001    0C    00006B34
   00000001 00000001    0C    00006B5C
   00000001 00000001    0C    00006B84
   00000001 00000001    0C    00007120
   00000001 00000001    0C    00007148
   00000001 00000001    0C    00007170
   00000001 00000001    0C    00007198
   00000001 00000001    0C    000071C0
   00000001 00000001    0C    000071E8
   00000001 00000001    0C    00007210
   00000001 00000001    0C    00007238
   00000001 00000001    0C    00007260
   00000001 00000001    0C    00007288
   00000001 00000001    0C    00007510
   00000001 00000001    0C    00007538
   00000001 00000001    0C    00007560
   00000001 00000001    0C    000076A0
   00000001 00000001    0C    000076A8
   00000001 00000001    0C    000076AC
   00000001 00000001    0C    000076BC
   00000001 00000001    0C    000076F4
   00000001 00000001    0C    00007710
   00000001 00000001    0C    00007718
   00000001 00000001    08    000077F5
   00000001 00000001    0C    00007D64
   00000001 00000001    0C    00007DA8
   00000001 00000001    0C    00007DAC
1WGS      (WGS2193) (13:01) (15MAR04) Relocation Dictionary                                                                 Page  159
   00000001 00000001    0C    00007DB4
   00000001 00000001    0C    00008100
   00000001 00000001    0C    000085D4
   00000001 00000001    0C    00008640
   00000001 00000001    0C    00008650
   00000001 00000001    0C    000092DC
   00000001 00000002    1C    000000A8
   00000001 00000002    1C    00000118
   00000001 00000003    1C    000000B0
   00000001 00000004    1C    000000BC
   00000001 00000004    1C    0000864C
   00000001 00000004    1C    000092A4
   00000001 00000005    1C    000000C4
   00000001 00000006    1C    0000011C
   00000001 00000007    1C    000006B4
   00000001 00000007    1C    00000C0C
   00000001 00000007    1C    00000FC4
   00000001 00000007    1C    00001508
   00000001 00000007    1C    000019E0
   00000001 00000007    1C    00002298
   00000001 00000007    1C    00002A00
   00000001 00000007    1C    00003144
   00000001 00000007    1C    000038E8
   00000001 00000007    1C    00004200
   00000001 00000007    1C    00004438
   00000001 00000007    1C    00005C18
   00000001 00000007    1C    0000602C
   00000001 00000007    1C    0000622C
   00000001 00000007    1C    000076B4
   00000001 00000007    1C    00007D4C
   00000001 00000007    1C    00008654
   00000001 00000007    1C    000092B0
   00000001 00000007    1C    00009738
   00000001 00000008    1C    000006C0
   00000001 00000008    1C    0000392C
   00000001 00000008    1C    00005C1C
   00000001 00000008    1C    000092EC
   00000001 00000009    1C    000006D4
   00000001 00000009    1C    000092AC
   00000001 00000009    1C    00009744
   00000001 0000000A    1C    000006EC
   00000001 0000000A    1C    00000C34
   00000001 0000000A    1C    00000FE8
   00000001 0000000A    1C    0000153C
   00000001 0000000A    1C    00001A10
   00000001 0000000A    1C    000022C0
   00000001 0000000A    1C    00002A28
   00000001 0000000A    1C    00003174
   00000001 0000000A    1C    00003920
   00000001 0000000A    1C    00004230
   00000001 0000000A    1C    00005C3C
   00000001 0000000A    1C    00005F5C
   00000001 0000000A    1C    000076C0
   00000001 0000000A    1C    00008644
   00000001 0000000B    1C    000006F0
   00000001 0000000B    1C    00000C38
   00000001 0000000B    1C    00001540
   00000001 0000000B    1C    00001A14
   00000001 0000000B    1C    000022C4
1WGS      (WGS2193) (13:01) (15MAR04) Relocation Dictionary                                                                 Page  160
   00000001 0000000B    1C    00002A2C
   00000001 0000000B    1C    00003178
   00000001 0000000B    1C    00003924
   00000001 0000000B    1C    00004234
   00000001 0000000B    1C    00008648
   00000001 0000000C    1C    000006F8
   00000001 0000000C    1C    00000C44
   00000001 0000000C    1C    00000FCC
   00000001 0000000C    1C    00001548
   00000001 0000000C    1C    00001A1C
   00000001 0000000C    1C    000022CC
   00000001 0000000C    1C    00002A34
   00000001 0000000C    1C    00003180
   00000001 0000000C    1C    0000395C
   00000001 0000000C    1C    0000423C
   00000001 0000000C    1C    00006334
   00000001 0000000D    1C    00000C40
   00000001 0000000D    1C    000092A0
   00000001 0000000D    1C    00009730
   00000001 0000000E    1C    00000E78
   00000001 0000000E    1C    00000EA0
   00000001 0000000E    1C    00000EC8
   00000001 0000000E    1C    000042E4
   00000001 0000000E    1C    0000430C
   00000001 0000000E    1C    00004680
   00000001 0000000E    1C    000046A8
   00000001 0000000E    1C    000046D0
   00000001 0000000E    1C    000046F8
   00000001 0000000E    1C    00004720
   00000001 0000000E    1C    00004770
   00000001 0000000E    1C    00004888
   00000001 0000000E    1C    000049C8
   00000001 0000000E    1C    00004A18
   00000001 0000000E    1C    00004A40
   00000001 0000000E    1C    00004A68
   00000001 0000000E    1C    00004A90
   00000001 0000000E    1C    00004AB8
   00000001 0000000E    1C    00004B30
   00000001 0000000E    1C    00004B58
   00000001 0000000E    1C    00004B80
   00000001 0000000E    1C    00004D38
   00000001 0000000E    1C    00004DB0
   00000001 0000000E    1C    0000711C
   00000001 0000000E    1C    00007144
   00000001 0000000E    1C    0000716C
   00000001 0000000E    1C    0000720C
   00000001 0000000E    1C    00007234
   00000001 0000000E    1C    0000725C
   00000001 0000000E    1C    0000750C
   00000001 0000000E    1C    00007534
   00000001 0000000F    1C    00000EF0
   00000001 0000000F    1C    000014C4
   00000001 0000000F    1C    0000199C
   00000001 0000000F    1C    00002248
   00000001 0000000F    1C    000029B4
   00000001 0000000F    1C    000030F8
   00000001 0000000F    1C    00003DD8
   00000001 0000000F    1C    00004384
   00000001 0000000F    1C    00004FB8
1WGS      (WGS2193) (13:01) (15MAR04) Relocation Dictionary                                                                 Page  161
   00000001 0000000F    1C    00005EF8
   00000001 0000000F    1C    00006B80
   00000001 0000000F    1C    000071E4
   00000001 0000000F    1C    00007284
   00000001 0000000F    1C    0000755C
   00000001 0000000F    1C    000085F8
   00000001 00000010    1C    00000FF4
   00000001 00000010    1C    000076F8
   00000001 00000011    1C    00000FFC
   00000001 00000011    1C    00003930
   00000001 00000011    1C    00007700
   00000001 00000012    1C    00001424
   00000001 00000012    1C    0000144C
   00000001 00000012    1C    00001474
   00000001 00000012    1C    0000149C
   00000001 00000012    1C    00003B08
   00000001 00000012    1C    00004748
   00000001 00000012    1C    00004798
   00000001 00000012    1C    000047E8
   00000001 00000012    1C    00004810
   00000001 00000012    1C    00004838
   00000001 00000012    1C    00004928
   00000001 00000012    1C    00004950
   00000001 00000012    1C    00004978
   00000001 00000012    1C    000049A0
   00000001 00000012    1C    00004AE0
   00000001 00000012    1C    00004BD0
   00000001 00000012    1C    00004BF8
   00000001 00000012    1C    00004C20
   00000001 00000012    1C    00004C48
   00000001 00000012    1C    00004C70
   00000001 00000012    1C    00004C98
   00000001 00000012    1C    00004CC0
   00000001 00000012    1C    00004CE8
   00000001 00000012    1C    00004D60
   00000001 00000012    1C    00004E00
   00000001 00000012    1C    00004F90
   00000001 00000012    1C    00005E80
   00000001 00000012    1C    00005EA8
   00000001 00000012    1C    00006B08
   00000001 00000012    1C    00006B30
   00000001 00000012    1C    00006B58
   00000001 00000012    1C    00007194
   00000001 00000012    1C    000071BC
   00000001 00000012    1C    000085D0
   00000001 00000013    1C    000014C8
   00000001 00000013    1C    000019A0
   00000001 00000013    1C    0000224C
   00000001 00000013    1C    000029B8
   00000001 00000013    1C    000030FC
   00000001 00000013    1C    00003DDC
   00000001 00000013    1C    00004388
   00000001 00000013    1C    00004FBC
   00000001 00000013    1C    00005C2C
   00000001 00000014    1C    0000155C
   00000001 00000014    1C    00003970
   00000001 00000014    1C    00004250
   00000001 00000014    1C    00007708
   00000001 00000014    1C    00007D98
1WGS      (WGS2193) (13:01) (15MAR04) Relocation Dictionary                                                                 Page  162
   00000001 00000015    1C    00001560
   00000001 00000015    1C    00003974
   00000001 00000015    1C    00004254
   00000001 00000015    1C    0000770C
   00000001 00000015    1C    00007D84
   00000001 00000016    1C    00001B54
   00000001 00000016    1C    000022E8
   00000001 00000016    1C    00002A50
   00000001 00000016    1C    000031A0
   00000001 00000017    1C    00001BC0
   00000001 00000018    1C    00001BC4
   00000001 00000018    1C    000022F0
   00000001 00000018    1C    00002A58
   00000001 00000018    1C    000031A8
   00000001 00000019    1C    000022DC
   00000001 00000019    1C    00002A44
   00000001 00000019    1C    00003190
   00000001 0000001A    1C    00003940
   00000001 0000001A    1C    00006030
   00000001 0000001A    1C    00007714
   00000001 0000001B    1C    00003AE0
   00000001 0000001B    1C    00003B30
   00000001 0000001B    1C    00003B58
   00000001 0000001B    1C    00003B80
   00000001 0000001B    1C    00003BA8
   00000001 0000001B    1C    00003BD0
   00000001 0000001B    1C    00003BF8
   00000001 0000001B    1C    00003C20
   00000001 0000001B    1C    00003C48
   00000001 0000001B    1C    00003C70
   00000001 0000001B    1C    00003C98
   00000001 0000001B    1C    00003CC0
   00000001 0000001B    1C    00004860
   00000001 0000001B    1C    000048B0
   00000001 0000001C    1C    0000463C
   00000001 0000001D    1C    00004684
   00000001 0000001D    1C    000046AC
   00000001 0000001D    1C    000046D4
   00000001 0000001D    1C    000046FC
   00000001 0000001D    1C    00004724
   00000001 0000001D    1C    0000474C
   00000001 0000001D    1C    00004774
   00000001 0000001D    1C    0000479C
   00000001 0000001D    1C    00004BD4
   00000001 0000001D    1C    00004BFC
   00000001 0000001D    1C    00004CC4
   00000001 0000001D    1C    00004CEC
   00000001 0000001D    1C    00004E04
   00000001 0000001D    1C    000085FC
   00000001 0000001E    1C    000048D8
   00000001 0000001F    1C    00005C34
   00000001 0000001F    1C    000080F8
   00000001 0000001F    1C    000092BC
   00000001 00000020    1C    00005C38
   00000001 00000021    1C    00005C50
   00000001 00000022    1C    00005ED0
   00000001 00000023    1C    00006228
   00000001 00000023    1C    00006920
   00000001 00000024    1C    000068F0
1WGS      (WGS2193) (13:01) (15MAR04) Relocation Dictionary                                                                 Page  163
   00000001 00000025    1C    00006900
   00000001 00000026    1C    00006918
   00000001 00000026    1C    000092B4
   00000001 00000026    1C    00009734
   00000001 00000027    1C    00006924
   00000001 00000028    1C    000076C4
   00000001 00000029    1C    0000771C
   00000001 0000002A    1C    00007D48
   00000001 0000002B    1C    00007D54
   00000001 0000002C    1C    00007D7C
   00000001 0000002D    1C    00007D80
   00000001 0000002E    1C    00007D9C
   00000001 0000002F    1C    00007DA4
   00000001 00000030    1C    00007DCC
   00000001 00000031    1C    00008110
   00000001 00000032    1C    000085AC
   00000001 00000033    1C    000092C0

1WGS      (WGS2193) (13:01) (15MAR04) Ordinary Symbol and Literal Cross Reference                                           Page  164
-Symbol   Length   Value     Id    R Type   Defn References                                  HLASM R4.0  2004/03/15 13.01
0$$$@R0        1 00000000 FFFFFFFE     J     705  1019
 $$$@R10       1 00000000 FFFFFFF4     J     835  1083
 $$$@R11       1 00000000 FFFFFFF3     J     848  1096
 $$$@R12       1 00000000 FFFFFFF2     J     861  1109
 $$$@R13       1 00000000 FFFFFFF1     J     874  1122
 $$$@R14       1 00000000 FFFFFFF0     J     887  1135
 $$$@R7        1 00000000 FFFFFFF7     J     796  1032
 $$$@R8        1 00000000 FFFFFFF6     J     809  1045   1057
 $$$@R9        1 00000000 FFFFFFF5     J     822  1070
 $$$C1WYLWGS
               1 000000C8 00000001     J    8090  8092
 $$$C10WYLWGS
               1 000023B6 00000001     J   16752 16754
 $$$C11WYLWGS
               1 00002AE0 00000001     J   18564 18566
 $$$C12WYLWGS
               1 00002B60 00000001     J   18902 18904
 $$$C13WYLWGS
               1 000031FD 00000001     J   20554 20556
 $$$C14WYLWGS
               1 00003ABF 00000001     J   22808 22810
 $$$C15WYLWGS
               1 00003DE0 00000001     J   23122 23124
 $$$C16WYLWGS
               1 000042C3 00000001     J   24246 24248
 $$$C17WYLWGS
               1 0000444D 00000001     J   24559 24561
 $$$C18WYLWGS
               1 00004660 00000001     J   25211 25213
 $$$C19WYLWGS
               1 00005D83 00000001     J   30316 30318
 $$$C2WYLWGS
               1 00000120 00000001     J    8239  8241
 $$$C20WYLWGS
               1 00005F68 00000001     J   30734 30736
 $$$C21WYLWGS
               1 00006045 00000001     J   31051 31053
 $$$C22WYLWGS
               1 0000619D 00000001     J   31455 31457  31503
 $$$C23WYLWGS
               1 00006230 00000001     J   31665 31667
 $$$C24WYLWGS
               1 00006344 00000001     J   32063 32065  32104  32904  33310  33356  33454  33766  33928
 $$$C25WYLWGS
               1 000069B0 00000001     J   34036 34038  34584  34817  34856  36167  37105
 $$$C26WYLWGS
               1 000077B8 00000001     J   37373 37375  38984  39241  39277
 $$$C27WYLWGS
               1 00007E6C 00000001     J   39384 39386  39639  39999
 $$$C28WYLWGS
               1 00008120 00000001     J   40508 40510  41345
 $$$C29WYLWGS
               1 00008354 00000001     J   41509 41511  41599  41684  41807  41947  42024  42389  42449
 $$$C3WYLWGS
               1 000007DE 00000001     J   10212 10214
1WGS      (WGS2193) (13:01) (15MAR04) Ordinary Symbol and Literal Cross Reference                                           Page  165
 $$$C30WYLWGS
               1 00008682 00000001     J   42658 42660  42791  43842  44104
 $$$C31WYLWGS
               1 00009426 00000001     J   46904 46906  46940
 $$$C32WYLWGS
               1 00009853 00000001     J   48045 48047
 $$$C33WYLWGS
               1 00009958 00000001     J   48090 48092
 $$$C34WYLWGS
               1 00009958 00000001     J   48117 48119
 $$$C35WYLWGS
               1 00009988 00000001     J   48135 48137
 $$$C4WYLWGS
               1 00000CB5 00000001     J   11409 11411  11980
 $$$C5WYLWGS
               1 0000101E 00000001     J   12244 12246
 $$$C6WYLWGS
               1 000015F2 00000001     J   13399 13401
 $$$C7WYLWGS
               1 00001AB9 00000001     J   14438 14440  14577
 $$$C8WYLWGS
               1 00001B60 00000001     J   14649 14651
 $$$C9WYLWGS
               1 00001BC8 00000001     J   14801 14803
 $$$D24WYLWGS
               1 00006998 00000001     J   32064 33299  33345  33755  33917
 $$$D25WYLWGS
               1 000077A6 00000001     J   34037 34573  34806  34845
 $$$D26WYLWGS
               1 00007E60 00000001     J   37374 39230  39266
 $$$D28WYLWGS
               1 0000834E 00000001     J   40509 41334
 $$$D29WYLWGS
               1 00008669 00000001     J   41510 41936  42013  42378  42438
 $$$D30WYLWGS
               1 00009419 00000001     J   42659 43831  44093
 $$$D7WYLWGS
               1 00001B5A 00000001     J   14439 14566
 $$$RBDSNWA
               1 00000000 FFFFFFD2     J   42686 42790  42790
 $$$RCDSNWA
               1 00000000 FFFFFFD1     J   46925 46939  46939
 $$$RCHVWA
               1 00000000 FFFFFFD6     J   39985 39998  39998
 $$$RCKACWA
               1 00000000 FFFFFFDD     J   32089 32103  32103
 $$$RCP        1 00000000 FFFFFFEC     J    2453  4713   6187   6187
 $$$RCV        1 00000000 FFFFFFEE     J    1178  2363   2363
 $$$RDEV       1 00000000 FFFFFFEB     J    4667  4712   4712
 $$$RDSNINFO
               1 00000000 FFFFFFE2     J    7289  7387   7387
 $$$RFFINFO
               1 00000000 FFFFFFE0     J    7684  7893   7893
 $$$RFILPB
               1 00000000 FFFFFFD5     J   41521 41598  41598
 $$$RGTLVWA
               1 00000000 FFFFFFD7     J   39625 39638  39638
 $$$RJCB       1 00000000 FFFFFFE9     J    6305  6579   6579
 $$$RKWR       1 00000000 FFFFFFE8     J    6585  6790   6790
1WGS      (WGS2193) (13:01) (15MAR04) Ordinary Symbol and Literal Cross Reference                                           Page  166
 $$$RNSCNCB
               1 00000000 FFFFFFED     J    2374  2447   2447
 $$$RSEGCB
               1 00000000 FFFFFFE6     J    6945  7045   7045
 $$$RSHCTARGS
               1 00000000 FFFFFFE3     J    7217  7283   7283
 $$$RSHDRARGS
               1 00000000 FFFFFFE5     J    7052  7123   7123
 $$$RSHDSARGS
               1 00000000 FFFFFFE4     J    7129  7211   7211
 $$$RTRKMSGWA
               1 00000000 FFFFFFDF     J   11965 11979  11979
 $$$RTTYPE
               1 00000000 FFFFFFEA     J    6198  6299   6299
 $$$RUPATH
               1 00000000 FFFFFFE7     J    6796  6939   6939
 $$$RWGEMSGWA
               1 00000000 FFFFFFD9     J   37091 37104  37104
 $$$RWGSWA
               1 00000000 FFFFFFE1     J    7420  7661   7661
 $$$RWGSWWA
               1 00000000 FFFFFFDE     J   31488 31502  31502
 $$$RWNWA      1 00000000 FFFFFFD3     J   41703 41806  41806
 $$$RWRFWA
               1 00000000 FFFFFFDC     J   32887 32903  32903
 $$$RWRTMWA
               1 00000000 FFFFFFDA     J   36152 36166  36166
 $$$RWSEWA
               1 00000000 FFFFFFD8     J   38970 38983  38983
 $$$RWWFWA
               1 00000000 FFFFFFDB     J   33436 33453  33453
 $$$RXFILPB
               1 00000000 FFFFFFD4     J   41607 41683  41683
 $$$SEGCB0
               4 00000050 FFFFFFEC     F    2484  2570   2570
 $$$SEGCB1034
               4 00000008 FFFFFFD3     F   41711 41797  41797
 $$$SEGCB1074
               4 00000010 FFFFFFD2     F   42696 42782  42782
 $$$SEGCB50
               4 00000058 FFFFFFE1     F    7568  7654   7654
 $$$V01       41 00009958 00000001     C   48129 37470
 $$$Z10        4 000029BC 00000001     F   18520 16944  17011  17078
 $$$Z12        4 00003100 00000001     F   20515 19012  19079  19146  19215  19230  19245
 $$$Z13        4 00003890 00000001     F   22742 20633  21622  21804
 $$$Z15        4 00004190 00000001     F   24204 23204
 $$$Z2         4 00000670 00000001     F   10166  8414   8943   9284   9647   9662   9740   9922
 $$$Z21        4 00006150 00000001     F   31446 31168
 $$$Z24        4 000068D0 00000001     F   34011 33018  33545  33958
 $$$Z26        4 00007C7C 00000001     F   39338 37458  37552  37584  37889  38467  38593
 $$$Z29        4 00008630 00000001     F   42643 41965
 $$$Z3         4 00000BB8 00000001     F   11369 10304
 $$$Z5         4 000014CC 00000001     F   13359 12323
 $$$Z6         4 000019A4 00000001     F   14401 13480
 $$$Z9         4 00002250 00000001     F   16703 14886  15167  15233  15299
 $$$100F       2 00000360 00000001     H    9100  9044B
 $$$1001       1 00000050 00000001 A   U   40973 40970  40972
 $$$1003B      1 0000823C 00000001     X   41018 41025U
 $$$1004B      4 00008250 00000001     I   41065 41201
1WGS      (WGS2193) (13:01) (15MAR04) Ordinary Symbol and Literal Cross Reference                                           Page  167
 $$$1004F      2 00008298 00000001     H   41196 41052B 41065B 41198
 $$$1005B      4 00008248 00000001     I   41052 41199
 $$$1006F      2 00008268 00000001     H   41108 41084B 41097B
 $$$1006S      2 00008254 00000001     H   41075 41107B
 $$$1009B      4 00008280 00000001     I   41151 41175
 $$$1009F      2 00008290 00000001     H   41168 41123B 41137B 41151B 41170
 $$$101F       2 000003D6 00000001     H    9262  9162B
 $$$1010B      4 00008270 00000001     I   41123 41171
 $$$1011B      4 00008278 00000001     I   41137 41173
 $$$1012E      2 00008294 00000001     H   41182 41172  41174  41176
 $$$1012F      2 00008298 00000001     H   41192 41178B
 $$$1013E      2 0000829C 00000001     H   41208 41200  41202
 $$$1013F      2 000082A0 00000001     H   41218 41204B
 $$$1014       1 00000050 00000001 A   U   41239 41236  41238
 $$$1016B      1 000082CC 00000001     X   41294 41301U
 $$$1017F      2 000082DA 00000001     H   41350 41326B
 $$$1018       6 0000834E 00000001     I   41340 41332X
 $$$1019       6 0000834E 00000001     I   41339 41340  41340
 $$$102F       2 00000404 00000001     H    9340  9285B
 $$$1020F      2 00008328 00000001     H   41474 41370B 41383B
 $$$1022F      2 00008306 00000001     H   41426 41402B 41415B
 $$$1022S      2 000082F2 00000001     H   41393 41425B
 $$$1025F      2 00008328 00000001     H   41470 41442B 41456B
 $$$1027       1 00000050 00000001 A   U   41495 41492  41494
 $$$103F       2 00000412 00000001     H    9369  9355B
 $$$104F       2 0000042C 00000001     H    9407  9382B
 $$$1043B      1 0000836E 00000001     X   41836 41843U
 $$$1044F      2 000083A2 00000001     H   41914 41905B
 $$$1045F      2 000083AE 00000001     H   41952 41928B
 $$$1046       6 0000866A 00000001     I   41942 41934X
 $$$1047       6 0000866A 00000001     I   41941 41942  41942
 $$$1048F      2 000083DA 00000001     H   42033 41966B
 $$$1049F      2 000083CE 00000001     H   41991 41982B
 $$$105F       2 00000446 00000001     H    9445  9420B
 $$$1050F      2 000083DA 00000001     H   42029 42005B
 $$$1051       6 00008670 00000001     I   42019 42011X
 $$$1052       6 00008670 00000001     I   42018 42019  42019
 $$$1053F      2 000084D6 00000001     H   42222 42168B
 $$$1054F      2 000084CE 00000001     H   42216 42184B
 $$$1055F      2 000084FC 00000001     H   42287 42239B
 $$$1056F      2 000084FC 00000001     H   42283 42259B 42271B
 $$$1056S      2 000084E6 00000001     H   42249 42282B
 $$$1059F      2 00008528 00000001     H   42352 42304B
 $$$106F       2 00000460 00000001     H    9483  9458B
 $$$1060F      2 00008528 00000001     H   42348 42324B 42336B
 $$$1060S      2 00008512 00000001     H   42314 42347B
 $$$1063F      2 0000853C 00000001     H   42394 42370B
 $$$1064       6 00008676 00000001     I   42384 42376X
 $$$1065       6 00008676 00000001     I   42383 42384  42384
 $$$1066F      2 00008576 00000001     H   42463 42405B
 $$$1067F      2 00008564 00000001     H   42454 42430B
 $$$1068       6 0000867C 00000001     I   42444 42436X
 $$$1069       6 0000867C 00000001     I   42443 42444  42444
 $$$107F       2 0000047A 00000001     H    9521  9496B
 $$$1070       1 00000370 00000001 A   U   42493 42490  42492
 $$$1072B      1 0000861A 00000001     X   42587 42594U
 $$$1073       1 00000050 00000001 A   U   42625 42622  42624
 $$$108F       2 00000524 00000001     H    9626  9615B
 $$$1083B      1 0000869C 00000001     X   42819 42826U
1WGS      (WGS2193) (13:01) (15MAR04) Ordinary Symbol and Literal Cross Reference                                           Page  168
 $$$1084F      2 0000871E 00000001     H   43003 42952B
 $$$1085F      2 00008812 00000001     H   43335 43020B 43048B
 $$$1085T      2 0000873C 00000001     H   43051 43037B
 $$$1088F      2 0000877E 00000001     H   43143 43069B
 $$$1089F      2 000087BE 00000001     H   43230 43156B
 $$$109F       2 00000568 00000001     H    9720  9648B  9663B
 $$$1090F      2 000087F6 00000001     H   43313 43243B
 $$$1091F      2 000088BA 00000001     H   43536 43350B
 $$$1092F      2 00008850 00000001     H   43412 43387B 43400B
 $$$1094F      2 000088A8 00000001     H   43522 43443B 43456B
 $$$1094T      2 00008868 00000001     H   43459 43430B
 $$$1097F      2 00008910 00000001     H   43656 43597B
 $$$1097T      2 000088E8 00000001     H   43600 43586B
 $$$1099F      2 0000890C 00000001     H   43650 43625B
 $$$1100B      4 0000891A 00000001     I   43675 43918
 $$$1100F      2 000089AE 00000001     H   43912 43675B 43917
 $$$1101F      2 00008974 00000001     H   43804 43725B
 $$$1101S      2 00008924 00000001     H   43693 43803B
 $$$1104F      2 00008970 00000001     H   43799 43748B
 $$$1105F      2 00008988 00000001     H   43847 43823B
 $$$1106       6 0000941A 00000001     I   43837 43829X
 $$$1107       6 0000941A 00000001     I   43836 43837  43837
 $$$1108F      2 000089AE 00000001     H   43908 43892B
 $$$1108T      2 000089A6 00000001     H   43895 43868B 43881B
 $$$111F       2 00000590 00000001     H    9787  9741B  9756B
 $$$1111E      2 000089B2 00000001     H   43925 43919
 $$$1111F      2 00008A28 00000001     H   44117 43921B
 $$$1112F      2 000089CE 00000001     H   43982 43951B 43969B
 $$$1112S      2 000089B6 00000001     H   43945 43981B
 $$$1115F      2 00008A28 00000001     H   44113 43993B
 $$$1116F      2 00008A14 00000001     H   44068 44017B
 $$$1117F      2 00008A28 00000001     H   44109 44085B
 $$$1118       6 00009420 00000001     I   44099 44091X
 $$$1119       6 00009420 00000001     I   44098 44099  44099
 $$$1120F      2 00008A8A 00000001     H   44236 44132B
 $$$1121F      2 00008A72 00000001     H   44203 44163B
 $$$1121T      2 00008A44 00000001     H   44166 44152B
 $$$1123F      2 00008BFC 00000001     H   44779 44253B 44281B
 $$$1123S      2 00008A8A 00000001     H   44245 44778B
 $$$1123T      2 00008AA2 00000001     H   44284 44270B
 $$$1127B      4 00008AA8 00000001     I   44300 44532
 $$$1127F      2 00008B4C 00000001     H   44525 44300B 44531
 $$$1128B      4 00008AB8 00000001     I   44332 44350
 $$$1128F      2 00008ACA 00000001     H   44343 44319B 44332B 44347
 $$$1129B      4 00008AB0 00000001     I   44319 44348
 $$$113F       2 000005C4 00000001     H    9869  9828B  9854B
 $$$113T       2 000005B8 00000001     H    9857  9844B
 $$$1130B      4 00008ADA 00000001     I   44383 44401
 $$$1130E      2 00008ACE 00000001     H   44357 44349  44351
 $$$1130F      2 00008AEC 00000001     H   44394 44353B 44370B 44383B 44398
 $$$1132B      4 00008AD2 00000001     I   44370 44399
 $$$1133B      4 00008AF4 00000001     I   44419 44436
 $$$1133E      2 00008AF0 00000001     H   44408 44400  44402
 $$$1133F      2 00008B04 00000001     H   44431 44404B 44419B 44435
 $$$1135B      4 00008B0C 00000001     I   44454 44469
 $$$1135E      2 00008B08 00000001     H   44443 44437
 $$$1135F      2 00008B1E 00000001     H   44465 44439B 44454B 44468
 $$$1137E      2 00008B22 00000001     H   44476 44470
 $$$1137F      2 00008B4C 00000001     H   44521 44472B
1WGS      (WGS2193) (13:01) (15MAR04) Ordinary Symbol and Literal Cross Reference                                           Page  169
 $$$1138E      2 00008B50 00000001     H   44539 44533
 $$$1138F      2 00008BF8 00000001     H   44774 44535B 44549B
 $$$114T       2 000005A8 00000001     H    9833  9806B  9818B
 $$$1140B      4 00008B64 00000001     I   44581 44599
 $$$1140F      2 00008B76 00000001     H   44592 44568B 44581B 44596
 $$$1141B      4 00008B5C 00000001     I   44568 44597
 $$$1142B      4 00008B86 00000001     I   44632 44650
 $$$1142E      2 00008B7A 00000001     H   44606 44598  44600
 $$$1142F      2 00008B98 00000001     H   44643 44602B 44619B 44632B 44647
 $$$1144B      4 00008B7E 00000001     I   44619 44648
 $$$1145B      4 00008BA0 00000001     I   44668 44685
 $$$1145E      2 00008B9C 00000001     H   44657 44649  44651
 $$$1145F      2 00008BB0 00000001     H   44680 44653B 44668B 44684
 $$$1147B      4 00008BB8 00000001     I   44703 44718
 $$$1147E      2 00008BB4 00000001     H   44692 44686
 $$$1147F      2 00008BCA 00000001     H   44714 44688B 44703B 44717
 $$$1149E      2 00008BCE 00000001     H   44725 44719
 $$$1149F      2 00008BF8 00000001     H   44770 44721B
 $$$1150F      2 00008C82 00000001     H   44957 44797B
 $$$1151F      2 00008C4A 00000001     H   44889 44821B
 $$$1152F      2 00008C82 00000001     H   44953 44902B
 $$$1153F      2 00008CE8 00000001     H   45082 44972B 44985B
 $$$1155F      2 00008CC0 00000001     H   45053 45043B
 $$$1156F      2 00008DB8 00000001     H   45338 45099B 45112B
 $$$1158F      2 00008D2C 00000001     H   45180 45129B
 $$$1159F      2 00008D64 00000001     H   45243 45192B
 $$$1160F      2 00008DAE 00000001     H   45318 45309B
 $$$1161F      2 00008E14 00000001     H   45505 45356B 45369B 45387B 45406B 45425B
 $$$1166F      2 00008DF2 00000001     H   45453 45443B
 $$$1167F      2 00008E02 00000001     H   45475 45465B
 $$$1168F      2 00008E5E 00000001     H   45634 45523B 45536B 45554B
 $$$1171F      2 00008E3C 00000001     H   45582 45572B
 $$$1172F      2 00008E4C 00000001     H   45604 45594B
 $$$1173F      2 00008E9A 00000001     H   45752 45652B 45665B 45685B 45698B 45717B
 $$$1178F      2 00008F56 00000001     H   46066 45766B
 $$$1179F      2 00008EE0 00000001     H   45871 45814B
 $$$118F       2 0000060C 00000001     H    9975  9908B  9923B
 $$$1180F      2 00008EE0 00000001     H   45867 45844B
 $$$1181F      2 00008F28 00000001     H   45995 45938B
 $$$1182F      2 00008F28 00000001     H   45991 45968B
 $$$1183F      2 00009000 00000001     H   46361 46080B
 $$$1184F      2 00008F8A 00000001     H   46167 46110B
 $$$1185F      2 00008F8A 00000001     H   46163 46140B
 $$$1186F      2 00008FD2 00000001     H   46290 46233B
 $$$1187F      2 00008FD2 00000001     H   46286 46263B
 $$$1188F      2 0000901A 00000001     H   46409 46375B
 $$$1189F      2 00009036 00000001     H   46451 46435B
 $$$119T       2 000005DC 00000001     H    9913  9886B  9898B
 $$$1190F      2 000090A4 00000001     H   46568 46483B
 $$$1191F      2 000090DC 00000001     H   46653 46599B
 $$$1192B      4 00009116 00000001     I   46735 46754
 $$$1192F      2 00009126 00000001     H   46745 46707B 46721B 46735B 46749
 $$$1193B      4 00009106 00000001     I   46707 46750
 $$$1194B      4 0000910E 00000001     I   46721 46752
 $$$1195E      2 0000912A 00000001     H   46761 46751  46753  46755
 $$$1195F      2 00009146 00000001     H   46798 46757B 46774B 46788B
 $$$1198       1 0000011C 00000001 A   U   46832 46829  46831
 $$$1200B      1 00009440 00000001     X   46968 46975U
 $$$1201F      2 00009478 00000001     H   47073 47049B
1WGS      (WGS2193) (13:01) (15MAR04) Ordinary Symbol and Literal Cross Reference                                           Page  170
 $$$1202F      2 00009704 00000001     H   47929 47090B
 $$$1202S      2 00009482 00000001     H   47084 47928B
 $$$1204B      4 00009498 00000001     I   47120 47292
 $$$1204F      2 0000952A 00000001     H   47286 47120B 47291
 $$$1205F      2 000094DE 00000001     H   47202 47137B
 $$$1206F      2 00009520 00000001     H   47280 47215B
 $$$1207B      4 00009532 00000001     I   47309 47740
 $$$1207E      2 0000952E 00000001     H   47299 47293
 $$$1207F      2 0000966E 00000001     H   47735 47295B 47309B 47739
 $$$1209F      2 0000957E 00000001     H   47393 47328B
 $$$1210B      4 000095A0 00000001     I   47447 47467
 $$$1210F      2 000095B0 00000001     H   47460 47420B 47434B 47447B 47462
 $$$1211B      4 0000958E 00000001     I   47420 47463
 $$$1212B      4 00009596 00000001     I   47434 47465
 $$$1213E      2 000095B4 00000001     H   47474 47464  47466  47468
 $$$1213F      2 0000966E 00000001     H   47731 47470B
 $$$1214F      2 000095CA 00000001     H   47508 47495B
 $$$1215F      2 00009612 00000001     H   47599 47534B
 $$$1215T      2 000095D8 00000001     H   47537 47522B
 $$$1217F      2 0000966E 00000001     H   47727 47611B
 $$$1217S      2 00009612 00000001     H   47605 47726B
 $$$1219F      2 00009664 00000001     H   47717 47640B
 $$$122F       2 0000060C 00000001     H    9971  9946B
 $$$1220E      2 00009672 00000001     H   47747 47741
 $$$1220F      2 000096FA 00000001     H   47920 47743B
 $$$1221F      2 000096B2 00000001     H   47838 47761B
 $$$1222F      2 000096F4 00000001     H   47915 47850B
 $$$1223       1 00000058 00000001 A   U   48011 48008  48010
 $$$123F       2 00000620 00000001     H   10001  9991B
 $$$124F       2 00000640 00000001     H   10079 10041B
 $$$124T       2 00000638 00000001     H   10044 10019B 10031B
 $$$127F       2 0000065E 00000001     H   10130 10120B
 $$$128        1 00000050 00000001 A   U   10156 10153  10155
 $$$130B       1 000007F8 00000001     X   10259 10266U
 $$$131F       2 0000081C 00000001     H   10316 10305B
 $$$132B       4 00000872 00000001     I   10410 10439
 $$$132F       2 00000888 00000001     H   10435 10410B 10438
 $$$133B       4 00000890 00000001     I   10455 10484
 $$$133E       2 0000088C 00000001     H   10446 10440
 $$$133F       2 000008A6 00000001     H   10480 10442B 10455B 10483
 $$$135B       4 000008AE 00000001     I   10500 10529
 $$$135E       2 000008AA 00000001     H   10491 10485
 $$$135F       2 000008C4 00000001     H   10525 10487B 10500B 10528
 $$$137B       4 000008CC 00000001     I   10545 10573
 $$$137E       2 000008C8 00000001     H   10536 10530
 $$$137F       2 000008E2 00000001     H   10570 10532B 10545B 10572
 $$$139E       2 000008E6 00000001     H   10580 10574
 $$$139F       2 000008FC 00000001     H   10608 10576B
 $$$140F       2 0000094E 00000001     H   10713 10636B
 $$$141F       2 0000092A 00000001     H   10665 10654B
 $$$142F       2 0000095C 00000001     H   10743 10729B
 $$$143F       2 00000976 00000001     H   10781 10756B
 $$$144F       2 00000990 00000001     H   10819 10794B
 $$$145F       2 000009AA 00000001     H   10857 10832B
 $$$146F       2 00000A54 00000001     H   10962 10951B
 $$$147F       2 00000A72 00000001     H   11001 10978B
 $$$148F       2 00000A98 00000001     H   11083 11073B
 $$$149F       2 00000AC2 00000001     H   11139 11099B 11112B
 $$$151F       2 00000AE2 00000001     H   11180 11169B
1WGS      (WGS2193) (13:01) (15MAR04) Ordinary Symbol and Literal Cross Reference                                           Page  171
 $$$151T       2 00000AD4 00000001     H   11172 11158B
 $$$153F       2 00000B8A 00000001     H   11290 11267B
 $$$154        1 00000050 00000001 A   U   11359 11356  11358
 $$$156B       1 00000CD0 00000001     X   11456 11463U
 $$$157F       2 00000D1E 00000001     H   11558 11548B
 $$$158F       2 00000D44 00000001     H   11638 11628B
 $$$159F       2 00000D64 00000001     H   11682 11655B 11668B
 $$$161F       2 00000D84 00000001     H   11723 11712B
 $$$161T       2 00000D76 00000001     H   11715 11701B
 $$$163F       2 00000E22 00000001     H   11820 11810B
 $$$164        1 00000050 00000001 A   U   11893 11890  11892
 $$$166B       1 00000F12 00000001     X   12009 12016U
 $$$167F       2 00000F5A 00000001     H   12126 12079B 12094B
 $$$169        1 00000140 00000001 A   U   12209 12206  12208
 $$$171B       1 00001038 00000001     X   12291 12298U
 $$$172F       2 00001066 00000001     H   12353 12324B
 $$$173F       2 0000111E 00000001     H   12592 12470B
 $$$174F       2 000010FA 00000001     H   12544 12488B
 $$$175F       2 0000112C 00000001     H   12619 12605B
 $$$176F       2 00001146 00000001     H   12657 12632B
 $$$177F       2 00001160 00000001     H   12695 12670B
 $$$178F       2 0000117A 00000001     H   12733 12708B
 $$$179F       2 00001224 00000001     H   12838 12827B
 $$$180F       2 00001238 00000001     H   12863 12853B
 $$$181F       2 0000125E 00000001     H   12945 12935B
 $$$182F       2 0000127E 00000001     H   12988 12961B 12974B
 $$$184F       2 000012B8 00000001     H   13058 13018B
 $$$184T       2 00001290 00000001     H   13021 13007B
 $$$186F       2 00001356 00000001     H   13155 13145B
 $$$187        1 00000050 00000001 A   U   13228 13225  13227
 $$$189B       1 0000160C 00000001     X   13448 13455U
 $$$190F       2 0000163A 00000001     H   13510 13481B
 $$$191F       2 000016DA 00000001     H   13710 13588B
 $$$192F       2 000016B6 00000001     H   13662 13606B
 $$$193F       2 0000171E 00000001     H   13801 13787B
 $$$194F       2 00001738 00000001     H   13839 13814B
 $$$195F       2 00001752 00000001     H   13877 13852B
 $$$196F       2 000017FC 00000001     H   13982 13971B
 $$$197F       2 00001810 00000001     H   14007 13997B
 $$$198F       2 00001836 00000001     H   14089 14079B
 $$$199F       2 00001856 00000001     H   14132 14105B 14118B
 $$$201F       2 00001882 00000001     H   14190 14162B
 $$$201T       2 00001868 00000001     H   14165 14151B
 $$$203F       2 00001920 00000001     H   14287 14277B
 $$$204        1 00000050 00000001 A   U   14360 14357  14359
 $$$206B       1 00001AD4 00000001     X   14487 14494U
 $$$207F       2 00001AEA 00000001     H   14525 14515B
 $$$208B       4 00001AF4 00000001     I   14535 14602
 $$$208F       2 00001B30 00000001     H   14599 14535B 14601
 $$$209F       2 00001B18 00000001     H   14582 14555B
 $$$210        6 00001B5A 00000001     I   14572 14564X
 $$$211        6 00001B5A 00000001     I   14571 14572  14572
 $$$212E       2 00001B34 00000001     H   14609 14603
 $$$212F       2 00001B38 00000001     H   14615 14605B
 $$$213        1 00000050 00000001 A   U   14636 14633  14635
 $$$215B       1 00001B7A 00000001     X   14691 14698U
 $$$216F       2 00001BAC 00000001     H   14771 14716B
 $$$217F       2 00001BAC 00000001     H   14767 14739B
 $$$217S       2 00001B86 00000001     H   14732 14766B
1WGS      (WGS2193) (13:01) (15MAR04) Ordinary Symbol and Literal Cross Reference                                           Page  172
 $$$219        1 00000050 00000001 A   U   14789 14786  14788
 $$$221B       1 00001BE2 00000001     X   14853 14860U
 $$$222F       2 00001C12 00000001     H   14916 14887B
 $$$223F       2 00001CCE 00000001     H   15153 15031B
 $$$224F       2 00001CAA 00000001     H   15105 15049B
 $$$225F       2 00001CFC 00000001     H   15220 15168B
 $$$226F       2 00001D2A 00000001     H   15286 15234B
 $$$227F       2 00001D58 00000001     H   15352 15300B
 $$$228B       4 00001D5C 00000001     I   15364 15393
 $$$228F       2 00001D72 00000001     H   15389 15364B 15392
 $$$229B       4 00001D7A 00000001     I   15409 15438
 $$$229E       2 00001D76 00000001     H   15400 15394
 $$$229F       2 00001D90 00000001     H   15434 15396B 15409B 15437
 $$$231B       4 00001D98 00000001     I   15454 15533
 $$$231E       2 00001D94 00000001     H   15445 15439
 $$$231F       2 00001DCC 00000001     H   15530 15441B 15454B 15532
 $$$233B       4 00001DA0 00000001     I   15469 15497
 $$$233F       2 00001DB6 00000001     H   15494 15469B 15496
 $$$234E       2 00001DBA 00000001     H   15504 15498
 $$$234F       2 00001DCC 00000001     H   15526 15500B
 $$$235E       2 00001DD0 00000001     H   15540 15534
 $$$235F       2 00001DE2 00000001     H   15562 15536B
 $$$236F       2 00001E8C 00000001     H   15667 15656B
 $$$237F       2 00001EA0 00000001     H   15692 15682B
 $$$238F       2 00001EC6 00000001     H   15774 15764B
 $$$239F       2 00001EE6 00000001     H   15817 15790B 15803B
 $$$241F       2 00001F32 00000001     H   15904 15836B 15849B
 $$$243B       4 00001F06 00000001     I   15867 15884
 $$$243F       2 00001F22 00000001     H   15881 15867B 15883
 $$$244E       2 00001F26 00000001     H   15891 15885
 $$$244F       2 00001F32 00000001     H   15900 15887B
 $$$245F       2 00001FD8 00000001     H   16066 15923B 15937B 15950B
 $$$245S       2 00001F32 00000001     H   15911 16065B
 $$$249F       2 00001FC2 00000001     H   16040 15970B
 $$$250B       4 00001F7E 00000001     I   15994 16020
 $$$250F       2 00001FB2 00000001     H   16017 15994B 16019
 $$$251E       2 00001FB6 00000001     H   16027 16021
 $$$251F       2 00001FC2 00000001     H   16036 16023B
 $$$252F       2 00001FD4 00000001     H   16061 16051B
 $$$253F       2 0000202E 00000001     H   16161 16087B 16100B
 $$$253S       2 00001FD8 00000001     H   16076 16160B
 $$$256F       2 00002010 00000001     H   16132 16120B
 $$$257F       2 0000202A 00000001     H   16156 16146B
 $$$258F       2 0000205E 00000001     H   16234 16191B 16204B
 $$$258S       2 00002036 00000001     H   16180 16233B
 $$$261F       2 0000205A 00000001     H   16229 16219B
 $$$262F       2 000020A8 00000001     H   16325 16251B
 $$$263F       2 000020A0 00000001     H   16319 16290B
 $$$264F       2 000020EA 00000001     H   16413 16344B 16357B
 $$$266F       2 000020E2 00000001     H   16407 16378B
 $$$267B       4 0000217C 00000001     I   16503 16520
 $$$267F       2 0000218E 00000001     H   16517 16503B 16519
 $$$268E       2 00002192 00000001     H   16527 16521
 $$$268F       2 00002198 00000001     H   16536 16523B
 $$$269B       4 0000219C 00000001     I   16550 16562
 $$$269F       2 000021A4 00000001     H   16559 16550B 16561
 $$$270E       2 000021A8 00000001     H   16569 16563
 $$$270F       2 000021AA 00000001     H   16578 16565B
 $$$271        1 00000050 00000001 A   U   16640 16637  16639
1WGS      (WGS2193) (13:01) (15MAR04) Ordinary Symbol and Literal Cross Reference                                           Page  173
 $$$273B       1 000023D0 00000001     X   16804 16811U
 $$$274F       2 00002420 00000001     H   16930 16872B
 $$$275F       2 0000244E 00000001     H   16997 16945B
 $$$276F       2 0000247C 00000001     H   17064 17012B
 $$$277F       2 000024C4 00000001     H   17167 17079B
 $$$278F       2 000024C4 00000001     H   17163 17138B
 $$$279B       4 000024F2 00000001     I   17235 17263
 $$$279F       2 00002508 00000001     H   17260 17235B 17262
 $$$279T       2 000024F6 00000001     H   17238 17201B 17213B 17225B
 $$$283E       2 0000250C 00000001     H   17270 17264
 $$$283F       2 0000251E 00000001     H   17292 17266B
 $$$284B       4 00002524 00000001     I   17311 17339
 $$$284F       2 0000253A 00000001     H   17336 17311B 17338
 $$$285E       2 0000253E 00000001     H   17346 17340
 $$$285F       2 00002550 00000001     H   17368 17342B
 $$$286F       2 000025FA 00000001     H   17473 17462B
 $$$287F       2 0000260E 00000001     H   17498 17488B
 $$$288F       2 00002634 00000001     H   17591 17581B
 $$$289F       2 00002654 00000001     H   17634 17607B 17620B
 $$$291F       2 000026A0 00000001     H   17721 17653B 17666B
 $$$293B       4 00002674 00000001     I   17684 17701
 $$$293F       2 00002690 00000001     H   17698 17684B 17700
 $$$294E       2 00002694 00000001     H   17708 17702
 $$$294F       2 000026A0 00000001     H   17717 17704B
 $$$295F       2 00002746 00000001     H   17883 17740B 17754B 17767B
 $$$295S       2 000026A0 00000001     H   17728 17882B
 $$$299F       2 00002730 00000001     H   17857 17787B
 $$$300B       4 000026EC 00000001     I   17811 17837
 $$$300F       2 00002720 00000001     H   17834 17811B 17836
 $$$301E       2 00002724 00000001     H   17844 17838
 $$$301F       2 00002730 00000001     H   17853 17840B
 $$$302F       2 00002742 00000001     H   17878 17868B
 $$$303F       2 0000279C 00000001     H   17978 17904B 17917B
 $$$303S       2 00002746 00000001     H   17893 17977B
 $$$306F       2 0000277E 00000001     H   17949 17937B
 $$$307F       2 00002798 00000001     H   17973 17963B
 $$$308F       2 000027CC 00000001     H   18051 18008B 18021B
 $$$308S       2 000027A4 00000001     H   17997 18050B
 $$$311F       2 000027C8 00000001     H   18046 18036B
 $$$312F       2 00002816 00000001     H   18142 18068B
 $$$313F       2 0000280E 00000001     H   18136 18107B
 $$$314F       2 00002858 00000001     H   18230 18161B 18174B
 $$$316F       2 00002850 00000001     H   18224 18195B
 $$$317B       4 000028EA 00000001     I   18320 18337
 $$$317F       2 000028FC 00000001     H   18334 18320B 18336
 $$$318E       2 00002900 00000001     H   18344 18338
 $$$318F       2 00002906 00000001     H   18353 18340B
 $$$319B       4 0000290A 00000001     I   18367 18379
 $$$319F       2 00002912 00000001     H   18376 18367B 18378
 $$$320E       2 00002916 00000001     H   18386 18380
 $$$320F       2 00002918 00000001     H   18395 18382B
 $$$321        1 00000050 00000001 A   U   18457 18454  18456
 $$$323B       1 00002AFA 00000001     X   18609 18616U
 $$$324B       4 00002AFE 00000001     I   18652 18849
 $$$324F       2 00002B48 00000001     H   18845 18652B 18848
 $$$325B       4 00002B0E 00000001     I   18695 18816
 $$$325F       2 00002B42 00000001     H   18813 18695B 18815
 $$$325T       2 00002B12 00000001     H   18698 18685B
 $$$327B       4 00002B1E 00000001     I   18726 18745
1WGS      (WGS2193) (13:01) (15MAR04) Ordinary Symbol and Literal Cross Reference                                           Page  174
 $$$327F       2 00002B24 00000001     H   18739 18712B 18726B 18742
 $$$328B       4 00002B16 00000001     I   18712 18743
 $$$329B       4 00002B34 00000001     I   18777 18795
 $$$329E       2 00002B28 00000001     H   18752 18744  18746
 $$$329F       2 00002B3A 00000001     H   18790 18748B 18763B 18777B 18792
 $$$331B       4 00002B2C 00000001     I   18763 18793
 $$$332E       2 00002B3E 00000001     H   18802 18794  18796
 $$$332F       2 00002B42 00000001     H   18809 18798B
 $$$333E       2 00002B46 00000001     H   18823 18817
 $$$333F       2 00002B48 00000001     H   18833 18819B
 $$$334E       2 00002B4C 00000001     H   18856 18850
 $$$334F       2 00002B4E 00000001     H   18865 18852B
 $$$335        1 00000050 00000001 A   U   18892 18889  18891
 $$$337B       1 00002B7A 00000001     X   18954 18961U
 $$$338F       2 00002BC4 00000001     H   19065 19013B
 $$$339F       2 00002BF2 00000001     H   19132 19080B
 $$$340F       2 00002C20 00000001     H   19199 19147B
 $$$341F       2 00002C50 00000001     H   19271 19246B
 $$$341T       2 00002C3E 00000001     H   19249 19218B 19233B
 $$$344F       2 00002D1E 00000001     H   19433 19422B
 $$$345F       2 00002D32 00000001     H   19458 19448B
 $$$346F       2 00002D58 00000001     H   19540 19530B
 $$$347F       2 00002D78 00000001     H   19583 19556B 19569B
 $$$349F       2 00002DC4 00000001     H   19670 19602B 19615B
 $$$351B       4 00002D98 00000001     I   19633 19650
 $$$351F       2 00002DB4 00000001     H   19647 19633B 19649
 $$$352E       2 00002DB8 00000001     H   19657 19651
 $$$352F       2 00002DC4 00000001     H   19666 19653B
 $$$353F       2 00002E7A 00000001     H   19855 19689B 19703B 19716B
 $$$353S       2 00002DC4 00000001     H   19677 19854B
 $$$357F       2 00002E64 00000001     H   19829 19740B
 $$$358F       2 00002E64 00000001     H   19825 19755B
 $$$359B       4 00002E20 00000001     I   19779 19805
 $$$359F       2 00002E54 00000001     H   19802 19779B 19804
 $$$360E       2 00002E58 00000001     H   19812 19806
 $$$360F       2 00002E64 00000001     H   19821 19808B
 $$$361F       2 00002E76 00000001     H   19850 19840B
 $$$362F       2 00002EE0 00000001     H   19973 19876B 19889B
 $$$362S       2 00002E7A 00000001     H   19865 19972B
 $$$365F       2 00002EC2 00000001     H   19944 19913B
 $$$366F       2 00002EC2 00000001     H   19940 19928B
 $$$367F       2 00002EDC 00000001     H   19968 19958B
 $$$368F       2 00002F10 00000001     H   20046 20003B 20016B
 $$$368S       2 00002EE8 00000001     H   19992 20045B
 $$$371F       2 00002F0C 00000001     H   20041 20031B
 $$$372F       2 00002F5A 00000001     H   20137 20063B
 $$$373F       2 00002F52 00000001     H   20131 20102B
 $$$374F       2 00002F9C 00000001     H   20225 20156B 20169B
 $$$376F       2 00002F94 00000001     H   20219 20190B
 $$$377B       4 0000302E 00000001     I   20315 20332
 $$$377F       2 00003040 00000001     H   20329 20315B 20331
 $$$378E       2 00003044 00000001     H   20339 20333
 $$$378F       2 0000304A 00000001     H   20348 20335B
 $$$379B       4 0000304E 00000001     I   20362 20374
 $$$379F       2 00003056 00000001     H   20371 20362B 20373
 $$$380E       2 0000305A 00000001     H   20381 20375
 $$$380F       2 0000305C 00000001     H   20390 20377B
 $$$381        1 00000050 00000001 A   U   20452 20449  20451
 $$$383B       1 00003218 00000001     X   20601 20608U
1WGS      (WGS2193) (13:01) (15MAR04) Ordinary Symbol and Literal Cross Reference                                           Page  175
 $$$384F       2 00003246 00000001     H   20663 20634B
 $$$385F       2 000032FE 00000001     H   20889 20767B
 $$$386F       2 000032DA 00000001     H   20841 20785B
 $$$387F       2 0000330C 00000001     H   20916 20902B
 $$$388F       2 00003326 00000001     H   20954 20929B
 $$$389F       2 00003340 00000001     H   20992 20967B
 $$$390F       2 0000335A 00000001     H   21030 21005B
 $$$391F       2 0000341A 00000001     H   21147 21136B
 $$$392F       2 0000343E 00000001     H   21219 21172B
 $$$393B       4 0000342A 00000001     I   21187 21200
 $$$393F       2 00003432 00000001     H   21197 21187B 21199
 $$$394E       2 00003436 00000001     H   21207 21201
 $$$394F       2 0000343A 00000001     H   21214 21203B
 $$$395F       2 0000345E 00000001     H   21279 21231B
 $$$396B       4 0000344C 00000001     I   21246 21258
 $$$396F       2 00003454 00000001     H   21255 21246B 21257
 $$$397E       2 00003458 00000001     H   21265 21259
 $$$397F       2 0000345A 00000001     H   21274 21261B
 $$$398F       2 00003538 00000001     H   21599 21291B
 $$$399B       4 0000346A 00000001     I   21306 21388
 $$$399F       2 000034A8 00000001     H   21384 21306B 21387
 $$$400F       2 000034A8 00000001     H   21380 21324B
 $$$401B       4 000034B0 00000001     I   21404 21416
 $$$401E       2 000034AC 00000001     H   21395 21389
 $$$401F       2 000034B4 00000001     H   21412 21391B 21404B 21415
 $$$403B       4 000034BC 00000001     I   21432 21513
 $$$403E       2 000034B8 00000001     H   21423 21417
 $$$403F       2 000034FA 00000001     H   21510 21419B 21432B 21512
 $$$405F       2 000034FA 00000001     H   21506 21450B
 $$$406E       2 000034FE 00000001     H   21520 21514
 $$$406F       2 00003538 00000001     H   21595 21516B
 $$$407F       2 00003538 00000001     H   21591 21535B
 $$$408F       2 00003560 00000001     H   21669 21623B 21638B
 $$$410F       2 00003594 00000001     H   21751 21710B 21736B
 $$$410T       2 00003588 00000001     H   21739 21726B
 $$$411T       2 00003578 00000001     H   21715 21688B 21700B
 $$$415F       2 000035D4 00000001     H   21838 21790B 21805B
 $$$416T       2 000035AC 00000001     H   21795 21768B 21780B
 $$$419B       4 000035EA 00000001     I   21867 21896
 $$$419F       2 00003600 00000001     H   21892 21867B 21895
 $$$420B       4 00003608 00000001     I   21912 21941
 $$$420E       2 00003604 00000001     H   21903 21897
 $$$420F       2 0000361E 00000001     H   21937 21899B 21912B 21940
 $$$422B       4 00003626 00000001     I   21957 21985
 $$$422E       2 00003622 00000001     H   21948 21942
 $$$422F       2 0000363C 00000001     H   21982 21944B 21957B 21984
 $$$424E       2 00003640 00000001     H   21992 21986
 $$$424F       2 00003652 00000001     H   22014 21988B
 $$$425F       2 000036A0 00000001     H   22122 22072B
 $$$426F       2 000036D6 00000001     H   22222 22140B
 $$$427B       4 000036AE 00000001     I   22155 22205
 $$$427F       2 000036CE 00000001     H   22202 22155B 22204
 $$$428F       2 000036C2 00000001     H   22179 22170B
 $$$429F       2 000036CE 00000001     H   22198 22189B
 $$$430E       2 000036D2 00000001     H   22212 22206
 $$$430F       2 000036D6 00000001     H   22218 22208B
 $$$431F       2 0000372A 00000001     H   22342 22236B
 $$$432B       4 000036EA 00000001     I   22254 22282
 $$$432F       2 00003700 00000001     H   22279 22254B 22281
1WGS      (WGS2193) (13:01) (15MAR04) Ordinary Symbol and Literal Cross Reference                                           Page  176
 $$$433E       2 00003704 00000001     H   22289 22283
 $$$433F       2 00003716 00000001     H   22311 22285B
 $$$434F       2 0000373E 00000001     H   22367 22357B
 $$$435F       2 00003764 00000001     H   22450 22440B
 $$$436F       2 00003784 00000001     H   22493 22466B 22479B
 $$$438F       2 000037BE 00000001     H   22563 22523B
 $$$438T       2 00003796 00000001     H   22526 22512B
 $$$440F       2 0000385C 00000001     H   22660 22650B
 $$$441        1 00000050 00000001 A   U   22733 22730  22732
 $$$443B       1 00003DFA 00000001     X   23171 23178U
 $$$444F       2 00003E2A 00000001     H   23234 23205B
 $$$445F       2 00003EE2 00000001     H   23472 23324B
 $$$446F       2 00003EE2 00000001     H   23468 23346B
 $$$447F       2 00003EBE 00000001     H   23420 23364B
 $$$448F       2 00003EF0 00000001     H   23499 23485B
 $$$449F       2 00003F0A 00000001     H   23537 23512B
 $$$450F       2 00003F24 00000001     H   23575 23550B
 $$$451F       2 00003FCE 00000001     H   23679 23668B
 $$$452F       2 00003FE2 00000001     H   23704 23694B
 $$$453B       4 00003FF6 00000001     I   23732 23761
 $$$453F       2 0000400C 00000001     H   23757 23732B 23760
 $$$454B       4 00004012 00000001     I   23776 23804
 $$$454E       2 00004010 00000001     H   23768 23762
 $$$454F       2 00004028 00000001     H   23801 23764B 23776B 23803
 $$$456E       2 0000402C 00000001     H   23811 23805
 $$$456F       2 0000403E 00000001     H   23833 23807B
 $$$457F       2 00004064 00000001     H   23912 23902B
 $$$458F       2 00004084 00000001     H   23955 23928B 23941B
 $$$460F       2 000040BE 00000001     H   24025 23985B
 $$$460T       2 00004096 00000001     H   23988 23974B
 $$$462F       2 0000415C 00000001     H   24122 24112B
 $$$463        1 00000050 00000001 A   U   24195 24192  24194
 $$$465B       1 000043A6 00000001     X   24351 24358U
 $$$466        1 00000050 00000001 A   U   24434 24431  24433
 $$$468B       1 000043FC 00000001     X   24461 24468U
 $$$469        1 00000050 00000001 A   U   24544 24541  24543
 $$$471B       1 00004468 00000001     X   24598 24605U
 $$$472        1 00000050 00000001 A   U   24638 24635  24637
 $$$474B       1 0000449E 00000001     X   24667 24674U
 $$$475        1 00000050 00000001 A   U   24707 24704  24706
 $$$477B       1 000044D4 00000001     X   24736 24743U
 $$$478        1 00000050 00000001 A   U   24776 24773  24775
 $$$480B       1 0000450A 00000001     X   24805 24812U
 $$$481        1 00000050 00000001 A   U   24845 24842  24844
 $$$483B       1 00004540 00000001     X   24874 24881U
 $$$484        1 00000050 00000001 A   U   24914 24911  24913
 $$$486B       1 00004576 00000001     X   24943 24950U
 $$$487        1 00000050 00000001 A   U   24983 24980  24982
 $$$489B       1 000045AC 00000001     X   25012 25019U
 $$$490        1 00000050 00000001 A   U   25052 25049  25051
 $$$492B       1 000045E2 00000001     X   25081 25088U
 $$$493        1 00000050 00000001 A   U   25121 25118  25120
 $$$495B       1 00004618 00000001     X   25150 25157U
 $$$496        1 00000050 00000001 A   U   25190 25187  25189
 $$$498B       1 00004FDA 00000001     X   26157 26164U
 $$$499        1 00000050 00000001 A   U   26211 26208  26210
 $$$501B       1 00005016 00000001     X   26238 26245U
 $$$502        1 00000050 00000001 A   U   26321 26318  26320
 $$$504B       1 0000506C 00000001     X   26348 26355U
1WGS      (WGS2193) (13:01) (15MAR04) Ordinary Symbol and Literal Cross Reference                                           Page  177
 $$$505        1 00000050 00000001 A   U   26431 26428  26430
 $$$507B       1 000050C2 00000001     X   26458 26465U
 $$$508        1 00000050 00000001 A   U   26541 26538  26540
 $$$510B       1 00005118 00000001     X   26568 26575U
 $$$511        1 00000050 00000001 A   U   26651 26648  26650
 $$$513B       1 0000516E 00000001     X   26678 26685U
 $$$514        1 00000050 00000001 A   U   26732 26729  26731
 $$$516B       1 000051AA 00000001     X   26759 26766U
 $$$517        1 00000050 00000001 A   U   26814 26811  26813
 $$$519B       1 000051E6 00000001     X   26841 26848U
 $$$520        1 00000050 00000001 A   U   26897 26894  26896
 $$$522B       1 00005224 00000001     X   26924 26931U
 $$$523        1 00000050 00000001 A   U   26986 26983  26985
 $$$525B       1 0000526C 00000001     X   27013 27020U
 $$$526        1 00000050 00000001 A   U   27075 27072  27074
 $$$528B       1 000052B4 00000001     X   27102 27109U
 $$$529        1 00000050 00000001 A   U   27178 27175  27177
 $$$531B       1 00005302 00000001     X   27205 27212U
 $$$532B       4 0000531A 00000001     I   27251 27286
 $$$532F       2 00005334 00000001     H   27282 27251B 27285
 $$$532T       2 0000531E 00000001     H   27254 27240B
 $$$534B       4 00005348 00000001     I   27318 27353
 $$$534E       2 00005338 00000001     H   27293 27287
 $$$534F       2 00005362 00000001     H   27349 27289B 27318B 27352
 $$$534T       2 0000534C 00000001     H   27321 27307B
 $$$537B       4 00005376 00000001     I   27385 27420
 $$$537E       2 00005366 00000001     H   27360 27354
 $$$537F       2 00005390 00000001     H   27416 27356B 27385B 27419
 $$$537T       2 0000537A 00000001     H   27388 27374B
 $$$540B       4 000053A4 00000001     I   27452 27487
 $$$540E       2 00005394 00000001     H   27427 27421
 $$$540F       2 000053BE 00000001     H   27483 27423B 27452B 27486
 $$$540T       2 000053A8 00000001     H   27455 27441B
 $$$543B       4 000053C8 00000001     I   27504 27538
 $$$543E       2 000053C2 00000001     H   27494 27488
 $$$543F       2 000053E2 00000001     H   27535 27490B 27504B 27537
 $$$545E       2 000053E6 00000001     H   27545 27539
 $$$545F       2 000053FC 00000001     H   27581 27541B
 $$$546        1 00000050 00000001 A   U   27603 27600  27602
 $$$548B       1 00005426 00000001     X   27630 27637U
 $$$549        1 00000050 00000001 A   U   27711 27708  27710
 $$$551B       1 00005476 00000001     X   27738 27745U
 $$$552F       2 0000549A 00000001     H   27810 27798B
 $$$552T       2 00005494 00000001     H   27801 27774B 27787B
 $$$555B       4 000054AE 00000001     I   27832 27844
 $$$555F       2 000054B6 00000001     H   27841 27832B 27843
 $$$556E       2 000054BA 00000001     H   27851 27845
 $$$556F       2 000054C0 00000001     H   27860 27847B
 $$$557        1 00000050 00000001 A   U   27882 27879  27881
 $$$559B       1 000054EA 00000001     X   27909 27916U
 $$$560        1 00000050 00000001 A   U   27992 27989  27991
 $$$562B       1 00005540 00000001     X   28019 28026U
 $$$563        1 00000050 00000001 A   U   28060 28057  28059
 $$$565B       1 00005570 00000001     X   28087 28094U
 $$$566        1 00000050 00000001 A   U   28127 28124  28126
 $$$568B       1 000055A0 00000001     X   28154 28161U
 $$$569        1 00000050 00000001 A   U   28208 28205  28207
 $$$571B       1 000055D4 00000001     X   28235 28242U
 $$$572        1 00000050 00000001 A   U   28289 28286  28288
1WGS      (WGS2193) (13:01) (15MAR04) Ordinary Symbol and Literal Cross Reference                                           Page  178
 $$$574B       1 00005608 00000001     X   28316 28323U
 $$$575        1 00000050 00000001 A   U   28370 28367  28369
 $$$577B       1 0000563C 00000001     X   28397 28404U
 $$$578        1 00000050 00000001 A   U   28451 28448  28450
 $$$580B       1 00005670 00000001     X   28478 28485U
 $$$581        1 00000050 00000001 A   U   28512 28509  28511
 $$$583B       1 0000569C 00000001     X   28539 28546U
 $$$584        1 00000050 00000001 A   U   28579 28576  28578
 $$$586B       1 000056CA 00000001     X   28606 28613U
 $$$587        1 00000050 00000001 A   U   28689 28686  28688
 $$$589B       1 00005720 00000001     X   28716 28723U
 $$$590        1 00000050 00000001 A   U   28799 28796  28798
 $$$592B       1 00005776 00000001     X   28826 28833U
 $$$593        1 00000050 00000001 A   U   28909 28906  28908
 $$$595B       1 000057CC 00000001     X   28936 28943U
 $$$596        1 00000050 00000001 A   U   28990 28987  28989
 $$$598B       1 00005808 00000001     X   29017 29024U
 $$$599        1 00000050 00000001 A   U   29071 29068  29070
 $$$601B       1 00005844 00000001     X   29098 29105U
 $$$602        1 00000050 00000001 A   U   29152 29149  29151
 $$$604B       1 00005880 00000001     X   29179 29186U
 $$$605        1 00000050 00000001 A   U   29233 29230  29232
 $$$607B       1 000058BC 00000001     X   29260 29267U
 $$$608        1 00000050 00000001 A   U   29299 29296  29298
 $$$610B       1 000058E8 00000001     X   29326 29333U
 $$$611        1 00000050 00000001 A   U   29365 29362  29364
 $$$613B       1 00005914 00000001     X   29392 29399U
 $$$614        1 00000050 00000001 A   U   29431 29428  29430
 $$$616B       1 00005940 00000001     X   29458 29465U
 $$$617        1 00000050 00000001 A   U   29497 29494  29496
 $$$619B       1 0000596C 00000001     X   29524 29531U
 $$$620        1 00000050 00000001 A   U   29583 29580  29582
 $$$622B       1 000059A8 00000001     X   29610 29617U
 $$$623        1 00000050 00000001 A   U   29670 29667  29669
 $$$625B       1 000059E4 00000001     X   29700 29707U
 $$$626F       2 00005A06 00000001     H   29769 29754B
 $$$629B       4 00005A7C 00000001     I   29868 29884
 $$$629F       2 00005A90 00000001     H   29880 29868B 29883
 $$$630B       4 00005A98 00000001     I   29900 29948
 $$$630E       2 00005A94 00000001     H   29891 29885
 $$$630F       2 00005ABA 00000001     H   29945 29887B 29900B 29947
 $$$634E       2 00005ABE 00000001     H   29955 29949
 $$$634F       2 00005AC2 00000001     H   29961 29951B
 $$$636F       2 00005B42 00000001     H   30099 30021B
 $$$637B       4 00005B20 00000001     I   30036 30082
 $$$637F       2 00005B3A 00000001     H   30079 30036B 30081
 $$$640E       2 00005B3E 00000001     H   30089 30083
 $$$640F       2 00005B42 00000001     H   30095 30085B
 $$$643        1 00000050 00000001 A   U   30231 30228  30230
 $$$645B       1 00005D9E 00000001     X   30352 30359U
 $$$646F       2 00005E50 00000001     H   30512 30391B
 $$$647F       2 00005E42 00000001     H   30502 30480B
 $$$648        1 00000050 00000001 A   U   30535 30532  30534
 $$$650B       1 00005F1A 00000001     X   30624 30631U
 $$$651        1 00000050 00000001 A   U   30658 30655  30657
 $$$653B       1 00005F46 00000001     X   30685 30692U
 $$$654        1 00000050 00000001 A   U   30719 30716  30718
 $$$656B       1 00005F82 00000001     X   30781 30788U
 $$$657F       2 00005FAC 00000001     H   30856 30820B
1WGS      (WGS2193) (13:01) (15MAR04) Ordinary Symbol and Literal Cross Reference                                           Page  179
 $$$657S       2 00005F90 00000001     H   30814 30855B
 $$$659F       2 00005FA2 00000001     H   30846 30836B
 $$$660F       2 0000601A 00000001     H   31011 30867B
 $$$661F       2 0000601A 00000001     H   31007 30883B
 $$$662F       2 0000601A 00000001     H   31003 30901B
 $$$663B       4 00005FCE 00000001     I   30918 30931
 $$$663F       2 00005FDE 00000001     H   30928 30918B 30930
 $$$664E       2 00005FE2 00000001     H   30938 30932
 $$$664F       2 0000601A 00000001     H   30999 30934B
 $$$665        1 00000050 00000001 A   U   31030 31027  31029
 $$$667B       1 00006060 00000001     X   31098 31105U
 $$$668F       2 00006070 00000001     H   31146 31136B
 $$$669F       2 000060B0 00000001     H   31224 31184B
 $$$669S       2 00006074 00000001     H   31157 31223B
 $$$669T       2 00006088 00000001     H   31187 31171B
 $$$672F       2 0000609A 00000001     H   31214 31199B
 $$$673F       2 000060D4 00000001     H   31255 31239B
 $$$674F       2 000060E6 00000001     H   31282 31268B
 $$$675B       4 000060EA 00000001     I   31295 31316
 $$$675F       2 000060FA 00000001     H   31309 31295B 31315
 $$$676B       4 00006112 00000001     I   31358 31377
 $$$676E       2 000060FE 00000001     H   31323 31317
 $$$676F       2 00006120 00000001     H   31372 31319B 31358B 31376
 $$$676T       2 00006116 00000001     H   31361 31336B 31348B
 $$$680E       2 00006124 00000001     H   31384 31378
 $$$680F       2 0000612E 00000001     H   31395 31380B
 $$$681        1 00000050 00000001 A   U   31430 31427  31429
 $$$683B       1 000061B8 00000001     X   31533 31540U
 $$$684        1 00000238 00000001 A   U   31643 31640  31642
 $$$686B       1 0000624A 00000001     X   31713 31720U
 $$$688F       2 0000629E 00000001     H   31864 31785B 31797B
 $$$690F       2 000062FA 00000001     H   32000 31903B
 $$$690T       2 000062B6 00000001     H   31906 31881B 31893B
 $$$693        1 00000050 00000001 A   U   32031 32028  32030
 $$$695B       1 0000635E 00000001     X   32133 32140U
 $$$696F       2 0000636E 00000001     H   32190 32181B
 $$$697F       2 000063AA 00000001     H   32275 32226B 32239B 32252B 32265B
 $$$701F       2 000063CC 00000001     H   32341 32293B 32308B
 $$$703F       2 000063CC 00000001     H   32337 32324B
 $$$705F       2 000063E6 00000001     H   32387 32359B 32374B
 $$$707        1 00000058 00000001 A   U   32424 32421  32423
 $$$709B       1 00006412 00000001     X   32470 32477U
 $$$710F       2 00006440 00000001     H   32532 32516B
 $$$711B       4 00006458 00000001     I   32549 32593
 $$$711F       2 00006484 00000001     H   32590 32549B 32592
 $$$712F       2 00006482 00000001     H   32585 32569B
 $$$713E       2 00006488 00000001     H   32600 32594
 $$$713F       2 00006494 00000001     H   32608 32596B
 $$$714        1 00000050 00000001 A   U   32642 32639  32641
 $$$716B       1 000064DA 00000001     X   32700 32707U
 $$$717F       2 00006510 00000001     H   32761 32745B
 $$$718F       2 0000651C 00000001     H   32783 32774B
 $$$719F       2 00006550 00000001     H   32828 32807B
 $$$720        1 00000050 00000001 A   U   32858 32855  32857
 $$$722B       1 0000658A 00000001     X   32933 32940U
 $$$723F       2 000065BA 00000001     H   32994 32978B
 $$$724F       2 00006608 00000001     H   33059 33019B
 $$$725F       2 00006600 00000001     H   33053 33040B
 $$$725S       2 000065EE 00000001     H   33033 33052B
1WGS      (WGS2193) (13:01) (15MAR04) Ordinary Symbol and Literal Cross Reference                                           Page  180
 $$$727B       4 0000661C 00000001     I   33100 33173
 $$$727F       2 0000665E 00000001     H   33165 33088B 33100B 33170
 $$$728B       4 00006614 00000001     I   33088 33171
 $$$728T       2 00006618 00000001     H   33093 33078B
 $$$73B        1 00000030 00000001     X    7941  7948U
 $$$730F       2 00006654 00000001     H   33159 33122B
 $$$731F       2 00006654 00000001     H   33155 33140B
 $$$732E       2 00006662 00000001     H   33180 33172  33174
 $$$732F       2 000066EC 00000001     H   33365 33176B 33189B
 $$$734F       2 0000667E 00000001     H   33217 33207B
 $$$735F       2 000066AC 00000001     H   33272 33235B
 $$$736F       2 000066AC 00000001     H   33268 33253B
 $$$737F       2 000066C6 00000001     H   33315 33291B
 $$$738        6 00006998 00000001     I   33305 33297X
 $$$739        6 00006998 00000001     I   33304 33305  33305
 $$$74         1 00000050 00000001 A   U    8064  8061   8063
 $$$740F       2 000066EC 00000001     H   33361 33334B
 $$$741        6 0000699E 00000001     I   33351 33343X
 $$$742        6 0000699E 00000001     I   33350 33351  33351
 $$$743        1 00000060 00000001 A   U   33406 33403  33405
 $$$745B       1 0000673A 00000001     X   33483 33490U
 $$$746B       4 0000675A 00000001     I   33546 33564
 $$$746F       2 0000676C 00000001     H   33560 33546B 33563
 $$$747E       2 00006770 00000001     H   33571 33565
 $$$747F       2 000068A6 00000001     H   33941 33567B
 $$$748F       2 00006786 00000001     H   33602 33587B
 $$$749F       2 00006790 00000001     H   33626 33617B
 $$$750B       4 000067A6 00000001     I   33656 33681
 $$$750F       2 000067C4 00000001     H   33673 33644B 33656B 33678
 $$$751B       4 0000679E 00000001     I   33644 33679
 $$$752B       4 000067D4 00000001     I   33711 33800
 $$$752E       2 000067C8 00000001     H   33688 33680  33682
 $$$752F       2 00006814 00000001     H   33792 33684B 33699B 33711B 33797
 $$$754B       4 000067CC 00000001     I   33699 33798
 $$$755B       4 000067F0 00000001     I   33740 33774
 $$$755F       2 00006806 00000001     H   33771 33740B 33773
 $$$756        6 000069A4 00000001     I   33761 33753X
 $$$757        6 000069A4 00000001     I   33760 33761  33761
 $$$758E       2 0000680A 00000001     H   33781 33775
 $$$758F       2 00006814 00000001     H   33788 33777B
 $$$759E       2 00006818 00000001     H   33807 33799  33801
 $$$759F       2 000068A6 00000001     H   33937 33803B 33816B
 $$$76B        1 000000E2 00000001     X    8134  8141U
 $$$761F       2 00006834 00000001     H   33844 33834B
 $$$762B       4 0000686E 00000001     I   33872 33892
 $$$762F       2 00006884 00000001     H   33888 33872B 33891
 $$$763E       2 00006888 00000001     H   33899 33893
 $$$763F       2 000068A6 00000001     H   33933 33895B
 $$$764        6 000069AA 00000001     I   33923 33915X
 $$$765        6 000069AA 00000001     I   33922 33923  33923
 $$$766F       2 000068BC 00000001     H   33968 33959B
 $$$767        1 00000064 00000001 A   U   33994 33991  33993
 $$$769B       1 000069CA 00000001     X   34074 34081U
 $$$77F        2 00000104 00000001     H    8201  8181B
 $$$770F       2 000069DC 00000001     H   34112 34102B
 $$$771F       2 00006A02 00000001     H   34160 34129B 34142B
 $$$773F       2 00006A34 00000001     H   34222 34190B
 $$$773T       2 00006A14 00000001     H   34193 34179B
 $$$775F       2 00006AD8 00000001     H   34323 34309B
1WGS      (WGS2193) (13:01) (15MAR04) Ordinary Symbol and Literal Cross Reference                                           Page  181
 $$$776        1 00000050 00000001 A   U   34344 34341  34343
 $$$778B       1 00006BA2 00000001     X   34444 34451U
 $$$779B       4 00006BF4 00000001     I   34524 34603
 $$$779F       2 00006C18 00000001     H   34597 34513B 34524B 34600
 $$$78         1 00000050 00000001 A   U    8227  8224   8226
 $$$780B       4 00006BEE 00000001     I   34513 34601
 $$$781F       2 00006C04 00000001     H   34549 34540B
 $$$782F       2 00006C16 00000001     H   34589 34565B
 $$$783        6 000077A6 00000001     I   34579 34571X
 $$$784        6 000077A6 00000001     I   34578 34579  34579
 $$$785E       2 00006C1C 00000001     H   34610 34602  34604
 $$$785F       2 00006C20 00000001     H   34616 34606B
 $$$786        1 00000050 00000001 A   U   34635 34632  34634
 $$$788B       1 00006C48 00000001     X   34678 34685U
 $$$789B       4 00006C9A 00000001     I   34758 34875
 $$$789F       2 00006CD0 00000001     H   34869 34747B 34758B 34872
 $$$790B       4 00006C94 00000001     I   34747 34873
 $$$791F       2 00006CAA 00000001     H   34781 34772B
 $$$792F       2 00006CC0 00000001     H   34822 34798B
 $$$793        6 000077AC 00000001     I   34812 34804X
 $$$794        6 000077AC 00000001     I   34811 34812  34812
 $$$795F       2 00006CCE 00000001     H   34861 34837B
 $$$796        6 000077B2 00000001     I   34851 34843X
 $$$797        6 000077B2 00000001     I   34850 34851  34851
 $$$798E       2 00006CD4 00000001     H   34882 34874  34876
 $$$798F       2 00006CD6 00000001     H   34891 34878B
 $$$799        1 00000050 00000001 A   U   34910 34907  34909
 $$$80B        1 0000013A 00000001     X    8306  8313U
 $$$801B       1 00006CFE 00000001     X   34948 34955U
 $$$802        1 00000050 00000001 A   U   35009 35006  35008
 $$$804B       1 00006D38 00000001     X   35044 35051U
 $$$805        1 00000050 00000001 A   U   35113 35110  35112
 $$$807B       1 00006DB0 00000001     X   35153 35160U
 $$$808F       2 00006DBE 00000001     H   35190 35181B
 $$$809F       2 00006DD8 00000001     H   35224 35205B
 $$$81B        4 00000142 00000001     I    8343  8361
 $$$81F        2 00000152 00000001     H    8358  8343B  8360
 $$$810F       2 00006DF6 00000001     H   35256 35238B
 $$$811F       2 00006E1C 00000001     H   35303 35271B 35284B
 $$$813F       2 00006E28 00000001     H   35329 35317B
 $$$814F       2 00006EC6 00000001     H   35428 35343B
 $$$815        1 00000050 00000001 A   U   35449 35446  35448
 $$$817B       1 00006EF2 00000001     X   35483 35490U
 $$$818F       2 00006F00 00000001     H   35520 35511B
 $$$819F       2 00006F26 00000001     H   35568 35537B 35550B
 $$$82E        2 00000156 00000001     H    8368  8362
 $$$82F        2 00000162 00000001     H    8380  8364B
 $$$821F       2 00006F4A 00000001     H   35617 35598B
 $$$821T       2 00006F38 00000001     H   35601 35587B
 $$$823        1 00000050 00000001 A   U   35719 35716  35718
 $$$825B       1 00007004 00000001     X   35752 35759U
 $$$826F       2 00007012 00000001     H   35789 35780B
 $$$827F       2 00007038 00000001     H   35837 35806B 35819B
 $$$829F       2 0000705C 00000001     H   35886 35867B
 $$$829T       2 0000704A 00000001     H   35870 35856B
 $$$83F        2 00000194 00000001     H    8444  8415B
 $$$831        1 00000050 00000001 A   U   35988 35985  35987
 $$$833B       1 000072A6 00000001     X   36196 36203U
 $$$834F       2 000072EE 00000001     H   36313 36266B 36281B
1WGS      (WGS2193) (13:01) (15MAR04) Ordinary Symbol and Literal Cross Reference                                           Page  182
 $$$836        1 00000140 00000001 A   U   36366 36363  36365
 $$$838B       1 0000732A 00000001     X   36393 36400U
 $$$839        1 00000050 00000001 A   U   36430 36427  36429
 $$$84B        4 000001D8 00000001     I    8521  8550
 $$$84F        2 000001EE 00000001     H    8546  8521B  8549
 $$$841B       1 00007354 00000001     X   36457 36464U
 $$$842        1 00000050 00000001 A   U   36494 36491  36493
 $$$844B       1 0000737E 00000001     X   36529 36536U
 $$$845F       2 0000738C 00000001     H   36566 36557B
 $$$846F       2 000073B2 00000001     H   36614 36583B 36596B
 $$$848F       2 000073D6 00000001     H   36663 36644B
 $$$848T       2 000073C4 00000001     H   36647 36633B
 $$$85B        4 000001F6 00000001     I    8566  8595
 $$$85E        2 000001F2 00000001     H    8557  8551
 $$$85F        2 0000020C 00000001     H    8591  8553B  8566B  8594
 $$$850        1 00000050 00000001 A   U   36684 36681  36683
 $$$852B       1 000073FE 00000001     X   36735 36742U
 $$$853F       2 000074AE 00000001     H   36874 36766B 36779B
 $$$855F       2 000074DC 00000001     H   36931 36897B 36909B
 $$$857        1 00000050 00000001 A   U   36951 36948  36950
 $$$859B       1 0000757E 00000001     X   37026 37033U
 $$$860        1 00000050 00000001 A   U   37084 37081  37083
 $$$862B       1 000075BA 00000001     X   37133 37140U
 $$$863        1 0000013C 00000001 A   U   37229 37226  37228
 $$$865B       1 00007600 00000001     X   37256 37263U
 $$$866        1 00000050 00000001 A   U   37325 37322  37324
 $$$868B       1 000077D2 00000001     X   37417 37424U
 $$$869F       2 000077F8 00000001     H   37474 37459B
 $$$87B        4 00000214 00000001     I    8611  8640
 $$$87E        2 00000210 00000001     H    8602  8596
 $$$87F        2 0000022A 00000001     H    8636  8598B  8611B  8639
 $$$870F       2 0000781C 00000001     H   37526 37491B
 $$$871B       4 00007828 00000001     I   37553 37566
 $$$871F       2 00007832 00000001     H   37562 37553B 37565
 $$$872B       4 0000783C 00000001     I   37585 37597
 $$$872E       2 00007836 00000001     H   37573 37567
 $$$872F       2 00007846 00000001     H   37594 37569B 37585B 37596
 $$$874E       2 0000784A 00000001     H   37604 37598
 $$$874F       2 00007850 00000001     H   37610 37600B
 $$$876F       2 000078BC 00000001     H   37763 37644B
 $$$877F       2 00007884 00000001     H   37688 37663B 37676B
 $$$879F       2 0000789E 00000001     H   37728 37703B 37716B
 $$$881        1 00000050 00000001 A   U   37790 37787  37789
 $$$883B       1 000078E6 00000001     X   37848 37855U
 $$$884F       2 00007916 00000001     H   37923 37890B
 $$$885F       2 000079AA 00000001     H   38104 37944B
 $$$886F       2 000079AA 00000001     H   38100 37992B
 $$$887F       2 00007976 00000001     H   38035 38026B
 $$$887T       2 00007972 00000001     H   38029 38015B
 $$$889F       2 00007A38 00000001     H   38348 38118B
 $$$89B        4 00000232 00000001     I    8656  8684
 $$$89E        2 0000022E 00000001     H    8647  8641
 $$$89F        2 00000248 00000001     H    8681  8643B  8656B  8683
 $$$890F       2 000079E6 00000001     H   38235 38145B 38158B
 $$$892B       4 000079CA 00000001     I   38188 38204
 $$$892F       2 000079DA 00000001     H   38201 38188B 38203
 $$$893E       2 000079DE 00000001     H   38211 38205
 $$$893F       2 000079E6 00000001     H   38223 38207B
 $$$894F       2 00007A00 00000001     H   38276 38251B 38264B
1WGS      (WGS2193) (13:01) (15MAR04) Ordinary Symbol and Literal Cross Reference                                           Page  183
 $$$896F       2 00007A18 00000001     H   38306 38289B
 $$$897        1 00000050 00000001 A   U   38377 38374  38376
 $$$899B       1 00007A66 00000001     X   38426 38433U
 $$$900F       2 00007A84 00000001     H   38488 38468B
 $$$901        1 00000050 00000001 A   U   38511 38508  38510
 $$$903B       1 00007AAE 00000001     X   38553 38560U
 $$$904B       4 00007AB8 00000001     I   38594 38607
 $$$904F       2 00007AC0 00000001     H   38604 38594B 38606
 $$$905E       2 00007AC4 00000001     H   38614 38608
 $$$905F       2 00007AC6 00000001     H   38624 38610B
 $$$906        1 00000050 00000001 A   U   38643 38640  38642
 $$$908B       1 00007AEE 00000001     X   38690 38697U
 $$$909F       2 00007B5C 00000001     H   38884 38758B
 $$$909T       2 00007B04 00000001     H   38761 38748B
 $$$91E        2 0000024C 00000001     H    8691  8685
 $$$91F        2 00000262 00000001     H    8719  8687B
 $$$911F       2 00007B1C 00000001     H   38791 38776B
 $$$912F       2 00007B56 00000001     H   38876 38825B
 $$$913F       2 00007B6A 00000001     H   38912 38897B
 $$$914        1 00000050 00000001 A   U   38940 38937  38939
 $$$916B       1 00007B94 00000001     X   39013 39020U
 $$$917F       2 00007BB2 00000001     H   39067 39052B
 $$$918F       2 00007BD0 00000001     H   39112 39097B
 $$$918T       2 00007BC4 00000001     H   39100 39086B
 $$$92F        2 00000284 00000001     H    8760  8750B
 $$$920        1 00000250 00000001 A   U   39148 39145  39147
 $$$922B       1 00007C08 00000001     X   39179 39186U
 $$$923B       4 00007C1C 00000001     I   39219 39250
 $$$923F       2 00007C2A 00000001     H   39247 39219B 39249
 $$$924        6 00007E60 00000001     I   39236 39228X
 $$$925        6 00007E60 00000001     I   39235 39236  39236
 $$$926E       2 00007C2E 00000001     H   39257 39251
 $$$926F       2 00007C3C 00000001     H   39283 39253B
 $$$927        6 00007E66 00000001     I   39272 39264X
 $$$928        6 00007E66 00000001     I   39271 39272  39272
 $$$929        1 00000050 00000001 A   U   39321 39318  39320
 $$$93F        2 00000290 00000001     H    8781  8771B
 $$$931B       1 00007E86 00000001     X   39432 39439U
 $$$932F       2 00007E9C 00000001     H   39484 39474B
 $$$932T       2 00007E94 00000001     H   39477 39462B
 $$$934F       2 00007EE4 00000001     H   39576 39515B
 $$$934S       2 00007EAE 00000001     H   39508 39575B
 $$$936F       2 00007ECC 00000001     H   39556 39546B
 $$$936T       2 00007EC4 00000001     H   39549 39535B
 $$$938        1 00000050 00000001 A   U   39597 39594  39596
 $$$94F        2 000002BE 00000001     H    8846  8836B
 $$$940B       1 00007F0C 00000001     X   39668 39675U
 $$$941F       2 00007F22 00000001     H   39729 39719B
 $$$941T       2 00007F1A 00000001     H   39722 39707B
 $$$943F       2 00007F84 00000001     H   39877 39755B
 $$$943S       2 00007F34 00000001     H   39749 39876B
 $$$945B       4 00007F46 00000001     I   39786 39809
 $$$945F       2 00007F5A 00000001     H   39803 39773B 39786B 39806
 $$$946B       4 00007F3E 00000001     I   39773 39807
 $$$947B       4 00007F68 00000001     I   39839 39858
 $$$947E       2 00007F5E 00000001     H   39816 39808  39810
 $$$947F       2 00007F74 00000001     H   39853 39812B 39828B 39839B 39855
 $$$949B       4 00007F62 00000001     I   39828 39856
 $$$95F        2 000002CA 00000001     H    8867  8857B
1WGS      (WGS2193) (13:01) (15MAR04) Ordinary Symbol and Literal Cross Reference                                           Page  184
 $$$950E       2 00007F78 00000001     H   39865 39857  39859
 $$$950F       2 00007F80 00000001     H   39872 39861B
 $$$951F       2 00007F96 00000001     H   39901 39891B
 $$$952B       4 00007F98 00000001     I   39911 39924
 $$$952F       2 00007F9E 00000001     H   39921 39911B 39923
 $$$953E       2 00007FA2 00000001     H   39931 39925
 $$$953F       2 00007FA6 00000001     H   39938 39927B
 $$$954        1 0000005C 00000001 A   U   39970 39967  39969
 $$$956B       1 00007FD8 00000001     X   40029 40036U
 $$$96F        2 00000314 00000001     H    9000  8926B
 $$$96T        2 000002E6 00000001     H    8929  8914B
 $$$967F       2 00008078 00000001     H   40326 40284B
 $$$967T       2 00008068 00000001     H   40287 40273B
 $$$971F       2 0000809C 00000001     H   40398 40356B
 $$$971T       2 0000808C 00000001     H   40359 40345B
 $$$977        1 00000058 00000001 A   U   40484 40481  40483
 $$$979B       1 0000813A 00000001     X   40555 40562U
 $$$98F        2 00000314 00000001     H    8996  8944B
 $$$980F       2 00008182 00000001     H   40690 40589B 40602B
 $$$982F       2 00008166 00000001     H   40645 40621B 40634B
 $$$982S       2 00008152 00000001     H   40612 40644B
 $$$985F       2 00008182 00000001     H   40686 40660B 40674B
 $$$987        1 00000050 00000001 A   U   40709 40706  40708
 $$$989B       1 000081AA 00000001     X   40755 40762U
 $$$99F        2 00000384 00000001     H    9148  9026B
 $$$990F       2 00008214 00000001     H   40954 40789B 40802B
 $$$992F       2 000081D6 00000001     H   40845 40821B 40834B
 $$$992S       2 000081C2 00000001     H   40812 40844B
 $$$995B       4 000081F2 00000001     I   40887 40898
 $$$995F       2 000081F6 00000001     H   40895 40887B 40897
 $$$995T       2 000081F6 00000001     H   40890 40863B 40876B
 $$$998E       2 000081FA 00000001     H   40905 40899
 $$$998F       2 00008214 00000001     H   40950 40901B
 $$$999F       2 00008214 00000001     H   40946 40920B 40934B
 @PAR          0 00000000 FFFFFFF5     @    1071 14526  14540  14544M 15975  15978M 17792  17795M 19760  19763M
 @RAR          0 00000000 FFFFFFF0     @    1136  2161   2169B
 @R0           0 00000000 FFFFFFFE     @     706   982U
 @R1           0 00000000 FFFFFFFD     @     719   978U  2167   2168  11111  11168  11667  11711  12973  13017  14117
                                                 14161  14571  15802  15848  15949  16099  16203  16356  17619  17665
                                                 17766  17916  18020  18173  18873U 19568  19614  19715  19888  20015
                                                 20168  22478  22522  23940  23984  27237  27250  27304  27317  27371
                                                 27384  27438  27451  27503  27784  29753  29867  30835  30917  32238
                                                 32251  32264  32270  32271  33161M 33760M 33784M 33922M 34141  34189
                                                 34578  34811  34850  35237  35270  35283  35316  35342  35549  35597
                                                 35818  35866  36595  36643  36778  37675  37715  38012  38025  38157
                                                 38263  39096  39289M 39772  39785  39791  39827  41339  43399  43442
                                                 43455  43583  43596  43966  43975  44001  44098
 @R10          0 00000000 FFFFFFF4     @     836   942U
 @R11          0 00000000 FFFFFFF3     @     849   938U
 @R12          0 00000000 FFFFFFF2     @     862   934U
 @R13          0 00000000 FFFFFFF1     @     875   930U  9605  10941  11257  11800  12817  13135  13961  14267  15646
                                                 16493  17452  18310  19412  20305  21126  22640  23658  24102  30177
                                                 30187  30508  34299  35423  35696  35965  36870  42109  43405M 43406
                                                 43408
 @R14          0 00000000 FFFFFFF0     @     888   926U  9534M  9534  10870M 10870  11195M 11195  11738M 11738  12746M
                                                 12746  13073M 13073  13890M 13890  14205M 14205  15575M 15575  16431M
                                                 16431  17381M 17381  18248M 18248  19341M 19341  20243M 20243  21055M
                                                 21055  22578M 22578  23587M 23587  24040M 24040  30406M 30406  34237M
                                                 34237  35360M 35360  35632M 35632  35901M 35901  36804M 36804
1WGS      (WGS2193) (13:01) (15MAR04) Ordinary Symbol and Literal Cross Reference                                           Page  185
 @R15          0 00000000 FFFFFFEF     @     901   922U 38230U 43735  47969U
 @R2           0 00000000 FFFFFFFC     @     732   974U 14571M 14584M 15722U 16621U 17528U 18438U 18840U 19488U 20433U
                                                 30239U 33350M 33760  33922  38064U 39532  39545  39565  39791M 40159
                                                 40172  40196  40209  40233  40246  40270  40283  40301  40314  40342
                                                 40355  40373  40386  40414  40427  40860  40873  40886  41339M 42238
                                                 42258  42412M 42443M 42456M 43674  43722  43836  43865  43878  43891
                                                 47101U 47327  47400U 47622U
 @R3           0 00000000 FFFFFFFB     @     745   970U 14541  14543  14583  14585  14586M 14941M 16848M 18998M 27797
                                                 33045M 41464M 46811U 47990U
 @R4           0 00000000 FFFFFFFA     @     758   966U  8447M 10074U 10319M 11031U 11340U 11487M 11588U 11874U 12368M
                                                 12893U 13209U 13527M 14037U 14341U 16648U 18465U 20460U 20682M 22397U
                                                 22714U 23250M 23863U 24176U 31594M 31804M 31831M 31935M 31967M 33304M
                                                 33350  40063  40601  40633  40801  40833  41064  41096  41382  41414
                                                 41461M 42303  42323  44882U 45069U 45325U
 @R5           0 00000000 FFFFFFF9     @     771   962U  8073U  8208U 30253U 32046U 37805U 38924U 42509U 46673U
 @R6           0 00000000 FFFFFFF8     @     784   958U 30246U 31038U 31438U 31651U 32039U 32495U 32650U 33414U 34002U
                                                 34643U 34918U 35017U 37798U 38385U 38519U 38651U 38948U 39329U 42502U
                                                 44131  44204  44267  44280  44299  44331  44338  44382  44388  44389
                                                 44425  44459  44460  44548  44580  44587  44631  44637  44638  44674
                                                 44708  44709  45111  45368  45384  45403  45422  45449M 45471M 45535
                                                 45551  45578M 45600M 45664  45682  45695  45714  47100  47119  47308
                                                 47446  47621  47922
 @R7           0 00000000 FFFFFFF7     @     797   954U  8053U  8216U 10145U 11348U 11882U 12198U 13217U 14349U 14625U
                                                 14778U 16629U 18446U 18881U 20441U 22722U 24184U 24423U 24533U 24627U
                                                 24696U 24765U 24834U 24903U 24972U 25041U 25110U 25179U 26200U 26310U
                                                 26420U 26530U 26640U 26721U 26803U 26886U 26975U 27064U 27167U 27592U
                                                 27700U 27871U 27981U 28049U 28116U 28197U 28278U 28359U 28440U 28501U
                                                 28568U 28678U 28788U 28898U 28979U 29060U 29141U 29222U 29288U 29354U
                                                 29420U 29486U 29572U 29659U 30220U 30524U 30647U 30708U 31019U 31419U
                                                 31632U 32020U 32413U 32631U 32847U 33395U 33983U 34333U 34624U 34899U
                                                 34998U 35102U 35438U 35708U 35977U 36355U 36419U 36483U 36673U 36940U
                                                 37073U 37218U 37314U 37779U 38366U 38500U 38632U 38929U 39137U 39310U
                                                 39586U 39959U 40473U 40698U 40962U 41228U 41484U 42482U 42614U 46821U
                                                 48000U
 @R8           0 00000000 FFFFFFF6     @     810   950U 12193U 31627U 32408U 33390U 33978U 36350U 37213U 39132U 39954U
                                                 40468U 42477U 46816U 47995U
 @R9           0 00000000 FFFFFFF5     @     823   946U
 ABSCENT       1 00000000 00000000 A   T    2177  2177
 ACCTOPTS      4 000049F8 00000001     F   25572 25203
 ACCTPSH       1 00000000 00000032     T   42532 42532
 ACCTPUSH      2 00004484 00000001     H   24648 24644  26010
 ALLOBLK       2 00005526 00000001     H   28000 22858  22873
 ALLOCYL       2 000055BA 00000001     H   28216 22993
 ALLOKB        2 000055EE 00000001     H   28297 22903  22918  22933
 ALLOMB        2 00005622 00000001     H   28378 22948  22963  22978
 ALLOMEM       2 00005556 00000001     H   28068 22888
 ALLOOPTS      4 00003AC0 00000001     F   22816 22761
 ALLOSEQ       2 00005682 00000001     H   28520 22843
 ALLOSQTY      2 00005656 00000001     H   28459 23008
 ALLOTRK       2 00005586 00000001     H   28135 22828
 ASCTBL        1 00000000 00000000 A   T    2185  2185
 BADVOL        2 000080C8 00000001     H   40456 40080B 40140B
 BDSNBUF     128 0000004C FFFFFFD2     C   42783 42910  42915  42928M 46461  46466  46685
 BDSNCHK       2 00009026 00000001     H   46423 44232B 45501B 45630B 45748B 46062B 46357B
 BDSNERAD      4 00000000 FFFFFFD2     A   42692 42867M 46676
 BDSNERID      8 00000008 FFFFFFD2     C   42694 42998M 43330M 43517M 43794M 44063M 44198M 44516M 44765M 44948M 45175M
                                                 45238M 45289  46563M 46649M 46677
 BDSNERR       4 000090A8 00000001     I   46573 42999B 43331B 43518B 43706B 43795B 44064B 44199B 44517B 44766B 44949B
                                                 45176B 45239B 46417B 46564B
1WGS      (WGS2193) (13:01) (15MAR04) Ordinary Symbol and Literal Cross Reference                                           Page  186
 BDSNESGP      4 00000004 FFFFFFD2     A   42693 42866M 42978  42993  43090  43105  43131  43177  43192  43218  43264
                                                 43279  43305  43325  43471  43497  43512  43774  43789  44043  44058
                                                 44178  44193  44496  44511  44745  44760  44869  44928  44943  45055
                                                 45155  45170  45218  45233  45288  46509  46524  46543  46558  46573
 BDSNEXIT      2 00009148 00000001     H   46807 44874B 45060B 45078B 45294B 45334B 46681B
 BDSNOK        6 000090FA 00000001     I   46685 46405B 46569B
 BDSNSG       60 00000010 FFFFFFD2     X   42782 42923  44227  45496  45625  45743  45783  45890  45907  46014  46031
                                                 46057  46186  46203  46309  46326  46352  46400
 BDSNSGCOD
               1 00000010 FFFFFFD2     R   42699 42708  42718  42728  42738  42748  42758  42768
 BDSNSGLENF
               4 0000001C FFFFFFD2     A   42774 46475
 BDSNWA      204 00000000 FFFFFFD2     J   42790 42811  42840U 42865M 42865  46829  46831  46832
 BLTBL         1 00000000 00000000 A   T    2187  2187
 BR            7 00000007 00000001 A   #    1026  7936M  8129M  8301M 10254M 11451M 12004M 12286M 13443M 14482M 14686M
                                                 14848M 16799M 18604M 18949M 20596M 23166M 24346M 24456M 24593M 24662M
                                                 24731M 24800M 24869M 24938M 25007M 25076M 25145M 26152M 26233M 26343M
                                                 26453M 26563M 26673M 26754M 26836M 26919M 27008M 27097M 27200M 27625M
                                                 27733M 27904M 28014M 28082M 28149M 28230M 28311M 28392M 28473M 28534M
                                                 28601M 28711M 28821M 28931M 29012M 29093M 29174M 29255M 29321M 29387M
                                                 29453M 29519M 29605M 29695M 30347M 30619M 30680M 30776M 31093M 31528M
                                                 31708M 32128M 32465M 32695M 32928M 33478M 34069M 34439M 34673M 34943M
                                                 35039M 35148M 35478M 35747M 36191M 36388M 36452M 36524M 36730M 37021M
                                                 37128M 37251M 37412M 37843M 38421M 38548M 38685M 39008M 39174M 39427M
                                                 39663M 40024M 40550M 40750M 41013M 41289M 41831M 42582M 42814M 46963M
 BTDZEROS      1 00000000 00000023     T   31663 31663  34028
 BTX           1 00000000 0000002D     T   39362 39362
 BUILDDSN      2 00008682 00000001     H   42798 42651  46873
 CATHACK       2 00005D84 00000001     H   30333 10180  11381  13369  14410  16713  18527  22755  24215
 CATHPRT       4 00005E60 00000001     F   30542 30729
 CATLINOK      2 00002AE0 00000001     H   18590 20537
 CATOPTS       4 00004BB0 00000001     F   25739 25208
 CATPSH        2 00004592 00000001     H   24993 13276  23053  24989  26085
 CATUNIT       2 0000438C 00000001     H   24332 24266
 CDSNERR       4 00009708 00000001     I   47935 47069B 47198B 47276B 47389B 47595B 47713B 47834B 47911B
 CDSNESGP      4 00000000 FFFFFFD1     A   46931 47008M 47064  47163  47178  47193  47241  47256  47271  47354  47369
                                                 47384  47560  47575  47590  47667  47682  47708  47788  47803  47829
                                                 47876  47891  47906  47935
 CDSNEXIT      2 00009722 00000001     H   47986 47974B
 CDSNOK        2 00009720 00000001     H   47980 47931B
 CDSNTYPE      4 00000004 FFFFFFD1     F   46932 47078M 47282M 47456M 47760  47916M
 CDSNWA        8 00000000 FFFFFFD1     J   46939 46960  46989U 48008  48010  48011
 CHECKIOB      1 00000000 00000000 A   T    2233  2233
 CHECKVOL      2 00007FBE 00000001     H   40008 40004
 CHKWVOL       2 000080BA 00000001     H   40447 40162B 40175B 40199B 40212B 40236B 40249B 40304B 40317B 40376B 40389B
                                                 40417B 40430B
 CHVVOL        8 00000000 FFFFFFD6     C   39991 40056  40063M 40097  40117  40146  40448
 CHVWA         8 00000000 FFFFFFD6     J   39998 40021  40050U 40481  40483  40484
 CKACCESS      2 00006344 00000001     H   32112 10184  11384  13372  14413  22758  24217
 CKACEXIT      2 000063EA 00000001     H   32401 32333B 32383B
 CKACGRP       2 00000000 FFFFFFDD     C   32095 32270M 32292  32358
 CKACUSER      3 00000002 FFFFFFDD     C   32096 32271M 32307  32373
 CKACWA        5 00000000 FFFFFFDD     J   32103 32125  32154U 32421  32423  32424
 COMMAND       1 00000000 00000000 A   T    2173  2173
 COMMSEG       1 00000000 00000000 A   T    2174  2174
 CP         4096 00000000 FFFFFFEC     J    6187  1162U
 CP#XSTK       1 00000010 FFFFFFEC A   U    3919  3920
 CPABYCT       4 000005B0 FFFFFFEC     F    3978  8739
 CPACCTSV      5 000001B8 FFFFFFEC     C    2705  9161M  9161
1WGS      (WGS2193) (13:01) (15MAR04) Ordinary Symbol and Literal Cross Reference                                           Page  187
 CPACFLG       1 000005D5 FFFFFFEC     R    4022  4026   4031   4036   4041   4046
 CPACFLN       4 000005C4 FFFFFFEC     F    4014  4049   4049
 CPAFLAG       1 000005C3 FFFFFFEC     R    3986  3990   3995   4000   4005
 CPALNCT       4 000005AC FFFFFFEC     F    3977  8825
 CPANAME       8 00000588 FFFFFFEC     C    3968  4064   4064
 CPATBYTS      4 00000564 FFFFFFEC     F    3950  8756
 CPATLINS      4 00000578 FFFFFFEC     F    3956  8842
 CPAUTFLG      1 000008A9 FFFFFFEC     R    4332  4336   4341   4346   4351
 CPAUTHGP      2 000008A7 FFFFFFEC     C    4328 32358
 CPAUTHUS      3 000008A4 FFFFFFEC     C    4327 32373
 CPCACCT       5 00000C48 FFFFFFEC     C    4997 42603M
 CPCGRP        2 00000C4B FFFFFFEC     C    4999 42111
 CPCHFLAG      1 00000B68 FFFFFFEC     R    4959  4963
 CPCMD       235 00000242 FFFFFFEC     C    2812 39207  39208M 39235M 39271M 39287  39295
 CPCMDLEN      2 00000240 FFFFFFEC     H    2811 39285M 39288  39290  39292M 39296
 CPCUSER       3 00000C48 FFFFFFEC     C    4998 42110
 CPDELTA       4 00000738 FFFFFFEC     F    4071 32603  32832
 CPDEVP        4 00000E58 FFFFFFEC     A    5819  7967M  8150   8197M  8197  31115  31559  31730  32487  32717  32959
                                                 33509  37434  37865  38443  38570  38707
 CPDFLG        1 0000084C FFFFFFEC     R    4219  4223   4228   4233   4238   4243
 CPDFLG2       1 0000084D FFFFFFEC     R    4248  4252   4257   4262   4267   4272   4277
 CPDOUB        8 00000C88 FFFFFFEC     D    5205 33745  33784  33908  37969  38084  38859
 CPERRID       8 00000886 FFFFFFEC     C    4318  8420M  9620M 10310M 10659M 10956M 11174M 11717M 12329M 12832M 13486M
                                                 13976M 14892M 15661M 17467M 19427M 20639M 21141M 23210M 23673M 31246M
                                                 32523M 32576M 32752M 32985M 36896  37053  37058  37496M 37729M 37895M
                                                 38310M 42173M
 CPEXFLG       1 00000758 FFFFFFEC     R    4088  4092
 CPEXFLG2      1 00000759 FFFFFFEC     R    4098  4107   4117
 CPEXFLG3      1 0000075A FFFFFFEC     R    4124  4128   4133
 CPEXTFLG      1 00000E28 FFFFFFEC     R    5770  5774   5779   5784   5789   5794   5799
 CPFABORT    128 00000D5A FFFFFFEC         5536  2137M  2137   2142M  2142
 CPFDSNNE     16 00000D5C FFFFFFEC         5586 42183
 CPFERROR     64 00000D5A FFFFFFEC         5541  2136M  2136   2141M  2141
 CPFINFOP      4 00000E54 FFFFFFEC     A    5818  8322  10275  11472  12307  13464  14870  16821  18971  20617  23188
                                                 30369  30798  31740  32158  34460  34694  34964  39195
 CPFKWENT      1 00000080 FFFFFFEC A   U    3571 32321
 CPFNCOND      4 00000E28 FFFFFFEC         5799 36908
 CPFNTEX       1 00000040 FFFFFFEC A   U    5388  5389
 CPFRDEXE      2 00000D89 FFFFFFEC         5714  8770   8856
 CPFRDRNG      1 00000D88 FFFFFFEC     R    5656  5660   5665   5670   5675   5680   5685   5690
 CPFRDSRC      1 00000D89 FFFFFFEC     R    5695  5704   5714   5724
 CPFTRUNC     64 00000D56 FFFFFFEC         5441 33597M
 CPFUNUM       1 00000080 FFFFFFEC A   U    5387  5389
 CPFVER       32 00000D58 FFFFFFEC         5501 21290
 CPFXDFLG      1 000007E4 FFFFFFEC     R    4166  4170   4175
 CPFXMULT     16 00000E28 FFFFFFEC         5789  8749   8835
 CPGFLG1       1 00000474 FFFFFFEC     R    3529  3533   3538   3543   3548   3553   3883   3883
 CPGFLG10      1 0000047D FFFFFFEC     R    3766  3770   3775   3780   3785   3790   3795
 CPGFLG11      1 0000047E FFFFFFEC     R    3801  3805   3810
 CPGFLG12      1 0000047F FFFFFFEC     R    3816  3820   3825   3830
 CPGFLG13      1 00000480 FFFFFFEC     R    3836  3840
 CPGFLG14      1 00000481 FFFFFFEC     R    3846  3850   3855   3860   3865   3870
 CPGFLG3       1 00000476 FFFFFFEC     R    3569 32323
 CPGFLG4       1 00000477 FFFFFFEC     R    3582  3593   3602   3611   3620   3629
 CPGFLG5       1 00000478 FFFFFFEC     R    3635  3639   3644   3649   3654   3659   3664   3669   3674
 CPGFLG6       1 00000479 FFFFFFEC     R    3680  3684   3689   3694
 CPGFLG7       1 0000047A FFFFFFEC     R    3700  3704   3709   3714   3719
 CPGFLG8       1 0000047B FFFFFFEC     R    3725  3729   3734   3739   3744
 CPGFLG9       1 0000047C FFFFFFEC     R    3750  3754   3760
1WGS      (WGS2193) (13:01) (15MAR04) Ordinary Symbol and Literal Cross Reference                                           Page  188
 CPGRPSV       2 000001BB FFFFFFEC     C    2707  9239  32292  42113
 CPINIT        1 00000174 FFFFFFEC     U    2699  6156
 CPJESFLG      1 000009E1 FFFFFFEC     R    4431  4435   4440   4445   4450   4455   4460   4465   4470
 CPJESFLY      1 000009FD FFFFFFEC     R    4481  4485   4490   4495
 CPJESHFL      1 000009E0 FFFFFFEC     R    4416  4420   4425   4504   4504
 CPLFLG10      1 00000D59 FFFFFFEC     R    5522  5526
 CPLFLG11      1 00000D5A FFFFFFEC     R    5532  5536   5541   5546   5551
 CPLFLG12      1 00000D5B FFFFFFEC     R    5557  5561
 CPLFLG14      1 00000D5C FFFFFFEC     R    5567  5571   5576   5581   5586   5591
 CPLFLG6       1 00000D55 FFFFFFEC     R    5397  5401   5406   5411   5416   5421   5426
 CPLFLG7       1 00000D56 FFFFFFEC     R    5432  5436   5441   5446   5451   5456
 CPLFLG8       1 00000D57 FFFFFFEC     R    5462  5466   5471   5476   5481
 CPLFLG9       1 00000D58 FFFFFFEC     R    5487  5491   5496   5501   5506   5511   5516
 CPLIB         8 000008AB FFFFFFEC     C    4390  9284   9317   9324  42035  42035
 CPLOCALZ      1 00000C48 FFFFFFEC     U    4989  6150   6150
 CPMFLG        1 0000084F FFFFFFEC     R    4286  4290
 CPMODFLG      1 00000C78 FFFFFFEC     R    5017  5021   5026   5031   5036   5041
 CPNAMELN      1 00000010 FFFFFFEC A   U    3912  4159
 CPNEDPFX     10 00000E29 FFFFFFEC     X    5803  5804   5805
 CPNSCANP      4 0000008C FFFFFFEC     A    2572  9526   9533   9556   9565   9572   9588   9602  10862  10869  10892
                                                 10901  10908  10924  10938  11187  11194  11213  11222  11229  11245
                                                 11254  11730  11737  11756  11765  11772  11788  11797  12037  12738
                                                 12745  12768  12777  12784  12800  12814  13065  13072  13091  13100
                                                 13107  13123  13132  13882  13889  13912  13921  13928  13944  13958
                                                 14197  14204  14223  14232  14239  14255  14264  15567  15574  15597
                                                 15606  15613  15629  15643  16423  16430  16449  16458  16465  16481
                                                 16490  17373  17380  17403  17412  17419  17435  17449  18240  18247
                                                 18266  18275  18282  18298  18307  19333  19340  19363  19372  19379
                                                 19395  19409  20235  20242  20261  20270  20277  20293  20302  21047
                                                 21054  21077  21086  21093  21109  21123  22570  22577  22596  22605
                                                 22612  22628  22637  23579  23586  23609  23618  23625  23641  23655
                                                 24032  24039  24058  24067  24074  24090  24099  27223  29737  29783
                                                 29794  29801  29816  29855  29966  29973  29988  30104  30111  30126
                                                 30174  30184  30191  30204  30398  30405  30428  30437  30444  30460
                                                 30505  34229  34236  34255  34264  34271  34287  34296  34474  34481
                                                 34494  34708  34715  34728  35063  35070  35085  35352  35359  35378
                                                 35387  35394  35410  35420  35624  35631  35650  35659  35666  35682
                                                 35693  35893  35900  35919  35928  35935  35951  35962  36224  36796
                                                 36803  36822  36831  36838  36854  36867  37044  37160  37275  37282
                                                 37297  42039  42060  42069  42076  42092  42106
 CPNUMFLG      1 00000C79 FFFFFFEC     R    5047  5059
 CPORVCMD      1 00000140 FFFFFFEC     R    2581  2585   2590   2595   2600   2605   2610   2615   2620   2625   2625
                                                  2676   2676
 CPORVFLG      1 00000149 FFFFFFEC     R    2632  2636   2641   2646   2651   2656   2661   2666   2671
 CPORVWF       1 00000150 FFFFFFEC     R    2684  2688
 CPOSCANX      4 00000CA8 FFFFFFEC     F    5216  5283   5283
 CPR          11 0000000B 00000001 A   #    1090  1162U
 CPRACBAD     16 000001FC FFFFFFEC         2750  2784   2784   2785   2785
 CPRACF1       1 000001FC FFFFFFEC     R    2731  2735   2740   2745   2750   2755   2760   2765   2770   2786
 CPRACPSW     32 000001FC FFFFFFEC         2745  2783   2783   2785   2785
 CPRACUND     64 000001FC FFFFFFEC         2740  2783   2783   2784   2784
 CPRCVCUR      4 00000730 FFFFFFEC     A    4067  4069   4069
 CPRFLG        1 000008AA FFFFFFEC     R    4357  4361   4366   4371   4376   4381   4386
 CPS         254 00000344 FFFFFFEC     X    3501  3504   3505   3507   3507
 CPSACCT       5 000003B4 FFFFFFEC     C    3100  3263   3263
 CPSAMCOD      1 00000A22 FFFFFFEC     R    4553  4561   4571   4581   4590   4599   4608   4618   4627   4636
 CPSAMFLG      1 00000A21 FFFFFFEC     R    4513  4517   4522   4527   4532   4537   4542   4547   4658   4658
 CPSCNFLG      1 00000CD0 FFFFFFEC     R    5229  5240   5249   5260
 CPSCNF2       1 00000CD1 FFFFFFEC     R    5265  5269
1WGS      (WGS2193) (13:01) (15MAR04) Ordinary Symbol and Literal Cross Reference                                           Page  189
 CPSCNMAX      1 00000014 FFFFFFEC A   U    5281  5282
 CPSCRI        2 00000434 FFFFFFEC     H    3490  3495   3495
 CPSEG        60 00000050 FFFFFFEC     X    2570  8434   9072   9090  10991  11129  11280  12118  12150  12178  12343
                                                 12516  12534  13048  13500  13634  13652  14180  14906  15077  15095
                                                 16269  18086  20081  20653  20813  20831  21346  21364  21472  21490
                                                 21557  21575  22553  23224  23392  23410  24015  27566  30953  30981
                                                 34208  36305  36335  37198  37516  37749  37909  38330  42208
 CPSEGCOD      1 00000050 FFFFFFEC     R    2487  2496   2506   2516   2526   2536   2546   2556
 CPSEGLENF
               4 0000005C FFFFFFEC     A    2562 12078M 12078  12093  36265M 36265  36280
 CPSEGMRKF
               4 00000058 FFFFFFEC     A    2561 12093  36280
 CPSFL         1 00000384 FFFFFFEC     R    2838  2842   2847   2852   2857   2862
 CPSFLG        1 000003F8 FFFFFFEC     R    3378  3382   3387   3392   3397   3402   3407   3412   3417
 CPSFLG2       1 000003F9 FFFFFFEC     R    3423  3427   3432   3437
 CPSFL2        1 00000385 FFFFFFEC     R    2868  2872   2877   2882   2887
 CPSFL3        1 00000386 FFFFFFEC     R    2893  2897   2902   2907
 CPSFL4        1 00000387 FFFFFFEC     R    2913  2917   2922   2927
 CPSFL5        1 00000388 FFFFFFEC     R    2933  2937   2942   2947
 CPSGRP        2 000003B7 FFFFFFEC     C    3102 44586  44673  45858  45863  46154  46159
 CPSKAFL       1 000003BF FFFFFFEC     R    3234  3238   3243   3248   3253   3258
 CPSKIFL       1 000003BE FFFFFFEC     R    3189  3193   3198   3203   3208   3213   3218   3223   3228
 CPSOF         1 000001F8 FFFFFFEC     X    2721  2723   2723
 CPSOFLAG      1 00000416 FFFFFFEC     R    3448  3452   3457   3462   3467   3472
 CPSOPST       4 000003C4 FFFFFFEC     F    3268  3497   3497
 CPSPORT       8 00000354 FFFFFFEC     C    2832  2952   2952
 CPSQFLG       1 000003EC FFFFFFEC     R    3297  3301
 CPSSFLG       1 000003BB FFFFFFEC     R    3107  3111   3116   3121   3126   3131   3136
 CPSSTART      4 00000344 FFFFFFEC     F    2824  2828   2828   3264   3264   3369   3369   3501   3501
 CPSSTAT       1 0000038F FFFFFFEC     R    3044  3048   3053   3058   3063   3068   3073   3078
 CPSTACF       1 000003BC FFFFFFEC     R    3142  3146   3151   3156   3161   3166   3171   3176   3181
 CPSTART       4 00000000 FFFFFFEC     C    2460  6154   6158
 CPSTFLAG      1 000003EA FFFFFFEC     R    3275  3279   3284   3289
 CPSTYPE       1 0000038C FFFFFFEC     R    2957  2966   2976   2986   2996   3006   3016   3026   3036
 CPSUFLG       1 000003EE FFFFFFEC     R    3312  3316   3321   3326   3331   3336   3341   3346   3351
 CPSUFLG2      1 000003EF FFFFFFEC     R    3357  3361   3366
 CPSUSER       3 000003B4 FFFFFFEC     C    3101 44337  44424  45982  45987  46277  46282
 CPSVPGM       8 0000039C FFFFFFEC     C    3090  3096   3096
 CPS1ST        4 0000038C FFFFFFEC     F    2954  3499   3499
 CPTEMPP#      1 0000005F FFFFFFEC A   U    4407  4409
 CPTRMFL1      1 00000C7A FFFFFFEC     R    5065  5069   5074   5079   5203   5203
 CPTRMFL2      1 00000C7B FFFFFFEC     R    5085  5089   5094   5099   5104   5109   5114
 CPTRMFL3      1 00000C7C FFFFFFEC     R    5120  5124   5129   5134   5139   5144   5149   5154
 CPTRMFL4      1 00000C7D FFFFFFEC     R    5160  5164   5169   5174   5179   5184   5189   5194
 CPUSED        1 00000FBC FFFFFFEC A   U    6154  6155
 CPUSERSV      3 000001B8 FFFFFFEC     C    2706  9193  32307  42112
 CPVACURS      8 00000AF0 FFFFFFEC     D    4932  4933   4934
 CPVCURS       8 00000AE0 FFFFFFEC     D    4926  4927   4928
 CPVFLAG       1 00000AC8 FFFFFFEC     R    4727  4731   4736   4741   4746   4751
 CPVFLAG2      1 00000AC9 FFFFFFEC     R    4757  4761   4766   4771   4776   4781   4786
 CPVFLAG3      1 00000ACA FFFFFFEC     R    4792  4796   4801   4806   4811   4816   4821
 CPVFLAG4      1 00000ACB FFFFFFEC     R    4827  4831   4836   4841
 CPVLFLAG      1 00000ACE FFFFFFEC     R    4896  4900   4905   4910
 CPVMODE       1 00000ACC FFFFFFEC     R    4849  4853   4858   4863   4868   4873   4878   4883   4888
 CPVTWID       2 00000AD0 FFFFFFEC     H    4916  4919   4919
 CPWK1         4 00000D60 FFFFFFEC     F    5600  5615   5638
 CPWK2         4 00000D64 FFFFFFEC     F    5601  5616   5630
 CPWK3         4 00000D68 FFFFFFEC     F    5602  5617   5631
 CPWK4         4 00000D6C FFFFFFEC     F    5603  5618   5632
1WGS      (WGS2193) (13:01) (15MAR04) Ordinary Symbol and Literal Cross Reference                                           Page  190
 CPWK5         4 00000D70 FFFFFFEC     F    5604  5620   5625   5633
 CPWK6         4 00000D74 FFFFFFEC     F    5605  5621   5626   5634   5641   5643
 CPWK7         4 00000D78 FFFFFFEC     F    5606  5619   5635
 CPWPATH       8 00000208 FFFFFFEC     C    2797 37552  37558
 CPXFLAG       1 000007FD FFFFFFEC     R    4194  4198
 CPXSTATE      4 000007F8 FFFFFFEC     F    4188  4201   4201
 CTFOUND       2 00005F00 00000001     H   30605 30554  30569
 CTLGOPTS      4 000042C4 00000001     F   24254 24219
 CTOTHER       2 00005F2C 00000001     H   30666 30584  30599
 CV         4016 00000000 FFFFFFEE     J    2363  1171U
 CVABSRTN      4 0000088C FFFFFFEE     V    2177  2152
 CVBLANKS    235 000004D8 FFFFFFEE     C    1957 14521  41894  41971  42034  42928  43809  44070  45048  46434
 CVBRMSK       1 00000751 FFFFFFEE     X    2093  2094   2095
 CVCFLAG       1 00000A00 FFFFFFEE     R    2258  2262   2267   2272   2277   2282
 CVCHKST       8 000009F0 FFFFFFEE     D    2248  2338   2338
 CVCHKST2      8 00000E28 FFFFFFEE     D    2341  2344   2344
 CVCOMRTN      4 0000087C FFFFFFEE     V    2173  2143
 CVCURJCB      4 000001C8 FFFFFFEE     A    1442 10046  11003  11311  11560  11845  12865  13180  14009  14312  15694
                                                 16592  17500  18409  19460  20404  22369  22685  23835  24147  38163
 CVDBGFLG      1 000004CC FFFFFFEE     R    1947  1951
 CVENT         4 0000074C FFFFFFEE     I    2091  7936B  8129B  8301B 10254B 11451B 12004B 12286B 13443B 14482B 14686B
                                                 14848B 16799B 18604B 18949B 20596B 23166B 24346B 24456B 24593B 24662B
                                                 24731B 24800B 24869B 24938B 25007B 25076B 25145B 26152B 26233B 26343B
                                                 26453B 26563B 26673B 26754B 26836B 26919B 27008B 27097B 27200B 27625B
                                                 27733B 27904B 28014B 28082B 28149B 28230B 28311B 28392B 28473B 28534B
                                                 28601B 28711B 28821B 28931B 29012B 29093B 29174B 29255B 29321B 29387B
                                                 29453B 29519B 29605B 29695B 30347B 30619B 30680B 30776B 31093B 31528B
                                                 31708B 32128B 32465B 32695B 32928B 33478B 34069B 34439B 34673B 34943B
                                                 35039B 35148B 35478B 35747B 36191B 36388B 36452B 36524B 36730B 37021B
                                                 37128B 37251B 37412B 37843B 38421B 38548B 38685B 39008B 39174B 39427B
                                                 39663B 40024B 40550B 40750B 41013B 41289B 41831B 42582B 42814B 46963B
 CVENTBR       2 00000750 FFFFFFEE     I    2092  2093
 CVERRMSG      4 000007C8 FFFFFFEE     I    2136  9865B 21747B 27577B 31251B 32528B 32581B 32757B 32990B 33151B 33264B
                                                 35220B 35299B 35613B 35882B 36659B 38787B 39063B 39108B
 CVERROR       4 000007D6 FFFFFFEE     I    2141  2157B 32186B 35186B 35252B 35516B 35564B 35785B 35833B 36562B 36610B
                                                 39124B
 CVEXIRTN      4 0000077C FFFFFFEE     V    2121  2117
 CVEXNO        1 00000000 00000027     T   34029 34029
 CVFCHRKBPR
               8 000004C9 FFFFFFEE         1862  1878   1878
 CVFCHRKBSE
               4 000004C9 FFFFFFEE         1867  1878   1878
 CVFCHRKCPR
               2 000004C9 FFFFFFEE         1884  1900   1900
 CVFCHRKCSE
               1 000004C9 FFFFFFEE         1889  1900   1900
 CVFCHRUBPR
             128 000004C9 FFFFFFEE         1818  1834   1834
 CVFCHRUBSE
              64 000004C9 FFFFFFEE         1823  1834   1834
 CVFCHRUCPR
              32 000004C9 FFFFFFEE         1840  1856   1856
 CVFCHRUCSE
              16 000004C9 FFFFFFEE         1845  1856   1856
 CVFL          1 000004C4 FFFFFFEE     R    1614  1618   1623   1628   1633   1638   1643   1648   1653
 CVFL2         1 000004C5 FFFFFFEE     R    1659  1663   1668   1673   1678   1683   1688   1693   1698
 CVFL3         1 000004C6 FFFFFFEE     R    1704  1708   1713   1718   1723   1728   1733   1738   1743
 CVFL4         1 000004C7 FFFFFFEE     R    1749  1753   1758   1763   1768   1773   1778   1783
 CVFL5         1 000004C8 FFFFFFEE     R    1789  1793   1798   1803   1808
1WGS      (WGS2193) (13:01) (15MAR04) Ordinary Symbol and Literal Cross Reference                                           Page  191
 CVFL6         1 000004C9 FFFFFFEE     R    1814  1818   1823   1835   1840   1845   1857   1862   1867   1879   1884
                                                  1889   1901
 CVHEAP#       1 00000200 FFFFFFEE A   U    1520  1521
 CVINVRTN      4 00000888 FFFFFFEE     V    2176  2146
 CVJESFLG      1 000004CA FFFFFFEE     R    1907  1911
 CVLGPATH    128 00000068 FFFFFFEE         1256 37943
 CVLNKRGS      4 00000780 FFFFFFEE     F    2123  2098M  2124  37467M
 CVLNKRTN      4 000007B0 FFFFFFEE     U    2124  2113M
 CVLOCK1       1 00000088 FFFFFFEE     R    1265  1269   1274
 CVLOCK2       1 00000089 FFFFFFEE     R    1279  1283
 CVLOCK3       1 0000008A FFFFFFEE     R    1288  1292
 CVLOCK4       1 0000008B FFFFFFEE     R    1297  1301
 CVLOGMOD      1 00000068 FFFFFFEE     R    1252  1256
 CVMACH        1 00000067 FFFFFFEE     R    1212  1216   1221   1226   1231   1236   1241   1246
 CVMILRTN      4 00000884 FFFFFFEE     V    2175  2155
 CVNOARTN      4 00000890 FFFFFFEE     V    2178  2149
 CVNWDATE      4 00000608 FFFFFFEE     F    1980  1984   1984
 CVNWMPG#      1 00000008 FFFFFFEE A   U    1982  1983
 CVOLHACK      2 00005F68 00000001     H   30762 10181  11382  13370  16714  22756
 CVPFXRTN      1 00000000 00000000 A   T    2121  2121
 CVPGFLAG      1 00000A01 FFFFFFEE     R    2288  2292   2297   2302
 CVPIOSZ       1 00004F80 FFFFFFEE A   U    1351  1353
 CVPPDBQH      4 0000009C FFFFFFEE     A    1309  1310
 CVPSFNO       1 000003E9 FFFFFFEE A   N    1473  1475
 CVPSLNO       1 000007CF FFFFFFEE A   N    1474  1475
 CVPSZ         1 00004F78 FFFFFFEE A   U    1353 14646
 CVPXSZ        1 00000008 FFFFFFEE A   U    1352  1353
 CVR          12 0000000C 00000001 A   #    1103  1171U
 CVRKEY        1 00000008 FFFFFFEE A   U    2046  2047
 CVSEGRTN      4 00000880 FFFFFFEE     V    2174  2138
 CVSTACK#      1 00000080 FFFFFFEE A   U    1512  1513
 CVSTART       4 00000000 FFFFFFEE     C    1185  2356
 CVTRC         4 00000768 FFFFFFEE     I    2113  2099B 37468B
 CVTRCRTN      4 00000778 FFFFFFEE     V    2120  2114
 CVUPPTBL      4 000008A8 FFFFFFEE     V    2183 40062
 CVUSFNO       1 00000001 FFFFFFEE A   N    1480  1482
 CVUSLNO       1 000003E7 FFFFFFEE A   N    1481  1482
 CVVOL#        1 00000005 FFFFFFEE A   U    2331  2332
 CVWGRDOP      4 00000170 FFFFFFEE     F    1413  8353   8354M
 CVWGWROP      4 0000016C FFFFFFEE     F    1412  8375   8376M
 CVWPATH       8 00000244 FFFFFFEE     C    1500 37584  37590
 CVWTOFLG      1 000004CB FFFFFFEE     R    1917  1921   1926   1931   1936   1941
 DEBUGSG       1 00000000 00000000 A   T    2074  2074
 DEV          12 00000000 FFFFFFEB     J    4712  4720
 DEVMAX#       1 00000002 FFFFFFEC A   U    4663  4720
 DEVTYPE       1 00000001 FFFFFFEB     R    4680  4689   4699
 DIROPTS       4 000021D8 00000001     F   16653 16717
 DOTRKMSG      2 00000EF8 00000001     H   11988 11915
 DOTTBL        1 00000000 00000000 A   T    2190  2190
 DRENCFLG      1 00000F9F FFFFFFEC     R    6118  6122   6127   6132   6137   6142
 DRENPROT      1 00000F9E FFFFFFEC     R    6105  6113
 DSNCATTP      1 00000000 FFFFFFE2     C    7306  7379  18651
 DSNCHR        1 00009853 00000001     X   48060 47106  47405  47627  48061  48063  48065  48067  48069  48071  48073
                                                 48075  48077  48079
 DSNDEVTP      1 00000035 FFFFFFE2     C    7324 18725  18776
 DSNFLSQ       4 00000036 FFFFFFE2     C    7325  7326
 DSNINFO     235 00000000 FFFFFFE2     J    7387 18634U
 DSNON        40 00000E90 FFFFFFEC     C    5838  5839
 DSNOPTS       4 00002944 00000001     F   18470 18533
1WGS      (WGS2193) (13:01) (15MAR04) Ordinary Symbol and Literal Cross Reference                                           Page  192
 DSNRC##       1 0000001F FFFFFFE2 A   U    7379  7380
 DSNWADSN     44 00000E5C FFFFFFEC     C    5825  5826   5827   5828   5837   5845   6076   6082   6084   6090   6093
                                                  6095   6098   6147
 DSNWAF4       1 00000F37 FFFFFFEC     R    5893  5897   5902   5907   5912   5917   5922   5927   5932
 DSNWAF5       1 00000F38 FFFFFFEC     R    5938  5942   5947   5952   5957   5962   5967   5972   5977
 DSNWAF6       1 00000F39 FFFFFFEC     R    5983  5987   5992   5997   6002   6007   6012   6017   6022
 DSNWAF7       1 00000F3A FFFFFFEC     R    6028  6032   6037   6042   6047
 DSNXG         1 00000004 FFFFFFEC A   U    5830  5832
 DSNXGL        1 00000003 FFFFFFEC A   U    5831  5832
 DSNXU         1 00000007 FFFFFFEC A   U    5832  5834
 DSNXUL        1 00000004 FFFFFFEC A   U    5833  5834
 DSSIZ         1 00000108 FFFFFFEC A   U    6076  6084   6093   6098
 DTB           1 00000000 00000020     T   30273 30273
 EBCTBL        1 00000000 00000000 A   T    2186  2186
 EBCTBL7       1 00000000 00000000 A   T    2189  2189
 ECBLIST       1 00000000 00000000 A   T    2049  2049
 EDTCOMNH      1 00000000 00000030     T   39377 39377
 EPARTBL       1 00000000 00000000 A   T    2181  2181
 FFFAPPD       4 00000001 FFFFFFE0         7775  8610  10040  10499  31890
 FFFCHFMT     32 00000002 FFFFFFE0         7804  9457
 FFFDIFFV     64 00000002 FFFFFFE0         7799  9419  10793  21004
 FFFNRACF     16 00000002 FFFFFFE0         7809  9365M  9495  10739M 10831  12615M 12669  13797M 13851  20912M 20966
                                                 23495M 23549
 FFFOLD        5 00000000 FFFFFFE0         7741  8925
 FFFPASSW    128 00000002 FFFFFFE0         7794  9381  10755  12631  13813  20928  23511
 FFFPDS        8 00000002 FFFFFFE0         7814 12707
 FFFREAD       1 00000001 FFFFFFE0         7755  8342   8565   8698M 10454  10587M 31784
 FFFREPL       8 00000001 FFFFFFE0         7785  8655  10028  10544  31902
 FFFWINGS      1 00000000 FFFFFFE0         7701  8911  32180
 FFFWRITE      2 00000001 FFFFFFE0         7765  8520   9945  10016  10409  31878
 FFHOST      128 00000090 FFFFFFE0     C    7878  9059   9127  10692  11515  12503  12571  13621  13689  15064  15132
                                                 16909  20800  20868  23379  23447  30421  30924M 30995M 34811M 37352
 FFHOSTL       4 0000008C FFFFFFE0     F    7877  9025M  9025   9043   9064   9132  10635M 10635  10653  10697  11520
                                                 12469M 12469  12487  12508  12576  13587M 13587  13605  13626  13694
                                                 15030M 15030  15048  15069  15137  16871M 16871  16914  17310  20766M
                                                 20766  20784  20805  20873  23345M 23345  23363  23384  23452  30390M
                                                 30390  30426  30491M 30491  30882M 30882  30923M 30994M 34782M 34980M
                                                 34980
 FFINFO      928 00000000 FFFFFFE0     J    7893  8330U 30377U 31748U 32166U 34468U 34702U 34972U 39203U 41880U
 FFMISC        1 00000002 FFFFFFE0     R    7790  7794   7799   7804   7809   7814
 FFNAME      128 0000000C FFFFFFE0     C    7876  8474  13554  30804  30906  39271  41941
 FFNAMEL       4 00000008 FFFFFFE0     F    7875  8414   8479  13559  30803  39259  39279  41895
 FFOPTS      256 00000114 FFFFFFE0     C    7880  9549  10885  12761  13905  15590  17396  19356  21070  23602  42053
 FFOPTSL       4 00000110 FFFFFFE0     F    7879  9554  10890  12766  13910  15595  17401  19361  21075  23607  42058
 FFPHOST     128 00000320 FFFFFFE0     C    7886 30924  30968  30995  34850M
 FFPHOSTL      4 0000031C FFFFFFE0     F    7885 30498M 30498  30900M 30900  30923  30973  30994  34783M 34987M 34987
 FFPNAME     128 0000029C FFFFFFE0     C    7884  8975  42018
 FFPNAMEL      4 00000298 FFFFFFE0     F    7883  8943   8980  41965  41972
 FFPTYPE       1 00000003 FFFFFFE0     R    7819  7828   7838   7848   7858   7868   8911   8925
 FFRNAME     128 00000218 FFFFFFE0     C    7882 10346  12395  13738  14968  20709  23277  32206  34578M 37351  39235
                                                 42383M 42410
 FFRNAMEL      4 00000214 FFFFFFE0     F    7881 10304  10351  12323  12400  13480  13743  14886  14973  20633  20714
                                                 23204  23282  32211  34550M 39209  39243  42395M 42411  42457  42459M
 FFRQTYPE      1 00000001 FFFFFFE0     R    7746  7755   7765   7775   7785
 FFTYPE        1 00000000 FFFFFFE0     R    7692  7701   7711   7721   7731   7741
 FILEOPTS      4 00004E30 00000001     F   25983 10186  11386
 FILESEQ       2 000043E2 00000001     H   24442 24281
 FILPB       476 00000000 FFFFFFD5     J   41598 41799  41890U 42151  42854U 44857  45021  45276  47003U
 FILPBACCOUNT
1WGS      (WGS2193) (13:01) (15MAR04) Ordinary Symbol and Literal Cross Reference                                           Page  193
               6 00000144 FFFFFFD5     C   41547 41548  41549  43019M 43019  43242M 43242  43294  43299  43349M 43349
                                                 43363  43368  43405  43406M 43407M 43408M 43486  43491  43524  43525
                                                 43532M 43532
 FILPBCNAME
             128 000000B9 FFFFFFD5     C   41543 41971M 42018M 42646  44820M 44820  44867  45191M 45191  45286
 FILPBDSACCT
               5 00000034 FFFFFFD5     C   41538 42899M 42899  45062M 45297M 46740M 46741M 46793M 46794M
 FILPBDSMEM
               8 0000002C FFFFFFD5     C   41537 42290  42291  42291  42353  42443  42892M 42892  43809M 43836M 43852
                                                 43904M 43904  44070M 44098M 44796  44808M 44808  44875M 44901M 44901
                                                 44984M 44984  45308M 45308  45314M 46434  46447M 46447
 FILPBDSNAME
              44 00000000 FFFFFFD5     C   41536 42225  42226  42226  42288  42383  42885M 42885  45061M 45296M 46685M
                                                 46706  46720  46734  46740  46741  46773  46787  46793  46794  46892
                                                 47028  47033  47152  47157  47230  47235  47343  47348  47549  47554
                                                 47697  47702  47818  47823  47865  47870
 FILPBDTYPE
               1 000001D5 FFFFFFD5     R   41557 41566  41576  41586
 FILPBFTYPEXACT
               3 000001D5 FFFFFFD5        41586 46374
 FILPBFTYPTSO
               2 000001D5 FFFFFFD5        41576 46079
 FILPBFTYPWYL
               1 000001D5 FFFFFFD5        41566 42119M 45765
 FILPBGROUP
               2 0000013C FFFFFFD5     C   41545 42111M 43047M 43047  43155M 43155  43207  43212  43524M 44162M 44162
                                                 44586M 44637M 44673M 44708M 45442M 45442  45449  45571M 45571  45578
                                                 45797  45802  45813M 45813  46093  46098  46109M 46109
 FILPBLEVEL
               4 000001D8 FFFFFFD5     F   41590 42938  42939M
 FILPBNAME
             128 00000039 FFFFFFD5     C   41542 41894M 41941M 42645  42967  42972  43548  43553  43630M 43639  43763
                                                 43768  44032  44037  44917  44922  45144  45149  45207  45212  46498
                                                 46503  46614  46619  46849
 FILPBSETGROUP
               2 0000014D FFFFFFD5     C   41551 42113M 45827  45832  45843M 45843  46123  46128  46139M 46139
 FILPBSETLIB
             128 00000155 FFFFFFD5     C   41553 42034M 42035M 45031
 FILPBSETUSER
               3 0000014A FFFFFFD5     C   41550 42112M 45951  45956  45967M 45967  46246  46251  46262M 46262
 FILPBUSER
               3 00000139 FFFFFFD5     C   41544 42110M 43034M 43034  43068M 43068  43120  43125  43525M 44149M 44149
                                                 44337M 44388M 44424M 44459M 45464M 45464  45471  45593M 45593  45600
                                                 45921  45926  45937M 45937  46216  46221  46232M 46232
 FORMOPTS      4 000047C8 00000001     F   25360 25205
 FORMPSH       2 000044F0 00000001     H   24786 23068  24782  26025
 FSR           0 00000000 00000001 A   #    1013  7931   8046M  8061M  8124   8224M  8296  10153M 10249  11356M 11446
                                                 11890M 11998  12206M 12281  13225M 13438  14357M 14477  14633M 14681
                                                 14786M 14843  16637M 16794  18454M 18599  18889M 18944  20449M 20591
                                                 22730M 23161  24192M 24341  24431M 24451  24541M 24588  24620M 24635M
                                                 24657  24689M 24704M 24726  24758M 24773M 24795  24827M 24842M 24864
                                                 24896M 24911M 24933  24965M 24980M 25002  25034M 25049M 25071  25103M
                                                 25118M 25140  25172M 25187M 26147  26208M 26228  26318M 26338  26428M
                                                 26448  26538M 26558  26648M 26668  26729M 26749  26811M 26831  26894M
                                                 26914  26983M 27003  27072M 27092  27175M 27195  27600M 27620  27708M
                                                 27728  27879M 27899  27989M 28009  28057M 28077  28124M 28144  28205M
                                                 28225  28286M 28306  28367M 28387  28448M 28468  28509M 28529  28576M
                                                 28596  28686M 28706  28796M 28816  28906M 28926  28987M 29007  29068M
                                                 29088  29149M 29169  29230M 29250  29296M 29316  29362M 29382  29428M
1WGS      (WGS2193) (13:01) (15MAR04) Ordinary Symbol and Literal Cross Reference                                           Page  194
                                                 29448  29494M 29514  29580M 29600  29667M 29690  30228M 30342  30532M
                                                 30614  30655M 30675  30716M 30771  31027M 31088  31398M 31427M 31522
                                                 31640M 31703  32028M 32122  32421M 32460  32620M 32639M 32690  32836M
                                                 32855M 32922  33382M 33403M 33472  33970M 33991M 34064  34341M 34434
                                                 34632M 34668  34907M 34938  35006M 35034  35110M 35143  35431M 35446M
                                                 35473  35716M 35742  35985M 36185  36363M 36383  36427M 36447  36491M
                                                 36519  36681M 36725  36948M 37016  37081M 37122  37226M 37246  37322M
                                                 37407  37787M 37838  38359M 38374M 38416  38508M 38543  38640M 38680
                                                 38880M 38908M 38937M 39002  39145M 39169  39318M 39422  39594M 39657
                                                 39967M 40018  40481M 40545  40682M 40706M 40745  40942M 40970M 41008
                                                 41221M 41236M 41284  41477M 41492M 41825  42490M 42577  42622M 42808
                                                 46679M 46829M 46957  47972M 48008M
 GETHEAP       1 00000000 00000003     T    8084  8084
 GETWA         2 00000016 00000001     H    7922 10174  11378  12222  13367  14409  16711  18526  20521  22753  24213
 GOODVOL       2 000080B4 00000001     H   40439 40100B 40120B 40436B
 GTINTVAL      2 00007E6C 00000001     H   39413 34024  39409  40501
 GTINTVAL      1 00000000 00000025     T   34020 34020
 GTIVDONE      2 00007EE4 00000001     H   39579 39480B 39552B
 GTLNOVAL      2 00007EF2 00000001     H   39647 34025
 GTLVDONE      2 00007FB0 00000001     H   39947 39725B 39868B 39897B
 GTLVINT      10 00000000 FFFFFFD7     C   39631 39738M 39743  39880
 GTLVWA       10 00000000 FFFFFFD7     J   39638 39660  39689U 39967  39969  39970
 HIBAL         1 00000000 FFFFFFFF     J     691   707    720    733    746    759    772    785    798    811    824
                                                   837    850    863    876    889    902
 INVALID       1 00000000 00000000 A   T    2176  2176
 JCB         208 00000000 FFFFFFE9     J    6579 10056U 11013U 11321U 11570U 11855U 12875U 13190U 14019U 14322U 15704U
                                                 16602U 17510U 18419U 19470U 20414U 22379U 22695U 23845U 24157U 38173U
 JCBAFALO    128 00000062 FFFFFFE9         6428 38187
 JCBAFL        1 00000062 FFFFFFE9     R    6424  6428   6433   6438   6443   6448   6453   6458   6463
 JCBBFL        1 00000063 FFFFFFE9     R    6469  6473   6478   6483   6488   6493   6498   6503
 JCBBILLX      8 00000088 FFFFFFE9     D    6554  6562   6562
 JCBFATTN      2 00000062 FFFFFFE9         6458 38218M
 JCBFNATN     64 00000062 FFFFFFE9         6433 10067M 11024M 11333M 11581M 11867M 12886M 13202M 14030M 14334M 15715M
                                                 16614M 17521M 18431M 19481M 20426M 22390M 22707M 23856M 24169M
 JCBRSCF1      1 00000064 FFFFFFE9     R    6509  6513   6518   6523
 JCBSFLG1      1 00000065 FFFFFFE9     R    6529  6533   6538
 JCBWFL        1 00000060 FFFFFFE9     R    6353  6357   6362   6367   6372   6377   6382   6387   6392   6420
 JCBWWFL       1 00000061 FFFFFFE9     R    6398  6402   6407   6412   6417
 KWRDSTRT      1 00000005 FFFFFFE8     U    6601  6763   6763
 KWRSTART      4 00000000 FFFFFFE8     F    6596  6777
 KWRUSER       3 00000000 FFFFFFE8     C    6597  6599   6599
 LINEOPTS      4 00004908 00000001     F   25481 25206
 LINEPSH       2 00004526 00000001     H   24855 23083  24851  26040
 LOGCMD        1 00000000 00000014     T   13383 13383  22780  24228  37359  39366
 LOGEVENT      1 00000000 00000015     T   13384 13384  22781  24229  37360  39363
 LOWTBL        1 00000000 00000000 A   T    2184  2184
 LRTRIM        1 00000000 0000001F     T   30272 30272  40499  46865
 LSR           8 00000008 00000001 A   #    1051  7931   8061M  8124   8224M  8296  10153M 10249  11356M 11446  11890M
                                                 11998  12206M 12281  13225M 13438  14357M 14477  14633M 14681  14786M
                                                 14843  16637M 16794  18454M 18599  18889M 18944  20449M 20591  22730M
                                                 23161  24192M 24341  24431M 24451  24541M 24588  24635M 24657  24704M
                                                 24726  24773M 24795  24842M 24864  24911M 24933  24980M 25002  25049M
                                                 25071  25118M 25140  25187M 26147  26208M 26228  26318M 26338  26428M
                                                 26448  26538M 26558  26648M 26668  26729M 26749  26811M 26831  26894M
                                                 26914  26983M 27003  27072M 27092  27175M 27195  27600M 27620  27708M
                                                 27728  27879M 27899  27989M 28009  28057M 28077  28124M 28144  28205M
                                                 28225  28286M 28306  28367M 28387  28448M 28468  28509M 28529  28576M
                                                 28596  28686M 28706  28796M 28816  28906M 28926  28987M 29007  29068M
                                                 29088  29149M 29169  29230M 29250  29296M 29316  29362M 29382  29428M
1WGS      (WGS2193) (13:01) (15MAR04) Ordinary Symbol and Literal Cross Reference                                           Page  195
                                                 29448  29494M 29514  29580M 29600  29667M 29690  30228M 30342  30532M
                                                 30614  30655M 30675  30716M 30771  31027M 31088  31427M 31522  31640M
                                                 31703  32028M 32122  32421M 32460  32639M 32690  32855M 32922  33403M
                                                 33472  33991M 34064  34341M 34434  34632M 34668  34907M 34938  35006M
                                                 35034  35110M 35143  35446M 35473  35716M 35742  35985M 36185  36363M
                                                 36383  36427M 36447  36491M 36519  36681M 36725  36948M 37016  37081M
                                                 37122  37226M 37246  37322M 37407  37787M 37838  38374M 38416  38508M
                                                 38543  38640M 38680  38937M 39002  39145M 39169  39318M 39422  39594M
                                                 39657  39967M 40018  40481M 40545  40706M 40745  40970M 41008  41236M
                                                 41284  41492M 41825  42490M 42577  42622M 42808  46829M 46957  48008M
 MALL          1 00000000 0000000F     T   11959 11959  13350  14392  16694  18511  20506  23112  24325  26129  30598
                                                 34408  36082  36146  36999  42561
 MARKHEAP      1 00000000 00000002     T    8082  8082   8237
 MILERR        1 00000000 00000000 A   T    2175  2175
 MNULL         1 00000000 00000022     T   30583 30583
 MPAREN        1 00000000 0000001E     T   25461 25461
 MPARM         1 00000000 0000000E     T   11914 11914  11929  11944  24265  24280  25235  25250  25265  25280  25295
                                                 25325  25431  25552  25583  25598  25613  25628  25643  25689  25704
                                                 25719  25886  25932  36007  36022  36037  36101  36116  36131  36969
                                                 36984
 MPINT         1 00000000 0000001B     T   22827 22827  22857  22872  22887  22902  22917  22932  22947  22962  22977
                                                 22992  23007  25416  25446
 MTOKEN        1 00000000 00000012     T   13290 13290  13305  13320  13335  22842  25310  25340  25371  25386  25401
                                                 25492  25507  25522  25537  25658  25750  25765  25780  25795  25810
                                                 25825  25840  25855  25901  25963  26114  30553  30568  34363  34378
                                                 34393  36052  36067  42546
 NACCTOPT      4 00004660 00000001     F   25224 25204
 NACCTPSH      2 000044BA 00000001     H   24717 13261  14378  16680  18497  20492  23038  24311  24713
 NBLTBL        1 00000000 00000000 A   T    2188  2188
 NOACTION      1 00000000 00000000 A   T    2178  2178
 NOTVALID      1 00000000 00000013     T   13351 13351  14393  16695  18512  20507  23113  24326  26130  30270
 NPARTBL       1 00000000 00000000 A   T    2182  2182
 NRESOLVE      1 00000000 00000024     T   34016 34016
 NSCAN         1 00000000 0000000A     T   10187 10187  11387  12232  13375  14416  16718  18534  20528  22762  24220
                                                 30274  30730  37349  42648
 NSCANSTR      1 00000000 00000028     T   37350 37350
 NSCNCB      176 00000000 FFFFFFED     J    2447  2573   9527   9529   9534   9557M  9558M  9573   9574   9575   9578M
                                                  9579M  9581M  9591M  9592M  9593M  9605  10197  10863  10865  10870
                                                 10893M 10894M 10909  10910  10911  10914M 10915M 10917M 10927M 10928M
                                                 10929M 10941  11188  11190  11195  11214M 11215M 11230  11231  11232
                                                 11235M 11236M 11238M 11248M 11249M 11250M 11257  11400  11731  11733
                                                 11738  11757M 11758M 11773  11774  11775  11778M 11779M 11781M 11791M
                                                 11792M 11793M 11800  12240  12739  12741  12746  12769M 12770M 12785
                                                 12786  12787  12790M 12791M 12793M 12803M 12804M 12805M 12817  13066
                                                 13068  13073  13092M 13093M 13108  13109  13110  13113M 13114M 13116M
                                                 13126M 13127M 13128M 13135  13392  13883  13885  13890  13913M 13914M
                                                 13929  13930  13931  13934M 13935M 13937M 13947M 13948M 13949M 13961
                                                 14198  14200  14205  14224M 14225M 14240  14241  14242  14245M 14246M
                                                 14248M 14258M 14259M 14260M 14267  14431  15568  15570  15575  15598M
                                                 15599M 15614  15615  15616  15619M 15620M 15622M 15632M 15633M 15634M
                                                 15646  16424  16426  16431  16450M 16451M 16466  16467  16468  16471M
                                                 16472M 16474M 16484M 16485M 16486M 16493  16739  17374  17376  17381
                                                 17404M 17405M 17420  17421  17422  17425M 17426M 17428M 17438M 17439M
                                                 17440M 17452  18241  18243  18248  18267M 18268M 18283  18284  18285
                                                 18288M 18289M 18291M 18301M 18302M 18303M 18310  18553  19334  19336
                                                 19341  19364M 19365M 19380  19381  19382  19385M 19386M 19388M 19398M
                                                 19399M 19400M 19412  20236  20238  20243  20262M 20263M 20278  20279
                                                 20280  20283M 20284M 20286M 20296M 20297M 20298M 20305  20548  21048
                                                 21050  21055  21078M 21079M 21094  21095  21096  21099M 21100M 21102M
1WGS      (WGS2193) (13:01) (15MAR04) Ordinary Symbol and Literal Cross Reference                                           Page  196
                                                 21112M 21113M 21114M 21126  22571  22573  22578  22597M 22598M 22613
                                                 22614  22615  22618M 22619M 22621M 22631M 22632M 22633M 22640  22789
                                                 23580  23582  23587  23610M 23611M 23626  23627  23628  23631M 23632M
                                                 23634M 23644M 23645M 23646M 23658  24033  24035  24040  24059M 24060M
                                                 24075  24076  24077  24080M 24081M 24083M 24093M 24094M 24095M 24102
                                                 24237  27224  29723U 29738  29740  29784M 29785M 29802  29803  29804
                                                 29807M 29808M 29809M 29819M 29820M 29821M 29856  29974  29975  29976
                                                 29979M 29980M 29981M 29991M 29992M 29993M 30112  30113  30114  30117M
                                                 30118M 30119M 30129M 30130M 30131M 30177  30187  30192M 30192  30294
                                                 30399  30401  30406  30429M 30430M 30445  30446  30447  30450M 30451M
                                                 30453M 30463M 30464M 30465M 30508  30733  34230  34232  34237  34256M
                                                 34257M 34272  34273  34274  34277M 34278M 34280M 34290M 34291M 34292M
                                                 34299  34482  34483  34484  34487M 34497M 34498M 34499M 34716  34717
                                                 34718  34721M 34731M 34732M 34733M 35071  35072  35073  35076M 35077M
                                                 35078M 35088M 35089M 35090M 35353  35355  35360  35379M 35380M 35395
                                                 35396  35397  35400M 35401M 35403M 35413M 35414M 35415M 35423  35625
                                                 35627  35632  35651M 35652M 35667  35668  35669  35672M 35673M 35675M
                                                 35685M 35686M 35687M 35696  35894  35896  35901  35920M 35921M 35936
                                                 35937  35938  35941M 35942M 35944M 35954M 35955M 35956M 35965  36797
                                                 36799  36804  36823M 36824M 36839  36840  36841  36844M 36845M 36847M
                                                 36857M 36858M 36859M 36870  37283  37284  37285  37288M 37289M 37290M
                                                 37300M 37301M 37302M 37366  42040  42042  42061M 42062M 42077  42078
                                                 42079  42082M 42083M 42085M 42095M 42096M 42097M 42109  42656
 NSCNFINT     32 00000018 FFFFFFED         2416 29899  30035
 NSCNFLGS      1 00000008 FFFFFFED     R    2384  2388   2393
 NSCNKWS       4 00000028 FFFFFFED     A    2433  9573   9581M  9591M 10909  10917M 10927M 11230  11238M 11248M 11773
                                                 11781M 11791M 12785  12793M 12803M 13108  13116M 13126M 13929  13937M
                                                 13947M 14240  14248M 14258M 15614  15622M 15632M 16466  16474M 16484M
                                                 17420  17428M 17438M 18283  18291M 18301M 19380  19388M 19398M 20278
                                                 20286M 20296M 21094  21102M 21112M 22613  22621M 22631M 23626  23634M
                                                 23644M 24075  24083M 24093M 29802  29809M 29819M 29974  29981M 29991M
                                                 30112  30119M 30129M 30445  30453M 30463M 34272  34280M 34290M 34482
                                                 34487M 34497M 34716  34721M 34731M 35071  35078M 35088M 35395  35403M
                                                 35413M 35667  35675M 35685M 35936  35944M 35954M 36839  36847M 36857M
                                                 37283  37290M 37300M 42077  42085M 42095M
 NSCNLEN       4 00000004 FFFFFFED     F    2381  9558M 10894M 11215M 11758M 12770M 13093M 13914M 14225M 15599M 16451M
                                                 17405M 18268M 19365M 20263M 21079M 22598M 23611M 24060M 29785M 30430M
                                                 34257M 35380M 35652M 35921M 36824M 42062M
 NSCNLOC       4 00000000 FFFFFFED     A    2380  9557M 10893M 11214M 11757M 12769M 13092M 13913M 14224M 15598M 16450M
                                                 17404M 18267M 19364M 20262M 21078M 22597M 23610M 24059M 29784M 30429M
                                                 34256M 35379M 35651M 35920M 36823M 42061M
 NSCNMSGL      4 0000005C FFFFFFED     F    2439 30192  30192M 30192
 NSCNSKIP      4 00000024 FFFFFFED     A    2432  9574   9578M  9592M 10910  10914M 10928M 11231  11235M 11249M 11774
                                                 11778M 11792M 12786  12790M 12804M 13109  13113M 13127M 13930  13934M
                                                 13948M 14241  14245M 14259M 15615  15619M 15633M 16467  16471M 16485M
                                                 17421  17425M 17439M 18284  18288M 18302M 19381  19385M 19399M 20279
                                                 20283M 20297M 21095  21099M 21113M 22614  22618M 22632M 23627  23631M
                                                 23645M 24076  24080M 24094M 29803  29807M 29820M 29975  29979M 29992M
                                                 30113  30117M 30130M 30446  30450M 30464M 34273  34277M 34291M 34483
                                                 34498M 34717  34732M 35072  35076M 35089M 35396  35400M 35414M 35668
                                                 35672M 35686M 35937  35941M 35955M 36840  36844M 36858M 37284  37288M
                                                 37301M 42078  42082M 42096M
 NSCNSTOP      4 00000020 FFFFFFED     A    2431  9575   9579M  9593M 10911  10915M 10929M 11232  11236M 11250M 11775
                                                 11779M 11793M 12787  12791M 12805M 13110  13114M 13128M 13931  13935M
                                                 13949M 14242  14246M 14260M 15616  15620M 15634M 16468  16472M 16486M
                                                 17422  17426M 17440M 18285  18289M 18303M 19382  19386M 19400M 20280
                                                 20284M 20298M 21096  21100M 21114M 22615  22619M 22633M 23628  23632M
                                                 23646M 24077  24081M 24095M 29804  29808M 29821M 29976  29980M 29993M
                                                 30114  30118M 30131M 30447  30451M 30465M 34274  34278M 34292M 34484
1WGS      (WGS2193) (13:01) (15MAR04) Ordinary Symbol and Literal Cross Reference                                           Page  197
                                                 34499M 34718  34733M 35073  35077M 35090M 35397  35401M 35415M 35669
                                                 35673M 35687M 35938  35942M 35956M 36841  36845M 36859M 37285  37289M
                                                 37302M 42079  42083M 42097M
 NSCNTOK      16 00000030 FFFFFFED     C    2435 27224  29856
 NSCNTVAL      4 0000001C FFFFFFED     F    2430 29905  30041
 NSCNTYPE      1 00000018 FFFFFFED     R    2402  2406   2411   2416   2421   2426
 PAR           9 00000009 00000001 A   #    1064 14541  15874  16004  16289M 16289  16377M 16377  17691  17821  18106M
                                                 18106  18194M 18194  19640  19789  20101M 20101  20189M 20189
 PATHALLO      1 00000000 0000002A     T   39352 39352
 PATHCLS       1 00000000 0000002E     T   39367 39367
 PATHOPEN      1 00000000 0000002B     T   39355 39355
 PATHREAD      1 00000000 0000002C     T   39361 39361
 PATHWRIT      1 00000000 0000002F     T   39369 39369
 PDSOPTS       4 00004D90 00000001     F   25921 25209
 PDSPSH        2 000045C8 00000001     H   25062 25058  26055
 PGAPPEND      2 00001ABA 00000001     H   14468 16727  18543  20538
 PGETA         1 00000000 00000017     T   14799 14799
 PGETNEW       1 00000000 00000019     T   16725 16725  18541  20535
 PGRELS        2 00001B60 00000001     H   14672 16731  18547  20542
 PJUNKA        1 00000000 00000018     T   14800 14800  16730  18546  20541
 PMARKA        1 00000000 00000016     T   14647 14647  16728  18544  20539
 RAR          14 0000000E 00000001 A   #    1129  2113   2114M  2115B  2117M  2118B  2138M  2139B  2143M  2144B  2146M
                                                  2147B  2149M  2150B  2152M  2153B  2155M  2156M  2156B  2162   7928
                                                  7959M  7960M  7960B  7965M  7966M  7966B  7993M  7994M  7994B  8020M
                                                  8021M  8021B  8035M  8036M  8036B  8040M  8041M  8041B  8063M  8066B
                                                  8121   8167M  8168M  8168B  8189M  8190M  8190B  8226M  8229B  8293
                                                  8385M  8386M  8386B  8437M  8438M  8438B  8463M  8464M  8464B  8490M
                                                  8491M  8491B  8509M  8510M  8510B  8541M  8542M  8542B  8586M  8587M
                                                  8587B  8631M  8632M  8632B  8676M  8677M  8677B  8714M  8715M  8715B
                                                  8737M  8738M  8738B  8804M  8805M  8805B  8823M  8824M  8824B  8890M
                                                  8891M  8891B  8964M  8965M  8965B  8991M  8992M  8992B  9009M  9010M
                                                  9010B  9013M  9014M  9014B  9075M  9076M  9076B  9093M  9094M  9094B
                                                  9116M  9117M  9117B  9143M  9144M  9144B  9182M  9183M  9183B  9211M
                                                  9212M  9212B  9228M  9229M  9229B  9257M  9258M  9258B  9305M  9306M
                                                  9306B  9335M  9336M  9336B  9347M  9348M  9348B  9402M  9403M  9403B
                                                  9440M  9441M  9441B  9478M  9479M  9479B  9516M  9517M  9517B  9584M
                                                  9585M  9585B  9598M  9599M  9599B  9690M  9691M  9691B  9715M  9716M
                                                  9716B  9782M  9783M  9783B  9966M  9967M  9967B  9980M  9981M  9981B
                                                 10106M 10107M 10107B 10112M 10113M 10113B 10155M 10158B 10246  10282M
                                                 10283M 10283B 10335M 10336M 10336B 10362M 10363M 10363B 10380M 10381M
                                                 10381B 10398M 10399M 10399B 10430M 10431M 10431B 10475M 10476M 10476B
                                                 10520M 10521M 10521B 10565M 10566M 10566B 10603M 10604M 10604B 10619M
                                                 10620M 10620B 10623M 10624M 10624B 10681M 10682M 10682B 10708M 10709M
                                                 10709B 10721M 10722M 10722B 10776M 10777M 10777B 10814M 10815M 10815B
                                                 10852M 10853M 10853B 10920M 10921M 10921B 10934M 10935M 10935B 10967M
                                                 10968M 10968B 10994M 10995M 10995B 11059M 11060M 11060B 11065M 11066M
                                                 11066B 11119M 11120M 11120B 11132M 11133M 11133B 11241M 11242M 11242B
                                                 11283M 11284M 11284B 11306M 11307M 11307B 11358M 11361B 11443  11479M
                                                 11480M 11480B 11504M 11505M 11505B 11531M 11532M 11532B 11537M 11538M
                                                 11538B 11614M 11615M 11615B 11620M 11621M 11621B 11675M 11676M 11676B
                                                 11784M 11785M 11785B 11836M 11837M 11837B 11840M 11841M 11841B 11892M
                                                 11895B 11995  12054M 12055M 12055B 12121M 12122M 12122B 12153M 12154M
                                                 12154B 12181M 12182M 12182B 12208M 12211B 12278  12346M 12347M 12347B
                                                 12358M 12359M 12359B 12384M 12385M 12385B 12411M 12412M 12412B 12430M
                                                 12431M 12431B 12453M 12454M 12454B 12457M 12458M 12458B 12519M 12520M
                                                 12520B 12537M 12538M 12538B 12560M 12561M 12561B 12587M 12588M 12588B
                                                 12597M 12598M 12598B 12652M 12653M 12653B 12690M 12691M 12691B 12728M
                                                 12729M 12729B 12796M 12797M 12797B 12810M 12811M 12811B 12842M 12843M
                                                 12843B 12921M 12922M 12922B 12927M 12928M 12928B 12981M 12982M 12982B
1WGS      (WGS2193) (13:01) (15MAR04) Ordinary Symbol and Literal Cross Reference                                           Page  198
                                                 13025M 13026M 13026B 13033M 13034M 13034B 13051M 13052M 13052B 13119M
                                                 13120M 13120B 13171M 13172M 13172B 13175M 13176M 13176B 13227M 13230B
                                                 13435  13503M 13504M 13504B 13515M 13516M 13516B 13543M 13544M 13544B
                                                 13570M 13571M 13571B 13575M 13576M 13576B 13637M 13638M 13638B 13655M
                                                 13656M 13656B 13678M 13679M 13679B 13705M 13706M 13706B 13727M 13728M
                                                 13728B 13754M 13755M 13755B 13773M 13774M 13774B 13779M 13780M 13780B
                                                 13834M 13835M 13835B 13872M 13873M 13873B 13940M 13941M 13941B 13954M
                                                 13955M 13955B 13986M 13987M 13987B 14065M 14066M 14066B 14071M 14072M
                                                 14072B 14125M 14126M 14126B 14183M 14184M 14184B 14251M 14252M 14252B
                                                 14303M 14304M 14304B 14307M 14308M 14308B 14359M 14362B 14474  14590M
                                                 14591M 14591B 14635M 14638B 14678  14754M 14755M 14755B 14760M 14761M
                                                 14761B 14788M 14791B 14840  14909M 14910M 14910B 14921M 14922M 14922B
                                                 14957M 14958M 14958B 14984M 14985M 14985B 15003M 15004M 15004B 15014M
                                                 15015M 15015B 15018M 15019M 15019B 15080M 15081M 15081B 15098M 15099M
                                                 15099B 15121M 15122M 15122B 15148M 15149M 15149B 15188M 15189M 15189B
                                                 15215M 15216M 15216B 15254M 15255M 15255B 15281M 15282M 15282B 15320M
                                                 15321M 15321B 15347M 15348M 15348B 15384M 15385M 15385B 15429M 15430M
                                                 15430B 15489M 15490M 15490B 15521M 15522M 15522B 15557M 15558M 15558B
                                                 15625M 15626M 15626B 15639M 15640M 15640B 15671M 15672M 15672B 15750M
                                                 15751M 15751B 15756M 15757M 15757B 15810M 15811M 15811B 15859M 15860M
                                                 15860B 15962M 15963M 15963B 15982M 15983M 15983B 15986M 15987M 15987B
                                                 16012M 16013M 16013B 16043M 16044M 16044B 16112M 16113M 16113B 16138M
                                                 16139M 16139B 16211M 16212M 16212B 16272M 16273M 16273B 16276M 16277M
                                                 16277B 16299M 16300M 16300B 16307M 16308M 16308B 16364M 16365M 16365B
                                                 16387M 16388M 16388B 16395M 16396M 16396B 16477M 16478M 16478B 16510M
                                                 16511M 16511B 16531M 16532M 16532B 16587M 16588M 16588B 16639M 16642B
                                                 16791  16828M 16829M 16829B 16858M 16859M 16859B 16898M 16899M 16899B
                                                 16925M 16926M 16926B 16965M 16966M 16966B 16992M 16993M 16993B 17032M
                                                 17033M 17033B 17059M 17060M 17060B 17099M 17100M 17100B 17126M 17127M
                                                 17127B 17158M 17159M 17159B 17184M 17185M 17185B 17255M 17256M 17256B
                                                 17287M 17288M 17288B 17331M 17332M 17332B 17363M 17364M 17364B 17431M
                                                 17432M 17432B 17445M 17446M 17446B 17477M 17478M 17478B 17567M 17568M
                                                 17568B 17573M 17574M 17574B 17627M 17628M 17628B 17676M 17677M 17677B
                                                 17779M 17780M 17780B 17799M 17800M 17800B 17803M 17804M 17804B 17829M
                                                 17830M 17830B 17860M 17861M 17861B 17929M 17930M 17930B 17955M 17956M
                                                 17956B 18028M 18029M 18029B 18089M 18090M 18090B 18093M 18094M 18094B
                                                 18116M 18117M 18117B 18124M 18125M 18125B 18181M 18182M 18182B 18204M
                                                 18205M 18205B 18212M 18213M 18213B 18294M 18295M 18295B 18327M 18328M
                                                 18328B 18348M 18349M 18349B 18404M 18405M 18405B 18456M 18459B 18596
                                                 18891M 18894B 18941  18978M 18979M 18979B 19033M 19034M 19034B 19060M
                                                 19061M 19061B 19100M 19101M 19101B 19127M 19128M 19128B 19167M 19168M
                                                 19168B 19194M 19195M 19195B 19266M 19267M 19267B 19296M 19297M 19297B
                                                 19327M 19328M 19328B 19391M 19392M 19392B 19405M 19406M 19406B 19437M
                                                 19438M 19438B 19516M 19517M 19517B 19522M 19523M 19523B 19576M 19577M
                                                 19577B 19625M 19626M 19626B 19729M 19730M 19730B 19747M 19748M 19748B
                                                 19767M 19768M 19768B 19771M 19772M 19772B 19797M 19798M 19798B 19832M
                                                 19833M 19833B 19902M 19903M 19903B 19920M 19921M 19921B 19950M 19951M
                                                 19951B 20023M 20024M 20024B 20084M 20085M 20085B 20088M 20089M 20089B
                                                 20111M 20112M 20112B 20119M 20120M 20120B 20176M 20177M 20177B 20199M
                                                 20200M 20200B 20207M 20208M 20208B 20289M 20290M 20290B 20322M 20323M
                                                 20323B 20343M 20344M 20344B 20399M 20400M 20400B 20451M 20454B 20588
                                                 20656M 20657M 20657B 20668M 20669M 20669B 20698M 20699M 20699B 20725M
                                                 20726M 20726B 20744M 20745M 20745B 20750M 20751M 20751B 20754M 20755M
                                                 20755B 20816M 20817M 20817B 20834M 20835M 20835B 20857M 20858M 20858B
                                                 20884M 20885M 20885B 20894M 20895M 20895B 20949M 20950M 20950B 20987M
                                                 20988M 20988B 21025M 21026M 21026B 21105M 21106M 21106B 21119M 21120M
                                                 21120B 21349M 21350M 21350B 21367M 21368M 21368B 21375M 21376M 21376B
                                                 21475M 21476M 21476B 21493M 21494M 21494B 21501M 21502M 21502B 21560M
                                                 21561M 21561B 21578M 21579M 21579B 21586M 21587M 21587B 21664M 21665M
1WGS      (WGS2193) (13:01) (15MAR04) Ordinary Symbol and Literal Cross Reference                                           Page  199
                                                 21665B 21833M 21834M 21834B 21855M 21856M 21856B 21887M 21888M 21888B
                                                 21932M 21933M 21933B 21977M 21978M 21978B 22009M 22010M 22010B 22031M
                                                 22032M 22032B 22056M 22057M 22057B 22092M 22093M 22093B 22117M 22118M
                                                 22118B 22274M 22275M 22275B 22306M 22307M 22307B 22337M 22338M 22338B
                                                 22346M 22347M 22347B 22426M 22427M 22427B 22432M 22433M 22433B 22486M
                                                 22487M 22487B 22530M 22531M 22531B 22538M 22539M 22539B 22556M 22557M
                                                 22557B 22624M 22625M 22625B 22676M 22677M 22677B 22680M 22681M 22681B
                                                 22732M 22735B 23158  23227M 23228M 23228B 23239M 23240M 23240B 23266M
                                                 23267M 23267B 23293M 23294M 23294B 23312M 23313M 23313B 23333M 23334M
                                                 23334B 23395M 23396M 23396B 23413M 23414M 23414B 23436M 23437M 23437B
                                                 23463M 23464M 23464B 23477M 23478M 23478B 23532M 23533M 23533B 23570M
                                                 23571M 23571B 23637M 23638M 23638B 23651M 23652M 23652B 23683M 23684M
                                                 23684B 23721M 23722M 23722B 23752M 23753M 23753B 23796M 23797M 23797B
                                                 23828M 23829M 23829B 23888M 23889M 23889B 23894M 23895M 23895B 23948M
                                                 23949M 23949B 23992M 23993M 23993B 24000M 24001M 24001B 24018M 24019M
                                                 24019B 24086M 24087M 24087B 24138M 24139M 24139B 24142M 24143M 24143B
                                                 24194M 24197B 24338  24385M 24386M 24386B 24411M 24412M 24412B 24433M
                                                 24436B 24448  24495M 24496M 24496B 24521M 24522M 24522B 24543M 24546B
                                                 24585  24617M 24618M 24618B 24637M 24640B 24654  24686M 24687M 24687B
                                                 24706M 24709B 24723  24755M 24756M 24756B 24775M 24778B 24792  24824M
                                                 24825M 24825B 24844M 24847B 24861  24893M 24894M 24894B 24913M 24916B
                                                 24930  24962M 24963M 24963B 24982M 24985B 24999  25031M 25032M 25032B
                                                 25051M 25054B 25068  25100M 25101M 25101B 25120M 25123B 25137  25169M
                                                 25170M 25170B 25189M 25192B 26144  26188M 26189M 26189B 26210M 26213B
                                                 26225  26272M 26273M 26273B 26298M 26299M 26299B 26320M 26323B 26335
                                                 26382M 26383M 26383B 26408M 26409M 26409B 26430M 26433B 26445  26492M
                                                 26493M 26493B 26518M 26519M 26519B 26540M 26543B 26555  26602M 26603M
                                                 26603B 26628M 26629M 26629B 26650M 26653B 26665  26709M 26710M 26710B
                                                 26731M 26734B 26746  26791M 26792M 26792B 26813M 26816B 26828  26878M
                                                 26879M 26879B 26896M 26899B 26911  26963M 26964M 26964B 26985M 26988B
                                                 27000  27052M 27053M 27053B 27074M 27077B 27089  27134M 27135M 27135B
                                                 27159M 27160M 27160B 27177M 27180B 27192  27277M 27278M 27278B 27344M
                                                 27345M 27345B 27411M 27412M 27412B 27478M 27479M 27479B 27530M 27531M
                                                 27531B 27569M 27570M 27570B 27602M 27605B 27617  27663M 27664M 27664B
                                                 27688M 27689M 27689B 27710M 27713B 27725  27805M 27806M 27806B 27820M
                                                 27821M 27821B 27824M 27825M 27825B 27855M 27856M 27856B 27881M 27884B
                                                 27896  27943M 27944M 27944B 27969M 27970M 27970B 27991M 27994B 28006
                                                 28059M 28062B 28074  28126M 28129B 28141  28207M 28210B 28222  28288M
                                                 28291B 28303  28369M 28372B 28384  28450M 28453B 28465  28511M 28514B
                                                 28526  28578M 28581B 28593  28640M 28641M 28641B 28666M 28667M 28667B
                                                 28688M 28691B 28703  28750M 28751M 28751B 28776M 28777M 28777B 28798M
                                                 28801B 28813  28860M 28861M 28861B 28886M 28887M 28887B 28908M 28911B
                                                 28923  28967M 28968M 28968B 28989M 28992B 29004  29048M 29049M 29049B
                                                 29070M 29073B 29085  29129M 29130M 29130B 29151M 29154B 29166  29210M
                                                 29211M 29211B 29232M 29235B 29247  29298M 29301B 29313  29364M 29367B
                                                 29379  29430M 29433B 29445  29496M 29499B 29511  29556M 29557M 29557B
                                                 29582M 29585B 29597  29647M 29648M 29648B 29669M 29672B 29687  29812M
                                                 29813M 29813B 29984M 29985M 29985B 30122M 30123M 30123B 30207M 30208M
                                                 30208B 30230M 30233B 30339  30456M 30457M 30457B 30534M 30537B 30611
                                                 30657M 30660B 30672  30718M 30721B 30768  30956M 30957M 30957B 30984M
                                                 30985M 30985B 30992M 30993M 30993B 31029M 31032B 31085  31191M 31192M
                                                 31192B 31304M 31305M 31305B 31367M 31368M 31368B 31390M 31391M 31391B
                                                 31429M 31432B 31519  31575M 31576M 31576B 31589M 31590M 31590B 31618M
                                                 31619M 31619B 31642M 31645B 31700  31754M 31755M 31755B 31827M 31828M
                                                 31828B 31854M 31855M 31855B 31859M 31860M 31860B 31931M 31932M 31932B
                                                 31958M 31959M 31959B 31963M 31964M 31964B 31990M 31991M 31991B 31995M
                                                 31996M 31996B 32005M 32006M 32006B 32030M 32033B 32119  32196M 32197M
                                                 32197B 32423M 32426B 32457  32558M 32559M 32559B 32641M 32644B 32687
                                                 32857M 32860B 32919  33111M 33112M 33112B 33129M 33130M 33130B 33224M
1WGS      (WGS2193) (13:01) (15MAR04) Ordinary Symbol and Literal Cross Reference                                           Page  200
                                                 33225M 33225B 33242M 33243M 33243B 33378M 33379M 33379B 33405M 33408B
                                                 33469  33668M 33669M 33669B 33719M 33720M 33720B 33883M 33884M 33884B
                                                 33904M 33905M 33905B 33993M 33996B 34061  34094M 34095M 34095B 34149M
                                                 34150M 34150B 34153M 34154M 34154B 34211M 34212M 34212B 34215M 34216M
                                                 34216B 34283M 34284M 34284B 34316M 34317M 34317B 34343M 34346B 34431
                                                 34490M 34491M 34491B 34634M 34637B 34665  34724M 34725M 34725B 34909M
                                                 34912B 34935  35008M 35011B 35031  35081M 35082M 35082B 35112M 35115B
                                                 35140  35173M 35174M 35174B 35212M 35213M 35213B 35245M 35246M 35246B
                                                 35249M 35250M 35250B 35291M 35292M 35292B 35406M 35407M 35407B 35448M
                                                 35451B 35470  35503M 35504M 35504B 35557M 35558M 35558B 35561M 35562M
                                                 35562B 35605M 35606M 35606B 35678M 35679M 35679B 35718M 35721B 35739
                                                 35772M 35773M 35773B 35826M 35827M 35827B 35830M 35831M 35831B 35874M
                                                 35875M 35875B 35947M 35948M 35948B 35987M 35990B 36182  36241M 36242M
                                                 36242B 36308M 36309M 36309B 36338M 36339M 36339B 36365M 36368B 36380
                                                 36429M 36432B 36444  36493M 36496B 36516  36549M 36550M 36550B 36603M
                                                 36604M 36604B 36607M 36608M 36608B 36651M 36652M 36652B 36683M 36686B
                                                 36722  36788M 36789M 36789B 36792M 36793M 36793B 36850M 36851M 36851B
                                                 36879M 36880M 36880B 36920M 36921M 36921B 36924M 36925M 36925B 36950M
                                                 36953B 37013  37061M 37062M 37062B 37083M 37086B 37119  37177M 37178M
                                                 37178B 37201M 37202M 37202B 37228M 37231B 37243  37293M 37294M 37294B
                                                 37324M 37327B 37404  37483M 37484M 37484B 37519M 37520M 37520B 37636M
                                                 37637M 37637B 37752M 37753M 37753B 37756M 37757M 37757B 37789M 37792B
                                                 37835  37912M 37913M 37913B 37929M 37930M 37930B 37972M 37973M 37973B
                                                 37977M 37978M 37978B 38039M 38040M 38040B 38087M 38088M 38088B 38092M
                                                 38093M 38093B 38296M 38297M 38297B 38301M 38302M 38302B 38333M 38334M
                                                 38334B 38337M 38338M 38338B 38376M 38379B 38413  38476M 38477M 38477B
                                                 38510M 38513B 38540  38642M 38645B 38677  38817M 38818M 38818B 38833M
                                                 38834M 38834B 38862M 38863M 38863B 38867M 38868M 38868B 38871M 38872M
                                                 38872B 38939M 38942B 38999  39044M 39045M 39045B 39117M 39118M 39118B
                                                 39121M 39122M 39122B 39147M 39150B 39166  39299M 39300M 39300B 39320M
                                                 39323B 39419  39596M 39599B 39654  39734M 39735M 39735B 39943M 39944M
                                                 39944B 39969M 39972B 40015  40451M 40452M 40452B 40483M 40486B 40542
                                                 40708M 40711B 40742  40972M 40975B 41005  41238M 41241B 41281  41494M
                                                 41497B 41822  42088M 42089M 42089B 42102M 42103M 42103B 42147M 42148M
                                                 42148B 42156M 42157M 42157B 42211M 42212M 42212B 42492M 42495B 42574
                                                 42624M 42627B 42805  42876M 42877M 42877B 42926M 42927M 42927B 42981M
                                                 42982M 42982B 42996M 42997M 42997B 43093M 43094M 43094B 43108M 43109M
                                                 43109B 43134M 43135M 43135B 43180M 43181M 43181B 43195M 43196M 43196B
                                                 43221M 43222M 43222B 43267M 43268M 43268B 43282M 43283M 43283B 43308M
                                                 43309M 43309B 43328M 43329M 43329B 43371M 43372M 43372B 43474M 43475M
                                                 43475B 43500M 43501M 43501B 43515M 43516M 43516B 43556M 43557M 43557B
                                                 43560M 43561M 43561B 43569M 43570M 43570B 43611M 43612M 43612B 43777M
                                                 43778M 43778B 43792M 43793M 43793B 44046M 44047M 44047B 44061M 44062M
                                                 44062B 44181M 44182M 44182B 44196M 44197M 44197B 44230M 44231M 44231B
                                                 44499M 44500M 44500B 44514M 44515M 44515B 44748M 44749M 44749B 44763M
                                                 44764M 44764B 44872M 44873M 44873B 44931M 44932M 44932B 44946M 44947M
                                                 44947B 45058M 45059M 45059B 45158M 45159M 45159B 45173M 45174M 45174B
                                                 45221M 45222M 45222B 45236M 45237M 45237B 45292M 45293M 45293B 45499M
                                                 45500M 45500B 45628M 45629M 45629B 45746M 45747M 45747B 45786M 45787M
                                                 45787B 45893M 45894M 45894B 45910M 45911M 45911B 46017M 46018M 46018B
                                                 46034M 46035M 46035B 46060M 46061M 46061B 46189M 46190M 46190B 46206M
                                                 46207M 46207B 46312M 46313M 46313B 46329M 46330M 46330B 46355M 46356M
                                                 46356B 46403M 46404M 46404B 46469M 46470M 46470B 46473M 46474M 46474B
                                                 46512M 46513M 46513B 46527M 46528M 46528B 46546M 46547M 46547B 46561M
                                                 46562M 46562B 46630M 46631M 46631B 46647M 46648M 46648B 46831M 46834B
                                                 46954  47017M 47018M 47018B 47036M 47037M 47037B 47067M 47068M 47068B
                                                 47166M 47167M 47167B 47181M 47182M 47182B 47196M 47197M 47197B 47244M
                                                 47245M 47245B 47259M 47260M 47260B 47274M 47275M 47275B 47357M 47358M
                                                 47358B 47372M 47373M 47373B 47387M 47388M 47388B 47563M 47564M 47564B
1WGS      (WGS2193) (13:01) (15MAR04) Ordinary Symbol and Literal Cross Reference                                           Page  201
                                                 47578M 47579M 47579B 47593M 47594M 47594B 47670M 47671M 47671B 47685M
                                                 47686M 47686B 47711M 47712M 47712B 47791M 47792M 47792B 47806M 47807M
                                                 47807B 47832M 47833M 47833B 47879M 47880M 47880B 47894M 47895M 47895B
                                                 47909M 47910M 47910B 48010M 48013B
 RELHEAP       1 00000000 00000006     T    8238  8238
 RENOPTS       4 00001954 00000001     F   14366 14415
 RESLVPRT      4 00008588 00000001     F   42520 42647
 RESLVPUB      2 00008600 00000001     H   42568 42547
 RETFMEM       2 00008222 00000001     H   40999 40995
 RETFNAME      2 00008120 00000001     H   40536 40532
 RETFNGDG      2 00008190 00000001     H   40736 40732
 RETLIBMB      2 000082B2 00000001     H   41275 41271
 RLOOKUP       1 00000000 0000001C     T   25202 25202
 RLSWA         2 000000C8 00000001     H    8115 12234  13388  14427  16733  18549  20544  22785  24233
 RTRIM         1 00000000 00000026     T   34026 34026  46863  48025
 R0            0 00000000 FFFFFFFF A   #     699  2098   2167M  7962M  7990M  7996   7998M  8024M  8426M  8452M  8479M
                                                  8498M  8530M  8575M  8620M  8665M  8703M  8726M  8785M  8785   8812M
                                                  8871M  8871   8953M  8980M  9064M  9082M  9105M  9132M  9171M  9200M
                                                  9217M  9246M  9294M  9324M  9391M  9429M  9467M  9505M  9554M  9558
                                                  9569M  9569   9578   9579   9671M  9671   9673M  9679M  9695M  9695
                                                  9771M  9864M  9934M  9935   9955M 10095M 10095  10324M 10351M 10369M
                                                 10387M 10419M 10464M 10509M 10554M 10592M 10670M 10697M 10765M 10803M
                                                 10841M 10890M 10894  10905M 10905  10914  10915  11048M 11048  11098
                                                 11155  11184M 11215  11226M 11226  11235  11236  11493M 11520M 11603M
                                                 11603  11654  11698  11727M 11758  11769M 11769  11778  11779  12051M
                                                 12057  12061M 12064  12110M 12110  12142M 12155M 12157M 12335M 12373M
                                                 12400M 12419M 12508M 12526M 12549M 12576M 12641M 12679M 12717M 12766M
                                                 12770  12781M 12781  12790  12791  12910M 12910  12960  13004  13040M
                                                 13062M 13093  13104M 13104  13113  13114  13492M 13532M 13559M 13626M
                                                 13644M 13667M 13694M 13716M 13743M 13762M 13823M 13861M 13910M 13914
                                                 13925M 13925  13934  13935  14054M 14054  14104  14148  14172M 14194M
                                                 14225  14236M 14236  14245  14246  14504  14505  14505  14505  14514M
                                                 14514  14520M 14527  14542  14545  14554M 14554  14618M 14648  14648
                                                 14648  14715M 14715  14721  14751M 14898M 14946M 14973M 14992M 15069M
                                                 15087M 15110M 15137M 15177M 15204M 15243M 15270M 15309M 15336M 15373M
                                                 15418M 15478M 15510M 15546M 15595M 15599  15610M 15610  15619  15620
                                                 15739M 15739  15789  15835  15855  15856  15856  15856  15872  15877M
                                                 15895M 15936  15956  15957  15957  15957  15959M 16003  16007M 16009M
                                                 16031M 16086  16106  16107  16107  16107  16109M 16127M 16135M 16190
                                                 16250  16261M 16301M 16303M 16343  16389M 16391M 16420M 16451  16462M
                                                 16462  16471  16472  16741  16741  16741  16887M 16914M 16954M 16981M
                                                 17021M 17048M 17088M 17115M 17147M 17173M 17244M 17276M 17320M 17352M
                                                 17401M 17405  17416M 17416  17425  17426  17556M 17556  17606  17652
                                                 17672  17673  17673  17673  17689  17694M 17712M 17753  17773  17774
                                                 17774  17774  17776M 17820  17824M 17826M 17848M 17903  17923  17924
                                                 17924  17924  17926M 17944M 17952M 18007  18067  18078M 18118M 18120M
                                                 18160  18206M 18208M 18237M 18268  18279M 18279  18288  18289  18555
                                                 18555  18555  19022M 19049M 19089M 19116M 19156M 19183M 19255M 19285M
                                                 19316M 19361M 19365  19376M 19376  19385  19386  19505M 19505  19555
                                                 19601  19621  19622  19622  19622  19638  19643M 19661M 19702  19722
                                                 19723  19723  19723  19725M 19788  19792M 19794M 19816M 19875  19895
                                                 19896  19896  19896  19898M 19935M 19947M 20002  20062  20073M 20113M
                                                 20115M 20155  20201M 20203M 20232M 20263  20274M 20274  20283  20284
                                                 20550  20550  20550  20645M 20687M 20714M 20733M 20805M 20823M 20846M
                                                 20873M 20938M 20976M 21014M 21075M 21079  21090M 21090  21099  21100
                                                 21179M 21180M 21180  21223M 21224M 21224  21338M 21338  21356M 21372M
                                                 21464M 21464  21482M 21498M 21549M 21549  21567M 21583M 21653M 21746M
                                                 21816M 21817  21822M 21844M 21876M 21921M 21966M 21998M 22020M 22037M
                                                 22037  22081M 22097M 22097  22263M 22295M 22318M 22318  22415M 22415
1WGS      (WGS2193) (13:01) (15MAR04) Ordinary Symbol and Literal Cross Reference                                           Page  202
                                                 22465  22509  22545M 22567M 22598  22609M 22609  22618  22619  23187
                                                 23216M 23255M 23282M 23301M 23384M 23402M 23425M 23452M 23521M 23559M
                                                 23607M 23611  23622M 23622  23631  23632  23710M 23741M 23785M 23817M
                                                 23877M 23877  23927  23971  24007M 24029M 24060  24071M 24071  24080
                                                 24081  24368  24369  24369  24369  24374M 24389M 24478  24479  24479
                                                 24479  24484M 24499M 24557  24557  24557  24620  24620M 24689  24689M
                                                 24758  24758M 24827  24827M 24896  24896M 24965  24965M 25034  25034M
                                                 25103  25103M 25172  25172M 26177M 26255  26256  26256  26256  26261M
                                                 26276M 26365  26366  26366  26366  26371M 26386M 26475  26476  26476
                                                 26476  26481M 26496M 26585  26586  26586  26586  26591M 26606M 26698M
                                                 26780M 26867M 26946M 26947  26952M 27035M 27036  27041M 27118  27123M
                                                 27140M 27140  27266M 27333M 27400M 27467M 27519M 27576M 27647  27652M
                                                 27669M 27669  27755  27771  27815M 27817M 27926  27927  27927  27927
                                                 27932M 27947M 28042  28109  28190  28271  28352  28433  28494  28623
                                                 28624  28624  28624  28629M 28644M 28733  28734  28734  28734  28739M
                                                 28754M 28843  28844  28844  28844  28849M 28864M 28956M 29037M 29118M
                                                 29199M 29545M 29636M 29763M 29765M 29785  29798M 29798  29807  29808
                                                 29809  29844M 29844  29970M 29970  29979  29980  29981  30020M 30020
                                                 30108M 30108  30117  30118  30119  30158M 30158  30202M 30282  30282
                                                 30282  30426M 30430  30441M 30441  30450  30451  30803M 30819M 30819
                                                 30851M 30945M 30973M 30989M 30989  31149  31215M 31216  31228M 31229M
                                                 31238M 31238  31250M 31267  31301M 31364M 31387M 31398  31398M 31577M
                                                 31578  31581  31585M 31596M 31816M 31816  31843M 31843  31920M 31920
                                                 31947M 31947  31979M 31979  32211M 32225  32527M 32533M 32539  32540
                                                 32540  32540  32555M 32580M 32611M 32620  32620M 32756M 32784M 32790
                                                 32806  32806  32836  32836M 32989M 33108M 33150M 33221M 33263M 33375M
                                                 33382  33382M 33520  33552  33554  33556  33576  33664M 33716M 33847M
                                                 33848M 33854M 33855M 33860M 33879M 33901M 33945M 33964M 33970  33970M
                                                 34032  34032  34032  34128  34176  34200M 34226M 34257  34268M 34268
                                                 34277  34278  34478M 34478  34487  34523M 34523  34533  34545M 34550
                                                 34551  34712M 34712  34721  34757M 34757  34765  34777M 34782  34783
                                                 34784  34823  35067M 35067  35076  35077  35078  35204  35219M 35298M
                                                 35349M 35380  35391M 35391  35400  35401  35431  35431M 35536  35584
                                                 35612M 35621M 35652  35663M 35663  35672  35673  35805  35853  35881M
                                                 35890M 35921  35932M 35932  35941  35942  36238M 36244  36248M 36251
                                                 36297M 36297  36314M 36582  36630  36658M 36765  36785M 36824  36835M
                                                 36835  36844  36845  36917M 37058M 37174M 37279M 37279  37288  37289
                                                 37290  37467  37480M 37480  37662  37684M 37702  37724M 37901M 37917M
                                                 37917  37962M 38031M 38077M 38144  38196M 38250  38272M 38342M 38342
                                                 38359  38359M 38763  38786M 38795M 38852M 38878M 38880  38880M 38905M
                                                 38905  38908  38908M 39041M 39062M 39083  39107M 39296M 39459M 39459
                                                 39473  39487  39704M 39704  39718  39754M 39754  39799M 39849M 39940M
                                                 40059  40077  40137  40574  40588M 40588  40679M 40680M 40682  40682M
                                                 40774  40788M 40788  40939M 40940M 40942  40942M 41037  41051M 41051
                                                 41156M 41158M 41160M 41184  41188M 41188  41210  41214M 41214  41221
                                                 41221M 41312  41355  41369M 41369  41466M 41477  41477M 42058M 42062
                                                 42073M 42073  42082  42083  42136M 42915M 42972M 42987M 43056M 43056
                                                 43099M 43125M 43139M 43186M 43212M 43226M 43273M 43299M 43319M 43368M
                                                 43386  43427  43465M 43491M 43506M 43553M 43563  43606M 43608M 43624
                                                 43646M 43652  43768M 43783M 43897  43938M 43950M 43950  43977M 43992M
                                                 43992  44003M 44016  44037M 44052M 44071  44172M 44187M 44219M 44490M
                                                 44505M 44739M 44754M 44864M 44865M 44866M 44922M 44937M 45028M 45029M
                                                 45030M 45149M 45164M 45212M 45227M 45283M 45284M 45285M 45488M 45617M
                                                 45735M 45775M 45802M 45832M 45863M 45899M 45926M 45956M 45987M 46023M
                                                 46049M 46098M 46128M 46159M 46195M 46221M 46251M 46282M 46318M 46344M
                                                 46392M 46416M 46466M 46503M 46518M 46537M 46537  46552M 46619M 46636M
                                                 46666M 46679  46679M 47033M 47042  47058M 47106M 47157M 47172M 47187M
                                                 47235M 47250M 47265M 47348M 47363M 47378M 47405M 47494  47554M 47569M
                                                 47584M 47627M 47639  47661M 47676M 47702M 47760  47782M 47797M 47823M
1WGS      (WGS2193) (13:01) (15MAR04) Ordinary Symbol and Literal Cross Reference                                           Page  203
                                                 47870M 47885M 47900M 47962M 47972  47972M
 R1            1 00000001 FFFFFFFF A   #     712  2161M  2162M  2168M  7967   7968   7995   7997M  8044M  8046   8046M
                                                  8387   8425M  8451M  8474M  8497M  8529M  8574M  8619M  8664M  8702M
                                                  8725M  8739M  8756M  8811M  8825M  8842M  8952M  8975M  9059M  9081M
                                                  9104M  9127M  9170M  9193M  9216M  9239M  9293M  9317M  9390M  9428M
                                                  9466M  9504M  9549M  9557   9565M  9578   9579   9581   9672M  9674
                                                  9678M  9696M  9770M  9863M  9954M 10284  10323M 10346M 10368M 10386M
                                                 10418M 10463M 10508M 10553M 10591M 10669M 10692M 10764M 10802M 10840M
                                                 10885M 10893  10901M 10914  10915  10917  11183M 11183  11214  11222M
                                                 11235  11236  11238  11481  11492M 11515M 11726M 11726  11757  11765M
                                                 11778  11779  11781  12046M 12056  12127M 12156M 12158M 12158  12334M
                                                 12360  12372M 12395M 12418M 12503M 12525M 12548M 12571M 12640M 12678M
                                                 12716M 12761M 12769  12777M 12790  12791  12793  13039M 13061M 13061
                                                 13092  13100M 13113  13114  13116  13491M 13517  13531M 13554M 13621M
                                                 13643M 13666M 13689M 13715M 13738M 13761M 13822M 13860M 13905M 13913
                                                 13921M 13934  13935  13937  14171M 14193M 14193  14224  14232M 14245
                                                 14246  14248  14504  14505  14505  14505  14521M 14618M 14648  14648
                                                 14648  14722  14744M 14745M 14746  14869  14897M 14923  14945M 14968M
                                                 14991M 15064M 15086M 15109M 15132M 15176M 15199M 15242M 15265M 15308M
                                                 15331M 15372M 15417M 15477M 15509M 15545M 15590M 15598  15606M 15619
                                                 15620  15622  15855  15856  15856  15856  15877M 15895M 15956  15957
                                                 15957  15957  15958M 15999M 16000M 16000  16001  16002M 16003  16007M
                                                 16008M 16031M 16106  16107  16107  16107  16108M 16127M 16135M 16260M
                                                 16304M 16392M 16419M 16419  16450  16458M 16471  16472  16474  16741
                                                 16741  16741  16820  16830  16886M 16909M 16953M 16976M 17020M 17043M
                                                 17087M 17110M 17146M 17172M 17243M 17275M 17319M 17351M 17396M 17404
                                                 17412M 17425  17426  17428  17672  17673  17673  17673  17694M 17712M
                                                 17773  17774  17774  17774  17775M 17816M 17817M 17817  17818  17819M
                                                 17820  17824M 17825M 17848M 17923  17924  17924  17924  17925M 17944M
                                                 17952M 18077M 18121M 18209M 18236M 18236  18267  18275M 18288  18289
                                                 18291  18555  18555  18555  18634U 18970  18980  19021M 19044M 19088M
                                                 19111M 19155M 19178M 19254M 19284M 19315M 19356M 19364  19372M 19385
                                                 19386  19388  19621  19622  19622  19622  19643M 19661M 19722  19723
                                                 19723  19723  19724M 19784M 19785M 19785  19786  19787M 19788  19792M
                                                 19793M 19816M 19895  19896  19896  19896  19897M 19935M 19947M 20072M
                                                 20116M 20204M 20231M 20231  20262  20270M 20283  20284  20286  20550
                                                 20550  20550  20644M 20670  20686M 20709M 20732M 20800M 20822M 20845M
                                                 20868M 20937M 20975M 21013M 21070M 21078  21086M 21099  21100  21102
                                                 21334M 21355M 21371M 21460M 21481M 21497M 21545M 21566M 21582M 21652M
                                                 21745M 21821M 21843M 21875M 21920M 21965M 21997M 22019M 22033M 22080M
                                                 22102M 22132M 22133M 22133  22160M 22163  22175M 22182  22194M 22214M
                                                 22235  22242  22262M 22294M 22314M 22544M 22566M 22566  22597  22605M
                                                 22618  22619  22621  23215M 23241  23254M 23277M 23300M 23379M 23401M
                                                 23424M 23447M 23520M 23558M 23602M 23610  23618M 23631  23632  23634
                                                 23709M 23740M 23784M 23816M 24006M 24028M 24028  24059  24067M 24080
                                                 24081  24083  24368  24369  24369  24369  24373M 24389M 24478  24479
                                                 24479  24479  24483M 24499M 24557  24557  24557  24614M 24683M 24752M
                                                 24821M 24890M 24959M 25028M 25097M 25166M 26176M 26255  26256  26256
                                                 26256  26260M 26276M 26365  26366  26366  26366  26370M 26386M 26475
                                                 26476  26476  26476  26480M 26496M 26585  26586  26586  26586  26590M
                                                 26606M 26697M 26779M 26866M 26951M 27040M 27122M 27136M 27223M 27224M
                                                 27224  27265M 27332M 27399M 27466M 27518M 27575M 27651M 27665M 27754
                                                 27813M 27926  27927  27927  27927  27931M 27947M 28623  28624  28624
                                                 28624  28628M 28644M 28733  28734  28734  28734  28738M 28754M 28843
                                                 28844  28844  28844  28848M 28864M 28955M 29036M 29117M 29198M 29544M
                                                 29635M 29761M 29784  29794M 29807  29808  29809  29855M 29856M 29856
                                                 29966M 29979  29980  29981  30104M 30117  30118  30119  30201M 30282
                                                 30282  30282  30421M 30429  30437M 30450  30451  30453  30804M 30849M
                                                 30906M 30944M 30968M 31148  31215  31217M 31217  31218  31219  31227M
1WGS      (WGS2193) (13:01) (15MAR04) Ordinary Symbol and Literal Cross Reference                                           Page  204
                                                 31228  31249M 31300M 31363M 31386M 31584M 31595M 32206M 32502  32526M
                                                 32539  32540  32540  32540  32541M 32542  32554M 32554  32579M 32611M
                                                 32729  32755M 32964  32988M 33105M 33106M 33107M 33149M 33219M 33220M
                                                 33262M 33374M 33521  33553  33575  33661M 33662M 33663M 33721M 33722M
                                                 33748M 33783M 33849M 33850M 33856M 33877M 33878M 33906M 33907M 33944M
                                                 33970  34032  34032  34032  34199M 34225M 34225  34256  34264M 34277
                                                 34278  34280  34474M 34487  34708M 34721  35063M 35076  35077  35078
                                                 35218M 35297M 35348M 35348  35379  35387M 35400  35401  35403  35431
                                                 35611M 35620M 35620  35651  35659M 35672  35673  35675  35880M 35889M
                                                 35889  35920  35928M 35941  35942  35944  36233M 36243  36315M 36657M
                                                 36784M 36823  36831M 36844  36845  36847  36916M 37053M 37169M 37275M
                                                 37288  37289  37290  37527  37530  37632M 37683M 37723M 37900M 37969M
                                                 38084M 38195M 38271M 38359  38785M 38794M 38859M 39040M 39061M 39106M
                                                 39207M 39287M 39288M 39290M 39291M 39292  39295M 39488  39514  39794M
                                                 39847M 39880M 39890  39939  40058  40448M 40572  40573  40647  40680
                                                 40772  40773  40907  40940  41035  41036  41110  41161M 41164M 41184M
                                                 41210M 41221  41351M 41354  41428  41477  41872  42053M 42061  42069M
                                                 42082  42083  42085  42131M 42151M 42844  42910M 42967M 42986M 43098M
                                                 43120M 43138M 43185M 43207M 43225M 43272M 43294M 43318M 43363M 43464M
                                                 43486M 43505M 43548M 43562  43604M 43639M 43651  43763M 43782M 43933M
                                                 43975M 43998  44001M 44032M 44051M 44171M 44186M 44214M 44485M 44504M
                                                 44734M 44753M 44868M 44917M 44936M 45054M 45144M 45163M 45207M 45226M
                                                 45287M 45483M 45612M 45730M 45774M 45797M 45827M 45858M 45898M 45921M
                                                 45951M 45982M 46022M 46044M 46093M 46123M 46154M 46194M 46216M 46246M
                                                 46277M 46317M 46339M 46387M 46415M 46461M 46498M 46517M 46533M 46551M
                                                 46614M 46635M 46661M 46679  46993  47028M 47041  47057M 47152M 47171M
                                                 47186M 47230M 47249M 47264M 47343M 47362M 47377M 47549M 47568M 47583M
                                                 47654M 47675M 47697M 47775M 47796M 47818M 47865M 47884M 47899M 47957M
                                                 47972
 R12          12 0000000C FFFFFFFF A   #     855  2124
 R13          13 0000000D FFFFFFFF A   #     868  9527   9573   9574   9575   9591   9592   9593  10863  10909  10910
                                                 10911  10927  10928  10929  11188  11230  11231  11232  11248  11249
                                                 11250  11731  11773  11774  11775  11791  11792  11793  12739  12785
                                                 12786  12787  12803  12804  12805  13066  13108  13109  13110  13126
                                                 13127  13128  13883  13929  13930  13931  13947  13948  13949  14198
                                                 14240  14241  14242  14258  14259  14260  15568  15614  15615  15616
                                                 15632  15633  15634  16424  16466  16467  16468  16484  16485  16486
                                                 17374  17420  17421  17422  17438  17439  17440  18241  18283  18284
                                                 18285  18301  18302  18303  19334  19380  19381  19382  19398  19399
                                                 19400  20236  20278  20279  20280  20296  20297  20298  21048  21094
                                                 21095  21096  21112  21113  21114  22571  22613  22614  22615  22631
                                                 22632  22633  23580  23626  23627  23628  23644  23645  23646  24033
                                                 24075  24076  24077  24093  24094  24095  29738  29802  29803  29804
                                                 29819  29820  29821  29974  29975  29976  29991  29992  29993  30112
                                                 30113  30114  30129  30130  30131  30399  30445  30446  30447  30463
                                                 30464  30465  34230  34272  34273  34274  34290  34291  34292  34482
                                                 34483  34484  34497  34498  34499  34716  34717  34718  34731  34732
                                                 34733  35071  35072  35073  35088  35089  35090  35353  35395  35396
                                                 35397  35413  35414  35415  35625  35667  35668  35669  35685  35686
                                                 35687  35894  35936  35937  35938  35954  35955  35956  36797  36839
                                                 36840  36841  36857  36858  36859  37283  37284  37285  37300  37301
                                                 37302  42040  42077  42078  42079  42095  42096  42097
 R14          14 0000000E FFFFFFFF A   #     881  2099M  9526M  9527   9533M  9538M  9538   9556M  9557   9558   9562M
                                                  9562   9572M  9573   9574   9575   9580M  9581   9588M  9591   9592
                                                  9593   9602M  9605  10862M 10863  10869M 10874M 10874  10892M 10893
                                                 10894  10898M 10898  10908M 10909  10910  10911  10916M 10917  10924M
                                                 10927  10928  10929  10938M 10941  11187M 11188  11194M 11199M 11199
                                                 11213M 11214  11215  11219M 11219  11229M 11230  11231  11232  11237M
                                                 11238  11245M 11248  11249  11250  11254M 11257  11730M 11731  11737M
1WGS      (WGS2193) (13:01) (15MAR04) Ordinary Symbol and Literal Cross Reference                                           Page  205
                                                 11742M 11742  11756M 11757  11758  11762M 11762  11772M 11773  11774
                                                 11775  11780M 11781  11788M 11791  11792  11793  11797M 11800  12738M
                                                 12739  12745M 12750M 12750  12768M 12769  12770  12774M 12774  12784M
                                                 12785  12786  12787  12792M 12793  12800M 12803  12804  12805  12814M
                                                 12817  13065M 13066  13072M 13077M 13077  13091M 13092  13093  13097M
                                                 13097  13107M 13108  13109  13110  13115M 13116  13123M 13126  13127
                                                 13128  13132M 13135  13882M 13883  13889M 13894M 13894  13912M 13913
                                                 13914  13918M 13918  13928M 13929  13930  13931  13936M 13937  13944M
                                                 13947  13948  13949  13958M 13961  14197M 14198  14204M 14209M 14209
                                                 14223M 14224  14225  14229M 14229  14239M 14240  14241  14242  14247M
                                                 14248  14255M 14258  14259  14260  14264M 14267  15567M 15568  15574M
                                                 15579M 15579  15597M 15598  15599  15603M 15603  15613M 15614  15615
                                                 15616  15621M 15622  15629M 15632  15633  15634  15643M 15646  16423M
                                                 16424  16430M 16435M 16435  16449M 16450  16451  16455M 16455  16465M
                                                 16466  16467  16468  16473M 16474  16481M 16484  16485  16486  16490M
                                                 16493  17373M 17374  17380M 17385M 17385  17403M 17404  17405  17409M
                                                 17409  17419M 17420  17421  17422  17427M 17428  17435M 17438  17439
                                                 17440  17449M 17452  18240M 18241  18247M 18252M 18252  18266M 18267
                                                 18268  18272M 18272  18282M 18283  18284  18285  18290M 18291  18298M
                                                 18301  18302  18303  18307M 18310  19333M 19334  19340M 19345M 19345
                                                 19363M 19364  19365  19369M 19369  19379M 19380  19381  19382  19387M
                                                 19388  19395M 19398  19399  19400  19409M 19412  20235M 20236  20242M
                                                 20247M 20247  20261M 20262  20263  20267M 20267  20277M 20278  20279
                                                 20280  20285M 20286  20293M 20296  20297  20298  20302M 20305  21047M
                                                 21048  21054M 21059M 21059  21077M 21078  21079  21083M 21083  21093M
                                                 21094  21095  21096  21101M 21102  21109M 21112  21113  21114  21123M
                                                 21126  22570M 22571  22577M 22582M 22582  22596M 22597  22598  22602M
                                                 22602  22612M 22613  22614  22615  22620M 22621  22628M 22631  22632
                                                 22633  22637M 22640  23579M 23580  23586M 23591M 23591  23609M 23610
                                                 23611  23615M 23615  23625M 23626  23627  23628  23633M 23634  23641M
                                                 23644  23645  23646  23655M 23658  24032M 24033  24039M 24044M 24044
                                                 24058M 24059  24060  24064M 24064  24074M 24075  24076  24077  24082M
                                                 24083  24090M 24093  24094  24095  24099M 24102  29737M 29738  29783M
                                                 29784  29785  29789M 29789  29801M 29802  29803  29804  29816M 29819
                                                 29820  29821  29973M 29974  29975  29976  29988M 29991  29992  29993
                                                 30111M 30112  30113  30114  30126M 30129  30130  30131  30174M 30177
                                                 30184M 30187  30191M 30192  30192  30196M 30196  30398M 30399  30405M
                                                 30410M 30410  30428M 30429  30430  30434M 30434  30444M 30445  30446
                                                 30447  30452M 30453  30460M 30463  30464  30465  30505M 30508  34229M
                                                 34230  34236M 34241M 34241  34255M 34256  34257  34261M 34261  34271M
                                                 34272  34273  34274  34279M 34280  34287M 34290  34291  34292  34296M
                                                 34299  34481M 34482  34483  34484  34494M 34497  34498  34499  34715M
                                                 34716  34717  34718  34728M 34731  34732  34733  35070M 35071  35072
                                                 35073  35085M 35088  35089  35090  35352M 35353  35359M 35364M 35364
                                                 35378M 35379  35380  35384M 35384  35394M 35395  35396  35397  35402M
                                                 35403  35410M 35413  35414  35415  35420M 35423  35624M 35625  35631M
                                                 35636M 35636  35650M 35651  35652  35656M 35656  35666M 35667  35668
                                                 35669  35674M 35675  35682M 35685  35686  35687  35693M 35696  35893M
                                                 35894  35900M 35905M 35905  35919M 35920  35921  35925M 35925  35935M
                                                 35936  35937  35938  35943M 35944  35951M 35954  35955  35956  35962M
                                                 35965  36796M 36797  36803M 36808M 36808  36822M 36823  36824  36828M
                                                 36828  36838M 36839  36840  36841  36846M 36847  36854M 36857  36858
                                                 36859  36867M 36870  37282M 37283  37284  37285  37297M 37300  37301
                                                 37302  37468M 42039M 42040  42060M 42061  42062  42066M 42066  42076M
                                                 42077  42078  42079  42084M 42085  42092M 42095  42096  42097  42106M
                                                 42109  44850M 44857M 44865  44866M 45014M 45021M 45029  45030M 45269M
                                                 45276M 45284  45285M
 R15          15 0000000F FFFFFFFF A   #     894  2098   7961   8017M  8032M  8042   8065M  8065   8180   8186M  8228M
                                                  8228   8352M  8353M  8354   8374M  8375M  8376   8434M  8439M  8460M
1WGS      (WGS2193) (13:01) (15MAR04) Ordinary Symbol and Literal Cross Reference                                           Page  206
                                                  8487M  8506M  8538M  8583M  8628M  8673M  8711M  8734M  8801M  8820M
                                                  8887M  8961M  8988M  9072M  9090M  9095M  9113M  9140M  9179M  9208M
                                                  9225M  9254M  9302M  9332M  9399M  9437M  9475M  9513M  9594M  9594
                                                  9614M  9614   9621M  9687M  9712M  9779M  9963M  9990M  9990   9996M
                                                 10103M 10125M 10135M 10135  10157M 10157  10311M 10332M 10359M 10377M
                                                 10395M 10427M 10472M 10517M 10562M 10600M 10660M 10678M 10705M 10773M
                                                 10811M 10849M 10930M 10930  10950M 10950  10957M 10977M 10977  10991M
                                                 10996M 11056M 11078M 11129M 11134M 11175M 11251M 11251  11266M 11266
                                                 11280M 11285M 11297M 11297  11302  11310M 11360M 11360  11501M 11528M
                                                 11547M 11547  11553M 11611M 11633M 11677M 11718M 11794M 11794  11809M
                                                 11809  11815M 11827M 11827  11832  11844M 11894M 11894  12037M 12056M
                                                 12057M 12058M 12059  12118M 12150M 12178M 12186M 12186  12210M 12210
                                                 12343M 12348M 12381M 12408M 12427M 12516M 12534M 12539M 12557M 12584M
                                                 12649M 12687M 12725M 12806M 12806  12826M 12826  12833M 12852M 12852
                                                 12858M 12918M 12940M 12983M 13030M 13030  13048M 13053M 13129M 13129
                                                 13144M 13144  13150M 13162M 13162  13167  13179M 13229M 13229  13500M
                                                 13505M 13540M 13567M 13634M 13652M 13657M 13675M 13702M 13724M 13751M
                                                 13770M 13831M 13869M 13950M 13950  13970M 13970  13977M 13996M 13996
                                                 14002M 14062M 14084M 14127M 14180M 14185M 14261M 14261  14276M 14276
                                                 14282M 14294M 14294  14299  14311M 14361M 14361  14595M 14595  14611M
                                                 14637M 14637  14790M 14790  14906M 14911M 14954M 14981M 15000M 15077M
                                                 15095M 15100M 15118M 15145M 15185M 15212M 15251M 15278M 15317M 15344M
                                                 15381M 15426M 15486M 15518M 15554M 15635M 15635  15655M 15655  15662M
                                                 15681M 15681  15687M 15747M 15769M 15812M 16056M 16151M 16224M 16269M
                                                 16320M 16408M 16487M 16487  16502M 16502  16512M 16555M 16574M 16574
                                                 16583  16591M 16641M 16641  16895M 16922M 16962M 16989M 17029M 17056M
                                                 17096M 17123M 17155M 17181M 17252M 17284M 17328M 17360M 17441M 17441
                                                 17461M 17461  17468M 17487M 17487  17493M 17564M 17586M 17629M 17873M
                                                 17968M 18041M 18086M 18137M 18225M 18304M 18304  18319M 18319  18329M
                                                 18372M 18391M 18391  18400  18408M 18458M 18458  18735M 18735  18786M
                                                 18786  18805M 18829M 18829  18861M 18861  18893M 18893  19030M 19057M
                                                 19097M 19124M 19164M 19191M 19263M 19293M 19324M 19401M 19401  19421M
                                                 19421  19428M 19447M 19447  19453M 19513M 19535M 19578M 19739M 19739
                                                 19845M 19912M 19912  19963M 20036M 20081M 20132M 20220M 20299M 20299
                                                 20314M 20314  20324M 20367M 20386M 20386  20395  20403M 20453M 20453
                                                 20653M 20658M 20695M 20722M 20741M 20813M 20831M 20836M 20854M 20881M
                                                 20946M 20984M 21022M 21115M 21115  21135M 21135  21142M 21164M 21165M
                                                 21165  21193M 21210M 21215  21251M 21270M 21270  21275  21311M 21323
                                                 21334  21346M 21364M 21437M 21449  21460  21472M 21490M 21522M 21534
                                                 21545  21557M 21575M 21661M 21830M 21852M 21884M 21929M 21974M 22006M
                                                 22028M 22053M 22089M 22114M 22271M 22303M 22334M 22356M 22356  22362M
                                                 22423M 22445M 22488M 22535M 22535  22553M 22558M 22634M 22634  22649M
                                                 22649  22655M 22667M 22667  22672  22684M 22734M 22734  23224M 23229M
                                                 23263M 23290M 23309M 23392M 23410M 23415M 23433M 23460M 23529M 23567M
                                                 23647M 23647  23667M 23667  23674M 23693M 23693  23699M 23718M 23749M
                                                 23793M 23825M 23885M 23907M 23950M 23997M 23997  24015M 24020M 24096M
                                                 24096  24111M 24111  24117M 24129M 24129  24134  24146M 24196M 24196
                                                 24382M 24408M 24416M 24416  24435M 24435  24492M 24518M 24526M 24526
                                                 24545M 24545  24639M 24639  24708M 24708  24777M 24777  24846M 24846
                                                 24915M 24915  24984M 24984  25053M 25053  25122M 25122  25191M 25191
                                                 26185M 26193M 26193  26212M 26212  26269M 26295M 26303M 26303  26322M
                                                 26322  26379M 26405M 26413M 26413  26432M 26432  26489M 26515M 26523M
                                                 26523  26542M 26542  26599M 26625M 26633M 26633  26652M 26652  26706M
                                                 26714M 26714  26733M 26733  26788M 26796M 26796  26815M 26815  26875M
                                                 26898M 26898  26960M 26968M 26968  26987M 26987  27049M 27057M 27057
                                                 27076M 27076  27131M 27156M 27179M 27179  27274M 27341M 27408M 27475M
                                                 27527M 27566M 27585M 27585  27604M 27604  27660M 27685M 27693M 27693
                                                 27712M 27712  27837  27864M 27864  27883M 27883  27940M 27966M 27974M
                                                 27974  27993M 27993  28061M 28061  28128M 28128  28209M 28209  28290M
1WGS      (WGS2193) (13:01) (15MAR04) Ordinary Symbol and Literal Cross Reference                                           Page  207
                                                 28290  28371M 28371  28452M 28452  28513M 28513  28580M 28580  28637M
                                                 28663M 28671M 28671  28690M 28690  28747M 28773M 28781M 28781  28800M
                                                 28800  28857M 28883M 28891M 28891  28910M 28910  28964M 28972M 28972
                                                 28991M 28991  29045M 29053M 29053  29072M 29072  29126M 29134M 29134
                                                 29153M 29153  29207M 29215M 29215  29234M 29234  29300M 29300  29366M
                                                 29366  29432M 29432  29498M 29498  29553M 29561M 29561  29584M 29584
                                                 29644M 29652M 29652  29671M 29671  29822M 29822  29833M 29833  29994M
                                                 29994  30003M 30003  30132M 30132  30141M 30141  30171M 30171  30209M
                                                 30232M 30232  30466M 30466  30479  30517M 30517  30536M 30536  30640M
                                                 30659M 30659  30701M 30720M 30720  30953M 30981M 31031M 31031  31402M
                                                 31402  31408M 31431M 31431  31572M 31586M 31615M 31644M 31644  31824M
                                                 31851M 31928M 31955M 31987M 32013M 32013  32032M 32032  32332M 32332
                                                 32382M 32382  32398M 32425M 32425  32568M 32568  32586  32624M 32624
                                                 32643M 32643  32840M 32840  32859M 32859  33121M 33121  33139M 33139
                                                 33160  33234M 33234  33252M 33252  33273  33407M 33407  33523  33551
                                                 33573  33665M 33880M 33995M 33995  34107M 34155M 34208M 34217M 34293M
                                                 34293  34308M 34308  34318M 34345M 34345  34500M 34500  34512M 34512
                                                 34593M 34593  34612M 34636M 34636  34734M 34734  34746M 34746  34865M
                                                 34865  34887M 34887  34911M 34911  34991M 34991  35010M 35010  35091M
                                                 35091  35095M 35095  35114M 35114  35251M 35325M 35325  35416M 35416
                                                 35424M 35450M 35450  35563M 35688M 35688  35701M 35701  35720M 35720
                                                 35832M 35957M 35957  35970M 35970  35989M 35989  36224M 36243M 36244M
                                                 36245M 36246  36305M 36335M 36343M 36343  36367M 36367  36412M 36412
                                                 36431M 36431  36476M 36476  36495M 36495  36609M 36685M 36685  36860M
                                                 36860  36864M 36864  36952M 36952  37044M 37066M 37066  37085M 37085
                                                 37160M 37198M 37206M 37206  37230M 37230  37303M 37303  37307M 37307
                                                 37326M 37326  37467  37516M 37521M 37633M 37749M 37758M 37769M 37769
                                                 37791M 37791  37909M 37918M 37926M 37950  37951  37951  37951  37974M
                                                 37981M 37991M 37991  37998  37999  37999  37999  38036M 38070M 38089M
                                                 38096M 38117M 38117  38163M 38173U 38288  38298M 38330M 38343M 38354M
                                                 38354  38378M 38378  38473M 38493M 38493  38512M 38512  38600M 38620M
                                                 38620  38644M 38644  38718  38766M 38775M 38775  38830  38845M 38864M
                                                 38917M 38917  38941M 38941  39149M 39149  39322M 39322  39378  39378
                                                 39378  39479M 39500M 39500  39551M 39568M 39598M 39598  39724M 39867M
                                                 39896M 39971M 39971  40443M 40443  40457M 40485M 40485  40710M 40710
                                                 40974M 40974  41240M 41240  41496M 41496  42098M 42098  42144M 42153M
                                                 42167M 42167  42208M 42217M 42467M 42467  42494M 42494  42607M 42607
                                                 42626M 42626  42866  42923M 42937M 42938M 42939  42951  42978M 42993M
                                                 43090M 43105M 43131M 43177M 43192M 43218M 43264M 43279M 43305M 43325M
                                                 43471M 43497M 43512M 43687M 43687  43735M 43747  43774M 43789M 43813M
                                                 43822M 43822  43829  44043M 44058M 44071M 44075M 44084M 44084  44091
                                                 44178M 44193M 44227M 44496M 44511M 44745M 44760M 44869M 44928M 44943M
                                                 45055M 45077M 45077  45155M 45170M 45218M 45233M 45288M 45333M 45333
                                                 45496M 45625M 45743M 45783M 45890M 45907M 46014M 46031M 46057M 46186M
                                                 46203M 46309M 46326M 46352M 46400M 46509M 46524M 46543M 46558M 46627M
                                                 46644M 46676M 46677  46680M 46803M 46803  46833M 46833  47008  47064M
                                                 47163M 47178M 47193M 47241M 47256M 47271M 47354M 47369M 47384M 47560M
                                                 47575M 47590M 47667M 47682M 47708M 47788M 47803M 47829M 47876M 47891M
                                                 47906M 47935M 47945U 47973M 47982M 47982  48012M 48012
 R2            2 00000002 FFFFFFFF A   #     725  7961M  7985  14541M 14585  14746M 14751  15694M 15704U 16592M 16602U
                                                 17500M 17510U 18409M 18419U 18666U 19460M 19470U 19726M 19899M 20404M
                                                 20414U 29723U 30204M 30808M 30808  30842M 30866M 30866  31256M 31257M
                                                 31267  31398  31586  32502M 32535M 32586M 32602M 32603M 32604  32620
                                                 32729M 32786M 32789M 32790M 32791  32792M 32793  32822  32831M 32832M
                                                 32833  32836  32999M 33003M 33320M 33321M 33380M 33382  33522  33551M
                                                 33555M 33573M 33629M 33745M 33747M 33851M 33854M 33857M 33860M 33908M
                                                 33909M 37950  37951  37951  37951  37981M 37998  37999  37999  37999
                                                 38041M 38051U 38057M 38070  38096M 38763M 38830M 38845  38878  39209M
                                                 39218M 39218  39226M 39228  39243M 39259M 39262M 39264  39279M 39284M
1WGS      (WGS2193) (13:01) (15MAR04) Ordinary Symbol and Literal Cross Reference                                           Page  208
                                                 39285  39378  39378  39378  39487M 39488M 39490M 39514  39571M 39743M
                                                 39797M 39844  39890  39917  40056M 40061M 40146M 40183M 40220M 40257M
                                                 40329M 40401M 40572M 40620  40772M 40820  40847M 41035M 41083  41351
                                                 41401  42152M 42225M 42270  42278M 42289M 42356  42395  42410M 42411M
                                                 42415M 42455M 42867  43660M 43661M 43663M 43683M 43732M 43852M 45289M
                                                 46475M 46476M 46533  47100M 47106  47314M 47316M 47399M 47405  47419
                                                 47433  47621M 47627
 R3            3 00000003 FFFFFFFF A   #     738  8777M  8863M 14526M 14527M 14528  14540M 14542M 14543M 14544  14545M
                                                 14562M 14564  14583M 14584  14585M 14726M 14726  14738  14744  14762M
                                                 14762  14940M 15975M 15977M 15978  16847M 17792M 17794M 17795  18997M
                                                 19760M 19762M 19763  22061M 22062M 22062  22071M 22071  22102  23187M
                                                 23323M 23323  23731M 23731  23775M 23775  27754M 27755M 27757M 29873M
                                                 29874  29875M 29876  29905M 29916M 29916  29930  29939  29940M 29941
                                                 30041M 30052M 30052  30066  30075  32534M 32615M 32616M 32617  32785M
                                                 32793M 32794M 32822M 32823M 32824  33000M 33024M 33025M 33039  33048M
                                                 33054M 33055  33195M 33197M 33206M 33206  33212M 33213M 33220  33276
                                                 33318  33321  33323  33369M 33370M 33371  33552M 33574M 33586  33598
                                                 33622M 33627  33746M 33747  33748  33751M 33753  33852M 33853M 33858M
                                                 33859M 33910M 33913M 33915  34551M 34555M 34564M 34564  34571  34784M
                                                 34788M 34797M 34797  34804  34823M 34827M 34836M 34836  34843  39491M
                                                 39566  39742M 39742  39838M 39838  39844M 39910M 39910  39917M 39934M
                                                 39934  39939M 39940  40057M 40573M 40574M 40575  40648M 40673  40773M
                                                 40774M 40775  40908M 40933  41036M 41037M 41038  41111M 41136  41150
                                                 41156  41312M 41316M 41325M 41325  41332  41354M 41355M 41356  41429
                                                 41463M 41895M 41898  41910M 41918M 41927M 41927  41934  41972M 41975
                                                 41987M 41995M 42004M 42004  42011  42226M 42270  42288M 42289  42291M
                                                 42335  42353M 42354  42356M 42360M 42369M 42369  42376  42416M 42420M
                                                 42429M 42429  42436  42844M 42854U 46993M 47003U
 R4            4 00000004 FFFFFFFF A   #     751  8446M 10046M 10056U 10318M 11003M 11013U 11311M 11321U 11486M 11560M
                                                 11570U 11845M 11855U 12367M 12865M 12875U 13180M 13190U 13526M 14009M
                                                 14019U 14312M 14322U 14721M 14738  14869M 14927  14935U 16820M 16834
                                                 16842U 18970M 18984  18992U 20681M 22369M 22379U 22685M 22695U 23249M
                                                 23835M 23845U 24147M 24157U 31148M 31300  31363  31386  31593M 31803M
                                                 31830M 31934M 31966M 32503M 32504  32505M 32505  32535M 32614M 32615
                                                 32730M 32731  32732M 32732  32734M 32786M 32965M 32966  32968M 32995
                                                 33001M 33003M 33026M 33027M 33039  33275M 33276M 33317M 33318M 33319M
                                                 33368M 33369  33553M 33555M 33575M 33629M 33822M 33824M 33833M 33833
                                                 33839M 33840M 33856  33878  33907  39560M 39560  39567M 40058M 40061M
                                                 40062M 40575M 40577M 40620  40640M 40646  40648  40679  40775M 40777M
                                                 40820  40840M 40846  40908  40939  41038M 41040M 41083  41103M 41109
                                                 41111  41161  41356M 41358M 41401  41421M 41427  41430  42290M 42335
                                                 42343M 42354M 42404M 42404  42416  42455  42457M 42458M 42459  44827M
                                                 44838U 44991M 45002U 45246M 45257U 47077M 47136  47281M 47455M 47840M
                                                 47849M 47849
 R5            5 00000005 FFFFFFFF A   #     764  7968M  7976U  8044   8150M  8160U  8387M  8395U 10284M 11481M 12360M
                                                 13517M 14722M 14746  14923M 16830M 18980M 20670M 23241M 31149M 31301
                                                 31364  31387  31740M 31748U 32504M 32506M 32515M 32515  32533  32534
                                                 32731M 32733M 32735M 32744M 32744  32773  32779M 32784  32785  32966M
                                                 32967M 32977M 32977  32996  33002M 33277M 33281M 33290M 33290  33297
                                                 33322M 33323M 33324M 33333M 33333  33341M 33343  33554M 33576M 33586
                                                 33598M 33622  33628M 33845M 33879  33909  33910  37530M 37538U 38718M
                                                 38728U 39495M 39495  39564M 39564  39565M 39566M 39568  40059M 40060M
                                                 40646M 40647M 40659M 40659  40846M 40847  40907M 40919M 40919  41109M
                                                 41110M 41122M 41122  41427M 41428M 41441M 41441  41882M 41890U 43563M
                                                 43652M 43661  43681M 43703M 43703  43734M 43807M 43897M 43938  43998M
                                                 43999M 44206M 44219  44252M 44252  44318  44339M 44369  44390M 44418
                                                 44427M 44453  44461M 44490  44567  44588M 44618  44639M 44667  44676M
                                                 44702  44710M 44739  44971M 44971  45098M 45098  45128  45355  45488
                                                 45522  45617  45651  45735  46049  46344  46392  46573M 46583U 47042M
1WGS      (WGS2193) (13:01) (15MAR04) Ordinary Symbol and Literal Cross Reference                                           Page  209
                                                 47089M 47089  47214  47314  47454M 47480M 47482M 47504M 47519M 47519
                                                 47533  47610M 47610  47722M 47924M
 R6            6 00000006 FFFFFFFF A   #     777  8322M  8330U 10275M 11472M 12307M 13464M 14870M 16821M 18971M 20617M
                                                 23188M 30369M 30377U 30798M 31115M 31123U 31559M 31567U 31730M 31738U
                                                 32158M 32166U 32487M 32498U 32717M 32725U 32959M 33509M 33517U 34460M
                                                 34468U 34694M 34702U 34964M 34972U 37434M 37442U 37865M 37873U 38443M
                                                 38451U 38570M 38578U 38707M 38715U 39195M 39203U 39496M 39567  39569M
                                                 41429M 41430M 41455  41872M 41880U 43562M 43651M 43660  43933  43999
                                                 44204M 44214  44338M 44389M 44425M 44460M 44485  44587M 44638M 44674M
                                                 44709M 44734  45483  45612  45730  46044  46339  46387  47041M 47314
                                                 47399  47478M 47502M 47720M 47922M
 R7            7 00000007 FFFFFFFF A   #     790  2091M  2091   2092B  2104B
 R8            8 00000008 FFFFFFFF A   #     803 12030U 31554U 32154U 32954U 33504U 36217U 37154U 39034U 39689U 40050U
                                                 41857U 42840U 46989U
 SCANCHK       1 00000000 0000000B     T   10188 10188  11388  13376  14417  16719  18535  20529  22763  24221  42649
 SCDQUOTE      1 00000000 00000010     T   12235 12235  37355
 SCNNOOP       1 00000000 0000001D     T   25236 25236  25251  25266  25281  25296  25311  25326  25341  25751  25766
                                                 25841  25856  25964  42562
 SCRTOPTS      4 0000138C 00000001     F   13234 13374
 SCSEG         1 00000000 00000021     T   30279 30279
 SCUPCASE      1 00000000 00000029     T   37364 37364
 SDSNQSZ       1 0000002C FFFFFFEC A   U    6079  6080   6081
 SEG           1 00000000 00000007     T   10175 10175  11379  12223  13366  14408  16710  18528  20522  22752  24212
                                                 24555  30265  31048  31664  37346  39353  42652  46862  48026
 SEGCB        60 00000000 FFFFFFE6     J    7045 38728U 46583U 47945U
 SEGCBCOD      1 00000000 FFFFFFE6     R    6956  6965   6975   6985   6995   7005   7015   7025
 SEGCBLENF
               4 0000000C FFFFFFE6     A    7031 46598M 46598  46666  47962
 SEGCBLOC      4 00000020 FFFFFFE6     A    7035 46661  47957
 SEGCBOVF      5 00000000 FFFFFFE6         7005 38757
 SEGCBSPP      4 00000000 FFFFFFE6         6995 38896
 SEGCBWR       2 00000000 FFFFFFE6         6975 38745
 SEGCLR        1 00000000 0000000D     T   11390 11390  46858  48024
 SEGCR         1 00000000 00000011     T   12237 12237  22766  37357
 SEGDC         1 00000000 00000008     T   10178 10178  22765  30266  46877
 SEGINIT       1 00000000 00000004     T    8087  8087  42650  46859
 SEGINITR      1 00000000 00000005     T    8089  8089
 SEGT          1 00000000 00000009     T   10183 10183  46861  48029
 SEGWR         1 00000000 0000000C     T   10190 10190  11391  12225  13378  14419  16721  18537  20531  22775  24223
                                                 32059
 SHCTARGS    812 00000000 FFFFFFE3     J    7283 18666U 18992U 19726  19899
 SHCTDSK      32 00000000 FFFFFFE3         7239 18682  18711
 SHCTFLAG      1 00000000 FFFFFFE3     R    7225  7229   7234   7239   7244   7249   7254
 SHCTLIKE    128 00000110 FFFFFFE3     C    7263 19178
 SHCTLIKL      4 0000010C FFFFFFE3     F    7262 19146  19183  19245
 SHCTLOWB    128 0000008C FFFFFFE3     C    7261 19044
 SHCTLOWL      4 00000088 FFFFFFE3     F    7260 19012  19049  19230
 SHCTMXPG      1 00000064 FFFFFFE3 A   U    7270 20551
 SHCTPAGS      4 00000194 FFFFFFE3     F    7269  7270  19638M 19788M 20116  20204
 SHCTPGCT      2 00000190 FFFFFFE3     H    7268 19639M 19688  19784  19786M 20113  20127M 20127  20201  20215M 20215
 SHCTTAP      16 00000000 FFFFFFE3         7244 18694  18762
 SHCTUPB     128 00000008 FFFFFFE3     C    7259 19111
 SHCTUPL       4 00000004 FFFFFFE3     F    7258 19079  19116  19215
 SHDRALL     128 00000000 FFFFFFE5         7064 15453
 SHDRARGS    100 00000000 FFFFFFE5     J    7123 14935U
 SHDRFLAG      1 00000000 FFFFFFE5     R    7060  7064   7069   7074   7079   7084   7089   7094
 SHDRHEX      64 00000000 FFFFFFE5         7069 15363
 SHDRLIKE     16 00000020 FFFFFFE5     C    7103 15331
 SHDRLIKL      4 0000001C FFFFFFE5     F    7102 15299  15336
1WGS      (WGS2193) (13:01) (15MAR04) Ordinary Symbol and Literal Cross Reference                                           Page  210
 SHDRLOWB      8 00000014 FFFFFFE5     C    7101 15199
 SHDRLOWL      4 00000010 FFFFFFE5     F    7100 15167  15204
 SHDRMXPG      1 0000000A FFFFFFE5 A   U    7110 16742
 SHDROLD       2 00000000 FFFFFFE5         7094 15468
 SHDRPAGS      4 00000034 FFFFFFE5     F    7109  7110  15872M 16003M 16304  16392
 SHDRPGCT      2 00000030 FFFFFFE5     H    7108 15873M 15922  15999  16001M 16301  16315M 16315  16389  16403M 16403
 SHDRTAB      32 00000000 FFFFFFE5         7074 15408
 SHDRUPB       8 00000008 FFFFFFE5     C    7099 15265
 SHDRUPL       4 00000004 FFFFFFE5     F    7098 15233  15270
 SHDSARGS    512 00000000 FFFFFFE4     J    7211 16842U
 SHDSDAT      16 00000000 FFFFFFE4         7156 17222
 SHDSFLAG      1 00000000 FFFFFFE4     R    7137  7141   7146   7151   7156   7161   7166   7171   7176
 SHDSFLG2      1 00000001 FFFFFFE4     R    7181  7182
 SHDSINT       4 00000000 FFFFFFE4         7166 17234
 SHDSLIKE    128 00000110 FFFFFFE4     C    7191 17110
 SHDSLIKL      4 0000010C FFFFFFE4     F    7190 17078  17115
 SHDSLOWB    128 0000008C FFFFFFE4     C    7189 16976
 SHDSLOWL      4 00000088 FFFFFFE4     F    7188 16944  16981
 SHDSMXPG      1 00000019 FFFFFFE4 A   U    7198 18556
 SHDSONLY      2 00000000 FFFFFFE4         7171 17137
 SHDSPAGS      4 00000194 FFFFFFE4     F    7197  7198  17689M 17820M 18121  18209
 SHDSPGCT      2 00000190 FFFFFFE4     H    7196 17690M 17739  17816  17818M 18118  18132M 18132  18206  18220M 18220
 SHDSTRK      64 00000000 FFFFFFE4         7146 17198
 SHDSTYP      32 00000000 FFFFFFE4         7151 17210
 SHDSUPB     128 00000008 FFFFFFE4     C    7187 17043
 SHDSUPL       4 00000004 FFFFFFE4     F    7186 17011  17048
 SHOCTOPT      4 00003088 00000001     F   20465 20527
 SMSDATA       2 000056B0 00000001     H   28587 25690
 SMSMGMT       2 00005706 00000001     H   28697 25705
 SMSOPTS       4 00004B10 00000001     F   25678 25210
 SMSSTOR       2 0000575C 00000001     H   28807 25720
 SPR          13 0000000D 00000001 A   #    1116  7928   7931   7932   7933M  7933   8057M  8061   8063   8121   8124
                                                  8125   8126M  8126   8220M  8224   8226   8293   8296   8297   8298M
                                                  8298  10149M 10153  10155  10246  10249  10250  10251M 10251  11352M
                                                 11356  11358  11443  11446  11447  11448M 11448  11886M 11890  11892
                                                 11995  11998  12000  12001M 12001  12202M 12206  12208  12278  12281
                                                 12282  12283M 12283  13221M 13225  13227  13435  13438  13439  13440M
                                                 13440  14353M 14357  14359  14474  14477  14478  14479M 14479  14629M
                                                 14633  14635  14678  14681  14682  14683M 14683  14782M 14786  14788
                                                 14840  14843  14844  14845M 14845  16633M 16637  16639  16791  16794
                                                 16795  16796M 16796  18450M 18454  18456  18596  18599  18600  18601M
                                                 18601  18885M 18889  18891  18941  18944  18945  18946M 18946  20445M
                                                 20449  20451  20588  20591  20592  20593M 20593  22726M 22730  22732
                                                 23158  23161  23162  23163M 23163  24188M 24192  24194  24338  24341
                                                 24342  24343M 24343  24427M 24431  24433  24448  24451  24452  24453M
                                                 24453  24537M 24541  24543  24585  24588  24589  24590M 24590  24631M
                                                 24635  24637  24654  24657  24658  24659M 24659  24700M 24704  24706
                                                 24723  24726  24727  24728M 24728  24769M 24773  24775  24792  24795
                                                 24796  24797M 24797  24838M 24842  24844  24861  24864  24865  24866M
                                                 24866  24907M 24911  24913  24930  24933  24934  24935M 24935  24976M
                                                 24980  24982  24999  25002  25003  25004M 25004  25045M 25049  25051
                                                 25068  25071  25072  25073M 25073  25114M 25118  25120  25137  25140
                                                 25141  25142M 25142  25183M 25187  25189  26144  26147  26148  26149M
                                                 26149  26204M 26208  26210  26225  26228  26229  26230M 26230  26314M
                                                 26318  26320  26335  26338  26339  26340M 26340  26424M 26428  26430
                                                 26445  26448  26449  26450M 26450  26534M 26538  26540  26555  26558
                                                 26559  26560M 26560  26644M 26648  26650  26665  26668  26669  26670M
                                                 26670  26725M 26729  26731  26746  26749  26750  26751M 26751  26807M
                                                 26811  26813  26828  26831  26832  26833M 26833  26890M 26894  26896
1WGS      (WGS2193) (13:01) (15MAR04) Ordinary Symbol and Literal Cross Reference                                           Page  211
                                                 26911  26914  26915  26916M 26916  26979M 26983  26985  27000  27003
                                                 27004  27005M 27005  27068M 27072  27074  27089  27092  27093  27094M
                                                 27094  27171M 27175  27177  27192  27195  27196  27197M 27197  27596M
                                                 27600  27602  27617  27620  27621  27622M 27622  27704M 27708  27710
                                                 27725  27728  27729  27730M 27730  27875M 27879  27881  27896  27899
                                                 27900  27901M 27901  27985M 27989  27991  28006  28009  28010  28011M
                                                 28011  28053M 28057  28059  28074  28077  28078  28079M 28079  28120M
                                                 28124  28126  28141  28144  28145  28146M 28146  28201M 28205  28207
                                                 28222  28225  28226  28227M 28227  28282M 28286  28288  28303  28306
                                                 28307  28308M 28308  28363M 28367  28369  28384  28387  28388  28389M
                                                 28389  28444M 28448  28450  28465  28468  28469  28470M 28470  28505M
                                                 28509  28511  28526  28529  28530  28531M 28531  28572M 28576  28578
                                                 28593  28596  28597  28598M 28598  28682M 28686  28688  28703  28706
                                                 28707  28708M 28708  28792M 28796  28798  28813  28816  28817  28818M
                                                 28818  28902M 28906  28908  28923  28926  28927  28928M 28928  28983M
                                                 28987  28989  29004  29007  29008  29009M 29009  29064M 29068  29070
                                                 29085  29088  29089  29090M 29090  29145M 29149  29151  29166  29169
                                                 29170  29171M 29171  29226M 29230  29232  29247  29250  29251  29252M
                                                 29252  29292M 29296  29298  29313  29316  29317  29318M 29318  29358M
                                                 29362  29364  29379  29382  29383  29384M 29384  29424M 29428  29430
                                                 29445  29448  29449  29450M 29450  29490M 29494  29496  29511  29514
                                                 29515  29516M 29516  29576M 29580  29582  29597  29600  29601  29602M
                                                 29602  29663M 29667  29669  29687  29690  29691  29692M 29692  30224M
                                                 30228  30230  30339  30342  30343  30344M 30344  30528M 30532  30534
                                                 30611  30614  30615  30616M 30616  30651M 30655  30657  30672  30675
                                                 30676  30677M 30677  30712M 30716  30718  30768  30771  30772  30773M
                                                 30773  31023M 31027  31029  31085  31088  31089  31090M 31090  31423M
                                                 31427  31429  31519  31522  31524  31525M 31525  31636M 31640  31642
                                                 31700  31703  31704  31705M 31705  32024M 32028  32030  32119  32122
                                                 32124  32125M 32125  32417M 32421  32423  32457  32460  32461  32462M
                                                 32462  32635M 32639  32641  32687  32690  32691  32692M 32692  32851M
                                                 32855  32857  32919  32922  32924  32925M 32925  33399M 33403  33405
                                                 33469  33472  33474  33475M 33475  33987M 33991  33993  34061  34064
                                                 34065  34066M 34066  34337M 34341  34343  34431  34434  34435  34436M
                                                 34436  34628M 34632  34634  34665  34668  34669  34670M 34670  34903M
                                                 34907  34909  34935  34938  34939  34940M 34940  35002M 35006  35008
                                                 35031  35034  35035  35036M 35036  35106M 35110  35112  35140  35143
                                                 35144  35145M 35145  35442M 35446  35448  35470  35473  35474  35475M
                                                 35475  35712M 35716  35718  35739  35742  35743  35744M 35744  35981M
                                                 35985  35987  36182  36185  36187  36188M 36188  36359M 36363  36365
                                                 36380  36383  36384  36385M 36385  36423M 36427  36429  36444  36447
                                                 36448  36449M 36449  36487M 36491  36493  36516  36519  36520  36521M
                                                 36521  36677M 36681  36683  36722  36725  36726  36727M 36727  36944M
                                                 36948  36950  37013  37016  37017  37018M 37018  37077M 37081  37083
                                                 37119  37122  37124  37125M 37125  37222M 37226  37228  37243  37246
                                                 37247  37248M 37248  37318M 37322  37324  37404  37407  37408  37409M
                                                 37409  37783M 37787  37789  37835  37838  37839  37840M 37840  38370M
                                                 38374  38376  38413  38416  38417  38418M 38418  38504M 38508  38510
                                                 38540  38543  38544  38545M 38545  38636M 38640  38642  38677  38680
                                                 38681  38682M 38682  38933M 38937  38939  38999  39002  39004  39005M
                                                 39005  39141M 39145  39147  39166  39169  39170  39171M 39171  39314M
                                                 39318  39320  39419  39422  39423  39424M 39424  39590M 39594  39596
                                                 39654  39657  39659  39660M 39660  39963M 39967  39969  40015  40018
                                                 40020  40021M 40021  40477M 40481  40483  40542  40545  40546  40547M
                                                 40547  40702M 40706  40708  40742  40745  40746  40747M 40747  40966M
                                                 40970  40972  41005  41008  41009  41010M 41010  41232M 41236  41238
                                                 41281  41284  41285  41286M 41286  41488M 41492  41494  41822  41825
                                                 41827  41828M 41828  42486M 42490  42492  42574  42577  42578  42579M
                                                 42579  42618M 42622  42624  42805  42808  42810  42811M 42811  46825M
1WGS      (WGS2193) (13:01) (15MAR04) Ordinary Symbol and Literal Cross Reference                                           Page  212
                                                 46829  46831  46954  46957  46959  46960M 46960  48004M 48008  48010
 SSEQBAD       2 00005BB0 00000001     H   30181 29836B 29847B 29919B 29933B 29957B 30006B 30055B 30069B 30091B 30144B
                                                 30161B
 SSEQDONE      2 00005BE4 00000001     H   30213 30178B 30210B
 TOUPPER       1 00000000 00000033     T   46866 46866
 TRC           1 00000000 00000000 A   T    2120  2120
 TRKMSG      235 00000004 FFFFFFDF     C   11972 12046  12051  12127  12156
 TRKMSGL       4 00000000 FFFFFFDF     F   11971 12064M 12155
 TRKMSGNP      2 00000F36 00000001     H   12063 12060B
 TRKMSGWA    239 00000000 FFFFFFDF     J   11979 12001  12030U 12206  12208  12209
 TTYFLAG       1 00000004 FFFFFFEA     R    6208  6212
 TTYMAX#       1 00000006 FFFFFFEA A   U    6264  6265
 TTYTFLAG      1 00000005 FFFFFFEA     R    6218  6222   6227   6232   6237   6242   6247   6252
 UPAT          4 00000074 FFFFFFE7     F    6869  6928
 UPATFHDR      8 00000018 FFFFFFE7         6842 37624M
 UPATFLG1      1 00000018 FFFFFFE7     R    6818  6822   6827   6832   6837   6842   6847
 UPATH       176 00000000 FFFFFFE7     J    6939 37538U 37633  38051U
 UPATMFL       1 0000008C FFFFFFE7     R    6879 37617M
 UPATMGC       4 00000074 FFFFFFE7     R    6871 38057
 UPATMNAM      1 00000020 FFFFFFE7 A   U    6883 37615
 UPATSFLG      1 000000AC FFFFFFE7     X    6930  6892
 UPATYOU       8 00000084 FFFFFFE7     X    6877 37558M 37590M 37606M
 UPPTBL        1 00000000 00000000 A   T    2183  2183
 VOLCHK        1 00000000 00000031     T   40505 40505
 VOLDONE       2 000080D0 00000001     H   40461 40444B 40453B 40458B
 VOLOPTS       4 00004D18 00000001     F   25875 25201
 VOLPSH        2 0000444E 00000001     H   24579 13246  16665  18482  20477  23023  24296  24575  25995
 WACSDONE      2 00000B8C 00000001     H   11300 10312B 10661B 10958B 10997B 11079B 11135B 11176B 11286B
 WALLDONE      2 0000385E 00000001     H   22670 20837B 21143B 22363B 22446B 22489B 22559B 22656B
 WALLDON1      4 0000387A 00000001     I   22685 20659B
 WAR           8 00000008 00000001 A   #    1039  7932M  8046   8057   8125M  8220   8297M 10149  10250M 11352  11447M
                                                 11886  12000M 12202  12282M 13221  13439M 14353  14478M 14629  14682M
                                                 14782  14844M 16633  16795M 18450  18600M 18885  18945M 20445  20592M
                                                 22726  23162M 24188  24342M 24427  24452M 24537  24589M 24620  24631
                                                 24658M 24689  24700  24727M 24758  24769  24796M 24827  24838  24865M
                                                 24896  24907  24934M 24965  24976  25003M 25034  25045  25072M 25103
                                                 25114  25141M 25172  25183  26148M 26204  26229M 26314  26339M 26424
                                                 26449M 26534  26559M 26644  26669M 26725  26750M 26807  26832M 26890
                                                 26915M 26979  27004M 27068  27093M 27171  27196M 27596  27621M 27704
                                                 27729M 27875  27900M 27985  28010M 28053  28078M 28120  28145M 28201
                                                 28226M 28282  28307M 28363  28388M 28444  28469M 28505  28530M 28572
                                                 28597M 28682  28707M 28792  28817M 28902  28927M 28983  29008M 29064
                                                 29089M 29145  29170M 29226  29251M 29292  29317M 29358  29383M 29424
                                                 29449M 29490  29515M 29576  29601M 29663  29691M 30224  30343M 30528
                                                 30615M 30651  30676M 30712  30772M 31023  31089M 31398  31423  31524M
                                                 31636  31704M 32024  32124M 32417  32461M 32620  32635  32691M 32836
                                                 32851  32924M 33382  33399  33474M 33970  33987  34065M 34337  34435M
                                                 34628  34669M 34903  34939M 35002  35035M 35106  35144M 35431  35442
                                                 35474M 35712  35743M 35981  36187M 36359  36384M 36423  36448M 36487
                                                 36520M 36677  36726M 36944  37017M 37077  37124M 37222  37247M 37318
                                                 37408M 37783  37839M 38359  38370  38417M 38504  38544M 38636  38681M
                                                 38880  38908  38933  39004M 39141  39170M 39314  39423M 39590  39659M
                                                 39963  40020M 40477  40546M 40682  40702  40746M 40942  40966  41009M
                                                 41221  41232  41285M 41477  41488  41827M 42486  42578M 42618  42810M
                                                 46679  46825  46959M 47972  48004
 WCATDONE      2 0000305C 00000001     H   20393 19429B 19454B 19536B 19579B 19846B 19964B 20037B 20133B 20221B 20325B
 WCATDON1      4 0000417A 00000001     I   24147 23230B
 WCATLAST      2 00002F10 00000001     H   20050 19975B
 WCONDSE       2 00007BEE 00000001     H   39160 37363
1WGS      (WGS2193) (13:01) (15MAR04) Ordinary Symbol and Literal Cross Reference                                           Page  213
 WCTLGDON      2 0000415E 00000001     H   24132 23416B 23675B 23700B 23908B 23951B 24021B 24118B
 WDIRDONE      2 000021AA 00000001     H   16581 15101B 15663B 15688B 15770B 15813B 16057B 16152B 16225B 16321B 16409B
                                                 16513B
 WDIRDON1      4 000021C0 00000001     I   16592 14912B
 WDIRLAST      2 0000205E 00000001     H   16238 16163B
 WDSNDONE      2 00002918 00000001     H   18398 17469B 17494B 17587B 17630B 17874B 17969B 18042B 18138B 18226B 18330B
 WDSNLAST      2 000027CC 00000001     H   18055 17980B
 WGEMSG      235 00000000 FFFFFFD9     C   37097 37169  37174
 WGEMSGWA    235 00000000 FFFFFFD9     J   37104 37125  37154U 37226  37228  37229
 WGERRID       2 00007564 00000001     H   37007 36970
 WGERRMSG      2 000075A0 00000001     H   37112 36985
 WGERRPRT      4 000074EC 00000001     F   36958 37361
 WGERRXXX      2 000075E6 00000001     H   37237 37000
 WGRDBLK       4 0000003C FFFFFFE1     A    7558 31168  31218M
 WGRDLIM       4 00000044 FFFFFFE1     A    7560 31183  31216M
 WGRDLNO       4 0000004C FFFFFFE1     A    7562 32602  32604M 32831  32833M
 WGRDNDX       4 00000040 FFFFFFE1     A    7559 31183  31219M 31227  32503  32541  32614  32616  32617M 32730  32792
                                                 32823  32824M 32965  33368  33370  33371M
 WGRDOFF       4 00000048 FFFFFFE1     A    7561 32734  32735  32789  32791M 32821M 32821
 WGSACCES      2 000007DE 00000001     H   10240 10236
 WGSALLOC      2 000031FE 00000001     H   20582 20578
 WGSALOFG      1 00000028 FFFFFFE1     R    7440  7444   7449   7454   7459   7464
 WGSAPRT       4 000070FC 00000001     F   35996 22783
 WGSBKHDR     16 00000000 00000001 A   U    7409  8086   8447  10319  11183  11395  11396  11487  11726  12229  12230
                                                 12368  13061  13382  13385  13527  14193  14423  14424  14941  16419
                                                 16723  16726  16848  18236  18539  18542  18998  20231  20533  20536
                                                 20682  22566  22779  22782  23250  24028  24227  24230  31217  31594
                                                 31804  31831  31935  31967  34225  35348  35620  35889  37345  37347
                                                 38031  39368
 WGSBKLEN      1 00001000 00000001 A   U    7410  8085
 WGSBLKSI      4 00000010 FFFFFFE1     F    7432  9674M  9696  27647M 27665
 WGSCATLG      2 00003DE0 00000001     H   23152 23148
 WGSCDONE      2 00006300 00000001     H   32009 31764B
 WGSCLOSE      2 00006230 00000001     H   31694 31690
 WGSCRTCH      2 0000101E 00000001     H   12272 12268
 WGSCTFLS      2 00002EE4 00000001     H   19982 19662B 19817B 19936B
 WGSDRARG      4 00000024 FFFFFFE1     A    7437 14927M 16834M 18984M
 WGSDRBLK      4 00000020 FFFFFFE1     F    7436 21037M 21179  22132  28042M 28109M 28561M 28561
 WGSDRFLS      2 00002032 00000001     H   16170 15896B 16032B 16128B
 WGSDSFLS      2 000027A0 00000001     H   17987 17713B 17849B 17945B
 WGSEPRT       4 000071EC 00000001     F   36090 11397  13386  14425  16732  18548  20543  24231  37354
 WGSFCYL     128 00000028 FFFFFFE1         7444 21431  21911  28180  28180  28181  28181  28183M 28270M 28342  28342
                                                 28343  28343  28345M 28423  28423  28424  28424  28426M
 WGSFEDIT    128 00000029 FFFFFFE1         7473  9853  21735  26862M 27514M
 WGSFEOF     128 0000002B FFFFFFE1         7521 31135  31209M 31796
 WGSFF        64 00000029 FFFFFFE1         7478  9766M  9933M 21648M 21815M 26945M 27034M 27261M 27328M
 WGSFINT      32 0000002A FFFFFFE1         7502  9803   9883  21685  21765  29281M 31333  33087  33643  33871
 WGSFKB       32 00000028 FFFFFFE1         7454 21403  21956  28180  28180  28182  28182  28261  28261  28263  28263
                                                 28351M 28423  28423  28425  28425
 WGSFLG1       1 0000002D FFFFFFE1     R    7535  7539
 WGSFLUSH     64 0000002B FFFFFFE1         7526 16174M 16549  17991M 18366  19986M 20361
 WGSFMB       16 00000028 FFFFFFE1         7459 21305  21866  28181  28181  28182  28182  28262  28262  28263  28263
                                                 28342  28342  28344  28344  28432M
 WGSFMEMB      8 00000028 FFFFFFE1         7464 22253  28041M 28108M
 WGSFNNUM     64 0000002A FFFFFFE1         7497 29413M
 WGSFNUM     128 0000002A FFFFFFE1         7492  9815   9895  21697  21777  29347M 31345  33075  33698
 WGSFSEQ       8 0000002A FFFFFFE1         7512  9827   9907  21709  21789  29732M 31357  33099  33188  33655  33710
                                                 33815
 WGSFTRK      64 00000028 FFFFFFE1         7449 21043M 21245  22154  28189M 28261  28261  28262  28262  28264M 28343
1WGS      (WGS2193) (13:01) (15MAR04) Ordinary Symbol and Literal Cross Reference                                           Page  214
                                                 28343  28344  28344  28424  28424  28425  28425
 WGSFUNUM     16 0000002A FFFFFFE1         7507 29479M
 WGSFV        32 00000029 FFFFFFE1         7483  9841  21723  27395M 27462M 33616
 WGSFWRAP    128 0000002D FFFFFFE1         7539 31278M 31294
 WGSHOCAT      2 00002B60 00000001     H   18935 18931
 WGSHODIR      2 00001BC8 00000001     H   14834 14830
 WGSHODSN      2 000023B6 00000001     H   16785 16781
 WGSLNHDR     12 00000000 00000001 A   U    7404 31450  31572  31662  34019
 WGSLNLEN      4 00000000 00000001 A   U    7405 31228  31581M 32504  32615  32731  32793  32822  32966  33369
 WGSLNLNO      8 00000004 00000001 A   U    7406 31584  32542  32542  32554  32555  34014
 WGSLNTXT      1 0000000C 00000001 A   U    7407 32505  32732
 WGSLRECL      4 0000000C FFFFFFE1     F    7431  9662   9672   9740   9922   9935M 21622  21804  21817M 26947M 27036M
                                                 27118M 27136  33018  33027  33054  33545  33574  33662  33722  33739
                                                 33839  33849
 WGSNHEAP      4 00000004 FFFFFFE1     A    7429  8042M  8180
 WGSNREC       4 00000014 FFFFFFE1     F    7433  9647   9673  27837M
 WGSOHEAP      4 00000000 FFFFFFE1     A    7428  7985M  8186
 WGSOPEN       2 00000120 00000001     H    8287  8283
 WGSOPRT       4 00006AE8 00000001     F   34352 37348
 WGSOPTS       1 0000002A FFFFFFE1     R    7488  7492   7497   7502   7507   7512
 WGSPATH       4 00000008 FFFFFFE1     A    7430 37458  37527M 37889  37926  38041  38467  38473  38484M 38484  38593
                                                 38766
 WGSPRQTY      4 00000018 FFFFFFE1     F    7434 21035M 21164  21215M 21311  21437  21522  22033  22160  28190M 28271M
                                                 28352M 28433M
 WGSRDONE      2 00006140 00000001     H   31412 31403B 31409B
 WGSREAD       2 00006046 00000001     H   31079 31075
 WGSRECFM      1 00000029 FFFFFFE1     R    7469  7473   7478   7483   9755  21637
 WGSRENAM      2 000015F2 00000001     H   13429 13425
 WGSRESLV      2 00008354 00000001     H   41815 41811
 WGSREXIT      2 00008578 00000001     H   42470 42218B
 WGSSCQTY      4 0000001C FFFFFFE1     F    7435 21036M 21223  21275M 22061  28494M
 WGSSEQF       4 00000034 FFFFFFE1     F    7554 29874M 29939M 33195  33822
 WGSSEQFL      4 00000038 FFFFFFE1     F    7555 29876M 29941M 30075M 31257  33213  33221  33277  33319  33324  33840
                                                 33845  33848  33850
 WGSSG        60 00000058 FFFFFFE1     X    7654  8017   8032   8460   8487   8506   8538   8583   8628   8673   8711
                                                  8734   8801   8820   8887   8961   8988   9113   9140   9179   9208
                                                  9225   9254   9302   9332   9399   9437   9475   9513   9687   9712
                                                  9779   9963  10103  10332  10359  10377  10395  10427  10472  10517
                                                 10562  10600  10678  10705  10773  10811  10849  11056  11501  11528
                                                 11611  12381  12408  12427  12557  12584  12649  12687  12725  12918
                                                 13540  13567  13675  13702  13724  13751  13770  13831  13869  14062
                                                 14954  14981  15000  15118  15145  15185  15212  15251  15278  15317
                                                 15344  15381  15426  15486  15518  15554  15747  16895  16922  16962
                                                 16989  17029  17056  17096  17123  17155  17181  17252  17284  17328
                                                 17360  17564  19030  19057  19097  19124  19164  19191  19263  19293
                                                 19324  19513  20695  20722  20741  20854  20881  20946  20984  21022
                                                 21661  21830  21852  21884  21929  21974  22006  22028  22053  22089
                                                 22114  22271  22303  22334  22423  23263  23290  23309  23433  23460
                                                 23529  23567  23718  23749  23793  23825  23885  24382  24408  24492
                                                 24518  26185  26269  26295  26379  26405  26489  26515  26599  26625
                                                 26706  26788  26875  26960  27049  27131  27156  27274  27341  27408
                                                 27475  27527  27660  27685  27940  27966  28637  28663  28747  28773
                                                 28857  28883  28964  29045  29126  29207  29553  29644  31615  31824
                                                 31851  31928  31955  31987
 WGSSGCOD      1 00000058 FFFFFFE1     R    7571  7580   7590   7600   7610   7620   7630   7640
 WGSSTAT       1 0000002B FFFFFFE1     R    7517  7521   7526
 WGSTPRT       4 00000E58 00000001     F   11903 12231
 WGSTRKS       2 00000CB6 00000001     H   11437 11433
 WGSWA       148 00000000 FFFFFFE1     J    7661  7976U  7984M  7984   8083   8160U  8395U 31123U 31567U 31738U 32498U
1WGS      (WGS2193) (13:01) (15MAR04) Ordinary Symbol and Literal Cross Reference                                           Page  215
                                                 32725U 33517U 37442U 37873U 38451U 38578U 38715U
 WGSWLINE    482 00000004 FFFFFFDE     X   31495 31572  31581M 31584  31595
 WGSWLLEN      4 00000000 FFFFFFDE     F   31494 31578M 31596
 WGSWRITE      2 0000619E 00000001     H   31512 31508
 WGSWWA      486 00000000 FFFFFFDE     J   31502 31525  31554U 31640  31642  31643
 WGS2193       1 00000000 00000001     R    1003  1001
 WGWTBLK       4 00000050 FFFFFFE1     F    7565  7995M  8446  10318  11486  12367  13526  14940  16847  18997  20681
                                                 23249  31593  31803  31830  31934  31966
 WGWTBLKL      4 00000054 FFFFFFE1     F    7566  7996M
 WNERRID       8 00000000 FFFFFFD3     C   41709 42152  42173
 WNFILPB     476 00000144 FFFFFFD3     X   41799 41882
 WNSG         60 00000008 FFFFFFD3     X   41797 42144  42153
 WNSGBUF     256 00000044 FFFFFFD3     C   41798 42131  42136
 WNSGCOD       1 00000008 FFFFFFD3     R   41714 41723  41733  41743  41753  41763  41773  41783
 WNWA        800 00000000 FFFFFFD3     J   41806 41828  41857U 41867M 41867  41868M 41868  41869M 41869  41870M 41870
                                                 42490  42492  42493
 WPCHECK       2 00007A94 00000001     H   38534 32058
 WPCLOSE       2 00007A4C 00000001     H   38407 11398  12233  13387  14426  16729  18545  20540  22784  24232  32062
                                                 37344  39359
 WPDONE        2 00000660 00000001     H   10138  8440B  9096B  9622B  9997B 10126B
 WPOPDONE      2 000078BE 00000001     H   37772 37522B 37759B
 WPOPEN        2 000077B8 00000001     H   37398 10189  11389  12224  13377  14418  16720  18536  20530  22774  24222
 WPRDCLOS      2 00007A18 00000001     H   38309 38197B
 WPRDDONE      2 00007A3A 00000001     H   38357 37919B 38344B
 WPRDLOOP      4 00007916 00000001     I   37926 38219B
 WPREAD        2 000078CC 00000001     H   37829 11392  12226  13379  14420  16722  18538  20532  22776  24224  37341
                                                 39371
 WPSEG         2 00007AD4 00000001     H   38671  8088  38667
 WPSEGERR      2 00007B7A 00000001     H   38992 39370
 WRDCLOSE      2 00007364 00000001     H   36510 32060
 WRDEOF        2 00006ED8 00000001     H   35464 32061
 WRDERROR      2 000073E4 00000001     H   36716 11394  12228  13381  14422  16724  18540  20534  22778  24226  37343
                                                 39373
 WRDODONE      2 00006AD8 00000001     H   34326 34108B 34156B 34218B 34319B
 WRDOPEN       2 000069B0 00000001     H   34055 10191
 WRDREAD       2 00006D96 00000001     H   35134 31449
 WREADEOF      2 00006138 00000001     H   31407 31142B 31210B
 WRENDONE      2 00001922 00000001     H   14297 13658B 13978B 14003B 14085B 14128B 14186B 14283B
 WRENDON1      4 0000193E 00000001     I   14312 13506B
 WRFDEST       4 00000008 FFFFFFDC     F   32895 32964M 32999  33024  33026  33105  33219  33275  33317  33320  33374
 WRFLEN        4 00000004 FFFFFFDC     F   32894 32996M 33000  33002  33025  33055M 33106  33212  33322  33375
 WRFLNO        4 0000000C FFFFFFDC     F   32896 33160M 33273M 33380
 WRFLOC        4 00000000 FFFFFFDC     F   32893 32995M 33001
 WRFORMAT      2 00006570 00000001     H   32912 31452
 WRFWA        16 00000000 FFFFFFDC     J   32903 32925  32954U 33403  33405  33406
 WRNORMAL      2 000063F8 00000001     H   32451 31453
 WRTCAT        2 00006CE4 00000001     H   34929 34379  36053
 WRTERRDT      2 00007310 00000001     H   36374 11930  36023  36117
 WRTIMSG       2 0000733A 00000001     H   36438 11945  36038  36132
 WRTMMSG     235 00000004 FFFFFFDA     C   36159 36233  36238  36315
 WRTMMSGL      4 00000000 FFFFFFDA     F   36158 36251M 36314
 WRTMSG        2 0000728C 00000001     H   36175 36008  36102
 WRTMSGNP      2 000072CA 00000001     H   36250 36247B
 WRTMWA      239 00000000 FFFFFFDA     J   36166 36188  36217U 36363  36365  36366
 WRTNAME       2 00006B88 00000001     H   34425 34364
 WRTOTHER      2 00006D1E 00000001     H   35025 11960  34409  36083  36147
 WRTVOL        2 00006C2E 00000001     H   34659 34394  36068
 WRWRAP        2 000064C0 00000001     H   32681 31451
 WSCRDONE      2 00001358 00000001     H   13165 12540B 12834B 12859B 12941B 12984B 13054B 13151B
1WGS      (WGS2193) (13:01) (15MAR04) Ordinary Symbol and Literal Cross Reference                                           Page  216
 WSCRDON1      4 00001374 00000001     I   13180 12349B
 WSEWA       512 00000000 FFFFFFD8     J   38983 39005  39034U 39040  39041  39145  39147  39148
 WSMSPSH       2 000045FE 00000001     H   25131 23098  25127  26100
 WSNACCT       2 00005052 00000001     H   26329 25584  25599
 WSNBCALC      2 0000545C 00000001     H   27719 25462
 WSNBLKSI      2 0000540C 00000001     H   27611 25447
 WSNCARD       2 0000520A 00000001     H   26905 25387
 WSNEDIT       2 000051CC 00000001     H   26822 25372
 WSNERASE      2 00005866 00000001     H   29160 13336
 WSNEXPDT      2 0000582A 00000001     H   29079 13321
 WSNGROUP      2 000050FE 00000001     H   26549 25629  25644
 WSNINT        2 000058A2 00000001     H   29241 25493
 WSNLRECL      2 0000529A 00000001     H   27083 25417
 WSNNOCAT      2 00005952 00000001     H   29505 25781  25796
 WSNNONUM      2 000058FA 00000001     H   29373 25523
 WSNNRTN       2 000057EE 00000001     H   28998 13306
 WSNNUM        2 000058CE 00000001     H   29307 25508
 WSNOENQ       2 00004FC0 00000001     H   26138 26115
 WSNPRINT      2 00005252 00000001     H   26994 25402
 WSNPUB        2 00005190 00000001     H   26740 25659
 WSNRECAT      2 0000598E 00000001     H   29591 25811  25826
 WSNRECFM      2 000052E8 00000001     H   27186 25432
 WSNRTAIN      2 000057B2 00000001     H   28917 13291
 WSNSEQF       2 000059CA 00000001     H   29681 25553
 WSNTEMP       2 00005154 00000001     H   26659 25902
 WSNTITLE      2 000054D0 00000001     H   27890 25933
 WSNUNNUM      2 00005926 00000001     H   29439 25538
 WSNUSER       2 000050A8 00000001     H   26439 25614
 WSNVOL        2 00004FFC 00000001     H   26219 25887
 WTOSG         1 00000000 00000000 A   T    2080  2080
 WTRKDONE      2 00000E24 00000001     H   11830 11554B 11634B 11678B 11719B 11816B
 WWFDEST       4 00000008 FFFFFFDB     F   33444 33523M 33661  33721  33847  33855  33877  33906  33944
 WWFLEN        4 00000004 FFFFFFDB     F   33443 33520M 33852  33858  33945
 WWFLNO        4 0000000C FFFFFFDB     F   33445 33522M 33665  33716  33880  33901
 WWFLNUSD      4 00000010 FFFFFFDB     F   33446 33530M 33530  33556M 33627M 33958  33964
 WWFLOC        4 00000000 FFFFFFDB     F   33442 33521M 33851  33857
 WWFORMAT      2 00006720 00000001     H   33462 31661
 WWFWA        20 00000000 FFFFFFDB     J   33453 33475  33504U 33991  33993  33994
 WYLWGS        1 00000000 00000001     J     993   995   1021   1034   1047   1059   1072   1085   1098   1111   1124
                                                  1137   2364   2448   6188   6300   6580   6791   6940   7046   7124
                                                  7212   7284   7388   7392   7395   7662   7894
 XFEROPTS      4 00004DE0 00000001     F   25952 25207
 XFERPSH       2 0000455C 00000001     H   24924 24920  26070
 XFILPB      476 00000000 FFFFFFD4     J   41683 44828  44838U 44868  44992  45002U 45054  45247  45257U 45287  46889
 XFILPBACCOUNT
               6 00000144 FFFFFFD4     C   41632 41633  41634
 XFILPBDSACCT
               5 00000034 FFFFFFD4     C   41623 45062  45297
 XFILPBDSMEM
               8 0000002C FFFFFFD4     C   41622 44875  45314
 XFILPBDSNAME
              44 00000000 FFFFFFD4     C   41621 45061  45296
 XFILPBDTYPE
               1 000001D5 FFFFFFD4     R   41642 41651  41661  41671
 XFILPBNAME
             128 00000039 FFFFFFD4     C   41627 44867M 45031M 45042M 45042  45048M 45049M 45286M
 YESREQ        1 00000000 0000001A     T   22768 22768  31049  37362
 =A(ACCTOPTS)
               4 00004640 00000001     A   25203 24683
1WGS      (WGS2193) (13:01) (15MAR04) Ordinary Symbol and Literal Cross Reference                                           Page  217
 =A(ALLOOPTS)
               4 0000391C 00000001     A   22761 21101
 =A(BUILDDSN)
               4 00008650 00000001     A   42651 42156
 =A(BUILDDSN)
               4 000092DC 00000001     A   46873 44872  45058  45292
 =A(C'+')      4 00009760 00000001     A   48032 47419
 =A(C'-')      4 00009764 00000001     A   48033 47433
 =A(CATHACK)
               4 000006C8 00000001     A   10180  9009
 =A(CATHACK)
               4 00000C14 00000001     A   11381 10619
 =A(CATHACK)
               4 0000151C 00000001     A   13369 12453
 =A(CATHACK)
               4 000019E8 00000001     A   14410 13575
 =A(CATHACK)
               4 000022AC 00000001     A   16713 15014
 =A(CATHACK)
               4 000029FC 00000001     A   18527 16858
 =A(CATHACK)
               4 000038FC 00000001     A   22755 20750
 =A(CATHACK)
               4 00004214 00000001     A   24215 23333
 =A(CATHPRT)
               4 00005F58 00000001     A   30729 30452
 =A(CATLINOK)
               4 00003198 00000001     A   20537 19729  19902
 =A(CATOPTS)
               4 00004654 00000001     A   25208 25028
 =A(CKACCESS)
               4 000006D8 00000001     A   10184  9347
 =A(CKACCESS)
               4 00000C20 00000001     A   11384 10721
 =A(CKACCESS)
               4 00001528 00000001     A   13372 12597
 =A(CKACCESS)
               4 000019FC 00000001     A   14413 13779
 =A(CKACCESS)
               4 00003908 00000001     A   22758 20894
 =A(CKACCESS)
               4 0000421C 00000001     A   24217 23477
 =A(CTLGOPTS)
               4 0000422C 00000001     A   24219 23633
 =A(CVOLHACK)
               4 000006CC 00000001     A   10181  9013
 =A(CVOLHACK)
               4 00000C18 00000001     A   11382 10623
 =A(CVOLHACK)
               4 00001520 00000001     A   13370 12457
 =A(CVOLHACK)
               4 000022B0 00000001     A   16714 15018
 =A(CVOLHACK)
               4 00003900 00000001     A   22756 20754
 =A(CVPSZ-3)
               4 00001B50 00000001     A   14646 14528
 =A(DIROPTS)
               4 000022BC 00000001     A   16717 15621
 =A(DSNOPTS)
1WGS      (WGS2193) (13:01) (15MAR04) Ordinary Symbol and Literal Cross Reference                                           Page  218
               4 00002A24 00000001     A   18533 17427
 =A(FILEOPTS)
               4 000006E8 00000001     A   10186  9580
 =A(FILEOPTS)
               4 00000C30 00000001     A   11386 10916
 =A(FORMOPTS)
               4 00004648 00000001     A   25205 24821
 =A(GETWA)
               4 000006B0 00000001     A   10174  8385
 =A(GETWA)
               4 00000C08 00000001     A   11378 10282
 =A(GETWA)
               4 00000FC0 00000001     A   12222 11479
 =A(GETWA)
               4 0000150C 00000001     A   13367 12358
 =A(GETWA)
               4 000019E4 00000001     A   14409 13515
 =A(GETWA)
               4 0000229C 00000001     A   16711 14921
 =A(GETWA)
               4 000029F8 00000001     A   18526 16828
 =A(GETWA)
               4 00003140 00000001     A   20521 18978
 =A(GETWA)
               4 000038EC 00000001     A   22753 20668
 =A(GETWA)
               4 00004204 00000001     A   24213 23239
 =A(GTINTVAL)
               4 00006910 00000001     A   34024 33111  33224
 =A(GTINTVAL)
               4 00008100 00000001     A   40501 39943
 =A(GTLNOVAL)
               4 00006914 00000001     A   34025 33129  33242
 =A(L'FFHOST)
               4 000076CC 00000001     A   37352 34765  34777
 =A(L'FFRNAME)
               4 000076C8 00000001     A   37351 34533  34545
 =A(L'FILPBCNAME)
               4 0000863C 00000001     A   42646 41975  41987
 =A(L'FILPBNAME)
               4 00008638 00000001     A   42645 41898  41910
 =A(L'WGSBKHDR)
               4 00000C54 00000001     A   11395 11155
 =A(L'WGSBKHDR)
               4 00000FDC 00000001     A   12229 11698
 =A(L'WGSBKHDR)
               4 00001558 00000001     A   13382 13004
 =A(L'WGSBKHDR)
               4 00001A2C 00000001     A   14423 14148
 =A(L'WGSBKHDR)
               4 000022D4 00000001     A   16723 15789  15835  15936  16086  16190  16250  16343
 =A(L'WGSBKHDR)
               4 00002A3C 00000001     A   18539 17606  17652  17753  17903  18007  18067  18160
 =A(L'WGSBKHDR)
               4 00003188 00000001     A   20533 19555  19601  19702  19875  20002  20062  20155
 =A(L'WGSBKHDR)
               4 0000396C 00000001     A   22779 22509
 =A(L'WGSBKHDR)
               4 0000424C 00000001     A   24227 23971
1WGS      (WGS2193) (13:01) (15MAR04) Ordinary Symbol and Literal Cross Reference                                           Page  219
 =A(L'WGSBKHDR)
               4 000076B0 00000001     A   37345 34176  35204  35584  35853  36630
 =A(LINEOPTS)
               4 0000464C 00000001     A   25206 24890
 =A(NACCTOPT)
               4 00004644 00000001     A   25204 24752
 =A(PDSOPTS)
               4 00004658 00000001     A   25209 25097
 =A(PGAPPEND)
               4 000022E4 00000001     A   16727 15962  16012  16112
 =A(PGAPPEND)
               4 00002A4C 00000001     A   18543 17779  17829  17929
 =A(PGAPPEND)
               4 0000319C 00000001     A   20538 19747  19797  19920
 =A(PGRELS)
               4 000022F4 00000001     A   16731 16307  16395
 =A(PGRELS)
               4 00002A5C 00000001     A   18547 18124  18212
 =A(PGRELS)
               4 000031AC 00000001     A   20542 20119  20207
 =A(RENOPTS)
               4 00001A0C 00000001     A   14415 13936
 =A(RESLVPRT)
               4 00008640 00000001     A   42647 42084
 =A(RLSWA)
               4 00000FF0 00000001     A   12234 11840
 =A(RLSWA)
               4 00001570 00000001     A   13388 13175
 =A(RLSWA)
               4 00001A3C 00000001     A   14427 14307
 =A(RLSWA)
               4 000022FC 00000001     A   16733 16587
 =A(RLSWA)
               4 00002A64 00000001     A   18549 18404
 =A(RLSWA)
               4 000031B4 00000001     A   20544 20399
 =A(RLSWA)
               4 00003984 00000001     A   22785 22680
 =A(RLSWA)
               4 00004264 00000001     A   24233 24142
 =A(SCRTOPTS)
               4 00001538 00000001     A   13374 12792
 =A(SHOCTOPT)
               4 00003170 00000001     A   20527 19387
 =A(SMSOPTS)
               4 0000465C 00000001     A   25210 25166
 =A(VOLOPTS)
               4 00004638 00000001     A   25201 24614
 =A(WCONDSE)
               4 00007718 00000001     A   37363 36924
 =A(WGERRPRT)
               4 00007710 00000001     A   37361 36846
 =A(WGSAPRT)
               4 0000397C 00000001     A   22783 22620
 =A(WGSEPRT)
               4 00000C5C 00000001     A   11397 11237
 =A(WGSEPRT)
               4 00001568 00000001     A   13386 13115
 =A(WGSEPRT)
1WGS      (WGS2193) (13:01) (15MAR04) Ordinary Symbol and Literal Cross Reference                                           Page  220
               4 00001A34 00000001     A   14425 14247
 =A(WGSEPRT)
               4 000022F8 00000001     A   16732 16473
 =A(WGSEPRT)
               4 00002A60 00000001     A   18548 18290
 =A(WGSEPRT)
               4 000031B0 00000001     A   20543 20285
 =A(WGSEPRT)
               4 0000425C 00000001     A   24231 24082
 =A(WGSEPRT)
               4 000076F4 00000001     A   37354 35402  35674  35943
 =A(WGSOPRT)
               4 000076BC 00000001     A   37348 34279
 =A(WGSTPRT)
               4 00000FE4 00000001     A   12231 11780
 =A(WPCHECK)
               4 00006330 00000001     A   32058 31754
 =A(WPCLOSE)
               4 00000C60 00000001     A   11398 11306
 =A(WPCLOSE)
               4 00000FEC 00000001     A   12233 11836
 =A(WPCLOSE)
               4 0000156C 00000001     A   13387 13171
 =A(WPCLOSE)
               4 00001A38 00000001     A   14426 14303
 =A(WPCLOSE)
               4 000022EC 00000001     A   16729 16276  16510  16531
 =A(WPCLOSE)
               4 00002A54 00000001     A   18545 18093  18327  18348
 =A(WPCLOSE)
               4 000031A4 00000001     A   20540 20088  20322  20343
 =A(WPCLOSE)
               4 00003980 00000001     A   22784 22676
 =A(WPCLOSE)
               4 00004260 00000001     A   24232 24138
 =A(WPCLOSE)
               4 00006340 00000001     A   32062 32005
 =A(WPCLOSE)
               4 000076AC 00000001     A   37344 34153  34215  34316  35212  35249  35291  35561  35605  35830  35874
                                                 36607  36651  36879
 =A(WPCLOSE)
               4 00007D64 00000001     A   39359 37756  38337  39121
 =A(WPOPEN)
               4 000006F4 00000001     A   10189  9980
 =A(WPOPEN)
               4 00000C3C 00000001     A   11389 10967
 =A(WPOPEN)
               4 00000FC8 00000001     A   12224 11537
 =A(WPOPEN)
               4 00001544 00000001     A   13377 12842
 =A(WPOPEN)
               4 00001A18 00000001     A   14418 13986
 =A(WPOPEN)
               4 000022C8 00000001     A   16720 15671
 =A(WPOPEN)
               4 00002A30 00000001     A   18536 17477
 =A(WPOPEN)
               4 0000317C 00000001     A   20530 19437
 =A(WPOPEN)
1WGS      (WGS2193) (13:01) (15MAR04) Ordinary Symbol and Literal Cross Reference                                           Page  221
               4 00003958 00000001     A   22774 22346
 =A(WPOPEN)
               4 00004238 00000001     A   24222 23683
 =A(WPREAD)
               4 00000C48 00000001     A   11392 11065
 =A(WPREAD)
               4 00000FD0 00000001     A   12226 11620
 =A(WPREAD)
               4 0000154C 00000001     A   13379 12927
 =A(WPREAD)
               4 00001A20 00000001     A   14420 14071
 =A(WPREAD)
               4 000022D0 00000001     A   16722 15756  16043  16138  16211
 =A(WPREAD)
               4 00002A38 00000001     A   18538 17573  17860  17955  18028
 =A(WPREAD)
               4 00003184 00000001     A   20532 19522  19832  19950  20023
 =A(WPREAD)
               4 00003960 00000001     A   22776 22432
 =A(WPREAD)
               4 00004240 00000001     A   24224 23894
 =A(WPREAD)
               4 000076A0 00000001     A   37341 34094  35173  35503  35772  36549
 =A(WPREAD)
               4 00007DAC 00000001     A   39371 39044
 =A(WPSEG)
               4 000000C0 00000001     A    8088  8024
 =A(WPSEGERR)
               4 00007DA8 00000001     A   39370 38871
 =A(WRDCLOSE)
               4 00006338 00000001     A   32060 31859  31995
 =A(WRDEOF)
               4 0000633C 00000001     A   32061 31963
 =A(WRDERROR)
               4 00000C50 00000001     A   11394 11119
 =A(WRDERROR)
               4 00000FD8 00000001     A   12228 11675
 =A(WRDERROR)
               4 00001554 00000001     A   13381 12981
 =A(WRDERROR)
               4 00001A28 00000001     A   14422 14125
 =A(WRDERROR)
               4 000022D8 00000001     A   16724 15810  16364
 =A(WRDERROR)
               4 00002A40 00000001     A   18540 17627  18181
 =A(WRDERROR)
               4 0000318C 00000001     A   20534 19576  20176
 =A(WRDERROR)
               4 00003968 00000001     A   22778 22486
 =A(WRDERROR)
               4 00004248 00000001     A   24226 23948
 =A(WRDERROR)
               4 000076A8 00000001     A   37343 34149  35245  35557  35826  36603
 =A(WRDERROR)
               4 00007DB4 00000001     A   39373 39117
 =A(WRDOPEN)
               4 000006FC 00000001     A   10191 10112
 =A(WRDREAD)
               4 00006160 00000001     A   31449 31191
1WGS      (WGS2193) (13:01) (15MAR04) Ordinary Symbol and Literal Cross Reference                                           Page  222
 =A(WRFORMAT)
               4 0000616C 00000001     A   31452 31367
 =A(WRNORMAL)
               4 00006170 00000001     A   31453 31390
 =A(WRWRAP)
               4 00006168 00000001     A   31451 31304
 =A(WWFORMAT)
               4 00006220 00000001     A   31661 31575
 =A(XFEROPTS)
               4 00004650 00000001     A   25207 24959
 =A(0)         4 00003954 00000001     A   22773 22235
 =A(0)         4 000092C8 00000001     A   46868 43624
 =A(1)         4 00005C30 00000001     A   30271 27813  29761
 =A(1)         4 00006028 00000001     A   31047 30849
 =A(1)         4 00006908 00000001     A   34022 33048
 =A(1)         4 000080FC 00000001     A   40500 39794  39797  39847  40183  40220  40257  40329  40401
 =A(1)         4 00008348 00000001     A   41507 41164
 =A(1)         4 00008658 00000001     A   42653 42278  42343  42415
 =A(1)         4 000092C4 00000001     A   46867 43604  44418  44667  45128
 =A(1)         4 00009748 00000001     A   48030 47214  47478  47502  47720
 =A(10)        4 00007DB8 00000001     A   39374 39284
 =A(10)        4 00008340 00000001     A   41505 40673  40933  41150  41455
 =A(11)        4 000068F4 00000001     A   34017 32225
 =A(11)        4 000092E0 00000001     A   46874 45355
 =A(12)        4 00007DC8 00000001     A   39376 39291
 =A(16)        4 00000C4C 00000001     A   11393 11098
 =A(16)        4 00000FD4 00000001     A   12227 11654
 =A(16)        4 00001550 00000001     A   13380 12960
 =A(16)        4 00001A24 00000001     A   14421 14104
 =A(16)        4 00003964 00000001     A   22777 22465
 =A(16)        4 00004244 00000001     A   24225 23927
 =A(16)        4 000076A4 00000001     A   37342 34128  35536  35805  36582  36765
 =A(16)        4 00007DB0 00000001     A   39372 39083
 =A(2)         4 00005C28 00000001     A   30269 27771
 =A(2)         4 0000865C 00000001     A   42654 42458
 =A(2)         4 000092D0 00000001     A   46870 44318  44567  44618
 =A(2)         4 0000973C 00000001     A   48027 47078  47282  47456
 =A(20)        4 00003944 00000001     A   22769 21449
 =A(2000)      4 000006C4 00000001     A   10179  8863
 =A(235)       4 00005C48 00000001     A   30277 29930
 =A(235)       4 00006904 00000001     A   34021 32773
 =A(3)         4 00008344 00000001     A   41506 41136
 =A(3)         4 000092A8 00000001     A   46860 42951  44702
 =A(3)         4 00009780 00000001     A   48036 47639  47916
 =A(300)       4 00003948 00000001     A   22770 21534
 =A(300000)
               4 000006BC 00000001     A   10177  8777
 =A(32)        4 0000394C 00000001     A   22771 22163  22175
 =A(320)       4 00003950 00000001     A   22772 22182  22194
 =A(4)         4 00005F60 00000001     A   30731 30479
 =A(4)         4 00007D58 00000001     A   39356 37662  38144
 =A(4)         4 000092D8 00000001     A   46872 44453
 =A(4)         4 00009768 00000001     A   48034 47494  47533
 =A(5)         4 000092D4 00000001     A   46871 44369  45651
 =A(50)        4 00003928 00000001     A   22764 21323
 =A(6)         4 0000810C 00000001     A   40504 40137
 =A(6)         4 000092B8 00000001     A   46864 43386  43427
 =A(7)         4 00007D60 00000001     A   39358 37702  38250
 =A(7)         4 000092E8 00000001     A   46876 45522
1WGS      (WGS2193) (13:01) (15MAR04) Ordinary Symbol and Literal Cross Reference                                           Page  223
 =A(8)         4 00008108 00000001     A   40503 40077
 =A(8)         4 000092CC 00000001     A   46869 43747  44016
 =A(8)         4 00009740 00000001     A   48028 47136
 =A(9)         4 00005C4C 00000001     A   30278 30066
 =A(9)         4 000080F0 00000001     A   40497 39473  39718
 =AL2(L'FILPBDSNAME)
               2 000093B2 00000001     R   46892 46476
 =AL2(SHCTMXPG)
               2 000031CC 00000001     R   20551 19688
 =AL2(SHDRMXPG)
               2 0000233C 00000001     R   16742 15922
 =AL2(SHDSMXPG)
               2 00002A7C 00000001     R   18556 17739
 =AL4(L'WGSBKHDR)
               4 000000B8 00000001     R    8086  7997   7998
 =AL4(L'WGSBKHDR)
               4 00000C58 00000001     R   11396 11184
 =AL4(L'WGSBKHDR)
               4 00000FE0 00000001     R   12230 11727
 =AL4(L'WGSBKHDR)
               4 00001564 00000001     R   13385 13062
 =AL4(L'WGSBKHDR)
               4 00001A30 00000001     R   14424 14194
 =AL4(L'WGSBKHDR)
               4 000022E0 00000001     R   16726 15958  15959  16008  16009  16108  16109  16420
 =AL4(L'WGSBKHDR)
               4 00002A48 00000001     R   18542 17775  17776  17825  17826  17925  17926  18237
 =AL4(L'WGSBKHDR)
               4 00003194 00000001     R   20536 19724  19725  19793  19794  19897  19898  20232
 =AL4(L'WGSBKHDR)
               4 00003978 00000001     R   22782 22567
 =AL4(L'WGSBKHDR)
               4 00004258 00000001     R   24230 24029
 =AL4(L'WGSBKHDR)
               4 000076B8 00000001     R   37347 34226  35349  35621  35890
 =AL4(L'WGSBKHDR)
               4 00007DA0 00000001     R   39368 38794  38795
 =AL4(L'WGSLNHDR)
               4 00006164 00000001     R   31450 31229
 =AL4(L'WGSLNHDR)
               4 00006224 00000001     R   31662 31577
 =AL4(L'WGSLNHDR)
               4 000068FC 00000001     R   34019 32506  32733  32794  32967  32968
 =AL4(L'WGSWA)
               4 000000AC 00000001     R    8083  7962
 =AL4(WGSBKLEN)
               4 000000B4 00000001     R    8085  7990
 =AL4(6)       4 000006D0 00000001     R   10182  9043
 =AL4(6)       4 00000C1C 00000001     R   11383 10653
 =AL4(6)       4 00001524 00000001     R   13371 12487
 =AL4(6)       4 000019EC 00000001     R   14411 13605
 =AL4(6)       4 000022B4 00000001     R   16715 15048
 =AL4(6)       4 00002A20 00000001     R   18532 17310
 =AL4(6)       4 00003904 00000001     R   22757 20784
 =AL4(6)       4 00004218 00000001     R   24216 23363
 =AL4(80)      4 00006928 00000001     R   34030 33739
 =C' (file name ends with a dot).'
              29 000097D8 00000001     C   48040 47264
 =C' (file name has two dots together).'
1WGS      (WGS2193) (13:01) (15MAR04) Ordinary Symbol and Literal Cross Reference                                           Page  224
              35 000097B5 00000001     C   48039 47186
 =C' (over 8 characters without a dot).'
              35 00009830 00000001     C   48044 47899
 =C' and '
               5 000093B9 00000001     C   46894 43138  43225
 =C' are mutually exclusive options.'
              32 00009188 00000001     C   46848 43318
 =C' characters too long.'
              21 00009404 00000001     C   46903 46551
 =C' cylinders is a lot of space.'
              29 00003A50 00000001     C   22801 21481
 =C' is incorrectly specified.'
              26 0000930A 00000001     C   46880 43505
 =C' megabytes is a lot of space.'
              29 00003A33 00000001     C   22800 21355
 =C' tracks is a lot of space.'
              26 000039B4 00000001     C   22790 21566
 =C' ACCOUNT='
               9 00005CC5 00000001     C   30296 26370
 =C' ACCOUNT=GA.PUB'
              15 00005CDE 00000001     C   30299 26779
 =C' ALOCUNIT='
              10 00003A0E 00000001     C   22793 21843
 =C' BLKSIZE='
               9 000007D5 00000001     C   10211  9678
 =C' BLKSIZE='
               9 00005D33 00000001     C   30310 27651
 =C' BYTECNT='
               9 00000796 00000001     C   10204  8725
 =C' CAT=NO'
               7 00005D57 00000001     C   30314 29544
 =C' CAT=RECAT'
              10 00005CB2 00000001     C   30292 29635
 =C' CATLG='
               7 000042A0 00000001     C   24241 23709
 =C' CATREPT=DSCB'
              13 00002A8E 00000001     C   18560 17243
 =C' CATREPT=DSN'
              12 00002A14 00000001     C   18531 17275
 =C' CATREPT=VOL'
              12 00003158 00000001     C   20525 19284
 =C' CATTYPE=ALL'
              12 00003164 00000001     C   20526 19315
 =C' CATTYPE=DISK'
              13 00002AA8 00000001     C   18562 17351
 =C' CATTYPE=VTOC'
              13 00002A9B 00000001     C   18561 17319
 =C' CHANGFMT=YES'
              13 000007C8 00000001     C   10210  9466
 =C' CNAME='
               7 000007A8 00000001     C   10206  8952
 =C' DATACLAS='
              10 00005C80 00000001     C   30287 28628
 =C' DIRBLKS='
               9 00003A7C 00000001     C   22805 22294
 =C' DIRMEMS='
               9 00003A73 00000001     C   22804 22262
 =C' ERASE=YES'
              10 00005CA8 00000001     C   30291 29198
1WGS      (WGS2193) (13:01) (15MAR04) Ordinary Symbol and Literal Cross Reference                                           Page  225
 =C' FILESEQ='
               9 00004444 00000001     C   24558 24483
 =C' FORMAT=ALL'
              11 0000236F 00000001     C   16749 15509
 =C' FORMAT=HEX'
              11 0000234A 00000001     C   16746 15372
 =C' FORMAT=MEMBERS'
              15 00002355 00000001     C   16747 15417
 =C' FORMAT=OLD'
              11 00002364 00000001     C   16748 15477
 =C' FORMAT=TERSE'
              13 0000237A 00000001     C   16750 15545
 =C' FROM='
               6 00002328 00000001     C   16736 15176
 =C' FROM='
               6 00002A68 00000001     C   18550 16953
 =C' FROM='
               6 000031B8 00000001     C   20545 19021
 =C' GROUP='
               7 00005CCE 00000001     C   30297 26590
 =C' LIKE='
               6 0000232E 00000001     C   16737 15308
 =C' LIKE='
               6 00002A6E 00000001     C   18551 17087
 =C' LIKE='
               6 000031BE 00000001     C   20546 19155
 =C' LINECNT='
               9 0000079F 00000001     C   10205  8811
 =C' LRECL='
               7 00005D09 00000001     C   30302 27122
 =C' MGMTCLAS='
              10 00005C8A 00000001     C   30288 28738
 =C' NEWNAME='
               9 00001A78 00000001     C   14435 13715
 =C' NTYPE=EXACT'
              12 00001510 00000001     C   13368 12418
 =C' NTYPE=EXACT'
              12 000019F0 00000001     C   14412 13761
 =C' NTYPE=EXACT'
              12 000022A0 00000001     C   16712 14991
 =C' NTYPE=EXACT'
              12 00002A08 00000001     C   18530 17172
 =C' NTYPE=EXACT'
              12 0000314C 00000001     C   20524 19254
 =C' NTYPE=EXACT'
              12 000038F0 00000001     C   22754 20732
 =C' NTYPE=EXACT'
              12 00004208 00000001     C   24214 23300
 =C' ONLY=YES'
               9 00002A85 00000001     C   18559 17146
 =C' OVRD=YES'
               9 00005D4E 00000001     C   30313 29117
 =C' PASSCHK=YES'
              12 000006DC 00000001     C   10185  9390
 =C' PASSCHK=YES'
              12 00000C24 00000001     C   11385 10764
 =C' PASSCHK=YES'
              12 0000152C 00000001     C   13373 12640
 =C' PASSCHK=YES'
1WGS      (WGS2193) (13:01) (15MAR04) Ordinary Symbol and Literal Cross Reference                                           Page  226
              12 00001A00 00000001     C   14414 13822
 =C' PASSCHK=YES'
              12 0000390C 00000001     C   22759 20937
 =C' PASSCHK=YES'
              12 00004220 00000001     C   24218 23520
 =C' PRIQTY='
               8 000038C8 00000001     C   22749 22019
 =C' RACF=NO'
               8 00000698 00000001     C   10171  9504
 =C' RACF=NO'
               8 00000BE0 00000001     C   11374 10840
 =C' RACF=NO'
               8 000014E8 00000001     C   13363 12678
 =C' RACF=NO'
               8 000019C0 00000001     C   14405 13860
 =C' RACF=NO'
               8 000038B0 00000001     C   22746 20975
 =C' RACF=NO'
               8 000041B0 00000001     C   24208 23558
 =C' RECFM=EDIT'
              11 00005CED 00000001     C   30300 26866  27518
 =C' RECFM=F LRECL=133'
              18 00005C6A 00000001     C   30284 27040
 =C' RECFM=F LRECL=80 '
              18 0000076A 00000001     C   10199  9954
 =C' RECFM=F LRECL=80 '
              18 000039FC 00000001     C   22792 21821
 =C' RECFM=F LRECL=80'
              17 00005CF8 00000001     C   30301 26951
 =C' RECFM=F'
               8 000006A8 00000001     C   10173  9770
 =C' RECFM=F'
               8 000038C0 00000001     C   22748 21652
 =C' RECFM=F'
               8 00005BF8 00000001     C   30262 27265
 =C' RECFM=FA'
               9 00005D16 00000001     C   30305 27332
 =C' RECFM=V'
               8 00005C00 00000001     C   30263 27399
 =C' RECFM=VA'
               9 00005D25 00000001     C   30308 27466
 =C' REQTYPE='
               9 00000781 00000001     C   10201  8497
 =C' REQTYPE=VERIFY NTYPE=EXACT'
              27 00000C6F 00000001     C   11403 10368
 =C' RETAIN=NO'
              10 00005C9E 00000001     C   30290 29036
 =C' RETAIN=YES'
              11 00005D43 00000001     C   30312 28955
 =C' SECQTY='
               8 000038D0 00000001     C   22750 22080
 =C' SETGROUP='
              10 0000072E 00000001     C   10195  9216
 =C' SETLIB='
               8 00000690 00000001     C   10170  9293
 =C' SETUSER='
               9 000007B4 00000001     C   10208  9170
 =C' SHARE=YES'
              10 00005C58 00000001     C   30281 26176
1WGS      (WGS2193) (13:01) (15MAR04) Ordinary Symbol and Literal Cross Reference                                           Page  227
 =C' STORCLAS='
              10 00005C94 00000001     C   30289 28848
 =C' TEMP=YES'
               9 00005CD5 00000001     C   30298 26697
 =C' TITLE='
               7 00005D3C 00000001     C   30311 27931
 =C' TO='      4 000022B8 00000001     C   16716 15242
 =C' TO='      4 00002A04 00000001     C   18529 17020
 =C' TO='      4 00003148 00000001     C   20523 19088
 =C' UNIT='
               6 0000443C 00000001     C   24556 24373
 =C' USER='
               6 00005C64 00000001     C   30283 26480
 =C' VOL='
               5 000007AF 00000001     C   10207  9104
 =C' VOL='
               5 00000C96 00000001     C   11406 10669
 =C' VOL='
               5 0000100A 00000001     C   12242 11492
 =C' VOL='
               5 000015D1 00000001     C   13396 12548
 =C' VOL='
               5 00001A73 00000001     C   14434 13666
 =C' VOL='
               5 00002345 00000001     C   16745 15109
 =C' VOL='
               5 00002A80 00000001     C   18558 16886
 =C' VOL='
               5 00003A23 00000001     C   22798 20845
 =C' VOL='
               5 0000429B 00000001     C   24240 23424
 =C' VOL='
               5 00005CC0 00000001     C   30295 26260
 =C' VOLCHK=YES'
              11 000007BD 00000001     C   10209  9428
 =C' VOLCHK=YES'
              11 00000C9B 00000001     C   11407 10802
 =C' VOLCHK=YES'
              11 00003A28 00000001     C   22799 21013
 =C' VTYPE='
               7 00000C8A 00000001     C   11404 10386
 =C' WHOLEPDS=YES'
              13 000015D6 00000001     C   13397 12716
 =C'.'         1 000093F3 00000001     C   46900 45898  46022  46317
 =C'(0)'       3 0000980C 00000001     C   48042 47446
 =C'&&'        1 000093BE 00000001     C   46895 44267  44299
 =C'$'         1 000093F4 00000001     C   46901 46194
 =C'* '        2 00009362 00000001     C   46888 44796
 =C': file name can not be resolved.'
              32 00009158 00000001     C   46845 42986
 =C': file name is '
              15 000093F5 00000001     C   46902 46517
 =C': illegal character in file name '
              33 0000980F 00000001     C   48043 47675  47796
 =C': illegal file name.'
              20 000092F0 00000001     C   46878 46635
 =C': illegal file name.'
              20 0000974C 00000001     C   48031 47362  47568
 =C': illegal file name'
1WGS      (WGS2193) (13:01) (15MAR04) Ordinary Symbol and Literal Cross Reference                                           Page  228
              19 000097A2 00000001     C   48038 47171  47249  47884
 =C': illegal, no current file name.'
              32 00009278 00000001     C   46856 45226
 =C': illegal, no current member name.'
              34 00009366 00000001     C   46890 44936
 =C': invalid characters in dsname.'
              31 000093D1 00000001     C   46898 45163
 =C': invalid group.'
              16 00009250 00000001     C   46852 44753
 =C': invalid user.'
              15 000093BF 00000001     C   46896 44504
 =C': invalid volume name.'
              22 00000718 00000001     C   10194  9081
 =C': invalid volume name.'
              22 00001586 00000001     C   13390 12525
 =C': invalid volume name.'
              22 00001A52 00000001     C   14429 13643
 =C': invalid volume name.'
              22 00002312 00000001     C   16735 15086
 =C': invalid volume name.'
              22 0000399A 00000001     C   22787 20822
 =C': invalid volume name.'
              22 0000427A 00000001     C   24235 23401
 =C': invalid RECFM.'
              16 00005C08 00000001     C   30264 27575
 =C': member name is too long.'
              26 00009324 00000001     C   46881 43782  44051
 =C'allowed with $ file names.'
              26 00009340 00000001     C   46883 44186
 =C'Are you sure'
              12 00003934 00000001     C   22767 21371  21497  21582
 =C'ACCOUNT/USER/GROUP override not '
              32 00009228 00000001     C   46850 44171
 =C'ACCOUNT='
               8 00009180 00000001     C   46847 43272  43464
 =C'APPEND'
               6 00000712 00000001     C   10193  8619
 =C'ATTN'      4 00007D5C 00000001     C   39357 37675  38157
 =C'AUTH'      4 00007D50 00000001     C   39354 37632
 =C'Condense'
               8 00007698 00000001     C   37340 36916
 =C'CAT     '
               8 000080E0 00000001     C   40495 40097
 =C'CAT'       3 000042A7 00000001     C   24242 23740
 =C'CATLG   '
               8 000080E8 00000001     C   40496 40117
 =C'CYL'       3 00003A6D 00000001     C   22802 21920
 =C'DATA:           '
              16 00002288 00000001     C   16709 15848  15949  16099  16203
 =C'DATA:           '
              16 000029E8 00000001     C   18525 17665  17766  17916  18020
 =C'DATA:           '
              16 00003130 00000001     C   20520 19614  19715  19888  20015
 =C'DATA:           '
              16 00007CE0 00000001     C   39345 38025
 =C'DATA:          '
              15 0000100F 00000001     C   12243 11711
 =C'DISCONNECTED'
              12 00007D88 00000001     C   39364 38195
1WGS      (WGS2193) (13:01) (15MAR04) Ordinary Symbol and Literal Cross Reference                                           Page  229
 =C'EDIT '
               5 00005D2E 00000001     C   30309 27503
 =C'END '      4 00005C40 00000001     C   30275 29867
 =C'EOF:           '
              15 00007788 00000001     C   37371 35866
 =C'F '        2 00005C7C 00000001     C   30285 27237
 =C'FA '       3 00005D13 00000001     C   30304 27304
 =C'FB '       3 00005D10 00000001     C   30303 27250
 =C'FBA '      4 00005C20 00000001     C   30267 27317
 =C'FILE_ALLOCATED:'
              15 00003A85 00000001     C   22806 22522
 =C'FILE_CATLG:    '
              15 000042B4 00000001     C   24245 23984
 =C'FILE_CLOSE:    '
              15 00007797 00000001     C   37372 36643
 =C'FILE_EOF:       '
              16 00007680 00000001     C   37338 35283  35342
 =C'FILE_EOF:      '
              15 0000775A 00000001     C   37369 35597
 =C'FILE_ERROR:     '
              16 00000BF0 00000001     C   11376 11111
 =C'FILE_ERROR:     '
              16 00000FA8 00000001     C   12220 11667
 =C'FILE_ERROR:     '
              16 000014F8 00000001     C   13365 12973
 =C'FILE_ERROR:     '
              16 000019D0 00000001     C   14407 14117
 =C'FILE_ERROR:     '
              16 00002278 00000001     C   16708 15802  16356
 =C'FILE_ERROR:     '
              16 000029D8 00000001     C   18524 17619  18173
 =C'FILE_ERROR:     '
              16 00003120 00000001     C   20519 19568  20168
 =C'FILE_ERROR:     '
              16 000038D8 00000001     C   22751 22478
 =C'FILE_ERROR:     '
              16 000041C0 00000001     C   24210 23940
 =C'FILE_ERROR:     '
              16 00007660 00000001     C   37336 34141  35237  35549  35818  36595  36778
 =C'FILE_ERROR:     '
              16 00007D38 00000001     C   39351 39096
 =C'FILE_OPEN:     '
              15 00007724 00000001     C   37367 34189
 =C'FILE_READ:      '
              16 00007670 00000001     C   37337 35270  35316
 =C'FILE_READ:      '
              16 00007CD0 00000001     C   39344 38012
 =C'FILE_RENAME:   '
              15 00001A81 00000001     C   14436 14161
 =C'FILE_SCRATCH:  '
              15 000015E3 00000001     C   13398 13017
 =C'FILE_VERIFY:   '
              15 00000CA6 00000001     C   11408 11168
 =C'GROUP='
               6 00009304 00000001     C   46879 43185
 =C'Invalid member name.'
              20 0000976C 00000001     C   48035 47583
 =C'Invalid sequence field specification.'
              37 00005D5E 00000001     C   30315 30201
1WGS      (WGS2193) (13:01) (15MAR04) Ordinary Symbol and Literal Cross Reference                                           Page  230
 =C'Invalid NUMBER/INTEGER option.  Command incomplete.'
              51 00006965 00000001     C   34035 33149  33262
 =C'KB'        2 00003A1A 00000001     C   22795 21965
 =C'LIBFULL '
               8 00007690 00000001     C   37339 36896
 =C'Mismatched parenthesis.'
              23 000097F5 00000001     C   48041 47377
 =C'Missing file name.'
              18 00000700 00000001     C   10192  8425
 =C'Missing file name.'
              18 00001574 00000001     C   13389 12334
 =C'Missing file name.'
              18 00001A40 00000001     C   14428 13491
 =C'Missing file name.'
              18 00002300 00000001     C   16734 14897
 =C'Missing file name.'
              18 00003988 00000001     C   22786 20644
 =C'Missing file name.'
              18 00004268 00000001     C   24234 23215
 =C'MB'        2 00003A18 00000001     C   22794 21875
 =C'No action taken (stopped before path open).'
              43 00007DDC 00000001     C   39380 37683
 =C'No response from Wings file server.'
              35 00007E0E 00000001     C   39382 38271
 =C'Null file name is not allowed.'
              30 00009784 00000001     C   48037 47057
 =C'NAME='
               5 0000077C 00000001     C   10200  8451
 =C'NAME='
               5 00000C6A 00000001     C   11402 10323
 =C'NAME='
               5 000015CC 00000001     C   13395 12372
 =C'NAME='
               5 00001A6E 00000001     C   14433 13531
 =C'NAME='
               5 00002340 00000001     C   16744 14945
 =C'NAME='
               5 00003A1E 00000001     C   22797 20686
 =C'NAME='
               5 00004296 00000001     C   24239 23254
 =C'NUMBER/INTEGER must be used with LRECL option.'
              46 0000073C 00000001     C   10198  9863
 =C'NUMBER/INTEGER must be used with LRECL option.'
              46 000039CE 00000001     C   22791 21745
 =C'OK to use volume '
              17 00006034 00000001     C   31050 30944
 =C'PUBGA'
               5 00008664 00000001     C   42657 42603
 =C'READ'      4 000006B8 00000001     C   10176  8574   8702
 =C'READ'      4 00000C10 00000001     C   11380 10463  10591
 =C'RECAT'
               5 000042AA 00000001     C   24243 23784
 =C'REPLACE'
               7 0000078F 00000001     C   10203  8664
 =C'SYS'       3 000093F0 00000001     C   46899 45664
 =C'TIMEOUT'
               7 00007E07 00000001     C   39381 37715  38263
 =C'TRK'       3 00003A70 00000001     C   22803 21997
 =C'Unknown file type (expecting TYPE=WYLBUR).'
1WGS      (WGS2193) (13:01) (15MAR04) Ordinary Symbol and Literal Cross Reference                                           Page  231
              42 00009388 00000001     C   46891 46415
 =C'UNCAT'
               5 000042AF 00000001     C   24244 23816
 =C'USER='
               5 000093B4 00000001     C   46893 43098
 =C'V '        2 00005C7E 00000001     C   30286 27371
 =C'VA '       3 00005D22 00000001     C   30307 27438
 =C'VB '       3 00005D1F 00000001     C   30306 27384
 =C'VBA '      4 00005C24 00000001     C   30268 27451
 =C'Wings file server not responding.  Path timeout.'
              48 00007C98 00000001     C   39342 37723
 =C'Wings path not open.'
              20 00007D68 00000001     C   39360 37900
 =C'WINGS format error.  Unable to read file.'
              41 00006174 00000001     C   31454 31249
 =C'WINGS format error.  Unable to read file.'
              41 0000693C 00000001     C   34034 32526  32579  32755  32988
 =C'WINGS path error (server file read).'
              36 000076D0 00000001     C   37353 35218  35297
 =C'WINGS path error during close. '
              31 00007769 00000001     C   37370 35611  35880  36657
 =C'WINGS path error.  Unable to allocate file.'
              43 00003A94 00000001     C   22807 22544
 =C'WINGS path error.  Unable to display catalog.'
              45 000031D0 00000001     C   20553 20072
 =C'WINGS path error.  Unable to display directory.'
              47 00002387 00000001     C   16751 16260
 =C'WINGS path error.  Unable to display files.'
              43 00002AB5 00000001     C   18563 18077
 =C'WINGS path error.  Unable to open file.'
              39 00007733 00000001     C   37368 34199
 =C'WINGS path error.  Unable to rename file.'
              41 00001A90 00000001     C   14437 14171
 =C'WINGS path error.  Unable to scratch file.'
              42 000015A0 00000001     C   13393 13039
 =C'WINGS path error.  Unable to write file.'
              40 00007D10 00000001     C   39350 39061  39106
 =C'WINGS path error.  Unable to CATLG/UNCATLG file.'
              48 000041D0 00000001     C   24211 24006
 =C'WINGS path non-existant.  Unable to write file.'
              47 00007E31 00000001     C   39383 38785
 =C'WRITE'
               5 0000078A 00000001     C   10202  8529
 =C'WRITE'
               5 00000C91 00000001     C   11405 10418  10508  10553
 =C'WYL.'      4 000068F8 00000001     C   34018 32238
 =C'WYL.'      4 000092E4 00000001     C   46875 45368  45774  46706
 =C'0)'        2 0000834C 00000001     C   41508 40886
 =C'0)'        2 0000933E 00000001     C   46882 43891
 =CL(L'FILPBNAME)'LIB '
             128 000091A8 00000001     C   46849 43630
 =CL10'         '
              10 00006932 00000001     C   34033 33304
 =CL10'Condense  '
              10 00007DD2 00000001     C   39379 39208
 =CL10'0000000000'
              10 00008116 00000001     C   40507 39738
 =CL12' SAVEFAILED '
              12 00007DBC 00000001     C   39375 39289
1WGS      (WGS2193) (13:01) (15MAR04) Ordinary Symbol and Literal Cross Reference                                           Page  232
 =CL16'FILE_ALLOCATE:  '
              16 000038A0 00000001     C   22745 20682
 =CL16'FILE_CATLG:     '
              16 000041A0 00000001     C   24207 23250
 =CL16'FILE_CLOSE:     '
              16 00006320 00000001     C   32057 31831  31967
 =CL16'FILE_EOF:       '
              16 00006310 00000001     C   32056 31804  31935
 =CL16'FILE_LSPACE:    '
              16 00000F98 00000001     C   12219 11487
 =CL16'FILE_OPEN:      '
              16 00000680 00000001     C   10169  8447
 =CL16'FILE_OPEN:      '
              16 00000BC8 00000001     C   11372 10319
 =CL16'FILE_RENAME:    '
              16 000019B0 00000001     C   14404 13527
 =CL16'FILE_SCRATCH:   '
              16 000014D8 00000001     C   13362 12368
 =CL16'FILE_SHOW:      '
              16 000029C0 00000001     C   18522 16848
 =CL16'FILE_SHOW:      '
              16 00003108 00000001     C   20517 18998
 =CL16'FILE_WRITE:     '
              16 00006210 00000001     C   31660 31594
 =CL16'SHOW_DIR:       '
              16 00002260 00000001     C   16706 14941
 =CL3'LIB'
               3 000093CE 00000001     C   46897 45049
 =CL8'        '
               8 000068E8 00000001     C   34015 33161
 =CL8'<-Wings '
               8 00007CF0 00000001     C   39346 38036
 =CL8'ERROR'
               8 00006158 00000001     C   31448 31246
 =CL8'ERROR'
               8 000068D8 00000001     C   34013 32523  32576  32752  32985
 =CL8'ERROR'
               8 00007C88 00000001     C   39340 37496  37729  37895  38310
 =CL8'ERROR'
               8 00009178 00000001     C   46846 42998  43330  43517  43794  44063  44198  46563
 =CL8'INVDSN'
               8 00009298 00000001     C   46857 46649
 =CL8'INVGRP'
               8 00009260 00000001     C   46853 44765
 =CL8'INVUSER'
               8 00009248 00000001     C   46851 44516
 =CL8'INVVOL'
               8 00000BD8 00000001     C   11373 10659
 =CL8'NOFNAME'
               8 00000678 00000001     C   10168  8420
 =CL8'NOFNAME'
               8 00000BC0 00000001     C   11371 10310
 =CL8'NOFNAME'
               8 000014D0 00000001     C   13361 12329
 =CL8'NOFNAME'
               8 000019A8 00000001     C   14403 13486
 =CL8'NOFNAME'
               8 00002258 00000001     C   16705 14892
 =CL8'NOFNAME'
1WGS      (WGS2193) (13:01) (15MAR04) Ordinary Symbol and Literal Cross Reference                                           Page  233
               8 00003898 00000001     C   22744 20639
 =CL8'NOFNAME'
               8 00004198 00000001     C   24206 23210
 =CL8'NOSTAR'
               8 00009268 00000001     C   46854 44948  45238
 =CL8'ON PATH#'
               8 00007CF8 00000001     C   39347 38089
 =CL8'PATHERR '
               8 00007D08 00000001     C   39349 38864
 =CL8'PATHERR'
               8 00000C00 00000001     C   11377 11174
 =CL8'PATHERR'
               8 00000FB8 00000001     C   12221 11717
 =CL8'READ R15'
               8 00007CC8 00000001     C   39343 37974
 =CL8'STARBAD'
               8 00009270 00000001     C   46855 45175
 =CL8'SYNTAX'
               8 000006A0 00000001     C   10172  9620
 =CL8'SYNTAX'
               8 00000BE8 00000001     C   11375 10956
 =CL8'SYNTAX'
               8 000014F0 00000001     C   13364 12832
 =CL8'SYNTAX'
               8 000019C8 00000001     C   14406 13976
 =CL8'SYNTAX'
               8 00002270 00000001     C   16707 15661
 =CL8'SYNTAX'
               8 000029D0 00000001     C   18523 17467
 =CL8'SYNTAX'
               8 00003118 00000001     C   20518 19427
 =CL8'SYNTAX'
               8 000038B8 00000001     C   22747 21141
 =CL8'SYNTAX'
               8 000041B8 00000001     C   24209 23673
 =CL8'WINGSV00'
               8 00007C90 00000001     C   39341 37606
 =CL8'WPREADER'
               8 00007D00 00000001     C   39348 38298
 =F'-1'        4 00003918 00000001     F   22760 21035  21036  21037
 =F'-1'        4 00005C44 00000001     F   30276 29873
 =F'-4'        4 00005C54 00000001     F   30280 30209
 =F'-4'        4 000080F4 00000001     F   40498 39479  39551  39724  39867  39896
 =F'1'         4 00000FF8 00000001     F   12236 12061
 =F'1'         4 000076FC 00000001     F   37356 36248
 =F'16'        4 00007704 00000001     F   37358 36784  36785
 =F'20'        4 00007D94 00000001     F   39365 38288
 =F'8'         4 0000690C 00000001     F   34023 33107  33663
 =F'9'         4 00001000 00000001     F   12238 12157
 =F'9'         4 0000692C 00000001     F   34031 33783
 =H'1'         2 00002338 00000001     H   16740 15873  15874  16004
 =H'1'         2 00002A78 00000001     H   18554 17690  17691  17821
 =H'1'         2 000031C8 00000001     H   20549 19639  19640  19789
 =H'10'        2 00008114 00000001     H   40506 39569
 =H'2'         2 0000935A 00000001     H   46884 44339  44588
 =H'3'         2 00009360 00000001     H   46887 44710
 =H'4'         2 0000935E 00000001     H   46886 44461  44639
 =H'5'         2 0000935C 00000001     H   46885 44390
 =V(BTDZEROS)
1WGS      (WGS2193) (13:01) (15MAR04) Ordinary Symbol and Literal Cross Reference                                           Page  234
               4 00006228 00000001     V   31663 31589
 =V(BTDZEROS)
               4 00006920 00000001     V   34028 33668  33883
 =V(BTX)       4 00007D80 00000001     V   39362 37972  38087  38862
 =V(CVEXNO)
               4 00006924 00000001     V   34029 33719  33904
 =V(DTB)       4 00005C38 00000001     V   30273 27824
 =V(EDTCOMNH)
               4 00007DCC 00000001     V   39377 39299
 =V(GETHEAP)
               4 000000B0 00000001     V    8084  7965   7993
 =V(GTINTVAL)
               4 00006900 00000001     V   34020 32558
 =V(LOGCMD)
               4 0000155C 00000001     V   13383 13025
 =V(LOGCMD)
               4 00003970 00000001     V   22780 22530
 =V(LOGCMD)
               4 00004250 00000001     V   24228 23992
 =V(LOGCMD)
               4 00007708 00000001     V   37359 36788
 =V(LOGCMD)
               4 00007D98 00000001     V   39366 38296  38833
 =V(LOGEVENT)
               4 00001560 00000001     V   13384 13033
 =V(LOGEVENT)
               4 00003974 00000001     V   22781 22538
 =V(LOGEVENT)
               4 00004254 00000001     V   24229 24000
 =V(LOGEVENT)
               4 0000770C 00000001     V   37360 36792
 =V(LOGEVENT)
               4 00007D84 00000001     V   39363 37977  38039  38092  38301  38867
 =V(LRTRIM)
               4 00005C34 00000001     V   30272 27820
 =V(LRTRIM)
               4 000080F8 00000001     V   40499 39734
 =V(LRTRIM)
               4 000092BC 00000001     V   46865 43556  43569  43611
 =V(MARKHEAP)
               4 000000A8 00000001     V    8082  7959   8040
 =V(MARKHEAP)
               4 00000118 00000001     V    8237  8167
 =V(NOTVALID)
               4 00005C2C 00000001     V   30270 27805  27855
 =V(NRESOLVE)
               4 000068F0 00000001     V   34016 32196
 =V(NSCAN)
               4 000006EC 00000001     V   10187  9584
 =V(NSCAN)
               4 00000C34 00000001     V   11387 10920  11241
 =V(NSCAN)
               4 00000FE8 00000001     V   12232 11784
 =V(NSCAN)
               4 0000153C 00000001     V   13375 12796  13119
 =V(NSCAN)
               4 00001A10 00000001     V   14416 13940  14251
 =V(NSCAN)
               4 000022C0 00000001     V   16718 15625  16477
1WGS      (WGS2193) (13:01) (15MAR04) Ordinary Symbol and Literal Cross Reference                                           Page  235
 =V(NSCAN)
               4 00002A28 00000001     V   18534 17431  18294
 =V(NSCAN)
               4 00003174 00000001     V   20528 19391  20289
 =V(NSCAN)
               4 00003920 00000001     V   22762 21105  22624
 =V(NSCAN)
               4 00004230 00000001     V   24220 23637  24086
 =V(NSCAN)
               4 00005C3C 00000001     V   30274 29812  29984  30122
 =V(NSCAN)
               4 00005F5C 00000001     V   30730 30456
 =V(NSCAN)
               4 000076C0 00000001     V   37349 34283  35081  35406  35678  35947  36850  37293
 =V(NSCAN)
               4 00008644 00000001     V   42648 42088
 =V(NSCANSTR)
               4 000076C4 00000001     V   37350 34490  34724
 =V(PATHALLO)
               4 00007D48 00000001     V   39352 37483
 =V(PATHCLS)
               4 00007D9C 00000001     V   39367 38476
 =V(PATHOPEN)
               4 00007D54 00000001     V   39355 37636
 =V(PATHREAD)
               4 00007D7C 00000001     V   39361 37929
 =V(PATHWRIT)
               4 00007DA4 00000001     V   39369 38817
 =V(PGETA)
               4 00001BC0 00000001     V   14799 14754
 =V(PGETNEW)
               4 000022DC 00000001     V   16725 15859  15986
 =V(PGETNEW)
               4 00002A44 00000001     V   18541 17676  17803
 =V(PGETNEW)
               4 00003190 00000001     V   20535 19625  19771
 =V(PJUNKA)
               4 00001BC4 00000001     V   14800 14760
 =V(PJUNKA)
               4 000022F0 00000001     V   16730 16299  16387
 =V(PJUNKA)
               4 00002A58 00000001     V   18546 18116  18204
 =V(PJUNKA)
               4 000031A8 00000001     V   20541 20111  20199
 =V(PMARKA)
               4 00001B54 00000001     V   14647 14590
 =V(PMARKA)
               4 000022E8 00000001     V   16728 15982
 =V(PMARKA)
               4 00002A50 00000001     V   18544 17799
 =V(PMARKA)
               4 000031A0 00000001     V   20539 19767
 =V(RELHEAP)
               4 0000011C 00000001     V    8238  8189
 =V(RLOOKUP)
               4 0000463C 00000001     V   25202 24617  24686  24755  24824  24893  24962  25031  25100  25169
 =V(RTRIM)
               4 00006918 00000001     V   34026 33378
 =V(RTRIM)
1WGS      (WGS2193) (13:01) (15MAR04) Ordinary Symbol and Literal Cross Reference                                           Page  236
               4 000092B4 00000001     V   46863 43371  46469
 =V(RTRIM)
               4 00009734 00000001     V   48025 47036
 =V(SCANCHK)
               4 000006F0 00000001     V   10188  9598
 =V(SCANCHK)
               4 00000C38 00000001     V   11388 10934
 =V(SCANCHK)
               4 00001540 00000001     V   13376 12810
 =V(SCANCHK)
               4 00001A14 00000001     V   14417 13954
 =V(SCANCHK)
               4 000022C4 00000001     V   16719 15639
 =V(SCANCHK)
               4 00002A2C 00000001     V   18535 17445
 =V(SCANCHK)
               4 00003178 00000001     V   20529 19405
 =V(SCANCHK)
               4 00003924 00000001     V   22763 21119
 =V(SCANCHK)
               4 00004234 00000001     V   24221 23651
 =V(SCANCHK)
               4 00008648 00000001     V   42649 42102
 =V(SCDQUOTE)
               4 00000FF4 00000001     V   12235 12054
 =V(SCDQUOTE)
               4 000076F8 00000001     V   37355 36241  37177
 =V(SCSEG)
               4 00005C50 00000001     V   30279 30207
 =V(SCUPCASE)
               4 0000771C 00000001     V   37364 37061
 =V(SEG)       4 000006B4 00000001     V   10175  8437   8463   8490   8509   8541   8586   8631   8676   8714   8737
                                                  8823   8964   8991   9075   9093   9116   9143   9182   9211   9228
                                                  9257   9305   9402   9440   9478   9516   9690   9782   9966
 =V(SEG)       4 00000C0C 00000001     V   11379 10335  10362  10380  10398  10430  10475  10520  10565  10603  10681
                                                 10708  10776  10814  10852
 =V(SEG)       4 00000FC4 00000001     V   12223 11504  11531  12181
 =V(SEG)       4 00001508 00000001     V   13366 12346  12384  12411  12430  12519  12537  12560  12587  12652  12690
                                                 12728  13051
 =V(SEG)       4 000019E0 00000001     V   14408 13503  13543  13570  13637  13655  13678  13705  13727  13754  13773
                                                 13834  13872  14183
 =V(SEG)       4 00002298 00000001     V   16710 14909  14957  14984  15003  15080  15098  15121  15148  15188  15215
                                                 15254  15281  15320  15347  15384  15429  15489  15521  15557  16272
 =V(SEG)       4 00002A00 00000001     V   18528 16898  16925  16965  16992  17032  17059  17099  17126  17158  17184
                                                 17255  17287  17331  17363  18089
 =V(SEG)       4 00003144 00000001     V   20522 19033  19060  19100  19127  19167  19194  19266  19296  19327  20084
 =V(SEG)       4 000038E8 00000001     V   22752 20656  20698  20725  20744  20816  20834  20857  20884  20949  20987
                                                 21025  21664  21833  21855  21887  21932  21977  22009  22031  22092
                                                 22274  22306  22556
 =V(SEG)       4 00004200 00000001     V   24212 23227  23266  23293  23312  23395  23413  23436  23463  23532  23570
                                                 23721  23752  23796  23828  24018
 =V(SEG)       4 00004438 00000001     V   24555 24385  24411  24495  24521
 =V(SEG)       4 00005C18 00000001     V   30265 26188  26272  26298  26382  26408  26492  26518  26602  26628  26709
                                                 26791  26878  26963  27052  27134  27277  27344  27411  27478  27530
                                                 27569  27663  27943  27969  28640  28666  28750  28776  28860  28886
                                                 28967  29048  29129  29210  29556  29647
 =V(SEG)       4 0000602C 00000001     V   31048 30956  30984
 =V(SEG)       4 0000622C 00000001     V   31664 31618
 =V(SEG)       4 000076B4 00000001     V   37346 34211  36338
1WGS      (WGS2193) (13:01) (15MAR04) Ordinary Symbol and Literal Cross Reference                                           Page  237
 =V(SEG)       4 00007D4C 00000001     V   39353 37519  37752  37912  38333
 =V(SEG)       4 00008654 00000001     V   42652 42211
 =V(SEG)       4 000092B0 00000001     V   46862 42996  43093  43108  43180  43195  43267  43282  43328  43474  43515
                                                 43792  44061  44181  44196  44230  44499  44514  44748  44763  44946
                                                 45173  45236  45499  45628  45746  45786  45893  45910  46017  46034
                                                 46060  46189  46206  46312  46329  46355  46403  46527  46561  46647
 =V(SEG)       4 00009738 00000001     V   48026 47067  47181  47196  47259  47274  47372  47387  47578  47593  47670
                                                 47685  47791  47806  47894  47909
 =V(SEGCLR)
               4 00000C40 00000001     V   11390 10994  11132  11283
 =V(SEGCLR)
               4 000092A0 00000001     V   46858 42876
 =V(SEGCLR)
               4 00009730 00000001     V   48024 47017
 =V(SEGCR)
               4 00000FFC 00000001     V   12237 12121  12153
 =V(SEGCR)
               4 00003930 00000001     V   22766 21367  21493  21578
 =V(SEGCR)
               4 00007700 00000001     V   37357 36308  37201
 =V(SEGDC)
               4 000006C0 00000001     V   10178  8804   8890   9715
 =V(SEGDC)
               4 0000392C 00000001     V   22765 21349  21475  21560  22056  22117  22337
 =V(SEGDC)
               4 00005C1C 00000001     V   30266 27159  27688
 =V(SEGDC)
               4 000092EC 00000001     V   46877 46546
 =V(SEGINIT)
               4 000000BC 00000001     V    8087  8020
 =V(SEGINIT)
               4 0000864C 00000001     V   42650 42147
 =V(SEGINIT)
               4 000092A4 00000001     V   46859 42926
 =V(SEGINITR)
               4 000000C4 00000001     V    8089  8035
 =V(SEGT)      4 000006D4 00000001     V   10183  9335
 =V(SEGT)      4 000092AC 00000001     V   46861 42981  43134  43221  43308  43500  43777  44046  44931  45158  45221
                                                 46512  46630
 =V(SEGT)      4 00009744 00000001     V   48029 47166  47244  47357  47563  47711  47832  47879
 =V(SEGWR)
               4 000006F8 00000001     V   10190 10106
 =V(SEGWR)
               4 00000C44 00000001     V   11391 11059
 =V(SEGWR)
               4 00000FCC 00000001     V   12225 11614
 =V(SEGWR)
               4 00001548 00000001     V   13378 12921
 =V(SEGWR)
               4 00001A1C 00000001     V   14419 14065
 =V(SEGWR)
               4 000022CC 00000001     V   16721 15750
 =V(SEGWR)
               4 00002A34 00000001     V   18537 17567
 =V(SEGWR)
               4 00003180 00000001     V   20531 19516
 =V(SEGWR)
               4 0000395C 00000001     V   22775 22426
 =V(SEGWR)
1WGS      (WGS2193) (13:01) (15MAR04) Ordinary Symbol and Literal Cross Reference                                           Page  238
               4 0000423C 00000001     V   24223 23888
 =V(SEGWR)
               4 00006334 00000001     V   32059 31827  31854  31931  31958  31990
 =V(TOUPPER)
               4 000092C0 00000001     V   46866 43560  46473
 =V(VOLCHK)
               4 00008110 00000001     V   40505 40451
 =V(YESREQ)
               4 00003940 00000001     V   22768 21375  21501  21586
 =V(YESREQ)
               4 00006030 00000001     V   31049 30992
 =V(YESREQ)
               4 00007714 00000001     V   37362 36920
 =X'40000000'
               4 0000691C 00000001     X   34027 33628  33853  33859
 =X'40000000'
               4 00008104 00000001     X   40502 40060
 =XL(L'WGSLNLNO)'00'
               8 000068E0 00000001     X   34014 32542
 =Y((L'NSCNCB+3)/4*4)
               2 0000073A 00000001     Y   10197  9604
 =Y((L'NSCNCB+3)/4*4)
               2 00000C66 00000001     Y   11400 10940  11256
 =Y((L'NSCNCB+3)/4*4)
               2 00001006 00000001     Y   12240 11799
 =Y((L'NSCNCB+3)/4*4)
               2 0000159E 00000001     Y   13392 12816  13134
 =Y((L'NSCNCB+3)/4*4)
               2 00001A6A 00000001     Y   14431 13960  14266
 =Y((L'NSCNCB+3)/4*4)
               2 00002336 00000001     Y   16739 15645  16492
 =Y((L'NSCNCB+3)/4*4)
               2 00002A76 00000001     Y   18553 17451  18309
 =Y((L'NSCNCB+3)/4*4)
               2 000031C6 00000001     Y   20548 19411  20304
 =Y((L'NSCNCB+3)/4*4)
               2 000039B2 00000001     Y   22789 21125  22639
 =Y((L'NSCNCB+3)/4*4)
               2 00004292 00000001     Y   24237 23657  24101
 =Y((L'NSCNCB+3)/4*4)
               2 00005CBE 00000001     Y   30294 30176  30186
 =Y((L'NSCNCB+3)/4*4)
               2 00005F66 00000001     Y   30733 30507
 =Y((L'NSCNCB+3)/4*4)
               2 00007722 00000001     Y   37366 34298  35422  35695  35964  36869
 =Y((L'NSCNCB+3)/4*4)
               2 00008662 00000001     Y   42656 42108
 =Y((L'XFILPB+3)/4*4)
               2 00009364 00000001     Y   46889 44885  45072  45328
 =Y((R1+1-(R0)+16*((R0)/(R1+1))/((R0)/(R1+1)))*4)
               2 00001B58 00000001     Y   14648 14617
 =Y((R1+1-(R0)+16*((R0)/(R1+1))/((R0)/(R1+1)))*4)
               2 0000233A 00000001     Y   16741 15876  15894  16006  16030  16126  16134
 =Y((R1+1-(R0)+16*((R0)/(R1+1))/((R0)/(R1+1)))*4)
               2 00002A7A 00000001     Y   18555 17693  17711  17823  17847  17943  17951
 =Y((R1+1-(R0)+16*((R0)/(R1+1))/((R0)/(R1+1)))*4)
               2 000031CA 00000001     Y   20550 19642  19660  19791  19815  19934  19946
 =Y((R1+1-(R0)+16*((R0)/(R1+1))/((R0)/(R1+1)))*4)
               2 00004442 00000001     Y   24557 24388  24498
1WGS      (WGS2193) (13:01) (15MAR04) Ordinary Symbol and Literal Cross Reference                                           Page  239
 =Y((R1+1-(R0)+16*((R0)/(R1+1))/((R0)/(R1+1)))*4)
               2 00005C62 00000001     Y   30282 26275  26385  26495  26605  27946  28643  28753  28863
 =Y((R1+1-(R0)+16*((R0)/(R1+1))/((R0)/(R1+1)))*4)
               2 00006930 00000001     Y   34032 32610
 =Y((R2+1-(R15)+16*((R15)/(R2+1))/((R15)/(R2+1)))*4)
               2 00007DD0 00000001     Y   39378 37980  38095
 =Y((12+3)/4*4)
               2 00000738 00000001     Y   10196  9590
 =Y((12+3)/4*4)
               2 00000C64 00000001     Y   11399 10926  11247
 =Y((12+3)/4*4)
               2 00001004 00000001     Y   12239 11790
 =Y((12+3)/4*4)
               2 0000159C 00000001     Y   13391 12802  13125
 =Y((12+3)/4*4)
               2 00001A68 00000001     Y   14430 13946  14257
 =Y((12+3)/4*4)
               2 00002334 00000001     Y   16738 15631  16483
 =Y((12+3)/4*4)
               2 00002A74 00000001     Y   18552 17437  18300
 =Y((12+3)/4*4)
               2 000031C4 00000001     Y   20547 19397  20295
 =Y((12+3)/4*4)
               2 000039B0 00000001     Y   22788 21111  22630
 =Y((12+3)/4*4)
               2 00004290 00000001     Y   24236 23643  24092
 =Y((12+3)/4*4)
               2 00005CBC 00000001     Y   30293 29818  29990  30128
 =Y((12+3)/4*4)
               2 00005F64 00000001     Y   30732 30462
 =Y((12+3)/4*4)
               2 00007720 00000001     Y   37365 34289  34496  34730  35087  35412  35684  35953  36856  37299
 =Y((12+3)/4*4)
               2 00008660 00000001     Y   42655 42094
 =Y(4)         2 00000C68 00000001     Y   11401 11309
 =Y(4)         2 00001008 00000001     Y   12241 11843
 =Y(4)         2 000015CA 00000001     Y   13394 13178
 =Y(4)         2 00001A6C 00000001     Y   14432 14310
 =Y(4)         2 0000233E 00000001     Y   16743 16590
 =Y(4)         2 00002A7E 00000001     Y   18557 18407
 =Y(4)         2 000031CE 00000001     Y   20552 20402
 =Y(4)         2 00003A1C 00000001     Y   22796 22313  22683
 =Y(4)         2 00004294 00000001     Y   24238 24145

1WGS      (WGS2193) (13:01) (15MAR04) Macro and Copy Code Source Summary                                                    Page  240
- Con Source                                        Volume    Members                        HLASM R4.0  2004/03/15 13.01
0     PRIMARY INPUT                                           CSECT    DROP     END      EX       LTORG    POP
                                                              PRINT    PUSH     START    USING
   L1 WYL.GS.WYL.WYLBUR.MACLIB                      SYSB05    AINFO    BASE     BOMB     BTX      COLINFO  COMMENT
                                                              CONTROL  CP       CPLOCAL  CV       CVLOCAL  DSNINFO
                                                              ERROR    FFINFO   FILPB    JCB      KAPUT    LOADRTNP
                                                              PFREE    PGET     PMARK    RG       SCAN     SCANCB
                                                              SCANCHK  SCANSTR  SCCBADR  SCCLR    SCDQUOTE SCINIT   SCKW
                                                              SCPOP    SCPUSH   SCSEG    SCSEGCLR SCUPCASE SCUPTOK
                                                              SEGINIT  SHCTARGS SHDRARGS SHDSARGS TCCR     TNUM     TSEG
                                                              TTYPE    UPATH    VLTORG   XPUSHRTN XTRACE
   L2 WYL.GG.SYS.MACLIB                             SYSB05    $BC      $BFLKUP  $BV      $CCLKUP  $CRS     $CSS     $L
                                                              $LA      $LBLAD   $LEXP    $LOR     $REL     $RGLKUP
                                                              $USLKUP  ACALL    BEGIN    CEIL     CLEAR    COMPROC
                                                              CSECT    DATA     DECR     DEFCC    DEX      DROP     DTEX
                                                              ELSE     ELSEIF   END      EX       FLAG     FLOOR    GEN
                                                              HIBAL    IDENT    IF       INCR     LABEL    LC       LOOP
                                                              LS       LT       LTORG    MOVE     MOVEL    PEND     POP
                                                              PRETURN  PRINT    PROC     PUSH     QLTORG   RECORD   REG
                                                              REGS     SET      SETMSG   START    USING    VCALL
                                                              WHILE    WITH     XPROC
   L3 SYS3.IS.MACLIB                                SYSB05    DEFINE   KWR      SEG      SEGCB    SEGCLR   SEGCR
                                                              SEGDC    SEGDEF   SEGLD    SEGT     SEGWR    SIB
                                                              SYSDEFN  XPOP     XPUSH
   L4 SYS3.MACLIB                                   SYSB02    PATH

1WGS      (WGS2193) (13:01) (15MAR04) Dsect Cross Reference                                                                 Page  241
-Dsect     Length      Id       Defn                                                         HLASM R4.0  2004/03/15 13.01
0$$$@R0   00000000  FFFFFFFE     705
 $$$@R1   00000000  FFFFFFFD     718
 $$$@R10  00000000  FFFFFFF4     835
 $$$@R11  00000000  FFFFFFF3     848
 $$$@R12  00000000  FFFFFFF2     861
 $$$@R13  00000000  FFFFFFF1     874
 $$$@R14  00000000  FFFFFFF0     887
 $$$@R15  00000000  FFFFFFEF     900
 $$$@R2   00000000  FFFFFFFC     731
 $$$@R3   00000000  FFFFFFFB     744
 $$$@R4   00000000  FFFFFFFA     757
 $$$@R5   00000000  FFFFFFF9     770
 $$$@R6   00000000  FFFFFFF8     783
 $$$@R7   00000000  FFFFFFF7     796
 $$$@R8   00000000  FFFFFFF6     809
 $$$@R9   00000000  FFFFFFF5     822
 $$$RBDSNWA
          000000CC  FFFFFFD2   42686
 $$$RCDSNWA
          00000008  FFFFFFD1   46925
 $$$RCHVWA
          00000008  FFFFFFD6   39985
 $$$RCKACWA
          00000005  FFFFFFDD   32089
 $$$RCP   00001000  FFFFFFEC    2453
 $$$RCV   00000FB0  FFFFFFEE    1178
 $$$RDEV  0000000C  FFFFFFEB    4667
 $$$RDSNINFO
          000000EB  FFFFFFE2    7289
 $$$RFFINFO
          000003A0  FFFFFFE0    7684
 $$$RFILPB
          000001DC  FFFFFFD5   41521
 $$$RGTLVWA
          0000000A  FFFFFFD7   39625
 $$$RJCB  000000D0  FFFFFFE9    6305
 $$$RKWR  000001F8  FFFFFFE8    6585
 $$$RNSCNCB
          000000B0  FFFFFFED    2374
 $$$RSEGCB
          0000003C  FFFFFFE6    6945
 $$$RSHCTARGS
          0000032C  FFFFFFE3    7217
 $$$RSHDRARGS
          00000064  FFFFFFE5    7052
 $$$RSHDSARGS
          00000200  FFFFFFE4    7129
 $$$RTRKMSGWA
          000000EF  FFFFFFDF   11965
 $$$RTTYPE
          0000010C  FFFFFFEA    6198
 $$$RUPATH
          000000B0  FFFFFFE7    6796
 $$$RWGEMSGWA
          000000EB  FFFFFFD9   37091
1WGS      (WGS2193) (13:01) (15MAR04) Dsect Cross Reference                                                                 Page  242
 $$$RWGSWA
          00000094  FFFFFFE1    7420
 $$$RWGSWWA
          000001E6  FFFFFFDE   31488
 $$$RWNWA 00000320  FFFFFFD3   41703
 $$$RWRFWA
          00000010  FFFFFFDC   32887
 $$$RWRTMWA
          000000EF  FFFFFFDA   36152
 $$$RWSEWA
          00000200  FFFFFFD8   38970
 $$$RWWFWA
          00000014  FFFFFFDB   33436
 $$$RXFILPB
          000001DC  FFFFFFD4   41607
 HIBAL    00000000  FFFFFFFF     691

1WGS      (WGS2193) (13:01) (15MAR04) Using Map                                                                             Page  243
-                                                                                            HLASM R4.0  2004/03/15 13.01
   Stmt  -----Location----- Action ----------------Using----------------- Reg Max    Last  Label and Using Text
           Count      Id           Type          Value    Range     Id        Disp   Stmt
0   922  00000000  FFFFFFFF USING  ORDINARY    00000000 00001000 FFFFFFEF  15 000          @R15,15
    926  00000000  FFFFFFFF USING  ORDINARY    00000000 00001000 FFFFFFF0  14 002   36804  @R14,14
    930  00000000  FFFFFFFF USING  ORDINARY    00000000 00001000 FFFFFFF1  13 004   43408  @R13,13
    934  00000000  FFFFFFFF USING  ORDINARY    00000000 00001000 FFFFFFF2  12 000          @R12,12
    938  00000000  FFFFFFFF USING  ORDINARY    00000000 00001000 FFFFFFF3  11 000          @R11,11
    942  00000000  FFFFFFFF USING  ORDINARY    00000000 00001000 FFFFFFF4  10 000          @R10,10
    946  00000000  FFFFFFFF USING  ORDINARY    00000000 00001000 FFFFFFF5   9 000   19763  @R9,9
    950  00000000  FFFFFFFF USING  ORDINARY    00000000 00001000 FFFFFFF6   8 000          @R8,8
    954  00000000  FFFFFFFF USING  ORDINARY    00000000 00001000 FFFFFFF7   7 000          @R7,7
    958  00000000  FFFFFFFF USING  ORDINARY    00000000 00001000 FFFFFFF8   6 000          @R6,6
    962  00000000  FFFFFFFF USING  ORDINARY    00000000 00001000 FFFFFFF9   5 000          @R5,5
    966  00000000  FFFFFFFF USING  ORDINARY    00000000 00001000 FFFFFFFA   4 000    8447  @R4,4
    970  00000000  FFFFFFFF USING  ORDINARY    00000000 00001000 FFFFFFFB   3 001   41464  @R3,3
    974  00000000  FFFFFFFF USING  ORDINARY    00000000 00001000 FFFFFFFC   2 001   14584  @R2,2
    978  00000000  FFFFFFFF USING  ORDINARY    00000000 00001000 FFFFFFFD   1 001   18173  @R1,1
    982  00000000  FFFFFFFF USING  ORDINARY    00000000 00001000 FFFFFFFE   0 000          @R0,0
    983  00000000  FFFFFFFF DROP                                            0              0
   1162  00000016  00000001 USING  ORDINARY    00000000 00001000 FFFFFFEC  11 E58   46277  CP,CPR
   1171  00000016  00000001 USING  ORDINARY    00000000 00001000 FFFFFFEE  12 8A8   46963  CV,CVR
   7948  00000030  00000001 USING  ORDINARY    00000030 00001000 00000001   7 094    8040  $$$73B,7
   7976  00000048  00000001 USING  ORDINARY    00000000 00001000 FFFFFFE1   5 058    8042  WGSWA,R5
   8053  00000094  00000001 USING  ORDINARY    00000000 00001000 FFFFFFF7   7 000          @R7,7
   8073  000000A2  00000001 USING  ORDINARY    00000000 00001000 FFFFFFF9   5 000          @R5,5
   8141  000000E2  00000001 USING  ORDINARY    000000E2 00001000 00000001   7 03A    8189  $$$76B,7
   8160  000000E6  00000001 USING  ORDINARY    00000000 00001000 FFFFFFE1   5 004    8186  WGSWA,R5
   8208  00000104  00000001 USING  ORDINARY    00000000 00001000 FFFFFFF9   5 000          @R5,5
   8216  00000104  00000001 USING  ORDINARY    00000000 00001000 FFFFFFF7   7 000          @R7,7
   8313  0000013A  00000001 USING  ORDINARY    0000013A 00001000 00000001   7 69B   10126  $$$80B,7
   8330  0000013E  00000001 USING  ORDINARY    00000000 00001000 FFFFFFE0   6 29C   23607  FFINFO,R6
   8395  0000016A  00000001 USING  ORDINARY    00000000 00001000 FFFFFFE1   5 058   30075  WGSWA,R5
  10056  0000063C  00000001 USING  ORDINARY    00000000 00001000 FFFFFFE9   4 062   10067  JCB,R4
  10074  00000640  00000001 USING  ORDINARY    00000000 00001000 FFFFFFFA   4 000   10319  @R4,4
  10145  00000660  00000001 USING  ORDINARY    00000000 00001000 FFFFFFF7   7 000          @R7,7
  10266  000007F8  00000001 USING  ORDINARY    000007F8 00001000 00000001   7 4AE   11309  $$$130B,7
  11013  00000A76  00000001 USING  ORDINARY    00000000 00001000 FFFFFFE9   4 062   11024  JCB,R4
  11031  00000A7A  00000001 USING  ORDINARY    00000000 00001000 FFFFFFFA   4 000          @R4,4
  11321  00000BA6  00000001 USING  ORDINARY    00000000 00001000 FFFFFFE9   4 062   11333  JCB,R4
  11340  00000BAA  00000001 USING  ORDINARY    00000000 00001000 FFFFFFFA   4 000   11487  @R4,4
  11348  00000BAA  00000001 USING  ORDINARY    00000000 00001000 FFFFFFF7   7 000          @R7,7
  11463  00000CD0  00000001 USING  ORDINARY    00000CD0 00001000 00000001   7 33F   11843  $$$156B,7
  11570  00000D22  00000001 USING  ORDINARY    00000000 00001000 FFFFFFE9   4 062   11581  JCB,R4
  11588  00000D26  00000001 USING  ORDINARY    00000000 00001000 FFFFFFFA   4 000          @R4,4
  11855  00000E44  00000001 USING  ORDINARY    00000000 00001000 FFFFFFE9   4 062   11867  JCB,R4
  11874  00000E48  00000001 USING  ORDINARY    00000000 00001000 FFFFFFFA   4 000   12368  @R4,4
  11882  00000E48  00000001 USING  ORDINARY    00000000 00001000 FFFFFFF7   7 000          @R7,7
  12016  00000F12  00000001 USING  ORDINARY    00000F12 00001000 00000001   7 0EE   12181  $$$166B,7
  12030  00000F12  00000001 USING  ORDINARY    FFFFFFD8 00001000 FFFFFFDF   8 02C   12156  TRKMSGWA-(4+36),R8
  12193  00000F88  00000001 USING  ORDINARY    00000000 00001000 FFFFFFF6   8 000          @R8,8
  12198  00000F88  00000001 USING  ORDINARY    00000000 00001000 FFFFFFF7   7 000          @R7,7
  12298  00001038  00000001 USING  ORDINARY    00001038 00001000 00000001   7 5AB   13178  $$$171B,7
  12875  0000123C  00000001 USING  ORDINARY    00000000 00001000 FFFFFFE9   4 062   12886  JCB,R4
  12893  00001240  00000001 USING  ORDINARY    00000000 00001000 FFFFFFFA   4 000          @R4,4
  13190  00001378  00000001 USING  ORDINARY    00000000 00001000 FFFFFFE9   4 062   13202  JCB,R4
1WGS      (WGS2193) (13:01) (15MAR04) Using Map                                                                             Page  244
  13209  0000137C  00000001 USING  ORDINARY    00000000 00001000 FFFFFFFA   4 000   13527  @R4,4
  13217  0000137C  00000001 USING  ORDINARY    00000000 00001000 FFFFFFF7   7 000          @R7,7
  13455  0000160C  00000001 USING  ORDINARY    0000160C 00001000 00000001   7 484   14310  $$$189B,7
  14019  00001814  00000001 USING  ORDINARY    00000000 00001000 FFFFFFE9   4 062   14030  JCB,R4
  14037  00001818  00000001 USING  ORDINARY    00000000 00001000 FFFFFFFA   4 000          @R4,4
  14322  00001942  00000001 USING  ORDINARY    00000000 00001000 FFFFFFE9   4 062   14334  JCB,R4
  14341  00001946  00000001 USING  ORDINARY    00000000 00001000 FFFFFFFA   4 000          @R4,4
  14349  00001946  00000001 USING  ORDINARY    00000000 00001000 FFFFFFF7   7 000          @R7,7
  14494  00001AD4  00000001 USING  ORDINARY    00001AD4 00001000 00000001   7 086   14617  $$$206B,7
  14625  00001B40  00000001 USING  ORDINARY    00000000 00001000 FFFFFFF7   7 000          @R7,7
  14698  00001B7A  00000001 USING  ORDINARY    00001B7A 00001000 00000001   7 04A   14766  $$$215B,7
  14778  00001BAC  00000001 USING  ORDINARY    00000000 00001000 FFFFFFF7   7 000          @R7,7
  14860  00001BE2  00000001 USING  ORDINARY    00001BE2 00001000 00000001   7 7A5   16590  $$$221B,7
  14935  00001C1E  00000001 USING  ORDINARY    00000000 00001000 FFFFFFE5   4 034   16403  SHDRARGS,R4
  15704  00001EA4  00000001 USING  ORDINARY    00000000 00001000 FFFFFFE9   2 062   15715  JCB,R2
  15722  00001EA8  00000001 USING  ORDINARY    00000000 00001000 FFFFFFFC   2 000          @R2,2
  16602  000021C4  00000001 USING  ORDINARY    00000000 00001000 FFFFFFE9   2 062   16614  JCB,R2
  16621  000021C8  00000001 USING  ORDINARY    00000000 00001000 FFFFFFFC   2 000          @R2,2
  16629  000021C8  00000001 USING  ORDINARY    00000000 00001000 FFFFFFF7   7 000          @R7,7
  16648  000021D6  00000001 USING  ORDINARY    00000000 00001000 FFFFFFFA   4 000          @R4,4
  16811  000023D0  00000001 USING  ORDINARY    000023D0 00001000 00000001   7 6E5   18407  $$$273B,7
  16842  000023E2  00000001 USING  ORDINARY    00000000 00001000 FFFFFFE4   4 194   18220  SHDSARGS,R4
  17510  00002612  00000001 USING  ORDINARY    00000000 00001000 FFFFFFE9   2 062   17521  JCB,R2
  17528  00002616  00000001 USING  ORDINARY    00000000 00001000 FFFFFFFC   2 000          @R2,2
  18419  00002932  00000001 USING  ORDINARY    00000000 00001000 FFFFFFE9   2 062   18431  JCB,R2
  18438  00002936  00000001 USING  ORDINARY    00000000 00001000 FFFFFFFC   2 000          @R2,2
  18446  00002936  00000001 USING  ORDINARY    00000000 00001000 FFFFFFF7   7 000          @R7,7
  18465  00002944  00000001 USING  ORDINARY    00000000 00001000 FFFFFFFA   4 000          @R4,4
  18616  00002AFA  00000001 USING  ORDINARY    00002AFA 00001000 00000001   7 054   18852  $$$323B,7
  18634  00002AFA  00000001 USING  ORDINARY    00000000 00001000 FFFFFFE2   1 035   18776  DSNINFO,R1
  18666  00002B02  00000001 USING  ORDINARY    00000000 00001000 FFFFFFE3   2 000   18762  SHCTARGS,R2
  18840  00002B48  00000001 USING  ORDINARY    00000000 00001000 FFFFFFFC   2 000          @R2,2
  18873  00002B4E  00000001 USING  ORDINARY    00000000 00001000 FFFFFFFD   1 00A   44098  @R1,1
  18881  00002B4E  00000001 USING  ORDINARY    00000000 00001000 FFFFFFF7   7 000          @R7,7
  18961  00002B7A  00000001 USING  ORDINARY    00002B7A 00001000 00000001   7 656   20402  $$$337B,7
  18992  00002B8C  00000001 USING  ORDINARY    00000000 00001000 FFFFFFE3   4 194   20215  SHCTARGS,R4
  19470  00002D36  00000001 USING  ORDINARY    00000000 00001000 FFFFFFE9   2 062   19481  JCB,R2
  19488  00002D3A  00000001 USING  ORDINARY    00000000 00001000 FFFFFFFC   2 000          @R2,2
  20414  00003076  00000001 USING  ORDINARY    00000000 00001000 FFFFFFE9   2 062   20426  JCB,R2
  20433  0000307A  00000001 USING  ORDINARY    00000000 00001000 FFFFFFFC   2 000          @R2,2
  20441  0000307A  00000001 USING  ORDINARY    00000000 00001000 FFFFFFF7   7 000          @R7,7
  20460  00003088  00000001 USING  ORDINARY    00000000 00001000 FFFFFFFA   4 000   20682  @R4,4
  20608  00003218  00000001 USING  ORDINARY    00003218 00001000 00000001   7 87C   22683  $$$383B,7
  22379  00003742  00000001 USING  ORDINARY    00000000 00001000 FFFFFFE9   4 062   22390  JCB,R4
  22397  00003746  00000001 USING  ORDINARY    00000000 00001000 FFFFFFFA   4 000          @R4,4
  22695  0000387E  00000001 USING  ORDINARY    00000000 00001000 FFFFFFE9   4 062   22707  JCB,R4
  22714  00003882  00000001 USING  ORDINARY    00000000 00001000 FFFFFFFA   4 000   23250  @R4,4
  22722  00003882  00000001 USING  ORDINARY    00000000 00001000 FFFFFFF7   7 000          @R7,7
  23178  00003DFA  00000001 USING  ORDINARY    00003DFA 00001000 00000001   7 4BA   24145  $$$443B,7
  23845  00004042  00000001 USING  ORDINARY    00000000 00001000 FFFFFFE9   4 062   23856  JCB,R4
  23863  00004046  00000001 USING  ORDINARY    00000000 00001000 FFFFFFFA   4 000          @R4,4
  24157  0000417E  00000001 USING  ORDINARY    00000000 00001000 FFFFFFE9   4 062   24169  JCB,R4
  24176  00004182  00000001 USING  ORDINARY    00000000 00001000 FFFFFFFA   4 000   42323  @R4,4
  24184  00004182  00000001 USING  ORDINARY    00000000 00001000 FFFFFFF7   7 000          @R7,7
  24358  000043A6  00000001 USING  ORDINARY    000043A6 00001000 00000001   7 09C   24411  $$$465B,7
  24423  000043D4  00000001 USING  ORDINARY    00000000 00001000 FFFFFFF7   7 000          @R7,7
  24468  000043FC  00000001 USING  ORDINARY    000043FC 00001000 00000001   7 048   24521  $$$468B,7
  24533  0000442A  00000001 USING  ORDINARY    00000000 00001000 FFFFFFF7   7 000          @R7,7
  24605  00004468  00000001 USING  ORDINARY    00004468 00001000 00000001   7 1D4   24617  $$$471B,7
1WGS      (WGS2193) (13:01) (15MAR04) Using Map                                                                             Page  245
  24627  00004476  00000001 USING  ORDINARY    00000000 00001000 FFFFFFF7   7 000          @R7,7
  24674  0000449E  00000001 USING  ORDINARY    0000449E 00001000 00000001   7 1A2   24686  $$$474B,7
  24696  000044AC  00000001 USING  ORDINARY    00000000 00001000 FFFFFFF7   7 000          @R7,7
  24743  000044D4  00000001 USING  ORDINARY    000044D4 00001000 00000001   7 170   24755  $$$477B,7
  24765  000044E2  00000001 USING  ORDINARY    00000000 00001000 FFFFFFF7   7 000          @R7,7
  24812  0000450A  00000001 USING  ORDINARY    0000450A 00001000 00000001   7 13E   24824  $$$480B,7
  24834  00004518  00000001 USING  ORDINARY    00000000 00001000 FFFFFFF7   7 000          @R7,7
  24881  00004540  00000001 USING  ORDINARY    00004540 00001000 00000001   7 10C   24893  $$$483B,7
  24903  0000454E  00000001 USING  ORDINARY    00000000 00001000 FFFFFFF7   7 000          @R7,7
  24950  00004576  00000001 USING  ORDINARY    00004576 00001000 00000001   7 0DA   24962  $$$486B,7
  24972  00004584  00000001 USING  ORDINARY    00000000 00001000 FFFFFFF7   7 000          @R7,7
  25019  000045AC  00000001 USING  ORDINARY    000045AC 00001000 00000001   7 0A8   25031  $$$489B,7
  25041  000045BA  00000001 USING  ORDINARY    00000000 00001000 FFFFFFF7   7 000          @R7,7
  25088  000045E2  00000001 USING  ORDINARY    000045E2 00001000 00000001   7 076   25100  $$$492B,7
  25110  000045F0  00000001 USING  ORDINARY    00000000 00001000 FFFFFFF7   7 000          @R7,7
  25157  00004618  00000001 USING  ORDINARY    00004618 00001000 00000001   7 044   25169  $$$495B,7
  25179  00004626  00000001 USING  ORDINARY    00000000 00001000 FFFFFFF7   7 000          @R7,7
  26164  00004FDA  00000001 USING  ORDINARY    00004FDA 00001000 00000001   7 C7E   26188  $$$498B,7
  26200  00004FEE  00000001 USING  ORDINARY    00000000 00001000 FFFFFFF7   7 000          @R7,7
  26245  00005016  00000001 USING  ORDINARY    00005016 00001000 00000001   7 CAA   26298  $$$501B,7
  26310  00005044  00000001 USING  ORDINARY    00000000 00001000 FFFFFFF7   7 000          @R7,7
  26355  0000506C  00000001 USING  ORDINARY    0000506C 00001000 00000001   7 C59   26408  $$$504B,7
  26420  0000509A  00000001 USING  ORDINARY    00000000 00001000 FFFFFFF7   7 000          @R7,7
  26465  000050C2  00000001 USING  ORDINARY    000050C2 00001000 00000001   7 BA2   26518  $$$507B,7
  26530  000050F0  00000001 USING  ORDINARY    00000000 00001000 FFFFFFF7   7 000          @R7,7
  26575  00005118  00000001 USING  ORDINARY    00005118 00001000 00000001   7 BB6   26628  $$$510B,7
  26640  00005146  00000001 USING  ORDINARY    00000000 00001000 FFFFFFF7   7 000          @R7,7
  26685  0000516E  00000001 USING  ORDINARY    0000516E 00001000 00000001   7 B67   26709  $$$513B,7
  26721  00005182  00000001 USING  ORDINARY    00000000 00001000 FFFFFFF7   7 000          @R7,7
  26766  000051AA  00000001 USING  ORDINARY    000051AA 00001000 00000001   7 B34   26791  $$$516B,7
  26803  000051BE  00000001 USING  ORDINARY    00000000 00001000 FFFFFFF7   7 000          @R7,7
  26848  000051E6  00000001 USING  ORDINARY    000051E6 00001000 00000001   7 B07   26878  $$$519B,7
  26886  000051FC  00000001 USING  ORDINARY    00000000 00001000 FFFFFFF7   7 000          @R7,7
  26931  00005224  00000001 USING  ORDINARY    00005224 00001000 00000001   7 AD4   26963  $$$522B,7
  26975  00005244  00000001 USING  ORDINARY    00000000 00001000 FFFFFFF7   7 000          @R7,7
  27020  0000526C  00000001 USING  ORDINARY    0000526C 00001000 00000001   7 9FE   27052  $$$525B,7
  27064  0000528C  00000001 USING  ORDINARY    00000000 00001000 FFFFFFF7   7 000          @R7,7
  27109  000052B4  00000001 USING  ORDINARY    000052B4 00001000 00000001   7 A55   27159  $$$528B,7
  27167  000052DA  00000001 USING  ORDINARY    00000000 00001000 FFFFFFF7   7 000          @R7,7
  27212  00005302  00000001 USING  ORDINARY    00005302 00001000 00000001   7 A2C   27575  $$$531B,7
  27592  000053FE  00000001 USING  ORDINARY    00000000 00001000 FFFFFFF7   7 000          @R7,7
  27637  00005426  00000001 USING  ORDINARY    00005426 00001000 00000001   7 90D   27688  $$$548B,7
  27700  0000544E  00000001 USING  ORDINARY    00000000 00001000 FFFFFFF7   7 000          @R7,7
  27745  00005476  00000001 USING  ORDINARY    00005476 00001000 00000001   7 7C2   27855  $$$551B,7
  27871  000054C2  00000001 USING  ORDINARY    00000000 00001000 FFFFFFF7   7 000          @R7,7
  27916  000054EA  00000001 USING  ORDINARY    000054EA 00001000 00000001   7 852   27969  $$$559B,7
  27981  00005518  00000001 USING  ORDINARY    00000000 00001000 FFFFFFF7   7 000          @R7,7
  28026  00005540  00000001 USING  ORDINARY    00005540 00001000 00000001   7 000          $$$562B,7
  28049  00005548  00000001 USING  ORDINARY    00000000 00001000 FFFFFFF7   7 000          @R7,7
  28094  00005570  00000001 USING  ORDINARY    00005570 00001000 00000001   7 000          $$$565B,7
  28116  00005578  00000001 USING  ORDINARY    00000000 00001000 FFFFFFF7   7 000          @R7,7
  28161  000055A0  00000001 USING  ORDINARY    000055A0 00001000 00000001   7 000          $$$568B,7
  28197  000055AC  00000001 USING  ORDINARY    00000000 00001000 FFFFFFF7   7 000          @R7,7
  28242  000055D4  00000001 USING  ORDINARY    000055D4 00001000 00000001   7 000          $$$571B,7
  28278  000055E0  00000001 USING  ORDINARY    00000000 00001000 FFFFFFF7   7 000          @R7,7
  28323  00005608  00000001 USING  ORDINARY    00005608 00001000 00000001   7 000          $$$574B,7
  28359  00005614  00000001 USING  ORDINARY    00000000 00001000 FFFFFFF7   7 000          @R7,7
  28404  0000563C  00000001 USING  ORDINARY    0000563C 00001000 00000001   7 000          $$$577B,7
  28440  00005648  00000001 USING  ORDINARY    00000000 00001000 FFFFFFF7   7 000          @R7,7
1WGS      (WGS2193) (13:01) (15MAR04) Using Map                                                                             Page  246
  28485  00005670  00000001 USING  ORDINARY    00005670 00001000 00000001   7 000          $$$580B,7
  28501  00005674  00000001 USING  ORDINARY    00000000 00001000 FFFFFFF7   7 000          @R7,7
  28546  0000569C  00000001 USING  ORDINARY    0000569C 00001000 00000001   7 000          $$$583B,7
  28568  000056A2  00000001 USING  ORDINARY    00000000 00001000 FFFFFFF7   7 000          @R7,7
  28613  000056CA  00000001 USING  ORDINARY    000056CA 00001000 00000001   7 5B6   28666  $$$586B,7
  28678  000056F8  00000001 USING  ORDINARY    00000000 00001000 FFFFFFF7   7 000          @R7,7
  28723  00005720  00000001 USING  ORDINARY    00005720 00001000 00000001   7 56A   28776  $$$589B,7
  28788  0000574E  00000001 USING  ORDINARY    00000000 00001000 FFFFFFF7   7 000          @R7,7
  28833  00005776  00000001 USING  ORDINARY    00005776 00001000 00000001   7 51E   28886  $$$592B,7
  28898  000057A4  00000001 USING  ORDINARY    00000000 00001000 FFFFFFF7   7 000          @R7,7
  28943  000057CC  00000001 USING  ORDINARY    000057CC 00001000 00000001   7 577   28967  $$$595B,7
  28979  000057E0  00000001 USING  ORDINARY    00000000 00001000 FFFFFFF7   7 000          @R7,7
  29024  00005808  00000001 USING  ORDINARY    00005808 00001000 00000001   7 496   29048  $$$598B,7
  29060  0000581C  00000001 USING  ORDINARY    00000000 00001000 FFFFFFF7   7 000          @R7,7
  29105  00005844  00000001 USING  ORDINARY    00005844 00001000 00000001   7 50A   29129  $$$601B,7
  29141  00005858  00000001 USING  ORDINARY    00000000 00001000 FFFFFFF7   7 000          @R7,7
  29186  00005880  00000001 USING  ORDINARY    00005880 00001000 00000001   7 428   29210  $$$604B,7
  29222  00005894  00000001 USING  ORDINARY    00000000 00001000 FFFFFFF7   7 000          @R7,7
  29267  000058BC  00000001 USING  ORDINARY    000058BC 00001000 00000001   7 000          $$$607B,7
  29288  000058C0  00000001 USING  ORDINARY    00000000 00001000 FFFFFFF7   7 000          @R7,7
  29333  000058E8  00000001 USING  ORDINARY    000058E8 00001000 00000001   7 000          $$$610B,7
  29354  000058EC  00000001 USING  ORDINARY    00000000 00001000 FFFFFFF7   7 000          @R7,7
  29399  00005914  00000001 USING  ORDINARY    00005914 00001000 00000001   7 000          $$$613B,7
  29420  00005918  00000001 USING  ORDINARY    00000000 00001000 FFFFFFF7   7 000          @R7,7
  29465  00005940  00000001 USING  ORDINARY    00005940 00001000 00000001   7 000          $$$616B,7
  29486  00005944  00000001 USING  ORDINARY    00000000 00001000 FFFFFFF7   7 000          @R7,7
  29531  0000596C  00000001 USING  ORDINARY    0000596C 00001000 00000001   7 3EB   29556  $$$619B,7
  29572  00005980  00000001 USING  ORDINARY    00000000 00001000 FFFFFFF7   7 000          @R7,7
  29617  000059A8  00000001 USING  ORDINARY    000059A8 00001000 00000001   7 30A   29647  $$$622B,7
  29659  000059BC  00000001 USING  ORDINARY    00000000 00001000 FFFFFFF7   7 000          @R7,7
  29707  000059E4  00000001 USING  ORDINARY    000059E4 00001000 00000001   7 37A   30210  $$$625B,7
  29723  000059E4  00000001 USING  ORDINARY    00000000 00001000 FFFFFFED   2 01C   30041  NSCNCB,R2
  30220  00005BE4  00000001 USING  ORDINARY    00000000 00001000 FFFFFFF7   7 000          @R7,7
  30239  00005BF2  00000001 USING  ORDINARY    00000000 00001000 FFFFFFFC   2 000   33922  @R2,2
  30246  00005BF2  00000001 USING  ORDINARY    00000000 00001000 FFFFFFF8   6 000          @R6,6
  30253  00005BF2  00000001 USING  ORDINARY    00000000 00001000 FFFFFFF9   5 000          @R5,5
  30359  00005D9E  00000001 USING  ORDINARY    00005D9E 00001000 00000001   7 1C8   30507  $$$645B,7
  30377  00005DA2  00000001 USING  ORDINARY    00000000 00001000 FFFFFFE0   6 320   30995  FFINFO,R6
  30524  00005E52  00000001 USING  ORDINARY    00000000 00001000 FFFFFFF7   7 000          @R7,7
  30631  00005F1A  00000001 USING  ORDINARY    00005F1A 00001000 00000001   7 000          $$$650B,7
  30647  00005F1E  00000001 USING  ORDINARY    00000000 00001000 FFFFFFF7   7 000          @R7,7
  30692  00005F46  00000001 USING  ORDINARY    00005F46 00001000 00000001   7 000          $$$653B,7
  30708  00005F4A  00000001 USING  ORDINARY    00000000 00001000 FFFFFFF7   7 000          @R7,7
  30788  00005F82  00000001 USING  ORDINARY    00005F82 00001000 00000001   7 0B2   30992  $$$656B,7
  31019  0000601A  00000001 USING  ORDINARY    00000000 00001000 FFFFFFF7   7 000          @R7,7
  31038  00006028  00000001 USING  ORDINARY    00000000 00001000 FFFFFFF8   6 000          @R6,6
  31105  00006060  00000001 USING  ORDINARY    00006060 00001000 00000001   7 114   31409  $$$667B,7
  31123  00006064  00000001 USING  ORDINARY    00000000 00001000 FFFFFFE1   6 044   31357  WGSWA,R6
  31419  00006140  00000001 USING  ORDINARY    00000000 00001000 FFFFFFF7   7 000          @R7,7
  31438  0000614E  00000001 USING  ORDINARY    00000000 00001000 FFFFFFF8   6 000          @R6,6
  31540  000061B8  00000001 USING  ORDINARY    000061B8 00001000 00000001   7 074   31618  $$$683B,7
  31554  000061B8  00000001 USING  ORDINARY    FFFFFFD8 00001000 FFFFFFDE   8 038   31596  WGSWWA-(4+36),R8
  31567  000061BC  00000001 USING  ORDINARY    00000000 00001000 FFFFFFE1   6 058   31615  WGSWA,R6
  31627  000061FE  00000001 USING  ORDINARY    00000000 00001000 FFFFFFF6   8 000          @R8,8
  31632  000061FE  00000001 USING  ORDINARY    00000000 00001000 FFFFFFF7   7 000          @R7,7
  31651  0000620C  00000001 USING  ORDINARY    00000000 00001000 FFFFFFF8   6 000          @R6,6
  31720  0000624A  00000001 USING  ORDINARY    0000624A 00001000 00000001   7 0F6   32005  $$$686B,7
  31738  0000624E  00000001 USING  ORDINARY    00000000 00001000 FFFFFFE1   6 058   31987  WGSWA,R6
  31748  00006252  00000001 USING  ORDINARY    00000000 00001000 FFFFFFE0   5 001   31902  FFINFO,R5
1WGS      (WGS2193) (13:01) (15MAR04) Using Map                                                                             Page  247
  32020  00006302  00000001 USING  ORDINARY    00000000 00001000 FFFFFFF7   7 000          @R7,7
  32039  00006310  00000001 USING  ORDINARY    00000000 00001000 FFFFFFF8   6 000          @R6,6
  32046  00006310  00000001 USING  ORDINARY    00000000 00001000 FFFFFFF9   5 000          @R5,5
  32140  0000635E  00000001 USING  ORDINARY    0000635E 00001000 00000001   7 59A   32383  $$$695B,7
  32154  0000635E  00000001 USING  ORDINARY    FFFFFFD8 00001000 FFFFFFDD   8 02A   32373  CKACWA-(4+36),R8
  32166  00006362  00000001 USING  ORDINARY    00000000 00001000 FFFFFFE0   6 218   32211  FFINFO,R6
  32408  000063EA  00000001 USING  ORDINARY    00000000 00001000 FFFFFFF6   8 000          @R8,8
  32413  000063EA  00000001 USING  ORDINARY    00000000 00001000 FFFFFFF7   7 000          @R7,7
  32477  00006412  00000001 USING  ORDINARY    00006412 00001000 00000001   7 52A   32610  $$$709B,7
  32495  00006416  00000001 USING  ORDINARY    00000000 00001000 FFFFFFF8   6 000          @R6,6
  32498  00006416  00000001 USING  ORDINARY    00000000 00001000 FFFFFFE1   6 04C   32617  WGSWA,R6
  32631  000064B2  00000001 USING  ORDINARY    00000000 00001000 FFFFFFF7   7 000          @R7,7
  32650  000064C0  00000001 USING  ORDINARY    00000000 00001000 FFFFFFF8   6 000          @R6,6
  32707  000064DA  00000001 USING  ORDINARY    000064DA 00001000 00000001   7 462   32807  $$$716B,7
  32725  000064DE  00000001 USING  ORDINARY    00000000 00001000 FFFFFFE1   6 04C   33371  WGSWA,R6
  32847  00006562  00000001 USING  ORDINARY    00000000 00001000 FFFFFFF7   7 000          @R7,7
  32940  0000658A  00000001 USING  ORDINARY    0000658A 00001000 00000001   7 414   33378  $$$722B,7
  32954  0000658A  00000001 USING  ORDINARY    FFFFFFD8 00001000 FFFFFFDC   8 034   33380  WRFWA-(4+36),R8
  33390  00006712  00000001 USING  ORDINARY    00000000 00001000 FFFFFFF6   8 000          @R8,8
  33395  00006712  00000001 USING  ORDINARY    00000000 00001000 FFFFFFF7   7 000          @R7,7
  33414  00006720  00000001 USING  ORDINARY    00000000 00001000 FFFFFFF8   6 000          @R6,6
  33490  0000673A  00000001 USING  ORDINARY    0000673A 00001000 00000001   7 270   33959  $$$745B,7
  33504  0000673A  00000001 USING  ORDINARY    FFFFFFD8 00001000 FFFFFFDB   8 038   33964  WWFWA-(4+36),R8
  33517  0000673E  00000001 USING  ORDINARY    00000000 00001000 FFFFFFE1   6 038   33871  WGSWA,R6
  33978  000068C0  00000001 USING  ORDINARY    00000000 00001000 FFFFFFF6   8 000          @R8,8
  33983  000068C0  00000001 USING  ORDINARY    00000000 00001000 FFFFFFF7   7 000          @R7,7
  34002  000068CE  00000001 USING  ORDINARY    00000000 00001000 FFFFFFF8   6 000          @R6,6
  34081  000069CA  00000001 USING  ORDINARY    000069CA 00001000 00000001   7 D69   34319  $$$769B,7
  34333  00006AD8  00000001 USING  ORDINARY    00000000 00001000 FFFFFFF7   7 000          @R7,7
  34451  00006BA2  00000001 USING  ORDINARY    00006BA2 00001000 00000001   7 C04   34606  $$$778B,7
  34468  00006BA6  00000001 USING  ORDINARY    00000000 00001000 FFFFFFE0   6 218   34578  FFINFO,R6
  34624  00006C20  00000001 USING  ORDINARY    00000000 00001000 FFFFFFF7   7 000          @R7,7
  34643  00006C2E  00000001 USING  ORDINARY    00000000 00001000 FFFFFFF8   6 000          @R6,6
  34685  00006C48  00000001 USING  ORDINARY    00006C48 00001000 00000001   7 B6A   34878  $$$788B,7
  34702  00006C4C  00000001 USING  ORDINARY    00000000 00001000 FFFFFFE0   6 320   34850  FFINFO,R6
  34899  00006CD6  00000001 USING  ORDINARY    00000000 00001000 FFFFFFF7   7 000          @R7,7
  34918  00006CE4  00000001 USING  ORDINARY    00000000 00001000 FFFFFFF8   6 000          @R6,6
  34955  00006CFE  00000001 USING  ORDINARY    00006CFE 00001000 00000001   7 000          $$$801B,7
  34972  00006D02  00000001 USING  ORDINARY    00000000 00001000 FFFFFFE0   6 31C   34987  FFINFO,R6
  34998  00006D10  00000001 USING  ORDINARY    00000000 00001000 FFFFFFF7   7 000          @R7,7
  35017  00006D1E  00000001 USING  ORDINARY    00000000 00001000 FFFFFFF8   6 000          @R6,6
  35051  00006D38  00000001 USING  ORDINARY    00006D38 00001000 00000001   7 9E8   35087  $$$804B,7
  35102  00006D88  00000001 USING  ORDINARY    00000000 00001000 FFFFFFF7   7 000          @R7,7
  35160  00006DB0  00000001 USING  ORDINARY    00006DB0 00001000 00000001   7 972   35422  $$$807B,7
  35438  00006ECA  00000001 USING  ORDINARY    00000000 00001000 FFFFFFF7   7 000          @R7,7
  35490  00006EF2  00000001 USING  ORDINARY    00006EF2 00001000 00000001   7 877   35695  $$$817B,7
  35708  00006FDC  00000001 USING  ORDINARY    00000000 00001000 FFFFFFF7   7 000          @R7,7
  35759  00007004  00000001 USING  ORDINARY    00007004 00001000 00000001   7 784   35964  $$$825B,7
  35977  000070EE  00000001 USING  ORDINARY    00000000 00001000 FFFFFFF7   7 000          @R7,7
  36203  000072A6  00000001 USING  ORDINARY    000072A6 00001000 00000001   7 45A   36338  $$$833B,7
  36217  000072A6  00000001 USING  ORDINARY    FFFFFFD8 00001000 FFFFFFDA   8 02C   36315  WRTMWA-(4+36),R8
  36350  00007302  00000001 USING  ORDINARY    00000000 00001000 FFFFFFF6   8 000          @R8,8
  36355  00007302  00000001 USING  ORDINARY    00000000 00001000 FFFFFFF7   7 000          @R7,7
  36400  0000732A  00000001 USING  ORDINARY    0000732A 00001000 00000001   7 000          $$$838B,7
  36419  0000732C  00000001 USING  ORDINARY    00000000 00001000 FFFFFFF7   7 000          @R7,7
  36464  00007354  00000001 USING  ORDINARY    00007354 00001000 00000001   7 000          $$$841B,7
  36483  00007356  00000001 USING  ORDINARY    00000000 00001000 FFFFFFF7   7 000          @R7,7
  36536  0000737E  00000001 USING  ORDINARY    0000737E 00001000 00000001   7 419   36657  $$$844B,7
  36673  000073D6  00000001 USING  ORDINARY    00000000 00001000 FFFFFFF7   7 000          @R7,7
1WGS      (WGS2193) (13:01) (15MAR04) Using Map                                                                             Page  248
  36742  000073FE  00000001 USING  ORDINARY    000073FE 00001000 00000001   7 324   36924  $$$852B,7
  36940  000074DC  00000001 USING  ORDINARY    00000000 00001000 FFFFFFF7   7 000          @R7,7
  37033  0000757E  00000001 USING  ORDINARY    0000757E 00001000 00000001   7 19E   37061  $$$859B,7
  37073  00007592  00000001 USING  ORDINARY    00000000 00001000 FFFFFFF7   7 000          @R7,7
  37140  000075BA  00000001 USING  ORDINARY    000075BA 00001000 00000001   7 146   37201  $$$862B,7
  37154  000075BA  00000001 USING  ORDINARY    FFFFFFD8 00001000 FFFFFFD9   8 028   37169  WGEMSGWA-(4+36),R8
  37213  000075D8  00000001 USING  ORDINARY    00000000 00001000 FFFFFFF6   8 000          @R8,8
  37218  000075D8  00000001 USING  ORDINARY    00000000 00001000 FFFFFFF7   7 000          @R7,7
  37263  00007600  00000001 USING  ORDINARY    00007600 00001000 00000001   7 120   37299  $$$865B,7
  37314  00007650  00000001 USING  ORDINARY    00000000 00001000 FFFFFFF7   7 000          @R7,7
  37424  000077D2  00000001 USING  ORDINARY    000077D2 00001000 00000001   7 635   37759  $$$868B,7
  37442  000077D6  00000001 USING  ORDINARY    00000000 00001000 FFFFFFE1   6 008   37527  WGSWA,R6
  37538  00007822  00000001 USING  ORDINARY    00000000 00001000 FFFFFFE7   5 08C   37633  UPATH,R5
  37779  000078BE  00000001 USING  ORDINARY    00000000 00001000 FFFFFFF7   7 000          @R7,7
  37798  000078CC  00000001 USING  ORDINARY    00000000 00001000 FFFFFFF8   6 000          @R6,6
  37805  000078CC  00000001 USING  ORDINARY    00000000 00001000 FFFFFFF9   5 000          @R5,5
  37855  000078E6  00000001 USING  ORDINARY    000078E6 00001000 00000001   7 528   38344  $$$883B,7
  37873  000078EA  00000001 USING  ORDINARY    00000000 00001000 FFFFFFE1   6 008   38041  WGSWA,R6
  38051  00007984  00000001 USING  ORDINARY    00000000 00001000 FFFFFFE7   2 074   38057  UPATH,R2
  38064  00007988  00000001 USING  ORDINARY    00000000 00001000 FFFFFFFC   2 001   43891  @R2,2
  38173  000079C6  00000001 USING  ORDINARY    00000000 00001000 FFFFFFE9  15 062   38218  JCB,R15
  38230  000079E6  00000001 USING  ORDINARY    00000000 00001000 FFFFFFEF  15 001   43735  @R15,15
  38366  00007A3E  00000001 USING  ORDINARY    00000000 00001000 FFFFFFF7   7 000          @R7,7
  38385  00007A4C  00000001 USING  ORDINARY    00000000 00001000 FFFFFFF8   6 000          @R6,6
  38433  00007A66  00000001 USING  ORDINARY    00007A66 00001000 00000001   7 336   38476  $$$899B,7
  38451  00007A6A  00000001 USING  ORDINARY    00000000 00001000 FFFFFFE1   6 008   38484  WGSWA,R6
  38500  00007A86  00000001 USING  ORDINARY    00000000 00001000 FFFFFFF7   7 000          @R7,7
  38519  00007A94  00000001 USING  ORDINARY    00000000 00001000 FFFFFFF8   6 000          @R6,6
  38560  00007AAE  00000001 USING  ORDINARY    00007AAE 00001000 00000001   7 1CE   38610  $$$903B,7
  38578  00007AB2  00000001 USING  ORDINARY    00000000 00001000 FFFFFFE1   6 008   38593  WGSWA,R6
  38632  00007AC6  00000001 USING  ORDINARY    00000000 00001000 FFFFFFF7   7 000          @R7,7
  38651  00007AD4  00000001 USING  ORDINARY    00000000 00001000 FFFFFFF8   6 000          @R6,6
  38697  00007AEE  00000001 USING  ORDINARY    00007AEE 00001000 00000001   7 343   38897  $$$908B,7
  38715  00007AF2  00000001 USING  ORDINARY    00000000 00001000 FFFFFFE1   6 008   38766  WGSWA,R6
  38728  00007AF4  00000001 USING  ORDINARY    00000000 00001000 FFFFFFE6   5 000   38896  SEGCB,R5
  38924  00007B6C  00000001 USING  ORDINARY    00000000 00001000 FFFFFFF9   5 000          @R5,5
  38929  00007B6C  00000001 USING  ORDINARY    00000000 00001000 FFFFFFF7   7 000          @R7,7
  38948  00007B7A  00000001 USING  ORDINARY    00000000 00001000 FFFFFFF8   6 000          @R6,6
  39020  00007B94  00000001 USING  ORDINARY    00007B94 00001000 00000001   7 220   39121  $$$916B,7
  39034  00007B94  00000001 USING  ORDINARY    FFFFFFD8 00001000 FFFFFFD8   8 028   39040  WSEWA-(4+36),R8
  39132  00007BE0  00000001 USING  ORDINARY    00000000 00001000 FFFFFFF6   8 000          @R8,8
  39137  00007BE0  00000001 USING  ORDINARY    00000000 00001000 FFFFFFF7   7 000          @R7,7
  39186  00007C08  00000001 USING  ORDINARY    00007C08 00001000 00000001   7 25E   39299  $$$922B,7
  39203  00007C0C  00000001 USING  ORDINARY    00000000 00001000 FFFFFFE0   6 218   39279  FFINFO,R6
  39310  00007C6E  00000001 USING  ORDINARY    00000000 00001000 FFFFFFF7   7 000          @R7,7
  39329  00007C7C  00000001 USING  ORDINARY    00000000 00001000 FFFFFFF8   6 000          @R6,6
  39439  00007E86  00000001 USING  ORDINARY    00007E86 00001000 00000001   7 28E   39575  $$$931B,7
  39586  00007EE4  00000001 USING  ORDINARY    00000000 00001000 FFFFFFF7   7 000          @R7,7
  39675  00007F0C  00000001 USING  ORDINARY    00007F0C 00001000 00000001   7 20A   39943  $$$940B,7
  39689  00007F0C  00000001 USING  ORDINARY    FFFFFFD8 00001000 FFFFFFD7   8 028   39880  GTLVWA-(4+36),R8
  39954  00007FB0  00000001 USING  ORDINARY    00000000 00001000 FFFFFFF6   8 000          @R8,8
  39959  00007FB0  00000001 USING  ORDINARY    00000000 00001000 FFFFFFF7   7 000          @R7,7
  40036  00007FD8  00000001 USING  ORDINARY    00007FD8 00001000 00000001   7 138   40458  $$$956B,7
  40050  00007FD8  00000001 USING  ORDINARY    FFFFFFD8 00001000 FFFFFFD6   8 028   40448  CHVWA-(4+36),R8
  40468  000080D0  00000001 USING  ORDINARY    00000000 00001000 FFFFFFF6   8 000          @R8,8
  40473  000080D0  00000001 USING  ORDINARY    00000000 00001000 FFFFFFF7   7 000          @R7,7
  40562  0000813A  00000001 USING  ORDINARY    0000813A 00001000 00000001   7 206   40674  $$$979B,7
  40698  00008182  00000001 USING  ORDINARY    00000000 00001000 FFFFFFF7   7 000          @R7,7
  40762  000081AA  00000001 USING  ORDINARY    000081AA 00001000 00000001   7 1A2   40934  $$$989B,7
1WGS      (WGS2193) (13:01) (15MAR04) Using Map                                                                             Page  249
  40962  00008214  00000001 USING  ORDINARY    00000000 00001000 FFFFFFF7   7 000          @R7,7
  41025  0000823C  00000001 USING  ORDINARY    0000823C 00001000 00000001   7 10C   41204  $$$1003B,7
  41228  000082A4  00000001 USING  ORDINARY    00000000 00001000 FFFFFFF7   7 000          @R7,7
  41301  000082CC  00000001 USING  ORDINARY    000082CC 00001000 00000001   7 082   41456  $$$1016B,7
  41484  0000832C  00000001 USING  ORDINARY    00000000 00001000 FFFFFFF7   7 000          @R7,7
  41843  0000836E  00000001 USING  ORDINARY    0000836E 00001000 00000001   7 30E   42458  $$$1043B,7
  41857  0000836E  00000001 USING  ORDINARY    FFFFFFD8 00001000 FFFFFFD3   8 328   42173  WNWA-(4+36),R8
  41880  00008388  00000001 USING  ORDINARY    00000000 00001000 FFFFFFE0   6 29C   42459  FFINFO,R6
  41890  0000838C  00000001 USING  ORDINARY    00000000 00001000 FFFFFFD5   5 1D5   42443  FILPB,R5
  42477  00008578  00000001 USING  ORDINARY    00000000 00001000 FFFFFFF6   8 000          @R8,8
  42482  00008578  00000001 USING  ORDINARY    00000000 00001000 FFFFFFF7   7 000          @R7,7
  42502  00008586  00000001 USING  ORDINARY    00000000 00001000 FFFFFFF8   6 00A   47922  @R6,6
  42509  00008586  00000001 USING  ORDINARY    00000000 00001000 FFFFFFF9   5 000          @R5,5
  42594  0000861A  00000001 USING  ORDINARY    0000861A 00001000 00000001   7 04A   42603  $$$1072B,7
  42614  00008622  00000001 USING  ORDINARY    00000000 00001000 FFFFFFF7   7 000          @R7,7
  42826  0000869C  00000001 USING  ORDINARY    0000869C 00001000 00000001   7 D84   46788  $$$1083B,7
  42840  0000869C  00000001 USING  ORDINARY    FFFFFFD8 00001000 FFFFFFD2   8 074   46685  BDSNWA-(4+36),R8
  42854  0000869E  00000001 USING  ORDINARY    00000000 00001000 FFFFFFD5   3 1D8   46794  FILPB,R3
  44838  00008C1C  00000001 USING  ORDINARY    00000000 00001000 FFFFFFD4   4 039   44875  XFILPB,R4
  44882  00008C46  00000001 USING  ORDINARY    00000000 00001000 FFFFFFFA   4 000          @R4,4
  45002  00008C98  00000001 USING  ORDINARY    00000000 00001000 FFFFFFD4   4 039   45062  XFILPB,R4
  45069  00008CDE  00000001 USING  ORDINARY    00000000 00001000 FFFFFFFA   4 000          @R4,4
  45257  00008D6A  00000001 USING  ORDINARY    00000000 00001000 FFFFFFD4   4 039   45314  XFILPB,R4
  45325  00008DAE  00000001 USING  ORDINARY    00000000 00001000 FFFFFFFA   4 000          @R4,4
  46583  000090AC  00000001 USING  ORDINARY    00000000 00001000 FFFFFFE6   5 020   46666  SEGCB,R5
  46673  000090E4  00000001 USING  ORDINARY    00000000 00001000 FFFFFFF9   5 000          @R5,5
  46811  00009148  00000001 USING  ORDINARY    00000000 00001000 FFFFFFFB   3 000          @R3,3
  46816  00009148  00000001 USING  ORDINARY    00000000 00001000 FFFFFFF6   8 000          @R8,8
  46821  00009148  00000001 USING  ORDINARY    00000000 00001000 FFFFFFF7   7 000          @R7,7
  46975  00009440  00000001 USING  ORDINARY    00009440 00001000 00000001   7 413   47974  $$$1200B,7
  46989  00009440  00000001 USING  ORDINARY    FFFFFFD8 00001000 FFFFFFD1   8 02C   47935  CDSNWA-(4+36),R8
  47003  00009442  00000001 USING  ORDINARY    00000000 00001000 FFFFFFD5   3 000   47865  FILPB,R3
  47097  00009488  00000001 DROP                                            2              2
  47101  0000948E  00000001 USING  ORDINARY    00000000 00001000 FFFFFFFC   2 000   47327  @R2,2
  47396  0000957E  00000001 DROP                                            2              2
  47400  00009584  00000001 USING  ORDINARY    00000000 00001000 FFFFFFFC   2 000          @R2,2
  47618  00009618  00000001 DROP                                            2              2
  47622  0000961E  00000001 USING  ORDINARY    00000000 00001000 FFFFFFFC   2 000          @R2,2
  47945  0000970C  00000001 USING  ORDINARY    00000000 00001000 FFFFFFE6  15 020   47962  SEGCB,R15
  47969  00009714  00000001 USING  ORDINARY    00000000 00001000 FFFFFFEF  15 000          @R15,15
  47990  00009722  00000001 USING  ORDINARY    00000000 00001000 FFFFFFFB   3 000          @R3,3
  47995  00009722  00000001 USING  ORDINARY    00000000 00001000 FFFFFFF6   8 000          @R8,8
  48000  00009722  00000001 USING  ORDINARY    00000000 00001000 FFFFFFF7   7 000          @R7,7

1         (WGS2193) (13:01) (15MAR04) General Purpose Register Cross Reference                                              Page  250
- Register  References (M=modified, B=branch, U=USING, D=DROP, N=index)                      HLASM R4.0  2004/03/15 13.01
0    0(0)      982U   983D  2098   2166M  2166   2167M  7931   7962M  7990M  7996   7998M  8024M  8061M  8124   8224M
              8296   8426M  8452M  8479M  8498M  8530M  8575M  8620M  8665M  8703M  8726M  8785M  8785   8812M  8871M
              8871   8953M  8980M  9064M  9082M  9105M  9132M  9171M  9200M  9217M  9246M  9294M  9324M  9391M  9429M
              9467M  9505M  9554M  9558   9569M  9569   9578   9579   9671M  9671   9673M  9679M  9695M  9695   9771M
              9864M  9934M  9935   9955M 10095M 10095  10153M 10249  10324M 10351M 10369M 10387M 10419M 10464M 10509M
             10554M 10592M 10670M 10697M 10765M 10803M 10841M 10890M 10894  10905M 10905  10914  10915  11048M 11048
             11098  11155  11184M 11215  11226M 11226  11235  11236  11356M 11446  11493M 11520M 11603M 11603  11654
             11698  11727M 11758  11769M 11769  11778  11779  11890M 11998  12051M 12057  12061M 12064  12110M 12110
             12142M 12155M 12157M 12206M 12281  12335M 12373M 12400M 12419M 12508M 12526M 12549M 12576M 12641M 12679M
             12717M 12766M 12770  12781M 12781  12790  12791  12910M 12910  12960  13004  13040M 13062M 13093  13104M
             13104  13113  13114  13225M 13438  13492M 13532M 13559M 13626M 13644M 13667M 13694M 13716M 13743M 13762M
             13823M 13861M 13910M 13914  13925M 13925  13934  13935  14054M 14054  14104  14148  14172M 14194M 14225
             14236M 14236  14245  14246  14357M 14477  14504  14514M 14514  14520M 14527  14542  14545  14554M 14554
             14618M 14633M 14681  14715M 14715  14721  14751M 14786M 14843  14898M 14946M 14973M 14992M 15069M 15087M
             15110M 15137M 15177M 15204M 15243M 15270M 15309M 15336M 15373M 15418M 15478M 15510M 15546M 15595M 15599
             15610M 15610  15619  15620  15739M 15739  15789  15835  15855  15872  15877M 15895M 15936  15956  15959M
             16003  16007M 16009M 16031M 16086  16106  16109M 16127M 16135M 16190  16250  16261M 16301M 16303M 16343
             16389M 16391M 16420M 16451  16462M 16462  16471  16472  16637M 16794  16887M 16914M 16954M 16981M 17021M
             17048M 17088M 17115M 17147M 17173M 17244M 17276M 17320M 17352M 17401M 17405  17416M 17416  17425  17426
             17556M 17556  17606  17652  17672  17689  17694M 17712M 17753  17773  17776M 17820  17824M 17826M 17848M
             17903  17923  17926M 17944M 17952M 18007  18067  18078M 18118M 18120M 18160  18206M 18208M 18237M 18268
             18279M 18279  18288  18289  18454M 18599  18889M 18944  19022M 19049M 19089M 19116M 19156M 19183M 19255M
             19285M 19316M 19361M 19365  19376M 19376  19385  19386  19505M 19505  19555  19601  19621  19638  19643M
             19661M 19702  19722  19725M 19788  19792M 19794M 19816M 19875  19895  19898M 19935M 19947M 20002  20062
             20073M 20113M 20115M 20155  20201M 20203M 20232M 20263  20274M 20274  20283  20284  20449M 20591  20645M
             20687M 20714M 20733M 20805M 20823M 20846M 20873M 20938M 20976M 21014M 21075M 21079  21090M 21090  21099
             21100  21179M 21180M 21180  21223M 21224M 21224  21338M 21338  21356M 21372M 21464M 21464  21482M 21498M
             21549M 21549  21567M 21583M 21653M 21746M 21816M 21817  21822M 21844M 21876M 21921M 21966M 21998M 22020M
             22037M 22037  22081M 22097M 22097  22263M 22295M 22318M 22318  22415M 22415  22465  22509  22545M 22567M
             22598  22609M 22609  22618  22619  22730M 23161  23187  23216M 23255M 23282M 23301M 23384M 23402M 23425M
             23452M 23521M 23559M 23607M 23611  23622M 23622  23631  23632  23710M 23741M 23785M 23817M 23877M 23877
             23927  23971  24007M 24029M 24060  24071M 24071  24080  24081  24192M 24341  24368  24374M 24389M 24431M
             24451  24478  24484M 24499M 24541M 24588  24620  24635M 24657  24689  24704M 24726  24758  24773M 24795
             24827  24842M 24864  24896  24911M 24933  24965  24980M 25002  25034  25049M 25071  25103  25118M 25140
             25172  25187M 26147  26177M 26208M 26228  26255  26261M 26276M 26318M 26338  26365  26371M 26386M 26428M
             26448  26475  26481M 26496M 26538M 26558  26585  26591M 26606M 26648M 26668  26698M 26729M 26749  26780M
             26811M 26831  26867M 26894M 26914  26946M 26947  26952M 26983M 27003  27035M 27036  27041M 27072M 27092
             27118  27123M 27140M 27140  27175M 27195  27266M 27333M 27400M 27467M 27519M 27576M 27600M 27620  27647
             27652M 27669M 27669  27708M 27728  27755  27771  27815M 27817M 27879M 27899  27926  27932M 27947M 27989M
             28009  28042  28057M 28077  28109  28124M 28144  28190  28205M 28225  28271  28286M 28306  28352  28367M
             28387  28433  28448M 28468  28494  28509M 28529  28576M 28596  28623  28629M 28644M 28686M 28706  28733
             28739M 28754M 28796M 28816  28843  28849M 28864M 28906M 28926  28956M 28987M 29007  29037M 29068M 29088
             29118M 29149M 29169  29199M 29230M 29250  29296M 29316  29362M 29382  29428M 29448  29494M 29514  29545M
             29580M 29600  29636M 29667M 29690  29763M 29765M 29785  29798M 29798  29807  29808  29809  29844M 29844
             29970M 29970  29979  29980  29981  30020M 30020  30108M 30108  30117  30118  30119  30158M 30158  30202M
             30228M 30342  30426M 30430  30441M 30441  30450  30451  30532M 30614  30655M 30675  30716M 30771  30803M
             30819M 30819  30851M 30945M 30973M 30989M 30989  31027M 31088  31149  31215M 31216  31228M 31229M 31238M
             31238  31250M 31267  31301M 31364M 31387M 31398  31427M 31522  31577M 31578  31581  31585M 31596M 31640M
             31703  31816M 31816  31843M 31843  31920M 31920  31947M 31947  31979M 31979  32028M 32122  32211M 32225
             32421M 32460  32527M 32533M 32539  32555M 32580M 32611M 32620  32639M 32690  32756M 32784M 32790  32806
             32806  32836  32855M 32922  32989M 33108M 33150M 33221M 33263M 33375M 33382  33403M 33472  33520  33552
             33554  33556  33576  33664M 33716M 33847M 33848M 33854M 33855M 33860M 33879M 33901M 33945M 33964M 33970
             33991M 34064  34128  34176  34200M 34226M 34257  34268M 34268  34277  34278  34341M 34434  34478M 34478
             34487  34523M 34523  34533  34545M 34550  34551  34632M 34668  34712M 34712  34721  34757M 34757  34765
             34777M 34782  34783  34784  34823  34907M 34938  35006M 35034  35067M 35067  35076  35077  35078  35110M
1         (WGS2193) (13:01) (15MAR04) General Purpose Register Cross Reference                                              Page  251
             35143  35204  35219M 35298M 35349M 35380  35391M 35391  35400  35401  35431  35446M 35473  35536  35584
             35612M 35621M 35652  35663M 35663  35672  35673  35716M 35742  35805  35853  35881M 35890M 35921  35932M
             35932  35941  35942  35985M 36185  36238M 36244  36248M 36251  36297M 36297  36314M 36363M 36383  36427M
             36447  36491M 36519  36582  36630  36658M 36681M 36725  36765  36785M 36824  36835M 36835  36844  36845
             36917M 36948M 37016  37058M 37081M 37122  37174M 37226M 37246  37279M 37279  37288  37289  37290  37322M
             37407  37467  37480M 37480  37662  37684M 37702  37724M 37787M 37838  37901M 37917M 37917  37950  37962M
             37981M 37998  38031M 38077M 38096M 38144  38196M 38250  38272M 38342M 38342  38359  38374M 38416  38508M
             38543  38640M 38680  38763  38786M 38795M 38852M 38878M 38880  38905M 38905  38908  38937M 39002  39041M
             39062M 39083  39107M 39145M 39169  39296M 39318M 39422  39459M 39459  39473  39487  39594M 39657  39704M
             39704  39718  39754M 39754  39799M 39849M 39940M 39967M 40018  40059  40077  40137  40481M 40545  40574
             40588M 40588  40679M 40680M 40682  40706M 40745  40774  40788M 40788  40939M 40940M 40942  40970M 41008
             41037  41051M 41051  41156M 41158M 41160M 41184  41188M 41188  41210  41214M 41214  41221  41236M 41284
             41312  41355  41369M 41369  41466M 41477  41492M 41825  42058M 42062  42073M 42073  42082  42083  42136M
             42490M 42577  42622M 42808  42915M 42972M 42987M 43056M 43056  43099M 43125M 43139M 43186M 43212M 43226M
             43273M 43299M 43319M 43368M 43386  43427  43465M 43491M 43506M 43553M 43563  43606M 43608M 43624  43646M
             43652  43768M 43783M 43897  43938M 43950M 43950  43977M 43992M 43992  44003M 44016  44037M 44052M 44071
             44172M 44187M 44219M 44490M 44505M 44739M 44754M 44864M 44866M 44922M 44937M 45028M 45030M 45149M 45164M
             45212M 45227M 45283M 45285M 45488M 45617M 45735M 45775M 45802M 45832M 45863M 45899M 45926M 45956M 45987M
             46023M 46049M 46098M 46128M 46159M 46195M 46221M 46251M 46282M 46318M 46344M 46392M 46416M 46466M 46503M
             46518M 46537M 46537  46552M 46619M 46636M 46666M 46679  46829M 46957  47033M 47042  47058M 47105M 47105
             47106M 47157M 47172M 47187M 47235M 47250M 47265M 47348M 47363M 47378M 47404M 47404  47405M 47494  47554M
             47569M 47584M 47626M 47626  47627M 47639  47661M 47676M 47702M 47760  47782M 47797M 47823M 47870M 47885M
             47900M 47962M 47972  48008M
     1(1)      978U  2098   2161M  2162M  2168M  7931   7967   7968   7995   7997M  8044M  8046   8061M  8124   8224M
              8296   8387   8425M  8451M  8474M  8497M  8529M  8574M  8619M  8664M  8702M  8725M  8739M  8756M  8811M
              8825M  8842M  8952M  8975M  9059M  9081M  9104M  9127M  9170M  9193M  9216M  9239M  9293M  9317M  9390M
              9428M  9466M  9504M  9549M  9557   9565M  9578N  9579N  9581N  9672M  9673M  9674   9678M  9696M  9770M
              9863M  9954M 10153M 10249  10284  10323M 10346M 10368M 10386M 10418M 10463M 10508M 10553M 10591M 10669M
             10692M 10764M 10802M 10840M 10885M 10893  10901M 10914N 10915N 10917N 11183M 11183N 11214  11222M 11235N
             11236N 11238N 11356M 11446  11481  11492M 11515M 11726M 11726N 11757  11765M 11778N 11779N 11781N 11890M
             11998  12046M 12056  12127M 12156M 12158M 12158  12206M 12281  12334M 12360  12372M 12395M 12418M 12503M
             12525M 12548M 12571M 12640M 12678M 12716M 12761M 12769  12777M 12790N 12791N 12793N 13039M 13061M 13061N
             13092  13100M 13113N 13114N 13116N 13225M 13438  13491M 13517  13531M 13554M 13621M 13643M 13666M 13689M
             13715M 13738M 13761M 13822M 13860M 13905M 13913  13921M 13934N 13935N 13937N 14171M 14193M 14193N 14224
             14232M 14245N 14246N 14248N 14357M 14477  14504  14521M 14618M 14633M 14681  14722  14744M 14745M 14746N
             14786M 14843  14869  14897M 14923  14945M 14968M 14991M 15064M 15086M 15109M 15132M 15176M 15199M 15242M
             15265M 15308M 15331M 15372M 15417M 15477M 15509M 15545M 15590M 15598  15606M 15619N 15620N 15622N 15855
             15877M 15895M 15956  15958M 15999M 16000M 16000  16001  16002M 16003N 16007M 16008M 16031M 16106  16108M
             16127M 16135M 16260M 16304M 16392M 16419M 16419N 16450  16458M 16471N 16472N 16474N 16637M 16794  16820
             16830  16886M 16909M 16953M 16976M 17020M 17043M 17087M 17110M 17146M 17172M 17243M 17275M 17319M 17351M
             17396M 17404  17412M 17425N 17426N 17428N 17672  17694M 17712M 17773  17775M 17816M 17817M 17817  17818
             17819M 17820N 17824M 17825M 17848M 17923  17925M 17944M 17952M 18077M 18121M 18209M 18236M 18236N 18267
             18275M 18288N 18289N 18291N 18454M 18599  18634U 18873U 18889M 18944  18970  18980  19021M 19044M 19088M
             19111M 19155M 19178M 19254M 19284M 19315M 19356M 19364  19372M 19385N 19386N 19388N 19621  19643M 19661M
             19722  19724M 19784M 19785M 19785  19786  19787M 19788N 19792M 19793M 19816M 19895  19897M 19935M 19947M
             20072M 20116M 20204M 20231M 20231N 20262  20270M 20283N 20284N 20286N 20449M 20591  20644M 20670  20686M
             20709M 20732M 20800M 20822M 20845M 20868M 20937M 20975M 21013M 21070M 21078  21086M 21099N 21100N 21102N
             21334M 21355M 21371M 21460M 21481M 21497M 21545M 21566M 21582M 21652M 21745M 21821M 21843M 21875M 21920M
             21965M 21997M 22019M 22033M 22080M 22102M 22132M 22133M 22133  22160M 22163  22175M 22182  22194M 22214M
             22235  22242  22262M 22294M 22314M 22544M 22566M 22566N 22597  22605M 22618N 22619N 22621N 22730M 23161
             23215M 23241  23254M 23277M 23300M 23379M 23401M 23424M 23447M 23520M 23558M 23602M 23610  23618M 23631N
             23632N 23634N 23709M 23740M 23784M 23816M 24006M 24028M 24028N 24059  24067M 24080N 24081N 24083N 24192M
             24341  24368  24373M 24389M 24431M 24451  24478  24483M 24499M 24541M 24588  24614M 24635M 24657  24683M
             24704M 24726  24752M 24773M 24795  24821M 24842M 24864  24890M 24911M 24933  24959M 24980M 25002  25028M
             25049M 25071  25097M 25118M 25140  25166M 25187M 26147  26176M 26208M 26228  26255  26260M 26276M 26318M
             26338  26365  26370M 26386M 26428M 26448  26475  26480M 26496M 26538M 26558  26585  26590M 26606M 26648M
             26668  26697M 26729M 26749  26779M 26811M 26831  26866M 26894M 26914  26951M 26983M 27003  27040M 27072M
             27092  27122M 27136M 27175M 27195  27223M 27224M 27224N 27265M 27332M 27399M 27466M 27518M 27575M 27600M
             27620  27651M 27665M 27708M 27728  27754  27813M 27879M 27899  27926  27931M 27947M 27989M 28009  28057M
1         (WGS2193) (13:01) (15MAR04) General Purpose Register Cross Reference                                              Page  252
             28077  28124M 28144  28205M 28225  28286M 28306  28367M 28387  28448M 28468  28509M 28529  28576M 28596
             28623  28628M 28644M 28686M 28706  28733  28738M 28754M 28796M 28816  28843  28848M 28864M 28906M 28926
             28955M 28987M 29007  29036M 29068M 29088  29117M 29149M 29169  29198M 29230M 29250  29296M 29316  29362M
             29382  29428M 29448  29494M 29514  29544M 29580M 29600  29635M 29667M 29690  29761M 29784  29794M 29807N
             29808N 29809N 29855M 29856M 29856N 29966M 29979N 29980N 29981N 30104M 30117N 30118N 30119N 30201M 30228M
             30342  30421M 30429  30437M 30450N 30451N 30453N 30532M 30614  30655M 30675  30716M 30771  30804M 30849M
             30906M 30944M 30968M 31027M 31088  31148  31215  31217M 31217N 31218  31219  31227M 31228N 31249M 31300M
             31363M 31386M 31398  31427M 31522  31584M 31595M 31640M 31703  32028M 32122  32206M 32421M 32460  32502
             32526M 32539  32541M 32542  32554M 32554N 32579M 32611M 32620  32639M 32690  32729  32755M 32836  32855M
             32922  32964  32988M 33105M 33106M 33107M 33149M 33219M 33220M 33262M 33374M 33382  33403M 33472  33521
             33553  33575  33661M 33662M 33663M 33721M 33722M 33748M 33783M 33849M 33850M 33854M 33856M 33860M 33877M
             33878M 33906M 33907M 33944M 33970  33991M 34064  34199M 34225M 34225N 34256  34264M 34277N 34278N 34280N
             34341M 34434  34474M 34487N 34632M 34668  34708M 34721N 34907M 34938  35006M 35034  35063M 35076N 35077N
             35078N 35110M 35143  35218M 35297M 35348M 35348N 35379  35387M 35400N 35401N 35403N 35431  35446M 35473
             35611M 35620M 35620N 35651  35659M 35672N 35673N 35675N 35716M 35742  35880M 35889M 35889N 35920  35928M
             35941N 35942N 35944N 35985M 36185  36233M 36243  36315M 36363M 36383  36427M 36447  36491M 36519  36657M
             36681M 36725  36784M 36823  36831M 36844N 36845N 36847N 36916M 36948M 37016  37053M 37081M 37122  37169M
             37226M 37246  37275M 37288N 37289N 37290N 37322M 37407  37467  37527  37530  37632M 37683M 37723M 37787M
             37838  37900M 37950  37969M 37981M 37998  38084M 38096M 38195M 38271M 38359  38374M 38416  38508M 38543
             38640M 38680  38785M 38794M 38859M 38937M 39002  39040M 39061M 39106M 39145M 39169  39207M 39287M 39288M
             39290M 39291M 39292  39295M 39318M 39422  39488  39514  39594M 39657  39794M 39847M 39880M 39890  39939
             39967M 40018  40058  40448M 40481M 40545  40572  40573  40647  40680  40706M 40745  40772  40773  40907
             40940  40970M 41008  41035  41036  41110  41161M 41164M 41184M 41210M 41221  41236M 41284  41351M 41354
             41428  41477  41492M 41825  41872  42053M 42061  42069M 42082N 42083N 42085N 42131M 42151M 42490M 42577
             42622M 42808  42844  42910M 42967M 42986M 43098M 43120M 43138M 43185M 43207M 43225M 43272M 43294M 43318M
             43363M 43464M 43486M 43505M 43548M 43562  43604M 43639M 43651  43763M 43782M 43933M 43975M 43998  44001M
             44032M 44051M 44171M 44186M 44214M 44485M 44504M 44734M 44753M 44865M 44866M 44868M 44917M 44936M 45029M
             45030M 45054M 45144M 45163M 45207M 45226M 45284M 45285M 45287M 45483M 45612M 45730M 45774M 45797M 45827M
             45858M 45898M 45921M 45951M 45982M 46022M 46044M 46093M 46123M 46154M 46194M 46216M 46246M 46277M 46317M
             46339M 46387M 46415M 46461M 46498M 46517M 46533M 46551M 46614M 46635M 46661M 46679  46829M 46957  46993
             47028M 47041  47057M 47152M 47171M 47186M 47230M 47249M 47264M 47343M 47362M 47377M 47549M 47568M 47583M
             47654M 47675M 47697M 47775M 47796M 47818M 47865M 47884M 47899M 47957M 47972  48008M
     2(2)      974U  2098   7931   7961M  7985   8061M  8124   8224M  8296  10153M 10249  11356M 11446  11890M 11998
             12206M 12281  13225M 13438  14357M 14477  14541M 14585N 14633M 14681  14746M 14751  14786M 14843  15694M
             15704U 15722U 16592M 16602U 16621U 16637M 16794  17500M 17510U 17528U 18409M 18419U 18438U 18454M 18599
             18666U 18840U 18889M 18944  19460M 19470U 19488U 19726M 19899M 20404M 20414U 20433U 20449M 20591  22730M
             23161  24192M 24341  24431M 24451  24541M 24588  24635M 24657  24704M 24726  24773M 24795  24842M 24864
             24911M 24933  24980M 25002  25049M 25071  25118M 25140  25187M 26147  26208M 26228  26318M 26338  26428M
             26448  26538M 26558  26648M 26668  26729M 26749  26811M 26831  26894M 26914  26983M 27003  27072M 27092
             27175M 27195  27600M 27620  27708M 27728  27879M 27899  27989M 28009  28057M 28077  28124M 28144  28205M
             28225  28286M 28306  28367M 28387  28448M 28468  28509M 28529  28576M 28596  28686M 28706  28796M 28816
             28906M 28926  28987M 29007  29068M 29088  29149M 29169  29230M 29250  29296M 29316  29362M 29382  29428M
             29448  29494M 29514  29580M 29600  29667M 29690  29723U 30204M 30228M 30239U 30342  30532M 30614  30655M
             30675  30716M 30771  30808M 30808  30842M 30866M 30866  31027M 31088  31256M 31257M 31267  31398  31427M
             31522  31586  31640M 31703  32028M 32122  32421M 32460  32502M 32535M 32586M 32602M 32603M 32604  32620
             32639M 32690  32729M 32786M 32789M 32790M 32791  32792M 32793N 32822N 32831M 32832M 32833  32836  32855M
             32922  32999M 33003M 33320M 33321M 33380M 33382  33403M 33472  33522  33551M 33555M 33573M 33629M 33745M
             33747M 33851M 33854M 33857M 33860M 33908M 33909M 33991M 34064  34341M 34434  34632M 34668  34907M 34938
             35006M 35034  35110M 35143  35446M 35473  35716M 35742  35985M 36185  36363M 36383  36427M 36447  36491M
             36519  36681M 36725  36948M 37016  37081M 37122  37226M 37246  37322M 37407  37467  37787M 37838  37950
             37981M 37998  38041M 38051U 38057M 38064U 38070  38096M 38374M 38416  38508M 38543  38640M 38680  38763M
             38830M 38845  38878  38937M 39002  39145M 39169  39209M 39218M 39218  39226M 39228  39243M 39259M 39262M
             39264  39279M 39284M 39285  39318M 39422  39487M 39488M 39490M 39514  39571M 39594M 39657  39743M 39797M
             39844  39890  39917  39967M 40018  40056M 40061M 40146M 40183M 40220M 40257M 40329M 40401M 40481M 40545
             40572M 40620  40706M 40745  40772M 40820  40847M 40970M 41008  41035M 41083  41236M 41284  41351  41401
             41492M 41825  42152M 42225M 42270  42278M 42289M 42356  42395  42410M 42411M 42415M 42455M 42490M 42577
             42622M 42808  42867  43660M 43661M 43663M 43683M 43732M 43852M 45289M 46475M 46476M 46533  46829M 46957
             47097D 47099M 47099  47100M 47101U 47106N 47314M 47316M 47396D 47398M 47398  47399M 47400U 47405N 47419
             47433  47618D 47620M 47620  47621M 47622U 47627N 48008M
1         (WGS2193) (13:01) (15MAR04) General Purpose Register Cross Reference                                              Page  253
     3(3)      970U  2098   7931   8061M  8124   8224M  8296   8777M  8863M 10153M 10249  11356M 11446  11890M 11998
             12206M 12281  13225M 13438  14357M 14477  14526M 14527M 14528  14540M 14542M 14543M 14544  14545M 14562M
             14564  14583M 14584  14585M 14633M 14681  14726M 14726  14738  14744  14762M 14762  14786M 14843  14940M
             15975M 15977M 15978  16637M 16794  16847M 17792M 17794M 17795  18454M 18599  18889M 18944  18997M 19760M
             19762M 19763  20449M 20591  22061M 22062M 22062  22071M 22071  22102  22730M 23161  23187M 23323M 23323
             23731M 23731  23775M 23775  24192M 24341  24431M 24451  24541M 24588  24635M 24657  24704M 24726  24773M
             24795  24842M 24864  24911M 24933  24980M 25002  25049M 25071  25118M 25140  25187M 26147  26208M 26228
             26318M 26338  26428M 26448  26538M 26558  26648M 26668  26729M 26749  26811M 26831  26894M 26914  26983M
             27003  27072M 27092  27175M 27195  27600M 27620  27708M 27728  27754M 27755M 27757M 27879M 27899  27989M
             28009  28057M 28077  28124M 28144  28205M 28225  28286M 28306  28367M 28387  28448M 28468  28509M 28529
             28576M 28596  28686M 28706  28796M 28816  28906M 28926  28987M 29007  29068M 29088  29149M 29169  29230M
             29250  29296M 29316  29362M 29382  29428M 29448  29494M 29514  29580M 29600  29667M 29690  29873M 29874
             29875M 29876  29905M 29916M 29916  29930  29939  29940M 29941  30041M 30052M 30052  30066  30075  30228M
             30342  30532M 30614  30655M 30675  30716M 30771  31027M 31088  31427M 31522  31640M 31703  32028M 32122
             32421M 32460  32534M 32535M 32615M 32616M 32617  32639M 32690  32785M 32786M 32793M 32794M 32822M 32823M
             32824  32855M 32922  33000M 33003M 33024M 33025M 33039  33048M 33054M 33055  33195M 33197M 33206M 33206
             33212M 33213M 33220  33276  33318  33321  33323  33369M 33370M 33371  33403M 33472  33552M 33555M 33574M
             33586  33598  33622M 33627  33629M 33746M 33747  33748  33751M 33753  33852M 33853M 33854M 33858M 33859M
             33860M 33910M 33913M 33915  33991M 34064  34341M 34434  34551M 34555M 34564M 34564  34571  34632M 34668
             34784M 34788M 34797M 34797  34804  34823M 34827M 34836M 34836  34843  34907M 34938  35006M 35034  35110M
             35143  35446M 35473  35716M 35742  35985M 36185  36363M 36383  36427M 36447  36491M 36519  36681M 36725
             36948M 37016  37081M 37122  37226M 37246  37322M 37407  37467  37787M 37838  38374M 38416  38508M 38543
             38640M 38680  38937M 39002  39145M 39169  39318M 39422  39491M 39566  39594M 39657  39742M 39742  39838M
             39838  39844M 39910M 39910  39917M 39934M 39934N 39939M 39940  39967M 40018  40057M 40061M 40481M 40545
             40573M 40574M 40575  40648M 40673  40706M 40745  40773M 40774M 40775  40908M 40933  40970M 41008  41036M
             41037M 41038  41111M 41136  41150  41156  41236M 41284  41312M 41316M 41325M 41325  41332  41354M 41355M
             41356  41429  41463M 41492M 41825  41895M 41898  41910M 41918M 41927M 41927  41934  41972M 41975  41987M
             41995M 42004M 42004  42011  42226M 42270  42288M 42289  42291M 42335  42353M 42354  42356M 42360M 42369M
             42369  42376  42416M 42420M 42429M 42429  42436  42490M 42577  42622M 42808  42844M 42854U 44864  45028
             45283  46811U 46829M 46957  46993M 47003U 47990U 48008M
     4(4)      966U  2098   7931   8061M  8124   8224M  8296   8446M 10046M 10056U 10074U 10153M 10249  10318M 11003M
             11013U 11031U 11311M 11321U 11340U 11356M 11446  11486M 11560M 11570U 11588U 11845M 11855U 11874U 11890M
             11998  12206M 12281  12367M 12865M 12875U 12893U 13180M 13190U 13209U 13225M 13438  13526M 14009M 14019U
             14037U 14312M 14322U 14341U 14357M 14477  14633M 14681  14721M 14738  14786M 14843  14869M 14927  14935U
             16637M 16648U 16794  16820M 16834  16842U 18454M 18465U 18599  18889M 18944  18970M 18984  18992U 20449M
             20460U 20591  20681M 22369M 22379U 22397U 22685M 22695U 22714U 22730M 23161  23249M 23835M 23845U 23863U
             24147M 24157U 24176U 24192M 24341  24431M 24451  24541M 24588  24635M 24657  24704M 24726  24773M 24795
             24842M 24864  24911M 24933  24980M 25002  25049M 25071  25118M 25140  25187M 26147  26208M 26228  26318M
             26338  26428M 26448  26538M 26558  26648M 26668  26729M 26749  26811M 26831  26894M 26914  26983M 27003
             27072M 27092  27175M 27195  27600M 27620  27708M 27728  27879M 27899  27989M 28009  28057M 28077  28124M
             28144  28205M 28225  28286M 28306  28367M 28387  28448M 28468  28509M 28529  28576M 28596  28686M 28706
             28796M 28816  28906M 28926  28987M 29007  29068M 29088  29149M 29169  29230M 29250  29296M 29316  29362M
             29382  29428M 29448  29494M 29514  29580M 29600  29667M 29690  30228M 30342  30532M 30614  30655M 30675
             30716M 30771  31027M 31088  31148M 31300  31363  31386  31427M 31522  31593M 31640M 31703  31803M 31830M
             31934M 31966M 32028M 32122  32421M 32460  32503M 32504N 32505M 32505N 32535M 32614M 32615N 32639M 32690
             32730M 32731N 32732M 32732N 32734M 32786M 32855M 32922  32965M 32966N 32968M 32995  33001M 33003M 33026M
             33027M 33039  33275M 33276M 33317M 33318M 33319M 33368M 33369N 33403M 33472  33553M 33555M 33575M 33629M
             33822M 33824M 33833M 33833  33839M 33840M 33856  33878  33907  33991M 34064  34341M 34434  34632M 34668
             34907M 34938  35006M 35034  35110M 35143  35446M 35473  35716M 35742  35985M 36185  36363M 36383  36427M
             36447  36491M 36519  36681M 36725  36948M 37016  37081M 37122  37226M 37246  37322M 37407  37467  37787M
             37838  38374M 38416  38508M 38543  38640M 38680  38937M 39002  39145M 39169  39318M 39422  39560M 39560
             39567M 39594M 39657  39967M 40018  40058M 40061M 40062M 40481M 40545  40575M 40577M 40620  40640M 40646
             40648  40679  40706M 40745  40775M 40777M 40820  40840M 40846  40908  40939  40970M 41008  41038M 41040M
             41083  41103M 41109  41111  41161  41236M 41284  41356M 41358M 41401  41421M 41427  41430  41492M 41825
             42290M 42335  42343M 42354M 42404M 42404  42416  42455  42457M 42458M 42459  42490M 42577  42622M 42808
             44827M 44838U 44850  44882U 44991M 45002U 45014  45069U 45246M 45257U 45269  45325U 46829M 46957  47077M
             47136  47281M 47455M 47840M 47849M 47849  48008M
     5(5)      962U  2098   7931   7968M  7976U  8044   8061M  8073U  8124   8150M  8160U  8208U  8224M  8296   8387M
              8395U 10153M 10249  10284M 11356M 11446  11481M 11890M 11998  12206M 12281  12360M 13225M 13438  13517M
