1                        J E S 2  J O B  L O G  --  S Y S T E M  S Y S B  --  N O D E  R L G
0
 12.40.10 JOB03505 ---- MONDAY,    15 MAR 2004 ----
 12.40.10 JOB03505  ICH70001I GG$SLP   LAST ACCESS AT 12:39:31 ON MONDAY, MARCH 15, 2004
 12.40.10 JOB03505  $HASP373 WYL#ACT  STARTED - INIT 6    - CLASS B - SYS SYSB
 12.40.10 JOB03505  ***  HCMD      STEP $$QUIET
 12.40.10 JOB03505  PUR * Q OUT MUL
 12.40.10 JOB03505  JOB 5369 WYL#ACT  WILL BE PURGED
 12.40.11 JOB03505  WYL#ACT .$$QUIET .         RC=Zero TapeIO=0000 DiskIO=0000 CPU=  .01s Elapsed=10.06s
 12.40.35 JOB03505  WYL#ACT .ASM     .         RC=Zero TapeIO=0000 DiskIO=1032 CPU= 9.44s Elapsed=11.11s
 12.40.39 JOB03505  WYL#ACT .EDIT    .         RC=Zero TapeIO=0000 DiskIO=0559 CPU= 1.71s Elapsed=35.46s
 12.40.39 JOB03505  WYL#ACT  Ended.  Name=Assemble ACT                   Total CPU=11.16s Elapsed=10.06s
 12.40.39 JOB03505
 12.40.39 JOB03505  Execution charges   Priority=Standard   Block=Day
 12.40.39 JOB03505
 12.40.39 JOB03505  CPU Usage         207.00         $128.34   Standard Processing Unit Equivalent
 12.40.39 JOB03505                                   =======
 12.40.39 JOB03505                                   $128.34   Total Job execution charge
 12.40.39 JOB03505
 12.40.39 JOB03505  See back separator page for print charges
 12.40.39 JOB03505
 12.40.39 JOB03505  $HASP395 WYL#ACT  ENDED  ASM=0, EDIT=0
1        1 //WYL#ACT JOB SLP$GG,'Assemble ACT',TIME=4,REGION=4M                    JOB03505
           //*
           /*JOBPARM LINES=99,COPIES=1
           /*JOBPARM FORMS=3HOL,PFORMAT=LAND,CHARS=BD13,DUPLEX=YES,FLASH=BAR4
           //*
           /*JOBPARM NOTIFY=GG.SLP,HOLD=OUTPUT                                     WYLGEN
         2 //$$QUIET EXEC PGM=HCMDX,PARM='PUR * Q OUT MUL'
           //*
         3 //ASM    EXEC PGM=ASMA90,REGION=8M,
           //            PARM=('NORENT,TERM,FLAG(NOCONT),US(MAP,WARN(10)),NODECK',
           //            'LC(32767),XREF(SHORT),ESD,DXREF,NOOBJECT')
         4 //STEPLIB DD DSN=SYS3.IS.TESTASM,DISP=SHR
         5 //SYSLIB   DD  DSN=WYL.GS.WYL.WYLBUR.MACLIB,DISP=SHR
         6 //         DD  DSN=WYL.GG.SYS.MACLIB,DISP=SHR
         7 //         DD  DSN=SYS3.IS.MACLIB,DISP=SHR
         8 //         DD  DSN=SYS3.MACLIB,DISP=SHR
         9 //         DD  DSN=SYS1.MACLIB,DISP=SHR
        10 //         DD  DSN=SYS1.MODGEN,DISP=SHR
        11 //SYSUT1   DD DSN=&&SYSUT1,UNIT=VIO,DISP=(,DELETE),
           //            SPACE=(4088,(500,250),,CONTIG,ROUND)
        12 //SYSTERM  DD SYSOUT=T
        13 //SYSPRINT DD DSN=&&PRINT,UNIT=SYSDA,DISP=(,PASS),
           //            SPACE=(6650,(250,250),RLSE),
           //            DCB=(BLKSIZE=6650,LRECL=133,RECFM=FB)
        14 //SYSUDUMP DD SYSOUT=A
        15 //SYSIN    DD  DSN=WYL.GS.WYL.WYLBUR.SOURCE(ACT),DISP=SHR
           //*
        16 //EDIT    EXEC PGM=ASMEDIT,TIME=2,REGION=4000K,
           //             PARM='STMT'
        17 //STEPLIB  DD  DSN=WYL.GG.SYS.LINKLIB,DISP=SHR
        18 //ASMOUT   DD  DSN=&PRINT,DISP=(OLD,DELETE)
        19 //SYSPRINT DD  SYSOUT=A
1 STMT NO. MESSAGE
 -
        11 IGD01010I STORCLAS= TEMP STORGROUP =
        11 IGD01010I STORGRP=VIO ASSIGNED.
        13 IGD01010I STORCLAS= TEMP STORGROUP =
        13 IGD01010I STORGRP=VIO ASSIGNED.
 ICH70001I GG$SLP   LAST ACCESS AT 12:39:31 ON MONDAY, MARCH 15, 2004
 IEF142I WYL#ACT $$QUIET - STEP WAS EXECUTED - COND CODE 0000
 *********************************************************************************
 *   WYL#ACT /$$QUIET /                    Return Code      Zero                 *
 *   Region used      260K (16K user + 244K system)                              *
 *   Extended region  9692K (4K user + 9688K system)                             *
 *                                                                               *
 *   Paging              In      Out                                             *
 *   Private <-> Aux      0        0       CPU time (TCB)   00:00:00.01          *
 *   Private <-> Exp      0        0       CPU time (SRB)   00:00:00.00          *
 *   VIO                  0        0       Elapsed time    917:47:42.90          *
 *   Common               0      ---                                             *
 *                                                                               *
 *                                                                               *
 *   CPU Usage          0.18         $0.11  Standard Processing Unit Equivalent  *
 *                                   $0.11  Total Step execution charge          *
 *                                                                               *
 *    I/O count  DDname   Type Addr           I/O count  DDname   Type Addr      *
 *                         *** No I/O for this step ***                          *
 *********************************************************************************
 IEF373I STEP/$$QUIET /START 2004075.1240
 IEF374I STEP/$$QUIET /STOP  2004075.1240 CPU    0MIN 00.01SEC SRB    0MIN 00.00SEC VIRT    16K SYS   244K EXT       4K SYS    9688K
 IEF236I ALLOC. FOR WYL#ACT ASM
 IEF237I 04DC ALLOCATED TO STEPLIB
 IEF237I 04DC ALLOCATED TO SYSLIB
 IEF237I 04DC ALLOCATED TO
 IEF237I 04DC ALLOCATED TO
 IEF237I 0402 ALLOCATED TO
 IEF237I 04A0 ALLOCATED TO
 IEF237I 04A0 ALLOCATED TO
 IGD101I SMS ALLOCATED TO DDNAME (SYSUT1  )
         DSN (SYS04075.T124010.RA000.WYL#ACT.SYSUT1.H01   )
         STORCLAS (TEMP) MGMTCLAS (        ) DATACLAS (        )
         VOL SER NOS= VIO
 IEF237I JES2 ALLOCATED TO SYSTERM
 IGD101I SMS ALLOCATED TO DDNAME (SYSPRINT)
         DSN (SYS04075.T124010.RA000.WYL#ACT.PRINT.H01    )
         STORCLAS (TEMP) MGMTCLAS (        ) DATACLAS (        )
         VOL SER NOS= SCR101
 IEF237I JES2 ALLOCATED TO SYSUDUMP
 IEF237I 04DC ALLOCATED TO SYSIN
 IEF142I WYL#ACT ASM - STEP WAS EXECUTED - COND CODE 0000
 IEF285I   SYS3.IS.TESTASM                              KEPT
 IEF285I   VOL SER NOS= SYSB05.
 IEF285I   WYL.GS.WYL.WYLBUR.MACLIB                     KEPT
 IEF285I   VOL SER NOS= SYSB05.
 IEF285I   WYL.GG.SYS.MACLIB                            KEPT
 IEF285I   VOL SER NOS= SYSB05.
 IEF285I   SYS3.IS.MACLIB                               KEPT
 IEF285I   VOL SER NOS= SYSB05.
 IEF285I   SYS3.MACLIB                                  KEPT
 IEF285I   VOL SER NOS= SYSB02.
 IEF285I   SYS1.MACLIB                                  KEPT
 IEF285I   VOL SER NOS= MVSBR9.
 IEF285I   SYS1.MODGEN                                  KEPT
 IEF285I   VOL SER NOS= MVSBR9.
 IGD105I SYS04075.T124010.RA000.WYL#ACT.SYSUT1.H01    DELETED,   DDNAME=SYSUT1
 IEF285I   GG$SLP.WYL#ACT.JOB03505.D0000101.?           SYSOUT
 IGD106I SYS04075.T124010.RA000.WYL#ACT.PRINT.H01     PASSED,    DDNAME=SYSPRINT
 IEF285I   GG$SLP.WYL#ACT.JOB03505.D0000102.?           SYSOUT
 IEF285I   WYL.GS.WYL.WYLBUR.SOURCE                     KEPT
 IEF285I   VOL SER NOS= SYSB05.
 *********************************************************************************
 *   WYL#ACT /ASM     /                    Return Code      Zero                 *
 *   Region used      4376K (4096K user + 280K system)                           *
 *   Extended region  10308K (412K user + 9896K system)                          *
 *                                                                               *
 *   Paging              In      Out                                             *
 *   Private <-> Aux      0        0       CPU time (TCB)   00:00:09.37          *
 *   Private <-> Exp      0        0       CPU time (SRB)   00:00:00.07          *
 *   VIO                  0        0       Elapsed time    917:47:41.85          *
 *   Common               0      ---                                             *
 *                                                                               *
 *                                                                               *
 *   CPU Usage        175.68       $108.92  Standard Processing Unit Equivalent  *
 *                                 $108.92  Total Step execution charge          *
 *                                                                               *
 *    I/O count  DDname   Type Addr           I/O count  DDname   Type Addr      *
 *           83  STEPLIB  Disk 04DC                 371  SYSLIB   Disk 04DC      *
 *            0  SYSLIB   Disk 04DC                   0  SYSLIB   Disk 04DC      *
 *            0  SYSLIB   Disk 0402                   0  SYSLIB   Disk 04A0      *
 *            0  SYSLIB   Disk 04A0                 965  SYSUT1   VIO  ----      *
 *            0  SYSTERM       ----                 556  SYSPRINT Disk 04E3      *
 *            0  SYSUDUMP      ----                  22  SYSIN    Disk 04DC      *
 *********************************************************************************
 IEF373I STEP/ASM     /START 2004075.1240
 IEF374I STEP/ASM     /STOP  2004075.1240 CPU    0MIN 09.37SEC SRB    0MIN 00.07SEC VIRT  4096K SYS   280K EXT     412K SYS    9896K
 IEF236I ALLOC. FOR WYL#ACT EDIT
 IEF237I 0402 ALLOCATED TO STEPLIB
 IGD103I SMS ALLOCATED TO DDNAME ASMOUT
 IEF237I JES2 ALLOCATED TO SYSPRINT
 IEF142I WYL#ACT EDIT - STEP WAS EXECUTED - COND CODE 0000
 IEF285I   WYL.GG.SYS.LINKLIB                           KEPT
 IEF285I   VOL SER NOS= SYSB02.
 IGD105I SYS04075.T124010.RA000.WYL#ACT.PRINT.H01     DELETED,   DDNAME=ASMOUT
 IEF285I   GG$SLP.WYL#ACT.JOB03505.D0000103.?           SYSOUT
 *********************************************************************************
 *   WYL#ACT /EDIT    /                    Return Code      Zero                 *
 *   Region used      380K (116K user + 264K system)                             *
 *   Extended region  9816K (4K user + 9812K system)                             *
 *                                                                               *
 *   Paging              In      Out                                             *
 *   Private <-> Aux      0        0       CPU time (TCB)   00:00:01.66          *
 *   Private <-> Exp      0        0       CPU time (SRB)   00:00:00.05          *
 *   VIO                  0        0       Elapsed time    917:47:17.50          *
 *   Common               0      ---                                             *
 *                                                                               *
 *                                                                               *
 *   CPU Usage         31.12        $19.29  Standard Processing Unit Equivalent  *
 *                                  $19.29  Total Step execution charge          *
 *                                                                               *
 *    I/O count  DDname   Type Addr           I/O count  DDname   Type Addr      *
 *            2  STEPLIB  Disk 0402                 557  ASMOUT   Disk 04E3      *
 *            0  SYSPRINT      ----                                              *
 *********************************************************************************
 IEF373I STEP/EDIT    /START 2004075.1240
 IEF374I STEP/EDIT    /STOP  2004075.1240 CPU    0MIN 01.66SEC SRB    0MIN 00.05SEC VIRT   116K SYS   264K EXT       4K SYS    9812K
 *********************************************************************************
 *                                                                               *
 *                      S t a n f o r d   U n i v e r s i t y                    *
 *                                                                               *
 *                              *** Job Summary ***                              *
 *                                                                               *
 *   System Id      SYSB                   Input time     12:39:15  Mar 15, 2004 *
 *                                                                               *
 *   System Release SP6.1.0                Start time     12:40:10  Mar 15, 2004 *
 *                                                                               *
 *   Job name       WYL#ACT                Stop  time     00:00:00  Mar 15, 2004 *
 *                                                                               *
 *   Account        SLP$GG                 Elapsed time  917:47:42.90            *
 *                                                                               *
 *   User Name      Assemble ACT           CPU time       00:00:11.04            *
 *                                                                               *
 *   Job class      B                      SRB Time       00:00:00.12            *
 *                                                                               *
 *********************************************************************************
 IEF375I  JOB/WYL#ACT /START 2004075.1240
 IEF376I  JOB/WYL#ACT /STOP  2004075.1240 CPU    0MIN 11.04SEC SRB    0MIN 00.12SEC
1Assembler Done ACT No Statements Flagged
1         High Level Assembler Option Summary                   (PTF P72483 )                                               Page    1
-                                                                                            HLASM R4.0  2004/03/15 12.40
0  No Overriding ASMAOPT Parameters
   Overriding Parameters-  NORENT,TERM,FLAG(NOCONT),US(MAP,WARN(10)),NODECK,LC(32767),XREF(SHORT),ESD,DXREF,NOOBJECT
   No Process Statements


   Options for this Assembly
0  NOADATA
     ALIGN
   NOASA
     BATCH
     CODEPAGE(047C)
   NOCOMPAT
   NODBCS
 3 NODECK
 3   DXREF
 3   ESD
   NOEXIT
 3   FLAG(0,ALIGN,NOCONT,NOIMPLEN,NOPAGE0,PUSH,RECORD,NOSUBSTR,USING0)
   NOFOLD
   NOGOFF
   NOINFO
     LANGUAGE(EN)
   NOLIBMAC
 3   LINECOUNT(32767)
     LIST(121)
     MXREF(SOURCE)
 3 NOOBJECT
     OPTABLE(UNI,NOLIST)
   NOPCONTROL
   NOPESTOP
   NOPROFILE
   NORA2
 3 NORENT
     RLD
     RXREF
     SIZE(MAX)
     SYSPARM()
 3   TERM(WIDE)
   NOTEST
     THREAD
   NOTRANSLATE
 3   USING(NOLIMIT,MAP,WARN(10))
 3   XREF(SHORT)

   No Overriding DD Names

1ACT      External Symbol Dictionary                                                                                        Page    2
-Symbol   Type   Id     Address  Length     LD ID  Flags Alias-of                            HLASM R4.0  2004/03/15 12.40
0WYLACT    SD 00000001 00000000 00008F58             00
 ACT2025   LD          00000000           00000001
 SHOWAINF  LD          00000016           00000001
 COLLOPTS  ER 00000002
 XGETINFO  ER 00000003
 SEGCR     ER 00000004
 SEG       ER 00000005
 XSETSPLT  ER 00000006
 SEGDC     ER 00000007
 SEGHX     ER 00000008
 YESREQ    ER 00000009
 SEGMARK   ER 0000000A
 SEGWR     ER 0000000B
 RGCHECK   ER 0000000C
 ACTRESET  LD          0000045E           00000001
 ACTOPEN   LD          00000544           00000001
 ACTCLOSE  LD          000006CA           00000001
 ACTPICK   LD          00000790           00000001
 ACTPREV   LD          0000087C           00000001
 ACTNEXT   LD          0000093C           00000001
 ACTFIRST  LD          000009FE           00000001
 ACTLAST   LD          00000AC0           00000001
 ACTDEL    LD          00000B8C           00000001
 ACTFULL   LD          00000D3A           00000001
 ACTGINFO  LD          00000E3A           00000001
 ACTSINFO  LD          00000EBA           00000001
 ACTVSAVE  LD          00000F34           00000001
 ACTVREST  LD          00000F86           00000001
 ACTDUP    LD          00000FDE           00000001
 FREERG    ER 0000000D
 INITRG    ER 0000000E
 XSETSET   ER 0000000F
 SETVINFO  ER 00000010
 XDELSET   ER 00000011
 GETVINFO  ER 00000012
 XCHKSET   ER 00000013
 XGET      ER 00000014
 XLASTSET  ER 00000015
 XFRSTSET  ER 00000016
 GETCPU    ER 00000017
 XDELRECS  ER 00000018
 RTRIM     ER 00000019
 XREPLACE  ER 0000001A
 XPUTLINE  ER 0000001B
 LOGCMD    ER 0000001C
 ACTPFX    LD          000011E4           00000001
 ACTDISP   LD          000012E2           00000001
 ACTRCVY   LD          000015C6           00000001
 CHKACT    LD          000017D2           00000001
 CLRACTS   LD          000017FE           00000001
 CLRMULT   LD          00001916           00000001
 CLRTEXT   LD          00001A00           00000001
 MNULL     ER 0000001D
 MTOKEN    ER 0000001E
 MALL      ER 0000001F
1ACT      External Symbol Dictionary                                                                                        Page    3
 SETPFXNS  ER 00000020
 RETFMEM   ER 00000021
 SEGB      ER 00000022
 SEGT      ER 00000023
 RETFNAME  ER 00000024
 SEGCOL    ER 00000025
 XLOCLINE  ER 00000026
 XLOCLAST  ER 00000027
 XCNTRECS  ER 00000028
 XDELETE   ER 00000029
 XPUT      ER 0000002A
 ACTPICK   ER 0000002B
 TREADQ    ER 0000002C
 NSCAN     ER 0000002D
 SCANCHK   ER 0000002E
 GETLINFO  LD          000020D8           00000001
 GETLNO    LD          0000211C           00000001
 GETLINEX  LD          000021A0           00000001
 GETLINE   LD          000021D2           00000001
 PUTLINEX  LD          000022E6           00000001
 PUTLINE   LD          00002314           00000001
 PUTBYTES  LD          00002564           00000001
 PREVLNO   LD          00002A2C           00000001
 CVEXNO    ER 0000002F
 PAGEMARK  ER 00000030
 ENDLNO    ER 00000031
 PUTLINE   ER 00000032
 DETAB     ER 00000033
 XLOCPREV  ER 00000034
 DELRANGE  LD          00002B9E           00000001
 CHOPLINE  LD          00002D66           00000001
 JOINLINE  LD          00002EEC           00000001
 CNTRANGE  LD          00003144           00000001
 PAGEDEL   ER 00000035
 CHKLINES  LD          000031D2           00000001
 NUMRANGE  LD          00003740           00000001
 NUMFACT   LD          0000389E           00000001
 SELDELTA  ER 00000036
 NNUMBER   ER 00000037
 NNUMFACT  ER 00000038
 GTLINE    LD          000039BE           00000001
 GTNEXT    LD          00003A0C           00000001
 GTPREV    LD          00003A5E           00000001
 GTFRST    LD          00003B08           00000001
 GTLAST    LD          00003B56           00000001
 CHECKLN   LD          00003BBA           00000001
 GTNEXTLN  LD          00003BF6           00000001
 GTPREVLN  LD          00003C3E           00000001
 GTFRSTLN  LD          00003C86           00000001
 GTLASTLN  LD          00003CCE           00000001
 GTENDLN   LD          00003D16           00000001
 PTLINE    LD          00003DE2           00000001
 PTAPPEND  LD          00003E8A           00000001
 REPLINE   LD          00003F40           00000001
 INSLINE   LD          00003FEC           00000001
 STOW      LD          00004160           00000001
 LASTLINE  LD          000041C6           00000001
 EDITCK    LD          00004276           00000001
 UNPRESS   LD          0000434C           00000001
1ACT      External Symbol Dictionary                                                                                        Page    4
 LENCHKM   LD          000043D0           00000001
 LENCHK    LD          00004418           00000001
 LMSGCHK   LD          000044E0           00000001
 NDETRNG   LD          000045CC           00000001
 MSYMLN    ER 00000039
 MQUOTE    ER 0000003A
 UNPRESS   ER 0000003B
 EXECHK    ER 0000003C
 EXFRSTLN  ER 0000003D
 EXLASTLN  ER 0000003E
 ITSNIL    ER 0000003F
 MINT      ER 00000040
 MPAREN    ER 00000041
 MPINT     ER 00000042
 SCNINVAL  ER 00000043
 NOTVALID  ER 00000044
 GETHEAP   ER 00000045
 DEQSTR    ER 00000046
 HEXSTR    ER 00000047
 ZDETRNG   LD          000065A0           00000001
 INVALID   ER 00000048
 LNENOPRT  ER 00000049
 ENDLNO    LD          00006C74           00000001
 ACTCHK    LD          00006CC8           00000001
 ITSNIL    LD          00006D00           00000001
 SCAN      ER 0000004A
 SCINIT    ER 0000004B
 SCTELL    ER 0000004C
 SCNRES    ER 0000004D
 LOWMULT   ER 0000004E
 ADDER     ER 0000004F
 ORVCPASS  ER 00000050
 DTB       ER 00000051
 DESPOT    LD          00007578           00000001
 RDRNG     LD          000075B6           00000001
 RNGABORT  LD          00007E72           00000001
 RDRNG     ER 00000052
 EXFRST    ER 00000053
 EXTREAD   ER 00000054
 TIDLEWR   ER 00000055
 LOCATE    LD          0000827E           00000001
 EXLOCATE  LD          0000830C           00000001
 PRESS     ER 00000056
 MATLINE   LD          000083AC           00000001
 PRESS     LD          00008A72           00000001

1ACT      WYLBUR's Active File Routines                                                                                     Page    5
0Loc    Object Code    Addr1 Addr2  Stmt Lv Lineno    Source Statement                    (Asmedit 3.3)  HLASM R4.0  2004/03/15 12.40
+___    ______ ____    _____ _____  ____ __ ______    ______ _________
0                                      2              *******************************************************************
                                       3              *                                                                 *
                                       4              *     WYLBUR/370 - Release VI - Class I - Stanford Proprietary    *
                                       5              *                                                                 *
                                       6              *******************************************************************
                                       7                       HIBAL
                                     988
 000000                00000 08F58   989              WYLACT   CSECT
                                     993              ACT      IDENT 2025                11:49:19 01/25/02  (SLP)
                                     996             +
                                     997    01-IDENT +         ENTRY ACT2025
                                     998             +
 000000 15C1C3E3F2F0F2F5             999    01-IDENT +ACT2025  DC    AL1(21),C'ACT2025,15MAR04,12:40'
                                    1000             +*
                                    1002              *
                                    1003              *   Modification history
                                    1004              *
                                    1005              *     9-Mar-1995   M. Durket
                                    1006              *
                                    1007              *     Make sure that every new active file contains not only
                                    1008              *     an AINFO record, but also a VIEW record. This should
                                    1009              *     prevent the WYLBUR CPU loops and multiple active file
                                    1010              *     logic errors resulting from attempts to ACTXPUT the
                                    1011              *     VIEW record when the active file space is full.
                                    1012              *
                                    1013              *     See the comments in the ACTOPEN routine for how to
                                    1014              *     reproduce the bug.
                                    1015              *
                                    1016              *     Additionally, make sure the CLRMULT updates the CPATCLR
                                    1017              *     value. Also, make sure that CLRMULT doesn't do an ACTOPEN
                                    1018              *     without first checking to see if an ACTPURGE should be done.
                                    1019              *     In the case above, WYLBUR would still continue to loop on
                                    1020              *     the save of the active files in the case of disconnect,
                                    1021              *     because SIGNOFF issues the SAVE command with a CLEAR option.
                                    1022              *     This causes CLRMULT to be called, and CLRMULT automatically
                                    1023              *     picks the first non-cleared active file (which won't be the
                                    1024              *     case here) or opens a new empty one (which is the case and
                                    1025              *     causes ACTOPEN to bomb on the ACTXPUT of the AINFO record).
                                    1026              *
                                    1027              *     Sheesh.
                                    1028              *
                                    1029                       REGS  FSR,,,,,,,BR,(WAR,LSR),PAR,PBR,CPR,CVR,SPR,RAR
-                                   1166                       SYSDEFN ,                 Define installation params
-                                   1168                       LCLA  &PATMAX             Max. pattern length
                                    1169              &PATMAX  SETA  200                 (An arbitrary number)
-                                   1171                       PUSH  DSECTS
 USING  CP,R11                      1182             =         USING (CP),(CV)
 USING  CV,R12
 000016                00000 08F58  1201             =         POP   PRINT
1ACT      (ACT2025) (12:40) (15MAR04) ACTIVE File DSECTS                                                                    Page    6
0Current Usings:  (CP,R11) (CV,R12)
0Loc    Object Code    Addr1 Addr2  Stmt Lv Lineno    Source Statement           (Hibal 5, Asmedit 3.3)  HLASM R4.0  2004/03/15 12.40
+___    ______ ____    _____ _____  ____ __ ______    ______ _________
0                                   6672              ***
                                    6673              ***  AINFO -- Active File Information
                                    6674              ***
 000000                00000 001A8  6675              AINFO    RECORD BEGIN
                                    6683  1           AINA       AINFO
                                    6685+ 1          +           ¿þþþþþþþþþþþþþþþþþþþþþþþþþþþþþþþþþþþþþþþþþþþþþþþþþþþþþÜ
                                    6686+ 1          +           Ÿ  Active file information.                           Ÿ
                                    6687+ 1          +           Ÿ    This information is kept with each Active file.  Ÿ
                                    6688+ 1          +           ¾þþþþþþþþþþþþþþþþþþþþþþþþþþþþþþþþþþþþþþþþþþþþþþþþþþþþþ»
 000000                             6689  1 01-AINFO +AINANAME   DS    CL8                 Active file name
 000008                             6690  1 01-AINFO +AINATYPE   DS    CL8                 Active file type
                                    6691  1          +
 000010                             6692  1 01-AINFO +AINANXNO   DS    F                   Next Active file set number
 000014                             6693  1 01-AINFO +AINAPRNO   DS    F                   Previous Active file set number
                                    6694  1          +
 000018                             6695  1 01-AINFO +AINAFLNO   DS    F                   First line-number
 00001C                             6696  1 01-AINFO +AINALLNO   DS    F                   Last line-number
 000020                             6697  1 01-AINFO +AINACLNO   DS    F                   Current line-number
 000024                             6698  1 01-AINFO +AINALNCT   DS    F                   Line count
 000028                             6699  1 01-AINFO +AINABYCT   DS    F                   Byte count
 00002C                             6700  1 01-AINFO +AINACHCT   DS    F                   Change count
 000030                             6701  1 01-AINFO +AINAICLK   DS    F                   Clock when initially created
 000034                             6702  1 01-AINFO +           DS    F                   Reserved
 000038                             6703  1 01-AINFO +           DS    XL3                 Reserved
 00003B 00                          6704  1          +*
 AINAFLAG.AINAFCLR 80 ONES
 AINAFLAG.AINAFPRT 40 ONES
 AINAFLAG.AINAFDEF 20 ONES
 AINAFLAG.AINAFLOC 10 ONES
                                    6729  1          +*
                                    6732+ 1          +     ¿þþþþþþþþþþþþþþþþþþþþþþþþþþþþþþþþþþþþþþÜ
                                    6733+ 1          +     Ÿ  Collect command saved information.  Ÿ
                                    6734+ 1          +     ¾þþþþþþþþþþþþþþþþþþþþþþþþþþþþþþþþþþþþþþ»
 00003C                             6735  1 02-COLIN +AINACFLN   DS    F                   Lineno before first collected
 000040                             6736  1 02-COLIN +AINACNLN   DS    F          [Order]  Next lineno to use
 000044                             6737  1 02-COLIN +AINACDEL   DS    F          [Order]  Delta
 000048                             6738  1 02-COLIN +AINACLEN   DS    H                   Line warning length
 00004A                             6739  1 02-COLIN +AINACCNT   DS    H                   No. of lines to collect
 00004C 00                          6740  1 02-COLIN +AINACFG5   DS    X                   Copy of CPLFLG5
 AINACFLG.AINACFMR 80 ONES
 AINACFLG.AINACFCS 40 ONES
 AINACFLG.AINACFUP 20 ONES
 AINACFLG.AINACFRN 10 ONES
 AINACFLG.AINACFPG 08 ONES
                                    6770  1 02-COLIN +AINACINFO   EQU  AINACFLN,*-AINACFLN,C'X'
                                    6772+ 1          +           ¿þþþþþþþþþþþþþþþþþþþþþþþþþþþþþþþþþþþþþþþþþþÜ
                                    6773+ 1          +           Ÿ  Title,File name/host/type information.  Ÿ
                                    6774+ 1          +           ¾þþþþþþþþþþþþþþþþþþþþþþþþþþþþþþþþþþþþþþþþþþ»
 00004E 00                          6775  1 01-AINFO +AINATITL   DS    CL80                Active file title area
 0000A0                             6780  1 01-AINFO +AINAFNAMEL   DS  F                   File name length
 0000A4                             6781  1 01-AINFO +AINAFNAME   DS   CL128               File name
 000124                             6782  1 01-AINFO +AINAHOSTL   DS   F                   Host name length
 000128                             6783  1 01-AINFO +AINAHOST   DS    CL128               Host name
                                    6784  1          +
1ACT      (ACT2025) (12:40) (15MAR04) ACTIVE File DSECTS                                                                    Page    7
0Current Usings:  (CP,R11) (CV,R12)
0Loc    Object Code    Addr1 Addr2  Stmt Lv Lineno    Source Statement           (Hibal 5, Asmedit 3.3)  HLASM R4.0  2004/03/15 12.40
+___    ______ ____    _____ _____  ____ __ ______    ______ _________
0                                   6785  1 01-AINFO +AINAINFO   EQU   AINANAME,*-AINANAME,C'X'
 0001A8                001A8 001A8  6787                       END
1ACT      (ACT2025) (12:40) (15MAR04) ACTIVE File DSECTS                                                                    Page    8
0Current Usings:  (CP,R11) (CV,R12)
0Loc    Object Code    Addr1 Addr2  Stmt Lv Lineno    Source Statement           (Hibal 5, Asmedit 3.3)  HLASM R4.0  2004/03/15 12.40
+___    ______ ____    _____ _____  ____ __ ______    ______ _________
0                                   6797              *
                                    6798              *    LNINFO -- Line Prefix Information
                                    6799              *
                                    6800              *      This information is saved in extended edit files in this
                                    6801              *      format.  Be careful not to change this format without
                                    6802              *      making sure that extended edit file don't change.
                                    6803              *
                                    6804              *  ** CAUTION **
                                    6805              *  NOTE:
                                    6806              *  AS OF OCTOBER 1990,  THIS INFO IS NO LONGER USED OR KEPT.
                                    6807              *  THIS INFO (IE. TIME OF CHANGE, USER WHO DID CHANGE) IS
                                    6808              *  NO LONGER SAVED AS A PREFIX WITH EACH LINE OF THE ACTIVE
                                    6809              *  FILE.   BECAUSE WE CANNOT CHANGE EXTENDED EDIT FILES,
                                    6810              *  THIS FIELD IS NOW ** SET TO ZEROS ** IN ALL FUTURE
                                    6811              *  EXTENDED EDIT FILES.
                                    6812              *
                                    6813              *  THE IMPLEMENTATION OF THE ABOVE IS MINIMAL, WE DO NOT
                                    6814              *  SAVE THE PREFIX WITH EACH LINE OF THE ACTIVE FILE.  BUT
                                    6815              *  ALL THE CODE THAT DEALS WITH EXTENDED EDIT FILES REMAINS.
                                    6816              *  WE CAN NOT AX IT UNTIL WE GET RID OF EXTENDED EDIT FORMAT
                                    6817              *  WHICH REQUIRES ANOTHER METHOD FOR SAVING MULTIPLE ACTIVE
                                    6818              *  FILES AND REQUIRES A METHOD OF DEALING WITH EXISTING
                                    6819              *  EDIT FORMAT FILES.  AT SOME POINT (WHEN EXTENDED EDIT
                                    6820              *  FILES ARE AXED), IT WOULD BE GOOD TO GET RID OF ALL THIS
                                    6821              *  IRRELEVANT PREFIX CODE.  AND SUCH IS THAT.
                                    6822              *  UND DAT ISH DAS.
                                    6823              *
                                    6824              *
 000000                00000 00008  6825              LNINFO   RECORD BEGIN
                                    6833  1           *LNFLAG  FLAG
                                    6834  1           *        FLAG  (LNFMARK,X'40')     - Line has been changed
                                    6835  1           *LNID    DS    CL3                 User id
                                    6836  1           *LNCLCK  DS    F                   High order word of CLOCK
 000000                             6837  1                      DS    8X                  ALWAYS ZEROS, NOT USED
 000008                00008 00008  6838                       END
1ACT      (ACT2025) (12:40) (15MAR04) SHOW AINFO Command                                                                    Page    9
0Current Usings:  (CP,R11) (CV,R12)
0Loc    Object Code    Addr1 Addr2  Stmt Lv Lineno    Source Statement           (Hibal 5, Asmedit 3.3)  HLASM R4.0  2004/03/15 12.40
+___    ______ ____    _____ _____  ____ __ ______    ______ _________
0                                   6848              ¿þþþþþþþþþþþþþþþþþþþþþþþþþþþþþþþþþþþþþþþþþþþþþþþþþþþþþþþþþþþþþþþþþþþþþÜ
                                    6849              Ÿ                                                                     Ÿ
                                    6850              Ÿ  SHOWAINF -- SHOW AINFO Command.                                    Ÿ
                                    6851              Ÿ                                                                     Ÿ
                                                      ¾þþþþþþþþþþþþþþþþþþþþþþþþþþþþþþþþþþþþþþþþþþþþþþþþþþþþþþþþþþþþþþþþþþþþþ»
0000016 50E0 D000/9008_      00000  6852              SHOWAINF XPROC ,
 USING  *,R7
 000030 58E0 72C8/0DEE       002F8  6892                       VCALL COLLOPTS
                                    6896                       ¿þþþþþþþþþþþþþþþþþþþþþþþþþþþþþþþþþþþþþþþþþþþþþþþþþÜ
                                    6897                       Ÿ  Get Active file master page-number for later.  Ÿ
                                    6898                       ¾þþþþþþþþþþþþþþþþþþþþþþþþþþþþþþþþþþþþþþþþþþþþþþþþþ»
 000036 41F0 B484            00484  6899                       LA    R15,CPTEXT          Active file record group
 00003A 58E0 72CC/0DEE       002FC  6900                       VCALL XGETINFO            Get master page number
 000040 1850                        6904                       LR    R5,R0               Save pageno for later
                                    6905                       ¿þþþþþþþþþþþþþþþþþþþþþþþþþþþþþþþþþÜ
                                    6906                       Ÿ  Give Active file information.  Ÿ
                                    6907                       ¾þþþþþþþþþþþþþþþþþþþþþþþþþþþþþþþþþ»
 000042 4110 73B0/4100_      003E0  6908                       TSEG  'Active file record group information:',,CR
 000054 1B00/41F0 B050_             6926                       TCR
                                    6951
 000060 4110 73D5/4100_      00405  6952                       TSEG  '  Split factor = '
 000072 1B00                        6970                       CLEAR R0
 000074 41F0 B484            00484  6974                       LA    R15,CPTEXT          Active file record group
 000078 58E0 72D8/0DEE       00308  6975                       VCALL XSETSPLT            Get split factor
 00007E 181F/1B00/41F0_             6979                       TNUM  (R15)
 00008C 4110 72E0/4100_      00310  7001                       TSEG  '/128',,CR
                                    7019
 00009E 4110 730C/4100_      0033C  7020                       TSEG  '  Number of TEXT    Actives = '
 0000B0 5810 B56C/1B00_      0056C  7038                       TNUM  L:CPATTEXT
 0000C0 1B00/41F0 B050_             7060                       TCR
                                    7085
 0000CC 4110 732A/4100_      0035A  7086                       TSEG  '  Number of TEMP    Actives = '
 0000DE 5810 B570/1B00_      00570  7104                       TNUM  L:CPATTEMP
 0000EE 1B00/41F0 B050_             7126                       TCR
                                    7151
 0000FA 4110 7348/4100_      00378  7152                       TSEG  '  Number of cleared Actives = '
 00010C 5810 B568/1B00_      00568  7170                       TNUM  L:CPATCLR
 00011C 1B00/41F0 B050_             7192                       TCR
                                    7217
 000128 4110 73E6/4100_      00416  7218                       TSEG  '  Highest Active file number = '
 00013A 5810 B580/1B00_      00580  7236                       TNUM  L:CPACTMAX
 00014A 4110 7366/4100_      00396  7258                       TSEG  ' (current='
 00015C 5810 B57C/1B00_      0057C  7276                       TNUM  L:CPACTNO
 00016C 4110 7405/4100_      00435  7298                       TSEG  ')'
 00017E 1B00/41F0 B050_             7316                       TCR
 00018A 1B00/41F0 B050_             7341                       TCR
                                    7366
 000196 4110 7370/4100_      003A0  7367                       TSEG  '  Total number of lines = '
 0001A8 5810 B578/1B00_      00578  7385                       TNUM  L:CPATLINS
 0001B8 1B00/41F0 B050_             7407                       TCR
                                    7432
 0001C4 4110 738A/4100_      003BA  7433                       TSEG  '  Total number of bytes = '
 0001D6 5810 B564/1B00_      00564  7451                       TNUM  L:CPATBYTS
1ACT      (ACT2025) (12:40) (15MAR04) SHOW AINFO Command                                                                    Page   10
0Current Usings:  (*,R7) (CP,R11) (CV,R12)
0Loc    Object Code    Addr1 Addr2  Stmt Lv Lineno    Source Statement           (Hibal 5, Asmedit 3.3)  HLASM R4.0  2004/03/15 12.40
+___    ______ ____    _____ _____  ____ __ ______    ______ _________
00001E6 1B00/41F0 B050_             7473                       TCR
 0001F2 1B00/41F0 B050_             7498                       TCR
                                    7523
 0001FE 4110 7406/4100_      00436  7524                       TSEG  '  Master page number = '
 000210 1815/4100 0008_             7542                       THEX  (R5),8
 000220 1B00/41F0 B050_             7567                       TCR
 00022C 1B00/41F0 B050_             7592                       TCR
                                    7617
 000238 9180 BD55/4710_00D55        7618                       IF    CPFDUMP,CVNEXT      Forget validity check prompt
 000240 4110 741D/4100_      0044D  7636                       SETMSG 'Do validity check'
 000248 58E0 72E8/0DEE       00318  7640                       VCALL YESREQ
 00024E 4110 72EC/4100_      0031C  7644                       TSEG  'Checking... '
 000260 41F0 B050/58E0_      00050  7662                       TMARK ,                   (Avoid NL)
 00026A 1B00/41F0 B050_             7676                       TWRITE
 000276 4770 C7DA            007DA  7701                       BNZ   CVABORT
                                    7702
 00027A 18FD/41D0 D020              7703                       XPUSH ,,L'CPTEXT,PTR=R15  Dummy RG area
 000280 1805                        7706                       LR    R0,R5               Master page number
 000282 4110 7300            00330  7707                       LA    R1,=CL4'TEXT'       Id
 000286 4120 7304            00334  7708                       LA    R2,=C'....'         No special options
 00028A 58E0 7308/0DEE       00338  7709                       VCALL RGCHECK             Validity check record group
 000290 4770 7276/4110_      002A6  7713                       IF    Z,'TSEG "OK"'
 0002A6 727A/47F0 72B0 002A6 00292  7747                       ELSE  BEGIN
 0002AA 182F                        7758  1                      LR    R2,R15
 0002AC 4110 73A6/4100_      003D6  7759  1                      TSEG  'Error (at '
 0002BE 1812/4100 0008_             7777  1                      THEX  (R2),8
 0002CE 4110 7405/4100_      00435  7802  1                      TSEG  ')'
 0002E0                             7820                       END
                                    7824
 0002E0 47F0 C7DE            007DE  7825                       B     CVNEXT
                                    7826
 0002E4 18D8/9808 D004_             7827                       PEND  ,
 DROP   *,R7
                                    7847
                                    7848                       QLTORG
1ACT      (ACT2025) (12:40) (15MAR04) Active File Utility Routines                                                          Page   11
0Current Usings:  (CP,R11) (CV,R12)
0Loc    Object Code    Addr1 Addr2  Stmt Lv Lineno    Source Statement           (Hibal 5, Asmedit 3.3)  HLASM R4.0  2004/03/15 12.40
+___    ______ ____    _____ _____  ____ __ ______    ______ _________
0                                   7890              ¿þþþþþþþþþþþþþþþþþþþþþþþþþþþþþþþþþþþþþþþþþþþþþþþþþþþþþþþþþþþþþþþþþþþþþÜ
                                    7891              Ÿ                                                                     Ÿ
                                    7892              Ÿ  ACTRESET -- Routine to reset Active file record group.             Ÿ
                                    7893              Ÿ    Called at user initialization and by "CLEAR ACTS RESET".         Ÿ
                                    7894              Ÿ                                                                     Ÿ
                                    7895              Ÿ    No entry/exit parameters.                                        Ÿ
                                    7896              Ÿ                                                                     Ÿ
                                                      ¾þþþþþþþþþþþþþþþþþþþþþþþþþþþþþþþþþþþþþþþþþþþþþþþþþþþþþþþþþþþþþþþþþþþþþ»
000045E 50E0 D000/9008_      00000  7897              ACTRESET XPROC ,
 USING  *,R7
                                    7937                       ¿þþþþþþþþþþþþþþþþþþþþþþþþþþþþþþþþþþþþþþþþþþþþþþþþþþþþþþþþþþþþþÜ
                                    7938                       Ÿ  Delete Active file record group.                           Ÿ
                                    7939                       Ÿ    Do this first, in case something in the record group is  Ÿ
                                    7940                       Ÿ    messed up.                                               Ÿ
                                    7941                       ¾þþþþþþþþþþþþþþþþþþþþþþþþþþþþþþþþþþþþþþþþþþþþþþþþþþþþþþþþþþþþþ»
 000478 41F0 B484            00484  7942                       LA    R15,CPTEXT          Active file record group
 00047C 58E0 7C80/0DEE       010F8  7943                       VCALL FREERG              Delete old record group info
                                    7947
 000482 4100 0004            00004  7948                       LA    R0,4
 000486 4110 7C84            010FC  7949                       LA    R1,=CL4'TEXT'
 00048A 4120 7C88            01100  7950                       LA    R2,=CL4'.R..'
 00048E 41F0 B484            00484  7951                       LA    R15,CPTEXT          Active file record group
 000492 58E0 7C8C/0DEE       01104  7952                       VCALL INITRG              Initialize
                                    7956
 000498 4100 0070            00070  7957                       LA    R0,128-16           Fill up text pages
 00049C 41F0 B484            00484  7958                       LA    R15,CPTEXT          Active file record group
 0004A0 58E0 7C90/0DEE       01108  7959                       VCALL XSETSPLT            Set split factor
                                    7963                       ¿þþþþþþþþþþþþþþþþþþþþþþþþþþþþþþþþþþÜ
                                    7964                       Ÿ  Reset control information too.  Ÿ
                                    7965                       ¾þþþþþþþþþþþþþþþþþþþþþþþþþþþþþþþþþþ»
 0004A6 D603 B57C B57C_0057C 0057C  7966                       IF    (CPACTNO,Z),BEGIN   First time through...
 0004B0 D203 B57C 7C94 0057C 0110C  7982  1                      MVC   CPACTNO,=F'1'
 0004B6 D203 B580 7C94 00580 0110C  7983  1                      MVC   CPACTMAX,=F'1'
 0004BC                             7984                       END
                                    7988
 0004BC D703 B56C B56C_0056C 0056C  7989                       CLEAR CPATTEXT,CPATTEMP,CPATCLR  No Active files
 0004CE D703 B564 B564_00564 00564  8006                       CLEAR CPATBYTS,CPATLINS
 0004DA 9120 B5C3/47E0_005C3        8018                       IF    CPAFDEF,BEGIN       We had a non-empty Active file...
 0004E2 41F0 0001/5EF0_      00001  8033  1                      INCR  R15,CPACTMAX        Kick Active file number
 0004EE 50F0 B57C            0057C  8039  1                      ST    R15,CPACTNO         Set current Active file
 0004F2                             8040                       END
                                    8044
 0004F2 5800 B57C            0057C  8045                       L     R0,CPACTNO
 0004F6 41F0 B484            00484  8046                       LA    R15,CPTEXT          Active file record group
 0004FA 58E0 7C98/0DEE       01110  8047                       VCALL XSETSET             Make sure current is current!
                                    8051
 000500 D7FF B588 B588_00588 00588  8052                       CLEAR CPAINFO             Initialize AINFO
 00050C D207 B588 7C40 00588 010B8  8060                       MVC   CPANAME,=CL8'NEW'   File name
 000512 D207 B590 7C48 00590 010C0  8061                       MVC   CPATYPE,=CL8'TEXT'  File type
 000518 D203 B5A8 7C9C 005A8 01114  8062                       MVC   CPACLNO,=F'-1000'   Current lineno
                                    8063
 00051E 1B00/1B11                   8064                       CLEAR R0,R1
 000522 58E0 7CA0/0DEE       01118  8070                       VCALL SETVINFO            Initialize view position
1ACT      (ACT2025) (12:40) (15MAR04) Active File Utility Routines                                                          Page   12
0Current Usings:  (*,R7) (CP,R11) (CV,R12)
0Loc    Object Code    Addr1 Addr2  Stmt Lv Lineno    Source Statement           (Hibal 5, Asmedit 3.3)  HLASM R4.0  2004/03/15 12.40
+___    ______ ____    _____ _____  ____ __ ______    ______ _________
0                                   8074                       ¿þþþþþþþþþþþþþþþþþþþþþþþþþþþþþþþþþþþþþþþþþþþþþþþþþþþÜ
                                    8075                       Ÿ  Delete OOPS record set in misc-16 record group.  Ÿ
                                    8076                       ¾þþþþþþþþþþþþþþþþþþþþþþþþþþþþþþþþþþþþþþþþþþþþþþþþþþþ»
 000528 4100 0007            00007  8077                       LA    R0,CP#OOPS
 00052C 41F0 B524            00524  8078                       LA    R15,CPRG16          Misc record group
 000530 58E0 7CA4/0DEE       0111C  8079                       VCALL XDELSET             Delete OOPS lines
                                    8083
 000536 18D8/9808 D004_             8084                       PEND  ,
 DROP   *,R7
1ACT      (ACT2025) (12:40) (15MAR04) Active File Utility Routines                                                          Page   13
0Current Usings:  (CP,R11) (CV,R12)
0Loc    Object Code    Addr1 Addr2  Stmt Lv Lineno    Source Statement           (Hibal 5, Asmedit 3.3)  HLASM R4.0  2004/03/15 12.40
+___    ______ ____    _____ _____  ____ __ ______    ______ _________
0000000                00000 001A8  8105              AOPENWA  RECORD BEGIN
 000000                             8113  1           AOPENINF   DS    XL(L'AINFO)         Working AINFO area
 0001A8                001A8 001A8  8114                       END
-                                   8124              ¿þþþþþþþþþþþþþþþþþþþþþþþþþþþþþþþþþþþþþþþþþþþþþþþþþþþþþþþþþþþþþþþþþþþþþÜ
                                    8125              Ÿ                                                                     Ÿ
                                    8126              Ÿ  ACTOPEN -- Routine to create a new Active file.                    Ÿ
                                    8127              Ÿ                                                                     Ÿ
                                    8128              Ÿ    On entry:                                                        Ÿ
                                    8129              Ÿ      nothing                                                        Ÿ
                                    8130              Ÿ                                                                     Ÿ
                                    8131              Ÿ    On exit:                                                         Ÿ
                                    8132              Ÿ      current Active file will be the new Active file                Ÿ
                                    8133              Ÿ                                                                     Ÿ
                                                      ¾þþþþþþþþþþþþþþþþþþþþþþþþþþþþþþþþþþþþþþþþþþþþþþþþþþþþþþþþþþþþþþþþþþþþþ»
0000544 50E0 D000/9008_      00000  8134              ACTOPEN  XPROC AOPENWA
 USING  *,R7
 USING  AOPENWA-(4+36),R8
                                    8185                       ¿þþþþþþþþþþþþþþþþþþþþþþþþþþþþþþþþþþþþþþþþþþþþþþþþþþþþþþþþþÜ
                                    8186                       Ÿ  Make a new Active file and assign a set number to it.  Ÿ
                                    8187                       ¾þþþþþþþþþþþþþþþþþþþþþþþþþþþþþþþþþþþþþþþþþþþþþþþþþþþþþþþþþ»
 00055E 4150 0001/5E50_      00001  8188                       INCR  R5,CPACTMAX         Assign highest set number so far
                                    8194
 00056A 1805                        8195                       LR    R0,R5
 00056C 41F0 B484            00484  8196                       LA    R15,CPTEXT          Active file record group
 000570 58E0 7BB2/0DEE       01110  8197                       VCALL XSETSET             Switch to new set
 000576 183F                        8201                       LR    R3,R15              Save previous set number
                                    8202
 000578 41F0 8028            00000  8203                       LA    R15,AOPENINF
 USING  AINFO,R15                   8204                       WITH  (AINFO,R15),BEGIN
 00057C D7FF F000 F000_00000 00000  8218  1                      CLEAR AINFO
 000588 D207 F000 7B5A 00000 010B8  8226  1                      MVC   AINANAME,=CL8'NEW'  File name
 00058E D207 F008 7B62 00008 010C0  8227  1                      MVC   AINATYPE,=CL8'TEXT'  File type
 000594 D203 F020 7BB6 00020 01114  8228  1                      MVC   AINACLNO,=F'-1000'  Current lineno
 DROP   AINFO,R15                   8229                       END
                                    8237
 00059A 4120 7BC2            01120  8238                       LA    R2,=CL4'INFO'       Information data key
 00059E 4110 8028/4100_      00000  8239                       SETMSG AOPENINF
 0005A6 58E0 7BC6/0DEE       01124  8253                       ACALL ACTXPUT             Save record
                                    8257              *
                                    8258              *   Ensure that there is always a VIEW record. This should
                                    8259              *   eliminate the WYLBUR multiple active file logic error
                                    8260              *   that occurs when:
                                    8261              *
                                    8262              *   A) You have multiple active files
                                    8263              *   B) You've never VIEWed anything at all since you logged on
                                    8264              *   C) The active file space is now full
                                    8265              *   D) You issue a VIEW command.
                                    8266              *
                                    8267              *   This will cause a WYLBUR CPU loop, because ACTXPUT can't
                                    8268              *   put a VIEW record in.
 0005AC 181D/41D0 D080              8269                       XPUSH ,,128,PTR=R1
1ACT      (ACT2025) (12:40) (15MAR04) Active File Utility Routines                                                          Page   14
0Current Usings:  (*,R7) (AOPENWA-(4+36),R8) (CP,R11) (CV,R12)
0Loc    Object Code    Addr1 Addr2  Stmt Lv Lineno    Source Statement           (Hibal 5, Asmedit 3.3)  HLASM R4.0  2004/03/15 12.40
+___    ______ ____    _____ _____  ____ __ ______    ______ _________
00005B2 D27F 1000 C4D8 00000 004D8  8272                       MVC   0(128,R1),CVBLANKS
 0005B8 4100 0080            00080  8273                       LA    R0,128
 0005BC 58E0 7BCA/0DEE       01128  8274                       VCALL GETVINFO            Get at least a dummy record
 0005C2 4100 0080            00080  8278                       LA    R0,128              Restore the full length
 0005C6 4120 7BCE            0112C  8279                       LA    R2,=CL4'VIEW'       Record key
 0005CA 58E0 7BC6/0DEE       01124  8280                       ACALL ACTXPUT             Add record
                                    8284
 0005D0 1803                        8285                       LR    R0,R3               Previous set number
 0005D2 41F0 B484            00484  8286                       LA    R15,CPTEXT          Active file record group
 0005D6 58E0 7BB2/0DEE       01110  8287                       VCALL XSETSET             Switch back to previous set
                                    8291                       ¿þþþþþþþþþþþþþþþþþþþþþþþþþþþþþþþþþþþþþþþþþþþÜ
                                    8292                       Ÿ  Now pick the newly created Active file.  Ÿ
                                    8293                       ¾þþþþþþþþþþþþþþþþþþþþþþþþþþþþþþþþþþþþþþþþþþþ»
 0005DC 5820 B57C            0057C  8294                       L     R2,CPACTNO          Previous Active
 0005E0 5830 B598            00598  8295                       L     R3,CPANXNO          Current Active's next
                                    8296
 0005E4 18F5                        8297                       LR    R15,R5              Active file number
 0005E6 58E0 7BD2/0DEE       01130  8298                       ACALL ACTPICK             Select this file
                                    8302
 0005EC 5020 B59C            0059C  8303                       ST    R2,CPAPRNO          Set previous Active file
 0005F0 5030 B598            00598  8304                       ST    R3,CPANXNO          Set next Active file
                                    8305                       ¿þþþþþþþþþþþþþþþþþþþþþþþþþþþþþþþþþþþþþþþþþþþþþþþþþþþþþþþþþÜ
                                    8306                       Ÿ  Update forward and back links in neighboring AINFO's.  Ÿ
                                    8307                       ¾þþþþþþþþþþþþþþþþþþþþþþþþþþþþþþþþþþþþþþþþþþþþþþþþþþþþþþþþþ»
 0005F4 4140 8028            00000  8308                       LA    R4,AOPENINF
 USING  AINFO,R4                    8309                       WITH  (AINFO,R4)
                                    8322
 0005F8 58F0 B59C/12FF       0059C  8323                       LT    R15,CPAPRNO         Get previous Active file
 0005FE 4780 70FC            0065A  8327                       IF    NZ,BEGIN
 000602 1814/4100 01A8              8338  1                      SETMSG AINFO
 000608 58E0 7BD6/0DEE       01134  8352  1                      ACALL ACTGINFO            Get info
 00060E 4780 70CC/900F_      0062A  8356  1                      FAIL  NZ,AOPEN1,'Multiple Active file logic problem.'
                                    8379  1
 00062A 5050 4010            00010  8380  1                      ST    R5,AINANXNO         Set forward link
                                    8381  1
 00062E 58F0 B59C            0059C  8382  1                      L     R15,CPAPRNO
 000632 1814/4100 01A8              8383  1                      SETMSG AINFO
 000638 58E0 7BDA/0DEE       01138  8397  1                      ACALL ACTSINFO            Update info
 00063E 4780 70FC/900F_      0065A  8401  1                      FAIL  NZ,AOPEN2,'Multiple Active file logic problem.'
 00065A                             8424                       END
                                    8428              *
                                    8429              *
 00065A 58F0 B598/12FF       00598  8430                       LT    R15,CPANXNO         Get next Active file info
 000660 4780 715E            006BC  8434                       IF    NZ,BEGIN
 000664 1814/4100 01A8              8445  1                      SETMSG AINFO
 00066A 58E0 7BD6/0DEE       01134  8459  1                      ACALL ACTGINFO            Get info
 000670 4780 712E/900F_      0068C  8463  1                      FAIL  NZ,AOPEN3,'Multiple Active file logic problem.'
                                    8486  1
 00068C 5050 4014            00014  8487  1                      ST    R5,AINAPRNO         Set backward link
                                    8488  1
 000690 58F0 B598            00598  8489  1                      L     R15,CPANXNO
 000694 1814/4100 01A8              8490  1                      SETMSG AINFO
 00069A 58E0 7BDA/0DEE       01138  8504  1                      ACALL ACTSINFO            Update info
 0006A0 4780 715E/900F_      006BC  8508  1                      FAIL  NZ,AOPEN4,'Multiple Active file logic problem.'
1ACT      (ACT2025) (12:40) (15MAR04) Active File Utility Routines                                                          Page   15
0Current Usings:  (AINFO,R4) (*,R7) (AOPENWA-(4+36),R8) (CP,R11) (CV,R12)
0Loc    Object Code    Addr1 Addr2  Stmt Lv Lineno    Source Statement           (Hibal 5, Asmedit 3.3)  HLASM R4.0  2004/03/15 12.40
+___    ______ ____    _____ _____  ____ __ ______    ______ _________
00006BC                             8531                       END
                                    8535
 0006BC 18D8/9808 D004_             8536                       PEND  ,
 DROP   AINFO,R4
 DROP   AOPENWA-(4+36),R8
 DROP   *,R7
1ACT      (ACT2025) (12:40) (15MAR04) Active File Utility Routines                                                          Page   16
0Current Usings:  (CP,R11) (CV,R12)
0Loc    Object Code    Addr1 Addr2  Stmt Lv Lineno    Source Statement           (Hibal 5, Asmedit 3.3)  HLASM R4.0  2004/03/15 12.40
+___    ______ ____    _____ _____  ____ __ ______    ______ _________
0000000                00000 001A8  8567              ACLSWA   RECORD BEGIN
 000000                             8575  1           ACLSAINF   DS    CL(L'AINFO)         Working AINFO area
 0001A8                001A8 001A8  8576                       END
-                                   8586              ¿þþþþþþþþþþþþþþþþþþþþþþþþþþþþþþþþþþþþþþþþþþþþþþþþþþþþþþþþþþþþþþþþþþþþþÜ
                                    8587              Ÿ                                                                     Ÿ
                                    8588              Ÿ  ACTCLOSE -- Routine to close the current Active file and           Ÿ
                                    8589              Ÿ    go back to previously opened one.                                Ÿ
                                    8590              Ÿ                                                                     Ÿ
                                    8591              Ÿ    On entry:                                                        Ÿ
                                    8592              Ÿ      nothing                                                        Ÿ
                                    8593              Ÿ                                                                     Ÿ
                                    8594              Ÿ    On exit:                                                         Ÿ
                                    8595              Ÿ      current Active file will be a previously opened Active file    Ÿ
                                    8596              Ÿ                                                                     Ÿ
                                                      ¾þþþþþþþþþþþþþþþþþþþþþþþþþþþþþþþþþþþþþþþþþþþþþþþþþþþþþþþþþþþþþþþþþþþþþ»
00006CA 50E0 D000/9008_      00000  8597              ACTCLOSE XPROC ACLSWA
 USING  *,R7
 USING  ACLSWA-(4+36),R8
 0006E4 5850 B59C            0059C  8648                       L     R5,CPAPRNO          Previously opened Active
                                    8649                       ¿þþþþþþþþþþþþþþþþþþþþþþþþþþþþþþþþþþþþþþþÜ
                                    8650                       Ÿ  Find previously opened Active file.  Ÿ
                                    8651                       ¾þþþþþþþþþþþþþþþþþþþþþþþþþþþþþþþþþþþþþþþ»
 0006E8 1255/4780 703E              8652                       WHILE (R5,NZ),BEGIN       Get previous Active...
 0006EE 18F5                        8668  1                      LR    R15,R5
 0006F0 4110 8028/4100_      00000  8669  1                      SETMSG ACLSAINF
 0006F8 58E0 7A50/0DEE       01134  8683  1                      ACALL ACTGINFO            Get Active file info
 0006FE 4780 702A            0070E  8687  1                      IF    NZ,BEGIN
 000702 4110 7AB4/4100_      01198  8698  2                        ABORT 'Multiple Active file logic problem (ACTCLOSE).'
 00070E                             8705  1                      END
 00070E 4140 8028            00000  8709  1                      LA    R4,ACLSAINF
 USING  AINFO,R4                    8710  1                      WITH  (AINFO,R4)
 000712 9180 403B/47E0_0003B        8723  1                      IF    ~AINAFCLR,EXIT      We found one, scram
 00071A 5850 4014            00014  8741  1                      L     R5,AINAPRNO
 00071E 47F0 7004            006E8  8742                       END
 DROP   AINFO,R4
                                    8752                       ¿þþþþþþþþþþþþþþþþþþþþþþþþþþþþþþþþþþþþþþþþþþþþþþþÜ
                                    8753                       Ÿ  Now pick the previous Active file we found.  Ÿ
                                    8754                       ¾þþþþþþþþþþþþþþþþþþþþþþþþþþþþþþþþþþþþþþþþþþþþþþþ»
 000722 1255/4780 7090              8755                       IF    (R5,NZ),BEGIN       No previous Active...
 000728 9110 B5C3/4710_005C3        8769  1                      IF    ~CPAFLOCK,BEGIN     Not locked...
 000730 9680 B5C3      005C3        8784  2                        SET   CPAFCLR             This active is now cleared
 000734 D603 B5AC B5AC_005AC 005AC  8790  2                        IF    (CPALNCT,NZ),BEGIN  Keep Active counts accurate...
 00073E D503 7A58 B590_0113C 00590  8806  3                          IF    (CPATYPE,EQ,'TEMP'),'DECR R15,CPATTEMP'
 000752 7072/47F0 707C_00752 00746  8833  3                          ELSE  'DECR R15,CPATTEXT'
 000760                             8854  2                        END
 000760 41F0 0001/5EF0_      00001  8858  2                        INCR  R15,CPATCLR         Count cleared Actives
 00076C                             8864  1                      END
                                    8868  1
 00076C 18F5                        8869  1                      LR    R15,R5
 00076E 58E0 7A4C/0DEE       01130  8870  1                      ACALL ACTPICK             Go back to new Active
 000774                             8874                       END
1ACT      (ACT2025) (12:40) (15MAR04) Active File Utility Routines                                                          Page   17
0Current Usings:  (*,R7) (ACLSWA-(4+36),R8) (CP,R11) (CV,R12)
0Loc    Object Code    Addr1 Addr2  Stmt Lv Lineno    Source Statement           (Hibal 5, Asmedit 3.3)  HLASM R4.0  2004/03/15 12.40
+___    ______ ____    _____ _____  ____ __ ______    ______ _________
0                                   8878                       ¿þþþþþþþþþþþþþþþþþþþþþþþþþþþþþþþþþþþþþþþþþþþþþþþÜ
                                    8879                       Ÿ  No previous Active file; do a CLEAR ACTIVE.  Ÿ
                                    8880                       ¾þþþþþþþþþþþþþþþþþþþþþþþþþþþþþþþþþþþþþþþþþþþþþþþ»
 000774 7094/47F0 709E 00774 00726  8881                       ELSE  BEGIN
 000778 9614 BD55      00D55        8892  1                      SET   CPFCLEAR+CPFNWARN   CLEAR NOWARN
 00077C 58E0 7A5C/0DEE       01140  8901  1                      ACALL CLRTEXT             Get a clear active
 000782                             8905                       END
                                    8909
 000782 18D8/9808 D004_             8910                       PEND  ,
 DROP   ACLSWA-(4+36),R8
 DROP   *,R7
1ACT      (ACT2025) (12:40) (15MAR04) Active File Utility Routines                                                          Page   18
0Current Usings:  (CP,R11) (CV,R12)
0Loc    Object Code    Addr1 Addr2  Stmt Lv Lineno    Source Statement           (Hibal 5, Asmedit 3.3)  HLASM R4.0  2004/03/15 12.40
+___    ______ ____    _____ _____  ____ __ ______    ______ _________
0                                   8936              ¿þþþþþþþþþþþþþþþþþþþþþþþþþþþþþþþþþþþþþþþþþþþþþþþþþþþþþþþþþþþþþþþþþþþþþÜ
                                    8937              Ÿ                                                                     Ÿ
                                    8938              Ÿ  ACTPICK -- Routine to select a new Active file.  This routine      Ÿ
                                    8939              Ÿ    also updates the AINFO information in the CP.                    Ÿ
                                    8940              Ÿ                                                                     Ÿ
                                    8941              Ÿ    On entry:                                                        Ÿ
                                    8942              Ÿ      R15 - Set number of the new Active file                        Ÿ
                                    8943              Ÿ                                                                     Ÿ
                                    8944              Ÿ    On exit, R15 (and CC):                                           Ÿ
                                    8945              Ÿ        0 - Active file requested does not exist                     Ÿ
                                    8946              Ÿ      pos - R15 = Previous Active file set number                    Ÿ
                                    8947              Ÿ                                                                     Ÿ
                                                      ¾þþþþþþþþþþþþþþþþþþþþþþþþþþþþþþþþþþþþþþþþþþþþþþþþþþþþþþþþþþþþþþþþþþþþþ»
0000000                00000 00080  8948              APICKWA  RECORD BEGIN
 000000                             8956  1           APICKMSG   DS    CL128               Working message area
 000080                00080 00080  8957                       END
                                    8966              þþþþ
 000790 50E0 D000/9008_      00000  8967              ACTPICK  XPROC APICKWA
 USING  *,R7
 USING  APICKWA-(4+36),R8
 0007AA 125F                        9018                       LTR   R5,R15              Save set number
 0007AC 4770 701E/900F_      007C8  9019                       FAIL  Z,ACTPICK,'ACTPICK logic error.'
                                    9042                       ¿þþþþþþþþþþþþþþþþþþþþþþþþþþþþþþþþþþþþþþþþþþþÜ
                                    9043                       Ÿ  Save AINFO for the current Active file.  Ÿ
                                    9044                       ¾þþþþþþþþþþþþþþþþþþþþþþþþþþþþþþþþþþþþþþþþþþþ»
 0007C8 4120 7976            01120  9045                       LA    R2,=CL4'INFO'
 0007CC 4110 B588/4100_      00588  9046                       SETMSG CPAINFO
 0007D4 58E0 797A/0DEE       01124  9060                       ACALL ACTXPUT             Save AINFO
                                    9064                       ¿þþþþþþþþþþþþþþþþþþþþþþþþþþþþþþþþþþþþþþþþþþþþþþþþþþþþþÜ
                                    9065                       Ÿ  Save current view position if we are viewing this  Ÿ
                                    9066                       Ÿ    Active file.                                     Ÿ
                                    9067                       ¾þþþþþþþþþþþþþþþþþþþþþþþþþþþþþþþþþþþþþþþþþþþþþþþþþþþþþ»
 0007DA 58E0 799A/0DEE       01144  9068                       ACALL ACTVSAVE            Save view position
                                    9072
 0007E0 5950 B57C/4770_      0057C  9073                       IF    (R5,EQ,CPACTNO),'LR R15,R5; EXIT ACTPICK'  Simple
                                    9099                       ¿þþþþþþþþþþþþþþþþþþþþþþþþþþþþþþþþþþþþþþþþþþþþþþþþþþþþþþþþþþþþþþÜ
                                    9100                       Ÿ  Make sure the new Active file already exists.  An existing  Ÿ
                                    9101                       Ÿ    Active file will always have lines in it's record set     Ÿ
                                    9102                       Ÿ    (even a null Active file will have an "INFO" control      Ÿ
                                    9103                       Ÿ    record).                                                  Ÿ
                                    9104                       ¾þþþþþþþþþþþþþþþþþþþþþþþþþþþþþþþþþþþþþþþþþþþþþþþþþþþþþþþþþþþþþþ»
 0007EE 1805                        9105                       LR    R0,R5
 0007F0 41F0 B484            00484  9106                       LA    R15,CPTEXT          Active file record group
 0007F4 58E0 799E/0DEE       01148  9107                       VCALL XCHKSET             Any lines in Active?
 0007FA 4780 70C4            0086E  9111                       IF    Z,EXIT,ACTPICK      No, does not exist
                                    9125                       ¿þþþþþþþþþþþþþþþþþþþþþþþþþþþþþþþþþþþþþþþþþþþþþþþþþþþþÜ
                                    9126                       Ÿ  Switch to the new Active file and restore AINFO.  Ÿ
                                    9127                       ¾þþþþþþþþþþþþþþþþþþþþþþþþþþþþþþþþþþþþþþþþþþþþþþþþþþþþ»
 0007FE 5050 B57C            0057C  9128                       ST    R5,CPACTNO          Set current Active file number
                                    9129
 000802 1805                        9130                       LR    R0,R5
 000804 41F0 B484            00484  9131                       LA    R15,CPTEXT
 000808 58E0 7966/0DEE       01110  9132                       VCALL XSETSET             Select new Active file
1ACT      (ACT2025) (12:40) (15MAR04) Active File Utility Routines                                                          Page   19
0Current Usings:  (*,R7) (APICKWA-(4+36),R8) (CP,R11) (CV,R12)
0Loc    Object Code    Addr1 Addr2  Stmt Lv Lineno    Source Statement           (Hibal 5, Asmedit 3.3)  HLASM R4.0  2004/03/15 12.40
+___    ______ ____    _____ _____  ____ __ ______    ______ _________
000080E 185F                        9136                       LR    R5,R15              Previous set number
                                    9137                       ¿þþþþþþþþþþþþþþþþþþþþþþþþþþþþþþþþþþþþþþÜ
                                    9138                       Ÿ  Restore AINFO for new Active file.  Ÿ
                                    9139                       ¾þþþþþþþþþþþþþþþþþþþþþþþþþþþþþþþþþþþþþþ»
 000810 4120 7976            01120  9140                       LA    R2,=CL4'INFO'       Control record's ID
 000814 4110 B588/4100_      00588  9141                       SETMSG CPAINFO             Put AINFO here
 00081C 41F0 B484            00484  9155                       LA    R15,CPTEXT          Active file record group
 000820 58E0 79A2/0DEE       0114C  9156                       VCALL XGET                Restore AINFO
                                    9160                       ¿þþþþþþþþþþþþþþþþþþþþþþþþþþþþþþþþþþþþþþþþþþþþþþþþþÜ
                                    9161                       Ÿ  Handle case where a cleared Active is picked.  Ÿ
                                    9162                       ¾þþþþþþþþþþþþþþþþþþþþþþþþþþþþþþþþþþþþþþþþþþþþþþþþþ»
 000826 9180 B5C3/47E0_005C3        9163                       IF    CPAFCLR,BEGIN       Unclear the active...
 00082E 947F B5C3      005C3        9178  1                      CLEAR CPAFCLR             Uncleared
 000832 58F0 B568/06F0_      00568  9185  1                      DECR  R15,CPATCLR         One less cleared Active file
 00083C D603 B5AC B5AC_005AC 005AC  9190  1                      IF    (CPALNCT,NZ),BEGIN  We have lines...
 000846 D503 7992 B590_0113C 00590  9206  2                        IF    (CPATYPE,EQ,'TEMP'),'INCR R15,CPATTEMP'
 00085C 70B6/47F0 70C2_0085C 0084E  9234  2                        ELSE  'INCR R15,CPATTEXT'
 00086C                             9256  1                      END
 00086C                             9260                       END
                                    9264              *
                                    9265              *
 00086C 18F5                        9266                       LR    R15,R5              Previous set number
 00086E 18D8/9808 D004_             9267                       PEND  ,
 DROP   APICKWA-(4+36),R8
 DROP   *,R7
1ACT      (ACT2025) (12:40) (15MAR04) Active File Utility Routines                                                          Page   20
0Current Usings:  (CP,R11) (CV,R12)
0Loc    Object Code    Addr1 Addr2  Stmt Lv Lineno    Source Statement           (Hibal 5, Asmedit 3.3)  HLASM R4.0  2004/03/15 12.40
+___    ______ ____    _____ _____  ____ __ ______    ______ _________
0000000                00000 001B0  9293              APREVWA  RECORD BEGIN
 000000                             9301  1           APREVTYP   DS    CL8                 Active file type
                                    9302  1
 000008                             9303  1           APREVINF   DS    XL(L'AINFO)         AINFO
 0001B0                001B0 001B0  9304                       END
-                                   9314              ¿þþþþþþþþþþþþþþþþþþþþþþþþþþþþþþþþþþþþþþþþþþþþþþþþþþþþþþþþþþþþþþþþþþþþþÜ
                                    9315              Ÿ                                                                     Ÿ
                                    9316              Ÿ  ACTPREV -- Routine to select the previous Active file.             Ÿ
                                    9317              Ÿ                                                                     Ÿ
                                    9318              Ÿ    On entry:                                                        Ÿ
                                    9319              Ÿ      R1 - @ 8 char Active file type to match (zeros=matches all)    Ÿ
                                    9320              Ÿ      R15- Need active file number before this                       Ÿ
                                    9321              Ÿ                                                                     Ÿ
                                    9322              Ÿ    On exit, R15 (and cc):                                           Ÿ
                                    9323              Ÿ        0 - No previous Active file                                  Ÿ
                                    9324              Ÿ      pos - R15 = Previous Active file set number                    Ÿ
                                    9325              Ÿ                                                                     Ÿ
                                                      ¾þþþþþþþþþþþþþþþþþþþþþþþþþþþþþþþþþþþþþþþþþþþþþþþþþþþþþþþþþþþþþþþþþþþþþ»
000087C 50E0 D000/9008_      00000  9326              ACTPREV  XPROC APREVWA
 USING  *,R7
 USING  APREVWA-(4+36),R8
 000896 D7FF 8028 8028_00000 00000  9377                       CLEAR APREVWA
 0008A2 1211/4780 7018_             9385                       IF    (R1,NZ),'MVC APREVTYP,@R1'  Save Active file type
                                    9405
 0008AE 185F                        9406                       LR    R5,R15
                                    9407                       ¿þþþþþþþþþþþþþþþþþþþþþþþþþþþþþþþþþþþþþþþþþþþþþþþþþþþþþþþþþþþþþþþÜ
                                    9408                       Ÿ  Save AINFO if the current Active file is empty so that we    Ÿ
                                    9409                       Ÿ    will guarantee that the current Active file record set is  Ÿ
                                    9410                       Ÿ    not empty.                                                 Ÿ
                                    9411                       ¾þþþþþþþþþþþþþþþþþþþþþþþþþþþþþþþþþþþþþþþþþþþþþþþþþþþþþþþþþþþþþþþ»
 0008B0 4120 788A            01120  9412                       LA    R2,=CL4'INFO'
 0008B4 4110 B588/4100_      00588  9413                       SETMSG CPAINFO
 0008BC 58E0 788E/0DEE       01124  9427                       ACALL ACTXPUT             Save AINFO
                                    9431              *
                                    9432              *
 0008C2                             9433                       LOOP  BEGIN               Find previous...
 0008C2 0650                        9439  1                      DECR  R5
                                    9441  1
 0008C4 1805                        9442  1                      LR    R0,R5
 0008C6 41F0 B484            00484  9443  1                      LA    R15,CPTEXT          Active file record group
 0008CA 58E0 78BA/0DEE       01150  9444  1                      VCALL XLASTSET            Get previous set number
 0008D0 4780 7044/1BFF_      008DA  9448  1                      IF    NZ,'CLEAR R15; EXIT ACTPREV'
 0008DA 1850                        9471  1                      LR    R5,R0               Save Active file no
                                    9472  1
 0008DC 4110 8030/4100_      00008  9473  1                      SETMSG APREVINF            Put AINFO here
 0008E4 18F5                        9487  1                      LR    R15,R5
 0008E6 58E0 789E/0DEE       01134  9488  1                      ACALL ACTGINFO            Get this Active's AINFO
 0008EC 4780 7072/900F_      00908  9492  1                      FAIL  NZ,APREVERR,'Multiple Active file error (ACTPREV).'
 000908 4140 8030            00008  9515  1                      LA    R4,APREVINF
 USING  AINFO,R4                    9516  1                      WITH  (AINFO,R4)
 00090C D607 8028 8028_00000 00000  9529  1                      IF    (APREVTYP,Z),EXIT   Matches anything
1ACT      (ACT2025) (12:40) (15MAR04) Active File Utility Routines                                                          Page   21
0Current Usings:  (AINFO,R4) (*,R7) (APREVWA-(4+36),R8) (CP,R11) (CV,R12)
0Loc    Object Code    Addr1 Addr2  Stmt Lv Lineno    Source Statement           (Hibal 5, Asmedit 3.3)  HLASM R4.0  2004/03/15 12.40
+___    ______ ____    _____ _____  ____ __ ______    ______ _________
0000916 9180 403B/4710_0003B        9548  1                      IF    (~AINAFCLR,AND,(AINATYPE,EQ,APREVTYP)),EXIT
 000928 47F0 702C            008C2  9583                       END
 DROP   AINFO,R4
                                    9593              *
                                    9594              *
 00092C 18F5                        9595                       LR    R15,R5              Return Active file number
 00092E 18D8/9808 D004_             9596                       PEND  ,
 DROP   APREVWA-(4+36),R8
 DROP   *,R7
1ACT      (ACT2025) (12:40) (15MAR04) Active File Utility Routines                                                          Page   22
0Current Usings:  (CP,R11) (CV,R12)
0Loc    Object Code    Addr1 Addr2  Stmt Lv Lineno    Source Statement           (Hibal 5, Asmedit 3.3)  HLASM R4.0  2004/03/15 12.40
+___    ______ ____    _____ _____  ____ __ ______    ______ _________
0000000                00000 001B0  9622              ANEXTWA  RECORD BEGIN
 000000                             9630  1           ANEXTTYP   DS    CL8                 Active file type
                                    9631  1
 000008                             9632  1           ANEXTINF   DS    XL(L'AINFO)         AINFO
 0001B0                001B0 001B0  9633                       END
-                                   9643              ¿þþþþþþþþþþþþþþþþþþþþþþþþþþþþþþþþþþþþþþþþþþþþþþþþþþþþþþþþþþþþþþþþþþþþþÜ
                                    9644              Ÿ                                                                     Ÿ
                                    9645              Ÿ  ACTNEXT -- Routine to select the next Active file.                 Ÿ
                                    9646              Ÿ                                                                     Ÿ
                                    9647              Ÿ    On entry:                                                        Ÿ
                                    9648              Ÿ      R1 - @ 8 char Active file type to match (zeros=matches all)    Ÿ
                                    9649              Ÿ      R15- need next Active file after this one                      Ÿ
                                    9650              Ÿ                                                                     Ÿ
                                    9651              Ÿ    On exit, R15 (and cc):                                           Ÿ
                                    9652              Ÿ        0 - No next Active file                                      Ÿ
                                    9653              Ÿ      pos - R15 = Next Active file set number                        Ÿ
                                    9654              Ÿ                                                                     Ÿ
                                                      ¾þþþþþþþþþþþþþþþþþþþþþþþþþþþþþþþþþþþþþþþþþþþþþþþþþþþþþþþþþþþþþþþþþþþþþ»
000093C 50E0 D000/9008_      00000  9655              ACTNEXT  XPROC ANEXTWA
 USING  *,R7
 USING  ANEXTWA-(4+36),R8
 000956 D7FF 8028 8028_00000 00000  9706                       CLEAR ANEXTWA
 000962 1211/4780 7018_             9714                       IF    (R1,NZ),'MVC ANEXTTYP,@R1'  Save Active file type
                                    9734
 00096E 185F                        9735                       LR    R5,R15
                                    9736                       ¿þþþþþþþþþþþþþþþþþþþþþþþþþþþþþþþþþþþþþþþþþþþþþþþþþþþþþþþþþþþþþþþÜ
                                    9737                       Ÿ  Save AINFO if the current Active file is empty so that we    Ÿ
                                    9738                       Ÿ    will guarantee that the current Active file record set is  Ÿ
                                    9739                       Ÿ    not empty.                                                 Ÿ
                                    9740                       ¾þþþþþþþþþþþþþþþþþþþþþþþþþþþþþþþþþþþþþþþþþþþþþþþþþþþþþþþþþþþþþþþ»
 000970 4120 77CA            01120  9741                       LA    R2,=CL4'INFO'
 000974 4110 B588/4100_      00588  9742                       SETMSG CPAINFO
 00097C 58E0 77CE/0DEE       01124  9756                       ACALL ACTXPUT             Save AINFO
                                    9760              *
                                    9761              *
 000982                             9762                       LOOP  BEGIN               Find next...
 000982 4150 5001            00001  9768  1                      LA    R5,@R5+1
                                    9769  1
 000986 1805                        9770  1                      LR    R0,R5
 000988 41F0 B484            00484  9771  1                      LA    R15,CPTEXT          Active file record group
 00098C 58E0 77FE/0DEE       01154  9772  1                      VCALL XFRSTSET            Get next set number
 000992 4780 7046/1BFF_      0099C  9776  1                      IF    NZ,'CLEAR R15; EXIT ACTNEXT'
 00099C 1850                        9799  1                      LR    R5,R0               Save Active file no
                                    9800  1
 00099E 4110 8030/4100_      00008  9801  1                      SETMSG ANEXTINF            Put AINFO here
 0009A6 18F5                        9815  1                      LR    R15,R5
 0009A8 58E0 77DE/0DEE       01134  9816  1                      ACALL ACTGINFO            Get this Active's AINFO
 0009AE 4780 7074/900F_      009CA  9820  1                      FAIL  NZ,ANEXTERR,'Multiple Active file error (ACTNEXT).'
 0009CA 4140 8030            00008  9843  1                      LA    R4,ANEXTINF
 USING  AINFO,R4                    9844  1                      WITH  (AINFO,R4)
 0009CE D607 8028 8028_00000 00000  9857  1                      IF    (ANEXTTYP,Z),EXIT   Matches everything
1ACT      (ACT2025) (12:40) (15MAR04) Active File Utility Routines                                                          Page   23
0Current Usings:  (AINFO,R4) (*,R7) (ANEXTWA-(4+36),R8) (CP,R11) (CV,R12)
0Loc    Object Code    Addr1 Addr2  Stmt Lv Lineno    Source Statement           (Hibal 5, Asmedit 3.3)  HLASM R4.0  2004/03/15 12.40
+___    ______ ____    _____ _____  ____ __ ______    ______ _________
00009D8 9180 403B/4710_0003B        9876  1                      IF    (~AINAFCLR,AND,(AINATYPE,EQ,ANEXTTYP)),EXIT
 0009EA 47F0 702C            00982  9911                       END
 DROP   AINFO,R4
                                    9921              *
                                    9922              *
 0009EE 18F5                        9923                       LR    R15,R5              Return Active file number
 0009F0 18D8/9808 D004_             9924                       PEND  ,
 DROP   ANEXTWA-(4+36),R8
 DROP   *,R7
1ACT      (ACT2025) (12:40) (15MAR04) Active File Utility Routines                                                          Page   24
0Current Usings:  (CP,R11) (CV,R12)
0Loc    Object Code    Addr1 Addr2  Stmt Lv Lineno    Source Statement           (Hibal 5, Asmedit 3.3)  HLASM R4.0  2004/03/15 12.40
+___    ______ ____    _____ _____  ____ __ ______    ______ _________
0000000                00000 001B0  9950              AFRSTWA  RECORD BEGIN
 000000                             9958  1           AFRSTTYP   DS    CL8                 Active file type
                                    9959  1
 000008                             9960  1           AFRSTINF   DS    XL(L'AINFO)         AINFO
 0001B0                001B0 001B0  9961                       END
-                                   9971              ¿þþþþþþþþþþþþþþþþþþþþþþþþþþþþþþþþþþþþþþþþþþþþþþþþþþþþþþþþþþþþþþþþþþþþþÜ
                                    9972              Ÿ                                                                     Ÿ
                                    9973              Ÿ  ACTFIRST -- Routine to select the first Active file.               Ÿ
                                    9974              Ÿ                                                                     Ÿ
                                    9975              Ÿ    On entry:                                                        Ÿ
                                    9976              Ÿ      R1 - @ 8 char Active file type to match (zero=matches all)     Ÿ
                                    9977              Ÿ      R15- find active file number greater than or equal to this     Ÿ
                                    9978              Ÿ                                                                     Ÿ
                                    9979              Ÿ    On exit, R15 (and cc):                                           Ÿ
                                    9980              Ÿ        0 - No previous Active file                                  Ÿ
                                    9981              Ÿ      pos - R15 = First Active file set number                       Ÿ
                                    9982              Ÿ                                                                     Ÿ
                                                      ¾þþþþþþþþþþþþþþþþþþþþþþþþþþþþþþþþþþþþþþþþþþþþþþþþþþþþþþþþþþþþþþþþþþþþþ»
00009FE 50E0 D000/9008_      00000  9983              ACTFIRST XPROC AFRSTWA
 USING  *,R7
 USING  AFRSTWA-(4+36),R8
 000A18 D7FF 8028 8028_00000 00000 10034                       CLEAR AFRSTWA
 000A24 1211/4780 7018_            10042                       IF    (R1,NZ),'MVC AFRSTTYP,@R1'  Save Active file type
                                   10062
 000A30 185F                       10063                       LR    R5,R15              Initialize set number
                                   10064                       ¿þþþþþþþþþþþþþþþþþþþþþþþþþþþþþþþþþþþþþþþþþþþþþþþþþþþþþþþþþþþþþþþÜ
                                   10065                       Ÿ  Save AINFO if the current Active file is empty so that we    Ÿ
                                   10066                       Ÿ    will guarantee that the current Active file record set is  Ÿ
                                   10067                       Ÿ    not empty.                                                 Ÿ
                                   10068                       ¾þþþþþþþþþþþþþþþþþþþþþþþþþþþþþþþþþþþþþþþþþþþþþþþþþþþþþþþþþþþþþþþ»
 000A32 4120 7708            01120 10069                       LA    R2,=CL4'INFO'
 000A36 4110 B588/4100_      00588 10070                       SETMSG CPAINFO
 000A3E 58E0 770C/0DEE       01124 10084                       ACALL ACTXPUT             Save AINFO
                                   10088              *
                                   10089              *
 000A44                            10090                       LOOP  BEGIN               Find first...
 000A44 1805                       10096  1                      LR    R0,R5
 000A46 41F0 B484            00484 10097  1                      LA    R15,CPTEXT          Active file record group
 000A4A 58E0 773C/0DEE       01154 10098  1                      VCALL XFRSTSET            Get next set number
 000A50 4780 7042/1BFF_      00A5A 10102  1                      IF    NZ,'CLEAR R15; EXIT ACTFIRST'
 000A5A 1850                       10125  1                      LR    R5,R0               Save Active file no
                                   10126  1
 000A5C 4110 8030/4100_      00008 10127  1                      SETMSG AFRSTINF            Put AINFO here
 000A64 18F5                       10141  1                      LR    R15,R5
 000A66 58E0 771C/0DEE       01134 10142  1                      ACALL ACTGINFO            Get this Active's AINFO
 000A6C 4780 7070/900F_      00A88 10146  1                      FAIL  NZ,AFRSTERR,'Multiple Active file error (ACTFRST).'
 000A88 4140 8030            00008 10169  1                      LA    R4,AFRSTINF
 USING  AINFO,R4                   10170  1                      WITH  (AINFO,R4)
 000A8C D607 8028 8028_00000 00000 10183  1                      IF    (AFRSTTYP,Z),EXIT   Matches everything
 000A96 9180 403B/4710_0003B       10202  1                      IF    (~AINAFCLR,AND,(AINATYPE,EQ,AFRSTTYP)),EXIT
                                   10237  1
1ACT      (ACT2025) (12:40) (15MAR04) Active File Utility Routines                                                          Page   25
0Current Usings:  (AINFO,R4) (*,R7) (AFRSTWA-(4+36),R8) (CP,R11) (CV,R12)
0Loc    Object Code    Addr1 Addr2  Stmt Lv Lineno    Source Statement           (Hibal 5, Asmedit 3.3)  HLASM R4.0  2004/03/15 12.40
+___    ______ ____    _____ _____  ____ __ ______    ______ _________
0000AA8 4150 5001            00001 10238  1                      LA    R5,@R5+1            Try next Active file number
 000AAC 47F0 702C            00A44 10239                       END
 DROP   AINFO,R4
                                   10249              *
                                   10250              *
 000AB0 18F5                       10251                       LR    R15,R5              Return Active file number
 000AB2 18D8/9808 D004_            10252                       PEND  ,
 DROP   AFRSTWA-(4+36),R8
 DROP   *,R7
1ACT      (ACT2025) (12:40) (15MAR04) Active File Utility Routines                                                          Page   26
0Current Usings:  (CP,R11) (CV,R12)
0Loc    Object Code    Addr1 Addr2  Stmt Lv Lineno    Source Statement           (Hibal 5, Asmedit 3.3)  HLASM R4.0  2004/03/15 12.40
+___    ______ ____    _____ _____  ____ __ ______    ______ _________
0000000                00000 001B0 10278              ALASTWA  RECORD BEGIN
 000000                            10286  1           ALASTTYP   DS    CL8                 Active file type
                                   10287  1
 000008                            10288  1           ALASTINF   DS    XL(L'AINFO)         AINFO
 0001B0                001B0 001B0 10289                       END
-                                  10299              ¿þþþþþþþþþþþþþþþþþþþþþþþþþþþþþþþþþþþþþþþþþþþþþþþþþþþþþþþþþþþþþþþþþþþþþÜ
                                   10300              Ÿ                                                                     Ÿ
                                   10301              Ÿ  ACTLAST -- Routine to select the last Active file.                 Ÿ
                                   10302              Ÿ                                                                     Ÿ
                                   10303              Ÿ    On entry:                                                        Ÿ
                                   10304              Ÿ      R1 - @ 8 char Active file type to match (zeros=matches all)    Ÿ
                                   10305              Ÿ      R15- find Active file before this one (-1 = last possible)     Ÿ
                                   10306              Ÿ                                                                     Ÿ
                                   10307              Ÿ    On exit, R15 (and cc):                                           Ÿ
                                   10308              Ÿ        0 - No next Active file                                      Ÿ
                                   10309              Ÿ      pos - R15 = Last Active file set number                        Ÿ
                                   10310              Ÿ                                                                     Ÿ
                                                      ¾þþþþþþþþþþþþþþþþþþþþþþþþþþþþþþþþþþþþþþþþþþþþþþþþþþþþþþþþþþþþþþþþþþþþþ»
0000AC0 50E0 D000/9008_      00000 10311              ACTLAST  XPROC ALASTWA
 USING  *,R7
 USING  ALASTWA-(4+36),R8
 000ADA D7FF 8028 8028_00000 00000 10362                       CLEAR ALASTWA
 000AE6 1211/4780 7018_            10370                       IF    (R1,NZ),'MVC ALASTTYP,@R1'  Save Active file type
                                   10390
 000AF2 185F                       10391                       LR    R5,R15
 000AF4 5550 B580/47D0_      00580 10392                       IF    (R5,LGT,CPACTMAX),'L R5,CPACTMAX'
                                   10415                       ¿þþþþþþþþþþþþþþþþþþþþþþþþþþþþþþþþþþþþþþþþþþþþþþþþþþþþþþþþþþþþþþþÜ
                                   10416                       Ÿ  Save AINFO if the current Active file is empty so that we    Ÿ
                                   10417                       Ÿ    will guarantee that the current Active file record set is  Ÿ
                                   10418                       Ÿ    not empty.                                                 Ÿ
                                   10419                       ¾þþþþþþþþþþþþþþþþþþþþþþþþþþþþþþþþþþþþþþþþþþþþþþþþþþþþþþþþþþþþþþþ»
 000B00 4120 7646            01120 10420                       LA    R2,=CL4'INFO'
 000B04 4110 B588/4100_      00588 10421                       SETMSG CPAINFO
 000B0C 58E0 764A/0DEE       01124 10435                       ACALL ACTXPUT             Save AINFO
                                   10439              *
                                   10440              *
 000B12                            10441                       LOOP  BEGIN               Find previous...
 000B12 1805                       10447  1                      LR    R0,R5
 000B14 41F0 B484            00484 10448  1                      LA    R15,CPTEXT          Active file record group
 000B18 58E0 7676/0DEE       01150 10449  1                      VCALL XLASTSET            Get previous set number
 000B1E 4780 704E/1BFF_      00B28 10453  1                      IF    NZ,'CLEAR R15; EXIT ACTLAST'
 000B28 1850                       10476  1                      LR    R5,R0               Save Active file no
                                   10477  1
 000B2A 4110 8030/4100_      00008 10478  1                      SETMSG ALASTINF            Put AINFO here
 000B32 18F5                       10492  1                      LR    R15,R5
 000B34 58E0 765A/0DEE       01134 10493  1                      ACALL ACTGINFO            Get this Active's AINFO
 000B3A 4780 707C/900F_      00B56 10497  1                      FAIL  NZ,ALASTERR,'Multiple Active file error (ACTLAST).'
 000B56 4140 8030            00008 10520  1                      LA    R4,ALASTINF
 USING  AINFO,R4                   10521  1                      WITH  (AINFO,R4)
 000B5A D607 8028 8028_00000 00000 10534  1                      IF    (ALASTTYP,Z),EXIT   Matches everything
 000B64 9180 403B/4710_0003B       10553  1                      IF    (~AINAFCLR,AND,(AINATYPE,EQ,ALASTTYP)),EXIT
1ACT      (ACT2025) (12:40) (15MAR04) Active File Utility Routines                                                          Page   27
0Current Usings:  (AINFO,R4) (*,R7) (ALASTWA-(4+36),R8) (CP,R11) (CV,R12)
0Loc    Object Code    Addr1 Addr2  Stmt Lv Lineno    Source Statement           (Hibal 5, Asmedit 3.3)  HLASM R4.0  2004/03/15 12.40
+___    ______ ____    _____ _____  ____ __ ______    ______ _________
0                                  10588  1
 000B76 0650                       10589  1                      DECR  R5                  Try previous Active file
 000B78 47F0 7038            00B12 10591                       END
 DROP   AINFO,R4
                                   10601              *
                                   10602              *
 000B7C 18F5                       10603                       LR    R15,R5              Return Active file number
 000B7E 18D8/9808 D004_            10604                       PEND  ,
 DROP   ALASTWA-(4+36),R8
 DROP   *,R7
1ACT      (ACT2025) (12:40) (15MAR04) Active File Utility Routines                                                          Page   28
0Current Usings:  (CP,R11) (CV,R12)
0Loc    Object Code    Addr1 Addr2  Stmt Lv Lineno    Source Statement           (Hibal 5, Asmedit 3.3)  HLASM R4.0  2004/03/15 12.40
+___    ______ ____    _____ _____  ____ __ ______    ______ _________
0000000                00000 001A8 10630              ADELWA   RECORD BEGIN
 000000                            10638  1           ADELINF    DS    XL(L'AINFO)         Working AINFO area
 0001A8                001A8 001A8 10639                       END
-                                  10649              ¿þþþþþþþþþþþþþþþþþþþþþþþþþþþþþþþþþþþþþþþþþþþþþþþþþþþþþþþþþþþþþþþþþþþþþÜ
                                   10650              Ÿ                                                                     Ÿ
                                   10651              Ÿ  ACTDEL -- Routine to actually delete an Active file.  Note that    Ÿ
                                   10652              Ÿ    normally commands only "CLEAR" Active files and the ACTPURGE     Ÿ
                                   10653              Ÿ    routine handles actually deleting old cleared Actives when       Ÿ
                                   10654              Ÿ    the user has a lot of space allocated.                           Ÿ
                                   10655              Ÿ                                                                     Ÿ
                                   10656              Ÿ    On entry:                                                        Ÿ
                                   10657              Ÿ      R15 - Active file number to delete                             Ÿ
                                   10658              Ÿ                                                                     Ÿ
                                   10659              Ÿ    On exit, R15 (and cc):                                           Ÿ
                                   10660              Ÿ      0 - ok                                                         Ÿ
                                   10661              Ÿ      pos - Active file number doesn't exist                         Ÿ
                                   10662              Ÿ                                                                     Ÿ
                                                      ¾þþþþþþþþþþþþþþþþþþþþþþþþþþþþþþþþþþþþþþþþþþþþþþþþþþþþþþþþþþþþþþþþþþþþþ»
0000B8C 50E0 D000/9008_      00000 10663              ACTDEL   XPROC ADELWA
 USING  *,R7
 USING  ADELWA-(4+36),R8
 000BA6 185F                       10714                       LR    R5,R15
                                   10715
 000BA8 4110 8028/4100_      00000 10716                       SETMSG ADELINF
 000BB0 58E0 758E/0DEE       01134 10730                       ACALL ACTGINFO            Get info on this Active file
 000BB6 4770 7186            00D2C 10734                       IF    NZ,EXIT             Error, forget it
 000BBA 4140 8028            00000 10748                       LA    R4,ADELINF
 USING  AINFO,R4                   10749                       WITH  (AINFO,R4)
                                   10762
 000BBE 9180 403B/4710_0003B       10763                       IF    ~AINAFCLR,BEGIN     Only delete cleared Actives...
 000BC6 41F0 0014            00014 10778  1                      LA    R15,20              Forget it
 000BCA 47F0 7186            00D2C 10779  1                      EXIT  ACTDEL
 000BCE                            10782                       END
                                   10786                       ¿þþþþþþþþþþþþþþþþþþþþþþþþþþþþþþþþþþþÜ
                                   10787                       Ÿ  Delete the cleared Active file.  Ÿ
                                   10788                       ¾þþþþþþþþþþþþþþþþþþþþþþþþþþþþþþþþþþþ»
 000BCE 58F0 B568/06F0_      00568 10789                       DECR  R15,CPATCLR         One less cleared Active file
                                   10794
 000BD8 58F0 B578            00578 10795                       L     R15,CPATLINS        Adjust...
 000BDC 5BF0 4024            00024 10796                       S     R15,AINALNCT        ...total
 000BE0 50F0 B578            00578 10797                       ST    R15,CPATLINS        ...line count
                                   10798
 000BE4 58F0 B564            00564 10799                       L     R15,CPATBYTS        Adjust...
 000BE8 5BF0 4028            00028 10800                       S     R15,AINABYCT        ...total
 000BEC 50F0 B564            00564 10801                       ST    R15,CPATBYTS        ...byte count
                                   10802                       ¿þþþþþþþþþþþþþþþþþþþþþþþþþþþþþþþþþþþþþþþþþþþþþþþþþþþþþþþþþþþþþþÜ
                                   10803                       Ÿ  Make sure no marked block left pointing to deleted active.  Ÿ
                                   10804                       ¾þþþþþþþþþþþþþþþþþþþþþþþþþþþþþþþþþþþþþþþþþþþþþþþþþþþþþþþþþþþþþþ»
 000BF0 5950 B748/4770_      00748 10805                       IF    (R5,EQ,CPBLKACT),'CLEAR CPBLKACT'
                                   10834              *
                                   10835              *
1ACT      (ACT2025) (12:40) (15MAR04) Active File Utility Routines                                                          Page   29
0Current Usings:  (AINFO,R4) (*,R7) (ADELWA-(4+36),R8) (CP,R11) (CV,R12)
0Loc    Object Code    Addr1 Addr2  Stmt Lv Lineno    Source Statement           (Hibal 5, Asmedit 3.3)  HLASM R4.0  2004/03/15 12.40
+___    ______ ____    _____ _____  ____ __ ______    ______ _________
0000BFE 5820 4014            00014 10836                       L     R2,AINAPRNO
 000C02 5830 4010            00010 10837                       L     R3,AINANXNO
                                   10838
 000C06 1233/4780 70BE             10839                       IF    (R3,NZ),BEGIN       We have a next...
 000C0C 1814/4100 01A8             10853  1                      SETMSG AINFO
 000C12 18F3                       10867  1                      LR    R15,R3
 000C14 58E0 758E/0DEE       01134 10868  1                      ACALL ACTGINFO            Get next
 000C1A 4780 7090/900F_      00C36 10872  1                      FAIL  NZ,ACTDEL1,'Multiple Active file logic error'
 000C36 5020 4014            00014 10895  1                      ST    R2,AINAPRNO         Update back ptr
 000C3A 1814/4100 01A8             10896  1                      SETMSG AINFO
 000C40 18F3                       10910  1                      LR    R15,R3
 000C42 58E0 7592/0DEE       01138 10911  1                      ACALL ACTSINFO            Update AINFO
 000C48 4780 70BE/900F_      00C64 10915  1                      FAIL  NZ,ACTDEL2,'Multiple Active file logic error'
 000C64                            10938                       END
                                   10942
 000C64 1222/4780 711C             10943                       IF    (R2,NZ),BEGIN       We have a prev...
 000C6A 1814/4100 01A8             10957  1                      SETMSG AINFO
 000C70 18F2                       10971  1                      LR    R15,R2
 000C72 58E0 758E/0DEE       01134 10972  1                      ACALL ACTGINFO            Get prev
 000C78 4780 70EE/900F_      00C94 10976  1                      FAIL  NZ,ACTDEL3,'Multiple Active file logic error'
 000C94 5030 4010            00010 10999  1                      ST    R3,AINANXNO         Update forward ptr
 000C98 1814/4100 01A8             11000  1                      SETMSG AINFO
 000C9E 18F2                       11014  1                      LR    R15,R2
 000CA0 58E0 7592/0DEE       01138 11015  1                      ACALL ACTSINFO            Update AINFO
 000CA6 4780 711C/900F_      00CC2 11019  1                      FAIL  NZ,ACTDEL3,'Multiple Active file logic error'
 000CC2                            11042                       END
                                   11046
 000CC2 58E0 75B2/0DEE       01158 11047                       VCALL GETCPU              Current CPU time
 000CC8 1841                       11051                       LR    R4,R1               Save total
                                   11052
 000CCA 1805                       11053                       LR    R0,R5
 000CCC 41F0 B484            00484 11054                       LA    R15,CPTEXT          Active file record group
 000CD0 58E0 7576/0DEE       0111C 11055                       VCALL XDELSET             Delete Active file
                                   11059
 000CD6 4100 0007            00007 11060                       LA    R0,CP#OOPS          Oops lines are kept here
 000CDA 41F0 B524            00524 11061                       LA    R15,CPRG16          Misc record group
 000CDE 58E0 756A/0DEE       01110 11062                       VCALL XSETSET
 000CE4 183D/41D0 D020             11066                       XPUSH ,,32,PTR=R3
 000CEA D70F 3000 3000 00000 00000 11069                       CLEAR (@R3,16)            First record
 000CF0 D20F 3010 7522 00010 010C8 11076                       MVC   @R3+16(16),=16X'FF'  Last record
 000CF6 5050 3000            00000 11077                       ST    R5,@R3              Active file number
 000CFA 5050 3010            00010 11078                       ST    R5,@R3+16           Ditto
 000CFE 4100 3000            00000 11079                       LA    R0,@R3              R0 = key of first record
 000D02 4110 3010            00010 11080                       LA    R1,@R3+16           R1 = key of last record
 000D06 1B22                       11081                       CLEAR R2                  (Don't span sets)
 000D08 41F0 B524            00524 11085                       LA    R15,CPRG16          Misc record group
 000D0C 58E0 75B6/0DEE       0115C 11086                       VCALL XDELRECS            Delete OOPS lines
 000D12 4BD0 7620            011C6 11090                       XPOP  ,,32
                                   11092
 000D16 58E0 75B2/0DEE       01158 11093                       VCALL GETCPU              Ending CPU time
 000D1C 1B14                       11097                       SR    R1,R4               CPU time take for XDELSET
 000D1E 47D0 7186            00D2C 11098                       IF    POS,BEGIN           Valid...
 000D22 5840 C6FC            006FC 11109  1                      L     R4,CVRCPUTM         Dispatch starting time
 000D26 1A41                       11110  1                      AR    R4,R1               This deducts XDELSET time
1ACT      (ACT2025) (12:40) (15MAR04) Active File Utility Routines                                                          Page   30
0Current Usings:  (AINFO,R4) (*,R7) (ADELWA-(4+36),R8) (CP,R11) (CV,R12)
0Loc    Object Code    Addr1 Addr2  Stmt Lv Lineno    Source Statement           (Hibal 5, Asmedit 3.3)  HLASM R4.0  2004/03/15 12.40
+___    ______ ____    _____ _____  ____ __ ______    ______ _________
0000D28 5040 C6FC            006FC 11111  1                      ST    R4,CVRCPUTM         Update
 000D2C                            11112                       END
                                   11116
 000D2C 18D8/9808 D004_            11117                       PEND  ,
 DROP   AINFO,R4
 DROP   ADELWA-(4+36),R8
 DROP   *,R7
1ACT      (ACT2025) (12:40) (15MAR04) Active File Utility Routines                                                          Page   31
0Current Usings:  (CP,R11) (CV,R12)
0Loc    Object Code    Addr1 Addr2  Stmt Lv Lineno    Source Statement           (Hibal 5, Asmedit 3.3)  HLASM R4.0  2004/03/15 12.40
+___    ______ ____    _____ _____  ____ __ ______    ______ _________
0                                  11148              ¿þþþþþþþþþþþþþþþþþþþþþþþþþþþþþþþþþþþþþþþþþþþþþþþþþþþþþþþþþþþþþþþþþþþþþÜ
                                   11149              Ÿ                                                                     Ÿ
                                   11150              Ÿ  ACTFULL -- Routine to determine if the Active file area is         Ÿ
                                   11151              Ÿ    full.                                                            Ÿ
                                   11152              Ÿ                                                                     Ÿ
                                   11153              Ÿ    On exit, R15 (and cc):                                           Ÿ
                                   11154              Ÿ      0 - not full (normal)                                          Ÿ
                                   11155              Ÿ      4 - full                                                       Ÿ
                                   11156              Ÿ                                                                     Ÿ
                                                      ¾þþþþþþþþþþþþþþþþþþþþþþþþþþþþþþþþþþþþþþþþþþþþþþþþþþþþþþþþþþþþþþþþþþþþþ»
0000D3A 50E0 D000/9008_      00000 11157              ACTFULL  XPROC ,
 USING  *,R7
 000D54 1BFF                       11197                       CLEAR R15
 000D56 D503 740C B564_01160 00564 11201                       IF    (CPATBYTS,GT,=A(CPATLIM#-32768)),'LA R15,4'  Full
 000D64 18D8/9808 D004_            11224                       PEND  ,
 DROP   *,R7
1ACT      (ACT2025) (12:40) (15MAR04) Active File Utility Routines                                                          Page   32
0Current Usings:  (CP,R11) (CV,R12)
0Loc    Object Code    Addr1 Addr2  Stmt Lv Lineno    Source Statement           (Hibal 5, Asmedit 3.3)  HLASM R4.0  2004/03/15 12.40
+___    ______ ____    _____ _____  ____ __ ______    ______ _________
0000000                00000 001B0 11245              APURGEWA RECORD BEGIN
 000000                            11253  1           APURINF    DS    XL(L'AINFO)         Working AINFO area
                                   11254  1
 0001A8                            11255  1           APURBYCT   DS    F                   Prev Active's byte count
 0001AC                            11256  1           APURLNCT   DS    F                   Prev Active's line count
 0001B0                001B0 001B0 11257                       END
-                                  11267              ¿þþþþþþþþþþþþþþþþþþþþþþþþþþþþþþþþþþþþþþþþþþþþþþþþþþþþþþþþþþþþþþþþþþþþþÜ
                                   11268              Ÿ                                                                     Ÿ
                                   11269              Ÿ  ACTPURGE -- Routine to purge (delete) old cleared Active files     Ÿ
                                   11270              Ÿ    if the user is using a lot of Active file space.  We will        Ÿ
                                   11271              Ÿ    purge the oldest cleared Active file and continue with more      Ÿ
                                   11272              Ÿ    recent cleared Active files until the user is under the file     Ÿ
                                   11273              Ÿ    space threshold.                                                 Ÿ
                                   11274              Ÿ                                                                     Ÿ
                                   11275              Ÿ    We will never delete the most recently cleared Active file.      Ÿ
                                   11276              Ÿ    This means that the user can guarantee that he can retreive      Ÿ
                                   11277              Ÿ    the last Active file he cleared; and there is a "best effort"    Ÿ
                                   11278              Ÿ    to keep older cleared Active files around.  Now is that          Ÿ
                                   11279              Ÿ    user-friendly to the max or what!                                Ÿ
                                   11280              Ÿ                                                                     Ÿ
                                   11281              Ÿ    If the user only has one huge cleared Active file and we are     Ÿ
                                   11282              Ÿ    going to run the risk of running out of space then we will       Ÿ
                                   11283              Ÿ    purge the most recently cleared Active file.                     Ÿ
                                   11284              Ÿ                                                                     Ÿ
                                                      ¾þþþþþþþþþþþþþþþþþþþþþþþþþþþþþþþþþþþþþþþþþþþþþþþþþþþþþþþþþþþþþþþþþþþþþ»
0000D72 50E0 D000/9008_      00000 11285              ACTPURGE PROC  APURGEWA
 USING  *,R7
 USING  APURGEWA-(4+36),R8
                                   11335                       ¿þþþþþþþþþþþþþþþþþþþþþþþþþþþþþþþþþþþþþþþþþþþþþþþþþþþþþþþÜ
                                   11336                       Ÿ  Check to see if it's time to purge cleared Actives.  Ÿ
                                   11337                       ¾þþþþþþþþþþþþþþþþþþþþþþþþþþþþþþþþþþþþþþþþþþþþþþþþþþþþþþþ»
 000D8C D503 73D8 B564_01164 00564 11338                       IF    (CPATBYTS,LE,=A(CPATMAX#)),APUREXIT  Scram
                                   11358                       ¿þþþþþþþþþþþþþþþþþþþþþþþþþþþþþþþþþþþþþþþþþþþþþþþþþÜ
                                   11359                       Ÿ  Go through and purge the old cleared Actives.  Ÿ
                                   11360                       ¾þþþþþþþþþþþþþþþþþþþþþþþþþþþþþþþþþþþþþþþþþþþþþþþþþ»
 000D96 1B55                       11361                       CLEAR R5                  Working Active file number
                                   11365
 000D98                            11366                       LOOP  BEGIN
 000D98 D503 73DC B564_01168 00564 11372  1                      IF    (CPATBYTS,LE,=A(CPATMIN#)),APUREXIT  No probs, scram
                                   11392  1
 000DA2 D503 73E0 B564_0116C 00564 11393  1                      IF    (CPATBYTS,LT,=A(CPATBIG#)),BEGIN  Keep one cleared...
 000DAC D503 73E4 B568_01170 00568 11410  2                        IF    (CPATCLR,LE,1),APUREXIT  No eligible cleared Actives
 000DB6                            11431  1                      END
                                   11435  1
 000DB6 4150 5001            00001 11436  1                      LA    R5,@R5+1            Next Active file
                                   11437  1
 000DBA 1805                       11438  1                      LR    R0,R5
 000DBC 41F0 B484            00484 11439  1                      LA    R15,CPTEXT          Active file record group
 000DC0 58E0 73C8/0DEE       01154 11440  1                      VCALL XFRSTSET            Get next Active file no
 000DC6 4770 70A0            00E2C 11444  1                      IF    NZ,EXIT             Nothing left, scram
 000DCA 1850                       11458  1                      LR    R5,R0               Save Active file number
1ACT      (ACT2025) (12:40) (15MAR04) Active File Utility Routines                                                          Page   33
0Current Usings:  (*,R7) (APURGEWA-(4+36),R8) (CP,R11) (CV,R12)
0Loc    Object Code    Addr1 Addr2  Stmt Lv Lineno    Source Statement           (Hibal 5, Asmedit 3.3)  HLASM R4.0  2004/03/15 12.40
+___    ______ ____    _____ _____  ____ __ ______    ______ _________
0                                  11459  1
 000DCC 4110 8028/4100_      00000 11460  1                      SETMSG APURINF             Put AINFO here
 000DD4 18F5                       11474  1                      LR    R15,R5
 000DD6 58E0 73A8/0DEE       01134 11475  1                      ACALL ACTGINFO
 000DDC 4780 706C/900F_      00DF8 11479  1                      FAIL  NZ,APURERR1,'Multiple Active file logic problem.'
 000DF8 4140 8028            00000 11502  1                      LA    R4,APURINF
 USING  AINFO,R4                   11503  1                      WITH  (AINFO,R4)
                                   11516  1
 000DFC 9180 403B/47E0_0003B       11517  1                      IF    AINAFCLR,BEGIN      Delete it...
 000E04 18F5                       11532  2                        LR    R15,R5
 000E06 58E0 73E8/0DEE       01174 11533  2                        ACALL ACTDEL              Actually delete the Active file
 000E0C 4780 709C/900F_      00E28 11537  2                        FAIL  NZ,APURERR2,'Multiple Active file logic problem.'
 000E28                            11560  1                      END
 000E28 47F0 700C            00D98 11564                       END
 DROP   AINFO,R4
                                   11574
 000E2C 18D8/9808 D004_            11575              APUREXIT PEND  ,
 DROP   APURGEWA-(4+36),R8
 DROP   *,R7
1ACT      (ACT2025) (12:40) (15MAR04) Active File Utility Routines                                                          Page   34
0Current Usings:  (CP,R11) (CV,R12)
0Loc    Object Code    Addr1 Addr2  Stmt Lv Lineno    Source Statement           (Hibal 5, Asmedit 3.3)  HLASM R4.0  2004/03/15 12.40
+___    ______ ____    _____ _____  ____ __ ______    ______ _________
0                                  11602              ¿þþþþþþþþþþþþþþþþþþþþþþþþþþþþþþþþþþþþþþþþþþþþþþþþþþþþþþþþþþþþþþþþþþþþþÜ
                                   11603              Ÿ                                                                     Ÿ
                                   11604              Ÿ  ACTGINFO -- Routine to return the Active file information record   Ÿ
                                   11605              Ÿ    to the caller.                                                   Ÿ
                                   11606              Ÿ                                                                     Ÿ
                                   11607              Ÿ    On entry:                                                        Ÿ
                                   11608              Ÿ      R1,R0 - AINFO loc, len                                         Ÿ
                                   11609              Ÿ      R15 - Active file set number                                   Ÿ
                                   11610              Ÿ                                                                     Ÿ
                                   11611              Ÿ    On exit, R15 (and cc):                                           Ÿ
                                   11612              Ÿ          0   = ok                                                   Ÿ
                                   11613              Ÿ          pos = no such Active file                                  Ÿ
                                   11614              Ÿ                                                                     Ÿ
                                                      ¾þþþþþþþþþþþþþþþþþþþþþþþþþþþþþþþþþþþþþþþþþþþþþþþþþþþþþþþþþþþþþþþþþþþþþ»
0000E3A 50E0 D000/9008_      00000 11615              ACTGINFO XPROC ,
 USING  *,R7
                                   11655                       ¿þþþþþþþþþþþþþþþþþþþþþþþþþþþþþþþþþþþþþþþþþþþþþþþþþþþþþþþþþþþþþþþÜ
                                   11656                       Ÿ  Return AINFO from CP if request is for current Active file.  Ÿ
                                   11657                       ¾þþþþþþþþþþþþþþþþþþþþþþþþþþþþþþþþþþþþþþþþþþþþþþþþþþþþþþþþþþþþþþþ»
 000E54 59F0 B57C/4770_      0057C 11658                       IF    (R15,EQ,CPACTNO),BEGIN  Asking about current...
 000E5C 1821                       11675  1                      LR    R2,R1
 000E5E 1830                       11676  1                      LR    R3,R0
 000E60 4140 B588            00588 11677  1                      LA    R4,CPAINFO
 000E64 4150 01A8            001A8 11678  1                      LA    R5,L'CPAINFO
 000E68 0E24                       11679  1                      MVCL  R2,R4               Copy CPAINFO to caller's area
                                   11680  1
 000E6A 1B55                       11681  1                      CLEAR R5                  Return code, A-ok
 000E6C                            11685                       END
                                   11689
 000E6C 701C/47F0 7056 00E6C 00E5A 11690                       ELSE  BEGIN               Otherwise read info...
                                   11701  1                      ¿þþþþþþþþþþþþþþþþþþþþþþþþþþþþþþþþþþþÜ
                                   11702  1                      Ÿ  Switch to requested set number.  Ÿ
                                   11703  1                      ¾þþþþþþþþþþþþþþþþþþþþþþþþþþþþþþþþþþþ»
 000E70 9001 D000/41D0_      00000 11704  1                      XPUSH R0,R1
                                   11707  1
 000E78 180F                       11708  1                      LR    R0,R15
 000E7A 41F0 B484            00484 11709  1                      LA    R15,CPTEXT          Active file record group
 000E7E 58E0 72BC/0DEE       01110 11710  1                      VCALL XSETSET             Switch to new set
 000E84 183F                       11714  1                      LR    R3,R15              Save previous set number
                                   11715  1                      ¿þþþþþþþþþþþþþþþþþþþþþÜ
                                   11716  1                      Ÿ  Get AINFO record.  Ÿ
                                   11717  1                      ¾þþþþþþþþþþþþþþþþþþþþþ»
 000E86 4120 72CC            01120 11718  1                      LA    R2,=CL4'INFO'
 000E8A 4BD0 7374/9801_      011C8 11719  1                      XPOP  R0,R1               Data buffer
 000E92 41F0 B484            00484 11722  1                      LA    R15,CPTEXT          Active file record group
 000E96 58E0 72F8/0DEE       0114C 11723  1                      VCALL XGET                Get INFO record
 000E9C 185F                       11727  1                      LR    R5,R15              Save return code
                                   11728  1                      ¿þþþþþþþþþþþþþþþþþþþþþþþþþþþþþþþþÜ
                                   11729  1                      Ÿ  Restore previous set number.  Ÿ
                                   11730  1                      ¾þþþþþþþþþþþþþþþþþþþþþþþþþþþþþþþþ»
 000E9E 1803                       11731  1                      LR    R0,R3
 000EA0 41F0 B484            00484 11732  1                      LA    R15,CPTEXT          Active file record group
 000EA4 58E0 72BC/0DEE       01110 11733  1                      VCALL XSETSET             Switch back to previous set
1ACT      (ACT2025) (12:40) (15MAR04) Active File Utility Routines                                                          Page   35
0Current Usings:  (*,R7) (CP,R11) (CV,R12)
0Loc    Object Code    Addr1 Addr2  Stmt Lv Lineno    Source Statement           (Hibal 5, Asmedit 3.3)  HLASM R4.0  2004/03/15 12.40
+___    ______ ____    _____ _____  ____ __ ______    ______ _________
0000EAA                            11737                       END
                                   11741
 000EAA 18F5                       11742                       LR    R15,R5              Return code
 000EAC 18D8/9808 D004_            11743                       PEND  ,
 DROP   *,R7
1ACT      (ACT2025) (12:40) (15MAR04) Active File Utility Routines                                                          Page   36
0Current Usings:  (CP,R11) (CV,R12)
0Loc    Object Code    Addr1 Addr2  Stmt Lv Lineno    Source Statement           (Hibal 5, Asmedit 3.3)  HLASM R4.0  2004/03/15 12.40
+___    ______ ____    _____ _____  ____ __ ______    ______ _________
0                                  11764              ¿þþþþþþþþþþþþþþþþþþþþþþþþþþþþþþþþþþþþþþþþþþþþþþþþþþþþþþþþþþþþþþþþþþþþþÜ
                                   11765              Ÿ                                                                     Ÿ
                                   11766              Ÿ  ACTSINFO -- Routine to set the Active file information.            Ÿ
                                   11767              Ÿ                                                                     Ÿ
                                   11768              Ÿ    On entry:                                                        Ÿ
                                   11769              Ÿ      R1,R0 - AINFO loc, len                                         Ÿ
                                   11770              Ÿ      R15 - Active file set number                                   Ÿ
                                   11771              Ÿ                                                                     Ÿ
                                   11772              Ÿ    On exit, R15 (and cc):                                           Ÿ
                                   11773              Ÿ          0   = ok                                                   Ÿ
                                   11774              Ÿ                                                                     Ÿ
                                                      ¾þþþþþþþþþþþþþþþþþþþþþþþþþþþþþþþþþþþþþþþþþþþþþþþþþþþþþþþþþþþþþþþþþþþþþ»
0000EBA 50E0 D000/9008_      00000 11775              ACTSINFO XPROC ,
 USING  *,R7
                                   11815                       ¿þþþþþþþþþþþþþþþþþþþþþþþþþþþþþþþþþþþþþþþþþþþþþþþþþþþþþþþþþþÜ
                                   11816                       Ÿ  Set AINFO in CP if request is for current Active file.  Ÿ
                                   11817                       ¾þþþþþþþþþþþþþþþþþþþþþþþþþþþþþþþþþþþþþþþþþþþþþþþþþþþþþþþþþþ»
 000ED4 59F0 B57C/4770_      0057C 11818                       IF    (R15,EQ,CPACTNO),BEGIN  Asking about current...
 000EDC 1821                       11835  1                      LR    R2,R1
 000EDE 1830                       11836  1                      LR    R3,R0
 000EE0 4140 B588            00588 11837  1                      LA    R4,CPAINFO
 000EE4 4150 01A8            001A8 11838  1                      LA    R5,L'CPAINFO
 000EE8 0E42                       11839  1                      MVCL  R4,R2               Copy to CPAINFO
                                   11840  1
 000EEA 1B55                       11841  1                      CLEAR R5                  Return code, A-ok
 000EEC                            11845                       END
                                   11849
 000EEC 701C/47F0 7050 00EEC 00EDA 11850                       ELSE  BEGIN               Otherwise set "INFO" record...
                                   11861  1                      ¿þþþþþþþþþþþþþþþþþþþþþþþþþþþþþþþþþþþÜ
                                   11862  1                      Ÿ  Switch to requested set number.  Ÿ
                                   11863  1                      ¾þþþþþþþþþþþþþþþþþþþþþþþþþþþþþþþþþþþ»
 000EF0 9001 D000/41D0_      00000 11864  1                      XPUSH R0,R1
                                   11867  1
 000EF8 180F                       11868  1                      LR    R0,R15
 000EFA 41F0 B484            00484 11869  1                      LA    R15,CPTEXT          Active file record group
 000EFE 58E0 723C/0DEE       01110 11870  1                      VCALL XSETSET             Switch to new set
 000F04 183F                       11874  1                      LR    R3,R15              Save previous set number
                                   11875  1                      ¿þþþþþþþþþþþþþþþþþþþþþÜ
                                   11876  1                      Ÿ  Set AINFO record.  Ÿ
                                   11877  1                      ¾þþþþþþþþþþþþþþþþþþþþþ»
 000F06 4120 724C            01120 11878  1                      LA    R2,=CL4'INFO'
 000F0A 4BD0 72F4/9801_      011C8 11879  1                      XPOP  R0,R1               Data buffer
 000F12 58E0 7250/0DEE       01124 11882  1                      ACALL ACTXPUT             Put INFO record
                                   11886  1                      ¿þþþþþþþþþþþþþþþþþþþþþþþþþþþþþþþþÜ
                                   11887  1                      Ÿ  Restore previous set number.  Ÿ
                                   11888  1                      ¾þþþþþþþþþþþþþþþþþþþþþþþþþþþþþþþþ»
 000F18 1803                       11889  1                      LR    R0,R3
 000F1A 41F0 B484            00484 11890  1                      LA    R15,CPTEXT          Active file record group
 000F1E 58E0 723C/0DEE       01110 11891  1                      VCALL XSETSET             Switch back to previous set
 000F24                            11895                       END
                                   11899
 000F24 1BFF                       11900                       CLEAR R15                 Return code
 000F26 18D8/9808 D004_            11904                       PEND  ,
1ACT      (ACT2025) (12:40) (15MAR04) Active File Utility Routines                                                          Page   37
0Current Usings:  (CP,R11) (CV,R12)
0Loc    Object Code    Addr1 Addr2  Stmt Lv Lineno    Source Statement           (Hibal 5, Asmedit 3.3)  HLASM R4.0  2004/03/15 12.40
+___    ______ ____    _____ _____  ____ __ ______    ______ _________
0DROP   *,R7
1ACT      (ACT2025) (12:40) (15MAR04) Active File Utility Routines                                                          Page   38
0Current Usings:  (CP,R11) (CV,R12)
0Loc    Object Code    Addr1 Addr2  Stmt Lv Lineno    Source Statement           (Hibal 5, Asmedit 3.3)  HLASM R4.0  2004/03/15 12.40
+___    ______ ____    _____ _____  ____ __ ______    ______ _________
0000000                00000 00080 11925              AVSAVEWA RECORD BEGIN
 000000                            11933  1           AVSAVMSG   DS    CL128               Message area
 000080                00080 00080 11934                       END
-                                  11944              ¿þþþþþþþþþþþþþþþþþþþþþþþþþþþþþþþþþþþþþþþþþþþþþþþþþþþþþþþþþþþþþþþþþþþþþÜ
                                   11945              Ÿ                                                                     Ÿ
                                   11946              Ÿ  ACTVSAVE -- Routine to save the view position in the current       Ÿ
                                   11947              Ÿ    Active file.                                                     Ÿ
                                   11948              Ÿ                                                                     Ÿ
                                   11949              Ÿ    On entry:                                                        Ÿ
                                   11950              Ÿ      nothing (current Active file assumed)                          Ÿ
                                   11951              Ÿ                                                                     Ÿ
                                   11952              Ÿ    On exit:                                                         Ÿ
                                   11953              Ÿ      0 - ok                                                         Ÿ
                                   11954              Ÿ                                                                     Ÿ
                                                      ¾þþþþþþþþþþþþþþþþþþþþþþþþþþþþþþþþþþþþþþþþþþþþþþþþþþþþþþþþþþþþþþþþþþþþþ»
0000F34 50E0 D000/9008_      00000 11955              ACTVSAVE XPROC AVSAVEWA
 USING  *,R7
 USING  AVSAVEWA-(4+36),R8
 000F4E D27F 8028 C4D8 00000 004D8 12006                       MVC   AVSAVMSG,CVBLANKS   Blank area to full length MPD
 000F54 4110 8028/4100_      00000 12007                       SETMSG AVSAVMSG
 000F5C 58E0 71DA/0DEE       01128 12021                       VCALL GETVINFO            Get current view info
 000F62 4770 702A            00F78 12025                       IF    Z,BEGIN             We are viewing this Active...
 000F66 4120 71DE            0112C 12036  1                      LA    R2,=CL4'VIEW'       (Four char "line-number")
 000F6A 4110 8028/4100_      00000 12037  1                      SETMSG AVSAVMSG            Save the full length (MPD)
 000F72 58E0 71D6/0DEE       01124 12051  1                      ACALL ACTXPUT             Add record
 000F78                            12055                       END
 000F78 18D8/9808 D004_            12059                       PEND  ,
 DROP   AVSAVEWA-(4+36),R8
 DROP   *,R7
1ACT      (ACT2025) (12:40) (15MAR04) Active File Utility Routines                                                          Page   39
0Current Usings:  (CP,R11) (CV,R12)
0Loc    Object Code    Addr1 Addr2  Stmt Lv Lineno    Source Statement           (Hibal 5, Asmedit 3.3)  HLASM R4.0  2004/03/15 12.40
+___    ______ ____    _____ _____  ____ __ ______    ______ _________
0000000                00000 00080 12085              AVRESTWA RECORD BEGIN
 000000                            12093  1           AVRESMSG   DS    CL128               Message area
 000080                00080 00080 12094                       END
-                                  12104              ¿þþþþþþþþþþþþþþþþþþþþþþþþþþþþþþþþþþþþþþþþþþþþþþþþþþþþþþþþþþþþþþþþþþþþþÜ
                                   12105              Ÿ                                                                     Ÿ
                                   12106              Ÿ  ACTVREST -- Routine to restore the previous view position          Ÿ
                                   12107              Ÿ    in the current Active file.                                      Ÿ
                                   12108              Ÿ                                                                     Ÿ
                                   12109              Ÿ    On entry:                                                        Ÿ
                                   12110              Ÿ      nothing (current Active file assumed)                          Ÿ
                                   12111              Ÿ                                                                     Ÿ
                                   12112              Ÿ    On exit:                                                         Ÿ
                                   12113              Ÿ      0 - ok                                                         Ÿ
                                   12114              Ÿ                                                                     Ÿ
                                                      ¾þþþþþþþþþþþþþþþþþþþþþþþþþþþþþþþþþþþþþþþþþþþþþþþþþþþþþþþþþþþþþþþþþþþþþ»
0000F86 50E0 D000/9008_      00000 12115              ACTVREST XPROC AVRESTWA
 USING  *,R7
 USING  AVRESTWA-(4+36),R8
 000FA0 4120 718C            0112C 12166                       LA    R2,=CL4'VIEW'
 000FA4 4110 8028/4100_      00000 12167                       SETMSG AVRESMSG
 000FAC 41F0 B484            00484 12181                       LA    R15,CPTEXT          Active file record group
 000FB0 58E0 71AC/0DEE       0114C 12182                       VCALL XGET                Get info line
 000FB6 4780 701E/1B00_      00FBE 12186                       IF    NZ,'CLEAR R0,R1'
 000FBE 7022/47F0 7028 00FBE 00FB8 12208                       ELSE  BEGIN
 000FC2 58E0 71D8/0DEE       01178 12219  1                      VCALL RTRIM               Trim it back MPD
 000FC8                            12223                       END
 000FC8 58E0 7178/0DEE       01118 12227                       VCALL SETVINFO            Set view position
                                   12231
 000FCE 1BFF                       12232                       CLEAR R15                 A-ok
 000FD0 18D8/9808 D004_            12236                       PEND  ,
 DROP   AVRESTWA-(4+36),R8
 DROP   *,R7
1ACT      (ACT2025) (12:40) (15MAR04) Active File Utility Routines                                                          Page   40
0Current Usings:  (CP,R11) (CV,R12)
0Loc    Object Code    Addr1 Addr2  Stmt Lv Lineno    Source Statement           (Hibal 5, Asmedit 3.3)  HLASM R4.0  2004/03/15 12.40
+___    ______ ____    _____ _____  ____ __ ______    ______ _________
0000000                00000 000EB 12262              ADUPWA   RECORD BEGIN
                                   12270  1           ADUPLINE   DS    CL(&LINESZ)         Working line text area
 000000                                   1          +ADUPLINE   DS    CL(235)             Working line text area
 0000EB                000EB 000EB 12271                       END
-                                  12281              ¿þþþþþþþþþþþþþþþþþþþþþþþþþþþþþþþþþþþþþþþþþþþþþþþþþþþþþþþþþþþþþþþþþþþþþÜ
                                   12282              Ÿ                                                                     Ÿ
                                   12283              Ÿ  ACTDUP -- Routine to copy the contents of the Active file          Ÿ
                                   12284              Ÿ    specified into the current Active file.                          Ÿ
                                   12285              Ÿ                                                                     Ÿ
                                   12286              Ÿ    On entry:                                                        Ÿ
                                   12287              Ÿ      R15 - Active file number of source Active file                 Ÿ
                                   12288              Ÿ                                                                     Ÿ
                                   12289              Ÿ    Returns only if OK.                                              Ÿ
                                   12290              Ÿ                                                                     Ÿ
                                                      ¾þþþþþþþþþþþþþþþþþþþþþþþþþþþþþþþþþþþþþþþþþþþþþþþþþþþþþþþþþþþþþþþþþþþþþ»
0000FDE 50E0 D000/9008_      00000 12291              ACTDUP   XPROC ADUPWA
 USING  *,R7
 USING  ADUPWA-(4+36),R8
 000FF8 184F                       12342                       LR    R4,R15              Source Active file number
                                   12343                       ¿þþþþþþþþþþþþþþþþþþþþþþþþþþþþþþþþþþþþþþþþþþþþþþÜ
                                   12344                       Ÿ  Copy the lines by calling GETLINE/PUTLINE.  Ÿ
                                   12345                       ¾þþþþþþþþþþþþþþþþþþþþþþþþþþþþþþþþþþþþþþþþþþþþþþ»
 000FFA 1B55                       12346                       CLEAR R5                  Working line-number
                                   12350
 000FFC                            12351                       LOOP  BEGIN               Go for it...
 000FFC 18F5                       12357  1                      LR    R15,R5              Line-number
 000FFE 4110 8028/4100_      00000 12358  1                      SETMSG ADUPLINE            Line text
 001006 1824                       12372  1                      LR    R2,R4               Active file number
 001008 58E0 7184/0DEE       0117C 12373  1                      ACALL GETLINEX            Get line text
 00100E 4740 7036            0102E 12377  1                      IF    NEG,EXIT            All done, scram
                                   12391  1
 001012 5850 B73C            0073C 12392  1                      L     R5,CPLCNO           Line-number
                                   12393  1
 001016 18F5                       12394  1                      LR    R15,R5
 001018 58E0 7188/0DEE       01180 12395  1                      ACALL PUTLINE             Add line to current Active
                                   12399  1
 00101E 5A50 C4D0            004D0 12400  1                      A     R5,CVONE            Next line
 001022 5950 C15C/4720_      0015C 12401  1                      IF    (R5,GT,CVMAXLNO),EXIT  All done
 00102A 47F0 7004            00FFC 12421                       END
                                   12426
 00102E 1BFF                       12427                       CLEAR R15                 Set good RC (tidy)
 001030 18D8/9808 D004_            12431                       PEND  ,
 DROP   ADUPWA-(4+36),R8
 DROP   *,R7
1ACT      (ACT2025) (12:40) (15MAR04) Active File Utility Routines                                                          Page   41
0Current Usings:  (CP,R11) (CV,R12)
0Loc    Object Code    Addr1 Addr2  Stmt Lv Lineno    Source Statement           (Hibal 5, Asmedit 3.3)  HLASM R4.0  2004/03/15 12.40
+___    ______ ____    _____ _____  ____ __ ______    ______ _________
0                                  12457              ¿þþþþþþþþþþþþþþþþþþþþþþþþþþþþþþþþþþþþþþþþþþþþþþþþþþþþþþþþþþþþþþþþþþþþþÜ
                                   12458              Ÿ                                                                     Ÿ
                                   12459              Ÿ  ACTXPUT -- Routine to do an XPUT into the Active file.             Ÿ
                                   12460              Ÿ    This routine is used to put control "lines" (such as the         Ÿ
                                   12461              Ÿ    AINFO) in to the Active file.  Regular data lines are added      Ÿ
                                   12462              Ÿ    via PUTLINE (not by this code).                                  Ÿ
                                   12463              Ÿ                                                                     Ÿ
                                   12464              Ÿ    Special care is taken to first try an in place replacement       Ÿ
                                   12465              Ÿ    of the line, so we won't get tripped up trying to replace        Ÿ
                                   12466              Ÿ    an AINFO record in an Active file which is full.  (See           Ÿ
                                   12467              Ÿ    comments in XREPLACE in the RECS modules for more info.)         Ÿ
                                   12468              Ÿ                                                                     Ÿ
                                   12469              Ÿ    On entry:                                                        Ÿ
                                   12470              Ÿ      R1,R0 - data loc, len                                          Ÿ
                                   12471              Ÿ      @R2 - key data ptr (lineno)                                    Ÿ
                                   12472              Ÿ                                                                     Ÿ
                                   12473              Ÿ    Returns only if OK.                                              Ÿ
                                   12474              Ÿ                                                                     Ÿ
                                                      ¾þþþþþþþþþþþþþþþþþþþþþþþþþþþþþþþþþþþþþþþþþþþþþþþþþþþþþþþþþþþþþþþþþþþþþ»
000103E 50E0 D000/9008_      00000 12475              ACTXPUT  PROC  ,
 USING  *,R7
 001058 1861                       12514                       LR    R6,R1
 00105A 1850                       12515                       LR    R5,R0
                                   12516                       ¿þþþþþþþþþþþþþþþþþþþþþþþþþþþþþþþþþþþþþþþþþþþÜ
                                   12517                       Ÿ  First try in place replacement of line.  Ÿ
                                   12518                       ¾þþþþþþþþþþþþþþþþþþþþþþþþþþþþþþþþþþþþþþþþþþþ»
 00105C 41F0 B484            00484 12519                       LA    R15,CPTEXT          Active file record group
 001060 58E0 712C/0DEE       01184 12520                       VCALL XREPLACE            Replace the line
 001066 4780 7052            010AA 12524                       BZ    ACTPEXIT            A-ok, scram
                                   12525                       ¿þþþþþþþþþþþþþþþþþþþþþþþþþþþþþþþþþþþþþþþþþþþþþþþþþþþþþþþþþÜ
                                   12526                       Ÿ  It didn't work, so now try a regular put of the line.  Ÿ
                                   12527                       ¾þþþþþþþþþþþþþþþþþþþþþþþþþþþþþþþþþþþþþþþþþþþþþþþþþþþþþþþþþ»
 00106A 1816/1805                  12528                       SETMSG (R6),(R5)           Line data
 00106E 4130 7130            01188 12540                       LA    R3,=C'....'         Default options
 001072 41F0 B484            00484 12541                       LA    R15,CPTEXT          Active file record group
 001076 58E0 7134/0DEE       0118C 12542                       VCALL XPUTLINE            Add/replace line
 00107C 4780 7052            010AA 12546                       BZ    ACTPEXIT            It worked, scram
                                   12547                       ¿þþþþþþþþþþþþþþþþþþþþþþþþþþÜ
                                   12548                       Ÿ  We can't add the line.  Ÿ
                                   12549                       ¾þþþþþþþþþþþþþþþþþþþþþþþþþþ»
 001080 59F0 7138/4780_      01190 12550                       IF    (R15,NE,4),'ABORT "Active file logic error."'
                                   12579
 001094 41F0 7098            010F0 12580                       LA    R15,=CL8'ACTFULL'
 001098 58E0 713C/0DEE       01194 12581                       VCALL LOGCMD
                                   12585
 00109E 4110 7172/4100_      011CA 12586                       ABORT 'Active file space is full.'
                                   12593              *
                                   12594              *
 0010AA 18D8/9808 D004_            12595              ACTPEXIT PEND  ,
 DROP   *,R7
                                   12616
                                   12617                       QLTORG
1ACT      (ACT2025) (12:40) (15MAR04) Active File Utility Routines                                                          Page   42
0Current Usings:  (CP,R11) (CV,R12)
0Loc    Object Code    Addr1 Addr2  Stmt Lv Lineno    Source Statement           (Hibal 5, Asmedit 3.3)  HLASM R4.0  2004/03/15 12.40
+___    ______ ____    _____ _____  ____ __ ______    ______ _________
0                                  12679              ¿þþþþþþþþþþþþþþþþþþþþþþþþþþþþþþþþþþþþþþþþþþþþþþþþþþþþþþþþþþþþþþþþþþþþþÜ
                                   12680              Ÿ                                                                     Ÿ
                                   12681              Ÿ  ACTPFX -- Routine to set the Active file prefix information        Ÿ
                                   12682              Ÿ    if appropriate.                                                  Ÿ
                                   12683              Ÿ                                                                     Ÿ
                                                      ¾þþþþþþþþþþþþþþþþþþþþþþþþþþþþþþþþþþþþþþþþþþþþþþþþþþþþþþþþþþþþþþþþþþþþþ»
00011E4 50E0 D000/9008_      00000 12684              ACTPFX   XPROC ,
 USING  *,R7
 0011FE 9180 BD52/47E0_00D52       12724                       IF    CPLFLG3.CPFSET,BEGIN  Set prefix...
 001206 58E0 7D3A/0DEE       01F38 12740  1                      VCALL SETPFXNS            Set prefix
                                   12744  1
 00120C D507 7D02 B588_01F00 00588 12745  1                      IF    (CPANAME,EQ,=CL8'NEW'),BEGIN  Set Active name...
 001216 D503 7CFE B628_01EFC 00628 12762  2                        IF    (CPAFNAMEL,GT,0),BEGIN
                                   12780  3
                                   12781  3                          COMMENT                   IF SMALL NAME
 001220 D503 7D3E B628_01F3C 00628 12782  3                          IF    (CPAFNAMEL,LE,L'CPANAME),BEGIN
 00122A 5820 B628            00628 12799  4                            L     R2,CPAFNAMEL
 00122E D207 B588 C4D8 00588 004D8 12800  4                            MVC   CPANAME,CVBLANKS
 001234 0620/1222/4740_            12801  4                            MOVE  R2,CPANAME,CPAFNAME Set name
 001240 47F0 70D6            012D4 12839  4                            B     SETPDONE
 001244                            12840  3                          END   ,
                                   12844  3
                                   12845  3                          COMMENT                   TRY MEMBER
 001244 4110 B62C/5800_      0062C 12846  3                          SETMSG CPAFNAME,L:CPAFNAMEL
 00124C 58E0 7D42/0DEE       01F40 12860  3                          VCALL RETFMEM
 001252 1820                       12864  3                          LR    R2,R0
 001254 1222/47D0 707E             12865  3                          IF    (R2,POS),BEGIN
 00125A 5920 7D46/47D0_      01F44 12879  4                            CEIL  R2,L'CPANAME
 001266 D207 B588 C4D8 00588 004D8 12898  4                            MVC   CPANAME,CVBLANKS
 00126C 0620/1222/4740_            12899  4                            MOVE  R2,CPANAME,@R1      Set name
 001278 47F0 70D6            012D4 12937  4                            B     SETPDONE
 00127C                            12938  3                          END
                                   12942  3
                                   12943  3                          COMMENT                   LOOK FOR '.' PART OF NAME
 00127C 4110 B62C            0062C 12944  3                          LA    R1,CPAFNAME
 001280 1821                       12945  3                          LR    R2,R1
 001282 5A20 B628            00628 12946  3                          A     R2,CPAFNAMEL
 001286 1832                       12947  3                          LR    R3,R2
 001288 0630                       12948  3                          DECR  R3
 00128A 1931/47D0 70A8_            12950  3                          WHILE ((R3,GT,R1),AND,(@R3,NE,'.'),AND,(@R3,NE,'/')),BEGIN
 0012A0 0630                       12995  4                            DECR  R3
 0012A2 47F0 708C            0128A 12997  3                          END
 0012A6 5E30 7D4A            01F48 13002  3                          INCR  R3
 0012AA 1B23                       13005  3                          SR    R2,R3
 0012AC 1222/47D0 70D6             13006  3                          IF    (R2,POS),BEGIN
 0012B2 5920 7D46/47D0_      01F44 13020  4                            CEIL  R2,L'CPANAME
 0012BE D207 B588 C4D8 00588 004D8 13039  4                            MVC   CPANAME,CVBLANKS
 0012C4 0620/1222/4740_            13040  4                            MOVE  R2,CPANAME,@R3      Set name
 0012D0 47F0 70D6            012D4 13078  4                            B     SETPDONE
 0012D4                            13079  3                          END
                                   13083  3
 0012D4                            13084  2                        END
 0012D4                            13088  1                      END
1ACT      (ACT2025) (12:40) (15MAR04) Active File Utility Routines                                                          Page   43
0Current Usings:  (*,R7) (CP,R11) (CV,R12)
0Loc    Object Code    Addr1 Addr2  Stmt Lv Lineno    Source Statement           (Hibal 5, Asmedit 3.3)  HLASM R4.0  2004/03/15 12.40
+___    ______ ____    _____ _____  ____ __ ______    ______ _________
00012D4                            13092                       END
                                   13096
 0012D4                            13097              SETPDONE LABEL ,
 0012D4 18D8/9808 D004_            13099                       PEND  ,
 DROP   *,R7
1ACT      (ACT2025) (12:40) (15MAR04) Active File Utility Routines                                                          Page   44
0Current Usings:  (CP,R11) (CV,R12)
0Loc    Object Code    Addr1 Addr2  Stmt Lv Lineno    Source Statement           (Hibal 5, Asmedit 3.3)  HLASM R4.0  2004/03/15 12.40
+___    ______ ____    _____ _____  ____ __ ______    ______ _________
0                                  13120              ¿þþþþþþþþþþþþþþþþþþþþþþþþþþþþþþþþþþþþþþþþþþþþþþþþþþþþþþþþþþþþþþþþþþþþþÜ
                                   13121              Ÿ                                                                     Ÿ
                                   13122              Ÿ  ACTDISP -- Routine to display Active file info.                    Ÿ
                                   13123              Ÿ                                                                     Ÿ
                                   13124              Ÿ    On entry:                                                        Ÿ
                                   13125              Ÿ      R15 - Active file number                                       Ÿ
                                   13126              Ÿ      R1  - AINFO ptr                                                Ÿ
                                   13127              Ÿ                                                                     Ÿ
                                   13128              Ÿ    On exit, R15 (and cc):                                           Ÿ
                                   13129              Ÿ      0 - OK                                                         Ÿ
                                   13130              Ÿ      nz- attn/logging off (TSTAT return code)                       Ÿ
                                   13131              Ÿ                                                                     Ÿ
                                                      ¾þþþþþþþþþþþþþþþþþþþþþþþþþþþþþþþþþþþþþþþþþþþþþþþþþþþþþþþþþþþþþþþþþþþþþ»
00012E2 50E0 D000/9008_      00000 13132              ACTDISP  XPROC ,
 USING  *,R7
 0012FC 1851                       13172                       LR    R5,R1
 USING  AINFO,R5                   13173                       WITH  (AINFO,R5)
                                   13186
 0012FE 184F                       13187                       LR    R4,R15              Active file number
                                   13188                       ¿þþþþþþþþþþþþþþþþþþþþþþþþþþþþþÜ
                                   13189                       Ÿ  Give information display.  Ÿ
                                   13190                       ¾þþþþþþþþþþþþþþþþþþþþþþþþþþþþþ»
 001300 4110 C4D8/4100_      004D8 13191                       SETMSG CVBLANKS,2
 001308 5940 B57C/4770_      0057C 13207                       IF    (R4,EQ,CPACTNO),'SETMSG "=>"'  Current
 001318 41F0 B050/58E0_      00050 13233                       TSEG  (R1),(R0)
                                   13257
 001322 1814/4100 0004_            13258                       TNUM  (R4),4              Active file number
 001332 4110 C4D8/4100_      004D8 13283                       TSEG  CVBLANKS,1
                                   13313
 001344 4110 5000/4100_      00000 13314                       TSEG  AINANAME,,B         Active file name
                                   13342                       ¿þþþþþþþþþþþþþþþþþþþþþþÜ
                                   13343                       Ÿ  Active file title.  Ÿ
                                   13344                       ¾þþþþþþþþþþþþþþþþþþþþþþ»
 001356 D64F 504E 504E_0004E 0004E 13345                       IF    (AINATITL,NZ),BEGIN  Titled Active file...
 001360 4110 504E/4100_      0004E 13361  1                      TSEG  AINATITL,,T
 001372                            13389                       END
                                   13393
 001372 707A/47F0 715A_01372 0135E 13394                       ELSEIF (AINAFNAMEL,NE,0),BEGIN  From dsname is a title
 001380 4110 7D28/4100_      02024 13421  1                      TSEG  'From '
                                   13439  1                      COMMENT                   FILE NAME
 001392 4110 50A4/5800_      000A4 13440  1                      SETMSG AINAFNAME,L:AINAFNAMEL
 00139A 58E0 7C60/0DEE       01F5C 13454  1                      VCALL RETFNAME
                                   13458  1         C            IF    ((R0,GE,11),AND,(@R1,EQ,'WYL.'),AND,
                                          1         C                  (@R1+6,EQ,'.'),AND,(@R1+10,EQ,'.'),AND,
 0013A0 5900 7C64/4750_      01F60        1                            (CPSGRP,EQ,@R1+4),AND,(CPSUSER,EQ,@R1+7)),BEGIN
 0013D6 4110 100B            0000B 13544  2                        LA    R1,@R1+11           Skip past the standard prefix
 0013DA 4B00 7CFA            01FF6 13545  2                        SH    R0,=H'11'
 0013DE                            13546  1                      END
 0013DE 41F0 B050/58E0_      00050 13550  1                      TSEG  (R1),(R0)
                                   13574  1                      COMMENT                   #MEMBER, IF ANY
 0013E8 4110 50A4/5800_      000A4 13575  1                      SETMSG AINAFNAME,L:AINAFNAMEL
 0013F0 58E0 7C44/0DEE       01F40 13589  1                      VCALL RETFMEM
 0013F6 1200/47D0 712C             13593  1                      IF    (R0,POS),BEGIN
1ACT      (ACT2025) (12:40) (15MAR04) Active File Utility Routines                                                          Page   45
0Current Usings:  (AINFO,R5) (*,R7) (CP,R11) (CV,R12)
0Loc    Object Code    Addr1 Addr2  Stmt Lv Lineno    Source Statement           (Hibal 5, Asmedit 3.3)  HLASM R4.0  2004/03/15 12.40
+___    ______ ____    _____ _____  ____ __ ______    ______ _________
00013FC 9001 D000/41D0_      00000 13607  2                        XPUSH R0,R1
 001404 4110 7D2D/4100_      02029 13610  2                        TSEG  '#'
 001416 4BD0 7CFC/9801_      01FF8 13628  2                        XPOP  R0,R1
 00141E 41F0 B050/58E0_      00050 13631  2                        TSEG  (R1),(R0)
 001428                            13655  1                      END
                                   13659  1                      COMMENT                   ON HOST, IF ANY
 001428 D503 7C00 5124_01EFC 00124 13660  1                      IF    (AINAHOSTL,NE,0),BEGIN
 001432 4110 7C6C/4100_      01F68 13678  2                        TSEG  ' on '
 001444 4110 5128/5800_      00128 13696  2                        TSEG  AINAHOST,L:AINAHOSTL
 001456                            13724  1                      END
 001456                            13728                       END
                                   13732                       ¿þþþþþþþþþþþþþþþþþþþþþþþþÜ
                                   13733                       Ÿ  General information.  Ÿ
                                   13734                       ¾þþþþþþþþþþþþþþþþþþþþþþþþ»
 001456 4100 002D/41F0_      0002D 13735                       TCOL  45
 001464 5810 5024/4100_      00024 13756                       TNUM  L:AINALNCT,6
 001476 4110 7CFE/4100_      01FFA 13781                       TSEG  ' lines'
                                   13799
 001488 D507 7C0C B3F0_01F08 003F0 13800                       IF    (CPSPROJ,EQ,'ACTDEBUG'),BEGIN  Very temporary...
 001492 4110 7D04/4100_      02000 13817  1                      TSEG  ', '
 0014A4 5810 5028/1B00_      00028 13835  1                      TNUM  L:AINABYCT
 0014B4 4110 7D06/4100_      02002 13857  1                      TSEG  ' bytes'
                                   13875  1
 0014C6 9120 503B/47E0_0003B       13876  1                      IF    AINAFDEF,'TSEG " (defined)"'
 0014E0                            13914                       END   ,                   End of very temporary code
                                   13918
 0014E0 D603 502C 502C_0002C 0002C 13919                       IF    (AINACHCT,NZ),BEGIN
 0014EA 4110 7D04/4100_      02000 13935  1                      TSEG  ', '
 0014FC 5810 502C/1B00_      0002C 13953  1                      TNUM  L:AINACHCT
 00150C 4110 7C14/4100_      01F10 13975  1                      TSEG  ' changes'
 00151E                            13993                       END
                                   13997
 00151E D507 7C1C 5008_01F18 00008 13998                       IF    (AINATYPE,NE,=CL8'TEXT'),BEGIN
 001528 4110 7D16/4100_      02012 14015  1                      TSEG  ' ('
 00153A 4110 5008/4100_      00008 14033  1                      TSEG  AINATYPE,,T
 00154C 4110 7D2E/4100_      0202A 14061  1                      TSEG  ')'
 00155E                            14079                       END
                                   14083
 00155E 9180 503B/47E0_0003B       14084                       IF    AINAFCLR,'TSEG " (Cleared)"'
 001578 9140 503B/47E0_0003B       14122                       IF    AINAFPRT,'TSEG " (Protected)"'
 001592 9110 503B/47E0_0003B       14160                       IF    AINAFLOCK,'TSEG " (Locked)"'
                                   14198
 0015AC 1B00/41F0 B050_            14199                       TCR   ,                   (TCR sets return code)
 0015B8 18D8/9808 D004_            14224                       PEND  ,
 DROP   AINFO,R5
 DROP   *,R7
1ACT      (ACT2025) (12:40) (15MAR04) Active File Utility Routines                                                          Page   46
0Current Usings:  (CP,R11) (CV,R12)
0Loc    Object Code    Addr1 Addr2  Stmt Lv Lineno    Source Statement           (Hibal 5, Asmedit 3.3)  HLASM R4.0  2004/03/15 12.40
+___    ______ ____    _____ _____  ____ __ ______    ______ _________
0000000                00000 001A8 14250              ARCVYWA  RECORD BEGIN
 000000                            14258  1           ARCVYINF   DS    XL(L'CPAINFO)       Working AINFO area
 0001A8                001A8 001A8 14259                       END
-                                  14269              ¿þþþþþþþþþþþþþþþþþþþþþþþþþþþþþþþþþþþþþþþþþþþþþþþþþþþþþþþþþþþþþþþþþþþþþÜ
                                   14270              Ÿ                                                                     Ÿ
                                   14271              Ÿ  ACTRCVY -- Routine to re-build Active file information from        Ÿ
                                   14272              Ÿ    the Active file record group.  This routine is called in         Ÿ
                                   14273              Ÿ    user mode when the Active file record group has already          Ÿ
                                   14274              Ÿ    been recovered, but other things like the AINFO and Active       Ÿ
                                   14275              Ÿ    file stack have not yet been built.                              Ÿ
                                   14276              Ÿ                                                                     Ÿ
                                   14277              Ÿ    On exit, R15 (and cc):                                           Ÿ
                                   14278              Ÿ      0 - ok                                                         Ÿ
                                   14279              Ÿ      nz- error of some sort                                         Ÿ
                                   14280              Ÿ                                                                     Ÿ
                                                      ¾þþþþþþþþþþþþþþþþþþþþþþþþþþþþþþþþþþþþþþþþþþþþþþþþþþþþþþþþþþþþþþþþþþþþþ»
00015C6 50E0 D000/9008_      00000 14281              ACTRCVY  XPROC ARCVYWA
 USING  *,R7
 USING  ARCVYWA-(4+36),R8
                                   14332                       ¿þþþþþþþþþþþþþþþþþþþþþþþþþþþþþþþþþþþþþþþÜ
                                   14333                       Ÿ  Initialize Active file information.  Ÿ
                                   14334                       ¾þþþþþþþþþþþþþþþþþþþþþþþþþþþþþþþþþþþþþþþ»
 0015E0 D703 B57C B57C 0057C 0057C 14335                       CLEAR CPACTNO             Initialized in loop below
 0015E6 D703 B580 B580 00580 00580 14342                       CLEAR CPACTMAX
                                   14349                      ¿þþþþþþþþþþþþþþþþþþþþþþþþþþþþþþþþþþþþþþþþþþþþþþþþþþþþþþþþþþþþþþþþÜ
                                   14350                      Ÿ   Check out the Active files.  Rebuild AINFO in case the most  Ÿ
                                   14351                      Ÿ    current AINFO was not written out when the previous WYLBUR  Ÿ
                                   14352                      Ÿ    went down.  In general, as few assumptions as possible are  Ÿ
                                   14353                      Ÿ     made about the Active file.  We do know at least that the  Ÿ
                                   14354                      Ÿ  record group is OK, otherwise the RGCHECK in INIT would have  Ÿ
                                   14355                      Ÿ     failed and we would have skipped this user.                Ÿ
                                   14356                      ¾þþþþþþþþþþþþþþþþþþþþþþþþþþþþþþþþþþþþþþþþþþþþþþþþþþþþþþþþþþþþþþþþ»
 0015EC 1B55                       14357                       CLEAR R5                  Current set number
 0015EE                            14361              ACTRLOOP LOOP  BEGIN               Go through Actives...
 0015EE 4100 5001            00001 14368  1                      LA    R0,@R5+1
 0015F2 41F0 B484            00484 14369  1                      LA    R15,CPTEXT          Active file record group
 0015F6 58E0 79A0/0DEE       01F80 14370  1                      VCALL XFRSTSET            Get first/next set number
 0015FC 4770 719C            0177C 14374  1                      IF    NZ,EXIT             All done, scram
 001600 1850                       14388  1                      LR    R5,R0               Save current set number
                                   14389  1                      ¿þþþþþþþþþþþþþþþþþþþþþþþþþþþþÜ
                                   14390  1                      Ÿ  Fix up Active file info.  Ÿ
                                   14391  1                      ¾þþþþþþþþþþþþþþþþþþþþþþþþþþþþ»
 001602 41F0 B484            00484 14392  1                      LA    R15,CPTEXT          Active file record group
 001606 58E0 79A4/0DEE       01F84 14393  1                      VCALL XSETSET             Switch to this Active file
                                   14397  1
 00160C D7FF 8028 8028_00000 00000 14398  1                      CLEAR ARCVYINF            Pre-zero AINFO (in case none)
 001618 4120 79A8            01F88 14406  1                      LA    R2,=CL4'INFO'       Get info record
 00161C 4110 8028/4100_      00000 14407  1                      SETMSG ARCVYINF            Put AINFO record here
 001624 41F0 B484            00484 14421  1                      LA    R15,CPTEXT          Active file record group
 001628 58E0 79AC/0DEE       01F8C 14422  1                      VCALL XGET                Get it (if possible)
                                   14426  1
1ACT      (ACT2025) (12:40) (15MAR04) Active File Utility Routines                                                          Page   47
0Current Usings:  (*,R7) (ARCVYWA-(4+36),R8) (CP,R11) (CV,R12)
0Loc    Object Code    Addr1 Addr2  Stmt Lv Lineno    Source Statement           (Hibal 5, Asmedit 3.3)  HLASM R4.0  2004/03/15 12.40
+___    ______ ____    _____ _____  ____ __ ______    ______ _________
000162E 4160 8028            00000 14427  1                      LA    R6,ARCVYINF
 USING  AINFO,R6                   14428  1                      WITH  (AINFO,R6)
                                   14441  1
 001632 D607 6000 6000_00000 00000 14442  1                      IF    (AINANAME,Z),'MVC AINANAME,=CL8"NEW"'  File name
 001642 D607 6008 6008_00008 00008 14464  1                      IF    (AINATYPE,Z),'MVC AINATYPE,=CL8"TEXT"'  File type
                                   14486  1                      ¿þþþþþþþþþþþþþþþþþþþþþþþþþþþþþþþþþþþþþþþþþþþþþþþÜ
                                   14487  1                      Ÿ  Re-calculate AINFO fields from actual data.  Ÿ
                                   14488  1                      ¾þþþþþþþþþþþþþþþþþþþþþþþþþþþþþþþþþþþþþþþþþþþþþþþ»
 001652 D703 6018 6018 00018 00018 14489  1                      CLEAR AINAFLNO
 001658 4120 6018            00018 14496  1                      LA    R2,AINAFLNO
 00165C 41F0 B484            00484 14497  1                      LA    R15,CPTEXT          Active file record group
 001660 58E0 79B0/0DEE       01F90 14498  1                      VCALL XLOCLINE            Get actual first line-number
 001666 D503 6018 C15C_00018 0015C 14502  1                      IF    (AINAFLNO,GT,CVMAXLNO),'CLEAR AINAFLNO'  No Active
                                   14532  1
 001676 D203 601C C15C 0001C 0015C 14533  1                      MVC   AINALLNO,CVMAXLNO
 00167C 4120 601C            0001C 14534  1                      LA    R2,AINALLNO
 001680 41F0 B484            00484 14535  1                      LA    R15,CPTEXT          Active file record group
 001684 58E0 79B4/0DEE       01F94 14536  1                      VCALL XLOCLAST            Get actual last line-number
                                   14540  1
 00168A 4100 6018            00018 14541  1                      LA    R0,AINAFLNO         First line-number
 00168E 4110 601C            0001C 14542  1                      LA    R1,AINALLNO         Last line-number
 001692 1B22                       14543  1                      CLEAR R2                  (Only this record set)
 001694 41F0 B484            00484 14547  1                      LA    R15,CPTEXT          Active file record group
 001698 58E0 79B8/0DEE       01F98 14548  1                      VCALL XCNTRECS            Count records
 00169E 50F0 6024            00024 14552  1                      ST    R15,AINALNCT        Save line count
 0016A2 5AF0 B578            00578 14553  1                      A     R15,CPATLINS        Total lines in all Actives
 0016A6 50F0 B578            00578 14554  1                      ST    R15,CPATLINS        Save total
 0016AA 5000 6028            00028 14555  1                      ST    R0,AINABYCT         Save byte count
 0016AE 5A00 B564            00564 14556  1                      A     R0,CPATBYTS         Total bytes in all Actives
 0016B2 5000 B564            00564 14557  1                      ST    R0,CPATBYTS         Save total
                                   14558  1
 0016B6 D203 6020 79BC 00020 01F9C 14559  1                      MVC   AINACLNO,=F'-1000'  Current lineno
 0016BC D703 602C 602C 0002C 0002C 14560  1                      CLEAR AINACHCT            Reset change count
                                   14567  1
 0016C2 D703 6014 6014_00014 00014 14568  1                      CLEAR AINAPRNO,AINANXNO   Clear links
                                   14580  1                      ¿þþþþþþþþþþþþþþþþþþþþþþþþþþþþþþþþþþþþþÜ
                                   14581  1                      Ÿ  Keep Active file counts accurate.  Ÿ
                                   14582  1                      ¾þþþþþþþþþþþþþþþþþþþþþþþþþþþþþþþþþþþþþ»
 0016CE D506 7A54 6008_02034 00008 14583  1                      IF    (AINATYPE,EQ,'CLEARED'),BEGIN  OLDWYL compatible...
 0016D8 9680 603B      0003B       14600  2                        SET   AINAFCLR
 0016DC D207 6008 7938 00008 01F18 14606  2                        MVC   AINATYPE,=CL8'TEXT'
 0016E2                            14607  1                      END
                                   14611  1
 0016E2 9180 603B/47E0_0003B       14612  1                      IF    AINAFCLR,'INCR R15,CPATCLR'
                                   14638  1
 0016F6 711A/47F0 7176 016F6 016E8 14639  1                      ELSE  BEGIN
 0016FA D603 6024 6024_00024 00024 14650  2                        IF    (AINALNCT,NZ),BEGIN
 001704 D503 79C0 6008_01FA0 00008 14666  3                          IF    (AINATYPE,EQ,'TEMP'),'INCR R15,CPATTEMP'
 00171A 713E/47F0 7176 0171A 0170C 14694  3                          ELSE  BEGIN
 00171E D207 6008 7938 00008 01F18 14705  4                            MVC   AINATYPE,=CL8'TEXT' Make sure it's TEXT
 001724 41F0 0001/5EF0_      00001 14706  4                            INCR  R15,CPATTEXT        Active file count
 001730 5050 B57C            0057C 14712  4                            ST    R5,CPACTNO          Save current Active file number
                                   14713  4
                                   14714  4                            COMMENT                   DO LONG VERSION OF MVC
1ACT      (ACT2025) (12:40) (15MAR04) Active File Utility Routines                                                          Page   48
0Current Usings:  (AINFO,R6) (*,R7) (ARCVYWA-(4+36),R8) (CP,R11) (CV,R12)
0Loc    Object Code    Addr1 Addr2  Stmt Lv Lineno    Source Statement           (Hibal 5, Asmedit 3.3)  HLASM R4.0  2004/03/15 12.40
+___    ______ ____    _____ _____  ____ __ ______    ______ _________
0                                  14715  4           *        MVC   CPAINFO,AINFO       Save current AINFO
 001734 9025 D000/41D0_      00000 14716  4                            XPUSH R2,R5
 00173C 4120 B588            00588 14719  4                            LA    R2,CPAINFO
 001740 4130 01A8            001A8 14720  4                            LA    R3,L'CPAINFO
 001744 4140 6000            00000 14721  4                            LA    R4,AINFO
 001748 4150 01A8            001A8 14722  4                            LA    R5,L'AINFO
 00174C 0E24                       14723  4                            MVCL  R2,R4
 00174E 4BD0 7A3E/9825_      0201E 14724  4                            XPOP  R2,R5
 001756                            14727  3                          END
 001756                            14731  2                        END
 001756                            14735  1                      END
                                   14739  1
 001756 5050 B580            00580 14740  1                      ST    R5,CPACTMAX         Save highest Active file number
                                   14741  1                      ¿þþþþþþþþþþþþþþþþþþþþþþþþþþþþþþþþþþþþþþþþþþþþþÜ
                                   14742  1                      Ÿ  Update AINFO record for this Active file.  Ÿ
                                   14743  1                      ¾þþþþþþþþþþþþþþþþþþþþþþþþþþþþþþþþþþþþþþþþþþþþþ»
 00175A 4120 79A8            01F88 14744  1                      LA    R2,=CL4'INFO'
 00175E 41F0 B484            00484 14745  1                      LA    R15,CPTEXT          Active file record group
 001762 58E0 79C4/0DEE       01FA4 14746  1                      VCALL XDELETE             First delete record
                                   14750  1
 001768 1816/4100 01A8             14751  1                      SETMSG AINFO
 00176E 41F0 B484            00484 14765  1                      LA    R15,CPTEXT          Active file record group
 001772 58E0 79C8/0DEE       01FA8 14766  1                      VCALL XPUT                Add AINFO record
                                   14770  1           *  Don't bother checking the XPUT return code here, because
                                   14771  1           *  there is nothing we should do if the PUT failed for any reason.
 001778 47F0 700E            015EE 14772                       END
 DROP   AINFO,R6
                                   14782                    ¿þþþþþþþþþþþþþþþþþþþþþþþþþþþþþþþþþþþþþþþþþþþþþþþþþþþþþþþþþþþþþþþþþþÜ
                                   14783                    Ÿ  No Active files to recover, build a default empty Active file.  Ÿ
                                   14784                    ¾þþþþþþþþþþþþþþþþþþþþþþþþþþþþþþþþþþþþþþþþþþþþþþþþþþþþþþþþþþþþþþþþþþ»
 00177C D603 B57C B57C_0057C 0057C 14785                       IF    (CPACTNO,Z),BEGIN   No default active found...
 001786 41F0 0001/5EF0_      00001 14801  1                      INCR  R15,CPACTMAX        New active file number
 001792 50F0 B57C            0057C 14807  1                      ST    R15,CPACTNO         Ditto
                                   14808  1
 001796 D7FF B588 B588_00588 00588 14809  1                      CLEAR CPAINFO
 0017A2 D207 B588 7940 00588 01F20 14817  1                      MVC   CPANAME,=CL8'DUMMY'
 0017A8 D207 B590 7938 00590 01F18 14818  1                      MVC   CPATYPE,=CL8'TEXT'
 0017AE D203 B5A8 79BC 005A8 01F9C 14819  1                      MVC   CPACLNO,=F'-1000'   No current lineno
 0017B4                            14820                       END
                                   14824                       ¿þþþþþþþþþþþþþþþþþþþþþþþþþþþþþþþþþþþþþþþþþþþþþÜ
                                   14825                       Ÿ  Finally, switch into default Active file.  Ÿ
                                   14826                       ¾þþþþþþþþþþþþþþþþþþþþþþþþþþþþþþþþþþþþþþþþþþþþþ»
 0017B4 5800 B57C            0057C 14827                       L     R0,CPACTNO
 0017B8 41F0 B484            00484 14828                       LA    R15,CPTEXT          Active file record group
 0017BC 58E0 79A4/0DEE       01F84 14829                       VCALL XSETSET             Switch into default
                                   14833
 0017C2 1BFF                       14834                       CLEAR R15                 Set good rc
 0017C4 18D8/9808 D004_            14838                       PEND  ,
 DROP   ARCVYWA-(4+36),R8
 DROP   *,R7
1ACT      (ACT2025) (12:40) (15MAR04) Active File Utility Routines                                                          Page   49
0Current Usings:  (CP,R11) (CV,R12)
0Loc    Object Code    Addr1 Addr2  Stmt Lv Lineno    Source Statement           (Hibal 5, Asmedit 3.3)  HLASM R4.0  2004/03/15 12.40
+___    ______ ____    _____ _____  ____ __ ______    ______ _________
0                                  14864              ¿þþþþþþþþþþþþþþþþþþþþþþþþþþþþþþþþþþþþþþþþþþþþþþþþþþþþþþþþþþþþþþþþþþþþþÜ
                                   14865              Ÿ                                                                     Ÿ
                                   14866              Ÿ                                                                     Ÿ
                                   14867              Ÿ  CHKACT - Check for empty ACTIVE file.                              Ÿ
                                   14868              Ÿ                                                                     Ÿ
                                   14869              Ÿ  On Exit:                                                           Ÿ
                                   14870              Ÿ       R15 - cc=zero, null ACTIVE file                               Ÿ
                                   14871              Ÿ             cc=nz, ACTIVE file is not empty                         Ÿ
                                   14872              Ÿ                                                                     Ÿ
                                   14873              Ÿ                                                                     Ÿ
                                                      ¾þþþþþþþþþþþþþþþþþþþþþþþþþþþþþþþþþþþþþþþþþþþþþþþþþþþþþþþþþþþþþþþþþþþþþ»
00017D2 50E0 D000/9008_      00000 14874              CHKACT   XPROC ,
 USING  *,R7
 0017EC 58F0 B5AC            005AC 14914                       L     R15,CPALNCT         Current active file line count
 0017F0 18D8/9808 D004_            14915                       PEND  ,
 DROP   *,R7
1ACT      (ACT2025) (12:40) (15MAR04) Active File Utility Routines                                                          Page   50
0Current Usings:  (CP,R11) (CV,R12)
0Loc    Object Code    Addr1 Addr2  Stmt Lv Lineno    Source Statement           (Hibal 5, Asmedit 3.3)  HLASM R4.0  2004/03/15 12.40
+___    ______ ____    _____ _____  ____ __ ______    ______ _________
0000000                00000 001A8 14936              ACLRWA   RECORD BEGIN
 000000                            14944  1           ACLRINFO   DS    XL(L'AINFO)         Working AINFO area
 0001A8                001A8 001A8 14945                       END
-                                  14955              ¿þþþþþþþþþþþþþþþþþþþþþþþþþþþþþþþþþþþþþþþþþþþþþþþþþþþþþþþþþþþþþþþþþþþþþÜ
                                   14956              Ÿ                                                                     Ÿ
                                   14957              Ÿ  CLRACTS -- Routine to clear all Active files.                      Ÿ
                                   14958              Ÿ                                                                     Ÿ
                                   14959              Ÿ    Returns only if all Active files have been changed.              Ÿ
                                   14960              Ÿ                                                                     Ÿ
                                                      ¾þþþþþþþþþþþþþþþþþþþþþþþþþþþþþþþþþþþþþþþþþþþþþþþþþþþþþþþþþþþþþþþþþþþþþ»
00017FE 50E0 D000/9008_      00000 14961              CLRACTS  XPROC ACLRWA
 USING  *,R7
 USING  ACLRWA-(4+36),R8
 001818 D7FF 8028 8028_00000 00000 15012                       CLEAR ACLRWA
                                   15020                       ¿þþþþþþþþþþþþþþþþþþþþþþþþþþþþþþþþþþþþþþþþþþþþþþþþþþþþþþþþþþþþþþÜ
                                   15021                       Ÿ  If CLEAR was specified then it's OK to CLEAR the unchanged  Ÿ
                                   15022                       Ÿ    Actives.                                                  Ÿ
                                   15023                       ¾þþþþþþþþþþþþþþþþþþþþþþþþþþþþþþþþþþþþþþþþþþþþþþþþþþþþþþþþþþþþþþ»
 001824 9108 BD55/47E0_00D55       15024                       IF    CPFKEEP,BEGIN       KEEP...
 00182C 4110 7823/4100_      0203B 15039  1                      ABORT 'KEEP option not allowed here.'
 001838                            15046                       END
                                   15050
 001838 9110 BD55/47E0_00D55       15051                       IF    CPFCLEAR,BEGIN      CLEAR...
 001840 58E0 7794/0DEE       01FAC 15066  1                      ACALL CLRMULT             Go to it
 001846                            15070                       END
                                   15074                       ¿þþþþþþþþþþþþþþþþþþþþþþþþþþþþþþþþþþþþþþþþþþþþþþþþþþþþþþþþþþþÜ
                                   15075                       Ÿ  Ask the user if it's ok to clear the remaining Actives.  Ÿ
                                   15076                       ¾þþþþþþþþþþþþþþþþþþþþþþþþþþþþþþþþþþþþþþþþþþþþþþþþþþþþþþþþþþþ»
 001846 D603 B56C B56C_0056C 0056C 15077                       IF    (CPATTEXT,NZ),BEGIN
 001850 4110 7840/4100_      02058 15093  1                      TSEG  'You still have '
 001862 9110 BD55/47E0_00D55       15111  1                      IF    CPFCLEAR,'TSEG "changed "'
 00187C 4110 784F/4100_      02067 15149  1                      TSEG  'Active file(s):',,CR
                                   15167  1                      ¿þþþþþþþþþþþþþþþþþþþþþþþþþþþþþþþþþþþþþþþþþþþþþÜ
                                   15168  1                      Ÿ  Show Active files from lowest to highest.  Ÿ
                                   15169  1                      ¾þþþþþþþþþþþþþþþþþþþþþþþþþþþþþþþþþþþþþþþþþþþþþ»
 00188E 1B44                       15170  1                      CLEAR R4                  Start at first possible
                                   15174  1
 001890                            15175  1                      LOOP  BEGIN               Go through Actives...
 001890 4110 7700            01F18 15181  2                        LA    R1,=CL8'TEXT'
 001894 18F4                       15182  2                        LR    R15,R4
 001896 58E0 7798/0DEE       01FB0 15183  2                        ACALL ACTNEXT             Get next Active file number
 00189C 4780 70CE            018E6 15187  2                        IF    Z,EXIT              No more, scram
                                   15201  2
 0018A0 184F                       15202  2                        LR    R4,R15
 0018A2 4110 8028/4100_      00000 15203  2                        SETMSG ACLRINFO
 0018AA 58E0 779C/0DEE       01FB4 15217  2                        ACALL ACTGINFO            Get AINFO for this Active file
 0018B0 4780 70B4/900F_      018CC 15221  2                        FAIL  NZ,ADISPERR,'Multiple Active file logic error.'
                                   15244  2
 0018CC 4130 8028            00000 15245  2                        LA    R3,ACLRINFO
 USING  AINFO,R3                   15246  2                        WITH  (AINFO,R3)
 0018D0 18F4                       15259  2                        LR    R15,R4
1ACT      (ACT2025) (12:40) (15MAR04) Active File Utility Routines                                                          Page   51
0Current Usings:  (AINFO,R3) (*,R7) (ACLRWA-(4+36),R8) (CP,R11) (CV,R12)
0Loc    Object Code    Addr1 Addr2  Stmt Lv Lineno    Source Statement           (Hibal 5, Asmedit 3.3)  HLASM R4.0  2004/03/15 12.40
+___    ______ ____    _____ _____  ____ __ ______    ______ _________
00018D2 1813/4100 01A8             15260  2                        SETMSG AINFO
 0018D8 58E0 77A0/0DEE       01FB8 15274  2                        ACALL ACTDISP             Show info from this Active file
 0018DE 4770 70CE            018E6 15278  2                        IF    NZ,EXIT             Attn, scram
 0018E2 47F0 7078            01890 15292  1                      END
 DROP   AINFO,R3
                                   15302  1
 0018E6 4110 785E/4100_      02076 15303  1                      SETMSG 'OK to Clear'
 0018EE 58E0 77A4/0DEE       01FBC 15307  1                      VCALL YESREQ              We need a YES
                                   15311  1
 0018F4 9614 BD55      00D55       15312  1                      SET   CPFCLEAR+CPFNWARN   Clear ALL Actives
 0018F8 58E0 7794/0DEE       01FAC 15321  1                      ACALL CLRMULT             Do it
 0018FE                            15325                       END
                                   15329
 0018FE 1B00/1B11                  15330                       CLEAR R0,R1
 001902 58E0 77A8/0DEE       01FC0 15336                       VCALL SETVINFO            Initialize view position
                                   15340
 001908 18D8/9808 D004_            15341                       PEND  ,
 DROP   ACLRWA-(4+36),R8
 DROP   *,R7
1ACT      (ACT2025) (12:40) (15MAR04) Active File Utility Routines                                                          Page   52
0Current Usings:  (CP,R11) (CV,R12)
0Loc    Object Code    Addr1 Addr2  Stmt Lv Lineno    Source Statement           (Hibal 5, Asmedit 3.3)  HLASM R4.0  2004/03/15 12.40
+___    ______ ____    _____ _____  ____ __ ______    ______ _________
0                                  15367              ¿þþþþþþþþþþþþþþþþþþþþþþþþþþþþþþþþþþþþþþþþþþþþþþþþþþþþþþþþþþþþþþþþþþþþþÜ
                                   15368              Ÿ                                                                     Ÿ
                                   15369              Ÿ  CLRMULT -- Routine to clear all text Active files.                 Ÿ
                                   15370              Ÿ                                                                     Ÿ
                                                      ¾þþþþþþþþþþþþþþþþþþþþþþþþþþþþþþþþþþþþþþþþþþþþþþþþþþþþþþþþþþþþþþþþþþþþþ»
0001916 50E0 D000/9008_      00000 15371              CLRMULT  XPROC ,
 USING  *,R7
                                   15411                       ¿þþþþþþþþþþþþþþþþþþþþþþþÜ
                                   15412                       Ÿ  Go through Actives.  Ÿ
                                   15413                       ¾þþþþþþþþþþþþþþþþþþþþþþþ»
 001930 1B44                       15414                       CLEAR R4                  R4 = Active file to return to
 001932 D507 75E8 B590_01F18 00590 15418                       IF    (CPATYPE,NE,=CL8'TEXT'),'L R4,CPACTNO'
                                   15441
 001940 4150 0001            00001 15442                       LA    R5,1                Start at the very beginning
 001944                            15443                       LOOP  BEGIN
 001944 4110 75E8            01F18 15449  1                      LA    R1,=CL8'TEXT'       Active file type to match
 001948 18F5                       15450  1                      LR    R15,R5
 00194A 58E0 7694/0DEE       01FC4 15451  1                      ACALL ACTFIRST            Find next Active file
 001950 4780 70A2            019D2 15455  1                      IF    Z,EXIT
 001954 58E0 7698/0DEE       01FC8 15469  1                      ACALL ACTPICK             Pick it
                                   15473  1
 00195A 5850 B57C            0057C 15474  1                      L     R5,CPACTNO          Current Active file number
 00195E 4150 5001            00001 15475  1                      LA    R5,@R5+1            For loop
                                   15476  1
 001962 48F0 B8B6            008B6 15477  1                      LH    R15,CPWRNCNT        User's WARN=xxx count
                                   15478  1         C            IF    (~CPFNWARN,AND,
 001966 9104 BD55/4710_00D55              1                            ((R15,NZ),AND,(CPACHCT,GE,R15))),BEGIN  Don't clear
 00197C 1244/4770 7056_            15522  2                        IF    (R4,Z),'L R4,CPACTNO'  Remember Active file number
 001986                            15542  1                      END
                                   15546  1
 001986 705A/705A/705A_01986 0196C 15547  1                      ELSE  BEGIN               Clear this Active file...
                                   15562  2                        ¿þþþþþþþþþþþþþþþþþþþþþþþþþþþÜ
                                   15563  2                        Ÿ  Clear this active file.  Ÿ
                                   15564  2                        ¾þþþþþþþþþþþþþþþþþþþþþþþþþþþ»
 00198A 9110 B5C3/4710_005C3       15565  2                        IF    ~CPAFLOCK,BEGIN     Not locked...
 001992 9680 B5C3      005C3       15580  3                          SET   CPAFCLR             Mark it cleared
 001996 D603 B5AC B5AC_005AC 005AC 15586  3                          IF    (CPALNCT,NZ),BEGIN
 0019A0 D503 7670 B590_01FA0 00590 15602  4                            IF    (CPATYPE,EQ,'TEMP'),'DECR R15,CPATTEMP'
 0019B4 7088/47F0 7092_019B4 019A8 15629  4                            ELSE  'DECR R15,CPATTEXT'
 0019C2 41F0 0001/5EF0_      00001 15650  4                            INCR  R15,CPATCLR         Update cleared actives MPD
 0019CE                            15656  3                          END
 0019CE                            15660  2                        END
 0019CE                            15664  1                      END
 0019CE 47F0 7014            01944 15668                       END
                                   15673
 0019D2 1B00/1B11                  15674                       CLEAR R0,R1
 0019D6 58E0 7690/0DEE       01FC0 15680                       VCALL SETVINFO            Initialize view position
1ACT      (ACT2025) (12:40) (15MAR04) Active File Utility Routines                                                          Page   53
0Current Usings:  (*,R7) (CP,R11) (CV,R12)
0Loc    Object Code    Addr1 Addr2  Stmt Lv Lineno    Source Statement           (Hibal 5, Asmedit 3.3)  HLASM R4.0  2004/03/15 12.40
+___    ______ ____    _____ _____  ____ __ ______    ______ _________
0                                  15684                       ¿þþþþþþþþþþþþþþþþþþþþþþþþþþþþþþþþþþþþþþþþþþþþþþþþþþþþþþþþþþþþÜ
                                   15685                       Ÿ  Return to a previous Active file if there is one we       Ÿ
                                   15686                       Ÿ    didn't clear.  Otherwise open a new empty Active file.  Ÿ
                                   15687                       ¾þþþþþþþþþþþþþþþþþþþþþþþþþþþþþþþþþþþþþþþþþþþþþþþþþþþþþþþþþþþþ»
 0019DC 12F4/4780 70B8_            15688                       IF    ('LTR R15,R4',NZ),'VCALL ACTPICK'  Select it
 0019E8 70BC/47F0 70C2_019E8 019E0 15710                       ELSE  'ACALL ACTOPEN'
                                   15730
 0019F2 18D8/9808 D004_            15731                       PEND  ,
 DROP   *,R7
1ACT      (ACT2025) (12:40) (15MAR04) Active File Utility Routines                                                          Page   54
0Current Usings:  (CP,R11) (CV,R12)
0Loc    Object Code    Addr1 Addr2  Stmt Lv Lineno    Source Statement           (Hibal 5, Asmedit 3.3)  HLASM R4.0  2004/03/15 12.40
+___    ______ ____    _____ _____  ____ __ ______    ______ _________
0000000                00000 001A8 15752              CTXTWA   RECORD BEGIN
                                   15760  1           CTXA       AINFO ,                   Working AINFO area
                                   15762+ 1          +           ¿þþþþþþþþþþþþþþþþþþþþþþþþþþþþþþþþþþþþþþþþþþþþþþþþþþþþþÜ
                                   15763+ 1          +           Ÿ  Active file information.                           Ÿ
                                   15764+ 1          +           Ÿ    This information is kept with each Active file.  Ÿ
                                   15765+ 1          +           ¾þþþþþþþþþþþþþþþþþþþþþþþþþþþþþþþþþþþþþþþþþþþþþþþþþþþþþ»
 000000                            15766  1 01-AINFO +CTXANAME   DS    CL8                 Active file name
 000008                            15767  1 01-AINFO +CTXATYPE   DS    CL8                 Active file type
                                   15768  1          +
 000010                            15769  1 01-AINFO +CTXANXNO   DS    F                   Next Active file set number
 000014                            15770  1 01-AINFO +CTXAPRNO   DS    F                   Previous Active file set number
                                   15771  1          +
 000018                            15772  1 01-AINFO +CTXAFLNO   DS    F                   First line-number
 00001C                            15773  1 01-AINFO +CTXALLNO   DS    F                   Last line-number
 000020                            15774  1 01-AINFO +CTXACLNO   DS    F                   Current line-number
 000024                            15775  1 01-AINFO +CTXALNCT   DS    F                   Line count
 000028                            15776  1 01-AINFO +CTXABYCT   DS    F                   Byte count
 00002C                            15777  1 01-AINFO +CTXACHCT   DS    F                   Change count
 000030                            15778  1 01-AINFO +CTXAICLK   DS    F                   Clock when initially created
 000034                            15779  1 01-AINFO +           DS    F                   Reserved
 000038                            15780  1 01-AINFO +           DS    XL3                 Reserved
 00003B 00                         15781  1          +*
 CTXAFLAG.CTXAFCLR 80 ONES
 CTXAFLAG.CTXAFPRT 40 ONES
 CTXAFLAG.CTXAFDEF 20 ONES
 CTXAFLAG.CTXAFLOC 10 ONES
                                   15806  1          +*
                                   15809+ 1          +     ¿þþþþþþþþþþþþþþþþþþþþþþþþþþþþþþþþþþþþþþÜ
                                   15810+ 1          +     Ÿ  Collect command saved information.  Ÿ
                                   15811+ 1          +     ¾þþþþþþþþþþþþþþþþþþþþþþþþþþþþþþþþþþþþþþ»
 00003C                            15812  1 02-COLIN +CTXACFLN   DS    F                   Lineno before first collected
 000040                            15813  1 02-COLIN +CTXACNLN   DS    F          [Order]  Next lineno to use
 000044                            15814  1 02-COLIN +CTXACDEL   DS    F          [Order]  Delta
 000048                            15815  1 02-COLIN +CTXACLEN   DS    H                   Line warning length
 00004A                            15816  1 02-COLIN +CTXACCNT   DS    H                   No. of lines to collect
 00004C 00                         15817  1 02-COLIN +CTXACFG5   DS    X                   Copy of CPLFLG5
 CTXACFLG.CTXACFMR 80 ONES
 CTXACFLG.CTXACFCS 40 ONES
 CTXACFLG.CTXACFUP 20 ONES
 CTXACFLG.CTXACFRN 10 ONES
 CTXACFLG.CTXACFPG 08 ONES
                                   15847  1 02-COLIN +CTXACINFO   EQU  CTXACFLN,*-CTXACFLN,C'X'
                                   15849+ 1          +           ¿þþþþþþþþþþþþþþþþþþþþþþþþþþþþþþþþþþþþþþþþþþÜ
                                   15850+ 1          +           Ÿ  Title,File name/host/type information.  Ÿ
                                   15851+ 1          +           ¾þþþþþþþþþþþþþþþþþþþþþþþþþþþþþþþþþþþþþþþþþþ»
 00004E 00                         15852  1 01-AINFO +CTXATITL   DS    CL80                Active file title area
 0000A0                            15857  1 01-AINFO +CTXAFNAMEL   DS  F                   File name length
 0000A4                            15858  1 01-AINFO +CTXAFNAME   DS   CL128               File name
 000124                            15859  1 01-AINFO +CTXAHOSTL   DS   F                   Host name length
 000128                            15860  1 01-AINFO +CTXAHOST   DS    CL128               Host name
                                   15861  1          +
                                   15862  1 01-AINFO +CTXAINFO   EQU   CTXANAME,*-CTXANAME,C'X'
 0001A8                001A8 001A8 15864                       END
1ACT      (ACT2025) (12:40) (15MAR04) Active File Utility Routines                                                          Page   55
0Current Usings:  (CP,R11) (CV,R12)
0Loc    Object Code    Addr1 Addr2  Stmt Lv Lineno    Source Statement           (Hibal 5, Asmedit 3.3)  HLASM R4.0  2004/03/15 12.40
+___    ______ ____    _____ _____  ____ __ ______    ______ _________
0                                  15874              ¿þþþþþþþþþþþþþþþþþþþþþþþþþþþþþþþþþþþþþþþþþþþþþþþþþþþþþþþþþþþþþþþþþþþþþÜ
                                   15875              Ÿ                                                                     Ÿ
                                   15876              Ÿ  CLRTEXT -- Routine to clear or keep the current Active file.       Ÿ
                                   15877              Ÿ    This routine will ask the user what to do if CLEAR/KEEP          Ÿ
                                   15878              Ÿ    is not explicit.                                                 Ÿ
                                   15879              Ÿ                                                                     Ÿ
                                   15880              Ÿ    On exit:                                                         Ÿ
                                   15881              Ÿ      The current Active file will be empty.                         Ÿ
                                   15882              Ÿ                                                                     Ÿ
                                                      ¾þþþþþþþþþþþþþþþþþþþþþþþþþþþþþþþþþþþþþþþþþþþþþþþþþþþþþþþþþþþþþþþþþþþþþ»
0001A00 50E0 D000/9008_      00000 15883              CLRTEXT  XPROC CTXTWA
 USING  *,R7
 USING  CTXTWA-(4+36),R8
                                   15934                       ¿þþþþþþþþþþþþþþþþþþþþþþþþþþþþþþþþþþþþþþþÜ
                                   15935                       Ÿ  CLEAR/KEEP the current Active file.  Ÿ
                                   15936                       ¾þþþþþþþþþþþþþþþþþþþþþþþþþþþþþþþþþþþþþþþ»
 001A1A 9140 B478/47E0_00478       15937                       IF    (CPGFCLR,AND,~CPFKEEP),'SET CPFCLEAR'  CLEAR default
                                   15977                       ¿þþþþþþþþþþþþþþþþþþþþþþþþþþþþþþþþþþþþþþþþþþþþþþþþþþþþþþþþþþþþþÜ
                                   15978                       Ÿ  If the Active file has changed always ask if ok to clear.  Ÿ
                                   15979                       ¾þþþþþþþþþþþþþþþþþþþþþþþþþþþþþþþþþþþþþþþþþþþþþþþþþþþþþþþþþþþþþ»
 001A2E 48F0 B8B6            008B6 15980                       LH    R15,CPWRNCNT        User's WARN=xxx count
                                   15981            C          IF    (~CPFNWARN,AND,
 001A32 9104 BD55/4710_00D55                                         ((R15,NZ),AND,(CPACHCT,GE,R15))),BEGIN  Warn...
 001A48 D603 B5B4 B5B4_005B4 005B4 16025  1                      IF    (CPACHCT,NZ),'CLEAR CPFCLEAR'  Reset CLEAR
 001A56                            16053                       END
                                   16057                       ¿þþþþþþþþþþþþþþþþþþþþþþþþþþþþþþþþþþþþþþþþþþþþþþþþþþÜ
                                   16058                       Ÿ  Re-use the current Active file if it is empty.  Ÿ
                                   16059                       ¾þþþþþþþþþþþþþþþþþþþþþþþþþþþþþþþþþþþþþþþþþþþþþþþþþþ»
 001A56 9110 B5C3/4710_005C3       16060                       IF    ~CPAFLOCK,BEGIN     Not locked...
 001A5E D603 B5AC B5AC_005AC 005AC 16075  1                      IF    (CPALNCT,Z),CLRREUSE  Re-use this Active if empty
 001A68                            16094                       END
                                   16098                       ¿þþþþþþþþþþþþþþþþþþþþþþþþþþþþþþþþþþþþþþþþþþþþþþþþþþþþþþþþþþÜ
                                   16099                       Ÿ  Ask the user what to do if CLEAR/KEEP is not explicit.  Ÿ
                                   16100                       ¾þþþþþþþþþþþþþþþþþþþþþþþþþþþþþþþþþþþþþþþþþþþþþþþþþþþþþþþþþþ»
 001A68 9118 BD55/4770_00D55       16101                       IF    (CPFCLEAR+CPFKEEP,Z),BEGIN  Ask user what to do...
 001A70 D603 B5B4 B5B4_005B4 005B4 16121  1                      IF    (CPACHCT,NZ),BEGIN  Changed Active file...
 001A7A 4110 7667/4100_      02081 16137  2                        TSEG  'Active '
 001A8C 5810 B57C/1B00_      0057C 16155  2                        TNUM  L:CPACTNO
 001A9C 4110 C4D8/4100_      004D8 16177  2                        TSEG  CVBLANKS,1
 001AAE 4110 B588/4100_      00588 16207  2                        TSEG  CPANAME,,T
 001AC0 4110 766E/4100_      02088 16235  2                        TSEG  ' has '
 001AD2 5810 B5B4/1B00_      005B4 16253  2                        TNUM  L:CPACHCT
 001AE2 4110 7673/4100_      0208D 16275  2                        SETMSG ' changes.'
 001AEA D503 75BA B5B4_01FD4 005B4 16279  2                        IF    (CPACHCT,EQ,1),'SETMSG " change."'
 001AFC 41F0 B050/58E0_      00050 16306  2                        TSEG  (R1),(R0),CR
 001B06                            16330  1                      END
                                   16334  1
 001B06 58E0 B08C/D2AF_      0008C 16335  1                      SCPUSH ,
 001B14 4110 767C/4100_      02096 16341  1           CXRLOOP    TREAD 'OK to Clear (Yes/No/Keep)',,Q
 001B24 4770 C7EA            007EA 16356  1                      BNZ   CVNOACTN            BREAK
 001B28 58E0 B08C/501E_      0008C 16357  1                      SCINIT (R1),(R0)
 001B36 5810 B08C/1B00_      0008C 16377  1                      SCAN  CLRTPRT             Look for Yes/No/Keep
 001B88 58E0 75CA/0DEE       01FE4 16409  1                      SCANCHK
1ACT      (ACT2025) (12:40) (15MAR04) Active File Utility Routines                                                          Page   56
0Current Usings:  (*,R7) (CTXTWA-(4+36),R8) (CP,R11) (CV,R12)
0Loc    Object Code    Addr1 Addr2  Stmt Lv Lineno    Source Statement           (Hibal 5, Asmedit 3.3)  HLASM R4.0  2004/03/15 12.40
+___    ______ ____    _____ _____  ____ __ ______    ______ _________
0001B8E 59F0 75CE/4780_      01FE8 16414  1                      IF    (R15,EQ,8),CXRLOOP
 001B96 1BFF                       16434  1                      CLEAR R15
 001B98 58E0 B08C/4BD0_      0008C 16438  1                      SCPOP ,
 001BA6                            16444                       END
                                   16448                       ¿þþþþþþþþþþþþþþþþþþþþþþþþþþþþþþþþþþþþþþþþþþþþþþþþþþþþþþþþÜ
                                   16449                       Ÿ  Clear the current Active file.                        Ÿ
                                   16450                       Ÿ                                                        Ÿ
                                   16451                       Ÿ    Note that "clearing" the Active file consists of    Ÿ
                                   16452                       Ÿ    setting the cleared flag.  This allows the user to  Ÿ
                                   16453                       Ÿ    recover accidentally cleared Active files.          Ÿ
                                   16454                       ¾þþþþþþþþþþþþþþþþþþþþþþþþþþþþþþþþþþþþþþþþþþþþþþþþþþþþþþþþ»
 001BA6 9110 BD55/47E0_00D55       16455                       IF    CPFCLEAR,BEGIN      Clear...
 001BAE 9110 B5C3/4710_005C3       16470  1                      IF    CPAFLOCK,EXIT       Locked, forget it
 001BB6 9680 B5C3      005C3       16488  1                      SET   CPAFCLR             Active is cleared
 001BBA D503 7586 B590_01FA0 00590 16494  1                      IF    (CPATYPE,EQ,'TEMP'),'DECR R15,CPATTEMP'
 001BCE 71B8/47F0 71C2_01BCE 01BC2 16521  1                      ELSE  'DECR R15,CPATTEXT'
 001BDC 41F0 0001/5EF0_      00001 16542  1                      INCR  R15,CPATCLR         Count cleared Actives
 001BE8                            16548                       END
                                   16552                       ¿þþþþþþþþþþþþþþþþþþþþþþþþþþþþþþþþþþþþþþþþþþþþþþÜ
                                   16553                       Ÿ  Use the current Active file if it's empty;  Ÿ
                                   16554                       Ÿ    otherwise open a new Active file.         Ÿ
                                   16555                       ¾þþþþþþþþþþþþþþþþþþþþþþþþþþþþþþþþþþþþþþþþþþþþþþ»
 001BE8 4110 74FE            01F18 16556                       LA    R1,=CL8'TEXT'
 001BEC 58F0 75D2            01FEC 16557                       L     R15,=F'-1'
 001BF0 58E0 75D6/0DEE       01FF0 16558                       ACALL ACTLAST             Find last Active file
 001BF6 4770 71E6/58E0_      01C00 16562                       IF    Z,'ACALL ACTOPEN'   Open a new Active file
                                   16582
 001C00 71EA/47F0 71FE 01C00 01BF8 16583                       ELSE  BEGIN
 001C04 58E0 75AE/0DEE       01FC8 16594  1                      ACALL ACTPICK             Pick last Active file
 001C0A 9130 B5C3/4780_005C3       16598  1                      IF    CPAFDEF+CPAFLOCK,BEGIN  We need to open new...
 001C12 58E0 75B6/0DEE       01FD0 16616  2                        ACALL ACTOPEN
 001C18                            16620  1                      END
 001C18                            16624                       END
                                   16628                       ¿þþþþþþþþþþþþþþþþþþþþþþþþþþþÜ
                                   16629                       Ÿ  Always reset the AINFO.  Ÿ
                                   16630                       ¾þþþþþþþþþþþþþþþþþþþþþþþþþþþ»
 001C18                            16631              CLRREUSE LABEL ,
 001C18 D203 803C B59C 00014 0059C 16633                       MVC   CTXAPRNO,CPAPRNO    Preserve...
 001C1E D203 8038 B598 00010 00598 16634                       MVC   CTXANXNO,CPANXNO    ...these
 001C24 D207 8030 B590 00008 00590 16635                       MVC   CTXATYPE,CPATYPE    ...fields
 001C2A D7FF B588 B588_00588 00588 16636                       CLEAR CPAINFO             Initialize AINFO
 001C36 D203 B59C 803C 0059C 00014 16644                       MVC   CPAPRNO,CTXAPRNO    Preserve...
 001C3C D203 B598 8038 00598 00010 16645                       MVC   CPANXNO,CTXANXNO    ...these
 001C42 D207 B590 8030 00590 00008 16646                       MVC   CPATYPE,CTXATYPE    ...fields
                                   16647
 001C48 D207 B588 74E6 00588 01F00 16648                       MVC   CPANAME,=CL8'NEW'
 001C4E D203 B5A8 7582 005A8 01F9C 16649                       MVC   CPACLNO,=F'-1000'   No current lineno
                                   16650
 001C54 1B00/1B11                  16651                       CLEAR R0,R1
 001C58 58E0 75A6/0DEE       01FC0 16657                       VCALL SETVINFO            Initialize view position
                                   16661              *
                                   16662              *
 001C5E 94E7 BD55      00D55       16663                       CLEAR CPFKEEP+CPFCLEAR    Reset pending flags
                                   16673
1ACT      (ACT2025) (12:40) (15MAR04) Active File Utility Routines                                                          Page   57
0Current Usings:  (CP,R11) (CV,R12)
0Loc    Object Code    Addr1 Addr2  Stmt Lv Lineno    Source Statement           (Hibal 5, Asmedit 3.3)  HLASM R4.0  2004/03/15 12.40
+___    ______ ____    _____ _____  ____ __ ______    ______ _________
0001C62 18D8/9808 D004_            16674                       PEND  ,
 DROP   CTXTWA-(4+36),R8
 DROP   *,R7
                                   16699              ***
                                   16700              ***  OK to Clear prompt options.
                                   16701              ***
 001C70 4040404040404040_          16702              CLRTPRT  SCKW  ,CXRMSG,NULL
 001C98 E8C5E24040404040_          16717                       SCKW  YES,CXRCLEAR
 001CC0 E840404040404040_          16732                       SCKW  Y,CXRCLEAR
 001CE8 D6D2404040404040_          16747                       SCKW  OK,CXRCLEAR
 001D10 D5D6404040404040_          16762                       SCKW  NO,CXRABORT
 001D38 D540404040404040_          16777                       SCKW  N,CXRABORT
 001D60 D2C5C5D740404040_          16792                       SCKW  KEEP,CXRKEEP,A
 001D88 D240404040404040_          16807                       SCKW  K,CXRKEEP
 001DB0 D8E4C9E340404040_          16822                       SCKW  QUIT,CXRABORT,A
 001DD8 D840404040404040_          16837                       SCKW  Q,CXRABORT
 001E00 4040404040404040_          16852                       SCKW  ,CXRMSG
                                   16867
 001E28 50E0 D000/9008_      00000 16868              CXRMSG   PROC  ,
 USING  *,R7
 001E42 4110 726D/4100_      020AF 16907                       TSEG  'Answer YES, NO or KEEP.',,CR
 001E54 41F0 0008            00008 16925                       LA    R15,8
 001E58 18D8/9808 D004_            16926                       PEND  ,
 DROP   *,R7
                                   16946
 001E66 50E0 D000/9008_      00000 16947              CXRCLEAR PROC  ,
 USING  *,R7
 001E80 9610 BD55/94F7_00D55       16986                       SET   CPFCLEAR,(CPFKEEP,OFF)
 001E88 41F0 0004            00004 16997                       LA    R15,4
 001E8C 18D8/9808 D004_            16998                       PEND  ,
 DROP   *,R7
                                   17018
 001E9A 50E0 D000/9008_      00000 17019              CXRKEEP  PROC  ,
 USING  *,R7
 001EB4 9608 BD55/94EF_00D55       17058                       SET   CPFKEEP,(CPFCLEAR,OFF)
 001EBC 41F0 0004            00004 17069                       LA    R15,4
 001EC0 18D8/9808 D004_            17070                       PEND  ,
 DROP   *,R7
                                   17090
 001ECE 50E0 D000/9008_      00000 17091              CXRABORT PROC  ,
 USING  *,R7
 001EE8 47F0 C7EA            007EA 17130                       B     CVNOACTN            No action taken
 001EEC 18D8/9808 D004_            17131                       PEND  ,
 DROP   *,R7
                                   17151
                                   17152                       QLTORG
1ACT      (ACT2025) (12:40) (15MAR04) Active File Utility Routines                                                          Page   58
0Current Usings:  (CP,R11) (CV,R12)
0Loc    Object Code    Addr1 Addr2  Stmt Lv Lineno    Source Statement           (Hibal 5, Asmedit 3.3)  HLASM R4.0  2004/03/15 12.40
+___    ______ ____    _____ _____  ____ __ ______    ______ _________
0000000                00000 00008 17244              GLINFOWA RECORD BEGIN
 000000                            17252  1           GXINORIG   DS    F                   Original line-number requested
 000004                            17253  1           GXINLNO    DS    F                   Working line-number
 000008                00008 00008 17254                       END
-                                  17264              ¿þþþþþþþþþþþþþþþþþþþþþþþþþþþþþþþþþþþþþþþþþþþþþþþþþþþþþþþþþþþþþþþþþþþþþÜ
                                   17265              Ÿ                                                                     Ÿ
                                   17266              Ÿ  GETLINFO -- Routine to get a line from the Active file.            Ÿ
                                   17267              Ÿ                                                                     Ÿ
                                   17268              Ÿ  ** NOTE: **                                                        Ÿ
                                   17269              Ÿ  AS OF OCTOBER 1990, THIS INFORMATION IS NO LONGER KEPT.            Ÿ
                                   17270              Ÿ  THIS ROUTINE JUST RETURNS ZEROS TO INFO AREA.                      Ÿ
                                   17271              Ÿ                                                                     Ÿ
                                   17272              Ÿ    On entry:                                                        Ÿ
                                   17273              Ÿ      R15 - line-number of line to get                               Ÿ
                                   17274              Ÿ      R1,R0 - put line info here (loc, len)                          Ÿ
                                   17275              Ÿ                                                                     Ÿ
                                   17276              Ÿ    On exit:                                                         Ÿ
                                   17277              Ÿ      R1 - AREA ZEROED UP TO (CEIL R0,L'LNINFO) BYTES                Ÿ
                                   17278              Ÿ                                                                     Ÿ
                                   17279              Ÿ                                                                     Ÿ
                                                      ¾þþþþþþþþþþþþþþþþþþþþþþþþþþþþþþþþþþþþþþþþþþþþþþþþþþþþþþþþþþþþþþþþþþþþþ»
00020D8 50E0 D000/9008_      00000 17280              GETLINFO XPROC GLINFOWA
 USING  *,R7
 USING  GLINFOWA-(4+36),R8
                                   17331
 0020F2 5900 7026/47D0_      02118 17332                       CEIL  R0,L'LNINFO         ZERO A MAXIMUM OF L'LINFO BYTES
                                   17351
                                   17352                       COMMENT                   ZERO AREA OF L'LNINFO BYTES
 0020FE 1821                       17353                       LR    R2,R1               loc,len for result
 002100 1830                       17354                       LR    R3,R0
 002102 1B55                       17355                       CLEAR R5                  zero length, w/ zero pad char
 002104 0E24                       17359                       MVCL  R2,R4               zero area w/zero pad
                                   17360
 002106 5008 0004            00004 17361                       PRETURN (R0)              Return accurate length
 00210A 18D8/9808 D004_            17363                       PEND  ,
 DROP   GLINFOWA-(4+36),R8
 DROP   *,R7
                                   17388
                                   17389                       QLTORG
1ACT      (ACT2025) (12:40) (15MAR04) Active File Utility Routines                                                          Page   59
0Current Usings:  (CP,R11) (CV,R12)
0Loc    Object Code    Addr1 Addr2  Stmt Lv Lineno    Source Statement           (Hibal 5, Asmedit 3.3)  HLASM R4.0  2004/03/15 12.40
+___    ______ ____    _____ _____  ____ __ ______    ______ _________
0000000                00000 00008 17403              GLNOWA   RECORD BEGIN
 000000                            17411  1           GLNOORIG   DS    F                   Original line-number requested
 000004                            17412  1           GLNOLNO    DS    F                   Working line-number
 000008                00008 00008 17413                       END
-                                  17423              ¿þþþþþþþþþþþþþþþþþþþþþþþþþþþþþþþþþþþþþþþþþþþþþþþþþþþþþþþþþþþþþþþþþþþþþÜ
                                   17424              Ÿ                                                                     Ÿ
                                   17425              Ÿ  GETLNO -- Routine to match a line-number in the Active file.       Ÿ
                                   17426              Ÿ                                                                     Ÿ
                                   17427              Ÿ    On entry:                                                        Ÿ
                                   17428              Ÿ      R15 - line-number of line to match                             Ÿ
                                   17429              Ÿ                                                                     Ÿ
                                   17430              Ÿ    On exit, R15 (and cc):                                           Ÿ
                                   17431              Ÿ     -4 - past end of file; CPLCNO set to CVMAXLNO                   Ÿ
                                   17432              Ÿ      0 - ok; line-number is in CPLCNO                               Ÿ
                                   17433              Ÿ      4 - not found; next line-number is in CPLCNO                   Ÿ
                                   17434              Ÿ                                                                     Ÿ
                                                      ¾þþþþþþþþþþþþþþþþþþþþþþþþþþþþþþþþþþþþþþþþþþþþþþþþþþþþþþþþþþþþþþþþþþþþþ»
000211C 50E0 D000/9008_      00000 17435              GETLNO   XPROC GLNOWA
 USING  *,R7
 USING  GLNOWA-(4+36),R8
 002136 50F0 8028            00000 17486                       ST    R15,GLNOORIG        Save original line-number
 00213A 50F0 802C            00004 17487                       ST    R15,GLNOLNO         Save working line-number
                                   17488
 00213E 50F0 8028            00000 17489                       ST    R15,GLNOORIG        Save line-number
 002142 50F0 802C            00004 17490                       ST    R15,GLNOLNO         Ditto
                                   17491
 002146 41F0 B484            00484 17492                       LA    R15,CPTEXT
 00214A 4120 802C            00004 17493                       LA    R2,GLNOLNO
 00214E 58E0 7952/0DEE       02A88 17494                       VCALL XLOCLINE            Locate line
                                   17498
 002154 4780 702C            02162 17499                       IF    NZ,BEGIN            Past end of file...
 002158 D203 B73C C160 0073C 00160 17510  1                      MVC   CPLCNO,CVHILNO      Set max possible
 00215E 48F0 79E2            02B18 17511  1                      LH    R15,=H'-4'          Past eof
 002162                            17512                       END
                                   17516
 002162 7030/47F0 705C 02162 02156 17517                       ELSE  BEGIN               Found the line...
 002166 D503 802C C15C_00004 0015C 17528  1                      IF    (GLNOLNO,LGT,CVMAXLNO),BEGIN
 002170 D203 B73C C160 0073C 00160 17546  2                        MVC   CPLCNO,CVHILNO      Set max possible
 002176 48F0 79E2            02B18 17547  2                        LH    R15,=H'-4'          Set return code
 00217A                            17548  1                      END
 00217A 7048/47F0 705C 0217A 0216E 17552  1                      ELSE  BEGIN               We have a line...
 00217E 5820 802C            00004 17563  2                        L     R2,GLNOLNO
 002182 5920 8028/4780_      00000 17564  2                        IF    (R2,NE,GLNOORIG),'LA R15,4'  We are returning next
 00218E 5020 B73C            0073C 17587  2                        ST    R2,CPLCNO           Save for caller
 002192                            17588  1                      END
 002192                            17592                       END
                                   17596
 002192 18D8/9808 D004_            17597                       PEND  ,
 DROP   GLNOWA-(4+36),R8
 DROP   *,R7
1ACT      (ACT2025) (12:40) (15MAR04) Active File Utility Routines                                                          Page   60
0Current Usings:  (CP,R11) (CV,R12)
0Loc    Object Code    Addr1 Addr2  Stmt Lv Lineno    Source Statement           (Hibal 5, Asmedit 3.3)  HLASM R4.0  2004/03/15 12.40
+___    ______ ____    _____ _____  ____ __ ______    ______ _________
0000000                00000 00014 17623              GLINEWA  RECORD BEGIN
 000000                            17631  1           GLINORIG   DS    F                   Original line-number requested
 000004                            17632  1           GLINLNO    DS    F                   Working line-number
 000008                            17633  1           GLINRGX3   DS    3F                  Working R15-R1 save area
 000014                00014 00014 17634                       END
-                                  17644              ¿þþþþþþþþþþþþþþþþþþþþþþþþþþþþþþþþþþþþþþþþþþþþþþþþþþþþþþþþþþþþþþþþþþþþþÜ
                                   17645              Ÿ                                                                     Ÿ
                                   17646              Ÿ  GETLINEX -- Extended version of GETLINE.  This routine can         Ÿ
                                   17647              Ÿ    get a line from any Active file.                                 Ÿ
                                   17648              Ÿ                                                                     Ÿ
                                   17649              Ÿ    On entry:                                                        Ÿ
                                   17650              Ÿ      R15 - line-number of line to get                               Ÿ
                                   17651              Ÿ      R1 - put line text here (&LINESZ bytes)                        Ÿ
                                   17652              Ÿ      R2 - Active file number (0 means current)                      Ÿ
                                   17653              Ÿ                                                                     Ÿ
                                   17654              Ÿ    On exit, R15 (and cc):                                           Ÿ
                                   17655              Ÿ     -4 - past end of file                                           Ÿ
                                   17656              Ÿ      0 - ok; R1,R0 = line loc, len                                  Ÿ
                                   17657              Ÿ      4 - not found; R1,R0 = next line loc, len                      Ÿ
                                   17658              Ÿ                                                                     Ÿ
                                   17659              Ÿ      CPLCNO contains the line-number.                               Ÿ
                                   17660              Ÿ                                                                     Ÿ
                                                      ¾þþþþþþþþþþþþþþþþþþþþþþþþþþþþþþþþþþþþþþþþþþþþþþþþþþþþþþþþþþþþþþþþþþþþþ»
00021A0 50E0 D000/9008_      00000 17661              GETLINEX XPROC ,
 USING  *,R7
 0021BA 58E0 78D2/0DEE       02A8C 17701                       ACALL GETLBASE            --> Join common code
 0021C0 9001 8004            00004 17705                       PRETURN (R0,R1)
 0021C4 18D8/9808 D004_            17707                       PEND  ,
 DROP   *,R7
1ACT      (ACT2025) (12:40) (15MAR04) Active File Utility Routines                                                          Page   61
0Current Usings:  (CP,R11) (CV,R12)
0Loc    Object Code    Addr1 Addr2  Stmt Lv Lineno    Source Statement           (Hibal 5, Asmedit 3.3)  HLASM R4.0  2004/03/15 12.40
+___    ______ ____    _____ _____  ____ __ ______    ______ _________
0                                  17728              ¿þþþþþþþþþþþþþþþþþþþþþþþþþþþþþþþþþþþþþþþþþþþþþþþþþþþþþþþþþþþþþþþþþþþþþÜ
                                   17729              Ÿ                                                                     Ÿ
                                   17730              Ÿ  GETLINE -- Routine to get a line from the current Active file.     Ÿ
                                   17731              Ÿ                                                                     Ÿ
                                   17732              Ÿ    On entry:                                                        Ÿ
                                   17733              Ÿ      R15 - line-number of line to get                               Ÿ
                                   17734              Ÿ      R1 - put line text here (&LINESZ bytes)                        Ÿ
                                   17735              Ÿ                                                                     Ÿ
                                   17736              Ÿ    On exit, R15 (and cc):                                           Ÿ
                                   17737              Ÿ     -4 - past end of file                                           Ÿ
                                   17738              Ÿ      0 - ok; R1,R0 = line loc, len                                  Ÿ
                                   17739              Ÿ      4 - not found; R1,R0 = next line loc, len                      Ÿ
                                   17740              Ÿ                                                                     Ÿ
                                   17741              Ÿ      CPLCNO contains the line-number.                               Ÿ
                                   17742              Ÿ                                                                     Ÿ
                                                      ¾þþþþþþþþþþþþþþþþþþþþþþþþþþþþþþþþþþþþþþþþþþþþþþþþþþþþþþþþþþþþþþþþþþþþþ»
00021D2 50E0 D000/9008_      00000 17743              GETLINE  XPROC ,
 USING  *,R7
 0021EC 1B22                       17783                       CLEAR R2                  Current Active file
 0021EE 58E0 78A0/0DEE       02A8C 17787                       ACALL GETLBASE
 0021F4 9001 8004            00004 17791                       PRETURN (R0,R1)
 0021F8 18D8/9808 D004_            17793                       PEND  ,
 DROP   *,R7
0                                  17814                       ¿þþþþþþþþþþþþþþþþþþþþþþþþþþþþþþþþþþþþþþþþþþÜ
                                   17815                       Ÿ  Common GETLINE/GETLINEX entry is here.  Ÿ
                                   17816                       Ÿ                                          Ÿ
                                   17817                       Ÿ  SEE COMMENTS ABOVE                      Ÿ
                                   17818                       Ÿ                                          Ÿ
                                   17819                       ¾þþþþþþþþþþþþþþþþþþþþþþþþþþþþþþþþþþþþþþþþþþ»
 002206 50E0 D000/9008_      00000 17820              GETLBASE PROC  GLINEWA
 USING  *,R7
 USING  GLINEWA-(4+36),R8
                                   17870
 002220 1841                       17871                       LR    R4,R1
 002222 50F0 8028            00000 17872                       ST    R15,GLINORIG        Save line-number
 002226 50F0 802C            00004 17873                       ST    R15,GLINLNO         Ditto
                                   17874                       ¿þþþþþþþþþþþþþþþþþþþþþþþþþþþþþþþþþþþþþþþþþþþþþþþþþþþþþþþþþÜ
                                   17875                       Ÿ  Switch Active files if necessary.                      Ÿ
                                   17876                       Ÿ    Note that since we are only reading the Active file  Ÿ
                                   17877                       Ÿ    we don't need to go through the ACTPICK logic.       Ÿ
                                   17878                       ¾þþþþþþþþþþþþþþþþþþþþþþþþþþþþþþþþþþþþþþþþþþþþþþþþþþþþþþþþþ»
 00222A 1262                       17879                       LTR   R6,R2               Different than current Active?
 00222C 4780 7026            02246 17880                       IF    NZ,BEGIN            Yes...
 002230 90F1 8030            00008 17891  1                      STM   R15,R1,GLINRGX3     Save regs
 002234 1802                       17892  1                      LR    R0,R2
 002236 41F0 B484            00484 17893  1                      LA    R15,CPTEXT          Active file record group
 00223A 58E0 7870/0DEE       02A90 17894  1                      VCALL XSETSET             Switch Actives
 002240 186F                       17898  1                      LR    R6,R15              Save previous Active file number
 002242 98F1 8030            00008 17899  1                      LM    R15,R1,GLINRGX3     Restore regs
 002246                            17900                       END
1ACT      (ACT2025) (12:40) (15MAR04) Active File Utility Routines                                                          Page   62
0Current Usings:  (*,R7) (GLINEWA-(4+36),R8) (CP,R11) (CV,R12)
0Loc    Object Code    Addr1 Addr2  Stmt Lv Lineno    Source Statement           (Hibal 5, Asmedit 3.3)  HLASM R4.0  2004/03/15 12.40
+___    ______ ____    _____ _____  ____ __ ______    ______ _________
0                                  17904                       ¿þþþþþþþþþþþþþþþþþþþþþþþþþþÜ
                                   17905                       Ÿ  Get the line contents.  Ÿ
                                   17906                       ¾þþþþþþþþþþþþþþþþþþþþþþþþþþ»
 002246 41F0 B484            00484 17907                       LA    R15,CPTEXT          Active file record group
 00224A 4120 802C            00004 17908                       LA    R2,GLINLNO
 00224E 58E0 7868/0DEE       02A88 17909                       VCALL XLOCLINE            Locate line
                                   17913
 002254 4780 7042            02262 17914                       IF    NZ,BEGIN            Past end of file...
 002258 D203 B73C C160 0073C 00160 17925  1                      MVC   CPLCNO,CVHILNO      Set max possible
 00225E 48F0 78F8            02B18 17926  1                      LH    R15,=H'-4'          Past eof
 002262                            17927                       END
                                   17931
 002262 7046/47F0 708C 02262 02256 17932                       ELSE  BEGIN               Found the line...
 002266 D503 802C C15C_00004 0015C 17943  1                      IF    (GLINLNO,LGT,CVMAXLNO),BEGIN
 002270 D203 B73C C160 0073C 00160 17961  2                        MVC   CPLCNO,CVHILNO      Set max possible
 002276 48F0 78F8            02B18 17962  2                        LH    R15,=H'-4'          Set return code
 00227A                            17963  1                      END
 00227A 705E/47F0 708C 0227A 0226E 17967  1                      ELSE  BEGIN               We have a line...
 00227E 1821                       17978  2                        LR    R2,R1               Data address
 002280 5900 7874/47D0_      02A94 17979  2                        CEIL  R0,&LINESZ
 00228C 1830                       17998  2                        LR    R3,R0               Data length
 00228E 5630 7878            02A98 17999  2                        O     R3,=A(X'40000000')  Pad with blanks
 002292 4150 00EB            000EB 18000  2                        LA    R5,&LINESZ
 002296 0E42                       18001  2                        MVCL  R4,R2               Move in data (and blank pad)
                                   18002  2
 002298 5820 802C            00004 18003  2                        L     R2,GLINLNO
 00229C 5920 8028/4780_      00000 18004  2                        IF    (R2,NE,GLINORIG),'LA R15,4'  We are returning next
 0022A8 5020 B73C            0073C 18027  2                        ST    R2,CPLCNO           Save for caller
 0022AC                            18028  1                      END
 0022AC                            18032                       END
                                   18036                       ¿þþþþþþþþþþþþþþþþþþþþþþþþþþþþþþþþþþþþþþþÜ
                                   18037                       Ÿ  Past end of file, return null line.  Ÿ
                                   18038                       ¾þþþþþþþþþþþþþþþþþþþþþþþþþþþþþþþþþþþþþþþ»
 0022AC 12FF/47B0 709A             18039                       IF    (R15,NEG),BEGIN     Past end of file...
 0022B2 D2EA 4000 C4D8 00000 004D8 18053  1                      MVC   @R4(&LINESZ),CVBLANKS
 0022B8 1B00                       18054  1                      CLEAR R0
 0022BA                            18058                       END
                                   18062                       ¿þþþþþþþþþþþþþþþþþþþþþþþþþþþþþþþþþþþþþþþþþþþþþþþþþþþþþÜ
                                   18063                       Ÿ  Switch back to original Active file if necessary.  Ÿ
                                   18064                       ¾þþþþþþþþþþþþþþþþþþþþþþþþþþþþþþþþþþþþþþþþþþþþþþþþþþþþþ»
 0022BA 1266/4780 70B4             18065                       IF    (R6,NZ),BEGIN       We need to switch back...
 0022C0 90F1 8030            00008 18079  1                      STM   R15,R1,GLINRGX3
 0022C4 1806                       18080  1                      LR    R0,R6               Previous Active file number
 0022C6 41F0 B484            00484 18081  1                      LA    R15,CPTEXT          Active file record group
 0022CA 58E0 7870/0DEE       02A90 18082  1                      VCALL XSETSET             Switch back
 0022D0 98F1 8030            00008 18086  1                      LM    R15,R1,GLINRGX3
 0022D4                            18087                       END
                                   18091              *
                                   18092              *
 0022D4 5008 0004            00004 18093                       PRETURN (R0)              Return accurate length
 0022D8 18D8/9808 D004_            18095                       PEND  ,
 DROP   GLINEWA-(4+36),R8
 DROP   *,R7
1ACT      (ACT2025) (12:40) (15MAR04) Active File Utility Routines                                                          Page   63
0Current Usings:  (CP,R11) (CV,R12)
0Loc    Object Code    Addr1 Addr2  Stmt Lv Lineno    Source Statement           (Hibal 5, Asmedit 3.3)  HLASM R4.0  2004/03/15 12.40
+___    ______ ____    _____ _____  ____ __ ______    ______ _________
0000000                00000 000FF 18121              PLINEWA  RECORD BEGIN
 000000                            18129  1           PLINLNO    DS    F                   Working line-number
 000004                            18130  1           PLINLEN    DS    F                   Text data length
 000008                            18131  1           PLINPTRS   DS    2A                  Working line loc, len
                                   18132  1
 000010                            18133  1           PLINOPT    DS    CL4                 Option flags
                                   18134  1
                                   18135  1           PLINTEXT   DS    CL(&LINESZ)         Line text
 000014                                   1          +PLINTEXT   DS    CL(235)             Line text
 0000FF                000FF 000FF 18136                       END
-                                  18146              ¿þþþþþþþþþþþþþþþþþþþþþþþþþþþþþþþþþþþþþþþþþþþþþþþþþþþþþþþþþþþþþþþþþþþþþÜ
                                   18147              Ÿ                                                                     Ÿ
                                   18148              Ÿ  PUTLINEX -- Routine to add/replace a line in the Active file.      Ÿ
                                   18149              Ÿ    This entry point is used when the caller needs to pass special   Ÿ
                                   18150              Ÿ    options.                                                         Ÿ
                                   18151              Ÿ                                                                     Ÿ
                                   18152              Ÿ    On entry:                                                        Ÿ
                                   18153              Ÿ      R15   - line-number                                            Ÿ
                                   18154              Ÿ      R1,R0 - line text loc, len                                     Ÿ
                                   18155              Ÿ      @R2   - four character options flags:                          Ÿ
                                   18156              Ÿ                 "...." - nothing special                            Ÿ
                                   18157              Ÿ                 "I..." - Insert mode only                           Ÿ
                                   18158              Ÿ                 "R..." - Replace mode only                          Ÿ
                                   18159              Ÿ                                                                     Ÿ
                                   18160              Ÿ    On exit, R15 (and cc):                                           Ÿ
                                   18161              Ÿ      0 - ok                                                         Ÿ
                                   18162              Ÿ     -4 - can't insert/replace because of option setting             Ÿ
                                   18163              Ÿ                                                                     Ÿ
                                                      ¾þþþþþþþþþþþþþþþþþþþþþþþþþþþþþþþþþþþþþþþþþþþþþþþþþþþþþþþþþþþþþþþþþþþþþ»
00022E6 50E0 D000/9008_      00000 18164              PUTLINEX XPROC ,
 USING  *,R7
 002300 58E0 779C/0DEE       02A9C 18204                       ACALL PUTLBASE            --> Join common code
 002306 18D8/9808 D004_            18208                       PEND  ,                   (Never executed)
 DROP   *,R7
1ACT      (ACT2025) (12:40) (15MAR04) Active File Utility Routines                                                          Page   64
0Current Usings:  (CP,R11) (CV,R12)
0Loc    Object Code    Addr1 Addr2  Stmt Lv Lineno    Source Statement           (Hibal 5, Asmedit 3.3)  HLASM R4.0  2004/03/15 12.40
+___    ______ ____    _____ _____  ____ __ ______    ______ _________
0                                  18229              ¿þþþþþþþþþþþþþþþþþþþþþþþþþþþþþþþþþþþþþþþþþþþþþþþþþþþþþþþþþþþþþþþþþþþþþÜ
                                   18230              Ÿ                                                                     Ÿ
                                   18231              Ÿ  PUTLINE -- Routine to add/replace a line in the Active file.       Ÿ
                                   18232              Ÿ                                                                     Ÿ
                                   18233              Ÿ    On entry:                                                        Ÿ
                                   18234              Ÿ      R15 - line-number                                              Ÿ
                                   18235              Ÿ      R1,R0 - line text loc, len                                     Ÿ
                                   18236              Ÿ                                                                     Ÿ
                                   18237              Ÿ    Returns only if ok.                                              Ÿ
                                   18238              Ÿ                                                                     Ÿ
                                                      ¾þþþþþþþþþþþþþþþþþþþþþþþþþþþþþþþþþþþþþþþþþþþþþþþþþþþþþþþþþþþþþþþþþþþþþ»
0002314 50E0 D000/9008_      00000 18239              PUTLINE  XPROC ,
 USING  *,R7
 00232E 4120 7772            02AA0 18279                       LA    R2,=C'....'         Set option flags
 002332 58E0 776E/0DEE       02A9C 18280                       ACALL PUTLBASE
 002338 18D8/9808 D004_            18284                       PEND
 DROP   *,R7
0                                  18305                       ¿þþþþþþþþþþþþþþþþþþþþþþþþþþþþþþþþþþþþþþþþþþÜ
                                   18306                       Ÿ  Common PUTLINE/PUTLINEX entry is here.  Ÿ
                                   18307                       Ÿ                                          Ÿ
                                   18308                       Ÿ  SEE COMMENTS ABOVE                      Ÿ
                                   18309                       Ÿ                                          Ÿ
                                   18310                       ¾þþþþþþþþþþþþþþþþþþþþþþþþþþþþþþþþþþþþþþþþþþ»
 002346 50E0 D000/9008_      00000 18311              PUTLBASE PROC  PLINEWA
 USING  *,R7
 USING  PLINEWA-(4+36),R8
                                   18361
 002360 D203 8038 2000 00010 00000 18362                       MVC   PLINOPT,@R2         Save option settings
 002366 50F0 8028            00000 18363                       ST    R15,PLINLNO         Save line-number
 00236A 12FF/4740 7018_            18364                       IF    ((R15,NEG),OR,(R15,GT,CVMAXLNO)),BEGIN
 002378 4110 77BA/4100_      02B1A 18394  1                      ABORT 'Can''t add line.  Line '
 002384 5800 8028            00000 18401  1                      L     R0,PLINLNO
 002388 58E0 7744/0DEE       02AA4 18402  1                      VCALL CVEXNO
 00238E 41F0 B050/58E0_      00050 18406  1                      TSEG  (R1),(R0)
 002398 4110 774C/4100_      02AAC 18430  1                      ABORT ' is not a valid line-number.'
 0023A4                            18437                       END
                                   18441
 0023A4 9140 B5C3/47E0_005C3       18442                       IF    CPAFPRT,BEGIN       Protected Active file...
 0023AC 4110 77EE/4100_      02B4E 18457  1                      ABORT 'This Active file can not be modified.'
 0023B8                            18464                       END
                                   18468
 0023B8 1200/47B0 7060_            18469                       IF    (R0,NEG),'CLEAR R0'
 0023C0 5900 7734/47D0_      02A94 18492                       CEIL  R0,&LINESZ          Make sure length is within bounds
                                   18511                       ¿þþþþþþþþþþþþþþþþþþþþþþþþþÜ
                                   18512                       Ÿ  Trim trailing blanks.  Ÿ
                                   18513                       ¾þþþþþþþþþþþþþþþþþþþþþþþþþ»
 0023CC 18F1                       18514                       LR    R15,R1
 0023CE 1AF0                       18515                       AR    R15,R0
 0023D0 06F0                       18516                       DECR  R15
 0023D2 1200/47D0 7086             18518                       IF    (R0,POS),BEGIN      Trim trailing blanks...
 0023D8 9540 F000/4770_00000       18532  1           PUTLTRIM   IF    (@R15,NE,' '),EXIT  Done, scram
 0023E0 06F0                       18552  1                      DECR  R15                 Back up
1ACT      (ACT2025) (12:40) (15MAR04) Active File Utility Routines                                                          Page   65
0Current Usings:  (*,R7) (PLINEWA-(4+36),R8) (CP,R11) (CV,R12)
0Loc    Object Code    Addr1 Addr2  Stmt Lv Lineno    Source Statement           (Hibal 5, Asmedit 3.3)  HLASM R4.0  2004/03/15 12.40
+___    ______ ____    _____ _____  ____ __ ______    ______ _________
00023E2 4600 7078            023D8 18554  1                      BCT   R0,PUTLTRIM         Loop back
 0023E6                            18555                       END
                                   18559
 0023E6 5000 802C            00004 18560                       ST    R0,PLINLEN          Save text length
                                   18561                       ¿þþþþþþþþþþþþþþþþþþþþþþþþþþþþþþþþþþþþþþþþþþþþþþþþþþþþþþþþþþþþþÜ
                                   18562                       Ÿ  If it's an empty Active file save the creation time/date.  Ÿ
                                   18563                       ¾þþþþþþþþþþþþþþþþþþþþþþþþþþþþþþþþþþþþþþþþþþþþþþþþþþþþþþþþþþþþþ»
 0023EA D603 B5AC B5AC_005AC 005AC 18564                       IF    (CPALNCT,Z),BEGIN   Empty Active file...
 0023F4 D203 B5B8 B338 005B8 00338 18580  1                      MVC   CPAICLK,CPCLCK      Save creation TOD
 0023FA D503 7768 B590_02AC8 00590 18581  1                      IF    (CPATYPE,EQ,'TEMP'),'INCR R15,CPATTEMP'
 002410 70B4/47F0 70C0_02410 02402 18609  1                      ELSE  'INCR R15,CPATTEXT'  Count number of Actives
 002420 58E0 776C/0DEE       02ACC 18631  1                      ACALL ACTPFX              Set the prefix if USE
 002426                            18635                       END
                                   18639                       ¿þþþþþþþþþþþþþþþþþþþþþþþþþþþÜ
                                   18640                       Ÿ  Now copy the line text.  Ÿ
                                   18641                       ¾þþþþþþþþþþþþþþþþþþþþþþþþþþþ»
 002426 4140 803C            00014 18642                       LA    R4,PLINTEXT         Our line text area
 00242A 1850                       18643                       LR    R5,R0
 00242C 1821                       18644                       LR    R2,R1               Caller's line text ptr
 00242E 1830                       18645                       LR    R3,R0
 002430 0E42                       18646                       MVCL  R4,R2               Copy line text
                                   18647              *
                                   18648              *
 002432 4110 803C            00014 18649                       LA    R1,PLINTEXT         Start of data
 002436 9001 8030            00008 18650                       STM   R0,R1,PLINPTRS      Save data loc, len
                                   18651                       ¿þþþþþþþþþþþþþþþþþþþþþþþþþþþþþþþþþþþþÜ
                                   18652                       Ÿ  Check for Active file too large.  Ÿ
                                   18653                       ¾þþþþþþþþþþþþþþþþþþþþþþþþþþþþþþþþþþþþ»
 00243A D503 7770 B564_02AD0 00564 18654                       IF    (CPATBYTS,GT,=A(CPATMAX#)),BEGIN  Big Active...
 002444 58E0 7774/0DEE       02AD4 18671  1                      ACALL ACTPURGE            Try to purge old cleared actives
                                   18675  1
 00244A D503 7778 B564_02AD8 00564 18676  1                      IF    (CPATBYTS,GT,=A(CPATLIM#)),BEGIN  Tina's too too much
 002454 41F0 7720            02A80 18693  2                        LA    R15,=CL8'ACTFULL'
 002458 58E0 777C/0DEE       02ADC 18694  2                        VCALL LOGCMD
 00245E 4110 77D0/4100_      02B30 18698  2                        ABORT 'Active file space is full.'
 00246A                            18705  1                      END
 00246A                            18709                       END
                                   18713                       ¿þþþþþþþþþþþþþþþþþþþþþþþþþþþþþþþþþþþþþþþþþþþþþþþþþþþþþþþþþþþþÜ
                                   18714                       Ÿ  We need to know if we are replacing the line to maintain  Ÿ
                                   18715                       Ÿ    the line and byte counts.                               Ÿ
                                   18716                       Ÿ                                                            Ÿ
                                   18717                       Ÿ                                                            Ÿ
                                   18718                       Ÿ  Add/replace line.                                         Ÿ
                                   18719                       ¾þþþþþþþþþþþþþþþþþþþþþþþþþþþþþþþþþþþþþþþþþþþþþþþþþþþþþþþþþþþþ»
 00246A 4130 8038            00010 18720                       LA    R3,PLINOPT          Option flags
 00246E 4120 8028            00000 18721                       LA    R2,PLINLNO
 002472 9801 8030            00008 18722                       LM    R0,R1,PLINPTRS
 002476 41F0 B484            00484 18723                       LA    R15,CPTEXT          Active file record group
 00247A 58E0 7780/0DEE       02AE0 18724                       VCALL XPUTLINE            Save line in ACTIVE file
 002480 4780 714A            024AA 18728                       IF    NZ,BEGIN            Error...
 002484 59F0 7784/4770_      02AE4 18739  1                      IF    (R15,EQ,12),'LH R15,=H"-4"; B PUTLEXIT'  Ins/Rep
 002494 41F0 7720            02A80 18763  1                      LA    R15,=CL8'ACTFULL'
 002498 58E0 777C/0DEE       02ADC 18764  1                      VCALL LOGCMD
 00249E 4110 77D0/4100_      02B30 18768  1                      ABORT 'Active file space is full.'
1ACT      (ACT2025) (12:40) (15MAR04) Active File Utility Routines                                                          Page   66
0Current Usings:  (*,R7) (PLINEWA-(4+36),R8) (CP,R11) (CV,R12)
0Loc    Object Code    Addr1 Addr2  Stmt Lv Lineno    Source Statement           (Hibal 5, Asmedit 3.3)  HLASM R4.0  2004/03/15 12.40
+___    ______ ____    _____ _____  ____ __ ______    ______ _________
00024AA                            18775                       END
                                   18779
 0024AA 714E/47F0 71F4 024AA 02482 18780                       ELSE  BEGIN               OK...
 0024AE 1200/4740 717C             18791  1                      IF    (R0,NL),BEGIN       IF REPLACE, FIX COUNTS
 0024B4 58F0 B578/06F0_      00578 18805  2                        DECR  R15,CPATLINS
 0024BE 58F0 B5AC/06F0_      005AC 18810  2                        DECR  R15,CPALNCT
                                   18815  2
 0024C8 58F0 B564            00564 18816  2                        L     R15,CPATBYTS
 0024CC 1BF0                       18817  2                        SR    R15,R0
 0024CE 50F0 B564            00564 18818  2                        ST    R15,CPATBYTS
 0024D2 58F0 B5B0            005B0 18819  2                        L     R15,CPABYCT
 0024D6 1BF0                       18820  2                        SR    R15,R0
 0024D8 50F0 B5B0            005B0 18821  2                        ST    R15,CPABYCT
 0024DC                            18822  1                      END
                                   18826  1
 0024DC 9620 B5C3      005C3       18827  1                      SET   CPAFDEF             Active is defined now
 0024E0 41F0 0001/5EF0_      00001 18833  1                      INCR  R15,CPATLINS        Total lines for all Actives
 0024EC 41F0 0001/5EF0_      00001 18839  1                      INCR  R15,CPALNCT         Keep accurate line count
 0024F8 59F0 7788/4770_      02AE8 18845  1                      IF    (R15,EQ,1),'MVC CPAFLNO,PLINLNO; MVC CPALLNO,PLINLNO'
 00250C D503 8028 B5A0_00000 005A0 18869  1                      IF    (PLINLNO,LT,CPAFLNO),'MVC CPAFLNO,PLINLNO'  First
 00251C D503 8028 B5A4_00000 005A4 18893  1                      IF    (PLINLNO,GT,CPALLNO),'MVC CPALLNO,PLINLNO'  Last
                                   18917  1
 00252C 58F0 B564            00564 18918  1                      L     R15,CPATBYTS
 002530 5AF0 802C            00004 18919  1                      A     R15,PLINLEN
 002534 50F0 B564            00564 18920  1                      ST    R15,CPATBYTS        New total for all Actives
                                   18921  1
 002538 58F0 B5B0            005B0 18922  1                      L     R15,CPABYCT
 00253C 5AF0 802C            00004 18923  1                      A     R15,PLINLEN
 002540 50F0 B5B0            005B0 18924  1                      ST    R15,CPABYCT         New total byte count
                                   18925  1
 002544 D203 B740 8028 00740 00000 18926  1                      MVC   CPSTLNO,PLINLNO     Save last lineno STOWed
 00254A 5800 8028            00000 18927  1                      L     R0,PLINLNO          Line-number being changed
 00254E 58E0 778C/0DEE       02AEC 18928  1                      VCALL PAGEMARK            Mark it if in current page
 002554                            18932                       END
                                   18936              *
                                   18937              *
 002554 1BFF                       18938                       CLEAR R15                 Set good return code
 002556 18D8/9808 D004_            18942              PUTLEXIT PEND  ,
 DROP   PLINEWA-(4+36),R8
 DROP   *,R7
1ACT      (ACT2025) (12:40) (15MAR04) Active File Utility Routines                                                          Page   67
0Current Usings:  (CP,R11) (CV,R12)
0Loc    Object Code    Addr1 Addr2  Stmt Lv Lineno    Source Statement           (Hibal 5, Asmedit 3.3)  HLASM R4.0  2004/03/15 12.40
+___    ______ ____    _____ _____  ____ __ ______    ______ _________
0000000                00000 002FC 18969              PUTCB    RECORD 'PUTCB'            PUTBYTES control block
                                   18979+ 1          +           ¿þþþþþþþþþþþþþþþþþþþþþþþþþþþþþþþþþþþþþþþþþþþþÜ
                                   18980+ 1          +           Ÿ  PUTBYTES Control Block (see ACT module).  Ÿ
                                   18981+ 1          +           ¾þþþþþþþþþþþþþþþþþþþþþþþþþþþþþþþþþþþþþþþþþþþþ»
 000000 00                         18982  1 03-PUTCB +PUTSTART     DS  0F
 PUTFL.PUTFTRAN    80 ONES
 PUTFL.PUTFWRAP    40 ONES
 PUTFL.PUTFNECHO   20 ONES
 PUTFL.PUTFTABS    10 ONES
 PUTFL.PUTFSTOP    08 ONES
 000001 00                         19012  1          +*
 PUTFL2.PUTFGOTCR  80 ONES
 PUTFL2.PUTFACTCT  40 ONES
                                   19027  1          +*
 000002                            19028  1 03-PUTCB +PUTMAXLN     DS  H                   Max line length
                                   19029  1          +
 000004                            19030  1 03-PUTCB +PUTCOUNT     DS  F                   Max number of lines to add
 000008                            19031  1 03-PUTCB +PUTLNO       DS  F                   Current line-number
                                   19032  1          +
 00000C                            19033  1 03-PUTCB +PUTSTLEN     DS  H                   Stop text length
 00000E                            19034  1 03-PUTCB +PUTSTOP      DS  CL(235)             Stop text
                                   19035  1          +
 0000FA                            19036  1 03-PUTCB +PUTRESLN     DS  H                   Current residual buffer length
 0000FC                            19037  1 03-PUTCB +PUTRESBF     DS  XL512               Residual buffer data saved here
 0002FC                002FC 002FC 19038             +*
                                   19048              *
                                   19049              ASCII$LF EQU   X'0A',,C'N'         ASCII line-feed
                                   19050              ASCII$CR EQU   X'0D',,C'N'         ASCII carriage-return
                                   19051
                                   19052              $LF      EQU   1,,C'N'             Our code for line-feed
                                   19053              $CR      EQU   2,,C'N'             Our code for carriage return
1ACT      (ACT2025) (12:40) (15MAR04) Active File Utility Routines                                                          Page   68
0Current Usings:  (CP,R11) (CV,R12)
0Loc    Object Code    Addr1 Addr2  Stmt Lv Lineno    Source Statement           (Hibal 5, Asmedit 3.3)  HLASM R4.0  2004/03/15 12.40
+___    ______ ____    _____ _____  ____ __ ______    ______ _________
0                                  19055              ¿þþþþþþþþþþþþþþþþþþþþþþþþþþþþþþþþþþþþþþþþþþþþþþþþþþþþþþþþþþþþþþþþþþþþþÜ
                                   19056              Ÿ                                                                     Ÿ
                                   19057              Ÿ  PUTBYTES -- Routine to put a stream of bytes in to the Active      Ÿ
                                   19058              Ÿ    file based on the options specified in the PUTWA.                Ÿ
                                   19059              Ÿ                                                                     Ÿ
                                   19060              Ÿ    Note:  This routine currently assumes that the data is an        Ÿ
                                   19061              Ÿ      ASCII stream of bytes.  If it were ever necessary, a flag      Ÿ
                                   19062              Ÿ      could be added to the PUTCB saying that the data was in        Ÿ
                                   19063              Ÿ      EBCDIC.                                                        Ÿ
                                   19064              Ÿ                                                                     Ÿ
                                   19065              Ÿ    On entry:                                                        Ÿ
                                   19066              Ÿ      R1,R0 - buffer loc, len  (R0 = -1 = flush buffer request)      Ÿ
                                   19067              Ÿ      R15 - PUTCB ptr                                                Ÿ
                                   19068              Ÿ                                                                     Ÿ
                                   19069              Ÿ    On exit, R15 (and cc):                                           Ÿ
                                   19070              Ÿ      0 - ok                                                         Ÿ
                                   19071              Ÿ      4 - time to stop (count exhausted, stop text match, etc.)      Ÿ
                                   19072              Ÿ                                                                     Ÿ
                                                      ¾þþþþþþþþþþþþþþþþþþþþþþþþþþþþþþþþþþþþþþþþþþþþþþþþþþþþþþþþþþþþþþþþþþþþþ»
0000000                00000 00A06 19073              PUTBWA   RECORD BEGIN
 000000                            19081  1           PUTBLPTR   DS    A                   Start of line ptr
 000004                            19082  1           PUTBLLEN   DS    H                   Working line length
                                   19083  1           PUTBINIT   EQU   PUTBLPTR,*-PUTBLPTR,C'X'
                                   19084  1
                                   19085  1           PUTBMAXL   EQU   2048,,C'N'          Maximum buffer size we can handle
 000006                            19086  1           PUTBAREA   DS    XL(L'PUTRESBF+PUTBMAXL)  Working buffer
 000A06                00A06 00A06 19087                       END
                                   19096              þþþþ
 002564 50E0 D000/9008_      00000 19097              PUTBYTES XPROC PUTBWA
 USING  *,R7
 USING  PUTBWA-(4+36),R8
 00257E D705 8028 8028 00000 00000 19148                       CLEAR PUTBINIT
                                   19155
 002584 186F                       19156                       LR    R6,R15              PUTCB ptr
 USING  PUTCB,R6                   19157                       WITH  (PUTCB,R6)
 002586 1851                       19170                       LR    R5,R1               Save buffer loc...
 002588 1840                       19171                       LR    R4,R0               ...and len
                                   19172                       ¿þþþþþþþþþþþþþþþþþþþþþþþþþþþþþþþþþþþþþþþþþþþþþþþþþþþþþþþþþÜ
                                   19173                       Ÿ  Set PUTCB defaults if they have not already been set.  Ÿ
                                   19174                       ¾þþþþþþþþþþþþþþþþþþþþþþþþþþþþþþþþþþþþþþþþþþþþþþþþþþþþþþþþþ»
 00258A D601 6002 6002_00002 00002 19175                       IF    (PUTMAXLN,Z),'MVC PUTMAXLN,=AL2(&LINESZ)'  Set max
 00259A D603 6008 6008_00008 00008 19197                       IF    (PUTLNO,Z),'VCALL ENDLNO; ST R0,PUTLNO'  END lineno
 0025AE 9110 B477/4710_00477       19223                       IF    ~CPFTYPED,'SET PUTFACTCT'  Non-typed command
                                   19249                       ¿þþþþþþþþþþþþþþþþþþþþþþþþþÜ
                                   19250                       Ÿ  Flush buffer request.  Ÿ
                                   19251                       ¾þþþþþþþþþþþþþþþþþþþþþþþþþ»
 0025BA 1244/47B0 7098             19252                       IF    (R4,NEG),BEGIN      Empty buffer...
 0025C0 4110 60FC/4800_      000FC 19266  1                      SETMSG PUTRESBF,LH:PUTRESLN  Residual text
                                   19279  1
 0025C8 12F0/47D0 7092             19280  1                      IF    ('LTR R15,R0',POS),BEGIN  Translate data...
 0025CE 9180 6000/4710_00000       19293  2                        IF    ~PUTFTRAN,BEGIN     Don't translate the data
 0025D6 06F0/12FF/4740_            19308  3                          MOVE  R15,PUTBAREA,@R1    Make a copy of the data
 0025E2 4110 802E            00006 19346  3                          LA    R1,PUTBAREA         Copy of the line
1ACT      (ACT2025) (12:40) (15MAR04) Active File Utility Routines                                                          Page   69
0Current Usings:  (PUTCB,R6) (*,R7) (PUTBWA-(4+36),R8) (CP,R11) (CV,R12)
0Loc    Object Code    Addr1 Addr2  Stmt Lv Lineno    Source Statement           (Hibal 5, Asmedit 3.3)  HLASM R4.0  2004/03/15 12.40
+___    ______ ____    _____ _____  ____ __ ______    ______ _________
00025E6 5820 C8C0            008C0 19347  3                          L     R2,CVEB7TBL         ASCII-7 to EBCDIC translate table
 0025EA 44F0 75FC/DC00_      02B7A 19348  3                          EX    R15,'TR @R1(0),@R2'  Translate ASCII to EBCDIC
 0025EE                            19364  2                        END
                                   19368  2
 0025EE 58F0 6008            00008 19369  2                        L     R15,PUTLNO          Line-number
 0025F2 58E0 7576/0DEE       02AF4 19370  2                        VCALL PUTLINE             Add it to the Active file
 0025F8 9140 6001/4710_00001       19374  2                        IF    ~PUTFACTCT,'INCR R15,CPACHCT; SET PUTFACTCT'  Change
 002610                            19406  1                      END
                                   19410  1
 002610 1BFF                       19411  1                      CLEAR R15                 A-ok
 002612 47F0 7188            02706 19415  1                      B     PBYTEXIT            Scram
 002616                            19416                       END
                                   19420                       ¿þþþþþþþþþþþþþþþþþþþþþþþþþþþþþÜ
                                   19421                       Ÿ  Build our working buffer.  Ÿ
                                   19422                       ¾þþþþþþþþþþþþþþþþþþþþþþþþþþþþþ»
 002616 4100 802E            00006 19423                       LA    R0,PUTBAREA         Start of our buffer
 00261A 4810 60FA            000FA 19424                       LH    R1,PUTRESLN         Length of previous residual data
 00261E 1211/47D0 70AE             19425                       IF    (R1,POS),BEGIN      We have residual data...
 002624 4120 60FC            000FC 19439  1                      LA    R2,PUTRESBF         Residual buffer
 002628 1831                       19440  1                      LR    R3,R1
 00262A 0E02                       19441  1                      MVCL  R0,R2               Copy in residual data
 00262C                            19442                       END
                                   19446
 00262C 1814                       19447                       LR    R1,R4               Data length
 00262E 1825                       19448                       LR    R2,R5               Original data ptr
 002630 1831                       19449                       LR    R3,R1
 002632 0E02                       19450                       MVCL  R0,R2               Copy data
                                   19451
 002634 4150 802E            00006 19452                       LA    R5,PUTBAREA         R5 = start of data ptr
 002638 4A40 60FA            000FA 19453                       AH    R4,PUTRESLN         R4 = total buffer length
 00263C D701 60FA 60FA 000FA 000FA 19454                       CLEAR PUTRESLN            Reset residual length
                                   19461
 002642 5050 8028            00000 19462                       ST    R5,PUTBLPTR         Set start of line ptr
 002646 D701 802C 802C 00004 00004 19463                       CLEAR PUTBLLEN            Reset line length
                                   19470                       ¿þþþþþþþþþþþþþþþþþþþþþþþþþþþþþþÜ
                                   19471                       Ÿ  Look for ending character.  Ÿ
                                   19472                       ¾þþþþþþþþþþþþþþþþþþþþþþþþþþþþþþ»
 00264C                            19473                       LOOP  BEGIN               Look for ending character...
 00264C 12F4                       19479  1                      LTR   R15,R4              Length of data remaining
 00264E 47D0 716A            026E8 19480  1                      IF    NP,EXIT             All done, scram
                                   19494  1
 002652 59F0 757A/47D0_      02AF8 19495  1                      CEIL  R15,256
 00265E 411F 5000            00000 19514  1                      LA    R1,@R5(R15)
 002662 1B22                       19515  1                      CLEAR R2                  Pre-clear; TRT sets low byte
 002664 06F0/44F0 7602_            19519  1                      DEX   R15,'TRT @R5(0),PBYTTRT'  Look for ending character
 00266A 1831                       19538  1                      LR    R3,R1
 00266C 1B35                       19539  1                      SR    R3,R5               Length to skip
 00266E 47D0 70F8/947F_      02676 19540  1                      IF    POS,'CLEAR PUTFGOTCR'  Data invalidates LF check
                                   19563  1
 002676 48F0 802C            00004 19564  1                      LH    R15,PUTBLLEN        Current line length
 00267A 1AF3                       19565  1                      AR    R15,R3              New line length
 00267C 40F0 802C            00004 19566  1                      STH   R15,PUTBLLEN        Save it
                                   19567  1
 002680 1222/4780 710C_            19568  1                      IF    (R2,NZ),'LA R3,@R3+1'  Length includes ending char
1ACT      (ACT2025) (12:40) (15MAR04) Active File Utility Routines                                                          Page   70
0Current Usings:  (PUTCB,R6) (*,R7) (PUTBWA-(4+36),R8) (CP,R11) (CV,R12)
0Loc    Object Code    Addr1 Addr2  Stmt Lv Lineno    Source Statement           (Hibal 5, Asmedit 3.3)  HLASM R4.0  2004/03/15 12.40
+___    ______ ____    _____ _____  ____ __ ______    ______ _________
000268A 1A53                       19588  1                      AR    R5,R3               Skip past line
 00268C 1B43                       19589  1                      SR    R4,R3               Adjust length accordingly
                                   19590  1                      ¿þþþþþþþþþþþþþþþþþþþþþþþþþþþþþþþþþþþþþþþþþþþþþþþþþþþþþþÜ
                                   19591  1                      Ÿ  The line can either end with CR, CR/LF or just LF.  Ÿ
                                   19592  1                      Ÿ    Some special processing is needed here to avoid   Ÿ
                                   19593  1                      Ÿ    treating "CRLF" as two line terminators.          Ÿ
                                   19594  1                      ¾þþþþþþþþþþþþþþþþþþþþþþþþþþþþþþþþþþþþþþþþþþþþþþþþþþþþþþ»
 00268E 5920 757E/4770_      02AFC 19595  1                      IF    (R2,EQ,$CR),BEGIN   Stopped on CR...
 002696 9680 6001      00001       19612  2                        SET   PUTFGOTCR           Must check next byte for LF
 00269A                            19618  1                      END
                                   19622  1
 00269A 7120/47F0 713A_0269A 02694 19623  1                      ELSEIF (R2,EQ,$LF),BEGIN  Stopped on LF...
 0026A6 9180 6001/47E0_00001       19649  2                        IF    PUTFGOTCR,BEGIN     Ignore LF after CR...
 0026AE 947F 6001      00001       19664  3                          CLEAR PUTFGOTCR           Reset LF check flag
 0026B2 5050 8028            00000 19671  3                          ST    R5,PUTBLPTR         Line starts after LF
 0026B6 1B22                       19672  3                          CLEAR R2                  Don't stop here
 0026B8                            19676  2                        END
 0026B8                            19680  1                      END
                                   19684  1
 0026B8 713E/47F0 7142_026B8 026A4 19685  1                      ELSE  'CLEAR PUTFGOTCR'   Reset CR found flag
                                   19708  1
 0026C0 1222/4780 7166             19709  1                      IF    (R2,NZ),BEGIN       We have a complete line...
 0026C6 1BFF                       19723  2                        CLEAR R15                 Standard PUTBLINE options
 0026C8 5810 8028/4800_      00000 19727  2                        SETMSG L:PUTBLPTR,LH:PUTBLLEN  Line text
 0026D0 58E0 7586/0DEE       02B04 19738  2                        ACALL PUTBLINE            Save this line
 0026D6 4770 7188            02706 19742  2                        BNZ   PBYTEXIT            Time to stop, scram
                                   19743  2
 0026DA 5050 8028            00000 19744  2                        ST    R5,PUTBLPTR         Set new start of line ptr
 0026DE D701 802C 802C 00004 00004 19745  2                        CLEAR PUTBLLEN            Reset line length
 0026E4                            19752  1                      END
 0026E4 47F0 70CE            0264C 19756                       END
                                   19761                       ¿þþþþþþþþþþþþþþþþþþþþþþþþþþþþþþþþþþþþþþþþþþþþþþþþþþþþþþþþþþþþþþÜ
                                   19762                       Ÿ  Handle last partial line in the buffer.  PUTBLINE           Ÿ
                                   19763                       Ÿ    will save the last little bit of the buffer in the        Ÿ
                                   19764                       Ÿ    "PUTRESBF", it will then be prepended to our next input.  Ÿ
                                   19765                       ¾þþþþþþþþþþþþþþþþþþþþþþþþþþþþþþþþþþþþþþþþþþþþþþþþþþþþþþþþþþþþþþ»
 0026E8 D601 802C 802C_00004 00004 19766                       IF    (PUTBLLEN,NZ),BEGIN  We have some final text...
 0026F2 41F0 0001            00001 19782  1                      LA    R15,1               Save last line in "residual" buf
 0026F6 5810 8028/4800_      00000 19783  1                      SETMSG L:PUTBLPTR,LH:PUTBLLEN  Line text
 0026FE 58E0 7586/0DEE       02B04 19794  1                      ACALL PUTBLINE            Save line
 002704                            19798                       END
                                   19802
 002704 1BFF                       19803                       CLEAR R15                 A-ok return code
 002706 18D8/9808 D004_            19807              PBYTEXIT PEND  ,
 DROP   PUTCB,R6
 DROP   PUTBWA-(4+36),R8
 DROP   *,R7
                                   19838                       ¿þþþþþþþþþþþþþþþþþþþþþþÜ
                                   19839                       Ÿ  Ending characters.  Ÿ
                                   19840                       ¾þþþþþþþþþþþþþþþþþþþþþþ»
 002714 0000000000000000           19841              PBYTTRT  DC    256X'00'            Non-zero for ending chars
 002814                02814 0271E 19842                       ORG   PBYTTRT+ASCII$LF
 00271E 01                         19843                       DC    AL1($LF)            LF
 00271F                0271F 0279E 19844                       ORG   PBYTTRT+ASCII$LF+128
1ACT      (ACT2025) (12:40) (15MAR04) Active File Utility Routines                                                          Page   71
0Current Usings:  (CP,R11) (CV,R12)
0Loc    Object Code    Addr1 Addr2  Stmt Lv Lineno    Source Statement           (Hibal 5, Asmedit 3.3)  HLASM R4.0  2004/03/15 12.40
+___    ______ ____    _____ _____  ____ __ ______    ______ _________
000279E 01                         19845                       DC    AL1($LF)            LF (with parity on)
 00279F                0279F 02721 19846                       ORG   PBYTTRT+ASCII$CR
 002721 02                         19847                       DC    AL1($CR)            CR
 002722                02722 027A1 19848                       ORG   PBYTTRT+ASCII$CR+128
 0027A1 02                         19849                       DC    AL1($CR)            CR (with parity on)
 0027A2                027A2 02814 19850                       ORG
1ACT      (ACT2025) (12:40) (15MAR04) Active File Utility Routines                                                          Page   72
0Current Usings:  (CP,R11) (CV,R12)
0Loc    Object Code    Addr1 Addr2  Stmt Lv Lineno    Source Statement           (Hibal 5, Asmedit 3.3)  HLASM R4.0  2004/03/15 12.40
+___    ______ ____    _____ _____  ____ __ ______    ______ _________
0                                  19852              ¿þþþþþþþþþþþþþþþþþþþþþþþþþþþþþþþþþþþþþþþþþþþþþþþþþþþþþþþþþþþþþþþþþþþþþÜ
                                   19853              Ÿ                                                                     Ÿ
                                   19854              Ÿ  PUTBLINE -- Local routine to save a line of text in the Active     Ÿ
                                   19855              Ÿ    file.  This is a subroutine of PUTBYTES which handles            Ÿ
                                   19856              Ÿ    wrapping/splitting the line if it is too long, and also          Ÿ
                                   19857              Ÿ    handles translation and stop character checking.                 Ÿ
                                   19858              Ÿ                                                                     Ÿ
                                   19859              Ÿ    On entry:                                                        Ÿ
                                   19860              Ÿ      R15 - flag: 0=normal                                           Ÿ
                                   19861              Ÿ                  1=save last line in residual buffer                Ÿ
                                   19862              Ÿ      R1,R0 - line loc, len                                          Ÿ
                                   19863              Ÿ                                                                     Ÿ
                                   19864              Ÿ    On exit, R15 (and cc):                                           Ÿ
                                   19865              Ÿ      0 - ok                                                         Ÿ
                                   19866              Ÿ      4 - time to stop (count exhausted, stop text match, etc.)      Ÿ
                                   19867              Ÿ                                                                     Ÿ
                                                      ¾þþþþþþþþþþþþþþþþþþþþþþþþþþþþþþþþþþþþþþþþþþþþþþþþþþþþþþþþþþþþþþþþþþþþþ»
0000000                00000 00801 19868              PLINWA   RECORD BEGIN
 000000 00                         19876  1           PLINFLAG   FLAG
 PLINFLAG.PLINFWRA 80 ONES         19880  1                      FLAG  PLINFWRAP           - We have wrapped this line
 PLINFLAG.PLINFRES 40 ONES         19885  1                      FLAG  PLINFRESIDUAL       - Save line in residual buffer
                                   19890  1           PLININIT   EQU   PLINFLAG,*-PLINFLAG,C'X'
                                   19891  1
 000001                            19892  1           PLINAREA   DS    CL(PUTBMAXL)        Working line area
 000801                00801 00801 19893                       END
                                   19902              þþþþ
 002814 50E0 D000/9008_      00000 19903              PUTBLINE PROC  PLINWA
 USING  *,R7
 USING  PLINWA-(4+36),R8
 00282E 9200 8028      00000       19953                       CLEAR PLININIT
 002832 12FF/4780 700E_            19960                       IF    (R15,NZ),'SET PLINFRESIDUAL'  Set option flag
                                   19985
 USING  PUTCB,R6                   19986                       WITH  (PUTCB,R6)          Entry assumption
                                   19999
 00283C 1851                       20000                       LR    R5,R1               Line loc...
 00283E 1840                       20001                       LR    R4,R0               ...and length
                                   20002                       ¿þþþþþþþþþþþþþþþþþþþÜ
                                   20003                       Ÿ  Copy line text.  Ÿ
                                   20004                       ¾þþþþþþþþþþþþþþþþþþþ»
 002840 5940 72DA/47D0_      02B08 20005                       CEIL  R4,L'PLINAREA       Just for safety
 00284C 41E0 8029/18F4_      00001 20024                       MOVEL PLINAREA,@R5,(R4)   Copy the line
 002858 4150 8029            00001 20046                       LA    R5,PLINAREA         Our line ptr
                                   20047                       ¿þþþþþþþþþþþþþþþþþþþþþþþþþþþþþþþþþþþþþþþþþþþþþþþþÜ
                                   20048                       Ÿ  Expand tab character to blanks if necessary.  Ÿ
                                   20049                       ¾þþþþþþþþþþþþþþþþþþþþþþþþþþþþþþþþþþþþþþþþþþþþþþþþ»
 00285C 9110 6000/4710_00000       20050                       IF    ~PUTFTABS,BEGIN     Expand tabs...
 002864 1815/1804                  20065  1                      SETMSG @R5,(R4)            Line area
 002868 1300                       20079  1                      LCR   R0,R0               Flag: data is in ASCII
 00286A 41F0 0800            00800 20080  1                      LA    R15,L'PLINAREA      Maximum buffer length
 00286E 58E0 72DE/0DEE       02B0C 20081  1                      VCALL DETAB               Expand any tabs
 002874 1840                       20085  1                      LR    R4,R0               Updated line length
 002876                            20086                       END
1ACT      (ACT2025) (12:40) (15MAR04) Active File Utility Routines                                                          Page   73
0Current Usings:  (PUTCB,R6) (*,R7) (PLINWA-(4+36),R8) (CP,R11) (CV,R12)
0Loc    Object Code    Addr1 Addr2  Stmt Lv Lineno    Source Statement           (Hibal 5, Asmedit 3.3)  HLASM R4.0  2004/03/15 12.40
+___    ______ ____    _____ _____  ____ __ ______    ______ _________
0                                  20090                       ¿þþþþþþþþþþþþþþþþþþþþþþþþþþþþþþþþþþþþþþþþþþþþþþþþþþþþþþþþþþÜ
                                   20091                       Ÿ  If the line is too long split/wrap it and add multiple  Ÿ
                                   20092                       Ÿ    lines.                                                Ÿ
                                   20093                       ¾þþþþþþþþþþþþþþþþþþþþþþþþþþþþþþþþþþþþþþþþþþþþþþþþþþþþþþþþþþ»
 002876 4940 6002/47D0_      00002 20094                       WHILE (R4,GT,PUTMAXLN),BEGIN  Too big for us...
 00287E 9680 8028      00000       20113  1                      SET   PLINFWRAP           We have wrapped this line
 002882 4830 6002            00002 20119  1                      LH    R3,PUTMAXLN         Split length
                                   20120  1                      ¿þþþþþþþþþþþþþþþþþþþþþþþþþþþþþþþþþþþþþþþþþþþþþþþþþþÜ
                                   20121  1                      Ÿ  Back scan for a blank if WRAP (and not SPLIT).  Ÿ
                                   20122  1                      ¾þþþþþþþþþþþþþþþþþþþþþþþþþþþþþþþþþþþþþþþþþþþþþþþþþþ»
 002886 9140 6000/47E0_00000       20123  1                      IF    PUTFWRAP,BEGIN      Wrap at a blank...
 00288E 4123 5000            00000 20138  2                        LA    R2,@R5(R3)          Last+1 position
 002892 1233/47D0 7082             20139  2                        WHILE (R3,POS),BEGIN      Backscan for blank...
 002898 9520 2000/4780_00000       20155  3                          IF    ((@R2,EQ,X'20'),OR,(@R2,EQ,X'A0')),EXIT  ASCII blank
 0028A8 0620                       20189  3                          DECR  R2                  Back up
 0028AA 0630                       20191  3                          DECR  R3                  One less char now
 0028AC 47F0 7064            02892 20193  2                        END
                                   20198  2
 0028B0 1233/4770 708C_            20199  2                        IF    (R3,Z),'LH R3,PUTMAXLN'  If no blanks, use split len
 0028BA                            20219  1                      END
                                   20223  1                      ¿þþþþþþþþþþþþþþþþþþþþþþþþþþþþþþþþþþþþþþþþþþþþþþþþþþþþþþþþþþþþþþÜ
                                   20224  1                      Ÿ  Add the first half of the wrapped line to the Active file.  Ÿ
                                   20225  1                      ¾þþþþþþþþþþþþþþþþþþþþþþþþþþþþþþþþþþþþþþþþþþþþþþþþþþþþþþþþþþþþþþ»
 0028BA 12F3/47D0 70A4             20226  1                      IF    ('LTR R15,R3',POS),BEGIN  Translate data...
 0028C0 9180 6000/4710_00000       20239  2                        IF    PUTFTRAN,EXIT       Don't translate the data
 0028C8 5820 C8C0            008C0 20257  2                        L     R2,CVEB7TBL         ASCII-7 to EBCDIC translate table
 0028CC 06F0/44F0 7358_            20258  2                        DEX   R15,'TR @R5(0),@R2'  Translate ASCII to EBCDIC
 0028D2                            20277  1                      END
                                   20281  1
 0028D2 58F0 6008            00008 20282  1                      L     R15,PUTLNO          Line-number
 0028D6 1815/1803                  20283  1                      SETMSG @R5,(R3)            Text
 0028DA 58E0 72E2/0DEE       02B10 20297  1                      ACALL PUTLINE             Add it to the Active file
 0028E0 9140 6001/4710_00001       20301  1                      IF    ~PUTFACTCT,'INCR R15,CPACHCT; SET PUTFACTCT'  Change
                                   20333  1
 0028F8 58F0 6008            00008 20334  1                      L     R15,PUTLNO          Current lineno
 0028FC 5EF0 B738            00738 20335  1                      AL    R15,CPDELTA         Add delta for next lineno
 002900 50F0 6008            00008 20336  1                      ST    R15,PUTLNO          Save new lineno
                                   20337  1
 002904 D603 6004 6004_00004 00004 20338  1                      IF    (PUTCOUNT,NZ),BEGIN  We are counting lines...
 00290E 58F0 6004/06F0_      00004 20354  2                        DECR  R15,PUTCOUNT        One less line to go
 002918 12FF/4720 70F8_            20359  2                        IF    (R15,NP),'LA R15,4; B PLINEXIT'  All done, scram
 002926                            20380  1                      END
                                   20384  1
 002926 1A53                       20385  1                      AR    R5,R3               Kick buffer ptr
 002928 1B43                       20386  1                      SR    R4,R3               Adjust remaining length
                                   20387  1
 00292A 9140 6000/47E0_00000       20388  1                      IF    PUTFWRAP,BEGIN      Handle text after a wrap...
 002932 1244/47D0 7124             20403  2                        WHILE (R4,POS),BEGIN      Trim leading blanks...
 002938 9520 5000/4780_00000       20419  3                          IF    ((@R5,NE,X'20'),AND,(@R5,NE,X'A0')),EXIT  Non-blank
 002948 4150 5001            00001 20453  3                          LA    R5,@R5+1            Next char
 00294C 0640                       20454  3                          DECR  R4                  One less now
 00294E 47F0 7104            02932 20456  2                        END
 002952                            20461  1                      END
 002952 47F0 7048            02876 20465                       END
1ACT      (ACT2025) (12:40) (15MAR04) Active File Utility Routines                                                          Page   74
0Current Usings:  (PUTCB,R6) (*,R7) (PLINWA-(4+36),R8) (CP,R11) (CV,R12)
0Loc    Object Code    Addr1 Addr2  Stmt Lv Lineno    Source Statement           (Hibal 5, Asmedit 3.3)  HLASM R4.0  2004/03/15 12.40
+___    ______ ____    _____ _____  ____ __ ______    ______ _________
0                                  20470                       ¿þþþþþþþþþþþþþþþþþþþþþþþþþþþþþþþþþþþþþþþþþþþþþþÜ
                                   20471                       Ÿ  Save the last line in the residual buffer.  Ÿ
                                   20472                       ¾þþþþþþþþþþþþþþþþþþþþþþþþþþþþþþþþþþþþþþþþþþþþþþ»
 002956 9140 8028/47E0_00000       20473                       IF    PLINFRESIDUAL,BEGIN  Save line in residual buffer...
 00295E 4040 60FA            000FA 20488  1                      STH   R4,PUTRESLN         Save length
 002962 0640/1244/4740_            20489  1                      MOVE  R4,PUTRESBF,@R5     Save text
 00296E 47F0 71EE            02A1C 20527  1                      B     PLINOK              All done
 002972                            20528                       END
                                   20532                       ¿þþþþþþþþþþþþþþþþþþþþþþþþþþþþþþþþþþþþþþþþÜ
                                   20533                       Ÿ  Translate line from ASCII to EBCDIC.  Ÿ
                                   20534                       ¾þþþþþþþþþþþþþþþþþþþþþþþþþþþþþþþþþþþþþþþþ»
 002972 12F4/47D0 715C             20535                       IF    ('LTR R15,R4',POS),BEGIN  Translate data...
 002978 9180 6000/4710_00000       20548  1                      IF    PUTFTRAN,EXIT       Don't translate it
 002980 5820 C8C0            008C0 20566  1                      L     R2,CVEB7TBL         ASCII-7 to EBCDIC translate table
 002984 06F0/44F0 7364_            20567  1                      DEX   R15,'TR @R5(0),@R2'  Translate ASCII to EBCDIC
 00298A                            20586                       END
                                   20590                       ¿þþþþþþþþþþþþþþþþþþþþþþþþþþþþþþþþþþþþþþþþþþþÜ
                                   20591                       Ÿ  Check for line which matches STOP text.  Ÿ
                                   20592                       ¾þþþþþþþþþþþþþþþþþþþþþþþþþþþþþþþþþþþþþþþþþþþ»
 00298A 9108 6000/47E0_00000       20593                       IF    PUTFSTOP,BEGIN      We have STOP text...
 002992 9180 8028/4710_00000       20608  1                      IF    PLINFWRAP,EXIT      It's wrapped, don't check
 00299A 48F0 600C            0000C 20626  1                      LH    R15,PUTSTLEN        Stop check text
 00299E 194F/4770 719A             20627  1                      IF    (R4,NE,R15),EXIT    Our line isn't long enough
 0029A4 12FF/4770 7182_            20645  1                      IF    ((R15,Z),AND,(R4,Z)),PLINMAT  Matching null line
 0029B0 06F0/12FF/4740_            20675  1                      CMPR  R15,PUTSTOP,PLINAREA  Does it match?
 0029BC 4770 719A            029C8 20713  1                      IF    EQ,BEGIN            Yes, time to stop...
 0029C0 41F0 0004            00004 20724  2           PLINMAT      LA    R15,4               Stop now
 0029C4 47F0 71F0            02A1E 20725  2                        B     PLINEXIT            Scram
 0029C8                            20726  1                      END
 0029C8                            20730                       END
                                   20734                       ¿þþþþþþþþþþþþþþþþþþþþþþþþþþþþþþþþþþþþÜ
                                   20735                       Ÿ  Add the line to the Active file.  Ÿ
                                   20736                       ¾þþþþþþþþþþþþþþþþþþþþþþþþþþþþþþþþþþþþ»
 0029C8 58F0 6008            00008 20737                       L     R15,PUTLNO          Line-number
 0029CC 1815/1804                  20738                       SETMSG @R5,(R4)            Text
 0029D0 58E0 72C6/0DEE       02AF4 20752                       VCALL PUTLINE             Add it to the Active file
 0029D6 9140 6001/4710_00001       20756                       IF    ~PUTFACTCT,'INCR R15,CPACHCT; SET PUTFACTCT'  Change
                                   20788
 0029EE 58F0 6008            00008 20789                       L     R15,PUTLNO          Current lineno
 0029F2 5EF0 B738            00738 20790                       AL    R15,CPDELTA         Add delta for next lineno
 0029F6 50F0 6008            00008 20791                       ST    R15,PUTLNO          Save new lineno
                                   20792
 0029FA D603 6004 6004_00004 00004 20793                       IF    (PUTCOUNT,NZ),BEGIN  We are counting lines...
 002A04 58F0 6004/06F0_      00004 20809  1                      DECR  R15,PUTCOUNT        One less line to go
 002A0E 12FF/4720 71EE_            20814  1                      IF    (R15,NP),'LA R15,4; B PLINEXIT'  All done, scram
 002A1C                            20835                       END
                                   20839
 002A1C 1BFF                       20840              PLINOK   CLEAR R15                 A-ok
 002A1E 18D8/9808 D004_            20845              PLINEXIT PEND  ,
 DROP   PUTCB,R6
 DROP   PLINWA-(4+36),R8
 DROP   *,R7
1ACT      (ACT2025) (12:40) (15MAR04) Active File Utility Routines                                                          Page   75
0Current Usings:  (CP,R11) (CV,R12)
0Loc    Object Code    Addr1 Addr2  Stmt Lv Lineno    Source Statement           (Hibal 5, Asmedit 3.3)  HLASM R4.0  2004/03/15 12.40
+___    ______ ____    _____ _____  ____ __ ______    ______ _________
0                                  20877              ¿þþþþþþþþþþþþþþþþþþþþþþþþþþþþþþþþþþþþþþþþþþþþþþþþþþþþþþþþþþþþþþþþþþþþþÜ
                                   20878              Ÿ                                                                     Ÿ
                                   20879              Ÿ  PREVLNO -- Routine to get lineno of line before CPLCNO (if any).   Ÿ
                                   20880              Ÿ                                                                     Ÿ
                                   20881              Ÿ    On entry:                                                        Ÿ
                                   20882              Ÿ      CPLCNO - find line-number before this one                      Ÿ
                                   20883              Ÿ                                                                     Ÿ
                                   20884              Ÿ    On exit, R15 (and cc):                                           Ÿ
                                   20885              Ÿ     -8 - CPLCNO is line zero (CPLCNO unchanged)                     Ÿ
                                   20886              Ÿ     -4 - CPLCNO is before first line-number (CPLCNO unchanged)      Ÿ
                                   20887              Ÿ      0 - ok; CPLCNO contains previous line-number                   Ÿ
                                   20888              Ÿ                                                                     Ÿ
                                   20889              Ÿ                                                                     Ÿ
                                                      ¾þþþþþþþþþþþþþþþþþþþþþþþþþþþþþþþþþþþþþþþþþþþþþþþþþþþþþþþþþþþþþþþþþþþþþ»
0002A2C 50E0 D000/9008_      00000 20890              PREVLNO  XPROC ,
 USING  *,R7
 002A46 D603 B73C B73C_0073C 0073C 20930                       IF    (CPLCNO,NZ),BEGIN   Locate previous lineno...
 002A50 4120 B73C            0073C 20946  1                      LA    R2,CPLCNO           Line-number is here
 002A54 41F0 B484            00484 20947  1                      LA    R15,CPTEXT          Active file record group
 002A58 58E0 70CE/0DEE       02B14 20948  1                      VCALL XLOCPREV            Get previous line-number
 002A5E 4780 7020/48F0_      02A66 20952  1                      IF    NZ,'LH R15,=H"-4"'  No previous line-number
 002A66                            20969                       END
                                   20973
 002A66 7024/47F0 7028_02A66 02A4E 20974                       ELSE  'LH R15,=H"-8"'     It's line zero
                                   20991
 002A6E 18D8/9808 D004_            20992                       PEND  ,
 DROP   *,R7
1ACT      (ACT2025) (12:40) (15MAR04) Active File Utility Routines                                                          Page   76
0Current Usings:  (CP,R11) (CV,R12)
0Loc    Object Code    Addr1 Addr2  Stmt Lv Lineno    Source Statement           (Hibal 5, Asmedit 3.3)  HLASM R4.0  2004/03/15 12.40
+___    ______ ____    _____ _____  ____ __ ______    ______ _________
0                                  21013                       QLTORG
1ACT      (ACT2025) (12:40) (15MAR04) Active File Utility Routines                                                          Page   77
0Current Usings:  (CP,R11) (CV,R12)
0Loc    Object Code    Addr1 Addr2  Stmt Lv Lineno    Source Statement           (Hibal 5, Asmedit 3.3)  HLASM R4.0  2004/03/15 12.40
+___    ______ ____    _____ _____  ____ __ ______    ______ _________
0000000                00000 0000C 21063              DRNGWA   RECORD BEGIN
 000000                            21071  1           DRNGFRST   DS    F           [Order] First line-number to delete
 000004                            21072  1           DRNGLAST   DS    F           [Order] Last line-number to delete
 000008                            21073  1           DRNGTEMP   DS    F                   Working line-number
 00000C                0000C 0000C 21074                       END
-                                  21084              ¿þþþþþþþþþþþþþþþþþþþþþþþþþþþþþþþþþþþþþþþþþþþþþþþþþþþþþþþþþþþþþþþþþþþþþÜ
                                   21085              Ÿ                                                                     Ÿ
                                   21086              Ÿ  DELRANGE -- Routine to delete a range of lines.                    Ÿ
                                   21087              Ÿ                                                                     Ÿ
                                   21088              Ÿ    On entry:                                                        Ÿ
                                   21089              Ÿ      R0 - first line-number to delete                               Ÿ
                                   21090              Ÿ      R1 - last line-number to delete                                Ÿ
                                   21091              Ÿ                                                                     Ÿ
                                   21092              Ÿ    On exit, R15 (and cc):                                           Ÿ
                                   21093              Ÿ      0 - ok                                                         Ÿ
                                   21094              Ÿ      NZ- range doesn't exist                                        Ÿ
                                   21095              Ÿ                                                                     Ÿ
                                                      ¾þþþþþþþþþþþþþþþþþþþþþþþþþþþþþþþþþþþþþþþþþþþþþþþþþþþþþþþþþþþþþþþþþþþþþ»
0002B9E 50E0 D000/9008_      00000 21096              DELRANGE XPROC DRNGWA
 USING  *,R7
 USING  DRNGWA-(4+36),R8
 002BB8 9001 8028            00000 21147                       STM   R0,R1,DRNGFRST      Save first, last linenos
                                   21148                       ¿þþþþþþþþþþþþþþþþþþþþþþþþþþþþþþþþþþþþþþþþþþþþþþþþþþþþþþþþÜ
                                   21149                       Ÿ  Single line range, just get info on the single line.  Ÿ
                                   21150                       ¾þþþþþþþþþþþþþþþþþþþþþþþþþþþþþþþþþþþþþþþþþþþþþþþþþþþþþþþþ»
 002BBC 1901/4770 7038             21151                       IF    (R0,EQ,R1),BEGIN    Get line/byte count for line...
 002BC2 D203 8030 8028 00008 00000 21166  1                      MVC   DRNGTEMP,DRNGFRST
 002BC8 4120 8030            00008 21167  1                      LA    R2,DRNGTEMP
 002BCC 41F0 B484            00484 21168  1                      LA    R15,CPTEXT
 002BD0 58E0 75D0/0DEE       03188 21169  1                      VCALL XLOCLINE            Locate old line
 002BD6 4770 71A0            02D58 21173  1                      IF    NZ,EXIT,DELRANGE    Line doesn't exist, scram
 002BDA D503 8030 8028_00008 00000 21187  1                      IF    (DRNGTEMP,NE,DRNGFRST),'LA R15,4; EXIT DELRANGE'
 002BEC 41F0 0001            00001 21214  1                      LA    R15,1               One line
 002BF0                            21215                       END
                                   21219                       ¿þþþþþþþþþþþþþþþþþþþþþþþþþþþþþþþþþþþþþþþþþþþþþþÜ
                                   21220                       Ÿ  Multiple line range, get line/byte counts.  Ÿ
                                   21221                       ¾þþþþþþþþþþþþþþþþþþþþþþþþþþþþþþþþþþþþþþþþþþþþþþ»
 002BF0 703C/47F0 704E 02BF0 02BC0 21222                       ELSE  BEGIN
 002BF4 58E0 75D4/0DEE       0318C 21233  1                      ACALL CNTRANGE            Get line and byte counts
 002BFA 4770 704E            02C06 21237  1                      IF    Z,BEGIN             Range doesn't exist...
 002BFE 41F0 0004            00004 21248  2                        LA    R15,4               Set return code
 002C02 47F0 71A0            02D58 21249  2                        EXIT  DELRANGE
 002C06                            21252  1                      END
 002C06                            21256                       END
1ACT      (ACT2025) (12:40) (15MAR04) Active File Utility Routines                                                          Page   78
0Current Usings:  (*,R7) (DRNGWA-(4+36),R8) (CP,R11) (CV,R12)
0Loc    Object Code    Addr1 Addr2  Stmt Lv Lineno    Source Statement           (Hibal 5, Asmedit 3.3)  HLASM R4.0  2004/03/15 12.40
+___    ______ ____    _____ _____  ____ __ ______    ______ _________
0                                  21260                       ¿þþþþþþþþþþþþþþþþþþþþþþþþþþþþþþþþþþþÜ
                                   21261                       Ÿ  Update line and byte counts.     Ÿ
                                   21262                       Ÿ    R15 = number of lines          Ÿ
                                   21263                       Ÿ    R0  = byte count of all lines  Ÿ
                                   21264                       ¾þþþþþþþþþþþþþþþþþþþþþþþþþþþþþþþþþþþ»
 002C06 5820 B578            00578 21265                       L     R2,CPATLINS
 002C0A 1B2F                       21266                       SR    R2,R15              Line count for all Actives
 002C0C 5020 B578            00578 21267                       ST    R2,CPATLINS
                                   21268
 002C10 5820 B5AC            005AC 21269                       L     R2,CPALNCT
 002C14 1B2F                       21270                       SR    R2,R15              New line count for this Active
 002C16 5020 B5AC            005AC 21271                       ST    R2,CPALNCT
                                   21272
 002C1A 58F0 B564            00564 21273                       L     R15,CPATBYTS        Total byte count for all Actives
 002C1E 1BF0                       21274                       SR    R15,R0              Deduct for line being deleted
 002C20 50F0 B564            00564 21275                       ST    R15,CPATBYTS        Save new count
                                   21276
 002C24 58F0 B5B0            005B0 21277                       L     R15,CPABYCT         Byte count
 002C28 1BF0                       21278                       SR    R15,R0              Deduct for line being deleted
 002C2A 50F0 B5B0            005B0 21279                       ST    R15,CPABYCT         Save new count
                                   21280                       ¿þþþþþþþþþþþþþþþþþþþþþþþÜ
                                   21281                       Ÿ  Delete single line.  Ÿ
                                   21282                       ¾þþþþþþþþþþþþþþþþþþþþþþþ»
 002C2E D503 8028 802C_00000 00004 21283                       IF    (DRNGFRST,EQ,DRNGLAST),BEGIN  Single line range...
 002C38 4120 8028            00000 21301  1                      LA    R2,DRNGFRST         @lineno
 002C3C 41F0 B484            00484 21302  1                      LA    R15,CPTEXT          Active file record group
 002C40 58E0 75D8/0DEE       03190 21303  1                      VCALL XDELETE             Delete the line
 002C46 4780 70AA/900F_      02C62 21307  1                      FAIL  NZ,DELRNG2,'DELRANGE logic error.'
 002C62                            21330                       END
                                   21334                       ¿þþþþþþþþþþþþþþþþþþþþþþþþþþÜ
                                   21335                       Ÿ  Delete range of lines.  Ÿ
                                   21336                       ¾þþþþþþþþþþþþþþþþþþþþþþþþþþ»
 002C62 70AE/47F0 70DE 02C62 02C36 21337                       ELSE  BEGIN               Delete range of lines...
 002C66 4100 8028            00000 21348  1                      LA    R0,DRNGFRST         @first lineno
 002C6A 4110 802C            00004 21349  1                      LA    R1,DRNGLAST         @last lineno
 002C6E 1B22                       21350  1                      CLEAR R2                  (Don't span record groups)
 002C70 41F0 B484            00484 21354  1                      LA    R15,CPTEXT          Active file record group
 002C74 58E0 75DC/0DEE       03194 21355  1                      VCALL XDELRECS            Delete the range
 002C7A 4780 70DE/900F_      02C96 21359  1                      FAIL  NZ,DELRNG1,'DELRANGE logic error.'
 002C96                            21382                       END
                                   21386                       ¿þþþþþþþþþþþþþþþþþþþþþþþþþþþþþþþþþþþÜ
                                   21387                       Ÿ  Update Active file information.  Ÿ
                                   21388                       ¾þþþþþþþþþþþþþþþþþþþþþþþþþþþþþþþþþþþ»
 002C96 D603 B5AC B5AC_005AC 005AC 21389                       IF    (CPALNCT,NZ),BEGIN  Check first/last linenos...
 002CA0 D503 8028 B5A0_00000 005A0 21405  1                      IF    (DRNGFRST,LE,CPAFLNO),BEGIN  Deleted first line...
 002CAA D703 B5A0 B5A0 005A0 005A0 21423  2                        CLEAR CPAFLNO
 002CB0 4120 B5A0            005A0 21430  2                        LA    R2,CPAFLNO
 002CB4 41F0 B484            00484 21431  2                        LA    R15,CPTEXT          Active file record group
 002CB8 58E0 75D0/0DEE       03188 21432  2                        VCALL XLOCLINE            Get first line-number
 002CBE 4780 7122/900F_      02CDA 21436  2                        FAIL  NZ,DELRFIR,'DELRANGE logic error.'
 002CDA                            21459  1                      END
                                   21463  1
 002CDA D503 802C B5A4_00004 005A4 21464  1                      IF    (DRNGLAST,GE,CPALLNO),BEGIN  Deleted last line...
 002CE4 D203 B5A4 C15C 005A4 0015C 21482  2                        MVC   CPALLNO,CVMAXLNO    Highest possible lineno
1ACT      (ACT2025) (12:40) (15MAR04) Active File Utility Routines                                                          Page   79
0Current Usings:  (*,R7) (DRNGWA-(4+36),R8) (CP,R11) (CV,R12)
0Loc    Object Code    Addr1 Addr2  Stmt Lv Lineno    Source Statement           (Hibal 5, Asmedit 3.3)  HLASM R4.0  2004/03/15 12.40
+___    ______ ____    _____ _____  ____ __ ______    ______ _________
0002CEA 4120 B5A4            005A4 21483  2                        LA    R2,CPALLNO
 002CEE 41F0 B484            00484 21484  2                        LA    R15,CPTEXT          Active file record group
 002CF2 58E0 75E0/0DEE       03198 21485  2                        VCALL XLOCLAST            Get last line-number
 002CF8 4780 715C/900F_      02D14 21489  2                        FAIL  NZ,DELRLAST,'DELRANGE logic error.'
 002D14                            21512  1                      END
 002D14                            21516                       END
                                   21520
 002D14 7160/47F0 7194 02D14 02C9E 21521                       ELSE  BEGIN               Active file is empty...
 002D18 D703 B5A0 B5A0_005A0 005A0 21532  1                      CLEAR CPAFLNO,CPALLNO     Reset first, last linenos
 002D24 D703 B5B4 B5B4 005B4 005B4 21544  1                      CLEAR CPACHCT             Reset change count
 002D2A D503 75E4 B590_0319C 00590 21551  1                      IF    (CPATYPE,EQ,'TEMP'),'DECR R15,CPATTEMP'
 002D3E 718A/47F0 7194_02D3E 02D32 21578  1                      ELSE  'DECR R15,CPATTEXT' Keep Active file count accurate
 002D4C                            21599                       END
                                   21603                       ¿þþþþþþþþþþþþþþþþþþþþþþþþþþþþþþþþþþþþþþþþþÜ
                                   21604                       Ÿ  Inform page manager of deleted lines.  Ÿ
                                   21605                       ¾þþþþþþþþþþþþþþþþþþþþþþþþþþþþþþþþþþþþþþþþþ»
 002D4C 9801 8028            00000 21606                       LM    R0,R1,DRNGFRST      First, last line-numbers
 002D50 58E0 75E8/0DEE       031A0 21607                       VCALL PAGEDEL             Delete linenos from page image
                                   21611
 002D56 1BFF                       21612                       CLEAR R15                 A-ok
                                   21616
 002D58 18D8/9808 D004_            21617                       PEND  ,
 DROP   DRNGWA-(4+36),R8
 DROP   *,R7
1ACT      (ACT2025) (12:40) (15MAR04) Active File Utility Routines                                                          Page   80
0Current Usings:  (CP,R11) (CV,R12)
0Loc    Object Code    Addr1 Addr2  Stmt Lv Lineno    Source Statement           (Hibal 5, Asmedit 3.3)  HLASM R4.0  2004/03/15 12.40
+___    ______ ____    _____ _____  ____ __ ______    ______ _________
0000000                00000 00212 21643              CHOPWA   RECORD BEGIN
                                   21651  1
 000000 00                         21652  1           CHOPFLAG   FLAG
                                   21656  1
 000004                            21657  1           CHOPLNO    DS    F                   Existing line-number
 000008                            21658  1           CHOPNLNO   DS    F                   New line-number
                                   21659  1
 00000C                            21660  1           CHOPLEN    DS    H                   Existing line length
 00000E                            21661  1           CHOPNLEN   DS    H                   New line length
 000010                            21662  1           CHOPCOL    DS    H                   Split column
                                   21663  1           CHOPINIT   EQU   CHOPFLAG,*-CHOPFLAG,C'X'
                                   21664  1           *
                                   21665  1           *
                                   21666  1           CHOPLIN    DS    CL(&LINESZ)         Existing line
 000012                                   1          +CHOPLIN    DS    CL(235)             Existing line
                                   21667  1                      DS    XL(&PRESSZ-&LINESZ)
 0000FD                                   1          +           DS    XL(256-235)
                                   21668  1
                                   21669  1           CHOPNLIN   DS    CL(&LINESZ)         New line
 000112                                   1          +CHOPNLIN   DS    CL(235)             New line
                                   21670  1                      DS    XL(&PRESSZ-&LINESZ)
 0001FD                                   1          +           DS    XL(256-235)
 000212                00212 00212 21671                       END
-                                  21681              ¿þþþþþþþþþþþþþþþþþþþþþþþþþþþþþþþþþþþþþþþþþþþþþþþþþþþþþþþþþþþþþþþþþþþþþÜ
                                   21682              Ÿ                                                                     Ÿ
                                   21683              Ÿ  CHOPLINE -- Routine to split a line.                               Ÿ
                                   21684              Ÿ                                                                     Ÿ
                                   21685              Ÿ    On entry:                                                        Ÿ
                                   21686              Ÿ      R0 - column to chop line at                                    Ÿ
                                   21687              Ÿ           (new line will begin at this column)                      Ÿ
                                   21688              Ÿ      R15- line-number of line to split                              Ÿ
                                   21689              Ÿ                                                                     Ÿ
                                   21690              Ÿ    On exit, R15 (and cc):                                           Ÿ
                                   21691              Ÿ     -4 - line doesn't exist; past end of file                       Ÿ
                                   21692              Ÿ      0 - ok; R0 - old line-number; R1 - newly created line-number   Ÿ
                                   21693              Ÿ      4 - line doesn't exist                                         Ÿ
                                   21694              Ÿ                                                                     Ÿ
                                                      ¾þþþþþþþþþþþþþþþþþþþþþþþþþþþþþþþþþþþþþþþþþþþþþþþþþþþþþþþþþþþþþþþþþþþþþ»
0002D66 50E0 D000/9008_      00000 21695              CHOPLINE XPROC CHOPWA
 USING  *,R7
 USING  CHOPWA-(4+36),R8
 002D80 D711 8028 8028 00000 00000 21746                       CLEAR CHOPINIT
                                   21753
 002D86 1860                       21754                       LR    R6,R0               Column to split at
 002D88 5960 7424/47B0_      031A4 21755                       FLOOR R6,1
 002D94 5960 7428/47D0_      031A8 21774                       CEIL  R6,&LINESZ          (Better safe than sorry)
 002DA0 4060 8038            00010 21793                       STH   R6,CHOPCOL          Save split column
 002DA4 0660                       21794                       DECR  R6                  We need column-1
                                   21796
 002DA6 50F0 802C            00004 21797                       ST    R15,CHOPLNO
 002DAA 4110 803A            00012 21798                       LA    R1,CHOPLIN
1ACT      (ACT2025) (12:40) (15MAR04) Active File Utility Routines                                                          Page   81
0Current Usings:  (*,R7) (CHOPWA-(4+36),R8) (CP,R11) (CV,R12)
0Loc    Object Code    Addr1 Addr2  Stmt Lv Lineno    Source Statement           (Hibal 5, Asmedit 3.3)  HLASM R4.0  2004/03/15 12.40
+___    ______ ____    _____ _____  ____ __ ______    ______ _________
0002DAE 58E0 742C/0DEE       031AC 21799                       ACALL GETLINE             Get the line
 002DB4 4770 7152            02ED2 21803                       IF    Z,BEGIN             Got it...
 002DB8 4000 8034            0000C 21814  1                      STH   R0,CHOPLEN
                                   21815  1
 002DBC 4100 0001            00001 21816  1                      LA    R0,1                Just adding one line
 002DC0 58F0 802C            00004 21817  1                      L     R15,CHOPLNO         Add it after this lineno
 002DC4 58E0 7430/0DEE       031B0 21818  1                      ACALL CHKLINES            Get a new lineno
 002DCA 50F0 802C            00004 21822  1                      ST    R15,CHOPLNO         Old line-number (in case renum)
 002DCE 1AF1                       21823  1                      AR    R15,R1
 002DD0 50F0 8030            00008 21824  1                      ST    R15,CHOPNLNO        New line-number to use
                                   21825  1
 002DD4 4110 803A            00012 21826  1                      LA    R1,CHOPLIN          Text after split
 002DD8 1A16                       21827  1                      AR    R1,R6
 002DDA 48F0 8034            0000C 21828  1                      LH    R15,CHOPLEN
 002DDE 1BF6                       21829  1                      SR    R15,R6
 002DE0 47B0 7066/1BFF       02DE6 21830  1                      IF    NEG,'CLEAR R15'
 002DE6 40F0 8036            0000E 21850  1                      STH   R15,CHOPNLEN        New line length
 002DEA 06F0/12FF/4740_            21851  1                      MOVE  R15,CHOPNLIN,@R1    New line text
                                   21889  1                      ¿þþþþþþþþþþþþþþþþþþþþþþþþþþþþþþþþþþþþþþþþþþþþþþþþþþþþþþþþþþþþÜ
                                   21890  1                      Ÿ  Add the second line first, in case something goes wrong.  Ÿ
                                   21891  1                      ¾þþþþþþþþþþþþþþþþþþþþþþþþþþþþþþþþþþþþþþþþþþþþþþþþþþþþþþþþþþþþ»
 002DF6 58F0 8030            00008 21892  1                      L     R15,CHOPNLNO
 002DFA 4110 813A/4800_      00112 21893  1                      SETMSG CHOPNLIN,LH:CHOPNLEN
 002E02 58E0 7434/0DEE       031B4 21906  1                      ACALL PUTLINE             Add the new line
                                   21910  1                      ¿þþþþþþþþþþþþþþþþþþþþþþþþþþþþþþþÜ
                                   21911  1                      Ÿ  Now replace the first line.  Ÿ
                                   21912  1                      ¾þþþþþþþþþþþþþþþþþþþþþþþþþþþþþþþ»
 002E08 4960 8034/47B0_      0000C 21913  1                      IF    (R6,LT,CHOPLEN),BEGIN  Need to replace it...
 002E10 58F0 802C            00004 21930  2                        L     R15,CHOPLNO
 002E14 4110 803A/1806       00012 21931  2                        SETMSG CHOPLIN,(R6)
 002E1A 58E0 7434/0DEE       031B4 21945  2                        ACALL PUTLINE             Replace the first line
 002E20                            21949  1                      END
                                   21953  1                      ¿þþþþþþþþþþþþþþþþþþþþþþþþþþþþþþþþþþþþþþþþþþþþþþþþþþþþþþÜ
                                   21954  1                      Ÿ  Adjust the cursor and block pointers if necessary.  Ÿ
                                   21955  1                      ¾þþþþþþþþþþþþþþþþþþþþþþþþþþþþþþþþþþþþþþþþþþþþþþþþþþþþþþ»
 002E20 D503 BADC 802C_00ADC 00004 21956  1                      IF    (CPVLNO,EQ,CHOPLNO),BEGIN  Cursor check...
 002E2A 48F0 BADA            00ADA 21974  2                        LH    R15,CPVCOL
 002E2E 1BF6                       21975  2                        SR    R15,R6
 002E30 47D0 70CA            02E4A 21976  2                        IF    NP,EXIT             Nothing has changed, scram
 002E34 59F0 7428/47D0_      031A8 21990  2                        CEIL  R15,&LINESZ
 002E40 40F0 BADA            00ADA 22009  2                        STH   R15,CPVCOL          Set new cursor column
 002E44 D203 BADC 8030 00ADC 00008 22010  2                        MVC   CPVLNO,CHOPNLNO     ... and cursor line
 002E4A                            22011  1                      END
                                   22015  1
 002E4A D503 B748 B57C_00748 0057C 22016  1                      IF    (CPBLKACT,EQ,CPACTNO),BEGIN  Block interactions...
 002E54 D503 B74C 802C_0074C 00004 22034  2                        IF    (CPFBKLNO,EQ,CHOPLNO),BEGIN  FBLOCK check...
 002E5E 48F0 B754            00754 22052  3                          LH    R15,CPFBKCOL
 002E62 1BF6                       22053  3                          SR    R15,R6
 002E64 47D0 7102            02E82 22054  3                          IF    NP,EXIT             Nothing has changed, scram
 002E68 59F0 7428/47D0_      031A8 22068  3                          CEIL  R15,&LINESZ
 002E74 40F0 B754            00754 22087  3                          STH   R15,CPFBKCOL        Set new FBLOCK column
 002E78 D203 B74C 8030 0074C 00008 22088  3                          MVC   CPFBKLNO,CHOPNLNO   ... and FBLOCK line
 002E7E 9608 BAC9      00AC9       22089  3                          SET   CPVFMARK            Block has changed
 002E82                            22095  2                        END
1ACT      (ACT2025) (12:40) (15MAR04) Active File Utility Routines                                                          Page   82
0Current Usings:  (*,R7) (CHOPWA-(4+36),R8) (CP,R11) (CV,R12)
0Loc    Object Code    Addr1 Addr2  Stmt Lv Lineno    Source Statement           (Hibal 5, Asmedit 3.3)  HLASM R4.0  2004/03/15 12.40
+___    ______ ____    _____ _____  ____ __ ______    ______ _________
0                                  22099  2
 002E82 D503 B750 802C_00750 00004 22100  2                        IF    (CPLBKLNO,EQ,CHOPLNO),BEGIN  LBLOCK check...
 002E8C D601 B756 B756_00756 00756 22118  3                          IF    ((CPLBKCOL,NZ),AND,(CPLBKCOL,LT,R6)),EXIT
                                   22153  3
 002E9E 48F0 B756/12FF       00756 22154  3                          LTH   R15,CPLBKCOL
 002EA4 4780 7146            02EC6 22158  3                          IF    NZ,BEGIN            Adjust ending column...
 002EA8 1BF6                       22169  4                            SR    R15,R6
 002EAA 59F0 7424/47B0_      031A4 22170  4                            FLOOR R15,1
 002EB6 59F0 7428/47D0_      031A8 22189  4                            CEIL  R15,&LINESZ
 002EC2 40F0 B756            00756 22208  4                            STH   R15,CPLBKCOL        Set new LBLOCK column
 002EC6                            22209  3                          END
 002EC6 D203 B750 8030 00750 00008 22213  3                          MVC   CPLBKLNO,CHOPNLNO   Set new LBLOCK line
 002ECC 9608 BAC9      00AC9       22214  3                          SET   CPVFMARK            Block has changed
 002ED0                            22220  2                        END
 002ED0                            22224  1                      END
                                   22228  1
 002ED0 1BFF                       22229  1                      CLEAR R15                 Set RC
 002ED2                            22233                       END
                                   22237
 002ED2 5800 802C            00004 22238                       L     R0,CHOPLNO          Existing line's line-number
 002ED6 5810 8030            00008 22239                       L     R1,CHOPNLNO         New line's line-number
 002EDA 9001 8004            00004 22240                       PRETURN (R0,R1)
 002EDE 18D8/9808 D004_            22242                       PEND  ,
 DROP   CHOPWA-(4+36),R8
 DROP   *,R7
1ACT      (ACT2025) (12:40) (15MAR04) Active File Utility Routines                                                          Page   83
0Current Usings:  (CP,R11) (CV,R12)
0Loc    Object Code    Addr1 Addr2  Stmt Lv Lineno    Source Statement           (Hibal 5, Asmedit 3.3)  HLASM R4.0  2004/03/15 12.40
+___    ______ ____    _____ _____  ____ __ ______    ______ _________
0000000                00000 00212 22268              JOINWA   RECORD BEGIN
                                   22276  1
 000000 00                         22277  1           JOINFLAG   FLAG
                                   22281  1
 000001 00                         22282  1           JOINOFLG   FLAG
 JOINOFLG.JOINFREV 02 ONES         22286  1                      FLAG  (JOINFREV,2)        - Use next's line-number
 JOINOFLG.JOINFTRM 01 ONES         22295  1                      FLAG  (JOINFTRM,1)        - Trim leading blanks
                                   22304  1
 000002                            22305  1           JOINMAXL   DS    H                   Maximum allowable line length
                                   22306  1
 000004                            22307  1           JOINLNO    DS    F                   Existing line-number
 000008                            22308  1           JOINNLNO   DS    F                   Next line-number
                                   22309  1
 00000C                            22310  1           JOINLEN    DS    H                   Existing line length
 00000E                            22311  1           JOINNLEN   DS    H                   Next line length
 000010                            22312  1           JOINBCNT   DS    H                   Trimmed blank count
                                   22313  1           JOININIT   EQU   JOINFLAG,*-JOINFLAG,C'X'
                                   22314  1           *
                                   22315  1           *
                                   22316  1           JOINLIN    DS    CL(&LINESZ)         Existing line
 000012                                   1          +JOINLIN    DS    CL(235)             Existing line
                                   22317  1                      DS    XL(&PRESSZ-&LINESZ)
 0000FD                                   1          +           DS    XL(256-235)
                                   22318  1
                                   22319  1           JOINNLIN   DS    CL(&LINESZ)         Next line
 000112                                   1          +JOINNLIN   DS    CL(235)             Next line
                                   22320  1                      DS    XL(&PRESSZ-&LINESZ)
 0001FD                                   1          +           DS    XL(256-235)
 000212                00212 00212 22321                       END
-                                  22331              ¿þþþþþþþþþþþþþþþþþþþþþþþþþþþþþþþþþþþþþþþþþþþþþþþþþþþþþþþþþþþþþþþþþþþþþÜ
                                   22332              Ÿ                                                                     Ÿ
                                   22333              Ÿ  JOINLINE -- Routine to join two lines.                             Ÿ
                                   22334              Ÿ                                                                     Ÿ
                                   22335              Ÿ    On entry:                                                        Ÿ
                                   22336              Ÿ      R0 - Flag:  0=normal;                                          Ÿ
                                   22337              Ÿ                  1=trim leading blanks                              Ÿ
                                   22338              Ÿ                  2=use next line's line-number                      Ÿ
                                   22339              Ÿ      R1 - Maximum line length allowed (0=max)                       Ÿ
                                   22340              Ÿ      R15- Line number; the next line will be joined to this one.    Ÿ
                                   22341              Ÿ                                                                     Ÿ
                                   22342              Ÿ    On exit, R15 (and cc):                                           Ÿ
                                   22343              Ÿ     -4 - Line or next line doesn't exist; past end of file.         Ÿ
                                   22344              Ÿ      0 - Ok; R1=line-number of joined line                          Ÿ
                                   22345              Ÿ      4 - Line doesn't exist                                         Ÿ
                                   22346              Ÿ     20 - Line would be too long; no action taken                    Ÿ
                                   22347              Ÿ                                                                     Ÿ
                                                      ¾þþþþþþþþþþþþþþþþþþþþþþþþþþþþþþþþþþþþþþþþþþþþþþþþþþþþþþþþþþþþþþþþþþþþþ»
0002EEC 50E0 D000/9008_      00000 22348              JOINLINE XPROC JOINWA
 USING  *,R7
 USING  JOINWA-(4+36),R8
 002F06 D711 8028 8028 00000 00000 22399                       CLEAR JOININIT
1ACT      (ACT2025) (12:40) (15MAR04) Active File Utility Routines                                                          Page   84
0Current Usings:  (*,R7) (JOINWA-(4+36),R8) (CP,R11) (CV,R12)
0Loc    Object Code    Addr1 Addr2  Stmt Lv Lineno    Source Statement           (Hibal 5, Asmedit 3.3)  HLASM R4.0  2004/03/15 12.40
+___    ______ ____    _____ _____  ____ __ ______    ______ _________
0                                  22406
 002F0C 4200 8029            00001 22407                       STC   R0,JOINOFLG         Save options
 002F10 5910 729E/4740_      031A4 22408                       IF    ((R1,LT,1),OR,(R1,GT,&LINESZ)),'LA R1,&LINESZ'
 002F24 4010 802A            00002 22447                       STH   R1,JOINMAXL         Save max length
 002F28 50F0 802C            00004 22448                       ST    R15,JOINLNO
                                   22449
 002F2C 4110 803A            00012 22450                       LA    R1,JOINLIN
 002F30 58E0 72A6/0DEE       031AC 22451                       ACALL GETLINE             Get the line
 002F36 4770 7228            0312E 22455                       IF    Z,BEGIN             Got it...
                                   22466  1                  ¿þþþþþþþþþþþþþþþþþþþþþþþþþþþþþþþþþþþþþþþþþþþþþþþþþþþþþþþþþþþþþþþþþþþÜ
                                   22467  1                  Ÿ  Force two blanks at the end of a sentence.  (Just add one blank  Ÿ
                                   22468  1                  Ÿ        here, the other is the separator.)                         Ÿ
                                   22469  1                  ¾þþþþþþþþþþþþþþþþþþþþþþþþþþþþþþþþþþþþþþþþþþþþþþþþþþþþþþþþþþþþþþþþþþþ»
 002F3A 1200/4780 7064             22470  1                      IF    (R0,NZ),BEGIN
 002F40 18F1                       22484  2                        LR    R15,R1
 002F42 1AF0                       22485  2                        AR    R15,R0
 002F44 06F0                       22486  2                        DECR  R15                 Last character in line
                                   22488  2         C              IF    ((@R15,EQ,'.'),OR,(@R15,EQ,'?'),OR,
 002F46 954B F000/4780_00000              2                              (@R15,EQ,'!'),OR,(@R15,EQ,':')),'INCR R0'
 002F6A                            22553  1                      END
                                   22557  1
 002F6A 4000 8034            0000C 22558  1                      STH   R0,JOINLEN          Line length
                                   22559  1
 002F6E 41F0 0001            00001 22560  1                      LA    R15,1
 002F72 5AF0 802C            00004 22561  1                      A     R15,JOINLNO         Next line-number
 002F76 4110 813A            00112 22562  1                      LA    R1,JOINNLIN
 002F7A 58E0 72A6/0DEE       031AC 22563  1                      ACALL GETLINE             Get the next line
 002F80 4740 7228            0312E 22567  1                      IF    NEG,EXIT            No next line, scram
 002F84 4000 8036            0000E 22581  1                      STH   R0,JOINNLEN
 002F88 D203 8030 B73C 00008 0073C 22582  1                      MVC   JOINNLNO,CPLCNO
                                   22583  1
 002F8E 9101 8029/47E0_00001       22584  1                      IF    JOINFTRM,BEGIN      Trim leading blanks...
 002F96 1BFF                       22599  2                        CLEAR R15
 002F98 1200/47D0 70AE_            22603  2                        WHILE ((R0,POS),AND,(@R1,EQ,' ')),BEGIN
 002FA6 41F0 F001            00001 22634  3                          LA    R15,@R15+1          Leading blank count
 002FAA 4110 1001            00001 22635  3                          LA    R1,@R1+1
 002FAE 0600                       22636  3                          DECR  R0
 002FB0 47F0 7092            02F98 22638  2                        END
 002FB4 12FF/4780 70CA             22643  2                        IF    (R15,Z),EXIT        No leading blanks, scram
 002FBA 40F0 8038            00010 22660  2                        STH   R15,JOINBCNT        Save trimmed blank count
 002FBE 4000 8036            0000E 22661  2                        STH   R0,JOINNLEN         New length
 002FC2 18F0                       22662  2                        LR    R15,R0
 002FC4 06F0/12FF/4740_            22663  2                        MOVE  R15,JOINNLIN,@R1    Move text over
 002FD0                            22701  1                      END
                                   22705  1
 002FD0 4820 8034            0000C 22706  1                      LH    R2,JOINLEN
 002FD4 5920 72A2/47B0_      031A8 22707  1                      IF    (R2,LT,&LINESZ),BEGIN
 002FDC 1222/4780 70F6_            22724  2                        IF    ((R2,Z),OR,(JOINNLEN,Z)),EXIT  No separator needed
 002FEC 4112 803A            00012 22756  2                        LA    R1,JOINLIN(R2)
 002FF0 9240 1000      00000       22757  2                        MVI   @R1,C' '            Separating blank
 002FF4 4120 2001            00001 22758  2                        LA    R2,@R2+1
 002FF8 4020 8034            0000C 22759  2                        STH   R2,JOINLEN          Save updated line length
 002FFC                            22760  1                      END
                                   22764  1
1ACT      (ACT2025) (12:40) (15MAR04) Active File Utility Routines                                                          Page   85
0Current Usings:  (*,R7) (JOINWA-(4+36),R8) (CP,R11) (CV,R12)
0Loc    Object Code    Addr1 Addr2  Stmt Lv Lineno    Source Statement           (Hibal 5, Asmedit 3.3)  HLASM R4.0  2004/03/15 12.40
+___    ______ ____    _____ _____  ____ __ ______    ______ _________
0002FFC 1802                       22765  1                      LR    R0,R2
 002FFE 4A00 8036            0000E 22766  1                      AH    R0,JOINNLEN         New total length
 003002 41F0 0014            00014 22767  1                      LA    R15,20              Preset bad RC
 003006 4900 802A/4720_      00002 22768  1                      IF    (R0,GT,JOINMAXL),EXIT  Too long, scram
                                   22788  1
 00300E 4132 803A            00012 22789  1                      LA    R3,JOINLIN(R2)
 003012 48F0 8036            0000E 22790  1                      LH    R15,JOINNLEN
 003016 06F0/12FF/4740_            22791  1                      MOVE  R15,@R3,JOINNLIN    Join the line text
                                   22829  1
 003022 9102 8029/47E0_00001       22830  1                      IF    JOINFREV,'FLIP (JOINLNO,JOINNLNO)'  Use next's lineno
                                   22857  1
 00303C 58F0 802C            00004 22858  1                      L     R15,JOINLNO
 003040 4110 803A            00012 22859  1                      SETMSG JOINLIN,(R0)
 003044 58E0 72AE/0DEE       031B4 22872  1                      ACALL PUTLINE             Add new joined line
                                   22876  1
 00304A 5800 8030            00008 22877  1                      L     R0,JOINNLNO
 00304E 1810                       22878  1                      LR    R1,R0
 003050 58E0 72B2/0DEE       031B8 22879  1                      ACALL DELRANGE            Delete second line
                                   22883  1                      ¿þþþþþþþþþþþþþþþþþþþþþþþþþþþþþþþþþþþþþþþþþþþþþþþþþþþþþþÜ
                                   22884  1                      Ÿ  Adjust the cursor and block pointers if necessary.  Ÿ
                                   22885  1                      ¾þþþþþþþþþþþþþþþþþþþþþþþþþþþþþþþþþþþþþþþþþþþþþþþþþþþþþþ»
 003056 4820 8034            0000C 22886  1                      LH    R2,JOINLEN          Text before joined line
                                   22887  1
 00305A D503 BADC 8030_00ADC 00008 22888  1                      IF    (CPVLNO,EQ,JOINNLNO),BEGIN  Cursor check...
 003064 48F0 BADA            00ADA 22906  2                        LH    R15,CPVCOL          Starting col in old line
 003068 4BF0 8038            00010 22907  2                        SH    R15,JOINBCNT        Adjust for trimmed blanks
 00306C 4720 716E/41F0_      03074 22908  2                        IF    NP,'LA R15,1'       Not too far
 003074 1AF2                       22925  2                        AR    R15,R2              Adjust for new line
 003076 59F0 729E/47B0_      031A4 22926  2                        FLOOR R15,1
 003082 59F0 72A2/47D0_      031A8 22945  2                        CEIL  R15,&LINESZ
 00308E 40F0 BADA            00ADA 22964  2                        STH   R15,CPVCOL          Save new cursor column
 003092 D203 BADC 802C 00ADC 00004 22965  2                        MVC   CPVLNO,JOINLNO      ... and line-number
 003098                            22966  1                      END
                                   22970  1
 003098 D503 B748 B57C_00748 0057C 22971  1                      IF    (CPBLKACT,EQ,CPACTNO),BEGIN  Block interactions...
 0030A2 D503 B74C 8030_0074C 00008 22989  2                        IF    (CPFBKLNO,EQ,JOINNLNO),BEGIN  FBLOCK check...
 0030AC 48F0 B754            00754 23007  3                          LH    R15,CPFBKCOL        Starting col in old line
 0030B0 4BF0 8038            00010 23008  3                          SH    R15,JOINBCNT        Adjust for trimmed blanks
 0030B4 4720 71B6/41F0_      030BC 23009  3                          IF    NP,'LA R15,1'       Not too far
 0030BC 1AF2                       23026  3                          AR    R15,R2              Adjust for new line
 0030BE 59F0 729E/47B0_      031A4 23027  3                          FLOOR R15,1
 0030CA 59F0 72A2/47D0_      031A8 23046  3                          CEIL  R15,&LINESZ
 0030D6 40F0 B754            00754 23065  3                          STH   R15,CPFBKCOL        Save new FBLOCK column
 0030DA D203 B74C 802C 0074C 00004 23066  3                          MVC   CPFBKLNO,JOINLNO    ... and line-number
 0030E0 9608 BAC9      00AC9       23067  3                          SET   CPVFMARK            Block has changed
 0030E4                            23073  2                        END
                                   23077  2
 0030E4 D503 B750 8030_00750 00008 23078  2                        IF    (CPLBKLNO,EQ,JOINNLNO),BEGIN  LBLOCK check...
 0030EE 48F0 B756/12FF       00756 23096  3                          LTH   R15,CPLBKCOL        Ending column in old line
 0030F4 4780 7218            0311E 23100  3                          IF    NZ,BEGIN
 0030F8 4BF0 8038            00010 23111  4                            SH    R15,JOINBCNT        Adjust for trimmed blanks
 0030FC 4720 71FE/41F0_      03104 23112  4                            IF    NP,'LA R15,1'       Not too far
 003104 1AF2                       23129  4                            AR    R15,R2              Adjust for new line
 003106 59F0 729E/47B0_      031A4 23130  4                            FLOOR R15,1
1ACT      (ACT2025) (12:40) (15MAR04) Active File Utility Routines                                                          Page   86
0Current Usings:  (*,R7) (JOINWA-(4+36),R8) (CP,R11) (CV,R12)
0Loc    Object Code    Addr1 Addr2  Stmt Lv Lineno    Source Statement           (Hibal 5, Asmedit 3.3)  HLASM R4.0  2004/03/15 12.40
+___    ______ ____    _____ _____  ____ __ ______    ______ _________
0003112 59F0 72A2/47D0_      031A8 23149  4                            CEIL  R15,&LINESZ
 00311E                            23168  3                          END
 00311E 40F0 B756            00756 23172  3                          STH   R15,CPLBKCOL        Save new LBLOCK column
 003122 D203 B750 802C 00750 00004 23173  3                          MVC   CPLBKLNO,JOINLNO    ... and line-number
 003128 9608 BAC9      00AC9       23174  3                          SET   CPVFMARK            Block has changed
 00312C                            23180  2                        END
 00312C                            23184  1                      END
                                   23188  1
 00312C 1BFF                       23189  1                      CLEAR R15                 A-ok
 00312E                            23193                       END
                                   23197                       ¿þþþþþþþþþþþþþþÜ
                                   23198                       Ÿ  Finish up.  Ÿ
                                   23199                       ¾þþþþþþþþþþþþþþ»
 00312E 5810 802C            00004 23200                       L     R1,JOINLNO          Joined line-number
 003132 9001 8004            00004 23201                       PRETURN (R0,R1)
 003136 18D8/9808 D004_            23203                       PEND  ,
 DROP   JOINWA-(4+36),R8
 DROP   *,R7
1ACT      (ACT2025) (12:40) (15MAR04) Active File Utility Routines                                                          Page   87
0Current Usings:  (CP,R11) (CV,R12)
0Loc    Object Code    Addr1 Addr2  Stmt Lv Lineno    Source Statement           (Hibal 5, Asmedit 3.3)  HLASM R4.0  2004/03/15 12.40
+___    ______ ____    _____ _____  ____ __ ______    ______ _________
0000000                00000 00008 23229              CNTWA    RECORD BEGIN
 000000                            23237  1           CNTFIRST   DS    F           [Order] First line-number
 000004                            23238  1           CNTLAST    DS    F           [Order] Last line-number
 000008                00008 00008 23239                       END
-                                  23249              ¿þþþþþþþþþþþþþþþþþþþþþþþþþþþþþþþþþþþþþþþþþþþþþþþþþþþþþþþþþþþþþþþþþþþþþÜ
                                   23250              Ÿ                                                                     Ÿ
                                   23251              Ÿ  CNTRANGE -- Routine to count the number of lines in a range.       Ÿ
                                   23252              Ÿ                                                                     Ÿ
                                   23253              Ÿ    On entry:                                                        Ÿ
                                   23254              Ÿ      R0 - first line-number in range                                Ÿ
                                   23255              Ÿ      R1 - last line-number in range                                 Ÿ
                                   23256              Ÿ                                                                     Ÿ
                                   23257              Ÿ    On exit:                                                         Ÿ
                                   23258              Ÿ      R15 (and CC) - no. of lines in range                           Ÿ
                                   23259              Ÿ      R0 - total byte count of all lines in range                    Ÿ
                                   23260              Ÿ           (byte count is for text only (not linenos))               Ÿ
                                   23261              Ÿ                                                                     Ÿ
                                                      ¾þþþþþþþþþþþþþþþþþþþþþþþþþþþþþþþþþþþþþþþþþþþþþþþþþþþþþþþþþþþþþþþþþþþþþ»
0003144 50E0 D000/9008_      00000 23262              CNTRANGE XPROC CNTWA
 USING  *,R7
 USING  CNTWA-(4+36),R8
 00315E 9001 8028            00000 23313                       STM   R0,R1,CNTFIRST      Save first and last linenos
                                   23314
 003162 41F0 B484            00484 23315                       LA    R15,CPTEXT          Initialize line counter
 003166 4100 8028            00000 23316                       LA    R0,CNTFIRST         Initialize byte counter
 00316A 4110 802C            00004 23317                       LA    R1,CNTLAST
 00316E 1B22                       23318                       CLEAR R2
 003170 58E0 705E/0DEE       031BC 23322                       VCALL XCNTRECS            Count lines and bytes
 003176 5008 0004            00004 23326                       PRETURN (R0)
 00317A 18D8/9808 D004_            23328                       PEND  ,
 DROP   CNTWA-(4+36),R8
 DROP   *,R7
1ACT      (ACT2025) (12:40) (15MAR04) Active File Utility Routines                                                          Page   88
0Current Usings:  (CP,R11) (CV,R12)
0Loc    Object Code    Addr1 Addr2  Stmt Lv Lineno    Source Statement           (Hibal 5, Asmedit 3.3)  HLASM R4.0  2004/03/15 12.40
+___    ______ ____    _____ _____  ____ __ ______    ______ _________
0                                  23354                       QLTORG
1ACT      (ACT2025) (12:40) (15MAR04) Active File Utility Routines                                                          Page   89
0Current Usings:  (CP,R11) (CV,R12)
0Loc    Object Code    Addr1 Addr2  Stmt Lv Lineno    Source Statement           (Hibal 5, Asmedit 3.3)  HLASM R4.0  2004/03/15 12.40
+___    ______ ____    _____ _____  ____ __ ______    ______ _________
0000000                00000 0001C 23381              CHKWA    RECORD BEGIN
 000000                            23389  1           CHKLNCNT   DS    F                   Number of lines to be added
 000004                            23390  1           CHKAREA    DS    F                   Size of renumber area
 000008                            23391  1           CHKSTART   DS    F                   Start of range to renumber
 00000C                            23392  1           CHKEND     DS    F                   End of range to renumber
 000010                            23393  1           CHKLINE    DS    F                   Line after which to insert
 000014                            23394  1           CHKANCOR   DS    F                   Line to anchor area enlargement
 000018                            23395  1           CHKCNT     DS    F                   Number of range increases
 00001C                0001C 0001C 23396                       END
-                                  23406              ¿þþþþþþþþþþþþþþþþþþþþþþþþþþþþþþþþþþþþþþþþþþþþþþþþþþþþþþþþþþþþþþþþþþþþþÜ
                                   23407              Ÿ                                                                     Ÿ
                                   23408              Ÿ                                                                     Ÿ
                                   23409              Ÿ  CHKLINES -- Routine to verify that there are enough new            Ÿ
                                   23410              Ÿ    line-numbers to add new lines.  This routine will renumber       Ÿ
                                   23411              Ÿ    existing lines to provide enough space, if necessary.            Ÿ
                                   23412              Ÿ                                                                     Ÿ
                                   23413              Ÿ    On entry:                                                        Ÿ
                                   23414              Ÿ      R15 - line-number; caller wants to add lines after this one    Ÿ
                                   23415              Ÿ      R0  - number of lines to be added                              Ÿ
                                   23416              Ÿ                                                                     Ÿ
                                   23417              Ÿ    On exit:                                                         Ÿ
                                   23418              Ÿ      R15 - line-number; same as on entry                            Ÿ
                                   23419              Ÿ            (unless there was a renumber)                            Ÿ
                                   23420              Ÿ      R1  - delta to use                                             Ÿ
                                   23421              Ÿ                                                                     Ÿ
                                   23422              Ÿ                                                                     Ÿ
                                   23423              Ÿ  Note:                                                              Ÿ
                                   23424              Ÿ    - 1st we see if lines will fit in space,  if not we look         Ÿ
                                   23425              Ÿ      for a range that will hold lines if renumbered                 Ÿ
                                   23426              Ÿ    - The area for renumbering grows as follows 1, 1*2, 1*2*4,       Ÿ
                                   23427              Ÿ      1*2*4*8, 1*2*4*8*16,,, etc,,, this is fast!                    Ÿ
                                   23428              Ÿ    - The area to be renumbered is renumbered in 2 parts,            Ÿ
                                   23429              Ÿ      before and after the line to be inserted.                      Ÿ
                                   23430              Ÿ    - This routine has a few hard coded dependecies,  .01 is         Ÿ
                                   23431              Ÿ      the minimum delta accepted (change only with caution!).        Ÿ
                                   23432              Ÿ      Also the minimum area renumbered starts at 1 regardless        Ÿ
                                   23433              Ÿ      of users delta.                                                Ÿ
                                   23434              Ÿ                                                                     Ÿ
                                   23435              Ÿ                                                                     Ÿ
                                                      ¾þþþþþþþþþþþþþþþþþþþþþþþþþþþþþþþþþþþþþþþþþþþþþþþþþþþþþþþþþþþþþþþþþþþþþ»
00031D2 50E0 D000/9008_      00000 23436              CHKLINES XPROC CHKWA
 USING  *,R7
 USING  CHKWA-(4+36),R8
                                   23487
                                   23488                       COMMENT
 0031EC D71B 8028 8028 00000 00000 23489                       CLEAR CHKWA
 0031F2 5000 8028            00000 23496                       ST    R0,CHKLNCNT
 0031F6 50F0 8038            00010 23497                       ST    R15,CHKLINE
                                   23498
                                   23499                       COMMENT                   Check entry parms
 0031FA 55F0 C15C/4750_      0015C 23500                       IF    (R15,LGE,CVMAXLNO),BEGIN  Be reasonable...
1ACT      (ACT2025) (12:40) (15MAR04) Active File Utility Routines                                                          Page   90
0Current Usings:  (*,R7) (CHKWA-(4+36),R8) (CP,R11) (CV,R12)
0Loc    Object Code    Addr1 Addr2  Stmt Lv Lineno    Source Statement           (Hibal 5, Asmedit 3.3)  HLASM R4.0  2004/03/15 12.40
+___    ______ ____    _____ _____  ____ __ ______    ______ _________
0003202 4110 77A8/4100_      03994 23517  1                      ABORT 'You can''t have lines after line &MAXLNO'
 00320E                            23524                       END
 00320E 1200/4720 7040_            23528                       FAIL  (R0,NP),AUTONUM1,'Auto-number for zero lines'
                                   23554                       ¿þþþþþþþþþþþþþþþþþþþþþþþþþþþþþþþþþþþþþþþþþþþþþþþþþþþþÜ
                                   23555                       Ÿ  1st, check if lines will fit with no renumbering  Ÿ
                                   23556                       ¾þþþþþþþþþþþþþþþþþþþþþþþþþþþþþþþþþþþþþþþþþþþþþþþþþþþþ»
                                   23557                       COMMENT                   Get next line number
 00322C 58F0 8038            00010 23558                       L     R15,CHKLINE
 003230 5AF0 C4D0            004D0 23559                       A     R15,CVONE
 003234 58E0 775C/0DEE       03948 23560                       ACALL GETLNO              Get existing line-number
 00323A 5810 B73C            0073C 23564                       L     R1,CPLCNO
 00323E 47B0 705A            03246 23565                       IF    NEG,BEGIN
 003242 5810 C160            00160 23576  1                      L     R1,CVHILNO
 003246                            23577                       END
 003246 5010 8034            0000C 23581                       ST    R1,CHKEND
                                   23582
                                   23583                       COMMENT                   Calculate if lines will fit
 00324A 1B22                       23584                       CLEAR R2
 00324C 5830 8034            0000C 23588                       L     R3,CHKEND
 003250 5B30 8038            00010 23589                       S     R3,CHKLINE          R2-R3 - area for new line
 003254 0630                       23590                       DECR  R3
 003256 5810 8028            00000 23592                       L     R1,CHKLNCNT         R1 - new lines + 1
 00325A 5E10 7760            0394C 23593                       INCR  R1
 00325E 1D21                       23596                       DR    R2,R1
 003260 1813                       23597                       LR    R1,R3
 003262 5910 7238/47A0_      03424 23598                       IF    (R1,GE,CHKMIND),CHKLDONE   If lines fit, we're done
                                   23618                   ¿þþþþþþþþþþþþþþþþþþþþþþþþþþþþþþþþþþþþþþþþþþþþþþþþþþþþþþþþþþþþþþþþþþþÜ
                                   23619                   Ÿ                                                                   Ÿ
                                   23620                   Ÿ  2nd try, loop trying to fit in larger ranges, we renumber lines  Ÿ
                                   23621                   Ÿ        if needed                                                  Ÿ
                                   23622                   ¾þþþþþþþþþþþþþþþþþþþþþþþþþþþþþþþþþþþþþþþþþþþþþþþþþþþþþþþþþþþþþþþþþþþ»
                                   23623                       COMMENT                   Find first integer line number
                                   23624                       COMMENT                     before or at line to insert
 00326A 5810 B738            00738 23625                       L     R1,CPDELTA
 00326E 5910 7764/47B0_      03950 23626                       FLOOR R1,1000             1.000 is minimum renuber area
 00327A 5010 802C            00004 23645                       ST    R1,CHKAREA          (renumber area increment)
 00327E 1B22                       23646                       CLEAR R2
 003280 5830 8038            00010 23650                       L     R3,CHKLINE
 003284 1D21                       23651                       DR    R2,R1
 003286 1C21                       23652                       MR    R2,R1
 003288 5030 803C            00014 23653                       ST    R3,CHKANCOR         save this line as anchor
                                   23654
                                   23655                       COMMENT                   Loop looking for range to
                                   23656                       COMMENT                   renumber
 00328C 5810 803C            00014 23657                       L     R1,CHKANCOR
 003290 1211/4720 70AC             23658                       IF    (R1,NP),BEGIN
 003296 1B11                       23672  1                      CLEAR R1
 003298                            23676                       END
 003298 1211/4770 70C0_            23680                       IF    ((R1,Z),AND,(CHKLINE,GE,10)),BEGIN
 0032A8 4110 000A            0000A 23711  1                      LA    R1,10               avoid line 0, (niz's folly)
 0032AC                            23712                       END
 0032AC 5010 8030            00008 23716                       ST    R1,CHKSTART         set up start/end of range
 0032B0 5810 803C            00014 23717                       L     R1,CHKANCOR
 0032B4 5A10 802C            00004 23718                       A     R1,CHKAREA
1ACT      (ACT2025) (12:40) (15MAR04) Active File Utility Routines                                                          Page   91
0Current Usings:  (*,R7) (CHKWA-(4+36),R8) (CP,R11) (CV,R12)
0Loc    Object Code    Addr1 Addr2  Stmt Lv Lineno    Source Statement           (Hibal 5, Asmedit 3.3)  HLASM R4.0  2004/03/15 12.40
+___    ______ ____    _____ _____  ____ __ ______    ______ _________
00032B8 5510 C160/47D0_      00160 23719                       IF    (R1,LGT,CVHILNO),BEGIN
 0032C0 5810 C160            00160 23736  1                      L     R1,CVHILNO
 0032C4                            23737                       END
 0032C4 5010 8034            0000C 23741                       ST    R1,CHKEND
 0032C8 D503 776C 8040_03958 00018 23742                       WHILE (CHKCNT,LT,20),BEGIN    Loop
                                   23762  1
                                   23763  1                      COMMENT                   Count lines in range
 0032D2 5800 8030            00008 23764  1                      L     R0,CHKSTART
 0032D6 5810 8034            0000C 23765  1                      L     R1,CHKEND
 0032DA 58E0 7770/0DEE       0395C 23766  1                      ACALL CNTRANGE
 0032E0 181F                       23770  1                      LR    R1,R15
 0032E2 5A10 8028            00000 23771  1                      A     R1,CHKLNCNT
 0032E6 5E10 7760            0394C 23772  1                      INCR  R1                  R1 - total line to put in range+1
 0032EA 1B22                       23775  1                      CLEAR R2
 0032EC 5830 8034            0000C 23779  1                      L     R3,CHKEND
 0032F0 5B30 8030            00008 23780  1                      S     R3,CHKSTART
 0032F4 0630                       23781  1                      DECR  R3                  R3 - length of range -1
 0032F6 1D21                       23783  1                      DR    R2,R1
                                   23784  1           *
                                   23785  1           * !!! If lines fit in range! renumber it !
 0032F8 5930 7238/4750_      03424 23786  1                      IF    (R3,GE,CHKMIND),BEGIN  R3 - MAXIMUM RAW DELTA
 003300 5800 8030            00008 23803  2                        L     R0,CHKSTART
 003304 5810 8034            0000C 23804  2                        L     R1,CHKEND
 003308 5820 8038            00010 23805  2                        L     R2,CHKLINE
                                   23806  2                        COMMENT R3 - RAW DELTA
 00330C 5840 8028            00000 23807  2                        L     R4,CHKLNCNT
 003310 58E0 7774/0DEE       03960 23808  2                        ACALL AUTONUMB            renumber area !
 003316 5010 8038            00010 23812  2                        ST    R1,CHKLINE          returns new line-number/delta
 00331A 1810                       23813  2                        LR    R1,R0
 00331C 47F0 71CE            033BA 23814  2                        B     CHKLDONE
 003320                            23815  1                      END
                                   23819  1           *
                                   23820  1           *  If lines don't fit, enlarge range and loop
                                   23821  1                      COMMENT                   get new start/end lines
 003320 5810 8034            0000C 23822  1                      L     R1,CHKEND           enlarge end of range
 003324 5A10 802C            00004 23823  1                      A     R1,CHKAREA
 003328 5510 C160/47D0_      00160 23824  1                      IF    (R1,LGT,CVHILNO),BEGIN
 003330 5810 C160            00160 23841  2                        L     R1,CVHILNO
 003334                            23842  1                      END
 003334 5010 8034            0000C 23846  1                      ST    R1,CHKEND
 003338 D503 7778 8040_03964 00018 23847  1                      IF    (CHKCNT,GT,3),BEGIN    after a couple of tries,
 003342 5810 8030            00008 23865  2                        L     R1,CHKSTART            enlarge area at start too
 003346 5B10 802C            00004 23866  2                        S     R1,CHKAREA
 00334A 1211/4720 7166             23867  2                        IF    (R1,NP),BEGIN
 003350 1B11                       23881  3                          CLEAR R1
 003352                            23885  2                        END
 003352 1211/4770 717A_            23889  2                        IF    ((R1,Z),AND,(CHKLINE,GE,10)),BEGIN
 003362 4110 000A            0000A 23920  3                          LA    R1,10               avoid line 0, (niz's folly)
 003366                            23921  2                        END
 003366 5010 8030            00008 23925  2                        ST    R1,CHKSTART
 00336A                            23926  1                      END
                                   23930  1
                                   23931  1                      COMMENT                   Increase enlarge area
 00336A 5810 802C            00004 23932  1                      L     R1,CHKAREA
1ACT      (ACT2025) (12:40) (15MAR04) Active File Utility Routines                                                          Page   92
0Current Usings:  (*,R7) (CHKWA-(4+36),R8) (CP,R11) (CV,R12)
0Loc    Object Code    Addr1 Addr2  Stmt Lv Lineno    Source Statement           (Hibal 5, Asmedit 3.3)  HLASM R4.0  2004/03/15 12.40
+___    ______ ____    _____ _____  ____ __ ______    ______ _________
000336E 5820 8040            00018 23933  1                      L     R2,CHKCNT
 003372 5E20 7760            0394C 23934  1                      INCR  R2
 003376 5020 8040            00018 23937  1                      ST    R2,CHKCNT              increment try count
 00337A 1222/47D0 71A8             23938  1                      WHILE (R2,POS),BEGIN
 003380 1A11                       23954  2                        AR    R1,R1
 003382 0620                       23955  2                        DECR  R2
 003384 5510 C160/47D0_      00160 23957  2                        IF    (R1,LGT,CVHILNO),BEGIN
 00338C 5810 C160            00160 23974  3                          L     R1,CVHILNO
 003390                            23975  2                        END
 003390 47F0 718E            0337A 23979  1                      END
 003394 5010 802C            00004 23984  1                      ST    R1,CHKAREA
 003398 47F0 70DC            032C8 23985                       END   ,                   continue to loop
                                   23990
                                   23991                       COMMENT                   Auto number infinite loop
 00339C 1900/4770 71CE_            23992                       FAIL  (R0,EQ,R0),AUTONUM2,'Page auto-number loop'
                                   24019
 0033BA                            24020              CHKLDONE LABEL ,                   R1 - RAW DELTA
 0033BA 5910 777C/47B0_      03968 24022                       FAIL  (R1,LT,10),AUTONUM3,'Bad delta for auto-number'
 0033DA 5910 777C/4750_      03968 24051                       IF    (R1,GE,10),' LA R0,10 '
 0033E6 5910 7780/4750_      0396C 24074                       IF    (R1,GE,100),' LA R0,100 '
 0033F2 5910 7764/4750_      03950 24097                       IF    (R1,GE,1000),' LA R0,1000 '
 0033FE 5910 B738/4750_      00738 24120                       IF    (R1,GE,CPDELTA),' L R0,CPDELTA '
 00340A 1810                       24143                       LR    R1,R0               R1 - RETURN DELTA
 00340C 58F0 8038            00010 24144                       L     R15,CHKLINE         R15 - RETURN LINE NUMBER
 003410 5018 0008            00008 24145                       PRETURN (R1)
 003414 18D8/9808 D004_            24147                       PEND  ,
 DROP   CHKWA-(4+36),R8
 DROP   *,R7
                                   24172
                                   24173                       COMMENT                   Minimum acceptable delta is .01
 003422 0000
 003424 0000000A                   24174              CHKMIND  DC    F'10'               DO NOT CHANGE !!  if you change
                                   24175                       COMMENT                   CHKLINES routine may not work
1ACT      (ACT2025) (12:40) (15MAR04) Active File Utility Routines                                                          Page   93
0Current Usings:  (CP,R11) (CV,R12)
0Loc    Object Code    Addr1 Addr2  Stmt Lv Lineno    Source Statement           (Hibal 5, Asmedit 3.3)  HLASM R4.0  2004/03/15 12.40
+___    ______ ____    _____ _____  ____ __ ______    ______ _________
0000000                00000 00024 24177              ANWA     RECORD BEGIN
 000000                            24185  1           ANSTART    DS    F                   START OF RANGE
 000004                            24186  1           ANEND      DS    F                   END OF RANGE
 000008                            24187  1           ANLINE     DS    F                   LINE NUMBER TO INSERT AFTER
 00000C                            24188  1           ANDELTA    DS    F                   RAW DELTA TO USE
 000010                            24189  1           ANLNCNT    DS    F                   COUNT OF LINES TO BE INSERTED
 000014                            24190  1           ANCNT1     DS    F                   COUNT BEFORE LINE
 000018                            24191  1           ANCNT2     DS    F                   COUNT AFTER LINE
 00001C                            24192  1           ANNEWLN    DS    F                   NEW LINE NUMBER TO INS AFTER
 000020                            24193  1           ANNEWEND   DS    F                   NEW START FOR LINES AFTER
 000024                00024 00024 24194                       END
-                                  24204              ¿þþþþþþþþþþþþþþþþþþþþþþþþþþþþþþþþþþþþþþþþþþþþþþþþþþþþþþþþþþþþþþþþþþþþþÜ
                                   24205              Ÿ                                                                     Ÿ
                                   24206              Ÿ                                                                     Ÿ
                                   24207              Ÿ  AUTONUMB - NUMBER RANGE, OPENING UP AN INSERT AREA                 Ÿ
                                   24208              Ÿ                                                                     Ÿ
                                   24209              Ÿ  ON ENTRY:                                                          Ÿ
                                   24210              Ÿ       R0 - START OF RANGE                                           Ÿ
                                   24211              Ÿ       R1 - END OF RANGE                                             Ÿ
                                   24212              Ÿ       R2 - LINE NUMBER TO INSERT AFTER                              Ÿ
                                   24213              Ÿ       R3 - RAW DELTA FOR RENUMBER  (MUST BE >= .01)                 Ÿ
                                   24214              Ÿ       R4 - LINES TO INSERT (FOR VALIDITY CHECKING)                  Ÿ
                                   24215              Ÿ                                                                     Ÿ
                                   24216              Ÿ  ON EXIT:                                                           Ÿ
                                   24217              Ÿ       R0 - DELTA TO USE FOR INSERT                                  Ÿ
                                   24218              Ÿ       R1 - LINE TO INSERT AFTER (MAY OR MAY NOT BE SAME)            Ÿ
                                   24219              Ÿ                                                                     Ÿ
                                   24220              Ÿ  NOTE: THE RANGE IS RENUMBERED IN TWO PARTS THE PART BEFORE         Ÿ
                                   24221              Ÿ    THE PLACE TO INSERT AND THE PART AFTER THE PLACE TO INSERT.      Ÿ
                                   24222              Ÿ    THIS, IN EFFECT, OPENS UP A RANGE FOR INSERTING LINES.           Ÿ
                                   24223              Ÿ  NOTE: CALLER TO THIS ROUTINE MUST GUARANTEE, THAT THE GIVEN        Ÿ
                                   24224              Ÿ    RANGE WILL HOLD ALL THE OLD+NEW LINES USING THE DELTA            Ÿ
                                   24225              Ÿ    SPECIFIED.  IF NOT, THIS ROUTINE WILL FAIL.                      Ÿ
                                   24226              Ÿ                                                                     Ÿ
                                   24227              Ÿ                                                                     Ÿ
                                   24228              Ÿ                                                                     Ÿ
                                                      ¾þþþþþþþþþþþþþþþþþþþþþþþþþþþþþþþþþþþþþþþþþþþþþþþþþþþþþþþþþþþþþþþþþþþþþ»
0003428 50E0 D000/9008_      00000 24229              AUTONUMB PROC  ANWA
 USING  *,R7
 USING  ANWA-(4+36),R8
                                   24279
 003442 D723 8028 8028 00000 00000 24280                       CLEAR ANWA
 003448 5000 8028            00000 24287                       ST    R0,ANSTART
 00344C 5010 802C            00004 24288                       ST    R1,ANEND
 003450 5020 8030            00008 24289                       ST    R2,ANLINE
 003454 5030 8034            0000C 24290                       ST    R3,ANDELTA
 003458 5040 8038            00010 24291                       ST    R4,ANLNCNT
                                   24292
                                   24293                       COMMENT                   COUNT LINES BEFORE, AFTER
 00345C 5800 8028            00000 24294                       L     R0,ANSTART
 003460 5810 8030            00008 24295                       L     R1,ANLINE
1ACT      (ACT2025) (12:40) (15MAR04) Active File Utility Routines                                                          Page   94
0Current Usings:  (*,R7) (ANWA-(4+36),R8) (CP,R11) (CV,R12)
0Loc    Object Code    Addr1 Addr2  Stmt Lv Lineno    Source Statement           (Hibal 5, Asmedit 3.3)  HLASM R4.0  2004/03/15 12.40
+___    ______ ____    _____ _____  ____ __ ______    ______ _________
0003464 58E0 751A/0DEE       0395C 24296                       ACALL CNTRANGE
 00346A 50F0 803C            00014 24300                       ST    R15,ANCNT1
 00346E 5800 8030            00008 24301                       L     R0,ANLINE
 003472 5A00 C4D0            004D0 24302                       A     R0,CVONE
 003476 5810 802C            00004 24303                       L     R1,ANEND
 00347A 0610                       24304                       DECR  R1
 00347C 58E0 751A/0DEE       0395C 24306                       ACALL CNTRANGE
 003482 50F0 8040            00018 24310                       ST    R15,ANCNT2
                                   24311
                                   24312                       COMMENT                   GET GOOD DELTA FROM RAW
 003486 5810 8034            0000C 24313                       L     R1,ANDELTA
 00348A 5910 7526/47B0_      03968 24314                       FAIL  (R1,LT,10),AUTONUM3,'Bad delta for auto-number'
 0034AA 1801                       24343                       LR    R0,R1
 0034AC 5910 7526/4750_      03968 24344                       IF    (R1,GE,10),' LA R0,10 '
 0034B8 5910 752A/4750_      0396C 24367                       IF    (R1,GE,100),' LA R0,100 '
 0034C4 5910 750E/4750_      03950 24390                       IF    (R1,GE,1000),' LA R0,1000 '
 0034D0 5910 B738/4750_      00738 24413                       IF    ((R1,GE,CPDELTA),AND,(CPDELTA,GT,1000)),BEGIN
 0034E2 4100 B738            00738 24447  1                      LA    R0,CPDELTA
 0034E6                            24448                       END
 0034E6 5000 8034            0000C 24452                       ST    R0,ANDELTA
                                   24453
                                   24454                       COMMENT                   CALCULATE SOME NEW LINE NUMBERS
 0034EA 1B22                       24455                       CLEAR R2                  CALCULAT NEW LINE TO INSERT AFTER
 0034EC 5830 803C            00014 24459                       L     R3,ANCNT1           = START+(COUNT-1)*DELTA
 0034F0 0630                       24460                       DECR  R3
 0034F2 5810 8034            0000C 24462                       L     R1,ANDELTA
 0034F6 1C21                       24463                       MR    R2,R1
 0034F8 5A30 8028            00000 24464                       A     R3,ANSTART
 0034FC 5030 8044            0001C 24465                       ST    R3,ANNEWLN          NEW LINE TO INSERT AFTER
                                   24466                       COMMENT
 003500 1B22                       24467                       CLEAR R2                  CALCULATE START FOR END LINES
 003502 5830 8040            00018 24471                       L     R3,ANCNT2           = END-COUNT*DELTA
 003506 5810 8034            0000C 24472                       L     R1,ANDELTA
 00350A 1C21                       24473                       MR    R2,R1
 00350C 5810 802C            00004 24474                       L     R1,ANEND
 003510 1B13                       24475                       SR    R1,R3
 003512 5010 8048            00020 24476                       ST    R1,ANNEWEND         NEW START OF LAST LINES
                                   24477
                                   24478                       COMMENT                   NUMBER BEFORE FIRST
 003516 D503 8044 8030_0001C 00008 24479                       IF    (ANNEWLN,LE,ANLINE),BEGIN
 003520 5800 8028            00000 24497  1                      L     R0,ANSTART
 003524 5810 8030            00008 24498  1                      L     R1,ANLINE
 003528 5820 8034            0000C 24499  1                      L     R2,ANDELTA
 00352C 5830 8028            00000 24500  1                      L     R3,ANSTART
 003530 D503 7502 803C_03944 00014 24501  1                      IF    (ANCNT1,NE,0),BEGIN
 00353A 58E0 7532/0DEE       03974 24519  2                        ACALL NUMRANGE
 003540 4780 711A/900F_      0355C 24523  2                        FAIL  NZ,AUTONUM4,'Bad NUMRANGE call by page auto-number'
 00355C 5920 8034/4780_      0000C 24546  2                        FAIL  (R2,NE,ANDELTA),AUTONUM3,'Bad delta for auto-number'
 00357C 5900 8044/4780_      0001C 24575  2                        FAIL  (R0,NE,ANNEWLN),AUTONUM6,'Bad page auto-number calc'
 00359C                            24604  1                      END
 00359C 5800 8030            00008 24608  1                      L     R0,ANLINE
 0035A0 5A00 C4D0            004D0 24609  1                      A     R0,CVONE
 0035A4 5810 802C            00004 24610  1                      L     R1,ANEND
 0035A8 0610                       24611  1                      DECR  R1
1ACT      (ACT2025) (12:40) (15MAR04) Active File Utility Routines                                                          Page   95
0Current Usings:  (*,R7) (ANWA-(4+36),R8) (CP,R11) (CV,R12)
0Loc    Object Code    Addr1 Addr2  Stmt Lv Lineno    Source Statement           (Hibal 5, Asmedit 3.3)  HLASM R4.0  2004/03/15 12.40
+___    ______ ____    _____ _____  ____ __ ______    ______ _________
00035AA 5820 8034            0000C 24613  1                      L     R2,ANDELTA
 0035AE 5830 8048            00020 24614  1                      L     R3,ANNEWEND
 0035B2 D503 7502 8040_03944 00018 24615  1                      IF    (ANCNT2,NE,0),BEGIN
 0035BC 58E0 7532/0DEE       03974 24633  2                        ACALL NUMRANGE
 0035C2 4780 719C/900F_      035DE 24637  2                        FAIL  NZ,AUTONUM4,'Bad NUMRANGE call by page auto-number'
 0035DE 5920 8034/4780_      0000C 24660  2                        FAIL  (R2,NE,ANDELTA),AUTONUM3,'Bad delta for auto-number'
 0035FE                            24689  1                      END
 0035FE                            24693                       END
                                   24697
                                   24698                       COMMENT                   NUMBER AFTER FIRST
 0035FE D503 8044 8030_0001C 00008 24699                       IF    (ANNEWLN,GT,ANLINE),BEGIN
 003608 5800 8030            00008 24717  1                      L     R0,ANLINE
 00360C 5A00 C4D0            004D0 24718  1                      A     R0,CVONE
 003610 5810 802C            00004 24719  1                      L     R1,ANEND
 003614 0610                       24720  1                      DECR  R1
 003616 5820 8034            0000C 24722  1                      L     R2,ANDELTA
 00361A 5830 8048            00020 24723  1                      L     R3,ANNEWEND
 00361E D503 7502 8040_03944 00018 24724  1                      IF    (ANCNT2,NE,0),BEGIN
 003628 58E0 7532/0DEE       03974 24742  2                        ACALL NUMRANGE
 00362E 4780 7208/900F_      0364A 24746  2                        FAIL  NZ,AUTONUM4,'Bad NUMRANGE call by page auto-number'
 00364A 5920 8034/4780_      0000C 24769  2                        FAIL  (R2,NE,ANDELTA),AUTONUM3,'Bad delta for auto-number'
 00366A                            24798  1                      END
 00366A 5800 8028            00000 24802  1                      L     R0,ANSTART
 00366E 5810 8030            00008 24803  1                      L     R1,ANLINE
 003672 5820 8034            0000C 24804  1                      L     R2,ANDELTA
 003676 5830 8028            00000 24805  1                      L     R3,ANSTART
 00367A D503 7502 803C_03944 00014 24806  1                      IF    (ANCNT1,NE,0),BEGIN
 003684 58E0 7532/0DEE       03974 24824  2                        ACALL NUMRANGE
 00368A 4780 7264/900F_      036A6 24828  2                        FAIL  NZ,AUTONUM4,'Bad NUMRANGE call by page auto-number'
 0036A6 5920 8034/4780_      0000C 24851  2                        FAIL  (R2,NE,ANDELTA),AUTONUM3,'Bad delta for auto-number'
 0036C6 5900 8044/4780_      0001C 24880  2                        FAIL  (R0,NE,ANNEWLN),AUTONUM6,'Bad page auto-number calc'
 0036E6                            24909  1                      END
 0036E6                            24913                       END
                                   24917
                                   24918                       COMMENT                   MAKE SURE NEW LINES FIT
 0036E6 5800 8044            0001C 24919                       L     R0,ANNEWLN          R0 - START OF AREA FOR INSERT
 0036EA 5A00 C4D0            004D0 24920                       A     R0,CVONE
 0036EE 1B22                       24921                       CLEAR R2
 0036F0 5830 8038            00010 24925                       L     R3,ANLNCNT
 0036F4 5810 8034            0000C 24926                       L     R1,ANDELTA
 0036F8 1C21                       24927                       MR    R2,R1
 0036FA 5810 8044            0001C 24928                       L     R1,ANNEWLN
 0036FE 1A13                       24929                       AR    R1,R3               R1 - END OF AREA FOR INSERT
 003700 58E0 751A/0DEE       0395C 24930                       ACALL CNTRANGE            COUNT LINES IN RANGE
 003706 12FF/4780 72E2_            24934                       FAIL  (R15,NZ),AUTONUM8,'Page auto-number logic error'
                                   24960
                                   24961                       COMMENT                   RETURN
 003724 5800 8034            0000C 24962                       L     R0,ANDELTA
 003728 5810 8044            0001C 24963                       L     R1,ANNEWLN
 00372C 9001 8004            00004 24964                       PRETURN (R0,R1)
 003730 1BFF                       24966                       CLEAR R15
 003732 18D8/9808 D004_            24970                       PEND  ,
 DROP   ANWA-(4+36),R8
 DROP   *,R7
1ACT      (ACT2025) (12:40) (15MAR04) Active File Utility Routines                                                          Page   96
0Current Usings:  (CP,R11) (CV,R12)
0Loc    Object Code    Addr1 Addr2  Stmt Lv Lineno    Source Statement           (Hibal 5, Asmedit 3.3)  HLASM R4.0  2004/03/15 12.40
+___    ______ ____    _____ _____  ____ __ ______    ______ _________
0000000                00000 00014 24996              NUMRWA   RECORD BEGIN
 000000 00                         25004  1           NUMFLAG    FLAG
 NUMFLAG.NUMFCALC  80 ONES         25008  1                      FLAG  NUMFCALC            - Delta has been calculated
                                   25013  1
 000004                            25014  1           NUMRFRST   DS    F           [Order] Start of range
 000008                            25015  1           NUMRLAST   DS    F           [Order] End of range
 00000C                            25016  1           NUMRDELT   DS    F           [Order] Delta factor
 000010                            25017  1           NUMRSTRT   DS    F           [Order] New starting lineno
 000014                00014 00014 25018                       END
-                                  25028              ¿þþþþþþþþþþþþþþþþþþþþþþþþþþþþþþþþþþþþþþþþþþþþþþþþþþþþþþþþþþþþþþþþþþþþþÜ
                                   25029              Ÿ                                                                     Ÿ
                                   25030              Ÿ  NUMRANGE -- Routine to re-number range of lines in the             Ÿ
                                   25031              Ÿ    Active file.                                                     Ÿ
                                   25032              Ÿ                                                                     Ÿ
                                   25033              Ÿ    On entry:                                                        Ÿ
                                   25034              Ÿ       R0 - start of range                                           Ÿ
                                   25035              Ÿ       R1 - end of range                                             Ÿ
                                   25036              Ÿ       R2 - delta factor (0 = calculate best)                        Ÿ
                                   25037              Ÿ       R3 - new starting lineno, (-1 if none)                        Ÿ
                                   25038              Ÿ                                                                     Ÿ
                                   25039              Ÿ    On Exit:                                                         Ÿ
                                   25040              Ÿ       R0 - last line-number in re-numbered range (if CC=zero)       Ÿ
                                   25041              Ÿ       R2 - actual delta used                                        Ÿ
                                   25042              Ÿ      R15 - CC=zero, success                                         Ÿ
                                   25043              Ÿ            RC=4  - bad delta (never given--handled internally)      Ÿ
                                   25044              Ÿ            RC=8  - no lines found                                   Ÿ
                                   25045              Ÿ            RC=12 - bad range                                        Ÿ
                                   25046              Ÿ            RC=16 - rounding error (number times)                    Ÿ
                                   25047              Ÿ                                                                     Ÿ
                                   25048              Ÿ                                                                     Ÿ
                                                      ¾þþþþþþþþþþþþþþþþþþþþþþþþþþþþþþþþþþþþþþþþþþþþþþþþþþþþþþþþþþþþþþþþþþþþþ»
0003740 50E0 D000/9008_      00000 25049              NUMRANGE XPROC NUMRWA
 USING  *,R7
 USING  NUMRWA-(4+36),R8
 00375A D713 8028 8028 00000 00000 25100                       CLEAR NUMRWA
 003760 9003 802C            00004 25107                       STM   R0,R3,NUMRFRST      Save number parameters
                                   25108                       ¿þþþþþþþþþþþþþþþþþþþþþþþþþþþþþþþþþþþþþþþþþþþþþþþþþþþþþþþþÜ
                                   25109                       Ÿ  Calculate the best possible delta if 0 was supplied.  Ÿ
                                   25110                       ¾þþþþþþþþþþþþþþþþþþþþþþþþþþþþþþþþþþþþþþþþþþþþþþþþþþþþþþþþ»
 003764 D603 8034 8034_0000C 0000C 25111              NUMRETRY IF    (NUMRDELT,Z),BEGIN  Calculate best delta...
 00376E 5800 802C            00004 25128  1                      L     R0,NUMRFRST         First line
 003772 5810 8030            00008 25129  1                      L     R1,NUMRLAST         Last line
 003776 58E0 7202/0DEE       0395C 25130  1                      ACALL CNTRANGE            R15 = number of lines in range
 00377C 4770 703E/900F_      03798 25134  1                      FAIL  Z,NUMRANG1,'NUMRANGE logic error.'
                                   25157  1
 003798 1B22                       25158  1                      CLEAR R2
 00379A 5830 802C            00004 25162  1                      L     R3,NUMRFRST
 00379E 5930 8038/47B0_      00010 25163  1                      IF    (NUMRSTRT,GT,R3),'L R3,NUMRSTRT'
 0037AA 5B30 8030            00008 25186  1                      S     R3,NUMRLAST
 0037AE 1333                       25187  1                      LCR   R3,R3               Distance between line range
 0037B0 5A30 C4D0            004D0 25188  1                      A     R3,CVONE            Include the last lineno
1ACT      (ACT2025) (12:40) (15MAR04) Active File Utility Routines                                                          Page   97
0Current Usings:  (*,R7) (NUMRWA-(4+36),R8) (CP,R11) (CV,R12)
0Loc    Object Code    Addr1 Addr2  Stmt Lv Lineno    Source Statement           (Hibal 5, Asmedit 3.3)  HLASM R4.0  2004/03/15 12.40
+___    ______ ____    _____ _____  ____ __ ______    ______ _________
00037B4 47B0 7066/41F0_      037C0 25189  1                      IF    NEG,'LA R15,12; B NUMREXIT'  Can't be done
 0037C0 1D2F                       25207  1                      DR    R2,R15              Calc acceptable delta
 0037C2 1213                       25208  1                      LTR   R1,R3               R1 = delta
 0037C4 4770 7076/41F0_      037D0 25209  1                      IF    Z,'LA R15,12; B NUMREXIT'  Can't be done
 0037D0 58E0 721E/0DEE       03978 25227  1                      VCALL SELDELTA            Choose good delta value
 0037D6 5010 8034            0000C 25231  1                      ST    R1,NUMRDELT         Save new delta
 0037DA 1821                       25232  1                      LR    R2,R1
 0037DC 5028 000C            0000C 25233  1                      PRETURN (R2)              Return actual delta used
 0037E0 9680 8028      00000       25235  1                      SET   NUMFCALC            It's been calculated
 0037E4                            25241                       END
                                   25245                       ¿þþþþþþþþþþþþþþþþþþþþÜ
                                   25246                       Ÿ  Do the renumber.  Ÿ
                                   25247                       ¾þþþþþþþþþþþþþþþþþþþþ»
 0037E4 9803 802C            00004 25248                       LM    R0,R3,NUMRFRST      Pick up range and parms
 0037E8 41F0 B484            00484 25249                       LA    R15,CPTEXT          Active file record group
 0037EC 58E0 7222/0DEE       0397C 25250                       VCALL NNUMBER             Re-number
                                   25254
 0037F2 59F0 7226/4770_      03980 25255                       IF    (R15,EQ,4),BEGIN    Delta too large...
 0037FA 9180 8028/47E0_00000       25272  1                      FAIL  NUMFCALC,NUMRANGE,'NUMRANGE logic error.'
 00381A D703 8034 8034 0000C 0000C 25299  1                      CLEAR NUMRDELT            Re-calculate best delta
 003820 47F0 700A            03764 25306  1                      B     NUMRETRY
 003824                            25307                       END
                                   25311
 003824 12FF/4770 7136             25312                       IF    (R15,Z),BEGIN       Number sucessful...
 00382A 5008 0004            00004 25326  1                      PRETURN (R0)              Return last lineno
                                   25328  1                  ¿þþþþþþþþþþþþþþþþþþþþþþþþþþþþþþþþþþþþþþþþþþþþþþþþþþþþþþþþþþþþþþþþþþþÜ
                                   25329  1                  Ÿ  Update our FIRST,LAST line-numbers (in case they have changed).  Ÿ
                                   25330  1                  ¾þþþþþþþþþþþþþþþþþþþþþþþþþþþþþþþþþþþþþþþþþþþþþþþþþþþþþþþþþþþþþþþþþþþ»
 00382E D703 B5A0 B5A0 005A0 005A0 25331  1                      CLEAR CPAFLNO
 003834 4120 B5A0            005A0 25338  1                      LA    R2,CPAFLNO
 003838 41F0 B484            00484 25339  1                      LA    R15,CPTEXT          Active file record group
 00383C 58E0 722A/0DEE       03984 25340  1                      VCALL XLOCLINE            Get first line-number
 003842 4780 7104/900F_      0385E 25344  1                      FAIL  NZ,NUMRFIR,'NUMRANGE logic error.'
                                   25367  1
 00385E D203 B5A4 C15C 005A4 0015C 25368  1                      MVC   CPALLNO,CVMAXLNO    Highest possible lineno
 003864 4120 B5A4            005A4 25369  1                      LA    R2,CPALLNO
 003868 41F0 B484            00484 25370  1                      LA    R15,CPTEXT          Active file record group
 00386C 58E0 722E/0DEE       03988 25371  1                      VCALL XLOCLAST            Get last line-number
 003872 4780 7134/900F_      0388E 25375  1                      FAIL  NZ,NUMRLST,'NUMRANGE logic error.'
                                   25398  1
 00388E 1BFF                       25399  1                      CLEAR R15                 A-ok
 003890                            25403                       END
                                   25407
 003890 18D8/9808 D004_            25408              NUMREXIT PEND  ,
 DROP   NUMRWA-(4+36),R8
 DROP   *,R7
1ACT      (ACT2025) (12:40) (15MAR04) Active File Utility Routines                                                          Page   98
0Current Usings:  (CP,R11) (CV,R12)
0Loc    Object Code    Addr1 Addr2  Stmt Lv Lineno    Source Statement           (Hibal 5, Asmedit 3.3)  HLASM R4.0  2004/03/15 12.40
+___    ______ ____    _____ _____  ____ __ ______    ______ _________
0                                  25435              ¿þþþþþþþþþþþþþþþþþþþþþþþþþþþþþþþþþþþþþþþþþþþþþþþþþþþþþþþþþþþþþþþþþþþþþÜ
                                   25436              Ÿ                                                                     Ÿ
                                   25437              Ÿ  NUMFACT -- Routine to re-number range of lines in the              Ÿ
                                   25438              Ÿ    Active file by multiplying/adding a factor to the existing       Ÿ
                                   25439              Ÿ    line-numbers.                                                    Ÿ
                                   25440              Ÿ                                                                     Ÿ
                                   25441              Ÿ    On entry:                                                        Ÿ
                                   25442              Ÿ       R0 - start of range                                           Ÿ
                                   25443              Ÿ       R1 - end of range                                             Ÿ
                                   25444              Ÿ       R2 - signed addition factor                                   Ÿ
                                   25445              Ÿ       R3 - multiplication factor (-1 if none)                       Ÿ
                                   25446              Ÿ                                                                     Ÿ
                                   25447              Ÿ    On Exit:                                                         Ÿ
                                   25448              Ÿ       R0 - last line-number in re-numbered range (if CC=zero)       Ÿ
                                   25449              Ÿ      R15 - CC=zero, success                                         Ÿ
                                   25450              Ÿ            RC=4  - bad PLUS/TIMES                                   Ÿ
                                   25451              Ÿ            RC=8  - no lines found                                   Ÿ
                                   25452              Ÿ            RC=12 - bad range                                        Ÿ
                                   25453              Ÿ            RC=16 - rounding error (number times)                    Ÿ
                                   25454              Ÿ                                                                     Ÿ
                                   25455              Ÿ                                                                     Ÿ
                                                      ¾þþþþþþþþþþþþþþþþþþþþþþþþþþþþþþþþþþþþþþþþþþþþþþþþþþþþþþþþþþþþþþþþþþþþþ»
000389E 50E0 D000/9008_      00000 25456              NUMFACT  XPROC ,
 USING  *,R7
 0038B8 41F0 B484            00484 25496                       LA    R15,CPTEXT          Active file record group
 0038BC 58E0 70D4/0DEE       0398C 25497                       VCALL NNUMFACT            Re-number
 0038C2 12FF/4780 7018_            25501                       IF    ((R15,Z),OR,(R15,EQ,16)),BEGIN  Number successful...
 0038D0 5008 0004            00004 25531  1                      PRETURN (R0)              Return last lineno
                                   25533  1                  ¿þþþþþþþþþþþþþþþþþþþþþþþþþþþþþþþþþþþþþþþþþþþþþþþþþþþþþþþþþþþþþþþþþþþÜ
                                   25534  1                  Ÿ  Update our FIRST,LAST line-numbers (in case they have changed).  Ÿ
                                   25535  1                  ¾þþþþþþþþþþþþþþþþþþþþþþþþþþþþþþþþþþþþþþþþþþþþþþþþþþþþþþþþþþþþþþþþþþþ»
 0038D4 D703 B5A0 B5A0 005A0 005A0 25536  1                      CLEAR CPAFLNO
 0038DA 4120 B5A0            005A0 25543  1                      LA    R2,CPAFLNO
 0038DE 41F0 B484            00484 25544  1                      LA    R15,CPTEXT          Active file record group
 0038E2 58E0 70CC/0DEE       03984 25545  1                      VCALL XLOCLINE            Get first line-number
 0038E8 4780 704C/900F_      03904 25549  1                      FAIL  NZ,NUMRFIR,'NUMRANGE logic error.'
                                   25572  1
 003904 D203 B5A4 C15C 005A4 0015C 25573  1                      MVC   CPALLNO,CVMAXLNO    Highest possible lineno
 00390A 4120 B5A4            005A4 25574  1                      LA    R2,CPALLNO
 00390E 41F0 B484            00484 25575  1                      LA    R15,CPTEXT          Active file record group
 003912 58E0 70D0/0DEE       03988 25576  1                      VCALL XLOCLAST            Get last line-number
 003918 4780 707C/900F_      03934 25580  1                      FAIL  NZ,NUMRLST,'NUMRANGE logic error.'
                                   25603  1
 003934 1BFF                       25604  1                      CLEAR R15                 A-ok
 003936                            25608                       END
                                   25612
 003936 18D8/9808 D004_            25613                       PEND  ,
 DROP   *,R7
                                   25633
                                   25634                       QLTORG
1ACT      (ACT2025) (12:40) (15MAR04) CHumps Get/Put Lines Interface Routines                                               Page   99
0Current Usings:  (CP,R11) (CV,R12)
0Loc    Object Code    Addr1 Addr2  Stmt Lv Lineno    Source Statement           (Hibal 5, Asmedit 3.3)  HLASM R4.0  2004/03/15 12.40
+___    ______ ____    _____ _____  ____ __ ______    ______ _________
0                                  25668              ¿þþþþþþþþþþþþþþþþþþþþþþþþþþþþþþþþþþþþþþþþþþþþþþþþþþþþþþþþþþþþþþþþþþþþþÜ
                                   25669              Ÿ                                                                     Ÿ
                                   25670              Ÿ  NOTE !!!                                                           Ÿ
                                   25671              Ÿ  The routines below provide access to the active file.              Ÿ
                                   25672              Ÿ  Routines use  a RECS-like interface, they bypass the RANGE         Ÿ
                                   25673              Ÿ  processor and do not use or set any active file range              Ÿ
                                   25674              Ÿ  variables (eg. CURRENT).  These routines present a common          Ÿ
                                   25675              Ÿ  interface for the lower level GETLINE, PUTLINE routines.           Ÿ
                                   25676              Ÿ  (written by the chump, for all chumps!)                            Ÿ
                                   25677              Ÿ                                                                     Ÿ
                                                      ¾þþþþþþþþþþþþþþþþþþþþþþþþþþþþþþþþþþþþþþþþþþþþþþþþþþþþþþþþþþþþþþþþþþþþþ»
-
                                   25679              ¿þþþþþþþþþþþþþþþþþþþþþþþþþþþþþþþþþþþþþþþþþþþþþþþþþþþþþþþþþþþþþþþþþþþþþÜ
                                   25680              Ÿ                                                                     Ÿ
                                   25681              Ÿ                                                                     Ÿ
                                   25682              Ÿ  GTLINE - Get line from ACTIVE file                                 Ÿ
                                   25683              Ÿ                                                                     Ÿ
                                   25684              Ÿ  ON ENTRY:                                                          Ÿ
                                   25685              Ÿ      @R1 - line area                                                Ÿ
                                   25686              Ÿ      @R2 - line number                                              Ÿ
                                   25687              Ÿ       R3 - active file number (zero=current)                        Ÿ
                                   25688              Ÿ                                                                     Ÿ
                                   25689              Ÿ  ON EXIT:                                                           Ÿ
                                   25690              Ÿ       R0 - line length                                              Ÿ
                                   25691              Ÿ       R1 - line location                                            Ÿ
                                   25692              Ÿ      @R2 - line number                                              Ÿ
                                   25693              Ÿ      R15 - CC=zero, got line                                        Ÿ
                                   25694              Ÿ            CC=nz, line not found                                    Ÿ
                                   25695              Ÿ                                                                     Ÿ
                                   25696              Ÿ                                                                     Ÿ
                                                      ¾þþþþþþþþþþþþþþþþþþþþþþþþþþþþþþþþþþþþþþþþþþþþþþþþþþþþþþþþþþþþþþþþþþþþþ»
00039BE 50E0 D000/9008_      00000 25697              GTLINE   XPROC ,
 USING  *,R7
 0039D8 1842                       25737                       LR    R4,R2               @R4 - line number
                                   25738
                                   25739                       COMMENT                   Get line
 0039DA 58F4 0000            00000 25740                       L     R15,0(R4)           Shuffle registers
                                   25741                       COMMENT R1-BUFFER
 0039DE 1823                       25742                       LR    R2,R3
 0039E0 58E0 71C0/0DEE       03B98 25743                       ACALL GETLINEX
 0039E6 4770 701A            039F2 25747                       IF    Z,BEGIN
 0039EA D203 4000 B73C 00000 0073C 25758  1                      MVC   0(L'CPLCNO,R4),CPLCNO
 0039F0 1BFF                       25759  1                      CLEAR R15
 0039F2                            25763                       END
 0039F2 701E/47F0 7022 039F2 039E8 25767                       ELSE  BEGIN
 0039F6 41F0 0004            00004 25778  1                      LA    R15,4
 0039FA                            25779                       END
                                   25783
 0039FA 5008 0004            00004 25784                       PRETURN (R0)
 0039FE 18D8/9808 D004_            25786                       PEND  ,
 DROP   *,R7
1ACT      (ACT2025) (12:40) (15MAR04) CHumps Get/Put Lines Interface Routines                                               Page  100
0Current Usings:  (CP,R11) (CV,R12)
0Loc    Object Code    Addr1 Addr2  Stmt Lv Lineno    Source Statement           (Hibal 5, Asmedit 3.3)  HLASM R4.0  2004/03/15 12.40
+___    ______ ____    _____ _____  ____ __ ______    ______ _________
0                                  25807              ¿þþþþþþþþþþþþþþþþþþþþþþþþþþþþþþþþþþþþþþþþþþþþþþþþþþþþþþþþþþþþþþþþþþþþþÜ
                                   25808              Ÿ                                                                     Ÿ
                                   25809              Ÿ                                                                     Ÿ
                                   25810              Ÿ  GTNEXT - Get next line from ACTIVE file                            Ÿ
                                   25811              Ÿ                                                                     Ÿ
                                   25812              Ÿ  ON ENTRY:                                                          Ÿ
                                   25813              Ÿ      @R1 - line area                                                Ÿ
                                   25814              Ÿ      @R2 - line number                                              Ÿ
                                   25815              Ÿ       R3 - active file number (zero=current)                        Ÿ
                                   25816              Ÿ                                                                     Ÿ
                                   25817              Ÿ  ON EXIT:                                                           Ÿ
                                   25818              Ÿ       R0 - line length                                              Ÿ
                                   25819              Ÿ       R1 - line location                                            Ÿ
                                   25820              Ÿ      @R2 - line number                                              Ÿ
                                   25821              Ÿ      R15 - CC=zero, got line                                        Ÿ
                                   25822              Ÿ            CC=nz, line not found                                    Ÿ
                                   25823              Ÿ                                                                     Ÿ
                                   25824              Ÿ                                                                     Ÿ
                                                      ¾þþþþþþþþþþþþþþþþþþþþþþþþþþþþþþþþþþþþþþþþþþþþþþþþþþþþþþþþþþþþþþþþþþþþþ»
0003A0C 50E0 D000/9008_      00000 25825              GTNEXT   XPROC ,
 USING  *,R7
 003A26 1842                       25865                       LR    R4,R2               @R4 - line number
                                   25866
                                   25867                       COMMENT                   Get line
 003A28 58F4 0000            00000 25868                       L     R15,0(R4)           Shuffle registers
 003A2C 5AF0 7176            03B9C 25869                       A     R15,=F'1'           Bump to NEXT line number
                                   25870              *        VCALL ADDER               *** Poor mans ADDER above
                                   25871                       COMMENT R1-BUFFER
 003A30 1823                       25872                       LR    R2,R3
 003A32 58E0 7172/0DEE       03B98 25873                       ACALL GETLINEX
 003A38 4740 701E            03A44 25877                       IF    NL,BEGIN
 003A3C D203 4000 B73C 00000 0073C 25888  1                      MVC   0(L'CPLCNO,R4),CPLCNO
 003A42 1BFF                       25889  1                      CLEAR R15
 003A44                            25893                       END
 003A44 7022/47F0 7026 03A44 03A3A 25897                       ELSE  BEGIN
 003A48 41F0 0004            00004 25908  1                      LA    R15,4
 003A4C                            25909                       END
                                   25913
 003A4C 5008 0004            00004 25914                       PRETURN (R0)
 003A50 18D8/9808 D004_            25916                       PEND  ,
 DROP   *,R7
1ACT      (ACT2025) (12:40) (15MAR04) CHumps Get/Put Lines Interface Routines                                               Page  101
0Current Usings:  (CP,R11) (CV,R12)
0Loc    Object Code    Addr1 Addr2  Stmt Lv Lineno    Source Statement           (Hibal 5, Asmedit 3.3)  HLASM R4.0  2004/03/15 12.40
+___    ______ ____    _____ _____  ____ __ ______    ______ _________
0                                  25937              ¿þþþþþþþþþþþþþþþþþþþþþþþþþþþþþþþþþþþþþþþþþþþþþþþþþþþþþþþþþþþþþþþþþþþþþÜ
                                   25938              Ÿ                                                                     Ÿ
                                   25939              Ÿ                                                                     Ÿ
                                   25940              Ÿ  GTPREV - Get previous line from ACTIVE file                        Ÿ
                                   25941              Ÿ                                                                     Ÿ
                                   25942              Ÿ  ON ENTRY:                                                          Ÿ
                                   25943              Ÿ      @R1 - line area                                                Ÿ
                                   25944              Ÿ      @R2 - line number                                              Ÿ
                                   25945              Ÿ       R3 - active file number (zero=current)                        Ÿ
                                   25946              Ÿ                                                                     Ÿ
                                   25947              Ÿ  ON EXIT:                                                           Ÿ
                                   25948              Ÿ       R0 - line length                                              Ÿ
                                   25949              Ÿ       R1 - line location                                            Ÿ
                                   25950              Ÿ      @R2 - line number                                              Ÿ
                                   25951              Ÿ      R15 - CC=zero, got line                                        Ÿ
                                   25952              Ÿ            CC=nz, line not found                                    Ÿ
                                   25953              Ÿ                                                                     Ÿ
                                   25954              Ÿ                                                                     Ÿ
                                                      ¾þþþþþþþþþþþþþþþþþþþþþþþþþþþþþþþþþþþþþþþþþþþþþþþþþþþþþþþþþþþþþþþþþþþþþ»
0003A5E 50E0 D000/9008_      00000 25955              GTPREV   XPROC ,
 USING  *,R7
 003A78 1842                       25995                       LR    R4,R2               @R4 - line number
                                   25996
                                   25997                       COMMENT                   Get active file specified
 003A7A 1233/4780 701E             25998                       IF    (R3,NZ),BEGIN
 003A80 18F3                       26012  1                      LR    R15,R3
 003A82 58E0 7128/0DEE       03BA0 26013  1                      ACALL ACTPICK
 003A88 4770 701C            03A94 26017  1                      IF    Z,BEGIN             If active doesn't exist,
 003A8C 41F0 0004            00004 26028  2                        LA    R15,4               line not found
 003A90 47F0 707E            03AF6 26029  2                        B     PREVDONE
 003A94                            26030  1                      END
 003A94 183F                       26034  1                      LR    R3,R15              R3 - former active file
 003A96                            26035                       END
                                   26039
                                   26040                       COMMENT                   Get previous line no
 003A96 D203 B73C 4000 0073C 00000 26041                       MVC   CPLCNO,0(R4)
 003A9C 58E0 712C/0DEE       03BA4 26042                       ACALL PREVLNO
                                   26046
                                   26047                       COMMENT                   If previous line, get it
 003AA2 4770 7052            03ACA 26048                       IF    Z,BEGIN
 003AA6 D203 4000 B73C 00000 0073C 26059  1                      MVC   0(L'CPLCNO,R4),CPLCNO
 003AAC 58F4 0000            00000 26060  1                      L     R15,0(R4)
                                   26061  1                      COMMENT R1-BUFFER
 003AB0 58E0 7130/0DEE       03BA8 26062  1                      ACALL GETLINE
 003AB6 4770 704A            03AC2 26066  1                      IF    Z,BEGIN
 003ABA D203 4000 B73C 00000 0073C 26077  2                        MVC   0(L'CPLCNO,R4),CPLCNO
 003AC0 1BFF                       26078  2                        CLEAR R15
 003AC2                            26082  1                      END
 003AC2 704E/47F0 7052 03AC2 03AB8 26086  1                      ELSE  BEGIN
 003AC6 41F0 0004            00004 26097  2                        LA    R15,4
 003ACA                            26098  1                      END
 003ACA                            26102                       END
                                   26106
1ACT      (ACT2025) (12:40) (15MAR04) CHumps Get/Put Lines Interface Routines                                               Page  102
0Current Usings:  (*,R7) (CP,R11) (CV,R12)
0Loc    Object Code    Addr1 Addr2  Stmt Lv Lineno    Source Statement           (Hibal 5, Asmedit 3.3)  HLASM R4.0  2004/03/15 12.40
+___    ______ ____    _____ _____  ____ __ ______    ______ _________
0                                  26107                       COMMENT                   If no previous line, return nz cc
 003ACA 7056/47F0 705A 03ACA 03AA4 26108                       ELSE  BEGIN
 003ACE 41F0 0004            00004 26119  1                      LA    R15,4
 003AD2                            26120                       END
                                   26124
                                   26125                       COMMENT                   Reset Active file, if need be
 003AD2 1233/4780 707E             26126                       IF    (R3,NZ),BEGIN
 003AD8 50F0 D000/41D0_      00000 26140  1                      XPUSH R15
 003AE0 18F3                       26143  1                      LR    R15,R3
 003AE2 58E0 7134/0DEE       03BAC 26144  1                      VCALL ACTPICK
 003AE8 4770 7076            03AEE 26148  1                      IF    Z,BEGIN             If we can't restore it
 003AEC 0000                       26159  2                        BOMB
 003AEE                            26161  1                      END
 003AEE 4BD0 7140/58F0_      03BB8 26165  1                      XPOP  R15
 003AF6                            26168                       END
                                   26172
 003AF6                            26173              PREVDONE LABEL ,
 003AF6 5008 0004            00004 26175                       PRETURN (R0)
 003AFA 18D8/9808 D004_            26177                       PEND  ,
 DROP   *,R7
1ACT      (ACT2025) (12:40) (15MAR04) CHumps Get/Put Lines Interface Routines                                               Page  103
0Current Usings:  (CP,R11) (CV,R12)
0Loc    Object Code    Addr1 Addr2  Stmt Lv Lineno    Source Statement           (Hibal 5, Asmedit 3.3)  HLASM R4.0  2004/03/15 12.40
+___    ______ ____    _____ _____  ____ __ ______    ______ _________
0                                  26198              ¿þþþþþþþþþþþþþþþþþþþþþþþþþþþþþþþþþþþþþþþþþþþþþþþþþþþþþþþþþþþþþþþþþþþþþÜ
                                   26199              Ÿ                                                                     Ÿ
                                   26200              Ÿ                                                                     Ÿ
                                   26201              Ÿ  GTFRST - Get first line from ACTIVE file                           Ÿ
                                   26202              Ÿ                                                                     Ÿ
                                   26203              Ÿ  ON ENTRY:                                                          Ÿ
                                   26204              Ÿ      @R1 - line area                                                Ÿ
                                   26205              Ÿ      @R2 - line number                                              Ÿ
                                   26206              Ÿ       R3 - active file number (zero=current)                        Ÿ
                                   26207              Ÿ                                                                     Ÿ
                                   26208              Ÿ  ON EXIT:                                                           Ÿ
                                   26209              Ÿ       R0 - line length                                              Ÿ
                                   26210              Ÿ       R1 - line location                                            Ÿ
                                   26211              Ÿ      @R2 - line number                                              Ÿ
                                   26212              Ÿ      R15 - CC=zero, got line                                        Ÿ
                                   26213              Ÿ            CC=nz, line not found                                    Ÿ
                                   26214              Ÿ                                                                     Ÿ
                                   26215              Ÿ                                                                     Ÿ
                                                      ¾þþþþþþþþþþþþþþþþþþþþþþþþþþþþþþþþþþþþþþþþþþþþþþþþþþþþþþþþþþþþþþþþþþþþþ»
0003B08 50E0 D000/9008_      00000 26216              GTFRST   XPROC ,
 USING  *,R7
 003B22 1842                       26256                       LR    R4,R2               @R4 - line number
                                   26257
                                   26258                       COMMENT                   Get line
 003B24 58F4 0000            00000 26259                       L     R15,0(R4)           Shuffle registers
                                   26260                       COMMENT R1-BUFFER
 003B28 1823                       26261                       LR    R2,R3
 003B2A 58E0 7076/0DEE       03B98 26262                       ACALL GETLINEX
 003B30 4740 701A            03B3C 26266                       IF    NL,BEGIN
 003B34 D203 4000 B73C 00000 0073C 26277  1                      MVC   0(L'CPLCNO,R4),CPLCNO
 003B3A 1BFF                       26278  1                      CLEAR R15
 003B3C                            26282                       END
 003B3C 701E/47F0 7022 03B3C 03B32 26286                       ELSE  BEGIN
 003B40 41F0 0004            00004 26297  1                      LA    R15,4
 003B44                            26298                       END
                                   26302
 003B44 5008 0004            00004 26303                       PRETURN (R0)
 003B48 18D8/9808 D004_            26305                       PEND  ,
 DROP   *,R7
1ACT      (ACT2025) (12:40) (15MAR04) CHumps Get/Put Lines Interface Routines                                               Page  104
0Current Usings:  (CP,R11) (CV,R12)
0Loc    Object Code    Addr1 Addr2  Stmt Lv Lineno    Source Statement           (Hibal 5, Asmedit 3.3)  HLASM R4.0  2004/03/15 12.40
+___    ______ ____    _____ _____  ____ __ ______    ______ _________
0                                  26326              ¿þþþþþþþþþþþþþþþþþþþþþþþþþþþþþþþþþþþþþþþþþþþþþþþþþþþþþþþþþþþþþþþþþþþþþÜ
                                   26327              Ÿ                                                                     Ÿ
                                   26328              Ÿ                                                                     Ÿ
                                   26329              Ÿ  GTLAST - Get next line from ACTIVE file                            Ÿ
                                   26330              Ÿ                                                                     Ÿ
                                   26331              Ÿ  ON ENTRY:                                                          Ÿ
                                   26332              Ÿ      @R1 - line area                                                Ÿ
                                   26333              Ÿ      @R2 - line number                                              Ÿ
                                   26334              Ÿ       R3 - active file number (zero=current)                        Ÿ
                                   26335              Ÿ                                                                     Ÿ
                                   26336              Ÿ  ON EXIT:                                                           Ÿ
                                   26337              Ÿ       R0 - line length                                              Ÿ
                                   26338              Ÿ       R1 - line location                                            Ÿ
                                   26339              Ÿ      @R2 - line number                                              Ÿ
                                   26340              Ÿ      R15 - CC=zero, got line                                        Ÿ
                                   26341              Ÿ            CC=nz, line not found                                    Ÿ
                                   26342              Ÿ                                                                     Ÿ
                                   26343              Ÿ                                                                     Ÿ
                                                      ¾þþþþþþþþþþþþþþþþþþþþþþþþþþþþþþþþþþþþþþþþþþþþþþþþþþþþþþþþþþþþþþþþþþþþþ»
0003B56 50E0 D000/9008_      00000 26344              GTLAST   XPROC ,
 USING  *,R7
                                   26384
                                   26385                       COMMENT                   Get line
 003B70 58E0 7040/0DEE       03BB0 26386                       ACALL GTLINE
 003B76 4780 7010            03B80 26390                       IF    NZ,BEGIN
 003B7A 58E0 7044/0DEE       03BB4 26401  1                      ACALL GTPREV
 003B80                            26405                       END
                                   26409
 003B80 5008 0004            00004 26410                       PRETURN (R0)
 003B84 18D8/9808 D004_            26412                       PEND  ,
 DROP   *,R7
                                   26432
                                   26433                       QLTORG
1ACT      (ACT2025) (12:40) (15MAR04) CHumps Get/Put Lines Interface Routines                                               Page  105
0Current Usings:  (CP,R11) (CV,R12)
0Loc    Object Code    Addr1 Addr2  Stmt Lv Lineno    Source Statement           (Hibal 5, Asmedit 3.3)  HLASM R4.0  2004/03/15 12.40
+___    ______ ____    _____ _____  ____ __ ______    ______ _________
0                                  26455              ¿þþþþþþþþþþþþþþþþþþþþþþþþþþþþþþþþþþþþþþþþþþþþþþþþþþþþþþþþþþþþþþþþþþþþþÜ
                                   26456              Ÿ                                                                     Ÿ
                                   26457              Ÿ                                                                     Ÿ
                                   26458              Ÿ  CHECKLN - Check line number                                        Ÿ
                                   26459              Ÿ                                                                     Ÿ
                                   26460              Ÿ  ON ENTRY:                                                          Ÿ
                                   26461              Ÿ       R0 - line number                                              Ÿ
                                   26462              Ÿ       R1 - active file number (zero=current)                        Ÿ
                                   26463              Ÿ                                                                     Ÿ
                                   26464              Ÿ  ON EXIT:                                                           Ÿ
                                   26465              Ÿ      R15 - CC=Zero, line exists                                     Ÿ
                                   26466              Ÿ            CC=NZ, line not found                                    Ÿ
                                   26467              Ÿ                                                                     Ÿ
                                   26468              Ÿ                                                                     Ÿ
                                   26469              Ÿ                                                                     Ÿ
                                                      ¾þþþþþþþþþþþþþþþþþþþþþþþþþþþþþþþþþþþþþþþþþþþþþþþþþþþþþþþþþþþþþþþþþþþþþ»
0000000                00000 000EF 26470              GTLNWA   RECORD BEGIN
 000000                            26478  1           GTLNLNO    DS    F                   Line number
                                   26479  1           GTLNTEXT   DS    CL(&LINESZ)         Line text buffer
 000004                                   1          +GTLNTEXT   DS    CL(235)             Line text buffer
 0000EF                000EF 000EF 26480                       END
                                   26489              *
                                   26490              *
 003BBA 50E0 D000/9008_      00000 26491              CHECKLN  XPROC GTLNWA
 USING  *,R7
 USING  GTLNWA-(4+36),R8
 003BD4 1831                       26542                       LR    R3,R1               R3 - active file number
 003BD6 5000 8028            00000 26543                       ST    R0,GTLNLNO          Save line number
                                   26544
                                   26545                       COMMENT
 003BDA 4110 802C            00004 26546                       LA    R1,GTLNTEXT
 003BDE 4120 8028            00000 26547                       LA    R2,GTLNLNO
                                   26548                       COMMENT R3 - ACTNO
 003BE2 58E0 74C4/0DEE       04098 26549                       ACALL GTLINE
                                   26553
 003BE8 18D8/9808 D004_            26554                       PEND  ,
 DROP   GTLNWA-(4+36),R8
 DROP   *,R7
1ACT      (ACT2025) (12:40) (15MAR04) CHumps Get/Put Lines Interface Routines                                               Page  106
0Current Usings:  (CP,R11) (CV,R12)
0Loc    Object Code    Addr1 Addr2  Stmt Lv Lineno    Source Statement           (Hibal 5, Asmedit 3.3)  HLASM R4.0  2004/03/15 12.40
+___    ______ ____    _____ _____  ____ __ ______    ______ _________
0                                  26580              ¿þþþþþþþþþþþþþþþþþþþþþþþþþþþþþþþþþþþþþþþþþþþþþþþþþþþþþþþþþþþþþþþþþþþþþÜ
                                   26581              Ÿ                                                                     Ÿ
                                   26582              Ÿ                                                                     Ÿ
                                   26583              Ÿ  GTNEXTLN - get next line number                                    Ÿ
                                   26584              Ÿ                                                                     Ÿ
                                   26585              Ÿ  ON ENTRY:                                                          Ÿ
                                   26586              Ÿ       R0 - line number                                              Ÿ
                                   26587              Ÿ       R1 - active file number (zero=current)                        Ÿ
                                   26588              Ÿ                                                                     Ÿ
                                   26589              Ÿ  ON EXIT:                                                           Ÿ
                                   26590              Ÿ       R0 - Next line number  (r15=0)                                Ÿ
                                   26591              Ÿ      R15 - CC=Zero, line exists                                     Ÿ
                                   26592              Ÿ            CC=NZ, line not found                                    Ÿ
                                   26593              Ÿ                                                                     Ÿ
                                   26594              Ÿ                                                                     Ÿ
                                   26595              Ÿ                                                                     Ÿ
                                                      ¾þþþþþþþþþþþþþþþþþþþþþþþþþþþþþþþþþþþþþþþþþþþþþþþþþþþþþþþþþþþþþþþþþþþþþ»
0003BF6 50E0 D000/9008_      00000 26596              GTNEXTLN XPROC GTLNWA
 USING  *,R7
 USING  GTLNWA-(4+36),R8
 003C10 1831                       26647                       LR    R3,R1               R3 - active file number
 003C12 5000 8028            00000 26648                       ST    R0,GTLNLNO          Save line number
                                   26649
                                   26650                       COMMENT
 003C16 4110 802C            00004 26651                       LA    R1,GTLNTEXT
 003C1A 4120 8028            00000 26652                       LA    R2,GTLNLNO
                                   26653                       COMMENT R3 - ACTNO
 003C1E 58E0 748C/0DEE       0409C 26654                       ACALL GTNEXT
 003C24 4770 7020            03C30 26658                       IF    Z,BEGIN
 003C28 5800 8028            00000 26669  1                      L     R0,GTLNLNO
 003C2C 5008 0004            00004 26670  1                      PRETURN (R0)
 003C30                            26672                       END
                                   26676
 003C30 18D8/9808 D004_            26677                       PEND  ,
 DROP   GTLNWA-(4+36),R8
 DROP   *,R7
1ACT      (ACT2025) (12:40) (15MAR04) CHumps Get/Put Lines Interface Routines                                               Page  107
0Current Usings:  (CP,R11) (CV,R12)
0Loc    Object Code    Addr1 Addr2  Stmt Lv Lineno    Source Statement           (Hibal 5, Asmedit 3.3)  HLASM R4.0  2004/03/15 12.40
+___    ______ ____    _____ _____  ____ __ ______    ______ _________
0                                  26703              ¿þþþþþþþþþþþþþþþþþþþþþþþþþþþþþþþþþþþþþþþþþþþþþþþþþþþþþþþþþþþþþþþþþþþþþÜ
                                   26704              Ÿ                                                                     Ÿ
                                   26705              Ÿ                                                                     Ÿ
                                   26706              Ÿ  GTPREVLN - get prev line number                                    Ÿ
                                   26707              Ÿ                                                                     Ÿ
                                   26708              Ÿ  ON ENTRY:                                                          Ÿ
                                   26709              Ÿ       R0 - line number                                              Ÿ
                                   26710              Ÿ       R1 - active file number (zero=current)                        Ÿ
                                   26711              Ÿ                                                                     Ÿ
                                   26712              Ÿ  ON EXIT:                                                           Ÿ
                                   26713              Ÿ       R0 - Prev line number  (r15=0)                                Ÿ
                                   26714              Ÿ      R15 - CC=Zero, line exists                                     Ÿ
                                   26715              Ÿ            CC=NZ, line not found                                    Ÿ
                                   26716              Ÿ                                                                     Ÿ
                                   26717              Ÿ                                                                     Ÿ
                                   26718              Ÿ                                                                     Ÿ
                                                      ¾þþþþþþþþþþþþþþþþþþþþþþþþþþþþþþþþþþþþþþþþþþþþþþþþþþþþþþþþþþþþþþþþþþþþþ»
0003C3E 50E0 D000/9008_      00000 26719              GTPREVLN XPROC GTLNWA
 USING  *,R7
 USING  GTLNWA-(4+36),R8
 003C58 1831                       26770                       LR    R3,R1               R3 - active file number
 003C5A 5000 8028            00000 26771                       ST    R0,GTLNLNO          Save line number
                                   26772
                                   26773                       COMMENT
 003C5E 4110 802C            00004 26774                       LA    R1,GTLNTEXT
 003C62 4120 8028            00000 26775                       LA    R2,GTLNLNO
                                   26776                       COMMENT R3 - ACTNO
 003C66 58E0 7448/0DEE       040A0 26777                       ACALL GTPREV
 003C6C 4770 7020            03C78 26781                       IF    Z,BEGIN
 003C70 5800 8028            00000 26792  1                      L     R0,GTLNLNO
 003C74 5008 0004            00004 26793  1                      PRETURN (R0)
 003C78                            26795                       END
                                   26799
 003C78 18D8/9808 D004_            26800                       PEND  ,
 DROP   GTLNWA-(4+36),R8
 DROP   *,R7
1ACT      (ACT2025) (12:40) (15MAR04) CHumps Get/Put Lines Interface Routines                                               Page  108
0Current Usings:  (CP,R11) (CV,R12)
0Loc    Object Code    Addr1 Addr2  Stmt Lv Lineno    Source Statement           (Hibal 5, Asmedit 3.3)  HLASM R4.0  2004/03/15 12.40
+___    ______ ____    _____ _____  ____ __ ______    ______ _________
0                                  26826              ¿þþþþþþþþþþþþþþþþþþþþþþþþþþþþþþþþþþþþþþþþþþþþþþþþþþþþþþþþþþþþþþþþþþþþþÜ
                                   26827              Ÿ                                                                     Ÿ
                                   26828              Ÿ                                                                     Ÿ
                                   26829              Ÿ  GTFRSTLN - get first line number in range                          Ÿ
                                   26830              Ÿ                                                                     Ÿ
                                   26831              Ÿ  ON ENTRY:                                                          Ÿ
                                   26832              Ÿ       R0 - line number (start of range)                             Ÿ
                                   26833              Ÿ       R1 - active file number (zero=current)                        Ÿ
                                   26834              Ÿ                                                                     Ÿ
                                   26835              Ÿ  ON EXIT:                                                           Ÿ
                                   26836              Ÿ       R0 - First line number  (r15=0)                               Ÿ
                                   26837              Ÿ      R15 - CC=Zero, line exists                                     Ÿ
                                   26838              Ÿ            CC=NZ, line not found                                    Ÿ
                                   26839              Ÿ                                                                     Ÿ
                                   26840              Ÿ                                                                     Ÿ
                                   26841              Ÿ                                                                     Ÿ
                                                      ¾þþþþþþþþþþþþþþþþþþþþþþþþþþþþþþþþþþþþþþþþþþþþþþþþþþþþþþþþþþþþþþþþþþþþþ»
0003C86 50E0 D000/9008_      00000 26842              GTFRSTLN XPROC GTLNWA
 USING  *,R7
 USING  GTLNWA-(4+36),R8
 003CA0 1831                       26893                       LR    R3,R1               R3 - active file number
 003CA2 5000 8028            00000 26894                       ST    R0,GTLNLNO          Save line number
                                   26895
                                   26896                       COMMENT
 003CA6 4110 802C            00004 26897                       LA    R1,GTLNTEXT
 003CAA 4120 8028            00000 26898                       LA    R2,GTLNLNO
                                   26899                       COMMENT R3 - ACTNO
 003CAE 58E0 7404/0DEE       040A4 26900                       ACALL GTFRST
 003CB4 4770 7020            03CC0 26904                       IF    Z,BEGIN
 003CB8 5800 8028            00000 26915  1                      L     R0,GTLNLNO
 003CBC 5008 0004            00004 26916  1                      PRETURN (R0)
 003CC0                            26918                       END
                                   26922
 003CC0 18D8/9808 D004_            26923                       PEND  ,
 DROP   GTLNWA-(4+36),R8
 DROP   *,R7
1ACT      (ACT2025) (12:40) (15MAR04) CHumps Get/Put Lines Interface Routines                                               Page  109
0Current Usings:  (CP,R11) (CV,R12)
0Loc    Object Code    Addr1 Addr2  Stmt Lv Lineno    Source Statement           (Hibal 5, Asmedit 3.3)  HLASM R4.0  2004/03/15 12.40
+___    ______ ____    _____ _____  ____ __ ______    ______ _________
0                                  26949              ¿þþþþþþþþþþþþþþþþþþþþþþþþþþþþþþþþþþþþþþþþþþþþþþþþþþþþþþþþþþþþþþþþþþþþþÜ
                                   26950              Ÿ                                                                     Ÿ
                                   26951              Ÿ                                                                     Ÿ
                                   26952              Ÿ  GTLASTLN - get last line number in range                           Ÿ
                                   26953              Ÿ                                                                     Ÿ
                                   26954              Ÿ  ON ENTRY:                                                          Ÿ
                                   26955              Ÿ       R0 - line number (end of range)                               Ÿ
                                   26956              Ÿ       R1 - active file number (zero=current)                        Ÿ
                                   26957              Ÿ                                                                     Ÿ
                                   26958              Ÿ  ON EXIT:                                                           Ÿ
                                   26959              Ÿ       R0 - Last line number  (r15=0)                                Ÿ
                                   26960              Ÿ      R15 - CC=Zero, line exists                                     Ÿ
                                   26961              Ÿ            CC=NZ, line not found                                    Ÿ
                                   26962              Ÿ                                                                     Ÿ
                                   26963              Ÿ                                                                     Ÿ
                                   26964              Ÿ                                                                     Ÿ
                                                      ¾þþþþþþþþþþþþþþþþþþþþþþþþþþþþþþþþþþþþþþþþþþþþþþþþþþþþþþþþþþþþþþþþþþþþþ»
0003CCE 50E0 D000/9008_      00000 26965              GTLASTLN XPROC GTLNWA
 USING  *,R7
 USING  GTLNWA-(4+36),R8
 003CE8 1831                       27016                       LR    R3,R1               R3 - active file number
 003CEA 5000 8028            00000 27017                       ST    R0,GTLNLNO          Save line number
                                   27018
                                   27019                       COMMENT
 003CEE 4110 802C            00004 27020                       LA    R1,GTLNTEXT
 003CF2 4120 8028            00000 27021                       LA    R2,GTLNLNO
                                   27022                       COMMENT R3 - ACTNO
 003CF6 58E0 73C0/0DEE       040A8 27023                       ACALL GTLAST
 003CFC 4770 7020            03D08 27027                       IF    Z,BEGIN
 003D00 5800 8028            00000 27038  1                      L     R0,GTLNLNO
 003D04 5008 0004            00004 27039  1                      PRETURN (R0)
 003D08                            27041                       END
                                   27045
 003D08 18D8/9808 D004_            27046                       PEND  ,
 DROP   GTLNWA-(4+36),R8
 DROP   *,R7
1ACT      (ACT2025) (12:40) (15MAR04) CHumps Get/Put Lines Interface Routines                                               Page  110
0Current Usings:  (CP,R11) (CV,R12)
0Loc    Object Code    Addr1 Addr2  Stmt Lv Lineno    Source Statement           (Hibal 5, Asmedit 3.3)  HLASM R4.0  2004/03/15 12.40
+___    ______ ____    _____ _____  ____ __ ______    ______ _________
0                                  27072              ¿þþþþþþþþþþþþþþþþþþþþþþþþþþþþþþþþþþþþþþþþþþþþþþþþþþþþþþþþþþþþþþþþþþþþþÜ
                                   27073              Ÿ                                                                     Ÿ
                                   27074              Ÿ                                                                     Ÿ
                                   27075              Ÿ  GTENDLN - Get END line number for specified active file            Ÿ
                                   27076              Ÿ                                                                     Ÿ
                                   27077              Ÿ  ON ENTRY:                                                          Ÿ
                                   27078              Ÿ       R0 - not used                                                 Ÿ
                                   27079              Ÿ       R1 - active file number (zero=current)                        Ÿ
                                   27080              Ÿ                                                                     Ÿ
                                   27081              Ÿ  ON EXIT:                                                           Ÿ
                                   27082              Ÿ       R0 - end line number (r15=0)                                  Ÿ
                                   27083              Ÿ      R15 - CC=Zero, line exists                                     Ÿ
                                   27084              Ÿ            CC=NZ, error, error msg tseg'd                           Ÿ
                                   27085              Ÿ                                                                     Ÿ
                                   27086              Ÿ                                                                     Ÿ
                                                      ¾þþþþþþþþþþþþþþþþþþþþþþþþþþþþþþþþþþþþþþþþþþþþþþþþþþþþþþþþþþþþþþþþþþþþþ»
0003D16 50E0 D000/9008_      00000 27087              GTENDLN  XPROC ,
 USING  *,R7
                                   27127
 003D30 1831                       27128                       LR    R3,R1               R3 - active file number
                                   27129
                                   27130                       COMMENT                   If current active file,
 003D32 1233/4770 702C             27131                       IF    (R3,Z),BEGIN
 003D38 58E0 737C/0DEE       040AC 27145  1                      ACALL ENDLNO
 003D3E 4780 702C            03D5C 27149  1                      IF    NZ,BEGIN
 003D42 4110 73E6/4100_      04116 27160  2                        TSEG  'Invalid line number (too large)'
 003D54 5800 7384            040B4 27178  2                        L     R0,=F'-1000'
 003D58 41F0 0004            00004 27179  2                        LA    R15,4
 003D5C                            27180  1                      END
 003D5C                            27184                       END
                                   27188
                                   27189                       COMMENT                   If different active file
 003D5C 1233/4780 70A0             27190                       IF    (R3,NZ),BEGIN
                                   27204  1
                                   27205  1                      COMMENT                   Switch to new active file
 003D62 18F3                       27206  1                      LR    R15,R3
 003D64 58E0 7388/0DEE       040B8 27207  1                      ACALL ACTPICK
 003D6A 4770 7058            03D88 27211  1                      IF    Z,BEGIN
 003D6E 4110 7398/4100_      040C8 27222  2                        TSEG  'Specified active file does not exist. '
 003D80 5800 7384            040B4 27240  2                        L     R0,=F'-1000'
 003D84 41F0 0004            00004 27241  2                        LA    R15,4
 003D88                            27242  1                      END
 003D88 705C/47F0 70A0 03D88 03D6C 27246  1                      ELSE  BEGIN               Got new active ok
 003D8C 183F                       27257  2                        LR    R3,R15
                                   27258  2
                                   27259  2                        COMMENT                   Get ending line number
 003D8E 58E0 737C/0DEE       040AC 27260  2                        ACALL ENDLNO
 003D94 4780 7082            03DB2 27264  2                        IF    NZ,BEGIN
 003D98 4110 73E6/4100_      04116 27275  3                          TSEG  'Invalid line number (too large)'
 003DAA 5800 7384            040B4 27293  3                          L     R0,=F'-1000'
 003DAE 41F0 0004            00004 27294  3                          LA    R15,4
 003DB2                            27295  2                        END
                                   27299  2
1ACT      (ACT2025) (12:40) (15MAR04) CHumps Get/Put Lines Interface Routines                                               Page  111
0Current Usings:  (*,R7) (CP,R11) (CV,R12)
0Loc    Object Code    Addr1 Addr2  Stmt Lv Lineno    Source Statement           (Hibal 5, Asmedit 3.3)  HLASM R4.0  2004/03/15 12.40
+___    ______ ____    _____ _____  ____ __ ______    ______ _________
0                                  27300  2                        COMMENT                   Restore old active file
 003DB2 90F1 D000/41D0_      00000 27301  2                        XPUSH R15,R1
 003DBA 18F3                       27304  2                        LR    R15,R3
 003DBC 58E0 7388/0DEE       040B8 27305  2                        ACALL ACTPICK
 003DC2 4770 7098            03DC8 27309  2                        IF    Z,BEGIN
 003DC6 0000                       27320  3                          BOMB
 003DC8                            27322  2                        END
 003DC8 4BD0 73BE/98F1_      040EE 27326  2                        XPOP  R15,R1
 003DD0                            27329  1                      END   , of got new act
 003DD0                            27333                       END   , of new act specified
                                   27337
 003DD0 5008 0004            00004 27338                       PRETURN (R0)
 003DD4 18D8/9808 D004_            27340                       PEND  ,
 DROP   *,R7
1ACT      (ACT2025) (12:40) (15MAR04) CHumps Get/Put Lines Interface Routines                                               Page  112
0Current Usings:  (CP,R11) (CV,R12)
0Loc    Object Code    Addr1 Addr2  Stmt Lv Lineno    Source Statement           (Hibal 5, Asmedit 3.3)  HLASM R4.0  2004/03/15 12.40
+___    ______ ____    _____ _____  ____ __ ______    ______ _________
0                                  27361              ¿þþþþþþþþþþþþþþþþþþþþþþþþþþþþþþþþþþþþþþþþþþþþþþþþþþþþþþþþþþþþþþþþþþþþþÜ
                                   27362              Ÿ                                                                     Ÿ
                                   27363              Ÿ                                                                     Ÿ
                                   27364              Ÿ  PTLINE - Put line, multiple ACTIVE interface                       Ÿ
                                   27365              Ÿ                                                                     Ÿ
                                   27366              Ÿ  ON ENTRY:                                                          Ÿ
                                   27367              Ÿ       R0 - text length                                              Ÿ
                                   27368              Ÿ       R1 - text location                                            Ÿ
                                   27369              Ÿ      @R2 - line number                                              Ÿ
                                   27370              Ÿ       R3 - active file number (zero=current)                        Ÿ
                                   27371              Ÿ                                                                     Ÿ
                                   27372              Ÿ  ON EXIT:                                                           Ÿ
                                   27373              Ÿ      R15 - CC=Zero, line put                                        Ÿ
                                   27374              Ÿ            CC=NZ, line not put, error msg tseg'd.                   Ÿ
                                   27375              Ÿ                                                                     Ÿ
                                   27376              Ÿ                                                                     Ÿ
                                   27377              Ÿ                                                                     Ÿ
                                                      ¾þþþþþþþþþþþþþþþþþþþþþþþþþþþþþþþþþþþþþþþþþþþþþþþþþþþþþþþþþþþþþþþþþþþþþ»
0003DE2 50E0 D000/9008_      00000 27378              PTLINE   XPROC ,
 USING  *,R7
                                   27418
 003DFC 1841                       27419                       LR    R4,R1               R4,R5 - text loc, len
 003DFE 1850                       27420                       LR    R5,R0
 003E00 5822 0000            00000 27421                       L     R2,0(R2)            R2 - line number
                                   27422
                                   27423                       COMMENT                   Check line number
 003E04 1222/4740 7016_            27424                       IF    ((R2,NEG),OR,(R2,GT,CVMAXLNO)),BEGIN
 003E12 4110 7339/4100_      04135 27454  1                      TSEG  'Invalid line number (negative or too large)'
 003E24 41F0 0004            00004 27472  1                      LA    R15,4
 003E28 47F0 7080            03E7C 27473  1                      B     PTLNDONE
 003E2C                            27474                       END
                                   27478
                                   27479                       COMMENT                   Switch to new active,,
 003E2C 1233/4780 705E             27480                       IF    (R3,NZ),BEGIN
 003E32 18F3                       27494  1                      LR    R15,R3
 003E34 58E0 72BC/0DEE       040B8 27495  1                      ACALL ACTPICK
 003E3A 4770 705C            03E58 27499  1                      IF    Z,BEGIN
 003E3E 4110 72F4/4100_      040F0 27510  2                        TSEG  'Active file specified does not exist. '
 003E50 41F0 0004            00004 27528  2                        LA    R15,4
 003E54 47F0 7080            03E7C 27529  2                        B     PTLNDONE
 003E58                            27530  1                      END
 003E58 183F                       27534  1                      LR    R3,R15
 003E5A                            27535                       END
                                   27539
                                   27540                       COMMENT                   Put text
 003E5A 18F2                       27541                       LR    R15,R2
 003E5C 1805                       27542                       LR    R0,R5
 003E5E 1814                       27543                       LR    R1,R4
 003E60 58E0 72C0/0DEE       040BC 27544                       ACALL PUTLINE
                                   27548
                                   27549                       COMMENT                   Restore old active
 003E66 1233/4780 707E             27550                       IF    (R3,NZ),BEGIN
 003E6C 18F3                       27564  1                      LR    R15,R3
1ACT      (ACT2025) (12:40) (15MAR04) CHumps Get/Put Lines Interface Routines                                               Page  113
0Current Usings:  (*,R7) (CP,R11) (CV,R12)
0Loc    Object Code    Addr1 Addr2  Stmt Lv Lineno    Source Statement           (Hibal 5, Asmedit 3.3)  HLASM R4.0  2004/03/15 12.40
+___    ______ ____    _____ _____  ____ __ ______    ______ _________
0003E6E 58E0 72BC/0DEE       040B8 27565  1                      ACALL ACTPICK
 003E74 4770 707E            03E7A 27569  1                      IF    Z,BEGIN
 003E78 0000                       27580  2                        BOMB
 003E7A                            27582  1                      END
 003E7A                            27586                       END
                                   27590
                                   27591                       COMMENT                   All ok
 003E7A 1BFF                       27592                       CLEAR R15
                                   27596
 003E7C                            27597              PTLNDONE LABEL ,                   All done
 003E7C 18D8/9808 D004_            27599                       PEND  ,
 DROP   *,R7
1ACT      (ACT2025) (12:40) (15MAR04) CHumps Get/Put Lines Interface Routines                                               Page  114
0Current Usings:  (CP,R11) (CV,R12)
0Loc    Object Code    Addr1 Addr2  Stmt Lv Lineno    Source Statement           (Hibal 5, Asmedit 3.3)  HLASM R4.0  2004/03/15 12.40
+___    ______ ____    _____ _____  ____ __ ______    ______ _________
0                                  27620              ¿þþþþþþþþþþþþþþþþþþþþþþþþþþþþþþþþþþþþþþþþþþþþþþþþþþþþþþþþþþþþþþþþþþþþþÜ
                                   27621              Ÿ                                                                     Ÿ
                                   27622              Ÿ                                                                     Ÿ
                                   27623              Ÿ  PTAPPEND  - Append line, multiple ACTIVE interface                 Ÿ
                                   27624              Ÿ                                                                     Ÿ
                                   27625              Ÿ  ON ENTRY:                                                          Ÿ
                                   27626              Ÿ       R0 - text length                                              Ÿ
                                   27627              Ÿ       R1 - text location                                            Ÿ
                                   27628              Ÿ       R3 - active file number (zero=current)                        Ÿ
                                   27629              Ÿ                                                                     Ÿ
                                   27630              Ÿ  ON EXIT:                                                           Ÿ
                                   27631              Ÿ      R15 - CC=Zero, line put                                        Ÿ
                                   27632              Ÿ            CC=NZ, line not put, error msg tseg'd.                   Ÿ
                                   27633              Ÿ                                                                     Ÿ
                                   27634              Ÿ                                                                     Ÿ
                                   27635              Ÿ                                                                     Ÿ
                                                      ¾þþþþþþþþþþþþþþþþþþþþþþþþþþþþþþþþþþþþþþþþþþþþþþþþþþþþþþþþþþþþþþþþþþþþþ»
0003E8A 50E0 D000/9008_      00000 27636              PTAPPEND XPROC ,
 USING  *,R7
                                   27676
 003EA4 1841                       27677                       LR    R4,R1               R4,R5 - text loc, len
 003EA6 1850                       27678                       LR    R5,R0
                                   27679
                                   27680                       COMMENT                   Switch to new active,,
 003EA8 1233/4780 7032             27681                       IF    (R3,NZ),BEGIN
 003EAE 18F3                       27695  1                      LR    R15,R3
 003EB0 58E0 7214/0DEE       040B8 27696  1                      ACALL ACTPICK
 003EB6 4770 7030            03ED4 27700  1                      IF    Z,BEGIN
 003EBA 4110 724C/4100_      040F0 27711  2                        TSEG  'Active file specified does not exist. '
 003ECC 41F0 0004            00004 27729  2                        LA    R15,4
 003ED0 47F0 708E            03F32 27730  2                        B     PTAPDONE
 003ED4                            27731  1                      END
 003ED4 183F                       27735  1                      LR    R3,R15
 003ED6                            27736                       END
                                   27740
                                   27741                       COMMENT                   Get END line number
 003ED6 58E0 7208/0DEE       040AC 27742                       ACALL ENDLNO
 003EDC 4780 706A            03F0E 27746                       IF    NZ,BEGIN            If END too large,
 003EE0 1233/4780 7050             27757  1                      IF    (R3,NZ),BEGIN       Restore old active if any, give
 003EE6 18F3                       27771  2                        LR    R15,R3              error message and exit
 003EE8 58E0 7214/0DEE       040B8 27772  2                        ACALL ACTPICK
 003EEE 4770 7050            03EF4 27776  2                        IF    Z,BEGIN
 003EF2 0000                       27787  3                          BOMB
 003EF4                            27789  2                        END
 003EF4                            27793  1                      END
 003EF4 4110 7272/4100_      04116 27797  1                      TSEG  'Invalid line number (too large)'
 003F06 41F0 0004            00004 27815  1                      LA    R15,4
 003F0A 47F0 708E            03F32 27816  1                      B     PTAPDONE
 003F0E                            27817                       END
 003F0E 1820                       27821                       LR    R2,R0               R2 - END line number
                                   27822
                                   27823                       COMMENT                   Append text
 003F10 18F2                       27824                       LR    R15,R2
1ACT      (ACT2025) (12:40) (15MAR04) CHumps Get/Put Lines Interface Routines                                               Page  115
0Current Usings:  (*,R7) (CP,R11) (CV,R12)
0Loc    Object Code    Addr1 Addr2  Stmt Lv Lineno    Source Statement           (Hibal 5, Asmedit 3.3)  HLASM R4.0  2004/03/15 12.40
+___    ______ ____    _____ _____  ____ __ ______    ______ _________
0003F12 1805                       27825                       LR    R0,R5
 003F14 1814                       27826                       LR    R1,R4
 003F16 58E0 7218/0DEE       040BC 27827                       ACALL PUTLINE
                                   27831
                                   27832                       COMMENT                   Restore old active
 003F1C 1233/4780 708C             27833                       IF    (R3,NZ),BEGIN
 003F22 18F3                       27847  1                      LR    R15,R3
 003F24 58E0 7214/0DEE       040B8 27848  1                      ACALL ACTPICK
 003F2A 4770 708C            03F30 27852  1                      IF    Z,BEGIN
 003F2E 0000                       27863  2                        BOMB
 003F30                            27865  1                      END
 003F30                            27869                       END
                                   27873
                                   27874                       COMMENT                   All ok
 003F30 1BFF                       27875                       CLEAR R15
                                   27879
 003F32                            27880              PTAPDONE LABEL ,                   All done
 003F32 18D8/9808 D004_            27882                       PEND  ,
 DROP   *,R7
1ACT      (ACT2025) (12:40) (15MAR04) CHumps Get/Put Lines Interface Routines                                               Page  116
0Current Usings:  (CP,R11) (CV,R12)
0Loc    Object Code    Addr1 Addr2  Stmt Lv Lineno    Source Statement           (Hibal 5, Asmedit 3.3)  HLASM R4.0  2004/03/15 12.40
+___    ______ ____    _____ _____  ____ __ ______    ______ _________
0                                  27903              ¿þþþþþþþþþþþþþþþþþþþþþþþþþþþþþþþþþþþþþþþþþþþþþþþþþþþþþþþþþþþþþþþþþþþþþÜ
                                   27904              Ÿ                                                                     Ÿ
                                   27905              Ÿ                                                                     Ÿ
                                   27906              Ÿ  REPLINE - REPLACE LINE, multiple ACTIVE interface                  Ÿ
                                   27907              Ÿ                                                                     Ÿ
                                   27908              Ÿ  ON ENTRY:                                                          Ÿ
                                   27909              Ÿ       R0 - text length                                              Ÿ
                                   27910              Ÿ       R1 - text location                                            Ÿ
                                   27911              Ÿ      @R2 - line number                                              Ÿ
                                   27912              Ÿ       R3 - active file number (zero=current)                        Ÿ
                                   27913              Ÿ                                                                     Ÿ
                                   27914              Ÿ  ON EXIT:                                                           Ÿ
                                   27915              Ÿ      R15 - CC=Zero, line put                                        Ÿ
                                   27916              Ÿ            CC=NZ, line not put, error msg tseg'd.                   Ÿ
                                   27917              Ÿ                                                                     Ÿ
                                   27918              Ÿ                                                                     Ÿ
                                   27919              Ÿ                                                                     Ÿ
                                                      ¾þþþþþþþþþþþþþþþþþþþþþþþþþþþþþþþþþþþþþþþþþþþþþþþþþþþþþþþþþþþþþþþþþþþþþ»
0003F40 50E0 D000/9008_      00000 27920              REPLINE  XPROC ,
 USING  *,R7
                                   27960
 003F5A 1841                       27961                       LR    R4,R1               R4,R5 - text loc, len
 003F5C 1850                       27962                       LR    R5,R0
 003F5E 5822 0000            00000 27963                       L     R2,0(R2)            R2 - line number
                                   27964
                                   27965                       COMMENT                   Check line number
 003F62 1222/4740 7016_            27966                       IF    ((R2,NEG),OR,(R2,GT,CVMAXLNO)),BEGIN
 003F70 4110 71DB/4100_      04135 27996  1                      TSEG  'Invalid line number (negative or too large)'
 003F82 41F0 0004            00004 28014  1                      LA    R15,4
 003F86 47F0 7084            03FDE 28015  1                      B     REPLDONE
 003F8A                            28016                       END
                                   28020
                                   28021                       COMMENT                   Switch to new active,,
 003F8A 1233/4780 705E             28022                       IF    (R3,NZ),BEGIN
 003F90 18F3                       28036  1                      LR    R15,R3
 003F92 58E0 715E/0DEE       040B8 28037  1                      ACALL ACTPICK
 003F98 4770 705C            03FB6 28041  1                      IF    Z,BEGIN
 003F9C 4110 7196/4100_      040F0 28052  2                        TSEG  'Active file specified does not exist. '
 003FAE 41F0 0004            00004 28070  2                        LA    R15,4
 003FB2 47F0 7084            03FDE 28071  2                        B     REPLDONE
 003FB6                            28072  1                      END
 003FB6 183F                       28076  1                      LR    R3,R15
 003FB8                            28077                       END
                                   28081
                                   28082                       COMMENT                   Put text
 003FB8 18F2                       28083                       LR    R15,R2
 003FBA 1805                       28084                       LR    R0,R5
 003FBC 1814                       28085                       LR    R1,R4
 003FBE 4120 7166            040C0 28086                       LA    R2,=C'R...'         REPLACE only
 003FC2 58E0 7162/0DEE       040BC 28087                       ACALL PUTLINE
                                   28091
                                   28092                       COMMENT                   Restore old active
 003FC8 1233/4780 7082             28093                       IF    (R3,NZ),BEGIN
1ACT      (ACT2025) (12:40) (15MAR04) CHumps Get/Put Lines Interface Routines                                               Page  117
0Current Usings:  (*,R7) (CP,R11) (CV,R12)
0Loc    Object Code    Addr1 Addr2  Stmt Lv Lineno    Source Statement           (Hibal 5, Asmedit 3.3)  HLASM R4.0  2004/03/15 12.40
+___    ______ ____    _____ _____  ____ __ ______    ______ _________
0003FCE 18F3                       28107  1                      LR    R15,R3
 003FD0 58E0 715E/0DEE       040B8 28108  1                      ACALL ACTPICK
 003FD6 4770 7082            03FDC 28112  1                      IF    Z,BEGIN
 003FDA 0000                       28123  2                        BOMB
 003FDC                            28125  1                      END
 003FDC                            28129                       END
                                   28133
                                   28134                       COMMENT                   All ok
 003FDC 1BFF                       28135                       CLEAR R15
                                   28139
 003FDE                            28140              REPLDONE LABEL ,                   All done
 003FDE 18D8/9808 D004_            28142                       PEND  ,
 DROP   *,R7
1ACT      (ACT2025) (12:40) (15MAR04) CHumps Get/Put Lines Interface Routines                                               Page  118
0Current Usings:  (CP,R11) (CV,R12)
0Loc    Object Code    Addr1 Addr2  Stmt Lv Lineno    Source Statement           (Hibal 5, Asmedit 3.3)  HLASM R4.0  2004/03/15 12.40
+___    ______ ____    _____ _____  ____ __ ______    ______ _________
0                                  28163              ¿þþþþþþþþþþþþþþþþþþþþþþþþþþþþþþþþþþþþþþþþþþþþþþþþþþþþþþþþþþþþþþþþþþþþþÜ
                                   28164              Ÿ                                                                     Ÿ
                                   28165              Ÿ                                                                     Ÿ
                                   28166              Ÿ  INSLINE - INSERT LINE, multiple ACTIVE interface                   Ÿ
                                   28167              Ÿ                                                                     Ÿ
                                   28168              Ÿ  ON ENTRY:                                                          Ÿ
                                   28169              Ÿ       R0 - text length                                              Ÿ
                                   28170              Ÿ       R1 - text location                                            Ÿ
                                   28171              Ÿ      @R2 - line number                                              Ÿ
                                   28172              Ÿ       R3 - active file number (zero=current)                        Ÿ
                                   28173              Ÿ                                                                     Ÿ
                                   28174              Ÿ  ON EXIT:                                                           Ÿ
                                   28175              Ÿ      R15 - CC=Zero, line put                                        Ÿ
                                   28176              Ÿ            CC=NZ, line not put, error msg tseg'd.                   Ÿ
                                   28177              Ÿ                                                                     Ÿ
                                   28178              Ÿ                                                                     Ÿ
                                   28179              Ÿ                                                                     Ÿ
                                                      ¾þþþþþþþþþþþþþþþþþþþþþþþþþþþþþþþþþþþþþþþþþþþþþþþþþþþþþþþþþþþþþþþþþþþþþ»
0003FEC 50E0 D000/9008_      00000 28180              INSLINE  XPROC ,
 USING  *,R7
                                   28220
 004006 1841                       28221                       LR    R4,R1               R4,R5 - text loc, len
 004008 1850                       28222                       LR    R5,R0
 00400A 5822 0000            00000 28223                       L     R2,0(R2)            R2 - line number
                                   28224
                                   28225                       COMMENT                   Check line number
 00400E 1222/4740 7016_            28226                       IF    ((R2,NEG),OR,(R2,GT,CVMAXLNO)),BEGIN
 00401C 4110 712F/4100_      04135 28256  1                      TSEG  'Invalid line number (negative or too large)'
 00402E 41F0 0004            00004 28274  1                      LA    R15,4
 004032 47F0 7084            0408A 28275  1                      B     INSLDONE
 004036                            28276                       END
                                   28280
                                   28281                       COMMENT                   Switch to new active,,
 004036 1233/4780 705E             28282                       IF    (R3,NZ),BEGIN
 00403C 18F3                       28296  1                      LR    R15,R3
 00403E 58E0 70B2/0DEE       040B8 28297  1                      ACALL ACTPICK
 004044 4770 705C            04062 28301  1                      IF    Z,BEGIN
 004048 4110 70EA/4100_      040F0 28312  2                        TSEG  'Active file specified does not exist. '
 00405A 41F0 0004            00004 28330  2                        LA    R15,4
 00405E 47F0 7084            0408A 28331  2                        B     INSLDONE
 004062                            28332  1                      END
 004062 183F                       28336  1                      LR    R3,R15
 004064                            28337                       END
                                   28341
                                   28342                       COMMENT                   Put text
 004064 18F2                       28343                       LR    R15,R2
 004066 1805                       28344                       LR    R0,R5
 004068 1814                       28345                       LR    R1,R4
 00406A 4120 70BE            040C4 28346                       LA    R2,=C'I...'         INSERT only
 00406E 58E0 70B6/0DEE       040BC 28347                       ACALL PUTLINE
                                   28351
                                   28352                       COMMENT                   Restore old active
 004074 1233/4780 7082             28353                       IF    (R3,NZ),BEGIN
1ACT      (ACT2025) (12:40) (15MAR04) CHumps Get/Put Lines Interface Routines                                               Page  119
0Current Usings:  (*,R7) (CP,R11) (CV,R12)
0Loc    Object Code    Addr1 Addr2  Stmt Lv Lineno    Source Statement           (Hibal 5, Asmedit 3.3)  HLASM R4.0  2004/03/15 12.40
+___    ______ ____    _____ _____  ____ __ ______    ______ _________
000407A 18F3                       28367  1                      LR    R15,R3
 00407C 58E0 70B2/0DEE       040B8 28368  1                      ACALL ACTPICK
 004082 4770 7082            04088 28372  1                      IF    Z,BEGIN
 004086 0000                       28383  2                        BOMB
 004088                            28385  1                      END
 004088                            28389                       END
                                   28393
                                   28394                       COMMENT                   All ok
 004088 1BFF                       28395                       CLEAR R15
                                   28399
 00408A                            28400              INSLDONE LABEL ,                   All done
 00408A 18D8/9808 D004_            28402                       PEND  ,
 DROP   *,R7
                                   28422
                                   28423                       QLTORG
1ACT      (ACT2025) (12:40) (15MAR04) STOW Routine                                                                          Page  120
0Current Usings:  (CP,R11) (CV,R12)
0Loc    Object Code    Addr1 Addr2  Stmt Lv Lineno    Source Statement           (Hibal 5, Asmedit 3.3)  HLASM R4.0  2004/03/15 12.40
+___    ______ ____    _____ _____  ____ __ ______    ______ _________
0000000                00000 000F7 28453              STOWWA   RECORD BEGIN
 000000                            28461  1           STOWLNO    DS    F                   Working line-number
 000004                            28462  1           STOWPTRS   DS    2A                  Line loc, len
                                   28463  1           STOWTEXT   DS    CL(&LINESZ)         Working line text area
 00000C                                   1          +STOWTEXT   DS    CL(235)             Working line text area
 0000F7                000F7 000F7 28464                       END
-                                  28474              ¿þþþþþþþþþþþþþþþþþþþþþþþþþþþþþþþþþþþþþþþþþþþþþþþþþþþþþþþþþþþþþþþþþþþþþÜ
                                   28475              Ÿ                                                                     Ÿ
                                   28476              Ÿ  STOW -- For compatability only!  New callers should use the        Ÿ
                                   28477              Ÿ    PUTLINE routine.  This routine will add/replace a line in        Ÿ
                                   28478              Ÿ    the Active file.                                                 Ÿ
                                   28479              Ÿ                                                                     Ÿ
                                   28480              Ÿ    On entry:                                                        Ÿ
                                   28481              Ÿ      R1 - pressed line ptr (before lineno)                          Ÿ
                                   28482              Ÿ                                                                     Ÿ
                                   28483              Ÿ      CPLFLG4:                                                       Ÿ
                                   28484              Ÿ        CPFSTINS - insert mode only                                  Ÿ
                                   28485              Ÿ        CPFSTREP - replace mode only                                 Ÿ
                                   28486              Ÿ                                                                     Ÿ
                                   28487              Ÿ    On exit, R15 (and CC):                                           Ÿ
                                   28488              Ÿ     -4 - replace/insert mode prevented STOW                         Ÿ
                                   28489              Ÿ      0 - OK                                                         Ÿ
                                   28490              Ÿ                                                                     Ÿ
                                                      ¾þþþþþþþþþþþþþþþþþþþþþþþþþþþþþþþþþþþþþþþþþþþþþþþþþþþþþþþþþþþþþþþþþþþþþ»
0004160 50E0 D000/9008_      00000 28491              STOW     XPROC STOWWA
 USING  *,R7
 USING  STOWWA-(4+36),R8
 00417A 18F1                       28542                       LR    R15,R1              Pressed line ptr
 00417C 4110 8034            0000C 28543                       LA    R1,STOWTEXT         Put unpressed line here
 004180 58E0 78D6/0DEE       04A50 28544                       VCALL UNPRESS             Unpress
 004186 50F0 8028            00000 28548                       ST    R15,STOWLNO         Save line-number
 00418A 9001 802C            00004 28549                       STM   R0,R1,STOWPTRS      Save line text ptrs
                                   28550                       ¿þþþþþþþþþþþþþþþþþþþþþþþþþþþþþþþþþþþþþþþþþþþþþÜ
                                   28551                       Ÿ  Set correct PUTLINEX insert/replace mode.  Ÿ
                                   28552                       ¾þþþþþþþþþþþþþþþþþþþþþþþþþþþþþþþþþþþþþþþþþþþþþ»
 00418E 4120 78DA            04A54 28553                       LA    R2,=C'....'         No special PUTLINEX options
 004192 9140 BD53/47E0_00D53       28554                       IF    CPLFLG4.CPFSTINS,'LA R2,=C"I..."'  Insert mode only
 00419E 9108 BD53/47E0_00D53       28576                       IF    CPLFLG4.CPFSTREP,'LA R2,=C"R..."'  Replace mode only
                                   28598                       ¿þþþþþþþþþþþþþþþþþþþþþþþþþþþþþþþþþþþþÜ
                                   28599                       Ÿ  Add the line to the Active file.  Ÿ
                                   28600                       ¾þþþþþþþþþþþþþþþþþþþþþþþþþþþþþþþþþþþþ»
 0041AA 58F0 8028            00000 28601                       L     R15,STOWLNO         Set line-number
 0041AE 9801 802C            00004 28602                       LM    R0,R1,STOWPTRS      Line text ptrs
 0041B2 58E0 78E6/0DEE       04A60 28603                       ACALL PUTLINEX            Add the line to the Active file
                                   28607              *  PUTLINEX sets the return code for the STOW caller.
 0041B8 18D8/9808 D004_            28608                       PEND  ,
 DROP   STOWWA-(4+36),R8
 DROP   *,R7
1ACT      (ACT2025) (12:40) (15MAR04) STOW Routine                                                                          Page  121
0Current Usings:  (CP,R11) (CV,R12)
0Loc    Object Code    Addr1 Addr2  Stmt Lv Lineno    Source Statement           (Hibal 5, Asmedit 3.3)  HLASM R4.0  2004/03/15 12.40
+___    ______ ____    _____ _____  ____ __ ______    ______ _________
0                                  28634              ¿þþþþþþþþþþþþþþþþþþþþþþþþþþþþþþþþþþþþþþþþþþþþþþþþþþþþþþþþþþþþþþþþþþþþþÜ
                                   28635              Ÿ                                                                     Ÿ
                                   28636              Ÿ  LASTLINE -- Routine to write the last line-number added to the     Ÿ
                                   28637              Ÿ    ACTIVE file.                                                     Ÿ
                                   28638              Ÿ                                                                     Ÿ
                                                      ¾þþþþþþþþþþþþþþþþþþþþþþþþþþþþþþþþþþþþþþþþþþþþþþþþþþþþþþþþþþþþþþþþþþþþþ»
00041C6 50E0 D000/9008_      00000 28639              LASTLINE XPROC ,
 USING  *,R7
 0041E0 58F0 B740/12FF_      00740 28679                       IF    ('LT R15,CPSTLNO',~NEG),BEGIN  Give lineno message...
 0041EA 9120 BD54/47E0_00D54       28695  1                      IF    ~CPLFLG5.CPFNLST,EXIT  Not needed if line was listed
 0041F2 9110 B477/47E0_00477       28714  1                      IF    ~CPFTYPED,EXIT      Don't if not typed command
                                   28732  1
 0041FA 4110 790E/4100_      04AEE 28733  1                      TSEG  'Line '
 00420C 5800 B740            00740 28751  1                      L     R0,CPSTLNO
 004210 58E0 7888/0DEE       04A68 28752  1                      VCALL CVEXNO
 004216 41F0 B050/58E0_      00050 28756  1                      TSEG  (R1),(R0)
 004220 4110 7913/4100_      04AF3 28780  1                      TSEG  ' is the last line'
 004232 4110 7924/4100_      04B04 28798  1                      SETMSG '.'
 00423A D502 7925 BD24_04B05 00D24 28802  1                      IF    (CPCMNM,EQ,'COP'),'SETMSG " copied."'
 00424C D502 7928 BD24_04B08 00D24 28828  1                      IF    (CPCMNM,EQ,'MOV'),'SETMSG " moved."'
 00425E 41F0 B050/58E0_      00050 28854  1                      TSEG  (R1),(R0),CR
 004268                            28878                       END
 004268 18D8/9808 D004_            28882                       PEND
 DROP   *,R7
                                   28902                       DROP  BR
1ACT      (ACT2025) (12:40) (15MAR04) Edit Format validity check routine                                                    Page  122
0Current Usings:  (CP,R11) (CV,R12)
0Loc    Object Code    Addr1 Addr2  Stmt Lv Lineno    Source Statement           (Hibal 5, Asmedit 3.3)  HLASM R4.0  2004/03/15 12.40
+___    ______ ____    _____ _____  ____ __ ______    ______ _________
0                                  28907              ¿þþþþþþþþþþþþþþþþþþþþþþþþþþþþþþþþþþþþþþþþþþþþþþþþþþþþþþþþþþþþþþþþþþþþþÜ
                                   28908              Ÿ                                                                     Ÿ
                                   28909              Ÿ  EDITCK -- Routine to check the validity of an edit format line.    Ÿ
                                   28910              Ÿ                                                                     Ÿ
                                   28911              Ÿ    On entry:                                                        Ÿ
                                   28912              Ÿ      R1 - edit format line ptr (before lineno)                      Ÿ
                                   28913              Ÿ                                                                     Ÿ
                                   28914              Ÿ    On exit, R15 (and CC):                                           Ÿ
                                   28915              Ÿ      0 - ok (R1 - intact, R0 - pressed line len)                    Ÿ
                                   28916              Ÿ      4 - truncated to &LINESZ (R1-intact, R0-pressed line len)      Ÿ
                                   28917              Ÿ     -4 - invalid edit format (R1 - msg ptr, R0 - msg len)           Ÿ
                                   28918              Ÿ                                                                     Ÿ
                                                      ¾þþþþþþþþþþþþþþþþþþþþþþþþþþþþþþþþþþþþþþþþþþþþþþþþþþþþþþþþþþþþþþþþþþþþþ»
0004276 50E0 D000/9008_      00000 28919              EDITCK   XPROC ,
 USING  *,R7
 004290 D503 C15C 1000_0015C 00000 28959                       IF    (@R1,LGT,CVMAXLNO),BEGIN
 00429A 4110 7882/4100_      04B12 28976  1                      SETMSG 'Line-number is too big.'
 0042A2 47F0 70A4            04334 28980  1                      B     EDITERR
 0042A6                            28981                       END
 0042A6 1F55/4350 1004             28985                       LC    R5,@R1+4            Count byte
 0042AC 5050 8004            00004 28992                       ST    R5,@R8+4            Save len in r0
 0042B0 4110 1005            00005 28993                       LA    R1,@R1+4+1          Past lineno and count byte
 0042B4 1A51                       28994                       AR    R5,R1               End of pressed line
 0042B6 1B66                       28995                       CLEAR R6                  Unpress len accumulator
 0042B8 4140 000F            0000F 28999                       LA    R4,X'0F'            For "and" in loop
 0042BC 1BFF                       29000                       CLEAR R15                 For "ic" in loop
 0042BE 1915/47B0 7094             29004                       WHILE (R1,LT,R5),BEGIN
 0042C4 43F0 1000            00000 29021  1                      IC    R15,@R1             Control byte
 0042C8 180F                       29022  1                      LR    R0,R15
 0042CA 8800 0004            00004 29023  1                      SRL   R0,4                Blank count
 0042CE 1A60                       29024  1                      AR    R6,R0
 0042D0 14F4                       29025  1                      NR    R15,R4              Text count
 0042D2 1A6F                       29026  1                      AR    R6,R15
 0042D4 5960 77E0/47D0_      04A70 29027  1                      IF    (R6,GT,&LINESZ),BEGIN
 0042DC 1B60                       29044  2                        SR    R6,R0
 0042DE 1B6F                       29045  2                        SR    R6,R15              Back up
 0042E0 4B60 7858            04AE8 29046  2                        SH    R6,=AL2(&LINESZ)
 0042E4 1366                       29047  2                        LCR   R6,R6               No. of chars till max
 0042E6 1B60/47D0 706E             29048  2                        IF    ('SR R6,R0',POS),BEGIN  Room for partial text...
 0042EC 4330 1000            00000 29061  3                          IC    R3,@R1
 0042F0 5430 77E4            04A74 29062  3                          N     R3,=X'000000F0'     Reset no. of text bytes
 0042F4 1636                       29063  3                          OR    R3,R6               Text byte count
 0042F6 4230 1000            00000 29064  3                          STC   R3,@R1
 0042FA 4111 6001            00001 29065  3                          LA    R1,1+@R6(R1)        Add in control byte & text
 0042FE                            29066  2                        END
 0042FE 58F0 8008            00008 29070  2                        L     R15,@R8+4+4
 004302 41F0 F004            00004 29071  2                        LA    R15,@R15+4          Skip past lineno
 004306 1B1F                       29072  2                        SR    R1,R15              Calc len
 004308 0610                       29073  2                        DECR  R1                  Not including len byte
 00430A 4210 F000            00000 29075  2                        STC   R1,@R15             Update len byte
 00430E 1801                       29076  2                        LR    R0,R1
 004310 5008 0004            00004 29077  2                        PRETURN (R0)              Return pressed length
 004314 41F0 0004            00004 29079  2                        LA    R15,4
1ACT      (ACT2025) (12:40) (15MAR04) Edit Format validity check routine                                                    Page  123
0Current Usings:  (*,R7) (CP,R11) (CV,R12)
0Loc    Object Code    Addr1 Addr2  Stmt Lv Lineno    Source Statement           (Hibal 5, Asmedit 3.3)  HLASM R4.0  2004/03/15 12.40
+___    ______ ____    _____ _____  ____ __ ______    ______ _________
0004318 47F0 70AE            0433E 29080  2                        B     EDITEXIT
 00431C                            29081  1                      END
 00431C 4111 F001            00001 29085  1                      LA    R1,1+@R15(R1)       Bump pressed ptr
 004320 47F0 702E            042BE 29086                       END
 004324 1BFF                       29091                       CLEAR R15                 Assume good rtn code
 004326 1915/4780 70AE             29095                       IF    (R1,NE,R5),BEGIN
 00432C 4110 7899/4100_      04B29 29110  1                      SETMSG 'Invalid edit format line.'
 004334 9001 8004            00004 29114  1           EDITERR    PRETURN (R0,R1)           Return error msg ptrs
 004338 41F0 0004            00004 29116  1                      LA    R15,4
 00433C 13FF                       29117  1                      LCR   R15,R15
 00433E                            29118                       END
 00433E 18D8/9808 D004_            29122              EDITEXIT PEND  ,
 DROP   *,R7
1ACT      (ACT2025) (12:40) (15MAR04) UNPRESS Routine                                                                       Page  124
0Current Usings:  (CP,R11) (CV,R12)
0Loc    Object Code    Addr1 Addr2  Stmt Lv Lineno    Source Statement           (Hibal 5, Asmedit 3.3)  HLASM R4.0  2004/03/15 12.40
+___    ______ ____    _____ _____  ____ __ ______    ______ _________
0                                  29144              ¿þþþþþþþþþþþþþþþþþþþþþþþþþþþþþþþþþþþþþþþþþþþþþþþþþþþþþþþþþþþþþþþþþþþþþÜ
                                   29145              Ÿ                                                                     Ÿ
                                   29146              Ÿ  UNPRESS -- Unpresses a line in WYLBUR edit format.                 Ÿ
                                   29147              Ÿ                                                                     Ÿ
                                   29148              Ÿ    On entry:                                                        Ÿ
                                   29149              Ÿ      R15- pressed line ptr (before lineno)                          Ÿ
                                   29150              Ÿ      R1 - unpress area (at least &LINESZ bytes)                     Ÿ
                                   29151              Ÿ                                                                     Ÿ
                                   29152              Ÿ    On exit:                                                         Ÿ
                                   29153              Ÿ      R1,R0 - unpress loc, len                                       Ÿ
                                   29154              Ÿ      R15   - WYLBUR line-number                                     Ÿ
                                   29155              Ÿ                                                                     Ÿ
                                                      ¾þþþþþþþþþþþþþþþþþþþþþþþþþþþþþþþþþþþþþþþþþþþþþþþþþþþþþþþþþþþþþþþþþþþþþ»
000434C 50E0 D000/9008_      00000 29156              UNPRESS  XPROC ,
 USING  *,R7
 004366 D203 BC88 F000 00C88 00000 29196                       MVC   CPDOUB(4),@R15      Make aligned line-no available
 00436C 9240 1000      00000       29197                       MVI   @R1,C' '            Blank return area
 004370 D2E9 1001 1000 00001 00000 29198                       MVC   @R1+1(&LINESZ-1),@R1
 004376 4110 1000            00000 29199                       LA    R1,@R1              Make sure 1st byte clear
 00437A 1301                       29200                       LCR   R0,R1               Set r0 for length calc at end
 00437C 1F55/4350 F004             29201                       LC    R5,@R15+4           Get total line length
 004382 1255                       29208                       LTR   R5,R5               Is it a null line
 004384 4780 7052            043B8 29209                       BZ    FINUNP              Br yes
 004388 4160 000F            0000F 29210                       LA    R6,X'0F'            Put mask in R2
 00438C 4120 0001            00001 29211                       LA    R2,1                Set R2 for bxle step
 004390 0650                       29212                       DECR  R5                  Set R5 so that end of line
 004392 4135 F000            00000 29214                       LA    R3,@R15(R5)         Point R3 to end for bxle
 004396 4350 F005            00005 29215              MORECH   IC    R5,@R15+5           Get blank-char control byte
 00439A 1845                       29216                       LR    R4,R5               Put in R4 also
 00439C 8850 0004            00004 29217                       SRL   R5,4                Shift to get blank count
 0043A0 1A15                       29218                       AR    R1,R5               Move output ptr over blanks
 0043A2 1446                       29219                       NR    R4,R6               Mask to get non-blank count
 0043A4 4780 704E            043B4 29220                       BZ    ALLBLS              No move if zero count
 0043A8 1854                       29221                       LR    R5,R4               Put count in R5
 0043AA 0650/4450 7828_            29222                       DEX   R5,'MVC @R1(0),@R15+6' Move text to output
 0043B0 1AF4                       29241                       AR    R15,R4              Bump input ptr past text
 0043B2 1A14                       29242                       AR    R1,R4               Bump output ptr past text
 0043B4 87F2 7030            04396 29243              ALLBLS   BXLE  R15,R2,MORECH       Add 1 (in R2) to input ptr
                                   29244              *                       (in R15) and branch if <= end (in R3)
                                   29245              * note that this now falls through even for an invalid pressed
                                   29246              *      line.  for a valid line (R3+1) must equal R15 but there
                                   29247              *      is no reason to check because there is no good recovery
                                   29248              *      if the line happens to be invalid.
 0043B8 58F0 BC88            00C88 29249              FINUNP   L     R15,CPDOUB          Line-no to R15
 0043BC 1A01                       29250                       AR    R0,R1               Calc total length of line
 0043BE 5008 0004            00004 29251                       PRETURN (R0)
 0043C2 18D8/9808 D004_            29253                       PEND  ,
 DROP   *,R7
                                   29273                       DROP  BR
1ACT      (ACT2025) (12:40) (15MAR04) UNPRESS Routine                                                                       Page  125
0Current Usings:  (CP,R11) (CV,R12)
0Loc    Object Code    Addr1 Addr2  Stmt Lv Lineno    Source Statement           (Hibal 5, Asmedit 3.3)  HLASM R4.0  2004/03/15 12.40
+___    ______ ____    _____ _____  ____ __ ______    ______ _________
0                                  29278              ¿þþþþþþþþþþþþþþþþþþþþþþþþþþþþþþþþþþþþþþþþþþþþþþþþþþþþþþþþþþþþþþþþþþþþþÜ
                                   29279              Ÿ                                                                     Ÿ
                                   29280              Ÿ  LENCHKM -- Routine to check to see if a line is too long and       Ÿ
                                   29281              Ÿ    issue a warning message if it is.                                Ÿ
                                   29282              Ÿ                                                                     Ÿ
                                   29283              Ÿ    Entry/exit parameters are the same as LENCHK below.              Ÿ
                                   29284              Ÿ                                                                     Ÿ
                                                      ¾þþþþþþþþþþþþþþþþþþþþþþþþþþþþþþþþþþþþþþþþþþþþþþþþþþþþþþþþþþþþþþþþþþþþþ»
00043D0 50E0 D000/9008_      00000 29285              LENCHKM  XPROC ,
 USING  *,R7
 0043EA 58E0 768E/0DEE       04A78 29325                       ACALL LENCHK              Check for long line
                                   29329
 0043F0 90F1 D000/41D0_      00000 29330                       XPUSH R15,R1
 0043F8 58E0 7692/0DEE       04A7C 29333                       ACALL LMSGCHK             Write out warning msg (maybe)
 0043FE 4BD0 7700/98F1_      04AEA 29337                       XPOP  R15,R1
 004406 9001 8004            00004 29340                       PRETURN (R0,R1)
 00440A 18D8/9808 D004_            29342                       PEND
 DROP   *,R7
                                   29362                       DROP  BR
1ACT      (ACT2025) (12:40) (15MAR04) UNPRESS Routine                                                                       Page  126
0Current Usings:  (CP,R11) (CV,R12)
0Loc    Object Code    Addr1 Addr2  Stmt Lv Lineno    Source Statement           (Hibal 5, Asmedit 3.3)  HLASM R4.0  2004/03/15 12.40
+___    ______ ____    _____ _____  ____ __ ______    ______ _________
0                                  29367              ¿þþþþþþþþþþþþþþþþþþþþþþþþþþþþþþþþþþþþþþþþþþþþþþþþþþþþþþþþþþþþþþþþþþþþþÜ
                                   29368              Ÿ                                                                     Ÿ
                                   29369              Ÿ  LENCHK -- Routine to check to see if a line is too long.  This     Ÿ
                                   29370              Ÿ    routine will also issue a warning message if the line is         Ÿ
                                   29371              Ÿ    longer than the current length.                                  Ÿ
                                   29372              Ÿ                                                                     Ÿ
                                   29373              Ÿ    On entry:                                                        Ÿ
                                   29374              Ÿ      R15 - lineno                                                   Ÿ
                                   29375              Ÿ      R1,R0 - line loc, length                                       Ÿ
                                   29376              Ÿ                                                                     Ÿ
                                   29377              Ÿ    On exit:                                                         Ÿ
                                   29378              Ÿ      R15 - lineno (same as on entry)                                Ÿ
                                   29379              Ÿ      R1,R0 - line loc, length (trailing blanks trimmed)             Ÿ
                                   29380              Ÿ                                                                     Ÿ
                                                      ¾þþþþþþþþþþþþþþþþþþþþþþþþþþþþþþþþþþþþþþþþþþþþþþþþþþþþþþþþþþþþþþþþþþþþþ»
0004418 50E0 D000/9008_      00000 29381              LENCHK   XPROC ,
 USING  *,R7
 004432 186F                       29421                       LR    R6,R15
                                   29422
 004434 18F0                       29423                       LR    R15,R0
 004436 1AF1                       29424                       AR    R15,R1
 004438 06F0                       29425                       DECR  R15
 00443A 1200/47D0 701E_            29427                       WHILE ((R0,POS),AND,(@R15,EQ,' ')),'DECR R15; DECR R0'
                                   29468
 004450 1851                       29469                       LR    R5,R1
 004452 1840                       29470                       LR    R4,R0
                                   29471                       ¿þþþþþþþþþþþþþþþþþþþþþþþÜ
                                   29472                       Ÿ  Line was truncated.  Ÿ
                                   29473                       ¾þþþþþþþþþþþþþþþþþþþþþþþ»
 004454 5940 763E/47D0_      04A70 29474                       IF    (R4,GT,&LINESZ),BEGIN  Too long...
 00445C 4140 00EB            000EB 29491  1                      LA    R4,&LINESZ          Truncate the line
 004460 4110 764E/4100_      04A80 29492  1                      TSEG  'Truncated to &LINESZ characters in line '
 004472 1806                       29510  1                      LR    R0,R6
 004474 58E0 7636/0DEE       04A68 29511  1                      VCALL CVEXNO
 00447A 41F0 B050/58E0_      00050 29515  1                      TSEG  (R1),(R0),CR        Line-number
 004484 47F0 7096            044C8 29539  1                      B     LENCEXIT
 004488                            29540                       END
                                   29544                       ¿þþþþþþþþþþþþþþþþþþþþþþþþþþþþþþþþþþþþþþþþþþþþþþþþþþÜ
                                   29545                       Ÿ  Count the number of lines over warning length.  Ÿ
                                   29546                       ¾þþþþþþþþþþþþþþþþþþþþþþþþþþþþþþþþþþþþþþþþþþþþþþþþþþ»
 004488 9110 B477/47E0_00477       29547                       IF    CPFTYPED,BEGIN      Check for warning message...
 004490 9180 BAC8/4710_00AC8       29562  1                      IF    CPVFPAGE,EXIT       Don't give message in page mode
 004498 48F0 BC52/12FF       00C52 29580  1                      LTH   R15,CPLLEN          Local line warning length
 00449E 4770 7074/48F0_      044A6 29584  1                      IF    Z,'LH R15,CPLENGTH'
 0044A6 194F/47D0 7096             29601  1                      IF    (R4,GT,R15),BEGIN   Issue the warning...
 0044AC 41F0 0001/4AF0_      00001 29616  2                        INCR  R15,CPLENWRN        Count number of lines over length
 0044B8 5060 BE20            00E20 29622  2                        ST    R6,CPLENLNO         Save lineno over length
 0044BC 4940 BE26/47D0_      00E26 29623  2                        IF    (R4,GT,CPLENMAX),'STH R4,CPLENMAX'  Save longest len
 0044C8                            29646  1                      END
 0044C8                            29650                       END
                                   29654
 0044C8 1815/1804                  29655              LENCEXIT SETMSG (R5),(R4)           Line loc, len
 0044CC 9001 8004            00004 29667                       PRETURN (R0,R1)
1ACT      (ACT2025) (12:40) (15MAR04) UNPRESS Routine                                                                       Page  127
0Current Usings:  (*,R7) (CP,R11) (CV,R12)
0Loc    Object Code    Addr1 Addr2  Stmt Lv Lineno    Source Statement           (Hibal 5, Asmedit 3.3)  HLASM R4.0  2004/03/15 12.40
+___    ______ ____    _____ _____  ____ __ ______    ______ _________
00044D0 18F6                       29669                       LR    R15,R6              Lineno
 0044D2 18D8/9808 D004_            29670                       PEND
 DROP   *,R7
                                   29690                       DROP  BR
1ACT      (ACT2025) (12:40) (15MAR04) UNPRESS Routine                                                                       Page  128
0Current Usings:  (CP,R11) (CV,R12)
0Loc    Object Code    Addr1 Addr2  Stmt Lv Lineno    Source Statement           (Hibal 5, Asmedit 3.3)  HLASM R4.0  2004/03/15 12.40
+___    ______ ____    _____ _____  ____ __ ______    ______ _________
0                                  29695              ¿þþþþþþþþþþþþþþþþþþþþþþþþþþþþþþþþþþþþþþþþþþþþþþþþþþþþþþþþþþþþþþþþþþþþþÜ
                                   29696              Ÿ                                                                     Ÿ
                                   29697              Ÿ  LCHKMSG -- Routine to write a line length warning message, if      Ÿ
                                   29698              Ÿ    needed.  Called at the end of a command (by COMM).               Ÿ
                                   29699              Ÿ                                                                     Ÿ
                                                      ¾þþþþþþþþþþþþþþþþþþþþþþþþþþþþþþþþþþþþþþþþþþþþþþþþþþþþþþþþþþþþþþþþþþþþþ»
00044E0 50E0 D000/9008_      00000 29700              LMSGCHK  XPROC ,
 USING  *,R7
 0044FA 4820 BE24/1222       00E24 29740                       LTH   R2,CPLENWRN         Number of lines over length
 004500 47D0 70C4            045BE 29744                       IF    POS,BEGIN           Write a warning message...
                                   29755  1                      ¿þþþþþþþþþþþþþþþþþþþþþþþþþþþþþþþþþþþþþþþþþþþþþþÜ
                                   29756  1                      Ÿ  Only one line exceeded the warning length.  Ÿ
                                   29757  1                      ¾þþþþþþþþþþþþþþþþþþþþþþþþþþþþþþþþþþþþþþþþþþþþþþ»
 004504 5920 75AA/4770_      04AA4 29758  1                      IF    (R2,EQ,1),BEGIN     Only one long line...
 00450C 4810 BE26/1B00_      00E26 29775  2                        TNUM  LH:CPLENMAX
 00451C 4110 75B2/4100_      04AAC 29796  2                        TSEG  ' characters in line '
 00452E 5800 BE20            00E20 29814  2                        L     R0,CPLENLNO
 004532 58E0 756E/0DEE       04A68 29815  2                        VCALL CVEXNO
 004538                            29819  1                      END
                                   29823  1                      ¿þþþþþþþþþþþþþþþþþþþþþþþþþþþþþþþþþþþþþþþþþþþþþþþÜ
                                   29824  1                      Ÿ  Multiple lines exceeded the warning length.  Ÿ
                                   29825  1                      ¾þþþþþþþþþþþþþþþþþþþþþþþþþþþþþþþþþþþþþþþþþþþþþþþ»
 004538 7042/47F0 70A8 04538 0450A 29826  1                      ELSE  BEGIN               Lots of lines...
 00453C 1812/1B00/41F0_            29837  2                        TNUM  (R2)
 00454A 4110 75C6/4100_      04AC0 29859  2                        TSEG  ' lines over '
                                   29877  2
 00455C 48F0 BC52/12FF       00C52 29878  2                        LTH   R15,CPLLEN          Local line warning length
 004562 4770 7070/48F0_      0456A 29882  2                        IF    Z,'LH R15,CPLENGTH'
 00456A 181F/1B00/41F0_            29899  2                        TNUM  (R15)
 004578 4110 7648/4100_      04B42 29921  2                        TSEG  ' characters (longest was '
 00458A 4810 BE26/1B00_      00E26 29939  2                        TNUM  LH:CPLENMAX
 00459A 4110 7661/4100_      04B5B 29960  2                        SETMSG ' characters).'
 0045A2                            29964  1                      END
                                   29968  1
 0045A2 41F0 B050/58E0_      00050 29969  1                      TSEG  (R1),(R0),CR
                                   29993  1
 0045AC D701 BE24 BE24_00E24 00E24 29994  1                      CLEAR CPLENWRN,CPLENLNO,CPLENMAX  Reset
 0045BE                            30011                       END
                                   30015
 0045BE 18D8/9808 D004_            30016                       PEND
 DROP   *,R7
                                   30036                       DROP  BR
1ACT      (ACT2025) (12:40) (15MAR04) UNPRESS Routine                                                                       Page  129
0Current Usings:  (CP,R11) (CV,R12)
0Loc    Object Code    Addr1 Addr2  Stmt Lv Lineno    Source Statement           (Hibal 5, Asmedit 3.3)  HLASM R4.0  2004/03/15 12.40
+___    ______ ____    _____ _____  ____ __ ______    ______ _________
0                                  30041              * TEST DETRNG ,,, NEED NEW DETRNG ... DEBUG
1ACT      (ACT2025) (12:40) (15MAR04) DETRNG Routine                                                                        Page  130
0Current Usings:  (CP,R11) (CV,R12)
0Loc    Object Code    Addr1 Addr2  Stmt Lv Lineno    Source Statement           (Hibal 5, Asmedit 3.3)  HLASM R4.0  2004/03/15 12.40
+___    ______ ____    _____ _____  ____ __ ______    ______ _________
0                                  30043                       COPY  ASRWA
 000000                00000 00010 30044             =ASRWA    RECORD BEGIN
                                   30052  1          =*
                                   30053  1          =*  Define the string work area for each string in an associative
                                   30054  1          =*  range.
                                   30055  1          =*
 000000                            30056  1          =ASRPTR     DS    F                   Pointer to next work area
                                   30057  1          =*ASRFLAG EQU   ASRPTR,1,C'X'       Flag (use first byte of ptr)
 000004 00                         30058  1          =ASRFLAG    FLAG  ,                   Flag (*DO NOT* use HOB of ptr)
                                   30062  1          =ASRFBLKR   EQU   X'80'               - Blank (null) range flag
                                   30063  1          =ASRFONER   EQU   X'40'               - Start column only given
                                   30064  1          =ASRFLIMR   EQU   X'20'               - Limited col range given
                                   30065  1          =ASRFTEXT   EQU   X'10'               - C'STRING' -- ignore case
                                   30066  1          =ASRFPAT    EQU   X'08'               - P'PATTERN' -- Pattern match
                                   30067  1          =
 000006                            30068  1          =ASRBVAL    DS    H                   Branch table value
                                   30069  1          =*  0 = last string, 'string' specified
                                   30070  1          =*  4 = last string, ~'string' specified
                                   30071  1          =*  8 = and condition - not last string, 'string' specified
                                   30072  1          =* 12 = and condition - not last string, ~'string' specified
                                   30073  1          =* 16 =  or condition - not last string, 'string' specified
                                   30074  1          =* 20 =  or condition - not last string, ~'string' specified
                                   30075  1          =* the branch table value is used after it is found that the
                                   30076  1          =* string is either in the current line or not in it.
 000008                            30077  1          =ASRSCOL    DS    H                   Starting column-1 if given
 00000A                            30078  1          =ASRCOMP    DS    H                   No. of compares if 2 cols
 00000C                            30079  1          =ASRPLEN    DS    H                   Minimum match size for pattern
 00000E                            30080  1          =ASRSTRLN   DS    H                   Length of this string-1
 000010                            30081  1          =ASRSTRNG   DS    0C                  Start of string
 000010                00010 00010 30082             =         END
1ACT      (ACT2025) (12:40) (15MAR04) DETRNG Routine                                                                        Page  131
0Current Usings:  (CP,R11) (CV,R12)
0Loc    Object Code    Addr1 Addr2  Stmt Lv Lineno    Source Statement           (Hibal 5, Asmedit 3.3)  HLASM R4.0  2004/03/15 12.40
+___    ______ ____    _____ _____  ____ __ ______    ______ _________
0                                  30092              *
                                   30093              *   scan range
                                   30094              *
                                   30095              *   type help range for details
                                   30096              *
                                   30097              *   set cpfall flag to allow range to default to all
                                   30098              *   if not specified. (eg. list command does this)
                                   30099              *
                                   30100              *
                                   30101              *   note:
                                   30102              *   many range specification errors, return via CVERROR
                                   30103              *
                                   30104              *   note:
                                   30105              *   this routine scans a range specification.  this is
                                   30106              *   done by a 'finite state' type algorithm.  each scan
                                   30107              *   table represents a 'state' (more or less).  we scan
                                   30108              *   by scanning using the various scan tables.  we have
                                   30109              *   (a) general scan, (b) explicit range scan, and
                                   30110              *   (c) associtive (string) range sckws and code in this
                                   30111              *   order.
                                   30112              *
                                   30113              *   note:
                                   30114              *   this routine scans a range specification.  it sets
                                   30115              *   up cp flags and cp areas with the range specification
                                   30116              *   info.  this info is used by the range processor to
                                   30117              *   determine what lines constitute the range.  we note
                                   30118              *   that the fields set in the cp are somewhat poorly
                                   30119              *   documented.  unfortunately that is still the case.
                                   30120              *   as it has been said ..
                                   30121              *      real programmers don't comment.  read the code.
                                   30122              *
                                   30123              *
 000000                00000 00003 30124              DRWA     RECORD BEGIN
 000000 00                         30132  1           DRFLAG     FLAG  ,
 DRFLAG.DRFAND     80 ONES         30136  1                      FLAG  DRFAND              AND
 DRFLAG.DRFOR      40 ONES         30141  1                      FLAG  DRFOR               OR
 DRFLAG.DRFIN      20 ONES         30146  1                      FLAG  DRFIN               IN
 000001 00                         30151  1           DRFLAG2    FLAG  ,                   PER STRING FLAGS
 DRFLAG2.DRFNOT    80 ONES         30155  1                      FLAG  DRFNOT              NOT
 DRFLAG2.DRFCTEXT  40 ONES         30160  1                      FLAG  DRFCTEXT            C'TEXT'
 DRFLAG2.DRFHEX    20 ONES         30165  1                      FLAG  DRFHEX              HEX
 DRFLAG2.DRFPAT    10 ONES         30170  1                      FLAG  DRFPAT              PATTERN
 000002 00                         30175  1           DRFLAG3    FLAG  ,                   COMPLETION FLAGS
 DRFLAG3.DRFNEEDS  80 ONES         30179  1                      FLAG  DRFNEEDS            NEED STRING FLAG
 DRFLAG3.DRFNEEDX  40 ONES         30184  1                      FLAG  DRFNEEDX            NEED EXPLICIT RANGE FLAG
 000003                00003 00003 30189                       END
                                   30198              *
                                   30199              *
 0045CC 50E0 D000/9008_      00000 30200              NDETRNG  XPROC DRWA
 USING  *,R7
 USING  DRWA-(4+36),R8
 0045E6 4160 8028            00000 30251                       LA    R6,DRWA
 USING  DRWA,R6                    30252                       USING DRWA,R6
 0045EA D702 6000 6000 00000 00000 30261                       CLEAR DRWA
1ACT      (ACT2025) (12:40) (15MAR04) DETRNG Routine                                                                        Page  132
0Current Usings:  (DRWA,R6) (*,R7) (DRWA-(4+36),R8) (CP,R11) (CV,R12)
0Loc    Object Code    Addr1 Addr2  Stmt Lv Lineno    Source Statement           (Hibal 5, Asmedit 3.3)  HLASM R4.0  2004/03/15 12.40
+___    ______ ____    _____ _____  ____ __ ______    ______ _________
0                                  30268
                                   30269                       COMMENT                   SET UP RANGE FLAGS
 0045F0 94FB BD50      00D50       30270                       CLEAR CPLFLG1.CPFALLV     TURN OFF ALL FLAG
 0045F4 D703 BDA4 BDA4 00DA4 00DA4 30278                       CLEAR CPSTAD
 0045FA 9200 BD88      00D88       30285                       CLEAR CPFRDRNG
 0045FE 9680 BD88      00D88       30292                       SET   CPFEXPRG            Set explicit range
 004602 D703 BDA8 BDA8 00DA8 00DA8 30298                       CLEAR CPMDLN
                                   30305
                                   30306                       COMMENT                   EXTERNAL
 004608 9503 BD89/4770_00D89       30307                       IF    CPFRDEXT,BEGIN
 004610 D703 BD90 BD90 00D90 00D90 30322  1                      CLEAR CPFSLN              Set default
 004616 D203 BD94 C15C 00D94 0015C 30329  1                      MVC   CPFSLN+4,CVMAXLNO   All for external file
 00461C                            30330                       END
                                   30334
                                   30335                       COMMENT                   EXEC
 00461C 703A/47F0 705C_0461C 0460E 30336                       ELSEIF CPFRDEXE,BEGIN
 004628 58E0 74E6/0DEE       04ACC 30360  1                      VCALL EXECHK              Make sure there is an EXEC file
 00462E 58E0 74EA/0DEE       04AD0 30364  1                      VCALL EXFRSTLN            Get FIRST lineno
 004634 5000 BD90            00D90 30368  1                      ST    R0,CPFSLN           Save FIRST
 004638 58E0 74EE/0DEE       04AD4 30369  1                      VCALL EXLASTLN            Get LAST lineno
 00463E 5000 BD94            00D94 30373  1                      ST    R0,CPLSLN           Save LAST
 004642                            30374                       END
                                   30378
                                   30379                       COMMENT                   ACTIVE
 004642 7060/47F0 7076 04642 04626 30380                       ELSE  BEGIN
 004646 D603 B5AC B5AC_005AC 005AC 30391  1                      IF    (CPALNCT,Z),BEGIN   Active file is empty
 004650 58E0 74F2/0DEE       04AD8 30407  2                        VCALL ITSNIL
 004656                            30411  1                      END
 004656 D207 BD90 B5A0 00D90 005A0 30415  1                      MVC   CPFSLN(8),CPAFLNO   Save FIRST,LAST linenos
 00465C                            30416                       END
                                   30420
                                   30421                       COMMENT                   SCAN RANGE
 00465C 5810 B08C/1B00_      0008C 30422                       SCAN  DRPRT               Scan
 0046AE 58E0 74FE/0DEE       04AE4 30454                       SCANCHK
                                   30459
                                   30460                       COMMENT                   CHECK COMPLETION FLAGS
 0046B4 9180 6002/47E0_00002       30461                       IF    DRFNEEDS,BEGIN
 0046BC 4110 7442/4100_      04A28 30476  1                      ERROR 'Missing range.  Quoted string expected. '
 0046C8                            30483                       END
 0046C8 9140 6002/47E0_00002       30487                       IF    DRFNEEDX,BEGIN
 0046D0 4110 7582/4100_      04B68 30502  1                      ERROR 'Missing explicit range.'
 0046DC                            30509                       END
                                   30513
                                   30514                       COMMENT                   CHANGE LINKS IN STRING LIST
                                   30515                       COMMENT                   FROM BACKWARDS TO FORWARDS
 USING  ASRWA,R5                   30516                       USING ASRWA,R5
 0046DC 5850 BDA4            00DA4 30525                       L     R5,CPSTAD
 0046E0 1B44                       30526                       CLEAR R4
 0046E2 1255/4780 7114             30530                       WHILE (R5,NZ),BEGIN
 0046E8 5830 5000            00000 30546  1                      L     R3,ASRPTR
 0046EC 5040 5000            00000 30547  1                      ST    R4,ASRPTR
 0046F0 4140 5000            00000 30548  1                      LA    R4,ASRWA
 0046F4 1853                       30549  1                      LR    R5,R3
 0046F6 47F0 70FC            046E2 30550                       END
1ACT      (ACT2025) (12:40) (15MAR04) DETRNG Routine                                                                        Page  133
0Current Usings:  (ASRWA,R5) (DRWA,R6) (*,R7) (DRWA-(4+36),R8) (CP,R11) (CV,R12)
0Loc    Object Code    Addr1 Addr2  Stmt Lv Lineno    Source Statement           (Hibal 5, Asmedit 3.3)  HLASM R4.0  2004/03/15 12.40
+___    ______ ____    _____ _____  ____ __ ______    ______ _________
00046FA 5040 BDA4            00DA4 30555                       ST    R4,CPSTAD
 DROP   ASRWA,R5                   30556                       DROP  R5
                                   30563
 0046FE 1BFF                       30564                       CLEAR R15
 004700 18D8/9808 D004_            30568                       PEND  ,
 DROP   DRWA-(4+36),R8
 DROP   *,R7
1ACT      (ACT2025) (12:40) (15MAR04) DETRNG Routine                                                                        Page  134
0Current Usings:  (DRWA,R6) (CP,R11) (CV,R12)
0Loc    Object Code    Addr1 Addr2  Stmt Lv Lineno    Source Statement           (Hibal 5, Asmedit 3.3)  HLASM R4.0  2004/03/15 12.40
+___    ______ ____    _____ _____  ____ __ ______    ______ _________
0                                  30594              *
                                   30595              *  RANGE SCKW TABLES
                                   30596              *  1ST LEVEL
                                   30597              *
 004710 4040404040404040_          30598              DRPRT    SCKW  ,NULLRNG,NULL
 004738 C1D3D34040404040_          30613                       SCKW  ALL,DRALL
 004760 4040404040404040_          30628                       SCKW  ,EXSYMLN,SYMLN      EXPLICIT RANGE
 004788 C2D3D6C3D2404040_          30643                       SCKW  BLOCK,EXRBLK,A      EXPLICIT RANGE
 0047B0 4040404040404040_          30658                       SCKW  ,HVVSTR,V(MQUOTE)   ASSOCIATIVE RANGE
 0047D8 E740404040404040_          30673                       SCKW  X,HVVHEX            ASSOCIATIVE RANGE
 004800 C340404040404040_          30688                       SCKW  C,HVVCTEX           ASSOCIATIVE RANGE
 004828 D740404040404040_          30703                       SCKW  P,HVVPAT            ASSOCIATIVE RANGE
 004850 5F40404040404040_          30718                       SCKW  ~,SETNOT            ASSOCIATIVE RANGE
 004878 5FE7404040404040_          30733                       SCKW  ~X,HVVNHEX          ASSOCIATIVE RANGE
 0048A0 5FC3404040404040_          30748                       SCKW  ~C,HVVNCTEX         ASSOCIATIVE RANGE
 0048C8 5FD7404040404040_          30763                       SCKW  ~P,HVVNPAT          ASSOCIATIVE RANGE
 0048F0 4040404040404040_          30778                       SCKW  ,MISSRNG
                                   30793              *
                                   30794              *
 004918 50E0 D000/9008_      00000 30795              NULLRNG  PROC  ,
 USING  *,R7
                                   30834
                                   30835                       COMMENT                   IF ALL DEFAULT ALLOWED, DO IT
 004932 9110 BD50/47E0_00D50       30836                       IF    CPLFLG1.CPFALL,BEGIN
 00493A 94EF BD50      00D50       30852  1                      CLEAR CPLFLG1.CPFALL      Turn off CPFALL if default range
 00493E 9604 BD50      00D50       30860  1                      SET   CPLFLG1.CPFALLV
 004942                            30867                       END
 004942 7014/47F0 7020 04942 04938 30871                       ELSE  BEGIN
 004946 4110 724D/4100_      04B7F 30882  1                      ERROR 'Missing range. '
 004952                            30889                       END
                                   30893
 004952 41F0 0004            00004 30894                       LA    R15,4
 004956 18D8/9808 D004_            30895                       PEND
 DROP   *,R7
                                   30915
 004964 50E0 D000/9008_      00000 30916              MISSRNG  PROC  ,
 USING  *,R7
                                   30955
                                   30956                       COMMENT                   IF ALL DEFAULT ALLOWED, DO IT
 00497E 9110 BD50/47E0_00D50       30957                       IF    CPLFLG1.CPFALL,BEGIN
 004986 94EF BD50      00D50       30973  1                      CLEAR CPLFLG1.CPFALL      Turn off CPFALL if default range
 00498A 9604 BD50      00D50       30981  1                      SET   CPLFLG1.CPFALLV
 00498E                            30988                       END
 00498E 7014/47F0 7020 0498E 04984 30992                       ELSE  BEGIN
 004992 4110 7201/4100_      04B7F 31003  1                      ERROR 'Missing range. '
 00499E                            31010                       END
                                   31014
                                   31015                       COMMENT                   TOKEN NOT PART OF RANGE, BACKUP
 00499E 58E0 B08C/58FE_      0008C 31016                       SCBKUP
                                   31072
 0049D4 41F0 0004            00004 31073                       LA    R15,4
 0049D8 18D8/9808 D004_            31074                       PEND
 DROP   *,R7
                                   31094              *
1ACT      (ACT2025) (12:40) (15MAR04) DETRNG Routine                                                                        Page  135
0Current Usings:  (DRWA,R6) (CP,R11) (CV,R12)
0Loc    Object Code    Addr1 Addr2  Stmt Lv Lineno    Source Statement           (Hibal 5, Asmedit 3.3)  HLASM R4.0  2004/03/15 12.40
+___    ______ ____    _____ _____  ____ __ ______    ______ _________
0                                  31095              *
 0049E6 50E0 D000/9008_      00000 31096              DRALL    PROC  ,
 USING  *,R7
 004A00 94BF 6002      00002       31135                       CLEAR DRFNEEDX
 004A04 9604 BD50      00D50       31142                       SET   CPLFLG1.CPFALLV
 004A08 41F0 0004            00004 31149                       LA    R15,4
 004A0C 18D8/9808 D004_            31150                       PEND  ,
 DROP   *,R7
1ACT      (ACT2025) (12:40) (15MAR04) DETRNG Routine                                                                        Page  136
0Current Usings:  (DRWA,R6) (CP,R11) (CV,R12)
0Loc    Object Code    Addr1 Addr2  Stmt Lv Lineno    Source Statement           (Hibal 5, Asmedit 3.3)  HLASM R4.0  2004/03/15 12.40
+___    ______ ____    _____ _____  ____ __ ______    ______ _________
0                                  31171                       QLTORG
1ACT      (ACT2025) (12:40) (15MAR04) DETRNG Routine                                                                        Page  137
0Current Usings:  (DRWA,R6) (CP,R11) (CV,R12)
0Loc    Object Code    Addr1 Addr2  Stmt Lv Lineno    Source Statement           (Hibal 5, Asmedit 3.3)  HLASM R4.0  2004/03/15 12.40
+___    ______ ____    _____ _____  ____ __ ______    ______ _________
0                                  31225              *
                                   31226              *  EXPLICIT RANGE SCKWS
                                   31227              *
 004B94 4040404040404040_          31228              EXRNG    SCKW  ,MISSEXR,NULL       EXPLICIT RANGE
 004BBC C2D3D6C3D2404040_          31243                       SCKW  BLOCK,EXRBLK
 004BE4 C1D3D34040404040_          31258                       SCKW  ALL,EXRALL
 004C0C 4040404040404040_          31273                       SCKW  ,EXSYMLN,SYMLN
 004C34 4040404040404040_          31288                       SCKW  ,BADXRNG
                                   31303
 004C5C 4040404040404040_          31304              EXRNGDIS SCKW  ,EXDSYMLN,SYMLN     EXPLICIT RANGE (DISJOINT PART)
 004C84 4040404040404040_          31319                       SCKW  ,EXRDONE
                                   31334              *
                                   31335              *  EXPLICIT RANGE ROUTINES
                                   31336              *
 004CAC 50E0 D000/9008_      00000 31337              MISSEXR  PROC  ,                   MISSING EXPLICIT RANGE
 USING  *,R7
 004CC6 4110 7E50/4100_      05B16 31376                       ERROR 'Missing explicit range.'
 004CD2 18D8/9808 D004_            31383                       PEND
 DROP   *,R7
                                   31403
 004CE0 50E0 D000/9008_      00000 31404              BADXRNG  PROC  ,
 USING  *,R7
 004CFA 41F0 B050/58E0_      00050 31443                       TSEG  (R1),(R0)
 004D04 4110 7E33/4100_      05B2D 31467                       ERROR ': invalid.  Expecting explicit range.'
 004D10 18D8/9808 D004_            31474                       PEND
 DROP   *,R7
                                   31494
 004D1E 50E0 D000/9008_      00000 31495              EXRBLK   PROC  ,                   BLOCK
 USING  *,R7
 004D38 94BF 6002      00002       31534                       CLEAR DRFNEEDX
 004D3C D502 7E1A BD24_05B52 00D24 31541                       IF    ((CPCMNM,EQ,'PRI'),OR,(CPCMNM,EQ,'RUN')),BEGIN
 004D50 58E0 B08C/58FE_      0008C 31574  1                      SCBKUP
 004D86 41F0 0004            00004 31630  1                      LA    R15,4
 004D8A                            31631                       END
 004D8A 7056/47F0 709E 04D8A 04D4E 31635                       ELSE  BEGIN
 004D8E 5800 B74C            0074C 31646  1                      L     R0,CPFBKLNO         FBLOCK lineno
 004D92 5810 B750            00750 31647  1                      L     R1,CPLBKLNO         LBLOCK lineno
 004D96 9108 BAC8/4710_00AC8       31648  1                      IF    (CPVFHIDE,OR,(CPBLKACT,Z)),BEGIN
 004DA8 4110 7E20/4100_      05B58 31678  2                        ERROR 'BLOCK is not defined.'
 004DB4                            31685  1                      END
 004DB4 1901/4770 7086_            31689  1                      IF    (R0,EQ,R1),'SET CPFONEL'
 004DBE 5000 BD90            00D90 31715  1                      ST    R0,CPFSLN           Set first lineno
 004DC2 5010 BD94            00D94 31716  1                      ST    R1,CPLSLN           Set last lineno
 004DC6 58E0 B08C/D203_      0008C 31717  1                      SETSCKWS EXRNGDIS
 004DD4 1BFF                       31730  1                      CLEAR R15
 004DD6                            31734                       END
 004DD6 18D8/9808 D004_            31738                       PEND
 DROP   *,R7
                                   31758
 004DE4 50E0 D000/9008_      00000 31759              EXRALL   PROC  ,
 USING  *,R7
 004DFE 94BF 6002      00002       31798                       CLEAR DRFNEEDX
 004E02 9604 BD50      00D50       31805                       SET   CPLFLG1.CPFALLV
 004E06 41F0 0004            00004 31812                       LA    R15,4
1ACT      (ACT2025) (12:40) (15MAR04) DETRNG Routine                                                                        Page  138
0Current Usings:  (DRWA,R6) (CP,R11) (CV,R12)
0Loc    Object Code    Addr1 Addr2  Stmt Lv Lineno    Source Statement           (Hibal 5, Asmedit 3.3)  HLASM R4.0  2004/03/15 12.40
+___    ______ ____    _____ _____  ____ __ ______    ______ _________
0004E0A 18D8/9808 D004_            31813                       PEND  ,
 DROP   *,R7
                                   31833
 004E18 50E0 D000/9008_      00000 31834              EXSYMLN  PROC  ,                   SYMBOLIC LINE
 USING  *,R7
 004E32 94BF 6002      00002       31873                       CLEAR DRFNEEDX
 USING  NSCNCB,R2                  31880                       USING NSCNCB,R2
 004E36 5000 BD90            00D90 31889                       ST    R0,CPFSLN
 004E3A 5000 BD94            00D94 31890                       ST    R0,CPLSLN
 004E3E 58E0 7C6E/0DEE       05AA0 31891                       ACALL DOXLINE2            LOOK FOR  X/Y OR X (Y)
 004E44 12FF/4770 7026             31895                       IF    (R15,Z),BEGIN
 004E4A 1200/47B0 7022             31909  1                      IF    (R0,NEG),BEGIN      IF RANGE X'C000000' FLAG ON,
 004E50 5400 7C72            05AA4 31923  2                        N     R0,=X'0FFFFFFF'     WE NEED TO CLEAR IT
 004E54                            31924  1                      END
 004E54 5000 BD94            00D94 31928  1                      ST    R0,CPLSLN
 004E58                            31929                       END
 004E58 702A/47F0 702E 04E58 04E48 31933                       ELSE  BEGIN
 004E5C 9610 BD88      00D88       31944  1                      SET   CPFONEL
 004E60                            31950                       END
 004E60 58E0 B08C/D203_      0008C 31954                       SETSCKWS EXRNGDIS
 004E6E 1BFF                       31967                       CLEAR R15
 004E70 18D8/9808 D004_            31971                       PEND
 DROP   *,R7
 DROP   NSCNCB,R2                  31991                       DROP  R2
                                   31998
 004E7E 50E0 D000/9008_      00000 31999              EXRDONE  PROC  ,                   SOMETHING OTHER THAN RANGE, QUIT
 USING  *,R7
 004E98 58E0 B08C/58FE_      0008C 32038                       SCBKUP
 004ECE 41F0 0004            00004 32094                       LA    R15,4
 004ED2 18D8/9808 D004_            32095                       PEND  ,
 DROP   *,R7
                                   32115
 004EE0 50E0 D000/9008_      00000 32116              EXDSYMLN PROC  ,                   DISJOINT RANGE SPECIFICATION
 USING  *,R7
 USING  NSCNCB,R2                  32155                       USING NSCNCB,R2
 004EFA 94EF BD88      00D88       32164                       CLEAR CPFONEL             ??? HERE AND ELSEWHERE ??
 004EFE 9108 BD88/47E0_00D88       32171                       IF    CPFMODS,'VCALL NOTVALID'
 004F0C 9604 BD88      00D88       32195                       SET   CPFDSJNT
 004F10 5830 BDA8            00DA8 32201                       L     R3,CPMDLN
 004F14 5930 7BB2/4750_      05AAC 32202                       IF    (R3,GE,10),BEGIN
 004F1C D207 B886 7B96_00886 05A90 32219  1                      ERROR 'Too many line-numbers.',,MANYLNOS
 004F2E                            32227                       END
 004F2E 8930 0002            00002 32231                       SLL   R3,2
 004F32 5003 BDAC            00DAC 32232                       ST    R0,CPMDAD(R3)
 004F36 5830 BDA8            00DA8 32233                       L     R3,CPMDLN
 004F3A 5E30 7BB6            05AB0 32234                       INCR  R3
 004F3E 5030 BDA8            00DA8 32237                       ST    R3,CPMDLN
 004F42 58E0 7BA6/0DEE       05AA0 32238                       ACALL DOXLINE2            LOOK FOR X/Y OR X (Y)
 004F48 12FF/4770 7086             32242                       IF    (R15,Z),BEGIN
 004F4E 5830 BDA8            00DA8 32256  1                      L     R3,CPMDLN
 004F52 5930 7BB2/4750_      05AAC 32257  1                      IF    (R3,GE,10),BEGIN
 004F5A D207 B886 7B96_00886 05A90 32274  2                        ERROR 'Too many line-numbers.',,MANYLNOS
 004F6C                            32282  1                      END
 004F6C 8930 0002            00002 32286  1                      SLL   R3,2
1ACT      (ACT2025) (12:40) (15MAR04) DETRNG Routine                                                                        Page  139
0Current Usings:  (NSCNCB,R2) (DRWA,R6) (*,R7) (CP,R11) (CV,R12)
0Loc    Object Code    Addr1 Addr2  Stmt Lv Lineno    Source Statement           (Hibal 5, Asmedit 3.3)  HLASM R4.0  2004/03/15 12.40
+___    ______ ____    _____ _____  ____ __ ______    ______ _________
0004F70 5003 BDAC            00DAC 32287  1                      ST    R0,CPMDAD(R3)
 004F74 5830 BDA8            00DA8 32288  1                      L     R3,CPMDLN
 004F78 5E30 7BB6            05AB0 32289  1                      INCR  R3
 004F7C 5030 BDA8            00DA8 32292  1                      ST    R3,CPMDLN
 004F80                            32293                       END
 004F80 1BFF                       32297                       CLEAR R15
 004F82 18D8/9808 D004_            32301                       PEND
 DROP   *,R7
 DROP   NSCNCB,R2                  32321                       DROP  R2
1ACT      (ACT2025) (12:40) (15MAR04) DETRNG Routine                                                                        Page  140
0Current Usings:  (DRWA,R6) (CP,R11) (CV,R12)
0Loc    Object Code    Addr1 Addr2  Stmt Lv Lineno    Source Statement           (Hibal 5, Asmedit 3.3)  HLASM R4.0  2004/03/15 12.40
+___    ______ ____    _____ _____  ____ __ ______    ______ _________
0                                  32329              *
                                   32330              *  PROCESS X/Y RANGE, OR X (Y) RANGE
                                   32331              *
                                   32332              *  ON ENTRY: X SCANNED, AND R0 = X VALUE
                                   32333              *  ON EXIT: R0 = Y VALUE, WITH FLAGS SET FOR X/Y OR X (Y) FORM
                                   32334              *           R15 = 0 IF X/Y OR X (Y), R15 = NZ OTHERWISE
                                   32335              *           SCAN CONTROL BLOCK UPDATED IF X/Y OR X (Y)
                                   32336              *
 004F90 50E0 D000/9008_      00000 32337              DOXLINE2 PROC  ,
 USING  *,R7
 004FAA 1840                       32376                       LR    R4,R0
 004FAC 58E0 B08C/D2AF_      0008C 32377                       SCPUSH ,
 004FBA 5810 B08C/1B00_      0008C 32383                       SCAN ,
 005008 58E0 7B0E/0DEE       05AB8 32414                       SCANCHK
                                   32419                       COMMENT                   IF X/Y RANGE
 00500E 5900 7B06/4770_      05AB0 32420                       IF    ((R0,EQ,1),AND,(@R1,EQ,'/')),BEGIN
 00501E 94EF BD88      00D88       32452  1                      CLEAR CPFONEL
 005022 5810 B08C/1B00_      0008C 32459  1                      SCAN  EX2SYMLN
 005074 1803                       32491  1                      LR    R0,R3
 005076 1934/47B0 70DE             32492  1                      IF    (R3,LT,R4),BEGIN
 00507C 4110 7B16/4100_      05AC0 32507  2                        ERROR 'Invalid range.  Line-numbers are decreasing.'
 005088                            32514  1                      END
 005088 5600 7B42            05AEC 32518  1                      O     R0,=X'C0000000'  X/Y RANGE
 00508C 1BFF                       32519  1                      CLEAR R15
 00508E                            32523                       END
                                   32527                       COMMENT                   IF X (Y) RANGE
 00508E 70E8/70E8/47F0_0508E 05014 32528                       ELSEIF ((@R1,EQ,'('),AND,(R0,GT,2)),BEGIN
 0050A2 94EF BD88      00D88       32571  1                      CLEAR CPFONEL
 0050A6 58E0 B08C/D2AF_      0008C 32578  1                      SCPUSH ,
 0050B4 5E10 7B06            05AB0 32584  1                      INCR  R1
 0050B8 0600                       32587  1                      DECR  R0
 0050BA 0600                       32589  1                      DECR  R0
 0050BC 58E0 B08C/501E_      0008C 32591  1                      SCINIT (R1),(R0)
 0050CA 5810 B08C/1B00_      0008C 32611  1                      SCAN  EX2COUNT
 00511C 58E0 7B0E/0DEE       05AB8 32643  1                      SCANCHK
 005122 58E0 B08C/4BD0_      0008C 32648  1                      SCPOP ,
 005130 1803                       32654  1                      LR    R0,R3
 005132 5600 7B4E            05AF8 32655  1                      O     R0,=X'40000000'
 005136 1BFF                       32656  1                      CLEAR R15
 005138                            32660                       END
                                   32664                       COMMENT                   IF NONE OF ABOVE,
 005138 7192/7192/47F0_05138 05098 32665                       ELSE  BEGIN
 00513C 58E0 B08C/4BD0_      0008C 32678  1                      SCPOP ,
 00514A 1804                       32684  1                      LR    R0,R4
 00514C 41F0 0004            00004 32685  1                      LA    R15,4
 005150                            32686                       END
 005150 5008 0004            00004 32690                       PRETURN R0
 005154 18D8/9808 D004_            32692                       PEND
 DROP   *,R7
                                   32712
 005164 4040404040404040_          32713              EX2SYMLN SCKW  ,MIS2LINE,NULL
 00518C 4040404040404040_          32728                       SCKW  ,EX2LINE,SYMLN
 0051B4 4040404040404040_          32743                       SCKW  ,NOT2LINE
                                   32758
1ACT      (ACT2025) (12:40) (15MAR04) DETRNG Routine                                                                        Page  141
0Current Usings:  (DRWA,R6) (CP,R11) (CV,R12)
0Loc    Object Code    Addr1 Addr2  Stmt Lv Lineno    Source Statement           (Hibal 5, Asmedit 3.3)  HLASM R4.0  2004/03/15 12.40
+___    ______ ____    _____ _____  ____ __ ______    ______ _________
00051DC 4040404040404040_          32759              EX2COUNT SCKW  ,MISCOUNT,NULL
 005204 4040404040404040_          32774                       SCKW  ,EXCOUNT,I
 00522C 4040404040404040_          32789                       SCKW  ,NOTCOUNT
                                   32804
 005254 50E0 D000/9008_      00000 32805              MIS2LINE PROC  ,
 USING  *,R7
 00526E 4110 78FF/4100_      05B6D 32844                       ERROR '/: invalid.  Incomplete range. '
 00527A 18D8/9808 D004_            32851                       PEND  ,
 DROP   *,R7
                                   32871
 005288 50E0 D000/9008_      00000 32872              EX2LINE  PROC  ,
 USING  *,R7
 0052A2 1830                       32911                       LR    R3,R0
 0052A4 5038 0010            00010 32912                       PRETURN R3
 0052A8 41F0 0004            00004 32914                       LA    R15,4
 0052AC 18D8/9808 D004_            32915                       PEND
 DROP   *,R7
                                   32935
 0052BA 50E0 D000/9008_      00000 32936              NOT2LINE PROC  ,
 USING  *,R7
 0052D4 58E0 77D4/0DEE       05AA8 32975                       VCALL NOTVALID
 0052DA 18D8/9808 D004_            32979                       PEND
 DROP   *,R7
                                   32999
 0052E8 50E0 D000/9008_      00000 33000              MISCOUNT PROC  ,
 USING  *,R7
 005302 4110 788A/4100_      05B8C 33039                       ERROR '( ): invalid.  Incomplete range. '
 00530E 18D8/9808 D004_            33046                       PEND  ,
 DROP   *,R7
                                   33066
 00531C 50E0 D000/9008_      00000 33067              EXCOUNT  PROC  ,
 USING  *,R7
 005336 1830                       33106                       LR    R3,R0
 005338 5810 B08C/1B00_      0008C 33107                       SCAN  ,
 005386 1200/4780 705C_            33138                       IF    (R0,NZ),'VCALL NOTVALID'
 005392 5038 0010            00010 33161                       PRETURN R3
 005396 41F0 0004            00004 33163                       LA    R15,4
 00539A 18D8/9808 D004_            33164                       PEND  ,
 DROP   *,R7
                                   33184
 0053A8 50E0 D000/9008_      00000 33185              NOTCOUNT PROC  ,
 USING  *,R7
 0053C2 58E0 76E6/0DEE       05AA8 33224                       VCALL NOTVALID
 0053C8 18D8/9808 D004_            33228                       PEND  ,
 DROP   *,R7
1ACT      (ACT2025) (12:40) (15MAR04) DETRNG Routine                                                                        Page  142
0Current Usings:  (DRWA,R6) (CP,R11) (CV,R12)
0Loc    Object Code    Addr1 Addr2  Stmt Lv Lineno    Source Statement           (Hibal 5, Asmedit 3.3)  HLASM R4.0  2004/03/15 12.40
+___    ______ ____    _____ _____  ____ __ ______    ______ _________
0                                  33249              *
                                   33250              *  ASSOCIATIVE RANGE STUFF
                                   33251              *
                                   33252              *
 0053D8 4040404040404040_          33253              DRSTR    SCKW  ,MISSQSTR,NULL
 005400 4040404040404040_          33268                       SCKW  ,HVVSTR,V(MQUOTE)
 005428 E740404040404040_          33283                       SCKW  X,HVVHEX
 005450 C340404040404040_          33298                       SCKW  C,HVVCTEX
 005478 D740404040404040_          33313                       SCKW  P,HVVPAT
 0054A0 5F40404040404040_          33328                       SCKW  ~,SETNOT
 0054C8 5FE7404040404040_          33343                       SCKW  ~X,HVVNHEX
 0054F0 5FC3404040404040_          33358                       SCKW  ~C,HVVNCTEX
 005518 5FD7404040404040_          33373                       SCKW  ~P,HVVNPAT
 005540 4040404040404040_          33388                       SCKW  ,INCMPSTR
                                   33403
 005568 4040404040404040_          33404              DRSTR2   SCKW  ,MISSQSTR,NULL
 005590 4040404040404040_          33419                       SCKW  ,HVVSTR,V(MQUOTE)
 0055B8 E740404040404040_          33434                       SCKW  X,HVVHEX
 0055E0 C340404040404040_          33449                       SCKW  C,HVVCTEX
 005608 D740404040404040_          33464                       SCKW  P,HVVPAT
 005630 4040404040404040_          33479                       SCKW  ,INCMPSTR
                                   33494
 005658 4040404040404040_          33495              DRSTR3   SCKW  ,MISSQSTR,NULL
 005680 4040404040404040_          33510                       SCKW  ,HVVSTR,V(MQUOTE)
 0056A8 4040404040404040_          33525                       SCKW  ,INCMPSTR
                                   33540
 0056D0 4040404040404040_          33541              DRCOL    SCKW  ,HVVCOL1,PI,&LINESZ
 0056F8 C9D5404040404040_          33556                       SCKW  IN,HVVIN
 005720 C1D5C44040404040_          33571                       SCKW  AND,HVVAND
 005748 D6D9404040404040_          33586                       SCKW  OR,HVVOR
 005770 4040404040404040_          33601                       SCKW  ,HVVOCCR,V(MPAREN)
 005798 4040404040404040_          33616                       SCKW  ,DRDONE
                                   33631
 0057C0 6140404040404040_          33632              DRCOL2   SCKW  /,HVVCOL2,(P,PI),&LINESZ
 0057E8 C9D5404040404040_          33647                       SCKW  IN,HVVIN
 005810 C1D5C44040404040_          33662                       SCKW  AND,HVVAND
 005838 D6D9404040404040_          33677                       SCKW  OR,HVVOR
 005860 4040404040404040_          33692                       SCKW  ,HVVOCCR,V(MPAREN)
 005888 4040404040404040_          33707                       SCKW  ,DRDONE
                                   33722
 0058B0 C9D5404040404040_          33723              DRCOL3   SCKW  IN,HVVIN
 0058D8 C1D5C44040404040_          33738                       SCKW  AND,HVVAND
 005900 D6D9404040404040_          33753                       SCKW  OR,HVVOR
 005928 4040404040404040_          33768                       SCKW  ,HVVOCCR,V(MPAREN)
 005950 4040404040404040_          33783                       SCKW  ,DRDONE
                                   33798
 005978 4040404040404040_          33799              DROLIST  SCKW  ,GTTAMOD,PI
 0059A0 4040404040404040_          33814                       SCKW  ,V(SCNINVAL)
                                   33829
 0059C8 6140404040404040_          33830              DROLIST2 SCKW  /,GTTBMOD,(P,PI)
 0059F0 4040404040404040_          33845                       SCKW  ,GTTAMOD,PI
 005A18 4040404040404040_          33860                       SCKW  ,V(SCNINVAL)
                                   33875
 005A40 C9D5404040404040_          33876              DRIN     SCKW  IN,HVVIN
1ACT      (ACT2025) (12:40) (15MAR04) DETRNG Routine                                                                        Page  143
0Current Usings:  (DRWA,R6) (CP,R11) (CV,R12)
0Loc    Object Code    Addr1 Addr2  Stmt Lv Lineno    Source Statement           (Hibal 5, Asmedit 3.3)  HLASM R4.0  2004/03/15 12.40
+___    ______ ____    _____ _____  ____ __ ______    ______ _________
0005A68 4040404040404040_          33891                       SCKW  ,DRDONE
1ACT      (ACT2025) (12:40) (15MAR04) DETRNG Routine                                                                        Page  144
0Current Usings:  (DRWA,R6) (CP,R11) (CV,R12)
0Loc    Object Code    Addr1 Addr2  Stmt Lv Lineno    Source Statement           (Hibal 5, Asmedit 3.3)  HLASM R4.0  2004/03/15 12.40
+___    ______ ____    _____ _____  ____ __ ______    ______ _________
0                                  33907                       QLTORG
1ACT      (ACT2025) (12:40) (15MAR04) DETRNG Routine                                                                        Page  145
0Current Usings:  (DRWA,R6) (CP,R11) (CV,R12)
0Loc    Object Code    Addr1 Addr2  Stmt Lv Lineno    Source Statement           (Hibal 5, Asmedit 3.3)  HLASM R4.0  2004/03/15 12.40
+___    ______ ____    _____ _____  ____ __ ______    ______ _________
0                                  33946              *
                                   33947              *  ASSOCIATIVE RANGE PROCESSING ROUTINES
                                   33948              *
 005BAE 50E0 D000/9008_      00000 33949              MISSQSTR PROC  ,
 USING  *,R7
 005BC8 4110 7828/4100_      063F0 33988                       ERROR 'Missing range.  Quoted string expected. '
 005BD4 18D8/9808 D004_            33995                       PEND
 DROP   *,R7
                                   34015
 005BE2 50E0 D000/9008_      00000 34016              INCMPSTR PROC  ,
 USING  *,R7
 005BFC 4110 78E8/4100_      064E4 34055                       TSEG  'Missing quoted string. ',,CR
 005C0E 58E0 7850/0DEE       0644C 34073                       VCALL NOTVALID
 005C14 18D8/9808 D004_            34077                       PEND
 DROP   *,R7
                                   34097
 005C22 50E0 D000/9008_      00000 34098              DRDONE   PROC  ,
 USING  *,R7
 005C3C 58E0 B08C/58FE_      0008C 34137                       SCBKUP
 005C72 41F0 0004            00004 34193                       LA    R15,4
 005C76 18D8/9808 D004_            34194                       PEND
 DROP   *,R7
                                   34214              *
                                   34215              * the following code handles the scan of strings in a range
                                   34216              * the registers used by this code are:
                                   34217              *        R3 = 0 for 'string' or 4 for ~'string'
                                   34218              *        R4 = 0 for first string, 8 if and is used or 16 for or
                                   34219              *        R5 = pointer to current string work area
                                   34220              *
                                   34221              * NOTE ABOVE NOW SET FROM FLAGS.  (YUCK AND MUCK, WAS ONCE WORSE)
                                   34222              *
                                   34223              *
 005C84 50E0 D000/9008_      00000 34224              HVVAND   PROC  ,
 USING  *,R7
 005C9E 9140 6000/47E0_00000       34263                       IF    DRFOR,BEGIN
 005CA6 D207 B886 777A_00886 06418 34278  1                      ERROR 'Mixed AND/OR is not allowed in a range.',,MIXANDOR
 005CB8                            34286                       END
 005CB8 9680 6000      00000       34290                       SET   DRFAND
 005CBC 9200 6001      00001       34296                       CLEAR DRFLAG2
 005CC0 9680 6002      00002       34303                       SET   DRFNEEDS
 005CC4 58E0 B08C/D203_      0008C 34309                       SETSCKWS DRSTR
 005CD2 1BFF                       34322                       CLEAR R15
 005CD4 18D8/9808 D004_            34326                       PEND
 DROP   *,R7
                                   34346
 005CE2 50E0 D000/9008_      00000 34347              HVVOR    PROC  ,
 USING  *,R7
 005CFC 9180 6000/47E0_00000       34386                       IF    DRFAND,BEGIN
 005D04 D207 B886 771C_00886 06418 34401  1                      ERROR 'Mixed AND/OR is not allowed in a range.',,MIXANDOR
 005D16                            34409                       END
 005D16 9640 6000      00000       34413                       SET   DRFOR
 005D1A 9200 6001      00001       34419                       CLEAR DRFLAG2
 005D1E 9680 6002      00002       34426                       SET   DRFNEEDS
 005D22 58E0 B08C/D203_      0008C 34432                       SETSCKWS DRSTR
1ACT      (ACT2025) (12:40) (15MAR04) DETRNG Routine                                                                        Page  146
0Current Usings:  (DRWA,R6) (*,R7) (CP,R11) (CV,R12)
0Loc    Object Code    Addr1 Addr2  Stmt Lv Lineno    Source Statement           (Hibal 5, Asmedit 3.3)  HLASM R4.0  2004/03/15 12.40
+___    ______ ____    _____ _____  ____ __ ______    ______ _________
0005D30 1BFF                       34445                       CLEAR R15
 005D32 18D8/9808 D004_            34449                       PEND
 DROP   *,R7
                                   34469
 005D40 50E0 D000/9008_      00000 34470              HVVIN    PROC
 USING  *,R7
 005D5A 9620 6000      00000       34509                       SET   DRFIN
 005D5E 9640 6002      00002       34515                       SET   DRFNEEDX
 005D62 58E0 B08C/D203_      0008C 34521                       SETSCKWS EXRNG
 005D70 1BFF                       34534                       CLEAR R15
 005D72 18D8/9808 D004_            34538                       PEND
 DROP   *,R7
                                   34558
 005D80 50E0 D000/9008_      00000 34559              SETNOT   PROC  ,
 USING  *,R7
 005D9A 9680 6001      00001       34598                       SET   DRFNOT
 005D9E 9680 6002      00002       34604                       SET   DRFNEEDS
 005DA2 58E0 B08C/D203_      0008C 34610                       SETSCKWS DRSTR2
 005DB0 1BFF                       34623                       CLEAR R15
 005DB2 18D8/9808 D004_            34627                       PEND  ,
 DROP   *,R7
                                   34647
 005DC0 50E0 D000/9008_      00000 34648              HVVCTEX  PROC
 USING  *,R7
 005DDA 9640 6001      00001       34687                       SET   DRFCTEXT
 005DDE 9680 6002      00002       34693                       SET   DRFNEEDS
 005DE2 58E0 B08C/D203_      0008C 34699                       SETSCKWS DRSTR3           SCAN STRING
 005DF0 1BFF                       34712                       CLEAR R15
 005DF2 18D8/9808 D004_            34716                       PEND  ,
 DROP   *,R7
                                   34736
 005E00 50E0 D000/9008_      00000 34737              HVVNCTEX PROC
 USING  *,R7
 005E1A 9680 6001      00001       34776                       SET   DRFNOT
 005E1E 9640 6001      00001       34782                       SET   DRFCTEXT
 005E22 9680 6002      00002       34788                       SET   DRFNEEDS
 005E26 58E0 B08C/D203_      0008C 34794                       SETSCKWS DRSTR3           SCAN STRING
 005E34 1BFF                       34807                       CLEAR R15
 005E36 18D8/9808 D004_            34811                       PEND  ,
 DROP   *,R7
                                   34831
 005E44 50E0 D000/9008_      00000 34832              HVVHEX   PROC
 USING  *,R7
 005E5E 9620 6001      00001       34871                       SET   DRFHEX
 005E62 9680 6002      00002       34877                       SET   DRFNEEDS
 005E66 58E0 B08C/D203_      0008C 34883                       SETSCKWS DRSTR3           SCAN STRING
 005E74 1BFF                       34896                       CLEAR R15
 005E76 18D8/9808 D004_            34900                       PEND  ,
 DROP   *,R7
                                   34920
 005E84 50E0 D000/9008_      00000 34921              HVVNHEX  PROC
 USING  *,R7
 005E9E 9680 6001      00001       34960                       SET   DRFNOT
 005EA2 9620 6001      00001       34966                       SET   DRFHEX
1ACT      (ACT2025) (12:40) (15MAR04) DETRNG Routine                                                                        Page  147
0Current Usings:  (DRWA,R6) (*,R7) (CP,R11) (CV,R12)
0Loc    Object Code    Addr1 Addr2  Stmt Lv Lineno    Source Statement           (Hibal 5, Asmedit 3.3)  HLASM R4.0  2004/03/15 12.40
+___    ______ ____    _____ _____  ____ __ ______    ______ _________
0005EA6 9680 6002      00002       34972                       SET   DRFNEEDS
 005EAA 58E0 B08C/D203_      0008C 34978                       SETSCKWS DRSTR3           SCAN STRING
 005EB8 1BFF                       34991                       CLEAR R15
 005EBA 18D8/9808 D004_            34995                       PEND  ,
 DROP   *,R7
                                   35015
 005EC8 50E0 D000/9008_      00000 35016              HVVPAT   PROC
 USING  *,R7
 005EE2 9610 6001      00001       35055                       SET   DRFPAT
 005EE6 9680 6002      00002       35061                       SET   DRFNEEDS
 005EEA 58E0 B08C/D203_      0008C 35067                       SETSCKWS DRSTR3           SCAN STRING
 005EF8 1BFF                       35080                       CLEAR R15
 005EFA 18D8/9808 D004_            35084                       PEND  ,
 DROP   *,R7
                                   35104
 005F08 50E0 D000/9008_      00000 35105              HVVNPAT  PROC
 USING  *,R7
 005F22 9680 6001      00001       35144                       SET   DRFNOT
 005F26 9610 6001      00001       35150                       SET   DRFPAT
 005F2A 9680 6002      00002       35156                       SET   DRFNEEDS
 005F2E 58E0 B08C/D203_      0008C 35162                       SETSCKWS DRSTR3           SCAN STRING
 005F3C 1BFF                       35175                       CLEAR R15
 005F3E 18D8/9808 D004_            35179                       PEND  ,
 DROP   *,R7
                                   35199              *
                                   35200              *  HAVE STRING
                                   35201              *
 USING  ASRWA,R5                   35202                       USING ASRWA,R5
                                   35211
 005F4C 50E0 D000/9008_      00000 35212              HVVSTR   PROC  ,
 USING  *,R7
 005F66 9120 6000/47E0_00000       35251                       IF    DRFIN,BEGIN         EXPL. RANGE EXPECTED ("IN" SCANND)
 005F6E 4110 74BA/4100_      06420 35266  1                      ERROR 'Missing explicit range. '
 005F7A                            35273                       END
 005F7A 9200 BD88      00D88       35277                       CLEAR CPFRDRNG
 005F7E 9640 BD88      00D88       35284                       SET   CPFSTRRG            Set associative range
 005F82 947F 6002      00002       35290                       CLEAR DRFNEEDS            CLEAR NEED STRING FLAG
 005F86 5850 BDA4            00DA4 35297                       L     R5,CPSTAD           R5 IS LAST ASRWA POINTER
 005F8A 1255/4780 704C             35298                       IF    (R5,NZ),BEGIN
 005F90 1B44                       35312  1                      CLEAR R4
 005F92 9180 6000/47E0_00000       35316  1                      IF    (DRFAND),'LA R4,8'
 005F9E 9140 6000/47E0_00000       35337  1                      IF    (DRFOR),'LA R4,16'
 005FAA 4A40 5006            00006 35358  1                      AH    R4,ASRBVAL          Calc. string type
 005FAE 4040 5006            00006 35359  1                      STH   R4,ASRBVAL          Save (in prev. asrwa)
 005FB2                            35360                       END
                                   35364                       ¿þþþþþþþþþþþþþþþþþþþþþþþþþþþþþþþþþþþþþþþþþþþþþþþþþþþþþþþþþþþþþþþÜ
                                   35365                       Ÿ  GET A RANGE INFO AREA FROM HEAP, AND LINK IT TO OTHER AREAS  Ÿ
                                   35366                       ¾þþþþþþþþþþþþþþþþþþþþþþþþþþþþþþþþþþþþþþþþþþþþþþþþþþþþþþþþþþþþþþþ»
 005FB2 9001 D000/41D0_      00000 35367                       XPUSH R0,R1               Save scan pointers
 005FBA 1830                       35370                       LR    R3,R0               String len (with quotes and all)
 005FBC 4100 300E            0000E 35371                       LA    R0,L'ASRWA+(@R3-2)  Range work area max length
 005FC0 9110 6001/47E0_00001       35372                       IF    (DRFPAT),BEGIN
 005FC8 4100 00E2            000E2 35387  1                      LA    R0,L'ASRWA+&PATMAX+10  Max. (w/slop)
 005FCC                            35388                       END   ,
1ACT      (ACT2025) (12:40) (15MAR04) DETRNG Routine                                                                        Page  148
0Current Usings:  (ASRWA,R5) (DRWA,R6) (*,R7) (CP,R11) (CV,R12)
0Loc    Object Code    Addr1 Addr2  Stmt Lv Lineno    Source Statement           (Hibal 5, Asmedit 3.3)  HLASM R4.0  2004/03/15 12.40
+___    ______ ____    _____ _____  ____ __ ______    ______ _________
0005FCC 58E0 74FA/0DEE       06460 35392                       VCALL GETHEAP             Returns, r1 - addr, r0 - length
 005FD2 4130 5000            00000 35396                       LA    R3,ASRWA            R3 - PREVIOUS ASRWA
 005FD6 1851                       35397                       LR    R5,R1               R5 - NEW ASRWA
 005FD8 D70F 5000 5000 00000 00000 35398                       CLEAR ASRWA               Init
 005FDE 5031 0000            00000 35405                       ST    R3,ASRPTR-ASRWA(R1) Set backward link
 005FE2 5050 BDA4            00DA4 35406                       ST    R5,CPSTAD           (we later change to forward links)
 005FE6 4BD0 753E/9801_      064A4 35407                       XPOP  R0,R1
                                   35410                       ¿þþþþþþþþþþþþþþþþþþþþþÜ
                                   35411                       Ÿ  SET UP RANGE INFO  Ÿ
                                   35412                       ¾þþþþþþþþþþþþþþþþþþþþþ»
 005FEE 1B33                       35413                       CLEAR R3
 005FF0 9180 6001/47E0_00001       35417                       IF    (DRFNOT),' LA R3,4 '
 005FFC 4030 5006            00006 35438                       STH   R3,ASRBVAL          Save string type
                                   35439
 006000 9140 6001/47E0_00001       35440                       IF    (DRFCTEXT),BEGIN    C'STRING'
 006008 9610 5004      00004       35455  1                      SET   ASRFLAG.ASRFTEXT    Indicate ignore case
 00600C 41F0 5010            00010 35462  1                      LA    R15,ASRSTRNG        Put string here ...
 006010 58E0 74FE/0DEE       06464 35463  1                      VCALL DEQSTR              Remove quotes
 006016 47B0 70BA/58E0_      06020 35467  1                      IF    M,'VCALL NOTVALID'
 006020 12F0                       35487  1                      LTR   R15,R0
 006022 47D0 70CA            06030 35488  1                      IF    NP,EXIT             Nothing, scram
 006026 58E0 C8A8            008A8 35502  1                      L     R14,CVUPPTBL
 00602A 06F0/44F0 7634_            35503  1                      DEX   R15,'TR @R1(0),@R14'    convert to caps
 006030                            35522                       END
                                   35526
 006030 70CE/47F0 70E8_06030 06006 35527                       ELSEIF (DRFPAT),BEGIN
 00603C 9608 5004      00004       35551  1                      SET   ASRFLAG.ASRFPAT     Indicate Pattern
 006040 41F0 5010            00010 35558  1                      LA    R15,ASRSTRNG        Put string here ...
 006044 58E0 7502/0DEE       06468 35559  1                      ACALL PENCODE             Encode the pattern
 00604A 40F0 500C            0000C 35563  1                      STH   R15,ASRPLEN         Save minumum match len
 00604E                            35564                       END
                                   35568
 00604E 70EC/47F0 711E_0604E 0603A 35569                       ELSEIF (DRFHEX),BEGIN               Hex...
 00605A 41F0 5010            00010 35593  1                      LA    R15,ASRSTRNG        Put string here ...
 00605E 58E0 7506/0DEE       0646C 35594  1                      VCALL HEXSTR
 006064 47B0 711E/41F0_      06084 35598  1                      IF    NEG,'TSEG (R1),(R0); ERROR ": invalid hex.",,INVHEX'
 006084                            35646                       END
                                   35650
 006084 7122/47F0 7136 06084 06058 35651                       ELSE  BEGIN               SIMPLE STRING ...
 006088 41F0 5010            00010 35662  1                      LA R15,ASRSTRNG
 00608C 58E0 74FE/0DEE       06464 35663  1                      VCALL DEQSTR
 006092 47B0 7136/58E0_      0609C 35667  1                      IF    M,'VCALL NOTVALID'
 00609C                            35687                       END
                                   35691
 00609C 12F0                       35692                       LTR   R15,R0              Resulting string len
 00609E 4770 7140/9680_      060A6 35693                       IF    Z,'SET ASRFLAG.ASRFBLKR'  set null string
 0060A6 7144/47F0 714A_060A6 060A0 35716                       ELSE  'DECR R0; STH R0,ASRSTRLN'  save string len-1
                                   35735
 0060B0 58E0 B08C/D203_      0008C 35736                       SETSCKWS DRCOL            SCAN FOR COL OPTIONS
 0060BE 1BFF                       35749                       CLEAR R15
 0060C0 18D8/9808 D004_            35753                       PEND
 DROP   *,R7
1ACT      (ACT2025) (12:40) (15MAR04) DETRNG Routine                                                                        Page  149
0Current Usings:  (ASRWA,R5) (DRWA,R6) (CP,R11) (CV,R12)
0Loc    Object Code    Addr1 Addr2  Stmt Lv Lineno    Source Statement           (Hibal 5, Asmedit 3.3)  HLASM R4.0  2004/03/15 12.40
+___    ______ ____    _____ _____  ____ __ ______    ______ _________
00060CE 50E0 D000/9008_      00000 35774              HVVCOL1  PROC  ,
 USING  *,R7
 0060E8 5850 BDA4            00DA4 35813                       L     R5,CPSTAD
 0060EC 1200/47D0 7012_            35814                       IF    ((R0,NP),OR,(R0,GT,&LINESZ-1)),BEGIN
 0060FA 4110 743A/4100_      06522 35844  1                      ERROR 'Invalid column specification.'
 006106                            35851                       END
 006106 5B00 7394            0647C 35855                       S     R0,=F'1'            Reduce by one
 00610A 4000 5008            00008 35856                       STH   R0,ASRSCOL          Save start position
 00610E 4820 500E            0000E 35857                       LH    R2,ASRSTRLN         String len
 006112 1A20                       35858                       AR    R2,R0               Plus start
 006114 4920 73CC            064B4 35859                       CH    R2,=AL2(&LINESZ-1)  Possible?
 006118 47D0 703A/58E0_      06122 35860                       IF    H,'VCALL NOTVALID'  No
 006122 9640 5004      00004       35880                       OI    ASRFLAG,ASRFONER    Set string start pos given
 006126 9180 5004      00004       35881                       TM    ASRFLAG,ASRFBLKR    Was this blank (null) string
 00612A 47E0 704C/58E0_      06134 35882                       IF    O,'VCALL NOTVALID'  Yes, start position invalid
 006134 58E0 B08C/D203_      0008C 35902                       SETSCKWS DRCOL2
 006142 1BFF                       35915                       CLEAR R15
 006144 18D8/9808 D004_            35919                       PEND  ,
 DROP   *,R7
                                   35939
 006152 50E0 D000/9008_      00000 35940              HVVCOL2  PROC  ,
 USING  *,R7
 00616C 5850 BDA4            00DA4 35979                       L     R5,CPSTAD
 006170 4B00 5008            00008 35980                       SH    R0,ASRSCOL          Length + one containing str
 006174 4720 7012/58E0_      0617E 35981                       IF    NP,'VCALL NOTVALID' Ng
 00617E 9108 5004/4710_00004       36001                       IF    ~ASRFLAG.ASRFPAT,BEGIN
 006186 4B00 500E            0000E 36017  1                      SH    R0,ASRSTRLN         Length possible start chars
 00618A 4720 7034            061A0 36018  1                      IF    NP,BEGIN
 00618E 4110 73D3/4100_      0653F 36029  2                        SETMSG 'String is too long to fit within specified columns.'
 006196 D207 B886 72D4_00886 06440 36033  2                        ERROR (R1),(R0),BIGSTRRG
 0061A0                            36047  1                      END
 0061A0 7038/47F0 7056 061A0 06184 36051                       END   ELSE,BEGIN
 0061A4 4B00 500C            0000C 36066  1                      SH    R0,ASRPLEN          Length possible start chars
 0061A8 4A00 734A            064B6 36067  1                      AH    R0,=H'1'            Adjust
 0061AC 4720 7056            061C2 36068  1                      IF    NP,BEGIN
 0061B0 4110 73D3/4100_      0653F 36079  2                        SETMSG 'String is too long to fit within specified columns.'
 0061B8 D207 B886 72D4_00886 06440 36083  2                        ERROR (R1),(R0),BIGSTRRG
 0061C2                            36097  1                      END
 0061C2                            36101                       END   ,
 0061C2 4000 500A            0000A 36105                       STH   R0,ASRCOMP          Stor max no. of compares
 0061C6 9760 5004      00004       36106                       XI    ASRFLAG,ASRFLIMR+ASRFONER  set for limited scan
 0061CA 58E0 B08C/D203_      0008C 36107                       SETSCKWS DRCOL3
 0061D8 1BFF                       36120                       CLEAR R15
 0061DA 18D8/9808 D004_            36124                       PEND
 DROP   *,R7
                                   36144
 DROP   ASRWA,R5                   36145                       DROP  R5
                                   36152
1ACT      (ACT2025) (12:40) (15MAR04) DETRNG Routine                                                                        Page  150
0Current Usings:  (DRWA,R6) (CP,R11) (CV,R12)
0Loc    Object Code    Addr1 Addr2  Stmt Lv Lineno    Source Statement           (Hibal 5, Asmedit 3.3)  HLASM R4.0  2004/03/15 12.40
+___    ______ ____    _____ _____  ____ __ ______    ______ _________
0                                  36154              *
                                   36155              *  PROCESS OCCURANCE LIST IN PARENS
                                   36156              *  OR WE ARE AT END OF RANGE SPECIFICATION
                                   36157              *
                                   36158              *  NOTE:
                                   36159              *  FOR SOME REASON, OCCURANCE LIST IS REFERED TO IN CODE AS MOD
                                   36160              *  LIST, SO COMMENTS ABOUT GTTAMOD ARE SAME AS GOTAOCCURANCE
                                   36161              *
 0061E8 50E0 D000/9008_      00000 36162              HVVOCCR  PROC  ,
 USING  *,R7
                                   36201
                                   36202                       COMMENT                   IF NOT (..,  END RANGE SCAN
 006202 954D 1000/4780_00000       36203                       IF    (@R1,NE,'('),BEGIN
 00620A 58E0 B08C/58FE_      0008C 36219  1                      SCBKUP
 006240 41F0 0004            00004 36275  1                      LA    R15,4
 006244 47F0 7046            06248 36276  1                      EXIT
 006248                            36279                       END
                                   36283
                                   36284                       COMMENT                   SCAN INSIDE PARENS (OCCUR L.)
 006248 58E0 B08C/D2AF_      0008C 36285                       SCPUSH ,                Temp detrng ptr save
 006256 4B00 72B6            064B8 36291                       SH    R0,=H'2'            Strip pars
 00625A 4720 7062/58E0_      06264 36292                       IF    NP,'VCALL NOTVALID' Invalid msg
 006264 4110 1001            00001 36312                       LA    R1,@R1+1            Kick ptr
 006268 58E0 B08C/501E_      0008C 36313                       SCINIT (R1),(R0)          Init inside parens
 006276 9608 BD88      00D88       36333                       SET   CPFMODS             Set mod indicator
 00627A 1B55                       36339                       SR    R5,R5               Zero mod count
 00627C 5050 BDA8            00DA8 36340                       ST    R5,CPMDLN           Init
 006280 4140 BDA8            00DA8 36341                       LA    R4,CPMDAD-4         And set addr
 006284 5810 B08C/1B00_      0008C 36342                       SCAN  DROLIST             SCAN OCCURANCE LIST
 0062D6 58E0 728E/0DEE       06490 36374                       SCANCHK                   Done
 0062DC 58E0 B08C/4BD0_      0008C 36379                       SCPOP
 0062EA 58E0 B08C/D203_      0008C 36385                       SETSCKWS DRIN
 0062F8 1BFF                       36398                       CLEAR R15
 0062FA 18D8/9808 D004_            36402                       PEND  ,
 DROP   *,R7
                                   36422
 006308 50E0 D000/9008_      00000 36423              GTTAMOD  PROC  ,
 USING  *,R7
 006322 5850 BDA8            00DA8 36462                       L     R5,CPMDLN
 006326 5950 7176/4750_      06498 36463                       IF    (R5,GE,10),BEGIN
 00632E 4110 719C/4100_      064BE 36480  1                      ERROR 'Range modification list too big. (>10)'
 00633A                            36487                       END
 00633A 1845                       36491                       LR    R4,R5
 00633C 8940 0002            00002 36492                       SLL   R4,2
 006340 4004 BDAC            00DAC 36493                       STH   R0,CPMDAD(R4)
 006344 4004 BDAE            00DAE 36494                       STH   R0,CPMDAD+2(R4)
 006348 1255/47D0 7048             36495                       IF    (R5,POS),BEGIN
 00634E 1845                       36509  1                      LR    R4,R5
 006350 0640                       36510  1                      DECR  R4
 006352 8940 0002            00002 36512  1                      SLL   R4,2
 006356 4904 BDAE            00DAE 36513  1                      CH    R0,CPMDAD+2(R4)
 00635A 4720 7048            0636A 36514  1                      IF    NH,BEGIN
 00635E 4110 7250/4100_      06572 36525  2                        ERROR 'Range modification list not ascending. '
 00636A                            36532  1                      END
1ACT      (ACT2025) (12:40) (15MAR04) DETRNG Routine                                                                        Page  151
0Current Usings:  (DRWA,R6) (*,R7) (CP,R11) (CV,R12)
0Loc    Object Code    Addr1 Addr2  Stmt Lv Lineno    Source Statement           (Hibal 5, Asmedit 3.3)  HLASM R4.0  2004/03/15 12.40
+___    ______ ____    _____ _____  ____ __ ______    ______ _________
000636A                            36536                       END
 00636A 5850 BDA8            00DA8 36540                       L     R5,CPMDLN
 00636E 5E50 717A            0649C 36541                       INCR  R5
 006372 5050 BDA8            00DA8 36544                       ST    R5,CPMDLN
 006376 58E0 B08C/D203_      0008C 36545                       SETSCKWS DROLIST2         Look for slash or next mod
 006384 1BFF                       36558                       CLEAR R15
 006386 18D8/9808 D004_            36562                       PEND  ,
 DROP   *,R7
                                   36582
 006394 50E0 D000/9008_      00000 36583              GTTBMOD  PROC  ,
 USING  *,R7
 0063AE 5840 BDA8            00DA8 36622                       L     R4,CPMDLN
 0063B2 0640                       36623                       DECR  R4
 0063B4 8940 0002            00002 36625                       SLL   R4,2
 0063B8 4904 BDAC            00DAC 36626                       CH    R0,CPMDAD(R4)
 0063BC 4720 701E            063CC 36627                       IF    NH,BEGIN
 0063C0 4110 71C4/4100_      06572 36638  1                      ERROR 'Range modification list not ascending. '
 0063CC                            36645                       END
 0063CC 4004 BDAE            00DAE 36649                       STH   R0,CPMDAD+2(R4)
 0063D0 58E0 B08C/D203_      0008C 36650                       SETSCKWS DROLIST
 0063DE 1BFF                       36663                       CLEAR R15
 0063E0 18D8/9808 D004_            36667                       PEND  ,
 DROP   *,R7
 DROP   DRWA,R6                    36687                       DROP  R6
1ACT      (ACT2025) (12:40) (15MAR04) DETRNG Routine                                                                        Page  152
0Current Usings:  (CP,R11) (CV,R12)
0Loc    Object Code    Addr1 Addr2  Stmt Lv Lineno    Source Statement           (Hibal 5, Asmedit 3.3)  HLASM R4.0  2004/03/15 12.40
+___    ______ ____    _____ _____  ____ __ ______    ______ _________
0                                  36695                       QLTORG ,                  ,,, DEBUG OF DETRNG
1ACT      (ACT2025) (12:40) (15MAR04) DETRNG Routine                                                                        Page  153
0Current Usings:  (CP,R11) (CV,R12)
0Loc    Object Code    Addr1 Addr2  Stmt Lv Lineno    Source Statement           (Hibal 5, Asmedit 3.3)  HLASM R4.0  2004/03/15 12.40
+___    ______ ____    _____ _____  ____ __ ______    ______ _________
0                                  36750                       AIF   (&$PCODE).NODETRNG
                                   36751              *
                                   36752              *  OLD DETRNG  (RANGE SCANNING)
                                   36753              *
 0065A0 50E0 D000/9028_      00000 36754              ZDETRNG  XENTER R2,R8,40
 USING  *,R7
 0065BA 94FB BD50      00D50       36773                       CLEAR CPLFLG1.CPFALLV     ALL not defaulted (yet)
                                   36781
                                   36782                       COMMENT                   Where is range to be selected
 0065BE 9503 BD89/4780_00D89       36783                       IF    CPFRDEXT,SETEXT     Branch if external
 0065C6 9502 BD89/4780_00D89       36801                       IF    CPFRDEXE,SETEXEC    Branch if execute
 0065CE 9501 BD89/4780_00D89       36819                       IF    CPFRDACT,SETACT
                                   36837              *                                  otherwise, it is active file
 0065D6 D603 B5AC B5AC_005AC 005AC 36838              SETACT   IF    (CPALNCT,Z),ITSNIL  Active file is empty
 0065E0 D207 BD90 B5A0 00D90 005A0 36858                       MVC   CPFSLN(8),CPAFLNO   Save FIRST,LAST linenos
 0065E6 47F0 705A            06614 36859                       B     NOTNIL
                                   36860
 0065EA D703 BD90 BD90 00D90 00D90 36861              SETEXT   CLEAR CPFSLN              Set default
 0065F0 D203 BD94 C15C 00D94 0015C 36869                       MVC   CPFSLN+4,CVMAXLNO   All for external file
 0065F6 47F0 705A            06614 36870                       B     NOTNIL
                                   36871
 0065FA 58E0 77FE/0DEE       06DB8 36872              SETEXEC  VCALL EXECHK              Make sure there is an EXEC file
 006600 58E0 7802/0DEE       06DBC 36876                       VCALL EXFRSTLN            Get FIRST lineno
 006606 5000 BD90            00D90 36880                       ST    R0,CPFSLN           Save FIRST
 00660A 58E0 7806/0DEE       06DC0 36881                       VCALL EXLASTLN            Get LAST lineno
 006610 5000 BD94            00D94 36885                       ST    R0,CPLSLN           Save LAST
                                   36886
 006614 9200 BD88      00D88       36887              NOTNIL   CLEAR CPFRDRNG
 006618 9680 BD88      00D88       36895                       SET   CPFEXPRG            Set explicit range
 00661C 4160 7404            069BE 36901                       LA    R6,HVFRSNO          Set for line number found
 006620 4120 7651            06C0B 36902                       LA    R2,EXRPRT0          First prt addr
 006624 1B33                       36903                       CLEAR R3                  Set R3 for normal string
 006626 1B44                       36907                       CLEAR R4                  Set R4 for first string
 006628 D205 BC94 BCA8 00C94 00CA8 36911              DETSCAN  OSCSAVE ,                 Save temp detrng scan pointers
 00662E 1812                       36913                       LR    R1,R2               Set current prt addr
 006630 58E0 780A/0DEE       06DC4 36914              GOSCAN   OSCAN (R1)                Scan
 006636 4740 C7E4            007E4 36925                       BM    CVNVALID            Ng
                                   36926
 00663A 9140 BD88/4710_00D88       36927              CKIFLPRM IF    ~CPFSTRRG,BEGIN     Not string range...
 006642 9110 BD50/4710_00D50       36943  1                      IF    ~CPLFLG1.CPFALL,BEGIN
 00664A 4110 78F8/4100_      06EB2 36959  2                        TSEG  'Missing range'
 00665C D207 B886 77C6 00886 06D80 36977  2                        MVC   CPERRID,=CL8'MISSRNG'
 006662 4110 7905/4100_      06EBF 36978  2                        SETMSG '.'
 00666A 95C4 BD24/4770_00D24       36982  2                        IF    (CPCMNM,EQ,'D'),'SETMSG " for DELETE."'
 00667A 95D1 BD24/4770_00D24       37008  2                        IF    (CPCMNM,EQ,'J'),'SETMSG " for JOIN."'
 00668A 95E2 BD24/4770_00D24       37034  2                        IF    (CPCMNM,EQ,'S'),'SETMSG " for SPLIT."'
 00669A 95D9 BD24/4770_00D24       37060  2                        IF    (CPCMNM,EQ,'R'),'SETMSG " for REPLACE."'
 0066AA D502 791E BD24_06ED8 00D24 37086  2                        IF    (CPCMNM,EQ,'MOV'),'SETMSG " for MOVE."'
 0066BC D502 7921 BD24_06EDB 00D24 37112  2                        IF    (CPCMNM,EQ,'ALI'),'SETMSG " for ALIGN."'
 0066CE D502 792F BD24_06EE9 00D24 37138  2                        IF    (CPCMNM,EQ,'JUS'),'SETMSG " for JUSTIFY."'
 0066E0 D502 793F BD24_06EF9 00D24 37164  2                        IF    (CPCMNM,EQ,'CEN'),'SETMSG " for CENTER."'
 0066F2 47F0 C7C8            007C8 37190  2                        B     CVERRMSG
 0066F6                            37191  1                      END
 0066F6 94EF BD50      00D50       37195  1                      CLEAR CPLFLG1.CPFALL      Turn off default indicator
1ACT      (ACT2025) (12:40) (15MAR04) DETRNG Routine                                                                        Page  154
0Current Usings:  (*,R7) (CP,R11) (CV,R12)
0Loc    Object Code    Addr1 Addr2  Stmt Lv Lineno    Source Statement           (Hibal 5, Asmedit 3.3)  HLASM R4.0  2004/03/15 12.40
+___    ______ ____    _____ _____  ____ __ ______    ______ _________
00066FA 9604 BD50      00D50       37203  1                      SET   CPLFLG1.CPFALLV     ALL was specified/defaulted
 0066FE                            37210                       END
 0066FE D205 BCA8 BC94 00CA8 00C94 37214              RESTORS  OSCRSTR
 006704 47F0 7152            0670C 37216                       B     DETXIT
                                   37217
 006708 9604 BD50      00D50       37218              DETALL   SET   CPLFLG1.CPFALLV     ALL specified (explicitly)
 00670C 18D8/58E0 D000_            37226              DETXIT   XEXIT
1ACT      (ACT2025) (12:40) (15MAR04) DETRNG Routine                                                                        Page  155
0Current Usings:  (*,R7) (CP,R11) (CV,R12)
0Loc    Object Code    Addr1 Addr2  Stmt Lv Lineno    Source Statement           (Hibal 5, Asmedit 3.3)  HLASM R4.0  2004/03/15 12.40
+___    ______ ____    _____ _____  ____ __ ______    ______ _________
0                                  37232              * the following code handles the scan of strings in a range
                                   37233              * the registers used by this code are:
                                   37234              *        R3 = 0 for 'string' or 4 for ~'string'
                                   37235              *        R4 = 0 for first string, 8 if and is used or 16 for or
                                   37236              *        R5 = pointer to current string work area
                                   37237              *
 USING  ASRWA,R5                   37238                       USING ASRWA,R5
                                   37247
 006718 4130 0004            00004 37248              SETNOTT  LA    R3,4                set R3 for ~'string'
 00671C 4120 767C            06C36 37249                       LA    R2,EXRPRTA          Set to next prt to use
 006720 1812/58E0 780A_            37250              SCANSTR  OSCAN (R2)                Scan next token
 006728 47F0 C7E4            007E4 37262                       B     CVNVALID            Error if nothing
                                   37263
 00672C 4100 0008            00008 37264              HAVAND   LA    R0,8                Set for "and" found
 006730 47F0 717E            06738 37265                       B     HAVANDOR            Go to common and/or code
                                   37266
 006734 4100 0010            00010 37267              HAVOR    LA    R0,16               Set for "or" found
 006738 1B33                       37268              HAVANDOR CLEAR R3                  set R3 for normal 'string'
 00673A 4120 7627            06BE1 37273                       LA    R2,RNGPRT5A         Set R2 to next prt to use
 00673E 1904                       37274                       CR    R0,R4               Check for mixed and-or
 006740 4780 7166            06720 37275                       BE    SCANSTR             Ok if same
 006744 1244                       37276                       LTR   R4,R4               Is this first and-or
 006746 1840                       37277                       LR    R4,R0               Set R4 to and-or
 006748 4780 7166            06720 37278                       BE    SCANSTR             Ok if first and-or
 00674C D207 B886 77CE_00886 06D88 37279                       ERROR 'Mixed AND/OR is not allowed in a range.',,MIXANDOR
                                   37287
 00675E 4130 0004            00004 37288              HAVNHEX  LA    R3,4                set R3 for ~'string'
 006762 41F0 0004            00004 37289              HAVHEX   LA    R15,4               This is hex
 006766 47F0 71CA            06784 37290                       B     HAVASSC1
                                   37291
 00676A 4130 0004            00004 37292              HAVNTEX  LA    R3,4                set R3 for ~c'string'
 00676E 48F0 787E            06E38 37293              HAVTEX   LH    R15,=H'-4'          THIS IS T'STRING'
 006772 47F0 71CA            06784 37294                       B     HAVASSC1
                                   37295
 006776 4130 0004            00004 37296              HAVNPAT  LA    R3,4                set R3 for ~p'string'
 00677A 48F0 7880            06E3A 37297              HAVPAT   LH    R15,=H'-8'          This is P'string'
 00677E 47F0 71CA            06784 37298                       B     HAVASSC1
                                   37299
 006782 1BFF                       37300              HAVASSC  CLEAR R15                 String (not hex)
 006784 1222/4780 C7E4             37305              HAVASSC1 IF    (R2,Z),CVNVALID     Expl. range expected ("in" scanned)
 00678A 1233/4770 71EC_            37323                       IF    ((R3,Z),AND,(R4,Z)),BEGIN  first string...
 006796 957D 1000/4780_00000       37350  1                      IF    ((@R1,NE,''''),AND,(@R1,NE,'"')),CKIFLPRM
 0067A6                            37384                       END
                                   37388                       ¿þþþþþþþþþþþþþþþþþþþþþþþþþþþþþþþþþþþÜ
                                   37389                       Ÿ  GET A RANGE INFO AREA FROM HEAP  Ÿ
                                   37390                       ¾þþþþþþþþþþþþþþþþþþþþþþþþþþþþþþþþþþþ»
 0067A6 9001 D000/41D0_      00000 37391                       XPUSH R0,R1               Save scan pointers
 0067AE 1820                       37394                       LR    R2,R0               String len (with quotes and all)
 0067B0 4100 200E            0000E 37395                       LA    R0,L'ASRWA+(@R2-2)  Range work area max length
 0067B4 59F0 782A/4770_      06DE4 37396                       IF    (R15,EQ,-8),BEGIN
 0067BC 4100 00E2            000E2 37412  1                      LA    R0,L'ASRWA+&PATMAX+10  Max. (w/slop)
 0067C0                            37413                       END   ,
 0067C0 58E0 782E/0DEE       06DE8 37417                       VCALL GETHEAP             Returns, r1 - addr, r0 - length
 0067C6 12E4/4770 721E             37421                       IF    ('LTR R14,R4',Z),BEGIN  first string in range...
1ACT      (ACT2025) (12:40) (15MAR04) DETRNG Routine                                                                        Page  156
0Current Usings:  (ASRWA,R5) (*,R7) (CP,R11) (CV,R12)
0Loc    Object Code    Addr1 Addr2  Stmt Lv Lineno    Source Statement           (Hibal 5, Asmedit 3.3)  HLASM R4.0  2004/03/15 12.40
+___    ______ ____    _____ _____  ____ __ ______    ______ _________
00067CC 5010 BDA4            00DA4 37434  1                      ST    R1,CPSTAD           Save first asrwa ptr
 0067D0 9200 BD88      00D88       37435  1                      CLEAR CPFRDRNG
 0067D4 9640 BD88      00D88       37442  1                      SET   CPFSTRRG            Set associative range
 0067D8                            37448                       END
 0067D8 7222/47F0 722E 067D8 067CA 37452                       ELSE  BEGIN               Otherwise, link up new asrwa...
 0067DC 4AE0 5006            00006 37463  1                      AH    R14,ASRBVAL         Calc. string type
 0067E0 40E0 5006            00006 37464  1                      STH   R14,ASRBVAL         Save (in prev. asrwa)
 0067E4 5010 5000            00000 37465  1                      ST    R1,ASRPTR           Set forward link
 0067E8                            37466                       END
 0067E8 1851                       37470                       LR    R5,R1               Point R5 to new asrwa
 0067EA D70F 5000 5000 00000 00000 37471                       CLEAR ASRWA               Init
 0067F0 4BD0 7882/9801_      06E3C 37478                       XPOP  R0,R1
                                   37481                       ¿þþþþþþþþþþþþþþþþþþþþþÜ
                                   37482                       Ÿ  SET UP RANGE INFO  Ÿ
                                   37483                       ¾þþþþþþþþþþþþþþþþþþþþþ»
 0067F8 4030 5006            00006 37484                       STH   R3,ASRBVAL          Save string type
 0067FC 12FF/4720 729E             37485                       IF    (R15,NP),BEGIN      'str' or c'str' or p'str'
 006802 4770 725A/41F0_      06814 37499  1                      IF    Z,'LA R15,ASRSTRNG; VCALL DEQSTR; BM CVNVALID'
 006814 725E/47F0 7288_06814 06804 37521  1                      ELSEIF (R15,EQ,-4),BEGIN  c'string'...
 006820 9610 5004      00004       37546  2                        SET   ASRFLAG.ASRFTEXT    Indicate ignore case
 006824 41F0 5010            00010 37553  2                        LA    R15,ASRSTRNG        Put string here ...
 006828 58E0 7832/0DEE       06DEC 37554  2                        VCALL DEQSTR              Remove quotes
 00682E 4740 C7E4            007E4 37558  2                        BM    CVNVALID
 006832 12F0                       37559  2                        LTR   R15,R0
 006834 47D0 7288            06842 37560  2                        IF    NP,EXIT             Nothing, scram
 006838 58E0 C8A8            008A8 37574  2                        L     R14,CVUPPTBL
 00683C 06F0/44F0 7A0A_            37575  2                        DEX   R15,'TR @R1(0),@R14'    convert to caps
 006842 728C/47F0 729E 06842 0681E 37594  1                      END   ELSE,BEGIN
 006846 9608 5004      00004       37609  2                        SET   ASRFLAG.ASRFPAT     Indicate Pattern
 00684A 41F0 5010            00010 37616  2                        LA    R15,ASRSTRNG        Put string here ...
 00684E 58E0 783A/0DEE       06DF4 37617  2                        ACALL PENCODE             Encode the pattern
 006854 40F0 500C            0000C 37621  2                        STH   R15,ASRPLEN         Save minumum match len
 006858                            37622  1                      END
 006858                            37626                       END
                                   37630
 006858 72A2/47F0 72CC 06858 06800 37631                       ELSE  BEGIN               Hex...
 00685C 41F0 5010            00010 37642  1                      LA    R15,ASRSTRNG        Put string here ...
 006860 58E0 783E/0DEE       06DF8 37643  1                      VCALL HEXSTR
 006866 47B0 72CC/41F0_      06886 37647  1                      IF    NEG,'TSEG (R1),(R0); ERROR ": invalid hex.",,INVHEX'
 006886                            37695                       END
 006886 12F0                       37699                       LTR   R15,R0              Resulting string len
 006888 4770 72D6/9680_      06890 37700                       IF    Z,'SET ASRFLAG.ASRFBLKR'  set null string
 006890 72DA/47F0 72E0_06890 0688A 37723                       ELSE  'DECR R0; STH R0,ASRSTRLN'  save string len-1
                                   37742
 00689A 4120 75E2            06B9C 37743                       LA    R2,RNGPRT2          Next prt
 00689E 47F0 706E            06628 37744                       B     DETSCAN
1ACT      (ACT2025) (12:40) (15MAR04) DETRNG Routine                                                                        Page  157
0Current Usings:  (ASRWA,R5) (*,R7) (CP,R11) (CV,R12)
0Loc    Object Code    Addr1 Addr2  Stmt Lv Lineno    Source Statement           (Hibal 5, Asmedit 3.3)  HLASM R4.0  2004/03/15 12.40
+___    ______ ____    _____ _____  ____ __ ______    ______ _________
00068A2 06F0                       37746              HAVSOM2  DECR  R15                 Reduce by one
 0068A4 40F0 5008            00008 37748                       STH   R15,ASRSCOL         Save start position
 0068A8 4820 500E            0000E 37749                       LH    R2,ASRSTRLN         String len
 0068AC 1A2F                       37750                       AR    R2,R15              Plus start
 0068AE 4920 7892            06E4C 37751                       CH    R2,=AL2(&LINESZ-1)  Possible?
 0068B2 4720 C7E4            007E4 37752                       BH    CVNVALID            No
 0068B6 9640 5004      00004       37753                       OI    ASRFLAG,ASRFONER    Set string start pos given
 0068BA 9180 5004      00004       37754                       TM    ASRFLAG,ASRFBLKR    Was this blank (null) string
 0068BE 4710 C7E4            007E4 37755                       BO    CVNVALID            Yes, start position invalid
 0068C2 4120 75EF            06BA9 37756                       LA    R2,RNGPRT3          Set next prt
 0068C6 47F0 706E            06628 37757                       B     DETSCAN             Go scan
                                   37758
 0068CA 4BF0 5008            00008 37759              HAVSOM3  SH    R15,ASRSCOL         Length + one containing str
 0068CE 47D0 C7E4            007E4 37760                       BNP   CVNVALID            Ng
 0068D2 9108 5004/4710_00004       37761                       IF    ~ASRFLAG.ASRFPAT,BEGIN
 0068DA 4BF0 500E            0000E 37777  1                      SH    R15,ASRSTRLN        Length possible start chars
 0068DE 47D0 7348            06902 37778  1                      BNP   BAD2NDCL
 0068E2 732C/47F0 7338 068E2 068D8 37779                       END   ELSE,BEGIN
 0068E6 4BF0 500C            0000C 37794  1                      SH    R15,ASRPLEN         Length possible start chars
 0068EA 4AF0 7894            06E4E 37795  1                      AH    R15,=H'1'           Adjust
 0068EE 47D0 7348            06902 37796  1                      BNP   BAD2NDCL
 0068F2                            37797                       END   ,
 0068F2 40F0 500A            0000A 37801                       STH   R15,ASRCOMP         Stor max no. of compares
 0068F6 9760 5004      00004       37802                       XI    ASRFLAG,ASRFLIMR+ASRFONER  set for limited scan
 0068FA 4120 75F8            06BB2 37803                       LA    R2,RNGPRT5          Set next prt
 0068FE 47F0 706E            06628 37804                       B     DETSCAN             Go scan
                                   37805
 DROP   ASRWA,R5                   37806                       DROP  R5
                                   37813
 006902 4110 7969/4100_      06F23 37814              BAD2NDCL SETMSG 'String is too long to fit within specified columns.'
 00690A D207 B886 77DE 00886 06D98 37818                       MVC   CPERRID,=CL8'BIGSTRRG'
 006910 47F0 C7C8            007C8 37819                       B     CVERRMSG
1ACT      (ACT2025) (12:40) (15MAR04) DETRNG Routine                                                                        Page  158
0Current Usings:  (*,R7) (CP,R11) (CV,R12)
0Loc    Object Code    Addr1 Addr2  Stmt Lv Lineno    Source Statement           (Hibal 5, Asmedit 3.3)  HLASM R4.0  2004/03/15 12.40
+___    ______ ____    _____ _____  ____ __ ______    ______ _________
0006914 954D 1000      00000       37821              HAVSOM4  CLI   @R1,C'('            Need left-paren
 006918 4770 7080            0663A 37822                       BNE   CKIFLPRM            No
 00691C D205 BC94 BCA8 00C94 00CA8 37823              HAVMODS  OSCSAVE ,                 Temp detrng ptr save
 006922 4B00 7896            06E50 37825                       SH    R0,=H'2'            Strip pars
 006926 47D0 C7E4            007E4 37826                       BNP   CVNVALID            Invalid msg
 00692A 4110 1001            00001 37827                       LA    R1,@R1+1            Kick ptr
 00692E 58E0 7842/0DEE       06DFC 37828                       OSCINIT (R1),(R0)         Init inside parens
 006934 9608 BD88      00D88       37844                       SET   CPFMODS             Set mod indicator
 006938 1B55                       37850                       SR    R5,R5               Zero mod count
 00693A 5050 BDA8            00DA8 37851                       ST    R5,CPMDLN           Init
 00693E 4160 BDA8            00DA8 37852                       LA    R6,CPMDAD-4         And set addr
 006942 4110 761E/58E0_      06BD8 37853              NXMDSCN  OSCAN MODPRTA             Scan for a mod
 00694C 47F0 73C0            0697A 37867                       B     FINMOD              Done
                                   37868
 006950 4150 5001            00001 37869              GOTAMOD  LA    R5,@R5+1            Count
 006954 4950 7898            06E52 37870                       CH    R5,=H'10'           10 is max
 006958 4720 C7E4            007E4 37871                       BH    CVNVALID            Ng
 00695C 49F0 6002            00002 37872                       CH    R15,@R6+2           Are mods ascending
 006960 47D0 C7E4            007E4 37873                       BNH   CVNVALID            Branch no, illegal
 006964 4166 0004            00004 37874                       LA    R6,4(R6)            Set addr
 006968 40F0 6000            00000 37875                       STH   R15,@R6             Store
 00696C 40F0 6002            00002 37876                       STH   R15,@R6+2           Assume no slash
 006970 4110 7619/58E0_      06BD3 37877                       OSCAN MODPRTB             Look for slash or next mod
                                   37890
 00697A 5050 BDA8            00DA8 37891              FINMOD   ST    R5,CPMDLN           Store number of mods
 00697E D205 BCA8 BC94 00CA8 00C94 37892                       OSCRSTR ,                 Restore temp saved detrng ptrs
 006984 4110 760F            06BC9 37894                       LA    R1,RNGPRT6          Set next prt addr
 006988 47F0 7076            06630 37895                       B     GOSCAN              Go scan
                                   37896
 00698C 49F0 6002            00002 37897              GOTBMOD  CH    R15,@R6+2           Is it legal?
 006990 4740 C7E4            007E4 37898                       BL    CVNVALID            No
 006994 40F0 6002            00002 37899                       STH   R15,@R6+2           Store
 006998 47F0 7388            06942 37900                       B     NXMDSCN             Go for more
1ACT      (ACT2025) (12:40) (15MAR04) DETRNG Routine                                                                        Page  159
0Current Usings:  (*,R7) (CP,R11) (CV,R12)
0Loc    Object Code    Addr1 Addr2  Stmt Lv Lineno    Source Statement           (Hibal 5, Asmedit 3.3)  HLASM R4.0  2004/03/15 12.40
+___    ______ ____    _____ _____  ____ __ ______    ______ _________
000699C 1B22                       37902              HAVEXPL  CLEAR R2                  Set for "in" & 1st time
 00699E 4160 7404            069BE 37907                       LA    R6,HVFRSNO          Set for line number found
 0069A2 D205 BC94 BCA8 00C94 00CA8 37908                       OSCSAVE ,                 Save current scan pointers
 0069A8 4110 7668/58E0_      06C22 37910                       OSCAN EXRPRT1             Look for 1st explicit range itm
 0069B2 4110 799C/4100_      06F56 37923                       ERROR 'Missing explicit range.'
                                   37930
 0069BE 9610 BD88      00D88       37931              HVFRSNO  SET   CPFONEL             Assume only one lineno specified
 0069C2 5000 BD90            00D90 37938                       ST    R0,CPFSLN           Set 1st line no.
 0069C6 D203 BD94 BD90 00D94 00D90 37939                       MVC   CPLSLN,CPFSLN       Set one line range default
 0069CC D207 8020 BC94 00020 00C94 37940              SCANGAN  MVC   @R8+32(8),CPTELL    Save pointer before this range
 0069D2 D205 BC94 BCA8 00C94 00CA8 37941                       OSCSAVE ,                 Save temp detrng scan pointers
 0069D8 4160 74DA            06A94 37943                       LA    R6,NUMSET           Set addr for line number
 0069DC 4110 7697/58E0_      06C51 37944                       OSCAN EXSLPRT             Look for slash
 0069E6 47F0 7152            0670C 37957                       B     DETXIT
                                   37958
 0069EA 94EF BD88      00D88       37959              HVLSTNO  CLEAR CPFONEL             Reset only one lineno specified
 0069EE 5000 BD94            00D94 37967                       ST    R0,CPLSLN           Store ending lineno
 0069F2 D503 BD94 BD90 00D94 00D90 37968                       CLC   CPLSLN,CPFSLN       Make sure eorange not les
 0069F8 47B0 74C2            06A7C 37969                       BNL   SCANGEN             Ok, goascan on
 0069FC 9812 BC9C            00C9C 37970              HVINVAL  LM    R1,R2,CPSAVE        Get last token pointer
 006A00 4121 2000            00000 37971                       LA    R2,0(R1,R2)         Save pointer past token
 006A04 D205 BCA8 8020 00CA8 00020 37972                       OSCRSTR @R8+32            Reset before this range
 006A0A 58E0 7846/0DEE       06E00 37974                       OSCTELL (R1),(R0)         Get pointer before range
 006A10 1802                       37979                       LR    R0,R2               Calculate length
 006A12 1B01                       37980                       SR    R0,R1               Of prompt message
 006A14 41F0 B050/58E0_      00050 37981                       TSEG  (R1),(R0)           Put out bad range
 006A1E D207 B886 77E6 00886 06DA0 38005                       MVC   CPERRID,=CL8'BADRNG'
 006A24 4110 789A/4100_      06E54 38006                       ERROR ': bad range (line-numbers are decreasing).'
1ACT      (ACT2025) (12:40) (15MAR04) DETRNG Routine                                                                        Page  160
0Current Usings:  (*,R7) (CP,R11) (CV,R12)
0Loc    Object Code    Addr1 Addr2  Stmt Lv Lineno    Source Statement           (Hibal 5, Asmedit 3.3)  HLASM R4.0  2004/03/15 12.40
+___    ______ ____    _____ _____  ____ __ ______    ______ _________
0                                  38014                       ¿þþþþþþþþþþþþþþþþþþþþþþþþþþþþþþþþþþþþþþþÜ
                                   38015                       Ÿ  BLOCK is the same as FBLOCK/LBLOCK.  Ÿ
                                   38016                       ¾þþþþþþþþþþþþþþþþþþþþþþþþþþþþþþþþþþþþþþþ»
 006A30 D502 79B3 BD24_06F6D 00D24 38017              HAVBLOCK IF    ((CPCMNM,EQ,'PRI'),OR,(CPCMNM,EQ,'RUN')),BEGIN
 006A44 58E0 784A/0DEE       06E04 38051  1                      VCALL SCNRES              Don't allow block for PRINT/RUN
 006A4A                            38055                       END
                                   38059
 006A4A 5800 B74C            0074C 38060                       L     R0,CPFBKLNO         FBLOCK lineno
 006A4E 5810 B750            00750 38061                       L     R1,CPLBKLNO         LBLOCK lineno
                                   38062
 006A52 9108 BAC8/4710_00AC8       38063                       IF    (CPVFHIDE,OR,(CPBLKACT,Z)),BEGIN
 006A64 4110 79B9/4100_      06F73 38093  1                      ERROR 'BLOCK is not defined.'
 006A70                            38100                       END
                                   38104
 006A70 5000 BD90            00D90 38105                       ST    R0,CPFSLN           Set first lineno
 006A74 5010 BD94            00D94 38106                       ST    R1,CPLSLN           Set last lineno
                                   38107
 006A78 47F0 74C2            06A7C 38108                       B     SCANGEN
1ACT      (ACT2025) (12:40) (15MAR04) DETRNG Routine                                                                        Page  161
0Current Usings:  (*,R7) (CP,R11) (CV,R12)
0Loc    Object Code    Addr1 Addr2  Stmt Lv Lineno    Source Statement           (Hibal 5, Asmedit 3.3)  HLASM R4.0  2004/03/15 12.40
+___    ______ ____    _____ _____  ____ __ ______    ______ _________
0006A7C D205 BC94 BCA8 00C94 00CA8 38110              SCANGEN  OSCSAVE
 006A82 4160 74DA            06A94 38112              SCANGEN1 LA    R6,NUMSET           Set addr for line number
 006A86 4110 76A4/58E0_      06C5E 38113                       OSCAN EXRPRT3             Scan for disjoint item
 006A90 47F0 7152            0670C 38126                       B     DETXIT              Finished
 006A94 9104 BD88/4710_00D88       38127              NUMSET   IF    CPFDSJNT,NTFRST     Disjoint set?
 006A9C 9108 BD88/4710_00D88       38146                       IF    CPFMODS,CVNVALID    Mods used?
 006AA4 9604 BD88      00D88       38164                       SET   CPFDSJNT            Set disjoint
 006AA8 94EF BD88      00D88       38170                       CLEAR CPFONEL             Reset only one lineno specified
 006AAC D703 BDA8 BDA8 00DA8 00DA8 38177                       XC    CPMDLN,CPMDLN       Start count
 006AB2 4530 7504            06ABE 38178              NTFRST   BAL   R3,SETMOD           Count
 006AB6 5002 BDA8            00DA8 38179                       ST    R0,CPMDAD-4(R2)     Store line-no
 006ABA 47F0 7412            069CC 38180                       B     SCANGAN             More?
                                   38181
 006ABE 5820 BDA8            00DA8 38182              SETMOD   L     R2,CPMDLN           Get current number count
 006AC2 4120 2001            00001 38183                       LA    R2,@R2+1            Increment
 006AC6 4920 7898            06E52 38184                       CH    R2,=H'10'           More than max allowed
 006ACA 4720 751E            06AD8 38185                       BH    SETMODB             Branch yes
 006ACE 5020 BDA8            00DA8 38186                       ST    R2,CPMDLN           Save new count
 006AD2 8920 0002            00002 38187                       SLL   R2,2                Shift for index
 006AD6 07F3                       38188                       BR    R3                  Return
                                   38189
 006AD8 4110 78C4/4100_      06E7E 38190              SETMODB  TSEG  'Too many line-numbers.',,B
 006AEA D207 B886 77EE 00886 06DA8 38208                       MVC   CPERRID,=CL8'MANYLNOS'
 006AF0 47F0 C7E4            007E4 38209                       B     CVNVALID
1ACT      (ACT2025) (12:40) (15MAR04) DETRNG Routine                                                                        Page  162
0Current Usings:  (*,R7) (CP,R11) (CV,R12)
0Loc    Object Code    Addr1 Addr2  Stmt Lv Lineno    Source Statement           (Hibal 5, Asmedit 3.3)  HLASM R4.0  2004/03/15 12.40
+___    ______ ____    _____ _____  ____ __ ______    ______ _________
0006AF4 4110 768F            06C49 38211              GOTXSLS  LA    R1,EXRPRT2          Set prt addr
 006AF8 4160 7430            069EA 38212                       LA    R6,HVLSTNO          Set addr for line number
 006AFC 9104 BD88/47E0_00D88       38213                       IF    ~CPFDSJNT,RGHTWUN   Right addr?
 006B04 4160 7558            06B12 38231                       LA    R6,NUMBSET          Set other
 006B08 58E0 780A/0DEE       06DC4 38232              RGHTWUN  OSCAN (R1)                Scan
 006B0E 47F0 C7F0            007F0 38243                       B     CVABSENT            Need something
                                   38244
 006B12 4530 7504            06ABE 38245              NUMBSET  BAL   R3,SETMOD           Count
 006B16 5002 BDA8            00DA8 38246                       ST    R0,CPMDAD-4(R2)     Save line number
 006B1A 4122 BDA4            00DA4 38247                       LA    R2,CPMDAD-8(R2)     Point to start of range
 006B1E 96C0 2004      00004       38248                       OI    4(R2),FRNGTYP       Set normal two line range
 006B22 5900 2000            00000 38249                       C     R0,@R2              Test valid range
 006B26 47B0 74C2            06A7C 38250                       BNL   SCANGEN             More?
 006B2A 47F0 7442            069FC 38251                       B     HVINVAL             Go report error
                                   38252
 006B2E 954D 1000      00000       38253              TSTCNT   CLI   @R1,C'('            Is it count
 006B32 4770 7144            066FE 38254                       BNE   RESTORS             No
 006B36 D205 BC94 BCA8 00C94 00CA8 38255                       OSCSAVE ,                 Save current position
 006B3C 4B00 7896            06E50 38257                       SH    R0,=H'2'            Reduce count for ()
 006B40 47D0 C7E4            007E4 38258                       BNP   CVNVALID            Invalid if negative
 006B44 4110 1001            00001 38259                       LA    R1,@R1+1            Point past (
 006B48 58E0 7842/0DEE       06DFC 38260                       OSCINIT (R1),(R0)         Init scanner
 006B4E 4110 76AC/58E0_      06C66 38276                       OSCAN CNTPRT              Scan for count
 006B58 47F0 C7E4            007E4 38289                       B     CVNVALID            Invalid if none
                                   38290
 006B5C 94EF BD88      00D88       38291              CNTOK    CLEAR CPFONEL             Reset only one lineno specified
 006B60 184F                       38299                       LR    R4,R15              Save count
 006B62 1B11/58E0 780A_            38300                       OSCAN ,                   See if anything else
 006B6A D205 BCA8 BC94 00CA8 00C94 38310                       OSCRSTR ,                 Restore scanner
 006B70 4720 C7E4            007E4 38312                       BP    CVNVALID            Yes, invalid
 006B74 9104 BD88/4710_00D88       38313                       IF    CPFDSJNT,CNTOK1     Branch if disjoint
 006B7C 5040 BD94            00D94 38331                       ST    R4,CPLSLN           Save count
 006B80 9640 BD94      00D94       38332                       OI    CPLSLN,FRNGTYP-X'80'  indicate count range
 006B84 47F0 74C8            06A82 38333                       B     SCANGEN1            Go scan on
                                   38334
 006B88 4530 7504            06ABE 38335              CNTOK1   BAL   R3,SETMOD           Count
 006B8C 5042 BDA8            00DA8 38336                       ST    R4,CPMDAD-4(R2)     Save count
 006B90 4122 BDA8            00DA8 38337                       LA    R2,CPMDAD-4(R2)     Point to save address
 006B94 9640 2000      00000       38338                       OI    @R2,FRNGTYP-X'80'   Indicate count range
 006B98 47F0 74C8            06A82 38339                       B     SCANGEN1            Scan on
1ACT      (ACT2025) (12:40) (15MAR04) DETRNG Routine                                                                        Page  163
0Current Usings:  (*,R7) (CP,R11) (CV,R12)
0Loc    Object Code    Addr1 Addr2  Stmt Lv Lineno    Source Statement           (Hibal 5, Asmedit 3.3)  HLASM R4.0  2004/03/15 12.40
+___    ______ ____    _____ _____  ____ __ ______    ______ _________
0006B9C 300068A240/00000_          38341              RNGPRT2  OSCKW ,HAVSOM2,PI,&LINESZ
 006BA5 F8006BB2                   38344                       OSCKW ,RNGPRT5,PUSH
                                   38346
 006BA9 B00068CA61/00000_          38347              RNGPRT3  OSCKW /,HAVSOM3,(P,PI),&LINESZ
 006BB2 0100699CC9D5               38350              RNGPRT5  OSCKW IN,HAVEXPL
 006BB8 0200672CC1D5C4             38352                       OSCKW AND,HAVAND
 006BBF 01006734D6D9               38354                       OSCKW OR,HAVOR
 006BC5 FF006914                   38356                       OSCKW ,HAVSOM4
                                   38358
 006BC9 0100699CC9D5               38359              RNGPRT6  OSCKW IN,HAVEXPL
 006BCF FF00663A                   38361                       OSCKW ,CKIFLPRM
                                   38363
 006BD3 A000698C61                 38364              MODPRTB  OSCKW /,GOTBMOD,(P,PI)
 006BD8 2000695040                 38366              MODPRTA  OSCKW ,GOTAMOD,PI
 006BDD FF000000                   38368                       OSCKW ,V(INVALID)
                                   38370
 006BE1 000067185F                 38371              RNGPRT5A OSCKW ~,SETNOTT
 006BE6 80006762E7                 38373                       OSCKW X,HAVHEX,P
 006BEB 8100675E5FE7               38375                       OSCKW ~X,HAVNHEX,P
 006BF1 8000676EC3                 38377                       OSCKW C,HAVTEX,P
 006BF6 8100676A5FC3               38379                       OSCKW ~C,HAVNTEX,P
 006BFC 8000677AD7                 38381                       OSCKW P,HAVPAT,P
 006C01 810067765FD7               38383                       OSCKW ~P,HAVNPAT,P
 006C07 FF006782                   38385                       OSCKW ,HAVASSC
                                   38387
 006C0B 000067185F                 38388              EXRPRT0  OSCKW ~,SETNOTT
 006C10 8100675E5FE7               38390                       OSCKW ~X,HAVNHEX,P
 006C16 8100676A5FC3               38392                       OSCKW ~C,HAVNTEX,P
 006C1C 810067765FD7               38394                       OSCKW ~P,HAVNPAT,P
 006C22 02006708C1D3D3             38396              EXRPRT1  OSCKW ALL,DETALL
 006C29 0C006A30C2D3D6C3           38398                       OSCKW BLOCK,HAVBLOCK,A
 006C32 F8000000                   38400                       OSCKW ,V(LNENOPRT),PUSH
 006C36 80006762E7                 38402              EXRPRTA  OSCKW X,HAVHEX,P
 006C3B 8000676EC3                 38404                       OSCKW C,HAVTEX,P
 006C40 8000677AD7                 38406                       OSCKW P,HAVPAT,P
 006C45 FF006782                   38408                       OSCKW ,HAVASSC
                                   38410
 006C49 F8000000                   38411              EXRPRT2  OSCKW ,V(LNENOPRT),PUSH
 006C4D FF000000                   38413                       OSCKW ,V(INVALID)
                                   38415
 006C51 00006AF461                 38416              EXSLPRT  OSCKW /,GOTXSLS
 006C56 F8000000                   38418                       OSCKW ,V(LNENOPRT),PUSH
 006C5A FF006B2E                   38420                       OSCKW ,TSTCNT
                                   38422
 006C5E F8000000                   38423              EXRPRT3  OSCKW ,V(LNENOPRT),PUSH
 006C62 FF0066FE                   38425                       OSCKW ,RESTORS
                                   38427
 006C66 30006B5C40/00007_          38428              CNTPRT   OSCKW ,CNTOK,PI,32767
 006C6F FF000000                   38431                       OSCKW ,V(INVALID)
                                   38433              .NODETRNG ANOP
1ACT      (ACT2025) (12:40) (15MAR04) DETRNG Routine                                                                        Page  164
0Current Usings:  (*,R7) (CP,R11) (CV,R12)
0Loc    Object Code    Addr1 Addr2  Stmt Lv Lineno    Source Statement           (Hibal 5, Asmedit 3.3)  HLASM R4.0  2004/03/15 12.40
+___    ______ ____    _____ _____  ____ __ ______    ______ _________
0                                  38435              ¿þþþþþþþþþþþþþþþþþþþþþþþþþþþþþþþþþþþþþþþþþþþþþþþþþþþþþþþþþþþþþþþþþþþþþÜ
                                   38436              Ÿ                                                                     Ÿ
                                   38437              Ÿ  ENDLNO -- Routine to return the value of the END                   Ÿ
                                   38438              Ÿ    line-number.                                                     Ÿ
                                   38439              Ÿ                                                                     Ÿ
                                   38440              Ÿ    On exit:                                                         Ÿ
                                   38441              Ÿ      R0 - END line-number                                           Ÿ
                                   38442              Ÿ      R1 - Suggested delta                                           Ÿ
                                   38443              Ÿ      R15- z=OK; neg=no next END lineno possible                     Ÿ
                                   38444              Ÿ                                                                     Ÿ
                                                      ¾þþþþþþþþþþþþþþþþþþþþþþþþþþþþþþþþþþþþþþþþþþþþþþþþþþþþþþþþþþþþþþþþþþþþþ»
0006C74 50E0 D000/9008_      00000 38445              ENDLNO   XPROC
 DROP   *,R7
 USING  *,R7
 006C8E 5810 B5A4            005A4 38488                       L     R1,CPALLNO          Get LAST line-number
 006C92 1801                       38489                       LR    R0,R1               Last line-number
 006C94 5810 B738            00738 38490                       L     R1,CPDELTA          Delta
 006C98 58E0 717E/0DEE       06E0C 38491                       VCALL LOWMULT
 006C9E 58E0 7182/0DEE       06E10 38495                       VCALL ADDER
 006CA4 47B0 701E/5800_      06CAC 38499                       IF    NEG,'L R0,=F"-1000"'  No more linenos possible
 006CAC 9001 8004            00004 38516                       PRETURN (R0,R1)
 006CB0 1BFF                       38518                       CLEAR R15
 006CB2 1200/47B0 702C_            38522                       IF    (R0,NEG),'LR R15,R0'  No END lineno
 006CBA 18D8/9808 D004_            38542                       PEND
 DROP   *,R7
 USING  *,R7
1ACT      (ACT2025) (12:40) (15MAR04) DETRNG Routine                                                                        Page  165
0Current Usings:  (*,R7) (CP,R11) (CV,R12)
0Loc    Object Code    Addr1 Addr2  Stmt Lv Lineno    Source Statement           (Hibal 5, Asmedit 3.3)  HLASM R4.0  2004/03/15 12.40
+___    ______ ____    _____ _____  ____ __ ______    ______ _________
0                                  38570              ¿þþþþþþþþþþþþþþþþþþþþþþþþþþþþþþþþþþþþþþþþþþþþþþþþþþþþþþþþþþþþþþþþþþþþþÜ
                                   38571              Ÿ                                                                     Ÿ
                                   38572              Ÿ  ACTCHK -- Routine to make sure that there is an Active file.       Ÿ
                                   38573              Ÿ                                                                     Ÿ
                                   38574              Ÿ    On exit:                                                         Ÿ
                                   38575              Ÿ      Returns only if there is an Active file.                       Ÿ
                                   38576              Ÿ                                                                     Ÿ
                                                      ¾þþþþþþþþþþþþþþþþþþþþþþþþþþþþþþþþþþþþþþþþþþþþþþþþþþþþþþþþþþþþþþþþþþþþþ»
0006CC8 50E0 D000/9008_      00000 38577              ACTCHK   XPROC
 DROP   *,R7
 USING  *,R7
 006CE2 58F0 B5AC/12FF       005AC 38620                       LT    R15,CPALNCT         Is there an Active file?
 006CE8 4770 7010            06CF2 38624                       IF    Z,BEGIN
 006CEC 58E0 7136/0DEE       06E18 38635  1                      ACALL ITSNIL              No, scram (no return)
 006CF2                            38639                       END
 006CF2 18D8/9808 D004_            38643                       PEND
 DROP   *,R7
 USING  *,R7
-                                  38671              ¿þþþþþþþþþþþþþþþþþþþþþþþþþþþþþþþþþþþþþþþþþþþþþþþþþþþþþþþþþþþþþþþþþþþþþÜ
                                   38672              Ÿ                                                                     Ÿ
                                   38673              Ÿ  ITSNIL -- Give "No ACTIVE file" message.                           Ÿ
                                   38674              Ÿ                                                                     Ÿ
                                                      ¾þþþþþþþþþþþþþþþþþþþþþþþþþþþþþþþþþþþþþþþþþþþþþþþþþþþþþþþþþþþþþþþþþþþþþ»
0006D00 50E0 D000/9008_      00000 38675              ITSNIL   XPROC
 DROP   *,R7
 USING  *,R7
                                   38718                       ¿þþþþþþþþþþþþþþþþþþþþþþþþþþþþþþþþþþþþþþþþþþþþþþþþþþþþþþþþþþþþþÜ
                                   38719                       Ÿ  This can be removed in about a month (it's 2/8/90) now.    Ÿ
                                   38720                       Ÿ  The code is left in here, in case it has to be patched to  Ÿ
                                   38721                       Ÿ  re-activate it.   "Niz"                                    Ÿ
                                   38722                       ¾þþþþþþþþþþþþþþþþþþþþþþþþþþþþþþþþþþþþþþþþþþþþþþþþþþþþþþþþþþþþþ»
 006D1A 1900/4780 700C             38723                       IF    (R0,NE,R0),BEGIN    !!!
 006D20 58E0 7102/0DEE       06E1C 38738  1                      VCALL ORVCPASS            !!! Return command if wanted
 006D26                            38742                       END   ,                   !!!
                                   38746
 006D26 4110 726E/4100_      06F88 38747                       TSEG  'No ACTIVE file.',,CR
 006D38 D207 B886 7096 00886 06DB0 38765                       MVC   CPERRID,=CL8'NOACTIVE'
                                   38766
 006D3E D502 727D BD24_06F97 00D24 38767                       IF    (CPCMNM,EQ,'SPE'),BEGIN  SPELL command...
 006D48 4110 7280/4100_      06F9A 38784  1                      TSEG  '(The command "GUESS word" can be used to '
 006D5A 4110 717A/4100_      06E94 38802  1                      TSEG  'check the spelling of a word.)',,CR
 006D6C                            38820                       END
 006D6C 47F0 C7DA            007DA 38824                       B     CVABORT
 006D70 18D8/9808 D004_            38825                       PEND  ,
 DROP   *,R7
 USING  *,R7
                                   38852
                                   38853                       QLTORG
1ACT      (ACT2025) (12:40) (15MAR04) DETRNG Routine                                                                        Page  166
0Current Usings:  (*,R7) (CP,R11) (CV,R12)
0Loc    Object Code    Addr1 Addr2  Stmt Lv Lineno    Source Statement           (Hibal 5, Asmedit 3.3)  HLASM R4.0  2004/03/15 12.40
+___    ______ ____    _____ _____  ____ __ ______    ______ _________
0                                  38928              ***********************************************************************
                                   38929              *   PENCODE -- Encode the Pattern String
                                   38930              *
                                   38931              *   On entry:   R1,R0 - Pattern string descriptor
                                   38932              *               R15 -> Area to put encoded pattern string
                                   38933              *   On exit:    R1,R0 - Encoded Pattern string descriptor
                                   38934              *               R15 - Holds length of minimum match
                                   38935              ***********************************************************************
 000000                00000 000EF 38936              PCWA     RECORD BEGIN
 000000                            38944  1           PCPTR      DS    F
                                   38945  1           PCAREA     DS    CL(&LINESZ)
 000004                                   1          +PCAREA     DS    CL(235)
 0000EF                000EF 000EF 38946                       END
                                   38955
 006FCA 50E0 D000/9008_      00000 38956              PENCODE  PROC  PCWA
 DROP   *,R7
 USING  *,R7
 USING  PCWA-(4+36),R8
 006FE4 183F                       39009                       LR    R3,R15              R3 -> Pattern constuction area
 006FE6 4160 30C8            000C8 39010                       LA    R6,@R3+&PATMAX      Arbitrary maximum
 006FEA 41F0 802C            00004 39011                       LA    R15,PCAREA          R15 -> Area for dequoted string
 006FEE 58E0 7444/0DEE       07428 39012                       VCALL DEQSTR              Dequote the string
                                   39016              *        IF    M,'VCALL NOTVALID'  Invalid string ...
 006FF4 47B0 7020            07004 39017                       IF    M,BEGIN
 006FF8 4110 7448/4100_      0742C 39028  1                      ERROR 'Missing (invalid) quotes for pattern string.'
 007004                            39035                       END
 007004 1200/47D0 7248             39039                       IF    (R0,NP),PENCODEX    Zip - let DETRNG handle null string
000700A 1843                       39057                       LR    R4,R3               R4 -> Pattern constuction area
 00700C 5030 8028            00000 39058                       ST    R3,PCPTR            Save pointer to start of encoding
 007010 1B33                       39059                       CLEAR R3                  Clear minimun match length
 007012 1200/4780 7232             39063                       WHILE (R0,NZ),BEGIN       Process pattern ...
 007018 954C 1000/4770_00000       39079  1                      IF    ((@R1,NE,'<'),OR,((@R1,EQ,'<<'),AND,(R0,GE,2))),BEGIN
 007032 1BFF                       39126  2                        CLEAR R15                 Clear literal string length
 007034 92D3 4000      00000       39130  2                        MVI   @R4,C'L'            Flag entry as literal
 007038 4124 0002            00002 39131  2                        LA    R2,2(R4)            Skip to literal hold area
 00703C 1926/47D0 7064_            39132  2                        IF    (R2,GT,R6),' ACALL PATMAXL'  Check limit
 007048 1200/47D0 70F2             39156  2                        WHILE (R0,POS),BEGIN
 00704E 954C 1000/4780_00000       39172  3                          IF    ((@R1,EQ,'<'),OR,(@R1,EQ,'>')),BEGIN
 00705E D501 74C8 1000_074AC 00000 39203  4                            IF    (((@R1,EQ,'<<'),OR,(@R1,EQ,'>>')),AND,(R0,GE,2)),BEGIN
 00707A D200 2000 1000 00000 00000 39250  5                              MVC   @R2(1),@R1          Move the caret
 007080 5EF0 747C            07460 39251  5                              INCR  R15                 We moved one char ...
 007084 5E20 747C            07460 39254  5                              INCR  R2                  Skip to next pattern slot
 007088 1926/47D0 70B0_            39257  5                              IF    (R2,GT,R6),' ACALL PATMAXL'  Check limit
 007094 4111 0002            00002 39281  5                              LA    R1,2(R1)            Skip over carets
 007098 4B00 74CC            074B0 39282  5                              SH    R0,=H'2'            Adjust len
 00709C 70BC/70BC/47F0_0709C 07070 39283  4                            END   ELSE,BEGIN
 0070A0 954C 1000/4780_00000       39300  5                              IF    (@R1,EQ,'<'),PATLEND
 0070A8 58E0 7480/0DEE       07464 39319  5                              ACALL PUNBAL              Unbalanced carets ...
 0070AE                            39323  4                            END   ,
 0070AE 70CE/47F0 70EE 070AE 0705C 39327  3                          END   ELSE,BEGIN
 0070B2 D200 2000 1000 00000 00000 39342  4                            MVC   @R2(1),@R1          Move character
 0070B8 5EF0 747C            07460 39343  4                            INCR  R15                 We moved one char ...
 0070BC 5E20 747C            07460 39346  4                            INCR  R2                  Skip to next pattern slot
1ACT      (ACT2025) (12:40) (15MAR04) DETRNG Routine                                                                        Page  167
0Current Usings:  (*,R7) (PCWA-(4+36),R8) (CP,R11) (CV,R12)
0Loc    Object Code    Addr1 Addr2  Stmt Lv Lineno    Source Statement           (Hibal 5, Asmedit 3.3)  HLASM R4.0  2004/03/15 12.40
+___    ______ ____    _____ _____  ____ __ ______    ______ _________
00070C0 1926/47D0 70E8_            39349  4                            IF    (R2,GT,R6),' ACALL PATMAXL'  Check limit
 0070CC 5E10 747C            07460 39373  4                            INCR  R1                  Skip to next parm char
 0070D0 0600                       39376  4                            DECR  R0                  Drop count
 0070D2                            39378  3                          END   ,
 0070D2 47F0 7064            07048 39382  2                        END   ,
 0070D6 42F0 4001            00001 39387  2           PATLEND      STC   R15,@R4+1           Set pattern data length
 0070DA 1A3F                       39388  2                        AR    R3,R15              Add length into minimum match
 0070DC 1842                       39389  2                        LR    R4,R2               Update pattern construction start
 0070DE                            39390  1                      END   ,
 0070DE 954C 1000/4770_00000       39394  1                      IF    ((@R1,EQ,'<'),AND,(R0,NZ)),BEGIN  Generic segment ...
 0070EC 5E10 747C            07460 39423  2                        INCR  R1                  Skip over "<"
 0070F0 0600                       39426  2                        DECR  R0                  Drop count
 0070F2 1200/4770 711A_            39428  2                        IF    (R0,Z),' ACALL PUNBAL' need more than this ...
 0070FE 956E 1000/4770_00000       39451  2                        IF    (@R1,EQ,'>'),' ACALL PATNULL ' Null pattern ...
 00710C 92D7 4000      00000       39476  2                        MVI   @R4,C'P'            Move pattern char
 007110 4124 0002            00002 39477  2                        LA    R2,2(R4)            Skip to generic area
 007114 1926/47D0 713C_            39478  2                        IF    (R2,GT,R6),' ACALL PATMAXL'  Check limit
 007120 1B55                       39502  2                        CLEAR R5                  Clear len for pattern seg
 007122 956E 1000/4780_00000       39506  2                        WHILE ((@R1,NE,'>'),AND,(R0,NZ)),BEGIN
 007130 954C 1000/4770_00000       39537  3                          IF    (@R1,EQ,'<'),' ACALL PUNBAL' Unbalanced carets ...
 00713E 58E0 7488/0DEE       0746C 39562  3                          ACALL GETGEN              Get next generic
 007144 59F0 748C/4780_      07470 39566  3                          IF    ((R15,EQ,255),OR,(@R1,EQ,'X'),OR,(@R1,EQ,'x')),BEGIN
 00715C 1255/4780 718A             39611  4                            IF    (R5,NZ),BEGIN       Need to close last segment
 007162 4250 4001            00001 39625  5                              STC   R5,@R4+1            Set previous segment len
 007166 1A35                       39626  5                              AR    R3,R5               Add into min match len
 007168 1842                       39627  5                              LR    R4,R2               Skip to next segment slot
 00716A 92D7 4000      00000       39628  5                              MVI   @R4,C'P'            Start new pattern segment
 00716E                            39629  4                            END   ,
 00716E 42F0 4001            00001 39633  4                            STC   R15,@R4+1           Set the segment length
 007172 59F0 748C/4770_      07470 39634  4                            IF    (R15,EQ,255),'INCR R3'
 00717E 719E/47F0 71A0_0717E 07178 39659  4                            ELSE  'AR R3,R15'
 007184 D200 4002 1000 00002 00000 39676  4                            MVC   @R4+2(1),@R1        Set the generic
 00718A 9640 4002      00002       39677  4                            OI    @R4+2,X'40'         Force upper case
 00718E 4144 0003            00003 39678  4                            LA    R4,3(R4)            Start a new segment
 007192 92D7 4000      00000       39679  4                            MVI   @R4,C'P'            Start new pattern segment
 007196 4124 0002            00002 39680  4                            LA    R2,2(R4)            Skip to pattern slot
 00719A 1926/47D0 71C2_            39681  4                            IF    (R2,GT,R6),' ACALL PATMAXL'  Check limit
 0071A6 1B55                       39705  4                            CLEAR R5                  Clear segment data len
 0071A8 71C8/47F0 71F8 071A8 0715A 39709  3                          END   ELSE,BEGIN
 0071AC 1A5F                       39724  4                            AR    R5,R15              Add size to pattern len
 0071AE D200 2000 1000 00000 00000 39725  4                            MVC   @R2(1),@R1          Move generic
 0071B4 9640 2000      00000       39726  4                            OI    @R2,X'40'           Force upper case
 0071B8 59F0 747C/47D0_      07460 39727  4                            IF    (R15,GT,1),BEGIN    Ripple multiples ...
 0071C0 06F0                       39744  5                              DECR  R15                 We already moved one
 0071C2 06F0/44F0 758E_            39746  5                              DEX   R15,'MVC @R2+1(*-*),@R2'
 0071C8 4AF0 74CC            074B0 39765  5                              AH    R15,=H'2'           Adjust back to real length
 0071CC                            39766  4                            END   ,
 0071CC 412F 2000            00000 39770  4                            LA    R2,0(R15,R2)        Skip to next pattern slot
 0071D0 1926/47D0 71F8_            39771  4                            IF    (R2,GT,R6),' ACALL PATMAXL'  Check limit
 0071DC                            39795  3                          END   ,
 0071DC 5E10 747C            07460 39799  3                          INCR  R1                  Skip to next input char
 0071E0 0600                       39802  3                          DECR  R0                  Adjust count
 0071E2 47F0 713E            07122 39804  2                        END   ,
 0071E6 1255/4780 7210             39809  2                        IF    (R5,NZ),BEGIN       Need to close out segment
1ACT      (ACT2025) (12:40) (15MAR04) DETRNG Routine                                                                        Page  168
0Current Usings:  (*,R7) (PCWA-(4+36),R8) (CP,R11) (CV,R12)
0Loc    Object Code    Addr1 Addr2  Stmt Lv Lineno    Source Statement           (Hibal 5, Asmedit 3.3)  HLASM R4.0  2004/03/15 12.40
+___    ______ ____    _____ _____  ____ __ ______    ______ _________
00071EC 4250 4001            00001 39823  3                          STC   R5,@R4+1            Set previous segment len
 0071F0 1A35                       39824  3                          AR    R3,R5               Add into min match len
 0071F2 1842                       39825  3                          LR    R4,R2               Skip to next segment slot
 0071F4                            39826  2                        END   ,
 0071F4 1200/4780 7224_            39830  2                        IF    ((R0,NZ),AND,(@R1,EQ,'>')),BEGIN
 007202 5E10 747C            07460 39859  3                          INCR  R1                  Skip over ">"
 007206 0600                       39862  3                          DECR  R0                  Drop count
 007208                            39864  2                        END   ,
 007208 7228/7228/47F0_07208 071F8 39868  2                        ELSE  ' ACALL PUNBAL'     Unbalanced carets
 007212                            39890  1                      END   ,
 007212 47F0 702E            07012 39894                       END   ,
 007216 925B 4000      00000       39899                       MVI   @R4,C'$'            Flag end of pattern string
 00721A 18F3                       39900                       LR    R15,R3              Return minimum match length
 00721C 5810 8028            00000 39901                       L     R1,PCPTR            R1 -> Start of encoded pattern str
 007220 1804                       39902                       LR    R0,R4               Load endpoint address
 007222 1B01                       39903                       SR    R0,R1               Compute length of encoded string
 007224 5E00 747C            07460 39904                       INCR  R0                  Adjust ...
 007228 5E00 747C            07460 39907                       INCR  R0
 00722C 9001 8004            00004 39910              PENCODEX PRETURN (R0,R1)
 007230 18D8/9808 D004_            39912                       PEND  ,
 DROP   PCWA-(4+36),R8
 DROP   *,R7
 USING  *,R7
-                                  39945              *
                                   39946              * GETGEN -- Get next generic from pattern parms
                                   39947              *
                                   39948              *  On exit:  R1 -> Generic
                                   39949              *            R15 = Repetition factor
                                   39950              *
 00723E 50E0 D000/9008_      00000 39951              GETGEN   PROC  ,
 DROP   *,R7
 USING  *,R7
 007258 955C 1000/4770_00000       39993                       IF    (@R1,EQ,'*'),BEGIN
 007260 5E10 7208            07460 40009  1                      INCR  R1                  Skip to next char
 007264 0600                       40012  1                      DECR  R0                  Adjust length
 007266 1200/4720 701A_            40014  1                      IF    (R0,NP),' ACALL INCOMPLT'    Need a generic ...
 007272 41F0 00FF            000FF 40037  1                      LA    R15,255             Load special len
 007276 7022/47F0 705C 07276 0725E 40038                       END   ELSE,BEGIN
 00727A 58E0 7220/0DEE       07478 40053  1                      VCALL DTB                 Look for repetition value
 007280 12FF/4770 7032_            40057  1                      IF    (R15,Z),'LA R15,1'  Use one if none given
 00728A 59F0 7224/4750_      0747C 40077  1                      IF    (R15,GE,&PATMAX),' ACALL PATMAXL' Don't mess with this
 007298 18E2                       40103  1                      LR    R14,R2              Copy current pattern slot ptr
 00729A 1AEF                       40104  1                      AR    R14,R15             Compute future slot ptr
 00729C 19E6/47D0 7050_            40105  1                      IF    (R14,GT,R6),' ACALL PATMAXL' Check length
 0072A8 1200/4720 705C_            40129  1                      IF    (R0,NP),' ACALL INCOMPLT'    No generic after rep
 0072B4                            40152                       END   ,
 0072B4 D200 BC88 1000 00C88 00000 40156                       MVC   CPDOUB(1),@R1       Copy the generic
 0072BA 9640 BC88      00C88       40157                       OI    CPDOUB,X'40'        Force upper case
 0072BE 95C1 BC88/4780_00C88       40158                       IF    (CPDOUB,EQ,'A'),GENOK
 0072C6 95D5 BC88/4780_00C88       40178                       IF    (CPDOUB,EQ,'N'),GENOK
 0072CE 95E2 BC88/4780_00C88       40198                       IF    (CPDOUB,EQ,'S'),GENOK
 0072D6 95C2 BC88/4780_00C88       40218                       IF    (CPDOUB,EQ,'B'),GENOK
1ACT      (ACT2025) (12:40) (15MAR04) DETRNG Routine                                                                        Page  169
0Current Usings:  (*,R7) (CP,R11) (CV,R12)
0Loc    Object Code    Addr1 Addr2  Stmt Lv Lineno    Source Statement           (Hibal 5, Asmedit 3.3)  HLASM R4.0  2004/03/15 12.40
+___    ______ ____    _____ _____  ____ __ ______    ______ _________
00072DE 95C3 BC88/4780_00C88       40238                       IF    (CPDOUB,EQ,'C'),GENOK
 0072E6 95E7 BC88/4780_00C88       40258                       IF    (CPDOUB,EQ,'X'),GENOK
                                   40278            C          ERROR 'Bad generic character specification (must be A,N,S,B,C
 0072EE D207 B886 71A8_00886 07400                                   or X).',,PATGENBD
 007300 9001 8004            00004 40286              GENOK    PRETURN (R0,R1)
 007304 18D8/9808 D004_            40288                       PEND  ,
 DROP   *,R7
 USING  *,R7
                                   40315              *
                                   40316              *
 007312 50E0 D000/9008_      00000 40317              PATNULL  PROC  ,
 DROP   *,R7
 USING  *,R7
 00732C D207 B886 70DC_00886 07408 40359                ERROR 'Generics are required between angle brackets.',,PATNULL
 00733E 18D8/9808 D004_            40367                       PEND  ,
 DROP   *,R7
 USING  *,R7
 00734C 50E0 D000/9008_      00000 40394              PUNBAL   PROC  ,
 DROP   *,R7
 USING  *,R7
 007366 D207 B886 70AA_00886 07410 40436                ERROR 'Unbalanced angle brackets in generic pattern.',,PATUNBAL
 007378 18D8/9808 D004_            40444                       PEND  ,
 DROP   *,R7
 USING  *,R7
 007386 50E0 D000/9008_      00000 40471              INCOMPLT PROC  ,
 DROP   *,R7
 USING  *,R7
 0073A0 D207 B886 7078_00886 07418 40513                ERROR 'Missing generic following repetition factor.',,PATMISG
 0073B2 18D8/9808 D004_            40521                       PEND  ,
 DROP   *,R7
 USING  *,R7
 0073C0 50E0 D000/9008_      00000 40548              PATMAXL  PROC  ,
 DROP   *,R7
 USING  *,R7
 0073DA D207 B886 7046_00886 07420 40590                ERROR 'Pattern specification is too long to use.',,PATOMAX
 0073EC 18D8/9808 D004_            40598                       PEND  ,
 DROP   *,R7
 USING  *,R7
-                                  40626                       QLTORG
1ACT      (ACT2025) (12:40) (15MAR04) READ RANGE (formerly DESPOT) Routine                                                  Page  170
0Current Usings:  (*,R7) (CP,R11) (CV,R12)
0Loc    Object Code    Addr1 Addr2  Stmt Lv Lineno    Source Statement           (Hibal 5, Asmedit 3.3)  HLASM R4.0  2004/03/15 12.40
+___    ______ ____    _____ _____  ____ __ ______    ______ _________
0                                  40665              *
                                   40666              **
                                   40667              **  DESPOT - OLD INTERFACE TO READ RANGE
                                   40668              **
                                   40669              **  ON ENTRY:  R15 - ONE BYTE FLAGS, 3 BYTES CO-ROUTINE ADDRESS
                                   40670              **
                                   40671              **
                                   40672              **  SEE READ RANGE (RDRNG) ROUTINE.
                                   40673              **
                                   40674              **
                                   40675              *
 007578 50E0 D000/9008_      00000 40676              DESPOT   XPROC
 DROP   *,R7
 USING  *,R7
 007592 180F                       40719                       LR    R0,R15
 007594 8800 0018            00018 40720                       SRL   R0,24
 007598 181F                       40721                       LR    R1,R15
 00759A 8910 0008            00008 40722                       SLL   R1,8
 00759E 8810 0008            00008 40723                       SRL   R1,8
 0075A2 58E0 7BE6/0DEE       08178 40724                       VCALL RDRNG
 0075A8 18D8/9808 D004_            40728                       PEND
 DROP   *,R7
 USING  *,R7
1ACT      (ACT2025) (12:40) (15MAR04) READ RANGE (formerly DESPOT) Routine                                                  Page  171
0Current Usings:  (*,R7) (CP,R11) (CV,R12)
0Loc    Object Code    Addr1 Addr2  Stmt Lv Lineno    Source Statement           (Hibal 5, Asmedit 3.3)  HLASM R4.0  2004/03/15 12.40
+___    ______ ____    _____ _____  ____ __ ______    ______ _________
0                                  40756              ¿þþþþþþþþþþþþþþþþþþþþþþþþþþþþþþþþþþþþþþþþþþþþþþþþþþþþþþþþþþþþþþþþþþþþþÜ
                                   40757              Ÿ                                                                     Ÿ
                                   40758              Ÿ  RDRNG (READ RANGE) the new DESPOT.                                 Ÿ
                                   40759              Ÿ                                                                     Ÿ
                                   40760              Ÿ  ON ENTRY:                                                          Ÿ
                                   40761              Ÿ        R0 - FLAGS, DESCRIBED BELOW                                  Ÿ
                                   40762              Ÿ        R1 - CO-ROUTINE ADDRESS, THIS ROUTINE RECEIVES               Ÿ
                                   40763              Ÿ             CONTROL EACH TIME A LINE IN THE RANGE IS LOCATED.       Ÿ
                                   40764              Ÿ                                                                     Ÿ
                                   40765              Ÿ  R0 contais a flag byte with the following codes:                   Ÿ
                                   40766              Ÿ     DESRTRN = X'80' - means leave DESPOT with return                Ÿ
                                   40767              Ÿ     DESNRTN = X'00' - means leave DESPOT and return for next cmd    Ÿ
                                   40768              Ÿ    LEXATRTN = X'40' - means use EXLOCATE                            Ÿ
                                   40769              Ÿ    LXCATRTN = X'60' - means use LXCATE                              Ÿ
                                   40770              Ÿ    LOCATRTN = X'00' - means use LOCATE                              Ÿ
                                   40771              Ÿ                                                                     Ÿ
                                   40772              Ÿ    UNPRST,PREST WILL BE REMOVED FOR RDRNG (DESPOT) ABOUT 5/91       Ÿ
                                   40773              Ÿ    BY GG.SCH,,, ALL RDRNG CALLS WILL RETURN UNPRESSED               Ÿ
                                   40774              Ÿ       PREST = X'00' - return pressed line (R15 points to it)        Ÿ
                                   40775              Ÿ      UNPRST = X'01' - return unpressed line (R1=loc, R0=len)        Ÿ
                                   40776              Ÿ                                                                     Ÿ
                                   40777              Ÿ                                                                     Ÿ
                                   40778              Ÿ    DESABORT = X'04' - means that attention can interrupt range      Ÿ
                                   40779              Ÿ    DESABORT = X'00' - means that attention will be ignored          Ÿ
                                   40780              Ÿ                                                                     Ÿ
                                   40781              Ÿ  Both explicit and associative ranges are handled.                  Ÿ
                                   40782              Ÿ                                                                     Ÿ
                                   40783              Ÿ                                                                     Ÿ
                                                      ¾þþþþþþþþþþþþþþþþþþþþþþþþþþþþþþþþþþþþþþþþþþþþþþþþþþþþþþþþþþþþþþþþþþþþþ»
0000000                00000 00414 40784              RRWA     RECORD BEGIN
 000000 00                         40792  1           RRFLAGS    FLAG  ,
 000001 00                         40796  1           RRSELECT   FLAG  ,
 RRSELECT.RRACT    80 ONES         40800  1                      FLAG  RRACT
 RRSELECT.RREXEC   40 ONES         40805  1                      FLAG  RREXEC
 RRSELECT.RRFROM   20 ONES         40810  1                      FLAG  RRFROM
 000004                            40815  1           RRRTNAD    DS    A
 000008                            40816  1           RRFSLN     DS    2F                  FIRST LINE INFO
 000010                            40817  1           RRLINELN   DS    F                   LINE LEN
                                   40818  1           RRLINE     DS    XL(&PRESSZ+256)     UNPRESSED LINE
 000014                                   1          +RRLINE     DS    XL(256+256)         UNPRESSED LINE
                                   40819  1           RRLINE2    DS    XL(&PRESSZ+256)     LINE WORK AREA (UPPER CASE LINE)
 000214                                   1          +RRLINE2    DS    XL(256+256)         LINE WORK AREA (UPPER CASE LINE)
 000414                00414 00414 40820                       END
                                   40829              *
                                   40830              *
 0075B6 50E0 D000/9008_      00000 40831              RDRNG    XPROC RRWA
 DROP   *,R7
 USING  *,R7
 USING  RRWA-(4+36),R8
 0075D0 D7FF 8028 8028_00000 00000 40885                       CLEAR RRWA
 0075EE 9620 BD88      00D88       40896                       SET   CPFLSKIP            Set line skipped for first
 0075F2 4200 8028            00000 40902                       STC   R0,RRFLAGS
 0075F6 5010 802C            00004 40903                       ST    R1,RRRTNAD
1ACT      (ACT2025) (12:40) (15MAR04) READ RANGE (formerly DESPOT) Routine                                                  Page  172
0Current Usings:  (*,R7) (RRWA-(4+36),R8) (CP,R11) (CV,R12)
0Loc    Object Code    Addr1 Addr2  Stmt Lv Lineno    Source Statement           (Hibal 5, Asmedit 3.3)  HLASM R4.0  2004/03/15 12.40
+___    ______ ____    _____ _____  ____ __ ______    ______ _________
00075FA 9160 8028/47E0_00000       40904                       IF    (RRFLAGS.LXCATRTN,O),'SET RRFROM' digest flags
 007606 703A/47F0 7046_07606 07600 40933                       ELSEIF (RRFLAGS.LEXATRTN,O),' SET RREXEC'
 007616 704A/47F0 704E_07616 07610 40971                       ELSE  'SET RRACT'
 00761E D207 8030 BD90 00008 00D90 40993                       MVC   RRFSLN(8),CPFSLN    Save first range element
 007624 9110 BD53      00D53       40994                       TM    CPLFLG4,CPFDESRT    Re-entry to despot
 007628 4710 708C            0765C 40995                       BO    DESPOTRE            Branch yes to set next line
 00762C 1B22                       40996                       CLEAR R2
 00762E 5020 B744            00744 41000                       ST    R2,CPCOUNT          No lines yet
 007632 5020 BD98            00D98 41001                       ST    R2,CPOCCURS         Ditto
 007636 4020 BDA8            00DA8 41002                       STH   R2,CPMDLN           Set no disjoints yet
 00763A 9140 BD57/4710_00D57       41003                       IF    CPFNCUR,NEWROUND    Br if not to update curr line ptr
 007642 9120 8029/4710_00001       41021                       IF    RRFROM,NEWROUND     Do external, exec active ..
 00764A 9140 8029/4710_00001       41039                       IF    RREXEC,DOEXEC
 007652 D203 B5A8 7BAC 005A8 0817C 41057                       MVC   CPACLNO,=F'-1000'   Set invalid * for active file
 007658 47F0 70C2            07692 41058                       B     NEWROUND            Go initialize range
                                   41059
 00765C 9120 BD53      00D53       41060              DESPOTRE TM    CPLFLG4,CPFDESET    Test if cpnwln also set
 007660 4780 73A6            07976 41061                       BZ    KICKNEX1            Br no
                                   41062              * a re-entry to despot has been made specifying the next line
                                   41063              *   to use.  now any count range or occurrence count must be
                                   41064              *   updated to allow one extra line in the range.
 007664 91C0 BD94      00D94       41065                       TM    CPLSLN,FRNGTYP      Is it a count range
 007668 4780 70A8            07678 41066                       BZ    DESPOTR1            Br no
 00766C 4810 BD96            00D96 41067                       LH    R1,CPLSLN+2         Get the old count
 007670 5A10 C4D0            004D0 41068                       A     R1,CVONE            Add one to count
 007674 4010 BD96            00D96 41069                       STH   R1,CPLSLN+2         Save the new count
 007678 9108 BD88/47E0_00D88       41070              DESPOTR1 IF    ~CPFMODS,TSTKICK    Is this an occurrence count
 007680 5810 BD98            00D98 41089                       L     R1,CPOCCURS         Get occurrence count
 007684 0610                       41090                       DECR  R1                  Reduce by one
 007686 5010 BD98            00D98 41092                       ST    R1,CPOCCURS         Save new count
 00768A 47F0 737C            0794C 41093                       B     TSTKICK             Now go process
                                   41094
 00768E 92F0 B75C      0075C       41095              DOEXEC   MVI   CPEXLINE,X'F0'      Set invalid * for exec file
 007692 D203 BD8C BD90 00D8C 00D90 41096              NEWROUND MVC   CPNWLN,CPFSLN       Setup for start
0                                  41098                       ¿þþþþþþþþþþþþþþþþþþþþþþþþþþþþþþþþþþþþþþþþþþþþþþþþþÜ
                                   41099                       Ÿ  Get next line from ACTIVE/EXEC/External file.  Ÿ
                                   41100                       Ÿ                                                 Ÿ
                                   41101                       ¾þþþþþþþþþþþþþþþþþþþþþþþþþþþþþþþþþþþþþþþþþþþþþþþþþ»
0007698                            41103              GETNEXT  LABEL ,                   LOOP THRU LINES
                                   41105
                                   41106                       COMMENT                   ACTIVE FILE
 007698 9180 8029/47E0_00001       41107                       IF    RRACT,BEGIN
 0076A0 58F0 BD8C            00D8C 41122  1                      L     R15,CPNWLN          Line-number to get
 0076A4 4110 803C            00014 41123  1                      LA    R1,RRLINE           Put line here
 0076A8 58E0 7BB0/0DEE       08180 41124  1                      ACALL GETLINE             Get line text
 0076AE 4740 73E0            079B0 41128  1                      BM    QUESFIN             End of file, scram
 0076B2 5000 8038            00010 41129  1                      ST    R0,RRLINELN
 0076B6 D203 BD8C B73C 00D8C 0073C 41130  1                      MVC   CPNWLN,CPLCNO       Save line-number
 0076BC D503 BD8C BD94_00D8C 00D94 41131  1                      IF    (CPNWLN,GT,CPLSLN),QUESFIN  All done, scram
 0076C6                            41152                       END
                                   41156
                                   41157                       COMMENT                   EXEC FILE
1ACT      (ACT2025) (12:40) (15MAR04) READ RANGE (formerly DESPOT) Routine                                                  Page  173
0Current Usings:  (*,R7) (RRWA-(4+36),R8) (CP,R11) (CV,R12)
0Loc    Object Code    Addr1 Addr2  Stmt Lv Lineno    Source Statement           (Hibal 5, Asmedit 3.3)  HLASM R4.0  2004/03/15 12.40
+___    ______ ____    _____ _____  ____ __ ______    ______ _________
00076C6 9140 8029/47E0_00001       41158                       IF    RREXEC,BEGIN
 0076CE 4110 803C            00014 41173  1                      LA    R1,RRLINE           Put line text here
 0076D2 4120 BD8C            00D8C 41174  1                      LA    R2,CPNWLN           Line-number to get
 0076D6 58E0 7BB4/0DEE       08184 41175  1                      VCALL EXFRST              Get line
 0076DC 4770 73E0            079B0 41179  1                      BNZ   QUESFIN             End of file, scram
 0076E0 5000 8038            00010 41180  1                      ST    R0,RRLINELN
 0076E4 D203 B73C BD8C 0073C 00D8C 41181  1                      MVC   CPLCNO,CPNWLN       Save line-number
 0076EA D503 BD8C BD94_00D8C 00D94 41182  1                      IF    (CPNWLN,GT,CPLSLN),QUESFIN  All done, scram
 0076F4                            41203                       END
                                   41207              *
                                   41208              *  NOTE:
                                   41209              *  OLDIBM EXTREAD REQUIRES CPNWLN BE SET PROPERLY; SO DO NOT
                                   41210              *  DIDDLE WITH CPNWLN UNTIL OLDIBM (WYLBUR DISK) CODE IS
                                   41211              *  REMOVED IN FAVOR OF WINGS
                                   41212              *
                                   41213                       COMMENT                   FROM EXTERNAL FILE
 0076F4 9120 8029/47E0_00001       41214                       IF    RRFROM,BEGIN
 0076FC D2EA 803C C4D8 00014 004D8 41229  1                      MVC   RRLINE(&LINESZ),CVBLANKS   Pre blank line
 007702 4110 803C            00014 41230  1                      LA    R1,RRLINE           Put line text here
 007706 4100 00EB            000EB 41231  1                      LA    R0,&LINESZ          Max line length
 00770A 5830 BD8C            00D8C 41232  1                      L     R3,CPNWLN           Min line-number to get
 00770E 58E0 7BB8/0DEE       08188 41233  1                      VCALL EXTREAD             Get external line
                                   41237  1                      COMMENT                   Loop in line no. is too small
 007714 12FF/4770 7168_            41238  1                      WHILE ((R15,Z),AND,(R2,LT,R3)),BEGIN
 007720 D2EA 803C C4D8 00014 004D8 41268  2                        MVC   RRLINE(&LINESZ),CVBLANKS   Pre blank line
 007726 4110 803C            00014 41269  2                        LA    R1,RRLINE
 00772A 4100 00EB            000EB 41270  2                        LA    R0,&LINESZ
 00772E 58E0 7BB8/0DEE       08188 41271  2                        VCALL EXTREAD
 007734 47F0 7144            07714 41275  1                      END
 007738 12FF/4770 73E0             41280  1                      IF    (R15,NZ),QUESFIN    End of file, scram
 00773E 5000 8038            00010 41297  1                      ST    R0,RRLINELN         Save line len
 007742 5020 B73C            0073C 41298  1                      ST    R2,CPLCNO           Save line number
 007746 5020 BD8C            00D8C 41299  1                      ST    R2,CPNWLN
 00774A 5920 C15C/47D0_      0015C 41300  1                      IF    (R2,GT,CVMAXLNO),BEGIN
 007752 4110 7C40/4100_      08210 41317  2                        ERROR 'Delta too big.  Command incomplete.'
 00775E                            41324  1                      END
 00775E 5920 BD94/4720_      00D94 41328  1                      IF    (R2,GT,CPLSLN),QUESFIN  All done, scram
 007766                            41348                       END
                                   41352              *
                                   41353              *        Check for ATTN.
                                   41354              *
 007766 9104 8028/47E0_00000       41355                       IF    RRFLAGS.DESABORT,BEGIN  It's abortable...
 00776E 50F0 D000/41D0_      00000 41371  1                      XPUSH R15,,*
 007776 58E0 7BBC/0DEE       0818C 41374  1                      VCALL TIDLEWR             Write buffer if idle for a while
 00777C 4BD0 7C0C/58F0_      081DC 41378  1                      XPOP  R15,,*
 007784                            41381                       END
                                   41385
 007784 5820 C1C8            001C8 41386                       L     R2,CVCURJCB         Get JCB to test for abort
 USING  JCB,R2                     41387                       WITH  (JCB,R2),BEGIN
 007788 9102 2062/47E0_00062       41401  1                      IF    JCBFATTN,BEGIN      Abort...
 007790 9104 8028/47E0_00000       41416  2                        IF    ~RRFLAGS.DESABORT,EXIT  Not allowed to abort
 007798 58E0 7BC0/0DEE       08190 41435  2                        ACALL RNGABORT            Write aborted message
                                   41439  2
 00779E D207 BD90 8030 00D90 00008 41440  2                        MVC   CPFSLN(8),RRFSLN    Reset first range element
1ACT      (ACT2025) (12:40) (15MAR04) READ RANGE (formerly DESPOT) Routine                                                  Page  174
0Current Usings:  (JCB,R2) (*,R7) (RRWA-(4+36),R8) (CP,R11) (CV,R12)
0Loc    Object Code    Addr1 Addr2  Stmt Lv Lineno    Source Statement           (Hibal 5, Asmedit 3.3)  HLASM R4.0  2004/03/15 12.40
+___    ______ ____    _____ _____  ____ __ ______    ______ _________
00077A4 9180 8028/47E0_00000       41441  2                        IF    ~RRFLAGS.DESRTRN,CVABORT  No return, scram
 0077AC 41F0 0004            00004 41460  2                        LA    R15,4               Set attn rc
 0077B0 47F0 7518            07AE8 41461  2                        B     FINITO1
 0077B4                            41462  1                      END
 DROP   JCB,R2                     41466                       END
                                   41474
 0077B4 9110 BD5A/4710_00D5A       41475                       IF    CPFRQUIT,FINITO     Stop processing lines now
                                   41493
 0077BC 9140 BD88/4710_00D88       41494                       IF    CPFSTRRG,LOCSTR     Associative type range
 0077C4 47F0 7330            07900 41512                       B     TRNSMIT
                                   41513
 0077C8                            41514              LOCSTR   LABEL ,
 0077C8 5860 BDA4            00DA4 41516                       L     R6,CPSTAD           Get first string work area
 USING  ASRWA,R6                   41517                       USING ASRWA,R6
 0077CC 9110 6004/47E0_00004       41526              NEXSTR1  IF    ASRFLAG.ASRFTEXT,BEGIN  text match requires extra...
 0077D4 12F0                       41543  1                      LTR   R15,R0
 0077D6 47D0 721E            077EE 41544  1                      IF    POS,BEGIN           Get a copy of the line...
 0077DA D2EA 823C 1000 00214 00000 41555  2                        MVC   RRLINE2(&LINESZ),@R1  Local copy (incl. trail blanks)
 0077E0 5810 C8A8            008A8 41556  2                        L     R1,CVUPPTBL
 0077E4 06F0/44F0 7C7E_            41557  2                        DEX   R15,'TR RRLINE2(0),@R1'  Convert to caps
 0077EA 4110 823C            00214 41576  2                        SETMSG RRLINE2,(R0)
 0077EE                            41589  1                      END
 0077EE                            41593                       END
                                   41597
                                   41598                       COMMENT                   PROCESS BLANK LINES
 0077EE 1230                       41599                       LTR   R3,R0               Count = 0, blankline
 0077F0 4720 7230            07800 41600                       IF    NP,BEGIN            IF BLANK LINE,,,
 0077F4 9180 6004      00004       41611  1                      TM    ASRFLAG,ASRFBLKR    Is this blank line rnage
 0077F8 4710 729C            0786C 41612  1                      BO    STRFND              Yes, go to string found
 0077FC 47F0 7266            07836 41613  1                      B     STRNFND            No, go to string not found
 007800                            41614                       END
                                   41618                       COMMENT                   IF NOT BLANK, AND WE WANTED BLANK
 007800 9180 6004      00004       41619                       TM    ASRFLAG,ASRFBLKR    Blank lines?
 007804 4710 7266            07836 41620                       BO    STRNFND            Yes - not in range
                                   41621
                                   41622                       COMMENT                   PROCESS PATTERN MATCH
 007808 9108 6004/47E0_00004       41623                       IF    ASRFLAG.ASRFPAT,BEGIN
 007810 58E0 7BC4/0DEE       08194 41639  1                      ACALL PMATCH
 007816 12FF/4780 729C             41643  1                      IF    (R15,Z),STRFND
 00781C 12FF/4770 7266             41660  1                      IF    (R15,NZ),STRNFND
 007822                            41677                       END
                                   41681
                                   41682                       COMMENT                   PROCESS STANDARD STRING MATCH
 007822 58E0 7BC8/0DEE       08198 41683                       ACALL STRMATCH
 007828 12FF/4780 729C             41687                       IF    (R15,Z),STRFND
 00782E 12FF/4770 7266             41704                       IF    (R15,NZ),STRNFND
                                   41721
                                   41722                       COMMENT                   NO OTHER OPTIONS
 007834 0000                       41723                       BOMB
1ACT      (ACT2025) (12:40) (15MAR04) READ RANGE (formerly DESPOT) Routine                                                  Page  175
0Current Usings:  (ASRWA,R6) (*,R7) (RRWA-(4+36),R8) (CP,R11) (CV,R12)
0Loc    Object Code    Addr1 Addr2  Stmt Lv Lineno    Source Statement           (Hibal 5, Asmedit 3.3)  HLASM R4.0  2004/03/15 12.40
+___    ______ ____    _____ _____  ____ __ ______    ______ _________
0                                  41726              *
                                   41727              * string has not been found in line -- this test is 'success' if
                                   41728              * string not wanted or 'unsuccess' if string wanted
                                   41729              *
 007836 4850 6006            00006 41730              STRNFND  LH    R5,ASRBVAL          Pick up branch index
                                   41731              *        B     *+4(R5)             Go to proper branch
                                   41732              *        B     KICKNEX   unsuccess For last strng - not in range
                                   41733              *        B     QUESLIN   success for last string - line in range
                                   41734              *        B     KICKNEX   unsuccess - Line not in range for and
                                   41735              *        B     NEXSTRNG  success - Get next string for and
                                   41736              *        B     NEXSTRNG  unsuccess - Get next string for or
                                   41737              *        B     QUESLIN   success - Line in range for or
 00783A 5950 7BCC/4780_      0819C 41738                       IF    (R5,EQ,0),KICKNEX
 007842 5950 7BD0/4780_      081A0 41758                       IF    (R5,EQ,4),QUESLIN
 00784A 5950 7BD4/4780_      081A4 41778                       IF    (R5,EQ,8),KICKNEX
 007852 5950 7BD8/4780_      081A8 41798                       IF    (R5,EQ,12),NEXSTRNG
 00785A 5950 7BDC/4780_      081AC 41818                       IF    (R5,EQ,16),NEXSTRNG
 007862 5950 7BE0/4780_      081B0 41838                       IF    (R5,EQ,20),QUESLIN
 00786A 0000                       41858                       BOMB  , MUST BE ONE OF ABOVE
                                   41860              *
                                   41861              * string has been found in line -- this test is 'success' if
                                   41862              * string wanted or 'unsuccess' if string not wanted
                                   41863              *
 00786C 4850 6006            00006 41864              STRFND   LH    R5,ASRBVAL          Pick up branch index
                                   41865              *        B     *+4(R5)             Go to proper branch
                                   41866              *        B     QUESLIN   success for last string - line in range
                                   41867              *        B     KICKNEX   unsuccess For last strng - not in range
                                   41868              *        B     NEXSTRNG  success - Get next string for and
                                   41869              *        B     KICKNEX   unsuccess - Line not in range for and
                                   41870              *        B     QUESLIN   success - Line in range for or
                                   41871              *        B     NEXSTRNG  unsuccess - Get next string for or
                                   41872              *
 007870 5950 7BCC/4780_      0819C 41873                       IF    (R5,EQ,0),QUESLIN
 007878 5950 7BD0/4780_      081A0 41893                       IF    (R5,EQ,4),KICKNEX
 007880 5950 7BD4/4780_      081A4 41913                       IF    (R5,EQ,8),NEXSTRNG
 007888 5950 7BD8/4780_      081A8 41933                       IF    (R5,EQ,12),KICKNEX
 007890 5950 7BDC/4780_      081AC 41953                       IF    (R5,EQ,16),QUESLIN
 007898 5950 7BE0/4780_      081B0 41973                       IF    (R5,EQ,20),NEXSTRNG
 0078A0 0000                       41993                       BOMB  , MUST BE ONE OF ABOVE
                                   41995
 0078A2 5860 6000            00000 41996              NEXSTRNG L     R6,ASRPTR           Point to next string area
 0078A6 4110 803C            00014 41997                       LA    R1,RRLINE           Restore pointers to line
 0078AA 5800 8038            00010 41998                       L     R0,RRLINELN
 0078AE 47F0 71FC            077CC 41999                       B     NEXSTR1             Go do next string
1ACT      (ACT2025) (12:40) (15MAR04) READ RANGE (formerly DESPOT) Routine                                                  Page  176
0Current Usings:  (ASRWA,R6) (*,R7) (RRWA-(4+36),R8) (CP,R11) (CV,R12)
0Loc    Object Code    Addr1 Addr2  Stmt Lv Lineno    Source Statement           (Hibal 5, Asmedit 3.3)  HLASM R4.0  2004/03/15 12.40
+___    ______ ____    _____ _____  ____ __ ______    ______ _________
0                                  42001              * the current line passes all string range tests - now process
                                   42002              *        any occurrence counts
 0078B2 4110 803C            00014 42003              QUESLIN  LA    R1,RRLINE           Set R1 to unpressed
 0078B6 9108 BD88/47E0_00D88       42004                       IF    ~CPFMODS,TRNSMIT    Mods
 0078BE 5820 BD98            00D98 42022                       L     R2,CPOCCURS         Increase occurance count
 0078C2 4120 2001            00001 42023                       LA    R2,@R2+1
 0078C6 5020 BD98            00D98 42024                       ST    R2,CPOCCURS
 0078CA 41F0 BDAC            00DAC 42025                       LA    R15,CPMDAD          Addr of mods
 0078CE 58E0 BDA8            00DA8 42026                       L     R14,CPMDLN          Count
 0078D2 4920 F000            00000 42027              TRYNXMD  CH    R2,@R15             Less not in
 0078D6 4740 73A2            07972 42028                       BL    KICKNEX
 0078DA 4920 F002            00002 42029                       CH    R2,@R15+2           Gtr not in
 0078DE 4740 7330            07900 42030                       BL    TRNSMIT             Got one
 0078E2 4780 7322            078F2 42031                       BE    TRNSMATE            Got one
 0078E6 41F0 F004            00004 42032              TRYMRMD  LA    R15,@R15+4          Kick ptr
 0078EA 46E0 7302            078D2 42033                       BCT   R14,TRYNXMD         More
 0078EE 47F0 73E0            079B0 42034                       B     QUESFIN             No, go finish up
                                   42035
 0078F2 46E0 7330            07900 42036              TRNSMATE BCT   R14,TRNSMIT         Test for more mods
 0078F6 D203 BD94 BD8C 00D94 00D8C 42037                       MVC   CPLSLN,CPNWLN       Force as last line
 0078FC 47F0 7330            07900 42038                       B     TRNSMIT             Now transmit the record
1ACT      (ACT2025) (12:40) (15MAR04) READ RANGE (formerly DESPOT) Routine                                                  Page  177
0Current Usings:  (ASRWA,R6) (*,R7) (RRWA-(4+36),R8) (CP,R11) (CV,R12)
0Loc    Object Code    Addr1 Addr2  Stmt Lv Lineno    Source Statement           (Hibal 5, Asmedit 3.3)  HLASM R4.0  2004/03/15 12.40
+___    ______ ____    _____ _____  ____ __ ______    ______ _________
0                                  42040              *
                                   42041              *  SEND LINE TO CO-ROUTINE
                                   42042              *
 007900 9140 BD57/4710_00D57       42043              TRNSMIT  IF    ~CPFNCUR,BEGIN      do update current line ptr
 007908 9180 8029/47E0_00001       42059  1                      IF    RRACT,BEGIN
 007910 D203 B5A8 B73C 005A8 0073C 42074  2                        MVC   CPACLNO,CPLCNO      Update current for active file
 007916                            42075  1                      END
 007916 9140 8029/47E0_00001       42079  1                      IF    RREXEC,BEGIN
 00791E D203 B75C B73C 0075C 0073C 42094  2                        MVC   CPEXLINE,CPLCNO     Update current exec line
 007924                            42095  1                      END
 007924                            42099                       END
 007924 41F0 0001/5EF0_      00001 42103                       INCR  R15,CPCOUNT         Count number of lines found
 007930 9602 BD88      00D88       42109                       SET   CPFSOME             Set something
                                   42115              *
                                   42116              *  LOAD REGS AND CALL CO-ROUTINE !
                                   42117              *
                                   42118              *
 007934 4110 803C            00014 42119                       LA    R1,RRLINE
 007938 5800 8038            00010 42120                       L     R0,RRLINELN
 00793C 18F1                       42121                       LR    R15,R1              ** DEBUG ** WHAT SHOULD R15 BE ??
 00793E 58F0 B73C            0073C 42122                       L     R15,CPLCNO          ** DEBUG ** LINE NO SOUNDS GOOD.
 007942 58E0 802C            00004 42123                       L     R14,RRRTNAD         CO-ROUTINE ADDRESS
 007946 0DEE                       42124                       CALLRTNP R14              CALL ROUTINE VIA POINTER IN R14
                                   42127
                                   42128                       COMMENT , ** DEBUG **    SOMEDAY R15=NZ WILL ABORT RANGE
                                   42129              *        IF    (R15,NZ),...
                                   42130              *
                                   42131              *
                                   42132              *
 007948 94DF BD88      00D88       42133                       CLEAR CPFLSKIP            Set no lines skipped flag
 00794C 9120 8029/47E0_00001       42140              TSTKICK  IF    RRFROM,BEGIN        EXTERNAL FILE ...nal...
 007954 D703 BD8C BD8C 00D8C 00D8C 42156  1                      CLEAR CPNWLN              Always get next available line
 00795A 47F0 73BC            0798C 42163  1                      B     TSTRNGTP            Go test if end of range
 00795E                            42164                       END
                                   42168
 00795E 9120 BD53      00D53       42169                       TM    CPLFLG4,CPFDESET    Has cpnwln been set by work
 007962 4780 73A6            07976 42170                       BZ    KICKNEX1            Branch no
 007966 94DF BD53      00D53       42171                       NI    CPLFLG4,255-CPFDESET  Yes, reset flag
 00796A 5800 BD8C            00D8C 42172                       L     R0,CPNWLN           Load value of cpnwln
 00796E 47F0 73BC            0798C 42173                       B     TSTRNGTP            Go test if at end of range
 DROP   ASRWA,R6                   42174                       DROP  ASRWA
                                   42182
 007972 9620 BD88      00D88       42183              KICKNEX  SET   CPFLSKIP            Set line skipped in range
 007976 4110 0001            00001 42190              KICKNEX1 LA    R1,1                Increment line no
 00797A 5800 BD8C            00D8C 42191                       L     R0,CPNWLN           Pickup last line no sent
 00797E 58E0 7BE4/0DEE       081B4 42192                       VCALL ADDER
 007984 4740 73E0            079B0 42196                       BM    QUESFIN             Too big.
 007988 5000 BD8C            00D8C 42197                       ST    R0,CPNWLN           Set for next locate
 00798C 91C0 BD94      00D94       42198              TSTRNGTP TM    CPLSLN,FRNGTYP      Test count or explicit end
 007990 4780 73D8            079A8 42199                       BZ    GOTNEX              Branch explicit end
 007994 4810 BD96            00D96 42200                       LH    R1,CPLSLN+2         Get remaining count
 007998 4610 73D0            079A0 42201                       BCT   R1,GOTCNT           Decr and br if not end
 00799C 47F0 73E0            079B0 42202                       B     QUESFIN             Go test if finished
                                   42203
1ACT      (ACT2025) (12:40) (15MAR04) READ RANGE (formerly DESPOT) Routine                                                  Page  178
0Current Usings:  (*,R7) (RRWA-(4+36),R8) (CP,R11) (CV,R12)
0Loc    Object Code    Addr1 Addr2  Stmt Lv Lineno    Source Statement           (Hibal 5, Asmedit 3.3)  HLASM R4.0  2004/03/15 12.40
+___    ______ ____    _____ _____  ____ __ ______    ______ _________
00079A0 4010 BD96            00D96 42204              GOTCNT   STH   R1,CPLSLN+2         Save remaining count
 0079A4 47F0 70C8            07698 42205                       B     GETNEXT
                                   42206
 0079A8 5900 BD94            00D94 42207              GOTNEX   C     R0,CPLSLN           Unless too big
 0079AC 47D0 70C8            07698 42208                       BNH   GETNEXT             Do next
 0079B0 9104 BD88/47E0_00D88       42209              QUESFIN  IF    ~CPFDSJNT,FINISH    Disjoint or done
 0079B8 4810 BDA8            00DA8 42228                       LH    R1,CPMDLN           Disjoint length
 0079BC 4120 1001            00001 42229                       LA    R2,@R1+1            Plus 1 into R2
 0079C0 4920 BDAA            00DAA 42230                       CH    R2,CPMDLN+2         Done?
 0079C4 4720 7434            07A04 42231                       BH    FINISH              Yes
 0079C8 8910 0002            00002 42232                       SLL   R1,2                Displacement into list
 0079CC 4111 BDAC            00DAC 42233                       LA    R1,CPMDAD(R1)       Addr item
 0079D0 D207 BD90 1000 00D90 00000 42234                       MVC   CPFSLN(8),@R1       Move line nos
 0079D6 4780 7422            079F2 42235                       BE    DUNWUN              Finished
 0079DA 91C0 BD94      00D94       42236                       TM    CPLSLN,FRNGTYP      One line range?
 0079DE 4780 7422            079F2 42237                       BZ    DUNWUN              Yes
 0079E2 4120 2001            00001 42238                       LA    R2,@R2+1            Kick counter
 0079E6 47E0 7428            079F8 42239                       BNO   DUNTWO              Branch if count range
 0079EA 943F BD94      00D94       42240                       NI    CPLSLN,255-FRNGTYP  Put into legal line no
 0079EE 47F0 7428            079F8 42241                       B     DUNTWO              Finish off
 0079F2 D203 BD94 BD90 00D94 00D90 42242              DUNWUN   MVC   CPLSLN,CPFSLN       Set e-o-range
 0079F8 4020 BDA8            00DA8 42243              DUNTWO   STH   R2,CPMDLN           Restore counter
 0079FC 9620 BD88      00D88       42244                       SET   CPFLSKIP            Set line skipped in range
 007A00 47F0 70C2            07692 42250                       B     NEWROUND            Do next sub-range
1ACT      (ACT2025) (12:40) (15MAR04) READ RANGE (formerly DESPOT) Routine                                                  Page  179
0Current Usings:  (*,R7) (RRWA-(4+36),R8) (CP,R11) (CV,R12)
0Loc    Object Code    Addr1 Addr2  Stmt Lv Lineno    Source Statement           (Hibal 5, Asmedit 3.3)  HLASM R4.0  2004/03/15 12.40
+___    ______ ____    _____ _____  ____ __ ______    ______ _________
0007A04 D207 BD90 8030 00D90 00008 42252              FINISH   MVC   CPFSLN(8),RRFSLN    Reset first range element
 007A0A 9102 BD88/4710_00D88       42253                       IF    CPFSOME,FINITO      Set not void range
                                   42271
 007A12 9110 B477/47E0_00477       42272                       IF    ~CPFTYPED,FINITO    Skip msg if not-typed
                                   42290
 007A1A 4110 7C0E/4100_      081DE 42291                       SETMSG 'No lines in range.'
 007A22 9140 BD88/4710_00D88       42295                       IF    ~CPFSTRRG,BEGIN     Explicit range...
 007A2A 9120 8029/47E0_00001       42310  1                      IF    RRFROM,BEGIN        Nothing in external file...
 007A32 D603 BD90 BD90_00D90 00D90 42325  2                        IF    ((CPFSLN,NZ),OR,(CPLSLN,NE,CVMAXLNO)),EXIT
 007A46 47F0 750E            07ADE 42361  2                        B     FINITO              No lines in ext file, skip msg
 007A4A                            42362  1                      END
                                   42366  1
 007A4A 4110 7C63/4100_      08233 42367  1                      SETMSG 'Lines'
 007A52 9104 BD88/4710_00D88       42371  1                      IF    ~CPFDSJNT,BEGIN     Only one range...
 007A5A D503 BD90 BD94_00D90 00D94 42386  2                        IF    (CPFSLN,EQ,CPLSLN),'DECR R0'  Only one lineno
 007A66 749A/47F0 74AE_07A66 07A62 42411  2                    ELSEIF    ((CPLSLN.FRNGTYP,NZ),AND,(CPLSLN+2,EQ,=H'1')),'DECR R0'
 007A7E                            42461  1                      END
 007A7E 41F0 B050/58E0_      00050 42465  1                      TSEG  (R1),(R0),B
 007A88 58E0 7BEC/0DEE       081BC 42489  1                      ACALL SEGRNG
 007A8E 4110 7B98/4100_      08168 42493  1                      TSEG  ' not in '
 007AA0 1B00                       42511  1                      CLEAR R0
 007AA2 9140 8029/47E0_00001       42515  1                      IF    RREXEC,'SETMSG "EXEC "'
 007AB2 9120 8029/47E0_00001       42539  1                      IF    RRFROM,'SETMSG "EXTERNAL "'
 007AC2 41F0 B050/58E0_      00050 42563  1                      TSEG  (R1),(R0)
 007ACC 4110 7C76/4100_      08246 42587  1                      SETMSG 'file.'
 007AD4                            42591                       END
                                   42595
 007AD4 41F0 B050/58E0_      00050 42596              FINTS    TSEG  (R1),(R0),CR
 007ADE 9180 8028      00000       42621              FINITO   TM    RRFLAGS,DESRTRN     Leave
 007AE2 4780 C7DE            007DE 42622                       BZ    CVNEXT
 007AE6 1BFF                       42623                       CLEAR R15                 Set range ended ok
 007AE8 94EF BD5A      00D5A       42627              FINITO1  CLEAR CPFRQUIT            Clear range stopped flag
 007AEC 18D8/9808 D004_            42635                       PEND  ,
 DROP   RRWA-(4+36),R8
 DROP   *,R7
 USING  *,R7
 DROP   *,R7                       42667                       DROP  BR
1ACT      (ACT2025) (12:40) (15MAR04) READ RANGE (formerly DESPOT) Routine                                                  Page  180
0Current Usings:  (CP,R11) (CV,R12)
0Loc    Object Code    Addr1 Addr2  Stmt Lv Lineno    Source Statement           (Hibal 5, Asmedit 3.3)  HLASM R4.0  2004/03/15 12.40
+___    ______ ____    _____ _____  ____ __ ______    ______ _________
0USING  ASRWA,R6                   42675                       USING ASRWA,R6
                                   42684              ***********************************************************************
                                   42685              ** String Match -- Match literal string to line
                                   42686              **
                                   42687              **  On Entry:  R1,R0 -> Unpressed line    R6 -> ASRWA
                                   42688              **  ON EXIT: R15=0, IF MATCH,,, R15=NZ, IF NO MATCH
                                   42689              **
                                   42690              **
                                   42691              ***********************************************************************
 000000                00000 00100 42692              STRMWA   RECORD BEGIN
 000000                            42700  1           SMTRTTAB   DS    XL256
 000100                00100 00100 42701                       END
                                   42710              *
                                   42711              *
 007AFA 50E0 D000/9008_      00000 42712              STRMATCH PROC  STRMWA
 USING  *,R7
 USING  STRMWA-(4+36),R8
 007B14 D7FF 8028 8028 00000 00000 42762                       CLEAR STRMWA
 007B1A 4850 600E            0000E 42769                       LH    R5,ASRSTRLN         r5 is length of comapre string
 007B1E 9140 6004      00004       42770                       TM    ASRFLAG,ASRFONER
 007B22 47E0 7022            07B36 42771                       IF    O,BEGIN             if starting column, do compare
 007B26 4A10 6008            00008 42782  1                      AH    R1,ASRSCOL          Point to the starting column
 007B2A 4450 7740/D500_      08254 42783  1                      EX    R5,' CLC @R1(0),ASRSTRNG'  Do the compare
 007B2E 4780 7090            07BA4 42799  1                      BE    STRYMAT             Br if string found
 007B32 47F0 7088            07B9C 42800  1                      B     STRNMAT             Br to string not found
 007B36                            42801                       END
                                   42805                       COMMENT                   SCAN FOR FIRST MATCH CHAR
 007B36 1FFF/43F0 6010             42806                       LC    R15,ASRSTRNG        Get first char.
 007B3C 41FF 8028            00000 42813                       LA    R15,SMTRTTAB(R15)   Pt to table slot
 007B40 9204 F000      00000       42814                       MVI   @R15,4              Set to stop
 007B44 9120 6004      00004       42815                       TM    ASRFLAG,ASRFLIMR    Search all line or limit
 007B48 47E0 7044            07B58 42816                       IF    O,BEGIN             IF STRING HAS 2 COL LIMITS
                                   42827  1                      COMMENT                   SET LIMIT OF SCAN
 007B4C 4A10 6008            00008 42828  1                      AH    R1,ASRSCOL          Point to correct first col
 007B50 4830 600A            0000A 42829  1                      LH    R3,ASRCOMP          Set no. of compares
 007B54 47F0 7050            07B64 42830  1                      B     CHKIT               Now go do search
 007B58                            42831                       END
 007B58 4930 76DE            081F2 42835                       CH    R3,=AL2(&LINESZ)    Max chars?
 007B5C 47B0 7050            07B64 42836                       BNL   CHKIT               Yes
 007B60 4130 3001            00001 42837                       LA    R3,@R3+1            End scan at no. chars plus one
 007B64 41F3 5000            00000 42838              CHKIT    LA    R15,0(R3,R5)        Last start +(len-1) le &linesz
 007B68 49F0 76DE            081F2 42839                       CH    R15,=AL2(&LINESZ)   Compare
 007B6C 47D0 7062            07B76 42840                       BNH   MTRT0               Ok
 007B70 4130 00EB            000EB 42841                       LA    R3,&LINESZ          Fixup
 007B74 1B35                       42842                       SR    R3,R5
                                   42843
 007B76 0630                       42844              MTRT0    DECR  R3                  -1 for execute
 007B78 1841                       42846              MTRT     LR    R4,R1               Save start pointer
 007B7A 4430 7746/DD00_      0825A 42847                       EX    R3,'TRT @R1(0),SMTRTTAB' try to match first char
 007B7E 4780 7088            07B9C 42863                       IF    Z,STRNMAT             nope -- >
                                   42877                       COMMENT                     got first char match
 007B82 4450 774C/D500_      08260 42878                       EX    R5,' CLC @R1(0),ASRSTRNG'  try string match
 007B86 4780 7090            07BA4 42894                       BE    STRYMAT               got match -->
 007B8A 4110 1001            00001 42895                       LA    R1,@R1+1            Pt to next scan pos.
1ACT      (ACT2025) (12:40) (15MAR04) READ RANGE (formerly DESPOT) Routine                                                  Page  181
0Current Usings:  (ASRWA,R6) (*,R7) (STRMWA-(4+36),R8) (CP,R11) (CV,R12)
0Loc    Object Code    Addr1 Addr2  Stmt Lv Lineno    Source Statement           (Hibal 5, Asmedit 3.3)  HLASM R4.0  2004/03/15 12.40
+___    ______ ____    _____ _____  ____ __ ______    ______ _________
0007B8E 1821                       42896                       LR    R2,R1               Get stop pt + 1
 007B90 1B24                       42897                       SR    R2,R4               Calculate #chars. scanned
 007B92 1B32                       42898                       SR    R3,R2               Are we finished?
 007B94 47B0 7064            07B78 42899                       BNM   MTRT                No, continue on
 007B98 47F0 7088            07B9C 42900                       B     STRNMAT             Yes - We tried
                                   42901
 007B9C                            42902              STRNMAT  LABEL
 007B9C 41F0 0004            00004 42904                       LA    R15,4
 007BA0 47F0 7096            07BAA 42905                       B     STRMDONE
                                   42906
 007BA4                            42907              STRYMAT  LABEL ,
 007BA4 1BFF                       42909                       CLEAR R15
 007BA6 47F0 7096            07BAA 42913                       B     STRMDONE
                                   42914
 007BAA                            42915              STRMDONE LABEL ,
 007BAA 18D8/9808 D004_            42917                       PEND  ,
 DROP   STRMWA-(4+36),R8
 DROP   *,R7
1ACT      (ACT2025) (12:40) (15MAR04) READ RANGE (formerly DESPOT) Routine                                                  Page  182
0Current Usings:  (ASRWA,R6) (CP,R11) (CV,R12)
0Loc    Object Code    Addr1 Addr2  Stmt Lv Lineno    Source Statement           (Hibal 5, Asmedit 3.3)  HLASM R4.0  2004/03/15 12.40
+___    ______ ____    _____ _____  ____ __ ______    ______ _________
0                                  42943              ***********************************************************************
                                   42944              ** PMATCH -- Pattern match line to pattern string
                                   42945              **
                                   42946              **  On entry:  R1,R0 -> Unpressed line
                                   42947              **             R6    -> ASRWA
                                   42948              **  ON EXIT: R15=0, IF MATCH,,, R15=NZ, IF NO MATCH
                                   42949              **
                                   42950              **
                                   42951              ***********************************************************************
 000000                00000 000F4 42952              PMWA     RECORD BEGIN
 000000                            42960  1           PMR0       DS    F
 000004                            42961  1           PMR1       DS    F
 000008 00                         42962  1           PMFLAG     FLAG  ,                   - Flags
 PMFLAG.PMWILD     80 ONES         42966  1                      FLAG  PMWILD                  Wild card in effect
 PMFLAG.PMFIRST    40 ONES         42971  1                      FLAG  PMFIRST                 First match performed
                                   42976  1           PMGLINE    DS    XL(&LINESZ)         - Generic copy of current line
 000009                                   1          +PMGLINE    DS    XL(235)             - Generic copy of current line
 0000F4                000F4 000F4 42977                       END
-                                  42987              *********
                                   42988              *** Encode a working copy of the line to generics
                                   42989              *********
 007BB8 50E0 D000/9008_      00000 42990              PMATCH   PROC  PMWA
 USING  *,R7
 USING  PMWA-(4+36),R8
 007BD2 D7F3 8028 8028 00000 00000 43040                       CLEAR PMWA
 007BD8 5000 8028            00000 43047                       ST    R0,PMR0
 007BDC 5010 802C            00004 43048                       ST    R1,PMR1
 007BE0 12F0/47D0 7020             43049                       IF    ('LTR R15,R0',POS),BEGIN
 007BE6 D2EA 8031 1000 00009 00000 43062  1                      MVC   PMGLINE(&LINESZ),@R1 Local copy (incl. trl. blanks)
 007BEC 06F0/44F0 7694_            43063  1                      DEX   R15,'TR PMGLINE(0),GENTBL' Translate to generics ...
 007BF2                            43082                       END   ,
 007BF2 4120 8031            00009 43086                       LA    R2,PMGLINE          R2 -> Start of generic line
-                                  43088              *********
                                   43089              *** Adjust working portion of line based on column specs
                                   43090              *********
 007BF6 96C0 8030      00008       43091                       SET   PMWILD+PMFIRST      First match/starting wild
0007BFA 9140 6004/47E0_00004       43101                       IF    ASRFLAG.ASRFONER,BEGIN  Specific starting column ...
 007C02 4A10 6008            00008 43117  1                      AH    R1,ASRSCOL          Adjust to proper starting col
 007C06 4A20 6008            00008 43118  1                      AH    R2,ASRSCOL          Ditto for generic line
 007C0A 947F 8030      00008       43119  1                      CLEAR PMWILD  Don't assume starting wild card
 007C0E                            43126                       END   ,
0007C0E 9120 6004/47E0_00004       43131                       IF    ASRFLAG.ASRFLIMR,BEGIN  Specific column range ...
 007C16 4A10 6008            00008 43147  1                      AH    R1,ASRSCOL          Adjust to proper starting col
 007C1A 4A20 6008            00008 43148  1                      AH    R2,ASRSCOL          Ditto for generic line
 007C1E 4800 600A            0000A 43149  1                      LH    R0,ASRCOMP          Load proper length
 007C22                            43150                       END   ,
1ACT      (ACT2025) (12:40) (15MAR04) READ RANGE (formerly DESPOT) Routine                                                  Page  183
0Current Usings:  (ASRWA,R6) (*,R7) (PMWA-(4+36),R8) (CP,R11) (CV,R12)
0Loc    Object Code    Addr1 Addr2  Stmt Lv Lineno    Source Statement           (Hibal 5, Asmedit 3.3)  HLASM R4.0  2004/03/15 12.40
+___    ______ ____    _____ _____  ____ __ ______    ______ _________
0                                  43155              *********
                                   43156              *** Match the pattern to whatever piece of line is left
                                   43157              *********
 007C22 4140 6010            00010 43158              PRECURSE LA    R4,ASRSTRNG         R4 -> Pattern string
0007C26 955B 4000/4780_00000       43160                       WHILE ((@R4,NE,'$'),AND,(R0,POS)),BEGIN  Process pattern
 007C34 95D3 4000/4770_00000       43191  1                      IF    (@R4,EQ,'L'),BEGIN  Literal segment ...
 007C3C 9180 8030/47E0_00008       43207  2                        IF    PMWILD,BEGIN        Wild card ...
 007C44 58E0 75F6/0DEE       081C8 43222  3           PATLOOP1       ACALL PATSEEK             Find first character
 007C4A 4740 71FC            07DCE 43226  3                          IF    NEG,PNMAT           Didn't find starting char
 007C4E 1A2F                       43240  3                          AR    R2,R15              Adjust generic line accordingly
 007C50                            43241  2                        END   ,
 007C50 1F33/4330 4001             43245  2                        LC    R3,@R4+1            Load comparison length
 007C56 0630/4430 769A_            43252  2                        DEX   R3,'CLC @R1(*-*),@R4+2' Check for our string
 007C5C 4780 70C8            07C9A 43271  2                        IF    NE,BEGIN            Didn't find it ...
 007C60 9140 6004/47E0_00004       43282  3                          IF    (ASRFLAG.ASRFONER,AND,PMFIRST),PNMAT
 007C70 94BF 8030      00008       43315  3                          CLEAR PMFIRST             No longer first match
 007C74 9180 8030/4710_00008       43322  3                          IF    ~PMWILD,BEGIN
 007C7C 9140 6004/4710_00004       43337  4                            IF    ASRFLAG.ASRFONER,PNMAT
 007C84 9680 8030      00008       43356  4                            SET   PMWILD
 007C88 47F0 7050            07C22 43362  4                            B     PRECURSE
 007C8C                            43363  3                          END   ,
 007C8C 5E10 75FA            081CC 43367  3                          INCR  R1                  Skip to next char
 007C90 5E20 75FA            081CC 43370  3                          INCR  R2                  (Ditto for generic line)
 007C94 0600                       43373  3                          DECR  R0                  Adjust length
 007C96 47F0 7072            07C44 43375  3                          B     PATLOOP1            Loop back
 007C9A                            43376  2                        END   ,
 007C9A 94BF 8030      00008       43380  2                        CLEAR PMFIRST             No longer first match
 007C9E 5E30 75FA            081CC 43387  2                        INCR  R3                  Get back real matched length
 007CA2 4111 3000            00000 43390  2                        LA    R1,0(R1,R3)         Skip over matched part
 007CA6 4122 3000            00000 43391  2                        LA    R2,0(R2,R3)         Ditto for generic string
 007CAA 1B03                       43392  2                        SR    R0,R3               Compute # chars left in line
 007CAC 947F 8030      00008       43393  2                        CLEAR PMWILD              Wild card is now done
 007CB0                            43400  1                      END   ,
 007CB0 70E2/47F0 7106_07CB0 07C3A 43404  1                      ELSEIF (@R4+2,EQ,'X'),BEGIN
 007CBC 1F33/4330 4001             43429  2                        LC    R3,@R4+1            Load the repetition factor
 007CC2 5930 75FE/4770_      081D0 43436  2                        IF    (R3,EQ,255),BEGIN
 007CCA 9680 8030      00008       43453  3                          SET   PMWILD              Wild card in effect
 007CCE 4130 0001            00001 43459  3                          LA    R3,1                Always skip one
 007CD2                            43460  2                        END   ,
 007CD2 1A13                       43464  2                        AR    R1,R3               Skip over specified # chars
 007CD4 1A23                       43465  2                        AR    R2,R3               Ditto for generics
 007CD6 1B03                       43466  2                        SR    R0,R3               Adjust length
 007CD8 710A/47F0 71C4 07CD8 07CBA 43467  1                      END   ELSE,BEGIN          Pattern segment ...
 007CDC 9180 8030/47E0_00008       43482  2                        IF    PMWILD,BEGIN        Wild card ...
 007CE4 5010 802C            00004 43497  3           PATLOOP2       ST    R1,PMR1             Save R1 for a bit
 007CE8 1812                       43498  3                          LR    R1,R2               Scan the generic line
 007CEA 58E0 75F6/0DEE       081C8 43499  3                          ACALL PATSEEK             Find first character
 007CF0 1821                       43503  3                          LR    R2,R1               Restore to proper pointer
 007CF2 5810 802C            00004 43504  3                          L     R1,PMR1             Restore R1
 007CF6 12FF/4740 71FC             43505  3                          IF    (R15,NEG),PNMAT     Didn't find starting generic
 007CFC 1A1F                       43522  3                          AR    R1,R15              Adjust char line accordingly
 007CFE                            43523  2                        END   ,
 007CFE 1F33/4330 4001             43527  2                        LC    R3,@R4+1            Load comparison length
1ACT      (ACT2025) (12:40) (15MAR04) READ RANGE (formerly DESPOT) Routine                                                  Page  184
0Current Usings:  (ASRWA,R6) (*,R7) (PMWA-(4+36),R8) (CP,R11) (CV,R12)
0Loc    Object Code    Addr1 Addr2  Stmt Lv Lineno    Source Statement           (Hibal 5, Asmedit 3.3)  HLASM R4.0  2004/03/15 12.40
+___    ______ ____    _____ _____  ____ __ ______    ______ _________
0007D04 5930 75FE/4770_      081D0 43534  2                        IF    (R3,EQ,255),'LA R3,1' Just compare first for now
 007D10 0630/4430 76A0_            43557  2                        DEX   R3,'CLC @R2(*-*),@R4+2' Check for our string
 007D16 4780 7182            07D54 43576  2                        IF    NE,BEGIN            Didn't find  it ...
 007D1A 9140 6004/47E0_00004       43587  3                          IF    (ASRFLAG.ASRFONER,AND,PMFIRST),PNMAT
 007D2A 94BF 8030      00008       43620  3                          CLEAR PMFIRST             No longer first match
 007D2E 9180 8030/4710_00008       43627  3                          IF    ~PMWILD,BEGIN
 007D36 9140 6004/4710_00004       43642  4                            IF    ASRFLAG.ASRFONER,PNMAT
 007D3E 9680 8030      00008       43661  4                            SET   PMWILD
 007D42 47F0 7050            07C22 43667  4                            B     PRECURSE
 007D46                            43668  3                          END   ,
 007D46 5E10 75FA            081CC 43672  3                          INCR  R1                  Skip to next char
 007D4A 5E20 75FA            081CC 43675  3                          INCR  R2                  (Ditto for generic line)
 007D4E 0600                       43678  3                          DECR  R0                  Adjust length
 007D50 47F0 7112            07CE4 43680  3                          B     PATLOOP2            Loop back
 007D54                            43681  2                        END   ,
 007D54 94BF 8030      00008       43685  2                        CLEAR PMFIRST             No longer first match
 007D58 1F33/4330 4001             43692  2                        LC    R3,@R4+1            Get back match length
 007D5E 5930 75FE/4770_      081D0 43699  2                        IF    (R3,EQ,255),BEGIN   A "don't care" length ...
 007D66 D500 2000 4002_00000 00002 43716  3                          WHILE (('CLC @R2(1),@R4+2',EQ),AND,(R0,NZ)),BEGIN
 007D76 5E10 75FA            081CC 43744  4                            INCR  R1                  Skip to next char
 007D7A 5E20 75FA            081CC 43747  4                            INCR  R2                  Ditto for generic line
 007D7E 0600                       43750  4                            DECR  R0                  Adjust Length
 007D80 47F0 7194            07D66 43752  3                          END   ,
 007D84 71B6/47F0 71C0 07D84 07D64 43757  2                        END   ELSE,BEGIN
 007D88 4113 1000            00000 43772  3                          LA    R1,0(R3,R1)         Skip over matched part
 007D8C 4123 2000            00000 43773  3                          LA    R2,0(R3,R2)         Ditto for generic string
 007D90 1B03                       43774  3                          SR    R0,R3               Compute # chars left in line
 007D92                            43775  2                        END   ,
 007D92 947F 8030      00008       43779  2                        CLEAR PMWILD              Wild card is now done
 007D96                            43786  1                      END   ,
 007D96 1F33/4330 4001             43790  1                      LC    R3,@R4+1            Load segment data length
 007D9C 5930 75FE/4780_      081D0 43797  1                      IF    ((R3,EQ,255),OR,(@R4+2,EQ,'X')),'LA R3,1'
 007DB0 4143 4002            00002 43835  1                      LA    R4,2(R3,R4)         Skip to next segment
 007DB4 47F0 7054            07C26 43836                       END   ,
-007DB8 955B 4000/4770_00000       43842                       IF    (@R4,EQ,'$'),BEGIN
 007DC0 5800 8028            00000 43858  1                      L     R0,PMR0             Restore original R0
 007DC4 47F0 71F6            07DC8 43859  1                      B     PYMAT               We found it!
 007DC8                            43860                       END   ,
0                                  43865
 007DC8                            43866              PYMAT    LABEL ,
 007DC8 1BFF                       43868                       CLEAR R15
 007DCA 47F0 7204            07DD6 43872                       B     PMATDONE
                                   43873
 007DCE                            43874              PNMAT    LABEL ,
 007DCE 41F0 0004            00004 43876                       LA    R15,4
 007DD2 47F0 7204            07DD6 43877                       B     PMATDONE
                                   43878
 007DD6                            43879              PMATDONE LABEL ,
 007DD6 18D8/9808 D004_            43881                       PEND  ,
 DROP   PMWA-(4+36),R8
 DROP   *,R7
1ACT      (ACT2025) (12:40) (15MAR04) READ RANGE (formerly DESPOT) Routine                                                  Page  185
0Current Usings:  (ASRWA,R6) (CP,R11) (CV,R12)
0Loc    Object Code    Addr1 Addr2  Stmt Lv Lineno    Source Statement           (Hibal 5, Asmedit 3.3)  HLASM R4.0  2004/03/15 12.40
+___    ______ ____    _____ _____  ____ __ ______    ______ _________
0                                  43907              *********
                                   43908              *   Seek Subroutine
                                   43909              *
                                   43910              *   On Entry: R4 -> Pattern Descriptor
                                   43911              *             R1 -> String start
                                   43912              *             R0 =  String length
                                   43913              *
                                   43914              *   On Exit:  (R15 NEG) Not there
                                   43915              *             (R15 POS) R1 -> String Start
                                   43916              *                       R0 =  Remaining string length
                                   43917              *                       R15 = Number of character skipped
                                   43918              ********
 000000                00000 00104 43919              PSWA     RECORD BEGIN
 000000                            43927  1           PSSTART    DS    A
 000004                            43928  1           PSTRTTAB   DS    XL256
 000104                00104 00104 43929                       END
                                   43938              *
                                   43939              *
 007DE4 50E0 D000/9008_      00000 43940              PATSEEK  PROC  PSWA
 USING  *,R7
 USING  PSWA-(4+36),R8
 007DFE D7FF 8028 8028_00000 00000 43990                       CLEAR PSWA
 007E0A 1F55/4350 4001             43998                       LC    R5,@R4+1            Pick up compare length
 007E10 5950 73D2/4770_      081D0 44005                       IF    (R5,EQ,255),'LA R5,1'
 007E1C 1950/47D0 702E_            44028                       IF    (R5,GT,R0),'LA R15,4; LCR R15,R15; B SEEKDONE'
 007E2C 1FFF/43F0 4002             44051                       LC    R15,@R4+2           Pick up first char
 007E32 41FF 802C            00004 44058                       LA    R15,PSTRTTAB(R15)   Point to table slot
 007E36 9204 F000      00000       44059                       MVI   @R15,4              Set to stop
 007E3A 1830                       44060                       LR    R3,R0               Copy line length
 007E3C 1B35                       44061                       SR    R3,R5               Compute length to perfrom TRT
 007E3E 5010 8028            00000 44062                       ST    R1,PSSTART          Save starting address
 007E42 4430 747A/DD00_      08278 44063                       EX    R3,'TRT @R1(0),PSTRTTAB'
 007E46 4780 7058            07E56 44079                       IF    NZ,BEGIN            A hit ...
 007E4A 18F1                       44090  1                      LR    R15,R1              Copy character loc
 007E4C 5BF0 8028            00000 44091  1                      S     R15,PSSTART         Compute characters skipped
 007E50 1B0F                       44092  1                      SR    R0,R15              Compute characters left
 007E52 5E00 73CE            081CC 44093  1                      INCR  R0                  Adjust ...
 007E56                            44096                       END   ,
 007E56 705C/47F0 7062_07E56 07E48 44100                       ELSE  'LA R15,4; LCR R15,R15 '  Not there ...
0007E60                            44119              SEEKDONE LABEL ,
 007E60 9001 8004            00004 44121                       PRETURN (R0,R1)
 007E64 18D8/9808 D004_            44123                       PEND  ,
 DROP   PSWA-(4+36),R8
 DROP   *,R7
 DROP   ASRWA,R6                   44148                       DROP  R6
1ACT      (ACT2025) (12:40) (15MAR04) READ RANGE (formerly DESPOT) Routine                                                  Page  186
0Current Usings:  (CP,R11) (CV,R12)
0Loc    Object Code    Addr1 Addr2  Stmt Lv Lineno    Source Statement           (Hibal 5, Asmedit 3.3)  HLASM R4.0  2004/03/15 12.40
+___    ______ ____    _____ _____  ____ __ ______    ______ _________
0                                  44156              ¿þþþþþþþþþþþþþþþþþþþþþþþþþþþþþþþþþþþþþþþþþþþþþþþþþþþþþþþþþþþþþþþþþþþþþÜ
                                   44157              Ÿ                                                                     Ÿ
                                   44158              Ÿ  RNGABORT -- Routine to stop the command and tell the user          Ÿ
                                   44159              Ÿ    where the range was stopped.                                     Ÿ
                                   44160              Ÿ                                                                     Ÿ
                                                      ¾þþþþþþþþþþþþþþþþþþþþþþþþþþþþþþþþþþþþþþþþþþþþþþþþþþþþþþþþþþþþþþþþþþþþþ»
0007E72 50E0 D000/9008_      00000 44161              RNGABORT XPROC ,
 USING  *,R7
 007E8C 947F BC7A      00C7A       44201                       CLEAR CPFNONL             Reset NONL
 007E90 D603 B05C B05C_0005C 0005C 44208                       TCCR
 007EB0 D207 B886 72E4 00886 08170 44270                       MVC   CPERRID,=CL8'ABORTRNG'
 007EB6 4110 7368/4100_      081F4 44271                       TSEG  'Range stopped before line '
 007EC8 5800 BD8C            00D8C 44289                       L     R0,CPNWLN           Get abort line number
 007ECC 58E0 7348/0DEE       081D4 44290                       VCALL CVEXNO              Convert to printable format
 007ED2 41F0 B050/58E0_      00050 44294                       TSEG  (R1),(R0),CR
 007EDC 18D8/9808 D004_            44318                       PEND  ,
 DROP   *,R7
1ACT      (ACT2025) (12:40) (15MAR04) READ RANGE (formerly DESPOT) Routine                                                  Page  187
0Current Usings:  (CP,R11) (CV,R12)
0Loc    Object Code    Addr1 Addr2  Stmt Lv Lineno    Source Statement           (Hibal 5, Asmedit 3.3)  HLASM R4.0  2004/03/15 12.40
+___    ______ ____    _____ _____  ____ __ ______    ______ _________
0                                  44339              ¿þþþþþþþþþþþþþþþþþþþþþþþþþþþþþþþþþþþþþþþþþþþþþþþþþþþþþþþþþþþþþþþþþþþþþÜ
                                   44340              Ÿ                                                                     Ÿ
                                   44341              Ÿ  SEGRNG -- Local routine to format explicit range used.             Ÿ
                                   44342              Ÿ                                                                     Ÿ
                                                      ¾þþþþþþþþþþþþþþþþþþþþþþþþþþþþþþþþþþþþþþþþþþþþþþþþþþþþþþþþþþþþþþþþþþþþþ»
0007EEA 50E0 D000/9008_      00000 44343              SEGRNG   PROC  ,
 USING  *,R7
 007F04 5800 BD90            00D90 44382                       L     R0,CPFSLN
 007F08 58E0 72D0/0DEE       081D4 44383                       VCALL CVEXNO              First lineno
 007F0E 41F0 B050/58E0_      00050 44387                       TSEG  (R1),(R0)
 007F18 91C0 BD94/4780_00D94       44411                       IF    (CPLSLN.FRNGTYP,NZ),BEGIN  Occurrance...
 007F20 4110 7347/4100_      0824B 44429  1                      TSEG  '('
 007F32 4810 BD96/1B00_      00D96 44447  1                      TNUM  LH:CPLSLN+2
 007F42 4110 7348/4100_      0824C 44468  1                      TSEG  ')'
 007F54                            44486                       END
 007F54 7054/47F0 7084 07F54 07F1E 44490                       ELSE  BEGIN               Last line...
 007F58 D503 BD90 BD94_00D90 00D94 44501  1                      IF    (CPFSLN,EQ,CPLSLN),EXIT  Same as first, scram
 007F62 4110 7349/4100_      0824D 44522  1                      TSEG  '/'
 007F74 5800 BD94            00D94 44540  1                      L     R0,CPLSLN
 007F78 58E0 72D0/0DEE       081D4 44541  1                      VCALL CVEXNO
 007F7E 41F0 B050/58E0_      00050 44545  1                      TSEG  (R1),(R0)
 007F88                            44569                       END
                                   44573
 007F88 9104 BD88/47E0_00D88       44574                       IF    CPFDSJNT,BEGIN      Disjoint range...
 007F90 1B22                       44589  1                      CLEAR R2
 007F92 4920 BDAA/47B0_      00DAA 44593  1                      WHILE ('CH R2,CPMDLN+2',LT),BEGIN  More ranges...
 007F9A 4110 730A/4100_      0820E 44608  2                        TSEG  ', '
 007FAC 18F2                       44626  2                        LR    R15,R2
 007FAE 4120 2001            00001 44627  2                        LA    R2,@R2+1
 007FB2 89F0 0002            00002 44628  2                        SLL   R15,2
 007FB6 413F BDAC            00DAC 44629  2                        LA    R3,CPMDAD(R15)
 007FBA 5800 3000            00000 44630  2                        L     R0,@R3
 007FBE 58E0 72D0/0DEE       081D4 44631  2                        VCALL CVEXNO
 007FC4 41F0 B050/58E0_      00050 44635  2                        TSEG  (R1),(R0)
 007FCE 4920 BDAA/47A0_      00DAA 44659  2                        IF    ('CH R2,CPMDLN+2',GE),EXIT
 007FD6 D203 BC88 3004 00C88 00004 44675  2                        MVC   CPDOUB(4),@R3+4
 007FDC 943F BC88      00C88       44676  2                        NI    CPDOUB,255-FRNGTYP  Zot flags
 007FE0 91C0 3004/47E0_00004       44677  2                        IF    (@R3+4.FRNGTYP,ONES),BEGIN  Last line...
 007FE8 4120 2001            00001 44695  3                          LA    R2,@R2+1
 007FEC 4110 7349/4100_      0824D 44696  3                          TSEG  '/'
 007FFE 5800 BC88            00C88 44714  3                          L     R0,CPDOUB
 008002 58E0 72D0/0DEE       081D4 44715  3                          VCALL CVEXNO
 008008 41F0 B050/58E0_      00050 44719  3                          TSEG  (R1),(R0)
 008012                            44743  2                        END
 008012 91C0 3004/47B0_00004       44747  2                        IF    (@R3+4.FRNGTYP,MIX),BEGIN  Occurrance...
 00801A 4120 2001            00001 44765  3                          LA    R2,@R2+1
 00801E 4110 7347/4100_      0824B 44766  3                          TSEG  '('
 008030 5810 BC88/1B00_      00C88 44784  3                          TNUM  L:CPDOUB
 008040 4110 7348/4100_      0824C 44806  3                          TSEG  ')'
 008052                            44824  2                        END
 008052 47F0 708E            07F92 44828  1                      END
 008056                            44833                       END
                                   44837
1ACT      (ACT2025) (12:40) (15MAR04) READ RANGE (formerly DESPOT) Routine                                                  Page  188
0Current Usings:  (CP,R11) (CV,R12)
0Loc    Object Code    Addr1 Addr2  Stmt Lv Lineno    Source Statement           (Hibal 5, Asmedit 3.3)  HLASM R4.0  2004/03/15 12.40
+___    ______ ____    _____ _____  ____ __ ______    ______ _________
0008056 18D8/9808 D004_            44838                       PEND  ,
 DROP   *,R7
-                                  44859                  ¿þþþþþþþþþþþþþþþþþþþþþþþþþþþþþþþþþþþþþþþþþþþþþþþþþþþþþþþþþþþþþþþÜ
                                   44860                  Ÿ  GENTBL -- Translate table for EBCDIC to generic conversion.  Ÿ
                                   44861                  ¾þþþþþþþþþþþþþþþþþþþþþþþþþþþþþþþþþþþþþþþþþþþþþþþþþþþþþþþþþþþþþþþ»
0                                  44863              *                0123456789ABCDEF
                                   44864              *
 008064 C3C3C3C3C3C3C3C3           44865              GENTBL   DC    C'CCCCCCCCCCCCCCCC'   0
 008074 C3C3C3C3C3C3C3C3           44866                       DC    C'CCCCCCCCCCCCCCCC'   1
 008084 C3C3C3C3C3C3C3C3           44867                       DC    C'CCCCCCCCCCCCCCCC'   2
 008094 C3C3C3C3C3C3C3C3           44868                       DC    C'CCCCCCCCCCCCCCCC'   3
 0080A4 C2C3C3C3C3C3C3C3           44869                       DC    C'BCCCCCCCCCSSSSSS'   4
 0080B4 E2C3C3C3C3C3C3C3           44870                       DC    C'SCCCCCCCCCSSSSSS'   5
 0080C4 E2E2C3C3C3C3C3C3           44871                       DC    C'SSCCCCCCCCCSSSSS'   6
 0080D4 C3C3C3C3C3C3C3C3           44872                       DC    C'CCCCCCCCCSSSSSSS'   7
 0080E4 C3C1C1C1C1C1C1C1           44873                       DC    C'CAAAAAAAAACCCCCC'   8
 0080F4 C3C1C1C1C1C1C1C1           44874                       DC    C'CAAAAAAAAACCCCCC'   9
 008104 C3C3C1C1C1C1C1C1           44875                       DC    C'CCAAAAAAAACCCSCC'   A
 008114 C3C3C3C3C3C3C3C3           44876                       DC    C'CCCCCCCCCCCCCSCC'   B
 008124 E2C1C1C1C1C1C1C1           44877                       DC    C'SAAAAAAAAACCCCCC'   C
 008134 E2C1C1C1C1C1C1C1           44878                       DC    C'SAAAAAAAAACCCCCC'   D
 008144 E2C3C1C1C1C1C1C1           44879                       DC    C'SCAAAAAAAACCCCCC'   E
 008154 D5D5D5D5D5D5D5D5           44880                       DC    C'NNNNNNNNNNCCCCCC'   F
                                   44881
                                   44882                       QLTORG
1ACT      (ACT2025) (12:40) (15MAR04) LOCATE Routine                                                                        Page  189
0Current Usings:  (CP,R11) (CV,R12)
0Loc    Object Code    Addr1 Addr2  Stmt Lv Lineno    Source Statement           (Hibal 5, Asmedit 3.3)  HLASM R4.0  2004/03/15 12.40
+___    ______ ____    _____ _____  ____ __ ______    ______ _________
0000000                00000 00004 44936              LOCWA    RECORD BEGIN
 000000                            44944  1           LOCLNO     DS    F                   Line-number to find
 000004                00004 00004 44945                       END
-                                  44955              ¿þþþþþþþþþþþþþþþþþþþþþþþþþþþþþþþþþþþþþþþþþþþþþþþþþþþþþþþþþþþþþþþþþþþþþÜ
                                   44956              Ÿ                                                                     Ÿ
                                   44957              Ÿ  LOCATE -- For compatability only!  New callers should use the      Ÿ
                                   44958              Ÿ    GETLINE routine.  The Active file is no longer kept in           Ÿ
                                   44959              Ÿ    pressed format so in order to return a pressed line to the       Ÿ
                                   44960              Ÿ    caller we get a little heap space and build a pressed line.      Ÿ
                                   44961              Ÿ                                                                     Ÿ
                                   44962              Ÿ    On entry:                                                        Ÿ
                                   44963              Ÿ      R1 - ptr to line-number                                        Ÿ
                                   44964              Ÿ                                                                     Ÿ
                                   44965              Ÿ    On exit:                                                         Ÿ
                                   44966              Ÿ      R15 - points to a "pressed line image"                         Ÿ
                                   44967              Ÿ      CPLCNO - line-number of located line                           Ÿ
                                   44968              Ÿ                                                                     Ÿ
                                   44969              Ÿ     Return flags (in 1st byte CPDRPT):                              Ÿ
                                   44970              Ÿ      CPFNTYT - X'80' - ACTIVE file is empty.                        Ÿ
                                   44971              Ÿ      CPFHIGH - X'40' - locate line higher than any preexisting      Ÿ
                                   44972              Ÿ                        with CPLCNO not set                          Ÿ
                                   44973              Ÿ      CPFMTCH - X'08' - locate line matches an existing lineno       Ÿ
                                   44974              Ÿ                                                                     Ÿ
                                                      ¾þþþþþþþþþþþþþþþþþþþþþþþþþþþþþþþþþþþþþþþþþþþþþþþþþþþþþþþþþþþþþþþþþþþþþ»
000827E 50E0 D000/9008_      00000 44975              LOCATE   XPROC LOCWA
 USING  *,R7
 USING  LOCWA-(4+36),R8
 008298 D203 8028 1000 00000 00000 45026                       MVC   LOCLNO,@R1          Save line-number
                                   45027                       ¿þþþþþþþþþþþþþþþþþþþþþþþþþþþþþþþþþþþþþþþþþþþþþþþþþþþþþþþþþþþþþþþÜ
                                   45028                       Ÿ  Get the line text, press it and save it in the heap for the  Ÿ
                                   45029                       Ÿ    caller.                                                    Ÿ
                                   45030                       ¾þþþþþþþþþþþþþþþþþþþþþþþþþþþþþþþþþþþþþþþþþþþþþþþþþþþþþþþþþþþþþþþ»
 00829E 9200 BD84      00D84       45031                       MVI   CPDRPT,0            Reset error flag byte
                                   45032
 0082A2 58F0 8028            00000 45033                       L     R15,LOCLNO
 0082A6 5810 BDD4            00DD4 45034                       L     R1,CPPRESSL         Get press buffer (heap space)
 0082AA 1211/4770 7026             45035                       IF    (R1,Z),BEGIN
 0082B0 4100 0100            00100 45049  1                      LA    R0,&PRESSZ
 0082B4 58E0 7100/0DEE       08398 45050  1                      VCALL GETHEAP
 0082BA 5010 BDD4            00DD4 45054  1                      ST    R1,CPPRESSL
 0082BE                            45055                       END
 0082BE 58E0 7104/0DEE       0839C 45059                       ACALL GETLINE             Get line
 0082C4 47B0 704A            082E2 45063                       IF    NEG,BEGIN           Line-number is too high...
 0082C8 9640 BD84      00D84       45074  1                      SET   CPDRPT.CPFHIGH
 0082CC 41F0 B484            00484 45081  1                      LA    R15,CPTEXT          Active file record group
 0082D0 4100 0001            00001 45082  1                      LA    R0,1                Set number 1 (temporary)
 0082D4 58E0 7108/0DEE       083A0 45083  1                      VCALL XCHKSET             Any lines at all?
 0082DA 4770 704A/9680_      082E2 45087  1                      IF    Z,'SET CPDRPT.CPFNTYT'  No
 0082E2                            45110                       END
                                   45114
 0082E2 704E/47F0 7062 082E2 082C6 45115                       ELSE  BEGIN               Found a line...
1ACT      (ACT2025) (12:40) (15MAR04) LOCATE Routine                                                                        Page  190
0Current Usings:  (*,R7) (LOCWA-(4+36),R8) (CP,R11) (CV,R12)
0Loc    Object Code    Addr1 Addr2  Stmt Lv Lineno    Source Statement           (Hibal 5, Asmedit 3.3)  HLASM R4.0  2004/03/15 12.40
+___    ______ ____    _____ _____  ____ __ ______    ______ _________
00082E6 12FF/4770 7058_            45126  1                      IF    (R15,Z),'SET CPDRPT.CPFMTCH'  Matched exactly
 0082F0 58F0 B73C            0073C 45152  1                      L     R15,CPLCNO          Located line-number
 0082F4 58E0 710C/0DEE       083A4 45153  1                      VCALL PRESS               Press line
 0082FA                            45157                       END
                                   45161
 0082FA 58F0 BDD4            00DD4 45162                       L     R15,CPPRESSL        Always return same area
 0082FE 18D8/9808 D004_            45163                       PEND
 DROP   LOCWA-(4+36),R8
 DROP   *,R7
1ACT      (ACT2025) (12:40) (15MAR04) LOCATE line in Exec File                                                              Page  191
0Current Usings:  (CP,R11) (CV,R12)
0Loc    Object Code    Addr1 Addr2  Stmt Lv Lineno    Source Statement           (Hibal 5, Asmedit 3.3)  HLASM R4.0  2004/03/15 12.40
+___    ______ ____    _____ _____  ____ __ ______    ______ _________
0000000                00000 000F3 45189              LEXWA    RECORD BEGIN
 000000                            45197  1           LEXLNO     DS    F                   Line-number to find
 000004                            45198  1           LEXTEMP    DS    F                   Working line-number
                                   45199  1           LEXWLINE   DS    CL(&LINESZ)         Working line text area
 000008                                   1          +LEXWLINE   DS    CL(235)             Working line text area
 0000F3                000F3 000F3 45200                       END
-                                  45210              ¿þþþþþþþþþþþþþþþþþþþþþþþþþþþþþþþþþþþþþþþþþþþþþþþþþþþþþþþþþþþþþþþþþþþþþÜ
                                   45211              Ÿ                                                                     Ÿ
                                   45212              Ÿ  EXLOCATE -- For compatability only!  New callers should use the    Ÿ
                                   45213              Ÿ    EXGET/EXNEXT routines in EXEC module.                            Ÿ
                                   45214              Ÿ                                                                     Ÿ
                                   45215              Ÿ    Paramaters and returns are the same as for LOCATE routine.       Ÿ
                                   45216              Ÿ                                                                     Ÿ
                                   45217              Ÿ    On entry:                                                        Ÿ
                                   45218              Ÿ      R1 - ptr to line-number                                        Ÿ
                                   45219              Ÿ                                                                     Ÿ
                                   45220              Ÿ    On exit:                                                         Ÿ
                                   45221              Ÿ      R15 - points to a "pressed line image"                         Ÿ
                                   45222              Ÿ      CPLCNO - line-number of located line                           Ÿ
                                   45223              Ÿ                                                                     Ÿ
                                                      ¾þþþþþþþþþþþþþþþþþþþþþþþþþþþþþþþþþþþþþþþþþþþþþþþþþþþþþþþþþþþþþþþþþþþþþ»
000830C 50E0 D000/9008_      00000 45224              EXLOCATE XPROC LEXWA
 USING  *,R7
 USING  LEXWA-(4+36),R8
 008326 D203 8028 1000 00000 00000 45275                       MVC   LEXLNO,@R1          Save line-number
                                   45276                       ¿þþþþþþþþþþþþþþþþþþþþþþþþþþþþþþþþþþþþþþþþþþþþþþþþþþþþþþþþþþþþþþþÜ
                                   45277                       Ÿ  Get the line text, press it and save it in the heap for the  Ÿ
                                   45278                       Ÿ    caller.                                                    Ÿ
                                   45279                       ¾þþþþþþþþþþþþþþþþþþþþþþþþþþþþþþþþþþþþþþþþþþþþþþþþþþþþþþþþþþþþþþþ»
 00832C 9200 BD84      00D84       45280                       MVI   CPDRPT,0            Reset error flag byte
                                   45281
 008330 D203 802C 8028 00004 00000 45282                       MVC   LEXTEMP,LEXLNO      Line-number
 008336 4120 802C            00004 45283                       LA    R2,LEXTEMP
 00833A 5810 BDD4            00DD4 45284                       L     R1,CPPRESSL         Get press buffer (heap space)
 00833E 1211/4770 702C             45285                       IF    (R1,Z),BEGIN
 008344 4100 0100            00100 45299  1                      LA    R0,&PRESSZ
 008348 58E0 7072/0DEE       08398 45300  1                      VCALL GETHEAP
 00834E 5010 BDD4            00DD4 45304  1                      ST    R1,CPPRESSL
 008352                            45305                       END
 008352 58E0 7082/0DEE       083A8 45309                       VCALL EXFRST              Get exec line
 008358 4780 703A/9640_      08360 45313                       IF    NZ,'SET CPDRPT.CPFHIGH'  Higher than last line
                                   45336
 008360 703E/47F0 705A 08360 0835A 45337                       ELSE  BEGIN
 008364 D503 802C 8028_00004 00000 45348  1                      IF    (LEXTEMP,EQ,LEXLNO),'SET CPDRPT.CPFMTCH'  Matched
 008372 58F0 802C            00004 45378  1                      L     R15,LEXTEMP         Located line-number
 008376 50F0 B73C            0073C 45379  1                      ST    R15,CPLCNO          LOCATE must set CPLCNO
 00837A 58E0 707E/0DEE       083A4 45380  1                      VCALL PRESS               Press line
 008380                            45384                       END
                                   45388
 008380 58F0 BDD4            00DD4 45389                       L     R15,CPPRESSL        Always return same area
 008384 18D8/9808 D004_            45390                       PEND
1ACT      (ACT2025) (12:40) (15MAR04) LOCATE line in Exec File                                                              Page  192
0Current Usings:  (CP,R11) (CV,R12)
0Loc    Object Code    Addr1 Addr2  Stmt Lv Lineno    Source Statement           (Hibal 5, Asmedit 3.3)  HLASM R4.0  2004/03/15 12.40
+___    ______ ____    _____ _____  ____ __ ______    ______ _________
0DROP   LEXWA-(4+36),R8
 DROP   *,R7
                                   45415
                                   45416                       QLTORG
1ACT      (ACT2025) (12:40) (15MAR04) MATLINE Routine                                                                       Page  193
0Current Usings:  (CP,R11) (CV,R12)
0Loc    Object Code    Addr1 Addr2  Stmt Lv Lineno    Source Statement           (Hibal 5, Asmedit 3.3)  HLASM R4.0  2004/03/15 12.40
+___    ______ ____    _____ _____  ____ __ ______    ______ _________
0000000                00000 002F6 45434              MATWA    RECORD BEGIN
                                   45442  1
 000000 00                         45443  1           MATFLAG    FLAG
 MATFLAG.MATFMAT   80 ONES         45447  1                      FLAG  MATFMAT             - This line matches range
 MATFLAG.MATFAND   40 ONES         45452  1                      FLAG  MATFAND             - AND-type range
 MATFLAG.MATFME    20 ONES         45457  1                      FLAG  MATFME              - This element matches
 MATFLAG.MATFWILD  10 ONES         45462  1                      FLAG  MATFWILD            - Wild card in effect
 MATFLAG.MATFIRST  08 ONES         45467  1                      FLAG  MATFIRST            - First match performed
                                   45472  1
 000002                            45473  1           MATPCOL    DS    H                   Colum number must be after this
 000004                            45474  1           MATCOL     DS    H                   First matching column (or zero)
                                   45475  1
 000008                            45476  1           MATPTR     DS    A                   Text line loc
 00000C                            45477  1           MATRPTR    DS    A                   Rendition shadow buffer ptr
 000010                            45478  1           MATSAVE1   DS    A                   Local save
 000014                            45479  1           MATSAVE2   DS    A                   Local save
 000018                            45480  1           MATSTART   DS    A                   Local save
 00001C                            45481  1           MATPBEG    DS    A                   Offset to start highlighting
                                   45482  1
                                   45483  1           MATTLINE   DS    CL(&LINESZ)         Copy of text line (for c'...')
 000020                                   1          +MATTLINE   DS    CL(235)             Copy of text line (for c'...')
                                   45484  1           MATRLINE   DS    XL(&LINESZ)         Working rendition buffer
 00010B                                   1          +MATRLINE   DS    XL(235)             Working rendition buffer
                                   45485  1
 0001F6                            45486  1           MATTRTTB   DS    XL256               TRT table area
 0002F6                002F6 002F6 45487                       END
-                                  45497              ¿þþþþþþþþþþþþþþþþþþþþþþþþþþþþþþþþþþþþþþþþþþþþþþþþþþþþþþþþþþþþþþþþþþþþþÜ
                                   45498              Ÿ                                                                     Ÿ
                                   45499              Ÿ  MATLINE -- Routine to highlight any text on a line that is part    Ÿ
                                   45500              Ÿ    of the current associative range.  This routine is called by     Ÿ
                                   45501              Ÿ    the page manager for the VIEW command.                           Ÿ
                                   45502              Ÿ                                                                     Ÿ
                                   45503              Ÿ    On entry:                                                        Ÿ
                                   45504              Ÿ      CPLCNO - line-number                                           Ÿ
                                   45505              Ÿ      R1     - line loc (must be &LINESZ long)                       Ÿ
                                   45506              Ÿ      R2     - rendition line buffer or zero                         Ÿ
                                   45507              Ÿ                 (this shadows the line buffer ptr in R1)            Ÿ
                                   45508              Ÿ      R15    - column must be after this for a match                 Ÿ
                                   45509              Ÿ                                                                     Ÿ
                                   45510              Ÿ    On exit, R15 (and cc):                                           Ÿ
                                   45511              Ÿ      0   - no match                                                 Ÿ
                                   45512              Ÿ      pos - column number of first match                             Ÿ
                                   45513              Ÿ                                                                     Ÿ
                                   45514              Ÿ    Note:  The X'02' bit is set for every character of the matched   Ÿ
                                   45515              Ÿ           string in the rendition buffer.                           Ÿ
                                   45516              Ÿ                                                                     Ÿ
                                                      ¾þþþþþþþþþþþþþþþþþþþþþþþþþþþþþþþþþþþþþþþþþþþþþþþþþþþþþþþþþþþþþþþþþþþþþ»
00083AC 50E0 D000/9008_      00000 45517              MATLINE  XPROC MATWA
 USING  *,R7
 USING  MATWA-(4+36),R8
 0083C6 D7FF 8028 8028_00000 00000 45568                       CLEAR MATWA
1ACT      (ACT2025) (12:40) (15MAR04) MATLINE Routine                                                                       Page  194
0Current Usings:  (*,R7) (MATWA-(4+36),R8) (CP,R11) (CV,R12)
0Loc    Object Code    Addr1 Addr2  Stmt Lv Lineno    Source Statement           (Hibal 5, Asmedit 3.3)  HLASM R4.0  2004/03/15 12.40
+___    ______ ____    _____ _____  ____ __ ______    ______ _________
0                                  45577
 0083D8 40F0 802A            00002 45578                       STH   R15,MATPCOL         Must match column after this
 0083DC D701 802C 802C 00004 00004 45579                       CLEAR MATCOL              Returned first match column
                                   45586
 0083E2 5010 8030            00008 45587                       ST   R1,MATPTR            Save original line text ptr
 0083E6 5020 8034            0000C 45588                       ST    R2,MATRPTR          Save rendition buffer ptr
                                   45589
 0083EA D7EA 8133 8133 0010B 0010B 45590                       CLEAR MATRLINE            Initialize rendition buffer
                                   45597
 0083F0 9140 BD88/47E0_00D88       45598                       IF    ~CPFSTRRG,MATSEXIT  Not an associative range
                                   45616                       ¿þþþþþþþþþþþþþþþþþþþþþþþþþþþþþþþþþþþþþþþþþþþþþþþþþþþþþþþþþÜ
                                   45617                       Ÿ  Check to see if the line-number is in explicit range.  Ÿ
                                   45618                       ¾þþþþþþþþþþþþþþþþþþþþþþþþþþþþþþþþþþþþþþþþþþþþþþþþþþþþþþþþþ»
 0083F8 5860 B73C            0073C 45619                       L     R6,CPLCNO           Our line-number
                                   45620
 0083FC 5960 BD90/4750_      00D90 45621                       IF    (R6,GE,CPFSLN),BEGIN  It could be in bounds...
 008404 91C0 BD94/4740_00D94       45638  1                      IF    (CPLSLN.FRNGTYP,MIX),MATLOK  Assume "(m)" is a match
 00840C 5960 BD94/47C0_      00D94 45659  1                      IF    (R6,LE,CPLSLN),MATLOK  It matches
 008414                            45679                       END
                                   45683
 008414 9104 BD88/47E0_00D88       45684                       IF    CPFDSJNT,BEGIN      Disjoint range...
 00841C 1B22                       45699  1                      CLEAR R2
 00841E 4920 BDAA/47B0_      00DAA 45703  1                      WHILE ('CH R2,CPMDLN+2',LT),BEGIN  More ranges...
 008426 18F2                       45718  2                        LR    R15,R2
 008428 4120 2001            00001 45719  2                        LA    R2,@R2+1
 00842C 89F0 0002            00002 45720  2                        SLL   R15,2
 008430 413F BDAC            00DAC 45721  2                        LA    R3,CPMDAD(R15)      Explicit range entry
 008434 58F0 3000            00000 45722  2                        L     R15,@R3
                                   45723  2
                                   45724  2         C              IF    (('CH R2,CPMDLN+2',GE),OR,
 008438 4920 BDAA/47A0_      00DAA        2                              (@R3+4.FRNGTYP,Z)),BEGIN  Line n...
 008448 196F/4780 70C6             45754  3                          IF    (R6,EQ,R15),MATLOK  Match
 00844E                            45772  2                        END
                                   45776  2
 00844E 708C/47F0 709E_0844E 08446 45777  2                        ELSEIF (@R3+4.FRNGTYP,MIX),BEGIN  Lines n(m)...
 00845A 4120 2001            00001 45804  3                          LA    R2,@R2+1
 00845E 196F/47A0 70C6             45805  3                          IF    (R6,GE,R15),MATLOK  Assume it matches
 008464                            45823  2                        END
                                   45827  2
 008464 70A2/47F0 70BE 08464 08458 45828  2                        ELSE  BEGIN               Lines n/m...
 008468 4120 2001            00001 45839  3                          LA    R2,@R2+1
 00846C D203 BC88 3004 00C88 00004 45840  3                          MVC   CPDOUB(4),@R3+4     Ending lineno
 008472 943F BC88      00C88       45841  3                          CLEAR CPDOUB.FRNGTYP      Zot flags
 008476 196F/4750 70BE_            45849  3                          IF    ((R6,GE,R15),AND,('C R6,CPDOUB',LE)),MATLOK  Match
 008484                            45879  2                        END
 008484 47F0 7058            0841E 45883  1                      END
 008488                            45888                       END
                                   45892
 008488 47F0 7462            08828 45893                       B     MATSEXIT            Not in the explicit range
1ACT      (ACT2025) (12:40) (15MAR04) MATLINE Routine                                                                       Page  195
0Current Usings:  (*,R7) (MATWA-(4+36),R8) (CP,R11) (CV,R12)
0Loc    Object Code    Addr1 Addr2  Stmt Lv Lineno    Source Statement           (Hibal 5, Asmedit 3.3)  HLASM R4.0  2004/03/15 12.40
+___    ______ ____    _____ _____  ____ __ ______    ______ _________
0                                  45894                       ¿þþþþþþþþþþþþþþþþþþþþþþþþþþþþþþþþþþþþþþþþþþþÜ
                                   45895                       Ÿ  Match strings in the associative range.  Ÿ
                                   45896                       ¾þþþþþþþþþþþþþþþþþþþþþþþþþþþþþþþþþþþþþþþþþþþ»
 00848C 5860 BDA4            00DA4 45897              MATLOK   L     R6,CPSTAD
 USING  ASRWA,R6                   45898                       USING ASRWA,R6
                                   45907
 008490 D501 767E 6006_08A44 00006 45908                       IF    ((ASRBVAL,EQ,8),OR,(ASRBVAL,EQ,12)),BEGIN  AND...
 0084A4 96C0 8028      00000       45943  1                      SET   MATFMAT+MATFAND     AND-type range
 0084A8                            45952                       END
 0084A8 9108 6004/4710_00004       45956              MATLOOP  IF    ASRFLAG.ASRFPAT,MATPLINE Pattern matching ...
1ACT      (ACT2025) (12:40) (15MAR04) MATLINE Routine                                                                       Page  196
0Current Usings:  (ASRWA,R6) (*,R7) (MATWA-(4+36),R8) (CP,R11) (CV,R12)
0Loc    Object Code    Addr1 Addr2  Stmt Lv Lineno    Source Statement           (Hibal 5, Asmedit 3.3)  HLASM R4.0  2004/03/15 12.40
+___    ______ ____    _____ _____  ____ __ ______    ______ _________
0                                  45977              *********************************************************************
                                   45978              *  Process a regular string range element.
                                   45979              *********************************************************************
 0084B0 5850 8030            00008 45980                       L     R5,MATPTR           Text line loc
 0084B4 9110 6004/47E0_00004       45981                       IF    ASRFLAG.ASRFTEXT,BEGIN  Copy line to ignore case...
 0084BC D2EA 8048 5000 00020 00000 45997  1                      MVC   MATTLINE,@R5        Make a working copy
 0084C2 5810 C8A8            008A8 45998  1                      L     R1,CVUPPTBL
 0084C6 DCEA 8048 1000 00020 00000 45999  1                      TR    MATTLINE,@R1        Convert to upper case
                                   46000  1
 0084CC 4150 8048            00020 46001  1                      LA    R5,MATTLINE         Set new line loc ptr
 0084D0                            46002                       END
 0084D0 4140 00EB            000EB 46006                       LA    R4,&LINESZ
                                   46007
 0084D4 94DF 8028      00000       46008                       CLEAR MATFME              Assume element won't match
                                   46015
 0084D8 9180 6004/4710_00004       46016                       IF    ASRFLAG.ASRFBLKR,MATNEXT  Ignore blank range
                                   46035
 0084E0 48F0 600E            0000E 46036                       LH    R15,ASRSTRLN
 0084E4 1B4F                       46037                       SR    R4,R15              Adjust length (for last compare)
                                   46038
 0084E6 1FFF/43F0 6010             46039                       LC    R15,ASRSTRNG        First char of string
 0084EC 41FF 821E            001F6 46046                       LA    R15,MATTRTTB(R15)   Table position
 0084F0 9204 F000      00000       46047                       MVI   @R15,4              Set to stop
                                   46048
 0084F4 1815                       46049                       LR    R1,R5               Working text ptr
                                   46050
 0084F6 9160 6004/4780_00004       46051                       IF    ASRFLAG.ASRFONER+ASRFLIMR,BEGIN  Limited columns...
 0084FE 4A10 6008            00008 46070  1                      AH    R1,ASRSCOL          Adjust for starting column
 008502 4B40 6008            00008 46071  1                      SH    R4,ASRSCOL
                                   46072  1
 008506 9140 6004/47E0_00004       46073  1                      IF    ASRFLAG.ASRFONER,'LA R4,1'  Only check this column
 008512 9120 6004/47E0_00004       46095  1                      IF    ASRFLAG.ASRFLIMR,'CEIL R4,ASRCOMP'  Limit last column
 008526                            46122                       END
                                   46126
 008526 1244/47D0 71BC             46127                       WHILE (R4,POS),BEGIN      Look for the string...
 00852C 1831                       46143  1                      LR    R3,R1
 00852E 0640                       46144  1                      DECR  R4
 008530 4440 7682/DD00_      08A48 46146  1                      EX    R4,'TRT @R1(0),MATTRTTB'  Match first char
 008534 4780 71BC            08582 46162  1                      BZ    MATNEXT             No match, go get next string
 008538 48F0 600E            0000E 46163  1           MATCLC     LH    R15,ASRSTRLN
 00853C 44F0 7688/D500_      08A4E 46164  1                      EX    R15,' CLC   @R1(*-*),ASRSTRNG '
 008540 4770 71AE            08574 46180  1                      IF    EQ,BEGIN            Matched...
 008544 9620 8028      00000       46191  2                        SET   MATFME              Text matches this element
 008548 1B15                       46197  2                        SR    R1,R5               Offset to matched string
 00854A 41F0 1001            00001 46198  2                        LA    R15,@R1+1           Matching column number
 00854E D601 802C 802C_00004 00004 46199  2                        IF    ((MATCOL,Z),AND,(R15,GT,MATPCOL)),BEGIN  Match...
 008560 40F0 802C            00004 46231  3                          STH   R15,MATCOL          Save first matching column
 008564                            46232  2                        END
                                   46236  2
 008564 41F0 8133            0010B 46237  2                        LA    R15,MATRLINE        Working rendition buffer
 008568 1AF1                       46238  2                        AR    R15,R1
 00856A 4820 600E            0000E 46239  2                        LH    R2,ASRSTRLN         String length
 00856E 4420 768E/D600_      08A54 46240  2                        EX    R2,'OC @R15(0),MATHIGH'  Highlight the entire string
                                   46256  2
1ACT      (ACT2025) (12:40) (15MAR04) MATLINE Routine                                                                       Page  197
0Current Usings:  (ASRWA,R6) (*,R7) (MATWA-(4+36),R8) (CP,R11) (CV,R12)
0Loc    Object Code    Addr1 Addr2  Stmt Lv Lineno    Source Statement           (Hibal 5, Asmedit 3.3)  HLASM R4.0  2004/03/15 12.40
+___    ______ ____    _____ _____  ____ __ ______    ______ _________
0008572 1813                       46257  2                        LR    R1,R3               Advances one char
 008574                            46258  1                      END
                                   46262  1
 008574 1B31                       46263  1                      SR    R3,R1
 008576 1333                       46264  1                      LCR   R3,R3               Length scanned
 008578 4110 1001            00001 46265  1                      LA    R1,@R1+1            Past last char matched
 00857C 1B43                       46266  1                      SR    R4,R3               New length (note DECR above)
 00857E 47F0 7160            08526 46267                       END
                                   46272
 008582                            46273              MATNEXT  LABEL ,
 008582 47F0 7430            087F6 46275                       B     MATNEXTR            On to next string range
1ACT      (ACT2025) (12:40) (15MAR04) MATLINE Routine                                                                       Page  198
0Current Usings:  (ASRWA,R6) (*,R7) (MATWA-(4+36),R8) (CP,R11) (CV,R12)
0Loc    Object Code    Addr1 Addr2  Stmt Lv Lineno    Source Statement           (Hibal 5, Asmedit 3.3)  HLASM R4.0  2004/03/15 12.40
+___    ______ ____    _____ _____  ____ __ ______    ______ _________
0                                  46277              *********************************************************************
                                   46278              ** MATPLINE -- Pattern match line to pattern string
                                   46279              *********************************************************************
-                                  46281              *********
                                   46282              *** Encode a working copy of the line to generics
                                   46283              *********
 008586 5810 8030            00008 46284              MATPLINE L     R1,MATPTR           Load pointer to line
 00858A 4100 00EB            000EB 46285                       LA    R0,&LINESZ          Load line length
 00858E D2EA 8048 1000 00020 00000 46286                       MVC   MATTLINE,@R1        Local copy
 008594 58F0 766A            08A30 46287                       L     R15,=A(GENTBL)      Load pointer to generic table
 008598 DCEA 8048 F000 00020 00000 46288                       TR    MATTLINE,@R15       Translate to generics ...
 00859E 4120 8048            00020 46289                       LA    R2,MATTLINE         R2 -> Start of generic line
 0085A2 94DF 8028      00000       46290                       CLEAR MATFME              Assume element won't match
 0085A6 9180 6004/4710_00004       46297                       IF    ASRFLAG.ASRFBLKR,MATNEXTR Ignore blank range
-                                  46317              *********
                                   46318              *** Adjust working portion of line based on column specs
                                   46319              *********
 0085AE 9610 8028/9608_00000       46320                       SET   MATFWILD,MATFIRST   First match, starting wild
00085B6 9140 6004/47E0_00004       46331                       IF    ASRFLAG.ASRFONER,BEGIN  Specific starting column ...
 0085BE 4A10 6008            00008 46347  1                      AH    R1,ASRSCOL          Adjust to proper starting col
 0085C2 4A20 6008            00008 46348  1                      AH    R2,ASRSCOL          Ditto for generic line
 0085C6 94EF 8028      00000       46349  1                      CLEAR MATFWILD            Don't assume starting wild card
 0085CA                            46356                       END   ,
00085CA 9120 6004/47E0_00004       46361                       IF    ASRFLAG.ASRFLIMR,BEGIN  Specific column range ...
 0085D2 4A10 6008            00008 46377  1                      AH    R1,ASRSCOL          Adjust to proper starting col
 0085D6 4A20 6008            00008 46378  1                      AH    R2,ASRSCOL          Ditto for generic line
 0085DA 4800 600A            0000A 46379  1                      LH    R0,ASRCOMP          Load proper length
 0085DE                            46380                       END   ,
-                                  46385              *********
                                   46386              *** Match the pattern to whatever piece of line is left
                                   46387              *********
 0085DE D703 8044 8044 0001C 0001C 46388              MATRECUR CLEAR MATPBEG             Reset match start offset
00085E4 4140 6010            00010 46397                       LA    R4,ASRSTRNG         R4 -> Pattern string
 0085E8 955B 4000/4780_00000       46398                       WHILE ((@R4,NE,'$'),AND,(R0,POS)),BEGIN  Process pattern
 0085F6 95D3 4000/4770_00000       46429  1                      IF    (@R4,EQ,'L'),BEGIN  Literal segment ...
 0085FE 9110 8028/47E0_00000       46445  2                        IF    MATFWILD,BEGIN      Wild card ...
 008606                            46460  3           MATLOOP1       LABEL ,
 008606 58E0 766E/0DEE       08A34 46462  3                          ACALL MATSEEK             Find first character
 00860C 4740 7430            087F6 46466  3                          IF    NEG,MATNEXTR        Didn't find starting char
 008610 1A2F                       46480  3                          AR    R2,R15              Adjust generic line accordingly
 008612                            46481  2                        END   ,
 008612 1F33/4330 4001             46485  2                        LC    R3,@R4+1            Load comparison length
 008618 0630/4430 7694_            46492  2                        DEX   R3,'CLC @R1(*-*),@R4+2' Check for our string
 00861E 4780 7296            0865C 46511  2                        IF    NE,BEGIN            Didn't find it ...
 008622 9140 6004/47E0_00004       46522  3                          IF    (ASRFLAG.ASRFONER,AND,MATFIRST),MATNEXTR
1ACT      (ACT2025) (12:40) (15MAR04) MATLINE Routine                                                                       Page  199
0Current Usings:  (ASRWA,R6) (*,R7) (MATWA-(4+36),R8) (CP,R11) (CV,R12)
0Loc    Object Code    Addr1 Addr2  Stmt Lv Lineno    Source Statement           (Hibal 5, Asmedit 3.3)  HLASM R4.0  2004/03/15 12.40
+___    ______ ____    _____ _____  ____ __ ______    ______ _________
0008632 94F7 8028      00000       46555  3                          CLEAR MATFIRST            No longer first match
 008636 9110 8028/4710_00000       46562  3                          IF    ~MATFWILD,BEGIN
 00863E 9140 6004/4710_00004       46577  4                            IF    ASRFLAG.ASRFONER,MATNEXTR
 008646 9610 8028      00000       46596  4                            SET   MATFWILD
 00864A 47F0 7218            085DE 46602  4                            B     MATRECUR
 00864E                            46603  3                          END   ,
 00864E 5E10 7672            08A38 46607  3                          INCR  R1                  Skip to next char
 008652 5E20 7672            08A38 46610  3                          INCR  R2                  (Ditto for generic line)
 008656 0600                       46613  3                          DECR  R0                  Adjust length
 008658 47F0 7240            08606 46615  3                          B     MATLOOP1            Loop back
 00865C                            46616  2                        END   ,
 00865C 94F7 8028      00000       46620  2                        CLEAR MATFIRST            No longer first match
 008660 5E30 7672            08A38 46627  2                        INCR  R3                  Get back real matched length
 008664 41F0 8028            00000 46630  2                        LA    R15,MATWA
 008668 58E0 7676/0DEE       08A3C 46631  2                        ACALL MATSETR             Set the rendition buffer
 00866E 4111 3000            00000 46635  2                        LA    R1,0(R1,R3)         Skip over matched part
 008672 4122 3000            00000 46636  2                        LA    R2,0(R2,R3)         Ditto for generic string
 008676 1B03                       46637  2                        SR    R0,R3               Compute # chars left in line
 008678 94EF 8028      00000       46638  2                        CLEAR MATFWILD            Wild card is now done
 00867C                            46645  1                      END   ,
 00867C 72BA/47F0 72E8_0867C 085FC 46649  1                      ELSEIF (@R4+2,EQ,'X'),BEGIN
 008688 41F0 8028            00000 46674  2                        LA    R15,MATWA
 00868C 58E0 7676/0DEE       08A3C 46675  2                        ACALL MATSETR             Set the rendition buffer
 008692 1F33/4330 4001             46679  2                        LC    R3,@R4+1            Load the repetition factor
 008698 5930 767A/4770_      08A40 46686  2                        IF    (R3,EQ,255),BEGIN
 0086A0 9610 8028      00000       46703  3                          SET   MATFWILD            Wild card in effect
 0086A4 4130 0001            00001 46709  3                          LA    R3,1                Always skip one
 0086A8                            46710  2                        END   ,
 0086A8 1A13                       46714  2                        AR    R1,R3               Skip over specified # chars
 0086AA 1A23                       46715  2                        AR    R2,R3               Ditto for generics
 0086AC 1B03                       46716  2                        SR    R0,R3               Adjust length
 0086AE 72EC/47F0 73C2 086AE 08686 46717  1                      END   ELSE,BEGIN          Pattern segment ...
 0086B2 9110 8028/47E0_00000       46732  2                        IF    MATFWILD,BEGIN      Wild card ...
 0086BA 5010 8038            00010 46747  3           MATLOOP2       ST    R1,MATSAVE1         Save R1 for a bit
 0086BE 1812                       46748  3                          LR    R1,R2               Scan the generic line
 0086C0 58E0 766E/0DEE       08A34 46749  3                          ACALL MATSEEK             Find first character
 0086C6 1821                       46753  3                          LR    R2,R1               Restore to proper pointer
 0086C8 5810 8038            00010 46754  3                          L     R1,MATSAVE1         Restore R1
 0086CC 12FF/4740 7430             46755  3                          IF    (R15,NEG),MATNEXTR  Didn't find starting generic
 0086D2 1A1F                       46772  3                          AR    R1,R15              Adjust char line accordingly
 0086D4                            46773  2                        END   ,
 0086D4 1F33/4330 4001             46777  2                        LC    R3,@R4+1            Load comparison length
 0086DA 5930 767A/4770_      08A40 46784  2                        IF    (R3,EQ,255),'LA R3,1' Just compare first for now
 0086E6 0630/4430 769A_            46807  2                        DEX   R3,'CLC @R2(*-*),@R4+2' Check for our string
 0086EC 4780 7364            0872A 46826  2                        IF    NE,BEGIN            Didn't find  it ...
 0086F0 9140 6004/47E0_00004       46837  3                          IF    (ASRFLAG.ASRFONER,AND,MATFIRST),MATNEXTR
 008700 94F7 8028      00000       46870  3                          CLEAR MATFIRST            No longer first match
 008704 9110 8028/4710_00000       46877  3                          IF    ~MATFWILD,BEGIN
 00870C 9140 6004/4710_00004       46892  4                            IF    ASRFLAG.ASRFONER,MATNEXTR
 008714 9610 8028      00000       46911  4                            SET   MATFWILD
 008718 47F0 7218            085DE 46917  4                            B     MATRECUR
 00871C                            46918  3                          END   ,
 00871C 5E10 7672            08A38 46922  3                          INCR  R1                  Skip to next char
 008720 5E20 7672            08A38 46925  3                          INCR  R2                  (Ditto for generic line)
1ACT      (ACT2025) (12:40) (15MAR04) MATLINE Routine                                                                       Page  200
0Current Usings:  (ASRWA,R6) (*,R7) (MATWA-(4+36),R8) (CP,R11) (CV,R12)
0Loc    Object Code    Addr1 Addr2  Stmt Lv Lineno    Source Statement           (Hibal 5, Asmedit 3.3)  HLASM R4.0  2004/03/15 12.40
+___    ______ ____    _____ _____  ____ __ ______    ______ _________
0008724 0600                       46928  3                          DECR  R0                  Adjust length
 008726 47F0 72F4            086BA 46930  3                          B     MATLOOP2            Loop back
 00872A                            46931  2                        END   ,
 00872A 94F7 8028      00000       46935  2                        CLEAR MATFIRST            No longer first match
 00872E 1F33/4330 4001             46942  2                        LC    R3,@R4+1            Get back match length
 008734 5930 767A/4770_      08A40 46949  2                        IF    (R3,EQ,255),BEGIN   A "don't care" length ...
 00873C 1B33                       46966  3                          CLEAR R3                  Reset so we can count
 00873E D500 2000 4002_00000 00002 46970  3                          WHILE (('CLC @R2(1),@R4+2',EQ),AND,(R0,NZ)),BEGIN
 00874E 5E30 7672            08A38 46998  4                            INCR  R3                  Count the match
 008752 5E20 7672            08A38 47001  4                            INCR  R2                  Ditto for generic line
 008756 0600                       47004  4                            DECR  R0                  Adjust Length
 008758 47F0 7378            0873E 47006  3                          END   ,
 00875C 41F0 8028            00000 47011  3                          LA    R15,MATWA
 008760 58E0 7676/0DEE       08A3C 47012  3                          ACALL MATSETR             Set the rendition buffer
 008766 1A13                       47016  3                          AR    R1,R3               Adjust text pointer
 008768 4130 00FF            000FF 47017  3                          LA    R3,255              Reload "don't care" length
 00876C 73AA/47F0 73BE 0876C 0873A 47018  2                        END   ELSE,BEGIN
 008770 41F0 8028            00000 47033  3                          LA    R15,MATWA
 008774 58E0 7676/0DEE       08A3C 47034  3                          ACALL MATSETR             Set the rendition buffer
 00877A 4113 1000            00000 47038  3                          LA    R1,0(R3,R1)         Skip over matched part
 00877E 4123 2000            00000 47039  3                          LA    R2,0(R3,R2)         Ditto for generic string
 008782 1B03                       47040  3                          SR    R0,R3               Compute # chars left in line
 008784                            47041  2                        END   ,
 008784 94EF 8028      00000       47045  2                        CLEAR MATFWILD            Wild card is now done
 008788                            47052  1                      END   ,
 008788 1F33/4330 4001             47056  1                      LC    R3,@R4+1            Load segment data length
 00878E 5930 767A/4780_      08A40 47063  1                      IF    ((R3,EQ,255),OR,(@R4+2,EQ,'X')),'LA R3,1'
 0087A2 4143 4002            00002 47101  1                      LA    R4,2(R3,R4)         Skip to next segment
 0087A6 47F0 7222            085E8 47102                       END   ,
-0087AA 955B 4000/4770_00000       47108                       IF    (@R4,EQ,'$'),BEGIN
 0087B2 9620 8028      00000       47124  1                      SET   MATFME              We found it!
 0087B6 1831                       47130  1                      LR    R3,R1               Copy text loc
 0087B8 5B30 8030            00008 47131  1                      S     R3,MATPTR           Convert to offset
 0087BC 9110 8028/47E0_00000       47132  1                      IF    MATFWILD,'LA R3,&LINESZ'
 0087C8 5B30 8044            0001C 47153  1                      S     R3,MATPBEG          And then to length of pattern match
 0087CC 5E30 7672            08A38 47154  1                      INCR  R3                  Adjust (MATPBEG was not offset)
 0087D0 41F0 8133            0010B 47157  1                      LA    R15,MATRLINE        Point to rendition buffer
 0087D4 5AF0 8044            0001C 47158  1                      A     R15,MATPBEG         And then to highlight start
 0087D8 06F0                       47159  1                      DECR  R15                 Adjust (MATPBEG was not offset)
 0087DA 1233/47D0 7420_            47161  1                      TDEX  R3,'OC @R15(*-*),MATHIGH' Highlight matched text
 0087E6 9140 6004/4710_00004       47199  1                      IF    ASRFLAG.ASRFONER,MATNEXTR
 0087EE 47F0 7218            085DE 47218  1                      B     MATRECUR            Scan rest of line
 0087F2                            47219                       END   ,
00087F2 47F0 7430            087F6 47224                       B     MATNEXTR            Oh well, we tried ...
1ACT      (ACT2025) (12:40) (15MAR04) MATLINE Routine                                                                       Page  201
0Current Usings:  (ASRWA,R6) (*,R7) (MATWA-(4+36),R8) (CP,R11) (CV,R12)
0Loc    Object Code    Addr1 Addr2  Stmt Lv Lineno    Source Statement           (Hibal 5, Asmedit 3.3)  HLASM R4.0  2004/03/15 12.40
+___    ______ ____    _____ _____  ____ __ ______    ______ _________
00087F6 9140 8028/47E0_00000       47226              MATNEXTR IF    MATFAND,BEGIN       AND range...
 0087FE 9120 8028/4710_00000       47242  1                      IF    ~MATFME,BEGIN       One element didn't match...
 008806 947F 8028      00000       47257  2                        CLEAR MATFMAT             Then it's no match
 00880A 47F0 7462            08828 47264  2                        B     MATSEXIT            Scram
 00880E                            47265  1                      END
 00880E                            47269                       END
                                   47273
 00880E 744C/47F0 7458 0880E 087FC 47274                       ELSE  BEGIN               OR range...
 008812 9120 8028/47E0_00000       47285  1                      IF    MATFME,'SET MATFMAT'  Matched
 00881E                            47311                       END
                                   47315
 00881E 5860 6000            00000 47316                       L     R6,ASRPTR           Next string range
 008822 1266                       47317                       LTR   R6,R6
 008824 4770 70E2            084A8 47318                       BNZ   MATLOOP             Go back
                                   47319
 008828                            47320              MATSEXIT LABEL ,
                                   47322
 008828 1BFF                       47323                       CLEAR R15                 Set no match return code
 00882A 9180 8028/47E0_00000       47327                       IF    MATFMAT,BEGIN       Matched range...
 008832 58F0 8034/12FF       0000C 47342  1                      LT    R15,MATRPTR         Rendition buffer
 008838 4780 747C/D6EA_      08842 47346  1                      IF    NZ,'OC @R15(L"MATRLINE),MATRLINE'  Highlight our stuff
 008842 48F0 802C            00004 47363  1                      LH    R15,MATCOL          Return first matched column
 008846                            47364                       END
 008846 9001 8004            00004 47368                       PRETURN (R0,R1)
 00884A 18D8/9808 D004_            47370                       PEND  ,
 DROP   MATWA-(4+36),R8
 DROP   *,R7
 DROP   ASRWA,R6                   47395                       DROP  ASRWA
1ACT      (ACT2025) (12:40) (15MAR04) MATLINE Routine                                                                       Page  202
0Current Usings:  (CP,R11) (CV,R12)
0Loc    Object Code    Addr1 Addr2  Stmt Lv Lineno    Source Statement           (Hibal 5, Asmedit 3.3)  HLASM R4.0  2004/03/15 12.40
+___    ______ ____    _____ _____  ____ __ ______    ______ _________
0                                  47404              *********
                                   47405              *   Seek Subroutine
                                   47406              *
                                   47407              *   On Entry: R4 -> Pattern Descriptor
                                   47408              *             R1 -> String start
                                   47409              *             R0 =  String length
                                   47410              *
                                   47411              *   On Exit:  (R15 NEG) Not there
                                   47412              *             (R15 POS) R1 -> String Start
                                   47413              *                       R0 =  Remaining string length
                                   47414              *                       R15 = Number of character skipped
                                   47415              ********
 000000                00000 00104 47416              MSWA     RECORD BEGIN
 000000                            47424  1           MSSTART    DS    A
 000004                            47425  1           MSTRTTAB   DS    XL256
 000104                00104 00104 47426                       END
                                   47435              *
                                   47436              *
 008858 50E0 D000/9008_      00000 47437              MATSEEK  PROC  MSWA
 USING  *,R7
 USING  MSWA-(4+36),R8
 008872 D7FF 8028 8028_00000 00000 47487                       CLEAR MSWA
 00887E 1F55/4350 4001             47495                       LC    R5,@R4+1            Pick up compare length
 008884 5950 71CE/4770_      08A40 47502                       IF    (R5,EQ,255),'LA R5,1'
 008890 1950/47D0 702E_            47525                       IF    (R5,GT,R0),'LA R15,4; LCR R15,R15; B MATSEEKD'
 0088A0 1FFF/43F0 4002             47548                       LC    R15,@R4+2           Pick up first char
 0088A6 41FF 802C            00004 47555                       LA    R15,MSTRTTAB(R15)   Point to table slot
 0088AA 9204 F000      00000       47556                       MVI   @R15,4              Set to stop
 0088AE 1830                       47557                       LR    R3,R0               Copy line length
 0088B0 1B35                       47558                       SR    R3,R5               Compute length to perfrom TRT
 0088B2 5010 8028            00000 47559                       ST    R1,MSSTART          Save starting address
 0088B6 4430 71FA/DD00_      08A6C 47560                       EX    R3,'TRT @R1(0),MSTRTTAB'
 0088BA 4780 7058            088CA 47576                       IF    NZ,BEGIN            A hit ...
 0088BE 18F1                       47587  1                      LR    R15,R1              Copy character loc
 0088C0 5BF0 8028            00000 47588  1                      S     R15,MSSTART         Compute characters skipped
 0088C4 1B0F                       47589  1                      SR    R0,R15              Compute characters left
 0088C6 5E00 71C6            08A38 47590  1                      INCR  R0                  Adjust ...
 0088CA                            47593                       END   ,
 0088CA 705C/47F0 7062_088CA 088BC 47597                       ELSE  'LA R15,4; LCR R15,R15' Not there ...
00088D4                            47616              MATSEEKD LABEL ,
 0088D4 9001 8004            00004 47618                       PRETURN (R0,R1)
 0088D8 18D8/9808 D004_            47620                       PEND  ,                   Return to caller
 DROP   MSWA-(4+36),R8
 DROP   *,R7
                                   47645                       DROP  R6
-                                  47650              *********
                                   47651              *  MATSETR -- Set rendition buffer for matched portion
                                   47652              *
                                   47653              *  On entry: R1 -> Start of matched text
                                   47654              *            R15 - MATWA
                                   47655              *
1ACT      (ACT2025) (12:40) (15MAR04) MATLINE Routine                                                                       Page  203
0Current Usings:  (CP,R11) (CV,R12)
0Loc    Object Code    Addr1 Addr2  Stmt Lv Lineno    Source Statement           (Hibal 5, Asmedit 3.3)  HLASM R4.0  2004/03/15 12.40
+___    ______ ____    _____ _____  ____ __ ______    ______ _________
0                                  47656              *********
 0088E6 50E0 D000/9008_      00000 47657              MATSETR  PROC  ,
 USING  *,R7
 008900 186F                       47696                       LR    R6,R15
 USING  MATWA,R6                   47697                       USING MATWA,R6
 008902 5B10 6008            00008 47706                       S     R1,MATPTR           Offset to matched string
 008906 41F0 1001            00001 47707                       LA    R15,@R1+1           Matching column number
 00890A D601 6004 6004_00004 00004 47708                       IF    ((MATCOL,Z),AND,(R15,GT,MATPCOL)),'STH R15,MATCOL'
 008920 D603 601C 601C_0001C 0001C 47746                       IF    (MATPBEG,Z),'INCR R1; ST R1,MATPBEG' Starting rend. off.
 008932 18D8/9808 D004_            47771                       PEND  ,
 DROP   *,R7
 DROP   MATWA,R6                   47791                       DROP  R6
                                   47798
 008940 0202020202020202           47799              MATHIGH  DC    (&LINESZ)X'02'      Highlight bit "or" buffer
                                   47800
                                   47801                       QLTORG
1ACT      (ACT2025) (12:40) (15MAR04) PRESS Routine                                                                         Page  204
0Current Usings:  (CP,R11) (CV,R12)
0Loc    Object Code    Addr1 Addr2  Stmt Lv Lineno    Source Statement           (Hibal 5, Asmedit 3.3)  HLASM R4.0  2004/03/15 12.40
+___    ______ ____    _____ _____  ____ __ ______    ______ _________
0000000                00000 00128 47821              PRSWA    RECORD BEGIN
                                   47829  1                      XSA   R2,R8
 000000 0000000000000000           47830  1 01-XSA   +           DC    (R8+2-(R2))A(0)
                                   47831  1
 000020                            47832  1           PRSTOTAL   DS    F                   CPU time work area
 000024                            47833  1           PRSPTR     DS    A                   Input line ptr
                                   47834  1           PRSLINE    DS    XL(&PRESSZ)         Room for a pressed line
 000028                                   1          +PRSLINE    DS    XL(256)             Room for a pressed line
 000128                00128 00128 47835                       END
-                                  47845              ¿þþþþþþþþþþþþþþþþþþþþþþþþþþþþþþþþþþþþþþþþþþþþþþþþþþþþþþþþþþþþþþþþþþþþþÜ
                                   47846              Ÿ                                                                     Ÿ
                                   47847              Ÿ  PRESS -- Routine to press a line into edit format.                 Ÿ
                                   47848              Ÿ                                                                     Ÿ
                                   47849              Ÿ    On entry:                                                        Ÿ
                                   47850              Ÿ      R1,R0 - text loc, len (area should be &PRESSZ long)            Ÿ
                                   47851              Ÿ      R15 - line-number                                              Ÿ
                                   47852              Ÿ                                                                     Ÿ
                                   47853              Ÿ    On exit:                                                         Ÿ
                                   47854              Ÿ      R1 - pressed line ptr (pressed text is returned in the         Ÿ
                                   47855              Ÿ           same place that R1 pointed to on entry)                   Ÿ
                                   47856              Ÿ      R0 - pressed line count (not including line-number)            Ÿ
                                   47857              Ÿ                                                                     Ÿ
                                                      ¾þþþþþþþþþþþþþþþþþþþþþþþþþþþþþþþþþþþþþþþþþþþþþþþþþþþþþþþþþþþþþþþþþþþþþ»
0008A72 50E0 D000/9008_      00000 47858              PRESS    XPROC PRSWA
 USING  *,R7
 USING  PRSWA-(4+36),R8
 008A8C 5010 804C            00024 47909                       ST    R1,PRSPTR           Save orig line ptr
 008A90 50F0 8050            00028 47910                       ST    R15,PRSLINE         Put line-no into pressed
 008A94 5900 72D4/47D0_      08D60 47911                       CEIL  R0,&LINESZ          Not too big
                                   47930
 008AA0 1B66                       47931                       CLEAR R6                  Start output count
 008AA2 41D0 8054            0002C 47935                       LA    R13,PRSLINE+4
 008AA6 1250                       47936                       LTR   R5,R0               Set and test input count
 008AA8 47D0 70AC            08B38 47937                       BNP   ALLBL               Blank line
 008AAC 4130 1000            00000 47938                       LA    R3,@R1              Set input pointer (zero 1st byte)
 008AB0 1B11                       47939                       CLEAR R1                  Make sure high order byte is zero
 008AB2 4100 000F            0000F 47943                       LA    R0,15               Set constant 15 into reg
 008AB6 4120 0001            00001 47944                       LA    R2,1                Set const 1 into reg (will remain)
 008ABA 0650                       47945                       DECR  R5                  Set to ex trt inst
                                   47947
 008ABC 4450 72D8/DD00_      08D64 47948              OVER     EX    R5,'TRT @R3(0),BLTRT'  Find a non-blank
 008AC0 4780 70AC            08B38 47964                       BZ    ALLBL               None
 008AC4 1B13                       47965                       SR    R1,R3               Length blank string to R1
 008AC6 1841                       47966                       LR    R4,R1               And to R4
 008AC8 1A31                       47967                       AR    R3,R1               Move pointer
 008ACA 1B51                       47968                       SR    R5,R1               Decrease counter
 008ACC 4450 72DE/DD00_      08D6A 47969                       EX    R5,'TRT @R3(0),NBTRT'  Find next blank
 008AD0 4770 704C            08AD8 47985                       BNZ   EVALA               None
 008AD4 4113 5001            00001 47986                       LA    R1,1(R3,R5)         Pretend its after interesting strng
 008AD8 1940                       47987              EVALA    CR    R4,R0               Blank string over 15?
 008ADA 4720 7082            08B0E 47988                       BH    EVALB               Yes
1ACT      (ACT2025) (12:40) (15MAR04) PRESS Routine                                                                         Page  205
0Current Usings:  (*,R7) (PRSWA-(4+36),R8) (CP,R11) (CV,R12)
0Loc    Object Code    Addr1 Addr2  Stmt Lv Lineno    Source Statement           (Hibal 5, Asmedit 3.3)  HLASM R4.0  2004/03/15 12.40
+___    ______ ____    _____ _____  ____ __ ______    ______ _________
0008ADE 8940 0004            00004 47989                       SLL   R4,4                Move blank str len to left half-byt
 008AE2 1B13                       47990                       SR    R1,R3               Length non-blank string to R1
 008AE4 4166 1001            00001 47991                       LA    R6,1(R6,R1)         Add non-bl ct & ct-byte to counter
 008AE8 1B51                       47992                       SR    R5,R1               Decrease counter
 008AEA 1910                       47993              EVALC    CR    R1,R0               Over 15 non-blanks?
 008AEC 4720 7090            08B1C 47994                       BH    EVALD               Yes
 008AF0 1641                       47995                       OR    R4,R1               Combine blank & non-blank counts
 008AF2 4240 D001            00001 47996                       STC   R4,@R13+1           Store count-byte
 008AF6 0610/4410 72E4_            47997                       DEX   R1,'MVC @R13+2(0),@R3'  move non-blanks
 008AFC 41DD 1002            00002 48016                       LA    R13,@R1+2(R13)      Move output pointer
 008B00 4133 1001            00001 48017                       LA    R3,1(R3,R1)         Reset pointer (in)
 008B04 1255                       48018                       LTR   R5,R5               Any more?
 008B06 4720 7030            08ABC 48019                       BP    OVER                Yes
 008B0A 47F0 70AC            08B38 48020                       B     ALLBL
                                   48021
 008B0E 92F0 D001      00001       48022              EVALB    MVI   @R13+1,X'F0'        Set a blank-only count byte
 008B12 1A62                       48023                       AR    R6,R2               Kick counter
 008B14 1AD2                       48024                       AR    R13,R2              Kick pointer
 008B16 1B40                       48025                       SR    R4,R0               Reduce blank count by 15
 008B18 47F0 704C            08AD8 48026                       B     EVALA               Another round
 008B1C 1640                       48027              EVALD    OR    R4,R0               Combine bl & non-bl counts
 008B1E 4240 D001            00001 48028                       STC   R4,@R13+1           Insert non-bl count byte
 008B22 1B10                       48029                       SR    R1,R0               Reduce remaining non-bl count by 15
 008B24 1B44                       48030                       SR    R4,R4               Zero remaining bl count
 008B26 D20E D002 3000 00002 00000 48031                       MVC   @R13+2(15),@R3      Move a non-blank string
 008B2C 1A30                       48032                       AR    R3,R0               Move pointer
 008B2E 1A62                       48033                       AR    R6,R2               Count control char
 008B30 41D0 D010            00010 48034                       LA    R13,@R13+16         Increase count by 16
 008B34 47F0 705E            08AEA 48035                       B     EVALC               More?
                                   48036
 008B38 4260 8054            0002C 48037              ALLBL    STC   R6,PRSLINE+4        Store total pressed count
 008B3C 5810 804C            00024 48038                       L     R1,PRSPTR           Return addr for pressed line
 008B40 4150 6004            00004 48039                       LA    R5,@R6+5-1          MVC count
 008B44 4450 72EA/D200_      08D76 48040                       EX    R5,'MVC @R1(0),PRSLINE'  move pressed (without line-no)
 008B48 1206                       48056                       LTR   R0,R6               Set pressed count return
 008B4A 9001 8004            00004 48057                       PRETURN (R0,R1)
 008B4E 18D8/9808 D004_            48059                       PEND  ,
 DROP   PRSWA-(4+36),R8
 DROP   *,R7
                                   48084
 008B5C 0101010101010101           48085              BLTRT    DC    256X'01'            Skip blank TRT table
 008C5C                08C5C 08B9C 48086                       ORG   BLTRT+C' '
 008B9C 00                         48087                       DC    X'00'
 008B9D                08B9D 08C5C 48088                       ORG
                                   48089
 008C5C 0000000000000000           48090              NBTRT    DC    256X'00'            Skip non-blank TRT table
 008D5C                08D5C 08C9C 48091                       ORG   NBTRT+C' '
 008C9C 01                         48092                       DC    X'01'
 008C9D                08C9D 08D5C 48093                       ORG
                                   48094
                                   48095                       QLTORG
                                   48108
                                   48109                       VLTORG
 008F58                08F58 08F58 48133                       END   .
1ACT      (ACT2025) (12:40) (15MAR04) PRESS Routine                                                                         Page  206
0Current Usings:  (CP,R11) (CV,R12)
0Loc    Object Code    Addr1 Addr2  Stmt Lv Lineno    Source Statement           (Hibal 5, Asmedit 3.3)  HLASM R4.0  2004/03/15 12.40
+___    ______ ____    _____ _____  ____ __ ______    ______ _________
0
1ACT      (ACT2025) (12:40) (15MAR04) Relocation Dictionary                                                                 Page  207
-   Pos.Id   Rel.Id   Flags    Address                                                       HLASM R4.0  2004/03/15 12.40
0  00000001 00000001    08    00000627
   00000001 00000001    08    00000657
   00000001 00000001    08    00000689
   00000001 00000001    08    000006B9
   00000001 00000001    08    000007C5
   00000001 00000001    08    00000905
   00000001 00000001    08    000009C7
   00000001 00000001    08    00000A85
   00000001 00000001    08    00000B53
   00000001 00000001    08    00000C33
   00000001 00000001    08    00000C61
   00000001 00000001    08    00000C91
   00000001 00000001    08    00000CBF
   00000001 00000001    08    00000DF5
   00000001 00000001    08    00000E25
   00000001 00000001    0C    00001124
   00000001 00000001    0C    00001130
   00000001 00000001    0C    00001134
   00000001 00000001    0C    00001138
   00000001 00000001    0C    00001140
   00000001 00000001    0C    00001144
   00000001 00000001    0C    00001174
   00000001 00000001    0C    0000117C
   00000001 00000001    0C    00001180
   00000001 00000001    08    000018C9
   00000001 00000001    0C    00001C94
   00000001 00000001    0C    00001CBC
   00000001 00000001    0C    00001CE4
   00000001 00000001    0C    00001D0C
   00000001 00000001    0C    00001D34
   00000001 00000001    0C    00001D5C
   00000001 00000001    0C    00001D84
   00000001 00000001    0C    00001DAC
   00000001 00000001    0C    00001DD4
   00000001 00000001    0C    00001DFC
   00000001 00000001    0C    00001E24
   00000001 00000001    0C    00001FAC
   00000001 00000001    0C    00001FB0
   00000001 00000001    0C    00001FB4
   00000001 00000001    0C    00001FB8
   00000001 00000001    0C    00001FC4
   00000001 00000001    0C    00001FC8
   00000001 00000001    0C    00001FD0
   00000001 00000001    0C    00001FDC
   00000001 00000001    0C    00001FF0
   00000001 00000001    0C    00002A8C
   00000001 00000001    0C    00002A9C
   00000001 00000001    0C    00002ACC
   00000001 00000001    0C    00002AD4
   00000001 00000001    0C    00002B04
   00000001 00000001    0C    00002B10
   00000001 00000001    08    00002C5F
   00000001 00000001    08    00002C93
   00000001 00000001    08    00002CD7
   00000001 00000001    08    00002D11
1ACT      (ACT2025) (12:40) (15MAR04) Relocation Dictionary                                                                 Page  208
   00000001 00000001    0C    0000318C
   00000001 00000001    0C    000031AC
   00000001 00000001    0C    000031B0
   00000001 00000001    0C    000031B4
   00000001 00000001    0C    000031B8
   00000001 00000001    08    00003229
   00000001 00000001    08    000033B7
   00000001 00000001    08    000033D7
   00000001 00000001    08    000034A7
   00000001 00000001    08    00003559
   00000001 00000001    08    00003579
   00000001 00000001    08    00003599
   00000001 00000001    08    000035DB
   00000001 00000001    08    000035FB
   00000001 00000001    08    00003647
   00000001 00000001    08    00003667
   00000001 00000001    08    000036A3
   00000001 00000001    08    000036C3
   00000001 00000001    08    000036E3
   00000001 00000001    08    00003721
   00000001 00000001    08    00003795
   00000001 00000001    08    00003817
   00000001 00000001    08    0000385B
   00000001 00000001    08    0000388B
   00000001 00000001    08    00003901
   00000001 00000001    08    00003931
   00000001 00000001    0C    00003948
   00000001 00000001    0C    0000395C
   00000001 00000001    0C    00003960
   00000001 00000001    0C    00003974
   00000001 00000001    0C    00003B98
   00000001 00000001    0C    00003BA0
   00000001 00000001    0C    00003BA4
   00000001 00000001    0C    00003BA8
   00000001 00000001    0C    00003BB0
   00000001 00000001    0C    00003BB4
   00000001 00000001    0C    00004098
   00000001 00000001    0C    0000409C
   00000001 00000001    0C    000040A0
   00000001 00000001    0C    000040A4
   00000001 00000001    0C    000040A8
   00000001 00000001    0C    000040AC
   00000001 00000001    0C    000040B8
   00000001 00000001    0C    000040BC
   00000001 00000001    0C    00004734
   00000001 00000001    0C    0000475C
   00000001 00000001    0C    00004784
   00000001 00000001    0C    000047AC
   00000001 00000001    0C    000047D4
   00000001 00000001    0C    000047FC
   00000001 00000001    0C    00004824
   00000001 00000001    0C    0000484C
   00000001 00000001    0C    00004874
   00000001 00000001    0C    0000489C
   00000001 00000001    0C    000048C4
   00000001 00000001    0C    000048EC
   00000001 00000001    0C    00004914
   00000001 00000001    0C    00004A60
   00000001 00000001    0C    00004A78
1ACT      (ACT2025) (12:40) (15MAR04) Relocation Dictionary                                                                 Page  209
   00000001 00000001    0C    00004A7C
   00000001 00000001    0C    00004ADC
   00000001 00000001    0C    00004BB8
   00000001 00000001    0C    00004BE0
   00000001 00000001    0C    00004C08
   00000001 00000001    0C    00004C30
   00000001 00000001    0C    00004C58
   00000001 00000001    0C    00004C80
   00000001 00000001    0C    00004CA8
   00000001 00000001    0C    00005188
   00000001 00000001    0C    000051B0
   00000001 00000001    0C    000051D8
   00000001 00000001    0C    00005200
   00000001 00000001    0C    00005228
   00000001 00000001    0C    00005250
   00000001 00000001    0C    000053FC
   00000001 00000001    0C    00005424
   00000001 00000001    0C    0000544C
   00000001 00000001    0C    00005474
   00000001 00000001    0C    0000549C
   00000001 00000001    0C    000054C4
   00000001 00000001    0C    000054EC
   00000001 00000001    0C    00005514
   00000001 00000001    0C    0000553C
   00000001 00000001    0C    00005564
   00000001 00000001    0C    0000558C
   00000001 00000001    0C    000055B4
   00000001 00000001    0C    000055DC
   00000001 00000001    0C    00005604
   00000001 00000001    0C    0000562C
   00000001 00000001    0C    00005654
   00000001 00000001    0C    0000567C
   00000001 00000001    0C    000056A4
   00000001 00000001    0C    000056CC
   00000001 00000001    0C    000056F4
   00000001 00000001    0C    0000571C
   00000001 00000001    0C    00005744
   00000001 00000001    0C    0000576C
   00000001 00000001    0C    00005794
   00000001 00000001    0C    000057BC
   00000001 00000001    0C    000057E4
   00000001 00000001    0C    0000580C
   00000001 00000001    0C    00005834
   00000001 00000001    0C    0000585C
   00000001 00000001    0C    00005884
   00000001 00000001    0C    000058AC
   00000001 00000001    0C    000058D4
   00000001 00000001    0C    000058FC
   00000001 00000001    0C    00005924
   00000001 00000001    0C    0000594C
   00000001 00000001    0C    00005974
   00000001 00000001    0C    0000599C
   00000001 00000001    0C    000059EC
   00000001 00000001    0C    00005A14
   00000001 00000001    0C    00005A64
   00000001 00000001    0C    00005A8C
   00000001 00000001    0C    00005A9C
   00000001 00000001    0C    00005AA0
   00000001 00000001    0C    00005ABC
1ACT      (ACT2025) (12:40) (15MAR04) Relocation Dictionary                                                                 Page  210
   00000001 00000001    0C    00005AF4
   00000001 00000001    0C    00006450
   00000001 00000001    0C    00006454
   00000001 00000001    0C    00006458
   00000001 00000001    0C    0000645C
   00000001 00000001    0C    00006468
   00000001 00000001    0C    00006474
   00000001 00000001    0C    00006480
   00000001 00000001    0C    00006484
   00000001 00000001    0C    00006488
   00000001 00000001    0C    00006494
   00000001 00000001    0C    000064A0
   00000001 00000001    08    00006B9D
   00000001 00000001    08    00006BA6
   00000001 00000001    08    00006BAA
   00000001 00000001    08    00006BB3
   00000001 00000001    08    00006BB9
   00000001 00000001    08    00006BC0
   00000001 00000001    08    00006BC6
   00000001 00000001    08    00006BCA
   00000001 00000001    08    00006BD0
   00000001 00000001    08    00006BD4
   00000001 00000001    08    00006BD9
   00000001 00000001    08    00006BE2
   00000001 00000001    08    00006BE7
   00000001 00000001    08    00006BEC
   00000001 00000001    08    00006BF2
   00000001 00000001    08    00006BF7
   00000001 00000001    08    00006BFD
   00000001 00000001    08    00006C02
   00000001 00000001    08    00006C08
   00000001 00000001    08    00006C0C
   00000001 00000001    08    00006C11
   00000001 00000001    08    00006C17
   00000001 00000001    08    00006C1D
   00000001 00000001    08    00006C23
   00000001 00000001    08    00006C2A
   00000001 00000001    08    00006C37
   00000001 00000001    08    00006C3C
   00000001 00000001    08    00006C41
   00000001 00000001    08    00006C46
   00000001 00000001    08    00006C52
   00000001 00000001    08    00006C5B
   00000001 00000001    08    00006C63
   00000001 00000001    08    00006C67
   00000001 00000001    0C    00006DF4
   00000001 00000001    0C    00006E18
   00000001 00000001    0C    0000745C
   00000001 00000001    0C    00007464
   00000001 00000001    0C    00007468
   00000001 00000001    0C    0000746C
   00000001 00000001    0C    00007474
   00000001 00000001    0C    00008180
   00000001 00000001    0C    00008190
   00000001 00000001    0C    00008194
   00000001 00000001    0C    00008198
   00000001 00000001    0C    000081BC
   00000001 00000001    0C    000081C8
   00000001 00000001    0C    0000839C
1ACT      (ACT2025) (12:40) (15MAR04) Relocation Dictionary                                                                 Page  211
   00000001 00000001    0C    00008A30
   00000001 00000001    0C    00008A34
   00000001 00000001    0C    00008A3C
   00000001 00000002    1C    000002F8
   00000001 00000003    1C    000002FC
   00000001 00000004    1C    00000300
   00000001 00000004    1C    00001F7C
   00000001 00000004    1C    00004A6C
   00000001 00000004    1C    00006448
   00000001 00000004    1C    00006E20
   00000001 00000004    1C    000081C4
   00000001 00000005    1C    00000304
   00000001 00000005    1C    00001F4C
   00000001 00000005    1C    00002AA8
   00000001 00000005    1C    000040B0
   00000001 00000005    1C    00004A64
   00000001 00000005    1C    00005A98
   00000001 00000005    1C    00006470
   00000001 00000005    1C    00006DC8
   00000001 00000005    1C    000081C0
   00000001 00000006    1C    00000308
   00000001 00000006    1C    00001108
   00000001 00000007    1C    0000030C
   00000001 00000007    1C    00001F50
   00000001 00000007    1C    00004AA8
   00000001 00000007    1C    000081D8
   00000001 00000008    1C    00000314
   00000001 00000009    1C    00000318
   00000001 00000009    1C    00001FBC
   00000001 0000000A    1C    00000328
   00000001 0000000B    1C    0000032C
   00000001 0000000C    1C    00000338
   00000001 0000000D    1C    000010F8
   00000001 0000000E    1C    00001104
   00000001 0000000F    1C    00001110
   00000001 0000000F    1C    00001F84
   00000001 0000000F    1C    00002A90
   00000001 00000010    1C    00001118
   00000001 00000010    1C    00001FC0
   00000001 00000011    1C    0000111C
   00000001 00000012    1C    00001128
   00000001 00000013    1C    00001148
   00000001 00000013    1C    000083A0
   00000001 00000014    1C    0000114C
   00000001 00000014    1C    00001F8C
   00000001 00000015    1C    00001150
   00000001 00000016    1C    00001154
   00000001 00000016    1C    00001F80
   00000001 00000017    1C    00001158
   00000001 00000018    1C    0000115C
   00000001 00000018    1C    00003194
   00000001 00000019    1C    00001178
   00000001 0000001A    1C    00001184
   00000001 0000001B    1C    0000118C
   00000001 0000001B    1C    00002AE0
   00000001 0000001C    1C    00001194
   00000001 0000001C    1C    00002ADC
   00000001 0000001D    1C    00001C90
   00000001 0000001D    1C    00004730
1ACT      (ACT2025) (12:40) (15MAR04) Relocation Dictionary                                                                 Page  212
   00000001 0000001D    1C    00004BB4
   00000001 0000001D    1C    00005184
   00000001 0000001D    1C    000051FC
   00000001 0000001D    1C    000053F8
   00000001 0000001D    1C    00005588
   00000001 0000001D    1C    00005678
   00000001 0000001E    1C    00001CB8
   00000001 0000001E    1C    00001CE0
   00000001 0000001E    1C    00001D08
   00000001 0000001E    1C    00001D30
   00000001 0000001E    1C    00001D58
   00000001 0000001E    1C    00001D80
   00000001 0000001E    1C    00001DA8
   00000001 0000001E    1C    00001DD0
   00000001 0000001E    1C    00001DF8
   00000001 0000001E    1C    00004758
   00000001 0000001E    1C    000047A8
   00000001 0000001E    1C    000047F8
   00000001 0000001E    1C    00004820
   00000001 0000001E    1C    00004848
   00000001 0000001E    1C    00004870
   00000001 0000001E    1C    00004898
   00000001 0000001E    1C    000048C0
   00000001 0000001E    1C    000048E8
   00000001 0000001E    1C    00004BDC
   00000001 0000001E    1C    00004C04
   00000001 0000001E    1C    00005448
   00000001 0000001E    1C    00005470
   00000001 0000001E    1C    00005498
   00000001 0000001E    1C    000054C0
   00000001 0000001E    1C    000054E8
   00000001 0000001E    1C    00005510
   00000001 0000001E    1C    00005538
   00000001 0000001E    1C    000055D8
   00000001 0000001E    1C    00005600
   00000001 0000001E    1C    00005628
   00000001 0000001E    1C    00005718
   00000001 0000001E    1C    00005740
   00000001 0000001E    1C    00005768
   00000001 0000001E    1C    00005808
   00000001 0000001E    1C    00005830
   00000001 0000001E    1C    00005858
   00000001 0000001E    1C    000058D0
   00000001 0000001E    1C    000058F8
   00000001 0000001E    1C    00005920
   00000001 0000001E    1C    00005A60
   00000001 0000001F    1C    00001E20
   00000001 0000001F    1C    00004910
   00000001 0000001F    1C    00004C54
   00000001 0000001F    1C    00004CA4
   00000001 0000001F    1C    000051D4
   00000001 0000001F    1C    0000524C
   00000001 0000001F    1C    00005560
   00000001 0000001F    1C    00005650
   00000001 0000001F    1C    000056C8
   00000001 0000001F    1C    000057B8
   00000001 0000001F    1C    000058A8
   00000001 0000001F    1C    00005970
   00000001 0000001F    1C    000059C0
1ACT      (ACT2025) (12:40) (15MAR04) Relocation Dictionary                                                                 Page  213
   00000001 0000001F    1C    00005A38
   00000001 0000001F    1C    00005A88
   00000001 00000020    1C    00001F38
   00000001 00000021    1C    00001F40
   00000001 00000022    1C    00001F54
   00000001 00000022    1C    00006E08
   00000001 00000022    1C    000081B8
   00000001 00000023    1C    00001F58
   00000001 00000024    1C    00001F5C
   00000001 00000025    1C    00001F6C
   00000001 00000026    1C    00001F90
   00000001 00000026    1C    00002A88
   00000001 00000026    1C    00003188
   00000001 00000026    1C    00003984
   00000001 00000027    1C    00001F94
   00000001 00000027    1C    00003198
   00000001 00000027    1C    00003988
   00000001 00000028    1C    00001F98
   00000001 00000028    1C    000031BC
   00000001 00000029    1C    00001FA4
   00000001 00000029    1C    00003190
   00000001 0000002A    1C    00001FA8
   00000001 0000002B    1C    00001FCC
   00000001 0000002B    1C    00003BAC
   00000001 0000002C    1C    00001FD8
   00000001 0000002D    1C    00001FE0
   00000001 0000002D    1C    00004AE0
   00000001 0000002D    1C    00005AB4
   00000001 0000002D    1C    0000648C
   00000001 0000002E    1C    00001FE4
   00000001 0000002E    1C    00004AE4
   00000001 0000002E    1C    00005AB8
   00000001 0000002E    1C    00006490
   00000001 0000002F    1C    00002AA4
   00000001 0000002F    1C    00004A68
   00000001 0000002F    1C    000081D4
   00000001 00000030    1C    00002AEC
   00000001 00000031    1C    00002AF0
   00000001 00000032    1C    00002AF4
   00000001 00000033    1C    00002B0C
   00000001 00000034    1C    00002B14
   00000001 00000035    1C    000031A0
   00000001 00000036    1C    00003978
   00000001 00000037    1C    0000397C
   00000001 00000038    1C    0000398C
   00000001 00000039    1C    00004780
   00000001 00000039    1C    00004C2C
   00000001 00000039    1C    00004C7C
   00000001 00000039    1C    000051AC
   00000001 0000003A    1C    000047D0
   00000001 0000003A    1C    00005420
   00000001 0000003A    1C    000055B0
   00000001 0000003A    1C    000056A0
   00000001 0000003B    1C    00004A50
   00000001 0000003C    1C    00004ACC
   00000001 0000003C    1C    00006DB8
   00000001 0000003D    1C    00004AD0
   00000001 0000003D    1C    00006DBC
   00000001 0000003E    1C    00004AD4
1ACT      (ACT2025) (12:40) (15MAR04) Relocation Dictionary                                                                 Page  214
   00000001 0000003E    1C    00006DC0
   00000001 0000003F    1C    00004AD8
   00000001 00000040    1C    00005224
   00000001 00000040    1C    000056F0
   00000001 00000040    1C    00005998
   00000001 00000040    1C    00005A10
   00000001 00000041    1C    00005790
   00000001 00000041    1C    00005880
   00000001 00000041    1C    00005948
   00000001 00000042    1C    000057E0
   00000001 00000042    1C    000059E8
   00000001 00000043    1C    000059C4
   00000001 00000043    1C    00005A3C
   00000001 00000044    1C    00005AA8
   00000001 00000044    1C    0000644C
   00000001 00000045    1C    00006460
   00000001 00000045    1C    00006DE8
   00000001 00000045    1C    00008398
   00000001 00000046    1C    00006464
   00000001 00000046    1C    00006DEC
   00000001 00000046    1C    00007428
   00000001 00000047    1C    0000646C
   00000001 00000047    1C    00006DF8
   00000001 00000048    18    00006BDE
   00000001 00000048    18    00006C4E
   00000001 00000048    18    00006C70
   00000001 00000049    18    00006C33
   00000001 00000049    18    00006C4A
   00000001 00000049    18    00006C57
   00000001 00000049    18    00006C5F
   00000001 0000004A    1C    00006DC4
   00000001 0000004B    1C    00006DFC
   00000001 0000004C    1C    00006E00
   00000001 0000004D    1C    00006E04
   00000001 0000004E    1C    00006E0C
   00000001 0000004F    1C    00006E10
   00000001 0000004F    1C    000081B4
   00000001 00000050    1C    00006E1C
   00000001 00000051    1C    00007478
   00000001 00000052    1C    00008178
   00000001 00000053    1C    00008184
   00000001 00000053    1C    000083A8
   00000001 00000054    1C    00008188
   00000001 00000055    1C    0000818C
   00000001 00000056    1C    000083A4

1ACT      (ACT2025) (12:40) (15MAR04) Ordinary Symbol and Literal Cross Reference                                           Page  215
-Symbol   Length   Value     Id    R Type   Defn References                                  HLASM R4.0  2004/03/15 12.40
0$$$@R0        1 00000000 FFFFFFFE     J     705  1042
 $$$@R10       1 00000000 FFFFFFF4     J     835  1106
 $$$@R11       1 00000000 FFFFFFF3     J     848  1119
 $$$@R12       1 00000000 FFFFFFF2     J     861  1132
 $$$@R13       1 00000000 FFFFFFF1     J     874  1145
 $$$@R14       1 00000000 FFFFFFF0     J     887  1158
 $$$@R7        1 00000000 FFFFFFF7     J     796  1055
 $$$@R8        1 00000000 FFFFFFF6     J     809  1068   1080
 $$$@R9        1 00000000 FFFFFFF5     J     822  1093
 $$$C1WYLACT
               1 0000045E 00000001     J    7884  7886   8121   8583   8964   9311   9640   9968  10296  10646  11264
                                                 11941  12101  12278
 $$$C10WYLACT
               1 00004B94 00000001     J   31219 31221
 $$$C11WYLACT
               1 00005BAD 00000001     J   33940 33942  35520
 $$$C12WYLACT
               1 000065A0 00000001     J   36743 36745  37592
 $$$C13WYLACT
               1 00006FCA 00000001     J   38922 38924  38953  39763
 $$$C14WYLACT
               1 00007578 00000001     J   40658 40660  40827  41574  42708  42797  42861  42892  42984  43080  43269
                                                 43574  43936  44077
 $$$C15WYLACT
               1 0000827E 00000001     J   44930 44932  44952  45207
 $$$C16WYLACT
               1 000083AC 00000001     J   45428 45430  45494  46160  46178  46254  46509  46824  47193  47433  47574
 $$$C17WYLACT
               1 00008A72 00000001     J   47815 47817  47842  47962  47983  48014  48054
 $$$C18WYLACT
               1 00008D7C 00000001     J   48103 48105
 $$$C19WYLACT
               1 00008F58 00000001     J   48136 48138
 $$$C2WYLACT
               1 000011E4 00000001     J   12673 12675  12833  12931  13072  14266  14952  15871
 $$$C3WYLACT
               1 000020D8 00000001     J   17238 17240  17261
 $$$C4WYLACT
               1 0000211C 00000001     J   17397 17399  17420  17641  18143  19046  19094  19340  19362  19536  19900
                                                 20275  20521  20584  20707
 $$$C5WYLACT
               1 00002B9E 00000001     J   21057 21059  21081  21678  21883  22328  22695  22823  23246
 $$$C6WYLACT
               1 000031D2 00000001     J   23375 23377  23403  24201  25025
 $$$C7WYLACT
               1 000039BD 00000001     J   25662 25664
 $$$C8WYLACT
               1 00003BBA 00000001     J   26449 26451  26487
 $$$C9WYLACT
               1 00004160 00000001     J   28447 28449  28471  29239  30089  30196
 $$$D11WYLACT
               1 00006599 00000001     J   33941 35509
 $$$D12WYLACT
               1 00006FC3 00000001     J   36744 37581
 $$$D13WYLACT
1ACT      (ACT2025) (12:40) (15MAR04) Ordinary Symbol and Literal Cross Reference                                           Page  216
               1 00007572 00000001     J   38923 39752
 $$$D14WYLACT
               1 0000824E 00000001     J   40659 41563  42786  42850  42881  43069  43258  43563  44066
 $$$D16WYLACT
               1 00008A48 00000001     J   45429 46149  46167  46243  46498  46813  47182  47563
 $$$D17WYLACT
               1 00008D64 00000001     J   47816 47951  47972  48003  48043
 $$$D2WYLACT
               1 000020C6 00000001     J   12674 12822  12920  13061
 $$$D4WYLACT
               1 00002B73 00000001     J   17398 19329  19351  19525  20264  20510  20573  20696
 $$$D5WYLACT
               1 000031C0 00000001     J   21058 21872  22684  22812
 $$$D9WYLACT
               1 00004B8E 00000001     J   28448 29228
 $$$RACLRWA
               1 00000000 FFFFFFD8     J   14938 14951  14951
 $$$RACLSWA
               1 00000000 FFFFFFE4     J    8569  8582   8582
 $$$RADELWA
               1 00000000 FFFFFFDE     J   10632 10645  10645
 $$$RADUPWA
               1 00000000 FFFFFFDA     J   12264 12277  12277
 $$$RAFRSTWA
               1 00000000 FFFFFFE0     J    9952  9967   9967
 $$$RAINFO
               1 00000000 FFFFFFE7     J    6677  6793   6793
 $$$RALASTWA
               1 00000000 FFFFFFDF     J   10280 10295  10295
 $$$RANEXTWA
               1 00000000 FFFFFFE1     J    9624  9639   9639
 $$$RANWA      1 00000000 FFFFFFCA     J   24179 24200  24200
 $$$RAOPENWA
               1 00000000 FFFFFFE5     J    8107  8120   8120
 $$$RAPICKWA
               1 00000000 FFFFFFE3     J    8950  8963   8963
 $$$RAPREVWA
               1 00000000 FFFFFFE2     J    9295  9310   9310
 $$$RAPURGEWA
               1 00000000 FFFFFFDD     J   11247 11263  11263
 $$$RARCVYWA
               1 00000000 FFFFFFD9     J   14252 14265  14265
 $$$RASRWA
               1 00000000 FFFFFFC6     J   30046 30088  30088
 $$$RAVRESTWA
               1 00000000 FFFFFFDB     J   12087 12100  12100
 $$$RAVSAVEWA
               1 00000000 FFFFFFDC     J   11927 11940  11940
 $$$RCHKWA
               1 00000000 FFFFFFCB     J   23383 23402  23402
 $$$RCHOPWA
               1 00000000 FFFFFFCE     J   21645 21677  21677
 $$$RCNTWA
               1 00000000 FFFFFFCC     J   23231 23245  23245
 $$$RCP        1 00000000 FFFFFFEC     J    2481  4741   6215   6215
 $$$RCTXTWA
               1 00000000 FFFFFFD7     J   15754 15870  15870
 $$$RCV        1 00000000 FFFFFFEE     J    1206  2391   2391
 $$$RDEV       1 00000000 FFFFFFEB     J    4695  4740   4740
1ACT      (ACT2025) (12:40) (15MAR04) Ordinary Symbol and Literal Cross Reference                                           Page  217
 $$$RDISKWA
               1 00000000 FFFFFFE8     J    6613  6664   6664
 $$$RDRNGWA
               1 00000000 FFFFFFCF     J   21065 21080  21080
 $$$RDRWA      1 00000000 FFFFFFC5     J   30126 30195  30195
 $$$RGLINEWA
               1 00000000 FFFFFFD4     J   17625 17640  17640
 $$$RGLINFOWA
               1 00000000 FFFFFFD6     J   17246 17260  17260
 $$$RGLNOWA
               1 00000000 FFFFFFD5     J   17405 17419  17419
 $$$RGTLNWA
               1 00000000 FFFFFFC8     J   26472 26486  26486
 $$$RJCB       1 00000000 FFFFFFE9     J    6333  6607   6607
 $$$RJOINWA
               1 00000000 FFFFFFCD     J   22270 22327  22327
 $$$RLEXWA
               1 00000000 FFFFFFBE     J   45191 45206  45206
 $$$RLNINFO
               1 00000000 FFFFFFE6     J    6827  6844   6844
 $$$RLOCWA
               1 00000000 FFFFFFBF     J   44938 44951  44951
 $$$RMATWA
               1 00000000 FFFFFFBD     J   45436 45493  45493
 $$$RMSWA      1 00000000 FFFFFFBC     J   47418 47432  47432
 $$$RNSCNCB
               1 00000000 FFFFFFED     J    2402  2475   2475
 $$$RNUMRWA
               1 00000000 FFFFFFC9     J   24998 25024  25024
 $$$RPCWA      1 00000000 FFFFFFC4     J   38938 38952  38952
 $$$RPLINEWA
               1 00000000 FFFFFFD3     J   18123 18142  18142
 $$$RPLINWA
               1 00000000 FFFFFFD0     J   19870 19899  19899
 $$$RPMWA      1 00000000 FFFFFFC1     J   42954 42983  42983
 $$$RPRSWA
               1 00000000 FFFFFFBB     J   47823 47841  47841
 $$$RPSWA      1 00000000 FFFFFFC0     J   43921 43935  43935
 $$$RPUTBWA
               1 00000000 FFFFFFD1     J   19075 19093  19093
 $$$RPUTCB
               1 00000000 FFFFFFD2     J   18971 19045  19045
 $$$RRRWA      1 00000000 FFFFFFC3     J   40786 40826  40826
 $$$RSTOWWA
               1 00000000 FFFFFFC7     J   28455 28470  28470
 $$$RSTRMWA
               1 00000000 FFFFFFC2     J   42694 42707  42707
 $$$RTTYPE
               1 00000000 FFFFFFEA     J    6226  6327   6327
 $$$SEGCB0
               4 00000050 FFFFFFEC     F    2512  2598   2598
 $$$V01       35 00008D7C 00000001     C   48115  8374   8419   8481   8526  11497  11555
 $$$V010      26 00008E9D 00000001     C   48124 23549
 $$$V011      21 00008EB7 00000001     C   48125 24014
 $$$V012      25 00008ECC 00000001     C   48126 24046  24338  24570  24684  24793  24875
 $$$V013      37 00008EE5 00000001     C   48127 24541  24655  24764  24846
 $$$V014      25 00008F0A 00000001     C   48128 24599  24904
 $$$V015      28 00008F23 00000001     C   48129 24955
 $$$V016      21 00008F3F 00000001     C   48130 25152  25294  25362  25393  25567  25598
1ACT      (ACT2025) (12:40) (15MAR04) Ordinary Symbol and Literal Cross Reference                                           Page  218
 $$$V02       20 00008D9F 00000001     C   48116  9037
 $$$V03       37 00008DB3 00000001     C   48117  9510
 $$$V04       37 00008DD8 00000001     C   48118  9838
 $$$V05       37 00008DFD 00000001     C   48119 10164
 $$$V06       37 00008E22 00000001     C   48120 10515
 $$$V07       32 00008E47 00000001     C   48121 10890  10933  10994  11037
 $$$V08       33 00008E67 00000001     C   48122 15239
 $$$V09       21 00008E88 00000001     C   48123 21325  21377  21454  21507
 $$$Z2         4 00001EFC 00000001     F   17158 12774  13415  13672
 $$$Z6         4 00003944 00000001     F   25640 24513  24627  24736  24818
 $$$100F       2 000009CA 00000001     H    9842  9827B
 $$$1000B      4 00006802 00000001     I   37505 37524
 $$$1000F      2 00006814 00000001     H   37520 37505B 37523
 $$$1001B      4 0000681C 00000001     I   37541 37600
 $$$1001E      2 00006818 00000001     H   37531 37525
 $$$1001F      2 00006842 00000001     H   37597 37527B 37541B 37568B 37599
 $$$1005       6 00006FC4 00000001     I   37587 37579X
 $$$1006       6 00006FC4 00000001     I   37586 37587  37587
 $$$1007E      2 00006846 00000001     H   37607 37601
 $$$1007F      2 00006858 00000001     H   37625 37603B
 $$$1009E      2 0000685C 00000001     H   37640 37634
 $$$1009F      2 00006886 00000001     H   37698 37636B
 $$$1010F      2 00006886 00000001     H   37694 37653B
 $$$1011B      4 00006888 00000001     I   37706 37725
 $$$1011F      2 00006890 00000001     H   37722 37706B 37724
 $$$1013E      2 00006894 00000001     H   37732 37726
 $$$1013F      2 0000689A 00000001     H   37741 37728B
 $$$1014B      4 000068D6 00000001     I   37772 37785
 $$$1014F      2 000068E2 00000001     H   37782 37772B 37784
 $$$1016E      2 000068E6 00000001     H   37792 37786
 $$$1016F      2 000068F2 00000001     H   37800 37788B
 $$$1017F      2 00006A4A 00000001     H   38058 38046B
 $$$1017T      2 00006A44 00000001     H   38049 38034B
 $$$1019F      2 00006A70 00000001     H   38103 38088B
 $$$1019T      2 00006A64 00000001     H   38091 38077B
 $$$102F       2 000009EA 00000001     H    9908  9888B
 $$$1026B      1 00006C8E 00000001     X   38469 38479U
 $$$1027F      2 00006CAC 00000001     H   38515 38505B
 $$$1028F      2 00006CBA 00000001     H   38541 38531B
 $$$1029       1 00000050 00000001 A   U   38566 38563  38565
 $$$1031B      1 00006CE2 00000001     X   38601 38611U
 $$$1032F      2 00006CF2 00000001     H   38642 38630B
 $$$1033       1 00000050 00000001 A   U   38667 38664  38666
 $$$1035B      1 00006D1A 00000001     X   38699 38709U
 $$$1036F      2 00006D26 00000001     H   38745 38733B
 $$$1037F      2 00006D6C 00000001     H   38823 38779B
 $$$1038       1 00000050 00000001 A   U   38849 38846  38848
 $$$104        1 00000200 00000001 A   U    9946  9943   9945
 $$$1040B      1 00006FE4 00000001     X   38981 38991U
 $$$1041F      2 00007004 00000001     H   39038 39023B
 $$$1043F      2 00007216 00000001     H   39898 39074B
 $$$1043S      2 00007012 00000001     H   39068 39897B
 $$$1045F      2 000070DE 00000001     H   39393 39107B 39121B
 $$$1045T      2 00007032 00000001     H   39124 39094B
 $$$1048F      2 00007048 00000001     H   39155 39142B
 $$$1049F      2 000070D6 00000001     H   39386 39167B
 $$$1049S      2 00007048 00000001     H   39161 39385B
 $$$105F       2 00000AB2 00000001     H   10265 10120B
 $$$1051B      4 0000705A 00000001     I   39198 39333
1ACT      (ACT2025) (12:40) (15MAR04) Ordinary Symbol and Literal Cross Reference                                           Page  219
 $$$1051F      2 000070AE 00000001     H   39330 39198B 39332
 $$$1051T      2 0000705E 00000001     H   39201 39187B
 $$$1053B      4 00007076 00000001     I   39245 39291
 $$$1053F      2 0000709C 00000001     H   39286 39231B 39245B 39288
 $$$1054B      4 0000706E 00000001     I   39231 39289
 $$$1054T      2 00007072 00000001     H   39236 39220B
 $$$1056F      2 00007094 00000001     H   39280 39267B
 $$$1057E      2 000070A0 00000001     H   39298 39290  39292
 $$$1057F      2 000070AE 00000001     H   39326 39294B
 $$$1059E      2 000070B2 00000001     H   39340 39334
 $$$1059F      2 000070D2 00000001     H   39381 39336B
 $$$106B       1 00000A18 00000001     X   10009 10016U
 $$$1060F      2 000070CC 00000001     H   39372 39359B
 $$$1061F      2 00007212 00000001     H   39893 39407B 39418B
 $$$1063F      2 000070FE 00000001     H   39450 39437B
 $$$1064F      2 0000710C 00000001     H   39475 39462B
 $$$1065F      2 00007120 00000001     H   39501 39488B
 $$$1066F      2 000071E6 00000001     H   39808 39521B 39532B
 $$$1066S      2 00007122 00000001     H   39511 39807B
 $$$1069F      2 0000713E 00000001     H   39561 39548B
 $$$107F       2 00000A30 00000001     H   10061 10051B
 $$$1070B      4 00007158 00000001     I   39606 39715
 $$$1070F      2 000071A8 00000001     H   39712 39606B 39714
 $$$1070T      2 0000715C 00000001     H   39609 39582B 39595B
 $$$1073F      2 0000716E 00000001     H   39632 39620B
 $$$1074B      4 00007176 00000001     I   39646 39661
 $$$1074F      2 0000717E 00000001     H   39658 39646B 39660
 $$$1075E      2 00007182 00000001     H   39668 39662
 $$$1075F      2 00007184 00000001     H   39675 39664B
 $$$1076F      2 000071A6 00000001     H   39704 39691B
 $$$1077E      2 000071AC 00000001     H   39722 39716
 $$$1077F      2 000071DC 00000001     H   39798 39718B
 $$$1078F      2 000071CC 00000001     H   39769 39739B
 $$$1079       6 00007572 00000001     I   39758 39750X
 $$$108F       2 00000AB0 00000001     H   10248 10196B 10231B
 $$$108S       2 00000A44 00000001     H   10094 10247B
 $$$1080       6 00007572 00000001     I   39757 39758  39758
 $$$1081F      2 000071DC 00000001     H   39794 39781B
 $$$1082F      2 000071F4 00000001     H   39829 39818B
 $$$1083B      4 000071FE 00000001     I   39854 39872
 $$$1083F      2 00007208 00000001     H   39867 39841B 39854B 39869
 $$$1084B      4 000071F6 00000001     I   39841 39870
 $$$1085E      2 0000720C 00000001     H   39879 39871  39873
 $$$1085F      2 00007212 00000001     H   39889 39875B
 $$$1086       1 00000140 00000001 A   U   39941 39938  39940
 $$$1088B      1 00007258 00000001     X   39974 39984U
 $$$1089B      4 0000725C 00000001     I   40004 40044
 $$$1089F      2 00007276 00000001     H   40041 40004B 40043
 $$$109F       2 00000A5A 00000001     H   10124 10108B
 $$$1090F      2 00007272 00000001     H   40036 40023B
 $$$1091E      2 0000727A 00000001     H   40051 40045
 $$$1091F      2 000072B4 00000001     H   40155 40047B
 $$$1092F      2 0000728A 00000001     H   40076 40066B
 $$$1093F      2 00007298 00000001     H   40102 40089B
 $$$1094F      2 000072A8 00000001     H   40128 40115B
 $$$1095F      2 000072B4 00000001     H   40151 40138B
 $$$110F       2 00000A88 00000001     H   10168 10153B
 $$$1102       1 00000050 00000001 A   U   40312 40309  40311
 $$$1104B      1 0000732C 00000001     X   40340 40350U
1ACT      (ACT2025) (12:40) (15MAR04) Ordinary Symbol and Literal Cross Reference                                           Page  220
 $$$1105       1 00000050 00000001 A   U   40391 40388  40390
 $$$1107B      1 00007366 00000001     X   40417 40427U
 $$$1108       1 00000050 00000001 A   U   40468 40465  40467
 $$$1110B      1 000073A0 00000001     X   40494 40504U
 $$$1111       1 00000050 00000001 A   U   40545 40542  40544
 $$$1113B      1 000073DA 00000001     X   40571 40581U
 $$$1114       1 00000050 00000001 A   U   40622 40619  40621
 $$$1116B      1 00007592 00000001     X   40700 40710U
 $$$1117       1 00000050 00000001 A   U   40752 40749  40751
 $$$1119B      1 000075D0 00000001     X   40857 40867U
 $$$112F       2 00000AA8 00000001     H   10234 10214B
 $$$1120B      4 000075FE 00000001     I   40917 40936
 $$$1120F      2 00007606 00000001     H   40932 40917B 40935
 $$$1122B      4 0000760E 00000001     I   40955 40973
 $$$1122E      2 0000760A 00000001     H   40943 40937
 $$$1122F      2 00007616 00000001     H   40970 40939B 40955B 40972
 $$$1125E      2 0000761A 00000001     H   40980 40974
 $$$1125F      2 0000761E 00000001     H   40992 40976B
 $$$1130F      2 000076C6 00000001     H   41155 41117B
 $$$1132F      2 000076F4 00000001     H   41206 41168B
 $$$1134F      2 00007766 00000001     H   41351 41224B
 $$$1135F      2 00007738 00000001     H   41279 41251B 41263B
 $$$1135S      2 00007714 00000001     H   41243 41278B
 $$$1139F      2 0000775E 00000001     H   41327 41312B
 $$$114        1 00000200 00000001 A   U   10274 10271  10273
 $$$1141F      2 00007784 00000001     H   41384 41366B
 $$$1143F      2 000077B4 00000001     H   41465 41411B 41429B
 $$$115F       2 00000B7E 00000001     H   10617 10471B
 $$$1150F      2 000077EE 00000001     H   41596 41538B
 $$$1152F      2 000077EE 00000001     H   41592 41550B
 $$$1153       6 0000824E 00000001     I   41569 41561X
 $$$1154       6 0000824E 00000001     I   41568 41569  41569
 $$$1155F      2 00007800 00000001     H   41617 41606B
 $$$1156F      2 00007822 00000001     H   41680 41634B
 $$$116B       1 00000ADA 00000001     X   10337 10344U
 $$$117F       2 00000AF2 00000001     H   10389 10379B
 $$$1175F      2 00007924 00000001     H   42102 42054B
 $$$1176F      2 00007916 00000001     H   42078 42069B
 $$$1177F      2 00007924 00000001     H   42098 42089B
 $$$1178F      2 0000795E 00000001     H   42167 42151B
 $$$118F       2 00000B00 00000001     H   10414 10404B
 $$$1182F      2 00007AD4 00000001     H   42594 42305B
 $$$1183F      2 00007A4A 00000001     H   42365 42320B 42340B 42355B
 $$$1186F      2 00007A7E 00000001     H   42464 42381B
 $$$1187B      4 00007A60 00000001     I   42399 42414
 $$$1187F      2 00007A66 00000001     H   42410 42399B 42413
 $$$1188E      2 00007A6A 00000001     H   42421 42415
 $$$1188F      2 00007A7E 00000001     H   42460 42417B 42435B 42449B
 $$$119F       2 00000B7C 00000001     H   10600 10547B 10582B
 $$$119S       2 00000B12 00000001     H   10445 10599B
 $$$1192F      2 00007AB2 00000001     H   42538 42525B
 $$$1193F      2 00007AC2 00000001     H   42562 42549B
 $$$1194       1 00000464 00000001 A   U   42664 42661  42663
 $$$1196B      1 00007B14 00000001     X   42737 42744U
 $$$1197F      2 00007B36 00000001     H   42804 42777B
 $$$1198       6 00008254 00000001     I   42792 42784X
 $$$1199       6 00008254 00000001     I   42791 42792  42792
 $$$120F       2 00000B28 00000001     H   10475 10459B
 $$$1200F      2 00007B58 00000001     H   42834 42822B
1ACT      (ACT2025) (12:40) (15MAR04) Ordinary Symbol and Literal Cross Reference                                           Page  221
 $$$1201       6 0000825A 00000001     I   42856 42848X
 $$$1202       6 0000825A 00000001     I   42855 42856  42856
 $$$1204       6 00008260 00000001     I   42887 42879X
 $$$1205       6 00008260 00000001     I   42886 42887  42887
 $$$1206       1 00000150 00000001 A   U   42939 42936  42938
 $$$1208B      1 00007BD2 00000001     X   43015 43022U
 $$$1209F      2 00007BF2 00000001     H   43085 43057B
 $$$121F       2 00000B56 00000001     H   10519 10504B
 $$$1210       6 00008266 00000001     I   43075 43067X
 $$$1211       6 00008266 00000001     I   43074 43075  43075
 $$$1212F      2 00007C0E 00000001     H   43129 43112B
 $$$1214F      2 00007C22 00000001     H   43153 43142B
 $$$1216F      2 00007DB8 00000001     H   43840 43175B 43186B
 $$$1216S      2 00007C26 00000001     H   43165 43839B
 $$$1219B      4 00007C38 00000001     I   43202 43407
 $$$1219F      2 00007CB0 00000001     H   43403 43202B 43406
 $$$1220F      2 00007C50 00000001     H   43244 43217B
 $$$1222       6 0000826C 00000001     I   43264 43256X
 $$$1223       6 0000826C 00000001     I   43263 43264  43264
 $$$1224F      2 00007C9A 00000001     H   43379 43277B
 $$$1225F      2 00007C70 00000001     H   43312 43295B
 $$$1228F      2 00007C8C 00000001     H   43366 43332B
 $$$123F       2 00000B76 00000001     H   10585 10565B
 $$$1231B      4 00007CB8 00000001     I   43424 43473
 $$$1231E      2 00007CB4 00000001     H   43414 43408
 $$$1231F      2 00007CD8 00000001     H   43470 43410B 43424B 43472
 $$$1233F      2 00007CD2 00000001     H   43463 43448B
 $$$1234E      2 00007CDC 00000001     H   43480 43474
 $$$1234F      2 00007D96 00000001     H   43789 43476B
 $$$1235F      2 00007CFE 00000001     H   43526 43492B
 $$$1237F      2 00007D10 00000001     H   43556 43546B
 $$$1238       6 00008272 00000001     I   43569 43561X
 $$$1239       6 00008272 00000001     I   43568 43569  43569
 $$$1240F      2 00007D54 00000001     H   43684 43582B
 $$$1241F      2 00007D2A 00000001     H   43617 43600B
 $$$1244F      2 00007D46 00000001     H   43671 43637B
 $$$1247B      4 00007D62 00000001     I   43711 43763
 $$$1247F      2 00007D84 00000001     H   43760 43711B 43762
 $$$1248F      2 00007D84 00000001     H   43756 43728B 43739B
 $$$1248S      2 00007D66 00000001     H   43721 43755B
 $$$125        1 00000200 00000001 A   U   10626 10623  10625
 $$$1251E      2 00007D88 00000001     H   43770 43764
 $$$1251F      2 00007D92 00000001     H   43778 43766B
 $$$1252F      2 00007DB0 00000001     H   43834 43824B
 $$$1252T      2 00007DAC 00000001     H   43827 43813B
 $$$1254F      2 00007DC8 00000001     H   43863 43853B
 $$$1255       1 00000144 00000001 A   U   43903 43900  43902
 $$$1257B      1 00007DFE 00000001     X   43965 43972U
 $$$1258F      2 00007E1C 00000001     H   44027 44017B
 $$$1259F      2 00007E2C 00000001     H   44050 44038B
 $$$126F       2 00000D2C 00000001     H   11135 10742B 10781B
 $$$1260       6 00008278 00000001     I   44072 44064X
 $$$1261       6 00008278 00000001     I   44071 44072  44072
 $$$1262B      4 00007E46 00000001     I   44085 44102
 $$$1262F      2 00007E56 00000001     H   44099 44085B 44101
 $$$1263E      2 00007E5A 00000001     H   44109 44103
 $$$1263F      2 00007E60 00000001     H   44117 44105B
 $$$1264       1 00000154 00000001 A   U   44145 44142  44144
 $$$1266B      1 00007E8C 00000001     X   44185 44192U
1ACT      (ACT2025) (12:40) (15MAR04) Ordinary Symbol and Literal Cross Reference                                           Page  222
 $$$1267F      2 00007EB0 00000001     H   44269 44222B 44237B
 $$$1269       1 00000050 00000001 A   U   44335 44332  44334
 $$$127B       1 00000BA6 00000001     X   10689 10696U
 $$$1271B      1 00007F04 00000001     X   44366 44373U
 $$$1272B      4 00007F1C 00000001     I   44424 44492
 $$$1272F      2 00007F54 00000001     H   44489 44424B 44491
 $$$1274E      2 00007F58 00000001     H   44499 44493
 $$$1274F      2 00007F88 00000001     H   44572 44495B 44516B
 $$$1276F      2 00008056 00000001     H   44836 44584B
 $$$1277F      2 00008056 00000001     H   44832 44603B 44669B
 $$$1277S      2 00007F92 00000001     H   44598 44831B
 $$$1280F      2 00008012 00000001     H   44746 44690B
 $$$1282F      2 00008052 00000001     H   44827 44760B
 $$$1284       1 00000050 00000001 A   U   44855 44852  44854
 $$$1286B      1 00008298 00000001     X   45001 45008U
 $$$1287F      2 000082BE 00000001     H   45058 45044B
 $$$1288B      4 000082C4 00000001     I   45069 45117
 $$$1288F      2 000082E2 00000001     H   45113 45069B 45116
 $$$129F       2 00000BCE 00000001     H   10785 10773B
 $$$1290F      2 000082E2 00000001     H   45109 45093B
 $$$1292E      2 000082E6 00000001     H   45124 45118
 $$$1292F      2 000082FA 00000001     H   45160 45120B
 $$$1293F      2 000082F0 00000001     H   45151 45135B
 $$$1295       1 00000054 00000001 A   U   45185 45182  45184
 $$$1297B      1 00008326 00000001     X   45250 45257U
 $$$1298F      2 00008352 00000001     H   45308 45294B
 $$$1299B      4 00008358 00000001     I   45319 45339
 $$$1299F      2 00008360 00000001     H   45335 45319B 45338
 $$$130F       2 00000BFE 00000001     H   10833 10817B
 $$$1301E      2 00008364 00000001     H   45346 45340
 $$$1301F      2 00008380 00000001     H   45387 45342B
 $$$1302F      2 00008372 00000001     H   45377 45361B
 $$$1304       1 00000144 00000001 A   U   45412 45409  45411
 $$$1306B      1 000083C6 00000001     X   45543 45550U
 $$$1308F      2 00008414 00000001     H   45682 45633B
 $$$131F       2 00000C64 00000001     H   10941 10848B
 $$$1312F      2 00008488 00000001     H   45891 45694B
 $$$1313F      2 00008488 00000001     H   45887 45713B
 $$$1313S      2 0000841E 00000001     H   45708 45886B
 $$$1315B      4 00008444 00000001     I   45749 45780
 $$$1315F      2 0000844E 00000001     H   45775 45749B 45779
 $$$1315T      2 00008448 00000001     H   45752 45736B
 $$$1319B      4 00008456 00000001     I   45799 45830
 $$$1319E      2 00008452 00000001     H   45787 45781
 $$$1319F      2 00008464 00000001     H   45826 45783B 45799B 45829
 $$$132F       2 00000C36 00000001     H   10894 10879B
 $$$1323E      2 00008468 00000001     H   45837 45831
 $$$1323F      2 00008484 00000001     H   45882 45833B
 $$$1325F      2 00008484 00000001     H   45876 45861B
 $$$1327F      2 000084A8 00000001     H   45955 45938B
 $$$1327T      2 000084A4 00000001     H   45941 45925B
 $$$133F       2 00000C64 00000001     H   10937 10922B
 $$$1331F      2 000084D0 00000001     H   46005 45992B
 $$$1335F      2 00008526 00000001     H   46125 46065B
 $$$1338F      2 00008512 00000001     H   46094 46084B
 $$$134F       2 00000CC2 00000001     H   11045 10952B
 $$$1340F      2 00008526 00000001     H   46121 46106B
 $$$1342F      2 00008582 00000001     H   46271 46138B
 $$$1342S      2 00008526 00000001     H   46132 46270B
1ACT      (ACT2025) (12:40) (15MAR04) Ordinary Symbol and Literal Cross Reference                                           Page  223
 $$$1344       6 00008A48 00000001     I   46155 46147X
 $$$1345       6 00008A48 00000001     I   46154 46155  46155
 $$$1346       6 00008A4E 00000001     I   46173 46165X
 $$$1347       6 00008A4E 00000001     I   46172 46173  46173
 $$$1348F      2 00008574 00000001     H   46261 46186B
 $$$1349F      2 00008564 00000001     H   46235 46212B 46226B
 $$$135F       2 00000C94 00000001     H   10998 10983B
 $$$1351       6 00008A54 00000001     I   46249 46241X
 $$$1352       6 00008A54 00000001     I   46248 46249  46249
 $$$1355F      2 000085CA 00000001     H   46359 46342B
 $$$1357F      2 000085DE 00000001     H   46383 46372B
 $$$1359F      2 000087AA 00000001     H   47106 46413B 46424B
 $$$1359S      2 000085E8 00000001     H   46403 47105B
 $$$136F       2 00000CC2 00000001     H   11041 11026B
 $$$1362B      4 000085FA 00000001     I   46440 46652
 $$$1362F      2 0000867C 00000001     H   46648 46440B 46651
 $$$1363F      2 00008612 00000001     H   46484 46455B
 $$$1365       6 00008A5A 00000001     I   46504 46496X
 $$$1366       6 00008A5A 00000001     I   46503 46504  46504
 $$$1367F      2 0000865C 00000001     H   46619 46517B
 $$$1368F      2 00008632 00000001     H   46552 46535B
 $$$1371F      2 0000864E 00000001     H   46606 46572B
 $$$1374B      4 00008684 00000001     I   46669 46723
 $$$1374E      2 00008680 00000001     H   46659 46653
 $$$1374F      2 000086AE 00000001     H   46720 46655B 46669B 46722
 $$$1376F      2 000086A8 00000001     H   46713 46698B
 $$$1377E      2 000086B2 00000001     H   46730 46724
 $$$1377F      2 00008788 00000001     H   47055 46726B
 $$$1378F      2 000086D4 00000001     H   46776 46742B
 $$$138F       2 00000D2C 00000001     H   11115 11104B
 $$$1380F      2 000086E6 00000001     H   46806 46796B
 $$$1381       6 00008A60 00000001     I   46819 46811X
 $$$1382       6 00008A60 00000001     I   46818 46819  46819
 $$$1383F      2 0000872A 00000001     H   46934 46832B
 $$$1384F      2 00008700 00000001     H   46867 46850B
 $$$1387F      2 0000871C 00000001     H   46921 46887B
 $$$139        1 000001F8 00000001 A   U   11144 11141  11143
 $$$1390B      4 00008738 00000001     I   46961 47024
 $$$1390F      2 0000876C 00000001     H   47021 46961B 47023
 $$$1391F      2 0000875C 00000001     H   47010 46982B 46993B
 $$$1391S      2 0000873E 00000001     H   46975 47009B
 $$$1394E      2 00008770 00000001     H   47031 47025
 $$$1394F      2 00008784 00000001     H   47044 47027B
 $$$1395F      2 000087A2 00000001     H   47100 47090B
 $$$1395T      2 0000879E 00000001     H   47093 47079B
 $$$1397F      2 000087F2 00000001     H   47222 47119B
 $$$1398F      2 000087C8 00000001     H   47152 47142B
 $$$1399F      2 000087E6 00000001     H   47198 47171B
 $$$1400       6 00008A66 00000001     I   47188 47180X
 $$$1401       6 00008A66 00000001     I   47187 47188  47188
 $$$1404B      4 000087FA 00000001     I   47237 47276
 $$$1404F      2 0000880E 00000001     H   47272 47237B 47275
 $$$1405F      2 0000880E 00000001     H   47268 47252B
 $$$1406E      2 00008812 00000001     H   47283 47277
 $$$1406F      2 0000881E 00000001     H   47314 47279B
 $$$1407F      2 0000881E 00000001     H   47310 47295B
 $$$1408F      2 00008846 00000001     H   47367 47337B
 $$$1409F      2 00008842 00000001     H   47362 47352B
 $$$141B       1 00000D54 00000001     X   11181 11188U
1ACT      (ACT2025) (12:40) (15MAR04) Ordinary Symbol and Literal Cross Reference                                           Page  224
 $$$1410       1 00000348 00000001 A   U   47392 47389  47391
 $$$1412B      1 00008872 00000001     X   47462 47469U
 $$$1413F      2 00008890 00000001     H   47524 47514B
 $$$1414F      2 000088A0 00000001     H   47547 47535B
 $$$1415       6 00008A6C 00000001     I   47569 47561X
 $$$1416       6 00008A6C 00000001     I   47568 47569  47569
 $$$1417B      4 000088BA 00000001     I   47582 47599
 $$$1417F      2 000088CA 00000001     H   47596 47582B 47598
 $$$1418E      2 000088CE 00000001     H   47606 47600
 $$$1418F      2 000088D4 00000001     H   47614 47602B
 $$$1419       1 00000154 00000001 A   U   47642 47639  47641
 $$$142F       2 00000D64 00000001     H   11223 11213B
 $$$1421B      1 00008900 00000001     X   47680 47687U
 $$$1422F      2 00008920 00000001     H   47745 47721B 47735B
 $$$1424F      2 00008932 00000001     H   47770 47757B
 $$$1425       1 00000050 00000001 A   U   47788 47785  47787
 $$$1427B      1 00008A8C 00000001     X   47884 47891U
 $$$1428F      2 00008AA0 00000001     H   47929 47920B
 $$$1429       6 00008D64 00000001     I   47957 47949X
 $$$143        1 00000050 00000001 A   U   11241 11238  11240
 $$$1430       6 00008D64 00000001     I   47956 47957  47957
 $$$1431       6 00008D6A 00000001     I   47978 47970X
 $$$1432       6 00008D6A 00000001     I   47977 47978  47978
 $$$1433       6 00008D70 00000001     I   48009 48001X
 $$$1434       6 00008D70 00000001     I   48008 48009  48009
 $$$1435       6 00008D76 00000001     I   48049 48041X
 $$$1436       6 00008D76 00000001     I   48048 48049  48049
 $$$1437       1 00000178 00000001 A   U   48081 48078  48080
 $$$145B       1 00000D8C 00000001     X   11310 11317U
 $$$147F       2 00000E2C 00000001     H   11573 11452B
 $$$147S       2 00000D98 00000001     H   11370 11572B
 $$$149F       2 00000DB6 00000001     H   11434 11405B
 $$$152F       2 00000DF8 00000001     H   11501 11486B
 $$$153F       2 00000E28 00000001     H   11563 11527B
 $$$154F       2 00000E28 00000001     H   11559 11544B
 $$$155        1 00000200 00000001 A   U   11598 11595  11597
 $$$157B       1 00000E54 00000001     X   11639 11646U
 $$$158B       4 00000E58 00000001     I   11670 11692
 $$$158F       2 00000E6C 00000001     H   11688 11670B 11691
 $$$159E       2 00000E70 00000001     H   11699 11693
 $$$159F       2 00000EAA 00000001     H   11740 11695B
 $$$160        1 00000050 00000001 A   U   11760 11757  11759
 $$$162B       1 00000ED4 00000001     X   11799 11806U
 $$$163B       4 00000ED8 00000001     I   11830 11852
 $$$163F       2 00000EEC 00000001     H   11848 11830B 11851
 $$$164E       2 00000EF0 00000001     H   11859 11853
 $$$164F       2 00000F24 00000001     H   11898 11855B
 $$$165        1 00000050 00000001 A   U   11921 11918  11920
 $$$167B       1 00000F4E 00000001     X   11981 11988U
 $$$168F       2 00000F78 00000001     H   12058 12031B
 $$$169        1 000000D0 00000001 A   U   12081 12078  12080
 $$$171B       1 00000FA0 00000001     X   12141 12148U
 $$$172B       4 00000FB6 00000001     I   12192 12210
 $$$172F       2 00000FBE 00000001     H   12207 12192B 12209
 $$$173E       2 00000FC2 00000001     H   12217 12211
 $$$173F       2 00000FC8 00000001     H   12226 12213B
 $$$174        1 000000D0 00000001 A   U   12258 12255  12257
 $$$176B       1 00000FF8 00000001     X   12317 12324U
 $$$177F       2 0000102E 00000001     H   12425 12385B 12415B
1ACT      (ACT2025) (12:40) (15MAR04) Ordinary Symbol and Literal Cross Reference                                           Page  225
 $$$177S       2 00000FFC 00000001     H   12355 12424B
 $$$180        1 0000013C 00000001 A   U   12453 12450  12452
 $$$182B       1 00001058 00000001     X   12498 12505U
 $$$183F       2 00001094 00000001     H   12578 12562B
 $$$184        1 00000050 00000001 A   U   12613 12610  12612
 $$$186B       1 000011FE 00000001     X   12708 12715U
 $$$187F       2 000012D4 00000001     H   13095 12735B
 $$$189F       2 000012D4 00000001     H   13091 12757B
 $$$190F       2 000012D4 00000001     H   13087 12775B
 $$$191F       2 00001244 00000001     H   12843 12794B
 $$$192F       2 00001240 00000001     H   12838 12814B
 $$$193        6 000020C6 00000001     I   12828 12820X
 $$$194        6 000020C6 00000001     I   12827 12828  12828
 $$$195F       2 0000127C 00000001     H   12941 12874B
 $$$196F       2 00001266 00000001     H   12897 12888B
 $$$197F       2 00001278 00000001     H   12936 12912B
 $$$198        6 000020CC 00000001     I   12926 12918X
 $$$199        6 000020CC 00000001     I   12925 12926  12926
 $$$200F       2 000012A6 00000001     H   13001 12964B 12977B 12990B
 $$$200S       2 0000128A 00000001     H   12955 13000B
 $$$204F       2 000012D4 00000001     H   13082 13015B
 $$$205F       2 000012BE 00000001     H   13038 13029B
 $$$206F       2 000012D0 00000001     H   13077 13053B
 $$$207        6 000020D2 00000001     I   13067 13059X
 $$$208        6 000020D2 00000001     I   13066 13067  13067
 $$$209        1 00000050 00000001 A   U   13116 13113  13115
 $$$211B       1 000012FC 00000001     X   13156 13163U
 $$$212F       2 00001318 00000001     H   13232 13219B
 $$$213B       4 0000135C 00000001     I   13356 13397
 $$$213F       2 00001372 00000001     H   13392 13356B 13396
 $$$214E       2 00001376 00000001     H   13404 13398
 $$$214F       2 00001456 00000001     H   13731 13400B 13416B
 $$$216F       2 000013DE 00000001     H   13549 13472B 13485B 13498B 13511B 13525B 13539B
 $$$222F       2 00001428 00000001     H   13658 13602B
 $$$223F       2 00001456 00000001     H   13727 13673B
 $$$224F       2 000014E0 00000001     H   13917 13812B
 $$$225F       2 000014E0 00000001     H   13913 13886B
 $$$226F       2 0000151E 00000001     H   13996 13930B
 $$$227F       2 0000155E 00000001     H   14082 14010B
 $$$228F       2 00001578 00000001     H   14121 14094B
 $$$229F       2 00001592 00000001     H   14159 14132B
 $$$230F       2 000015AC 00000001     H   14197 14170B
 $$$231        1 00000050 00000001 A   U   14246 14243  14245
 $$$233B       1 000015E0 00000001     X   14307 14314U
 $$$234F       2 0000177C 00000001     H   14781 14382B
 $$$234S       2 000015EE 00000001     H   14366 14780B
 $$$236F       2 00001642 00000001     H   14463 14453B
 $$$237F       2 00001652 00000001     H   14485 14475B
 $$$238F       2 00001676 00000001     H   14531 14515B
 $$$239F       2 000016E2 00000001     H   14610 14595B
 $$$240B       4 000016E6 00000001     I   14622 14641
 $$$240F       2 000016F6 00000001     H   14637 14622B 14640
 $$$241E       2 000016FA 00000001     H   14648 14642
 $$$241F       2 00001756 00000001     H   14738 14644B
 $$$242F       2 00001756 00000001     H   14734 14661B
 $$$243B       4 0000170A 00000001     I   14678 14696
 $$$243F       2 0000171A 00000001     H   14693 14678B 14695
 $$$244E       2 0000171E 00000001     H   14703 14697
 $$$244F       2 00001756 00000001     H   14730 14699B
1ACT      (ACT2025) (12:40) (15MAR04) Ordinary Symbol and Literal Cross Reference                                           Page  226
 $$$245F       2 000017B4 00000001     H   14823 14796B
 $$$246        1 000001F8 00000001 A   U   14860 14857  14859
 $$$248B       1 000017EC 00000001     X   14898 14905U
 $$$249        1 00000050 00000001 A   U   14932 14929  14931
 $$$251B       1 00001818 00000001     X   14987 14994U
 $$$252F       2 00001838 00000001     H   15049 15034B
 $$$253F       2 00001846 00000001     H   15073 15061B
 $$$254F       2 000018FE 00000001     H   15328 15088B
 $$$255F       2 0000187C 00000001     H   15148 15121B
 $$$256F       2 000018E6 00000001     H   15301 15195B 15286B
 $$$256S       2 00001890 00000001     H   15179 15300B
 $$$258F       2 000018CC 00000001     H   15243 15228B
 $$$260        1 000001F8 00000001 A   U   15363 15360  15362
 $$$262B       1 00001930 00000001     X   15395 15402U
 $$$263F       2 00001940 00000001     H   15440 15430B
 $$$264F       2 000019D2 00000001     H   15672 15463B
 $$$264S       2 00001944 00000001     H   15447 15671B
 $$$266B       4 00001978 00000001     I   15517 15553
 $$$266F       2 00001986 00000001     H   15545 15490B 15503B 15517B 15548
 $$$267B       4 0000196A 00000001     I   15490 15549
 $$$268B       4 00001970 00000001     I   15503 15551
 $$$269F       2 00001986 00000001     H   15541 15531B
 $$$270E       2 0000198A 00000001     H   15560 15550  15552  15554
 $$$270F       2 000019CE 00000001     H   15667 15556B
 $$$271F       2 000019CE 00000001     H   15663 15575B
 $$$272F       2 000019CE 00000001     H   15659 15597B
 $$$273B       4 000019A6 00000001     I   15614 15631
 $$$273F       2 000019B4 00000001     H   15628 15614B 15630
 $$$274E       2 000019B8 00000001     H   15638 15632
 $$$274F       2 000019C2 00000001     H   15649 15634B
 $$$275B       4 000019DE 00000001     I   15696 15712
 $$$275F       2 000019E8 00000001     H   15709 15696B 15711
 $$$276E       2 000019EC 00000001     H   15719 15713
 $$$276F       2 000019F2 00000001     H   15729 15715B
 $$$277        1 00000050 00000001 A   U   15748 15745  15747
 $$$279B       1 00001A1A 00000001     X   15909 15916U
 $$$280F       2 00001A2E 00000001     H   15976 15949B 15961B
 $$$282F       2 00001A56 00000001     H   16056 15993B 16006B 16020B
 $$$285F       2 00001A56 00000001     H   16052 16036B
 $$$286F       2 00001A68 00000001     H   16097 16070B
 $$$288F       2 00001BA6 00000001     H   16447 16116B
 $$$289F       2 00001B06 00000001     H   16333 16132B
 $$$290F       2 00001AFC 00000001     H   16305 16292B
 $$$292F       2 00001BE8 00000001     H   16551 16465B 16482B
 $$$294B       4 00001BC0 00000001     I   16506 16523
 $$$294F       2 00001BCE 00000001     H   16520 16506B 16522
 $$$295E       2 00001BD2 00000001     H   16530 16524
 $$$295F       2 00001BDC 00000001     H   16541 16526B
 $$$296B       4 00001BF6 00000001     I   16568 16585
 $$$296F       2 00001C00 00000001     H   16581 16568B 16584
 $$$297E       2 00001C04 00000001     H   16592 16586
 $$$297F       2 00001C18 00000001     H   16627 16588B
 $$$298F       2 00001C18 00000001     H   16623 16611B
 $$$299        1 000001F8 00000001 A   U   16696 16693  16695
 $$$301B       1 00001E42 00000001     X   16891 16898U
 $$$302        1 00000050 00000001 A   U   16943 16940  16942
 $$$304B       1 00001E80 00000001     X   16970 16977U
 $$$305        1 00000050 00000001 A   U   17015 17012  17014
 $$$307B       1 00001EB4 00000001     X   17042 17049U
1ACT      (ACT2025) (12:40) (15MAR04) Ordinary Symbol and Literal Cross Reference                                           Page  227
 $$$308        1 00000050 00000001 A   U   17087 17084  17086
 $$$310B       1 00001EE8 00000001     X   17114 17121U
 $$$311        1 00000050 00000001 A   U   17148 17145  17147
 $$$313B       1 000020F2 00000001     X   17306 17313U
 $$$314F       2 000020FE 00000001     H   17350 17341B
 $$$315        1 00000058 00000001 A   U   17385 17382  17384
 $$$317B       1 00002136 00000001     X   17461 17468U
 $$$318B       4 00002154 00000001     I   17505 17519
 $$$318F       2 00002162 00000001     H   17515 17505B 17518
 $$$319E       2 00002166 00000001     H   17526 17520
 $$$319F       2 00002192 00000001     H   17595 17522B
 $$$320B       4 0000216C 00000001     I   17541 17554
 $$$320F       2 0000217A 00000001     H   17551 17541B 17553
 $$$321E       2 0000217E 00000001     H   17561 17555
 $$$321F       2 00002192 00000001     H   17591 17557B
 $$$322F       2 0000218E 00000001     H   17586 17576B
 $$$323        1 00000058 00000001 A   U   17619 17616  17618
 $$$325B       1 000021BA 00000001     X   17685 17692U
 $$$326        1 00000050 00000001 A   U   17724 17721  17723
 $$$328B       1 000021EC 00000001     X   17767 17774U
 $$$329        1 00000050 00000001 A   U   17810 17807  17809
 $$$331B       1 00002220 00000001     X   17845 17852U
 $$$332F       2 00002246 00000001     H   17903 17886B
 $$$333B       4 00002254 00000001     I   17920 17934
 $$$333F       2 00002262 00000001     H   17930 17920B 17933
 $$$334E       2 00002266 00000001     H   17941 17935
 $$$334F       2 000022AC 00000001     H   18035 17937B
 $$$335B       4 0000226C 00000001     I   17956 17969
 $$$335F       2 0000227A 00000001     H   17966 17956B 17968
 $$$336E       2 0000227E 00000001     H   17976 17970
 $$$336F       2 000022AC 00000001     H   18031 17972B
 $$$337F       2 0000228C 00000001     H   17997 17988B
 $$$338F       2 000022A8 00000001     H   18026 18016B
 $$$339F       2 000022BA 00000001     H   18061 18048B
 $$$340F       2 000022D4 00000001     H   18090 18074B
 $$$341        1 00000064 00000001 A   U   18117 18114  18116
 $$$343B       1 00002300 00000001     X   18188 18195U
 $$$344        1 00000050 00000001 A   U   18225 18222  18224
 $$$346B       1 0000232E 00000001     X   18263 18270U
 $$$347        1 00000050 00000001 A   U   18301 18298  18300
 $$$349B       1 00002360 00000001     X   18336 18343U
 $$$350F       2 000023A4 00000001     H   18440 18389B
 $$$350T       2 00002378 00000001     H   18392 18377B
 $$$352F       2 000023B8 00000001     H   18467 18452B
 $$$353F       2 000023C0 00000001     H   18491 18478B
 $$$354F       2 000023CC 00000001     H   18510 18501B
 $$$355F       2 000023E6 00000001     H   18558 18527B 18546B
 $$$357F       2 00002426 00000001     H   18638 18575B
 $$$358B       4 00002400 00000001     I   18593 18611
 $$$358F       2 00002410 00000001     H   18608 18593B 18610
 $$$359E       2 00002414 00000001     H   18618 18612
 $$$359F       2 00002420 00000001     H   18630 18614B
 $$$360F       2 0000246A 00000001     H   18712 18666B
 $$$361F       2 0000246A 00000001     H   18708 18688B
 $$$362B       4 00002480 00000001     I   18734 18782
 $$$362F       2 000024AA 00000001     H   18778 18734B 18781
 $$$363F       2 00002494 00000001     H   18762 18751B
 $$$364E       2 000024AE 00000001     H   18789 18783
 $$$364F       2 00002554 00000001     H   18935 18785B
1ACT      (ACT2025) (12:40) (15MAR04) Ordinary Symbol and Literal Cross Reference                                           Page  228
 $$$365F       2 000024DC 00000001     H   18825 18800B
 $$$366F       2 0000250C 00000001     H   18868 18857B
 $$$367F       2 0000251C 00000001     H   18892 18882B
 $$$368F       2 0000252C 00000001     H   18916 18906B
 $$$369        1 00000150 00000001 A   U   18965 18962  18964
 $$$371B       1 0000257E 00000001     X   19123 19130U
 $$$372F       2 0000259A 00000001     H   19196 19186B
 $$$373F       2 000025AE 00000001     H   19222 19208B
 $$$374F       2 000025BA 00000001     H   19248 19233B
 $$$375F       2 00002616 00000001     H   19419 19261B
 $$$376F       2 00002610 00000001     H   19409 19288B
 $$$377F       2 000025EE 00000001     H   19367 19303B
 $$$378F       2 000025E2 00000001     H   19345 19321B
 $$$379        6 00002B74 00000001     I   19335 19327X
 $$$380        6 00002B74 00000001     I   19334 19335  19335
 $$$381        6 00002B7A 00000001     I   19357 19349X
 $$$382        6 00002B7A 00000001     I   19356 19357  19357
 $$$383F       2 00002610 00000001     H   19405 19384B
 $$$384F       2 0000262C 00000001     H   19445 19434B
 $$$385F       2 000026E8 00000001     H   19760 19488B
 $$$385S       2 0000264C 00000001     H   19477 19759B
 $$$387F       2 0000265E 00000001     H   19513 19504B
 $$$388        6 00002B80 00000001     I   19531 19523X
 $$$389        6 00002B80 00000001     I   19530 19531  19531
 $$$390F       2 00002676 00000001     H   19562 19546B
 $$$391F       2 0000268A 00000001     H   19587 19577B
 $$$392B       4 00002692 00000001     I   19607 19626
 $$$392F       2 0000269A 00000001     H   19621 19607B 19625
 $$$393B       4 000026A2 00000001     I   19644 19687
 $$$393E       2 0000269E 00000001     H   19633 19627
 $$$393F       2 000026B8 00000001     H   19683 19629B 19644B 19686
 $$$395F       2 000026B8 00000001     H   19679 19659B
 $$$396E       2 000026BC 00000001     H   19694 19688
 $$$396F       2 000026C0 00000001     H   19707 19690B
 $$$397F       2 000026E4 00000001     H   19755 19718B
 $$$398F       2 00002704 00000001     H   19801 19777B
 $$$399        1 00000A58 00000001 A   U   19835 19832  19834
 $$$401B       1 0000282E 00000001     X   19928 19935U
 $$$402F       2 0000283C 00000001     H   19984 19969B
 $$$403F       2 0000284C 00000001     H   20023 20014B
 $$$404F       2 00002876 00000001     H   20089 20060B
 $$$405F       2 00002956 00000001     H   20469 20108B
 $$$405S       2 00002876 00000001     H   20099 20468B
 $$$407F       2 000028BA 00000001     H   20222 20133B
 $$$408F       2 000028B0 00000001     H   20197 20150B 20170B 20183B
 $$$408S       2 00002892 00000001     H   20144 20196B
 $$$412F       2 000028BA 00000001     H   20218 20208B
 $$$413F       2 000028D2 00000001     H   20280 20234B 20251B
 $$$415        6 00002B86 00000001     I   20270 20262X
 $$$416        6 00002B86 00000001     I   20269 20270  20270
 $$$417F       2 000028F8 00000001     H   20332 20311B
 $$$418F       2 00002926 00000001     H   20383 20349B
 $$$419F       2 00002926 00000001     H   20379 20368B
 $$$420F       2 00002952 00000001     H   20464 20398B
 $$$421F       2 00002952 00000001     H   20460 20414B 20447B
 $$$421S       2 00002932 00000001     H   20408 20459B
 $$$423F       2 00002948 00000001     H   20450 20432B
 $$$425F       2 00002972 00000001     H   20531 20483B
 $$$426F       2 0000296E 00000001     H   20526 20502B
1ACT      (ACT2025) (12:40) (15MAR04) Ordinary Symbol and Literal Cross Reference                                           Page  229
 $$$427        6 00002B8C 00000001     I   20516 20508X
 $$$428        6 00002B8C 00000001     I   20515 20516  20516
 $$$429F       2 0000298A 00000001     H   20589 20543B 20560B
 $$$43B        1 00000030 00000001     X    6876  6883U
 $$$431        6 00002B92 00000001     I   20579 20571X
 $$$432        6 00002B92 00000001     I   20578 20579  20579
 $$$433F       2 000029C8 00000001     H   20733 20603B 20620B 20639B
 $$$436F       2 000029B0 00000001     H   20672 20656B
 $$$438F       2 000029BC 00000001     H   20712 20688B
 $$$439        6 00002B98 00000001     I   20702 20694X
 $$$440        6 00002B98 00000001     I   20701 20702  20702
 $$$441F       2 000029C8 00000001     H   20729 20719B
 $$$442F       2 000029EE 00000001     H   20787 20766B
 $$$443F       2 00002A1C 00000001     H   20838 20804B
 $$$444F       2 00002A1C 00000001     H   20834 20823B
 $$$445        1 00000854 00000001 A   U   20873 20870  20872
 $$$447B       1 00002A46 00000001     X   20914 20921U
 $$$448B       4 00002A4C 00000001     I   20941 20976
 $$$448F       2 00002A66 00000001     H   20972 20941B 20975
 $$$449F       2 00002A66 00000001     H   20968 20958B
 $$$45B        4 00000290 00000001     I    7719  7749
 $$$45F        2 000002A6 00000001     H    7746  7719B  7748
 $$$450E       2 00002A6A 00000001     H   20983 20977
 $$$450F       2 00002A6E 00000001     H   20990 20979B
 $$$451        1 00000050 00000001 A   U   21009 21006  21008
 $$$452F       2 00002D58 00000001     H   21630 21181B 21209B 21251B
 $$$453B       1 00002BB8 00000001     X   21122 21129U
 $$$454B       4 00002BBE 00000001     I   21161 21224
 $$$454F       2 00002BF0 00000001     H   21218 21161B 21223
 $$$456F       2 00002BEC 00000001     H   21213 21200B
 $$$457E       2 00002BF4 00000001     H   21231 21225
 $$$457F       2 00002C06 00000001     H   21259 21227B
 $$$458F       2 00002C06 00000001     H   21255 21243B
 $$$459B       4 00002C34 00000001     I   21296 21339
 $$$459F       2 00002C62 00000001     H   21333 21296B 21338
 $$$46E        2 000002AA 00000001     H    7756  7750
 $$$46F        2 000002E0 00000001     H    7823  7752B
 $$$460F       2 00002C62 00000001     H   21329 21314B
 $$$461E       2 00002C66 00000001     H   21346 21340
 $$$461F       2 00002C96 00000001     H   21385 21342B
 $$$462F       2 00002C96 00000001     H   21381 21366B
 $$$463B       4 00002C9C 00000001     I   21400 21523
 $$$463F       2 00002D14 00000001     H   21519 21400B 21522
 $$$464F       2 00002CDA 00000001     H   21462 21418B
 $$$465F       2 00002CDA 00000001     H   21458 21443B
 $$$466F       2 00002D14 00000001     H   21515 21477B
 $$$467F       2 00002D14 00000001     H   21511 21496B
 $$$468E       2 00002D18 00000001     H   21530 21524
 $$$468F       2 00002D4C 00000001     H   21602 21526B
 $$$469B       4 00002D30 00000001     I   21563 21580
 $$$469F       2 00002D3E 00000001     H   21577 21563B 21579
 $$$47         1 00000050 00000001 A   U    7844  7841   7843
 $$$470E       2 00002D42 00000001     H   21587 21581
 $$$470F       2 00002D4C 00000001     H   21598 21583B
 $$$471        1 0000005C 00000001 A   U   21639 21636  21638
 $$$473B       1 00002D80 00000001     X   21721 21728U
 $$$474F       2 00002D94 00000001     H   21773 21764B
 $$$475F       2 00002DA0 00000001     H   21792 21783B
 $$$476F       2 00002ED2 00000001     H   22236 21809B
1ACT      (ACT2025) (12:40) (15MAR04) Ordinary Symbol and Literal Cross Reference                                           Page  230
 $$$477F       2 00002DE6 00000001     H   21849 21836B
 $$$478F       2 00002DF6 00000001     H   21888 21864B
 $$$479        6 000031C0 00000001     I   21878 21870X
 $$$480        6 000031C0 00000001     I   21877 21878  21878
 $$$481F       2 00002E20 00000001     H   21952 21925B
 $$$482F       2 00002E4A 00000001     H   22014 21969B 21984B
 $$$484F       2 00002E40 00000001     H   22008 21999B
 $$$485F       2 00002ED0 00000001     H   22227 22029B
 $$$486F       2 00002E82 00000001     H   22098 22047B 22062B
 $$$488F       2 00002E74 00000001     H   22086 22077B
 $$$489F       2 00002ED0 00000001     H   22223 22113B 22147B
 $$$49B        1 00000478 00000001     X    7921  7928U
 $$$490F       2 00002E9E 00000001     H   22150 22131B
 $$$492F       2 00002EC6 00000001     H   22212 22164B
 $$$493F       2 00002EB6 00000001     H   22188 22179B
 $$$494F       2 00002EC2 00000001     H   22207 22198B
 $$$495        1 00000264 00000001 A   U   22264 22261  22263
 $$$499B       1 00002F06 00000001     X   22374 22381U
 $$$50F        2 000004BC 00000001     H    7987  7977B
 $$$500F       2 00002F24 00000001     H   22446 22436B
 $$$500T       2 00002F20 00000001     H   22439 22424B
 $$$502F       2 0000312E 00000001     H   23196 22461B 22575B 22782B
 $$$503F       2 00002F6A 00000001     H   22556 22479B
 $$$504F       2 00002F6A 00000001     H   22552 22540B
 $$$504T       2 00002F66 00000001     H   22543 22503B 22516B 22529B
 $$$509F       2 00002FD0 00000001     H   22704 22594B 22654B
 $$$51F        2 000004F2 00000001     H    8043  8028B
 $$$510F       2 00002FB4 00000001     H   22642 22616B 22629B
 $$$510S       2 00002F98 00000001     H   22608 22641B
 $$$514F       2 00002FD0 00000001     H   22700 22676B
 $$$515        6 000031C6 00000001     I   22690 22682X
 $$$516        6 000031C6 00000001     I   22689 22690  22690
 $$$517F       2 00002FFC 00000001     H   22763 22719B 22737B 22750B
 $$$52         1 00000050 00000001 A   U    8101  8098   8100
 $$$521F       2 00003022 00000001     H   22828 22804B
 $$$522        6 000031CC 00000001     I   22818 22810X
 $$$523        6 000031CC 00000001     I   22817 22818  22818
 $$$524F       2 0000303C 00000001     H   22856 22840B
 $$$525F       2 00003098 00000001     H   22969 22901B
 $$$526F       2 00003074 00000001     H   22924 22914B
 $$$527F       2 00003082 00000001     H   22944 22935B
 $$$528F       2 0000308E 00000001     H   22963 22954B
 $$$529F       2 0000312C 00000001     H   23187 22984B
 $$$530F       2 000030E4 00000001     H   23076 23002B
 $$$531F       2 000030BC 00000001     H   23025 23015B
 $$$532F       2 000030CA 00000001     H   23045 23036B
 $$$533F       2 000030D6 00000001     H   23064 23055B
 $$$534F       2 0000312C 00000001     H   23183 23091B
 $$$535F       2 0000311E 00000001     H   23171 23106B
 $$$536F       2 00003104 00000001     H   23128 23118B
 $$$537F       2 00003112 00000001     H   23148 23139B
 $$$538F       2 0000311E 00000001     H   23167 23158B
 $$$539        1 00000264 00000001 A   U   23225 23222  23224
 $$$54B        1 0000055E 00000001     X    8160  8167U
 $$$541B       1 0000315E 00000001     X   23288 23295U
 $$$542        1 00000058 00000001 A   U   23350 23347  23349
 $$$544B       1 000031EC 00000001     X   23462 23469U
 $$$545F       2 0000320E 00000001     H   23527 23512B
 $$$546F       2 0000322C 00000001     H   23553 23538B
1ACT      (ACT2025) (12:40) (15MAR04) Ordinary Symbol and Literal Cross Reference                                           Page  231
 $$$547F       2 00003246 00000001     H   23580 23571B
 $$$549F       2 0000327A 00000001     H   23644 23635B
 $$$55F        2 0000065A 00000001     H    8427  8333B
 $$$550F       2 00003298 00000001     H   23679 23667B
 $$$551F       2 000032AC 00000001     H   23715 23691B 23706B
 $$$553F       2 000032C4 00000001     H   23740 23731B
 $$$554F       2 0000339C 00000001     H   23989 23757B
 $$$554S       2 000032C8 00000001     H   23747 23988B
 $$$556F       2 00003320 00000001     H   23818 23798B
 $$$557F       2 00003334 00000001     H   23845 23836B
 $$$558F       2 0000336A 00000001     H   23929 23860B
 $$$559F       2 00003352 00000001     H   23888 23876B
 $$$56F        2 0000062A 00000001     H    8378  8363B
 $$$560F       2 00003366 00000001     H   23924 23900B 23915B
 $$$562F       2 00003394 00000001     H   23983 23949B
 $$$562S       2 0000337A 00000001     H   23943 23982B
 $$$564F       2 00003390 00000001     H   23978 23969B
 $$$565F       2 000033BA 00000001     H   24018 24003B
 $$$566F       2 000033DA 00000001     H   24050 24035B
 $$$567F       2 000033E6 00000001     H   24073 24063B
 $$$568F       2 000033F2 00000001     H   24096 24086B
 $$$569F       2 000033FE 00000001     H   24119 24109B
 $$$57F        2 0000065A 00000001     H    8423  8408B
 $$$570F       2 0000340A 00000001     H   24142 24132B
 $$$571        1 0000006C 00000001 A   U   24169 24166  24168
 $$$573B       1 00003442 00000001     X   24254 24261U
 $$$574F       2 000034AA 00000001     H   24342 24327B
 $$$575F       2 000034B8 00000001     H   24366 24356B
 $$$576F       2 000034C4 00000001     H   24389 24379B
 $$$577F       2 000034D0 00000001     H   24412 24402B
 $$$578F       2 000034E6 00000001     H   24451 24427B 24442B
 $$$58F        2 000006BC 00000001     H    8534  8440B
 $$$580F       2 000035FE 00000001     H   24696 24492B
 $$$581F       2 0000359C 00000001     H   24607 24514B
 $$$582F       2 0000355C 00000001     H   24545 24530B
 $$$583F       2 0000357C 00000001     H   24574 24559B
 $$$584F       2 0000359C 00000001     H   24603 24588B
 $$$585F       2 000035FE 00000001     H   24692 24628B
 $$$586F       2 000035DE 00000001     H   24659 24644B
 $$$587F       2 000035FE 00000001     H   24688 24673B
 $$$588F       2 000036E6 00000001     H   24916 24712B
 $$$589F       2 0000366A 00000001     H   24801 24737B
 $$$59F        2 0000068C 00000001     H    8485  8470B
 $$$590F       2 0000364A 00000001     H   24768 24753B
 $$$591F       2 0000366A 00000001     H   24797 24782B
 $$$592F       2 000036E6 00000001     H   24912 24819B
 $$$593F       2 000036A6 00000001     H   24850 24835B
 $$$594F       2 000036C6 00000001     H   24879 24864B
 $$$595F       2 000036E6 00000001     H   24908 24893B
 $$$596F       2 00003724 00000001     H   24959 24944B
 $$$597        1 00000074 00000001 A   U   24992 24989  24991
 $$$599B       1 0000375A 00000001     X   25075 25082U
 $$$60F        2 000006BC 00000001     H    8530  8515B
 $$$600F       2 000037E4 00000001     H   25244 25123B
 $$$601F       2 00003798 00000001     H   25156 25141B
 $$$602F       2 000037AA 00000001     H   25185 25175B
 $$$603F       2 000037C0 00000001     H   25206 25195B
 $$$604F       2 000037D0 00000001     H   25226 25215B
 $$$605F       2 00003824 00000001     H   25310 25267B
1ACT      (ACT2025) (12:40) (15MAR04) Ordinary Symbol and Literal Cross Reference                                           Page  232
 $$$606F       2 0000381A 00000001     H   25298 25283B
 $$$607F       2 00003890 00000001     H   25406 25321B
 $$$608F       2 0000385E 00000001     H   25366 25351B
 $$$609F       2 0000388E 00000001     H   25397 25382B
 $$$61         1 000001F8 00000001 A   U    8563  8560   8562
 $$$610        1 00000064 00000001 A   U   25431 25428  25430
 $$$612B       1 000038B8 00000001     X   25480 25487U
 $$$613F       2 00003936 00000001     H   25611 25526B
 $$$613T       2 000038D0 00000001     H   25529 25514B
 $$$615F       2 00003904 00000001     H   25571 25556B
 $$$616F       2 00003934 00000001     H   25602 25587B
 $$$617        1 00000050 00000001 A   U   25630 25627  25629
 $$$619B       1 000039D8 00000001     X   25721 25728U
 $$$620B       4 000039E6 00000001     I   25753 25769
 $$$620F       2 000039F2 00000001     H   25766 25753B 25768
 $$$621E       2 000039F6 00000001     H   25776 25770
 $$$621F       2 000039FA 00000001     H   25782 25772B
 $$$622        1 00000050 00000001 A   U   25803 25800  25802
 $$$624B       1 00003A26 00000001     X   25849 25856U
 $$$625B       4 00003A38 00000001     I   25883 25899
 $$$625F       2 00003A44 00000001     H   25896 25883B 25898
 $$$626E       2 00003A48 00000001     H   25906 25900
 $$$626F       2 00003A4C 00000001     H   25912 25902B
 $$$627        1 00000050 00000001 A   U   25933 25930  25932
 $$$629B       1 00003A78 00000001     X   25979 25986U
 $$$63B        1 000006E4 00000001     X    8623  8630U
 $$$630F       2 00003A96 00000001     H   26038 26007B
 $$$631F       2 00003A94 00000001     H   26033 26023B
 $$$632B       4 00003AA2 00000001     I   26054 26110
 $$$632F       2 00003ACA 00000001     H   26105 26054B 26109
 $$$633B       4 00003AB6 00000001     I   26072 26088
 $$$633F       2 00003AC2 00000001     H   26085 26072B 26087
 $$$634E       2 00003AC6 00000001     H   26095 26089
 $$$634F       2 00003ACA 00000001     H   26101 26091B
 $$$635E       2 00003ACE 00000001     H   26117 26111
 $$$635F       2 00003AD2 00000001     H   26123 26113B
 $$$636F       2 00003AF6 00000001     H   26171 26135B
 $$$637F       2 00003AEE 00000001     H   26164 26154B
 $$$638        1 00000050 00000001 A   U   26194 26191  26193
 $$$64F        2 00000722 00000001     H    8751  8663B  8735B
 $$$64S        2 000006E8 00000001     H    8657  8750B
 $$$640B       1 00003B22 00000001     X   26240 26247U
 $$$641B       4 00003B30 00000001     I   26272 26288
 $$$641F       2 00003B3C 00000001     H   26285 26272B 26287
 $$$642E       2 00003B40 00000001     H   26295 26289
 $$$642F       2 00003B44 00000001     H   26301 26291B
 $$$643        1 00000050 00000001 A   U   26322 26319  26321
 $$$645B       1 00003B70 00000001     X   26368 26375U
 $$$646F       2 00003B80 00000001     H   26408 26396B
 $$$647        1 00000050 00000001 A   U   26429 26426  26428
 $$$649B       1 00003BD4 00000001     X   26517 26524U
 $$$650        1 00000140 00000001 A   U   26576 26573  26575
 $$$652B       1 00003C10 00000001     X   26622 26629U
 $$$653F       2 00003C30 00000001     H   26675 26664B
 $$$654        1 00000140 00000001 A   U   26699 26696  26698
 $$$656B       1 00003C58 00000001     X   26745 26752U
 $$$657F       2 00003C78 00000001     H   26798 26787B
 $$$658        1 00000140 00000001 A   U   26822 26819  26821
 $$$66F        2 0000070E 00000001     H    8708  8693B
1ACT      (ACT2025) (12:40) (15MAR04) Ordinary Symbol and Literal Cross Reference                                           Page  233
 $$$660B       1 00003CA0 00000001     X   26868 26875U
 $$$661F       2 00003CC0 00000001     H   26921 26910B
 $$$662        1 00000140 00000001 A   U   26945 26942  26944
 $$$664B       1 00003CE8 00000001     X   26991 26998U
 $$$665F       2 00003D08 00000001     H   27044 27033B
 $$$666        1 00000140 00000001 A   U   27068 27065  27067
 $$$668B       1 00003D30 00000001     X   27111 27118U
 $$$669F       2 00003D5C 00000001     H   27187 27140B
 $$$670F       2 00003D5C 00000001     H   27183 27155B
 $$$671F       2 00003DD0 00000001     H   27336 27199B
 $$$672B       4 00003D6A 00000001     I   27217 27248
 $$$672F       2 00003D88 00000001     H   27245 27217B 27247
 $$$673E       2 00003D8C 00000001     H   27255 27249
 $$$673F       2 00003DD0 00000001     H   27332 27251B
 $$$674F       2 00003DB2 00000001     H   27298 27270B
 $$$675F       2 00003DC8 00000001     H   27325 27315B
 $$$676        1 00000050 00000001 A   U   27357 27354  27356
 $$$678B       1 00003DFC 00000001     X   27402 27409U
 $$$679F       2 00003E2C 00000001     H   27477 27449B
 $$$679T       2 00003E12 00000001     H   27452 27437B
 $$$68B        4 00000724 00000001     I    8764  8883
 $$$68F        2 00000774 00000001     H    8877  8764B  8882
 $$$681F       2 00003E5A 00000001     H   27538 27489B
 $$$682F       2 00003E58 00000001     H   27533 27505B
 $$$683F       2 00003E7A 00000001     H   27589 27559B
 $$$684F       2 00003E7A 00000001     H   27585 27575B
 $$$685        1 00000050 00000001 A   U   27616 27613  27615
 $$$687B       1 00003EA4 00000001     X   27660 27667U
 $$$688F       2 00003ED6 00000001     H   27739 27690B
 $$$689F       2 00003ED4 00000001     H   27734 27706B
 $$$69F        2 0000076C 00000001     H    8867  8779B
 $$$690F       2 00003F0E 00000001     H   27820 27752B
 $$$691F       2 00003EF4 00000001     H   27796 27766B
 $$$692F       2 00003EF4 00000001     H   27792 27782B
 $$$693F       2 00003F30 00000001     H   27872 27842B
 $$$694F       2 00003F30 00000001     H   27868 27858B
 $$$695        1 00000050 00000001 A   U   27899 27896  27898
 $$$697B       1 00003F5A 00000001     X   27944 27951U
 $$$698F       2 00003F8A 00000001     H   28019 27991B
 $$$698T       2 00003F70 00000001     H   27994 27979B
 $$$70F        2 00000760 00000001     H    8857  8801B
 $$$700F       2 00003FB8 00000001     H   28080 28031B
 $$$701F       2 00003FB6 00000001     H   28075 28047B
 $$$702F       2 00003FDC 00000001     H   28132 28102B
 $$$703F       2 00003FDC 00000001     H   28128 28118B
 $$$704        1 00000050 00000001 A   U   28159 28156  28158
 $$$706B       1 00004006 00000001     X   28204 28211U
 $$$707F       2 00004036 00000001     H   28279 28251B
 $$$707T       2 0000401C 00000001     H   28254 28239B
 $$$709F       2 00004064 00000001     H   28340 28291B
 $$$71B        4 00000744 00000001     I    8818  8835
 $$$71F        2 00000752 00000001     H    8832  8818B  8834
 $$$710F       2 00004062 00000001     H   28335 28307B
 $$$711F       2 00004088 00000001     H   28392 28362B
 $$$712F       2 00004088 00000001     H   28388 28378B
 $$$713        1 00000050 00000001 A   U   28419 28416  28418
 $$$715B       1 0000417A 00000001     X   28517 28524U
 $$$716F       2 0000419E 00000001     H   28575 28565B
 $$$718F       2 000041AA 00000001     H   28597 28587B
1ACT      (ACT2025) (12:40) (15MAR04) Ordinary Symbol and Literal Cross Reference                                           Page  234
 $$$72E        2 00000756 00000001     H    8842  8836
 $$$72F        2 00000760 00000001     H    8853  8838B
 $$$720        1 00000148 00000001 A   U   28630 28627  28629
 $$$722B       1 000041E0 00000001     X   28663 28670U
 $$$723F       2 00004268 00000001     H   28881 28690B 28708B 28726B
 $$$727F       2 0000424C 00000001     H   28827 28814B
 $$$728F       2 0000425E 00000001     H   28853 28840B
 $$$729        1 00000050 00000001 A   U   28899 28896  28898
 $$$73E        2 00000778 00000001     H    8890  8884
 $$$73F        2 00000782 00000001     H    8908  8886B
 $$$731B       1 00004290 00000001     X   28943 28950U
 $$$732F       2 000042A6 00000001     H   28984 28971B
 $$$733F       2 00004324 00000001     H   29090 29016B
 $$$733S       2 000042BE 00000001     H   29009 29089B
 $$$735F       2 0000431C 00000001     H   29084 29039B
 $$$736F       2 000042FE 00000001     H   29069 29056B
 $$$737F       2 0000433E 00000001     H   29121 29105B
 $$$738        1 00000050 00000001 A   U   29140 29137  29139
 $$$74         1 000001F8 00000001 A   U    8932  8929   8931
 $$$740B       1 00004366 00000001     X   29180 29187U
 $$$741        6 00004B8E 00000001     I   29234 29226X
 $$$742        6 00004B8E 00000001     I   29233 29234  29234
 $$$743        1 00000050 00000001 A   U   29270 29267  29269
 $$$745B       1 000043EA 00000001     X   29309 29316U
 $$$746        1 00000050 00000001 A   U   29359 29356  29358
 $$$748B       1 00004432 00000001     X   29405 29412U
 $$$749F       2 00004450 00000001     H   29467 29440B 29453B
 $$$749S       2 0000443A 00000001     H   29432 29466B
 $$$75F        2 0000086E 00000001     H    9280  9094B  9119B
 $$$752F       2 00004488 00000001     H   29543 29486B
 $$$753F       2 000044C8 00000001     H   29653 29557B 29574B
 $$$755F       2 000044A6 00000001     H   29600 29590B
 $$$756F       2 000044C8 00000001     H   29649 29611B
 $$$757F       2 000044C8 00000001     H   29645 29635B
 $$$758        1 00000050 00000001 A   U   29687 29684  29686
 $$$76B        1 000007AA 00000001     X    8993  9000U
 $$$760B       1 000044FA 00000001     X   29724 29731U
 $$$761F       2 000045BE 00000001     H   30014 29750B
 $$$762B       4 00004508 00000001     I   29770 29828
 $$$762F       2 00004538 00000001     H   29822 29770B 29827
 $$$763E       2 0000453C 00000001     H   29835 29829
 $$$763F       2 000045A2 00000001     H   29967 29831B
 $$$764F       2 0000456A 00000001     H   29898 29888B
 $$$765        1 00000050 00000001 A   U   30033 30030  30032
 $$$767B       1 000045E6 00000001     X   30226 30233U
 $$$769B       4 0000460C 00000001     I   30317 30339
 $$$769F       2 0000461C 00000001     H   30333 30317B 30338
 $$$77F        2 000007C8 00000001     H    9041  9026B
 $$$770B       4 00004624 00000001     I   30355 30382
 $$$770E       2 00004620 00000001     H   30346 30340
 $$$770F       2 00004642 00000001     H   30377 30342B 30355B 30381
 $$$772E       2 00004646 00000001     H   30389 30383
 $$$772F       2 0000465C 00000001     H   30419 30385B
 $$$773F       2 00004656 00000001     H   30414 30402B
 $$$774F       2 000046C8 00000001     H   30486 30471B
 $$$775F       2 000046DC 00000001     H   30512 30497B
 $$$776F       2 000046FA 00000001     H   30554 30541B
 $$$776S       2 000046E2 00000001     H   30535 30553B
 $$$778        1 00000054 00000001 A   U   30590 30587  30589
1ACT      (ACT2025) (12:40) (15MAR04) Ordinary Symbol and Literal Cross Reference                                           Page  235
 $$$78F        2 000007EE 00000001     H    9098  9085B
 $$$780B       1 00004932 00000001     X   30818 30825U
 $$$781B       4 00004936 00000001     I   30847 30873
 $$$781F       2 00004942 00000001     H   30870 30847B 30872
 $$$785E       2 00004946 00000001     H   30880 30874
 $$$785F       2 00004952 00000001     H   30892 30876B
 $$$786        1 00000050 00000001 A   U   30912 30909  30911
 $$$788B       1 0000497E 00000001     X   30939 30946U
 $$$789B       4 00004982 00000001     I   30968 30994
 $$$789F       2 0000498E 00000001     H   30991 30968B 30993
 $$$793E       2 00004992 00000001     H   31001 30995
 $$$793F       2 0000499E 00000001     H   31013 30997B
 $$$794F       2 000049CC 00000001     H   31062 31030B
 $$$795F       2 000049CC 00000001     H   31058 31045B
 $$$796        1 00000050 00000001 A   U   31091 31088  31090
 $$$798B       1 00004A00 00000001     X   31119 31126U
 $$$80F        2 0000086C 00000001     H    9263  9173B
 $$$800        1 00000050 00000001 A   U   31167 31164  31166
 $$$802B       1 00004CC6 00000001     X   31360 31367U
 $$$803        1 00000050 00000001 A   U   31400 31397  31399
 $$$805B       1 00004CFA 00000001     X   31427 31434U
 $$$806        1 00000050 00000001 A   U   31491 31488  31490
 $$$808B       1 00004D38 00000001     X   31518 31525U
 $$$809B       4 00004D4C 00000001     I   31569 31637
 $$$809F       2 00004D8A 00000001     H   31634 31569B 31636
 $$$809T       2 00004D50 00000001     H   31572 31557B
 $$$81F        2 0000086C 00000001     H    9259  9201B
 $$$811F       2 00004D7E 00000001     H   31620 31588B
 $$$812F       2 00004D7E 00000001     H   31616 31603B
 $$$813E       2 00004D8E 00000001     H   31644 31638
 $$$813F       2 00004DD6 00000001     H   31737 31640B
 $$$814F       2 00004DB4 00000001     H   31688 31673B
 $$$814T       2 00004DA8 00000001     H   31676 31662B
 $$$816F       2 00004DBE 00000001     H   31714 31699B
 $$$817        1 00000050 00000001 A   U   31755 31752  31754
 $$$819B       1 00004DFE 00000001     X   31782 31789U
 $$$82B        4 0000084C 00000001     I    9218  9236
 $$$82F        2 0000085C 00000001     H    9233  9218B  9235
 $$$821        1 00000050 00000001 A   U   31830 31827  31829
 $$$823B       1 00004E32 00000001     X   31857 31864U
 $$$824B       4 00004E46 00000001     I   31904 31935
 $$$824F       2 00004E58 00000001     H   31932 31904B 31934
 $$$825F       2 00004E54 00000001     H   31927 31918B
 $$$826E       2 00004E5C 00000001     H   31942 31936
 $$$826F       2 00004E60 00000001     H   31953 31938B
 $$$827        1 00000050 00000001 A   U   31988 31985  31987
 $$$829B       1 00004E98 00000001     X   32022 32029U
 $$$83E        2 00000860 00000001     H    9243  9237
 $$$83F        2 0000086C 00000001     H    9255  9239B
 $$$830F       2 00004EC6 00000001     H   32084 32052B
 $$$831F       2 00004EC6 00000001     H   32080 32067B
 $$$832        1 00000050 00000001 A   U   32112 32109  32111
 $$$834B       1 00004EFA 00000001     X   32139 32146U
 $$$835F       2 00004F0C 00000001     H   32194 32181B
 $$$836F       2 00004F2E 00000001     H   32230 32214B
 $$$837F       2 00004F80 00000001     H   32296 32251B
 $$$838F       2 00004F6C 00000001     H   32285 32269B
 $$$839        1 00000050 00000001 A   U   32318 32315  32317
 $$$84         1 000000D0 00000001 A   U    9289  9286   9288
1ACT      (ACT2025) (12:40) (15MAR04) Ordinary Symbol and Literal Cross Reference                                           Page  236
 $$$841B       1 00004FAA 00000001     X   32360 32367U
 $$$842B       4 0000501A 00000001     I   32447 32533
 $$$842F       2 0000508E 00000001     H   32526 32434B 32447B 32530
 $$$843B       4 00005012 00000001     I   32434 32531
 $$$844F       2 00005088 00000001     H   32517 32502B
 $$$845B       4 0000509E 00000001     I   32566 32669
 $$$845E       2 00005092 00000001     H   32540 32532  32534
 $$$845F       2 00005138 00000001     H   32663 32536B 32552B 32566B 32666
 $$$847B       4 00005096 00000001     I   32552 32667
 $$$848E       2 0000513C 00000001     H   32676 32668  32670
 $$$848F       2 00005150 00000001     H   32689 32672B
 $$$849        1 00000050 00000001 A   U   32709 32706  32708
 $$$85F        2 0000092E 00000001     H    9609  9466B
 $$$851B       1 0000526E 00000001     X   32828 32835U
 $$$852        1 00000050 00000001 A   U   32868 32865  32867
 $$$854B       1 000052A2 00000001     X   32895 32902U
 $$$855        1 00000050 00000001 A   U   32932 32929  32931
 $$$857B       1 000052D4 00000001     X   32959 32966U
 $$$858        1 00000050 00000001 A   U   32996 32993  32995
 $$$86B        1 00000896 00000001     X    9352  9359U
 $$$860B       1 00005302 00000001     X   33023 33030U
 $$$861        1 00000050 00000001 A   U   33063 33060  33062
 $$$863B       1 00005336 00000001     X   33090 33097U
 $$$864F       2 00005392 00000001     H   33160 33147B
 $$$865        1 00000050 00000001 A   U   33181 33178  33180
 $$$867B       1 000053C2 00000001     X   33208 33215U
 $$$868        1 00000050 00000001 A   U   33245 33242  33244
 $$$87F        2 000008AE 00000001     H    9404  9394B
 $$$870B       1 00005BC8 00000001     X   33972 33979U
 $$$871        1 00000050 00000001 A   U   34012 34009  34011
 $$$873B       1 00005BFC 00000001     X   34039 34046U
 $$$874        1 00000050 00000001 A   U   34094 34091  34093
 $$$876B       1 00005C3C 00000001     X   34121 34128U
 $$$877F       2 00005C6A 00000001     H   34183 34151B
 $$$878F       2 00005C6A 00000001     H   34179 34166B
 $$$879        1 00000050 00000001 A   U   34211 34208  34210
 $$$88F        2 0000092C 00000001     H    9592  9542B  9577B
 $$$88S        2 000008C2 00000001     H    9437  9591B
 $$$881B       1 00005C9E 00000001     X   34247 34254U
 $$$882F       2 00005CB8 00000001     H   34289 34273B
 $$$883        1 00000050 00000001 A   U   34343 34340  34342
 $$$885B       1 00005CFC 00000001     X   34370 34377U
 $$$886F       2 00005D16 00000001     H   34412 34396B
 $$$887        1 00000050 00000001 A   U   34466 34463  34465
 $$$889B       1 00005D5A 00000001     X   34493 34500U
 $$$89F        2 000008DA 00000001     H    9470  9454B
 $$$890        1 00000050 00000001 A   U   34555 34552  34554
 $$$892B       1 00005D9A 00000001     X   34582 34589U
 $$$893        1 00000050 00000001 A   U   34644 34641  34643
 $$$895B       1 00005DDA 00000001     X   34671 34678U
 $$$896        1 00000050 00000001 A   U   34733 34730  34732
 $$$898B       1 00005E1A 00000001     X   34760 34767U
 $$$899        1 00000050 00000001 A   U   34828 34825  34827
 $$$90F        2 00000908 00000001     H    9514  9499B
 $$$901B       1 00005E5E 00000001     X   34855 34862U
 $$$902        1 00000050 00000001 A   U   34917 34914  34916
 $$$904B       1 00005E9E 00000001     X   34944 34951U
 $$$905        1 00000050 00000001 A   U   35012 35009  35011
 $$$907B       1 00005EE2 00000001     X   35039 35046U
1ACT      (ACT2025) (12:40) (15MAR04) Ordinary Symbol and Literal Cross Reference                                           Page  237
 $$$908        1 00000050 00000001 A   U   35101 35098  35100
 $$$910B       1 00005F22 00000001     X   35128 35135U
 $$$911        1 00000050 00000001 A   U   35196 35193  35195
 $$$913B       1 00005F66 00000001     X   35235 35242U
 $$$914F       2 00005F7A 00000001     H   35276 35261B
 $$$915F       2 00005FB2 00000001     H   35363 35307B
 $$$916F       2 00005F9E 00000001     H   35336 35326B
 $$$917F       2 00005FAA 00000001     H   35357 35347B
 $$$918F       2 00005FCC 00000001     H   35391 35382B
 $$$919F       2 00005FFC 00000001     H   35437 35427B
 $$$92F        2 00000928 00000001     H    9580  9560B
 $$$920B       4 00006004 00000001     I   35450 35530
 $$$920F       2 00006030 00000001     H   35525 35450B 35496B 35529
 $$$922F       2 00006020 00000001     H   35486 35473B
 $$$924        6 0000659A 00000001     I   35515 35507X
 $$$925        6 0000659A 00000001     I   35514 35515  35515
 $$$926B       4 00006038 00000001     I   35546 35572
 $$$926E       2 00006034 00000001     H   35537 35531
 $$$926F       2 0000604E 00000001     H   35567 35533B 35546B 35571
 $$$929B       4 00006056 00000001     I   35588 35653
 $$$929E       2 00006052 00000001     H   35579 35573
 $$$929F       2 00006084 00000001     H   35649 35575B 35588B 35652
 $$$931F       2 00006084 00000001     H   35645 35604B
 $$$932E       2 00006088 00000001     H   35660 35654
 $$$932F       2 0000609C 00000001     H   35690 35656B
 $$$933F       2 0000609C 00000001     H   35686 35673B
 $$$934B       4 0000609E 00000001     I   35699 35718
 $$$934F       2 000060A6 00000001     H   35715 35699B 35717
 $$$936E       2 000060AA 00000001     H   35725 35719
 $$$936F       2 000060B0 00000001     H   35734 35721B
 $$$937        1 00000050 00000001 A   U   35770 35767  35769
 $$$939B       1 000060E8 00000001     X   35797 35804U
 $$$94         1 00000200 00000001 A   U    9618  9615   9617
 $$$940F       2 00006106 00000001     H   35854 35839B
 $$$940T       2 000060FA 00000001     H   35842 35827B
 $$$942F       2 00006122 00000001     H   35879 35866B
 $$$943F       2 00006134 00000001     H   35901 35888B
 $$$944        1 00000050 00000001 A   U   35936 35933  35935
 $$$946B       1 0000616C 00000001     X   35963 35970U
 $$$947F       2 0000617E 00000001     H   36000 35987B
 $$$948B       4 00006182 00000001     I   36012 36057
 $$$948F       2 000061A0 00000001     H   36054 36012B 36056
 $$$95F        2 000009F0 00000001     H    9937  9794B
 $$$950F       2 000061A0 00000001     H   36050 36024B
 $$$951E       2 000061A4 00000001     H   36064 36058
 $$$951F       2 000061C2 00000001     H   36104 36060B
 $$$952F       2 000061C2 00000001     H   36100 36074B
 $$$953        1 00000050 00000001 A   U   36141 36138  36140
 $$$955B       1 00006202 00000001     X   36185 36192U
 $$$956F       2 00006248 00000001     H   36282 36214B 36278B
 $$$957F       2 00006238 00000001     H   36265 36233B
 $$$958F       2 00006238 00000001     H   36261 36248B
 $$$959F       2 00006264 00000001     H   36311 36298B
 $$$96B        1 00000956 00000001     X    9681  9688U
 $$$960        1 00000050 00000001 A   U   36419 36416  36418
 $$$962B       1 00006322 00000001     X   36446 36453U
 $$$963F       2 0000633A 00000001     H   36490 36475B
 $$$964F       2 0000636A 00000001     H   36539 36504B
 $$$965F       2 0000636A 00000001     H   36535 36520B
1ACT      (ACT2025) (12:40) (15MAR04) Ordinary Symbol and Literal Cross Reference                                           Page  238
 $$$966        1 00000050 00000001 A   U   36579 36576  36578
 $$$968B       1 000063AE 00000001     X   36606 36613U
 $$$969F       2 000063CC 00000001     H   36648 36633B
 $$$97F        2 0000096E 00000001     H    9733  9723B
 $$$970        1 00000050 00000001 A   U   36684 36681  36683
 $$$971B       1 000065BA 00000001     X   36764 36771U 38555U 38656U 38838U 39930U 40301U 40380U 40457U 40534U 40611U
                                                 40741U 42653U
 $$$977F       2 000066FE 00000001     H   37213 36938B
 $$$978F       2 000066F6 00000001     H   37194 36954B
 $$$98F        2 000009EE 00000001     H    9920  9870B  9905B
 $$$98S        2 00000982 00000001     H    9766  9919B
 $$$980F       2 0000667A 00000001     H   37007 36994B
 $$$981F       2 0000668A 00000001     H   37033 37020B
 $$$982F       2 0000669A 00000001     H   37059 37046B
 $$$983F       2 000066AA 00000001     H   37085 37072B
 $$$984F       2 000066BC 00000001     H   37111 37098B
 $$$985F       2 000066CE 00000001     H   37137 37124B
 $$$986F       2 000066E0 00000001     H   37163 37150B
 $$$987F       2 000066F2 00000001     H   37189 37176B
 $$$99F        2 0000099C 00000001     H    9798  9782B
 $$$992F       2 000067A6 00000001     H   37387 37334B 37345B
 $$$994F       2 000067A6 00000001     H   37381 37363B
 $$$996F       2 000067C0 00000001     H   37416 37407B
 $$$997B       4 000067C8 00000001     I   37429 37454
 $$$997F       2 000067D8 00000001     H   37451 37429B 37453
 $$$998E       2 000067DC 00000001     H   37461 37455
 $$$998F       2 000067E8 00000001     H   37469 37457B
 $$$999B       4 000067FE 00000001     I   37494 37633
 $$$999F       2 00006858 00000001     H   37629 37494B 37632
 $CR           1 00000002 00000001 A   N   19053 19847  19849  21044
 $LF           1 00000001 00000001 A   N   19052 19843  19845  21045
 @RAR          0 00000000 FFFFFFF0     @    1159  2189   2197B
 @R0           0 00000000 FFFFFFFE     @     706   982U
 @R1           0 00000000 FFFFFFFD     @     719   978U  2195   2196   9400   9729  10057  10385  12925  13484  13497
                                                 13510  13524  13538  13544  19334  19356M 21877  22628  22635  22689
                                                 22757M 28970  28990  28993  29021  29061  29064M 29197M 29198M 29198
                                                 29199  29233M 32446  32551  35514M 36213  36312  37362  37375  37586M
                                                 37821  37827  38253  38259  39091  39106  39184  39197  39217  39230
                                                 39250  39310  39342  39406  39461  39520  39547  39592  39605  39676
                                                 39725  39853  40003  40156  41555  41568  42229  42234  42791  42855
                                                 42886  42895  43062  43263  44071  45026  45275  45999  46154  46172
                                                 46198  46265  46286  46503  47568  47707  47938  48016  48048M
 @R10          0 00000000 FFFFFFF4     @     836   942U
 @R11          0 00000000 FFFFFFF3     @     849   938U
 @R12          0 00000000 FFFFFFF2     @     862   934U
 @R13          0 00000000 FFFFFFF1     @     875   930U 16443  32653  32683  36384  36756M 47996M 48008M 48022M 48028M
                                                 48031M 48034
 @R14          0 00000000 FFFFFFF0     @     888   926U 35514  37586
 @R15          0 00000000 FFFFFFEF     @     901   922U  8235U 18543  22500  22513  22526  22539  22634  29071  29075M
                                                 29085  29196  29206  29214  29215  29233  29452  42027  42029  42032
                                                 42812U 42814M 44057U 44059M 46045U 46047M 46248M 46288  47187M 47358M
                                                 47554U 47556M
 @R2           0 00000000 FFFFFFFC     @     732   974U 18362  19356  20167  20180  20269  20578  22758  31996U 32326U
                                                 37395  38183  38249  38338M 39250M 39342M 39725M 39726M 39757M 39757
                                                 41472U 42023  42238  43568  43727  44627  44695  44765  45719  45804
                                                 45839  46818  46981
 @R3           0 00000000 FFFFFFFB     @     745   970U 11075M 11075  11076M 11077M 11078M 11079  11080  12976  12989
                                                 13066  15297U 19583  22817M 35371  39010  42837  43251U 43435U 43533U
                                                 43698U 43796U 44630  44675  44689  44759  45722  45748  45798  45840
1ACT      (ACT2025) (12:40) (15MAR04) Ordinary Symbol and Literal Cross Reference                                           Page  239
                                                 46491U 46685U 46783U 46948U 47062U 47956  47977  48008  48031
 @R4           0 00000000 FFFFFFFA     @     758   966U  8542U  8747U  9588U  9916U 10244U 10596U 11123U 11569U 18053M
                                                 39130M 39387M 39476M 39625M 39628M 39633M 39676M 39677M 39679M 39823M
                                                 39899M 43174  43201  43250  43263  43423  43434  43532  43568  43697
                                                 43727  43795  43823  43852  44003  44056  46412  46439  46490  46503
                                                 46668  46684  46782  46818  46947  46981  47061  47089  47118  47500
                                                 47553
 @R5           0 00000000 FFFFFFF9     @     771   962U  9768  10238  11436  14230U 14368  15475  19514  19530  20138
                                                 20269M 20431  20444  20453  20515  20578M 28991U 29207U 30561U 36150U
                                                 37811U 37869  44004U 45997  47501U
 @R6           0 00000000 FFFFFFF8     @     784   958U 14777U 19814U 20852U 29065  36692U 37872  37875M 37876M 37897
                                                 37899M 42180U 44153U 47401U 47796U 48039
 @R7           0 00000000 FFFFFFF7     @     797   954U  7833U  8090U  8552U  8921U  9278U  9607U  9935U 10263U 10615U
                                                 11133U 11230U 11587U 11749U 11910U 12070U 12247U 12442U 12602U 13105U
                                                 14235U 14849U 14921U 15352U 15737U 16685U 16932U 17004U 17076U 17137U
                                                 17374U 17608U 17713U 17799U 18106U 18214U 18290U 18954U 19824U 20862U
                                                 20998U 21628U 22253U 23214U 23339U 24158U 24981U 25420U 25619U 25792U
                                                 25922U 26183U 26311U 26418U 26565U 26688U 26811U 26934U 27057U 27346U
                                                 27605U 27888U 28148U 28408U 28619U 28888U 29129U 29259U 29348U 29676U
                                                 30022U 30579U 30901U 31080U 31156U 31389U 31480U 31744U 31819U 31977U
                                                 32101U 32307U 32698U 32857U 32921U 32985U 33052U 33170U 33234U 34001U
                                                 34083U 34200U 34332U 34455U 34544U 34633U 34722U 34817U 34906U 35001U
                                                 35090U 35185U 35759U 35925U 36130U 36408U 36568U 36673U 38476U 38552U
                                                 38608U 38653U 38706U 38835U 38988U 39927U 39981U 40298U 40347U 40377U
                                                 40424U 40454U 40501U 40531U 40578U 40608U 40707U 40738U 40864U 42650U
                                                 42672U 42928U 43892U 44134U 44324U 44844U 45174U 45401U 47381U 47631U
                                                 47777U 48070U
 @R8           0 00000000 FFFFFFF6     @     810   950U  8547U  8916U  9273U  9602U  9930U 10258U 10610U 11128U 11582U
                                                 12065U 12242U 12437U 14844U 15347U 16680U 17369U 17603U 18101U 18949U
                                                 19819U 20857U 21623U 22248U 23209U 23334U 24153U 24976U 25415U 26560U
                                                 26683U 26806U 26929U 27052U 28614U 28992M 29070  30574U 37940M 37973
                                                 39918U 42641U 42923U 43887U 44129U 45169U 45396U 47376U 47626U 48065U
 @R9           0 00000000 FFFFFFF5     @     823   946U
 ABSCENT       1 00000000 00000000 A   T    2205  2205
 ACLRINFO    424 00000000 FFFFFFD8     X   14944 15211  15216  15245
 ACLRWA      424 00000000 FFFFFFD8     J   14951 14979  15008U 15018M 15018  15019M 15019  15360  15362  15363
 ACLSAINF    424 00000000 FFFFFFE4     C    8575  8677   8682   8709
 ACLSWA      424 00000000 FFFFFFE4     J    8582  8615   8644U  8929   8931   8932
 ACTCHK        2 00006CC8 00000001     H   38582 38578
 ACTCLOSE      2 000006CA 00000001     H    8602  8598
 ACTDEL        2 00000B8C 00000001     H   10668 10664  12660
 ACTDISP       2 000012E2 00000001     H   13137 13133  17197
 ACTDUP        2 00000FDE 00000001     H   12296 12292
 ACTFIRST      2 000009FE 00000001     H    9988  9984  17200
 ACTFULL       2 00000D3A 00000001     H   11162 11158
 ACTGINFO      2 00000E3A 00000001     H   11620 11616  12644  17196
 ACTLAST       2 00000AC0 00000001     H   10316 10312  17211
 ACTNEXT       2 0000093C 00000001     H    9660  9656  17195
 ACTOPEN       2 00000544 00000001     H    8139  8135  17203
 ACTPEXIT      2 000010AA 00000001     H   12598 12524B 12546B
 ACTPFX        2 000011E4 00000001     H   12689 12685  21032
 ACTPICK       2 00000790 00000001     H    8972  8968  12643  17201  26442  28438
 ACTPICK       1 00000000 0000002B     T   17202 17202  26445
 ACTPREV       2 0000087C 00000001     H    9331  9327
 ACTPURGE      2 00000D72 00000001     H   11289 21034
 ACTRCVY       2 000015C6 00000001     H   14286 14282
 ACTRESET      2 0000045E 00000001     H    7902  7898
 ACTSINFO      2 00000EBA 00000001     H   11780 11776  12645
 ACTVREST      2 00000F86 00000001     H   12120 12116
1ACT      (ACT2025) (12:40) (15MAR04) Ordinary Symbol and Literal Cross Reference                                           Page  240
 ACTVSAVE      2 00000F34 00000001     H   11960 11956  12648
 ACTXPUT       2 0000103E 00000001     H   12479 12640
 ACT2025       1 00000000 00000001     R     999   997
 ADDER         1 00000000 0000004F     T   38885 38885  44906
 ADELINF     424 00000000 FFFFFFDE     X   10638 10724  10729  10748
 ADELWA      424 00000000 FFFFFFDE     J   10645 10681  10710U 11141  11143  11144
 ADUPLINE    235 00000000 FFFFFFDA     C   12270 12366  12371
 ADUPWA      235 00000000 FFFFFFDA     J   12277 12309  12338U 12450  12452  12453
 AFRSTINF    424 00000008 FFFFFFE0     X    9960 10135  10140  10169
 AFRSTTYP      8 00000000 FFFFFFE0     C    9958 10057M 10193M 10193  10228
 AFRSTWA     432 00000000 FFFFFFE0     J    9967 10001  10030U 10040M 10040  10041M 10041  10271  10273  10274
 AINABYCT      4 00000028 FFFFFFE7     F    6699 10800  13840  14555M
 AINACFLG      1 0000004D FFFFFFE7     R    6743  6747   6752   6757   6762   6767
 AINACFLN      4 0000003C FFFFFFE7     F    6735  6770   6770
 AINACHCT      4 0000002C FFFFFFE7     F    6700 13929M 13929  13958  14566M 14566
 AINACLNO      4 00000020 FFFFFFE7     F    6697  8228M 14559M
 AINAFCLR    128 0000003B FFFFFFE7         6711  8732   9559   9887  10213  10564  10772  11526  14093  14605M 14621
 AINAFDEF     32 0000003B FFFFFFE7         6721 13885
 AINAFLAG      1 0000003B FFFFFFE7     R    6707  6711   6716   6721   6726
 AINAFLNO      4 00000018 FFFFFFE7     F    6695 14495M 14495  14496  14514  14527M 14527  14541
 AINAFLOCK
              16 0000003B FFFFFFE7         6726 14169
 AINAFNAME
             128 000000A4 FFFFFFE7     C    6781 13448  13583
 AINAFNAMEL
               4 000000A0 FFFFFFE7     F    6780 13415  13453  13588
 AINAFPRT     64 0000003B FFFFFFE7         6716 14131
 AINAHOST    128 00000128 FFFFFFE7     C    6783 13706
 AINAHOSTL
               4 00000124 FFFFFFE7     F    6782 13672  13711
 AINALLNO      4 0000001C FFFFFFE7     F    6696 14533M 14534  14542
 AINALNCT      4 00000024 FFFFFFE7     F    6698 10796  13761  14552M 14660M 14660
 AINANAME      8 00000000 FFFFFFE7     C    6689  6785   6785   8226M 13324  13329  14452M 14452  14459M
 AINANXNO      4 00000010 FFFFFFE7     F    6692  8380M 10837  10999M 14579M 14579
 AINAPRNO      4 00000014 FFFFFFE7     F    6693  8487M  8741  10836  10895M 14574M 14574
 AINATITL     80 0000004E FFFFFFE7     C    6775 13355M 13355  13371  13376
 AINATYPE      8 00000008 FFFFFFE7     C    6690  8227M  9574   9902  10228  10579  14009  14043  14048  14474M 14474
                                                 14481M 14594  14606M 14677  14705M
 AINFO       424 00000000 FFFFFFE7     J    6793  8113   8213U  8224M  8224   8225M  8225   8318U  8351   8396   8458
                                                  8503   8575   8719U  9303   9525U  9632   9853U  9960  10179U 10288
                                                 10530U 10638  10758U 10866  10909  10970  11013  11253  11512U 13182U
                                                 14437U 14721  14722  14764  14944  15255U 15273
 ALASTINF    424 00000008 FFFFFFDF     X   10288 10486  10491  10520
 ALASTTYP      8 00000000 FFFFFFDF     C   10286 10385M 10544M 10544  10579
 ALASTWA     432 00000000 FFFFFFDF     J   10295 10329  10358U 10368M 10368  10369M 10369  10623  10625  10626
 ALLBL         4 00008B38 00000001     I   48037 47937B 47964B 48020B
 ALLBLS        4 000043B4 00000001     I   29243 29220B
 ANCNT1        4 00000014 FFFFFFCA     F   24190 24300M 24459  24513  24818
 ANCNT2        4 00000018 FFFFFFCA     F   24191 24310M 24471  24627  24736
 ANDELTA       4 0000000C FFFFFFCA     F   24188 24290M 24313  24452M 24462  24472  24499  24558  24613  24672  24722
                                                 24781  24804  24863  24926  24962
 ANEND         4 00000004 FFFFFFCA     F   24186 24288M 24303  24474  24610  24719
 ANEXTINF    424 00000008 FFFFFFE1     X    9632  9809   9814   9843
 ANEXTTYP      8 00000000 FFFFFFE1     C    9630  9729M  9867M  9867   9902
 ANEXTWA     432 00000000 FFFFFFE1     J    9639  9673   9702U  9712M  9712   9713M  9713   9943   9945   9946
 ANLINE        4 00000008 FFFFFFCA     F   24187 24289M 24295  24301  24491  24498  24608  24711  24717  24803
 ANLNCNT       4 00000010 FFFFFFCA     F   24189 24291M 24925
 ANNEWEND      4 00000020 FFFFFFCA     F   24193 24476M 24614  24723
 ANNEWLN       4 0000001C FFFFFFCA     F   24192 24465M 24491  24587  24711  24892  24919  24928  24963
1ACT      (ACT2025) (12:40) (15MAR04) Ordinary Symbol and Literal Cross Reference                                           Page  241
 ANSTART       4 00000000 FFFFFFCA     F   24185 24287M 24294  24464  24497  24500  24802  24805
 ANWA         36 00000000 FFFFFFCA     J   24200 24246  24275U 24286M 24286  24989  24991  24992
 AOPENINF    424 00000000 FFFFFFE5     X    8113  8203   8247   8252   8308
 AOPENWA     424 00000000 FFFFFFE5     J    8120  8152   8181U  8560   8562   8563
 APICKWA     128 00000000 FFFFFFE3     J    8963  8985   9014U  9286   9288   9289
 APREVINF    424 00000008 FFFFFFE2     X    9303  9481   9486   9515
 APREVTYP      8 00000000 FFFFFFE2     C    9301  9400M  9539M  9539   9574
 APREVWA     432 00000000 FFFFFFE2     J    9310  9344   9373U  9383M  9383   9384M  9384   9615   9617   9618
 APUREXIT      2 00000E2C 00000001     H   11578 11352B 11386B 11425B
 APURGEWA    432 00000000 FFFFFFDD     J   11263 11302  11331U 11595  11597  11598
 APURINF     424 00000000 FFFFFFDD     X   11253 11468  11473  11502
 ARCVYINF    424 00000000 FFFFFFD9     X   14258 14404M 14404  14405M 14405  14415  14420  14427
 ARCVYWA     424 00000000 FFFFFFD9     J   14265 14299  14328U 14857  14859  14860
 ASCII$CR      1 0000000D 00000001 A   N   19050 19846  19848
 ASCII$LF      1 0000000A 00000001 A   N   19049 19842  19844
 ASCTBL        1 00000000 00000000 A   T    2213  2213
 ASRBVAL       2 00000006 FFFFFFC6     H   30068 35358  35359M 35438M 37463  37464M 37484M 41730  41864  45922  45937
 ASRCOMP       2 0000000A FFFFFFC6     H   30078 36105M 37801M 42829  43149  46115  46117  46379
 ASRFBLKR      1 00000080 FFFFFFC6 A   U   30062 35709  35881  37716  37754  41611  41619  46024  46305
 ASRFLAG       1 00000004 FFFFFFC6     R   30060 35461M 35557M 35711M 35880M 35881  36011  36106M 37552M 37615M 37718M
                                                 37753M 37754  37771  37802M 41537  41611  41619  41633  42770  42815
                                                 43111  43141  43294  43347  43599  43652  45967  45991  46026  46064
                                                 46083  46105  46307  46341  46371  46534  46587  46849  46902  47209
 ASRFLIMR      1 00000020 FFFFFFC6 A   U   30064 36106  37802  42815  43139  46062  46103  46369
 ASRFONER      1 00000040 FFFFFFC6 A   U   30063 35880  36106  37753  37802  42770  43109  43292  43345  43597  43650
                                                 46059  46081  46339  46532  46585  46847  46900  47207
 ASRFPAT       1 00000008 FFFFFFC6 A   U   30066 35555  36009  37613  37769  41631  45965
 ASRFTEXT      1 00000010 FFFFFFC6 A   U   30065 35459  37550  41535  45989
 ASRPLEN       2 0000000C FFFFFFC6     H   30079 35563M 36066  37621M 37794
 ASRPTR        4 00000000 FFFFFFC6     F   30056 30546  30547M 35405M 37465M 41996  47316
 ASRSCOL       2 00000008 FFFFFFC6     H   30077 35856M 35980  37748M 37759  42782  42828  43117  43118  43147  43148
                                                 46070  46071  46347  46348  46377  46378
 ASRSTRLN      2 0000000E FFFFFFC6     H   30080 35730M 35857  36017  37737M 37749  37777  42769  46036  46163  46239
 ASRSTRNG      1 00000010 FFFFFFC6     C   30081 35462  35558  35593  35662  37511  37553  37616  37642  42791  42811
                                                 42886  43158  46044  46172  46397
 ASRWA        16 00000000 FFFFFFC6     J   30088 30523U 30548  35209U 35371  35387  35396  35404M 35404  35405M 37245U
                                                 37395  37412  37477M 37477  41524U 42682U 45905U
 AUTONUMB      2 00003428 00000001     H   24233 25648
 AVRESMSG    128 00000000 FFFFFFDB     C   12093 12175  12180
 AVRESTWA    128 00000000 FFFFFFDB     J   12100 12133  12162U 12255  12257  12258
 AVSAVEWA    128 00000000 FFFFFFDC     J   11940 11973  12002U 12078  12080  12081
 AVSAVMSG    128 00000000 FFFFFFDC     C   11933 12006M 12015  12020  12045  12050
 BADXRNG       2 00004CE0 00000001     H   31408 31302
 BAD2NDCL      4 00006902 00000001     I   37816 37778B 37796B
 BLTBL         1 00000000 00000000 A   T    2215  2215
 BLTRT         1 00008B5C 00000001     X   48085 47956  48086
 BR            7 00000007 00000001 A   #    1049  6871M  7916M  8155M  8618M  8988M  9347M  9676M 10004M 10332M 10684M
                                                 11176M 11305M 11634M 11794M 11976M 12136M 12312M 12493M 12703M 13151M
                                                 14302M 14893M 14982M 15390M 15904M 16886M 16965M 17037M 17109M 17301M
                                                 17456M 17680M 17762M 17840M 18183M 18258M 18331M 19118M 19923M 20909M
                                                 21117M 21716M 22369M 23283M 23457M 24249M 25070M 25475M 25716M 25844M
                                                 25974M 26235M 26363M 26512M 26617M 26740M 26863M 26986M 27106M 27397M
                                                 27655M 27939M 28199M 28512M 28658M 28938M 29175M 29304M 29400M 29719M
                                                 30221M 30813M 30934M 31114M 31355M 31422M 31513M 31777M 31852M 32017M
                                                 32134M 32355M 32823M 32890M 32954M 33018M 33085M 33203M 33967M 34034M
                                                 34116M 34242M 34365M 34488M 34577M 34666M 34755M 34850M 34939M 35034M
                                                 35123M 35230M 35792M 35958M 36180M 36441M 36601M 36761M 36771U 38464M
                                                 38596M 38694M 38976M 39969M 40335M 40412M 40489M 40566M 40695M 40852M
                                                 42732M 43010M 43960M 44180M 44361M 44996M 45245M 45538M 47457M 47675M
1ACT      (ACT2025) (12:40) (15MAR04) Ordinary Symbol and Literal Cross Reference                                           Page  242
                                                 47879M
 CHECKIOB      1 00000000 00000000 A   T    2261  2261
 CHECKLN       2 00003BBA 00000001     H   26496 26492
 CHKACT        2 000017D2 00000001     H   14879 14875
 CHKANCOR      4 00000014 FFFFFFCB     F   23394 23653M 23657  23717
 CHKAREA       4 00000004 FFFFFFCB     F   23390 23645M 23718  23823  23866  23932  23984M
 CHKCNT        4 00000018 FFFFFFCB     F   23395 23756  23859  23933  23937M
 CHKEND        4 0000000C FFFFFFCB     F   23392 23581M 23588  23741M 23765  23779  23804  23822  23846M
 CHKIT         4 00007B64 00000001     I   42838 42830B 42836B
 CHKLDONE      2 000033BA 00000001     H   24021 23612B 23814B
 CHKLINE       4 00000010 FFFFFFCB     F   23393 23497M 23558  23589  23650  23705  23805  23812M 23914  24144
 CHKLINES      2 000031D2 00000001     H   23441 23371  23437
 CHKLNCNT      4 00000000 FFFFFFCB     F   23389 23496M 23592  23771  23807
 CHKMIND       4 00003424 00000001     F   24174 23609  23797
 CHKSTART      4 00000008 FFFFFFCB     F   23391 23716M 23764  23780  23803  23865  23925M
 CHKWA        28 00000000 FFFFFFCB     J   23402 23454  23483U 23495M 23495  24166  24168  24169
 CHOPCOL       2 00000010 FFFFFFCE     H   21662 21793M
 CHOPFLAG      1 00000000 FFFFFFCE     R   21654 21663  21663
 CHOPINIT     18 00000000 FFFFFFCE     X   21663 21752M 21752
 CHOPLEN       2 0000000C FFFFFFCE     H   21660 21814M 21828  21924
 CHOPLIN     235 00000012 FFFFFFCE     C   21666 21798  21826  21939
 CHOPLINE      2 00002D66 00000001     H   21700 21696
 CHOPLNO       4 00000004 FFFFFFCE     F   21657 21797M 21817  21822M 21930  21968  22046  22112  22238
 CHOPNLEN      2 0000000E FFFFFFCE     H   21661 21850M 21905
 CHOPNLIN    235 00000112 FFFFFFCE     C   21669 21877M 21901
 CHOPNLNO      4 00000008 FFFFFFCE     F   21658 21824M 21892  22010  22088  22213  22239
 CHOPWA      530 00000000 FFFFFFCE     J   21677 21713  21742U 22261  22263  22264
 CKIFLPRM      2 0000663A 00000001     H   36929 37378B 37822B 38362
 CLRACTS       2 000017FE 00000001     H   14966 14962
 CLRMULT       2 00001916 00000001     H   15376 15372  17194
 CLRREUSE      2 00001C18 00000001     H   16632 16088B
 CLRTEXT       2 00001A00 00000001     H   15888 12647  15884
 CLRTPRT       4 00001C70 00000001     F   16704 17206
 CNTFIRST      4 00000000 FFFFFFCC     F   23237 23313M 23316
 CNTLAST       4 00000004 FFFFFFCC     F   23238 23317
 CNTOK         2 00006B5C 00000001     H   38293 38429
 CNTOK1        4 00006B88 00000001     I   38335 38325B
 CNTPRT        1 00006C66 00000001     R   38429 38284
 CNTRANGE      2 00003144 00000001     H   23267 23263  23362  25647
 CNTWA         8 00000000 FFFFFFCC     J   23245 23280  23309U 23347  23349  23350
 COLLOPTS      1 00000000 00000002     T    7855  7855
 COMMAND       1 00000000 00000000 A   T    2201  2201
 COMMSEG       1 00000000 00000000 A   T    2202  2202
 CP         4096 00000000 FFFFFFEC     J    6215  1190U
 CP#OOPS       1 00000007 FFFFFFEC A   U    3958  8077  11060
 CP#XSTK       1 00000010 FFFFFFEC A   U    3947  3948
 CPABYCT       4 000005B0 FFFFFFEC     F    4006 18819  18821M 18922  18924M 21277  21279M
 CPACFLG       1 000005D5 FFFFFFEC     R    4050  4054   4059   4064   4069   4074
 CPACFLN       4 000005C4 FFFFFFEC     F    4042  4077   4077
 CPACHCT       4 000005B4 FFFFFFEC     F    4007 15516  16019  16035M 16035  16131M 16131  16258  16291  19394  19395M
                                                 20321  20322M 20776  20777M 21550M 21550
 CPACLNO       4 000005A8 FFFFFFEC     F    4004  8062M 14819M 16649M 41057M 42074M
 CPACTMAX      4 00000580 FFFFFFEC     F    3987  7241   7983M  8037   8038M  8192   8193M 10403  10410  14348M 14348
                                                 14740M 14805  14806M
 CPACTNO       4 0000057C FFFFFFEC     F    3986  7281   7976M  7976   7982M  8039M  8045   8294   9084   9128M 11669
                                                 11829  13218  14341M 14341  14712M 14795M 14795  14807M 14827  15436
                                                 15474  15537  16160  22028  22983
 CPAFCLR     128 000005C3 FFFFFFEC         4018  8789M  9172   9184M 15585M 16493M
 CPAFDEF      32 000005C3 FFFFFFEC         4028  8027  16609  16609  16610  18832M
1ACT      (ACT2025) (12:40) (15MAR04) Ordinary Symbol and Literal Cross Reference                                           Page  243
 CPAFLAG       1 000005C3 FFFFFFEC     R    4014  4018   4023   4028   4033
 CPAFLNO       4 000005A0 FFFFFFEC     F    4002 18863M 18881  18888M 21417  21429M 21429  21430  21538M 21538  25337M
                                                 25337  25338  25542M 25542  25543  30415  36858
 CPAFLOCK     16 000005C3 FFFFFFEC         4033  8778  15574  16069  16479  16609  16609
 CPAFNAME    128 0000062C FFFFFFEC     C    4088 12827  12854  12944
 CPAFNAMEL
               4 00000628 FFFFFFEC     F    4087 12774  12793  12799  12859  12946
 CPAFPRT      64 000005C3 FFFFFFEC         4023 18451
 CPAICLK       4 000005B8 FFFFFFEC     F    4008 18580M
 CPAINFO     424 00000588 FFFFFFEC     X    4092  8058M  8058   8059M  8059   9054   9059   9149   9154   9421   9426
                                                  9750   9755  10078  10083  10429  10434  11677  11678  11837  11838
                                                 14258  14719  14720  14815M 14815  14816M 14816  16642M 16642  16643M
                                                 16643
 CPALLNO       4 000005A4 FFFFFFEC     F    4003 18864M 18905  18912M 21476  21482M 21483  21543M 21543  25368M 25369
                                                 25573M 25574  38488
 CPALNCT       4 000005AC FFFFFFEC     F    4005  8800M  8800   9200M  9200  14914  15596M 15596  16085M 16085  18574M
                                                 18574  18812  18814M 18843  18844M 21269  21271M 21399M 21399  30401M
                                                 30401  36849M 36849  38622
 CPANAME       8 00000588 FFFFFFEC     C    3996  4092   4092   8060M 12756  12800M 12827M 12898M 12925M 13039M 13066M
                                                 14817M 16217  16222  16648M 17168  17170
 CPANXNO       4 00000598 FFFFFFEC     F    3999  8295   8304M  8432   8489  16634  16645M
 CPAPRNO       4 0000059C FFFFFFEC     F    4000  8303M  8325   8382   8648  16633  16644M
 CPATBIG#      1 00A00000 FFFFFFEC A   U    3975 12658
 CPATBYTS      4 00000564 FFFFFFEC     F    3978  7456   8012M  8012  10799  10801M 11212  11349  11383  11404  14556
                                                 14557M 18665  18687  18816  18818M 18918  18920M 21273  21275M
 CPATCLR       4 00000568 FFFFFFEC     F    3979  7175   8005M  8005   8862   8863M  9187   9189M 10791  10793M 11422
                                                 14632  14633M 15654  15655M 16546  16547M
 CPATLIM#      1 01000000 FFFFFFEC A   U    3974 12655  21035
 CPATLINS      4 00000578 FFFFFFEC     F    3984  7390   8017M  8017  10795  10797M 14553  14554M 18807  18809M 18837
                                                 18838M 21265  21267M
 CPATMAX#      1 00100000 FFFFFFEC A   U    3976 12656  21033
 CPATMIN#      1 00080000 FFFFFFEC A   U    3977 12657
 CPATTEMP      4 00000570 FFFFFFEC     F    3981  7109   8000M  8000   8826   8828M  9228   9229M 14688  14689M 15622
                                                 15624M 16514  16516M 18603  18604M 21571  21573M
 CPATTEXT      4 0000056C FFFFFFEC     F    3980  7043   7995M  7995   8847   8849M  9250   9251M 14710  14711M 15087M
                                                 15087  15643  15645M 16535  16537M 18625  18626M 21592  21594M
 CPATYPE       8 00000590 FFFFFFEC     C    3997  8061M  8817   9217  14818M 15429  15613  16505  16635  16646M 18592
                                                 21562
 CPAUTFLG      1 000008A9 FFFFFFEC     R    4360  4364   4369   4374   4379
 CPBLKACT      4 00000748 FFFFFFEC     F    4106 10816  10829M 10829  22028  22983  31672M 31672  38087M 38087
 CPCHFLAG      1 00000B68 FFFFFFEC     R    4987  4991
 CPCLCK        8 00000338 FFFFFFEC     D    2844 18580
 CPCMNM        3 00000D24 FFFFFFEC     C    5313 28813  28839  31554  31568  36993  37019  37045  37071  37097  37123
                                                 37149  37175  38031  38045  38778
 CPCOUNT       4 00000744 FFFFFFEC     F    4104 41000M 42107  42108M
 CPDELTA       4 00000738 FFFFFFEC     F    4099 20335  20790  23625  24131  24138  24426  24441  24447  38490
 CPDFLG        1 0000084C FFFFFFEC     R    4247  4251   4256   4261   4266   4271
 CPDFLG2       1 0000084D FFFFFFEC     R    4276  4280   4285   4290   4295   4300   4305
 CPDOUB        8 00000C88 FFFFFFEC     D    5233 29196M 29249  40156M 40157M 40169  40189  40209  40229  40249  40269
                                                 44675M 44676M 44714  44789  45840M 45848M 45870
 CPDRPT        4 00000D84 FFFFFFEC     F    5675 45031M 45080M 45105M 45147M 45280M 45331M 45373M
 CPERRID       8 00000886 FFFFFFEC     C    4346 32221M 32276M 34280M 34403M 35636M 36035M 36085M 36977M 37281M 37685M
                                                 37818M 38005M 38208M 38765M 40280M 40361M 40438M 40515M 40592M 44270M
 CPEXFLG       1 00000758 FFFFFFEC     R    4116  4120
 CPEXFLG2      1 00000759 FFFFFFEC     R    4126  4135   4145
 CPEXFLG3      1 0000075A FFFFFFEC     R    4152  4156   4161
 CPEXLINE      4 0000075C FFFFFFEC     F    4169 41095M 42094M
 CPEXTFLG      1 00000E28 FFFFFFEC     R    5798  5802   5807   5812   5817   5822   5827
 CPFABORT    128 00000D5A FFFFFFEC         5564  2165M  2165   2170M  2170
1ACT      (ACT2025) (12:40) (15MAR04) Ordinary Symbol and Literal Cross Reference                                           Page  244
 CPFALL        1 00000010 FFFFFFEC A   U    5330 30844  30857  30965  30978  36951  37200
 CPFALLV       1 00000004 FFFFFFEC A   U    5331 30275  30864  30985  31146  31809  36778  37207  37223
 CPFBKCOL      2 00000754 FFFFFFEC     H    4109 22052  22087M 23007  23065M
 CPFBKLNO      4 0000074C FFFFFFEC     F    4107 22046  22088M 23001  23066M 31646  38060
 CPFCLEAR     16 00000D55 FFFFFFEC         5444  8899   8899   8900M 15060  15120  15319  15319  15320M 15972M 16048M
                                                 16114  16114  16115  16464  16671  16671  16991M 17068M
 CPFDESET      1 00000020 FFFFFFEC A   U    5396 41060  42169  42171
 CPFDESRT      1 00000010 FFFFFFEC A   U    5400 40994
 CPFDSJNT      4 00000D88 FFFFFFEC         5713 32200M 38137  38169M 38222  38322  42219  42380  44583  45693
 CPFDUMP     128 00000D55 FFFFFFEC         5429  7627
 CPFERROR     64 00000D5A FFFFFFEC         5569  2164M  2164   2169M  2169
 CPFEXPRG    128 00000D88 FFFFFFEC         5688 30297M 36900M
 CPFHIGH       1 00000040 FFFFFFEC A   U    5678 45078  45329
 CPFKEEP       8 00000D55 FFFFFFEC         5449 15033  15960  16114  16114  16671  16671  16672M 16996M 17063M
 CPFLSKIP     32 00000D88 FFFFFFEC         5698 40901M 42139M 42189M 42249M
 CPFMODS       8 00000D88 FFFFFFEC         5708 32180  36338M 37849M 38155  41080  42013
 CPFMTCH       1 00000008 FFFFFFEC A   U    5679 45145  45371
 CPFNCUR      64 00000D57 FFFFFFEC         5499 41012  42053
 CPFNLST       1 00000020 FFFFFFEC A   U    5418 28703
 CPFNONL     128 00000C7A FFFFFFEC         5097 44207M
 CPFNTEX       1 00000040 FFFFFFEC A   U    5416  5417
 CPFNTYT       1 00000080 FFFFFFEC A   U    5677 45103
 CPFNWARN      4 00000D55 FFFFFFEC         5454  8899   8899  15319  15319  15489  15992
 CPFONEL      16 00000D88 FFFFFFEC         5703 31710M 31949M 32170M 32458M 32577M 37937M 37966M 38176M 38298M
 CPFRDACT      1 00000D89 FFFFFFEC         5732 36828
 CPFRDEXE      2 00000D89 FFFFFFEC         5742 30354  36810
 CPFRDEXT      3 00000D89 FFFFFFEC         5752 30316  36792
 CPFRDRNG      1 00000D88 FFFFFFEC     R    5684  5688   5693   5698   5703   5708   5713   5718  30291M 35283M 36894M
                                                 37441M
 CPFRDSRC      1 00000D89 FFFFFFEC     R    5723  5732   5742   5752
 CPFRQUIT     16 00000D5A FFFFFFEC         5579 41484  42634M
 CPFSET        1 00000080 FFFFFFEC A   U    5370 12732
 CPFSLN        4 00000D90 FFFFFFEC     F    5756 30328M 30328  30329M 30368M 30415M 31715M 31889M 36858M 36868M 36868
                                                 36869M 36880M 37938M 37939  37968  38105M 40993  41096  41440M 42234M
                                                 42242  42252M 42337M 42337  42398  44382  44513  45632
 CPFSOME       2 00000D88 FFFFFFEC         5718 42114M 42262
 CPFSTINS      1 00000040 FFFFFFEC A   U    5395 28562
 CPFSTREP      1 00000008 FFFFFFEC A   U    5404 28584
 CPFSTRRG     64 00000D88 FFFFFFEC         5693 35289M 36937  37447M 41503  42304  45607
 CPFTYPED     16 00000477 FFFFFFEC         3621 19232  28723  29556  42281
 CPFUNUM       1 00000080 FFFFFFEC A   U    5415  5417
 CPFXDFLG      1 000007E4 FFFFFFEC     R    4194  4198   4203
 CPGFCLR      64 00000478 FFFFFFEC         3672 15948
 CPGFLG1       1 00000474 FFFFFFEC     R    3557  3561   3566   3571   3576   3581   3911   3911
 CPGFLG10      1 0000047D FFFFFFEC     R    3794  3798   3803   3808   3813   3818   3823
 CPGFLG11      1 0000047E FFFFFFEC     R    3829  3833   3838
 CPGFLG12      1 0000047F FFFFFFEC     R    3844  3848   3853   3858
 CPGFLG13      1 00000480 FFFFFFEC     R    3864  3868
 CPGFLG14      1 00000481 FFFFFFEC     R    3874  3878   3883   3888   3893   3898
 CPGFLG4       1 00000477 FFFFFFEC     R    3610  3621   3630   3639   3648   3657
 CPGFLG5       1 00000478 FFFFFFEC     R    3663  3667   3672   3677   3682   3687   3692   3697   3702
 CPGFLG6       1 00000479 FFFFFFEC     R    3708  3712   3717   3722
 CPGFLG7       1 0000047A FFFFFFEC     R    3728  3732   3737   3742   3747
 CPGFLG8       1 0000047B FFFFFFEC     R    3753  3757   3762   3767   3772
 CPGFLG9       1 0000047C FFFFFFEC     R    3778  3782   3788
 CPINIT        1 00000174 FFFFFFEC     U    2727  6184
 CPJESFLG      1 000009E1 FFFFFFEC     R    4459  4463   4468   4473   4478   4483   4488   4493   4498
 CPJESFLY      1 000009FD FFFFFFEC     R    4509  4513   4518   4523
 CPJESHFL      1 000009E0 FFFFFFEC     R    4444  4448   4453   4532   4532
1ACT      (ACT2025) (12:40) (15MAR04) Ordinary Symbol and Literal Cross Reference                                           Page  245
 CPLBKCOL      2 00000756 FFFFFFEC     H    4110 22130M 22130  22144  22156  22208M 23098  23172M
 CPLBKLNO      4 00000750 FFFFFFEC     F    4108 22112  22213M 23090  23173M 31647  38061
 CPLCNO        4 0000073C FFFFFFEC     F    4101 12392  17510M 17546M 17587M 17925M 17961M 18027M 20940M 20940  20946
                                                 22582  23564  25758  25758  25888  25888  26041M 26059  26059  26077
                                                 26077  26277  26277  41130  41181M 41298M 42074  42094  42122  45152
                                                 45379M 45619
 CPLENGTH      2 0000087E FFFFFFEC     H    4344 29596  29894
 CPLENLNO      4 00000E20 FFFFFFEC     F    5792 29622M 29814  30005M 30005
 CPLENMAX      2 00000E26 FFFFFFEC     H    5794 29634  29641M 29779  29943  30010M 30010
 CPLENWRN      2 00000E24 FFFFFFEC     H    5793 29620  29621M 29742  30000M 30000
 CPLFLG1       1 00000D50 FFFFFFEC     R    5327 30277M 30846  30859M 30866M 30967  30980M 30987M 31148M 31811M 36780M
                                                 36953  37202M 37209M 37225M
 CPLFLG10      1 00000D59 FFFFFFEC     R    5550  5554
 CPLFLG11      1 00000D5A FFFFFFEC     R    5560  5564   5569   5574   5579
 CPLFLG12      1 00000D5B FFFFFFEC     R    5585  5589
 CPLFLG14      1 00000D5C FFFFFFEC     R    5595  5599   5604   5609   5614   5619
 CPLFLG3       1 00000D52 FFFFFFEC     R    5368 12734
 CPLFLG4       1 00000D53 FFFFFFEC     R    5393 28564  28586  40994  41060  42169  42171M
 CPLFLG5       1 00000D54 FFFFFFEC     R    5412 28705
 CPLFLG6       1 00000D55 FFFFFFEC     R    5425  5429   5434   5439   5444   5449   5454
 CPLFLG7       1 00000D56 FFFFFFEC     R    5460  5464   5469   5474   5479   5484
 CPLFLG8       1 00000D57 FFFFFFEC     R    5490  5494   5499   5504   5509
 CPLFLG9       1 00000D58 FFFFFFEC     R    5515  5519   5524   5529   5534   5539   5544
 CPLLEN        2 00000C52 FFFFFFEC     H    5032 29582  29880
 CPLOCALZ      1 00000C48 FFFFFFEC     U    5017  6178   6178
 CPLSLN        4 00000D94 FFFFFFEC     F    5757 30373M 31716M 31890M 31928M 36885M 37939M 37967M 37968  38106M 38331M
                                                 38332M 41065  41067  41069M 41143  41194  41339  42037M 42198  42200
                                                 42204M 42207  42236  42240M 42242M 42352  42398  42434  42448  44423
                                                 44451  44513  44540  45650  45670
 CPMDAD        4 00000DAC FFFFFFEC     F    5764 32232M 32287M 36341  36493M 36494M 36513  36626  36649M 37852  38179M
                                                 38246M 38247  38336M 38337  42025  42233  44629  45721
 CPMDLN        4 00000DA8 FFFFFFEC     F    5763 30304M 30304  32201  32233  32237M 32256  32288  32292M 36340M 36462
                                                 36540  36544M 36622  37851M 37891M 38177M 38177  38182  38186M 41002M
                                                 42026  42228  42230  42243M 44602  44666  45712  45733
 CPMFLG        1 0000084F FFFFFFEC     R    4314  4318
 CPMODFLG      1 00000C78 FFFFFFEC     R    5045  5049   5054   5059   5064   5069
 CPNAMELN      1 00000010 FFFFFFEC A   U    3940  4187
 CPNEDPFX     10 00000E29 FFFFFFEC     X    5831  5832   5833
 CPNSCANP      4 0000008C FFFFFFEC     A    2600 16337  16370  16379  16386  16402  16440  30424  30431  30447  31019
                                                 31577  31720  31957  32041  32379  32385  32392  32407  32461  32468
                                                 32484  32580  32604  32613  32620  32636  32650  32680  33109  33116
                                                 33131  34140  34312  34435  34524  34613  34702  34797  34886  34981
                                                 35070  35165  35739  35905  36110  36222  36287  36326  36344  36351
                                                 36367  36381  36388  36548  36653
 CPNUMFLG      1 00000C79 FFFFFFEC     R    5075  5087
 CPNWLN        4 00000D8C FFFFFFEC     F    5755 41096M 41122  41130M 41143  41174  41181  41194  41232  41299M 42037
                                                 42162M 42162  42172  42191  42197M 44289
 CPOCCURS      4 00000D98 FFFFFFEC     F    5758 41001M 41089  41092M 42022  42024M
 CPORVCMD      1 00000140 FFFFFFEC     R    2609  2613   2618   2623   2628   2633   2638   2643   2648   2653   2653
                                                  2704   2704
 CPORVFLG      1 00000149 FFFFFFEC     R    2660  2664   2669   2674   2679   2684   2689   2694   2699
 CPORVWF       1 00000150 FFFFFFEC     R    2712  2716
 CPOSCAN     124 00000CA8 FFFFFFEC     X    5311 36912  37215M 37824  37893M 37909  37942  37973M 38111  38256  38311M
 CPOSCANX      4 00000CA8 FFFFFFEC     F    5244  5311   5311
 CPPRESSL      4 00000DD4 FFFFFFEC     F    5768 45034  45054M 45162  45284  45304M 45389
 CPR          11 0000000B 00000001 A   #    1113  1190U
 CPRACBAD     16 000001FC FFFFFFEC         2778  2812   2812   2813   2813
 CPRACF1       1 000001FC FFFFFFEC     R    2759  2763   2768   2773   2778   2783   2788   2793   2798   2814
 CPRACPSW     32 000001FC FFFFFFEC         2773  2811   2811   2813   2813
1ACT      (ACT2025) (12:40) (15MAR04) Ordinary Symbol and Literal Cross Reference                                           Page  246
 CPRACUND     64 000001FC FFFFFFEC         2768  2811   2811   2812   2812
 CPRCVCUR      4 00000730 FFFFFFEC     A    4095  4097   4097
 CPRFLG        1 000008AA FFFFFFEC     R    4385  4389   4394   4399   4404   4409   4414
 CPRG16       32 00000524 FFFFFFEC     X    3934  8078  11061  11085
 CPS         254 00000344 FFFFFFEC     X    3529  3532   3533   3535   3535
 CPSACCT       5 000003B4 FFFFFFEC     C    3128  3291   3291
 CPSAMCOD      1 00000A22 FFFFFFEC     R    4581  4589   4599   4609   4618   4627   4636   4646   4655   4664
 CPSAMFLG      1 00000A21 FFFFFFEC     R    4541  4545   4550   4555   4560   4565   4570   4575   4686   4686
 CPSAVE        4 00000C9C FFFFFFEC     A    5238 37970
 CPSCNFLG      1 00000CD0 FFFFFFEC     R    5257  5268   5277   5288
 CPSCNF2       1 00000CD1 FFFFFFEC     R    5293  5297
 CPSCNMAX      1 00000014 FFFFFFEC A   U    5309  5310
 CPSCRI        2 00000434 FFFFFFEC     H    3518  3523   3523
 CPSEG        60 00000050 FFFFFFEC     X    2598  6921   6946   6965   6996   7014   7033   7055   7080   7099   7121
                                                  7146   7165   7187   7212   7231   7253   7271   7293   7311   7336
                                                  7361   7380   7402   7427   7446   7468   7493   7518   7537   7562
                                                  7587   7612   7657   7671   7696   7738   7772   7797   7815  13252
                                                 13278  13308  13337  13384  13434  13569  13623  13650  13691  13719
                                                 13751  13776  13794  13830  13852  13870  13905  13948  13970  13988
                                                 14028  14056  14074  14113  14151  14189  14219  15106  15140  15162
                                                 16150  16172  16202  16230  16248  16270  16325  16920  18425  27173
                                                 27235  27288  27467  27523  27724  27810  28009  28065  28269  28325
                                                 28746  28775  28793  28873  29505  29534  29791  29809  29854  29872
                                                 29916  29934  29955  29988  31462  34068  35629  36972  37678  38000
                                                 38203  38760  38797  38815  42484  42506  42582  42616  44261  44284
                                                 44313  44406  44442  44463  44481  44535  44564  44621  44654  44709
                                                 44738  44779  44801  44819
 CPSEGCOD      1 00000050 FFFFFFEC     R    2515  2524   2534   2544   2554   2564   2574   2584
 CPSEGLENF
               4 0000005C FFFFFFEC     A    2590 44221M 44221  44236
 CPSEGMRKF
               4 00000058 FFFFFFEC     A    2589 44236
 CPSFL         1 00000384 FFFFFFEC     R    2866  2870   2875   2880   2885   2890
 CPSFLG        1 000003F8 FFFFFFEC     R    3406  3410   3415   3420   3425   3430   3435   3440   3445
 CPSFLG2       1 000003F9 FFFFFFEC     R    3451  3455   3460   3465
 CPSFL2        1 00000385 FFFFFFEC     R    2896  2900   2905   2910   2915
 CPSFL3        1 00000386 FFFFFFEC     R    2921  2925   2930   2935
 CPSFL4        1 00000387 FFFFFFEC     R    2941  2945   2950   2955
 CPSFL5        1 00000388 FFFFFFEC     R    2961  2965   2970   2975
 CPSGRP        2 000003B7 FFFFFFEC     C    3130 13524
 CPSKAFL       1 000003BF FFFFFFEC     R    3262  3266   3271   3276   3281   3286
 CPSKIFL       1 000003BE FFFFFFEC     R    3217  3221   3226   3231   3236   3241   3246   3251   3256
 CPSOF         1 000001F8 FFFFFFEC     X    2749  2751   2751
 CPSOFLAG      1 00000416 FFFFFFEC     R    3476  3480   3485   3490   3495   3500
 CPSOPST       4 000003C4 FFFFFFEC     F    3296  3525   3525
 CPSPORT       8 00000354 FFFFFFEC     C    2860  2980   2980
 CPSPROJ       8 000003F0 FFFFFFEC     C    3402 13811
 CPSQFLG       1 000003EC FFFFFFEC     R    3325  3329
 CPSSFLG       1 000003BB FFFFFFEC     R    3135  3139   3144   3149   3154   3159   3164
 CPSSTART      4 00000344 FFFFFFEC     F    2852  2856   2856   3292   3292   3397   3397   3529   3529
 CPSSTAT       1 0000038F FFFFFFEC     R    3072  3076   3081   3086   3091   3096   3101   3106
 CPSTACF       1 000003BC FFFFFFEC     R    3170  3174   3179   3184   3189   3194   3199   3204   3209
 CPSTAD        4 00000DA4 FFFFFFEC     F    5762 30284M 30284  30525  30555M 35297  35406M 35813  35979  37434M 41516
                                                 45897
 CPSTART       4 00000000 FFFFFFEC     C    2488  6182   6186
 CPSTFLAG      1 000003EA FFFFFFEC     R    3303  3307   3312   3317
 CPSTLNO       4 00000740 FFFFFFEC     F    4102 18926M 28688  28751
 CPSTYPE       1 0000038C FFFFFFEC     R    2985  2994   3004   3014   3024   3034   3044   3054   3064
 CPSUFLG       1 000003EE FFFFFFEC     R    3340  3344   3349   3354   3359   3364   3369   3374   3379
1ACT      (ACT2025) (12:40) (15MAR04) Ordinary Symbol and Literal Cross Reference                                           Page  247
 CPSUFLG2      1 000003EF FFFFFFEC     R    3385  3389   3394
 CPSUSER       3 000003B4 FFFFFFEC     C    3129 13538
 CPSVPGM       8 0000039C FFFFFFEC     C    3118  3124   3124
 CPS1ST        4 0000038C FFFFFFEC     F    2982  3527   3527
 CPTELL        4 00000C94 FFFFFFEC     F    5237 36912M 37215  37824M 37893  37909M 37940  37942M 38111M 38256M 38311
 CPTEMPP#      1 0000005F FFFFFFEC A   U    4435  4437
 CPTEXT       32 00000484 FFFFFFEC     X    3918  6899   6974   7705   7942   7951   7958   8046   8196   8286   9106
                                                  9131   9155   9443   9771  10097  10448  11054  11439  11709  11722
                                                 11732  11869  11890  12181  12519  12541  14369  14392  14421  14497
                                                 14535  14547  14745  14765  14828  17492  17893  17907  18081  18723
                                                 20947  21168  21302  21354  21431  21484  23315  25249  25339  25370
                                                 25496  25544  25575  45081
 CPTRMFL1      1 00000C7A FFFFFFEC     R    5093  5097   5102   5107   5231   5231
 CPTRMFL2      1 00000C7B FFFFFFEC     R    5113  5117   5122   5127   5132   5137   5142
 CPTRMFL3      1 00000C7C FFFFFFEC     R    5148  5152   5157   5162   5167   5172   5177   5182
 CPTRMFL4      1 00000C7D FFFFFFEC     R    5188  5192   5197   5202   5207   5212   5217   5222
 CPUSED        1 00000FBC FFFFFFEC A   U    6182  6183
 CPVACURS      8 00000AF0 FFFFFFEC     D    4960  4961   4962
 CPVCOL        2 00000ADA FFFFFFEC     H    4952 21974  22009M 22906  22964M
 CPVCURS       8 00000AE0 FFFFFFEC     D    4954  4955   4956
 CPVFHIDE      8 00000AC8 FFFFFFEC         4779 31659  38074
 CPVFLAG       1 00000AC8 FFFFFFEC     R    4755  4759   4764   4769   4774   4779
 CPVFLAG2      1 00000AC9 FFFFFFEC     R    4785  4789   4794   4799   4804   4809   4814
 CPVFLAG3      1 00000ACA FFFFFFEC     R    4820  4824   4829   4834   4839   4844   4849
 CPVFLAG4      1 00000ACB FFFFFFEC     R    4855  4859   4864   4869
 CPVFMARK      8 00000AC9 FFFFFFEC         4809 22094M 22219M 23072M 23179M
 CPVFPAGE    128 00000AC8 FFFFFFEC         4759 29571
 CPVLFLAG      1 00000ACE FFFFFFEC     R    4924  4928   4933   4938
 CPVLNO        4 00000ADC FFFFFFEC     F    4953 21968  22010M 22900  22965M
 CPVMODE       1 00000ACC FFFFFFEC     R    4877  4881   4886   4891   4896   4901   4906   4911   4916
 CPVTWID       2 00000AD0 FFFFFFEC     H    4944  4947   4947
 CPWK1         4 00000D60 FFFFFFEC     F    5628  5643   5666
 CPWK2         4 00000D64 FFFFFFEC     F    5629  5644   5658
 CPWK3         4 00000D68 FFFFFFEC     F    5630  5645   5659
 CPWK4         4 00000D6C FFFFFFEC     F    5631  5646   5660
 CPWK5         4 00000D70 FFFFFFEC     F    5632  5648   5653   5661
 CPWK6         4 00000D74 FFFFFFEC     F    5633  5649   5654   5662   5669   5671
 CPWK7         4 00000D78 FFFFFFEC     F    5634  5647   5663
 CPWRNCNT      2 000008B6 FFFFFFEC     H    4420 15477  15980
 CPXFLAG       1 000007FD FFFFFFEC     R    4222  4226
 CPXSTATE      4 000007F8 FFFFFFEC     F    4216  4229   4229
 CTXACFLG      1 0000004D FFFFFFD7     R   15820 15824  15829  15834  15839  15844
 CTXACFLN      4 0000003C FFFFFFD7     F   15812 15847  15847
 CTXAFLAG      1 0000003B FFFFFFD7     R   15784 15788  15793  15798  15803
 CTXANAME      8 00000000 FFFFFFD7     C   15766 15862  15862
 CTXANXNO      4 00000010 FFFFFFD7     F   15769 16634M 16645
 CTXAPRNO      4 00000014 FFFFFFD7     F   15770 16633M 16644
 CTXATYPE      8 00000008 FFFFFFD7     C   15767 16635M 16646
 CTXTWA      424 00000000 FFFFFFD7     J   15870 15901  15930U 16693  16695  16696
 CV         4016 00000000 FFFFFFEE     J    2391  1199U
 CVABORT       4 000007DA FFFFFFEE     I    2170  7701B 38824B 41454B
 CVABSENT      4 000007F0 FFFFFFEE     I    2180 38243B
 CVABSRTN      4 0000088C FFFFFFEE     V    2205  2180
 CVABTMSG      4 000007CC FFFFFFEE     I    2165  8704B 12574B 12592B 15045B 18400B 18436B 18463B 18704B 18774B 23523B
 CVBLANKS    235 000004D8 FFFFFFEE     C    1985  8272  12006  12800  12898  13039  13199  13293  16187  18053  41229
                                                 41268
 CVBRMSK       1 00000751 FFFFFFEE     X    2121  2122   2123
 CVCFLAG       1 00000A00 FFFFFFEE     R    2286  2290   2295   2300   2305   2310
 CVCHKST       8 000009F0 FFFFFFEE     D    2276  2366   2366
1ACT      (ACT2025) (12:40) (15MAR04) Ordinary Symbol and Literal Cross Reference                                           Page  248
 CVCHKST2      8 00000E28 FFFFFFEE     D    2369  2372   2372
 CVCOMRTN      4 0000087C FFFFFFEE     V    2201  2171
 CVCURJCB      4 000001C8 FFFFFFEE     A    1470 41386
 CVDBGFLG      1 000004CC FFFFFFEE     R    1975  1979
 CVEB7TBL      4 000008C0 FFFFFFEE     V    2217 19347  20257  20566
 CVENT         4 0000074C FFFFFFEE     I    2119  6871B  7916B  8155B  8618B  8988B  9347B  9676B 10004B 10332B 10684B
                                                 11176B 11305B 11634B 11794B 11976B 12136B 12312B 12493B 12703B 13151B
                                                 14302B 14893B 14982B 15390B 15904B 16886B 16965B 17037B 17109B 17301B
                                                 17456B 17680B 17762B 17840B 18183B 18258B 18331B 19118B 19923B 20909B
                                                 21117B 21716B 22369B 23283B 23457B 24249B 25070B 25475B 25716B 25844B
                                                 25974B 26235B 26363B 26512B 26617B 26740B 26863B 26986B 27106B 27397B
                                                 27655B 27939B 28199B 28512B 28658B 28938B 29175B 29304B 29400B 29719B
                                                 30221B 30813B 30934B 31114B 31355B 31422B 31513B 31777B 31852B 32017B
                                                 32134B 32355B 32823B 32890B 32954B 33018B 33085B 33203B 33967B 34034B
                                                 34116B 34242B 34365B 34488B 34577B 34666B 34755B 34850B 34939B 35034B
                                                 35123B 35230B 35792B 35958B 36180B 36441B 36601B 36761B 38464B 38596B
                                                 38694B 38976B 39969B 40335B 40412B 40489B 40566B 40695B 40852B 42732B
                                                 43010B 43960B 44180B 44361B 44996B 45245B 45538B 47457B 47675B 47879B
 CVENTBR       2 00000750 FFFFFFEE     I    2120  2121
 CVERRMSG      4 000007C8 FFFFFFEE     I    2164 30482B 30508B 30888B 31009B 31382B 31473B 31684B 32226B 32281B 32513B
                                                 32850B 33045B 33994B 34285B 34408B 35272B 35641B 35850B 36046B 36096B
                                                 36486B 36531B 36644B 37190B 37286B 37690B 37819B 37929B 38012B 38099B
                                                 39034B 40285B 40366B 40443B 40520B 40597B 41323B
 CVERROR       4 000007D6 FFFFFFEE     I    2169  2185B
 CVEXIRTN      4 0000077C FFFFFFEE     V    2149  2145
 CVEXNO        1 00000000 0000002F     T   21028 21028  31186  44914
 CVFCHRKBPR
               8 000004C9 FFFFFFEE         1890  1906   1906
 CVFCHRKBSE
               4 000004C9 FFFFFFEE         1895  1906   1906
 CVFCHRKCPR
               2 000004C9 FFFFFFEE         1912  1928   1928
 CVFCHRKCSE
               1 000004C9 FFFFFFEE         1917  1928   1928
 CVFCHRUBPR
             128 000004C9 FFFFFFEE         1846  1862   1862
 CVFCHRUBSE
              64 000004C9 FFFFFFEE         1851  1862   1862
 CVFCHRUCPR
              32 000004C9 FFFFFFEE         1868  1884   1884
 CVFCHRUCSE
              16 000004C9 FFFFFFEE         1873  1884   1884
 CVFL          1 000004C4 FFFFFFEE     R    1642  1646   1651   1656   1661   1666   1671   1676   1681
 CVFL2         1 000004C5 FFFFFFEE     R    1687  1691   1696   1701   1706   1711   1716   1721   1726
 CVFL3         1 000004C6 FFFFFFEE     R    1732  1736   1741   1746   1751   1756   1761   1766   1771
 CVFL4         1 000004C7 FFFFFFEE     R    1777  1781   1786   1791   1796   1801   1806   1811
 CVFL5         1 000004C8 FFFFFFEE     R    1817  1821   1826   1831   1836
 CVFL6         1 000004C9 FFFFFFEE     R    1842  1846   1851   1863   1868   1873   1885   1890   1895   1907   1912
                                                  1917   1929
 CVHEAP#       1 00000200 FFFFFFEE A   U    1548  1549
 CVHILNO       4 00000160 FFFFFFEE     A    1435 17510  17546  17925  17961  23576  23730  23736  23835  23841  23968
                                                 23974
 CVINVRTN      4 00000888 FFFFFFEE     V    2204  2174
 CVJESFLG      1 000004CA FFFFFFEE     R    1935  1939
 CVLNKRGS      4 00000780 FFFFFFEE     F    2151  2126M  2152   8371M  8416M  8478M  8523M  9034M  9507M  9835M 10161M
                                                 10512M 10887M 10930M 10991M 11034M 11494M 11552M 15236M 21322M 21374M
                                                 21451M 21504M 23546M 24011M 24043M 24335M 24538M 24567M 24596M 24652M
                                                 24681M 24761M 24790M 24843M 24872M 24901M 24952M 25149M 25291M 25359M
                                                 25390M 25564M 25595M
1ACT      (ACT2025) (12:40) (15MAR04) Ordinary Symbol and Literal Cross Reference                                           Page  249
 CVLNKRTN      4 000007B0 FFFFFFEE     U    2152  2141M
 CVLOCK1       1 00000088 FFFFFFEE     R    1293  1297   1302
 CVLOCK2       1 00000089 FFFFFFEE     R    1307  1311
 CVLOCK3       1 0000008A FFFFFFEE     R    1316  1320
 CVLOCK4       1 0000008B FFFFFFEE     R    1325  1329
 CVLOGMOD      1 00000068 FFFFFFEE     R    1280  1284
 CVMACH        1 00000067 FFFFFFEE     R    1240  1244   1249   1254   1259   1264   1269   1274
 CVMAXLNO      4 0000015C FFFFFFEE     A    1434 12412  14514  14533  17540  17955  18388  21482  23511  25368  25573
                                                 27448  27990  28250  28970  30329  36869  41311  42352
 CVMILRTN      4 00000884 FFFFFFEE     V    2203  2183
 CVNEXT        4 000007DE FFFFFFEE     I    2171  7630B  7825B 42622B
 CVNOACTN      4 000007EA FFFFFFEE     I    2177 16356B 17130B
 CVNOARTN      4 00000890 FFFFFFEE     V    2206  2177
 CVNVALID      4 000007E4 FFFFFFEE     I    2174 36925B 37262B 37317B 37516B 37558B 37752B 37755B 37760B 37826B 37871B
                                                 37873B 37898B 38158B 38209B 38258B 38289B 38312B
 CVNWDATE      4 00000608 FFFFFFEE     F    2008  2012   2012
 CVNWMPG#      1 00000008 FFFFFFEE A   U    2010  2011
 CVONE         4 000004D0 FFFFFFEE     F    1983 12400  23559  24302  24609  24718  24920  25188  41068
 CVPFXRTN      1 00000000 00000000 A   T    2149  2149
 CVPGFLAG      1 00000A01 FFFFFFEE     R    2316  2320   2325   2330
 CVPIOSZ       1 00004F80 FFFFFFEE A   U    1379  1381
 CVPPDBQH      4 0000009C FFFFFFEE     A    1337  1338
 CVPSFNO       1 000003E9 FFFFFFEE A   N    1501  1503
 CVPSLNO       1 000007CF FFFFFFEE A   N    1502  1503
 CVPXSZ        1 00000008 FFFFFFEE A   U    1380  1381
 CVR          12 0000000C 00000001 A   #    1126  1199U
 CVRCPUTM      4 000006FC FFFFFFEE     A    2084 11109  11111M
 CVRKEY        1 00000008 FFFFFFEE A   U    2074  2075
 CVSEGRTN      4 00000880 FFFFFFEE     V    2202  2166
 CVSTACK#      1 00000080 FFFFFFEE A   U    1540  1541
 CVSTART       4 00000000 FFFFFFEE     C    1213  2384
 CVTRC         4 00000768 FFFFFFEE     I    2141  2127B  8372B  8417B  8479B  8524B  9035B  9508B  9836B 10162B 10513B
                                                 10888B 10931B 10992B 11035B 11495B 11553B 15237B 21323B 21375B 21452B
                                                 21505B 23547B 24012B 24044B 24336B 24539B 24568B 24597B 24653B 24682B
                                                 24762B 24791B 24844B 24873B 24902B 24953B 25150B 25292B 25360B 25391B
                                                 25565B 25596B
 CVTRCRTN      4 00000778 FFFFFFEE     V    2148  2142
 CVUPPTBL      4 000008A8 FFFFFFEE     V    2211 35502  37574  41556  45998
 CVUSFNO       1 00000001 FFFFFFEE A   N    1508  1510
 CVUSLNO       1 000003E7 FFFFFFEE A   N    1509  1510
 CVVOL#        1 00000005 FFFFFFEE A   U    2359  2360
 CVWTOFLG      1 000004CB FFFFFFEE     R    1945  1949   1954   1959   1964   1969
 CXRABORT      2 00001ECE 00000001     H   17095 16776  16791  16836  16851
 CXRCLEAR      2 00001E66 00000001     H   16951 16731  16746  16761
 CXRKEEP       2 00001E9A 00000001     H   17023 16806  16821
 CXRLOOP       2 00001B14 00000001     H   16343 16428B
 CXRMSG        2 00001E28 00000001     H   16872 16716  16866
 DEBUGSG       1 00000000 00000000 A   T    2102  2102
 DECB          1 00000000 FFFFFFE8 A   U    6657  6649
 DELRANGE      2 00002B9E 00000001     H   21101 21097  23373
 DEQSTR        1 00000000 00000046     T   36714 36714  38876  40638
 DESABORT      1 00000004 FFFFFFEC A   U    6198 41363  41424
 DESPOT        2 00007578 00000001     H   40681 40677
 DESPOTRE      4 0000765C 00000001     I   41060 40995B
 DESPOTR1      2 00007678 00000001     H   41072 41066B
 DESRTRN       1 00000080 FFFFFFEC A   U    6191 41449  42621
 DETAB         1 00000000 00000033     T   21048 21048
 DETALL        2 00006708 00000001     H   37220 38397
 DETSCAN       6 00006628 00000001     I   36912 37744B 37757B 37804B
1ACT      (ACT2025) (12:40) (15MAR04) Ordinary Symbol and Literal Cross Reference                                           Page  250
 DETXIT        2 0000670C 00000001     I   37227 37216B 37957B 38126B
 DEV          12 00000000 FFFFFFEB     J    4740  4748
 DEVMAX#       1 00000002 FFFFFFEC A   U    4691  4748
 DEVTYPE       1 00000001 FFFFFFEB     R    4708  4717   4727
 DOEXEC        4 0000768E 00000001     I   41095 41051B
 DOTTBL        1 00000000 00000000 A   T    2218  2218
 DOXLINE2      2 00004F90 00000001     H   32341 33917
 DRALL         2 000049E6 00000001     H   31100 30627
 DRCOL         4 000056D0 00000001     F   33543 36718
 DRCOL2        4 000057C0 00000001     F   33634 36721
 DRCOL3        4 000058B0 00000001     F   33725 36722
 DRDONE        2 00005C22 00000001     H   34102 33630  33721  33797  33905
 DRENCFLG      1 00000F9F FFFFFFEC     R    6146  6150   6155   6160   6165   6170
 DRENPROT      1 00000F9E FFFFFFEC     R    6133  6141
 DRFAND      128 00000000 FFFFFFC5        30138 34295M 34395  35325
 DRFCTEXT     64 00000001 FFFFFFC5        30162 34692M 34787M 35449
 DRFHEX       32 00000001 FFFFFFC5        30167 34876M 34971M 35587
 DRFIN        32 00000000 FFFFFFC5        30148 34514M 35260
 DRFLAG        1 00000000 FFFFFFC5     R   30134 30138  30143  30148
 DRFLAG2       1 00000001 FFFFFFC5     R   30153 30157  30162  30167  30172  34302M 34425M
 DRFLAG3       1 00000002 FFFFFFC5     R   30177 30181  30186
 DRFNEEDS    128 00000002 FFFFFFC5        30181 30470  34308M 34431M 34609M 34698M 34793M 34882M 34977M 35066M 35161M
                                                 35296M
 DRFNEEDX     64 00000002 FFFFFFC5        30186 30496  31141M 31540M 31804M 31879M 34520M
 DRFNOT      128 00000001 FFFFFFC5        30157 34603M 34781M 34965M 35149M 35426
 DRFOR        64 00000000 FFFFFFC5        30143 34272  34418M 35346
 DRFPAT       16 00000001 FFFFFFC5        30172 35060M 35155M 35381  35545
 DRIN          4 00005A40 00000001     F   33878 36726
 DRNGFRST      4 00000000 FFFFFFCF     F   21071 21147M 21166  21199  21295  21301  21348  21417  21606
 DRNGLAST      4 00000004 FFFFFFCF     F   21072 21295  21349  21476
 DRNGTEMP      4 00000008 FFFFFFCF     F   21073 21166M 21167  21199
 DRNGWA       12 00000000 FFFFFFCF     J   21080 21114  21143U 21636  21638  21639
 DROLIST       4 00005978 00000001     F   33801 36723
 DROLIST2      4 000059C8 00000001     F   33832 36729
 DRPRT         4 00004710 00000001     F   30600 31201
 DRSTR         4 000053D8 00000001     F   33255 36709
 DRSTR2        4 00005568 00000001     F   33406 36711
 DRSTR3        4 00005658 00000001     F   33497 36712
 DRWA          3 00000000 FFFFFFC5     J   30195 30218  30247U 30251  30259U 30267M 30267  30587  30589  30590
 DSNON        40 00000E90 FFFFFFEC     C    5866  5867
 DSNWADSN     44 00000E5C FFFFFFEC     C    5853  5854   5855   5856   5865   5873   6104   6110   6112   6118   6121
                                                  6123   6126   6175
 DSNWAF4       1 00000F37 FFFFFFEC     R    5921  5925   5930   5935   5940   5945   5950   5955   5960
 DSNWAF5       1 00000F38 FFFFFFEC     R    5966  5970   5975   5980   5985   5990   5995   6000   6005
 DSNWAF6       1 00000F39 FFFFFFEC     R    6011  6015   6020   6025   6030   6035   6040   6045   6050
 DSNWAF7       1 00000F3A FFFFFFEC     R    6056  6060   6065   6070   6075
 DSNXG         1 00000004 FFFFFFEC A   U    5858  5860
 DSNXGL        1 00000003 FFFFFFEC A   U    5859  5860
 DSNXU         1 00000007 FFFFFFEC A   U    5860  5862
 DSNXUL        1 00000004 FFFFFFEC A   U    5861  5862
 DSSIZ         1 00000108 FFFFFFEC A   U    6104  6112   6121   6126
 DTB           1 00000000 00000051     T   40648 40648
 DUNTWO        4 000079F8 00000001     I   42243 42239B 42241B
 DUNWUN        6 000079F2 00000001     I   42242 42235B 42237B
 EBCTBL        1 00000000 00000000 A   T    2214  2214
 EBCTBL7       1 00000000 00000000 A   T    2217  2217
 ECBLIST       1 00000000 00000000 A   T    2077  2077
 EDITCK        2 00004276 00000001     H   28924 28920
 EDITERR       4 00004334 00000001     I   29115 28980B
1ACT      (ACT2025) (12:40) (15MAR04) Ordinary Symbol and Literal Cross Reference                                           Page  251
 EDITEXIT      2 0000433E 00000001     H   29125 29080B
 ENDLNO        2 00006C74 00000001     H   38450 28435  38446
 ENDLNO        1 00000000 00000031     T   21041 21041
 EPARTBL       1 00000000 00000000 A   T    2209  2209
 EVALA         2 00008AD8 00000001     I   47987 47985B 48026B
 EVALB         4 00008B0E 00000001     I   48022 47988B
 EVALC         2 00008AEA 00000001     I   47993 48035B
 EVALD         2 00008B1C 00000001     I   48027 47994B
 EXCOUNT       2 0000531C 00000001     H   33071 32788
 EXDSYMLN      2 00004EE0 00000001     H   32120 31318
 EXECHK        1 00000000 0000003C     T   31197 31197  38867
 EXFRST        1 00000000 00000053     T   44894 44894  45427
 EXFRSTLN      1 00000000 0000003D     T   31198 31198  38868
 EXLASTLN      1 00000000 0000003E     T   31199 31199  38869
 EXLOCATE      2 0000830C 00000001     H   45229 45225
 EXRALL        2 00004DE4 00000001     H   31763 31272
 EXRBLK        2 00004D1E 00000001     H   31499 30657  31257
 EXRDONE       2 00004E7E 00000001     H   32003 31333
 EXRNG         4 00004B94 00000001     F   31230 36710
 EXRNGDIS      4 00004C5C 00000001     F   31306 33916
 EXRPRTA       1 00006C36 00000001     R   38403 37249
 EXRPRT0       1 00006C0B 00000001     R   38389 36902
 EXRPRT1       1 00006C22 00000001     R   38397 37918
 EXRPRT2       1 00006C49 00000001     X   38412 38211
 EXRPRT3       1 00006C5E 00000001     X   38424 38121
 EXSLPRT       1 00006C51 00000001     R   38417 37952
 EXSYMLN       2 00004E18 00000001     H   31838 30642  31287
 EXTREAD       1 00000000 00000054     T   44895 44895
 EX2COUNT      4 000051DC 00000001     F   32761 33928
 EX2LINE       2 00005288 00000001     H   32876 32742
 EX2SYMLN      4 00005164 00000001     F   32715 33924
 FINISH        6 00007A04 00000001     I   42252 42222B 42231B
 FINITO        4 00007ADE 00000001     I   42621 41487B 42265B 42284B 42361B
 FINITO1       2 00007AE8 00000001     H   42629 41461B
 FINMOD        4 0000697A 00000001     I   37891 37867B
 FINUNP        4 000043B8 00000001     I   29249 29209B
 FREERG        1 00000000 0000000D     T   12629 12629
 FRNGTYP       1 000000C0 FFFFFFEC A   U    6200 38248  38332  38338  41065  42198  42236  42240  42432  44421  44676
                                                 44687  44757  45648  45746  45796  45846
 FSR           0 00000000 00000001 A   #    1036  6866   7841M  7911   8098M  8149   8560M  8612   8929M  8982   9286M
                                                  9341   9615M  9670   9943M  9998  10271M 10326  10623M 10678  11141M
                                                 11171  11238M 11299  11595M 11629  11757M 11789  11918M 11970  12078M
                                                 12130  12255M 12306  12450M 12488  12610M 12698  13113M 13146  14243M
                                                 14296  14857M 14888  14929M 14976  15360M 15385  15745M 15898  16693M
                                                 16881  16940M 16960  17012M 17032  17084M 17104  17145M 17295  17362M
                                                 17382M 17450  17616M 17675  17706M 17721M 17757  17792M 17807M 17834
                                                 18094M 18114M 18178  18222M 18253  18298M 18325  18962M 19112  19832M
                                                 19917  20870M 20904  21006M 21111  21636M 21710  22241M 22261M 22363
                                                 23202M 23222M 23277  23327M 23347M 23451  24146M 24166M 24243  24965M
                                                 24989M 25064  25234M 25327M 25428M 25470  25532M 25627M 25711  25785M
                                                 25800M 25839  25915M 25930M 25969  26176M 26191M 26230  26304M 26319M
                                                 26358  26411M 26426M 26506  26573M 26611  26671M 26696M 26734  26794M
                                                 26819M 26857  26917M 26942M 26980  27040M 27065M 27101  27339M 27354M
                                                 27392  27613M 27650  27896M 27934  28156M 28194  28416M 28506  28627M
                                                 28653  28896M 28933  29078M 29115M 29137M 29170  29252M 29267M 29299
                                                 29341M 29356M 29395  29668M 29684M 29714  30030M 30215  30587M 30808
                                                 30909M 30929  31088M 31109  31164M 31350  31397M 31417  31488M 31508
                                                 31752M 31772  31827M 31847  31985M 32012  32109M 32129  32315M 32350
                                                 32691M 32706M 32818  32865M 32885  32913M 32929M 32949  32993M 33013
1ACT      (ACT2025) (12:40) (15MAR04) Ordinary Symbol and Literal Cross Reference                                           Page  252
                                                 33060M 33080  33162M 33178M 33198  33242M 33962  34009M 34029  34091M
                                                 34111  34208M 34237  34340M 34360  34463M 34483  34552M 34572  34641M
                                                 34661  34730M 34750  34825M 34845  34914M 34934  35009M 35029  35098M
                                                 35118  35193M 35225  35767M 35787  35933M 35953  36138M 36175  36416M
                                                 36436  36576M 36596  36681M 38459  38517M 38563M 38591  38664M 38689
                                                 38846M 38970  39911M 39938M 39964  40287M 40309M 40330  40388M 40407
                                                 40465M 40484  40542M 40561  40619M 40690  40749M 40846  42661M 42726
                                                 42936M 43004  43900M 43954  44122M 44142M 44175  44332M 44356  44852M
                                                 44990  45182M 45239  45409M 45532  47369M 47389M 47451  47619M 47639M
                                                 47670  47785M 47873  48058M 48078M
 GENOK         4 00007300 00000001     I   40287 40172B 40192B 40212B 40232B 40252B 40272B
 GENTBL       16 00008064 00000001     C   44865 43074  47808
 GETCPU        1 00000000 00000017     T   12653 12653
 GETGEN        2 0000723E 00000001     H   39955 40645
 GETHEAP       1 00000000 00000045     T   36713 36713  38875  45423
 GETLBASE      2 00002206 00000001     H   17824 21022
 GETLINE       2 000021D2 00000001     H   17748 17744  23370  26444  44893  45424
 GETLINEX      2 000021A0 00000001     H   17666 12662  17662  26440
 GETLINFO      2 000020D8 00000001     H   17285 17281
 GETLNO        2 0000211C 00000001     H   17440 17436  25642
 GETNEXT       2 00007698 00000001     H   41104 42205B 42208B
 GETVINFO      1 00000000 00000012     T   12641 12641
 GLINEWA      20 00000000 FFFFFFD4     J   17640 17837  17866U 18114  18116  18117
 GLINFOWA      8 00000000 FFFFFFD6     J   17260 17298  17327U 17382  17384  17385
 GLINLNO       4 00000004 FFFFFFD4     F   17632 17873M 17908  17955  18003
 GLINORIG      4 00000000 FFFFFFD4     F   17631 17872M 18015
 GLINRGX3      4 00000008 FFFFFFD4     F   17633 17891M 17899  18079M 18086
 GLNOLNO       4 00000004 FFFFFFD5     F   17412 17487M 17490M 17493  17540  17563
 GLNOORIG      4 00000000 FFFFFFD5     F   17411 17486M 17489M 17575
 GLNOWA        8 00000000 FFFFFFD5     J   17419 17453  17482U 17616  17618  17619
 GOSCAN        2 00006630 00000001     H   36916 37895B
 GOTAMOD       4 00006950 00000001     I   37869 38367
 GOTBMOD       4 0000698C 00000001     I   37897 38365
 GOTCNT        4 000079A0 00000001     I   42204 42201B
 GOTNEX        4 000079A8 00000001     I   42207 42199B
 GOTXSLS       4 00006AF4 00000001     I   38211 38417
 GTENDLN       2 00003D16 00000001     H   27092 27088
 GTFRST        2 00003B08 00000001     H   26221 26217  28433
 GTFRSTLN      2 00003C86 00000001     H   26847 26843
 GTLAST        2 00003B56 00000001     H   26349 26345  28434
 GTLASTLN      2 00003CCE 00000001     H   26970 26966
 GTLINE        2 000039BE 00000001     H   25702 25698  26446  28430
 GTLNLNO       4 00000000 FFFFFFC8     F   26478 26543M 26547  26648M 26652  26669  26771M 26775  26792  26894M 26898
                                                 26915  27017M 27021  27038
 GTLNTEXT    235 00000004 FFFFFFC8     C   26479 26546  26651  26774  26897  27020
 GTLNWA      239 00000000 FFFFFFC8     J   26486 26509  26538U 26573  26575  26576  26614  26643U 26696  26698  26699
                                                 26737  26766U 26819  26821  26822  26860  26889U 26942  26944  26945
                                                 26983  27012U 27065  27067  27068
 GTNEXT        2 00003A0C 00000001     H   25830 25826  28431
 GTNEXTLN      2 00003BF6 00000001     H   26601 26597
 GTPREV        2 00003A5E 00000001     H   25960 25956  26447  28432
 GTPREVLN      2 00003C3E 00000001     H   26724 26720
 GTTAMOD       2 00006308 00000001     H   36427 33813  33859
 GTTBMOD       2 00006394 00000001     H   36587 33844
 HAVAND        4 0000672C 00000001     I   37264 38353
 HAVANDOR      2 00006738 00000001     H   37270 37265B
 HAVASSC       2 00006782 00000001     H   37302 38386  38409
 HAVASSC1      2 00006784 00000001     H   37307 37290B 37294B 37298B
 HAVBLOCK      2 00006A30 00000001     H   38019 38399
1ACT      (ACT2025) (12:40) (15MAR04) Ordinary Symbol and Literal Cross Reference                                           Page  253
 HAVEXPL       2 0000699C 00000001     H   37904 38351  38360
 HAVHEX        4 00006762 00000001     I   37289 38374  38403
 HAVNHEX       4 0000675E 00000001     I   37288 38376  38391
 HAVNPAT       4 00006776 00000001     I   37296 38384  38395
 HAVNTEX       4 0000676A 00000001     I   37292 38380  38393
 HAVOR         4 00006734 00000001     I   37267 38355
 HAVPAT        4 0000677A 00000001     I   37297 38382  38407
 HAVSOM2       2 000068A2 00000001     I   37747 38342
 HAVSOM3       4 000068CA 00000001     I   37759 38348
 HAVSOM4       4 00006914 00000001     I   37821 38357
 HAVTEX        4 0000676E 00000001     I   37293 38378  38405
 HEXSTR        1 00000000 00000047     T   36716 36716  38879
 HIBAL         1 00000000 FFFFFFFF     J     691   707    720    733    746    759    772    785    798    811    824
                                                   837    850    863    876    889    902
 HVFRSNO       2 000069BE 00000001     H   37933 36901  37907
 HVINVAL       4 000069FC 00000001     I   37970 38251B
 HVLSTNO       2 000069EA 00000001     H   37961 38212
 HVVAND        2 00005C84 00000001     H   34228 33585  33676  33752
 HVVCOL1       2 000060CE 00000001     H   35778 33555
 HVVCOL2       2 00006152 00000001     H   35944 33646
 HVVCTEX       2 00005DC0 00000001     H   34652 30702  33312  33463
 HVVHEX        2 00005E44 00000001     H   34836 30687  33297  33448
 HVVIN         2 00005D40 00000001     H   34474 33570  33661  33737  33890
 HVVNCTEX      2 00005E00 00000001     H   34741 30762  33372
 HVVNHEX       2 00005E84 00000001     H   34925 30747  33357
 HVVNPAT       2 00005F08 00000001     H   35109 30777  33387
 HVVOCCR       2 000061E8 00000001     H   36166 33615  33706  33782
 HVVOR         2 00005CE2 00000001     H   34351 33600  33691  33767
 HVVPAT        2 00005EC8 00000001     H   35020 30717  33327  33478
 HVVSTR        2 00005F4C 00000001     H   35216 30672  33282  33433  33524
 INCMPSTR      2 00005BE2 00000001     H   34020 33402  33493  33539
 INCOMPLT      2 00007386 00000001     H   40475 40647
 INITRG        1 00000000 0000000E     T   12632 12632
 INSLDONE      2 0000408A 00000001     H   28401 28275B 28331B
 INSLINE       2 00003FEC 00000001     H   28185 28181
 INVALID       1 00000000 00000048     T    2204  2204  38369  38414  38432
 ITSNIL        2 00006D00 00000001     H   38680 36852B 38676  38887
 ITSNIL        1 00000000 0000003F     T   31200 31200
 IWAFLAGS      1 00000014 FFFFFFE8     R    6630  6634   6639   6644
 JCB         208 00000000 FFFFFFE9     J    6607 41396U
 JCBAFL        1 00000062 FFFFFFE9     R    6452  6456   6461   6466   6471   6476   6481   6486   6491
 JCBBFL        1 00000063 FFFFFFE9     R    6497  6501   6506   6511   6516   6521   6526   6531
 JCBBILLX      8 00000088 FFFFFFE9     D    6582  6590   6590
 JCBFATTN      2 00000062 FFFFFFE9         6486 41410
 JCBRSCF1      1 00000064 FFFFFFE9     R    6537  6541   6546   6551
 JCBSFLG1      1 00000065 FFFFFFE9     R    6557  6561   6566
 JCBWFL        1 00000060 FFFFFFE9     R    6381  6385   6390   6395   6400   6405   6410   6415   6420   6448
 JCBWWFL       1 00000061 FFFFFFE9     R    6426  6430   6435   6440   6445
 JOINBCNT      2 00000010 FFFFFFCD     H   22312 22660M 22907  23008  23111
 JOINFLAG      1 00000000 FFFFFFCD     R   22279 22313  22313
 JOINFREV      2 00000001 FFFFFFCD        22292 22839
 JOINFTRM      1 00000001 FFFFFFCD        22301 22593
 JOININIT     18 00000000 FFFFFFCD     X   22313 22405M 22405
 JOINLEN       2 0000000C FFFFFFCD     H   22310 22558M 22706  22759M 22886
 JOINLIN     235 00000012 FFFFFFCD     C   22316 22450  22756  22789  22867
 JOINLINE      2 00002EEC 00000001     H   22353 22349
 JOINLNO       4 00000004 FFFFFFCD     F   22307 22448M 22561  22850  22850M 22851  22851  22852  22852M 22858  22965
                                                 23066  23173  23200
 JOINMAXL      2 00000002 FFFFFFCD     H   22305 22447M 22779
1ACT      (ACT2025) (12:40) (15MAR04) Ordinary Symbol and Literal Cross Reference                                           Page  254
 JOINNLEN      2 0000000E FFFFFFCD     H   22311 22581M 22661M 22747M 22747  22766  22790
 JOINNLIN    235 00000112 FFFFFFCD     C   22319 22562  22689M 22817
 JOINNLNO      4 00000008 FFFFFFCD     F   22308 22582M 22850  22851M 22852  22877  22900  23001  23090
 JOINOFLG      1 00000001 FFFFFFCD     R   22284 22292  22301  22407M
 JOINWA      530 00000000 FFFFFFCD     J   22327 22366  22395U 23222  23224  23225
 KICKNEX       2 00007972 00000001     H   42185 41752B 41792B 41907B 41947B 42028B
 KICKNEX1      4 00007976 00000001     I   42190 41061B 42170B
 LASTLINE      2 000041C6 00000001     H   28644 28640
 LENCEXIT      2 000044C8 00000001     I   29661 29539B
 LENCHK        2 00004418 00000001     H   29386 29382  31190
 LENCHKM       2 000043D0 00000001     H   29290 29286
 LEXATRTN      1 00000040 FFFFFFEC A   U    6193 40952
 LEXLNO        4 00000000 FFFFFFBE     F   45197 45275M 45282  45360
 LEXTEMP       4 00000004 FFFFFFBE     F   45198 45282M 45283  45360  45378
 LEXWA       243 00000000 FFFFFFBE     J   45206 45242  45271U 45409  45411  45412
 LMSGCHK       2 000044E0 00000001     H   29705 29701  31191
 LNENOPRT      1 00000000 00000049     T   38401 38401  38412  38419  38424
 LNINFO        8 00000000 FFFFFFE6     J    6844 17396
 LOCATE        2 0000827E 00000001     H   44980 44976
 LOCLNO        4 00000000 FFFFFFBF     F   44944 45026M 45033
 LOCSTR        2 000077C8 00000001     H   41515 41506B
 LOCWA         4 00000000 FFFFFFBF     J   44951 44993  45022U 45182  45184  45185
 LOGCMD        1 00000000 0000001C     T   12668 12668  21036
 LOWMULT       1 00000000 0000004E     T   38884 38884
 LOWTBL        1 00000000 00000000 A   T    2212  2212
 LSR           8 00000008 00000001 A   #    1074  6866   7841M  7911   8098M  8149   8560M  8612   8929M  8982   9286M
                                                  9341   9615M  9670   9943M  9998  10271M 10326  10623M 10678  11141M
                                                 11171  11238M 11299  11595M 11629  11757M 11789  11918M 11970  12078M
                                                 12130  12255M 12306  12450M 12488  12610M 12698  13113M 13146  14243M
                                                 14296  14857M 14888  14929M 14976  15360M 15385  15745M 15898  16693M
                                                 16881  16940M 16960  17012M 17032  17084M 17104  17145M 17295  17382M
                                                 17450  17616M 17675  17721M 17757  17807M 17834  18114M 18178  18222M
                                                 18253  18298M 18325  18962M 19112  19832M 19917  20870M 20904  21006M
                                                 21111  21636M 21710  22261M 22363  23222M 23277  23347M 23451  24166M
                                                 24243  24989M 25064  25428M 25470  25627M 25711  25800M 25839  25930M
                                                 25969  26191M 26230  26319M 26358  26426M 26506  26573M 26611  26696M
                                                 26734  26819M 26857  26942M 26980  27065M 27101  27354M 27392  27613M
                                                 27650  27896M 27934  28156M 28194  28416M 28506  28627M 28653  28896M
                                                 28933  29137M 29170  29267M 29299  29356M 29395  29684M 29714  30030M
                                                 30215  30587M 30808  30909M 30929  31088M 31109  31164M 31350  31397M
                                                 31417  31488M 31508  31752M 31772  31827M 31847  31985M 32012  32109M
                                                 32129  32315M 32350  32706M 32818  32865M 32885  32929M 32949  32993M
                                                 33013  33060M 33080  33178M 33198  33242M 33962  34009M 34029  34091M
                                                 34111  34208M 34237  34340M 34360  34463M 34483  34552M 34572  34641M
                                                 34661  34730M 34750  34825M 34845  34914M 34934  35009M 35029  35098M
                                                 35118  35193M 35225  35767M 35787  35933M 35953  36138M 36175  36416M
                                                 36436  36576M 36596  36681M 38459  38563M 38591  38664M 38689  38846M
                                                 38970  39938M 39964  40309M 40330  40388M 40407  40465M 40484  40542M
                                                 40561  40619M 40690  40749M 40846  42661M 42726  42936M 43004  43900M
                                                 43954  44142M 44175  44332M 44356  44852M 44990  45182M 45239  45409M
                                                 45532  47389M 47451  47639M 47670  47785M 47873  48078M
 LXCATRTN      1 00000060 FFFFFFEC A   U    6194 40914
 MALL          1 00000000 0000001F     T   16865 16865  30791  31301  31332  32756  32802  33401  33492  33538  33629
                                                 33720  33796  33827  33873  33904
 MATCOL        2 00000004 FFFFFFBD     H   45474 45585M 45585  46211M 46211  46231M 47363  47720M 47720  47741M
 MATFAND      64 00000000 FFFFFFBD        45454 45950  45950  47236
 MATFIRST      8 00000000 FFFFFFBD        45469 46329M 46546  46561M 46626M 46861  46876M 46941M
 MATFLAG       1 00000000 FFFFFFBD     R   45445 45449  45454  45459  45464  45469
 MATFMAT     128 00000000 FFFFFFBD        45449 45950  45950  45951M 47263M 47306M 47336
1ACT      (ACT2025) (12:40) (15MAR04) Ordinary Symbol and Literal Cross Reference                                           Page  255
 MATFME       32 00000000 FFFFFFBD        45459 46014M 46196M 46296M 47129M 47251  47294
 MATFWILD     16 00000000 FFFFFFBD        45464 46325M 46355M 46454  46571  46601M 46644M 46708M 46741  46886  46916M
                                                 47051M 47141
 MATHIGH       1 00008940 00000001     X   47799 46248  47187
 MATLINE       2 000083AC 00000001     H   45522 45518
 MATLOK        4 0000848C 00000001     I   45897 45653B 45673B 45766B 45817B 45873B
 MATLOOP       2 000084A8 00000001     H   45958 47318B
 MATLOOP1      2 00008606 00000001     H   46461 46615B
 MATLOOP2      4 000086BA 00000001     I   46747 46930B
 MATNEXT       2 00008582 00000001     H   46274 46029B 46162B
 MATNEXTR      2 000087F6 00000001     H   47228 46275B 46310B 46474B 46549B 46590B 46766B 46864B 46905B 47212B 47224B
 MATPBEG       4 0000001C FFFFFFBD     A   45481 46395M 46395  47153  47158  47756M 47756  47766M
 MATPCOL       2 00000002 FFFFFFBD     H   45473 45578M 46225  47734
 MATPLINE      4 00008586 00000001     I   46284 45970B
 MATPTR        4 00000008 FFFFFFBD     A   45476 45587M 45980  46284  47131  47706
 MATRECUR      2 000085DE 00000001     H   46390 46602B 46917B 47218B
 MATRLINE    235 0000010B FFFFFFBD     X   45484 45596M 45596  46237  47157  47358  47358
 MATRPTR       4 0000000C FFFFFFBD     A   45477 45588M 47344
 MATSAVE1      4 00000010 FFFFFFBD     A   45478 46747M 46754
 MATSEEK       2 00008858 00000001     H   47441 47809
 MATSEEKD      2 000088D4 00000001     H   47617 47543B
 MATSETR       2 000088E6 00000001     H   47661 47811
 MATSEXIT      2 00008828 00000001     H   47321 45610B 45893B 47264B
 MATTLINE    235 00000020 FFFFFFBD     C   45483 45997M 45999M 46001  46286M 46288M 46289
 MATTRTTB    256 000001F6 FFFFFFBD     X   45486 46046  46154
 MATWA       758 00000000 FFFFFFBD     J   45493 45535  45564U 45574M 45574  45575M 45575  45576M 45576  46630  46674
                                                 47011  47033  47389  47391  47392  47704U
 MILERR        1 00000000 00000000 A   T    2203  2203
 MINT          1 00000000 00000040     T   32787 32787  33554  33812  33858
 MISCOUNT      2 000052E8 00000001     H   33004 32773
 MISSEXR       2 00004CAC 00000001     H   31341 31242
 MISSQSTR      2 00005BAE 00000001     H   33953 33267  33418  33509
 MISSRNG       2 00004964 00000001     H   30920 30792
 MIS2LINE      2 00005254 00000001     H   32809 32727
 MNULL         1 00000000 0000001D     T   16715 16715  30611  31241  32726  32772  33266  33417  33508
 MODPRTA       1 00006BD8 00000001     R   38367 37862
 MODPRTB       1 00006BD3 00000001     R   38365 37885
 MORECH        4 00004396 00000001     I   29215 29243B
 MPAREN        1 00000000 00000041     T   33614 33614  33705  33781
 MPINT         1 00000000 00000042     T   33645 33645  33843
 MQUOTE        1 00000000 0000003A     T   30671 30671  33281  33432  33523
 MSSTART       4 00000000 FFFFFFBC     A   47424 47559M 47588
 MSTRTTAB    256 00000004 FFFFFFBC     X   47425 47555  47568
 MSWA        260 00000000 FFFFFFBC     J   47432 47454  47483U 47493M 47493  47494M 47494  47639  47641  47642
 MSYMLN        1 00000000 00000039     T   30641 30641  31286  31317  32741
 MTOKEN        1 00000000 0000001E     T   16730 16730  16745  16760  16775  16790  16805  16820  16835  16850  30626
                                                 30656  30686  30701  30716  30731  30746  30761  30776  31256  31271
                                                 33296  33311  33326  33341  33356  33371  33386  33447  33462  33477
                                                 33569  33584  33599  33660  33675  33690  33736  33751  33766  33889
 MTRT          2 00007B78 00000001     I   42846 42899B
 MTRT0         2 00007B76 00000001     I   42845 42840B
 NBLTBL        1 00000000 00000000 A   T    2216  2216
 NBTRT         1 00008C5C 00000001     X   48090 47977  48091
 NDETRNG       2 000045CC 00000001     H   30205 30201
 NEWROUND      6 00007692 00000001     I   41096 41015B 41033B 41058B 42250B
 NEXSTRNG      4 000078A2 00000001     I   41996 41812B 41832B 41927B 41987B
 NEXSTR1       2 000077CC 00000001     H   41528 41999B
 NNUMBER       1 00000000 00000037     T   25655 25655
 NNUMFACT      1 00000000 00000038     T   25659 25659
1ACT      (ACT2025) (12:40) (15MAR04) Ordinary Symbol and Literal Cross Reference                                           Page  256
 NOACTION      1 00000000 00000000 A   T    2206  2206
 NOTCOUNT      2 000053A8 00000001     H   33189 32803
 NOTNIL        2 00006614 00000001     H   36889 36859B 36870B
 NOTVALID      1 00000000 00000044     T   33919 33919  36708
 NOT2LINE      2 000052BA 00000001     H   32940 32757
 NPARTBL       1 00000000 00000000 A   T    2210  2210
 NSCAN         1 00000000 0000002D     T   17207 17207  31202  33922  36724
 NSCNCB      176 00000000 FFFFFFED     J    2475  2601  16338  16340  16371M 16372M 16387  16388  16389  16392M 16393M
                                                 16395M 16405M 16406M 16407M 16443  17223  30432  30433  30434  30437M
                                                 30438M 30440M 30450M 30451M 30452M 31020  31035  31050  31051  31052M
                                                 31052  31053  31054M 31067M 31578  31593  31608  31609  31610M 31610
                                                 31611  31612M 31625M 31721M 31887U 31958M 32042  32057  32072  32073
                                                 32074M 32074  32075  32076M 32089M 32162U 32380  32382  32393  32394
                                                 32395  32398M 32399M 32400M 32410M 32411M 32412M 32469  32470  32471
                                                 32474M 32475M 32477M 32487M 32488M 32489M 32581  32583  32605M 32606M
                                                 32621  32622  32623  32626M 32627M 32629M 32639M 32640M 32641M 32653
                                                 32683  33117  33118  33119  33122M 33123M 33124M 33134M 33135M 33136M
                                                 33932  34141  34156  34171  34172  34173M 34173  34174  34175M 34188M
                                                 34313M 34436M 34525M 34614M 34703M 34798M 34887M 34982M 35071M 35166M
                                                 35740M 35906M 36111M 36223  36238  36253  36254  36255M 36255  36256
                                                 36257M 36270M 36288  36290  36327M 36328M 36352  36353  36354  36357M
                                                 36358M 36360M 36370M 36371M 36372M 36384  36389M 36549M 36654M 36736
 NSCNFLGS      1 00000008 FFFFFFED     R    2412  2416   2421
 NSCNKWS       4 00000028 FFFFFFED     A    2461 16387  16395M 16405M 30432  30440M 30450M 31721  31721M 31958  31958M
                                                 32393  32400M 32410M 32469  32477M 32487M 32621  32629M 32639M 33117
                                                 33124M 33134M 34313  34313M 34436  34436M 34525  34525M 34614  34614M
                                                 34703  34703M 34798  34798M 34887  34887M 34982  34982M 35071  35071M
                                                 35166  35166M 35740  35740M 35906  35906M 36111  36111M 36352  36360M
                                                 36370M 36389  36389M 36549  36549M 36654  36654M
 NSCNLEN       4 00000004 FFFFFFED     F    2409 16372M 31053  31054M 31611  31612M 32075  32076M 32606M 34174  34175M
                                                 36256  36257M 36328M
 NSCNLOC       4 00000000 FFFFFFED     A    2408 16371M 31050  31052M 31608  31610M 32072  32074M 32605M 34171  34173M
                                                 36253  36255M 36327M
 NSCNSKIP      4 00000024 FFFFFFED     A    2460 16388  16392M 16406M 30433  30437M 30451M 32394  32398M 32411M 32470
                                                 32474M 32488M 32622  32626M 32640M 33118  33122M 33135M 36353  36357M
                                                 36371M
 NSCNSTOP      4 00000020 FFFFFFED     A    2459 16389  16393M 16407M 30434  30438M 30452M 32395  32399M 32412M 32471
                                                 32475M 32489M 32623  32627M 32641M 33119  33123M 33136M 36354  36358M
                                                 36372M
 NSCNTLEN      4 00000014 FFFFFFED     F    2427 31020  31067M 31578  31625M 32042  32089M 34141  34188M 36223  36270M
 NSCNTLOC      4 00000010 FFFFFFED     A    2426 31035  31051  31052  31593  31609  31610  32057  32073  32074  34156
                                                 34172  34173  36238  36254  36255
 NSCNTYPE      1 00000018 FFFFFFED     R    2430  2434   2439   2444   2449   2454
 NTFRST        4 00006AB2 00000001     I   38178 38140B
 NULLRNG       2 00004918 00000001     H   30799 30612
 NUMBSET       4 00006B12 00000001     I   38245 38231
 NUMFACT       2 0000389E 00000001     H   25461 25457
 NUMFCALC    128 00000000 FFFFFFC9        25010 25240M 25282
 NUMFLAG       1 00000000 FFFFFFC9     R   25006 25010
 NUMRANGE      2 00003740 00000001     H   25054 25050  25653
 NUMRDELT      4 0000000C FFFFFFC9     F   25016 25122M 25122  25231M 25305M 25305
 NUMRETRY      2 00003764 00000001     H   25113 25306B
 NUMREXIT      2 00003890 00000001     H   25411 25202B 25222B
 NUMRFRST      4 00000004 FFFFFFC9     F   25014 25107M 25128  25162  25248
 NUMRLAST      4 00000008 FFFFFFC9     F   25015 25129  25186
 NUMRSTRT      4 00000010 FFFFFFC9     F   25017 25174  25181
 NUMRWA       20 00000000 FFFFFFC9     J   25024 25067  25096U 25106M 25106  25428  25430  25431
 NUMSET        2 00006A94 00000001     H   38129 37943  38112
 NXMDSCN       2 00006942 00000001     H   37855 37900B
1ACT      (ACT2025) (12:40) (15MAR04) Ordinary Symbol and Literal Cross Reference                                           Page  257
 ORVCPASS      1 00000000 00000050     T   38888 38888
 OVER          4 00008ABC 00000001     I   47949 48019B
 PAGEDEL       1 00000000 00000035     T   23367 23367
 PAGEMARK      1 00000000 00000030     T   21040 21040
 PATLEND       4 000070D6 00000001     I   39387 39313B
 PATLOOP1      4 00007C44 00000001     I   43224 43375B
 PATLOOP2      4 00007CE4 00000001     I   43497 43680B
 PATMAXL       2 000073C0 00000001     H   40552 40641
 PATNULL       2 00007312 00000001     H   40321 40644
 PATSEEK       2 00007DE4 00000001     H   43944 44911
 PBYTEXIT      2 00002706 00000001     H   19810 19415B 19742B
 PBYTTRT       1 00002714 00000001     X   19841 19530  19842  19844  19846  19848
 PCAREA      235 00000004 FFFFFFC4     C   38945 39011
 PCPTR         4 00000000 FFFFFFC4     F   38944 39058M 39901
 PCWA        239 00000000 FFFFFFC4     J   38952 38973  39005U 39938  39940  39941
 PENCODE       2 00006FCA 00000001     H   38960 36715  38878
 PENCODEX      4 0000722C 00000001     I   39911 39050B
 PLINAREA   2048 00000001 FFFFFFD0     C   19892 20031  20046  20080  20701  21047
 PLINEWA     255 00000000 FFFFFFD3     J   18142 18328  18357U 18962  18964  18965
 PLINEXIT      2 00002A1E 00000001     H   20848 20375B 20725B 20830B
 PLINFLAG      1 00000000 FFFFFFD0     R   19878 19882  19887  19890  19890
 PLINFRESIDUAL
              64 00000000 FFFFFFD0        19887 19980M 20482
 PLINFWRAP
             128 00000000 FFFFFFD0        19882 20118M 20617
 PLININIT      1 00000000 FFFFFFD0     X   19890 19959M
 PLINLEN       4 00000004 FFFFFFD3     F   18130 18560M 18919  18923
 PLINLNO       4 00000000 FFFFFFD3     F   18129 18363M 18401  18721  18863  18864  18881  18888  18905  18912  18926
                                                 18927
 PLINMAT       4 000029C0 00000001     I   20724 20669B
 PLINOK        2 00002A1C 00000001     H   20842 20527B
 PLINOPT       4 00000010 FFFFFFD3     C   18133 18362M 18720
 PLINPTRS      4 00000008 FFFFFFD3     A   18131 18650M 18722
 PLINTEXT    235 00000014 FFFFFFD3     C   18135 18642  18649
 PLINWA     2049 00000000 FFFFFFD0     J   19899 19920  19949U 20870  20872  20873
 PMATCH        2 00007BB8 00000001     H   42994 44898
 PMATDONE      2 00007DD6 00000001     H   43880 43872B 43877B
 PMFIRST      64 00000008 FFFFFFC1        42973 43098  43098  43306  43321M 43386M 43611  43626M 43691M
 PMFLAG        1 00000008 FFFFFFC1     R   42964 42968  42973
 PMGLINE     235 00000009 FFFFFFC1     X   42976 43062M 43074M 43086
 PMR0          4 00000000 FFFFFFC1     F   42960 43047M 43858
 PMR1          4 00000004 FFFFFFC1     F   42961 43048M 43497M 43504
 PMWA        244 00000000 FFFFFFC1     J   42983 43007  43036U 43046M 43046  43900  43902  43903
 PMWILD      128 00000008 FFFFFFC1        42968 43098  43098  43099M 43125M 43216  43331  43361M 43399M 43458M 43491
                                                 43636  43666M 43785M
 PNMAT         2 00007DCE 00000001     H   43875 43234B 43309B 43350B 43516B 43614B 43655B
 PRECURSE      4 00007C22 00000001     I   43158 43362B 43667B
 PRESS         2 00008A72 00000001     H   47863 47859
 PRESS         1 00000000 00000056     T   45426 45426
 PREVDONE      2 00003AF6 00000001     H   26174 26029B
 PREVLNO       2 00002A2C 00000001     H   20895 20891  26443
 PRSLINE     256 00000028 FFFFFFBB     X   47834 47910M 47935  48037M 48048
 PRSPTR        4 00000024 FFFFFFBB     A   47833 47909M 48038
 PRSWA       296 00000000 FFFFFFBB     J   47841 47876  47905U 48078  48080  48081
 PSSTART       4 00000000 FFFFFFC0     A   43927 44062M 44091
 PSTRTTAB    256 00000004 FFFFFFC0     X   43928 44058  44071
 PSWA        260 00000000 FFFFFFC0     J   43935 43957  43986U 43996M 43996  43997M 43997  44142  44144  44145
 PTAPDONE      2 00003F32 00000001     H   27881 27730B 27816B
 PTAPPEND      2 00003E8A 00000001     H   27641 27637
1ACT      (ACT2025) (12:40) (15MAR04) Ordinary Symbol and Literal Cross Reference                                           Page  258
 PTLINE        2 00003DE2 00000001     H   27383 27379
 PTLNDONE      2 00003E7C 00000001     H   27598 27473B 27529B
 PUNBAL        2 0000734C 00000001     H   40398 40643
 PUTBAREA   2560 00000006 FFFFFFD1     X   19086 19334M 19346  19423  19452
 PUTBINIT      6 00000000 FFFFFFD1     X   19083 19154M 19154
 PUTBLINE      2 00002814 00000001     H   19907 21046
 PUTBLLEN      2 00000004 FFFFFFD1     H   19082 19469M 19469  19564  19566M 19737  19751M 19751  19776M 19776  19793
 PUTBLPTR      4 00000000 FFFFFFD1     A   19081 19083  19083  19462M 19671M 19733  19744M 19789
 PUTBMAXL      1 00000800 FFFFFFD1 A   N   19085 19086  19892
 PUTBWA     2566 00000000 FFFFFFD1     J   19093 19115  19144U 19832  19834  19835
 PUTBYTES      2 00002564 00000001     H   19102 19098
 PUTCB       764 00000000 FFFFFFD2     J   19045 19166U 19995U
 PUTCOUNT      4 00000004 FFFFFFD2     F   19030 20348M 20348  20356  20358M 20803M 20803  20811  20813M
 PUTFACTCT
              64 00000001 FFFFFFD2        19024 19244M 19383  19401M 20310  20328M 20765  20783M
 PUTFGOTCR
             128 00000001 FFFFFFD2        19019 19558M 19617M 19658  19670M 19703M
 PUTFL         1 00000000 FFFFFFD2     R   18985 18989  18994  18999  19004  19009
 PUTFL2        1 00000001 FFFFFFD2     R   19015 19019  19024
 PUTFSTOP      8 00000000 FFFFFFD2        19009 20602
 PUTFTABS     16 00000000 FFFFFFD2        19004 20059
 PUTFTRAN    128 00000000 FFFFFFD2        18989 19302  20248  20557
 PUTFWRAP     64 00000000 FFFFFFD2        18994 20132  20397
 PUTLBASE      2 00002346 00000001     H   18315 21026
 PUTLEXIT      2 00002556 00000001     H   18945 18758B
 PUTLINE       2 00002314 00000001     H   18244 12663  18240  21049  23372  28439
 PUTLINE       1 00000000 00000032     T   21042 21042
 PUTLINEX      2 000022E6 00000001     H   18169 18165  31184
 PUTLNO        4 00000008 FFFFFFD2     F   19031 19207M 19207  19218M 19369  20282  20334  20336M 20737  20789  20791M
 PUTLTRIM      2 000023D8 00000001     H   18534 18554B
 PUTMAXLN      2 00000002 FFFFFFD2     H   19028 19185M 19185  19192M 20107  20119  20214
 PUTRESBF    512 000000FC FFFFFFD2     X   19037 19086  19274  19439  20515M
 PUTRESLN      2 000000FA FFFFFFD2     H   19036 19278  19424  19453  19460M 19460  20488M
 PUTSTLEN      2 0000000C FFFFFFD2     H   19033 20626
 PUTSTOP     235 0000000E FFFFFFD2     C   19034 20701
 PYMAT         2 00007DC8 00000001     H   43867 43859B
 QUESFIN       2 000079B0 00000001     H   42211 41128B 41146B 41179B 41197B 41291B 41342B 42034B 42196B 42202B
 QUESLIN       4 000078B2 00000001     I   42003 41772B 41852B 41887B 41967B
 RAR          14 0000000E 00000001 A   #    1152  2141   2142M  2143B  2145M  2146B  2166M  2167B  2171M  2172B  2174M
                                                  2175B  2177M  2178B  2180M  2181B  2183M  2184M  2184B  2190   6863
                                                  6894M  6895M  6895B  6902M  6903M  6903B  6924M  6925M  6925B  6949M
                                                  6950M  6950B  6968M  6969M  6969B  6977M  6978M  6978B  6999M  7000M
                                                  7000B  7017M  7018M  7018B  7036M  7037M  7037B  7058M  7059M  7059B
                                                  7083M  7084M  7084B  7102M  7103M  7103B  7124M  7125M  7125B  7149M
                                                  7150M  7150B  7168M  7169M  7169B  7190M  7191M  7191B  7215M  7216M
                                                  7216B  7234M  7235M  7235B  7256M  7257M  7257B  7274M  7275M  7275B
                                                  7296M  7297M  7297B  7314M  7315M  7315B  7339M  7340M  7340B  7364M
                                                  7365M  7365B  7383M  7384M  7384B  7405M  7406M  7406B  7430M  7431M
                                                  7431B  7449M  7450M  7450B  7471M  7472M  7472B  7496M  7497M  7497B
                                                  7521M  7522M  7522B  7540M  7541M  7541B  7565M  7566M  7566B  7590M
                                                  7591M  7591B  7615M  7616M  7616B  7642M  7643M  7643B  7660M  7661M
                                                  7661B  7674M  7675M  7675B  7699M  7700M  7700B  7711M  7712M  7712B
                                                  7741M  7742M  7742B  7775M  7776M  7776B  7800M  7801M  7801B  7818M
                                                  7819M  7819B  7843M  7846B  7908   7945M  7946M  7946B  7954M  7955M
                                                  7955B  7961M  7962M  7962B  8049M  8050M  8050B  8072M  8073M  8073B
                                                  8081M  8082M  8082B  8100M  8103B  8146   8199M  8200M  8200B  8255M
                                                  8256M  8256B  8276M  8277M  8277B  8282M  8283M  8283B  8289M  8290M
                                                  8290B  8300M  8301M  8301B  8354M  8355M  8355B  8399M  8400M  8400B
                                                  8461M  8462M  8462B  8506M  8507M  8507B  8562M  8565B  8609   8685M
