1                        J E S 2  J O B  L O G  --  S Y S T E M  S Y S B  --  N O D E  R L G
0
 12.41.11 JOB03512 ---- MONDAY,    15 MAR 2004 ----
 12.41.11 JOB03512  ICH70001I GG$SLP   LAST ACCESS AT 12:41:04 ON MONDAY, MARCH 15, 2004
 12.41.11 JOB03512  $HASP373 WYL#CRYP STARTED - INIT 6    - CLASS B - SYS SYSB
 12.41.11 JOB03512  ***  HCMD      STEP $$QUIET
 12.41.11 JOB03512  PUR * Q OUT MUL
 12.41.11 JOB03512  JOB 5375 WYL#CRYP WILL BE PURGED
 12.41.12 JOB03512  WYL#CRYP.$$QUIET .         RC=Zero TapeIO=0000 DiskIO=0000 CPU=  .01s Elapsed=71.40s
 12.41.19 JOB03512  WYL#CRYP.ASM     .         RC=Zero TapeIO=0000 DiskIO=0418 CPU= 1.66s Elapsed=72.64s
 12.41.21 JOB03512  WYL#CRYP.EDIT    .         RC=Zero TapeIO=0000 DiskIO=0117 CPU=  .37s Elapsed=79.81s
 12.41.21 JOB03512  WYL#CRYP Ended.  Name=Assemble CRYPT                 Total CPU= 2.04s Elapsed=71.40s
 12.41.21 JOB03512
 12.41.21 JOB03512  Execution charges   Priority=Standard   Block=Day
 12.41.21 JOB03512
 12.41.21 JOB03512  CPU Usage          37.50          $23.25   Standard Processing Unit Equivalent
 12.41.21 JOB03512                                   =======
 12.41.21 JOB03512                                    $23.25   Total Job execution charge
 12.41.21 JOB03512
 12.41.21 JOB03512  See back separator page for print charges
 12.41.21 JOB03512
 12.41.21 JOB03512  $HASP395 WYL#CRYP ENDED  ASM=0, EDIT=0
1        1 //WYL#CRYP JOB SLP$GG,'Assemble CRYPT',TIME=4,REGION=4M                 JOB03512
           //*
           /*JOBPARM LINES=99,COPIES=1
           /*JOBPARM FORMS=3HOL,PFORMAT=LAND,CHARS=BD13,DUPLEX=YES,FLASH=BAR4
           //*
           /*JOBPARM NOTIFY=GG.SLP,HOLD=OUTPUT                                     WYLGEN
         2 //$$QUIET EXEC PGM=HCMDX,PARM='PUR * Q OUT MUL'
           //*
         3 //ASM    EXEC PGM=ASMA90,REGION=8M,
           //            PARM=('NORENT,TERM,FLAG(NOCONT),US(MAP,WARN(10)),NODECK',
           //            'LC(32767),XREF(SHORT),ESD,DXREF,NOOBJECT')
         4 //STEPLIB DD DSN=SYS3.IS.TESTASM,DISP=SHR
         5 //SYSLIB   DD  DSN=WYL.GS.WYL.WYLBUR.MACLIB,DISP=SHR
         6 //         DD  DSN=WYL.GG.SYS.MACLIB,DISP=SHR
         7 //         DD  DSN=SYS3.IS.MACLIB,DISP=SHR
         8 //         DD  DSN=SYS3.MACLIB,DISP=SHR
         9 //         DD  DSN=SYS1.MACLIB,DISP=SHR
        10 //         DD  DSN=SYS1.MODGEN,DISP=SHR
        11 //SYSUT1   DD DSN=&&SYSUT1,UNIT=VIO,DISP=(,DELETE),
           //            SPACE=(4088,(500,250),,CONTIG,ROUND)
        12 //SYSTERM  DD SYSOUT=T
        13 //SYSPRINT DD DSN=&&PRINT,UNIT=SYSDA,DISP=(,PASS),
           //            SPACE=(6650,(250,250),RLSE),
           //            DCB=(BLKSIZE=6650,LRECL=133,RECFM=FB)
        14 //SYSUDUMP DD SYSOUT=A
        15 //SYSIN    DD  DSN=WYL.GS.WYL.WYLBUR.SOURCE(CRYPT),DISP=SHR
           //*
        16 //EDIT    EXEC PGM=ASMEDIT,TIME=2,REGION=4000K,
           //             PARM='STMT'
        17 //STEPLIB  DD  DSN=WYL.GG.SYS.LINKLIB,DISP=SHR
        18 //ASMOUT   DD  DSN=&PRINT,DISP=(OLD,DELETE)
        19 //SYSPRINT DD  SYSOUT=A
1 STMT NO. MESSAGE
 -
        11 IGD01010I STORCLAS= TEMP STORGROUP =
        11 IGD01010I STORGRP=VIO ASSIGNED.
        13 IGD01010I STORCLAS= TEMP STORGROUP =
        13 IGD01010I STORGRP=VIO ASSIGNED.
 ICH70001I GG$SLP   LAST ACCESS AT 12:41:04 ON MONDAY, MARCH 15, 2004
 IEF142I WYL#CRYP $$QUIET - STEP WAS EXECUTED - COND CODE 0000
 *********************************************************************************
 *   WYL#CRYP/$$QUIET /                    Return Code      Zero                 *
 *   Region used      260K (16K user + 244K system)                              *
 *   Extended region  9692K (4K user + 9688K system)                             *
 *                                                                               *
 *   Paging              In      Out                                             *
 *   Private <-> Aux      0        0       CPU time (TCB)   00:00:00.01          *
 *   Private <-> Exp      0        0       CPU time (SRB)   00:00:00.00          *
 *   VIO                  0        0       Elapsed time    917:46:41.56          *
 *   Common               0      ---                                             *
 *                                                                               *
 *                                                                               *
 *   CPU Usage          0.18         $0.11  Standard Processing Unit Equivalent  *
 *                                   $0.11  Total Step execution charge          *
 *                                                                               *
 *    I/O count  DDname   Type Addr           I/O count  DDname   Type Addr      *
 *                         *** No I/O for this step ***                          *
 *********************************************************************************
 IEF373I STEP/$$QUIET /START 2004075.1241
 IEF374I STEP/$$QUIET /STOP  2004075.1241 CPU    0MIN 00.01SEC SRB    0MIN 00.00SEC VIRT    16K SYS   244K EXT       4K SYS    9688K
 IEF236I ALLOC. FOR WYL#CRYP ASM
 IEF237I 04DC ALLOCATED TO STEPLIB
 IEF237I 04DC ALLOCATED TO SYSLIB
 IEF237I 04DC ALLOCATED TO
 IEF237I 04DC ALLOCATED TO
 IEF237I 0402 ALLOCATED TO
 IEF237I 04A0 ALLOCATED TO
 IEF237I 04A0 ALLOCATED TO
 IGD101I SMS ALLOCATED TO DDNAME (SYSUT1  )
         DSN (SYS04075.T124111.RA000.WYL#CRYP.SYSUT1.H01  )
         STORCLAS (TEMP) MGMTCLAS (        ) DATACLAS (        )
         VOL SER NOS= VIO
 IEF237I JES2 ALLOCATED TO SYSTERM
 IGD101I SMS ALLOCATED TO DDNAME (SYSPRINT)
         DSN (SYS04075.T124111.RA000.WYL#CRYP.PRINT.H01   )
         STORCLAS (TEMP) MGMTCLAS (        ) DATACLAS (        )
         VOL SER NOS= SCR101
 IEF237I JES2 ALLOCATED TO SYSUDUMP
 IEF237I 04DC ALLOCATED TO SYSIN
 IEF142I WYL#CRYP ASM - STEP WAS EXECUTED - COND CODE 0000
 IEF285I   SYS3.IS.TESTASM                              KEPT
 IEF285I   VOL SER NOS= SYSB05.
 IEF285I   WYL.GS.WYL.WYLBUR.MACLIB                     KEPT
 IEF285I   VOL SER NOS= SYSB05.
 IEF285I   WYL.GG.SYS.MACLIB                            KEPT
 IEF285I   VOL SER NOS= SYSB05.
 IEF285I   SYS3.IS.MACLIB                               KEPT
 IEF285I   VOL SER NOS= SYSB05.
 IEF285I   SYS3.MACLIB                                  KEPT
 IEF285I   VOL SER NOS= SYSB02.
 IEF285I   SYS1.MACLIB                                  KEPT
 IEF285I   VOL SER NOS= MVSBR9.
 IEF285I   SYS1.MODGEN                                  KEPT
 IEF285I   VOL SER NOS= MVSBR9.
 IGD105I SYS04075.T124111.RA000.WYL#CRYP.SYSUT1.H01   DELETED,   DDNAME=SYSUT1
 IEF285I   GG$SLP.WYL#CRYP.JOB03512.D0000101.?          SYSOUT
 IGD106I SYS04075.T124111.RA000.WYL#CRYP.PRINT.H01    PASSED,    DDNAME=SYSPRINT
 IEF285I   GG$SLP.WYL#CRYP.JOB03512.D0000102.?          SYSOUT
 IEF285I   WYL.GS.WYL.WYLBUR.SOURCE                     KEPT
 IEF285I   VOL SER NOS= SYSB05.
 *********************************************************************************
 *   WYL#CRYP/ASM     /                    Return Code      Zero                 *
 *   Region used      4376K (4096K user + 280K system)                           *
 *   Extended region  10292K (412K user + 9880K system)                          *
 *                                                                               *
 *   Paging              In      Out                                             *
 *   Private <-> Aux      0        0       CPU time (TCB)   00:00:01.63          *
 *   Private <-> Exp      0        0       CPU time (SRB)   00:00:00.03          *
 *   VIO                  0        0       Elapsed time    917:46:40.32          *
 *   Common               0      ---                                             *
 *                                                                               *
 *                                                                               *
 *   CPU Usage         30.56        $18.94  Standard Processing Unit Equivalent  *
 *                                  $18.94  Total Step execution charge          *
 *                                                                               *
 *    I/O count  DDname   Type Addr           I/O count  DDname   Type Addr      *
 *           84  STEPLIB  Disk 04DC                 215  SYSLIB   Disk 04DC      *
 *            0  SYSLIB   Disk 04DC                   0  SYSLIB   Disk 04DC      *
 *            0  SYSLIB   Disk 0402                   0  SYSLIB   Disk 04A0      *
 *            0  SYSLIB   Disk 04A0                   0  SYSUT1   VIO  ----      *
 *            0  SYSTERM       ----                 114  SYSPRINT Disk 04E3      *
 *            0  SYSUDUMP      ----                   5  SYSIN    Disk 04DC      *
 *********************************************************************************
 IEF373I STEP/ASM     /START 2004075.1241
 IEF374I STEP/ASM     /STOP  2004075.1241 CPU    0MIN 01.63SEC SRB    0MIN 00.03SEC VIRT  4096K SYS   280K EXT     412K SYS    9880K
 IEF236I ALLOC. FOR WYL#CRYP EDIT
 IEF237I 0402 ALLOCATED TO STEPLIB
 IGD103I SMS ALLOCATED TO DDNAME ASMOUT
 IEF237I JES2 ALLOCATED TO SYSPRINT
 IEF142I WYL#CRYP EDIT - STEP WAS EXECUTED - COND CODE 0000
 IEF285I   WYL.GG.SYS.LINKLIB                           KEPT
 IEF285I   VOL SER NOS= SYSB02.
 IGD105I SYS04075.T124111.RA000.WYL#CRYP.PRINT.H01    DELETED,   DDNAME=ASMOUT
 IEF285I   GG$SLP.WYL#CRYP.JOB03512.D0000103.?          SYSOUT
 *********************************************************************************
 *   WYL#CRYP/EDIT    /                    Return Code      Zero                 *
 *   Region used      380K (116K user + 264K system)                             *
 *   Extended region  9816K (4K user + 9812K system)                             *
 *                                                                               *
 *   Paging              In      Out                                             *
 *   Private <-> Aux      0        0       CPU time (TCB)   00:00:00.36          *
 *   Private <-> Exp      0        0       CPU time (SRB)   00:00:00.01          *
 *   VIO                  0        0       Elapsed time    917:46:33.15          *
 *   Common               0      ---                                             *
 *                                                                               *
 *                                                                               *
 *   CPU Usage          6.75         $4.18  Standard Processing Unit Equivalent  *
 *                                   $4.18  Total Step execution charge          *
 *                                                                               *
 *    I/O count  DDname   Type Addr           I/O count  DDname   Type Addr      *
 *            2  STEPLIB  Disk 0402                 115  ASMOUT   Disk 04E3      *
 *            0  SYSPRINT      ----                                              *
 *********************************************************************************
 IEF373I STEP/EDIT    /START 2004075.1241
 IEF374I STEP/EDIT    /STOP  2004075.1241 CPU    0MIN 00.36SEC SRB    0MIN 00.01SEC VIRT   116K SYS   264K EXT       4K SYS    9812K
 *********************************************************************************
 *                                                                               *
 *                      S t a n f o r d   U n i v e r s i t y                    *
 *                                                                               *
 *                              *** Job Summary ***                              *
 *                                                                               *
 *   System Id      SYSB                   Input time     12:39:15  Mar 15, 2004 *
 *                                                                               *
 *   System Release SP6.1.0                Start time     12:41:11  Mar 15, 2004 *
 *                                                                               *
 *   Job name       WYL#CRYP               Stop  time     00:00:00  Mar 15, 2004 *
 *                                                                               *
 *   Account        SLP$GG                 Elapsed time  917:46:41.56            *
 *                                                                               *
 *   User Name      Assemble CRYPT         CPU time       00:00:02.00            *
 *                                                                               *
 *   Job class      B                      SRB Time       00:00:00.04            *
 *                                                                               *
 *********************************************************************************
 IEF375I  JOB/WYL#CRYP/START 2004075.1241
 IEF376I  JOB/WYL#CRYP/STOP  2004075.1241 CPU    0MIN 02.00SEC SRB    0MIN 00.04SEC
1Assembler Done CRYPT No Statements Flagged
1         High Level Assembler Option Summary                   (PTF P72483 )                                               Page    1
-                                                                                            HLASM R4.0  2004/03/15 12.41
0  No Overriding ASMAOPT Parameters
   Overriding Parameters-  NORENT,TERM,FLAG(NOCONT),US(MAP,WARN(10)),NODECK,LC(32767),XREF(SHORT),ESD,DXREF,NOOBJECT
   No Process Statements


   Options for this Assembly
0  NOADATA
     ALIGN
   NOASA
     BATCH
     CODEPAGE(047C)
   NOCOMPAT
   NODBCS
 3 NODECK
 3   DXREF
 3   ESD
   NOEXIT
 3   FLAG(0,ALIGN,NOCONT,NOIMPLEN,NOPAGE0,PUSH,RECORD,NOSUBSTR,USING0)
   NOFOLD
   NOGOFF
   NOINFO
     LANGUAGE(EN)
   NOLIBMAC
 3   LINECOUNT(32767)
     LIST(121)
     MXREF(SOURCE)
 3 NOOBJECT
     OPTABLE(UNI,NOLIST)
   NOPCONTROL
   NOPESTOP
   NOPROFILE
   NORA2
 3 NORENT
     RLD
     RXREF
     SIZE(MAX)
     SYSPARM()
 3   TERM(WIDE)
   NOTEST
     THREAD
   NOTRANSLATE
 3   USING(NOLIMIT,MAP,WARN(10))
 3   XREF(SHORT)

   No Overriding DD Names

1CRYPT    External Symbol Dictionary                                                                                        Page    2
-Symbol   Type   Id     Address  Length     LD ID  Flags Alias-of                            HLASM R4.0  2004/03/15 12.41
0WYLCRYPT  SD 00000001 00000000 00002540             00
 CRYP0060  LD          00000000           00000001
 SETSCKEY  LD          0000002A           00000001
 SENCRYPT  LD          00000070           00000001
 SDECRYPT  LD          00000100           00000001
 SETFCKEY  LD          000001A0           00000001
 FENCRYPT  LD          000001D4           00000001
 FDECRYPT  LD          00000266           00000001
 FEALBLKE  LD          0000030E           00000001
 FEALBLKD  LD          00001426           00000001

1CRYPT    WYLBUR Encrypt/Decrypt Routines.                                                                                  Page    3
0Loc    Object Code    Addr1 Addr2  Stmt Lv Lineno    Source Statement                    (Asmedit 3.3)  HLASM R4.0  2004/03/15 12.41
+___    ______ ____    _____ _____  ____ __ ______    ______ _________
0                                      2              *******************************************************************
                                       3              *                                                                 *
                                       4              *     WYLBUR/370 - Release VI - Class I - Stanford Proprietary    *
                                       5              *                                                                 *
                                       6              *******************************************************************
                                       7                       HIBAL
                                     988
1CRYPT    WYLBUR Encrypt/Decrypt Routines.                                                                                  Page    4
0D-Loc  Object Code    Addr1 Addr2  Stmt Lv Lineno    Source Statement           (Hibal 5, Asmedit 3.3)  HLASM R4.0  2004/03/15 12.41
+_____  ______ ____    _____ _____  ____ __ ______    ______ _________
0000000                00000 02540   990              WYLCRYPT CSECT
                                     994                       REGS  FSR,,,,,,,BR,(WAR,LSR),PAR,PBR,CPR,CVR,SPR,RAR
                                    1130
                                    1131              CRYP     IDENT 0060                17:06:12 03/01/90 (SCH)
                                    1134             +
                                    1135    01-IDENT +         ENTRY CRYP0060
                                    1136             +
 000000 16C3D9E8D7F0F0F6            1137    01-IDENT +CRYP0060 DC    AL1(22),C'CRYP0060,15MAR04,12:41'
                                    1138             +*
                                    1140              *
                                    1141                       SYSDEFN ,                 Define installation values
                                    1142
                                    1143                       PUSH  DSECTS
 USING  CP,R11                      1155             =         USING (CP),(CV)
 USING  CV,R12
 000017                00000 02540  1174             =         POP   PRINT
 000017                00000 02540  6307              WYLCRYPT CSECT
 000017 D4C1E7C5C440E3D6            6309                       DC    C'MAXED TO THE MAX !!'
                                    6310
1CRYPT    (CRYP0060) (12:41) (15MAR04) Common Control Blocks                                                                Page    5
0Current Usings:  (CP,R11) (CV,R12)
0Loc    Object Code    Addr1 Addr2  Stmt Lv Lineno    Source Statement           (Hibal 5, Asmedit 3.3)  HLASM R4.0  2004/03/15 12.41
+___    ______ ____    _____ _____  ____ __ ______    ______ _________
0                                   6312              *
                                    6313              *        COPY DSECTS TO HERE
                                    6314              *
                                    6315                       COPY  SCRYPTWA
                                    6316             =*
                                    6317             =*  SCRYPTWA - SIMPLE CRYPT WORK AREA
                                    6318             =*
 000000                00000 0002C  6319             =SCRYPTWA RECORD BEGIN
 000000                             6327  1          =SCXN       DS    F
 000004                             6328  1          =SCXNM3     DS    F
 000008                             6329  1          =SCXNM31    DS    F
 00000C                             6330  1          =SCKEY      DS    CL32
 00002C                0002C 0002C  6331             =         END
                                    6340                       COPY  FCRYPTWA
                                    6341             =*
                                    6342             =*  FCRYPTWA - FEAL CRYPT WORK AREA
                                    6343             =*
 000000                00000 0001C  6344             =FCRYPTWA RECORD BEGIN
 000000                             6352  1          =FCINDEX    DS    F
 000004                             6353  1          =FCKEY      DS    CL8                 THESE 24 BYTES SET ON INIT CALL
 00000C                             6354  1          =FCTEXT     DS    CL8
 000014                             6355  1          =FCCIPHER   DS    CL8
 00001C                0001C 0001C  6356             =         END
1CRYPT    (CRYP0060) (12:41) (15MAR04) Common Control Blocks                                                                Page    6
0Current Usings:  (CP,R11) (CV,R12)
0Loc    Object Code    Addr1 Addr2  Stmt Lv Lineno    Source Statement           (Hibal 5, Asmedit 3.3)  HLASM R4.0  2004/03/15 12.41
+___    ______ ____    _____ _____  ____ __ ______    ______ _________
0                                   6366              *
                                    6367              *  CODE GOES HERE
                                    6368              *
1CRYPT    (CRYP0060) (12:41) (15MAR04) Common Control Blocks                                                                Page    7
0Current Usings:  (CP,R11) (CV,R12)
0Loc    Object Code    Addr1 Addr2  Stmt Lv Lineno    Source Statement           (Hibal 5, Asmedit 3.3)  HLASM R4.0  2004/03/15 12.41
+___    ______ ____    _____ _____  ____ __ ______    ______ _________
0                                   6370              *
                                    6371              *
                                    6372              *  ENCRYPT AND DECRYPT ROUTINES
                                    6373              *
                                    6374              *  THESE ROUTINES ARE ADAPTED FROM C LANGUAGE VERSIONS.
                                    6375              *  THE C LANGUAGE VERSIONS ARE LISTED IN FULL.  THE ASSEMBLER
                                    6376              *  VERSIONS DUPLICATE THE C VERSION ALGORITHMS.
                                    6377              *
                                    6378              *  SEE EUROCRYPT '87 FOR FEAL BLOCK ALGORITHMS.
                                    6379              *
                                    6380              *
                                    6381              *
1CRYPT    (CRYP0060) (12:41) (15MAR04) Common Control Blocks                                                                Page    8
0Current Usings:  (CP,R11) (CV,R12)
0Loc    Object Code    Addr1 Addr2  Stmt Lv Lineno    Source Statement           (Hibal 5, Asmedit 3.3)  HLASM R4.0  2004/03/15 12.41
+___    ______ ____    _____ _____  ____ __ ______    ______ _________
0                                   6383              *
                                    6384              *  C VERSION OF SIMPLE ALGORITHIMS.
                                    6385              *  ASSEMBLER VERSIONS FOLLOW.
                                    6386              *
                                    6387              *
                                    6388              *
                                    6389              *#include <memory.h>
                                    6390              *#include <ctype.h>
                                    6391              *
                                    6392              *void simple_stream_e();
                                    6393              *void simple_stream_d();
                                    6394              *void feal_stream_e();
                                    6395              *void feal_stream_d();
                                    6396              *static void feal_block_e();
                                    6397              *static void feal_block_d();
                                    6398              *
                                    6399              */*
                                    6400              * *  simple algorithm
                                    6401              * *
                                    6402              * */
                                    6403              *
                                    6404              *void
                                    6405              *simple_stream_e(loc,len)
                                    6406              *  unsigned char * loc;
                                    6407              *  int len;
                                    6408              *{
                                    6409              *
                                    6410              *  static unsigned char rand32[32];
                                    6411              *  static int xn;
                                    6412              *  static int xnm3;
                                    6413              *  static int xnm31;
                                    6414              *  static int init_flag = 1;
                                    6415              *
                                    6416              *  unsigned char *bufend;
                                    6417              *  unsigned char temp;
                                    6418              *
                                    6419              *  bufend = loc+len;
                                    6420              *
                                    6421              *  if (init_flag) {
                                    6422              *    init_flag = 0;
                                    6423              *    xn = 31;  xnm3 = 28; xnm31 = 0;
                                    6424              *    strncpy(rand32,"4y3*#@zalw4=]a9aas#189&z>_two?ap",32);
                                    6425              *  }
                                    6426              *
                                    6427              *  while (loc < bufend) {
                                    6428              *    temp = *loc;
                                    6429              *    rand32[xn] = rand32[xnm3] + rand32[xnm31];
                                    6430              *    *loc ^= rand32[xn];
                                    6431              *    rand32[xnm3] ^= temp;
                                    6432              *    xn = (xn+1) & 0x1f;
                                    6433              *    xnm3 = (xnm3+1) & 0x1f;
                                    6434              *    xnm31 = (xnm31+1) & 0x1f;
                                    6435              *    loc++;
                                    6436              *  }
1CRYPT    (CRYP0060) (12:41) (15MAR04) Common Control Blocks                                                                Page    9
0Current Usings:  (CP,R11) (CV,R12)
0Loc    Object Code    Addr1 Addr2  Stmt Lv Lineno    Source Statement           (Hibal 5, Asmedit 3.3)  HLASM R4.0  2004/03/15 12.41
+___    ______ ____    _____ _____  ____ __ ______    ______ _________
0                                   6437              *}
                                    6438              *
                                    6439              *
                                    6440              *void
                                    6441              *simple_stream_d(loc,len)
                                    6442              *  unsigned char * loc;
                                    6443              *  int len;
                                    6444              *{
                                    6445              *
                                    6446              *  static unsigned char rand32[32];
                                    6447              *  static int xn;
                                    6448              *  static int xnm3;
                                    6449              *  static int xnm31;
                                    6450              *  static int init_flag = 1;
                                    6451              *
                                    6452              *  unsigned char *bufend;
                                    6453              *  unsigned char temp;
                                    6454              *
                                    6455              *  bufend = loc+len;
                                    6456              *
                                    6457              *  if (init_flag) {
                                    6458              *    init_flag = 0;
                                    6459              *    xn = 31;  xnm3 = 28; xnm31 = 0;
                                    6460              *    strncpy(rand32,"4y3*#@zalw4=]a9aas#189&z>_two?ap",32);
                                    6461              *  }
                                    6462              *
                                    6463              *  while (loc < bufend) {
                                    6464              *    rand32[xn] = rand32[xnm3] + rand32[xnm31];
                                    6465              *    *loc ^= rand32[xn];
                                    6466              *    rand32[xnm3] ^= *loc;
                                    6467              *    xn = (xn+1) & 0x1f;
                                    6468              *    xnm3 = (xnm3+1) & 0x1f;
                                    6469              *    xnm31 = (xnm31+1) & 0x1f;
                                    6470              *    loc++;
                                    6471              *  }
                                    6472              *}
1CRYPT    (CRYP0060) (12:41) (15MAR04) Common Control Blocks                                                                Page   10
0Current Usings:  (CP,R11) (CV,R12)
0Loc    Object Code    Addr1 Addr2  Stmt Lv Lineno    Source Statement           (Hibal 5, Asmedit 3.3)  HLASM R4.0  2004/03/15 12.41
+___    ______ ____    _____ _____  ____ __ ______    ______ _________
0                                   6474              *
                                    6475              *  SIMPLE ENCRYPT/DECRYPT ROUTINES
                                    6476              *
                                    6477              *  SETSCKEY:
                                    6478              *        @R1 - 32 BYTE KEY
                                    6479              *        @R2 - SCRYPTWA
                                    6480              *
                                    6481              *  NOTES:
                                    6482              *  KEY, SIMPLE ENCRYPTION WORK ARE MUST BE INITIALIZED BEFORE
                                    6483              *  CALLING SENCRYPT/SDECRYPT.
                                    6484              *
                                    6485              *  CAUTION*** SEPARATE WORK AREAS MUST BE USED FOR THE OUTPUT
                                    6486              *  (ENCRYPTED) STREAM AND THE INPUT (DECRYPTED) STREAM.
                                    6487              *
                                    6488              *  ALGORITHM CLOSELY FOLLOWS C-LANGUAGE ALGORITHM FOUND IN COMMENTS.
                                    6489              *
 00002A 50E0 D000/9008_      00000  6490              SETSCKEY XPROC
 USING  *,R7
 USING  SCRYPTWA,R2                 6530                       USING SCRYPTWA,R2
 000044 D21F 200C 1000 0000C 00000  6539                       MVC   SCKEY,@R1
 00004A 4110 001F            0001F  6540                       LA    R1,31
 00004E 5010 2000            00000  6541                       ST    R1,SCXN
 000052 4110 001C            0001C  6542                       LA    R1,31-3
 000056 5010 2004            00004  6543                       ST    R1,SCXNM3
 00005A 4110 0000            00000  6544                       LA    R1,31-31
 00005E 5010 2008            00008  6545                       ST    R1,SCXNM31
 000062 18D8/9808 D004_             6546                       PEND
 DROP   *,R7
 DROP   SCRYPTWA,R2                 6566                       DROP  R2
1CRYPT    (CRYP0060) (12:41) (15MAR04) Common Control Blocks                                                                Page   11
0Current Usings:  (CP,R11) (CV,R12)
0Loc    Object Code    Addr1 Addr2  Stmt Lv Lineno    Source Statement           (Hibal 5, Asmedit 3.3)  HLASM R4.0  2004/03/15 12.41
+___    ______ ____    _____ _____  ____ __ ______    ______ _________
0                                   6574              *
                                    6575              *  SIMPLE ENCRYPT ROUTINE
                                    6576              *
                                    6577              *  SENCRYPT:
                                    6578              *        R1,R0 - LOC LENGTH OF BUFFER TO ENCRYPT (IN PLACE)
                                    6579              *        @R2 - SCRYPTWA
                                    6580              *
                                    6581              *  NOTES:
                                    6582              *  KEY, SIMPLE ENCRYPTION WORK ARE MUST BE INITIALIZED BEFORE
                                    6583              *  CALLING SENCRYPT/SDECRYPT.
                                    6584              *
                                    6585              *  CAUTION*** SEPARATE WORK AREAS MUST BE USED FOR THE OUTPUT
                                    6586              *  (ENCRYPTED) STREAM AND THE INPUT (DECRYPTED) STREAM.
                                    6587              *
                                    6588              *  ALGORITHM CLOSELY FOLLOWS C-LANGUAGE ALGORITHM FOUND IN COMMENTS.
                                    6589              *
 000070 50E0 D000/9008_      00000  6590              SENCRYPT XPROC
 USING  *,R7
 USING  SCRYPTWA,R2                 6630                       USING SCRYPTWA,R2
                                    6639
                                    6640                       COMMENT                   INITIALIZE
 00008A 1A01                        6641                       AR    R0,R1
 00008C 5830 2000            00000  6642                       L     R3,SCXN
 000090 5840 2004            00004  6643                       L     R4,SCXNM3
 000094 5850 2008            00008  6644                       L     R5,SCXNM31
 000098 1B66                        6645                       CLEAR R6
 00009A 1BEE                        6649                       CLEAR R14
 00009C 1BFF                        6653                       CLEAR R15
                                    6657
                                    6658                       COMMENT                   LOOP ENCODING
 00009E 1910/47B0 705C              6659                       WHILE (R1,LT,R0),BEGIN
 0000A4 43E4 200C            0000C  6676  1                      IC    R14,SCKEY(R4)
 0000A8 43F5 200C            0000C  6677  1                      IC    R15,SCKEY(R5)
 0000AC 1AFE                        6678  1                      AR    R15,R14
 0000AE 42F3 200C            0000C  6679  1                      STC   R15,SCKEY(R3)
 0000B2 4360 1000            00000  6680  1                      IC    R6,@R1
 0000B6 17F6                        6681  1                      XR    R15,R6
 0000B8 42F0 1000            00000  6682  1                      STC   R15,@R1
 0000BC 43F4 200C            0000C  6683  1                      IC    R15,SCKEY(R4)
 0000C0 17F6                        6684  1                      XR    R15,R6
 0000C2 42F4 200C            0000C  6685  1                      STC   R15,SCKEY(R4)
 0000C6 5E30 710E            00198  6686  1                      INCR  R3
 0000CA 5E40 710E            00198  6689  1                      INCR  R4
 0000CE 5E50 710E            00198  6692  1                      INCR  R5
 0000D2 5430 7112            0019C  6695  1                      N     R3,=X'0000001F'
 0000D6 5440 7112            0019C  6696  1                      N     R4,=X'0000001F'
 0000DA 5450 7112            0019C  6697  1                      N     R5,=X'0000001F'
 0000DE 5E10 710E            00198  6698  1                      INCR  R1
 0000E2 47F0 7014            0009E  6701                       END
                                    6706
 0000E6 5030 2000            00000  6707                       ST    R3,SCXN
 0000EA 5040 2004            00004  6708                       ST    R4,SCXNM3
 0000EE 5050 2008            00008  6709                       ST    R5,SCXNM31
                                    6710
1CRYPT    (CRYP0060) (12:41) (15MAR04) Common Control Blocks                                                                Page   12
0Current Usings:  (SCRYPTWA,R2) (CP,R11) (CV,R12)
0Loc    Object Code    Addr1 Addr2  Stmt Lv Lineno    Source Statement           (Hibal 5, Asmedit 3.3)  HLASM R4.0  2004/03/15 12.41
+___    ______ ____    _____ _____  ____ __ ______    ______ _________
00000F2 18D8/9808 D004_             6711                       PEND
 DROP   *,R7
 DROP   SCRYPTWA,R2                 6731                       DROP  R2
1CRYPT    (CRYP0060) (12:41) (15MAR04) Common Control Blocks                                                                Page   13
0Current Usings:  (CP,R11) (CV,R12)
0Loc    Object Code    Addr1 Addr2  Stmt Lv Lineno    Source Statement           (Hibal 5, Asmedit 3.3)  HLASM R4.0  2004/03/15 12.41
+___    ______ ____    _____ _____  ____ __ ______    ______ _________
0                                   6739              *
                                    6740              *  SIMPLE DECRYPT ROUTINE
                                    6741              *
                                    6742              *  SDECRYPT:
                                    6743              *        R1,R0 - LOC LENGTH OF BUFFER TO DECRYPT (IN PLACE)
                                    6744              *        @R2 - SCRYPTWA
                                    6745              *
                                    6746              *  NOTES:
                                    6747              *  KEY, SIMPLE ENCRYPTION WORK ARE MUST BE INITIALIZED BEFORE
                                    6748              *  CALLING SENCRYPT/SDECRYPT.
                                    6749              *
                                    6750              *  CAUTION*** SEPARATE WORK AREAS MUST BE USED FOR THE OUTPUT
                                    6751              *  (ENCRYPTED) STREAM AND THE INPUT (DECRYPTED) STREAM.
                                    6752              *
                                    6753              *  ALGORITHM CLOSELY FOLLOWS C-LANGUAGE ALGORITHM FOUND IN COMMENTS.
                                    6754              *
 000100 50E0 D000/9008_      00000  6755              SDECRYPT XPROC
 USING  *,R7
 USING  SCRYPTWA,R2                 6795                       USING SCRYPTWA,R2
                                    6804
                                    6805                       COMMENT                   INITIALIZE
 00011A 1A01                        6806                       AR    R0,R1
 00011C 5830 2000            00000  6807                       L     R3,SCXN
 000120 5840 2004            00004  6808                       L     R4,SCXNM3
 000124 5850 2008            00008  6809                       L     R5,SCXNM31
 000128 1B66                        6810                       CLEAR R6
 00012A 1BEE                        6814                       CLEAR R14
 00012C 1BFF                        6818                       CLEAR R15
                                    6822
                                    6823                       COMMENT                   LOOP ENCODING
 00012E 1910/47B0 705E              6824                       WHILE (R1,LT,R0),BEGIN
 000134 43E4 200C            0000C  6841  1                      IC    R14,SCKEY(R4)
 000138 43F5 200C            0000C  6842  1                      IC    R15,SCKEY(R5)
 00013C 1AFE                        6843  1                      AR    R15,R14
 00013E 42F3 200C            0000C  6844  1                      STC   R15,SCKEY(R3)
 000142 4360 1000            00000  6845  1                      IC    R6,@R1
 000146 17F6                        6846  1                      XR    R15,R6
 000148 42F0 1000            00000  6847  1                      STC   R15,@R1
 00014C 186F                        6848  1                      LR    R6,R15
 00014E 43F4 200C            0000C  6849  1                      IC    R15,SCKEY(R4)
 000152 17F6                        6850  1                      XR    R15,R6
 000154 42F4 200C            0000C  6851  1                      STC   R15,SCKEY(R4)
 000158 5E30 707E            00198  6852  1                      INCR  R3
 00015C 5E40 707E            00198  6855  1                      INCR  R4
 000160 5E50 707E            00198  6858  1                      INCR  R5
 000164 5430 7082            0019C  6861  1                      N     R3,=X'0000001F'
 000168 5440 7082            0019C  6862  1                      N     R4,=X'0000001F'
 00016C 5450 7082            0019C  6863  1                      N     R5,=X'0000001F'
 000170 5E10 707E            00198  6864  1                      INCR  R1
 000174 47F0 7014            0012E  6867                       END
                                    6872
 000178 5030 2000            00000  6873                       ST    R3,SCXN
 00017C 5040 2004            00004  6874                       ST    R4,SCXNM3
 000180 5050 2008            00008  6875                       ST    R5,SCXNM31
1CRYPT    (CRYP0060) (12:41) (15MAR04) Common Control Blocks                                                                Page   14
0Current Usings:  (SCRYPTWA,R2) (*,R7) (CP,R11) (CV,R12)
0Loc    Object Code    Addr1 Addr2  Stmt Lv Lineno    Source Statement           (Hibal 5, Asmedit 3.3)  HLASM R4.0  2004/03/15 12.41
+___    ______ ____    _____ _____  ____ __ ______    ______ _________
0                                   6876
 000184 18D8/9808 D004_             6877                       PEND
 DROP   *,R7
 DROP   SCRYPTWA,R2                 6897                       DROP  R2
                                    6904                       QLTORG
1CRYPT    (CRYP0060) (12:41) (15MAR04) Common Control Blocks                                                                Page   15
0Current Usings:  (CP,R11) (CV,R12)
0Loc    Object Code    Addr1 Addr2  Stmt Lv Lineno    Source Statement           (Hibal 5, Asmedit 3.3)  HLASM R4.0  2004/03/15 12.41
+___    ______ ____    _____ _____  ____ __ ______    ______ _________
0                                   6919              *
                                    6920              *  C VERSION OF FEAL STREAM ALGORITHMS.
                                    6921              *  ASSEMBLER VERSIONS FOLLOW.
                                    6922              *
                                    6923              */*
                                    6924              * *  feal stream algorithm
                                    6925              * *
                                    6926              * */
                                    6927              *void
                                    6928              *feal_stream_e(loc,len)
                                    6929              *  unsigned char * loc;
                                    6930              *  int len;
                                    6931              *{
                                    6932              *  static char key[8];
                                    6933              *  static char text[8];
                                    6934              *  static char cipher[8];
                                    6935              *  static int i = 0;
                                    6936              *  static int init_flag = 1;
                                    6937              *
                                    6938              *  unsigned char *textend;
                                    6939              *  textend = loc+len;
                                    6940              *
                                    6941              *  if (init_flag) {
                                    6942              *    memcpy(key,"342ksesg",8);
                                    6943              *    memcpy(text,"ked8;:as",8);
                                    6944              *    memcpy(cipher,"qnb4#.2d",8);
                                    6945              *    init_flag = 0;
                                    6946              *  }
                                    6947              *
                                    6948              *  while (loc < textend) {
                                    6949              *    if (i == 8) {
                                    6950              *      memcpy(text,cipher,8);
                                    6951              *      feal_block_e(key,text,cipher);
                                    6952              *      i = 0;
                                    6953              *    }
                                    6954              *    key[i] ^= *loc;
                                    6955              *    *loc ^= cipher[i];
                                    6956              *    i++;
                                    6957              *    loc++;
                                    6958              *  }
                                    6959              *}
                                    6960              *
                                    6961              */*
                                    6962              * *  feal stream algorithm
                                    6963              * *
                                    6964              * */
                                    6965              *void
                                    6966              *feal_stream_d(loc,len)
                                    6967              *  unsigned char * loc;
                                    6968              *  int len;
                                    6969              *{
                                    6970              *  static char key[8];
                                    6971              *  static char text[8];
                                    6972              *  static char cipher[8];
1CRYPT    (CRYP0060) (12:41) (15MAR04) Common Control Blocks                                                                Page   16
0Current Usings:  (CP,R11) (CV,R12)
0Loc    Object Code    Addr1 Addr2  Stmt Lv Lineno    Source Statement           (Hibal 5, Asmedit 3.3)  HLASM R4.0  2004/03/15 12.41
+___    ______ ____    _____ _____  ____ __ ______    ______ _________
0                                   6973              *  static int i = 0;
                                    6974              *  static int init_flag = 1;
                                    6975              *
                                    6976              *  unsigned char *textend;
                                    6977              *  textend = loc+len;
                                    6978              *
                                    6979              *  if (init_flag) {
                                    6980              *    memcpy(key,"342ksesg",8);
                                    6981              *    memcpy(text,"ked8;:as",8);
                                    6982              *    memcpy(cipher,"qnb4#.2d",8);
                                    6983              *    init_flag = 0;
                                    6984              *  }
                                    6985              *
                                    6986              *  while (loc < textend) {
                                    6987              *    if (i == 8) {
                                    6988              *      memcpy(text,cipher,8);
                                    6989              *      feal_block_e(key,text,cipher);
                                    6990              *      i = 0;
                                    6991              *    }
                                    6992              *    *loc ^= cipher[i];
                                    6993              *    key[i] ^= *loc;
                                    6994              *    i++;
                                    6995              *    loc++;
                                    6996              *  }
                                    6997              *}
                                    6998              *
1CRYPT    (CRYP0060) (12:41) (15MAR04) Common Control Blocks                                                                Page   17
0Current Usings:  (CP,R11) (CV,R12)
0Loc    Object Code    Addr1 Addr2  Stmt Lv Lineno    Source Statement           (Hibal 5, Asmedit 3.3)  HLASM R4.0  2004/03/15 12.41
+___    ______ ____    _____ _____  ____ __ ______    ______ _________
0                                   7000              *
                                    7001              *  FEAL ENCRYPT/DECRYPT ROUTINES
                                    7002              *
                                    7003              *  SETFCKEY:
                                    7004              *        @R1 - 24 BYTE KEY  (KEY,TEXT,CIPHER)
                                    7005              *        @R2 - FCRYPTWA
                                    7006              *
                                    7007              *  NOTES:
                                    7008              *  FEAL ENCRYPTION WORK AREA MUST BE INITIALIZED BEFORE
                                    7009              *  CALLING FENCRYPT/FDECRYPT.
                                    7010              *
                                    7011              *  CAUTION*** SEPARATE WORK AREAS MUST BE USED FOR THE OUTPUT
                                    7012              *  (ENCRYPTED) STREAM AND THE INPUT (DECRYPTED) STREAM.
                                    7013              *
                                    7014              *  ALGORITHM CLOSELY FOLLOWS C-LANGUAGE ALGORITHM FOUND IN COMMENTS.
                                    7015              *
 0001A0 50E0 D000/9008_      00000  7016              SETFCKEY XPROC
 USING  *,R7
 USING  FCRYPTWA,R2                 7056                       USING FCRYPTWA,R2
 0001BA D217 2004 1000 00004 00000  7065                       MVC   FCKEY(L'FCKEY+L'FCTEXT+L'FCCIPHER),@R1
 0001C0 1B00                        7066                       CLEAR R0
 0001C2 5000 2000            00000  7070                       ST    R0,FCINDEX
 0001C6 18D8/9808 D004_             7071                       PEND
 DROP   *,R7
 DROP   FCRYPTWA,R2                 7091                       DROP  R2
1CRYPT    (CRYP0060) (12:41) (15MAR04) Common Control Blocks                                                                Page   18
0Current Usings:  (CP,R11) (CV,R12)
0Loc    Object Code    Addr1 Addr2  Stmt Lv Lineno    Source Statement           (Hibal 5, Asmedit 3.3)  HLASM R4.0  2004/03/15 12.41
+___    ______ ____    _____ _____  ____ __ ______    ______ _________
0                                   7099              *
                                    7100              *  FEAL STREAM ENCRYPT ROUTINES
                                    7101              *
                                    7102              *  FENCRYPT:
                                    7103              *        R1,R0 - LOC LENGTH OF BUFFER TO ENCRYPT (IN PLACE)
                                    7104              *        @R2 - FCRYPTWA
                                    7105              *
                                    7106              *  NOTES:
                                    7107              *  FEAL ENCRYPTION WORK AREA MUST BE INITIALIZED BEFORE
                                    7108              *  CALLING FENCRYPT/FDECRYPT.
                                    7109              *
                                    7110              *  CAUTION*** SEPARATE WORK AREAS MUST BE USED FOR THE OUTPUT
                                    7111              *  (ENCRYPTED) STREAM AND THE INPUT (DECRYPTED) STREAM.
                                    7112              *
                                    7113              *  ALGORITHM CLOSELY FOLLOWS C-LANGUAGE ALGORITHM FOUND IN COMMENTS.
                                    7114              *
 0001D4 50E0 D000/9008_      00000  7115              FENCRYPT XPROC
 USING  *,R7
 USING  FCRYPTWA,R2                 7155                       USING FCRYPTWA,R2
 0001EE 1A01                        7164                       AR    R0,R1
 0001F0 1B66                        7165                       CLEAR R6
 0001F2 1BFF                        7169                       CLEAR R15
                                    7173
                                    7174                       COMMENT                   LOOP ENCRYPTING
 0001F4 5830 2000            00000  7175                       L     R3,FCINDEX
 0001F8 1910/47B0 7066              7176                       WHILE (R1,LT,R0),BEGIN
 0001FE 5930 7112/4770_      00300  7193  1                      IF    (R3,EQ,8),BEGIN
 000206 D207 200C 2014 0000C 00014  7210  2                        MVC   FCTEXT,FCCIPHER
 00020C 9002 D000/41D0_      00000  7211  2                        XPUSH R0,R2
 000214 4100 2004            00004  7214  2                        LA    R0,FCKEY
 000218 4110 200C            0000C  7215  2                        LA    R1,FCTEXT
 00021C 4120 2014            00014  7216  2                        LA    R2,FCCIPHER
 000220 58E0 7116/0DEE       00304  7217  2                        ACALL FEALBLKE
 000226 4BD0 711E/9802_      0030C  7221  2                        XPOP  R0,R2
 00022E 1B33                        7224  2                        CLEAR R3
 000230                             7228  1                      END
 000230 4360 1000            00000  7232  1                      IC    R6,@R1
 000234 43F3 2004            00004  7233  1                      IC    R15,FCKEY(R3)
 000238 17F6                        7234  1                      XR    R15,R6
 00023A 42F3 2004            00004  7235  1                      STC   R15,FCKEY(R3)
 00023E 43F3 2014            00014  7236  1                      IC    R15,FCCIPHER(R3)
 000242 17F6                        7237  1                      XR    R15,R6
 000244 42F0 1000            00000  7238  1                      STC   R15,@R1
 000248 5E30 711A            00308  7239  1                      INCR  R3
 00024C 5E10 711A            00308  7242  1                      INCR  R1
 000250 47F0 700A            001F8  7245                       END
 000254 5030 2000            00000  7250                       ST    R3,FCINDEX
 000258 18D8/9808 D004_             7251                       PEND
 DROP   *,R7
 DROP   FCRYPTWA,R2                 7271                       DROP  R2
1CRYPT    (CRYP0060) (12:41) (15MAR04) Common Control Blocks                                                                Page   19
0Current Usings:  (CP,R11) (CV,R12)
0Loc    Object Code    Addr1 Addr2  Stmt Lv Lineno    Source Statement           (Hibal 5, Asmedit 3.3)  HLASM R4.0  2004/03/15 12.41
+___    ______ ____    _____ _____  ____ __ ______    ______ _________
0                                   7279              *
                                    7280              *  FEAL STREAM DECRYPT ROUTINES
                                    7281              *
                                    7282              *  FDECRYPT:
                                    7283              *        R1,R0 - LOC LENGTH OF BUFFER TO DECRYPT (IN PLACE)
                                    7284              *        @R2 - FCRYPTWA
                                    7285              *
                                    7286              *  NOTES:
                                    7287              *  FEAL ENCRYPTION WORK AREA MUST BE INITIALIZED BEFORE
                                    7288              *  CALLING FENCRYPT/FDECRYPT.
                                    7289              *
                                    7290              *  CAUTION*** SEPARATE WORK AREAS MUST BE USED FOR THE OUTPUT
                                    7291              *  (ENCRYPTED) STREAM AND THE INPUT (DECRYPTED) STREAM.
                                    7292              *
                                    7293              *  ALGORITHM CLOSELY FOLLOWS C-LANGUAGE ALGORITHM FOUND IN COMMENTS.
                                    7294              *
 000266 50E0 D000/9008_      00000  7295              FDECRYPT XPROC
 USING  *,R7
 USING  FCRYPTWA,R2                 7335                       USING FCRYPTWA,R2
 000280 1A01                        7344                       AR    R0,R1
 000282 1B66                        7345                       CLEAR R6
 000284 1BFF                        7349                       CLEAR R15
                                    7353
                                    7354                       COMMENT                   LOOP DECRYPTING
 000286 5830 2000            00000  7355                       L     R3,FCINDEX
 00028A 1910/47B0 7068              7356                       WHILE (R1,LT,R0),BEGIN
 000290 5930 7080/4770_      00300  7373  1                      IF    (R3,EQ,8),BEGIN
 000298 D207 200C 2014 0000C 00014  7390  2                        MVC   FCTEXT,FCCIPHER
 00029E 9002 D000/41D0_      00000  7391  2                        XPUSH R0,R2
 0002A6 4100 2004            00004  7394  2                        LA    R0,FCKEY
 0002AA 4110 200C            0000C  7395  2                        LA    R1,FCTEXT
 0002AE 4120 2014            00014  7396  2                        LA    R2,FCCIPHER
 0002B2 58E0 7084/0DEE       00304  7397  2                        ACALL FEALBLKE
 0002B8 4BD0 708C/9802_      0030C  7401  2                        XPOP  R0,R2
 0002C0 1B33                        7404  2                        CLEAR R3
 0002C2                             7408  1                      END
 0002C2 4360 1000            00000  7412  1                      IC    R6,@R1
 0002C6 43F3 2014            00014  7413  1                      IC    R15,FCCIPHER(R3)
 0002CA 17F6                        7414  1                      XR    R15,R6
 0002CC 42F0 1000            00000  7415  1                      STC   R15,@R1
 0002D0 186F                        7416  1                      LR    R6,R15
 0002D2 43F3 2004            00004  7417  1                      IC    R15,FCKEY(R3)
 0002D6 17F6                        7418  1                      XR    R15,R6
 0002D8 42F3 2004            00004  7419  1                      STC   R15,FCKEY(R3)
 0002DC 5E30 7088            00308  7420  1                      INCR  R3
 0002E0 5E10 7088            00308  7423  1                      INCR  R1
 0002E4 47F0 700A            0028A  7426                       END
 0002E8 5030 2000            00000  7431                       ST    R3,FCINDEX
 0002EC 18D8/9808 D004_             7432                       PEND
 DROP   *,R7
 DROP   FCRYPTWA,R2                 7452                       DROP  R2
                                    7459                       QLTORG
1CRYPT    (CRYP0060) (12:41) (15MAR04) Common Control Blocks                                                                Page   20
0Current Usings:  (CP,R11) (CV,R12)
0Loc    Object Code    Addr1 Addr2  Stmt Lv Lineno    Source Statement           (Hibal 5, Asmedit 3.3)  HLASM R4.0  2004/03/15 12.41
+___    ______ ____    _____ _____  ____ __ ______    ______ _________
0                                   7476              *
                                    7477              */*
                                    7478              * * feal algorithm
                                    7479              * *
                                    7480              * */
                                    7481              *
                                    7482              *#define f(a0,a1,a2,a3,b0,b1,f0,f1,f2,f3)  \
                                    7483              *  { \
                                    7484              *    f1 = (a1) ^ (b0) ^ (a0);  \
                                    7485              *    f2 = (a2) ^ (b1) ^ (a3);  \
                                    7486              *    s1( f1, f2, f1 );  \
                                    7487              *    s0( f2, f1, f2 );  \
                                    7488              *    s0( (a0), f1, f0 );   \
                                    7489              *    s1( (a3), f2, f3 );  \
                                    7490              *  }
                                    7491              *
                                    7492              *
                                    7493              *#define fk(a0,a1,a2,a3,b0,b1,b2,b3,fk0,fk1,fk2,fk3) \
                                    7494              *  { \
                                    7495              *    fk1 = (a0) ^ (a1); \
                                    7496              *    fk2 = (a2) ^ (a3); \
                                    7497              *    s1( fk1, fk2 ^ (b0), fk1 ); \
                                    7498              *    s0( fk2, fk1 ^ (b1), fk2 ); \
                                    7499              *    s0( (a0),  fk1 ^ (b2), fk0 ); \
                                    7500              *    s1( (a3),  fk2 ^ (b3), fk3 ); \
                                    7501              *  }
                                    7502              *
                                    7503              *
                                    7504              *#define s0(a0,b0,f0) \
                                    7505              *  { \
                                    7506              *    f0 = (a0) + (b0); \
                                    7507              *    rot2( f0 ); \
                                    7508              *  }
                                    7509              *
                                    7510              *
                                    7511              *#define s1(a0,b0,f0) \
                                    7512              *  { \
                                    7513              *    f0 = (a0) + (b0) + 1; \
                                    7514              *    rot2( f0 ); \
                                    7515              *  }
                                    7516              *
                                    7517              *#define rot2(f0) \
                                    7518              *  { \
                                    7519              *    f0 = (f0 << 2) | ((f0 >> 6) & 0x03); \
                                    7520              *  }
                                    7521              *
1CRYPT    (CRYP0060) (12:41) (15MAR04) Common Control Blocks                                                                Page   21
0Current Usings:  (CP,R11) (CV,R12)
0Loc    Object Code    Addr1 Addr2  Stmt Lv Lineno    Source Statement           (Hibal 5, Asmedit 3.3)  HLASM R4.0  2004/03/15 12.41
+___    ______ ____    _____ _____  ____ __ ______    ______ _________
0                                   7523              *
                                    7524              *  FEAL BLOCK MACROS AND WORK AREA
                                    7525              *
                                    7526              *  FROM C-CODE;   SEE COMMENTS ON PREVIOUS PAGE, ETC.
                                    7527              *
0                                   7529              *
                                    7530              *  F
                                    7531              *
                                    7532                       MACRO
                                    7533                       F     &A0,&A1,&A2,&A3,&B0,&B1,&F0,&F1,&F2,&F3
                                    7534                       XXXOR &F1,&A1,&B0,&A0
                                    7535                       XXXOR &F2,&A2,&B1,&A3
                                    7536                       S1    &F1,&F2,&F1
                                    7537                       S0    &F2,&F1,&F2
                                    7538                       S0    &A0,&F1,&F0
                                    7539                       S1    &A3,&F2,&F3
                                    7540                       MEND
                                    7541              *
                                    7542              *  FK
                                    7543              *
                                    7544                       MACRO
                                    7545            C          FK    &A0,&A1,&A2,&A3,
                                                    C                &B0,&B0X,&B1,&B1X,&B2,&B2X,&B3,&B3X,
                                                                     &FK0,&FK1,&FK2,&FK3
                                    7546                       XOR   &FK1,&A0,&A1
                                    7547                       XOR   &FK2,&A2,&A3
                                    7548                       XXXOR TEMP,&FK2,&B0,&B0X
                                    7549                       S1    &FK1,TEMP,&FK1
                                    7550                       XXXOR TEMP,&FK1,&B1,&B1X
                                    7551                       S0    &FK2,TEMP,&FK2
                                    7552                       XXXOR TEMP,&FK1,&B2,&B2X
                                    7553                       S0    &A0,TEMP,&FK0
                                    7554                       XXXOR TEMP,&FK2,&B3,&B3X
                                    7555                       S1    &A3,TEMP,&FK3
                                    7556                       MEND
                                    7557              *
                                    7558              *  S0
                                    7559              *
                                    7560                       MACRO
                                    7561                       S0    &A0,&B0,&F0
                                    7562                       CLEAR R0
                                    7563                       CLEAR R1
                                    7564                       CLEAR R2
                                    7565                       IC    R0,&A0
                                    7566                       IC    R1,&B0
                                    7567                       LA    R2,X'FF'
                                    7568                       AR    R0,R1
                                    7569                       NR    R0,R2
                                    7570                       LR    R1,R0
                                    7571                       SLL   R0,2
                                    7572                       SRL   R1,6
                                    7573                       OR    R0,R1
                                    7574                       NR    R0,R2
1CRYPT    (CRYP0060) (12:41) (15MAR04) Common Control Blocks                                                                Page   22
0Current Usings:  (CP,R11) (CV,R12)
0Loc    Object Code    Addr1 Addr2  Stmt Lv Lineno    Source Statement           (Hibal 5, Asmedit 3.3)  HLASM R4.0  2004/03/15 12.41
+___    ______ ____    _____ _____  ____ __ ______    ______ _________
0                                   7575                       STC   R0,&F0
                                    7576                       MEND
                                    7577              *
                                    7578              *  S1
                                    7579              *
                                    7580                       MACRO
                                    7581                       S1    &A0,&B0,&F0
                                    7582                       CLEAR R0
                                    7583                       CLEAR R1
                                    7584                       CLEAR R2
                                    7585                       IC    R0,&A0
                                    7586                       IC    R1,&B0
                                    7587                       LA    R2,X'FF'
                                    7588                       AR    R0,R1
                                    7589                       A     R0,=F'1'
                                    7590                       NR    R0,R2
                                    7591                       LR    R1,R0
                                    7592                       SLL   R0,2
                                    7593                       SRL   R1,6
                                    7594                       OR    R0,R1
                                    7595                       NR    R0,R2
                                    7596                       STC   R0,&F0
                                    7597                       MEND
                                    7598              *
                                    7599              *  LOADC
                                    7600              *
                                    7601                       MACRO
                                    7602                       LOADC &A0,&B0
                                    7603                       MVC   &A0.(1),&B0
                                    7604                       MEND
                                    7605              *
                                    7606              *  LOADX
                                    7607              *
                                    7608                       MACRO
                                    7609                       LOADX &A0,&B0
                                    7610                       XC    &A0.(1),&B0
                                    7611                       MEND
                                    7612              *
                                    7613              *  XOR
                                    7614              *
                                    7615                       MACRO
                                    7616                       XOR   &F0,&A0,&B0
                                    7617                       MVC   &F0.(1),&A0
                                    7618                       XC    &F0.(1),&B0
                                    7619                       MEND
                                    7620              *
                                    7621              *  XXXOR
                                    7622              *
                                    7623                       MACRO
                                    7624                       XXXOR &F0,&A0,&B0,&C0
                                    7625                       MVC   &F0.(1),&A0
                                    7626                       XC    &F0.(1),&B0
                                    7627                       XC    &F0.(1),&C0
                                    7628                       MEND
1CRYPT    (CRYP0060) (12:41) (15MAR04) Common Control Blocks                                                                Page   23
0Current Usings:  (CP,R11) (CV,R12)
0Loc    Object Code    Addr1 Addr2  Stmt Lv Lineno    Source Statement           (Hibal 5, Asmedit 3.3)  HLASM R4.0  2004/03/15 12.41
+___    ______ ____    _____ _____  ____ __ ______    ______ _________
0                                   7629              *
                                    7630              *  CHARS
                                    7631              *
                                    7632                       MACRO
                                    7633                       CHARS &P1,&P2,&P3,&P4,&P5,&P6,&P7,&P8,&P9
                                    7634                       AIF   ('&P1' EQ '').CDONE
                                    7635              &P1      DS    CL1
                                    7636                       AIF   ('&P2' EQ '').CDONE
                                    7637              &P2      DS    CL1
                                    7638                       AIF   ('&P3' EQ '').CDONE
                                    7639              &P3      DS    CL1
                                    7640                       AIF   ('&P4' EQ '').CDONE
                                    7641              &P4      DS    CL1
                                    7642                       AIF   ('&P5' EQ '').CDONE
                                    7643              &P5      DS    CL1
                                    7644                       AIF   ('&P6' EQ '').CDONE
                                    7645              &P6      DS    CL1
                                    7646                       AIF   ('&P7' EQ '').CDONE
                                    7647              &P7      DS    CL1
                                    7648                       AIF   ('&P8' EQ '').CDONE
                                    7649              &P8      DS    CL1
                                    7650                       AIF   ('&P9' EQ '').CDONE
                                    7651              &P9      DS    CL1
                                    7652              .CDONE   ANOP
                                    7653                       MEND
                                    7654              *
                                    7655              *
                                    7656              *  FEALBWA  - FEAL BLOCK ENCODE/DECODE WORK AREA
                                    7657              *
                                    7658              *
                                    7659              *
 000000                00000 00072  7660              FEALBWA  RECORD BEGIN
 000000                             7668  1           KEY        DS    CL8
 000008                             7669  1           TEXT       DS    CL8
 000010                             7670  1           CIPHER     DS    CL8
                                    7671  1                      CHARS P0,P1,P2,P3,P4,P5,P6,P7
 000018                             7672  1 01-07635 +P0         DS    CL1
 000019                             7673  1 01-07637 +P1         DS    CL1
 00001A                             7674  1 01-07639 +P2         DS    CL1
 00001B                             7675  1 01-07641 +P3         DS    CL1
 00001C                             7676  1 01-07643 +P4         DS    CL1
 00001D                             7677  1 01-07645 +P5         DS    CL1
 00001E                             7678  1 01-07647 +P6         DS    CL1
 00001F                             7679  1 01-07649 +P7         DS    CL1
                                    7680  1                      CHARS KEYB0,KEYB1,KEYB2,KEYB3,KEYB4,KEYB5,KEYB6,KEYB7
 000020                             7681  1 01-07635 +KEYB0      DS    CL1
 000021                             7682  1 01-07637 +KEYB1      DS    CL1
 000022                             7683  1 01-07639 +KEYB2      DS    CL1
 000023                             7684  1 01-07641 +KEYB3      DS    CL1
 000024                             7685  1 01-07643 +KEYB4      DS    CL1
 000025                             7686  1 01-07645 +KEYB5      DS    CL1
 000026                             7687  1 01-07647 +KEYB6      DS    CL1
 000027                             7688  1 01-07649 +KEYB7      DS    CL1
                                    7689  1                      CHARS C0,C1,C2,C3,C4,C5,C6,C7
1CRYPT    (CRYP0060) (12:41) (15MAR04) Common Control Blocks                                                                Page   24
0Current Usings:  (CP,R11) (CV,R12)
0Loc    Object Code    Addr1 Addr2  Stmt Lv Lineno    Source Statement           (Hibal 5, Asmedit 3.3)  HLASM R4.0  2004/03/15 12.41
+___    ______ ____    _____ _____  ____ __ ______    ______ _________
0000028                             7690  1 01-07635 +C0         DS    CL1
 000029                             7691  1 01-07637 +C1         DS    CL1
 00002A                             7692  1 01-07639 +C2         DS    CL1
 00002B                             7693  1 01-07641 +C3         DS    CL1
 00002C                             7694  1 01-07643 +C4         DS    CL1
 00002D                             7695  1 01-07645 +C5         DS    CL1
 00002E                             7696  1 01-07647 +C6         DS    CL1
 00002F                             7697  1 01-07649 +C7         DS    CL1
                                    7698  1                      CHARS K0B0,K0B1,K1B0,K1B1,K2B0,K2B1,K3B0,K3B1
 000030                             7699  1 01-07635 +K0B0       DS    CL1
 000031                             7700  1 01-07637 +K0B1       DS    CL1
 000032                             7701  1 01-07639 +K1B0       DS    CL1
 000033                             7702  1 01-07641 +K1B1       DS    CL1
 000034                             7703  1 01-07643 +K2B0       DS    CL1
 000035                             7704  1 01-07645 +K2B1       DS    CL1
 000036                             7705  1 01-07647 +K3B0       DS    CL1
 000037                             7706  1 01-07649 +K3B1       DS    CL1
                                    7707  1                      CHARS K4B0,K4B1,K5B0,K5B1,K6B0,K6B1,K7B0,K7B1
 000038                             7708  1 01-07635 +K4B0       DS    CL1
 000039                             7709  1 01-07637 +K4B1       DS    CL1
 00003A                             7710  1 01-07639 +K5B0       DS    CL1
 00003B                             7711  1 01-07641 +K5B1       DS    CL1
 00003C                             7712  1 01-07643 +K6B0       DS    CL1
 00003D                             7713  1 01-07645 +K6B1       DS    CL1
 00003E                             7714  1 01-07647 +K7B0       DS    CL1
 00003F                             7715  1 01-07649 +K7B1       DS    CL1
                                    7716  1                      CHARS K8B0,K8B1,K9B0,K9B1,KAB0,KAB1,KBB0,KBB1
 000040                             7717  1 01-07635 +K8B0       DS    CL1
 000041                             7718  1 01-07637 +K8B1       DS    CL1
 000042                             7719  1 01-07639 +K9B0       DS    CL1
 000043                             7720  1 01-07641 +K9B1       DS    CL1
 000044                             7721  1 01-07643 +KAB0       DS    CL1
 000045                             7722  1 01-07645 +KAB1       DS    CL1
 000046                             7723  1 01-07647 +KBB0       DS    CL1
 000047                             7724  1 01-07649 +KBB1       DS    CL1
                                    7725  1                      CHARS KCB0,KCB1,KDB0,KDB1,KEB0,KEB1,KFB0,KFB1
 000048                             7726  1 01-07635 +KCB0       DS    CL1
 000049                             7727  1 01-07637 +KCB1       DS    CL1
 00004A                             7728  1 01-07639 +KDB0       DS    CL1
 00004B                             7729  1 01-07641 +KDB1       DS    CL1
 00004C                             7730  1 01-07643 +KEB0       DS    CL1
 00004D                             7731  1 01-07645 +KEB1       DS    CL1
 00004E                             7732  1 01-07647 +KFB0       DS    CL1
 00004F                             7733  1 01-07649 +KFB1       DS    CL1
                                    7734  1                      CHARS F0B0,F0B1,F0B2,F0B3,F1B0,F1B1,F1B2,F1B3
 000050                             7735  1 01-07635 +F0B0       DS    CL1
 000051                             7736  1 01-07637 +F0B1       DS    CL1
 000052                             7737  1 01-07639 +F0B2       DS    CL1
 000053                             7738  1 01-07641 +F0B3       DS    CL1
 000054                             7739  1 01-07643 +F1B0       DS    CL1
 000055                             7740  1 01-07645 +F1B1       DS    CL1
 000056                             7741  1 01-07647 +F1B2       DS    CL1
 000057                             7742  1 01-07649 +F1B3       DS    CL1
                                    7743  1                      CHARS F2B0,F2B1,F2B2,F2B3,F3B0,F3B1,F3B2,F3B3
1CRYPT    (CRYP0060) (12:41) (15MAR04) Common Control Blocks                                                                Page   25
0Current Usings:  (CP,R11) (CV,R12)
0Loc    Object Code    Addr1 Addr2  Stmt Lv Lineno    Source Statement           (Hibal 5, Asmedit 3.3)  HLASM R4.0  2004/03/15 12.41
+___    ______ ____    _____ _____  ____ __ ______    ______ _________
0000058                             7744  1 01-07635 +F2B0       DS    CL1
 000059                             7745  1 01-07637 +F2B1       DS    CL1
 00005A                             7746  1 01-07639 +F2B2       DS    CL1
 00005B                             7747  1 01-07641 +F2B3       DS    CL1
 00005C                             7748  1 01-07643 +F3B0       DS    CL1
 00005D                             7749  1 01-07645 +F3B1       DS    CL1
 00005E                             7750  1 01-07647 +F3B2       DS    CL1
 00005F                             7751  1 01-07649 +F3B3       DS    CL1
                                    7752  1                      CHARS F4B0,F4B1,F4B2,F4B3,F5B0,F5B1,F5B2,F5B3
 000060                             7753  1 01-07635 +F4B0       DS    CL1
 000061                             7754  1 01-07637 +F4B1       DS    CL1
 000062                             7755  1 01-07639 +F4B2       DS    CL1
 000063                             7756  1 01-07641 +F4B3       DS    CL1
 000064                             7757  1 01-07643 +F5B0       DS    CL1
 000065                             7758  1 01-07645 +F5B1       DS    CL1
 000066                             7759  1 01-07647 +F5B2       DS    CL1
 000067                             7760  1 01-07649 +F5B3       DS    CL1
                                    7761  1                      CHARS F6B0,F6B1,F6B2,F6B3,F7B0,F7B1,F7B2,F7B3
 000068                             7762  1 01-07635 +F6B0       DS    CL1
 000069                             7763  1 01-07637 +F6B1       DS    CL1
 00006A                             7764  1 01-07639 +F6B2       DS    CL1
 00006B                             7765  1 01-07641 +F6B3       DS    CL1
 00006C                             7766  1 01-07643 +F7B0       DS    CL1
 00006D                             7767  1 01-07645 +F7B1       DS    CL1
 00006E                             7768  1 01-07647 +F7B2       DS    CL1
 00006F                             7769  1 01-07649 +F7B3       DS    CL1
                                    7770  1                      CHARS ZERO,TEMP
 000070                             7771  1 01-07635 +ZERO       DS    CL1
 000071                             7772  1 01-07637 +TEMP       DS    CL1
 000072                00072 00072  7773                       END
1CRYPT    (CRYP0060) (12:41) (15MAR04) Common Control Blocks                                                                Page   26
0Current Usings:  (CP,R11) (CV,R12)
0Loc    Object Code    Addr1 Addr2  Stmt Lv Lineno    Source Statement           (Hibal 5, Asmedit 3.3)  HLASM R4.0  2004/03/15 12.41
+___    ______ ____    _____ _____  ____ __ ______    ______ _________
0                                   7783              *
                                    7784              *   FEALBLKE - FEAL BLOCK ENCODE
                                    7785              *
                                    7786              *   AS CONVERTED FROM C-CODE
                                    7787              *
                                    7788              *   ON ENTRY:
                                    7789              *        @R0 - KEY (8 CHAR)
                                    7790              *        @R1 - TEXT (8 CHAR)
                                    7791              *        @R2 - CIPHER (8 CHAR)   (RETURNED)
                                    7792              *
                                    7793              *
                                    7794              *
                                    7795              *
                                    7796              */*
                                    7797              * *  implementation of feal algorithm
                                    7798              * *
                                    7799              * *  see advances in cryptology - eurocrypt '87
                                    7800              * *
                                    7801              * */
                                    7802              *static void
                                    7803              *feal_block_e(key,text,cipher)
                                    7804              *  unsigned char key[8];
                                    7805              *  unsigned char text[8];
                                    7806              *  unsigned char cipher[8];
                                    7807              *
                                    7808              *{
                                    7809              *  /*  pn - plaintext, keybn - key, cn - ciphertext      */
                                    7810              *  /*  knbn - expanded key, fnbn - temp output from f block */
                                    7811              *
                                    7812              *  unsigned char p0,p1,p2,p3,p4,p5,p6,p7;
                                    7813              *  unsigned char keyb0,keyb1,keyb2,keyb3,keyb4,keyb5,keyb6,keyb7;
                                    7814              *  unsigned char c0,c1,c2,c3,c4,c5,c6,c7;
                                    7815              *  unsigned char k0b0,k0b1,k1b0,k1b1,k2b0,k2b1,k3b0,k3b1;
                                    7816              *  unsigned char k4b0,k4b1,k5b0,k5b1,k6b0,k6b1,k7b0,k7b1;
                                    7817              *  unsigned char k8b0,k8b1,k9b0,k9b1,kab0,kab1,kbb0,kbb1;
                                    7818              *  unsigned char kcb0,kcb1,kdb0,kdb1,keb0,keb1,kfb0,kfb1;
                                    7819              *  unsigned char f0b0,f0b1,f0b2,f0b3,f1b0,f1b1,f1b2,f1b3;
                                    7820              *  unsigned char f2b0,f2b1,f2b2,f2b3,f3b0,f3b1,f3b2,f3b3;
                                    7821              *  unsigned char f4b0,f4b1,f4b2,f4b3,f5b0,f5b1,f5b2,f5b3;
                                    7822              *  unsigned char f6b0,f6b1,f6b2,f6b3,f7b0,f7b1,f7b2,f7b3;
                                    7823              *
 00030E 50E0 D000/9008_      00000  7824              FEALBLKE XPROC FEALBWA
 USING  *,R7
 USING  FEALBWA-(4+36),R8
                                    7875
 000328 4160 77E6            00B0E  7876                       LA    R6,FEALBLKE+2048
 USING  FEALBLKE+2048,R6            7877                       USING FEALBLKE+2048,R6
                                    7886
 00032C D771 8028 8028 00000 00000  7887                       CLEAR FEALBWA
 000332 1830                        7894                       LR    R3,R0
 000334 D207 8028 3000 00000 00000  7895                       MVC   KEY,@R3
 00033A D207 8030 1000 00008 00000  7896                       MVC   TEXT,@R1
 000340 5020 D000/41D0_      00000  7897                       XPUSH R2                  SAVE CIPHER RETURN ADDRESS
                                    7900
1CRYPT    (CRYP0060) (12:41) (15MAR04) Common Control Blocks                                                                Page   27
0Current Usings:  (FEALBLKE+2048,R6) (*,R7) (FEALBWA-(4+36),R8) (CP,R11) (CV,R12)
0Loc    Object Code    Addr1 Addr2  Stmt Lv Lineno    Source Statement           (Hibal 5, Asmedit 3.3)  HLASM R4.0  2004/03/15 12.41
+___    ______ ____    _____ _____  ____ __ ______    ______ _________
0000348 1B00                        7901                       CLEAR R0
 00034A 1B11                        7905                       CLEAR R1
 00034C 1B22                        7909                       CLEAR R2
 00034E 1B33                        7913                       CLEAR R3
 000350 1B44                        7917                       CLEAR R4
 000352 1B55                        7921                       CLEAR R5
                                    7925              *
                                    7926              *  /* init variables */
                                    7927              *  p0 = text[0]; p1 = text[1]; p2 = text[2]; p3 = text[3];
                                    7928              *  p4 = text[4]; p5 = text[5]; p6 = text[6]; p7 = text[7];
                                    7929              *  keyb0 = key[0]; keyb1 = key[1]; keyb2 = key[2]; keyb3 = key[3];
                                    7930              *  keyb4 = key[4]; keyb5 = key[5]; keyb6 = key[6]; keyb7 = key[7];
                                    7931              *
 000354 D200 8040 8030 00018 00008  7932                       LOADC P0,TEXT+0
 00035A D200 8041 8031 00019 00009  7934                       LOADC P1,TEXT+1
 000360 D200 8042 8032 0001A 0000A  7936                       LOADC P2,TEXT+2
 000366 D200 8043 8033 0001B 0000B  7938                       LOADC P3,TEXT+3
 00036C D200 8044 8034 0001C 0000C  7940                       LOADC P4,TEXT+4
 000372 D200 8045 8035 0001D 0000D  7942                       LOADC P5,TEXT+5
 000378 D200 8046 8036 0001E 0000E  7944                       LOADC P6,TEXT+6
 00037E D200 8047 8037 0001F 0000F  7946                       LOADC P7,TEXT+7
 000384 D200 8048 8028 00020 00000  7948                       LOADC KEYB0,KEY+0
 00038A D200 8049 8029 00021 00001  7950                       LOADC KEYB1,KEY+1
 000390 D200 804A 802A 00022 00002  7952                       LOADC KEYB2,KEY+2
 000396 D200 804B 802B 00023 00003  7954                       LOADC KEYB3,KEY+3
 00039C D200 804C 802C 00024 00004  7956                       LOADC KEYB4,KEY+4
 0003A2 D200 804D 802D 00025 00005  7958                       LOADC KEYB5,KEY+5
 0003A8 D200 804E 802E 00026 00006  7960                       LOADC KEYB6,KEY+6
 0003AE D200 804F 802F 00027 00007  7962                       LOADC KEYB7,KEY+7
                                    7964              *
                                    7965              *  /* expand key */
                                    7966              *
                                    7967              *  /* expand key ( keyb0, ... keyb7, k0b1,k0b2, .....kfb0,kfb1)  */
                                    7968              *
                                    7969              *  /* fk0 */
                                    7970              *  fk(keyb0,keyb1,keyb2,keyb3,
                                    7971              *     keyb4,keyb5,keyb6,keyb7,
                                    7972              *     k0b0,k0b1,k1b0,k1b1);
                                    7973              *
                                    7974            C          FK    KEYB0,KEYB1,KEYB2,KEYB3,
                                                    C                KEYB4,ZERO,KEYB5,ZERO,KEYB6,ZERO,KEYB7,ZERO,
 0003B4 D200 8059 8048_00031 00020                                   K0B0,K0B1,K1B0,K1B1
                                    8095              *
                                    8096              *  /* fk1 */
                                    8097              *  fk(keyb4,keyb5,keyb6,keyb7,
                                    8098              *     k0b0^keyb0,k0b1^keyb1,k1b0^keyb2,k1b1^keyb3,
                                    8099              *     k2b0,k2b1,k3b0,k3b1);
                                    8100              *
                                    8101            C          FK    KEYB4,KEYB5,KEYB6,KEYB7,
                                                    C                K0B0,KEYB0,K0B1,KEYB1,K1B0,KEYB2,K1B1,KEYB3,
 0004BC D200 805D 804C_00035 00024                                   K2B0,K2B1,K3B0,K3B1
                                    8222              *
                                    8223              *  /* fk2 */
                                    8224              *  fk(k0b0,k0b1,k1b0,k1b1,
1CRYPT    (CRYP0060) (12:41) (15MAR04) Common Control Blocks                                                                Page   28
0Current Usings:  (FEALBLKE+2048,R6) (*,R7) (FEALBWA-(4+36),R8) (CP,R11) (CV,R12)
0Loc    Object Code    Addr1 Addr2  Stmt Lv Lineno    Source Statement           (Hibal 5, Asmedit 3.3)  HLASM R4.0  2004/03/15 12.41
+___    ______ ____    _____ _____  ____ __ ______    ______ _________
0                                   8225              *     k2b0^keyb4,k2b1^keyb5,k3b0^keyb6,k3b1^keyb7,
                                    8226              *     k4b0,k4b1,k5b0,k5b1);
                                    8227              *
                                    8228            C          FK    K0B0,K0B1,K1B0,K1B1,
                                                    C                K2B0,KEYB4,K2B1,KEYB5,K3B0,KEYB6,K3B1,KEYB7,
 0005C4 D200 8061 8058_00039 00030                                   K4B0,K4B1,K5B0,K5B1
                                    8349              *
                                    8350              *  /* fk3 */
                                    8351              *  fk(k2b0,k2b1,k3b0,k3b1,
                                    8352              *     k4b0^k0b0,k4b1^k0b1,k5b0^k1b0,k5b1^k1b1,
                                    8353              *     k6b0,k6b1,k7b0,k7b1);
                                    8354              *
                                    8355            C          FK    K2B0,K2B1,K3B0,K3B1,
                                                    C                K4B0,K0B0,K4B1,K0B1,K5B0,K1B0,K5B1,K1B1,
 0006CC D200 8065 805C_0003D 00034                                   K6B0,K6B1,K7B0,K7B1
                                    8476              *
                                    8477              *  /* fk4 */
                                    8478              *  fk(k4b0,k4b1,k5b0,k5b1,
                                    8479              *     k6b0^k2b0,k6b1^k2b1,k7b0^k3b0,k7b1^k3b1,
                                    8480              *     k8b0,k8b1,k9b0,k9b1);
                                    8481              *
                                    8482            C          FK    K4B0,K4B1,K5B0,K5B1,
                                                    C                K6B0,K2B0,K6B1,K2B1,K7B0,K3B0,K7B1,K3B1,
 0007D4 D200 8069 8060_00041 00038                                   K8B0,K8B1,K9B0,K9B1
                                    8603              *
                                    8604              *  /* fk5 */
                                    8605              *  fk(k6b0,k6b1,k7b0,k7b1,
                                    8606              *     k8b0^k4b0,k8b1^k4b1,k9b0^k5b0,k9b1^k5b1,
                                    8607              *     kab0,kab1,kbb0,kbb1);
                                    8608              *
                                    8609            C          FK    K6B0,K6B1,K7B0,K7B1,
                                                    C                K8B0,K4B0,K8B1,K4B1,K9B0,K5B0,K9B1,K5B1,
 0008DC D200 806D 8064_00045 0003C                                   KAB0,KAB1,KBB0,KBB1
                                    8730              *
                                    8731              *  /* fk6 */
                                    8732              *  fk(k8b0,k8b1,k9b0,k9b1,
                                    8733              *     kab0^k6b0,kab1^k6b1,kbb0^k7b0,kbb1^k7b1,
                                    8734              *     kcb0,kcb1,kdb0,kdb1);
                                    8735              *
                                    8736            C          FK    K8B0,K8B1,K9B0,K9B1,
                                                    C                KAB0,K6B0,KAB1,K6B1,KBB0,K7B0,KBB1,K7B1,
 0009E4 D200 8071 8068_00049 00040                                   KCB0,KCB1,KDB0,KDB1
                                    8857              *
                                    8858              *  /* fk7 */
                                    8859              *  fk(kab0,kab1,kbb0,kbb1,
                                    8860              *     kcb0^k8b0,kcb1^k8b1,kdb0^k9b0,kdb1^k9b1,
                                    8861              *     keb0,keb1,kfb0,kfb1);
                                    8862              *
                                    8863            C          FK    KAB0,KAB1,KBB0,KBB1,
                                                    C                KCB0,K8B0,KCB1,K8B1,KDB0,K9B0,KDB1,K9B1,
 000AEC D200 8075 806C_0004D 00044                                   KEB0,KEB1,KFB0,KFB1
                                    8984              *
                                    8985              *  /* end of expand key */
                                    8986              *
1CRYPT    (CRYP0060) (12:41) (15MAR04) Common Control Blocks                                                                Page   29
0Current Usings:  (FEALBLKE+2048,R6) (*,R7) (FEALBWA-(4+36),R8) (CP,R11) (CV,R12)
0Loc    Object Code    Addr1 Addr2  Stmt Lv Lineno    Source Statement           (Hibal 5, Asmedit 3.3)  HLASM R4.0  2004/03/15 12.41
+___    ______ ____    _____ _____  ____ __ ______    ______ _________
0                                   8987              *
                                    8988              *  /* encode text */
                                    8989              *
                                    8990              *  /*  encode (p0 ... p7, k0b0,k0b1 ...kfb0,kfb1,  c0 ... c7)  */
                                    8991              *
                                    8992              *  /* enter */
                                    8993              *  p0 ^= k8b0;
                                    8994              *  p1 ^= k8b1;
                                    8995              *  p2 ^= k9b0;
                                    8996              *  p3 ^= k9b1;
                                    8997              *  p4 ^= kab0;
                                    8998              *  p5 ^= kab1;
                                    8999              *  p6 ^= kbb0;
                                    9000              *  p7 ^= kbb1;
                                    9001              *  p4 ^= p0;
                                    9002              *  p5 ^= p1;
                                    9003              *  p6 ^= p2;
                                    9004              *  p7 ^= p3;
                                    9005              *
 000BF4 D700 8040 8068 00018 00040  9006                       LOADX P0,K8B0
 000BFA D700 8041 8069 00019 00041  9008                       LOADX P1,K8B1
 000C00 D700 8042 806A 0001A 00042  9010                       LOADX P2,K9B0
 000C06 D700 8043 806B 0001B 00043  9012                       LOADX P3,K9B1
 000C0C D700 8044 806C 0001C 00044  9014                       LOADX P4,KAB0
 000C12 D700 8045 806D 0001D 00045  9016                       LOADX P5,KAB1
 000C18 D700 8046 806E 0001E 00046  9018                       LOADX P6,KBB0
 000C1E D700 8047 806F 0001F 00047  9020                       LOADX P7,KBB1
 000C24 D700 8044 8040 0001C 00018  9022                       LOADX P4,P0
 000C2A D700 8045 8041 0001D 00019  9024                       LOADX P5,P1
 000C30 D700 8046 8042 0001E 0001A  9026                       LOADX P6,P2
 000C36 D700 8047 8043 0001F 0001B  9028                       LOADX P7,P3
                                    9030              *
                                    9031              *  /* f0 */
                                    9032              *  f(p4,p5,p6,p7,k0b0,k0b1,f0b0,f0b1,f0b2,f0b3);
                                    9033              *  f0b0 ^= p0;
                                    9034              *  f0b1 ^= p1;
                                    9035              *  f0b2 ^= p2;
                                    9036              *  f0b3 ^= p3;
                                    9037              *
 000C3C D200 8079 8045_00051 0001D  9038                       F     P4,P5,P6,P7,K0B0,K0B1,F0B0,F0B1,F0B2,F0B3
 000D08 D700 8078 8040 00050 00018  9145                       LOADX F0B0,P0
 000D0E D700 8079 8041 00051 00019  9147                       LOADX F0B1,P1
 000D14 D700 807A 8042 00052 0001A  9149                       LOADX F0B2,P2
 000D1A D700 807B 8043 00053 0001B  9151                       LOADX F0B3,P3
                                    9153              *
                                    9154              *  /* f1 */
                                    9155              *  f(f0b0,f0b1,f0b2,f0b3,k1b0,k1b1,f1b0,f1b1,f1b2,f1b3);
                                    9156              *  f1b0 ^=  p4;
                                    9157              *  f1b1 ^=  p5;
                                    9158              *  f1b2 ^=  p6;
                                    9159              *  f1b3 ^=  p7;
                                    9160              *
 000D20 D200 807D 8079_00055 00051  9161                       F     F0B0,F0B1,F0B2,F0B3,K1B0,K1B1,F1B0,F1B1,F1B2,F1B3
 000DEC D700 807C 8044 00054 0001C  9268                       LOADX F1B0,P4
1CRYPT    (CRYP0060) (12:41) (15MAR04) Common Control Blocks                                                                Page   30
0Current Usings:  (FEALBLKE+2048,R6) (*,R7) (FEALBWA-(4+36),R8) (CP,R11) (CV,R12)
0Loc    Object Code    Addr1 Addr2  Stmt Lv Lineno    Source Statement           (Hibal 5, Asmedit 3.3)  HLASM R4.0  2004/03/15 12.41
+___    ______ ____    _____ _____  ____ __ ______    ______ _________
0000DF2 D700 807D 8045 00055 0001D  9270                       LOADX F1B1,P5
 000DF8 D700 807E 8046 00056 0001E  9272                       LOADX F1B2,P6
 000DFE D700 807F 8047 00057 0001F  9274                       LOADX F1B3,P7
                                    9276              *
                                    9277              *  /* f2 */
                                    9278              *  f(f1b0,f1b1,f1b2,f1b3,k2b0,k2b1,f2b0,f2b1,f2b2,f2b3);
                                    9279              *  f2b0 ^= f0b0;
                                    9280              *  f2b1 ^= f0b1;
                                    9281              *  f2b2 ^= f0b2;
                                    9282              *  f2b3 ^= f0b3;
                                    9283              *
 000E04 D200 8081 807D_00059 00055  9284                       F     F1B0,F1B1,F1B2,F1B3,K2B0,K2B1,F2B0,F2B1,F2B2,F2B3
 000ED0 D700 8080 8078 00058 00050  9391                       LOADX F2B0,F0B0
 000ED6 D700 8081 8079 00059 00051  9393                       LOADX F2B1,F0B1
 000EDC D700 8082 807A 0005A 00052  9395                       LOADX F2B2,F0B2
 000EE2 D700 8083 807B 0005B 00053  9397                       LOADX F2B3,F0B3
                                    9399              *
                                    9400              *  /* f3 */
                                    9401              *  f(f2b0,f2b1,f2b2,f2b3,k3b0,k3b1,f3b0,f3b1,f3b2,f3b3);
                                    9402              *  f3b0 ^= f1b0;
                                    9403              *  f3b1 ^= f1b1;
                                    9404              *  f3b2 ^= f1b2;
                                    9405              *  f3b3 ^= f1b3;
                                    9406              *
 000EE8 D200 8085 8081_0005D 00059  9407                       F     F2B0,F2B1,F2B2,F2B3,K3B0,K3B1,F3B0,F3B1,F3B2,F3B3
 000FB4 D700 8084 807C 0005C 00054  9514                       LOADX F3B0,F1B0
 000FBA D700 8085 807D 0005D 00055  9516                       LOADX F3B1,F1B1
 000FC0 D700 8086 807E 0005E 00056  9518                       LOADX F3B2,F1B2
 000FC6 D700 8087 807F 0005F 00057  9520                       LOADX F3B3,F1B3
                                    9522              *
                                    9523              *  /* f4 */
                                    9524              *  f(f3b0,f3b1,f3b2,f3b3,k4b0,k4b1,f4b0,f4b1,f4b2,f4b3);
                                    9525              *  f4b0 ^= f2b0;
                                    9526              *  f4b1 ^= f2b1;
                                    9527              *  f4b2 ^= f2b2;
                                    9528              *  f4b3 ^= f2b3;
                                    9529              *
 000FCC D200 8089 8085_00061 0005D  9530                       F     F3B0,F3B1,F3B2,F3B3,K4B0,K4B1,F4B0,F4B1,F4B2,F4B3
 001098 D700 8088 8080 00060 00058  9637                       LOADX F4B0,F2B0
 00109E D700 8089 8081 00061 00059  9639                       LOADX F4B1,F2B1
 0010A4 D700 808A 8082 00062 0005A  9641                       LOADX F4B2,F2B2
 0010AA D700 808B 8083 00063 0005B  9643                       LOADX F4B3,F2B3
                                    9645              *
                                    9646              *  /* f5 */
                                    9647              *  f(f4b0,f4b1,f4b2,f4b3,k5b0,k5b1,f5b0,f5b1,f5b2,f5b3);
                                    9648              *  f5b0 ^= f3b0;
                                    9649              *  f5b1 ^= f3b1;
                                    9650              *  f5b2 ^= f3b2;
                                    9651              *  f5b3 ^= f3b3;
                                    9652              *
 0010B0 D200 808D 8089_00065 00061  9653                       F     F4B0,F4B1,F4B2,F4B3,K5B0,K5B1,F5B0,F5B1,F5B2,F5B3
 00117C D700 808C 8084 00064 0005C  9760                       LOADX F5B0,F3B0
 001182 D700 808D 8085 00065 0005D  9762                       LOADX F5B1,F3B1
 001188 D700 808E 8086 00066 0005E  9764                       LOADX F5B2,F3B2
1CRYPT    (CRYP0060) (12:41) (15MAR04) Common Control Blocks                                                                Page   31
0Current Usings:  (FEALBLKE+2048,R6) (*,R7) (FEALBWA-(4+36),R8) (CP,R11) (CV,R12)
0Loc    Object Code    Addr1 Addr2  Stmt Lv Lineno    Source Statement           (Hibal 5, Asmedit 3.3)  HLASM R4.0  2004/03/15 12.41
+___    ______ ____    _____ _____  ____ __ ______    ______ _________
000118E D700 808F 8087 00067 0005F  9766                       LOADX F5B3,F3B3
                                    9768              *
                                    9769              *  /* f6 */
                                    9770              *  f(f5b0,f5b1,f5b2,f5b3,k6b0,k6b1,f6b0,f6b1,f6b2,f6b3);
                                    9771              *  f6b0 ^= f4b0;
                                    9772              *  f6b1 ^= f4b1;
                                    9773              *  f6b2 ^= f4b2;
                                    9774              *  f6b3 ^= f4b3;
                                    9775              *
 001194 D200 8091 808D_00069 00065  9776                       F     F5B0,F5B1,F5B2,F5B3,K6B0,K6B1,F6B0,F6B1,F6B2,F6B3
 001260 D700 8090 8088 00068 00060  9883                       LOADX F6B0,F4B0
 001266 D700 8091 8089 00069 00061  9885                       LOADX F6B1,F4B1
 00126C D700 8092 808A 0006A 00062  9887                       LOADX F6B2,F4B2
 001272 D700 8093 808B 0006B 00063  9889                       LOADX F6B3,F4B3
                                    9891              *
                                    9892              *  /* f7 */
                                    9893              *  f(f6b0,f6b1,f6b2,f6b3,k7b0,k7b1,f7b0,f7b1,f7b2,f7b3);
                                    9894              *  f7b0 ^= f5b0;
                                    9895              *  f7b1 ^= f5b1;
                                    9896              *  f7b2 ^= f5b2;
                                    9897              *  f7b3 ^= f5b3;
                                    9898              *
 001278 D200 8095 8091_0006D 00069  9899                       F     F6B0,F6B1,F6B2,F6B3,K7B0,K7B1,F7B0,F7B1,F7B2,F7B3
 001344 D700 8094 808C 0006C 00064 10006                       LOADX F7B0,F5B0
 00134A D700 8095 808D 0006D 00065 10008                       LOADX F7B1,F5B1
 001350 D700 8096 808E 0006E 00066 10010                       LOADX F7B2,F5B2
 001356 D700 8097 808F 0006F 00067 10012                       LOADX F7B3,F5B3
                                   10014              *
                                   10015              *  /* exit */
                                   10016              *  c0 = f7b0 ^ kcb0;
                                   10017              *  c1 = f7b1 ^ kcb1;
                                   10018              *  c2 = f7b2 ^ kdb0;
                                   10019              *  c3 = f7b3 ^ kdb1;
                                   10020              *  c4 = f7b0 ^ f6b0 ^ keb0;
                                   10021              *  c5 = f7b1 ^ f6b1 ^ keb1;
                                   10022              *  c6 = f7b2 ^ f6b2 ^ kfb0;
                                   10023              *  c7 = f7b3 ^ f6b3 ^ kfb1;
                                   10024              *
 00135C D200 8050 8094_00028 0006C 10025                       XOR   C0,F7B0,KCB0
 001368 D200 8051 8095_00029 0006D 10028                       XOR   C1,F7B1,KCB1
 001374 D200 8052 8096_0002A 0006E 10031                       XOR   C2,F7B2,KDB0
 001380 D200 8053 8097_0002B 0006F 10034                       XOR   C3,F7B3,KDB1
 00138C D200 8054 8094_0002C 0006C 10037                       XXXOR C4,F7B0,F6B0,KEB0
 00139E D200 8055 8095_0002D 0006D 10041                       XXXOR C5,F7B1,F6B1,KEB1
 0013B0 D200 8056 8096_0002E 0006E 10045                       XXXOR C6,F7B2,F6B2,KFB0
 0013C2 D200 8057 8097_0002F 0006F 10049                       XXXOR C7,F7B3,F6B3,KFB1
                                   10053              *
                                   10054              *  /* encode end */
                                   10055              *
                                   10056              *  /* return cipher text */
                                   10057              *  cipher[0] = c0;  cipher[1] = c1; cipher[2] = c2; cipher[3] = c3;
                                   10058              *  cipher[4] = c4;  cipher[5] = c5; cipher[6] = c6; cipher[7] = c7;
                                   10059              *
 0013D4 D200 8038 8050 00010 00028 10060                       LOADC CIPHER+0,C0
1CRYPT    (CRYP0060) (12:41) (15MAR04) Common Control Blocks                                                                Page   32
0Current Usings:  (FEALBLKE+2048,R6) (*,R7) (FEALBWA-(4+36),R8) (CP,R11) (CV,R12)
0Loc    Object Code    Addr1 Addr2  Stmt Lv Lineno    Source Statement           (Hibal 5, Asmedit 3.3)  HLASM R4.0  2004/03/15 12.41
+___    ______ ____    _____ _____  ____ __ ______    ______ _________
00013DA D200 8039 8051 00011 00029 10062                       LOADC CIPHER+1,C1
 0013E0 D200 803A 8052 00012 0002A 10064                       LOADC CIPHER+2,C2
 0013E6 D200 803B 8053 00013 0002B 10066                       LOADC CIPHER+3,C3
 0013EC D200 803C 8054 00014 0002C 10068                       LOADC CIPHER+4,C4
 0013F2 D200 803D 8055 00015 0002D 10070                       LOADC CIPHER+5,C5
 0013F8 D200 803E 8056 00016 0002E 10072                       LOADC CIPHER+6,C6
 0013FE D200 803F 8057 00017 0002F 10074                       LOADC CIPHER+7,C7
                                   10076
                                   10077                       COMMENT                   ALL DONE
 001404 4BD0 6916/5820_      01424 10078                       XPOP  R2
 00140C D207 2000 8038 00000 00010 10081                       MVC   @R2(L'CIPHER),CIPHER
 001412 18D8/9808 D004_            10082                       PEND
 DROP   FEALBWA-(4+36),R8
 DROP   *,R7
 DROP   FEALBLKE+2048,R6           10107                       DROP  R6
                                   10114              *}
                                   10115                       QLTORG
1CRYPT    (CRYP0060) (12:41) (15MAR04) Common Control Blocks                                                                Page   33
0Current Usings:  (CP,R11) (CV,R12)
0Loc    Object Code    Addr1 Addr2  Stmt Lv Lineno    Source Statement           (Hibal 5, Asmedit 3.3)  HLASM R4.0  2004/03/15 12.41
+___    ______ ____    _____ _____  ____ __ ______    ______ _________
0                                  10130              *
                                   10131              *   FEALBLKD - FEAL BLOCK DECODE
                                   10132              *
                                   10133              *   AS CONVERTED FROM C-CODE
                                   10134              *
                                   10135              *   ON ENTRY:
                                   10136              *        @R0 - KEY (8 CHAR)
                                   10137              *        @R1 - TEXT (8 CHAR)
                                   10138              *        @R2 - CIPHER (8 CHAR)   (RETURNED)
                                   10139              *
                                   10140              *
                                   10141              *
                                   10142              *
                                   10143              */*
                                   10144              * *  implementation of feal algorithm
                                   10145              * *
                                   10146              * *  see advances in cryptology - eurocrypt '87
                                   10147              * *
                                   10148              * */
                                   10149              *static void
                                   10150              *feal_block_d(key,text,cipher)
                                   10151              *  unsigned char key[8];
                                   10152              *  unsigned char text[8];
                                   10153              *  unsigned char cipher[8];
                                   10154              *
                                   10155              *{
                                   10156              *  /*  pn - plaintext, keybn - key, cn - ciphertext      */
                                   10157              *  /*  knbn - expanded key, fnbn - temp output from f block */
                                   10158              *  unsigned char p0,p1,p2,p3,p4,p5,p6,p7;
                                   10159              *  unsigned char keyb0,keyb1,keyb2,keyb3,keyb4,keyb5,keyb6,keyb7;
                                   10160              *  unsigned char c0,c1,c2,c3,c4,c5,c6,c7;
                                   10161              *  unsigned char k0b0,k0b1,k1b0,k1b1,k2b0,k2b1,k3b0,k3b1;
                                   10162              *  unsigned char k4b0,k4b1,k5b0,k5b1,k6b0,k6b1,k7b0,k7b1;
                                   10163              *  unsigned char k8b0,k8b1,k9b0,k9b1,kab0,kab1,kbb0,kbb1;
                                   10164              *  unsigned char kcb0,kcb1,kdb0,kdb1,keb0,keb1,kfb0,kfb1;
                                   10165              *  unsigned char f0b0,f0b1,f0b2,f0b3,f1b0,f1b1,f1b2,f1b3;
                                   10166              *  unsigned char f2b0,f2b1,f2b2,f2b3,f3b0,f3b1,f3b2,f3b3;
                                   10167              *  unsigned char f4b0,f4b1,f4b2,f4b3,f5b0,f5b1,f5b2,f5b3;
                                   10168              *  unsigned char f6b0,f6b1,f6b2,f6b3,f7b0,f7b1,f7b2,f7b3;
                                   10169              *
                                   10170              *
 001426 50E0 D000/9008_      00000 10171              FEALBLKD XPROC FEALBWA
 USING  *,R7
 USING  FEALBWA-(4+36),R8
                                   10222
 001440 4160 77E6            01C26 10223                       LA    R6,FEALBLKD+2048
 USING  FEALBLKD+2048,R6           10224                       USING FEALBLKD+2048,R6
                                   10233
 001444 D771 8028 8028 00000 00000 10234                       CLEAR FEALBWA
 00144A 1830                       10241                       LR    R3,R0
 00144C D207 8028 3000 00000 00000 10242                       MVC   KEY,@R3
 001452 D207 8038 2000 00010 00000 10243                       MVC   CIPHER,@R2
 001458 5010 D000/41D0_      00000 10244                       XPUSH R1                  SAVE CIPHER RETURN ADDRESS
                                   10247
1CRYPT    (CRYP0060) (12:41) (15MAR04) Common Control Blocks                                                                Page   34
0Current Usings:  (FEALBLKD+2048,R6) (*,R7) (FEALBWA-(4+36),R8) (CP,R11) (CV,R12)
0Loc    Object Code    Addr1 Addr2  Stmt Lv Lineno    Source Statement           (Hibal 5, Asmedit 3.3)  HLASM R4.0  2004/03/15 12.41
+___    ______ ____    _____ _____  ____ __ ______    ______ _________
0001460 1B00                       10248                       CLEAR R0
 001462 1B11                       10252                       CLEAR R1
 001464 1B22                       10256                       CLEAR R2
 001466 1B33                       10260                       CLEAR R3
 001468 1B44                       10264                       CLEAR R4
 00146A 1B55                       10268                       CLEAR R5
                                   10272              *
                                   10273              *  /* init variables */
                                   10274              *  c0 = cipher[0]; c1 = cipher[1]; c2 = cipher[2]; c3 = cipher[3];
                                   10275              *  c4 = cipher[4]; c5 = cipher[5]; c6 = cipher[6]; c7 = cipher[7];
                                   10276              *  keyb0 = key[0]; keyb1 = key[1]; keyb2 = key[2]; keyb3 = key[3];
                                   10277              *  keyb4 = key[4]; keyb5 = key[5]; keyb6 = key[6]; keyb7 = key[7];
                                   10278              *
 00146C D200 8050 8038 00028 00010 10279                       LOADC C0,CIPHER+0
 001472 D200 8051 8039 00029 00011 10281                       LOADC C1,CIPHER+1
 001478 D200 8052 803A 0002A 00012 10283                       LOADC C2,CIPHER+2
 00147E D200 8053 803B 0002B 00013 10285                       LOADC C3,CIPHER+3
 001484 D200 8054 803C 0002C 00014 10287                       LOADC C4,CIPHER+4
 00148A D200 8055 803D 0002D 00015 10289                       LOADC C5,CIPHER+5
 001490 D200 8056 803E 0002E 00016 10291                       LOADC C6,CIPHER+6
 001496 D200 8057 803F 0002F 00017 10293                       LOADC C7,CIPHER+7
 00149C D200 8048 8028 00020 00000 10295                       LOADC KEYB0,KEY+0
 0014A2 D200 8049 8029 00021 00001 10297                       LOADC KEYB1,KEY+1
 0014A8 D200 804A 802A 00022 00002 10299                       LOADC KEYB2,KEY+2
 0014AE D200 804B 802B 00023 00003 10301                       LOADC KEYB3,KEY+3
 0014B4 D200 804C 802C 00024 00004 10303                       LOADC KEYB4,KEY+4
 0014BA D200 804D 802D 00025 00005 10305                       LOADC KEYB5,KEY+5
 0014C0 D200 804E 802E 00026 00006 10307                       LOADC KEYB6,KEY+6
 0014C6 D200 804F 802F 00027 00007 10309                       LOADC KEYB7,KEY+7
                                   10311              *
                                   10312              *  /* expand key */
                                   10313              *
                                   10314              *  /* expand key ( keyb0, ... keyb7, k0b1,k0b2, .....kfb0,kfb1)  */
                                   10315              *
                                   10316              *  /* fk0 */
                                   10317              *  fk(keyb0,keyb1,keyb2,keyb3,
                                   10318              *     keyb4,keyb5,keyb6,keyb7,
                                   10319              *     k0b0,k0b1,k1b0,k1b1);
                                   10320              *
                                   10321            C          FK    KEYB0,KEYB1,KEYB2,KEYB3,
                                                    C                KEYB4,ZERO,KEYB5,ZERO,KEYB6,ZERO,KEYB7,ZERO,
 0014CC D200 8059 8048_00031 00020                                   K0B0,K0B1,K1B0,K1B1
                                   10442              *
                                   10443              *  /* fk1 */
                                   10444              *  fk(keyb4,keyb5,keyb6,keyb7,
                                   10445              *     k0b0^keyb0,k0b1^keyb1,k1b0^keyb2,k1b1^keyb3,
                                   10446              *     k2b0,k2b1,k3b0,k3b1);
                                   10447              *
                                   10448            C          FK    KEYB4,KEYB5,KEYB6,KEYB7,
                                                    C                K0B0,KEYB0,K0B1,KEYB1,K1B0,KEYB2,K1B1,KEYB3,
 0015D4 D200 805D 804C_00035 00024                                   K2B0,K2B1,K3B0,K3B1
                                   10569              *
                                   10570              *  /* fk2 */
                                   10571              *  fk(k0b0,k0b1,k1b0,k1b1,
1CRYPT    (CRYP0060) (12:41) (15MAR04) Common Control Blocks                                                                Page   35
0Current Usings:  (FEALBLKD+2048,R6) (*,R7) (FEALBWA-(4+36),R8) (CP,R11) (CV,R12)
0Loc    Object Code    Addr1 Addr2  Stmt Lv Lineno    Source Statement           (Hibal 5, Asmedit 3.3)  HLASM R4.0  2004/03/15 12.41
+___    ______ ____    _____ _____  ____ __ ______    ______ _________
0                                  10572              *     k2b0^keyb4,k2b1^keyb5,k3b0^keyb6,k3b1^keyb7,
                                   10573              *     k4b0,k4b1,k5b0,k5b1);
                                   10574              *
                                   10575            C          FK    K0B0,K0B1,K1B0,K1B1,
                                                    C                K2B0,KEYB4,K2B1,KEYB5,K3B0,KEYB6,K3B1,KEYB7,
 0016DC D200 8061 8058_00039 00030                                   K4B0,K4B1,K5B0,K5B1
                                   10696              *
                                   10697              *  /* fk3 */
                                   10698              *  fk(k2b0,k2b1,k3b0,k3b1,
                                   10699              *     k4b0^k0b0,k4b1^k0b1,k5b0^k1b0,k5b1^k1b1,
                                   10700              *     k6b0,k6b1,k7b0,k7b1);
                                   10701              *
                                   10702            C          FK    K2B0,K2B1,K3B0,K3B1,
                                                    C                K4B0,K0B0,K4B1,K0B1,K5B0,K1B0,K5B1,K1B1,
 0017E4 D200 8065 805C_0003D 00034                                   K6B0,K6B1,K7B0,K7B1
                                   10823              *
                                   10824              *  /* fk4 */
                                   10825              *  fk(k4b0,k4b1,k5b0,k5b1,
                                   10826              *     k6b0^k2b0,k6b1^k2b1,k7b0^k3b0,k7b1^k3b1,
                                   10827              *     k8b0,k8b1,k9b0,k9b1);
                                   10828              *
                                   10829            C          FK    K4B0,K4B1,K5B0,K5B1,
                                                    C                K6B0,K2B0,K6B1,K2B1,K7B0,K3B0,K7B1,K3B1,
 0018EC D200 8069 8060_00041 00038                                   K8B0,K8B1,K9B0,K9B1
                                   10950              *
                                   10951              *  /* fk5 */
                                   10952              *  fk(k6b0,k6b1,k7b0,k7b1,
                                   10953              *     k8b0^k4b0,k8b1^k4b1,k9b0^k5b0,k9b1^k5b1,
                                   10954              *     kab0,kab1,kbb0,kbb1);
                                   10955              *
                                   10956            C          FK    K6B0,K6B1,K7B0,K7B1,
                                                    C                K8B0,K4B0,K8B1,K4B1,K9B0,K5B0,K9B1,K5B1,
 0019F4 D200 806D 8064_00045 0003C                                   KAB0,KAB1,KBB0,KBB1
                                   11077              *
                                   11078              *  /* fk6 */
                                   11079              *  fk(k8b0,k8b1,k9b0,k9b1,
                                   11080              *     kab0^k6b0,kab1^k6b1,kbb0^k7b0,kbb1^k7b1,
                                   11081              *     kcb0,kcb1,kdb0,kdb1);
                                   11082              *
                                   11083            C          FK    K8B0,K8B1,K9B0,K9B1,
                                                    C                KAB0,K6B0,KAB1,K6B1,KBB0,K7B0,KBB1,K7B1,
 001AFC D200 8071 8068_00049 00040                                   KCB0,KCB1,KDB0,KDB1
                                   11204              *
                                   11205              *  /* fk7 */
                                   11206              *  fk(kab0,kab1,kbb0,kbb1,
                                   11207              *     kcb0^k8b0,kcb1^k8b1,kdb0^k9b0,kdb1^k9b1,
                                   11208              *     keb0,keb1,kfb0,kfb1);
                                   11209              *
                                   11210            C          FK    KAB0,KAB1,KBB0,KBB1,
                                                    C                KCB0,K8B0,KCB1,K8B1,KDB0,K9B0,KDB1,K9B1,
 001C04 D200 8075 806C_0004D 00044                                   KEB0,KEB1,KFB0,KFB1
                                   11331              *
                                   11332              *  /* end of expand key */
                                   11333              *
1CRYPT    (CRYP0060) (12:41) (15MAR04) Common Control Blocks                                                                Page   36
0Current Usings:  (FEALBLKD+2048,R6) (*,R7) (FEALBWA-(4+36),R8) (CP,R11) (CV,R12)
0Loc    Object Code    Addr1 Addr2  Stmt Lv Lineno    Source Statement           (Hibal 5, Asmedit 3.3)  HLASM R4.0  2004/03/15 12.41
+___    ______ ____    _____ _____  ____ __ ______    ______ _________
0                                  11334              *
                                   11335              *  /* decode text */
                                   11336              *
                                   11337              *  /*  decode (p0 ... p7, k0b0,k0b1 ...kfb0,kfb1,  c0 ... c7)  */
                                   11338              *
                                   11339              *  /* enter */
                                   11340              *  c0 ^= kcb0;
                                   11341              *  c1 ^= kcb1;
                                   11342              *  c2 ^= kdb0;
                                   11343              *  c3 ^= kdb1;
                                   11344              *  c4 ^= keb0;
                                   11345              *  c5 ^= keb1;
                                   11346              *  c6 ^= kfb0;
                                   11347              *  c7 ^= kfb1;
                                   11348              *  c4 ^= c0;
                                   11349              *  c5 ^= c1;
                                   11350              *  c6 ^= c2;
                                   11351              *  c7 ^= c3;
                                   11352              *
 001D0C D700 8050 8070 00028 00048 11353                       LOADX C0,KCB0
 001D12 D700 8051 8071 00029 00049 11355                       LOADX C1,KCB1
 001D18 D700 8052 8072 0002A 0004A 11357                       LOADX C2,KDB0
 001D1E D700 8053 8073 0002B 0004B 11359                       LOADX C3,KDB1
 001D24 D700 8054 8074 0002C 0004C 11361                       LOADX C4,KEB0
 001D2A D700 8055 8075 0002D 0004D 11363                       LOADX C5,KEB1
 001D30 D700 8056 8076 0002E 0004E 11365                       LOADX C6,KFB0
 001D36 D700 8057 8077 0002F 0004F 11367                       LOADX C7,KFB1
 001D3C D700 8054 8050 0002C 00028 11369                       LOADX C4,C0
 001D42 D700 8055 8051 0002D 00029 11371                       LOADX C5,C1
 001D48 D700 8056 8052 0002E 0002A 11373                       LOADX C6,C2
 001D4E D700 8057 8053 0002F 0002B 11375                       LOADX C7,C3
                                   11377              *
                                   11378              *  /* f0 */
                                   11379              *  f(c4,c5,c6,c7,k7b0,k7b1,f0b0,f0b1,f0b2,f0b3);
                                   11380              *  f0b0 ^= c0;
                                   11381              *  f0b1 ^= c1;
                                   11382              *  f0b2 ^= c2;
                                   11383              *  f0b3 ^= c3;
                                   11384              *
 001D54 D200 8079 8055_00051 0002D 11385                       F     C4,C5,C6,C7,K7B0,K7B1,F0B0,F0B1,F0B2,F0B3
 001E20 D700 8078 8050 00050 00028 11492                       LOADX F0B0,C0
 001E26 D700 8079 8051 00051 00029 11494                       LOADX F0B1,C1
 001E2C D700 807A 8052 00052 0002A 11496                       LOADX F0B2,C2
 001E32 D700 807B 8053 00053 0002B 11498                       LOADX F0B3,C3
                                   11500              *
                                   11501              *  /* f1 */
                                   11502              *  f(f0b0,f0b1,f0b2,f0b3,k6b0,k6b1,f1b0,f1b1,f1b2,f1b3);
                                   11503              *  f1b0 ^=  c4;
                                   11504              *  f1b1 ^=  c5;
                                   11505              *  f1b2 ^=  c6;
                                   11506              *  f1b3 ^=  c7;
                                   11507              *
 001E38 D200 807D 8079_00055 00051 11508                       F     F0B0,F0B1,F0B2,F0B3,K6B0,K6B1,F1B0,F1B1,F1B2,F1B3
 001F04 D700 807C 8054 00054 0002C 11615                       LOADX F1B0,C4
1CRYPT    (CRYP0060) (12:41) (15MAR04) Common Control Blocks                                                                Page   37
0Current Usings:  (FEALBLKD+2048,R6) (*,R7) (FEALBWA-(4+36),R8) (CP,R11) (CV,R12)
0Loc    Object Code    Addr1 Addr2  Stmt Lv Lineno    Source Statement           (Hibal 5, Asmedit 3.3)  HLASM R4.0  2004/03/15 12.41
+___    ______ ____    _____ _____  ____ __ ______    ______ _________
0001F0A D700 807D 8055 00055 0002D 11617                       LOADX F1B1,C5
 001F10 D700 807E 8056 00056 0002E 11619                       LOADX F1B2,C6
 001F16 D700 807F 8057 00057 0002F 11621                       LOADX F1B3,C7
                                   11623              *
                                   11624              *  /* f2 */
                                   11625              *  f(f1b0,f1b1,f1b2,f1b3,k5b0,k5b1,f2b0,f2b1,f2b2,f2b3);
                                   11626              *  f2b0 ^= f0b0;
                                   11627              *  f2b1 ^= f0b1;
                                   11628              *  f2b2 ^= f0b2;
                                   11629              *  f2b3 ^= f0b3;
                                   11630              *
 001F1C D200 8081 807D_00059 00055 11631                       F     F1B0,F1B1,F1B2,F1B3,K5B0,K5B1,F2B0,F2B1,F2B2,F2B3
 001FE8 D700 8080 8078 00058 00050 11738                       LOADX F2B0,F0B0
 001FEE D700 8081 8079 00059 00051 11740                       LOADX F2B1,F0B1
 001FF4 D700 8082 807A 0005A 00052 11742                       LOADX F2B2,F0B2
 001FFA D700 8083 807B 0005B 00053 11744                       LOADX F2B3,F0B3
                                   11746              *
                                   11747              *  /* f3 */
                                   11748              *  f(f2b0,f2b1,f2b2,f2b3,k4b0,k4b1,f3b0,f3b1,f3b2,f3b3);
                                   11749              *  f3b0 ^= f1b0;
                                   11750              *  f3b1 ^= f1b1;
                                   11751              *  f3b2 ^= f1b2;
                                   11752              *  f3b3 ^= f1b3;
                                   11753              *
 002000 D200 8085 8081_0005D 00059 11754                       F     F2B0,F2B1,F2B2,F2B3,K4B0,K4B1,F3B0,F3B1,F3B2,F3B3
 0020CC D700 8084 807C 0005C 00054 11861                       LOADX F3B0,F1B0
 0020D2 D700 8085 807D 0005D 00055 11863                       LOADX F3B1,F1B1
 0020D8 D700 8086 807E 0005E 00056 11865                       LOADX F3B2,F1B2
 0020DE D700 8087 807F 0005F 00057 11867                       LOADX F3B3,F1B3
                                   11869              *
                                   11870              *  /* f4 */
                                   11871              *  f(f3b0,f3b1,f3b2,f3b3,k3b0,k3b1,f4b0,f4b1,f4b2,f4b3);
                                   11872              *  f4b0 ^= f2b0;
                                   11873              *  f4b1 ^= f2b1;
                                   11874              *  f4b2 ^= f2b2;
                                   11875              *  f4b3 ^= f2b3;
                                   11876              *
 0020E4 D200 8089 8085_00061 0005D 11877                       F     F3B0,F3B1,F3B2,F3B3,K3B0,K3B1,F4B0,F4B1,F4B2,F4B3
 0021B0 D700 8088 8080 00060 00058 11984                       LOADX F4B0,F2B0
 0021B6 D700 8089 8081 00061 00059 11986                       LOADX F4B1,F2B1
 0021BC D700 808A 8082 00062 0005A 11988                       LOADX F4B2,F2B2
 0021C2 D700 808B 8083 00063 0005B 11990                       LOADX F4B3,F2B3
                                   11992              *
                                   11993              *  /* f5 */
                                   11994              *  f(f4b0,f4b1,f4b2,f4b3,k2b0,k2b1,f5b0,f5b1,f5b2,f5b3);
                                   11995              *  f5b0 ^= f3b0;
                                   11996              *  f5b1 ^= f3b1;
                                   11997              *  f5b2 ^= f3b2;
                                   11998              *  f5b3 ^= f3b3;
                                   11999              *
 0021C8 D200 808D 8089_00065 00061 12000                       F     F4B0,F4B1,F4B2,F4B3,K2B0,K2B1,F5B0,F5B1,F5B2,F5B3
 002294 D700 808C 8084 00064 0005C 12107                       LOADX F5B0,F3B0
 00229A D700 808D 8085 00065 0005D 12109                       LOADX F5B1,F3B1
 0022A0 D700 808E 8086 00066 0005E 12111                       LOADX F5B2,F3B2
1CRYPT    (CRYP0060) (12:41) (15MAR04) Common Control Blocks                                                                Page   38
0Current Usings:  (FEALBLKD+2048,R6) (*,R7) (FEALBWA-(4+36),R8) (CP,R11) (CV,R12)
0Loc    Object Code    Addr1 Addr2  Stmt Lv Lineno    Source Statement           (Hibal 5, Asmedit 3.3)  HLASM R4.0  2004/03/15 12.41
+___    ______ ____    _____ _____  ____ __ ______    ______ _________
00022A6 D700 808F 8087 00067 0005F 12113                       LOADX F5B3,F3B3
                                   12115              *
                                   12116              *  /* f6 */
                                   12117              *  f(f5b0,f5b1,f5b2,f5b3,k1b0,k1b1,f6b0,f6b1,f6b2,f6b3);
                                   12118              *  f6b0 ^= f4b0;
                                   12119              *  f6b1 ^= f4b1;
                                   12120              *  f6b2 ^= f4b2;
                                   12121              *  f6b3 ^= f4b3;
                                   12122              *
 0022AC D200 8091 808D_00069 00065 12123                       F     F5B0,F5B1,F5B2,F5B3,K1B0,K1B1,F6B0,F6B1,F6B2,F6B3
 002378 D700 8090 8088 00068 00060 12230                       LOADX F6B0,F4B0
 00237E D700 8091 8089 00069 00061 12232                       LOADX F6B1,F4B1
 002384 D700 8092 808A 0006A 00062 12234                       LOADX F6B2,F4B2
 00238A D700 8093 808B 0006B 00063 12236                       LOADX F6B3,F4B3
                                   12238              *
                                   12239              *  /* f7 */
                                   12240              *  f(f6b0,f6b1,f6b2,f6b3,k0b0,k0b1,f7b0,f7b1,f7b2,f7b3);
                                   12241              *  f7b0 ^= f5b0;
                                   12242              *  f7b1 ^= f5b1;
                                   12243              *  f7b2 ^= f5b2;
                                   12244              *  f7b3 ^= f5b3;
                                   12245              *
 002390 D200 8095 8091_0006D 00069 12246                       F     F6B0,F6B1,F6B2,F6B3,K0B0,K0B1,F7B0,F7B1,F7B2,F7B3
 00245C D700 8094 808C 0006C 00064 12353                       LOADX F7B0,F5B0
 002462 D700 8095 808D 0006D 00065 12355                       LOADX F7B1,F5B1
 002468 D700 8096 808E 0006E 00066 12357                       LOADX F7B2,F5B2
 00246E D700 8097 808F 0006F 00067 12359                       LOADX F7B3,F5B3
                                   12361              *
                                   12362              *  /* exit */
                                   12363              *  p0 = f7b0 ^ k8b0;
                                   12364              *  p1 = f7b1 ^ k8b1;
                                   12365              *  p2 = f7b2 ^ k9b0;
                                   12366              *  p3 = f7b3 ^ k9b1;
                                   12367              *  p4 = f7b0 ^ f6b0 ^ kab0;
                                   12368              *  p5 = f7b1 ^ f6b1 ^ kab1;
                                   12369              *  p6 = f7b2 ^ f6b2 ^ kbb0;
                                   12370              *  p7 = f7b3 ^ f6b3 ^ kbb1;
                                   12371              *
 002474 D200 8040 8094_00018 0006C 12372                       XOR   P0,F7B0,K8B0
 002480 D200 8041 8095_00019 0006D 12375                       XOR   P1,F7B1,K8B1
 00248C D200 8042 8096_0001A 0006E 12378                       XOR   P2,F7B2,K9B0
 002498 D200 8043 8097_0001B 0006F 12381                       XOR   P3,F7B3,K9B1
 0024A4 D200 8044 8094_0001C 0006C 12384                       XXXOR P4,F7B0,F6B0,KAB0
 0024B6 D200 8045 8095_0001D 0006D 12388                       XXXOR P5,F7B1,F6B1,KAB1
 0024C8 D200 8046 8096_0001E 0006E 12392                       XXXOR P6,F7B2,F6B2,KBB0
 0024DA D200 8047 8097_0001F 0006F 12396                       XXXOR P7,F7B3,F6B3,KBB1
                                   12400              *
                                   12401              *  /* decode end */
                                   12402              *
                                   12403              *  /* return plain text */
                                   12404              *  text[0] = p0;  text[1] = p1; text[2] = p2; text[3] = p3;
                                   12405              *  text[4] = p4;  text[5] = p5; text[6] = p6; text[7] = p7;
                                   12406              *
 0024EC D200 8030 8040 00008 00018 12407                       LOADC TEXT+0,P0
1CRYPT    (CRYP0060) (12:41) (15MAR04) Common Control Blocks                                                                Page   39
0Current Usings:  (FEALBLKD+2048,R6) (*,R7) (FEALBWA-(4+36),R8) (CP,R11) (CV,R12)
0Loc    Object Code    Addr1 Addr2  Stmt Lv Lineno    Source Statement           (Hibal 5, Asmedit 3.3)  HLASM R4.0  2004/03/15 12.41
+___    ______ ____    _____ _____  ____ __ ______    ______ _________
00024F2 D200 8031 8041 00009 00019 12409                       LOADC TEXT+1,P1
 0024F8 D200 8032 8042 0000A 0001A 12411                       LOADC TEXT+2,P2
 0024FE D200 8033 8043 0000B 0001B 12413                       LOADC TEXT+3,P3
 002504 D200 8034 8044 0000C 0001C 12415                       LOADC TEXT+4,P4
 00250A D200 8035 8045 0000D 0001D 12417                       LOADC TEXT+5,P5
 002510 D200 8036 8046 0000E 0001E 12419                       LOADC TEXT+6,P6
 002516 D200 8037 8047 0000F 0001F 12421                       LOADC TEXT+7,P7
                                   12423
                                   12424                       COMMENT                   ALL DONE
 00251C 4BD0 6916/5810_      0253C 12425                       XPOP  R1
 002524 D207 1000 8030 00000 00008 12428                       MVC   @R1(L'TEXT),TEXT
 00252A 18D8/9808 D004_            12429                       PEND
 DROP   FEALBWA-(4+36),R8
 DROP   *,R7
 DROP   FEALBLKD+2048,R6           12454                       DROP  R6
                                   12461              *}
                                   12462                       QLTORG
1CRYPT    (CRYP0060) (12:41) (15MAR04) Common Control Blocks                                                                Page   40
0Current Usings:  (CP,R11) (CV,R12)
0Loc    Object Code    Addr1 Addr2  Stmt Lv Lineno    Source Statement           (Hibal 5, Asmedit 3.3)  HLASM R4.0  2004/03/15 12.41
+___    ______ ____    _____ _____  ____ __ ______    ______ _________
0002540                02540 02540 12477                       LTORG
                                   12482                       VLTORG
 002540                02540 02540 12490                       END   .

1CRYPT    (CRYP0060) (12:41) (15MAR04) Relocation Dictionary                                                                Page   41
-   Pos.Id   Rel.Id   Flags    Address                                                       HLASM R4.0  2004/03/15 12.41
0  00000001 00000001    0C    00000304

1CRYPT    (CRYP0060) (12:41) (15MAR04) Ordinary Symbol and Literal Cross Reference                                          Page   42
-Symbol   Length   Value     Id    R Type   Defn References                                  HLASM R4.0  2004/03/15 12.41
0$$$@R0        1 00000000 FFFFFFFE     J     705  1007
 $$$@R10       1 00000000 FFFFFFF4     J     835  1071
 $$$@R11       1 00000000 FFFFFFF3     J     848  1084
 $$$@R12       1 00000000 FFFFFFF2     J     861  1097
 $$$@R13       1 00000000 FFFFFFF1     J     874  1110
 $$$@R14       1 00000000 FFFFFFF0     J     887  1123
 $$$@R7        1 00000000 FFFFFFF7     J     796  1020
 $$$@R8        1 00000000 FFFFFFF6     J     809  1033   1045
 $$$@R9        1 00000000 FFFFFFF5     J     822  1058
 $$$C1WYLCRYPT
               1 000001A0 00000001     J    6913  6915
 $$$C2WYLCRYPT
               1 0000030E 00000001     J    7470  7472   7780
 $$$C3WYLCRYPT
               1 00001426 00000001     J   10124 10126
 $$$C4WYLCRYPT
               1 0000253E 00000001     J   12471 12473
 $$$C5WYLCRYPT
               1 00002540 00000001     J   12479 12481
 $$$C6WYLCRYPT
               1 00002540 00000001     J   12493 12495
 $$$RCP        1 00000000 FFFFFFEC     J    2454  4714   6188   6188
 $$$RCV        1 00000000 FFFFFFEE     J    1179  2364   2364
 $$$RDEV       1 00000000 FFFFFFEB     J    4668  4713   4713
 $$$RFCRYPTWA
               1 00000000 FFFFFFE8     J    6346  6362   6362
 $$$RFEALBWA
               1 00000000 FFFFFFE7     J    7662  7779   7779
 $$$RNSCNCB
               1 00000000 FFFFFFED     J    2375  2448   2448
 $$$RSCRYPTWA
               1 00000000 FFFFFFE9     J    6321  6337   6337
 $$$RTTYPE
               1 00000000 FFFFFFEA     J    6199  6300   6300
 $$$SEGCB0
               4 00000050 FFFFFFEC     F    2485  2571   2571
 $$$43B        1 00000044 00000001     X    6514  6521U
 $$$44         1 00000050 00000001 A   U    6563  6560   6562
 $$$46B        1 0000008A 00000001     X    6614  6621U
 $$$47F        2 000000E6 00000001     H    6705  6671B
 $$$47S        2 0000009E 00000001     H    6664  6704B
 $$$49         1 00000050 00000001 A   U    6728  6725   6727
 $$$51B        1 0000011A 00000001     X    6779  6786U
 $$$52F        2 00000178 00000001     H    6871  6836B
 $$$52S        2 0000012E 00000001     H    6829  6870B
 $$$54         1 00000050 00000001 A   U    6894  6891   6893
 $$$56B        1 000001BA 00000001     X    7040  7047U
 $$$57         1 00000050 00000001 A   U    7088  7085   7087
 $$$59B        1 000001EE 00000001     X    7139  7146U
 $$$60F        2 00000254 00000001     H    7249  7188B
 $$$60S        2 000001F8 00000001     H    7181  7248B
 $$$62F        2 00000230 00000001     H    7231  7205B
 $$$63         1 00000050 00000001 A   U    7268  7265   7267
 $$$65B        1 00000280 00000001     X    7319  7326U
 $$$66F        2 000002E8 00000001     H    7430  7368B
1CRYPT    (CRYP0060) (12:41) (15MAR04) Ordinary Symbol and Literal Cross Reference                                          Page   43
 $$$66S        2 0000028A 00000001     H    7361  7429B
 $$$68F        2 000002C2 00000001     H    7411  7385B
 $$$69         1 00000050 00000001 A   U    7449  7446   7448
 $$$71B        1 00000328 00000001     X    7850  7857U
 $$$72         1 000000C4 00000001 A   U   10104 10101  10103
 $$$74B        1 00001440 00000001     X   10197 10204U
 $$$75         1 000000C4 00000001 A   U   12451 12448  12450
 @RAR          0 00000000 FFFFFFF0     @    1124  2162   2170B
 @R0           0 00000000 FFFFFFFE     @     706   982U
 @R1           0 00000000 FFFFFFFD     @     719   978U  2168   2169   6539   6680   6682M  6845   6847M  7065   7232
                                                  7238M  7412   7415M  7896  12428M
 @R10          0 00000000 FFFFFFF4     @     836   942U
 @R11          0 00000000 FFFFFFF3     @     849   938U
 @R12          0 00000000 FFFFFFF2     @     862   934U
 @R13          0 00000000 FFFFFFF1     @     875   930U
 @R14          0 00000000 FFFFFFF0     @     888   926U
 @R15          0 00000000 FFFFFFEF     @     901   922U
 @R2           0 00000000 FFFFFFFC     @     732   974U  6571U  6736U  6902U  7096U  7276U  7457U 10081M 10243
 @R3           0 00000000 FFFFFFFB     @     745   970U  7895  10242
 @R4           0 00000000 FFFFFFFA     @     758   966U
 @R5           0 00000000 FFFFFFF9     @     771   962U
 @R6           0 00000000 FFFFFFF8     @     784   958U 10112U 12459U
 @R7           0 00000000 FFFFFFF7     @     797   954U  6552U  6717U  6883U  7077U  7257U  7438U 10093U 12440U
 @R8           0 00000000 FFFFFFF6     @     810   950U 10088U 12435U
 @R9           0 00000000 FFFFFFF5     @     823   946U
 ABSCENT       1 00000000 00000000 A   T    2178  2178
 ASCTBL        1 00000000 00000000 A   T    2186  2186
 BLTBL         1 00000000 00000000 A   T    2188  2188
 BR            7 00000007 00000001 A   #    1014  6509M  6609M  6774M  7035M  7134M  7314M  7845M 10192M
 CHECKIOB      1 00000000 00000000 A   T    2234  2234
 CIPHER        8 00000010 FFFFFFE7     C    7670 10061M 10063M 10065M 10067M 10069M 10071M 10073M 10075M 10081  10081
                                                 10243M 10280  10282  10284  10286  10288  10290  10292  10294
 COMMAND       1 00000000 00000000 A   T    2174  2174
 COMMSEG       1 00000000 00000000 A   T    2175  2175
 CP         4096 00000000 FFFFFFEC     J    6188  1163U
 CP#XSTK       1 00000010 FFFFFFEC A   U    3920  3921
 CPACFLG       1 000005D5 FFFFFFEC     R    4023  4027   4032   4037   4042   4047
 CPACFLN       4 000005C4 FFFFFFEC     F    4015  4050   4050
 CPAFLAG       1 000005C3 FFFFFFEC     R    3987  3991   3996   4001   4006
 CPANAME       8 00000588 FFFFFFEC     C    3969  4065   4065
 CPAUTFLG      1 000008A9 FFFFFFEC     R    4333  4337   4342   4347   4352
 CPCHFLAG      1 00000B68 FFFFFFEC     R    4960  4964
 CPDFLG        1 0000084C FFFFFFEC     R    4220  4224   4229   4234   4239   4244
 CPDFLG2       1 0000084D FFFFFFEC     R    4249  4253   4258   4263   4268   4273   4278
 CPEXFLG       1 00000758 FFFFFFEC     R    4089  4093
 CPEXFLG2      1 00000759 FFFFFFEC     R    4099  4108   4118
 CPEXFLG3      1 0000075A FFFFFFEC     R    4125  4129   4134
 CPEXTFLG      1 00000E28 FFFFFFEC     R    5771  5775   5780   5785   5790   5795   5800
 CPFABORT    128 00000D5A FFFFFFEC         5537  2138M  2138   2143M  2143
 CPFERROR     64 00000D5A FFFFFFEC         5542  2137M  2137   2142M  2142
 CPFNTEX       1 00000040 FFFFFFEC A   U    5389  5390
 CPFRDRNG      1 00000D88 FFFFFFEC     R    5657  5661   5666   5671   5676   5681   5686   5691
 CPFRDSRC      1 00000D89 FFFFFFEC     R    5696  5705   5715   5725
 CPFUNUM       1 00000080 FFFFFFEC A   U    5388  5390
 CPFXDFLG      1 000007E4 FFFFFFEC     R    4167  4171   4176
 CPGFLG1       1 00000474 FFFFFFEC     R    3530  3534   3539   3544   3549   3554   3884   3884
 CPGFLG10      1 0000047D FFFFFFEC     R    3767  3771   3776   3781   3786   3791   3796
 CPGFLG11      1 0000047E FFFFFFEC     R    3802  3806   3811
 CPGFLG12      1 0000047F FFFFFFEC     R    3817  3821   3826   3831
1CRYPT    (CRYP0060) (12:41) (15MAR04) Ordinary Symbol and Literal Cross Reference                                          Page   44
 CPGFLG13      1 00000480 FFFFFFEC     R    3837  3841
 CPGFLG14      1 00000481 FFFFFFEC     R    3847  3851   3856   3861   3866   3871
 CPGFLG4       1 00000477 FFFFFFEC     R    3583  3594   3603   3612   3621   3630
 CPGFLG5       1 00000478 FFFFFFEC     R    3636  3640   3645   3650   3655   3660   3665   3670   3675
 CPGFLG6       1 00000479 FFFFFFEC     R    3681  3685   3690   3695
 CPGFLG7       1 0000047A FFFFFFEC     R    3701  3705   3710   3715   3720
 CPGFLG8       1 0000047B FFFFFFEC     R    3726  3730   3735   3740   3745
 CPGFLG9       1 0000047C FFFFFFEC     R    3751  3755   3761
 CPINIT        1 00000174 FFFFFFEC     U    2700  6157
 CPJESFLG      1 000009E1 FFFFFFEC     R    4432  4436   4441   4446   4451   4456   4461   4466   4471
 CPJESFLY      1 000009FD FFFFFFEC     R    4482  4486   4491   4496
 CPJESHFL      1 000009E0 FFFFFFEC     R    4417  4421   4426   4505   4505
 CPLFLG10      1 00000D59 FFFFFFEC     R    5523  5527
 CPLFLG11      1 00000D5A FFFFFFEC     R    5533  5537   5542   5547   5552
 CPLFLG12      1 00000D5B FFFFFFEC     R    5558  5562
 CPLFLG14      1 00000D5C FFFFFFEC     R    5568  5572   5577   5582   5587   5592
 CPLFLG6       1 00000D55 FFFFFFEC     R    5398  5402   5407   5412   5417   5422   5427
 CPLFLG7       1 00000D56 FFFFFFEC     R    5433  5437   5442   5447   5452   5457
 CPLFLG8       1 00000D57 FFFFFFEC     R    5463  5467   5472   5477   5482
 CPLFLG9       1 00000D58 FFFFFFEC     R    5488  5492   5497   5502   5507   5512   5517
 CPLOCALZ      1 00000C48 FFFFFFEC     U    4990  6151   6151
 CPMFLG        1 0000084F FFFFFFEC     R    4287  4291
 CPMODFLG      1 00000C78 FFFFFFEC     R    5018  5022   5027   5032   5037   5042
 CPNAMELN      1 00000010 FFFFFFEC A   U    3913  4160
 CPNEDPFX     10 00000E29 FFFFFFEC     X    5804  5805   5806
 CPNUMFLG      1 00000C79 FFFFFFEC     R    5048  5060
 CPORVCMD      1 00000140 FFFFFFEC     R    2582  2586   2591   2596   2601   2606   2611   2616   2621   2626   2626
                                                  2677   2677
 CPORVFLG      1 00000149 FFFFFFEC     R    2633  2637   2642   2647   2652   2657   2662   2667   2672
 CPORVWF       1 00000150 FFFFFFEC     R    2685  2689
 CPOSCANX      4 00000CA8 FFFFFFEC     F    5217  5284   5284
 CPR          11 0000000B 00000001 A   #    1078  1163U
 CPRACBAD     16 000001FC FFFFFFEC         2751  2785   2785   2786   2786
 CPRACF1       1 000001FC FFFFFFEC     R    2732  2736   2741   2746   2751   2756   2761   2766   2771   2787
 CPRACPSW     32 000001FC FFFFFFEC         2746  2784   2784   2786   2786
 CPRACUND     64 000001FC FFFFFFEC         2741  2784   2784   2785   2785
 CPRCVCUR      4 00000730 FFFFFFEC     A    4068  4070   4070
 CPRFLG        1 000008AA FFFFFFEC     R    4358  4362   4367   4372   4377   4382   4387
 CPS         254 00000344 FFFFFFEC     X    3502  3505   3506   3508   3508
 CPSACCT       5 000003B4 FFFFFFEC     C    3101  3264   3264
 CPSAMCOD      1 00000A22 FFFFFFEC     R    4554  4562   4572   4582   4591   4600   4609   4619   4628   4637
 CPSAMFLG      1 00000A21 FFFFFFEC     R    4514  4518   4523   4528   4533   4538   4543   4548   4659   4659
 CPSCNFLG      1 00000CD0 FFFFFFEC     R    5230  5241   5250   5261
 CPSCNF2       1 00000CD1 FFFFFFEC     R    5266  5270
 CPSCNMAX      1 00000014 FFFFFFEC A   U    5282  5283
 CPSCRI        2 00000434 FFFFFFEC     H    3491  3496   3496
 CPSEGCOD      1 00000050 FFFFFFEC     R    2488  2497   2507   2517   2527   2537   2547   2557
 CPSFL         1 00000384 FFFFFFEC     R    2839  2843   2848   2853   2858   2863
 CPSFLG        1 000003F8 FFFFFFEC     R    3379  3383   3388   3393   3398   3403   3408   3413   3418
 CPSFLG2       1 000003F9 FFFFFFEC     R    3424  3428   3433   3438
 CPSFL2        1 00000385 FFFFFFEC     R    2869  2873   2878   2883   2888
 CPSFL3        1 00000386 FFFFFFEC     R    2894  2898   2903   2908
 CPSFL4        1 00000387 FFFFFFEC     R    2914  2918   2923   2928
 CPSFL5        1 00000388 FFFFFFEC     R    2934  2938   2943   2948
 CPSKAFL       1 000003BF FFFFFFEC     R    3235  3239   3244   3249   3254   3259
 CPSKIFL       1 000003BE FFFFFFEC     R    3190  3194   3199   3204   3209   3214   3219   3224   3229
 CPSOF         1 000001F8 FFFFFFEC     X    2722  2724   2724
 CPSOFLAG      1 00000416 FFFFFFEC     R    3449  3453   3458   3463   3468   3473
 CPSOPST       4 000003C4 FFFFFFEC     F    3269  3498   3498
1CRYPT    (CRYP0060) (12:41) (15MAR04) Ordinary Symbol and Literal Cross Reference                                          Page   45
 CPSPORT       8 00000354 FFFFFFEC     C    2833  2953   2953
 CPSQFLG       1 000003EC FFFFFFEC     R    3298  3302
 CPSSFLG       1 000003BB FFFFFFEC     R    3108  3112   3117   3122   3127   3132   3137
 CPSSTART      4 00000344 FFFFFFEC     F    2825  2829   2829   3265   3265   3370   3370   3502   3502
 CPSSTAT       1 0000038F FFFFFFEC     R    3045  3049   3054   3059   3064   3069   3074   3079
 CPSTACF       1 000003BC FFFFFFEC     R    3143  3147   3152   3157   3162   3167   3172   3177   3182
 CPSTART       4 00000000 FFFFFFEC     C    2461  6155   6159
 CPSTFLAG      1 000003EA FFFFFFEC     R    3276  3280   3285   3290
 CPSTYPE       1 0000038C FFFFFFEC     R    2958  2967   2977   2987   2997   3007   3017   3027   3037
 CPSUFLG       1 000003EE FFFFFFEC     R    3313  3317   3322   3327   3332   3337   3342   3347   3352
 CPSUFLG2      1 000003EF FFFFFFEC     R    3358  3362   3367
 CPSVPGM       8 0000039C FFFFFFEC     C    3091  3097   3097
 CPS1ST        4 0000038C FFFFFFEC     F    2955  3500   3500
 CPTEMPP#      1 0000005F FFFFFFEC A   U    4408  4410
 CPTRMFL1      1 00000C7A FFFFFFEC     R    5066  5070   5075   5080   5204   5204
 CPTRMFL2      1 00000C7B FFFFFFEC     R    5086  5090   5095   5100   5105   5110   5115
 CPTRMFL3      1 00000C7C FFFFFFEC     R    5121  5125   5130   5135   5140   5145   5150   5155
 CPTRMFL4      1 00000C7D FFFFFFEC     R    5161  5165   5170   5175   5180   5185   5190   5195
 CPUSED        1 00000FBC FFFFFFEC A   U    6155  6156
 CPVACURS      8 00000AF0 FFFFFFEC     D    4933  4934   4935
 CPVCURS       8 00000AE0 FFFFFFEC     D    4927  4928   4929
 CPVFLAG       1 00000AC8 FFFFFFEC     R    4728  4732   4737   4742   4747   4752
 CPVFLAG2      1 00000AC9 FFFFFFEC     R    4758  4762   4767   4772   4777   4782   4787
 CPVFLAG3      1 00000ACA FFFFFFEC     R    4793  4797   4802   4807   4812   4817   4822
 CPVFLAG4      1 00000ACB FFFFFFEC     R    4828  4832   4837   4842
 CPVLFLAG      1 00000ACE FFFFFFEC     R    4897  4901   4906   4911
 CPVMODE       1 00000ACC FFFFFFEC     R    4850  4854   4859   4864   4869   4874   4879   4884   4889
 CPVTWID       2 00000AD0 FFFFFFEC     H    4917  4920   4920
 CPWK1         4 00000D60 FFFFFFEC     F    5601  5616   5639
 CPWK2         4 00000D64 FFFFFFEC     F    5602  5617   5631
 CPWK3         4 00000D68 FFFFFFEC     F    5603  5618   5632
 CPWK4         4 00000D6C FFFFFFEC     F    5604  5619   5633
 CPWK5         4 00000D70 FFFFFFEC     F    5605  5621   5626   5634
 CPWK6         4 00000D74 FFFFFFEC     F    5606  5622   5627   5635   5642   5644
 CPWK7         4 00000D78 FFFFFFEC     F    5607  5620   5636
 CPXFLAG       1 000007FD FFFFFFEC     R    4195  4199
 CPXSTATE      4 000007F8 FFFFFFEC     F    4189  4202   4202
 CRYP0060      1 00000000 00000001     R    1137  1135
 CV         4016 00000000 FFFFFFEE     J    2364  1172U
 CVABSRTN      4 0000088C FFFFFFEE     V    2178  2153
 CVBRMSK       1 00000751 FFFFFFEE     X    2094  2095   2096
 CVCFLAG       1 00000A00 FFFFFFEE     R    2259  2263   2268   2273   2278   2283
 CVCHKST       8 000009F0 FFFFFFEE     D    2249  2339   2339
 CVCHKST2      8 00000E28 FFFFFFEE     D    2342  2345   2345
 CVCOMRTN      4 0000087C FFFFFFEE     V    2174  2144
 CVDBGFLG      1 000004CC FFFFFFEE     R    1948  1952
 CVENT         4 0000074C FFFFFFEE     I    2092  6509B  6609B  6774B  7035B  7134B  7314B  7845B 10192B
 CVENTBR       2 00000750 FFFFFFEE     I    2093  2094
 CVERROR       4 000007D6 FFFFFFEE     I    2142  2158B
 CVEXIRTN      4 0000077C FFFFFFEE     V    2122  2118
 CVFCHRKBPR
               8 000004C9 FFFFFFEE         1863  1879   1879
 CVFCHRKBSE
               4 000004C9 FFFFFFEE         1868  1879   1879
 CVFCHRKCPR
               2 000004C9 FFFFFFEE         1885  1901   1901
 CVFCHRKCSE
               1 000004C9 FFFFFFEE         1890  1901   1901
 CVFCHRUBPR
1CRYPT    (CRYP0060) (12:41) (15MAR04) Ordinary Symbol and Literal Cross Reference                                          Page   46
             128 000004C9 FFFFFFEE         1819  1835   1835
 CVFCHRUBSE
              64 000004C9 FFFFFFEE         1824  1835   1835
 CVFCHRUCPR
              32 000004C9 FFFFFFEE         1841  1857   1857
 CVFCHRUCSE
              16 000004C9 FFFFFFEE         1846  1857   1857
 CVFL          1 000004C4 FFFFFFEE     R    1615  1619   1624   1629   1634   1639   1644   1649   1654
 CVFL2         1 000004C5 FFFFFFEE     R    1660  1664   1669   1674   1679   1684   1689   1694   1699
 CVFL3         1 000004C6 FFFFFFEE     R    1705  1709   1714   1719   1724   1729   1734   1739   1744
 CVFL4         1 000004C7 FFFFFFEE     R    1750  1754   1759   1764   1769   1774   1779   1784
 CVFL5         1 000004C8 FFFFFFEE     R    1790  1794   1799   1804   1809
 CVFL6         1 000004C9 FFFFFFEE     R    1815  1819   1824   1836   1841   1846   1858   1863   1868   1880   1885
                                                  1890   1902
 CVHEAP#       1 00000200 FFFFFFEE A   U    1521  1522
 CVINVRTN      4 00000888 FFFFFFEE     V    2177  2147
 CVJESFLG      1 000004CA FFFFFFEE     R    1908  1912
 CVLNKRGS      4 00000780 FFFFFFEE     F    2124  2099M  2125
 CVLNKRTN      4 000007B0 FFFFFFEE     U    2125  2114M
 CVLOCK1       1 00000088 FFFFFFEE     R    1266  1270   1275
 CVLOCK2       1 00000089 FFFFFFEE     R    1280  1284
 CVLOCK3       1 0000008A FFFFFFEE     R    1289  1293
 CVLOCK4       1 0000008B FFFFFFEE     R    1298  1302
 CVLOGMOD      1 00000068 FFFFFFEE     R    1253  1257
 CVMACH        1 00000067 FFFFFFEE     R    1213  1217   1222   1227   1232   1237   1242   1247
 CVMILRTN      4 00000884 FFFFFFEE     V    2176  2156
 CVNOARTN      4 00000890 FFFFFFEE     V    2179  2150
 CVNWDATE      4 00000608 FFFFFFEE     F    1981  1985   1985
 CVNWMPG#      1 00000008 FFFFFFEE A   U    1983  1984
 CVPFXRTN      1 00000000 00000000 A   T    2122  2122
 CVPGFLAG      1 00000A01 FFFFFFEE     R    2289  2293   2298   2303
 CVPIOSZ       1 00004F80 FFFFFFEE A   U    1352  1354
 CVPPDBQH      4 0000009C FFFFFFEE     A    1310  1311
 CVPSFNO       1 000003E9 FFFFFFEE A   N    1474  1476
 CVPSLNO       1 000007CF FFFFFFEE A   N    1475  1476
 CVPXSZ        1 00000008 FFFFFFEE A   U    1353  1354
 CVR          12 0000000C 00000001 A   #    1091  1172U
 CVRKEY        1 00000008 FFFFFFEE A   U    2047  2048
 CVSEGRTN      4 00000880 FFFFFFEE     V    2175  2139
 CVSTACK#      1 00000080 FFFFFFEE A   U    1513  1514
 CVSTART       4 00000000 FFFFFFEE     C    1186  2357
 CVTRC         4 00000768 FFFFFFEE     I    2114  2100B
 CVTRCRTN      4 00000778 FFFFFFEE     V    2121  2115
 CVUSFNO       1 00000001 FFFFFFEE A   N    1481  1483
 CVUSLNO       1 000003E7 FFFFFFEE A   N    1482  1483
 CVVOL#        1 00000005 FFFFFFEE A   U    2332  2333
 CVWTOFLG      1 000004CB FFFFFFEE     R    1918  1922   1927   1932   1937   1942
 C0            1 00000028 FFFFFFE7     C    7690 10026M 10027M 10061  10280M 11354M 11370  11493
 C1            1 00000029 FFFFFFE7     C    7691 10029M 10030M 10063  10282M 11356M 11372  11495
 C2            1 0000002A FFFFFFE7     C    7692 10032M 10033M 10065  10284M 11358M 11374  11497
 C3            1 0000002B FFFFFFE7     C    7693 10035M 10036M 10067  10286M 11360M 11376  11499
 C4            1 0000002C FFFFFFE7     C    7694 10038M 10039M 10040M 10069  10288M 11362M 11370M 11389  11456  11616
 C5            1 0000002D FFFFFFE7     C    7695 10042M 10043M 10044M 10071  10290M 11364M 11372M 11387  11618
 C6            1 0000002E FFFFFFE7     C    7696 10046M 10047M 10048M 10073  10292M 11366M 11374M 11391  11620
 C7            1 0000002F FFFFFFE7     C    7697 10050M 10051M 10052M 10075  10294M 11368M 11376M 11393  11480  11622
 DEBUGSG       1 00000000 00000000 A   T    2075  2075
 DEV          12 00000000 FFFFFFEB     J    4713  4721
 DEVMAX#       1 00000002 FFFFFFEC A   U    4664  4721
 DEVTYPE       1 00000001 FFFFFFEB     R    4681  4690   4700
1CRYPT    (CRYP0060) (12:41) (15MAR04) Ordinary Symbol and Literal Cross Reference                                          Page   47
 DOTTBL        1 00000000 00000000 A   T    2191  2191
 DRENCFLG      1 00000F9F FFFFFFEC     R    6119  6123   6128   6133   6138   6143
 DRENPROT      1 00000F9E FFFFFFEC     R    6106  6114
 DSNON        40 00000E90 FFFFFFEC     C    5839  5840
 DSNWADSN     44 00000E5C FFFFFFEC     C    5826  5827   5828   5829   5838   5846   6077   6083   6085   6091   6094
                                                  6096   6099   6148
 DSNWAF4       1 00000F37 FFFFFFEC     R    5894  5898   5903   5908   5913   5918   5923   5928   5933
 DSNWAF5       1 00000F38 FFFFFFEC     R    5939  5943   5948   5953   5958   5963   5968   5973   5978
 DSNWAF6       1 00000F39 FFFFFFEC     R    5984  5988   5993   5998   6003   6008   6013   6018   6023
 DSNWAF7       1 00000F3A FFFFFFEC     R    6029  6033   6038   6043   6048
 DSNXG         1 00000004 FFFFFFEC A   U    5831  5833
 DSNXGL        1 00000003 FFFFFFEC A   U    5832  5833
 DSNXU         1 00000007 FFFFFFEC A   U    5833  5835
 DSNXUL        1 00000004 FFFFFFEC A   U    5834  5835
 DSSIZ         1 00000108 FFFFFFEC A   U    6077  6085   6094   6099
 EBCTBL        1 00000000 00000000 A   T    2187  2187
 EBCTBL7       1 00000000 00000000 A   T    2190  2190
 ECBLIST       1 00000000 00000000 A   T    2050  2050
 EPARTBL       1 00000000 00000000 A   T    2182  2182
 FCCIPHER      8 00000014 FFFFFFE8     C    6355  7065   7210   7216   7236   7390   7396   7413
 FCINDEX       4 00000000 FFFFFFE8     F    6352  7070M  7175   7250M  7355   7431M
 FCKEY         8 00000004 FFFFFFE8     C    6353  7065   7065M  7214   7233   7235M  7394   7417   7419M
 FCRYPTWA     28 00000000 FFFFFFE8     J    6362  7063U  7162U  7342U
 FCTEXT        8 0000000C FFFFFFE8     C    6354  7065   7210M  7215   7390M  7395
 FDECRYPT      2 00000266 00000001     H    7300  7296
 FEALBLKD      2 00001426 00000001     H   10176 10172  10223  10231U
 FEALBLKE      2 0000030E 00000001     H    7829  7467   7825   7876   7884U
 FEALBWA     114 00000000 FFFFFFE7     J    7779  7842   7871U  7893M  7893  10101  10103  10104  10189  10218U 10240M
                                                 10240  12448  12450  12451
 FENCRYPT      2 000001D4 00000001     H    7120  7116
 FSR           0 00000000 00000001 A   #    1001  6504   6560M  6604   6725M  6769   6891M  7030   7085M  7129   7265M
                                                  7309   7446M  7839  10101M 10186  12448M
 F0B0          1 00000050 FFFFFFE7     C    7735  9119M  9146M  9165   9232   9392  11466M 11493M 11512  11579  11739
 F0B1          1 00000051 FFFFFFE7     C    7736  9040M  9041M  9042M  9060   9071M  9086   9110   9148M  9163   9394
                                                 11387M 11388M 11389M 11407  11418M 11433  11457  11495M 11510  11741
 F0B2          1 00000052 FFFFFFE7     C    7737  9044M  9045M  9046M  9061   9085   9095M  9134   9150M  9167   9396
                                                 11391M 11392M 11393M 11408  11432  11442M 11481  11497M 11514  11743
 F0B3          1 00000053 FFFFFFE7     C    7738  9144M  9152M  9169   9256   9398  11491M 11499M 11516  11603  11745
 F1B0          1 00000054 FFFFFFE7     C    7739  9242M  9269M  9288   9355   9515  11589M 11616M 11635  11702  11862
 F1B1          1 00000055 FFFFFFE7     C    7740  9163M  9164M  9165M  9183   9194M  9209   9233   9271M  9286   9517
                                                 11510M 11511M 11512M 11530  11541M 11556  11580  11618M 11633  11864
 F1B2          1 00000056 FFFFFFE7     C    7741  9167M  9168M  9169M  9184   9208   9218M  9257   9273M  9290   9519
                                                 11514M 11515M 11516M 11531  11555  11565M 11604  11620M 11637  11866
 F1B3          1 00000057 FFFFFFE7     C    7742  9267M  9275M  9292   9379   9521  11614M 11622M 11639  11726  11868
 F2B0          1 00000058 FFFFFFE7     C    7744  9365M  9392M  9411   9478   9638  11712M 11739M 11758  11825  11985
 F2B1          1 00000059 FFFFFFE7     C    7745  9286M  9287M  9288M  9306   9317M  9332   9356   9394M  9409   9640
                                                 11633M 11634M 11635M 11653  11664M 11679  11703  11741M 11756  11987
 F2B2          1 0000005A FFFFFFE7     C    7746  9290M  9291M  9292M  9307   9331   9341M  9380   9396M  9413   9642
                                                 11637M 11638M 11639M 11654  11678  11688M 11727  11743M 11760  11989
 F2B3          1 0000005B FFFFFFE7     C    7747  9390M  9398M  9415   9502   9644  11737M 11745M 11762  11849  11991
 F3B0          1 0000005C FFFFFFE7     C    7748  9488M  9515M  9534   9601   9761  11835M 11862M 11881  11948  12108
 F3B1          1 0000005D FFFFFFE7     C    7749  9409M  9410M  9411M  9429   9440M  9455   9479   9517M  9532   9763
                                                 11756M 11757M 11758M 11776  11787M 11802  11826  11864M 11879  12110
 F3B2          1 0000005E FFFFFFE7     C    7750  9413M  9414M  9415M  9430   9454   9464M  9503   9519M  9536   9765
                                                 11760M 11761M 11762M 11777  11801  11811M 11850  11866M 11883  12112
 F3B3          1 0000005F FFFFFFE7     C    7751  9513M  9521M  9538   9625   9767  11860M 11868M 11885  11972  12114
 F4B0          1 00000060 FFFFFFE7     C    7753  9611M  9638M  9657   9724   9884  11958M 11985M 12004  12071  12231
 F4B1          1 00000061 FFFFFFE7     C    7754  9532M  9533M  9534M  9552   9563M  9578   9602   9640M  9655   9886
                                                 11879M 11880M 11881M 11899  11910M 11925  11949  11987M 12002  12233
1CRYPT    (CRYP0060) (12:41) (15MAR04) Ordinary Symbol and Literal Cross Reference                                          Page   48
 F4B2          1 00000062 FFFFFFE7     C    7755  9536M  9537M  9538M  9553   9577   9587M  9626   9642M  9659   9888
                                                 11883M 11884M 11885M 11900  11924  11934M 11973  11989M 12006  12235
 F4B3          1 00000063 FFFFFFE7     C    7756  9636M  9644M  9661   9748   9890  11983M 11991M 12008  12095  12237
 F5B0          1 00000064 FFFFFFE7     C    7757  9734M  9761M  9780   9847  10007  12081M 12108M 12127  12194  12354
 F5B1          1 00000065 FFFFFFE7     C    7758  9655M  9656M  9657M  9675   9686M  9701   9725   9763M  9778  10009
                                                 12002M 12003M 12004M 12022  12033M 12048  12072  12110M 12125  12356
 F5B2          1 00000066 FFFFFFE7     C    7759  9659M  9660M  9661M  9676   9700   9710M  9749   9765M  9782  10011
                                                 12006M 12007M 12008M 12023  12047  12057M 12096  12112M 12129  12358
 F5B3          1 00000067 FFFFFFE7     C    7760  9759M  9767M  9784   9871  10013  12106M 12114M 12131  12218  12360
 F6B0          1 00000068 FFFFFFE7     C    7762  9857M  9884M  9903   9970  10039  12204M 12231M 12250  12317  12386
 F6B1          1 00000069 FFFFFFE7     C    7763  9778M  9779M  9780M  9798   9809M  9824   9848   9886M  9901  10043
                                                 12125M 12126M 12127M 12145  12156M 12171  12195  12233M 12248  12390
 F6B2          1 0000006A FFFFFFE7     C    7764  9782M  9783M  9784M  9799   9823   9833M  9872   9888M  9905  10047
                                                 12129M 12130M 12131M 12146  12170  12180M 12219  12235M 12252  12394
 F6B3          1 0000006B FFFFFFE7     C    7765  9882M  9890M  9907   9994  10051  12229M 12237M 12254  12341  12398
 F7B0          1 0000006C FFFFFFE7     C    7766  9980M 10007M 10026  10038  12327M 12354M 12373  12385
 F7B1          1 0000006D FFFFFFE7     C    7767  9901M  9902M  9903M  9921   9932M  9947   9971  10009M 10029  10042
                                                 12248M 12249M 12250M 12268  12279M 12294  12318  12356M 12376  12389
 F7B2          1 0000006E FFFFFFE7     C    7768  9905M  9906M  9907M  9922   9946   9956M  9995  10011M 10032  10046
                                                 12252M 12253M 12254M 12269  12293  12303M 12342  12358M 12379  12393
 F7B3          1 0000006F FFFFFFE7     C    7769 10005M 10013M 10035  10050  12352M 12360M 12382  12397
 HIBAL         1 00000000 FFFFFFFF     J     691   707    720    733    746    759    772    785    798    811    824
                                                   837    850    863    876    889    902
 INVALID       1 00000000 00000000 A   T    2177  2177
 KAB0          1 00000044 FFFFFFE7     C    7721  8700M  8745   8865   8944   9015  11047M 11092  11212  11291  12387
 KAB1          1 00000045 FFFFFFE7     C    7722  8611M  8612M  8633   8644M  8646   8674   8774   8866   9017  10958M
                                                 10959M 10980  10991M 10993  11021  11121  11213  12391
 KBB0          1 00000046 FFFFFFE7     C    7723  8614M  8615M  8617   8662   8672M  8702   8802   8868   9019  10961M
                                                 10962M 10964  11009  11019M 11049  11149  11215  12395
 KBB1          1 00000047 FFFFFFE7     C    7724  8729M  8830   8869   8972   9021  11076M 11177  11216  11319  12399
 KCB0          1 00000048 FFFFFFE7     C    7726  8827M  8872  10027  11174M 11219  11354
 KCB1          1 00000049 FFFFFFE7     C    7727  8738M  8739M  8760   8771M  8773   8801   8901  10030  11085M 11086M
                                                 11107  11118M 11120  11148  11248  11356
 KDB0          1 0000004A FFFFFFE7     C    7728  8741M  8742M  8744   8789   8799M  8829   8929  10033  11088M 11089M
                                                 11091  11136  11146M 11176  11276  11358
 KDB1          1 0000004B FFFFFFE7     C    7729  8856M  8957  10036  11203M 11304  11360
 KEB0          1 0000004C FFFFFFE7     C    7730  8954M 10040  11301M 11362
 KEB1          1 0000004D FFFFFFE7     C    7731  8865M  8866M  8887   8898M  8900   8928  10044  11212M 11213M 11234
                                                 11245M 11247  11275  11364
 KEY           8 00000000 FFFFFFE7     C    7668  7895M  7949   7951   7953   7955   7957   7959   7961   7963  10242M
                                                 10296  10298  10300  10302  10304  10306  10308  10310
 KEYB0         1 00000020 FFFFFFE7     C    7681  7949M  7976   8055   8111  10296M 10323  10402  10458
 KEYB1         1 00000021 FFFFFFE7     C    7682  7951M  7977   8140  10298M 10324  10487
 KEYB2         1 00000022 FFFFFFE7     C    7683  7953M  7979   8168  10300M 10326  10515
 KEYB3         1 00000023 FFFFFFE7     C    7684  7955M  7980   8083   8196  10302M 10327  10430  10543
 KEYB4         1 00000024 FFFFFFE7     C    7685  7957M  7983   8103   8182   8238  10304M 10330  10450  10529  10585
 KEYB5         1 00000025 FFFFFFE7     C    7686  7959M  8012   8104   8267  10306M 10359  10451  10614
 KEYB6         1 00000026 FFFFFFE7     C    7687  7961M  8040   8106   8295  10308M 10387  10453  10642
 KEYB7         1 00000027 FFFFFFE7     C    7688  7963M  8068   8107   8210   8323  10310M 10415  10454  10557  10670
 KFB0          1 0000004E FFFFFFE7     C    7732  8868M  8869M  8871   8916   8926M  8956  10048  11215M 11216M 11218
                                                 11263  11273M 11303  11366
 KFB1          1 0000004F FFFFFFE7     C    7733  8983M 10052  11330M 11368
 K0B0          1 00000030 FFFFFFE7     C    7699  8065M  8110   8230   8309   8365   9041  10412M 10457  10577  10656
                                                 10712  12249
 K0B1          1 00000031 FFFFFFE7     C    7700  7976M  7977M  7998   8009M  8011   8039   8139   8231   8394   9045
                                                 10323M 10324M 10345  10356M 10358  10386  10486  10578  10741  12253
 K1B0          1 00000032 FFFFFFE7     C    7701  7979M  7980M  7982   8027   8037M  8067   8167   8233   8422   9164
                                                 10326M 10327M 10329  10374  10384M 10414  10514  10580  10769  12126
 K1B1          1 00000033 FFFFFFE7     C    7702  8094M  8195   8234   8337   8450   9168  10441M 10542  10581  10684
1CRYPT    (CRYP0060) (12:41) (15MAR04) Ordinary Symbol and Literal Cross Reference                                          Page   49
                                                 10797  12130
 K2B0          1 00000034 FFFFFFE7     C    7703  8192M  8237   8357   8436   8492   9287  10539M 10584  10704  10783
                                                 10839  12003
 K2B1          1 00000035 FFFFFFE7     C    7704  8103M  8104M  8125   8136M  8138   8166   8266   8358   8521   9291
                                                 10450M 10451M 10472  10483M 10485  10513  10613  10705  10868  12007
 K3B0          1 00000036 FFFFFFE7     C    7705  8106M  8107M  8109   8154   8164M  8194   8294   8360   8549   9410
                                                 10453M 10454M 10456  10501  10511M 10541  10641  10707  10896  11880
 K3B1          1 00000037 FFFFFFE7     C    7706  8221M  8322   8361   8464   8577   9414  10568M 10669  10708  10811
                                                 10924  11884
 K4B0          1 00000038 FFFFFFE7     C    7708  8319M  8364   8484   8563   8619   9533  10666M 10711  10831  10910
                                                 10966  11757
 K4B1          1 00000039 FFFFFFE7     C    7709  8230M  8231M  8252   8263M  8265   8293   8393   8485   8648   9537
                                                 10577M 10578M 10599  10610M 10612  10640  10740  10832  10995  11761
 K5B0          1 0000003A FFFFFFE7     C    7710  8233M  8234M  8236   8281   8291M  8321   8421   8487   8676   9656
                                                 10580M 10581M 10583  10628  10638M 10668  10768  10834  11023  11634
 K5B1          1 0000003B FFFFFFE7     C    7711  8348M  8449   8488   8591   8704   9660  10695M 10796  10835  10938
                                                 11051  11638
 K6B0          1 0000003C FFFFFFE7     C    7712  8446M  8491   8611   8690   8746   9779  10793M 10838  10958  11037
                                                 11093  11511
 K6B1          1 0000003D FFFFFFE7     C    7713  8357M  8358M  8379   8390M  8392   8420   8520   8612   8775   9783
                                                 10704M 10705M 10726  10737M 10739  10767  10867  10959  11122  11515
 K7B0          1 0000003E FFFFFFE7     C    7714  8360M  8361M  8363   8408   8418M  8448   8548   8614   8803   9902
                                                 10707M 10708M 10710  10755  10765M 10795  10895  10961  11150  11388
 K7B1          1 0000003F FFFFFFE7     C    7715  8475M  8576   8615   8718   8831   9906  10822M 10923  10962  11065
                                                 11178  11392
 K8B0          1 00000040 FFFFFFE7     C    7717  8573M  8618   8738   8817   8873   9007  10920M 10965  11085  11164
                                                 11220  12374
 K8B1          1 00000041 FFFFFFE7     C    7718  8484M  8485M  8506   8517M  8519   8547   8647   8739   8902   9009
                                                 10831M 10832M 10853  10864M 10866  10894  10994  11086  11249  12377
 K9B0          1 00000042 FFFFFFE7     C    7719  8487M  8488M  8490   8535   8545M  8575   8675   8741   8930   9011
                                                 10834M 10835M 10837  10882  10892M 10922  11022  11088  11277  12380
 K9B1          1 00000043 FFFFFFE7     C    7720  8602M  8703   8742   8845   8958   9013  10949M 11050  11089  11192
                                                 11305  12383
 LOWTBL        1 00000000 00000000 A   T    2185  2185
 LSR           8 00000008 00000001 A   #    1039  6504   6560M  6604   6725M  6769   6891M  7030   7085M  7129   7265M
                                                  7309   7446M  7839  10101M 10186  12448M
 MILERR        1 00000000 00000000 A   T    2176  2176
 NBLTBL        1 00000000 00000000 A   T    2189  2189
 NOACTION      1 00000000 00000000 A   T    2179  2179
 NPARTBL       1 00000000 00000000 A   T    2183  2183
 NSCNCB      176 00000000 FFFFFFED     J    2448  2574
 NSCNFLGS      1 00000008 FFFFFFED     R    2385  2389   2394
 NSCNTYPE      1 00000018 FFFFFFED     R    2403  2407   2412   2417   2422   2427
 P0            1 00000018 FFFFFFE7     C    7672  7933M  9007M  9023   9146  12373M 12374M 12408
 P1            1 00000019 FFFFFFE7     C    7673  7935M  9009M  9025   9148  12376M 12377M 12410
 P2            1 0000001A FFFFFFE7     C    7674  7937M  9011M  9027   9150  12379M 12380M 12412
 P3            1 0000001B FFFFFFE7     C    7675  7939M  9013M  9029   9152  12382M 12383M 12414
 P4            1 0000001C FFFFFFE7     C    7676  7941M  9015M  9023M  9042   9109   9269  12385M 12386M 12387M 12416
 P5            1 0000001D FFFFFFE7     C    7677  7943M  9017M  9025M  9040   9271  12389M 12390M 12391M 12418
 P6            1 0000001E FFFFFFE7     C    7678  7945M  9019M  9027M  9044   9273  12393M 12394M 12395M 12420
 P7            1 0000001F FFFFFFE7     C    7679  7947M  9021M  9029M  9046   9133   9275  12397M 12398M 12399M 12422
 RAR          14 0000000E 00000001 A   #    1117  2114   2115M  2116B  2118M  2119B  2139M  2140B  2144M  2145B  2147M
                                                  2148B  2150M  2151B  2153M  2154B  2156M  2157M  2157B  2163   6501
                                                  6562M  6565B  6601   6727M  6730B  6766   6893M  6896B  7027   7087M
                                                  7090B  7126   7219M  7220M  7220B  7267M  7270B  7306   7399M  7400M
                                                  7400B  7448M  7451B  7836  10103M 10106B 10183  12450M 12453B
 R0            0 00000000 FFFFFFFF A   #     699  2099   2168M  6641M  6670   6806M  6835   7069M  7069   7070   7164M
                                                  7187   7212   7213   7213   7213   7214M  7223M  7344M  7367   7392
                                                  7393   7393   7393   7394M  7403M  7469   7469   7469   7894   7904M
1CRYPT    (CRYP0060) (12:41) (15MAR04) Ordinary Symbol and Literal Cross Reference                                          Page   50
                                                  7904   7989M  7989   7998M  8001M  8002M  8003M  8004   8005M  8007M
                                                  8008M  8009   8018M  8018   8027M  8030M  8031M  8032   8033M  8035M
                                                  8036M  8037   8046M  8046   8055M  8058M  8059M  8060   8061M  8063M
                                                  8064M  8065   8074M  8074   8083M  8086M  8087M  8088M  8089   8090M
                                                  8092M  8093M  8094   8116M  8116   8125M  8128M  8129M  8130M  8131
                                                  8132M  8134M  8135M  8136   8145M  8145   8154M  8157M  8158M  8159
                                                  8160M  8162M  8163M  8164   8173M  8173   8182M  8185M  8186M  8187
                                                  8188M  8190M  8191M  8192   8201M  8201   8210M  8213M  8214M  8215M
                                                  8216   8217M  8219M  8220M  8221   8243M  8243   8252M  8255M  8256M
                                                  8257M  8258   8259M  8261M  8262M  8263   8272M  8272   8281M  8284M
                                                  8285M  8286   8287M  8289M  8290M  8291   8300M  8300   8309M  8312M
                                                  8313M  8314   8315M  8317M  8318M  8319   8328M  8328   8337M  8340M
                                                  8341M  8342M  8343   8344M  8346M  8347M  8348   8370M  8370   8379M
                                                  8382M  8383M  8384M  8385   8386M  8388M  8389M  8390   8399M  8399
                                                  8408M  8411M  8412M  8413   8414M  8416M  8417M  8418   8427M  8427
                                                  8436M  8439M  8440M  8441   8442M  8444M  8445M  8446   8455M  8455
                                                  8464M  8467M  8468M  8469M  8470   8471M  8473M  8474M  8475   8497M
                                                  8497   8506M  8509M  8510M  8511M  8512   8513M  8515M  8516M  8517
                                                  8526M  8526   8535M  8538M  8539M  8540   8541M  8543M  8544M  8545
                                                  8554M  8554   8563M  8566M  8567M  8568   8569M  8571M  8572M  8573
                                                  8582M  8582   8591M  8594M  8595M  8596M  8597   8598M  8600M  8601M
                                                  8602   8624M  8624   8633M  8636M  8637M  8638M  8639   8640M  8642M
                                                  8643M  8644   8653M  8653   8662M  8665M  8666M  8667   8668M  8670M
                                                  8671M  8672   8681M  8681   8690M  8693M  8694M  8695   8696M  8698M
                                                  8699M  8700   8709M  8709   8718M  8721M  8722M  8723M  8724   8725M
                                                  8727M  8728M  8729   8751M  8751   8760M  8763M  8764M  8765M  8766
                                                  8767M  8769M  8770M  8771   8780M  8780   8789M  8792M  8793M  8794
                                                  8795M  8797M  8798M  8799   8808M  8808   8817M  8820M  8821M  8822
                                                  8823M  8825M  8826M  8827   8836M  8836   8845M  8848M  8849M  8850M
                                                  8851   8852M  8854M  8855M  8856   8878M  8878   8887M  8890M  8891M
                                                  8892M  8893   8894M  8896M  8897M  8898   8907M  8907   8916M  8919M
                                                  8920M  8921   8922M  8924M  8925M  8926   8935M  8935   8944M  8947M
                                                  8948M  8949   8950M  8952M  8953M  8954   8963M  8963   8972M  8975M
                                                  8976M  8977M  8978   8979M  8981M  8982M  8983   9051M  9051   9060M
                                                  9063M  9064M  9065M  9066   9067M  9069M  9070M  9071   9076M  9076
                                                  9085M  9088M  9089M  9090   9091M  9093M  9094M  9095   9100M  9100
                                                  9109M  9112M  9113M  9114   9115M  9117M  9118M  9119   9124M  9124
                                                  9133M  9136M  9137M  9138M  9139   9140M  9142M  9143M  9144   9174M
                                                  9174   9183M  9186M  9187M  9188M  9189   9190M  9192M  9193M  9194
                                                  9199M  9199   9208M  9211M  9212M  9213   9214M  9216M  9217M  9218
                                                  9223M  9223   9232M  9235M  9236M  9237   9238M  9240M  9241M  9242
                                                  9247M  9247   9256M  9259M  9260M  9261M  9262   9263M  9265M  9266M
                                                  9267   9297M  9297   9306M  9309M  9310M  9311M  9312   9313M  9315M
                                                  9316M  9317   9322M  9322   9331M  9334M  9335M  9336   9337M  9339M
                                                  9340M  9341   9346M  9346   9355M  9358M  9359M  9360   9361M  9363M
                                                  9364M  9365   9370M  9370   9379M  9382M  9383M  9384M  9385   9386M
                                                  9388M  9389M  9390   9420M  9420   9429M  9432M  9433M  9434M  9435
                                                  9436M  9438M  9439M  9440   9445M  9445   9454M  9457M  9458M  9459
                                                  9460M  9462M  9463M  9464   9469M  9469   9478M  9481M  9482M  9483
                                                  9484M  9486M  9487M  9488   9493M  9493   9502M  9505M  9506M  9507M
                                                  9508   9509M  9511M  9512M  9513   9543M  9543   9552M  9555M  9556M
                                                  9557M  9558   9559M  9561M  9562M  9563   9568M  9568   9577M  9580M
                                                  9581M  9582   9583M  9585M  9586M  9587   9592M  9592   9601M  9604M
                                                  9605M  9606   9607M  9609M  9610M  9611   9616M  9616   9625M  9628M
                                                  9629M  9630M  9631   9632M  9634M  9635M  9636   9666M  9666   9675M
                                                  9678M  9679M  9680M  9681   9682M  9684M  9685M  9686   9691M  9691
                                                  9700M  9703M  9704M  9705   9706M  9708M  9709M  9710   9715M  9715
                                                  9724M  9727M  9728M  9729   9730M  9732M  9733M  9734   9739M  9739
                                                  9748M  9751M  9752M  9753M  9754   9755M  9757M  9758M  9759   9789M
1CRYPT    (CRYP0060) (12:41) (15MAR04) Ordinary Symbol and Literal Cross Reference                                          Page   51
                                                  9789   9798M  9801M  9802M  9803M  9804   9805M  9807M  9808M  9809
                                                  9814M  9814   9823M  9826M  9827M  9828   9829M  9831M  9832M  9833
                                                  9838M  9838   9847M  9850M  9851M  9852   9853M  9855M  9856M  9857
                                                  9862M  9862   9871M  9874M  9875M  9876M  9877   9878M  9880M  9881M
                                                  9882   9912M  9912   9921M  9924M  9925M  9926M  9927   9928M  9930M
                                                  9931M  9932   9937M  9937   9946M  9949M  9950M  9951   9952M  9954M
                                                  9955M  9956   9961M  9961   9970M  9973M  9974M  9975   9976M  9978M
                                                  9979M  9980   9985M  9985   9994M  9997M  9998M  9999M 10000  10001M
                                                 10003M 10004M 10005  10241  10251M 10251  10336M 10336  10345M 10348M
                                                 10349M 10350M 10351  10352M 10354M 10355M 10356  10365M 10365  10374M
                                                 10377M 10378M 10379  10380M 10382M 10383M 10384  10393M 10393  10402M
                                                 10405M 10406M 10407  10408M 10410M 10411M 10412  10421M 10421  10430M
                                                 10433M 10434M 10435M 10436  10437M 10439M 10440M 10441  10463M 10463
                                                 10472M 10475M 10476M 10477M 10478  10479M 10481M 10482M 10483  10492M
                                                 10492  10501M 10504M 10505M 10506  10507M 10509M 10510M 10511  10520M
                                                 10520  10529M 10532M 10533M 10534  10535M 10537M 10538M 10539  10548M
                                                 10548  10557M 10560M 10561M 10562M 10563  10564M 10566M 10567M 10568
                                                 10590M 10590  10599M 10602M 10603M 10604M 10605  10606M 10608M 10609M
                                                 10610  10619M 10619  10628M 10631M 10632M 10633  10634M 10636M 10637M
                                                 10638  10647M 10647  10656M 10659M 10660M 10661  10662M 10664M 10665M
                                                 10666  10675M 10675  10684M 10687M 10688M 10689M 10690  10691M 10693M
                                                 10694M 10695  10717M 10717  10726M 10729M 10730M 10731M 10732  10733M
                                                 10735M 10736M 10737  10746M 10746  10755M 10758M 10759M 10760  10761M
                                                 10763M 10764M 10765  10774M 10774  10783M 10786M 10787M 10788  10789M
                                                 10791M 10792M 10793  10802M 10802  10811M 10814M 10815M 10816M 10817
                                                 10818M 10820M 10821M 10822  10844M 10844  10853M 10856M 10857M 10858M
                                                 10859  10860M 10862M 10863M 10864  10873M 10873  10882M 10885M 10886M
                                                 10887  10888M 10890M 10891M 10892  10901M 10901  10910M 10913M 10914M
                                                 10915  10916M 10918M 10919M 10920  10929M 10929  10938M 10941M 10942M
                                                 10943M 10944  10945M 10947M 10948M 10949  10971M 10971  10980M 10983M
                                                 10984M 10985M 10986  10987M 10989M 10990M 10991  11000M 11000  11009M
                                                 11012M 11013M 11014  11015M 11017M 11018M 11019  11028M 11028  11037M
                                                 11040M 11041M 11042  11043M 11045M 11046M 11047  11056M 11056  11065M
                                                 11068M 11069M 11070M 11071  11072M 11074M 11075M 11076  11098M 11098
                                                 11107M 11110M 11111M 11112M 11113  11114M 11116M 11117M 11118  11127M
                                                 11127  11136M 11139M 11140M 11141  11142M 11144M 11145M 11146  11155M
                                                 11155  11164M 11167M 11168M 11169  11170M 11172M 11173M 11174  11183M
                                                 11183  11192M 11195M 11196M 11197M 11198  11199M 11201M 11202M 11203
                                                 11225M 11225  11234M 11237M 11238M 11239M 11240  11241M 11243M 11244M
                                                 11245  11254M 11254  11263M 11266M 11267M 11268  11269M 11271M 11272M
                                                 11273  11282M 11282  11291M 11294M 11295M 11296  11297M 11299M 11300M
                                                 11301  11310M 11310  11319M 11322M 11323M 11324M 11325  11326M 11328M
                                                 11329M 11330  11398M 11398  11407M 11410M 11411M 11412M 11413  11414M
                                                 11416M 11417M 11418  11423M 11423  11432M 11435M 11436M 11437  11438M
                                                 11440M 11441M 11442  11447M 11447  11456M 11459M 11460M 11461  11462M
                                                 11464M 11465M 11466  11471M 11471  11480M 11483M 11484M 11485M 11486
                                                 11487M 11489M 11490M 11491  11521M 11521  11530M 11533M 11534M 11535M
                                                 11536  11537M 11539M 11540M 11541  11546M 11546  11555M 11558M 11559M
                                                 11560  11561M 11563M 11564M 11565  11570M 11570  11579M 11582M 11583M
                                                 11584  11585M 11587M 11588M 11589  11594M 11594  11603M 11606M 11607M
                                                 11608M 11609  11610M 11612M 11613M 11614  11644M 11644  11653M 11656M
                                                 11657M 11658M 11659  11660M 11662M 11663M 11664  11669M 11669  11678M
                                                 11681M 11682M 11683  11684M 11686M 11687M 11688  11693M 11693  11702M
                                                 11705M 11706M 11707  11708M 11710M 11711M 11712  11717M 11717  11726M
                                                 11729M 11730M 11731M 11732  11733M 11735M 11736M 11737  11767M 11767
                                                 11776M 11779M 11780M 11781M 11782  11783M 11785M 11786M 11787  11792M
                                                 11792  11801M 11804M 11805M 11806  11807M 11809M 11810M 11811  11816M
                                                 11816  11825M 11828M 11829M 11830  11831M 11833M 11834M 11835  11840M
                                                 11840  11849M 11852M 11853M 11854M 11855  11856M 11858M 11859M 11860
1CRYPT    (CRYP0060) (12:41) (15MAR04) Ordinary Symbol and Literal Cross Reference                                          Page   52
                                                 11890M 11890  11899M 11902M 11903M 11904M 11905  11906M 11908M 11909M
                                                 11910  11915M 11915  11924M 11927M 11928M 11929  11930M 11932M 11933M
                                                 11934  11939M 11939  11948M 11951M 11952M 11953  11954M 11956M 11957M
                                                 11958  11963M 11963  11972M 11975M 11976M 11977M 11978  11979M 11981M
                                                 11982M 11983  12013M 12013  12022M 12025M 12026M 12027M 12028  12029M
                                                 12031M 12032M 12033  12038M 12038  12047M 12050M 12051M 12052  12053M
                                                 12055M 12056M 12057  12062M 12062  12071M 12074M 12075M 12076  12077M
                                                 12079M 12080M 12081  12086M 12086  12095M 12098M 12099M 12100M 12101
                                                 12102M 12104M 12105M 12106  12136M 12136  12145M 12148M 12149M 12150M
                                                 12151  12152M 12154M 12155M 12156  12161M 12161  12170M 12173M 12174M
                                                 12175  12176M 12178M 12179M 12180  12185M 12185  12194M 12197M 12198M
                                                 12199  12200M 12202M 12203M 12204  12209M 12209  12218M 12221M 12222M
                                                 12223M 12224  12225M 12227M 12228M 12229  12259M 12259  12268M 12271M
                                                 12272M 12273M 12274  12275M 12277M 12278M 12279  12284M 12284  12293M
                                                 12296M 12297M 12298  12299M 12301M 12302M 12303  12308M 12308  12317M
                                                 12320M 12321M 12322  12323M 12325M 12326M 12327  12332M 12332  12341M
                                                 12344M 12345M 12346M 12347  12348M 12350M 12351M 12352
 R1            1 00000001 FFFFFFFF A   #     712  2162M  2163M  2169M  6540M  6541   6542M  6543   6544M  6545   6641
                                                  6670   6700M  6806   6835   6866M  7164   7187   7215M  7244M  7344
                                                  7367   7395M  7425M  7908M  7908   7993M  7993   7999M  8001   8004M
                                                  8006M  8007   8022M  8022   8028M  8030   8032M  8034M  8035   8050M
                                                  8050   8056M  8058   8060M  8062M  8063   8078M  8078   8084M  8086
                                                  8089M  8091M  8092   8120M  8120   8126M  8128   8131M  8133M  8134
                                                  8149M  8149   8155M  8157   8159M  8161M  8162   8177M  8177   8183M
                                                  8185   8187M  8189M  8190   8205M  8205   8211M  8213   8216M  8218M
                                                  8219   8247M  8247   8253M  8255   8258M  8260M  8261   8276M  8276
                                                  8282M  8284   8286M  8288M  8289   8304M  8304   8310M  8312   8314M
                                                  8316M  8317   8332M  8332   8338M  8340   8343M  8345M  8346   8374M
                                                  8374   8380M  8382   8385M  8387M  8388   8403M  8403   8409M  8411
                                                  8413M  8415M  8416   8431M  8431   8437M  8439   8441M  8443M  8444
                                                  8459M  8459   8465M  8467   8470M  8472M  8473   8501M  8501   8507M
                                                  8509   8512M  8514M  8515   8530M  8530   8536M  8538   8540M  8542M
                                                  8543   8558M  8558   8564M  8566   8568M  8570M  8571   8586M  8586
                                                  8592M  8594   8597M  8599M  8600   8628M  8628   8634M  8636   8639M
                                                  8641M  8642   8657M  8657   8663M  8665   8667M  8669M  8670   8685M
                                                  8685   8691M  8693   8695M  8697M  8698   8713M  8713   8719M  8721
                                                  8724M  8726M  8727   8755M  8755   8761M  8763   8766M  8768M  8769
                                                  8784M  8784   8790M  8792   8794M  8796M  8797   8812M  8812   8818M
                                                  8820   8822M  8824M  8825   8840M  8840   8846M  8848   8851M  8853M
                                                  8854   8882M  8882   8888M  8890   8893M  8895M  8896   8911M  8911
                                                  8917M  8919   8921M  8923M  8924   8939M  8939   8945M  8947   8949M
                                                  8951M  8952   8967M  8967   8973M  8975   8978M  8980M  8981   9055M
                                                  9055   9061M  9063   9066M  9068M  9069   9080M  9080   9086M  9088
                                                  9090M  9092M  9093   9104M  9104   9110M  9112   9114M  9116M  9117
                                                  9128M  9128   9134M  9136   9139M  9141M  9142   9178M  9178   9184M
                                                  9186   9189M  9191M  9192   9203M  9203   9209M  9211   9213M  9215M
                                                  9216   9227M  9227   9233M  9235   9237M  9239M  9240   9251M  9251
                                                  9257M  9259   9262M  9264M  9265   9301M  9301   9307M  9309   9312M
                                                  9314M  9315   9326M  9326   9332M  9334   9336M  9338M  9339   9350M
                                                  9350   9356M  9358   9360M  9362M  9363   9374M  9374   9380M  9382
                                                  9385M  9387M  9388   9424M  9424   9430M  9432   9435M  9437M  9438
                                                  9449M  9449   9455M  9457   9459M  9461M  9462   9473M  9473   9479M
                                                  9481   9483M  9485M  9486   9497M  9497   9503M  9505   9508M  9510M
                                                  9511   9547M  9547   9553M  9555   9558M  9560M  9561   9572M  9572
                                                  9578M  9580   9582M  9584M  9585   9596M  9596   9602M  9604   9606M
                                                  9608M  9609   9620M  9620   9626M  9628   9631M  9633M  9634   9670M
                                                  9670   9676M  9678   9681M  9683M  9684   9695M  9695   9701M  9703
                                                  9705M  9707M  9708   9719M  9719   9725M  9727   9729M  9731M  9732
                                                  9743M  9743   9749M  9751   9754M  9756M  9757   9793M  9793   9799M
1CRYPT    (CRYP0060) (12:41) (15MAR04) Ordinary Symbol and Literal Cross Reference                                          Page   53
                                                  9801   9804M  9806M  9807   9818M  9818   9824M  9826   9828M  9830M
                                                  9831   9842M  9842   9848M  9850   9852M  9854M  9855   9866M  9866
                                                  9872M  9874   9877M  9879M  9880   9916M  9916   9922M  9924   9927M
                                                  9929M  9930   9941M  9941   9947M  9949   9951M  9953M  9954   9965M
                                                  9965   9971M  9973   9975M  9977M  9978   9989M  9989   9995M  9997
                                                 10000M 10002M 10003  10245  10255M 10255  10340M 10340  10346M 10348
                                                 10351M 10353M 10354  10369M 10369  10375M 10377  10379M 10381M 10382
                                                 10397M 10397  10403M 10405  10407M 10409M 10410  10425M 10425  10431M
                                                 10433  10436M 10438M 10439  10467M 10467  10473M 10475  10478M 10480M
                                                 10481  10496M 10496  10502M 10504  10506M 10508M 10509  10524M 10524
                                                 10530M 10532  10534M 10536M 10537  10552M 10552  10558M 10560  10563M
                                                 10565M 10566  10594M 10594  10600M 10602  10605M 10607M 10608  10623M
                                                 10623  10629M 10631  10633M 10635M 10636  10651M 10651  10657M 10659
                                                 10661M 10663M 10664  10679M 10679  10685M 10687  10690M 10692M 10693
                                                 10721M 10721  10727M 10729  10732M 10734M 10735  10750M 10750  10756M
                                                 10758  10760M 10762M 10763  10778M 10778  10784M 10786  10788M 10790M
                                                 10791  10806M 10806  10812M 10814  10817M 10819M 10820  10848M 10848
                                                 10854M 10856  10859M 10861M 10862  10877M 10877  10883M 10885  10887M
                                                 10889M 10890  10905M 10905  10911M 10913  10915M 10917M 10918  10933M
                                                 10933  10939M 10941  10944M 10946M 10947  10975M 10975  10981M 10983
                                                 10986M 10988M 10989  11004M 11004  11010M 11012  11014M 11016M 11017
                                                 11032M 11032  11038M 11040  11042M 11044M 11045  11060M 11060  11066M
                                                 11068  11071M 11073M 11074  11102M 11102  11108M 11110  11113M 11115M
                                                 11116  11131M 11131  11137M 11139  11141M 11143M 11144  11159M 11159
                                                 11165M 11167  11169M 11171M 11172  11187M 11187  11193M 11195  11198M
                                                 11200M 11201  11229M 11229  11235M 11237  11240M 11242M 11243  11258M
                                                 11258  11264M 11266  11268M 11270M 11271  11286M 11286  11292M 11294
                                                 11296M 11298M 11299  11314M 11314  11320M 11322  11325M 11327M 11328
                                                 11402M 11402  11408M 11410  11413M 11415M 11416  11427M 11427  11433M
                                                 11435  11437M 11439M 11440  11451M 11451  11457M 11459  11461M 11463M
                                                 11464  11475M 11475  11481M 11483  11486M 11488M 11489  11525M 11525
                                                 11531M 11533  11536M 11538M 11539  11550M 11550  11556M 11558  11560M
                                                 11562M 11563  11574M 11574  11580M 11582  11584M 11586M 11587  11598M
                                                 11598  11604M 11606  11609M 11611M 11612  11648M 11648  11654M 11656
                                                 11659M 11661M 11662  11673M 11673  11679M 11681  11683M 11685M 11686
                                                 11697M 11697  11703M 11705  11707M 11709M 11710  11721M 11721  11727M
                                                 11729  11732M 11734M 11735  11771M 11771  11777M 11779  11782M 11784M
                                                 11785  11796M 11796  11802M 11804  11806M 11808M 11809  11820M 11820
                                                 11826M 11828  11830M 11832M 11833  11844M 11844  11850M 11852  11855M
                                                 11857M 11858  11894M 11894  11900M 11902  11905M 11907M 11908  11919M
                                                 11919  11925M 11927  11929M 11931M 11932  11943M 11943  11949M 11951
                                                 11953M 11955M 11956  11967M 11967  11973M 11975  11978M 11980M 11981
                                                 12017M 12017  12023M 12025  12028M 12030M 12031  12042M 12042  12048M
                                                 12050  12052M 12054M 12055  12066M 12066  12072M 12074  12076M 12078M
                                                 12079  12090M 12090  12096M 12098  12101M 12103M 12104  12140M 12140
                                                 12146M 12148  12151M 12153M 12154  12165M 12165  12171M 12173  12175M
                                                 12177M 12178  12189M 12189  12195M 12197  12199M 12201M 12202  12213M
                                                 12213  12219M 12221  12224M 12226M 12227  12263M 12263  12269M 12271
                                                 12274M 12276M 12277  12288M 12288  12294M 12296  12298M 12300M 12301
                                                 12312M 12312  12318M 12320  12322M 12324M 12325  12336M 12336  12342M
                                                 12344  12347M 12349M 12350  12427M
 R12          12 0000000C FFFFFFFF A   #     855  2125
 R14          14 0000000E FFFFFFFF A   #     881  2100M  6652M  6652   6676M  6678   6817M  6817   6841M  6843
 R15          15 0000000F FFFFFFFF A   #     894  2099   6564M  6564   6656M  6656   6677M  6678M  6679   6681M  6682
                                                  6683M  6684M  6685   6729M  6729   6821M  6821   6842M  6843M  6844
                                                  6846M  6847   6848   6849M  6850M  6851   6895M  6895   7089M  7089
                                                  7172M  7172   7233M  7234M  7235   7236M  7237M  7238   7269M  7269
                                                  7352M  7352   7413M  7414M  7415   7416   7417M  7418M  7419   7450M
                                                  7450  10105M 10105  12452M 12452
1CRYPT    (CRYP0060) (12:41) (15MAR04) Ordinary Symbol and Literal Cross Reference                                          Page   54
 R2            2 00000002 FFFFFFFF A   #     725  6537U  6637U  6802U  7063U  7162U  7212   7213   7213   7213   7216M
                                                  7223M  7342U  7392   7393   7393   7393   7396M  7403M  7469   7469
                                                  7469   7898   7912M  7912   7997M  7997   8000M  8003   8008   8026M
                                                  8026   8029M  8031   8036   8054M  8054   8057M  8059   8064   8082M
                                                  8082   8085M  8088   8093   8124M  8124   8127M  8130   8135   8153M
                                                  8153   8156M  8158   8163   8181M  8181   8184M  8186   8191   8209M
                                                  8209   8212M  8215   8220   8251M  8251   8254M  8257   8262   8280M
                                                  8280   8283M  8285   8290   8308M  8308   8311M  8313   8318   8336M
                                                  8336   8339M  8342   8347   8378M  8378   8381M  8384   8389   8407M
                                                  8407   8410M  8412   8417   8435M  8435   8438M  8440   8445   8463M
                                                  8463   8466M  8469   8474   8505M  8505   8508M  8511   8516   8534M
                                                  8534   8537M  8539   8544   8562M  8562   8565M  8567   8572   8590M
                                                  8590   8593M  8596   8601   8632M  8632   8635M  8638   8643   8661M
                                                  8661   8664M  8666   8671   8689M  8689   8692M  8694   8699   8717M
                                                  8717   8720M  8723   8728   8759M  8759   8762M  8765   8770   8788M
                                                  8788   8791M  8793   8798   8816M  8816   8819M  8821   8826   8844M
                                                  8844   8847M  8850   8855   8886M  8886   8889M  8892   8897   8915M
                                                  8915   8918M  8920   8925   8943M  8943   8946M  8948   8953   8971M
                                                  8971   8974M  8977   8982   9059M  9059   9062M  9065   9070   9084M
                                                  9084   9087M  9089   9094   9108M  9108   9111M  9113   9118   9132M
                                                  9132   9135M  9138   9143   9182M  9182   9185M  9188   9193   9207M
                                                  9207   9210M  9212   9217   9231M  9231   9234M  9236   9241   9255M
                                                  9255   9258M  9261   9266   9305M  9305   9308M  9311   9316   9330M
                                                  9330   9333M  9335   9340   9354M  9354   9357M  9359   9364   9378M
                                                  9378   9381M  9384   9389   9428M  9428   9431M  9434   9439   9453M
                                                  9453   9456M  9458   9463   9477M  9477   9480M  9482   9487   9501M
                                                  9501   9504M  9507   9512   9551M  9551   9554M  9557   9562   9576M
                                                  9576   9579M  9581   9586   9600M  9600   9603M  9605   9610   9624M
                                                  9624   9627M  9630   9635   9674M  9674   9677M  9680   9685   9699M
                                                  9699   9702M  9704   9709   9723M  9723   9726M  9728   9733   9747M
                                                  9747   9750M  9753   9758   9797M  9797   9800M  9803   9808   9822M
                                                  9822   9825M  9827   9832   9846M  9846   9849M  9851   9856   9870M
                                                  9870   9873M  9876   9881   9920M  9920   9923M  9926   9931   9945M
                                                  9945   9948M  9950   9955   9969M  9969   9972M  9974   9979   9993M
                                                  9993   9996M  9999  10004  10080M 10259M 10259  10344M 10344  10347M
                                                 10350  10355  10373M 10373  10376M 10378  10383  10401M 10401  10404M
                                                 10406  10411  10429M 10429  10432M 10435  10440  10471M 10471  10474M
                                                 10477  10482  10500M 10500  10503M 10505  10510  10528M 10528  10531M
                                                 10533  10538  10556M 10556  10559M 10562  10567  10598M 10598  10601M
                                                 10604  10609  10627M 10627  10630M 10632  10637  10655M 10655  10658M
                                                 10660  10665  10683M 10683  10686M 10689  10694  10725M 10725  10728M
                                                 10731  10736  10754M 10754  10757M 10759  10764  10782M 10782  10785M
                                                 10787  10792  10810M 10810  10813M 10816  10821  10852M 10852  10855M
                                                 10858  10863  10881M 10881  10884M 10886  10891  10909M 10909  10912M
                                                 10914  10919  10937M 10937  10940M 10943  10948  10979M 10979  10982M
                                                 10985  10990  11008M 11008  11011M 11013  11018  11036M 11036  11039M
                                                 11041  11046  11064M 11064  11067M 11070  11075  11106M 11106  11109M
                                                 11112  11117  11135M 11135  11138M 11140  11145  11163M 11163  11166M
                                                 11168  11173  11191M 11191  11194M 11197  11202  11233M 11233  11236M
                                                 11239  11244  11262M 11262  11265M 11267  11272  11290M 11290  11293M
                                                 11295  11300  11318M 11318  11321M 11324  11329  11406M 11406  11409M
                                                 11412  11417  11431M 11431  11434M 11436  11441  11455M 11455  11458M
                                                 11460  11465  11479M 11479  11482M 11485  11490  11529M 11529  11532M
                                                 11535  11540  11554M 11554  11557M 11559  11564  11578M 11578  11581M
                                                 11583  11588  11602M 11602  11605M 11608  11613  11652M 11652  11655M
                                                 11658  11663  11677M 11677  11680M 11682  11687  11701M 11701  11704M
                                                 11706  11711  11725M 11725  11728M 11731  11736  11775M 11775  11778M
                                                 11781  11786  11800M 11800  11803M 11805  11810  11824M 11824  11827M
                                                 11829  11834  11848M 11848  11851M 11854  11859  11898M 11898  11901M
1CRYPT    (CRYP0060) (12:41) (15MAR04) Ordinary Symbol and Literal Cross Reference                                          Page   55
                                                 11904  11909  11923M 11923  11926M 11928  11933  11947M 11947  11950M
                                                 11952  11957  11971M 11971  11974M 11977  11982  12021M 12021  12024M
                                                 12027  12032  12046M 12046  12049M 12051  12056  12070M 12070  12073M
                                                 12075  12080  12094M 12094  12097M 12100  12105  12144M 12144  12147M
                                                 12150  12155  12169M 12169  12172M 12174  12179  12193M 12193  12196M
                                                 12198  12203  12217M 12217  12220M 12223  12228  12267M 12267  12270M
                                                 12273  12278  12292M 12292  12295M 12297  12302  12316M 12316  12319M
                                                 12321  12326  12340M 12340  12343M 12346  12351
 R3            3 00000003 FFFFFFFF A   #     738  6642M  6679   6688M  6695M  6707   6807M  6844   6854M  6861M  6873
                                                  7175M  7204   7227M  7227   7233   7235   7236   7241M  7250   7355M
                                                  7384   7407M  7407   7413   7417   7419   7422M  7431   7894M  7916M
                                                  7916  10241M 10263M 10263
 R4            4 00000004 FFFFFFFF A   #     751  6643M  6676   6683   6685   6691M  6696M  6708   6808M  6841   6849
                                                  6851   6857M  6862M  6874   7920M  7920  10267M 10267
 R5            5 00000005 FFFFFFFF A   #     764  6644M  6677   6694M  6697M  6709   6809M  6842   6860M  6863M  6875
                                                  7924M  7924  10271M 10271
 R6            6 00000006 FFFFFFFF A   #     777  6648M  6648   6680M  6681   6684   6813M  6813   6845M  6846   6848M
                                                  6850   7168M  7168   7232M  7234   7237   7348M  7348   7412M  7414
                                                  7416M  7418   7876M  7884U 10223M 10231U
 R7            7 00000007 FFFFFFFF A   #     790  2092M  2092   2093B  2105B
 R8            8 00000008 FFFFFFFF A   #     803  7871U 10218U
 SCKEY        32 0000000C FFFFFFE9     C    6330  6539M  6676   6677   6679M  6683   6685M  6841   6842   6844M  6849
                                                  6851M
 SCRYPTWA     44 00000000 FFFFFFE9     J    6337  6537U  6637U  6802U
 SCXN          4 00000000 FFFFFFE9     F    6327  6541M  6642   6707M  6807   6873M
 SCXNM3        4 00000004 FFFFFFE9     F    6328  6543M  6643   6708M  6808   6874M
 SCXNM31       4 00000008 FFFFFFE9     F    6329  6545M  6644   6709M  6809   6875M
 SDECRYPT      2 00000100 00000001     H    6760  6756
 SDSNQSZ       1 0000002C FFFFFFEC A   U    6080  6081   6082
 SENCRYPT      2 00000070 00000001     H    6595  6591
 SETFCKEY      2 000001A0 00000001     H    7021  7017
 SETSCKEY      2 0000002A 00000001     H    6495  6491
 SPR          13 0000000D 00000001 A   #    1104  6501   6504   6505   6506M  6506   6556M  6560   6562   6601   6604
                                                  6605   6606M  6606   6721M  6725   6727   6766   6769   6770   6771M
                                                  6771   6887M  6891   6893   7027   7030   7031   7032M  7032   7081M
                                                  7085   7087   7126   7129   7130   7131M  7131   7261M  7265   7267
                                                  7306   7309   7310   7311M  7311   7442M  7446   7448   7836   7839
                                                  7841   7842M  7842  10097M 10101  10103  10183  10186  10188  10189M
                                                 10189  12444M 12448  12450
 TEMP          1 00000071 FFFFFFE7     C    7772  7982M  7983M  7984M  7999   8011M  8012M  8013M  8028   8039M  8040M
                                                  8041M  8056   8067M  8068M  8069M  8084   8109M  8110M  8111M  8126
                                                  8138M  8139M  8140M  8155   8166M  8167M  8168M  8183   8194M  8195M
                                                  8196M  8211   8236M  8237M  8238M  8253   8265M  8266M  8267M  8282
                                                  8293M  8294M  8295M  8310   8321M  8322M  8323M  8338   8363M  8364M
                                                  8365M  8380   8392M  8393M  8394M  8409   8420M  8421M  8422M  8437
                                                  8448M  8449M  8450M  8465   8490M  8491M  8492M  8507   8519M  8520M
                                                  8521M  8536   8547M  8548M  8549M  8564   8575M  8576M  8577M  8592
                                                  8617M  8618M  8619M  8634   8646M  8647M  8648M  8663   8674M  8675M
                                                  8676M  8691   8702M  8703M  8704M  8719   8744M  8745M  8746M  8761
                                                  8773M  8774M  8775M  8790   8801M  8802M  8803M  8818   8829M  8830M
                                                  8831M  8846   8871M  8872M  8873M  8888   8900M  8901M  8902M  8917
                                                  8928M  8929M  8930M  8945   8956M  8957M  8958M  8973  10329M 10330M
                                                 10331M 10346  10358M 10359M 10360M 10375  10386M 10387M 10388M 10403
                                                 10414M 10415M 10416M 10431  10456M 10457M 10458M 10473  10485M 10486M
                                                 10487M 10502  10513M 10514M 10515M 10530  10541M 10542M 10543M 10558
                                                 10583M 10584M 10585M 10600  10612M 10613M 10614M 10629  10640M 10641M
                                                 10642M 10657  10668M 10669M 10670M 10685  10710M 10711M 10712M 10727
                                                 10739M 10740M 10741M 10756  10767M 10768M 10769M 10784  10795M 10796M
                                                 10797M 10812  10837M 10838M 10839M 10854  10866M 10867M 10868M 10883
1CRYPT    (CRYP0060) (12:41) (15MAR04) Ordinary Symbol and Literal Cross Reference                                          Page   56
                                                 10894M 10895M 10896M 10911  10922M 10923M 10924M 10939  10964M 10965M
                                                 10966M 10981  10993M 10994M 10995M 11010  11021M 11022M 11023M 11038
                                                 11049M 11050M 11051M 11066  11091M 11092M 11093M 11108  11120M 11121M
                                                 11122M 11137  11148M 11149M 11150M 11165  11176M 11177M 11178M 11193
                                                 11218M 11219M 11220M 11235  11247M 11248M 11249M 11264  11275M 11276M
                                                 11277M 11292  11303M 11304M 11305M 11320
 TEXT          8 00000008 FFFFFFE7     C    7669  7896M  7933   7935   7937   7939   7941   7943   7945   7947  12408M
                                                 12410M 12412M 12414M 12416M 12418M 12420M 12422M 12428  12428
 TRC           1 00000000 00000000 A   T    2121  2121
 TTYFLAG       1 00000004 FFFFFFEA     R    6209  6213
 TTYMAX#       1 00000006 FFFFFFEA A   U    6265  6266
 TTYTFLAG      1 00000005 FFFFFFEA     R    6219  6223   6228   6233   6238   6243   6248   6253
 UPPTBL        1 00000000 00000000 A   T    2184  2184
 WAR           8 00000008 00000001 A   #    1027  6505M  6556   6605M  6721   6770M  6887   7031M  7081   7130M  7261
                                                  7310M  7442   7841M 10097  10188M 12444
 WTOSG         1 00000000 00000000 A   T    2081  2081
 WYLCRYPT      1 00000000 00000001     J     991   993   1009   1022   1035   1047   1060   1073   1086   1099   1112
                                                  1125   2365   2449   6189   6301   6305   6308   6338   6363
 ZERO          1 00000070 FFFFFFE7     C    7771  7984   8013   8041   8069  10331  10360  10388  10416
 =A(FEALBLKE)
               4 00000304 00000001     A    7467  7219   7399
 =A(1)         4 00000198 00000001     A    6911  6688   6691   6694   6700   6854   6857   6860   6866
 =A(1)         4 00000308 00000001     A    7468  7241   7244   7422   7425
 =A(8)         4 00000300 00000001     A    7466  7204   7384
 =F'1'         4 00001420 00000001     F   10122  8002   8087   8129   8214   8256   8341   8383   8468   8510   8595
                                                  8637   8722   8764   8849   8891   8976   9064   9137   9187   9260
                                                  9310   9383   9433   9506   9556   9629   9679   9752   9802   9875
                                                  9925   9998
 =F'1'         4 00002538 00000001     F   12469 10349  10434  10476  10561  10603  10688  10730  10815  10857  10942
                                                 10984  11069  11111  11196  11238  11323  11411  11484  11534  11607
                                                 11657  11730  11780  11853  11903  11976  12026  12099  12149  12222
                                                 12272  12345
 =X'0000001F'
               4 0000019C 00000001     X    6912  6695   6696   6697   6861   6862   6863
 =Y((R2+1-(R0)+16*((R0)/(R2+1))/((R0)/(R2+1)))*4)
               2 0000030C 00000001     Y    7469  7222   7402
 =Y(4)         2 00001424 00000001     Y   10123 10079
 =Y(4)         2 0000253C 00000001     Y   12470 12426

1CRYPT    (CRYP0060) (12:41) (15MAR04) Macro and Copy Code Source Summary                                                   Page   57
- Con Source                                        Volume    Members                        HLASM R4.0  2004/03/15 12.41
0     PRIMARY INPUT                                           CHARS    CSECT    DROP     END      EX       F        FK
                                                              LOADC    LOADX    LTORG    POP      PRINT    PUSH
                                                              START    S0       S1       USING    XOR      XXXOR
   L1 WYL.GS.WYL.WYLBUR.MACLIB                      SYSB05    AINFO    BASE     COLINFO  COMMENT  CONTROL  CP
                                                              CPLOCAL  CV       CVLOCAL  FCRYPTWA RG       SCANCB
                                                              SCRYPTWA TTYPE    VLTORG   XTRACE
   L2 WYL.GG.SYS.MACLIB                             SYSB05    $BFLKUP  $BV      $CCLKUP  $CRS     $LBLAD   $LEXP    $LOR
                                                              $REL     $RGLKUP  $USLKUP  ACALL    BEGIN    CLEAR
                                                              COMPROC  CSECT    DEFCC    DROP     END      EX       FLAG
                                                              HIBAL    IDENT    IF       INCR     LABEL    LC
                                                              LTORG    PEND     POP      PRINT    PUSH     QLTORG
                                                              RECORD   REG      REGS     START    USING    WHILE    WITH
                                                              XPROC
   L3 SYS3.IS.MACLIB                                SYSB05    SEGCB    SIB      SYSDEFN  XPOP     XPUSH

1CRYPT    (CRYP0060) (12:41) (15MAR04) Dsect Cross Reference                                                                Page   58
-Dsect     Length      Id       Defn                                                         HLASM R4.0  2004/03/15 12.41
0$$$@R0   00000000  FFFFFFFE     705
 $$$@R1   00000000  FFFFFFFD     718
 $$$@R10  00000000  FFFFFFF4     835
 $$$@R11  00000000  FFFFFFF3     848
 $$$@R12  00000000  FFFFFFF2     861
 $$$@R13  00000000  FFFFFFF1     874
 $$$@R14  00000000  FFFFFFF0     887
 $$$@R15  00000000  FFFFFFEF     900
 $$$@R2   00000000  FFFFFFFC     731
 $$$@R3   00000000  FFFFFFFB     744
 $$$@R4   00000000  FFFFFFFA     757
 $$$@R5   00000000  FFFFFFF9     770
 $$$@R6   00000000  FFFFFFF8     783
 $$$@R7   00000000  FFFFFFF7     796
 $$$@R8   00000000  FFFFFFF6     809
 $$$@R9   00000000  FFFFFFF5     822
 $$$RCP   00001000  FFFFFFEC    2454
 $$$RCV   00000FB0  FFFFFFEE    1179
 $$$RDEV  0000000C  FFFFFFEB    4668
 $$$RFCRYPTWA
          0000001C  FFFFFFE8    6346
 $$$RFEALBWA
          00000072  FFFFFFE7    7662
 $$$RNSCNCB
          000000B0  FFFFFFED    2375
 $$$RSCRYPTWA
          0000002C  FFFFFFE9    6321
 $$$RTTYPE
          0000010C  FFFFFFEA    6199
 HIBAL    00000000  FFFFFFFF     691

1CRYPT    (CRYP0060) (12:41) (15MAR04) Using Map                                                                            Page   59
-                                                                                            HLASM R4.0  2004/03/15 12.41
   Stmt  -----Location----- Action ----------------Using----------------- Reg Max    Last  Label and Using Text
           Count      Id           Type          Value    Range     Id        Disp   Stmt
0   922  00000000  FFFFFFFF USING  ORDINARY    00000000 00001000 FFFFFFEF  15 000          @R15,15
    926  00000000  FFFFFFFF USING  ORDINARY    00000000 00001000 FFFFFFF0  14 002    2170  @R14,14
    930  00000000  FFFFFFFF USING  ORDINARY    00000000 00001000 FFFFFFF1  13 000          @R13,13
    934  00000000  FFFFFFFF USING  ORDINARY    00000000 00001000 FFFFFFF2  12 000          @R12,12
    938  00000000  FFFFFFFF USING  ORDINARY    00000000 00001000 FFFFFFF3  11 000          @R11,11
    942  00000000  FFFFFFFF USING  ORDINARY    00000000 00001000 FFFFFFF4  10 000          @R10,10
    946  00000000  FFFFFFFF USING  ORDINARY    00000000 00001000 FFFFFFF5   9 000          @R9,9
    950  00000000  FFFFFFFF USING  ORDINARY    00000000 00001000 FFFFFFF6   8 000          @R8,8
    954  00000000  FFFFFFFF USING  ORDINARY    00000000 00001000 FFFFFFF7   7 000          @R7,7
    958  00000000  FFFFFFFF USING  ORDINARY    00000000 00001000 FFFFFFF8   6 000          @R6,6
    962  00000000  FFFFFFFF USING  ORDINARY    00000000 00001000 FFFFFFF9   5 000          @R5,5
    966  00000000  FFFFFFFF USING  ORDINARY    00000000 00001000 FFFFFFFA   4 000          @R4,4
    970  00000000  FFFFFFFF USING  ORDINARY    00000000 00001000 FFFFFFFB   3 000   10242  @R3,3
    974  00000000  FFFFFFFF USING  ORDINARY    00000000 00001000 FFFFFFFC   2 000          @R2,2
    978  00000000  FFFFFFFF USING  ORDINARY    00000000 00001000 FFFFFFFD   1 001   12428  @R1,1
    982  00000000  FFFFFFFF USING  ORDINARY    00000000 00001000 FFFFFFFE   0 000          @R0,0
    983  00000000  FFFFFFFF DROP                                            0              0
   1163  00000017  00000001 USING  ORDINARY    00000000 00001000 FFFFFFEC  11 D5A    2143  CP,CPR
   1172  00000017  00000001 USING  ORDINARY    00000000 00001000 FFFFFFEE  12 890   10192  CV,CVR
   6521  00000044  00000001 USING  ORDINARY    00000044 00001000 00000001   7 000          $$$43B,7
   6537  00000044  00000001 USING  ORDINARY    00000000 00001000 FFFFFFE9   2 00C    6545  SCRYPTWA,R2
   6552  00000062  00000001 USING  ORDINARY    00000000 00001000 FFFFFFF7   7 000          @R7,7
   6571  00000070  00000001 USING  ORDINARY    00000000 00001000 FFFFFFFC   2 000          @R2,2
   6621  0000008A  00000001 USING  ORDINARY    0000008A 00001000 00000001   7 112    6704  $$$46B,7
   6637  0000008A  00000001 USING  ORDINARY    00000000 00001000 FFFFFFE9   2 00C    6709  SCRYPTWA,R2
   6717  000000F2  00000001 USING  ORDINARY    00000000 00001000 FFFFFFF7   7 000          @R7,7
   6736  00000100  00000001 USING  ORDINARY    00000000 00001000 FFFFFFFC   2 000          @R2,2
   6786  0000011A  00000001 USING  ORDINARY    0000011A 00001000 00000001   7 082    6870  $$$51B,7
   6802  0000011A  00000001 USING  ORDINARY    00000000 00001000 FFFFFFE9   2 00C    6875  SCRYPTWA,R2
   6883  00000184  00000001 USING  ORDINARY    00000000 00001000 FFFFFFF7   7 000          @R7,7
   6902  00000192  00000001 USING  ORDINARY    00000000 00001000 FFFFFFFC   2 000          @R2,2
   7047  000001BA  00000001 USING  ORDINARY    000001BA 00001000 00000001   7 000          $$$56B,7
   7063  000001BA  00000001 USING  ORDINARY    00000000 00001000 FFFFFFE8   2 004    7070  FCRYPTWA,R2
   7077  000001C6  00000001 USING  ORDINARY    00000000 00001000 FFFFFFF7   7 000          @R7,7
   7096  000001D4  00000001 USING  ORDINARY    00000000 00001000 FFFFFFFC   2 000          @R2,2
   7146  000001EE  00000001 USING  ORDINARY    000001EE 00001000 00000001   7 11E    7248  $$$59B,7
   7162  000001EE  00000001 USING  ORDINARY    00000000 00001000 FFFFFFE8   2 014    7250  FCRYPTWA,R2
   7257  00000258  00000001 USING  ORDINARY    00000000 00001000 FFFFFFF7   7 000          @R7,7
   7276  00000266  00000001 USING  ORDINARY    00000000 00001000 FFFFFFFC   2 000          @R2,2
   7326  00000280  00000001 USING  ORDINARY    00000280 00001000 00000001   7 08C    7429  $$$65B,7
   7342  00000280  00000001 USING  ORDINARY    00000000 00001000 FFFFFFE8   2 014    7431  FCRYPTWA,R2
   7438  000002EC  00000001 USING  ORDINARY    00000000 00001000 FFFFFFF7   7 000          @R7,7
   7457  000002FA  00000001 USING  ORDINARY    00000000 00001000 FFFFFFFC   2 000   10243  @R2,2
   7857  00000328  00000001 USING  ORDINARY    00000328 00001000 00000001   7 7E6    7876  $$$71B,7
   7871  00000328  00000001 USING  ORDINARY    FFFFFFD8 00001000 FFFFFFE7   8 099   10081  FEALBWA-(4+36),R8
   7884  0000032C  00000001 USING  ORDINARY    00000B0E 00001000 00000001   6 916   10079  FEALBLKE+2048,R6
  10088  00001412  00000001 USING  ORDINARY    00000000 00001000 FFFFFFF6   8 000          @R8,8
  10093  00001412  00000001 USING  ORDINARY    00000000 00001000 FFFFFFF7   7 000          @R7,7
  10112  00001420  00000001 USING  ORDINARY    00000000 00001000 FFFFFFF8   6 000          @R6,6
  10204  00001440  00000001 USING  ORDINARY    00001440 00001000 00000001   7 7E6   10223  $$$74B,7
  10218  00001440  00000001 USING  ORDINARY    FFFFFFD8 00001000 FFFFFFE7   8 099   12428  FEALBWA-(4+36),R8
  10231  00001444  00000001 USING  ORDINARY    00001C26 00001000 00000001   6 916   12426  FEALBLKD+2048,R6
  12435  0000252A  00000001 USING  ORDINARY    00000000 00001000 FFFFFFF6   8 000          @R8,8
1CRYPT    (CRYP0060) (12:41) (15MAR04) Using Map                                                                            Page   60
  12440  0000252A  00000001 USING  ORDINARY    00000000 00001000 FFFFFFF7   7 000          @R7,7
  12459  00002538  00000001 USING  ORDINARY    00000000 00001000 FFFFFFF8   6 000          @R6,6

1         (CRYP0060) (12:41) (15MAR04) General Purpose Register Cross Reference                                             Page   61
- Register  References (M=modified, B=branch, U=USING, D=DROP, N=index)                      HLASM R4.0  2004/03/15 12.41
0    0(0)      982U   983D  2099   2167M  2167   2168M  6504   6560M  6604   6641M  6670   6725M  6769   6806M  6835
              6891M  7030   7069M  7069   7070   7085M  7129   7164M  7187   7212   7214M  7223M  7265M  7309   7344M
              7367   7392   7394M  7403M  7446M  7839   7894   7904M  7904   7989M  7989   7998M  8001M  8002M  8003M
              8004   8005M  8007M  8008M  8009   8018M  8018   8027M  8030M  8031M  8032   8033M  8035M  8036M  8037
              8046M  8046   8055M  8058M  8059M  8060   8061M  8063M  8064M  8065   8074M  8074   8083M  8086M  8087M
              8088M  8089   8090M  8092M  8093M  8094   8116M  8116   8125M  8128M  8129M  8130M  8131   8132M  8134M
              8135M  8136   8145M  8145   8154M  8157M  8158M  8159   8160M  8162M  8163M  8164   8173M  8173   8182M
              8185M  8186M  8187   8188M  8190M  8191M  8192   8201M  8201   8210M  8213M  8214M  8215M  8216   8217M
              8219M  8220M  8221   8243M  8243   8252M  8255M  8256M  8257M  8258   8259M  8261M  8262M  8263   8272M
              8272   8281M  8284M  8285M  8286   8287M  8289M  8290M  8291   8300M  8300   8309M  8312M  8313M  8314
              8315M  8317M  8318M  8319   8328M  8328   8337M  8340M  8341M  8342M  8343   8344M  8346M  8347M  8348
              8370M  8370   8379M  8382M  8383M  8384M  8385   8386M  8388M  8389M  8390   8399M  8399   8408M  8411M
              8412M  8413   8414M  8416M  8417M  8418   8427M  8427   8436M  8439M  8440M  8441   8442M  8444M  8445M
              8446   8455M  8455   8464M  8467M  8468M  8469M  8470   8471M  8473M  8474M  8475   8497M  8497   8506M
              8509M  8510M  8511M  8512   8513M  8515M  8516M  8517   8526M  8526   8535M  8538M  8539M  8540   8541M
              8543M  8544M  8545   8554M  8554   8563M  8566M  8567M  8568   8569M  8571M  8572M  8573   8582M  8582
              8591M  8594M  8595M  8596M  8597   8598M  8600M  8601M  8602   8624M  8624   8633M  8636M  8637M  8638M
              8639   8640M  8642M  8643M  8644   8653M  8653   8662M  8665M  8666M  8667   8668M  8670M  8671M  8672
              8681M  8681   8690M  8693M  8694M  8695   8696M  8698M  8699M  8700   8709M  8709   8718M  8721M  8722M
              8723M  8724   8725M  8727M  8728M  8729   8751M  8751   8760M  8763M  8764M  8765M  8766   8767M  8769M
              8770M  8771   8780M  8780   8789M  8792M  8793M  8794   8795M  8797M  8798M  8799   8808M  8808   8817M
              8820M  8821M  8822   8823M  8825M  8826M  8827   8836M  8836   8845M  8848M  8849M  8850M  8851   8852M
              8854M  8855M  8856   8878M  8878   8887M  8890M  8891M  8892M  8893   8894M  8896M  8897M  8898   8907M
              8907   8916M  8919M  8920M  8921   8922M  8924M  8925M  8926   8935M  8935   8944M  8947M  8948M  8949
              8950M  8952M  8953M  8954   8963M  8963   8972M  8975M  8976M  8977M  8978   8979M  8981M  8982M  8983
              9051M  9051   9060M  9063M  9064M  9065M  9066   9067M  9069M  9070M  9071   9076M  9076   9085M  9088M
              9089M  9090   9091M  9093M  9094M  9095   9100M  9100   9109M  9112M  9113M  9114   9115M  9117M  9118M
              9119   9124M  9124   9133M  9136M  9137M  9138M  9139   9140M  9142M  9143M  9144   9174M  9174   9183M
              9186M  9187M  9188M  9189   9190M  9192M  9193M  9194   9199M  9199   9208M  9211M  9212M  9213   9214M
              9216M  9217M  9218   9223M  9223   9232M  9235M  9236M  9237   9238M  9240M  9241M  9242   9247M  9247
              9256M  9259M  9260M  9261M  9262   9263M  9265M  9266M  9267   9297M  9297   9306M  9309M  9310M  9311M
              9312   9313M  9315M  9316M  9317   9322M  9322   9331M  9334M  9335M  9336   9337M  9339M  9340M  9341
              9346M  9346   9355M  9358M  9359M  9360   9361M  9363M  9364M  9365   9370M  9370   9379M  9382M  9383M
              9384M  9385   9386M  9388M  9389M  9390   9420M  9420   9429M  9432M  9433M  9434M  9435   9436M  9438M
              9439M  9440   9445M  9445   9454M  9457M  9458M  9459   9460M  9462M  9463M  9464   9469M  9469   9478M
              9481M  9482M  9483   9484M  9486M  9487M  9488   9493M  9493   9502M  9505M  9506M  9507M  9508   9509M
              9511M  9512M  9513   9543M  9543   9552M  9555M  9556M  9557M  9558   9559M  9561M  9562M  9563   9568M
              9568   9577M  9580M  9581M  9582   9583M  9585M  9586M  9587   9592M  9592   9601M  9604M  9605M  9606
              9607M  9609M  9610M  9611   9616M  9616   9625M  9628M  9629M  9630M  9631   9632M  9634M  9635M  9636
              9666M  9666   9675M  9678M  9679M  9680M  9681   9682M  9684M  9685M  9686   9691M  9691   9700M  9703M
              9704M  9705   9706M  9708M  9709M  9710   9715M  9715   9724M  9727M  9728M  9729   9730M  9732M  9733M
              9734   9739M  9739   9748M  9751M  9752M  9753M  9754   9755M  9757M  9758M  9759   9789M  9789   9798M
              9801M  9802M  9803M  9804   9805M  9807M  9808M  9809   9814M  9814   9823M  9826M  9827M  9828   9829M
              9831M  9832M  9833   9838M  9838   9847M  9850M  9851M  9852   9853M  9855M  9856M  9857   9862M  9862
              9871M  9874M  9875M  9876M  9877   9878M  9880M  9881M  9882   9912M  9912   9921M  9924M  9925M  9926M
              9927   9928M  9930M  9931M  9932   9937M  9937   9946M  9949M  9950M  9951   9952M  9954M  9955M  9956
              9961M  9961   9970M  9973M  9974M  9975   9976M  9978M  9979M  9980   9985M  9985   9994M  9997M  9998M
              9999M 10000  10001M 10003M 10004M 10005  10101M 10186  10241  10251M 10251  10336M 10336  10345M 10348M
             10349M 10350M 10351  10352M 10354M 10355M 10356  10365M 10365  10374M 10377M 10378M 10379  10380M 10382M
             10383M 10384  10393M 10393  10402M 10405M 10406M 10407  10408M 10410M 10411M 10412  10421M 10421  10430M
             10433M 10434M 10435M 10436  10437M 10439M 10440M 10441  10463M 10463  10472M 10475M 10476M 10477M 10478
             10479M 10481M 10482M 10483  10492M 10492  10501M 10504M 10505M 10506  10507M 10509M 10510M 10511  10520M
             10520  10529M 10532M 10533M 10534  10535M 10537M 10538M 10539  10548M 10548  10557M 10560M 10561M 10562M
             10563  10564M 10566M 10567M 10568  10590M 10590  10599M 10602M 10603M 10604M 10605  10606M 10608M 10609M
             10610  10619M 10619  10628M 10631M 10632M 10633  10634M 10636M 10637M 10638  10647M 10647  10656M 10659M
1         (CRYP0060) (12:41) (15MAR04) General Purpose Register Cross Reference                                             Page   62
             10660M 10661  10662M 10664M 10665M 10666  10675M 10675  10684M 10687M 10688M 10689M 10690  10691M 10693M
             10694M 10695  10717M 10717  10726M 10729M 10730M 10731M 10732  10733M 10735M 10736M 10737  10746M 10746
             10755M 10758M 10759M 10760  10761M 10763M 10764M 10765  10774M 10774  10783M 10786M 10787M 10788  10789M
             10791M 10792M 10793  10802M 10802  10811M 10814M 10815M 10816M 10817  10818M 10820M 10821M 10822  10844M
             10844  10853M 10856M 10857M 10858M 10859  10860M 10862M 10863M 10864  10873M 10873  10882M 10885M 10886M
             10887  10888M 10890M 10891M 10892  10901M 10901  10910M 10913M 10914M 10915  10916M 10918M 10919M 10920
             10929M 10929  10938M 10941M 10942M 10943M 10944  10945M 10947M 10948M 10949  10971M 10971  10980M 10983M
             10984M 10985M 10986  10987M 10989M 10990M 10991  11000M 11000  11009M 11012M 11013M 11014  11015M 11017M
             11018M 11019  11028M 11028  11037M 11040M 11041M 11042  11043M 11045M 11046M 11047  11056M 11056  11065M
             11068M 11069M 11070M 11071  11072M 11074M 11075M 11076  11098M 11098  11107M 11110M 11111M 11112M 11113
             11114M 11116M 11117M 11118  11127M 11127  11136M 11139M 11140M 11141  11142M 11144M 11145M 11146  11155M
             11155  11164M 11167M 11168M 11169  11170M 11172M 11173M 11174  11183M 11183  11192M 11195M 11196M 11197M
             11198  11199M 11201M 11202M 11203  11225M 11225  11234M 11237M 11238M 11239M 11240  11241M 11243M 11244M
             11245  11254M 11254  11263M 11266M 11267M 11268  11269M 11271M 11272M 11273  11282M 11282  11291M 11294M
             11295M 11296  11297M 11299M 11300M 11301  11310M 11310  11319M 11322M 11323M 11324M 11325  11326M 11328M
             11329M 11330  11398M 11398  11407M 11410M 11411M 11412M 11413  11414M 11416M 11417M 11418  11423M 11423
             11432M 11435M 11436M 11437  11438M 11440M 11441M 11442  11447M 11447  11456M 11459M 11460M 11461  11462M
             11464M 11465M 11466  11471M 11471  11480M 11483M 11484M 11485M 11486  11487M 11489M 11490M 11491  11521M
             11521  11530M 11533M 11534M 11535M 11536  11537M 11539M 11540M 11541  11546M 11546  11555M 11558M 11559M
             11560  11561M 11563M 11564M 11565  11570M 11570  11579M 11582M 11583M 11584  11585M 11587M 11588M 11589
             11594M 11594  11603M 11606M 11607M 11608M 11609  11610M 11612M 11613M 11614  11644M 11644  11653M 11656M
             11657M 11658M 11659  11660M 11662M 11663M 11664  11669M 11669  11678M 11681M 11682M 11683  11684M 11686M
             11687M 11688  11693M 11693  11702M 11705M 11706M 11707  11708M 11710M 11711M 11712  11717M 11717  11726M
             11729M 11730M 11731M 11732  11733M 11735M 11736M 11737  11767M 11767  11776M 11779M 11780M 11781M 11782
             11783M 11785M 11786M 11787  11792M 11792  11801M 11804M 11805M 11806  11807M 11809M 11810M 11811  11816M
             11816  11825M 11828M 11829M 11830  11831M 11833M 11834M 11835  11840M 11840  11849M 11852M 11853M 11854M
             11855  11856M 11858M 11859M 11860  11890M 11890  11899M 11902M 11903M 11904M 11905  11906M 11908M 11909M
             11910  11915M 11915  11924M 11927M 11928M 11929  11930M 11932M 11933M 11934  11939M 11939  11948M 11951M
             11952M 11953  11954M 11956M 11957M 11958  11963M 11963  11972M 11975M 11976M 11977M 11978  11979M 11981M
             11982M 11983  12013M 12013  12022M 12025M 12026M 12027M 12028  12029M 12031M 12032M 12033  12038M 12038
             12047M 12050M 12051M 12052  12053M 12055M 12056M 12057  12062M 12062  12071M 12074M 12075M 12076  12077M
             12079M 12080M 12081  12086M 12086  12095M 12098M 12099M 12100M 12101  12102M 12104M 12105M 12106  12136M
             12136  12145M 12148M 12149M 12150M 12151  12152M 12154M 12155M 12156  12161M 12161  12170M 12173M 12174M
             12175  12176M 12178M 12179M 12180  12185M 12185  12194M 12197M 12198M 12199  12200M 12202M 12203M 12204
             12209M 12209  12218M 12221M 12222M 12223M 12224  12225M 12227M 12228M 12229  12259M 12259  12268M 12271M
             12272M 12273M 12274  12275M 12277M 12278M 12279  12284M 12284  12293M 12296M 12297M 12298  12299M 12301M
             12302M 12303  12308M 12308  12317M 12320M 12321M 12322  12323M 12325M 12326M 12327  12332M 12332  12341M
             12344M 12345M 12346M 12347  12348M 12350M 12351M 12352  12448M
     1(1)      978U  2099   2162M  2163M  2169M  6504   6540M  6541   6542M  6543   6544M  6545   6560M  6604   6641
              6670   6700M  6725M  6769   6806   6835   6866M  6891M  7030   7085M  7129   7164   7187   7212   7215M
              7223M  7244M  7265M  7309   7344   7367   7392   7395M  7403M  7425M  7446M  7839   7908M  7908   7993M
              7993   7999M  8001   8004M  8006M  8007   8022M  8022   8028M  8030   8032M  8034M  8035   8050M  8050
              8056M  8058   8060M  8062M  8063   8078M  8078   8084M  8086   8089M  8091M  8092   8120M  8120   8126M
              8128   8131M  8133M  8134   8149M  8149   8155M  8157   8159M  8161M  8162   8177M  8177   8183M  8185
              8187M  8189M  8190   8205M  8205   8211M  8213   8216M  8218M  8219   8247M  8247   8253M  8255   8258M
              8260M  8261   8276M  8276   8282M  8284   8286M  8288M  8289   8304M  8304   8310M  8312   8314M  8316M
              8317   8332M  8332   8338M  8340   8343M  8345M  8346   8374M  8374   8380M  8382   8385M  8387M  8388
              8403M  8403   8409M  8411   8413M  8415M  8416   8431M  8431   8437M  8439   8441M  8443M  8444   8459M
              8459   8465M  8467   8470M  8472M  8473   8501M  8501   8507M  8509   8512M  8514M  8515   8530M  8530
              8536M  8538   8540M  8542M  8543   8558M  8558   8564M  8566   8568M  8570M  8571   8586M  8586   8592M
              8594   8597M  8599M  8600   8628M  8628   8634M  8636   8639M  8641M  8642   8657M  8657   8663M  8665
              8667M  8669M  8670   8685M  8685   8691M  8693   8695M  8697M  8698   8713M  8713   8719M  8721   8724M
              8726M  8727   8755M  8755   8761M  8763   8766M  8768M  8769   8784M  8784   8790M  8792   8794M  8796M
              8797   8812M  8812   8818M  8820   8822M  8824M  8825   8840M  8840   8846M  8848   8851M  8853M  8854
              8882M  8882   8888M  8890   8893M  8895M  8896   8911M  8911   8917M  8919   8921M  8923M  8924   8939M
              8939   8945M  8947   8949M  8951M  8952   8967M  8967   8973M  8975   8978M  8980M  8981   9055M  9055
              9061M  9063   9066M  9068M  9069   9080M  9080   9086M  9088   9090M  9092M  9093   9104M  9104   9110M
              9112   9114M  9116M  9117   9128M  9128   9134M  9136   9139M  9141M  9142   9178M  9178   9184M  9186
              9189M  9191M  9192   9203M  9203   9209M  9211   9213M  9215M  9216   9227M  9227   9233M  9235   9237M
1         (CRYP0060) (12:41) (15MAR04) General Purpose Register Cross Reference                                             Page   63
              9239M  9240   9251M  9251   9257M  9259   9262M  9264M  9265   9301M  9301   9307M  9309   9312M  9314M
              9315   9326M  9326   9332M  9334   9336M  9338M  9339   9350M  9350   9356M  9358   9360M  9362M  9363
              9374M  9374   9380M  9382   9385M  9387M  9388   9424M  9424   9430M  9432   9435M  9437M  9438   9449M
              9449   9455M  9457   9459M  9461M  9462   9473M  9473   9479M  9481   9483M  9485M  9486   9497M  9497
              9503M  9505   9508M  9510M  9511   9547M  9547   9553M  9555   9558M  9560M  9561   9572M  9572   9578M
              9580   9582M  9584M  9585   9596M  9596   9602M  9604   9606M  9608M  9609   9620M  9620   9626M  9628
              9631M  9633M  9634   9670M  9670   9676M  9678   9681M  9683M  9684   9695M  9695   9701M  9703   9705M
              9707M  9708   9719M  9719   9725M  9727   9729M  9731M  9732   9743M  9743   9749M  9751   9754M  9756M
              9757   9793M  9793   9799M  9801   9804M  9806M  9807   9818M  9818   9824M  9826   9828M  9830M  9831
              9842M  9842   9848M  9850   9852M  9854M  9855   9866M  9866   9872M  9874   9877M  9879M  9880   9916M
              9916   9922M  9924   9927M  9929M  9930   9941M  9941   9947M  9949   9951M  9953M  9954   9965M  9965
              9971M  9973   9975M  9977M  9978   9989M  9989   9995M  9997  10000M 10002M 10003  10101M 10186  10245
             10255M 10255  10340M 10340  10346M 10348  10351M 10353M 10354  10369M 10369  10375M 10377  10379M 10381M
             10382  10397M 10397  10403M 10405  10407M 10409M 10410  10425M 10425  10431M 10433  10436M 10438M 10439
             10467M 10467  10473M 10475  10478M 10480M 10481  10496M 10496  10502M 10504  10506M 10508M 10509  10524M
             10524  10530M 10532  10534M 10536M 10537  10552M 10552  10558M 10560  10563M 10565M 10566  10594M 10594
             10600M 10602  10605M 10607M 10608  10623M 10623  10629M 10631  10633M 10635M 10636  10651M 10651  10657M
             10659  10661M 10663M 10664  10679M 10679  10685M 10687  10690M 10692M 10693  10721M 10721  10727M 10729
             10732M 10734M 10735  10750M 10750  10756M 10758  10760M 10762M 10763  10778M 10778  10784M 10786  10788M
             10790M 10791  10806M 10806  10812M 10814  10817M 10819M 10820  10848M 10848  10854M 10856  10859M 10861M
             10862  10877M 10877  10883M 10885  10887M 10889M 10890  10905M 10905  10911M 10913  10915M 10917M 10918
             10933M 10933  10939M 10941  10944M 10946M 10947  10975M 10975  10981M 10983  10986M 10988M 10989  11004M
             11004  11010M 11012  11014M 11016M 11017  11032M 11032  11038M 11040  11042M 11044M 11045  11060M 11060
             11066M 11068  11071M 11073M 11074  11102M 11102  11108M 11110  11113M 11115M 11116  11131M 11131  11137M
             11139  11141M 11143M 11144  11159M 11159  11165M 11167  11169M 11171M 11172  11187M 11187  11193M 11195
             11198M 11200M 11201  11229M 11229  11235M 11237  11240M 11242M 11243  11258M 11258  11264M 11266  11268M
             11270M 11271  11286M 11286  11292M 11294  11296M 11298M 11299  11314M 11314  11320M 11322  11325M 11327M
             11328  11402M 11402  11408M 11410  11413M 11415M 11416  11427M 11427  11433M 11435  11437M 11439M 11440
             11451M 11451  11457M 11459  11461M 11463M 11464  11475M 11475  11481M 11483  11486M 11488M 11489  11525M
             11525  11531M 11533  11536M 11538M 11539  11550M 11550  11556M 11558  11560M 11562M 11563  11574M 11574
             11580M 11582  11584M 11586M 11587  11598M 11598  11604M 11606  11609M 11611M 11612  11648M 11648  11654M
             11656  11659M 11661M 11662  11673M 11673  11679M 11681  11683M 11685M 11686  11697M 11697  11703M 11705
             11707M 11709M 11710  11721M 11721  11727M 11729  11732M 11734M 11735  11771M 11771  11777M 11779  11782M
             11784M 11785  11796M 11796  11802M 11804  11806M 11808M 11809  11820M 11820  11826M 11828  11830M 11832M
             11833  11844M 11844  11850M 11852  11855M 11857M 11858  11894M 11894  11900M 11902  11905M 11907M 11908
             11919M 11919  11925M 11927  11929M 11931M 11932  11943M 11943  11949M 11951  11953M 11955M 11956  11967M
             11967  11973M 11975  11978M 11980M 11981  12017M 12017  12023M 12025  12028M 12030M 12031  12042M 12042
             12048M 12050  12052M 12054M 12055  12066M 12066  12072M 12074  12076M 12078M 12079  12090M 12090  12096M
             12098  12101M 12103M 12104  12140M 12140  12146M 12148  12151M 12153M 12154  12165M 12165  12171M 12173
             12175M 12177M 12178  12189M 12189  12195M 12197  12199M 12201M 12202  12213M 12213  12219M 12221  12224M
             12226M 12227  12263M 12263  12269M 12271  12274M 12276M 12277  12288M 12288  12294M 12296  12298M 12300M
             12301  12312M 12312  12318M 12320  12322M 12324M 12325  12336M 12336  12342M 12344  12347M 12349M 12350
             12427M 12448M
     2(2)      974U  2099   6504   6537U  6560M  6571U  6604   6637U  6725M  6736U  6769   6802U  6891M  6902U  7030
              7063U  7085M  7096U  7129   7162U  7212   7216M  7223M  7265M  7276U  7309   7342U  7392   7396M  7403M
              7446M  7457U  7839   7898   7912M  7912   7997M  7997   8000M  8003   8008   8026M  8026   8029M  8031
              8036   8054M  8054   8057M  8059   8064   8082M  8082   8085M  8088   8093   8124M  8124   8127M  8130
              8135   8153M  8153   8156M  8158   8163   8181M  8181   8184M  8186   8191   8209M  8209   8212M  8215
              8220   8251M  8251   8254M  8257   8262   8280M  8280   8283M  8285   8290   8308M  8308   8311M  8313
              8318   8336M  8336   8339M  8342   8347   8378M  8378   8381M  8384   8389   8407M  8407   8410M  8412
              8417   8435M  8435   8438M  8440   8445   8463M  8463   8466M  8469   8474   8505M  8505   8508M  8511
              8516   8534M  8534   8537M  8539   8544   8562M  8562   8565M  8567   8572   8590M  8590   8593M  8596
              8601   8632M  8632   8635M  8638   8643   8661M  8661   8664M  8666   8671   8689M  8689   8692M  8694
              8699   8717M  8717   8720M  8723   8728   8759M  8759   8762M  8765   8770   8788M  8788   8791M  8793
              8798   8816M  8816   8819M  8821   8826   8844M  8844   8847M  8850   8855   8886M  8886   8889M  8892
              8897   8915M  8915   8918M  8920   8925   8943M  8943   8946M  8948   8953   8971M  8971   8974M  8977
              8982   9059M  9059   9062M  9065   9070   9084M  9084   9087M  9089   9094   9108M  9108   9111M  9113
              9118   9132M  9132   9135M  9138   9143   9182M  9182   9185M  9188   9193   9207M  9207   9210M  9212
              9217   9231M  9231   9234M  9236   9241   9255M  9255   9258M  9261   9266   9305M  9305   9308M  9311
1         (CRYP0060) (12:41) (15MAR04) General Purpose Register Cross Reference                                             Page   64
              9316   9330M  9330   9333M  9335   9340   9354M  9354   9357M  9359   9364   9378M  9378   9381M  9384
              9389   9428M  9428   9431M  9434   9439   9453M  9453   9456M  9458   9463   9477M  9477   9480M  9482
              9487   9501M  9501   9504M  9507   9512   9551M  9551   9554M  9557   9562   9576M  9576   9579M  9581
              9586   9600M  9600   9603M  9605   9610   9624M  9624   9627M  9630   9635   9674M  9674   9677M  9680
              9685   9699M  9699   9702M  9704   9709   9723M  9723   9726M  9728   9733   9747M  9747   9750M  9753
              9758   9797M  9797   9800M  9803   9808   9822M  9822   9825M  9827   9832   9846M  9846   9849M  9851
              9856   9870M  9870   9873M  9876   9881   9920M  9920   9923M  9926   9931   9945M  9945   9948M  9950
              9955   9969M  9969   9972M  9974   9979   9993M  9993   9996M  9999  10004  10080M 10101M 10186  10259M
             10259  10344M 10344  10347M 10350  10355  10373M 10373  10376M 10378  10383  10401M 10401  10404M 10406
             10411  10429M 10429  10432M 10435  10440  10471M 10471  10474M 10477  10482  10500M 10500  10503M 10505
             10510  10528M 10528  10531M 10533  10538  10556M 10556  10559M 10562  10567  10598M 10598  10601M 10604
             10609  10627M 10627  10630M 10632  10637  10655M 10655  10658M 10660  10665  10683M 10683  10686M 10689
             10694  10725M 10725  10728M 10731  10736  10754M 10754  10757M 10759  10764  10782M 10782  10785M 10787
             10792  10810M 10810  10813M 10816  10821  10852M 10852  10855M 10858  10863  10881M 10881  10884M 10886
             10891  10909M 10909  10912M 10914  10919  10937M 10937  10940M 10943  10948  10979M 10979  10982M 10985
             10990  11008M 11008  11011M 11013  11018  11036M 11036  11039M 11041  11046  11064M 11064  11067M 11070
             11075  11106M 11106  11109M 11112  11117  11135M 11135  11138M 11140  11145  11163M 11163  11166M 11168
             11173  11191M 11191  11194M 11197  11202  11233M 11233  11236M 11239  11244  11262M 11262  11265M 11267
             11272  11290M 11290  11293M 11295  11300  11318M 11318  11321M 11324  11329  11406M 11406  11409M 11412
             11417  11431M 11431  11434M 11436  11441  11455M 11455  11458M 11460  11465  11479M 11479  11482M 11485
             11490  11529M 11529  11532M 11535  11540  11554M 11554  11557M 11559  11564  11578M 11578  11581M 11583
             11588  11602M 11602  11605M 11608  11613  11652M 11652  11655M 11658  11663  11677M 11677  11680M 11682
             11687  11701M 11701  11704M 11706  11711  11725M 11725  11728M 11731  11736  11775M 11775  11778M 11781
             11786  11800M 11800  11803M 11805  11810  11824M 11824  11827M 11829  11834  11848M 11848  11851M 11854
             11859  11898M 11898  11901M 11904  11909  11923M 11923  11926M 11928  11933  11947M 11947  11950M 11952
             11957  11971M 11971  11974M 11977  11982  12021M 12021  12024M 12027  12032  12046M 12046  12049M 12051
             12056  12070M 12070  12073M 12075  12080  12094M 12094  12097M 12100  12105  12144M 12144  12147M 12150
             12155  12169M 12169  12172M 12174  12179  12193M 12193  12196M 12198  12203  12217M 12217  12220M 12223
             12228  12267M 12267  12270M 12273  12278  12292M 12292  12295M 12297  12302  12316M 12316  12319M 12321
             12326  12340M 12340  12343M 12346  12351  12448M
     3(3)      970U  2099   6504   6560M  6604   6642M  6679N  6688M  6695M  6707   6725M  6769   6807M  6844N  6854M
              6861M  6873   6891M  7030   7085M  7129   7175M  7204   7227M  7227   7233N  7235N  7236N  7241M  7250
              7265M  7309   7355M  7384   7407M  7407   7413N  7417N  7419N  7422M  7431   7446M  7839   7894M  7916M
              7916  10101M 10186  10241M 10263M 10263  12448M
     4(4)      966U  2099   6504   6560M  6604   6643M  6676N  6683N  6685N  6691M  6696M  6708   6725M  6769   6808M
              6841N  6849N  6851N  6857M  6862M  6874   6891M  7030   7085M  7129   7265M  7309   7446M  7839   7920M
              7920  10101M 10186  10267M 10267  12448M
     5(5)      962U  2099   6504   6560M  6604   6644M  6677N  6694M  6697M  6709   6725M  6769   6809M  6842N  6860M
              6863M  6875   6891M  7030   7085M  7129   7265M  7309   7446M  7839   7924M  7924  10101M 10186  10271M
             10271  12448M
     6(6)      958U  2099   6504   6560M  6604   6648M  6648   6680M  6681   6684   6725M  6769   6813M  6813   6845M
              6846   6848M  6850   6891M  7030   7085M  7129   7168M  7168   7232M  7234   7237   7265M  7309   7348M
              7348   7412M  7414   7416M  7418   7446M  7839   7876M  7884U 10101M 10112U 10186  10223M 10231U 12448M
             12459U
     7(7)      954U  2092M  2092   2093B  2099   2105B  6504   6509M  6521U  6552U  6560M  6604   6609M  6621U  6717U
              6725M  6769   6774M  6786U  6883U  6891M  7030   7035M  7047U  7077U  7085M  7129   7134M  7146U  7257U
              7265M  7309   7314M  7326U  7438U  7446M  7839   7845M  7857U 10093U 10101M 10186  10192M 10204U 12440U
             12448M
     8(8)      950U  2099   6504   6505M  6556   6560M  6604   6605M  6721   6725M  6769   6770M  6887   6891M  7030
              7031M  7081   7085M  7129   7130M  7261   7265M  7309   7310M  7442   7446M  7839   7841M  7871U 10088U
             10097  10101M 10186  10188M 10218U 12435U 12444  12448M
     9(9)      946U  2099
    10(A)      942U  2099
    11(B)      938U  1163U  2099
    12(C)      934U  1172U  2099
    13(D)      930U  2099   6501   6504   6505   6506M  6506   6556M  6560   6562   6601   6604   6605   6606M  6606
              6721M  6725   6727   6766   6769   6770   6771M  6771   6887M  6891   6893   7027   7030   7031   7032M
              7032   7081M  7085   7087   7126   7129   7130   7131M  7131   7212   7213M  7213   7222M  7223   7261M
              7265   7267   7306   7309   7310   7311M  7311   7392   7393M  7393   7402M  7403   7442M  7446   7448
1         (CRYP0060) (12:41) (15MAR04) General Purpose Register Cross Reference                                             Page   65
              7836   7839   7841   7842M  7842   7898   7899M  7899  10079M 10080  10097M 10101  10103  10183  10186
             10188  10189M 10189  10245  10246M 10246  12426M 12427  12444M 12448  12450
    14(E)      926U  2099   2100M  2114   2115M  2116B  2118M  2119B  2139M  2140B  2144M  2145B  2147M  2148B  2150M
              2151B  2153M  2154B  2156M  2157M  2157B  2163   6501   6562M  6565B  6601   6652M  6652   6676M  6678
              6727M  6730B  6766   6817M  6817   6841M  6843   6893M  6896B  7027   7087M  7090B  7126   7219M  7220M
              7220B  7267M  7270B  7306   7399M  7400M  7400B  7448M  7451B  7836  10103M 10106B 10183  12450M 12453B
    15(F)      922U  2099   6564M  6564   6656M  6656   6677M  6678M  6679   6681M  6682   6683M  6684M  6685   6729M
              6729   6821M  6821   6842M  6843M  6844   6846M  6847   6848   6849M  6850M  6851   6895M  6895   7089M
              7089   7172M  7172   7233M  7234M  7235   7236M  7237M  7238   7269M  7269   7352M  7352   7413M  7414M
              7415   7416   7417M  7418M  7419   7450M  7450  10105M 10105  12452M 12452

1CRYPT    (CRYP0060) (12:41) (15MAR04) Diagnostic Cross Reference and Assembler Summary                                     Page   66
-                                                                                            HLASM R4.0  2004/03/15 12.41
0     No Statements Flagged in this Assembly
 HIGH LEVEL ASSEMBLER, 5696-234, RELEASE 4.0, PTF P72483
0SYSTEM: OS/390 02.10.00            JOBNAME: WYL#CRYP    STEPNAME: ASM        PROCSTEP: (NOPROC)
0Datasets Allocated for this Assembly
  Con DDname   Dataset Name                                 Volume  Member
   P1 SYSIN    WYL.GS.WYL.WYLBUR.SOURCE                     SYSB05  CRYPT
   L1 SYSLIB   WYL.GS.WYL.WYLBUR.MACLIB                     SYSB05
   L2          WYL.GG.SYS.MACLIB                            SYSB05
   L3          SYS3.IS.MACLIB                               SYSB05
   L4          SYS3.MACLIB                                  SYSB02
   L5          SYS1.MACLIB                                  MVSBR9
   L6          SYS1.MODGEN                                  MVSBR9
      SYSPRINT SYS04075.T124111.RA000.WYL#CRYP.PRINT.H01    SCR101
      SYSTERM  GG$SLP.WYL#CRYP.JOB03512.D0000101.?

    3668K allocated to Buffer Pool,         1509K would be required for this to be an In-Storage Assembly
    1368 Primary Input Records Read         5177 Library Records Read                  0 Work File Reads
       0 ASMAOPT Records Read               5685 Primary Print Records Written         0 Work File Writes
       0 Punch Records Written                 0 ADATA Records Written
0Assembly Start Time: 12.41.13 Stop Time: 12.41.18 Processor Time: 00.00.01.5238
 Return Code 000
