1                        J E S 2  J O B  L O G  --  S Y S T E M  S Y S B  --  N O D E  R L G
0
 13.00.23 JOB03587 ---- MONDAY,    15 MAR 2004 ----
 13.00.23 JOB03587  ICH70001I GG$SLP   LAST ACCESS AT 12:59:55 ON MONDAY, MARCH 15, 2004
 13.00.23 JOB03587  $HASP373 WYL#VIEW STARTED - INIT 6    - CLASS B - SYS SYSB
 13.00.23 JOB03587  ***  HCMD      STEP $$QUIET
 13.00.23 JOB03587  PUR * Q OUT MUL
 13.00.23 JOB03587  JOB 5450 WYL#VIEW WILL BE PURGED
 13.00.24 JOB03587  WYL#VIEW.$$QUIET .         RC=Zero TapeIO=0000 DiskIO=0000 CPU=  .01s Elapsed=23.91s
 13.00.36 JOB03587  WYL#VIEW.ASM     .         RC=Zero TapeIO=0000 DiskIO=0834 CPU= 7.10s Elapsed=24.97s
 13.00.38 JOB03587  WYL#VIEW.EDIT    .         RC=Zero TapeIO=0000 DiskIO=0396 CPU= 1.14s Elapsed=36.59s
 13.00.38 JOB03587  WYL#VIEW Ended.  Name=Assemble VIEW                  Total CPU= 8.25s Elapsed=23.91s
 13.00.38 JOB03587
 13.00.38 JOB03587  Execution charges   Priority=Standard   Block=Day
 13.00.38 JOB03587
 13.00.38 JOB03587  CPU Usage         153.00          $94.86   Standard Processing Unit Equivalent
 13.00.38 JOB03587                                   =======
 13.00.38 JOB03587                                    $94.86   Total Job execution charge
 13.00.38 JOB03587
 13.00.38 JOB03587  See back separator page for print charges
 13.00.38 JOB03587
 13.00.38 JOB03587  $HASP395 WYL#VIEW ENDED  ASM=0, EDIT=0
1        1 //WYL#VIEW JOB SLP$GG,'Assemble VIEW',TIME=4,REGION=4M                  JOB03587
           //*
           /*JOBPARM LINES=99,COPIES=1
           /*JOBPARM FORMS=3HOL,PFORMAT=LAND,CHARS=BD13,DUPLEX=YES,FLASH=BAR4
           //*
           /*JOBPARM NOTIFY=GG.SLP,HOLD=OUTPUT                                     WYLGEN
         2 //$$QUIET EXEC PGM=HCMDX,PARM='PUR * Q OUT MUL'
           //*
         3 //ASM    EXEC PGM=ASMA90,REGION=8M,
           //            PARM=('NORENT,TERM,FLAG(NOCONT),US(MAP,WARN(10)),NODECK',
           //            'LC(32767),XREF(SHORT),ESD,DXREF,NOOBJECT')
         4 //STEPLIB DD DSN=SYS3.IS.TESTASM,DISP=SHR
         5 //SYSLIB   DD  DSN=WYL.GS.WYL.WYLBUR.MACLIB,DISP=SHR
         6 //         DD  DSN=WYL.GG.SYS.MACLIB,DISP=SHR
         7 //         DD  DSN=SYS3.IS.MACLIB,DISP=SHR
         8 //         DD  DSN=SYS3.MACLIB,DISP=SHR
         9 //         DD  DSN=SYS1.MACLIB,DISP=SHR
        10 //         DD  DSN=SYS1.MODGEN,DISP=SHR
        11 //SYSUT1   DD DSN=&&SYSUT1,UNIT=VIO,DISP=(,DELETE),
           //            SPACE=(4088,(500,250),,CONTIG,ROUND)
        12 //SYSTERM  DD SYSOUT=T
        13 //SYSPRINT DD DSN=&&PRINT,UNIT=SYSDA,DISP=(,PASS),
           //            SPACE=(6650,(250,250),RLSE),
           //            DCB=(BLKSIZE=6650,LRECL=133,RECFM=FB)
        14 //SYSUDUMP DD SYSOUT=A
        15 //SYSIN    DD  DSN=WYL.GS.WYL.WYLBUR.SOURCE(VIEW),DISP=SHR
           //*
        16 //EDIT    EXEC PGM=ASMEDIT,TIME=2,REGION=4000K,
           //             PARM='STMT'
        17 //STEPLIB  DD  DSN=WYL.GG.SYS.LINKLIB,DISP=SHR
        18 //ASMOUT   DD  DSN=&PRINT,DISP=(OLD,DELETE)
        19 //SYSPRINT DD  SYSOUT=A
1 STMT NO. MESSAGE
 -
        11 IGD01010I STORCLAS= TEMP STORGROUP =
        11 IGD01010I STORGRP=VIO ASSIGNED.
        13 IGD01010I STORCLAS= TEMP STORGROUP =
        13 IGD01010I STORGRP=VIO ASSIGNED.
 ICH70001I GG$SLP   LAST ACCESS AT 12:59:55 ON MONDAY, MARCH 15, 2004
 IEF142I WYL#VIEW $$QUIET - STEP WAS EXECUTED - COND CODE 0000
 *********************************************************************************
 *   WYL#VIEW/$$QUIET /                    Return Code      Zero                 *
 *   Region used      260K (16K user + 244K system)                              *
 *   Extended region  9692K (4K user + 9688K system)                             *
 *                                                                               *
 *   Paging              In      Out                                             *
 *   Private <-> Aux      0        0       CPU time (TCB)   00:00:00.01          *
 *   Private <-> Exp      0        0       CPU time (SRB)   00:00:00.00          *
 *   VIO                  0        0       Elapsed time    917:27:29.05          *
 *   Common               0      ---                                             *
 *                                                                               *
 *                                                                               *
 *   CPU Usage          0.18         $0.11  Standard Processing Unit Equivalent  *
 *                                   $0.11  Total Step execution charge          *
 *                                                                               *
 *    I/O count  DDname   Type Addr           I/O count  DDname   Type Addr      *
 *                         *** No I/O for this step ***                          *
 *********************************************************************************
 IEF373I STEP/$$QUIET /START 2004075.1300
 IEF374I STEP/$$QUIET /STOP  2004075.1300 CPU    0MIN 00.01SEC SRB    0MIN 00.00SEC VIRT    16K SYS   244K EXT       4K SYS    9688K
 IEF236I ALLOC. FOR WYL#VIEW ASM
 IEF237I 04DC ALLOCATED TO STEPLIB
 IEF237I 04DC ALLOCATED TO SYSLIB
 IEF237I 04DC ALLOCATED TO
 IEF237I 04DC ALLOCATED TO
 IEF237I 0402 ALLOCATED TO
 IEF237I 04A0 ALLOCATED TO
 IEF237I 04A0 ALLOCATED TO
 IGD101I SMS ALLOCATED TO DDNAME (SYSUT1  )
         DSN (SYS04075.T130023.RA000.WYL#VIEW.SYSUT1.H01  )
         STORCLAS (TEMP) MGMTCLAS (        ) DATACLAS (        )
         VOL SER NOS= VIO
 IEF237I JES2 ALLOCATED TO SYSTERM
 IGD101I SMS ALLOCATED TO DDNAME (SYSPRINT)
         DSN (SYS04075.T130023.RA000.WYL#VIEW.PRINT.H01   )
         STORCLAS (TEMP) MGMTCLAS (        ) DATACLAS (        )
         VOL SER NOS= SCR101
 IEF237I JES2 ALLOCATED TO SYSUDUMP
 IEF237I 04DC ALLOCATED TO SYSIN
 IEF142I WYL#VIEW ASM - STEP WAS EXECUTED - COND CODE 0000
 IEF285I   SYS3.IS.TESTASM                              KEPT
 IEF285I   VOL SER NOS= SYSB05.
 IEF285I   WYL.GS.WYL.WYLBUR.MACLIB                     KEPT
 IEF285I   VOL SER NOS= SYSB05.
 IEF285I   WYL.GG.SYS.MACLIB                            KEPT
 IEF285I   VOL SER NOS= SYSB05.
 IEF285I   SYS3.IS.MACLIB                               KEPT
 IEF285I   VOL SER NOS= SYSB05.
 IEF285I   SYS3.MACLIB                                  KEPT
 IEF285I   VOL SER NOS= SYSB02.
 IEF285I   SYS1.MACLIB                                  KEPT
 IEF285I   VOL SER NOS= MVSBR9.
 IEF285I   SYS1.MODGEN                                  KEPT
 IEF285I   VOL SER NOS= MVSBR9.
 IGD105I SYS04075.T130023.RA000.WYL#VIEW.SYSUT1.H01   DELETED,   DDNAME=SYSUT1
 IEF285I   GG$SLP.WYL#VIEW.JOB03587.D0000101.?          SYSOUT
 IGD106I SYS04075.T130023.RA000.WYL#VIEW.PRINT.H01    PASSED,    DDNAME=SYSPRINT
 IEF285I   GG$SLP.WYL#VIEW.JOB03587.D0000102.?          SYSOUT
 IEF285I   WYL.GS.WYL.WYLBUR.SOURCE                     KEPT
 IEF285I   VOL SER NOS= SYSB05.
 *********************************************************************************
 *   WYL#VIEW/ASM     /                    Return Code      Zero                 *
 *   Region used      4376K (4096K user + 280K system)                           *
 *   Extended region  10300K (412K user + 9888K system)                          *
 *                                                                               *
 *   Paging              In      Out                                             *
 *   Private <-> Aux      0        0       CPU time (TCB)   00:00:07.04          *
 *   Private <-> Exp      0        0       CPU time (SRB)   00:00:00.06          *
 *   VIO                  0        0       Elapsed time    917:27:27.99          *
 *   Common               0      ---                                             *
 *                                                                               *
 *                                                                               *
 *   CPU Usage        132.00        $81.84  Standard Processing Unit Equivalent  *
 *                                  $81.84  Total Step execution charge          *
 *                                                                               *
 *    I/O count  DDname   Type Addr           I/O count  DDname   Type Addr      *
 *           85  STEPLIB  Disk 04DC                 344  SYSLIB   Disk 04DC      *
 *            0  SYSLIB   Disk 04DC                   0  SYSLIB   Disk 04DC      *
 *            0  SYSLIB   Disk 0402                   0  SYSLIB   Disk 04A0      *
 *            0  SYSLIB   Disk 04A0                 264  SYSUT1   VIO  ----      *
 *            0  SYSTERM       ----                 393  SYSPRINT Disk 04E3      *
 *            0  SYSUDUMP      ----                  12  SYSIN    Disk 04DC      *
 *********************************************************************************
 IEF373I STEP/ASM     /START 2004075.1300
 IEF374I STEP/ASM     /STOP  2004075.1300 CPU    0MIN 07.04SEC SRB    0MIN 00.06SEC VIRT  4096K SYS   280K EXT     412K SYS    9888K
 IEF236I ALLOC. FOR WYL#VIEW EDIT
 IEF237I 0402 ALLOCATED TO STEPLIB
 IGD103I SMS ALLOCATED TO DDNAME ASMOUT
 IEF237I JES2 ALLOCATED TO SYSPRINT
 IEF142I WYL#VIEW EDIT - STEP WAS EXECUTED - COND CODE 0000
 IEF285I   WYL.GG.SYS.LINKLIB                           KEPT
 IEF285I   VOL SER NOS= SYSB02.
 IGD105I SYS04075.T130023.RA000.WYL#VIEW.PRINT.H01    DELETED,   DDNAME=ASMOUT
 IEF285I   GG$SLP.WYL#VIEW.JOB03587.D0000103.?          SYSOUT
 *********************************************************************************
 *   WYL#VIEW/EDIT    /                    Return Code      Zero                 *
 *   Region used      380K (116K user + 264K system)                             *
 *   Extended region  9816K (4K user + 9812K system)                             *
 *                                                                               *
 *   Paging              In      Out                                             *
 *   Private <-> Aux      0        0       CPU time (TCB)   00:00:01.11          *
 *   Private <-> Exp      0        0       CPU time (SRB)   00:00:00.03          *
 *   VIO                  0        0       Elapsed time    917:27:16.37          *
 *   Common               0      ---                                             *
 *                                                                               *
 *                                                                               *
 *   CPU Usage         20.81        $12.90  Standard Processing Unit Equivalent  *
 *                                  $12.90  Total Step execution charge          *
 *                                                                               *
 *    I/O count  DDname   Type Addr           I/O count  DDname   Type Addr      *
 *            2  STEPLIB  Disk 0402                 394  ASMOUT   Disk 04E3      *
 *            0  SYSPRINT      ----                                              *
 *********************************************************************************
 IEF373I STEP/EDIT    /START 2004075.1300
 IEF374I STEP/EDIT    /STOP  2004075.1300 CPU    0MIN 01.11SEC SRB    0MIN 00.03SEC VIRT   116K SYS   264K EXT       4K SYS    9812K
 *********************************************************************************
 *                                                                               *
 *                      S t a n f o r d   U n i v e r s i t y                    *
 *                                                                               *
 *                              *** Job Summary ***                              *
 *                                                                               *
 *   System Id      SYSB                   Input time     12:39:38  Mar 15, 2004 *
 *                                                                               *
 *   System Release SP6.1.0                Start time     13:00:23  Mar 15, 2004 *
 *                                                                               *
 *   Job name       WYL#VIEW               Stop  time     00:00:00  Mar 15, 2004 *
 *                                                                               *
 *   Account        SLP$GG                 Elapsed time  917:27:29.05            *
 *                                                                               *
 *   User Name      Assemble VIEW          CPU time       00:00:08.16            *
 *                                                                               *
 *   Job class      B                      SRB Time       00:00:00.09            *
 *                                                                               *
 *********************************************************************************
 IEF375I  JOB/WYL#VIEW/START 2004075.1300
 IEF376I  JOB/WYL#VIEW/STOP  2004075.1300 CPU    0MIN 08.16SEC SRB    0MIN 00.09SEC
1Assembler Done VIEW No Statements Flagged
1         High Level Assembler Option Summary                   (PTF P72483 )                                               Page    1
-                                                                                            HLASM R4.0  2004/03/15 13.00
0  No Overriding ASMAOPT Parameters
   Overriding Parameters-  NORENT,TERM,FLAG(NOCONT),US(MAP,WARN(10)),NODECK,LC(32767),XREF(SHORT),ESD,DXREF,NOOBJECT
   No Process Statements


   Options for this Assembly
0  NOADATA
     ALIGN
   NOASA
     BATCH
     CODEPAGE(047C)
   NOCOMPAT
   NODBCS
 3 NODECK
 3   DXREF
 3   ESD
   NOEXIT
 3   FLAG(0,ALIGN,NOCONT,NOIMPLEN,NOPAGE0,PUSH,RECORD,NOSUBSTR,USING0)
   NOFOLD
   NOGOFF
   NOINFO
     LANGUAGE(EN)
   NOLIBMAC
 3   LINECOUNT(32767)
     LIST(121)
     MXREF(SOURCE)
 3 NOOBJECT
     OPTABLE(UNI,NOLIST)
   NOPCONTROL
   NOPESTOP
   NOPROFILE
   NORA2
 3 NORENT
     RLD
     RXREF
     SIZE(MAX)
     SYSPARM()
 3   TERM(WIDE)
   NOTEST
     THREAD
   NOTRANSLATE
 3   USING(NOLIMIT,MAP,WARN(10))
 3   XREF(SHORT)

   No Overriding DD Names

1VIEW     External Symbol Dictionary                                                                                        Page    2
-Symbol   Type   Id     Address  Length     LD ID  Flags Alias-of                            HLASM R4.0  2004/03/15 13.00
0WYLVIEW   SD 00000001 00000000 00007590             00
 VIEW2025  LD          00000000           00000001
 SETVIEW   LD          00000018           00000001
 SHOWVIEW  LD          0000009C           00000001
 MTOKEN    ER 00000002
 COLLPSH   ER 00000003
 MALL      ER 00000004
 NOTVALID  ER 00000005
 SHVWDBUG  LD          00000358           00000001
 NSCAN     ER 00000006
 SCANCHK   ER 00000007
 SEG       ER 00000008
 SEGDC     ER 00000009
 DTB       ER 0000000A
 SEGCR     ER 0000000B
 SEGB      ER 0000000C
 SEGHX     ER 0000000D
 BTR       ER 0000000E
 LRTRIM    ER 0000000F
 VIEWTRC   LD          00000F1C           00000001
 FREEVTRC  LD          00000FD8           00000001
 SHVWTRC   LD          000010F0           00000001
 GETCORE   ER 00000010
 LOCALTOD  ER 00000011
 FREECORE  ER 00000012
 FMTTIME   ER 00000013
 ESCFMT    ER 00000014
 VIEW      LD          0000137E           00000001
 CLRPSH    ER 00000015
 MPINT     ER 00000016
 MNULL     ER 00000017
 MINT      ER 00000018
 PAGETCHK  ER 00000019
 CLRTEXT   ER 0000001A
 PAGECMD   ER 0000001B
 NDETRNG   ER 0000001C
 PAGECLR   ER 0000001D
 RDRNG     ER 0000001E
 RLOOKUP   ER 0000001F
 GETVINFO  ER 00000020
 PAGEINIT  ER 00000021
 SETVINFO  ER 00000022
 CALCDIM   ER 00000023
 PAGELINE  ER 00000024
 PAGEMOD   ER 00000025
 RNGABORT  ER 00000026
 VIEWCMD   LD          00002236           00000001
 SEGINIT   ER 00000027
 GBLCMD    ER 00000028
 PAGEFILL  ER 00000029
 PAGEFIND  ER 0000002A
 PAGEBOT   ER 0000002B
 SCNNOOP   ER 0000002C
 GETLINE   ER 0000002D
 DELRANGE  ER 0000002E
1VIEW     External Symbol Dictionary                                                                                        Page    3
 SCINIT    ER 0000002F
 HELP      ER 00000030
 PAGECNT   ER 00000031
 PAGESCRL  ER 00000032
 PAGETOP   ER 00000033
 PREVLNO   ER 00000034
 PAGEMAKE  ER 00000035
 GETLNO    ER 00000036
 CHOPLINE  ER 00000037
 CHKLINES  ER 00000038
 VPUTLINE  ER 00000039
 ENDLNO    ER 0000003A
 XSETSET   ER 0000003B
 XGET      ER 0000003C
 PUTLINE   ER 0000003D
 SELDELTA  ER 0000003E
 ACTPICK   ER 0000003F
 CNTRANGE  ER 00000040
 JOINLINE  ER 00000041
 GETLINEX  ER 00000042
 GETWD     ER 00000043
 GUESSWD   ER 00000044
 LEARNWD   ER 00000045
 BTD       ER 00000046
 EDTCOM    ER 00000047
 ACTNEXT   ER 00000048
 SEGT      ER 00000049
 ACTVREST  ER 0000004A
 ACTPREV   ER 0000004B
 PAGENEWW  ER 0000004C
 WINDFIX   ER 0000004D
 PAGECOLS  ER 0000004E
 UPDCPSIB  ER 0000004F
 VIEWPF    LD          00006D1A           00000001
 VIEWXCMD  LD          00006EF2           00000001
 CVEXNO    ER 00000050

1VIEW     WYLBUR's VIEW Command                                                                                             Page    4
0Loc    Object Code    Addr1 Addr2  Stmt Lv Lineno    Source Statement                    (Asmedit 3.3)  HLASM R4.0  2004/03/15 13.00
+___    ______ ____    _____ _____  ____ __ ______    ______ _________
0                                      2              *******************************************************************
                                       3              *                                                                 *
                                       4              *     WYLBUR/370 - Release VI - Class I - Stanford Proprietary    *
                                       5              *                                                                 *
                                       6              *******************************************************************
                                       7                       HIBAL
                                     988
 000000                00000 07590   989              WYLVIEW  CSECT
                                     993              VIEW     IDENT 2025                11:49:37 01/25/02  (SLP)
                                     996             +
                                     997    01-IDENT +         ENTRY VIEW2025
                                     998             +
 000000 16E5C9C5E6F2F0F2             999    01-IDENT +VIEW2025 DC    AL1(22),C'VIEW2025,15MAR04,13:00'
                                    1000             +*
                                    1002                       REGS  FSR,,,,,,,BR,(WAR,LSR),PAR,PBR,CPR,CVR,SPR,RAR
-                                   1139                       MACRO
                                    1140              &L       FREECURS
                                    1141                       CLEAR CPVCURS,CPVACURS
                                    1142                       MVC   CPVLNO,=F'-1000'
                                    1143                       MVC   CPVALNO,=F'-1'
                                    1144                       CLEAR CPVCOL,CPVACOL
                                    1145                       MEND
                                    1146
                                    1147                       SYSDEFN
-                                   1149                       PUSH  DSECTS
 USING  CP,R11                      1160             =         USING (CP),(CV)
 USING  CV,R12
 000017                00000 07590  1179             =         POP   PRINT
1VIEW     (VIEW2025) (13:00) (15MAR04) DSECTS                                                                               Page    5
0Current Usings:  (CP,R11) (CV,R12)
0Loc    Object Code    Addr1 Addr2  Stmt Lv Lineno    Source Statement           (Hibal 5, Asmedit 3.3)  HLASM R4.0  2004/03/15 13.00
+___    ______ ____    _____ _____  ____ __ ______    ______ _________
0                                   6594                       COPY  WIND
                                    6595             =WINDMAX# EQU   6,,C'N'             Maximum number of windows
                                    6596             =
 000000                00000 00040  6597             =WIND     RECORD BEGIN
 000000 00                          6605  1          =WINDFLAG   FLAG
 WINDFLAG.WINFREWR 80 ONES          6609  1          =           FLAG  WINFREWR            - Rewrite this window
 WINDFLAG.WINFMOD  40 ONES          6614  1          =           FLAG  WINFMOD             - Mods made; recalc all linenos
 WINDFLAG.WINFUNN  20 ONES          6619  1          =           FLAG  WINFUNN             - Unnumbered
 WINDFLAG.WINFWRAP 10 ONES          6624  1          =           FLAG  WINFWRAP            - Wrap lines at right margin
                                    6629  1          =
 000001                             6630  1          =           DS    X                   Reserved
                                    6631  1          =
 000002                             6632  1          =WINDNO     DS    H                   Window number
                                    6633  1          =
 000004                             6634  1          =WINDTCNT   DS    H                   Number of text lines in window
                                    6635  1          =
 000006                             6636  1          =WINDFROW   DS    H                   First row in this window
 000008                             6637  1          =WINDLROW   DS    H                   Last row in this window
 00000A                             6638  1          =WINDTCOL   DS    H                   First text column in this window
 00000C                             6639  1          =WINDTLEN   DS    H                   Maximum text length
                                    6640  1          =
 00000E                             6641  1          =WINDFCOL   DS    H                   Starting column-1 for lines
                                    6642  1          =
 000010                             6643  1          =WINDIND    DS    H                   Default indentation (left margin)
 000012                             6644  1          =WINDMARG   DS    H                   Right margin column number
                                    6645  1          =
 000014                             6646  1          =WINDACT    DS    F                   Active file number
                                    6647  1          =
 000018                             6648  1          =WINDSLNO   DS    F                   Starting lineno in window
 00001C                             6649  1          =WINDELNO   DS    F                   Ending lineno in window
                                    6650  1          =
 000020                             6651  1          =WINDFLNO   DS    F                   First existing lineno in window
 000024                             6652  1          =WINDLLNO   DS    F                   Last existing lineno in window
                                    6653  1          =
 000028                             6654  1          =WINDOFLN   DS    F                   Old first lineno in window
 00002C                             6655  1          =WINDOLLN   DS    F                   Old last lineno in window
                                    6656  1          =
 000030                             6657  1          =WINDTABS   DS    XL16                Default tab stops for this window
                                    6658  1          =WINDNEXT   EQU   *
 000040                00040 00040  6659             =         END
1VIEW     (VIEW2025) (13:00) (15MAR04) DSECTS                                                                               Page    6
0Current Usings:  (CP,R11) (CV,R12)
0Loc    Object Code    Addr1 Addr2  Stmt Lv Lineno    Source Statement           (Hibal 5, Asmedit 3.3)  HLASM R4.0  2004/03/15 13.00
+___    ______ ____    _____ _____  ____ __ ______    ______ _________
0                                   6669                       COPY  LINT
                                    6670             =LINTMAX# EQU   80,,C'N'            Maximum number of lines on page
                                    6671             =
 000000                00000 00014  6672             =LINT     RECORD BEGIN              Line table entry
 000000                             6680  1          =LINTROW    DS    H                   Line's row number
 000002                             6681  1          =LINTWIND   DS    H                   Line's window number
                                    6682  1          =
 000004                             6683  1          =LINTOLNO   DS    F                   Previous line-number
                                    6684  1          =
 000008 00                          6685  1          =LINTOFLG   FLAG  ,                   Previous line flags
                                    6689  1          =
 000009                             6690  1          =           DS    XL3                 Reserved
                                    6691= 1          =     ¿þþþþþþþþþþþþþþþþþþþþþþþþþþþþþþþþþþþþþþþþþþþþþþþþþþþþþþþþþþþÜ
                                    6692= 1          =     Ÿ  LINT fields below get cleared when a new line is built.  Ÿ
                                    6693= 1          =     ¾þþþþþþþþþþþþþþþþþþþþþþþþþþþþþþþþþþþþþþþþþþþþþþþþþþþþþþþþþþþ»
 00000C 00                          6694  1          =LINTTYPE   FLAG
 LINTTYPE.LINFFREE 00 EQ            6698  1          =           FLAG  (LINFFREE,0,EQ)     - Empty line
 LINTTYPE.LINFNEW  01 EQ            6708  1          =           FLAG  (LINFNEW,1,EQ)      - New text line
 LINTTYPE.LINFTEXT 02 EQ            6718  1          =           FLAG  (LINFTEXT,2,EQ)     - Existing text line
 LINTTYPE.LINFCOL  03 EQ            6728  1          =           FLAG  (LINFCOL,3,EQ)      - Column line
 LINTTYPE.LINFCMD  04 EQ            6738  1          =           FLAG  (LINFCMD,4,EQ)      - Command line
 LINTTYPE.LINFMSG  05 EQ            6748  1          =           FLAG  (LINFMSG,5,EQ)      - Message line
 LINTTYPE.LINFSTAT 06 EQ            6758  1          =           FLAG  (LINFSTAT,6,EQ)     - Status line
                                    6768  1          =
 00000D 00                          6769  1          =LINTFLG    FLAG
 LINTFLG.LINFREWR  80 ONES          6773  1          =           FLAG  LINFREWR            - Rewrite line
 LINTFLG.LINFPREP  40 ONES          6778  1          =           FLAG  LINFPREP            - Pad lines will nulls (3270s)
                                    6783  1          =
 00000E 00                          6784  1          =LINTWFLG   FLAG  ,                   Working flags
 LINTWFLG.LINFREN  80 ONES          6788  1          =           FLAG  LINFREN             - Renumbered lineno
 LINTWFLG.LINFOREN 40 ONES          6793  1          =           FLAG  LINFOREN            - Renumbered old lineno
                                    6798  1          =
 00000F                             6799  1          =           DS    X                   Reserved
                                    6800  1          =
 000010                             6801  1          =LINTLNO    DS    F                   Line-number
                                    6802  1          =LINTOPT    EQU   LINTTYPE,*-LINTTYPE,C'X'
                                    6803  1          =LINTNEXT   EQU   *
 000014                00014 00014  6804             =         END
1VIEW     (VIEW2025) (13:00) (15MAR04) DSECTS                                                                               Page    7
0Current Usings:  (CP,R11) (CV,R12)
0Loc    Object Code    Addr1 Addr2  Stmt Lv Lineno    Source Statement           (Hibal 5, Asmedit 3.3)  HLASM R4.0  2004/03/15 13.00
+___    ______ ____    _____ _____  ____ __ ______    ______ _________
0                                   6814                       MACRO
                                    6815              &L       FREELINT
                                    6816              &L       IF    (LINTLNO,EQ,LINTOLNO),BEGIN  Save old attributes...
                                    6817                       OC    LINTOFLG,LINTFLG    Preserve the attributes
                                    6818                       END
                                    6819                       CLEAR LINTOPT             (Also sets LINFFREE)
                                    6820                       MEND
1VIEW     (VIEW2025) (13:00) (15MAR04) VIEW Command                                                                         Page    8
0Current Usings:  (CP,R11) (CV,R12)
0Loc    Object Code    Addr1 Addr2  Stmt Lv Lineno    Source Statement           (Hibal 5, Asmedit 3.3)  HLASM R4.0  2004/03/15 13.00
+___    ______ ____    _____ _____  ____ __ ______    ______ _________
0                                   6822              ¿þþþþþþþþþþþþþþþþþþþþþþþþþþþþþþþþþþþþþþþþþþþþþþþþþþþþþþþþþþþþþþþþþþþþþÜ
                                    6823              Ÿ                                                                     Ÿ
                                    6824              Ÿ  SETVIEW -- SET VIEW Command.                                       Ÿ
                                    6825              Ÿ                                                                     Ÿ
                                                      ¾þþþþþþþþþþþþþþþþþþþþþþþþþþþþþþþþþþþþþþþþþþþþþþþþþþþþþþþþþþþþþþþþþþþþþ»
0000018 50E0 D000/9008_      00000  6826              SETVIEW  XPROC
 USING  *,R7
 000032 5810 B08C/1B00_      0008C  6866                       SCAN  VIEWPRT             View options
 000084 58E0 7C9E/0DEE       00CD0  6898                       SCANCHK
 00008A 47F0 C7DE            007DE  6903                       B     CVNEXT
                                    6904
 00008E 18D8/9808 D004_             6905                       PEND
 DROP   *,R7
1VIEW     (VIEW2025) (13:00) (15MAR04) SHOW VIEW Command                                                                    Page    9
0Current Usings:  (CP,R11) (CV,R12)
0Loc    Object Code    Addr1 Addr2  Stmt Lv Lineno    Source Statement           (Hibal 5, Asmedit 3.3)  HLASM R4.0  2004/03/15 13.00
+___    ______ ____    _____ _____  ____ __ ______    ______ _________
0                                   6926              ¿þþþþþþþþþþþþþþþþþþþþþþþþþþþþþþþþþþþþþþþþþþþþþþþþþþþþþþþþþþþþþþþþþþþþþÜ
                                    6927              Ÿ                                                                     Ÿ
                                    6928              Ÿ  SHOWVIEW -- SHOW VIEW Command.                                     Ÿ
                                    6929              Ÿ                                                                     Ÿ
                                                      ¾þþþþþþþþþþþþþþþþþþþþþþþþþþþþþþþþþþþþþþþþþþþþþþþþþþþþþþþþþþþþþþþþþþþþþ»
000009C 50E0 D000/9008_      00000  6930              SHOWVIEW XPROC
 USING  *,R7
 0000B6 5810 B08C/1B00_      0008C  6970                       SCAN  SHVWPRT
 000108 58E0 7C1A/0DEE       00CD0  7002                       SCANCHK
                                    7007
 00010E 4110 7D34/4100_      00DEA  7008                       TSEG  'INDENT='
 000120 D501 7C60 BB50_00D16 00B50  7026                       IF    (CPVIND,EQ,-1),'TSEG "AUTO"'
 00013C 708A/47F0 709A_0013C 00128  7067                       ELSE  'TNUM LH:CPVIND'
                                    7104
 000150 4110 7BCA/4100_      00C80  7105                       TSEG  ' MARGIN='
 000162 4810 BB52/1B00_      00B52  7123                       TNUM  LH:CPVMARG
                                    7144
 000172 4110 C4D8/4100_      004D8  7145                       TSEG  CVBLANKS,1
 000184 9140 BACA/47E0_00ACA        7175                       IF    CPVFUNN,'TSEG "UN"'
 00019E 4110 7D3B/4100_      00DF1  7213                       TSEG  'NUMBERED '
                                    7231
 0001B0 9180 BACA/4710_00ACA        7232                       IF    ~CPVFWRAP,'TSEG "NO"'
 0001CA 4110 7D44/4100_      00DFA  7270                       TSEG  'WRAP '
                                    7288
 0001DC 9101 BACC/4710_00ACC        7289                       IF    ~CPVFINS,'TSEG "NO"'
 0001F6 4110 7D49/4100_      00DFF  7327                       TSEG  'INSERT '
                                    7345
 000208 9108 BACA/4710_00ACA        7346                       IF    ~CPVFSPEL,'TSEG "NO"'
 000222 4110 7C66/4100_      00D1C  7384                       TSEG  'SPELL '
                                    7402
 000234 9140 BACB/47E0_00ACB        7403                       IF    CPVFPREP,'TSEG "PREPARE "'
                                    7441
 00024E 9120 BACA/47E0_00ACA        7442                       IF    CPVFTRC,'TSEG "TRACE "'
                                    7480
 000268 9110 BACA/47E0_00ACA        7481                       IF    CPVFBUG,'TSEG "DEBUG "'
                                    7519
 000282 9104 BACA/47E0_00ACA        7520                       IF    CPVFFORMAT,'TSEG "FORMATTED "'
                                    7558
 00029C 4110 7C82/4100_      00D38  7559                       SETMSG '- View options'
 0002A4 47F0 C7D0            007D0  7563                       B     CVNXTMSG
                                    7564
 0002A8 18D8/9808 D004_             7565                       PEND
 DROP   *,R7
                                    7585
 0002B8 C4C5C2E4C7404040_           7586              SHVWPRT  SCKW  DEBUG,SHVWDBUG,A
 0002E0 E3D9C1C3C5404040_           7601                       SCKW  TRACE,SHVWTRC,A
 000308 4040404040404040_           7616                       SCKW  ,V(COLLPSH),PUSH
 000330 4040404040404040_           7631                       SCKW  ,V(NOTVALID)
1VIEW     (VIEW2025) (13:00) (15MAR04) SHOW VIEW Command                                                                    Page   10
0Current Usings:  (CP,R11) (CV,R12)
0Loc    Object Code    Addr1 Addr2  Stmt Lv Lineno    Source Statement           (Hibal 5, Asmedit 3.3)  HLASM R4.0  2004/03/15 13.00
+___    ______ ____    _____ _____  ____ __ ______    ______ _________
0                                   7647              ¿þþþþþþþþþþþþþþþþþþþþþþþþþþþþþþþþþþþþþþþþþþþþþþþþþþþþþþþþþþþþþþþþþþþþþÜ
                                    7648              Ÿ                                                                     Ÿ
                                    7649              Ÿ  SHVWDBUG -- SHOW VIEW DEBUG Routine.                               Ÿ
                                    7650              Ÿ                                                                     Ÿ
                                                      ¾þþþþþþþþþþþþþþþþþþþþþþþþþþþþþþþþþþþþþþþþþþþþþþþþþþþþþþþþþþþþþþþþþþþþþ»
0000000                00000 00080  7651              SHVWWA   RECORD BEGIN
 000000                             7659  1           SHVWMSG    DS    CL128               Formatting work area
 000080                00080 00080  7660                       END
                                    7669              þþþþ
 000358 50E0 D000/9008_      00000  7670              SHVWDBUG XPROC SHVWWA
 USING  *,R7
 USING  SHVWWA-(4+36),R8
 000372 5850 C1C8            001C8  7721                       L     R5,CVCURJCB
                                    7722                       ¿þþþþþþþþþþþþþþþþþþþþþþþþþþþþþþþþþþþþþþþþþþþþþþþÜ
                                    7723                       Ÿ  Allow optional line-number of another user.  Ÿ
                                    7724                       ¾þþþþþþþþþþþþþþþþþþþþþþþþþþþþþþþþþþþþþþþþþþþþþþþ»
 000376 5810 B08C/1B00_      0008C  7725                       SCAN
 0003C4 1200/4780 7088              7756                       IF    (R0,NZ),BEGIN
 0003CA 58E0 7972/0DEE       00CE4  7770  1                      DTB   (R1),(R0)           Convert to binary
 0003D0 1200/4780 706A_             7785  1                      IF    (R0,NZ),'VCALL NOTVALID'
 0003DC 185F                        7808  1                      LR    R5,R15
 0003DE 4C50 79D4            00D46  7809  1                      MH    R5,=AL2(L'JCB)
 0003E2 5E50 C1C0            001C0  7810  1                      AL    R5,CVFJCB           Other user's JCB ptr
 0003E6 5550 C1C4/4750_      001C4  7811  1                      IF    (R5,LGE,CVLJCB),BEGIN
 0003EE 4110 79D6/4100_      00D48  7828  2                        ERROR 'Line is out of bounds.'
 0003FA                             7835  1                      END
 0003FA                             7839                       END
                                    7843
 USING  JCB,R5                      7844                       WITH  (JCB,R5),BEGIN
 0003FA 5860 5014            00014  7858  1                      L     R6,JCBCPX           Get CP ptr
 DROP   JCB,R5                      7859                       END
                                    7867
 0003FE 1266/4770 709E              7868                       IF    (R6,Z),BEGIN
 000404 4110 79EC/4100_      00D5E  7882  1                      ERROR 'Illegal line -- no CP.'
 000410                             7889                       END
                                    7893                       ¿þþþþþþþþþþþþþþþþþþþþþþþþþþþþþÜ
                                    7894                       Ÿ  General page information.  Ÿ
                                    7895                       ¾þþþþþþþþþþþþþþþþþþþþþþþþþþþþþ»
 000410 4110 7A02/4100_      00D74  7896                       TSEG  'Screen image ('
 000422 4816 0AD4/1B00_      00AD4  7914                       TNUM  LH:CPVHEI-CP(R6)
 000432 4110 797A/4100_      00CEC  7935                       TSEG  ' by '
 000444 4816 0AD2/1B00_      00AD2  7953                       TNUM  LH:CPVWID-CP(R6)
 000454 4110 797A/4100_      00CEC  7974                       TSEG  ' by '
 000466 4816 0AD0/1B00_      00AD0  7992                       TNUM  LH:CPVTWID-CP(R6)
 000476 4110 7A10/4100_      00D82  8013                       TSEG  '):'
 000488 1B00/41F0 B050_             8031                       TCR
 000494 1B00/41F0 B050_             8056                       TCR
                                    8081              *
                                    8082              *CP      TSEG  'Exportable information: '
                                    8083              *CP      SETMSG SHVWMSG
                                    8084              *CP      VCALL GETVINFO            Get view information
                                    8085              *CP      TSEG  (R1),(R0)
                                    8086              *CP      TCR
1VIEW     (VIEW2025) (13:00) (15MAR04) SHOW VIEW Command                                                                    Page   11
0Current Usings:  (*,R7) (SHVWWA-(4+36),R8) (CP,R11) (CV,R12)
0Loc    Object Code    Addr1 Addr2  Stmt Lv Lineno    Source Statement           (Hibal 5, Asmedit 3.3)  HLASM R4.0  2004/03/15 13.00
+___    ______ ____    _____ _____  ____ __ ______    ______ _________
0                                   8087              *CP      TCR
                                    8088              *
 0004A0 4110 7A94/4100_      00E06  8089                       TSEG  'Marked block:  Active #'
 0004B2 5816 0748/1B00_      00748  8107                       TNUM  L:CPBLKACT-CP(R6)
 0004C2 4110 791E/4100_      00C90  8129                       TSEG  ', first='
 0004D4 58F6 074C            0074C  8147                       L     R15,CPFBKLNO-CP(R6)
 0004D8 58E0 7982/0DEE       00CF4  8148                       ACALL VLNO
 0004DE 41F0 B050/58E0_      00050  8152                       TSEG  (R1),(R0)
 0004E8 4110 7A12/4100_      00D84  8176                       TSEG  ' (col='
 0004FA 4816 0754/1B00_      00754  8194                       TNUM  LH:CPFBKCOL-CP(R6)
 00050A 4110 7926/4100_      00C98  8215                       TSEG  '), last='
 00051C 58F6 0750            00750  8233                       L     R15,CPLBKLNO-CP(R6)
 000520 58E0 7982/0DEE       00CF4  8234                       ACALL VLNO
 000526 41F0 B050/58E0_      00050  8238                       TSEG  (R1),(R0)
 000530 4110 7A12/4100_      00D84  8262                       TSEG  ' (col='
 000542 4816 0756/1B00_      00756  8280                       TNUM  LH:CPLBKCOL-CP(R6)
 000552 4110 7AAB/4100_      00E1D  8301                       TSEG  ')'
 000564 1B00/41F0 B050_             8319                       TCR
 000570 1B00/41F0 B050_             8344                       TCR
                                    8369
 00057C 4110 7A18/4100_      00D8A  8370                       TSEG  'Current   cursor: '
 00058E 5816 0AE0/1B00_      00AE0  8388                       TNUM  L:CPVCURR-CP(R6)
 00059E 4110 7AAC/4100_      00E1E  8410                       TSEG  ','
 0005B0 5816 0AE4/1B00_      00AE4  8428                       TNUM  L:CPVCURC-CP(R6)
 0005C0 4110 7A2A/4100_      00D9C  8450                       TSEG  ' ('
 0005D2 58F6 0ADC            00ADC  8468                       L     R15,CPVLNO-CP(R6)
 0005D6 58E0 7982/0DEE       00CF4  8469                       ACALL VLNO
 0005DC 41F0 B050/58E0_      00050  8473                       TSEG  (R1),(R0)
 0005E6 4110 7AAD/4100_      00E1F  8497                       TSEG  ' lineno, '
 0005F8 4816 0ADA/1B00_      00ADA  8515                       TNUM  LH:CPVCOL-CP(R6)
 000608 4110 792E/4100_      00CA0  8536                       TSEG  ' column)',,CR
                                    8554
 00061A 4110 7A2C/4100_      00D9E  8555                       TSEG  'Alternate cursor: '
 00062C 5816 0AF0/1B00_      00AF0  8573                       TNUM  L:CPVACURR-CP(R6)
 00063C 4110 7AAC/4100_      00E1E  8595                       TSEG  ','
 00064E 5816 0AF4/1B00_      00AF4  8613                       TNUM  L:CPVACURC-CP(R6)
 00065E 4110 7A2A/4100_      00D9C  8635                       TSEG  ' ('
 000670 58F6 0AEC            00AEC  8653                       L     R15,CPVALNO-CP(R6)
 000674 58E0 7982/0DEE       00CF4  8654                       ACALL VLNO
 00067A 41F0 B050/58E0_      00050  8658                       TSEG  (R1),(R0)
 000684 4110 7AAD/4100_      00E1F  8682                       TSEG  ' lineno, '
 000696 4816 0AE8/1B00_      00AE8  8700                       TNUM  LH:CPVACOL-CP(R6)
 0006A6 4110 792E/4100_      00CA0  8721                       TSEG  ' column)',,CR
 0006B8 1B00/41F0 B050_             8739                       TCR
                                    8764                       ¿þþþþþþþþþþþþþþþþþþþþþþþþþþþþþþþþþÜ
                                    8765                       Ÿ  Display each window's status.  Ÿ
                                    8766                       ¾þþþþþþþþþþþþþþþþþþþþþþþþþþþþþþþþþ»
 0006C4 4140 0001            00001  8767                       LA    R4,1
 0006C8 5856 0B58            00B58  8768                       L     R5,CPWINDP-CP(R6)
 0006CC 4946 0AD8/4730_      00AD8  8769                       WHILE ('CH R4,CPVWCNT-CP(R6)',LE),BEGIN
 USING  WIND,R5                     8784  1                      WITH  (WIND,R5)
                                    8797  1
 0006D4 4110 7AB6/4100_      00E28  8798  1                      TSEG  'Window '
 0006E6 4810 5002/1B00_      00002  8816  1                      TNUM  LH:WINDNO
1VIEW     (VIEW2025) (13:00) (15MAR04) SHOW VIEW Command                                                                    Page   12
0Current Usings:  (WIND,R5) (*,R7) (SHVWWA-(4+36),R8) (CP,R11) (CV,R12)
0Loc    Object Code    Addr1 Addr2  Stmt Lv Lineno    Source Statement           (Hibal 5, Asmedit 3.3)  HLASM R4.0  2004/03/15 13.00
+___    ______ ____    _____ _____  ____ __ ______    ______ _________
00006F6 4110 7ABD/4100_      00E2F  8837  1                      TSEG  ':  '
 000708 D501 5002 6AD6_00002 00AD6  8855  1                      IF    ('CLC WINDNO,CPVWCUR-CP(R6)',EQ),'TSEG "** Cur **"'
 000724 1B00/41F0 B050_             8891  1                      TCR
                                    8916  1
 000730 4110 C4D8/4100_      004D8  8917  1                      TSEG  CVBLANKS,11
 000742 4110 7936/4100_      00CA8  8947  1                      TSEG  'Active #'
 000754 5810 5014/1B00_      00014  8965  1                      TNUM  L:WINDACT
 000764 D503 5014 657C_00014 0057C  8987  1                      IF    ('CLC WINDACT,CPACTNO-CP(R6)',EQ),'TSEG " ** Cur **"'
 000780 1B00/41F0 B050_             9023  1                      TCR
                                    9048  1
 00078C 4110 C4D8/4100_      004D8  9049  1                      TSEG  CVBLANKS,11
 00079E 4110 7AC9/4100_      00E3B  9079  1                      TSEG  'First/Last='
 0007B0 58F0 5020            00020  9097  1                      L     R15,WINDFLNO
 0007B4 58E0 7982/0DEE       00CF4  9098  1                      ACALL VLNO
 0007BA 41F0 B050/58E0_      00050  9102  1                      TSEG  (R1),(R0)
 0007C4 4110 7AD4/4100_      00E46  9126  1                      TSEG  '/'
 0007D6 58F0 5024            00024  9144  1                      L     R15,WINDLLNO
 0007DA 58E0 7982/0DEE       00CF4  9145  1                      ACALL VLNO
 0007E0 41F0 B050/58E0_      00050  9149  1                      TSEG  (R1),(R0)
 0007EA 1B00/41F0 B050_             9173  1                      TCR
                                    9198  1
 0007F6 4110 C4D8/4100_      004D8  9199  1                      TSEG  CVBLANKS,11
 000808 4110 7A48/4100_      00DBA  9229  1                      TSEG  'Start/End='
 00081A 58F0 5018            00018  9247  1                      L     R15,WINDSLNO
 00081E 58E0 7982/0DEE       00CF4  9248  1                      ACALL VLNO
 000824 41F0 B050/58E0_      00050  9252  1                      TSEG  (R1),(R0)
 00082E 4110 7AD4/4100_      00E46  9276  1                      TSEG  '/'
 000840 58F0 501C            0001C  9294  1                      L     R15,WINDELNO
 000844 58E0 7982/0DEE       00CF4  9295  1                      ACALL VLNO
 00084A 41F0 B050/58E0_      00050  9299  1                      TSEG  (R1),(R0)
 000854 1B00/41F0 B050_             9323  1                      TCR
                                    9348  1
 000860 4110 C4D8/4100_      004D8  9349  1                      TSEG  CVBLANKS,11
 000872 4110 7A52/4100_      00DC4  9379  1                      TSEG  'Lines='
 000884 4810 5004/1B00_      00004  9397  1                      TNUM  LH:WINDTCNT
 000894 4110 7AD5/4100_      00E47  9418  1                      TSEG  ', text col='
 0008A6 4810 500A/1B00_      0000A  9436  1                      TNUM  LH:WINDTCOL
 0008B6 4110 7A58/4100_      00DCA  9457  1                      TSEG  ', text length='
 0008C8 4810 500C/1B00_      0000C  9475  1                      TNUM  LH:WINDTLEN
 0008D8 1B00/41F0 B050_             9496  1                      TCR
                                    9521  1
 0008E4 4110 C4D8/4100_      004D8  9522  1                      TSEG  CVBLANKS,11
 0008F6 4110 7AE0/4100_      00E52  9552  1                      TSEG  'First column-1='
 000908 4810 500E/1B00_      0000E  9570  1                      TNUM  LH:WINDFCOL
 000918 1B00/41F0 B050_             9591  1                      TCR
                                    9616  1
 000924 4110 C4D8/4100_      004D8  9617  1                      TSEG  CVBLANKS,11
 000936 4110 7A66/4100_      00DD8  9647  1                      TSEG  'Frow/Lrow='
 000948 4810 5006/1B00_      00006  9665  1                      TNUM  LH:WINDFROW
 000958 4110 7AAC/4100_      00E1E  9686  1                      TSEG  ','
 00096A 4810 5008/1B00_      00008  9704  1                      TNUM  LH:WINDLROW
 00097A 1B00/41F0 B050_             9725  1                      TCR
                                    9750  1
 000986 4110 C4D8/4100_      004D8  9751  1                      TSEG  CVBLANKS,11
1VIEW     (VIEW2025) (13:00) (15MAR04) SHOW VIEW Command                                                                    Page   13
0Current Usings:  (WIND,R5) (*,R7) (SHVWWA-(4+36),R8) (CP,R11) (CV,R12)
0Loc    Object Code    Addr1 Addr2  Stmt Lv Lineno    Source Statement           (Hibal 5, Asmedit 3.3)  HLASM R4.0  2004/03/15 13.00
+___    ______ ____    _____ _____  ____ __ ______    ______ _________
0000998 4110 7AEF/4100_      00E61  9781  1                      TSEG  'Indent='
 0009AA 4810 5010/1B00_      00010  9799  1                      TNUM  LH:WINDIND
 0009BA 4110 C4D8/4100_      004D8  9820  1                      TSEG  CVBLANKS,2
 0009CC 4110 7AF6/4100_      00E68  9850  1                      TSEG  'Margin='
 0009DE 4810 5012/1B00_      00012  9868  1                      TNUM  LH:WINDMARG
 0009EE 4110 C4D8/4100_      004D8  9889  1                      TSEG  CVBLANKS,2
                                    9919  1
 000A00 4110 7AFD/4100_      00E6F  9920  1                      SETMSG 'Tabs='
 000A08 4130 5030            00030  9924  1                      LA    R3,WINDTABS
 000A0C 4120 0010            00010  9925  1                      LA    R2,L'WINDTABS
 000A10                             9926  1                      LOOP  BEGIN
 000A10 9500 3000/4780_00000        9932  2                        IF    ('CLI @R3,0',EQ),EXIT  All done, scram
 000A18 41F0 B050/58E0_      00050  9948  2                        TSEG  (R1),(R0)
 000A22 1F11/4310 3000_             9972  2                        TNUM  LC:@R3              Display tab stop
 000A34 4110 7A70/4100_      00DE2  9999  2                        SETMSG ', '
                                   10003  2
 000A3C 4130 3001            00001 10004  2                        LA    R3,@R3+1
 000A40 0620                       10005  2                        DECR  R2
 000A42 1222/4780 76DA             10007  2                        UNTIL (R2,Z)
 000A48 47F0 769E            00A10 10025  1                      END
 000A4C 1B00/41F0 B050_            10030  1                      TCR
                                   10055  1
 000A58 9180 5000/47E0_00000       10056  1                      IF    WINFREWR,'TSEG "           Flag: Rewrite",,CR'
 000A72 9140 5000/47E0_00000       10094  1                      IF    WINFMOD,' TSEG "           Flag: Mods",,CR'
                                   10132  1
 000A8C 4150 5040            00040 10133  1                      LA    R5,WINDNEXT
 000A90 4140 4001            00001 10134  1                      LA    R4,@R4+1
                                   10135  1
 000A94 1B00/41F0 B050_            10136  1                      TCR
 000AA0 1B00/41F0 B050_            10161  1                      TCR
 000AAC 47F0 735A            006CC 10186                       END
 DROP   WIND,R5
                                   10196                       ¿þþþþþþþþþþþþþþþþþþþþþþþþþþþþþþþÜ
                                   10197                       Ÿ  Display each line's status.  Ÿ
                                   10198                       ¾þþþþþþþþþþþþþþþþþþþþþþþþþþþþþþþ»
 000AB0 4110 7B17/4100_      00E89 10199                       TSEG  'Wind Row Type   Flags      Lineno  Old-lineno',,CR
 000AC2 4110 7B44/4100_      00EB6 10217                       TSEG  '---- --- ----   -----      ------  ----------',,CR
                                   10235
 000AD4 4140 0001            00001 10236                       LA    R4,1
 000AD8 5856 0B60            00B60 10237                       L     R5,CPLINTP-CP(R6)
 000ADC 4946 0AD4/4730_      00AD4 10238                       WHILE ('CH R4,CPVHEI-CP(R6)',LE),BEGIN  Go through lines...
 USING  LINT,R5                    10253  1                      WITH  (LINT,R5)
                                   10266  1
 000AE4 4810 5002/4100_      00002 10267  1                      TNUM  LH:LINTWIND,4
 000AF6 4810 5000/4100_      00000 10291  1                      TNUM  LH:LINTROW,4
                                   10315  1
 000B08 4110 7B71/4100_      00EE3 10316  1                      SETMSG ' ??????'
 000B10 9500 500C/4770_0000C       10320  1                      IF    LINFFREE,'LA R1,=C" Free  "'
 000B1C 9501 500C/4770_0000C       10341  1                      IF    LINFNEW,' LA R1,=C" New   "'
 000B28 9502 500C/4770_0000C       10362  1                      IF    LINFTEXT,'LA R1,=C" Text  "'
 000B34 9503 500C/4770_0000C       10383  1                      IF    LINFCOL,' LA R1,=C" Col   "'
 000B40 9504 500C/4770_0000C       10404  1                      IF    LINFCMD,' LA R1,=C" Cmd   "'
 000B4C 9505 500C/4770_0000C       10425  1                      IF    LINFMSG,' LA R1,=C" Msg   "'
 000B58 9506 500C/4770_0000C       10446  1                      IF    LINFSTAT,'LA R1,=C" Status"'
1VIEW     (VIEW2025) (13:00) (15MAR04) SHOW VIEW Command                                                                    Page   14
0Current Usings:  (LINT,R5) (*,R7) (SHVWWA-(4+36),R8) (CP,R11) (CV,R12)
0Loc    Object Code    Addr1 Addr2  Stmt Lv Lineno    Source Statement           (Hibal 5, Asmedit 3.3)  HLASM R4.0  2004/03/15 13.00
+___    ______ ____    _____ _____  ____ __ ______    ______ _________
0000B64 41F0 B050/58E0_      00050 10467  1                      TSEG  (R1),(R0),B
                                   10491  1
 000B6E 1F11/4310 500D_            10492  1                      THEX  LC:LINTFLG,2
 000B82 4110 7AAC/4100_      00E1E 10522  1                      TSEG  ','
 000B94 1F11/4310 5008_            10540  1                      THEX  LC:LINTOFLG,2
 000BA8 4110 C4D8/4100_      004D8 10570  1                      TSEG  CVBLANKS,2
                                   10600  1
 000BBA 58F0 5010            00010 10601  1                      L     R15,LINTLNO
 000BBE 58E0 7982/0DEE       00CF4 10602  1                      ACALL VLNO
 000BC4 4110 BC88/4100_      00C88 10606  1                      TSEG  CPDOUB,9,B
                                   10636  1
 000BD6 58F0 5004            00004 10637  1                      L     R15,LINTOLNO
 000BDA 58E0 7982/0DEE       00CF4 10638  1                      ACALL VLNO
 000BE0 4110 BC88/4100_      00C88 10642  1                      TSEG  CPDOUB,9
                                   10672  1
 000BF2 1B00/41F0 B050_            10673  1                      TCR
                                   10698  1
 000BFE 4150 5014            00014 10699  1                      LA    R5,LINTNEXT
 000C02 4140 4001            00001 10700  1                      LA    R4,@R4+1
 000C06 47F0 776A            00ADC 10701                       END
 DROP   LINT,R5
                                   10711                       ¿þþþþþþþþþþþþþþþþþþþþÜ
                                   10712                       Ÿ  All done, scram.  Ÿ
                                   10713                       ¾þþþþþþþþþþþþþþþþþþþþ»
 000C0A 47F0 C7DE            007DE 10714                       B     CVNEXT
 000C0E 18D8/9808 D004_            10715                       PEND
 DROP   SHVWWA-(4+36),R8
 DROP   *,R7
1VIEW     (VIEW2025) (13:00) (15MAR04) SHOW VIEW Command                                                                    Page   15
0Current Usings:  (CP,R11) (CV,R12)
0Loc    Object Code    Addr1 Addr2  Stmt Lv Lineno    Source Statement           (Hibal 5, Asmedit 3.3)  HLASM R4.0  2004/03/15 13.00
+___    ______ ____    _____ _____  ____ __ ______    ______ _________
0                                  10741              ¿þþþþþþþþþþþþþþþþþþþþþþþþþþþþþþþþþþþþþþþþþþþþþþþþþþþþþþþþþþþþþþþþþþþþþÜ
                                   10742              Ÿ                                                                     Ÿ
                                   10743              Ÿ  VLNO -- Local routine to format line-number in R15.                Ÿ
                                   10744              Ÿ                                                                     Ÿ
                                                      ¾þþþþþþþþþþþþþþþþþþþþþþþþþþþþþþþþþþþþþþþþþþþþþþþþþþþþþþþþþþþþþþþþþþþþþ»
0000C1C 50E0 D000/9008_      00000 10745              VLNO     PROC
 USING  *,R7
 000C36 59F0 70CA/4770_      00D00 10784                       IF    (R15,EQ,-1),'LH R15,=H"-1000"'
 000C42 59F0 70CE/4770_      00D04 10806                       IF    (R15,EQ,-2),'LH R15,=H"-2000"'
 000C4E 59F0 70D2/4770_      00D08 10828                       IF    (R15,EQ,-3),'LH R15,=H"-3000"'
 000C5A 4100 0903/4110_      00903 10850                       BTR   CPDOUB,(9,3),(R15)
 000C68 58E0 70DA/0DEE       00D10 10872                       VCALL LRTRIM
 000C6E 9001 8004            00004 10876                       PRETURN (R0,R1)
 000C72 18D8/9808 D004_            10878                       PEND
 DROP   *,R7
                                   10898
                                   10899                       QLTORG
1VIEW     (VIEW2025) (13:00) (15MAR04) SHOW VIEW Command                                                                    Page   16
0Current Usings:  (CP,R11) (CV,R12)
0Loc    Object Code    Addr1 Addr2  Stmt Lv Lineno    Source Statement           (Hibal 5, Asmedit 3.3)  HLASM R4.0  2004/03/15 13.00
+___    ______ ____    _____ _____  ____ __ ______    ______ _________
0                                  10994              ¿þþþþþþþþþþþþþþþþþþþþþþþþþþþþþþþþþþþþþþþþþþþþþþþþþþþþþþþþþþþþþþþþþþþþþÜ
                                   10995              Ÿ                                                                     Ÿ
                                   10996              Ÿ  VTRC -- VIEW Trace Entry                                           Ÿ
                                   10997              Ÿ                                                                     Ÿ
                                                      ¾þþþþþþþþþþþþþþþþþþþþþþþþþþþþþþþþþþþþþþþþþþþþþþþþþþþþþþþþþþþþþþþþþþþþþ»
0000000                00000 0001A 10998              VTRC     RECORD BEGIN
 000000                            11006  1           VTRCSTRT   DS    CL4'VTRC'           Self identification
 000004                            11007  1           VTRCLINK   DS    A                   Next VTRC ptr (or zero)
 000008                            11008  1           VTRCCLCK   DS    D                   Time stamp
                                   11009  1
 000010                            11010  1           VTRCSNO    DS    H                   Session number
 000012                            11011  1           VTRCACCT   DS    CL5                 Session account (uuugg)
                                   11012  1
 000017 00                         11013  1           VTRCFLAG   FLAG
 VTRCFLAG.VTRCFOUT 80 ONES         11017  1                      FLAG  VTRCFOUT            - Terminal output text
 VTRCFLAG.VTRCFIN  40 ONES         11022  1                      FLAG  VTRCFIN             - Terminal input text
                                   11027  1
 000018                            11028  1           VTRCDLEN   DS    H                   Data length
                                   11029  1           VTRCHDR    EQU   VTRCSTRT,*-VTRCSTRT,C'X'
                                   11030  1
 00001A                            11031  1           VTRCDATA   DS    0X                  Data starts here (variable len)
 00001A                0001A 0001A 11032                       END
1VIEW     (VIEW2025) (13:00) (15MAR04) SHOW VIEW Command                                                                    Page   17
0Current Usings:  (CP,R11) (CV,R12)
0Loc    Object Code    Addr1 Addr2  Stmt Lv Lineno    Source Statement           (Hibal 5, Asmedit 3.3)  HLASM R4.0  2004/03/15 13.00
+___    ______ ____    _____ _____  ____ __ ______    ______ _________
0                                  11042              ¿þþþþþþþþþþþþþþþþþþþþþþþþþþþþþþþþþþþþþþþþþþþþþþþþþþþþþþþþþþþþþþþþþþþþþÜ
                                   11043              Ÿ                                                                     Ÿ
                                   11044              Ÿ  VIEWTRC -- Routine to queue a trace buffer for debugging (if       Ÿ
                                   11045              Ÿ    the user has set view tracing).                                  Ÿ
                                   11046              Ÿ                                                                     Ÿ
                                   11047              Ÿ    On entry:                                                        Ÿ
                                   11048              Ÿ      R1,R0 - data loc, len                                          Ÿ
                                   11049              Ÿ      R15 - type of trace:                                           Ÿ
                                   11050              Ÿ              0 - terminal output                                    Ÿ
                                   11051              Ÿ              1 - terminal input                                     Ÿ
                                   11052              Ÿ                                                                     Ÿ
                                                      ¾þþþþþþþþþþþþþþþþþþþþþþþþþþþþþþþþþþþþþþþþþþþþþþþþþþþþþþþþþþþþþþþþþþþþþ»
0000F1C 50E0 D000/9008_      00000 11053              VIEWTRC  XPROC
 USING  *,R7
                                   11093                       ¿þþþþþþþþþþþþþþþþþþþþþþþþþþþþþþþþþþþþþþþþþþþþþþþþþþþþþþÜ
                                   11094                       Ÿ  Only save the buffer if view tracing is requested.  Ÿ
                                   11095                       ¾þþþþþþþþþþþþþþþþþþþþþþþþþþþþþþþþþþþþþþþþþþþþþþþþþþþþþþ»
 000F36 9120 BACA/47E0_00ACA       11096                       IF    CPVFTRC,BEGIN       View tracing...
 000F3E 185F                       11111  1                      LR    R5,R15
 000F40 1841                       11112  1                      LR    R4,R1
 000F42 1830                       11113  1                      LR    R3,R0
                                   11114  1
 000F44 4A00 73CE            01304 11115  1                      AH    R0,=AL2(L'VTRCHDR)  Get a new trace buffer
                                   11116  1           *        GETMAIN R,LV=(0)
 000F48 58E0 738A/0DEE       012C0 11117  1                      VCALL GETCORE
 000F4E 1861                       11121  1                      LR    R6,R1
 USING  VTRC,R6                    11122  1                      WITH  (VTRC,R6)
 000F50 D719 6000 6000 00000 00000 11135  1                      CLEAR VTRCHDR
 000F56 D203 6000 738E 00000 012C4 11142  1                      MVC   VTRC(4),=C'VTRC'    Set self-identification
 000F5C D203 6004 C2A4 00004 002A4 11143  1                      MVC   VTRCLINK,CVVTRCP    Set our queue link ptr
 000F62 58E0 7392/0DEE       012C8 11144  1                      VCALL LOCALTOD            Time stamp
 000F68 9001 6008            00008 11148  1                      STM   R0,R1,VTRCCLCK
                                   11149  1
 000F6C 5950 7396/4770_      012CC 11150  1                      IF    (R5,EQ,0),'SET VTRCFOUT'  Terminal output buffer
 000F78 5950 739A/4770_      012D0 11178  1                      IF    (R5,EQ,1),'SET VTRCFIN'  Terminal input buffer
                                   11206  1
 000F84 58F0 C1C8            001C8 11207  1                      L     R15,CVCURJCB
 000F88 D201 6010 F048 00010 00048 11208  1                      WITH  (JCB,R15),'MVC VTRCSNO,JCBSEQ'  Save session number
 USING  JCB,R15
 DROP   JCB,R15
 000F8E D204 6012 B3B4 00012 003B4 11232  1                      MVC   VTRCACCT,CPSACCT    Save account
                                   11233  1
 000F94 4030 6018            00018 11234  1                      STH   R3,VTRCDLEN         Save data length
 000F98 41E0 601A/18F3_      0001A 11235  1                      MOVEL VTRCDATA,(R4),(R3)  Save data
                                   11255  1                      ¿þþþþþþþþþþþþþþþþþþþþþþþþþþþþþþþþþþþþþþþÜ
                                   11256  1                      Ÿ  Now link this new view trace entry.  Ÿ
                                   11257  1                      ¾þþþþþþþþþþþþþþþþþþþþþþþþþþþþþþþþþþþþþþþ»
 000FA4 5060 C2A4            002A4 11258  1                      ST    R6,CVVTRCP          Set new view trace queue head
                                   11259  1
 000FA8 41F0 0001/4AF0_      00001 11260  1                      INCR  R15,CVVNTRC         Keep count of number of entries
1VIEW     (VIEW2025) (13:00) (15MAR04) SHOW VIEW Command                                                                    Page   18
0Current Usings:  (VTRC,R6) (*,R7) (CP,R11) (CV,R12)
0Loc    Object Code    Addr1 Addr2  Stmt Lv Lineno    Source Statement           (Hibal 5, Asmedit 3.3)  HLASM R4.0  2004/03/15 13.00
+___    ______ ____    _____ _____  ____ __ ______    ______ _________
0                                  11266  1                      ¿þþþþþþþþþþþþþþþþþþþþþþþþÜ
                                   11267  1                      Ÿ  Free oldest entries.  Ÿ
                                   11268  1                      ¾þþþþþþþþþþþþþþþþþþþþþþþþ»
 000FB4 D501 73D0 C2A8_01306 002A8 11269  1                      WHILE (CVVNTRC,GT,=Y(CVVTRC#)),'CLEAR R1; ACALL FREEVTRC'
 DROP   VTRC,R6                    11302                       END
 000FCA 18D8/9808 D004_            11311                       PEND
 DROP   *,R7
1VIEW     (VIEW2025) (13:00) (15MAR04) SHOW VIEW Command                                                                    Page   19
0Current Usings:  (CP,R11) (CV,R12)
0Loc    Object Code    Addr1 Addr2  Stmt Lv Lineno    Source Statement           (Hibal 5, Asmedit 3.3)  HLASM R4.0  2004/03/15 13.00
+___    ______ ____    _____ _____  ____ __ ______    ______ _________
0                                  11332              ¿þþþþþþþþþþþþþþþþþþþþþþþþþþþþþþþþþþþþþþþþþþþþþþþþþþþþþþþþþþþþþþþþþþþþþÜ
                                   11333              Ÿ                                                                     Ÿ
                                   11334              Ÿ  FREEVTRC -- Routine to free a trace entry.                         Ÿ
                                   11335              Ÿ                                                                     Ÿ
                                   11336              Ÿ    On entry:                                                        Ÿ
                                   11337              Ÿ      R1 - VTRC ptr of entry to free;                                Ÿ
                                   11338              Ÿ             or zero to free last (oldest) entry.                    Ÿ
                                   11339              Ÿ                                                                     Ÿ
                                   11340              Ÿ    On exit, R15 (and cc):                                           Ÿ
                                   11341              Ÿ      0 - no entries left in trace queue                             Ÿ
                                   11342              Ÿ      nz- there are still entries in the trace queue                 Ÿ
                                   11343              Ÿ                                                                     Ÿ
                                                      ¾þþþþþþþþþþþþþþþþþþþþþþþþþþþþþþþþþþþþþþþþþþþþþþþþþþþþþþþþþþþþþþþþþþþþþ»
0000FD8 50E0 D000/9008_      00000 11344              FREEVTRC XPROC
 USING  *,R7
 000FF2 1861                       11384                       LR    R6,R1               VTRC ptr
                                   11385                       ¿þþþþþþþþþþþþþþþþþþþþþþþþþþþþþþþþþþþþþþþþþþþþþþþþþþþþþþþþþþþþþÜ
                                   11386                       Ÿ  Find the previous VTRC entry so we can unlink this entry.  Ÿ
                                   11387                       ¾þþþþþþþþþþþþþþþþþþþþþþþþþþþþþþþþþþþþþþþþþþþþþþþþþþþþþþþþþþþþþ»
 000FF4 1B55                       11388                       CLEAR R5                  Previous entry ptr
 000FF6 58F0 C2A4/12FF       002A4 11392                       LT    R15,CVVTRCP         First entry ptr
 000FFC 4770 7026/900F_      01018 11396                       FAIL  Z,VTRCERR1,'Free VTRC logic error.'
                                   11419
 001018                            11420                       LOOP  BEGIN               Go through VTRC entries...
 USING  VTRC,R15                   11426  1                      WITH  (VTRC,R15)
                                   11439  1
 001018 1266/4770 703C_            11440  1                      IF    ((R6,Z),AND,(VTRCLINK,Z)),BEGIN  Free last entry...
 001028 186F                       11469  2                        LR    R6,R15              Set current ptr to last entry
 00102A 47F0 706A            0105C 11470  2                        B     FVTRCOM
 00102E                            11471  1                      END
                                   11475  1
 00102E 196F/4780 706A             11476  1                      IF    (R6,EQ,R15),FVTRCOM  Matched the entry, scram
                                   11494  1
 001034 185F                       11495  1                      LR    R5,R15              Save previous entry ptr
 001036 58F0 F004/12FF       00004 11496  1                      LT    R15,VTRCLINK        Next VTRC entry
 00103C 4770 7066/900F_      01058 11500  1                      FAIL  Z,VTRCERR2,'Free VTRC logic error.'
 001058 47F0 7026            01018 11523                       END
 DROP   VTRC,R15
                                   11533                       ¿þþþþþþþþþþþþþþþþþþþþþþþþþþþÜ
                                   11534                       Ÿ  Dequeue our VTRC entry.  Ÿ
                                   11535                       ¾þþþþþþþþþþþþþþþþþþþþþþþþþþþ»
 00105C 1255/4770 7076             11536              FVTRCOM  IF    (R5,Z),BEGIN        We are removing the 1st entry...
 001062 D203 C2A4 6004 002A4 00004 11551  1                      MVC   CVVTRCP,VTRCLINK-VTRC(R6)  Set new queue head
 001068                            11552                       END
                                   11556
 001068 707A/47F0 70A2 01068 01060 11557                       ELSE  BEGIN               Dequeue...
 USING  VTRC,R5                    11568  1                      WITH  (VTRC,R5)
 00106C D503 72D2 5000_012C4 00000 11581  1                      FAIL  (VTRC,NE,'VTRC'),VTRCERR3,'Free VTRC logic error.'
 00108E D203 5004 6004 00004 00004 11610  1                      MVC   VTRCLINK,VTRCLINK-VTRC(R6)  Dequeue our entry
 DROP   VTRC,R5                    11611                       END
1VIEW     (VIEW2025) (13:00) (15MAR04) SHOW VIEW Command                                                                    Page   20
0Current Usings:  (*,R7) (CP,R11) (CV,R12)
0Loc    Object Code    Addr1 Addr2  Stmt Lv Lineno    Source Statement           (Hibal 5, Asmedit 3.3)  HLASM R4.0  2004/03/15 13.00
+___    ______ ____    _____ _____  ____ __ ______    ______ _________
0                                  11620                       ¿þþþþþþþþþþþþþþþþþþþþþþþþÜ
                                   11621                       Ÿ  Free the VTRC entry.  Ÿ
                                   11622                       ¾þþþþþþþþþþþþþþþþþþþþþþþþ»
 USING  VTRC,R6                    11623                       WITH  (VTRC,R6),BEGIN
 001094 D503 72D2 6000_012C4 00000 11637  1                      FAIL  (VTRC,NE,'VTRC'),VTRCERR4,'Free VTRC logic error.'
 0010B6 D203 6000 72E6 00000 012D8 11666  1                      MVC   VTRC(4),=C'OVTR'    Neatness
 0010BC D203 6004 72EA 00004 012DC 11667  1                      MVC   VTRCLINK,=F'-1'     (Ditto)
                                   11668  1
 0010C2 4110 6000            00000 11669  1                      LA    R1,VTRC
 0010C6 4100 001A            0001A 11670  1                      LA    R0,L'VTRCHDR        VTRC header...
 0010CA 4A00 6018            00018 11671  1                      AH    R0,VTRCDLEN         ...plus buffer (variable length)
                                   11672  1           *        FREEMAIN R,A=(1),LV=(0)
 0010CE 58E0 72EE/0DEE       012E0 11673  1                      VCALL FREECORE
                                   11677  1
 0010D4 48F0 C2A8/06F0_      002A8 11678  1                      DECR  R15,CVVNTRC         Decrement number of trace entries
 DROP   VTRC,R6                    11683                       END
                                   11691
 0010DE 58F0 C2A4            002A4 11692                       L     R15,CVVTRCP         Set CC for caller
 0010E2 18D8/9808 D004_            11693                       PEND
 DROP   *,R7
1VIEW     (VIEW2025) (13:00) (15MAR04) SHOW VIEW Command                                                                    Page   21
0Current Usings:  (CP,R11) (CV,R12)
0Loc    Object Code    Addr1 Addr2  Stmt Lv Lineno    Source Statement           (Hibal 5, Asmedit 3.3)  HLASM R4.0  2004/03/15 13.00
+___    ______ ____    _____ _____  ____ __ ______    ______ _________
0                                  11714              ¿þþþþþþþþþþþþþþþþþþþþþþþþþþþþþþþþþþþþþþþþþþþþþþþþþþþþþþþþþþþþþþþþþþþþþÜ
                                   11715              Ÿ                                                                     Ÿ
                                   11716              Ÿ  SHVWTRC -- SHOW VIEW TRACE Routine.                                Ÿ
                                   11717              Ÿ                                                                     Ÿ
                                                      ¾þþþþþþþþþþþþþþþþþþþþþþþþþþþþþþþþþþþþþþþþþþþþþþþþþþþþþþþþþþþþþþþþþþþþþ»
00010F0 50E0 D000/9008_      00000 11718              SHVWTRC  XPROC
 USING  *,R7
 00110A 9120 B3BE/4710_003BE       11758                       IF    ~CPSFSPR,'VCALL NOTVALID'   Priv'd
                                   11782                       ¿þþþþþþþþþþþþþþþÜ
                                   11783                       Ÿ  Title line.  Ÿ
                                   11784                       ¾þþþþþþþþþþþþþþþ»
 001118 D603 C2A4 C2A4_002A4 002A4 11785                       IF    (CVVTRCP,Z),BEGIN   No trace entries...
 001122 4110 721A/4100_      01324 11801  1                      SETMSG 'View buffer trace table is empty.'
 00112A 47F0 C7D0            007D0 11805  1                      B     CVNXTMSG
 00112E                            11806                       END
                                   11810
 00112E 4110 723B/4100_      01345 11811                       TSEG  'View buffer trace',,CR
                                   11829                       ¿þþþþþþþþþþþþþþþþþþþþþþþþþþþþþþþþþþþþþþþÜ
                                   11830                       Ÿ  Step through the trace entry queue.  Ÿ
                                   11831                       ¾þþþþþþþþþþþþþþþþþþþþþþþþþþþþþþþþþþþþþþþ»
 001140 4160 C2A0            002A0 11832                       LA    R6,CVVTRCP-(VTRCLINK-VTRC)  Dummy first link
 001144                            11833                       LOOP  BEGIN
 USING  VTRC,R6                    11839  1                      WITH  (VTRC,R6)
 001144 5860 6004/1266_      00004 11852  1                      WHILE ('LT R6,VTRCLINK',NZ)  Go through buffers...
 00114E 4110 724C/4100_      01356 11869  1                      TSEG  '-----------------',,CR
 001160 1B00/41F0 B050_            11887  1                      TCR
                                   11912  1                      ¿þþþþþþþþþþþþþþþþþþþþþþþþþþþÜ
                                   11913  1                      Ÿ  Format the trace entry.  Ÿ
                                   11914  1                      ¾þþþþþþþþþþþþþþþþþþþþþþþþþþþ»
 00116C D503 71BA 6000_012C4 00000 11915  1                      IF    (VTRC,NE,'VTRC'),BEGIN  Shucks...
 001176 4110 71FE/4100_      01308 11932  2                        SETMSG 'Bad trace entry queue!'
 00117E 47F0 C7D0            007D0 11936  2                        B     CVNXTMSG
 001182                            11937  1                      END
                                   11941  1
 001182 9801 6008            00008 11942  1                      LM    R0,R1,VTRCCLCK      Get time stamp
 001186 18FD/41D0 D00C             11943  1                      XPUSH ,,11,PTR=R15
 00118C 58E0 71E2/0DEE       012EC 11946  1                      VCALL FMTTIME             Get "hh:mm:ss.th"
 001192 41F0 B050/58E0_      00050 11950  1                      TSEG  (R1),(R0),B
 00119C 4110 725D/4100_      01367 11974  1                      TSEG  'Line '
 0011AE 4810 6010/4100_      00010 11992  1                      TNUM  LH:VTRCSNO,3        Session number
 0011C0 4110 C4D8/4100_      004D8 12016  1                      TSEG  CVBLANKS,1
 0011D2 4110 6015/4100_      00015 12046  1                      TSEG  VTRCACCT+3,2        gg
 0011E4 4110 7262/4100_      0136C 12076  1                      TSEG  '.'
 0011F6 4110 6012/4100_      00012 12094  1                      TSEG  VTRCACCT,3          uuu
                                   12124  1
 001208 4110 7214/4100_      0131E 12125  1                      SETMSG '  ??? '
 001210 9180 6017/47E0_00017       12129  1                      IF    VTRCFOUT,'SETMSG "  OUTPUT "'
 001220 9140 6017/47E0_00017       12153  1                      IF    VTRCFIN,'SETMSG "  INPUT "'
 001230 41F0 B050/58E0_      00050 12177  1                      TSEG  (R1),(R0)
                                   12201  1
 00123A 4110 726C/4100_      01376 12202  1                      TSEG  '('
 00124C 4810 6018/1B00_      00018 12220  1                      TNUM  LH:VTRCDLEN
 00125C 4110 726D/4100_      01377 12241  1                      TSEG  ' chars)',,CR
1VIEW     (VIEW2025) (13:00) (15MAR04) SHOW VIEW Command                                                                    Page   22
0Current Usings:  (VTRC,R6) (*,R7) (CP,R11) (CV,R12)
0Loc    Object Code    Addr1 Addr2  Stmt Lv Lineno    Source Statement           (Hibal 5, Asmedit 3.3)  HLASM R4.0  2004/03/15 13.00
+___    ______ ____    _____ _____  ____ __ ______    ______ _________
000126E 1B00/41F0 B050_            12259  1                      TCR
                                   12284  1
 00127A 4110 601A/4800_      0001A 12285  1                      SETMSG VTRCDATA,LH:VTRCDLEN
 001282 41F0 0002            00002 12298  1                      LA    R15,2
 001286 5820 71F2            012FC 12299  1                      L     R2,=A(X'273B')      Break on ESC, CSI
 00128A 58E0 71F6/0DEE       01300 12300  1                      VCALL ESCFMT              Display buffer text
 001290 1B00/41F0 B050_            12304  1                      TCR
 00129C 47F0 703A            01144 12329                       END
 DROP   VTRC,R6
                                   12339
 0012A0 47F0 C7DE            007DE 12340                       B     CVNEXT
 0012A4 18D8/9808 D004_            12341                       PEND
 DROP   *,R7
1VIEW     (VIEW2025) (13:00) (15MAR04) SHOW VIEW Command                                                                    Page   23
0Current Usings:  (CP,R11) (CV,R12)
0Loc    Object Code    Addr1 Addr2  Stmt Lv Lineno    Source Statement           (Hibal 5, Asmedit 3.3)  HLASM R4.0  2004/03/15 13.00
+___    ______ ____    _____ _____  ____ __ ______    ______ _________
0                                  12362                       QLTORG
1VIEW     (VIEW2025) (13:00) (15MAR04) VIEW Command                                                                         Page   24
0Current Usings:  (CP,R11) (CV,R12)
0Loc    Object Code    Addr1 Addr2  Stmt Lv Lineno    Source Statement           (Hibal 5, Asmedit 3.3)  HLASM R4.0  2004/03/15 13.00
+___    ______ ____    _____ _____  ____ __ ______    ______ _________
0                                  12405              ¿þþþþþþþþþþþþþþþþþþþþþþþþþþþþþþþþþþþþþþþþþþþþþþþþþþþþþþþþþþþþþþþþþþþþþÜ
                                   12406              Ÿ                                                                     Ÿ
                                   12407              Ÿ  VIEW -- VIEW Command.                                              Ÿ
                                   12408              Ÿ                                                                     Ÿ
                                                      ¾þþþþþþþþþþþþþþþþþþþþþþþþþþþþþþþþþþþþþþþþþþþþþþþþþþþþþþþþþþþþþþþþþþþþþ»
000137E 50E0 D000/9008_      00000 12409              VIEW     XPROC
 USING  *,R7
                                   12449                       ¿þþþþþþþþþþþþþþþþþþþþþþþþþþþþÜ
                                   12450                       Ÿ  Check out terminal type.  Ÿ
                                   12451                       ¾þþþþþþþþþþþþþþþþþþþþþþþþþþþþ»
 001398 58E0 7E30/0DEE       021C8 12452                       VCALL PAGETCHK            Make sure the terminal is ok
                                   12456
 00139E 5810 B08C/1B00_      0008C 12457                       SCAN  VIEWPRTC            Look for options
 0013F0 58E0 7E3C/0DEE       021D4 12489                       SCANCHK
 0013F6 59F0 7E40/4780_      021D8 12494                       IF    (R15,EQ,4),VUNREC
                                   12514
 0013FE 9118 BD55/4780_00D55       12515                       IF    CPFCLEAR+CPFKEEP,'VCALL CLRTEXT'
                                   12542
 00140C 9680 BAC8/9680_00AC8       12543                       SET   CPVFPAGE,CPVFCLR
                                   12553
 001414 58F0 C1C8            001C8 12554                       L     R15,CVCURJCB
 001418 9680 F065      00065       12555                       WITH  (JCB,R15),'SET JCBSFV'  At least one VIEW issued
 USING  JCB,R15
 DROP   JCB,R15
 00141C 58E0 7E48/0DEE       021E0 12584                       VCALL PAGECMD             Back to page mode
 001422 47F0 C7DE            007DE 12588                       B     CVNEXT              (No return)
                                   12589                       ¿þþþþþþþþþþþþþþþþþþþþþþþÜ
                                   12590                       Ÿ  Process view range.  Ÿ
                                   12591                       ¾þþþþþþþþþþþþþþþþþþþþþþþ»
 001426 9118 BD55/4780_00D55       12592              VUNREC   IF    CPFCLEAR+CPFKEEP,BEGIN     Invalid option
 00142E 58E0 7E4C/0DEE       021E4 12611  1                      VCALL NOTVALID
 001434                            12615                       END
 001434 58E0 B08C/58FE_      0008C 12619                       SCBKUP
 00146A 94FB BACA      00ACA       12675                       CLEAR CPVFFORMAT          Default is UNFORMATTED
 00146E 9610 BD50      00D50       12682                       SET   CPLFLG1.CPFALL      All is the default range
 001472 58E0 7E50/0DEE       021E8 12689                       VCALL NDETRNG             Scan range
 001478 5810 B08C/1B00_      0008C 12693                       SCAN  VIEWPRT             Scan for command options
                                   12725
 0014CA 9140 BD88/47E0_00D88       12726                       IF    CPFSTRRG,BEGIN      String range...
 0014D2 9640 BAC9      00AC9       12741  1                      SET   CPVFREWR            Write all lines (for highlighting)
 0014D6                            12747                       END
                                   12751
 0014D6 9180 BAC8/4710_00AC8       12752                       IF    ~CPVFPAGE,BEGIN     Re-write the screen...
 0014DE 58E0 7E58/0DEE       021F0 12767  1                      VCALL PAGECLR             Forget the previous screen
 0014E4 9680 BAC9      00AC9       12771  1                      SET   CPVFCLR             Screen needs to be rewritten
 0014E8                            12777                       END
                                   12781
 0014E8 5800 7E5C/5810_      021F4 12782                       RDRNG VIEWRNG,(DESNRTN+LOCATRTN+UNPRST) NO RETURN
 0014F6 0000                       12789                       BOMB  ,                   WOW, NO RETURN
                                   12791
 0014F8 18D8/9808 D004_            12792                       PEND
 DROP   *,R7
1VIEW     (VIEW2025) (13:00) (15MAR04) VIEW Command                                                                         Page   25
0Current Usings:  (CP,R11) (CV,R12)
0Loc    Object Code    Addr1 Addr2  Stmt Lv Lineno    Source Statement           (Hibal 5, Asmedit 3.3)  HLASM R4.0  2004/03/15 13.00
+___    ______ ____    _____ _____  ____ __ ______    ______ _________
0                                  12813              *
 001508 4040404040404040_          12814              VIEWPRT  SCKW  ,VIEWPSH,PUSH
 001530 4040404040404040_          12829                       SCKW  ,V(NOTVALID)
                                   12844
 001558 4040404040404040_          12845              VIEWPRTC SCKW  ,VIEWPSH,PUSH
 001580 4040404040404040_          12860                       SCKW  ,V(CLRPSH),PUSH
 0015A8 4040404040404040_          12875                       SCKW  ,VWUNREC
                                   12890
 0015D0 50E0 D000/9008_      00000 12891              VWUNREC  PROC
 USING  *,R7
 0015EA 41F0 0004            00004 12930                       LA    R15,4
 0015EE 18D8/9808 D004_            12931                       PEND
 DROP   *,R7
                                   12951              *
                                   12952              *
 0015FC 50E0 D000/9008_      00000 12953              VIEWPSH  PUSHRTN VIEWKWS
 USING  *,R7
 DROP   *,R7
                                   13020
 001634 C8C5C9C7C8E34040_          13021              VIEWKWS  SCKW  HEIGHT,VHEIGHT,(P,I,A),80 !!! THIS IS LINTMAX#
 00165C E6C9C4E3C8404040_          13036                       SCKW  WIDTH,VWIDTH,(P,I,A),&LINESZ
 001684 C9D5E2C5D9E34040_          13051                       SCKW  INSERT,VINS,A
 0016AC D5D6C9D5E2C5D9E3_          13066                       SCKW  NOINSERT,VNOINS,A
 0016D4 D4C1D9C7C9D54040_          13081                       SCKW  MARGIN,VMARGIN,(A,P,PI),&LINESZ
 0016FC C9D5C4C5D5E34040_          13096                       SCKW  INDENT,VINDENT,A
 001724 D5D6C9D5C4C5D5E3_          13111                       SCKW  NOINDENT,VNOIND,A
 00174C E4D5D5E4D4C2C5D9_          13126                       SCKW  UNNUMBERED,VUNN,A
 001774 D5E4D4C2C5D9C5C4_          13141                       SCKW  NUMBERED,VNUM,A
 00179C C6D6D9D4C1E3E3C5_          13156                       SCKW  FORMATTED,VFORMAT,A
 0017C4 E4D5C6D6D9D4C1E3_          13171                       SCKW  UNFORMATTED,VUNFMT,A
 0017EC E6D9C1D740404040_          13186                       SCKW  WRAP,VWRAP,A
 001814 D5D6E6D9C1D74040_          13201                       SCKW  NOWRAP,VNOWRAP,A
 00183C E2D7C5D3D3404040_          13216                       SCKW  SPELL,VSPELL,A
 001864 D5D6E2D7C5D3D340_          13231                       SCKW  NOSPELL,VNOSPELL,A
 00188C D7D9C5D740404040_          13246                       SCKW  PREP,VPREP
 0018B4 D7D9C5D7C1D9C540_          13261                       SCKW  PREPARE,VPREP
 0018DC D5D6D7D9C5D7C1D9_          13276                       SCKW  NOPREPARE,VNOPREP,A
 001904 D9C5E2C5E3404040_          13291                       SCKW  RESET,VRESET,A
 00192C D4E4D3E3C9D7D3C5_          13306                       SCKW  MULTIPLE,VMULT,A
 001954 E3D9C1C3C5404040_          13321                       SCKW  TRACE,VTRACE,A
 00197C D5D6E3D9C1C3C540_          13336                       SCKW  NOTRACE,VNOTRACE,A
 0019A4 E3C3D3C5C1D94040_          13351                       SCKW  TCLEAR,VTCLEAR,A
 0019CC C4C5C2E4C7404040_          13366                       SCKW  DEBUG,VDEBUG,A
 0019F4 D5D6C4C5C2E4C740_          13381                       SCKW  NODEBUG,VNODEBUG,A
 001A1C 4040404040404040_          13396                       SCKW  ,,END
                                   13411
 001A44 50E0 D000/9008_      00000 13412              VHEIGHT  PROC
 USING  *,R7
 001A5E 4900 BAD4/4780_      00AD4 13451                       IF    (R0,NE,CPVHEI),BEGIN  Changing heights...
 001A66 1840                       13468  1                      LR    R4,R0               New height
 001A68 183D/41D0 D100             13469  1                      XPUSH ,,256,PTR=R3
 001A6E 1813/4100 0100             13472  1                      SETMSG (R3),256            Working view info area
 001A74 58E0 77AA/0DEE       02208 13486  1                      VCALL GETVINFO            Get current view info
 001A7A 9001 D000/41D0_      00000 13490  1                      XPUSH R0,R1               Save view info message ptrs
1VIEW     (VIEW2025) (13:00) (15MAR04) VIEW Command                                                                         Page   26
0Current Usings:  (*,R7) (CP,R11) (CV,R12)
0Loc    Object Code    Addr1 Addr2  Stmt Lv Lineno    Source Statement           (Hibal 5, Asmedit 3.3)  HLASM R4.0  2004/03/15 13.00
+___    ______ ____    _____ _____  ____ __ ______    ______ _________
0                                  13493  1
 001A82 4040 BAD4            00AD4 13494  1                      STH   R4,CPVHEI           Set new height
 001A86 58E0 77AE/0DEE       0220C 13495  1                      VCALL PAGEINIT            Re-initialize page
                                   13499  1
 001A8C 4BD0 77D4/9801_      02232 13500  1                      XPOP  R0,R1               Restore view info ptrs
 001A94 58E0 77B2/0DEE       02210 13503  1                      VCALL SETVINFO            Set view info
 001A9A 4BD0 77D6            02234 13507  1                      XPOP  ,,256               Neatness
 001A9E                            13509                       END
                                   13513
 001A9E 1BFF                       13514                       CLEAR R15
 001AA0 18D8/9808 D004_            13518                       PEND
 DROP   *,R7
                                   13538
 001AAE 50E0 D000/9008_      00000 13539              VWIDTH   PROC
 USING  *,R7
 001AC8 9180 BACB/47E0_00ACB       13578                       IF    CPVFVTAM,'DECR R0'  VTAM width is actual-1
                                   13600
 001AD2 4900 BAD2/4780_      00AD2 13601                       IF    (R0,NE,CPVWID),'STH R0,CPVWID; VCALL CALCDIM'
 001AE4 1BFF                       13628                       CLEAR R15
 001AE6 18D8/9808 D004_            13632                       PEND
 DROP   *,R7
                                   13652
 001AF4 50E0 D000/9008_      00000 13653              VINS     PROC
 USING  *,R7
 001B0E 9601 BACC      00ACC       13692                       SET   CPVFINS
 001B12 18D8/9808 D004_            13698                       PEND
 DROP   *,R7
                                   13718
 001B20 50E0 D000/9008_      00000 13719              VNOINS   PROC
 USING  *,R7
 001B3A 94FE BACC      00ACC       13758                       CLEAR CPVFINS
 001B3E 18D8/9808 D004_            13765                       PEND
 DROP   *,R7
                                   13785
 001B4C 50E0 D000/9008_      00000 13786              VMARGIN  PROC
 USING  *,R7
 001B66 4900 BB52/4780_      00B52 13825                       IF    (R0,NE,CPVMARG),'STH R0,CPVMARG; VCALL PAGEINIT'
 001B78 1BFF                       13852                       CLEAR R15
 001B7A 18D8/9808 D004_            13856                       PEND
 DROP   *,R7
                                   13876
 001B88 50E0 D000/9008_      00000 13877              VINDENT  PROC
 USING  *,R7
 001BA2 1B33                       13916                       CLEAR R3
 001BA4 5810 B08C/1B00_      0008C 13920                       SCAN  INDPRT              Look for options
 001BF6 58E0 7632/0DEE       021D4 13952                       SCANCHK
 001BFC 1803                       13957                       LR    R0,R3
 001BFE 4900 BB50/4780_      00B50 13958                       IF    (R0,NE,CPVIND),'STH R0,CPVIND; VCALL PAGEINIT'
 001C10 1BFF                       13985                       CLEAR R15
 001C12 18D8/9808 D004_            13989                       PEND
 DROP   *,R7
                                   14009
 001C20 4040404040404040_          14010              INDPRT   SCKW  ,VINDNULL,NULL
 001C48 C1E4E3D640404040_          14025                       SCKW  AUTO,VINDAUTO,A
1VIEW     (VIEW2025) (13:00) (15MAR04) VIEW Command                                                                         Page   27
0Current Usings:  (CP,R11) (CV,R12)
0Loc    Object Code    Addr1 Addr2  Stmt Lv Lineno    Source Statement           (Hibal 5, Asmedit 3.3)  HLASM R4.0  2004/03/15 13.00
+___    ______ ____    _____ _____  ____ __ ______    ______ _________
0001C70 4040404040404040_          14040                       SCKW  ,VINDNUM,I
 001C98 4040404040404040_          14055                       SCKW  ,V(NOTVALID)
                                   14070
 001CC0 50E0 D000/9008_      00000 14071              VINDAUTO PROC
 USING  *,R7
 001CDA 5830 7542            0221C 14110                       L     R3,=F'-1'
 001CDE 5038 0010            00010 14111                       PRETURN (R3)
 001CE2 41F0 0004            00004 14113                       LA    R15,4
 001CE6 18D8/9808 D004_            14114                       PEND
 DROP   *,R7
                                   14134
 001CF4 50E0 D000/9008_      00000 14135              VINDNUM  PROC
 USING  *,R7
 001D0E 1830                       14174                       LR    R3,R0
 001D10 5038 0010            00010 14175                       PRETURN (R3)
 001D14 41F0 0004            00004 14177                       LA    R15,4
 001D18 18D8/9808 D004_            14178                       PEND
 DROP   *,R7
                                   14198
 001D26 50E0 D000/9008_      00000 14199              VINDNULL PROC
 USING  *,R7
 001D40 4110 7470/4100_      021B0 14238                       ERROR 'Indent: missing operand.'
 001D4C 18D8/9808 D004_            14245                       PEND
 DROP   *,R7
                                   14265
 001D5A 50E0 D000/9008_      00000 14266              VNOIND   PROC
 USING  *,R7
 001D74 D601 BB50 BB50_00B50 00B50 14305                       IF    (CPVIND,NZ),'CLEAR CPVIND; VCALL PAGEINIT'
 001D8A 1BFF                       14337                       CLEAR R15
 001D8C 18D8/9808 D004_            14341                       PEND
 DROP   *,R7
                                   14361
 001D9A 50E0 D000/9008_      00000 14362              VUNN     PROC
 USING  *,R7
 001DB4 9140 BACA/4710_00ACA       14401                       IF    ~CPVFUNN,'SET CPVFUNN; VCALL PAGEINIT'
 001DC6 1BFF                       14431                       CLEAR R15
 001DC8 18D8/9808 D004_            14435                       PEND
 DROP   *,R7
                                   14455
 001DD6 50E0 D000/9008_      00000 14456              VNUM     PROC
 USING  *,R7
 001DF0 9140 BACA/47E0_00ACA       14495                       IF    CPVFUNN,'CLEAR CPVFUNN; VCALL PAGEINIT'
 001E02 1BFF                       14526                       CLEAR R15
 001E04 18D8/9808 D004_            14530                       PEND
 DROP   *,R7
                                   14550
 001E12 50E0 D000/9008_      00000 14551              VFORMAT  PROC
 USING  *,R7
 001E2C 9604 BACA      00ACA       14590                       SET   CPVFFORMAT
 001E30 18D8/9808 D004_            14596                       PEND
 DROP   *,R7
                                   14616
 001E3E 50E0 D000/9008_      00000 14617              VUNFMT   PROC
 USING  *,R7
1VIEW     (VIEW2025) (13:00) (15MAR04) VIEW Command                                                                         Page   28
0Current Usings:  (*,R7) (CP,R11) (CV,R12)
0Loc    Object Code    Addr1 Addr2  Stmt Lv Lineno    Source Statement           (Hibal 5, Asmedit 3.3)  HLASM R4.0  2004/03/15 13.00
+___    ______ ____    _____ _____  ____ __ ______    ______ _________
0001E58 94FB BACA      00ACA       14656                       CLEAR CPVFFORMAT
 001E5C 18D8/9808 D004_            14663                       PEND
 DROP   *,R7
                                   14683
 001E6A 50E0 D000/9008_      00000 14684              VWRAP    PROC
 USING  *,R7
 001E84 9180 BACA/4710_00ACA       14723                       IF    ~CPVFWRAP,'SET CPVFWRAP; VCALL PAGEINIT'
 001E96 1BFF                       14753                       CLEAR R15
 001E98 18D8/9808 D004_            14757                       PEND
 DROP   *,R7
                                   14777
 001EA6 50E0 D000/9008_      00000 14778              VNOWRAP  PROC
 USING  *,R7
 001EC0 9180 BACA/47E0_00ACA       14817                       IF    CPVFWRAP,'CLEAR CPVFWRAP; VCALL PAGEINIT'
 001ED2 1BFF                       14848                       CLEAR R15
 001ED4 18D8/9808 D004_            14852                       PEND
 DROP   *,R7
                                   14872
 001EE2 50E0 D000/9008_      00000 14873              VSPELL   PROC
 USING  *,R7
 001EFC 9608 BACA      00ACA       14912                       SET   CPVFSPEL
 001F00 9640 BAC9      00AC9       14918                       SET   CPVFREWR
 001F04 18D8/9808 D004_            14924                       PEND
 DROP   *,R7
                                   14944
 001F12 50E0 D000/9008_      00000 14945              VNOSPELL PROC
 USING  *,R7
 001F2C 94F7 BACA      00ACA       14984                       CLEAR CPVFSPEL
 001F30 9640 BAC9      00AC9       14991                       SET   CPVFREWR
 001F34 18D8/9808 D004_            14997                       PEND
 DROP   *,R7
                                   15017
 001F42 50E0 D000/9008_      00000 15018              VPREP    PROC
 USING  *,R7
 001F5C 9640 BACB      00ACB       15057                       SET   CPVFPREP
 001F60 9640 BAC9      00AC9       15063                       SET   CPVFREWR
 001F64 18D8/9808 D004_            15069                       PEND
 DROP   *,R7
                                   15089
 001F72 50E0 D000/9008_      00000 15090              VNOPREP  PROC
 USING  *,R7
 001F8C 94BF BACB      00ACB       15129                       CLEAR CPVFPREP
 001F90 9640 BAC9      00AC9       15136                       SET   CPVFREWR
 001F94 18D8/9808 D004_            15142                       PEND
 DROP   *,R7
                                   15162
 001FA2 50E0 D000/9008_      00000 15163              VRESET   PROC
 USING  *,R7
 001FBC D701 BAD4 BAD4_00AD4 00AD4 15202                       CLEAR CPVHEI,CPVWID,CPVTWID
 001FCE 58E0 7250/0DEE       0220C 15219                       VCALL PAGEINIT
 001FD4 1BFF                       15223                       CLEAR R15
 001FD6 18D8/9808 D004_            15227                       PEND
 DROP   *,R7
                                   15247
1VIEW     (VIEW2025) (13:00) (15MAR04) VIEW Command                                                                         Page   29
0Current Usings:  (*,R7) (CP,R11) (CV,R12)
0Loc    Object Code    Addr1 Addr2  Stmt Lv Lineno    Source Statement           (Hibal 5, Asmedit 3.3)  HLASM R4.0  2004/03/15 13.00
+___    ______ ____    _____ _____  ____ __ ______    ______ _________
0001FE4 50E0 D000/9008_      00000 15248              VMULT    PROC
 USING  *,R7
 001FFE D701 BAD4 BAD4_00AD4 00AD4 15287                       CLEAR CPVHEI,CPVWID,CPVTWID
 002010 58E0 720E/0DEE       0220C 15304                       VCALL PAGEINIT
 002016 1BFF                       15308                       CLEAR R15
 002018 18D8/9808 D004_            15312                       PEND
 DROP   *,R7
                                   15332
 002026 50E0 D000/9008_      00000 15333              VTRACE   PROC
 USING  *,R7
 002040 9620 BACA      00ACA       15372                       SET   CPVFTRC
 002044 18D8/9808 D004_            15378                       PEND
 DROP   *,R7
                                   15398
 002052 50E0 D000/9008_      00000 15399              VNOTRACE PROC
 USING  *,R7
 00206C 94DF BACA      00ACA       15438                       CLEAR CPVFTRC
 002070 18D8/9808 D004_            15445                       PEND
 DROP   *,R7
                                   15465
 00207E 50E0 D000/9008_      00000 15466              VTCLEAR  PROC
 USING  *,R7
 002098 5810 C2A4/1211_      002A4 15505                       WHILE ('LT R1,CVVTRCP',NZ),BEGIN  Free all trace entries...
 0020A2 58E0 7188/0DEE       02220 15523  1                      ACALL FREEVTRC            Free this entry
 0020A8 47F0 7000            02098 15527                       END
 0020AC 1BFF                       15532                       CLEAR R15
 0020AE 18D8/9808 D004_            15536                       PEND
 DROP   *,R7
                                   15556
 0020BC 50E0 D000/9008_      00000 15557              VDEBUG   PROC
 USING  *,R7
 0020D6 9610 BACA      00ACA       15596                       SET   CPVFBUG
 0020DA 18D8/9808 D004_            15602                       PEND
 DROP   *,R7
                                   15622
 0020E8 50E0 D000/9008_      00000 15623              VNODEBUG PROC
 USING  *,R7
 002102 94EF BACA      00ACA       15662                       CLEAR CPVFBUG
 002106 18D8/9808 D004_            15669                       PEND
 DROP   *,R7
1VIEW     (VIEW2025) (13:00) (15MAR04) VIEW Command                                                                         Page   30
0Current Usings:  (CP,R11) (CV,R12)
0Loc    Object Code    Addr1 Addr2  Stmt Lv Lineno    Source Statement           (Hibal 5, Asmedit 3.3)  HLASM R4.0  2004/03/15 13.00
+___    ______ ____    _____ _____  ____ __ ______    ______ _________
0                                  15690              ¿þþþþþþþþþþþþþþþþþþþþþþþþþþþþþþþþþþþþþþþþþþþþþþþþþþþþþþþþþþþþþþþþþþþþþÜ
                                   15691              Ÿ                                                                     Ÿ
                                   15692              Ÿ  VIEWRNG -- Co-routine to process lines from the range processor.   Ÿ
                                   15693              Ÿ                                                                     Ÿ
                                                      ¾þþþþþþþþþþþþþþþþþþþþþþþþþþþþþþþþþþþþþþþþþþþþþþþþþþþþþþþþþþþþþþþþþþþþþ»
0002114 50E0 D000/9008_      00000 15694              VIEWRNG  PROC
 USING  *,R7
 00212E 9680 BAC8      00AC8       15733                       SET   CPVFPAGE            Page mode from now on
                                   15739
 002132 5850 B73C            0073C 15740                       L     R5,CPLCNO           Line-number
                                   15741
 002136 18F5                       15742              VRNGLOOP LR    R15,R5
 002138 58E0 70F6/0DEE       02224 15743                       VCALL PAGELINE            Add line to page
 00213E 4780 7038            02166 15747                       IF    NZ,BEGIN            Won't fit...
 002142 D24F BAFC C4D8 00AFC 004D8 15758  1                      MVC   CPVMSG,CVBLANKS
 002148 D23A BAFC 7046 00AFC 02174 15759  1                      MVC   CPVMSG(L'VIEWMSG),VIEWMSG  ESC RETURN to continue.
 00214E 58E0 70FA/0DEE       02228 15760  1                      VCALL PAGEMOD             Display the current page
 002154 4780 7034/58E0_      02162 15764  1                      IF    NZ,'VCALL RNGABORT; B CVABORT'
 002162 47F0 7008            02136 15785  1                      B     VRNGLOOP
 002166                            15786                       END
 002166 18D8/9808 D004_            15790                       PEND
 DROP   *,R7
                                   15810
 002174 D79985A2A240C3D6           15811              VIEWMSGX DC    C'Press CONTINUE [ESC RETURN] '
 002190 86969940A3888540           15812                       DC    C'for the next page in the range.'
                                   15813              VIEWMSG  EQU   VIEWMSGX,*-VIEWMSGX,C'X'
                                   15814
                                   15815                       QLTORG
1VIEW     (VIEW2025) (13:00) (15MAR04) VIEW Command                                                                         Page   31
0Current Usings:  (CP,R11) (CV,R12)
0Loc    Object Code    Addr1 Addr2  Stmt Lv Lineno    Source Statement           (Hibal 5, Asmedit 3.3)  HLASM R4.0  2004/03/15 13.00
+___    ______ ____    _____ _____  ____ __ ______    ______ _________
0                                  15858              ¿þþþþþþþþþþþþþþþþþþþþþþþþþþþþþþþþþþþþþþþþþþþþþþþþþþþþþþþþþþþþþþþþþþþþþÜ
                                   15859              Ÿ                                                                     Ÿ
                                   15860              Ÿ  VIEWCMD -- Routine to process VIEW Subcommands.                    Ÿ
                                   15861              Ÿ                                                                     Ÿ
                                   15862              Ÿ    On entry:                                                        Ÿ
                                   15863              Ÿ      R6 - CPCMD contains the command                                Ÿ
                                   15864              Ÿ                                                                     Ÿ
                                   15865              Ÿ    On exit, R15 (and cc):                                           Ÿ
                                   15866              Ÿ      0 - local command executed                                     Ÿ
                                   15867              Ÿ      4 - not a local command                                        Ÿ
                                   15868              Ÿ                                                                     Ÿ
                                                      ¾þþþþþþþþþþþþþþþþþþþþþþþþþþþþþþþþþþþþþþþþþþþþþþþþþþþþþþþþþþþþþþþþþþþþþ»
0000000                00000 00304 15869              VWA      RECORD BEGIN
 000000 00                         15877  1           VWAFLAG    FLAG
 VWAFLAG.VWAFNLOC  80 ONES         15881  1                      FLAG  VWAFNLOC            - Not a local command
 VWAFLAG.VWAFNCMD  40 ONES         15886  1                      FLAG  VWAFNCMD            - New command text is set
 VWAFLAG.VWAFPOS   20 ONES         15891  1                      FLAG  VWAFPOS             - Cursor position is set
 VWAFLAG.VWAFLBOT  10 ONES         15896  1                      FLAG  VWAFLBOT            - Lineno can't be close to bottom
                                   15901  1
 000004                            15902  1           VWACHKL    DS    F                   Verify this lineno is on the page
                                   15903  1
                                   15904  1           VWASG      SEGCB
 000008 00                         15905  1 01-SEGCB +$$$SEGCB244   DS 0F
 VWASGCOD.VWASGSEG 01 EQ
 VWASGCOD.VWASGWR  02 EQ
 VWASGCOD.VWASGCLR 03 EQ
 VWASGCOD.VWASGSPP 04 EQ
 VWASGCOD.VWASGOVF 05 EQ
 VWASGCOD.VWASGCR  06 EQ
 VWASGCOD.VWASGMAR 07 EQ
 000009 00                         15980  1 01-SEGCB +           DC    X'00'               Reserved
 00000A 0000                              1          +
 00000C 00000000                   15981  1 01-SEGCB +VWASGMAXF   DC   A(0)                Maximum buffer length
 000010 00000000                   15982  1 01-SEGCB +VWASGMRKF   DC   A(0)                Length at last mark
 000014 00000000                   15983  1 01-SEGCB +VWASGLENF   DC   A(0)                Current length
 000018 00000000                   15984  1 01-SEGCB +VWASGINDF   DC   A(0)                Overflow/indent count
 00001C 00000000                   15985  1 01-SEGCB +VWASGERR   DC    A(0)                Address of error recovery routine
 000020 0000000000000000           15986  1 01-SEGCB +           DC    2F'0'               Reserved
 000028 00000000                   15987  1 01-SEGCB +VWASGLOC   DC    A(0)                Location of buffer
 00002C 00000000                   15988  1 01-SEGCB +VWASGRTN   DC    A(0)                Processing routine
 000030 0000000000000000           15989  1 01-SEGCB +           DC    4F'0'               Reserved
 000040 00000000                   15990  1 01-SEGCB +VWASGUSR   DC    A(0)                USER field
                                   15991  1 01-SEGCB +VWASG      EQU   $$$SEGCB244,*-$$$SEGCB244,C'X'
                                   15992  1
 000044                            15993  1           VWAGCOL    DS    H                   BLKGET current column
 000046                            15994  1           VWAGLEN    DS    H                   BLKGET current line length
 000048                            15995  1           VWAGLNO    DS    F                   BLKGET current lineno
                                   15996  1
 00004C                            15997  1           VWACMD     DS    CL64                Command to execute
                                   15998  1           VWAINIT    EQU   VWAFLAG,*-VWAFLAG,C'X'
                                   15999  1           *
                                   16000  1           *
 00008C                            16001  1           VWAPTRS    DS    2F                  Working ptrs
1VIEW     (VIEW2025) (13:00) (15MAR04) VIEW Command                                                                         Page   32
0Current Usings:  (CP,R11) (CV,R12)
0Loc    Object Code    Addr1 Addr2  Stmt Lv Lineno    Source Statement           (Hibal 5, Asmedit 3.3)  HLASM R4.0  2004/03/15 13.00
+___    ______ ____    _____ _____  ____ __ ______    ______ _________
0000094                            16002  1           VWAVAR     DS    CL32                Working exec variable area
                                   16003  1
 0000B4                            16004  1           VWASGBUF   DS    CL(L'CPVMSG)        Working message buffer
                                   16005  1
                                   16006  1           VWAGLINE   DS    CL(&LINESZ)         Get line buffer
 000104                                   1          +VWAGLINE   DS    CL(235)             Get line buffer
                                   16007  1                      DS    XL(&PRESSZ-&LINESZ)
 0001EF                                   1          +           DS    XL(256-235)
                                   16008  1
                                   16009  1           VWAPLINE   DS    CL(&LINESZ)         Put line buffer
 000204                                   1          +VWAPLINE   DS    CL(235)             Put line buffer
                                   16010  1                      DS    XL(&PRESSZ-&LINESZ)
 0002EF                                   1          +           DS    XL(256-235)
 000304                00304 00304 16011                       END
                                   16020              þþþþ
 002236 50E0 D000/9008_      00000 16021              VIEWCMD  XPROC VWA
 USING  *,R7
 USING  VWA-(4+36),R8
 002250 4160 8028            00000 16072                       LA    R6,VWA
 USING  VWA,R6                     16073                       WITH  (VWA,R6)
                                   16086
 002254 D78B 6000 6000 00000 00000 16087                       CLEAR VWAINIT
 00225A D203 6004 71D0 00004 02420 16094                       MVC   VWACHKL,=F'-1'
                                   16095
 002260 4110 60B4/4100_      000B4 16096                       SEGINIT VWASGBUF,,VWASG   Initialize message seg buffer
                                   16123                     ¿þþþþþþþþþþþþþþþþþþþþþþþþþþþþþþþþþþþþþþþþþþþþþþþþþþþþþþþþþþþþþþþþþÜ
                                   16124                     Ÿ  Commands don't change the cursor position if the cursor isn't  Ÿ
                                   16125                     Ÿ      on a text line.                                            Ÿ
                                   16126                     ¾þþþþþþþþþþþþþþþþþþþþþþþþþþþþþþþþþþþþþþþþþþþþþþþþþþþþþþþþþþþþþþþþþ»
 002272 58F0 BAE0/12FF       00AE0 16127                       LT    R15,CPVCURR
 002278 4780 7040            02290 16131                       IF    NZ,BEGIN
 00227C 4CF0 7200            02450 16142  1                      MH    R15,=AL2(L'LINT)
 002280 5AF0 BB64            00B64 16143  1                      A     R15,CPXLINT
 USING  LINT,R15                   16144  1                      WITH  (LINT,R15)
 002284 9502 F00C/4780_0000C       16157  1                      IF    ~LINFTEXT,'SET VWAFPOS'  Keep the current position
 DROP   LINT,R15                   16183                       END
                                   16192                       ¿þþþþþþþþþþþþþþþþþþþþþþþþþþþþþþþþþþþþþþþþþþþþþþþþþþþþþþþþþþþÜ
                                   16193                       Ÿ  Process VIEW Subcommands (which must begin with a ".").  Ÿ
                                   16194                       ¾þþþþþþþþþþþþþþþþþþþþþþþþþþþþþþþþþþþþþþþþþþþþþþþþþþþþþþþþþþþ»
 002290 4110 B242/4800_      00242 16195                       SETMSG CPCMD,LH:CPCMDLEN   Command text
 002298 58E0 71D8/0DEE       02428 16208                       VCALL LRTRIM
                                   16212
 00229E 1200/47D0 705C_            16213                       IF    ((R0,NP),OR,(@R1,NE,'.')),BEGIN  Not our command...
 0022AC 41F0 0004            00004 16242  1                      LA    R15,4               Not our command
 0022B0 47F0 719C            023EC 16243  1                      B     VCMDEXIT            Scram
 0022B4                            16244                       END
                                   16248                       ¿þþþþþþþþþþþþþþþþþþþþþþþþþþþþþþþþþþþþþþþþÜ
                                   16249                       Ÿ  Check for user defined function key.  Ÿ
                                   16250                       ¾þþþþþþþþþþþþþþþþþþþþþþþþþþþþþþþþþþþþþþþþ»
 0022B4 5900 71DC/4770_      0242C 16251                       IF    (R0,EQ,2),BEGIN     Could be re-defined...
 0022BC 9001 608C            0008C 16268  1                      STM   R0,R1,VWAPTRS
 0022C0 D21F 6094 71B0 00094 02400 16269  1                      MVC   VWAVAR,=CL(L'VWAVAR)'SES.SYSVIEW_x'
 0022C6 D200 60A0 1001 000A0 00001 16270  1                      MVC   VWAVAR+12(1),@R1+1  Function code
 0022CC 4110 6094/4100_      00094 16271  1                      SETMSG VWAVAR              Variable name
1VIEW     (VIEW2025) (13:00) (15MAR04) VIEW Command                                                                         Page   33
0Current Usings:  (VWA,R6) (*,R7) (VWA-(4+36),R8) (CP,R11) (CV,R12)
0Loc    Object Code    Addr1 Addr2  Stmt Lv Lineno    Source Statement           (Hibal 5, Asmedit 3.3)  HLASM R4.0  2004/03/15 13.00
+___    ______ ____    _____ _____  ____ __ ______    ______ _________
00022D4 58E0 71E0/0DEE       02430 16285  1                      VCALL GBLCMD              Execute command if possible
                                   16289  1
 0022DA D202 6094 7206 00094 02456 16290  1                      MVC   VWAVAR(3),=C'PUB'   Now try PUB.SYSVIEW_x
 0022E0 4110 6094/4100_      00094 16291  1                      SETMSG VWAVAR              Variable name
 0022E8 58E0 71E0/0DEE       02430 16305  1                      VCALL GBLCMD              Execute command if possible
 0022EE 9801 608C            0008C 16309  1                      LM    R0,R1,VWAPTRS
 0022F2                            16310                       END
                                   16314
 0022F2 58E0 B08C/501E_      0008C 16315                       SCINIT (R1),(R0)
 002300 5810 B08C/1B00_      0008C 16335                       SCAN  CMDPRT              VIEW Subcommands
 002352 58E0 71EC/0DEE       0243C 16367                       SCANCHK
 002358 1BFF                       16372                       CLEAR R15
                                   16376                       ¿þþþþþþþþþþþþþþþþþþþþþþþþþþþþþþþþþþþþþþþþþþþþþþþþþþþÜ
                                   16377                       Ÿ  Make sure we are still displaying enough lines.  Ÿ
                                   16378                       ¾þþþþþþþþþþþþþþþþþþþþþþþþþþþþþþþþþþþþþþþþþþþþþþþþþþþ»
 00235A D503 71F0 6004_02440 00004 16379                       IF    (VWACHKL,NE,-1),BEGIN  We need to check...
 002364 58E0 71F4/0DEE       02444 16397  1                      VCALL PAGEFILL            Update page image
                                   16401  1
 00236A 5810 6004            00004 16402  1                      L     R1,VWACHKL
 00236E 1B00                       16403  1                      CLEAR R0                  Find in current window
 002370 58E0 71F8/0DEE       02448 16407  1                      VCALL PAGEFIND            Find the new line
 002376 4780 713C            0238C 16411  1                      IF    NZ,BEGIN            It's on the page...
 00237A 9110 6000/47E0_00000       16422  2                        IF    ~VWAFLBOT,EXIT      We don't need a bottom check
 002382 5910 71DC/47B0_      0242C 16440  2                        IF    (R1,LT,2),'CLEAR R15'  Too close to bottom
 00238C                            16466  1                      END
                                   16470  1
 00238C 12FF/4770 7150             16471  1                      IF    (R15,Z),BEGIN       Can't find line...
 002392 58F0 BADC            00ADC 16485  2                        L     R15,CPVLNO          Cursor line-number
 002396 4100 0002            00002 16486  2                        LA    R0,2                Allow two lines after cursor
 00239A 58E0 71FC/0DEE       0244C 16487  2                        VCALL PAGEBOT
 0023A0                            16491  1                      END
 0023A0                            16495                       END
                                   16499                       ¿þþþþþþþþþþþþþþÜ
                                   16500                       Ÿ  Finish up.  Ÿ
                                   16501                       ¾þþþþþþþþþþþþþþ»
 0023A0 D63F 604C 604C_0004C 0004C 16502                       IF    (VWACMD,NZ),BEGIN   We have a command to execute...
 0023AA D201 B240 7204 00240 02454 16518  1                      MVC   CPCMDLEN,=AL2(L'VWACMD)
 0023B0 D23F B242 604C 00242 0004C 16519  1                      MVC   CPCMD(L'VWACMD),VWACMD  Set command
 0023B6 9680 6000      00000       16520  1                      SET   VWAFNLOC            It's not a local command
 0023BA                            16526                       END
                                   16530
 0023BA 41F0 0004            00004 16531                       LA    R15,4               Assume it wasen't our command
 0023BE 9180 6000/4710_00000       16532                       IF    ~VWAFNLOC,BEGIN     It's ours...
 0023C6 D24F BAFC C4D8 00AFC 004D8 16547  1                      MVC   CPVMSG,CVBLANKS
 0023CC 58F0 6014            00014 16548  1                      L     R15,VWASGLENF
 0023D0 06F0/12FF/4740_            16549  1                      MOVE  R15,CPVMSG,VWASGBUF  Set any message
                                   16587  1
 0023DC 9140 6000/4710_00000       16588  1                      IF    ~VWAFNCMD,'CLEAR CPCMDLEN'  Clear old command
                                   16615  1
 0023EA 1BFF                       16616  1                      CLEAR R15                 Set our command rc
 0023EC                            16620                       END
                                   16624
 0023EC 18D8/9808 D004_            16625              VCMDEXIT PEND
 DROP   VWA,R6
1VIEW     (VIEW2025) (13:00) (15MAR04) VIEW Command                                                                         Page   34
0Current Usings:  (CP,R11) (CV,R12)
0Loc    Object Code    Addr1 Addr2  Stmt Lv Lineno    Source Statement           (Hibal 5, Asmedit 3.3)  HLASM R4.0  2004/03/15 13.00
+___    ______ ____    _____ _____  ____ __ ______    ______ _________
0DROP   VWA-(4+36),R8
 DROP   *,R7
                                   16656
                                   16657                       QLTORG
1VIEW     (VIEW2025) (13:00) (15MAR04) VIEW Command                                                                         Page   35
0Current Usings:  (CP,R11) (CV,R12)
0Loc    Object Code    Addr1 Addr2  Stmt Lv Lineno    Source Statement           (Hibal 5, Asmedit 3.3)  HLASM R4.0  2004/03/15 13.00
+___    ______ ____    _____ _____  ____ __ ______    ______ _________
0USING  VWA,R6                     16687                       USING VWA,R6
                                   16696              ¿þþþþþþþþþþþþþþþþþþþþþþþþþþþþþþþþþþþþþþþþþþþþþþþþþþþþþþþþþþþþþþþþþþþþþÜ
                                   16697              Ÿ                                                                     Ÿ
                                   16698              Ÿ   VIEW Sub-commands.                                                Ÿ
                                   16699              Ÿ                                                                     Ÿ
                                                      ¾þþþþþþþþþþþþþþþþþþþþþþþþþþþþþþþþþþþþþþþþþþþþþþþþþþþþþþþþþþþþþþþþþþþþþ»
0002460 4040404040404040_          16700              CMDPRT   SCKW  ,CMDNULL,NULL
 002488 4B4BC14040404040_          16715                       SCKW  ..A,CMDERR,S
 0024B0 4B4BC24040404040_          16730                       SCKW  ..B,BOTTOM,S        .BOTTOM
 0024D8 4B4BC34040404040_          16745                       SCKW  ..C,CMDERR,S
 002500 4B4BC44040404040_          16760                       SCKW  ..D,DOWN,S          .DOWN
 002528 4B4BC54040404040_          16775                       SCKW  ..E,CMDERR,S
 002550 4B4BC64040404040_          16790                       SCKW  ..F,CMDERR,S
 002578 4B4BC74040404040_          16805                       SCKW  ..G,CMDERR,S
 0025A0 4B4BC84040404040_          16820                       SCKW  ..H,CMDERR,S
 0025C8 4B4BC94040404040_          16835                       SCKW  ..I,CMDERR,S
 0025F0 4B4BD14040404040_          16850                       SCKW  ..J,CMDERR,S
 002618 4B4BD24040404040_          16865                       SCKW  ..K,CMDERR,S
 002640 4B4BD34040404040_          16880                       SCKW  ..L,CMDERR,S
 002668 4B4BD44040404040_          16895                       SCKW  ..M,CONTINUE,S      .CONTINUE
 002690 4B4BD54040404040_          16910                       SCKW  ..N,CMDERR,S
 0026B8 4B4BD64040404040_          16925                       SCKW  ..O,CMDERR,S
 0026E0 4B4BD74040404040_          16940                       SCKW  ..P,CMDERR,S
 002708 4B4BD84040404040_          16955                       SCKW  ..Q,CMDERR,S
 002730 4B4BD94040404040_          16970                       SCKW  ..R,CMDERR,S
 002758 4B4BE24040404040_          16985                       SCKW  ..S,CMDERR,S
 002780 4B4BE34040404040_          17000                       SCKW  ..T,TOP,S           .TOP
 0027A8 4B4BE44040404040_          17015                       SCKW  ..U,UP,S            .UP
 0027D0 4B4BE54040404040_          17030                       SCKW  ..V,CMDERR,S
 0027F8 4B4BE64040404040_          17045                       SCKW  ..W,CMDERR,S
 002820 4B4BE74040404040_          17060                       SCKW  ..X,CMDERR,S
 002848 4B4BE84040404040_          17075                       SCKW  ..Y,CMDERR,S
 002870 4B4BE94040404040_          17090                       SCKW  ..Z,CMDERR,S
                                   17105
 002898 4BC1404040404040_          17106                       SCKW  .A,ALIGNV,S         .ALIGN
 0028C0 4BC2404040404040_          17121                       SCKW  .B,BOTTOM,S         .BOTTOM
 0028E8 4BC3404040404040_          17136                       SCKW  .C,COPY,S           .COPY
 002910 4BC4404040404040_          17151                       SCKW  .D,DOWN,S           .DOWN
 002938 4BC5404040404040_          17166                       SCKW  .E,END,S            .END
 002960 4BC6404040404040_          17181                       SCKW  .F,FIRST,S          .FIRST
 002988 4BC7404040404040_          17196                       SCKW  .G,GUESS,S          .GUESS
 0029B0 4BC8404040404040_          17211                       SCKW  .H,HELPESC,S         .HELP
 0029D8 4BC9404040404040_          17226                       SCKW  .I,V(SCNNOOP),S    .IMODE
 002A00 4BD1404040404040_          17241                       SCKW  .J,JOIN,S           .JOIN
 002A28 4BD2404040404040_          17256                       SCKW  .K,CMDERR,S
 002A50 4BD3404040404040_          17271                       SCKW  .L,LEARN,S          .LEARN
 002A78 4BD4404040404040_          17286                       SCKW  .M,COPY,S           .MOVE
 002AA0 4BD5404040404040_          17301                       SCKW  .N,NEXT,S           .NEXT
 002AC8 4BD6404040404040_          17316                       SCKW  .O,OOPS,S           .OOPS
 002AF0 4BD7404040404040_          17331                       SCKW  .P,PREVIOUS,S       .PREVIOUS
 002B18 4BD8404040404040_          17346                       SCKW  .Q,CMDERR,S
 002B40 4BD9404040404040_          17361                       SCKW  .R,CMDERR,S
 002B68 4BE2404040404040_          17376                       SCKW  .S,SPLIT,S          .SPLIT
1VIEW     (VIEW2025) (13:00) (15MAR04) VIEW Command                                                                         Page   36
0Current Usings:  (VWA,R6) (CP,R11) (CV,R12)
0Loc    Object Code    Addr1 Addr2  Stmt Lv Lineno    Source Statement           (Hibal 5, Asmedit 3.3)  HLASM R4.0  2004/03/15 13.00
+___    ______ ____    _____ _____  ____ __ ______    ______ _________
0002B90 4BE3404040404040_          17391                       SCKW  .T,TOP,S            .TOP
 002BB8 4BE4404040404040_          17406                       SCKW  .U,UP,S             .UP
 002BE0 4BE5404040404040_          17421                       SCKW  .V,REVIEW,S         .REVIEW
 002C08 4BE6404040404040_          17436                       SCKW  .W,WERROR,S         .WINDOW
 002C30 4BE7404040404040_          17451                       SCKW  .X,CMDERR,S
 002C58 4BE8404040404040_          17466                       SCKW  .Y,CMDERR,S
 002C80 4BE9404040404040_          17481                       SCKW  .Z,ALIGNV,S         .JUSTIFY
                                   17496
 002CA8 4BE6C14040404040_          17497                       SCKW  .WA,WERROR,S
 002CD0 4BE6C24040404040_          17512                       SCKW  .WB,WERROR,S
 002CF8 4BE6C34040404040_          17527                       SCKW  .WC,WCOLUMN,S       .WINDOW COLUMN
 002D20 4BE6C44040404040_          17542                       SCKW  .WD,WERROR,S
 002D48 4BE6C64040404040_          17557                       SCKW  .WF,WERROR,S
 002D70 4BE6C74040404040_          17572                       SCKW  .WG,WERROR,S
 002D98 4BE6C84040404040_          17587                       SCKW  .WH,WERROR,S
 002DC0 4BE6C94040404040_          17602                       SCKW  .WI,WERROR,S
 002DE8 4BE6D14040404040_          17617                       SCKW  .WJ,WJOIN,S         .WINDOW JOIN
 002E10 4BE6D24040404040_          17632                       SCKW  .WK,WERROR,S
 002E38 4BE6D34040404040_          17647                       SCKW  .WL,WLEFT,S         .WINDOW LEFT
 002E60 4BE6D44040404040_          17662                       SCKW  .WM,WERROR,S
 002E88 4BE6D54040404040_          17677                       SCKW  .WN,WACTNEXT,S      .WINDOW NEXT
 002EB0 4BE6D64040404040_          17692                       SCKW  .WO,WERROR,S
 002ED8 4BE6D74040404040_          17707                       SCKW  .WP,WACTPREV,S      .WINDOW PREVIOUS
 002F00 4BE6D84040404040_          17722                       SCKW  .WQ,WERROR,S
 002F28 4BE6D94040404040_          17737                       SCKW  .WR,WRIGHT,S        .WINDOW RIGHT
 002F50 4BE6E24040404040_          17752                       SCKW  .WS,WSPLIT,S        .WINDOW SPLIT
 002F78 4BE6E34040404040_          17767                       SCKW  .WT,WTAB,S          .WINDOW TAB
 002FA0 4BE6E44040404040_          17782                       SCKW  .WU,WNUM,S          .WINDOW UNNUMBERED
 002FC8 4BE6E54040404040_          17797                       SCKW  .WV,WERROR,S
 002FF0 4BE6E64040404040_          17812                       SCKW  .WW,WWIDTH,S        .WINDOW WIDTH
 003018 4BE6E84040404040_          17827                       SCKW  .WY,WERROR,S
 003040 4BE6E94040404040_          17842                       SCKW  .WZ,WERROR,S
                                   17857
 003068 4BE64C4040404040_          17858                       SCKW  .W<,WLMARGIN,S      .W<
 003090 4BE66E4040404040_          17873                       SCKW  .W>,WRMARGIN,S      .W>
 0030B8 4BE6D7D3E4E24040_          17888                       SCKW  .WPLUS,WWRAP,S      .W+
 0030E0 4BE6D4C9D5E4E240_          17903                       SCKW  .WMINUS,WWRAP,S     .W-
 003108 4BE6E2D3C1E2C840_          17918                       SCKW  .WSLASH,WLAUTO,S    .W/
                                   17933
 003130 4BE6F04040404040_          17934                       SCKW  .W0,WSELECT,S
 003158 4BE6F14040404040_          17949                       SCKW  .W1,WSELECT,S
 003180 4BE6F24040404040_          17964                       SCKW  .W2,WSELECT,S
 0031A8 4BE6F34040404040_          17979                       SCKW  .W3,WSELECT,S
 0031D0 4BE6F44040404040_          17994                       SCKW  .W4,WSELECT,S
 0031F8 4BE6F54040404040_          18009                       SCKW  .W5,WSELECT,S
 003220 4BE6F64040404040_          18024                       SCKW  .W6,WSELECT,S
 003248 4BE6F74040404040_          18039                       SCKW  .W7,WSELECT,S
 003270 4BE6F84040404040_          18054                       SCKW  .W8,WSELECT,S
 003298 4BE6F94040404040_          18069                       SCKW  .W9,WSELECT,S
                                   18084
 0032C0 4BD7C6F040404040_          18085                       SCKW  .PF0,CONTINUE,S           ESC RETURN
 0032E8 4BD7C6F140404040_          18100                       SCKW  .PF1,COLLECT,S            ESC SPACE
 003310 4BD7C6F240404040_          18115                       SCKW  .PF2,SPLIT,S              ESC S
 003338 4BD7C6F340404040_          18130                       SCKW  .PF3,JOIN,S               ESC J
1VIEW     (VIEW2025) (13:00) (15MAR04) VIEW Command                                                                         Page   37
0Current Usings:  (VWA,R6) (CP,R11) (CV,R12)
0Loc    Object Code    Addr1 Addr2  Stmt Lv Lineno    Source Statement           (Hibal 5, Asmedit 3.3)  HLASM R4.0  2004/03/15 13.00
+___    ______ ____    _____ _____  ____ __ ______    ______ _________
0003360 4BD7C6F440404040_          18145                       SCKW  .PF4,PREVIOUS,S           ESC P
 003388 4BD7C6F540404040_          18160                       SCKW  .PF5,NEXT,S               ESC N
 0033B0 4BD7C6F640404040_          18175                       SCKW  .PF6,DELL,S               DEL L
 0033D8 4BD7C6F740404040_          18190                       SCKW  .PF7,DOWN,S               ESC D
 003400 4BD7C6F840404040_          18205                       SCKW  .PF8,UP,S                 ESC U
 003428 4BD7C6F940404040_          18220                       SCKW  .PF9,OOPS,S               ESC O
 003450 4BD7C6F1F0404040_          18235                       SCKW  .PF10,CONTINUE,S          .CONTINUE
 003478 4BD7C6F1F1404040_          18250                       SCKW  .PF11,ESCAPE,S            .ESCAPE
 0034A0 4BD7C6F1F2404040_          18265                       SCKW  .PF12,PREPARE,S           .PREPARE
 0034C8 4BD7C6F1F3404040_          18280                       SCKW  .PF13,FBLOCK,S            ESC (
 0034F0 4BD7C6F1F4404040_          18295                       SCKW  .PF14,LBLOCK,S            ESC )
 003518 4BD7C6F1F5404040_          18310                       SCKW  .PF15,COPY,S              ESC C
 003540 4BD7C6F1F6404040_          18325                       SCKW  .PF16,MOVE,S              ESC M
 003568 4BD7C6F1F7404040_          18340                       SCKW  .PF17,DELETE,S            DEL B
 003590 4BD7C6F1F8404040_          18355                       SCKW  .PF18,REMARK,S            ESC +
 0035B8 4BD7C6F1F9404040_          18370                       SCKW  .PF19,UNMARK,S            ESC -
 0035E0 4BD7C6F2F0404040_          18385                       SCKW  .PF20,WSPLIT,S            WINDOW S
 003608 4BD7C6F2F1404040_          18400                       SCKW  .PF21,WJOIN,S             WINDOW J
 003630 4BD7C6F2F2404040_          18415                       SCKW  .PF22,PF22,S              WINDOW W or WINDOW L
 003658 4BD7C6F2F3404040_          18430                       SCKW  .PF23,FIRST,S             ESC F
 003680 4BD7C6F2F4404040_          18445                       SCKW  .PF24,END,S               ESC E
                                   18460
 0036A8 4BC3D6D5E3C9D5E4_          18461                       SCKW  .CONTINUE,CONTINUE,(A,S)  .CONTINUE
 0036D0 4BD9C5E2C5E34040_          18476                       SCKW  .RESET,RESET,(A,S)        .RESET
 0036F8 4BC2D9C5C1D24040_          18491                       SCKW  .BREAK,BREAK,(A,S)        .BREAK
 003720 4BC2D6E3E3D6D440_          18506                       SCKW  .BOTTOM,BOTTOM,(A,S)      .BOTTOM
 003748 4BC4D6E6D5404040_          18521                       SCKW  .DOWN,DOWN,(A,S)          .DOWN
 003770 4BC5D5C440404040_          18536                       SCKW  .END,END,(A,S)            .END
 003798 4BC6C9D9E2E34040_          18551                       SCKW  .FIRST,FIRST,(A,S)        .FIRST
 0037C0 4BD5C5E7E3404040_          18566                       SCKW  .NEXT,NEXT,(A,S)          .NEXT
 0037E8 4BD7D9C5E5C9D6E4_          18581                       SCKW  .PREVIOUS,PREVIOUS,(A,S)  .PREVIOUS
 003810 4BE3D6D740404040_          18596                       SCKW  .TOP,TOP,S                .TOP
 003838 4BE4D74040404040_          18611                       SCKW  .UP,UP,S                  .UP
 003860 4BC1D3C9C7D54040_          18626                       SCKW  .ALIGN,ALIGNV,(A,S)       .ALIGN
 003888 4BC3D6D7E8404040_          18641                       SCKW  .COPY,COPY,(A,S)          .COPY
 0038B0 4BD4D6E5C5404040_          18656                       SCKW  .MOVE,COPY,(A,S)          .MOVE
 0038D8 4BC4C5D3C5E3C540_          18671                       SCKW  .DELETE,DELETE,(A,S)      .DELETE
 003900 4BC6C2D3D6C3D240_          18686                       SCKW  .FBLOCK,FBLOCK,(A,S)      .(
 003928 4BD3C2D3D6C3D240_          18701                       SCKW  .LBLOCK,LBLOCK,(A,S)      .)
 003950 4B4C404040404040_          18716                       SCKW  .<,FBLOCK,S               .<
 003978 4B6E404040404040_          18731                       SCKW  .>,LBLOCK,S               .>
 0039A0 4BE4D5D4C1D9D240_          18746                       SCKW  .UNMARK,UNMARK,(A,S)      .-
 0039C8 4BD9C5D4C1D9D240_          18761                       SCKW  .REMARK,REMARK,(A,S)      .+
 0039F0 4BC8C5D3D7404040_          18776                       SCKW  .HELP,HELPESC,(A,S)  .HELP
 003A18 4BD1D6C9D5404040_          18791                       SCKW  .JOIN,JOIN,(A,S)          .JOIN
 003A40 4BC9D5E2C5D9E340_          18806                       SCKW  .INSERT,INSERT,(A,S)      .INSERT
 003A68 4BC3D6D3D3C5C3E3_          18821                       SCKW  .COLLECT,COLLECT,(A,S)    .COLLECT
 003A90 4BC3D6D3D4D6D9C5_          18836                       SCKW  .COLMORE,COLMORE,S        .COLMORE
 003AB8 4BC3D3D6E2C54040_          18851                       SCKW  .CLOSE,CLOSE,(A,S)        .CLOSE
 003AE0 4BD9C5E5C9C5E640_          18866                       SCKW  .REVIEW,REVIEW,(A,S)      .REVIEW
 003B08 4BE2D7D3C9E34040_          18881                       SCKW  .SPLIT,SPLIT,(A,S)        .SPLIT
 003B30 4BD6D6D7E2404040_          18896                       SCKW  .OOPS,OOPS,(A,S)          .OOPS
 003B58 4BC3D6D3E4D4D540_          18911                       SCKW  .COLUMN,WCOLUMN,(A,S)     .COLUMN
 003B80 4BD7D9C5D7C1D9C5_          18926                       SCKW  .PREPARE,PREPARE,(A,S)    .PREPARE
1VIEW     (VIEW2025) (13:00) (15MAR04) VIEW Command                                                                         Page   38
0Current Usings:  (VWA,R6) (CP,R11) (CV,R12)
0Loc    Object Code    Addr1 Addr2  Stmt Lv Lineno    Source Statement           (Hibal 5, Asmedit 3.3)  HLASM R4.0  2004/03/15 13.00
+___    ______ ____    _____ _____  ____ __ ______    ______ _________
0                                  18941
 003BA8 4B7BF1F3F0404040_          18942                       SCKW  .#130,BREAK,S
 003BD0 4B7BF1F3F1404040_          18957                       SCKW  .#131,WRAP,S
 003BF8 4B7BF1F3F2404040_          18972                       SCKW  .#132,V(SCNNOOP),S [Moved into/out of trigger row]
 003C20 4B7BF1F3F3404040_          18987                       SCKW  .#133,V(SCNNOOP),S [--Unused--]
 003C48 4B7BF1F3F4404040_          19002                       SCKW  .#134,V(SCNNOOP),S [--Unused--]
 003C70 4B7BF1F3F5404040_          19017                       SCKW  .#135,V(SCNNOOP),S [Home pressed and no home point]
 003C98 4B7BF1F3F6404040_          19032                       SCKW  .#136,V(SCNNOOP),S [--Unused--]
 003CC0 4B7BF1F3F7404040_          19047                       SCKW  .#137,V(SCNNOOP),S [--Unused--]
 003CE8 4B7BF1F3F8404040_          19062                       SCKW  .#138,V(SCNNOOP),S [Cursor in non-displayed area]
 003D10 4B7BF1F3F9404040_          19077                       SCKW  .#139,V(SCNNOOP),S [Reverse break]
                                   19092
 003D38 4B7BF1F4F0404040_          19093                       SCKW  .#140,DELL,S        [DEL L--delete line]
 003D60 4B7BF1F4F1404040_          19108                       SCKW  .#141,CLOSE,S       [DEL SPACE--delete blank lines]
 003D88 4B7BF1F4F2404040_          19123                       SCKW  .#142,DELETE,S      [DEL B--delete block]
                                   19138
 003DB0 4B7BF1F6F1404040_          19139                       SCKW  .#161,REVIEW        [CLEAR key]
 003DD8 4040404040404040_          19154                       SCKW  ,CMDERR
1VIEW     (VIEW2025) (13:00) (15MAR04) VIEW Command                                                                         Page   39
0Current Usings:  (VWA,R6) (CP,R11) (CV,R12)
0Loc    Object Code    Addr1 Addr2  Stmt Lv Lineno    Source Statement           (Hibal 5, Asmedit 3.3)  HLASM R4.0  2004/03/15 13.00
+___    ______ ____    _____ _____  ____ __ ______    ______ _________
0                                  19170              ¿þþþþþþþþþþþþþþþþþþþþþþþþþþþþþþþþþþþþþþþþþþþþþþþþþþþþþþþþþþþþþþþþþþþþþÜ
                                   19171              Ÿ                                                                     Ÿ
                                   19172              Ÿ  CONTINUE -- ESC RETURN Subcommand.                                 Ÿ
                                   19173              Ÿ                                                                     Ÿ
                                                      ¾þþþþþþþþþþþþþþþþþþþþþþþþþþþþþþþþþþþþþþþþþþþþþþþþþþþþþþþþþþþþþþþþþþþþþ»
0003E00 50E0 D000/9008_      00000 19174              CONTINUE PROC
 USING  *,R7
 003E1A 9680 BACE      00ACE       19213                       SET   CPVFEXIT            All done
 003E1E 41F0 0004            00004 19219                       LA    R15,4
 003E22 18D8/9808 D004_            19220                       PEND
 DROP   *,R7
1VIEW     (VIEW2025) (13:00) (15MAR04) VIEW Command                                                                         Page   40
0Current Usings:  (VWA,R6) (CP,R11) (CV,R12)
0Loc    Object Code    Addr1 Addr2  Stmt Lv Lineno    Source Statement           (Hibal 5, Asmedit 3.3)  HLASM R4.0  2004/03/15 13.00
+___    ______ ____    _____ _____  ____ __ ______    ______ _________
0                                  19241              ¿þþþþþþþþþþþþþþþþþþþþþþþþþþþþþþþþþþþþþþþþþþþþþþþþþþþþþþþþþþþþþþþþþþþþþÜ
                                   19242              Ÿ                                                                     Ÿ
                                   19243              Ÿ  BREAK -- BREAK Subcommand.                                         Ÿ
                                   19244              Ÿ                                                                     Ÿ
                                                      ¾þþþþþþþþþþþþþþþþþþþþþþþþþþþþþþþþþþþþþþþþþþþþþþþþþþþþþþþþþþþþþþþþþþþþþ»
0003E30 50E0 D000/9008_      00000 19245              BREAK    PROC
 USING  *,R7
 003E4A 58F0 BADC            00ADC 19284                       L     R15,CPVLNO
 003E4E 12FF/4740 7054             19285                       IF    (R15,~NEG),BEGIN    On a text line...
 003E54 9120 6000/4710_00000       19299  1                      IF    VWAFPOS,EXIT        (Not on a text line)
                                   19317  1                      ¿þþþþþþþþþþþþþþþþþþþþþþþþþþþþþþþþþþþþþþþþþþþþþþþþþþþþþþþþþÜ
                                   19318  1                      Ÿ  Check to see if the user is just finishing a collect.  Ÿ
                                   19319  1                      ¾þþþþþþþþþþþþþþþþþþþþþþþþþþþþþþþþþþþþþþþþþþþþþþþþþþþþþþþþþ»
 003E5C 59F0 B5C8/4770_      005C8 19320  1                      IF    (R15,EQ,CPACNLN),BEGIN  Finishing a collect...
 003E64 9108 B5D5/47E0_005D5       19337  2                        IF    ~CPACFPG,EXIT       Not page mode collect, scram
                                   19355  2
 003E6C 4110 6104            00104 19356  2                        LA    R1,VWAGLINE
 003E70 58E0 740E/0DEE       04258 19357  2                        VCALL GETLINE             Get the last collected line
 003E76 4780 7038/9620_      03E82 19361  2                        IF    NZ,'SET CPVFBELL; B BRKEXIT'
                                   19384  2
 003E82 D711 B5C4 B5C4 005C4 005C4 19385  2                        CLEAR CPACINFO            Collect has completed
                                   19392  2
 003E88 1200/4770 7050             19393  2                        IF    (R0,Z),BEGIN        Delete the blank line...
 003E8E 5800 BADC            00ADC 19407  3                          L     R0,CPVLNO
 003E92 1810                       19408  3                          LR    R1,R0
 003E94 58E0 7412/0DEE       0425C 19409  3                          VCALL DELRANGE            Delete line
 003E9A                            19413  2                        END
 003E9A 47F0 7058            03EA2 19417  2                        B     BRKEXIT             All done, scram
 003E9E                            19418  1                      END
 003E9E                            19422                       END
                                   19426
 003E9E 96C0 BACE      00ACE       19427                       SET   CPVFEXIT+CPVFBRK    Get out
 003EA2                            19436              BRKEXIT  LABEL ,
 003EA2 41F0 0004            00004 19438                       LA    R15,4
 003EA6 18D8/9808 D004_            19439                       PEND
 DROP   *,R7
1VIEW     (VIEW2025) (13:00) (15MAR04) VIEW Command                                                                         Page   41
0Current Usings:  (VWA,R6) (CP,R11) (CV,R12)
0Loc    Object Code    Addr1 Addr2  Stmt Lv Lineno    Source Statement           (Hibal 5, Asmedit 3.3)  HLASM R4.0  2004/03/15 13.00
+___    ______ ____    _____ _____  ____ __ ______    ______ _________
0                                  19460              ¿þþþþþþþþþþþþþþþþþþþþþþþþþþþþþþþþþþþþþþþþþþþþþþþþþþþþþþþþþþþþþþþþþþþþþÜ
                                   19461              Ÿ                                                                     Ÿ
                                   19462              Ÿ  HELP -- ESC H Subcommand.                                          Ÿ
                                   19463              Ÿ                                                                     Ÿ
                                                      ¾þþþþþþþþþþþþþþþþþþþþþþþþþþþþþþþþþþþþþþþþþþþþþþþþþþþþþþþþþþþþþþþþþþþþþ»
0003EB4 50E0 D000/9008_      00000 19464              HELPESC  PROC
 USING  *,R7
 003ECE D201 B240 73C6 00240 04294 19503                       MVC   CPCMDLEN,=AL2(L'HELPCMD)
 003ED4 D209 B242 7052 00242 03F20 19504                       MVC   CPCMD(L'HELPCMD),HELPCMD  Move in HELP command
 003EDA D202 BD24 73EC 00D24 042BA 19505                       MVC   CPCMNM,=C'HEL'      Set scanner id
                                   19506
 003EE0 4110 B242/4800_      00242 19507                       SCINIT CPCMD,LH:CPCMDLEN  Set scanner
 003EF6 4110 B242/4800_      00242 19530                       OSCINIT CPCMD,LH:CPCMDLEN  OLD/NEW Scanner compatability
 003F04 58E0 7396/0DEE       04264 19549                       VCALL HELP                Go do help
 003F0A 47F0 C7DE            007DE 19553                       B     CVNEXT              (Shouldn't happen)
 003F0E 41F0 0004            00004 19554                       LA    R15,4
 003F12 18D8/9808 D004_            19555                       PEND
 DROP   *,R7
                                   19575
 003F20 D7C1C7C540C9D5E3           19576              HELPCMD  DC    C'PAGE INTRO'       (Command is "HELP PAGE INTRO")
1VIEW     (VIEW2025) (13:00) (15MAR04) VIEW Command                                                                         Page   42
0Current Usings:  (VWA,R6) (CP,R11) (CV,R12)
0Loc    Object Code    Addr1 Addr2  Stmt Lv Lineno    Source Statement           (Hibal 5, Asmedit 3.3)  HLASM R4.0  2004/03/15 13.00
+___    ______ ____    _____ _____  ____ __ ______    ______ _________
0                                  19578              ¿þþþþþþþþþþþþþþþþþþþþþþþþþþþþþþþþþþþþþþþþþþþþþþþþþþþþþþþþþþþþþþþþþþþþþÜ
                                   19579              Ÿ                                                                     Ÿ
                                   19580              Ÿ  UP -- ESC U Subcommand.                                            Ÿ
                                   19581              Ÿ                                                                     Ÿ
                                                      ¾þþþþþþþþþþþþþþþþþþþþþþþþþþþþþþþþþþþþþþþþþþþþþþþþþþþþþþþþþþþþþþþþþþþþþ»
0003F2A 50E0 D000/9008_      00000 19582              UP       PROC
 USING  *,R7
                                   19621                       ¿þþþþþþþþþþþþþþþþþþþþþþþþþþþþþþþþþþþþþþþþþþþþþþþþþþþþþþþþþþþþþÜ
                                   19622                       Ÿ  Scroll by 1/5th the number of text lines on the screen.    Ÿ
                                   19623                       Ÿ  On a standard 24 line display this ends up being 4 lines.  Ÿ
                                   19624                       ¾þþþþþþþþþþþþþþþþþþþþþþþþþþþþþþþþþþþþþþþþþþþþþþþþþþþþþþþþþþþþþ»
 003F44 1B00/1B11                  19625                       CLEAR R0,R1
 003F48 58E0 7324/0DEE       04268 19631                       VCALL PAGECNT             Count number of text lines
 003F4E 41F0 F004            00004 19635                       LA    R15,@R15+4          (lines+4)/5
 003F52 1BEE                       19636                       CLEAR R14
 003F54 5DE0 7328            0426C 19640                       D     R14,=F'5'
 003F58 59F0 732C/47B0_      04270 19641                       FLOOR R15,1
 003F64 11FF                       19660                       LNR   R15,R15             Negative means scroll up
                                   19661
 003F66 58E0 7330/0DEE       04274 19662                       VCALL PAGESCRL            Do it
 003F6C 41F0 0004            00004 19666                       LA    R15,4
 003F70 18D8/9808 D004_            19667                       PEND
 DROP   *,R7
1VIEW     (VIEW2025) (13:00) (15MAR04) VIEW Command                                                                         Page   43
0Current Usings:  (VWA,R6) (CP,R11) (CV,R12)
0Loc    Object Code    Addr1 Addr2  Stmt Lv Lineno    Source Statement           (Hibal 5, Asmedit 3.3)  HLASM R4.0  2004/03/15 13.00
+___    ______ ____    _____ _____  ____ __ ______    ______ _________
0                                  19688              ¿þþþþþþþþþþþþþþþþþþþþþþþþþþþþþþþþþþþþþþþþþþþþþþþþþþþþþþþþþþþþþþþþþþþþþÜ
                                   19689              Ÿ                                                                     Ÿ
                                   19690              Ÿ  DOWN -- ESC D Subcommand.                                          Ÿ
                                   19691              Ÿ                                                                     Ÿ
                                                      ¾þþþþþþþþþþþþþþþþþþþþþþþþþþþþþþþþþþþþþþþþþþþþþþþþþþþþþþþþþþþþþþþþþþþþþ»
0003F7E 50E0 D000/9008_      00000 19692              DOWN     PROC
 USING  *,R7
                                   19731                       ¿þþþþþþþþþþþþþþþþþþþþþþþþþþþþþþþþþþþþþþþþþþþþþþþþþþþþþþþþþþþþþÜ
                                   19732                       Ÿ  Scroll by 1/5th the number of text lines on the screen.    Ÿ
                                   19733                       Ÿ  On a standard 24 line display this ends up being 4 lines.  Ÿ
                                   19734                       ¾þþþþþþþþþþþþþþþþþþþþþþþþþþþþþþþþþþþþþþþþþþþþþþþþþþþþþþþþþþþþþ»
 003F98 1B00/1B11                  19735                       CLEAR R0,R1
 003F9C 58E0 72D0/0DEE       04268 19741                       VCALL PAGECNT             Count number of text lines
 003FA2 41F0 F004            00004 19745                       LA    R15,@R15+4          (lines+4)/5
 003FA6 1BEE                       19746                       CLEAR R14
 003FA8 5DE0 72D4            0426C 19750                       D     R14,=F'5'
 003FAC 59F0 72D8/47B0_      04270 19751                       FLOOR R15,1
                                   19770
 003FB8 58E0 72DC/0DEE       04274 19771                       VCALL PAGESCRL            Scroll down
 003FBE 41F0 0004            00004 19775                       LA    R15,4
 003FC2 18D8/9808 D004_            19776                       PEND
 DROP   *,R7
1VIEW     (VIEW2025) (13:00) (15MAR04) VIEW Command                                                                         Page   44
0Current Usings:  (VWA,R6) (CP,R11) (CV,R12)
0Loc    Object Code    Addr1 Addr2  Stmt Lv Lineno    Source Statement           (Hibal 5, Asmedit 3.3)  HLASM R4.0  2004/03/15 13.00
+___    ______ ____    _____ _____  ____ __ ______    ______ _________
0                                  19797              ¿þþþþþþþþþþþþþþþþþþþþþþþþþþþþþþþþþþþþþþþþþþþþþþþþþþþþþþþþþþþþþþþþþþþþþÜ
                                   19798              Ÿ                                                                     Ÿ
                                   19799              Ÿ  TOP -- ESC T Subcommand.                                           Ÿ
                                   19800              Ÿ                                                                     Ÿ
                                                      ¾þþþþþþþþþþþþþþþþþþþþþþþþþþþþþþþþþþþþþþþþþþþþþþþþþþþþþþþþþþþþþþþþþþþþþ»
0003FD0 50E0 D000/9008_      00000 19801              TOP      PROC
 USING  *,R7
 003FEA 58F0 BADC/12FF       00ADC 19840                       LT    R15,CPVLNO
 003FF0 47B0 7032            0401C 19844                       IF    NEG,BEGIN           Not on a text line...
 003FF4 4110 72D3/4100_      042BD 19855  1                      SEG   'Position the cursor to a text line '
 004006 4110 72F6/4100_      042E0 19872  1                      SEG   'and then press TOP [ESC T].'
 004018 47F0 705A            04044 19889  1                      EXIT  TOP
 00401C                            19892                       END
                                   19896                       ¿þþþþþþþþþþþþþþþþþþþþþþþþþþþþþþþþþþþþþþþþÜ
                                   19897                       Ÿ  Limit the request to existing lines.  Ÿ
                                   19898                       ¾þþþþþþþþþþþþþþþþþþþþþþþþþþþþþþþþþþþþþþþþ»
 00401C 58F0 BADC            00ADC 19899                       L     R15,CPVLNO
 004020 59F0 B5A0/47B0_      005A0 19900                       FLOOR R15,CPAFLNO         Not before first lineno...
 00402C 59F0 B5A4/47D0_      005A4 19906                       CEIL  R15,CPALLNO         ...or after last lineno
                                   19912
 004038 1B00                       19913                       CLEAR R0                  We don't want lines before this
 00403A 58E0 7292/0DEE       0427C 19917                       VCALL PAGETOP             Put the line at the top
 004040 41F0 0004            00004 19921                       LA    R15,4
 004044 18D8/9808 D004_            19922                       PEND
 DROP   *,R7
1VIEW     (VIEW2025) (13:00) (15MAR04) VIEW Command                                                                         Page   45
0Current Usings:  (VWA,R6) (CP,R11) (CV,R12)
0Loc    Object Code    Addr1 Addr2  Stmt Lv Lineno    Source Statement           (Hibal 5, Asmedit 3.3)  HLASM R4.0  2004/03/15 13.00
+___    ______ ____    _____ _____  ____ __ ______    ______ _________
0                                  19943              ¿þþþþþþþþþþþþþþþþþþþþþþþþþþþþþþþþþþþþþþþþþþþþþþþþþþþþþþþþþþþþþþþþþþþþþÜ
                                   19944              Ÿ                                                                     Ÿ
                                   19945              Ÿ  BOTTOM -- ESC B Subcommand.                                        Ÿ
                                   19946              Ÿ                                                                     Ÿ
                                                      ¾þþþþþþþþþþþþþþþþþþþþþþþþþþþþþþþþþþþþþþþþþþþþþþþþþþþþþþþþþþþþþþþþþþþþþ»
0004052 50E0 D000/9008_      00000 19947              BOTTOM   PROC
 USING  *,R7
 00406C 58F0 BADC/12FF       00ADC 19986                       LT    R15,CPVLNO
 004072 47B0 7032            0409E 19990                       IF    NEG,BEGIN           Not on a text line...
 004076 4110 7251/4100_      042BD 20001  1                      SEG   'Position the cursor to a text line '
 004088 4110 722A/4100_      04296 20018  1                      SEG   'and then press BOTTOM [ESC B].'
 00409A 47F0 705A            040C6 20035  1                      EXIT  BOTTOM
 00409E                            20038                       END
                                   20042                       ¿þþþþþþþþþþþþþþþþþþþþþþþþþþþþþþþþþþþþþþþþÜ
                                   20043                       Ÿ  Limit the request to existing lines.  Ÿ
                                   20044                       ¾þþþþþþþþþþþþþþþþþþþþþþþþþþþþþþþþþþþþþþþþ»
 00409E 58F0 BADC            00ADC 20045                       L     R15,CPVLNO
 0040A2 59F0 B5A0/47B0_      005A0 20046                       FLOOR R15,CPAFLNO         Not before first lineno...
 0040AE 59F0 B5A4/47D0_      005A4 20052                       CEIL  R15,CPALLNO         ...or after last lineno
                                   20058
 0040BA 1B00                       20059                       CLEAR R0                  We don't want lines after this
 0040BC 58E0 7214/0DEE       04280 20063                       VCALL PAGEBOT             Put the line at the bottom
 0040C2 41F0 0004            00004 20067                       LA    R15,4
 0040C6 18D8/9808 D004_            20068                       PEND
 DROP   *,R7
1VIEW     (VIEW2025) (13:00) (15MAR04) VIEW Command                                                                         Page   46
0Current Usings:  (VWA,R6) (CP,R11) (CV,R12)
0Loc    Object Code    Addr1 Addr2  Stmt Lv Lineno    Source Statement           (Hibal 5, Asmedit 3.3)  HLASM R4.0  2004/03/15 13.00
+___    ______ ____    _____ _____  ____ __ ______    ______ _________
0                                  20089              ¿þþþþþþþþþþþþþþþþþþþþþþþþþþþþþþþþþþþþþþþþþþþþþþþþþþþþþþþþþþþþþþþþþþþþþÜ
                                   20090              Ÿ                                                                     Ÿ
                                   20091              Ÿ  FIRST -- ESC F Subcommand.                                         Ÿ
                                   20092              Ÿ                                                                     Ÿ
                                                      ¾þþþþþþþþþþþþþþþþþþþþþþþþþþþþþþþþþþþþþþþþþþþþþþþþþþþþþþþþþþþþþþþþþþþþþ»
00040D4 50E0 D000/9008_      00000 20093              FIRST    PROC
 USING  *,R7
 0040EE 58E0 7196/0DEE       04284 20132                       VCALL PAGECLR             Clear the current window
                                   20136
 0040F4 D203 BADC B5A0 00ADC 005A0 20137                       MVC   CPVLNO,CPAFLNO      Set cursor lineno
 0040FA D701 BADA BADA 00ADA 00ADA 20138                       CLEAR CPVCOL              Calculate column later
                                   20145
 004100 12FF/4780 7020             20146                       IF    (R15,NZ),BEGIN      There is an ACTIVE file...
 004106 18F0                       20160  1                      LR    R15,R0
 004108 58E0 719A/0DEE       04288 20161  1                      VCALL PAGELINE            Put the first line on the page
 00410E                            20165                       END
 00410E 41F0 0004            00004 20169                       LA    R15,4
 004112 18D8/9808 D004_            20170                       PEND
 DROP   *,R7
1VIEW     (VIEW2025) (13:00) (15MAR04) VIEW Command                                                                         Page   47
0Current Usings:  (VWA,R6) (CP,R11) (CV,R12)
0Loc    Object Code    Addr1 Addr2  Stmt Lv Lineno    Source Statement           (Hibal 5, Asmedit 3.3)  HLASM R4.0  2004/03/15 13.00
+___    ______ ____    _____ _____  ____ __ ______    ______ _________
0                                  20191              ¿þþþþþþþþþþþþþþþþþþþþþþþþþþþþþþþþþþþþþþþþþþþþþþþþþþþþþþþþþþþþþþþþþþþþþÜ
                                   20192              Ÿ                                                                     Ÿ
                                   20193              Ÿ  END -- ESC E Subcommand.                                           Ÿ
                                   20194              Ÿ                                                                     Ÿ
                                                      ¾þþþþþþþþþþþþþþþþþþþþþþþþþþþþþþþþþþþþþþþþþþþþþþþþþþþþþþþþþþþþþþþþþþþþþ»
0004120 50E0 D000/9008_      00000 20195              END      PROC
 USING  *,R7
 00413A 5840 B5A4            005A4 20234                       L     R4,CPALLNO          Save LAST lineno for below
                                   20235
 00413E 4850 BAD6            00AD6 20236                       LH    R5,CPVWCUR
 004142 4C50 717A            042B4 20237                       MH    R5,=AL2(L'WIND)
 004146 5A50 BB5C            00B5C 20238                       A     R5,CPXWIND
 USING  WIND,R5                    20239                       WITH  (WIND,R5),BEGIN
 00414A 58E0 714A/0DEE       04284 20253  1                      VCALL PAGECLR             Clear the current window
 004150 182F                       20257  1                      LR    R2,R15
 004152 4B20 717C            042B6 20258  1                      SH    R2,=H'4'            No. of lines to backup
                                   20259  1
 004156 5040 B73C            0073C 20260  1                      ST    R4,CPLCNO           Last line in file
 00415A 1222/47D0 7032_            20261  1                      WHILE (R2,POS),'VCALL PREVLNO; DECR R2'  Backup
                                   20289  1
 00416C 58F0 B73C            0073C 20290  1                      L     R15,CPLCNO          First line in window
 004170 58E0 7156/0DEE       04290 20291  1                      VCALL PAGEMAKE            Build a new page
 DROP   WIND,R5                    20295                       END
                                   20303
 004176 41F0 0001            00001 20304                       LA    R15,1
 00417A 1AF4                       20305                       AR    R15,R4              Last lineno plus one
 00417C 50F0 BADC            00ADC 20306                       ST    R15,CPVLNO          Set cursor lineno
 004180 D701 BADA BADA 00ADA 00ADA 20307                       CLEAR CPVCOL              Calculate column later
 004186 41F0 0004            00004 20314                       LA    R15,4
 00418A 18D8/9808 D004_            20315                       PEND
 DROP   *,R7
1VIEW     (VIEW2025) (13:00) (15MAR04) VIEW Command                                                                         Page   48
0Current Usings:  (VWA,R6) (CP,R11) (CV,R12)
0Loc    Object Code    Addr1 Addr2  Stmt Lv Lineno    Source Statement           (Hibal 5, Asmedit 3.3)  HLASM R4.0  2004/03/15 13.00
+___    ______ ____    _____ _____  ____ __ ______    ______ _________
0                                  20336              ¿þþþþþþþþþþþþþþþþþþþþþþþþþþþþþþþþþþþþþþþþþþþþþþþþþþþþþþþþþþþþþþþþþþþþþÜ
                                   20337              Ÿ                                                                     Ÿ
                                   20338              Ÿ  PREVIOUS -- ESC P Subcommand.                                      Ÿ
                                   20339              Ÿ                                                                     Ÿ
                                                      ¾þþþþþþþþþþþþþþþþþþþþþþþþþþþþþþþþþþþþþþþþþþþþþþþþþþþþþþþþþþþþþþþþþþþþþ»
0004198 50E0 D000/9008_      00000 20340              PREVIOUS PROC
 USING  *,R7
 0041B2 4850 BAD6            00AD6 20379                       LH    R5,CPVWCUR
 0041B6 4C50 7102            042B4 20380                       MH    R5,=AL2(L'WIND)
 0041BA 5A50 BB5C            00B5C 20381                       A     R5,CPXWIND
 USING  WIND,R5                    20382                       WITH  (WIND,R5),BEGIN
 0041BE 5830 5020            00020 20396  1                      L     R3,WINDFLNO         First line in window
 0041C2 58E0 70D2/0DEE       04284 20397  1                      VCALL PAGECLR             Clear the current window
 0041C8 182F                       20401  1                      LR    R2,R15              No. of lines in window
                                   20402  1
 0041CA 5030 B73C            0073C 20403  1                      ST    R3,CPLCNO           First lineno for the new page
 0041CE 4B20 7106            042B8 20404  1                      SH    R2,=H'2'            Allow two lines slop
 0041D2 1222/47D0 7032             20405  1                      WHILE (R2,POS),BEGIN      Back up...
 0041D8 58E0 70DA/0DEE       0428C 20421  2                        VCALL PREVLNO
 0041DE 0620                       20425  2                        DECR  R2
 0041E0 47F0 7020            041D2 20427  1                      END
                                   20432  1
 0041E4 9680 5000      00000       20433  1                      SET   WINFREWR            Rewrite the window
 DROP   WIND,R5                    20439                       END
                                   20447
 0041E8 58F0 B73C            0073C 20448                       L     R15,CPLCNO
 0041EC 58E0 70DE/0DEE       04290 20449                       VCALL PAGEMAKE            Build a new page
 0041F2 41F0 0004            00004 20453                       LA    R15,4
 0041F6 18D8/9808 D004_            20454                       PEND
 DROP   *,R7
1VIEW     (VIEW2025) (13:00) (15MAR04) VIEW Command                                                                         Page   49
0Current Usings:  (VWA,R6) (CP,R11) (CV,R12)
0Loc    Object Code    Addr1 Addr2  Stmt Lv Lineno    Source Statement           (Hibal 5, Asmedit 3.3)  HLASM R4.0  2004/03/15 13.00
+___    ______ ____    _____ _____  ____ __ ______    ______ _________
0                                  20475              ¿þþþþþþþþþþþþþþþþþþþþþþþþþþþþþþþþþþþþþþþþþþþþþþþþþþþþþþþþþþþþþþþþþþþþþÜ
                                   20476              Ÿ                                                                     Ÿ
                                   20477              Ÿ  NEXT -- ESC N Subcommand.                                          Ÿ
                                   20478              Ÿ                                                                     Ÿ
                                                      ¾þþþþþþþþþþþþþþþþþþþþþþþþþþþþþþþþþþþþþþþþþþþþþþþþþþþþþþþþþþþþþþþþþþþþþ»
0004204 50E0 D000/9008_      00000 20479              NEXT     PROC
 USING  *,R7
 00421E 4850 BAD6            00AD6 20518                       LH    R5,CPVWCUR
 004222 4C50 7096            042B4 20519                       MH    R5,=AL2(L'WIND)
 004226 5A50 BB5C            00B5C 20520                       A     R5,CPXWIND
 USING  WIND,R5                    20521                       WITH  (WIND,R5),BEGIN
 00422A 5820 5024            00024 20535  1                      L     R2,WINDLLNO         Last line on current page
                                   20536  1
 00422E 5020 B73C            0073C 20537  1                      ST    R2,CPLCNO
 004232 58E0 706E/0DEE       0428C 20538  1                      VCALL PREVLNO             Keep the last two lines
                                   20542  1
 004238 9680 5000      00000       20543  1                      SET   WINFREWR            Rewrite the window
                                   20549  1
 00423C 58F0 B73C            0073C 20550  1                      L     R15,CPLCNO
 004240 58E0 7072/0DEE       04290 20551  1                      VCALL PAGEMAKE            Build a new page
 DROP   WIND,R5                    20555                       END
 004246 41F0 0004            00004 20563                       LA    R15,4
 00424A 18D8/9808 D004_            20564                       PEND
 DROP   *,R7
                                   20584
                                   20585                       QLTORG
1VIEW     (VIEW2025) (13:00) (15MAR04) VIEW Command                                                                         Page   50
0Current Usings:  (VWA,R6) (CP,R11) (CV,R12)
0Loc    Object Code    Addr1 Addr2  Stmt Lv Lineno    Source Statement           (Hibal 5, Asmedit 3.3)  HLASM R4.0  2004/03/15 13.00
+___    ______ ____    _____ _____  ____ __ ______    ______ _________
0                                  20621              ¿þþþþþþþþþþþþþþþþþþþþþþþþþþþþþþþþþþþþþþþþþþþþþþþþþþþþþþþþþþþþþþþþþþþþþÜ
                                   20622              Ÿ                                                                     Ÿ
                                   20623              Ÿ  COLLECT -- ESC SPACE Subcommand.                                   Ÿ
                                   20624              Ÿ                                                                     Ÿ
                                                      ¾þþþþþþþþþþþþþþþþþþþþþþþþþþþþþþþþþþþþþþþþþþþþþþþþþþþþþþþþþþþþþþþþþþþþþ»
00042FC 50E0 D000/9008_      00000 20625              COLLECT  PROC
 USING  *,R7
 004316 58F0 BADC            00ADC 20664                       L     R15,CPVLNO
 00431A 12FF/47B0 7012             20665                       IF    (R15,NEG),BEGIN     Not on a text line...
 004320 9620 BACE      00ACE       20679  1                      SET   CPVFBELL
 004324 47F0 710C            04422 20685  1                      B     COLEXIT
 004328                            20686                       END
                                   20690                       ¿þþþþþþþþþþþþþþþþþþþþþþþþþþþþþþþþþþþþþþþþþþÜ
                                   20691                       Ÿ  Figure out where to start the collect.  Ÿ
                                   20692                       ¾þþþþþþþþþþþþþþþþþþþþþþþþþþþþþþþþþþþþþþþþþþ»
 004328 D501 7EAA BADA_051C0 00ADA 20693                       IF    (CPVCOL,GT,1),BEGIN  Is cursor past eol...
 004332 58F0 BADC            00ADC 20711  1                      L     R15,CPVLNO
 004336 4110 6104            00104 20712  1                      LA    R1,VWAGLINE
 00433A 58E0 7DDA/0DEE       050F0 20713  1                      VCALL GETLINE             Get the current line
 004340 4780 7036            0434C 20717  1                      IF    NZ,BEGIN            Line doesn't exist (odd)...
 004344 9620 BACE      00ACE       20728  2                        SET   CPVFBELL
 004348 47F0 710C            04422 20734  2                        B     COLEXIT
 00434C                            20735  1                      END
                                   20739  1
 00434C 1200/4780 7062_            20740  1                      IF    ((R0,NZ),AND,(CPVCOL,GT,R0)),BEGIN  Past eol...
 00435A 58F0 BADC            00ADC 20770  2                        L     R15,CPVLNO
 00435E 5AF0 C4D0            004D0 20771  2                        A     R15,CVONE
 004362 58E0 7DDE/0DEE       050F4 20772  2                        VCALL GETLNO              Get the next line
 004368 4740 7062            04378 20776  2                        IF    NEG,EXIT            Trouble, scram
                                   20790  2
 00436C D203 BADC B73C 00ADC 0073C 20791  2                        MVC   CPVLNO,CPLCNO       Start at next line
 004372 D701 BADA BADA 00ADA 00ADA 20792  2                        CLEAR CPVCOL              Calculate column later
 004378                            20799  1                      END
 004378                            20803                       END
                                   20807                       ¿þþþþþþþþþþþþþþþþþþþþþþþþþþþþþþþþþþþþþþþþþÜ
                                   20808                       Ÿ  Split the current line if neccessary.  Ÿ
                                   20809                       ¾þþþþþþþþþþþþþþþþþþþþþþþþþþþþþþþþþþþþþþþþþ»
 004378 58F0 BADC            00ADC 20810                       L     R15,CPVLNO          Current lineno
                                   20811
 00437C 4800 BADA            00ADA 20812                       LH    R0,CPVCOL
 004380 5900 7DE2/47D0_      050F8 20813                       IF    (R0,GT,1),BEGIN     Need to split line...
 004388 58E0 7DE6/0DEE       050FC 20830  1                      VCALL CHOPLINE            Split line
 00438E 4780 7084            0439A 20834  1                      IF    NZ,BEGIN            Problems (shouldn't happen)...
 004392 9620 BACE      00ACE       20845  2                        SET   CPVFBELL
 004396 47F0 710C            04422 20851  2                        B     COLEXIT
 00439A                            20852  1                      END
 00439A 18F1                       20856  1                      LR    R15,R1              Current lineno (perhaps renum)
 00439C                            20857                       END
1VIEW     (VIEW2025) (13:00) (15MAR04) VIEW Command                                                                         Page   51
0Current Usings:  (VWA,R6) (*,R7) (CP,R11) (CV,R12)
0Loc    Object Code    Addr1 Addr2  Stmt Lv Lineno    Source Statement           (Hibal 5, Asmedit 3.3)  HLASM R4.0  2004/03/15 13.00
+___    ______ ____    _____ _____  ____ __ ______    ______ _________
0                                  20861                       ¿þþþþþþþþþþþþþþþþþþþþþþþþþþþþþþþþþþþþþþþþþþþþþþþþþþþþþÜ
                                   20862                       Ÿ  Calculate starting collect line-number and delta.  Ÿ
                                   20863                       ¾þþþþþþþþþþþþþþþþþþþþþþþþþþþþþþþþþþþþþþþþþþþþþþþþþþþþþ»
 00439C D711 B5C4 B5C4 005C4 005C4 20864                       CLEAR CPACINFO            Reset collect info
 0043A2 9608 B5D5      005D5       20871                       SET   CPACFPG             Collecting in page mode
                                   20877
 0043A6 50F0 B73C            0073C 20878                       ST    R15,CPLCNO          We want to collect before this
 0043AA 58E0 7DEA/0DEE       05100 20879                       VCALL PREVLNO             Get previous lineno
 0043B0 4780 70C6            043DC 20883                       IF    NZ,BEGIN            No previous (first in file)...
 0043B4 4100 0001            00001 20894  1                      LA    R0,1
 0043B8 58F0 B73C            0073C 20895  1                      L     R15,CPLCNO
 0043BC 58E0 7DE6/0DEE       050FC 20896  1                      VCALL CHOPLINE            Split existing line at col 1
 0043C2 4780 70B8            043CE 20900  1                      IF    NZ,BEGIN            Problems (shouldn't happen)...
 0043C6 9620 BACE      00ACE       20911  2                        SET   CPVFBELL
 0043CA 47F0 710C            04422 20917  2                        B     COLEXIT
 0043CE                            20918  1                      END
 0043CE 5000 B5C4            005C4 20922  1                      ST    R0,CPACFLN          First line
 0043D2 5000 B5C8            005C8 20923  1                      ST    R0,CPACNLN          Current collect line
 0043D6 D203 B5CC B738 005CC 00738 20924  1                      MVC   CPACDEL,CPDELTA     Delta
 0043DC                            20925                       END
                                   20929                       ¿þþþþþþþþþþþþþþþþþþþþÜ
                                   20930                       Ÿ  Make a new line.  Ÿ
                                   20931                       ¾þþþþþþþþþþþþþþþþþþþþ»
 0043DC 70CA/47F0 70F2 043DC 043B2 20932                       ELSE  BEGIN
 0043E0 58F0 B73C            0073C 20943  1                      L     R15,CPLCNO
 0043E4 4100 0005            00005 20944  1                      LA    R0,5                Choose delta for 5 new lines
 0043E8 58E0 7DEE/0DEE       05104 20945  1                      VCALL CHKLINES
 0043EE 50F0 B5C4            005C4 20949  1                      ST    R15,CPACFLN         First existing lineno
 0043F2 5010 B5CC            005CC 20950  1                      ST    R1,CPACDEL          Delta
 0043F6 1AF1                       20951  1                      AR    R15,R1
 0043F8 50F0 B5C8            005C8 20952  1                      ST    R15,CPACNLN         Current collect line
                                   20953  1
 0043FC 4110 6204/1B00       00204 20954  1                      SETMSG VWAPLINE,0
 004402 58E0 7DF2/0DEE       05108 20967  1                      VCALL VPUTLINE            Add a blank line
 004408                            20971                       END
                                   20975
 004408 D203 BADC B5C8 00ADC 005C8 20976                       MVC   CPVLNO,CPACNLN      Set cursor lineno
 00440E D701 BADA BADA 00ADA 00ADA 20977                       CLEAR CPVCOL              Calculate column later
                                   20984
 004414 D203 6004 BADC 00004 00ADC 20985                       MVC   VWACHKL,CPVLNO      Make sure it's on the page
 00441A 9610 6000      00000       20986                       SET   VWAFLBOT            Can't be too close to bottom
 00441E 9610 BAC8      00AC8       20992                       SET   CPVFCH              File changes have occurred
 004422                            20998              COLEXIT  LABEL ,
 004422 41F0 0004            00004 21000                       LA    R15,4
 004426 18D8/9808 D004_            21001                       PEND
 DROP   *,R7
1VIEW     (VIEW2025) (13:00) (15MAR04) VIEW Command                                                                         Page   52
0Current Usings:  (VWA,R6) (CP,R11) (CV,R12)
0Loc    Object Code    Addr1 Addr2  Stmt Lv Lineno    Source Statement           (Hibal 5, Asmedit 3.3)  HLASM R4.0  2004/03/15 13.00
+___    ______ ____    _____ _____  ____ __ ______    ______ _________
0                                  21022              ¿þþþþþþþþþþþþþþþþþþþþþþþþþþþþþþþþþþþþþþþþþþþþþþþþþþþþþþþþþþþþþþþþþþþþþÜ
                                   21023              Ÿ                                                                     Ÿ
                                   21024              Ÿ  COLMORE -- Automatic Collect.                                      Ÿ
                                   21025              Ÿ                                                                     Ÿ
                                                      ¾þþþþþþþþþþþþþþþþþþþþþþþþþþþþþþþþþþþþþþþþþþþþþþþþþþþþþþþþþþþþþþþþþþþþþ»
0004434 50E0 D000/9008_      00000 21026              COLMORE  PROC
 USING  *,R7
 00444E 58F0 BADC            00ADC 21065                       L     R15,CPVLNO
 004452 12FF/47B0 7012             21066                       IF    (R15,NEG),BEGIN     Not on a text line...
 004458 9620 BACE      00ACE       21080  1                      SET   CPVFBELL
 00445C 47F0 7092            044E0 21086  1                      B     COLMEXIT
 004460                            21087                       END
                                   21091                       ¿þþþþþþþþþþþþþþþþþþþþþþþþþþþþþþÜ
                                   21092                       Ÿ  Find the next line-number.  Ÿ
                                   21093                       ¾þþþþþþþþþþþþþþþþþþþþþþþþþþþþþþ»
 004460 5AF0 C4D0            004D0 21094                       A     R15,CVONE           Next line-number
 004464 58E0 7CA6/0DEE       050F4 21095                       VCALL GETLNO
 00446A 47B0 703A            04488 21099                       IF    NEG,BEGIN           Past end of file...
 00446E D711 B5C4 B5C4 005C4 005C4 21110  1                      CLEAR CPACINFO            Turn off collect
 004474 58E0 7CBE/0DEE       0510C 21117  1                      VCALL ENDLNO              End line-number
 00447A 47B0 7038/9620_      04486 21121  1                      IF    NEG,'SET CPVFBELL; B COLMEXIT'
 004486 18F0                       21144  1                      LR    R15,R0
 004488                            21145                       END
                                   21149
 004488 703E/47F0 706E 04488 0446C 21150                       ELSE  BEGIN               Add a new line...
 00448C 58F0 B5C8            005C8 21161  1                      L     R15,CPACNLN
 004490 5AF0 B5CC            005CC 21162  1                      A     R15,CPACDEL
 004494 59F0 B73C/47B0_      0073C 21163  1                      IF    (R15,LT,CPLCNO),'ST R15,CPLCNO'  Old delta is fine
 0044A0 7056/47F0 706A 044A0 0449A 21186  1                      ELSE  BEGIN               Pick a new delta...
 0044A4 4100 0005            00005 21197  2                        LA    R0,5                Allow room for 5 lines
 0044A8 58F0 B5C8            005C8 21198  2                        L     R15,CPACNLN
 0044AC 58E0 7CB6/0DEE       05104 21199  2                        VCALL CHKLINES            Find an acceptable delta
 0044B2 50F0 B5C4            005C4 21203  2                        ST    R15,CPACFLN         New first line collected
 0044B6 1AF1                       21204  2                        AR    R15,R1
 0044B8                            21205  1                      END
 0044B8 50F0 B5C8            005C8 21209  1                      ST    R15,CPACNLN         Set current collect line
 0044BC                            21210                       END
                                   21214                       ¿þþþþþþþþþþþþþþþþþþþþþþþþþþþþþþþþþþþþþþþþþþþþþþþþþþþþþþÜ
                                   21215                       Ÿ  Add a blank line as the next line to be collected.  Ÿ
                                   21216                       ¾þþþþþþþþþþþþþþþþþþþþþþþþþþþþþþþþþþþþþþþþþþþþþþþþþþþþþþ»
 0044BC 50F0 BADC            00ADC 21217                       ST    R15,CPVLNO          Set new cursor line
 0044C0 D701 BADA BADA 00ADA 00ADA 21218                       CLEAR CPVCOL              Calculate column later
                                   21225
 0044C6 4110 6204/1B00       00204 21226                       SETMSG VWAPLINE,0
 0044CC 58E0 7CBA/0DEE       05108 21239                       VCALL VPUTLINE            Add the blank line
                                   21243
 0044D2 D203 6004 BADC 00004 00ADC 21244                       MVC   VWACHKL,CPVLNO      Make sure line is on the page
 0044D8 9610 6000      00000       21245                       SET   VWAFLBOT            Can't be too close to bottom
 0044DC 9610 BAC8      00AC8       21251                       SET   CPVFCH              File changes have occurred
 0044E0                            21257              COLMEXIT LABEL ,
 0044E0 41F0 0004            00004 21259                       LA    R15,4
 0044E4 18D8/9808 D004_            21260                       PEND
 DROP   *,R7
1VIEW     (VIEW2025) (13:00) (15MAR04) VIEW Command                                                                         Page   53
0Current Usings:  (VWA,R6) (CP,R11) (CV,R12)
0Loc    Object Code    Addr1 Addr2  Stmt Lv Lineno    Source Statement           (Hibal 5, Asmedit 3.3)  HLASM R4.0  2004/03/15 13.00
+___    ______ ____    _____ _____  ____ __ ______    ______ _________
0                                  21281              ¿þþþþþþþþþþþþþþþþþþþþþþþþþþþþþþþþþþþþþþþþþþþþþþþþþþþþþþþþþþþþþþþþþþþþþÜ
                                   21282              Ÿ                                                                     Ÿ
                                   21283              Ÿ  CLOSE -- DEL SPACE Subcommand.                                     Ÿ
                                   21284              Ÿ                                                                     Ÿ
                                                      ¾þþþþþþþþþþþþþþþþþþþþþþþþþþþþþþþþþþþþþþþþþþþþþþþþþþþþþþþþþþþþþþþþþþþþþ»
00044F2 50E0 D000/9008_      00000 21285              CLOSE    PROC
 USING  *,R7
 00450C 58F0 BADC            00ADC 21324                       L     R15,CPVLNO
 004510 12FF/47B0 7012             21325                       IF    (R15,NEG),BEGIN     Not on a text line...
 004516 9620 BACE      00ACE       21339  1                      SET   CPVFBELL
 00451A 47F0 7062            0456E 21345  1                      B     CLOSEXIT
 00451E                            21346                       END
                                   21350
 00451E 4110 6104            00104 21351                       LA    R1,VWAGLINE         Put line text here
 004522 58E0 7BE4/0DEE       050F0 21352                       VCALL GETLINE             Current line
 004528 4770 7026            04532 21356                       IF    Z,BEGIN             Delete this too if it's blank...
 00452C 1200/4780 7044             21367  1                      IF    (R0,Z),CLOSECOM     It's blank, go delete it
 004532                            21384                       END
                                   21388                   ¿þþþþþþþþþþþþþþþþþþþþþþþþþþþþþþþþþþþþþþþþþþþþþþþþþþþþþþþþþþþþþþþþþþþÜ
                                   21389                   Ÿ  Delete all following blank lines until the next non-blank line.  Ÿ
                                   21390                   ¾þþþþþþþþþþþþþþþþþþþþþþþþþþþþþþþþþþþþþþþþþþþþþþþþþþþþþþþþþþþþþþþþþþþ»
 004532 1B22                       21391                       CLEAR R2                  Flag: nothing deleted
 004534                            21395                       LOOP  BEGIN
 004534 58F0 B73C            0073C 21401  1                      L     R15,CPLCNO
 004538 5AF0 C4D0            004D0 21402  1                      A     R15,CVONE
 00453C 4110 6104            00104 21403  1                      LA    R1,VWAGLINE         Put line text here
 004540 58E0 7BE4/0DEE       050F0 21404  1                      VCALL GETLINE             Find next line
 004546 4740 7058            04564 21408  1                      IF    NEG,EXIT            End of file, scram
 00454A 1200/4770 7058             21422  1                      IF    (R0,NZ),EXIT        Stop if line is non-blank
                                   21439  1
 004550 5800 B73C            0073C 21440  1           CLOSECOM   L     R0,CPLCNO           Line-number to be deleted
 004554 1810                       21441  1                      LR    R1,R0
 004556 58E0 7C04/0DEE       05110 21442  1                      VCALL DELRANGE            Delete line
 00455C 4120 0001            00001 21446  1                      LA    R2,1                Flag: lines have been deleted
 004560 47F0 7028            04534 21447                       END
                                   21452
 004564 1222/4780 7062_            21453                       IF    (R2,NZ),'SET CPVFCH'  File changes occurred
 00456E                            21478              CLOSEXIT LABEL ,
 00456E 41F0 0004            00004 21480                       LA    R15,4
 004572 18D8/9808 D004_            21481                       PEND
 DROP   *,R7
1VIEW     (VIEW2025) (13:00) (15MAR04) VIEW Command                                                                         Page   54
0Current Usings:  (VWA,R6) (CP,R11) (CV,R12)
0Loc    Object Code    Addr1 Addr2  Stmt Lv Lineno    Source Statement           (Hibal 5, Asmedit 3.3)  HLASM R4.0  2004/03/15 13.00
+___    ______ ____    _____ _____  ____ __ ______    ______ _________
0                                  21502              ¿þþþþþþþþþþþþþþþþþþþþþþþþþþþþþþþþþþþþþþþþþþþþþþþþþþþþþþþþþþþþþþþþþþþþþÜ
                                   21503              Ÿ                                                                     Ÿ
                                   21504              Ÿ  DELL -- DEL L Subcommand.                                          Ÿ
                                   21505              Ÿ                                                                     Ÿ
                                                      ¾þþþþþþþþþþþþþþþþþþþþþþþþþþþþþþþþþþþþþþþþþþþþþþþþþþþþþþþþþþþþþþþþþþþþþ»
0004580 50E0 D000/9008_      00000 21506              DELL     PROC
 USING  *,R7
 00459A 5800 BADC            00ADC 21545                       L     R0,CPVLNO
 00459E 1200/47B0 7012_            21546                       IF    (R0,NEG),'SET CPVFBELL; B DELLEXIT'
 0045AC 1810                       21572                       LR    R1,R0
 0045AE 58E0 7B76/0DEE       05110 21573                       VCALL DELRANGE            Delete the cursor line
 0045B4 4780 7026/9620_      045C0 21577                       IF    NZ,'SET CPVFBELL; B DELLEXIT'
                                   21600
 0045C0 9610 BAC8      00AC8       21601                       SET   CPVFCH              File changes have occurred
 0045C4                            21607              DELLEXIT LABEL ,
 0045C4 41F0 0004            00004 21609                       LA    R15,4
 0045C8 18D8/9808 D004_            21610                       PEND
 DROP   *,R7
1VIEW     (VIEW2025) (13:00) (15MAR04) VIEW Command                                                                         Page   55
0Current Usings:  (VWA,R6) (CP,R11) (CV,R12)
0Loc    Object Code    Addr1 Addr2  Stmt Lv Lineno    Source Statement           (Hibal 5, Asmedit 3.3)  HLASM R4.0  2004/03/15 13.00
+___    ______ ____    _____ _____  ____ __ ______    ______ _________
0                                  21631              ¿þþþþþþþþþþþþþþþþþþþþþþþþþþþþþþþþþþþþþþþþþþþþþþþþþþþþþþþþþþþþþþþþþþþþþÜ
                                   21632              Ÿ                                                                     Ÿ
                                   21633              Ÿ  OOPS -- ESC O Subcommand.                                          Ÿ
                                   21634              Ÿ                                                                     Ÿ
                                                      ¾þþþþþþþþþþþþþþþþþþþþþþþþþþþþþþþþþþþþþþþþþþþþþþþþþþþþþþþþþþþþþþþþþþþþþ»
0000000                00000 00010 21635              OOPSWA   RECORD BEGIN
 000000                            21643  1           OOPSKEY    DS    XL16                Previous lineno key in CPRG16
 000010                00010 00010 21644                       END
                                   21653              þþþþ
 0045D6 50E0 D000/9008_      00000 21654              OOPS     PROC  OOPSWA
 USING  *,R7
 USING  OOPSWA-(4+36),R8
                                   21704                       ¿þþþþþþþþþþþþþþþþþþþþþþþþþþþþþþþþþþþþþþþþÜ
                                   21705                       Ÿ  OOPS means BREAK for VTAM terminals.  Ÿ
                                   21706                       ¾þþþþþþþþþþþþþþþþþþþþþþþþþþþþþþþþþþþþþþþþ»
 0045F0 9180 BACB/47E0_00ACB       21707                       IF    CPVFVTAM,BEGIN   Vtam's PF9 key is different...
 0045F8 58E0 7B24/0DEE       05114 21722  1                      ACALL BREAK
 0045FE 47F0 70AC            0469C 21726  1                      EXIT  OOPS
 004602                            21729                       END
                                   21733                       ¿þþþþþþþþþþþþþþþþþþþþþþþþþÜ
                                   21734                       Ÿ  Regular OOPS command.  Ÿ
                                   21735                       ¾þþþþþþþþþþþþþþþþþþþþþþþþþ»
 004602 58F0 BADC            00ADC 21736                       L     R15,CPVLNO
 004606 12FF/47B0 7048             21737                       IF    (R15,NEG),BEGIN     Not on a text line...
 00460C 4110 7C06/4100_      051F6 21751  1                      SEG   'Position the cursor to the text line you '
 00461E 4110 7C2F/4100_      0521F 21768  1                      SEG   'want to undo first for OOPS [ESC O] function.'
 004630 9620 BACE      00ACE       21785  1                      SET   CPVFBELL
 004634 47F0 70AC            0469C 21791  1                      EXIT  OOPS
 004638                            21794                       END
                                   21798                       ¿þþþþþþþþþþþþþþþþþþþþþþþþþþþþþþþþþþþþþþþÜ
                                   21799                       Ÿ  Now get previous copy of line text.  Ÿ
                                   21800                       ¾þþþþþþþþþþþþþþþþþþþþþþþþþþþþþþþþþþþþþþþ»
 004638 4100 0007            00007 21801                       LA    R0,CP#OOPS          Old lines are kept here
 00463C 41F0 B524            00524 21802                       LA    R15,CPRG16          Misc record group
 004640 58E0 7B2C/0DEE       0511C 21803                       VCALL XSETSET
                                   21807
 004646 D70F 8028 8028 00000 00000 21808                       CLEAR OOPSKEY
 00464C D203 8028 B57C 00000 0057C 21815                       MVC   OOPSKEY(4),CPACTNO
 004652 D203 802C BADC 00004 00ADC 21816                       MVC   OOPSKEY+4(4),CPVLNO
 004658 4120 8028            00000 21817                       LA    R2,OOPSKEY
 00465C 4110 6204/4100_      00204 21818                       SETMSG VWAPLINE            Working text area
 004664 41F0 B524            00524 21832                       LA    R15,CPRG16
 004668 58E0 7B30/0DEE       05120 21833                       VCALL XGET                Get previous line text
 00466E 12FF/4780 709E             21837                       IF    (R15,NZ),BEGIN      No previous text...
 004674 4110 7BD2/4100_      051C2 21851  1                      SEG   'No previous copy of this line.'
 004686 9620 BACE      00ACE       21868  1                      SET   CPVFBELL
 00468A 47F0 70AC            0469C 21874  1                      EXIT  OOPS
 00468E                            21877                       END
1VIEW     (VIEW2025) (13:00) (15MAR04) VIEW Command                                                                         Page   56
0Current Usings:  (VWA,R6) (*,R7) (OOPSWA-(4+36),R8) (CP,R11) (CV,R12)
0Loc    Object Code    Addr1 Addr2  Stmt Lv Lineno    Source Statement           (Hibal 5, Asmedit 3.3)  HLASM R4.0  2004/03/15 13.00
+___    ______ ____    _____ _____  ____ __ ______    ______ _________
0                                  21881                   ¿þþþþþþþþþþþþþþþþþþþþþþþþþþþþþþþþþþþþþþþþþþþþþþþþþþþþþþþþþþþþþþþþþþþÜ
                                   21882                   Ÿ  Save old text by using the standard page-mode VPUTLINE routine.  Ÿ
                                   21883                   ¾þþþþþþþþþþþþþþþþþþþþþþþþþþþþþþþþþþþþþþþþþþþþþþþþþþþþþþþþþþþþþþþþþþþ»
 00468E 58F0 BADC            00ADC 21884                       L     R15,CPVLNO          Line-number
                                   21885                       SETMSG (R1),(R0)           New line text
 004692 58E0 7B18/0DEE       05108 21895                       VCALL VPUTLINE            Save line text
                                   21899
 004698 41F0 0004            00004 21900                       LA    R15,4
 00469C 18D8/9808 D004_            21901                       PEND
 DROP   OOPSWA-(4+36),R8
 DROP   *,R7
1VIEW     (VIEW2025) (13:00) (15MAR04) VIEW Command                                                                         Page   57
0Current Usings:  (VWA,R6) (CP,R11) (CV,R12)
0Loc    Object Code    Addr1 Addr2  Stmt Lv Lineno    Source Statement           (Hibal 5, Asmedit 3.3)  HLASM R4.0  2004/03/15 13.00
+___    ______ ____    _____ _____  ____ __ ______    ______ _________
0                                  21927              ¿þþþþþþþþþþþþþþþþþþþþþþþþþþþþþþþþþþþþþþþþþþþþþþþþþþþþþþþþþþþþþþþþþþþþþÜ
                                   21928              Ÿ                                                                     Ÿ
                                   21929              Ÿ  FBLOCK -- ESC ( and ESC < Subcommands.                             Ÿ
                                   21930              Ÿ                                                                     Ÿ
                                                      ¾þþþþþþþþþþþþþþþþþþþþþþþþþþþþþþþþþþþþþþþþþþþþþþþþþþþþþþþþþþþþþþþþþþþþþ»
00046AA 50E0 D000/9008_      00000 21931              FBLOCK   PROC
 USING  *,R7
 0046C4 58F0 BADC            00ADC 21970                       L     R15,CPVLNO
 0046C8 12FF/47B0 7012             21971                       IF    (R15,NEG),BEGIN     Not on a text line...
 0046CE 9620 BACE      00ACE       21985  1                      SET   CPVFBELL
 0046D2 47F0 70AC            04770 21991  1                      B     FBKEXIT
 0046D6                            21992                       END
                                   21996                       ¿þþþþþþþþþþþþþþþþþþþþþþþþþþþþþþþþþþþþþþþþþþþþþþþþþþþÜ
                                   21997                       Ÿ  Reset block if it's in a different Active file.  Ÿ
                                   21998                       ¾þþþþþþþþþþþþþþþþþþþþþþþþþþþþþþþþþþþþþþþþþþþþþþþþþþþ»
 0046D6 D503 B57C B748_0057C 00748 21999                       IF    (CPACTNO,NE,CPBLKACT),BEGIN  Different Active file...
 0046E0 D603 B748 B748_00748 00748 22017  1                      IF    (CPBLKACT,Z),EXIT
 0046EA 94F7 BAC8/D703_00AC8       22036  1                      CLEAR CPVFHIDE,CPBLKACT   Reset block
 0046F4 9608 BAC9      00AC9       22048  1                      SET   CPVFMARK            Undo displayed marks
 0046F8                            22054                       END
                                   22058                       ¿þþþþþþþþþþþþþþþþþþþþþþþþþþþþþþþÜ
                                   22059                       Ÿ  Reset block if it's hidden.  Ÿ
                                   22060                       ¾þþþþþþþþþþþþþþþþþþþþþþþþþþþþþþþ»
 0046F8 9108 BAC8/47E0_00AC8       22061                       IF    CPVFHIDE,BEGIN      Clear previous hidden block...
 004700 94F7 BAC8/D703_00AC8       22076  1                      CLEAR CPVFHIDE,CPBLKACT   Reset block
 00470A                            22088                       END
                                   22092              *
                                   22093              *
 00470A 50F0 B74C            0074C 22094                       ST    R15,CPFBKLNO        Save FBLOCK lineno
 00470E 4800 BADA            00ADA 22095                       LH    R0,CPVCOL
 004712 5900 7A34/47B0_      050F8 22096                       FLOOR R0,1
 00471E D501 7B1C BD24_051E0 00D24 22115                       IF    (CPCMNM,EQ,'.<'),'LA R0,1'
 00472C 4000 B754            00754 22138                       STH   R0,CPFBKCOL         Save FBLOCK column
                                   22139                       ¿þþþþþþþþþþþþþþþþþþþþþþþþþþþþþþÜ
                                   22140                       Ÿ  Set LBLOCK if appropriate.  Ÿ
                                   22141                       ¾þþþþþþþþþþþþþþþþþþþþþþþþþþþþþþ»
 004730 D603 B748 B748_00748 00748 22142                       IF    (CPBLKACT,Z),FBKSET  New block defn, go set LBLOCK
                                   22161
 00473A 59F0 B750/4750_      00750 22162                       IF    (R15,GE,CPLBKLNO),BEGIN  Better set LBLOCK...
                                   22179  1         C            IF    ((R15,EQ,CPLBKLNO),AND,
 004742 59F0 B750/4770_      00750        1                            ((CPLBKCOL,Z),OR,(R0,LE,CPLBKCOL))),EXIT
 00475C 50F0 B750            00750 22230  1           FBKSET     ST    R15,CPLBKLNO        Set LBLOCK lineno
 004760 D701 B756 B756 00756 00756 22231  1                      CLEAR CPLBKCOL            Set column too
 004766                            22238                       END
                                   22242
 004766 D203 B748 B57C 00748 0057C 22243                       MVC   CPBLKACT,CPACTNO    Save Active file number
                                   22244
 00476C 9608 BAC9      00AC9       22245                       SET   CPVFMARK
 004770                            22251              FBKEXIT  LABEL ,
 004770 41F0 0004            00004 22253                       LA    R15,4
 004774 18D8/9808 D004_            22254                       PEND
 DROP   *,R7
1VIEW     (VIEW2025) (13:00) (15MAR04) VIEW Command                                                                         Page   58
0Current Usings:  (VWA,R6) (CP,R11) (CV,R12)
0Loc    Object Code    Addr1 Addr2  Stmt Lv Lineno    Source Statement           (Hibal 5, Asmedit 3.3)  HLASM R4.0  2004/03/15 13.00
+___    ______ ____    _____ _____  ____ __ ______    ______ _________
0                                  22275              ¿þþþþþþþþþþþþþþþþþþþþþþþþþþþþþþþþþþþþþþþþþþþþþþþþþþþþþþþþþþþþþþþþþþþþþÜ
                                   22276              Ÿ                                                                     Ÿ
                                   22277              Ÿ  LBLOCK -- ESC ) and ESC > Subcommands.                             Ÿ
                                   22278              Ÿ                                                                     Ÿ
                                                      ¾þþþþþþþþþþþþþþþþþþþþþþþþþþþþþþþþþþþþþþþþþþþþþþþþþþþþþþþþþþþþþþþþþþþþþ»
0004782 50E0 D000/9008_      00000 22279              LBLOCK   PROC
 USING  *,R7
 00479C 58F0 BADC            00ADC 22318                       L     R15,CPVLNO
 0047A0 12FF/47B0 7012             22319                       IF    (R15,NEG),BEGIN     Not on a text line...
 0047A6 9620 BACE      00ACE       22333  1                      SET   CPVFBELL
 0047AA 47F0 70B4            04850 22339  1                      B     LBKEXIT
 0047AE                            22340                       END
                                   22344                       ¿þþþþþþþþþþþþþþþþþþþþþþþþþþþþþþþþþþþþþþþþþþþþþþþþþþþÜ
                                   22345                       Ÿ  Reset block if it's in a different Active file.  Ÿ
                                   22346                       ¾þþþþþþþþþþþþþþþþþþþþþþþþþþþþþþþþþþþþþþþþþþþþþþþþþþþ»
 0047AE D503 B57C B748_0057C 00748 22347                       IF    (CPACTNO,NE,CPBLKACT),BEGIN  Different Active file...
 0047B8 D603 B748 B748_00748 00748 22365  1                      IF    (CPBLKACT,Z),EXIT
 0047C2 94F7 BAC8/D703_00AC8       22384  1                      CLEAR CPVFHIDE,CPBLKACT   Reset block
 0047CC 9608 BAC9      00AC9       22396  1                      SET   CPVFMARK            Undo displayed marks
 0047D0                            22402                       END
                                   22406                       ¿þþþþþþþþþþþþþþþþþþþþþþþþþþþþþþþÜ
                                   22407                       Ÿ  Reset block if it's hidden.  Ÿ
                                   22408                       ¾þþþþþþþþþþþþþþþþþþþþþþþþþþþþþþþ»
 0047D0 9108 BAC8/47E0_00AC8       22409                       IF    CPVFHIDE,BEGIN      Clear previous hidden block...
 0047D8 94F7 BAC8/D703_00AC8       22424  1                      CLEAR CPVFHIDE,CPBLKACT   Reset block
 0047E2                            22436                       END
                                   22440              *
                                   22441              *
 0047E2 D203 B748 B57C 00748 0057C 22442                       MVC   CPBLKACT,CPACTNO    Save Active file number
 0047E8 58F0 BADC            00ADC 22443                       L     R15,CPVLNO
 0047EC 50F0 B750            00750 22444                       ST    R15,CPLBKLNO        Save LBLOCK lineno
 0047F0 4800 BADA            00ADA 22445                       LH    R0,CPVCOL
 0047F4 5900 795C/47B0_      050F8 22446                       FLOOR R0,1
 004800 D501 7A46 BD24_051E2 00D24 22465                       IF    (CPCMNM,EQ,'.>'),'CLEAR R0'
 00480C 4000 B756            00756 22491                       STH   R0,CPLBKCOL         Save LBLOCK column
                                   22492                       ¿þþþþþþþþþþþþþþþþþþþþþþþþþþþþþþÜ
                                   22493                       Ÿ  Set FBLOCK if appropriate.  Ÿ
                                   22494                       ¾þþþþþþþþþþþþþþþþþþþþþþþþþþþþþþ»
 004810 D603 B748 B748_00748 00748 22495                       IF    (CPBLKACT,Z),LBKSET  New block defn, go set FBLOCK
                                   22514
 00481A 59F0 B74C/4730_      0074C 22515                       IF    (R15,LE,CPFBKLNO),BEGIN  Better set FBLOCK...
 004822 1200/4770 7090_            22532  1                      IF    (R0,Z),'LA R0,&LINESZ'  For last column check
 00482C 59F0 B74C/4770_      0074C 22552  1                      IF    ((R15,EQ,CPFBKLNO),AND,(R0,GE,CPFBKCOL)),EXIT
 00483C 50F0 B74C            0074C 22588  1           LBKSET     ST    R15,CPFBKLNO        Set FBLOCK lineno
 004840 D201 B754 7A48 00754 051E4 22589  1                      MVC   CPFBKCOL,=H'1'      Set column too
 004846                            22590                       END
                                   22594
 004846 D203 B748 B57C 00748 0057C 22595                       MVC   CPBLKACT,CPACTNO    Save Active file number
                                   22596
 00484C 9608 BAC9      00AC9       22597                       SET   CPVFMARK
 004850                            22603              LBKEXIT  LABEL ,
 004850 41F0 0004            00004 22605                       LA    R15,4
 004854 18D8/9808 D004_            22606                       PEND
1VIEW     (VIEW2025) (13:00) (15MAR04) VIEW Command                                                                         Page   59
0Current Usings:  (VWA,R6) (CP,R11) (CV,R12)
0Loc    Object Code    Addr1 Addr2  Stmt Lv Lineno    Source Statement           (Hibal 5, Asmedit 3.3)  HLASM R4.0  2004/03/15 13.00
+___    ______ ____    _____ _____  ____ __ ______    ______ _________
0DROP   *,R7
1VIEW     (VIEW2025) (13:00) (15MAR04) VIEW Command                                                                         Page   60
0Current Usings:  (VWA,R6) (CP,R11) (CV,R12)
0Loc    Object Code    Addr1 Addr2  Stmt Lv Lineno    Source Statement           (Hibal 5, Asmedit 3.3)  HLASM R4.0  2004/03/15 13.00
+___    ______ ____    _____ _____  ____ __ ______    ______ _________
0                                  22627              ¿þþþþþþþþþþþþþþþþþþþþþþþþþþþþþþþþþþþþþþþþþþþþþþþþþþþþþþþþþþþþþþþþþþþþþÜ
                                   22628              Ÿ                                                                     Ÿ
                                   22629              Ÿ  COPY -- ESC C and ESC M Subcommands.                               Ÿ
                                   22630              Ÿ                                                                     Ÿ
                                                      ¾þþþþþþþþþþþþþþþþþþþþþþþþþþþþþþþþþþþþþþþþþþþþþþþþþþþþþþþþþþþþþþþþþþþþþ»
0000000                00000 00014 22631              COPYWA   RECORD BEGIN
 000000 00                         22639  1           COPYFLAG   FLAG
 COPYFLAG.COPYFSPL 80 ONES         22643  1                      FLAG  COPYFSPL            - We split the target line
                                   22648  1
 000002                            22649  1           COPYLEN    DS    H                   Working block length
                                   22650  1
 000004                            22651  1           COPYCNT    DS    F                   Number of lines in block
 000008                            22652  1           COPYTLNO   DS    F                   Original target line-number
 00000C                            22653  1           COPYWLNO   DS    F                   Working line-number
 000010                            22654  1           COPYDEL    DS    F                   Working delta
 000014                00014 00014 22655                       END
                                   22664              þþþþ
 004862 50E0 D000/9008_      00000 22665              MOVE     PROC
 USING  *,R7
 00487C D202 BD24 79D0 00D24 0524C 22704                       MVC   CPCMNM,=C'.M '      Indicate move operation
 004882 58E0 78A8/0DEE       05124 22705                       ACALL COPY
 004888 41F0 0004            00004 22709                       LA    R15,4
 00488C 18D8/9808 D004_            22710                       PEND
 DROP   *,R7
                                   22730
 00489A 50E0 D000/9008_      00000 22731              COPY     PROC  COPYWA
 USING  *,R7
 USING  COPYWA-(4+36),R8
 0048B4 D713 8028 8028 00000 00000 22781                       CLEAR COPYWA
                                   22788                       ¿þþþþþþþþþþþþþþþþþþþþþþþþþþþþþþþþþþþþþþþþþþþþþÜ
                                   22789                       Ÿ  First make sure there is a block defined.  Ÿ
                                   22790                       ¾þþþþþþþþþþþþþþþþþþþþþþþþþþþþþþþþþþþþþþþþþþþþþ»
 0048BA 9108 BAC8/4710_00AC8       22791                       IF    (CPVFHIDE,OR,(CPBLKACT,Z)),BEGIN
 0048CC 4110 7874/4100_      05128 22821  1           COPYNULL   SEG   'No block defined to '
 0048DE 4110 799B/4100_      0524F 22838  1                      SETMSG 'copy.'
 0048E6 D501 7932 BD24_051E6 00D24 22842  1                      IF    (CPCMNM,EQ,'.M'),'SETMSG "move."'
 0048F8 41F0 6008/58E0_      00008 22868  1                      SEG   (R1),(R0)
 004902 9620 BACE      00ACE       22891  1                      SET   CPVFBELL
 004906 47F0 7418            04CCC 22897  1                      B     COPYRES
 00490A                            22898                       END
                                   22902
 00490A 58F0 BADC/12FF_      00ADC 22903                       IF    ('LT R15,CPVLNO',NEG),BEGIN  Not on a text line...
 004914 4110 7814/4100_      050C8 22919  1                      SEG   'First position the cursor and the press '
 004926 4110 79A5/4100_      05259 22936  1                      SETMSG 'COPY [ESC C] to copy the block.'
 00492E D501 7932 BD24_051E6 00D24 22940  1                      IF    (CPCMNM,EQ,'.M'),BEGIN
 004938 4110 79C4/4100_      05278 22957  2                        SETMSG 'MOVE [ESC M] to move the block.'
 004940                            22961  1                      END
 004940 41F0 6008/58E0_      00008 22965  1                      SEG   (R1),(R0)
 00494A 9620 BACE      00ACE       22988  1                      SET   CPVFBELL
 00494E 47F0 7422            04CD6 22994  1                      B     COPYEXIT
 004952                            22995                       END
1VIEW     (VIEW2025) (13:00) (15MAR04) VIEW Command                                                                         Page   61
0Current Usings:  (VWA,R6) (*,R7) (COPYWA-(4+36),R8) (CP,R11) (CV,R12)
0Loc    Object Code    Addr1 Addr2  Stmt Lv Lineno    Source Statement           (Hibal 5, Asmedit 3.3)  HLASM R4.0  2004/03/15 13.00
+___    ______ ____    _____ _____  ____ __ ______    ______ _________
0                                  22999                       ¿þþþþþþþþþþþþþþþþþþþþþþþþþþþÜ
                                   23000                       Ÿ  Set up the block range.  Ÿ
                                   23001                       ¾þþþþþþþþþþþþþþþþþþþþþþþþþþþ»
 004952 D201 6044 B754 00044 00754 23002                       MVC   VWAGCOL,CPFBKCOL
 004958 D203 6048 B74C 00048 0074C 23003                       MVC   VWAGLNO,CPFBKLNO
                                   23004
 00495E D601 B756 B756_00756 00756 23005                       IF    (CPLBKCOL,Z),BEGIN  Calculate ending column now...
 004968 58F0 B750            00750 23021  1                      L     R15,CPLBKLNO
 00496C 4110 6104            00104 23022  1                      LA    R1,VWAGLINE
 004970 58E0 7888/0DEE       0513C 23023  1                      ACALL BLKGLINE            Get LBLOCK line length
 004976 5900 788C/47B0_      05140 23027  1                      IF    (R0,LT,&LINESZ),'A R0,CVONE'  One trailing space
 004982 4000 B756            00756 23050  1                      STH   R0,CPLBKCOL
 004986                            23051                       END
                                   23055                       ¿þþþþþþþþþþþþþþþþþþþþþþþþþþþþþþþþþþþþþþþþþþþþÜ
                                   23056                       Ÿ  Make sure the copy/move doesn't overlap.  Ÿ
                                   23057                       ¾þþþþþþþþþþþþþþþþþþþþþþþþþþþþþþþþþþþþþþþþþþþþ»
 004986 D503 B748 B57C_00748 0057C 23058                       IF    (CPBLKACT,EQ,CPACTNO),BEGIN  Same Active file...
 004990 58F0 BADC            00ADC 23076  1                      L     R15,CPVLNO
 004994 59F0 B74C/4740_      0074C 23077  1                      IF    ((R15,LT,CPFBKLNO),OR,(R15,GT,CPLBKLNO)),EXIT
 0049A4 59F0 B74C/4770_      0074C 23113  1                      IF    ((R15,EQ,CPFBKLNO),AND,(CPVCOL,LE,CPFBKCOL)),EXIT
 0049B6 59F0 B750/4770_      00750 23150  1                      IF    ((R15,EQ,CPLBKLNO),AND,(CPVCOL,GT,CPLBKCOL)),EXIT
 0049C8 4110 7934/4100_      051E8 23187  1                      SEG   'You can''t '
 0049DA 4110 7890/4100_      05144 23204  1                      SETMSG 'copy'
 0049E2 D501 7932 BD24_051E6 00D24 23208  1                      IF    (CPCMNM,EQ,'.M'),'SETMSG "move"'
 0049F4 41F0 6008/58E0_      00008 23234  1                      SEGB  (R1),(R0)
 0049FE 4110 789C/4100_      05150 23258  1                      SEG   'a block into itself!'
 004A10 9620 BACE      00ACE       23275  1                      SET   CPVFBELL
 004A14 47F0 7422            04CD6 23281  1                      B     COPYEXIT
 004A18                            23282                       END
                                   23286                       ¿þþþþþþþþþþþþþþþþþþþþþþþþþþþþþÜ
                                   23287                       Ÿ  Process a one line block.  Ÿ
                                   23288                       ¾þþþþþþþþþþþþþþþþþþþþþþþþþþþþþ»
 004A18 D503 B74C B750_0074C 00750 23289                       IF    (CPFBKLNO,EQ,CPLBKLNO),BEGIN  Simple...
                                   23307  1
 004A22 D501 790C BADA_051C0 00ADA 23308  1                      IF    (CPVCOL,LE,1),BEGIN  Check for entire line copy...
 004A2C D501 790C B754_051C0 00754 23326  2                        IF    (CPFBKCOL,NE,1),EXIT  Nope, forget it
 004A36 58F0 B74C            0074C 23347  2                        L     R15,CPFBKLNO
 004A3A 4110 6104            00104 23348  2                        LA    R1,VWAGLINE
 004A3E 58E0 7888/0DEE       0513C 23349  2                        ACALL BLKGLINE            Get the block line
 004A44 4770 7018            048CC 23353  2                        BNZ   COPYNULL            Trouble, scram
 004A48 4900 B756/47C0_      00756 23354  2                        IF    (CPLBKCOL,GE,R0),COPYMULT  Entire line, do mult copy
 004A50                            23374  1                      END
                                   23378  1
 004A50 58E0 78B0/0DEE       05164 23379  1                      ACALL BLKGET              Get the block
 004A56 4770 7018            048CC 23383  1                      BNZ   COPYNULL            Trouble, scram
                                   23384  1
 004A5A 4000 802A            00002 23385  1                      STH   R0,COPYLEN
 004A5E 1851                       23386  1                      LR    R5,R1
 004A60 1840                       23387  1                      LR    R4,R0
                                   23388  1
 004A62 58F0 BADC            00ADC 23389  1                      L     R15,CPVLNO
 004A66 4110 6204            00204 23390  1                      LA    R1,VWAPLINE
 004A6A 58E0 783C/0DEE       050F0 23391  1                      VCALL GETLINE             Get the target line
 004A70 4770 7018            048CC 23395  1                      BNZ   COPYNULL
1VIEW     (VIEW2025) (13:00) (15MAR04) VIEW Command                                                                         Page   62
0Current Usings:  (VWA,R6) (*,R7) (COPYWA-(4+36),R8) (CP,R11) (CV,R12)
0Loc    Object Code    Addr1 Addr2  Stmt Lv Lineno    Source Statement           (Hibal 5, Asmedit 3.3)  HLASM R4.0  2004/03/15 13.00
+___    ______ ____    _____ _____  ____ __ ______    ______ _________
0004A74 4900 BADA/47B0_      00ADA 23396  1                      FLOOR R0,CPVCOL           Extend line to cursor
 004A80 1820                       23402  1                      LR    R2,R0
 004A82 1A04                       23403  1                      AR    R0,R4               New total line length
 004A84 5900 788C/4720_      05140 23404  1                      IF    (R0,GT,&LINESZ),EXIT  Handle as a complex block
                                   23424  1
 004A8C 1831                       23425  1                      LR    R3,R1
 004A8E 48F0 BADA            00ADA 23426  1                      LH    R15,CPVCOL
 004A92 06F0                       23427  1                      DECR  R15
 004A94 1A3F                       23429  1                      AR    R3,R15              Text after block ptr
 004A96 1B2F                       23430  1                      SR    R2,R15
                                   23431  1
 004A98 0620/1222/4740_            23432  1                      MOVE  R2,@R13,@R3         Save text after insertion point
 004AA4 41F4 3000            00000 23470  1                      LA    R15,@R3(R4)
 004AA8 0640/1244/4740_            23471  1                      MOVE  R4,@R3,@R5          Add block text
 004AB4 1222/4740 720A_            23509  1                      TEX   R2,'MVC @R15(0),@R13'  Restore remainder of line
                                   23544  1
 004ABE 58F0 BADC            00ADC 23545  1                      L     R15,CPVLNO
 004AC2 58E0 78B4/0DEE       05168 23546  1                      VCALL PUTLINE             Replace the line
                                   23550  1
 004AC8 D203 8034 B74C 0000C 0074C 23551  1                      MVC   COPYWLNO,CPFBKLNO   Save FBLOCK lineno (before del)
                                   23552  1                      ¿þþþþþþþþþþþþþþþþþþþþþþþþþþþþþþþþþÜ
                                   23553  1                      Ÿ  Keep block position accurate.  Ÿ
                                   23554  1                      ¾þþþþþþþþþþþþþþþþþþþþþþþþþþþþþþþþþ»
 004ACE D503 BADC B74C_00ADC 0074C 23555  1                      IF    (CPVLNO,EQ,CPFBKLNO),BEGIN  On the same line...
 004AD8 D503 B748 B57C_00748 0057C 23573  2                        IF    (CPBLKACT,NE,CPACTNO),EXIT  Different Active, scram
 004AE2 D501 BADA B756_00ADA 00756 23594  2                        IF    (CPVCOL,GT,CPLBKCOL),EXIT  New text is past block
 004AEC 48F0 B754            00754 23615  2                        LH    R15,CPFBKCOL
 004AF0 4AF0 802A            00002 23616  2                        AH    R15,COPYLEN
 004AF4 40F0 B754            00754 23617  2                        STH   R15,CPFBKCOL        New starting column
                                   23618  2
 004AF8 48F0 B756            00756 23619  2                        LH    R15,CPLBKCOL
 004AFC 4AF0 802A            00002 23620  2                        AH    R15,COPYLEN
 004B00 40F0 B756            00756 23621  2                        STH   R15,CPLBKCOL        New ending column
 004B04                            23622  1                      END
                                   23626  1                      ¿þþþþþþþþþþþþþþþþþþþþþþþþþþþþþþþþþþþÜ
                                   23627  1                      Ÿ  Delete the old block (if move).  Ÿ
                                   23628  1                      ¾þþþþþþþþþþþþþþþþþþþþþþþþþþþþþþþþþþþ»
 004B04 D501 7932 BD24_051E6 00D24 23629  1                      IF    (CPCMNM,EQ,'.M'),BEGIN  Move...
 004B0E 58E0 78B8/0DEE       0516C 23646  2                        ACALL DELETE              First delete the block
                                   23650  2
 004B14 D203 B748 B57C 00748 0057C 23651  2                        MVC   CPBLKACT,CPACTNO    Block is now the destination
 004B1A D203 B74C BADC 0074C 00ADC 23652  2                        MVC   CPFBKLNO,CPVLNO
 004B20 D203 B750 BADC 00750 00ADC 23653  2                        MVC   CPLBKLNO,CPVLNO
 004B26 48F0 BADA            00ADA 23654  2                        LH    R15,CPVCOL
 004B2A 59F0 7844/47B0_      050F8 23655  2                        FLOOR R15,1
 004B36 40F0 B754            00754 23674  2                        STH   R15,CPFBKCOL        Set appropriate columns
 004B3A 4AF0 802A            00002 23675  2                        AH    R15,COPYLEN
 004B3E 06F0                       23676  2                        DECR  R15
 004B40 40F0 B756            00756 23678  2                        STH   R15,CPLBKCOL
 004B44                            23679  1                      END
                                   23683  1
 004B44 D203 6004 BADC 00004 00ADC 23684  1                      MVC   VWACHKL,CPVLNO      Make sure line is on page
                                   23685  1
 004B4A 4850 BAD6            00AD6 23686  1                      LH    R5,CPVWCUR
1VIEW     (VIEW2025) (13:00) (15MAR04) VIEW Command                                                                         Page   63
0Current Usings:  (VWA,R6) (*,R7) (COPYWA-(4+36),R8) (CP,R11) (CV,R12)
0Loc    Object Code    Addr1 Addr2  Stmt Lv Lineno    Source Statement           (Hibal 5, Asmedit 3.3)  HLASM R4.0  2004/03/15 13.00
+___    ______ ____    _____ _____  ____ __ ______    ______ _________
0004B4E 4C50 793E            051F2 23687  1                      MH    R5,=AL2(L'WIND)
 004B52 5A50 BB5C            00B5C 23688  1                      A     R5,CPXWIND
 USING  WIND,R5                    23689  1                      WITH  (WIND,R5),BEGIN
 004B56 9110 5000/47E0_00000       23703  2                        IF    WINFWRAP,BEGIN      Do any wordwrapping...
 004B5E D501 7932 BD24_051E6 00D24 23718  3                          IF    ((CPCMNM,EQ,'.M'),AND,(CPVLNO,EQ,COPYWLNO)),EXIT
 004B72 58E0 78BC/0DEE       05170 23755  3                          ACALL WRAP                Do wordwrapping if needed
 004B78                            23759  2                        END
 DROP   WIND,R5                    23763  1                      END
 004B78 47F0 7418            04CCC 23771  1                      B     COPYRES
 004B7C                            23772                       END
                                   23776                       ¿þþþþþþþþþþþþþþþþþþþþþþþþþþþþþþþÜ
                                   23777                       Ÿ  Process a multi-line block.  Ÿ
                                   23778                       ¾þþþþþþþþþþþþþþþþþþþþþþþþþþþþþþþ»
 004B7C 58F0 BADC            00ADC 23779              COPYMULT L     R15,CPVLNO
 004B80 4800 BADA            00ADA 23780                       LH    R0,CPVCOL
 004B84 5900 7844/47D0_      050F8 23781                       IF    (R0,GT,1),BEGIN     First split the line...
 004B8C 58E0 7848/0DEE       050FC 23798  1                      VCALL CHOPLINE
 004B92 18F0                       23802  1                      LR    R15,R0              Original line-number
 004B94 9680 8028      00000       23803  1                      SET   COPYFSPL            Remember that we split it
 004B98                            23809                       END
 004B98 72E8/47F0 731E 04B98 04B8A 23813                       ELSE  BEGIN
 004B9C 50F0 B73C            0073C 23824  1                      ST    R15,CPLCNO
 004BA0 58E0 784C/0DEE       05100 23825  1                      VCALL PREVLNO             Get line before cursor
 004BA6 4780 7316            04BCA 23829  1                      IF    NZ,BEGIN            No previous line...
 004BAA 59F0 78C0/4770_      05174 23840  2                        IF    (R15,EQ,-8),'SET CPVFBELL; B COPYEXIT'  Line zero!
 004BBA 5810 B73C            0073C 23868  2                        L     R1,CPLCNO
 004BBE 58E0 78C4/0DEE       05178 23869  2                        VCALL SELDELTA            Amount to backup
 004BC4 58F0 B73C            0073C 23873  2                        L     R15,CPLCNO          First lineno
 004BC8 1BF1                       23874  2                        SR    R15,R1              Calclated target lineno
 004BCA                            23875  1                      END
 004BCA 731A/47F0 731E_04BCA 04BA8 23879  1                      ELSE  'L R15,CPLCNO'      Target lineno
 004BD2                            23896                       END
                                   23900
 004BD2 50F0 8030            00008 23901                       ST    R15,COPYTLNO        Save target line-number
 004BD6 50F0 8034            0000C 23902                       ST    R15,COPYWLNO        Save working (first) line-number
 004BDA D203 BADC 78C8 00ADC 0517C 23903                       MVC   CPVLNO,=F'-1000'    Cursor pos will be set later
                                   23904                       ¿þþþþþþþþþþþþþþþþþþþþþþþþþþþþþþþþþþþþþþþþþþþþþþþþþþþÜ
                                   23905                       Ÿ  Find out how many lines there are in the block.  Ÿ
                                   23906                       ¾þþþþþþþþþþþþþþþþþþþþþþþþþþþþþþþþþþþþþþþþþþþþþþþþþþþ»
 004BE0 58F0 B748            00748 23907                       L     R15,CPBLKACT
 004BE4 58E0 78CC/0DEE       05180 23908                       VCALL ACTPICK             Destination Active file
 004BEA 182F                       23912                       LR    R2,R15
                                   23913
 004BEC 5800 B74C            0074C 23914                       L     R0,CPFBKLNO
 004BF0 5810 B750            00750 23915                       L     R1,CPLBKLNO
 004BF4 58E0 78D0/0DEE       05184 23916                       VCALL CNTRANGE            Get the line count
 004BFA 50F0 802C            00004 23920                       ST    R15,COPYCNT
                                   23921
 004BFE 18F2                       23922                       LR    R15,R2
 004C00 58E0 78CC/0DEE       05180 23923                       VCALL ACTPICK             Switch back
                                   23927
 004C06 D603 802C 802C_00004 00004 23928                       IF    (COPYCNT,Z),'SET CPVFBELL; B COPYEXIT'  (Odd)
1VIEW     (VIEW2025) (13:00) (15MAR04) VIEW Command                                                                         Page   64
0Current Usings:  (VWA,R6) (*,R7) (COPYWA-(4+36),R8) (CP,R11) (CV,R12)
0Loc    Object Code    Addr1 Addr2  Stmt Lv Lineno    Source Statement           (Hibal 5, Asmedit 3.3)  HLASM R4.0  2004/03/15 13.00
+___    ______ ____    _____ _____  ____ __ ______    ______ _________
0                                  23956                       ¿þþþþþþþþþþþþþþþþþþþþþþþþþþþþþþþþþþþþþþþþþþþþþþþþþþþþþÜ
                                   23957                       Ÿ  Get a starting line-number and appropriate delta.  Ÿ
                                   23958                       ¾þþþþþþþþþþþþþþþþþþþþþþþþþþþþþþþþþþþþþþþþþþþþþþþþþþþþþ»
 004C18 58F0 8034            0000C 23959                       L     R15,COPYWLNO
 004C1C 5800 802C            00004 23960                       L     R0,COPYCNT
 004C20 58E0 7850/0DEE       05104 23961                       VCALL CHKLINES            Get starting lineno and delta
 004C26 50F0 8034            0000C 23965                       ST    R15,COPYWLNO
 004C2A 5010 8038            00010 23966                       ST    R1,COPYDEL
                                   23967
 004C2E D203 6048 B74C 00048 0074C 23968                       MVC   VWAGLNO,CPFBKLNO    Reset (could have been renum)
                                   23969                       ¿þþþþþþþþþþþþþþþþþþþÜ
                                   23970                       Ÿ  Copy the block.  Ÿ
                                   23971                       ¾þþþþþþþþþþþþþþþþþþþ»
 004C34 58E0 78B0/0DEE_      05164 23972                       WHILE ('ACALL BLKGET',Z),BEGIN  Copy the block...
 004C3E 58F0 8034            0000C 23990  1                      L     R15,COPYWLNO
 004C42 5AF0 8038            00010 23991  1                      A     R15,COPYDEL         Next lineno to use
 004C46 50F0 8034            0000C 23992  1                      ST    R15,COPYWLNO
                                   23993  1
 004C4A D503 78D4 BADC_05188 00ADC 23994  1                      IF    (CPVLNO,EQ,-1000),BEGIN  Assign cursor line...
 004C54 50F0 BADC            00ADC 24012  2                        ST    R15,CPVLNO          Set cursor lineno
 004C58 D701 BADA BADA 00ADA 00ADA 24013  2                        CLEAR CPVCOL              Calculate cursor column
 004C5E                            24020  1                      END
                                   24024  1
 004C5E 58E0 78B4/0DEE       05168 24025  1                      VCALL PUTLINE             Add the line
 004C64 47F0 7380            04C34 24029                       END
                                   24034                       ¿þþþþþþþþþþþþþþþþþþþþþþþþþþþþþþþþþþþþþþþþþþþþþþþþþþþþÜ
                                   24035                       Ÿ  If it's a move, finish up by deleting the block.  Ÿ
                                   24036                       ¾þþþþþþþþþþþþþþþþþþþþþþþþþþþþþþþþþþþþþþþþþþþþþþþþþþþþ»
 004C68 D501 7932 BD24_051E6 00D24 24037                       IF    (CPCMNM,EQ,'.M'),BEGIN  Move...
 004C72 58E0 78B8/0DEE       0516C 24054  1                      ACALL DELETE              Delete the old block
                                   24058  1
 004C78 D203 B748 B57C 00748 0057C 24059  1                      MVC   CPBLKACT,CPACTNO    Block is now the destination
 004C7E D203 B74C BADC 0074C 00ADC 24060  1                      MVC   CPFBKLNO,CPVLNO
 004C84 D201 B754 7930 00754 051E4 24061  1                      MVC   CPFBKCOL,=H'1'
 004C8A D203 B750 8034 00750 0000C 24062  1                      MVC   CPLBKLNO,COPYWLNO
 004C90 D701 B756 B756 00756 00756 24063  1                      CLEAR CPLBKCOL
 004C96                            24070                       END
                                   24074                       ¿þþþþþþþþþþþþþþþþþþþþþþþþþþþþþþþþþþþþþþþþþþþþþþþþþþþþþþþþþÜ
                                   24075                       Ÿ  Try to join the cursor line to the first line copied.  Ÿ
                                   24076                       ¾þþþþþþþþþþþþþþþþþþþþþþþþþþþþþþþþþþþþþþþþþþþþþþþþþþþþþþþþþ»
 004C96 9180 8028/47E0_00000       24077                       IF    COPYFSPL,BEGIN      Only if we split the line...
 004C9E 1B00                       24092  1                      CLEAR R0
 004CA0 4110 00EB            000EB 24096  1                      LA    R1,&LINESZ
 004CA4 58F0 8030            00008 24097  1                      L     R15,COPYTLNO
 004CA8 58E0 78D8/0DEE       0518C 24098  1                      VCALL JOINLINE            Join lines
 004CAE 4770 7418            04CCC 24102  1                      IF    NZ,EXIT             Problems, scram
                                   24116  1
 004CB2 4850 BAD6            00AD6 24117  1                      LH    R5,CPVWCUR
 004CB6 4C50 793E            051F2 24118  1                      MH    R5,=AL2(L'WIND)
 004CBA 5A50 BB5C            00B5C 24119  1                      A     R5,CPXWIND
 USING  WIND,R5                    24120  1                      WITH  (WIND,R5),BEGIN
 004CBE 9110 5000/47E0_00000       24134  2                        IF    WINFWRAP,BEGIN      Do any wordwrapping...
 004CC6 58E0 78BC/0DEE       05170 24149  3                          ACALL WRAP                Wrap line if needed
 004CCC                            24153  2                        END
1VIEW     (VIEW2025) (13:00) (15MAR04) VIEW Command                                                                         Page   65
0Current Usings:  (VWA,R6) (*,R7) (COPYWA-(4+36),R8) (CP,R11) (CV,R12)
0Loc    Object Code    Addr1 Addr2  Stmt Lv Lineno    Source Statement           (Hibal 5, Asmedit 3.3)  HLASM R4.0  2004/03/15 13.00
+___    ______ ____    _____ _____  ____ __ ______    ______ _________
0DROP   WIND,R5                    24157  1                      END
 004CCC                            24165                       END
                                   24169                       ¿þþþþþþþþþþþþþþþþþþþþþþþþþþþþþþþþÜ
                                   24170                       Ÿ  Finally, undefine the block.  Ÿ
                                   24171                       ¾þþþþþþþþþþþþþþþþþþþþþþþþþþþþþþþþ»
 004CCC 9610 BAC8      00AC8       24172              COPYRES  SET   CPVFCH              File changes have occurred
 004CD0 58E0 78DC/0DEE       05190 24179                       ACALL UNMARK              Undefine the block
 004CD6                            24183              COPYEXIT LABEL ,
 004CD6 41F0 0004            00004 24185                       LA    R15,4
 004CDA 18D8/9808 D004_            24186                       PEND
 DROP   COPYWA-(4+36),R8
 DROP   *,R7
1VIEW     (VIEW2025) (13:00) (15MAR04) VIEW Command                                                                         Page   66
0Current Usings:  (VWA,R6) (CP,R11) (CV,R12)
0Loc    Object Code    Addr1 Addr2  Stmt Lv Lineno    Source Statement           (Hibal 5, Asmedit 3.3)  HLASM R4.0  2004/03/15 13.00
+___    ______ ____    _____ _____  ____ __ ______    ______ _________
0                                  24212              ¿þþþþþþþþþþþþþþþþþþþþþþþþþþþþþþþþþþþþþþþþþþþþþþþþþþþþþþþþþþþþþþþþþþþþþÜ
                                   24213              Ÿ                                                                     Ÿ
                                   24214              Ÿ  DELETE -- DEL B Subcommand.                                        Ÿ
                                   24215              Ÿ                                                                     Ÿ
                                                      ¾þþþþþþþþþþþþþþþþþþþþþþþþþþþþþþþþþþþþþþþþþþþþþþþþþþþþþþþþþþþþþþþþþþþþþ»
0000000                00000 00004 24216              DELWA    RECORD BEGIN
 000000                            24224  1           DELOLDAN   DS    F                   Previous Active file number
 000004                00004 00004 24225                       END
                                   24234              þþþþ
 004CE8 50E0 D000/9008_      00000 24235              DELETE   PROC  DELWA
 USING  *,R7
 USING  DELWA-(4+36),R8
                                   24285                       ¿þþþþþþþþþþþþþþþþþþþþþþþþþþþþþþþþþþþþþþþþþþþþþÜ
                                   24286                       Ÿ  First make sure there is a block defined.  Ÿ
                                   24287                       ¾þþþþþþþþþþþþþþþþþþþþþþþþþþþþþþþþþþþþþþþþþþþþþ»
 004D02 9108 BAC8/4710_00AC8       24288                       IF    (CPVFHIDE,OR,(CPBLKACT,Z)),BEGIN
 004D14 4110 7595/4100_      05297 24318  1           DELNULL    SEG   'No block defined to delete.'
 004D26 9620 BACE      00ACE       24335  1                      SET   CPVFBELL
 004D2A 47F0 71EC            04EEE 24341  1                      B     DELRESET
 004D2E                            24342                       END
                                   24346                       ¿þþþþþþþþþþþþþþþþþþþþþþþþþþþþþþþþþþþþþþþþþþþþþÜ
                                   24347                       Ÿ  Switch into the marked block Active file.  Ÿ
                                   24348                       ¾þþþþþþþþþþþþþþþþþþþþþþþþþþþþþþþþþþþþþþþþþþþþþ»
 004D2E D203 8028 B57C 00000 0057C 24349                       MVC   DELOLDAN,CPACTNO    Save previous Active file number
 004D34 D503 B57C B748_0057C 00748 24350                       IF    (CPACTNO,NE,CPBLKACT),BEGIN  Switch Actives...
 004D3E 58F0 B748            00748 24368  1                      L     R15,CPBLKACT        New Active file number
 004D42 58E0 747E/0DEE       05180 24369  1                      VCALL ACTPICK
 004D48 50F0 8028            00000 24373  1                      ST    R15,DELOLDAN        Save previous Active file number
 004D4C                            24374                       END
                                   24378              *
                                   24379              *
 004D4C D601 B756 B756_00756 00756 24380                       IF    (CPLBKCOL,Z),'MVC CPLBKCOL,=AL2(&LINESZ)'
                                   24402                      ¿þþþþþþþþþþþþþþþþþþþþþþþþþþþþþþþþþþþþþþþþþþþþþþþþþþþþþþþþþþþþþþþþÜ
                                   24403                      Ÿ  Move the cursor position if it is in the area to be deleted.  Ÿ
                                   24404                      ¾þþþþþþþþþþþþþþþþþþþþþþþþþþþþþþþþþþþþþþþþþþþþþþþþþþþþþþþþþþþþþþþþ»
 004D5C 58F0 BADC            00ADC 24405                       L     R15,CPVLNO          Cursor lineno
 004D60 D503 B57C B748_0057C 00748 24406                       IF    (CPACTNO,EQ,CPBLKACT),BEGIN  Same Active file...
 004D6A 59F0 B74C/4750_      0074C 24424  1                      IF    ((R15,GE,CPFBKLNO),AND,(R15,LE,CPLBKLNO)),BEGIN
 004D7A 59F0 B74C/4770_      0074C 24457  2                        IF    ((R15,EQ,CPFBKLNO),AND,(CPVCOL,LE,CPFBKCOL)),EXIT
 004D8C 59F0 B750/4770_      00750 24494  2                        IF    ((R15,EQ,CPLBKLNO),AND,(CPVCOL,GT,CPLBKCOL)),BEGIN
 004D9E 4800 BADA            00ADA 24528  3                          LH    R0,CPVCOL
 004DA2 48F0 B756            00756 24529  3                          LH    R15,CPLBKCOL
 004DA6 D503 B74C B750_0074C 00750 24530  3                          IF    (CPFBKLNO,EQ,CPLBKLNO),'SH R15,CPFBKCOL; LA R15,@R15+1'
 004DB8 1B0F                       24555  3                          SR    R0,R15              Adjust cursor column position
 004DBA 4000 BADA            00ADA 24556  3                          STH   R0,CPVCOL
 004DBE                            24557  2                        END
                                   24561  2
 004DBE 70C0/70C0/47F0_04DBE 04D92 24562  2                        ELSE  BEGIN
 004DC2 D203 BADC B74C 00ADC 0074C 24575  3                          MVC   CPVLNO,CPFBKLNO     New cursor line
 004DC8 D201 BADA B754 00ADA 00754 24576  3                          MVC   CPVCOL,CPFBKCOL     ...and column
 004DCE                            24577  2                        END
 004DCE                            24581  1                      END
 004DCE                            24585                       END
1VIEW     (VIEW2025) (13:00) (15MAR04) VIEW Command                                                                         Page   67
0Current Usings:  (VWA,R6) (*,R7) (DELWA-(4+36),R8) (CP,R11) (CV,R12)
0Loc    Object Code    Addr1 Addr2  Stmt Lv Lineno    Source Statement           (Hibal 5, Asmedit 3.3)  HLASM R4.0  2004/03/15 13.00
+___    ______ ____    _____ _____  ____ __ ______    ______ _________
0                                  24589                       ¿þþþþþþþþþþþþþþþþþþþþþþþþþþþþþÜ
                                   24590                       Ÿ  Process a one line block.  Ÿ
                                   24591                       ¾þþþþþþþþþþþþþþþþþþþþþþþþþþþþþ»
 004DCE D503 B74C B750_0074C 00750 24592                       IF    (CPFBKLNO,EQ,CPLBKLNO),BEGIN  Simple...
 004DD8 58F0 B74C            0074C 24610  1                      L     R15,CPFBKLNO
 004DDC 4110 6204            00204 24611  1                      LA    R1,VWAPLINE
 004DE0 58E0 73EE/0DEE       050F0 24612  1                      VCALL GETLINE             Get target line
 004DE6 4770 7012            04D14 24616  1                      BNZ   DELNULL
 004DEA 4900 B756/47B0_      00756 24617  1                      FLOOR R0,CPLBKCOL         Extend line to end of block
                                   24623  1
 004DF6 4840 B756            00756 24624  1                      LH    R4,CPLBKCOL
 004DFA 4830 B754            00754 24625  1                      LH    R3,CPFBKCOL
                                   24626  1
 004DFE 1850                       24627  1                      LR    R5,R0
 004E00 1B54                       24628  1                      SR    R5,R4               Size of line after block
                                   24629  1
 004E02 1824                       24630  1                      LR    R2,R4
 004E04 1B23                       24631  1                      SR    R2,R3
 004E06 4120 2001            00001 24632  1                      LA    R2,@R2+1            Size of block
 004E0A 5930 73F6/4770_      050F8 24633  1                      IF    ((R3,EQ,1),AND,(R2,GE,R0)),EXIT  Delete line
                                   24667  1
 004E18 1B02                       24668  1                      SR    R0,R2               Reduce line length appropriately
                                   24669  1
 004E1A 4133 1000            00000 24670  1                      LA    R3,@R1(R3)
 004E1E 0630                       24671  1                      DECR  R3                  Start of block ptr
 004E20 4144 1000            00000 24673  1                      LA    R4,@R1(R4)          Text after block ptr
 004E24 0650/1255/4740_            24674  1                      MOVE  R5,@R3,@R4          Delete the text
                                   24712  1
 004E30 58F0 B73C            0073C 24713  1                      L     R15,CPLCNO          Line-number
 004E34 58E0 7406/0DEE       05108 24714  1                      VCALL VPUTLINE            Replace the line
 004E3A 47F0 71D4            04ED6 24718  1                      B     DELDONE
 004E3E                            24719                       END
                                   24723                       ¿þþþþþþþþþþþþþþþþþþþþþþþþþþþþþþþÜ
                                   24724                       Ÿ  Process a multi-line block.  Ÿ
                                   24725                       ¾þþþþþþþþþþþþþþþþþþþþþþþþþþþþþþþ»
 004E3E 5850 B74C            0074C 24726                       L     R5,CPFBKLNO
 004E42 D501 74BE B754_051C0 00754 24727                       IF    (CPFBKCOL,NE,1),BEGIN  Need to delete partial line...
 004E4C 18F5                       24745  1                      LR    R15,R5
 004E4E 4110 6204            00204 24746  1                      LA    R1,VWAPLINE
 004E52 58E0 73EE/0DEE       050F0 24747  1                      VCALL GETLINE             Get FBLOCK line
 004E58 4770 7176            04E78 24751  1                      IF    NZ,EXIT             Not found, scram
 004E5C 4900 B754/47D0_      00754 24765  1                      IF    (R0,GT,CPFBKCOL),BEGIN  Need to truncate line...
 004E64 4800 B754            00754 24782  2                        LH    R0,CPFBKCOL
 004E68 0600                       24783  2                        DECR  R0
 004E6A 58F0 B73C            0073C 24785  2                        L     R15,CPLCNO          Line-number
 004E6E 58E0 7406/0DEE       05108 24786  2                        VCALL VPUTLINE            Replace the line
 004E74                            24790  1                      END
 004E74 5A50 C4D0            004D0 24794  1                      A     R5,CVONE            Next line
 004E78                            24795                       END
                                   24799
 004E78 1805                       24800                       LR    R0,R5               R0 = first line to delete
 004E7A 5810 B750            00750 24801                       L     R1,CPLBKLNO
 004E7E 0610                       24802                       DECR  R1                  R1 = last line-1 to delete
 004E80 58E0 740E/0DEE       05110 24804                       VCALL DELRANGE            Delete range of lines
1VIEW     (VIEW2025) (13:00) (15MAR04) VIEW Command                                                                         Page   68
0Current Usings:  (VWA,R6) (*,R7) (DELWA-(4+36),R8) (CP,R11) (CV,R12)
0Loc    Object Code    Addr1 Addr2  Stmt Lv Lineno    Source Statement           (Hibal 5, Asmedit 3.3)  HLASM R4.0  2004/03/15 13.00
+___    ______ ____    _____ _____  ____ __ ______    ______ _________
0                                  24808
 004E86 58F0 B750            00750 24809                       L     R15,CPLBKLNO
 004E8A 4110 6204            00204 24810                       LA    R1,VWAPLINE
 004E8E 58E0 73EE/0DEE       050F0 24811                       VCALL GETLINE             Get the last line
 004E94 4770 71D4            04ED6 24815                       IF    Z,BEGIN             We got it...
 004E98 4820 B756            00756 24826  1                      LH    R2,CPLBKCOL
 004E9C 1B02                       24827  1                      SR    R0,R2               New line length
 004E9E 1222/4780 71A8_            24828  1                      IF    ((R2,Z),OR,(R0,NP)),BEGIN  Delete the entire line...
 004EAA 5800 B750            00750 24855  2                        L     R0,CPLBKLNO         Line-number to delete
 004EAE 1810                       24856  2                        LR    R1,R0
 004EB0 58E0 740E/0DEE       05110 24857  2                        VCALL DELRANGE            Delete line
 004EB6                            24861  1                      END
                                   24865  1
 004EB6 71B8/47F0 71D4 04EB6 04EA8 24866  1                      ELSE  BEGIN               Partial delete of last line...
 004EBA 4132 1000            00000 24877  2                        LA    R3,@R1(R2)          Text after block
 004EBE 18F0                       24878  2                        LR    R15,R0
 004EC0 06F0/12FF/4740_            24879  2                        MOVE  R15,@R1,@R3
 004ECC 58F0 B73C            0073C 24917  2                        L     R15,CPLCNO
 004ED0 58E0 7406/0DEE       05108 24918  2                        VCALL VPUTLINE            Replace the line
 004ED6                            24922  1                      END
 004ED6                            24926                       END
                                   24930                       ¿þþþþþþþþþþþþþþþþþþþþþþþþþþþþþþþþþþþþþþþþþþþþþÜ
                                   24931                       Ÿ  Switch into the marked block Active file.  Ÿ
                                   24932                       ¾þþþþþþþþþþþþþþþþþþþþþþþþþþþþþþþþþþþþþþþþþþþþþ»
 004ED6 58F0 8028            00000 24933              DELDONE  L     R15,DELOLDAN        Previous Active file number
 004EDA 58E0 747E/0DEE       05180 24934                       VCALL ACTPICK
                                   24938
 004EE0 D703 B748 B748 00748 00748 24939                       CLEAR CPBLKACT            Reset block
 004EE6 9608 BAC9      00AC9       24946                       SET   CPVFMARK            Block marks have changed
 004EEA 9610 BAC8      00AC8       24952                       SET   CPVFCH              File changes have occurred
                                   24958
 004EEE 58E0 748E/0DEE       05190 24959              DELRESET ACALL UNMARK              Remove block definition
 004EF4 41F0 0004            00004 24963                       LA    R15,4
 004EF8 18D8/9808 D004_            24964                       PEND
 DROP   DELWA-(4+36),R8
 DROP   *,R7
1VIEW     (VIEW2025) (13:00) (15MAR04) VIEW Command                                                                         Page   69
0Current Usings:  (VWA,R6) (CP,R11) (CV,R12)
0Loc    Object Code    Addr1 Addr2  Stmt Lv Lineno    Source Statement           (Hibal 5, Asmedit 3.3)  HLASM R4.0  2004/03/15 13.00
+___    ______ ____    _____ _____  ____ __ ______    ______ _________
0                                  24990              ¿þþþþþþþþþþþþþþþþþþþþþþþþþþþþþþþþþþþþþþþþþþþþþþþþþþþþþþþþþþþþþþþþþþþþþÜ
                                   24991              Ÿ                                                                     Ÿ
                                   24992              Ÿ  REMARK -- ESC + Subcommand.                                        Ÿ
                                   24993              Ÿ                                                                     Ÿ
                                                      ¾þþþþþþþþþþþþþþþþþþþþþþþþþþþþþþþþþþþþþþþþþþþþþþþþþþþþþþþþþþþþþþþþþþþþþ»
0004F06 50E0 D000/9008_      00000 24994              REMARK   PROC
 USING  *,R7
 004F20 D603 B748 B748_00748 00748 25033                       IF    (CPBLKACT,Z),BEGIN  No block defined...
 004F2A 4110 7274/4100_      05194 25049  1                      SEG   'No block is defined.'
 004F3C 9620 BACE      00ACE       25066  1                      SET   CPVFBELL
 004F40 47F0 704E            04F6E 25072  1                      B     REBLEXIT
 004F44                            25073                       END
                                   25077
 004F44 9108 BAC8/4710_00AC8       25078                       IF    ~CPVFHIDE,BEGIN     Block is not hidden...
 004F4C 4110 7288/4100_      051A8 25093  1                      SEG   'Block is not hidden.'
 004F5E 9620 BACE      00ACE       25110  1                      SET   CPVFBELL
 004F62 47F0 704E            04F6E 25116  1                      B     REBLEXIT
 004F66                            25117                       END
                                   25121
 004F66 94F7 BAC8      00AC8       25122                       CLEAR CPVFHIDE
 004F6A 9608 BAC9      00AC9       25129                       SET   CPVFMARK            Block needs to be shown
 004F6E                            25135              REBLEXIT LABEL ,
 004F6E 41F0 0004            00004 25137                       LA    R15,4
 004F72 18D8/9808 D004_            25138                       PEND
 DROP   *,R7
1VIEW     (VIEW2025) (13:00) (15MAR04) VIEW Command                                                                         Page   70
0Current Usings:  (VWA,R6) (CP,R11) (CV,R12)
0Loc    Object Code    Addr1 Addr2  Stmt Lv Lineno    Source Statement           (Hibal 5, Asmedit 3.3)  HLASM R4.0  2004/03/15 13.00
+___    ______ ____    _____ _____  ____ __ ______    ______ _________
0                                  25159              ¿þþþþþþþþþþþþþþþþþþþþþþþþþþþþþþþþþþþþþþþþþþþþþþþþþþþþþþþþþþþþþþþþþþþþþÜ
                                   25160              Ÿ                                                                     Ÿ
                                   25161              Ÿ  UNMARK -- ESC - Subcommand.                                        Ÿ
                                   25162              Ÿ                                                                     Ÿ
                                                      ¾þþþþþþþþþþþþþþþþþþþþþþþþþþþþþþþþþþþþþþþþþþþþþþþþþþþþþþþþþþþþþþþþþþþþþ»
0004F80 50E0 D000/9008_      00000 25163              UNMARK   PROC
 USING  *,R7
 004F9A 9108 BAC8/4710_00AC8       25202                       IF    (~CPVFHIDE,AND,(CPBLKACT,NZ)),BEGIN
 004FAC 9608 BAC8/9608_00AC8       25232  1                      SET   CPVFHIDE,CPVFMARK   Hide the block
 004FB4                            25242                       END
 004FB4 41F0 0004            00004 25246                       LA    R15,4
 004FB8 18D8/9808 D004_            25247                       PEND
 DROP   *,R7
1VIEW     (VIEW2025) (13:00) (15MAR04) VIEW Command                                                                         Page   71
0Current Usings:  (VWA,R6) (CP,R11) (CV,R12)
0Loc    Object Code    Addr1 Addr2  Stmt Lv Lineno    Source Statement           (Hibal 5, Asmedit 3.3)  HLASM R4.0  2004/03/15 13.00
+___    ______ ____    _____ _____  ____ __ ______    ______ _________
0                                  25268              ¿þþþþþþþþþþþþþþþþþþþþþþþþþþþþþþþþþþþþþþþþþþþþþþþþþþþþþþþþþþþþþþþþþþþþþÜ
                                   25269              Ÿ                                                                     Ÿ
                                   25270              Ÿ  BLKGET -- Local routine to get the next line in a block.           Ÿ
                                   25271              Ÿ                                                                     Ÿ
                                   25272              Ÿ    On entry:                                                        Ÿ
                                   25273              Ÿ      VWA contains block range information                           Ÿ
                                   25274              Ÿ                                                                     Ÿ
                                   25275              Ÿ    On exit, R15 (and cc):                                           Ÿ
                                   25276              Ÿ      0 - ok; R1,R0 - text loc, len                                  Ÿ
                                   25277              Ÿ      4 - no more text                                               Ÿ
                                   25278              Ÿ                                                                     Ÿ
                                                      ¾þþþþþþþþþþþþþþþþþþþþþþþþþþþþþþþþþþþþþþþþþþþþþþþþþþþþþþþþþþþþþþþþþþþþþ»
0004FC6 50E0 D000/9028_      00000 25279              BLKGET   PROC  (R2,LSR)
 USING  *,R7
 004FE0 58F0 6048            00048 25318                       L     R15,VWAGLNO
 004FE4 59F0 B750/4720_      00750 25319                       IF    (R15,GT,CPLBKLNO),GETBLEOF  Already done, scram
 004FEC 4110 6104            00104 25339                       LA    R1,VWAGLINE
 004FF0 58E0 715C/0DEE       0513C 25340                       ACALL BLKGLINE            Get the next line
 004FF6 4000 6046            00046 25344                       STH   R0,VWAGLEN          Save total line length
 004FFA 4780 7024/D201_      05004 25345                       IF    NZ,'MVC VWAGCOL,=H"1"'
 005004 D203 6048 B73C 00048 0073C 25362                       MVC   VWAGLNO,CPLCNO      Current lineno
 00500A D503 6048 B750_00048 00750 25363                       IF    (VWAGLNO,GE,CPLBKLNO),BEGIN  Last line...
 005014 D503 6048 B750_00048 00750 25381  1                      IF    (VWAGLNO,GT,CPLBKLNO),GETBLEOF  All done
 00501E D601 B756 B756_00756 00756 25402  1                      IF    (CPLBKCOL,Z),BEGIN  Entire line plus a space...
 005028 5900 7160/47B0_      05140 25418  2                        IF    (R0,LT,&LINESZ),'A R0,CVONE'  A trailing space
 005034                            25441  1                      END
 005034 7058/47F0 705C_05034 05026 25445  1                      ELSE  'LH R0,CPLBKCOL'    Specific length
 00503C                            25462                       END
                                   25466
 00503C 48F0 6044            00044 25467                       LH    R15,VWAGCOL         First text column
 005040 06F0                       25468                       DECR  R15
 005042 12FF/4780 7082             25470                       IF    (R15,NZ),BEGIN      Select appropriate cols...
 005048 412F 6104            00104 25484  1                      LA    R2,VWAGLINE(R15)
 00504C 1B0F                       25485  1                      SR    R0,R15
 00504E 47B0 7074/1B00       05054 25486  1                      IF    NEG,'CLEAR R0'
 005054 18F0                       25506  1                      LR    R15,R0
 005056 06F0/12FF/4740_            25507  1                      MOVE  R15,VWAGLINE,@R2    Move text over
 005062                            25545                       END
                                   25549
 005062 41F0 0001/5EF0_      00001 25550                       INCR  R15,VWAGLNO         Kick range ptr
 00506E D201 6044 7204 00044 051E4 25556                       MVC   VWAGCOL,=H'1'       Reset to first column
                                   25557
 005074 1BFF                       25558                       CLEAR R15                 Set rc
 005076 47F0 70A2            05082 25562                       B     GETBLXIT
                                   25563
 00507A 1B00/1B11                  25564              GETBLEOF CLEAR R0,R1
 00507E 41F0 0004            00004 25571                       LA    R15,4
 005082 18D8/9828 D004_            25572              GETBLXIT PEND
 DROP   *,R7
1VIEW     (VIEW2025) (13:00) (15MAR04) VIEW Command                                                                         Page   72
0Current Usings:  (VWA,R6) (CP,R11) (CV,R12)
0Loc    Object Code    Addr1 Addr2  Stmt Lv Lineno    Source Statement           (Hibal 5, Asmedit 3.3)  HLASM R4.0  2004/03/15 13.00
+___    ______ ____    _____ _____  ____ __ ______    ______ _________
0                                  25594              ¿þþþþþþþþþþþþþþþþþþþþþþþþþþþþþþþþþþþþþþþþþþþþþþþþþþþþþþþþþþþþþþþþþþþþþÜ
                                   25595              Ÿ                                                                     Ÿ
                                   25596              Ÿ  BLKGLINE -- Local routine to get a line of text from the           Ÿ
                                   25597              Ÿ    marked block Active file.                                        Ÿ
                                   25598              Ÿ                                                                     Ÿ
                                   25599              Ÿ    Entry/exit paramaters are the same as the GETLINE routine.       Ÿ
                                   25600              Ÿ                                                                     Ÿ
                                                      ¾þþþþþþþþþþþþþþþþþþþþþþþþþþþþþþþþþþþþþþþþþþþþþþþþþþþþþþþþþþþþþþþþþþþþþ»
0005090 50E0 D000/9008_      00000 25601              BLKGLINE PROC
 USING  *,R7
                                   25640                       ¿þþþþþþþþþþþþþþþþþþþþþþÜ
                                   25641                       Ÿ  Get the line text.  Ÿ
                                   25642                       ¾þþþþþþþþþþþþþþþþþþþþþþ»
 0050AA 5820 B748            00748 25643                       L     R2,CPBLKACT         Active number of marked lines
 0050AE 58E0 7112/0DEE       051BC 25644                       VCALL GETLINEX            Get line text
 0050B4 9001 8004            00004 25648                       PRETURN (R0,R1)           Return
 0050B8 18D8/9808 D004_            25650                       PEND
 DROP   *,R7
                                   25670
                                   25671                       QLTORG
1VIEW     (VIEW2025) (13:00) (15MAR04) VIEW Command                                                                         Page   73
0Current Usings:  (VWA,R6) (CP,R11) (CV,R12)
0Loc    Object Code    Addr1 Addr2  Stmt Lv Lineno    Source Statement           (Hibal 5, Asmedit 3.3)  HLASM R4.0  2004/03/15 13.00
+___    ______ ____    _____ _____  ____ __ ______    ______ _________
0                                  25738              ¿þþþþþþþþþþþþþþþþþþþþþþþþþþþþþþþþþþþþþþþþþþþþþþþþþþþþþþþþþþþþþþþþþþþþþÜ
                                   25739              Ÿ                                                                     Ÿ
                                   25740              Ÿ  REVIEW -- ESC V Subcommand.                                        Ÿ
                                   25741              Ÿ                                                                     Ÿ
                                                      ¾þþþþþþþþþþþþþþþþþþþþþþþþþþþþþþþþþþþþþþþþþþþþþþþþþþþþþþþþþþþþþþþþþþþþþ»
00052D6 50E0 D000/9008_      00000 25742              REVIEW   PROC
 USING  *,R7
 0052F0 9680 BAC9      00AC9       25781                       SET   CPVFCLR             Clear and rewrite page
 0052F4 41F0 0004            00004 25787                       LA    R15,4
 0052F8 18D8/9808 D004_            25788                       PEND
 DROP   *,R7
1VIEW     (VIEW2025) (13:00) (15MAR04) VIEW Command                                                                         Page   74
0Current Usings:  (VWA,R6) (CP,R11) (CV,R12)
0Loc    Object Code    Addr1 Addr2  Stmt Lv Lineno    Source Statement           (Hibal 5, Asmedit 3.3)  HLASM R4.0  2004/03/15 13.00
+___    ______ ____    _____ _____  ____ __ ______    ______ _________
0                                  25809              ¿þþþþþþþþþþþþþþþþþþþþþþþþþþþþþþþþþþþþþþþþþþþþþþþþþþþþþþþþþþþþþþþþþþþþþÜ
                                   25810              Ÿ                                                                     Ÿ
                                   25811              Ÿ  RESET -- ESC ??? Subcommand.                                       Ÿ
                                   25812              Ÿ                                                                     Ÿ
                                                      ¾þþþþþþþþþþþþþþþþþþþþþþþþþþþþþþþþþþþþþþþþþþþþþþþþþþþþþþþþþþþþþþþþþþþþþ»
0005306 50E0 D000/9008_      00000 25813              RESET    PROC
 USING  *,R7
 005320 58E0 72B8/0DEE       055D8 25852                       VCALL PAGEINIT            Re-initialize page
 005326 41F0 0004            00004 25856                       LA    R15,4
 00532A 18D8/9808 D004_            25857                       PEND
 DROP   *,R7
1VIEW     (VIEW2025) (13:00) (15MAR04) VIEW Command                                                                         Page   75
0Current Usings:  (VWA,R6) (CP,R11) (CV,R12)
0Loc    Object Code    Addr1 Addr2  Stmt Lv Lineno    Source Statement           (Hibal 5, Asmedit 3.3)  HLASM R4.0  2004/03/15 13.00
+___    ______ ____    _____ _____  ____ __ ______    ______ _________
0                                  25878              ¿þþþþþþþþþþþþþþþþþþþþþþþþþþþþþþþþþþþþþþþþþþþþþþþþþþþþþþþþþþþþþþþþþþþþþÜ
                                   25879              Ÿ                                                                     Ÿ
                                   25880              Ÿ  GUESS -- ESC G Subcommand.                                         Ÿ
                                   25881              Ÿ                                                                     Ÿ
                                                      ¾þþþþþþþþþþþþþþþþþþþþþþþþþþþþþþþþþþþþþþþþþþþþþþþþþþþþþþþþþþþþþþþþþþþþþ»
0000000                00000 00080 25882              GSWA     RECORD BEGIN
 000000                            25890  1           GSRESP     DS    XL128               Guess response words
 000080                00080 00080 25891                       END
                                   25900              þþþþ
 005338 50E0 D000/9008_      00000 25901              GUESS    PROC  GSWA
 USING  *,R7
 USING  GSWA-(4+36),R8
                                   25951
 005352 58F0 BADC            00ADC 25952                       L     R15,CPVLNO
 005356 12FF/47B0 7036             25953                       IF    (R15,NEG),BEGIN     Not on a text line...
 00535C 4110 72FA/4100_      0564C 25967  1                      SEG   'Press GUESS [ESC G] for the possible spelling '
 00536E 4110 7328/4100_      0567A 25984  1                      SEG   'of a word.'
 005380 9620 BACE      00ACE       26001  1                      SET   CPVFBELL
 005384 47F0 7196            054E8 26007  1                      B     GSEXIT
 005388                            26008                       END
                                   26012
 005388 4110 6104            00104 26013                       LA    R1,VWAGLINE
 00538C 58E0 728E/0DEE       055E0 26014                       VCALL GETLINE             Get line text
 005392 4780 7070            053C2 26018                       IF    NZ,BEGIN
 005396 4110 7390/4100_      056E2 26029  1           GSERR      SEG   'Position cursor to the start of a word '
 0053A8 4110 7332/4100_      05684 26046  1                      SEG   'for GUESS [ESC G].'
 0053BA 9620 BACE      00ACE       26063  1                      SET   CPVFBELL
 0053BE 47F0 7196            054E8 26069  1                      B     GSEXIT
 0053C2                            26070                       END
 0053C2 48F0 BADA            00ADA 26074                       LH    R15,CPVCOL
 0053C6 58E0 7292/0DEE       055E4 26075                       VCALL GETWD               Isolate word
 0053CC 1200/47D0 7044             26079                       IF    (R0,NP),GSERR       Can't isolate word, forget it
                                   26096
 0053D2 1831                       26097                       LR    R3,R1               Save word loc...
 0053D4 1820                       26098                       LR    R2,R0               ...and length
                                   26099                       ¿þþþþþþþþþþþþþþþþþþþþþþþþþþþþþþþþþþþþþþþþþþþþþþþþþþþþÜ
                                   26100                       Ÿ  Guess the correct spelling of the word in R1,R0.  Ÿ
                                   26101                       ¾þþþþþþþþþþþþþþþþþþþþþþþþþþþþþþþþþþþþþþþþþþþþþþþþþþþþ»
 0053D6 41F0 8028            00000 26102                       LA    R15,GSRESP          Put response words here
 0053DA 58E0 7296/0DEE       055E8 26103                       VCALL GUESSWD             Guess spelling
                                   26107
 0053E0 12FF/4780 715C             26108                       IF    (R15,NZ),BEGIN      Some sort of error...
 0053E6 59F0 729A/4770_      055EC 26122  1                      IF    (R15,EQ,4),BEGIN    Spelled correctly...
 0053EE 1813/1802/41F0_            26139  2                        SEGB  (R3),(R2)
 0053FC 4110 73B7/4100_      05709 26165  2                        SEG   'is spelled correctly.'
 00540E 47F0 7196            054E8 26182  2                        B     GSEXIT
 005412                            26183  1                      END
                                   26187  1
 005412 59F0 72A2/4770_      055F4 26188  1                      IF    (R15,EQ,8),BEGIN    No similar words...
 00541A 4110 73CC/4100_      0571E 26205  2                        SEG   'No similar words found.'
 00542C 47F0 7196            054E8 26222  2                        B     GSEXIT
 005430                            26223  1                      END
                                   26227  1
1VIEW     (VIEW2025) (13:00) (15MAR04) VIEW Command                                                                         Page   76
0Current Usings:  (VWA,R6) (*,R7) (GSWA-(4+36),R8) (CP,R11) (CV,R12)
0Loc    Object Code    Addr1 Addr2  Stmt Lv Lineno    Source Statement           (Hibal 5, Asmedit 3.3)  HLASM R4.0  2004/03/15 13.00
+___    ______ ____    _____ _____  ____ __ ______    ______ _________
0005430 59F0 72A6/4770_      055F8 26228  1                      IF    (R15,EQ,12),BEGIN   Too many similar words...
 005438 4110 73E3/4100_      05735 26245  2                        SEG   'Too many similar words, be more specific.'
 00544A 47F0 7196            054E8 26262  2                        B     GSEXIT
 00544E                            26263  1                      END
                                   26267  1
 00544E 59F0 72AA/4770_      055FC 26268  1                      IF    (R15,EQ,16),BEGIN   No spelling dictionary...
 005456 4110 740C/4100_      0575E 26285  2                        SEG   'Can''t guess -- there is no spelling dictionary.'
 005468 47F0 7196            054E8 26302  2                        B     GSEXIT
 00546C                            26303  1                      END
                                   26307  1
 00546C 59F0 72AE/4770_      05600 26308  1                      IF    (R15,EQ,20),BEGIN   Invalid guess...
 005474 1813/1802/41F0_            26325  2                        SEGB  (R3),(R2)
 005482 4110 7344/4100_      05696 26351  2                        SEG   'can''t be used as a word for guess.'
 005494 47F0 7196            054E8 26368  2                        B     GSEXIT
 005498                            26369  1                      END
                                   26373  1
 005498 4110 72B2/4100_      05604 26374  1                      SEG   'Can''t guess.'     (Shouldn't happen)
 0054AA 47F0 7196            054E8 26391  1                      B     GSEXIT
 0054AE                            26392                       END
                                   26396
 0054AE 4110 743B/4100_      0578D 26397                       SEG   'Similar words: '
 0054C0 4140 8028            00000 26414                       LA    R4,GSRESP
 0054C4                            26415                       LOOP  BEGIN
 0054C4 4110 4001/1F00_      00001 26421  1                      SETMSG @R4+1,LC:@R4
 0054CE 1200/4780 7196             26438  1                      WHILE (R0,NZ)             While len byte <> 0
 0054D4 1A40                       26453  1                      AR    R4,R0
 0054D6 4140 4001            00001 26454  1                      LA    R4,@R4+1            Next word ptr
 0054DA 41F0 6008/58E0_      00008 26455  1                      SEGB  (R1),(R0)           Seg current word
 0054E4 47F0 7172            054C4 26479                       END
 0054E8                            26484              GSEXIT   LABEL ,
 0054E8 41F0 0004            00004 26486                       LA    R15,4
 0054EC 18D8/9808 D004_            26487                       PEND
 DROP   GSWA-(4+36),R8
 DROP   *,R7
1VIEW     (VIEW2025) (13:00) (15MAR04) VIEW Command                                                                         Page   77
0Current Usings:  (VWA,R6) (CP,R11) (CV,R12)
0Loc    Object Code    Addr1 Addr2  Stmt Lv Lineno    Source Statement           (Hibal 5, Asmedit 3.3)  HLASM R4.0  2004/03/15 13.00
+___    ______ ____    _____ _____  ____ __ ______    ______ _________
0                                  26513              ¿þþþþþþþþþþþþþþþþþþþþþþþþþþþþþþþþþþþþþþþþþþþþþþþþþþþþþþþþþþþþþþþþþþþþþÜ
                                   26514              Ÿ                                                                     Ÿ
                                   26515              Ÿ  LEARN -- ESC L Subcommand.                                         Ÿ
                                   26516              Ÿ                                                                     Ÿ
                                                      ¾þþþþþþþþþþþþþþþþþþþþþþþþþþþþþþþþþþþþþþþþþþþþþþþþþþþþþþþþþþþþþþþþþþþþþ»
00054FA 50E0 D000/9008_      00000 26517              LEARN    PROC
 USING  *,R7
 005514 58F0 BADC            00ADC 26556                       L     R15,CPVLNO
 005518 12FF/47B0 7036             26557                       IF    (R15,NEG),BEGIN     Not on a text line...
 00551E 4110 71A4/4100_      056B8 26571  1                      SEG   'Press LEARN [ESC L] to add a word to your '
 005530 4110 70FC/4100_      05610 26588  1                      SEG   'spelling dictionary.'
 005542 9620 BACE      00ACE       26605  1                      SET   CPVFBELL
 005546 47F0 70B2            055C6 26611  1                      B     LRNEXIT
 00554A                            26612                       END
                                   26616
 00554A 4110 6104            00104 26617                       LA    R1,VWAGLINE
 00554E 58E0 70CC/0DEE       055E0 26618                       VCALL GETLINE             Get line text
 005554 4780 7070            05584 26622                       IF    NZ,BEGIN
 005558 4110 71CE/4100_      056E2 26633  1           LRNERR     SEG   'Position cursor to the start of a word '
 00556A 4110 7288/4100_      0579C 26650  1                      SEG   'to LEARN [ESC L].'
 00557C 9620 BACE      00ACE       26667  1                      SET   CPVFBELL
 005580 47F0 70B2            055C6 26673  1                      B     LRNEXIT
 005584                            26674                       END
 005584 48F0 BADA            00ADA 26678                       LH    R15,CPVCOL
 005588 58E0 70D0/0DEE       055E4 26679                       VCALL GETWD               Isolate word
 00558E 1200/47D0 7044             26683                       IF    (R0,NP),LRNERR      Can't isolate word, forget it
                                   26700
 005594 1831                       26701                       LR    R3,R1               Save word loc...
 005596 1820                       26702                       LR    R2,R0               ...and length
                                   26703                       ¿þþþþþþþþþþþþþþþþþþþþþþþþþþþþÜ
                                   26704                       Ÿ  Learn the word in R1,R0.  Ÿ
                                   26705                       ¾þþþþþþþþþþþþþþþþþþþþþþþþþþþþ»
 005598 58E0 7110/0DEE       05624 26706                       VCALL LEARNWD             Learn this word
 00559E 4780 70B2            055C6 26710                       IF    NZ,BEGIN            Trouble...
 0055A2 1813/1802/41F0_            26721  1                      SEGB  (R3),(R2)
 0055B0 4110 7114/4100_      05628 26747  1                      SEG   'is already in the system dictionary.'
 0055C2 9620 BACE      00ACE       26764  1                      SET   CPVFBELL
 0055C6                            26770                       END
 0055C6                            26774              LRNEXIT  LABEL ,
 0055C6 41F0 0004            00004 26776                       LA    R15,4
 0055CA 18D8/9808 D004_            26777                       PEND
 DROP   *,R7
                                   26797
                                   26798                       QLTORG
1VIEW     (VIEW2025) (13:00) (15MAR04) VIEW Command                                                                         Page   78
0Current Usings:  (VWA,R6) (CP,R11) (CV,R12)
0Loc    Object Code    Addr1 Addr2  Stmt Lv Lineno    Source Statement           (Hibal 5, Asmedit 3.3)  HLASM R4.0  2004/03/15 13.00
+___    ______ ____    _____ _____  ____ __ ______    ______ _________
0                                  26838              ¿þþþþþþþþþþþþþþþþþþþþþþþþþþþþþþþþþþþþþþþþþþþþþþþþþþþþþþþþþþþþþþþþþþþþþÜ
                                   26839              Ÿ                                                                     Ÿ
                                   26840              Ÿ  INSERT -- Automatic Insert.                                        Ÿ
                                   26841              Ÿ                                                                     Ÿ
                                                      ¾þþþþþþþþþþþþþþþþþþþþþþþþþþþþþþþþþþþþþþþþþþþþþþþþþþþþþþþþþþþþþþþþþþþþþ»
00057AE 50E0 D000/9008_      00000 26842              INSERT   PROC
 USING  *,R7
 0057C8 58F0 BADC/12FF       00ADC 26881                       LT    R15,CPVLNO          Cursor line-number
 0057CE 47B0 7012/9620_      057DA 26885                       IF    NEG,'SET CPVFBELL; B INSEXIT'  Not on a line
                                   26908
 0057DA 4800 BADA            00ADA 26909                       LH    R0,CPVCOL           Split at cursor
 0057DE 58E0 7550/0DEE       05D18 26910                       VCALL CHOPLINE            Split the line
 0057E4 4780 7028/9620_      057F0 26914                       IF    NZ,'SET CPVFBELL; B INSEXIT'
                                   26937
 0057F0 5010 6004            00004 26938                       ST    R1,VWACHKL          New line needs to be on the page
 0057F4 9610 BAC8      00AC8       26939                       SET   CPVFCH              File changes have occurred
                                   26945
 0057F8                            26946              INSEXIT  LABEL ,
 0057F8 41F0 0004            00004 26948                       LA    R15,4
 0057FC 18D8/9808 D004_            26949                       PEND
 DROP   *,R7
1VIEW     (VIEW2025) (13:00) (15MAR04) VIEW Command                                                                         Page   79
0Current Usings:  (VWA,R6) (CP,R11) (CV,R12)
0Loc    Object Code    Addr1 Addr2  Stmt Lv Lineno    Source Statement           (Hibal 5, Asmedit 3.3)  HLASM R4.0  2004/03/15 13.00
+___    ______ ____    _____ _____  ____ __ ______    ______ _________
0                                  26970              ¿þþþþþþþþþþþþþþþþþþþþþþþþþþþþþþþþþþþþþþþþþþþþþþþþþþþþþþþþþþþþþþþþþþþþþÜ
                                   26971              Ÿ                                                                     Ÿ
                                   26972              Ÿ  PREPARE -- Prepare for insert (for 3270s).                         Ÿ
                                   26973              Ÿ                                                                     Ÿ
                                                      ¾þþþþþþþþþþþþþþþþþþþþþþþþþþþþþþþþþþþþþþþþþþþþþþþþþþþþþþþþþþþþþþþþþþþþþ»
000580A 50E0 D000/9008_      00000 26974              PREPARE  PROC
 USING  *,R7
 005824 58F0 BADC/12FF       00ADC 27013                       LT    R15,CPVLNO          Cursor line-number
 00582A 47B0 7012/9620_      05836 27017                       IF    NEG,'SET CPVFBELL; B PREPEXIT'  Not on a line
                                   27040
 005836 5840 BAE0            00AE0 27041                       L     R4,CPVCURR          Cursor row
 00583A 4C40 7524            05D48 27042                       MH    R4,=AL2(L'LINT)
 00583E 5A40 BB64            00B64 27043                       A     R4,CPXLINT
 USING  LINT,R4                    27044                       WITH  (LINT,R4),BEGIN
 005842 9740 400D      0000D       27058  1                      FLIP  LINFPREP            Invert current prepare setting
 005846 9680 400D      0000D       27064  1                      SET   LINFREWR            Need to rewrite this line
 DROP   LINT,R4                    27070                       END
                                   27078
 00584A                            27079              PREPEXIT LABEL ,
 00584A 41F0 0004            00004 27081                       LA    R15,4
 00584E 18D8/9808 D004_            27082                       PEND
 DROP   *,R7
1VIEW     (VIEW2025) (13:00) (15MAR04) VIEW Command                                                                         Page   80
0Current Usings:  (VWA,R6) (CP,R11) (CV,R12)
0Loc    Object Code    Addr1 Addr2  Stmt Lv Lineno    Source Statement           (Hibal 5, Asmedit 3.3)  HLASM R4.0  2004/03/15 13.00
+___    ______ ____    _____ _____  ____ __ ______    ______ _________
0                                  27103              ¿þþþþþþþþþþþþþþþþþþþþþþþþþþþþþþþþþþþþþþþþþþþþþþþþþþþþþþþþþþþþþþþþþþþþþÜ
                                   27104              Ÿ                                                                     Ÿ
                                   27105              Ÿ  ESCAPE -- Move cursor to/from home point (for 3270s).              Ÿ
                                   27106              Ÿ                                                                     Ÿ
                                                      ¾þþþþþþþþþþþþþþþþþþþþþþþþþþþþþþþþþþþþþþþþþþþþþþþþþþþþþþþþþþþþþþþþþþþþþ»
000585C 50E0 D000/9008_      00000 27107              ESCAPE   PROC
 USING  *,R7
 005876 5840 BAE0            00AE0 27146                       L     R4,CPVCURR          Cursor row
 00587A 4C40 74D2            05D48 27147                       MH    R4,=AL2(L'LINT)
 00587E 5A40 BB64            00B64 27148                       A     R4,CPXLINT
 USING  LINT,R4                    27149                       WITH  (LINT,R4)
                                   27162                       ¿þþþþþþþþþþþþþþþþþþþþþþþþþþþþþþþþþÜ
                                   27163                       Ÿ  Save current cursor location.  Ÿ
                                   27164                       ¾þþþþþþþþþþþþþþþþþþþþþþþþþþþþþþþþþ»
 005882 D203 BAEC BADC 00AEC 00ADC 27165                       MVC   CPVALNO,CPVLNO      Save current cursor...
 005888 D201 BAE8 BADA 00AE8 00ADA 27166                       MVC   CPVACOL,CPVCOL      ...as alternate
 00588E D207 BAF0 BAE0 00AF0 00AE0 27167                       MVC   CPVACURS,CPVCURS    ...cursor
                                   27168
 005894 D203 BADC 74A6 00ADC 05D1C 27169                       MVC   CPVLNO,=F'-1000'    Set cursor...
 00589A D701 BADA BADA 00ADA 00ADA 27170                       CLEAR CPVCOL              ...to command
 0058A0 48F0 BB4C            00B4C 27177                       LH    R15,CPVCMDR         ...row
 0058A4 50F0 BAE0            00AE0 27178                       ST    R15,CPVCURR
 0058A8 D203 BAE4 74AA 00AE4 05D20 27179                       MVC   CPVCURC,=F'28'      Specially adjust cursor column
                                   27180
 0058AE 924B B242      00242       27181                       MVI   CPCMD,C'.'          Preset command prefix of "dot"
 0058B2 D201 B240 74D4 00240 05D4A 27182                       MVC   CPCMDLEN,=H'1'
 0058B8 9640 6000      00000       27183                       SET   VWAFNCMD            New command text is set
                                   27189
 0058BC 9620 BACB      00ACB       27190                       SET   CPVFESC             Go into ESC emulation mode
                                   27196
 0058C0 41F0 0004            00004 27197                       LA    R15,4
 0058C4 18D8/9808 D004_            27198                       PEND
 DROP   LINT,R4
 DROP   *,R7
1VIEW     (VIEW2025) (13:00) (15MAR04) VIEW Command                                                                         Page   81
0Current Usings:  (VWA,R6) (CP,R11) (CV,R12)
0Loc    Object Code    Addr1 Addr2  Stmt Lv Lineno    Source Statement           (Hibal 5, Asmedit 3.3)  HLASM R4.0  2004/03/15 13.00
+___    ______ ____    _____ _____  ____ __ ______    ______ _________
0                                  27224              ¿þþþþþþþþþþþþþþþþþþþþþþþþþþþþþþþþþþþþþþþþþþþþþþþþþþþþþþþþþþþþþþþþþþþþþÜ
                                   27225              Ÿ                                                                     Ÿ
                                   27226              Ÿ  SPLIT -- ESC S Subcommand.                                         Ÿ
                                   27227              Ÿ                                                                     Ÿ
                                                      ¾þþþþþþþþþþþþþþþþþþþþþþþþþþþþþþþþþþþþþþþþþþþþþþþþþþþþþþþþþþþþþþþþþþþþþ»
00058D2 50E0 D000/9008_      00000 27228              SPLIT    PROC
 USING  *,R7
 0058EC 58F0 BADC/12FF_      00ADC 27267                       IF    ('LT R15,CPVLNO',NEG),'SET CPVFBELL; B SPLITXIT'
                                   27295
 0058FE 4820 BADA            00ADA 27296                       LH    R2,CPVCOL           Current cursor column
                                   27297
 005902 1802                       27298                       LR    R0,R2               Split at cursor
 005904 58F0 BADC            00ADC 27299                       L     R15,CPVLNO          Cursor line-number
 005908 58E0 742C/0DEE       05D18 27300                       VCALL CHOPLINE            Split the line
 00590E 4780 702E/9620_      0591A 27304                       IF    NZ,'SET CPVFBELL; B SPLITXIT'
                                   27327                       ¿þþþþþþþþþþþþþþþþþþþþþþþþþþþþþþþþÜ
                                   27328                       Ÿ  Restore the cursor position.  Ÿ
                                   27329                       ¾þþþþþþþþþþþþþþþþþþþþþþþþþþþþþþþþ»
 00591A 5000 BADC            00ADC 27330                       ST    R0,CPVLNO           Set cursor line-number
 00591E 4020 BADA            00ADA 27331                       STH   R2,CPVCOL           ...and cursor column
                                   27332
 005922 5010 6004            00004 27333                       ST    R1,VWACHKL          New line needs to be on the page
 005926 9610 BAC8      00AC8       27334                       SET   CPVFCH              File changes have occurred
                                   27340
 00592A                            27341              SPLITXIT LABEL ,
 00592A 41F0 0004            00004 27343                       LA    R15,4
 00592E 18D8/9808 D004_            27344                       PEND
 DROP   *,R7
1VIEW     (VIEW2025) (13:00) (15MAR04) VIEW Command                                                                         Page   82
0Current Usings:  (VWA,R6) (CP,R11) (CV,R12)
0Loc    Object Code    Addr1 Addr2  Stmt Lv Lineno    Source Statement           (Hibal 5, Asmedit 3.3)  HLASM R4.0  2004/03/15 13.00
+___    ______ ____    _____ _____  ____ __ ______    ______ _________
0                                  27365              ¿þþþþþþþþþþþþþþþþþþþþþþþþþþþþþþþþþþþþþþþþþþþþþþþþþþþþþþþþþþþþþþþþþþþþþÜ
                                   27366              Ÿ                                                                     Ÿ
                                   27367              Ÿ  JOIN -- ESC J Subcommand.                                          Ÿ
                                   27368              Ÿ                                                                     Ÿ
                                                      ¾þþþþþþþþþþþþþþþþþþþþþþþþþþþþþþþþþþþþþþþþþþþþþþþþþþþþþþþþþþþþþþþþþþþþþ»
000593C 50E0 D000/9008_      00000 27369              JOIN     PROC
 USING  *,R7
 005956 58F0 BADC/12FF_      00ADC 27408                       IF    ('LT R15,CPVLNO',NEG),'SET CPVFBELL'  Not a text line
                                   27435
 005964 7012/47F0 704C 05964 0595E 27436                       ELSE  BEGIN
 005968 4100 0001            00001 27447  1                      LA    R0,1                Trim leading blanks
 00596C 1B11                       27448  1                      CLEAR R1                  Allow max length
 00596E 58F0 BADC            00ADC 27452  1                      L     R15,CPVLNO          Cursor line-number
 005972 58E0 73CE/0DEE       05D24 27453  1                      VCALL JOINLINE            Join the next line to this one
 005978 4770 702A/9610_      05980 27457  1                      IF    Z,'SET CPVFCH'      File changes have occurred
 005980 702E/47F0 704C 05980 0597A 27479  1                      ELSE  BEGIN               Trouble...
 005984 59F0 73D2/4770_      05D28 27490  2                        IF    (R15,EQ,20),BEGIN
 00598C 4110 7392/4100_      05CE8 27507  3                          SEG   'Joined line would be too long.  No action taken.'
 00599E                            27524  2                        END
 00599E 9620 BACE      00ACE       27528  2                        SET   CPVFBELL
 0059A2                            27534  1                      END
 0059A2                            27538                       END
                                   27542
 0059A2 41F0 0004            00004 27543                       LA    R15,4
 0059A6 18D8/9808 D004_            27544                       PEND
 DROP   *,R7
1VIEW     (VIEW2025) (13:00) (15MAR04) VIEW Command                                                                         Page   83
0Current Usings:  (VWA,R6) (CP,R11) (CV,R12)
0Loc    Object Code    Addr1 Addr2  Stmt Lv Lineno    Source Statement           (Hibal 5, Asmedit 3.3)  HLASM R4.0  2004/03/15 13.00
+___    ______ ____    _____ _____  ____ __ ______    ______ _________
0                                  27565              ¿þþþþþþþþþþþþþþþþþþþþþþþþþþþþþþþþþþþþþþþþþþþþþþþþþþþþþþþþþþþþþþþþþþþþþÜ
                                   27566              Ÿ                                                                     Ÿ
                                   27567              Ÿ  ALIGNV -- ESC A and ESC Z Subcommands.                             Ÿ
                                   27568              Ÿ                                                                     Ÿ
                                                      ¾þþþþþþþþþþþþþþþþþþþþþþþþþþþþþþþþþþþþþþþþþþþþþþþþþþþþþþþþþþþþþþþþþþþþþ»
00059B4 50E0 D000/9008_      00000 27569              ALIGNV   PROC
 USING  *,R7
 0059CE 58F0 BADC/12FF_      00ADC 27608                       IF    ('LT R15,CPVLNO',~NEG),BEGIN   On a text line...
                                   27624  1
                                   27625  1                      COMMENT                   MOVE IN ALIGN COMMAND
 0059D8 D201 B240 737E 00240 05D4C 27626  1                      MVC   CPCMDLEN,=AL2(L'ALICMD)
 0059DE D238 B242 7086 00242 05A54 27627  1                      MVC   CPCMD(L'ALICMD),ALICMD  Move in "command"
                                   27628  1
                                   27629  1                      COMMENT                   FIX ALIGN LENGTH, INDENT VALUES
 0059E4 4850 BAD6            00AD6 27630  1                      LH    R5,CPVWCUR
 0059E8 4C50 7380            05D4E 27631  1                      MH    R5,=AL2(L'WIND)
 0059EC 5A50 BB5C            00B5C 27632  1                      A     R5,CPXWIND
 USING  WIND,R5                    27633  1                      WITH  (WIND,R5),BEGIN
 0059F0 48F0 5012/4100_      00012 27647  2                        BTD   CPCMD+(ALILEN-ALICMD),L'ALILEN,LH:WINDMARG
                                   27669  2
 005A02 48F0 5010/12FF       00010 27670  2                        LTH   R15,WINDIND         Default indentation
 005A08 47B0 7040/1BFF       05A0E 27674  2                        IF    NEG,'CLEAR R15'     Floating indent, use indent=0
 005A0E 4100 0003/4110_      00003 27694  2                        BTD   CPCMD+(ALIIND-ALICMD),L'ALIIND,(R15)
 DROP   WIND,R5                    27716  1                      END
                                   27724  1
                                   27725  1                      COMMENT                   IF JUSTIFY, FIX COMMAND
 005A1C D501 7382 BD24_05D50 00D24 27726  1                      IF    (CPCMNM,EQ,'.Z'),BEGIN
 005A26 D202 B242 7386 00242 05D54 27743  2                        MVC   CPCMD(3),=CL3'JUS'
 005A2C                            27744  1                      END
                                   27748  1
                                   27749  1                      COMMENT                   Go execute command, (non-typed)
 005A2C 94EF B477      00477       27750  1                      CLEAR CPFTYPED
 005A30 4110 B242/4800_      00242 27757  1                      SETMSG CPCMD,LH:CPCMDLEN
 005A38 58E0 7366/0DEE       05D34 27770  1                      VCALL EDTCOM              Go do Align/Justify command.
 005A3E 47F0 C7DE            007DE 27774  1                      B     CVNEXT              (Shouldn't happen)
 005A42                            27775                       END
 005A42 41F0 0004            00004 27779                       LA    R15,4
 005A46 18D8/9808 D004_            27780                       PEND
 DROP   *,R7
                                   27800
 005A54 C1D3C9405C61D3C1           27801              ALIWORK  DC    C'ALI */LAST SPACE EVEN PARA MARKER=.'
 005A77 40D3C5D5C7E3C87E           27802                       DC    C' LENGTH='
 005A7F 6F6F6F                     27803              ALILEN   DC    C'???'
 005A82 40C9D5C4C5D5E37E           27804                       DC    C' INDENT='
 005A8A 6F6F6F                     27805              ALIIND   DC    C'???'
                                   27806              ALICMD   EQU   ALIWORK,*-ALIWORK,C'X'
 005A8D 40404040404040             27807                       DC    CL(L'VWACMD-L'ALICMD)' '
1VIEW     (VIEW2025) (13:00) (15MAR04) VIEW Command                                                                         Page   84
0Current Usings:  (VWA,R6) (CP,R11) (CV,R12)
0Loc    Object Code    Addr1 Addr2  Stmt Lv Lineno    Source Statement           (Hibal 5, Asmedit 3.3)  HLASM R4.0  2004/03/15 13.00
+___    ______ ____    _____ _____  ____ __ ______    ______ _________
0                                  27809              ¿þþþþþþþþþþþþþþþþþþþþþþþþþþþþþþþþþþþþþþþþþþþþþþþþþþþþþþþþþþþþþþþþþþþþþÜ
                                   27810              Ÿ                                                                     Ÿ
                                   27811              Ÿ  WRAP -- Automatic Wordwrap.                                        Ÿ
                                   27812              Ÿ                                                                     Ÿ
                                                      ¾þþþþþþþþþþþþþþþþþþþþþþþþþþþþþþþþþþþþþþþþþþþþþþþþþþþþþþþþþþþþþþþþþþþþþ»
0000000                00000 00010 27813              WRAPWA   RECORD BEGIN
 000000 00                         27821  1           WRAPFLAG   FLAG
 WRAPFLAG.WRAPFCOL 80 ONES         27825  1                      FLAG  WRAPFCOL            - Continuing collect
                                   27830  1
 000004                            27831  1           WRAPOLNO   DS    F                   Old line-number
 000008                            27832  1           WRAPNLNO   DS    F                   New line-number
 00000C                            27833  1           WRAPLEN    DS    H                   Original's new line length
 00000E                            27834  1           WRAPMAXL   DS    H                   Maximum line length
 000010                00010 00010 27835                       END
                                   27844              þþþþ
 005A94 50E0 D000/9008_      00000 27845              WRAP     PROC  WRAPWA
 USING  *,R7
 USING  WRAPWA-(4+36),R8
 005AAE D70F 8028 8028 00000 00000 27895                       CLEAR WRAPWA
                                   27902
 005AB4 58F0 BADC/12FF_      00ADC 27903                       IF    ('LT R15,CPVLNO',NEG),BEGIN  Not on a text line...
 005ABE 9620 BACE      00ACE       27919  1                      SET   CPVFBELL
 005AC2 47F0 7226            05CD4 27925  1                      B     WRAPEXIT
 005AC6                            27926                       END
                                   27930
 005AC6 9108 B5D5/47E0_005D5       27931                       IF    CPACFPG,'SET WRAPFCOL'
                                   27957
 005AD2 D501 72A4 BD24_05D52 00D24 27958                       IF    (CPCMNM,EQ,'.#'),'INCR R15,CPVCOL'  Kick cursor
                                   27986
 005AE8 4850 BAD6            00AD6 27987                       LH    R5,CPVWCUR
 005AEC 4C50 72A0            05D4E 27988                       MH    R5,=AL2(L'WIND)
 005AF0 5A50 BB5C            00B5C 27989                       A     R5,CPXWIND
 USING  WIND,R5                    27990                       WITH  (WIND,R5)
                                   28003                       ¿þþþþþþþþþþþþþþþþþþþþþþþþþþþþþþþþþþþþþþþþþþþþþþþþþþÜ
                                   28004                       Ÿ  Get the line and figure out where to split it.  Ÿ
                                   28005                       ¾þþþþþþþþþþþþþþþþþþþþþþþþþþþþþþþþþþþþþþþþþþþþþþþþþþ»
 005AF4 58F0 BADC            00ADC 28006                       L     R15,CPVLNO
 005AF8 4110 6104            00104 28007                       LA    R1,VWAGLINE
 005AFC 58E0 728A/0DEE       05D38 28008                       VCALL GETLINE             Get the line
                                   28012
 005B02 4820 5012            00012 28013                       LH    R2,WINDMARG         Don't go beyond margin
                                   28014
 005B06 D501 72A4 BD24_05D52 00D24 28015                       IF    ((CPCMNM,NE,'.#'),AND,(R0,LT,R2)),WRAPEXIT  No wrap
                                   28049
 005B16 4020 8036            0000E 28050                       STH   R2,WRAPMAXL
 005B1A 4132 1000            00000 28051                       LA    R3,@R1(R2)
 005B1E 0630                       28052                       DECR  R3                  Last position in line
                                   28054                       ¿þþþþþþþþþþþþþþþþþþþþþþþþþþþþþþþþþþþþþþþþþþþþþþþþþþþþþÜ
                                   28055                       Ÿ  Try 1: The character causing the wrap is a blank.  Ÿ
                                   28056                       ¾þþþþþþþþþþþþþþþþþþþþþþþþþþþþþþþþþþþþþþþþþþþþþþþþþþþþþ»
 005B20 1902/4770 7082             28057                       IF    (R0,EQ,R2),BEGIN    Ended exactly at length...
 005B26 1813/4100 2001             28072  1                      SETMSG (R3),@R2+1          Use entire line (plus the space)
 005B2C 47F0 70EC            05B9A 28086  1                      B     WRAPDO
1VIEW     (VIEW2025) (13:00) (15MAR04) VIEW Command                                                                         Page   85
0Current Usings:  (WIND,R5) (VWA,R6) (*,R7) (WRAPWA-(4+36),R8) (CP,R11) (CV,R12)
0Loc    Object Code    Addr1 Addr2  Stmt Lv Lineno    Source Statement           (Hibal 5, Asmedit 3.3)  HLASM R4.0  2004/03/15 13.00
+___    ______ ____    _____ _____  ____ __ ______    ______ _________
0005B30                            28087                       END
                                   28091                       ¿þþþþþþþþþþþþþþþþþþþþþþþþþþþþþþþþþþþþþþÜ
                                   28092                       Ÿ  Try 2: Split at the closest blank.  Ÿ
                                   28093                       ¾þþþþþþþþþþþþþþþþþþþþþþþþþþþþþþþþþþþþþþ»
 005B30 1813/1802                  28094                       SETMSG (R3),(R2)
 005B34 1200/47D0 709C             28106                       WHILE (R0,POS),BEGIN      Find a blank...
 005B3A 9540 1000/4780_00000       28122  1                      IF    (@R1,EQ,' '),WRAPDO
 005B42 0610                       28141  1                      DECR  R1
 005B44 0600                       28143  1                      DECR  R0
 005B46 47F0 7086            05B34 28145                       END
                                   28150                       ¿þþþþþþþþþþþþþþþþþþþþþþþþþþþþþþþþþþþþþþþþþþþþþþþþþþþþþþÜ
                                   28151                       Ÿ  Try 3: Split at the closest punctuation character.  Ÿ
                                   28152                       ¾þþþþþþþþþþþþþþþþþþþþþþþþþþþþþþþþþþþþþþþþþþþþþþþþþþþþþþ»
 005B4A 1813/1802                  28153                       SETMSG (R3),(R2)
 005B4E 1200/47D0 70D6             28165                       WHILE (R0,POS),BEGIN
 005B54 954B 1000/4780_00000       28181  1                      IF    ((@R1,EQ,'.'),OR,(@R1,EQ,':'),OR,(@R1,EQ,';')),WRAPDO
 005B6C 956B 1000/4780_00000       28228  1                      IF    (@R1,EQ,','),WRAPDO
 005B74 9560 1000/4780_00000       28247  1                      IF    (@R1,EQ,'-'),WRAPDO
                                   28266  1
 005B7C 0610                       28267  1                      DECR  R1
 005B7E 0600                       28269  1                      DECR  R0
 005B80 47F0 70A0            05B4E 28271                       END
                                   28276                       ¿þþþþþþþþþþþþþþþþþþþþþþþþþþþþþþþþþþþþþþþþþþþþþþþþþþþþþþþþþþþÜ
                                   28277                       Ÿ  If all else fails split at the current cursor position.  Ÿ
                                   28278                       ¾þþþþþþþþþþþþþþþþþþþþþþþþþþþþþþþþþþþþþþþþþþþþþþþþþþþþþþþþþþþ»
 005B84 1200/4770 70E4_            28279                       IF    (R0,Z),'LH R0,CPVCOL; DECR R0; DECR R0'  Cursor-1
 005B92 4800 BADA            00ADA 28303                       LH    R0,CPVCOL           Current cursor position+1
 005B96 0600                       28304                       DECR  R0                  Last cursor position
 005B98 0600                       28306                       DECR  R0                  Maximum line length
                                   28308                       ¿þþþþþþþþþþþþþþþþþþþÜ
                                   28309                       Ÿ  Split the line.  Ÿ
                                   28310                       ¾þþþþþþþþþþþþþþþþþþþ»
 005B9A 4000 8034            0000C 28311              WRAPDO   STH   R0,WRAPLEN          Save last column for later
 005B9E 5A00 C4D0            004D0 28312                       A     R0,CVONE            New line starts here
 005BA2 58F0 BADC            00ADC 28313                       L     R15,CPVLNO
 005BA6 58E0 726A/0DEE       05D18 28314                       VCALL CHOPLINE            Split the line
 005BAC 5000 802C            00004 28318                       ST    R0,WRAPOLNO         Old line-number
 005BB0 5010 8030            00008 28319                       ST    R1,WRAPNLNO         New line-number
                                   28320                       ¿þþþþþþþþþþþþþþþþþþþþþþþþþþþþþþþþþþþÜ
                                   28321                       Ÿ  Handle left margin indentation.  Ÿ
                                   28322                       ¾þþþþþþþþþþþþþþþþþþþþþþþþþþþþþþþþþþþ»
 005BB4 4820 5010/1222       00010 28323                       LTH   R2,WINDIND          Indentation needed
 005BBA 4780 71AA            05C58 28327                       IF    NZ,BEGIN            Add blanks...
 005BBE 47B0 714A            05BF8 28338  1                      IF    NEG,BEGIN           Automatic indentation...
 005BC2 58F0 802C            00004 28349  2                        L     R15,WRAPOLNO
 005BC6 4110 6104            00104 28350  2                        LA    R1,VWAGLINE
 005BCA 58E0 728A/0DEE       05D38 28351  2                        VCALL GETLINE             Get previous line text
 005BD0 4770 71AA            05C58 28355  2                        BNZ   WRAPNI              Odd, forget it
                                   28356  2
 005BD4 1B22                       28357  2                        CLEAR R2                  R2 = calculated indentation
 005BD6 1200/47D0 7144             28361  2                        WHILE (R0,POS),BEGIN      Look for a non-blank...
 005BDC 9540 1000/4770_00000       28377  3                          IF    (@R1,NE,' '),EXIT   Stop at non-blank
 005BE4 4120 2001            00001 28396  3                          LA    R2,@R2+1            Indentation
 005BE8 4110 1001            00001 28397  3                          LA    R1,@R1+1
1VIEW     (VIEW2025) (13:00) (15MAR04) VIEW Command                                                                         Page   86
0Current Usings:  (WIND,R5) (VWA,R6) (*,R7) (WRAPWA-(4+36),R8) (CP,R11) (CV,R12)
0Loc    Object Code    Addr1 Addr2  Stmt Lv Lineno    Source Statement           (Hibal 5, Asmedit 3.3)  HLASM R4.0  2004/03/15 13.00
+___    ______ ____    _____ _____  ____ __ ______    ______ _________
0005BEC 0600                       28398  3                          DECR  R0
 005BEE 47F0 7128            05BD6 28400  2                        END
 005BF2 1222/4780 71AA             28405  2                        IF    (R2,Z),WRAPNI       No indentation, scram
 005BF8                            28422  1                      END
                                   28426  1
 005BF8 5920 728E/47B0_      05D3C 28427  1                      FLOOR R2,0
 005C04 5920 7292/47D0_      05D40 28446  1                      CEIL  R2,&LINESZ
 005C10 183D/41D0 D1D8             28465  1                      XPUSH ,,&LINESZ*2,PTR=R3
 005C16 D2EA 3000 C4D8 00000 004D8 28468  1                      MVC   @R3(&LINESZ),CVBLANKS
 005C1C 4112 3000            00000 28469  1                      LA    R1,@R3(R2)
 005C20 58F0 8030            00008 28470  1                      L     R15,WRAPNLNO
 005C24 58E0 728A/0DEE       05D38 28471  1                      VCALL GETLINE             Get line text
 005C2A 4770 71AA            05C58 28475  1                      BNZ   WRAPNI
                                   28476  1
 005C2E 1813                       28477  1                      LR    R1,R3
 005C30 1A02                       28478  1                      AR    R0,R2
 005C32 5900 7292/4720_      05D40 28479  1                      IF    (R0,GT,&LINESZ),WRAPNI  Too long, forget it
 005C3A 58F0 8030            00008 28499  1                      L     R15,WRAPNLNO
 005C3E 58E0 7296/0DEE       05D44 28500  1                      VCALL PUTLINE             Replace line with indentation
                                   28504  1
 005C44 D503 8030 BADC_00008 00ADC 28505  1                      IF    (WRAPNLNO,EQ,CPVLNO),BEGIN  Adjust cursor pos...
 005C4E 48F0 BADA            00ADA 28523  2                        LH    R15,CPVCOL          Adjust...
 005C52 1AF2                       28524  2                        AR    R15,R2              ... cursor
 005C54 40F0 BADA            00ADA 28525  2                        STH   R15,CPVCOL          ... position
 005C58                            28526  1                      END
 005C58                            28530                       END
                                   28534                      ¿þþþþþþþþþþþþþþþþþþþþþþþþþþþþþþþþþþþþþþþþþþþþþþþþþþþþþþþþþþþþþþþþÜ
                                   28535                      Ÿ  Try to join the newly created line with the line after that.  Ÿ
                                   28536                      ¾þþþþþþþþþþþþþþþþþþþþþþþþþþþþþþþþþþþþþþþþþþþþþþþþþþþþþþþþþþþþþþþþ»
 005C58 D503 802C BADC_00004 00ADC 28537              WRAPNI   IF    (WRAPOLNO,EQ,CPVLNO),BEGIN  Try it...
 005C62 41F0 0001            00001 28556  1                      LA    R15,1
 005C66 5AF0 8030            00008 28557  1                      A     R15,WRAPNLNO
 005C6A 4110 6104            00104 28558  1                      LA    R1,VWAGLINE
 005C6E 58E0 728A/0DEE       05D38 28559  1                      VCALL GETLINE             Get line after the new one
 005C74 4740 71FA            05CA8 28563  1                      IF    NEG,EXIT            Nothing, scram
 005C78 1200/4780 71FA             28577  1                      IF    (R0,Z),EXIT         Null line, scram
 005C7E 9540 1000/4780_00000       28594  1                      IF    (@R1,EQ,' '),EXIT   Can't join if leading blanks
 005C86 954B 1000/4780_00000       28613  1                      IF    (@R1,EQ,'.'),EXIT   Can't join if leading dot
                                   28632  1
 005C8E 58F0 8030            00008 28633  1                      L     R15,WRAPNLNO        Newly created line
 005C92 4100 0003            00003 28634  1                      LA    R0,3                Trim and use next's lineno
 005C96 4810 8036            0000E 28635  1                      LH    R1,WRAPMAXL         Maximum line length
 005C9A 58E0 7276/0DEE       05D24 28636  1                      VCALL JOINLINE
 005CA0 4770 71FA/5010_      05CA8 28640  1                      IF    Z,'ST R1,WRAPNLNO'
 005CA8                            28657                       END
                                   28661                       ¿þþþþþþþþþþþþþþþþþþþþþþþþþþþþþþþþþþþþþþþþþþþþþþþÜ
                                   28662                       Ÿ  Figure out if this is a continuing collect.  Ÿ
                                   28663                       ¾þþþþþþþþþþþþþþþþþþþþþþþþþþþþþþþþþþþþþþþþþþþþþþþ»
 005CA8 9180 8028/47E0_00000       28664                       IF    WRAPFCOL,BEGIN      Continuing collect...
 005CB0 D503 BADC 8030_00ADC 00008 28679  1                      IF    (CPVLNO,EQ,WRAPNLNO),'MVC CPACNLN,CPVLNO'
 005CC0 7216/47F0 721C_05CC0 05CB8 28703  1                      ELSE  'CLEAR CPACINFO'
 005CCA                            28726                       END
                                   28730
 005CCA D203 6004 8030 00004 00008 28731                       MVC   VWACHKL,WRAPNLNO    Line still needs to be on page
1VIEW     (VIEW2025) (13:00) (15MAR04) VIEW Command                                                                         Page   87
0Current Usings:  (WIND,R5) (VWA,R6) (*,R7) (WRAPWA-(4+36),R8) (CP,R11) (CV,R12)
0Loc    Object Code    Addr1 Addr2  Stmt Lv Lineno    Source Statement           (Hibal 5, Asmedit 3.3)  HLASM R4.0  2004/03/15 13.00
+___    ______ ____    _____ _____  ____ __ ______    ______ _________
0005CD0 9610 BAC8      00AC8       28732                       SET   CPVFCH              File changes have occurred
                                   28738
 005CD4                            28739              WRAPEXIT LABEL ,
 005CD4 41F0 0004            00004 28741                       LA    R15,4
 005CD8 18D8/9808 D004_            28742                       PEND
 DROP   WIND,R5
 DROP   WRAPWA-(4+36),R8
 DROP   *,R7
                                   28772
                                   28773                       QLTORG
1VIEW     (VIEW2025) (13:00) (15MAR04) VIEW Command                                                                         Page   88
0Current Usings:  (VWA,R6) (CP,R11) (CV,R12)
0Loc    Object Code    Addr1 Addr2  Stmt Lv Lineno    Source Statement           (Hibal 5, Asmedit 3.3)  HLASM R4.0  2004/03/15 13.00
+___    ______ ____    _____ _____  ____ __ ______    ______ _________
0                                  28806              ¿þþþþþþþþþþþþþþþþþþþþþþþþþþþþþþþþþþþþþþþþþþþþþþþþþþþþþþþþþþþþþþþþþþþþþÜ
                                   28807              Ÿ                                                                     Ÿ
                                   28808              Ÿ  WSELECT -- WINDOW <number> Subcommand.                             Ÿ
                                   28809              Ÿ                                                                     Ÿ
                                                      ¾þþþþþþþþþþþþþþþþþþþþþþþþþþþþþþþþþþþþþþþþþþþþþþþþþþþþþþþþþþþþþþþþþþþþþ»
0005D58 50E0 D000/9008_      00000 28810              WSELECT  PROC
 USING  *,R7
 005D72 D501 7D9E BAD8_06B10 00AD8 28849                       IF    (CPVWCNT,EQ,1),BEGIN  Only one window...
 005D7C 9620 BACE      00ACE       28867  1                      SET   CPVFBELL
 005D80 4110 7DB4/4100_      06B26 28873  1                      SEG   'There is only one window being displayed.'
 005D92 47F0 70A4            05E16 28890  1                      B     WSELEXIT
 005D96                            28891                       END
                                   28895
 005D96 4350 BD26            00D26 28896                       IC    R5,CPCMNM+2         Window number
 005D9A 5450 7C92            06A04 28897                       N     R5,=A(X'F')         ...in binary
 005D9E 4770 7034/4150_      05DA6 28898                       IF    Z,'LA R5,1'         (zero=one, for now)
 005DA6 4950 BAD8/47D0_      00AD8 28915                       IF    (R5,GT,CPVWCNT),BEGIN  Window number too high...
 005DAE 9620 BACE      00ACE       28932  1                      SET   CPVFBELL
 005DB2 4110 7DDD/4100_      06B4F 28938  1                      SEG   'There are only '
 005DC4 4810 BAD8/1B00_      00AD8 28955  1                      SEGDC LH:CPVWCNT
 005DD4 4110 7DEC/4100_      06B5E 28975  1                      SEG   ' windows being displayed.'
 005DE6 47F0 70A4            05E16 28992  1                      B     WSELEXIT
 005DEA                            28993                       END
                                   28997                       ¿þþþþþþþþþþþþþþþþþþþÜ
                                   28998                       Ÿ  Change windows.  Ÿ
                                   28999                       ¾þþþþþþþþþþþþþþþþþþþ»
 005DEA 4050 BAD6            00AD6 29000                       STH   R5,CPVWCUR          Set new window
 005DEE 4C50 7DA0            06B12 29001                       MH    R5,=AL2(L'WIND)
 005DF2 5A50 BB5C            00B5C 29002                       A     R5,CPXWIND
 USING  WIND,R5                    29003                       WITH  (WIND,R5),BEGIN
 005DF6 D503 7C9A BADC_06A0C 00ADC 29017  1                      IF    (CPVLNO,NE,-1000),BEGIN  Move cursor to new window...
 005E00 D203 BADC 5020 00ADC 00020 29035  2                        MVC   CPVLNO,WINDFLNO     First line...
 005E06 D201 BADA 7DA2 00ADA 06B14 29036  2                        MVC   CPVCOL,=H'1'        ...column 1
 005E0C                            29037  1                      END
                                   29041  1
 005E0C 58F0 5014            00014 29042  1                      L     R15,WINDACT
 005E10 58E0 7C9E/0DEE       06A10 29043  1                      VCALL ACTPICK             Select the new Active file
 DROP   WIND,R5                    29047                       END
                                   29055
 005E16                            29056              WSELEXIT LABEL ,
 005E16 41F0 0004            00004 29058                       LA    R15,4
 005E1A 18D8/9808 D004_            29059                       PEND
 DROP   *,R7
1VIEW     (VIEW2025) (13:00) (15MAR04) VIEW Command                                                                         Page   89
0Current Usings:  (VWA,R6) (CP,R11) (CV,R12)
0Loc    Object Code    Addr1 Addr2  Stmt Lv Lineno    Source Statement           (Hibal 5, Asmedit 3.3)  HLASM R4.0  2004/03/15 13.00
+___    ______ ____    _____ _____  ____ __ ______    ______ _________
0                                  29080              ¿þþþþþþþþþþþþþþþþþþþþþþþþþþþþþþþþþþþþþþþþþþþþþþþþþþþþþþþþþþþþþþþþþþþþþÜ
                                   29081              Ÿ                                                                     Ÿ
                                   29082              Ÿ  WACTNEXT -- WINDOW Next Subcommand.                                Ÿ
                                   29083              Ÿ                                                                     Ÿ
                                                      ¾þþþþþþþþþþþþþþþþþþþþþþþþþþþþþþþþþþþþþþþþþþþþþþþþþþþþþþþþþþþþþþþþþþþþþ»
0005E28 50E0 D000/9008_      00000 29084              WACTNEXT PROC
 USING  *,R7
 005E42 4110 B590            00590 29123                       LA    R1,CPATYPE
 005E46 58F0 B57C            0057C 29124                       L     R15,CPACTNO
 005E4A 58E0 7BD2/0DEE       06A14 29125                       VCALL ACTNEXT             Next Active file
 005E50 4770 704C            05E8E 29129                       IF    Z,BEGIN             Can't...
 005E54 9620 BACE      00ACE       29140  1                      SET   CPVFBELL
 005E58 4110 7D35/4100_      06B77 29146  1                      SEG   'There is no next '
 005E6A 4110 B590/4100_      00590 29163  1                      SEGT  CPATYPE
 005E7C 4110 7D46/4100_      06B88 29191  1                      SEG   ' Active file.'
 005E8E                            29208                       END
                                   29212
 005E8E 7050/47F0 705C 05E8E 05E52 29213                       ELSE  BEGIN
 005E92 58E0 7BCE/0DEE       06A10 29224  1                      VCALL ACTPICK             Select next Active file
 005E98 58E0 7BDA/0DEE       06A1C 29228  1                      VCALL ACTVREST            Restore view position
 005E9E                            29232                       END
 005E9E 41F0 0004            00004 29236                       LA    R15,4
 005EA2 18D8/9808 D004_            29237                       PEND
 DROP   *,R7
1VIEW     (VIEW2025) (13:00) (15MAR04) VIEW Command                                                                         Page   90
0Current Usings:  (VWA,R6) (CP,R11) (CV,R12)
0Loc    Object Code    Addr1 Addr2  Stmt Lv Lineno    Source Statement           (Hibal 5, Asmedit 3.3)  HLASM R4.0  2004/03/15 13.00
+___    ______ ____    _____ _____  ____ __ ______    ______ _________
0                                  29258              ¿þþþþþþþþþþþþþþþþþþþþþþþþþþþþþþþþþþþþþþþþþþþþþþþþþþþþþþþþþþþþþþþþþþþþþÜ
                                   29259              Ÿ                                                                     Ÿ
                                   29260              Ÿ  WACTPREV -- WINDOW Previous Subcommand.                            Ÿ
                                   29261              Ÿ                                                                     Ÿ
                                                      ¾þþþþþþþþþþþþþþþþþþþþþþþþþþþþþþþþþþþþþþþþþþþþþþþþþþþþþþþþþþþþþþþþþþþþþ»
0005EB0 50E0 D000/9008_      00000 29262              WACTPREV PROC
 USING  *,R7
 005ECA 4110 B590            00590 29301                       LA    R1,CPATYPE
 005ECE 58F0 B57C            0057C 29302                       L     R15,CPACTNO
 005ED2 58E0 7B56/0DEE       06A20 29303                       VCALL ACTPREV             Previous Active file
 005ED8 4770 704C            05F16 29307                       IF    Z,BEGIN             Can't...
 005EDC 9620 BACE      00ACE       29318  1                      SET   CPVFBELL
 005EE0 4110 7CCB/4100_      06B95 29324  1                      SEG   'There is no previous '
 005EF2 4110 B590/4100_      00590 29341  1                      SEGT  CPATYPE
 005F04 4110 7CBE/4100_      06B88 29369  1                      SEG   ' Active file.'
 005F16                            29386                       END
                                   29390
 005F16 7050/47F0 705C 05F16 05EDA 29391                       ELSE  BEGIN
 005F1A 58E0 7B46/0DEE       06A10 29402  1                      VCALL ACTPICK             Select next Active file
 005F20 58E0 7B52/0DEE       06A1C 29406  1                      VCALL ACTVREST            Restore view position
 005F26                            29410                       END
 005F26 41F0 0004            00004 29414                       LA    R15,4
 005F2A 18D8/9808 D004_            29415                       PEND
 DROP   *,R7
1VIEW     (VIEW2025) (13:00) (15MAR04) VIEW Command                                                                         Page   91
0Current Usings:  (VWA,R6) (CP,R11) (CV,R12)
0Loc    Object Code    Addr1 Addr2  Stmt Lv Lineno    Source Statement           (Hibal 5, Asmedit 3.3)  HLASM R4.0  2004/03/15 13.00
+___    ______ ____    _____ _____  ____ __ ______    ______ _________
0                                  29436              ¿þþþþþþþþþþþþþþþþþþþþþþþþþþþþþþþþþþþþþþþþþþþþþþþþþþþþþþþþþþþþþþþþþþþþþÜ
                                   29437              Ÿ                                                                     Ÿ
                                   29438              Ÿ  WSPLIT -- WINDOW S Subcommand.                                     Ÿ
                                   29439              Ÿ                                                                     Ÿ
                                                      ¾þþþþþþþþþþþþþþþþþþþþþþþþþþþþþþþþþþþþþþþþþþþþþþþþþþþþþþþþþþþþþþþþþþþþþ»
0005F38 50E0 D000/9008_      00000 29440              WSPLIT   PROC
 USING  *,R7
                                   29479
 005F52 5840 BAE0            00AE0 29480                       L     R4,CPVCURR
 005F56 4C40 7BC4            06B16 29481                       MH    R4,=AL2(L'LINT)
 005F5A 5A40 BB64            00B64 29482                       A     R4,CPXLINT
 USING  LINT,R4                    29483                       WITH  (LINT,R4)
                                   29496
 005F5E D501 7BC6 BAD8_06B18 00AD8 29497                       IF    (CPVWCNT,GE,WINDMAX#),BEGIN  Too many windows...
 005F68 9620 BACE      00ACE       29515  1                      SET   CPVFBELL
 005F6C 4110 7C58/4100_      06BAA 29521  1                      SEG   'Can''t split this window, '
 005F7E 4110 7C71/4100_      06BC3 29538  1                      SEG   'too many windows.'
 005F90 47F0 7128            0607A 29555  1                      B     WSPLEXIT
 005F94                            29556                       END
                                   29560                       ¿þþþþþþþþþþþþþþþþþþþþþþþþþþþþþþþþþþþþþþþþþþÜ
                                   29561                       Ÿ  Split the window at the row specified.  Ÿ
                                   29562                       ¾þþþþþþþþþþþþþþþþþþþþþþþþþþþþþþþþþþþþþþþþþþ»
 005F94 4850 4002            00002 29563                       LH    R5,LINTWIND
 005F98 1255/4780 70D0             29564                       IF    (R5,NZ),BEGIN       Regular text line...
 005F9E 4C50 7BC0            06B12 29578  1                      MH    R5,=AL2(L'WIND)
 005FA2 5A50 BB5C            00B5C 29579  1                      A     R5,CPXWIND
 USING  WIND,R5                    29580  1                      WITH  (WIND,R5)
                                   29593  1
 005FA6 9501 400C/4780_0000C       29594  1                      IF    (~LINFNEW,AND,~LINFTEXT),BEGIN  Can't do it...
 005FB6 9620 BACE      00ACE       29623  2                        SET   CPVFBELL
 005FBA 4110 7AD2/4100_      06A24 29629  2                        SEG   'Press WINDOW SPLIT [ESC W S] on a text line '
 005FCC 4110 7C82/4100_      06BD4 29646  2                        SEG   'to divide the page.'
 005FDE 47F0 7128            0607A 29663  2                        B     WSPLEXIT
 005FE2                            29664  1                      END
                                   29668  1
 005FE2 5820 BAE0            00AE0 29669  1                      L     R2,CPVCURR          Current (cursor) row
 005FE6 4920 5008/4770_      00008 29670  1                      IF    (R2,EQ,WINDLROW),BEGIN
 005FEE 9620 BACE      00ACE       29687  2                        SET   CPVFBELL
 005FF2 4110 7C58/4100_      06BAA 29693  2                        SEG   'Can''t split this window, '
 006004 4110 7AFE/4100_      06A50 29710  2                        SEG   'This is the last line of the window.'
 006016 47F0 7128            0607A 29727  2                        B     WSPLEXIT
 00601A                            29728  1                      END
                                   29732  1
 00601A 4800 5002            00002 29733  1                      LH    R0,WINDNO           Our window
 00601E 4810 4000            00000 29734  1                      LH    R1,LINTROW          Split the window here
 DROP   WIND,R5                    29735                       END
                                   29744                       ¿þþþþþþþþþþþþþþþþþþþþþþþþþþþþþÜ
                                   29745                       Ÿ  Split the window in half.  Ÿ
                                   29746                       ¾þþþþþþþþþþþþþþþþþþþþþþþþþþþþþ»
 006022 70D4/47F0 70D8 06022 05F9C 29747                       ELSE  BEGIN               Split the current window...
 006026 1B00                       29758  1                      CLEAR R0                  Current window
 006028 1B11                       29762  1                      CLEAR R1                  Split it in half
 00602A                            29766                       END
1VIEW     (VIEW2025) (13:00) (15MAR04) VIEW Command                                                                         Page   92
0Current Usings:  (LINT,R4) (VWA,R6) (*,R7) (CP,R11) (CV,R12)
0Loc    Object Code    Addr1 Addr2  Stmt Lv Lineno    Source Statement           (Hibal 5, Asmedit 3.3)  HLASM R4.0  2004/03/15 13.00
+___    ______ ____    _____ _____  ____ __ ______    ______ _________
0                                  29770                       ¿þþþþþþþþþþþþþþþþþþþþþÜ
                                   29771                       Ÿ  Split the window.  Ÿ
                                   29772                       ¾þþþþþþþþþþþþþþþþþþþþþ»
 00602A 58E0 7B22/0DEE       06A74 29773                       VCALL PAGENEWW            Do it
 006030 4780 7128            0607A 29777                       IF    NZ,BEGIN            Couldn't split window...
 006034 9620 BACE      00ACE       29788  1                      SET   CPVFBELL
 006038 9001 D000/41D0_      00000 29794  1                      XPUSH R0,R1
 006040 4110 7C95/4100_      06BE7 29797  1                      SEG   'Can''t split this window ('
 006052 4BD0 7BC8/9801_      06B1A 29814  1                      XPOP  R0,R1
 00605A 41F0 6008/58E0_      00008 29817  1                      SEG   (R1),(R0)
 006064 4110 7BCA/4100_      06B1C 29840  1                      SEG   ').'
 006076 47F0 7128            0607A 29857  1                      B     WSPLEXIT
 00607A                            29858                       END
                                   29862
 00607A 41F0 0004            00004 29863              WSPLEXIT LA    R15,4
 00607E 18D8/9808 D004_            29864                       PEND
 DROP   LINT,R4
 DROP   *,R7
1VIEW     (VIEW2025) (13:00) (15MAR04) VIEW Command                                                                         Page   93
0Current Usings:  (VWA,R6) (CP,R11) (CV,R12)
0Loc    Object Code    Addr1 Addr2  Stmt Lv Lineno    Source Statement           (Hibal 5, Asmedit 3.3)  HLASM R4.0  2004/03/15 13.00
+___    ______ ____    _____ _____  ____ __ ______    ______ _________
0                                  29890              ¿þþþþþþþþþþþþþþþþþþþþþþþþþþþþþþþþþþþþþþþþþþþþþþþþþþþþþþþþþþþþþþþþþþþþþÜ
                                   29891              Ÿ                                                                     Ÿ
                                   29892              Ÿ  WJOIN -- WINDOW J Subcommand.                                      Ÿ
                                   29893              Ÿ                                                                     Ÿ
                                                      ¾þþþþþþþþþþþþþþþþþþþþþþþþþþþþþþþþþþþþþþþþþþþþþþþþþþþþþþþþþþþþþþþþþþþþþ»
000608C 50E0 D000/9008_      00000 29894              WJOIN    PROC
 USING  *,R7
                                   29933                       ¿þþþþþþþþþþþþþþþþþþþþþþþþþþþþþþþþþþþþþþþþÜ
                                   29934                       Ÿ  Make sure it's a valid join request.  Ÿ
                                   29935                       ¾þþþþþþþþþþþþþþþþþþþþþþþþþþþþþþþþþþþþþþþþ»
 0060A6 D501 7A6A BAD8_06B10 00AD8 29936                       IF    (CPVWCNT,EQ,1),BEGIN  Trouble...
 0060B0 4110 79D2/4100_      06A78 29954  1                      SEG   'Can''t join windows; '
 0060C2 4110 7B5A/4100_      06C00 29971  1                      SEG   'there is only one window.'
 0060D4 9620 BACE      00ACE       29988  1                      SET   CPVFBELL
 0060D8 47F0 71D6            0627C 29994  1                      B     WJEXIT
 0060DC                            29995                       END
                                   29999
 0060DC 4850 BAD6            00AD6 30000                       LH    R5,CPVWCUR
 0060E0 4C50 7A6C            06B12 30001                       MH    R5,=AL2(L'WIND)
 0060E4 5A50 BB5C            00B5C 30002                       A     R5,CPXWIND
 USING  WIND,R5                    30003                       WITH  (WIND,R5)
                                   30016                       ¿þþþþþþþþþþþþþþþþþþþþþþþþþþþþþþþþþþþþþþþþþþþþþþþþþþþþÜ
                                   30017                       Ÿ  Free the text lines in the window to be deleted.  Ÿ
                                   30018                       ¾þþþþþþþþþþþþþþþþþþþþþþþþþþþþþþþþþþþþþþþþþþþþþþþþþþþþ»
 0060E8 41F0 5040            00040 30019                       LA    R15,WINDNEXT        Window to be deleted
 0060EC D501 BAD6 BAD8_00AD6 00AD8 30020                       IF    (CPVWCUR,EQ,CPVWCNT),'SH R15,=AL2(2*L"WIND)'
 USING  WIND,R15                   30044                       WITH  (WIND,R15),BEGIN
 0060FA 4830 F006            00006 30058  1                      LH    R3,WINDFROW
 0060FE 1843                       30059  1                      LR    R4,R3
 006100 4C40 7A70            06B16 30060  1                      MH    R4,=AL2(L'LINT)
 006104 5A40 BB64            00B64 30061  1                      A     R4,CPXLINT
 006108 4930 F008/4730_      00008 30062  1                      WHILE (R3,LE,WINDLROW),BEGIN  Fix up lines...
 USING  LINT,R4                    30081  2                        WITH  (LINT,R4)
 006110 9506 400C/4780_0000C       30094  2                        IF    (LINFSTAT,OR,LINFNEW,OR,LINFTEXT),'FREELINT'
 00613E 9680 400D      0000D       30171  2                        SET   LINFREWR            Must rewrite line
                                   30177  2
 006142 4140 4014            00014 30178  2                        LA    R4,LINTNEXT
 006146 4130 3001            00001 30179  2                        LA    R3,@R3+1
 00614A 47F0 7062            06108 30180  1                      END
 DROP   LINT,R4
 DROP   WIND,R15                   30190                       END
                                   30198                       ¿þþþþþþþþþþþþþþþþþþþþþþþþþþþþþþþþþþþÜ
                                   30199                       Ÿ  Join last and previous windows.  Ÿ
                                   30200                       ¾þþþþþþþþþþþþþþþþþþþþþþþþþþþþþþþþþþþ»
 00614E 4820 BAD6            00AD6 30201                       LH    R2,CPVWCUR
 006152 4920 BAD8/4770_      00AD8 30202                       IF    (R2,EQ,CPVWCNT),BEGIN  Current is last window...
 00615A 4840 5006            00006 30219  1                      LH    R4,WINDFROW
 00615E 4C40 7A70            06B16 30220  1                      MH    R4,=AL2(L'LINT)
 006162 5A40 BB64            00B64 30221  1                      A     R4,CPXLINT
 USING  LINT,R4                    30222  1                      WITH  (LINT,R4),BEGIN
 006166 9506 400C/4770_0000C       30236  2                        IF    LINFSTAT,'FREELINT'  Remove status line
 DROP   LINT,R4                    30287  1                      END
                                   30295  1
1VIEW     (VIEW2025) (13:00) (15MAR04) VIEW Command                                                                         Page   94
0Current Usings:  (WIND,R5) (VWA,R6) (*,R7) (CP,R11) (CV,R12)
0Loc    Object Code    Addr1 Addr2  Stmt Lv Lineno    Source Statement           (Hibal 5, Asmedit 3.3)  HLASM R4.0  2004/03/15 13.00
+___    ______ ____    _____ _____  ____ __ ______    ______ _________
0006184 4B50 7A6C            06B12 30296  1                      SH    R5,=AL2(L'WIND)     Back up to previous window
                                   30297  1
 006188 4830 5006            00006 30298  1                      LH    R3,WINDFROW
 00618C 1843                       30299  1                      LR    R4,R3
 00618E 4C40 7A70            06B16 30300  1                      MH    R4,=AL2(L'LINT)
 006192 5A40 BB64            00B64 30301  1                      A     R4,CPXLINT
 006196 4930 5008/4730_      00008 30302  1                      WHILE (R3,LE,WINDLROW),BEGIN  Invalidate all old linenos...
 USING  LINT,R4                    30321  2                        WITH  (LINT,R4)
 00619E D203 4004 79E6 00004 06A8C 30334  2                        MVC   LINTOLNO,=F'-2'     Invalidate old
                                   30335  2
 0061A4 4140 4014            00014 30336  2                        LA    R4,LINTNEXT
 0061A8 4130 3001            00001 30337  2                        LA    R3,@R3+1
 0061AC 47F0 70F0            06196 30338  1                      END
 DROP   LINT,R4
                                   30348  1
 0061B0 4840 5006            00006 30349  1                      LH    R4,WINDFROW         Current window's first row
 0061B4 D23F 5000 5040 00000 00040 30350  1                      MVC   WIND,WINDNEXT       Set new window information
 0061BA 4040 5006            00006 30351  1                      STH   R4,WINDFROW         Set new first row
                                   30352  1
 0061BE 4C40 7A70            06B16 30353  1                      MH    R4,=AL2(L'LINT)
 0061C2 5A40 BB64            00B64 30354  1                      A     R4,CPXLINT
 USING  LINT,R4                    30355  1                      WITH  (LINT,R4),BEGIN
 0061C6 D503 4010 4004_00010 00004 30369  2                        FREELINT
 0061DC 9206 400C/9680_0000C       30400  2                        SET   LINFSTAT,LINFREWR   Status line
 DROP   LINT,R4                    30410  1                      END
                                   30418  1
 0061E4 58F0 79EA            06A90 30419  1                      L     R15,=F'-1'          Must recalc starting lineno, etc.
 0061E8 50F0 5018            00018 30420  1                      ST    R15,WINDSLNO
 0061EC 50F0 501C            0001C 30421  1                      ST    R15,WINDELNO
 0061F0 50F0 5020            00020 30422  1                      ST    R15,WINDFLNO
 0061F4 50F0 5024            00024 30423  1                      ST    R15,WINDLLNO
                                   30424  1
 0061F8 9640 5000      00000       30425  1                      SET   WINFMOD             Recalc first,last linenos
                                   30431  1
 0061FC 0620                       30432  1                      DECR  R2
 0061FE 4020 BAD6            00AD6 30434  1                      STH   R2,CPVWCUR          Save new current window number
 006202 4020 BAD8            00AD8 30435  1                      STH   R2,CPVWCNT          Save new total number of windows
 006206                            30436                       END
                                   30440                       ¿þþþþþþþþþþþþþþþþþþþþþþþþþþþþþþþþþþÜ
                                   30441                       Ÿ  Join current and next windows.  Ÿ
                                   30442                       ¾þþþþþþþþþþþþþþþþþþþþþþþþþþþþþþþþþþ»
 006206 7164/47F0 71CC 06206 06158 30443                       ELSE  BEGIN               Join current and next windows...
 00620A 4150 5040            00040 30454  1                      LA    R5,WINDNEXT         Next window
 00620E 4830 5006            00006 30455  1                      LH    R3,WINDFROW
 006212 1843                       30456  1                      LR    R4,R3
 006214 4C40 7A70            06B16 30457  1                      MH    R4,=AL2(L'LINT)
 006218 5A40 BB64            00B64 30458  1                      A     R4,CPXLINT
 00621C 4930 5008/4730_      00008 30459  1                      WHILE (R3,LE,WINDLROW),BEGIN  Invalidate all old linenos...
 USING  LINT,R4                    30478  2                        WITH  (LINT,R4)
 006224 D203 4004 79E6 00004 06A8C 30491  2                        MVC   LINTOLNO,=F'-2'     Invalidate old
                                   30492  2
 00622A 4140 4014            00014 30493  2                        LA    R4,LINTNEXT
 00622E 4130 3001            00001 30494  2                        LA    R3,@R3+1
 006232 47F0 7176            0621C 30495  1                      END
1VIEW     (VIEW2025) (13:00) (15MAR04) VIEW Command                                                                         Page   95
0Current Usings:  (WIND,R5) (VWA,R6) (*,R7) (CP,R11) (CV,R12)
0Loc    Object Code    Addr1 Addr2  Stmt Lv Lineno    Source Statement           (Hibal 5, Asmedit 3.3)  HLASM R4.0  2004/03/15 13.00
+___    ______ ____    _____ _____  ____ __ ______    ______ _________
0DROP   LINT,R4
                                   30505  1
 006236 4B50 7A6C            06B12 30506  1                      SH    R5,=AL2(L'WIND)     Current window
 00623A 4840 5048            00048 30507  1                      LH    R4,WINDNEXT+(WINDLROW-WIND)  New last row
 00623E 4040 5008            00008 30508  1                      STH   R4,WINDLROW
                                   30509  1
 006242 9640 5000      00000       30510  1                      SET   WINFMOD             Recalc first,last linenos
                                   30516  1
 006246 4820 BAD8            00AD8 30517  1                      LH    R2,CPVWCNT
 00624A 4B20 BAD6            00AD6 30518  1                      SH    R2,CPVWCUR
 00624E 0620                       30519  1                      DECR  R2                  No. of windows after next
 006250 1222/47D0 71C2             30521  1                      IF    (R2,POS),BEGIN      Move them up...
 006256 4C20 7A6C            06B12 30535  2                        MH    R2,=AL2(L'WIND)
 00625A 41E0 5040/18F2_      00040 30536  2                        MOVEL WINDNEXT,WINDNEXT+L'WIND,(R2)  Delete "next" window
 006268                            30558  1                      END
                                   30562  1
 006268 48F0 BAD8/06F0_      00AD8 30563  1                      DECR  R15,CPVWCNT         One less window
 006272                            30568                       END
                                   30572                       ¿þþþþþþþþþþþþþþþþþþþþþþþþþþþþÜ
                                   30573                       Ÿ  Fix up window numbering.  Ÿ
                                   30574                       ¾þþþþþþþþþþþþþþþþþþþþþþþþþþþþ»
 006272 58E0 79EE/0DEE       06A94 30575                       VCALL WINDFIX             Fix up window numbering
                                   30579
 006278 9620 BAC9      00AC9       30580                       SET   CPVFFMT             Redo field formatting
 00627C                            30586              WJEXIT   LABEL ,
 00627C 41F0 0004            00004 30588                       LA    R15,4
 006280 18D8/9808 D004_            30589                       PEND
 DROP   WIND,R5
 DROP   *,R7
1VIEW     (VIEW2025) (13:00) (15MAR04) VIEW Command                                                                         Page   96
0Current Usings:  (VWA,R6) (CP,R11) (CV,R12)
0Loc    Object Code    Addr1 Addr2  Stmt Lv Lineno    Source Statement           (Hibal 5, Asmedit 3.3)  HLASM R4.0  2004/03/15 13.00
+___    ______ ____    _____ _____  ____ __ ______    ______ _________
0                                  30615              ¿þþþþþþþþþþþþþþþþþþþþþþþþþþþþþþþþþþþþþþþþþþþþþþþþþþþþþþþþþþþþþþþþþþþþþÜ
                                   30616              Ÿ                                                                     Ÿ
                                   30617              Ÿ  PF22 -- Smart "WINDOW L"; if an alternate width is defined then    Ÿ
                                   30618              Ÿ    this PF key becomes "WINDOW W".                                  Ÿ
                                   30619              Ÿ                                                                     Ÿ
                                                      ¾þþþþþþþþþþþþþþþþþþþþþþþþþþþþþþþþþþþþþþþþþþþþþþþþþþþþþþþþþþþþþþþþþþþþþ»
000628E 50E0 D000/9008_      00000 30620              PF22     PROC
 USING  *,R7
 0062A8 9180 BACB/47E0_00ACB       30659                       IF    CPVFVTAM,BEGIN      VTAM only...
 0062B0 D601 B432 B432_00432 00432 30674  1                      IF    (CPSALTHEI,NZ),'ACALL WWIDTH; EXIT PF22'  Change wid
 0062C4                            30702                       END
                                   30706
 0062C4 58E0 77F4/0DEE       06A9C 30707                       ACALL WLEFT               Otherwise, it's "WINDOW L"
 0062CA 18D8/9808 D004_            30711                       PEND
 DROP   *,R7
1VIEW     (VIEW2025) (13:00) (15MAR04) VIEW Command                                                                         Page   97
0Current Usings:  (VWA,R6) (CP,R11) (CV,R12)
0Loc    Object Code    Addr1 Addr2  Stmt Lv Lineno    Source Statement           (Hibal 5, Asmedit 3.3)  HLASM R4.0  2004/03/15 13.00
+___    ______ ____    _____ _____  ____ __ ______    ______ _________
0                                  30732              ¿þþþþþþþþþþþþþþþþþþþþþþþþþþþþþþþþþþþþþþþþþþþþþþþþþþþþþþþþþþþþþþþþþþþþþÜ
                                   30733              Ÿ                                                                     Ÿ
                                   30734              Ÿ  WLEFT -- WINDOW L Subcommand.                                      Ÿ
                                   30735              Ÿ                                                                     Ÿ
                                                      ¾þþþþþþþþþþþþþþþþþþþþþþþþþþþþþþþþþþþþþþþþþþþþþþþþþþþþþþþþþþþþþþþþþþþþþ»
00062D8 50E0 D000/9008_      00000 30736              WLEFT    PROC
 USING  *,R7
 0062F2 5840 BAE0            00AE0 30775                       L     R4,CPVCURR          Cursor row
 0062F6 1854                       30776                       LR    R5,R4
 0062F8 4C50 7824            06B16 30777                       MH    R5,=AL2(L'LINT)
 0062FC 5A50 BB64            00B64 30778                       A     R5,CPXLINT
 USING  LINT,R5                    30779                       WITH  (LINT,R5),BEGIN
 006300 4860 5002/1266_      00002 30793  1                      IF    ('LTH R6,LINTWIND',Z),BEGIN  Not a text line...
 00630A 9620 BACE      00ACE       30809  2                        SET   CPVFBELL
 00630E 47F0 704C            0633E 30815  2                        B     LEFTEXIT
 006312                            30816  1                      END
                                   30820  1
 006312 4C60 7820            06B12 30821  1                      MH    R6,=AL2(L'WIND)
 006316 5A60 BB5C            00B5C 30822  1                      A     R6,CPXWIND
 DROP   VWA,R6                     30823  1                      WITH  (WIND,R6)
 USING  WIND,R6
                                   30839  1
 00631A 58F0 BAE4            00AE4 30840  1                      L     R15,CPVCURC         Cursor column
 00631E 4BF0 600A            0000A 30841  1                      SH    R15,WINDTCOL        Starting text column
 006322 47D0 7038/4AF0_      0632A 30842  1                      IF    POS,'AH R15,WINDFCOL'  Adjust for cols displayed
 00632A 703C/47F0 703E_0632A 06324 30859  1                      ELSE  'CLEAR R15'
                                   30879  1
 006330 4100 F001            00001 30880  1                      LA    R0,@R15+1           Actual starting column
 006334 41F0 6000            00000 30881  1                      LA    R15,WIND
 006338 58E0 77AE/0DEE       06AA0 30882  1                      VCALL PAGECOLS            Display these columns
 DROP   WIND,R6                    30886                       END
 USING  VWA,R6
 DROP   LINT,R5
 00633E                            30906              LEFTEXIT LABEL ,
 00633E 41F0 0004            00004 30908                       LA    R15,4
 006342 18D8/9808 D004_            30909                       PEND
 DROP   *,R7
1VIEW     (VIEW2025) (13:00) (15MAR04) VIEW Command                                                                         Page   98
0Current Usings:  (VWA,R6) (CP,R11) (CV,R12)
0Loc    Object Code    Addr1 Addr2  Stmt Lv Lineno    Source Statement           (Hibal 5, Asmedit 3.3)  HLASM R4.0  2004/03/15 13.00
+___    ______ ____    _____ _____  ____ __ ______    ______ _________
0                                  30930              ¿þþþþþþþþþþþþþþþþþþþþþþþþþþþþþþþþþþþþþþþþþþþþþþþþþþþþþþþþþþþþþþþþþþþþþÜ
                                   30931              Ÿ                                                                     Ÿ
                                   30932              Ÿ  WRIGHT -- WINDOW R Subcommand.                                     Ÿ
                                   30933              Ÿ                                                                     Ÿ
                                                      ¾þþþþþþþþþþþþþþþþþþþþþþþþþþþþþþþþþþþþþþþþþþþþþþþþþþþþþþþþþþþþþþþþþþþþþ»
0006350 50E0 D000/9008_      00000 30934              WRIGHT   PROC
 USING  *,R7
 00636A 5840 BAE0            00AE0 30973                       L     R4,CPVCURR          Cursor row
 00636E 1854                       30974                       LR    R5,R4
 006370 4C50 77AC            06B16 30975                       MH    R5,=AL2(L'LINT)
 006374 5A50 BB64            00B64 30976                       A     R5,CPXLINT
 USING  LINT,R5                    30977                       WITH  (LINT,R5),BEGIN
 006378 4860 5002/1266_      00002 30991  1                      IF    ('LTH R6,LINTWIND',Z),BEGIN  Not a text line...
 006382 9620 BACE      00ACE       31007  2                        SET   CPVFBELL
 006386 47F0 7048            063B2 31013  2                        B     RIGHTXIT
 00638A                            31014  1                      END
                                   31018  1
 00638A 4C60 77A8            06B12 31019  1                      MH    R6,=AL2(L'WIND)
 00638E 5A60 BB5C            00B5C 31020  1                      A     R6,CPXWIND
 DROP   VWA,R6                     31021  1                      WITH  (WIND,R6)
 USING  WIND,R6
                                   31037  1
 006392 58F0 BAE4            00AE4 31038  1                      L     R15,CPVCURC         Cursor column
 006396 4AF0 600E            0000E 31039  1                      AH    R15,WINDFCOL        Adjust for cols being displayed
 00639A 4BF0 BAD2            00AD2 31040  1                      SH    R15,CPVWID          Calc left col from right col
 00639E 47B0 703A/1BFF       063A4 31041  1                      IF    NEG,'CLEAR R15'
                                   31061  1
 0063A4 4100 F001            00001 31062  1                      LA    R0,@R15+1           Actual starting column
 0063A8 41F0 6000            00000 31063  1                      LA    R15,WIND
 0063AC 58E0 7736/0DEE       06AA0 31064  1                      VCALL PAGECOLS            Display these columns
 DROP   WIND,R6                    31068                       END
 USING  VWA,R6
 DROP   LINT,R5
 0063B2                            31088              RIGHTXIT LABEL ,
 0063B2 41F0 0004            00004 31090                       LA    R15,4
 0063B6 18D8/9808 D004_            31091                       PEND
 DROP   *,R7
1VIEW     (VIEW2025) (13:00) (15MAR04) VIEW Command                                                                         Page   99
0Current Usings:  (VWA,R6) (CP,R11) (CV,R12)
0Loc    Object Code    Addr1 Addr2  Stmt Lv Lineno    Source Statement           (Hibal 5, Asmedit 3.3)  HLASM R4.0  2004/03/15 13.00
+___    ______ ____    _____ _____  ____ __ ______    ______ _________
0                                  31112              ¿þþþþþþþþþþþþþþþþþþþþþþþþþþþþþþþþþþþþþþþþþþþþþþþþþþþþþþþþþþþþþþþþþþþþþÜ
                                   31113              Ÿ                                                                     Ÿ
                                   31114              Ÿ  WNUM -- WINDOW U Subcommands.                                      Ÿ
                                   31115              Ÿ                                                                     Ÿ
                                                      ¾þþþþþþþþþþþþþþþþþþþþþþþþþþþþþþþþþþþþþþþþþþþþþþþþþþþþþþþþþþþþþþþþþþþþþ»
00063C4 50E0 D000/9008_      00000 31116              WNUM     PROC
 USING  *,R7
 0063DE 4850 BAD6            00AD6 31155                       LH    R5,CPVWCUR
 0063E2 4C50 7734            06B12 31156                       MH    R5,=AL2(L'WIND)
 0063E6 5A50 BB5C            00B5C 31157                       A     R5,CPXWIND
 USING  WIND,R5                    31158                       WITH  (WIND,R5),BEGIN
                                   31172  1
 0063EA 9720 5000      00000       31173  1                      FLIP  WINFUNN             Switch numbered/unnumbered
 0063EE 9680 5000      00000       31179  1                      SET   WINFREWR            Rewrite entire window
                                   31185  1                      ¿þþþþþþþþþþþþþþþþþþþþþþþþþþþþþþþÜ
                                   31186  1                      Ÿ  Recalculate window lengths.  Ÿ
                                   31187  1                      ¾þþþþþþþþþþþþþþþþþþþþþþþþþþþþþþþ»
 0063F2 41F0 000C            0000C 31188  1                      LA    R15,12              First text column
 0063F6 9120 5000/47E0_00000       31189  1                      IF    WINFUNN,BEGIN       Unnumbered...
 0063FE 41F0 0001            00001 31204  2                        LA    R15,1               Starting text column
 006402                            31205  1                      END
                                   31209  1
 006402 40F0 500A            0000A 31210  1                      STH   R15,WINDTCOL        First text column
 006406 06F0                       31211  1                      DECR  R15
 006408 4820 BAD0            00AD0 31213  1                      LH    R2,CPVTWID
 00640C 9120 5000/47E0_00000       31214  1                      IF    WINFUNN,'DECR R2'   Adjust for one char prot field
 006416 1B2F                       31236  1                      SR    R2,R15              Maximum text length
 006418 4800 BC4E            00C4E 31237  1                      LH    R0,CPFCOL
 00641C 4000 500E            0000E 31238  1                      STH   R0,WINDFCOL         Column-1 for lines
 006420 41F0 00EB            000EB 31239  1                      LA    R15,&LINESZ
 006424 1BF0                       31240  1                      SR    R15,R0
 006426 192F/47D0 7050_            31241  1                      CEIL  R2,R15              Don't go past end of line
 00642E 4020 500C            0000C 31247  1                      STH   R2,WINDTLEN         Save it
 DROP   WIND,R5                    31248                       END
                                   31256
 006432 9620 BAC9      00AC9       31257                       SET   CPVFFMT             Redo field formatting
 006436 41F0 0004            00004 31263                       LA    R15,4
 00643A 18D8/9808 D004_            31264                       PEND
 DROP   *,R7
1VIEW     (VIEW2025) (13:00) (15MAR04) VIEW Command                                                                         Page  100
0Current Usings:  (VWA,R6) (CP,R11) (CV,R12)
0Loc    Object Code    Addr1 Addr2  Stmt Lv Lineno    Source Statement           (Hibal 5, Asmedit 3.3)  HLASM R4.0  2004/03/15 13.00
+___    ______ ____    _____ _____  ____ __ ______    ______ _________
0                                  31285              ¿þþþþþþþþþþþþþþþþþþþþþþþþþþþþþþþþþþþþþþþþþþþþþþþþþþþþþþþþþþþþþþþþþþþþþÜ
                                   31286              Ÿ                                                                     Ÿ
                                   31287              Ÿ  WCOLUMN -- WINDOW C Subcommand.                                    Ÿ
                                   31288              Ÿ                                                                     Ÿ
                                                      ¾þþþþþþþþþþþþþþþþþþþþþþþþþþþþþþþþþþþþþþþþþþþþþþþþþþþþþþþþþþþþþþþþþþþþþ»
0006448 50E0 D000/9008_      00000 31289              WCOLUMN  PROC
 USING  *,R7
 006462 5840 BAE0            00AE0 31328                       L     R4,CPVCURR          Cursor row
 006466 4C40 76B4            06B16 31329                       MH    R4,=AL2(L'LINT)
 00646A 5A40 BB64            00B64 31330                       A     R4,CPXLINT
 USING  LINT,R4                    31331                       WITH  (LINT,R4),BEGIN
                                   31345  1                      ¿þþþþþþþþþþþþþþþþþþþþþþþþþþþþþþþþþþþþþþþþþþþþþþþþþþþþþþÜ
                                   31346  1                      Ÿ  Don't allow getting rid of the global column line.  Ÿ
                                   31347  1                      ¾þþþþþþþþþþþþþþþþþþþþþþþþþþþþþþþþþþþþþþþþþþþþþþþþþþþþþþ»
 00646E D601 4002 4002_00002 00002 31348  1                      IF    (LINTWIND,Z),BEGIN  Global line...
 006478 9620 BACE      00ACE       31364  2                        SET   CPVFBELL            Complain
 00647C 47F0 70D8            0653A 31370  2                        B     WCOLEXIT
 006480                            31371  1                      END
                                   31375  1                      ¿þþþþþþþþþþþþþþþþþþþþþþþþþþþþþþþþþþþþþþþþþþþþþþþþþþþþþÜ
                                   31376  1                      Ÿ  Replace the current text line with a column line.  Ÿ
                                   31377  1                      ¾þþþþþþþþþþþþþþþþþþþþþþþþþþþþþþþþþþþþþþþþþþþþþþþþþþþþþ»
 006480 9501 400C/4780_0000C       31378  1                      IF    (LINFNEW,OR,LINFTEXT),BEGIN  Replace text line...
 006490 D503 4010 4004_00010 00004 31407  2                        FREELINT
 0064A6 9203 400C/9680_0000C       31438  2                        SET   LINFCOL,LINFREWR
 0064AE                            31448  1                      END
                                   31452  1                      ¿þþþþþþþþþþþþþþþþþþþþþþþþþþþþþþþþþþþþþþþþþþþþþþþþþþþþþÜ
                                   31453  1                      Ÿ  Replace the current column line with a text line.  Ÿ
                                   31454  1                      ¾þþþþþþþþþþþþþþþþþþþþþþþþþþþþþþþþþþþþþþþþþþþþþþþþþþþþþ»
 0064AE 7050/47F0 706E_064AE 0648E 31455  1                      ELSEIF LINFCOL,BEGIN      Replace column line...
 0064BA D503 4010 4004_00010 00004 31479  2                        FREELINT
 0064D0                            31510  1                      END
                                   31514  1                      ¿þþþþþþþþþþþþþþþþþþþþþþþþþþþþþþþþþþþþþþþþþþþþþþþþÜ
                                   31515  1                      Ÿ  Cursor is on a funny type of line, complain.  Ÿ
                                   31516  1                      ¾þþþþþþþþþþþþþþþþþþþþþþþþþþþþþþþþþþþþþþþþþþþþþþþþ»
 0064D0 7072/47F0 709E 064D0 064B8 31517  1                      ELSE  BEGIN               Complain...
 0064D4 9620 BACE      00ACE       31528  2                        SET   CPVFBELL
 0064D8 4110 7642/4100_      06AA4 31534  2                        SEG   'Position cursor to text line to be replaced '
 0064EA 4110 77B7/4100_      06C19 31551  2                        SEG   'with a column line.'
 0064FC 47F0 70D8            0653A 31568  2                        B     WCOLEXIT
 006500                            31569  1                      END
                                   31573  1                      ¿þþþþþþþþþþþþþþþþþþþÜ
                                   31574  1                      Ÿ  Tidy up window.  Ÿ
                                   31575  1                      ¾þþþþþþþþþþþþþþþþþþþ»
 006500 4850 4002            00002 31576  1                      LH    R5,LINTWIND
 006504 4C50 76B0            06B12 31577  1                      MH    R5,=AL2(L'WIND)
 006508 5A50 BB5C            00B5C 31578  1                      A     R5,CPXWIND
 USING  WIND,R5                    31579  1                      WITH  (WIND,R5),BEGIN
 00650C 4800 5006            00006 31593  2                        LH    R0,WINDFROW
 006510 4810 5008            00008 31594  2                        LH    R1,WINDLROW
 006514 58E0 766E/0DEE       06AD0 31595  2                        VCALL PAGECNT             Count number of text lines
 00651A 40F0 5004            00004 31599  2                        STH   R15,WINDTCNT        Keep text line count accurate
                                   31600  2
 00651E 58F0 762E            06A90 31601  2                        L     R15,=F'-1'          Must recalc starting lineno, etc.
1VIEW     (VIEW2025) (13:00) (15MAR04) VIEW Command                                                                         Page  101
0Current Usings:  (LINT,R4) (WIND,R5) (VWA,R6) (*,R7) (CP,R11) (CV,R12)
0Loc    Object Code    Addr1 Addr2  Stmt Lv Lineno    Source Statement           (Hibal 5, Asmedit 3.3)  HLASM R4.0  2004/03/15 13.00
+___    ______ ____    _____ _____  ____ __ ______    ______ _________
0006522 50F0 5018            00018 31602  2                        ST    R15,WINDSLNO
 006526 50F0 501C            0001C 31603  2                        ST    R15,WINDELNO
 00652A 50F0 5020            00020 31604  2                        ST    R15,WINDFLNO
 00652E 50F0 5024            00024 31605  2                        ST    R15,WINDLLNO
                                   31606  2
 006532 9640 5000      00000       31607  2                        SET   WINFMOD             Recalc first,last linenos
 DROP   WIND,R5                    31613  1                      END
 DROP   LINT,R4                    31621                       END
                                   31629
 006536 9620 BAC9      00AC9       31630                       SET   CPVFFMT             Redo field formatting
 00653A                            31636              WCOLEXIT LABEL ,
 00653A 41F0 0004            00004 31638                       LA    R15,4
 00653E 18D8/9808 D004_            31639                       PEND
 DROP   *,R7
1VIEW     (VIEW2025) (13:00) (15MAR04) VIEW Command                                                                         Page  102
0Current Usings:  (VWA,R6) (CP,R11) (CV,R12)
0Loc    Object Code    Addr1 Addr2  Stmt Lv Lineno    Source Statement           (Hibal 5, Asmedit 3.3)  HLASM R4.0  2004/03/15 13.00
+___    ______ ____    _____ _____  ____ __ ______    ______ _________
0                                  31660              ¿þþþþþþþþþþþþþþþþþþþþþþþþþþþþþþþþþþþþþþþþþþþþþþþþþþþþþþþþþþþþþþþþþþþþþÜ
                                   31661              Ÿ                                                                     Ÿ
                                   31662              Ÿ  WWRAP -- WINDOW + and - Subcommands.                               Ÿ
                                   31663              Ÿ                                                                     Ÿ
                                                      ¾þþþþþþþþþþþþþþþþþþþþþþþþþþþþþþþþþþþþþþþþþþþþþþþþþþþþþþþþþþþþþþþþþþþþþ»
000654C 50E0 D000/9008_      00000 31664              WWRAP    PROC
 USING  *,R7
 006566 4850 BAD6            00AD6 31703                       LH    R5,CPVWCUR
 00656A 4C50 75AC            06B12 31704                       MH    R5,=AL2(L'WIND)
 00656E 5A50 BB5C            00B5C 31705                       A     R5,CPXWIND
 USING  WIND,R5                    31706                       WITH  (WIND,R5),BEGIN
 006572 9610 5000      00000       31720  1                      SET   WINFWRAP            Turn on wordwrap
 006576 D502 76C6 BD24_06C2C 00D24 31726  1                      IF    (CPCMNM,EQ,'.WM'),'CLEAR WINFWRAP'  Turn it off
 DROP   WIND,R5                    31755                       END
                                   31763
 006584 58E0 756E/0DEE       06AD4 31764                       ACALL WCOLREWR            Rewrite column lines
                                   31768
 00658A 9620 BAC9      00AC9       31769                       SET   CPVFFMT             Redo field formatting
 00658E 41F0 0004            00004 31775                       LA    R15,4
 006592 18D8/9808 D004_            31776                       PEND
 DROP   *,R7
1VIEW     (VIEW2025) (13:00) (15MAR04) VIEW Command                                                                         Page  103
0Current Usings:  (VWA,R6) (CP,R11) (CV,R12)
0Loc    Object Code    Addr1 Addr2  Stmt Lv Lineno    Source Statement           (Hibal 5, Asmedit 3.3)  HLASM R4.0  2004/03/15 13.00
+___    ______ ____    _____ _____  ____ __ ______    ______ _________
0                                  31797              ¿þþþþþþþþþþþþþþþþþþþþþþþþþþþþþþþþþþþþþþþþþþþþþþþþþþþþþþþþþþþþþþþþþþþþþÜ
                                   31798              Ÿ                                                                     Ÿ
                                   31799              Ÿ  WLMARGIN -- WINDOW < Subcommand.                                   Ÿ
                                   31800              Ÿ                                                                     Ÿ
                                                      ¾þþþþþþþþþþþþþþþþþþþþþþþþþþþþþþþþþþþþþþþþþþþþþþþþþþþþþþþþþþþþþþþþþþþþþ»
00065A0 50E0 D000/9008_      00000 31801              WLMARGIN PROC
 USING  *,R7
 0065BA 4850 BAD6            00AD6 31840                       LH    R5,CPVWCUR
 0065BE 4C50 7558            06B12 31841                       MH    R5,=AL2(L'WIND)
 0065C2 5A50 BB5C            00B5C 31842                       A     R5,CPXWIND
 USING  WIND,R5                    31843                       WITH  (WIND,R5),BEGIN
 0065C6 58F0 BAE4            00AE4 31857  1                      L     R15,CPVCURC         Cursor column
 0065CA 4BF0 500A            0000A 31858  1                      SH    R15,WINDTCOL        Starting text column
 0065CE 47D0 701C/4AF0_      065D6 31859  1                      IF    POS,'AH R15,WINDFCOL'  Adjust for cols displayed
 0065D6 41F0 F001            00001 31876  1                      LA    R15,@R15+1          Relative to one
 0065DA 59F0 751E/47B0_      06AD8 31877  1                      FLOOR R15,1
 0065E6 59F0 7522/47D0_      06ADC 31896  1                      CEIL  R15,&LINESZ         Better safe than sorry
 0065F2 06F0                       31915  1                      DECR  R15
 0065F4 40F0 5010            00010 31917  1                      STH   R15,WINDIND         Set indentation (left margin)
                                   31918  1
 0065F8 58E0 751A/0DEE       06AD4 31919  1                      ACALL WCOLREWR            Make sure col lines get rewritten
 DROP   WIND,R5                    31923                       END
                                   31931
 0065FE 9620 BAC9      00AC9       31932                       SET   CPVFFMT             Redo field formatting
 006602 41F0 0004            00004 31938                       LA    R15,4
 006606 18D8/9808 D004_            31939                       PEND
 DROP   *,R7
1VIEW     (VIEW2025) (13:00) (15MAR04) VIEW Command                                                                         Page  104
0Current Usings:  (VWA,R6) (CP,R11) (CV,R12)
0Loc    Object Code    Addr1 Addr2  Stmt Lv Lineno    Source Statement           (Hibal 5, Asmedit 3.3)  HLASM R4.0  2004/03/15 13.00
+___    ______ ____    _____ _____  ____ __ ______    ______ _________
0                                  31960              ¿þþþþþþþþþþþþþþþþþþþþþþþþþþþþþþþþþþþþþþþþþþþþþþþþþþþþþþþþþþþþþþþþþþþþþÜ
                                   31961              Ÿ                                                                     Ÿ
                                   31962              Ÿ  WLAUTO -- WINDOW / Subcommand.                                     Ÿ
                                   31963              Ÿ                                                                     Ÿ
                                                      ¾þþþþþþþþþþþþþþþþþþþþþþþþþþþþþþþþþþþþþþþþþþþþþþþþþþþþþþþþþþþþþþþþþþþþþ»
0006614 50E0 D000/9008_      00000 31964              WLAUTO   PROC
 USING  *,R7
 00662E 4850 BAD6            00AD6 32003                       LH    R5,CPVWCUR
 006632 4C50 74E4            06B12 32004                       MH    R5,=AL2(L'WIND)
 006636 5A50 BB5C            00B5C 32005                       A     R5,CPXWIND
 USING  WIND,R5                    32006                       WITH  (WIND,R5),BEGIN
 00663A D501 74F2 5010_06B20 00010 32020  1                      IF    (WINDIND,NE,-1),'MVC WINDIND,=H"-1"'
 00664A 7020/47F0 7026_0664A 06642 32044  1                      ELSE  'CLEAR WINDIND'     Toggle auto indentation
                                   32067  1
 006654 58E0 74A6/0DEE       06AD4 32068  1                      ACALL WCOLREWR            Make sure col lines get rewritten
 DROP   WIND,R5                    32072                       END
                                   32080
 00665A 9620 BAC9      00AC9       32081                       SET   CPVFFMT             Redo field formatting
 00665E 41F0 0004            00004 32087                       LA    R15,4
 006662 18D8/9808 D004_            32088                       PEND
 DROP   *,R7
1VIEW     (VIEW2025) (13:00) (15MAR04) VIEW Command                                                                         Page  105
0Current Usings:  (VWA,R6) (CP,R11) (CV,R12)
0Loc    Object Code    Addr1 Addr2  Stmt Lv Lineno    Source Statement           (Hibal 5, Asmedit 3.3)  HLASM R4.0  2004/03/15 13.00
+___    ______ ____    _____ _____  ____ __ ______    ______ _________
0                                  32109              ¿þþþþþþþþþþþþþþþþþþþþþþþþþþþþþþþþþþþþþþþþþþþþþþþþþþþþþþþþþþþþþþþþþþþþþÜ
                                   32110              Ÿ                                                                     Ÿ
                                   32111              Ÿ  WRMARGIN -- WINDOW > Subcommand.                                   Ÿ
                                   32112              Ÿ                                                                     Ÿ
                                                      ¾þþþþþþþþþþþþþþþþþþþþþþþþþþþþþþþþþþþþþþþþþþþþþþþþþþþþþþþþþþþþþþþþþþþþþ»
0006670 50E0 D000/9008_      00000 32113              WRMARGIN PROC
 USING  *,R7
 00668A 4850 BAD6            00AD6 32152                       LH    R5,CPVWCUR
 00668E 4C50 7488            06B12 32153                       MH    R5,=AL2(L'WIND)
 006692 5A50 BB5C            00B5C 32154                       A     R5,CPXWIND
 USING  WIND,R5                    32155                       WITH  (WIND,R5),BEGIN
 006696 9610 5000      00000       32169  1                      SET   WINFWRAP            Make sure wordwrap is on
                                   32175  1
 00669A 58F0 BAE4            00AE4 32176  1                      L     R15,CPVCURC         Cursor column
 00669E 4BF0 500A            0000A 32177  1                      SH    R15,WINDTCOL        Starting text column
 0066A2 47D0 7020/4AF0_      066AA 32178  1                      IF    POS,'AH R15,WINDFCOL'  Adjust for cols displayed
 0066AA 41F0 F001            00001 32195  1                      LA    R15,@R15+1          Relative to one
 0066AE 59F0 744E/47B0_      06AD8 32196  1                      FLOOR R15,1
 0066BA 59F0 7452/47D0_      06ADC 32215  1                      CEIL  R15,&LINESZ         Better safe than sorry
 0066C6 40F0 5012            00012 32234  1                      STH   R15,WINDMARG        Set new right margin
                                   32235  1
 0066CA 58E0 744A/0DEE       06AD4 32236  1                      ACALL WCOLREWR            Make sure col lines get rewritten
 DROP   WIND,R5                    32240                       END
                                   32248
 0066D0 9620 BAC9      00AC9       32249                       SET   CPVFFMT             Redo field formatting
 0066D4 41F0 0004            00004 32255                       LA    R15,4
 0066D8 18D8/9808 D004_            32256                       PEND
 DROP   *,R7
1VIEW     (VIEW2025) (13:00) (15MAR04) VIEW Command                                                                         Page  106
0Current Usings:  (VWA,R6) (CP,R11) (CV,R12)
0Loc    Object Code    Addr1 Addr2  Stmt Lv Lineno    Source Statement           (Hibal 5, Asmedit 3.3)  HLASM R4.0  2004/03/15 13.00
+___    ______ ____    _____ _____  ____ __ ______    ______ _________
0                                  32277              ¿þþþþþþþþþþþþþþþþþþþþþþþþþþþþþþþþþþþþþþþþþþþþþþþþþþþþþþþþþþþþþþþþþþþþþÜ
                                   32278              Ÿ                                                                     Ÿ
                                   32279              Ÿ  WTAB -- WINDOW T Subcommand.                                       Ÿ
                                   32280              Ÿ                                                                     Ÿ
                                                      ¾þþþþþþþþþþþþþþþþþþþþþþþþþþþþþþþþþþþþþþþþþþþþþþþþþþþþþþþþþþþþþþþþþþþþþ»
00066E6 50E0 D000/9008_      00000 32281              WTAB     PROC
 USING  *,R7
 006700 5840 BAE0            00AE0 32320                       L     R4,CPVCURR
 006704 4C40 7416            06B16 32321                       MH    R4,=AL2(L'LINT)
 006708 5A40 BB64            00B64 32322                       A     R4,CPXLINT
 USING  LINT,R4                    32323                       WITH  (LINT,R4),BEGIN
 00670C 4850 4002/1255_      00002 32337  1                      IF    ('LTH R5,LINTWIND',Z),BEGIN  Not a text line...
 006716 9620 BACE      00ACE       32353  2                        SET   CPVFBELL
 00671A 47F0 70DA            067DA 32359  2                        B     WTABEXIT
 00671E                            32360  1                      END
                                   32364  1
 00671E 4C50 7412            06B12 32365  1                      MH    R5,=AL2(L'WIND)
 006722 5A50 BB5C            00B5C 32366  1                      A     R5,CPXWIND
 USING  WIND,R5                    32367  1                      WITH  (WIND,R5)
                                   32380  1
 006726 5830 BAE4            00AE4 32381  1                      L     R3,CPVCURC          Cursor column
 00672A 4B30 500A            0000A 32382  1                      SH    R3,WINDTCOL         Starting text column
 00672E 47D0 7036/4A30_      06736 32383  1                      IF    POS,'AH R3,WINDFCOL'  Adjust for cols displayed
 006736 4130 3001            00001 32400  1                      LA    R3,@R3+1            Relative to one
 00673A 5930 73D8/47B0_      06AD8 32401  1                      FLOOR R3,1
 006746 5930 73DC/47D0_      06ADC 32420  1                      CEIL  R3,&LINESZ          Better safe than sorry
                                   32439  1                      ¿þþþþþþþþþþþþþþþþþþþþþþþþþþþþþþþþþþÜ
                                   32440  1                      Ÿ  Find tab stop insertion point.  Ÿ
                                   32441  1                      ¾þþþþþþþþþþþþþþþþþþþþþþþþþþþþþþþþþþ»
 006752 4110 5030            00030 32442  1                      LA    R1,WINDTABS
 006756 41F0 0010            00010 32443  1                      LA    R15,L'WINDTABS
 00675A                            32444  1                      LOOP  BEGIN               Find tab stop insertion point...
 00675A 1F22/4320 1000             32450  2                        LC    R2,@R1              Tab stop
 006760 1932/4770 707C             32457  2                        IF    (R3,EQ,R2),BEGIN    Remove existing tab stop...
 006766 06F0                       32472  3                          DECR  R15
 006768 06F0/12FF/4740_            32474  3                          MOVE  R15,@R1,@R1+1        Shift tabs over
 006774 9200 503F      0003F       32512  3                          MVI   WINDTABS+L'WINDTABS-1,0  Zot last tab stop
 006778 47F0 70D0            067D0 32513  3                          B     WTABREWR
 00677C                            32514  2                        END
                                   32518  2
 00677C 1222/4780 7098_            32519  2                        IF    ((R2,Z),OR,(R2,GT,R3)),EXIT  Found insertion point
                                   32550  2
 006788 4110 1001            00001 32551  2                        LA    R1,@R1+1            Next tab stop
 00678C 06F0                       32552  2                        DECR  R15
 00678E 12FF/4780 7098             32554  2                        UNTIL (R15,Z)
 006794 47F0 705A            0675A 32572  1                      END
                                   32577  1                      ¿þþþþþþþþþþþþþþþþþþþþþþþþþþþþÜ
                                   32578  1                      Ÿ  Check for tabs overflow.  Ÿ
                                   32579  1                      ¾þþþþþþþþþþþþþþþþþþþþþþþþþþþþ»
 006798 9500 503F/4780_0003F       32580  1                      IF    ('CLI WINDTABS+L"WINDTABS-1,0',NE),BEGIN  No room...
 0067A0 4110 752F/4100_      06C2F 32593  2                        SEG   'Too many tabs.  Can''t add new tab stop.'
 0067B2 9620 BACE      00ACE       32610  2                        SET   CPVFBELL
 0067B6 47F0 70DA            067DA 32616  2                        B     WTABEXIT
1VIEW     (VIEW2025) (13:00) (15MAR04) VIEW Command                                                                         Page  107
0Current Usings:  (LINT,R4) (WIND,R5) (VWA,R6) (*,R7) (CP,R11) (CV,R12)
0Loc    Object Code    Addr1 Addr2  Stmt Lv Lineno    Source Statement           (Hibal 5, Asmedit 3.3)  HLASM R4.0  2004/03/15 13.00
+___    ______ ____    _____ _____  ____ __ ______    ______ _________
00067BA                            32617  1                      END
                                   32621  1
 0067BA 06F0                       32622  1                      DECR  R15
 0067BC 06F0                       32624  1                      DECR  R15
 0067BE 12FF/4740 70CC             32626  1                      IF    (R15,~NEG),BEGIN     Open up space for new tabs...
 0067C4 44F0 758C/D200_      06C8C 32640  2                        EX    R15,'MVC @R13(0),@R1'
 0067C8 44F0 7592/D200_      06C92 32656  2                        EX    R15,'MVC @R1+1(0),@R13' Shift everything right 1 space
 0067CC                            32672  1                      END
                                   32676  1
 0067CC 4230 1000            00000 32677  1                      STC   R3,@R1              Set new tab stop
                                   32678  1
 0067D0 58E0 73D4/0DEE       06AD4 32679  1           WTABREWR   ACALL WCOLREWR            Make sure col lines get rewritten
 DROP   WIND,R5                    32683                       END
 DROP   LINT,R4
                                   32696
 0067D6 9620 BAC9      00AC9       32697                       SET   CPVFFMT             Redo field formatting
 0067DA                            32703              WTABEXIT LABEL ,
 0067DA 41F0 0004            00004 32705                       LA    R15,4
 0067DE 18D8/9808 D004_            32706                       PEND
 DROP   *,R7
1VIEW     (VIEW2025) (13:00) (15MAR04) VIEW Command                                                                         Page  108
0Current Usings:  (VWA,R6) (CP,R11) (CV,R12)
0Loc    Object Code    Addr1 Addr2  Stmt Lv Lineno    Source Statement           (Hibal 5, Asmedit 3.3)  HLASM R4.0  2004/03/15 13.00
+___    ______ ____    _____ _____  ____ __ ______    ______ _________
0                                  32727              ¿þþþþþþþþþþþþþþþþþþþþþþþþþþþþþþþþþþþþþþþþþþþþþþþþþþþþþþþþþþþþþþþþþþþþþÜ
                                   32728              Ÿ                                                                     Ÿ
                                   32729              Ÿ  WWIDTH -- WINDOW W Subcommand.                                     Ÿ
                                   32730              Ÿ                                                                     Ÿ
                                                      ¾þþþþþþþþþþþþþþþþþþþþþþþþþþþþþþþþþþþþþþþþþþþþþþþþþþþþþþþþþþþþþþþþþþþþþ»
00067EC 50E0 D000/9008_      00000 32731              WWIDTH   PROC
 USING  *,R7
                                   32770                       ¿þþþþþþþþþþþþþþþþþþþþþþþþþþþþþþþþþþþþþþþþþþÜ
                                   32771                       Ÿ  VTAM style screen dimension switching.  Ÿ
                                   32772                       ¾þþþþþþþþþþþþþþþþþþþþþþþþþþþþþþþþþþþþþþþþþþ»
 006806 9180 BACB/47E0_00ACB       32773                       IF    CPVFVTAM,BEGIN      VTAM only...
 00680E D601 B432 B432_00432 00432 32788  1                      IF    (CPSALTHEI,Z),WIDERR  No alternate dimension
                                   32807  1                      ¿þþþþþþþþþþþþþþþþþþþþþþþþþþþþþþþþþþþþþþþþþþþþþþþþþþþþþþþþþþþþþÜ
                                   32808  1                      Ÿ  First switch from primary to alternate (or v.v.) and then  Ÿ
                                   32809  1                      Ÿ    make sure Milten has the updated SIB.                    Ÿ
                                   32810  1                      ¾þþþþþþþþþþþþþþþþþþþþþþþþþþþþþþþþþþþþþþþþþþþþþþþþþþþþþþþþþþþþþ»
 006818 4120 0064            00064 32811  1                      LA    R2,100
 00681C 1222/47D0 7030             32812  1                      WHILE (R2,POS),BEGIN      Maximum loop count...
 006822 9720 B3EA      003EA       32828  2                        FLIP  CPSFALTDIM          Switch from primary to alternate
 006826 58E0 72DA/0DEE       06AE0 32834  2                        VCALL UPDCPSIB            Update SIB
 00682C 4780 7030            06836 32838  2                        IF    Z,EXIT              Done, scram
 006830 0620                       32852  2                        DECR  R2
 006832 47F0 7016            0681C 32854  1                      END
                                   32859  1
 006836 4800 B418            00418 32860  1                      LH    R0,CPSWID           Screen width
 00683A 4810 B41C            0041C 32861  1                      LH    R1,CPSHEI           Screen height
                                   32862  1
 00683E 9120 B3EA/47E0_003EA       32863  1                      IF    CPSFALTDIM,BEGIN    Alternate dimensions...
 006846 4800 B430            00430 32878  2                        LH    R0,CPSALTWID        Alt. screen width
 00684A 4810 B432            00432 32879  2                        LH    R1,CPSALTHEI        Alt. screen height
 00684E                            32880  1                      END
                                   32884  1
 00684E 9180 BACB/47E0_00ACB       32885  1                      IF    CPVFVTAM,'DECR R0'  VTAM width is actual-1
 006858 4000 BAD2            00AD2 32907  1                      STH   R0,CPVWID           Save view width
 00685C 4000 BAD0            00AD0 32908  1                      STH   R0,CPVTWID          Save view text width
 006860 4010 BAD4            00AD4 32909  1                      STH   R1,CPVHEI           Save view height
 006864 58E0 72DE/0DEE       06AE4 32910  1                      VCALL CALCDIM             Set new dimensions
                                   32914  1                      ¿þþþþþþþþþþþþþþþþþþþþþþþþþþþþþþþþþþþþþþþþþþþþþþþþþþþÜ
                                   32915  1                      Ÿ  Rebuild the screen image if height is changing.  Ÿ
                                   32916  1                      ¾þþþþþþþþþþþþþþþþþþþþþþþþþþþþþþþþþþþþþþþþþþþþþþþþþþþ»
 00686A D501 B41C B432_0041C 00432 32917  1                      IF    (CPSHEI,NE,CPSALTHEI),BEGIN  Height is changing...
 006874 183D/41D0 D100             32935  2                        XPUSH ,,256,PTR=R3
 00687A 1813/4100 0100             32938  2                        SETMSG (R3),256            Working view info area
 006880 58E0 72E2/0DEE       06AE8 32952  2                        VCALL GETVINFO            Get current view info
 006886 9001 D000/41D0_      00000 32956  2                        XPUSH R0,R1               Save view info message ptrs
                                   32959  2
 00688E 58E0 72E6/0DEE       06AEC 32960  2                        VCALL PAGEINIT            Re-initialize page
                                   32964  2
 006894 4BD0 7314/9801_      06B1A 32965  2                        XPOP  R0,R1               Restore view info ptrs
 00689C 58E0 72EA/0DEE       06AF0 32968  2                        VCALL SETVINFO            Set view info
 0068A2 4BD0 731E            06B24 32972  2                        XPOP  ,,256               Neatness
 0068A6                            32974  1                      END
                                   32978  1
1VIEW     (VIEW2025) (13:00) (15MAR04) VIEW Command                                                                         Page  109
0Current Usings:  (VWA,R6) (*,R7) (CP,R11) (CV,R12)
0Loc    Object Code    Addr1 Addr2  Stmt Lv Lineno    Source Statement           (Hibal 5, Asmedit 3.3)  HLASM R4.0  2004/03/15 13.00
+___    ______ ____    _____ _____  ____ __ ______    ______ _________
00068A6 47F0 7104            0690A 32979  1                      B     WIDEXIT             All done
 0068AA                            32980                       END
                                   32984                       ¿þþþþþþþþþþþþþþþþþþþþþþþþþþþþþþþþþþþþþþþþþþþþþþþÜ
                                   32985                       Ÿ  Terminal type based screen width switching.  Ÿ
                                   32986                       ¾þþþþþþþþþþþþþþþþþþþþþþþþþþþþþþþþþþþþþþþþþþþþþþþ»
 0068AA 5850 B468/1255       00468 32987                       LT    R5,CPTTYPEP
 0068B0 4780 70EE            068F4 32991                       IF    NZ,BEGIN            Terminal type...
 USING  TTYPE,R5                   33002  1                      WITH  (TTYPE,R5)
 0068B4 D601 500C 500C_0000C 0000C 33015  1                      IF    (TTYAWID,Z),EXIT    No alternate width, scram
 0068BE 1BFF                       33034  1                      CLEAR R15
 0068C0 D501 BAD2 500A_00AD2 0000A 33038  1                      IF    (CPVWID,EQ,TTYWID),'LH R15,TTYAWID'  Toggle
 0068CE D501 BAD2 500C_00AD2 0000C 33062  1                      IF    (CPVWID,EQ,TTYAWID),'LH R15,TTYWID'
 0068DC 12FF/4770 70E0_            33086  1                      IF    (R15,Z),'LH R15,TTYWID'
 0068E6 40F0 BAD2            00AD2 33106  1                      STH   R15,CPVWID          Set new width
 0068EA 58E0 72DE/0DEE       06AE4 33107  1                      VCALL CALCDIM             Recalculate screen dimensions
 0068F0 47F0 7104            0690A 33111  1                      B     WIDEXIT
 DROP   TTYPE,R5                   33112                       END
                                   33121
 0068F4 9620 BACE      00ACE       33122              WIDERR   SET   CPVFBELL            Complain
 0068F8 4110 7450/4100_      06C56 33129                       SEG   'You can''t change screen width on this terminal.'
 00690A                            33146              WIDEXIT  LABEL ,
 00690A 41F0 0004            00004 33148                       LA    R15,4
 00690E 18D8/9808 D004_            33149                       PEND
 DROP   *,R7
1VIEW     (VIEW2025) (13:00) (15MAR04) VIEW Command                                                                         Page  110
0Current Usings:  (VWA,R6) (CP,R11) (CV,R12)
0Loc    Object Code    Addr1 Addr2  Stmt Lv Lineno    Source Statement           (Hibal 5, Asmedit 3.3)  HLASM R4.0  2004/03/15 13.00
+___    ______ ____    _____ _____  ____ __ ______    ______ _________
0                                  33170              ¿þþþþþþþþþþþþþþþþþþþþþþþþþþþþþþþþþþþþþþþþþþþþþþþþþþþþþþþþþþþþþþþþþþþþþÜ
                                   33171              Ÿ                                                                     Ÿ
                                   33172              Ÿ  WCOLREWR -- Local routine to make sure all the column lines        Ÿ
                                   33173              Ÿ    get rewritten.                                                   Ÿ
                                   33174              Ÿ                                                                     Ÿ
                                                      ¾þþþþþþþþþþþþþþþþþþþþþþþþþþþþþþþþþþþþþþþþþþþþþþþþþþþþþþþþþþþþþþþþþþþþþ»
000691C 50E0 D000/9008_      00000 33175              WCOLREWR PROC
 USING  *,R7
 006936 4120 0001            00001 33214                       LA    R2,1
 00693A 5830 BB60            00B60 33215                       L     R3,CPLINTP
 00693E 4920 BAD4/4730_      00AD4 33216                       WHILE (R2,LE,CPVHEI),BEGIN  Go through lines...
 USING  LINT,R3                    33235  1                      WITH  (LINT,R3)
                                   33248  1
 006946 D601 3002 3002_00002 00002 33249  1                      IF    ((LINTWIND,Z),OR,(LINTWIND,EQ,CPVWCUR)),BEGIN
 00695A 9503 300C/4770_0000C       33282  2                        IF    LINFCOL,'SET LINFREWR'  Rewrite column line
 006966                            33308  1                      END
                                   33312  1
 006966 4130 3014            00014 33313  1                      LA    R3,LINTNEXT
 00696A 4120 2001            00001 33314  1                      LA    R2,@R2+1
 00696E 47F0 7008            0693E 33315                       END
 DROP   LINT,R3
                                   33325
 006972 41F0 0004            00004 33326                       LA    R15,4
 006976 18D8/9808 D004_            33327                       PEND
 DROP   *,R7
1VIEW     (VIEW2025) (13:00) (15MAR04) VIEW Command                                                                         Page  111
0Current Usings:  (VWA,R6) (CP,R11) (CV,R12)
0Loc    Object Code    Addr1 Addr2  Stmt Lv Lineno    Source Statement           (Hibal 5, Asmedit 3.3)  HLASM R4.0  2004/03/15 13.00
+___    ______ ____    _____ _____  ____ __ ______    ______ _________
0                                  33348              ¿þþþþþþþþþþþþþþþþþþþþþþþþþþþþþþþþþþþþþþþþþþþþþþþþþþþþþþþþþþþþþþþþþþþþþÜ
                                   33349              Ÿ                                                                     Ÿ
                                   33350              Ÿ  WERROR -- Unrecognized WINDOW Subcommand.                          Ÿ
                                   33351              Ÿ                                                                     Ÿ
                                                      ¾þþþþþþþþþþþþþþþþþþþþþþþþþþþþþþþþþþþþþþþþþþþþþþþþþþþþþþþþþþþþþþþþþþþþþ»
0006984 50E0 D000/9008_      00000 33352              WERROR   PROC
 USING  *,R7
 00699E 9620 BACE      00ACE       33391                       SET   CPVFBELL
 0069A2 4110 7156/4100_      06AF4 33397                       SEG   'Unrecognized WINDOW command '
 0069B4 4110 703A/4100_      069D8 33414                       SEG   '(type HELP PAGE WINDOW for information).'
 0069C6 41F0 0004            00004 33431                       LA    R15,4
 0069CA 18D8/9808 D004_            33432                       PEND
 DROP   *,R7
                                   33452
                                   33453                       QLTORG
1VIEW     (VIEW2025) (13:00) (15MAR04) VIEW Command                                                                         Page  112
0Current Usings:  (VWA,R6) (CP,R11) (CV,R12)
0Loc    Object Code    Addr1 Addr2  Stmt Lv Lineno    Source Statement           (Hibal 5, Asmedit 3.3)  HLASM R4.0  2004/03/15 13.00
+___    ______ ____    _____ _____  ____ __ ______    ______ _________
0                                  33523              ¿þþþþþþþþþþþþþþþþþþþþþþþþþþþþþþþþþþþþþþþþþþþþþþþþþþþþþþþþþþþþþþþþþþþþþÜ
                                   33524              Ÿ                                                                     Ÿ
                                   33525              Ÿ  CMDNULL -- Unrecognized Command.                                   Ÿ
                                   33526              Ÿ                                                                     Ÿ
                                                      ¾þþþþþþþþþþþþþþþþþþþþþþþþþþþþþþþþþþþþþþþþþþþþþþþþþþþþþþþþþþþþþþþþþþþþþ»
0006C98 50E0 D000/9008_      00000 33527              CMDNULL  PROC
 USING  *,R7
 006CB2 47F0 C7F0            007F0 33566                       B    CVABSENT
 006CB6 41F0 0004            00004 33567                       LA    R15,4
 006CBA 18D8/9808 D004_            33568                       PEND
 DROP   *,R7
1VIEW     (VIEW2025) (13:00) (15MAR04) VIEW Command                                                                         Page  113
0Current Usings:  (VWA,R6) (CP,R11) (CV,R12)
0Loc    Object Code    Addr1 Addr2  Stmt Lv Lineno    Source Statement           (Hibal 5, Asmedit 3.3)  HLASM R4.0  2004/03/15 13.00
+___    ______ ____    _____ _____  ____ __ ______    ______ _________
0                                  33589              ¿þþþþþþþþþþþþþþþþþþþþþþþþþþþþþþþþþþþþþþþþþþþþþþþþþþþþþþþþþþþþþþþþþþþþþÜ
                                   33590              Ÿ                                                                     Ÿ
                                   33591              Ÿ  CMDERR -- Unrecognized Command.                                    Ÿ
                                   33592              Ÿ                                                                     Ÿ
                                                      ¾þþþþþþþþþþþþþþþþþþþþþþþþþþþþþþþþþþþþþþþþþþþþþþþþþþþþþþþþþþþþþþþþþþþþþ»
0006CC8 50E0 D000/9008_      00000 33593              CMDERR   PROC
 USING  *,R7
 006CE2 954B 1000/4770_00000       33632                       IF    (@R1,EQ,'.'),BEGIN  Unrecognized subcommand...
 006CEA 4110 71FA/4100_      06EDC 33648  1                      SEG   'Unknown VIEW function.'
 006CFC 9620 BACE      00ACE       33665  1                      SET   CPVFBELL
 006D00                            33671                       END
                                   33675
 006D00 7022/47F0 7026_06D00 06CE8 33676                       ELSE  'SET VWAFNLOC'      Not our command
 006D08 41F0 0004            00004 33698                       LA    R15,4
 006D0C 18D8/9808 D004_            33699                       PEND
 DROP   *,R7
                                   33719
 DROP   VWA,R6                     33720                       DROP  VWA
1VIEW     (VIEW2025) (13:00) (15MAR04) VIEW Command                                                                         Page  114
0Current Usings:  (CP,R11) (CV,R12)
0Loc    Object Code    Addr1 Addr2  Stmt Lv Lineno    Source Statement           (Hibal 5, Asmedit 3.3)  HLASM R4.0  2004/03/15 13.00
+___    ______ ____    _____ _____  ____ __ ______    ______ _________
0                                  33729              ¿þþþþþþþþþþþþþþþþþþþþþþþþþþþþþþþþþþþþþþþþþþþþþþþþþþþþþþþþþþþþþþþþþþþþþÜ
                                   33730              Ÿ                                                                     Ÿ
                                   33731              Ÿ  VIEWPF -- Routine to process "immediate" function codes.  This     Ÿ
                                   33732              Ÿ    routine is primarily needed for VTAM (3270ish) terminals which   Ÿ
                                   33733              Ÿ    have immediate function codes which return the function code     Ÿ
                                   33734              Ÿ    but not all the modified fields (such as ATTN, PA1, PA2, PA3).   Ÿ
                                   33735              Ÿ                                                                     Ÿ
                                   33736              Ÿ    On entry:                                                        Ÿ
                                   33737              Ÿ      R15 - function code                                            Ÿ
                                   33738              Ÿ                                                                     Ÿ
                                   33739              Ÿ    On exit, R15 (and cc):                                           Ÿ
                                   33740              Ÿ      0 - OK; we processed it                                        Ÿ
                                   33741              Ÿ      4 - not an immediate function code                             Ÿ
                                   33742              Ÿ                                                                     Ÿ
                                                      ¾þþþþþþþþþþþþþþþþþþþþþþþþþþþþþþþþþþþþþþþþþþþþþþþþþþþþþþþþþþþþþþþþþþþþþ»
0006D1A 50E0 D000/9008_      00000 33743              VIEWPF   XPROC
 USING  *,R7
 006D34 182F                       33783                       LR    R2,R15              Save function code
                                   33784
 006D36 41F0 0004            00004 33785                       LA    R15,4               Preset not immediate function rc
                                   33786                       ¿þþþþþþþþþþþþþþþþþþþþþþþþþþþþþþþþþþþþþþþþþþþþþþþþþþþþÜ
                                   33787                       Ÿ  Special VTAM immediate function code processing.  Ÿ
                                   33788                       ¾þþþþþþþþþþþþþþþþþþþþþþþþþþþþþþþþþþþþþþþþþþþþþþþþþþþþ»
 006D3A 9180 BACB/47E0_00ACB       33789                       IF    CPVFVTAM,BEGIN      VTAM only...
                                   33804  1         C            IF    ((R2,EQ,130),OR,
 006D42 5920 7188/4780_      06EBC        1                            ((R2,GE,171),AND,(R2,LE,173))),BEGIN
 006D5A 58E0 7194/0DEE       06EC8 33853  2                        ACALL VTAMATTN            ATTN or PA1/PA2/PA3
 006D60 1BFF                       33857  2                        CLEAR R15
 006D62                            33861  1                      END
 006D62 7032/7032/47F0_06D62 06D50 33865  1                      ELSEIF (R2,EQ,161),'ACALL VTAMCLR; CLEAR R15'  CLEAR
 006D76                            33906                       END
                                   33910
 006D76 18D8/9808 D004_            33911                       PEND
 DROP   *,R7
1VIEW     (VIEW2025) (13:00) (15MAR04) VIEW Command                                                                         Page  115
0Current Usings:  (CP,R11) (CV,R12)
0Loc    Object Code    Addr1 Addr2  Stmt Lv Lineno    Source Statement           (Hibal 5, Asmedit 3.3)  HLASM R4.0  2004/03/15 13.00
+___    ______ ____    _____ _____  ____ __ ______    ______ _________
0                                  33932              ¿þþþþþþþþþþþþþþþþþþþþþþþþþþþþþþþþþþþþþþþþþþþþþþþþþþþþþþþþþþþþþþþþþþþþþÜ
                                   33933              Ÿ                                                                     Ÿ
                                   33934              Ÿ  VTAMATTN -- VTAM's ATTN Immediate Subcommand.                      Ÿ
                                   33935              Ÿ                                                                     Ÿ
                                                      ¾þþþþþþþþþþþþþþþþþþþþþþþþþþþþþþþþþþþþþþþþþþþþþþþþþþþþþþþþþþþþþþþþþþþþþ»
0006D84 50E0 D000/9008_      00000 33936              VTAMATTN PROC
 USING  *,R7
 006D9E 9620 BACE      00ACE       33975                       SET   CPVFBELL            Complain
 006DA2 D24F BAFC C4D8 00AFC 004D8 33981                       MVC   CPVMSG,CVBLANKS     Error message
 006DA8 D241 BAFC 7046 00AFC 06DE4 33982                       MVC   CPVMSG(L'VATTNMSG),VATTNMSG
 006DAE D707 BAE0 BAE0_00AE0 00AE0 33983                       FREECURS ,                Move to the command line
 006DD2 41F0 0004            00004 34010                       LA    R15,4
 006DD6 18D8/9808 D004_            34011                       PEND
 DROP   *,R7
                                   34031
 006DE4 D79985A2A240D7C6           34032              VATTNST  DC    C'Press PF9 (or type .BREAK on the command line) '
 006E13 A39640938581A585           34033                       DC    C'to leave page mode.'
                                   34034              VATTNMSG EQU   VATTNST,*-VATTNST,C'X'
1VIEW     (VIEW2025) (13:00) (15MAR04) VIEW Command                                                                         Page  116
0Current Usings:  (CP,R11) (CV,R12)
0Loc    Object Code    Addr1 Addr2  Stmt Lv Lineno    Source Statement           (Hibal 5, Asmedit 3.3)  HLASM R4.0  2004/03/15 13.00
+___    ______ ____    _____ _____  ____ __ ______    ______ _________
0                                  34036              ¿þþþþþþþþþþþþþþþþþþþþþþþþþþþþþþþþþþþþþþþþþþþþþþþþþþþþþþþþþþþþþþþþþþþþþÜ
                                   34037              Ÿ                                                                     Ÿ
                                   34038              Ÿ  VTAMCLR -- VTAM's CLEAR Immediate Subcommand.                      Ÿ
                                   34039              Ÿ                                                                     Ÿ
                                                      ¾þþþþþþþþþþþþþþþþþþþþþþþþþþþþþþþþþþþþþþþþþþþþþþþþþþþþþþþþþþþþþþþþþþþþþ»
0006E26 50E0 D000/9008_      00000 34040              VTAMCLR  PROC
 USING  *,R7
 006E40 D24F BAFC C4D8 00AFC 004D8 34079                       MVC   CPVMSG,CVBLANKS
 006E46 D22B BAFC 7046 00AFC 06E86 34080                       MVC   CPVMSG(L'VCLRMSG),VCLRMSG
 006E4C 9680 BAC9      00AC9       34081                       SET   CPVFCLR             Clear and rewrite page
 006E50 D707 BAE0 BAE0_00AE0 00AE0 34087                       FREECURS ,                Move to the command line
 006E74 41F0 0004            00004 34114                       LA    R15,4
 006E78 18D8/9808 D004_            34115                       PEND
 DROP   *,R7
                                   34135
 006E86 E896A499409381A2           34136              VCLRMSG  DC    C'Your last changes (if any) have been undone!'
                                   34137
                                   34138                       QLTORG
1VIEW     (VIEW2025) (13:00) (15MAR04) VIEW Command                                                                         Page  117
0Current Usings:  (CP,R11) (CV,R12)
0Loc    Object Code    Addr1 Addr2  Stmt Lv Lineno    Source Statement           (Hibal 5, Asmedit 3.3)  HLASM R4.0  2004/03/15 13.00
+___    ______ ____    _____ _____  ____ __ ______    ______ _________
0                                  34161              ¿þþþþþþþþþþþþþþþþþþþþþþþþþþþþþþþþþþþþþþþþþþþþþþþþþþþþþþþþþþþþþþþþþþþþþÜ
                                   34162              Ÿ                                                                     Ÿ
                                   34163              Ÿ  VIEWXCMD -- Routine to execute the specified view operation.       Ÿ
                                   34164              Ÿ    This is called from the SYSCALL VIEW_CMD procedure.              Ÿ
                                   34165              Ÿ                                                                     Ÿ
                                   34166              Ÿ    On entry:                                                        Ÿ
                                   34167              Ÿ      R1,R0 - return string area (loc,len)                           Ÿ
                                   34168              Ÿ      R3,R2 - options string loc, len                                Ÿ
                                   34169              Ÿ                                                                     Ÿ
                                   34170              Ÿ    On exit:                                                         Ÿ
                                   34171              Ÿ      R1,R0 - return message loc, len                                Ÿ
                                   34172              Ÿ                                                                     Ÿ
                                                      ¾þþþþþþþþþþþþþþþþþþþþþþþþþþþþþþþþþþþþþþþþþþþþþþþþþþþþþþþþþþþþþþþþþþþþþ»
0000000                00000 00044 34173              VXWA     RECORD BEGIN
 000000                            34181  1           VXWNO      DS    F                   Window number to split
 000004                            34182  1           VXFROW     DS    F                   First row of new window
                                   34183  1
                                   34184  1           VXSEG      SEGCB
 000008 00                         34185  1 01-SEGCB +$$$SEGCB778   DS 0F
 VXSEGCOD.VXSEGSEG 01 EQ
 VXSEGCOD.VXSEGWR  02 EQ
 VXSEGCOD.VXSEGCLR 03 EQ
 VXSEGCOD.VXSEGSPP 04 EQ
 VXSEGCOD.VXSEGOVF 05 EQ
 VXSEGCOD.VXSEGCR  06 EQ
 VXSEGCOD.VXSEGMAR 07 EQ
 000009 00                         34260  1 01-SEGCB +           DC    X'00'               Reserved
 00000A 0000                              1          +
 00000C 00000000                   34261  1 01-SEGCB +VXSEGMAXF   DC   A(0)                Maximum buffer length
 000010 00000000                   34262  1 01-SEGCB +VXSEGMRKF   DC   A(0)                Length at last mark
 000014 00000000                   34263  1 01-SEGCB +VXSEGLENF   DC   A(0)                Current length
 000018 00000000                   34264  1 01-SEGCB +VXSEGINDF   DC   A(0)                Overflow/indent count
 00001C 00000000                   34265  1 01-SEGCB +VXSEGERR   DC    A(0)                Address of error recovery routine
 000020 0000000000000000           34266  1 01-SEGCB +           DC    2F'0'               Reserved
 000028 00000000                   34267  1 01-SEGCB +VXSEGLOC   DC    A(0)                Location of buffer
 00002C 00000000                   34268  1 01-SEGCB +VXSEGRTN   DC    A(0)                Processing routine
 000030 0000000000000000           34269  1 01-SEGCB +           DC    4F'0'               Reserved
 000040 00000000                   34270  1 01-SEGCB +VXSEGUSR   DC    A(0)                USER field
                                   34271  1 01-SEGCB +VXSEG      EQU   $$$SEGCB778,*-$$$SEGCB778,C'X'
 000044                00044 00044 34272                       END
                                   34281              þþþþ
 006EF2 50E0 D000/9008_      00000 34282              VIEWXCMD XPROC VXWA
 USING  *,R7
 USING  VXWA-(4+36),R8
 006F0C 4160 8028            00000 34333                       LA    R6,VXWA
 USING  VXWA,R6                    34334                       WITH  (VXWA,R6)
 006F10 D743 6000 6000 00000 00000 34347                       CLEAR VXWA
 006F16 41F0 6008/58E0_      00008 34354                       SEGINIT (R1),(R0),VXSEG
 006F20 58E0 B08C/D2AF_      0008C 34377                       SCPUSH
                                   34383
 006F2E 1813/1802/58E0_            34384                       SCINIT (R3),(R2)
 006F40 5810 B08C/1B00_      0008C 34406                       SCAN  XCMDPRT             VIEW_CMD verbs
 006F92 47B0 709C/4110_      06FA8 34438                       IF    NEG,'SEG "SCAN ERROR"'
1VIEW     (VIEW2025) (13:00) (15MAR04) VIEW Command                                                                         Page  118
0Current Usings:  (VXWA,R6) (*,R7) (VXWA-(4+36),R8) (CP,R11) (CV,R12)
0Loc    Object Code    Addr1 Addr2  Stmt Lv Lineno    Source Statement           (Hibal 5, Asmedit 3.3)  HLASM R4.0  2004/03/15 13.00
+___    ______ ____    _____ _____  ____ __ ______    ______ _________
0006FA8 5810 6028/5800_      00028 34471                       SETMSG L:VXSEGLOC,L:VXSEGLENF  Return string
 006FB0 1200/4770 70B2_            34483                       IF    (R0,Z),'SETMSG "OK"'
 006FBE 9001 8004            00004 34506                       PRETURN (R0,R1)
                                   34508
 006FC2 58E0 B08C/4BD0_      0008C 34509                       SCPOP ,                   Restore scanner
                                   34515
 006FD0 1BFF                       34516                       CLEAR R15                 (Tidy)
 006FD2 18D8/9808 D004_            34520                       PEND
 DROP   VXWA,R6
 DROP   VXWA-(4+36),R8
 DROP   *,R7
                                   34550                       ¿þþþþþþþþþþþþþþþþþþþþþþÜ
                                   34551                       Ÿ  VIEW_CMD Commands.  Ÿ
                                   34552                       ¾þþþþþþþþþþþþþþþþþþþþþþ»
 006FE0 D5C5E6E6C9D5C4D6_          34553              XCMDPRT  SCKW  NEWWINDOW,XCMDNEW
 007008 D9C5E2C5E3404040_          34568                       SCKW  RESET,XCMDRES
 007030 C7C5E3C2D3D6C3D2_          34583                       SCKW  GETBLOCK,XCMDGETB
 007058 E4D5D4C1D9D24040_          34598                       SCKW  UNMARK,XCMDUNMK
 007080 D9C5D4C1D9D24040_          34613                       SCKW  REMARK,XCMDREMK
 0070A8 4040404040404040_          34628                       SCKW  ,XCMDERR
                                   34643                       ¿þþþþþþþþþþþþþþþþþþþþþþþþþÜ
                                   34644                       Ÿ  Unrecognized command.  Ÿ
                                   34645                       ¾þþþþþþþþþþþþþþþþþþþþþþþþþ»
 0070D0 50E0 D000/9008_      00000 34646              XCMDERR  PROC
 USING  *,R7
 USING  VXWA,R6                    34685                       WITH  (VXWA,R6)
 0070EA 4110 7426/4100_      07510 34698                       SEG   'UNRECOGNIZED COMMAND'
 0070FC 41F0 0004            00004 34715                       LA    R15,4
 007100 18D8/9808 D004_            34716                       PEND
 DROP   VXWA,R6
 DROP   *,R7
1VIEW     (VIEW2025) (13:00) (15MAR04) VIEW Command                                                                         Page  119
0Current Usings:  (CP,R11) (CV,R12)
0Loc    Object Code    Addr1 Addr2  Stmt Lv Lineno    Source Statement           (Hibal 5, Asmedit 3.3)  HLASM R4.0  2004/03/15 13.00
+___    ______ ____    _____ _____  ____ __ ______    ______ _________
0                                  34742              ¿þþþþþþþþþþþþþþþþþþþþþþþþþþþþþþþþþþþþþþþþþþþþþþþþþþþþþþþþþþþþþþþþþþþþþÜ
                                   34743              Ÿ                                                                     Ÿ
                                   34744              Ÿ  XCMDNEW -- NEWWINDOW Command.                                      Ÿ
                                   34745              Ÿ                                                                     Ÿ
                                                      ¾þþþþþþþþþþþþþþþþþþþþþþþþþþþþþþþþþþþþþþþþþþþþþþþþþþþþþþþþþþþþþþþþþþþþþ»
000710E 50E0 D000/9008_      00000 34746              XCMDNEW  PROC
 USING  *,R7
 USING  VXWA,R6                    34785                       WITH  (VXWA,R6)
 007128 58E0 B08C/D2AF_      0008C 34798                       SCPUSH ,                  Save scanner info
                                   34804
 007136 5810 B08C/1B00_      0008C 34805                       SCAN  XNEWPRT             NEWWINDOW options
 007188 47B0 7076/4110_      0719E 34837                       IF    NEG,'SEG "SCAN ERROR"'
                                   34870
 00719E 5800 6000            00000 34871                       L     R0,VXWNO            Window number (0=current)
 0071A2 5810 6004            00004 34872                       L     R1,VXFROW           First row of window (0=default)
 0071A6 58E0 7400/0DEE       07528 34873                       VCALL PAGENEWW            Make a new window
 0071AC 4780 7092/41F0_      071BA 34877                       IF    NZ,'SEG (R1),(R0)'  Error message
 0071BA 7096/47F0 70B8 071BA 071AE 34916                       ELSE  BEGIN               Normal return code...
 0071BE 1820                       34927  1                      LR    R2,R0
 0071C0 4110 7420/4100_      07548 34928  1                      SEG   'OK WINDOW='
 0071D2 1812/1B00/41F0_            34945  1                      SEGDC (R2)
 0071E0                            34966                       END
                                   34970
 0071E0 58E0 B08C/4BD0_      0008C 34971                       SCPOP ,                   Restore scanner info
                                   34977
 0071EE 41F0 0004            00004 34978                       LA    R15,4               Stop main scan
 0071F2 18D8/9808 D004_            34979                       PEND
 DROP   VXWA,R6
 DROP   *,R7
                                   35004                       ¿þþþþþþþþþþþþþþþþþþþþþþÜ
                                   35005                       Ÿ  NEWWINDOW options.  Ÿ
                                   35006                       ¾þþþþþþþþþþþþþþþþþþþþþþ»
 007200 E6C9D5C4D6E64040_          35007              XNEWPRT  SCKW  WINDOW,XNEWWIND,(A,P,I)
 007228 C6D9D6E640404040_          35022                       SCKW  FROW,XNEWROW,(A,P,I)
 007250 4040404040404040_          35037                       SCKW  ,XNEWERR
                                   35052              þþþþ
 007278 50E0 D000/9008_      00000 35053              XNEWWIND PROC
 USING  *,R7
 USING  VXWA,R6                    35092                       WITH  (VXWA,R6)
 007292 5000 6000            00000 35105                       ST    R0,VXWNO            Save window number
 007296 18D8/9808 D004_            35106                       PEND
 DROP   VXWA,R6
 DROP   *,R7
                                   35131
 0072A4 50E0 D000/9008_      00000 35132              XNEWROW  PROC
 USING  *,R7
 USING  VXWA,R6                    35171                       WITH  (VXWA,R6)
 0072BE 5000 6004            00004 35184                       ST    R0,VXFROW           Save first row of window
 0072C2 18D8/9808 D004_            35185                       PEND
 DROP   VXWA,R6
 DROP   *,R7
                                   35210
 0072D0 50E0 D000/9008_      00000 35211              XNEWERR  PROC
1VIEW     (VIEW2025) (13:00) (15MAR04) VIEW Command                                                                         Page  120
0Current Usings:  (*,R7) (CP,R11) (CV,R12)
0Loc    Object Code    Addr1 Addr2  Stmt Lv Lineno    Source Statement           (Hibal 5, Asmedit 3.3)  HLASM R4.0  2004/03/15 13.00
+___    ______ ____    _____ _____  ____ __ ______    ______ _________
0USING  *,R7
 USING  VXWA,R6                    35250                       WITH  (VXWA,R6)
 0072EA 4110 7276/4100_      07560 35263                       SEG   'UNRECOGNIZED OPTION'
 0072FC 41F0 0004            00004 35280                       LA    R15,4
 007300 18D8/9808 D004_            35281                       PEND
 DROP   VXWA,R6
 DROP   *,R7
1VIEW     (VIEW2025) (13:00) (15MAR04) VIEW Command                                                                         Page  121
0Current Usings:  (CP,R11) (CV,R12)
0Loc    Object Code    Addr1 Addr2  Stmt Lv Lineno    Source Statement           (Hibal 5, Asmedit 3.3)  HLASM R4.0  2004/03/15 13.00
+___    ______ ____    _____ _____  ____ __ ______    ______ _________
0                                  35307              ¿þþþþþþþþþþþþþþþþþþþþþþþþþþþþþþþþþþþþþþþþþþþþþþþþþþþþþþþþþþþþþþþþþþþþþÜ
                                   35308              Ÿ                                                                     Ÿ
                                   35309              Ÿ  XCMDRES -- RESET Command.                                          Ÿ
                                   35310              Ÿ                                                                     Ÿ
                                                      ¾þþþþþþþþþþþþþþþþþþþþþþþþþþþþþþþþþþþþþþþþþþþþþþþþþþþþþþþþþþþþþþþþþþþþþ»
000730E 50E0 D000/9008_      00000 35311              XCMDRES  PROC
 USING  *,R7
 007328 58E0 7208/0DEE       07530 35350                       VCALL PAGEINIT            Reset page
 00732E 41F0 0004            00004 35354                       LA    R15,4
 007332 18D8/9808 D004_            35355                       PEND
 DROP   *,R7
1VIEW     (VIEW2025) (13:00) (15MAR04) VIEW Command                                                                         Page  122
0Current Usings:  (CP,R11) (CV,R12)
0Loc    Object Code    Addr1 Addr2  Stmt Lv Lineno    Source Statement           (Hibal 5, Asmedit 3.3)  HLASM R4.0  2004/03/15 13.00
+___    ______ ____    _____ _____  ____ __ ______    ______ _________
0                                  35376              ¿þþþþþþþþþþþþþþþþþþþþþþþþþþþþþþþþþþþþþþþþþþþþþþþþþþþþþþþþþþþþþþþþþþþþþÜ
                                   35377              Ÿ                                                                     Ÿ
                                   35378              Ÿ  XCMDGETB -- GETBLOCK Command.                                      Ÿ
                                   35379              Ÿ                                                                     Ÿ
                                                      ¾þþþþþþþþþþþþþþþþþþþþþþþþþþþþþþþþþþþþþþþþþþþþþþþþþþþþþþþþþþþþþþþþþþþþþ»
0007340 50E0 D000/9008_      00000 35380              XCMDGETB PROC
 USING  *,R7
 USING  VXWA,R6                    35419                       WITH  (VXWA,R6)
                                   35432                       ¿þþþþþþþþþþþþþþþþþþþþþþþþþþþþþþþþþþþþÜ
                                   35433                       Ÿ  Return marked block information.  Ÿ
                                   35434                       ¾þþþþþþþþþþþþþþþþþþþþþþþþþþþþþþþþþþþþ»
 00735A 9108 BAC8/4710_00AC8       35435                       IF    (~CPVFHIDE,AND,(CPBLKACT,NZ)),BEGIN
 00736C 4110 7219/4100_      07573 35465  1                      SEG   'ACTIVE='
 00737E 5810 B748/1B00_      00748 35482  1                      SEGDC L:CPBLKACT
                                   35503  1
 00738E 4110 718E/4100_      074E8 35504  1                      SEG   ' FBLOCK='
 0073A0 5800 B74C            0074C 35521  1                      L     R0,CPFBKLNO
 0073A4 58E0 71DA/0DEE       07534 35522  1                      VCALL CVEXNO
 0073AA 41F0 6008/58E0_      00008 35526  1                      SEG   (R1),(R0)
 0073B4 D501 71F8 B754_07552 00754 35549  1                      IF    (CPFBKCOL,GT,1),'SEG " FCOL="; SEGDC LH:CPFBKCOL'
                                   35609  1
 0073E0 4110 7196/4100_      074F0 35610  1                      SEG   ' LBLOCK='
 0073F2 5800 B750            00750 35627  1                      L     R0,CPLBKLNO
 0073F6 58E0 71DA/0DEE       07534 35628  1                      VCALL CVEXNO
 0073FC 41F0 6008/58E0_      00008 35632  1                      SEG   (R1),(R0)
 007406 D601 B756 B756_00756 00756 35655  1                      IF    (CPLBKCOL,NZ),'SEG " LCOL="; SEGDC LH:CPLBKCOL'
 007432                            35713                       END
                                   35717                       ¿þþþþþþþþþþþþþþþþþþþþþþþþÜ
                                   35718                       Ÿ  No block is defined.  Ÿ
                                   35719                       ¾þþþþþþþþþþþþþþþþþþþþþþþþ»
 007432 70DC/70DC/47F0_07432 07360 35720                       ELSE  BEGIN
 007436 4110 719E/4100_      074F8 35733  1                      SEG   'NO BLOCK'
 007448                            35750                       END
                                   35754
 007448 41F0 0004            00004 35755                       LA    R15,4
 00744C 18D8/9808 D004_            35756                       PEND
 DROP   VXWA,R6
 DROP   *,R7
1VIEW     (VIEW2025) (13:00) (15MAR04) VIEW Command                                                                         Page  123
0Current Usings:  (CP,R11) (CV,R12)
0Loc    Object Code    Addr1 Addr2  Stmt Lv Lineno    Source Statement           (Hibal 5, Asmedit 3.3)  HLASM R4.0  2004/03/15 13.00
+___    ______ ____    _____ _____  ____ __ ______    ______ _________
0                                  35782              ¿þþþþþþþþþþþþþþþþþþþþþþþþþþþþþþþþþþþþþþþþþþþþþþþþþþþþþþþþþþþþþþþþþþþþþÜ
                                   35783              Ÿ                                                                     Ÿ
                                   35784              Ÿ  XCMDUNMK -- UNMARK Command.                                        Ÿ
                                   35785              Ÿ                                                                     Ÿ
                                                      ¾þþþþþþþþþþþþþþþþþþþþþþþþþþþþþþþþþþþþþþþþþþþþþþþþþþþþþþþþþþþþþþþþþþþþþ»
000745A 50E0 D000/9008_      00000 35786              XCMDUNMK PROC
 USING  *,R7
 007474 9108 BAC8/4710_00AC8       35825                       IF    (~CPVFHIDE,AND,(CPBLKACT,NZ)),BEGIN
 007486 9608 BAC8/9608_00AC8       35855  1                      SET   CPVFHIDE,CPVFMARK   Hide the block
 00748E                            35865                       END
 00748E 41F0 0004            00004 35869                       LA    R15,4
 007492 18D8/9808 D004_            35870                       PEND
 DROP   *,R7
                                   35890              ¿þþþþþþþþþþþþþþþþþþþþþþþþþþþþþþþþþþþþþþþþþþþþþþþþþþþþþþþþþþþþþþþþþþþþþÜ
                                   35891              Ÿ                                                                     Ÿ
                                   35892              Ÿ  XCMDREMK -- REMARK Command.                                        Ÿ
                                   35893              Ÿ                                                                     Ÿ
                                                      ¾þþþþþþþþþþþþþþþþþþþþþþþþþþþþþþþþþþþþþþþþþþþþþþþþþþþþþþþþþþþþþþþþþþþþþ»
00074A0 50E0 D000/9008_      00000 35894              XCMDREMK PROC
 USING  *,R7
 0074BA D603 B748 B748_00748 00748 35933                       IF    ((CPBLKACT,NZ),AND,CPVFHIDE),BEGIN
 0074CC 94F7 BAC8      00AC8       35963  1                      CLEAR CPVFHIDE
 0074D0 9608 BAC9      00AC9       35970  1                      SET   CPVFMARK            Block needs to be shown
 0074D4                            35976                       END
 0074D4 41F0 0004            00004 35980                       LA    R15,4
 0074D8 18D8/9808 D004_            35981                       PEND
 DROP   *,R7
                                   36001
                                   36002                       SEGDEF DUMMY              (Neatness)
                                   36003
                                   36004                       QLTORG
                                   36039                       VLTORG
 007590                07590 07590 36048                       END   .

1VIEW     (VIEW2025) (13:00) (15MAR04) Relocation Dictionary                                                                Page  124
-   Pos.Id   Rel.Id   Flags    Address                                                       HLASM R4.0  2004/03/15 13.00
0  00000001 00000001    0C    000002DC
   00000001 00000001    0C    00000304
   00000001 00000001    0C    00000CC8
   00000001 00000001    0C    00000CD4
   00000001 00000001    0C    00000CF4
   00000001 00000001    08    00001015
   00000001 00000001    08    00001055
   00000001 00000001    08    0000108B
   00000001 00000001    08    000010B3
   00000001 00000001    0C    000012D4
   00000001 00000001    0C    0000152C
   00000001 00000001    0C    0000157C
   00000001 00000001    0C    000015CC
   00000001 00000001    0C    00001658
   00000001 00000001    0C    00001680
   00000001 00000001    0C    000016A8
   00000001 00000001    0C    000016D0
   00000001 00000001    0C    000016F8
   00000001 00000001    0C    00001720
   00000001 00000001    0C    00001748
   00000001 00000001    0C    00001770
   00000001 00000001    0C    00001798
   00000001 00000001    0C    000017C0
   00000001 00000001    0C    000017E8
   00000001 00000001    0C    00001810
   00000001 00000001    0C    00001838
   00000001 00000001    0C    00001860
   00000001 00000001    0C    00001888
   00000001 00000001    0C    000018B0
   00000001 00000001    0C    000018D8
   00000001 00000001    0C    00001900
   00000001 00000001    0C    00001928
   00000001 00000001    0C    00001950
   00000001 00000001    0C    00001978
   00000001 00000001    0C    000019A0
   00000001 00000001    0C    000019C8
   00000001 00000001    0C    000019F0
   00000001 00000001    0C    00001A18
   00000001 00000001    0C    00001C44
   00000001 00000001    0C    00001C6C
   00000001 00000001    0C    00001C94
   00000001 00000001    0C    000021CC
   00000001 00000001    0C    000021EC
   00000001 00000001    0C    000021F8
   00000001 00000001    0C    00002200
   00000001 00000001    0C    00002218
   00000001 00000001    0C    00002220
   00000001 00000001    0C    00002434
   00000001 00000001    0C    00002484
   00000001 00000001    0C    000024AC
   00000001 00000001    0C    000024D4
   00000001 00000001    0C    000024FC
   00000001 00000001    0C    00002524
   00000001 00000001    0C    0000254C
   00000001 00000001    0C    00002574
1VIEW     (VIEW2025) (13:00) (15MAR04) Relocation Dictionary                                                                Page  125
   00000001 00000001    0C    0000259C
   00000001 00000001    0C    000025C4
   00000001 00000001    0C    000025EC
   00000001 00000001    0C    00002614
   00000001 00000001    0C    0000263C
   00000001 00000001    0C    00002664
   00000001 00000001    0C    0000268C
   00000001 00000001    0C    000026B4
   00000001 00000001    0C    000026DC
   00000001 00000001    0C    00002704
   00000001 00000001    0C    0000272C
   00000001 00000001    0C    00002754
   00000001 00000001    0C    0000277C
   00000001 00000001    0C    000027A4
   00000001 00000001    0C    000027CC
   00000001 00000001    0C    000027F4
   00000001 00000001    0C    0000281C
   00000001 00000001    0C    00002844
   00000001 00000001    0C    0000286C
   00000001 00000001    0C    00002894
   00000001 00000001    0C    000028BC
   00000001 00000001    0C    000028E4
   00000001 00000001    0C    0000290C
   00000001 00000001    0C    00002934
   00000001 00000001    0C    0000295C
   00000001 00000001    0C    00002984
   00000001 00000001    0C    000029AC
   00000001 00000001    0C    000029D4
   00000001 00000001    0C    00002A24
   00000001 00000001    0C    00002A4C
   00000001 00000001    0C    00002A74
   00000001 00000001    0C    00002A9C
   00000001 00000001    0C    00002AC4
   00000001 00000001    0C    00002AEC
   00000001 00000001    0C    00002B14
   00000001 00000001    0C    00002B3C
   00000001 00000001    0C    00002B64
   00000001 00000001    0C    00002B8C
   00000001 00000001    0C    00002BB4
   00000001 00000001    0C    00002BDC
   00000001 00000001    0C    00002C04
   00000001 00000001    0C    00002C2C
   00000001 00000001    0C    00002C54
   00000001 00000001    0C    00002C7C
   00000001 00000001    0C    00002CA4
   00000001 00000001    0C    00002CCC
   00000001 00000001    0C    00002CF4
   00000001 00000001    0C    00002D1C
   00000001 00000001    0C    00002D44
   00000001 00000001    0C    00002D6C
   00000001 00000001    0C    00002D94
   00000001 00000001    0C    00002DBC
   00000001 00000001    0C    00002DE4
   00000001 00000001    0C    00002E0C
   00000001 00000001    0C    00002E34
   00000001 00000001    0C    00002E5C
   00000001 00000001    0C    00002E84
   00000001 00000001    0C    00002EAC
   00000001 00000001    0C    00002ED4
1VIEW     (VIEW2025) (13:00) (15MAR04) Relocation Dictionary                                                                Page  126
   00000001 00000001    0C    00002EFC
   00000001 00000001    0C    00002F24
   00000001 00000001    0C    00002F4C
   00000001 00000001    0C    00002F74
   00000001 00000001    0C    00002F9C
   00000001 00000001    0C    00002FC4
   00000001 00000001    0C    00002FEC
   00000001 00000001    0C    00003014
   00000001 00000001    0C    0000303C
   00000001 00000001    0C    00003064
   00000001 00000001    0C    0000308C
   00000001 00000001    0C    000030B4
   00000001 00000001    0C    000030DC
   00000001 00000001    0C    00003104
   00000001 00000001    0C    0000312C
   00000001 00000001    0C    00003154
   00000001 00000001    0C    0000317C
   00000001 00000001    0C    000031A4
   00000001 00000001    0C    000031CC
   00000001 00000001    0C    000031F4
   00000001 00000001    0C    0000321C
   00000001 00000001    0C    00003244
   00000001 00000001    0C    0000326C
   00000001 00000001    0C    00003294
   00000001 00000001    0C    000032BC
   00000001 00000001    0C    000032E4
   00000001 00000001    0C    0000330C
   00000001 00000001    0C    00003334
   00000001 00000001    0C    0000335C
   00000001 00000001    0C    00003384
   00000001 00000001    0C    000033AC
   00000001 00000001    0C    000033D4
   00000001 00000001    0C    000033FC
   00000001 00000001    0C    00003424
   00000001 00000001    0C    0000344C
   00000001 00000001    0C    00003474
   00000001 00000001    0C    0000349C
   00000001 00000001    0C    000034C4
   00000001 00000001    0C    000034EC
   00000001 00000001    0C    00003514
   00000001 00000001    0C    0000353C
   00000001 00000001    0C    00003564
   00000001 00000001    0C    0000358C
   00000001 00000001    0C    000035B4
   00000001 00000001    0C    000035DC
   00000001 00000001    0C    00003604
   00000001 00000001    0C    0000362C
   00000001 00000001    0C    00003654
   00000001 00000001    0C    0000367C
   00000001 00000001    0C    000036A4
   00000001 00000001    0C    000036CC
   00000001 00000001    0C    000036F4
   00000001 00000001    0C    0000371C
   00000001 00000001    0C    00003744
   00000001 00000001    0C    0000376C
   00000001 00000001    0C    00003794
   00000001 00000001    0C    000037BC
   00000001 00000001    0C    000037E4
   00000001 00000001    0C    0000380C
1VIEW     (VIEW2025) (13:00) (15MAR04) Relocation Dictionary                                                                Page  127
   00000001 00000001    0C    00003834
   00000001 00000001    0C    0000385C
   00000001 00000001    0C    00003884
   00000001 00000001    0C    000038AC
   00000001 00000001    0C    000038D4
   00000001 00000001    0C    000038FC
   00000001 00000001    0C    00003924
   00000001 00000001    0C    0000394C
   00000001 00000001    0C    00003974
   00000001 00000001    0C    0000399C
   00000001 00000001    0C    000039C4
   00000001 00000001    0C    000039EC
   00000001 00000001    0C    00003A14
   00000001 00000001    0C    00003A3C
   00000001 00000001    0C    00003A64
   00000001 00000001    0C    00003A8C
   00000001 00000001    0C    00003AB4
   00000001 00000001    0C    00003ADC
   00000001 00000001    0C    00003B04
   00000001 00000001    0C    00003B2C
   00000001 00000001    0C    00003B54
   00000001 00000001    0C    00003B7C
   00000001 00000001    0C    00003BA4
   00000001 00000001    0C    00003BCC
   00000001 00000001    0C    00003BF4
   00000001 00000001    0C    00003D5C
   00000001 00000001    0C    00003D84
   00000001 00000001    0C    00003DAC
   00000001 00000001    0C    00003DD4
   00000001 00000001    0C    00003DFC
   00000001 00000001    0C    00005114
   00000001 00000001    0C    00005124
   00000001 00000001    0C    0000513C
   00000001 00000001    0C    00005164
   00000001 00000001    0C    0000516C
   00000001 00000001    0C    00005170
   00000001 00000001    0C    00005190
   00000001 00000001    0C    00006A98
   00000001 00000001    0C    00006A9C
   00000001 00000001    0C    00006AD4
   00000001 00000001    0C    00006EC8
   00000001 00000001    0C    00006ED0
   00000001 00000001    0C    00007004
   00000001 00000001    0C    0000702C
   00000001 00000001    0C    00007054
   00000001 00000001    0C    0000707C
   00000001 00000001    0C    000070A4
   00000001 00000001    0C    000070CC
   00000001 00000001    0C    00007224
   00000001 00000001    0C    0000724C
   00000001 00000001    0C    00007274
   00000001 00000001    0C    00007504
   00000001 00000001    0C    00007524
   00000001 00000002    1C    000002D8
   00000001 00000002    1C    00000300
   00000001 00000002    1C    000016A4
   00000001 00000002    1C    000016CC
   00000001 00000002    1C    0000171C
   00000001 00000002    1C    00001744
1VIEW     (VIEW2025) (13:00) (15MAR04) Relocation Dictionary                                                                Page  128
   00000001 00000002    1C    0000176C
   00000001 00000002    1C    00001794
   00000001 00000002    1C    000017BC
   00000001 00000002    1C    000017E4
   00000001 00000002    1C    0000180C
   00000001 00000002    1C    00001834
   00000001 00000002    1C    0000185C
   00000001 00000002    1C    00001884
   00000001 00000002    1C    000018AC
   00000001 00000002    1C    000018D4
   00000001 00000002    1C    000018FC
   00000001 00000002    1C    00001924
   00000001 00000002    1C    0000194C
   00000001 00000002    1C    00001974
   00000001 00000002    1C    0000199C
   00000001 00000002    1C    000019C4
   00000001 00000002    1C    000019EC
   00000001 00000002    1C    00001A14
   00000001 00000002    1C    00001C68
   00000001 00000002    1C    000024A8
   00000001 00000002    1C    000024D0
   00000001 00000002    1C    000024F8
   00000001 00000002    1C    00002520
   00000001 00000002    1C    00002548
   00000001 00000002    1C    00002570
   00000001 00000002    1C    00002598
   00000001 00000002    1C    000025C0
   00000001 00000002    1C    000025E8
   00000001 00000002    1C    00002610
   00000001 00000002    1C    00002638
   00000001 00000002    1C    00002660
   00000001 00000002    1C    00002688
   00000001 00000002    1C    000026B0
   00000001 00000002    1C    000026D8
   00000001 00000002    1C    00002700
   00000001 00000002    1C    00002728
   00000001 00000002    1C    00002750
   00000001 00000002    1C    00002778
   00000001 00000002    1C    000027A0
   00000001 00000002    1C    000027C8
   00000001 00000002    1C    000027F0
   00000001 00000002    1C    00002818
   00000001 00000002    1C    00002840
   00000001 00000002    1C    00002868
   00000001 00000002    1C    00002890
   00000001 00000002    1C    000028B8
   00000001 00000002    1C    000028E0
   00000001 00000002    1C    00002908
   00000001 00000002    1C    00002930
   00000001 00000002    1C    00002958
   00000001 00000002    1C    00002980
   00000001 00000002    1C    000029A8
   00000001 00000002    1C    000029D0
   00000001 00000002    1C    000029F8
   00000001 00000002    1C    00002A20
   00000001 00000002    1C    00002A48
   00000001 00000002    1C    00002A70
   00000001 00000002    1C    00002A98
   00000001 00000002    1C    00002AC0
1VIEW     (VIEW2025) (13:00) (15MAR04) Relocation Dictionary                                                                Page  129
   00000001 00000002    1C    00002AE8
   00000001 00000002    1C    00002B10
   00000001 00000002    1C    00002B38
   00000001 00000002    1C    00002B60
   00000001 00000002    1C    00002B88
   00000001 00000002    1C    00002BB0
   00000001 00000002    1C    00002BD8
   00000001 00000002    1C    00002C00
   00000001 00000002    1C    00002C28
   00000001 00000002    1C    00002C50
   00000001 00000002    1C    00002C78
   00000001 00000002    1C    00002CA0
   00000001 00000002    1C    00002CC8
   00000001 00000002    1C    00002CF0
   00000001 00000002    1C    00002D18
   00000001 00000002    1C    00002D40
   00000001 00000002    1C    00002D68
   00000001 00000002    1C    00002D90
   00000001 00000002    1C    00002DB8
   00000001 00000002    1C    00002DE0
   00000001 00000002    1C    00002E08
   00000001 00000002    1C    00002E30
   00000001 00000002    1C    00002E58
   00000001 00000002    1C    00002E80
   00000001 00000002    1C    00002EA8
   00000001 00000002    1C    00002ED0
   00000001 00000002    1C    00002EF8
   00000001 00000002    1C    00002F20
   00000001 00000002    1C    00002F48
   00000001 00000002    1C    00002F70
   00000001 00000002    1C    00002F98
   00000001 00000002    1C    00002FC0
   00000001 00000002    1C    00002FE8
   00000001 00000002    1C    00003010
   00000001 00000002    1C    00003038
   00000001 00000002    1C    00003060
   00000001 00000002    1C    00003088
   00000001 00000002    1C    000030B0
   00000001 00000002    1C    000030D8
   00000001 00000002    1C    00003100
   00000001 00000002    1C    00003128
   00000001 00000002    1C    00003150
   00000001 00000002    1C    00003178
   00000001 00000002    1C    000031A0
   00000001 00000002    1C    000031C8
   00000001 00000002    1C    000031F0
   00000001 00000002    1C    00003218
   00000001 00000002    1C    00003240
   00000001 00000002    1C    00003268
   00000001 00000002    1C    00003290
   00000001 00000002    1C    000032B8
   00000001 00000002    1C    000032E0
   00000001 00000002    1C    00003308
   00000001 00000002    1C    00003330
   00000001 00000002    1C    00003358
   00000001 00000002    1C    00003380
   00000001 00000002    1C    000033A8
   00000001 00000002    1C    000033D0
   00000001 00000002    1C    000033F8
1VIEW     (VIEW2025) (13:00) (15MAR04) Relocation Dictionary                                                                Page  130
   00000001 00000002    1C    00003420
   00000001 00000002    1C    00003448
   00000001 00000002    1C    00003470
   00000001 00000002    1C    00003498
   00000001 00000002    1C    000034C0
   00000001 00000002    1C    000034E8
   00000001 00000002    1C    00003510
   00000001 00000002    1C    00003538
   00000001 00000002    1C    00003560
   00000001 00000002    1C    00003588
   00000001 00000002    1C    000035B0
   00000001 00000002    1C    000035D8
   00000001 00000002    1C    00003600
   00000001 00000002    1C    00003628
   00000001 00000002    1C    00003650
   00000001 00000002    1C    00003678
   00000001 00000002    1C    000036A0
   00000001 00000002    1C    000036C8
   00000001 00000002    1C    000036F0
   00000001 00000002    1C    00003718
   00000001 00000002    1C    00003740
   00000001 00000002    1C    00003768
   00000001 00000002    1C    00003790
   00000001 00000002    1C    000037B8
   00000001 00000002    1C    000037E0
   00000001 00000002    1C    00003808
   00000001 00000002    1C    00003830
   00000001 00000002    1C    00003858
   00000001 00000002    1C    00003880
   00000001 00000002    1C    000038A8
   00000001 00000002    1C    000038D0
   00000001 00000002    1C    000038F8
   00000001 00000002    1C    00003920
   00000001 00000002    1C    00003948
   00000001 00000002    1C    00003970
   00000001 00000002    1C    00003998
   00000001 00000002    1C    000039C0
   00000001 00000002    1C    000039E8
   00000001 00000002    1C    00003A10
   00000001 00000002    1C    00003A38
   00000001 00000002    1C    00003A60
   00000001 00000002    1C    00003A88
   00000001 00000002    1C    00003AB0
   00000001 00000002    1C    00003AD8
   00000001 00000002    1C    00003B00
   00000001 00000002    1C    00003B28
   00000001 00000002    1C    00003B50
   00000001 00000002    1C    00003B78
   00000001 00000002    1C    00003BA0
   00000001 00000002    1C    00003BC8
   00000001 00000002    1C    00003BF0
   00000001 00000002    1C    00003C18
   00000001 00000002    1C    00003C40
   00000001 00000002    1C    00003C68
   00000001 00000002    1C    00003C90
   00000001 00000002    1C    00003CB8
   00000001 00000002    1C    00003CE0
   00000001 00000002    1C    00003D08
   00000001 00000002    1C    00003D30
1VIEW     (VIEW2025) (13:00) (15MAR04) Relocation Dictionary                                                                Page  131
   00000001 00000002    1C    00003D58
   00000001 00000002    1C    00003D80
   00000001 00000002    1C    00003DA8
   00000001 00000002    1C    00003DD0
   00000001 00000002    1C    00007000
   00000001 00000002    1C    00007028
   00000001 00000002    1C    00007050
   00000001 00000002    1C    00007078
   00000001 00000002    1C    000070A0
   00000001 00000003    1C    0000032C
   00000001 00000004    1C    00000350
   00000001 00000004    1C    00001550
   00000001 00000004    1C    000015C8
   00000001 00000004    1C    00001CB8
   00000001 00000004    1C    00003DF8
   00000001 00000004    1C    000070C8
   00000001 00000004    1C    00007270
   00000001 00000005    1C    00000354
   00000001 00000005    1C    00000CE8
   00000001 00000005    1C    000012E4
   00000001 00000005    1C    00001554
   00000001 00000005    1C    00001CBC
   00000001 00000005    1C    000021E4
   00000001 00000006    1C    00000CCC
   00000001 00000006    1C    000021D0
   00000001 00000006    1C    00002438
   00000001 00000006    1C    00007508
   00000001 00000007    1C    00000CD0
   00000001 00000007    1C    000021D4
   00000001 00000007    1C    0000243C
   00000001 00000008    1C    00000CD8
   00000001 00000008    1C    000012F4
   00000001 00000008    1C    00004278
   00000001 00000008    1C    00005118
   00000001 00000008    1C    000055DC
   00000001 00000008    1C    00005D2C
   00000001 00000008    1C    00006A00
   00000001 00000008    1C    00006EB8
   00000001 00000008    1C    0000750C
   00000001 00000009    1C    00000CE0
   00000001 00000009    1C    000012F8
   00000001 00000009    1C    00006A08
   00000001 00000009    1C    0000752C
   00000001 0000000A    1C    00000CE4
   00000001 0000000B    1C    00000CF0
   00000001 0000000B    1C    000012E8
   00000001 0000000C    1C    00000CF8
   00000001 0000000C    1C    000012F0
   00000001 0000000C    1C    0000514C
   00000001 0000000C    1C    000055F0
   00000001 0000000D    1C    00000CFC
   00000001 0000000E    1C    00000D0C
   00000001 0000000F    1C    00000D10
   00000001 0000000F    1C    00002428
   00000001 00000010    1C    000012C0
   00000001 00000011    1C    000012C8
   00000001 00000012    1C    000012E0
   00000001 00000013    1C    000012EC
   00000001 00000014    1C    00001300
1VIEW     (VIEW2025) (13:00) (15MAR04) Relocation Dictionary                                                                Page  132
   00000001 00000015    1C    000015A4
   00000001 00000016    1C    00001654
   00000001 00000016    1C    0000167C
   00000001 00000016    1C    000016F4
   00000001 00000016    1C    00007220
   00000001 00000016    1C    00007248
   00000001 00000017    1C    00001C40
   00000001 00000017    1C    00002480
   00000001 00000018    1C    00001C90
   00000001 00000019    1C    000021C8
   00000001 0000001A    1C    000021DC
   00000001 0000001B    1C    000021E0
   00000001 0000001C    1C    000021E8
   00000001 0000001D    1C    000021F0
   00000001 0000001D    1C    00004284
   00000001 0000001E    1C    000021FC
   00000001 0000001F    1C    00002204
   00000001 00000020    1C    00002208
   00000001 00000020    1C    00006AE8
   00000001 00000021    1C    0000220C
   00000001 00000021    1C    000055D8
   00000001 00000021    1C    00006AEC
   00000001 00000021    1C    00007530
   00000001 00000022    1C    00002210
   00000001 00000022    1C    00006AF0
   00000001 00000023    1C    00002214
   00000001 00000023    1C    00006AE4
   00000001 00000024    1C    00002224
   00000001 00000024    1C    00004288
   00000001 00000025    1C    00002228
   00000001 00000026    1C    0000222C
   00000001 00000027    1C    00002424
   00000001 00000027    1C    00007500
   00000001 00000028    1C    00002430
   00000001 00000029    1C    00002444
   00000001 0000002A    1C    00002448
   00000001 0000002B    1C    0000244C
   00000001 0000002B    1C    00004280
   00000001 0000002C    1C    000029FC
   00000001 0000002C    1C    00003C1C
   00000001 0000002C    1C    00003C44
   00000001 0000002C    1C    00003C6C
   00000001 0000002C    1C    00003C94
   00000001 0000002C    1C    00003CBC
   00000001 0000002C    1C    00003CE4
   00000001 0000002C    1C    00003D0C
   00000001 0000002C    1C    00003D34
   00000001 0000002D    1C    00004258
   00000001 0000002D    1C    000050F0
   00000001 0000002D    1C    000055E0
   00000001 0000002D    1C    00005D38
   00000001 0000002E    1C    0000425C
   00000001 0000002E    1C    00005110
   00000001 0000002F    1C    00004260
   00000001 00000030    1C    00004264
   00000001 00000031    1C    00004268
   00000001 00000031    1C    00006AD0
   00000001 00000032    1C    00004274
   00000001 00000033    1C    0000427C
1VIEW     (VIEW2025) (13:00) (15MAR04) Relocation Dictionary                                                                Page  133
   00000001 00000034    1C    0000428C
   00000001 00000034    1C    00005100
   00000001 00000035    1C    00004290
   00000001 00000036    1C    000050F4
   00000001 00000037    1C    000050FC
   00000001 00000037    1C    00005D18
   00000001 00000038    1C    00005104
   00000001 00000039    1C    00005108
   00000001 0000003A    1C    0000510C
   00000001 0000003B    1C    0000511C
   00000001 0000003C    1C    00005120
   00000001 0000003D    1C    00005168
   00000001 0000003D    1C    00005D44
   00000001 0000003E    1C    00005178
   00000001 0000003F    1C    00005180
   00000001 0000003F    1C    00006A10
   00000001 00000040    1C    00005184
   00000001 00000041    1C    0000518C
   00000001 00000041    1C    00005D24
   00000001 00000042    1C    000051BC
   00000001 00000043    1C    000055E4
   00000001 00000044    1C    000055E8
   00000001 00000045    1C    00005624
   00000001 00000046    1C    00005D30
   00000001 00000047    1C    00005D34
   00000001 00000048    1C    00006A14
   00000001 00000049    1C    00006A18
   00000001 0000004A    1C    00006A1C
   00000001 0000004B    1C    00006A20
   00000001 0000004C    1C    00006A74
   00000001 0000004C    1C    00007528
   00000001 0000004D    1C    00006A94
   00000001 0000004E    1C    00006AA0
   00000001 0000004F    1C    00006AE0
   00000001 00000050    1C    00007534

1VIEW     (VIEW2025) (13:00) (15MAR04) Ordinary Symbol and Literal Cross Reference                                          Page  134
-Symbol   Length   Value     Id    R Type   Defn References                                  HLASM R4.0  2004/03/15 13.00
0$$$@R0        1 00000000 FFFFFFFE     J     705  1015
 $$$@R10       1 00000000 FFFFFFF4     J     835  1079
 $$$@R11       1 00000000 FFFFFFF3     J     848  1092
 $$$@R12       1 00000000 FFFFFFF2     J     861  1105
 $$$@R13       1 00000000 FFFFFFF1     J     874  1118
 $$$@R14       1 00000000 FFFFFFF0     J     887  1131
 $$$@R7        1 00000000 FFFFFFF7     J     796  1028
 $$$@R8        1 00000000 FFFFFFF6     J     809  1041   1053
 $$$@R9        1 00000000 FFFFFFF5     J     822  1066
 $$$C1WYLVIEW
               1 00000F1B 00000001     J   10988 10990  11039
 $$$C10WYLVIEW
               1 00006EF2 00000001     J   34155 34157  34279
 $$$C11WYLVIEW
               1 0000757A 00000001     J   36034 36036
 $$$C12WYLVIEW
               1 00007590 00000001     J   36051 36053
 $$$C2WYLVIEW
               1 0000137E 00000001     J   12399 12401
 $$$C3WYLVIEW
               1 00002236 00000001     J   15852 15854  16018  16581
 $$$C4WYLVIEW
               1 00002460 00000001     J   16681 16683
 $$$C5WYLVIEW
               1 000042FB 00000001     J   20615 20617  21651  22662  23464  23503  23538  24232  24706  24911  25539
 $$$C6WYLVIEW
               1 000052D6 00000001     J   25732 25734  25898
 $$$C7WYLVIEW
               1 000057AD 00000001     J   26832 26834  27842
 $$$C8WYLVIEW
               1 00005D57 00000001     J   28800 28802  32506  32654  32670
 $$$C9WYLVIEW
               1 00006C98 00000001     J   33517 33519
 $$$D3WYLVIEW
               1 00002459 00000001     J   15853 16570
 $$$D5WYLVIEW
               1 000052B2 00000001     J   20616 23453  23492  23527  24695  24900  25528
 $$$D8WYLVIEW
               1 00006C85 00000001     J   28801 32495  32643  32659
 $$$RCOPYWA
               1 00000000 FFFFFFE2     J   22633 22661  22661
 $$$RCP        1 00000000 FFFFFFEC     J    2459  4719   6193   6193
 $$$RCV        1 00000000 FFFFFFEE     J    1184  2369   2369
 $$$RDELWA
               1 00000000 FFFFFFE1     J   24218 24231  24231
 $$$RDEV       1 00000000 FFFFFFEB     J    4673  4718   4718
 $$$RGSWA      1 00000000 FFFFFFE0     J   25884 25897  25897
 $$$RJCB       1 00000000 FFFFFFE9     J    6311  6585   6585
 $$$RLINT      1 00000000 FFFFFFE7     J    6674  6810   6810
 $$$RNSCNCB
               1 00000000 FFFFFFED     J    2380  2453   2453
 $$$ROOPSWA
               1 00000000 FFFFFFE3     J   21637 21650  21650
 $$$RSHVWWA
               1 00000000 FFFFFFE6     J    7653  7666   7666
1VIEW     (VIEW2025) (13:00) (15MAR04) Ordinary Symbol and Literal Cross Reference                                          Page  135
 $$$RTTYPE
               1 00000000 FFFFFFEA     J    6204  6305   6305
 $$$RVTRC      1 00000000 FFFFFFE5     J   11000 11038  11038
 $$$RVWA       1 00000000 FFFFFFE4     J   15871 16017  16017
 $$$RVXWA      1 00000000 FFFFFFDE     J   34175 34278  34278
 $$$RWIND      1 00000000 FFFFFFE8     J    6599  6665   6665
 $$$RWRAPWA
               1 00000000 FFFFFFDF     J   27815 27841  27841
 $$$SEGCB0
               4 00000050 FFFFFFEC     F    2490  2576   2576
 $$$SEGCB244
               4 00000008 FFFFFFE4     F   15905 15991  15991
 $$$SEGCB778
               4 00000008 FFFFFFDE     F   34185 34271  34271
 $$$V01       22 0000757A 00000001     C   36045 11414  11518  11605  11661
 $$$100F       2 00000F78 00000001     H   11177 11162B
 $$$101F       2 00000F84 00000001     H   11205 11190B
 $$$102F       2 00000FCA 00000001     H   11301 11283B
 $$$102S       2 00000FB4 00000001     H   11274 11300B
 $$$104        1 00000050 00000001 A   U   11328 11325  11327
 $$$106B       1 00000FF2 00000001     X   11368 11375U
 $$$107F       2 00001018 00000001     H   11418 11403B
 $$$108S       2 00001018 00000001     H   11424 11531B
 $$$109F       2 0000102E 00000001     H   11474 11451B 11464B
 $$$112F       2 00001058 00000001     H   11522 11507B
 $$$113B       4 0000105E 00000001     I   11546 11559
 $$$113F       2 00001068 00000001     H   11555 11546B 11558
 $$$114E       2 0000106C 00000001     H   11566 11560
 $$$114F       2 00001094 00000001     H   11619 11562B
 $$$115F       2 0000108E 00000001     H   11609 11594B
 $$$116F       2 000010B6 00000001     H   11665 11650B
 $$$117        1 00000050 00000001 A   U   11710 11707  11709
 $$$119B       1 0000110A 00000001     X   11742 11749U
 $$$120F       2 00001118 00000001     H   11781 11768B
 $$$121F       2 0000112E 00000001     H   11809 11796B
 $$$122F       2 000012A0 00000001     H   12338 11864B
 $$$122S       2 00001144 00000001     H   11837 12337B
 $$$125F       2 00001182 00000001     H   11940 11927B
 $$$126F       2 00001220 00000001     H   12152 12139B
 $$$127F       2 00001230 00000001     H   12176 12163B
 $$$128        1 00000050 00000001 A   U   12358 12355  12357
 $$$130B       1 00001398 00000001     X   12433 12440U
 $$$132F       2 0000140C 00000001     H   12541 12528B
 $$$133F       2 00001434 00000001     H   12618 12606B
 $$$134F       2 00001462 00000001     H   12665 12633B
 $$$135F       2 00001462 00000001     H   12661 12648B
 $$$137F       2 000014D6 00000001     H   12750 12736B
 $$$138F       2 000014E8 00000001     H   12780 12762B
 $$$139        1 00000050 00000001 A   U   12809 12806  12808
 $$$141B       1 000015EA 00000001     X   12914 12921U
 $$$142        1 00000050 00000001 A   U   12948 12945  12947
 $$$144B       1 00001616 00000001     X   12977 12984U
 $$$145        1 00000050 00000001 A   U   13017 13014  13016
 $$$147B       1 00001A5E 00000001     X   13435 13442U
 $$$148F       2 00001A9E 00000001     H   13512 13463B
 $$$149        1 00000050 00000001 A   U   13535 13532  13534
 $$$151B       1 00001AC8 00000001     X   13562 13569U
 $$$152F       2 00001AD2 00000001     H   13599 13588B
 $$$153F       2 00001AE4 00000001     H   13627 13613B
1VIEW     (VIEW2025) (13:00) (15MAR04) Ordinary Symbol and Literal Cross Reference                                          Page  136
 $$$154        1 00000050 00000001 A   U   13649 13646  13648
 $$$156B       1 00001B0E 00000001     X   13676 13683U
 $$$157        1 00000050 00000001 A   U   13715 13712  13714
 $$$159B       1 00001B3A 00000001     X   13742 13749U
 $$$160        1 00000050 00000001 A   U   13782 13779  13781
 $$$162B       1 00001B66 00000001     X   13809 13816U
 $$$163F       2 00001B78 00000001     H   13851 13837B
 $$$164        1 00000050 00000001 A   U   13873 13870  13872
 $$$166B       1 00001BA2 00000001     X   13900 13907U
 $$$167F       2 00001C10 00000001     H   13984 13970B
 $$$168        1 00000050 00000001 A   U   14006 14003  14005
 $$$170B       1 00001CDA 00000001     X   14094 14101U
 $$$171        1 00000050 00000001 A   U   14131 14128  14130
 $$$173B       1 00001D0E 00000001     X   14158 14165U
 $$$174        1 00000050 00000001 A   U   14195 14192  14194
 $$$176B       1 00001D40 00000001     X   14222 14229U
 $$$177        1 00000050 00000001 A   U   14262 14259  14261
 $$$179B       1 00001D74 00000001     X   14289 14296U
 $$$180F       2 00001D8A 00000001     H   14336 14316B
 $$$181        1 00000050 00000001 A   U   14358 14355  14357
 $$$183B       1 00001DB4 00000001     X   14385 14392U
 $$$184F       2 00001DC6 00000001     H   14430 14411B
 $$$185        1 00000050 00000001 A   U   14452 14449  14451
 $$$187B       1 00001DF0 00000001     X   14479 14486U
 $$$188F       2 00001E02 00000001     H   14525 14505B
 $$$189        1 00000050 00000001 A   U   14547 14544  14546
 $$$191B       1 00001E2C 00000001     X   14574 14581U
 $$$192        1 00000050 00000001 A   U   14613 14610  14612
 $$$194B       1 00001E58 00000001     X   14640 14647U
 $$$195        1 00000050 00000001 A   U   14680 14677  14679
 $$$197B       1 00001E84 00000001     X   14707 14714U
 $$$198F       2 00001E96 00000001     H   14752 14733B
 $$$199        1 00000050 00000001 A   U   14774 14771  14773
 $$$201B       1 00001EC0 00000001     X   14801 14808U
 $$$202F       2 00001ED2 00000001     H   14847 14827B
 $$$203        1 00000050 00000001 A   U   14869 14866  14868
 $$$205B       1 00001EFC 00000001     X   14896 14903U
 $$$206        1 00000050 00000001 A   U   14941 14938  14940
 $$$208B       1 00001F2C 00000001     X   14968 14975U
 $$$209        1 00000050 00000001 A   U   15014 15011  15013
 $$$211B       1 00001F5C 00000001     X   15041 15048U
 $$$212        1 00000050 00000001 A   U   15086 15083  15085
 $$$214B       1 00001F8C 00000001     X   15113 15120U
 $$$215        1 00000050 00000001 A   U   15159 15156  15158
 $$$217B       1 00001FBC 00000001     X   15186 15193U
 $$$218        1 00000050 00000001 A   U   15244 15241  15243
 $$$220B       1 00001FFE 00000001     X   15271 15278U
 $$$221        1 00000050 00000001 A   U   15329 15326  15328
 $$$223B       1 00002040 00000001     X   15356 15363U
 $$$224        1 00000050 00000001 A   U   15395 15392  15394
 $$$226B       1 0000206C 00000001     X   15422 15429U
 $$$227        1 00000050 00000001 A   U   15462 15459  15461
 $$$229B       1 00002098 00000001     X   15489 15496U
 $$$230F       2 000020AC 00000001     H   15531 15518B
 $$$230S       2 00002098 00000001     H   15510 15530B
 $$$232        1 00000050 00000001 A   U   15553 15550  15552
 $$$234B       1 000020D6 00000001     X   15580 15587U
 $$$235        1 00000050 00000001 A   U   15619 15616  15618
 $$$237B       1 00002102 00000001     X   15646 15653U
1VIEW     (VIEW2025) (13:00) (15MAR04) Ordinary Symbol and Literal Cross Reference                                          Page  137
 $$$238        1 00000050 00000001 A   U   15686 15683  15685
 $$$240B       1 0000212E 00000001     X   15717 15724U
 $$$241F       2 00002166 00000001     H   15789 15753B
 $$$242F       2 00002162 00000001     H   15784 15770B
 $$$243        1 00000050 00000001 A   U   15807 15804  15806
 $$$253B       1 00002250 00000001     X   16047 16054U
 $$$254F       2 00002290 00000001     H   16191 16137B
 $$$255F       2 00002290 00000001     H   16182 16167B
 $$$256F       2 000022B4 00000001     H   16247 16237B
 $$$256T       2 000022AC 00000001     H   16240 16226B
 $$$258F       2 000022F2 00000001     H   16313 16263B
 $$$259F       2 000023A0 00000001     H   16498 16392B
 $$$260F       2 0000238C 00000001     H   16469 16417B 16434B
 $$$262F       2 0000238C 00000001     H   16465 16452B
 $$$263F       2 000023A0 00000001     H   16494 16480B
 $$$264F       2 000023BA 00000001     H   16529 16513B
 $$$265F       2 000023EC 00000001     H   16623 16542B
 $$$266F       2 000023DC 00000001     H   16586 16562B
 $$$267        6 0000245A 00000001     I   16576 16568X
 $$$268        6 0000245A 00000001     I   16575 16576  16576
 $$$269F       2 000023EA 00000001     H   16614 16598B
 $$$270        1 00000354 00000001 A   U   16653 16650  16652
 $$$272B       1 00003E1A 00000001     X   19197 19204U
 $$$273        1 00000050 00000001 A   U   19237 19234  19236
 $$$275B       1 00003E4A 00000001     X   19268 19275U
 $$$276F       2 00003E9E 00000001     H   19425 19294B 19311B
 $$$278F       2 00003E9E 00000001     H   19421 19332B 19349B
 $$$280F       2 00003E82 00000001     H   19383 19367B
 $$$281F       2 00003E9A 00000001     H   19416 19402B
 $$$282        1 00000050 00000001 A   U   19456 19453  19455
 $$$284B       1 00003ECE 00000001     X   19487 19494U
 $$$285        1 00000050 00000001 A   U   19572 19569  19571
 $$$287B       1 00003F44 00000001     X   19605 19612U
 $$$288F       2 00003F64 00000001     H   19659 19650B
 $$$289        1 00000050 00000001 A   U   19684 19681  19683
 $$$291B       1 00003F98 00000001     X   19715 19722U
 $$$292F       2 00003FB8 00000001     H   19769 19760B
 $$$293        1 00000050 00000001 A   U   19793 19790  19792
 $$$294F       2 00004044 00000001     H   19930 19891B
 $$$295B       1 00003FEA 00000001     X   19824 19831U
 $$$296F       2 0000401C 00000001     H   19895 19850B
 $$$297        1 00000050 00000001 A   U   19939 19936  19938
 $$$298F       2 000040C6 00000001     H   20076 20037B
 $$$299B       1 0000406C 00000001     X   19970 19977U
 $$$300F       2 0000409E 00000001     H   20041 19996B
 $$$301        1 00000050 00000001 A   U   20085 20082  20084
 $$$303B       1 000040EE 00000001     X   20116 20123U
 $$$304F       2 0000410E 00000001     H   20168 20155B
 $$$305        1 00000050 00000001 A   U   20187 20184  20186
 $$$307B       1 0000413A 00000001     X   20218 20225U
 $$$308F       2 0000416C 00000001     H   20288 20272B
 $$$308S       2 0000415A 00000001     H   20266 20287B
 $$$310        1 00000050 00000001 A   U   20332 20329  20331
 $$$312B       1 000041B2 00000001     X   20363 20370U
 $$$313F       2 000041E4 00000001     H   20431 20416B
 $$$313S       2 000041D2 00000001     H   20410 20430B
 $$$315        1 00000050 00000001 A   U   20471 20468  20470
 $$$317B       1 0000421E 00000001     X   20502 20509U
 $$$318        1 00000050 00000001 A   U   20581 20578  20580
1VIEW     (VIEW2025) (13:00) (15MAR04) Ordinary Symbol and Literal Cross Reference                                          Page  138
 $$$320B       1 00004316 00000001     X   20648 20655U
 $$$321F       2 00004328 00000001     H   20689 20674B
 $$$322F       2 00004378 00000001     H   20806 20706B
 $$$323F       2 0000434C 00000001     H   20738 20723B
 $$$324F       2 00004378 00000001     H   20802 20751B 20765B 20784B
 $$$327F       2 0000439C 00000001     H   20860 20825B
 $$$328F       2 0000439A 00000001     H   20855 20840B
 $$$329B       4 000043B0 00000001     I   20889 20934
 $$$329F       2 000043DC 00000001     H   20928 20889B 20933
 $$$330F       2 000043CE 00000001     H   20921 20906B
 $$$331E       2 000043E0 00000001     H   20941 20935
 $$$331F       2 00004408 00000001     H   20974 20937B
 $$$332        1 00000050 00000001 A   U   21018 21015  21017
 $$$334B       1 0000444E 00000001     X   21049 21056U
 $$$335F       2 00004460 00000001     H   21090 21075B
 $$$336B       4 0000446A 00000001     I   21105 21152
 $$$336F       2 00004488 00000001     H   21148 21105B 21151
 $$$337F       2 00004486 00000001     H   21143 21127B
 $$$338E       2 0000448C 00000001     H   21159 21153
 $$$338F       2 000044BC 00000001     H   21213 21155B
 $$$339B       4 00004498 00000001     I   21175 21188
 $$$339F       2 000044A0 00000001     H   21185 21175B 21187
 $$$340E       2 000044A4 00000001     H   21195 21189
 $$$340F       2 000044B8 00000001     H   21208 21191B
 $$$341        1 00000050 00000001 A   U   21277 21274  21276
 $$$343B       1 0000450C 00000001     X   21308 21315U
 $$$344F       2 0000451E 00000001     H   21349 21334B
 $$$345F       2 00004532 00000001     H   21387 21362B
 $$$347F       2 00004564 00000001     H   21451 21416B 21433B
 $$$347S       2 00004534 00000001     H   21399 21450B
 $$$350F       2 0000456E 00000001     H   21477 21462B
 $$$351        1 00000050 00000001 A   U   21498 21495  21497
 $$$353B       1 0000459A 00000001     X   21529 21536U
 $$$354F       2 000045AC 00000001     H   21571 21555B
 $$$355F       2 000045C0 00000001     H   21599 21583B
 $$$356        1 00000050 00000001 A   U   21627 21624  21626
 $$$357F       2 0000469C 00000001     H   21914 21728B 21793B 21876B
 $$$358B       1 000045F0 00000001     X   21679 21686U
 $$$359F       2 00004602 00000001     H   21732 21717B
 $$$360F       2 00004638 00000001     H   21797 21746B
 $$$361F       2 0000468E 00000001     H   21880 21846B
 $$$362        1 00000060 00000001 A   U   21923 21920  21922
 $$$364B       1 000046C4 00000001     X   21954 21961U
 $$$365F       2 000046D6 00000001     H   21995 21980B
 $$$366F       2 000046F8 00000001     H   22057 22012B 22030B
 $$$368F       2 0000470A 00000001     H   22091 22071B
 $$$369F       2 0000471E 00000001     H   22114 22105B
 $$$370F       2 0000472C 00000001     H   22137 22127B
 $$$372F       2 00004766 00000001     H   22241 22174B 22210B 22224B
 $$$373F       2 0000475C 00000001     H   22227 22193B
 $$$376        1 00000050 00000001 A   U   22271 22268  22270
 $$$378B       1 0000479C 00000001     X   22302 22309U
 $$$379F       2 000047AE 00000001     H   22343 22328B
 $$$380F       2 000047D0 00000001     H   22405 22360B 22378B
 $$$382F       2 000047E2 00000001     H   22439 22419B
 $$$383F       2 00004800 00000001     H   22464 22455B
 $$$384F       2 0000480C 00000001     H   22490 22477B
 $$$386F       2 00004846 00000001     H   22593 22527B 22582B
 $$$387F       2 0000482C 00000001     H   22551 22541B
1VIEW     (VIEW2025) (13:00) (15MAR04) Ordinary Symbol and Literal Cross Reference                                          Page  139
 $$$388F       2 0000483C 00000001     H   22585 22566B
 $$$390        1 00000050 00000001 A   U   22623 22620  22622
 $$$392B       1 0000487C 00000001     X   22688 22695U
 $$$393        1 00000050 00000001 A   U   22727 22724  22726
 $$$395B       1 000048B4 00000001     X   22756 22763U
 $$$396F       2 0000490A 00000001     H   22901 22816B
 $$$396T       2 000048CC 00000001     H   22819 22805B
 $$$398F       2 000048F8 00000001     H   22867 22854B
 $$$399F       2 00004952 00000001     H   22998 22914B
 $$$400F       2 00004940 00000001     H   22964 22952B
 $$$401F       2 00004986 00000001     H   23054 23016B
 $$$402F       2 00004982 00000001     H   23049 23039B
 $$$403F       2 00004A18 00000001     H   23285 23071B 23093B 23107B 23144B 23181B
 $$$406F       2 000049B6 00000001     H   23147 23127B
 $$$408F       2 000049C8 00000001     H   23184 23164B
 $$$410F       2 000049F4 00000001     H   23233 23220B
 $$$411F       2 00004B7C 00000001     H   23775 23302B 23418B
 $$$412F       2 00004A50 00000001     H   23377 23321B 23341B
 $$$416F       2 00004AA4 00000001     H   23469 23445B
 $$$417        6 000052B2 00000001     I   23459 23451X
 $$$418        6 000052B2 00000001     I   23458 23459  23459
 $$$419F       2 00004AB4 00000001     H   23508 23484B
 $$$420        6 000052B8 00000001     I   23498 23490X
 $$$421        6 000052B8 00000001     I   23497 23498  23498
 $$$422F       2 00004ABE 00000001     H   23543 23519B
 $$$423        6 000052BE 00000001     I   23533 23525X
 $$$424        6 000052BE 00000001     I   23532 23533  23533
 $$$425F       2 00004B04 00000001     H   23625 23568B 23588B 23609B
 $$$428F       2 00004B44 00000001     H   23682 23641B
 $$$429F       2 00004B36 00000001     H   23673 23664B
 $$$430F       2 00004B78 00000001     H   23762 23713B 23749B
 $$$431F       2 00004B72 00000001     H   23752 23732B
 $$$433B       4 00004B88 00000001     I   23793 23815
 $$$433F       2 00004B98 00000001     H   23812 23793B 23814
 $$$434E       2 00004B9C 00000001     H   23822 23816
 $$$434F       2 00004BD2 00000001     H   23899 23818B
 $$$435B       4 00004BA6 00000001     I   23835 23881
 $$$435F       2 00004BCA 00000001     H   23878 23835B 23880
 $$$436F       2 00004BBA 00000001     H   23867 23851B
 $$$437E       2 00004BCE 00000001     H   23888 23882
 $$$437F       2 00004BD2 00000001     H   23895 23884B
 $$$438F       2 00004C18 00000001     H   23955 23939B
 $$$439F       2 00004C68 00000001     H   24033 23985B
 $$$439S       2 00004C34 00000001     H   23977 24032B
 $$$441F       2 00004C5E 00000001     H   24023 24007B
 $$$442F       2 00004C96 00000001     H   24073 24049B
 $$$443F       2 00004CCC 00000001     H   24168 24087B 24110B
 $$$445F       2 00004CCC 00000001     H   24156 24144B
 $$$446        1 00000064 00000001 A   U   24208 24205  24207
 $$$448B       1 00004D02 00000001     X   24260 24267U
 $$$449F       2 00004D2E 00000001     H   24345 24313B
 $$$449T       2 00004D14 00000001     H   24316 24302B
 $$$451F       2 00004D4C 00000001     H   24377 24363B
 $$$452F       2 00004D5C 00000001     H   24401 24391B
 $$$453F       2 00004DCE 00000001     H   24588 24419B
 $$$454F       2 00004DCE 00000001     H   24584 24438B 24452B 24488B
 $$$456F       2 00004D8C 00000001     H   24491 24471B
 $$$458B       4 00004D9A 00000001     I   24523 24566
 $$$458F       2 00004DBE 00000001     H   24560 24508B 24523B 24563
1VIEW     (VIEW2025) (13:00) (15MAR04) Ordinary Symbol and Literal Cross Reference                                          Page  140
 $$$459B       4 00004D90 00000001     I   24508 24564
 $$$460F       2 00004DB8 00000001     H   24554 24543B
 $$$461E       2 00004DC2 00000001     H   24573 24565  24567
 $$$461F       2 00004DCE 00000001     H   24580 24569B
 $$$462F       2 00004E3E 00000001     H   24722 24605B 24661B
 $$$463F       2 00004E18 00000001     H   24664 24647B
 $$$465F       2 00004E30 00000001     H   24711 24687B
 $$$466        6 000052C4 00000001     I   24701 24693X
 $$$467        6 000052C4 00000001     I   24700 24701  24701
 $$$468F       2 00004E78 00000001     H   24798 24740B 24759B
 $$$470F       2 00004E74 00000001     H   24793 24777B
 $$$471F       2 00004ED6 00000001     H   24929 24821B
 $$$472B       4 00004EA6 00000001     I   24850 24868
 $$$472F       2 00004EB6 00000001     H   24864 24850B 24867
 $$$472T       2 00004EAA 00000001     H   24853 24841B
 $$$474E       2 00004EBA 00000001     H   24875 24869
 $$$474F       2 00004ED6 00000001     H   24925 24871B
 $$$475F       2 00004ECC 00000001     H   24916 24892B
 $$$476        6 000052CA 00000001     I   24906 24898X
 $$$477        6 000052CA 00000001     I   24905 24906  24906
 $$$478        1 00000054 00000001 A   U   24986 24983  24985
 $$$480B       1 00004F20 00000001     X   25017 25024U
 $$$481F       2 00004F44 00000001     H   25076 25044B
 $$$482F       2 00004F66 00000001     H   25120 25088B
 $$$483        1 00000050 00000001 A   U   25155 25152  25154
 $$$485B       1 00004F9A 00000001     X   25186 25193U
 $$$486F       2 00004FB4 00000001     H   25245 25214B 25227B
 $$$488        1 00000050 00000001 A   U   25264 25261  25263
 $$$490B       1 00004FE0 00000001     X   25302 25309U
 $$$492F       2 00005004 00000001     H   25361 25351B
 $$$493F       2 0000503C 00000001     H   25465 25376B
 $$$495B       4 00005024 00000001     I   25413 25447
 $$$495F       2 00005034 00000001     H   25444 25413B 25446
 $$$496F       2 00005034 00000001     H   25440 25430B
 $$$497E       2 00005038 00000001     H   25454 25448
 $$$497F       2 0000503C 00000001     H   25461 25450B
 $$$498F       2 00005062 00000001     H   25548 25479B
 $$$499F       2 00005054 00000001     H   25505 25492B
 $$$50B        1 00000032 00000001     X    6850  6857U
 $$$500F       2 00005062 00000001     H   25544 25520B
 $$$501        6 000052D0 00000001     I   25534 25526X
 $$$502        6 000052D0 00000001     I   25533 25534  25534
 $$$503        1 00000040 00000001 A   U   25590 25587  25589
 $$$505B       1 000050AA 00000001     X   25624 25631U
 $$$506        1 00000050 00000001 A   U   25667 25664  25666
 $$$508B       1 000052F0 00000001     X   25765 25772U
 $$$509        1 00000050 00000001 A   U   25805 25802  25804
 $$$51         1 00000050 00000001 A   U    6922  6919   6921
 $$$511B       1 00005320 00000001     X   25836 25843U
 $$$512        1 00000050 00000001 A   U   25874 25871  25873
 $$$514B       1 00005352 00000001     X   25926 25933U
 $$$515F       2 00005388 00000001     H   26011 25962B
 $$$516F       2 000053C2 00000001     H   26073 26024B
 $$$518F       2 000054AE 00000001     H   26395 26117B
 $$$519F       2 00005412 00000001     H   26186 26134B
 $$$520F       2 00005430 00000001     H   26226 26200B
 $$$521F       2 0000544E 00000001     H   26266 26240B
 $$$522F       2 0000546C 00000001     H   26306 26280B
 $$$523F       2 00005498 00000001     H   26372 26320B
1VIEW     (VIEW2025) (13:00) (15MAR04) Ordinary Symbol and Literal Cross Reference                                          Page  141
 $$$524F       2 000054E8 00000001     H   26483 26448B
 $$$524S       2 000054C4 00000001     H   26419 26482B
 $$$527        1 000000D0 00000001 A   U   26509 26506  26508
 $$$529B       1 00005514 00000001     X   26540 26547U
 $$$53B        1 000000B6 00000001     X    6954  6961U
 $$$530F       2 0000554A 00000001     H   26615 26566B
 $$$531F       2 00005584 00000001     H   26677 26628B
 $$$533F       2 000055C6 00000001     H   26773 26716B
 $$$534        1 00000050 00000001 A   U   26794 26791  26793
 $$$536B       1 000057C8 00000001     X   26865 26872U
 $$$537F       2 000057DA 00000001     H   26907 26891B
 $$$538F       2 000057F0 00000001     H   26936 26920B
 $$$539        1 00000050 00000001 A   U   26966 26963  26965
 $$$54B        4 00000126 00000001     I    7039  7069
 $$$54F        2 0000013C 00000001     H    7066  7039B  7068
 $$$541B       1 00005824 00000001     X   26997 27004U
 $$$542F       2 00005836 00000001     H   27039 27023B
 $$$543        1 00000050 00000001 A   U   27099 27096  27098
 $$$545B       1 00005876 00000001     X   27130 27137U
 $$$546        1 00000050 00000001 A   U   27220 27217  27219
 $$$548B       1 000058EC 00000001     X   27251 27258U
 $$$549F       2 000058FE 00000001     H   27294 27278B
 $$$55E        2 00000140 00000001     H    7076  7070
 $$$55F        2 00000150 00000001     H    7103  7072B
 $$$550F       2 0000591A 00000001     H   27326 27310B
 $$$551        1 00000050 00000001 A   U   27361 27358  27360
 $$$553B       1 00005956 00000001     X   27392 27399U
 $$$554B       4 0000595C 00000001     I   27419 27438
 $$$554F       2 00005964 00000001     H   27434 27419B 27437
 $$$555E       2 00005968 00000001     H   27445 27439
 $$$555F       2 000059A2 00000001     H   27541 27441B
 $$$556B       4 00005978 00000001     I   27463 27481
 $$$556F       2 00005980 00000001     H   27478 27463B 27480
 $$$557E       2 00005984 00000001     H   27488 27482
 $$$557F       2 000059A2 00000001     H   27537 27484B
 $$$558F       2 0000599E 00000001     H   27527 27502B
 $$$559        1 00000050 00000001 A   U   27561 27558  27560
 $$$56F        2 0000019E 00000001     H    7212  7185B
 $$$561B       1 000059CE 00000001     X   27592 27599U
 $$$562F       2 00005A42 00000001     H   27778 27619B
 $$$563F       2 00005A0E 00000001     H   27693 27680B
 $$$564F       2 00005A2C 00000001     H   27747 27738B
 $$$565        1 00000050 00000001 A   U   27797 27794  27796
 $$$567B       1 00005AAE 00000001     X   27870 27877U
 $$$568F       2 00005AC6 00000001     H   27929 27914B
 $$$569F       2 00005AD2 00000001     H   27956 27941B
 $$$57F        2 000001CA 00000001     H    7269  7242B
 $$$570F       2 00005AE8 00000001     H   27985 27970B
 $$$571F       2 00005B16 00000001     H   28046 28029B
 $$$573F       2 00005B30 00000001     H   28090 28067B
 $$$574F       2 00005B4A 00000001     H   28149 28117B
 $$$574S       2 00005B34 00000001     H   28111 28148B
 $$$577F       2 00005B84 00000001     H   28275 28176B
 $$$577S       2 00005B4E 00000001     H   28170 28274B
 $$$58F        2 000001F6 00000001     H    7326  7299B
 $$$584F       2 00005B92 00000001     H   28302 28288B
 $$$585F       2 00005C58 00000001     H   28533 28333B
 $$$586F       2 00005BF8 00000001     H   28425 28344B
 $$$587F       2 00005BF2 00000001     H   28404 28372B 28390B
1VIEW     (VIEW2025) (13:00) (15MAR04) Ordinary Symbol and Literal Cross Reference                                          Page  142
 $$$587S       2 00005BD6 00000001     H   28366 28403B
 $$$59F        2 00000222 00000001     H    7383  7356B
 $$$591F       2 00005C04 00000001     H   28445 28436B
 $$$592F       2 00005C10 00000001     H   28464 28455B
 $$$594F       2 00005C58 00000001     H   28529 28518B
 $$$595F       2 00005CA8 00000001     H   28660 28551B 28571B 28588B 28607B 28626B
 $$$60F        2 0000024E 00000001     H    7440  7413B
 $$$600F       2 00005CA8 00000001     H   28656 28646B
 $$$601F       2 00005CCA 00000001     H   28729 28674B
 $$$602B       4 00005CB6 00000001     I   28692 28705
 $$$602F       2 00005CC0 00000001     H   28702 28692B 28704
 $$$603E       2 00005CC4 00000001     H   28712 28706
 $$$603F       2 00005CCA 00000001     H   28725 28708B
 $$$604        1 00000060 00000001 A   U   28769 28766  28768
 $$$606B       1 00005D72 00000001     X   28833 28840U
 $$$607F       2 00005D96 00000001     H   28894 28862B
 $$$608F       2 00005DA6 00000001     H   28914 28904B
 $$$609F       2 00005DEA 00000001     H   28996 28927B
 $$$61F        2 00000268 00000001     H    7479  7452B
 $$$610F       2 00005E0C 00000001     H   29040 29030B
 $$$611        1 00000050 00000001 A   U   29076 29073  29075
 $$$613B       1 00005E42 00000001     X   29107 29114U
 $$$614B       4 00005E50 00000001     I   29135 29215
 $$$614F       2 00005E8E 00000001     H   29211 29135B 29214
 $$$615E       2 00005E92 00000001     H   29222 29216
 $$$615F       2 00005E9E 00000001     H   29235 29218B
 $$$616        1 00000050 00000001 A   U   29254 29251  29253
 $$$618B       1 00005ECA 00000001     X   29285 29292U
 $$$619B       4 00005ED8 00000001     I   29313 29393
 $$$619F       2 00005F16 00000001     H   29389 29313B 29392
 $$$62F        2 00000282 00000001     H    7518  7491B
 $$$620E       2 00005F1A 00000001     H   29400 29394
 $$$620F       2 00005F26 00000001     H   29413 29396B
 $$$621        1 00000050 00000001 A   U   29432 29429  29431
 $$$623B       1 00005F52 00000001     X   29463 29470U
 $$$624F       2 00005F94 00000001     H   29559 29510B
 $$$625B       4 00005F9A 00000001     I   29573 29749
 $$$625F       2 00006022 00000001     H   29743 29573B 29748
 $$$626F       2 00005FE2 00000001     H   29667 29606B 29618B
 $$$628F       2 0000601A 00000001     H   29731 29682B
 $$$629E       2 00006026 00000001     H   29756 29750
 $$$629F       2 0000602A 00000001     H   29769 29752B
 $$$63F        2 0000029C 00000001     H    7557  7530B
 $$$630F       2 0000607A 00000001     H   29861 29783B
 $$$631        1 00000050 00000001 A   U   29886 29883  29885
 $$$633B       1 000060A6 00000001     X   29917 29924U
 $$$634F       2 000060DC 00000001     H   29998 29949B
 $$$635F       2 000060FA 00000001     H   30043 30033B
 $$$636F       2 0000614E 00000001     H   30189 30076B
 $$$636S       2 00006108 00000001     H   30067 30188B
 $$$638F       2 0000613E 00000001     H   30170 30130B
 $$$638T       2 00006128 00000001     H   30133 30108B 30120B
 $$$64         1 00000050 00000001 A   U    7582  7579   7581
 $$$641F       2 00006138 00000001     H   30159 30150B
 $$$642B       4 00006156 00000001     I   30214 30445
 $$$642F       2 00006206 00000001     H   30439 30214B 30444
 $$$643F       2 00006184 00000001     H   30286 30246B
 $$$644F       2 0000617E 00000001     H   30275 30266B
 $$$645F       2 000061B0 00000001     H   30347 30316B
1VIEW     (VIEW2025) (13:00) (15MAR04) Ordinary Symbol and Literal Cross Reference                                          Page  143
 $$$645S       2 00006196 00000001     H   30307 30346B
 $$$647F       2 000061D6 00000001     H   30392 30383B
 $$$648E       2 0000620A 00000001     H   30452 30446
 $$$648F       2 00006272 00000001     H   30571 30448B
 $$$649F       2 00006236 00000001     H   30504 30473B
 $$$649S       2 0000621C 00000001     H   30464 30503B
 $$$651F       2 00006268 00000001     H   30561 30530B
 $$$652        1 00000050 00000001 A   U   30611 30608  30610
 $$$653F       2 000062CA 00000001     H   30719 30697B
 $$$654B       1 000062A8 00000001     X   30643 30650U
 $$$655F       2 000062C4 00000001     H   30705 30669B
 $$$656F       2 000062C4 00000001     H   30701 30685B
 $$$657        1 00000050 00000001 A   U   30728 30725  30727
 $$$659B       1 000062F2 00000001     X   30759 30766U
 $$$66B        1 00000372 00000001     X    7696  7703U
 $$$660F       2 00006312 00000001     H   30819 30804B
 $$$661B       4 00006322 00000001     I   30848 30861
 $$$661F       2 0000632A 00000001     H   30858 30848B 30860
 $$$662E       2 0000632E 00000001     H   30868 30862
 $$$662F       2 00006330 00000001     H   30878 30864B
 $$$663        1 00000050 00000001 A   U   30926 30923  30925
 $$$665B       1 0000636A 00000001     X   30957 30964U
 $$$666F       2 0000638A 00000001     H   31017 31002B
 $$$667F       2 000063A4 00000001     H   31060 31047B
 $$$668        1 00000050 00000001 A   U   31108 31105  31107
 $$$67F        2 000003FA 00000001     H    7842  7765B
 $$$670B       1 000063DE 00000001     X   31139 31146U
 $$$671F       2 00006402 00000001     H   31208 31199B
 $$$672F       2 00006416 00000001     H   31235 31224B
 $$$673        1 00000050 00000001 A   U   31281 31278  31280
 $$$675B       1 00006462 00000001     X   31312 31319U
 $$$676F       2 00006480 00000001     H   31374 31359B
 $$$677B       4 0000648C 00000001     I   31402 31458
 $$$677F       2 000064AE 00000001     H   31451 31402B 31457
 $$$677T       2 00006490 00000001     H   31405 31392B
 $$$679F       2 000064A0 00000001     H   31430 31421B
 $$$68F        2 000003DC 00000001     H    7807  7794B
 $$$680B       4 000064B6 00000001     I   31474 31519
 $$$680E       2 000064B2 00000001     H   31465 31459
 $$$680F       2 000064D0 00000001     H   31513 31461B 31474B 31518
 $$$682F       2 000064CA 00000001     H   31502 31493B
 $$$683E       2 000064D4 00000001     H   31526 31520
 $$$683F       2 00006500 00000001     H   31572 31522B
 $$$684        1 00000050 00000001 A   U   31656 31653  31655
 $$$686B       1 00006566 00000001     X   31687 31694U
 $$$687F       2 00006584 00000001     H   31754 31738B
 $$$688        1 00000050 00000001 A   U   31793 31790  31792
 $$$69F        2 000003FA 00000001     H    7838  7823B
 $$$690B       1 000065BA 00000001     X   31824 31831U
 $$$691F       2 000065D6 00000001     H   31875 31865B
 $$$692F       2 000065E6 00000001     H   31895 31886B
 $$$693F       2 000065F2 00000001     H   31914 31905B
 $$$694        1 00000050 00000001 A   U   31956 31953  31955
 $$$696B       1 0000662E 00000001     X   31987 31994U
 $$$697B       4 00006640 00000001     I   32033 32046
 $$$697F       2 0000664A 00000001     H   32043 32033B 32045
 $$$698E       2 0000664E 00000001     H   32053 32047
 $$$698F       2 00006654 00000001     H   32066 32049B
 $$$699        1 00000050 00000001 A   U   32105 32102  32104
1VIEW     (VIEW2025) (13:00) (15MAR04) Ordinary Symbol and Literal Cross Reference                                          Page  144
 $$$70F        2 00000410 00000001     H    7892  7877B
 $$$701B       1 0000668A 00000001     X   32136 32143U
 $$$702F       2 000066AA 00000001     H   32194 32184B
 $$$703F       2 000066BA 00000001     H   32214 32205B
 $$$704F       2 000066C6 00000001     H   32233 32224B
 $$$705        1 00000050 00000001 A   U   32273 32270  32272
 $$$707B       1 00006700 00000001     X   32304 32311U
 $$$708F       2 0000671E 00000001     H   32363 32348B
 $$$709F       2 00006736 00000001     H   32399 32389B
 $$$71F        2 00000AB0 00000001     H   10195  8779B
 $$$71S        2 000006CC 00000001     H    8774 10194B
 $$$710F       2 00006746 00000001     H   32419 32410B
 $$$711F       2 00006752 00000001     H   32438 32429B
 $$$712F       2 00006798 00000001     H   32576 32532B 32544B 32567B
 $$$712S       2 0000675A 00000001     H   32448 32575B
 $$$713F       2 0000677C 00000001     H   32517 32467B
 $$$714F       2 00006774 00000001     H   32511 32487B
 $$$715        6 00006C86 00000001     I   32501 32493X
 $$$716        6 00006C86 00000001     I   32500 32501  32501
 $$$721F       2 000067BA 00000001     H   32620 32588B
 $$$722F       2 000067CC 00000001     H   32675 32635B
 $$$723        6 00006C8C 00000001     I   32649 32641X
 $$$724        6 00006C8C 00000001     I   32648 32649  32649
 $$$725        6 00006C92 00000001     I   32665 32657X
 $$$726        6 00006C92 00000001     I   32664 32665  32665
 $$$727        1 00000050 00000001 A   U   32723 32720  32722
 $$$729B       1 00006806 00000001     X   32754 32761U
 $$$73F        2 00000724 00000001     H    8890  8863B
 $$$730F       2 000068AA 00000001     H   32983 32783B
 $$$732F       2 00006836 00000001     H   32858 32823B 32846B
 $$$732S       2 0000681C 00000001     H   32817 32857B
 $$$735F       2 0000684E 00000001     H   32883 32873B
 $$$736F       2 00006858 00000001     H   32906 32895B
 $$$737F       2 000068A6 00000001     H   32977 32930B
 $$$738F       2 000068F4 00000001     H   33120 32997B 33028B
 $$$74F        2 00000780 00000001     H    9022  8995B
 $$$740F       2 000068CE 00000001     H   33061 33051B
 $$$741F       2 000068DC 00000001     H   33085 33075B
 $$$742F       2 000068E6 00000001     H   33105 33095B
 $$$743        1 00000050 00000001 A   U   33166 33163  33165
 $$$745B       1 00006936 00000001     X   33198 33205U
 $$$746F       2 00006972 00000001     H   33324 33230B
 $$$746S       2 0000693E 00000001     H   33221 33323B
 $$$748F       2 00006966 00000001     H   33311 33277B
 $$$748T       2 0000695A 00000001     H   33280 33264B
 $$$75F        2 00000A4C 00000001     H   10029  9942B 10020B
 $$$75S        2 00000A10 00000001     H    9930 10028B
 $$$750F       2 00006966 00000001     H   33307 33292B
 $$$751        1 00000050 00000001 A   U   33344 33341  33343
 $$$753B       1 0000699E 00000001     X   33375 33382U
 $$$754        1 00000050 00000001 A   U   33449 33446  33448
 $$$756B       1 00006CB2 00000001     X   33550 33557U
 $$$757        1 00000050 00000001 A   U   33585 33582  33584
 $$$759B       1 00006CE2 00000001     X   33616 33623U
 $$$760B       4 00006CE6 00000001     I   33643 33678
 $$$760F       2 00006D00 00000001     H   33674 33643B 33677
 $$$761E       2 00006D04 00000001     H   33685 33679
 $$$761F       2 00006D08 00000001     H   33697 33681B
 $$$762        1 00000050 00000001 A   U   33716 33713  33715
1VIEW     (VIEW2025) (13:00) (15MAR04) Ordinary Symbol and Literal Cross Reference                                          Page  145
 $$$764B       1 00006D34 00000001     X   33767 33774U
 $$$765F       2 00006D76 00000001     H   33909 33799B
 $$$766B       4 00006D56 00000001     I   33848 33870
 $$$766F       2 00006D62 00000001     H   33864 33834B 33848B 33867
 $$$766T       2 00006D5A 00000001     H   33851 33820B
 $$$768B       4 00006D4E 00000001     I   33834 33868
 $$$769E       2 00006D66 00000001     H   33877 33869  33871
 $$$769F       2 00006D76 00000001     H   33905 33873B 33888B
 $$$771        1 00000050 00000001 A   U   33928 33925  33927
 $$$773B       1 00006D9E 00000001     X   33959 33966U
 $$$774        1 00000050 00000001 A   U   34028 34025  34027
 $$$776B       1 00006E40 00000001     X   34063 34070U
 $$$777        1 00000050 00000001 A   U   34132 34129  34131
 $$$787B       1 00006F0C 00000001     X   34308 34315U
 $$$788F       2 00006FA8 00000001     H   34470 34444B
 $$$789F       2 00006FBE 00000001     H   34505 34492B
 $$$79F        2 00000A72 00000001     H   10093 10066B
 $$$790        1 00000094 00000001 A   U   34547 34544  34546
 $$$792B       1 000070EA 00000001     X   34669 34676U
 $$$793        1 00000050 00000001 A   U   34738 34735  34737
 $$$795B       1 00007128 00000001     X   34769 34776U
 $$$796F       2 0000719E 00000001     H   34869 34843B
 $$$797B       4 000071AC 00000001     I   34883 34918
 $$$797F       2 000071BA 00000001     H   34915 34883B 34917
 $$$798E       2 000071BE 00000001     H   34925 34919
 $$$798F       2 000071E0 00000001     H   34969 34921B
 $$$799        1 00000050 00000001 A   U   35001 34998  35000
 $$$80F        2 00000A8C 00000001     H   10131 10104B
 $$$801B       1 00007292 00000001     X   35076 35083U
 $$$802        1 00000050 00000001 A   U   35128 35125  35127
 $$$804B       1 000072BE 00000001     X   35155 35162U
 $$$805        1 00000050 00000001 A   U   35207 35204  35206
 $$$807B       1 000072EA 00000001     X   35234 35241U
 $$$808        1 00000050 00000001 A   U   35303 35300  35302
 $$$81F        2 00000C0A 00000001     H   10710 10248B
 $$$81S        2 00000ADC 00000001     H   10243 10709B
 $$$810B       1 00007328 00000001     X   35334 35341U
 $$$811        1 00000050 00000001 A   U   35372 35369  35371
 $$$813B       1 0000735A 00000001     X   35403 35410U
 $$$814B       4 00007368 00000001     I   35460 35724
 $$$814F       2 00007432 00000001     H   35716 35447B 35460B 35721
 $$$815B       4 0000735E 00000001     I   35447 35722
 $$$816F       2 000073E0 00000001     H   35608 35562B
 $$$817F       2 00007432 00000001     H   35712 35666B
 $$$818E       2 00007436 00000001     H   35731 35723  35725
 $$$818F       2 00007448 00000001     H   35753 35727B
 $$$819        1 00000050 00000001 A   U   35778 35775  35777
 $$$821B       1 00007474 00000001     X   35809 35816U
 $$$822F       2 0000748E 00000001     H   35868 35837B 35850B
 $$$824        1 00000050 00000001 A   U   35887 35884  35886
 $$$826B       1 000074BA 00000001     X   35917 35924U
 $$$827F       2 000074D4 00000001     H   35979 35946B 35958B
 $$$829        1 00000050 00000001 A   U   35998 35995  35997
 $$$83F        2 00000B1C 00000001     H   10340 10330B
 $$$84F        2 00000B28 00000001     H   10361 10351B
 $$$85F        2 00000B34 00000001     H   10382 10372B
 $$$86F        2 00000B40 00000001     H   10403 10393B
 $$$87F        2 00000B4C 00000001     H   10424 10414B
 $$$88F        2 00000B58 00000001     H   10445 10435B
1VIEW     (VIEW2025) (13:00) (15MAR04) Ordinary Symbol and Literal Cross Reference                                          Page  146
 $$$89F        2 00000B64 00000001     H   10466 10456B
 $$$90         1 000000D0 00000001 A   U   10737 10734  10736
 $$$92B        1 00000C36 00000001     X   10768 10775U
 $$$93F        2 00000C42 00000001     H   10805 10795B
 $$$94F        2 00000C4E 00000001     H   10827 10817B
 $$$95F        2 00000C5A 00000001     H   10849 10839B
 $$$96         1 00000050 00000001 A   U   10895 10892  10894
 $$$98B        1 00000F36 00000001     X   11077 11084U
 $$$99F        2 00000FCA 00000001     H   11310 11106B
 @RAR          0 00000000 FFFFFFF0     @    1132  2167   2175B
 @R0           0 00000000 FFFFFFFE     @     706   982U
 @R1           0 00000000 FFFFFFFD     @     719   978U  2173   2174   9982U 10502U 10550U 16236  16270  24670  24673
                                                 24877  24905M 28051  28132  28193  28206  28219  28238  28257  28387
                                                 28397  28604  28623  32455  32500M 32500  32551  32648  32664M 32677M
                                                 33642
 @R10          0 00000000 FFFFFFF4     @     836   942U
 @R11          0 00000000 FFFFFFF3     @     849   938U
 @R12          0 00000000 FFFFFFF2     @     862   934U
 @R13          0 00000000 FFFFFFF1     @     875   930U 23458M 23532  32648M 32664  34514  34976
 @R14          0 00000000 FFFFFFF0     @     888   926U
 @R15          0 00000000 FFFFFFEF     @     901   922U 11230U 11528U 12582U 16188U 19635  19745  23532M 24550  30196U
                                                 30880  31062  31876  32195
 @R2           0 00000000 FFFFFFFC     @     732   974U 24632  25533  28085  28396  32456U 33314
 @R3           0 00000000 FFFFFFFB     @     745   970U  9939   9981  10004  23458  23470  23497M 24700M 24905  28468M
                                                 28469  30179  30337  30494  32400  33320U
 @R4           0 00000000 FFFFFFFA     @     758   966U 10134  10700  24700  26429  26437  26454  27076U 27204U 29870U
                                                 30185U 30293U 30343U 30416U 30500U 31627U 32694U
 @R5           0 00000000 FFFFFFF9     @     771   962U  7865U 10191U 10706U 11616U 20301U 20445U 20561U 23497  23769U
                                                 24163U 27722U 28748U 29053U 29740U 30595U 30904U 31086U 31254U 31619U
                                                 31761U 31929U 32078U 32246U 32688U 33117U
 @R6           0 00000000 FFFFFFF8     @     784   958U 11307U 11689U 12334U 16632U 30832U 30895U 31030U 31077U 33726U
                                                 34526U 34722U 34985U 35112U 35191U 35287U 35762U
 @R7           0 00000000 FFFFFFF7     @     797   954U  6911U  7571U 10726U 10884U 11317U 11699U 12347U 12798U 12937U
                                                 13006U 13524U 13638U 13704U 13771U 13862U 13995U 14120U 14184U 14251U
                                                 14347U 14441U 14536U 14602U 14669U 14763U 14858U 14930U 15003U 15075U
                                                 15148U 15233U 15318U 15384U 15451U 15542U 15608U 15675U 15796U 16642U
                                                 19226U 19445U 19561U 19673U 19782U 19928U 20074U 20176U 20321U 20460U
                                                 20570U 21007U 21266U 21487U 21616U 21912U 22260U 22612U 22716U 24197U
                                                 24975U 25144U 25253U 25579U 25656U 25794U 25863U 26498U 26783U 26955U
                                                 27088U 27209U 27350U 27550U 27786U 28758U 29065U 29243U 29421U 29875U
                                                 30600U 30717U 30915U 31097U 31270U 31645U 31782U 31945U 32094U 32262U
                                                 32712U 33155U 33333U 33438U 33574U 33705U 33917U 34017U 34121U 34536U
                                                 34727U 34990U 35117U 35196U 35292U 35361U 35767U 35876U 35987U
 @R8           0 00000000 FFFFFFF6     @     810   950U 10721U 16637U 21907U 24192U 24970U 26493U 28753U 34531U
 @R9           0 00000000 FFFFFFF5     @     823   946U
 ABSCENT       1 00000000 00000000 A   T    2183  2183
 ACTNEXT       1 00000000 00000048     T   33466 33466
 ACTPICK       1 00000000 0000003F     T   25707 25707  33465
 ACTPREV       1 00000000 0000004B     T   33469 33469
 ACTVREST      1 00000000 0000004A     T   33468 33468
 ALICMD       57 00005A54 00000001     X   27806 27627  27627  27664  27711  27807  28795
 ALIGNV        2 000059B4 00000001     H   27573 17120  17495  18640
 ALIIND        3 00005A8A 00000001     C   27805 27704  27711
 ALILEN        3 00005A7F 00000001     C   27803 27657  27664
 ALIWORK      35 00005A54 00000001     C   27801 27806  27806
 ASCTBL        1 00000000 00000000 A   T    2191  2191
 BLKGET        2 00004FC6 00000001     H   25283 25700
 BLKGLINE      2 00005090 00000001     H   25605 25694
 BLTBL         1 00000000 00000000 A   T    2193  2193
1VIEW     (VIEW2025) (13:00) (15MAR04) Ordinary Symbol and Literal Cross Reference                                          Page  147
 BOTTOM        2 00004052 00000001     H   19951 16744  17135  18520
 BR            7 00000007 00000001 A   #    1022  6845M  6949M  7691M 10763M 11072M 11363M 11737M 12428M 12909M 12972M
                                                 13430M 13557M 13671M 13737M 13804M 13895M 14089M 14153M 14217M 14284M
                                                 14380M 14474M 14569M 14635M 14702M 14796M 14891M 14963M 15036M 15108M
                                                 15181M 15266M 15351M 15417M 15484M 15575M 15641M 15712M 16042M 19192M
                                                 19263M 19482M 19600M 19710M 19819M 19965M 20111M 20213M 20358M 20497M
                                                 20643M 21044M 21303M 21524M 21674M 21949M 22297M 22683M 22751M 24255M
                                                 25012M 25181M 25297M 25619M 25760M 25831M 25921M 26535M 26860M 26992M
                                                 27125M 27246M 27387M 27587M 27865M 28828M 29102M 29280M 29458M 29912M
                                                 30638M 30754M 30952M 31134M 31307M 31682M 31819M 31982M 32131M 32299M
                                                 32749M 33193M 33370M 33545M 33611M 33762M 33954M 34058M 34303M 34664M
                                                 34764M 35071M 35150M 35229M 35329M 35398M 35804M 35912M
 BREAK         2 00003E30 00000001     H   19249 18505  18956  25688
 BRKEXIT       2 00003EA2 00000001     H   19437 19379B 19417B
 BTD           1 00000000 00000046     T   28787 28787
 BTR           1 00000000 0000000E     T   10930 10930
 CALCDIM       1 00000000 00000023     T   15842 15842  33486
 CHECKIOB      1 00000000 00000000 A   T    2239  2239
 CHKLINES      1 00000000 00000038     T   25684 25684
 CHOPLINE      1 00000000 00000037     T   25682 25682  28781
 CLOSE         2 000044F2 00000001     H   21289 18865  19122
 CLOSECOM      4 00004550 00000001     I   21440 21378B
 CLOSEXIT      2 0000456E 00000001     H   21479 21345B
 CLRPSH        1 00000000 00000015     T   12874 12874
 CLRTEXT       1 00000000 0000001A     T   15828 15828
 CMDERR        2 00006CC8 00000001     H   33597 16729  16759  16789  16804  16819  16834  16849  16864  16879  16894
                                                 16924  16939  16954  16969  16984  16999  17044  17059  17074  17089
                                                 17104  17270  17360  17375  17465  17480  19168
 CMDNULL       2 00006C98 00000001     H   33531 16714
 CMDPRT        4 00002460 00000001     F   16702 16670
 CNTRANGE      1 00000000 00000040     T   25708 25708
 COLEXIT       2 00004422 00000001     H   20999 20685B 20734B 20851B 20917B
 COLLECT       2 000042FC 00000001     H   20629 18114  18835
 COLLPSH       1 00000000 00000003     T    7630  7630
 COLMEXIT      2 000044E0 00000001     H   21258 21086B 21139B
 COLMORE       2 00004434 00000001     H   21030 18850
 COMMAND       1 00000000 00000000 A   T    2179  2179
 COMMSEG       1 00000000 00000000 A   T    2180  2180
 CONTINUE      2 00003E00 00000001     H   19178 16909  18099  18249  18475
 COPY          2 0000489A 00000001     H   22735 17150  17300  18324  18655  18670  25692
 COPYCNT       4 00000004 FFFFFFE2     F   22651 23920M 23938M 23938  23960
 COPYDEL       4 00000010 FFFFFFE2     F   22654 23966M 23991
 COPYEXIT      2 00004CD6 00000001     H   24184 22994B 23281B 23863B 23951B
 COPYFLAG      1 00000000 FFFFFFE2     R   22641 22645
 COPYFSPL    128 00000000 FFFFFFE2        22645 23808M 24086
 COPYLEN       2 00000002 FFFFFFE2     H   22649 23385M 23616  23620  23675
 COPYMULT      4 00004B7C 00000001     I   23779 23368B
 COPYNULL      4 000048CC 00000001     I   22824 23353B 23383B 23395B
 COPYRES       2 00004CCC 00000001     H   24174 22897B 23771B
 COPYTLNO      4 00000008 FFFFFFE2     F   22652 23901M 24097
 COPYWA       20 00000000 FFFFFFE2     J   22661 22748  22777U 22787M 22787  24205  24207  24208
 COPYWLNO      4 0000000C FFFFFFE2     F   22653 23551M 23746  23902M 23959  23965M 23990  23992M 24062
 CP         4096 00000000 FFFFFFEC     J    6193  1168U  7918   7957   7996   8112   8147   8198   8233   8284   8393
                                                  8433   8468   8519   8578   8618   8653   8704   8768   8778   8862
                                                  8994  10237  10247
 CP#OOPS       1 00000007 FFFFFFEC A   U    3936 21801
 CP#XSTK       1 00000010 FFFFFFEC A   U    3925  3926
 CPACDEL       4 000005CC FFFFFFEC     F    4022 20924M 20950M 21162
 CPACFLG       1 000005D5 FFFFFFEC     R    4028  4032   4037   4042   4047   4052
1VIEW     (VIEW2025) (13:00) (15MAR04) Ordinary Symbol and Literal Cross Reference                                          Page  148
 CPACFLN       4 000005C4 FFFFFFEC     F    4020  4055   4055  20922M 20949M 21203M
 CPACFPG       8 000005D5 FFFFFFEC         4052 19346  20876M 27940
 CPACINFO     18 000005C4 FFFFFFEC     X    4055 19391M 19391  20870M 20870  21116M 21116  28721M 28721
 CPACNLN       4 000005C8 FFFFFFEC     F    4021 19331  20923M 20952M 20976  21161  21198  21209M 28698M
 CPACTNO       4 0000057C FFFFFFEC     F    3964  8994  21815  22011  22243  22359  22442  22595  23070  23585  23651
                                                 24059  24349  24362  24418  29124  29302
 CPAFLAG       1 000005C3 FFFFFFEC     R    3992  3996   4001   4006   4011
 CPAFLNO       4 000005A0 FFFFFFEC     F    3980 19903  19905  20049  20051  20137
 CPALLNO       4 000005A4 FFFFFFEC     F    3981 19909  19911  20055  20057  20234
 CPANAME       8 00000588 FFFFFFEC     C    3974  4070   4070
 CPATYPE       8 00000590 FFFFFFEC     C    3975 29123  29173  29178  29301  29351  29356
 CPAUTFLG      1 000008A9 FFFFFFEC     R    4338  4342   4347   4352   4357
 CPBLKACT      4 00000748 FFFFFFEC     F    4084  8112  22011  22027M 22027  22047M 22047  22087M 22087  22152M 22152
                                                 22243M 22359  22375M 22375  22395M 22395  22435M 22435  22442M 22505M
                                                 22505  22595M 22815M 22815  23070  23585  23651M 23907  24059M 24312M
                                                 24312  24362  24368  24418  24945M 24945  25043M 25043  25226M 25226
                                                 25643  35459M 35459  35486  35849M 35849  35945M 35945
 CPCHFLAG      1 00000B68 FFFFFFEC     R    4965  4969
 CPCMD       235 00000242 FFFFFFEC     C    2818 16203  16519M 19504M 19517  19540  27181M 27627M 27664  27711  27743M
                                                 27765
 CPCMDLEN      2 00000240 FFFFFFEC     H    2817 16207  16518M 16610M 16610  19503M 19521  19544  27182M 27626M 27769
 CPCMNM        3 00000D24 FFFFFFEC     C    5291 19505M 22126  22476  22704M 22853  22951  23219  23640  23731  24048
                                                 27737  27969  28028  28896  31737
 CPDELTA       4 00000738 FFFFFFEC     F    4077 20924
 CPDFLG        1 0000084C FFFFFFEC     R    4225  4229   4234   4239   4244   4249
 CPDFLG2       1 0000084D FFFFFFEC     R    4254  4258   4263   4268   4273   4278   4283
 CPDOUB        8 00000C88 FFFFFFEC     D    5211 10616  10652  10867
 CPEXFLG       1 00000758 FFFFFFEC     R    4094  4098
 CPEXFLG2      1 00000759 FFFFFFEC     R    4104  4113   4123
 CPEXFLG3      1 0000075A FFFFFFEC     R    4130  4134   4139
 CPEXTFLG      1 00000E28 FFFFFFEC     R    5776  5780   5785   5790   5795   5800   5805
 CPFABORT    128 00000D5A FFFFFFEC         5542  2143M  2143   2148M  2148
 CPFALL        1 00000010 FFFFFFEC A   U    5308 12686
 CPFBKCOL      2 00000754 FFFFFFEC     H    4087  8198  22138M 22579  22589M 23002  23141  23338  23615  23617M 23674M
                                                 24061M 24485  24549  24576  24625  24739  24776  24782  35561  35588
 CPFBKLNO      4 0000074C FFFFFFEC     F    4085  8147  22094M 22526  22565  22588M 23003  23090  23126  23301  23347
                                                 23551  23567  23652M 23914  23968  24060M 24437  24470  24542  24575
                                                 24604  24610  24726  35521
 CPFCLEAR     16 00000D55 FFFFFFEC         5422 12526  12526  12527  12604  12604  12605
 CPFCOL        2 00000C4E FFFFFFEC     H    5007 31237
 CPFERROR     64 00000D5A FFFFFFEC         5547  2142M  2142   2147M  2147
 CPFKEEP       8 00000D55 FFFFFFEC         5427 12526  12526  12604  12604
 CPFNTEX       1 00000040 FFFFFFEC A   U    5394  5395
 CPFRDRNG      1 00000D88 FFFFFFEC     R    5662  5666   5671   5676   5681   5686   5691   5696
 CPFRDSRC      1 00000D89 FFFFFFEC     R    5701  5710   5720   5730
 CPFSTRRG     64 00000D88 FFFFFFEC         5671 12735
 CPFTYPED     16 00000477 FFFFFFEC         3599 27756M
 CPFUNUM       1 00000080 FFFFFFEC A   U    5393  5395
 CPFXDFLG      1 000007E4 FFFFFFEC     R    4172  4176   4181
 CPGFLG1       1 00000474 FFFFFFEC     R    3535  3539   3544   3549   3554   3559   3889   3889
 CPGFLG10      1 0000047D FFFFFFEC     R    3772  3776   3781   3786   3791   3796   3801
 CPGFLG11      1 0000047E FFFFFFEC     R    3807  3811   3816
 CPGFLG12      1 0000047F FFFFFFEC     R    3822  3826   3831   3836
 CPGFLG13      1 00000480 FFFFFFEC     R    3842  3846
 CPGFLG14      1 00000481 FFFFFFEC     R    3852  3856   3861   3866   3871   3876
 CPGFLG4       1 00000477 FFFFFFEC     R    3588  3599   3608   3617   3626   3635
 CPGFLG5       1 00000478 FFFFFFEC     R    3641  3645   3650   3655   3660   3665   3670   3675   3680
 CPGFLG6       1 00000479 FFFFFFEC     R    3686  3690   3695   3700
 CPGFLG7       1 0000047A FFFFFFEC     R    3706  3710   3715   3720   3725
1VIEW     (VIEW2025) (13:00) (15MAR04) Ordinary Symbol and Literal Cross Reference                                          Page  149
 CPGFLG8       1 0000047B FFFFFFEC     R    3731  3735   3740   3745   3750
 CPGFLG9       1 0000047C FFFFFFEC     R    3756  3760   3766
 CPINIT        1 00000174 FFFFFFEC     U    2705  6162
 CPJESFLG      1 000009E1 FFFFFFEC     R    4437  4441   4446   4451   4456   4461   4466   4471   4476
 CPJESFLY      1 000009FD FFFFFFEC     R    4487  4491   4496   4501
 CPJESHFL      1 000009E0 FFFFFFEC     R    4422  4426   4431   4510   4510
 CPLBKCOL      2 00000756 FFFFFFEC     H    4088  8284  22207M 22207  22221  22237M 22237  22491M 23015M 23015  23050M
                                                 23178  23365  23606  23619  23621M 23678M 24069M 24069  24390M 24390
                                                 24397M 24522  24529  24620  24622  24624  24826  25412M 25412  25457
                                                 35665M 35665  35692
 CPLBKLNO      4 00000750 FFFFFFEC     F    4086  8233  22173  22192  22230M 22444M 23021  23104  23163  23301  23653M
                                                 23915  24062M 24451  24507  24542  24604  24801  24809  24855  25330
                                                 25375  25393  35627
 CPLCNO        4 0000073C FFFFFFEC     F    4079 15740  20260M 20290  20403M 20448  20537M 20550  20791  20878M 20895
                                                 20943  21174  21181M 21401  21440  23824M 23868  23873  23891  24713
                                                 24785  24917  25362
 CPLFLG1       1 00000D50 FFFFFFEC     R    5305 12688M
 CPLFLG10      1 00000D59 FFFFFFEC     R    5528  5532
 CPLFLG11      1 00000D5A FFFFFFEC     R    5538  5542   5547   5552   5557
 CPLFLG12      1 00000D5B FFFFFFEC     R    5563  5567
 CPLFLG14      1 00000D5C FFFFFFEC     R    5573  5577   5582   5587   5592   5597
 CPLFLG6       1 00000D55 FFFFFFEC     R    5403  5407   5412   5417   5422   5427   5432
 CPLFLG7       1 00000D56 FFFFFFEC     R    5438  5442   5447   5452   5457   5462
 CPLFLG8       1 00000D57 FFFFFFEC     R    5468  5472   5477   5482   5487
 CPLFLG9       1 00000D58 FFFFFFEC     R    5493  5497   5502   5507   5512   5517   5522
 CPLINTP       4 00000B60 FFFFFFEC     A    4957 10237  33215
 CPLOCALZ      1 00000C48 FFFFFFEC     U    4995  6156   6156
 CPMFLG        1 0000084F FFFFFFEC     R    4292  4296
 CPMODFLG      1 00000C78 FFFFFFEC     R    5023  5027   5032   5037   5042   5047
 CPNAMELN      1 00000010 FFFFFFEC A   U    3918  4165
 CPNEDPFX     10 00000E29 FFFFFFEC     X    5809  5810   5811
 CPNSCANP      4 0000008C FFFFFFEC     A    2578  6868   6875   6891   6972   6979   6995   7727   7734   7749  12459
                                                 12466  12482  12622  12695  12702  12718  13922  13929  13945  16328
                                                 16337  16344  16360  19523  34379  34399  34408  34415  34431  34511
                                                 34800  34807  34814  34830  34973
 CPNUMFLG      1 00000C79 FFFFFFEC     R    5053  5065
 CPORVCMD      1 00000140 FFFFFFEC     R    2587  2591   2596   2601   2606   2611   2616   2621   2626   2631   2631
                                                  2682   2682
 CPORVFLG      1 00000149 FFFFFFEC     R    2638  2642   2647   2652   2657   2662   2667   2672   2677
 CPORVWF       1 00000150 FFFFFFEC     R    2690  2694
 CPOSCANX      4 00000CA8 FFFFFFEC     F    5222  5289   5289
 CPR          11 0000000B 00000001 A   #    1086  1168U
 CPRACBAD     16 000001FC FFFFFFEC         2756  2790   2790   2791   2791
 CPRACF1       1 000001FC FFFFFFEC     R    2737  2741   2746   2751   2756   2761   2766   2771   2776   2792
 CPRACPSW     32 000001FC FFFFFFEC         2751  2789   2789   2791   2791
 CPRACUND     64 000001FC FFFFFFEC         2746  2789   2789   2790   2790
 CPRCVCUR      4 00000730 FFFFFFEC     A    4073  4075   4075
 CPRFLG        1 000008AA FFFFFFEC     R    4363  4367   4372   4377   4382   4387   4392
 CPRG16       32 00000524 FFFFFFEC     X    3912 21802  21832
 CPS         254 00000344 FFFFFFEC     X    3507  3510   3511   3513   3513
 CPSACCT       5 000003B4 FFFFFFEC     C    3106  3269   3269  11232
 CPSALTHEI
               2 00000432 FFFFFFEC     H    3494 30684M 30684  32798M 32798  32879  32929
 CPSALTWID
               2 00000430 FFFFFFEC     H    3493 32878
 CPSAMCOD      1 00000A22 FFFFFFEC     R    4559  4567   4577   4587   4596   4605   4614   4624   4633   4642
 CPSAMFLG      1 00000A21 FFFFFFEC     R    4519  4523   4528   4533   4538   4543   4548   4553   4664   4664
 CPSCNFLG      1 00000CD0 FFFFFFEC     R    5235  5246   5255   5266
 CPSCNF2       1 00000CD1 FFFFFFEC     R    5271  5275
1VIEW     (VIEW2025) (13:00) (15MAR04) Ordinary Symbol and Literal Cross Reference                                          Page  150
 CPSCNMAX      1 00000014 FFFFFFEC A   U    5287  5288
 CPSCRI        2 00000434 FFFFFFEC     H    3496  3501   3501
 CPSEG        60 00000050 FFFFFFEC     X    2576  7021   7058   7095   7118   7139   7170   7204   7226   7261   7283
                                                  7318   7340   7375   7397   7432   7471   7510   7549   7909   7930
                                                  7948   7969   7987   8008   8026   8051   8076   8102   8124   8142
                                                  8171   8189   8210   8228   8257   8275   8296   8314   8339   8364
                                                  8383   8405   8423   8445   8463   8492   8510   8531   8549   8568
                                                  8590   8608   8630   8648   8677   8695   8716   8734   8759   8811
                                                  8832   8850   8882   8911   8942   8960   8982   9014   9043   9074
                                                  9092   9121   9139   9168   9193   9224   9242   9271   9289   9318
                                                  9343   9374   9392   9413   9431   9452   9470   9491   9516   9547
                                                  9565   9586   9611   9642   9660   9681   9699   9720   9745   9776
                                                  9794   9815   9845   9863   9884   9914   9967   9994  10050  10085
                                                 10123  10156  10181  10212  10230  10286  10310  10486  10517  10535
                                                 10565  10595  10631  10667  10693  11824  11882  11907  11969  11987
                                                 12011  12041  12071  12089  12119  12196  12215  12236  12254  12279
                                                 12324
 CPSEGCOD      1 00000050 FFFFFFEC     R    2493  2502   2512   2522   2532   2542   2552   2562
 CPSFALTDIM
              32 000003EA FFFFFFEC         3295 32833M 32872
 CPSFL         1 00000384 FFFFFFEC     R    2844  2848   2853   2858   2863   2868
 CPSFLG        1 000003F8 FFFFFFEC     R    3384  3388   3393   3398   3403   3408   3413   3418   3423
 CPSFLG2       1 000003F9 FFFFFFEC     R    3429  3433   3438   3443
 CPSFL2        1 00000385 FFFFFFEC     R    2874  2878   2883   2888   2893
 CPSFL3        1 00000386 FFFFFFEC     R    2899  2903   2908   2913
 CPSFL4        1 00000387 FFFFFFEC     R    2919  2923   2928   2933
 CPSFL5        1 00000388 FFFFFFEC     R    2939  2943   2948   2953
 CPSFSPR      32 000003BE FFFFFFEC         3209 11767
 CPSHEI        2 0000041C FFFFFFEC     H    3484 32861  32929
 CPSKAFL       1 000003BF FFFFFFEC     R    3240  3244   3249   3254   3259   3264
 CPSKIFL       1 000003BE FFFFFFEC     R    3195  3199   3204   3209   3214   3219   3224   3229   3234
 CPSOF         1 000001F8 FFFFFFEC     X    2727  2729   2729
 CPSOFLAG      1 00000416 FFFFFFEC     R    3454  3458   3463   3468   3473   3478
 CPSOPST       4 000003C4 FFFFFFEC     F    3274  3503   3503
 CPSPORT       8 00000354 FFFFFFEC     C    2838  2958   2958
 CPSQFLG       1 000003EC FFFFFFEC     R    3303  3307
 CPSSFLG       1 000003BB FFFFFFEC     R    3113  3117   3122   3127   3132   3137   3142
 CPSSTART      4 00000344 FFFFFFEC     F    2830  2834   2834   3270   3270   3375   3375   3507   3507
 CPSSTAT       1 0000038F FFFFFFEC     R    3050  3054   3059   3064   3069   3074   3079   3084
 CPSTACF       1 000003BC FFFFFFEC     R    3148  3152   3157   3162   3167   3172   3177   3182   3187
 CPSTART       4 00000000 FFFFFFEC     C    2466  6160   6164
 CPSTFLAG      1 000003EA FFFFFFEC     R    3281  3285   3290   3295
 CPSTYPE       1 0000038C FFFFFFEC     R    2963  2972   2982   2992   3002   3012   3022   3032   3042
 CPSUFLG       1 000003EE FFFFFFEC     R    3318  3322   3327   3332   3337   3342   3347   3352   3357
 CPSUFLG2      1 000003EF FFFFFFEC     R    3363  3367   3372
 CPSVPGM       8 0000039C FFFFFFEC     C    3096  3102   3102
 CPSWID        2 00000418 FFFFFFEC     H    3482 32860
 CPS1ST        4 0000038C FFFFFFEC     F    2960  3505   3505
 CPTEMPP#      1 0000005F FFFFFFEC A   U    4413  4415
 CPTRMFL1      1 00000C7A FFFFFFEC     R    5071  5075   5080   5085   5209   5209
 CPTRMFL2      1 00000C7B FFFFFFEC     R    5091  5095   5100   5105   5110   5115   5120
 CPTRMFL3      1 00000C7C FFFFFFEC     R    5126  5130   5135   5140   5145   5150   5155   5160
 CPTRMFL4      1 00000C7D FFFFFFEC     R    5166  5170   5175   5180   5185   5190   5195   5200
 CPTTYPEP      4 00000468 FFFFFFEC     A    3526 32989
 CPUSED        1 00000FBC FFFFFFEC A   U    6160  6161
 CPVACOL       2 00000AE8 FFFFFFEC     H    4936  8704  27166M 34009M 34009  34113M 34113
 CPVACURC      4 00000AF4 FFFFFFEC     F    4940  8618
 CPVACURR      4 00000AF0 FFFFFFEC     F    4939  8578
 CPVACURS      8 00000AF0 FFFFFFEC     D    4938  4939   4940  27167M 33995M 33995  34099M 34099
1VIEW     (VIEW2025) (13:00) (15MAR04) Ordinary Symbol and Literal Cross Reference                                          Page  151
 CPVALNO       4 00000AEC FFFFFFEC     F    4937  8653  27165M 33997M 34101M
 CPVCMDR       2 00000B4C FFFFFFEC     H    4945 27177
 CPVCOL        2 00000ADA FFFFFFEC     H    4930  8519  20144M 20144  20313M 20313  20705  20764  20798M 20798  20812
                                                 20983M 20983  21224M 21224  22095  22445  23141  23178  23320  23399
                                                 23401  23426  23606  23654  23780  24019M 24019  24485  24522  24528
                                                 24556M 24576M 26074  26678  26909  27166  27176M 27176  27296  27331M
                                                 27980  27981M 28294  28303  28523  28525M 29036M 34004M 34004  34108M
                                                 34108
 CPVCURC       4 00000AE4 FFFFFFEC     F    4934  8433  27179M 30840  31038  31857  32176  32381
 CPVCURR       4 00000AE0 FFFFFFEC     F    4933  8393  16129  27041  27146  27178M 29480  29669  30775  30973  31328
                                                 32320
 CPVCURS       8 00000AE0 FFFFFFEC     D    4932  4933   4934  27167  33990M 33990  34094M 34094
 CPVFBELL     32 00000ACE FFFFFFEC         4916 19378M 20684M 20733M 20850M 20916M 21085M 21138M 21344M 21566M 21594M
                                                 21790M 21873M 21990M 22338M 22896M 22993M 23280M 23862M 23950M 24340M
                                                 25071M 25115M 26006M 26068M 26610M 26672M 26769M 26902M 26931M 27034M
                                                 27289M 27321M 27430M 27533M 27924M 28872M 28937M 29145M 29323M 29520M
                                                 29628M 29692M 29793M 29993M 30814M 31012M 31369M 31533M 32358M 32615M
                                                 33128M 33396M 33670M 33980M
 CPVFBRK      64 00000ACE FFFFFFEC         4911 19434  19434
 CPVFBUG      16 00000ACA FFFFFFEC         4817  7490  15601M 15668M
 CPVFCH       16 00000AC8 FFFFFFEC         4752 20997M 21256M 21473M 21606M 24178M 24957M 26944M 27339M 27474M 28737M
 CPVFCLR     128 00000AC9 FFFFFFEC         4767 12552M 12776M 25786M 34086M
 CPVFESC      32 00000ACB FFFFFFEC         4847 27195M
 CPVFEXIT    128 00000ACE FFFFFFEC         4906 19218M 19434  19434  19435M
 CPVFFMT      32 00000AC9 FFFFFFEC         4777 30585M 31262M 31635M 31774M 31937M 32086M 32254M 32702M
 CPVFFORMAT
               4 00000ACA FFFFFFEC         4827  7529  12681M 14595M 14662M
 CPVFHIDE      8 00000AC8 FFFFFFEC         4757 22042M 22070  22082M 22390M 22418  22430M 22802  24299  25087  25128M
                                                 25213  25237M 35446  35836  35860M 35957  35969M
 CPVFINS       1 00000ACC FFFFFFEC         4894  7298  13697M 13764M
 CPVFLAG       1 00000AC8 FFFFFFEC     R    4733  4737   4742   4747   4752   4757
 CPVFLAG2      1 00000AC9 FFFFFFEC     R    4763  4767   4772   4777   4782   4787   4792
 CPVFLAG3      1 00000ACA FFFFFFEC     R    4798  4802   4807   4812   4817   4822   4827
 CPVFLAG4      1 00000ACB FFFFFFEC     R    4833  4837   4842   4847
 CPVFMARK      8 00000AC9 FFFFFFEC         4787 22053M 22250M 22401M 22602M 24951M 25134M 25241M 35864M 35975M
 CPVFPAGE    128 00000AC8 FFFFFFEC         4737 12548M 12761  15738M
 CPVFPREP     64 00000ACB FFFFFFEC         4842  7412  15062M 15135M
 CPVFREWR     64 00000AC9 FFFFFFEC         4772 12746M 14923M 14996M 15068M 15141M
 CPVFSPEL      8 00000ACA FFFFFFEC         4822  7355  14917M 14990M
 CPVFTRC      32 00000ACA FFFFFFEC         4812  7451  11105  15377M 15444M
 CPVFUNN      64 00000ACA FFFFFFEC         4807  7184  14410  14422M 14504  14517M
 CPVFVTAM    128 00000ACB FFFFFFEC         4837 13587  21716  30668  32782  32894  33798
 CPVFWRAP    128 00000ACA FFFFFFEC         4802  7241  14732  14744M 14826  14839M
 CPVHEI        2 00000AD4 FFFFFFEC     H    4924  7918  10247  13462  13494M 15208M 15208  15293M 15293  32909M 33229
 CPVIND        2 00000B50 FFFFFFEC     H    4948  7038   7083  13969  13976M 14315M 14315  14328M 14328
 CPVLFLAG      1 00000ACE FFFFFFEC     R    4902  4906   4911   4916
 CPVLNO        4 00000ADC FFFFFFEC     F    4931  8468  16485  19284  19407  19842  19899  19988  20045  20137M 20306M
                                                 20664  20711  20770  20791M 20810  20976M 20985  21065  21217M 21244
                                                 21324  21545  21736  21816  21884  21970  22318  22443  22912  23076
                                                 23389  23545  23567  23652  23653  23684  23746  23779  23903M 24006
                                                 24012M 24060  24405  24575M 25952  26556  26883  27015  27165  27169M
                                                 27276  27299  27330M 27417  27452  27617  27912  28006  28313  28517
                                                 28550  28691  28698  29029  29035M 33996M 34100M
 CPVMARG       2 00000B52 FFFFFFEC     H    4949  7127  13836  13843M
 CPVMODE       1 00000ACC FFFFFFEC     R    4855  4859   4864   4869   4874   4879   4884   4889   4894
 CPVMSG       80 00000AFC FFFFFFEC     C    4943 15758M 15759M 16004  16547M 16575M 33981M 33982M 34079M 34080M
 CPVTWID       2 00000AD0 FFFFFFEC     H    4922  4925   4925   7996  15218M 15218  15303M 15303  31213  32908M
 CPVWCNT       2 00000AD8 FFFFFFEC     H    4928  8778  28861  28926  28958  29509  29948  30032  30213  30435M 30517
                                                 30565  30567M
1VIEW     (VIEW2025) (13:00) (15MAR04) Ordinary Symbol and Literal Cross Reference                                          Page  152
 CPVWCUR       2 00000AD6 FFFFFFEC     H    4927  8862  20236  20379  20518  23686  24117  27630  27987  29000M 30000
                                                 30032  30201  30434M 30518  31155  31703  31840  32003  32152  33276
 CPVWID        2 00000AD2 FFFFFFEC     H    4923  7957  13612  13619M 15213M 15213  15298M 15298  31040  32907M 33050
                                                 33074  33106M
 CPWINDP       4 00000B58 FFFFFFEC     A    4954  8768
 CPWK1         4 00000D60 FFFFFFEC     F    5606  5621   5644
 CPWK2         4 00000D64 FFFFFFEC     F    5607  5622   5636
 CPWK3         4 00000D68 FFFFFFEC     F    5608  5623   5637
 CPWK4         4 00000D6C FFFFFFEC     F    5609  5624   5638
 CPWK5         4 00000D70 FFFFFFEC     F    5610  5626   5631   5639
 CPWK6         4 00000D74 FFFFFFEC     F    5611  5627   5632   5640   5647   5649
 CPWK7         4 00000D78 FFFFFFEC     F    5612  5625   5641
 CPXFLAG       1 000007FD FFFFFFEC     R    4200  4204
 CPXLINT       4 00000B64 FFFFFFEC     A    4958 16143  27043  27148  29482  30061  30221  30301  30354  30458  30778
                                                 30976  31330  32322
 CPXSTATE      4 000007F8 FFFFFFEC     F    4194  4207   4207
 CPXWIND       4 00000B5C FFFFFFEC     A    4955 20238  20381  20520  23688  24119  27632  27989  29002  29579  30002
                                                 30822  31020  31157  31578  31705  31842  32005  32154  32366
 CV         4016 00000000 FFFFFFEE     J    2369  1177U
 CVABORT       4 000007DA FFFFFFEE     I    2148 15780B
 CVABSENT      4 000007F0 FFFFFFEE     I    2158 33566B
 CVABSRTN      4 0000088C FFFFFFEE     V    2183  2158
 CVBLANKS    235 000004D8 FFFFFFEE     C    1963  7155   8927   9059   9209   9359   9532   9627   9761   9830   9899
                                                 10580  12026  15758  16547  28468  33981  34079
 CVBRMSK       1 00000751 FFFFFFEE     X    2099  2100   2101
 CVCFLAG       1 00000A00 FFFFFFEE     R    2264  2268   2273   2278   2283   2288
 CVCHKST       8 000009F0 FFFFFFEE     D    2254  2344   2344
 CVCHKST2      8 00000E28 FFFFFFEE     D    2347  2350   2350
 CVCOMRTN      4 0000087C FFFFFFEE     V    2179  2149
 CVCURJCB      4 000001C8 FFFFFFEE     A    1448  7721  11207  12554
 CVDBGFLG      1 000004CC FFFFFFEE     R    1953  1957
 CVENT         4 0000074C FFFFFFEE     I    2097  6845B  6949B  7691B 10763B 11072B 11363B 11737B 12428B 12909B 12972B
                                                 13430B 13557B 13671B 13737B 13804B 13895B 14089B 14153B 14217B 14284B
                                                 14380B 14474B 14569B 14635B 14702B 14796B 14891B 14963B 15036B 15108B
                                                 15181B 15266B 15351B 15417B 15484B 15575B 15641B 15712B 16042B 19192B
                                                 19263B 19482B 19600B 19710B 19819B 19965B 20111B 20213B 20358B 20497B
                                                 20643B 21044B 21303B 21524B 21674B 21949B 22297B 22683B 22751B 24255B
                                                 25012B 25181B 25297B 25619B 25760B 25831B 25921B 26535B 26860B 26992B
                                                 27125B 27246B 27387B 27587B 27865B 28828B 29102B 29280B 29458B 29912B
                                                 30638B 30754B 30952B 31134B 31307B 31682B 31819B 31982B 32131B 32299B
                                                 32749B 33193B 33370B 33545B 33611B 33762B 33954B 34058B 34303B 34664B
                                                 34764B 35071B 35150B 35229B 35329B 35398B 35804B 35912B
 CVENTBR       2 00000750 FFFFFFEE     I    2098  2099
 CVERRMSG      4 000007C8 FFFFFFEE     I    2142  7834B  7888B 14244B
 CVERROR       4 000007D6 FFFFFFEE     I    2147  2163B
 CVEXIRTN      4 0000077C FFFFFFEE     V    2127  2123
 CVEXNO        1 00000000 00000050     T   36023 36023
 CVFCHRKBPR
               8 000004C9 FFFFFFEE         1868  1884   1884
 CVFCHRKBSE
               4 000004C9 FFFFFFEE         1873  1884   1884
 CVFCHRKCPR
               2 000004C9 FFFFFFEE         1890  1906   1906
 CVFCHRKCSE
               1 000004C9 FFFFFFEE         1895  1906   1906
 CVFCHRUBPR
             128 000004C9 FFFFFFEE         1824  1840   1840
 CVFCHRUBSE
              64 000004C9 FFFFFFEE         1829  1840   1840
1VIEW     (VIEW2025) (13:00) (15MAR04) Ordinary Symbol and Literal Cross Reference                                          Page  153
 CVFCHRUCPR
              32 000004C9 FFFFFFEE         1846  1862   1862
 CVFCHRUCSE
              16 000004C9 FFFFFFEE         1851  1862   1862
 CVFJCB        4 000001C0 FFFFFFEE     A    1446  7810
 CVFL          1 000004C4 FFFFFFEE     R    1620  1624   1629   1634   1639   1644   1649   1654   1659
 CVFL2         1 000004C5 FFFFFFEE     R    1665  1669   1674   1679   1684   1689   1694   1699   1704
 CVFL3         1 000004C6 FFFFFFEE     R    1710  1714   1719   1724   1729   1734   1739   1744   1749
 CVFL4         1 000004C7 FFFFFFEE     R    1755  1759   1764   1769   1774   1779   1784   1789
 CVFL5         1 000004C8 FFFFFFEE     R    1795  1799   1804   1809   1814
 CVFL6         1 000004C9 FFFFFFEE     R    1820  1824   1829   1841   1846   1851   1863   1868   1873   1885   1890
                                                  1895   1907
 CVHEAP#       1 00000200 FFFFFFEE A   U    1526  1527
 CVINVRTN      4 00000888 FFFFFFEE     V    2182  2152
 CVJESFLG      1 000004CA FFFFFFEE     R    1913  1917
 CVLJCB        4 000001C4 FFFFFFEE     A    1447  7822
 CVLNKRGS      4 00000780 FFFFFFEE     F    2129  2104M  2130  11411M 11515M 11602M 11658M
 CVLNKRTN      4 000007B0 FFFFFFEE     U    2130  2119M
 CVLOCK1       1 00000088 FFFFFFEE     R    1271  1275   1280
 CVLOCK2       1 00000089 FFFFFFEE     R    1285  1289
 CVLOCK3       1 0000008A FFFFFFEE     R    1294  1298
 CVLOCK4       1 0000008B FFFFFFEE     R    1303  1307
 CVLOGMOD      1 00000068 FFFFFFEE     R    1258  1262
 CVMACH        1 00000067 FFFFFFEE     R    1218  1222   1227   1232   1237   1242   1247   1252
 CVMILRTN      4 00000884 FFFFFFEE     V    2181  2161
 CVNEXT        4 000007DE FFFFFFEE     I    2149  6903B 10714B 12340B 12588B 19553B 27774B
 CVNOARTN      4 00000890 FFFFFFEE     V    2184  2155
 CVNWDATE      4 00000608 FFFFFFEE     F    1986  1990   1990
 CVNWMPG#      1 00000008 FFFFFFEE A   U    1988  1989
 CVNXTMSG      4 000007D0 FFFFFFEE     I    2144  7563B 11805B 11936B
 CVONE         4 000004D0 FFFFFFEE     F    1961 20771  21094  21402  23045  24794  25436  28312
 CVPFXRTN      1 00000000 00000000 A   T    2127  2127
 CVPGFLAG      1 00000A01 FFFFFFEE     R    2294  2298   2303   2308
 CVPIOSZ       1 00004F80 FFFFFFEE A   U    1357  1359
 CVPPDBQH      4 0000009C FFFFFFEE     A    1315  1316
 CVPSFNO       1 000003E9 FFFFFFEE A   N    1479  1481
 CVPSLNO       1 000007CF FFFFFFEE A   N    1480  1481
 CVPXSZ        1 00000008 FFFFFFEE A   U    1358  1359
 CVR          12 0000000C 00000001 A   #    1099  1177U
 CVRKEY        1 00000008 FFFFFFEE A   U    2052  2053
 CVSEGRTN      4 00000880 FFFFFFEE     V    2180  2144
 CVSTACK#      1 00000080 FFFFFFEE A   U    1518  1519
 CVSTART       4 00000000 FFFFFFEE     C    1191  2362
 CVTRC         4 00000768 FFFFFFEE     I    2119  2105B 11412B 11516B 11603B 11659B
 CVTRCRTN      4 00000778 FFFFFFEE     V    2126  2120
 CVUSFNO       1 00000001 FFFFFFEE A   N    1486  1488
 CVUSLNO       1 000003E7 FFFFFFEE A   N    1487  1488
 CVVNTRC       2 000002A8 FFFFFFEE     H    1546 11264  11265M 11282  11680  11682M
 CVVOL#        1 00000005 FFFFFFEE A   U    2337  2338
 CVVTRC#       1 00000014 FFFFFFEE A   U    1544 12388
 CVVTRCP       4 000002A4 FFFFFFEE     A    1545 11143  11258M 11394  11551M 11692  11795M 11795  11832  15516
 CVWTOFLG      1 000004CB FFFFFFEE     R    1923  1927   1932   1937   1942   1947
 DEBUGSG       1 00000000 00000000 A   T    2080  2080
 DELDONE       4 00004ED6 00000001     I   24933 24718B
 DELETE        2 00004CE8 00000001     H   24239 18354  18685  19137  25702
 DELL          2 00004580 00000001     H   21510 18189  19107
 DELLEXIT      2 000045C4 00000001     H   21608 21567B 21595B
 DELNULL       4 00004D14 00000001     I   24321 24616B
 DELOLDAN      4 00000000 FFFFFFE1     F   24224 24349M 24373M 24933
1VIEW     (VIEW2025) (13:00) (15MAR04) Ordinary Symbol and Literal Cross Reference                                          Page  154
 DELRANGE      1 00000000 0000002E     T   20593 20593  25687
 DELRESET      4 00004EEE 00000001     I   24961 24341B
 DELWA         4 00000000 FFFFFFE1     J   24231 24252  24281U 24983  24985  24986
 DESNRTN       1 00000000 FFFFFFEC A   U    6170 15834
 DEV          12 00000000 FFFFFFEB     J    4718  4726
 DEVMAX#       1 00000002 FFFFFFEC A   U    4669  4726
 DEVTYPE       1 00000001 FFFFFFEB     R    4686  4695   4705
 DOTTBL        1 00000000 00000000 A   T    2196  2196
 DOWN          2 00003F7E 00000001     H   19696 16774  17165  18204  18535
 DRENCFLG      1 00000F9F FFFFFFEC     R    6124  6128   6133   6138   6143   6148
 DRENPROT      1 00000F9E FFFFFFEC     R    6111  6119
 DSNON        40 00000E90 FFFFFFEC     C    5844  5845
 DSNWADSN     44 00000E5C FFFFFFEC     C    5831  5832   5833   5834   5843   5851   6082   6088   6090   6096   6099
                                                  6101   6104   6153
 DSNWAF4       1 00000F37 FFFFFFEC     R    5899  5903   5908   5913   5918   5923   5928   5933   5938
 DSNWAF5       1 00000F38 FFFFFFEC     R    5944  5948   5953   5958   5963   5968   5973   5978   5983
 DSNWAF6       1 00000F39 FFFFFFEC     R    5989  5993   5998   6003   6008   6013   6018   6023   6028
 DSNWAF7       1 00000F3A FFFFFFEC     R    6034  6038   6043   6048   6053
 DSNXG         1 00000004 FFFFFFEC A   U    5836  5838
 DSNXGL        1 00000003 FFFFFFEC A   U    5837  5838
 DSNXU         1 00000007 FFFFFFEC A   U    5838  5840
 DSNXUL        1 00000004 FFFFFFEC A   U    5839  5840
 DSSIZ         1 00000108 FFFFFFEC A   U    6082  6090   6099   6104
 DTB           1 00000000 0000000A     T   10920 10920
 EBCTBL        1 00000000 00000000 A   T    2192  2192
 EBCTBL7       1 00000000 00000000 A   T    2195  2195
 ECBLIST       1 00000000 00000000 A   T    2055  2055
 EDTCOM        1 00000000 00000047     T   28788 28788
 END           2 00004120 00000001     H   20199 17180  18459  18550
 ENDLNO        1 00000000 0000003A     T   25686 25686
 EPARTBL       1 00000000 00000000 A   T    2187  2187
 ESCAPE        2 0000585C 00000001     H   27111 18264
 ESCFMT        1 00000000 00000014     T   12386 12386
 FBKEXIT       2 00004770 00000001     H   22252 21991B
 FBKSET        4 0000475C 00000001     I   22230 22155B
 FBLOCK        2 000046AA 00000001     H   21935 18294  18700  18730
 FIRST         2 000040D4 00000001     H   20097 17195  18444  18565
 FMTTIME       1 00000000 00000013     T   12381 12381
 FREECORE      1 00000000 00000012     T   12378 12378
 FREEVTRC      2 00000FD8 00000001     H   11349 11345  12375  15845
 FSR           0 00000000 00000001 A   #    1009  6840   6919M  6944   7579M  7685  10734M 10758  10877M 10892M 11067
                                                 11325M 11358  11707M 11732  12355M 12423  12806M 12904  12945M 12967
                                                 12999M 13014M 13425  13532M 13552  13646M 13666  13712M 13732  13779M
                                                 13799  13870M 13890  14003M 14084  14112M 14128M 14148  14176M 14192M
                                                 14212  14259M 14279  14355M 14375  14449M 14469  14544M 14564  14610M
                                                 14630  14677M 14697  14771M 14791  14866M 14886  14938M 14958  15011M
                                                 15031  15083M 15103  15156M 15176  15241M 15261  15326M 15346  15392M
                                                 15412  15459M 15479  15550M 15570  15616M 15636  15683M 15707  15804M
                                                 16036  16650M 19187  19234M 19258  19453M 19477  19569M 19595  19681M
                                                 19705  19790M 19814  19936M 19960  20082M 20106  20184M 20208  20329M
                                                 20353  20468M 20492  20578M 20638  21015M 21039  21274M 21298  21495M
                                                 21519  21624M 21668  21920M 21944  22268M 22292  22620M 22678  22724M
                                                 22745  24205M 24249  24983M 25007  25152M 25176  25261M 25614  25649M
                                                 25664M 25755  25802M 25826  25871M 25915  26506M 26530  26791M 26855
                                                 26963M 26987  27096M 27120  27217M 27241  27358M 27382  27558M 27582
                                                 27794M 27859  28766M 28823  29073M 29097  29251M 29275  29429M 29453
                                                 29883M 29907  30608M 30633  30725M 30749  30923M 30947  31105M 31129
                                                 31278M 31302  31653M 31677  31790M 31814  31953M 31977  32102M 32126
                                                 32270M 32294  32720M 32744  33163M 33188  33341M 33365  33446M 33540
1VIEW     (VIEW2025) (13:00) (15MAR04) Ordinary Symbol and Literal Cross Reference                                          Page  155
                                                 33582M 33606  33713M 33757  33925M 33949  34025M 34053  34129M 34297
                                                 34507M 34544M 34659  34735M 34759  34998M 35066  35125M 35145  35204M
                                                 35224  35300M 35324  35369M 35393  35775M 35799  35884M 35907  35995M
 FVTRCOM       2 0000105C 00000001     H   11538 11470B 11488B
 GBLCMD        1 00000000 00000028     T   16669 16669
 GETBLEOF      2 0000507A 00000001     H   25566 25333B 25396B
 GETBLXIT      2 00005082 00000001     H   25575 25562B
 GETCORE       1 00000000 00000010     T   12370 12370
 GETLINE       1 00000000 0000002D     T   20592 20592  25679  26807  28789
 GETLINEX      1 00000000 00000042     T   25714 25714
 GETLNO        1 00000000 00000036     T   25680 25680
 GETVINFO      1 00000000 00000020     T   15839 15839  33487
 GETWD         1 00000000 00000043     T   26808 26808
 GSERR         4 00005396 00000001     I   26032 26090B
 GSEXIT        2 000054E8 00000001     H   26485 26007B 26069B 26182B 26222B 26262B 26302B 26368B 26391B
 GSRESP      128 00000000 FFFFFFE0     X   25890 26102  26414
 GSWA        128 00000000 FFFFFFE0     J   25897 25918  25947U 26506  26508  26509
 GUESS         2 00005338 00000001     H   25905 17210
 GUESSWD       1 00000000 00000044     T   26809 26809
 HELP          1 00000000 00000030     T   20595 20595
 HELPCMD      10 00003F20 00000001     C   19576 19504  19504  20607
 HELPESC       2 00003EB4 00000001     H   19468 17225  18790
 HIBAL         1 00000000 FFFFFFFF     J     691   707    720    733    746    759    772    785    798    811    824
                                                   837    850    863    876    889    902
 INDPRT        4 00001C20 00000001     F   14012 15843
 INSERT        2 000057AE 00000001     H   26846 18820
 INSEXIT       2 000057F8 00000001     H   26947 26903B 26932B
 INVALID       1 00000000 00000000 A   T    2182  2182
 JCB         208 00000000 FFFFFFE9     J    6585  7853U 10941  11217U 12564U
 JCBAFL        1 00000062 FFFFFFE9     R    6430  6434   6439   6444   6449   6454   6459   6464   6469
 JCBBFL        1 00000063 FFFFFFE9     R    6475  6479   6484   6489   6494   6499   6504   6509
 JCBBILLX      8 00000088 FFFFFFE9     D    6560  6568   6568
 JCBCPX        4 00000014 FFFFFFE9     A    6327  7858
 JCBRSCF1      1 00000064 FFFFFFE9     R    6515  6519   6524   6529
 JCBSEQ        2 00000048 FFFFFFE9     H    6346 11223
 JCBSFLG1      1 00000065 FFFFFFE9     R    6535  6539   6544
 JCBSFV      128 00000065 FFFFFFE9         6539 12575M
 JCBWFL        1 00000060 FFFFFFE9     R    6359  6363   6368   6373   6378   6383   6388   6393   6398   6426
 JCBWWFL       1 00000061 FFFFFFE9     R    6404  6408   6413   6418   6423
 JOIN          2 0000593C 00000001     H   27373 17255  18144  18805
 JOINLINE      1 00000000 00000041     T   25710 25710  28784
 LBKEXIT       2 00004850 00000001     H   22604 22339B
 LBKSET        4 0000483C 00000001     I   22588 22508B
 LBLOCK        2 00004782 00000001     H   22283 18309  18715  18745
 LEARN         2 000054FA 00000001     H   26521 17285
 LEARNWD       1 00000000 00000045     T   26818 26818
 LEFTEXIT      2 0000633E 00000001     H   30907 30815B
 LINFCMD       4 0000000C FFFFFFE7         6745 10413
 LINFCOL       3 0000000C FFFFFFE7         6735 10392  31443M 31473  33291
 LINFFREE      0 0000000C FFFFFFE7         6705 10329
 LINFMSG       5 0000000C FFFFFFE7         6755 10434
 LINFNEW       1 0000000C FFFFFFE7         6715 10350  29605  30117  31389
 LINFPREP     64 0000000D FFFFFFE7         6780 27063M
 LINFREWR    128 0000000D FFFFFFE7         6775 27069M 30176M 30409M 31447M 33303M
 LINFSTAT      6 0000000C FFFFFFE7         6765 10455  30105  30245  30405M
 LINFTEXT      2 0000000C FFFFFFE7         6725 10371  16166  29617  30129  31401
 LINT         20 00000000 FFFFFFE7     J    6810 10262U 16153U 16677  27053U 27158U 28793  29492U 30090U 30231U 30330U
                                                 30364U 30487U 30788U 30986U 31340U 32332U 33244U 33494
 LINTFLG       1 0000000D FFFFFFE7     R    6771  6775   6780  10501  30155  30271  30388  31426  31498
1VIEW     (VIEW2025) (13:00) (15MAR04) Ordinary Symbol and Literal Cross Reference                                          Page  156
 LINTLNO       4 00000010 FFFFFFE7     F    6801 10601  30149  30265  30382  31420  31492
 LINTNEXT      1 00000014 FFFFFFE7     U    6803 10699  30178  30336  30493  33313
 LINTOFLG      1 00000008 FFFFFFE7     R    6687 10549  30155M 30271M 30388M 31426M 31498M
 LINTOLNO      4 00000004 FFFFFFE7     F    6683 10637  30149  30265  30334M 30382  30491M 31420  31492
 LINTOPT       8 0000000C FFFFFFE7     X    6802 30166M 30166  30282M 30282  30399M 30399  31437M 31437  31509M 31509
 LINTROW       2 00000000 FFFFFFE7     H    6680 10295  29734
 LINTTYPE      1 0000000C FFFFFFE7     R    6696  6705   6715   6725   6735   6745   6755   6765   6802   6802
 LINTWFLG      1 0000000E FFFFFFE7     R    6786  6790   6795
 LINTWIND      2 00000002 FFFFFFE7     H    6681 10271  29563  30802  31000  31358M 31358  31576  32346  33261M 33261
                                                 33276
 LOCALTOD      1 00000000 00000011     T   12372 12372
 LOCATRTN      1 00000000 FFFFFFEC A   U    6173 15834
 LOWTBL        1 00000000 00000000 A   T    2190  2190
 LRNERR        4 00005558 00000001     I   26636 26694B
 LRNEXIT       2 000055C6 00000001     H   26775 26611B 26673B
 LRTRIM        1 00000000 0000000F     T   10931 10931  16667
 LSR           8 00000008 00000001 A   #    1047  6840   6919M  6944   7579M  7685  10734M 10758  10892M 11067  11325M
                                                 11358  11707M 11732  12355M 12423  12806M 12904  12945M 12967  13014M
                                                 13425  13532M 13552  13646M 13666  13712M 13732  13779M 13799  13870M
                                                 13890  14003M 14084  14128M 14148  14192M 14212  14259M 14279  14355M
                                                 14375  14449M 14469  14544M 14564  14610M 14630  14677M 14697  14771M
                                                 14791  14866M 14886  14938M 14958  15011M 15031  15083M 15103  15156M
                                                 15176  15241M 15261  15326M 15346  15392M 15412  15459M 15479  15550M
                                                 15570  15616M 15636  15683M 15707  15804M 16036  16650M 19187  19234M
                                                 19258  19453M 19477  19569M 19595  19681M 19705  19790M 19814  19936M
                                                 19960  20082M 20106  20184M 20208  20329M 20353  20468M 20492  20578M
                                                 20638  21015M 21039  21274M 21298  21495M 21519  21624M 21668  21920M
                                                 21944  22268M 22292  22620M 22678  22724M 22745  24205M 24249  24983M
                                                 25007  25152M 25176  25261M 25292  25587M 25614  25664M 25755  25802M
                                                 25826  25871M 25915  26506M 26530  26791M 26855  26963M 26987  27096M
                                                 27120  27217M 27241  27358M 27382  27558M 27582  27794M 27859  28766M
                                                 28823  29073M 29097  29251M 29275  29429M 29453  29883M 29907  30608M
                                                 30633  30725M 30749  30923M 30947  31105M 31129  31278M 31302  31653M
                                                 31677  31790M 31814  31953M 31977  32102M 32126  32270M 32294  32720M
                                                 32744  33163M 33188  33341M 33365  33446M 33540  33582M 33606  33713M
                                                 33757  33925M 33949  34025M 34053  34129M 34297  34544M 34659  34735M
                                                 34759  34998M 35066  35125M 35145  35204M 35224  35300M 35324  35369M
                                                 35393  35775M 35799  35884M 35907  35995M
 MALL          1 00000000 00000004     T    7644  7644  12842  12888  14068  19167  34641  35050
 MILERR        1 00000000 00000000 A   T    2181  2181
 MINT          1 00000000 00000018     T   14053 14053
 MNULL         1 00000000 00000017     T   14023 14023  16713
 MOVE          2 00004862 00000001     H   22669 18339
 MPINT         1 00000000 00000016     T   13034 13034  13049  13094  35020  35035
 MTOKEN        1 00000000 00000002     T    7599  7599   7614  13064  13079  13109  13124  13139  13154  13169  13184
                                                 13199  13214  13229  13244  13259  13274  13289  13304  13319  13334
                                                 13349  13364  13379  13394  14038  16728  16743  16758  16773  16788
                                                 16803  16818  16833  16848  16863  16878  16893  16908  16923  16938
                                                 16953  16968  16983  16998  17013  17028  17043  17058  17073  17088
                                                 17103  17119  17134  17149  17164  17179  17194  17209  17224  17239
                                                 17254  17269  17284  17299  17314  17329  17344  17359  17374  17389
                                                 17404  17419  17434  17449  17464  17479  17494  17510  17525  17540
                                                 17555  17570  17585  17600  17615  17630  17645  17660  17675  17690
                                                 17705  17720  17735  17750  17765  17780  17795  17810  17825  17840
                                                 17855  17871  17886  17901  17916  17931  17947  17962  17977  17992
                                                 18007  18022  18037  18052  18067  18082  18098  18113  18128  18143
                                                 18158  18173  18188  18203  18218  18233  18248  18263  18278  18293
                                                 18308  18323  18338  18353  18368  18383  18398  18413  18428  18443
                                                 18458  18474  18489  18504  18519  18534  18549  18564  18579  18594
1VIEW     (VIEW2025) (13:00) (15MAR04) Ordinary Symbol and Literal Cross Reference                                          Page  157
                                                 18609  18624  18639  18654  18669  18684  18699  18714  18729  18744
                                                 18759  18774  18789  18804  18819  18834  18849  18864  18879  18894
                                                 18909  18924  18939  18955  18970  18985  19000  19015  19030  19045
                                                 19060  19075  19090  19106  19121  19136  19152  34566  34581  34596
                                                 34611  34626
 NBLTBL        1 00000000 00000000 A   T    2194  2194
 NDETRNG       1 00000000 0000001C     T   15831 15831
 NEXT          2 00004204 00000001     H   20483 17315  18174  18580
 NOACTION      1 00000000 00000000 A   T    2184  2184
 NOTVALID      1 00000000 00000005     T    7645  7645  10921  12379  12843  14069  15830
 NPARTBL       1 00000000 00000000 A   T    2188  2188
 NSCAN         1 00000000 00000006     T   10914 10914  15825  16671  36016
 NSCNCB      176 00000000 FFFFFFED     J    2453  2579   6876   6877   6878   6881M  6882M  6884M  6894M  6895M  6896M
                                                  6980   6981   6982   6985M  6986M  6988M  6998M  6999M  7000M  7735
                                                  7736   7737   7740M  7741M  7742M  7752M  7753M  7754M 12467  12468
                                                 12469  12472M 12473M 12475M 12485M 12486M 12487M 12623  12638  12653
                                                 12654  12655M 12655  12656  12657M 12670M 12703  12704  12705  12708M
                                                 12709M 12711M 12721M 12722M 12723M 13930  13931  13932  13935M 13936M
                                                 13938M 13948M 13949M 13950M 16329M 16330M 16345  16346  16347  16350M
                                                 16351M 16353M 16363M 16364M 16365M 19524M 19525M 34380  34382  34400M
                                                 34401M 34416  34417  34418  34421M 34422M 34424M 34434M 34435M 34436M
                                                 34514  34801  34803  34815  34816  34817  34820M 34821M 34823M 34833M
                                                 34834M 34835M 34976  36027
 NSCNFLGS      1 00000008 FFFFFFED     R    2390  2394   2399
 NSCNKWS       4 00000028 FFFFFFED     A    2439  6876   6884M  6894M  6980   6988M  6998M  7735   7742M  7752M 12467
                                                 12475M 12485M 12703  12711M 12721M 13930  13938M 13948M 16345  16353M
                                                 16363M 34416  34424M 34434M 34815  34823M 34833M
 NSCNLEN       4 00000004 FFFFFFED     F    2387 12656  12657M 16330M 19525M 34401M
 NSCNLOC       4 00000000 FFFFFFED     A    2386 12653  12655M 16329M 19524M 34400M
 NSCNSKIP      4 00000024 FFFFFFED     A    2438  6877   6881M  6895M  6981   6985M  6999M  7736   7740M  7753M 12468
                                                 12472M 12486M 12704  12708M 12722M 13931  13935M 13949M 16346  16350M
                                                 16364M 34417  34421M 34435M 34816  34820M 34834M
 NSCNSTOP      4 00000020 FFFFFFED     A    2437  6878   6882M  6896M  6982   6986M  7000M  7737   7741M  7754M 12469
                                                 12473M 12487M 12705  12709M 12723M 13932  13936M 13950M 16347  16351M
                                                 16365M 34418  34422M 34436M 34817  34821M 34835M
 NSCNTLEN      4 00000014 FFFFFFED     F    2405 12623  12670M
 NSCNTLOC      4 00000010 FFFFFFED     A    2404 12638  12654  12655
 NSCNTYPE      1 00000018 FFFFFFED     R    2408  2412   2417   2422   2427   2432
 OOPS          2 000045D6 00000001     H   21658 17330  18234  18910
 OOPSKEY      16 00000000 FFFFFFE3     X   21643 21814M 21814  21815M 21816M 21817
 OOPSWA       16 00000000 FFFFFFE3     J   21650 21671  21700U 21920  21922  21923
 PAGEBOT       1 00000000 0000002B     T   16676 16676  20602
 PAGECLR       1 00000000 0000001D     T   15833 15833  20603
 PAGECMD       1 00000000 0000001B     T   15829 15829
 PAGECNT       1 00000000 00000031     T   20596 20596  33481
 PAGECOLS      1 00000000 0000004E     T   33479 33479
 PAGEFILL      1 00000000 00000029     T   16674 16674
 PAGEFIND      1 00000000 0000002A     T   16675 16675
 PAGEINIT      1 00000000 00000021     T   15840 15840  26805  33488  36022
 PAGELINE      1 00000000 00000024     T   15846 15846  20604
 PAGEMAKE      1 00000000 00000035     T   20606 20606
 PAGEMOD       1 00000000 00000025     T   15847 15847
 PAGENEWW      1 00000000 0000004C     T   33472 33472  36020
 PAGESCRL      1 00000000 00000032     T   20599 20599
 PAGETCHK      1 00000000 00000019     T   15823 15823
 PAGETOP       1 00000000 00000033     T   20601 20601
 PF22          2 0000628E 00000001     H   30624 18429
 PREPARE       2 0000580A 00000001     H   26978 18279  18940
 PREPEXIT      2 0000584A 00000001     H   27080 27035B
1VIEW     (VIEW2025) (13:00) (15MAR04) Ordinary Symbol and Literal Cross Reference                                          Page  158
 PREVIOUS      2 00004198 00000001     H   20344 17345  18159  18595
 PREVLNO       1 00000000 00000034     T   20605 20605  25683
 PUTLINE       1 00000000 0000003D     T   25701 25701  28792
 RAR          14 0000000E 00000001 A   #    1125  2119   2120M  2121B  2123M  2124B  2144M  2145B  2149M  2150B  2152M
                                                  2153B  2155M  2156B  2158M  2159B  2161M  2162M  2162B  2168   6837
                                                  6887M  6888M  6888B  6901M  6902M  6902B  6921M  6924B  6941   6991M
                                                  6992M  6992B  7005M  7006M  7006B  7024M  7025M  7025B  7061M  7062M
                                                  7062B  7098M  7099M  7099B  7121M  7122M  7122B  7142M  7143M  7143B
                                                  7173M  7174M  7174B  7207M  7208M  7208B  7229M  7230M  7230B  7264M
                                                  7265M  7265B  7286M  7287M  7287B  7321M  7322M  7322B  7343M  7344M
                                                  7344B  7378M  7379M  7379B  7400M  7401M  7401B  7435M  7436M  7436B
                                                  7474M  7475M  7475B  7513M  7514M  7514B  7552M  7553M  7553B  7581M
                                                  7584B  7682   7745M  7746M  7746B  7783M  7784M  7784B  7802M  7803M
                                                  7803B  7912M  7913M  7913B  7933M  7934M  7934B  7951M  7952M  7952B
                                                  7972M  7973M  7973B  7990M  7991M  7991B  8011M  8012M  8012B  8029M
                                                  8030M  8030B  8054M  8055M  8055B  8079M  8080M  8080B  8105M  8106M
                                                  8106B  8127M  8128M  8128B  8145M  8146M  8146B  8150M  8151M  8151B
                                                  8174M  8175M  8175B  8192M  8193M  8193B  8213M  8214M  8214B  8231M
                                                  8232M  8232B  8236M  8237M  8237B  8260M  8261M  8261B  8278M  8279M
                                                  8279B  8299M  8300M  8300B  8317M  8318M  8318B  8342M  8343M  8343B
                                                  8367M  8368M  8368B  8386M  8387M  8387B  8408M  8409M  8409B  8426M
                                                  8427M  8427B  8448M  8449M  8449B  8466M  8467M  8467B  8471M  8472M
                                                  8472B  8495M  8496M  8496B  8513M  8514M  8514B  8534M  8535M  8535B
                                                  8552M  8553M  8553B  8571M  8572M  8572B  8593M  8594M  8594B  8611M
                                                  8612M  8612B  8633M  8634M  8634B  8651M  8652M  8652B  8656M  8657M
                                                  8657B  8680M  8681M  8681B  8698M  8699M  8699B  8719M  8720M  8720B
                                                  8737M  8738M  8738B  8762M  8763M  8763B  8814M  8815M  8815B  8835M
                                                  8836M  8836B  8853M  8854M  8854B  8885M  8886M  8886B  8914M  8915M
                                                  8915B  8945M  8946M  8946B  8963M  8964M  8964B  8985M  8986M  8986B
                                                  9017M  9018M  9018B  9046M  9047M  9047B  9077M  9078M  9078B  9095M
                                                  9096M  9096B  9100M  9101M  9101B  9124M  9125M  9125B  9142M  9143M
                                                  9143B  9147M  9148M  9148B  9171M  9172M  9172B  9196M  9197M  9197B
                                                  9227M  9228M  9228B  9245M  9246M  9246B  9250M  9251M  9251B  9274M
                                                  9275M  9275B  9292M  9293M  9293B  9297M  9298M  9298B  9321M  9322M
                                                  9322B  9346M  9347M  9347B  9377M  9378M  9378B  9395M  9396M  9396B
                                                  9416M  9417M  9417B  9434M  9435M  9435B  9455M  9456M  9456B  9473M
                                                  9474M  9474B  9494M  9495M  9495B  9519M  9520M  9520B  9550M  9551M
                                                  9551B  9568M  9569M  9569B  9589M  9590M  9590B  9614M  9615M  9615B
                                                  9645M  9646M  9646B  9663M  9664M  9664B  9684M  9685M  9685B  9702M
                                                  9703M  9703B  9723M  9724M  9724B  9748M  9749M  9749B  9779M  9780M
                                                  9780B  9797M  9798M  9798B  9818M  9819M  9819B  9848M  9849M  9849B
                                                  9866M  9867M  9867B  9887M  9888M  9888B  9917M  9918M  9918B  9970M
                                                  9971M  9971B  9997M  9998M  9998B 10053M 10054M 10054B 10088M 10089M
                                                 10089B 10126M 10127M 10127B 10159M 10160M 10160B 10184M 10185M 10185B
                                                 10215M 10216M 10216B 10233M 10234M 10234B 10289M 10290M 10290B 10313M
                                                 10314M 10314B 10489M 10490M 10490B 10520M 10521M 10521B 10538M 10539M
                                                 10539B 10568M 10569M 10569B 10598M 10599M 10599B 10604M 10605M 10605B
                                                 10634M 10635M 10635B 10640M 10641M 10641B 10670M 10671M 10671B 10696M
                                                 10697M 10697B 10736M 10739B 10755  10870M 10871M 10871B 10874M 10875M
                                                 10875B 10894M 10897B 11064  11119M 11120M 11120B 11146M 11147M 11147B
                                                 11295M 11296M 11296B 11327M 11330B 11355  11675M 11676M 11676B 11709M
                                                 11712B 11729  11776M 11777M 11777B 11827M 11828M 11828B 11885M 11886M
                                                 11886B 11910M 11911M 11911B 11948M 11949M 11949B 11972M 11973M 11973B
                                                 11990M 11991M 11991B 12014M 12015M 12015B 12044M 12045M 12045B 12074M
                                                 12075M 12075B 12092M 12093M 12093B 12122M 12123M 12123B 12199M 12200M
                                                 12200B 12218M 12219M 12219B 12239M 12240M 12240B 12257M 12258M 12258B
                                                 12282M 12283M 12283B 12302M 12303M 12303B 12327M 12328M 12328B 12357M
                                                 12360B 12420  12454M 12455M 12455B 12478M 12479M 12479B 12492M 12493M
                                                 12493B 12536M 12537M 12537B 12586M 12587M 12587B 12613M 12614M 12614B
1VIEW     (VIEW2025) (13:00) (15MAR04) Ordinary Symbol and Literal Cross Reference                                          Page  159
                                                 12691M 12692M 12692B 12714M 12715M 12715B 12769M 12770M 12770B 12787M
                                                 12788M 12788B 12808M 12811B 12901  12947M 12950B 12964  12996M 12997M
                                                 12997B 13016M 13019B 13422  13488M 13489M 13489B 13497M 13498M 13498B
                                                 13505M 13506M 13506B 13534M 13537B 13549  13622M 13623M 13623B 13648M
                                                 13651B 13663  13714M 13717B 13729  13781M 13784B 13796  13846M 13847M
                                                 13847B 13872M 13875B 13887  13941M 13942M 13942B 13955M 13956M 13956B
                                                 13979M 13980M 13980B 14005M 14008B 14081  14130M 14133B 14145  14194M
                                                 14197B 14209  14261M 14264B 14276  14331M 14332M 14332B 14357M 14360B
                                                 14372  14425M 14426M 14426B 14451M 14454B 14466  14520M 14521M 14521B
                                                 14546M 14549B 14561  14612M 14615B 14627  14679M 14682B 14694  14747M
                                                 14748M 14748B 14773M 14776B 14788  14842M 14843M 14843B 14868M 14871B
                                                 14883  14940M 14943B 14955  15013M 15016B 15028  15085M 15088B 15100
                                                 15158M 15161B 15173  15221M 15222M 15222B 15243M 15246B 15258  15306M
                                                 15307M 15307B 15328M 15331B 15343  15394M 15397B 15409  15461M 15464B
                                                 15476  15525M 15526M 15526B 15552M 15555B 15567  15618M 15621B 15633
                                                 15685M 15688B 15704  15745M 15746M 15746B 15762M 15763M 15763B 15778M
                                                 15779M 15779B 15806M 15809B 16033  16121M 16122M 16122B 16210M 16211M
                                                 16211B 16287M 16288M 16288B 16307M 16308M 16308B 16356M 16357M 16357B
                                                 16370M 16371M 16371B 16399M 16400M 16400B 16409M 16410M 16410B 16489M
                                                 16490M 16490B 16652M 16655B 19184  19236M 19239B 19255  19359M 19360M
                                                 19360B 19411M 19412M 19412B 19455M 19458B 19474  19547M 19548M 19548B
                                                 19551M 19552M 19552B 19571M 19574B 19592  19633M 19634M 19634B 19664M
                                                 19665M 19665B 19683M 19686B 19702  19743M 19744M 19744B 19773M 19774M
                                                 19774B 19792M 19795B 19811  19870M 19871M 19871B 19887M 19888M 19888B
                                                 19919M 19920M 19920B 19938M 19941B 19957  20016M 20017M 20017B 20033M
                                                 20034M 20034B 20065M 20066M 20066B 20084M 20087B 20103  20134M 20135M
                                                 20135B 20163M 20164M 20164B 20186M 20189B 20205  20255M 20256M 20256B
                                                 20280M 20281M 20281B 20293M 20294M 20294B 20331M 20334B 20350  20399M
                                                 20400M 20400B 20423M 20424M 20424B 20451M 20452M 20452B 20470M 20473B
                                                 20489  20540M 20541M 20541B 20553M 20554M 20554B 20580M 20583B 20635
                                                 20715M 20716M 20716B 20774M 20775M 20775B 20832M 20833M 20833B 20881M
                                                 20882M 20882B 20898M 20899M 20899B 20947M 20948M 20948B 20969M 20970M
                                                 20970B 21017M 21020B 21036  21097M 21098M 21098B 21119M 21120M 21120B
                                                 21201M 21202M 21202B 21241M 21242M 21242B 21276M 21279B 21295  21354M
                                                 21355M 21355B 21406M 21407M 21407B 21444M 21445M 21445B 21497M 21500B
                                                 21516  21575M 21576M 21576B 21626M 21629B 21665  21724M 21725M 21725B
                                                 21766M 21767M 21767B 21783M 21784M 21784B 21805M 21806M 21806B 21835M
                                                 21836M 21836B 21866M 21867M 21867B 21897M 21898M 21898B 21922M 21925B
                                                 21941  22270M 22273B 22289  22622M 22625B 22675  22707M 22708M 22708B
                                                 22726M 22729B 22742  22836M 22837M 22837B 22889M 22890M 22890B 22934M
                                                 22935M 22935B 22986M 22987M 22987B 23025M 23026M 23026B 23202M 23203M
                                                 23203B 23256M 23257M 23257B 23273M 23274M 23274B 23351M 23352M 23352B
                                                 23381M 23382M 23382B 23393M 23394M 23394B 23548M 23549M 23549B 23648M
                                                 23649M 23649B 23757M 23758M 23758B 23800M 23801M 23801B 23827M 23828M
                                                 23828B 23871M 23872M 23872B 23910M 23911M 23911B 23918M 23919M 23919B
                                                 23925M 23926M 23926B 23963M 23964M 23964B 23983M 23984M 23984B 24027M
                                                 24028M 24028B 24056M 24057M 24057B 24100M 24101M 24101B 24151M 24152M
                                                 24152B 24181M 24182M 24182B 24207M 24210B 24246  24333M 24334M 24334B
                                                 24371M 24372M 24372B 24614M 24615M 24615B 24716M 24717M 24717B 24749M
                                                 24750M 24750B 24788M 24789M 24789B 24806M 24807M 24807B 24813M 24814M
                                                 24814B 24859M 24860M 24860B 24920M 24921M 24921B 24936M 24937M 24937B
                                                 24961M 24962M 24962B 24985M 24988B 25004  25064M 25065M 25065B 25108M
                                                 25109M 25109B 25154M 25157B 25173  25263M 25266B 25289  25342M 25343M
                                                 25343B 25589M 25592B 25611  25646M 25647M 25647B 25666M 25669B 25752
                                                 25804M 25807B 25823  25854M 25855M 25855B 25873M 25876B 25912  25982M
                                                 25983M 25983B 25999M 26000M 26000B 26016M 26017M 26017B 26044M 26045M
                                                 26045B 26061M 26062M 26062B 26077M 26078M 26078B 26105M 26106M 26106B
                                                 26163M 26164M 26164B 26180M 26181M 26181B 26220M 26221M 26221B 26260M
                                                 26261M 26261B 26300M 26301M 26301B 26349M 26350M 26350B 26366M 26367M
1VIEW     (VIEW2025) (13:00) (15MAR04) Ordinary Symbol and Literal Cross Reference                                          Page  160
                                                 26367B 26389M 26390M 26390B 26412M 26413M 26413B 26477M 26478M 26478B
                                                 26508M 26511B 26527  26586M 26587M 26587B 26603M 26604M 26604B 26620M
                                                 26621M 26621B 26648M 26649M 26649B 26665M 26666M 26666B 26681M 26682M
                                                 26682B 26708M 26709M 26709B 26745M 26746M 26746B 26762M 26763M 26763B
                                                 26793M 26796B 26852  26912M 26913M 26913B 26965M 26968B 26984  27098M
                                                 27101B 27117  27219M 27222B 27238  27302M 27303M 27303B 27360M 27363B
                                                 27379  27455M 27456M 27456B 27522M 27523M 27523B 27560M 27563B 27579
                                                 27667M 27668M 27668B 27714M 27715M 27715B 27772M 27773M 27773B 27796M
                                                 27799B 27856  28010M 28011M 28011B 28316M 28317M 28317B 28353M 28354M
                                                 28354B 28473M 28474M 28474B 28502M 28503M 28503B 28561M 28562M 28562B
                                                 28638M 28639M 28639B 28768M 28771B 28820  28888M 28889M 28889B 28953M
                                                 28954M 28954B 28973M 28974M 28974B 28990M 28991M 28991B 29045M 29046M
                                                 29046B 29075M 29078B 29094  29127M 29128M 29128B 29161M 29162M 29162B
                                                 29189M 29190M 29190B 29206M 29207M 29207B 29226M 29227M 29227B 29230M
                                                 29231M 29231B 29253M 29256B 29272  29305M 29306M 29306B 29339M 29340M
                                                 29340B 29367M 29368M 29368B 29384M 29385M 29385B 29404M 29405M 29405B
                                                 29408M 29409M 29409B 29431M 29434B 29450  29536M 29537M 29537B 29553M
                                                 29554M 29554B 29644M 29645M 29645B 29661M 29662M 29662B 29708M 29709M
                                                 29709B 29725M 29726M 29726B 29775M 29776M 29776B 29812M 29813M 29813B
                                                 29838M 29839M 29839B 29855M 29856M 29856B 29885M 29888B 29904  29969M
                                                 29970M 29970B 29986M 29987M 29987B 30577M 30578M 30578B 30610M 30613B
                                                 30630  30693M 30694M 30694B 30709M 30710M 30710B 30727M 30730B 30746
                                                 30884M 30885M 30885B 30925M 30928B 30944  31066M 31067M 31067B 31107M
                                                 31110B 31126  31280M 31283B 31299  31549M 31550M 31550B 31566M 31567M
                                                 31567B 31597M 31598M 31598B 31655M 31658B 31674  31766M 31767M 31767B
                                                 31792M 31795B 31811  31921M 31922M 31922B 31955M 31958B 31974  32070M
                                                 32071M 32071B 32104M 32107B 32123  32238M 32239M 32239B 32272M 32275B
                                                 32291  32608M 32609M 32609B 32681M 32682M 32682B 32722M 32725B 32741
                                                 32836M 32837M 32837B 32912M 32913M 32913B 32954M 32955M 32955B 32962M
                                                 32963M 32963B 32970M 32971M 32971B 33109M 33110M 33110B 33144M 33145M
                                                 33145B 33165M 33168B 33185  33343M 33346B 33362  33412M 33413M 33413B
                                                 33429M 33430M 33430B 33448M 33451B 33537  33584M 33587B 33603  33663M
                                                 33664M 33664B 33715M 33718B 33754  33855M 33856M 33856B 33896M 33897M
                                                 33897B 33927M 33930B 33946  34027M 34030B 34050  34131M 34134B 34294
                                                 34375M 34376M 34376B 34427M 34428M 34428B 34465M 34466M 34466B 34546M
                                                 34549B 34656  34713M 34714M 34714B 34737M 34740B 34756  34826M 34827M
                                                 34827B 34864M 34865M 34865B 34875M 34876M 34876B 34910M 34911M 34911B
                                                 34943M 34944M 34944B 34964M 34965M 34965B 35000M 35003B 35063  35127M
                                                 35130B 35142  35206M 35209B 35221  35278M 35279M 35279B 35302M 35305B
                                                 35321  35352M 35353M 35353B 35371M 35374B 35390  35480M 35481M 35481B
                                                 35501M 35502M 35502B 35519M 35520M 35520B 35524M 35525M 35525B 35547M
                                                 35548M 35548B 35583M 35584M 35584B 35603M 35604M 35604B 35625M 35626M
                                                 35626B 35630M 35631M 35631B 35653M 35654M 35654B 35687M 35688M 35688B
                                                 35707M 35708M 35708B 35748M 35749M 35749B 35777M 35780B 35796  35886M
                                                 35889B 35904  35997M 36000B
 RDRNG         1 00000000 0000001E     T   15836 15836
 REBLEXIT      2 00004F6E 00000001     H   25136 25072B 25116B
 REMARK        2 00004F06 00000001     H   24998 18369  18775
 RESET         2 00005306 00000001     H   25817 18490
 REVIEW        2 000052D6 00000001     H   25746 17435  18880  19153
 RIGHTXIT      2 000063B2 00000001     H   31089 31013B
 RLOOKUP       1 00000000 0000001F     T   15838 15838
 RNGABORT      1 00000000 00000026     T   15848 15848
 R0            0 00000000 FFFFFFFF A   #     699  2104   2173M  6872M  6872   6881   6882   6976M  6976   6985   6986
                                                  7013M  7050M  7087M  7087   7110M  7131M  7131   7162M  7196M  7218M
                                                  7253M  7275M  7310M  7332M  7367M  7389M  7424M  7463M  7502M  7541M
                                                  7562M  7731M  7731   7740   7741   7742   7764M  7764   7793M  7793
                                                  7833M  7887M  7901M  7922M  7922   7940M  7961M  7961   7979M  8000M
                                                  8000   8018M  8043M  8043   8068M  8068   8094M  8116M  8116   8134M
1VIEW     (VIEW2025) (13:00) (15MAR04) Ordinary Symbol and Literal Cross Reference                                          Page  161
                                                  8181M  8202M  8202   8220M  8267M  8288M  8288   8306M  8331M  8331
                                                  8356M  8356   8375M  8397M  8397   8415M  8437M  8437   8455M  8502M
                                                  8523M  8523   8541M  8560M  8582M  8582   8600M  8622M  8622   8640M
                                                  8687M  8708M  8708   8726M  8751M  8751   8803M  8824M  8824   8842M
                                                  8874M  8903M  8903   8934M  8952M  8974M  8974   9006M  9035M  9035
                                                  9066M  9084M  9131M  9185M  9185   9216M  9234M  9281M  9335M  9335
                                                  9366M  9384M  9405M  9405   9423M  9444M  9444   9462M  9483M  9483
                                                  9508M  9508   9539M  9557M  9578M  9578   9603M  9603   9634M  9652M
                                                  9673M  9673   9691M  9712M  9712   9737M  9737   9768M  9786M  9807M
                                                  9807   9837M  9855M  9876M  9876   9906M  9923M  9986M  9986  10002M
                                                 10042M 10042  10077M 10115M 10148M 10148  10173M 10173  10204M 10222M
                                                 10278M 10302M 10319M 10509M 10527M 10557M 10587M 10623M 10659M 10685M
                                                 10685  10860M 10877  10877M 11113  11115M 11148  11252M 11253M 11254M
                                                 11411  11515  11602  11658  11670M 11671M 11804M 11816M 11874M 11899M
                                                 11899  11935M 11942M 11979M 12003M 12033M 12063M 12081M 12111M 12128M
                                                 12148M 12172M 12207M 12228M 12228  12246M 12271M 12271  12297M 12316M
                                                 12316  12463M 12463  12472  12473  12699M 12699  12708  12709  12783M
                                                 12999  12999M 13462  13468  13485M 13491  13492  13492  13492  13502M
                                                 13595M 13612  13619  13836  13843  13926M 13926  13935  13936  13957M
                                                 13969  13976  14174  14243M 15850  15850  15850  16110M 16207M 16223M
                                                 16223  16262  16268  16284M 16304M 16309M 16330  16341M 16341  16350
                                                 16351  16406M 16406  16486M 19401M 19401  19407M 19408  19521M 19525
                                                 19544M 19628M 19628  19738M 19738  19859M 19876M 19916M 19916  20005M
                                                 20022M 20062M 20062  20160  20750M 20750  20764  20812M 20824  20894M
                                                 20922  20923  20944M 20966M 20966  21144  21197M 21238M 21238  21375M
                                                 21375  21430M 21430  21440M 21441  21545M 21554M 21554  21572  21755M
                                                 21772M 21801M 21831M 21855M 22095M 22098  22110M 22133M 22138  22221
                                                 22445M 22448  22460M 22486M 22486  22491  22540M 22540  22547M 22579
                                                 22825M 22841M 22863M 22923M 22939M 22960M 23038  23045M 23050  23191M
                                                 23207M 23229M 23262M 23365  23385  23387  23399  23401M 23402  23403M
                                                 23415  23780M 23792  23802  23914M 23960M 24095M 24095  24322M 24528M
                                                 24555M 24556  24620  24622M 24627  24658  24668M 24776  24782M 24784M
                                                 24800M 24827M 24849M 24849  24855M 24856  24878  25053M 25097M 25344
                                                 25429  25436M 25457M 25485M 25501M 25501  25506  25568M 25568  25649
                                                 25649M 25971M 25988M 26033M 26050M 26087M 26087  26098  26152M 26169M
                                                 26209M 26249M 26289M 26338M 26355M 26378M 26401M 26437M 26447M 26447
                                                 26453  26575M 26592M 26637M 26654M 26691M 26691  26702  26734M 26751M
                                                 26909M 27298M 27330  27447M 27511M 27657M 27704M 27769M 28040  28066
                                                 28085M 28105M 28116M 28116  28144M 28164M 28175M 28175  28270M 28287M
                                                 28287  28294M 28296M 28298M 28303M 28305M 28307M 28311  28312M 28318
                                                 28371M 28371  28399M 28478M 28490  28585M 28585  28634M 28877M 28942M
                                                 28962M 28962  28979M 29150M 29178M 29195M 29328M 29356M 29373M 29525M
                                                 29542M 29633M 29650M 29697M 29714M 29733M 29761M 29761  29795  29796
                                                 29796  29796  29801M 29816M 29844M 29958M 29975M 30555M 30556M 30557M
                                                 30880M 31062M 31237M 31238  31240  31538M 31555M 31593M 32597M 32860M
                                                 32878M 32902M 32907  32908  32951M 32957  32958  32958  32958  32967M
                                                 33133M 33401M 33418M 33496  33496  33496  33652M 34397M 34401  34412M
                                                 34412  34421  34422  34454M 34482M 34491M 34491  34501M 34507  34507M
                                                 34702M 34811M 34811  34820  34821  34853M 34871M 34927  34932M 34953M
                                                 34953  35105  35184  35267M 35469M 35490M 35490  35508M 35521M 35572M
                                                 35592M 35592  35614M 35627M 35676M 35696M 35696  35737M
 R1            1 00000001 FFFFFFFF A   #     712  2167M  2168M  2174M  6868M  6881   6882   6884   6972M  6985   6986
                                                  6988   7012M  7049M  7083M  7109M  7127M  7155M  7195M  7217M  7252M
                                                  7274M  7309M  7331M  7366M  7388M  7423M  7462M  7501M  7540M  7561M
                                                  7727M  7740   7741   7742   7832M  7886M  7900M  7918M  7939M  7957M
                                                  7978M  7996M  8017M  8093M  8112M  8133M  8180M  8198M  8219M  8266M
                                                  8284M  8305M  8374M  8393M  8414M  8433M  8454M  8501M  8519M  8540M
                                                  8559M  8578M  8599M  8618M  8639M  8686M  8704M  8725M  8802M  8820M
                                                  8841M  8873M  8927M  8951M  8970M  9005M  9059M  9083M  9130M  9209M
1VIEW     (VIEW2025) (13:00) (15MAR04) Ordinary Symbol and Literal Cross Reference                                          Page  162
                                                  9233M  9280M  9359M  9383M  9401M  9422M  9440M  9461M  9479M  9532M
                                                  9556M  9574M  9627M  9651M  9669M  9690M  9708M  9761M  9785M  9803M
                                                  9830M  9854M  9872M  9899M  9922M  9981M 10001M 10076M 10114M 10203M
                                                 10221M 10271M 10295M 10318M 10336M 10357M 10378M 10399M 10420M 10441M
                                                 10462M 10501M 10526M 10549M 10580M 10616M 10652M 10867M 10877  11112
                                                 11121  11148  11292M 11292  11384  11669M 11803M 11815M 11873M 11934M
                                                 11942M 11978M 11996M 12026M 12056M 12080M 12104M 12127M 12147M 12171M
                                                 12206M 12224M 12245M 12293M 12459M 12472  12473  12475  12695M 12708
                                                 12709  12711  12784M 12993M 13478M 13491  13492  13492  13492  13502M
                                                 13922M 13935  13936  13938  14242M 15516M 15517M 15517  15850  15850
                                                 15850  16105M 16203M 16268  16279M 16299M 16309M 16329  16337M 16350
                                                 16351  16353  16402M 16451  19356M 19408M 19517M 19524  19540M 19630M
                                                 19630  19740M 19740  19858M 19875M 20004M 20021M 20712M 20856  20950
                                                 20951  20962M 21204  21234M 21351M 21403M 21441M 21572M 21754M 21771M
                                                 21826M 21854M 22824M 22840M 22862M 22922M 22938M 22959M 23022M 23190M
                                                 23206M 23228M 23261M 23348M 23386  23390M 23425  23868M 23874  23915M
                                                 23966  24096M 24321M 24611M 24746M 24801M 24803M 24810M 24856M 25052M
                                                 25096M 25339M 25570M 25570  25649  25970M 25987M 26013M 26032M 26049M
                                                 26097  26147M 26168M 26208M 26248M 26288M 26333M 26354M 26377M 26400M
                                                 26429M 26574M 26591M 26617M 26636M 26653M 26701  26729M 26750M 26938
                                                 27333  27451M 27451  27510M 27664M 27711M 27765M 28007M 28078M 28100M
                                                 28142M 28159M 28268M 28319  28350M 28397M 28469M 28477M 28558M 28635M
                                                 28652  28876M 28941M 28958M 28978M 29123M 29149M 29173M 29194M 29301M
                                                 29327M 29351M 29372M 29524M 29541M 29632M 29649M 29696M 29713M 29734M
                                                 29765M 29765  29795  29796  29796  29796  29800M 29816M 29843M 29957M
                                                 29974M 31537M 31554M 31594M 32442M 32551M 32596M 32861M 32879M 32909
                                                 32944M 32957  32958  32958  32958  32967M 33132M 33400M 33417M 33496
                                                 33496  33496  33651M 34392M 34400  34408M 34421  34422  34424  34453M
                                                 34477M 34500M 34507  34701M 34807M 34820  34821  34823  34852M 34872M
                                                 34931M 34949M 35266M 35468M 35486M 35507M 35571M 35588M 35613M 35675M
                                                 35692M 35736M
 R12          12 0000000C FFFFFFFF A   #     855  2130
 R13          13 0000000D FFFFFFFF A   #     868  6876   6877   6878   6894   6895   6896   6980   6981   6982   6998
                                                  6999   7000   7735   7736   7737   7752   7753   7754  12467  12468
                                                 12469  12485  12486  12487  12703  12704  12705  12721  12722  12723
                                                 13930  13931  13932  13948  13949  13950  16345  16346  16347  16363
                                                 16364  16365  34380  34416  34417  34418  34434  34435  34436  34801
                                                 34815  34816  34817  34833  34834  34835
 R14          14 0000000E FFFFFFFF A   #     881  2105M  6875M  6876   6877   6878   6883M  6884   6891M  6894   6895
                                                  6896   6979M  6980   6981   6982   6987M  6988   6995M  6998   6999
                                                  7000   7734M  7735   7736   7737   7749M  7752   7753   7754  11242M
                                                 11247M 11253  11254M 11412M 11516M 11603M 11659M 12466M 12467  12468
                                                 12469  12474M 12475  12482M 12485  12486  12487  12622M 12623  12638
                                                 12653  12654  12655  12655  12656  12657  12670  12674M 12674  12702M
                                                 12703  12704  12705  12710M 12711  12718M 12721  12722  12723  13929M
                                                 13930  13931  13932  13937M 13938  13945M 13948  13949  13950  16328M
                                                 16329  16330  16334M 16334  16344M 16345  16346  16347  16352M 16353
                                                 16360M 16363  16364  16365  19523M 19524  19525  19529M 19529  19639M
                                                 19639  19640M 19749M 19749  19750M 30543M 30548M 30556  30557M 34379M
                                                 34380  34399M 34400  34401  34405M 34405  34415M 34416  34417  34418
                                                 34423M 34424  34431M 34434  34435  34436  34511M 34514  34800M 34801
                                                 34814M 34815  34816  34817  34822M 34823  34830M 34833  34834  34835
                                                 34973M 34976
 R15          15 0000000F FFFFFFFF A   #     894  2104   6897M  6897   6923M  6923   7001M  7001   7021M  7058M  7095M
                                                  7118M  7139M  7170M  7204M  7226M  7261M  7283M  7318M  7340M  7375M
                                                  7397M  7432M  7471M  7510M  7549M  7583M  7583   7755M  7755   7808
                                                  7909M  7930M  7948M  7969M  7987M  8008M  8026M  8051M  8076M  8102M
                                                  8124M  8142M  8147M  8171M  8189M  8210M  8228M  8233M  8257M  8275M
                                                  8296M  8314M  8339M  8364M  8383M  8405M  8423M  8445M  8463M  8468M
1VIEW     (VIEW2025) (13:00) (15MAR04) Ordinary Symbol and Literal Cross Reference                                          Page  163
                                                  8492M  8510M  8531M  8549M  8568M  8590M  8608M  8630M  8648M  8653M
                                                  8677M  8695M  8716M  8734M  8759M  8811M  8832M  8850M  8882M  8911M
                                                  8942M  8960M  8982M  9014M  9043M  9074M  9092M  9097M  9121M  9139M
                                                  9144M  9168M  9193M  9224M  9242M  9247M  9271M  9289M  9294M  9318M
                                                  9343M  9374M  9392M  9413M  9431M  9452M  9470M  9491M  9516M  9547M
                                                  9565M  9586M  9611M  9642M  9660M  9681M  9699M  9720M  9745M  9776M
                                                  9794M  9815M  9845M  9863M  9884M  9914M  9967M  9994M 10050M 10085M
                                                 10123M 10156M 10181M 10212M 10230M 10286M 10310M 10486M 10517M 10535M
                                                 10565M 10595M 10601M 10631M 10637M 10667M 10693M 10738M 10738  10794
                                                 10801M 10816  10823M 10838  10845M 10896M 10896  11111  11207M 11217U
                                                 11263M 11264M 11265  11329M 11329  11394M 11395M 11395  11411  11435U
                                                 11469  11485  11495  11498M 11499M 11499  11515  11602  11658  11680M
                                                 11681M 11682  11692M 11711M 11711  11824M 11882M 11907M 11944M 11969M
                                                 11987M 12011M 12041M 12071M 12089M 12119M 12196M 12215M 12236M 12254M
                                                 12279M 12298M 12324M 12359M 12359  12488M 12488  12505  12554M 12564U
                                                 12623M 12632M 12632  12638M 12647M 12647  12653M 12654M 12656M 12657
                                                 12669M 12669  12670  12724M 12724  12810M 12810  12930M 12949M 12949
                                                 13018M 13018  13517M 13517  13536M 13536  13631M 13631  13650M 13650
                                                 13716M 13716  13783M 13783  13855M 13855  13874M 13874  13951M 13951
                                                 13988M 13988  14007M 14007  14113M 14132M 14132  14177M 14196M 14196
                                                 14263M 14263  14340M 14340  14359M 14359  14434M 14434  14453M 14453
                                                 14529M 14529  14548M 14548  14614M 14614  14681M 14681  14756M 14756
                                                 14775M 14775  14851M 14851  14870M 14870  14942M 14942  15015M 15015
                                                 15087M 15087  15160M 15160  15226M 15226  15245M 15245  15311M 15311
                                                 15330M 15330  15396M 15396  15463M 15463  15535M 15535  15554M 15554
                                                 15620M 15620  15687M 15687  15742M 15808M 15808  16118M 16129M 16130M
                                                 16130  16142M 16143M 16153U 16242M 16366M 16366  16375M 16375  16461M
                                                 16461  16479M 16479  16485M 16531M 16548M 16552M 16561M 16561  16568
                                                 16619M 16619  16654M 16654  19219M 19238M 19238  19284M 19293M 19293
                                                 19331  19438M 19457M 19457  19554M 19573M 19573  19635M 19643  19655M
                                                 19660M 19660  19666M 19685M 19685  19745M 19753  19765M 19775M 19794M
                                                 19794  19842M 19843M 19843  19867M 19884M 19899M 19903  19905M 19909
                                                 19911M 19921M 19940M 19940  19988M 19989M 19989  20013M 20030M 20045M
                                                 20049  20051M 20055  20057M 20067M 20086M 20086  20154M 20154  20160M
                                                 20169M 20188M 20188  20257  20290M 20304M 20305M 20306  20314M 20333M
                                                 20333  20401  20448M 20453M 20472M 20472  20550M 20563M 20582M 20582
                                                 20664M 20673M 20673  20711M 20770M 20771M 20810M 20856M 20878  20895M
                                                 20943M 20949  20951M 20952  21000M 21019M 21019  21065M 21074M 21074
                                                 21094M 21144M 21161M 21162M 21174  21181  21198M 21203  21204M 21209
                                                 21217  21259M 21278M 21278  21324M 21333M 21333  21401M 21402M 21480M
                                                 21499M 21499  21609M 21628M 21628  21736M 21745M 21745  21763M 21780M
                                                 21802M 21832M 21845M 21845  21863M 21884M 21900M 21924M 21924  21970M
                                                 21979M 21979  22094  22173  22192  22230  22253M 22272M 22272  22318M
                                                 22327M 22327  22443M 22444  22526  22565  22588  22605M 22624M 22624
                                                 22709M 22728M 22728  22833M 22886M 22912M 22913M 22913  22931M 22983M
                                                 23021M 23076M 23090  23104  23126  23163  23199M 23253M 23270M 23347M
                                                 23389M 23426M 23428M 23429  23430  23470M 23545M 23615M 23616M 23617
                                                 23619M 23620M 23621  23654M 23657  23669M 23674  23675M 23677M 23678
                                                 23779M 23802M 23824  23850  23873M 23874M 23891M 23901  23902  23907M
                                                 23912  23920  23922M 23959M 23965  23990M 23991M 23992  24012  24097M
                                                 24185M 24209M 24209  24330M 24368M 24373  24405M 24437  24451  24470
                                                 24507  24529M 24549M 24550M 24555  24610M 24713M 24745M 24785M 24809M
                                                 24878M 24882M 24891M 24891  24898  24917M 24933M 24963M 24987M 24987
                                                 25061M 25105M 25137M 25156M 25156  25246M 25265M 25265  25318M 25330
                                                 25467M 25469M 25478M 25478  25484  25485  25506M 25510M 25519M 25519
                                                 25526  25553M 25554M 25555  25561M 25561  25571M 25591M 25591  25668M
                                                 25668  25787M 25806M 25806  25856M 25875M 25875  25952M 25961M 25961
                                                 25979M 25996M 26041M 26058M 26074M 26102M 26116M 26116  26133  26160M
                                                 26177M 26199  26217M 26239  26257M 26279  26297M 26319  26346M 26363M
1VIEW     (VIEW2025) (13:00) (15MAR04) Ordinary Symbol and Literal Cross Reference                                          Page  164
                                                 26386M 26409M 26474M 26486M 26510M 26510  26556M 26565M 26565  26583M
                                                 26600M 26645M 26662M 26678M 26742M 26759M 26776M 26795M 26795  26883M
                                                 26884M 26884  26948M 26967M 26967  27015M 27016M 27016  27081M 27100M
                                                 27100  27177M 27178  27197M 27221M 27221  27276M 27277M 27277  27299M
                                                 27343M 27362M 27362  27417M 27418M 27418  27452M 27501  27519M 27543M
                                                 27562M 27562  27617M 27618M 27618  27650M 27672M 27673M 27673  27689M
                                                 27689  27779M 27798M 27798  27912M 27913M 27913  27979M 27980M 27981
                                                 28006M 28313M 28349M 28470M 28499M 28523M 28524M 28525  28556M 28557M
                                                 28633M 28741M 28770M 28770  28885M 28950M 28970M 28987M 29042M 29058M
                                                 29077M 29077  29124M 29158M 29186M 29203M 29236M 29255M 29255  29302M
                                                 29336M 29364M 29381M 29414M 29433M 29433  29533M 29550M 29641M 29658M
                                                 29705M 29722M 29809M 29835M 29852M 29863M 29887M 29887  29966M 29983M
                                                 30019M 30039M 30053U 30419M 30420  30421  30422  30423  30565M 30566M
                                                 30567  30588M 30612M 30612  30729M 30729  30840M 30841M 30854M 30874M
                                                 30874  30881M 30908M 30927M 30927  31038M 31039M 31040M 31056M 31056
                                                 31063M 31090M 31109M 31109  31188M 31204M 31210  31212M 31236  31239M
                                                 31240M 31244  31246  31263M 31282M 31282  31546M 31563M 31599  31601M
                                                 31602  31603  31604  31605  31638M 31657M 31657  31775M 31794M 31794
                                                 31857M 31858M 31871M 31876M 31879  31891M 31898  31910M 31916M 31917
                                                 31938M 31957M 31957  32087M 32106M 32106  32176M 32177M 32190M 32195M
                                                 32198  32210M 32217  32229M 32234  32255M 32274M 32274  32443M 32473M
                                                 32477M 32486M 32486  32493  32553M 32566M 32566  32605M 32623M 32625M
                                                 32634M 32634  32641  32657  32705M 32724M 32724  33037M 33037  33057M
                                                 33081M 33094M 33094  33101M 33106  33141M 33148M 33167M 33167  33326M
                                                 33345M 33345  33409M 33426M 33431M 33450M 33450  33567M 33586M 33586
                                                 33660M 33698M 33717M 33717  33783  33785M 33860M 33860  33901M 33901
                                                 33929M 33929  34010M 34029M 34029  34114M 34133M 34133  34372M 34437M
                                                 34437  34462M 34519M 34519  34548M 34548  34710M 34715M 34739M 34739
                                                 34836M 34836  34861M 34907M 34940M 34961M 34978M 35002M 35002  35129M
                                                 35129  35208M 35208  35275M 35280M 35304M 35304  35354M 35373M 35373
                                                 35477M 35498M 35516M 35544M 35580M 35600M 35622M 35650M 35684M 35704M
                                                 35745M 35755M 35779M 35779  35869M 35888M 35888  35980M 35999M 35999
 R2            2 00000002 FFFFFFFF A   #     725  9925M 10006M 10019M 10019  12299M 20257M 20258M 20271M 20271  20283M
                                                 20401M 20404M 20415M 20415  20426M 20535M 20537  21394M 21394  21446M
                                                 21461M 21461  21817M 23402M 23430M 23435M 23444M 23444  23451  23518M
                                                 23518  23525  23912M 23922  24630M 24631M 24632M 24658  24668  24826M
                                                 24827  24838M 24838  24877  25292  25484M 25587M 25643M 26098M 26152
                                                 26338  26702M 26734  27296M 27298  27331  28013M 28040  28050  28051
                                                 28066  28105  28164  28325M 28326M 28326  28360M 28360  28396M 28413M
                                                 28413  28429  28441M 28448  28460M 28469  28478  28524  29669M 29681
                                                 30201M 30213  30433M 30434  30435  30517M 30518M 30520M 30529M 30529
                                                 30535M 30548  31213M 31231M 31236M 31244  31246M 31247  32455M 32466
                                                 32529M 32529  32541  32811M 32822M 32822  32853M 33214M 33229  33314M
                                                 33783M 33817  33833  33847  33887  34397  34927M 34949
 R3            3 00000003 FFFFFFFF A   #     738  9924M 10004M 11113M 11234  11247  13470M 13478  13919M 13919  13957
                                                 14110M 14112  14112M 14174M 14176  14176M 20396M 20403  23425M 23429M
                                                 24625M 24631  24646  24670M 24670  24672M 24877M 26097M 26147  26333
                                                 26701M 26729  28051M 28053M 28078  28100  28159  28466M 28477  30058M
                                                 30059  30075  30179M 30298M 30299  30315  30337M 30455M 30456  30472
                                                 30494M 32381M 32382M 32395M 32400M 32403  32415M 32422  32434M 32466
                                                 32541  32677  32936M 32944  33215M 33244U 33313M 34392
 R4            4 00000004 FFFFFFFF A   #     751  8767M  8778  10134M 10236M 10247  10700M 11112M 11252  13468M 13494
                                                 20234M 20260  20305  23387M 23403  23470  23474M 23483M 23483  23490
                                                 24624M 24628  24630  24673M 24673  26414M 26453M 26454M 27041M 27042M
                                                 27043M 27053U 27146M 27147M 27148M 27158U 29480M 29481M 29482M 29492U
                                                 30059M 30060M 30061M 30090U 30178M 30219M 30220M 30221M 30231U 30299M
                                                 30300M 30301M 30330U 30336M 30349M 30351  30353M 30354M 30364U 30456M
                                                 30457M 30458M 30487U 30493M 30507M 30508  30775M 30776  30973M 30974
                                                 31328M 31329M 31330M 31340U 32320M 32321M 32322M 32332U
1VIEW     (VIEW2025) (13:00) (15MAR04) Ordinary Symbol and Literal Cross Reference                                          Page  165
 R5            5 00000005 FFFFFFFF A   #     764  7721M  7808M  7809M  7810M  7822   7853U  8768M  8793U 10133M 10237M
                                                 10262U 10699M 11111M 11161  11189  11391M 11391  11495M 11545M 11545
                                                 11577U 15740M 15742  20236M 20237M 20238M 20248U 20379M 20380M 20381M
                                                 20391U 20518M 20519M 20520M 20530U 23386M 23686M 23687M 23688M 23698U
                                                 24117M 24118M 24119M 24129U 24627M 24628M 24677M 24686M 24686  24693
                                                 24726M 24745  24794M 24800  27630M 27631M 27632M 27642U 27987M 27988M
                                                 27989M 27999U 28896M 28897M 28910M 28926  29000  29001M 29002M 29012U
                                                 29563M 29572M 29572  29578M 29579M 29589U 30000M 30001M 30002M 30012U
                                                 30296M 30454M 30506M 30776M 30777M 30778M 30788U 30974M 30975M 30976M
                                                 30986U 31155M 31156M 31157M 31167U 31576M 31577M 31578M 31588U 31703M
                                                 31704M 31705M 31715U 31840M 31841M 31842M 31852U 32003M 32004M 32005M
                                                 32015U 32152M 32153M 32154M 32164U 32346M 32347M 32347  32365M 32366M
                                                 32376U 32989M 32990M 32990  33011U
 R6            6 00000006 FFFFFFFF A   #     777  7858M  7876M  7876   7918   7957   7996   8112   8147   8198   8233
                                                  8284   8393   8433   8468   8519   8578   8618   8653   8704   8768
                                                  8778   8862   8994  10237  10247  11121M 11131U 11258  11384M 11450M
                                                 11450  11469M 11485  11551  11610  11632U 11832M 11848U 11862M 11863M
                                                 11863  16072M 16082U 16694U 30802M 30803M 30803  30821M 30822M 30835U
                                                 31000M 31001M 31001  31019M 31020M 31033U 34333M 34343U 34694U 34794U
                                                 35101U 35180U 35259U 35428U
 R7            7 00000007 FFFFFFFF A   #     790  2097M  2097   2098B  2110B
 R8            8 00000008 FFFFFFFF A   #     803  7717U 16068U 21700U 22777U 24281U 25947U 27891U 34329U
 SCANCHK       1 00000000 00000007     T   10915 10915  15826  16672
 SCINIT        1 00000000 0000002F     T   20594 20594
 SCNNOOP       1 00000000 0000002C     T   17240 17240  18986  19001  19016  19031  19046  19061  19076  19091
 SDSNQSZ       1 0000002C FFFFFFEC A   U    6085  6086   6087
 SEG           1 00000000 00000008     T   10917 10917  12383  20600  25689  26806  28786  33461  34145  36017
 SEGB          1 00000000 0000000C     T   10925 10925  12382  25698  26811
 SEGCR         1 00000000 0000000B     T   10923 10923  12380
 SEGDC         1 00000000 00000009     T   10919 10919  12384  33463  36021
 SEGHX         1 00000000 0000000D     T   10926 10926
 SEGINIT       1 00000000 00000027     T   16666 16666  36014
 SEGT          1 00000000 00000049     T   33467 33467
 SELDELTA      1 00000000 0000003E     T   25705 25705
 SETVIEW       2 00000018 00000001     H    6831  6827
 SETVINFO      1 00000000 00000022     T   15841 15841  33489
 SHOWVIEW      2 0000009C 00000001     H    6935  6931
 SHVWDBUG      2 00000358 00000001     H    7675  7600   7671
 SHVWPRT       4 000002B8 00000001     F    7588 10916
 SHVWTRC       2 000010F0 00000001     H   11723  7615  11719
 SHVWWA      128 00000000 FFFFFFE6     J    7666  7688   7717U 10734  10736  10737
 SPLIT         2 000058D2 00000001     H   27232 17390  18129  18895
 SPLITXIT      2 0000592A 00000001     H   27342 27290B 27322B
 SPR          13 0000000D 00000001 A   #    1112  6837   6840   6841   6842M  6842   6915M  6919   6921   6941   6944
                                                  6945   6946M  6946   7575M  7579   7581   7682   7685   7687   7688M
                                                  7688  10730M 10734  10736  10755  10758  10759  10760M 10760  10888M
                                                 10892  10894  11064  11067  11068  11069M 11069  11321M 11325  11327
                                                 11355  11358  11359  11360M 11360  11703M 11707  11709  11729  11732
                                                 11733  11734M 11734  12351M 12355  12357  12420  12423  12424  12425M
                                                 12425  12802M 12806  12808  12901  12904  12905  12906M 12906  12941M
                                                 12945  12947  12964  12967  12968  12969M 12969  13010M 13014  13016
                                                 13422  13425  13426  13427M 13427  13528M 13532  13534  13549  13552
                                                 13553  13554M 13554  13642M 13646  13648  13663  13666  13667  13668M
                                                 13668  13708M 13712  13714  13729  13732  13733  13734M 13734  13775M
                                                 13779  13781  13796  13799  13800  13801M 13801  13866M 13870  13872
                                                 13887  13890  13891  13892M 13892  13999M 14003  14005  14081  14084
                                                 14085  14086M 14086  14124M 14128  14130  14145  14148  14149  14150M
                                                 14150  14188M 14192  14194  14209  14212  14213  14214M 14214  14255M
                                                 14259  14261  14276  14279  14280  14281M 14281  14351M 14355  14357
1VIEW     (VIEW2025) (13:00) (15MAR04) Ordinary Symbol and Literal Cross Reference                                          Page  166
                                                 14372  14375  14376  14377M 14377  14445M 14449  14451  14466  14469
                                                 14470  14471M 14471  14540M 14544  14546  14561  14564  14565  14566M
                                                 14566  14606M 14610  14612  14627  14630  14631  14632M 14632  14673M
                                                 14677  14679  14694  14697  14698  14699M 14699  14767M 14771  14773
                                                 14788  14791  14792  14793M 14793  14862M 14866  14868  14883  14886
                                                 14887  14888M 14888  14934M 14938  14940  14955  14958  14959  14960M
                                                 14960  15007M 15011  15013  15028  15031  15032  15033M 15033  15079M
                                                 15083  15085  15100  15103  15104  15105M 15105  15152M 15156  15158
                                                 15173  15176  15177  15178M 15178  15237M 15241  15243  15258  15261
                                                 15262  15263M 15263  15322M 15326  15328  15343  15346  15347  15348M
                                                 15348  15388M 15392  15394  15409  15412  15413  15414M 15414  15455M
                                                 15459  15461  15476  15479  15480  15481M 15481  15546M 15550  15552
                                                 15567  15570  15571  15572M 15572  15612M 15616  15618  15633  15636
                                                 15637  15638M 15638  15679M 15683  15685  15704  15707  15708  15709M
                                                 15709  15800M 15804  15806  16033  16036  16038  16039M 16039  16646M
                                                 16650  16652  19184  19187  19188  19189M 19189  19230M 19234  19236
                                                 19255  19258  19259  19260M 19260  19449M 19453  19455  19474  19477
                                                 19478  19479M 19479  19565M 19569  19571  19592  19595  19596  19597M
                                                 19597  19677M 19681  19683  19702  19705  19706  19707M 19707  19786M
                                                 19790  19792  19811  19814  19815  19816M 19816  19932M 19936  19938
                                                 19957  19960  19961  19962M 19962  20078M 20082  20084  20103  20106
                                                 20107  20108M 20108  20180M 20184  20186  20205  20208  20209  20210M
                                                 20210  20325M 20329  20331  20350  20353  20354  20355M 20355  20464M
                                                 20468  20470  20489  20492  20493  20494M 20494  20574M 20578  20580
                                                 20635  20638  20639  20640M 20640  21011M 21015  21017  21036  21039
                                                 21040  21041M 21041  21270M 21274  21276  21295  21298  21299  21300M
                                                 21300  21491M 21495  21497  21516  21519  21520  21521M 21521  21620M
                                                 21624  21626  21665  21668  21670  21671M 21671  21916M 21920  21922
                                                 21941  21944  21945  21946M 21946  22264M 22268  22270  22289  22292
                                                 22293  22294M 22294  22616M 22620  22622  22675  22678  22679  22680M
                                                 22680  22720M 22724  22726  22742  22745  22747  22748M 22748  24201M
                                                 24205  24207  24246  24249  24251  24252M 24252  24979M 24983  24985
                                                 25004  25007  25008  25009M 25009  25148M 25152  25154  25173  25176
                                                 25177  25178M 25178  25257M 25261  25263  25289  25292  25293  25294M
                                                 25294  25583M 25587  25589  25611  25614  25615  25616M 25616  25660M
                                                 25664  25666  25752  25755  25756  25757M 25757  25798M 25802  25804
                                                 25823  25826  25827  25828M 25828  25867M 25871  25873  25912  25915
                                                 25917  25918M 25918  26502M 26506  26508  26527  26530  26531  26532M
                                                 26532  26787M 26791  26793  26852  26855  26856  26857M 26857  26959M
                                                 26963  26965  26984  26987  26988  26989M 26989  27092M 27096  27098
                                                 27117  27120  27121  27122M 27122  27213M 27217  27219  27238  27241
                                                 27242  27243M 27243  27354M 27358  27360  27379  27382  27383  27384M
                                                 27384  27554M 27558  27560  27579  27582  27583  27584M 27584  27790M
                                                 27794  27796  27856  27859  27861  27862M 27862  28762M 28766  28768
                                                 28820  28823  28824  28825M 28825  29069M 29073  29075  29094  29097
                                                 29098  29099M 29099  29247M 29251  29253  29272  29275  29276  29277M
                                                 29277  29425M 29429  29431  29450  29453  29454  29455M 29455  29879M
                                                 29883  29885  29904  29907  29908  29909M 29909  30604M 30608  30610
                                                 30630  30633  30634  30635M 30635  30721M 30725  30727  30746  30749
                                                 30750  30751M 30751  30919M 30923  30925  30944  30947  30948  30949M
                                                 30949  31101M 31105  31107  31126  31129  31130  31131M 31131  31274M
                                                 31278  31280  31299  31302  31303  31304M 31304  31649M 31653  31655
                                                 31674  31677  31678  31679M 31679  31786M 31790  31792  31811  31814
                                                 31815  31816M 31816  31949M 31953  31955  31974  31977  31978  31979M
                                                 31979  32098M 32102  32104  32123  32126  32127  32128M 32128  32266M
                                                 32270  32272  32291  32294  32295  32296M 32296  32716M 32720  32722
                                                 32741  32744  32745  32746M 32746  33159M 33163  33165  33185  33188
                                                 33189  33190M 33190  33337M 33341  33343  33362  33365  33366  33367M
                                                 33367  33442M 33446  33448  33537  33540  33541  33542M 33542  33578M
1VIEW     (VIEW2025) (13:00) (15MAR04) Ordinary Symbol and Literal Cross Reference                                          Page  167
                                                 33582  33584  33603  33606  33607  33608M 33608  33709M 33713  33715
                                                 33754  33757  33758  33759M 33759  33921M 33925  33927  33946  33949
                                                 33950  33951M 33951  34021M 34025  34027  34050  34053  34054  34055M
                                                 34055  34125M 34129  34131  34294  34297  34299  34300M 34300  34540M
                                                 34544  34546  34656  34659  34660  34661M 34661  34731M 34735  34737
                                                 34756  34759  34760  34761M 34761  34994M 34998  35000  35063  35066
                                                 35067  35068M 35068  35121M 35125  35127  35142  35145  35146  35147M
                                                 35147  35200M 35204  35206  35221  35224  35225  35226M 35226  35296M
                                                 35300  35302  35321  35324  35325  35326M 35326  35365M 35369  35371
                                                 35390  35393  35394  35395M 35395  35771M 35775  35777  35796  35799
                                                 35800  35801M 35801  35880M 35884  35886  35904  35907  35908  35909M
                                                 35909  35991M 35995  35997
 TOP           2 00003FD0 00000001     H   19805 17014  17405  18610
 TRC           1 00000000 00000000 A   T    2126  2126
 TTYAWID       2 0000000C FFFFFFEA     H    6266 33025M 33025  33057  33074
 TTYFLAG       1 00000004 FFFFFFEA     R    6214  6218
 TTYMAX#       1 00000006 FFFFFFEA A   U    6270  6271
 TTYPE       268 00000000 FFFFFFEA     J    6305 33011U
 TTYTFLAG      1 00000005 FFFFFFEA     R    6224  6228   6233   6238   6243   6248   6253   6258
 TTYWID        2 0000000A FFFFFFEA     H    6265 33050  33081  33101
 UNMARK        2 00004F80 00000001     H   25167 18384  18760  25711
 UNPRST        1 00000001 FFFFFFEC A   U    6174 15834
 UP            2 00003F2A 00000001     H   19586 17029  17420  18219  18625
 UPDCPSIB      1 00000000 0000004F     T   33485 33485
 UPPTBL        1 00000000 00000000 A   T    2189  2189
 VATTNMSG     66 00006DE4 00000001     X   34034 33982  33982
 VATTNST      47 00006DE4 00000001     C   34032 34034  34034
 VCLRMSG      44 00006E86 00000001     C   34136 34080  34080
 VCMDEXIT      2 000023EC 00000001     H   16628 16243B
 VDEBUG        2 000020BC 00000001     H   15561 13380
 VFORMAT       2 00001E12 00000001     H   14555 13170
 VHEIGHT       2 00001A44 00000001     H   13416 13035
 VIEW          2 0000137E 00000001     H   12414 12410
 VIEWCMD       2 00002236 00000001     H   16026 16022
 VIEWKWS       4 00001634 00000001     F   13023 15837
 VIEWMSG      59 00002174 00000001     X   15813 15759  15759
 VIEWMSGX     28 00002174 00000001     C   15811 15813  15813
 VIEWPF        2 00006D1A 00000001     H   33748 33744
 VIEWPRT       4 00001508 00000001     F   12816 10913  15832
 VIEWPRTC      4 00001558 00000001     F   12847 15824
 VIEWPSH       2 000015FC 00000001     H   12958 12828  12859
 VIEWRNG       2 00002114 00000001     H   15698 15835
 VIEWTRC       2 00000F1C 00000001     H   11058 11054
 VIEWXCMD      2 00006EF2 00000001     H   34287 34283
 VIEW2025      1 00000000 00000001     R     999   997
 VINDAUTO      2 00001CC0 00000001     H   14075 14039
 VINDENT       2 00001B88 00000001     H   13881 13110
 VINDNULL      2 00001D26 00000001     H   14203 14024
 VINDNUM       2 00001CF4 00000001     H   14139 14054
 VINS          2 00001AF4 00000001     H   13657 13065
 VLNO          2 00000C1C 00000001     H   10749 10924
 VMARGIN       2 00001B4C 00000001     H   13790 13095
 VMULT         2 00001FE4 00000001     H   15252 13320
 VNODEBUG      2 000020E8 00000001     H   15627 13395
 VNOIND        2 00001D5A 00000001     H   14270 13125
 VNOINS        2 00001B20 00000001     H   13723 13080
 VNOPREP       2 00001F72 00000001     H   15094 13290
 VNOSPELL      2 00001F12 00000001     H   14949 13245
 VNOTRACE      2 00002052 00000001     H   15403 13350
1VIEW     (VIEW2025) (13:00) (15MAR04) Ordinary Symbol and Literal Cross Reference                                          Page  168
 VNOWRAP       2 00001EA6 00000001     H   14782 13215
 VNUM          2 00001DD6 00000001     H   14460 13155
 VPREP         2 00001F42 00000001     H   15022 13260  13275
 VPUTLINE      1 00000000 00000039     T   25685 25685
 VRESET        2 00001FA2 00000001     H   15167 13305
 VRNGLOOP      2 00002136 00000001     I   15742 15785B
 VSPELL        2 00001EE2 00000001     H   14877 13230
 VTAMATTN      2 00006D84 00000001     H   33940 34149
 VTAMCLR       2 00006E26 00000001     H   34044 34151
 VTCLEAR       2 0000207E 00000001     H   15470 13365
 VTRACE        2 00002026 00000001     H   15337 13335
 VTRC         26 00000000 FFFFFFE5     J   11038 11131U 11142M 11435U 11551  11577U 11593  11610  11632U 11649  11666M
                                                 11669  11832  11848U 11926
 VTRCACCT      5 00000012 FFFFFFE5     C   11011 11232M 12056  12104
 VTRCCLCK      8 00000008 FFFFFFE5     D   11008 11148M 11942
 VTRCDATA      1 0000001A FFFFFFE5     X   11031 11242  12293
 VTRCDLEN      2 00000018 FFFFFFE5     H   11028 11234M 11671  12224  12297
 VTRCFIN      64 00000017 FFFFFFE5        11024 11201M 12162
 VTRCFLAG      1 00000017 FFFFFFE5     R   11015 11019  11024
 VTRCFOUT    128 00000017 FFFFFFE5        11019 11173M 12138
 VTRCHDR      26 00000000 FFFFFFE5     X   11029 11141M 11141  11670  12387
 VTRCLINK      4 00000004 FFFFFFE5     A   11007 11143M 11463M 11463  11498  11551  11610M 11610  11667M 11832  11862
 VTRCSNO       2 00000010 FFFFFFE5     H   11010 11223M 11996
 VTRCSTRT      4 00000000 FFFFFFE5     C   11006 11029  11029
 VUNFMT        2 00001E3E 00000001     H   14621 13185
 VUNN          2 00001D9A 00000001     H   14366 13140
 VUNREC        2 00001426 00000001     H   12594 12508B
 VWA         772 00000000 FFFFFFE4     J   16017 16039  16068U 16072  16082U 16650  16652  16653  16694U 30898U 31080U
 VWACHKL       4 00000004 FFFFFFE4     F   15902 16094M 16391  16402  20985M 21244M 23684M 26938M 27333M 28731M
 VWACMD       64 0000004C FFFFFFE4     C   15997 16512M 16512  16519  16519  16679  27807
 VWAFLAG       1 00000000 FFFFFFE4     R   15879 15883  15888  15893  15898  15998  15998
 VWAFLBOT     16 00000000 FFFFFFE4        15898 16431  20991M 21250M
 VWAFNCMD     64 00000000 FFFFFFE4        15888 16597  27188M
 VWAFNLOC    128 00000000 FFFFFFE4        15883 16525M 16541  33693M
 VWAFPOS      32 00000000 FFFFFFE4        15893 16178M 19308
 VWAGCOL       2 00000044 FFFFFFE4     H   15993 23002M 25357M 25467  25556M
 VWAGLEN       2 00000046 FFFFFFE4     H   15994 25344M
 VWAGLINE    235 00000104 FFFFFFE4     C   16006 19356  20712  21351  21403  23022  23348  25339  25484  25533M 26013
                                                 26617  28007  28350  28558
 VWAGLNO       4 00000048 FFFFFFE4     F   15995 23003M 23968M 25318  25362M 25375  25393  25554  25555M
 VWAINIT     140 00000000 FFFFFFE4     X   15998 16093M 16093
 VWAPLINE    235 00000204 FFFFFFE4     C   16009 20962  21234  21826  21831  23390  24611  24746  24810
 VWAPTRS       4 0000008C FFFFFFE4     F   16001 16268M 16309
 VWASG        60 00000008 FFFFFFE4     X   15991 16118  19867  19884  20013  20030  21763  21780  21863  22833  22886
                                                 22931  22983  23199  23253  23270  24330  25061  25105  25979  25996
                                                 26041  26058  26160  26177  26217  26257  26297  26346  26363  26386
                                                 26409  26474  26583  26600  26645  26662  26742  26759  27519  28885
                                                 28950  28970  28987  29158  29186  29203  29336  29364  29381  29533
                                                 29550  29641  29658  29705  29722  29809  29835  29852  29966  29983
                                                 31546  31563  32605  33141  33409  33426  33660
 VWASGBUF     80 000000B4 FFFFFFE4     C   16004 16105  16110  16575
 VWASGCOD      1 00000008 FFFFFFE4     R   15908 15917  15927  15937  15947  15957  15967  15977
 VWASGLENF
               4 00000014 FFFFFFE4     A   15983 16548
 VWAVAR       32 00000094 FFFFFFE4     C   16002 16269M 16270M 16279  16284  16290M 16299  16304  16664
 VWIDTH        2 00001AAE 00000001     H   13543 13050
 VWRAP         2 00001E6A 00000001     H   14688 13200
 VWUNREC       2 000015D0 00000001     H   12895 12889
 VXFROW        4 00000004 FFFFFFDE     F   34182 34872  35184M
1VIEW     (VIEW2025) (13:00) (15MAR04) Ordinary Symbol and Literal Cross Reference                                          Page  169
 VXSEG        60 00000008 FFFFFFDE     X   34271 34372  34462  34710  34861  34907  34940  34961  35275  35477  35498
                                                 35516  35544  35580  35600  35622  35650  35684  35704  35745
 VXSEGCOD      1 00000008 FFFFFFDE     R   34188 34197  34207  34217  34227  34237  34247  34257
 VXSEGLENF
               4 00000014 FFFFFFDE     A   34263 34482
 VXSEGLOC      4 00000028 FFFFFFDE     A   34267 34477
 VXWA         68 00000000 FFFFFFDE     J   34278 34300  34329U 34333  34343U 34353M 34353  34544  34546  34547  34694U
                                                 34794U 35101U 35180U 35259U 35428U
 VXWNO         4 00000000 FFFFFFDE     F   34181 34871  35105M
 WACTNEXT      2 00005E28 00000001     H   29088 17691
 WACTPREV      2 00005EB0 00000001     H   29266 17721
 WAR           8 00000008 00000001 A   #    1035  6841M  6915   6945M  7575   7687M 10730  10759M 10877  10888  11068M
                                                 11321  11359M 11703  11733M 12351  12424M 12802  12905M 12941  12968M
                                                 12999  13010  13426M 13528  13553M 13642  13667M 13708  13733M 13775
                                                 13800M 13866  13891M 13999  14085M 14112  14124  14149M 14176  14188
                                                 14213M 14255  14280M 14351  14376M 14445  14470M 14540  14565M 14606
                                                 14631M 14673  14698M 14767  14792M 14862  14887M 14934  14959M 15007
                                                 15032M 15079  15104M 15152  15177M 15237  15262M 15322  15347M 15388
                                                 15413M 15455  15480M 15546  15571M 15612  15637M 15679  15708M 15800
                                                 16038M 16646  19188M 19230  19259M 19449  19478M 19565  19596M 19677
                                                 19706M 19786  19815M 19932  19961M 20078  20107M 20180  20209M 20325
                                                 20354M 20464  20493M 20574  20639M 21011  21040M 21270  21299M 21491
                                                 21520M 21620  21670M 21916  21945M 22264  22293M 22616  22679M 22720
                                                 22747M 24201  24251M 24979  25008M 25148  25177M 25257  25293M 25583
                                                 25615M 25649  25660  25756M 25798  25827M 25867  25917M 26502  26531M
                                                 26787  26856M 26959  26988M 27092  27121M 27213  27242M 27354  27383M
                                                 27554  27583M 27790  27861M 28762  28824M 29069  29098M 29247  29276M
                                                 29425  29454M 29879  29908M 30604  30634M 30721  30750M 30919  30948M
                                                 31101  31130M 31274  31303M 31649  31678M 31786  31815M 31949  31978M
                                                 32098  32127M 32266  32295M 32716  32745M 33159  33189M 33337  33366M
                                                 33442  33541M 33578  33607M 33709  33758M 33921  33950M 34021  34054M
                                                 34125  34299M 34507  34540  34660M 34731  34760M 34994  35067M 35121
                                                 35146M 35200  35225M 35296  35325M 35365  35394M 35771  35800M 35880
                                                 35908M 35991
 WCOLEXIT      2 0000653A 00000001     H   31637 31370B 31568B
 WCOLREWR      2 0000691C 00000001     H   33179 33482
 WCOLUMN       2 00006448 00000001     H   31293 17541  18925
 WERROR        2 00006984 00000001     H   33356 17450  17511  17526  17556  17571  17586  17601  17616  17646  17676
                                                 17706  17736  17811  17841  17856
 WIDERR        2 000068F4 00000001     H   33124 32801B
 WIDEXIT       2 0000690A 00000001     H   33147 32979B 33111B
 WIND         64 00000000 FFFFFFE8     J    6665  8793U 20248U 20391U 20530U 20609  23698U 24129U 25722  27642U 27999U
                                                 28796  29012U 29589U 30012U 30053U 30350M 30507  30555  30835U 30881
                                                 31033U 31063  31167U 31588U 31715U 31852U 32015U 32164U 32376U 33492
                                                 33498
 WINDACT       4 00000014 FFFFFFE8     F    6646  8970   8994  29042
 WINDELNO      4 0000001C FFFFFFE8     F    6649  9294  30421M 31603M
 WINDFCOL      2 0000000E FFFFFFE8     H    6641  9574  30854  31039  31238M 31871  32190  32395
 WINDFIX       1 00000000 0000004D     T   33476 33476
 WINDFLAG      1 00000000 FFFFFFE8     R    6607  6611   6616   6621   6626
 WINDFLNO      4 00000020 FFFFFFE8     F    6651  9097  20396  29035  30422M 31604M
 WINDFROW      2 00000006 FFFFFFE8     H    6636  9669  30058  30219  30298  30349  30351M 30455  31593
 WINDIND       2 00000010 FFFFFFE8     H    6643  9803  27672  28325  31917M 32032  32039M 32062M 32062
 WINDLLNO      4 00000024 FFFFFFE8     F    6652  9144  20535  30423M 31605M
 WINDLROW      2 00000008 FFFFFFE8     H    6637  9708  29681  30075  30315  30472  30507  30508M 31594
 WINDMARG      2 00000012 FFFFFFE8     H    6644  9872  27650  28013  32234M
 WINDMAX#      1 00000006 00000001 A   N    6595 33495
 WINDNEXT      1 00000040 FFFFFFE8     U    6658 10133  30019  30350  30454  30507  30543  30555
 WINDNO        2 00000002 FFFFFFE8     H    6632  8820   8862  29733
1VIEW     (VIEW2025) (13:00) (15MAR04) Ordinary Symbol and Literal Cross Reference                                          Page  170
 WINDSLNO      4 00000018 FFFFFFE8     F    6648  9247  30420M 31602M
 WINDTABS     16 00000030 FFFFFFE8     X    6657  9924   9925  32442  32443  32512M 32512M 32587  32587
 WINDTCNT      2 00000004 FFFFFFE8     H    6634  9401  31599M
 WINDTCOL      2 0000000A FFFFFFE8     H    6638  9440  30841  31210M 31858  32177  32382
 WINDTLEN      2 0000000C FFFFFFE8     H    6639  9479  31247M
 WINFMOD      64 00000000 FFFFFFE8         6616 10103  30430M 30515M 31612M
 WINFREWR    128 00000000 FFFFFFE8         6611 10065  20438M 20548M 31184M
 WINFUNN      32 00000000 FFFFFFE8         6621 31178M 31198  31223
 WINFWRAP     16 00000000 FFFFFFE8         6626 23712  24143  31725M 31750M 32174M
 WJEXIT        2 0000627C 00000001     H   30587 29994B
 WJOIN         2 0000608C 00000001     H   29898 17631  18414
 WLAUTO        2 00006614 00000001     H   31968 17932
 WLEFT         2 000062D8 00000001     H   30740 17661  33478
 WLMARGIN      2 000065A0 00000001     H   31805 17872
 WNUM          2 000063C4 00000001     H   31120 17796
 WRAP          2 00005A94 00000001     H   27849 18971  25703
 WRAPDO        4 00005B9A 00000001     I   28311 28086B 28135B 28196B 28209B 28222B 28241B 28260B
 WRAPEXIT      2 00005CD4 00000001     H   28740 27925B 28043B
 WRAPFCOL    128 00000000 FFFFFFDF        27827 27952M 28673
 WRAPFLAG      1 00000000 FFFFFFDF     R   27823 27827
 WRAPLEN       2 0000000C FFFFFFDF     H   27833 28311M
 WRAPMAXL      2 0000000E FFFFFFDF     H   27834 28050M 28635
 WRAPNI        2 00005C58 00000001     H   28539 28355B 28416B 28475B 28493B
 WRAPNLNO      4 00000008 FFFFFFDF     F   27832 28319M 28470  28499  28517  28557  28633  28652M 28691  28731
 WRAPOLNO      4 00000004 FFFFFFDF     F   27831 28318M 28349  28550
 WRAPWA       16 00000000 FFFFFFDF     J   27841 27862  27891U 27901M 27901  28766  28768  28769
 WRIGHT        2 00006350 00000001     H   30938 17751
 WRMARGIN      2 00006670 00000001     H   32117 17887
 WSELECT       2 00005D58 00000001     H   28814 17948  17963  17978  17993  18008  18023  18038  18053  18068  18083
 WSELEXIT      2 00005E16 00000001     H   29057 28890B 28992B
 WSPLEXIT      4 0000607A 00000001     I   29863 29555B 29663B 29727B 29857B
 WSPLIT        2 00005F38 00000001     H   29444 17766  18399
 WTAB          2 000066E6 00000001     H   32285 17781
 WTABEXIT      2 000067DA 00000001     H   32704 32359B 32616B
 WTABREWR      4 000067D0 00000001     I   32681 32513B
 WTOSG         1 00000000 00000000 A   T    2086  2086
 WWIDTH        2 000067EC 00000001     H   32735 17826  33477
 WWRAP         2 0000654C 00000001     H   31668 17902  17917
 WYLVIEW       1 00000000 00000001     J     990   992   1017   1030   1043   1055   1068   1081   1094   1107   1120
                                                  1133   2370   2454   6194   6306   6586   6591   6666   6811   7667
 XCMDERR       2 000070D0 00000001     H   34650 34642
 XCMDGETB      2 00007340 00000001     H   35384 34597
 XCMDNEW       2 0000710E 00000001     H   34750 34567
 XCMDPRT       4 00006FE0 00000001     F   34555 36015
 XCMDREMK      2 000074A0 00000001     H   35898 34627
 XCMDRES       2 0000730E 00000001     H   35315 34582
 XCMDUNMK      2 0000745A 00000001     H   35790 34612
 XGET          1 00000000 0000003C     T   25691 25691
 XNEWERR       2 000072D0 00000001     H   35215 35051
 XNEWPRT       4 00007200 00000001     F   35009 36019
 XNEWROW       2 000072A4 00000001     H   35136 35036
 XNEWWIND      2 00007278 00000001     H   35057 35021
 XSETSET       1 00000000 0000003B     T   25690 25690
 =A((DESNRTN+LOCATRTN+UNPRST))
               4 000021F4 00000001     A   15834 12783
 =A(-1)        4 00000D00 00000001     A   10927 10794
 =A(-2)        4 00000D04 00000001     A   10928 10816
 =A(-3)        4 00000D08 00000001     A   10929 10838
 =A(-8)        4 00005174 00000001     A   25704 23850
1VIEW     (VIEW2025) (13:00) (15MAR04) Ordinary Symbol and Literal Cross Reference                                          Page  171
 =A(BLKGET)
               4 00005164 00000001     A   25700 23381  23983
 =A(BLKGLINE)
               4 0000513C 00000001     A   25694 23025  23351  25342
 =A(BREAK)
               4 00005114 00000001     A   25688 21724
 =A(CMDPRT)
               4 00002434 00000001     A   16670 16352
 =A(COPY)      4 00005124 00000001     A   25692 22707
 =A(DELETE)
               4 0000516C 00000001     A   25702 23648  24056
 =A(FREEVTRC)
               4 000012D4 00000001     A   12375 11295
 =A(FREEVTRC)
               4 00002220 00000001     A   15845 15525
 =A(INDPRT)
               4 00002218 00000001     A   15843 13937
 =A(SHVWPRT)
               4 00000CD4 00000001     A   10916  6987
 =A(UNMARK)
               4 00005190 00000001     A   25711 24181  24961
 =A(VIEWKWS)
               4 00002200 00000001     A   15837 12993
 =A(VIEWPRT)
               4 00000CC8 00000001     A   10913  6883
 =A(VIEWPRT)
               4 000021EC 00000001     A   15832 12710
 =A(VIEWPRTC)
               4 000021CC 00000001     A   15824 12474
 =A(VIEWRNG)
               4 000021F8 00000001     A   15835 12784
 =A(VLNO)      4 00000CF4 00000001     A   10924  8150   8236   8471   8656   9100   9147   9250   9297  10604  10640
 =A(VTAMATTN)
               4 00006EC8 00000001     A   34149 33855
 =A(VTAMCLR)
               4 00006ED0 00000001     A   34151 33896
 =A(WCOLREWR)
               4 00006AD4 00000001     A   33482 31766  31921  32070  32238  32681
 =A(WLEFT)
               4 00006A9C 00000001     A   33478 30709
 =A(WRAP)      4 00005170 00000001     A   25703 23757  24151
 =A(WWIDTH)
               4 00006A98 00000001     A   33477 30693
 =A(X'F')      4 00006A04 00000001     A   33462 28897
 =A(X'273B')
               4 000012FC 00000001     A   12385 12299
 =A(XCMDPRT)
               4 00007504 00000001     A   36015 34423
 =A(XNEWPRT)
               4 00007524 00000001     A   36019 34822
 =A(0)         4 000012CC 00000001     A   12373 11161
 =A(0)         4 00005D3C 00000001     A   28790 28429  28441
 =A(1)         4 000012D0 00000001     A   12374 11189
 =A(1)         4 00004270 00000001     A   20598 19643  19655  19753  19765
 =A(1)         4 000050F8 00000001     A   25681 20824  22098  22110  22448  22460  23657  23669  23792  24646
 =A(1)         4 00006AD8 00000001     A   33483 31879  31891  32198  32210  32403  32415
 =A(12)        4 000055F8 00000001     A   26813 26239
 =A(130)       4 00006EBC 00000001     A   34146 33817
 =A(16)        4 000055FC 00000001     A   26814 26279
1VIEW     (VIEW2025) (13:00) (15MAR04) Ordinary Symbol and Literal Cross Reference                                          Page  172
 =A(161)       4 00006ECC 00000001     A   34150 33887
 =A(171)       4 00006EC0 00000001     A   34147 33833
 =A(173)       4 00006EC4 00000001     A   34148 33847
 =A(2)         4 0000242C 00000001     A   16668 16262  16451
 =A(20)        4 00005600 00000001     A   26815 26319
 =A(20)        4 00005D28 00000001     A   28785 27501
 =A(235)       4 00005140 00000001     A   25695 23038  23415  25429
 =A(235)       4 00005D40 00000001     A   28791 28448  28460  28490
 =A(235)       4 00006ADC 00000001     A   33484 31898  31910  32217  32229  32422  32434
 =A(4)         4 000021D8 00000001     A   15827 12505
 =A(4)         4 000055EC 00000001     A   26810 26133
 =A(8)         4 000055F4 00000001     A   26812 26199
 =AL2(-1)      2 00000D16 00000001     R   10933  7038
 =AL2(-1)      2 00006B20 00000001     R   33499 32032
 =AL2(L'ALICMD)
               2 00005D4C 00000001     R   28795 27626
 =AL2(L'HELPCMD)
               2 00004294 00000001     R   20607 19503
 =AL2(L'JCB)
               2 00000D46 00000001     R   10941  7809
 =AL2(L'LINT)
               2 00002450 00000001     R   16677 16142
 =AL2(L'LINT)
               2 00005D48 00000001     R   28793 27042  27147
 =AL2(L'LINT)
               2 00006B16 00000001     R   33494 29481  30060  30220  30300  30353  30457  30777  30975  31329  32321
 =AL2(L'VTRCHDR)
               2 00001304 00000001     R   12387 11115
 =AL2(L'VWACMD)
               2 00002454 00000001     R   16679 16518
 =AL2(L'WIND)
               2 000042B4 00000001     R   20609 20237  20380  20519
 =AL2(L'WIND)
               2 000051F2 00000001     R   25722 23687  24118
 =AL2(L'WIND)
               2 00005D4E 00000001     R   28796 27631  27988
 =AL2(L'WIND)
               2 00006B12 00000001     R   33492 29001  29578  30001  30296  30506  30535  30821  31019  31156  31577
                                                 31704  31841  32004  32153  32365
 =AL2(WINDMAX#)
               2 00006B18 00000001     R   33495 29509
 =AL2(1)       2 000051C0 00000001     R   25715 20705  23320  23338  24739
 =AL2(1)       2 00006B10 00000001     R   33491 28861  29948
 =AL2(1)       2 00007552 00000001     R   36029 35561
 =AL2(2*L'WIND)
               2 00006B1E 00000001     R   33498 30039
 =AL2(235)
               2 000051F4 00000001     R   25723 24397
 =AL4(-1)      4 00002440 00000001     R   16673 16391
 =AL4(-1000)
               4 00005188 00000001     R   25709 24006
 =AL4(-1000)
               4 00006A0C 00000001     R   33464 29029
 =C'           Flag: Mods'
              21 00000E74 00000001     C   10977 10114
 =C'           Flag: Rewrite'
              24 00000CB0 00000001     C   10912 10076
 =C'  ??? '
               6 0000131E 00000001     C   12390 12127
1VIEW     (VIEW2025) (13:00) (15MAR04) Ordinary Symbol and Literal Cross Reference                                          Page  173
 =C'  INPUT '
               8 000012B8 00000001     C   12369 12171
 =C'  OUTPUT '
               9 0000136D 00000001     C   12396 12147
 =C' ('        2 00000D9C 00000001     C   10948  8454   8639
 =C' (col='
               6 00000D84 00000001     C   10946  8180   8266
 =C' ** Cur **'
              10 00000DB0 00000001     C   10950  9005
 =C' ??????'
               7 00000EE3 00000001     C   10980 10318
 =C' by '      4 00000CEC 00000001     C   10922  7939   7978
 =C' chars)'
               7 00001377 00000001     C   12398 12245
 =C' column)'
               8 00000CA0 00000001     C   10910  8540   8725
 =C' lineno, '
               9 00000E1F 00000001     C   10966  8501   8686
 =C' windows being displayed.'
              25 00006B5E 00000001     C   33504 28978
 =C' Active file.'
              13 00006B88 00000001     C   33506 29194  29372
 =C' Cmd   '
               7 00000F06 00000001     C   10985 10420
 =C' Col   '
               7 00000EFF 00000001     C   10984 10399
 =C' Free  '
               7 00000EEA 00000001     C   10981 10336
 =C' FBLOCK='
               8 000074E8 00000001     C   36011 35507
 =C' FCOL='
               6 00007554 00000001     C   36030 35571
 =C' LBLOCK='
               8 000074F0 00000001     C   36012 35613
 =C' LCOL='
               6 0000755A 00000001     C   36031 35675
 =C' Msg   '
               7 00000F0D 00000001     C   10986 10441
 =C' MARGIN='
               8 00000C80 00000001     C   10906  7109
 =C' New   '
               7 00000EF1 00000001     C   10982 10357
 =C' Status'
               7 00000F14 00000001     C   10987 10462
 =C' Text  '
               7 00000EF8 00000001     C   10983 10378
 =C'.<'        2 000051E0 00000001     C   25717 22126
 =C'.>'        2 000051E2 00000001     C   25718 22476
 =C'.#'        2 00005D52 00000001     C   28798 27969  28028
 =C'.'         1 0000136C 00000001     C   12395 12080
 =C'.M '       3 0000524C 00000001     C   25726 22704
 =C'.M'        2 000051E6 00000001     C   25720 22853  22951  23219  23640  23731  24048
 =C'.WM'       3 00006C2C 00000001     C   33514 31737
 =C'.Z'        2 00005D50 00000001     C   28797 27737
 =C'('         1 00001376 00000001     C   12397 12206
 =C'(type HELP PAGE WINDOW for information).'
              40 000069D8 00000001     C   33460 33417
 =C'** Cur **'
               9 00000E32 00000001     C   10969  8873
1VIEW     (VIEW2025) (13:00) (15MAR04) Ordinary Symbol and Literal Cross Reference                                          Page  174
 =C').'        2 00006B1C 00000001     C   33497 29843
 =C'), last='
               8 00000C98 00000001     C   10909  8219
 =C'):'        2 00000D82 00000001     C   10945  8017
 =C')'         1 00000E1D 00000001     C   10964  8305
 =C'- View options'
              14 00000D38 00000001     C   10940  7561
 =C'---- --- ----   -----      ------  ----------'
              45 00000EB6 00000001     C   10979 10221
 =C'-----------------'
              17 00001356 00000001     C   12393 11873
 =C'/'         1 00000E46 00000001     C   10971  9130   9280
 =C', '        2 00000DE2 00000001     C   10955 10001
 =C', first='
               8 00000C90 00000001     C   10908  8133
 =C', text col='
              11 00000E47 00000001     C   10972  9422
 =C', text length='
              14 00000DCA 00000001     C   10953  9461
 =C','         1 00000E1E 00000001     C   10965  8414   8599   9690  10526
 =C':  '       3 00000E2F 00000001     C   10968  8841
 =C'a block into itself!'
              20 00005150 00000001     C   25699 23261
 =C'and then press BOTTOM [ESC B].'
              30 00004296 00000001     C   20608 20021
 =C'and then press TOP [ESC T].'
              27 000042E0 00000001     C   20614 19875
 =C'can''t be used as a word for guess.'
              34 00005696 00000001     C   26823 26354
 =C'copy.'
               5 0000524F 00000001     C   25727 22840
 =C'copy'      4 00005144 00000001     C   25696 23206
 =C'for GUESS [ESC G].'
              18 00005684 00000001     C   26822 26049
 =C'is already in the system dictionary.'
              36 00005628 00000001     C   26819 26750
 =C'is spelled correctly.'
              21 00005709 00000001     C   26826 26168
 =C'move.'
               5 00005254 00000001     C   25728 22862
 =C'move'      4 00005148 00000001     C   25697 23228
 =C'of a word.'
              10 0000567A 00000001     C   26821 25987
 =C'spelling dictionary.'
              20 00005610 00000001     C   26817 26591
 =C'there is only one window.'
              25 00006C00 00000001     C   33512 29974
 =C'to divide the page.'
              19 00006BD4 00000001     C   33510 29649
 =C'to LEARN [ESC L].'
              17 0000579C 00000001     C   26831 26653
 =C'too many windows.'
              17 00006BC3 00000001     C   33509 29541
 =C'want to undo first for OOPS [ESC O] function.'
              45 0000521F 00000001     C   25725 21771
 =C'with a column line.'
              19 00006C19 00000001     C   33513 31554
 =C'Active #'
               8 00000CA8 00000001     C   10911  8951
1VIEW     (VIEW2025) (13:00) (15MAR04) Ordinary Symbol and Literal Cross Reference                                          Page  175
 =C'Alternate cursor: '
              18 00000D9E 00000001     C   10949  8559
 =C'ACTIVE='
               7 00007573 00000001     C   36033 35468
 =C'AUTO'      4 00000CDC 00000001     C   10918  7049
 =C'Bad trace entry queue!'
              22 00001308 00000001     C   12389 11934
 =C'Block is not hidden.'
              20 000051A8 00000001     C   25713 25096
 =C'Can''t guess -- there is no spelling dictionary.'
              47 0000575E 00000001     C   26829 26288
 =C'Can''t guess.'
              12 00005604 00000001     C   26816 26377
 =C'Can''t join windows; '
              20 00006A78 00000001     C   33473 29957
 =C'Can''t split this window ('
              25 00006BE7 00000001     C   33511 29800
 =C'Can''t split this window, '
              25 00006BAA 00000001     C   33508 29524  29696
 =C'Current   cursor: '
              18 00000D8A 00000001     C   10947  8374
 =C'COPY [ESC C] to copy the block.'
              31 00005259 00000001     C   25729 22938
 =C'DEBUG '
               6 00000D28 00000001     C   10938  7501
 =C'First column-1='
              15 00000E52 00000001     C   10973  9556
 =C'First position the cursor and the press '
              40 000050C8 00000001     C   25678 22922
 =C'First/Last='
              11 00000E3B 00000001     C   10970  9083
 =C'Frow/Lrow='
              10 00000DD8 00000001     C   10954  9651
 =C'FORMATTED '
              10 00000D2E 00000001     C   10939  7540
 =C'HEL'       3 000042BA 00000001     C   20612 19505
 =C'Illegal line -- no CP.'
              22 00000D5E 00000001     C   10943  7886
 =C'Indent: missing operand.'
              24 000021B0 00000001     C   15822 14242
 =C'Indent='
               7 00000E61 00000001     C   10974  9785
 =C'INDENT='
               7 00000DEA 00000001     C   10959  7012
 =C'INSERT '
               7 00000DFF 00000001     C   10962  7331
 =C'Joined line would be too long.  No action taken.'
              48 00005CE8 00000001     C   28780 27510
 =C'Line '
               5 00001367 00000001     C   12394 11978
 =C'Line is out of bounds.'
              22 00000D48 00000001     C   10942  7832
 =C'Lines='
               6 00000DC4 00000001     C   10952  9383
 =C'Margin='
               7 00000E68 00000001     C   10975  9854
 =C'Marked block:  Active #'
              23 00000E06 00000001     C   10963  8093
 =C'MOVE [ESC M] to move the block.'
1VIEW     (VIEW2025) (13:00) (15MAR04) Ordinary Symbol and Literal Cross Reference                                          Page  176
              31 00005278 00000001     C   25730 22959
 =C'No block defined to '
              20 00005128 00000001     C   25693 22824
 =C'No block defined to delete.'
              27 00005297 00000001     C   25731 24321
 =C'No block is defined.'
              20 00005194 00000001     C   25712 25052
 =C'No previous copy of this line.'
              30 000051C2 00000001     C   25716 21854
 =C'No similar words found.'
              23 0000571E 00000001     C   26827 26208
 =C'NO BLOCK'
               8 000074F8 00000001     C   36013 35736
 =C'NO'        2 00000D1A 00000001     C   10935  7252   7309   7366
 =C'NUMBERED '
               9 00000DF1 00000001     C   10960  7217
 =C'OK WINDOW='
              10 00007548 00000001     C   36028 34931
 =C'OK'        2 00007544 00000001     C   36026 34500
 =C'OVTR'      4 000012D8 00000001     C   12376 11666
 =C'Position cursor to text line to be replaced '
              44 00006AA4 00000001     C   33480 31537
 =C'Position cursor to the start of a word '
              39 000056E2 00000001     C   26825 26032  26636
 =C'Position the cursor to a text line '
              35 000042BD 00000001     C   20613 19858  20004
 =C'Position the cursor to the text line you '
              41 000051F6 00000001     C   25724 21754
 =C'Press GUESS [ESC G] for the possible spelling '
              46 0000564C 00000001     C   26820 25970
 =C'Press LEARN [ESC L] to add a word to your '
              42 000056B8 00000001     C   26824 26574
 =C'Press WINDOW SPLIT [ESC W S] on a text line '
              44 00006A24 00000001     C   33470 29632
 =C'PREPARE '
               8 00000C88 00000001     C   10907  7423
 =C'PUB'       3 00002456 00000001     C   16680 16290
 =C'Screen image ('
              14 00000D74 00000001     C   10944  7900
 =C'Similar words: '
              15 0000578D 00000001     C   26830 26400
 =C'Start/End='
              10 00000DBA 00000001     C   10951  9233
 =C'SCAN ERROR'
              10 0000753A 00000001     C   36025 34453  34852
 =C'SPELL '
               6 00000D1C 00000001     C   10936  7388
 =C'Tabs='
               5 00000E6F 00000001     C   10976  9922
 =C'There are only '
              15 00006B4F 00000001     C   33503 28941
 =C'There is no next '
              17 00006B77 00000001     C   33505 29149
 =C'There is no previous '
              21 00006B95 00000001     C   33507 29327
 =C'There is only one window being displayed.'
              41 00006B26 00000001     C   33502 28876
 =C'This is the last line of the window.'
              36 00006A50 00000001     C   33471 29713
1VIEW     (VIEW2025) (13:00) (15MAR04) Ordinary Symbol and Literal Cross Reference                                          Page  177
 =C'Too many similar words, be more specific.'
              41 00005735 00000001     C   26828 26248
 =C'Too many tabs.  Can''t add new tab stop.'
              39 00006C2F 00000001     C   33515 32596
 =C'TRACE '
               6 00000D22 00000001     C   10937  7462
 =C'Unknown VIEW function.'
              22 00006EDC 00000001     C   34154 33651
 =C'Unrecognized WINDOW command '
              28 00006AF4 00000001     C   33490 33400
 =C'UN'        2 00000D18 00000001     C   10934  7195
 =C'UNRECOGNIZED COMMAND'
              20 00007510 00000001     C   36018 34701
 =C'UNRECOGNIZED OPTION'
              19 00007560 00000001     C   36032 35266
 =C'View buffer trace table is empty.'
              33 00001324 00000001     C   12391 11803
 =C'View buffer trace'
              17 00001345 00000001     C   12392 11815
 =C'VTRC'      4 000012C4 00000001     C   12371 11142  11593  11649  11926
 =C'Wind Row Type   Flags      Lineno  Old-lineno'
              45 00000E89 00000001     C   10978 10203
 =C'Window '
               7 00000E28 00000001     C   10967  8802
 =C'WRAP '
               5 00000DFA 00000001     C   10961  7274
 =C'You can''t '
              10 000051E8 00000001     C   25721 23190
 =C'You can''t change screen width on this terminal.'
              47 00006C56 00000001     C   33516 33132
 =CL(L'VWAVAR)'SES.SYSVIEW_x'
              32 00002400 00000001     C   16664 16269
 =CL3'JUS'
               3 00005D54 00000001     C   28799 27743
 =F'-1'        4 000012DC 00000001     F   12377 11667
 =F'-1'        4 0000221C 00000001     F   15844 14110
 =F'-1'        4 00002420 00000001     F   16665 16094
 =F'-1'        4 00006A90 00000001     F   33475 30419  31601
 =F'-1'        4 00006ED8 00000001     F   34153 33997  34101
 =F'-1000'
               4 0000517C 00000001     F   25706 23903
 =F'-1000'
               4 00005D1C 00000001     F   28782 27169
 =F'-1000'
               4 00006ED4 00000001     F   34152 33996  34100
 =F'-2'        4 00006A8C 00000001     F   33474 30334  30491
 =F'28'        4 00005D20 00000001     F   28783 27179
 =F'5'         4 0000426C 00000001     F   20597 19640  19750
 =H'-1'        2 00006B22 00000001     H   33500 32039
 =H'-1000'
               2 00000DE4 00000001     H   10956 10801
 =H'-2000'
               2 00000DE6 00000001     H   10957 10823
 =H'-3000'
               2 00000DE8 00000001     H   10958 10845
 =H'1'         2 000051E4 00000001     H   25719 22589  24061  25357  25556
 =H'1'         2 00005D4A 00000001     H   28794 27182
 =H'1'         2 00006B14 00000001     H   33493 29036
 =H'2'         2 000042B8 00000001     H   20611 20404
1VIEW     (VIEW2025) (13:00) (15MAR04) Ordinary Symbol and Literal Cross Reference                                          Page  178
 =H'4'         2 000042B6 00000001     H   20610 20258
 =V(ACTNEXT)
               4 00006A14 00000001     V   33466 29127
 =V(ACTPICK)
               4 00005180 00000001     V   25707 23910  23925  24371  24936
 =V(ACTPICK)
               4 00006A10 00000001     V   33465 29045  29226  29404
 =V(ACTPREV)
               4 00006A20 00000001     V   33469 29305
 =V(ACTVREST)
               4 00006A1C 00000001     V   33468 29230  29408
 =V(BTD)       4 00005D30 00000001     V   28787 27667  27714
 =V(BTR)       4 00000D0C 00000001     V   10930 10870
 =V(CALCDIM)
               4 00002214 00000001     V   15842 13622
 =V(CALCDIM)
               4 00006AE4 00000001     V   33486 32912  33109
 =V(CHKLINES)
               4 00005104 00000001     V   25684 20947  21201  23963
 =V(CHOPLINE)
               4 000050FC 00000001     V   25682 20832  20898  23800
 =V(CHOPLINE)
               4 00005D18 00000001     V   28781 26912  27302  28316
 =V(CLRTEXT)
               4 000021DC 00000001     V   15828 12536
 =V(CNTRANGE)
               4 00005184 00000001     V   25708 23918
 =V(CVEXNO)
               4 00007534 00000001     V   36023 35524  35630
 =V(DELRANGE)
               4 0000425C 00000001     V   20593 19411
 =V(DELRANGE)
               4 00005110 00000001     V   25687 21444  21575  24806  24859
 =V(DTB)       4 00000CE4 00000001     V   10920  7783
 =V(EDTCOM)
               4 00005D34 00000001     V   28788 27772
 =V(ENDLNO)
               4 0000510C 00000001     V   25686 21119
 =V(ESCFMT)
               4 00001300 00000001     V   12386 12302
 =V(FMTTIME)
               4 000012EC 00000001     V   12381 11948
 =V(FREECORE)
               4 000012E0 00000001     V   12378 11675
 =V(GBLCMD)
               4 00002430 00000001     V   16669 16287  16307
 =V(GETCORE)
               4 000012C0 00000001     V   12370 11119
 =V(GETLINE)
               4 00004258 00000001     V   20592 19359
 =V(GETLINE)
               4 000050F0 00000001     V   25679 20715  21354  21406  23393  24614  24749  24813
 =V(GETLINE)
               4 000055E0 00000001     V   26807 26016  26620
 =V(GETLINE)
               4 00005D38 00000001     V   28789 28010  28353  28473  28561
 =V(GETLINEX)
               4 000051BC 00000001     V   25714 25646
 =V(GETLNO)
1VIEW     (VIEW2025) (13:00) (15MAR04) Ordinary Symbol and Literal Cross Reference                                          Page  179
               4 000050F4 00000001     V   25680 20774  21097
 =V(GETVINFO)
               4 00002208 00000001     V   15839 13488
 =V(GETVINFO)
               4 00006AE8 00000001     V   33487 32954
 =V(GETWD)
               4 000055E4 00000001     V   26808 26077  26681
 =V(GUESSWD)
               4 000055E8 00000001     V   26809 26105
 =V(HELP)      4 00004264 00000001     V   20595 19551
 =V(JOINLINE)
               4 0000518C 00000001     V   25710 24100
 =V(JOINLINE)
               4 00005D24 00000001     V   28784 27455  28638
 =V(LEARNWD)
               4 00005624 00000001     V   26818 26708
 =V(LOCALTOD)
               4 000012C8 00000001     V   12372 11146
 =V(LRTRIM)
               4 00000D10 00000001     V   10931 10874
 =V(LRTRIM)
               4 00002428 00000001     V   16667 16210
 =V(NDETRNG)
               4 000021E8 00000001     V   15831 12691
 =V(NOTVALID)
               4 00000CE8 00000001     V   10921  7802
 =V(NOTVALID)
               4 000012E4 00000001     V   12379 11776
 =V(NOTVALID)
               4 000021E4 00000001     V   15830 12613
 =V(NSCAN)
               4 00000CCC 00000001     V   10914  6887   6991   7745
 =V(NSCAN)
               4 000021D0 00000001     V   15825 12478  12714  13941
 =V(NSCAN)
               4 00002438 00000001     V   16671 16356
 =V(NSCAN)
               4 00007508 00000001     V   36016 34427  34826
 =V(PAGEBOT)
               4 0000244C 00000001     V   16676 16489
 =V(PAGEBOT)
               4 00004280 00000001     V   20602 20065
 =V(PAGECLR)
               4 000021F0 00000001     V   15833 12769
 =V(PAGECLR)
               4 00004284 00000001     V   20603 20134  20255  20399
 =V(PAGECMD)
               4 000021E0 00000001     V   15829 12586
 =V(PAGECNT)
               4 00004268 00000001     V   20596 19633  19743
 =V(PAGECNT)
               4 00006AD0 00000001     V   33481 31597
 =V(PAGECOLS)
               4 00006AA0 00000001     V   33479 30884  31066
 =V(PAGEFILL)
               4 00002444 00000001     V   16674 16399
 =V(PAGEFIND)
               4 00002448 00000001     V   16675 16409
 =V(PAGEINIT)
1VIEW     (VIEW2025) (13:00) (15MAR04) Ordinary Symbol and Literal Cross Reference                                          Page  180
               4 0000220C 00000001     V   15840 13497  13846  13979  14331  14425  14520  14747  14842  15221  15306
 =V(PAGEINIT)
               4 000055D8 00000001     V   26805 25854
 =V(PAGEINIT)
               4 00006AEC 00000001     V   33488 32962
 =V(PAGEINIT)
               4 00007530 00000001     V   36022 35352
 =V(PAGELINE)
               4 00002224 00000001     V   15846 15745
 =V(PAGELINE)
               4 00004288 00000001     V   20604 20163
 =V(PAGEMAKE)
               4 00004290 00000001     V   20606 20293  20451  20553
 =V(PAGEMOD)
               4 00002228 00000001     V   15847 15762
 =V(PAGENEWW)
               4 00006A74 00000001     V   33472 29775
 =V(PAGENEWW)
               4 00007528 00000001     V   36020 34875
 =V(PAGESCRL)
               4 00004274 00000001     V   20599 19664  19773
 =V(PAGETCHK)
               4 000021C8 00000001     V   15823 12454
 =V(PAGETOP)
               4 0000427C 00000001     V   20601 19919
 =V(PREVLNO)
               4 0000428C 00000001     V   20605 20280  20423  20540
 =V(PREVLNO)
               4 00005100 00000001     V   25683 20881  23827
 =V(PUTLINE)
               4 00005168 00000001     V   25701 23548  24027
 =V(PUTLINE)
               4 00005D44 00000001     V   28792 28502
 =V(RDRNG)
               4 000021FC 00000001     V   15836 12787
 =V(RLOOKUP)
               4 00002204 00000001     V   15838 12996
 =V(RNGABORT)
               4 0000222C 00000001     V   15848 15778
 =V(SCANCHK)
               4 00000CD0 00000001     V   10915  6901   7005
 =V(SCANCHK)
               4 000021D4 00000001     V   15826 12492  13955
 =V(SCANCHK)
               4 0000243C 00000001     V   16672 16370
 =V(SCINIT)
               4 00004260 00000001     V   20594 19547
 =V(SEG)       4 00000CD8 00000001     V   10917  7024   7061   7121   7173   7207   7229   7264   7286   7321   7343
                                                  7378   7400   7435   7474   7513   7552   7912   7951   7990   8029
                                                  8105   8145   8174   8192   8231   8260   8278   8317   8386   8426
                                                  8466   8495   8513   8571   8611   8651   8680   8698   8814   8853
                                                  8885   8945   8963   9017   9077   9095   9124   9142   9171   9227
                                                  9245   9274   9292   9321   9377   9395   9434   9473   9550   9568
                                                  9645   9663   9702   9779   9797   9848   9866   9917   9970  10538
                                                 10598  10670
 =V(SEG)       4 000012F4 00000001     V   12383 11990  12044  12074  12092  12122  12199  12218
 =V(SEG)       4 00004278 00000001     V   20600 19870  19887  20016  20033
 =V(SEG)       4 00005118 00000001     V   25689 21766  21783  21866  22836  22889  22934  22986  23202  23273  24333
                                                 25064  25108
1VIEW     (VIEW2025) (13:00) (15MAR04) Ordinary Symbol and Literal Cross Reference                                          Page  181
 =V(SEG)       4 000055DC 00000001     V   26806 25982  25999  26044  26061  26180  26220  26260  26300  26366  26389
                                                 26412  26586  26603  26648  26665  26762
 =V(SEG)       4 00005D2C 00000001     V   28786 27522
 =V(SEG)       4 00006A00 00000001     V   33461 28888  28953  28990  29161  29206  29339  29384  29536  29553  29644
                                                 29661  29708  29725  29812  29838  29855  29969  29986  31549  31566
                                                 32608  33144  33412  33429
 =V(SEG)       4 00006EB8 00000001     V   34145 33663
 =V(SEG)       4 0000750C 00000001     V   36017 34465  34713  34864  34910  34943  35278  35480  35519  35547  35583
                                                 35625  35653  35687  35748
 =V(SEGB)      4 00000CF8 00000001     V   10925 10489  10634
 =V(SEGB)      4 000012F0 00000001     V   12382 11972
 =V(SEGB)      4 0000514C 00000001     V   25698 23256
 =V(SEGB)      4 000055F0 00000001     V   26811 26163  26349  26477  26745
 =V(SEGCR)
               4 00000CF0 00000001     V   10923  8054   8079   8342   8367   8552   8737   8762   8914   9046   9196
                                                  9346   9519   9614   9748  10053  10088  10126  10159  10184  10215
                                                 10233  10696
 =V(SEGCR)
               4 000012E8 00000001     V   12380 11827  11885  11910  12257  12282  12327
 =V(SEGDC)
               4 00000CE0 00000001     V   10919  7098   7142   7933   7972   8011   8127   8213   8299   8408   8448
                                                  8534   8593   8633   8719   8835   8985   9416   9455   9494   9589
                                                  9684   9723   9818   9887   9997  10289  10313
 =V(SEGDC)
               4 000012F8 00000001     V   12384 12014  12239
 =V(SEGDC)
               4 00006A08 00000001     V   33463 28973
 =V(SEGDC)
               4 0000752C 00000001     V   36021 34964  35501  35603  35707
 =V(SEGHX)
               4 00000CFC 00000001     V   10926 10520  10568
 =V(SEGINIT)
               4 00002424 00000001     V   16666 16121
 =V(SEGINIT)
               4 00007500 00000001     V   36014 34375
 =V(SEGT)      4 00006A18 00000001     V   33467 29189  29367
 =V(SELDELTA)
               4 00005178 00000001     V   25705 23871
 =V(SETVINFO)
               4 00002210 00000001     V   15841 13505
 =V(SETVINFO)
               4 00006AF0 00000001     V   33489 32970
 =V(UPDCPSIB)
               4 00006AE0 00000001     V   33485 32836
 =V(VPUTLINE)
               4 00005108 00000001     V   25685 20969  21241  21897  24716  24788  24920
 =V(WINDFIX)
               4 00006A94 00000001     V   33476 30577
 =V(XGET)      4 00005120 00000001     V   25691 21835
 =V(XSETSET)
               4 0000511C 00000001     V   25690 21805
 =Y((L'NSCNCB+3)/4*4)
               2 00007546 00000001     Y   36027 34513  34975
 =Y((R1+1-(R0)+16*((R0)/(R1+1))/((R0)/(R1+1)))*4)
               2 00002232 00000001     Y   15850 13501
 =Y((R1+1-(R0)+16*((R0)/(R1+1))/((R0)/(R1+1)))*4)
               2 00006B1A 00000001     Y   33496 29815  32966
 =Y((12+3)/4*4)
               2 00000D14 00000001     Y   10932  6893   6997   7751
1VIEW     (VIEW2025) (13:00) (15MAR04) Ordinary Symbol and Literal Cross Reference                                          Page  182
 =Y((12+3)/4*4)
               2 00002230 00000001     Y   15849 12484  12720  13947
 =Y((12+3)/4*4)
               2 00002452 00000001     Y   16678 16362
 =Y((12+3)/4*4)
               2 00007538 00000001     Y   36024 34433  34832
 =Y((256+3)/4*4)
               2 00002234 00000001     Y   15851 13508
 =Y((256+3)/4*4)
               2 00006B24 00000001     Y   33501 32973
 =Y(CVVTRC#)
               2 00001306 00000001     Y   12388 11282

1VIEW     (VIEW2025) (13:00) (15MAR04) Macro and Copy Code Source Summary                                                   Page  183
- Con Source                                        Volume    Members                        HLASM R4.0  2004/03/15 13.00
0     PRIMARY INPUT                                           CSECT    DROP     END      EX       FREECURS FREELINT
                                                              LTORG    POP      PRINT    PUSH     START    USING
   L1 WYL.GS.WYL.WYLBUR.MACLIB                      SYSB05    AINFO    BASE     BOMB     BTD      BTR      COLINFO
                                                              COMMENT  CONTROL  CP       CPLOCAL  CV       CVLOCAL  DTB
                                                              ERROR    FAIL     JCB      KAPUT    LINT     OSCINIT
                                                              PUSHRTN  RDRNG    RG       SCAN     SCANCB   SCANCHK
                                                              SCBKUP   SCCBADR  SCINIT   SCKW     SCPOP    SCPUSH
                                                              SEGINIT  TCR      THEX     TNUM     TSEG     TTYPE
                                                              VLTORG   WIND     XTRACE
   L2 WYL.GG.SYS.MACLIB                             SYSB05    $BC      $BFLKUP  $BV      $CCLKUP  $CRS     $CSS     $L
                                                              $LA      $LBLAD   $LEXP    $LOR     $REL     $RGLKUP
                                                              $USLKUP  ACALL    BEGIN    CEIL     CLEAR    COMPROC
                                                              CSECT    DATA     DECR     DEFCC    DROP     DTEX     ELSE
                                                              ELSEIF   END      EX       EXIT     FLAG     FLIP
                                                              FLOOR    GEN      HIBAL    IDENT    IF       INCR
                                                              LABEL    LC       LOOP     LS       LT       LTH
                                                              LTORG    MOVE     MOVEL    PEND     POP      PRETURN
                                                              PRINT    PROC     PUSH     QLTORG   RECORD   REG      REGS
                                                              SET      SETMSG   START    TEX      UNTIL    USING
                                                              VCALL    WHILE    WITH     XPROC
   L3 SYS3.IS.MACLIB                                SYSB05    SEG      SEGB     SEGCB    SEGCR    SEGDC    SEGDEF
                                                              SEGHX    SEGLD    SEGT     SIB      SYSDEFN  XPOP
                                                              XPUSH

1VIEW     (VIEW2025) (13:00) (15MAR04) Dsect Cross Reference                                                                Page  184
-Dsect     Length      Id       Defn                                                         HLASM R4.0  2004/03/15 13.00
0$$$@R0   00000000  FFFFFFFE     705
 $$$@R1   00000000  FFFFFFFD     718
 $$$@R10  00000000  FFFFFFF4     835
 $$$@R11  00000000  FFFFFFF3     848
 $$$@R12  00000000  FFFFFFF2     861
 $$$@R13  00000000  FFFFFFF1     874
 $$$@R14  00000000  FFFFFFF0     887
 $$$@R15  00000000  FFFFFFEF     900
 $$$@R2   00000000  FFFFFFFC     731
 $$$@R3   00000000  FFFFFFFB     744
 $$$@R4   00000000  FFFFFFFA     757
 $$$@R5   00000000  FFFFFFF9     770
 $$$@R6   00000000  FFFFFFF8     783
 $$$@R7   00000000  FFFFFFF7     796
 $$$@R8   00000000  FFFFFFF6     809
 $$$@R9   00000000  FFFFFFF5     822
 $$$RCOPYWA
          00000014  FFFFFFE2   22633
 $$$RCP   00001000  FFFFFFEC    2459
 $$$RCV   00000FB0  FFFFFFEE    1184
 $$$RDELWA
          00000004  FFFFFFE1   24218
 $$$RDEV  0000000C  FFFFFFEB    4673
 $$$RGSWA 00000080  FFFFFFE0   25884
 $$$RJCB  000000D0  FFFFFFE9    6311
 $$$RLINT 00000014  FFFFFFE7    6674
 $$$RNSCNCB
          000000B0  FFFFFFED    2380
 $$$ROOPSWA
          00000010  FFFFFFE3   21637
 $$$RSHVWWA
          00000080  FFFFFFE6    7653
 $$$RTTYPE
          0000010C  FFFFFFEA    6204
 $$$RVTRC 0000001A  FFFFFFE5   11000
 $$$RVWA  00000304  FFFFFFE4   15871
 $$$RVXWA 00000044  FFFFFFDE   34175
 $$$RWIND 00000040  FFFFFFE8    6599
 $$$RWRAPWA
          00000010  FFFFFFDF   27815
 HIBAL    00000000  FFFFFFFF     691

1VIEW     (VIEW2025) (13:00) (15MAR04) Using Map                                                                            Page  185
-                                                                                            HLASM R4.0  2004/03/15 13.00
   Stmt  -----Location----- Action ----------------Using----------------- Reg Max    Last  Label and Using Text
           Count      Id           Type          Value    Range     Id        Disp   Stmt
0   922  00000000  FFFFFFFF USING  ORDINARY    00000000 00001000 FFFFFFEF  15 000          @R15,15
    926  00000000  FFFFFFFF USING  ORDINARY    00000000 00001000 FFFFFFF0  14 002    2175  @R14,14
    930  00000000  FFFFFFFF USING  ORDINARY    00000000 00001000 FFFFFFF1  13 000   34976  @R13,13
    934  00000000  FFFFFFFF USING  ORDINARY    00000000 00001000 FFFFFFF2  12 000          @R12,12
    938  00000000  FFFFFFFF USING  ORDINARY    00000000 00001000 FFFFFFF3  11 000          @R11,11
    942  00000000  FFFFFFFF USING  ORDINARY    00000000 00001000 FFFFFFF4  10 000          @R10,10
    946  00000000  FFFFFFFF USING  ORDINARY    00000000 00001000 FFFFFFF5   9 000          @R9,9
    950  00000000  FFFFFFFF USING  ORDINARY    00000000 00001000 FFFFFFF6   8 000          @R8,8
    954  00000000  FFFFFFFF USING  ORDINARY    00000000 00001000 FFFFFFF7   7 000          @R7,7
    958  00000000  FFFFFFFF USING  ORDINARY    00000000 00001000 FFFFFFF8   6 000          @R6,6
    962  00000000  FFFFFFFF USING  ORDINARY    00000000 00001000 FFFFFFF9   5 000          @R5,5
    966  00000000  FFFFFFFF USING  ORDINARY    00000000 00001000 FFFFFFFA   4 001   26454  @R4,4
    970  00000000  FFFFFFFF USING  ORDINARY    00000000 00001000 FFFFFFFB   3 001   32400  @R3,3
    974  00000000  FFFFFFFF USING  ORDINARY    00000000 00001000 FFFFFFFC   2 001   28396  @R2,2
    978  00000000  FFFFFFFF USING  ORDINARY    00000000 00001000 FFFFFFFD   1 001    2174  @R1,1
    982  00000000  FFFFFFFF USING  ORDINARY    00000000 00001000 FFFFFFFE   0 000          @R0,0
    983  00000000  FFFFFFFF DROP                                            0              0
   1168  00000017  00000001 USING  ORDINARY    00000000 00001000 FFFFFFEC  11 D88   35975  CP,CPR
   1177  00000017  00000001 USING  ORDINARY    00000000 00001000 FFFFFFEE  12 890   35912  CV,CVR
   6857  00000032  00000001 USING  ORDINARY    00000032 00001000 00000001   7 CE2    6901  $$$50B,7
   6911  0000008E  00000001 USING  ORDINARY    00000000 00001000 FFFFFFF7   7 000          @R7,7
   6961  000000B6  00000001 USING  ORDINARY    000000B6 00001000 00000001   7 D49    7561  $$$53B,7
   7571  000002A8  00000001 USING  ORDINARY    00000000 00001000 FFFFFFF7   7 000          @R7,7
   7703  00000372  00000001 USING  ORDINARY    00000372 00001000 00000001   7 BA2   10709  $$$66B,7
   7717  00000372  00000001 USING  ORDINARY    FFFFFFD8 00001000 FFFFFFE6   8 000          SHVWWA-(4+36),R8
   7853  000003FA  00000001 USING  ORDINARY    00000000 00001000 FFFFFFE9   5 014    7858  JCB,R5
   7865  000003FE  00000001 USING  ORDINARY    00000000 00001000 FFFFFFF9   5 000          @R5,5
   8793  000006D4  00000001 USING  ORDINARY    00000000 00001000 FFFFFFE8   5 040   10133  WIND,R5
   9978  00000A22  00000001 DROP                                            1              1
   9982  00000A28  00000001 USING  ORDINARY    00000000 00001000 FFFFFFFD   1 000          @R1,1
  10191  00000AAC  00000001 USING  ORDINARY    00000000 00001000 FFFFFFF9   5 000          @R5,5
  10262  00000AE4  00000001 USING  ORDINARY    00000000 00001000 FFFFFFE7   5 014   10699  LINT,R5
  10498  00000B6E  00000001 DROP                                            1              1
  10502  00000B74  00000001 USING  ORDINARY    00000000 00001000 FFFFFFFD   1 000          @R1,1
  10546  00000B94  00000001 DROP                                            1              1
  10550  00000B9A  00000001 USING  ORDINARY    00000000 00001000 FFFFFFFD   1 001   33642  @R1,1
  10706  00000C06  00000001 USING  ORDINARY    00000000 00001000 FFFFFFF9   5 000          @R5,5
  10721  00000C0E  00000001 USING  ORDINARY    00000000 00001000 FFFFFFF6   8 000          @R8,8
  10726  00000C0E  00000001 USING  ORDINARY    00000000 00001000 FFFFFFF7   7 000          @R7,7
  10775  00000C36  00000001 USING  ORDINARY    00000C36 00001000 00000001   7 1B2   10874  $$$92B,7
  10884  00000C72  00000001 USING  ORDINARY    00000000 00001000 FFFFFFF7   7 000          @R7,7
  11084  00000F36  00000001 USING  ORDINARY    00000F36 00001000 00000001   7 3D0   11300  $$$98B,7
  11131  00000F50  00000001 USING  ORDINARY    00000000 00001000 FFFFFFE5   6 01A   11242  VTRC,R6
  11217  00000F88  00000001 USING  ORDINARY    00000000 00001000 FFFFFFE9  15 048   11223  JCB,R15
  11230  00000F8E  00000001 USING  ORDINARY    00000000 00001000 FFFFFFEF  15 000          @R15,15
  11307  00000FCA  00000001 USING  ORDINARY    00000000 00001000 FFFFFFF8   6 000          @R6,6
  11317  00000FCA  00000001 USING  ORDINARY    00000000 00001000 FFFFFFF7   7 000          @R7,7
  11375  00000FF2  00000001 USING  ORDINARY    00000FF2 00001000 00000001   7 2EE   11675  $$$106B,7
  11435  00001018  00000001 USING  ORDINARY    00000000 00001000 FFFFFFE5  15 004   11498  VTRC,R15
  11528  00001058  00000001 USING  ORDINARY    00000000 00001000 FFFFFFEF  15 000          @R15,15
  11577  0000106C  00000001 USING  ORDINARY    00000000 00001000 FFFFFFE5   5 004   11610  VTRC,R5
  11616  00001094  00000001 USING  ORDINARY    00000000 00001000 FFFFFFF9   5 000          @R5,5
  11632  00001094  00000001 USING  ORDINARY    00000000 00001000 FFFFFFE5   6 018   11671  VTRC,R6
1VIEW     (VIEW2025) (13:00) (15MAR04) Using Map                                                                            Page  186
  11689  000010DE  00000001 USING  ORDINARY    00000000 00001000 FFFFFFF8   6 000          @R6,6
  11699  000010E2  00000001 USING  ORDINARY    00000000 00001000 FFFFFFF7   7 000          @R7,7
  11749  0000110A  00000001 USING  ORDINARY    0000110A 00001000 00000001   7 26D   12337  $$$119B,7
  11848  00001144  00000001 USING  ORDINARY    00000000 00001000 FFFFFFE5   6 01A   12297  VTRC,R6
  12334  0000129C  00000001 USING  ORDINARY    00000000 00001000 FFFFFFF8   6 000          @R6,6
  12347  000012A4  00000001 USING  ORDINARY    00000000 00001000 FFFFFFF7   7 000          @R7,7
  12440  00001398  00000001 USING  ORDINARY    00001398 00001000 00000001   7 E98   12787  $$$130B,7
  12564  00001418  00000001 USING  ORDINARY    00000000 00001000 FFFFFFE9  15 065   12575  JCB,R15
  12582  0000141C  00000001 USING  ORDINARY    00000000 00001000 FFFFFFEF  15 000          @R15,15
  12798  000014F8  00000001 USING  ORDINARY    00000000 00001000 FFFFFFF7   7 000          @R7,7
  12921  000015EA  00000001 USING  ORDINARY    000015EA 00001000 00000001   7 000          $$$141B,7
  12937  000015EE  00000001 USING  ORDINARY    00000000 00001000 FFFFFFF7   7 000          @R7,7
  12984  00001616  00000001 USING  ORDINARY    00001616 00001000 00000001   7 BEE   12996  $$$144B,7
  13006  00001624  00000001 USING  ORDINARY    00000000 00001000 FFFFFFF7   7 000          @R7,7
  13442  00001A5E  00000001 USING  ORDINARY    00001A5E 00001000 00000001   7 7D6   13508  $$$147B,7
  13524  00001AA0  00000001 USING  ORDINARY    00000000 00001000 FFFFFFF7   7 000          @R7,7
  13569  00001AC8  00000001 USING  ORDINARY    00001AC8 00001000 00000001   7 74C   13622  $$$151B,7
  13638  00001AE6  00000001 USING  ORDINARY    00000000 00001000 FFFFFFF7   7 000          @R7,7
  13683  00001B0E  00000001 USING  ORDINARY    00001B0E 00001000 00000001   7 000          $$$156B,7
  13704  00001B12  00000001 USING  ORDINARY    00000000 00001000 FFFFFFF7   7 000          @R7,7
  13749  00001B3A  00000001 USING  ORDINARY    00001B3A 00001000 00000001   7 000          $$$159B,7
  13771  00001B3E  00000001 USING  ORDINARY    00000000 00001000 FFFFFFF7   7 000          @R7,7
  13816  00001B66  00000001 USING  ORDINARY    00001B66 00001000 00000001   7 6A6   13846  $$$162B,7
  13862  00001B7A  00000001 USING  ORDINARY    00000000 00001000 FFFFFFF7   7 000          @R7,7
  13907  00001BA2  00000001 USING  ORDINARY    00001BA2 00001000 00000001   7 68E   13979  $$$166B,7
  13995  00001C12  00000001 USING  ORDINARY    00000000 00001000 FFFFFFF7   7 000          @R7,7
  14101  00001CDA  00000001 USING  ORDINARY    00001CDA 00001000 00000001   7 542   14110  $$$170B,7
  14120  00001CE6  00000001 USING  ORDINARY    00000000 00001000 FFFFFFF7   7 000          @R7,7
  14165  00001D0E  00000001 USING  ORDINARY    00001D0E 00001000 00000001   7 000          $$$173B,7
  14184  00001D18  00000001 USING  ORDINARY    00000000 00001000 FFFFFFF7   7 000          @R7,7
  14229  00001D40  00000001 USING  ORDINARY    00001D40 00001000 00000001   7 470   14242  $$$176B,7
  14251  00001D4C  00000001 USING  ORDINARY    00000000 00001000 FFFFFFF7   7 000          @R7,7
  14296  00001D74  00000001 USING  ORDINARY    00001D74 00001000 00000001   7 498   14331  $$$179B,7
  14347  00001D8C  00000001 USING  ORDINARY    00000000 00001000 FFFFFFF7   7 000          @R7,7
  14392  00001DB4  00000001 USING  ORDINARY    00001DB4 00001000 00000001   7 458   14425  $$$183B,7
  14441  00001DC8  00000001 USING  ORDINARY    00000000 00001000 FFFFFFF7   7 000          @R7,7
  14486  00001DF0  00000001 USING  ORDINARY    00001DF0 00001000 00000001   7 41C   14520  $$$187B,7
  14536  00001E04  00000001 USING  ORDINARY    00000000 00001000 FFFFFFF7   7 000          @R7,7
  14581  00001E2C  00000001 USING  ORDINARY    00001E2C 00001000 00000001   7 000          $$$191B,7
  14602  00001E30  00000001 USING  ORDINARY    00000000 00001000 FFFFFFF7   7 000          @R7,7
  14647  00001E58  00000001 USING  ORDINARY    00001E58 00001000 00000001   7 000          $$$194B,7
  14669  00001E5C  00000001 USING  ORDINARY    00000000 00001000 FFFFFFF7   7 000          @R7,7
  14714  00001E84  00000001 USING  ORDINARY    00001E84 00001000 00000001   7 388   14747  $$$197B,7
  14763  00001E98  00000001 USING  ORDINARY    00000000 00001000 FFFFFFF7   7 000          @R7,7
  14808  00001EC0  00000001 USING  ORDINARY    00001EC0 00001000 00000001   7 34C   14842  $$$201B,7
  14858  00001ED4  00000001 USING  ORDINARY    00000000 00001000 FFFFFFF7   7 000          @R7,7
  14903  00001EFC  00000001 USING  ORDINARY    00001EFC 00001000 00000001   7 000          $$$205B,7
  14930  00001F04  00000001 USING  ORDINARY    00000000 00001000 FFFFFFF7   7 000          @R7,7
  14975  00001F2C  00000001 USING  ORDINARY    00001F2C 00001000 00000001   7 000          $$$208B,7
  15003  00001F34  00000001 USING  ORDINARY    00000000 00001000 FFFFFFF7   7 000          @R7,7
  15048  00001F5C  00000001 USING  ORDINARY    00001F5C 00001000 00000001   7 000          $$$211B,7
  15075  00001F64  00000001 USING  ORDINARY    00000000 00001000 FFFFFFF7   7 000          @R7,7
  15120  00001F8C  00000001 USING  ORDINARY    00001F8C 00001000 00000001   7 000          $$$214B,7
  15148  00001F94  00000001 USING  ORDINARY    00000000 00001000 FFFFFFF7   7 000          @R7,7
  15193  00001FBC  00000001 USING  ORDINARY    00001FBC 00001000 00000001   7 250   15221  $$$217B,7
  15233  00001FD6  00000001 USING  ORDINARY    00000000 00001000 FFFFFFF7   7 000          @R7,7
  15278  00001FFE  00000001 USING  ORDINARY    00001FFE 00001000 00000001   7 20E   15306  $$$220B,7
  15318  00002018  00000001 USING  ORDINARY    00000000 00001000 FFFFFFF7   7 000          @R7,7
  15363  00002040  00000001 USING  ORDINARY    00002040 00001000 00000001   7 000          $$$223B,7
1VIEW     (VIEW2025) (13:00) (15MAR04) Using Map                                                                            Page  187
  15384  00002044  00000001 USING  ORDINARY    00000000 00001000 FFFFFFF7   7 000          @R7,7
  15429  0000206C  00000001 USING  ORDINARY    0000206C 00001000 00000001   7 000          $$$226B,7
  15451  00002070  00000001 USING  ORDINARY    00000000 00001000 FFFFFFF7   7 000          @R7,7
  15496  00002098  00000001 USING  ORDINARY    00002098 00001000 00000001   7 188   15530  $$$229B,7
  15542  000020AE  00000001 USING  ORDINARY    00000000 00001000 FFFFFFF7   7 000          @R7,7
  15587  000020D6  00000001 USING  ORDINARY    000020D6 00001000 00000001   7 000          $$$234B,7
  15608  000020DA  00000001 USING  ORDINARY    00000000 00001000 FFFFFFF7   7 000          @R7,7
  15653  00002102  00000001 USING  ORDINARY    00002102 00001000 00000001   7 000          $$$237B,7
  15675  00002106  00000001 USING  ORDINARY    00000000 00001000 FFFFFFF7   7 000          @R7,7
  15724  0000212E  00000001 USING  ORDINARY    0000212E 00001000 00000001   7 0FE   15785  $$$240B,7
  15796  00002166  00000001 USING  ORDINARY    00000000 00001000 FFFFFFF7   7 000          @R7,7
  16054  00002250  00000001 USING  ORDINARY    00002250 00001000 00000001   7 20A   16598  $$$253B,7
  16068  00002250  00000001 USING  ORDINARY    FFFFFFD8 00001000 FFFFFFE4   8 028   16072  VWA-(4+36),R8
  16082  00002254  00000001 USING  ORDINARY    00000000 00001000 FFFFFFE4   6 0B4   16597  VWA,R6
  16153  00002284  00000001 USING  ORDINARY    00000000 00001000 FFFFFFE7  15 00C   16166  LINT,R15
  16188  00002290  00000001 USING  ORDINARY    00000000 00001000 FFFFFFEF  15 004   24550  @R15,15
  16632  000023EC  00000001 USING  ORDINARY    00000000 00001000 FFFFFFF8   6 000          @R6,6
  16637  000023EC  00000001 USING  ORDINARY    00000000 00001000 FFFFFFF6   8 000          @R8,8
  16642  000023EC  00000001 USING  ORDINARY    00000000 00001000 FFFFFFF7   7 000          @R7,7
  16694  00002460  00000001 USING  ORDINARY    00000000 00001000 FFFFFFE4   6 204   29983  VWA,R6
  19204  00003E1A  00000001 USING  ORDINARY    00003E1A 00001000 00000001   7 000          $$$272B,7
  19226  00003E22  00000001 USING  ORDINARY    00000000 00001000 FFFFFFF7   7 000          @R7,7
  19275  00003E4A  00000001 USING  ORDINARY    00003E4A 00001000 00000001   7 412   19417  $$$275B,7
  19445  00003EA6  00000001 USING  ORDINARY    00000000 00001000 FFFFFFF7   7 000          @R7,7
  19494  00003ECE  00000001 USING  ORDINARY    00003ECE 00001000 00000001   7 3EC   19551  $$$284B,7
  19561  00003F12  00000001 USING  ORDINARY    00000000 00001000 FFFFFFF7   7 000          @R7,7
  19612  00003F44  00000001 USING  ORDINARY    00003F44 00001000 00000001   7 330   19664  $$$287B,7
  19673  00003F70  00000001 USING  ORDINARY    00000000 00001000 FFFFFFF7   7 000          @R7,7
  19722  00003F98  00000001 USING  ORDINARY    00003F98 00001000 00000001   7 2DC   19773  $$$291B,7
  19782  00003FC2  00000001 USING  ORDINARY    00000000 00001000 FFFFFFF7   7 000          @R7,7
  19831  00003FEA  00000001 USING  ORDINARY    00003FEA 00001000 00000001   7 2F6   19919  $$$295B,7
  19928  00004044  00000001 USING  ORDINARY    00000000 00001000 FFFFFFF7   7 000          @R7,7
  19977  0000406C  00000001 USING  ORDINARY    0000406C 00001000 00000001   7 251   20065  $$$299B,7
  20074  000040C6  00000001 USING  ORDINARY    00000000 00001000 FFFFFFF7   7 000          @R7,7
  20123  000040EE  00000001 USING  ORDINARY    000040EE 00001000 00000001   7 19A   20163  $$$303B,7
  20176  00004112  00000001 USING  ORDINARY    00000000 00001000 FFFFFFF7   7 000          @R7,7
  20225  0000413A  00000001 USING  ORDINARY    0000413A 00001000 00000001   7 17C   20293  $$$307B,7
  20248  0000414A  00000001 USING  ORDINARY    00000000 00001000 FFFFFFE8   5 000          WIND,R5
  20301  00004176  00000001 USING  ORDINARY    00000000 00001000 FFFFFFF9   5 000          @R5,5
  20321  0000418A  00000001 USING  ORDINARY    00000000 00001000 FFFFFFF7   7 000          @R7,7
  20370  000041B2  00000001 USING  ORDINARY    000041B2 00001000 00000001   7 106   20451  $$$312B,7
  20391  000041BE  00000001 USING  ORDINARY    00000000 00001000 FFFFFFE8   5 020   20438  WIND,R5
  20445  000041E8  00000001 USING  ORDINARY    00000000 00001000 FFFFFFF9   5 000          @R5,5
  20460  000041F6  00000001 USING  ORDINARY    00000000 00001000 FFFFFFF7   7 000          @R7,7
  20509  0000421E  00000001 USING  ORDINARY    0000421E 00001000 00000001   7 096   20553  $$$317B,7
  20530  0000422A  00000001 USING  ORDINARY    00000000 00001000 FFFFFFE8   5 024   20548  WIND,R5
  20561  00004246  00000001 USING  ORDINARY    00000000 00001000 FFFFFFF9   5 000   23497  @R5,5
  20570  0000424A  00000001 USING  ORDINARY    00000000 00001000 FFFFFFF7   7 000          @R7,7
  20655  00004316  00000001 USING  ORDINARY    00004316 00001000 00000001   7 EAA   20969  $$$320B,7
  21007  00004426  00000001 USING  ORDINARY    00000000 00001000 FFFFFFF7   7 000          @R7,7
  21056  0000444E  00000001 USING  ORDINARY    0000444E 00001000 00000001   7 CBE   21241  $$$334B,7
  21266  000044E4  00000001 USING  ORDINARY    00000000 00001000 FFFFFFF7   7 000          @R7,7
  21315  0000450C  00000001 USING  ORDINARY    0000450C 00001000 00000001   7 C04   21462  $$$343B,7
  21487  00004572  00000001 USING  ORDINARY    00000000 00001000 FFFFFFF7   7 000          @R7,7
  21536  0000459A  00000001 USING  ORDINARY    0000459A 00001000 00000001   7 B76   21595  $$$353B,7
  21616  000045C8  00000001 USING  ORDINARY    00000000 00001000 FFFFFFF7   7 000          @R7,7
  21686  000045F0  00000001 USING  ORDINARY    000045F0 00001000 00000001   7 C2F   21897  $$$358B,7
  21700  000045F0  00000001 USING  ORDINARY    FFFFFFD8 00001000 FFFFFFE3   8 02C   21817  OOPSWA-(4+36),R8
  21907  0000469C  00000001 USING  ORDINARY    00000000 00001000 FFFFFFF6   8 000          @R8,8
1VIEW     (VIEW2025) (13:00) (15MAR04) Using Map                                                                            Page  188
  21912  0000469C  00000001 USING  ORDINARY    00000000 00001000 FFFFFFF7   7 000          @R7,7
  21961  000046C4  00000001 USING  ORDINARY    000046C4 00001000 00000001   7 B1C   22224  $$$364B,7
  22260  00004774  00000001 USING  ORDINARY    00000000 00001000 FFFFFFF7   7 000          @R7,7
  22309  0000479C  00000001 USING  ORDINARY    0000479C 00001000 00000001   7 A48   22589  $$$378B,7
  22612  00004854  00000001 USING  ORDINARY    00000000 00001000 FFFFFFF7   7 000          @R7,7
  22695  0000487C  00000001 USING  ORDINARY    0000487C 00001000 00000001   7 9D0   22707  $$$392B,7
  22716  0000488C  00000001 USING  ORDINARY    00000000 00001000 FFFFFFF7   7 000          @R7,7
  22763  000048B4  00000001 USING  ORDINARY    000048B4 00001000 00000001   7 A0A   24181  $$$395B,7
  22777  000048B4  00000001 USING  ORDINARY    FFFFFFD8 00001000 FFFFFFE2   8 038   24097  COPYWA-(4+36),R8
  23698  00004B56  00000001 USING  ORDINARY    00000000 00001000 FFFFFFE8   5 000   23712  WIND,R5
  23769  00004B78  00000001 USING  ORDINARY    00000000 00001000 FFFFFFF9   5 000          @R5,5
  24129  00004CBE  00000001 USING  ORDINARY    00000000 00001000 FFFFFFE8   5 000   24143  WIND,R5
  24163  00004CCC  00000001 USING  ORDINARY    00000000 00001000 FFFFFFF9   5 000          @R5,5
  24192  00004CDA  00000001 USING  ORDINARY    00000000 00001000 FFFFFFF6   8 000          @R8,8
  24197  00004CDA  00000001 USING  ORDINARY    00000000 00001000 FFFFFFF7   7 000          @R7,7
  24267  00004D02  00000001 USING  ORDINARY    00004D02 00001000 00000001   7 5C8   24961  $$$448B,7
  24281  00004D02  00000001 USING  ORDINARY    FFFFFFD8 00001000 FFFFFFE1   8 028   24933  DELWA-(4+36),R8
  24970  00004EF8  00000001 USING  ORDINARY    00000000 00001000 FFFFFFF6   8 000          @R8,8
  24975  00004EF8  00000001 USING  ORDINARY    00000000 00001000 FFFFFFF7   7 000          @R7,7
  25024  00004F20  00000001 USING  ORDINARY    00004F20 00001000 00000001   7 288   25116  $$$480B,7
  25144  00004F72  00000001 USING  ORDINARY    00000000 00001000 FFFFFFF7   7 000          @R7,7
  25193  00004F9A  00000001 USING  ORDINARY    00004F9A 00001000 00000001   7 01A   25227  $$$485B,7
  25253  00004FB8  00000001 USING  ORDINARY    00000000 00001000 FFFFFFF7   7 000          @R7,7
  25309  00004FE0  00000001 USING  ORDINARY    00004FE0 00001000 00000001   7 2F0   25562  $$$490B,7
  25579  00005082  00000001 USING  ORDINARY    00000000 00001000 FFFFFFF7   7 000          @R7,7
  25631  000050AA  00000001 USING  ORDINARY    000050AA 00001000 00000001   7 112   25646  $$$505B,7
  25656  000050B8  00000001 USING  ORDINARY    00000000 00001000 FFFFFFF7   7 000          @R7,7
  25772  000052F0  00000001 USING  ORDINARY    000052F0 00001000 00000001   7 000          $$$508B,7
  25794  000052F8  00000001 USING  ORDINARY    00000000 00001000 FFFFFFF7   7 000          @R7,7
  25843  00005320  00000001 USING  ORDINARY    00005320 00001000 00000001   7 2B8   25854  $$$511B,7
  25863  0000532A  00000001 USING  ORDINARY    00000000 00001000 FFFFFFF7   7 000          @R7,7
  25933  00005352  00000001 USING  ORDINARY    00005352 00001000 00000001   7 43B   26482  $$$514B,7
  25947  00005352  00000001 USING  ORDINARY    FFFFFFD8 00001000 FFFFFFE0   8 028   26414  GSWA-(4+36),R8
  26493  000054EC  00000001 USING  ORDINARY    00000000 00001000 FFFFFFF6   8 000          @R8,8
  26498  000054EC  00000001 USING  ORDINARY    00000000 00001000 FFFFFFF7   7 000          @R7,7
  26547  00005514  00000001 USING  ORDINARY    00005514 00001000 00000001   7 288   26762  $$$529B,7
  26783  000055CA  00000001 USING  ORDINARY    00000000 00001000 FFFFFFF7   7 000          @R7,7
  26872  000057C8  00000001 USING  ORDINARY    000057C8 00001000 00000001   7 550   26932  $$$536B,7
  26955  000057FC  00000001 USING  ORDINARY    00000000 00001000 FFFFFFF7   7 000          @R7,7
  27004  00005824  00000001 USING  ORDINARY    00005824 00001000 00000001   7 524   27042  $$$541B,7
  27053  00005842  00000001 USING  ORDINARY    00000000 00001000 FFFFFFE7   4 00D   27069  LINT,R4
  27076  0000584A  00000001 USING  ORDINARY    00000000 00001000 FFFFFFFA   4 000          @R4,4
  27088  0000584E  00000001 USING  ORDINARY    00000000 00001000 FFFFFFF7   7 000          @R7,7
  27137  00005876  00000001 USING  ORDINARY    00005876 00001000 00000001   7 4D4   27182  $$$545B,7
  27158  00005882  00000001 USING  ORDINARY    00000000 00001000 FFFFFFE7   4 000          LINT,R4
  27204  000058C4  00000001 USING  ORDINARY    00000000 00001000 FFFFFFFA   4 000          @R4,4
  27209  000058C4  00000001 USING  ORDINARY    00000000 00001000 FFFFFFF7   7 000          @R7,7
  27258  000058EC  00000001 USING  ORDINARY    000058EC 00001000 00000001   7 42C   27322  $$$548B,7
  27350  0000592E  00000001 USING  ORDINARY    00000000 00001000 FFFFFFF7   7 000          @R7,7
  27399  00005956  00000001 USING  ORDINARY    00005956 00001000 00000001   7 3D6   27522  $$$553B,7
  27550  000059A6  00000001 USING  ORDINARY    00000000 00001000 FFFFFFF7   7 000          @R7,7
  27599  000059CE  00000001 USING  ORDINARY    000059CE 00001000 00000001   7 386   27772  $$$561B,7
  27642  000059F0  00000001 USING  ORDINARY    00000000 00001000 FFFFFFE8   5 012   27672  WIND,R5
  27722  00005A1C  00000001 USING  ORDINARY    00000000 00001000 FFFFFFF9   5 000          @R5,5
  27786  00005A46  00000001 USING  ORDINARY    00000000 00001000 FFFFFFF7   7 000          @R7,7
  27877  00005AAE  00000001 USING  ORDINARY    00005AAE 00001000 00000001   7 2A4   28708  $$$567B,7
  27891  00005AAE  00000001 USING  ORDINARY    FFFFFFD8 00001000 FFFFFFDF   8 036   28731  WRAPWA-(4+36),R8
  27999  00005AF4  00000001 USING  ORDINARY    00000000 00001000 FFFFFFE8   5 012   28325  WIND,R5
  28748  00005CD8  00000001 USING  ORDINARY    00000000 00001000 FFFFFFF9   5 000          @R5,5
1VIEW     (VIEW2025) (13:00) (15MAR04) Using Map                                                                            Page  189
  28753  00005CD8  00000001 USING  ORDINARY    00000000 00001000 FFFFFFF6   8 000          @R8,8
  28758  00005CD8  00000001 USING  ORDINARY    00000000 00001000 FFFFFFF7   7 000          @R7,7
  28840  00005D72  00000001 USING  ORDINARY    00005D72 00001000 00000001   7 DEC   29045  $$$606B,7
  29012  00005DF6  00000001 USING  ORDINARY    00000000 00001000 FFFFFFE8   5 020   29042  WIND,R5
  29053  00005E16  00000001 USING  ORDINARY    00000000 00001000 FFFFFFF9   5 000          @R5,5
  29065  00005E1A  00000001 USING  ORDINARY    00000000 00001000 FFFFFFF7   7 000          @R7,7
  29114  00005E42  00000001 USING  ORDINARY    00005E42 00001000 00000001   7 D46   29230  $$$613B,7
  29243  00005EA2  00000001 USING  ORDINARY    00000000 00001000 FFFFFFF7   7 000          @R7,7
  29292  00005ECA  00000001 USING  ORDINARY    00005ECA 00001000 00000001   7 CCB   29408  $$$618B,7
  29421  00005F2A  00000001 USING  ORDINARY    00000000 00001000 FFFFFFF7   7 000          @R7,7
  29470  00005F52  00000001 USING  ORDINARY    00005F52 00001000 00000001   7 C95   29857  $$$623B,7
  29492  00005F5E  00000001 USING  ORDINARY    00000000 00001000 FFFFFFE7   4 00C   29734  LINT,R4
  29589  00005FA6  00000001 USING  ORDINARY    00000000 00001000 FFFFFFE8   5 008   29733  WIND,R5
  29740  00006022  00000001 USING  ORDINARY    00000000 00001000 FFFFFFF9   5 000          @R5,5
  29870  0000607E  00000001 USING  ORDINARY    00000000 00001000 FFFFFFFA   4 000          @R4,4
  29875  0000607E  00000001 USING  ORDINARY    00000000 00001000 FFFFFFF7   7 000          @R7,7
  29924  000060A6  00000001 USING  ORDINARY    000060A6 00001000 00000001   7 B5A   30577  $$$633B,7
  30012  000060E8  00000001 USING  ORDINARY    00000000 00001000 FFFFFFE8   5 080   30555  WIND,R5
  30053  000060FA  00000001 USING  ORDINARY    00000000 00001000 FFFFFFE8  15 008   30075  WIND,R15
  30090  00006110  00000001 USING  ORDINARY    00000000 00001000 FFFFFFE7   4 014   30178  LINT,R4
  30185  0000614A  00000001 USING  ORDINARY    00000000 00001000 FFFFFFFA   4 000          @R4,4
  30196  0000614E  00000001 USING  ORDINARY    00000000 00001000 FFFFFFEF  15 001   32195  @R15,15
  30231  00006166  00000001 USING  ORDINARY    00000000 00001000 FFFFFFE7   4 010   30282  LINT,R4
  30293  00006184  00000001 USING  ORDINARY    00000000 00001000 FFFFFFFA   4 000          @R4,4
  30330  0000619E  00000001 USING  ORDINARY    00000000 00001000 FFFFFFE7   4 014   30336  LINT,R4
  30343  000061AC  00000001 USING  ORDINARY    00000000 00001000 FFFFFFFA   4 000          @R4,4
  30364  000061C6  00000001 USING  ORDINARY    00000000 00001000 FFFFFFE7   4 010   30409  LINT,R4
  30416  000061E4  00000001 USING  ORDINARY    00000000 00001000 FFFFFFFA   4 000          @R4,4
  30487  00006224  00000001 USING  ORDINARY    00000000 00001000 FFFFFFE7   4 014   30493  LINT,R4
  30500  00006232  00000001 USING  ORDINARY    00000000 00001000 FFFFFFFA   4 000          @R4,4
  30595  00006280  00000001 USING  ORDINARY    00000000 00001000 FFFFFFF9   5 000          @R5,5
  30600  00006280  00000001 USING  ORDINARY    00000000 00001000 FFFFFFF7   7 000          @R7,7
  30650  000062A8  00000001 USING  ORDINARY    000062A8 00001000 00000001   7 7F4   30709  $$$654B,7
  30717  000062CA  00000001 USING  ORDINARY    00000000 00001000 FFFFFFF7   7 000          @R7,7
  30766  000062F2  00000001 USING  ORDINARY    000062F2 00001000 00000001   7 824   30884  $$$659B,7
  30788  00006300  00000001 USING  ORDINARY    00000000 00001000 FFFFFFE7   5 002   30802  LINT,R5
  30832  0000631A  00000001 USING  ORDINARY    00000000 00001000 FFFFFFF8   6 000          @R6,6
  30835  0000631A  00000001 USING  ORDINARY    00000000 00001000 FFFFFFE8   6 00E   30881  WIND,R6
  30895  0000633E  00000001 USING  ORDINARY    00000000 00001000 FFFFFFF8   6 000          @R6,6
  30898  0000633E  00000001 USING  ORDINARY    00000000 00001000 FFFFFFE4   6 000          VWA,6
  30904  0000633E  00000001 USING  ORDINARY    00000000 00001000 FFFFFFF9   5 000          @R5,5
  30915  00006342  00000001 USING  ORDINARY    00000000 00001000 FFFFFFF7   7 000          @R7,7
  30964  0000636A  00000001 USING  ORDINARY    0000636A 00001000 00000001   7 7AC   31066  $$$665B,7
  30986  00006378  00000001 USING  ORDINARY    00000000 00001000 FFFFFFE7   5 002   31000  LINT,R5
  31030  00006392  00000001 USING  ORDINARY    00000000 00001000 FFFFFFF8   6 000          @R6,6
  31033  00006392  00000001 USING  ORDINARY    00000000 00001000 FFFFFFE8   6 00E   31063  WIND,R6
  31077  000063B2  00000001 USING  ORDINARY    00000000 00001000 FFFFFFF8   6 000          @R6,6
  31080  000063B2  00000001 USING  ORDINARY    00000000 00001000 FFFFFFE4   6 008   33693  VWA,6
  31086  000063B2  00000001 USING  ORDINARY    00000000 00001000 FFFFFFF9   5 000          @R5,5
  31097  000063B6  00000001 USING  ORDINARY    00000000 00001000 FFFFFFF7   7 000          @R7,7
  31146  000063DE  00000001 USING  ORDINARY    000063DE 00001000 00000001   7 734   31245  $$$670B,7
  31167  000063EA  00000001 USING  ORDINARY    00000000 00001000 FFFFFFE8   5 00E   31247  WIND,R5
  31254  00006432  00000001 USING  ORDINARY    00000000 00001000 FFFFFFF9   5 000          @R5,5
  31270  0000643A  00000001 USING  ORDINARY    00000000 00001000 FFFFFFF7   7 000          @R7,7
  31319  00006462  00000001 USING  ORDINARY    00006462 00001000 00000001   7 7B7   31601  $$$675B,7
  31340  0000646E  00000001 USING  ORDINARY    00000000 00001000 FFFFFFE7   4 010   31576  LINT,R4
  31588  0000650C  00000001 USING  ORDINARY    00000000 00001000 FFFFFFE8   5 024   31612  WIND,R5
  31619  00006536  00000001 USING  ORDINARY    00000000 00001000 FFFFFFF9   5 000          @R5,5
  31627  00006536  00000001 USING  ORDINARY    00000000 00001000 FFFFFFFA   4 000          @R4,4
1VIEW     (VIEW2025) (13:00) (15MAR04) Using Map                                                                            Page  190
  31645  0000653E  00000001 USING  ORDINARY    00000000 00001000 FFFFFFF7   7 000          @R7,7
  31694  00006566  00000001 USING  ORDINARY    00006566 00001000 00000001   7 6C6   31766  $$$686B,7
  31715  00006572  00000001 USING  ORDINARY    00000000 00001000 FFFFFFE8   5 000   31750  WIND,R5
  31761  00006584  00000001 USING  ORDINARY    00000000 00001000 FFFFFFF9   5 000          @R5,5
  31782  00006592  00000001 USING  ORDINARY    00000000 00001000 FFFFFFF7   7 000          @R7,7
  31831  000065BA  00000001 USING  ORDINARY    000065BA 00001000 00000001   7 558   31921  $$$690B,7
  31852  000065C6  00000001 USING  ORDINARY    00000000 00001000 FFFFFFE8   5 010   31917  WIND,R5
  31929  000065FE  00000001 USING  ORDINARY    00000000 00001000 FFFFFFF9   5 000          @R5,5
  31945  00006606  00000001 USING  ORDINARY    00000000 00001000 FFFFFFF7   7 000          @R7,7
  31994  0000662E  00000001 USING  ORDINARY    0000662E 00001000 00000001   7 4F4   32070  $$$696B,7
  32015  0000663A  00000001 USING  ORDINARY    00000000 00001000 FFFFFFE8   5 010   32062  WIND,R5
  32078  0000665A  00000001 USING  ORDINARY    00000000 00001000 FFFFFFF9   5 000          @R5,5
  32094  00006662  00000001 USING  ORDINARY    00000000 00001000 FFFFFFF7   7 000          @R7,7
  32143  0000668A  00000001 USING  ORDINARY    0000668A 00001000 00000001   7 488   32238  $$$701B,7
  32164  00006696  00000001 USING  ORDINARY    00000000 00001000 FFFFFFE8   5 012   32234  WIND,R5
  32246  000066D0  00000001 USING  ORDINARY    00000000 00001000 FFFFFFF9   5 000          @R5,5
  32262  000066D8  00000001 USING  ORDINARY    00000000 00001000 FFFFFFF7   7 000          @R7,7
  32311  00006700  00000001 USING  ORDINARY    00006700 00001000 00000001   7 592   32681  $$$707B,7
  32332  0000670C  00000001 USING  ORDINARY    00000000 00001000 FFFFFFE7   4 002   32346  LINT,R4
  32376  00006726  00000001 USING  ORDINARY    00000000 00001000 FFFFFFE8   5 03F   32587  WIND,R5
  32452  0000675A  00000001 DROP                                            2              2
  32456  00006760  00000001 USING  ORDINARY    00000000 00001000 FFFFFFFC   2 001   33314  @R2,2
  32688  000067D6  00000001 USING  ORDINARY    00000000 00001000 FFFFFFF9   5 000          @R5,5
  32694  000067D6  00000001 USING  ORDINARY    00000000 00001000 FFFFFFFA   4 000          @R4,4
  32712  000067DE  00000001 USING  ORDINARY    00000000 00001000 FFFFFFF7   7 000          @R7,7
  32761  00006806  00000001 USING  ORDINARY    00006806 00001000 00000001   7 450   33144  $$$729B,7
  33011  000068B4  00000001 USING  ORDINARY    00000000 00001000 FFFFFFEA   5 00C   33101  TTYPE,R5
  33117  000068F4  00000001 USING  ORDINARY    00000000 00001000 FFFFFFF9   5 000          @R5,5
  33155  0000690E  00000001 USING  ORDINARY    00000000 00001000 FFFFFFF7   7 000          @R7,7
  33205  00006936  00000001 USING  ORDINARY    00006936 00001000 00000001   7 03C   33323  $$$745B,7
  33244  00006946  00000001 USING  ORDINARY    00000000 00001000 FFFFFFE7   3 014   33313  LINT,R3
  33320  0000696E  00000001 USING  ORDINARY    00000000 00001000 FFFFFFFB   3 000          @R3,3
  33333  00006976  00000001 USING  ORDINARY    00000000 00001000 FFFFFFF7   7 000          @R7,7
  33382  0000699E  00000001 USING  ORDINARY    0000699E 00001000 00000001   7 156   33429  $$$753B,7
  33438  000069CA  00000001 USING  ORDINARY    00000000 00001000 FFFFFFF7   7 000          @R7,7
  33557  00006CB2  00000001 USING  ORDINARY    00006CB2 00001000 00000001   7 000          $$$756B,7
  33574  00006CBA  00000001 USING  ORDINARY    00000000 00001000 FFFFFFF7   7 000          @R7,7
  33623  00006CE2  00000001 USING  ORDINARY    00006CE2 00001000 00000001   7 1FA   33681  $$$759B,7
  33705  00006D0C  00000001 USING  ORDINARY    00000000 00001000 FFFFFFF7   7 000          @R7,7
  33726  00006D1A  00000001 USING  ORDINARY    00000000 00001000 FFFFFFF8   6 000          @R6,6
  33774  00006D34  00000001 USING  ORDINARY    00006D34 00001000 00000001   7 19C   33896  $$$764B,7
  33917  00006D76  00000001 USING  ORDINARY    00000000 00001000 FFFFFFF7   7 000          @R7,7
  33966  00006D9E  00000001 USING  ORDINARY    00006D9E 00001000 00000001   7 13A   33997  $$$773B,7
  34017  00006DD6  00000001 USING  ORDINARY    00000000 00001000 FFFFFFF7   7 000          @R7,7
  34070  00006E40  00000001 USING  ORDINARY    00006E40 00001000 00000001   7 098   34101  $$$776B,7
  34121  00006E78  00000001 USING  ORDINARY    00000000 00001000 FFFFFFF7   7 000          @R7,7
  34315  00006F0C  00000001 USING  ORDINARY    00006F0C 00001000 00000001   7 63A   34513  $$$787B,7
  34329  00006F0C  00000001 USING  ORDINARY    FFFFFFD8 00001000 FFFFFFDE   8 028   34333  VXWA-(4+36),R8
  34343  00006F10  00000001 USING  ORDINARY    00000000 00001000 FFFFFFDE   6 028   34482  VXWA,R6
  34526  00006FD2  00000001 USING  ORDINARY    00000000 00001000 FFFFFFF8   6 000          @R6,6
  34531  00006FD2  00000001 USING  ORDINARY    00000000 00001000 FFFFFFF6   8 000          @R8,8
  34536  00006FD2  00000001 USING  ORDINARY    00000000 00001000 FFFFFFF7   7 000          @R7,7
  34676  000070EA  00000001 USING  ORDINARY    000070EA 00001000 00000001   7 426   34713  $$$792B,7
  34694  000070EA  00000001 USING  ORDINARY    00000000 00001000 FFFFFFDE   6 008   34710  VXWA,R6
  34722  00007100  00000001 USING  ORDINARY    00000000 00001000 FFFFFFF8   6 000          @R6,6
  34727  00007100  00000001 USING  ORDINARY    00000000 00001000 FFFFFFF7   7 000          @R7,7
  34776  00007128  00000001 USING  ORDINARY    00007128 00001000 00000001   7 420   34975  $$$795B,7
  34794  00007128  00000001 USING  ORDINARY    00000000 00001000 FFFFFFDE   6 008   34961  VXWA,R6
  34985  000071F2  00000001 USING  ORDINARY    00000000 00001000 FFFFFFF8   6 000          @R6,6
1VIEW     (VIEW2025) (13:00) (15MAR04) Using Map                                                                            Page  191
  34990  000071F2  00000001 USING  ORDINARY    00000000 00001000 FFFFFFF7   7 000          @R7,7
  35083  00007292  00000001 USING  ORDINARY    00007292 00001000 00000001   7 000          $$$801B,7
  35101  00007292  00000001 USING  ORDINARY    00000000 00001000 FFFFFFDE   6 000   35105  VXWA,R6
  35112  00007296  00000001 USING  ORDINARY    00000000 00001000 FFFFFFF8   6 000          @R6,6
  35117  00007296  00000001 USING  ORDINARY    00000000 00001000 FFFFFFF7   7 000          @R7,7
  35162  000072BE  00000001 USING  ORDINARY    000072BE 00001000 00000001   7 000          $$$804B,7
  35180  000072BE  00000001 USING  ORDINARY    00000000 00001000 FFFFFFDE   6 004   35184  VXWA,R6
  35191  000072C2  00000001 USING  ORDINARY    00000000 00001000 FFFFFFF8   6 000          @R6,6
  35196  000072C2  00000001 USING  ORDINARY    00000000 00001000 FFFFFFF7   7 000          @R7,7
  35241  000072EA  00000001 USING  ORDINARY    000072EA 00001000 00000001   7 276   35278  $$$807B,7
  35259  000072EA  00000001 USING  ORDINARY    00000000 00001000 FFFFFFDE   6 008   35275  VXWA,R6
  35287  00007300  00000001 USING  ORDINARY    00000000 00001000 FFFFFFF8   6 000          @R6,6
  35292  00007300  00000001 USING  ORDINARY    00000000 00001000 FFFFFFF7   7 000          @R7,7
  35341  00007328  00000001 USING  ORDINARY    00007328 00001000 00000001   7 208   35352  $$$810B,7
  35361  00007332  00000001 USING  ORDINARY    00000000 00001000 FFFFFFF7   7 000          @R7,7
  35410  0000735A  00000001 USING  ORDINARY    0000735A 00001000 00000001   7 219   35748  $$$813B,7
  35428  0000735A  00000001 USING  ORDINARY    00000000 00001000 FFFFFFDE   6 008   35745  VXWA,R6
  35762  0000744C  00000001 USING  ORDINARY    00000000 00001000 FFFFFFF8   6 000          @R6,6
  35767  0000744C  00000001 USING  ORDINARY    00000000 00001000 FFFFFFF7   7 000          @R7,7
  35816  00007474  00000001 USING  ORDINARY    00007474 00001000 00000001   7 01A   35850  $$$821B,7
  35876  00007492  00000001 USING  ORDINARY    00000000 00001000 FFFFFFF7   7 000          @R7,7
  35924  000074BA  00000001 USING  ORDINARY    000074BA 00001000 00000001   7 01A   35958  $$$826B,7
  35987  000074D8  00000001 USING  ORDINARY    00000000 00001000 FFFFFFF7   7 000          @R7,7

1         (VIEW2025) (13:00) (15MAR04) General Purpose Register Cross Reference                                             Page  192
- Register  References (M=modified, B=branch, U=USING, D=DROP, N=index)                      HLASM R4.0  2004/03/15 13.00
0    0(0)      982U   983D  2104   2172M  2172   2173M  6840   6872M  6872   6881   6882   6919M  6944   6976M  6976
              6985   6986   7013M  7050M  7087M  7087   7110M  7131M  7131   7162M  7196M  7218M  7253M  7275M  7310M
              7332M  7367M  7389M  7424M  7463M  7502M  7541M  7562M  7579M  7685   7731M  7731   7740   7741   7742
              7764M  7764   7793M  7793   7833M  7887M  7901M  7922M  7922   7940M  7961M  7961   7979M  8000M  8000
              8018M  8043M  8043   8068M  8068   8094M  8116M  8116   8134M  8181M  8202M  8202   8220M  8267M  8288M
              8288   8306M  8331M  8331   8356M  8356   8375M  8397M  8397   8415M  8437M  8437   8455M  8502M  8523M
              8523   8541M  8560M  8582M  8582   8600M  8622M  8622   8640M  8687M  8708M  8708   8726M  8751M  8751
              8803M  8824M  8824   8842M  8874M  8903M  8903   8934M  8952M  8974M  8974   9006M  9035M  9035   9066M
              9084M  9131M  9185M  9185   9216M  9234M  9281M  9335M  9335   9366M  9384M  9405M  9405   9423M  9444M
              9444   9462M  9483M  9483   9508M  9508   9539M  9557M  9578M  9578   9603M  9603   9634M  9652M  9673M
              9673   9691M  9712M  9712   9737M  9737   9768M  9786M  9807M  9807   9837M  9855M  9876M  9876   9906M
              9923M  9986M  9986  10002M 10042M 10042  10077M 10115M 10148M 10148  10173M 10173  10204M 10222M 10278M
             10302M 10319M 10509M 10527M 10557M 10587M 10623M 10659M 10685M 10685  10734M 10758  10860M 10877  10892M
             11067  11113  11115M 11148  11252M 11254M 11325M 11358  11411  11515  11602  11658  11670M 11671M 11707M
             11732  11804M 11816M 11874M 11899M 11899  11935M 11942M 11979M 12003M 12033M 12063M 12081M 12111M 12128M
             12148M 12172M 12207M 12228M 12228  12246M 12271M 12271  12297M 12316M 12316  12355M 12423  12463M 12463
             12472  12473  12699M 12699  12708  12709  12783M 12806M 12904  12945M 12967  12999  13014M 13425  13462
             13468  13485M 13491  13502M 13532M 13552  13595M 13612  13619  13646M 13666  13712M 13732  13779M 13799
             13836  13843  13870M 13890  13926M 13926  13935  13936  13957M 13969  13976  14003M 14084  14128M 14148
             14174  14192M 14212  14243M 14259M 14279  14355M 14375  14449M 14469  14544M 14564  14610M 14630  14677M
             14697  14771M 14791  14866M 14886  14938M 14958  15011M 15031  15083M 15103  15156M 15176  15241M 15261
             15326M 15346  15392M 15412  15459M 15479  15550M 15570  15616M 15636  15683M 15707  15804M 16036  16110M
             16207M 16223M 16223  16262  16268  16284M 16304M 16309M 16330  16341M 16341  16350  16351  16406M 16406
             16486M 16650M 19187  19234M 19258  19401M 19401  19407M 19408  19453M 19477  19521M 19525  19544M 19569M
             19595  19628M 19628  19681M 19705  19738M 19738  19790M 19814  19859M 19876M 19916M 19916  19936M 19960
             20005M 20022M 20062M 20062  20082M 20106  20160  20184M 20208  20329M 20353  20468M 20492  20578M 20638
             20750M 20750  20764  20812M 20824  20894M 20922  20923  20944M 20966M 20966  21015M 21039  21144  21197M
             21238M 21238  21274M 21298  21375M 21375  21430M 21430  21440M 21441  21495M 21519  21545M 21554M 21554
             21572  21624M 21668  21755M 21772M 21801M 21831M 21855M 21920M 21944  22095M 22098  22110M 22133M 22138
             22221  22268M 22292  22445M 22448  22460M 22486M 22486  22491  22540M 22540  22547M 22579  22620M 22678
             22724M 22745  22825M 22841M 22863M 22923M 22939M 22960M 23038  23045M 23050  23191M 23207M 23229M 23262M
             23365  23385  23387  23399  23401M 23402  23403M 23415  23780M 23792  23802  23914M 23960M 24095M 24095
             24205M 24249  24322M 24528M 24555M 24556  24620  24622M 24627  24658  24668M 24776  24782M 24784M 24800M
             24827M 24849M 24849  24855M 24856  24878  24983M 25007  25053M 25097M 25152M 25176  25261M 25344  25429
             25436M 25457M 25485M 25501M 25501  25506  25568M 25568  25614  25649  25664M 25755  25802M 25826  25871M
             25915  25971M 25988M 26033M 26050M 26087M 26087  26098  26152M 26169M 26209M 26249M 26289M 26338M 26355M
             26378M 26401M 26436M 26436  26437M 26447M 26447  26453  26506M 26530  26575M 26592M 26637M 26654M 26691M
             26691  26702  26734M 26751M 26791M 26855  26909M 26963M 26987  27096M 27120  27217M 27241  27298M 27330
             27358M 27382  27447M 27511M 27558M 27582  27657M 27704M 27769M 27794M 27859  28040  28066  28085M 28105M
             28116M 28116  28144M 28164M 28175M 28175  28270M 28287M 28287  28294M 28296M 28298M 28303M 28305M 28307M
             28311  28312M 28318  28371M 28371  28399M 28478M 28490  28585M 28585  28634M 28766M 28823  28877M 28942M
             28962M 28962  28979M 29073M 29097  29150M 29178M 29195M 29251M 29275  29328M 29356M 29373M 29429M 29453
             29525M 29542M 29633M 29650M 29697M 29714M 29733M 29761M 29761  29795  29801M 29816M 29844M 29883M 29907
             29958M 29975M 30555M 30557M 30608M 30633  30725M 30749  30880M 30923M 30947  31062M 31105M 31129  31237M
             31238  31240  31278M 31302  31538M 31555M 31593M 31653M 31677  31790M 31814  31953M 31977  32102M 32126
             32270M 32294  32597M 32720M 32744  32860M 32878M 32902M 32907  32908  32951M 32957  32967M 33133M 33163M
             33188  33341M 33365  33401M 33418M 33446M 33540  33582M 33606  33652M 33713M 33757  33925M 33949  34025M
             34053  34129M 34297  34397M 34401  34412M 34412  34421  34422  34454M 34482M 34491M 34491  34501M 34507
             34544M 34659  34702M 34735M 34759  34811M 34811  34820  34821  34853M 34871M 34927  34932M 34953M 34953
             34998M 35066  35105  35125M 35145  35184  35204M 35224  35267M 35300M 35324  35369M 35393  35469M 35490M
             35490  35508M 35521M 35572M 35592M 35592  35614M 35627M 35676M 35696M 35696  35737M 35775M 35799  35884M
             35907  35995M
     1(1)      978U  2104   2167M  2168M  2174M  6840   6868M  6881N  6882N  6884N  6919M  6944   6972M  6985N  6986N
              6988N  7012M  7049M  7083M  7109M  7127M  7155M  7195M  7217M  7252M  7274M  7309M  7331M  7366M  7388M
              7423M  7462M  7501M  7540M  7561M  7579M  7685   7727M  7740N  7741N  7742N  7832M  7886M  7900M  7918M
1         (VIEW2025) (13:00) (15MAR04) General Purpose Register Cross Reference                                             Page  193
              7939M  7957M  7978M  7996M  8017M  8093M  8112M  8133M  8180M  8198M  8219M  8266M  8284M  8305M  8374M
              8393M  8414M  8433M  8454M  8501M  8519M  8540M  8559M  8578M  8599M  8618M  8639M  8686M  8704M  8725M
              8802M  8820M  8841M  8873M  8927M  8951M  8970M  9005M  9059M  9083M  9130M  9209M  9233M  9280M  9359M
              9383M  9401M  9422M  9440M  9461M  9479M  9532M  9556M  9574M  9627M  9651M  9669M  9690M  9708M  9761M
              9785M  9803M  9830M  9854M  9872M  9899M  9922M  9978D  9980M  9980   9981M  9982U 10001M 10076M 10114M
             10203M 10221M 10271M 10295M 10318M 10336M 10357M 10378M 10399M 10420M 10441M 10462M 10498D 10500M 10500
             10501M 10502U 10526M 10546D 10548M 10548  10549M 10550U 10580M 10616M 10652M 10734M 10758  10867M 10877
             10892M 11067  11112  11121  11148  11253M 11254M 11292M 11292  11325M 11358  11384  11411  11515  11602
             11658  11669M 11707M 11732  11803M 11815M 11873M 11934M 11942M 11978M 11996M 12026M 12056M 12080M 12104M
             12127M 12147M 12171M 12206M 12224M 12245M 12293M 12355M 12423  12459M 12472N 12473N 12475N 12695M 12708N
             12709N 12711N 12784M 12806M 12904  12945M 12967  12993M 13014M 13425  13478M 13491  13502M 13532M 13552
             13646M 13666  13712M 13732  13779M 13799  13870M 13890  13922M 13935N 13936N 13938N 14003M 14084  14128M
             14148  14192M 14212  14242M 14259M 14279  14355M 14375  14449M 14469  14544M 14564  14610M 14630  14677M
             14697  14771M 14791  14866M 14886  14938M 14958  15011M 15031  15083M 15103  15156M 15176  15241M 15261
             15326M 15346  15392M 15412  15459M 15479  15516M 15517M 15517  15550M 15570  15616M 15636  15683M 15707
             15804M 16036  16105M 16203M 16268  16279M 16299M 16309M 16329  16337M 16350N 16351N 16353N 16402M 16451
             16650M 19187  19234M 19258  19356M 19408M 19453M 19477  19517M 19524  19540M 19569M 19595  19630M 19630
             19681M 19705  19740M 19740  19790M 19814  19858M 19875M 19936M 19960  20004M 20021M 20082M 20106  20184M
             20208  20329M 20353  20468M 20492  20578M 20638  20712M 20856  20950  20951  20962M 21015M 21039  21204
             21234M 21274M 21298  21351M 21403M 21441M 21495M 21519  21572M 21624M 21668  21754M 21771M 21826M 21854M
             21920M 21944  22268M 22292  22620M 22678  22724M 22745  22824M 22840M 22862M 22922M 22938M 22959M 23022M
             23190M 23206M 23228M 23261M 23348M 23386  23390M 23425  23868M 23874  23915M 23966  24096M 24205M 24249
             24321M 24611M 24746M 24801M 24803M 24810M 24856M 24983M 25007  25052M 25096M 25152M 25176  25261M 25339M
             25570M 25570  25614  25649  25664M 25755  25802M 25826  25871M 25915  25970M 25987M 26013M 26032M 26049M
             26097  26147M 26168M 26208M 26248M 26288M 26333M 26354M 26377M 26400M 26429M 26506M 26530  26574M 26591M
             26617M 26636M 26653M 26701  26729M 26750M 26791M 26855  26938  26963M 26987  27096M 27120  27217M 27241
             27333  27358M 27382  27451M 27451  27510M 27558M 27582  27664M 27711M 27765M 27794M 27859  28007M 28078M
             28100M 28142M 28159M 28268M 28319  28350M 28397M 28469M 28477M 28558M 28635M 28652  28766M 28823  28876M
             28941M 28958M 28978M 29073M 29097  29123M 29149M 29173M 29194M 29251M 29275  29301M 29327M 29351M 29372M
             29429M 29453  29524M 29541M 29632M 29649M 29696M 29713M 29734M 29765M 29765  29795  29800M 29816M 29843M
             29883M 29907  29957M 29974M 30556M 30557M 30608M 30633  30725M 30749  30923M 30947  31105M 31129  31278M
             31302  31537M 31554M 31594M 31653M 31677  31790M 31814  31953M 31977  32102M 32126  32270M 32294  32442M
             32551M 32596M 32720M 32744  32861M 32879M 32909  32944M 32957  32967M 33132M 33163M 33188  33341M 33365
             33400M 33417M 33446M 33540  33582M 33606  33651M 33713M 33757  33925M 33949  34025M 34053  34129M 34297
             34392M 34400  34408M 34421N 34422N 34424N 34453M 34477M 34500M 34507  34544M 34659  34701M 34735M 34759
             34807M 34820N 34821N 34823N 34852M 34872M 34931M 34949M 34998M 35066  35125M 35145  35204M 35224  35266M
             35300M 35324  35369M 35393  35468M 35486M 35507M 35571M 35588M 35613M 35675M 35692M 35736M 35775M 35799
             35884M 35907  35995M
     2(2)      974U  2104   6840   6919M  6944   7579M  7685   9925M 10006M 10019M 10019  10734M 10758  10892M 11067
             11325M 11358  11411  11515  11602  11658  11707M 11732  12299M 12355M 12423  12806M 12904  12945M 12967
             13014M 13425  13532M 13552  13646M 13666  13712M 13732  13779M 13799  13870M 13890  14003M 14084  14128M
             14148  14192M 14212  14259M 14279  14355M 14375  14449M 14469  14544M 14564  14610M 14630  14677M 14697
             14771M 14791  14866M 14886  14938M 14958  15011M 15031  15083M 15103  15156M 15176  15241M 15261  15326M
             15346  15392M 15412  15459M 15479  15550M 15570  15616M 15636  15683M 15707  15804M 16036  16650M 19187
             19234M 19258  19453M 19477  19569M 19595  19681M 19705  19790M 19814  19936M 19960  20082M 20106  20184M
             20208  20257M 20258M 20271M 20271  20283M 20329M 20353  20401M 20404M 20415M 20415  20426M 20468M 20492
             20535M 20537  20578M 20638  21015M 21039  21274M 21298  21394M 21394  21446M 21461M 21461  21495M 21519
             21624M 21668  21817M 21920M 21944  22268M 22292  22620M 22678  22724M 22745  23402M 23430M 23435M 23444M
             23444  23451  23518M 23518  23525  23912M 23922  24205M 24249  24630M 24631M 24632M 24658  24668  24826M
             24827  24838M 24838  24877N 24983M 25007  25152M 25176  25261M 25292  25484M 25587M 25614  25643M 25664M
             25755  25802M 25826  25871M 25915  26098M 26152  26338  26506M 26530  26702M 26734  26791M 26855  26963M
             26987  27096M 27120  27217M 27241  27296M 27298  27331  27358M 27382  27558M 27582  27794M 27859  28013M
             28040  28050  28051N 28066  28105  28164  28325M 28326M 28326  28360M 28360  28396M 28413M 28413  28429
             28441M 28448  28460M 28469N 28478  28524  28766M 28823  29073M 29097  29251M 29275  29429M 29453  29669M
             29681  29883M 29907  30201M 30213  30433M 30434  30435  30517M 30518M 30520M 30529M 30529  30535M 30548
             30608M 30633  30725M 30749  30923M 30947  31105M 31129  31213M 31231M 31236M 31244  31246M 31247  31278M
             31302  31653M 31677  31790M 31814  31953M 31977  32102M 32126  32270M 32294  32452D 32454M 32454  32455M
             32456U 32466  32529M 32529  32541  32720M 32744  32811M 32822M 32822  32853M 33163M 33188  33214M 33229
             33314M 33341M 33365  33446M 33540  33582M 33606  33713M 33757  33783M 33817  33833  33847  33887  33925M
1         (VIEW2025) (13:00) (15MAR04) General Purpose Register Cross Reference                                             Page  194
             33949  34025M 34053  34129M 34297  34397  34544M 34659  34735M 34759  34927M 34949  34998M 35066  35125M
             35145  35204M 35224  35300M 35324  35369M 35393  35775M 35799  35884M 35907  35995M
     3(3)      970U  2104   6840   6919M  6944   7579M  7685   9924M 10004M 10734M 10758  10892M 11067  11113M 11234
             11247  11325M 11358  11411  11515  11602  11658  11707M 11732  12355M 12423  12806M 12904  12945M 12967
             13014M 13425  13470M 13478  13532M 13552  13646M 13666  13712M 13732  13779M 13799  13870M 13890  13919M
             13919  13957  14003M 14084  14110M 14112  14128M 14148  14174M 14176  14192M 14212  14259M 14279  14355M
             14375  14449M 14469  14544M 14564  14610M 14630  14677M 14697  14771M 14791  14866M 14886  14938M 14958
             15011M 15031  15083M 15103  15156M 15176  15241M 15261  15326M 15346  15392M 15412  15459M 15479  15550M
             15570  15616M 15636  15683M 15707  15804M 16036  16650M 19187  19234M 19258  19453M 19477  19569M 19595
             19681M 19705  19790M 19814  19936M 19960  20082M 20106  20184M 20208  20329M 20353  20396M 20403  20468M
             20492  20578M 20638  21015M 21039  21274M 21298  21495M 21519  21624M 21668  21920M 21944  22268M 22292
             22620M 22678  22724M 22745  23425M 23429M 24205M 24249  24625M 24631  24646  24670M 24670N 24672M 24877M
             24983M 25007  25152M 25176  25261M 25292  25587M 25614  25664M 25755  25802M 25826  25871M 25915  26097M
             26147  26333  26506M 26530  26701M 26729  26791M 26855  26963M 26987  27096M 27120  27217M 27241  27358M
             27382  27558M 27582  27794M 27859  28051M 28053M 28078  28100  28159  28466M 28477  28766M 28823  29073M
             29097  29251M 29275  29429M 29453  29883M 29907  30058M 30059  30075  30179M 30298M 30299  30315  30337M
             30455M 30456  30472  30494M 30608M 30633  30725M 30749  30923M 30947  31105M 31129  31278M 31302  31653M
             31677  31790M 31814  31953M 31977  32102M 32126  32270M 32294  32381M 32382M 32395M 32400M 32403  32415M
             32422  32434M 32466  32541  32677  32720M 32744  32936M 32944  33163M 33188  33215M 33244U 33313M 33320U
             33341M 33365  33446M 33540  33582M 33606  33713M 33757  33925M 33949  34025M 34053  34129M 34297  34392
             34544M 34659  34735M 34759  34998M 35066  35125M 35145  35204M 35224  35300M 35324  35369M 35393  35775M
             35799  35884M 35907  35995M
     4(4)      966U  2104   6840   6919M  6944   7579M  7685   8767M  8778  10134M 10236M 10247  10700M 10734M 10758
             10892M 11067  11112M 11252  11325M 11358  11411  11515  11602  11658  11707M 11732  12355M 12423  12806M
             12904  12945M 12967  13014M 13425  13468M 13494  13532M 13552  13646M 13666  13712M 13732  13779M 13799
             13870M 13890  14003M 14084  14128M 14148  14192M 14212  14259M 14279  14355M 14375  14449M 14469  14544M
             14564  14610M 14630  14677M 14697  14771M 14791  14866M 14886  14938M 14958  15011M 15031  15083M 15103
             15156M 15176  15241M 15261  15326M 15346  15392M 15412  15459M 15479  15550M 15570  15616M 15636  15683M
             15707  15804M 16036  16650M 19187  19234M 19258  19453M 19477  19569M 19595  19681M 19705  19790M 19814
             19936M 19960  20082M 20106  20184M 20208  20234M 20260  20305  20329M 20353  20468M 20492  20578M 20638
             21015M 21039  21274M 21298  21495M 21519  21624M 21668  21920M 21944  22268M 22292  22620M 22678  22724M
             22745  23387M 23403  23470N 23474M 23483M 23483  23490  24205M 24249  24624M 24628  24630  24673M 24673N
             24983M 25007  25152M 25176  25261M 25292  25587M 25614  25664M 25755  25802M 25826  25871M 25915  26414M
             26453M 26454M 26506M 26530  26791M 26855  26963M 26987  27041M 27042M 27043M 27053U 27076U 27096M 27120
             27146M 27147M 27148M 27158U 27204U 27217M 27241  27358M 27382  27558M 27582  27794M 27859  28766M 28823
             29073M 29097  29251M 29275  29429M 29453  29480M 29481M 29482M 29492U 29870U 29883M 29907  30059M 30060M
             30061M 30090U 30178M 30185U 30219M 30220M 30221M 30231U 30293U 30299M 30300M 30301M 30330U 30336M 30343U
             30349M 30351  30353M 30354M 30364U 30416U 30456M 30457M 30458M 30487U 30493M 30500U 30507M 30508  30608M
             30633  30725M 30749  30775M 30776  30923M 30947  30973M 30974  31105M 31129  31278M 31302  31328M 31329M
             31330M 31340U 31627U 31653M 31677  31790M 31814  31953M 31977  32102M 32126  32270M 32294  32320M 32321M
             32322M 32332U 32694U 32720M 32744  33163M 33188  33341M 33365  33446M 33540  33582M 33606  33713M 33757
             33925M 33949  34025M 34053  34129M 34297  34544M 34659  34735M 34759  34998M 35066  35125M 35145  35204M
             35224  35300M 35324  35369M 35393  35775M 35799  35884M 35907  35995M
     5(5)      962U  2104   6840   6919M  6944   7579M  7685   7721M  7808M  7809M  7810M  7822   7853U  7865U  8768M
              8793U 10133M 10191U 10237M 10262U 10699M 10706U 10734M 10758  10892M 11067  11111M 11161  11189  11325M
             11358  11391M 11391  11411  11495M 11515  11545M 11545  11577U 11602  11616U 11658  11707M 11732  12355M
             12423  12806M 12904  12945M 12967  13014M 13425  13532M 13552  13646M 13666  13712M 13732  13779M 13799
             13870M 13890  14003M 14084  14128M 14148  14192M 14212  14259M 14279  14355M 14375  14449M 14469  14544M
             14564  14610M 14630  14677M 14697  14771M 14791  14866M 14886  14938M 14958  15011M 15031  15083M 15103
             15156M 15176  15241M 15261  15326M 15346  15392M 15412  15459M 15479  15550M 15570  15616M 15636  15683M
             15707  15740M 15742  15804M 16036  16650M 19187  19234M 19258  19453M 19477  19569M 19595  19681M 19705
             19790M 19814  19936M 19960  20082M 20106  20184M 20208  20236M 20237M 20238M 20248U 20301U 20329M 20353
             20379M 20380M 20381M 20391U 20445U 20468M 20492  20518M 20519M 20520M 20530U 20561U 20578M 20638  21015M
             21039  21274M 21298  21495M 21519  21624M 21668  21920M 21944  22268M 22292  22620M 22678  22724M 22745
             23386M 23686M 23687M 23688M 23698U 23769U 24117M 24118M 24119M 24129U 24163U 24205M 24249  24627M 24628M
             24677M 24686M 24686  24693  24726M 24745  24794M 24800  24983M 25007  25152M 25176  25261M 25292  25587M
             25614  25664M 25755  25802M 25826  25871M 25915  26506M 26530  26791M 26855  26963M 26987  27096M 27120
             27217M 27241  27358M 27382  27558M 27582  27630M 27631M 27632M 27642U 27722U 27794M 27859  27987M 27988M
             27989M 27999U 28748U 28766M 28823  28896M 28897M 28910M 28926  29000  29001M 29002M 29012U 29053U 29073M
1         (VIEW2025) (13:00) (15MAR04) General Purpose Register Cross Reference                                             Page  195
             29097  29251M 29275  29429M 29453  29563M 29572M 29572  29578M 29579M 29589U 29740U 29883M 29907  30000M
             30001M 30002M 30012U 30296M 30454M 30506M 30595U 30608M 30633  30725M 30749  30776M 30777M 30778M 30788U
             30904U 30923M 30947  30974M 30975M 30976M 30986U 31086U 31105M 31129  31155M 31156M 31157M 31167U 31254U
             31278M 31302  31576M 31577M 31578M 31588U 31619U 31653M 31677  31703M 31704M 31705M 31715U 31761U 31790M
             31814  31840M 31841M 31842M 31852U 31929U 31953M 31977  32003M 32004M 32005M 32015U 32078U 32102M 32126
             32152M 32153M 32154M 32164U 32246U 32270M 32294  32346M 32347M 32347  32365M 32366M 32376U 32688U 32720M
             32744  32989M 32990M 32990  33011U 33117U 33163M 33188  33341M 33365  33446M 33540  33582M 33606  33713M
             33757  33925M 33949  34025M 34053  34129M 34297  34544M 34659  34735M 34759  34998M 35066  35125M 35145
             35204M 35224  35300M 35324  35369M 35393  35775M 35799  35884M 35907  35995M
     6(6)      958U  2104   6840   6919M  6944   7579M  7685   7858M  7876M  7876   7918N  7957N  7996N  8112N  8147N
              8198N  8233N  8284N  8393N  8433N  8468N  8519N  8578N  8618N  8653N  8704N  8768N  8778N  8862   8994
             10237N 10247N 10734M 10758  10892M 11067  11121M 11131U 11258  11307U 11325M 11358  11384M 11411  11450M
             11450  11469M 11485  11515  11551  11602  11610  11632U 11658  11689U 11707M 11732  11832M 11848U 11862M
             11863M 11863  12334U 12355M 12423  12806M 12904  12945M 12967  13014M 13425  13532M 13552  13646M 13666
             13712M 13732  13779M 13799  13870M 13890  14003M 14084  14128M 14148  14192M 14212  14259M 14279  14355M
             14375  14449M 14469  14544M 14564  14610M 14630  14677M 14697  14771M 14791  14866M 14886  14938M 14958
             15011M 15031  15083M 15103  15156M 15176  15241M 15261  15326M 15346  15392M 15412  15459M 15479  15550M
             15570  15616M 15636  15683M 15707  15804M 16036  16072M 16082U 16632U 16650M 16694U 19187  19234M 19258
             19453M 19477  19569M 19595  19681M 19705  19790M 19814  19936M 19960  20082M 20106  20184M 20208  20329M
             20353  20468M 20492  20578M 20638  21015M 21039  21274M 21298  21495M 21519  21624M 21668  21920M 21944
             22268M 22292  22620M 22678  22724M 22745  24205M 24249  24983M 25007  25152M 25176  25261M 25292  25587M
             25614  25664M 25755  25802M 25826  25871M 25915  26506M 26530  26791M 26855  26963M 26987  27096M 27120
             27217M 27241  27358M 27382  27558M 27582  27794M 27859  28766M 28823  29073M 29097  29251M 29275  29429M
             29453  29883M 29907  30608M 30633  30725M 30749  30802M 30803M 30803  30821M 30822M 30832U 30835U 30895U
             30898U 30923M 30947  31000M 31001M 31001  31019M 31020M 31030U 31033U 31077U 31080U 31105M 31129  31278M
             31302  31653M 31677  31790M 31814  31953M 31977  32102M 32126  32270M 32294  32720M 32744  33163M 33188
             33341M 33365  33446M 33540  33582M 33606  33713M 33726U 33757  33925M 33949  34025M 34053  34129M 34297
             34333M 34343U 34526U 34544M 34659  34694U 34722U 34735M 34759  34794U 34985U 34998M 35066  35101U 35112U
             35125M 35145  35180U 35191U 35204M 35224  35259U 35287U 35300M 35324  35369M 35393  35428U 35762U 35775M
             35799  35884M 35907  35995M
     7(7)      954U  2097M  2097   2098B  2104   2110B  6840   6845M  6857U  6911U  6919M  6944   6949M  6961U  7571U
              7579M  7685   7691M  7703U 10726U 10734M 10758  10763M 10775U 10884U 10892M 11067  11072M 11084U 11317U
             11325M 11358  11363M 11375U 11411  11515  11602  11658  11699U 11707M 11732  11737M 11749U 12347U 12355M
             12423  12428M 12440U 12798U 12806M 12904  12909M 12921U 12937U 12945M 12967  12972M 12984U 13006U 13014M
             13425  13430M 13442U 13524U 13532M 13552  13557M 13569U 13638U 13646M 13666  13671M 13683U 13704U 13712M
             13732  13737M 13749U 13771U 13779M 13799  13804M 13816U 13862U 13870M 13890  13895M 13907U 13995U 14003M
             14084  14089M 14101U 14120U 14128M 14148  14153M 14165U 14184U 14192M 14212  14217M 14229U 14251U 14259M
             14279  14284M 14296U 14347U 14355M 14375  14380M 14392U 14441U 14449M 14469  14474M 14486U 14536U 14544M
             14564  14569M 14581U 14602U 14610M 14630  14635M 14647U 14669U 14677M 14697  14702M 14714U 14763U 14771M
             14791  14796M 14808U 14858U 14866M 14886  14891M 14903U 14930U 14938M 14958  14963M 14975U 15003U 15011M
             15031  15036M 15048U 15075U 15083M 15103  15108M 15120U 15148U 15156M 15176  15181M 15193U 15233U 15241M
             15261  15266M 15278U 15318U 15326M 15346  15351M 15363U 15384U 15392M 15412  15417M 15429U 15451U 15459M
             15479  15484M 15496U 15542U 15550M 15570  15575M 15587U 15608U 15616M 15636  15641M 15653U 15675U 15683M
             15707  15712M 15724U 15796U 15804M 16036  16042M 16054U 16642U 16650M 19187  19192M 19204U 19226U 19234M
             19258  19263M 19275U 19445U 19453M 19477  19482M 19494U 19561U 19569M 19595  19600M 19612U 19673U 19681M
             19705  19710M 19722U 19782U 19790M 19814  19819M 19831U 19928U 19936M 19960  19965M 19977U 20074U 20082M
             20106  20111M 20123U 20176U 20184M 20208  20213M 20225U 20321U 20329M 20353  20358M 20370U 20460U 20468M
             20492  20497M 20509U 20570U 20578M 20638  20643M 20655U 21007U 21015M 21039  21044M 21056U 21266U 21274M
             21298  21303M 21315U 21487U 21495M 21519  21524M 21536U 21616U 21624M 21668  21674M 21686U 21912U 21920M
             21944  21949M 21961U 22260U 22268M 22292  22297M 22309U 22612U 22620M 22678  22683M 22695U 22716U 22724M
             22745  22751M 22763U 24197U 24205M 24249  24255M 24267U 24975U 24983M 25007  25012M 25024U 25144U 25152M
             25176  25181M 25193U 25253U 25261M 25292  25297M 25309U 25579U 25587M 25614  25619M 25631U 25656U 25664M
             25755  25760M 25772U 25794U 25802M 25826  25831M 25843U 25863U 25871M 25915  25921M 25933U 26498U 26506M
             26530  26535M 26547U 26783U 26791M 26855  26860M 26872U 26955U 26963M 26987  26992M 27004U 27088U 27096M
             27120  27125M 27137U 27209U 27217M 27241  27246M 27258U 27350U 27358M 27382  27387M 27399U 27550U 27558M
             27582  27587M 27599U 27786U 27794M 27859  27865M 27877U 28758U 28766M 28823  28828M 28840U 29065U 29073M
             29097  29102M 29114U 29243U 29251M 29275  29280M 29292U 29421U 29429M 29453  29458M 29470U 29875U 29883M
             29907  29912M 29924U 30600U 30608M 30633  30638M 30650U 30717U 30725M 30749  30754M 30766U 30915U 30923M
             30947  30952M 30964U 31097U 31105M 31129  31134M 31146U 31270U 31278M 31302  31307M 31319U 31645U 31653M
1         (VIEW2025) (13:00) (15MAR04) General Purpose Register Cross Reference                                             Page  196
             31677  31682M 31694U 31782U 31790M 31814  31819M 31831U 31945U 31953M 31977  31982M 31994U 32094U 32102M
             32126  32131M 32143U 32262U 32270M 32294  32299M 32311U 32712U 32720M 32744  32749M 32761U 33155U 33163M
             33188  33193M 33205U 33333U 33341M 33365  33370M 33382U 33438U 33446M 33540  33545M 33557U 33574U 33582M
             33606  33611M 33623U 33705U 33713M 33757  33762M 33774U 33917U 33925M 33949  33954M 33966U 34017U 34025M
             34053  34058M 34070U 34121U 34129M 34297  34303M 34315U 34536U 34544M 34659  34664M 34676U 34727U 34735M
             34759  34764M 34776U 34990U 34998M 35066  35071M 35083U 35117U 35125M 35145  35150M 35162U 35196U 35204M
             35224  35229M 35241U 35292U 35300M 35324  35329M 35341U 35361U 35369M 35393  35398M 35410U 35767U 35775M
             35799  35804M 35816U 35876U 35884M 35907  35912M 35924U 35987U 35995M
     8(8)      950U  2104   6840   6841M  6915   6919M  6944   6945M  7575   7579M  7685   7687M  7717U 10721U 10730
             10734M 10758  10759M 10877  10888  10892M 11067  11068M 11321  11325M 11358  11359M 11411  11515  11602
             11658  11703  11707M 11732  11733M 12351  12355M 12423  12424M 12802  12806M 12904  12905M 12941  12945M
             12967  12968M 12999N 13010  13014M 13425  13426M 13528  13532M 13552  13553M 13642  13646M 13666  13667M
             13708  13712M 13732  13733M 13775  13779M 13799  13800M 13866  13870M 13890  13891M 13999  14003M 14084
             14085M 14112N 14124  14128M 14148  14149M 14176N 14188  14192M 14212  14213M 14255  14259M 14279  14280M
             14351  14355M 14375  14376M 14445  14449M 14469  14470M 14540  14544M 14564  14565M 14606  14610M 14630
             14631M 14673  14677M 14697  14698M 14767  14771M 14791  14792M 14862  14866M 14886  14887M 14934  14938M
             14958  14959M 15007  15011M 15031  15032M 15079  15083M 15103  15104M 15152  15156M 15176  15177M 15237
             15241M 15261  15262M 15322  15326M 15346  15347M 15388  15392M 15412  15413M 15455  15459M 15479  15480M
             15546  15550M 15570  15571M 15612  15616M 15636  15637M 15679  15683M 15707  15708M 15800  15804M 16036
             16038M 16068U 16637U 16646  16650M 19187  19188M 19230  19234M 19258  19259M 19449  19453M 19477  19478M
             19565  19569M 19595  19596M 19677  19681M 19705  19706M 19786  19790M 19814  19815M 19932  19936M 19960
             19961M 20078  20082M 20106  20107M 20180  20184M 20208  20209M 20325  20329M 20353  20354M 20464  20468M
             20492  20493M 20574  20578M 20638  20639M 21011  21015M 21039  21040M 21270  21274M 21298  21299M 21491
             21495M 21519  21520M 21620  21624M 21668  21670M 21700U 21907U 21916  21920M 21944  21945M 22264  22268M
             22292  22293M 22616  22620M 22678  22679M 22720  22724M 22745  22747M 22777U 24192U 24201  24205M 24249
             24251M 24281U 24970U 24979  24983M 25007  25008M 25148  25152M 25176  25177M 25257  25261M 25292  25293M
             25583  25587M 25614  25615M 25649  25660  25664M 25755  25756M 25798  25802M 25826  25827M 25867  25871M
             25915  25917M 25947U 26493U 26502  26506M 26530  26531M 26787  26791M 26855  26856M 26959  26963M 26987
             26988M 27092  27096M 27120  27121M 27213  27217M 27241  27242M 27354  27358M 27382  27383M 27554  27558M
             27582  27583M 27790  27794M 27859  27861M 27891U 28753U 28762  28766M 28823  28824M 29069  29073M 29097
             29098M 29247  29251M 29275  29276M 29425  29429M 29453  29454M 29879  29883M 29907  29908M 30604  30608M
             30633  30634M 30721  30725M 30749  30750M 30919  30923M 30947  30948M 31101  31105M 31129  31130M 31274
             31278M 31302  31303M 31649  31653M 31677  31678M 31786  31790M 31814  31815M 31949  31953M 31977  31978M
             32098  32102M 32126  32127M 32266  32270M 32294  32295M 32716  32720M 32744  32745M 33159  33163M 33188
             33189M 33337  33341M 33365  33366M 33442  33446M 33540  33541M 33578  33582M 33606  33607M 33709  33713M
             33757  33758M 33921  33925M 33949  33950M 34021  34025M 34053  34054M 34125  34129M 34297  34299M 34329U
             34507  34531U 34540  34544M 34659  34660M 34731  34735M 34759  34760M 34994  34998M 35066  35067M 35121
             35125M 35145  35146M 35200  35204M 35224  35225M 35296  35300M 35324  35325M 35365  35369M 35393  35394M
             35771  35775M 35799  35800M 35880  35884M 35907  35908M 35991  35995M
     9(9)      946U  2104  11411  11515  11602  11658
    10(A)      942U  2104  11411  11515  11602  11658
    11(B)      938U  1168U  2104  11411  11515  11602  11658
    12(C)      934U  1177U  2104  11411  11515  11602  11658
    13(D)      930U  2104   6837   6840   6841   6842M  6842   6876   6877   6878   6880M  6880   6893M  6894   6895
              6896   6915M  6919   6921   6941   6944   6945   6946M  6946   6980   6981   6982   6984M  6984   6997M
              6998   6999   7000   7575M  7579   7581   7682   7685   7687   7688M  7688   7735   7736   7737   7739M
              7739   7751M  7752   7753   7754  10730M 10734  10736  10755  10758  10759  10760M 10760  10888M 10892
             10894  11064  11067  11068  11069M 11069  11321M 11325  11327  11355  11358  11359  11360M 11360  11411
             11515  11602  11658  11703M 11707  11709  11729  11732  11733  11734M 11734  11944  11945M 11945  12351M
             12355  12357  12420  12423  12424  12425M 12425  12467  12468  12469  12471M 12471  12484M 12485  12486
             12487  12703  12704  12705  12707M 12707  12720M 12721  12722  12723  12802M 12806  12808  12901  12904
             12905  12906M 12906  12941M 12945  12947  12964  12967  12968  12969M 12969  13010M 13014  13016  13422
             13425  13426  13427M 13427  13470  13471M 13471  13491  13492M 13492  13501M 13502  13508M 13528M 13532
             13534  13549  13552  13553  13554M 13554  13642M 13646  13648  13663  13666  13667  13668M 13668  13708M
             13712  13714  13729  13732  13733  13734M 13734  13775M 13779  13781  13796  13799  13800  13801M 13801
             13866M 13870  13872  13887  13890  13891  13892M 13892  13930  13931  13932  13934M 13934  13947M 13948
             13949  13950  13999M 14003  14005  14081  14084  14085  14086M 14086  14124M 14128  14130  14145  14148
             14149  14150M 14150  14188M 14192  14194  14209  14212  14213  14214M 14214  14255M 14259  14261  14276
             14279  14280  14281M 14281  14351M 14355  14357  14372  14375  14376  14377M 14377  14445M 14449  14451
1         (VIEW2025) (13:00) (15MAR04) General Purpose Register Cross Reference                                             Page  197
             14466  14469  14470  14471M 14471  14540M 14544  14546  14561  14564  14565  14566M 14566  14606M 14610
             14612  14627  14630  14631  14632M 14632  14673M 14677  14679  14694  14697  14698  14699M 14699  14767M
             14771  14773  14788  14791  14792  14793M 14793  14862M 14866  14868  14883  14886  14887  14888M 14888
             14934M 14938  14940  14955  14958  14959  14960M 14960  15007M 15011  15013  15028  15031  15032  15033M
             15033  15079M 15083  15085  15100  15103  15104  15105M 15105  15152M 15156  15158  15173  15176  15177
             15178M 15178  15237M 15241  15243  15258  15261  15262  15263M 15263  15322M 15326  15328  15343  15346
             15347  15348M 15348  15388M 15392  15394  15409  15412  15413  15414M 15414  15455M 15459  15461  15476
             15479  15480  15481M 15481  15546M 15550  15552  15567  15570  15571  15572M 15572  15612M 15616  15618
             15633  15636  15637  15638M 15638  15679M 15683  15685  15704  15707  15708  15709M 15709  15800M 15804
             15806  16033  16036  16038  16039M 16039  16345  16346  16347  16349M 16349  16362M 16363  16364  16365
             16646M 16650  16652  19184  19187  19188  19189M 19189  19230M 19234  19236  19255  19258  19259  19260M
             19260  19449M 19453  19455  19474  19477  19478  19479M 19479  19565M 19569  19571  19592  19595  19596
             19597M 19597  19677M 19681  19683  19702  19705  19706  19707M 19707  19786M 19790  19792  19811  19814
             19815  19816M 19816  19932M 19936  19938  19957  19960  19961  19962M 19962  20078M 20082  20084  20103
             20106  20107  20108M 20108  20180M 20184  20186  20205  20208  20209  20210M 20210  20325M 20329  20331
             20350  20353  20354  20355M 20355  20464M 20468  20470  20489  20492  20493  20494M 20494  20574M 20578
             20580  20635  20638  20639  20640M 20640  21011M 21015  21017  21036  21039  21040  21041M 21041  21270M
             21274  21276  21295  21298  21299  21300M 21300  21491M 21495  21497  21516  21519  21520  21521M 21521
             21620M 21624  21626  21665  21668  21670  21671M 21671  21916M 21920  21922  21941  21944  21945  21946M
             21946  22264M 22268  22270  22289  22292  22293  22294M 22294  22616M 22620  22622  22675  22678  22679
             22680M 22680  22720M 22724  22726  22742  22745  22747  22748M 22748  24201M 24205  24207  24246  24249
             24251  24252M 24252  24979M 24983  24985  25004  25007  25008  25009M 25009  25148M 25152  25154  25173
             25176  25177  25178M 25178  25257M 25261  25263  25289  25292  25293  25294M 25294  25583M 25587  25589
             25611  25614  25615  25616M 25616  25660M 25664  25666  25752  25755  25756  25757M 25757  25798M 25802
             25804  25823  25826  25827  25828M 25828  25867M 25871  25873  25912  25915  25917  25918M 25918  26502M
             26506  26508  26527  26530  26531  26532M 26532  26787M 26791  26793  26852  26855  26856  26857M 26857
             26959M 26963  26965  26984  26987  26988  26989M 26989  27092M 27096  27098  27117  27120  27121  27122M
             27122  27213M 27217  27219  27238  27241  27242  27243M 27243  27354M 27358  27360  27379  27382  27383
             27384M 27384  27554M 27558  27560  27579  27582  27583  27584M 27584  27790M 27794  27796  27856  27859
             27861  27862M 27862  28466  28467M 28467  28762M 28766  28768  28820  28823  28824  28825M 28825  29069M
             29073  29075  29094  29097  29098  29099M 29099  29247M 29251  29253  29272  29275  29276  29277M 29277
             29425M 29429  29431  29450  29453  29454  29455M 29455  29795  29796M 29796  29815M 29816  29879M 29883
             29885  29904  29907  29908  29909M 29909  30604M 30608  30610  30630  30633  30634  30635M 30635  30721M
             30725  30727  30746  30749  30750  30751M 30751  30919M 30923  30925  30944  30947  30948  30949M 30949
             31101M 31105  31107  31126  31129  31130  31131M 31131  31274M 31278  31280  31299  31302  31303  31304M
             31304  31649M 31653  31655  31674  31677  31678  31679M 31679  31786M 31790  31792  31811  31814  31815
             31816M 31816  31949M 31953  31955  31974  31977  31978  31979M 31979  32098M 32102  32104  32123  32126
             32127  32128M 32128  32266M 32270  32272  32291  32294  32295  32296M 32296  32716M 32720  32722  32741
             32744  32745  32746M 32746  32936  32937M 32937  32957  32958M 32958  32966M 32967  32973M 33159M 33163
             33165  33185  33188  33189  33190M 33190  33337M 33341  33343  33362  33365  33366  33367M 33367  33442M
             33446  33448  33537  33540  33541  33542M 33542  33578M 33582  33584  33603  33606  33607  33608M 33608
             33709M 33713  33715  33754  33757  33758  33759M 33759  33921M 33925  33927  33946  33949  33950  33951M
             33951  34021M 34025  34027  34050  34053  34054  34055M 34055  34125M 34129  34131  34294  34297  34299
             34300M 34300  34380  34382M 34382  34416  34417  34418  34420M 34420  34433M 34434  34435  34436  34513M
             34540M 34544  34546  34656  34659  34660  34661M 34661  34731M 34735  34737  34756  34759  34760  34761M
             34761  34801  34803M 34803  34815  34816  34817  34819M 34819  34832M 34833  34834  34835  34975M 34994M
             34998  35000  35063  35066  35067  35068M 35068  35121M 35125  35127  35142  35145  35146  35147M 35147
             35200M 35204  35206  35221  35224  35225  35226M 35226  35296M 35300  35302  35321  35324  35325  35326M
             35326  35365M 35369  35371  35390  35393  35394  35395M 35395  35771M 35775  35777  35796  35799  35800
             35801M 35801  35880M 35884  35886  35904  35907  35908  35909M 35909  35991M 35995  35997
    14(E)      926U  2104   2105M  2119   2120M  2121B  2123M  2124B  2144M  2145B  2149M  2150B  2152M  2153B  2155M
              2156B  2158M  2159B  2161M  2162M  2162B  2168   6837   6875M  6876   6877   6878   6883M  6884   6887M
              6888M  6888B  6891M  6894   6895   6896   6901M  6902M  6902B  6921M  6924B  6941   6979M  6980   6981
              6982   6987M  6988   6991M  6992M  6992B  6995M  6998   6999   7000   7005M  7006M  7006B  7024M  7025M
              7025B  7061M  7062M  7062B  7098M  7099M  7099B  7121M  7122M  7122B  7142M  7143M  7143B  7173M  7174M
              7174B  7207M  7208M  7208B  7229M  7230M  7230B  7264M  7265M  7265B  7286M  7287M  7287B  7321M  7322M
              7322B  7343M  7344M  7344B  7378M  7379M  7379B  7400M  7401M  7401B  7435M  7436M  7436B  7474M  7475M
              7475B  7513M  7514M  7514B  7552M  7553M  7553B  7581M  7584B  7682   7734M  7735   7736   7737   7745M
              7746M  7746B  7749M  7752   7753   7754   7783M  7784M  7784B  7802M  7803M  7803B  7912M  7913M  7913B
1         (VIEW2025) (13:00) (15MAR04) General Purpose Register Cross Reference                                             Page  198
              7933M  7934M  7934B  7951M  7952M  7952B  7972M  7973M  7973B  7990M  7991M  7991B  8011M  8012M  8012B
              8029M  8030M  8030B  8054M  8055M  8055B  8079M  8080M  8080B  8105M  8106M  8106B  8127M  8128M  8128B
              8145M  8146M  8146B  8150M  8151M  8151B  8174M  8175M  8175B  8192M  8193M  8193B  8213M  8214M  8214B
              8231M  8232M  8232B  8236M  8237M  8237B  8260M  8261M  8261B  8278M  8279M  8279B  8299M  8300M  8300B
              8317M  8318M  8318B  8342M  8343M  8343B  8367M  8368M  8368B  8386M  8387M  8387B  8408M  8409M  8409B
              8426M  8427M  8427B  8448M  8449M  8449B  8466M  8467M  8467B  8471M  8472M  8472B  8495M  8496M  8496B
              8513M  8514M  8514B  8534M  8535M  8535B  8552M  8553M  8553B  8571M  8572M  8572B  8593M  8594M  8594B
              8611M  8612M  8612B  8633M  8634M  8634B  8651M  8652M  8652B  8656M  8657M  8657B  8680M  8681M  8681B
              8698M  8699M  8699B  8719M  8720M  8720B  8737M  8738M  8738B  8762M  8763M  8763B  8814M  8815M  8815B
              8835M  8836M  8836B  8853M  8854M  8854B  8885M  8886M  8886B  8914M  8915M  8915B  8945M  8946M  8946B
              8963M  8964M  8964B  8985M  8986M  8986B  9017M  9018M  9018B  9046M  9047M  9047B  9077M  9078M  9078B
              9095M  9096M  9096B  9100M  9101M  9101B  9124M  9125M  9125B  9142M  9143M  9143B  9147M  9148M  9148B
              9171M  9172M  9172B  9196M  9197M  9197B  9227M  9228M  9228B  9245M  9246M  9246B  9250M  9251M  9251B
              9274M  9275M  9275B  9292M  9293M  9293B  9297M  9298M  9298B  9321M  9322M  9322B  9346M  9347M  9347B
              9377M  9378M  9378B  9395M  9396M  9396B  9416M  9417M  9417B  9434M  9435M  9435B  9455M  9456M  9456B
              9473M  9474M  9474B  9494M  9495M  9495B  9519M  9520M  9520B  9550M  9551M  9551B  9568M  9569M  9569B
              9589M  9590M  9590B  9614M  9615M  9615B  9645M  9646M  9646B  9663M  9664M  9664B  9684M  9685M  9685B
              9702M  9703M  9703B  9723M  9724M  9724B  9748M  9749M  9749B  9779M  9780M  9780B  9797M  9798M  9798B
              9818M  9819M  9819B  9848M  9849M  9849B  9866M  9867M  9867B  9887M  9888M  9888B  9917M  9918M  9918B
              9970M  9971M  9971B  9997M  9998M  9998B 10053M 10054M 10054B 10088M 10089M 10089B 10126M 10127M 10127B
             10159M 10160M 10160B 10184M 10185M 10185B 10215M 10216M 10216B 10233M 10234M 10234B 10289M 10290M 10290B
             10313M 10314M 10314B 10489M 10490M 10490B 10520M 10521M 10521B 10538M 10539M 10539B 10568M 10569M 10569B
             10598M 10599M 10599B 10604M 10605M 10605B 10634M 10635M 10635B 10640M 10641M 10641B 10670M 10671M 10671B
             10696M 10697M 10697B 10736M 10739B 10755  10870M 10871M 10871B 10874M 10875M 10875B 10894M 10897B 11064
             11119M 11120M 11120B 11146M 11147M 11147B 11242M 11254M 11295M 11296M 11296B 11327M 11330B 11355  11411
             11412M 11515  11516M 11602  11603M 11658  11659M 11675M 11676M 11676B 11709M 11712B 11729  11776M 11777M
             11777B 11827M 11828M 11828B 11885M 11886M 11886B 11910M 11911M 11911B 11948M 11949M 11949B 11972M 11973M
             11973B 11990M 11991M 11991B 12014M 12015M 12015B 12044M 12045M 12045B 12074M 12075M 12075B 12092M 12093M
             12093B 12122M 12123M 12123B 12199M 12200M 12200B 12218M 12219M 12219B 12239M 12240M 12240B 12257M 12258M
             12258B 12282M 12283M 12283B 12302M 12303M 12303B 12327M 12328M 12328B 12357M 12360B 12420  12454M 12455M
             12455B 12466M 12467  12468  12469  12474M 12475  12478M 12479M 12479B 12482M 12485  12486  12487  12492M
             12493M 12493B 12536M 12537M 12537B 12586M 12587M 12587B 12613M 12614M 12614B 12622M 12623N 12638N 12653N
             12654N 12655  12655  12656N 12657N 12670N 12674M 12674  12691M 12692M 12692B 12702M 12703  12704  12705
             12710M 12711  12714M 12715M 12715B 12718M 12721  12722  12723  12769M 12770M 12770B 12787M 12788M 12788B
             12808M 12811B 12901  12947M 12950B 12964  12996M 12997M 12997B 13016M 13019B 13422  13488M 13489M 13489B
             13497M 13498M 13498B 13505M 13506M 13506B 13534M 13537B 13549  13622M 13623M 13623B 13648M 13651B 13663
             13714M 13717B 13729  13781M 13784B 13796  13846M 13847M 13847B 13872M 13875B 13887  13929M 13930  13931
             13932  13937M 13938  13941M 13942M 13942B 13945M 13948  13949  13950  13955M 13956M 13956B 13979M 13980M
             13980B 14005M 14008B 14081  14130M 14133B 14145  14194M 14197B 14209  14261M 14264B 14276  14331M 14332M
             14332B 14357M 14360B 14372  14425M 14426M 14426B 14451M 14454B 14466  14520M 14521M 14521B 14546M 14549B
             14561  14612M 14615B 14627  14679M 14682B 14694  14747M 14748M 14748B 14773M 14776B 14788  14842M 14843M
             14843B 14868M 14871B 14883  14940M 14943B 14955  15013M 15016B 15028  15085M 15088B 15100  15158M 15161B
             15173  15221M 15222M 15222B 15243M 15246B 15258  15306M 15307M 15307B 15328M 15331B 15343  15394M 15397B
             15409  15461M 15464B 15476  15525M 15526M 15526B 15552M 15555B 15567  15618M 15621B 15633  15685M 15688B
             15704  15745M 15746M 15746B 15762M 15763M 15763B 15778M 15779M 15779B 15806M 15809B 16033  16121M 16122M
             16122B 16210M 16211M 16211B 16287M 16288M 16288B 16307M 16308M 16308B 16328M 16329N 16330N 16334M 16334
             16344M 16345  16346  16347  16352M 16353  16356M 16357M 16357B 16360M 16363  16364  16365  16370M 16371M
             16371B 16399M 16400M 16400B 16409M 16410M 16410B 16489M 16490M 16490B 16652M 16655B 19184  19236M 19239B
             19255  19359M 19360M 19360B 19411M 19412M 19412B 19455M 19458B 19474  19523M 19524N 19525N 19529M 19529
             19547M 19548M 19548B 19551M 19552M 19552B 19571M 19574B 19592  19633M 19634M 19634B 19639M 19639  19640M
             19664M 19665M 19665B 19683M 19686B 19702  19743M 19744M 19744B 19749M 19749  19750M 19773M 19774M 19774B
             19792M 19795B 19811  19870M 19871M 19871B 19887M 19888M 19888B 19919M 19920M 19920B 19938M 19941B 19957
             20016M 20017M 20017B 20033M 20034M 20034B 20065M 20066M 20066B 20084M 20087B 20103  20134M 20135M 20135B
             20163M 20164M 20164B 20186M 20189B 20205  20255M 20256M 20256B 20280M 20281M 20281B 20293M 20294M 20294B
             20331M 20334B 20350  20399M 20400M 20400B 20423M 20424M 20424B 20451M 20452M 20452B 20470M 20473B 20489
             20540M 20541M 20541B 20553M 20554M 20554B 20580M 20583B 20635  20715M 20716M 20716B 20774M 20775M 20775B
             20832M 20833M 20833B 20881M 20882M 20882B 20898M 20899M 20899B 20947M 20948M 20948B 20969M 20970M 20970B
             21017M 21020B 21036  21097M 21098M 21098B 21119M 21120M 21120B 21201M 21202M 21202B 21241M 21242M 21242B
             21276M 21279B 21295  21354M 21355M 21355B 21406M 21407M 21407B 21444M 21445M 21445B 21497M 21500B 21516
1         (VIEW2025) (13:00) (15MAR04) General Purpose Register Cross Reference                                             Page  199
             21575M 21576M 21576B 21626M 21629B 21665  21724M 21725M 21725B 21766M 21767M 21767B 21783M 21784M 21784B
             21805M 21806M 21806B 21835M 21836M 21836B 21866M 21867M 21867B 21897M 21898M 21898B 21922M 21925B 21941
             22270M 22273B 22289  22622M 22625B 22675  22707M 22708M 22708B 22726M 22729B 22742  22836M 22837M 22837B
             22889M 22890M 22890B 22934M 22935M 22935B 22986M 22987M 22987B 23025M 23026M 23026B 23202M 23203M 23203B
             23256M 23257M 23257B 23273M 23274M 23274B 23351M 23352M 23352B 23381M 23382M 23382B 23393M 23394M 23394B
             23548M 23549M 23549B 23648M 23649M 23649B 23757M 23758M 23758B 23800M 23801M 23801B 23827M 23828M 23828B
             23871M 23872M 23872B 23910M 23911M 23911B 23918M 23919M 23919B 23925M 23926M 23926B 23963M 23964M 23964B
             23983M 23984M 23984B 24027M 24028M 24028B 24056M 24057M 24057B 24100M 24101M 24101B 24151M 24152M 24152B
             24181M 24182M 24182B 24207M 24210B 24246  24333M 24334M 24334B 24371M 24372M 24372B 24614M 24615M 24615B
             24716M 24717M 24717B 24749M 24750M 24750B 24788M 24789M 24789B 24806M 24807M 24807B 24813M 24814M 24814B
             24859M 24860M 24860B 24920M 24921M 24921B 24936M 24937M 24937B 24961M 24962M 24962B 24985M 24988B 25004
             25064M 25065M 25065B 25108M 25109M 25109B 25154M 25157B 25173  25263M 25266B 25289  25342M 25343M 25343B
             25589M 25592B 25611  25646M 25647M 25647B 25666M 25669B 25752  25804M 25807B 25823  25854M 25855M 25855B
             25873M 25876B 25912  25982M 25983M 25983B 25999M 26000M 26000B 26016M 26017M 26017B 26044M 26045M 26045B
             26061M 26062M 26062B 26077M 26078M 26078B 26105M 26106M 26106B 26163M 26164M 26164B 26180M 26181M 26181B
             26220M 26221M 26221B 26260M 26261M 26261B 26300M 26301M 26301B 26349M 26350M 26350B 26366M 26367M 26367B
             26389M 26390M 26390B 26412M 26413M 26413B 26477M 26478M 26478B 26508M 26511B 26527  26586M 26587M 26587B
             26603M 26604M 26604B 26620M 26621M 26621B 26648M 26649M 26649B 26665M 26666M 26666B 26681M 26682M 26682B
             26708M 26709M 26709B 26745M 26746M 26746B 26762M 26763M 26763B 26793M 26796B 26852  26912M 26913M 26913B
             26965M 26968B 26984  27098M 27101B 27117  27219M 27222B 27238  27302M 27303M 27303B 27360M 27363B 27379
             27455M 27456M 27456B 27522M 27523M 27523B 27560M 27563B 27579  27667M 27668M 27668B 27714M 27715M 27715B
             27772M 27773M 27773B 27796M 27799B 27856  28010M 28011M 28011B 28316M 28317M 28317B 28353M 28354M 28354B
             28473M 28474M 28474B 28502M 28503M 28503B 28561M 28562M 28562B 28638M 28639M 28639B 28768M 28771B 28820
             28888M 28889M 28889B 28953M 28954M 28954B 28973M 28974M 28974B 28990M 28991M 28991B 29045M 29046M 29046B
             29075M 29078B 29094  29127M 29128M 29128B 29161M 29162M 29162B 29189M 29190M 29190B 29206M 29207M 29207B
             29226M 29227M 29227B 29230M 29231M 29231B 29253M 29256B 29272  29305M 29306M 29306B 29339M 29340M 29340B
             29367M 29368M 29368B 29384M 29385M 29385B 29404M 29405M 29405B 29408M 29409M 29409B 29431M 29434B 29450
             29536M 29537M 29537B 29553M 29554M 29554B 29644M 29645M 29645B 29661M 29662M 29662B 29708M 29709M 29709B
             29725M 29726M 29726B 29775M 29776M 29776B 29812M 29813M 29813B 29838M 29839M 29839B 29855M 29856M 29856B
             29885M 29888B 29904  29969M 29970M 29970B 29986M 29987M 29987B 30543M 30557M 30577M 30578M 30578B 30610M
             30613B 30630  30693M 30694M 30694B 30709M 30710M 30710B 30727M 30730B 30746  30884M 30885M 30885B 30925M
             30928B 30944  31066M 31067M 31067B 31107M 31110B 31126  31280M 31283B 31299  31549M 31550M 31550B 31566M
             31567M 31567B 31597M 31598M 31598B 31655M 31658B 31674  31766M 31767M 31767B 31792M 31795B 31811  31921M
             31922M 31922B 31955M 31958B 31974  32070M 32071M 32071B 32104M 32107B 32123  32238M 32239M 32239B 32272M
             32275B 32291  32608M 32609M 32609B 32681M 32682M 32682B 32722M 32725B 32741  32836M 32837M 32837B 32912M
             32913M 32913B 32954M 32955M 32955B 32962M 32963M 32963B 32970M 32971M 32971B 33109M 33110M 33110B 33144M
             33145M 33145B 33165M 33168B 33185  33343M 33346B 33362  33412M 33413M 33413B 33429M 33430M 33430B 33448M
             33451B 33537  33584M 33587B 33603  33663M 33664M 33664B 33715M 33718B 33754  33855M 33856M 33856B 33896M
             33897M 33897B 33927M 33930B 33946  34027M 34030B 34050  34131M 34134B 34294  34375M 34376M 34376B 34379M
             34380  34399M 34400N 34401N 34405M 34405  34415M 34416  34417  34418  34423M 34424  34427M 34428M 34428B
             34431M 34434  34435  34436  34465M 34466M 34466B 34511M 34514  34546M 34549B 34656  34713M 34714M 34714B
             34737M 34740B 34756  34800M 34801  34814M 34815  34816  34817  34822M 34823  34826M 34827M 34827B 34830M
             34833  34834  34835  34864M 34865M 34865B 34875M 34876M 34876B 34910M 34911M 34911B 34943M 34944M 34944B
             34964M 34965M 34965B 34973M 34976  35000M 35003B 35063  35127M 35130B 35142  35206M 35209B 35221  35278M
             35279M 35279B 35302M 35305B 35321  35352M 35353M 35353B 35371M 35374B 35390  35480M 35481M 35481B 35501M
             35502M 35502B 35519M 35520M 35520B 35524M 35525M 35525B 35547M 35548M 35548B 35583M 35584M 35584B 35603M
             35604M 35604B 35625M 35626M 35626B 35630M 35631M 35631B 35653M 35654M 35654B 35687M 35688M 35688B 35707M
             35708M 35708B 35748M 35749M 35749B 35777M 35780B 35796  35886M 35889B 35904  35997M 36000B
    15(F)      922U  2104   6897M  6897   6923M  6923   7001M  7001   7021M  7058M  7095M  7118M  7139M  7170M  7204M
              7226M  7261M  7283M  7318M  7340M  7375M  7397M  7432M  7471M  7510M  7549M  7583M  7583   7755M  7755
              7808   7909M  7930M  7948M  7969M  7987M  8008M  8026M  8051M  8076M  8102M  8124M  8142M  8147M  8171M
              8189M  8210M  8228M  8233M  8257M  8275M  8296M  8314M  8339M  8364M  8383M  8405M  8423M  8445M  8463M
              8468M  8492M  8510M  8531M  8549M  8568M  8590M  8608M  8630M  8648M  8653M  8677M  8695M  8716M  8734M
              8759M  8811M  8832M  8850M  8882M  8911M  8942M  8960M  8982M  9014M  9043M  9074M  9092M  9097M  9121M
              9139M  9144M  9168M  9193M  9224M  9242M  9247M  9271M  9289M  9294M  9318M  9343M  9374M  9392M  9413M
              9431M  9452M  9470M  9491M  9516M  9547M  9565M  9586M  9611M  9642M  9660M  9681M  9699M  9720M  9745M
              9776M  9794M  9815M  9845M  9863M  9884M  9914M  9967M  9994M 10050M 10085M 10123M 10156M 10181M 10212M
             10230M 10286M 10310M 10486M 10517M 10535M 10565M 10595M 10601M 10631M 10637M 10667M 10693M 10738M 10738
             10794  10801M 10816  10823M 10838  10845M 10896M 10896  11111  11207M 11217U 11230U 11247M 11253  11254M
1         (VIEW2025) (13:00) (15MAR04) General Purpose Register Cross Reference                                             Page  200
             11263M 11264M 11265  11329M 11329  11394M 11395M 11395  11411  11435U 11469  11485  11495  11498M 11499M
             11499  11515  11528U 11602  11658  11680M 11681M 11682  11692M 11711M 11711  11824M 11882M 11907M 11944M
             11969M 11987M 12011M 12041M 12071M 12089M 12119M 12196M 12215M 12236M 12254M 12279M 12298M 12324M 12359M
             12359  12488M 12488  12505  12554M 12564U 12582U 12623M 12632M 12632  12638M 12647M 12647  12653M 12654M
             12656M 12657  12669M 12669  12670  12724M 12724  12810M 12810  12930M 12949M 12949  13018M 13018  13517M
             13517  13536M 13536  13631M 13631  13650M 13650  13716M 13716  13783M 13783  13855M 13855  13874M 13874
             13951M 13951  13988M 13988  14007M 14007  14113M 14132M 14132  14177M 14196M 14196  14263M 14263  14340M
             14340  14359M 14359  14434M 14434  14453M 14453  14529M 14529  14548M 14548  14614M 14614  14681M 14681
             14756M 14756  14775M 14775  14851M 14851  14870M 14870  14942M 14942  15015M 15015  15087M 15087  15160M
             15160  15226M 15226  15245M 15245  15311M 15311  15330M 15330  15396M 15396  15463M 15463  15535M 15535
             15554M 15554  15620M 15620  15687M 15687  15742M 15808M 15808  16118M 16129M 16130M 16130  16142M 16143M
             16153U 16188U 16242M 16366M 16366  16375M 16375  16461M 16461  16479M 16479  16485M 16531M 16548M 16552M
             16561M 16561  16568  16619M 16619  16654M 16654  19219M 19238M 19238  19284M 19293M 19293  19331  19438M
             19457M 19457  19554M 19573M 19573  19635M 19640M 19643  19655M 19660M 19660  19666M 19685M 19685  19745M
             19750M 19753  19765M 19775M 19794M 19794  19842M 19843M 19843  19867M 19884M 19899M 19903  19905M 19909
             19911M 19921M 19940M 19940  19988M 19989M 19989  20013M 20030M 20045M 20049  20051M 20055  20057M 20067M
             20086M 20086  20154M 20154  20160M 20169M 20188M 20188  20257  20290M 20304M 20305M 20306  20314M 20333M
             20333  20401  20448M 20453M 20472M 20472  20550M 20563M 20582M 20582  20664M 20673M 20673  20711M 20770M
             20771M 20810M 20856M 20878  20895M 20943M 20949  20951M 20952  21000M 21019M 21019  21065M 21074M 21074
             21094M 21144M 21161M 21162M 21174  21181  21198M 21203  21204M 21209  21217  21259M 21278M 21278  21324M
             21333M 21333  21401M 21402M 21480M 21499M 21499  21609M 21628M 21628  21736M 21745M 21745  21763M 21780M
             21802M 21832M 21845M 21845  21863M 21884M 21900M 21924M 21924  21970M 21979M 21979  22094  22173  22192
             22230  22253M 22272M 22272  22318M 22327M 22327  22443M 22444  22526  22565  22588  22605M 22624M 22624
             22709M 22728M 22728  22833M 22886M 22912M 22913M 22913  22931M 22983M 23021M 23076M 23090  23104  23126
             23163  23199M 23253M 23270M 23347M 23389M 23426M 23428M 23429  23430  23470M 23545M 23615M 23616M 23617
             23619M 23620M 23621  23654M 23657  23669M 23674  23675M 23677M 23678  23779M 23802M 23824  23850  23873M
             23874M 23891M 23901  23902  23907M 23912  23920  23922M 23959M 23965  23990M 23991M 23992  24012  24097M
             24185M 24209M 24209  24330M 24368M 24373  24405M 24437  24451  24470  24507  24529M 24549M 24550M 24555
             24610M 24713M 24745M 24785M 24809M 24878M 24882M 24891M 24891  24898  24917M 24933M 24963M 24987M 24987
             25061M 25105M 25137M 25156M 25156  25246M 25265M 25265  25318M 25330  25467M 25469M 25478M 25478  25484N
             25485  25506M 25510M 25519M 25519  25526  25553M 25554M 25555  25561M 25561  25571M 25591M 25591  25668M
             25668  25787M 25806M 25806  25856M 25875M 25875  25952M 25961M 25961  25979M 25996M 26041M 26058M 26074M
             26102M 26116M 26116  26133  26160M 26177M 26199  26217M 26239  26257M 26279  26297M 26319  26346M 26363M
             26386M 26409M 26474M 26486M 26510M 26510  26556M 26565M 26565  26583M 26600M 26645M 26662M 26678M 26742M
             26759M 26776M 26795M 26795  26883M 26884M 26884  26948M 26967M 26967  27015M 27016M 27016  27081M 27100M
             27100  27177M 27178  27197M 27221M 27221  27276M 27277M 27277  27299M 27343M 27362M 27362  27417M 27418M
             27418  27452M 27501  27519M 27543M 27562M 27562  27617M 27618M 27618  27650M 27672M 27673M 27673  27689M
             27689  27779M 27798M 27798  27912M 27913M 27913  27979M 27980M 27981  28006M 28313M 28349M 28470M 28499M
             28523M 28524M 28525  28556M 28557M 28633M 28741M 28770M 28770  28885M 28950M 28970M 28987M 29042M 29058M
             29077M 29077  29124M 29158M 29186M 29203M 29236M 29255M 29255  29302M 29336M 29364M 29381M 29414M 29433M
             29433  29533M 29550M 29641M 29658M 29705M 29722M 29809M 29835M 29852M 29863M 29887M 29887  29966M 29983M
             30019M 30039M 30053U 30196U 30419M 30420  30421  30422  30423  30548M 30556  30557M 30565M 30566M 30567
             30588M 30612M 30612  30729M 30729  30840M 30841M 30854M 30874M 30874  30881M 30908M 30927M 30927  31038M
             31039M 31040M 31056M 31056  31063M 31090M 31109M 31109  31188M 31204M 31210  31212M 31236  31239M 31240M
             31244  31246  31263M 31282M 31282  31546M 31563M 31599  31601M 31602  31603  31604  31605  31638M 31657M
             31657  31775M 31794M 31794  31857M 31858M 31871M 31876M 31879  31891M 31898  31910M 31916M 31917  31938M
             31957M 31957  32087M 32106M 32106  32176M 32177M 32190M 32195M 32198  32210M 32217  32229M 32234  32255M
             32274M 32274  32443M 32473M 32477M 32486M 32486  32493  32553M 32566M 32566  32605M 32623M 32625M 32634M
             32634  32641  32657  32705M 32724M 32724  33037M 33037  33057M 33081M 33094M 33094  33101M 33106  33141M
             33148M 33167M 33167  33326M 33345M 33345  33409M 33426M 33431M 33450M 33450  33567M 33586M 33586  33660M
             33698M 33717M 33717  33783  33785M 33860M 33860  33901M 33901  33929M 33929  34010M 34029M 34029  34114M
             34133M 34133  34372M 34437M 34437  34462M 34519M 34519  34548M 34548  34710M 34715M 34739M 34739  34836M
             34836  34861M 34907M 34940M 34961M 34978M 35002M 35002  35129M 35129  35208M 35208  35275M 35280M 35304M
             35304  35354M 35373M 35373  35477M 35498M 35516M 35544M 35580M 35600M 35622M 35650M 35684M 35704M 35745M
             35755M 35779M 35779  35869M 35888M 35888  35980M 35999M 35999

1VIEW     (VIEW2025) (13:00) (15MAR04) Diagnostic Cross Reference and Assembler Summary                                     Page  201
-                                                                                            HLASM R4.0  2004/03/15 13.00
0     No Statements Flagged in this Assembly
 HIGH LEVEL ASSEMBLER, 5696-234, RELEASE 4.0, PTF P72483
0SYSTEM: OS/390 02.10.00            JOBNAME: WYL#VIEW    STEPNAME: ASM        PROCSTEP: (NOPROC)
0Datasets Allocated for this Assembly
  Con DDname   Dataset Name                                 Volume  Member
   P1 SYSIN    WYL.GS.WYL.WYLBUR.SOURCE                     SYSB05  VIEW
   L1 SYSLIB   WYL.GS.WYL.WYLBUR.MACLIB                     SYSB05
   L2          WYL.GG.SYS.MACLIB                            SYSB05
   L3          SYS3.IS.MACLIB                               SYSB05
   L4          SYS3.MACLIB                                  SYSB02
   L5          SYS1.MACLIB                                  MVSBR9
   L6          SYS1.MODGEN                                  MVSBR9
      SYSPRINT SYS04075.T130023.RA000.WYL#VIEW.PRINT.H01    SCR101
      SYSTERM  GG$SLP.WYL#VIEW.JOB03587.D0000101.?

    3668K allocated to Buffer Pool,         4289K would be required for this to be an In-Storage Assembly
    3724 Primary Input Records Read         7392 Library Records Read                106 Work File Reads
       0 ASMAOPT Records Read              19644 Primary Print Records Written       158 Work File Writes
       0 Punch Records Written                 0 ADATA Records Written
0Assembly Start Time: 13.00.25 Stop Time: 13.00.36 Processor Time: 00.00.06.9369
 Return Code 000
