1                        J E S 2  J O B  L O G  --  S Y S T E M  S Y S B  --  N O D E  R L G
0
 12.39.31 JOB03504 ---- MONDAY,    15 MAR 2004 ----
 12.39.31 JOB03504  ICH70001I GG$SLP   LAST ACCESS AT 12:39:15 ON MONDAY, MARCH 15, 2004
 12.39.31 JOB03504  $HASP373 WYL#ACMD STARTED - INIT 9    - CLASS B - SYS SYSB
 12.39.32 JOB03504  ***  HCMD      STEP $$QUIET
 12.39.32 JOB03504  PUR * Q OUT MUL
 12.39.32 JOB03504  JOB 5368 WYL#ACMD WILL BE PURGED
 12.39.33 JOB03504  WYL#ACMD.$$QUIET .         RC=Zero TapeIO=0000 DiskIO=0000 CPU=  .01s Elapsed=71.99s
 12.40.06 JOB03504  WYL#ACMD.ASM     .         RC=Zero TapeIO=0000 DiskIO=1089 CPU=12.17s Elapsed=73.12s
 12.40.09 JOB03504  WYL#ACMD.EDIT    .         RC=Zero TapeIO=0000 DiskIO=0612 CPU= 1.65s Elapsed=06.08s
 12.40.09 JOB03504  WYL#ACMD Ended.  Name=Assemble ACMD                  Total CPU=13.83s Elapsed=71.99s
 12.40.09 JOB03504
 12.40.09 JOB03504  Execution charges   Priority=Standard   Block=Day
 12.40.09 JOB03504
 12.40.09 JOB03504  CPU Usage         257.06         $159.37   Standard Processing Unit Equivalent
 12.40.09 JOB03504                                   =======
 12.40.09 JOB03504                                   $159.37   Total Job execution charge
 12.40.09 JOB03504
 12.40.09 JOB03504  See back separator page for print charges
 12.40.09 JOB03504
 12.40.09 JOB03504  $HASP395 WYL#ACMD ENDED  ASM=0, EDIT=0
1        1 //WYL#ACMD JOB SLP$GG,'Assemble ACMD',TIME=4,REGION=4M                  JOB03504
           //*
           /*JOBPARM LINES=99,COPIES=1
           /*JOBPARM FORMS=3HOL,PFORMAT=LAND,CHARS=BD13,DUPLEX=YES,FLASH=BAR4
           //*
           /*JOBPARM NOTIFY=GG.SLP,HOLD=OUTPUT                                     WYLGEN
         2 //$$QUIET EXEC PGM=HCMDX,PARM='PUR * Q OUT MUL'
           //*
         3 //ASM    EXEC PGM=ASMA90,REGION=8M,
           //            PARM=('NORENT,TERM,FLAG(NOCONT),US(MAP,WARN(10)),NODECK',
           //            'LC(32767),XREF(SHORT),ESD,DXREF,NOOBJECT')
         4 //STEPLIB DD DSN=SYS3.IS.TESTASM,DISP=SHR
         5 //SYSLIB   DD  DSN=WYL.GS.WYL.WYLBUR.MACLIB,DISP=SHR
         6 //         DD  DSN=WYL.GG.SYS.MACLIB,DISP=SHR
         7 //         DD  DSN=SYS3.IS.MACLIB,DISP=SHR
         8 //         DD  DSN=SYS3.MACLIB,DISP=SHR
         9 //         DD  DSN=SYS1.MACLIB,DISP=SHR
        10 //         DD  DSN=SYS1.MODGEN,DISP=SHR
        11 //SYSUT1   DD DSN=&&SYSUT1,UNIT=VIO,DISP=(,DELETE),
           //            SPACE=(4088,(500,250),,CONTIG,ROUND)
        12 //SYSTERM  DD SYSOUT=T
        13 //SYSPRINT DD DSN=&&PRINT,UNIT=SYSDA,DISP=(,PASS),
           //            SPACE=(6650,(250,250),RLSE),
           //            DCB=(BLKSIZE=6650,LRECL=133,RECFM=FB)
        14 //SYSUDUMP DD SYSOUT=A
        15 //SYSIN    DD  DSN=WYL.GS.WYL.WYLBUR.SOURCE(ACMD),DISP=SHR
           //*
        16 //EDIT    EXEC PGM=ASMEDIT,TIME=2,REGION=4000K,
           //             PARM='STMT'
        17 //STEPLIB  DD  DSN=WYL.GG.SYS.LINKLIB,DISP=SHR
        18 //ASMOUT   DD  DSN=&PRINT,DISP=(OLD,DELETE)
        19 //SYSPRINT DD  SYSOUT=A
1 STMT NO. MESSAGE
 -
        11 IGD01010I STORCLAS= TEMP STORGROUP =
        11 IGD01010I STORGRP=VIO ASSIGNED.
        13 IGD01010I STORCLAS= TEMP STORGROUP =
        13 IGD01010I STORGRP=VIO ASSIGNED.
 ICH70001I GG$SLP   LAST ACCESS AT 12:39:15 ON MONDAY, MARCH 15, 2004
 IEF142I WYL#ACMD $$QUIET - STEP WAS EXECUTED - COND CODE 0000
 *********************************************************************************
 *   WYL#ACMD/$$QUIET /                    Return Code      Zero                 *
 *   Region used      260K (16K user + 244K system)                              *
 *   Extended region  9464K (4K user + 9460K system)                             *
 *                                                                               *
 *   Paging              In      Out                                             *
 *   Private <-> Aux      0        0       CPU time (TCB)   00:00:00.01          *
 *   Private <-> Exp      0        0       CPU time (SRB)   00:00:00.00          *
 *   VIO                  0        0       Elapsed time    917:48:20.97          *
 *   Common               0      ---                                             *
 *                                                                               *
 *                                                                               *
 *   CPU Usage          0.18         $0.11  Standard Processing Unit Equivalent  *
 *                                   $0.11  Total Step execution charge          *
 *                                                                               *
 *    I/O count  DDname   Type Addr           I/O count  DDname   Type Addr      *
 *                         *** No I/O for this step ***                          *
 *********************************************************************************
 IEF373I STEP/$$QUIET /START 2004075.1239
 IEF374I STEP/$$QUIET /STOP  2004075.1239 CPU    0MIN 00.01SEC SRB    0MIN 00.00SEC VIRT    16K SYS   244K EXT       4K SYS    9460K
 IEF236I ALLOC. FOR WYL#ACMD ASM
 IEF237I 04DC ALLOCATED TO STEPLIB
 IEF237I 04DC ALLOCATED TO SYSLIB
 IEF237I 04DC ALLOCATED TO
 IEF237I 04DC ALLOCATED TO
 IEF237I 0402 ALLOCATED TO
 IEF237I 04A0 ALLOCATED TO
 IEF237I 04A0 ALLOCATED TO
 IGD101I SMS ALLOCATED TO DDNAME (SYSUT1  )
         DSN (SYS04075.T123931.RA000.WYL#ACMD.SYSUT1.H01  )
         STORCLAS (TEMP) MGMTCLAS (        ) DATACLAS (        )
         VOL SER NOS= VIO
 IEF237I JES2 ALLOCATED TO SYSTERM
 IGD101I SMS ALLOCATED TO DDNAME (SYSPRINT)
         DSN (SYS04075.T123931.RA000.WYL#ACMD.PRINT.H01   )
         STORCLAS (TEMP) MGMTCLAS (        ) DATACLAS (        )
         VOL SER NOS= SCR101
 IEF237I JES2 ALLOCATED TO SYSUDUMP
 IEF237I 04DC ALLOCATED TO SYSIN
 IEF142I WYL#ACMD ASM - STEP WAS EXECUTED - COND CODE 0000
 IEF285I   SYS3.IS.TESTASM                              KEPT
 IEF285I   VOL SER NOS= SYSB05.
 IEF285I   WYL.GS.WYL.WYLBUR.MACLIB                     KEPT
 IEF285I   VOL SER NOS= SYSB05.
 IEF285I   WYL.GG.SYS.MACLIB                            KEPT
 IEF285I   VOL SER NOS= SYSB05.
 IEF285I   SYS3.IS.MACLIB                               KEPT
 IEF285I   VOL SER NOS= SYSB05.
 IEF285I   SYS3.MACLIB                                  KEPT
 IEF285I   VOL SER NOS= SYSB02.
 IEF285I   SYS1.MACLIB                                  KEPT
 IEF285I   VOL SER NOS= MVSBR9.
 IEF285I   SYS1.MODGEN                                  KEPT
 IEF285I   VOL SER NOS= MVSBR9.
 IGD105I SYS04075.T123931.RA000.WYL#ACMD.SYSUT1.H01   DELETED,   DDNAME=SYSUT1
 IEF285I   GG$SLP.WYL#ACMD.JOB03504.D0000101.?          SYSOUT
 IGD106I SYS04075.T123931.RA000.WYL#ACMD.PRINT.H01    PASSED,    DDNAME=SYSPRINT
 IEF285I   GG$SLP.WYL#ACMD.JOB03504.D0000102.?          SYSOUT
 IEF285I   WYL.GS.WYL.WYLBUR.SOURCE                     KEPT
 IEF285I   VOL SER NOS= SYSB05.
 *********************************************************************************
 *   WYL#ACMD/ASM     /                    Return Code      Zero                 *
 *   Region used      4376K (4096K user + 280K system)                           *
 *   Extended region  10084K (412K user + 9672K system)                          *
 *                                                                               *
 *   Paging              In      Out                                             *
 *   Private <-> Aux      0        0       CPU time (TCB)   00:00:12.10          *
 *   Private <-> Exp      0        0       CPU time (SRB)   00:00:00.07          *
 *   VIO                  0        0       Elapsed time    917:48:19.84          *
 *   Common               0      ---                                             *
 *                                                                               *
 *                                                                               *
 *   CPU Usage        226.87       $140.65  Standard Processing Unit Equivalent  *
 *                                 $140.65  Total Step execution charge          *
 *                                                                               *
 *    I/O count  DDname   Type Addr           I/O count  DDname   Type Addr      *
 *           86  STEPLIB  Disk 04DC                 375  SYSLIB   Disk 04DC      *
 *            0  SYSLIB   Disk 04DC                   0  SYSLIB   Disk 04DC      *
 *            4  SYSLIB   Disk 0402                   0  SYSLIB   Disk 04A0      *
 *            0  SYSLIB   Disk 04A0               1,499  SYSUT1   VIO  ----      *
 *            0  SYSTERM       ----                 609  SYSPRINT Disk 04E3      *
 *            0  SYSUDUMP      ----                  15  SYSIN    Disk 04DC      *
 *********************************************************************************
 IEF373I STEP/ASM     /START 2004075.1239
 IEF374I STEP/ASM     /STOP  2004075.1240 CPU    0MIN 12.10SEC SRB    0MIN 00.07SEC VIRT  4096K SYS   280K EXT     412K SYS    9672K
 IEF236I ALLOC. FOR WYL#ACMD EDIT
 IEF237I 0402 ALLOCATED TO STEPLIB
 IGD103I SMS ALLOCATED TO DDNAME ASMOUT
 IEF237I JES2 ALLOCATED TO SYSPRINT
 IEF142I WYL#ACMD EDIT - STEP WAS EXECUTED - COND CODE 0000
 IEF285I   WYL.GG.SYS.LINKLIB                           KEPT
 IEF285I   VOL SER NOS= SYSB02.
 IGD105I SYS04075.T123931.RA000.WYL#ACMD.PRINT.H01    DELETED,   DDNAME=ASMOUT
 IEF285I   GG$SLP.WYL#ACMD.JOB03504.D0000103.?          SYSOUT
 *********************************************************************************
 *   WYL#ACMD/EDIT    /                    Return Code      Zero                 *
 *   Region used      384K (120K user + 264K system)                             *
 *   Extended region  9592K (4K user + 9588K system)                             *
 *                                                                               *
 *   Paging              In      Out                                             *
 *   Private <-> Aux      0        0       CPU time (TCB)   00:00:01.60          *
 *   Private <-> Exp      0        0       CPU time (SRB)   00:00:00.05          *
 *   VIO                  0        0       Elapsed time    917:47:46.88          *
 *   Common               0      ---                                             *
 *                                                                               *
 *                                                                               *
 *   CPU Usage         30.00        $18.60  Standard Processing Unit Equivalent  *
 *                                  $18.60  Total Step execution charge          *
 *                                                                               *
 *    I/O count  DDname   Type Addr           I/O count  DDname   Type Addr      *
 *            2  STEPLIB  Disk 0402                 610  ASMOUT   Disk 04E3      *
 *            0  SYSPRINT      ----                                              *
 *********************************************************************************
 IEF373I STEP/EDIT    /START 2004075.1240
 IEF374I STEP/EDIT    /STOP  2004075.1240 CPU    0MIN 01.60SEC SRB    0MIN 00.05SEC VIRT   120K SYS   264K EXT       4K SYS    9588K
 *********************************************************************************
 *                                                                               *
 *                      S t a n f o r d   U n i v e r s i t y                    *
 *                                                                               *
 *                              *** Job Summary ***                              *
 *                                                                               *
 *   System Id      SYSB                   Input time     12:39:15  Mar 15, 2004 *
 *                                                                               *
 *   System Release SP6.1.0                Start time     12:39:31  Mar 15, 2004 *
 *                                                                               *
 *   Job name       WYL#ACMD               Stop  time     00:00:00  Mar 15, 2004 *
 *                                                                               *
 *   Account        SLP$GG                 Elapsed time  917:48:20.97            *
 *                                                                               *
 *   User Name      Assemble ACMD          CPU time       00:00:13.71            *
 *                                                                               *
 *   Job class      B                      SRB Time       00:00:00.12            *
 *                                                                               *
 *********************************************************************************
 IEF375I  JOB/WYL#ACMD/START 2004075.1239
 IEF376I  JOB/WYL#ACMD/STOP  2004075.1240 CPU    0MIN 13.71SEC SRB    0MIN 00.12SEC
1Assembler Done ACMD No Statements Flagged
1         High Level Assembler Option Summary                   (PTF P72483 )                                               Page    1
-                                                                                            HLASM R4.0  2004/03/15 12.39
0  No Overriding ASMAOPT Parameters
   Overriding Parameters-  NORENT,TERM,FLAG(NOCONT),US(MAP,WARN(10)),NODECK,LC(32767),XREF(SHORT),ESD,DXREF,NOOBJECT
   No Process Statements


   Options for this Assembly
0  NOADATA
     ALIGN
   NOASA
     BATCH
     CODEPAGE(047C)
   NOCOMPAT
   NODBCS
 3 NODECK
 3   DXREF
 3   ESD
   NOEXIT
 3   FLAG(0,ALIGN,NOCONT,NOIMPLEN,NOPAGE0,PUSH,RECORD,NOSUBSTR,USING0)
   NOFOLD
   NOGOFF
   NOINFO
     LANGUAGE(EN)
   NOLIBMAC
 3   LINECOUNT(32767)
     LIST(121)
     MXREF(SOURCE)
 3 NOOBJECT
     OPTABLE(UNI,NOLIST)
   NOPCONTROL
   NOPESTOP
   NOPROFILE
   NORA2
 3 NORENT
     RLD
     RXREF
     SIZE(MAX)
     SYSPARM()
 3   TERM(WIDE)
   NOTEST
     THREAD
   NOTRANSLATE
 3   USING(NOLIMIT,MAP,WARN(10))
 3   XREF(SHORT)

   No Overriding DD Names

1ACMD     External Symbol Dictionary                                                                                        Page    2
-Symbol   Type   Id     Address  Length     LD ID  Flags Alias-of                            HLASM R4.0  2004/03/15 12.39
0WYLACMD   SD 00000001 00000000 0000C410             00
 ACMD4072  LD          00000000           00000001
 SETNAME   LD          00000018           00000001
 MALL      ER 00000002
 SHOWNAME  LD          00000184           00000001
 SETPACCT  LD          00000212           00000001
 SETXMAIL  LD          00000298           00000001
 SETMAIL   LD          000002EA           00000001
 MTOKEN    ER 00000003
 COLLPSH   ER 00000004
 QUIETPSH  ER 00000005
 NSCAN     ER 00000006
 SCANCHK   ER 00000007
 UPDCPSIB  ER 00000008
 COLLOPTS  ER 00000009
 SEG       ER 0000000A
 GBLCMD    ER 0000000B
 NSCANSTR  ER 0000000C
 DEQUOTE   ER 0000000D
 NOTVALID  ER 0000000E
 MBOXDISP  LD          000008E0           00000001
 SETWCH    LD          000009D8           00000001
 MPARM     ER 0000000F
 SCNINVAL  ER 00000010
 SHOWWCH   LD          00000D3E           00000001
 WEVENT    LD          00000DB4           00000001
 SEGCR     ER 00000011
 SEGT      ER 00000012
 SEGWR     ER 00000013
 SCUPCASE  ER 00000014
 SEGTB     ER 00000015
 LRTRIM    ER 00000016
 LOGEVENT  ER 00000017
 SETAUTO   LD          0000111E           00000001
 SHOWAUTO  LD          00001BE2           00000001
 AUTODISP  LD          00001C56           00000001
 LOGKWR    ER 00000018
 DTB       ER 00000019
 SETMST    LD          00001F78           00000001
 SHOWMST   LD          000022EC           00000001
 SETNOTM   LD          00002552           00000001
 MINT      ER 0000001A
 SHOWNOTM  LD          00002808           00000001
 SETOUT    LD          00002952           00000001
 SHOWOUT   LD          00002C48           00000001
 OUTDISP   LD          00002CC8           00000001
 SEGB      ER 0000001B
 SEGDC     ER 0000001C
 SETJOB    LD          00003068           00000001
 MPINT     ER 0000001D
 MNULL     ER 0000001E
 SHOWJOB   LD          000038C4           00000001
 JOBDISP   LD          00003938           00000001
 CHARCHKA  ER 0000001F
 BTD       ER 00000020
1ACMD     External Symbol Dictionary                                                                                        Page    3
 SHOWSPCE  LD          00003C20           00000001
 SCNNOOP   ER 00000021
 SETPROJ   LD          00003E30           00000001
 SHOWPROJ  LD          00003F2A           00000001
 SETWPROJ  LD          00003F96           00000001
 SHOWWPRJ  LD          00004062           00000001
 EXIT3     ER 00000022
 SHOWTRKS  ER 00000023
 SETPROJ   ER 00000024
 SETWAPP   LD          0000417C           00000001
 SHOWCHAR  LD          00004226           00000001
 INTPSH    ER 00000025
 SETCOST   LD          00004880           00000001
 SHOWWCIN  LD          000048AC           00000001
 SETWCIN   LD          0000499A           00000001
 MPLNO     ER 00000026
 SHOWCOST  LD          00004C3E           00000001
 LOCALTOD  ER 00000027
 FMTRCLCK  ER 00000028
 DATE      ER 00000029
 CVEXNO    ER 0000002A
 BTR       ER 0000002B
 XSETSET   ER 0000002C
 XGETNEXT  ER 0000002D
 XGET      ER 0000002E
 XPUT      ER 0000002F
 DISPCOST  ER 00000030
 FORCPASS  LD          00004ED2           00000001
 SETPASS   LD          00005028           00000001
 ORVCPASS  ER 00000031
 WAITER    ER 00000032
 RACPASCK  ER 00000033
 RACUPDPW  ER 00000034
 SHOWLTIM  LD          00005778           00000001
 LTIMDISP  LD          000057EC           00000001
 SHOWKTIM  LD          000058A8           00000001
 KTIMDISP  LD          0000591C           00000001
 SMF       LD          00005A0E           00000001
 SETSMF    LD          00005D48           00000001
 SHOWSMF   LD          00005E56           00000001
 FMTXDATE  ER 00000035
 CKQUOTES  ER 00000036
 SMFLOG    ER 00000037
 YESREQ    ER 00000038
 SETPRIV   LD          00005FDC           00000001
 KWIO      ER 00000039
 TCNTL     ER 0000003A
 SETMAST   LD          000065B2           00000001
 FMTDATE   ER 0000003B
 RACADD    ER 0000003C
 RACDEL    ER 0000003D
 VERPSH    ER 0000003E
 SHOWMAST  LD          000091C4           00000001
 BTX       ER 0000003F
 HEXFMT    ER 00000040
 ACCTPSHC  ER 00000041
 MATUID    ER 00000042
 DESTVER   ER 00000043
 MLNO      ER 00000044
1ACMD     External Symbol Dictionary                                                                                        Page    4
 GETKWR    LD          0000B5CE           00000001
 KLOGCMPR  LD          0000B76C           00000001
 KLOGINCK  LD          0000B9C0           00000001
 MARKHEAP  ER 00000045
 GETHEAP   ER 00000046
 KEYGET    ER 00000047
 RELHEAP   ER 00000048
 KLOGCMPR  ER 00000049
 CHKKW     LD          0000BAC8           00000001
 READPW    LD          0000BF26           00000001
 WATCHKW   LD          0000C0DE           00000001
 TREAD     ER 0000004A

1ACMD     WYLBUR'S Accounting Commands                                                                                      Page    5
0Loc    Object Code    Addr1 Addr2  Stmt Lv Lineno    Source Statement                    (Asmedit 3.3)  HLASM R4.0  2004/03/15 12.39
+___    ______ ____    _____ _____  ____ __ ______    ______ _________
0                                      2              *******************************************************************
                                       3              *                                                                 *
                                       4              *     WYLBUR/370 - Release VI - Class I - Stanford Proprietary    *
                                       5              *                                                                 *
                                       6              *******************************************************************
                                       7                       HIBAL
                                     988
 000000                00000 0C410   989              WYLACMD  CSECT
                                     993              ACMD     IDENT 4072                10:30:05 03/12/04  (SLP)
                                     996             +
                                     997    01-IDENT +         ENTRY ACMD4072
                                     998             +
 000000 16C1C3D4C4F4F0F7             999    01-IDENT +ACMD4072 DC    AL1(22),C'ACMD4072,15MAR04,12:39'
                                    1000             +*
                                    1002                       REGS  FSR,,,,,,,BR,(WAR,LSR),PAR,PBR,CPR,CVR,SPR,RAR
                                    1138
                                    1139                       SYSDEFN ,                 Define installation params
                                    1140
                                    1141                       GBLC  &INSTALN,                   (See SYSDEFN)
                                    1142                       GBLC  &STDFORM                    (See SYSDEFN)
                                    1143                       GBLB  &JOBAUTH,&SETLTIM,&KEYUPLO  (See SYSDEFN)
                                    1144                       GBLB  &SPACE,&BUDGET              (See SYSDEFN)
                                    1145
                                    1146                       PUSH  DSECTS
 USING  CP,R11                      1157             =         USING (CP),(CV)
 USING  CV,R12
 000017                00000 0C410  1176             =         POP   PRINT
1ACMD     (ACMD4072) (12:39) (15MAR04) DSECTS                                                                               Page    6
0Current Usings:  (CP,R11) (CV,R12)
0Loc    Object Code    Addr1 Addr2  Stmt Lv Lineno    Source Statement           (Hibal 5, Asmedit 3.3)  HLASM R4.0  2004/03/15 12.39
+___    ______ ____    _____ _____  ____ __ ______    ______ _________
0000000                00000 002B0  7765              WA       RECORD BEGIN
                                    7773  1           KWR        KWR
                                    7774  1          +*
                                    7775  1          +*       Keyword Record
                                    7776  1          +*
 000000                             7777  1 01-KWR   +KWRSTART     DS  0F
 000000 E4E4E4                      7778  1 01-KWR   +KWRUSER      DC  C'UUU'              User
 000003 C7C7                        7779  1 01-KWR   +KWRGRP       DC  C'GG'               Group
                                    7780  1 01-KWR   +KWRACCT      EQU KWRUSER,*-KWRUSER,C'X'
                                    7781  1          +
                                    7782  1 01-KWR   +KWRDSTRT     EQU *
 000005 000000                      7783  1 01-KWR   +             DC  XL3'00'             Reserved
 000008 0000                        7784  1 01-KWR   +KWRRJE       DC  H'0'                No. of jobs run
 00000A 0000                        7785  1 01-KWR   +KWRSPUSD     DC  H'0'                Disk space used
 00000C FFFF                        7786  1 01-KWR   +KWRSPMAX     DC  H'-1'               Disk space allowed
                                    7787  1          +
 00000E 80                          7788  1 01-KWR   +KWRIFL       DC  X'80'               Initials flags
                                    7789  1 01-KWR   +KWRIFVAL      EQU  X'80'             - Valid user
                                    7790  1 01-KWR   +KWRIFAPR      EQU  X'40'             - ACCT privs
                                    7791  1 01-KWR   +KWRIFSPR      EQU  X'20'             - SYS privs
                                    7792  1 01-KWR   +KWRIFOPR      EQU  X'10'             - OPR privs
                                    7793  1 01-KWR   +KWRIFSBM      EQU  X'08'             - SUBMIT priv
                                    7794  1 01-KWR   +KWRIFSUB      EQU  X'04'             - SUBADMIN privs
                                    7795  1 01-KWR   +KWRIFADM      EQU  X'02'             - ADMIN privs
                                    7796  1 01-KWR   +KWRIFPC       EQU  X'01'             - PC privs
                                    7797  1          +
 00000F 98                          7798  1 01-KWR   +KWRAFL       DC  X'98'               Account flags
                                    7799  1 01-KWR   +KWRAFVAL      EQU  X'80'             - Valid acct (off when SUSPENDED)
                                    7800  1 01-KWR   +KWRAFTOK      EQU  X'08'             - Terminal usage permitted
                                    7801  1 01-KWR   +KWRAFZSV      EQU  X'02'             - Test recovery flag (not used)
                                    7802  1 01-KWR   +KWRAFASV      EQU  X'01'             - Recovery done for last session
                                    7803  1          +
 000010 6F6F6F                      7804  1 01-KWR   +KWRBIN       DC  C'???'              Bin
 000013 00                          7805  1 01-KWR   +KWRWRCT      DC  X'00'               Record rewrite count
 000014 000000                      7806  1 01-KWR   +KWRBGT       DC  XL3'00'             Account budget
 000017 000000                      7807  1 01-KWR   +KWRBAL       DC  XL3'00'             Account year-to-date balance
 00001A 0000                        7808  1 01-KWR   +KWRLCP       DC  H'0'                Punch card limit -- in hundreds
 00001C 0000                        7809  1 01-KWR   +KWRLLC       DC  H'0'                Line count limit -- in thousands
 00001E 0000                        7810  1 01-KWR   +KWRLET       DC  H'0'                Execution time limit in seconds
                                    7811  1          +
 000020 84                          7812  1 01-KWR   +KWRBFL       DC  X'84'               Batch flags
                                    7813  1 01-KWR   +KWRBFVAL     EQU X'80'               - Valid for batch
                                    7814  1 01-KWR   +KWRBFIN      EQU X'40'               - No input setups allowed
                                    7815  1 01-KWR   +KWRBFOUT     EQU X'20'               - No output setups allowed
                                    7816  1 01-KWR   +KWRBFNON     EQU X'10'               - No non-standard priority allowed
                                    7817  1 01-KWR   +KWRBFE       EQU X'08'               - Class E only
                                    7818  1 01-KWR   +KWRBFP       EQU X'04'               - Class P permitted
                                    7819  1          +
 000021 D3D6C3C1D3404040            7820  1 01-KWR   +KWRDEST      DC  CL8'LOCAL'          Destination for output data
 000029 6F6F6F6F                    7821  1 01-KWR   +KWRFORM      DC  CL4'????'           Default forms code
 00002D 0000000000000000            7822  1 01-KWR   +KWRORV       DC  XL8'00'             Default ORVYL name
                                    7823  1          +
 000035 80                          7824  1 01-KWR   +KWRMACC      DC  X'80'               Machine access flags
                                    7825  1 01-KWR   +KWRFSYSA     EQU X'80'               - SYSA access allowed
1ACMD     (ACMD4072) (12:39) (15MAR04) DSECTS                                                                               Page    7
0Current Usings:  (CP,R11) (CV,R12)
0Loc    Object Code    Addr1 Addr2  Stmt Lv Lineno    Source Statement           (Hibal 5, Asmedit 3.3)  HLASM R4.0  2004/03/15 12.39
+___    ______ ____    _____ _____  ____ __ ______    ______ _________
0                                   7826  1 01-KWR   +KWRFSYSB     EQU X'40'               - SYSB access allowed
                                    7827  1 01-KWR   +KWRFSYSC     EQU X'20'               - SYSC access allowed
                                    7828  1 01-KWR   +KWRFSYSD     EQU X'10'               - SYSD access allowed
                                    7829  1 01-KWR   +KWRFSYSE     EQU X'08'               - SYSE access allowed
                                    7830  1 01-KWR   +KWRFSYSF     EQU X'04'               - SYSF access allowed
                                    7831  1 01-KWR   +KWRFSYSG     EQU X'02'               - SYSG access allowed
                                    7832  1          +
 000036 00                          7833  1 01-KWR   +KWRSFL       DC  X'00'               Status flags
                                    7834  1 01-KWR   +KWRSFKEP     EQU X'80'               - Kept mail waiting
                                    7835  1 01-KWR   +KWRSFMAI     EQU X'40'               - New mail waiting
                                    7836  1 01-KWR   +KWRSFMLQ     EQU X'20'               - New mail in MAILQnnn files
                                    7837  1          +
 000037 02                          7838  1 01-KWR   +KWRJFL       DC  X'02'               Job flags
                                    7839  1 01-KWR   +KWRJFNUM     EQU X'80'               - Numbered job submission
                                    7840  1 01-KWR   +KWRJFFOR     EQU X'40'               - Force user id as job prefix
                                    7841  1 01-KWR   +KWRJFHOL     EQU X'10'               - Hold printed output
                                    7842  1 01-KWR   +KWRJFNOT     EQU X'08'               - Notify user
                                    7843  1 01-KWR   +KWRJFATH     EQU X'07'               - Job auth, as follows...
                                    7844  1 01-KWR   +KWRJFPUB     EQU X'04'                  Auth=public
                                    7845  1 01-KWR   +KWRJFCOM     EQU X'02'                  Auth=community
                                    7846  1 01-KWR   +KWRJFGRP     EQU X'01'                  Auth=group
                                    7847  1          +
 000038 4040404040404040            7848  1 01-KWR   +KWRJPFX      DC  CL8' '              Users job prefix
 000040 0000                        7849  1 01-KWR   +KWRJNO       DC  H'0'                Users job count
                                    7850  1          +
 000042 0000                        7851  1 01-KWR   +KWRHRSAL     DC  H'0'                Connect hrs allowed (hrs/10)
 000044 0000                        7852  1 01-KWR   +KWRACCH      DC  H'0'                Connect hrs accounted (hrs/10)
 000046 0000                        7853  1 01-KWR   +           DC    H'0'                Reserved
                                    7854  1          +
 000048 20                          7855  1 01-KWR   +KWRTACF      DC  X'20'               Type/account class flags
                                    7856  1 01-KWR   +KWRTNST      EQU X'80'               - No logoff statistics
                                    7857  1 01-KWR   +KWRTNTM      EQU X'40'               - No session timeouts (NOTIME)
                                    7858  1 01-KWR   +KWRTNDAY     EQU X'02'               - No daytime access allowed
                                    7859  1          +
 000049 3C                          7860  1 01-KWR   +KWRTFL       DC  X'3C'               Timesharing flags
                                    7861  1          +*              X'80'               - Reserved
                                    7862  1          +*              X'40'               - Reserved
                                    7863  1 01-KWR   +KWRTFAN      EQU X'20'               - Auto news at logon
                                    7864  1 01-KWR   +KWRTFAM      EQU X'10'               - Auto mail at logon
                                    7865  1 01-KWR   +KWRTFAR      EQU X'08'               - Auto recovery at logon
                                    7866  1 01-KWR   +KWRTFAE      EQU X'04'               - Auto exec at logon
                                    7867  1 01-KWR   +KWRTFAL      EQU X'02'               - Auto ltime at logon
                                    7868  1 01-KWR   +KWRTFAK      EQU X'01'               - Auto ktime at logon
                                    7869  1          +
 00004A 00F0                        7870  1 01-KWR   +KWRNTDEF     DC  H'240'              Default notime minutes (0=nolim)
 00004C 0000                        7871  1 01-KWR   +KWRNTMAX     DC  H'0'                Maximum notime minutes (0=nolim)
 00004E 00000000                    7872  1 01-KWR   +KWRPFORM     DC  XL4'00'             Default PRINT job forms
 000052 0000                        7873  1 01-KWR   +KWRR1      DC    H'0'                Reserved
 000054 0000                        7874  1 01-KWR   +KWRR3      DC    H'0'                Reserved
 000056 00                          7875  1 01-KWR   +KWRR4      DC    X'0'                Reserved
                                    7876  1          +
 000057 00                          7877  1 01-KWR   +KWROFL       DC  X'00'               Online flags
                                    7878  1 01-KWR   +KWRFMULT     EQU X'80'               - Multiple sessions allowed
                                    7879  1 01-KWR   +KWRFMAIL     EQU X'40'               - Mail is allowed
1ACMD     (ACMD4072) (12:39) (15MAR04) DSECTS                                                                               Page    8
0Current Usings:  (CP,R11) (CV,R12)
0Loc    Object Code    Addr1 Addr2  Stmt Lv Lineno    Source Statement           (Hibal 5, Asmedit 3.3)  HLASM R4.0  2004/03/15 12.39
+___    ______ ____    _____ _____  ____ __ ______    ______ _________
0                                   7880  1 01-KWR   +KWRFSEC      EQU X'20'               - Secure session (EXEC SECURE)
                                    7881  1 01-KWR   +KWRFMNPR     EQU X'08'               - XMultiple: multiple w/o prompt
                                    7882  1 01-KWR   +KWRFNPAS     EQU X'04'               - No logon password needed
                                    7883  1          +
 000058 00000000                    7884  1 01-KWR   +KWRLTIM      DC  XL4'00'             Last logoff time(high 32 clck bits)
 00005C 00000000                    7885  1 01-KWR   +KWRKTIM      DC  XL4'00'             Last time keyword changed (" ")
                                    7886  1          +
 000060 00                          7887  1 01-KWR   +KWRAC        DC  X'00'               Accounting flags
                                    7888  1          +
 000061 40                          7889  1 01-KWR   +KWRSOF       DC  C' '                Source of funds code
 000062 40                          7890  1 01-KWR   +KWRAR        DC  C' '                Accounts receivable code (if SOF=2)
                                    7891  1          +
 000063 40                          7892  1 01-KWR   +KWRSTAT      DC  C' '                Account status code
                                    7893  1 01-KWR   +KWRSEXP      EQU C'1'                - Expired
                                    7894  1 01-KWR   +KWRSCLS      EQU C'2'                - Closed
                                    7895  1 01-KWR   +KWRSOVB      EQU C'3'                - Over-budget
                                    7896  1 01-KWR   +KWRSUHL      EQU C'4'                - User hold
                                    7897  1          +
 000064 10                          7898  1 01-KWR   +KWRTFL2      DC  X'10'               Timesharing flags  (second byte)
                                    7899  1 01-KWR   +KWRTFAPE     EQU X'80'               - Auto pubexec at logon
                                    7900  1 01-KWR   +KWRTFML      EQU X'40'               - Ok to receive mail
                                    7901  1 01-KWR   +KWRTFANE     EQU X'10'               - Auto newexec at logon
                                    7902  1 01-KWR   +KWRTFMNOATTN     EQU  X'08'          - Ignore SHOW MAIL attn (NOATTN)
                                    7903  1          +
 000065 00                          7904  1 01-KWR   +KWRPFL       DC  X'00'               Privilege flags
                                    7905  1 01-KWR   +KWRFPCHK     EQU X'80'               - PCHECK privs
                                    7906  1          +
 000066 0000                        7907  1 01-KWR   +KWRHRSFR     DC  H'0'                Free connect hrs to date (hrs/10)
 000068 0000                        7908  1 01-KWR   +KWRHRSUS     DC  H'0'                Hours used to date (hrs/10)
 00006A FFFF                        7909  1 01-KWR   +KWRDSKMX     DC  H'-1'               Disk kilobytes allowed
 00006C 00000000                    7910  1 01-KWR   +KWRDSKUS     DC  F'0'                Disk bytes used
                                    7911  1          +
 000070 0000000000000000            7912  1 01-KWR   +KWRPASS      DC  XL8'00'             Password
 000078 0000000000000000            7913  1 01-KWR   +KWRNAME      DC  XL20'00'            User's name
 00008C 000000000000                7914  1 01-KWR   +KWRVOL       DC  XL6'00'             User's permanent volume
 000092 0000000000000000            7915  1 01-KWR   +KWRSYS       DC  XL8'00'             User's initial subsystem (WYLBUR)
 00009A 0000000000000000            7916  1 01-KWR   +KWRCOMM      DC  XL20'00'            Comment for accounting office
                                    7917  1          +
 0000AE 00                          7918  1 01-KWR   +KWRMPRIM     DC  X'00'               Primary machine
                                    7919  1          +***  Flag definitions are the same as with KWRMACC above.  ***
                                    7920  1          +*
 0000AF 00                          7921  1 01-KWR   +KWRXCNT      DC  X'00'               Unsuccessful logon attempt count
 0000B0 00000000                    7922  1 01-KWR   +KWRXTIM      DC  XL4'00'             Last unsuccessful logon time
                                    7923  1          +
 0000B4 00000000                    7924  1 01-KWR   +KWRNEWDT     DC  F'0'                Date news was last read
                                    7925  1          +
 0000B8 00000000                    7926  1 01-KWR   +KWRCDATE     DC  F'0'                Date of charges update
 0000BC 000000                      7927  1 01-KWR   +KWRMTD       DC  XL3'0'              Account month-to-date balance
 0000BF 000000                      7928  1 01-KWR   +KWRPBAL      DC  XL3'0'              Account previous ytd charges
                                    7929  1          +
 0000C2 0000000000000000            7930  1 01-KWR   +KWRMFOR      DC  XL64'00'            Mail forwarding address
 000102 0000000000000000            7931  1 01-KWR   +KWRMTXT      DC  XL80'00'            Mail information text
                                    7932  1          +
 000152 0000000000000000            7933  1 01-KWR   +KWRCMD       DC  XL80'00'            First command to execute
1ACMD     (ACMD4072) (12:39) (15MAR04) DSECTS                                                                               Page    9
0Current Usings:  (CP,R11) (CV,R12)
0Loc    Object Code    Addr1 Addr2  Stmt Lv Lineno    Source Statement           (Hibal 5, Asmedit 3.3)  HLASM R4.0  2004/03/15 12.39
+___    ______ ____    _____ _____  ____ __ ______    ______ _________
00001A2 0000000000000000            7934  1 01-KWR   +KWRLPORT     DC  XL20'00'            Last logoff port name
                                    7935  1          +
 0001B6 00000000                    7936  1 01-KWR   +KWRCRDT      DC  XL4'00'             Account creation date
                                    7937  1          +
 0001BA 0000                        7938  1 01-KWR   +KWRRENCT     DC  XL2'00'             No. of ORVYL RENAMEs (not used)
                                    7939  1          +
 0001BC C7E4C5E2E3404040            7940  1 01-KWR   +KWRNETU      DC  CL16'GUEST'         Network user id (zeros=disabled)
 0001CC D3C9D5C4E8404040            7941  1 01-KWR   +KWRNETH      DC  CL32'LINDY'         Network host name
                                    7942  1          +
 0001EC 0000000000000000            7943  1 01-KWR   +KWRLOCAL     DC  XL8'00'             For non-Stanford use (ISU!)
                                    7944  1 01-KWR   +KWRDATA      EQU KWRDSTRT,*-KWRDSTRT,C'X'
                                    7945  1          +
                                    7946  1 01-KWR   +KWREND       EQU *                   End of physical record
                                    7947  1          +
 0001F4 00                          7948  1 01-KWR   +KWRHFL       DC  X'00'               Status flags
                                    7949  1 01-KWR   +KWRHFCK      EQU X'80'               - Keyword checking in effect
                                    7950  1 01-KWR   +KWRHFUOK     EQU X'40'         Update successful--cannot occur with
                                    7951  1          +*                            kwrhferr or kwrhfful.  if kwrhfuok,
                                    7952  1          +*                            err, and ful are all 0, the record has
                                    7953  1          +*                            been changed since it was read.
                                    7954  1 01-KWR   +KWRHFERR     EQU X'20'               - I/O error reading keyword file
                                    7955  1 01-KWR   +KWRHFFUL     EQU X'10'               - No room to add user
                                    7956  1          +
 0001F8                             7957  1 01-KWR   +           DS    0F
                                    7958  1 01-KWR   +KWR        EQU   KWRSTART,*-KWRSTART,C'X'
                                    7959  1 01-KWR   +KWRSIZE      EQU *-KWRSTART
                                    7960  1          +*
                                    7961  1          +*  Operation codes.
                                    7962  1          +*
                                    7963  1 01-KWR   +KWRCWR        EQU  X'80'             Write
                                    7964  1 01-KWR   +KWRCRD        EQU  X'40'             Read
                                    7965  1 01-KWR   +KWRCDIE       EQU  X'FF'             Shutdown keyword routines
                                    7966  1
 0001F8 00                          7967  1           WAFLAG     FLAG
 WAFLAG.WAFOP      80 ONES          7971  1                      FLAG  WAFOP               - At least one option specified
 WAFLAG.WAFMAST    40 ONES          7976  1                      FLAG  WAFMAST             - Set master command
 WAFLAG.WAFXSYS    20 ONES          7981  1                      FLAG  WAFXSYS             - SYSx specified (SET MASTER)
 WAFLAG.WAFTEMP    10 ONES          7986  1                      FLAG  WAFTEMP             - TEMPORARY option specified
                                    7991  1
 0001F9 00                          7992  1           WAFLAG2    FLAG
 WAFLAG2.WAFDHEX   80 ONES          7996  1                      FLAG  WAFDHEX             - SHOW MASTER.. display in hex
 WAFLAG2.WAFNEW    40 ONES          8001  1                      FLAG  WAFNEW              - New account (set master)
 WAFLAG2.WAFDEL    20 ONES          8006  1                      FLAG  WAFDEL              - Set master delete
 WAFLAG2.WAFCRE    10 ONES          8011  1                      FLAG  WAFCRE              - Set master create
 WAFLAG2.WAFUPDPW  08 ONES          8016  1                      FLAG  WAFUPDPW            - Set master: update password
                                    8021  1
 000200                             8022  1                      DS    0D
 000200                             8023  1           WASCSAVE   DS    XL(L'NSCNCB)        Scan CB save area
 0002B0                002B0 002B0  8024                       END
1ACMD     (ACMD4072) (12:39) (15MAR04) SET/SHOW NAME Commands                                                               Page   10
0Current Usings:  (CP,R11) (CV,R12)
0Loc    Object Code    Addr1 Addr2  Stmt Lv Lineno    Source Statement           (Hibal 5, Asmedit 3.3)  HLASM R4.0  2004/03/15 12.39
+___    ______ ____    _____ _____  ____ __ ______    ______ _________
0                                   8034              ¿þþþþþþþþþþþþþþþþþþþþþþþþþþþþþþþþþþþþþþþþþþþþþþþþþþþþþþþþþþþþþþþþþþþþþÜ
                                    8035              Ÿ                                                                     Ÿ
                                    8036              Ÿ  SETNAME -- SET NAME command.                                       Ÿ
                                    8037              Ÿ                                                                     Ÿ
                                                      ¾þþþþþþþþþþþþþþþþþþþþþþþþþþþþþþþþþþþþþþþþþþþþþþþþþþþþþþþþþþþþþþþþþþþþþ»
0000018 50E0 D000/9008_      00000  8038              SETNAME  XPROC WA
 USING  *,R7
 USING  WA-(4+36),R8
                                    8089
 000032 D7FF 8028 8028_00000 00000  8090                       CLEAR WA
 000044 4150 8028            00000  8099                       LA    R5,WA
 USING  WA,R5                       8100                       USING WA,R5
                                    8109
 000048 D204 BC48 B3B4 00C48 003B4  8110                       MVC   CPCACCT,CPSACCT
 00004E 4800 7822            00854  8111                       LH    R0,=H'-1'
 000052 58E0 77A6/0DEE       007D8  8112                       ACALL GETAENT
                                    8116
 000058 9501 B38C/4770_0038C        8117                       IF    (CPSTCONS,AND,(CPSNAME,NZ)),BEGIN
 00006A 4110 7848/4100_      0087A  8147  1                      ABORT 'CONSOLE name can''t be changed'
 000076                             8154                       END
                                    8158
 000076 58E0 B08C/D2AF_      0008C  8159                       SCSAVE AREA=WASCSAVE
                                    8168
 000082                             8169                       LOOP  BEGIN
 000082 58E0 B08C/D2AF_      0008C  8175  1                      SCRSTR AREA=WASCSAVE
 00008E 5810 B08C/1B00_      0008C  8184  1                      SCAN  NAMEPRT
 0000E0 58E0 77B2/0DEE       007E4  8216  1                      SCANCHK
 0000E6 9180 51F8/4710_001F8        8221  1                      IF    ~WAFOP,'ERROR "Missing SET NAME options"'
 0000FA 58E0 77B6/0DEE       007E8  8248  1                      ACALL PUTKWR
 000100 4770 7050            00082  8252                       UNTIL Z,END               Loop until re-write is ok
                                    8271
 000104 D504 BC48 B3B4_00C48 003B4  8272                       IF    (CPCACCT,EQ,CPSACCT),BEGIN
 00010E D613 B3C6 B3C6_003C6 003C6  8290  1                      WHILE ((CPSNAME,Z),OR,(CPSNAME,EQ,CPNAME)),BEGIN
 000122 D213 B3C6 5078 003C6 00078  8325  2                        MVC   CPSNAME,KWRNAME     Update session name too
 000128 58E0 77BA/0DEE       007EC  8326  2                        VCALL UPDCPSIB
 00012E 4780 7104            00136  8330  2                        IF    Z,EXIT
 000132 47F0 70DC            0010E  8344  1                      END
 000136 D213 B174 5078 00174 00078  8349  1                      MVC   CPNAME,KWRNAME      Save our new name
 00013C                             8350                       END
                                    8354              *
                                    8355              ***      LA    R0,SMFWNAME+SMFWAUTH
                                    8356              ***      VCALL LOGKWR              write smf log record
                                    8357              *
 00013C D7FF 5000 5000_00000 00000  8358                       CLEAR KWR
 000148 47F0 C7DE            007DE  8366                       B     CVNEXT
                                    8367
 00014C 18D8/9808 D004_             8368                       PEND  ,                   NOTE: we exit to CVNEXT above
 DROP   WA-(4+36),R8
 DROP   *,R7
 DROP   WA,R5                       8393                       DROP  WA
1ACMD     (ACMD4072) (12:39) (15MAR04) SET/SHOW NAME Commands                                                               Page   11
0Current Usings:  (CP,R11) (CV,R12)
0Loc    Object Code    Addr1 Addr2  Stmt Lv Lineno    Source Statement           (Hibal 5, Asmedit 3.3)  HLASM R4.0  2004/03/15 12.39
+___    ______ ____    _____ _____  ____ __ ______    ______ _________
0                                   8402              **
                                    8403              **  SET NAME Options
                                    8404              **
 00015C 4040404040404040_           8405              NAMEPRT  SCKW  ,KNAME
1ACMD     (ACMD4072) (12:39) (15MAR04) SET/SHOW NAME Commands                                                               Page   12
0Current Usings:  (CP,R11) (CV,R12)
0Loc    Object Code    Addr1 Addr2  Stmt Lv Lineno    Source Statement           (Hibal 5, Asmedit 3.3)  HLASM R4.0  2004/03/15 12.39
+___    ______ ____    _____ _____  ____ __ ______    ______ _________
0                                   8421              ¿þþþþþþþþþþþþþþþþþþþþþþþþþþþþþþþþþþþþþþþþþþþþþþþþþþþþþþþþþþþþþþþþþþþþþÜ
                                    8422              Ÿ                                                                     Ÿ
                                    8423              Ÿ  SHOWNAME -- SHOW NAME/ANAME command.                               Ÿ
                                    8424              Ÿ                                                                     Ÿ
                                                      ¾þþþþþþþþþþþþþþþþþþþþþþþþþþþþþþþþþþþþþþþþþþþþþþþþþþþþþþþþþþþþþþþþþþþþþ»
0000184 50E0 D000/9008_      00000  8425              SHOWNAME XPROC WA
 USING  *,R7
 USING  WA-(4+36),R8
                                    8476
 00019E D7FF 8028 8028_00000 00000  8477                       CLEAR WA
 0001B0 4150 8028            00000  8486                       LA    R5,WA
 USING  WA,R5                       8487                       USING WA,R5
                                    8496
 0001B4 D204 BC48 B3B4 00C48 003B4  8497                       MVC   CPCACCT,CPSACCT
 0001BA 4100 0001            00001  8498                       LA    R0,1
 0001BE 58E0 763A/0DEE       007D8  8499                       ACALL GETAENT
 0001C4 58E0 7652/0DEE       007F0  8503                       VCALL COLLOPTS            Allow standard options
                                    8507
 0001CA 58E0 7656/0DEE       007F4  8508                       ACALL SEGACCT
 0001D0 4110 5078/4100_      00078  8512                       SETMSG KWRNAME
 0001D8 D613 5078 5078_00078 00078  8526                       IF    (KWRNAME,Z),'SETMSG "No name set."'
 0001EA 41F0 B050/58E0_      00050  8551                       TSEG  (R1),(R0)
 0001F4 D7FF 5000 5000_00000 00000  8575                       CLEAR KWR
 000200 47F0 C7DE            007DE  8583                       B     CVNEXT
                                    8584
 000204 18D8/9808 D004_             8585                       PEND  ,                   NOTE: we exit to CVNEXT above
 DROP   WA-(4+36),R8
 DROP   *,R7
 DROP   WA,R5                       8610                       DROP  WA
1ACMD     (ACMD4072) (12:39) (15MAR04) SET PACCOUNT Command                                                                 Page   13
0Current Usings:  (CP,R11) (CV,R12)
0Loc    Object Code    Addr1 Addr2  Stmt Lv Lineno    Source Statement           (Hibal 5, Asmedit 3.3)  HLASM R4.0  2004/03/15 12.39
+___    ______ ____    _____ _____  ____ __ ______    ______ _________
0                                   8620              ¿þþþþþþþþþþþþþþþþþþþþþþþþþþþþþþþþþþþþþþþþþþþþþþþþþþþþþþþþþþþþþþþþþþþþþÜ
                                    8621              Ÿ                                                                     Ÿ
                                    8622              Ÿ  SETPACCT -- SET PACCOUNT Command.                                  Ÿ
                                    8623              Ÿ                                                                     Ÿ
                                                      ¾þþþþþþþþþþþþþþþþþþþþþþþþþþþþþþþþþþþþþþþþþþþþþþþþþþþþþþþþþþþþþþþþþþþþþ»
0000212 50E0 D000/9008_      00000  8624              SETPACCT XPROC WA
 USING  *,R7
 USING  WA-(4+36),R8
                                    8675
 00022C 9140 B75A/4710_0075A        8676                       IF    ~CPFXAUTH,BEGIN
 000234 4110 75DC/4100_      00808  8691  1                      ABORT 'Authorized command not allowed here.'
 000240                             8698                       END
                                    8702
 000240 D7FF 8028 8028_00000 00000  8703                       CLEAR WA
 000252 4150 8028            00000  8712                       LA    R5,WA
 USING  WA,R5                       8713                       USING WA,R5
                                    8722
 000256 D204 BC48 B3B4 00C48 003B4  8723                       MVC   CPCACCT,CPSACCT
 00025C 4100 0001            00001  8724                       LA    R0,1
 000260 58E0 75AC/0DEE       007D8  8725                       ACALL GETAENT
 000266 58E0 75C4/0DEE       007F0  8729                       VCALL COLLOPTS
                                    8733
 00026C D504 BC48 B3B4_00C48 003B4  8734                       IF    (CPCACCT,EQ,CPSACCT),'CLEAR CPPACCT'
 00027C 7054/47F0 705A_0027C 00274  8764                       ELSE  'MVC CPPACCT,CPCACCT'
 000286 47F0 C7DE            007DE  8781                       B     CVNEXT
                                    8782
 00028A 18D8/9808 D004_             8783                       PEND  ,                   NOTE: we exit to CVNEXT above
 DROP   WA-(4+36),R8
 DROP   *,R7
 DROP   WA,R5                       8808                       DROP  WA
1ACMD     (ACMD4072) (12:39) (15MAR04) SET PACCOUNT Command                                                                 Page   14
0Current Usings:  (CP,R11) (CV,R12)
0Loc    Object Code    Addr1 Addr2  Stmt Lv Lineno    Source Statement           (Hibal 5, Asmedit 3.3)  HLASM R4.0  2004/03/15 12.39
+___    ______ ____    _____ _____  ____ __ ______    ______ _________
0                                   8817              ¿þþþþþþþþþþþþþþþþþþþþþþþþþþþþþþþþþþþþþþþþþþþþþþþþþþþþþþþþþþþþþþþþþþþþþÜ
                                    8818              Ÿ                                                                     Ÿ
                                    8819              Ÿ  SETXMAIL -- SET XMAIL/NOXMAIL Commands.                            Ÿ
                                    8820              Ÿ                                                                     Ÿ
                                                      ¾þþþþþþþþþþþþþþþþþþþþþþþþþþþþþþþþþþþþþþþþþþþþþþþþþþþþþþþþþþþþþþþþþþþþþ»
0000298 50E0 D000/9008_      00000  8821              SETXMAIL XPROC
 USING  *,R7
 0002B2 4110 75E5/4100_      00897  8861                       SETMSG '"XCALL WYL.GG.JDN.MS#SETXMAIL/"'
 0002BA 95D5 BD24/4770_00D24        8865                       IF    (CPCMNM,EQ,'N'),BEGIN
 0002C2 4110 75A6/4100_      00858  8882  1                      SETMSG '"XCALL WYL.GG.JDN.MS#SETXMAIL/OFF"'
 0002CA                             8886                       END
 0002CA 58E0 757A/0DEE       0082C  8890                       VCALL GBLCMD              Shouldn't return
 0002D0 4110 750E/4100_      007C0  8894                       ABORT 'Can''t SET XMAIL/NOXMAIL.'
 0002DC 18D8/9808 D004_             8901                       PEND
 DROP   *,R7
1ACMD     (ACMD4072) (12:39) (15MAR04) SET PACCOUNT Command                                                                 Page   15
0Current Usings:  (CP,R11) (CV,R12)
0Loc    Object Code    Addr1 Addr2  Stmt Lv Lineno    Source Statement           (Hibal 5, Asmedit 3.3)  HLASM R4.0  2004/03/15 12.39
+___    ______ ____    _____ _____  ____ __ ______    ______ _________
0                                   8922              ¿þþþþþþþþþþþþþþþþþþþþþþþþþþþþþþþþþþþþþþþþþþþþþþþþþþþþþþþþþþþþþþþþþþþþþÜ
                                    8923              Ÿ                                                                     Ÿ
                                    8924              Ÿ  SETMAIL -- SET MAIL/NOMAIL Commands.                               Ÿ
                                    8925              Ÿ                                                                     Ÿ
                                                      ¾þþþþþþþþþþþþþþþþþþþþþþþþþþþþþþþþþþþþþþþþþþþþþþþþþþþþþþþþþþþþþþþþþþþþþ»
00002EA 50E0 D000/9008_      00000  8926              SETMAIL  XPROC WA
 USING  *,R7
 USING  WA-(4+36),R8
                                    8977
 000304 D7FF 8028 8028_00000 00000  8978                       CLEAR WA
 000316 4150 8028            00000  8987                       LA    R5,WA
 USING  WA,R5                       8988                       USING WA,R5
                                    8997
 00031A D204 BC48 B3B4 00C48 003B4  8998                       MVC   CPCACCT,CPSACCT
 000320 4800 7550            00854  8999                       LH    R0,=H'-1'
 000324 58E0 74D4/0DEE       007D8  9000                       ACALL GETAENT
                                    9004
 00032A 58E0 B08C/D2AF_      0008C  9005                       SCSAVE AREA=WASCSAVE
                                    9014
 000336                             9015                       LOOP  BEGIN
 000336 58E0 B08C/D2AF_      0008C  9021  1                      SCRSTR AREA=WASCSAVE
 000342 9640 5057      00057        9030  1                      SET   KWROFL.KWRFMAIL     User wants mail
 000346 95D5 BD24/4770_00D24        9037  1                      IF    (CPCMNM,EQ,'N'),'CLEAR KWROFL.KWRFMAIL'
 000352 5810 B08C/1B00_      0008C  9067  1                      SCAN  MAILPRT
 0003A4 58E0 74E0/0DEE       007E4  9099  1                      SCANCHK
 0003AA 58E0 74E4/0DEE       007E8  9104  1                      ACALL PUTKWR
 0003B0 4770 7032            00336  9108                       UNTIL Z,END               Loop until re-write is ok
                                    9127              *
                                    9128              ***      LA    R0,SMFWMAIL+SMFWAUTH
                                    9129              ***      VCALL LOGKWR              write smf log record
                                    9130              *
 0003B4 58E0 74F0/0DEE       007F4  9131                       ACALL SEGACCT
 0003BA 4110 5000            00000  9135                       LA    R1,KWR
 0003BE 58E0 7530/0DEE       00834  9136                       ACALL MBOXDISP            Show mail box status
 0003C4 D7FF 5000 5000_00000 00000  9140                       CLEAR KWR
 0003D0 47F0 C7DE            007DE  9148                       B     CVNEXT
                                    9149
 0003D4 18D8/9808 D004_             9150                       PEND  ,                   NOTE: we exit to CVNEXT above
 DROP   WA-(4+36),R8
 DROP   *,R7
1ACMD     (ACMD4072) (12:39) (15MAR04) SET PACCOUNT Command                                                                 Page   16
0Current Usings:  (WA,R5) (CP,R11) (CV,R12)
0Loc    Object Code    Addr1 Addr2  Stmt Lv Lineno    Source Statement           (Hibal 5, Asmedit 3.3)  HLASM R4.0  2004/03/15 12.39
+___    ______ ____    _____ _____  ____ __ ______    ______ _________
0                                   9176              **
                                    9177              **  SET MAIL Options
                                    9178              **
 0003E4 D5D6C6D6D9E6C1D9_           9179              MAILPRT  SCKW  NOFORWARD,KNOFWD,A
 00040C C6D6D9E6C1D9C440_           9194                       SCKW  FORWARD,KFORWARD,A
 000434 C1E3E3D540404040_           9209                       SCKW  ATTN,KATTN,A
 00045C D5D6C1E3E3D54040_           9224                       SCKW  NOATTN,KNOATTN,A
 000484 4040404040404040_           9239                       SCKW  ,V(COLLPSH),PUSH
 0004AC 4040404040404040_           9254                       SCKW  ,V(QUIETPSH),PUSH
 0004D4 4040404040404040_           9269                       SCKW  ,KMAILTXT
-0004FC 50E0 D000/9008_      00000  9285              KFORWARD PROC
 USING  *,R7
                                    9324
                                    9325                       COMMENT                   Scan mail addr, allow wierd chars
 000516 5810 B08C/1B00_      0008C  9326                       SCANSTR
 00055C 58E0 72CE/0DEE       007E4  9355                       SCANCHK
                                    9360
 000562 1200/4770 705E_             9361                       IF    (R0,Z),'ERROR "Missing FORWARD mail address."'
                                    9387
                                    9388                       COMMENT                   IF 'UUU'
 000574 5900 7326/4770_      0083C  9389                       IF    (R0,EQ,3),BEGIN     Convert 'uuu' to 'gg.uuu'...
 00057C 5810 B08C/4111_      0008C  9406  1                      SCUPTOK R1
 000584 D502 BC48 1000_00C48 00000  9410  1                      IF    (@R1,EQ,CPCUSER),BEGIN
 00058E D73F 50C2 50C2 000C2 000C2  9427  2                        CLEAR KWRMFOR
 000594                             9434  1                      END
 000594 7082/47F0 7098 00594 0058C  9438  1                      ELSE  BEGIN
 000598 D23F 50C2 C4D8 000C2 004D8  9449  2                        MVC   KWRMFOR,CVBLANKS
 00059E D201 50C2 B3B7 000C2 003B7  9450  2                        MVC   KWRMFOR(2),CPSGRP
 0005A4 924B 50C4      000C4        9451  2                        MVI   KWRMFOR+2,C'.'
 0005A8 D202 50C5 1000 000C5 00000  9452  2                        MVC   KWRMFOR+3(3),@R1
 0005AE                             9453  1                      END
 0005AE                             9457                       END
                                    9461
                                    9462                       COMMENT                   IF 'GG.UUU'
 0005AE 709C/47F0 70DE_005AE 0057A  9463                       ELSEIF  ((R0,EQ,6),AND,(@R1+2,EQ,'.')),BEGIN
 0005C2 5810 B08C/4111_      0008C  9504  1                      SCUPTOK R1
 0005CA D501 BC4B 1000_00C4B 00000  9508  1                      IF    ((@R1,EQ,CPCGRP),AND,(@R1+3,EQ,CPCUSER)),BEGIN
 0005DE D73F 50C2 50C2 000C2 000C2  9541  2                        CLEAR KWRMFOR
 0005E4                             9548  1                      END
 0005E4 70D2/70D2/47F0_005E4 005D2  9552  1                      ELSE  BEGIN
 0005E8 D23F 50C2 C4D8 000C2 004D8  9565  2                        MVC   KWRMFOR,CVBLANKS
 0005EE D205 50C2 1000 000C2 00000  9566  2                        MVC   KWRMFOR(6),@R1
 0005F4                             9567  1                      END
 0005F4                             9571                       END
                                    9575
                                    9576                       COMMENT                   IF 'GG$UUU'
 0005F4 70E2/70E2/47F0_005F4 005B8  9577                       ELSEIF  ((R0,EQ,6),AND,(@R1+2,EQ,'$')),BEGIN
 000608 5810 B08C/4111_      0008C  9620  1                      SCUPTOK R1
 000610 D501 BC4B 1000_00C4B 00000  9624  1                      IF    ((@R1,EQ,CPCGRP),AND,(@R1+3,EQ,CPCUSER)),BEGIN
 000624 D73F 50C2 50C2 000C2 000C2  9657  2                        CLEAR KWRMFOR
 00062A                             9664  1                      END
 00062A 7118/7118/47F0_0062A 00618  9668  1                      ELSE  BEGIN
1ACMD     (ACMD4072) (12:39) (15MAR04) SET PACCOUNT Command                                                                 Page   17
0Current Usings:  (WA,R5) (*,R7) (CP,R11) (CV,R12)
0Loc    Object Code    Addr1 Addr2  Stmt Lv Lineno    Source Statement           (Hibal 5, Asmedit 3.3)  HLASM R4.0  2004/03/15 12.39
+___    ______ ____    _____ _____  ____ __ ______    ______ _________
000062E D23F 50C2 C4D8 000C2 004D8  9681  2                        MVC   KWRMFOR,CVBLANKS
 000634 D205 50C2 1000 000C2 00000  9682  2                        MVC   KWRMFOR(6),@R1
 00063A                             9683  1                      END
 00063A                             9687                       END
                                    9691
                                    9692                       COMMENT                   IF 'UUU$GG'
 00063A 7128/7128/47F0_0063A 005FE  9693                       ELSEIF  ((R0,EQ,6),AND,(@R1+3,EQ,'$')),BEGIN
 00064E 5810 B08C/4111_      0008C  9736  1                      SCUPTOK R1
 000656 D502 BC48 1000_00C48 00000  9740  1                      IF    ((@R1,EQ,CPCUSER),AND,(@R1+4,EQ,CPCGRP)),BEGIN
 00066A D73F 50C2 50C2 000C2 000C2  9773  2                        CLEAR KWRMFOR
 000670                             9780  1                      END
 000670 715E/715E/47F0_00670 0065E  9784  1                      ELSE  BEGIN
 000674 D23F 50C2 C4D8 000C2 004D8  9797  2                        MVC   KWRMFOR,CVBLANKS
 00067A D205 50C2 1000 000C2 00000  9798  2                        MVC   KWRMFOR(6),@R1
 000680                             9799  1                      END
 000680                             9803                       END
                                    9807
                                    9808                       COMMENT                   ALL OTHER ADDRESSES
 000680 716E/716E/47F0_00680 00644  9809                       ELSE  BEGIN
 000684 D23F 50C2 C4D8 000C2 004D8  9822  1                      MVC   KWRMFOR,CVBLANKS
 00068A 18F0                        9823  1                      LR    R15,R0
 00068C 59F0 732E/47D0_      00844  9824  1                      CEIL  R15,L'KWRMFOR
 000698 06F0/12FF/4740_             9843  1                      MOVE  R15,KWRMFOR,@R1
 0006A4                             9881                       END
                                    9885
 0006A4 1BFF                        9886                       CLEAR R15
 0006A6 18D8/9808 D004_             9890                       PEND
 DROP   *,R7
                                    9910
 0006B4 50E0 D000/9008_      00000  9911              KNOFWD   PROC
 USING  *,R7
 0006CE D73F 50C2 50C2 000C2 000C2  9950                       CLEAR KWRMFOR
 0006D4 18D8/9808 D004_             9957                       PEND
 DROP   *,R7
                                    9977
 0006E2 50E0 D000/9008_      00000  9978              KNOATTN  PROC
 USING  *,R7
 0006FC 9608 5064      00064       10017                       SET   KWRTFL2.KWRTFMNOATTN
 000700 18D8/9808 D004_            10024                       PEND
 DROP   *,R7
                                   10044
 00070E 50E0 D000/9008_      00000 10045              KATTN    PROC
 USING  *,R7
 000728 94F7 5064      00064       10084                       CLEAR KWRTFL2.KWRTFMNOATTN
 00072C 18D8/9808 D004_            10092                       PEND
 DROP   *,R7
                                   10112
 00073A 50E0 D000/9008_      00000 10113              KMAILTXT PROC
 USING  *,R7
 000754 58E0 70F4/0DEE       00848 10152                       VCALL DEQUOTE
 00075A 47B0 7010            00764 10156                       IF    M,BEGIN
 00075E 58E0 70F8/0DEE       0084C 10167  1                      VCALL NOTVALID
 000764                            10171                       END
 000764 D24F 5102 C4D8 00102 004D8 10175                       MVC   KWRMTXT,CVBLANKS
1ACMD     (ACMD4072) (12:39) (15MAR04) SET PACCOUNT Command                                                                 Page   18
0Current Usings:  (WA,R5) (*,R7) (CP,R11) (CV,R12)
0Loc    Object Code    Addr1 Addr2  Stmt Lv Lineno    Source Statement           (Hibal 5, Asmedit 3.3)  HLASM R4.0  2004/03/15 12.39
+___    ______ ____    _____ _____  ____ __ ______    ______ _________
000076A 18F0                       10176                       LR    R15,R0
 00076C 59F0 70FC/47D0_      00850 10177                       CEIL  R15,L'KWRMTXT
 000778 06F0/12FF/4740_            10196                       MOVE  R15,KWRMTXT,@R1
 000784 D54F 5102 C4D8_00102 004D8 10234                       IF    (KWRMTXT,EQ,CVBLANKS),'CLEAR KWRMTXT'
 000794 1BFF                       10264                       CLEAR R15
 000796 18D8/9808 D004_            10268                       PEND
 DROP   *,R7
                                   10288
 DROP   WA,R5                      10289                       DROP  WA
                                   10297
                                   10298                       QLTORG
1ACMD     (ACMD4072) (12:39) (15MAR04) SET PACCOUNT Command                                                                 Page   19
0Current Usings:  (CP,R11) (CV,R12)
0Loc    Object Code    Addr1 Addr2  Stmt Lv Lineno    Source Statement           (Hibal 5, Asmedit 3.3)  HLASM R4.0  2004/03/15 12.39
+___    ______ ____    _____ _____  ____ __ ______    ______ _________
0                                  10340              ¿þþþþþþþþþþþþþþþþþþþþþþþþþþþþþþþþþþþþþþþþþþþþþþþþþþþþþþþþþþþþþþþþþþþþþÜ
                                   10341              Ÿ                                                                     Ÿ
                                   10342              Ÿ  MBOXDISP -- Routine to display mail box status (also called        Ÿ
                                   10343              Ÿ    by the SHOW MAIL STATUS command).                                Ÿ
                                   10344              Ÿ                                                                     Ÿ
                                   10345              Ÿ    On entry:                                                        Ÿ
                                   10346              Ÿ      R1 - KWR ptr                                                   Ÿ
                                   10347              Ÿ                                                                     Ÿ
                                                      ¾þþþþþþþþþþþþþþþþþþþþþþþþþþþþþþþþþþþþþþþþþþþþþþþþþþþþþþþþþþþþþþþþþþþþþ»
00008E0 50E0 D000/9008_      00000 10348              MBOXDISP XPROC
 USING  *,R7
 0008FA 1861                       10388                       LR    R6,R1               Kwr ptr
 USING  KWR,R6                     10389                       USING KWR,R6
 0008FC 4110 76AA/4100_      00FA4 10398                       SETMSG 'Your account can not receive new mail.'
 000904 9140 6057/47E0_00057       10402                       IF    KWROFL.KWRFMAIL,BEGIN
 00090C 4110 76D0/4100_      00FCA 10418  1                      SETMSG 'Your account can receive new mail.'
 000914 D63F 60C2 60C2_000C2 000C2 10422  1                      IF    (KWRMFOR,NZ),BEGIN
 00091E 4110 7718/4100_      01012 10438  2                        TSEG  'New mail is being forwarded to '
 000930 4110 60C2/4100_      000C2 10456  2                        SETMSG KWRMFOR
 000938                            10470  1                      END
 000938                            10474                       END
 000938 41F0 B050/58E0_      00050 10478                       TSEG  (R1),(R0),CR
                                   10502
 000942 D64F 6102 6102_00102 00102 10503                       IF    (KWRMTXT,NZ),BEGIN
 00094C 4110 76F2/4100_      00FEC 10519  1                      TSEG  'Your mail message is: '
 00095E 4110 6102/4100_      00102 10537  1                      TSEG  KWRMTXT,,T
 000970 1B00/41F0 B050_            10565  1                      TCR
 00097C                            10590                       END
                                   10594
 00097C 9108 6064/47E0_00064       10595                       IF    KWRTFL2.KWRTFMNOATTN,'TSEG "NO"'
 000996 4110 7737/4100_      01031 10634                       TSEG  'ATTN '
                                   10652
 0009A8 4110 773C/4100_      01036 10653                       TSEG  '- SHOW MAIL options',,CR
                                   10671
 0009BA 1B00/41F0 B050_            10672                       TWRITE
 0009C6 4770 C7DA            007DA 10697                       BNZ   CVABORT
 0009CA 18D8/9808 D004_            10698                       PEND
 DROP   *,R7
 DROP   KWR,R6                     10718                       DROP  KWR
1ACMD     (ACMD4072) (12:39) (15MAR04) SET/SHOW WCHARGE Commands                                                            Page   20
0Current Usings:  (CP,R11) (CV,R12)
0Loc    Object Code    Addr1 Addr2  Stmt Lv Lineno    Source Statement           (Hibal 5, Asmedit 3.3)  HLASM R4.0  2004/03/15 12.39
+___    ______ ____    _____ _____  ____ __ ______    ______ _________
0                                  10727              ¿þþþþþþþþþþþþþþþþþþþþþþþþþþþþþþþþþþþþþþþþþþþþþþþþþþþþþþþþþþþþþþþþþþþþþÜ
                                   10728              Ÿ                                                                     Ÿ
                                   10729              Ÿ  SETWCH -- SET WCHARGE Command.                                     Ÿ
                                   10730              Ÿ                                                                     Ÿ
                                                      ¾þþþþþþþþþþþþþþþþþþþþþþþþþþþþþþþþþþþþþþþþþþþþþþþþþþþþþþþþþþþþþþþþþþþþþ»
0                                  10731                       MACRO
                                   10732              &L       SETWCH &OLD,&NEW
                                   10733              &L       IF    (SETWCHAR,EQ,'&OLD '),BEGIN
                                   10734                       MVC   SETWCHAR,=CL(L'SETWCHAR)'&NEW'
                                   10735                       END
                                   10736                       MEND
                                   10737              þþþþ
                                   10738                       MACRO
                                   10739              &L       SETWPASS &COMP,&PASS
                                   10740              &L       IF    (SETWCHAR,EQ,'&COMP'),BEGIN  Component stem match...
                                   10741                       CLC   SETWPASS,=CL(L'SETWPASS)'&PASS'  Correct password?
                                   10742                       IF    EQ,'LA R2,1'        Yes
                                   10743                       END
                                   10744                       MEND
                                   10745              þþþþ
 000000                00000 00018 10746              SETWWA   RECORD BEGIN
 000000                            10754  1           SETWCHAR   DS    CL(L'CPWCHAR)       WCHARGE component
 000010                            10755  1           SETWPASS   DS    CL8                 Associated password
 000018                00018 00018 10756                       END
                                   10765              þþþþ
 0009D8 50E0 D000/9008_      00000 10766              SETWCH   XPROC SETWWA
 USING  *,R7
 USING  SETWWA-(4+36),R8
 0009F2 4160 8028            00000 10817                       LA    R6,SETWWA
 USING  SETWWA,R6                  10818                       USING SETWWA,R6
 0009F6 D717 6000 6000 00000 00000 10827                       CLEAR SETWWA
                                   10834                       ¿þþþþþþþþþþþþþþþþþþþþþþþþþþþþþþþþÜ
                                   10835                       Ÿ  Save WCHARGE component name.  Ÿ
                                   10836                       ¾þþþþþþþþþþþþþþþþþþþþþþþþþþþþþþþþ»
 0009FC 5810 B08C/1B00_      0008C 10837                       SCAN
 000A4A 58E0 7592/0DEE       00F84 10868                       SCANCHK
 000A50 1200/4720 706A_            10873                       IF    (R0,NP),'MVC SETWCHAR,=CL(L"SETWCHAR)"GENERAL"'
                                   10893
 000A5C 706E/47F0 71A0 00A5C 00A54 10894                       ELSE  BEGIN
 000A60 58F0 B08C/4110_      0008C 10905  1                      SCUPCASE SETWCHAR         Set component name
                                   10926  1
 000A72 D505 7614 6000_01006 00000 10927  1                      SETWCH FOLIO,FOLIO_GENERAL
 000A82 D508 7657 6000_01049 00000 10950  1                      SETWCH FOLIOSOC,FOLIO_SOCRATES
 000A92 D508 7660 6000_01052 00000 10973  1                      SETWCH FOLIOAIR,FOLIO_AIR
 000AA2 D508 7669 6000_0105B 00000 10996  1                      SETWCH FOLIOBST,FOLIO_BOOKSTORE
 000AB2 D508 7672 6000_01064 00000 11019  1                      SETWCH FOLIOCIP,FOLIO_COMMINFO
 000AC2 D508 767B 6000_0106D 00000 11042  1                      SETWCH FOLIOHBR,FOLIO_HBR
 000AD2 D508 7684 6000_01076 00000 11065  1                      SETWCH FOLIOHOV,FOLIO_HOOVER
 000AE2 D508 768D 6000_0107F 00000 11088  1                      SETWCH FOLIOINV,FOLIO_INVEST
 000AF2 D508 7696 6000_01088 00000 11111  1                      SETWCH FOLIOMLK,FOLIO_MLKING
 000B02 D505 761A 6000_0100C 00000 11134  1                      SETWCH PRISM,PRISM_GENERAL
 000B12 D507 74BE 6000_00EB0 00000 11157  1                      SETWCH PRISMNC,PRISM_NC
 000B22 D508 769F 6000_01091 00000 11180  1                      SETWCH PRISMSMS,PRISM_SMAS
1ACMD     (ACMD4072) (12:39) (15MAR04) SET/SHOW WCHARGE Commands                                                            Page   21
0Current Usings:  (SETWWA,R6) (*,R7) (SETWWA-(4+36),R8) (CP,R11) (CV,R12)
0Loc    Object Code    Addr1 Addr2  Stmt Lv Lineno    Source Statement           (Hibal 5, Asmedit 3.3)  HLASM R4.0  2004/03/15 12.39
+___    ______ ____    _____ _____  ____ __ ______    ______ _________
0000B32 D508 76A8 6000_0109A 00000 11203  1                      SETWCH PRISMPEV,PRISM_PUBEVENTS
 000B42 D508 76B1 6000_010A3 00000 11226  1                      SETWCH PRISMSUF,PRISM_SUFIN
 000B52 D508 76BA 6000_010AC 00000 11249  1                      SETWCH PRISMNSI,PRISM_NSI
 000B62 D508 76C3 6000_010B5 00000 11272  1                      SETWCH PRISMSNP,PRISM_SNAP
 000B72 D508 76CC 6000_010BE 00000 11295  1                      SETWCH PRISMCLS,PRISM_CLASS
 000B82 D508 76D5 6000_010C7 00000 11318  1                      SETWCH PRISMOTH,PRISM_MISC
 000B92                            11341                       END
                                   11345                       ¿þþþþþþþþþþþþþþþþþþþþþþþþþþþþþÜ
                                   11346                       Ÿ  Scan SET WCHARGE options.  Ÿ
                                   11347                       ¾þþþþþþþþþþþþþþþþþþþþþþþþþþþþþ»
 000B92 5810 B08C/1B00_      0008C 11348                       SCAN  SETWPRT
 000BE4 58E0 7592/0DEE       00F84 11380                       SCANCHK
                                   11385                       ¿þþþþþþþþþþþþþþþþþþþþþþþþþþþþþþþþþþþþþþþþþþþþþþþþþþþþþþþþþþþþÜ
                                   11386                       Ÿ  Only save the new charge component name if an authorized  Ÿ
                                   11387                       Ÿ    program is currently running.                           Ÿ
                                   11388                       ¾þþþþþþþþþþþþþþþþþþþþþþþþþþþþþþþþþþþþþþþþþþþþþþþþþþþþþþþþþþþþ»
 000BEA 1B22                       11389                       CLEAR R2                  Assume not authorized
 000BEC 91C0 B3A8/47E0_003A8       11393                       IF    CPSVFLAG.CPSVFRUN*CPSVFATH,'LA R2,1'  Authorized pgm
 000BF8 9140 B75A/47E0_0075A       11418                       IF    CPFXAUTH,'LA R2,1'  Authorized exec
                                   11439                       ¿þþþþþþþþþþþþþþþþþþþþþþþþþþþþþþþþþþþþþþþþþþþþþþþþþþþþþþþþþþþþÜ
                                   11440                       Ÿ  A "typed command" should never be considered authorized.  Ÿ
                                   11441                       Ÿ    This is a bypass-fix for the fact that Orvyl doesn't    Ÿ
                                   11442                       Ÿ    currently clear the VFRUN flag when a program pauses.   Ÿ
                                   11443                       ¾þþþþþþþþþþþþþþþþþþþþþþþþþþþþþþþþþþþþþþþþþþþþþþþþþþþþþþþþþþþþ»
 000C04 9110 B477/47E0_00477       11444                       IF    CPFTYPED,'CLEAR R2'  Typed command is never auth
                                   11468                       ¿þþþþþþþþþþþþþþþþþþþþþþþþþþþþþþþþþþþþþþþþþþþþþþþþþþþþþþþþþþÜ
                                   11469                       Ÿ  Allow setting these component names if the password is  Ÿ
                                   11470                       Ÿ    supplied.                                             Ÿ
                                   11471                       ¾þþþþþþþþþþþþþþþþþþþþþþþþþþþþþþþþþþþþþþþþþþþþþþþþþþþþþþþþþþ»
 000C0E D506 76DE 6000_010D0 00000 11472                       SETWPASS FEEDIT_,ALGERNON
 000C26 D503 759E 6000_00F90 00000 11512                       SETWPASS EMS_,UMAIL4US
 000C3E D506 76E5 6000_010D7 00000 11552                       SETWPASS WYLMAIL,<internal>
 000C56 D506 76EC 6000_010DE 00000 11592                       SETWPASS XBEGIN_,LEVEL2
 000C6E D506 76F3 6000_010E5 00000 11632                       SETWPASS PUBLISH,POSTFIX
                                   11672
 000C86 1222/4770 72A8             11673                       IF    (R2,Z),BEGIN        Not authorized...
 000C8C D507 756E 6000_00F60 00000 11687  1                      IF    (SETWCHAR,EQ,'GENERAL '),EXIT  Always allow a reset
 000C96 47F0 C7DE            007DE 11707  1                      B     CVNEXT
 000C9A                            11708                       END
                                   11712
 000C9A D20F B448 6000 00448 00000 11713                       MVC   CPWCHAR,SETWCHAR    Set charging component
                                   11714
 000CA0 47F0 C7DE            007DE 11715                       B     CVNEXT
 000CA4 18D8/9808 D004_            11716                       PEND  ,                   NOTE: we exit to CVNEXT above
 DROP   SETWWA-(4+36),R8
 DROP   *,R7
0                                  11742                       ¿þþþþþþþþþþþþþþþþþþþþþþþþÜ
                                   11743                       Ÿ  SET WCHARGE Options.  Ÿ
                                   11744                       ¾þþþþþþþþþþþþþþþþþþþþþþþþ»
 000CB4 6140404040404040_          11745              SETWPRT  SCKW  /,SWPASS,(A,P)
 000CDC 4040404040404040_          11760                       SCKW  ,V(SCNINVAL)
                                   11775
 000D04 50E0 D000/9008_      00000 11776              SWPASS   PROC
1ACMD     (ACMD4072) (12:39) (15MAR04) SET/SHOW WCHARGE Commands                                                            Page   22
0Current Usings:  (SETWWA,R6) (*,R7) (CP,R11) (CV,R12)
0Loc    Object Code    Addr1 Addr2  Stmt Lv Lineno    Source Statement           (Hibal 5, Asmedit 3.3)  HLASM R4.0  2004/03/15 12.39
+___    ______ ____    _____ _____  ____ __ ______    ______ _________
0USING  *,R7
 000D1E 58F0 B08C/4110_      0008C 11815                       SCUPCASE SETWPASS
 000D30 18D8/9808 D004_            11836                       PEND
 DROP   *,R7
                                   11856
 DROP   SETWWA,R6                  11857                       DROP  R6
1ACMD     (ACMD4072) (12:39) (15MAR04) SET/SHOW WCHARGE Commands                                                            Page   23
0Current Usings:  (CP,R11) (CV,R12)
0Loc    Object Code    Addr1 Addr2  Stmt Lv Lineno    Source Statement           (Hibal 5, Asmedit 3.3)  HLASM R4.0  2004/03/15 12.39
+___    ______ ____    _____ _____  ____ __ ______    ______ _________
0                                  11865              ¿þþþþþþþþþþþþþþþþþþþþþþþþþþþþþþþþþþþþþþþþþþþþþþþþþþþþþþþþþþþþþþþþþþþþþÜ
                                   11866              Ÿ                                                                     Ÿ
                                   11867              Ÿ  SHOWWCH -- SHOW WCHARGE Command.                                   Ÿ
                                   11868              Ÿ                                                                     Ÿ
                                                      ¾þþþþþþþþþþþþþþþþþþþþþþþþþþþþþþþþþþþþþþþþþþþþþþþþþþþþþþþþþþþþþþþþþþþþþ»
0000D3E 50E0 D000/9008_      00000 11869              SHOWWCH  XPROC ,
 USING  *,R7
 000D58 58E0 723C/0DEE       00F94 11909                       VCALL COLLOPTS            Allow standard options
                                   11913
 000D5E D60F B448 B448_00448 00448 11914                       IF    (CPWCHAR,Z),BEGIN   (Should ever happen, but...)
 000D68 4110 7394/4100_      010EC 11930  1                      TSEG  'No charging component is set.'
 000D7A                            11948                       END
                                   11952
 000D7A 7026/47F0 704A 00D7A 00D66 11953                       ELSE  BEGIN
 000D7E 4110 B448/4100_      00448 11964  1                      TSEG  CPWCHAR,,TB
 000D90 4110 73B1/4100_      01109 11992  1                      TSEG  '- charging component.'
 000DA2                            12010                       END
                                   12014
 000DA2 47F0 C7DE            007DE 12015                       B     CVNEXT
                                   12016
 000DA6 18D8/9808 D004_            12017                       PEND  ,                   NOTE: we exit to CVNEXT above
 DROP   *,R7
                                   12037                       DROP  BR
1ACMD     (ACMD4072) (12:39) (15MAR04) WEVENT Command                                                                       Page   24
0Current Usings:  (CP,R11) (CV,R12)
0Loc    Object Code    Addr1 Addr2  Stmt Lv Lineno    Source Statement           (Hibal 5, Asmedit 3.3)  HLASM R4.0  2004/03/15 12.39
+___    ______ ____    _____ _____  ____ __ ______    ______ _________
0                                  12042              ¿þþþþþþþþþþþþþþþþþþþþþþþþþþþþþþþþþþþþþþþþþþþþþþþþþþþþþþþþþþþþþþþþþþþþþÜ
                                   12043              Ÿ                                                                     Ÿ
                                   12044              Ÿ  WEVENT -- WEVENT command.                                          Ÿ
                                   12045              Ÿ                                                                     Ÿ
                                                      ¾þþþþþþþþþþþþþþþþþþþþþþþþþþþþþþþþþþþþþþþþþþþþþþþþþþþþþþþþþþþþþþþþþþþþþ»
0000DB4 50E0 D000/9008_      00000 12046              WEVENT   XPROC
 USING  *,R7
                                   12086
 000DCE 58E0 B08C/581E_      0008C 12087                       SCINFO
 000DDC 58E0 71CE/0DEE       00F9C 12096                       VCALL LRTRIM              Everything after WEVENT
 000DE2 41F0 719A            00F68 12100                       LA    R15,=CL8'COMMAND'   Log type
 000DE6 58E0 71D2/0DEE       00FA0 12101                       VCALL LOGEVENT            Log it
                                   12105
 000DEC 47F0 C7DE            007DE 12106                       B     CVNEXT
                                   12107
 000DF0 18D8/9808 D004_            12108                       PEND  ,                   NOTE: we exit to CVNEXT above
 DROP   *,R7
                                   12128
                                   12129                       QLTORG
1ACMD     (ACMD4072) (12:39) (15MAR04) SET/SHOW AUTO Commands                                                               Page   25
0Current Usings:  (CP,R11) (CV,R12)
0Loc    Object Code    Addr1 Addr2  Stmt Lv Lineno    Source Statement           (Hibal 5, Asmedit 3.3)  HLASM R4.0  2004/03/15 12.39
+___    ______ ____    _____ _____  ____ __ ______    ______ _________
0                                  12213              ¿þþþþþþþþþþþþþþþþþþþþþþþþþþþþþþþþþþþþþþþþþþþþþþþþþþþþþþþþþþþþþþþþþþþþþÜ
                                   12214              Ÿ                                                                     Ÿ
                                   12215              Ÿ  SETAUTO -- SET AUTO command.                                       Ÿ
                                   12216              Ÿ                                                                     Ÿ
                                                      ¾þþþþþþþþþþþþþþþþþþþþþþþþþþþþþþþþþþþþþþþþþþþþþþþþþþþþþþþþþþþþþþþþþþþþþ»
000111E 50E0 D000/9008_      00000 12217              SETAUTO  XPROC WA
 USING  *,R7
 USING  WA-(4+36),R8
                                   12268
 001138 D7FF 8028 8028_00000 00000 12269                       CLEAR WA
 00114A 4150 8028            00000 12278                       LA    R5,WA
 USING  WA,R5                      12279                       USING WA,R5
                                   12288
 00114E D204 BC48 B3B4 00C48 003B4 12289                       MVC   CPCACCT,CPSACCT
 001154 4800 7DA4            01EDC 12290                       LH    R0,=H'-1'
 001158 58E0 7D60/0DEE       01E98 12291                       ACALL GETAENT
                                   12295
 00115E 58E0 B08C/D2AF_      0008C 12296                       SCSAVE AREA=WASCSAVE
                                   12305
 00116A                            12306                       LOOP  BEGIN
 00116A 58E0 B08C/D2AF_      0008C 12312  1                      SCRSTR AREA=WASCSAVE
 001176 5810 B08C/1B00_      0008C 12321  1                      SCAN  AUTOPRT
 0011C8 58E0 7D6C/0DEE       01EA4 12353  1                      SCANCHK
 0011CE 9180 51F8/4710_001F8       12358  1                      IF    ~WAFOP,'ERROR "Missing SET AUTO options."'
 0011E2 58E0 7D70/0DEE       01EA8 12385  1                      ACALL PUTKWR
 0011E8 4770 7032            0116A 12389                       UNTIL Z,END               Loop until re-write is ok
                                   12408
 0011EC 4100 0028            00028 12409                       LA    R0,SMFWAUTO+SMFWAUTH
 0011F0 58E0 7D74/0DEE       01EAC 12410                       VCALL LOGKWR              Write smf log record
 0011F6 58E0 7D78/0DEE       01EB0 12414                       ACALL SEGACCT
 0011FC 4110 5000            00000 12418                       LA    R1,KWR
 001200 58E0 7D7C/0DEE       01EB4 12419                       ACALL AUTODISP
 001206 D7FF 5000 5000_00000 00000 12423                       CLEAR KWR
 001212 47F0 C7DE            007DE 12431                       B     CVNEXT
                                   12432
 001216 18D8/9808 D004_            12433                       PEND  ,
 DROP   WA-(4+36),R8
 DROP   *,R7
1ACMD     (ACMD4072) (12:39) (15MAR04) SET/SHOW AUTO Commands                                                               Page   26
0Current Usings:  (WA,R5) (CP,R11) (CV,R12)
0Loc    Object Code    Addr1 Addr2  Stmt Lv Lineno    Source Statement           (Hibal 5, Asmedit 3.3)  HLASM R4.0  2004/03/15 12.39
+___    ______ ____    _____ _____  ____ __ ______    ______ _________
0                                  12459              **
                                   12460              **  SET AUTO Options
                                   12461              **
 001224 D5C5E6E240404040_          12462              AUTOPRT  SCKW  NEWS,KNEWS,A
 00124C D5D6D5C5E6E24040_          12477                       SCKW  NONEWS,KNONEWS,A
 001274 D4E4D3E3C9D7D3C5_          12492                       SCKW  MULTIPLE,KMULT,A
 00129C E2C9D5C7D3C54040_          12507                       SCKW  SINGLE,KNOMULT,A
 0012C4 D5D6D4E4D3E3C9D7_          12522                       SCKW  NOMULTIPLE,KNOMULT,A
 0012EC E7D4E4D3E3C9D7D3_          12537                       SCKW  XMULTIPLE,KXMULT,A
 001314 D5C4C1E3C5404040_          12552                       SCKW  NDATE,KNDATE,A
 00133C D4C1C9D340404040_          12567                       SCKW  MAIL,KAMAIL,A
 001364 D5D6D4C1C9D34040_          12582                       SCKW  NOMAIL,KANOMAIL,A
 00138C D9C5C3D6E5C5D9E8_          12597                       SCKW  RECOVERY,KRCVY,A
 0013B4 D5D6D9C5C3D6E5C5_          12612                       SCKW  NORECOVERY,KNORCVY,A
 0013DC D5C5E6C5E7C5C340_          12627                       SCKW  NEWEXEC,KNEWEXEC,A
 001404 D7E4C2C5E7C5C340_          12642                       SCKW  PUBEXEC,KPUBEXEC,A
 00142C C5E7C5C3E4E3C540_          12657                       SCKW  EXECUTE,KEXEC,A
 001454 D5D6C5E7C5C3E4E3_          12672                       SCKW  NOEXECUTE,KNOEXEC,A
 00147C C3D6D4D4C1D5C440_          12687                       SCKW  COMMAND,KCMD,(A,P)
 0014A4 D5D6C3D6D4D4C1D5_          12702                       SCKW  NOCOMMAND,KNOCMD,A
 0014CC C3D4C44040404040_          12717                       SCKW  CMD,KCMD,(A,P)
 0014F4 D5D6C3D4C4404040_          12732                       SCKW  NOCMD,KNOCMD,A
 00151C E2E8E2E3C5D44040_          12747                       SCKW  SYSTEM,KSYS,(A,P)
 001544 D5D6E2E8E2E3C5D4_          12762                       SCKW  NOSYSTEM,KNOSYS,A
 00156C E6E8D3C2E4D94040_          12777                       SCKW  WYLBUR,KNOSYS,A
 001594 E2C5D9E5E6E8D340_          12792                       SCKW  SERVWYL,KSYS
 0015BC C4C5E5E6E8D34040_          12807                       SCKW  DEVWYL,KSYS
 0015E4 E3C5E2E3E6E8D340_          12822                       SCKW  TESTWYL,KSYS
 00160C D6D3C4E6E8D34040_          12837                       SCKW  OLDWYL,KSYS
 001634 D6D9E5E8D3404040_          12852                       SCKW  ORVYL,KORV,(A,P)
 00165C E2E3C1E3C9E2E3C9_          12867                       SCKW  STATISTICS,KSTAT,A
 001684 D5D6E2E3C1E3C9E2_          12882                       SCKW  NOSTATISTICS,KNOSTAT,A
                                   12897                       AIF   (NOT &SETLTIM).LTIME1A
 0016AC D3E3C9D4C5404040_          12898                       SCKW  LTIME,KLTIME,A
 0016D4 D5D6D3E3C9D4C540_          12913                       SCKW  NOLTIME,KNOLTIME,A
                                   12928              .LTIME1A ANOP
 0016FC D2E3C9D4C5404040_          12929                       SCKW  KTIME,KPTIME,A
 001724 D7E3C9D4C5404040_          12944                       SCKW  PTIME,KPTIME,A
 00174C D5D6D2E3C9D4C540_          12959                       SCKW  NOKTIME,KNOPTIME,A
 001774 D5D6D7E3C9D4C540_          12974                       SCKW  NOPTIME,KNOPTIME,A
 00179C 4040404040404040_          12989                       SCKW  ,V(COLLPSH),PUSH
 0017C4 4040404040404040_          13004                       SCKW  ,V(QUIETPSH),PUSH
 0017EC 4040404040404040_          13019                       SCKW  ,V(NOTVALID)
                                   13034              þþþþ
 001814 50E0 D000/9008_      00000 13035              KNEWS    PROC
 USING  *,R7
 00182E 9680 51F8/9620_001F8       13074                       SET   WAFOP,KWRTFL.KWRTFAN
 001836 18D8/9808 D004_            13085                       PEND
 DROP   *,R7
                                   13105
 001844 50E0 D000/9008_      00000 13106              KNONEWS  PROC
 USING  *,R7
 00185E 9680 51F8/94DF_001F8       13145                       SET   WAFOP,(KWRTFL.KWRTFAN,OFF)
 001866 18D8/9808 D004_            13157                       PEND
1ACMD     (ACMD4072) (12:39) (15MAR04) SET/SHOW AUTO Commands                                                               Page   27
0Current Usings:  (WA,R5) (CP,R11) (CV,R12)
0Loc    Object Code    Addr1 Addr2  Stmt Lv Lineno    Source Statement           (Hibal 5, Asmedit 3.3)  HLASM R4.0  2004/03/15 12.39
+___    ______ ____    _____ _____  ____ __ ______    ______ _________
0DROP   *,R7
                                   13177
 001874 50E0 D000/9008_      00000 13178              KNDATE   PROC
 USING  *,R7
 00188E 9680 51F8      001F8       13217                       SET   WAFOP               SET OPERAND FLAG
 001892 9120 B3BE/4710_003BE       13223                       IF    ~CPSFSPR,BEGIN
 00189A 58E0 762A/0DEE       01EB8 13238  1                      VCALL NOTVALID
 0018A0                            13242                       END
                                   13246
 0018A0 5810 B08C/1B00_      0008C 13247                       SCANSTR ,                  SCAN DATE
 0018E6 58E0 7616/0DEE       01EA4 13276                       SCANCHK
                                   13281
 0018EC 5900 7632/4780_      01EC0 13282                       IF    (R0,NE,8),BEGIN
 0018F4 58E0 762A/0DEE       01EB8 13299  1                      VCALL NOTVALID
 0018FA                            13303                       END
 0018FA 1831                       13307                       LR    R3,R1               SAVE POINTER TO "MM/DD/YY"
 0018FC 9561 3002/4770_00002       13308                       IF    ((@R3+2,NE,'/'),OR,(@R3+5,NE,'/')),BEGIN
 00190C 58E0 762A/0DEE       01EB8 13339  1                      VCALL NOTVALID
 001912                            13343                       END
 001912 4110 3006/4100_      00006 13347                       SETMSG @R3+6,2             POINT TO "YY"
 00191A 58E0 7636/0DEE_      01EC4 13363                       IF    ('VCALL DTB',NEG),BEGIN
 001924 58E0 762A/0DEE       01EB8 13379  1                      VCALL NOTVALID
 00192A                            13383                       END
 00192A 182F                       13387                       LR    R2,R15              PUT IN RIGHT BYTE OF WORK REG
 00192C 8920 0008            00008 13388                       SLL   R2,8                SHIFT LEFT ONE BYTE
 001930 1813/4100 0002             13389                       SETMSG @R3,2               POINT TO "MM"
 001936 58E0 7636/0DEE_      01EC4 13405                       IF    ('VCALL DTB',NEG),BEGIN
 001940 58E0 762A/0DEE       01EB8 13421  1                      VCALL NOTVALID
 001946                            13425                       END
 001946 1A2F                       13429                       AR    R2,R15              PUT IN RIGHT BYTE OF WORK REG
 001948 8920 0008            00008 13430                       SLL   R2,8                SHIFT LEFT ONE BYTE
 00194C 4110 3003/4100_      00003 13431                       SETMSG @R3+3,2             POINT TO "DD"
 001954 58E0 7636/0DEE_      01EC4 13447                       IF    ('VCALL DTB',NEG),BEGIN
 00195E 58E0 762A/0DEE       01EB8 13463  1                      VCALL NOTVALID
 001964                            13467                       END
 001964 1A2F                       13471                       AR    R2,R15              PUT IN RIGHT BYTE OF WORK REG
 001966 8920 0008            00008 13472                       SLL   R2,8                SHIFT LEFT ONE BYTE
 00196A 1222/4770 70E8             13473                       IF    (R2,Z),BEGIN
 001970 58E0 762A/0DEE       01EB8 13487  1                      VCALL NOTVALID
 001976                            13491                       END
 001976 5020 50B4            000B4 13495                       ST    R2,KWRNEWDT         UPDATE KWR NEWS DATE
 00197A 1BFF                       13496                       CLEAR R15
 00197C 18D8/9808 D004_            13500                       PEND
 DROP   *,R7
                                   13520
 00198A 50E0 D000/9008_      00000 13521              KAMAIL   PROC  ,
 USING  *,R7
 0019A4 9680 51F8/9610_001F8       13560                       SET   WAFOP,KWRTFL.KWRTFAM
 0019AC 18D8/9808 D004_            13571                       PEND
 DROP   *,R7
                                   13591
 0019BA 50E0 D000/9008_      00000 13592              KANOMAIL PROC  ,
 USING  *,R7
 0019D4 9680 51F8/94EF_001F8       13631                       SET   WAFOP,(KWRTFL.KWRTFAM,OFF)
1ACMD     (ACMD4072) (12:39) (15MAR04) SET/SHOW AUTO Commands                                                               Page   28
0Current Usings:  (WA,R5) (CP,R11) (CV,R12)
0Loc    Object Code    Addr1 Addr2  Stmt Lv Lineno    Source Statement           (Hibal 5, Asmedit 3.3)  HLASM R4.0  2004/03/15 12.39
+___    ______ ____    _____ _____  ____ __ ______    ______ _________
00019DC 18D8/9808 D004_            13643                       PEND
 DROP   *,R7
                                   13663
 0019EA 50E0 D000/9008_      00000 13664              KRCVY    PROC
 USING  *,R7
 001A04 9680 51F8/9608_001F8       13703                       SET   WAFOP,KWRTFL.KWRTFAR
 001A0C 18D8/9808 D004_            13714                       PEND
 DROP   *,R7
                                   13734
 001A1A 50E0 D000/9008_      00000 13735              KNORCVY  PROC
 USING  *,R7
 001A34 9680 51F8/94F7_001F8       13774                       SET   WAFOP,(KWRTFL.KWRTFAR,OFF)
 001A3C 18D8/9808 D004_            13786                       PEND
 DROP   *,R7
                                   13806
 001A4A 50E0 D000/9008_      00000 13807              KNEWEXEC PROC
 USING  *,R7
 001A64 9680 51F8      001F8       13846                       SET   WAFOP
 001A68 9604 5049/9610_00049       13852                       SET   KWRTFL.KWRTFAE,KWRTFL2.KWRTFANE
 001A70 947F 5064      00064       13864                       CLEAR KWRTFL2.KWRTFAPE
 001A74 18D8/9808 D004_            13872                       PEND
 DROP   *,R7
                                   13892
 001A82 50E0 D000/9008_      00000 13893              KPUBEXEC PROC
 USING  *,R7
 001A9C 9680 51F8      001F8       13932                       SET   WAFOP
 001AA0 9604 5049/9680_00049       13938                       SET   KWRTFL.KWRTFAE,KWRTFL2.KWRTFAPE
 001AA8 94EF 5064      00064       13950                       CLEAR KWRTFL2.KWRTFANE
 001AAC 18D8/9808 D004_            13958                       PEND
 DROP   *,R7
                                   13978
 001ABA 50E0 D000/9008_      00000 13979              KEXEC    PROC
 USING  *,R7
 001AD4 9680 51F8/9604_001F8       14018                       SET   WAFOP,KWRTFL.KWRTFAE
 001ADC 946F 5064      00064       14029                       CLEAR KWRTFL2.KWRTFAPE+KWRTFANE
 001AE0 18D8/9808 D004_            14040                       PEND
 DROP   *,R7
                                   14060
 001AEE 50E0 D000/9008_      00000 14061              KNOEXEC  PROC
 USING  *,R7
 001B08 9680 51F8      001F8       14100                       SET   WAFOP
 001B0C 94FB 5049/946F_00049       14106                       CLEAR KWRTFL.KWRTFAE,KWRTFL2.KWRTFAPE+KWRTFANE
 001B14 18D8/9808 D004_            14123                       PEND
 DROP   *,R7
                                   14143
                                   14144                       AIF   (NOT &SETLTIM).LTIME2A
 001B22 50E0 D000/9008_      00000 14145              KLTIME   PROC
 USING  *,R7
 001B3C 9680 51F8/9602_001F8       14184                       SET   WAFOP,KWRTFL.KWRTFAL
 001B44 18D8/9808 D004_            14195                       PEND
 DROP   *,R7
                                   14215
 001B52 50E0 D000/9008_      00000 14216              KNOLTIME PROC
 USING  *,R7
1ACMD     (ACMD4072) (12:39) (15MAR04) SET/SHOW AUTO Commands                                                               Page   29
0Current Usings:  (WA,R5) (*,R7) (CP,R11) (CV,R12)
0Loc    Object Code    Addr1 Addr2  Stmt Lv Lineno    Source Statement           (Hibal 5, Asmedit 3.3)  HLASM R4.0  2004/03/15 12.39
+___    ______ ____    _____ _____  ____ __ ______    ______ _________
0001B6C 9680 51F8/94FD_001F8       14255                       SET   WAFOP,(KWRTFL.KWRTFAL,OFF)
 001B74 18D8/9808 D004_            14267                       PEND
 DROP   *,R7
                                   14287              .LTIME2A ANOP
                                   14288
 001B82 50E0 D000/9008_      00000 14289              KPTIME   PROC
 USING  *,R7
 001B9C 9680 51F8/9601_001F8       14328                       SET   WAFOP,KWRTFL.KWRTFAK
 001BA4 18D8/9808 D004_            14339                       PEND
 DROP   *,R7
                                   14359
 001BB2 50E0 D000/9008_      00000 14360              KNOPTIME PROC
 USING  *,R7
 001BCC 9680 51F8/94FE_001F8       14399                       SET   WAFOP,(KWRTFL.KWRTFAK,OFF)
 001BD4 18D8/9808 D004_            14411                       PEND
 DROP   *,R7
                                   14431
 DROP   WA,R5                      14432                       DROP  WA
1ACMD     (ACMD4072) (12:39) (15MAR04) SET/SHOW AUTO Commands                                                               Page   30
0Current Usings:  (CP,R11) (CV,R12)
0Loc    Object Code    Addr1 Addr2  Stmt Lv Lineno    Source Statement           (Hibal 5, Asmedit 3.3)  HLASM R4.0  2004/03/15 12.39
+___    ______ ____    _____ _____  ____ __ ______    ______ _________
0                                  14441              ¿þþþþþþþþþþþþþþþþþþþþþþþþþþþþþþþþþþþþþþþþþþþþþþþþþþþþþþþþþþþþþþþþþþþþþÜ
                                   14442              Ÿ                                                                     Ÿ
                                   14443              Ÿ  SHOWAUTO -- SHOW AUTO command.                                     Ÿ
                                   14444              Ÿ                                                                     Ÿ
                                                      ¾þþþþþþþþþþþþþþþþþþþþþþþþþþþþþþþþþþþþþþþþþþþþþþþþþþþþþþþþþþþþþþþþþþþþþ»
0001BE2 50E0 D000/9008_      00000 14445              SHOWAUTO XPROC WA
 USING  *,R7
 USING  WA-(4+36),R8
                                   14496
 001BFC D7FF 8028 8028_00000 00000 14497                       CLEAR WA
 001C0E 4150 8028            00000 14506                       LA    R5,WA
 USING  WA,R5                      14507                       USING WA,R5
                                   14516
 001C12 D204 BC48 B3B4 00C48 003B4 14517                       MVC   CPCACCT,CPSACCT
 001C18 4800 72E0            01EDC 14518                       LH    R0,=H'-1'
 001C1C 58E0 729C/0DEE       01E98 14519                       ACALL GETAENT
                                   14523
 001C22 58E0 72CC/0DEE       01EC8 14524                       VCALL COLLOPTS            Allow standard options
 001C28 58E0 72B4/0DEE       01EB0 14528                       ACALL SEGACCT
 001C2E 4110 5000            00000 14532                       LA    R1,KWR
 001C32 58E0 72B8/0DEE       01EB4 14533                       ACALL AUTODISP
 001C38 D7FF 5000 5000_00000 00000 14537                       CLEAR KWR
 001C44 47F0 C7DE            007DE 14545                       B     CVNEXT
                                   14546
 001C48 18D8/9808 D004_            14547                       PEND
 DROP   WA-(4+36),R8
 DROP   *,R7
 DROP   WA,R5                      14572                       DROP  WA
1ACMD     (ACMD4072) (12:39) (15MAR04) SET/SHOW AUTO Commands                                                               Page   31
0Current Usings:  (CP,R11) (CV,R12)
0Loc    Object Code    Addr1 Addr2  Stmt Lv Lineno    Source Statement           (Hibal 5, Asmedit 3.3)  HLASM R4.0  2004/03/15 12.39
+___    ______ ____    _____ _____  ____ __ ______    ______ _________
0                                  14581              ¿þþþþþþþþþþþþþþþþþþþþþþþþþþþþþþþþþþþþþþþþþþþþþþþþþþþþþþþþþþþþþþþþþþþþþÜ
                                   14582              Ÿ                                                                     Ÿ
                                   14583              Ÿ  AUTODISP -- Routine to display AUTO Options (also                  Ÿ
                                   14584              Ÿ    called by SHOW OPTIONS command).                                 Ÿ
                                   14585              Ÿ                                                                     Ÿ
                                   14586              Ÿ    On entry:                                                        Ÿ
                                   14587              Ÿ      R1 - KWR ptr                                                   Ÿ
                                   14588              Ÿ                                                                     Ÿ
                                                      ¾þþþþþþþþþþþþþþþþþþþþþþþþþþþþþþþþþþþþþþþþþþþþþþþþþþþþþþþþþþþþþþþþþþþþþ»
0001C56 50E0 D000/9008_      00000 14589              AUTODISP XPROC
 USING  *,R7
 001C70 1861                       14629                       LR    R6,R1               KWR ptr
 USING  KWR,R6                     14630                       USING KWR,R6
                                   14639
 001C72 D607 6092 6092_00092 00092 14640                       IF    (KWRSYS,NZ),BEGIN
 001C7C 4110 72AB/4100_      01F1B 14656  1                      TSEG  'System='
 001C8E 4110 6092/4100_      00092 14674  1                      TSEG  KWRSYS,,TB
 001CA0                            14702                       END
                                   14706
 001CA0 D607 602D 602D_0002D 0002D 14707                       IF    (KWRORV,NZ),BEGIN
 001CAA 4110 7270/4100_      01EE0 14723  1                      TSEG  'Orvyl='
 001CBC 4110 602D/4100_      0002D 14741  1                      TSEG  KWRORV,,TB
 001CCE                            14769                       END
                                   14773                       ¿þþþþþþþþþþþþþþÜ
                                   14774                       Ÿ  New style.  Ÿ
                                   14775                       ¾þþþþþþþþþþþþþþ»
 001CCE D64F 6152 6152_00152 00152 14776                       IF    (KWRCMD,NZ),BEGIN
 001CD8 4110 72B2/4100_      01F22 14792  1                      TSEG  'Command="'
 001CEA 4110 6152/4100_      00152 14810  1                      TSEG  KWRCMD,,T
 001CFC 4110 7276/4100_      01EE6 14838  1                      TSEG  '" '
 001D0E                            14856                       END
                                   14860                       ¿þþþþþþþþþþþþþþÜ
                                   14861                       Ÿ  Old style.  Ÿ
                                   14862                       ¾þþþþþþþþþþþþþþ»
 001D0E 70A2/47F0 718E 01D0E 01CD6 14863                       ELSE  BEGIN
 001D12 4110 72BB/4100_      01F2B 14874  1                      SETMSG 'NONEWS '
 001D1A 9120 6049/47E0_00049       14878  1                      IF    KWRTFL.KWRTFAN,'LA R1,@R1+2; SH R0,=H"2"'
 001D2A 41F0 B050/58E0_      00050 14901  1                      TSEG  (R1),(R0)
                                   14925  1
 001D34 4110 72C2/4100_      01F32 14926  1                      SETMSG 'NOMAIL '
 001D3C 9110 6049/47E0_00049       14930  1                      IF    KWRTFL.KWRTFAM,'LA R1,@R1+2; SH R0,=H"2"'
 001D4C 41F0 B050/58E0_      00050 14953  1                      TSEG  (R1),(R0)
                                   14977  1
 001D56 4110 72C9/4100_      01F39 14978  1                      SETMSG 'NORECOVERY '
 001D5E 9108 6049/47E0_00049       14982  1                      IF    KWRTFL.KWRTFAR,'LA R1,@R1+2; SH R0,=H"2"'
 001D6E 41F0 B050/58E0_      00050 15005  1                      TSEG  (R1),(R0)
                                   15029  1
 001D78 4110 72D4/4100_      01F44 15030  1                      SETMSG 'NOEXEC '
 001D80 9104 6049/47E0_00049       15034  1                      IF    KWRTFL.KWRTFAE,'LA R1,@R1+2; SH R0,=H"2"'
 001D90 9180 6064/47E0_00064       15057  1                      IF    KWRTFL2.KWRTFAPE,'SETMSG "PUBEXEC "'
 001DA0 9110 6064/47E0_00064       15082  1                      IF    KWRTFL2.KWRTFANE,'SETMSG "NEWEXEC "'
 001DB0 41F0 B050/58E0_      00050 15107  1                      TSEG  (R1),(R0)
                                   15131  1
1ACMD     (ACMD4072) (12:39) (15MAR04) SET/SHOW AUTO Commands                                                               Page   32
0Current Usings:  (KWR,R6) (*,R7) (CP,R11) (CV,R12)
0Loc    Object Code    Addr1 Addr2  Stmt Lv Lineno    Source Statement           (Hibal 5, Asmedit 3.3)  HLASM R4.0  2004/03/15 12.39
+___    ______ ____    _____ _____  ____ __ ______    ______ _________
0                                  15132  1                      AIF   (NOT &SETLTIM).LTIME3A
 001DBA 4110 7218/4100_      01E88 15133  1                      SETMSG 'NOLTIME '
 001DC2 9102 6049/47E0_00049       15137  1                      IF    KWRTFL.KWRTFAL,'LA R1,@R1+2; SH R0,=H"2"'
 001DD2 41F0 B050/58E0_      00050 15160  1                      TSEG  (R1),(R0)
                                   15184  1           .LTIME3A   ANOP
                                   15185  1
 001DDC 4110 7220/4100_      01E90 15186  1                      SETMSG 'NOPTIME '
 001DE4 9101 6049/47E0_00049       15190  1                      IF    KWRTFL.KWRTFAK,'LA R1,@R1+2; SH R0,=H"2"'
 001DF4 41F0 B050/58E0_      00050 15213  1                      TSEG  (R1),(R0)
 001DFE                            15237                       END
                                   15241
 001DFE 4110 72DB/4100_      01F4B 15242                       SETMSG 'NOMULTIPLE '
 001E06 9180 6057/47E0_00057       15246                       IF    KWROFL.KWRFMULT,'SETMSG "MULTIPLE "'
 001E16 9108 6057/47E0_00057       15271                       IF    KWROFL.KWRFMNPR,'SETMSG "XMULTIPLE "'
 001E26 41F0 B050/58E0_      00050 15296                       TSEG  (R1),(R0)
                                   15320
 001E30 4110 72EF/4100_      01F5F 15321                       SETMSG 'STATISTICS '
 001E38 9180 6048/47E0_00048       15325                       IF    KWRTACF.KWRTNST,'SETMSG "NOSTATISTICS "'
 001E48 41F0 B050/58E0_      00050 15350                       TSEG  (R1),(R0)
                                   15374
 001E52 4110 7284/4100_      01EF4 15375                       TSEG  '- AUTO Options',,WR
 001E64 4770 C7DA            007DA 15393                       BNZ   CVABORT
 001E68 18D8/9808 D004_            15394                       PEND
 DROP   *,R7
 DROP   KWR,R6                     15414                       DROP  KWR
                                   15422
                                   15423                       QLTORG
1ACMD     (ACMD4072) (12:39) (15MAR04) SET/SHOW MSTATUS Commands                                                            Page   33
0Current Usings:  (CP,R11) (CV,R12)
0Loc    Object Code    Addr1 Addr2  Stmt Lv Lineno    Source Statement           (Hibal 5, Asmedit 3.3)  HLASM R4.0  2004/03/15 12.39
+___    ______ ____    _____ _____  ____ __ ______    ______ _________
0                                  15475              ¿þþþþþþþþþþþþþþþþþþþþþþþþþþþþþþþþþþþþþþþþþþþþþþþþþþþþþþþþþþþþþþþþþþþþþÜ
                                   15476              Ÿ                                                                     Ÿ
                                   15477              Ÿ  SETMSTAT -- SET MSTATUS command.                                   Ÿ
                                   15478              Ÿ                                                                     Ÿ
                                                      ¾þþþþþþþþþþþþþþþþþþþþþþþþþþþþþþþþþþþþþþþþþþþþþþþþþþþþþþþþþþþþþþþþþþþþþ»
0001F78 50E0 D000/9008_      00000 15479              SETMST   XPROC WA
 USING  *,R7
 USING  WA-(4+36),R8
                                   15530
 001F92 D7FF 8028 8028_00000 00000 15531                       CLEAR WA
 001FA4 4150 8028            00000 15540                       LA    R5,WA
 USING  WA,R5                      15541                       USING WA,R5
                                   15550
 001FA8 D204 BC48 B3B4 00C48 003B4 15551                       MVC   CPCACCT,CPSACCT
 001FAE 4800 7F82            02F14 15552                       LH    R0,=H'-1'
 001FB2 58E0 7EFE/0DEE       02E90 15553                       ACALL GETAENT
                                   15557
 001FB8 58E0 B08C/D2AF_      0008C 15558                       SCSAVE AREA=WASCSAVE
                                   15567
 001FC4                            15568                       LOOP  BEGIN
 001FC4 58E0 B08C/D2AF_      0008C 15574  1                      SCRSTR AREA=WASCSAVE
 001FD0 5810 B08C/1B00_      0008C 15583  1                      SCAN  MSTATPRT
 002022 58E0 7F0A/0DEE       02E9C 15615  1                      SCANCHK
 002028 9180 51F8/4710_001F8       15620  1                      IF    ~WAFOP,'ERROR "Missing SET MSTATUS options."'
 00203C 58E0 7F2A/0DEE       02EBC 15647  1                      ACALL PUTKWR
 002042 4770 7032            01FC4 15651                       UNTIL Z,END               Loop until re-write is ok
                                   15670
 002046 D7FF 5000 5000_00000 00000 15671                       CLEAR KWR
                                   15679
 002052 47F0 C7DE            007DE 15680                       B     CVNEXT
                                   15681
 002056 18D8/9808 D004_            15682                       PEND
 DROP   WA-(4+36),R8
 DROP   *,R7
                                   15707              **
                                   15708              **  SET MSTATUS Options
                                   15709              **
 002064 D4C1C9D340404040_          15710              MSTATPRT SCKW  MAIL,UMAIL,A
 00208C D5D6D4C1C9D34040_          15725                       SCKW  NOMAIL,UNOMAIL,A
 0020B4 D2C5D7E340404040_          15740                       SCKW  KEPT,UKEPT,A
 0020DC D5D6D2C5D7E34040_          15755                       SCKW  NOKEPT,UNOKEPT,A
 002104 C4C5C6D840404040_          15770                       SCKW  DEFQ,UDEFQ,A
 00212C D5D6C4C5C6D84040_          15785                       SCKW  NODEFQ,UNODEFQ,A
 002154 4040404040404040_          15800                       SCKW  ,V(COLLPSH),PUSH
 00217C 4040404040404040_          15815                       SCKW  ,V(QUIETPSH),PUSH
 0021A4 4040404040404040_          15830                       SCKW  ,V(NOTVALID)
                                   15845
 0021CC 50E0 D000/9008_      00000 15846              UMAIL    PROC
 USING  *,R7
 0021E6 9680 51F8      001F8       15885                       SET   WAFOP
 0021EA 9640 5036      00036       15891                       SET   KWRSFL.KWRSFMAI
 0021EE 18D8/9808 D004_            15898                       PEND
 DROP   *,R7
1ACMD     (ACMD4072) (12:39) (15MAR04) SET/SHOW MSTATUS Commands                                                            Page   34
0Current Usings:  (WA,R5) (CP,R11) (CV,R12)
0Loc    Object Code    Addr1 Addr2  Stmt Lv Lineno    Source Statement           (Hibal 5, Asmedit 3.3)  HLASM R4.0  2004/03/15 12.39
+___    ______ ____    _____ _____  ____ __ ______    ______ _________
0                                  15918
 0021FC 50E0 D000/9008_      00000 15919              UNOMAIL  PROC
 USING  *,R7
 002216 9680 51F8      001F8       15958                       SET   WAFOP
 00221A 94BF 5036      00036       15964                       CLEAR KWRSFL.KWRSFMAI
 00221E 18D8/9808 D004_            15972                       PEND
 DROP   *,R7
                                   15992
 00222C 50E0 D000/9008_      00000 15993              UKEPT    PROC
 USING  *,R7
 002246 9680 51F8      001F8       16032                       SET   WAFOP
 00224A 9680 5036      00036       16038                       SET   KWRSFL.KWRSFKEP
 00224E 18D8/9808 D004_            16045                       PEND
 DROP   *,R7
                                   16065
 00225C 50E0 D000/9008_      00000 16066              UNOKEPT  PROC
 USING  *,R7
 002276 9680 51F8      001F8       16105                       SET   WAFOP
 00227A 947F 5036      00036       16111                       CLEAR KWRSFL.KWRSFKEP
 00227E 18D8/9808 D004_            16119                       PEND
 DROP   *,R7
                                   16139
 00228C 50E0 D000/9008_      00000 16140              UDEFQ    PROC
 USING  *,R7
 0022A6 9680 51F8      001F8       16179                       SET   WAFOP
 0022AA 9620 5036      00036       16185                       SET   KWRSFL.KWRSFMLQ
 0022AE 18D8/9808 D004_            16192                       PEND
 DROP   *,R7
                                   16212
 0022BC 50E0 D000/9008_      00000 16213              UNODEFQ  PROC
 USING  *,R7
 0022D6 9680 51F8      001F8       16252                       SET   WAFOP
 0022DA 94DF 5036      00036       16258                       CLEAR KWRSFL.KWRSFMLQ
 0022DE 18D8/9808 D004_            16266                       PEND
 DROP   *,R7
                                   16286
 DROP   WA,R5                      16287                       DROP  WA
1ACMD     (ACMD4072) (12:39) (15MAR04) SET/SHOW MSTATUS Commands                                                            Page   35
0Current Usings:  (CP,R11) (CV,R12)
0Loc    Object Code    Addr1 Addr2  Stmt Lv Lineno    Source Statement           (Hibal 5, Asmedit 3.3)  HLASM R4.0  2004/03/15 12.39
+___    ______ ____    _____ _____  ____ __ ______    ______ _________
0                                  16296              ¿þþþþþþþþþþþþþþþþþþþþþþþþþþþþþþþþþþþþþþþþþþþþþþþþþþþþþþþþþþþþþþþþþþþþþÜ
                                   16297              Ÿ                                                                     Ÿ
                                   16298              Ÿ  SHOWMST -- SHOW MSTATUS command.                                   Ÿ
                                   16299              Ÿ                                                                     Ÿ
                                                      ¾þþþþþþþþþþþþþþþþþþþþþþþþþþþþþþþþþþþþþþþþþþþþþþþþþþþþþþþþþþþþþþþþþþþþþ»
00022EC 50E0 D000/9008_      00000 16300              SHOWMST  XPROC WA
 USING  *,R7
 USING  WA-(4+36),R8
                                   16351
 002306 D7FF 8028 8028_00000 00000 16352                       CLEAR WA
 002318 4150 8028            00000 16361                       LA    R5,WA
 USING  WA,R5                      16362                       USING WA,R5
                                   16371
 00231C D204 BC48 B3B4 00C48 003B4 16372                       MVC   CPCACCT,CPSACCT
 002322 4100 0001            00001 16373                       LA    R0,1
 002326 58E0 7B8A/0DEE       02E90 16374                       ACALL GETAENT
                                   16378
 00232C 58E0 7BBA/0DEE       02EC0 16379                       VCALL COLLOPTS            Allow standard options
 002332 4110 7C20/4100_      02F26 16383                       TSEG  'Mailbox status for '
 002344 4110 5003/4100_      00003 16401                       TSEG  KWRGRP
 002356 4110 7C33/4100_      02F39 16429                       TSEG  '.'
 002368 4110 5000/4100_      00000 16447                       TSEG  KWRUSER,,B
                                   16475
 00237A D613 5078 5078_00078 00078 16476                       IF    (KWRNAME,NZ),BEGIN
 002384 4110 7C34/4100_      02F3A 16492  1                      TSEG  '"'
 002396 4110 5078/4100_      00078 16510  1                      TSEG  KWRNAME,,T
 0023A8 4110 7C34/4100_      02F3A 16538  1                      TSEG  '"'
 0023BA                            16556                       END
 0023BA 4110 7C35/4100_      02F3B 16560                       TSEG  ':',,CR
                                   16578
 0023CC 4110 7C36/4100_      02F3C 16579                       SETMSG '  No mail message is set.'
 0023D4 D64F 5102 5102_00102 00102 16583                       IF    (KWRMTXT,NZ),BEGIN
 0023DE 4110 7B0A/4100_      02E10 16599  1                      TSEG  '  Mail message: '
 0023F0 4110 5102/4100_      00102 16617  1                      SETMSG KWRMTXT
 0023F8                            16631                       END
 0023F8 41F0 B050/58E0_      00050 16635                       TSEG  (R1),(R0),T
 002402 1B00/41F0 B050_            16659                       TCR
                                   16684
 00240E 4110 7C4F/4100_      02F55 16685                       SETMSG '  Account can NOT receive new mail.'
 002416 9140 5057/47E0_00057       16689                       IF    KWROFL.KWRFMAIL,BEGIN
 00241E 4110 7C72/4100_      02F78 16705  1                      SETMSG '  Account can receive new mail.'
 002426 D63F 50C2 50C2_000C2 000C2 16709  1                      IF    (KWRMFOR,NZ),BEGIN
 002430 4110 7C91/4100_      02F97 16725  2                        TSEG  '  New mail is being forwarded to '
 002442 4110 50C2/4100_      000C2 16743  2                        SETMSG KWRMFOR
 00244A                            16757  1                      END
 00244A                            16761                       END
 00244A 41F0 B050/58E0_      00050 16765                       TSEG  (R1),(R0),CR
                                   16789
 002454 4110 7CB2/4100_      02FB8 16790                       TSEG  '  SHOW MAIL options: '
 002466 9108 5064/47E0_00064       16808                       IF    KWRTFL2.KWRTFMNOATTN,'TSEG "NO"'
 002480 4110 7CC7/4100_      02FCD 16847                       TSEG  'ATTN '
 002492 1B00/41F0 B050_            16865                       TCR
                                   16890
1ACMD     (ACMD4072) (12:39) (15MAR04) SET/SHOW MSTATUS Commands                                                            Page   36
0Current Usings:  (WA,R5) (*,R7) (WA-(4+36),R8) (CP,R11) (CV,R12)
0Loc    Object Code    Addr1 Addr2  Stmt Lv Lineno    Source Statement           (Hibal 5, Asmedit 3.3)  HLASM R4.0  2004/03/15 12.39
+___    ______ ____    _____ _____  ____ __ ______    ______ _________
000249E 4110 7B1A/4100_      02E20 16891                       TSEG  '  Status flags: '
 0024B0 9140 5036/4710_00036       16909                       IF    ~KWRSFL.KWRSFMAI,'TSEG "NO"'
 0024CA 4110 7CCC/4100_      02FD2 16948                       TSEG  'MAIL '
 0024DC 9180 5036/4710_00036       16966                       IF    ~KWRSFL.KWRSFKEP,'TSEG "NO"'
 0024F6 4110 7CD1/4100_      02FD7 17005                       TSEG  'KEPT '
 002508 9120 5036/4710_00036       17023                       IF    ~KWRSFL.KWRSFMLQ,'TSEG "NO"'
 002522 4110 7CD6/4100_      02FDC 17062                       TSEG  'DEFQ '
                                   17080
 002534 D7FF 5000 5000_00000 00000 17081                       CLEAR KWR
 002540 47F0 C7DE            007DE 17089                       B     CVNEXT
                                   17090
 002544 18D8/9808 D004_            17091                       PEND
 DROP   WA-(4+36),R8
 DROP   *,R7
 DROP   WA,R5                      17116                       DROP  WA
1ACMD     (ACMD4072) (12:39) (15MAR04) SET/SHOW NOTIME Commands                                                             Page   37
0Current Usings:  (CP,R11) (CV,R12)
0Loc    Object Code    Addr1 Addr2  Stmt Lv Lineno    Source Statement           (Hibal 5, Asmedit 3.3)  HLASM R4.0  2004/03/15 12.39
+___    ______ ____    _____ _____  ____ __ ______    ______ _________
0                                  17125              ¿þþþþþþþþþþþþþþþþþþþþþþþþþþþþþþþþþþþþþþþþþþþþþþþþþþþþþþþþþþþþþþþþþþþþþÜ
                                   17126              Ÿ                                                                     Ÿ
                                   17127              Ÿ  SETNOTIM -- SET NOTIME command.                                    Ÿ
                                   17128              Ÿ                                                                     Ÿ
                                                      ¾þþþþþþþþþþþþþþþþþþþþþþþþþþþþþþþþþþþþþþþþþþþþþþþþþþþþþþþþþþþþþþþþþþþþþ»
0002552 50E0 D000/9008_      00000 17129              SETNOTM  XPROC WA
 USING  *,R7
 USING  WA-(4+36),R8
                                   17180
 00256C D7FF 8028 8028_00000 00000 17181                       CLEAR WA
 00257E 4150 8028            00000 17190                       LA    R5,WA
 USING  WA,R5                      17191                       USING WA,R5
                                   17200
 002582 D204 BC48 B3B4 00C48 003B4 17201                       MVC   CPCACCT,CPSACCT
 002588 4800 79A8            02F14 17202                       LH    R0,=H'-1'
 00258C 58E0 7924/0DEE       02E90 17203                       ACALL GETAENT
                                   17207
 002592 58E0 B08C/D2AF_      0008C 17208                       SCSAVE AREA=WASCSAVE
                                   17217
 00259E                            17218                       LOOP  BEGIN
 00259E 58E0 B08C/D2AF_      0008C 17224  1                      SCRSTR AREA=WASCSAVE
 0025AA 5810 B08C/1B00_      0008C 17233  1                      SCAN  NOTMPRT             SET NOTIME options
 0025FC 58E0 7930/0DEE       02E9C 17265  1                      SCANCHK
 002602 9110 51F8/4710_001F8       17270  1                      IF    WAFTEMP,EXIT        Only set session options, scram
 00260A 58E0 7950/0DEE       02EBC 17288  1                      ACALL PUTKWR
 002610 4780 70AC            02618 17292  1                      UNTIL Z                   Loop until re-write is ok
 002614 47F0 7032            0259E 17307                       END
                                   17312                       ¿þþþþþþþþþþþþþþþþþþþþþþþþþþþþþþþþþþþþþþþþþþþþÜ
                                   17313                       Ÿ  Update current session notime limit too.  Ÿ
                                   17314                       ¾þþþþþþþþþþþþþþþþþþþþþþþþþþþþþþþþþþþþþþþþþþþþ»
 002618 D504 BC48 B3B4_00C48 003B4 17315                       IF    (CPCACCT,EQ,CPSACCT),BEGIN  Update session...
 002622 4120 0064            00064 17333  1                      LA    R2,100
 002626                            17334  1                      LOOP  BEGIN
 002626 9610 B3EE      003EE       17340  2                        SET   CPSFNTIM            Compatibility style NOTIME
 00262A D201 B42E 504A 0042E 0004A 17346  2                        MVC   CPSIDMAX,KWRNTDEF   Set new default notime value
 002630 58E0 796C/0DEE       02ED8 17347  2                        VCALL UPDCPSIB            Update MILTEN SIB
 002636 4780 70DA            02646 17351  2                        IF    Z,EXIT
 00263A 0620                       17365  2                        DECR  R2
 00263C 1222/4780 70DA             17367  2                        UNTIL (R2,Z)
 002642 47F0 70BA            02626 17385  1                      END
 002646                            17390                       END
                                   17394
 002646 D7FF 5000 5000_00000 00000 17395                       CLEAR KWR                 (Neatness)
 002652 47F0 C7DE            007DE 17403                       B     CVNEXT
                                   17404
 002656 18D8/9808 D004_            17405                       PEND
 DROP   WA-(4+36),R8
 DROP   *,R7
1ACMD     (ACMD4072) (12:39) (15MAR04) SET/SHOW NOTIME Commands                                                             Page   38
0Current Usings:  (WA,R5) (CP,R11) (CV,R12)
0Loc    Object Code    Addr1 Addr2  Stmt Lv Lineno    Source Statement           (Hibal 5, Asmedit 3.3)  HLASM R4.0  2004/03/15 12.39
+___    ______ ____    _____ _____  ____ __ ______    ______ _________
0                                  17430                       ¿þþþþþþþþþþþþþþþþþþþþþþþÜ
                                   17431                       Ÿ  SET NOTIME Options.  Ÿ
                                   17432                       ¾þþþþþþþþþþþþþþþþþþþþþþþ»
 002664 E3C5D4D7D6D9C1D9_          17433              NOTMPRT  SCKW  TEMPORARY,NTTEMP,A
 00268C D6D3C44040404040_          17448                       SCKW  OLD,NTOLD
 0026B4 4040404040404040_          17463                       SCKW  ,NTNUM,I
 0026DC 4040404040404040_          17478                       SCKW  ,V(COLLPSH),PUSH
 002704 4040404040404040_          17493                       SCKW  ,V(QUIETPSH),PUSH
 00272C 4040404040404040_          17508                       SCKW  ,V(NOTVALID)
                                   17523              þþþþ
 002754 50E0 D000/9008_      00000 17524              NTOLD    PROC
 USING  *,R7
 00276E 9680 51F8      001F8       17563                       SET   WAFOP
 002772 D201 504A 77A6 0004A 02F14 17569                       MVC   KWRNTDEF,=H'-1'     Set old style NOTIME
 002778 18D8/9808 D004_            17570                       PEND
 DROP   *,R7
                                   17590
 002786 50E0 D000/9008_      00000 17591              NTNUM    PROC
 USING  *,R7
 0027A0 9680 51F8      001F8       17630                       SET   WAFOP
 0027A4 D601 504C 504C_0004C 0004C 17636                       IF  ((KWRNTMAX,NZ),AND,(R0,GT,KWRNTMAX)),'LH R0,KWRNTMAX'
 0027BA 1200/4770 7024_            17674                       IF    (R0,Z),'LH R0,KWRNTMAX'  Use maximum allowed
 0027C4 4000 504A            0004A 17694                       STH   R0,KWRNTDEF        Set default notime number
 0027C8 1BFF                       17695                       CLEAR R15
 0027CA 18D8/9808 D004_            17699                       PEND
 DROP   *,R7
                                   17719
 0027D8 50E0 D000/9008_      00000 17720              NTTEMP   PROC
 USING  *,R7
 0027F2 9680 51F8/9610_001F8       17759                       SET   WAFOP,WAFTEMP       TEMP option
 0027FA 18D8/9808 D004_            17769                       PEND
 DROP   *,R7
                                   17789
 DROP   WA,R5                      17790                       DROP  WA
1ACMD     (ACMD4072) (12:39) (15MAR04) SET/SHOW NOTIME Commands                                                             Page   39
0Current Usings:  (CP,R11) (CV,R12)
0Loc    Object Code    Addr1 Addr2  Stmt Lv Lineno    Source Statement           (Hibal 5, Asmedit 3.3)  HLASM R4.0  2004/03/15 12.39
+___    ______ ____    _____ _____  ____ __ ______    ______ _________
0                                  17799              ¿þþþþþþþþþþþþþþþþþþþþþþþþþþþþþþþþþþþþþþþþþþþþþþþþþþþþþþþþþþþþþþþþþþþþþÜ
                                   17800              Ÿ                                                                     Ÿ
                                   17801              Ÿ  SHOWNOTM -- SHOW NOTIME command.                                   Ÿ
                                   17802              Ÿ                                                                     Ÿ
                                                      ¾þþþþþþþþþþþþþþþþþþþþþþþþþþþþþþþþþþþþþþþþþþþþþþþþþþþþþþþþþþþþþþþþþþþþþ»
0002808 50E0 D000/9008_      00000 17803              SHOWNOTM XPROC WA
 USING  *,R7
 USING  WA-(4+36),R8
                                   17854
 002822 D7FF 8028 8028_00000 00000 17855                       CLEAR WA
 002834 4150 8028            00000 17864                       LA    R5,WA
 USING  WA,R5                      17865                       USING WA,R5
                                   17874
 002838 D204 BC48 B3B4 00C48 003B4 17875                       MVC   CPCACCT,CPSACCT
 00283E 4800 76F2            02F14 17876                       LH    R0,=H'-1'
 002842 58E0 766E/0DEE       02E90 17877                       ACALL GETAENT
                                   17881
 002848 58E0 769E/0DEE       02EC0 17882                       VCALL COLLOPTS            Allow standard options
 00284E 58E0 76BA/0DEE       02EDC 17886                       ACALL SEGACCT
                                   17890
 002854 4830 B42E            0042E 17891                       LH    R3,CPSIDMAX         Current session value
 002858 D504 BC48 B3B4_00C48 003B4 17892                       IF    (CPCACCT,NE,CPSACCT),'LH R3,KWRNTDEF'
                                   17916
 002866 1233/4770 706E             17917                       IF    (R3,Z),BEGIN        No timeouts at all...
 00286C 4110 77BF/4100_      02FE1 17931  1                      TSEG  'This session can be idle forever '
 00287E 4110 77E0/4100_      03002 17949  1                      TSEG  'without being logged off.'
 002890                            17967                       END
                                   17971
 002890 7072/47F0 708C_02890 0286A 17972                       ELSEIF (R3,EQ,-1),BEGIN   Old style...
 00289C 4110 760E/4100_      02E30 17997  1                      TSEG  'Old style NOTIME in effect (compatibility mode).'
 0028AE                            18015                       END
                                   18019
 0028AE 7090/47F0 70C2 028AE 0289A 18020                       ELSE  BEGIN               Timeouts...
 0028B2 4110 77F9/4100_      0301B 18031  1                      TSEG  'This session can be idle for '
 0028C4 1813/1B00/41F0_            18049  1                      TNUM  (R3)
 0028D2 4110 763E/4100_      02E60 18071  1                      TSEG  ' minutes before being logged off'
 0028E4                            18089                       END
                                   18093
 0028E4 D601 504C 504C_0004C 0004C 18094                       IF    (KWRNTMAX,NZ),BEGIN  Display limit...
 0028EE 4110 76F8/4100_      02F1A 18110  1                      TSEG  ' (max='
 002900 4810 504C/1B00_      0004C 18128  1                      TNUM  LH:KWRNTMAX
 002910 4110 7816/4100_      03038 18149  1                      TSEG  ')'
 002922 4110 7717/4100_      02F39 18167  1                      TSEG  '.'
 002934                            18185                       END
                                   18189
 002934 D7FF 5000 5000_00000 00000 18190                       CLEAR KWR
 002940 47F0 C7DE            007DE 18198                       B     CVNEXT
                                   18199
 002944 18D8/9808 D004_            18200                       PEND
 DROP   WA-(4+36),R8
 DROP   *,R7
 DROP   WA,R5                      18225                       DROP  WA
1ACMD     (ACMD4072) (12:39) (15MAR04) SET/SHOW OUTPUT Commands                                                             Page   40
0Current Usings:  (CP,R11) (CV,R12)
0Loc    Object Code    Addr1 Addr2  Stmt Lv Lineno    Source Statement           (Hibal 5, Asmedit 3.3)  HLASM R4.0  2004/03/15 12.39
+___    ______ ____    _____ _____  ____ __ ______    ______ _________
0                                  18234              ¿þþþþþþþþþþþþþþþþþþþþþþþþþþþþþþþþþþþþþþþþþþþþþþþþþþþþþþþþþþþþþþþþþþþþþÜ
                                   18235              Ÿ                                                                     Ÿ
                                   18236              Ÿ  SETOUT -- SET OUTPUT command.                                      Ÿ
                                   18237              Ÿ                                                                     Ÿ
                                                      ¾þþþþþþþþþþþþþþþþþþþþþþþþþþþþþþþþþþþþþþþþþþþþþþþþþþþþþþþþþþþþþþþþþþþþþ»
0002952 50E0 D000/9008_      00000 18238              SETOUT   XPROC WA
 USING  *,R7
 USING  WA-(4+36),R8
                                   18289
 00296C D7FF 8028 8028_00000 00000 18290                       CLEAR WA
 00297E 4150 8028            00000 18299                       LA    R5,WA
 USING  WA,R5                      18300                       USING WA,R5
                                   18309
 002982 D204 BC48 B3B4 00C48 003B4 18310                       MVC   CPCACCT,CPSACCT
 002988 4800 75A8            02F14 18311                       LH    R0,=H'-1'
 00298C 58E0 7524/0DEE       02E90 18312                       ACALL GETAENT
                                   18316
 002992 58E0 B08C/D2AF_      0008C 18317                       SCSAVE AREA=WASCSAVE
                                   18326
 00299E                            18327                       LOOP  BEGIN
 00299E 58E0 B08C/D2AF_      0008C 18333  1                      SCRSTR AREA=WASCSAVE
 0029AA 5810 B08C/1B00_      0008C 18342  1                      SCAN  OUTPRT
 0029FC 58E0 7530/0DEE       02E9C 18374  1                      SCANCHK
 002A02 9180 51F8/4710_001F8       18379  1                      IF    ~WAFOP,'ERROR "Missing SET OUTPUT options."'
 002A16 58E0 7550/0DEE       02EBC 18406  1                      ACALL PUTKWR
 002A1C 4770 7032            0299E 18410                       UNTIL Z,END               Loop until re-write is ok
                                   18429
 002A20 4100 0030            00030 18430                       LA    R0,SMFWOUT+SMFWAUTH
 002A24 58E0 7580/0DEE       02EEC 18431                       VCALL LOGKWR              Write smf log record
 002A2A 58E0 7570/0DEE       02EDC 18435                       ACALL SEGACCT
 002A30 4110 5000            00000 18439                       LA    R1,KWR
 002A34 58E0 7584/0DEE       02EF0 18440                       ACALL OUTDISP
 002A3A D7FF 5000 5000_00000 00000 18444                       CLEAR KWR
 002A46 47F0 C7DE            007DE 18452                       B     CVNEXT
                                   18453
 002A4A 18D8/9808 D004_            18454                       PEND
 DROP   WA-(4+36),R8
 DROP   *,R7
                                   18479                       ¿þþþþþþþþþþþþþþþþþþþþþþþÜ
                                   18480                       Ÿ  SET OUTPUT Options.  Ÿ
                                   18481                       ¾þþþþþþþþþþþþþþþþþþþþþþþ»
 002A58 C4C5E2E3C9D5C1E3_          18482              OUTPRT   SCKW  DESTINATION,KDEST,(A,P)
 002A80 C6D6D9D4E2404040_          18497                       SCKW  FORMS,KFORMS,(A,P)
 002AA8 D7D9E3C6D6D9D4E2_          18512                       SCKW  PRTFORMS,KPFORMS,(A,P)
 002AD0 D5D6D7D9E3C6D6D9_          18527                       SCKW  NOPRTFORMS,KPNOFORM,A
 002AF8 C2C9D54040404040_          18542                       SCKW  BIN,KBIN,(A,P)
 002B20 C8D6D3C440404040_          18557                       SCKW  HOLD,KHOLD,A
 002B48 D5D6C8D6D3C44040_          18572                       SCKW  NOHOLD,KNOHOLD,A
 002B70 4040404040404040_          18587                       SCKW  ,V(COLLPSH),PUSH
 002B98 4040404040404040_          18602                       SCKW  ,V(QUIETPSH),PUSH
 002BC0 4040404040404040_          18617                       SCKW  ,V(NOTVALID)
                                   18632
 002BE8 50E0 D000/9008_      00000 18633              KHOLD    PROC
1ACMD     (ACMD4072) (12:39) (15MAR04) SET/SHOW OUTPUT Commands                                                             Page   41
0Current Usings:  (WA,R5) (*,R7) (CP,R11) (CV,R12)
0Loc    Object Code    Addr1 Addr2  Stmt Lv Lineno    Source Statement           (Hibal 5, Asmedit 3.3)  HLASM R4.0  2004/03/15 12.39
+___    ______ ____    _____ _____  ____ __ ______    ______ _________
0USING  *,R7
 002C02 9680 51F8/9610_001F8       18672                       SET   WAFOP,KWRJFL.KWRJFHOL
 002C0A 18D8/9808 D004_            18683                       PEND
 DROP   *,R7
                                   18703
 002C18 50E0 D000/9008_      00000 18704              KNOHOLD  PROC
 USING  *,R7
 002C32 9680 51F8/94EF_001F8       18743                       SET   WAFOP,(KWRJFL.KWRJFHOL,OFF)
 002C3A 18D8/9808 D004_            18755                       PEND
 DROP   *,R7
 DROP   WA,R5                      18775                       DROP  WA
1ACMD     (ACMD4072) (12:39) (15MAR04) SET/SHOW OUTPUT Commands                                                             Page   42
0Current Usings:  (CP,R11) (CV,R12)
0Loc    Object Code    Addr1 Addr2  Stmt Lv Lineno    Source Statement           (Hibal 5, Asmedit 3.3)  HLASM R4.0  2004/03/15 12.39
+___    ______ ____    _____ _____  ____ __ ______    ______ _________
0                                  18784              ¿þþþþþþþþþþþþþþþþþþþþþþþþþþþþþþþþþþþþþþþþþþþþþþþþþþþþþþþþþþþþþþþþþþþþþÜ
                                   18785              Ÿ                                                                     Ÿ
                                   18786              Ÿ  SHOWOUT -- SHOW OUTPUT command.                                    Ÿ
                                   18787              Ÿ                                                                     Ÿ
                                                      ¾þþþþþþþþþþþþþþþþþþþþþþþþþþþþþþþþþþþþþþþþþþþþþþþþþþþþþþþþþþþþþþþþþþþþþ»
0002C48 50E0 D000/9008_      00000 18788              SHOWOUT  XPROC WA
 USING  *,R7
 USING  WA-(4+36),R8
                                   18839
 002C62 D7FF 8028 8028_00000 00000 18840                       CLEAR WA
 002C74 4150 8028            00000 18849                       LA    R5,WA
 USING  WA,R5                      18850                       USING WA,R5
                                   18859
 002C78 D204 BC48 B3B4 00C48 003B4 18860                       MVC   CPCACCT,CPSACCT
 002C7E 4100 0001            00001 18861                       LA    R0,1
 002C82 9501 B38C/4770_0038C       18862                       IF    CPSTCONS,'LA R0,1'  No password prompt for console
 002C8E 58E0 722E/0DEE       02E90 18883                       ACALL GETAENT
                                   18887
 002C94 58E0 725E/0DEE       02EC0 18888                       VCALL COLLOPTS            Allow standard options
 002C9A 58E0 727A/0DEE       02EDC 18892                       ACALL SEGACCT
 002CA0 4110 5000            00000 18896                       LA    R1,KWR
 002CA4 58E0 728E/0DEE       02EF0 18897                       ACALL OUTDISP
 002CAA D7FF 5000 5000_00000 00000 18901                       CLEAR KWR
 002CB6 47F0 C7DE            007DE 18909                       B     CVNEXT
                                   18910
 002CBA 18D8/9808 D004_            18911                       PEND
 DROP   WA-(4+36),R8
 DROP   *,R7
 DROP   WA,R5                      18936                       DROP  WA
1ACMD     (ACMD4072) (12:39) (15MAR04) SET/SHOW OUTPUT Commands                                                             Page   43
0Current Usings:  (CP,R11) (CV,R12)
0Loc    Object Code    Addr1 Addr2  Stmt Lv Lineno    Source Statement           (Hibal 5, Asmedit 3.3)  HLASM R4.0  2004/03/15 12.39
+___    ______ ____    _____ _____  ____ __ ______    ______ _________
0                                  18945              ¿þþþþþþþþþþþþþþþþþþþþþþþþþþþþþþþþþþþþþþþþþþþþþþþþþþþþþþþþþþþþþþþþþþþþþÜ
                                   18946              Ÿ                                                                     Ÿ
                                   18947              Ÿ  OUTDISP -- Routine to display OUTPUT Options (also called          Ÿ
                                   18948              Ÿ      by SHOW OPTIONS command).                                      Ÿ
                                   18949              Ÿ                                                                     Ÿ
                                   18950              Ÿ        On entry:                                                    Ÿ
                                   18951              Ÿ          R1 - KWR ptr                                               Ÿ
                                   18952              Ÿ                                                                     Ÿ
                                                      ¾þþþþþþþþþþþþþþþþþþþþþþþþþþþþþþþþþþþþþþþþþþþþþþþþþþþþþþþþþþþþþþþþþþþþþ»
0002CC8 50E0 D000/9008_      00000 18953              OUTDISP  XPROC
 USING  *,R7
 002CE2 1861                       18993                       LR    R6,R1               Kwr ptr
 USING  KWR,R6                     18994                       USING KWR,R6
 002CE4 4140 0001            00001 19003                       LA    R4,1
 002CE8 D607 6021 6021_00021 00021 19004                       IF    (KWRDEST,NZ),BEGIN
 002CF2 4110 7372/4100_      03054 19020  1                      TSEG  'DEST='
 002D04 4110 6021/4100_      00021 19038  1                      TSEG  KWRDEST,,TB
 002D16 1B44                       19066  1                      CLEAR R4
 002D18                            19070                       END
                                   19074
 002D18 D603 6029 6029_00029 00029 19075                       IF    (KWRFORM,NZ),BEGIN
 002D22 4110 723E/4100_      02F20 19091  1                      TSEG  'FORMS='
 002D34 4110 6029/4100_      00029 19109  1                      TSEG  KWRFORM,,TB
 002D46 1B44                       19137  1                      CLEAR R4
 002D48                            19141                       END
                                   19145
 002D48 D603 604E 604E_0004E 0004E 19146                       IF    (KWRPFORM,NZ),BEGIN
 002D52 4110 7377/4100_      03059 19162  1                      TSEG  'PRTFORMS='
 002D64 4110 604E/4100_      0004E 19180  1                      TSEG  KWRPFORM,,TB
 002D76 1B44                       19208  1                      CLEAR R4
 002D78                            19212                       END
                                   19216
 002D78 D602 6010 6010_00010 00010 19217                       IF    (KWRBIN,NZ),BEGIN
 002D82 4110 7216/4100_      02EF8 19233  1                      TSEG  'BIN='
 002D94 4110 6010/4100_      00010 19251  1                      TSEG  KWRBIN,,TB
 002DA6 1B44                       19279  1                      CLEAR R4
 002DA8                            19283                       END
                                   19287
 002DA8 1244/4780 70DE_            19288                       IF    (R4,NZ),'TSEG "(No DEST/FORMS/BIN) "'
                                   19325
 002DC0 9110 6037/4710_00037       19326                       IF    ~KWRJFL.KWRJFHOL,'TSEG "NO"'
 002DDA 4110 7380/4100_      03062 19365                       TSEG  'HOLD '
                                   19383
 002DEC 4110 719E/4100_      02E80 19384                       TSEG  '- OUTPUT Options',,WR
 002DFE 4770 C7DA            007DA 19402                       BNZ   CVABORT
 002E02 18D8/9808 D004_            19403                       PEND
 DROP   *,R7
 DROP   KWR,R6                     19423                       DROP  KWR
                                   19431
                                   19432                       QLTORG
1ACMD     (ACMD4072) (12:39) (15MAR04) SET/SHOW JOB Commands                                                                Page   44
0Current Usings:  (CP,R11) (CV,R12)
0Loc    Object Code    Addr1 Addr2  Stmt Lv Lineno    Source Statement           (Hibal 5, Asmedit 3.3)  HLASM R4.0  2004/03/15 12.39
+___    ______ ____    _____ _____  ____ __ ______    ______ _________
0                                  19499              ¿þþþþþþþþþþþþþþþþþþþþþþþþþþþþþþþþþþþþþþþþþþþþþþþþþþþþþþþþþþþþþþþþþþþþþÜ
                                   19500              Ÿ                                                                     Ÿ
                                   19501              Ÿ  SETJOB -- SET JOB command.                                         Ÿ
                                   19502              Ÿ                                                                     Ÿ
                                                      ¾þþþþþþþþþþþþþþþþþþþþþþþþþþþþþþþþþþþþþþþþþþþþþþþþþþþþþþþþþþþþþþþþþþþþþ»
0003068 50E0 D000/9008_      00000 19503              SETJOB   XPROC WA
 USING  *,R7
 USING  WA-(4+36),R8
                                   19554
 003082 D7FF 8028 8028_00000 00000 19555                       CLEAR WA
 003094 4150 8028            00000 19564                       LA    R5,WA
 USING  WA,R5                      19565                       USING WA,R5
                                   19574
 003098 D204 BC48 B3B4 00C48 003B4 19575                       MVC   CPCACCT,CPSACCT
 00309E 4800 7AF6            03B78 19576                       LH    R0,=H'-1'
 0030A2 58E0 7A96/0DEE       03B18 19577                       ACALL GETAENT
                                   19581
 0030A8 58E0 B08C/D2AF_      0008C 19582                       SCSAVE AREA=WASCSAVE
                                   19591
 0030B4                            19592                       LOOP  BEGIN
 0030B4 58E0 B08C/D2AF_      0008C 19598  1                      SCRSTR AREA=WASCSAVE
 0030C0 5810 B08C/1B00_      0008C 19607  1                      SCAN  JOBPRT
 003112 58E0 7AA2/0DEE       03B24 19639  1                      SCANCHK
 003118 9180 51F8/4710_001F8       19644  1                      IF    ~WAFOP,'ERROR "Missing SET JOB options."'
 00312C 58E0 7AA6/0DEE       03B28 19671  1                      ACALL PUTKWR
 003132 4770 7032            030B4 19675                       UNTIL Z,END               Loop until re-write is ok
                                   19694
 003136 4100 0028            00028 19695                       LA    R0,SMFWJOB+SMFWAUTH
 00313A 58E0 7AAA/0DEE       03B2C 19696                       VCALL LOGKWR              Write smf log record
 003140 58E0 7AAE/0DEE       03B30 19700                       ACALL SEGACCT
 003146 4110 5000            00000 19704                       LA    R1,KWR
 00314A 58E0 7AB2/0DEE       03B34 19705                       ACALL JOBDISP
 003150 D7FF 5000 5000_00000 00000 19709                       CLEAR KWR
 00315C 47F0 C7DE            007DE 19717                       B     CVNEXT
                                   19718
 003160 18D8/9808 D004_            19719                       PEND
 DROP   WA-(4+36),R8
 DROP   *,R7
1ACMD     (ACMD4072) (12:39) (15MAR04) SET/SHOW JOB Commands                                                                Page   45
0Current Usings:  (WA,R5) (CP,R11) (CV,R12)
0Loc    Object Code    Addr1 Addr2  Stmt Lv Lineno    Source Statement           (Hibal 5, Asmedit 3.3)  HLASM R4.0  2004/03/15 12.39
+___    ______ ____    _____ _____  ____ __ ______    ______ _________
0                                  19745              **
                                   19746              **  SET JOB Options
                                   19747              **
 003170 D5E4D4C2C5D9C5C4_          19748              JOBPRT   SCKW  NUMBERED,KNUM,A
 003198 E4D5D5E4D4C2C5D9_          19763                       SCKW  UNNUMBERED,KUNN,A
 0031C0 D5D6D5E4D4C2C5D9_          19778                       SCKW  NONUMBER,KUNN,A
 0031E8 C6D6D9C3C5404040_          19793                       SCKW  FORCE,KFORCE,A
 003210 D5D6C6D6D9C3C540_          19808                       SCKW  NOFORCE,KNOFORCE,A
 003238 D7D9C5C6C9E74040_          19823                       SCKW  PREFIX,KPREFIX,(A,P)
 003260 D5D6D7D9C5C6C9E7_          19838                       SCKW  NOPREFIX,KNOPREFX,A
 003288 C3D6E4D5E3404040_          19853                       SCKW  COUNT,KCOUNT,(A,P,I),20000
                                   19868                       AIF   (NOT &JOBAUTH).AUTH1A
 0032B0 C1E4E3C8D6D9C9E3_          19869                       SCKW  AUTHORITY,KAUTH,(A,P)
                                   19884              .AUTH1A  ANOP
 0032D8 D5D6E3C9C6E84040_          19885                       SCKW  NOTIFY,KNOT,A
 003300 D5D6D5D6E3C9C6E8_          19900                       SCKW  NONOTIFY,KNONOT,A
 003328 4040404040404040_          19915                       SCKW  ,V(COLLPSH),PUSH
 003350 4040404040404040_          19930                       SCKW  ,V(QUIETPSH),PUSH
 003378 4040404040404040_          19945                       SCKW  ,V(NOTVALID)
-                                  19961
 0033A0 50E0 D000/9008_      00000 19962              KNUM     PROC
 USING  *,R7
 0033BA 9680 51F8/9680_001F8       20001                       SET   WAFOP,KWRJFL.KWRJFNUM
 0033C2 18D8/9808 D004_            20012                       PEND
 DROP   *,R7
                                   20032
 0033D0 50E0 D000/9008_      00000 20033              KUNN     PROC
 USING  *,R7
 0033EA 9680 51F8/947F_001F8       20072                       SET   WAFOP,(KWRJFL.KWRJFNUM,OFF)
 0033F2 18D8/9808 D004_            20084                       PEND
 DROP   *,R7
                                   20104
 003400 50E0 D000/9008_      00000 20105              KFORCE   PROC
 USING  *,R7
 00341A 9680 51F8/9640_001F8       20144                       SET   WAFOP,KWRJFL.KWRJFFOR
 003422 18D8/9808 D004_            20155                       PEND
 DROP   *,R7
                                   20175
 003430 50E0 D000/9008_      00000 20176              KNOFORCE PROC
 USING  *,R7
 00344A 9680 51F8/94BF_001F8       20215                       SET   WAFOP,(KWRJFL.KWRJFFOR,OFF)
 003452 18D8/9808 D004_            20227                       PEND
 DROP   *,R7
                                   20247
 003460 50E0 D000/9008_      00000 20248              KPREFIX  PROC  ,
 USING  *,R7
 00347A 9680 51F8      001F8       20287                       SET   WAFOP
 00347E 58F0 B08C/41FF_      0008C 20293                       SCUPTOK R15
 003486 D207 5038 F000 00038 00000 20297                       MVC   KWRJPFX,@R15
 00348C D707 5038 7686 00038 03B00 20298                       XC    KWRJPFX,=C'JOBMASK.'
 003492 5900 76BE/47D0_      03B38 20299                       IF    (R0,GT,L'KWRJPFX),BEGIN
 00349A 58E0 76C2/0DEE       03B3C 20316  1                      VCALL NOTVALID
1ACMD     (ACMD4072) (12:39) (15MAR04) SET/SHOW JOB Commands                                                                Page   46
0Current Usings:  (WA,R5) (*,R7) (CP,R11) (CV,R12)
0Loc    Object Code    Addr1 Addr2  Stmt Lv Lineno    Source Statement           (Hibal 5, Asmedit 3.3)  HLASM R4.0  2004/03/15 12.39
+___    ______ ____    _____ _____  ____ __ ______    ______ _________
00034A0                            20320                       END
 0034A0 58E0 76C6/0DEE       03B40 20324                       VCALL CHARCHKA            Check for valid chars
 0034A6 47D0 704C            034C6 20328                       IF    POS,BEGIN
 0034AA 41F0 B050/58E0_      00050 20339  1                      TSEG  (R1),(R0)
 0034B4 D207 B886 768E_00886 03B08 20363  1                      ERROR ': invalid characters in prefix.',,INVCHARS
 0034C6                            20371                       END
 0034C6 18D8/9808 D004_            20375                       PEND
 DROP   *,R7
                                   20395
 0034D4 50E0 D000/9008_      00000 20396              KNOPREFX PROC  ,
 USING  *,R7
 0034EE 9680 51F8      001F8       20435                       SET   WAFOP
 0034F2 D707 5038 5038 00038 00038 20441                       CLEAR KWRJPFX             Clear the job prefix
 0034F8 18D8/9808 D004_            20448                       PEND
 DROP   *,R7
                                   20468
 003506 50E0 D000/9008_      00000 20469              KCOUNT   PROC  ,
 USING  *,R7
 003520 9680 51F8      001F8       20508                       SET   WAFOP
 003524 4000 5040            00040 20514                       STH   R0,KWRJNO
 003528 9140 51F8/47E0_001F8       20515                       IF    WAFMAST,'STH R0,KWRRJE'
 003534 18D8/9808 D004_            20536                       PEND
 DROP   *,R7
                                   20556
                                   20557                       AIF   (NOT &JOBAUTH).AUTH2A
 003542 50E0 D000/9008_      00000 20558              KAUTH    PROC  ,
 USING  *,R7
 00355C 58E0 B08C/D2AF_      0008C 20597                       SCPUSH
 00356A 9680 51F8      001F8       20603                       SET   WAFOP
 00356E 94F8 5037      00037       20609                       CLEAR KWRJFL.KWRJFATH
 003572 58E0 B08C/501E_      0008C 20617                       SCINIT (R1),(R0)
 003580 5810 B08C/1B00_      0008C 20637                       SCAN  KAUTHPRT
 0035D2 58E0 75C8/0DEE       03B24 20669                       SCANCHK
 0035D8 58E0 B08C/4BD0_      0008C 20674                       SCPOP
 0035E6 18D8/9808 D004_            20680                       PEND
 DROP   *,R7
                                   20700
 0035F4 4040404040404040_          20701              KAUTHPRT SCKW  ,KAUTHNUL,NULL
 00361C D7E4C2D3C9C34040_          20716                       SCKW  PUBLIC,KAUTHPUB,A
 003644 C3D6D4D4E4D5C9E3_          20731                       SCKW  COMMUNITY,KAUTHCOM,A
 00366C C7D9D6E4D7404040_          20746                       SCKW  GROUP,KAUTHGRP,A
 003694 C7D9D74040404040_          20761                       SCKW  GRP,KAUTHGRP
 0036BC E4E2C5D940404040_          20776                       SCKW  USER,KAUTHRTN,A
 0036E4 E4E2D94040404040_          20791                       SCKW  USR,KAUTHRTN
 00370C 4040404040404040_          20806                       SCKW  ,KAUTHINV
                                   20821
 003734 50E0 D000/9008_      00000 20822              KAUTHNUL PROC
 USING  *,R7
 00374E 4110 7430/4100_      03B7E 20861                       ERROR 'Missing authority.'
 00375A 18D8/9808 D004_            20868                       PEND
 DROP   *,R7
                                   20888
 003768 50E0 D000/9008_      00000 20889              KAUTHPUB PROC
 USING  *,R7
1ACMD     (ACMD4072) (12:39) (15MAR04) SET/SHOW JOB Commands                                                                Page   47
0Current Usings:  (WA,R5) (*,R7) (CP,R11) (CV,R12)
0Loc    Object Code    Addr1 Addr2  Stmt Lv Lineno    Source Statement           (Hibal 5, Asmedit 3.3)  HLASM R4.0  2004/03/15 12.39
+___    ______ ____    _____ _____  ____ __ ______    ______ _________
0003782 9604 5037      00037       20928                       SET   KWRJFL.KWRJFPUB
 003786 18D8/9808 D004_            20935                       PEND
 DROP   *,R7
                                   20955
 003794 50E0 D000/9008_      00000 20956              KAUTHCOM PROC
 USING  *,R7
 0037AE 9602 5037      00037       20995                       SET   KWRJFL.KWRJFCOM
 0037B2 18D8/9808 D004_            21002                       PEND
 DROP   *,R7
                                   21022
 0037C0 50E0 D000/9008_      00000 21023              KAUTHGRP PROC
 USING  *,R7
 0037DA 9601 5037      00037       21062                       SET   KWRJFL.KWRJFGRP
 0037DE 18D8/9808 D004_            21069                       PEND
 DROP   *,R7
                                   21089
 0037EC 50E0 D000/9008_      00000 21090              KAUTHINV PROC
 USING  *,R7
 003806 41F0 B050/58E0_      00050 21129                       TSEG  (R1),(R0)
 003810 4110 7346/4100_      03B4C 21153                       TSEG  ': invalid authority,',,B
 003822 4110 738A/4100_      03B90 21171                       ERROR 'Expecting PUBLIC/COMMUNITY/GROUP/USER.'
 00382E 18D8/9808 D004_            21178                       PEND
 DROP   *,R7
                                   21198
 00383C 50E0 D000/9008_      00000 21199              KAUTHRTN PROC
 USING  *,R7
 003856 18D8/9808 D004_            21238                       PEND
 DROP   *,R7
                                   21258              .AUTH2A  ANOP
                                   21259              *
                                   21260              *
 003864 50E0 D000/9008_      00000 21261              KNOT     PROC
 USING  *,R7
 00387E 9680 51F8/9608_001F8       21300                       SET   WAFOP,KWRJFL.KWRJFNOT
 003886 18D8/9808 D004_            21311                       PEND
 DROP   *,R7
                                   21331
 003894 50E0 D000/9008_      00000 21332              KNONOT   PROC
 USING  *,R7
 0038AE 9680 51F8/94F7_001F8       21371                       SET   WAFOP,(KWRJFL.KWRJFNOT,OFF)
 0038B6 18D8/9808 D004_            21383                       PEND
 DROP   *,R7
                                   21403
 DROP   WA,R5                      21404                       DROP  WA
1ACMD     (ACMD4072) (12:39) (15MAR04) SET/SHOW JOB Commands                                                                Page   48
0Current Usings:  (CP,R11) (CV,R12)
0Loc    Object Code    Addr1 Addr2  Stmt Lv Lineno    Source Statement           (Hibal 5, Asmedit 3.3)  HLASM R4.0  2004/03/15 12.39
+___    ______ ____    _____ _____  ____ __ ______    ______ _________
0                                  21413              ¿þþþþþþþþþþþþþþþþþþþþþþþþþþþþþþþþþþþþþþþþþþþþþþþþþþþþþþþþþþþþþþþþþþþþþÜ
                                   21414              Ÿ                                                                     Ÿ
                                   21415              Ÿ  SHOWJOB -- SHOW JOB command.                                       Ÿ
                                   21416              Ÿ                                                                     Ÿ
                                                      ¾þþþþþþþþþþþþþþþþþþþþþþþþþþþþþþþþþþþþþþþþþþþþþþþþþþþþþþþþþþþþþþþþþþþþþ»
00038C4 50E0 D000/9008_      00000 21417              SHOWJOB  XPROC WA
 USING  *,R7
 USING  WA-(4+36),R8
                                   21468
 0038DE D7FF 8028 8028_00000 00000 21469                       CLEAR WA
 0038F0 4150 8028            00000 21478                       LA    R5,WA
 USING  WA,R5                      21479                       USING WA,R5
                                   21488
 0038F4 D204 BC48 B3B4 00C48 003B4 21489                       MVC   CPCACCT,CPSACCT
 0038FA 4800 729A            03B78 21490                       LH    R0,=H'-1'
 0038FE 58E0 723A/0DEE       03B18 21491                       ACALL GETAENT
                                   21495
 003904 58E0 7286/0DEE       03B64 21496                       VCALL COLLOPTS            Allow standard options
 00390A 58E0 7252/0DEE       03B30 21500                       ACALL SEGACCT
 003910 4110 5000            00000 21504                       LA    R1,KWR
 003914 58E0 7256/0DEE       03B34 21505                       ACALL JOBDISP
 00391A D7FF 5000 5000_00000 00000 21509                       CLEAR KWR
 003926 47F0 C7DE            007DE 21517                       B     CVNEXT
                                   21518
 00392A 18D8/9808 D004_            21519                       PEND
 DROP   WA-(4+36),R8
 DROP   *,R7
 DROP   WA,R5                      21544                       DROP  WA
1ACMD     (ACMD4072) (12:39) (15MAR04) SET/SHOW JOB Commands                                                                Page   49
0Current Usings:  (CP,R11) (CV,R12)
0Loc    Object Code    Addr1 Addr2  Stmt Lv Lineno    Source Statement           (Hibal 5, Asmedit 3.3)  HLASM R4.0  2004/03/15 12.39
+___    ______ ____    _____ _____  ____ __ ______    ______ _________
0                                  21553              ¿þþþþþþþþþþþþþþþþþþþþþþþþþþþþþþþþþþþþþþþþþþþþþþþþþþþþþþþþþþþþþþþþþþþþþÜ
                                   21554              Ÿ                                                                     Ÿ
                                   21555              Ÿ  JOBDISP -- Routine to display job submission options (also called  Ÿ
                                   21556              Ÿ      by SHOW OPTIONS command).                                      Ÿ
                                   21557              Ÿ                                                                     Ÿ
                                   21558              Ÿ      On entry:                                                      Ÿ
                                   21559              Ÿ        R1 - KWR ptr                                                 Ÿ
                                   21560              Ÿ                                                                     Ÿ
                                                      ¾þþþþþþþþþþþþþþþþþþþþþþþþþþþþþþþþþþþþþþþþþþþþþþþþþþþþþþþþþþþþþþþþþþþþþ»
0003938 50E0 D000/9008_      00000 21561              JOBDISP  XPROC
 USING  *,R7
 003952 1861                       21601                       LR    R6,R1               Kwr ptr
 USING  KWR,R6                     21602                       USING KWR,R6
 003954 9108 6037/4710_00037       21611                       IF    ~KWRJFL.KWRJFNOT,'TSEG "NO"'
 00396E 4110 7266/4100_      03BB8 21650                       TSEG  'NOTIFY',,B
 003980 9180 6037/4710_00037       21668                       IF    ~KWRJFL.KWRJFNUM,'TSEG "UN"'
 00399A 4110 71BE/4100_      03B10 21707                       TSEG  'NUMBERED',,B
 0039AC 9140 6037/47E0_00037       21725                       IF    KWRJFL.KWRJFFOR,'TSEG "FORCE",,B'
 0039C6 D607 6038 6038_00038 00038 21764                       IF    (KWRJPFX,NZ),BEGIN
 0039D0 4110 729E/4100_      03BF0 21780  1                      TSEG  'PREFIX='
 0039E2 D207 BC88 6038 00C88 00038 21798  1                      MVC   CPDOUB,KWRJPFX
 0039E8 D707 BC88 71AE 00C88 03B00 21799  1                      XC    CPDOUB,=C'JOBMASK.'  unscramble
 0039EE 4110 BC88/4100_      00C88 21800  1                      SETMSG CPDOUB
 0039F6 41F0 B050/58E0_      00050 21814  1                      TSEG  (R1),(R0),TB
 003A00                            21838                       END
 003A00 4110 726E/4100_      03BC0 21842                       TSEG  'COUNT='
 003A12 1FFF/BFF3 6040_            21860                       BTD   CPDOUB,0,L2:KWRJNO
 003A24 41F0 B050/58E0_      00050 21886                       TSEG  (R1),(R0),B
 003A2E 4110 72A5/4100_      03BF7 21910                       TSEG  '(TOTAL='
 003A40 1FFF/BFF3 6008_            21928                       BTD   CPDOUB,0,L2:KWRRJE
 003A52 41F0 B050/58E0_      00050 21954                       TSEG  (R1),(R0)
 003A5C 4110 72AC/4100_      03BFE 21978                       TSEG  ')',,B
                                   21996                       AIF   (NOT &JOBAUTH).AUTH3A
 003A6E 4110 72AD/4100_      03BFF 21997                       TSEG  'AUTH='
 003A80 4110 721E/4100_      03B70 22015                       SETMSG 'USER'
 003A88 9101 6037/47E0_00037       22019                       IF    KWRJFL.KWRJFGRP,'SETMSG "GROUP"'
 003A98 9102 6037/47E0_00037       22044                       IF    KWRJFL.KWRJFCOM,'SETMSG "COMMUNITY"'
 003AA8 9104 6037/47E0_00037       22069                       IF    KWRJFL.KWRJFPUB,'SETMSG "PUBLIC"'
 003AB8 41F0 B050/58E0_      00050 22094                       TSEG  (R1),(R0),B
                                   22118              .AUTH3A  ANOP
 003AC2 4110 72C0/4100_      03C12 22119                       TSEG  '- JOB Options',,WR
 003AD4 4770 C7DA            007DA 22137                       BNZ   CVABORT
 003AD8 18D8/9808 D004_            22138                       PEND
 DROP   *,R7
 DROP   KWR,R6                     22158                       DROP  KWR
                                   22166
                                   22167                       QLTORG
1ACMD     (ACMD4072) (12:39) (15MAR04) SHOW SPACE Command                                                                   Page   50
0Current Usings:  (CP,R11) (CV,R12)
0Loc    Object Code    Addr1 Addr2  Stmt Lv Lineno    Source Statement           (Hibal 5, Asmedit 3.3)  HLASM R4.0  2004/03/15 12.39
+___    ______ ____    _____ _____  ____ __ ______    ______ _________
0                                  22223              ¿þþþþþþþþþþþþþþþþþþþþþþþþþþþþþþþþþþþþþþþþþþþþþþþþþþþþþþþþþþþþþþþþþþþþþÜ
                                   22224              Ÿ                                                                     Ÿ
                                   22225              Ÿ  SHOWSPCE -- SHOW SPACE command.                                    Ÿ
                                   22226              Ÿ                                                                     Ÿ
                                   22227              Ÿ                                                                     Ÿ
                                                      ¾þþþþþþþþþþþþþþþþþþþþþþþþþþþþþþþþþþþþþþþþþþþþþþþþþþþþþþþþþþþþþþþþþþþþþ»
0003C20 50E0 D000/9008_      00000 22228              SHOWSPCE XPROC WA
 USING  *,R7
 USING  WA-(4+36),R8
                                   22279
 003C3A D7FF 8028 8028_00000 00000 22280                       CLEAR WA
 003C4C 4150 8028            00000 22289                       LA    R5,WA
 USING  WA,R5                      22290                       USING WA,R5
                                   22299                       ¿þþþþþþþþþþþþþþþþþþþþþþþþþþþþþþþþþþþþþþþþþþþþþþþþþþþþþþþþþþÜ
                                   22300                       Ÿ  Allow "SHOW SPACE ON volume" as an alias for            Ÿ
                                   22301                       Ÿ  "SHOW TRACKS ON volume", which is handled elsewhere...  Ÿ
                                   22302                       ¾þþþþþþþþþþþþþþþþþþþþþþþþþþþþþþþþþþþþþþþþþþþþþþþþþþþþþþþþþþ»
 003C50 58E0 B08C/D2AF_      0008C 22303                       SCSAVE AREA=WASCSAVE
 003C5C 5810 B08C/1B00_      0008C 22312                       SCAN   ONVOLPRT            Look for "on"
 003CAE 58E0 74B6/0DEE       040F0 22344                       SCANCHK
 003CB4 58E0 B08C/D2AF_      0008C 22349                       SCRSTR AREA=WASCSAVE
                                   22358
 003CC0 D204 BC48 B3B4 00C48 003B4 22359                       MVC   CPCACCT,CPSACCT
 003CC6 4100 0001            00001 22360                       LA    R0,1                Password not required
 003CCA 58E0 74BA/0DEE       040F4 22361                       ACALL GETAENT
                                   22365
 003CD0 5810 B08C/1B00_      0008C 22366                       SCAN  SPACEPRT
 003D22 58E0 74B6/0DEE       040F0 22398                       SCANCHK
                                   22403
 003D28 1B00                       22404                       CLEAR R0                  Unconditional
 003D2A 4110 5000            00000 22408                       LA    R1,KWR              R1 -> KWR
 003D2E 58E0 74C2/0DEE       040FC 22409                       VCALL EXIT3               LOCAL exit - show space
                                   22413
 003D34 D7FF 5000 5000_00000 00000 22414                       CLEAR KWR
 003D40 47F0 C7DE            007DE 22422                       B     CVNEXT
 003D44 18D8/9808 D004_            22423                       PEND
 DROP   WA-(4+36),R8
 DROP   *,R7
                                   22448
 003D54 4040404040404040_          22449              SPACEPRT SCKW  ,V(COLLPSH),PUSH
 003D7C 4040404040404040_          22464                       SCKW  ,V(NOTVALID)
                                   22479
 003DA4 D6D5404040404040_          22480              ONVOLPRT SCKW  ON,ONVOL
 003DCC 4040404040404040_          22495                       SCKW  ,V(SCNNOOP)
                                   22510
 003DF4 50E0 D000/9008_      00000 22511              ONVOL    PROC  ,
 USING  *,R7
 003E0E 58E0 B08C/D2AF_      0008C 22550                       SCRSTR AREA=WASCSAVE      Back up scanner
                                   22559                       DROP  R4
 003E1A 58E0 72F2/0DEE       04100 22563                       VCALL SHOWTRKS            Go do SHOW TRACKS
 003E20 0000                       22567                       DC    H'0'                (no return)
 003E22 18D8/9808 D004_            22568                       PEND  ,
 DROP   *,R7
1ACMD     (ACMD4072) (12:39) (15MAR04) SHOW SPACE Command                                                                   Page   51
0Current Usings:  (WA,R5) (CP,R11) (CV,R12)
0Loc    Object Code    Addr1 Addr2  Stmt Lv Lineno    Source Statement           (Hibal 5, Asmedit 3.3)  HLASM R4.0  2004/03/15 12.39
+___    ______ ____    _____ _____  ____ __ ______    ______ _________
0                                  22588
 DROP   WA,R5                      22589                       DROP  WA
1ACMD     (ACMD4072) (12:39) (15MAR04) SET/SHOW PROJECT Commands                                                            Page   52
0Current Usings:  (CP,R11) (CV,R12)
0Loc    Object Code    Addr1 Addr2  Stmt Lv Lineno    Source Statement           (Hibal 5, Asmedit 3.3)  HLASM R4.0  2004/03/15 12.39
+___    ______ ____    _____ _____  ____ __ ______    ______ _________
0                                  22598              ¿þþþþþþþþþþþþþþþþþþþþþþþþþþþþþþþþþþþþþþþþþþþþþþþþþþþþþþþþþþþþþþþþþþþþþÜ
                                   22599              Ÿ                                                                     Ÿ
                                   22600              Ÿ  SETPROJ -- SET PROJECT Command.                                    Ÿ
                                   22601              Ÿ                                                                     Ÿ
                                                      ¾þþþþþþþþþþþþþþþþþþþþþþþþþþþþþþþþþþþþþþþþþþþþþþþþþþþþþþþþþþþþþþþþþþþþþ»
0003E30 50E0 D000/9008_      00000 22602              SETPROJ  XPROC
 USING  *,R7
                                   22642
 003E4A 5810 B08C/1B00_      0008C 22643                       SCAN
 003E98 58E0 72A6/0DEE       040F0 22674                       SCANCHK
 003E9E 5860 B08C/4166_      0008C 22679                       SCUPTOK R6
                                   22683
                                   22684                       COMMENT                   CHECK PROJECT ID
 003EA6 5900 72BA/47D0_      04104 22685                       IF    (R0,GT,L'CPSPROJ),BEGIN
 003EAE 41F0 B050/58E0_      00050 22702  1                      TSEG  (R1),(R0),B
 003EB8 4110 7314/4100_      0415E 22726  1                      ERROR 'is too long for a project id.'
 003EC4                            22733                       END
 003EC4 1200/4770 7084_            22737                       IF    (R0,Z),'LA R6,=XL8"00"'
                                   22757                       COMMENT QUOTED PROJECTS ARE IGNORED
 003ECE 957D 6000/4780_00000       22758                       IF    ((@R6,EQ,''''),OR,(@R6,EQ,'"')),'LA R6,=XL8"00"'
                                   22795
 003EE2 4150 0064            00064 22796                       LA    R5,100
 003EE6                            22797                       LOOP  BEGIN
 003EE6 D207 B3F0 6000 003F0 00000 22803  1                      MVC   CPSPROJ,@R6         Set project id
 003EEC 58E0 72C2/0DEE       0410C 22804  1                      VCALL UPDCPSIB            Update MILTEN's copy
 003EF2 4780 70C0            03F0A 22808  1                      IF    Z,EXIT
 003EF6 0650                       22822  1                      DECR  R5
 003EF8 1255/4770 70BC_            22824  1                      IF    (R5,Z),'LA R15,100; B CVMILERR'  can't update
 003F06 47F0 709C            03EE6 22845                       END
                                   22850                       ¿þþþþþþþþþþþþþþþþþþþþþþþþþþþþþþþþþþþþþþþþþþþþþþþþþþþþþþþþÜ
                                   22851                       Ÿ  For the RLG version, WPROJECT and PROJECT are always  Ÿ
                                   22852                       Ÿ    the same.                                           Ÿ
                                   22853                       ¾þþþþþþþþþþþþþþþþþþþþþþþþþþþþþþþþþþþþþþþþþþþþþþþþþþþþþþþþ»
 003F0A 9110 C4C4/47E0_004C4       22854                       IF    CVFRLG,'MVC CPWPROJ,CPSPROJ'  Set the same
                                   22875
 003F18 47F0 C7DE            007DE 22876                       B     CVNEXT
                                   22877
 003F1C 18D8/9808 D004_            22878                       PEND
 DROP   *,R7
1ACMD     (ACMD4072) (12:39) (15MAR04) SET/SHOW PROJECT Commands                                                            Page   53
0Current Usings:  (CP,R11) (CV,R12)
0Loc    Object Code    Addr1 Addr2  Stmt Lv Lineno    Source Statement           (Hibal 5, Asmedit 3.3)  HLASM R4.0  2004/03/15 12.39
+___    ______ ____    _____ _____  ____ __ ______    ______ _________
0                                  22899              ¿þþþþþþþþþþþþþþþþþþþþþþþþþþþþþþþþþþþþþþþþþþþþþþþþþþþþþþþþþþþþþþþþþþþþþÜ
                                   22900              Ÿ                                                                     Ÿ
                                   22901              Ÿ  SHOWPROJ -- SHOW PROJECT Command.                                  Ÿ
                                   22902              Ÿ                                                                     Ÿ
                                                      ¾þþþþþþþþþþþþþþþþþþþþþþþþþþþþþþþþþþþþþþþþþþþþþþþþþþþþþþþþþþþþþþþþþþþþþ»
0003F2A 50E0 D000/9008_      00000 22903              SHOWPROJ XPROC
 USING  *,R7
 003F44 58E0 71CC/0DEE       04110 22943                       VCALL COLLOPTS
 003F4A D607 B3F0 B3F0_003F0 003F0 22947                       IF    ((CPSPROJ,Z),OR,(CPSPROJ,EQ,CVBLANKS)),BEGIN
 003F5E 4110 71FA/4100_      0413E 22980  1                      SETMSG 'No project id.'
 003F66                            22984                       END
                                   22988
 003F66 7026/47F0 7040 03F66 03F5C 22989                       ELSE  BEGIN
 003F6A 4110 B3F0/4100_      003F0 23000  1                      TSEG  CPSPROJ,,T
 003F7C 4110 71D4/4100_      04118 23028  1                      SETMSG ' is your current project id.'
 003F84                            23032                       END
                                   23036
 003F84 47F0 C7D0            007D0 23037                       B     CVNXTMSG
 003F88 18D8/9808 D004_            23038                       PEND
 DROP   *,R7
1ACMD     (ACMD4072) (12:39) (15MAR04) SET/SHOW WPROJECT Commands                                                           Page   54
0Current Usings:  (CP,R11) (CV,R12)
0Loc    Object Code    Addr1 Addr2  Stmt Lv Lineno    Source Statement           (Hibal 5, Asmedit 3.3)  HLASM R4.0  2004/03/15 12.39
+___    ______ ____    _____ _____  ____ __ ______    ______ _________
0                                  23059              ¿þþþþþþþþþþþþþþþþþþþþþþþþþþþþþþþþþþþþþþþþþþþþþþþþþþþþþþþþþþþþþþþþþþþþþÜ
                                   23060              Ÿ                                                                     Ÿ
                                   23061              Ÿ  SETWPROJ -- SET WPROJECT Command.                                  Ÿ
                                   23062              Ÿ                                                                     Ÿ
                                                      ¾þþþþþþþþþþþþþþþþþþþþþþþþþþþþþþþþþþþþþþþþþþþþþþþþþþþþþþþþþþþþþþþþþþþþþ»
0003F96 50E0 D000/9008_      00000 23063              SETWPROJ XPROC
 USING  *,R7
 003FB0 9110 C4C4/47E0_004C4       23103                       IF    CVFRLG,'VCALL SETPROJ; B CVNEXT'  RLG version
                                   23128
 003FC2 5810 B08C/1B00_      0008C 23129                       SCAN
 004010 58E0 7140/0DEE       040F0 23160                       SCANCHK
 004016 5860 B08C/4166_      0008C 23165                       SCUPTOK R6
                                   23169
 00401E 1200/4770 7078_            23170                       IF    (R0,Z),'LA R6,=XL8"00"'
 004028 707C/47F0 709A 04028 04022 23190                       ELSE  BEGIN
 00402C 5900 7188/47D0_      04138 23201  1                      IF    (R0,GT,L'CPWPROJ),BEGIN
 004034 41F0 B050/58E0_      00050 23218  2                        TSEG  (R1),(R0),B
 00403E 4110 71AE/4100_      0415E 23242  2                        ERROR 'is too long for a project id.'
 00404A                            23249  1                      END
 00404A                            23253                       END
                                   23257
 00404A D207 B188 6000 00188 00000 23258                       MVC   CPWPROJ,@R6         Set WPROJECT id
 004050 47F0 C7DE            007DE 23259                       B     CVNEXT
                                   23260
 004054 18D8/9808 D004_            23261                       PEND
 DROP   *,R7
1ACMD     (ACMD4072) (12:39) (15MAR04) SET/SHOW WPROJECT Commands                                                           Page   55
0Current Usings:  (CP,R11) (CV,R12)
0Loc    Object Code    Addr1 Addr2  Stmt Lv Lineno    Source Statement           (Hibal 5, Asmedit 3.3)  HLASM R4.0  2004/03/15 12.39
+___    ______ ____    _____ _____  ____ __ ______    ______ _________
0                                  23282              ¿þþþþþþþþþþþþþþþþþþþþþþþþþþþþþþþþþþþþþþþþþþþþþþþþþþþþþþþþþþþþþþþþþþþþþÜ
                                   23283              Ÿ                                                                     Ÿ
                                   23284              Ÿ  SHOWWPRJ -- SHOW WPROJECT Command.                                 Ÿ
                                   23285              Ÿ                                                                     Ÿ
                                                      ¾þþþþþþþþþþþþþþþþþþþþþþþþþþþþþþþþþþþþþþþþþþþþþþþþþþþþþþþþþþþþþþþþþþþþþ»
0004062 50E0 D000/9008_      00000 23286              SHOWWPRJ XPROC
 USING  *,R7
 00407C 58E0 7094/0DEE       04110 23326                       VCALL COLLOPTS
 004082 D607 B188 B188_00188 00188 23330                       IF    ((CPWPROJ,Z),OR,(CPWPROJ,EQ,CVBLANKS)),BEGIN
 004096 4110 705C/4100_      040D8 23363  1                      SETMSG 'No WPROJECT set.'
 00409E                            23367                       END
                                   23371
 00409E 7026/47F0 7040 0409E 04094 23372                       ELSE  BEGIN
 0040A2 4110 B188/4100_      00188 23383  1                      TSEG  CPWPROJ,,T
 0040B4 4110 70D0/4100_      0414C 23411  1                      SETMSG ' is your WPROJECT.'
 0040BC                            23415                       END
                                   23419
 0040BC 47F0 C7D0            007D0 23420                       B     CVNXTMSG
 0040C0 18D8/9808 D004_            23421                       PEND
 DROP   *,R7
                                   23441
                                   23442                       QLTORG
1ACMD     (ACMD4072) (12:39) (15MAR04) SET WAPP Command                                                                     Page   56
0Current Usings:  (CP,R11) (CV,R12)
0Loc    Object Code    Addr1 Addr2  Stmt Lv Lineno    Source Statement           (Hibal 5, Asmedit 3.3)  HLASM R4.0  2004/03/15 12.39
+___    ______ ____    _____ _____  ____ __ ______    ______ _________
0                                  23476              ¿þþþþþþþþþþþþþþþþþþþþþþþþþþþþþþþþþþþþþþþþþþþþþþþþþþþþþþþþþþþþþþþþþþþþþÜ
                                   23477              Ÿ                                                                     Ÿ
                                   23478              Ÿ  SETWAPP -- SET WAPP Command.  This is an internal command used     Ÿ
                                   23479              Ÿ    to allow the double-logon application 8 bytes of information     Ÿ
                                   23480              Ÿ    which can be passed in the accounting record.                    Ÿ
                                   23481              Ÿ                                                                     Ÿ
                                                      ¾þþþþþþþþþþþþþþþþþþþþþþþþþþþþþþþþþþþþþþþþþþþþþþþþþþþþþþþþþþþþþþþþþþþþþ»
000417C 50E0 D000/9008_      00000 23482              SETWAPP  XPROC
 USING  *,R7
                                   23522
 004196 5810 B08C/1B00_      0008C 23523                       SCAN
 0041E4 58E0 7BB6/0DEE       04D4C 23554                       SCANCHK
 0041EA 5810 B08C/4111_      0008C 23559                       SCUPTOK R1
                                   23563
 0041F2 1200/4770 706E             23564                       IF    (R0,Z),BEGIN
 0041F8 4110 7C58/4100_      04DEE 23578  1                      ERROR 'Missing APPLICATION name.'
 004204                            23585                       END
                                   23589
 004204 D607 B190 B190_00190 00190 23590                       IF    (CPWAPP,Z),BEGIN    Only set WAPP info once...
 00420E D207 B190 1000 00190 00000 23606  1                      MVC   CPWAPP,@R1          Save WAPP info
 004214                            23607                       END
                                   23611
 004214 47F0 C7DE            007DE 23612                       B     CVNEXT
 004218 18D8/9808 D004_            23613                       PEND
 DROP   *,R7
1ACMD     (ACMD4072) (12:39) (15MAR04) SHOW CHARGES Command                                                                 Page   57
0Current Usings:  (CP,R11) (CV,R12)
0Loc    Object Code    Addr1 Addr2  Stmt Lv Lineno    Source Statement           (Hibal 5, Asmedit 3.3)  HLASM R4.0  2004/03/15 12.39
+___    ______ ____    _____ _____  ____ __ ______    ______ _________
0                                  23634              ¿þþþþþþþþþþþþþþþþþþþþþþþþþþþþþþþþþþþþþþþþþþþþþþþþþþþþþþþþþþþþþþþþþþþþþÜ
                                   23635              Ÿ                                                                     Ÿ
                                   23636              Ÿ  SHOWCHAR -- SHOW CHARGES command.                                  Ÿ
                                   23637              Ÿ                                                                     Ÿ
                                                      ¾þþþþþþþþþþþþþþþþþþþþþþþþþþþþþþþþþþþþþþþþþþþþþþþþþþþþþþþþþþþþþþþþþþþþþ»
0004226 50E0 D000/9008_      00000 23638              SHOWCHAR XPROC WA
 USING  *,R7
 USING  WA-(4+36),R8
                                   23689
 004240 D7FF 8028 8028_00000 00000 23690                       CLEAR WA
 004252 4150 8028            00000 23699                       LA    R5,WA
 USING  WA,R5                      23700                       USING WA,R5
                                   23709
 004256 D204 BC48 B3B4 00C48 003B4 23710                       MVC   CPCACCT,CPSACCT
                                   23711
                                   23712                       COMMENT                   CHECK FOR ACCOUNT
 00425C 5810 B08C/1B00_      0008C 23713                       SCAN
 0042AA 58E0 7B0C/0DEE       04D4C 23744                       SCANCHK
 0042B0 58F0 B08C/41FF_      0008C 23749                       SCUPTOK R15
 0042B8 4780 7098            042D8 23753                       IF    NZ,BEGIN
 0042BC D503 7B10 F000_04D50 00000 23764  1                      IF    (@R15,NE,'FOR '),EXIT
 0042C6 4110 7BC7/4100_      04E07 23783  1                      TSEG  'FOR is not needed and has been ignored.',,WR
 0042D8                            23801                       END
 0042D8 709C/47F0 70D2 042D8 042BA 23805                       ELSE  BEGIN
 0042DC 58E0 B08C/58FE_      0008C 23816  1                      SCBKUP
 004312                            23872                       END
                                   23876
 004312 4800 7B8E            04DCE 23877                       LH    R0,=H'-1'
 004316 58E0 7B18/0DEE       04D58 23878                       ACALL GETAENT
                                   23882
 00431C 5810 B08C/1B00_      0008C 23883                       SCAN  CHARPRT
 00436E 58E0 7B0C/0DEE       04D4C 23915                       SCANCHK
                                   23920
 004374 9110 BD58/4710_00D58       23921                       IF    ~CPFINT,BEGIN
 00437C D6EA CBFC CBFC_00BFC 00BFC 23936  1                      IF    (CVAMSG,NZ),BEGIN
 004386 58E0 7B20/0DEE       04D60 23952  2                        VCALL LOCALTOD
 00438C 1820                       23956  2                        LR    R2,R0
 00438E 1B33                       23957  2                        CLEAR R3
 004390 5800 CBF8            00BF8 23961  2                        L     R0,CVAMSGCK
 004394 1B11                       23962  2                        CLEAR R1
 004396 18FD/41D0 D020             23966  2                        XPUSH ,,30,PTR=R15
 00439C 58E0 7B24/0DEE       04D64 23969  2                        VCALL FMTRCLCK            "hh:mm" or "hh:mm mm/dd/yyyy"
 0043A2 41F0 B050/58E0_      00050 23973  2                        TSEG  (R1),(R0)
 0043AC 4110 C4D8/4100_      004D8 23997  2                        TSEG  CVBLANKS,2
 0043BE 4BD0 7B90            04DD0 24027  2                        XPOP  ,,30
 0043C2 4110 CBFC/4100_      00BFC 24029  2                        SETMSG CVAMSG
 0043CA 58E0 7B2C/0DEE       04D6C 24043  2                        VCALL LRTRIM
 0043D0 41F0 B050/58E0_      00050 24047  2                        TSEG  (R1),(R0),WR
 0043DA                            24071  1                      END
 0043DA D501 5003 B3B7_00003 003B7 24075  1                      IF    ((KWRGRP,NE,CPSGRP),OR,(KWRUSER,NE,CPSUSER)),BEGIN
 0043EE 4110 5003/4100_      00003 24110  2                        TSEG  KWRGRP
 004400 4110 7BEE/4100_      04E2E 24138  2                        TSEG  '.'
 004412 4110 5000/4100_      00000 24156  2                        TSEG  KWRUSER
1ACMD     (ACMD4072) (12:39) (15MAR04) SHOW CHARGES Command                                                                 Page   58
0Current Usings:  (WA,R5) (*,R7) (WA-(4+36),R8) (CP,R11) (CV,R12)
0Loc    Object Code    Addr1 Addr2  Stmt Lv Lineno    Source Statement           (Hibal 5, Asmedit 3.3)  HLASM R4.0  2004/03/15 12.39
+___    ______ ____    _____ _____  ____ __ ______    ______ _________
0004424 4110 7BEF/4100_      04E2F 24184  2                        TSEG  ' - '
 004436                            24202  1                      END
 004436 D602 5014 5014_00014 00014 24206  1                      IF    (KWRBGT,NZ),BEGIN
 004440 4110 7B00/4100_      04D40 24222  2                        TSEG  'BUDGET: '
 004452 1FFF/BFF7 5014             24240  2                        L3    R15,KWRBGT          Budget
 004458 58E0 7B30/0DEE       04D70 24248  2                        ACALL SEGXDOL
 00445E 4110 7B92/4100_      04DD2 24252  2                        TSEG  ', '
 004470                            24270  1                      END
 004470 4110 7BF2/4100_      04E32 24274  1                      TSEG  'Charges: '
 004482 1FFF/BFF7 50BC             24292  1                      L3    R15,KWRMTD          Mtd charges
 004488 58E0 7B30/0DEE       04D70 24300  1                      ACALL SEGXDOL
 00448E 4110 7B94/4100_      04DD4 24304  1                      TSEG  ' MTD, '
 0044A0 1FFF/BFF7 5017             24322  1                      L3    R15,KWRBAL          Balance (ytd charges)
 0044A6 58E0 7B30/0DEE       04D70 24330  1                      ACALL SEGXDOL
 0044AC 4110 7B34/4100_      04D74 24334  1                      TSEG  ' YTD'
 0044BE D603 50B8 50B8_000B8 000B8 24352  1                      IF    (KWRCDATE,NZ),BEGIN
 0044C8 4110 7BFB/4100_      04E3B 24368  2                        TSEG  '  ('
 0044DA 1FFF/BFF7 5017             24386  2                        L3    R15,KWRBAL          Current ytd charges
 0044E0 59F0 7B38/4750_      04D78 24394  2                        IF    (R15,GE,X'800000'),'O R15,=A(X"FF000000")'
 0044EC 1F22/BF27 50BF             24417  2                        L3    R2,KWRPBAL          Yesterday's ytd charges
 0044F2 5920 7B38/4750_      04D78 24425  2                        IF    (R2,GE,X'800000'),'O R2,=A(X"FF000000")'
 0044FE 1BF2                       24448  2                        SR    R15,R2
 004500 58E0 7B30/0DEE       04D70 24449  2                        ACALL SEGXDOL
 004506 4110 7B40/4100_      04D80 24453  2                        TSEG  ' charged on '
 004518 5800 50B8            000B8 24471  2                        L     R0,KWRCDATE
 00451C 4110 BC88            00C88 24472  2                        LA    R1,CPDOUB
 004520 58E0 7B4C/0DEE       04D8C 24473  2                        VCALL DATE
 004526 4100 0005/41F0_      00005 24477  2                        TSEG  (R1),5              Mm/dd
 004534 4110 7BFE/4100_      04E3E 24504  2                        TSEG  ')'
 004546                            24522  1                      END
                                   24526  1
 004546 9180 500F/4710_0000F       24527  1                      IF    ~KWRAFL.KWRAFVAL,BEGIN  Suspended...
 00454E 4110 C4D8/4100_      004D8 24543  2                        TSEG  CVBLANKS,2
 004560 4110 7BFF/4100_      04E3F 24573  2                        SETMSG '(Suspended)'
 004568 95F1 5063/4770_00063       24577  2                        IF    (KWRSTAT,EQ,KWRSEXP),'SETMSG "(Expired)"'
 004578 95F3 5063/4770_00063       24604  2                        IF    (KWRSTAT,EQ,KWRSOVB),'SETMSG "(Over budget)"'
 004588 95F4 5063/4770_00063       24631  2                        IF (KWRSTAT,EQ,KWRSUHL),'SETMSG "(Suspended--see Accounting)"'
 004598 41F0 B050/58E0_      00050 24658  2                        TSEG  (R1),(R0)
 0045A2                            24682  1                      END
 0045A2 1B00/41F0 B050_            24686  1                      TWRITE
 0045AE 4770 C7DA            007DA 24711  1                      BNZ   CVABORT
                                   24712  1
 0045B2 D601 5042 5042_00042 00042 24713  1                      IF    (KWRHRSAL,NZ),BEGIN
 0045BC 4800 5068            00068 24729  2                        LH    R0,KWRHRSUS
 0045C0 4C00 7B9A            04DDA 24730  2                        MH    R0,=H'100'
 0045C4 58E0 7B50/0DEE       04D90 24731  2                        VCALL CVEXNO
 0045CA 41F0 B050/58E0_      00050 24735  2                        TSEG  (R1),(R0)
 0045D4 4110 7C3B/4100_      04E7B 24759  2                        TSEG  ' hours used'
 0045E6 D501 7B9C 5042_04DDC 00042 24777  2                        IF    (KWRHRSAL,NE,-1),BEGIN
 0045F0 4110 7B92/4100_      04DD2 24795  3                          TSEG  ', '
 004602 4800 5042            00042 24813  3                          LH    R0,KWRHRSAL
 004606 4C00 7B9A            04DDA 24814  3                          MH    R0,=H'100'
 00460A 58E0 7B50/0DEE       04D90 24815  3                          VCALL CVEXNO
 004610 41F0 B050/58E0_      00050 24819  3                          TSEG  (R1),(R0)
1ACMD     (ACMD4072) (12:39) (15MAR04) SHOW CHARGES Command                                                                 Page   59
0Current Usings:  (WA,R5) (*,R7) (WA-(4+36),R8) (CP,R11) (CV,R12)
0Loc    Object Code    Addr1 Addr2  Stmt Lv Lineno    Source Statement           (Hibal 5, Asmedit 3.3)  HLASM R4.0  2004/03/15 12.39
+___    ______ ____    _____ _____  ____ __ ______    ______ _________
000461A 4110 7B9E/4100_      04DDE 24843  3                          TSEG  ' hours allowed'
 00462C                            24861  2                        END
 00462C 1B00/41F0 B050_            24865  2                        TWRITE
 004638                            24890  1                      END
 004638                            24894                       END
                                   24898                       ¿þþþþþþþþþþþþþþþþþþþþþþþþþþþþþþþþþþþþþÜ
                                   24899                       Ÿ  Show charges INTERNAL formatting.  Ÿ
                                   24900                       ¾þþþþþþþþþþþþþþþþþþþþþþþþþþþþþþþþþþþþþ»
 004638 73FC/47F0 75A8 04638 0437A 24901                       ELSE  BEGIN               Internal format...
                                   24912  1                      ¿þþþþþþþþþþþþþþþþþþþþþþþþþþþþþþþþþþþþþþþþþþþþþþþþþþþþþþþþþþþþþþþÜ
                                   24913  1                      Ÿ  internal format:  ("." represents a blank)                   Ÿ
                                   24914  1                      Ÿ   (....v....1....v....2....v....3....v..)                     Ÿ
                                   24915  1                      Ÿ    gguuuslaaaaaaaaa.uuuuuuuuu.bbbbbbbbb.                      Ÿ
                                   24916  1                      Ÿ                                                               Ÿ
                                   24917  1                      Ÿ              (..4....v....5....v....6....v....7..)            Ÿ
                                   24918  1                      Ÿ    (cont'd)   yyyyyyyyy.mmmmmmmmm.ppppppppp.ddddd             Ÿ
                                   24919  1                      Ÿ                                                               Ÿ
                                   24920  1                      Ÿ  where:                                                       Ÿ
                                   24921  1                      Ÿ    gguuu - account                                            Ÿ
                                   24922  1                      Ÿ    s - blank if account is active, "e" if expired,            Ÿ
                                   24923  1                      Ÿ    "o" if over budget, "s" if account is suspended            Ÿ
                                   24924  1                      Ÿ    l - blank if regular account, "l" if lcip account          Ÿ
                                   24925  1                      Ÿ    aaaaaaaaa - no. of interactive hours allowed (lcip only)   Ÿ
                                   24926  1                      Ÿ    uuuuuuuuu - no. of interactive hours used (lcip only)      Ÿ
                                   24927  1                      Ÿ    bbbbbbbbb - current budget                                 Ÿ
                                   24928  1                      Ÿ    yyyyyyyyy - current ytd charges                            Ÿ
                                   24929  1                      Ÿ    mmmmmmmmm - current mtd charges                            Ÿ
                                   24930  1                      Ÿ    ppppppppp - previous days charges                          Ÿ
                                   24931  1                      Ÿ   ddddd - date charges were last calculated.  format:  mm/dd  Ÿ
                                   24932  1                      Ÿ    what follows is reserved for future use                    Ÿ
                                   24933  1                      ¾þþþþþþþþþþþþþþþþþþþþþþþþþþþþþþþþþþþþþþþþþþþþþþþþþþþþþþþþþþþþþþþ»
 00463C 4110 5003/4100_      00003 24934  1                      TSEG  KWRGRP
 00464E 4110 5000/4100_      00000 24962  1                      TSEG  KWRUSER
 004660 4110 C4D8/4100_      004D8 24990  1                      SETMSG CVBLANKS,1
 004668 9180 500F/4710_0000F       25006  1                      IF    ~KWRAFL.KWRAFVAL,BEGIN
 004670 4110 7C46/4100_      04E86 25022  2                        SETMSG 'S'
 004678 95F1 5063/4770_00063       25026  2                        IF    (KWRSTAT,EQ,KWRSEXP),'SETMSG "E"'
 004688 95F3 5063/4770_00063       25053  2                        IF    (KWRSTAT,EQ,KWRSOVB),'SETMSG "O"'
 004698                            25080  1                      END
 004698 41F0 B050/58E0_      00050 25084  1                      TSEG  (R1),(R0)
 0046A2 4110 C4D8/4100_      004D8 25108  1                      SETMSG CVBLANKS,1          Always blank
 0046AA 41F0 B050/58E0_      00050 25124  1                      TSEG  (R1),(R0)
 0046B4 48F0 5042            00042 25148  1                      LH    R15,KWRHRSAL
 0046B8 4100 0902/4110_      00902 25149  1                      BTR   CPDOUB,(9,2),(R15)
 0046C6 41F0 B050/58E0_      00050 25171  1                      TSEG  (R1),(R0),B
 0046D0 1FFF/BFF3 5068_            25195  1                      BTR   CPDOUB,(9,2),L2:KWRHRSUS
 0046E4 41F0 B050/58E0_      00050 25224  1                      TSEG  (R1),(R0),B
 0046EE 1FFF/BFF7 5014             25248  1                      L3    R15,KWRBGT
 0046F4 59F0 7B38/4750_      04D78 25256  1                      IF    (R15,GE,X'800000'),'O R15,=A(X"FF000000")'
 004700 12FF/4770 74CA_            25279  1                      IF    (R15,Z),'LH R15,=H"-1"'
 00470A 4100 0009/4110_      00009 25299  1                      BTD   CPDOUB,9,(R15)
 004718 41F0 B050/58E0_      00050 25321  1                      TSEG  (R1),(R0),B
 004722 1FFF/BFF7 5017             25345  1                      L3    R15,KWRBAL
 004728 59F0 7B38/4750_      04D78 25353  1                      IF    (R15,GE,X'800000'),'O R15,=A(X"FF000000")'
1ACMD     (ACMD4072) (12:39) (15MAR04) SHOW CHARGES Command                                                                 Page   60
0Current Usings:  (WA,R5) (*,R7) (WA-(4+36),R8) (CP,R11) (CV,R12)
0Loc    Object Code    Addr1 Addr2  Stmt Lv Lineno    Source Statement           (Hibal 5, Asmedit 3.3)  HLASM R4.0  2004/03/15 12.39
+___    ______ ____    _____ _____  ____ __ ______    ______ _________
0004734 4100 0009/4110_      00009 25376  1                      BTD   CPDOUB,9,(R15)
 004742 41F0 B050/58E0_      00050 25398  1                      TSEG  (R1),(R0),B
 00474C 1FFF/BFF7 50BC             25422  1                      L3    R15,KWRMTD
 004752 59F0 7B38/4750_      04D78 25430  1                      IF    (R15,GE,X'800000'),'O R15,=A(X"FF000000")'
 00475E 4100 0009/4110_      00009 25453  1                      BTD   CPDOUB,9,(R15)
 00476C 41F0 B050/58E0_      00050 25475  1                      TSEG  (R1),(R0),B
 004776 1FFF/BFF7 5017             25499  1                      L3    R15,KWRBAL
 00477C 59F0 7B38/4750_      04D78 25507  1                      IF    (R15,GE,X'800000'),'O R15,=A(X"FF000000")'
 004788 1F11/BF17 50BF             25530  1                      L3    R1,KWRPBAL
 00478E 5910 7B38/4750_      04D78 25538  1                      IF    (R1,GE,X'800000'),'O R1,=A(X"FF000000")'
 00479A 1BF1/47B0 7562_            25561  1                      IF    ('SR R15,R1',NEG),'CLEAR R15'
 0047A2 4100 0009/4110_      00009 25583  1                      BTD   CPDOUB,9,(R15)      Latest charge increment
 0047B0 41F0 B050/58E0_      00050 25605  1                      TSEG  (R1),(R0),B
 0047BA 4110 7C49/4100_      04E89 25629  1                      SETMSG '??/??'
 0047C2 D603 50B8 50B8_000B8 000B8 25633  1                      IF    (KWRCDATE,NZ),BEGIN
 0047CC 5800 50B8            000B8 25649  2                        L     R0,KWRCDATE
 0047D0 4110 BC88            00C88 25650  2                        LA    R1,CPDOUB
 0047D4 58E0 7B4C/0DEE       04D8C 25651  2                        VCALL DATE
 0047DA 4100 0005            00005 25655  2                        SETMSG (R1),5              Mm/dd
 0047DE                            25668  1                      END
 0047DE 41F0 B050/58E0_      00050 25672  1                      TSEG  (R1),(R0),B
 0047E8                            25696                       END
                                   25700
 0047E8 D7FF 5000 5000_00000 00000 25701                       CLEAR KWR
 0047F4 47F0 C7DE            007DE 25709                       B     CVNEXT
                                   25710
 0047F8 18D8/9808 D004_            25711                       PEND
 DROP   WA-(4+36),R8
 DROP   *,R7
 DROP   WA,R5                      25736                       DROP  WA
                                   25744                       ¿þþþþþþþþþþþþþþþþþþþþþþþþþÜ
                                   25745                       Ÿ  SHOW CHARGES Options.  Ÿ
                                   25746                       ¾þþþþþþþþþþþþþþþþþþþþþþþþþ»
 004808 4040404040404040_          25747              CHARPRT  SCKW  ,V(COLLPSH),PUSH
 004830 4040404040404040_          25762                       SCKW  ,V(INTPSH),PUSH
 004858 4040404040404040_          25777                       SCKW  ,V(NOTVALID)
                                   25792
1ACMD     (ACMD4072) (12:39) (15MAR04) SET/SHOW COST Command                                                                Page   61
0Current Usings:  (CP,R11) (CV,R12)
0Loc    Object Code    Addr1 Addr2  Stmt Lv Lineno    Source Statement           (Hibal 5, Asmedit 3.3)  HLASM R4.0  2004/03/15 12.39
+___    ______ ____    _____ _____  ____ __ ______    ______ _________
0                                  25794              ¿þþþþþþþþþþþþþþþþþþþþþþþþþþþþþþþþþþþþþþþþþþþþþþþþþþþþþþþþþþþþþþþþþþþþþÜ
                                   25795              Ÿ                                                                     Ÿ
                                   25796              Ÿ  SETCOST -- SET COST command (no longer supported).                 Ÿ
                                   25797              Ÿ                                                                     Ÿ
                                                      ¾þþþþþþþþþþþþþþþþþþþþþþþþþþþþþþþþþþþþþþþþþþþþþþþþþþþþþþþþþþþþþþþþþþþþþ»
0004880 50E0 D000/9008_      00000 25798              SETCOST  XPROC
 USING  *,R7
 00489A 47F0 C7DE            007DE 25838                       B     CVNEXT              NOT SUPPORTED
 00489E 18D8/9808 D004_            25839                       PEND
 DROP   *,R7
                                   25859                       AGO   .SKIPSC
                                   25860              .SKIPSC  ANOP
1ACMD     (ACMD4072) (12:39) (15MAR04) SET/SHOW COST Command                                                                Page   62
0Current Usings:  (CP,R11) (CV,R12)
0Loc    Object Code    Addr1 Addr2  Stmt Lv Lineno    Source Statement           (Hibal 5, Asmedit 3.3)  HLASM R4.0  2004/03/15 12.39
+___    ______ ____    _____ _____  ____ __ ______    ______ _________
0000000                00000 0001C 25862              WCWA     RECORD BEGIN
 000000                            25870  1           WCKEY      DS    CL16                Token name
                                   25871  1
 000010                            25872  1           WCPASS     DS    CL8                 Password
 000018                            25873  1           WCCOST     DS    F                   Dollar value
                                   25874  1           WCDATA     EQU   WCPASS,*-WCPASS,C'X'
 00001C                0001C 0001C 25875                       END
-                                  25885              ¿þþþþþþþþþþþþþþþþþþþþþþþþþþþþþþþþþþþþþþþþþþþþþþþþþþþþþþþþþþþþþþþþþþþþþÜ
                                   25886              Ÿ                                                                     Ÿ
                                   25887              Ÿ  SHOWWCIN -- SHOW WCINIT command.                                   Ÿ
                                   25888              Ÿ                                                                     Ÿ
                                                      ¾þþþþþþþþþþþþþþþþþþþþþþþþþþþþþþþþþþþþþþþþþþþþþþþþþþþþþþþþþþþþþþþþþþþþþ»
00048AC 50E0 D000/9008_      00000 25889              SHOWWCIN XPROC WCWA
 USING  *,R7
 USING  WCWA-(4+36),R8
 0048C6 D71B 8028 8028 00000 00000 25940                       CLEAR WCWA
                                   25947
 0048CC 58E0 74DA/0DEE       04DA0 25948                       VCALL COLLOPTS            Scan for collect options
                                   25952
 0048D2                            25953                       LOOP  BEGIN
 0048D2 4100 0003            00003 25959  1                      LA    R0,CV#WC            WCINIT record set
 0048D6 41F0 C360            00360 25960  1                      LA    R15,CVRG16
 0048DA 58E0 74DE/0DEE       04DA4 25961  1                      VCALL XSETSET             Set correct record set
                                   25965  1
 0048E0 4120 8028            00000 25966  1                      LA    R2,WCKEY            Key is the WCOUNTER name
 0048E4 4110 8038/4100_      00010 25967  1                      SETMSG WCDATA
 0048EC 41F0 C360            00360 25981  1                      LA    R15,CVRG16
 0048F0 58E0 74E2/0DEE       04DA8 25982  1                      VCALL XGETNEXT            Get previous info (if any)
 0048F6 4770 C7DE            007DE 25986  1                      BNZ   CVNEXT              All done
                                   25987  1
 0048FA 4110 8028/4100_      00000 25988  1                      TSEG  WCKEY
 00490C 4110 7526/4100_      04DEC 26016  1                      TSEG  '  '
                                   26034  1
 00491E D603 8040 8040_00018 00018 26035  1                      IF    (WCCOST,NZ),BEGIN   There is a per count cost...
 004928 4110 75C8/4100_      04E8E 26051  2                        TSEG  'Cost='
 00493A 5800 8040            00018 26069  2                        L     R0,WCCOST
 00493E 58E0 74CA/0DEE       04D90 26070  2                        VCALL CVEXNO
 004944 41F0 B050/58E0_      00050 26074  2                        TSEG  (R1),(R0)
 00494E 4110 75CD/4100_      04E93 26098  2                        TSEG  ' '
 004960                            26116  1                      END
                                   26120  1
 004960 D607 8038 8038_00010 00010 26121  1                      IF    (WCPASS,NZ),'TSEG "(Password) "'
                                   26160  1
 00497C 1B00/41F0 B050_            26161  1                      TCR
 004988 47F0 700C            048D2 26186                       END
                                   26191
 00498C 18D8/9808 D004_            26192                       PEND  ,                   NOTE: we exit via CVNEXT above
 DROP   WCWA-(4+36),R8
 DROP   *,R7
1ACMD     (ACMD4072) (12:39) (15MAR04) SET/SHOW COST Command                                                                Page   63
0Current Usings:  (CP,R11) (CV,R12)
0Loc    Object Code    Addr1 Addr2  Stmt Lv Lineno    Source Statement           (Hibal 5, Asmedit 3.3)  HLASM R4.0  2004/03/15 12.39
+___    ______ ____    _____ _____  ____ __ ______    ______ _________
0                                  26218              ¿þþþþþþþþþþþþþþþþþþþþþþþþþþþþþþþþþþþþþþþþþþþþþþþþþþþþþþþþþþþþþþþþþþþþþÜ
                                   26219              Ÿ                                                                     Ÿ
                                   26220              Ÿ  SETWCIN -- SET WCINIT command (priv'd).                            Ÿ
                                   26221              Ÿ                                                                     Ÿ
                                                      ¾þþþþþþþþþþþþþþþþþþþþþþþþþþþþþþþþþþþþþþþþþþþþþþþþþþþþþþþþþþþþþþþþþþþþþ»
000499A 50E0 D000/9008_      00000 26222              SETWCIN  XPROC WCWA
 USING  *,R7
 USING  WCWA-(4+36),R8
 0049B4 D71B 8028 8028 00000 00000 26273                       CLEAR WCWA
 0049BA 4160 8028            00000 26280                       LA    R6,WCWA
 USING  WCWA,R6                    26281                       USING WCWA,R6
                                   26290
 0049BE 9120 B3BE/4710_003BE       26291                       IF    ~CPSFSPR,BEGIN      Priv'd command
 0049C6 58E0 73FC/0DEE       04DB0 26306  1                      VCALL NOTVALID
 0049CC                            26310                       END
                                   26314
 0049CC 5810 B08C/1B00_      0008C 26315                       SCAN  ,                   Get WCOUNTER name
 004A1A 58E0 7398/0DEE       04D4C 26346                       SCANCHK
                                   26351
 004A20 1200/4770 707E             26352                       IF    (R0,Z),BEGIN
 004A26 4110 74EB/4100_      04E9F 26366  1                      ERROR 'Missing option.'
 004A32                            26373                       END
                                   26377
 004A32 58F0 B08C/4110_      0008C 26378                       SCUPCASE WCKEY
                                   26399                       ¿þþþþþþþþþþþþþþþþþþþþþþþþþÜ
                                   26400                       Ÿ  Get old WCINIT entry.  Ÿ
                                   26401                       ¾þþþþþþþþþþþþþþþþþþþþþþþþþ»
 004A44 4100 0003            00003 26402                       LA    R0,CV#WC            WCINIT record set
 004A48 41F0 C360            00360 26403                       LA    R15,CVRG16
 004A4C 58E0 73F0/0DEE       04DA4 26404                       VCALL XSETSET             Set correct record set
                                   26408
 004A52 4120 6000            00000 26409                       LA    R2,WCKEY            Key is the WCOUNTER name
 004A56 4110 6010/4100_      00010 26410                       SETMSG WCDATA
 004A5E 41F0 C360            00360 26424                       LA    R15,CVRG16
 004A62 58E0 7404/0DEE       04DB8 26425                       VCALL XGET                Get previous info (if any)
                                   26429                       ¿þþþþþþþþþþþþþþþþþþþþþþþþþÜ
                                   26430                       Ÿ  Scan for new options.  Ÿ
                                   26431                       ¾þþþþþþþþþþþþþþþþþþþþþþþþþ»
 004A68 5810 B08C/1B00_      0008C 26432                       SCAN  SETWCPRT            Scan SET WCINIT options
 004ABA 58E0 7398/0DEE       04D4C 26464                       SCANCHK
                                   26469                       ¿þþþþþþþþþþþþþþþþþþþþþþþþþþþþÜ
                                   26470                       Ÿ  Add/Update WCINIT entry.  Ÿ
                                   26471                       ¾þþþþþþþþþþþþþþþþþþþþþþþþþþþþ»
 004AC0 4100 0003            00003 26472                       LA    R0,CV#WC            WCINIT record set
 004AC4 41F0 C360            00360 26473                       LA    R15,CVRG16
 004AC8 58E0 73F0/0DEE       04DA4 26474                       VCALL XSETSET             Set correct record set
                                   26478
 004ACE 4120 6000            00000 26479                       LA    R2,WCKEY            Key is the WCOUNTER name
 004AD2 4110 6010/4100_      00010 26480                       SETMSG WCDATA
 004ADA 41F0 C360            00360 26494                       LA    R15,CVRG16
 004ADE 58E0 740C/0DEE       04DC0 26495                       VCALL XPUT                Update information
 004AE4 4780 7140/4110_      04AF4 26499                       IF    NZ,'ABORT "No more room (or record set error)."'
                                   26522
1ACMD     (ACMD4072) (12:39) (15MAR04) SET/SHOW COST Command                                                                Page   64
0Current Usings:  (WCWA,R6) (*,R7) (WCWA-(4+36),R8) (CP,R11) (CV,R12)
0Loc    Object Code    Addr1 Addr2  Stmt Lv Lineno    Source Statement           (Hibal 5, Asmedit 3.3)  HLASM R4.0  2004/03/15 12.39
+___    ______ ____    _____ _____  ____ __ ______    ______ _________
0004AF4 47F0 C7DE            007DE 26523                       B     CVNEXT
 004AF8 18D8/9808 D004_            26524                       PEND
 DROP   WCWA-(4+36),R8
 DROP   *,R7
                                   26549                       ¿þþþþþþþþþþþþþþþþþþþþþþþÜ
                                   26550                       Ÿ  SET WCINIT options.  Ÿ
                                   26551                       ¾þþþþþþþþþþþþþþþþþþþþþþþ»
 004B08 D7C1E2E2E6D6D9C4_          26552              SETWCPRT SCKW  PASSWORD,XWCPAS,(A,P)
 004B30 D5D6D7C1E2E2E6D6_          26567                       SCKW  NOPASSWORD,XWCNOPAS,A
 004B58 C3D6E2E340404040_          26582                       SCKW  COST,XWCCOS,(A,P,LN)
 004B80 4040404040404040_          26597                       SCKW  ,V(NOTVALID)
                                   26612
 004BA8 50E0 D000/9008_      00000 26613              XWCNOPAS PROC
 USING  *,R7
 004BC2 D707 6010 6010 00010 00010 26652                       CLEAR WCPASS
 004BC8 18D8/9808 D004_            26659                       PEND
 DROP   *,R7
                                   26679
 004BD6 50E0 D000/9008_      00000 26680              XWCPAS   PROC
 USING  *,R7
 004BF0 58F0 B08C/4110_      0008C 26719                       SCUPCASE WCPASS
 004C02 1BFF                       26740                       CLEAR R15
 004C04 18D8/9808 D004_            26744                       PEND
 DROP   *,R7
                                   26764
 004C12 50E0 D000/9008_      00000 26765              XWCCOS   PROC
 USING  *,R7
 004C2C 5000 6018            00018 26804                       ST    R0,WCCOST
 004C30 18D8/9808 D004_            26805                       PEND
 DROP   *,R7
                                   26825
 DROP   WCWA,R6                    26826                       DROP  R6
1ACMD     (ACMD4072) (12:39) (15MAR04) SET/SHOW COST Command                                                                Page   65
0Current Usings:  (CP,R11) (CV,R12)
0Loc    Object Code    Addr1 Addr2  Stmt Lv Lineno    Source Statement           (Hibal 5, Asmedit 3.3)  HLASM R4.0  2004/03/15 12.39
+___    ______ ____    _____ _____  ____ __ ______    ______ _________
0                                  26834              ¿þþþþþþþþþþþþþþþþþþþþþþþþþþþþþþþþþþþþþþþþþþþþþþþþþþþþþþþþþþþþþþþþþþþþþÜ
                                   26835              Ÿ                                                                     Ÿ
                                   26836              Ÿ  SHOWCOST -- SHOW COST command.                                     Ÿ
                                   26837              Ÿ                                                                     Ÿ
                                                      ¾þþþþþþþþþþþþþþþþþþþþþþþþþþþþþþþþþþþþþþþþþþþþþþþþþþþþþþþþþþþþþþþþþþþþþ»
0004C3E 50E0 D000/9008_      00000 26838              SHOWCOST XPROC ,
 USING  *,R7
 004C58 5810 B08C/1B00_      0008C 26878                       SCAN  COSTPRT
 004CAA 58E0 70F4/0DEE       04D4C 26910                       SCANCHK
                                   26915                       ¿þþþþþþþþþþþþþþþþþþþþþþþþþþÜ
                                   26916                       Ÿ  Display session costs.  Ÿ
                                   26917                       ¾þþþþþþþþþþþþþþþþþþþþþþþþþþ»
 004CB0 58E0 7170/0DEE       04DC8 26918                       VCALL DISPCOST            Display session cost
 004CB6 47F0 C7DE            007DE 26922                       B     CVNEXT
 004CBA 18D8/9808 D004_            26923                       PEND
 DROP   *,R7
                                   26943
 004CC8 4040404040404040_          26944              COSTPRT  SCKW  ,V(INTPSH),PUSH
 004CF0 4040404040404040_          26959                       SCKW  ,V(COLLPSH),PUSH
 004D18 4040404040404040_          26974                       SCKW  ,V(NOTVALID)
                                   26989
                                   26990                       QLTORG
1ACMD     (ACMD4072) (12:39) (15MAR04) FORCPASS -- Force PASSWORD change at logon                                           Page   66
0Current Usings:  (CP,R11) (CV,R12)
0Loc    Object Code    Addr1 Addr2  Stmt Lv Lineno    Source Statement           (Hibal 5, Asmedit 3.3)  HLASM R4.0  2004/03/15 12.39
+___    ______ ____    _____ _____  ____ __ ______    ______ _________
0                                  27065              ¿þþþþþþþþþþþþþþþþþþþþþþþþþþþþþþþþþþþþþþþþþþþþþþþþþþþþþþþþþþþþþþþþþþþþþÜ
                                   27066              Ÿ                                                                     Ÿ
                                   27067              Ÿ  FORCPASS -- Routine to force PASSWORD change at logon              Ÿ
                                   27068              Ÿ                                                                     Ÿ
                                   27069              Ÿ      ON ENTRY:  R1 -> KWR                                           Ÿ
                                   27070              Ÿ                                                                     Ÿ
                                   27071              Ÿ      ON EXIT:   PASSWORD is changed (or user is logged off)         Ÿ
                                   27072              Ÿ                                                                     Ÿ
                                                      ¾þþþþþþþþþþþþþþþþþþþþþþþþþþþþþþþþþþþþþþþþþþþþþþþþþþþþþþþþþþþþþþþþþþþþþ»
0004ED2 50E0 D000/9008_      00000 27073              FORCPASS XPROC
 USING  *,R7
 004EEC 1851                       27113                       LR    R5,R1               Copy KWR ptr
 USING  KWR,R5                     27114                       USING (KWR,R5)
                                   27124            C          TSEG  'The PASSWORD for this privileged account has not been c
 004EEE 4110 774E/4100_      0563A                                   hanged for',,B
 004F00 18F3/1B00/4110_            27142                       BTD   CPDOUB,0,(R3)
 004F0E 41F0 B050/58E0_      00050 27162                       TSEG  (R1),(R0),B
 004F18 4110 778F/4100_      0567B 27186                       TSEG  'days.',,WR
 004F2A 4110 7794/4100_      05680 27204                       TSEG  'You must change it at this time or be logged off.',,WR
                                   27222
 004F3C 4110 74C4/4100_      053B0 27223              FORCNEW  TSEG  'Enter your NEW PASSWORD.',,WR
 004F4E 1BFF                       27241                       CLEAR R15                 Prompt for PASSWORD
 004F50 58E0 75C8/0DEE       054B4 27245                       ACALL READPW              Get a PASSWORD
 004F56 4770 707A            04F66 27249                       IF    Z,BEGIN             Hit break - naughty naughty
 004F5A 58F0 C1C8            001C8 27260  1                      L     R15,CVCURJCB        Point to current JCB
 004F5E 9680 F062      00062       27261  1                      WITH  (JCB,R15),'SET JCBAFALO'  Logoff
 USING  JCB,R15
 DROP   JCB,R15
 004F62 47F0 C7DE            007DE 27290  1                      B     CVNEXT              Sorry, Charlie ...
 004F66                            27291                       END
                                   27295
 004F66 D507 5070 F000_00070 00000 27296                       IF    (KWRPASS,EQ,@R15),BEGIN
                                   27313  1         C            TSEG  'Re-statement of the old PASSWORD does not constitute a
 004F70 4110 7630/4100_      0551C        1                            CHANGE.',,WR
 004F82 47F0 7050            04F3C 27331  1                      B     FORCNEW             Try again
 004F86                            27332                       END
                                   27336
 004F86 5900 75CC/47B0_      054B8 27337                       IF    (R0,LT,5),BEGIN
 004F8E 4110 74DC/4100_      053C8 27354  1                      TSEG  'The PASSWORD must be at least 5 characters long.',,WR
 004FA0 47F0 7050            04F3C 27372  1                      B     FORCNEW             Try again
 004FA4                            27373                       END
                                   27377
 004FA4 D207 5070 F000 00070 00000 27378                       MVC   KWRPASS,@R15        Move in new PASSWORD
 004FAA 4110 77C5/4100_      056B1 27379                       TSEG 'Enter the same new password again for verification.',,WR
 004FBC 1BFF                       27397                       CLEAR R15                 Prompt for PASSWORD
 004FBE 58E0 75C8/0DEE       054B4 27401                       ACALL READPW              Ask again
 004FC4 4770 70E8            04FD4 27405                       IF    Z,BEGIN             Hit break - naughty naughty
 004FC8 58F0 C1C8            001C8 27416  1                      L     R15,CVCURJCB        Point to current JCB
 004FCC 9680 F062      00062       27417  1                      WITH  (JCB,R15),'SET JCBAFALO'  Logoff
 USING  JCB,R15
 DROP   JCB,R15
 004FD0 47F0 C7DE            007DE 27446  1                      B     CVNEXT              Sorry, charlie ...
 004FD4                            27447                       END
1ACMD     (ACMD4072) (12:39) (15MAR04) FORCPASS -- Force PASSWORD change at logon                                           Page   67
0Current Usings:  (KWR,R5) (*,R7) (CP,R11) (CV,R12)
0Loc    Object Code    Addr1 Addr2  Stmt Lv Lineno    Source Statement           (Hibal 5, Asmedit 3.3)  HLASM R4.0  2004/03/15 12.39
+___    ______ ____    _____ _____  ____ __ ______    ______ _________
0                                  27451
 004FD4 D507 5070 F000_00070 00000 27452                       IF    (KWRPASS,NE,@R15),BEGIN
 004FDE 4110 77F8/4100_      056E4 27469  1                      TSEG  'PASSWORD verification error',,WR
 004FF0 58F0 C1C8            001C8 27487  1                      L     R15,CVCURJCB        POINT TO CURRENT JCB
 004FF4 9680 F062      00062       27488  1                      WITH  (JCB,R15),'SET JCBAFALO'  Logoff
 USING  JCB,R15
 DROP   JCB,R15
 004FF8 47F0 C7DE            007DE 27517  1                      B     CVNEXT              Sorry, Charlie ...
 004FFC                            27518                       END
                                   27522
 004FFC                            27523                       LOOP  BEGIN
 004FFC B205 BC88      00C88       27529  1                      STCK  CPDOUB
 005000 D203 505C BC88 0005C 00C88 27530  1                      MVC   KWRKTIM,CPDOUB      SAVE TIME & DATE
 005006 58E0 75D0/0DEE       054BC 27531  1                      ACALL PUTKWR
 00500C 4770 7110            04FFC 27535                       UNTIL Z,END
                                   27554
 005010 4100 0060            00060 27555                       LA    R0,SMFWKEY+SMFWAUTH SET PASSWORD command
 005014 58E0 75D4/0DEE       054C0 27556                       VCALL LOGKWR              Write smf log record
                                   27560
 00501A 18D8/9808 D004_            27561                       PEND
 DROP   *,R7
 DROP   KWR,R5                     27581                       DROP  BR,R5,R6
1ACMD     (ACMD4072) (12:39) (15MAR04) SET PASSWORD Command                                                                 Page   68
0Current Usings:  (CP,R11) (CV,R12)
0Loc    Object Code    Addr1 Addr2  Stmt Lv Lineno    Source Statement           (Hibal 5, Asmedit 3.3)  HLASM R4.0  2004/03/15 12.39
+___    ______ ____    _____ _____  ____ __ ______    ______ _________
0                                  27595              ¿þþþþþþþþþþþþþþþþþþþþþþþþþþþþþþþþþþþþþþþþþþþþþþþþþþþþþþþþþþþþþþþþþþþþþÜ
                                   27596              Ÿ                                                                     Ÿ
                                   27597              Ÿ  SETPASS -- SET PASSWORD command.                                   Ÿ
                                   27598              Ÿ                                                                     Ÿ
                                                      ¾þþþþþþþþþþþþþþþþþþþþþþþþþþþþþþþþþþþþþþþþþþþþþþþþþþþþþþþþþþþþþþþþþþþþþ»
0000000                00000 002B8 27599              KEYWA    RECORD BEGIN
 000000                            27607  1           KEYNEW     DS    CL8                 New password
 000008                            27608  1           KEYWAWA    DS    XL(L'WA)
 0002B8                002B8 002B8 27609                       END
                                   27618              þþþþ
 005028 50E0 D000/9008_      00000 27619              SETPASS  XPROC KEYWA
 USING  *,R7
 USING  KEYWA-(4+36),R8
 005042 D7FF 8028 8028_00000 00000 27670                       CLEAR KEYWA
                                   27679
 005054 4150 8030            00008 27680                       LA    R5,KEYWAWA
 USING  WA,R5                      27681                       USING WA,R5
                                   27690
 005058 58E0 7482/0DEE       054C4 27691                       VCALL ORVCPASS            Send to SPIRES first
                                   27695
 00505E D204 BC48 B3B4 00C48 003B4 27696                       MVC   CPCACCT,CPSACCT
                                   27697
 005064 4100 0001            00001 27698                       LA    R0,1
 005068 58E0 7486/0DEE       054C8 27699                       ACALL GETAENT
                                   27703
 00506E 5810 B08C/1B00_      0008C 27704                       SCAN  KEYPRT
 0050C0 58E0 7492/0DEE       054D4 27736                       SCANCHK
 0050C6 58E0 7496/0DEE       054D8 27741                       ACALL SEGACCT
 0050CC 1B00/41F0 B050_            27745                       TWRITE
                                   27770
 0050D8 D607 5070 5070_00070 00070 27771                       IF    ((KWRPASS,NZ),AND,(KWRPASS,NE,CVBLANKS)),BEGIN
 0050EC 4110 751A/4100_      0555C 27804  1                      TSEG  'Enter '
 0050FE 4110 749E/4100_      054E0 27822  1                      SETMSG 'your'
 005106 D504 BC48 B3B4_00C48 003B4 27826  1                      IF    (CPCACCT,NE,CPSACCT),'SETMSG "the"'
 005118 41F0 B050/58E0_      00050 27853  1                      TSEG  (R1),(R0)
 005122 4110 7520/4100_      05562 27877  1                      TSEG  ' current password.',,WR
 005134 58E0 7472/0DEE       054B4 27895  1                      ACALL READPW
 00513A 4780 C7EA            007EA 27899  1                      BZ    CVNOACTN            (ATTENTION)
 00513E 90F1 D000/41D0_      00000 27900  1                      DELAY                     Wait a bit ...
 USING  JCB,R1
 DROP   JCB,R1
 005166 D507 5070 F000_00070 00000 27945  1                      IF    (@R15,NE,KWRPASS),BEGIN
 005170 58E0 74A6/0DEE       054E8 27962  2                        ACALL WATCHKW
 005176 D207 B886 73B6_00886 053F8 27966  2                        ERROR 'Incorrect password.',,BADKW
 005188                            27974  1                      END
 005188                            27978                       END
                                   27982
 005188 4110 751A/4100_      0555C 27983              KEYREP   TSEG  'Enter '
 00519A 4110 749E/4100_      054E0 28001                       SETMSG 'your'
 0051A2 D504 BC48 B3B4_00C48 003B4 28005                       IF    (CPCACCT,NE,CPSACCT),'SETMSG "the"'
 0051B4 41F0 B050/58E0_      00050 28032                       TSEG  (R1),(R0)
 0051BE 4110 7534/4100_      05576 28056                       TSEG  ' new password.',,WR
 0051D0 58E0 7472/0DEE       054B4 28074                       ACALL READPW
1ACMD     (ACMD4072) (12:39) (15MAR04) SET PASSWORD Command                                                                 Page   69
0Current Usings:  (WA,R5) (*,R7) (KEYWA-(4+36),R8) (CP,R11) (CV,R12)
0Loc    Object Code    Addr1 Addr2  Stmt Lv Lineno    Source Statement           (Hibal 5, Asmedit 3.3)  HLASM R4.0  2004/03/15 12.39
+___    ______ ____    _____ _____  ____ __ ______    ______ _________
00051D6 4780 C7EA            007EA 28078                       BZ    CVNOACTN            (ATTENTION)
 0051DA D207 8028 F000 00000 00000 28079                       MVC   KEYNEW,@R15
                                   28080
 0051E0 5900 74AA/47D0_      054EC 28081                       IF    (R0,GT,L'KWRPASS),BEGIN  Too long...
 0051E8 4110 73BE/4100_      05400 28098  1                      TSEG  'Your password can''t be longer than 8 characters.',,WR
 0051FA 47F0 7146            05188 28116  1                      B     KEYREP
 0051FE                            28117                       END
                                   28121
 0051FE 5900 7476/47B0_      054B8 28122                       IF    (R0,LT,5),BEGIN     Too short...
 005206 4110 76D3/4100_      05715 28139  1                      TSEG  'Your password must be at least 5 characters long.',,WR
 005218 47F0 7146            05188 28157  1                      B     KEYREP
 00521C                            28158                       END
                                   28162                       ¿þþþþþþþþþþþþþþþþþþþþþþþþþþþþþþþþþþþþþþþþþþþþþþþþþþþþþþþþþÜ
                                   28163                       Ÿ  Make sure that new passwords conform to IBM's wishes.  Ÿ
                                   28164                       Ÿ    (For more information look in the PROT module.)      Ÿ
                                   28165                       ¾þþþþþþþþþþþþþþþþþþþþþþþþþþþþþþþþþþþþþþþþþþþþþþþþþþþþþþþþþ»
 00521C 4110 8028            00000 28166                       LA    R1,KEYNEW
 005220 58E0 74AE/0DEE       054F0 28167                       VCALL RACPASCK            Check password validity
 005226 4780 7294            052D6 28171                       IF    NZ,BEGIN            Not good...
 00522A 59F0 74B2/4770_      054F4 28182  1                      IF    (R15,EQ,8),BEGIN    Too short...
 005232 4110 74B6/4100_      054F8 28199  2                        TSEG  'This password is too short, '
 005244 4110 73EE/4100_      05430 28217  2                        TSEG  'please use a longer one.',,CR
 005256 47F0 7146            05188 28235  2                        B     KEYREP
 00525A                            28236  1                      END
 00525A 4110 7406/4100_      05448 28240  1                      TSEG  'Please pick a password without "special"'
 00526C 4110 7542/4100_      05584 28258  1                      TSEG  ' characters in it.',,CR
 00527E 4110 7554/4100_      05596 28276  1                      TSEG  'Passwords can only contain alphabetic, numeric'
 005290 4110 7704/4100_      05746 28294  1                      TSEG  ' and national (#,$,@) characters.',,CR
 0052A2 4110 7582/4100_      055C4 28312  1                      TSEG  'For example, 54132 is a valid password and TRY23% '
 0052B4 4110 742E/4100_      05470 28330  1                      TSEG  'is not a valid password.',,CR
 0052C6 1B00/41F0 B050_            28348  1                      TCR
 0052D2 47F0 7146            05188 28373  1                      B     KEYREP
 0052D6                            28374                       END
                                   28378
 0052D6 4110 75B4/4100_      055F6 28379              KEYREP2  TSEG  'Enter the same new password again '
 0052E8 4110 7725/4100_      05767 28397                       TSEG  'for verification.',,WR
 0052FA 58E0 7472/0DEE       054B4 28415                       ACALL READPW
 005300 4780 C7EA            007EA 28419                       BZ    CVNOACTN            (ATTENTION)
 005304 D507 8028 F000_00000 00000 28420                       IF    (@R15,NE,KEYNEW),BEGIN
 00530E 4110 7446/4100_      05488 28437  1                      TSEG  'The passwords are not the same, '
 005320 4110 75D6/4100_      05618 28455  1                      ABORT 'the new password has not been set.'
 00532C                            28462                       END
                                   28466
 00532C                            28467                       LOOP  BEGIN
 00532C D207 5070 8028 00070 00000 28473  1                      MVC   KWRPASS,KEYNEW
                                   28474  1                      AIF   (&KEYUPLO).KEYUPL1
 005332 D607 5070 C4D8 00070 004D8 28475  1                      OC    KWRPASS,CVBLANKS    Force upper case
                                   28476  1           .KEYUPL1   ANOP
 005338 B205 BC88      00C88       28477  1                      STCK  CPDOUB
 00533C D203 505C BC88 0005C 00C88 28478  1                      MVC   KWRKTIM,CPDOUB      Save time & date
 005342 58E0 747A/0DEE       054BC 28479  1                      ACALL PUTKWR
 005348 4770 72EA            0532C 28483                       UNTIL Z,END
1ACMD     (ACMD4072) (12:39) (15MAR04) SET PASSWORD Command                                                                 Page   70
0Current Usings:  (WA,R5) (*,R7) (KEYWA-(4+36),R8) (CP,R11) (CV,R12)
0Loc    Object Code    Addr1 Addr2  Stmt Lv Lineno    Source Statement           (Hibal 5, Asmedit 3.3)  HLASM R4.0  2004/03/15 12.39
+___    ______ ____    _____ _____  ____ __ ______    ______ _________
0                                  28502                       ¿þþþþþþþþþþþþþþþþþþþþþþþþþþþþþþþþþþþþþþþþþþþþÜ
                                   28503                       Ÿ  Tell RACF that the password has changed.  Ÿ
                                   28504                       ¾þþþþþþþþþþþþþþþþþþþþþþþþþþþþþþþþþþþþþþþþþþþþ»
 00534C 41F0 5000            00000 28505                       LA    R15,KWRACCT         Account (in "uuugg" form)
 005350 4110 5070            00070 28506                       LA    R1,KWRPASS          Password
 005354 58E0 74D6/0DEE       05518 28507                       VCALL RACUPDPW            Update password
                                                               ¿þþþþþþþþþþþþþþþþþþþþþþþþþþþþþþþþþÜ
                                   28511                       Ÿ              p                  Ÿ
                                   28512                       Ÿ  Log the SET PASSWORD command.  Ÿ
                                   28513                       ¾þþþþþþþþþþþþþþþþþþþþþþþþþþþþþþþþþ»
 00535A 4100 0060            00060 28514                       LA    R0,SMFWKEY+SMFWAUTH
 00535E 58E0 747E/0DEE       054C0 28515                       VCALL LOGKWR              Write SMF log record
                                   28519
 005364 D7FF 5000 5000_00000 00000 28520                       CLEAR KWR
 005370 47F0 C7DE            007DE 28528                       B     CVNEXT
                                   28529
 005374 18D8/9808 D004_            28530                       PEND
 DROP   KEYWA-(4+36),R8
 DROP   *,R7
 DROP   WA,R5                      28555                       DROP  WA
                                   28563
 005384 4040404040404040_          28564              KEYPRT   SCKW  ,V(NOTVALID)
                                   28579
                                   28580                       QLTORG
                                   28644
1ACMD     (ACMD4072) (12:39) (15MAR04) SHOW LTIME Command                                                                   Page   71
0Current Usings:  (CP,R11) (CV,R12)
0Loc    Object Code    Addr1 Addr2  Stmt Lv Lineno    Source Statement           (Hibal 5, Asmedit 3.3)  HLASM R4.0  2004/03/15 12.39
+___    ______ ____    _____ _____  ____ __ ______    ______ _________
0                                  28646              ¿þþþþþþþþþþþþþþþþþþþþþþþþþþþþþþþþþþþþþþþþþþþþþþþþþþþþþþþþþþþþþþþþþþþþþÜ
                                   28647              Ÿ                                                                     Ÿ
                                   28648              Ÿ  SHOWLTIM -- SHOW LTIME command.                                    Ÿ
                                   28649              Ÿ                                                                     Ÿ
                                                      ¾þþþþþþþþþþþþþþþþþþþþþþþþþþþþþþþþþþþþþþþþþþþþþþþþþþþþþþþþþþþþþþþþþþþþþ»
0005778 50E0 D000/9008_      00000 28650              SHOWLTIM XPROC WA
 USING  *,R7
 USING  WA-(4+36),R8
                                   28701
 005792 D7FF 8028 8028_00000 00000 28702                       CLEAR WA
 0057A4 4150 8028            00000 28711                       LA    R5,WA
 USING  WA,R5                      28712                       USING WA,R5
                                   28721
 0057A8 D204 BC48 B3B4 00C48 003B4 28722                       MVC   CPCACCT,CPSACCT
 0057AE 4100 0001            00001 28723                       LA    R0,1
 0057B2 58E0 7756/0DEE       05EE8 28724                       ACALL GETAENT
                                   28728
 0057B8 58E0 775A/0DEE       05EEC 28729                       VCALL COLLOPTS            Allow standard options
 0057BE 58E0 775E/0DEE       05EF0 28733                       ACALL SEGACCT
 0057C4 4110 5000            00000 28737                       LA    R1,KWR
 0057C8 58E0 7762/0DEE       05EF4 28738                       ACALL LTIMDISP
 0057CE D7FF 5000 5000_00000 00000 28742                       CLEAR KWR
 0057DA 47F0 C7DE            007DE 28750                       B     CVNEXT
                                   28751
 0057DE 18D8/9808 D004_            28752                       PEND
 DROP   WA-(4+36),R8
 DROP   *,R7
 DROP   WA,R5                      28777                       DROP  WA
1ACMD     (ACMD4072) (12:39) (15MAR04) SHOW LTIME Command                                                                   Page   72
0Current Usings:  (CP,R11) (CV,R12)
0Loc    Object Code    Addr1 Addr2  Stmt Lv Lineno    Source Statement           (Hibal 5, Asmedit 3.3)  HLASM R4.0  2004/03/15 12.39
+___    ______ ____    _____ _____  ____ __ ______    ______ _________
0                                  28786              ¿þþþþþþþþþþþþþþþþþþþþþþþþþþþþþþþþþþþþþþþþþþþþþþþþþþþþþþþþþþþþþþþþþþþþþÜ
                                   28787              Ÿ                                                                     Ÿ
                                   28788              Ÿ  LTIMDISP -- Routine to display time of last logoff (also called    Ÿ
                                   28789              Ÿ    by COMM at logon).                                               Ÿ
                                   28790              Ÿ                                                                     Ÿ
                                   28791              Ÿ      On entry:                                                      Ÿ
                                   28792              Ÿ        R1 - KWR ptr                                                 Ÿ
                                   28793              Ÿ                                                                     Ÿ
                                   28794              Ÿ      On exit, R15 (and CC):                                         Ÿ
                                   28795              Ÿ        0 - ok                                                       Ÿ
                                   28796              Ÿ        nz- attn on twrite                                           Ÿ
                                   28797              Ÿ                                                                     Ÿ
                                                      ¾þþþþþþþþþþþþþþþþþþþþþþþþþþþþþþþþþþþþþþþþþþþþþþþþþþþþþþþþþþþþþþþþþþþþþ»
00057EC 50E0 D000/9008_      00000 28798              LTIMDISP XPROC
 USING  *,R7
 005806 1861                       28838                       LR    R6,R1
 USING  KWR,R6                     28839                       USING KWR,R6
                                   28848
 005808 D603 6058 6058_00058 00058 28849                       IF    (KWRLTIM,Z),'TSEG "No last logoff time."'
                                   28888
 005824 7022/47F0 7088 05824 05810 28889                       ELSE  BEGIN
 005828 4110 76AA/4100_      05EB0 28900  1                      TSEG  'Last logoff was '
 00583A 5800 6058            00058 28918  1                      L     R0,KWRLTIM
 00583E 1B11                       28919  1                      CLEAR R1
 005840 18FD/41D0 D020             28923  1                      XPUSH ,,32,PTR=R15
 005846 58E0 770A/0DEE       05F10 28926  1                      VCALL FMTXDATE            Nicely formatted time/date
 00584C 41F0 B050/58E0_      00050 28930  1                      TSEG  (R1),(R0)
                                   28954  1
 005856 D613 61A2 61A2_001A2 001A2 28955  1                      IF    ((KWRLPORT,NZ),AND,(KWRLPORT,NE,CVBLANKS)),BEGIN
 00586A 4110 775C/4100_      05F62 28988  2                        TSEG  ' from port '
 00587C 4110 61A2/4100_      001A2 29006  2                        TSEG  KWRLPORT
 00588E                            29034  1                      END
 00588E                            29038                       END
                                   29042
 00588E 1B00/41F0 B050_            29043                       TWRITE
 00589A 18D8/9808 D004_            29068                       PEND
 DROP   *,R7
 DROP   KWR,R6                     29088                       DROP  KWR
1ACMD     (ACMD4072) (12:39) (15MAR04) SHOW KTIME Command                                                                   Page   73
0Current Usings:  (CP,R11) (CV,R12)
0Loc    Object Code    Addr1 Addr2  Stmt Lv Lineno    Source Statement           (Hibal 5, Asmedit 3.3)  HLASM R4.0  2004/03/15 12.39
+___    ______ ____    _____ _____  ____ __ ______    ______ _________
0                                  29097              ¿þþþþþþþþþþþþþþþþþþþþþþþþþþþþþþþþþþþþþþþþþþþþþþþþþþþþþþþþþþþþþþþþþþþþþÜ
                                   29098              Ÿ                                                                     Ÿ
                                   29099              Ÿ  SHOWKTIM -- SHOW KTIME command.                                    Ÿ
                                   29100              Ÿ                                                                     Ÿ
                                                      ¾þþþþþþþþþþþþþþþþþþþþþþþþþþþþþþþþþþþþþþþþþþþþþþþþþþþþþþþþþþþþþþþþþþþþþ»
00058A8 50E0 D000/9008_      00000 29101              SHOWKTIM XPROC WA
 USING  *,R7
 USING  WA-(4+36),R8
                                   29152
 0058C2 D7FF 8028 8028_00000 00000 29153                       CLEAR WA
 0058D4 4150 8028            00000 29162                       LA    R5,WA
 USING  WA,R5                      29163                       USING WA,R5
                                   29172
 0058D8 D204 BC48 B3B4 00C48 003B4 29173                       MVC   CPCACCT,CPSACCT
 0058DE 4800 7696            05F58 29174                       LH    R0,=H'-1'
 0058E2 58E0 7626/0DEE       05EE8 29175                       ACALL GETAENT
                                   29179
 0058E8 58E0 762A/0DEE       05EEC 29180                       VCALL COLLOPTS            Allow standard options
 0058EE 58E0 762E/0DEE       05EF0 29184                       ACALL SEGACCT
 0058F4 4110 5000            00000 29188                       LA    R1,KWR
 0058F8 58E0 7656/0DEE       05F18 29189                       ACALL KTIMDISP
 0058FE D7FF 5000 5000_00000 00000 29193                       CLEAR KWR
 00590A 47F0 C7DE            007DE 29201                       B     CVNEXT
                                   29202
 00590E 18D8/9808 D004_            29203                       PEND
 DROP   WA-(4+36),R8
 DROP   *,R7
 DROP   WA,R5                      29228                       DROP  WA
1ACMD     (ACMD4072) (12:39) (15MAR04) SHOW KTIME Command                                                                   Page   74
0Current Usings:  (CP,R11) (CV,R12)
0Loc    Object Code    Addr1 Addr2  Stmt Lv Lineno    Source Statement           (Hibal 5, Asmedit 3.3)  HLASM R4.0  2004/03/15 12.39
+___    ______ ____    _____ _____  ____ __ ______    ______ _________
0                                  29237              ¿þþþþþþþþþþþþþþþþþþþþþþþþþþþþþþþþþþþþþþþþþþþþþþþþþþþþþþþþþþþþþþþþþþþþþÜ
                                   29238              Ÿ                                                                     Ÿ
                                   29239              Ÿ  KTIMDISP -- Routine to display time of the last password           Ÿ
                                   29240              Ÿ    change (also called by COMM at logon).                           Ÿ
                                   29241              Ÿ                                                                     Ÿ
                                   29242              Ÿ      On entry:                                                      Ÿ
                                   29243              Ÿ        R1 - KWR ptr                                                 Ÿ
                                   29244              Ÿ                                                                     Ÿ
                                   29245              Ÿ      On exit, R15 (and CC):                                         Ÿ
                                   29246              Ÿ        0 - ok                                                       Ÿ
                                   29247              Ÿ        nz- attn on twrite                                           Ÿ
                                   29248              Ÿ                                                                     Ÿ
                                                      ¾þþþþþþþþþþþþþþþþþþþþþþþþþþþþþþþþþþþþþþþþþþþþþþþþþþþþþþþþþþþþþþþþþþþþþ»
000591C 50E0 D000/9008_      00000 29249              KTIMDISP XPROC
 USING  *,R7
 005936 1861                       29289                       LR    R6,R1
 USING  KWR,R6                     29290                       USING KWR,R6
                                   29299
 005938 D603 605C 605C_0005C 0005C 29300                       IF    (KWRKTIM,Z),'TSEG "No last password change time."'
 005954 7022/47F0 70BE 05954 05940 29339                       ELSE  BEGIN
 005958 4110 7654/4100_      05F8A 29350  1                      TSEG  'Last password change at',,B
 00596A 58E0 75EA/0DEE       05F20 29368  1                      VCALL LOCALTOD
 005970 1820                       29372  1                      LR    R2,R0
 005972 1B33                       29373  1                      CLEAR R3
 005974 5800 605C            0005C 29377  1                      L     R0,KWRKTIM
 005978 1B11                       29378  1                      CLEAR R1
 00597A 18FD/41D0 D020             29382  1                      XPUSH ,,30,PTR=R15
 005980 58E0 75EE/0DEE       05F24 29385  1                      VCALL FMTRCLCK            "hh:mm" or "hh:mm mm/dd/yyyy"
 005986 41F0 B050/58E0_      00050 29389  1                      TSEG  (R1),(R0),B
 005990 4BD0 7624            05F5A 29413  1                      XPOP  ,,30
                                   29415  1
 005994 58E0 605C            0005C 29416  1                      L     R14,KWRKTIM         Time/date of last kw change
 005998 1BFF                       29417  1                      CLEAR R15
 00599A 8CE0 0012            00012 29421  1                      SRDL  R14,12+6            .000001*64 of a sec
 00599E 5DE0 75F2            05F28 29422  1                      D     R14,=A(1000000/64*60*60*24)  No. of days since 1900
 0059A2 B205 BC88      00C88       29423  1                      STCK  CPDOUB
 0059A6 9823 BC88            00C88 29424  1                      LM    R2,R3,CPDOUB        Current time/date
 0059AA 8C20 0012            00012 29425  1                      SRDL  R2,12+6
 0059AE 5D20 75F2            05F28 29426  1                      D     R2,=A(1000000/64*60*60*24)
 0059B2 1B3F                       29427  1                      SR    R3,R15              No. of elapsed days
 0059B4 47D0 70BE            059F4 29428  1                      IF    POS,BEGIN
 0059B8 4110 766B/4100_      05FA1 29439  2                        TSEG  '('
 0059CA 18F3/1B00/4110_            29457  2                        BTD   CPDOUB,0,(R3)
 0059D8 41F0 B050/58E0_      00050 29477  2                        TSEG  (R1),(R0),B
 0059E2 4110 766C/4100_      05FA2 29501  2                        TSEG  'days ago)'
 0059F4                            29519  1                      END
 0059F4                            29523                       END
 0059F4 1B00/41F0 B050_            29527                       TWRITE
 005A00 18D8/9808 D004_            29552                       PEND
 DROP   *,R7
 DROP   KWR,R6                     29572                       DROP  KWR
1ACMD     (ACMD4072) (12:39) (15MAR04) SHOW KTIME Command                                                                   Page   75
0Current Usings:  (CP,R11) (CV,R12)
0Loc    Object Code    Addr1 Addr2  Stmt Lv Lineno    Source Statement           (Hibal 5, Asmedit 3.3)  HLASM R4.0  2004/03/15 12.39
+___    ______ ____    _____ _____  ____ __ ______    ______ _________
0                                  29581              ¿þþþþþþþþþþþþþþþþþþþþþþþþþþþþþþþþþþþþþþþþþþþþþþþþþþþþþþþþþþþþþþþþþþþþþÜ
                                   29582              Ÿ                                                                     Ÿ
                                   29583              Ÿ  SMF -- SMF command  (secret)                                       Ÿ
                                   29584              Ÿ                                                                     Ÿ
                                   29585              Ÿ                                                                     Ÿ
                                   29586              Ÿ                                                                     Ÿ
                                                      ¾þþþþþþþþþþþþþþþþþþþþþþþþþþþþþþþþþþþþþþþþþþþþþþþþþþþþþþþþþþþþþþþþþþþþþ»
0000000                00000 00008 29587              SMFWA    RECORD BEGIN
 000000                            29595  1           SMFNAME    DS    CL8                 Smf logging name
 000008                00008 00008 29596                       END
                                   29605              *
                                   29606              *
 005A0E 50E0 D000/9008_      00000 29607              SMF      XPROC SMFWA
 USING  *,R7
 USING  SMFWA-(4+36),R8
 DROP   SMFWA-(4+36),R8            29658                       USING SMFWA,WAR
 USING  SMFWA,R8
 005A28 D707 8000 8000 00000 00000 29670                       CLEAR SMFWA
 005A2E 5810 B08C/1B00_      0008C 29677                       SCAN  SMFPRT              Scan smf type
 005A80 58E0 7510/0DEE       05F38 29709                       SCANCHK
 005A86 1200/4780 C7F0             29714                       IF    (R0,Z),CVABSENT
                                   29731
 005A8C 58F0 B08C/4110_      0008C 29732                       SCUPCASE SMFNAME          Save smf type
                                   29753
 005A9E 5810 B08C/1B00_      0008C 29754                       SCAN  ,                   Scan smf record text
 005AEC 58E0 7510/0DEE       05F38 29785                       SCANCHK
 005AF2 1200/4780 C7F0             29790                       IF    (R0,Z),CVABSENT
                                   29807              *
                                   29808              * WE ACCEPT: 'SMF TEST "..."'  OR  'SMF TEST / ... '
                                   29809              *
 005AF8 9561 1000/4770_00000       29810                       IF    (@R1,EQ,'/'),BEGIN
 005B00 58E0 B08C/581E_      0008C 29826  1                      SCINFO
 005B0E                            29835                       END
 005B0E 70EA/47F0 70F6 05B0E 05AFE 29839                       ELSE  BEGIN
 005B12 58E0 7518/0DEE       05F40 29850  1                      VCALL CKQUOTES
 005B18 58E0 751C/0DEE       05F44 29854  1                      VCALL DEQUOTE
 005B1E                            29858                       END
 005B1E 41F0 8000            00000 29862                       LA    R15,SMFNAME
 005B22 58E0 7520/0DEE       05F48 29863                       VCALL SMFLOG              Go write SMF record
 005B28 47F0 C7DE            007DE 29867                       B     CVNEXT
 005B2C 18D8/9808 D004_            29868                       PEND  ,
 DROP   SMFWA,R8
 DROP   *,R7
                                   29893
 005B3C D9D3C9D540404040_          29894              SMFPRT   SCKW  RLIN,SMFCOM
 005B64 D9D3C9D5C3D4C440_          29909                       SCKW  RLINCMD,SMFCOM
 005B8C D9D3C9D5E3C5E2E3_          29924                       SCKW  RLINTEST,SMFCOM
 005BB4 E2E2C14040404040_          29939                       SCKW  SSA,SMFCOM
 005BDC D9C1C3C640404040_          29954                       SCKW  RACF,SMFCOM
 005C04 D7C1E2E2E6D6D9C4_          29969                       SCKW  PASSWORD,SMFCOM
 005C2C E2C5C3E4D9C9E3E8_          29984                       SCKW  SECURITY,SMFCOM
 005C54 D7D9D6C4D3C9C2E2_          29999                       SCKW  PRODLIBS,SMFCOM
 005C7C D7D9D6C7E4E2C540_          30014                       SCKW  PROGUSE,SMFCOM
1ACMD     (ACMD4072) (12:39) (15MAR04) SHOW KTIME Command                                                                   Page   76
0Current Usings:  (CP,R11) (CV,R12)
0Loc    Object Code    Addr1 Addr2  Stmt Lv Lineno    Source Statement           (Hibal 5, Asmedit 3.3)  HLASM R4.0  2004/03/15 12.39
+___    ______ ____    _____ _____  ____ __ ______    ______ _________
0005CA4 E3C5E2E340404040_          30029                       SCKW  TEST,SMFCOM
 005CCC D8C1E24040404040_          30044                       SCKW  QAS,SMFCOM
 005CF4 4040404040404040_          30059                       SCKW  ,V(NOTVALID)
                                   30074
 005D1C 50E0 D000/9008_      00000 30075              SMFCOM   PROC  ,
 USING  *,R7
 005D36 41F0 0004            00004 30114                       LA    R15,4
 005D3A 18D8/9808 D004_            30115                       PEND  ,
 DROP   *,R7
1ACMD     (ACMD4072) (12:39) (15MAR04) SET/SHOW SMF Commands                                                                Page   77
0Current Usings:  (CP,R11) (CV,R12)
0Loc    Object Code    Addr1 Addr2  Stmt Lv Lineno    Source Statement           (Hibal 5, Asmedit 3.3)  HLASM R4.0  2004/03/15 12.39
+___    ______ ____    _____ _____  ____ __ ______    ______ _________
0                                  30136              ¿þþþþþþþþþþþþþþþþþþþþþþþþþþþþþþþþþþþþþþþþþþþþþþþþþþþþþþþþþþþþþþþþþþþþþÜ
                                   30137              Ÿ                                                                     Ÿ
                                   30138              Ÿ  SETSMF -- SET SMF/NOSMF command  (priv'd)                          Ÿ
                                   30139              Ÿ                                                                     Ÿ
                                                      ¾þþþþþþþþþþþþþþþþþþþþþþþþþþþþþþþþþþþþþþþþþþþþþþþþþþþþþþþþþþþþþþþþþþþþþ»
0005D48 50E0 D000/9008_      00000 30140              SETSMF   XPROC
 USING  *,R7
                                   30180
 005D62 9160 B3BE/4770_003BE       30181                       IF    (CPSFAPR+CPSFSPR,Z),BEGIN
 005D6A 58E0 71EA/0DEE       05F4C 30201  1                      VCALL NOTVALID
 005D70                            30205                       END
                                   30209
 005D70 4110 7249/4100_      05FAB 30210                       TSEG  'SMF session accounting will be turned',,B
 005D82 4110 71FC/4100_      05F5E 30228                       SETMSG 'on'
 005D8A D502 726E BD24_05FD0 00D24 30232                       IF    (CPCMNM,NE,'SMF'),'SETMSG "off"'
 005D9C 41F0 B050/58E0_      00050 30258                       TSEG  (R1),(R0),CR
 005DA6 4110 71FE/4100_      05F60 30282                       SETMSG 'OK'
 005DAE 58E0 71F2/0DEE       05F54 30286                       VCALL YESREQ
                                   30290
 005DB4 D202 70E6 7274 05E48 05FD6 30291                       MVC   SMSGON,=C'ON '
 005DBA D502 726E BD24_05FD0 00D24 30292                       IF    (CPCMNM,NE,'SMF'),'MVC SMSGON,=C"OFF"'
 005DCA D201 70ED B3B7 05E4F 003B7 30315                       MVC   SMSGGRP,CPSGRP
 005DD0 D202 70F0 B3B4 05E52 003B4 30316                       MVC   SMSGUSER,CPSUSER
 005DD6 4110 70C8/4100_      05E2A 30317                       XWTO  SMSG
                                   30344
 005DE8 41F0 715E            05EC0 30345                       LA    R15,=CL8'SETSMF'
 005DEC 4110 B242/4800_      00242 30346                       SETMSG CPCMD,LH:CPCMDLEN
 005DF4 58E0 71E6/0DEE       05F48 30359                       VCALL SMFLOG              For the record
                                   30363
 005DFA 94DF CA00      00A00       30364                       CLEAR CVFNOSMF            Assume smf
 005DFE D502 726E BD24_05FD0 00D24 30371                       IF    (CPCMNM,NE,'SMF'),'SET CVFNOSMF'
 005E0C 41F0 0001/4AF0_      00001 30399                       INCR  R15,CVCHKUC         Time to do checkpoint I/O
                                   30405
 005E18 47F0 C7DE            007DE 30406                       B     CVNEXT
 005E1C 18D8/9808 D004_            30407                       PEND
 DROP   *,R7
                                   30427
 005E2A E2D4C640A285A2A2           30428              SMSGSTRT DC    C'SMF session accounting turned '
 005E48 5C5C5C4082A840             30429              SMSGON   DC    C'***',C' by '
 005E4F 6F6F4B                     30430              SMSGGRP  DC    C'??',C'.'
 005E52 6F6F6F                     30431              SMSGUSER DC    C'???'
                                   30432              SMSG     EQU   SMSGSTRT,*-SMSGSTRT,C'X'
1ACMD     (ACMD4072) (12:39) (15MAR04) SET/SHOW SMF Commands                                                                Page   78
0Current Usings:  (CP,R11) (CV,R12)
0Loc    Object Code    Addr1 Addr2  Stmt Lv Lineno    Source Statement           (Hibal 5, Asmedit 3.3)  HLASM R4.0  2004/03/15 12.39
+___    ______ ____    _____ _____  ____ __ ______    ______ _________
0                                  30434              ¿þþþþþþþþþþþþþþþþþþþþþþþþþþþþþþþþþþþþþþþþþþþþþþþþþþþþþþþþþþþþþþþþþþþþþÜ
                                   30435              Ÿ                                                                     Ÿ
                                   30436              Ÿ  SHOWSMF -- SHOW SMF command.                                       Ÿ
                                   30437              Ÿ                                                                     Ÿ
                                                      ¾þþþþþþþþþþþþþþþþþþþþþþþþþþþþþþþþþþþþþþþþþþþþþþþþþþþþþþþþþþþþþþþþþþþþþ»
0005E56 50E0 D000/9008_      00000 30438              SHOWSMF  XPROC
 USING  *,R7
 005E70 4110 7058/4100_      05EC8 30478                       TSEG  'SMF session accounting is turned',,B
 005E82 4110 70EE/4100_      05F5E 30496                       SETMSG 'on'
 005E8A 9120 CA00/47E0_00A00       30500                       IF    CVFNOSMF,'SETMSG "off"'
 005E9A 47F0 C7D0            007D0 30524                       B     CVNXTMSG
                                   30525
 005E9E 18D8/9808 D004_            30526                       PEND
 DROP   *,R7
-                                  30547                       QLTORG
1ACMD     (ACMD4072) (12:39) (15MAR04) SET PRIV Command                                                                     Page   79
0Current Usings:  (CP,R11) (CV,R12)
0Loc    Object Code    Addr1 Addr2  Stmt Lv Lineno    Source Statement           (Hibal 5, Asmedit 3.3)  HLASM R4.0  2004/03/15 12.39
+___    ______ ____    _____ _____  ____ __ ______    ______ _________
0000000                00000 002F8 30602              PRIVWA   RECORD BEGIN
 000000                            30610  1           PRIVKIFL   DS    X
 000001                            30611  1           PRIVKAFL   DS    X
                                   30612  1
 000002                            30613  1           PRIVKWR    DS    XL(L'KWR)
                                   30614  1
 0001FA                            30615  1           PRIVSIB    DS    XL(L'SIB)
 0002F8                002F8 002F8 30616                       END
-                                  30626              ¿þþþþþþþþþþþþþþþþþþþþþþþþþþþþþþþþþþþþþþþþþþþþþþþþþþþþþþþþþþþþþþþþþþþþþÜ
                                   30627              Ÿ                                                                     Ÿ
                                   30628              Ÿ  SETPRIV -- SET PRIV command  (priv'd)                              Ÿ
                                   30629              Ÿ                                                                     Ÿ
                                                      ¾þþþþþþþþþþþþþþþþþþþþþþþþþþþþþþþþþþþþþþþþþþþþþþþþþþþþþþþþþþþþþþþþþþþþþ»
0005FDC 50E0 D000/9008_      00000 30630              SETPRIV  XPROC PRIVWA
 USING  *,R7
 USING  PRIVWA-(4+36),R8
                                   30681
 005FF6 D7FF 8028 8028_00000 00000 30682                       CLEAR PRIVWA
 006008 4140 8028            00000 30691                       LA    R4,PRIVWA
 USING  PRIVWA,R4                  30692                       USING PRIVWA,R4
                                   30701
 00600C D200 4000 B3BE 00000 003BE 30702                       MVC   PRIVKIFL,CPSKIFL
 006012 D200 4001 B3BF 00001 003BF 30703                       MVC   PRIVKAFL,CPSKAFL
                                   30704
 006018 95D5 BD24/4770_00D24       30705                       IF    (CPCMNM,EQ,'N'),BEGIN  nopriv...
 006020 9280 4000      00000       30722  1                      MVI   PRIVKIFL,KWRIFVAL
 006024 9280 4001      00001       30723  1                      MVI   PRIVKAFL,KWRAFVAL
 006028                            30724                       END
                                   30728
 006028 4160 4002            00002 30729                       LA    R6,PRIVKWR
 USING  KWR,R6                     30730                       USING KWR,R6
 00602C D202 6000 B3B4 00000 003B4 30739                       MVC   KWRUSER,CPSUSER     uuu
 006032 D201 6003 B3B7 00003 003B7 30740                       MVC   KWRGRP,CPSGRP       gg
 006038 1816/4100 0040_            30741                       KREAD KWR
                                   30754
 006044 58E0 B08C/D2AF_      0008C 30755                       SCPUSH
 006052 5810 B08C/1B00_      0008C 30761                       SCAN  ,
 0060A0 58E0 7572/0DEE       06568 30792                       SCANCHK
 0060A6 1200/4780 7130             30797                       IF    (R0,NZ),BEGIN
 0060AC D50C 759E 1000_06594 00000 30811  1                      IF    (@R1,NE,X'D9C1E9E9D3C54BC4C1E9E9D3C5'),EXIT
 0060B6 D20C 1000 75AB 00000 065A1 30830  1                      MVC   @R1(13),=X'9589A9A993854B8689A9A99385'
 0060BC 4110 75B8/4100_      065AE 30831  1                      SETMSG X'D5C9E9'
 0060C4 1300                       30835  1                      LCR   R0,R0
 0060C6 58E0 B08C/4BD0_      0008C 30836  1                      SCPOP , GOT WHAT WE WANT RESTORE AND RESCAN
 0060D4 5810 B08C/1B00_      0008C 30842  1                      SCAN
 006122 47F0 7160            06156 30873  1                      B     PRIVNF
 006126                            30874                       END
 006126 58E0 B08C/4BD0_      0008C 30878                       SCPOP ,  NOT WHAT WE WERE LOOKING FOR, START AGAIN
                                   30884
 006134 9180 61F4/4710_001F4       30885                       IF    ~KWRHFL.KWRHFCK,BEGIN  no account file...
 00613C 4110 7552/4100_      06548 30901  1                      TSEG  'No account file.',,CR
1ACMD     (ACMD4072) (12:39) (15MAR04) SET PRIV Command                                                                     Page   80
0Current Usings:  (PRIVWA,R4) (KWR,R6) (*,R7) (PRIVWA-(4+36),R8) (CP,R11) (CV,R12)
0Loc    Object Code    Addr1 Addr2  Stmt Lv Lineno    Source Statement           (Hibal 5, Asmedit 3.3)  HLASM R4.0  2004/03/15 12.39
+___    ______ ____    _____ _____  ____ __ ______    ______ _________
000614E 4110 759A/4100_      06590 30919  1                      SETMSG 'OK'
 006156 58E0 B08C/D2AF_      0008C 30923  1           PRIVNF     SCPUSH
 006164 58E0 757A/0DEE       06570 30929  1                      VCALL YESREQ
 00616A 58E0 B08C/4BD0_      0008C 30933  1                      SCPOP
 006178                            30939                       END
                                   30943
 006178 7186/47F0 71B6 06178 0613A 30944                       ELSE  BEGIN
 00617C 95C7 B3B7/4780_003B7       30955  1                      IF    (CPSGRP,NE,'G'),BEGIN
 006184 58E0 757E/0DEE       06574 30972  2                        VCALL NOTVALID
 00618A                            30976  1                      END
 00618A 91A0 600E/4710_0000E       30980  1                      IF    (KWRIFL.KWRIFVAL+KWRIFSPR,~ONES),BEGIN
 006192 58E0 757E/0DEE       06574 31001  2                        VCALL NOTVALID
 006198                            31005  1                      END
 006198 95D5 BD24/4780_00D24       31009  1                      IF    (CPCMNM,EQ,'N'),EXIT  nopriv
 0061A0 D200 4000 600E 00000 0000E 31029  1                      MVC   PRIVKIFL,KWRIFL
 0061A6 D200 4001 600F 00001 0000F 31030  1                      MVC   PRIVKAFL,KWRAFL
 0061AC                            31031                       END
                                   31035
 0061AC 5810 B08C/1B00_      0008C 31036                       SCAN  PRIVPRT
 0061FE 58E0 7572/0DEE       06568 31068                       SCANCHK
                                   31073
 006204 41F0 7562            06558 31074                       LA    R15,=CL8'MAGIC'
 006208 183D/41D0 D008             31075                       XPUSH ,,8,PTR=R3
 00620E D207 3000 B242 00000 00242 31078                       MVC   @R3(8),CPCMD
 006214 D207 B242 7562 00242 06558 31079                       MVC   CPCMD(8),=CL8'MAGIC'
                                   31080
 00621A 4110 B242/4800_      00242 31081                       SETMSG CPCMD,LH:CPCMDLEN
 006222 58E0 7586/0DEE       0657C 31094                       VCALL SMFLOG              For the record
                                   31098
 006228 D207 B242 3000 00242 00000 31099                       MVC   CPCMD(8),@R3
 00622E 4BD0 759C            06592 31100                       XPOP  ,,8
                                   31102
 006232                            31103                       LOOP  BEGIN
 006232 4150 41FA            001FA 31109  1                      LA    R5,PRIVSIB
 USING  SIB,R5                     31110  1                      WITH  (SIB,R5)
 006236 D2FD 5000 B344 00000 00344 31123  1                      MVC   SIB,CPS
 00623C D200 507A 4000 0007A 00000 31124  1                      MVC   SIBKIFL,PRIVKIFL    Update
 006242 D200 507B 4001 0007B 00001 31125  1                      MVC   SIBKAFL,PRIVKAFL    ...privs
 006248 41F0 0001/4AF0_      00001 31126  1                      INCR  R15,SIBUC           Kick update count
 006254 4110 5000/4100_      00000 31132  1                      TSEG  SIBID
 006266 4110 5004/4100_      00004 31160  1                      TSEG  SIBNO
 006278 4110 5080/4100_      00080 31188  1                      TSEG  SIBUC
 00628A 4110 5070/4100_      00070 31216  1                      TSEG  SIBSESS
 00629C 4100 0066/58E0_      00066 31244  1                      TCNTL CTLPSETO            Set session options
 0062A6 4780 72C6            062BC 31256  1                      IF    Z,EXIT              Ok
 0062AA 59F0 7592/4770_      06588 31270  1                      IF    (R15,NE,4),CVMILERR
 0062B2 D2FD 5000 1000 00000 00000 31290  1                      MVC   SIB,@R1             Must re-update
 0062B8 47F0 723C            06232 31291                       END
 DROP   SIB,R5
                                   31301
 0062BC D2FD B344 41FA 00344 001FA 31302                       MVC   CPS,PRIVSIB         Keep cp copy accurate
 0062C2 47F0 C7DE            007DE 31303                       B     CVNEXT
 0062C6 18D8/9808 D004_            31304                       PEND
 DROP   PRIVWA-(4+36),R8
1ACMD     (ACMD4072) (12:39) (15MAR04) SET PRIV Command                                                                     Page   81
0Current Usings:  (PRIVWA,R4) (KWR,R6) (CP,R11) (CV,R12)
0Loc    Object Code    Addr1 Addr2  Stmt Lv Lineno    Source Statement           (Hibal 5, Asmedit 3.3)  HLASM R4.0  2004/03/15 12.39
+___    ______ ____    _____ _____  ____ __ ______    ______ _________
0DROP   *,R7
1ACMD     (ACMD4072) (12:39) (15MAR04) SET PRIV Command                                                                     Page   82
0Current Usings:  (PRIVWA,R4) (KWR,R6) (CP,R11) (CV,R12)
0Loc    Object Code    Addr1 Addr2  Stmt Lv Lineno    Source Statement           (Hibal 5, Asmedit 3.3)  HLASM R4.0  2004/03/15 12.39
+___    ______ ____    _____ _____  ____ __ ______    ______ _________
00062D4 E2E8E2E3C5D4E240_          31330              PRIVPRT  SCKW  SYSTEMS,PRIVSYS,A
 0062FC D6D7C5D9C1E3D6D9_          31345                       SCKW  OPERATOR,PRIVOPR,A
 006324 D6D7D94040404040_          31360                       SCKW  OPR,PRIVOPR
 00634C C1C3C3D6E4D5E340_          31375                       SCKW  ACCOUNT,PRIVACCT,A
 006374 C1C3C3E340404040_          31390                       SCKW  ACCT,PRIVACCT
 00639C C1C4D4C9D5404040_          31405                       SCKW  ADMIN,PRIVADM,A
 0063C4 E2E4C2D4C9E34040_          31420                       SCKW  SUBMIT,PRIVSBM,A
 0063EC D7C3404040404040_          31435                       SCKW  PC,PRIVPC
 006414 4040404040404040_          31450                       SCKW  ,V(NOTVALID)
                                   31465              *
                                   31466              *
 00643C 50E0 D000/9008_      00000 31467              PRIVSYS  PROC
 USING  *,R7
 006456 9620 4000      00000       31506                       SET   PRIVKIFL.KWRIFSPR
 00645A 18D8/9808 D004_            31513                       PEND
 DROP   *,R7
                                   31533
 006468 50E0 D000/9008_      00000 31534              PRIVOPR  PROC
 USING  *,R7
 006482 9610 4000      00000       31573                       SET   PRIVKIFL.KWRIFOPR
 006486 18D8/9808 D004_            31580                       PEND
 DROP   *,R7
                                   31600
 006494 50E0 D000/9008_      00000 31601              PRIVACCT PROC
 USING  *,R7
 0064AE 9640 4000      00000       31640                       SET   PRIVKIFL.KWRIFAPR
 0064B2 18D8/9808 D004_            31647                       PEND
 DROP   *,R7
                                   31667
 0064C0 50E0 D000/9008_      00000 31668              PRIVADM  PROC
 USING  *,R7
 0064DA 9602 4000      00000       31707                       SET   PRIVKIFL.KWRIFADM
 0064DE 18D8/9808 D004_            31714                       PEND
 DROP   *,R7
                                   31734
 0064EC 50E0 D000/9008_      00000 31735              PRIVSBM  PROC
 USING  *,R7
 006506 9608 4000      00000       31774                       SET   PRIVKIFL.KWRIFSBM
 00650A 18D8/9808 D004_            31781                       PEND
 DROP   *,R7
                                   31801
 006518 50E0 D000/9008_      00000 31802              PRIVPC   PROC
 USING  *,R7
 006532 9601 4000      00000       31841                       SET   PRIVKIFL.KWRIFPC
 006536 18D8/9808 D004_            31848                       PEND
 DROP   *,R7
                                   31868
 DROP   KWR,R6                     31869                       DROP  KWR,PRIVWA
 DROP   PRIVWA,R4
                                   31884
                                   31885                       QLTORG
1ACMD     (ACMD4072) (12:39) (15MAR04) SET/SHOW MASTER Commands                                                             Page   83
0Current Usings:  (CP,R11) (CV,R12)
0Loc    Object Code    Addr1 Addr2  Stmt Lv Lineno    Source Statement           (Hibal 5, Asmedit 3.3)  HLASM R4.0  2004/03/15 12.39
+___    ______ ____    _____ _____  ____ __ ______    ______ _________
0                                  31918              ¿þþþþþþþþþþþþþþþþþþþþþþþþþþþþþþþþþþþþþþþþþþþþþþþþþþþþþþþþþþþþþþþþþþþþþÜ
                                   31919              Ÿ                                                                     Ÿ
                                   31920              Ÿ  SETMAST -- SET MASTER command.  (Priv'd)                           Ÿ
                                   31921              Ÿ                                                                     Ÿ
                                                      ¾þþþþþþþþþþþþþþþþþþþþþþþþþþþþþþþþþþþþþþþþþþþþþþþþþþþþþþþþþþþþþþþþþþþþþ»
00065B2 50E0 D000/9008_      00000 31922              SETMAST  XPROC WA
 USING  *,R7
 USING  WA-(4+36),R8
                                   31973
 0065CC D7FF 8028 8028_00000 00000 31974                       CLEAR WA
 0065DE 4150 8028            00000 31983                       LA    R5,WA
 USING  WA,R5                      31984                       USING WA,R5
                                   31993
 0065E2 9620 BD58      00D58       31994                       SET   CPFVER
 0065E6 4100 0002            00002 32000                       LA    R0,2                Acct might exist, no kw prompt
 0065EA 58E0 751C/0DEE       06AE8 32001                       ACALL GETAENT
                                   32005
 0065F0 9146 B3BE/4770_003BE       32006                       IF    (CPSFAPR+CPSFADM+CPSFSUB,Z),BEGIN
 0065F8 4100 0080            00080 32030  1                      LA    R0,SMFWMAST         Attempted set master
 0065FC 58E0 7520/0DEE       06AEC 32031  1                      VCALL LOGKWR              Log attempt
 006602 58E0 7524/0DEE       06AF0 32035  1                      VCALL NOTVALID
 006608                            32039                       END
                                   32043                       ¿þþþþþþþþþþþþþþþþþþþþþþþþþþþþþþþþþþÜ
                                   32044                       Ÿ  Special RLIN group code check.  Ÿ
                                   32045                       ¾þþþþþþþþþþþþþþþþþþþþþþþþþþþþþþþþþþ»
 006608 D501 5003 B3B7_00003 003B7 32046                       IF    (KWRGRP,NE,CPSGRP),BEGIN
 006612 9142 B3BE/4770_003BE       32064  1                      IF    (CPSFAPR+CPSFADM,Z),'ACALL BADAGRP'  No match, scram
                                   32093  1         C            IF    (((KWRGRP,EQ,'B'),OR,(KWRGRP,EQ,'Y'),OR,
                                          1         C                  (KWRGRP,EQ,'Z'),OR,
                                          1         C                  (KWRGRP,EQ,'DQ'),OR,
                                          1         C                  (KWRGRP,EQ,'HH'),OR,(KWRGRP,EQ,'HN')),AND,
 006620 95C2 5003/4780_00003              1                            (CPSGRP,EQ,'B')),EXIT
 00665E 9140 B3BE/4710_003BE       32201  1                      IF    ~CPSFAPR,'ACALL BADAGRP'    Not your group
 00666C                            32225                       END
                                   32229                       ¿þþþþþþþþþþþþþþþþþþþþþþþþþþþþþþþþþþþþþþþþþþþþþÜ
                                   32230                       Ÿ  Special HOSPITAL (SYSC) group code check.  Ÿ
                                   32231                       ¾þþþþþþþþþþþþþþþþþþþþþþþþþþþþþþþþþþþþþþþþþþþþþ»
 00666C D501 7572 B3B7_06B3E 003B7 32232                       IF    ((CPSGRP,EQ,'CV'),OR,(CPSGRP,EQ,'C1')),BEGIN
 006680 D501 7572 5003_06B3E 00003 32265  1                      IF    (KWRGRP,EQ,'CV'),EXIT
 00668A D501 7574 5003_06B40 00003 32285  1                      IF    (KWRGRP,EQ,'C1'),EXIT
 006694 58E0 7528/0DEE       06AF4 32305  1                      ACALL BADAGRP
 00669A                            32309                       END
                                   32313                       ¿þþþþþþþþþþþþþþþþþþþþþþþþþþþþþþþþþþþþþþþþþþþþþþþþþþþþþþþþþþþþþþþÜ
                                   32314                       Ÿ  The first character of the user-id must match for SUBADMIN.  Ÿ
                                   32315                       ¾þþþþþþþþþþþþþþþþþþþþþþþþþþþþþþþþþþþþþþþþþþþþþþþþþþþþþþþþþþþþþþþ»
 00669A 9104 B3BE/47E0_003BE       32316                       IF    CPSFSUB,BEGIN       SUBADMIN privs...
 0066A2 D500 5000 B3B4_00000 003B4 32331  1                      IF    ('CLC KWRUSER(1),CPSUSER',NE),'ACALL BADAGRP'
 0066B2                            32353                       END
                                   32357
 0066B2 9640 51F8      001F8       32358                       SET   WAFMAST             SET MASTER command
                                   32364
 0066B6 9180 500E/4710_0000E       32365                       IF    ~KWRIFL.KWRIFVAL,BEGIN  New acct...
 0066BE D502 75A2 BC48_06B6E 00C48 32381  1                      IF    (CPCUSER,EQ,'ALL'),BEGIN
1ACMD     (ACMD4072) (12:39) (15MAR04) SET/SHOW MASTER Commands                                                             Page   84
0Current Usings:  (WA,R5) (*,R7) (WA-(4+36),R8) (CP,R11) (CV,R12)
0Loc    Object Code    Addr1 Addr2  Stmt Lv Lineno    Source Statement           (Hibal 5, Asmedit 3.3)  HLASM R4.0  2004/03/15 12.39
+___    ______ ____    _____ _____  ____ __ ______    ______ _________
00066C8 4110 75A5/4100_      06B71 32398  2                        ABORT 'Can''t create account ALL.'
 0066D4                            32405  1                      END
 0066D4 9640 51F9      001F9       32409  1                      SET   WAFNEW              Creating new account
 0066D8 D202 5000 75BE 00000 06B8A 32415  1                      MVC   KWRUSER,=C'PUB'     Use pub as template acct
 0066DE 4110 5000            00000 32416  1                      LA    R1,KWR
 0066E2 4100 0002            00002 32417  1                      LA    R0,2
 0066E6 58E0 752C/0DEE       06AF8 32418  1                      ACALL GETKWR
 0066EC 9180 500E/47E0_0000E       32422  1                      IF    KWRIFL.KWRIFVAL,BEGIN  Template account exists...
 0066F4 D707 5070 5070_00070 00070 32438  2                        CLEAR KWRPASS,KWRRJE,KWRSPUSD,KWRWRCT
 00670A D702 5017 5017_00017 00017 32460  2                        CLEAR KWRBAL,KWRSFL,KWRJNO,KWRACCH,KWRHRSUS,KWRHRSFR
 00672C 94FE 500F      0000F       32492  2                        CLEAR KWRAFL.KWRAFASV
 006730 D703 51B6 51B6 001B6 001B6 32500  2                        CLEAR KWRCRDT             Clear account creation date
 006736 D703 505C 505C_0005C 0005C 32507  2                        CLEAR KWRKTIM,KWRLTIM     Clear LTIME and KTIME too
 006742 9200 50AF/D703_000AF       32519  2                        CLEAR KWRXCNT,KWRXTIM     Clear logon attempt counters
 00674C                            32531  1                      END
 00674C 7184/47F0 71F4 0674C 066F2 32535  1                      ELSE  BEGIN               No template account...
 006750 D502 75BE 5000_06B8A 00000 32546  2                        IF    (KWRUSER,NE,'PUB'),'ACALL BADACCT'
 006760 5820 7534            06B00 32572  2                        L     R2,=A(DEFKWR)
 006764 41E0 5000/41F0_      00000 32573  2                        MOVEL KWR,(R2)            Move in universal defaults
 006772 D203 5029 7538 00029 06B04 32595  2                        MVC   KWRFORM,=CL4'&STDFORM' Set standard forms ID
                                   32596  2                        AIF   ('&INSTALN' NE 'STANFORD').NOUSTYP
 006778 D201 BC88 BC48 00C88 00C48 32597  2                        MVC   CPDOUB(2),CPCUSER
 00677E D201 BC8B BC4B 00C8B 00C4B 32598  2                        MVC   CPDOUB+3(2),CPCGRP
 006784 4100 0003/4110_      00003 32599  2                        HASPSERV USERTYPE,CPDOUB
 006790 12FF/4770 71F4             32619  2                        IF    (R15,Z),BEGIN
 006796 4200 BC88            00C88 32633  3                          STC   R0,CPDOUB           User type
 00679A 9280 50AE      000AE       32634  3                          MVI   KWRMPRIM,KWRFSYSA   Assume SYSA
 00679E 9110 C4C4/47E0_004C4       32635  3                          IF    CVFRLG,'MVI KWRMPRIM,KWRFSYSB'  SYSB (RLG)
 0067AA D200 5035 50AE 00035 000AE 32656  3                          MVC   KWRMACC,KWRMPRIM    Allow access to primary machine
 0067B0 9101 BC88/47E0_00C88       32657  3                          IF    CPDOUB.$USOPEN,BEGIN
 0067B8 94FB 5020      00020       32673  4                            CLEAR KWRBFL.KWRBFP       Noprod
 0067BC 9204 5037      00037       32681  4                            MVI   KWRJFL,KWRJFPUB     Job auth=public
 0067C0                            32682  3                          END
 0067C0                            32686  2                        END
                                   32690  2           .NOUSTYP     ANOP
 0067C0                            32691  1                      END
                                   32695  1
 0067C0 D201 5003 BC4B 00003 00C4B 32696  1                      MVC   KWRGRP,CPCGRP
 0067C6 D202 5000 BC48 00000 00C48 32697  1                      MVC   KWRUSER,CPCUSER
 0067CC D207 5038 C4D8 00038 004D8 32698  1                      MVC   KWRJPFX,CVBLANKS
 0067D2 D204 5038 5000 00038 00000 32699  1                      MVC   KWRJPFX(5),KWRUSER
 0067D8 D707 5038 74FC 00038 06AC8 32700  1                      XC    KWRJPFX,=C'JOBMASK.'
 0067DE 961C 5049      00049       32701  1                      SET   KWRTFL.KWRTFAM+KWRTFAR+KWRTFAE  AUTO stuff
 0067E2 947F 5064      00064       32714  1                      CLEAR KWRTFL2.KWRTFAPE    Clear AUTO PUBEXEC
 0067E6 9610 5064      00064       32722  1                      SET   KWRTFL2.KWRTFANE    Set AUTO NEWEXEC
                                   32729  1
                                   32730  1                      AIF   ('&INSTALN' NE 'STANFORD').NOSTAMX
 0067EA D501 7576 5003_06B42 00003 32731  1                      IF    ((KWRGRP,EQ,'EC'),OR,(KWRGRP,EQ,'ED')),STAMX
                                   32767  1
                                   32768  1         C            IF    ((KWRGRP,EQ,'BN'),OR,(KWRGRP,EQ,'BS'),OR,
                                          1         C                  (KWRGRP,EQ,'BT'),OR,(KWRGRP,EQ,'BQ'),OR,
                                          1         C                  (KWRGRP,EQ,'BG'),OR,(KWRGRP,EQ,'BU'),OR,
                                          1         C                  (KWRGRP,EQ,'BX'),OR,(KWRGRP,EQ,'BD'),OR,
 0067FE D501 757A 5003_06B46 00003        1                            (KWRGRP,EQ,'BF')),BEGIN    (Ballots)
1ACMD     (ACMD4072) (12:39) (15MAR04) SET/SHOW MASTER Commands                                                             Page   85
0Current Usings:  (WA,R5) (*,R7) (WA-(4+36),R8) (CP,R11) (CV,R12)
0Loc    Object Code    Addr1 Addr2  Stmt Lv Lineno    Source Statement           (Hibal 5, Asmedit 3.3)  HLASM R4.0  2004/03/15 12.39
+___    ______ ____    _____ _____  ____ __ ______    ______ _________
0006858 94DF 5049      00049       32899  2           STAMX        CLEAR KWRTFL.KWRTFAN      No AUTO news
 00685C 94EF 5064      00064       32908  2                        CLEAR KWRTFL2.KWRTFANE    Clear AUTO NEWEXEC
 006860 9680 5064      00064       32916  2                        SET   KWRTFL2.KWRTFAPE    Set AUTO PUBEXEC
 006864                            32923  1                      END
                                   32927  1           .NOSTAMX   ANOP
                                   32928  1
 006864 B205 D000      00000       32929  1                      STCK  @R13
 006868 D203 505C D000 0005C 00000 32930  1                      MVC   KWRKTIM,@R13        Set password change time
 00686E D203 51B6 D000 001B6 00000 32931  1                      MVC   KWRCRDT,@R13        Set account creation date
                                   32932  1
 006874 183D/41D0 D00C             32933  1                      XPUSH ,,10,PTR=R3         Room for "mm/dd/yyyy"
 00687A 58E0 753C/0DEE       06B08 32936  1                      VCALL LOCALTOD            Get current time/date
 006880 18F3                       32940  1                      LR    R15,R3
 006882 58E0 7540/0DEE       06B0C 32941  1                      VCALL FMTDATE             "mm/dd/yyyy"
 006888 4110 3008/4100_      00008 32945  1                      SETMSG @R3+8,2             "yy"
 006890 58E0 7544/0DEE       06B10 32961  1                      VCALL DTB
 006896 182F                       32965  1                      LR    R2,R15
 006898 8920 0008            00008 32966  1                      SLL   R2,8
 00689C 1813/4100 0002             32967  1                      SETMSG @R3,2               "mm"
 0068A2 58E0 7544/0DEE       06B10 32983  1                      VCALL DTB
 0068A8 1A2F                       32987  1                      AR    R2,R15
 0068AA 8920 0008            00008 32988  1                      SLL   R2,8
 0068AE 4110 3003/4100_      00003 32989  1                      SETMSG @R3+3,2             "dd"
 0068B6 58E0 7544/0DEE       06B10 33005  1                      VCALL DTB
 0068BC 1A2F                       33009  1                      AR    R2,R15
 0068BE 8920 0008            00008 33010  1                      SLL   R2,8
 0068C2 5020 50B4            000B4 33011  1                      ST    R2,KWRNEWDT         Today's date as last news date
 0068C6 4BD0 758C            06B58 33012  1                      XPOP  ,,8
 0068CA                            33014                       END
                                   33018
 0068CA 58E0 B08C/D2AF_      0008C 33019                       SCSAVE AREA=WASCSAVE
 0068D6 58E0 7548/0DEE       06B14 33028                       ACALL MASTSCAN            Scan SET MASTER options
                                   33032
 0068DC 9130 51F9/47E0_001F9       33033                       IF    WAFDEL*WAFCRE,BEGIN
 0068E4 4110 75C1/4100_      06B8D 33051  1                      ABORT 'CREATE and DELETE options conflict.'
 0068F0                            33058                       END
 0068F0 9120 51F9/47E0_001F9       33062                       IF    WAFDEL,BEGIN
 0068F8 9180 51F8/47E0_001F8       33077  1                      IF    WAFOP,BEGIN
 006900 4110 75E4/4100_      06BB0 33092  2                        ERROR 'DELETE can''t be specified with other options.'
 00690C                            33099  1                      END
 00690C 9680 51F8      001F8       33103  1                      SET   WAFOP
 006910 9140 51F9/47E0_001F9       33109  1                      IF    WAFNEW,'ACALL BADACCT'      Account doesn't exist
 00691E 947F 500E      0000E       33133  1                      CLEAR KWRIFL.KWRIFVAL
 006922                            33141                       END
 006922 9140 51F9/47E0_001F9       33145                       IF    (WAFNEW,AND,~WAFCRE),'ACALL BADACCT'
 006938 9140 51F9/4710_001F9       33183                       IF    (~WAFNEW,AND,WAFCRE),BEGIN
 006948 4110 7504/4100_      06AD0 33212  1                      TSEG  'Account '
 00695A 4110 5003/4100_      00003 33230  1                      TSEG  KWRGRP
 00696C 4110 7611/4100_      06BDD 33258  1                      TSEG  '.'
 00697E 4110 5000/4100_      00000 33276  1                      TSEG  KWRUSER
 006990 4110 750C/4100_      06AD8 33304  1                      ABORT ' already exists.'
 00699C                            33311                       END
 00699C 9180 51F8/4710_001F8       33315                       IF    ~WAFOP,'ERROR "Missing SET MASTER options."'
                                   33342
1ACMD     (ACMD4072) (12:39) (15MAR04) SET/SHOW MASTER Commands                                                             Page   86
0Current Usings:  (WA,R5) (*,R7) (WA-(4+36),R8) (CP,R11) (CV,R12)
0Loc    Object Code    Addr1 Addr2  Stmt Lv Lineno    Source Statement           (Hibal 5, Asmedit 3.3)  HLASM R4.0  2004/03/15 12.39
+___    ______ ____    _____ _____  ____ __ ______    ______ _________
00069B0 4110 5000            00000 33343                       LA    R1,KWR
 0069B4 58E0 7550/0DEE       06B1C 33344                       ACALL MASTDISP            Do show master
 0069BA 9120 BD58/47E0_00D58       33348                       IF    CPFVER,BEGIN
 0069C2 4110 758E/4100_      06B5A 33363  1                      SETMSG 'Update'
 0069CA 9140 51F9/47E0_001F9       33367  1                      IF    WAFNEW,'SETMSG "Create"'
 0069DA 9120 51F9/47E0_001F9       33391  1                      IF    WAFDEL,'SETMSG "Delete"'
 0069EA 58E0 7554/0DEE       06B20 33415  1                      VCALL YESREQ
 0069F0                            33419                       END
                                   33423
 0069F0                            33424                       LOOP  BEGIN
 0069F0 58E0 7558/0DEE_      06B24 33430  1                      IF    ('ACALL PUTKWR',Z),EXIT  Re-write record
 0069FA 58E0 B08C/D2AF_      0008C 33449  1                      SCRSTR AREA=WASCSAVE
 006A06 58E0 7548/0DEE       06B14 33458  1                      ACALL MASTSCAN
 006A0C 47F0 7424            069F0 33462                       END
                                   33467                       ¿þþþþþþþþþþþþþþþþþþþþþþþþþþþþþþþþþþþþÜ
                                   33468                       Ÿ  Tell RACF about the new account.  Ÿ
                                   33469                       ¾þþþþþþþþþþþþþþþþþþþþþþþþþþþþþþþþþþþþ»
 006A10 9140 51F9/47E0_001F9       33470                       IF    WAFNEW,BEGIN        New account just created...
 006A18 4110 5000            00000 33485  1                      LA    R1,KWRACCT          Account (in "uuugg" form)
 006A1C 58E0 755C/0DEE       06B28 33486  1                      VCALL RACADD              Add new account to RACF
 006A22 4780 7486            06A52 33490  1                      IF    NZ,BEGIN            Trouble...
 006A26 9001 D000/41D0_      00000 33501  2                        XPUSH R0,R1
 006A2E 4110 762D/4100_      06BF9 33504  2                        TSEG  'Note: Account not added to RACF data base -- '
 006A40 4BD0 75A0/9801_      06B6C 33522  2                        XPOP  R0,R1
 006A48 41F0 B050/58E0_      00050 33525  2                        TSEG  (R1),(R0),CR
 006A52                            33549  1                      END
 006A52                            33553                       END
                                   33557                       ¿þþþþþþþþþþþþþþþþþþþþþþþþþþþþþþþþþþþþþþþþþþþþþþþþþþþþþþÜ
                                   33558                       Ÿ  Tell RACF about the account that was just deleted.  Ÿ
                                   33559                       ¾þþþþþþþþþþþþþþþþþþþþþþþþþþþþþþþþþþþþþþþþþþþþþþþþþþþþþþ»
 006A52 9120 51F9/47E0_001F9       33560                       IF    WAFDEL,BEGIN        Account just deleted...
 006A5A 4110 5000            00000 33575  1                      LA    R1,KWRACCT          Account (in "uuugg" form)
 006A5E 58E0 7564/0DEE       06B30 33576  1                      VCALL RACDEL              Delete account from RACF
 006A64 4780 74C8            06A94 33580  1                      IF    NZ,BEGIN            Trouble...
 006A68 9001 D000/41D0_      00000 33591  2                        XPUSH R0,R1
 006A70 4110 765A/4100_      06C26 33594  2                        TSEG  'Note: Account not deleted from RACF data base -- '
 006A82 4BD0 75A0/9801_      06B6C 33612  2                        XPOP  R0,R1
 006A8A 41F0 B050/58E0_      00050 33615  2                        TSEG  (R1),(R0),CR
 006A94                            33639  1                      END
 006A94                            33643                       END
                                   33647                       ¿þþþþþþþþþþþþþþþþþþþþþþþþþþþþþþþþþþþþþþþþþþþþÜ
                                   33648                       Ÿ  Tell RACF that the password has changed.  Ÿ
                                   33649                       ¾þþþþþþþþþþþþþþþþþþþþþþþþþþþþþþþþþþþþþþþþþþþþ»
 006A94 9108 51F9/47E0_001F9       33650                       IF    WAFUPDPW,BEGIN      Password has changed...
 006A9C 41F0 5000            00000 33665  1                      LA    R15,KWRACCT         Account (in "uuugg" form)
 006AA0 4110 5070            00070 33666  1                      LA    R1,KWRPASS          Password
 006AA4 58E0 7568/0DEE       06B34 33667  1                      VCALL RACUPDPW            Update password
 006AAA                            33671                       END
                                   33675                       ¿þþþþþþþþþþþþþþþþþþþþþþþþþþþþþþþÜ
                                   33676                       Ÿ  Log the SET MASTER command.  Ÿ
                                   33677                       ¾þþþþþþþþþþþþþþþþþþþþþþþþþþþþþþþ»
 006AAA 4100 00A0            000A0 33678                       LA    R0,SMFWMAST+SMFWAUTH
 006AAE 58E0 7520/0DEE       06AEC 33679                       VCALL LOGKWR              Log command
                                   33683
1ACMD     (ACMD4072) (12:39) (15MAR04) SET/SHOW MASTER Commands                                                             Page   87
0Current Usings:  (WA,R5) (*,R7) (WA-(4+36),R8) (CP,R11) (CV,R12)
0Loc    Object Code    Addr1 Addr2  Stmt Lv Lineno    Source Statement           (Hibal 5, Asmedit 3.3)  HLASM R4.0  2004/03/15 12.39
+___    ______ ____    _____ _____  ____ __ ______    ______ _________
0006AB4 47F0 C7DE            007DE 33684                       B     CVNEXT
 006AB8 18D8/9808 D004_            33685                       PEND
 DROP   WA-(4+36),R8
 DROP   *,R7
                                   33710
                                   33711                       QLTORG
1ACMD     (ACMD4072) (12:39) (15MAR04) SET/SHOW MASTER Commands                                                             Page   88
0Current Usings:  (WA,R5) (CP,R11) (CV,R12)
0Loc    Object Code    Addr1 Addr2  Stmt Lv Lineno    Source Statement           (Hibal 5, Asmedit 3.3)  HLASM R4.0  2004/03/15 12.39
+___    ______ ____    _____ _____  ____ __ ______    ______ _________
0                                  33777              **
                                   33778              **
                                   33779              **  SET MASTER options;  MASTPRT  if accounting privs
                                   33780              **                       MASTPRTA if just admin privs
                                   33781              **
 006C58 E2E4E2D7C5D5C440_          33782              MASTPRT  SCKW  SUSPEND,KSUSP,A
 006C80 D5D6E2E4E2D7C5D5_          33797                       SCKW  NOSUSPEND,KNOSUSP,A
 006CA8 C1C3E3C9E5C54040_          33812                       SCKW  ACTIVE,KNOSUSP,A
 006CD0 C1C3C3D6E4D5E340_          33827                       SCKW  ACCOUNT,KACCT
 006CF8 D5D6C1C3C3D6E4D5_          33842                       SCKW  NOACCOUNT,KNOACCT
 006D20 E2E8E2E3C5D4E240_          33857                       SCKW  SYSTEMS,KSPR,A
 006D48 D5D6E2E8E2E3C5D4_          33872                       SCKW  NOSYSTEMS,KNOSPR,A
 006D70 D6D7C5D9C1E3D6D9_          33887                       SCKW  OPERATOR,KOPR,A
 006D98 D6D7D94040404040_          33902                       SCKW  OPR,KOPR
 006DC0 D5D6D6D7C5D9C1E3_          33917                       SCKW  NOOPERATOR,KNOOPR,A
 006DE8 D5D6D6D7D9404040_          33932                       SCKW  NOOPR,KNOOPR,A
 006E10 E2E4C2D4C9E34040_          33947                       SCKW  SUBMIT,KSBM,A
 006E38 D5D6E2E4C2D4C9E3_          33962                       SCKW  NOSUBMIT,KNOSBM,A
 006E60 C1C4D4C9D5404040_          33977                       SCKW  ADMIN,KADMIN,A
 006E88 E2E4C2C1C4D4C9D5_          33992                       SCKW  SUBADMIN,KSUBADM,A
 006EB0 E2E4D7C5D9C1C4D4_          34007                       SCKW  SUPERADMIN,KSUPADM,A
 006ED8 D5D6C1C4D4C9D540_          34022                       SCKW  NOADMIN,KNOADMIN,A
 006F00 D7C3404040404040_          34037                       SCKW  PC,KPC
 006F28 D5D6D7C340404040_          34052                       SCKW  NOPC,KNOPC          (Must come before "NOPCHECK")
 006F50 E4E2C5D940404040_          34067                       SCKW  USER,KUCP,A
                                   34082                       AIF   ('&INSTALN' NE 'STANFORD').NOSOF1
 006F78 C6E4D5C4E2404040_          34083                       SCKW  FUNDS,KFUNDS,(A,P)
                                   34098              .NOSOF1  ANOP
 006FA0 E2E3C1E3E4E24040_          34099                       SCKW  STATUS,KSTATUS,(A,P)
                                   34114                       AIF   (NOT &BUDGET).NOBUDG1
 006FC8 D5D6C2E4C4C7C5E3_          34115                       SCKW  NOBUDGET,KNOBUDG,A
 006FF0 C2E4C4C7C5E34040_          34130                       SCKW  BUDGET,KBUDGET,A
                                   34145              .NOBUDG1 ANOP
                                   34146                       AIF   (NOT &SPACE).SPACE1
 007018 C1E2D7C1C3C54040_          34147                       SCKW  ASPACE,KASPACE,A
                                   34162              .SPACE1  ANOP
 007040 C3D9C5C1E3C54040_          34163                       SCKW  CREATE,KCREATE,A
 007068 C4C5D3C5E3C54040_          34178                       SCKW  DELETE,KDELETE,A
                                   34193              ****
                                   34194              ****  SCKW's above this line are only allowed for ACCT priv
                                   34195              ****  accounts;  SCKW's below this line are allowed for either ACCT
                                   34196              ****  or ADMIN priv'd accounts.
                                   34197              ****
 007090 D7C1E2E2E6D6D9C4_          34198              MASTPRTA SCKW  PASSWORD,KPASS,(A,P)
 0070B8 D2C5E8E6D6D9C440_          34213                       SCKW  KEYWORD,KPASS,(A,P)
 0070E0 D4E4D3E3C9D7D3C5_          34228                       SCKW  MULTIPLE,KMULT,A
 007108 E7D4E4D3E3C9D7D3_          34243                       SCKW  XMULTIPLE,KXMULT,A
 007130 D5D6D4E4D3E3C9D7_          34258                       SCKW  NOMULTIPLE,KNOMULT,A
 007158 E2C9D5C7D3C54040_          34273                       SCKW  SINGLE,KNOMULT,A
 007180 D3D7C1E2E2E6D6D9_          34288                       SCKW  LPASSWORD,KLPASS,A
 0071A8 D5D6D3D7C1E2E2E6_          34303                       SCKW  NOLPASSWORD,KNOLPASS,A
 0071D0 E2E8E2C140404040_          34318                       SCKW  SYSA,KSYSA
 0071F8 E2E8E2C240404040_          34333                       SCKW  SYSB,KSYSB
 007220 E2E8E2C340404040_          34348                       SCKW  SYSC,KSYSC
1ACMD     (ACMD4072) (12:39) (15MAR04) SET/SHOW MASTER Commands                                                             Page   89
0Current Usings:  (WA,R5) (CP,R11) (CV,R12)
0Loc    Object Code    Addr1 Addr2  Stmt Lv Lineno    Source Statement           (Hibal 5, Asmedit 3.3)  HLASM R4.0  2004/03/15 12.39
+___    ______ ____    _____ _____  ____ __ ______    ______ _________
0007248 E2E8E2C440404040_          34363                       SCKW  SYSD,KSYSD
 007270 E2E8E2C840404040_          34378                       SCKW  SYSH,KSYSH
 007298 E2E8E2C640404040_          34393                       SCKW  SYSF,KSYSF
 0072C0 E2E8E2C740404040_          34408                       SCKW  SYSG,KSYSG
 0072E8 D5C1D4C540404040_          34423                       SCKW  NAME,KNAME,(A,P)
 007310 C3D6D4D4C5D5E340_          34438                       SCKW  COMMENT,KCOMM,(A,P)
 007338 D4C1C9D340404040_          34453                       SCKW  MAIL,KMAIL,A
 007360 D5D6D4C1C9D34040_          34468                       SCKW  NOMAIL,KNOMAIL,A
 007388 C8D6E4D9E2404040_          34483                       SCKW  HOURS,KHOURS,A
 0073B0 C1C8D6E4D9E24040_          34498                       SCKW  AHOURS,KAHOURS,A
 0073D8 E4C8D6E4D9E24040_          34513                       SCKW  UHOURS,KUHOURS,A
 007400 C6C8D6E4D9E24040_          34528                       SCKW  FHOURS,KFHOURS,A
 007428 E3C9D4C540404040_          34543                       SCKW  TIME,KIGNNUM,A      ** Compatiblity **
 007450 E6C1C9E340404040_          34558                       SCKW  WAIT,KIGNNUM,A      ** Compatiblity **
 007478 C5E7D7D9C5E2E240_          34573                       SCKW  EXPRESS,KEXPRESS,A
 0074A0 D5D6C5E7D7D9C5E2_          34588                       SCKW  NOEXPRESS,KNOEXP,A
 0074C8 C9D5E3C5D9C1C3E3_          34603                       SCKW  INTERACTIVE,KINT,A
 0074F0 D5D6C9D5E3C5D9C1_          34618                       SCKW  NOINTERACTIVE,KNOINT,A
 007518 E2E3C1E3C9E2E3C9_          34633                       SCKW  STATISTICS,KSTAT,A
 007540 D5D6E2E3C1E3C9E2_          34648                       SCKW  NOSTATISTICS,KNOSTAT,A
 007568 C4C1E8E3C9D4C540_          34663                       SCKW  DAYTIME,KDAY,A
 007590 D5D6C4C1E8E3C9D4_          34678                       SCKW  NODAYTIME,KNODAY,A
 0075B8 D5D6E3C9D4C54040_          34693                       SCKW  NOTIME,KNOTIME,A
 0075E0 E2C5C3E4D9C54040_          34708                       SCKW  SECURE,KSECURE,A
 007608 D5D6E2C5C3E4D9C5_          34723                       SCKW  NOSECURE,KNOSEC,A
 007630 C2C1E3C3C8404040_          34738                       SCKW  BATCH,KBATCH,A
 007658 D5D6C2C1E3C3C840_          34753                       SCKW  NOBATCH,KNOBATCH,A
 007680 D7D9C9D6D9C9E3E8_          34768                       SCKW  PRIORITY,KPRIO,A
 0076A8 D5D6D7D9C9D6D9C9_          34783                       SCKW  NOPRIORITY,KNOPRIO,A
 0076D0 D7D9D6C4E4C3E3C9_          34798                       SCKW  PRODUCTION,KPROD,A
 0076F8 D5D6D7D9D6C4E4C3_          34813                       SCKW  NOPRODUCTION,KNOPROD,A
 007720 E2C5E3E4D7404040_          34828                       SCKW  SETUP,KSETUP,A
 007748 D5D6E2C5E3E4D740_          34843                       SCKW  NOSETUP,KNOSET,A
 007770 D7E2C5E3E4D74040_          34858                       SCKW  PSETUP,KPSETUP,A
 007798 D5D6D7E2C5E3E4D7_          34873                       SCKW  NOPSETUP,KNOPSET,A
 0077C0 C4C5E2E3C9D5C1E3_          34888                       SCKW  DESTINATION,KDEST,(A,P)
 0077E8 C6D6D9D4E2404040_          34903                       SCKW  FORMS,KFORMS,(A,P)
 007810 D7D9E3C6D6D9D4E2_          34918                       SCKW  PRTFORMS,KPFORMS,(A,P)
 007838 C2C9D54040404040_          34933                       SCKW  BIN,KBIN,(A,P)
 007860 D5D6C3D7E4404040_          34948                       SCKW  NOCPU,KNOCPU,A
 007888 C3D7E44040404040_          34963                       SCKW  CPU,KCPU,A
 0078B0 D5D6C3C1D9C4E240_          34978                       SCKW  NOCARDS,KNOCARDS,A
 0078D8 C3C1D9C4E2404040_          34993                       SCKW  CARDS,KCARDS,A
 007900 D5D6D3C9D5C5E240_          35008                       SCKW  NOLINES,KNOLINES,A
 007928 D3C9D5C5E2404040_          35023                       SCKW  LINES,KLINES,A
                                   35038                       AIF   (NOT &SPACE).SPACE2
 007950 E2D7C1C3C5404040_          35039                       SCKW  SPACE,KSPACE,A
 007978 D5D6E2D7C1C3C540_          35054                       SCKW  NOSPACE,KNOSPACE,A
                                   35069              .SPACE2  ANOP
 0079A0 E5D6D3E4D4C54040_          35070                       SCKW  VOLUME,KVOL,(A,P)
 0079C8 D5D6E5D6D3E4D4C5_          35085                       SCKW  NOVOLUME,KNOVOL,A
 0079F0 D5C5E3E4E2C5D940_          35100                       SCKW  NETUSER,KNETU,(A,P)
 007A18 D5D6D5C5E3E4E2C5_          35115                       SCKW  NONETUSER,KNONETU,A
 007A40 D5C5E3C8D6E2E340_          35130                       SCKW  NETHOST,KNETH,(A,P)
1ACMD     (ACMD4072) (12:39) (15MAR04) SET/SHOW MASTER Commands                                                             Page   90
0Current Usings:  (WA,R5) (CP,R11) (CV,R12)
0Loc    Object Code    Addr1 Addr2  Stmt Lv Lineno    Source Statement           (Hibal 5, Asmedit 3.3)  HLASM R4.0  2004/03/15 12.39
+___    ______ ____    _____ _____  ____ __ ______    ______ _________
0007A68 D5D6D5C5E3C8D6E2_          35145                       SCKW  NONETHOST,KNONETH,A
 007A90 4040404040404040_          35160                       SCKW  ,V(VERPSH),PUSH
 007AB8 4040404040404040_          35175                       SCKW  ,V(COLLPSH),PUSH
 007AE0 4040404040404040_          35190                       SCKW  ,V(QUIETPSH),PUSH
 007B08 4040404040404040_          35205                       SCKW  ,V(NOTVALID)
                                   35220
                                   35221                       QLTORG
1ACMD     (ACMD4072) (12:39) (15MAR04) SET/SHOW MASTER Commands                                                             Page   91
0Current Usings:  (WA,R5) (CP,R11) (CV,R12)
0Loc    Object Code    Addr1 Addr2  Stmt Lv Lineno    Source Statement           (Hibal 5, Asmedit 3.3)  HLASM R4.0  2004/03/15 12.39
+___    ______ ____    _____ _____  ____ __ ______    ______ _________
0                                  35234              ¿þþþþþþþþþþþþþþþþþþþþþþþþþþþþþþþþþþþþþþþþþþþþþþþþþþþþþþþþþþþþþþþþþþþþþÜ
                                   35235              Ÿ                                                                     Ÿ
                                   35236              Ÿ  MASTSCAN -- Routine to scan SET MASTER options.  (This is a        Ÿ
                                   35237              Ÿ    separate routine because it is almost 4K of code and needs       Ÿ
                                   35238              Ÿ    separate addressabity.  COMMENT NO LONGER VALID 4/92 .CH)        Ÿ
                                   35239              Ÿ                                                                     Ÿ
                                   35240              Ÿ  Note about IOWA STATE &KEYUPLO password mod:                       Ÿ
                                   35241              Ÿ    ISU added the ability to have upper and lower case passwords     Ÿ
                                   35242              Ÿ    based on the setting of the &KEYUPLO SETB.  This is still        Ÿ
                                   35243              Ÿ    preserved; however, to set an upper-lower case password on       Ÿ
                                   35244              Ÿ    SET MASTER you must now quote the password (e.g.                 Ÿ
                                   35245              Ÿ    password 'UpLow').  Doing it this way simplified the scanning,   Ÿ
                                   35246              Ÿ    I hope that's ok with you Bill/Steve! (8/87, /j)                 Ÿ
                                   35247              Ÿ                                                                     Ÿ
                                                      ¾þþþþþþþþþþþþþþþþþþþþþþþþþþþþþþþþþþþþþþþþþþþþþþþþþþþþþþþþþþþþþþþþþþþþþ»
0007B30 50E0 D000/9008_      00000 35248              MASTSCAN PROC
 USING  *,R7
 007B4A 9140 B3BE/47E0_003BE       35287                       IF    CPSFAPR,BEGIN
 007B52 5810 B08C/1B00_      0008C 35302  1                      SCAN  MASTPRT             ACCT priv is superset
 007BA4 58E0 781E/0DEE       08368 35334  1                      SCANCHK
 007BAA                            35339                       END
 007BAA 7064/47F0 70BC 07BAA 07B50 35343                       ELSE  BEGIN
 007BAE 5810 B08C/1B00_      0008C 35354  1                      SCAN  MASTPRTA            ADMIN priv
 007C00 58E0 781E/0DEE       08368 35386  1                      SCANCHK
 007C06                            35391                       END
 007C06 18D8/9808 D004_            35395                       PEND
 DROP   *,R7
-                                  35416              ***
                                   35417              ***  Scan routines for MASTPRT/MASTPRTA.
                                   35418              ***
 007C14 50E0 D000/9008_      00000 35419              KSUSP    PROC
 USING  *,R7
 007C2E 9680 51F8/947F_001F8       35458                       SET   WAFOP,(KWRAFL.KWRAFVAL,OFF)
 007C36 18D8/9808 D004_            35470                       PEND
 DROP   *,R7
                                   35490
 007C44 50E0 D000/9008_      00000 35491              KNOSUSP  PROC
 USING  *,R7
 007C5E 9680 51F8/9680_001F8       35530                       SET   WAFOP,KWRAFL.KWRAFVAL
 007C66 18D8/9808 D004_            35541                       PEND
 DROP   *,R7
                                   35561
 007C74 50E0 D000/9008_      00000 35562              KLPASS   PROC
 USING  *,R7
 007C8E 9680 51F8/94FB_001F8       35601                       SET   WAFOP,(KWROFL.KWRFNPAS,OFF)
 007C96 18D8/9808 D004_            35613                       PEND
 DROP   *,R7
                                   35633
 007CA4 50E0 D000/9008_      00000 35634              KNOLPASS PROC
 USING  *,R7
 007CBE 9680 51F8/9604_001F8       35673                       SET   WAFOP,KWROFL.KWRFNPAS
1ACMD     (ACMD4072) (12:39) (15MAR04) SET/SHOW MASTER Commands                                                             Page   92
0Current Usings:  (WA,R5) (CP,R11) (CV,R12)
0Loc    Object Code    Addr1 Addr2  Stmt Lv Lineno    Source Statement           (Hibal 5, Asmedit 3.3)  HLASM R4.0  2004/03/15 12.39
+___    ______ ____    _____ _____  ____ __ ______    ______ _________
0007CC6 18D8/9808 D004_            35684                       PEND
 DROP   *,R7
                                   35704
 007CD4 50E0 D000/9008_      00000 35705              KSYSA    PROC
 USING  *,R7
 007CEE 41F0 0080            00080 35744                       LA    R15,KWRFSYSA
 007CF2 58E0 7682/0DEE       08370 35745                       ACALL KXSYS
 007CF8 1BFF                       35749                       CLEAR R15
 007CFA 18D8/9808 D004_            35753                       PEND
 DROP   *,R7
                                   35773
 007D08 50E0 D000/9008_      00000 35774              KSYSB    PROC
 USING  *,R7
 007D22 41F0 0040            00040 35813                       LA    R15,KWRFSYSB
 007D26 58E0 764E/0DEE       08370 35814                       ACALL KXSYS
 007D2C 1BFF                       35818                       CLEAR R15
 007D2E 18D8/9808 D004_            35822                       PEND
 DROP   *,R7
                                   35842
 007D3C 50E0 D000/9008_      00000 35843              KSYSC    PROC
 USING  *,R7
 007D56 41F0 0020            00020 35882                       LA    R15,KWRFSYSC
 007D5A 58E0 761A/0DEE       08370 35883                       ACALL KXSYS
 007D60 1BFF                       35887                       CLEAR R15
 007D62 18D8/9808 D004_            35891                       PEND
 DROP   *,R7
                                   35911
 007D70 50E0 D000/9008_      00000 35912              KSYSD    PROC
 USING  *,R7
 007D8A 41F0 0010            00010 35951                       LA    R15,KWRFSYSD
 007D8E 58E0 75E6/0DEE       08370 35952                       ACALL KXSYS
 007D94 1BFF                       35956                       CLEAR R15
 007D96 18D8/9808 D004_            35960                       PEND
 DROP   *,R7
                                   35980
 007DA4 50E0 D000/9008_      00000 35981              KSYSH    PROC
 USING  *,R7
 007DBE 41F0 0008            00008 36020                       LA    R15,KWRFSYSE
 007DC2 58E0 75B2/0DEE       08370 36021                       ACALL KXSYS
 007DC8 1BFF                       36025                       CLEAR R15
 007DCA 18D8/9808 D004_            36029                       PEND
 DROP   *,R7
                                   36049
 007DD8 50E0 D000/9008_      00000 36050              KSYSF    PROC
 USING  *,R7
 007DF2 41F0 0004            00004 36089                       LA    R15,KWRFSYSF
 007DF6 58E0 757E/0DEE       08370 36090                       ACALL KXSYS
 007DFC 1BFF                       36094                       CLEAR R15
 007DFE 18D8/9808 D004_            36098                       PEND
 DROP   *,R7
                                   36118
 007E0C 50E0 D000/9008_      00000 36119              KSYSG    PROC
 USING  *,R7
 007E26 4110 7560/4100_      08386 36158                       XWTO  'KSYSG'
1ACMD     (ACMD4072) (12:39) (15MAR04) SET/SHOW MASTER Commands                                                             Page   93
0Current Usings:  (WA,R5) (*,R7) (CP,R11) (CV,R12)
0Loc    Object Code    Addr1 Addr2  Stmt Lv Lineno    Source Statement           (Hibal 5, Asmedit 3.3)  HLASM R4.0  2004/03/15 12.39
+___    ______ ____    _____ _____  ____ __ ______    ______ _________
0007E38 41F0 0002            00002 36175                       LA    R15,KWRFSYSG
 007E3C 58E0 754A/0DEE       08370 36176                       ACALL KXSYS
 007E42 1BFF                       36180                       CLEAR R15
 007E44 18D8/9808 D004_            36184                       PEND
 DROP   *,R7
                                   36204
 007E52 50E0 D000/9008_      00000 36205              KXSYS    PROC
 USING  *,R7
 007E6C 9680 51F8      001F8       36244                       SET   WAFOP
 007E70 9120 51F8/4710_001F8       36250                       IF    ~WAFXSYS,BEGIN      First machine specified...
 007E78 9620 51F8      001F8       36265  1                      SET   WAFXSYS             One machine has been specified
 007E7C 44F0 752E/9200_      0839A 36271  1                      EX    R15,'MVI KWRMPRIM,0'  Set primary machine
 007E80 D200 5035 50AE 00035 000AE 36287  1                      MVC   KWRMACC,KWRMPRIM    Allow access to primary machine
 007E86                            36288                       END
 007E86 701E/47F0 7034 07E86 07E76 36292                       ELSE  BEGIN               Secondary machine specified...
 007E8A 44F0 7532/9600_      0839E 36303  1                      EX    R15,'OI KWRMACC,0'  Set secondary machine also
 007E8E 4110 751F/4100_      0838B 36319  1                      XWTO  'KXSYS secondary'   *** slp debug ***
 007EA0                            36336                       END
 007EA0 18D8/9808 D004_            36340                       PEND
 DROP   *,R7
                                   36360
 007EAE 50E0 D000/9008_      00000 36361              KDAY     PROC
 USING  *,R7
 007EC8 9680 51F8/94FD_001F8       36400                       SET   WAFOP,(KWRTACF.KWRTNDAY,OFF)
 007ED0 18D8/9808 D004_            36412                       PEND
 DROP   *,R7
                                   36432
 007EDE 50E0 D000/9008_      00000 36433              KNODAY   PROC
 USING  *,R7
 007EF8 9680 51F8/9602_001F8       36472                       SET   WAFOP,KWRTACF.KWRTNDAY
 007F00 18D8/9808 D004_            36483                       PEND
 DROP   *,R7
                                   36503
 007F0E 50E0 D000/9008_      00000 36504              KACCT    PROC
 USING  *,R7
 007F28 9680 51F8/9640_001F8       36543                       SET   WAFOP,KWRIFL.KWRIFAPR
 007F30 947F 5065      00065       36554                       CLEAR KWRPFL.KWRFPCHK
 007F34 94F9 500E      0000E       36562                       CLEAR KWRIFL.KWRIFADM+KWRIFSUB
 007F38 18D8/9808 D004_            36573                       PEND
 DROP   *,R7
                                   36593
 007F46 50E0 D000/9008_      00000 36594              KNOACCT  PROC
 USING  *,R7
 007F60 9680 51F8/94BF_001F8       36633                       SET   WAFOP,(KWRIFL.KWRIFAPR,OFF)
 007F68 18D8/9808 D004_            36645                       PEND
 DROP   *,R7
                                   36665
 007F76 50E0 D000/9008_      00000 36666              KSPR     PROC
 USING  *,R7
 007F90 9680 51F8/9620_001F8       36705                       SET   WAFOP,KWRIFL.KWRIFSPR
 007F98 18D8/9808 D004_            36716                       PEND
 DROP   *,R7
                                   36736
 007FA6 50E0 D000/9008_      00000 36737              KNOSPR   PROC
1ACMD     (ACMD4072) (12:39) (15MAR04) SET/SHOW MASTER Commands                                                             Page   94
0Current Usings:  (WA,R5) (*,R7) (CP,R11) (CV,R12)
0Loc    Object Code    Addr1 Addr2  Stmt Lv Lineno    Source Statement           (Hibal 5, Asmedit 3.3)  HLASM R4.0  2004/03/15 12.39
+___    ______ ____    _____ _____  ____ __ ______    ______ _________
0USING  *,R7
 007FC0 9680 51F8/94DF_001F8       36776                       SET   WAFOP,(KWRIFL.KWRIFSPR,OFF)
 007FC8 18D8/9808 D004_            36788                       PEND
 DROP   *,R7
                                   36808
 007FD6 50E0 D000/9008_      00000 36809              KOPR     PROC
 USING  *,R7
 007FF0 9680 51F8/9610_001F8       36848                       SET   WAFOP,KWRIFL.KWRIFOPR
 007FF8 18D8/9808 D004_            36859                       PEND
 DROP   *,R7
                                   36879
 008006 50E0 D000/9008_      00000 36880              KNOOPR   PROC
 USING  *,R7
 008020 9680 51F8/94EF_001F8       36919                       SET   WAFOP,(KWRIFL.KWRIFOPR,OFF)
 008028 18D8/9808 D004_            36931                       PEND
 DROP   *,R7
                                   36951
 008036 50E0 D000/9008_      00000 36952              KSBM     PROC
 USING  *,R7
 008050 9680 51F8/9608_001F8       36991                       SET   WAFOP,KWRIFL.KWRIFSBM
 008058 18D8/9808 D004_            37002                       PEND
 DROP   *,R7
                                   37022
 008066 50E0 D000/9008_      00000 37023              KNOSBM   PROC
 USING  *,R7
 008080 9680 51F8/94F7_001F8       37062                       SET   WAFOP,(KWRIFL.KWRIFSBM,OFF)
 008088 18D8/9808 D004_            37074                       PEND
 DROP   *,R7
                                   37094
 008096 50E0 D000/9008_      00000 37095              KADMIN   PROC
 USING  *,R7
 0080B0 9680 51F8/94FB_001F8       37134                       SET   WAFOP,(KWRIFL.KWRIFSUB,OFF),KWRIFL.KWRIFADM
 0080BC 18D8/9808 D004_            37151                       PEND
 DROP   *,R7
                                   37171
 0080CA 50E0 D000/9008_      00000 37172              KSUBADM  PROC
 USING  *,R7
 0080E4 9680 51F8/94FD_001F8       37211                       SET   WAFOP,(KWRIFL.KWRIFADM,OFF),KWRIFL.KWRIFSUB
 0080F0 18D8/9808 D004_            37228                       PEND
 DROP   *,R7
                                   37248
 0080FE 50E0 D000/9008_      00000 37249              KSUPADM  PROC
 USING  *,R7
 008118 9680 51F8/94F9_001F8       37288                       SET   WAFOP,(KWRIFL.KWRIFADM+KWRIFSUB,OFF)
 008120 18D8/9808 D004_            37303                       PEND
 DROP   *,R7
                                   37323
 00812E 50E0 D000/9008_      00000 37324              KNOADMIN PROC
 USING  *,R7
 008148 9680 51F8/94F9_001F8       37363                       SET   WAFOP,(KWRIFL.KWRIFADM+KWRIFSUB,OFF)
 008150 18D8/9808 D004_            37378                       PEND
 DROP   *,R7
                                   37398
 00815E 50E0 D000/9008_      00000 37399              KPC      PROC
1ACMD     (ACMD4072) (12:39) (15MAR04) SET/SHOW MASTER Commands                                                             Page   95
0Current Usings:  (WA,R5) (*,R7) (CP,R11) (CV,R12)
0Loc    Object Code    Addr1 Addr2  Stmt Lv Lineno    Source Statement           (Hibal 5, Asmedit 3.3)  HLASM R4.0  2004/03/15 12.39
+___    ______ ____    _____ _____  ____ __ ______    ______ _________
0USING  *,R7
 008178 9680 51F8/9601_001F8       37438                       SET   WAFOP,KWRIFL.KWRIFPC
 008180 18D8/9808 D004_            37449                       PEND
 DROP   *,R7
                                   37469
 00818E 50E0 D000/9008_      00000 37470              KNOPC    PROC
 USING  *,R7
 0081A8 9680 51F8/94FE_001F8       37509                       SET   WAFOP,(KWRIFL.KWRIFPC,OFF)
 0081B0 18D8/9808 D004_            37521                       PEND
 DROP   *,R7
                                   37541
 0081BE 50E0 D000/9008_      00000 37542              KUCP     PROC
 USING  *,R7
 0081D8 9680 51F8      001F8       37581                       SET   WAFOP
 0081DC 948E 500E      0000E       37587                       CLEAR KWRIFL.KWRIFAPR+KWRIFSPR+KWRIFOPR+KWRIFPC
 0081E0 94F9 500E      0000E       37604                       CLEAR KWRIFL.KWRIFADM+KWRIFSUB
 0081E4 18D8/9808 D004_            37615                       PEND
 DROP   *,R7
                                   37635
 0081F2 50E0 D000/9008_      00000 37636              KMAIL    PROC
 USING  *,R7
 00820C 9680 51F8/9640_001F8       37675                       SET   WAFOP,KWROFL.KWRFMAIL
 008214 18D8/9808 D004_            37686                       PEND
 DROP   *,R7
                                   37706
 008222 50E0 D000/9008_      00000 37707              KNOMAIL  PROC
 USING  *,R7
 00823C 9680 51F8/94BF_001F8       37746                       SET   WAFOP,(KWROFL.KWRFMAIL,OFF)
 008244 18D8/9808 D004_            37758                       PEND
 DROP   *,R7
                                   37778
                                   37779                       AIF   ('&INSTALN' NE 'STANFORD').NOSOF2
 008252 50E0 D000/9008_      00000 37780              KFUNDS   PROC
 USING  *,R7
 00826C 9680 51F8      001F8       37819                       SET   WAFOP
 008270 58F0 B08C/41FF_      0008C 37825                       SCUPTOK R15
 008278 5900 710C/47D0_      08378 37829                       IF    (R0,GT,2),'VCALL NOTVALID'
                                   37855
 008286 95F9 F000/47D0_00000       37856                       IF    (@R15,GT,'9'),'VCALL NOTVALID'
 008294 95F0 F000/47B0_00000       37881                       IF    (@R15,LT,'0'),BEGIN
 00829C 95C1 F000/4740_00000       37897  1                      IF    ((@R15,LT,'A'),OR,(@R15,GT,'Z')),'VCALL NOTVALID'
 0082B2                            37937                       END
                                   37941
 0082B2 5900 710C/4770_      08378 37942                       IF    (R0,EQ,2),BEGIN
 0082BA 95F9 F001/47D0_00001       37959  1                      IF    (@R15+1,GT,'9'),'VCALL NOTVALID'
 0082C8 95F0 F001/47B0_00001       37984  1                      IF    (@R15+1,LT,'0'),BEGIN
 0082D0 95C1 F001/4740_00001       38000  2                        IF    ((@R15+1,LT,'A'),OR,(@R15+1,GT,'Z')),'VCALL NOTVALID'
 0082E6                            38040  1                      END
 0082E6                            38044                       END
                                   38048
 0082E6 D201 5061 F000 00061 00000 38049                       MVC   KWRSOF(2),@R15      Funds code
 0082EC 1BFF                       38050                       CLEAR R15
 0082EE 18D8/9808 D004_            38054                       PEND
 DROP   *,R7
1ACMD     (ACMD4072) (12:39) (15MAR04) SET/SHOW MASTER Commands                                                             Page   96
0Current Usings:  (WA,R5) (CP,R11) (CV,R12)
0Loc    Object Code    Addr1 Addr2  Stmt Lv Lineno    Source Statement           (Hibal 5, Asmedit 3.3)  HLASM R4.0  2004/03/15 12.39
+___    ______ ____    _____ _____  ____ __ ______    ______ _________
0                                  38074              .NOSOF2  ANOP
                                   38075
 0082FC 50E0 D000/9008_      00000 38076              KSTATUS  PROC
 USING  *,R7
 008316 9680 51F8      001F8       38115                       SET   WAFOP
 00831A 5810 B08C/4111_      0008C 38121                       SCUPTOK R1
 008322 5900 706A/4780_      08380 38125                       IF    (R0,NE,1),'VCALL NOTVALID'
 008330 95F0 1000/47C0_00000       38151                       IF    ((@R1,LE,'0'),OR,(@R1,GT,'9')),'VCALL NOTVALID'
 008346 D200 5063 1000 00063 00000 38191                       MVC   KWRSTAT,@R1
 00834C 1BFF                       38192                       CLEAR R15
 00834E 18D8/9808 D004_            38196                       PEND
 DROP   *,R7
                                   38216
                                   38217                       QLTORG
                                   38241
 0083A2 50E0 D000/9008_      00000 38242              KHOURS   PROC
 USING  *,R7
 0083BC 9680 51F8      001F8       38281                       SET   WAFOP
 0083C0 1FFF/BFF3 5042             38287                       L2    R15,KWRHRSAL
 0083C6 4CF0 7BD0            08F8C 38295                       MH    R15,=H'100'
 0083CA 58E0 7B8C/0DEE       08F48 38296                       ACALL GETLNO
 0083D0 59F0 7B90/47B0_      08F4C 38300                       FLOOR R15,0
 0083DC 1BEE                       38319                       CLEAR R14
 0083DE 5DE0 7B94            08F50 38323                       D     R14,=F'100'         Convert .001 to .1
 0083E2 40F0 5042            00042 38324                       STH   R15,KWRHRSAL
 0083E6 1BFF                       38325                       CLEAR R15
 0083E8 18D8/9808 D004_            38329                       PEND
 DROP   *,R7
                                   38349
 0083F6 50E0 D000/9008_      00000 38350              KAHOURS  PROC
 USING  *,R7
 008410 9680 51F8      001F8       38389                       SET   WAFOP
 008414 1FFF/BFF3 5044             38395                       L2    R15,KWRACCH
 00841A 4CF0 7B7C            08F8C 38403                       MH    R15,=H'100'
 00841E 58E0 7B38/0DEE       08F48 38404                       ACALL GETLNO
 008424 59F0 7B3C/47B0_      08F4C 38408                       FLOOR R15,0
 008430 1BEE                       38427                       CLEAR R14
 008432 5DE0 7B40            08F50 38431                       D     R14,=F'100'         Convert .001 to .1
 008436 40F0 5044            00044 38432                       STH   R15,KWRACCH
 00843A 1BFF                       38433                       CLEAR R15
 00843C 18D8/9808 D004_            38437                       PEND
 DROP   *,R7
                                   38457
 00844A 50E0 D000/9008_      00000 38458              KUHOURS  PROC
 USING  *,R7
 008464 9680 51F8      001F8       38497                       SET   WAFOP
 008468 1FFF/BFF3 5068             38503                       L2    R15,KWRHRSUS
 00846E 4CF0 7B28            08F8C 38511                       MH    R15,=H'100'
 008472 58E0 7AE4/0DEE       08F48 38512                       ACALL GETLNO
 008478 59F0 7AE8/47B0_      08F4C 38516                       FLOOR R15,0
 008484 1BEE                       38535                       CLEAR R14
 008486 5DE0 7AEC            08F50 38539                       D     R14,=F'100'         Convert .001 to .1
 00848A 40F0 5068            00068 38540                       STH   R15,KWRHRSUS
 00848E 1BFF                       38541                       CLEAR R15
1ACMD     (ACMD4072) (12:39) (15MAR04) SET/SHOW MASTER Commands                                                             Page   97
0Current Usings:  (WA,R5) (CP,R11) (CV,R12)
0Loc    Object Code    Addr1 Addr2  Stmt Lv Lineno    Source Statement           (Hibal 5, Asmedit 3.3)  HLASM R4.0  2004/03/15 12.39
+___    ______ ____    _____ _____  ____ __ ______    ______ _________
0008490 18D8/9808 D004_            38545                       PEND
 DROP   *,R7
                                   38565
 00849E 50E0 D000/9008_      00000 38566              KFHOURS  PROC
 USING  *,R7
 0084B8 9680 51F8      001F8       38605                       SET   WAFOP
 0084BC 1FFF/BFF3 5066             38611                       L2    R15,KWRHRSFR
 0084C2 4CF0 7AD4            08F8C 38619                       MH    R15,=H'100'
 0084C6 58E0 7A90/0DEE       08F48 38620                       ACALL GETLNO
 0084CC 59F0 7A94/47B0_      08F4C 38624                       FLOOR R15,0
 0084D8 1BEE                       38643                       CLEAR R14
 0084DA 5DE0 7A98            08F50 38647                       D     R14,=F'100'         Convert .001 to .1
 0084DE 40F0 5066            00066 38648                       STH   R15,KWRHRSFR
 0084E2 1BFF                       38649                       CLEAR R15
 0084E4 18D8/9808 D004_            38653                       PEND
 DROP   *,R7
                                   38673
 0084F2 50E0 D000/9008_      00000 38674              KIGNNUM  PROC  ,                  Do nothing -- compatibility
 USING  *,R7
 00850C 9680 51F8      001F8       38713                       SET   WAFOP
 008510 58E0 7A48/0DEE       08F54 38719                       ACALL GETNUM
 008516 1BFF                       38723                       CLEAR R15
 008518 18D8/9808 D004_            38727                       PEND
 DROP   *,R7
                                   38747
                                   38748                       AIF   (NOT &BUDGET).NOBUDG2
 008526 50E0 D000/9008_      00000 38749              KNOBUDG  PROC
 USING  *,R7
 008540 9680 51F8      001F8       38788                       SET   WAFOP
 008544 D202 5014 7A56 00014 08F96 38794                       MVC   KWRBGT,=AL3(0)      Will be -1 in future
 00854A 18D8/9808 D004_            38795                       PEND
 DROP   *,R7
                                   38815
 008558 50E0 D000/9008_      00000 38816              KBUDGET  PROC  ,
 USING  *,R7
 008572 9680 51F8      001F8       38855                       SET   WAFOP
 008576 1FFF/BFF7 5014             38861                       L3    R15,KWRBGT
 00857C 58E0 79E2/0DEE       08F54 38869                       ACALL GETNUM
 008582 12FF/4720 701C_            38873                       IF    (R15,NP),'VCALL NOTVALID'
 00858E BEF7 5014            00014 38896                       ST3   R15,KWRBGT
 008592 1BFF                       38898                       CLEAR R15
 008594 18D8/9808 D004_            38902                       PEND
 DROP   *,R7
                                   38922
 0085A2 50E0 D000/9008_      00000 38923              KCHARGES PROC
 USING  *,R7
 0085BC 9680 51F8      001F8       38962                       SET   WAFOP
 0085C0 1FFF/BFF7 5017             38968                       L3    R15,KWRBAL
 0085C6 58E0 7998/0DEE       08F54 38976                       ACALL GETNUM
 0085CC BEF7 5017            00017 38980                       ST3   R15,KWRBAL
 0085D0 1BFF                       38982                       CLEAR R15
 0085D2 18D8/9808 D004_            38986                       PEND
 DROP   *,R7
                                   39006              .NOBUDG2 ANOP
1ACMD     (ACMD4072) (12:39) (15MAR04) SET/SHOW MASTER Commands                                                             Page   98
0Current Usings:  (WA,R5) (CP,R11) (CV,R12)
0Loc    Object Code    Addr1 Addr2  Stmt Lv Lineno    Source Statement           (Hibal 5, Asmedit 3.3)  HLASM R4.0  2004/03/15 12.39
+___    ______ ____    _____ _____  ____ __ ______    ______ _________
0                                  39007
 0085E0 50E0 D000/9008_      00000 39008              KNOCPU   PROC
 USING  *,R7
 0085FA 9680 51F8      001F8       39047                       SET   WAFOP
 0085FE D201 501E 7994 0001E 08F8E 39053                       MVC   KWRLET,=H'0'        Will be -1 in future
 008604 18D8/9808 D004_            39054                       PEND
 DROP   *,R7
                                   39074
 008612 50E0 D000/9008_      00000 39075              KCPU     PROC
 USING  *,R7
 00862C 9680 51F8      001F8       39114                       SET   WAFOP
 008630 48F0 501E            0001E 39120                       LH    R15,KWRLET
 008634 58E0 7928/0DEE       08F54 39121                       ACALL GETNUM
 00863A 59F0 7920/47B0_      08F4C 39125                       FLOOR R15,0
 008646 12FF/4770 7026_            39144                       IF    (R15,Z),'VCALL NOTVALID'
 008652 40F0 501E            0001E 39167                       STH   R15,KWRLET
 008656 1BFF                       39168                       CLEAR R15
 008658 18D8/9808 D004_            39172                       PEND
 DROP   *,R7
                                   39192
 008666 50E0 D000/9008_      00000 39193              KNOCARDS PROC
 USING  *,R7
 008680 9680 51F8      001F8       39232                       SET   WAFOP
 008684 D201 501A 790E 0001A 08F8E 39238                       MVC   KWRLCP,=H'0'        Will be -1 in future
 00868A 18D8/9808 D004_            39239                       PEND
 DROP   *,R7
                                   39259
 008698 50E0 D000/9008_      00000 39260              KCARDS   PROC
 USING  *,R7
 0086B2 9680 51F8      001F8       39299                       SET   WAFOP
 0086B6 48F0 501A            0001A 39305                       LH    R15,KWRLCP
 0086BA 59F0 789A/47B0_      08F4C 39306                       FLOOR R15,0
 0086C6 4CF0 78DA            08F8C 39325                       MH    R15,=H'100'
 0086CA 58E0 78A2/0DEE       08F54 39326                       ACALL GETNUM
 0086D0 59F0 789A/47B0_      08F4C 39330                       FLOOR R15,0
 0086DC 12FF/4770 7036_            39349                       IF    (R15,Z),'VCALL NOTVALID'
 0086E8 41F0 F063            00063 39372                       LA    R15,@R15+99
 0086EC 1BEE                       39373                       CLEAR R14
 0086EE 5DE0 789E            08F50 39377                       D     R14,=F'100'
 0086F2 40F0 501A            0001A 39378                       STH   R15,KWRLCP
 0086F6 1BFF                       39379                       CLEAR R15
 0086F8 18D8/9808 D004_            39383                       PEND
 DROP   *,R7
                                   39403
 008706 50E0 D000/9008_      00000 39404              KNOLINES PROC
 USING  *,R7
 008720 9680 51F8      001F8       39443                       SET   WAFOP
 008724 D201 501C 786E 0001C 08F8E 39449                       MVC   KWRLLC,=H'0'        Will be -1 in future
 00872A 18D8/9808 D004_            39450                       PEND
 DROP   *,R7
                                   39470
 008738 50E0 D000/9008_      00000 39471              KLINES   PROC
 USING  *,R7
 008752 9680 51F8      001F8       39510                       SET   WAFOP
1ACMD     (ACMD4072) (12:39) (15MAR04) SET/SHOW MASTER Commands                                                             Page   99
0Current Usings:  (WA,R5) (*,R7) (CP,R11) (CV,R12)
0Loc    Object Code    Addr1 Addr2  Stmt Lv Lineno    Source Statement           (Hibal 5, Asmedit 3.3)  HLASM R4.0  2004/03/15 12.39
+___    ______ ____    _____ _____  ____ __ ______    ______ _________
0008756 48F0 501C            0001C 39516                       LH    R15,KWRLLC
 00875A 59F0 77FA/47B0_      08F4C 39517                       FLOOR R15,0
 008766 4CF0 783E            08F90 39536                       MH    R15,=H'1000'
 00876A 58E0 7802/0DEE       08F54 39537                       ACALL GETNUM
 008770 59F0 77FA/47B0_      08F4C 39541                       FLOOR R15,0
 00877C 12FF/4770 703C             39560                       IF    (R15,Z),BEGIN       .temp
 008782 4110 77B6/4100_      08F08 39574  1                      ABORT 'Specify NOLINES.'  .temp
 00878E                            39581                       END   ,                   .temp
 00878E 41F0 F3E7            003E7 39585                       LA    R15,@R15+999
 008792 1BEE                       39586                       CLEAR R14
 008794 5DE0 780A            08F5C 39590                       D     R14,=A(1000)
 008798 40F0 501C            0001C 39591                       STH   R15,KWRLLC
 00879C 1BFF                       39592                       CLEAR R15
 00879E 18D8/9808 D004_            39596                       PEND
 DROP   *,R7
                                   39616
 0087AC 50E0 D000/9008_      00000 39617              KEXPRESS PROC
 USING  *,R7
 0087C6 9680 51F8/9608_001F8       39656                       SET   WAFOP,KWRBFL.KWRBFE  class e/f/q only
 0087CE 18D8/9808 D004_            39667                       PEND
 DROP   *,R7
                                   39687
 0087DC 50E0 D000/9008_      00000 39688              KNOEXP   PROC
 USING  *,R7
 0087F6 9680 51F8/94F7_001F8       39727                       SET   WAFOP,(KWRBFL.KWRBFE,OFF)
 0087FE 18D8/9808 D004_            39739                       PEND
 DROP   *,R7
                                   39759
 00880C 50E0 D000/9008_      00000 39760              KINT     PROC
 USING  *,R7
 008826 9680 51F8/9608_001F8       39799                       SET   WAFOP,KWRAFL.KWRAFTOK
 00882E 18D8/9808 D004_            39810                       PEND
 DROP   *,R7
                                   39830
 00883C 50E0 D000/9008_      00000 39831              KNOINT   PROC
 USING  *,R7
 008856 9680 51F8/94F7_001F8       39870                       SET   WAFOP,(KWRAFL.KWRAFTOK,OFF)
 00885E 18D8/9808 D004_            39882                       PEND
 DROP   *,R7
                                   39902
 00886C 50E0 D000/9008_      00000 39903              KSTAT    PROC
 USING  *,R7
 008886 9680 51F8/947F_001F8       39942                       SET   WAFOP,(KWRTACF.KWRTNST,OFF)
 00888E 18D8/9808 D004_            39954                       PEND
 DROP   *,R7
                                   39974
 00889C 50E0 D000/9008_      00000 39975              KNOSTAT  PROC
 USING  *,R7
 0088B6 9680 51F8/9680_001F8       40014                       SET   WAFOP,KWRTACF.KWRTNST
 0088BE 18D8/9808 D004_            40025                       PEND
 DROP   *,R7
                                   40045
 0088CC 50E0 D000/9008_      00000 40046              KNOTIME  PROC
 USING  *,R7
1ACMD     (ACMD4072) (12:39) (15MAR04) SET/SHOW MASTER Commands                                                             Page  100
0Current Usings:  (WA,R5) (*,R7) (CP,R11) (CV,R12)
0Loc    Object Code    Addr1 Addr2  Stmt Lv Lineno    Source Statement           (Hibal 5, Asmedit 3.3)  HLASM R4.0  2004/03/15 12.39
+___    ______ ____    _____ _____  ____ __ ______    ______ _________
00088E6 9680 51F8      001F8       40085                       SET   WAFOP               Something specified
                                   40091
 0088EA 48F0 76AC            08F92 40092                       LH    R15,=H'-1'          Set default of -1
 0088EE 58E0 767A/0DEE       08F60 40093                       ACALL GETCNUM             Get optional number
 0088F4 59F0 767E/4770_      08F64 40097                       IF    (R15,EQ,-1),BEGIN   Notime with no other options...
 0088FC D701 504A 504A_0004A 0004A 40113  1                      CLEAR KWRNTDEF,KWRNTMAX   No idle time limits at all
 008908 9640 5048      00048       40125  1                      SET   KWRTACF.KWRTNTM     Backward compatibility
 00890C                            40132                       END
                                   40136
 00890C 702A/47F0 7050 0890C 088FA 40137                       ELSE  BEGIN               Notime=n or Notime=n,n....
 008910 182F                       40148  1                      LR    R2,R15              Save default value
 008912 48F0 76AC            08F92 40149  1                      LH    R15,=H'-1'          Set default of -1
 008916 58E0 767A/0DEE       08F60 40150  1                      ACALL GETCNUM             Get 2nd optional number
 00891C 59F0 767E/4770_      08F64 40154  1                      IF    (R15,EQ,-1),'LR R15,R2'  Max and default are the same
 008926 192F/47D0 7048_            40176  1                      CEIL  R2,R15              Default can't be > max
 00892E 4020 504A            0004A 40182  1                      STH   R2,KWRNTDEF         Save default
 008932 40F0 504C            0004C 40183  1                      STH   R15,KWRNTMAX        Save maximum
 008936                            40184                       END
 008936 1BFF                       40188                       CLEAR R15
 008938 18D8/9808 D004_            40192                       PEND
 DROP   *,R7
                                   40212
 008946 50E0 D000/9008_      00000 40213              KSECURE  PROC
 USING  *,R7
 008960 9680 51F8/9620_001F8       40252                       SET   WAFOP,KWROFL.KWRFSEC
 008968 18D8/9808 D004_            40263                       PEND
 DROP   *,R7
                                   40283
 008976 50E0 D000/9008_      00000 40284              KNOSEC   PROC
 USING  *,R7
 008990 9680 51F8/94DF_001F8       40323                       SET   WAFOP,(KWROFL.KWRFSEC,OFF)
 008998 18D8/9808 D004_            40335                       PEND
 DROP   *,R7
                                   40355
 0089A6 50E0 D000/9008_      00000 40356              KBATCH   PROC
 USING  *,R7
 0089C0 9680 51F8/9680_001F8       40395                       SET   WAFOP,KWRBFL.KWRBFVAL
 0089C8 18D8/9808 D004_            40406                       PEND
 DROP   *,R7
                                   40426
 0089D6 50E0 D000/9008_      00000 40427              KNOBATCH PROC
 USING  *,R7
 0089F0 9680 51F8/947F_001F8       40466                       SET   WAFOP,(KWRBFL.KWRBFVAL,OFF)
 0089F8 18D8/9808 D004_            40478                       PEND
 DROP   *,R7
                                   40498
 008A06 50E0 D000/9008_      00000 40499              KPRIO    PROC
 USING  *,R7
 008A20 9680 51F8/94EF_001F8       40538                       SET   WAFOP,(KWRBFL.KWRBFNON,OFF)
 008A28 18D8/9808 D004_            40550                       PEND
 DROP   *,R7
                                   40570
 008A36 50E0 D000/9008_      00000 40571              KNOPRIO  PROC
 USING  *,R7
1ACMD     (ACMD4072) (12:39) (15MAR04) SET/SHOW MASTER Commands                                                             Page  101
0Current Usings:  (WA,R5) (*,R7) (CP,R11) (CV,R12)
0Loc    Object Code    Addr1 Addr2  Stmt Lv Lineno    Source Statement           (Hibal 5, Asmedit 3.3)  HLASM R4.0  2004/03/15 12.39
+___    ______ ____    _____ _____  ____ __ ______    ______ _________
0008A50 9680 51F8/9610_001F8       40610                       SET   WAFOP,KWRBFL.KWRBFNON
 008A58 18D8/9808 D004_            40621                       PEND
 DROP   *,R7
                                   40641
 008A66 50E0 D000/9008_      00000 40642              KPROD    PROC
 USING  *,R7
 008A80 9680 51F8/9604_001F8       40681                       SET   WAFOP,KWRBFL.KWRBFP
 008A88 18D8/9808 D004_            40692                       PEND
 DROP   *,R7
                                   40712
 008A96 50E0 D000/9008_      00000 40713              KNOPROD  PROC
 USING  *,R7
 008AB0 9680 51F8/94FB_001F8       40752                       SET   WAFOP,(KWRBFL.KWRBFP,OFF)
 008AB8 18D8/9808 D004_            40764                       PEND
 DROP   *,R7
                                   40784
 008AC6 50E0 D000/9008_      00000 40785              KSETUP   PROC
 USING  *,R7
 008AE0 9680 51F8      001F8       40824                       SET   WAFOP
 008AE4 94BF 5020      00020       40830                       CLEAR KWRBFL.KWRBFIN
 008AE8 18D8/9808 D004_            40838                       PEND
 DROP   *,R7
                                   40858
 008AF6 50E0 D000/9008_      00000 40859              KNOSET   PROC
 USING  *,R7
 008B10 9680 51F8/9640_001F8       40898                       SET   WAFOP,KWRBFL.KWRBFIN
 008B18 18D8/9808 D004_            40909                       PEND
 DROP   *,R7
                                   40929
 008B26 50E0 D000/9008_      00000 40930              KPSETUP  PROC
 USING  *,R7
 008B40 9680 51F8      001F8       40969                       SET   WAFOP
 008B44 94DF 5020      00020       40975                       CLEAR KWRBFL.KWRBFOUT
 008B48 18D8/9808 D004_            40983                       PEND
 DROP   *,R7
                                   41003
 008B56 50E0 D000/9008_      00000 41004              KNOPSET  PROC
 USING  *,R7
 008B70 9680 51F8/9620_001F8       41043                       SET   WAFOP,KWRBFL.KWRBFOUT
 008B78 18D8/9808 D004_            41054                       PEND
 DROP   *,R7
                                   41074
 008B86 50E0 D000/9008_      00000 41075              KNOSPACE PROC
 USING  *,R7
 008BA0 9680 51F8      001F8       41114                       SET   WAFOP
 008BA4 D201 500C 73F2 0000C 08F92 41120                       MVC   KWRSPMAX,=H'-1'
 008BAA 18D8/9808 D004_            41121                       PEND
 DROP   *,R7
                                   41141
 008BB8 50E0 D000/9008_      00000 41142              KSPACE   PROC
 USING  *,R7
 008BD2 9680 51F8      001F8       41181                       SET   WAFOP
 008BD6 48F0 500C            0000C 41187                       LH    R15,KWRSPMAX
 008BDA 59F0 737A/47B0_      08F4C 41188                       FLOOR R15,0
1ACMD     (ACMD4072) (12:39) (15MAR04) SET/SHOW MASTER Commands                                                             Page  102
0Current Usings:  (WA,R5) (*,R7) (CP,R11) (CV,R12)
0Loc    Object Code    Addr1 Addr2  Stmt Lv Lineno    Source Statement           (Hibal 5, Asmedit 3.3)  HLASM R4.0  2004/03/15 12.39
+___    ______ ____    _____ _____  ____ __ ______    ______ _________
0008BE6 58E0 7382/0DEE       08F54 41207                       ACALL GETNUM
 008BEC 59F0 737A/47B0_      08F4C 41211                       FLOOR R15,0
 008BF8 59F0 7396/47D0_      08F68 41230                       IF    (R15,GT,32767),'LH R15,=H"-1"'
 008C04 40F0 500C            0000C 41253                       STH   R15,KWRSPMAX
 008C08 1BFF                       41254                       CLEAR R15
 008C0A 18D8/9808 D004_            41258                       PEND
 DROP   *,R7
                                   41278
 008C18 50E0 D000/9008_      00000 41279              KASPACE  PROC
 USING  *,R7
 008C32 9680 51F8      001F8       41318                       SET   WAFOP
 008C36 48F0 500A            0000A 41324                       LH    R15,KWRSPUSD
 008C3A 58E0 7322/0DEE       08F54 41325                       ACALL GETNUM
 008C40 59F0 731A/47B0_      08F4C 41329                       FLOOR R15,0
 008C4C 59F0 7336/47D0_      08F68 41348                       IF    (R15,GT,32767),'LH R15,=H"-1"'
 008C58 40F0 500A            0000A 41371                       STH   R15,KWRSPUSD
 008C5C 1BFF                       41372                       CLEAR R15
 008C5E 18D8/9808 D004_            41376                       PEND
 DROP   *,R7
                                   41396
 008C6C 50E0 D000/9008_      00000 41397              KPASS    PROC
 USING  *,R7
 008C86 58E0 72E6/0DEE       08F6C 41436                       VCALL DEQUOTE             De-quote, if quoted
 008C8C 5900 72EA/47D0_      08F70 41440                       IF    (R0,GT,L'KWRPASS),'VCALL NOTVALID'
 008C9A 9680 51F8      001F8       41466                       SET   WAFOP
 008C9E D207 5070 C4D8 00070 004D8 41472                       MVC   KWRPASS,CVBLANKS
 008CA4 18F0                       41473                       LR    R15,R0
                                   41474
 008CA6 59F0 72EE/47B0_      08F74 41475                       IF    (R15,LT,5),BEGIN    Too short...
 008CAE 9140 B3BE/47E0_003BE       41492  1                      IF    (CPSFAPR,AND,(CPSGRP,EQ,'GG')),EXIT  Allow for some
 008CC0 4110 7313/4100_      08F99 41526  1                      TSEG  'Password must be at least 5 characters long. '
 008CD2 4110 7292/4100_      08F18 41544  1                      TSEG  'No action taken.'
 008CE4 47F0 C7D6            007D6 41562  1                      B     CVERROR
 008CE8                            41563                       END
                                   41567
 008CE8 06F0/12FF/4740_            41568                       MOVE  R15,KWRPASS,@R1     Save password
                                   41606                       ¿þþþþþþþþþþþþþþþþþþþþþþþþþþþþþþþþþþþþþþþþþþþþþþþþþþþþþþþþþþþþþÜ
                                   41607                       Ÿ  Convert to upper case if uplow passwords are not allowed.  Ÿ
                                   41608                       ¾þþþþþþþþþþþþþþþþþþþþþþþþþþþþþþþþþþþþþþþþþþþþþþþþþþþþþþþþþþþþþ»
                                   41609                       AIF   (&KEYUPLO).KPUPLOW
 008CF4 58F0 C8A8            008A8 41610                       L     R15,CVUPPTBL
 008CF8 DC07 5070 F000 00070 00000 41611                       TR    KWRPASS,@R15
                                   41612              .KPUPLOW ANOP
                                   41613
 008CFE B205 D000      00000       41614                       STCK  @R13
 008D02 D203 505C D000 0005C 00000 41615                       MVC   KWRKTIM,@R13        Set password change time
 008D08 9608 51F9      001F9       41616                       SET   WAFUPDPW            Remember we updated the password
 008D0C 1BFF                       41622                       CLEAR R15
 008D0E 18D8/9808 D004_            41626                       PEND
 DROP   *,R7
                                   41646
 008D1C 50E0 D000/9008_      00000 41647              KVOL     PROC
 USING  *,R7
 008D36 5900 7246/47D0_      08F7C 41686                       IF    (R0,GT,6),'VCALL NOTVALID'
1ACMD     (ACMD4072) (12:39) (15MAR04) SET/SHOW MASTER Commands                                                             Page  103
0Current Usings:  (WA,R5) (*,R7) (CP,R11) (CV,R12)
0Loc    Object Code    Addr1 Addr2  Stmt Lv Lineno    Source Statement           (Hibal 5, Asmedit 3.3)  HLASM R4.0  2004/03/15 12.39
+___    ______ ____    _____ _____  ____ __ ______    ______ _________
0008D44 9680 51F8      001F8       41712                       SET   WAFOP
 008D48 5810 B08C/4111_      0008C 41718                       SCUPTOK R1
 008D50 D205 508C 1000 0008C 00000 41722                       MVC   KWRVOL,@R1
 008D56 1BFF                       41723                       CLEAR R15
 008D58 18D8/9808 D004_            41727                       PEND
 DROP   *,R7
                                   41747
 008D66 50E0 D000/9008_      00000 41748              KNOVOL   PROC
 USING  *,R7
 008D80 9680 51F8      001F8       41787                       SET   WAFOP
 008D84 D705 508C 508C 0008C 0008C 41793                       CLEAR KWRVOL
 008D8A 18D8/9808 D004_            41800                       PEND
 DROP   *,R7
                                   41820
 008D98 50E0 D000/9008_      00000 41821              KNETU    PROC
 USING  *,R7
 008DB2 5900 71CE/47D0_      08F80 41860                       IF    (R0,GT,L'KWRNETU),'VCALL NOTVALID'
 008DC0 9680 51F8      001F8       41886                       SET   WAFOP
 008DC4 58F0 B08C/4110_      0008C 41892                       SCUPCASE KWRNETU
                                   41913
 008DD6 D61F 51CC 51CC_001CC 001CC 41914                       IF    (KWRNETH,Z),'MVC KWRNETH,=CL(L"KWRNETH)"LINDY"'
 008DE6 1BFF                       41936                       CLEAR R15
 008DE8 18D8/9808 D004_            41940                       PEND
 DROP   *,R7
                                   41960
 008DF6 50E0 D000/9008_      00000 41961              KNONETU  PROC
 USING  *,R7
 008E10 9680 51F8      001F8       42000                       SET   WAFOP
 008E14 D70F 51BC 51BC 001BC 001BC 42006                       CLEAR KWRNETU
 008E1A 18D8/9808 D004_            42013                       PEND
 DROP   *,R7
                                   42033
 008E28 50E0 D000/9008_      00000 42034              KNETH    PROC
 USING  *,R7
 008E42 5900 7146/47D0_      08F88 42073                       IF    (R0,GT,L'KWRNETH),'VCALL NOTVALID'
 008E50 9680 51F8      001F8       42099                       SET   WAFOP
 008E54 58F0 B08C/4110_      0008C 42105                       SCUPCASE KWRNETH
 008E66 1BFF                       42126                       CLEAR R15
 008E68 18D8/9808 D004_            42130                       PEND
 DROP   *,R7
                                   42150
 008E76 50E0 D000/9008_      00000 42151              KNONETH  PROC
 USING  *,R7
 008E90 9680 51F8      001F8       42190                       SET   WAFOP
 008E94 D71F 51CC 51CC 001CC 001CC 42196                       CLEAR KWRNETH
 008E9A 18D8/9808 D004_            42203                       PEND
 DROP   *,R7
                                   42223
 008EA8 50E0 D000/9008_      00000 42224              KCREATE  PROC
 USING  *,R7
 008EC2 9680 51F8/9610_001F8       42263                       SET   WAFOP,WAFCRE
 008ECA 18D8/9808 D004_            42273                       PEND
 DROP   *,R7
                                   42293
1ACMD     (ACMD4072) (12:39) (15MAR04) SET/SHOW MASTER Commands                                                             Page  104
0Current Usings:  (WA,R5) (*,R7) (CP,R11) (CV,R12)
0Loc    Object Code    Addr1 Addr2  Stmt Lv Lineno    Source Statement           (Hibal 5, Asmedit 3.3)  HLASM R4.0  2004/03/15 12.39
+___    ______ ____    _____ _____  ____ __ ______    ______ _________
0008ED8 50E0 D000/9008_      00000 42294              KDELETE  PROC
 USING  *,R7
 008EF2 9620 51F9      001F9       42333                       SET   WAFDEL
 008EF6 18D8/9808 D004_            42339                       PEND
 DROP   *,R7
                                   42359
 DROP   WA,R5                      42360                       DROP  WA
                                   42368
                                   42369                       QLTORG
                                   42408
                                   42409                       PUSH  NOGEN
 008FCC E4E4E4                     42413              DEFKWR   KWR   PFX=DEF
                                   42606                       POP   PRINT
1ACMD     (ACMD4072) (12:39) (15MAR04) SET/SHOW MASTER Commands                                                             Page  105
0Current Usings:  (CP,R11) (CV,R12)
0Loc    Object Code    Addr1 Addr2  Stmt Lv Lineno    Source Statement           (Hibal 5, Asmedit 3.3)  HLASM R4.0  2004/03/15 12.39
+___    ______ ____    _____ _____  ____ __ ______    ______ _________
0                                  42609              ¿þþþþþþþþþþþþþþþþþþþþþþþþþþþþþþþþþþþþþþþþþþþþþþþþþþþþþþþþþþþþþþþþþþþþþÜ
                                   42610              Ÿ                                                                     Ÿ
                                   42611              Ÿ  SHOWMAST -- SHOW MASTER command.  (Priv'd)                         Ÿ
                                   42612              Ÿ                                                                     Ÿ
                                                      ¾þþþþþþþþþþþþþþþþþþþþþþþþþþþþþþþþþþþþþþþþþþþþþþþþþþþþþþþþþþþþþþþþþþþþþ»
00091C4 50E0 D000/9008_      00000 42613              SHOWMAST XPROC WA
 USING  *,R7
 USING  WA-(4+36),R8
                                   42664
 0091DE D7FF 8028 8028_00000 00000 42665                       CLEAR WA
 0091F0 4150 8028            00000 42674                       LA    R5,WA
 USING  WA,R5                      42675                       USING WA,R5
                                   42684
 0091F4 4100 0001            00001 42685                       LA    R0,1                No password prompt
 0091F8 58E0 72DA/0DEE       094B8 42686                       ACALL GETAENT
                                   42690
 0091FE 9146 B3BE/4770_003BE       42691                       IF    (CPSFAPR+CPSFADM+CPSFSUB,Z),BEGIN
 009206 4100 0080            00080 42715  1                      LA    R0,SMFWMAST         Attempted show master
 00920A 58E0 72DE/0DEE       094BC 42716  1                      VCALL LOGKWR              Log attempt
 009210 58E0 72E2/0DEE       094C0 42720  1                      VCALL NOTVALID
 009216                            42724                       END
                                   42728                       ¿þþþþþþþþþþþþþþþþþþþþþþþþþþþþþþþþþþÜ
                                   42729                       Ÿ  Special RLIN group code check.  Ÿ
                                   42730                       ¾þþþþþþþþþþþþþþþþþþþþþþþþþþþþþþþþþþ»
 009216 D501 5003 B3B7_00003 003B7 42731                       IF    (KWRGRP,NE,CPSGRP),BEGIN
 009220 9142 B3BE/4770_003BE       42749  1                      IF    (CPSFAPR+CPSFADM,Z),'ACALL BADAGRP'  No match, scram
                                   42778  1         C            IF    (((KWRGRP,EQ,'B'),OR,(KWRGRP,EQ,'Y'),OR,
                                          1         C                  (KWRGRP,EQ,'Z'),OR,
                                          1         C                  (KWRGRP,EQ,'DQ'),OR,
                                          1         C                  (KWRGRP,EQ,'HH'),OR,(KWRGRP,EQ,'HN')),AND,
 00922E 95C2 5003/4780_00003              1                            (CPSGRP,EQ,'B')),EXIT
 00926C 9140 B3BE/4710_003BE       42886  1                      IF    ~CPSFAPR,'ACALL BADAGRP'
 00927A                            42910                       END
                                   42914                       ¿þþþþþþþþþþþþþþþþþþþþþþþþþþþþþþþþþþþþþþþþþþþþþÜ
                                   42915                       Ÿ  Special HOSPITAL (SYSC) group code check.  Ÿ
                                   42916                       ¾þþþþþþþþþþþþþþþþþþþþþþþþþþþþþþþþþþþþþþþþþþþþþ»
 00927A D501 7314 B3B7_094F2 003B7 42917                       IF    ((CPSGRP,EQ,'CV'),OR,(CPSGRP,EQ,'C1')),BEGIN
 00928E D501 7314 5003_094F2 00003 42950  1                      IF    (KWRGRP,EQ,'CV'),EXIT
 009298 D501 7316 5003_094F4 00003 42970  1                      IF    (KWRGRP,EQ,'C1'),EXIT
 0092A2 58E0 72E6/0DEE       094C4 42990  1                      ACALL BADAGRP
 0092A8                            42994                       END
                                   42998                       ¿þþþþþþþþþþþþþþþþþþþþþþþþþþþþþþþþþþþþþþþþþþþþþþþþþþþþþþþþþþþþþþþÜ
                                   42999                       Ÿ  The first character of the user-id must match for SUBADMIN.  Ÿ
                                   43000                       ¾þþþþþþþþþþþþþþþþþþþþþþþþþþþþþþþþþþþþþþþþþþþþþþþþþþþþþþþþþþþþþþþ»
 0092A8 9104 B3BE/47E0_003BE       43001                       IF    CPSFSUB,BEGIN       SUBADMIN privs...
 0092B0 D500 5000 B3B4_00000 003B4 43016  1                      IF    ('CLC KWRUSER(1),CPSUSER',NE),'ACALL BADAGRP'
 0092C0                            43038                       END
                                   43042
 0092C0 5810 B08C/1B00_      0008C 43043                       SCAN  SMASTPRT
 009312 58E0 72F2/0DEE       094D0 43075                       SCANCHK
                                   43080
 009318 9180 51F9/47E0_001F9       43081                       IF    WAFDHEX,BEGIN       Hex format...
 009320 D207 5070 72D2 00070 094B0 43096  1                      MVC   KWRPASS,=(L'KWRPASS)X'FF'  Wipe the password */
1ACMD     (ACMD4072) (12:39) (15MAR04) SET/SHOW MASTER Commands                                                             Page  106
0Current Usings:  (WA,R5) (*,R7) (WA-(4+36),R8) (CP,R11) (CV,R12)
0Loc    Object Code    Addr1 Addr2  Stmt Lv Lineno    Source Statement           (Hibal 5, Asmedit 3.3)  HLASM R4.0  2004/03/15 12.39
+___    ______ ____    _____ _____  ____ __ ______    ______ _________
0009326 4110 5003/4100_      00003 43097  1                      TSEG  KWRGRP
 009338 4110 731C/4100_      094FA 43125  1                      TSEG  '.'
 00934A 4110 5000/4100_      00000 43143  1                      TSEG  KWRUSER
 00935C 4110 731D/4100_      094FB 43171  1                      TSEG  ':',,WR
 00936E 4770 7204            093E2 43189  1                      BNZ   SMASTFIN
 009372 4140 5000            00000 43190  1                      LA    R4,KWR
 009376 4130 01F4            001F4 43191  1                      LA    R3,KWREND-KWR
 00937A                            43192  1                      LOOP  BEGIN
 00937A 41F0 01F4            001F4 43198  2                        LA    R15,KWREND-KWR
 00937E 1BF3                       43199  2                        SR    R15,R3
 009380 4100 0003/4110_      00003 43200  2                        BTX   CPDOUB,3,(R15)
 00938E 41F0 B050/58E0_      00050 43222  2                        TSEG  (R1),(R0)
 009398 4110 C4D8/4100_      004D8 43246  2                        TSEG  CVBLANKS,2
 0093AA 41F0 000E            0000E 43276  2                        LA    R15,14
 0093AE 1814/1803                  43277  2                        SETMSG (R4),(R3)
 0093B2 5900 7302/47D0_      094E0 43289  2                        CEIL  R0,32
 0093BE 58E0 7306/0DEE       094E4 43308  2                        VCALL HEXFMT
 0093C4 4770 7204            093E2 43312  2                        BNZ   SMASTFIN
 0093C8 4140 4020            00020 43313  2                        LA    R4,@R4+32
 0093CC 4B30 731A            094F8 43314  2                        SH    R3,=H'32'
 0093D0 4720 719C            0937A 43315  1                      UNTIL ~POS,END
 0093D4 47F0 7204            093E2 43334  1                      B     SMASTFIN
 0093D8                            43335                       END
                                   43339
 0093D8 4110 5000            00000 43340                       LA    R1,KWR
 0093DC 58E0 730A/0DEE       094E8 43341                       ACALL MASTDISP
                                   43345
 0093E2 4100 00A0            000A0 43346              SMASTFIN LA    R0,SMFWMAST+SMFWAUTH
 0093E6 58E0 72DE/0DEE       094BC 43347                       VCALL LOGKWR              Write SMF log record
                                   43351
 0093EC D7FF 5000 5000_00000 00000 43352                       CLEAR KWR
 0093F8 47F0 C7DE            007DE 43360                       B     CVNEXT
 0093FC 18D8/9808 D004_            43361                       PEND
 DROP   WA-(4+36),R8
 DROP   *,R7
                                   43386              *
                                   43387              *
                                   43388              *
 00940C C8C5E74040404040_          43389              SMASTPRT SCKW  HEX,SMASTHEX
 009434 4040404040404040_          43404                       SCKW  ,V(COLLPSH),PUSH
 00945C 4040404040404040_          43419                       SCKW  ,V(NOTVALID)
                                   43434
 009484 50E0 D000/9008_      00000 43435              SMASTHEX PROC
 USING  *,R7
 00949E 9680 51F9      001F9       43474                       SET   WAFDHEX             Display record in hex
 0094A2 18D8/9808 D004_            43480                       PEND
 DROP   *,R7
                                   43500
 DROP   WA,R5                      43501                       DROP  WA
                                   43509
                                   43510                       QLTORG
1ACMD     (ACMD4072) (12:39) (15MAR04) SET/SHOW MASTER Commands                                                             Page  107
0Current Usings:  (CP,R11) (CV,R12)
0Loc    Object Code    Addr1 Addr2  Stmt Lv Lineno    Source Statement           (Hibal 5, Asmedit 3.3)  HLASM R4.0  2004/03/15 12.39
+___    ______ ____    _____ _____  ____ __ ______    ______ _________
0                                  43546              ¿þþþþþþþþþþþþþþþþþþþþþþþþþþþþþþþþþþþþþþþþþþþþþþþþþþþþþþþþþþþþþþþþþþþþþÜ
                                   43547              Ÿ                                                                     Ÿ
                                   43548              Ÿ  MASTDISP -- Routine to display all account options.                Ÿ
                                   43549              Ÿ                                                                     Ÿ
                                   43550              Ÿ    On entry:                                                        Ÿ
                                   43551              Ÿ      R1 - KWR ptr                                                   Ÿ
                                   43552              Ÿ                                                                     Ÿ
                                                      ¾þþþþþþþþþþþþþþþþþþþþþþþþþþþþþþþþþþþþþþþþþþþþþþþþþþþþþþþþþþþþþþþþþþþþþ»
00094FC 50E0 D000/9008_      00000 43553              MASTDISP PROC
 USING  *,R7
 009516 5840 7D9A            0A2B0 43592                       BASE  MASTDISP+4000,R4
 USING  MASTDISP+4000,R4
 00951A 1851                       43606                       LR    R5,R1               KWR ptr
 USING  KWR,R5                     43607                       USING KWR,R5
                                   43616
 00951C 4110 5003/4100_      00003 43617                       TSEG  KWRGRP
 00952E 4110 7ECC/4100_      0A3E2 43645                       TSEG  '.'
 009540 4110 5000/4100_      00000 43663                       TSEG  KWRUSER,,B
 009552 D613 5078 5078_00078 00078 43691                       IF    (KWRNAME,NZ),BEGIN
 00955C 4110 7ECD/4100_      0A3E3 43707  1                      TSEG  '"'
 00956E 4110 5078/4100_      00078 43725  1                      TSEG  KWRNAME,,T
 009580 4110 7E26/4100_      0A33C 43753  1                      TSEG  '" '
 009592                            43771                       END
 009592 D613 509A 509A_0009A 0009A 43775                       IF    (KWRCOMM,NZ),'TSEG "["; TSEG KWRCOMM,,T; TSEG "] "'
 0095D2 D502 7ECF 5000_0A3E5 00000 43860                       IF    (KWRUSER,EQ,'PUB'),'TSEG "(Template account) "'
 0095EE 9180 5057/47E0_00057       43900                       IF    KWROFL.KWRFMULT,BEGIN
 0095F6 4110 7EE5/4100_      0A3FB 43916  1                      SETMSG '(Multiple) '
 0095FE 9108 5057/47E0_00057       43920  1                      IF    KWROFL.KWRFMNPR,'SETMSG "(XMultiple) "'
 00960E 41F0 B050/58E0_      00050 43945  1                      TSEG  (R1),(R0)
 009618                            43969                       END
 009618 9101 500E/47E0_0000E       43973                       IF    KWRIFL.KWRIFPC,'TSEG "(PC) "'
 009632 9104 500E/47E0_0000E       44012                       IF    KWRIFL.KWRIFSUB,'TSEG "(Subadmin) "'
 00964C 9102 500E/47E0_0000E       44051                       IF    KWRIFL.KWRIFADM,'TSEG "(Admin) "'
 009666 9140 B3BE/47E0_003BE       44090                       IF    CPSFAPR,BEGIN
 00966E 9120 500E/47E0_0000E       44105  1                      IF    KWRIFL.KWRIFSPR,'TSEG "(Sys) "'
 009688 9140 500E/47E0_0000E       44144  1                      IF    KWRIFL.KWRIFAPR,'TSEG "(Acct) "'
 0096A2 9110 500E/47E0_0000E       44183  1                      IF    KWRIFL.KWRIFOPR,'TSEG "(Opr) "'
 0096BC 9108 500E/47E0_0000E       44222  1                      IF    KWRIFL.KWRIFSBM,'TSEG "(Submit) "'
 0096D6                            44261                       END
 0096D6 9180 500F/4710_0000F       44265                       IF    ~KWRAFL.KWRAFVAL,'TSEG " ** Suspended ** "'
 0096F0 1B00/41F0 B050_            44304                       TCR
 0096FC 9180 500E/47E0_0000E       44329                       IF    ~KWRIFL.KWRIFVAL,MASTEXIT  (Don't show options if del)
 009704 9140 BD55/4710_00D55       44348                       IF    CPFQUIET,MASTEXIT   (For SET MASTER...QUIET)
                                   44366              *
                                   44367              *
 00970C 9104 5057/47E0_00057       44368                       IF    KWROFL.KWRFNPAS,BEGIN  No logon password needed...
 009714 4110 C4D8/4100_      004D8 44384  1                      TSEG  CVBLANKS,2
 009726 4110 7F21/4100_      0A437 44414  1                      TSEG  'No logon password needed.',,CR
 009738                            44432                       END
                                   44436              *
                                   44437              *
 009738 4110 C4D8/4100_      004D8 44438                       TSEG  CVBLANKS,2
 00974A 4110 7E36/4100_      0A34C 44468                       TSEG  'Primary machine is'
1ACMD     (ACMD4072) (12:39) (15MAR04) SET/SHOW MASTER Commands                                                             Page  108
0Current Usings:  (MASTDISP+4000,R4) (KWR,R5) (*,R7) (CP,R11) (CV,R12)
0Loc    Object Code    Addr1 Addr2  Stmt Lv Lineno    Source Statement           (Hibal 5, Asmedit 3.3)  HLASM R4.0  2004/03/15 12.39
+___    ______ ____    _____ _____  ____ __ ______    ______ _________
000975C 4110 50AE            000AE 44486                       LA    R1,KWRMPRIM
 009760 58E0 7DBA/0DEE       0A2D0 44487                       ACALL SEGMACH
 009766 4110 7DBE/4100_      0A2D4 44491                       TSEG  ', machine access allowed for'
 009778 4110 5035            00035 44509                       LA    R1,KWRMACC
 00977C 58E0 7DBA/0DEE       0A2D0 44510                       ACALL SEGMACH
 009782 D603 B05C B05C_0005C 0005C 44514                       TCCR
                                   44576              *
                                   44577              *
 0097A2 1B22                       44578                       CLEAR R2                  Nothing output yet ...
                                   44582                       AIF   ('&INSTALN' NE 'STANFORD').NOSOF3
 0097A4 4120 0004            00004 44583                       LA    R2,4
 0097A8 4110 7D72/4100_      0A288 44584                       TSEG  '  Funds='
 0097BA 4110 5061/4100_      00061 44602                       SETMSG KWRSOF
 0097C2 9500 5061/4780_00061       44616                       IF    ((KWRSOF,Z),OR,(KWRSOF,EQ,' ')),'SETMSG "?"'
 0097DA 41F0 B050/58E0_      00050 44657                       TSEG  (R1),(R0)
 0097E4 9500 5062/4780_00062       44681                       IF    ((KWRAR,NZ),AND,(KWRAR,NE,' ')),'TSEG KWRAR'
                                   44746
 009806 1B00                       44747                       CLEAR R0
 009808 95F1 5061/4770_00061       44751                       IF    (KWRSOF,EQ,'1'),'SETMSG  " (Library)"'
 009818 95F2 5061/4770_00061       44777                       IF    (KWRSOF,EQ,'2'),'SETMSG  " (Accts Receivable)"'
 009828 95F3 5061/4770_00061       44803                       IF    (KWRSOF,EQ,'3'),'SETMSG  " (Govt Sponsored)"'
 009838 95F4 5061/4770_00061       44829                       IF    (KWRSOF,EQ,'4'),'SETMSG  " (Departmental)"'
 009848 95F5 5061/4770_00061       44855                       IF    (KWRSOF,EQ,'5'),'SETMSG  " (Unsponsored Research)"'
 009858 95F6 5061/4770_00061       44881                       IF    (KWRSOF,EQ,'6'),'SETMSG  " (Instructional)"'
 009868 95F7 5061/4770_00061       44907                       IF    (KWRSOF,EQ,'7'),'SETMSG  " (Med Ctr/Hosp/FPP)"'
 009878 95F8 5061/4770_00061       44933                       IF    (KWRSOF,EQ,'8'),'SETMSG  " (Overhead)"'
 009888 95F9 5061/4770_00061       44959                       IF    (KWRSOF,EQ,'9'),'SETMSG  " (University Admin)"'
 009898 95C1 5061/4770_00061       44985                       IF    (KWRSOF,EQ,'A'),'SETMSG  " (Internal Systems)"'
 0098A8 95C2 5061/4770_00061       45011                       IF    (KWRSOF,EQ,'B'),'SETMSG  " (Data Center staff)"'
 0098B8 95C3 5061/4770_00061       45037                       IF    (KWRSOF,EQ,'C'),'SETMSG  " (Core)"'
 0098C8 D501 7E52 5061_0A368 00061 45063                       IF    (KWRSOF,EQ,'CA'),'SETMSG " (Core/Class)"'
 0098DA 41F0 B050/58E0_      00050 45089                       TSEG  (R1),(R0)
                                   45113              .NOSOF3  ANOP
                                   45114
 0098E4 9500 5063/4780_00063       45115                       IF    ((KWRSTAT,NZ),AND,(KWRSTAT,NE,' ')),BEGIN
 0098F4 1222/4770 73FA             45147  1                      IF    (R2,Z),BEGIN        Nothing on this line yet ...
 0098FA 4120 0004            00004 45161  2                        LA    R2,4                But now there is
 0098FE 4110 7E54/4100_      0A36A 45162  2                        TSEG  '  '                Indent it
 009910 73FE/47F0 7410 09910 098F8 45180  1                      END   ELSE,BEGIN
 009914 4110 7E56/4100_      0A36C 45195  2                        TSEG  ', '                Need a comma
 009926                            45213  1                      END
 009926 4110 4057/4100_      0A4F3 45217  1                      TSEG  'status='
 009938 4110 5063/4100_      00063 45235  1                      TSEG  KWRSTAT
 00994A 1B00                       45263  1                      CLEAR R0
 00994C 95F1 5063/4770_00063       45267  1                      IF    (KWRSTAT,EQ,'1'),'SETMSG " (Expired)"'
 00995C 95F2 5063/4770_00063       45293  1                      IF    (KWRSTAT,EQ,'2'),'SETMSG " (Closed)"'
 00996C 95F3 5063/4770_00063       45319  1                      IF    (KWRSTAT,EQ,'3'),'SETMSG " (Over budget)"'
 00997C 95F4 5063/4770_00063       45345  1                      IF    (KWRSTAT,EQ,'4'),'SETMSG " (User hold)"'
 00998C 41F0 B050/58E0_      00050 45371  1                      TSEG  (R1),(R0)
 009996                            45395                       END
                                   45399
 009996 1222/4780 7492_            45400                       IF    (R2,NZ),'TCR'
                                   45444
                                   45445                       AIF   (NOT &BUDGET).NOBUDG4
1ACMD     (ACMD4072) (12:39) (15MAR04) SET/SHOW MASTER Commands                                                             Page  109
0Current Usings:  (MASTDISP+4000,R4) (KWR,R5) (*,R7) (CP,R11) (CV,R12)
0Loc    Object Code    Addr1 Addr2  Stmt Lv Lineno    Source Statement           (Hibal 5, Asmedit 3.3)  HLASM R4.0  2004/03/15 12.39
+___    ______ ____    _____ _____  ____ __ ______    ______ _________
00099A8 4110 C4D8/4100_      004D8 45446                       TSEG  CVBLANKS,2
 0099BA 1FFF/BFF7 5014_            45476                       IF    ('L3 R15,KWRBGT',Z),'TSEG "No"'
 0099D6 74C4/47F0 74CA_099D6 099C2 45519                       ELSE  'ACALL SEGXDOL'
 0099E0 4110 4067/4100_      0A503 45539                       TSEG  ' budget'
 0099F2 D602 5017 5017_00017 00017 45557                       IF    (KWRBAL,NZ),BEGIN
 0099FC 4110 7E72/4100_      0A388 45573  1                      TSEG  ' ('
 009A0E 1FFF/BFF7 50BC             45591  1                      L3    R15,KWRMTD
 009A14 58E0 7DFA/0DEE       0A310 45599  1                      ACALL SEGXDOL
 009A1A 4110 406E/4100_      0A50A 45603  1                      TSEG  ' MTD,',,B
 009A2C 1FFF/BFF7 5017             45621  1                      L3    R15,KWRBAL
 009A32 58E0 7DFA/0DEE       0A310 45629  1                      ACALL SEGXDOL
 009A38 4110 4073/4100_      0A50F 45633  1                      TSEG  ' YTD)'
 009A4A                            45651                       END
                                   45655              .NOBUDG4 ANOP
                                   45656
                                   45657                       AIF   (NOT &SPACE).SPACE3
 009A4A 4110 7E56/4100_      0A36C 45658                       TSEG  ', '                Indent
 009A5C 4110 7E74/4100_      0A38A 45676                       SETMSG 'No space limit'
 009A64 4820 500C/1222_      0000C 45680                       IF    ('LTH R2,KWRSPMAX',~NEG),BEGIN
 009A6E 4110 7E82/4100_      0A398 45696  1                      TSEG  'Space='
 009A80 1812/1B00/41F0_            45714  1                      TNUM  (R2)
 009A8E 4110 4078/4100_      0A514 45736  1                      SETMSG ' tracks'
 009A96                            45740                       END
 009A96 41F0 B050/58E0_      00050 45744                       TSEG  (R1),(R0)
 009AA0 4820 500A/1222_      0000A 45768                       IF    ('LTH R2,KWRSPUSD',POS),BEGIN
 009AAA 4110 7E72/4100_      0A388 45784  1                      TSEG  ' ('
 009ABC 1812/1B00/41F0_            45802  1                      TNUM  (R2)
 009ACA 4110 7E88/4100_      0A39E 45824  1                      TSEG  ' tracks accounted)'
 009ADC                            45842                       END
                                   45846              .SPACE3  ANOP
 009ADC D603 B05C B05C_0005C 0005C 45847                       TCCR
                                   45909
 009AFC 4110 C4D8/4100_      004D8 45910                       SETMSG CVBLANKS,1
 009B04 D607 5021 5021_00021 00021 45926                       IF    (KWRDEST,NZ),BEGIN
 009B0E 41F0 B050/58E0_      00050 45942  1                      TSEG  (R1),(R0)
 009B18 4110 7E9A/4100_      0A3B0 45966  1                      TSEG  ' Dest='
 009B2A 4110 5021/4100_      00021 45984  1                      TSEG  KWRDEST,,T
 009B3C 4110 407F/4100_      0A51B 46012  1                      SETMSG ','
 009B44                            46016                       END
 009B44 D603 5029 5029_00029 00029 46020                       IF    (KWRFORM,NZ),BEGIN
 009B4E 41F0 B050/58E0_      00050 46036  1                      TSEG  (R1),(R0)
 009B58 4110 4080/4100_      0A51C 46060  1                      TSEG  ' Forms='
 009B6A 4110 5029/4100_      00029 46078  1                      TSEG  KWRFORM
 009B7C 4110 407F/4100_      0A51B 46106  1                      SETMSG ','
 009B84                            46110                       END
 009B84 D602 5010 5010_00010 00010 46114                       IF    (KWRBIN,NZ),BEGIN
 009B8E 41F0 B050/58E0_      00050 46130  1                      TSEG  (R1),(R0)
 009B98 4110 4087/4100_      0A523 46154  1                      TSEG  ' Bin='
 009BAA 4110 5010/4100_      00010 46172  1                      TSEG  KWRBIN
 009BBC                            46200                       END
 009BBC D603 B05C B05C_0005C 0005C 46204                       TCCR
                                   46266              *
                                   46267              *
 009BDC 4110 C4D8/4100_      004D8 46268                       TSEG  CVBLANKS,2
1ACMD     (ACMD4072) (12:39) (15MAR04) SET/SHOW MASTER Commands                                                             Page  110
0Current Usings:  (MASTDISP+4000,R4) (KWR,R5) (*,R7) (CP,R11) (CV,R12)
0Loc    Object Code    Addr1 Addr2  Stmt Lv Lineno    Source Statement           (Hibal 5, Asmedit 3.3)  HLASM R4.0  2004/03/15 12.39
+___    ______ ____    _____ _____  ____ __ ______    ______ _________
0009BEE 4110 408C/4100_      0A528 46298                       SETMSG 'No volume'
 009BF6 D605 508C 508C_0008C 0008C 46302                       IF    (KWRVOL,NZ),BEGIN
 009C00 4110 4095/4100_      0A531 46318  1                      TSEG  'Volume='
 009C12 4110 508C/4100_      0008C 46336  1                      SETMSG KWRVOL
 009C1A                            46350                       END
 009C1A 41F0 B050/58E0_      00050 46354                       TSEG  (R1),(R0),T
                                   46378
 009C24 4110 409C/4100_      0A538 46379                       SETMSG ', No mail allowed'
 009C2C 9140 5057/47E0_00057       46383                       IF    KWROFL.KWRFMAIL,'SETMSG ", Mail is allowed"'
 009C3C 41F0 B050/58E0_      00050 46408                       TSEG  (R1),(R0)
                                   46432              *
                                   46433              *
 009C46 D60F 51BC 51BC_001BC 001BC 46434                       IF    (KWRNETU,NZ),BEGIN
 009C50 4110 40BE/4100_      0A55A 46450  1                      TSEG  ', Network user='
 009C62 4110 51BC/4100_      001BC 46468  1                      TSEG  KWRNETU,,T
 009C74                            46496                       END
 009C74 7762/47F0 7774_09C74 09C4E 46500                       ELSE  'TSEG ", No network user id"'
                                   46534
 009C8A D61F 51CC 51CC_001CC 001CC 46535                       IF    (KWRNETH,NZ),BEGIN
 009C94 4110 40CD/4100_      0A569 46551  1                      TSEG  ', Network host='
 009CA6 4110 51CC/4100_      001CC 46569  1                      TSEG  KWRNETH,,T
 009CB8                            46597                       END
 009CB8 D603 B05C B05C_0005C 0005C 46601                       TCCR
                                   46663              *
                                   46664              *
 009CD8 4110 C4D8/4100_      004D8 46665                       SETMSG CVBLANKS,1
 009CE0 4820 5042/1222_      00042 46681                       IF    ('LTH R2,KWRHRSAL',NZ),BEGIN
 009CEA 41F0 B050/58E0_      00050 46697  1                      TSEG  (R1),(R0)
 009CF4 4110 40DC/4100_      0A578 46721  1                      TSEG  ' Hours='
 009D06 1802                       46739  1                      LR    R0,R2
 009D08 4C00 7EA0            0A3B6 46740  1                      MH    R0,=H'100'
 009D0C 58E0 7E16/0DEE       0A32C 46741  1                      VCALL CVEXNO
 009D12 41F0 B050/58E0_      00050 46745  1                      TSEG  (R1),(R0)
 009D1C 4110 7EA2/4100_      0A3B8 46769  1                      TSEG  ' allowed ('
 009D2E 1F00/BF03 5068             46787  1                      L2    R0,KWRHRSUS         Hours used
 009D34 4C00 7EA0            0A3B6 46793  1                      MH    R0,=H'100'
 009D38 58E0 7E16/0DEE       0A32C 46794  1                      VCALL CVEXNO
 009D3E 41F0 B050/58E0_      00050 46798  1                      TSEG  (R1),(R0)
 009D48 4110 40E3/4100_      0A57F 46822  1                      TSEG  ' used'
 009D5A 1F22/BF23 5066_            46840  1                      IF    ('L2 R2,KWRHRSFR',NZ),BEGIN
 009D64 4110 407F/4100_      0A51B 46860  2                        TSEG  ',',,B
 009D76 1802                       46878  2                        LR    R0,R2
 009D78 4C00 7EA0            0A3B6 46879  2                        MH    R0,=H'100'
 009D7C 58E0 7E16/0DEE       0A32C 46880  2                        VCALL CVEXNO
 009D82 41F0 B050/58E0_      00050 46884  2                        TSEG  (R1),(R0)
 009D8C 4110 40E8/4100_      0A584 46908  2                        TSEG  ' free'
 009D9E                            46926  1                      END
 009D9E 1F22/BF23 5044_            46930  1                      IF    ('L2 R2,KWRACCH',NZ),BEGIN
 009DA8 4110 407F/4100_      0A51B 46950  2                        TSEG  ',',,B
 009DBA 1802                       46968  2                        LR    R0,R2
 009DBC 4C00 7EA0            0A3B6 46969  2                        MH    R0,=H'100'
 009DC0 58E0 7E16/0DEE       0A32C 46970  2                        VCALL CVEXNO
 009DC6 41F0 B050/58E0_      00050 46974  2                        TSEG  (R1),(R0)
 009DD0 4110 7EAC/4100_      0A3C2 46998  2                        TSEG  ' accounted'
1ACMD     (ACMD4072) (12:39) (15MAR04) SET/SHOW MASTER Commands                                                             Page  111
0Current Usings:  (MASTDISP+4000,R4) (KWR,R5) (*,R7) (CP,R11) (CV,R12)
0Loc    Object Code    Addr1 Addr2  Stmt Lv Lineno    Source Statement           (Hibal 5, Asmedit 3.3)  HLASM R4.0  2004/03/15 12.39
+___    ______ ____    _____ _____  ____ __ ______    ______ _________
0009DE2                            47016  1                      END
 009DE2 4110 40ED/4100_      0A589 47020  1                      TSEG  ')'
 009DF4 4110 407F/4100_      0A51B 47038  1                      SETMSG ','
 009DFC                            47042                       END
 009DFC D603 B05C B05C_0005C 0005C 47046                       TCCR
                                   47108
 009E1C 4110 40EE/4100_      0A58A 47109                       SETMSG '  BATCH limits:'
 009E24 4820 501E/1222_      0001E 47113                       IF    ('LTH R2,KWRLET',NZ),BEGIN
 009E2E 41F0 B050/58E0_      00050 47129  1                      TSEG  (R1),(R0),B
 009E38 4110 7E1A/4100_      0A330 47153  1                      TSEG  'CPU='
 009E4A 18F2/1B00/4110_            47171  1                      BTD   CPDOUB,0,(R2)
 009E58 41F0 B050/58E0_      00050 47191  1                      TSEG  (R1),(R0),B
 009E62 4110 40FD/4100_      0A599 47215  1                      TSEG  'seconds'
 009E74 4110 407F/4100_      0A51B 47233  1                      SETMSG ','
 009E7C                            47237                       END
 009E7C 4820 501A/1222_      0001A 47241                       IF    ('LTH R2,KWRLCP',NZ),BEGIN
 009E86 41F0 B050/58E0_      00050 47257  1                      TSEG  (R1),(R0),B
 009E90 4110 7EB6/4100_      0A3CC 47281  1                      TSEG  'Cards='
 009EA2 4C20 7EA0            0A3B6 47299  1                      MH    R2,=H'100'
 009EA6 18F2/1B00/4110_            47300  1                      BTD   CPDOUB,0,(R2)
 009EB4 41F0 B050/58E0_      00050 47320  1                      TSEG  (R1),(R0)
 009EBE 4110 407F/4100_      0A51B 47344  1                      SETMSG ','
 009EC6                            47348                       END
 009EC6 4820 501C/1222_      0001C 47352                       IF    ('LTH R2,KWRLLC',NZ),BEGIN
 009ED0 41F0 B050/58E0_      00050 47368  1                      TSEG  (R1),(R0),B
 009EDA 4110 7EBC/4100_      0A3D2 47392  1                      TSEG  'Lines='
 009EEC 4C20 7EC2            0A3D8 47410  1                      MH    R2,=H'1000'
 009EF0 18F2/1B00/4110_            47411  1                      BTD   CPDOUB,0,(R2)
 009EFE 41F0 B050/58E0_      00050 47431  1                      TSEG  (R1),(R0)
 009F08                            47455                       END
 009F08 D603 B05C B05C_0005C 0005C 47459                       TCCR
                                   47521                       ¿þþþþþþþþþþþþþþþþþþþþþþþþþþþþþÜ
                                   47522                       Ÿ  Interactive usage limits.  Ÿ
                                   47523                       ¾þþþþþþþþþþþþþþþþþþþþþþþþþþþþþ»
 009F28 4110 C4D8/4100_      004D8 47524                       TSEG  CVBLANKS,1
 009F3A 4110 4104/4100_      0A5A0 47554                       TSEG  ' Notime limits='
 009F4C 4810 504A/1B00_      0004A 47572                       TNUM  LH:KWRNTDEF
 009F5C 4110 407F/4100_      0A51B 47593                       TSEG  ','
 009F6E 4810 504C/1B00_      0004C 47611                       TNUM  LH:KWRNTMAX
                                   47632
 009F7E 4110 C4D8/4100_      004D8 47633                       SETMSG CVBLANKS,1
 009F86 9180 5020/4710_00020       47649                       IF    ~KWRBFL.KWRBFVAL,BEGIN
 009F8E 41F0 B050/58E0_      00050 47665  1                      TSEG  (R1),(R0),B
 009F98 4110 7D8A/4100_      0A2A0 47689  1                      TSEG  'No batch allowed'
 009FAA 4110 407F/4100_      0A51B 47707  1                      SETMSG ','
 009FB2                            47711                       END
                                   47715
 009FB2 9108 500F/4710_0000F       47716                       IF    ~KWRAFL.KWRAFTOK,BEGIN
 009FBA 41F0 B050/58E0_      00050 47732  1                      TSEG  (R1),(R0),B
 009FC4 4110 4113/4100_      0A5AF 47756  1                      TSEG  'No interactive sessions allowed'
 009FD6 4110 407F/4100_      0A51B 47774  1                      SETMSG ','
 009FDE                            47778                       END
                                   47782
 009FDE 9180 5048/47E0_00048       47783                       IF    KWRTACF.KWRTNST,BEGIN
1ACMD     (ACMD4072) (12:39) (15MAR04) SET/SHOW MASTER Commands                                                             Page  112
0Current Usings:  (MASTDISP+4000,R4) (KWR,R5) (*,R7) (CP,R11) (CV,R12)
0Loc    Object Code    Addr1 Addr2  Stmt Lv Lineno    Source Statement           (Hibal 5, Asmedit 3.3)  HLASM R4.0  2004/03/15 12.39
+___    ______ ____    _____ _____  ____ __ ______    ______ _________
0009FE6 41F0 B050/58E0_      00050 47799  1                      TSEG  (R1),(R0),B
 009FF0 4110 4132/4100_      0A5CE 47823  1                      TSEG  'No Logoff cost statistics'
 00A002 4110 407F/4100_      0A51B 47841  1                      SETMSG ','
 00A00A                            47845                       END
                                   47849
 00A00A 9120 5057/47E0_00057       47850                       IF    KWROFL.KWRFSEC,BEGIN
 00A012 41F0 B050/58E0_      00050 47866  1                      TSEG  (R1),(R0),B
 00A01C 4110 414B/4100_      0A5E7 47890  1                      TSEG  'Secure logon EXEC'
 00A02E 4110 407F/4100_      0A51B 47908  1                      SETMSG ','
 00A036                            47912                       END
                                   47916
 00A036 9108 5020/47E0_00020       47917                       IF    KWRBFL.KWRBFE,BEGIN
 00A03E 41F0 B050/58E0_      00050 47933  1                      TSEG  (R1),(R0),B
 00A048 4110 415C/4100_      0A5F8 47957  1                      TSEG  'CLASS=E jobs only'
 00A05A 4110 407F/4100_      0A51B 47975  1                      SETMSG ','
 00A062                            47979                       END
 00A062 9102 5048/47E0_00048       47983                       IF    KWRTACF.KWRTNDAY,BEGIN
 00A06A 41F0 B050/58E0_      00050 47999  1                      TSEG  (R1),(R0),B
 00A074 4110 416D/4100_      0A609 48023  1                      TSEG  'No daytime sessions allowed'
 00A086 4110 407F/4100_      0A51B 48041  1                      SETMSG ','
 00A08E                            48045                       END
 00A08E D603 B05C B05C_0005C 0005C 48049                       TCCR
                                   48111
 00A0AE 4110 C4D8/4100_      004D8 48112                       SETMSG CVBLANKS,1
 00A0B6 9110 5020/47E0_00020       48128                       IF    KWRBFL.KWRBFNON,BEGIN
 00A0BE 41F0 B050/58E0_      00050 48144  1                      TSEG  (R1),(R0),B
 00A0C8 4110 4188/4100_      0A624 48168  1                      TSEG  'No priority'
 00A0DA 4110 407F/4100_      0A51B 48186  1                      SETMSG ','
 00A0E2                            48190                       END
 00A0E2 9160 5020/4780_00020       48194                       IF    KWRBFL.KWRBFIN+KWRBFOUT,BEGIN
 00A0EA 41F0 B050/58E0_      00050 48213  1                      TSEG  (R1),(R0),B
 00A0F4 4110 7E70/4100_      0A386 48237  1                      TSEG  'No',,B
 00A106 4110 7EC4/4100_      0A3DA 48255  1                      SETMSG 'input '
 00A10E 9120 5020/47E0_00020       48259  1                      IF    KWRBFL.KWRBFOUT,'SETMSG "output "'
 00A11E 9160 5020/47E0_00020       48284  1                      IF    KWRBFL.KWRBFIN*KWRBFOUT,'CLEAR R0'
 00A128 41F0 B050/58E0_      00050 48312  1                      TSEG  (R1),(R0)
 00A132 4110 419A/4100_      0A636 48336  1                      TSEG  'setup allowed'
 00A144                            48354                       END
 00A144 D603 B05C B05C_0005C 0005C 48358                       TCCR
                                   48420
 00A164 4100 0003/4110_      00003 48421                       HASPSERV USERTYPE,KWRUSER
 00A170 12FF/4770 7CD0             48441                       IF    (R15,Z),BEGIN
 00A176 4200 BC88            00C88 48455  1                      STC   R0,CPDOUB           User type
 00A17A 4110 C4D8/4100_      004D8 48456  1                      SETMSG CVBLANKS,1
 00A182 9101 BC88/47E0_00C88       48472  1                      IF    CPDOUB.$USOPEN,BEGIN  Open shop...
 00A18A 9104 5020/47E0_00020       48488  2                        IF    ~KWRBFL.KWRBFP,EXIT
 00A192 41F0 B050/58E0_      00050 48507  2                        TSEG  (R1),(R0),B
 00A19C 4110 41A7/4100_      0A643 48531  2                        TSEG  'CLASS=P allowed'
 00A1AE 4110 407F/4100_      0A51B 48549  2                        SETMSG ','
 00A1B6                            48553  1                      END
 00A1B6 7CA4/47F0 7CD0 0A1B6 0A188 48557  1                      ELSE  BEGIN
 00A1BA 9104 5020/4710_00020       48568  2                        IF    KWRBFL.KWRBFP,EXIT
 00A1C2 41F0 B050/58E0_      00050 48587  2                        TSEG  (R1),(R0),B
 00A1CC 4110 41B6/4100_      0A652 48611  2                        TSEG  'CLASS=P NOT allowed'
1ACMD     (ACMD4072) (12:39) (15MAR04) SET/SHOW MASTER Commands                                                             Page  113
0Current Usings:  (MASTDISP+4000,R4) (KWR,R5) (*,R7) (CP,R11) (CV,R12)
0Loc    Object Code    Addr1 Addr2  Stmt Lv Lineno    Source Statement           (Hibal 5, Asmedit 3.3)  HLASM R4.0  2004/03/15 12.39
+___    ______ ____    _____ _____  ____ __ ______    ______ _________
000A1DE 4110 407F/4100_      0A51B 48629  2                        SETMSG ','
 00A1E6                            48633  1                      END
 00A1E6                            48637                       END
 00A1E6 D603 B05C B05C_0005C 0005C 48641                       TCCR
                                   48703
 00A206 4110 41C9/4100_      0A665 48704                       TSEG  '  Creation date: '
 00A218 BF0F 51B6/4780_      001B6 48722                       IF    ('L4 R0,KWRCRDT',NZ),BEGIN
 00A220 1B11                       48736  1                      CLEAR R1
 00A222 18FD/41D0 D040             48740  1                      XPUSH ,,64,PTR=R15
 00A228 58E0 7E22/0DEE       0A338 48743  1                      VCALL FMTXDATE
 00A22E 41F0 B050/58E0_      00050 48747  1                      TSEG  (R1),(R0)
 00A238 4BD0 7ECA            0A3E0 48771  1                      XPOP  ,,64
 00A23C 7D2A/47F0 7D3C_0A23C 0A21E 48773                       END   ELSE,'TSEG "Not available"'
 00A252 D603 B05C B05C_0005C 0005C 48811                       TCCR
 00A272                            48873              MASTEXIT LABEL ,
 00A272 18D8/9808 D004_            48875                       PEND
 DROP   *,R7
 DROP   MASTDISP+4000,R4           48895                       DROP  R4,KWR
 DROP   KWR,R5
                                   48909
                                   48910                       QLTORG
1ACMD     (ACMD4072) (12:39) (15MAR04) Local Subroutines                                                                    Page  114
0Current Usings:  (CP,R11) (CV,R12)
0Loc    Object Code    Addr1 Addr2  Stmt Lv Lineno    Source Statement           (Hibal 5, Asmedit 3.3)  HLASM R4.0  2004/03/15 12.39
+___    ______ ____    _____ _____  ____ __ ______    ______ _________
0                                  49026              *******************************************************************
                                   49027              **
                                   49028              **   Subroutine base.  All routines below here assume that R6
                                   49029              **      is pointing to KWBASE.
                                   49030              **
                                   49031              *******************************************************************
-                                  49033              ¿þþþþþþþþþþþþþþþþþþþþþþþþþþþþþþþþþþþþþþþþþþþþþþþþþþþþþþþþþþþþþþþþþþþþþÜ
                                   49034              Ÿ                                                                     Ÿ
                                   49035              Ÿ  GETAENT -- Routine to scan account and read kw entry               Ÿ
                                   49036              Ÿ                                                                     Ÿ
                                   49037              Ÿ     On entry:                                                       Ÿ
                                   49038              Ÿ         R0 - options for GETKWR routine                             Ÿ
                                   49039              Ÿ         R5 - WA ptr                                                 Ÿ
                                   49040              Ÿ                                                                     Ÿ
                                   49041              Ÿ                                                                     Ÿ
                                                      ¾þþþþþþþþþþþþþþþþþþþþþþþþþþþþþþþþþþþþþþþþþþþþþþþþþþþþþþþþþþþþþþþþþþþþþ»
000A684 50E0 D000/9008_      00000 49042              GETAENT  PROC  ,
 USING  *,R7
 USING  WA,R5                      49081                       USING WA,R5
 00A69E 1840                       49090                       LR    R4,R0               Save getkwr options
 00A6A0 D7FF 5000 5000_00000 00000 49091                       CLEAR WA
                                   49100
                                   49101                       COMMENT                   Scan for optional account
 00A6B2 5810 B08C/1B00_      0008C 49102                       SCAN  GETAPRT
 00A704 58E0 798A/0DEE       0B028 49134                       SCANCHK
 00A70A 59F0 798E/4770_      0B02C 49139                       IF    (R15,EQ,8),BEGIN
 00A712 58E0 B08C/58FE_      0008C 49156  1                      SCBKUP
 00A748                            49212                       END
 00A748 1BFF                       49216                       CLEAR R15
                                   49220
                                   49221                       COMMENT                   Process account
 00A74A D602 BC48 BC48_00C48 00C48 49222                       IF    (CPCUSER,Z),'ERROR "Account not specified.",,NOACCT'
 00A766 D601 BC4B BC4B_00C4B 00C4B 49251                       IF    (CPCGRP,Z),'MVC CPCGRP,CPSGRP'
 00A776 D201 5003 BC4B 00003 00C4B 49273                       MVC   KWRGRP,CPCGRP
 00A77C D202 5000 BC48 00000 00C48 49274                       MVC   KWRUSER,CPCUSER
 00A782 1804                       49275                       LR    R0,R4
 00A784 4110 5000            00000 49276                       LA    R1,KWR
 00A788 58E0 7992/0DEE       0B030 49277                       ACALL GETKWR
 00A78E 18D8/9808 D004_            49281                       PEND
 DROP   *,R7
                                   49301              *
                                   49302              *
 00A79C 4040404040404040_          49303              GETAPRT  SCKW  ,V(ACCTPSHC),PUSH
 00A7C4 4040404040404040_          49318                       SCKW  ,GOTACCT,V(MATUID)
 00A7EC 4040404040404040_          49333                       SCKW  ,NOTACCT
                                   49348
 00A814 50E0 D000/9008_      00000 49349              GOTACCT  PROC  ,                   MATUID FILLS IN CPCACCT IF MATCH
 USING  *,R7
 00A82E 41F0 0004            00004 49388                       LA    R15,4
 00A832 18D8/9808 D004_            49389                       PEND
 DROP   *,R7
1ACMD     (ACMD4072) (12:39) (15MAR04) Local Subroutines                                                                    Page  115
0Current Usings:  (WA,R5) (CP,R11) (CV,R12)
0Loc    Object Code    Addr1 Addr2  Stmt Lv Lineno    Source Statement           (Hibal 5, Asmedit 3.3)  HLASM R4.0  2004/03/15 12.39
+___    ______ ____    _____ _____  ____ __ ______    ______ _________
0                                  49409
 00A840 50E0 D000/9008_      00000 49410              NOTACCT  PROC  ,
 USING  *,R7
 00A85A 41F0 0008            00008 49449                       LA    R15,8
 00A85E 18D8/9808 D004_            49450                       PEND
 DROP   *,R7
1ACMD     (ACMD4072) (12:39) (15MAR04) Local Subroutines                                                                    Page  116
0Current Usings:  (WA,R5) (CP,R11) (CV,R12)
0Loc    Object Code    Addr1 Addr2  Stmt Lv Lineno    Source Statement           (Hibal 5, Asmedit 3.3)  HLASM R4.0  2004/03/15 12.39
+___    ______ ____    _____ _____  ____ __ ______    ______ _________
0                                  49471              ¿þþþþþþþþþþþþþþþþþþþþþþþþþþþþþþþþþþþþþþþþþþþþþþþþþþþþþþþþþþþþþþþþþþþþþÜ
                                   49472              Ÿ                                                                     Ÿ
                                   49473              Ÿ  PUTKWR -- Routine to re-write KWR entry.                           Ÿ
                                   49474              Ÿ                                                                     Ÿ
                                                      ¾þþþþþþþþþþþþþþþþþþþþþþþþþþþþþþþþþþþþþþþþþþþþþþþþþþþþþþþþþþþþþþþþþþþþþ»
000A86C 50E0 D000/9008_      00000 49475              PUTKWR   PROC
 USING  *,R7
 00A886 4110 5000/4100_      00000 49514                       KWRITE KWR
 00A894 1BFF                       49527                       CLEAR R15
 00A896 9140 51F4/4710_001F4       49531                       IF    ~KWRHFL.KWRHFUOK,BEGIN  update didn't work...
 00A89E 9110 51F4/47E0_001F4       49547  1                      IF    KWRHFL.KWRHFFUL,BEGIN
 00A8A6 4110 77EE/4100_      0B074 49563  2                        ABORT 'Account File is full, new account not created.'
 00A8B2                            49570  1                      END
 00A8B2 9120 51F4/47E0_001F4       49574  1                      IF    KWRHFL.KWRHFERR,BEGIN
 00A8BA 4110 781C/4100_      0B0A2 49590  2                        TSEG  'I/O error in account file, retrying...',,WR
 00A8CC 4770 C7DA            007DA 49608  2                        BNZ   CVABORT
 00A8D0                            49609  1                      END
 00A8D0 41F0 0004            00004 49613  1                      LA    R15,4
 00A8D4                            49614                       END
 00A8D4 18D8/9808 D004_            49618                       PEND
 DROP   *,R7
1ACMD     (ACMD4072) (12:39) (15MAR04) Local Subroutines                                                                    Page  117
0Current Usings:  (WA,R5) (CP,R11) (CV,R12)
0Loc    Object Code    Addr1 Addr2  Stmt Lv Lineno    Source Statement           (Hibal 5, Asmedit 3.3)  HLASM R4.0  2004/03/15 12.39
+___    ______ ____    _____ _____  ____ __ ______    ______ _________
0                                  49639              ¿þþþþþþþþþþþþþþþþþþþþþþþþþþþþþþþþþþþþþþþþþþþþþþþþþþþþþþþþþþþþþþþþþþþþþÜ
                                   49640              Ÿ                                                                     Ÿ
                                   49641              Ÿ  SEGACCT -- Routine to seg the account in the KWR, if it is         Ÿ
                                   49642              Ÿ    not that of the logged on user's.                                Ÿ
                                   49643              Ÿ                                                                     Ÿ
                                                      ¾þþþþþþþþþþþþþþþþþþþþþþþþþþþþþþþþþþþþþþþþþþþþþþþþþþþþþþþþþþþþþþþþþþþþþ»
000A8E2 50E0 D000/9008_      00000 49644              SEGACCT  PROC
 USING  *,R7
 00A8FC D501 5003 B3B7_00003 003B7 49683                       IF    ((KWRGRP,NE,CPSGRP),OR,(KWRUSER,NE,CPSUSER)),BEGIN
 00A910 4110 5003/4100_      00003 49718  1                      TSEG  KWRGRP
 00A922 4110 77CC/4100_      0B0C8 49746  1                      TSEG  '.'
 00A934 4110 5000/4100_      00000 49764  1                      TSEG  KWRUSER,,B
 00A946 4110 77CD/4100_      0B0C9 49792  1                      TSEG  '-',,B
 00A958                            49810                       END
 00A958 18D8/9808 D004_            49814                       PEND
 DROP   *,R7
1ACMD     (ACMD4072) (12:39) (15MAR04) Local Subroutines                                                                    Page  118
0Current Usings:  (WA,R5) (CP,R11) (CV,R12)
0Loc    Object Code    Addr1 Addr2  Stmt Lv Lineno    Source Statement           (Hibal 5, Asmedit 3.3)  HLASM R4.0  2004/03/15 12.39
+___    ______ ____    _____ _____  ____ __ ______    ______ _________
0                                  49835              *
                                   49836              *  BAD ACCOUNT ERROR , NO RETURN
                                   49837              *
 00A966 50E0 D000/9008_      00000 49838              BADACCT  PROC
 USING  *,R7
 00A980 4110 774A/4100_      0B0CA 49877                       TSEG  'Account',,B
 00A992 4110 5003/4100_      00003 49895                       TSEG  KWRGRP
 00A9A4 4110 7748/4100_      0B0C8 49923                       TSEG  '.'
 00A9B6 4110 5000/4100_      00000 49941                       TSEG  KWRUSER,,B
 00A9C8 D207 B886 7690_00886 0B010 49969                       ERROR 'does not exist.',,BADACCT
 00A9DA 18D8/9808 D004_            49977                       PEND
 DROP   *,R7
                                   49997              *
                                   49998              *  BAD GROUP ERROR, NO RETURN
                                   49999              *
 00A9E8 50E0 D000/9008_      00000 50000              BADAGRP  PROC
 USING  *,R7
 00AA02 4110 76C8/4100_      0B0CA 50039                       TSEG  'Account',,B
 00AA14 4110 5003/4100_      00003 50057                       TSEG  KWRGRP
 00AA26 4110 76C6/4100_      0B0C8 50085                       TSEG  '.'
 00AA38 4110 5000/4100_      00000 50103                       TSEG  KWRUSER,,B
 00AA4A 4110 76DE/4100_      0B0E0 50131                       ABORT 'is not in your group.'
 00AA56 18D8/9808 D004_            50138                       PEND
 DROP   *,R7
1ACMD     (ACMD4072) (12:39) (15MAR04) Local Subroutines                                                                    Page  119
0Current Usings:  (WA,R5) (CP,R11) (CV,R12)
0Loc    Object Code    Addr1 Addr2  Stmt Lv Lineno    Source Statement           (Hibal 5, Asmedit 3.3)  HLASM R4.0  2004/03/15 12.39
+___    ______ ____    _____ _____  ____ __ ______    ______ _________
0                                  50159              **
                                   50160              **  Common Scan Options
                                   50161              **
 00AA64 50E0 D000/9008_      00000 50162              KNAME    PROC
 USING  *,R7
 00AA7E 9680 51F8      001F8       50201                       SET   WAFOP
 00AA82 58E0 75C6/0DEE       0B044 50207                       VCALL DEQUOTE
 00AA88 47B0 7024            0AAA2 50211                       IF    NEG,BEGIN
 00AA8C 41F0 B050/58E0_      00050 50222  1                      TSEG  (R1),(R0)
 00AA96 4110 7677/4100_      0B0F5 50246  1                      ERROR ': invalid; quotes required.'
 00AAA2                            50253                       END
 00AAA2 4770 702E/D713_      0AAAC 50257                       IF    Z,'CLEAR KWRNAME'
 00AAAC 7032/47F0 7052 0AAAC 0AAA4 50280                       ELSE  BEGIN
 00AAB0 D213 5078 C4D8 00078 004D8 50291  1                      MVC   KWRNAME,CVBLANKS
 00AAB6 18F0                       50292  1                      LR    R15,R0
 00AAB8 59F0 75CA/47D0_      0B048 50293  1                      CEIL  R15,L'KWRNAME
 00AAC4 06F0/12FF/4740_            50312  1                      MOVE  R15,KWRNAME,@R1
 00AAD0                            50350                       END
 00AAD0 1BFF                       50354                       CLEAR R15
 00AAD2 18D8/9808 D004_            50358                       PEND
 DROP   *,R7
                                   50378
 00AAE0 50E0 D000/9008_      00000 50379              KCOMM    PROC
 USING  *,R7
 00AAFA 9680 51F8      001F8       50418                       SET   WAFOP
 00AAFE 58E0 754A/0DEE       0B044 50424                       VCALL DEQUOTE
 00AB04 47B0 7024            0AB1E 50428                       IF    NEG,BEGIN
 00AB08 41F0 B050/58E0_      00050 50439  1                      TSEG  (R1),(R0)
 00AB12 4110 75FB/4100_      0B0F5 50463  1                      ERROR ': invalid; quotes required.'
 00AB1E                            50470                       END
 00AB1E 4770 702E/D713_      0AB28 50474                       IF    Z,'CLEAR KWRCOMM'
 00AB28 7032/47F0 7052 0AB28 0AB20 50497                       ELSE  BEGIN
 00AB2C D213 509A C4D8 0009A 004D8 50508  1                      MVC   KWRCOMM,CVBLANKS
 00AB32 18F0                       50509  1                      LR    R15,R0
 00AB34 59F0 7552/47D0_      0B04C 50510  1                      CEIL  R15,L'KWRCOMM
 00AB40 06F0/12FF/4740_            50529  1                      MOVE  R15,KWRCOMM,@R1
 00AB4C                            50567                       END
 00AB4C 1BFF                       50571                       CLEAR R15
 00AB4E 18D8/9808 D004_            50575                       PEND
 DROP   *,R7
                                   50595
 00AB5C 50E0 D000/9008_      00000 50596              KDEST    PROC
 USING  *,R7
 00AB76 957D 1000/4780_00000       50635                       IF    ((@R1,EQ,''''),OR,(@R1,EQ,'"')),'VCALL NOTVALID'
 00AB8C 9680 51F8      001F8       50675                       SET   WAFOP
 00AB90 5810 B08C/4111_      0008C 50681                       SCUPTOK R1
 00AB98 D207 5021 1000 00021 00000 50685                       MVC   KWRDEST,@R1
 00AB9E 4110 5021            00021 50686                       LA    R1,KWRDEST
 00ABA2 58E0 74DE/0DEE       0B054 50687                       VCALL DESTVER
 00ABA8 18D8/9808 D004_            50691                       PEND
 DROP   *,R7
                                   50711
 00ABB6 50E0 D000/9008_      00000 50712              KFORMS   PROC
 USING  *,R7
1ACMD     (ACMD4072) (12:39) (15MAR04) Local Subroutines                                                                    Page  120
0Current Usings:  (WA,R5) (*,R7) (CP,R11) (CV,R12)
0Loc    Object Code    Addr1 Addr2  Stmt Lv Lineno    Source Statement           (Hibal 5, Asmedit 3.3)  HLASM R4.0  2004/03/15 12.39
+___    ______ ____    _____ _____  ____ __ ______    ______ _________
000ABD0 957D 1000/4780_00000       50751                       IF    ((@R1,EQ,''''),OR,(@R1,EQ,'"')),'VCALL NOTVALID'
 00ABE6 9680 51F8      001F8       50791                       SET   WAFOP
 00ABEA 5810 B08C/4111_      0008C 50797                       SCUPTOK R1
 00ABF2 D203 5029 1000 00029 00000 50801                       MVC   KWRFORM,@R1
 00ABF8 D502 7540 5029_0B110 00029 50802                       IF    (KWRFORM,EQ,'SEL'),BEGIN
 00AC02 4110 7543/4100_      0B113 50819  1                      TSEG  'SELF is not a forms code.',,B
 00AC14 4110 755C/4100_      0B12C 50837  1                      ERROR 'Use DEST=SELF for the self-service printer.'
 00AC20                            50844                       END
 00AC20 1BFF                       50848                       CLEAR R15
 00AC22 18D8/9808 D004_            50852                       PEND
 DROP   *,R7
                                   50872
 00AC30 50E0 D000/9008_      00000 50873              KPFORMS  PROC
 USING  *,R7
 00AC4A 957D 1000/4780_00000       50912                       IF    ((@R1,EQ,''''),OR,(@R1,EQ,'"')),'VCALL NOTVALID'
 00AC60 9680 51F8      001F8       50952                       SET   WAFOP
 00AC64 5810 B08C/4111_      0008C 50958                       SCUPTOK R1
 00AC6C D203 504E 1000 0004E 00000 50962                       MVC   KWRPFORM,@R1
 00AC72 1BFF                       50963                       CLEAR R15
 00AC74 18D8/9808 D004_            50967                       PEND
 DROP   *,R7
                                   50987
 00AC82 50E0 D000/9008_      00000 50988              KPNOFORM PROC
 USING  *,R7
 00AC9C 9680 51F8      001F8       51027                       SET   WAFOP
 00ACA0 D703 504E 504E 0004E 0004E 51033                       CLEAR KWRPFORM
 00ACA6 18D8/9808 D004_            51040                       PEND
 DROP   *,R7
                                   51060
 00ACB4 50E0 D000/9008_      00000 51061              KBIN     PROC
 USING  *,R7
 00ACCE 957D 1000/4780_00000       51100                       IF    ((@R1,EQ,''''),OR,(@R1,EQ,'"')),'VCALL NOTVALID'
 00ACE4 9680 51F8      001F8       51140                       SET   WAFOP
 00ACE8 5810 B08C/4111_      0008C 51146                       SCUPTOK R1
 00ACF0 D202 5010 1000 00010 00000 51150                       MVC   KWRBIN,@R1
 00ACF6 1BFF                       51151                       CLEAR R15
 00ACF8 18D8/9808 D004_            51155                       PEND
 DROP   *,R7
                                   51175
 00AD06 50E0 D000/9008_      00000 51176              KSYS     PROC
 USING  *,R7
 00AD20 957D 1000/4780_00000       51215                       IF    ((@R1,EQ,''''),OR,(@R1,EQ,'"')),'VCALL NOTVALID'
 00AD36 9680 51F8      001F8       51255                       SET   WAFOP
 00AD3A 5810 B08C/4111_      0008C 51261                       SCUPTOK R1
 00AD42 D207 5092 1000 00092 00000 51265                       MVC   KWRSYS,@R1
 00AD48 D507 72F8 5092_0B018 00092 51266                       IF    (KWRSYS,EQ,'WYLBUR  '),'CLEAR KWRSYS'
 00AD58 1BFF                       51295                       CLEAR R15
 00AD5A 18D8/9808 D004_            51299                       PEND
 DROP   *,R7
                                   51319
 00AD68 50E0 D000/9008_      00000 51320              KNOSYS   PROC
 USING  *,R7
 00AD82 9680 51F8      001F8       51359                       SET   WAFOP
 00AD86 D707 5092 5092 00092 00092 51365                       CLEAR KWRSYS
1ACMD     (ACMD4072) (12:39) (15MAR04) Local Subroutines                                                                    Page  121
0Current Usings:  (WA,R5) (CP,R11) (CV,R12)
0Loc    Object Code    Addr1 Addr2  Stmt Lv Lineno    Source Statement           (Hibal 5, Asmedit 3.3)  HLASM R4.0  2004/03/15 12.39
+___    ______ ____    _____ _____  ____ __ ______    ______ _________
000AD8C 18D8/9808 D004_            51372                       PEND
 DROP   *,R7
                                   51392
 00AD9A 50E0 D000/9008_      00000 51393              KORV     PROC
 USING  *,R7
 00ADB4 957D 1000/4780_00000       51432                       IF    ((@R1,EQ,''''),OR,(@R1,EQ,'"')),'VCALL NOTVALID'
 00ADCA 9680 51F8      001F8       51472                       SET   WAFOP
 00ADCE 5810 B08C/4111_      0008C 51478                       SCUPTOK R1
 00ADD6 D207 502D 1000 0002D 00000 51482                       MVC   KWRORV,@R1
 00ADDC 1BFF                       51483                       CLEAR R15
 00ADDE 18D8/9808 D004_            51487                       PEND
 DROP   *,R7
                                   51507
 00ADEC 50E0 D000/9008_      00000 51508              KCMD     PROC
 USING  *,R7
 00AE06 58E0 723E/0DEE       0B044 51547                       VCALL DEQUOTE
 00AE0C 9680 51F8      001F8       51551                       SET   WAFOP
 00AE10 D24F 5152 C4D8 00152 004D8 51557                       MVC   KWRCMD,CVBLANKS
 00AE16 18F0                       51558                       LR    R15,R0
 00AE18 59F0 7252/47D0_      0B058 51559                       CEIL  R15,L'KWRCMD
 00AE24 06F0/12FF/4740_            51578                       MOVE  R15,KWRCMD,@R1
 00AE30 1BFF                       51616                       CLEAR R15
 00AE32 18D8/9808 D004_            51620                       PEND
 DROP   *,R7
                                   51640
 00AE40 50E0 D000/9008_      00000 51641              KNOCMD   PROC
 USING  *,R7
 00AE5A 9680 51F8      001F8       51680                       SET   WAFOP
 00AE5E D74F 5152 5152 00152 00152 51686                       CLEAR KWRCMD
 00AE64 18D8/9808 D004_            51693                       PEND
 DROP   *,R7
                                   51713
 00AE72 50E0 D000/9008_      00000 51714              KMULT    PROC
 USING  *,R7
 00AE8C 9680 51F8/9680_001F8       51753                       SET   WAFOP,KWROFL.KWRFMULT
 00AE94 94F7 5057      00057       51764                       SET   (KWROFL.KWRFMNPR,OFF)
 00AE98 18D8/9808 D004_            51772                       PEND
 DROP   *,R7
                                   51792
 00AEA6 50E0 D000/9008_      00000 51793              KXMULT   PROC
 USING  *,R7
 00AEC0 9680 51F8/9688_001F8       51832                       SET   WAFOP,KWROFL.KWRFMULT+KWRFMNPR
 00AEC8 18D8/9808 D004_            51846                       PEND
 DROP   *,R7
                                   51866
 00AED6 50E0 D000/9008_      00000 51867              KNOMULT  PROC
 USING  *,R7
 00AEF0 9680 51F8/9477_001F8       51906                       SET   WAFOP,(KWROFL.KWRFMULT+KWRFMNPR,OFF)
 00AEF8 18D8/9808 D004_            51921                       PEND
 DROP   *,R7
                                   51941
 DROP   WA,R5                      51942                       DROP  WA
1ACMD     (ACMD4072) (12:39) (15MAR04) Local Subroutines                                                                    Page  122
0Current Usings:  (CP,R11) (CV,R12)
0Loc    Object Code    Addr1 Addr2  Stmt Lv Lineno    Source Statement           (Hibal 5, Asmedit 3.3)  HLASM R4.0  2004/03/15 12.39
+___    ______ ____    _____ _____  ____ __ ______    ______ _________
0                                  51951              ¿þþþþþþþþþþþþþþþþþþþþþþþþþþþþþþþþþþþþþþþþþþþþþþþþþþþþþþþþþþþþþþþþþþþþþÜ
                                   51952              Ÿ                                                                     Ÿ
                                   51953              Ÿ  SEGMACH -- Routine to seg the machines specified by the            Ÿ
                                   51954              Ÿ    flag byte passed as a parameter.                                 Ÿ
                                   51955              Ÿ                                                                     Ÿ
                                   51956              Ÿ    On entry:                                                        Ÿ
                                   51957              Ÿ      R1 - ptr to machine flag byte                                  Ÿ
                                   51958              Ÿ                                                                     Ÿ
                                   51959              Ÿ    On exit:                                                         Ÿ
                                   51960              Ÿ      Machine id tseg'd                                              Ÿ
                                   51961              Ÿ                                                                     Ÿ
                                                      ¾þþþþþþþþþþþþþþþþþþþþþþþþþþþþþþþþþþþþþþþþþþþþþþþþþþþþþþþþþþþþþþþþþþþþþ»
000AF06 50E0 D000/9008_      00000 51962              SEGMACH  PROC
 USING  *,R7
 00AF20 1821                       52001                       LR    R2,R1               Flag byte ptr
                                   52002              *
                                   52003              *        IF    @R2.KWRFSYSG,' XWTO "SEGMACH flag SYSG"' * slp debug *
                                   52004              *        ELSE  ' XWTO "SEGMACH flag no SYSG"'           * slp debug *
 00AF22 9500 2000/4770_00000       52005                       IF    (@R2,EQ,X'00'),BEGIN  No machines...
 00AF2A 4110 7237/4100_      0B157 52021  1                      TSEG  ' NONE'
 00AF3C                            52039                       END
                                   52043
 00AF3C 7020/47F0 70D6 0AF3C 0AF28 52044                       ELSE  BEGIN               Show appropriate machines...
 00AF40 9180 2000/47E0_00000       52055  1                      IF    @R2.KWRFSYSA,' TSEG " SYSA"'
 00AF5A 9140 2000/47E0_00000       52094  1                      IF    @R2.KWRFSYSB,' TSEG " SYSB"'
 00AF74 9120 2000/47E0_00000       52133  1                      IF    @R2.KWRFSYSC,' TSEG " SYSC"'
 00AF8E 9110 2000/47E0_00000       52172  1                      IF    @R2.KWRFSYSD,' TSEG " SYSD"'
 00AFA8 9108 2000/47E0_00000       52211  1                      IF    @R2.KWRFSYSE,' TSEG " SYSH"'
 00AFC2 9104 2000/47E0_00000       52250  1                      IF    @R2.KWRFSYSF,' TSEG " SYSF"'
 00AFDC 9102 2000/47E0_00000       52289  1                      IF    @R2.KWRFSYSG,' TSEG " SYSG"'
 00AFF6                            52328                       END
 00AFF6 18D8/9808 D004_            52332                       PEND
 DROP   *,R7
                                   52352
                                   52353                       QLTORG
1ACMD     (ACMD4072) (12:39) (15MAR04) Local Subroutines                                                                    Page  123
0Current Usings:  (CP,R11) (CV,R12)
0Loc    Object Code    Addr1 Addr2  Stmt Lv Lineno    Source Statement           (Hibal 5, Asmedit 3.3)  HLASM R4.0  2004/03/15 12.39
+___    ______ ____    _____ _____  ____ __ ______    ______ _________
0                                  52405              ¿þþþþþþþþþþþþþþþþþþþþþþþþþþþþþþþþþþþþþþþþþþþþþþþþþþþþþþþþþþþþþþþþþþþþþÜ
                                   52406              Ÿ                                                                     Ÿ
                                   52407              Ÿ  GETNUM/GETNUM -- Routine to get number, even if it is relative     Ÿ
                                   52408              Ÿ        to the old value (e.g., +n or -n).                           Ÿ
                                   52409              Ÿ                                                                     Ÿ
                                   52410              Ÿ    On entry:                                                        Ÿ
                                   52411              Ÿ      R15 - previous value                                           Ÿ
                                   52412              Ÿ                                                                     Ÿ
                                   52413              Ÿ    On exit:                                                         Ÿ
                                   52414              Ÿ      R15 - new value                                                Ÿ
                                   52415              Ÿ                                                                     Ÿ
                                   52416              Ÿ                                                                     Ÿ
                                   52417              Ÿ                                                                     Ÿ
                                   52418              Ÿ  GETNUM - integer number version                                    Ÿ
                                   52419              Ÿ                                                                     Ÿ
                                                      ¾þþþþþþþþþþþþþþþþþþþþþþþþþþþþþþþþþþþþþþþþþþþþþþþþþþþþþþþþþþþþþþþþþþþþþ»
000B192 50E0 D000/9008_      00000 52420              GETNUM   PROC
 USING  *,R7
 00B1AC 183F                       52459                       LR    R3,R15
 00B1AE 5810 B08C/1B00_      0008C 52460                       SCAN  RELPRT
 00B200 58E0 7414/0DEE       0B5C0 52492                       SCANCHK
 00B206 18F3                       52497                       LR    R15,R3
 00B208 18D8/9808 D004_            52498                       PEND
 DROP   *,R7
                                   52518              *
                                   52519              *
                                   52520              *  GETLNO - line number version
                                   52521              *
 00B216 50E0 D000/9008_      00000 52522              GETLNO   PROC
 USING  *,R7
 00B230 183F                       52561                       LR    R3,R15
 00B232 5810 B08C/1B00_      0008C 52562                       SCAN  RELLPRT
 00B284 58E0 7390/0DEE       0B5C0 52594                       SCANCHK
 00B28A 18F3                       52599                       LR    R15,R3
 00B28C 18D8/9808 D004_            52600                       PEND
 DROP   *,R7
                                   52620              *
                                   52621              *
                                   52622              *
 00B29C 4040404040404040_          52623              RELPRT   SCKW  ,RELNULL,NULL
 00B2C4 4E40404040404040_          52638                       SCKW  +,RELPLUS,(P,I)
 00B2EC 6040404040404040_          52653                       SCKW  -,RELMINUS,(P,I)
 00B314 4040404040404040_          52668                       SCKW  ,RELVAL,I
 00B33C 4040404040404040_          52683                       SCKW  ,V(NOTVALID)
                                   52698
 00B364 4040404040404040_          52699              RELLPRT  SCKW  ,RELNULL,NULL
 00B38C 4E40404040404040_          52714                       SCKW  +,RELPLUS,(P,LN)
 00B3B4 6040404040404040_          52729                       SCKW  -,RELMINUS,(P,LN)
 00B3DC 4040404040404040_          52744                       SCKW  ,RELVAL,LN
 00B404 4040404040404040_          52759                       SCKW  ,V(NOTVALID)
                                   52774
 00B42C 50E0 D000/9008_      00000 52775              RELNULL  PROC
 USING  *,R7
1ACMD     (ACMD4072) (12:39) (15MAR04) Local Subroutines                                                                    Page  124
0Current Usings:  (*,R7) (CP,R11) (CV,R12)
0Loc    Object Code    Addr1 Addr2  Stmt Lv Lineno    Source Statement           (Hibal 5, Asmedit 3.3)  HLASM R4.0  2004/03/15 12.39
+___    ______ ____    _____ _____  ____ __ ______    ______ _________
000B446 4110 7162/4100_      0B5A8 52814                       ERROR 'Missing operand.'
 00B452 18D8/9808 D004_            52821                       PEND
 DROP   *,R7
                                   52841
 00B460 50E0 D000/9008_      00000 52842              RELPLUS  PROC
 USING  *,R7
 00B47A 1A30                       52881                       AR    R3,R0
 00B47C 5038 0010            00010 52882                       PRETURN (R3)
 00B480 41F0 0004            00004 52884                       LA    R15,4
 00B484 18D8/9808 D004_            52885                       PEND
 DROP   *,R7
                                   52905
 00B492 50E0 D000/9008_      00000 52906              RELMINUS PROC
 USING  *,R7
 00B4AC 1B30                       52945                       SR    R3,R0
 00B4AE 5038 0010            00010 52946                       PRETURN (R3)
 00B4B2 41F0 0004            00004 52948                       LA    R15,4
 00B4B6 18D8/9808 D004_            52949                       PEND
 DROP   *,R7
                                   52969
 00B4C4 50E0 D000/9008_      00000 52970              RELVAL   PROC
 USING  *,R7
 00B4DE 1830                       53009                       LR    R3,R0
 00B4E0 5038 0010            00010 53010                       PRETURN (R3)
 00B4E4 41F0 0004            00004 53012                       LA    R15,4
 00B4E8 18D8/9808 D004_            53013                       PEND
 DROP   *,R7
1ACMD     (ACMD4072) (12:39) (15MAR04) Local Subroutines                                                                    Page  125
0Current Usings:  (CP,R11) (CV,R12)
0Loc    Object Code    Addr1 Addr2  Stmt Lv Lineno    Source Statement           (Hibal 5, Asmedit 3.3)  HLASM R4.0  2004/03/15 12.39
+___    ______ ____    _____ _____  ____ __ ______    ______ _________
0                                  53034              ¿þþþþþþþþþþþþþþþþþþþþþþþþþþþþþþþþþþþþþþþþþþþþþþþþþþþþþþþþþþþþþþþþþþþþþÜ
                                   53035              Ÿ                                                                     Ÿ
                                   53036              Ÿ  GETCNUM -- Routine to get an optional number.  If the next         Ÿ
                                   53037              Ÿ    parameter is numeric then return that, otherwise return the      Ÿ
                                   53038              Ÿ    default value.                                                   Ÿ
                                   53039              Ÿ                                                                     Ÿ
                                   53040              Ÿ    On entry:                                                        Ÿ
                                   53041              Ÿ      R15 - default value                                            Ÿ
                                   53042              Ÿ                                                                     Ÿ
                                   53043              Ÿ    On exit:                                                         Ÿ
                                   53044              Ÿ      R15 - new value                                                Ÿ
                                   53045              Ÿ                                                                     Ÿ
                                                      ¾þþþþþþþþþþþþþþþþþþþþþþþþþþþþþþþþþþþþþþþþþþþþþþþþþþþþþþþþþþþþþþþþþþþþþ»
0000000                00000 000B0 53046              GETCWA   RECORD BEGIN
 000000                            53054  1           GETCSAVE   DS    XL(L'NSCNCB)
 0000B0                000B0 000B0 53055                       END
                                   53064              *
                                   53065              *
 00B4F6 50E0 D000/9008_      00000 53066              GETCNUM  PROC  GETCWA
 USING  *,R7
 USING  GETCWA-(4+36),R8
 00B510 58E0 B08C/D2AF_      0008C 53116                       SCSAVE AREA=GETCSAVE
 00B51C 183F                       53125                       LR    R3,R15              Save default value
 00B51E 5810 B08C/1B00_      0008C 53126                       SCAN  ,                   Pick off possible number
 00B56C 58E0 70B0/0DEE       0B5C0 53157                       SCANCHK
 00B572 1200/4770 706A             53162                       IF    (R0,Z),BEGIN        None, use default
 00B578 18F3                       53176  1                      LR    R15,R3
 00B57A                            53177                       END
 00B57A 706E/47F0 7086 0B57A 0B576 53181                       ELSE  BEGIN               If, something
 00B57E 58E0 70B8/0DEE       0B5C8 53192  1                      DTB   (R1),(R0)           Try to convert to number
 00B584 4780 7086            0B596 53207  1                      IF    NZ,BEGIN            Not a number, use default
 00B588 58E0 B08C/D2AF_      0008C 53218  2                        SCRSTR AREA=GETCSAVE
 00B594 18F3                       53227  2                        LR    R15,R3
 00B596                            53228  1                      END
                                   53232  1                      COMMENT                   Is number, r15 - is number
 00B596                            53233                       END
 00B596 18D8/9808 D004_            53237                       PEND
 DROP   GETCWA-(4+36),R8
 DROP   *,R7
                                   53262
                                   53263                       QLTORG
1ACMD     (ACMD4072) (12:39) (15MAR04) Subroutines                                                                          Page  126
0Current Usings:  (CP,R11) (CV,R12)
0Loc    Object Code    Addr1 Addr2  Stmt Lv Lineno    Source Statement           (Hibal 5, Asmedit 3.3)  HLASM R4.0  2004/03/15 12.39
+___    ______ ____    _____ _____  ____ __ ______    ______ _________
0                                  53283              ¿þþþþþþþþþþþþþþþþþþþþþþþþþþþþþþþþþþþþþþþþþþþþþþþþþþþþþþþþþþþþþþþþþþþþþÜ
                                   53284              Ÿ                                                                     Ÿ
                                   53285              Ÿ  GETKWR -- Routine to read password record and prompt for           Ÿ
                                   53286              Ÿ    password.                                                        Ÿ
                                   53287              Ÿ                                                                     Ÿ
                                   53288              Ÿ    On entry:                                                        Ÿ
                                   53289              Ÿ      R1 - KWR ptr                                                   Ÿ
                                   53290              Ÿ      R0 - -2 = account must exist, password MUST be given           Ÿ
                                   53291              Ÿ           -1 = account must exist, prompt for kw--if not acct priv  Ÿ
                                   53292              Ÿ            0 = account must exist, prompt for password              Ÿ
                                   53293              Ÿ            1 = account must exist, no prompt for password           Ÿ
                                   53294              Ÿ            2 = account might exist, no prompt for password          Ÿ
                                   53295              Ÿ                                                                     Ÿ
                                                      ¾þþþþþþþþþþþþþþþþþþþþþþþþþþþþþþþþþþþþþþþþþþþþþþþþþþþþþþþþþþþþþþþþþþþþþ»
000B5CE 50E0 D000/9008_      00000 53296              GETKWR   XPROC
 USING  *,R7
 00B5E8 1850                       53336                       LR    R5,R0               Code
 00B5EA 1861                       53337                       LR    R6,R1               Kwr  (with acct filled in)
 USING  KWR,R6                     53338                       USING KWR,R6
 00B5EC 1816/4100 0040_            53347                       KREAD KWR
 00B5F8 9180 61F4/4710_001F4       53360                       IF    ~KWRHFL.KWRHFCK,BEGIN
 00B600 4110 7384/4100_      0B96C 53376  1                      TSEG  'No account file.  '
 00B612 D207 B886 7358_00886 0B940 53394  1                      ABORT 'This command can''t be executed.',,NOKWFILE
 00B624                            53402                       END
 00B624 9180 600E/4710_0000E       53406                       IF    ~KWRIFL.KWRIFVAL,BEGIN
 00B62C 5950 7370/4780_      0B958 53422  1                      IF    (R5,EQ,2),GETKEXIT
 00B634 4110 73BB/4100_      0B9A3 53442  1                      TSEG  'Account',,B
 00B646 4110 6003/4100_      00003 53460  1                      TSEG  KWRGRP
 00B658 4110 73C2/4100_      0B9AA 53488  1                      TSEG  '.'
 00B66A 4110 6000/4100_      00000 53506  1                      TSEG  KWRUSER,,B
 00B67C D207 B886 7360_00886 0B948 53534  1                      ERROR 'does not exist.',,BADACCT
 00B68E                            53542                       END
                                   53546
 00B68E 1255/4720 7176             53547                       IF    (R5,NP),BEGIN       Check password...
 00B694 D502 B3B4 6000_003B4 00000 53561  1                      IF    ((CPSUSER,EQ,KWRUSER),AND,(CPSGRP,EQ,KWRGRP)),EXIT
                                   53599  1
 00B6A8 5950 7378/4780_      0B960 53600  1                      IF    (R5,EQ,-2),GETKCHK  No special bypass checks
                                   53619  1
                                   53620  1         C            IF    (CPGFLG3.CPFKWENT,AND,
 00B6B0 9180 B476/47E0_00476              1                            (CPUSERSV,EQ,KWRUSER),AND,(CPGRPSV,EQ,KWRGRP)),EXIT
                                   53671  1
 00B6CC 1255/47B0 715C             53672  1                      IF    (R5,NEG),BEGIN      Allow accounting privs...
 00B6D2 9140 B3BE/4710_003BE       53686  2                        IF    CPSFAPR,GETKEXIT
                                   53704  2
 00B6DA 9106 B3BE/4780_003BE       53705  2                        IF    (CPSFADM+CPSFSUB,Z),EXIT
                                   53728  2
 00B6E2 9104 B3BE/47E0_003BE       53729  2                        IF    (CPSFSUB,AND,('CLC KWRUSER(1),CPSUSER',NE)),EXIT
                                   53759  2
 00B6F4 D501 B3B7 6003_003B7 00003 53760  2                        IF    (CPSGRP,EQ,KWRGRP),GETKEXIT
 00B6FE 9104 B3BE/4710_003BE       53781  2                        IF    CPSFSUB,EXIT        SUBADMIN and different groups
                                   53799  2         C              IF    (((KWRGRP,EQ,'B'),OR,(KWRGRP,EQ,'Y'),OR,
                                          2         C                    (KWRGRP,EQ,'Z'),OR,
                                          2         C                    (KWRGRP,EQ,'DQ'),OR,
1ACMD     (ACMD4072) (12:39) (15MAR04) Subroutines                                                                          Page  127
0Current Usings:  (KWR,R6) (*,R7) (CP,R11) (CV,R12)
0Loc    Object Code    Addr1 Addr2  Stmt Lv Lineno    Source Statement           (Hibal 5, Asmedit 3.3)  HLASM R4.0  2004/03/15 12.39
+___    ______ ____    _____ _____  ____ __ ______    ______ _________
0                                         2         C                    (KWRGRP,EQ,'HH'),OR,(KWRGRP,EQ,'HN')),AND,
 00B706 95C2 6003/4780_00003              2                              (CPSGRP,EQ,'B')),GETKEXIT
 00B744                            53907  1                      END
                                   53911  1
 00B744 1B00                       53912  1           GETKCHK    CLEAR R0                  CHKKW flag
 00B746 5950 7378/4770_      0B960 53917  1                      IF    (R5,EQ,-2),'LA R0,1'  Must provide correct password
 00B752 4110 6000            00000 53939  1                      LA    R1,KWR
 00B756 1311                       53940  1                      LCR   R1,R1               (KREAD already done)
 00B758 58E0 737C/0DEE       0B964 53941  1                      ACALL CHKKW
 00B75E                            53945                       END
 00B75E                            53949              GETKEXIT LABEL ,
 00B75E 18D8/9808 D004_            53951                       PEND
 DROP   *,R7
 DROP   KWR,R6                     53971                       DROP  KWR
1ACMD     (ACMD4072) (12:39) (15MAR04) Subroutines                                                                          Page  128
0Current Usings:  (CP,R11) (CV,R12)
0Loc    Object Code    Addr1 Addr2  Stmt Lv Lineno    Source Statement           (Hibal 5, Asmedit 3.3)  HLASM R4.0  2004/03/15 12.39
+___    ______ ____    _____ _____  ____ __ ______    ______ _________
0                                  53980              ¿þþþþþþþþþþþþþþþþþþþþþþþþþþþþþþþþþþþþþþþþþþþþþþþþþþþþþþþþþþþþþþþþþþþþþÜ
                                   53981              Ÿ                                                                     Ÿ
                                   53982              Ÿ  KLOGCMPR -- Check the Kerberos authentication against the          Ÿ
                                   53983              Ÿ              KLOGIN list item.                                      Ÿ
                                   53984              Ÿ                                                                     Ÿ
                                   53985              Ÿ    On entry:                                                        Ÿ
                                   53986              Ÿ      R0,R1    - indicate the item to be checked                     Ÿ
                                   53987              Ÿ      CPAUTHID - is the Kerberos principal                           Ÿ
                                   53988              Ÿ                                                                     Ÿ
                                   53989              Ÿ    On exit:                                                         Ÿ
                                   53990              Ÿ      R15 = 0 if the Kerberos principal matches the item in          Ÿ
                                   53991              Ÿ            the KLOGIN list                                          Ÿ
                                   53992              Ÿ          = nonzero if the Kerberos principal does not match         Ÿ
                                   53993              Ÿ                                                                     Ÿ
                                                      ¾þþþþþþþþþþþþþþþþþþþþþþþþþþþþþþþþþþþþþþþþþþþþþþþþþþþþþþþþþþþþþþþþþþþþþ»
0000000                00000 00084 53994              KLGCMPWA RECORD BEGIN
 000000                            54002  1           KLGCMPBL   DS    F
 000004                            54003  1           KLGCMPBF   DS    CL(L'CPAUTHID)
 000084                00084 00084 54004                       END
                                   54013
 00B76C 50E0 D000/9008_      00000 54014              KLOGCMPR XPROC KLGCMPWA
 USING  *,R7
 USING  KLGCMPWA-(4+36),R8
 00B786 D27F 802C C4D8 00004 004D8 54065                       MVC   KLGCMPBF,CVBLANKS
 00B78C 1820                       54066                       LR    R2,R0
 00B78E 5920 71E2/47D0_      0B968 54067                       CEIL  R2,L'KLGCMPBF
 00B79A 5020 8028            00000 54086                       ST    R2,KLGCMPBL
 00B79E 0620/1222/4740_            54087                       MOVE  R2,KLGCMPBF,@R1
                                   54125              *
                                   54126              * See if the item in the list is fully-qualified. If not,
                                   54127              * try to match it using the Kerberos 5 and Kerberos 4 realms
                                   54128              * in sequence.
                                   54129              *
 00B7AA DD7F 802C 70B9 00004 0B83F 54130                       TRT   KLGCMPBF,ATTRT      No realm appended
 00B7B0 4770 707A            0B800 54131                       IF    Z,BEGIN
 00B7B4 5810 8028            00000 54142  1                      L     R1,KLGCMPBL
 00B7B8 4110 100D            0000D 54143  1                      LA    R1,L'K5REALM(,R1)
 00B7BC 5910 71E2/4730_      0B968 54144  1                      IF    (R1,LE,=A(L'KLGCMPBF)),BEGIN
 00B7C4 4110 802C            00004 54160  2                        LA    R1,KLGCMPBF
 00B7C8 5A10 8028            00000 54161  2                        A     R1,KLGCMPBL
 00B7CC D20C 1000 70AC 00000 0B832 54162  2                        MVC   0(L'K5REALM,R1),K5REALM
 00B7D2 D57F 802C BB80_00004 00B80 54163  2                        IF    (KLGCMPBF,EQ,CPAUTHID),BEGIN
 00B7DC 1BFF                       54181  3                          CLEAR R15                 Match K5 realm
 00B7DE 47F0 708E            0B814 54185  3                          B     KLGCMPEX            Exit now
 00B7E2                            54186  2                        END
 00B7E2                            54190  1                      END
 00B7E2 5810 8028            00000 54194  1                      L     R1,KLGCMPBL
 00B7E6 4110 1010            00010 54195  1                      LA    R1,L'K4REALM(,R1)
 00B7EA 5910 71E2/4730_      0B968 54196  1                      IF    (R1,LE,=A(L'KLGCMPBF)),BEGIN
 00B7F2 4110 802C            00004 54212  2                        LA    R1,KLGCMPBF
 00B7F6 5A10 8028            00000 54213  2                        A     R1,KLGCMPBL
 00B7FA D20F 1000 709C 00000 0B822 54214  2                        MVC   0(L'K4REALM,R1),K4REALM
 00B800                            54215  1                      END
1ACMD     (ACMD4072) (12:39) (15MAR04) Subroutines                                                                          Page  129
0Current Usings:  (*,R7) (KLGCMPWA-(4+36),R8) (CP,R11) (CV,R12)
0Loc    Object Code    Addr1 Addr2  Stmt Lv Lineno    Source Statement           (Hibal 5, Asmedit 3.3)  HLASM R4.0  2004/03/15 12.39
+___    ______ ____    _____ _____  ____ __ ______    ______ _________
000B800                            54219                       END
                                   54223
 00B800 D57F 802C BB80_00004 00B80 54224                       IF    (KLGCMPBF,EQ,CPAUTHID),'CLEAR R15'
 00B80C 708A/47F0 708E_0B80C 0B808 54251                       ELSE  'LA R15,4'
                                   54268
 00B814                            54269              KLGCMPEX LABEL ,
 00B814 18D8/9808 D004_            54271                       PEND
 DROP   KLGCMPWA-(4+36),R8
 DROP   *,R7
 00B822 7CC9D94BE2E3C1D5           54296              K4REALM  DC    C'@IR.STANFORD.EDU'
 00B832 7CA2A38195869699           54297              K5REALM  DC    C'@stanford.edu'
                                   54298
 00B83F 0000000000000000           54299              ATTRT    DC    XL256'00'
 00B93F                0B93F 0B8BB 54300                       ORG   ATTRT+C'@'
 00B8BB 04                         54301                       DC    X'04'
 00B8BC                0B8BC 0B93F 54302                       ORG
                                   54303                       QLTORG
1ACMD     (ACMD4072) (12:39) (15MAR04) Subroutines                                                                          Page  130
0Current Usings:  (CP,R11) (CV,R12)
0Loc    Object Code    Addr1 Addr2  Stmt Lv Lineno    Source Statement           (Hibal 5, Asmedit 3.3)  HLASM R4.0  2004/03/15 12.39
+___    ______ ____    _____ _____  ____ __ ______    ______ _________
0                                  54333              ¿þþþþþþþþþþþþþþþþþþþþþþþþþþþþþþþþþþþþþþþþþþþþþþþþþþþþþþþþþþþþþþþþþþþþþÜ
                                   54334              Ÿ                                                                     Ÿ
                                   54335              Ÿ  KLOGINCK -- Check the Kerberos authentication against the          Ÿ
                                   54336              Ÿ              account's KLOGIN list.                                 Ÿ
                                   54337              Ÿ                                                                     Ÿ
                                   54338              Ÿ    On entry:                                                        Ÿ
                                   54339              Ÿ      CPCACCT  - is the account to be checked                        Ÿ
                                   54340              Ÿ      CPAUTHID - is the Kerberos principal                           Ÿ
                                   54341              Ÿ                                                                     Ÿ
                                   54342              Ÿ    On exit:                                                         Ÿ
                                   54343              Ÿ      R15 = 0 if the Kerberos principal is listed in the             Ÿ
                                   54344              Ÿ            KLOGIN list                                              Ÿ
                                   54345              Ÿ          = > zero if the Kerberos principal is not listed           Ÿ
                                   54346              Ÿ            in the KLOGIN list for the account.                      Ÿ
                                   54347              Ÿ          = < zero if the KLOGIN file doesn't exist or               Ÿ
                                   54348              Ÿ            cannot otherwise be accessed.                            Ÿ
                                   54349              Ÿ                                                                     Ÿ
                                                      ¾þþþþþþþþþþþþþþþþþþþþþþþþþþþþþþþþþþþþþþþþþþþþþþþþþþþþþþþþþþþþþþþþþþþþþ»
000B9C0 50E0 D000/9008_      00000 54350              KLOGINCK XPROC
 USING  *,R7
 00B9DA 58E0 70CE/0DEE       0BAA8 54390                       VCALL MARKHEAP
 00B9E0 185F                       54394                       LR    R5,R15              Remember this
 00B9E2 4100 0C92            00C92 54395                       LA    R0,L'KRBREC+KRBMXDL#
 00B9E6 58E0 70D2/0DEE       0BAAC 54396                       VCALL GETHEAP
 00B9EC 1820                       54400                       LR    R2,R0
 00B9EE 1831                       54401                       LR    R3,R1
 USING  KRBREC,R3                  54402                       USING KRBREC,R3
 00B9F0 D205 3004 BC48 00004 00C48 54411                       MVC   KRBKEY,CPCACCT      Store key of record
 00B9F6 4100 000A            0000A 54412                       LA    R0,L'KRBKEY+L'KRBLEN
 00B9FA 5000 3000            00000 54413                       ST    R0,KRBLEN
 00B9FE D201 3004 BC4B 00004 00C4B 54414                       MVC   KRBKEY(2),CPCGRP
 00BA04 924B 3006      00006       54415                       MVI   KRBKEY+2,C'.'
 00BA08 D202 3007 BC48 00007 00C48 54416                       MVC   KRBKEY+3(3),CPCUSER
 DROP   KRBREC,R3                  54417                       DROP  R3
 00BA0E 4100 0C92            00C92 54424                       LA    R0,L'KRBREC+KRBMXDL#
 00BA12 1820                       54425                       LR    R2,R0
 00BA14 4340 70EC            0BAC6 54426                       IC    R4,=C'K'
 00BA18 58E0 70D6/0DEE       0BAB0 54427                       VCALL KEYGET              Get KLOGIN record
 00BA1E 4780 706A            0BA44 54431                       IF    NZ,BEGIN
 00BA22 50F0 D000/41D0_      00000 54442  1                      XPUSH R15
 00BA2A 18F5                       54445  1                      LR    R15,R5
 00BA2C 58E0 70DA/0DEE       0BAB4 54446  1                      VCALL RELHEAP
 00BA32 4BD0 70EA/58F0_      0BAC4 54450  1                      XPOP  R15
 00BA3A 41F0 0004            00004 54453  1                      LA    R15,4               Error accessing file
 00BA3E 13FF                       54454  1                      LCR   R15,R15
 00BA40 47F0 70BE            0BA98 54455  1                      B     KLOGINEX
 00BA44                            54456                       END
                                   54460
 00BA44 5900 70DE/47D0_      0BAB8 54461                       IF    (R0,GT,L'KRBREC+KRBMXDL#),BEGIN
 00BA4C 18F5                       54478  1                      LR    R15,R5
 00BA4E 58E0 70DA/0DEE       0BAB4 54479  1                      VCALL RELHEAP
 00BA54 47F0 70BE            0BA98 54483  1                      B     KLOGINEX
 00BA58                            54484                       END
1ACMD     (ACMD4072) (12:39) (15MAR04) Subroutines                                                                          Page  131
0Current Usings:  (*,R7) (CP,R11) (CV,R12)
0Loc    Object Code    Addr1 Addr2  Stmt Lv Lineno    Source Statement           (Hibal 5, Asmedit 3.3)  HLASM R4.0  2004/03/15 12.39
+___    ______ ____    _____ _____  ____ __ ______    ______ _________
0                                  54488
 00BA58 1821                       54489                       LR    R2,R1               Point at returned record
 USING  KRBREC,R2                  54490                       USING KRBREC,R2
 00BA5A 5800 2000            00000 54499                       L     R0,KRBLEN
 00BA5E 5B00 70E2            0BABC 54500                       S     R0,=A(L'KRBREC)
 00BA62 4110 2012            00012 54501                       LA    R1,KRBLIST
 DROP   KRBREC,R2                  54502                       DROP  R2
                                   54509              *
                                   54510              * Scan through the KLOGIN list looking for a match
                                   54511              *
 00BA66 1B33                       54512                       CLEAR R3
 00BA68 1820                       54516                       LR    R2,R0
 00BA6A 1841                       54517                       LR    R4,R1
                                   54518
 00BA6C 1932/47B0 70BA             54519                       WHILE (R3,LT,R2),BEGIN
 00BA72 1F00/4300 4000             54536  1                      LC    R0,@R4              Get length and location of next
 00BA78 4140 4001            00001 54541  1                      LA    R4,1(,R4)
 00BA7C 1814                       54542  1                      LR    R1,R4
 00BA7E 1A30                       54543  1                      AR    R3,R0               Update total length processed
 00BA80 4130 3001            00001 54544  1                      LA    R3,1(,R3)
 00BA84 1A40                       54545  1                      AR    R4,R0               Now point to next element
 00BA86 58E0 70E6/0DEE       0BAC0 54546  1                      VCALL KLOGCMPR            Try and match the entry
 00BA8C 4780 70BE            0BA98 54550  1                      IF    Z,KLOGINEX          Found a match
 00BA90 47F0 7092            0BA6C 54564                       END
                                   54569              *
                                   54570              *   No match found
                                   54571              *
 00BA94 41F0 0004            00004 54572                       LA    R15,4
                                   54573
 00BA98                            54574              KLOGINEX LABEL ,
 00BA98 18D8/9808 D004_            54576                       PEND
 DROP   *,R7
                                   54596                       QLTORG
1ACMD     (ACMD4072) (12:39) (15MAR04) Subroutines                                                                          Page  132
0Current Usings:  (CP,R11) (CV,R12)
0Loc    Object Code    Addr1 Addr2  Stmt Lv Lineno    Source Statement           (Hibal 5, Asmedit 3.3)  HLASM R4.0  2004/03/15 12.39
+___    ______ ____    _____ _____  ____ __ ______    ______ _________
0                                  54618              *
                                   54619              * chkkw verifies that the user has the right to do the access
                                   54620              * requested for another user's resource (fetch, purge,
                                   54621              * save, scratch, etc.).  the password record is read in (unless
                                   54622              * it doesn't exist) and the user is prompted for the password.
                                   54623              * if the user enters the right password, or if a privileged person
                                   54624              * enters 'ok' or 'yes', the access is permitted and a return
                                   54625              * is made with a zero return code.  otherwise the return flag
                                   54626              * is checked to see if return is to be made with a nonzero code;
                                   54627              * if no return on failure is wanted chkkw goes to cverror.
                                   54628              * if the password record does not exist, the user is denied
                                   54629              * access unless he is privileged.  if he is privileged, an 'ok?'
                                   54630              * prompt is made, to see if he really wants access.
                                   54631              *
                                   54632              * input - r1 = points to a cleared password record area with
                                   54633              *              the initials and group set.
                                   54634              *         r0 = flags (0=normal; 1=no priv bypass)
                                   54635              *
                                   54636              * output - return if access is ok, otherwise go to cverror.
                                   54637              *
                                   54638              *
 00BAC8 50E0 D000/9008_      00000 54639              CHKKW    XPROC
 USING  *,R7
 00BAE2 58E0 B08C/D2AF_      0008C 54679                       SCPUSH
                                   54685
 00BAF0 1850                       54686                       LR    R5,R0               Save flag byte
 00BAF2 1261                       54687                       LTR   R6,R1               Set R6 to password area
 00BAF4 47B0 701C/1366_      0BAFE 54688                       IF    NEG,'LCR R6,R6; B CHKKWT'  KREAD already done
 USING  KWR,R6                     54706                       USING KWR,R6
 00BAFE 1816/4100 0040_            54715              CHKKWRD  KREAD (R6)                Read in password record
 00BB0A 9180 600E      0000E       54726              CHKKWT   TM    KWRIFL,KWRIFVAL     Is it a valid user
 00BB0E 4770 703C            0BB1E 54727                       IF    Z,BEGIN             No, in general error, unless privs
 00BB12 58E0 77B2/0DEE       0C294 54738  1                      ACALL CHKNOREC            OK if return, err does not return
 00BB18 1BFF                       54742  1                      CLEAR R15
 00BB1A 47F0 7186            0BC68 54746  1                      B     CHKKEXIT
 00BB1E                            54747                       END
                                   54751                     ¿þþþþþþþþþþþþþþþþþþþþþþþþþþþþþþþþþþþþþþþþþþþþþþþþþþþþþþþþþþþþþþþþþÜ
                                   54752                     Ÿ  Log "NOT YOURS/Password" for a SAVE command (for statistics).  Ÿ
                                   54753                     ¾þþþþþþþþþþþþþþþþþþþþþþþþþþþþþþþþþþþþþþþþþþþþþþþþþþþþþþþþþþþþþþþþþ»
 00BB1E D502 78A2 BD24_0C384 00D24 54754                       IF    (CPCMNM,EQ,'SAV'),BEGIN  Only log SAVE command...
 00BB28 4110 B242/4800_      00242 54771  1                      SETMSG CPCMD,LH:CPCMDLEN   Command text
 00BB30 41F0 779E            0C280 54784  1                      LA    R15,=CL8'ASKPASS'   SMF id
 00BB34 58E0 77B6/0DEE       0C298 54785  1                      VCALL SMFLOG
 00BB3A                            54789                       END
                                   54793
 00BB3A 4110 7846/4100_      0C328 54794              CHKREPR  SETMSG 'Password? '
 00BB42 9640 BC7B      00C7B       54798                       SET   CPFNECHO
                                   54804
 00BB46 9101 B3F8/47E0_003F8       54805                       IF    CPSFNECH,BEGIN      Half duplex terminal...
 00BB4E 41F0 B050/58E0_      00050 54820  1                      TSEG  (R1),(R0)
 00BB58 4110 75CA/4100_      0C0AC 54844  1                      SETMSG KEYMASK
 00BB60 94BF BC7B      00C7B       54858  1                      CLEAR CPFNECHO
 00BB64                            54865                       END
                                   54869
1ACMD     (ACMD4072) (12:39) (15MAR04) Subroutines                                                                          Page  133
0Current Usings:  (KWR,R6) (*,R7) (CP,R11) (CV,R12)
0Loc    Object Code    Addr1 Addr2  Stmt Lv Lineno    Source Statement           (Hibal 5, Asmedit 3.3)  HLASM R4.0  2004/03/15 12.39
+___    ______ ____    _____ _____  ____ __ ______    ______ _________
000BB64 1BFF/58E0 77BE_            54870                       TREAD (R1),(R0)           Prompt for password
 00BB6C 4770 C7EA            007EA 54890                       BNZ   CVNOACTN
                                   54891
 00BB70 94BF BC7B      00C7B       54892                       CLEAR CPFNECHO
                                   54899
 00BB74 58E0 B08C/501E_      0008C 54900                       SCINIT (R1),(R0)          Set scanner
 00BB82 9120 B3BE/47E0_003BE       54920                       IF    (CPSFSPR,AND,(R5,Z)),BEGIN
 00BB90 5810 B08C/1B00_      0008C 54948  1                      SCAN  CHKKWPRT
 00BBE2 58E0 77CA/0DEE       0C2AC 54980  1                      SCANCHK
 00BBE8                            54985                       END
 00BBE8 710A/710A/47F0_0BBE8 0BB88 54989                       ELSE  BEGIN
 00BBEC 5810 B08C/1B00_      0008C 55002  1                      SCAN  CHKKWPRN
 00BC3E 58E0 77CA/0DEE       0C2AC 55034  1                      SCANCHK
 00BC44                            55039                       END
 00BC44 12FF/4770 716C_            55043                       IF    (R15,Z),' LA R15,12' No zero returns
 00BC4E 59F0 77D2/4780_      0C2B4 55063                       IF    (R15,EQ,4),CHKREPR   Nothing entered, reprompt
 00BC56 59F0 77D6/4770_      0C2B8 55083                       IF    (R15,EQ,8),BEGIN     Password ok
 00BC5E 1BFF                       55100  1                      CLEAR R15
 00BC60                            55104                       END
 00BC60 7182/47F0 7186 0BC60 0BC5C 55108                       ELSE  BEGIN                all else if fail
 00BC64 41F0 0004            00004 55119  1                      LA    R15,4
 00BC68                            55120                       END
                                   55124
 00BC68                            55125              CHKKEXIT LABEL ,
 00BC68 58E0 B08C/4BD0_      0008C 55127                       SCPOP
 00BC76 18D8/9808 D004_            55133                       PEND
 DROP   *,R7
                                   55153              *
                                   55154              *
 00BC84 4040404040404040_          55155              CHKKWPRT SCKW  ,CHKKNULL,NULL
 00BCAC E8C5E24040404040_          55170                       SCKW  YES,CHKYES
 00BCD4 E840404040404040_          55185                       SCKW  Y,CHKYES
 00BCFC D6D2404040404040_          55200                       SCKW  OK,CHKYES
 00BD24 4040404040404040_          55215                       SCKW  ,CHKKWIN
                                   55230
 00BD4C 4040404040404040_          55231              CHKKWPRN SCKW  ,CHKKNULL,NULL
 00BD74 4040404040404040_          55246                       SCKW  ,CHKKWIN
                                   55261
 00BD9C 50E0 D000/9008_      00000 55262              CHKKNULL PROC  ,
 USING  *,R7
 00BDB6 41F0 0004            00004 55301                       LA    R15,4
 00BDBA 18D8/9808 D004_            55302                       PEND
 DROP   *,R7
                                   55322
 00BDC8 50E0 D000/9008_      00000 55323              CHKYES   PROC  ,                   Password ok ..
 USING  *,R7
 00BDE2 41F0 0008            00008 55362                       LA    R15,8
 00BDE6 18D8/9808 D004_            55363                       PEND
 DROP   *,R7
                                   55383
 00BDF4 50E0 D000/9008_      00000 55384              CHKKWIN  PROC
 USING  *,R7
 00BE0E 90F1 D000/41D0_      00000 55423                       DELAY                     Wait a bit ...
 USING  JCB,R1
1ACMD     (ACMD4072) (12:39) (15MAR04) Subroutines                                                                          Page  134
0Current Usings:  (KWR,R6) (*,R7) (CP,R11) (CV,R12)
0Loc    Object Code    Addr1 Addr2  Stmt Lv Lineno    Source Statement           (Hibal 5, Asmedit 3.3)  HLASM R4.0  2004/03/15 12.39
+___    ______ ____    _____ _____  ____ __ ______    ______ _________
0DROP   JCB,R1
                                   55468                       AIF   (&KEYUPLO).KEYUPL3
 00BE36 5810 B08C/4111_      0008C 55469                       SCUPTOK R1
                                   55473              .KEYUPL3 ANOP
 00BE3E D507 6070 1000_00070 00000 55474                       IF    (KWRPASS,NE,@R1),BEGIN
 00BE48 58E0 74B2/0DEE       0C2C0 55491  1                      ACALL WATCHKW
 00BE4E 4110 7579/4100_      0C387 55495  1                      ABORT 'Incorrect password.'
 00BE5A                            55502                       END
 00BE5A 41F0 0008            00008 55506                       LA    R15,8               Password ok ..
 00BE5E 18D8/9808 D004_            55507                       PEND
 DROP   *,R7
                                   55527              *
                                   55528              * no record found -- bad user or no password checking
                                   55529              *
 00BE6C 50E0 D000/9008_      00000 55530              CHKNOREC PROC
 USING  *,R7
 00BE86 9120 B3BE/47E0_003BE       55569                       IF    CPSFSPR,BEGIN       privs
 00BE8E 4110 74B2/4100_      0C338 55584  1                      SETMSG 'OK'
 00BE96 58E0 743E/0DEE       0C2C4 55588  1                      VCALL YESREQ
                                   55592  1                      COMMENT                   If ok, return to caller
 00BE9C                            55593                       END
                                   55597
 00BE9C 701A/47F0 7092 0BE9C 0BE8C 55598                       ELSE  BEGIN               No privs, take error exits
 00BEA0 9180 61F4      001F4       55609  1                      TM    KWRHFL,KWRHFCK      Is there kwd checking now
 00BEA4 47E0 707C            0BF02 55610  1                      IF    O,BEGIN
 00BEA8 4110 7514/4100_      0C39A 55621  2                        TSEG  'Account',,B
 00BEBA 4110 6003/4100_      00003 55639  2                        TSEG  KWRGRP
 00BECC 4110 751B/4100_      0C3A1 55667  2                        TSEG  '.'
 00BEDE 4110 6000/4100_      00000 55685  2                        TSEG  KWRUSER,,B
 00BEF0 D207 B886 7402_00886 0C288 55713  2                        ABORT 'does not exist',,BADACCT
 00BF02                            55721  1                      END
 00BF02 4110 751C/4100_      0C3A2 55725  1                      TSEG  'No password checking now.',,CR
 00BF14 47F0 C7EA            007EA 55743  1                      B     CVNOACTN
 00BF18                            55744                       END
                                   55748
 00BF18 18D8/9808 D004_            55749                       PEND
 DROP   *,R7
                                   55769              *
                                   55770              *
 DROP   KWR,R6                     55771                       DROP  KWR
1ACMD     (ACMD4072) (12:39) (15MAR04) Subroutines                                                                          Page  135
0Current Usings:  (CP,R11) (CV,R12)
0Loc    Object Code    Addr1 Addr2  Stmt Lv Lineno    Source Statement           (Hibal 5, Asmedit 3.3)  HLASM R4.0  2004/03/15 12.39
+___    ______ ____    _____ _____  ____ __ ______    ______ _________
0                                  55780              ¿þþþþþþþþþþþþþþþþþþþþþþþþþþþþþþþþþþþþþþþþþþþþþþþþþþþþþþþþþþþþþþþþþþþþþÜ
                                   55781              Ÿ                                                                     Ÿ
                                   55782              Ÿ  READPW -- Routine to prompt for password.                          Ÿ
                                   55783              Ÿ                                                                     Ÿ
                                   55784              Ÿ    On exit:                                                         Ÿ
                                   55785              Ÿ      R15 - reply text loc (in CPDOUB -- 8 bytes)                    Ÿ
                                   55786              Ÿ      R0 - reply text len                                            Ÿ
                                   55787              Ÿ                                                                     Ÿ
                                                      ¾þþþþþþþþþþþþþþþþþþþþþþþþþþþþþþþþþþþþþþþþþþþþþþþþþþþþþþþþþþþþþþþþþþþþþ»
000BF26 50E0 D000/9008_      00000 55788              READPW   XPROC
 USING  *,R7
 00BF40 58E0 B08C/D2AF_      0008C 55828                       SCPUSH
                                   55834
 00BF4E 4110 73E8/4100_      0C328 55835              RDPWLOOP SETMSG 'Password? '
 00BF56 9640 BC7B      00C7B       55839                       SET   CPFNECHO
                                   55845
 00BF5A 9101 B3F8/47E0_003F8       55846                       IF    CPSFNECH,BEGIN      Half duplex terminal...
 00BF62 41F0 B050/58E0_      00050 55861  1                      TSEG  (R1),(R0)
 00BF6C 4110 716C/4100_      0C0AC 55885  1                      SETMSG KEYMASK
 00BF74 94BF BC7B      00C7B       55899  1                      CLEAR CPFNECHO
 00BF78                            55906                       END
                                   55910
 00BF78 1BFF/58E0 7360_            55911                       TREAD (R1),(R0)           Prompt for password
 00BF80 4780 704C            0BF8C 55931                       IF    NZ,BEGIN            Read failed (logout,attn...)
 00BF84 1B00                       55942  1                      CLEAR R0
 00BF86 1BFF                       55946  1                      CLEAR R15
 00BF88 47F0 714C            0C08C 55950  1                      B RDPWEXIT
 00BF8C                            55951                       END
                                   55955
 00BF8C 94BF BC7B      00C7B       55956                       CLEAR CPFNECHO            Reset noecho flag
                                   55963
 00BF90 58E0 B08C/501E_      0008C 55964                       SCINIT (R1),(R0)
 00BF9E 5810 B08C/1B00_      0008C 55984                       SCAN
 00BFEC 12FF/4780 70C8             56015                       IF     (R15,NZ),BEGIN
 00BFF2 4110 747B/4100_      0C3BB 56029  1                      TSEG  'Invalid password, re-enter.',,WR
 00C004 47F0 700E            0BF4E 56047  1                      B     RDPWLOOP
 00C008                            56048                       END
                                   56052                       AIF   (&KEYUPLO).KEYUPL4
 00C008 5810 B08C/4111_      0008C 56053                       SCUPTOK R1
                                   56057              .KEYUPL4 ANOP
 00C010 1200/4780 700E             56058                       IF    (R0,Z),RDPWLOOP
 00C016 957D 1000/4780_00000       56075                       IF    ((@R1,EQ,''''),OR,(@R1,EQ,'"'),OR,(@R1,EQ,'(')),BEGIN
 00C02E 4110 747B/4100_      0C3BB 56119  1                      TSEG  'Invalid password, re-enter.',,WR
 00C040 47F0 700E            0BF4E 56137  1                      B     RDPWLOOP
 00C044                            56138                       END
 00C044 5900 7394/4770_      0C2D4 56142                       IF    ((R0,EQ,1),AND,(@R1,EQ,'?')),BEGIN
 00C054 4110 7408/4100_      0C348 56174  1                      TSEG  'Please enter the correct password.',,WR
 00C066 47F0 700E            0BF4E 56192  1                      B     RDPWLOOP
 00C06A                            56193                       END
 00C06A 47F0 712E            0C06E 56197                       B     RDPWGOOD
                                   56198
 00C06E D207 BC88 C4D8 00C88 004D8 56199              RDPWGOOD MVC   CPDOUB,CVBLANKS
 00C074 18F0                       56200                       LR    R15,R0
1ACMD     (ACMD4072) (12:39) (15MAR04) Subroutines                                                                          Page  136
0Current Usings:  (*,R7) (CP,R11) (CV,R12)
0Loc    Object Code    Addr1 Addr2  Stmt Lv Lineno    Source Statement           (Hibal 5, Asmedit 3.3)  HLASM R4.0  2004/03/15 12.39
+___    ______ ____    _____ _____  ____ __ ______    ______ _________
000C076 59F0 7398/47D0_      0C2D8 56201                       CEIL  R15,L'CPDOUB
 00C082 06F0/44F0 74C4_            56220                       DEX   R15,'MVC CPDOUB(0),@R1 '
 00C088 41F0 BC88            00C88 56239                       LA    R15,CPDOUB
 00C08C                            56240              RDPWEXIT LABEL ,
 00C08C 5008 0004            00004 56242                       PRETURN (R0)
 00C090 58E0 B08C/4BD0_      0008C 56244                       SCPOP
 00C09E 18D8/9808 D004_            56250                       PEND
 DROP   *,R7
                                   56270
 00C0AC 1FE7D4D4D4D4D4D4           56271              KEYSTART DC    X'1FE7',8C'M',8X'16',8C'W',8X'16',8C'G',8X'16'
                                   56272              KEYMASK  EQU   KEYSTART,*-KEYSTART,C'C'
                                   56273
1ACMD     (ACMD4072) (12:39) (15MAR04) Subroutines                                                                          Page  137
0Current Usings:  (CP,R11) (CV,R12)
0Loc    Object Code    Addr1 Addr2  Stmt Lv Lineno    Source Statement           (Hibal 5, Asmedit 3.3)  HLASM R4.0  2004/03/15 12.39
+___    ______ ____    _____ _____  ____ __ ______    ______ _________
0                                  56275              ¿þþþþþþþþþþþþþþþþþþþþþþþþþþþþþþþþþþþþþþþþþþþþþþþþþþþþþþþþþþþþþþþþþþþþþÜ
                                   56276              Ÿ                                                                     Ÿ
                                   56277              Ÿ  WATCHKW -- Routine to monitor unsucessful attempts supply the      Ÿ
                                   56278              Ÿ    password.  After 20 attempts we start logging the                Ÿ
                                   56279              Ÿ    the commands, and after 40 attempts the user is logged off.      Ÿ
                                   56280              Ÿ    If there have been no attempts in the last five minutes          Ÿ
                                   56281              Ÿ    then the counter is reset.                                       Ÿ
                                   56282              Ÿ                                                                     Ÿ
                                                      ¾þþþþþþþþþþþþþþþþþþþþþþþþþþþþþþþþþþþþþþþþþþþþþþþþþþþþþþþþþþþþþþþþþþþþþ»
0                                  56283              WATCHTMO EQU   5*60                5 minute "timeout"
                                   56284              WATCHWC  EQU   20                  Start logging after 20 attempts
                                   56285              WATCHLC  EQU   40                  Logoff after 40 attempts
                                   56286
 00C0DE 50E0 D000/9008_      00000 56287              WATCHKW  XPROC
 USING  *,R7
 00C0F8 B205 BC88      00C88       56327                       STCK  CPDOUB              Current time
 00C0FC 58F0 BC88            00C88 56328                       L     R15,CPDOUB
 00C100 5FF0 B1F4            001F4 56329                       SL    R15,CPSECCLK        Time since last attempt
 00C104 55F0 71E4/4750_      0C2DC 56330                       IF    (R15,LGE,WATCHTMO),'CLEAR CPSECCNT'  reset counter
 00C112 D203 B1F4 BC88 001F4 00C88 56359                       MVC   CPSECCLK,CPDOUB     Save new time
 00C118 4120 0001/4A20_      00001 56360                       INCR  R2,CPSECCNT         Count the attempt
 00C124 5520 71E8/4750_      0C2E0 56366                       IF    (R2,LGE,WATCHWC),BEGIN  start to monitor...
 00C12C 4100 0001            00001 56383  1                      LA    R0,SMFWSEC          Security violation
 00C130 58E0 71EC/0DEE       0C2E4 56384  1                      VCALL LOGKWR
 00C136                            56388                       END
 00C136 5520 71F0/4750_      0C2E8 56392                       IF    (R2,LGE,WATCHLC),BEGIN  enough of this...
 00C13E 1B00/41F0 B050_            56409  1                      TWRITE
 00C14A 4110 72DE/4100_      0C3D6 56434  1                      TSEG  'You have made too many attempts to supply a',,B
 00C15C 4110 71F4/4100_      0C2EC 56452  1                      TSEG  'PASSWORD, please contact Accounting.',,CR
 00C16E D604 B3B4 B3B4_003B4 003B4 56470  1                      IF    (CPSACCT,NZ),BEGIN
 00C178 4110 7272/4100_      0C36A 56486  2                        TSEG  'Session is now terminated.',,WR
 00C18A                            56504  1                      END
 00C18A 58F0 C1C8            001C8 56508  1                      L     R15,CVCURJCB
 00C18E 9680 F062      00062       56509  1                      WITH  (JCB,R15),'SET JCBAFALO'  Logoff (eventually)
 USING  JCB,R15
 DROP   JCB,R15
 00C192 47F0 C7DE            007DE 56538  1                      B     CVNEXT
 00C196                            56539                       END
 00C196 18D8/9808 D004_            56543                       PEND
 DROP   *,R7
1ACMD     (ACMD4072) (12:39) (15MAR04) Subroutines                                                                          Page  138
0Current Usings:  (CP,R11) (CV,R12)
0Loc    Object Code    Addr1 Addr2  Stmt Lv Lineno    Source Statement           (Hibal 5, Asmedit 3.3)  HLASM R4.0  2004/03/15 12.39
+___    ______ ____    _____ _____  ____ __ ______    ______ _________
0                                  56564              ¿þþþþþþþþþþþþþþþþþþþþþþþþþþþþþþþþþþþþþþþþþþþþþþþþþþþþþþþþþþþþþþþþþþþþþÜ
                                   56565              Ÿ                                                                     Ÿ
                                   56566              Ÿ  SEGDOL -- Routine to seg dollar amount as "$n.nn".                 Ÿ
                                   56567              Ÿ                                                                     Ÿ
                                   56568              Ÿ    On entry:                                                        Ÿ
                                   56569              Ÿ      R15 - dollar amount in .1 cents                                Ÿ
                                   56570              Ÿ                                                                     Ÿ
                                                      ¾þþþþþþþþþþþþþþþþþþþþþþþþþþþþþþþþþþþþþþþþþþþþþþþþþþþþþþþþþþþþþþþþþþþþþ»
000C1A4 50E0 D000/9008_      00000 56571              SEGDOL   PROC
 USING  *,R7
 00C1BE 1BEE                       56610                       CLEAR R14
 00C1C0 5DE0 7152            0C310 56614                       D     R14,=F'10'
 00C1C4 59E0 7156/4750_      0C314 56615                       IF    (R14,GE,5),'INCR R15'  Round
                                   56640
 00C1D0 182F                       56641                       LR    R2,R15
 00C1D2 4110 7243/4100_      0C401 56642                       TSEG  '$'
 00C1E4 18F2/4100 0002_            56660                       BTR   CPDOUB,(0,2),(R2)
 00C1F4 41F0 B050/58E0_      00050 56683                       TSEG  (R1),(R0)
 00C1FE 18D8/9808 D004_            56707                       PEND
 DROP   *,R7
1ACMD     (ACMD4072) (12:39) (15MAR04) Subroutines                                                                          Page  139
0Current Usings:  (CP,R11) (CV,R12)
0Loc    Object Code    Addr1 Addr2  Stmt Lv Lineno    Source Statement           (Hibal 5, Asmedit 3.3)  HLASM R4.0  2004/03/15 12.39
+___    ______ ____    _____ _____  ____ __ ______    ______ _________
0                                  56728              ¿þþþþþþþþþþþþþþþþþþþþþþþþþþþþþþþþþþþþþþþþþþþþþþþþþþþþþþþþþþþþþþþþþþþþþÜ
                                   56729              Ÿ                                                                     Ÿ
                                   56730              Ÿ  SEGXDOL -- Routine to seg exact dollar amount.                     Ÿ
                                   56731              Ÿ                                                                     Ÿ
                                   56732              Ÿ    On entry:                                                        Ÿ
                                   56733              Ÿ      R15 - dollar amount                                            Ÿ
                                   56734              Ÿ                                                                     Ÿ
                                                      ¾þþþþþþþþþþþþþþþþþþþþþþþþþþþþþþþþþþþþþþþþþþþþþþþþþþþþþþþþþþþþþþþþþþþþþ»
000C20C 50E0 D000/9008_      00000 56735              SEGXDOL  PROC
 USING  *,R7
 00C226 182F                       56774                       LR    R2,R15
 00C228 5520 70F6/47D0_      0C31C 56775                       IF    (R2,LGT,X'800000'),BEGIN  negative...
 00C230 5620 70FA            0C320 56792  1                      O     R2,=A(X'FF000000')  Make it 32bit neg
 00C234 1322                       56793  1                      LCR   R2,R2
 00C236 4110 71DC/4100_      0C402 56794  1                      TSEG  '-'
 00C248                            56812                       END
 00C248 4110 71DB/4100_      0C401 56816                       TSEG  '$'
 00C25A 18F2/1B00/4110_            56834                       BTD   CPDOUB,0,(R2)
 00C268 41F0 B050/58E0_      00050 56854                       TSEG  (R1),(R0)
 00C272 18D8/9808 D004_            56878                       PEND
 DROP   *,R7
                                   56898
                                   56899                       QLTORG
                                   56960
                                   56961                       QLTORG
                                   56973                       VLTORG
                                   56981
 00C410                0C410 0C410 56982                       END   .

1ACMD     (ACMD4072) (12:39) (15MAR04) Relocation Dictionary                                                                Page  140
-   Pos.Id   Rel.Id   Flags    Address                                                       HLASM R4.0  2004/03/15 12.39
0  00000001 00000001    0C    00000180
   00000001 00000001    0C    00000408
   00000001 00000001    0C    00000430
   00000001 00000001    0C    00000458
   00000001 00000001    0C    00000480
   00000001 00000001    0C    000004F8
   00000001 00000001    0C    000007D8
   00000001 00000001    0C    000007DC
   00000001 00000001    0C    000007E8
   00000001 00000001    0C    000007F4
   00000001 00000001    0C    00000830
   00000001 00000001    0C    00000834
   00000001 00000001    0C    00000CD8
   00000001 00000001    0C    00000F8C
   00000001 00000001    0C    00001248
   00000001 00000001    0C    00001270
   00000001 00000001    0C    00001298
   00000001 00000001    0C    000012C0
   00000001 00000001    0C    000012E8
   00000001 00000001    0C    00001310
   00000001 00000001    0C    00001338
   00000001 00000001    0C    00001360
   00000001 00000001    0C    00001388
   00000001 00000001    0C    000013B0
   00000001 00000001    0C    000013D8
   00000001 00000001    0C    00001400
   00000001 00000001    0C    00001428
   00000001 00000001    0C    00001450
   00000001 00000001    0C    00001478
   00000001 00000001    0C    000014A0
   00000001 00000001    0C    000014C8
   00000001 00000001    0C    000014F0
   00000001 00000001    0C    00001518
   00000001 00000001    0C    00001540
   00000001 00000001    0C    00001568
   00000001 00000001    0C    00001590
   00000001 00000001    0C    000015B8
   00000001 00000001    0C    000015E0
   00000001 00000001    0C    00001608
   00000001 00000001    0C    00001630
   00000001 00000001    0C    00001658
   00000001 00000001    0C    00001680
   00000001 00000001    0C    000016A8
   00000001 00000001    0C    000016D0
   00000001 00000001    0C    000016F8
   00000001 00000001    0C    00001720
   00000001 00000001    0C    00001748
   00000001 00000001    0C    00001770
   00000001 00000001    0C    00001798
   00000001 00000001    0C    00001E98
   00000001 00000001    0C    00001E9C
   00000001 00000001    0C    00001EA8
   00000001 00000001    0C    00001EB0
   00000001 00000001    0C    00001EB4
   00000001 00000001    0C    00002088
1ACMD     (ACMD4072) (12:39) (15MAR04) Relocation Dictionary                                                                Page  141
   00000001 00000001    0C    000020B0
   00000001 00000001    0C    000020D8
   00000001 00000001    0C    00002100
   00000001 00000001    0C    00002128
   00000001 00000001    0C    00002150
   00000001 00000001    0C    00002688
   00000001 00000001    0C    000026B0
   00000001 00000001    0C    000026D8
   00000001 00000001    0C    00002A7C
   00000001 00000001    0C    00002AA4
   00000001 00000001    0C    00002ACC
   00000001 00000001    0C    00002AF4
   00000001 00000001    0C    00002B1C
   00000001 00000001    0C    00002B44
   00000001 00000001    0C    00002B6C
   00000001 00000001    0C    00002E90
   00000001 00000001    0C    00002E94
   00000001 00000001    0C    00002EBC
   00000001 00000001    0C    00002ED4
   00000001 00000001    0C    00002EDC
   00000001 00000001    0C    00002EE8
   00000001 00000001    0C    00002EF0
   00000001 00000001    0C    00003194
   00000001 00000001    0C    000031BC
   00000001 00000001    0C    000031E4
   00000001 00000001    0C    0000320C
   00000001 00000001    0C    00003234
   00000001 00000001    0C    0000325C
   00000001 00000001    0C    00003284
   00000001 00000001    0C    000032AC
   00000001 00000001    0C    000032D4
   00000001 00000001    0C    000032FC
   00000001 00000001    0C    00003324
   00000001 00000001    0C    00003618
   00000001 00000001    0C    00003640
   00000001 00000001    0C    00003668
   00000001 00000001    0C    00003690
   00000001 00000001    0C    000036B8
   00000001 00000001    0C    000036E0
   00000001 00000001    0C    00003708
   00000001 00000001    0C    00003730
   00000001 00000001    0C    00003B18
   00000001 00000001    0C    00003B1C
   00000001 00000001    0C    00003B28
   00000001 00000001    0C    00003B30
   00000001 00000001    0C    00003B34
   00000001 00000001    0C    00003B48
   00000001 00000001    0C    00003DC8
   00000001 00000001    0C    000040E8
   00000001 00000001    0C    000040F4
   00000001 00000001    0C    000040F8
   00000001 00000001    0C    00004B2C
   00000001 00000001    0C    00004B54
   00000001 00000001    0C    00004B7C
   00000001 00000001    0C    00004D58
   00000001 00000001    0C    00004D5C
   00000001 00000001    0C    00004D70
   00000001 00000001    0C    00004DBC
   00000001 00000001    0C    00004DC4
1ACMD     (ACMD4072) (12:39) (15MAR04) Relocation Dictionary                                                                Page  142
   00000001 00000001    0C    000054B4
   00000001 00000001    0C    000054BC
   00000001 00000001    0C    000054C8
   00000001 00000001    0C    000054CC
   00000001 00000001    0C    000054D8
   00000001 00000001    0C    000054E8
   00000001 00000001    0C    00005B60
   00000001 00000001    0C    00005B88
   00000001 00000001    0C    00005BB0
   00000001 00000001    0C    00005BD8
   00000001 00000001    0C    00005C00
   00000001 00000001    0C    00005C28
   00000001 00000001    0C    00005C50
   00000001 00000001    0C    00005C78
   00000001 00000001    0C    00005CA0
   00000001 00000001    0C    00005CC8
   00000001 00000001    0C    00005CF0
   00000001 00000001    0C    00005EE8
   00000001 00000001    0C    00005EF0
   00000001 00000001    0C    00005EF4
   00000001 00000001    0C    00005F18
   00000001 00000001    0C    00005F30
   00000001 00000001    0C    000062F8
   00000001 00000001    0C    00006320
   00000001 00000001    0C    00006348
   00000001 00000001    0C    00006370
   00000001 00000001    0C    00006398
   00000001 00000001    0C    000063C0
   00000001 00000001    0C    000063E8
   00000001 00000001    0C    00006410
   00000001 00000001    0C    00006578
   00000001 00000001    0C    00006AE8
   00000001 00000001    0C    00006AF4
   00000001 00000001    0C    00006AF8
   00000001 00000001    0C    00006AFC
   00000001 00000001    0C    00006B00
   00000001 00000001    0C    00006B14
   00000001 00000001    0C    00006B1C
   00000001 00000001    0C    00006B24
   00000001 00000001    0C    00006C7C
   00000001 00000001    0C    00006CA4
   00000001 00000001    0C    00006CCC
   00000001 00000001    0C    00006CF4
   00000001 00000001    0C    00006D1C
   00000001 00000001    0C    00006D44
   00000001 00000001    0C    00006D6C
   00000001 00000001    0C    00006D94
   00000001 00000001    0C    00006DBC
   00000001 00000001    0C    00006DE4
   00000001 00000001    0C    00006E0C
   00000001 00000001    0C    00006E34
   00000001 00000001    0C    00006E5C
   00000001 00000001    0C    00006E84
   00000001 00000001    0C    00006EAC
   00000001 00000001    0C    00006ED4
   00000001 00000001    0C    00006EFC
   00000001 00000001    0C    00006F24
   00000001 00000001    0C    00006F4C
   00000001 00000001    0C    00006F74
1ACMD     (ACMD4072) (12:39) (15MAR04) Relocation Dictionary                                                                Page  143
   00000001 00000001    0C    00006F9C
   00000001 00000001    0C    00006FC4
   00000001 00000001    0C    00006FEC
   00000001 00000001    0C    00007014
   00000001 00000001    0C    0000703C
   00000001 00000001    0C    00007064
   00000001 00000001    0C    0000708C
   00000001 00000001    0C    000070B4
   00000001 00000001    0C    000070DC
   00000001 00000001    0C    00007104
   00000001 00000001    0C    0000712C
   00000001 00000001    0C    00007154
   00000001 00000001    0C    0000717C
   00000001 00000001    0C    000071A4
   00000001 00000001    0C    000071CC
   00000001 00000001    0C    000071F4
   00000001 00000001    0C    0000721C
   00000001 00000001    0C    00007244
   00000001 00000001    0C    0000726C
   00000001 00000001    0C    00007294
   00000001 00000001    0C    000072BC
   00000001 00000001    0C    000072E4
   00000001 00000001    0C    0000730C
   00000001 00000001    0C    00007334
   00000001 00000001    0C    0000735C
   00000001 00000001    0C    00007384
   00000001 00000001    0C    000073AC
   00000001 00000001    0C    000073D4
   00000001 00000001    0C    000073FC
   00000001 00000001    0C    00007424
   00000001 00000001    0C    0000744C
   00000001 00000001    0C    00007474
   00000001 00000001    0C    0000749C
   00000001 00000001    0C    000074C4
   00000001 00000001    0C    000074EC
   00000001 00000001    0C    00007514
   00000001 00000001    0C    0000753C
   00000001 00000001    0C    00007564
   00000001 00000001    0C    0000758C
   00000001 00000001    0C    000075B4
   00000001 00000001    0C    000075DC
   00000001 00000001    0C    00007604
   00000001 00000001    0C    0000762C
   00000001 00000001    0C    00007654
   00000001 00000001    0C    0000767C
   00000001 00000001    0C    000076A4
   00000001 00000001    0C    000076CC
   00000001 00000001    0C    000076F4
   00000001 00000001    0C    0000771C
   00000001 00000001    0C    00007744
   00000001 00000001    0C    0000776C
   00000001 00000001    0C    00007794
   00000001 00000001    0C    000077BC
   00000001 00000001    0C    000077E4
   00000001 00000001    0C    0000780C
   00000001 00000001    0C    00007834
   00000001 00000001    0C    0000785C
   00000001 00000001    0C    00007884
   00000001 00000001    0C    000078AC
1ACMD     (ACMD4072) (12:39) (15MAR04) Relocation Dictionary                                                                Page  144
   00000001 00000001    0C    000078D4
   00000001 00000001    0C    000078FC
   00000001 00000001    0C    00007924
   00000001 00000001    0C    0000794C
   00000001 00000001    0C    00007974
   00000001 00000001    0C    0000799C
   00000001 00000001    0C    000079C4
   00000001 00000001    0C    000079EC
   00000001 00000001    0C    00007A14
   00000001 00000001    0C    00007A3C
   00000001 00000001    0C    00007A64
   00000001 00000001    0C    00007A8C
   00000001 00000001    0C    00008360
   00000001 00000001    0C    0000836C
   00000001 00000001    0C    00008370
   00000001 00000001    0C    00008F48
   00000001 00000001    0C    00008F54
   00000001 00000001    0C    00008F60
   00000001 00000001    0C    00009430
   00000001 00000001    0C    000094B8
   00000001 00000001    0C    000094C4
   00000001 00000001    0C    000094C8
   00000001 00000001    0C    000094E8
   00000001 00000001    0C    0000A2B0
   00000001 00000001    0C    0000A2D0
   00000001 00000001    0C    0000A310
   00000001 00000001    0C    0000A7E8
   00000001 00000001    0C    0000A810
   00000001 00000001    0C    0000B020
   00000001 00000001    0C    0000B030
   00000001 00000001    0C    0000B2C0
   00000001 00000001    0C    0000B2E8
   00000001 00000001    0C    0000B310
   00000001 00000001    0C    0000B338
   00000001 00000001    0C    0000B388
   00000001 00000001    0C    0000B3B0
   00000001 00000001    0C    0000B3D8
   00000001 00000001    0C    0000B400
   00000001 00000001    0C    0000B5B8
   00000001 00000001    0C    0000B5C4
   00000001 00000001    0C    0000B964
   00000001 00000001    0C    0000BCA8
   00000001 00000001    0C    0000BCD0
   00000001 00000001    0C    0000BCF8
   00000001 00000001    0C    0000BD20
   00000001 00000001    0C    0000BD48
   00000001 00000001    0C    0000BD70
   00000001 00000001    0C    0000BD98
   00000001 00000001    0C    0000C294
   00000001 00000001    0C    0000C2A4
   00000001 00000001    0C    0000C2B0
   00000001 00000001    0C    0000C2C0
   00000001 00000002    1C    0000017C
   00000001 00000002    1C    000004F4
   00000001 00000002    1C    00000CFC
   00000001 00000002    1C    0000180C
   00000001 00000002    1C    000021C4
   00000001 00000002    1C    0000274C
   00000001 00000002    1C    00002BE0
1ACMD     (ACMD4072) (12:39) (15MAR04) Relocation Dictionary                                                                Page  145
   00000001 00000002    1C    00003398
   00000001 00000002    1C    0000372C
   00000001 00000002    1C    00003D9C
   00000001 00000002    1C    00003DEC
   00000001 00000002    1C    00004878
   00000001 00000002    1C    00004BA0
   00000001 00000002    1C    00004D38
   00000001 00000002    1C    000053A4
   00000001 00000002    1C    00005D14
   00000001 00000002    1C    00006434
   00000001 00000002    1C    00007B28
   00000001 00000002    1C    0000947C
   00000001 00000002    1C    0000A80C
   00000001 00000002    1C    0000B35C
   00000001 00000002    1C    0000B424
   00000001 00000002    1C    0000BD44
   00000001 00000002    1C    0000BD94
   00000001 00000003    1C    00000404
   00000001 00000003    1C    0000042C
   00000001 00000003    1C    00000454
   00000001 00000003    1C    0000047C
   00000001 00000003    1C    00001244
   00000001 00000003    1C    0000126C
   00000001 00000003    1C    00001294
   00000001 00000003    1C    000012BC
   00000001 00000003    1C    000012E4
   00000001 00000003    1C    0000130C
   00000001 00000003    1C    00001334
   00000001 00000003    1C    0000135C
   00000001 00000003    1C    00001384
   00000001 00000003    1C    000013AC
   00000001 00000003    1C    000013D4
   00000001 00000003    1C    000013FC
   00000001 00000003    1C    00001424
   00000001 00000003    1C    0000144C
   00000001 00000003    1C    00001474
   00000001 00000003    1C    000014C4
   00000001 00000003    1C    00001514
   00000001 00000003    1C    00001564
   00000001 00000003    1C    0000158C
   00000001 00000003    1C    000015B4
   00000001 00000003    1C    000015DC
   00000001 00000003    1C    00001604
   00000001 00000003    1C    0000162C
   00000001 00000003    1C    0000167C
   00000001 00000003    1C    000016A4
   00000001 00000003    1C    000016CC
   00000001 00000003    1C    000016F4
   00000001 00000003    1C    0000171C
   00000001 00000003    1C    00001744
   00000001 00000003    1C    0000176C
   00000001 00000003    1C    00001794
   00000001 00000003    1C    00002084
   00000001 00000003    1C    000020AC
   00000001 00000003    1C    000020D4
   00000001 00000003    1C    000020FC
   00000001 00000003    1C    00002124
   00000001 00000003    1C    0000214C
   00000001 00000003    1C    00002684
1ACMD     (ACMD4072) (12:39) (15MAR04) Relocation Dictionary                                                                Page  146
   00000001 00000003    1C    000026AC
   00000001 00000003    1C    00002AF0
   00000001 00000003    1C    00002B40
   00000001 00000003    1C    00002B68
   00000001 00000003    1C    00003190
   00000001 00000003    1C    000031B8
   00000001 00000003    1C    000031E0
   00000001 00000003    1C    00003208
   00000001 00000003    1C    00003230
   00000001 00000003    1C    00003280
   00000001 00000003    1C    000032F8
   00000001 00000003    1C    00003320
   00000001 00000003    1C    0000363C
   00000001 00000003    1C    00003664
   00000001 00000003    1C    0000368C
   00000001 00000003    1C    000036B4
   00000001 00000003    1C    000036DC
   00000001 00000003    1C    00003704
   00000001 00000003    1C    00003DC4
   00000001 00000003    1C    00004B50
   00000001 00000003    1C    00005B5C
   00000001 00000003    1C    00005B84
   00000001 00000003    1C    00005BAC
   00000001 00000003    1C    00005BD4
   00000001 00000003    1C    00005BFC
   00000001 00000003    1C    00005C24
   00000001 00000003    1C    00005C4C
   00000001 00000003    1C    00005C74
   00000001 00000003    1C    00005C9C
   00000001 00000003    1C    00005CC4
   00000001 00000003    1C    00005CEC
   00000001 00000003    1C    000062F4
   00000001 00000003    1C    0000631C
   00000001 00000003    1C    00006344
   00000001 00000003    1C    0000636C
   00000001 00000003    1C    00006394
   00000001 00000003    1C    000063BC
   00000001 00000003    1C    000063E4
   00000001 00000003    1C    0000640C
   00000001 00000003    1C    00006C78
   00000001 00000003    1C    00006CA0
   00000001 00000003    1C    00006CC8
   00000001 00000003    1C    00006CF0
   00000001 00000003    1C    00006D18
   00000001 00000003    1C    00006D40
   00000001 00000003    1C    00006D68
   00000001 00000003    1C    00006D90
   00000001 00000003    1C    00006DB8
   00000001 00000003    1C    00006DE0
   00000001 00000003    1C    00006E08
   00000001 00000003    1C    00006E30
   00000001 00000003    1C    00006E58
   00000001 00000003    1C    00006E80
   00000001 00000003    1C    00006EA8
   00000001 00000003    1C    00006ED0
   00000001 00000003    1C    00006EF8
   00000001 00000003    1C    00006F20
   00000001 00000003    1C    00006F48
   00000001 00000003    1C    00006F70
1ACMD     (ACMD4072) (12:39) (15MAR04) Relocation Dictionary                                                                Page  147
   00000001 00000003    1C    00006FE8
   00000001 00000003    1C    00007010
   00000001 00000003    1C    00007038
   00000001 00000003    1C    00007060
   00000001 00000003    1C    00007088
   00000001 00000003    1C    00007100
   00000001 00000003    1C    00007128
   00000001 00000003    1C    00007150
   00000001 00000003    1C    00007178
   00000001 00000003    1C    000071A0
   00000001 00000003    1C    000071C8
   00000001 00000003    1C    000071F0
   00000001 00000003    1C    00007218
   00000001 00000003    1C    00007240
   00000001 00000003    1C    00007268
   00000001 00000003    1C    00007290
   00000001 00000003    1C    000072B8
   00000001 00000003    1C    000072E0
   00000001 00000003    1C    00007358
   00000001 00000003    1C    00007380
   00000001 00000003    1C    000073A8
   00000001 00000003    1C    000073D0
   00000001 00000003    1C    000073F8
   00000001 00000003    1C    00007420
   00000001 00000003    1C    00007448
   00000001 00000003    1C    00007470
   00000001 00000003    1C    00007498
   00000001 00000003    1C    000074C0
   00000001 00000003    1C    000074E8
   00000001 00000003    1C    00007510
   00000001 00000003    1C    00007538
   00000001 00000003    1C    00007560
   00000001 00000003    1C    00007588
   00000001 00000003    1C    000075B0
   00000001 00000003    1C    000075D8
   00000001 00000003    1C    00007600
   00000001 00000003    1C    00007628
   00000001 00000003    1C    00007650
   00000001 00000003    1C    00007678
   00000001 00000003    1C    000076A0
   00000001 00000003    1C    000076C8
   00000001 00000003    1C    000076F0
   00000001 00000003    1C    00007718
   00000001 00000003    1C    00007740
   00000001 00000003    1C    00007768
   00000001 00000003    1C    00007790
   00000001 00000003    1C    000077B8
   00000001 00000003    1C    00007880
   00000001 00000003    1C    000078A8
   00000001 00000003    1C    000078D0
   00000001 00000003    1C    000078F8
   00000001 00000003    1C    00007920
   00000001 00000003    1C    00007948
   00000001 00000003    1C    00007970
   00000001 00000003    1C    00007998
   00000001 00000003    1C    000079E8
   00000001 00000003    1C    00007A38
   00000001 00000003    1C    00007A88
   00000001 00000003    1C    0000942C
1ACMD     (ACMD4072) (12:39) (15MAR04) Relocation Dictionary                                                                Page  148
   00000001 00000003    1C    0000BCCC
   00000001 00000003    1C    0000BCF4
   00000001 00000003    1C    0000BD1C
   00000001 00000004    1C    000004A8
   00000001 00000004    1C    000017C0
   00000001 00000004    1C    00002178
   00000001 00000004    1C    00002700
   00000001 00000004    1C    00002B94
   00000001 00000004    1C    0000334C
   00000001 00000004    1C    00003D78
   00000001 00000004    1C    0000482C
   00000001 00000004    1C    00004D14
   00000001 00000004    1C    00007ADC
   00000001 00000004    1C    00009458
   00000001 00000005    1C    000004D0
   00000001 00000005    1C    000017E8
   00000001 00000005    1C    000021A0
   00000001 00000005    1C    00002728
   00000001 00000005    1C    00002BBC
   00000001 00000005    1C    00003374
   00000001 00000005    1C    00007B04
   00000001 00000006    1C    000007E0
   00000001 00000006    1C    00000F80
   00000001 00000006    1C    00001EA0
   00000001 00000006    1C    00002E98
   00000001 00000006    1C    00003B20
   00000001 00000006    1C    000040EC
   00000001 00000006    1C    00004D48
   00000001 00000006    1C    000054D0
   00000001 00000006    1C    00005F34
   00000001 00000006    1C    00006564
   00000001 00000006    1C    00008364
   00000001 00000006    1C    000094CC
   00000001 00000006    1C    0000B024
   00000001 00000006    1C    0000B5BC
   00000001 00000006    1C    0000C2A8
   00000001 00000007    1C    000007E4
   00000001 00000007    1C    00000F84
   00000001 00000007    1C    00001EA4
   00000001 00000007    1C    00002E9C
   00000001 00000007    1C    00003B24
   00000001 00000007    1C    000040F0
   00000001 00000007    1C    00004D4C
   00000001 00000007    1C    000054D4
   00000001 00000007    1C    00005F38
   00000001 00000007    1C    00006568
   00000001 00000007    1C    00008368
   00000001 00000007    1C    000094D0
   00000001 00000007    1C    0000B028
   00000001 00000007    1C    0000B5C0
   00000001 00000007    1C    0000C2AC
   00000001 00000008    1C    000007EC
   00000001 00000008    1C    00002ED8
   00000001 00000008    1C    0000410C
   00000001 00000009    1C    000007F0
   00000001 00000009    1C    00000F94
   00000001 00000009    1C    00001EC8
   00000001 00000009    1C    00002EC0
   00000001 00000009    1C    00003B64
1ACMD     (ACMD4072) (12:39) (15MAR04) Relocation Dictionary                                                                Page  149
   00000001 00000009    1C    00004110
   00000001 00000009    1C    00004DA0
   00000001 00000009    1C    00005EEC
   00000001 0000000A    1C    00000804
   00000001 0000000A    1C    00000F70
   00000001 0000000A    1C    00001ECC
   00000001 0000000A    1C    00002EC4
   00000001 0000000A    1C    00003B44
   00000001 0000000A    1C    00004D68
   00000001 0000000A    1C    000054DC
   00000001 0000000A    1C    00005F0C
   00000001 0000000A    1C    00006580
   00000001 0000000A    1C    00006B18
   00000001 0000000A    1C    00008F78
   00000001 0000000A    1C    000094D4
   00000001 0000000A    1C    0000A2B4
   00000001 0000000A    1C    0000B03C
   00000001 0000000A    1C    0000B954
   00000001 0000000A    1C    0000C29C
   00000001 0000000B    1C    0000082C
   00000001 0000000C    1C    00000838
   00000001 0000000C    1C    00001EBC
   00000001 0000000D    1C    00000848
   00000001 0000000D    1C    00005F44
   00000001 0000000D    1C    00008F6C
   00000001 0000000D    1C    0000B044
   00000001 0000000E    1C    0000084C
   00000001 0000000E    1C    00001810
   00000001 0000000E    1C    00001EB8
   00000001 0000000E    1C    000021C8
   00000001 0000000E    1C    00002750
   00000001 0000000E    1C    00002BE4
   00000001 0000000E    1C    0000339C
   00000001 0000000E    1C    00003B3C
   00000001 0000000E    1C    00003DA0
   00000001 0000000E    1C    0000487C
   00000001 0000000E    1C    00004BA4
   00000001 0000000E    1C    00004D3C
   00000001 0000000E    1C    00004DB0
   00000001 0000000E    1C    000053A8
   00000001 0000000E    1C    00005D18
   00000001 0000000E    1C    00005F4C
   00000001 0000000E    1C    00006438
   00000001 0000000E    1C    00006574
   00000001 0000000E    1C    00006AF0
   00000001 0000000E    1C    00007B2C
   00000001 0000000E    1C    0000837C
   00000001 0000000E    1C    00008F58
   00000001 0000000E    1C    00009480
   00000001 0000000E    1C    000094C0
   00000001 0000000E    1C    0000B050
   00000001 0000000E    1C    0000B360
   00000001 0000000E    1C    0000B428
   00000001 0000000F    1C    00000CD4
   00000001 0000000F    1C    0000149C
   00000001 0000000F    1C    000014EC
   00000001 0000000F    1C    0000153C
   00000001 0000000F    1C    00001654
   00000001 0000000F    1C    00002A78
1ACMD     (ACMD4072) (12:39) (15MAR04) Relocation Dictionary                                                                Page  150
   00000001 0000000F    1C    00002AA0
   00000001 0000000F    1C    00002AC8
   00000001 0000000F    1C    00002B18
   00000001 0000000F    1C    00003258
   00000001 0000000F    1C    000032D0
   00000001 0000000F    1C    00004B28
   00000001 0000000F    1C    00006F98
   00000001 0000000F    1C    00006FC0
   00000001 0000000F    1C    000070B0
   00000001 0000000F    1C    000070D8
   00000001 0000000F    1C    00007308
   00000001 0000000F    1C    00007330
   00000001 0000000F    1C    000077E0
   00000001 0000000F    1C    00007808
   00000001 0000000F    1C    00007830
   00000001 0000000F    1C    00007858
   00000001 0000000F    1C    000079C0
   00000001 0000000F    1C    00007A10
   00000001 0000000F    1C    00007A60
   00000001 00000010    1C    00000D00
   00000001 00000011    1C    00000F74
   00000001 00000011    1C    00002ED0
   00000001 00000011    1C    00004DAC
   00000001 00000011    1C    00005514
   00000001 00000011    1C    00005F50
   00000001 00000011    1C    0000656C
   00000001 00000011    1C    00006B2C
   00000001 00000011    1C    0000A2CC
   00000001 00000011    1C    0000C2CC
   00000001 00000012    1C    00000F78
   00000001 00000012    1C    00001ED4
   00000001 00000012    1C    00002ECC
   00000001 00000012    1C    00004114
   00000001 00000012    1C    0000A2BC
   00000001 00000013    1C    00000F7C
   00000001 00000013    1C    00001ED8
   00000001 00000013    1C    00002F10
   00000001 00000013    1C    00003B74
   00000001 00000013    1C    00004D54
   00000001 00000013    1C    000054B0
   00000001 00000013    1C    00005F14
   00000001 00000013    1C    00008374
   00000001 00000013    1C    000094D8
   00000001 00000013    1C    0000B038
   00000001 00000013    1C    0000C2D0
   00000001 00000014    1C    00000F88
   00000001 00000014    1C    00004DB4
   00000001 00000014    1C    00005F3C
   00000001 00000014    1C    00008F84
   00000001 00000015    1C    00000F98
   00000001 00000015    1C    00001ED0
   00000001 00000015    1C    00002EF4
   00000001 00000015    1C    00003B68
   00000001 00000016    1C    00000F9C
   00000001 00000016    1C    00004D6C
   00000001 00000017    1C    00000FA0
   00000001 00000018    1C    00001EAC
   00000001 00000018    1C    00002EEC
   00000001 00000018    1C    00003B2C
1ACMD     (ACMD4072) (12:39) (15MAR04) Relocation Dictionary                                                                Page  151
   00000001 00000018    1C    000054C0
   00000001 00000018    1C    00006AEC
   00000001 00000018    1C    000094BC
   00000001 00000018    1C    0000C2E4
   00000001 00000019    1C    00001EC4
   00000001 00000019    1C    00006B10
   00000001 00000019    1C    0000B5C8
   00000001 0000001A    1C    000026D4
   00000001 0000001A    1C    0000B334
   00000001 0000001B    1C    00002EC8
   00000001 0000001B    1C    00003B60
   00000001 0000001B    1C    00004108
   00000001 0000001B    1C    00004D98
   00000001 0000001B    1C    000054A8
   00000001 0000001B    1C    00005F1C
   00000001 0000001B    1C    0000A2B8
   00000001 0000001B    1C    0000B040
   00000001 0000001B    1C    0000B95C
   00000001 0000001B    1C    0000C2C8
   00000001 0000001C    1C    00002EE4
   00000001 0000001C    1C    0000A314
   00000001 0000001D    1C    000032A8
   00000001 0000001D    1C    0000B2E4
   00000001 0000001D    1C    0000B30C
   00000001 0000001E    1C    00003614
   00000001 0000001E    1C    0000B2BC
   00000001 0000001E    1C    0000B384
   00000001 0000001E    1C    0000BCA4
   00000001 0000001E    1C    0000BD6C
   00000001 0000001F    1C    00003B40
   00000001 00000020    1C    00003B6C
   00000001 00000020    1C    00004D9C
   00000001 00000020    1C    000054AC
   00000001 00000020    1C    00005F2C
   00000001 00000020    1C    0000A334
   00000001 00000020    1C    0000C324
   00000001 00000021    1C    00003DF0
   00000001 00000022    1C    000040FC
   00000001 00000023    1C    00004100
   00000001 00000024    1C    00004134
   00000001 00000025    1C    00004854
   00000001 00000025    1C    00004CEC
   00000001 00000026    1C    00004B78
   00000001 00000026    1C    0000B3AC
   00000001 00000026    1C    0000B3D4
   00000001 00000027    1C    00004D60
   00000001 00000027    1C    00005F20
   00000001 00000027    1C    00006B08
   00000001 00000028    1C    00004D64
   00000001 00000028    1C    00005F24
   00000001 00000029    1C    00004D8C
   00000001 0000002A    1C    00004D90
   00000001 0000002A    1C    0000A32C
   00000001 0000002B    1C    00004D94
   00000001 0000002B    1C    0000C318
   00000001 0000002C    1C    00004DA4
   00000001 0000002D    1C    00004DA8
   00000001 0000002E    1C    00004DB8
   00000001 0000002F    1C    00004DC0
1ACMD     (ACMD4072) (12:39) (15MAR04) Relocation Dictionary                                                                Page  152
   00000001 00000030    1C    00004DC8
   00000001 00000031    1C    000054C4
   00000001 00000032    1C    000054E4
   00000001 00000032    1C    0000C2BC
   00000001 00000033    1C    000054F0
   00000001 00000034    1C    00005518
   00000001 00000034    1C    00006B34
   00000001 00000035    1C    00005F10
   00000001 00000035    1C    0000A338
   00000001 00000036    1C    00005F40
   00000001 00000037    1C    00005F48
   00000001 00000037    1C    0000657C
   00000001 00000037    1C    0000C298
   00000001 00000038    1C    00005F54
   00000001 00000038    1C    00006570
   00000001 00000038    1C    00006B20
   00000001 00000038    1C    0000C2C4
   00000001 00000039    1C    00006560
   00000001 00000039    1C    0000B034
   00000001 00000039    1C    0000B950
   00000001 00000039    1C    0000C290
   00000001 0000003A    1C    00006584
   00000001 0000003B    1C    00006B0C
   00000001 0000003C    1C    00006B28
   00000001 0000003D    1C    00006B30
   00000001 0000003E    1C    00007AB4
   00000001 0000003F    1C    000094DC
   00000001 00000040    1C    000094E4
   00000001 00000041    1C    0000A7C0
   00000001 00000042    1C    0000A7E4
   00000001 00000043    1C    0000B054
   00000001 00000044    1C    0000B3FC
   00000001 00000045    1C    0000BAA8
   00000001 00000046    1C    0000BAAC
   00000001 00000047    1C    0000BAB0
   00000001 00000048    1C    0000BAB4
   00000001 00000049    1C    0000BAC0
   00000001 0000004A    1C    0000C2A0

1ACMD     (ACMD4072) (12:39) (15MAR04) Ordinary Symbol and Literal Cross Reference                                          Page  153
-Symbol   Length   Value     Id    R Type   Defn References                                  HLASM R4.0  2004/03/15 12.39
0$$$@R0        1 00000000 FFFFFFFE     J     705  1015
 $$$@R10       1 00000000 FFFFFFF4     J     835  1079
 $$$@R11       1 00000000 FFFFFFF3     J     848  1092
 $$$@R12       1 00000000 FFFFFFF2     J     861  1105
 $$$@R13       1 00000000 FFFFFFF1     J     874  1118
 $$$@R14       1 00000000 FFFFFFF0     J     887  1131
 $$$@R7        1 00000000 FFFFFFF7     J     796  1028
 $$$@R8        1 00000000 FFFFFFF6     J     809  1041   1053
 $$$@R9        1 00000000 FFFFFFF5     J     822  1066
 $$$C1WYLACMD
               1 000008E0 00000001     J   10334 10336  10763
 $$$C10WYLACMD
               1 000065B1 00000001     J   31912 31914
 $$$C11WYLACMD
               1 00006C57 00000001     J   33771 33773
 $$$C12WYLACMD
               1 00007B30 00000001     J   35228 35230  36285  36317
 $$$C13WYLACMD
               1 000083A2 00000001     J   38236 38238  41600
 $$$C14WYLACMD
               1 00008FCC 00000001     J   42403 42405
 $$$C15WYLACMD
               1 000094FC 00000001     J   43540 43542
 $$$C16WYLACMD
               1 0000A683 00000001     J   49020 49022  50344  50561  51610
 $$$C17WYLACMD
               1 0000B192 00000001     J   52399 52401  53062
 $$$C18WYLACMD
               1 0000B5CE 00000001     J   53277 53279  54011  54119
 $$$C19WYLACMD
               1 0000B9C0 00000001     J   54327 54329
 $$$C2WYLACMD
               1 0000111E 00000001     J   12207 12209
 $$$C20WYLACMD
               1 0000BAC7 00000001     J   54612 54614  56237
 $$$C21WYLACMD
               1 0000C40A 00000001     J   56955 56957
 $$$C22WYLACMD
               1 0000C410 00000001     J   56968 56970
 $$$C23WYLACMD
               1 0000C410 00000001     J   56985 56987
 $$$C3WYLACMD
               1 00001F77 00000001     J   15469 15471
 $$$C4WYLACMD
               1 00003067 00000001     J   19493 19495
 $$$C5WYLACMD
               1 00003C1F 00000001     J   22217 22219
 $$$C6WYLACMD
               1 0000417B 00000001     J   23470 23472  25882
 $$$C7WYLACMD
               1 00004ED1 00000001     J   27059 27061  27616
 $$$C8WYLACMD
               1 00005778 00000001     J   28639 28641  29603
 $$$C9WYLACMD
               1 00005FDC 00000001     J   30596 30598  30623
1ACMD     (ACMD4072) (12:39) (15MAR04) Ordinary Symbol and Literal Cross Reference                                          Page  154
 $$$D0WYLACMD
               1 000008D3 00000001     J     991  9864  10217
 $$$D12WYLACMD
               1 0000839A 00000001     J   35229 36274  36306
 $$$D13WYLACMD
               1 00008FC6 00000001     J   38237 41589
 $$$D16WYLACMD
               1 0000B17F 00000001     J   49021 50333  50550  51599
 $$$D18WYLACMD
               1 0000B9BA 00000001     J   53278 54108
 $$$D20WYLACMD
               1 0000C403 00000001     J   54613 56226
 $$$RCP        1 00000000 FFFFFFEC     J    2456  4716   6190   6190
 $$$RCV        1 00000000 FFFFFFEE     J    1181  2366   2366
 $$$RDEV       1 00000000 FFFFFFEB     J    4670  4715   4715
 $$$RGETCWA
               1 00000000 FFFFFFDB     J   53048 53061  53061
 $$$RJCB       1 00000000 FFFFFFE7     J    7259  7533   7533
 $$$RKEYWA
               1 00000000 FFFFFFDE     J   27601 27615  27615
 $$$RKLGCMPWA
               1 00000000 FFFFFFDA     J   53996 54010  54010
 $$$RKRBREC
               1 00000000 FFFFFFE2     J    7736  7756   7756
 $$$RNSCNCB
               1 00000000 FFFFFFED     J    2377  2450   2450
 $$$RPRIVWA
               1 00000000 FFFFFFDC     J   30604 30622  30622
 $$$RSETWWA
               1 00000000 FFFFFFE0     J   10748 10762  10762
 $$$RSMFACCT
               1 00000000 FFFFFFE4     J    7639  7680   7680
 $$$RSMFHDR
               1 00000000 FFFFFFE5     J    7595  7633   7633
 $$$RSMFKWR
               1 00000000 FFFFFFE3     J    7686  7724   7724
 $$$RSMFWA
               1 00000000 FFFFFFDD     J   29589 29602  29602
 $$$RTTYPE
               1 00000000 FFFFFFEA     J    6201  6302   6302
 $$$RUCE       1 00000000 FFFFFFE6     J    7539  7589   7589
 $$$RWA        1 00000000 FFFFFFE1     J    7767  8030   8030
 $$$RWCWA      1 00000000 FFFFFFDF     J   25864 25881  25881
 $$$SEGCB0
               4 00000050 FFFFFFEC     F    2487  2573   2573
 $$$100E       2 000005E8 00000001     H    9563  9555   9557
 $$$100F       2 000005F4 00000001     H    9570  9559B
 $$$1001B      1 00008752 00000001     X   39494 39501U
 $$$1002F      2 00008766 00000001     H   39535 39526B
 $$$1003F      2 0000877C 00000001     H   39559 39550B
 $$$1004F      2 0000878E 00000001     H   39584 39569B
 $$$1005       1 00000050 00000001 A   U   39613 39610  39612
 $$$1007B      1 000087C6 00000001     X   39640 39647U
 $$$1009       1 00000050 00000001 A   U   39684 39681  39683
 $$$101B       4 00000604 00000001     I    9615  9698
 $$$101E       2 000005F8 00000001     H    9589  9581   9583
 $$$101F       2 0000063A 00000001     H    9690  9585B  9602B  9615B  9695
 $$$1011B      1 000087F6 00000001     X   39711 39718U
 $$$1013       1 00000050 00000001 A   U   39756 39753  39755
1ACMD     (ACMD4072) (12:39) (15MAR04) Ordinary Symbol and Literal Cross Reference                                          Page  155
 $$$1015B      1 00008826 00000001     X   39783 39790U
 $$$1017       1 00000050 00000001 A   U   39827 39824  39826
 $$$1019B      1 00008856 00000001     X   39854 39861U
 $$$1021       1 00000050 00000001 A   U   39899 39896  39898
 $$$1023B      1 00008886 00000001     X   39926 39933U
 $$$1025       1 00000050 00000001 A   U   39971 39968  39970
 $$$1027B      1 000088B6 00000001     X   39998 40005U
 $$$1029       1 00000050 00000001 A   U   40042 40039  40041
 $$$103B       4 000005FC 00000001     I    9602  9696
 $$$1031B      1 000088E6 00000001     X   40069 40076U
 $$$1032B      4 000088F8 00000001     I   40108 40139
 $$$1032F      2 0000890C 00000001     H   40135 40108B 40138
 $$$1034E      2 00008910 00000001     H   40146 40140
 $$$1034F      2 00008936 00000001     H   40187 40142B
 $$$1035F      2 00008926 00000001     H   40175 40165B
 $$$1036       1 00000050 00000001 A   U   40209 40206  40208
 $$$1038B      1 00008960 00000001     X   40236 40243U
 $$$104B       4 00000620 00000001     I    9652  9672
 $$$104F       2 0000062A 00000001     H    9667  9638B  9652B  9669
 $$$1040       1 00000050 00000001 A   U   40280 40277  40279
 $$$1042B      1 00008990 00000001     X   40307 40314U
 $$$1044       1 00000050 00000001 A   U   40352 40349  40351
 $$$1046B      1 000089C0 00000001     X   40379 40386U
 $$$1048       1 00000050 00000001 A   U   40423 40420  40422
 $$$105B       4 00000616 00000001     I    9638  9670
 $$$1050B      1 000089F0 00000001     X   40450 40457U
 $$$1052       1 00000050 00000001 A   U   40495 40492  40494
 $$$1054B      1 00008A20 00000001     X   40522 40529U
 $$$1056       1 00000050 00000001 A   U   40567 40564  40566
 $$$1058B      1 00008A50 00000001     X   40594 40601U
 $$$106E       2 0000062E 00000001     H    9679  9671   9673
 $$$106F       2 0000063A 00000001     H    9686  9675B
 $$$1060       1 00000050 00000001 A   U   40638 40635  40637
 $$$1062B      1 00008A80 00000001     X   40665 40672U
 $$$1064       1 00000050 00000001 A   U   40709 40706  40708
 $$$1066B      1 00008AB0 00000001     X   40736 40743U
 $$$1068       1 00000050 00000001 A   U   40781 40778  40780
 $$$107B       4 0000064A 00000001     I    9731  9813
 $$$107E       2 0000063E 00000001     H    9705  9697   9699
 $$$107F       2 00000680 00000001     H    9806  9701B  9718B  9731B  9810
 $$$1070B      1 00008AE0 00000001     X   40808 40815U
 $$$1072       1 00000050 00000001 A   U   40855 40852  40854
 $$$1074B      1 00008B10 00000001     X   40882 40889U
 $$$1076       1 00000050 00000001 A   U   40926 40923  40925
 $$$1078B      1 00008B40 00000001     X   40953 40960U
 $$$1080       1 00000050 00000001 A   U   41000 40997  40999
 $$$1082B      1 00008B70 00000001     X   41027 41034U
 $$$1084       1 00000050 00000001 A   U   41071 41068  41070
 $$$1086B      1 00008BA0 00000001     X   41098 41105U
 $$$1087       1 00000050 00000001 A   U   41138 41135  41137
 $$$1089B      1 00008BD2 00000001     X   41165 41172U
 $$$109B       4 00000642 00000001     I    9718  9811
 $$$1090F      2 00008BE6 00000001     H   41206 41197B
 $$$1091F      2 00008BF8 00000001     H   41229 41220B
 $$$1092F      2 00008C04 00000001     H   41252 41242B
 $$$1093       1 00000050 00000001 A   U   41275 41272  41274
 $$$1095B      1 00008C32 00000001     X   41302 41309U
 $$$1096F      2 00008C4C 00000001     H   41347 41338B
 $$$1097F      2 00008C58 00000001     H   41370 41360B
1ACMD     (ACMD4072) (12:39) (15MAR04) Ordinary Symbol and Literal Cross Reference                                          Page  156
 $$$1098       1 00000050 00000001 A   U   41393 41390  41392
 $$$110B       4 00000666 00000001     I    9768  9788
 $$$110F       2 00000670 00000001     H    9783  9754B  9768B  9785
 $$$1100B      1 00008C86 00000001     X   41420 41427U
 $$$1101F      2 00008C9A 00000001     H   41465 41452B
 $$$1102F      2 00008CE8 00000001     H   41566 41487B 41520B
 $$$1103F      2 00008CC0 00000001     H   41523 41504B
 $$$1105F      2 00008CF4 00000001     H   41605 41581B
 $$$1106       6 00008FC6 00000001     I   41595 41587X
 $$$1107       6 00008FC6 00000001     I   41594 41595  41595
 $$$1108       1 00000050 00000001 A   U   41643 41640  41642
 $$$111B       4 0000065C 00000001     I    9754  9786
 $$$1110B      1 00008D36 00000001     X   41670 41677U
 $$$1111F      2 00008D44 00000001     H   41711 41698B
 $$$1112       1 00000050 00000001 A   U   41744 41741  41743
 $$$1114B      1 00008D80 00000001     X   41771 41778U
 $$$1115       1 00000050 00000001 A   U   41817 41814  41816
 $$$1117B      1 00008DB2 00000001     X   41844 41851U
 $$$1118F      2 00008DC0 00000001     H   41885 41872B
 $$$1119F      2 00008DE6 00000001     H   41935 41925B
 $$$112E       2 00000674 00000001     H    9795  9787   9789
 $$$112F       2 00000680 00000001     H    9802  9791B
 $$$1120       1 00000050 00000001 A   U   41957 41954  41956
 $$$1122B      1 00008E10 00000001     X   41984 41991U
 $$$1123       1 00000050 00000001 A   U   42030 42027  42029
 $$$1125B      1 00008E42 00000001     X   42057 42064U
 $$$1126F      2 00008E50 00000001     H   42098 42085B
 $$$1127       1 00000050 00000001 A   U   42147 42144  42146
 $$$1129B      1 00008E90 00000001     X   42174 42181U
 $$$113E       2 00000684 00000001     H    9820  9812   9814
 $$$113F       2 000006A4 00000001     H    9884  9816B
 $$$1130       1 00000050 00000001 A   U   42220 42217  42219
 $$$1132B      1 00008EC2 00000001     X   42247 42254U
 $$$1133       1 00000050 00000001 A   U   42290 42287  42289
 $$$1135B      1 00008EF2 00000001     X   42317 42324U
 $$$1136       1 00000050 00000001 A   U   42356 42353  42355
 $$$1138B      1 000091DE 00000001     X   42639 42646U
 $$$1139F      2 00009216 00000001     H   42727 42710B
 $$$114F       2 00000698 00000001     H    9842  9833B
 $$$1140F      2 0000927A 00000001     H   42913 42744B 42880B
 $$$1141F      2 0000922E 00000001     H   42777 42764B
 $$$1142F      2 0000926C 00000001     H   42883 42864B
 $$$1143T      2 00009264 00000001     H   42869 42796B 42810B 42824B 42838B 42852B
 $$$1149F      2 0000927A 00000001     H   42909 42896B
 $$$115F       2 000006A4 00000001     H    9880  9856B
 $$$1150F      2 000092A8 00000001     H   42997 42945B 42964B 42984B
 $$$1150T      2 0000928E 00000001     H   42948 42933B
 $$$1154F      2 000092C0 00000001     H   43041 43011B
 $$$1155F      2 000092C0 00000001     H   43037 43024B
 $$$1156F      2 000093D8 00000001     H   43338 43091B
 $$$1157S      2 0000937A 00000001     H   43196 43328B
 $$$1158F      2 000093BE 00000001     H   43307 43298B
 $$$116        6 000008D4 00000001     I    9870  9862X
 $$$1161       1 00000300 00000001 A   U   43383 43380  43382
 $$$1163B      1 0000949E 00000001     X   43458 43465U
 $$$1164       1 00000050 00000001 A   U   43497 43494  43496
 $$$1166B      1 00009516 00000001     X   43576 43583U
 $$$1167F      2 00009592 00000001     H   43774 43702B
 $$$1168F      2 000095D2 00000001     H   43859 43786B
1ACMD     (ACMD4072) (12:39) (15MAR04) Ordinary Symbol and Literal Cross Reference                                          Page  157
 $$$1169F      2 000095EE 00000001     H   43899 43872B
 $$$117        6 000008D4 00000001     I    9869  9870   9870
 $$$1170F      2 00009618 00000001     H   43972 43911B
 $$$1172F      2 0000960E 00000001     H   43944 43931B
 $$$1174F      2 00009632 00000001     H   44011 43984B
 $$$1176F      2 0000964C 00000001     H   44050 44023B
 $$$1178F      2 00009666 00000001     H   44089 44062B
 $$$118        1 00000050 00000001 A   U    9907  9904   9906
 $$$1180F      2 000096D6 00000001     H   44264 44100B
 $$$1181F      2 00009688 00000001     H   44143 44116B
 $$$1183F      2 000096A2 00000001     H   44182 44155B
 $$$1185F      2 000096BC 00000001     H   44221 44194B
 $$$1187F      2 000096D6 00000001     H   44260 44233B
 $$$1189F      2 000096F0 00000001     H   44303 44276B
 $$$1194F      2 00009738 00000001     H   44435 44379B
 $$$1196F      2 000097A2 00000001     H   44575 44528B 44543B
 $$$1198F      2 000097DA 00000001     H   44656 44643B
 $$$1198T      2 000097D2 00000001     H   44646 44631B
 $$$120B       1 000006CE 00000001     X    9934  9941U
 $$$1200F      2 00009806 00000001     H   44745 44694B 44708B
 $$$1202F      2 00009818 00000001     H   44776 44763B
 $$$1203F      2 00009828 00000001     H   44802 44789B
 $$$1204F      2 00009838 00000001     H   44828 44815B
 $$$1205F      2 00009848 00000001     H   44854 44841B
 $$$1206F      2 00009858 00000001     H   44880 44867B
 $$$1207F      2 00009868 00000001     H   44906 44893B
 $$$1208F      2 00009878 00000001     H   44932 44919B
 $$$1209F      2 00009888 00000001     H   44958 44945B
 $$$121        1 00000050 00000001 A   U    9974  9971   9973
 $$$1210F      2 00009898 00000001     H   44984 44971B
 $$$1211F      2 000098A8 00000001     H   45010 44997B
 $$$1212F      2 000098B8 00000001     H   45036 45023B
 $$$1213F      2 000098C8 00000001     H   45062 45049B
 $$$1214F      2 000098DA 00000001     H   45088 45075B
 $$$1215F      2 00009996 00000001     H   45398 45128B 45142B
 $$$1217B      4 000098F6 00000001     I   45156 45186
 $$$1217F      2 00009910 00000001     H   45183 45156B 45185
 $$$1218E      2 00009914 00000001     H   45193 45187
 $$$1218F      2 00009926 00000001     H   45216 45189B
 $$$1219F      2 0000995C 00000001     H   45292 45279B
 $$$1220F      2 0000996C 00000001     H   45318 45305B
 $$$1221F      2 0000997C 00000001     H   45344 45331B
 $$$1222F      2 0000998C 00000001     H   45370 45357B
 $$$1223F      2 000099A8 00000001     H   45443 45409B
 $$$1224B      4 000099C0 00000001     I   45491 45521
 $$$1224F      2 000099D6 00000001     H   45518 45491B 45520
 $$$1225E      2 000099DA 00000001     H   45528 45522
 $$$1225F      2 000099E0 00000001     H   45538 45524B
 $$$1226F      2 00009A4A 00000001     H   45654 45568B
 $$$1227F      2 00009A96 00000001     H   45743 45691B
 $$$1228F      2 00009ADC 00000001     H   45845 45779B
 $$$1229F      2 00009AFC 00000001     H   45908 45861B 45876B
 $$$123B       1 000006FC 00000001     X   10001 10008U
 $$$1231F      2 00009B44 00000001     H   46019 45937B
 $$$1232F      2 00009B84 00000001     H   46113 46031B
 $$$1233F      2 00009BBC 00000001     H   46203 46125B
 $$$1234F      2 00009BDC 00000001     H   46265 46218B 46233B
 $$$1236F      2 00009C1A 00000001     H   46353 46313B
 $$$1237F      2 00009C3C 00000001     H   46407 46394B
1ACMD     (ACMD4072) (12:39) (15MAR04) Ordinary Symbol and Literal Cross Reference                                          Page  158
 $$$1239B      4 00009C4C 00000001     I   46445 46502
 $$$1239F      2 00009C74 00000001     H   46499 46445B 46501
 $$$1240E      2 00009C78 00000001     H   46509 46503
 $$$1240F      2 00009C8A 00000001     H   46533 46505B
 $$$1241F      2 00009CB8 00000001     H   46600 46546B
 $$$1242F      2 00009CD8 00000001     H   46662 46615B 46630B
 $$$1244F      2 00009DFC 00000001     H   47045 46692B
 $$$1245F      2 00009D9E 00000001     H   46929 46855B
 $$$1246F      2 00009DE2 00000001     H   47019 46945B
 $$$1247F      2 00009E1C 00000001     H   47107 47060B 47075B
 $$$1249F      2 00009E7C 00000001     H   47240 47124B
 $$$125        1 00000050 00000001 A   U   10041 10038  10040
 $$$1250F      2 00009EC6 00000001     H   47351 47252B
 $$$1251F      2 00009F08 00000001     H   47458 47363B
 $$$1252F      2 00009F28 00000001     H   47520 47473B 47488B
 $$$1254F      2 00009FB2 00000001     H   47714 47660B
 $$$1256F      2 00009FDE 00000001     H   47781 47727B
 $$$1258F      2 0000A00A 00000001     H   47848 47794B
 $$$1260F      2 0000A036 00000001     H   47915 47861B
 $$$1262F      2 0000A062 00000001     H   47982 47928B
 $$$1264F      2 0000A08E 00000001     H   48048 47994B
 $$$1266F      2 0000A0AE 00000001     H   48110 48063B 48078B
 $$$1268F      2 0000A0E2 00000001     H   48193 48139B
 $$$127B       1 00000728 00000001     X   10068 10075U
 $$$1270F      2 0000A144 00000001     H   48357 48208B
 $$$1273F      2 0000A11E 00000001     H   48283 48270B
 $$$1275F      2 0000A128 00000001     H   48311 48298B
 $$$1278F      2 0000A164 00000001     H   48419 48372B 48387B
 $$$1280F      2 0000A1E6 00000001     H   48640 48450B
 $$$1281B      4 0000A186 00000001     I   48483 48559
 $$$1281F      2 0000A1B6 00000001     H   48556 48483B 48501B 48558
 $$$1285E      2 0000A1BA 00000001     H   48566 48560
 $$$1285F      2 0000A1E6 00000001     H   48636 48562B 48581B
 $$$1288F      2 0000A206 00000001     H   48702 48655B 48670B
 $$$129        1 00000050 00000001 A   U   10109 10106  10108
 $$$1290B      4 0000A21C 00000001     I   48731 48779
 $$$1290F      2 0000A23C 00000001     H   48776 48731B 48778
 $$$1291E      2 0000A240 00000001     H   48786 48780
 $$$1291F      2 0000A252 00000001     H   48810 48782B
 $$$1292F      2 0000A272 00000001     H   48872 48825B 48840B
 $$$1294       1 00000050 00000001 A   U   48892 48889  48891
 $$$1296B      1 0000A69E 00000001     X   49065 49072U
 $$$1297F      2 0000A748 00000001     H   49215 49151B
 $$$1298F      2 0000A740 00000001     H   49202 49170B
 $$$1299F      2 0000A740 00000001     H   49198 49185B
 $$$1300F      2 0000A766 00000001     H   49250 49233B
 $$$1301F      2 0000A776 00000001     H   49272 49262B
 $$$1302       1 00000050 00000001 A   U   49298 49295  49297
 $$$1304B      1 0000A82E 00000001     X   49372 49379U
 $$$1305       1 00000050 00000001 A   U   49406 49403  49405
 $$$1307B      1 0000A85A 00000001     X   49433 49440U
 $$$1308       1 00000050 00000001 A   U   49467 49464  49466
 $$$131B       1 00000754 00000001     X   10136 10143U
 $$$1310B      1 0000A886 00000001     X   49498 49505U
 $$$1311F      2 0000A8D4 00000001     H   49617 49542B
 $$$1313F      2 0000A8B2 00000001     H   49573 49558B
 $$$1315F      2 0000A8D0 00000001     H   49612 49585B
 $$$1317       1 00000050 00000001 A   U   49635 49632  49634
 $$$1319B      1 0000A8FC 00000001     X   49667 49674U
1ACMD     (ACMD4072) (12:39) (15MAR04) Ordinary Symbol and Literal Cross Reference                                          Page  159
 $$$132F       2 00000764 00000001     H   10174 10162B
 $$$1320F      2 0000A958 00000001     H   49813 49713B
 $$$1320T      2 0000A910 00000001     H   49716 49700B
 $$$1322       1 00000050 00000001 A   U   49831 49828  49830
 $$$1324B      1 0000A980 00000001     X   49861 49868U
 $$$1325       1 00000050 00000001 A   U   49994 49991  49993
 $$$1327B      1 0000AA02 00000001     X   50023 50030U
 $$$1328       1 00000050 00000001 A   U   50155 50152  50154
 $$$133F       2 00000778 00000001     H   10195 10186B
 $$$1330B      1 0000AA7E 00000001     X   50185 50192U
 $$$1331F      2 0000AAA2 00000001     H   50256 50217B
 $$$1332B      4 0000AAA2 00000001     I   50263 50282
 $$$1332F      2 0000AAAC 00000001     H   50279 50263B 50281
 $$$1333E      2 0000AAB0 00000001     H   50289 50283
 $$$1333F      2 0000AAD0 00000001     H   50353 50285B
 $$$1334F      2 0000AAC4 00000001     H   50311 50302B
 $$$1335F      2 0000AAD0 00000001     H   50349 50325B
 $$$1336       6 0000B180 00000001     I   50339 50331X
 $$$1337       6 0000B180 00000001     I   50338 50339  50339
 $$$1338       1 00000050 00000001 A   U   50375 50372  50374
 $$$134F       2 00000784 00000001     H   10233 10209B
 $$$1340B      1 0000AAFA 00000001     X   50402 50409U
 $$$1341F      2 0000AB1E 00000001     H   50473 50434B
 $$$1342B      4 0000AB1E 00000001     I   50480 50499
 $$$1342F      2 0000AB28 00000001     H   50496 50480B 50498
 $$$1343E      2 0000AB2C 00000001     H   50506 50500
 $$$1343F      2 0000AB4C 00000001     H   50570 50502B
 $$$1344F      2 0000AB40 00000001     H   50528 50519B
 $$$1345F      2 0000AB4C 00000001     H   50566 50542B
 $$$1346       6 0000B186 00000001     I   50556 50548X
 $$$1347       6 0000B186 00000001     I   50555 50556  50556
 $$$1348       1 00000050 00000001 A   U   50592 50589  50591
 $$$135        6 000008DA 00000001     I   10223 10215X
 $$$1350B      1 0000AB76 00000001     X   50619 50626U
 $$$1351F      2 0000AB8C 00000001     H   50674 50661B
 $$$1351T      2 0000AB86 00000001     H   50664 50650B
 $$$1353       1 00000050 00000001 A   U   50708 50705  50707
 $$$1355B      1 0000ABD0 00000001     X   50735 50742U
 $$$1356F      2 0000ABE6 00000001     H   50790 50777B
 $$$1356T      2 0000ABE0 00000001     H   50780 50766B
 $$$1358F      2 0000AC20 00000001     H   50847 50814B
 $$$1359       1 00000050 00000001 A   U   50869 50866  50868
 $$$136        6 000008DA 00000001     I   10222 10223  10223
 $$$1361B      1 0000AC4A 00000001     X   50896 50903U
 $$$1362F      2 0000AC60 00000001     H   50951 50938B
 $$$1362T      2 0000AC5A 00000001     H   50941 50927B
 $$$1364       1 00000050 00000001 A   U   50984 50981  50983
 $$$1366B      1 0000AC9C 00000001     X   51011 51018U
 $$$1367       1 00000050 00000001 A   U   51057 51054  51056
 $$$1369B      1 0000ACCE 00000001     X   51084 51091U
 $$$137F       2 00000794 00000001     H   10263 10247B
 $$$1370F      2 0000ACE4 00000001     H   51139 51126B
 $$$1370T      2 0000ACDE 00000001     H   51129 51115B
 $$$1372       1 00000050 00000001 A   U   51172 51169  51171
 $$$1374B      1 0000AD20 00000001     X   51199 51206U
 $$$1375F      2 0000AD36 00000001     H   51254 51241B
 $$$1375T      2 0000AD30 00000001     H   51244 51230B
 $$$1377F      2 0000AD58 00000001     H   51294 51278B
 $$$1378       1 00000050 00000001 A   U   51316 51313  51315
1ACMD     (ACMD4072) (12:39) (15MAR04) Ordinary Symbol and Literal Cross Reference                                          Page  160
 $$$138        1 00000050 00000001 A   U   10285 10282  10284
 $$$1380B      1 0000AD82 00000001     X   51343 51350U
 $$$1381       1 00000050 00000001 A   U   51389 51386  51388
 $$$1383B      1 0000ADB4 00000001     X   51416 51423U
 $$$1384F      2 0000ADCA 00000001     H   51471 51458B
 $$$1384T      2 0000ADC4 00000001     H   51461 51447B
 $$$1386       1 00000050 00000001 A   U   51504 51501  51503
 $$$1388B      1 0000AE06 00000001     X   51531 51538U
 $$$1389F      2 0000AE24 00000001     H   51577 51568B
 $$$1390F      2 0000AE30 00000001     H   51615 51591B
 $$$1391       6 0000B18C 00000001     I   51605 51597X
 $$$1392       6 0000B18C 00000001     I   51604 51605  51605
 $$$1393       1 00000050 00000001 A   U   51637 51634  51636
 $$$1395B      1 0000AE5A 00000001     X   51664 51671U
 $$$1396       1 00000050 00000001 A   U   51710 51707  51709
 $$$1398B      1 0000AE8C 00000001     X   51737 51744U
 $$$140B       1 000008FA 00000001     X   10372 10379U
 $$$1401       1 00000050 00000001 A   U   51789 51786  51788
 $$$1403B      1 0000AEC0 00000001     X   51816 51823U
 $$$1406       1 00000050 00000001 A   U   51863 51860  51862
 $$$1408B      1 0000AEF0 00000001     X   51890 51897U
 $$$141F       2 00000938 00000001     H   10477 10413B
 $$$1411       1 00000050 00000001 A   U   51938 51935  51937
 $$$1413B      1 0000AF20 00000001     X   51985 51992U
 $$$1414B      4 0000AF26 00000001     I   52016 52046
 $$$1414F      2 0000AF3C 00000001     H   52042 52016B 52045
 $$$1415E      2 0000AF40 00000001     H   52053 52047
 $$$1415F      2 0000AFF6 00000001     H   52331 52049B
 $$$1416F      2 0000AF5A 00000001     H   52093 52066B
 $$$1418F      2 0000AF74 00000001     H   52132 52105B
 $$$1420F      2 0000AF8E 00000001     H   52171 52144B
 $$$1422F      2 0000AFA8 00000001     H   52210 52183B
 $$$1424F      2 0000AFC2 00000001     H   52249 52222B
 $$$1426F      2 0000AFDC 00000001     H   52288 52261B
 $$$1428F      2 0000AFF6 00000001     H   52327 52300B
 $$$143F       2 00000938 00000001     H   10473 10433B
 $$$1430       1 00000050 00000001 A   U   52349 52346  52348
 $$$1432B      1 0000B1AC 00000001     X   52443 52450U
 $$$1433       1 00000050 00000001 A   U   52515 52512  52514
 $$$1435B      1 0000B230 00000001     X   52545 52552U
 $$$1436       1 00000050 00000001 A   U   52617 52614  52616
 $$$1438B      1 0000B446 00000001     X   52798 52805U
 $$$1439       1 00000050 00000001 A   U   52838 52835  52837
 $$$144F       2 0000097C 00000001     H   10593 10514B
 $$$1441B      1 0000B47A 00000001     X   52865 52872U
 $$$1442       1 00000050 00000001 A   U   52902 52899  52901
 $$$1444B      1 0000B4AC 00000001     X   52929 52936U
 $$$1445       1 00000050 00000001 A   U   52966 52963  52965
 $$$1447B      1 0000B4DE 00000001     X   52993 53000U
 $$$1448       1 00000050 00000001 A   U   53030 53027  53029
 $$$145F       2 00000996 00000001     H   10633 10606B
 $$$1450B      1 0000B510 00000001     X   53091 53098U
 $$$1451B      4 0000B574 00000001     I   53171 53183
 $$$1451F      2 0000B57A 00000001     H   53180 53171B 53182
 $$$1452E      2 0000B57E 00000001     H   53190 53184
 $$$1452F      2 0000B596 00000001     H   53236 53186B
 $$$1453F      2 0000B596 00000001     H   53231 53213B
 $$$1454       1 00000100 00000001 A   U   53259 53256  53258
 $$$1456B      1 0000B5E8 00000001     X   53320 53327U
1ACMD     (ACMD4072) (12:39) (15MAR04) Ordinary Symbol and Literal Cross Reference                                          Page  161
 $$$1457F      2 0000B624 00000001     H   53405 53371B
 $$$1459F      2 0000B68E 00000001     H   53545 53417B
 $$$1462F      2 0000B75E 00000001     H   53948 53556B 53593B 53665B
 $$$1463F      2 0000B6A8 00000001     H   53596 53576B
 $$$1466F      2 0000B6CC 00000001     H   53668 53633B 53648B
 $$$147        1 00000050 00000001 A   U   10715 10712  10714
 $$$1470F      2 0000B744 00000001     H   53910 53681B 53722B 53753B 53793B
 $$$1473F      2 0000B6F4 00000001     H   53756 53741B
 $$$1477F      2 0000B744 00000001     H   53904 53885B
 $$$1478T      2 0000B73C 00000001     H   53890 53817B 53831B 53845B 53859B 53873B
 $$$1484F      2 0000B752 00000001     H   53938 53928B
 $$$1485       1 00000050 00000001 A   U   53968 53965  53967
 $$$1487B      1 0000B786 00000001     X   54040 54047U
 $$$1488F      2 0000B79A 00000001     H   54085 54076B
 $$$1489F      2 0000B7AA 00000001     H   54124 54100B
 $$$149B       1 000009F2 00000001     X   10792 10799U
 $$$1490       6 0000B9BA 00000001     I   54114 54106X
 $$$1491       6 0000B9BA 00000001     I   54113 54114  54114
 $$$1492F      2 0000B800 00000001     H   54222 54137B
 $$$1493F      2 0000B7E2 00000001     H   54193 54155B
 $$$1494F      2 0000B7E2 00000001     H   54189 54176B
 $$$1495F      2 0000B800 00000001     H   54218 54207B
 $$$1496B      4 0000B806 00000001     I   54237 54253
 $$$1496F      2 0000B80C 00000001     H   54250 54237B 54252
 $$$1497E      2 0000B810 00000001     H   54260 54254
 $$$1497F      2 0000B814 00000001     H   54267 54256B
 $$$1498       1 000000D4 00000001 A   U   54293 54290  54292
 $$$150B       4 00000A52 00000001     I   10882 10896
 $$$150F       2 00000A5C 00000001     H   10892 10882B 10895
 $$$1500B      1 0000B9DA 00000001     X   54374 54381U
 $$$1501F      2 0000BA44 00000001     H   54459 54437B
 $$$1502F      2 0000BA58 00000001     H   54487 54473B
 $$$1503F      2 0000BA94 00000001     H   54568 54531B
 $$$1503S      2 0000BA6C 00000001     H   54524 54567B
 $$$1506       1 00000050 00000001 A   U   54593 54590  54592
 $$$1508B      1 0000BAE2 00000001     X   54663 54670U
 $$$1509F      2 0000BAFE 00000001     H   54705 54694B
 $$$151E       2 00000A60 00000001     H   10903 10897
 $$$151F       2 00000B92 00000001     H   11344 10899B
 $$$1510F      2 0000BB1E 00000001     H   54750 54733B
 $$$1511F      2 0000BB3A 00000001     H   54792 54766B
 $$$1512F      2 0000BB64 00000001     H   54868 54815B
 $$$1513B      4 0000BB8C 00000001     I   54943 54993
 $$$1513F      2 0000BBE8 00000001     H   54988 54932B 54943B 54990
 $$$1514B      4 0000BB86 00000001     I   54932 54991
 $$$1515E      2 0000BBEC 00000001     H   55000 54992  54994
 $$$1515F      2 0000BC44 00000001     H   55042 54996B
 $$$1516F      2 0000BC4E 00000001     H   55062 55052B
 $$$1518B      4 0000BC5A 00000001     I   55095 55110
 $$$1518F      2 0000BC60 00000001     H   55107 55095B 55109
 $$$1519E      2 0000BC64 00000001     H   55117 55111
 $$$1519F      2 0000BC68 00000001     H   55123 55113B
 $$$152F       2 00000A82 00000001     H   10949 10940B
 $$$1520       1 00000050 00000001 A   U   55150 55147  55149
 $$$1522B      1 0000BDB6 00000001     X   55285 55292U
 $$$1523       1 00000050 00000001 A   U   55319 55316  55318
 $$$1525B      1 0000BDE2 00000001     X   55346 55353U
 $$$1526       1 00000050 00000001 A   U   55380 55377  55379
 $$$1528B      1 0000BE0E 00000001     X   55407 55414U
1ACMD     (ACMD4072) (12:39) (15MAR04) Ordinary Symbol and Literal Cross Reference                                          Page  162
 $$$1529F      2 0000BE5A 00000001     H   55505 55486B
 $$$153F       2 00000A92 00000001     H   10972 10963B
 $$$1530       1 00000050 00000001 A   U   55524 55521  55523
 $$$1532B      1 0000BE86 00000001     X   55553 55560U
 $$$1533B      4 0000BE8A 00000001     I   55579 55600
 $$$1533F      2 0000BE9C 00000001     H   55596 55579B 55599
 $$$1534E      2 0000BEA0 00000001     H   55607 55601
 $$$1534F      2 0000BF18 00000001     H   55747 55603B
 $$$1535F      2 0000BF02 00000001     H   55724 55616B
 $$$1536       1 00000050 00000001 A   U   55766 55763  55765
 $$$1538B      1 0000BF40 00000001     X   55812 55819U
 $$$1539F      2 0000BF78 00000001     H   55909 55856B
 $$$154F       2 00000AA2 00000001     H   10995 10986B
 $$$1540F      2 0000BF8C 00000001     H   55954 55937B
 $$$1541F      2 0000C008 00000001     H   56051 56024B
 $$$1543F      2 0000C044 00000001     H   56141 56114B
 $$$1543T      2 0000C02E 00000001     H   56117 56090B 56103B
 $$$1546F      2 0000C06A 00000001     H   56196 56156B 56169B
 $$$1548F      2 0000C082 00000001     H   56219 56210B
 $$$1549       6 0000C404 00000001     I   56232 56224X
 $$$155F       2 00000AB2 00000001     H   11018 11009B
 $$$1550       6 0000C404 00000001     I   56231 56232  56232
 $$$1551       1 00000050 00000001 A   U   56267 56264  56266
 $$$1553B      1 0000C0F8 00000001     X   56311 56318U
 $$$1554F      2 0000C112 00000001     H   56358 56342B
 $$$1555F      2 0000C136 00000001     H   56391 56378B
 $$$1556F      2 0000C196 00000001     H   56542 56404B
 $$$1557F      2 0000C18A 00000001     H   56507 56481B
 $$$1558       1 00000050 00000001 A   U   56560 56557  56559
 $$$156F       2 00000AC2 00000001     H   11041 11032B
 $$$1560B      1 0000C1BE 00000001     X   56594 56601U
 $$$1561F      2 0000C1D0 00000001     H   56639 56627B
 $$$1562       1 00000050 00000001 A   U   56724 56721  56723
 $$$1564B      1 0000C226 00000001     X   56758 56765U
 $$$1565F      2 0000C248 00000001     H   56815 56787B
 $$$1566       1 00000050 00000001 A   U   56895 56892  56894
 $$$157F       2 00000AD2 00000001     H   11064 11055B
 $$$158F       2 00000AE2 00000001     H   11087 11078B
 $$$159F       2 00000AF2 00000001     H   11110 11101B
 $$$160F       2 00000B02 00000001     H   11133 11124B
 $$$161F       2 00000B12 00000001     H   11156 11147B
 $$$162F       2 00000B22 00000001     H   11179 11170B
 $$$163F       2 00000B32 00000001     H   11202 11193B
 $$$164F       2 00000B42 00000001     H   11225 11216B
 $$$165F       2 00000B52 00000001     H   11248 11239B
 $$$166F       2 00000B62 00000001     H   11271 11262B
 $$$167F       2 00000B72 00000001     H   11294 11285B
 $$$168F       2 00000B82 00000001     H   11317 11308B
 $$$169F       2 00000B92 00000001     H   11340 11331B
 $$$170F       2 00000BF8 00000001     H   11417 11407B
 $$$173F       2 00000C04 00000001     H   11438 11428B
 $$$174F       2 00000C0E 00000001     H   11467 11454B
 $$$175F       2 00000C26 00000001     H   11511 11485B
 $$$176F       2 00000C26 00000001     H   11507 11497B
 $$$177F       2 00000C3E 00000001     H   11551 11525B
 $$$178F       2 00000C3E 00000001     H   11547 11537B
 $$$179F       2 00000C56 00000001     H   11591 11565B
 $$$180F       2 00000C56 00000001     H   11587 11577B
 $$$181F       2 00000C6E 00000001     H   11631 11605B
1ACMD     (ACMD4072) (12:39) (15MAR04) Ordinary Symbol and Literal Cross Reference                                          Page  163
 $$$182F       2 00000C6E 00000001     H   11627 11617B
 $$$183F       2 00000C86 00000001     H   11671 11645B
 $$$184F       2 00000C86 00000001     H   11667 11657B
 $$$185F       2 00000C9A 00000001     H   11711 11682B 11701B
 $$$187        1 00000068 00000001 A   U   11738 11735  11737
 $$$189B       1 00000D1E 00000001     X   11799 11806U
 $$$190        1 00000050 00000001 A   U   11853 11850  11852
 $$$192B       1 00000D58 00000001     X   11893 11900U
 $$$193B       4 00000D64 00000001     I   11925 11955
 $$$193F       2 00000D7A 00000001     H   11951 11925B 11954
 $$$194E       2 00000D7E 00000001     H   11962 11956
 $$$194F       2 00000DA2 00000001     H   12013 11958B
 $$$195        1 00000050 00000001 A   U   12034 12031  12033
 $$$197B       1 00000DCE 00000001     X   12070 12077U
 $$$198        1 00000050 00000001 A   U   12125 12122  12124
 $$$200B       1 00001138 00000001     X   12243 12250U
 $$$201S       2 0000116A 00000001     H   12310 12402B
 $$$202F       2 000011E2 00000001     H   12384 12368B
 $$$205        1 00000300 00000001 A   U   12455 12452  12454
 $$$207B       1 0000182E 00000001     X   13058 13065U
 $$$209        1 00000050 00000001 A   U   13102 13099  13101
 $$$211B       1 0000185E 00000001     X   13129 13136U
 $$$213        1 00000050 00000001 A   U   13174 13171  13173
 $$$215B       1 0000188E 00000001     X   13201 13208U
 $$$216F       2 000018A0 00000001     H   13245 13233B
 $$$217F       2 000018FA 00000001     H   13306 13294B
 $$$218F       2 00001912 00000001     H   13346 13334B
 $$$218T       2 0000190C 00000001     H   13337 13323B
 $$$220F       2 0000192A 00000001     H   13386 13374B
 $$$221F       2 00001946 00000001     H   13428 13416B
 $$$222F       2 00001964 00000001     H   13470 13458B
 $$$223F       2 00001976 00000001     H   13494 13482B
 $$$224        1 00000050 00000001 A   U   13517 13514  13516
 $$$226B       1 000019A4 00000001     X   13544 13551U
 $$$228        1 00000050 00000001 A   U   13588 13585  13587
 $$$230B       1 000019D4 00000001     X   13615 13622U
 $$$232        1 00000050 00000001 A   U   13660 13657  13659
 $$$234B       1 00001A04 00000001     X   13687 13694U
 $$$236        1 00000050 00000001 A   U   13731 13728  13730
 $$$238B       1 00001A34 00000001     X   13758 13765U
 $$$240        1 00000050 00000001 A   U   13803 13800  13802
 $$$242B       1 00001A64 00000001     X   13830 13837U
 $$$246        1 00000050 00000001 A   U   13889 13886  13888
 $$$248B       1 00001A9C 00000001     X   13916 13923U
 $$$252        1 00000050 00000001 A   U   13975 13972  13974
 $$$254B       1 00001AD4 00000001     X   14002 14009U
 $$$258        1 00000050 00000001 A   U   14057 14054  14056
 $$$260B       1 00001B08 00000001     X   14084 14091U
 $$$264        1 00000050 00000001 A   U   14140 14137  14139
 $$$266B       1 00001B3C 00000001     X   14168 14175U
 $$$268        1 00000050 00000001 A   U   14212 14209  14211
 $$$270B       1 00001B6C 00000001     X   14239 14246U
 $$$272        1 00000050 00000001 A   U   14284 14281  14283
 $$$274B       1 00001B9C 00000001     X   14312 14319U
 $$$276        1 00000050 00000001 A   U   14356 14353  14355
 $$$278B       1 00001BCC 00000001     X   14383 14390U
 $$$280        1 00000050 00000001 A   U   14428 14425  14427
 $$$282B       1 00001BFC 00000001     X   14471 14478U
 $$$283        1 00000300 00000001 A   U   14569 14566  14568
1ACMD     (ACMD4072) (12:39) (15MAR04) Ordinary Symbol and Literal Cross Reference                                          Page  164
 $$$285B       1 00001C70 00000001     X   14613 14620U
 $$$286F       2 00001CA0 00000001     H   14705 14651B
 $$$287F       2 00001CCE 00000001     H   14772 14718B
 $$$288B       4 00001CD4 00000001     I   14787 14865
 $$$288F       2 00001D0E 00000001     H   14859 14787B 14864
 $$$289E       2 00001D12 00000001     H   14872 14866
 $$$289F       2 00001DFE 00000001     H   15240 14868B
 $$$290F       2 00001D2A 00000001     H   14900 14889B
 $$$292F       2 00001D4C 00000001     H   14952 14941B
 $$$294F       2 00001D6E 00000001     H   15004 14993B
 $$$296F       2 00001D90 00000001     H   15056 15045B
 $$$298F       2 00001DA0 00000001     H   15081 15068B
 $$$300F       2 00001DB0 00000001     H   15106 15093B
 $$$302F       2 00001DD2 00000001     H   15159 15148B
 $$$304F       2 00001DF4 00000001     H   15212 15201B
 $$$306F       2 00001E16 00000001     H   15270 15257B
 $$$308F       2 00001E26 00000001     H   15295 15282B
 $$$310F       2 00001E48 00000001     H   15349 15336B
 $$$312        1 00000050 00000001 A   U   15411 15408  15410
 $$$314B       1 00001F92 00000001     X   15505 15512U
 $$$315S       2 00001FC4 00000001     H   15572 15664B
 $$$316F       2 0000203C 00000001     H   15646 15630B
 $$$319        1 00000300 00000001 A   U   15704 15701  15703
 $$$321B       1 000021E6 00000001     X   15869 15876U
 $$$323        1 00000050 00000001 A   U   15915 15912  15914
 $$$325B       1 00002216 00000001     X   15942 15949U
 $$$327        1 00000050 00000001 A   U   15989 15986  15988
 $$$329B       1 00002246 00000001     X   16016 16023U
 $$$331        1 00000050 00000001 A   U   16062 16059  16061
 $$$333B       1 00002276 00000001     X   16089 16096U
 $$$335        1 00000050 00000001 A   U   16136 16133  16135
 $$$337B       1 000022A6 00000001     X   16163 16170U
 $$$339        1 00000050 00000001 A   U   16209 16206  16208
 $$$341B       1 000022D6 00000001     X   16236 16243U
 $$$343        1 00000050 00000001 A   U   16283 16280  16282
 $$$345B       1 00002306 00000001     X   16326 16333U
 $$$346F       2 000023BA 00000001     H   16559 16487B
 $$$347F       2 000023F8 00000001     H   16634 16594B
 $$$348F       2 0000244A 00000001     H   16764 16700B
 $$$350F       2 0000244A 00000001     H   16760 16720B
 $$$351F       2 00002480 00000001     H   16846 16819B
 $$$353F       2 000024CA 00000001     H   16947 16920B
 $$$355F       2 000024F6 00000001     H   17004 16977B
 $$$357F       2 00002522 00000001     H   17061 17034B
 $$$359        1 00000300 00000001 A   U   17113 17110  17112
 $$$361B       1 0000256C 00000001     X   17155 17162U
 $$$362F       2 00002618 00000001     H   17311 17282B 17302B
 $$$362S       2 0000259E 00000001     H   17222 17310B
 $$$366F       2 00002646 00000001     H   17393 17328B
 $$$367F       2 00002646 00000001     H   17389 17359B 17380B
 $$$367S       2 00002626 00000001     H   17338 17388B
 $$$371        1 00000300 00000001 A   U   17427 17424  17426
 $$$373B       1 0000276E 00000001     X   17547 17554U
 $$$374        1 00000050 00000001 A   U   17587 17584  17586
 $$$376B       1 000027A0 00000001     X   17614 17621U
 $$$377F       2 000027BA 00000001     H   17673 17649B 17663B
 $$$379F       2 000027C4 00000001     H   17693 17683B
 $$$380        1 00000050 00000001 A   U   17716 17713  17715
 $$$382B       1 000027F2 00000001     X   17743 17750U
1ACMD     (ACMD4072) (12:39) (15MAR04) Ordinary Symbol and Literal Cross Reference                                          Page  165
 $$$383        1 00000050 00000001 A   U   17786 17783  17785
 $$$385B       1 00002822 00000001     X   17829 17836U
 $$$386F       2 00002866 00000001     H   17915 17905B
 $$$387B       4 00002868 00000001     I   17926 17975
 $$$387F       2 00002890 00000001     H   17970 17926B 17974
 $$$388B       4 00002898 00000001     I   17992 18022
 $$$388E       2 00002894 00000001     H   17982 17976
 $$$388F       2 000028AE 00000001     H   18018 17978B 17992B 18021
 $$$390E       2 000028B2 00000001     H   18029 18023
 $$$390F       2 000028E4 00000001     H   18092 18025B
 $$$391F       2 00002934 00000001     H   18188 18105B
 $$$392        1 00000300 00000001 A   U   18222 18219  18221
 $$$394B       1 0000296C 00000001     X   18264 18271U
 $$$395S       2 0000299E 00000001     H   18331 18423B
 $$$396F       2 00002A16 00000001     H   18405 18389B
 $$$399        1 00000300 00000001 A   U   18476 18473  18475
 $$$401B       1 00002C02 00000001     X   18656 18663U
 $$$403        1 00000050 00000001 A   U   18700 18697  18699
 $$$405B       1 00002C32 00000001     X   18727 18734U
 $$$407        1 00000050 00000001 A   U   18772 18769  18771
 $$$409B       1 00002C62 00000001     X   18814 18821U
 $$$410F       2 00002C8E 00000001     H   18882 18872B
 $$$411        1 00000300 00000001 A   U   18933 18930  18932
 $$$413B       1 00002CE2 00000001     X   18977 18984U
 $$$414F       2 00002D18 00000001     H   19073 19015B
 $$$415F       2 00002D48 00000001     H   19144 19086B
 $$$416F       2 00002D78 00000001     H   19215 19157B
 $$$417F       2 00002DA8 00000001     H   19286 19228B
 $$$418F       2 00002DC0 00000001     H   19324 19297B
 $$$419F       2 00002DDA 00000001     H   19364 19337B
 $$$421        1 00000050 00000001 A   U   19420 19417  19419
 $$$423B       1 00003082 00000001     X   19529 19536U
 $$$424S       2 000030B4 00000001     H   19596 19688B
 $$$425F       2 0000312C 00000001     H   19670 19654B
 $$$428        1 00000300 00000001 A   U   19741 19738  19740
 $$$430B       1 000033BA 00000001     X   19985 19992U
 $$$432        1 00000050 00000001 A   U   20029 20026  20028
 $$$434B       1 000033EA 00000001     X   20056 20063U
 $$$436        1 00000050 00000001 A   U   20101 20098  20100
 $$$438B       1 0000341A 00000001     X   20128 20135U
 $$$440        1 00000050 00000001 A   U   20172 20169  20171
 $$$442B       1 0000344A 00000001     X   20199 20206U
 $$$444        1 00000050 00000001 A   U   20244 20241  20243
 $$$446B       1 0000347A 00000001     X   20271 20278U
 $$$447F       2 000034A0 00000001     H   20323 20311B
 $$$448F       2 000034C6 00000001     H   20374 20334B
 $$$449        1 00000050 00000001 A   U   20392 20389  20391
 $$$451B       1 000034EE 00000001     X   20419 20426U
 $$$452        1 00000050 00000001 A   U   20465 20462  20464
 $$$454B       1 00003520 00000001     X   20492 20499U
 $$$455F       2 00003534 00000001     H   20535 20525B
 $$$456        1 00000050 00000001 A   U   20553 20550  20552
 $$$458B       1 0000355C 00000001     X   20581 20588U
 $$$460        1 00000050 00000001 A   U   20697 20694  20696
 $$$462B       1 0000374E 00000001     X   20845 20852U
 $$$463        1 00000050 00000001 A   U   20885 20882  20884
 $$$465B       1 00003782 00000001     X   20912 20919U
 $$$467        1 00000050 00000001 A   U   20952 20949  20951
 $$$469B       1 000037AE 00000001     X   20979 20986U
1ACMD     (ACMD4072) (12:39) (15MAR04) Ordinary Symbol and Literal Cross Reference                                          Page  166
 $$$471        1 00000050 00000001 A   U   21019 21016  21018
 $$$473B       1 000037DA 00000001     X   21046 21053U
 $$$475        1 00000050 00000001 A   U   21086 21083  21085
 $$$477B       1 00003806 00000001     X   21113 21120U
 $$$478        1 00000050 00000001 A   U   21195 21192  21194
 $$$480B       1 00003856 00000001     X   21222 21229U
 $$$481        1 00000050 00000001 A   U   21255 21252  21254
 $$$483B       1 0000387E 00000001     X   21284 21291U
 $$$485        1 00000050 00000001 A   U   21328 21325  21327
 $$$487B       1 000038AE 00000001     X   21355 21362U
 $$$489        1 00000050 00000001 A   U   21400 21397  21399
 $$$491B       1 000038DE 00000001     X   21443 21450U
 $$$492        1 00000300 00000001 A   U   21541 21538  21540
 $$$494B       1 00003952 00000001     X   21585 21592U
 $$$495F       2 0000396E 00000001     H   21649 21622B
 $$$497F       2 0000399A 00000001     H   21706 21679B
 $$$499F       2 000039C6 00000001     H   21763 21736B
 $$$501F       2 00003A00 00000001     H   21841 21775B
 $$$502F       2 00003A98 00000001     H   22043 22030B
 $$$504F       2 00003AA8 00000001     H   22068 22055B
 $$$506F       2 00003AB8 00000001     H   22093 22080B
 $$$508        1 00000050 00000001 A   U   22155 22152  22154
 $$$510B       1 00003C3A 00000001     X   22254 22261U
 $$$511        1 00000300 00000001 A   U   22445 22442  22444
 $$$513B       1 00003E0E 00000001     X   22534 22541U
 $$$514        1 00000050 00000001 A   U   22585 22582  22584
 $$$516B       1 00003E4A 00000001     X   22626 22633U
 $$$517F       2 00003EC4 00000001     H   22736 22697B
 $$$518F       2 00003ECE 00000001     H   22756 22746B
 $$$519F       2 00003EE2 00000001     H   22794 22784B
 $$$519T       2 00003EDE 00000001     H   22787 22773B
 $$$521F       2 00003F0A 00000001     H   22849 22816B
 $$$521S       2 00003EE6 00000001     H   22801 22848B
 $$$523F       2 00003F06 00000001     H   22844 22833B
 $$$524F       2 00003F18 00000001     H   22874 22864B
 $$$525        1 00000050 00000001 A   U   22895 22892  22894
 $$$527B       1 00003F44 00000001     X   22927 22934U
 $$$528B       4 00003F5A 00000001     I   22975 22991
 $$$528F       2 00003F66 00000001     H   22987 22975B 22990
 $$$528T       2 00003F5E 00000001     H   22978 22962B
 $$$53B        1 00000032 00000001     X    8064  8071U
 $$$530E       2 00003F6A 00000001     H   22998 22992
 $$$530F       2 00003F84 00000001     H   23035 22994B
 $$$531        1 00000050 00000001 A   U   23055 23052  23054
 $$$533B       1 00003FB0 00000001     X   23087 23094U
 $$$534F       2 00003FC2 00000001     H   23127 23113B
 $$$535B       4 00004020 00000001     I   23179 23192
 $$$535F       2 00004028 00000001     H   23189 23179B 23191
 $$$536E       2 0000402C 00000001     H   23199 23193
 $$$536F       2 0000404A 00000001     H   23256 23195B
 $$$537F       2 0000404A 00000001     H   23252 23213B
 $$$538        1 00000050 00000001 A   U   23278 23275  23277
 $$$54F        2 00000076 00000001     H    8157  8129B  8142B
 $$$540B       1 0000407C 00000001     X   23310 23317U
 $$$541B       4 00004092 00000001     I   23358 23374
 $$$541F       2 0000409E 00000001     H   23370 23358B 23373
 $$$541T       2 00004096 00000001     H   23361 23345B
 $$$543E       2 000040A2 00000001     H   23381 23375
 $$$543F       2 000040BC 00000001     H   23418 23377B
1ACMD     (ACMD4072) (12:39) (15MAR04) Ordinary Symbol and Literal Cross Reference                                          Page  167
 $$$544        1 00000050 00000001 A   U   23438 23435  23437
 $$$546B       1 00004196 00000001     X   23506 23513U
 $$$547F       2 00004204 00000001     H   23588 23573B
 $$$548F       2 00004214 00000001     H   23610 23601B
 $$$549        1 00000050 00000001 A   U   23630 23627  23629
 $$$551B       1 00004240 00000001     X   23664 23671U
 $$$552B       4 000042B8 00000001     I   23759 23807
 $$$552F       2 000042D8 00000001     H   23804 23759B 23777B 23806
 $$$554E       2 000042DC 00000001     H   23814 23808
 $$$554F       2 00004312 00000001     H   23875 23810B
 $$$555F       2 0000430A 00000001     H   23862 23830B
 $$$556F       2 0000430A 00000001     H   23858 23845B
 $$$557B       4 00004378 00000001     I   23931 24903
 $$$557F       2 00004638 00000001     H   24897 23931B 24902
 $$$558F       2 000043DA 00000001     H   24074 23947B
 $$$559F       2 00004436 00000001     H   24205 24105B
 $$$559T       2 000043EE 00000001     H   24108 24092B
 $$$56S        2 00000082 00000001     H    8173  8265B
 $$$561F       2 00004470 00000001     H   24273 24217B
 $$$562F       2 00004546 00000001     H   24525 24363B
 $$$563F       2 000044EC 00000001     H   24416 24406B
 $$$564F       2 000044FE 00000001     H   24447 24437B
 $$$565F       2 000045A2 00000001     H   24685 24538B
 $$$567F       2 00004578 00000001     H   24603 24590B
 $$$568F       2 00004588 00000001     H   24630 24617B
 $$$569F       2 00004598 00000001     H   24657 24644B
 $$$57F        2 000000FA 00000001     H    8247  8231B
 $$$570F       2 00004638 00000001     H   24893 24724B
 $$$571F       2 0000462C 00000001     H   24864 24790B
 $$$572E       2 0000463C 00000001     H   24910 24904
 $$$572F       2 000047E8 00000001     H   25699 24906B
 $$$573F       2 00004698 00000001     H   25083 25017B
 $$$575F       2 00004688 00000001     H   25052 25039B
 $$$576F       2 00004698 00000001     H   25079 25066B
 $$$577F       2 00004700 00000001     H   25278 25268B
 $$$578F       2 0000470A 00000001     H   25298 25288B
 $$$579F       2 00004734 00000001     H   25375 25365B
 $$$580F       2 0000475E 00000001     H   25452 25442B
 $$$581F       2 00004788 00000001     H   25529 25519B
 $$$582F       2 0000479A 00000001     H   25560 25550B
 $$$583F       2 000047A2 00000001     H   25582 25569B
 $$$584F       2 000047DE 00000001     H   25671 25644B
 $$$585        1 00000300 00000001 A   U   25733 25730  25732
 $$$587B       1 0000489A 00000001     X   25822 25829U
 $$$588        1 00000050 00000001 A   U   25856 25853  25855
 $$$590B       1 000048C6 00000001     X   25915 25922U
 $$$591S       2 000048D2 00000001     H   25957 26189B
 $$$592F       2 00004960 00000001     H   26119 26046B
 $$$593F       2 0000497C 00000001     H   26159 26132B
 $$$594        1 0000006C 00000001 A   U   26214 26211  26213
 $$$596B       1 000049B4 00000001     X   26248 26255U
 $$$597F       2 000049CC 00000001     H   26313 26301B
 $$$598F       2 00004A32 00000001     H   26376 26361B
 $$$599F       2 00004AF4 00000001     H   26521 26505B
 $$$60F        2 0000013C 00000001     H    8353  8285B
 $$$600        1 0000006C 00000001 A   U   26546 26543  26545
 $$$602B       1 00004BC2 00000001     X   26636 26643U
 $$$603        1 00000050 00000001 A   U   26676 26673  26675
 $$$605B       1 00004BF0 00000001     X   26703 26710U
1ACMD     (ACMD4072) (12:39) (15MAR04) Ordinary Symbol and Literal Cross Reference                                          Page  168
 $$$606        1 00000050 00000001 A   U   26761 26758  26760
 $$$608B       1 00004C2C 00000001     X   26788 26795U
 $$$609        1 00000050 00000001 A   U   26822 26819  26821
 $$$61F        2 00000136 00000001     H    8348  8320B  8338B
 $$$61S        2 0000010E 00000001     H    8295  8347B
 $$$61T        2 00000122 00000001     H    8323  8307B
 $$$611B       1 00004C58 00000001     X   26862 26869U
 $$$612        1 00000050 00000001 A   U   26940 26937  26939
 $$$614B       1 00004EEC 00000001     X   27097 27104U
 $$$615F       2 00004F66 00000001     H   27294 27255B
 $$$616F       2 00004F86 00000001     H   27335 27308B
 $$$617F       2 00004FA4 00000001     H   27376 27349B
 $$$618F       2 00004FD4 00000001     H   27450 27411B
 $$$619F       2 00004FFC 00000001     H   27521 27464B
 $$$620S       2 00004FFC 00000001     H   27527 27548B
 $$$623        1 00000050 00000001 A   U   27578 27575  27577
 $$$625B       1 00005042 00000001     X   27645 27652U
 $$$626F       2 00005188 00000001     H   27981 27784B 27799B
 $$$628F       2 00005118 00000001     H   27852 27839B
 $$$629F       2 00005188 00000001     H   27977 27957B
 $$$630F       2 000051B4 00000001     H   28031 28018B
 $$$631F       2 000051FE 00000001     H   28120 28093B
 $$$632F       2 0000521C 00000001     H   28161 28134B
 $$$633F       2 000052D6 00000001     H   28377 28177B
 $$$634F       2 0000525A 00000001     H   28239 28194B
 $$$635F       2 0000532C 00000001     H   28465 28432B
 $$$636S       2 0000532C 00000001     H   28471 28496B
 $$$639        1 00000308 00000001 A   U   28552 28549  28551
 $$$641B       1 00005792 00000001     X   28676 28683U
 $$$642        1 00000300 00000001 A   U   28774 28771  28773
 $$$644B       1 00005806 00000001     X   28822 28829U
 $$$645B       4 0000580E 00000001     I   28860 28891
 $$$645F       2 00005824 00000001     H   28887 28860B 28890
 $$$646E       2 00005828 00000001     H   28898 28892
 $$$646F       2 0000588E 00000001     H   29041 28894B
 $$$647F       2 0000588E 00000001     H   29037 28968B 28983B
 $$$649        1 00000050 00000001 A   U   29085 29082  29084
 $$$65         1 00000300 00000001 A   U    8390  8387   8389
 $$$651B       1 000058C2 00000001     X   29127 29134U
 $$$652        1 00000300 00000001 A   U   29225 29222  29224
 $$$654B       1 00005936 00000001     X   29273 29280U
 $$$655B       4 0000593E 00000001     I   29311 29341
 $$$655F       2 00005954 00000001     H   29338 29311B 29340
 $$$656E       2 00005958 00000001     H   29348 29342
 $$$656F       2 000059F4 00000001     H   29526 29344B
 $$$657F       2 000059F4 00000001     H   29522 29434B
 $$$658        1 00000050 00000001 A   U   29569 29566  29568
 $$$660B       1 00005A28 00000001     X   29633 29640U
 $$$663B       4 00005AFC 00000001     I   29821 29841
 $$$663F       2 00005B0E 00000001     H   29838 29821B 29840
 $$$664E       2 00005B12 00000001     H   29848 29842
 $$$664F       2 00005B1E 00000001     H   29861 29844B
 $$$665        1 00000058 00000001 A   U   29890 29887  29889
 $$$667B       1 00005D36 00000001     X   30098 30105U
 $$$668        1 00000050 00000001 A   U   30132 30129  30131
 $$$67B        1 0000019E 00000001     X    8451  8458U
 $$$670B       1 00005D62 00000001     X   30164 30171U
 $$$671F       2 00005D70 00000001     H   30208 30196B
 $$$672F       2 00005D9C 00000001     H   30257 30244B
1ACMD     (ACMD4072) (12:39) (15MAR04) Ordinary Symbol and Literal Cross Reference                                          Page  169
 $$$673F       2 00005DCA 00000001     H   30314 30304B
 $$$674F       2 00005E0C 00000001     H   30398 30383B
 $$$675        1 00000050 00000001 A   U   30424 30421  30423
 $$$677B       1 00005E70 00000001     X   30462 30469U
 $$$678F       2 00005E9A 00000001     H   30523 30510B
 $$$679        1 00000050 00000001 A   U   30543 30540  30542
 $$$68F        2 000001EA 00000001     H    8550  8537B
 $$$681B       1 00005FF6 00000001     X   30656 30663U
 $$$682F       2 00006028 00000001     H   30727 30717B
 $$$683F       2 00006126 00000001     H   30877 30806B 30824B
 $$$685B       4 00006138 00000001     I   30896 30946
 $$$685F       2 00006178 00000001     H   30942 30896B 30945
 $$$687E       2 0000617C 00000001     H   30953 30947
 $$$687F       2 000061AC 00000001     H   31034 30949B 31023B
 $$$688F       2 0000618A 00000001     H   30979 30967B
 $$$689F       2 00006198 00000001     H   31008 30996B
 $$$69         1 00000300 00000001 A   U    8607  8604   8606
 $$$693F       2 000062BC 00000001     H   31300 31264B
 $$$693S       2 00006232 00000001     H   31107 31299B
 $$$696        1 00000348 00000001 A   U   31326 31323  31325
 $$$698B       1 00006456 00000001     X   31490 31497U
 $$$700        1 00000050 00000001 A   U   31530 31527  31529
 $$$702B       1 00006482 00000001     X   31557 31564U
 $$$704        1 00000050 00000001 A   U   31597 31594  31596
 $$$706B       1 000064AE 00000001     X   31624 31631U
 $$$708        1 00000050 00000001 A   U   31664 31661  31663
 $$$71B        1 0000022C 00000001     X    8650  8657U
 $$$710B       1 000064DA 00000001     X   31691 31698U
 $$$712        1 00000050 00000001 A   U   31731 31728  31730
 $$$714B       1 00006506 00000001     X   31758 31765U
 $$$716        1 00000050 00000001 A   U   31798 31795  31797
 $$$718B       1 00006532 00000001     X   31825 31832U
 $$$72F        2 00000240 00000001     H    8701  8686B
 $$$720        1 00000050 00000001 A   U   31865 31862  31864
 $$$722B       1 000065CC 00000001     X   31948 31955U
 $$$723F       2 00006608 00000001     H   32042 32025B
 $$$724F       2 0000666C 00000001     H   32228 32059B 32195B
 $$$725F       2 00006620 00000001     H   32092 32079B
 $$$726F       2 0000665E 00000001     H   32198 32179B
 $$$727T       2 00006656 00000001     H   32184 32111B 32125B 32139B 32153B 32167B
 $$$73B        4 00000272 00000001     I    8747  8766
 $$$73F        2 0000027C 00000001     H    8763  8747B  8765
 $$$733F       2 0000666C 00000001     H   32224 32211B
 $$$734F       2 0000669A 00000001     H   32312 32260B 32279B 32299B
 $$$734T       2 00006680 00000001     H   32263 32248B
 $$$738F       2 000066B2 00000001     H   32356 32326B
 $$$739F       2 000066B2 00000001     H   32352 32339B
 $$$74E        2 00000280 00000001     H    8773  8767
 $$$74F        2 00000286 00000001     H    8780  8769B
 $$$740F       2 000068CA 00000001     H   33017 32376B
 $$$742F       2 000066D4 00000001     H   32408 32393B
 $$$743B       4 000066F0 00000001     I   32433 32537
 $$$743F       2 0000674C 00000001     H   32534 32433B 32536
 $$$746E       2 00006750 00000001     H   32544 32538
 $$$746F       2 000067C0 00000001     H   32694 32540B
 $$$747F       2 00006760 00000001     H   32571 32558B
 $$$748F       2 000067C0 00000001     H   32689 32628B
 $$$749F       2 000067AA 00000001     H   32655 32645B
 $$$75         1 00000300 00000001 A   U    8805  8802   8804
1ACMD     (ACMD4072) (12:39) (15MAR04) Ordinary Symbol and Literal Cross Reference                                          Page  170
 $$$750F       2 000067C0 00000001     H   32685 32668B
 $$$760F       2 00006864 00000001     H   32926 32894B
 $$$760T       2 00006858 00000001     H   32897 32784B 32798B 32812B 32826B 32840B 32854B 32868B 32882B
 $$$77B        1 000002B2 00000001     X    8845  8852U
 $$$772F       2 000068F0 00000001     H   33061 33046B
 $$$773F       2 00006922 00000001     H   33144 33072B
 $$$774F       2 0000690C 00000001     H   33102 33087B
 $$$775F       2 0000691E 00000001     H   33132 33119B
 $$$777F       2 00006938 00000001     H   33182 33157B 33169B
 $$$779F       2 0000699C 00000001     H   33314 33195B 33207B
 $$$78F        2 000002CA 00000001     H    8889  8877B
 $$$781F       2 000069B0 00000001     H   33341 33325B
 $$$782F       2 000069F0 00000001     H   33422 33358B
 $$$783F       2 000069DA 00000001     H   33390 33377B
 $$$784F       2 000069EA 00000001     H   33414 33401B
 $$$785F       2 00006A10 00000001     H   33466 33443B
 $$$785S       2 000069F0 00000001     H   33428 33465B
 $$$787F       2 00006A52 00000001     H   33556 33480B
 $$$788F       2 00006A52 00000001     H   33552 33496B
 $$$789F       2 00006A94 00000001     H   33646 33570B
 $$$79         1 00000050 00000001 A   U    8918  8915   8917
 $$$790F       2 00006A94 00000001     H   33642 33586B
 $$$791F       2 00006AAA 00000001     H   33674 33660B
 $$$792        1 00000300 00000001 A   U   33707 33704  33706
 $$$794B       1 00007B4A 00000001     X   35271 35278U
 $$$795B       4 00007B4E 00000001     I   35297 35345
 $$$795F       2 00007BAA 00000001     H   35342 35297B 35344
 $$$796E       2 00007BAE 00000001     H   35352 35346
 $$$796F       2 00007C06 00000001     H   35394 35348B
 $$$797        1 00000050 00000001 A   U   35412 35409  35411
 $$$799B       1 00007C2E 00000001     X   35442 35449U
 $$$801        1 00000050 00000001 A   U   35487 35484  35486
 $$$803B       1 00007C5E 00000001     X   35514 35521U
 $$$805        1 00000050 00000001 A   U   35558 35555  35557
 $$$807B       1 00007C8E 00000001     X   35585 35592U
 $$$809        1 00000050 00000001 A   U   35630 35627  35629
 $$$81B        1 00000304 00000001     X    8952  8959U
 $$$811B       1 00007CBE 00000001     X   35657 35664U
 $$$813        1 00000050 00000001 A   U   35701 35698  35700
 $$$815B       1 00007CEE 00000001     X   35728 35735U
 $$$816        1 00000050 00000001 A   U   35770 35767  35769
 $$$818B       1 00007D22 00000001     X   35797 35804U
 $$$819        1 00000050 00000001 A   U   35839 35836  35838
 $$$82S        2 00000336 00000001     H    9019  9121B
 $$$821B       1 00007D56 00000001     X   35866 35873U
 $$$822        1 00000050 00000001 A   U   35908 35905  35907
 $$$824B       1 00007D8A 00000001     X   35935 35942U
 $$$825        1 00000050 00000001 A   U   35977 35974  35976
 $$$827B       1 00007DBE 00000001     X   36004 36011U
 $$$828        1 00000050 00000001 A   U   36046 36043  36045
 $$$830B       1 00007DF2 00000001     X   36073 36080U
 $$$831        1 00000050 00000001 A   U   36115 36112  36114
 $$$833B       1 00007E26 00000001     X   36142 36149U
 $$$834        1 00000050 00000001 A   U   36201 36198  36200
 $$$836B       1 00007E6C 00000001     X   36228 36235U
 $$$837B       4 00007E74 00000001     I   36260 36294
 $$$837F       2 00007E86 00000001     H   36291 36260B 36293
 $$$838        4 0000839A 00000001     I   36280 36272X
 $$$839        4 0000839A 00000001     I   36279 36280  36280
1ACMD     (ACMD4072) (12:39) (15MAR04) Ordinary Symbol and Literal Cross Reference                                          Page  171
 $$$84F        2 00000352 00000001     H    9066  9049B
 $$$840E       2 00007E8A 00000001     H   36301 36295
 $$$840F       2 00007EA0 00000001     H   36339 36297B
 $$$841        4 0000839E 00000001     I   36312 36304X
 $$$842        4 0000839E 00000001     I   36311 36312  36312
 $$$843        1 00000050 00000001 A   U   36357 36354  36356
 $$$845B       1 00007EC8 00000001     X   36384 36391U
 $$$847        1 00000050 00000001 A   U   36429 36426  36428
 $$$849B       1 00007EF8 00000001     X   36456 36463U
 $$$851        1 00000050 00000001 A   U   36500 36497  36499
 $$$853B       1 00007F28 00000001     X   36527 36534U
 $$$858        1 00000050 00000001 A   U   36590 36587  36589
 $$$860B       1 00007F60 00000001     X   36617 36624U
 $$$862        1 00000050 00000001 A   U   36662 36659  36661
 $$$864B       1 00007F90 00000001     X   36689 36696U
 $$$866        1 00000050 00000001 A   U   36733 36730  36732
 $$$868B       1 00007FC0 00000001     X   36760 36767U
 $$$870        1 00000050 00000001 A   U   36805 36802  36804
 $$$872B       1 00007FF0 00000001     X   36832 36839U
 $$$874        1 00000050 00000001 A   U   36876 36873  36875
 $$$876B       1 00008020 00000001     X   36903 36910U
 $$$878        1 00000050 00000001 A   U   36948 36945  36947
 $$$88         1 00000300 00000001 A   U    9172  9169   9171
 $$$880B       1 00008050 00000001     X   36975 36982U
 $$$882        1 00000050 00000001 A   U   37019 37016  37018
 $$$884B       1 00008080 00000001     X   37046 37053U
 $$$886        1 00000050 00000001 A   U   37091 37088  37090
 $$$888B       1 000080B0 00000001     X   37118 37125U
 $$$891        1 00000050 00000001 A   U   37168 37165  37167
 $$$893B       1 000080E4 00000001     X   37195 37202U
 $$$896        1 00000050 00000001 A   U   37245 37242  37244
 $$$898B       1 00008118 00000001     X   37272 37279U
 $$$90B        1 00000516 00000001     X    9308  9315U
 $$$901        1 00000050 00000001 A   U   37320 37317  37319
 $$$903B       1 00008148 00000001     X   37347 37354U
 $$$906        1 00000050 00000001 A   U   37395 37392  37394
 $$$908B       1 00008178 00000001     X   37422 37429U
 $$$91F        2 00000574 00000001     H    9386  9370B
 $$$910        1 00000050 00000001 A   U   37466 37463  37465
 $$$912B       1 000081A8 00000001     X   37493 37500U
 $$$914        1 00000050 00000001 A   U   37538 37535  37537
 $$$916B       1 000081D8 00000001     X   37565 37572U
 $$$92B        4 00000578 00000001     I    9401  9466
 $$$92F        2 000005AE 00000001     H    9460  9401B  9465
 $$$923        1 00000050 00000001 A   U   37632 37629  37631
 $$$925B       1 0000820C 00000001     X   37659 37666U
 $$$927        1 00000050 00000001 A   U   37703 37700  37702
 $$$929B       1 0000823C 00000001     X   37730 37737U
 $$$93B        4 0000058A 00000001     I    9422  9440
 $$$93F        2 00000594 00000001     H    9437  9422B  9439
 $$$931        1 00000050 00000001 A   U   37775 37772  37774
 $$$933B       1 0000826C 00000001     X   37803 37810U
 $$$934F       2 00008286 00000001     H   37854 37841B
 $$$935F       2 00008294 00000001     H   37880 37867B
 $$$936F       2 000082B2 00000001     H   37940 37892B
 $$$937F       2 000082B2 00000001     H   37936 37923B
 $$$937T       2 000082AC 00000001     H   37926 37912B
 $$$939F       2 000082E6 00000001     H   38047 37954B
 $$$94E        2 00000598 00000001     H    9447  9441
1ACMD     (ACMD4072) (12:39) (15MAR04) Ordinary Symbol and Literal Cross Reference                                          Page  172
 $$$94F        2 000005AE 00000001     H    9456  9443B
 $$$940F       2 000082C8 00000001     H   37983 37970B
 $$$941F       2 000082E6 00000001     H   38043 37995B
 $$$942F       2 000082E6 00000001     H   38039 38026B
 $$$942T       2 000082E0 00000001     H   38029 38015B
 $$$944        1 00000050 00000001 A   U   38071 38068  38070
 $$$946B       1 00008316 00000001     X   38099 38106U
 $$$947F       2 00008330 00000001     H   38150 38137B
 $$$948F       2 00008346 00000001     H   38190 38177B
 $$$948T       2 00008340 00000001     H   38180 38166B
 $$$95B        4 000005BE 00000001     I    9499  9582
 $$$95E        2 000005B2 00000001     H    9473  9467
 $$$95F        2 000005F4 00000001     H    9574  9469B  9486B  9499B  9579
 $$$950        1 00000050 00000001 A   U   38213 38210  38212
 $$$952B       1 000083BC 00000001     X   38265 38272U
 $$$953F       2 000083DC 00000001     H   38318 38309B
 $$$954        1 00000050 00000001 A   U   38346 38343  38345
 $$$956B       1 00008410 00000001     X   38373 38380U
 $$$957F       2 00008430 00000001     H   38426 38417B
 $$$958        1 00000050 00000001 A   U   38454 38451  38453
 $$$960B       1 00008464 00000001     X   38481 38488U
 $$$961F       2 00008484 00000001     H   38534 38525B
 $$$962        1 00000050 00000001 A   U   38562 38559  38561
 $$$964B       1 000084B8 00000001     X   38589 38596U
 $$$965F       2 000084D8 00000001     H   38642 38633B
 $$$966        1 00000050 00000001 A   U   38670 38667  38669
 $$$968B       1 0000850C 00000001     X   38697 38704U
 $$$969        1 00000050 00000001 A   U   38744 38741  38743
 $$$97B        4 000005B6 00000001     I    9486  9580
 $$$971B       1 00008540 00000001     X   38772 38779U
 $$$972        1 00000050 00000001 A   U   38812 38809  38811
 $$$974B       1 00008572 00000001     X   38839 38846U
 $$$975F       2 0000858E 00000001     H   38895 38882B
 $$$976        1 00000050 00000001 A   U   38919 38916  38918
 $$$978B       1 000085BC 00000001     X   38946 38953U
 $$$979        1 00000050 00000001 A   U   39003 39000  39002
 $$$98B        4 000005DA 00000001     I    9536  9556
 $$$98F        2 000005E4 00000001     H    9551  9522B  9536B  9553
 $$$981B       1 000085FA 00000001     X   39031 39038U
 $$$982        1 00000050 00000001 A   U   39071 39068  39070
 $$$984B       1 0000862C 00000001     X   39098 39105U
 $$$985F       2 00008646 00000001     H   39143 39134B
 $$$986F       2 00008652 00000001     H   39166 39153B
 $$$987        1 00000050 00000001 A   U   39189 39186  39188
 $$$989B       1 00008680 00000001     X   39216 39223U
 $$$99B        4 000005D0 00000001     I    9522  9554
 $$$990        1 00000050 00000001 A   U   39256 39253  39255
 $$$992B       1 000086B2 00000001     X   39283 39290U
 $$$993F       2 000086C6 00000001     H   39324 39315B
 $$$994F       2 000086DC 00000001     H   39348 39339B
 $$$995F       2 000086E8 00000001     H   39371 39358B
 $$$996        1 00000050 00000001 A   U   39400 39397  39399
 $$$998B       1 00008720 00000001     X   39427 39434U
 $$$999        1 00000050 00000001 A   U   39467 39464  39466
 $USINTMS      1 00000004 00000001 A   U    7212  7223
 $USINTSY      1 00000008 00000001 A   U    7214  7223
 $USINTUS      1 00000002 00000001 A   U    7210  7223
 $USOPEN       1 00000001 00000001 A   U    7208 32665  48480
 $USSTC        1 00000020 00000001 A   U    7218  7223
1ACMD     (ACMD4072) (12:39) (15MAR04) Ordinary Symbol and Literal Cross Reference                                          Page  173
 @RAR          0 00000000 FFFFFFF0     @    1132  2164   2172B
 @R0           0 00000000 FFFFFFFE     @     706   982U
 @R1           0 00000000 FFFFFFFD     @     719   978U  2170   2171   9421   9452   9498   9521   9535   9566   9614
                                                  9637   9651   9682   9730   9753   9767   9798   9869  10222  14895
                                                 14947  14999  15051  15154  15207  23606  25537U 27933U 29820  30821
                                                 30830M 31290  38163  38176  38191  41594  41722  50338  50555  50647
                                                 50660  50685  50763  50776  50801  50924  50937  50962  51112  51125
                                                 51150  51227  51240  51265  51444  51457  51482  51604  54113  55456U
                                                 55485  56087  56100  56113  56168  56231
 @R10          0 00000000 FFFFFFF4     @     836   942U
 @R11          0 00000000 FFFFFFF3     @     849   938U
 @R12          0 00000000 FFFFFFF2     @     862   934U
 @R13          0 00000000 FFFFFFF1     @     875   930U 20679  30841  30883  30938  32929M 32930  32931  41614M 41615
                                                 55132  56249
 @R14          0 00000000 FFFFFFF0     @     888   926U  8163   8179M  9009   9025M 12300  12316M 15562  15578M 17212
                                                 17228M 18321  18337M 19586  19602M 22307  22353M 22554M 33023  33453M
                                                 53120  53222M
 @R15          0 00000000 FFFFFFEF     @     901   922U 20297  21870U 21938U 23774  24247U 24299U 24329U 24393U 25205U
                                                 25255U 25352U 25429U 25506U 27288U 27307  27378  27444U 27463  27515U
                                                 27956  28079  28431  37866  37891  37909  37922  37969  37994  38012
                                                 38025  38049  38294U 38402U 38510U 38618U 38868U 38975U 39372  39585
                                                 41611  45490U 45598U 45628U 56536U
 @R2           0 00000000 FFFFFFFC     @     732   974U 24424U 46854U 46944U 52015  52065  52104  52143  52182  52221
                                                 52260  52299  54507U
 @R3           0 00000000 FFFFFFFB     @     745   970U 13320  13333  13355  13439  31078M 31099  32953  32997  54422U
 @R4           0 00000000 FFFFFFFA     @     758   966U 31882U 43313  48900U 54540
 @R5           0 00000000 FFFFFFF9     @     771   962U  8399U  8616U  8814U 10295U 14438U 14578U 16293U 17122U 17796U
                                                 18231U 18781U 18942U 21410U 21550U 22595U 25742U 27589U 28561U 28783U
                                                 29234U 31296U 42366U 43507U 48907U 51948U
 @R6           0 00000000 FFFFFFF8     @     784   958U 10724U 11862U 15420U 19429U 22164U 22770  22783  22803  23258
                                                 26831U 29094U 29578U 31875U 53977U 55777U
 @R7           0 00000000 FFFFFFF7     @     797   954U  8379U  8596U  8794U  8907U  9161U  9896U  9963U 10030U 10098U
                                                 10274U 10704U 11727U 11842U 12023U 12114U 12444U 13091U 13163U 13506U
                                                 13577U 13649U 13720U 13792U 13878U 13964U 14046U 14129U 14201U 14273U
                                                 14345U 14417U 14558U 15400U 15693U 15904U 15978U 16051U 16125U 16198U
                                                 16272U 17102U 17416U 17576U 17705U 17775U 18211U 18465U 18689U 18761U
                                                 18922U 19409U 19730U 20018U 20090U 20161U 20233U 20381U 20454U 20542U
                                                 20686U 20874U 20941U 21008U 21075U 21184U 21244U 21317U 21389U 21530U
                                                 22144U 22434U 22574U 22884U 23044U 23267U 23427U 23619U 25722U 25845U
                                                 26203U 26535U 26665U 26750U 26811U 26929U 27567U 28541U 28763U 29074U
                                                 29214U 29558U 29879U 30121U 30413U 30532U 31315U 31519U 31586U 31653U
                                                 31720U 31787U 31854U 33696U 35401U 35476U 35547U 35619U 35690U 35759U
                                                 35828U 35897U 35966U 36035U 36104U 36190U 36346U 36418U 36489U 36579U
                                                 36651U 36722U 36794U 36865U 36937U 37008U 37080U 37157U 37234U 37309U
                                                 37384U 37455U 37527U 37621U 37692U 37764U 38060U 38202U 38335U 38443U
                                                 38551U 38659U 38733U 38801U 38908U 38992U 39060U 39178U 39245U 39389U
                                                 39456U 39602U 39673U 39745U 39816U 39888U 39960U 40031U 40198U 40269U
                                                 40341U 40412U 40484U 40556U 40627U 40698U 40770U 40844U 40915U 40989U
                                                 41060U 41127U 41264U 41382U 41632U 41733U 41806U 41946U 42019U 42136U
                                                 42209U 42279U 42345U 43372U 43486U 48881U 49287U 49395U 49456U 49624U
                                                 49820U 49983U 50144U 50364U 50581U 50697U 50858U 50973U 51046U 51161U
                                                 51305U 51378U 51493U 51626U 51699U 51778U 51852U 51927U 52338U 52504U
                                                 52606U 52827U 52891U 52955U 53019U 53248U 53957U 54282U 54582U 55139U
                                                 55308U 55369U 55513U 55755U 56256U 56549U 56713U 56884U
 @R8           0 00000000 FFFFFFF6     @     810   950U  8374U  8591U  8789U  9156U 11722U 12439U 14553U 15688U 17097U
                                                 17411U 18206U 18460U 18917U 19725U 21525U 22429U 25717U 26198U 26530U
                                                 28536U 28758U 29209U 29665U 29874U 31310U 33691U 43367U 53243U 54277U
 @R9           0 00000000 FFFFFFF5     @     823   946U
 ABSCENT       1 00000000 00000000 A   T    2180  2180
1ACMD     (ACMD4072) (12:39) (15MAR04) Ordinary Symbol and Literal Cross Reference                                          Page  174
 ACCTPSHC      1 00000000 00000041     T   49317 49317
 ACMD4072      1 00000000 00000001     R     999   997
 ASCTBL        1 00000000 00000000 A   T    2188  2188
 ATTRT       256 0000B83F 00000001     X   54299 54130  54300
 AUTODISP      2 00001C56 00000001     H   14594 14590  15441
 AUTOPRT       4 00001224 00000001     F   12464 15435
 BADACCT       2 0000A966 00000001     H   49842 33726
 BADAGRP       2 0000A9E8 00000001     H   50004 33724  43521
 BLTBL         1 00000000 00000000 A   T    2190  2190
 BR            7 00000007 00000001 A   #    1022  8059M  8446M  8645M  8840M  8947M  9303M  9929M  9996M 10063M 10131M
                                                 10367M 10787M 11794M 11888M 12065M 12238M 13053M 13124M 13196M 13539M
                                                 13610M 13682M 13753M 13825M 13911M 13997M 14079M 14163M 14234M 14307M
                                                 14378M 14466M 14608M 15500M 15864M 15937M 16011M 16084M 16158M 16231M
                                                 16321M 17150M 17542M 17609M 17738M 17824M 18259M 18651M 18722M 18809M
                                                 18972M 19524M 19980M 20051M 20123M 20194M 20266M 20414M 20487M 20576M
                                                 20840M 20907M 20974M 21041M 21108M 21217M 21279M 21350M 21438M 21580M
                                                 22249M 22529M 22621M 22922M 23082M 23305M 23501M 23659M 25817M 25910M
                                                 26243M 26631M 26698M 26783M 26857M 27092M 27640M 28671M 28817M 29122M
                                                 29268M 29628M 30093M 30159M 30457M 30651M 31485M 31552M 31619M 31686M
                                                 31753M 31820M 31943M 35266M 35437M 35509M 35580M 35652M 35723M 35792M
                                                 35861M 35930M 35999M 36068M 36137M 36223M 36379M 36451M 36522M 36612M
                                                 36684M 36755M 36827M 36898M 36970M 37041M 37113M 37190M 37267M 37342M
                                                 37417M 37488M 37560M 37654M 37725M 37798M 38094M 38260M 38368M 38476M
                                                 38584M 38692M 38767M 38834M 38941M 39026M 39093M 39211M 39278M 39422M
                                                 39489M 39635M 39706M 39778M 39849M 39921M 39993M 40064M 40231M 40302M
                                                 40374M 40445M 40517M 40589M 40660M 40731M 40803M 40877M 40948M 41022M
                                                 41093M 41160M 41297M 41415M 41665M 41766M 41839M 41979M 42052M 42169M
                                                 42242M 42312M 42634M 43453M 43571M 49060M 49367M 49428M 49493M 49662M
                                                 49856M 50018M 50180M 50397M 50614M 50730M 50891M 51006M 51079M 51194M
                                                 51338M 51411M 51526M 51659M 51732M 51811M 51885M 51980M 52438M 52540M
                                                 52793M 52860M 52924M 52988M 53086M 53315M 54035M 54369M 54658M 55280M
                                                 55341M 55402M 55548M 55807M 56306M 56589M 56753M
 BTD           1 00000000 00000020     T   22195 22195  27017  28596  30570  48936  56937
 BTR           1 00000000 0000002B     T   27015 27015  56934
 BTX           1 00000000 0000003F     T   43527 43527
 CHARCHKA      1 00000000 0000001F     T   22188 22188
 CHARPRT       4 00004808 00000001     F   25749 27003
 CHECKIOB      1 00000000 00000000 A   T    2236  2236
 CHKKEXIT      2 0000BC68 00000001     H   55126 54746B
 CHKKNULL      2 0000BD9C 00000001     H   55266 55169  55245
 CHKKW         2 0000BAC8 00000001     H   54644 54317  54640
 CHKKWIN       2 0000BDF4 00000001     H   55388 55229  55260
 CHKKWPRN      4 0000BD4C 00000001     F   55233 56916
 CHKKWPRT      4 0000BC84 00000001     F   55157 56913
 CHKKWT        4 0000BB0A 00000001     I   54726 54701B
 CHKNOREC      2 0000BE6C 00000001     H   55534 56909
 CHKREPR       4 0000BB3A 00000001     I   54796 55077B
 CHKYES        2 0000BDC8 00000001     H   55327 55184  55199  55214
 CKQUOTES      1 00000000 00000036     T   30575 30575
 COLLOPTS      1 00000000 00000009     T   10313 10313  12172  15446  19450  22193  23461  27018  30558
 COLLPSH       1 00000000 00000004     T    9253  9253  13003  15814  17492  18601  19929  22463  25761  26973  35189
                                                 43418
 COMMAND       1 00000000 00000000 A   T    2176  2176
 COMMSEG       1 00000000 00000000 A   T    2177  2177
 COSTPRT       4 00004CC8 00000001     F   26946 27027
 CP         4096 00000000 FFFFFFEC     J    6190  1165U
 CP#XSTK       1 00000010 FFFFFFEC A   U    3922  3923
 CPACFLG       1 000005D5 FFFFFFEC     R    4025  4029   4034   4039   4044   4049
 CPACFLN       4 000005C4 FFFFFFEC     F    4017  4052   4052
1ACMD     (ACMD4072) (12:39) (15MAR04) Ordinary Symbol and Literal Cross Reference                                          Page  175
 CPAFLAG       1 000005C3 FFFFFFEC     R    3989  3993   3998   4003   4008
 CPANAME       8 00000588 FFFFFFEC     C    3971  4067   4067
 CPAUTFLG      1 000008A9 FFFFFFEC     R    4335  4339   4344   4349   4354
 CPAUTHID    128 00000B80 FFFFFFEC     C    4971 54003  54175  54236
 CPCACCT       5 00000C48 FFFFFFEC     C    5000  8110M  8284   8497M  8723M  8746   8776   8998M 12289M 14517M 15551M
                                                 16372M 17201M 17327  17875M 17904  18310M 18860M 19575M 21489M 22359M
                                                 23710M 27696M 27838  28017  28722M 29173M 54411
 CPCGRP        2 00000C4B FFFFFFEC     C    5002  9521   9637   9767  32598  32696  49261M 49261  49268M 49273  54414
 CPCHFLAG      1 00000B68 FFFFFFEC     R    4962  4966
 CPCMD       235 00000242 FFFFFFEC     C    2815 30354  31078  31079M 31089  31099M 54779
 CPCMDLEN      2 00000240 FFFFFFEC     H    2814 30358  31093  54783
 CPCMNM        3 00000D24 FFFFFFEC     C    5288  8876   9048  30243  30303  30382  30716  31020  54765
 CPCUSER       3 00000C48 FFFFFFEC     C    5001  9421   9535   9651   9753  32392  32597  32697  49232M 49232  49274
                                                 54416
 CPDFLG        1 0000084C FFFFFFEC     R    4222  4226   4231   4236   4241   4246
 CPDFLG2       1 0000084D FFFFFFEC     R    4251  4255   4260   4265   4270   4275   4280
 CPDOUB        8 00000C88 FFFFFFEC     D    5208 21798M 21799M 21808  21813  21881  21949  24472  25166  25219  25316
                                                 25393  25470  25600  25650  27157  27529M 27530  28477M 28478  29423M
                                                 29424  29472  32597M 32598M 32613  32633M 32667  43217  47186  47315
                                                 47426  48455M 48482  56199M 56231M 56239  56327M 56328  56359  56678
                                                 56849  56926
 CPERRID       8 00000886 FFFFFFEC     C    4321 20365M 27968M 49241M 49971M 53396M 53536M 55715M
 CPEXFLG       1 00000758 FFFFFFEC     R    4091  4095
 CPEXFLG2      1 00000759 FFFFFFEC     R    4101  4110   4120
 CPEXFLG3      1 0000075A FFFFFFEC     R    4127  4131   4136
 CPEXTFLG      1 00000E28 FFFFFFEC     R    5773  5777   5782   5787   5792   5797   5802
 CPFABORT    128 00000D5A FFFFFFEC         5539  2140M  2140   2145M  2145
 CPFERROR     64 00000D5A FFFFFFEC         5544  2139M  2139   2144M  2144
 CPFINT       16 00000D58 FFFFFFEC         5509 23930
 CPFKWENT      1 00000080 FFFFFFEC A   U    3574 53630
 CPFNECHO     64 00000C7B FFFFFFEC         5097 54803M 54864M 54898M 55844M 55905M 55962M
 CPFNTEX       1 00000040 FFFFFFEC A   U    5391  5392
 CPFQUIET     64 00000D55 FFFFFFEC         5409 44357
 CPFRDRNG      1 00000D88 FFFFFFEC     R    5659  5663   5668   5673   5678   5683   5688   5693
 CPFRDSRC      1 00000D89 FFFFFFEC     R    5698  5707   5717   5727
 CPFTYPED     16 00000477 FFFFFFEC         3596 11453
 CPFUNUM       1 00000080 FFFFFFEC A   U    5390  5392
 CPFVER       32 00000D58 FFFFFFEC         5504 31999M 33357
 CPFXAUTH     64 0000075A FFFFFFEC         4136  8685  11427
 CPFXDFLG      1 000007E4 FFFFFFEC     R    4169  4173   4178
 CPGFLG1       1 00000474 FFFFFFEC     R    3532  3536   3541   3546   3551   3556   3886   3886
 CPGFLG10      1 0000047D FFFFFFEC     R    3769  3773   3778   3783   3788   3793   3798
 CPGFLG11      1 0000047E FFFFFFEC     R    3804  3808   3813
 CPGFLG12      1 0000047F FFFFFFEC     R    3819  3823   3828   3833
 CPGFLG13      1 00000480 FFFFFFEC     R    3839  3843
 CPGFLG14      1 00000481 FFFFFFEC     R    3849  3853   3858   3863   3868   3873
 CPGFLG3       1 00000476 FFFFFFEC     R    3572 53632
 CPGFLG4       1 00000477 FFFFFFEC     R    3585  3596   3605   3614   3623   3632
 CPGFLG5       1 00000478 FFFFFFEC     R    3638  3642   3647   3652   3657   3662   3667   3672   3677
 CPGFLG6       1 00000479 FFFFFFEC     R    3683  3687   3692   3697
 CPGFLG7       1 0000047A FFFFFFEC     R    3703  3707   3712   3717   3722
 CPGFLG8       1 0000047B FFFFFFEC     R    3728  3732   3737   3742   3747
 CPGFLG9       1 0000047C FFFFFFEC     R    3753  3757   3763
 CPGRPSV       2 000001BB FFFFFFEC     C    2710 53662
 CPINIT        1 00000174 FFFFFFEC     U    2702  6159
 CPJESFLG      1 000009E1 FFFFFFEC     R    4434  4438   4443   4448   4453   4458   4463   4468   4473
 CPJESFLY      1 000009FD FFFFFFEC     R    4484  4488   4493   4498
 CPJESHFL      1 000009E0 FFFFFFEC     R    4419  4423   4428   4507   4507
 CPLFLG10      1 00000D59 FFFFFFEC     R    5525  5529
1ACMD     (ACMD4072) (12:39) (15MAR04) Ordinary Symbol and Literal Cross Reference                                          Page  176
 CPLFLG11      1 00000D5A FFFFFFEC     R    5535  5539   5544   5549   5554
 CPLFLG12      1 00000D5B FFFFFFEC     R    5560  5564
 CPLFLG14      1 00000D5C FFFFFFEC     R    5570  5574   5579   5584   5589   5594
 CPLFLG6       1 00000D55 FFFFFFEC     R    5400  5404   5409   5414   5419   5424   5429
 CPLFLG7       1 00000D56 FFFFFFEC     R    5435  5439   5444   5449   5454   5459
 CPLFLG8       1 00000D57 FFFFFFEC     R    5465  5469   5474   5479   5484
 CPLFLG9       1 00000D58 FFFFFFEC     R    5490  5494   5499   5504   5509   5514   5519
 CPLOCALZ      1 00000C48 FFFFFFEC     U    4992  6153   6153
 CPMFLG        1 0000084F FFFFFFEC     R    4289  4293
 CPMODFLG      1 00000C78 FFFFFFEC     R    5020  5024   5029   5034   5039   5044
 CPNAME       20 00000174 FFFFFFEC     C    2703  8319   8349M
 CPNAMELN      1 00000010 FFFFFFEC A   U    3915  4162
 CPNEDPFX     10 00000E29 FFFFFFEC     X    5806  5807   5808
 CPNSCANP      4 0000008C FFFFFFEC     A    2575  8162   8178   8186   8193   8209   9008   9024   9069   9076   9092
                                                  9328   9335   9348   9408   9506   9622   9738  10839  10846  10861
                                                 10907  11350  11357  11373  11817  12089  12299  12315  12323  12330
                                                 12346  13249  13256  13269  15561  15577  15585  15592  15608  17211
                                                 17227  17235  17242  17258  18320  18336  18344  18351  18367  19585
                                                 19601  19609  19616  19632  20295  20599  20630  20639  20646  20662
                                                 20676  22306  22314  22321  22337  22352  22368  22375  22391  22553
                                                 22645  22652  22667  22681  23131  23138  23153  23167  23525  23532
                                                 23547  23561  23715  23722  23737  23751  23819  23885  23892  23908
                                                 26317  26324  26339  26380  26434  26441  26457  26721  26880  26887
                                                 26903  27706  27713  27729  29679  29686  29702  29734  29756  29763
                                                 29778  29828  30757  30763  30770  30785  30838  30844  30851  30866
                                                 30880  30925  30935  31038  31045  31061  33022  33452  35304  35311
                                                 35327  35356  35363  35379  37827  38123  41720  41894  42107  43045
                                                 43052  43068  49104  49111  49127  49159  50683  50799  50960  51148
                                                 51263  51480  52462  52469  52485  52564  52571  52587  53119  53128
                                                 53135  53150  53221  54681  54913  54950  54957  54973  55004  55011
                                                 55027  55129  55471  55830  55977  55986  55993  56008  56055  56246
 CPNUMFLG      1 00000C79 FFFFFFEC     R    5050  5062
 CPORVCMD      1 00000140 FFFFFFEC     R    2584  2588   2593   2598   2603   2608   2613   2618   2623   2628   2628
                                                  2679   2679
 CPORVFLG      1 00000149 FFFFFFEC     R    2635  2639   2644   2649   2654   2659   2664   2669   2674
 CPORVWF       1 00000150 FFFFFFEC     R    2687  2691
 CPOSCANX      4 00000CA8 FFFFFFEC     F    5219  5286   5286
 CPPACCT       5 000007F8 FFFFFFEC     C    4192  8759M  8759   8776M
 CPR          11 0000000B 00000001 A   #    1086  1165U
 CPRACBAD     16 000001FC FFFFFFEC         2753  2787   2787   2788   2788
 CPRACF1       1 000001FC FFFFFFEC     R    2734  2738   2743   2748   2753   2758   2763   2768   2773   2789
 CPRACPSW     32 000001FC FFFFFFEC         2748  2786   2786   2788   2788
 CPRACUND     64 000001FC FFFFFFEC         2743  2786   2786   2787   2787
 CPRCVCUR      4 00000730 FFFFFFEC     A    4070  4072   4072
 CPRFLG        1 000008AA FFFFFFEC     R    4360  4364   4369   4374   4379   4384   4389
 CPS         254 00000344 FFFFFFEC     X    3504  3507   3508   3510   3510  31123  31302M
 CPSACCT       5 000003B4 FFFFFFEC     C    3103  3266   3266   8110   8284   8497   8723   8746   8998  12289  14517
                                                 15551  16372  17201  17327  17875  17904  18310  18860  19575  21489
                                                 22359  23710  27696  27838  28017  28722  29173  56480M 56480
 CPSAMCOD      1 00000A22 FFFFFFEC     R    4556  4564   4574   4584   4593   4602   4611   4621   4630   4639
 CPSAMFLG      1 00000A21 FFFFFFEC     R    4516  4520   4525   4530   4535   4540   4545   4550   4661   4661
 CPSCNFLG      1 00000CD0 FFFFFFEC     R    5232  5243   5252   5263
 CPSCNF2       1 00000CD1 FFFFFFEC     R    5268  5272
 CPSCNMAX      1 00000014 FFFFFFEC A   U    5284  5285
 CPSCRI        2 00000434 FFFFFFEC     H    3493  3498   3498
 CPSECCLK      4 000001F4 FFFFFFEC     F    2722 56329  56359M
 CPSECCNT      2 000001F0 FFFFFFEC     H    2721 56354M 56354  56364  56365M
 CPSEG        60 00000050 FFFFFFEC     X    2573  8570  10451  10497  10532  10560  10585  10625  10647  10666  10692
                                                 11943  11987  12005  14669  14697  14736  14764  14805  14833  14851
1ACMD     (ACMD4072) (12:39) (15MAR04) Ordinary Symbol and Literal Cross Reference                                          Page  177
                                                 14920  14972  15024  15126  15179  15232  15315  15369  15388  16396
                                                 16424  16442  16470  16505  16533  16551  16573  16612  16654  16679
                                                 16738  16784  16803  16838  16860  16885  16904  16939  16961  16996
                                                 17018  17053  17075  17944  17962  18010  18044  18066  18084  18123
                                                 18144  18162  18180  19033  19061  19104  19132  19175  19203  19246
                                                 19274  19316  19356  19378  19397  20358  21148  21166  21641  21663
                                                 21698  21720  21755  21793  21833  21855  21905  21923  21973  21991
                                                 22010  22113  22132  22721  23023  23237  23406  23796  23992  24022
                                                 24066  24133  24151  24179  24197  24235  24265  24287  24317  24347
                                                 24381  24466  24499  24517  24568  24677  24706  24754  24772  24808
                                                 24838  24856  24885  24957  24985  25103  25143  25190  25243  25340
                                                 25417  25494  25624  25691  26011  26029  26064  26093  26111  26151
                                                 26181  27137  27181  27199  27217  27236  27326  27367  27392  27482
                                                 27765  27817  27872  27890  27996  28051  28069  28111  28152  28212
                                                 28230  28253  28271  28289  28307  28325  28343  28368  28392  28410
                                                 28450  28879  28913  28949  29001  29029  29063  29330  29363  29408
                                                 29452  29496  29514  29547  30223  30277  30491  30914  31155  31183
                                                 31211  31239  33225  33253  33271  33299  33517  33544  33607  33634
                                                 41539  41557  43120  43138  43166  43184  43241  43271  43640  43658
                                                 43686  43720  43748  43766  43805  43833  43851  43891  43964  44003
                                                 44042  44081  44135  44174  44213  44252  44295  44324  44409  44427
                                                 44463  44481  44504  44567  44597  44676  44737  45108  45175  45208
                                                 45230  45258  45390  45435  45471  45510  45552  45586  45616  45646
                                                 45671  45709  45731  45763  45797  45819  45837  45900  45961  45979
                                                 46007  46055  46073  46101  46149  46167  46195  46257  46293  46331
                                                 46373  46427  46463  46491  46525  46564  46592  46654  46716  46734
                                                 46764  46782  46817  46835  46873  46903  46921  46963  46993  47011
                                                 47033  47099  47148  47166  47210  47228  47276  47294  47339  47387
                                                 47405  47450  47512  47549  47567  47588  47606  47627  47684  47702
                                                 47751  47769  47818  47836  47885  47903  47952  47970  48018  48036
                                                 48102  48163  48181  48232  48250  48331  48349  48411  48526  48544
                                                 48606  48624  48694  48717  48766  48802  48864  49603  49741  49759
                                                 49787  49805  49890  49918  49936  49964  50052  50080  50098  50126
                                                 50241  50458  50832  52034  52085  52124  52163  52202  52241  52280
                                                 52319  53389  53455  53483  53501  53529  54839  55634  55662  55680
                                                 55708  55738  55880  56042  56132  56187  56429  56447  56465  56499
                                                 56655  56702  56807  56829  56873
 CPSEGCOD      1 00000050 FFFFFFEC     R    2490  2499   2509   2519   2529   2539   2549   2559
 CPSEGLENF
               4 0000005C FFFFFFEC     A    2565 44527M 44527  44542  45860M 45860  45875  46217M 46217  46232  46614M
                                                 46614  46629  47059M 47059  47074  47472M 47472  47487  48062M 48062
                                                 48077  48371M 48371  48386  48654M 48654  48669  48824M 48824  48839
 CPSEGMRKF
               4 00000058 FFFFFFEC     A    2564 44542  45875  46232  46629  47074  47487  48077  48386  48669  48839
 CPSFADM       2 000003BE FFFFFFEC         3226 32021  32021  32023  32023  32077  32077  42706  42706  42708  42708
                                                 42762  42762  53718  53718  53719
 CPSFAPR      64 000003BE FFFFFFEC         3201 30194  30194  30195  32021  32021  32022  32022  32024  32077  32077
                                                 32078  32210  35296  41503  42706  42706  42707  42707  42709  42762
                                                 42762  42763  42895  44099  53695
 CPSFL         1 00000384 FFFFFFEC     R    2841  2845   2850   2855   2860   2865
 CPSFLG        1 000003F8 FFFFFFEC     R    3381  3385   3390   3395   3400   3405   3410   3415   3420
 CPSFLG2       1 000003F9 FFFFFFEC     R    3426  3430   3435   3440
 CPSFL2        1 00000385 FFFFFFEC     R    2871  2875   2880   2885   2890
 CPSFL3        1 00000386 FFFFFFEC     R    2896  2900   2905   2910
 CPSFL4        1 00000387 FFFFFFEC     R    2916  2920   2925   2930
 CPSFL5        1 00000388 FFFFFFEC     R    2936  2940   2945   2950
 CPSFNECH      1 000003F8 FFFFFFEC         3420 54814  55855
 CPSFNTIM     16 000003EE FFFFFFEC         3334 17345M
 CPSFSPR      32 000003BE FFFFFFEC         3206 13232  26300  30194  30194  54931  55578
1ACMD     (ACMD4072) (12:39) (15MAR04) Ordinary Symbol and Literal Cross Reference                                          Page  178
 CPSFSUB       4 000003BE FFFFFFEC         3221 32022  32022  32023  32023  32325  42707  42707  42708  42708  43010
                                                 53718  53718  53740  53790
 CPSGRP        2 000003B7 FFFFFFEC     C    3105  9450  24089  30315  30740  30966  32058  32192  32245  32259  41517
                                                 42743  42877  42930  42944  49268  49697  53590  53772  53898
 CPSIDMAX      2 0000042E FFFFFFEC     H    3488 17346M 17891
 CPSKAFL       1 000003BF FFFFFFEC     R    3237  3241   3246   3251   3256   3261  30703
 CPSKIFL       1 000003BE FFFFFFEC     R    3192  3196   3201   3206   3211   3216   3221   3226   3231  30702
 CPSNAME      20 000003C6 FFFFFFEC     C    3273  8141M  8141   8304M  8304   8319   8325M
 CPSOF         1 000001F8 FFFFFFEC     X    2724  2726   2726
 CPSOFLAG      1 00000416 FFFFFFEC     R    3451  3455   3460   3465   3470   3475
 CPSOPST       4 000003C4 FFFFFFEC     F    3271  3500   3500
 CPSPORT       8 00000354 FFFFFFEC     C    2835  2955   2955
 CPSPROJ       8 000003F0 FFFFFFEC     C    3377 22803M 22870  22959M 22959  22974  23010  23015  23458
 CPSQFLG       1 000003EC FFFFFFEC     R    3300  3304
 CPSSFLG       1 000003BB FFFFFFEC     R    3110  3114   3119   3124   3129   3134   3139
 CPSSTART      4 00000344 FFFFFFEC     F    2827  2831   2831   3267   3267   3372   3372   3504   3504
 CPSSTAT       1 0000038F FFFFFFEC     R    3047  3051   3056   3061   3066   3071   3076   3081
 CPSTACF       1 000003BC FFFFFFEC     R    3145  3149   3154   3159   3164   3169   3174   3179   3184
 CPSTART       4 00000000 FFFFFFEC     C    2463  6157   6161
 CPSTCONS      1 0000038C FFFFFFEC         2969  8128  18871
 CPSTFLAG      1 000003EA FFFFFFEC     R    3278  3282   3287   3292
 CPSTYPE       1 0000038C FFFFFFEC     R    2960  2969   2979   2989   2999   3009   3019   3029   3039
 CPSUFLG       1 000003EE FFFFFFEC     R    3315  3319   3324   3329   3334   3339   3344   3349   3354
 CPSUFLG2      1 000003EF FFFFFFEC     R    3360  3364   3369
 CPSUSER       3 000003B4 FFFFFFEC     C    3104 24104  30316  30739  32338  43023  49712  53575  53750
 CPSVFATH      1 00000040 FFFFFFEC A   U    3097 11404
 CPSVFLAG      1 000003A8 FFFFFFEC     X    3095 11406
 CPSVFRUN      1 00000080 FFFFFFEC A   U    3096 11401
 CPSVPGM       8 0000039C FFFFFFEC     C    3093  3099   3099
 CPS1ST        4 0000038C FFFFFFEC     F    2957  3502   3502
 CPTEMPP#      1 0000005F FFFFFFEC A   U    4410  4412
 CPTRMFL1      1 00000C7A FFFFFFEC     R    5068  5072   5077   5082   5206   5206
 CPTRMFL2      1 00000C7B FFFFFFEC     R    5088  5092   5097   5102   5107   5112   5117
 CPTRMFL3      1 00000C7C FFFFFFEC     R    5123  5127   5132   5137   5142   5147   5152   5157
 CPTRMFL4      1 00000C7D FFFFFFEC     R    5163  5167   5172   5177   5182   5187   5192   5197
 CPUSED        1 00000FBC FFFFFFEC A   U    6157  6158
 CPUSERSV      3 000001B8 FFFFFFEC     C    2709 53647
 CPVACURS      8 00000AF0 FFFFFFEC     D    4935  4936   4937
 CPVCURS       8 00000AE0 FFFFFFEC     D    4929  4930   4931
 CPVFLAG       1 00000AC8 FFFFFFEC     R    4730  4734   4739   4744   4749   4754
 CPVFLAG2      1 00000AC9 FFFFFFEC     R    4760  4764   4769   4774   4779   4784   4789
 CPVFLAG3      1 00000ACA FFFFFFEC     R    4795  4799   4804   4809   4814   4819   4824
 CPVFLAG4      1 00000ACB FFFFFFEC     R    4830  4834   4839   4844
 CPVLFLAG      1 00000ACE FFFFFFEC     R    4899  4903   4908   4913
 CPVMODE       1 00000ACC FFFFFFEC     R    4852  4856   4861   4866   4871   4876   4881   4886   4891
 CPVTWID       2 00000AD0 FFFFFFEC     H    4919  4922   4922
 CPWAPP        8 00000190 FFFFFFEC     C    2705 23600M 23600  23606M
 CPWCHAR      16 00000448 FFFFFFEC     C    3515 10754  11713M 11924M 11924  11974  11979
 CPWK1         4 00000D60 FFFFFFEC     F    5603  5618   5641
 CPWK2         4 00000D64 FFFFFFEC     F    5604  5619   5633
 CPWK3         4 00000D68 FFFFFFEC     F    5605  5620   5634
 CPWK4         4 00000D6C FFFFFFEC     F    5606  5621   5635
 CPWK5         4 00000D70 FFFFFFEC     F    5607  5623   5628   5636
 CPWK6         4 00000D74 FFFFFFEC     F    5608  5624   5629   5637   5644   5646
 CPWK7         4 00000D78 FFFFFFEC     F    5609  5622   5638
 CPWPROJ       8 00000188 FFFFFFEC     C    2704 22870M 23258M 23342M 23342  23357  23393  23398  23465
 CPXFLAG       1 000007FD FFFFFFEC     R    4197  4201
 CPXSTATE      4 000007F8 FFFFFFEC     F    4191  4204   4204
 CTLPSETO      1 00000066 FFFFFFE8 A   U    7173 31251
1ACMD     (ACMD4072) (12:39) (15MAR04) Ordinary Symbol and Literal Cross Reference                                          Page  179
 CV         4016 00000000 FFFFFFEE     J    2366  1174U
 CV#WC         1 00000003 FFFFFFEE A   U    1596 25959  26402  26472
 CVABORT       4 000007DA FFFFFFEE     I    2145 10697B 15393B 19402B 22137B 24711B 49608B
 CVABSENT      4 000007F0 FFFFFFEE     I    2155 29725B 29801B
 CVABSRTN      4 0000088C FFFFFFEE     V    2180  2155
 CVABTMSG      4 000007CC FFFFFFEE     I    2140  8153B  8697B  8900B 26517B 28461B 32404B 33057B 33310B 39580B 49569B
                                                 50137B 53401B 55501B 55720B
 CVAMSG      235 00000BFC FFFFFFEE     X    2327 23946M 23946  24037  24042
 CVAMSGCK      4 00000BF8 FFFFFFEE     F    2326 23961
 CVBLANKS    235 000004D8 FFFFFFEE     C    1960  9449   9565   9681   9797   9822  10175  10246  22974  23357  24007
                                                 24553  24998  25116  27798  28475  28982  32698  41472  43256  44394
                                                 44448  45456  45918  46278  46673  47534  47641  48120  48464  50291
                                                 50508  51557  54065  56199
 CVBRMSK       1 00000751 FFFFFFEE     X    2096  2097   2098
 CVCFLAG       1 00000A00 FFFFFFEE     R    2261  2265   2270   2275   2280   2285
 CVCHKST       8 000009F0 FFFFFFEE     D    2251  2341   2341
 CVCHKST2      8 00000E28 FFFFFFEE     D    2344  2347   2347
 CVCHKUC       2 000009F4 FFFFFFEE     H    2254 30403  30404M
 CVCOMRTN      4 0000087C FFFFFFEE     V    2176  2146
 CVCURJCB      4 000001C8 FFFFFFEE     A    1445 27260  27416  27487  27904  55427  56508
 CVDBGFLG      1 000004CC FFFFFFEE     R    1950  1954
 CVENT         4 0000074C FFFFFFEE     I    2094  8059B  8446B  8645B  8840B  8947B  9303B  9929B  9996B 10063B 10131B
                                                 10367B 10787B 11794B 11888B 12065B 12238B 13053B 13124B 13196B 13539B
                                                 13610B 13682B 13753B 13825B 13911B 13997B 14079B 14163B 14234B 14307B
                                                 14378B 14466B 14608B 15500B 15864B 15937B 16011B 16084B 16158B 16231B
                                                 16321B 17150B 17542B 17609B 17738B 17824B 18259B 18651B 18722B 18809B
                                                 18972B 19524B 19980B 20051B 20123B 20194B 20266B 20414B 20487B 20576B
                                                 20840B 20907B 20974B 21041B 21108B 21217B 21279B 21350B 21438B 21580B
                                                 22249B 22529B 22621B 22922B 23082B 23305B 23501B 23659B 25817B 25910B
                                                 26243B 26631B 26698B 26783B 26857B 27092B 27640B 28671B 28817B 29122B
                                                 29268B 29628B 30093B 30159B 30457B 30651B 31485B 31552B 31619B 31686B
                                                 31753B 31820B 31943B 35266B 35437B 35509B 35580B 35652B 35723B 35792B
                                                 35861B 35930B 35999B 36068B 36137B 36223B 36379B 36451B 36522B 36612B
                                                 36684B 36755B 36827B 36898B 36970B 37041B 37113B 37190B 37267B 37342B
                                                 37417B 37488B 37560B 37654B 37725B 37798B 38094B 38260B 38368B 38476B
                                                 38584B 38692B 38767B 38834B 38941B 39026B 39093B 39211B 39278B 39422B
                                                 39489B 39635B 39706B 39778B 39849B 39921B 39993B 40064B 40231B 40302B
                                                 40374B 40445B 40517B 40589B 40660B 40731B 40803B 40877B 40948B 41022B
                                                 41093B 41160B 41297B 41415B 41665B 41766B 41839B 41979B 42052B 42169B
                                                 42242B 42312B 42634B 43453B 43571B 49060B 49367B 49428B 49493B 49662B
                                                 49856B 50018B 50180B 50397B 50614B 50730B 50891B 51006B 51079B 51194B
                                                 51338B 51411B 51526B 51659B 51732B 51811B 51885B 51980B 52438B 52540B
                                                 52793B 52860B 52924B 52988B 53086B 53315B 54035B 54369B 54658B 55280B
                                                 55341B 55402B 55548B 55807B 56306B 56589B 56753B
 CVENTBR       2 00000750 FFFFFFEE     I    2095  2096
 CVERRMSG      4 000007C8 FFFFFFEE     I    2139  8243B  9382B 12380B 15642B 18401B 19666B 20370B 20867B 21177B 22732B
                                                 23248B 23584B 26372B 27973B 33098B 33337B 49246B 49976B 50252B 50469B
                                                 50843B 52820B 53541B
 CVERROR       4 000007D6 FFFFFFEE     I    2144  2160B 41562B
 CVEXIRTN      4 0000077C FFFFFFEE     V    2124  2120
 CVEXNO        1 00000000 0000002A     T   27014 27014  48934
 CVFCHRKBPR
               8 000004C9 FFFFFFEE         1865  1881   1881
 CVFCHRKBSE
               4 000004C9 FFFFFFEE         1870  1881   1881
 CVFCHRKCPR
               2 000004C9 FFFFFFEE         1887  1903   1903
 CVFCHRKCSE
               1 000004C9 FFFFFFEE         1892  1903   1903
1ACMD     (ACMD4072) (12:39) (15MAR04) Ordinary Symbol and Literal Cross Reference                                          Page  180
 CVFCHRUBPR
             128 000004C9 FFFFFFEE         1821  1837   1837
 CVFCHRUBSE
              64 000004C9 FFFFFFEE         1826  1837   1837
 CVFCHRUCPR
              32 000004C9 FFFFFFEE         1843  1859   1859
 CVFCHRUCSE
              16 000004C9 FFFFFFEE         1848  1859   1859
 CVFL          1 000004C4 FFFFFFEE     R    1617  1621   1626   1631   1636   1641   1646   1651   1656
 CVFL2         1 000004C5 FFFFFFEE     R    1662  1666   1671   1676   1681   1686   1691   1696   1701
 CVFL3         1 000004C6 FFFFFFEE     R    1707  1711   1716   1721   1726   1731   1736   1741   1746
 CVFL4         1 000004C7 FFFFFFEE     R    1752  1756   1761   1766   1771   1776   1781   1786
 CVFL5         1 000004C8 FFFFFFEE     R    1792  1796   1801   1806   1811
 CVFL6         1 000004C9 FFFFFFEE     R    1817  1821   1826   1838   1843   1848   1860   1865   1870   1882   1887
                                                  1892   1904
 CVFNOSMF     32 00000A00 FFFFFFEE         2275 30370M 30394M 30509
 CVFRLG       16 000004C4 FFFFFFEE         1636 22863  23112  32644
 CVHACKWT      2 000005F8 FFFFFFEE     R    1973 27935  55458
 CVHEAP#       1 00000200 FFFFFFEE A   U    1523  1524
 CVINVRTN      4 00000888 FFFFFFEE     V    2179  2149
 CVJESFLG      1 000004CA FFFFFFEE     R    1910  1914
 CVLNKRGS      4 00000780 FFFFFFEE     F    2126  2101M  2127
 CVLNKRTN      4 000007B0 FFFFFFEE     U    2127  2116M
 CVLOCK1       1 00000088 FFFFFFEE     R    1268  1272   1277
 CVLOCK2       1 00000089 FFFFFFEE     R    1282  1286
 CVLOCK3       1 0000008A FFFFFFEE     R    1291  1295
 CVLOCK4       1 0000008B FFFFFFEE     R    1300  1304
 CVLOGMOD      1 00000068 FFFFFFEE     R    1255  1259
 CVMACH        1 00000067 FFFFFFEE     R    1215  1219   1224   1229   1234   1239   1244   1249
 CVMILERR      4 000007F6 FFFFFFEE     I    2158 22840B 31284B
 CVMILRTN      4 00000884 FFFFFFEE     V    2178  2158
 CVNEXT        4 000007DE FFFFFFEE     I    2146  8366B  8583B  8781B  9148B 11707B 11715B 12015B 12106B 12431B 14545B
                                                 15680B 17089B 17403B 18198B 18452B 18909B 19717B 21517B 22422B 22876B
                                                 23123B 23259B 23612B 25709B 25838B 25986B 26523B 26922B 27290B 27446B
                                                 27517B 28528B 28750B 29201B 29867B 30406B 31303B 33684B 43360B 56538B
 CVNOACTN      4 000007EA FFFFFFEE     I    2152 27899B 28078B 28419B 54890B 55743B
 CVNOARTN      4 00000890 FFFFFFEE     V    2181  2152
 CVNWDATE      4 00000608 FFFFFFEE     F    1983  1987   1987
 CVNWMPG#      1 00000008 FFFFFFEE A   U    1985  1986
 CVNXTMSG      4 000007D0 FFFFFFEE     I    2141 23037B 23420B 30524B
 CVPFXRTN      1 00000000 00000000 A   T    2124  2124
 CVPGFLAG      1 00000A01 FFFFFFEE     R    2291  2295   2300   2305
 CVPIOSZ       1 00004F80 FFFFFFEE A   U    1354  1356
 CVPPDBQH      4 0000009C FFFFFFEE     A    1312  1313
 CVPSFNO       1 000003E9 FFFFFFEE A   N    1476  1478
 CVPSLNO       1 000007CF FFFFFFEE A   N    1477  1478
 CVPXSZ        1 00000008 FFFFFFEE A   U    1355  1356
 CVR          12 0000000C 00000001 A   #    1099  1174U
 CVRG16       32 00000360 FFFFFFEE     X    1584 25960  25981  26403  26424  26473  26494
 CVRKEY        1 00000008 FFFFFFEE A   U    2049  2050
 CVSEGRTN      4 00000880 FFFFFFEE     V    2177  2141
 CVSTACK#      1 00000080 FFFFFFEE A   U    1515  1516
 CVSTART       4 00000000 FFFFFFEE     C    1188  2359
 CVTRC         4 00000768 FFFFFFEE     I    2116  2102B
 CVTRCRTN      4 00000778 FFFFFFEE     V    2123  2117
 CVUPPTBL      4 000008A8 FFFFFFEE     V    2186 41610
 CVUSFNO       1 00000001 FFFFFFEE A   N    1483  1485
 CVUSLNO       1 000003E7 FFFFFFEE A   N    1484  1485
 CVVOL#        1 00000005 FFFFFFEE A   U    2334  2335
1ACMD     (ACMD4072) (12:39) (15MAR04) Ordinary Symbol and Literal Cross Reference                                          Page  181
 CVWTOFLG      1 000004CB FFFFFFEE     R    1920  1924   1929   1934   1939   1944
 CVWTOSGP      4 00000748 FFFFFFEE     V    2083 30339  36170  36331
 DATE          1 00000000 00000029     T   27013 27013
 DEBUGSG       1 00000000 00000000 A   T    2077  2077
 DEFDSTRT      1 00008FD1 00000001     U   42422 42584  42584
 DEFKWR      504 00008FCC 00000001     X   42598 33727
 DEFSTART      4 00008FCC 00000001     F   42417 42598  42598  42599
 DEFUSER       3 00008FCC 00000001     C   42418 42420  42420
 DEQUOTE       1 00000000 0000000D     T   10325 10325  30576  42388  52372
 DESTVER       1 00000000 00000043     T   52376 52376
 DEV          12 00000000 FFFFFFEB     J    4715  4723
 DEVMAX#       1 00000002 FFFFFFEC A   U    4666  4723
 DEVTYPE       1 00000001 FFFFFFEB     R    4683  4692   4702
 DISPCOST      1 00000000 00000030     T   27028 27028
 DOTTBL        1 00000000 00000000 A   T    2193  2193
 DRENCFLG      1 00000F9F FFFFFFEC     R    6121  6125   6130   6135   6140   6145
 DRENPROT      1 00000F9E FFFFFFEC     R    6108  6116
 DSNON        40 00000E90 FFFFFFEC     C    5841  5842
 DSNWADSN     44 00000E5C FFFFFFEC     C    5828  5829   5830   5831   5840   5848   6079   6085   6087   6093   6096
                                                  6098   6101   6150
 DSNWAF4       1 00000F37 FFFFFFEC     R    5896  5900   5905   5910   5915   5920   5925   5930   5935
 DSNWAF5       1 00000F38 FFFFFFEC     R    5941  5945   5950   5955   5960   5965   5970   5975   5980
 DSNWAF6       1 00000F39 FFFFFFEC     R    5986  5990   5995   6000   6005   6010   6015   6020   6025
 DSNWAF7       1 00000F3A FFFFFFEC     R    6031  6035   6040   6045   6050
 DSNXG         1 00000004 FFFFFFEC A   U    5833  5835
 DSNXGL        1 00000003 FFFFFFEC A   U    5834  5835
 DSNXU         1 00000007 FFFFFFEC A   U    5835  5837
 DSNXUL        1 00000004 FFFFFFEC A   U    5836  5837
 DSSIZ         1 00000108 FFFFFFEC A   U    6079  6087   6096   6101
 DTB           1 00000000 00000019     T   15445 15445  33731  53275
 EBCTBL        1 00000000 00000000 A   T    2189  2189
 EBCTBL7       1 00000000 00000000 A   T    2192  2192
 ECBLIST       1 00000000 00000000 A   T    2052  2052
 EPARTBL       1 00000000 00000000 A   T    2184  2184
 EXIT3         1 00000000 00000022     T   23456 23456
 FMTDATE       1 00000000 0000003B     T   33730 33730
 FMTRCLCK      1 00000000 00000028     T   27005 27005  30568
 FMTXDATE      1 00000000 00000035     T   30563 30563  48937
 FORCNEW       4 00004F3C 00000001     I   27227 27331B 27372B
 FORCPASS      2 00004ED2 00000001     H   27078 27074
 FSR           0 00000000 00000001 A   #    1009  8053   8387M  8440   8604M  8639   8802M  8835   8915M  8941   9169M
                                                  9298   9904M  9924   9971M  9991  10038M 10058  10106M 10126  10282M
                                                 10362  10712M 10781  11735M 11789  11850M 11883  12031M 12060  12122M
                                                 12232  12452M 13048  13099M 13119  13171M 13191  13514M 13534  13585M
                                                 13605  13657M 13677  13728M 13748  13800M 13820  13886M 13906  13972M
                                                 13992  14054M 14074  14137M 14158  14209M 14229  14281M 14302  14353M
                                                 14373  14425M 14460  14566M 14603  15408M 15494  15701M 15859  15912M
                                                 15932  15986M 16006  16059M 16079  16133M 16153  16206M 16226  16280M
                                                 16315  17110M 17144  17424M 17537  17584M 17604  17713M 17733  17783M
                                                 17818  18219M 18253  18473M 18646  18697M 18717  18769M 18803  18930M
                                                 18967  19417M 19518  19738M 19975  20026M 20046  20098M 20118  20169M
                                                 20189  20241M 20261  20389M 20409  20462M 20482  20550M 20571  20694M
                                                 20835  20882M 20902  20949M 20969  21016M 21036  21083M 21103  21192M
                                                 21212  21252M 21274  21325M 21345  21397M 21432  21538M 21575  22152M
                                                 22243  22442M 22524  22582M 22616  22892M 22917  23052M 23077  23275M
                                                 23300  23435M 23496  23627M 23653  25730M 25812  25853M 25904  26211M
                                                 26237  26543M 26626  26673M 26693  26758M 26778  26819M 26852  26937M
                                                 27087  27575M 27634  28549M 28665  28771M 28812  29082M 29116  29222M
                                                 29263  29566M 29622  29887M 30088  30129M 30154  30421M 30452  30540M
1ACMD     (ACMD4072) (12:39) (15MAR04) Ordinary Symbol and Literal Cross Reference                                          Page  182
                                                 30645  31323M 31480  31527M 31547  31594M 31614  31661M 31681  31728M
                                                 31748  31795M 31815  31862M 31937  33704M 35261  35409M 35432  35484M
                                                 35504  35555M 35575  35627M 35647  35698M 35718  35767M 35787  35836M
                                                 35856  35905M 35925  35974M 35994  36043M 36063  36112M 36132  36198M
                                                 36218  36354M 36374  36426M 36446  36497M 36517  36587M 36607  36659M
                                                 36679  36730M 36750  36802M 36822  36873M 36893  36945M 36965  37016M
                                                 37036  37088M 37108  37165M 37185  37242M 37262  37317M 37337  37392M
                                                 37412  37463M 37483  37535M 37555  37629M 37649  37700M 37720  37772M
                                                 37793  38068M 38089  38210M 38255  38343M 38363  38451M 38471  38559M
                                                 38579  38667M 38687  38741M 38762  38809M 38829  38916M 38936  39000M
                                                 39021  39068M 39088  39186M 39206  39253M 39273  39397M 39417  39464M
                                                 39484  39610M 39630  39681M 39701  39753M 39773  39824M 39844  39896M
                                                 39916  39968M 39988  40039M 40059  40206M 40226  40277M 40297  40349M
                                                 40369  40420M 40440  40492M 40512  40564M 40584  40635M 40655  40706M
                                                 40726  40778M 40798  40852M 40872  40923M 40943  40997M 41017  41068M
                                                 41088  41135M 41155  41272M 41292  41390M 41410  41640M 41660  41741M
                                                 41761  41814M 41834  41954M 41974  42027M 42047  42144M 42164  42217M
                                                 42237  42287M 42307  42353M 42628  43380M 43448  43494M 43566  48889M
                                                 49055  49295M 49362  49403M 49423  49464M 49488  49632M 49657  49828M
                                                 49851  49991M 50013  50152M 50175  50372M 50392  50589M 50609  50705M
                                                 50725  50866M 50886  50981M 51001  51054M 51074  51169M 51189  51313M
                                                 51333  51386M 51406  51501M 51521  51634M 51654  51707M 51727  51786M
                                                 51806  51860M 51880  51935M 51975  52346M 52433  52512M 52535  52614M
                                                 52788  52835M 52855  52883M 52899M 52919  52947M 52963M 52983  53011M
                                                 53027M 53080  53256M 53310  53965M 54029  54290M 54364  54590M 54653
                                                 55147M 55275  55316M 55336  55377M 55397  55521M 55543  55763M 55802
                                                 56243M 56264M 56301  56557M 56584  56721M 56748  56892M
 GBLCMD        1 00000000 0000000B     T   10318 10318
 GETAENT       2 0000A684 00000001     H   49046 10307  15434  19444  22178  23454  27002  28603  30557  33721  43518
 GETAPRT       4 0000A79C 00000001     F   49305 52363
 GETCNUM       2 0000B4F6 00000001     H   53070 42385
 GETCSAVE    176 00000000 FFFFFFDB     X   53054 53120M 53222
 GETCWA      176 00000000 FFFFFFDB     J   53061 53083  53112U 53256  53258  53259
 GETHEAP       1 00000000 00000046     T   54604 54604
 GETKCHK       2 0000B744 00000001     H   53914 53613B
 GETKEXIT      2 0000B75E 00000001     H   53950 53436B 53698B 53775B 53901B
 GETKWR        2 0000B5CE 00000001     H   53301 33725  52367  53297
 GETLNO        2 0000B216 00000001     H   52526 42379
 GETNUM        2 0000B192 00000001     H   52424 42382
 GOTACCT       2 0000A814 00000001     H   49353 49332
 HEXFMT        1 00000000 00000040     T   43529 43529
 HIBAL         1 00000000 FFFFFFFF     J     691   707    720    733    746    759    772    785    798    811    824
                                                   837    850    863    876    889    902
 INTPSH        1 00000000 00000025     T   25776 25776  26958
 INVALID       1 00000000 00000000 A   T    2179  2179
 JCB         208 00000000 FFFFFFE7     J    7533 27270U 27426U 27497U 27914U 55437U 56518U
 JCBAFALO    128 00000062 FFFFFFE7         7382 27281M 27437M 27508M 56529M
 JCBAFL        1 00000062 FFFFFFE7     R    7378  7382   7387   7392   7397   7402   7407   7412   7417
 JCBBFL        1 00000063 FFFFFFE7     R    7423  7427   7432   7437   7442   7447   7452   7457
 JCBBILLX      8 00000088 FFFFFFE7     D    7508  7516   7516
 JCBFATTN      2 00000062 FFFFFFE7         7412 27926M 55449M
 JCBRSCF1      1 00000064 FFFFFFE7     R    7463  7467   7472   7477
 JCBSFLG1      1 00000065 FFFFFFE7     R    7483  7487   7492
 JCBWFL        1 00000060 FFFFFFE7     R    7307  7311   7316   7321   7326   7331   7336   7341   7346   7374
 JCBWWFL       1 00000061 FFFFFFE7     R    7352  7356   7361   7366   7371
 JOBDISP       2 00003938 00000001     H   21566 21562  22185
 JOBPRT        4 00003170 00000001     F   19750 22179
 KACCT         2 00007F0E 00000001     H   36508 33841
 KADMIN        2 00008096 00000001     H   37099 33991
1ACMD     (ACMD4072) (12:39) (15MAR04) Ordinary Symbol and Literal Cross Reference                                          Page  183
 KAHOURS       2 000083F6 00000001     H   38354 34512
 KAMAIL        2 0000198A 00000001     H   13525 12581
 KANOMAIL      2 000019BA 00000001     H   13596 12596
 KASPACE       2 00008C18 00000001     H   41283 34161
 KATTN         2 0000070E 00000001     H   10049  9223
 KAUTH         2 00003542 00000001     H   20562 19883
 KAUTHCOM      2 00003794 00000001     H   20960 20745
 KAUTHGRP      2 000037C0 00000001     H   21027 20760  20775
 KAUTHINV      2 000037EC 00000001     H   21094 20820
 KAUTHNUL      2 00003734 00000001     H   20826 20715
 KAUTHPRT      4 000035F4 00000001     F   20703 22190
 KAUTHPUB      2 00003768 00000001     H   20893 20730
 KAUTHRTN      2 0000383C 00000001     H   21203 20790  20805
 KBATCH        2 000089A6 00000001     H   40360 34752
 KBIN          2 0000ACB4 00000001     H   51065 18556  34947
 KBUDGET       2 00008558 00000001     H   38820 34144
 KCARDS        2 00008698 00000001     H   39264 35007
 KCMD          2 0000ADEC 00000001     H   51512 12701  12731
 KCOMM         2 0000AAE0 00000001     H   50383 34452
 KCOUNT        2 00003506 00000001     H   20473 19867
 KCPU          2 00008612 00000001     H   39079 34977
 KCREATE       2 00008EA8 00000001     H   42228 34177
 KDAY          2 00007EAE 00000001     H   36365 34677
 KDELETE       2 00008ED8 00000001     H   42298 34192
 KDEST         2 0000AB5C 00000001     H   50600 18496  34902
 KEXEC         2 00001ABA 00000001     H   13983 12671
 KEXPRESS      2 000087AC 00000001     H   39621 34587
 KEYGET        1 00000000 00000047     T   54605 54605
 KEYMASK      50 0000C0AC 00000001     C   56272 54852  54857  55893  55898
 KEYNEW        8 00000000 FFFFFFDE     C   27607 28079M 28166  28431  28473
 KEYPRT        4 00005384 00000001     F   28566 28604
 KEYREP        4 00005188 00000001     I   27987 28116B 28157B 28235B 28373B
 KEYSTART      2 0000C0AC 00000001     X   56271 56272  56272
 KEYWA       696 00000000 FFFFFFDE     J   27615 27637  27666U 27676M 27676  27677M 27677  27678M 27678  28549  28551
                                                 28552
 KEYWAWA     688 00000008 FFFFFFDE     X   27608 27680
 KFHOURS       2 0000849E 00000001     H   38570 34542
 KFORCE        2 00003400 00000001     H   20109 19807
 KFORMS        2 0000ABB6 00000001     H   50716 18511  34917
 KFORWARD      2 000004FC 00000001     H    9289  9208
 KFUNDS        2 00008252 00000001     H   37784 34097
 KHOLD         2 00002BE8 00000001     H   18637 18571
 KHOURS        2 000083A2 00000001     H   38246 34497
 KIGNNUM       2 000084F2 00000001     H   38678 34557  34572
 KINT          2 0000880C 00000001     H   39764 34617
 KLGCMPBF    128 00000004 FFFFFFDA     C   54003 54065M 54113M 54130  54160  54175  54212  54236  54318
 KLGCMPBL      4 00000000 FFFFFFDA     F   54002 54086M 54142  54161  54194  54213
 KLGCMPEX      2 0000B814 00000001     H   54270 54185B
 KLGCMPWA    132 00000000 FFFFFFDA     J   54010 54032  54061U 54290  54292  54293
 KLINES        2 00008738 00000001     H   39475 35037
 KLOGCMPR      2 0000B76C 00000001     H   54019 54015
 KLOGCMPR      1 00000000 00000049     T   54609 54609
 KLOGINCK      2 0000B9C0 00000001     H   54355 54351
 KLOGINEX      2 0000BA98 00000001     H   54575 54455B 54483B 54558B
 KLPASS        2 00007C74 00000001     H   35566 34302
 KLTIME        2 00001B22 00000001     H   14149 12912
 KMAIL         2 000081F2 00000001     H   37640 34467
 KMAILTXT      2 0000073A 00000001     H   10117  9283
 KMULT         2 0000AE72 00000001     H   51718 12506  34242
1ACMD     (ACMD4072) (12:39) (15MAR04) Ordinary Symbol and Literal Cross Reference                                          Page  184
 KNAME         2 0000AA64 00000001     H   50166  8419  34437
 KNDATE        2 00001874 00000001     H   13182 12566
 KNETH         2 00008E28 00000001     H   42038 35144
 KNETU         2 00008D98 00000001     H   41825 35114
 KNEWEXEC      2 00001A4A 00000001     H   13811 12641
 KNEWS         2 00001814 00000001     H   13039 12476
 KNOACCT       2 00007F46 00000001     H   36598 33856
 KNOADMIN      2 0000812E 00000001     H   37328 34036
 KNOATTN       2 000006E2 00000001     H    9982  9238
 KNOBATCH      2 000089D6 00000001     H   40431 34767
 KNOBUDG       2 00008526 00000001     H   38753 34129
 KNOCARDS      2 00008666 00000001     H   39197 34992
 KNOCMD        2 0000AE40 00000001     H   51645 12716  12746
 KNOCPU        2 000085E0 00000001     H   39012 34962
 KNODAY        2 00007EDE 00000001     H   36437 34692
 KNOEXEC       2 00001AEE 00000001     H   14065 12686
 KNOEXP        2 000087DC 00000001     H   39692 34602
 KNOFORCE      2 00003430 00000001     H   20180 19822
 KNOFWD        2 000006B4 00000001     H    9915  9193
 KNOHOLD       2 00002C18 00000001     H   18708 18586
 KNOINT        2 0000883C 00000001     H   39835 34632
 KNOLINES      2 00008706 00000001     H   39408 35022
 KNOLPASS      2 00007CA4 00000001     H   35638 34317
 KNOLTIME      2 00001B52 00000001     H   14220 12927
 KNOMAIL       2 00008222 00000001     H   37711 34482
 KNOMULT       2 0000AED6 00000001     H   51871 12521  12536  34272  34287
 KNONETH       2 00008E76 00000001     H   42155 35159
 KNONETU       2 00008DF6 00000001     H   41965 35129
 KNONEWS       2 00001844 00000001     H   13110 12491
 KNONOT        2 00003894 00000001     H   21336 19914
 KNOOPR        2 00008006 00000001     H   36884 33931  33946
 KNOPC         2 0000818E 00000001     H   37474 34066
 KNOPREFX      2 000034D4 00000001     H   20400 19852
 KNOPRIO       2 00008A36 00000001     H   40575 34797
 KNOPROD       2 00008A96 00000001     H   40717 34827
 KNOPSET       2 00008B56 00000001     H   41008 34887
 KNOPTIME      2 00001BB2 00000001     H   14364 12973  12988
 KNORCVY       2 00001A1A 00000001     H   13739 12626
 KNOSBM        2 00008066 00000001     H   37027 33976
 KNOSEC        2 00008976 00000001     H   40288 34737
 KNOSET        2 00008AF6 00000001     H   40863 34857
 KNOSPACE      2 00008B86 00000001     H   41079 35068
 KNOSPR        2 00007FA6 00000001     H   36741 33886
 KNOSTAT       2 0000889C 00000001     H   39979 12896  34662
 KNOSUSP       2 00007C44 00000001     H   35495 33811  33826
 KNOSYS        2 0000AD68 00000001     H   51324 12776  12791
 KNOT          2 00003864 00000001     H   21265 19899
 KNOTIME       2 000088CC 00000001     H   40050 34707
 KNOVOL        2 00008D66 00000001     H   41752 35099
 KNUM          2 000033A0 00000001     H   19966 19762
 KOPR          2 00007FD6 00000001     H   36813 33901  33916
 KORV          2 0000AD9A 00000001     H   51397 12866
 KPASS         2 00008C6C 00000001     H   41401 34212  34227
 KPC           2 0000815E 00000001     H   37403 34051
 KPFORMS       2 0000AC30 00000001     H   50877 18526  34932
 KPNOFORM      2 0000AC82 00000001     H   50992 18541
 KPREFIX       2 00003460 00000001     H   20252 19837
 KPRIO         2 00008A06 00000001     H   40503 34782
 KPROD         2 00008A66 00000001     H   40646 34812
1ACMD     (ACMD4072) (12:39) (15MAR04) Ordinary Symbol and Literal Cross Reference                                          Page  185
 KPSETUP       2 00008B26 00000001     H   40934 34872
 KPTIME        2 00001B82 00000001     H   14293 12943  12958
 KPUBEXEC      2 00001A82 00000001     H   13897 12656
 KRBKEY        6 00000004 FFFFFFE2     C    7746 54411M 54412  54414M 54415M 54416M
 KRBKL#        1 00000006 FFFFFFE2 A   N    7742  7746
 KRBLEN        4 00000000 FFFFFFE2     F    7745 54412  54413M 54499
 KRBLIST       1 00000012 FFFFFFE2     C    7749 54501
 KRBMXDL#      1 00000C80 FFFFFFE2 A   N    7743 54395  54424  54607
 KRBREC       18 00000000 FFFFFFE2     J    7756 54395  54409U 54424  54497U 54607  54608
 KRCVY         2 000019EA 00000001     H   13668 12611
 KSBM          2 00008036 00000001     H   36956 33961
 KSECURE       2 00008946 00000001     H   40217 34722
 KSETUP        2 00008AC6 00000001     H   40789 34842
 KSPACE        2 00008BB8 00000001     H   41146 35053
 KSPR          2 00007F76 00000001     H   36670 33871
 KSTAT         2 0000886C 00000001     H   39907 12881  34647
 KSTATUS       2 000082FC 00000001     H   38080 34113
 KSUBADM       2 000080CA 00000001     H   37176 34006
 KSUPADM       2 000080FE 00000001     H   37253 34021
 KSUSP         2 00007C14 00000001     H   35423 33796
 KSYS          2 0000AD06 00000001     H   51180 12761  12806  12821  12836  12851
 KSYSA         2 00007CD4 00000001     H   35709 34332
 KSYSB         2 00007D08 00000001     H   35778 34347
 KSYSC         2 00007D3C 00000001     H   35847 34362
 KSYSD         2 00007D70 00000001     H   35916 34377
 KSYSF         2 00007DD8 00000001     H   36054 34407
 KSYSG         2 00007E0C 00000001     H   36123 34422
 KSYSH         2 00007DA4 00000001     H   35985 34392
 KTIMDISP      2 0000591C 00000001     H   29254 29250  30565
 KUCP          2 000081BE 00000001     H   37546 34081
 KUHOURS       2 0000844A 00000001     H   38462 34527
 KUNN          2 000033D0 00000001     H   20037 19777  19792
 KVOL          2 00008D1C 00000001     H   41651 35084
 KWIO          1 00000000 00000039     T   31894 31894  52368  54312  56908
 KWR         504 00000000 FFFFFFE1     X    7958  8364M  8364   8365M  8365   8581M  8581   8582M  8582   9135   9146M
                                                  9146   9147M  9147  10396U 12418  12429M 12429  12430M 12430  14532
                                                 14543M 14543  14544M 14544  14637U 15677M 15677  15678M 15678  17087M
                                                 17087  17088M 17088  17401M 17401  17402M 17402  18196M 18196  18197M
                                                 18197  18439  18450M 18450  18451M 18451  18896  18907M 18907  18908M
                                                 18908  19001U 19704  19715M 19715  19716M 19716  21504  21515M 21515
                                                 21516M 21516  21609U 22408  22420M 22420  22421M 22421  25707M 25707
                                                 25708M 25708  27122U 28526M 28526  28527M 28527  28737  28748M 28748
                                                 28749M 28749  28846U 29188  29199M 29199  29200M 29200  29297U 30613
                                                 30737U 32416  32580  32587  33343  43190  43191  43198  43340  43358M
                                                 43358  43359M 43359  43614U 49276  49521  53345U 53939  54713U
 KWRACCH       2 00000044 FFFFFFE1     H    7852 32481M 32481  38401  38432M 46943
 KWRACCT       5 00000000 FFFFFFE1     X    7780 28505  33485  33575  33665
 KWRAFASV      1 00000001 FFFFFFE1 A   U    7802 32497
 KWRAFL        1 0000000F FFFFFFE1     X    7798 24537  25016  31030  32499M 35469M 35540M 39809M 39881M 44275  47726
 KWRAFTOK      1 00000008 FFFFFFE1 A   U    7800 39807  39879  47724
 KWRAFVAL      1 00000080 FFFFFFE1 A   U    7799 24535  25014  30723  35467  35538  44273
 KWRAR         1 00000062 FFFFFFE1     C    7890 44693  44707  44724  44729
 KWRBAL        3 00000017 FFFFFFE1     X    7807 24328  24392  25351  25505  32466M 32466  38974  38981M 45567M 45567
                                                 45627
 KWRBFE        1 00000008 FFFFFFE1 A   U    7817 39664  39736  47925
 KWRBFIN       1 00000040 FFFFFFE1 A   U    7814 40835  40906  48202  48292
 KWRBFL        1 00000020 FFFFFFE1     X    7812 32680M 39666M 39738M 40405M 40477M 40549M 40620M 40691M 40763M 40837M
                                                 40908M 40982M 41053M 47659  47927  48138  48207  48269  48297  48498
                                                 48578
1ACMD     (ACMD4072) (12:39) (15MAR04) Ordinary Symbol and Literal Cross Reference                                          Page  186
 KWRBFNON      1 00000010 FFFFFFE1 A   U    7816 40547  40618  48136
 KWRBFOUT      1 00000020 FFFFFFE1 A   U    7815 40980  41051  48205  48267  48295
 KWRBFP        1 00000004 FFFFFFE1 A   U    7818 32678  40689  40761  48496  48576
 KWRBFVAL      1 00000080 FFFFFFE1 A   U    7813 40403  40475  47657
 KWRBGT        3 00000014 FFFFFFE1     X    7806 24216M 24216  24246  25254  38794M 38867  38897M 45489
 KWRBIN        3 00000010 FFFFFFE1     C    7804 19227M 19227  19261  19266  46124M 46124  46182  46187  51150M
 KWRCDATE      4 000000B8 FFFFFFE1     F    7926 24362M 24362  24471  25643M 25643  25649
 KWRCMD       80 00000152 FFFFFFE1     X    7933 14786M 14786  14820  14825  51557M 51604M 51692M 51692  52377
 KWRCOMM      20 0000009A FFFFFFE1     X    7916 43785M 43785  43820  43825  50492M 50492  50508M 50555M 52374
 KWRCRD        1 00000040 FFFFFFE1 A   U    7964 30749  53355  54721
 KWRCRDT       4 000001B6 FFFFFFE1     X    7936 32506M 32506  32931M 48730
 KWRCWR        1 00000080 FFFFFFE1 A   U    7963 49522
 KWRDEST       8 00000021 FFFFFFE1     C    7820 19014M 19014  19048  19053  45936M 45936  45994  45999  50685M 50686
 KWRDSTRT      1 00000005 FFFFFFE1     U    7782  7944   7944
 KWREND        1 000001F4 FFFFFFE1     U    7946 43191  43198
 KWRFMAIL      1 00000040 FFFFFFE1 A   U    7879  9034   9060  10410  16697  37683  37755  46391
 KWRFMNPR      1 00000008 FFFFFFE1 A   U    7881 15279  43928  51769  51843  51918
 KWRFMULT      1 00000080 FFFFFFE1 A   U    7878 15254  43908  51761  51840  51915
 KWRFNPAS      1 00000004 FFFFFFE1 A   U    7882 35610  35681  44376
 KWRFORM       4 00000029 FFFFFFE1     C    7821 19085M 19085  19119  19124  32595M 46030M 46030  46088  46093  50801M
                                                 50813
 KWRFPCHK      1 00000080 FFFFFFE1 A   U    7905 36559
 KWRFSEC       1 00000020 FFFFFFE1 A   U    7880 40260  40332  47858
 KWRFSYSA      1 00000080 FFFFFFE1 A   U    7825 32634  35744  52063
 KWRFSYSB      1 00000040 FFFFFFE1 A   U    7826 32651  35813  52102
 KWRFSYSC      1 00000020 FFFFFFE1 A   U    7827 35882  52141
 KWRFSYSD      1 00000010 FFFFFFE1 A   U    7828 35951  52180
 KWRFSYSE      1 00000008 FFFFFFE1 A   U    7829 36020  52219
 KWRFSYSF      1 00000004 FFFFFFE1 A   U    7830 36089  52258
 KWRFSYSG      1 00000002 FFFFFFE1 A   U    7831 36175  52297
 KWRGRP        2 00000003 FFFFFFE1     C    7779 16411  16416  24089  24120  24125  24944  24949  30740M 32058  32108
                                                 32122  32136  32150  32164  32178  32276  32296  32696M 32744  32758
                                                 32781  32795  32809  32823  32837  32851  32865  32879  32893  33240
                                                 33245  42743  42793  42807  42821  42835  42849  42863  42961  42981
                                                 43107  43112  43627  43632  49273M 49697  49728  49733  49905  49910
                                                 50067  50072  53470  53475  53590  53662  53772  53814  53828  53842
                                                 53856  53870  53884  55649  55654
 KWRHFCK       1 00000080 FFFFFFE1 A   U    7949 30893  53368  55609
 KWRHFERR      1 00000020 FFFFFFE1 A   U    7954 49582
 KWRHFFUL      1 00000010 FFFFFFE1 A   U    7955 49555
 KWRHFL        1 000001F4 FFFFFFE1     X    7948 30895  49541  49557  49584  53370  55609
 KWRHFUOK      1 00000040 FFFFFFE1 A   U    7950 49539
 KWRHRSAL      2 00000042 FFFFFFE1     H    7851 24723M 24723  24789  24813  25148  38293  38324M 46690
 KWRHRSFR      2 00000066 FFFFFFE1     H    7907 32491M 32491  38617  38648M 46853
 KWRHRSUS      2 00000068 FFFFFFE1     H    7908 24729  25204  32486M 32486  38509  38540M 46792
 KWRIFADM      1 00000002 FFFFFFE1 A   U    7795 31711  36567  37148  37220  37297  37372  37609  44059
 KWRIFAPR      1 00000040 FFFFFFE1 A   U    7790 31644  36551  36642  37592  44152
 KWRIFL        1 0000000E FFFFFFE1     X    7788 30995  31029  32375  32432  33140M 36553M 36572M 36644M 36715M 36787M
                                                 36858M 36930M 37001M 37073M 37145M 37150M 37222M 37227M 37302M 37377M
                                                 37448M 37520M 37603M 37614M 43983  44022  44061  44115  44154  44193
                                                 44232  44339  53416  54726
 KWRIFOPR      1 00000010 FFFFFFE1 A   U    7792 31577  36856  36928  37598  44191
 KWRIFPC       1 00000001 FFFFFFE1 A   U    7796 31845  37446  37518  37601  43981
 KWRIFSBM      1 00000008 FFFFFFE1 A   U    7793 31778  36999  37071  44230
 KWRIFSPR      1 00000020 FFFFFFE1 A   U    7791 30993  31510  36713  36785  37595  44113
 KWRIFSUB      1 00000004 FFFFFFE1 A   U    7794 36570  37143  37225  37300  37375  37612  44020
 KWRIFVAL      1 00000080 FFFFFFE1 A   U    7789 30722  30990  32373  32430  33138  44337  53414  54726
 KWRJFATH      1 00000007 FFFFFFE1 A   U    7843 20614
 KWRJFCOM      1 00000002 FFFFFFE1 A   U    7845 20999  22052
1ACMD     (ACMD4072) (12:39) (15MAR04) Ordinary Symbol and Literal Cross Reference                                          Page  187
 KWRJFFOR      1 00000040 FFFFFFE1 A   U    7840 20152  20224  21733
 KWRJFGRP      1 00000001 FFFFFFE1 A   U    7846 21066  22027
 KWRJFHOL      1 00000010 FFFFFFE1 A   U    7841 18680  18752  19334
 KWRJFL        1 00000037 FFFFFFE1     X    7838 18682M 18754M 19336  20011M 20083M 20154M 20226M 20616M 20934M 21001M
                                                 21068M 21310M 21382M 21621  21678  21735  22029  22054  22079  32681M
 KWRJFNOT      1 00000008 FFFFFFE1 A   U    7842 21308  21380  21619
 KWRJFNUM      1 00000080 FFFFFFE1 A   U    7839 20009  20081  21676
 KWRJFPUB      1 00000004 FFFFFFE1 A   U    7844 20932  22077  32681
 KWRJNO        2 00000040 FFFFFFE1     H    7849 20514M 21869  32476M 32476
 KWRJPFX       8 00000038 FFFFFFE1     C    7848 20297M 20298M 20447M 20447  21774M 21774  21798  22186  32698M 32699M
                                                 32700M
 KWRKTIM       4 0000005C FFFFFFE1     X    7885 27530M 28478M 29310M 29310  29377  29416  32513M 32513  32930M 41615M
 KWRLCP        2 0000001A FFFFFFE1     H    7808 39238M 39305  39378M 47250
 KWRLET        2 0000001E FFFFFFE1     H    7810 39053M 39120  39167M 47122
 KWRLLC        2 0000001C FFFFFFE1     H    7809 39449M 39516  39591M 47361
 KWRLPORT     20 000001A2 FFFFFFE1     X    7934 28967M 28967  28982  29016  29021
 KWRLTIM       4 00000058 FFFFFFE1     X    7884 28859M 28859  28918  32518M 32518
 KWRMACC       1 00000035 FFFFFFE1     X    7824 32656M 36287M 36311M 44509
 KWRMFOR      64 000000C2 FFFFFFE1     X    7930  9433M  9433   9449M  9450M  9451M  9452M  9547M  9547   9565M  9566M
                                                  9663M  9663   9681M  9682M  9779M  9779   9797M  9798M  9822M  9869M
                                                  9956M  9956  10324  10432M 10432  10464  10469  16719M 16719  16751
                                                 16756
 KWRMPRIM      1 000000AE FFFFFFE1     X    7918 32634M 32651M 32656  36279M 36287  44486
 KWRMTD        3 000000BC FFFFFFE1     X    7927 24298  25428  45597
 KWRMTXT      80 00000102 FFFFFFE1     X    7931 10175M 10222M 10246  10259M 10259  10327  10513M 10513  10547  10552
                                                 16593M 16593  16625  16630
 KWRNAME      20 00000078 FFFFFFE1     X    7913  8325   8349   8520   8525   8536M  8536  16486M 16486  16520  16525
                                                 43701M 43701  43735  43740  50275M 50275  50291M 50338M 52373
 KWRNETH      32 000001CC FFFFFFE1     C    7941 41924M 41924  41931M 42116  42121  42202M 42202  42378  42395  46545M
                                                 46545  46579  46584
 KWRNETU      16 000001BC FFFFFFE1     C    7940 41903  41908  42012M 42012  42393  46444M 46444  46478  46483
 KWRNEWDT      4 000000B4 FFFFFFE1     F    7924 13495M 33011M
 KWRNTDEF      2 0000004A FFFFFFE1     H    7870 17346  17569M 17694M 17911  40119M 40119  40182M 47576
 KWRNTMAX      2 0000004C FFFFFFE1     H    7871 17648M 17648  17662  17669  17689  18104M 18104  18132  40124M 40124
                                                 40183M 47615
 KWROFL        1 00000057 FFFFFFE1     X    7877  9036M  9062M 10412  15256  15281  16699  35612M 35683M 37685M 37757M
                                                 40262M 40334M 43910  43930  44378  46393  47860  51763M 51771M 51845M
                                                 51920M
 KWRORV        8 0000002D FFFFFFE1     X    7822 14717M 14717  14751  14756  51482M
 KWRPASS       8 00000070 FFFFFFE1     X    7912 27307  27378M 27463  27783M 27783  27798  27956  28473M 28475M 28506
                                                 28612  32444M 32444  33666  41472M 41594M 41611M 42389  43096M 43517
                                                 55485
 KWRPBAL       3 000000BF FFFFFFE1     X    7928 24423  25536
 KWRPFL        1 00000065 FFFFFFE1     X    7904 36561M
 KWRPFORM      4 0000004E FFFFFFE1     X    7872 19156M 19156  19190  19195  50962M 51039M 51039
 KWRRJE        2 00000008 FFFFFFE1     H    7784 20531M 21937  32449M 32449
 KWRSEXP       1 000000F1 FFFFFFE1 A   U    7893 24589  25038
 KWRSFKEP      1 00000080 FFFFFFE1 A   U    7834 16042  16116  16974
 KWRSFL        1 00000036 FFFFFFE1     X    7833 15897M 15971M 16044M 16118M 16191M 16265M 16919  16976  17033  32471M
 KWRSFMAI      1 00000040 FFFFFFE1 A   U    7835 15895  15969  16917
 KWRSFMLQ      1 00000020 FFFFFFE1 A   U    7836 16189  16263  17031
 KWRSOF        1 00000061 FFFFFFE1     C    7889 38049M 44610  44615  44628  44642  44762  44788  44814  44840  44866
                                                 44892  44918  44944  44970  44996  45022  45048  45074
 KWRSOVB       1 000000F3 FFFFFFE1 A   U    7895 24616  25065
 KWRSPMAX      2 0000000C FFFFFFE1     H    7786 41120M 41187  41253M 45689
 KWRSPUSD      2 0000000A FFFFFFE1     H    7785 32454M 32454  41324  41371M 45777
 KWRSTART      4 00000000 FFFFFFE1     F    7777  7958   7958   7959
 KWRSTAT       1 00000063 FFFFFFE1     C    7892 24589  24616  24643  25038  25065  38191M 45127  45141  45245  45250
                                                 45278  45304  45330  45356
1ACMD     (ACMD4072) (12:39) (15MAR04) Ordinary Symbol and Literal Cross Reference                                          Page  188
 KWRSUHL       1 000000F4 FFFFFFE1 A   U    7896 24643
 KWRSYS        8 00000092 FFFFFFE1     X    7915 14650M 14650  14684  14689  51265M 51277  51290M 51290  51371M 51371
 KWRTACF       1 00000048 FFFFFFE1     X    7855 15335  36411M 36482M 39953M 40024M 40131M 47793  47993
 KWRTFAE       1 00000004 FFFFFFE1 A   U    7866 13856  13942  14026  14111  15042  32711
 KWRTFAK       1 00000001 FFFFFFE1 A   U    7868 14336  14408  15198
 KWRTFAL       1 00000002 FFFFFFE1 A   U    7867 14192  14264  15145
 KWRTFAM       1 00000010 FFFFFFE1 A   U    7864 13568  13640  14938  32705
 KWRTFAN       1 00000020 FFFFFFE1 A   U    7863 13082  13154  14886  32905
 KWRTFANE      1 00000010 FFFFFFE1 A   U    7901 13861  13955  14037  14120  15090  32726  32913
 KWRTFAPE      1 00000080 FFFFFFE1 A   U    7899 13869  13947  14034  14117  15065  32719  32920
 KWRTFAR       1 00000008 FFFFFFE1 A   U    7865 13711  13783  14990  32708
 KWRTFL        1 00000049 FFFFFFE1     X    7860 13084M 13156M 13570M 13642M 13713M 13785M 13858M 13944M 14028M 14113M
                                                 14194M 14266M 14338M 14410M 14888  14940  14992  15044  15147  15200
                                                 32713M 32907M
 KWRTFL2       1 00000064 FFFFFFE1     X    7898 10023M 10091M 10605  13863M 13871M 13949M 13957M 14039M 14122M 15067
                                                 15092  16818  32721M 32728M 32915M 32922M
 KWRTFMNOATTN
               1 00000008 FFFFFFE1 A   U    7902 10021  10089  10603  16816
 KWRTNDAY      1 00000002 FFFFFFE1 A   U    7858 36409  36480  47991
 KWRTNST       1 00000080 FFFFFFE1 A   U    7856 15333  39951  40022  47791
 KWRTNTM       1 00000040 FFFFFFE1 A   U    7857 40129
 KWRUSER       3 00000000 FFFFFFE1     C    7778  7780   7780  16457  16462  24104  24166  24171  24972  24977  30739M
                                                 32338  32415M 32557  32697M 32699  33286  33291  43023  43153  43158
                                                 43673  43678  43871  48435  49274M 49712  49774  49779  49951  49956
                                                 50113  50118  53516  53521  53575  53647  53750  55695  55700
 KWRVOL        6 0000008C FFFFFFE1     X    7914 41722M 41799M 41799  46312M 46312  46344  46349
 KWRWRCT       1 00000013 FFFFFFE1     X    7805 32459M
 KWRXCNT       1 000000AF FFFFFFE1     X    7921 32525M
 KWRXTIM       4 000000B0 FFFFFFE1     X    7922 32530M 32530
 KXMULT        2 0000AEA6 00000001     H   51797 12551  34257
 KXSYS         2 00007E52 00000001     H   36209 38228
 K4REALM      16 0000B822 00000001     C   54296 54195  54214  54214
 K5REALM      13 0000B832 00000001     C   54297 54143  54162  54162
 LOCALTOD      1 00000000 00000027     T   27004 27004  30567  33729
 LOGEVENT      1 00000000 00000017     T   12175 12175
 LOGKWR        1 00000000 00000018     T   15439 15439  19461  22183  28601  33722  43519  56929
 LOWTBL        1 00000000 00000000 A   T    2187  2187
 LRTRIM        1 00000000 00000016     T   12174 12174  27007
 LSR           8 00000008 00000001 A   #    1047  8053   8387M  8440   8604M  8639   8802M  8835   8915M  8941   9169M
                                                  9298   9904M  9924   9971M  9991  10038M 10058  10106M 10126  10282M
                                                 10362  10712M 10781  11735M 11789  11850M 11883  12031M 12060  12122M
                                                 12232  12452M 13048  13099M 13119  13171M 13191  13514M 13534  13585M
                                                 13605  13657M 13677  13728M 13748  13800M 13820  13886M 13906  13972M
                                                 13992  14054M 14074  14137M 14158  14209M 14229  14281M 14302  14353M
                                                 14373  14425M 14460  14566M 14603  15408M 15494  15701M 15859  15912M
                                                 15932  15986M 16006  16059M 16079  16133M 16153  16206M 16226  16280M
                                                 16315  17110M 17144  17424M 17537  17584M 17604  17713M 17733  17783M
                                                 17818  18219M 18253  18473M 18646  18697M 18717  18769M 18803  18930M
                                                 18967  19417M 19518  19738M 19975  20026M 20046  20098M 20118  20169M
                                                 20189  20241M 20261  20389M 20409  20462M 20482  20550M 20571  20694M
                                                 20835  20882M 20902  20949M 20969  21016M 21036  21083M 21103  21192M
                                                 21212  21252M 21274  21325M 21345  21397M 21432  21538M 21575  22152M
                                                 22243  22442M 22524  22582M 22616  22892M 22917  23052M 23077  23275M
                                                 23300  23435M 23496  23627M 23653  25730M 25812  25853M 25904  26211M
                                                 26237  26543M 26626  26673M 26693  26758M 26778  26819M 26852  26937M
                                                 27087  27575M 27634  28549M 28665  28771M 28812  29082M 29116  29222M
                                                 29263  29566M 29622  29887M 30088  30129M 30154  30421M 30452  30540M
                                                 30645  31323M 31480  31527M 31547  31594M 31614  31661M 31681  31728M
                                                 31748  31795M 31815  31862M 31937  33704M 35261  35409M 35432  35484M
1ACMD     (ACMD4072) (12:39) (15MAR04) Ordinary Symbol and Literal Cross Reference                                          Page  189
                                                 35504  35555M 35575  35627M 35647  35698M 35718  35767M 35787  35836M
                                                 35856  35905M 35925  35974M 35994  36043M 36063  36112M 36132  36198M
                                                 36218  36354M 36374  36426M 36446  36497M 36517  36587M 36607  36659M
                                                 36679  36730M 36750  36802M 36822  36873M 36893  36945M 36965  37016M
                                                 37036  37088M 37108  37165M 37185  37242M 37262  37317M 37337  37392M
                                                 37412  37463M 37483  37535M 37555  37629M 37649  37700M 37720  37772M
                                                 37793  38068M 38089  38210M 38255  38343M 38363  38451M 38471  38559M
                                                 38579  38667M 38687  38741M 38762  38809M 38829  38916M 38936  39000M
                                                 39021  39068M 39088  39186M 39206  39253M 39273  39397M 39417  39464M
                                                 39484  39610M 39630  39681M 39701  39753M 39773  39824M 39844  39896M
                                                 39916  39968M 39988  40039M 40059  40206M 40226  40277M 40297  40349M
                                                 40369  40420M 40440  40492M 40512  40564M 40584  40635M 40655  40706M
                                                 40726  40778M 40798  40852M 40872  40923M 40943  40997M 41017  41068M
                                                 41088  41135M 41155  41272M 41292  41390M 41410  41640M 41660  41741M
                                                 41761  41814M 41834  41954M 41974  42027M 42047  42144M 42164  42217M
                                                 42237  42287M 42307  42353M 42628  43380M 43448  43494M 43566  48889M
                                                 49055  49295M 49362  49403M 49423  49464M 49488  49632M 49657  49828M
                                                 49851  49991M 50013  50152M 50175  50372M 50392  50589M 50609  50705M
                                                 50725  50866M 50886  50981M 51001  51054M 51074  51169M 51189  51313M
                                                 51333  51386M 51406  51501M 51521  51634M 51654  51707M 51727  51786M
                                                 51806  51860M 51880  51935M 51975  52346M 52433  52512M 52535  52614M
                                                 52788  52835M 52855  52899M 52919  52963M 52983  53027M 53080  53256M
                                                 53310  53965M 54029  54290M 54364  54590M 54653  55147M 55275  55316M
                                                 55336  55377M 55397  55521M 55543  55763M 55802  56264M 56301  56557M
                                                 56584  56721M 56748  56892M
 LTIMDISP      2 000057EC 00000001     H   28803 28799  30560
 MAILPRT       4 000003E4 00000001     F    9181 10319
 MALL          1 00000000 00000002     T    8418  8418   9282  11773  13032  15843  17521  18630  19958  20819  22477
                                                 22508  25790  26610  26987  28577  30072  31463  35218  43432  49346
                                                 52696  52772  55228  55259
 MARKHEAP      1 00000000 00000045     T   54603 54603
 MASTDISP      2 000094FC 00000001     H   43557 33734  43530  43604U 48921
 MASTEXIT      2 0000A272 00000001     H   48874 44342B 44360B
 MASTPRT       4 00006C58 00000001     F   33784 38224
 MASTPRTA      4 00007090 00000001     F   34200 38227
 MASTSCAN      2 00007B30 00000001     H   35252 33732
 MATUID        1 00000000 00000042     T   49331 49331
 MBOXDISP      2 000008E0 00000001     H   10353 10320  10349
 MILERR        1 00000000 00000000 A   T    2178  2178
 MINT          1 00000000 0000001A     T   17476 17476  52681
 MLNO          1 00000000 00000044     T   52757 52757
 MNULL         1 00000000 0000001E     T   20714 20714  52636  52712  55168  55244
 MPARM         1 00000000 0000000F     T   11758 11758  12700  12730  12760  12865  18495  18510  18525  18555  19836
                                                 19882  26565  34096  34112  34211  34226  34436  34451  34901  34916
                                                 34931  34946  35083  35113  35143
 MPINT         1 00000000 0000001D     T   19866 19866  52651  52666
 MPLNO         1 00000000 00000026     T   26595 26595  52727  52742
 MSTATPRT      4 00002064 00000001     F   15712 19445
 MTOKEN        1 00000000 00000003     T    9192  9192   9207   9222   9237  12475  12490  12505  12520  12535  12550
                                                 12565  12580  12595  12610  12625  12640  12655  12670  12685  12715
                                                 12745  12775  12790  12805  12820  12835  12850  12880  12895  12911
                                                 12926  12942  12957  12972  12987  15723  15738  15753  15768  15783
                                                 15798  17446  17461  18540  18570  18585  19761  19776  19791  19806
                                                 19821  19851  19898  19913  20729  20744  20759  20774  20789  20804
                                                 22493  26580  29907  29922  29937  29952  29967  29982  29997  30012
                                                 30027  30042  30057  31343  31358  31373  31388  31403  31418  31433
                                                 31448  33795  33810  33825  33840  33855  33870  33885  33900  33915
                                                 33930  33945  33960  33975  33990  34005  34020  34035  34050  34065
                                                 34080  34128  34143  34160  34176  34191  34241  34256  34271  34286
1ACMD     (ACMD4072) (12:39) (15MAR04) Ordinary Symbol and Literal Cross Reference                                          Page  190
                                                 34301  34316  34331  34346  34361  34376  34391  34406  34421  34466
                                                 34481  34496  34511  34526  34541  34556  34571  34586  34601  34616
                                                 34631  34646  34661  34676  34691  34706  34721  34736  34751  34766
                                                 34781  34796  34811  34826  34841  34856  34871  34886  34961  34976
                                                 34991  35006  35021  35036  35052  35067  35098  35128  35158  43402
                                                 55183  55198  55213
 NAMEPRT       4 0000015C 00000001     F    8407 10308
 NBLTBL        1 00000000 00000000 A   T    2191  2191
 NOACTION      1 00000000 00000000 A   T    2181  2181
 NOTACCT       2 0000A840 00000001     H   49414 49347
 NOTMPRT       4 00002664 00000001     F   17435 19455
 NOTVALID      1 00000000 0000000E     T   10326 10326  13033  15442  15844  17522  18631  19959  22187  22478  25791
                                                 26611  26988  27022  28578  30073  30578  31464  31899  33723  35219
                                                 38231  42383  43433  43520  52375  52697  52773
 NPARTBL       1 00000000 00000000 A   T    2185  2185
 NSCAN         1 00000000 00000006     T   10309 10309  12167  15436  19446  22180  23452  26998  28605  30572  31895
                                                 38225  43523  52364  53272  56914
 NSCANSTR      1 00000000 0000000C     T   10321 10321  15443
 NSCNCB      176 00000000 FFFFFFED     J    2450  2576   8023   8163   8179   8194   8195   8196   8199M  8200M  8202M
                                                  8212M  8213M  8214M  9009   9025   9077   9078   9079   9082M  9083M
                                                  9085M  9095M  9096M  9097M  9336   9337   9338   9341M  9351M  9352M
                                                  9353M  9409   9507   9623   9739  10847  10848  10849  10852M 10853M
                                                 10854M 10864M 10865M 10866M 11358  11359  11360  11363M 11364M 11366M
                                                 11376M 11377M 11378M 12090  12091  12300  12316  12331  12332  12333
                                                 12336M 12337M 12339M 12349M 12350M 12351M 13257  13258  13259  13262M
                                                 13272M 13273M 13274M 15562  15578  15593  15594  15595  15598M 15599M
                                                 15601M 15611M 15612M 15613M 17212  17228  17243  17244  17245  17248M
                                                 17249M 17251M 17261M 17262M 17263M 18321  18337  18352  18353  18354
                                                 18357M 18358M 18360M 18370M 18371M 18372M 19586  19602  19617  19618
                                                 19619  19622M 19623M 19625M 19635M 19636M 19637M 20296  20600  20602
                                                 20631M 20632M 20647  20648  20649  20652M 20653M 20655M 20665M 20666M
                                                 20667M 20679  22200  22307  22322  22323  22324  22327M 22328M 22330M
                                                 22340M 22341M 22342M 22353  22376  22377  22378  22381M 22382M 22384M
                                                 22394M 22395M 22396M 22554  22653  22654  22655  22658M 22659M 22660M
                                                 22670M 22671M 22672M 22682  23139  23140  23141  23144M 23145M 23146M
                                                 23156M 23157M 23158M 23168  23533  23534  23535  23538M 23539M 23540M
                                                 23550M 23551M 23552M 23562  23723  23724  23725  23728M 23729M 23730M
                                                 23740M 23741M 23742M 23752  23820  23835  23850  23851  23852M 23852
                                                 23853  23854M 23867M 23893  23894  23895  23898M 23899M 23901M 23911M
                                                 23912M 23913M 26325  26326  26327  26330M 26331M 26332M 26342M 26343M
                                                 26344M 26442  26443  26444  26447M 26448M 26450M 26460M 26461M 26462M
                                                 26888  26889  26890  26893M 26894M 26896M 26906M 26907M 26908M 27714
                                                 27715  27716  27719M 27720M 27722M 27732M 27733M 27734M 29687  29688
                                                 29689  29692M 29693M 29695M 29705M 29706M 29707M 29764  29765  29766
                                                 29769M 29770M 29771M 29781M 29782M 29783M 29829  29830  30758  30760
                                                 30771  30772  30773  30776M 30777M 30778M 30788M 30789M 30790M 30841
                                                 30852  30853  30854  30857M 30858M 30859M 30869M 30870M 30871M 30883
                                                 30926  30928  30938  31046  31047  31048  31051M 31052M 31054M 31064M
                                                 31065M 31066M 31906  33023  33453  35312  35313  35314  35317M 35318M
                                                 35320M 35330M 35331M 35332M 35364  35365  35366  35369M 35370M 35372M
                                                 35382M 35383M 35384M 37828  38124  41721  43053  43054  43055  43058M
                                                 43059M 43061M 43071M 43072M 43073M 49112  49113  49114  49117M 49118M
                                                 49120M 49130M 49131M 49132M 49160  49175  49190  49191  49192M 49192
                                                 49193  49194M 49207M 50684  50800  50961  51149  51264  51481  52470
                                                 52471  52472  52475M 52476M 52478M 52488M 52489M 52490M 52572  52573
                                                 52574  52577M 52578M 52580M 52590M 52591M 52592M 53054  53120  53136
                                                 53137  53138  53141M 53142M 53143M 53153M 53154M 53155M 53222  54682
                                                 54684  54914M 54915M 54958  54959  54960  54963M 54964M 54966M 54976M
                                                 54977M 54978M 55012  55013  55014  55017M 55018M 55020M 55030M 55031M
1ACMD     (ACMD4072) (12:39) (15MAR04) Ordinary Symbol and Literal Cross Reference                                          Page  191
                                                 55032M 55132  55472  55831  55833  55978M 55979M 55994  55995  55996
                                                 55999M 56000M 56001M 56011M 56012M 56013M 56056  56249  56940
 NSCNFLGS      1 00000008 FFFFFFED     R    2387  2391   2396
 NSCNKWS       4 00000028 FFFFFFED     A    2436  8194   8202M  8212M  9077   9085M  9095M  9336   9341M  9351M 10847
                                                 10854M 10864M 11358  11366M 11376M 12331  12339M 12349M 13257  13262M
                                                 13272M 15593  15601M 15611M 17243  17251M 17261M 18352  18360M 18370M
                                                 19617  19625M 19635M 20647  20655M 20665M 22322  22330M 22340M 22376
                                                 22384M 22394M 22653  22660M 22670M 23139  23146M 23156M 23533  23540M
                                                 23550M 23723  23730M 23740M 23893  23901M 23911M 26325  26332M 26342M
                                                 26442  26450M 26460M 26888  26896M 26906M 27714  27722M 27732M 29687
                                                 29695M 29705M 29764  29771M 29781M 30771  30778M 30788M 30852  30859M
                                                 30869M 31046  31054M 31064M 35312  35320M 35330M 35364  35372M 35382M
                                                 43053  43061M 43071M 49112  49120M 49130M 52470  52478M 52488M 52572
                                                 52580M 52590M 53136  53143M 53153M 54958  54966M 54976M 55012  55020M
                                                 55030M 55994  56001M 56011M
 NSCNLEN       4 00000004 FFFFFFED     F    2384 12091  20632M 23853  23854M 29830  49193  49194M 54915M 55979M
 NSCNLOC       4 00000000 FFFFFFED     A    2383 12090  20631M 23850  23852M 29829  49190  49192M 54914M 55978M
 NSCNSKIP      4 00000024 FFFFFFED     A    2435  8195   8199M  8213M  9078   9082M  9096M  9337   9352M 10848  10852M
                                                 10865M 11359  11363M 11377M 12332  12336M 12350M 13258  13273M 15594
                                                 15598M 15612M 17244  17248M 17262M 18353  18357M 18371M 19618  19622M
                                                 19636M 20648  20652M 20666M 22323  22327M 22341M 22377  22381M 22395M
                                                 22654  22658M 22671M 23140  23144M 23157M 23534  23538M 23551M 23724
                                                 23728M 23741M 23894  23898M 23912M 26326  26330M 26343M 26443  26447M
                                                 26461M 26889  26893M 26907M 27715  27719M 27733M 29688  29692M 29706M
                                                 29765  29769M 29782M 30772  30776M 30789M 30853  30857M 30870M 31047
                                                 31051M 31065M 35313  35317M 35331M 35365  35369M 35383M 43054  43058M
                                                 43072M 49113  49117M 49131M 52471  52475M 52489M 52573  52577M 52591M
                                                 53137  53141M 53154M 54959  54963M 54977M 55013  55017M 55031M 55995
                                                 55999M 56012M
 NSCNSTOP      4 00000020 FFFFFFED     A    2434  8196   8200M  8214M  9079   9083M  9097M  9338   9353M 10849  10853M
                                                 10866M 11360  11364M 11378M 12333  12337M 12351M 13259  13274M 15595
                                                 15599M 15613M 17245  17249M 17263M 18354  18358M 18372M 19619  19623M
                                                 19637M 20649  20653M 20667M 22324  22328M 22342M 22378  22382M 22396M
                                                 22655  22659M 22672M 23141  23145M 23158M 23535  23539M 23552M 23725
                                                 23729M 23742M 23895  23899M 23913M 26327  26331M 26344M 26444  26448M
                                                 26462M 26890  26894M 26908M 27716  27720M 27734M 29689  29693M 29707M
                                                 29766  29770M 29783M 30773  30777M 30790M 30854  30858M 30871M 31048
                                                 31052M 31066M 35314  35318M 35332M 35366  35370M 35384M 43055  43059M
                                                 43073M 49114  49118M 49132M 52472  52476M 52490M 52574  52578M 52592M
                                                 53138  53142M 53155M 54960  54964M 54978M 55014  55018M 55032M 55996
                                                 56000M 56013M
 NSCNTLEN      4 00000014 FFFFFFED     F    2402 23820  23867M 49160  49207M
 NSCNTLOC      4 00000010 FFFFFFED     A    2401 23835  23851  23852  49175  49191  49192
 NSCNTOK      16 00000030 FFFFFFED     C    2438  9409   9507   9623   9739  20296  22682  23168  23562  23752  37828
                                                 38124  41721  50684  50800  50961  51149  51264  51481  55472  56056
 NSCNTYPE      1 00000018 FFFFFFED     R    2405  2409   2414   2419   2424   2429
 NTNUM         2 00002786 00000001     H   17595 17477
 NTOLD         2 00002754 00000001     H   17528 17462
 NTTEMP        2 000027D8 00000001     H   17724 17447
 ONVOL         2 00003DF4 00000001     H   22515 22494
 ONVOLPRT      4 00003DA4 00000001     F   22482 23451
 ORVCPASS      1 00000000 00000031     T   28602 28602
 OUTDISP       2 00002CC8 00000001     H   18958 18954  19462
 OUTPRT        4 00002A58 00000001     F   18484 19460
 PDBBYT1       1 0000000E FFFFFFE8     X    7038  7070
 PDBBYT2       1 0000000F FFFFFFE8     X    7039  7076
 PDBCMDFL      1 00000007 FFFFFFE8     X    7026  7062   7062   7068
 PDBINCT       2 00000030 FFFFFFE8     H    7056  7060   7060
 PDBSINP       4 00000010 FFFFFFE8     A    7041  7042
1ACMD     (ACMD4072) (12:39) (15MAR04) Ordinary Symbol and Literal Cross Reference                                          Page  192
 PDBSTRT       4 00000000 FFFFFFE8     F    7018  7063   7063
 PDBVPGM       8 00000014 FFFFFFE8     C    7044  7050   7050
 PRIVACCT      2 00006494 00000001     H   31605 31389  31404
 PRIVADM       2 000064C0 00000001     H   31672 31419
 PRIVKAFL      1 00000001 FFFFFFDC     X   30611 30703M 30723M 31030M 31125
 PRIVKIFL      1 00000000 FFFFFFDC     X   30610 30702M 30722M 31029M 31124  31512M 31579M 31646M 31713M 31780M 31847M
 PRIVKWR     504 00000002 FFFFFFDC     X   30613 30729
 PRIVNF        4 00006156 00000001     I   30925 30873B
 PRIVOPR       2 00006468 00000001     H   31538 31359  31374
 PRIVPC        2 00006518 00000001     H   31806 31449
 PRIVPRT       4 000062D4 00000001     F   31332 31900
 PRIVSBM       2 000064EC 00000001     H   31739 31434
 PRIVSIB     254 000001FA FFFFFFDC     X   30615 31109  31302
 PRIVSYS       2 0000643C 00000001     H   31471 31344
 PRIVWA      760 00000000 FFFFFFDC     J   30622 30648  30677U 30688M 30688  30689M 30689  30690M 30690  30691  30699U
                                                 31323  31325  31326
 PUTKWR        2 0000A86C 00000001     H   49479 10311  15438  19449  22182  28600  33736
 QUIETPSH      1 00000000 00000005     T    9268  9268  13018  15829  17507  18616  19944  35204
 RACADD        1 00000000 0000003C     T   33737 33737
 RACDEL        1 00000000 0000003D     T   33739 33739
 RACPASCK      1 00000000 00000033     T   28613 28613
 RACUPDPW      1 00000000 00000034     T   28617 28617  33740
 RAR          14 0000000E 00000001 A   #    1125  2116   2117M  2118B  2120M  2121B  2141M  2142B  2146M  2147B  2149M
                                                  2150B  2152M  2153B  2155M  2156B  2158M  2159M  2159B  2165   8050
                                                  8114M  8115M  8115B  8205M  8206M  8206B  8219M  8220M  8220B  8250M
                                                  8251M  8251B  8328M  8329M  8329B  8389M  8392B  8437   8501M  8502M
                                                  8502B  8505M  8506M  8506B  8510M  8511M  8511B  8573M  8574M  8574B
                                                  8606M  8609B  8636   8727M  8728M  8728B  8731M  8732M  8732B  8804M
                                                  8807B  8832   8892M  8893M  8893B  8917M  8920B  8938   9002M  9003M
                                                  9003B  9088M  9089M  9089B  9102M  9103M  9103B  9106M  9107M  9107B
                                                  9133M  9134M  9134B  9138M  9139M  9139B  9171M  9174B  9295   9344M
                                                  9345M  9345B  9358M  9359M  9359B  9906M  9909B  9921   9973M  9976B
                                                  9988  10040M 10043B 10055  10108M 10111B 10123  10154M 10155M 10155B
                                                 10169M 10170M 10170B 10284M 10287B 10359  10454M 10455M 10455B 10500M
                                                 10501M 10501B 10535M 10536M 10536B 10563M 10564M 10564B 10588M 10589M
                                                 10589B 10628M 10629M 10629B 10650M 10651M 10651B 10669M 10670M 10670B
                                                 10695M 10696M 10696B 10714M 10717B 10778  10857M 10858M 10858B 10871M
                                                 10872M 10872B 10924M 10925M 10925B 11369M 11370M 11370B 11383M 11384M
                                                 11384B 11737M 11740B 11786  11834M 11835M 11835B 11852M 11855B 11880
                                                 11911M 11912M 11912B 11946M 11947M 11947B 11990M 11991M 11991B 12008M
                                                 12009M 12009B 12033M 12036B 12057  12098M 12099M 12099B 12103M 12104M
                                                 12104B 12124M 12127B 12229  12293M 12294M 12294B 12342M 12343M 12343B
                                                 12356M 12357M 12357B 12387M 12388M 12388B 12412M 12413M 12413B 12416M
                                                 12417M 12417B 12421M 12422M 12422B 12454M 12457B 13045  13101M 13104B
                                                 13116  13173M 13176B 13188  13240M 13241M 13241B 13265M 13266M 13266B
                                                 13279M 13280M 13280B 13301M 13302M 13302B 13341M 13342M 13342B 13372M
                                                 13373M 13373B 13381M 13382M 13382B 13414M 13415M 13415B 13423M 13424M
                                                 13424B 13456M 13457M 13457B 13465M 13466M 13466B 13489M 13490M 13490B
                                                 13516M 13519B 13531  13587M 13590B 13602  13659M 13662B 13674  13730M
                                                 13733B 13745  13802M 13805B 13817  13888M 13891B 13903  13974M 13977B
                                                 13989  14056M 14059B 14071  14139M 14142B 14155  14211M 14214B 14226
                                                 14283M 14286B 14299  14355M 14358B 14370  14427M 14430B 14457  14521M
                                                 14522M 14522B 14526M 14527M 14527B 14530M 14531M 14531B 14535M 14536M
                                                 14536B 14568M 14571B 14600  14672M 14673M 14673B 14700M 14701M 14701B
                                                 14739M 14740M 14740B 14767M 14768M 14768B 14808M 14809M 14809B 14836M
                                                 14837M 14837B 14854M 14855M 14855B 14923M 14924M 14924B 14975M 14976M
                                                 14976B 15027M 15028M 15028B 15129M 15130M 15130B 15182M 15183M 15183B
                                                 15235M 15236M 15236B 15318M 15319M 15319B 15372M 15373M 15373B 15391M
                                                 15392M 15392B 15410M 15413B 15491  15555M 15556M 15556B 15604M 15605M
1ACMD     (ACMD4072) (12:39) (15MAR04) Ordinary Symbol and Literal Cross Reference                                          Page  193
                                                 15605B 15618M 15619M 15619B 15649M 15650M 15650B 15703M 15706B 15856
                                                 15914M 15917B 15929  15988M 15991B 16003  16061M 16064B 16076  16135M
                                                 16138B 16150  16208M 16211B 16223  16282M 16285B 16312  16376M 16377M
                                                 16377B 16381M 16382M 16382B 16399M 16400M 16400B 16427M 16428M 16428B
                                                 16445M 16446M 16446B 16473M 16474M 16474B 16508M 16509M 16509B 16536M
                                                 16537M 16537B 16554M 16555M 16555B 16576M 16577M 16577B 16615M 16616M
                                                 16616B 16657M 16658M 16658B 16682M 16683M 16683B 16741M 16742M 16742B
                                                 16787M 16788M 16788B 16806M 16807M 16807B 16841M 16842M 16842B 16863M
                                                 16864M 16864B 16888M 16889M 16889B 16907M 16908M 16908B 16942M 16943M
                                                 16943B 16964M 16965M 16965B 16999M 17000M 17000B 17021M 17022M 17022B
                                                 17056M 17057M 17057B 17078M 17079M 17079B 17112M 17115B 17141  17205M
                                                 17206M 17206B 17254M 17255M 17255B 17268M 17269M 17269B 17290M 17291M
                                                 17291B 17349M 17350M 17350B 17426M 17429B 17534  17586M 17589B 17601
                                                 17715M 17718B 17730  17785M 17788B 17815  17879M 17880M 17880B 17884M
                                                 17885M 17885B 17888M 17889M 17889B 17947M 17948M 17948B 17965M 17966M
                                                 17966B 18013M 18014M 18014B 18047M 18048M 18048B 18069M 18070M 18070B
                                                 18087M 18088M 18088B 18126M 18127M 18127B 18147M 18148M 18148B 18165M
                                                 18166M 18166B 18183M 18184M 18184B 18221M 18224B 18250  18314M 18315M
                                                 18315B 18363M 18364M 18364B 18377M 18378M 18378B 18408M 18409M 18409B
                                                 18433M 18434M 18434B 18437M 18438M 18438B 18442M 18443M 18443B 18475M
                                                 18478B 18643  18699M 18702B 18714  18771M 18774B 18800  18885M 18886M
                                                 18886B 18890M 18891M 18891B 18894M 18895M 18895B 18899M 18900M 18900B
                                                 18932M 18935B 18964  19036M 19037M 19037B 19064M 19065M 19065B 19107M
                                                 19108M 19108B 19135M 19136M 19136B 19178M 19179M 19179B 19206M 19207M
                                                 19207B 19249M 19250M 19250B 19277M 19278M 19278B 19319M 19320M 19320B
                                                 19359M 19360M 19360B 19381M 19382M 19382B 19400M 19401M 19401B 19419M
                                                 19422B 19515  19579M 19580M 19580B 19628M 19629M 19629B 19642M 19643M
                                                 19643B 19673M 19674M 19674B 19698M 19699M 19699B 19702M 19703M 19703B
                                                 19707M 19708M 19708B 19740M 19743B 19972  20028M 20031B 20043  20100M
                                                 20103B 20115  20171M 20174B 20186  20243M 20246B 20258  20318M 20319M
                                                 20319B 20326M 20327M 20327B 20361M 20362M 20362B 20391M 20394B 20406
                                                 20464M 20467B 20479  20552M 20555B 20568  20658M 20659M 20659B 20672M
                                                 20673M 20673B 20696M 20699B 20832  20884M 20887B 20899  20951M 20954B
                                                 20966  21018M 21021B 21033  21085M 21088B 21100  21151M 21152M 21152B
                                                 21169M 21170M 21170B 21194M 21197B 21209  21254M 21257B 21271  21327M
                                                 21330B 21342  21399M 21402B 21429  21493M 21494M 21494B 21498M 21499M
                                                 21499B 21502M 21503M 21503B 21507M 21508M 21508B 21540M 21543B 21572
                                                 21644M 21645M 21645B 21666M 21667M 21667B 21701M 21702M 21702B 21723M
                                                 21724M 21724B 21758M 21759M 21759B 21796M 21797M 21797B 21836M 21837M
                                                 21837B 21858M 21859M 21859B 21884M 21885M 21885B 21908M 21909M 21909B
                                                 21926M 21927M 21927B 21952M 21953M 21953B 21976M 21977M 21977B 21994M
                                                 21995M 21995B 22013M 22014M 22014B 22116M 22117M 22117B 22135M 22136M
                                                 22136B 22154M 22157B 22240  22333M 22334M 22334B 22347M 22348M 22348B
                                                 22363M 22364M 22364B 22387M 22388M 22388B 22401M 22402M 22402B 22411M
                                                 22412M 22412B 22444M 22447B 22521  22565M 22566M 22566B 22584M 22587B
                                                 22613  22663M 22664M 22664B 22677M 22678M 22678B 22724M 22725M 22725B
                                                 22806M 22807M 22807B 22894M 22897B 22914  22945M 22946M 22946B 23026M
                                                 23027M 23027B 23054M 23057B 23074  23121M 23122M 23122B 23149M 23150M
                                                 23150B 23163M 23164M 23164B 23240M 23241M 23241B 23277M 23280B 23297
                                                 23328M 23329M 23329B 23409M 23410M 23410B 23437M 23440B 23493  23543M
                                                 23544M 23544B 23557M 23558M 23558B 23629M 23632B 23650  23733M 23734M
                                                 23734B 23747M 23748M 23748B 23799M 23800M 23800B 23880M 23881M 23881B
                                                 23904M 23905M 23905B 23918M 23919M 23919B 23954M 23955M 23955B 23971M
                                                 23972M 23972B 23995M 23996M 23996B 24025M 24026M 24026B 24045M 24046M
                                                 24046B 24069M 24070M 24070B 24136M 24137M 24137B 24154M 24155M 24155B
                                                 24182M 24183M 24183B 24200M 24201M 24201B 24238M 24239M 24239B 24250M
                                                 24251M 24251B 24268M 24269M 24269B 24290M 24291M 24291B 24302M 24303M
                                                 24303B 24320M 24321M 24321B 24332M 24333M 24333B 24350M 24351M 24351B
                                                 24384M 24385M 24385B 24451M 24452M 24452B 24469M 24470M 24470B 24475M
1ACMD     (ACMD4072) (12:39) (15MAR04) Ordinary Symbol and Literal Cross Reference                                          Page  194
                                                 24476M 24476B 24502M 24503M 24503B 24520M 24521M 24521B 24571M 24572M
                                                 24572B 24680M 24681M 24681B 24709M 24710M 24710B 24733M 24734M 24734B
                                                 24757M 24758M 24758B 24775M 24776M 24776B 24811M 24812M 24812B 24817M
                                                 24818M 24818B 24841M 24842M 24842B 24859M 24860M 24860B 24888M 24889M
                                                 24889B 24960M 24961M 24961B 24988M 24989M 24989B 25106M 25107M 25107B
                                                 25146M 25147M 25147B 25169M 25170M 25170B 25193M 25194M 25194B 25222M
                                                 25223M 25223B 25246M 25247M 25247B 25319M 25320M 25320B 25343M 25344M
                                                 25344B 25396M 25397M 25397B 25420M 25421M 25421B 25473M 25474M 25474B
                                                 25497M 25498M 25498B 25603M 25604M 25604B 25627M 25628M 25628B 25653M
                                                 25654M 25654B 25694M 25695M 25695B 25732M 25735B 25809  25855M 25858B
                                                 25901  25950M 25951M 25951B 25963M 25964M 25964B 25984M 25985M 25985B
                                                 26014M 26015M 26015B 26032M 26033M 26033B 26067M 26068M 26068B 26072M
                                                 26073M 26073B 26096M 26097M 26097B 26114M 26115M 26115B 26154M 26155M
                                                 26155B 26184M 26185M 26185B 26213M 26216B 26234  26308M 26309M 26309B
                                                 26335M 26336M 26336B 26349M 26350M 26350B 26397M 26398M 26398B 26406M
                                                 26407M 26407B 26427M 26428M 26428B 26453M 26454M 26454B 26467M 26468M
                                                 26468B 26476M 26477M 26477B 26497M 26498M 26498B 26545M 26548B 26623
                                                 26675M 26678B 26690  26738M 26739M 26739B 26760M 26763B 26775  26821M
                                                 26824B 26849  26899M 26900M 26900B 26913M 26914M 26914B 26920M 26921M
                                                 26921B 26939M 26942B 27084  27140M 27141M 27141B 27160M 27161M 27161B
                                                 27184M 27185M 27185B 27202M 27203M 27203B 27220M 27221M 27221B 27239M
                                                 27240M 27240B 27247M 27248M 27248B 27329M 27330M 27330B 27370M 27371M
                                                 27371B 27395M 27396M 27396B 27403M 27404M 27404B 27485M 27486M 27486B
                                                 27533M 27534M 27534B 27558M 27559M 27559B 27577M 27580B 27631  27693M
                                                 27694M 27694B 27701M 27702M 27702B 27725M 27726M 27726B 27739M 27740M
                                                 27740B 27743M 27744M 27744B 27768M 27769M 27769B 27820M 27821M 27821B
                                                 27875M 27876M 27876B 27893M 27894M 27894B 27897M 27898M 27898B 27938M
                                                 27939M 27939B 27964M 27965M 27965B 27999M 28000M 28000B 28054M 28055M
                                                 28055B 28072M 28073M 28073B 28076M 28077M 28077B 28114M 28115M 28115B
                                                 28155M 28156M 28156B 28169M 28170M 28170B 28215M 28216M 28216B 28233M
                                                 28234M 28234B 28256M 28257M 28257B 28274M 28275M 28275B 28292M 28293M
                                                 28293B 28310M 28311M 28311B 28328M 28329M 28329B 28346M 28347M 28347B
                                                 28371M 28372M 28372B 28395M 28396M 28396B 28413M 28414M 28414B 28417M
                                                 28418M 28418B 28453M 28454M 28454B 28481M 28482M 28482B 28509M 28510M
                                                 28510B 28517M 28518M 28518B 28551M 28554B 28662  28726M 28727M 28727B
                                                 28731M 28732M 28732B 28735M 28736M 28736B 28740M 28741M 28741B 28773M
                                                 28776B 28809  28882M 28883M 28883B 28916M 28917M 28917B 28928M 28929M
                                                 28929B 28952M 28953M 28953B 29004M 29005M 29005B 29032M 29033M 29033B
                                                 29066M 29067M 29067B 29084M 29087B 29113  29177M 29178M 29178B 29182M
                                                 29183M 29183B 29186M 29187M 29187B 29191M 29192M 29192B 29224M 29227B
                                                 29260  29333M 29334M 29334B 29366M 29367M 29367B 29370M 29371M 29371B
                                                 29387M 29388M 29388B 29411M 29412M 29412B 29455M 29456M 29456B 29475M
                                                 29476M 29476B 29499M 29500M 29500B 29517M 29518M 29518B 29550M 29551M
                                                 29551B 29568M 29571B 29619  29698M 29699M 29699B 29712M 29713M 29713B
                                                 29751M 29752M 29752B 29774M 29775M 29775B 29788M 29789M 29789B 29852M
                                                 29853M 29853B 29856M 29857M 29857B 29865M 29866M 29866B 29889M 29892B
                                                 30085  30131M 30134B 30151  30203M 30204M 30204B 30226M 30227M 30227B
                                                 30280M 30281M 30281B 30288M 30289M 30289B 30342M 30343M 30343B 30361M
                                                 30362M 30362B 30423M 30426B 30449  30494M 30495M 30495B 30542M 30545B
                                                 30642  30752M 30753M 30753B 30781M 30782M 30782B 30795M 30796M 30796B
                                                 30862M 30863M 30863B 30917M 30918M 30918B 30931M 30932M 30932B 30974M
                                                 30975M 30975B 31003M 31004M 31004B 31057M 31058M 31058B 31071M 31072M
                                                 31072B 31096M 31097M 31097B 31158M 31159M 31159B 31186M 31187M 31187B
                                                 31214M 31215M 31215B 31242M 31243M 31243B 31254M 31255M 31255B 31325M
                                                 31328B 31477  31529M 31532B 31544  31596M 31599B 31611  31663M 31666B
                                                 31678  31730M 31733B 31745  31797M 31800B 31812  31864M 31867B 31934
                                                 32003M 32004M 32004B 32033M 32034M 32034B 32037M 32038M 32038B 32087M
                                                 32088M 32088B 32219M 32220M 32220B 32307M 32308M 32308B 32347M 32348M
                                                 32348B 32420M 32421M 32421B 32566M 32567M 32567B 32938M 32939M 32939B
1ACMD     (ACMD4072) (12:39) (15MAR04) Ordinary Symbol and Literal Cross Reference                                          Page  195
                                                 32943M 32944M 32944B 32963M 32964M 32964B 32985M 32986M 32986B 33007M
                                                 33008M 33008B 33030M 33031M 33031B 33127M 33128M 33128B 33177M 33178M
                                                 33178B 33228M 33229M 33229B 33256M 33257M 33257B 33274M 33275M 33275B
                                                 33302M 33303M 33303B 33346M 33347M 33347B 33417M 33418M 33418B 33439M
                                                 33440M 33440B 33460M 33461M 33461B 33488M 33489M 33489B 33520M 33521M
                                                 33521B 33547M 33548M 33548B 33578M 33579M 33579B 33610M 33611M 33611B
                                                 33637M 33638M 33638B 33669M 33670M 33670B 33681M 33682M 33682B 33706M
                                                 33709B 35258  35323M 35324M 35324B 35337M 35338M 35338B 35375M 35376M
                                                 35376B 35389M 35390M 35390B 35411M 35414B 35429  35486M 35489B 35501
                                                 35557M 35560B 35572  35629M 35632B 35644  35700M 35703B 35715  35747M
                                                 35748M 35748B 35769M 35772B 35784  35816M 35817M 35817B 35838M 35841B
                                                 35853  35885M 35886M 35886B 35907M 35910B 35922  35954M 35955M 35955B
                                                 35976M 35979B 35991  36023M 36024M 36024B 36045M 36048B 36060  36092M
                                                 36093M 36093B 36114M 36117B 36129  36173M 36174M 36174B 36178M 36179M
                                                 36179B 36200M 36203B 36215  36334M 36335M 36335B 36356M 36359B 36371
                                                 36428M 36431B 36443  36499M 36502B 36514  36589M 36592B 36604  36661M
                                                 36664B 36676  36732M 36735B 36747  36804M 36807B 36819  36875M 36878B
                                                 36890  36947M 36950B 36962  37018M 37021B 37033  37090M 37093B 37105
                                                 37167M 37170B 37182  37244M 37247B 37259  37319M 37322B 37334  37394M
                                                 37397B 37409  37465M 37468B 37480  37537M 37540B 37552  37631M 37634B
                                                 37646  37702M 37705B 37717  37774M 37777B 37790  37849M 37850M 37850B
                                                 37875M 37876M 37876B 37931M 37932M 37932B 37978M 37979M 37979B 38034M
                                                 38035M 38035B 38070M 38073B 38086  38145M 38146M 38146B 38185M 38186M
                                                 38186B 38212M 38215B 38252  38298M 38299M 38299B 38345M 38348B 38360
                                                 38406M 38407M 38407B 38453M 38456B 38468  38514M 38515M 38515B 38561M
                                                 38564B 38576  38622M 38623M 38623B 38669M 38672B 38684  38721M 38722M
                                                 38722B 38743M 38746B 38759  38811M 38814B 38826  38871M 38872M 38872B
                                                 38890M 38891M 38891B 38918M 38921B 38933  38978M 38979M 38979B 39002M
                                                 39005B 39018  39070M 39073B 39085  39123M 39124M 39124B 39161M 39162M
                                                 39162B 39188M 39191B 39203  39255M 39258B 39270  39328M 39329M 39329B
                                                 39366M 39367M 39367B 39399M 39402B 39414  39466M 39469B 39481  39539M
                                                 39540M 39540B 39612M 39615B 39627  39683M 39686B 39698  39755M 39758B
                                                 39770  39826M 39829B 39841  39898M 39901B 39913  39970M 39973B 39985
                                                 40041M 40044B 40056  40095M 40096M 40096B 40152M 40153M 40153B 40208M
                                                 40211B 40223  40279M 40282B 40294  40351M 40354B 40366  40422M 40425B
                                                 40437  40494M 40497B 40509  40566M 40569B 40581  40637M 40640B 40652
                                                 40708M 40711B 40723  40780M 40783B 40795  40854M 40857B 40869  40925M
                                                 40928B 40940  40999M 41002B 41014  41070M 41073B 41085  41137M 41140B
                                                 41152  41209M 41210M 41210B 41274M 41277B 41289  41327M 41328M 41328B
                                                 41392M 41395B 41407  41438M 41439M 41439B 41460M 41461M 41461B 41542M
                                                 41543M 41543B 41560M 41561M 41561B 41642M 41645B 41657  41706M 41707M
                                                 41707B 41743M 41746B 41758  41816M 41819B 41831  41880M 41881M 41881B
                                                 41911M 41912M 41912B 41956M 41959B 41971  42029M 42032B 42044  42093M
                                                 42094M 42094B 42124M 42125M 42125B 42146M 42149B 42161  42219M 42222B
                                                 42234  42289M 42292B 42304  42355M 42358B 42625  42688M 42689M 42689B
                                                 42718M 42719M 42719B 42722M 42723M 42723B 42772M 42773M 42773B 42904M
                                                 42905M 42905B 42992M 42993M 42993B 43032M 43033M 43033B 43064M 43065M
                                                 43065B 43078M 43079M 43079B 43123M 43124M 43124B 43141M 43142M 43142B
                                                 43169M 43170M 43170B 43187M 43188M 43188B 43220M 43221M 43221B 43244M
                                                 43245M 43245B 43274M 43275M 43275B 43310M 43311M 43311B 43343M 43344M
                                                 43344B 43349M 43350M 43350B 43382M 43385B 43445  43496M 43499B 43563
                                                 43643M 43644M 43644B 43661M 43662M 43662B 43689M 43690M 43690B 43723M
                                                 43724M 43724B 43751M 43752M 43752B 43769M 43770M 43770B 43808M 43809M
                                                 43809B 43836M 43837M 43837B 43854M 43855M 43855B 43894M 43895M 43895B
                                                 43967M 43968M 43968B 44006M 44007M 44007B 44045M 44046M 44046B 44084M
                                                 44085M 44085B 44138M 44139M 44139B 44177M 44178M 44178B 44216M 44217M
                                                 44217B 44255M 44256M 44256B 44298M 44299M 44299B 44327M 44328M 44328B
                                                 44412M 44413M 44413B 44430M 44431M 44431B 44466M 44467M 44467B 44484M
                                                 44485M 44485B 44489M 44490M 44490B 44507M 44508M 44508B 44512M 44513M
1ACMD     (ACMD4072) (12:39) (15MAR04) Ordinary Symbol and Literal Cross Reference                                          Page  196
                                                 44513B 44570M 44571M 44571B 44600M 44601M 44601B 44679M 44680M 44680B
                                                 44740M 44741M 44741B 45111M 45112M 45112B 45178M 45179M 45179B 45211M
                                                 45212M 45212B 45233M 45234M 45234B 45261M 45262M 45262B 45393M 45394M
                                                 45394B 45438M 45439M 45439B 45474M 45475M 45475B 45513M 45514M 45514B
                                                 45533M 45534M 45534B 45555M 45556M 45556B 45589M 45590M 45590B 45601M
                                                 45602M 45602B 45619M 45620M 45620B 45631M 45632M 45632B 45649M 45650M
                                                 45650B 45674M 45675M 45675B 45712M 45713M 45713B 45734M 45735M 45735B
                                                 45766M 45767M 45767B 45800M 45801M 45801B 45822M 45823M 45823B 45840M
                                                 45841M 45841B 45903M 45904M 45904B 45964M 45965M 45965B 45982M 45983M
                                                 45983B 46010M 46011M 46011B 46058M 46059M 46059B 46076M 46077M 46077B
                                                 46104M 46105M 46105B 46152M 46153M 46153B 46170M 46171M 46171B 46198M
                                                 46199M 46199B 46260M 46261M 46261B 46296M 46297M 46297B 46334M 46335M
                                                 46335B 46376M 46377M 46377B 46430M 46431M 46431B 46466M 46467M 46467B
                                                 46494M 46495M 46495B 46528M 46529M 46529B 46567M 46568M 46568B 46595M
                                                 46596M 46596B 46657M 46658M 46658B 46719M 46720M 46720B 46737M 46738M
                                                 46738B 46743M 46744M 46744B 46767M 46768M 46768B 46785M 46786M 46786B
                                                 46796M 46797M 46797B 46820M 46821M 46821B 46838M 46839M 46839B 46876M
                                                 46877M 46877B 46882M 46883M 46883B 46906M 46907M 46907B 46924M 46925M
                                                 46925B 46966M 46967M 46967B 46972M 46973M 46973B 46996M 46997M 46997B
                                                 47014M 47015M 47015B 47036M 47037M 47037B 47102M 47103M 47103B 47151M
                                                 47152M 47152B 47169M 47170M 47170B 47189M 47190M 47190B 47213M 47214M
                                                 47214B 47231M 47232M 47232B 47279M 47280M 47280B 47297M 47298M 47298B
                                                 47318M 47319M 47319B 47342M 47343M 47343B 47390M 47391M 47391B 47408M
                                                 47409M 47409B 47429M 47430M 47430B 47453M 47454M 47454B 47515M 47516M
                                                 47516B 47552M 47553M 47553B 47570M 47571M 47571B 47591M 47592M 47592B
                                                 47609M 47610M 47610B 47630M 47631M 47631B 47687M 47688M 47688B 47705M
                                                 47706M 47706B 47754M 47755M 47755B 47772M 47773M 47773B 47821M 47822M
                                                 47822B 47839M 47840M 47840B 47888M 47889M 47889B 47906M 47907M 47907B
                                                 47955M 47956M 47956B 47973M 47974M 47974B 48021M 48022M 48022B 48039M
                                                 48040M 48040B 48105M 48106M 48106B 48166M 48167M 48167B 48184M 48185M
                                                 48185B 48235M 48236M 48236B 48253M 48254M 48254B 48334M 48335M 48335B
                                                 48352M 48353M 48353B 48414M 48415M 48415B 48529M 48530M 48530B 48547M
                                                 48548M 48548B 48609M 48610M 48610B 48627M 48628M 48628B 48697M 48698M
                                                 48698B 48720M 48721M 48721B 48745M 48746M 48746B 48769M 48770M 48770B
                                                 48805M 48806M 48806B 48867M 48868M 48868B 48891M 48894B 49052  49123M
                                                 49124M 49124B 49137M 49138M 49138B 49279M 49280M 49280B 49297M 49300B
                                                 49359  49405M 49408B 49420  49466M 49469B 49485  49525M 49526M 49526B
                                                 49606M 49607M 49607B 49634M 49637B 49654  49744M 49745M 49745B 49762M
                                                 49763M 49763B 49790M 49791M 49791B 49808M 49809M 49809B 49830M 49833B
                                                 49848  49893M 49894M 49894B 49921M 49922M 49922B 49939M 49940M 49940B
                                                 49967M 49968M 49968B 49993M 49996B 50010  50055M 50056M 50056B 50083M
                                                 50084M 50084B 50101M 50102M 50102B 50129M 50130M 50130B 50154M 50157B
                                                 50172  50209M 50210M 50210B 50244M 50245M 50245B 50374M 50377B 50389
                                                 50426M 50427M 50427B 50461M 50462M 50462B 50591M 50594B 50606  50669M
                                                 50670M 50670B 50689M 50690M 50690B 50707M 50710B 50722  50785M 50786M
                                                 50786B 50835M 50836M 50836B 50868M 50871B 50883  50946M 50947M 50947B
                                                 50983M 50986B 50998  51056M 51059B 51071  51134M 51135M 51135B 51171M
                                                 51174B 51186  51249M 51250M 51250B 51315M 51318B 51330  51388M 51391B
                                                 51403  51466M 51467M 51467B 51503M 51506B 51518  51549M 51550M 51550B
                                                 51636M 51639B 51651  51709M 51712B 51724  51788M 51791B 51803  51862M
                                                 51865B 51877  51937M 51940B 51972  52037M 52038M 52038B 52088M 52089M
                                                 52089B 52127M 52128M 52128B 52166M 52167M 52167B 52205M 52206M 52206B
                                                 52244M 52245M 52245B 52283M 52284M 52284B 52322M 52323M 52323B 52348M
                                                 52351B 52430  52481M 52482M 52482B 52495M 52496M 52496B 52514M 52517B
                                                 52532  52583M 52584M 52584B 52597M 52598M 52598B 52616M 52619B 52785
                                                 52837M 52840B 52852  52901M 52904B 52916  52965M 52968B 52980  53029M
                                                 53032B 53077  53146M 53147M 53147B 53160M 53161M 53161B 53205M 53206M
                                                 53206B 53258M 53261B 53307  53358M 53359M 53359B 53392M 53393M 53393B
                                                 53458M 53459M 53459B 53486M 53487M 53487B 53504M 53505M 53505B 53532M
1ACMD     (ACMD4072) (12:39) (15MAR04) Ordinary Symbol and Literal Cross Reference                                          Page  197
                                                 53533M 53533B 53943M 53944M 53944B 53967M 53970B 54026  54292M 54295B
                                                 54361  54392M 54393M 54393B 54398M 54399M 54399B 54429M 54430M 54430B
                                                 54448M 54449M 54449B 54481M 54482M 54482B 54548M 54549M 54549B 54592M
                                                 54595B 54650  54724M 54725M 54725B 54740M 54741M 54741B 54787M 54788M
                                                 54788B 54842M 54843M 54843B 54888M 54889M 54889B 54969M 54970M 54970B
                                                 54983M 54984M 54984B 55023M 55024M 55024B 55037M 55038M 55038B 55149M
                                                 55152B 55272  55318M 55321B 55333  55379M 55382B 55394  55461M 55462M
                                                 55462B 55493M 55494M 55494B 55523M 55526B 55540  55590M 55591M 55591B
                                                 55637M 55638M 55638B 55665M 55666M 55666B 55683M 55684M 55684B 55711M
                                                 55712M 55712B 55741M 55742M 55742B 55765M 55768B 55799  55883M 55884M
                                                 55884B 55929M 55930M 55930B 56004M 56005M 56005B 56045M 56046M 56046B
                                                 56135M 56136M 56136B 56190M 56191M 56191B 56266M 56269B 56298  56386M
                                                 56387M 56387B 56432M 56433M 56433B 56450M 56451M 56451B 56468M 56469M
                                                 56469B 56502M 56503M 56503B 56559M 56562B 56581  56658M 56659M 56659B
                                                 56681M 56682M 56682B 56705M 56706M 56706B 56723M 56726B 56745  56810M
                                                 56811M 56811B 56832M 56833M 56833B 56852M 56853M 56853B 56876M 56877M
                                                 56877B 56894M 56897B
 RDPWEXIT      2 0000C08C 00000001     H   56241 55950B
 RDPWGOOD      6 0000C06E 00000001     I   56199 56197B
 RDPWLOOP      4 0000BF4E 00000001     I   55837 56047B 56069B 56137B 56192B
 READPW        2 0000BF26 00000001     H   55793 28598  55789
 RELHEAP       1 00000000 00000048     T   54606 54606
 RELLPRT       4 0000B364 00000001     F   52701 53274
 RELMINUS      2 0000B492 00000001     H   52910 52667  52743
 RELNULL       2 0000B42C 00000001     H   52779 52637  52713
 RELPLUS       2 0000B460 00000001     H   52846 52652  52728
 RELPRT        4 0000B29C 00000001     F   52625 53271
 RELVAL        2 0000B4C4 00000001     H   52974 52682  52758
 R0            0 00000000 FFFFFFFF A   #     699  2101   2170M  8111M  8152M  8190M  8190   8199   8200   8242M  8498M
                                                  8525M  8546M  8696M  8724M  8864M  8885M  8899M  8999M  9073M  9073
                                                  9082   9083   9332M  9332   9341   9369M  9369   9381M  9400   9485
                                                  9601   9717   9823  10176  10401M 10421M 10443M 10469M 10524M 10552M
                                                 10577M 10577  10617M 10639M 10658M 10684M 10684  10843M 10843  10852
                                                 10853  10854  10881M 10881  10921M 11354M 11354  11363  11364  11831M
                                                 11935M 11979M 11997M 12091M 12290M 12327M 12327  12336  12337  12379M
                                                 12409M 13253M 13253  13262  13293  13362M 13404M 13446M 14518M 14661M
                                                 14689M 14728M 14756M 14797M 14825M 14843M 14877M 14896M 14929M 14948M
                                                 14981M 15000M 15033M 15052M 15077M 15102M 15136M 15155M 15189M 15208M
                                                 15245M 15266M 15291M 15324M 15345M 15380M 15552M 15589M 15589  15598
                                                 15599  15641M 16373M 16388M 16416M 16434M 16462M 16497M 16525M 16543M
                                                 16565M 16582M 16604M 16630M 16671M 16671  16688M 16708M 16730M 16756M
                                                 16795M 16830M 16852M 16877M 16877  16896M 16931M 16953M 16988M 17010M
                                                 17045M 17067M 17202M 17239M 17239  17248  17249  17662  17669M 17682M
                                                 17682  17689M 17694  17876M 17936M 17954M 18002M 18036M 18058M 18058
                                                 18076M 18115M 18136M 18136  18154M 18172M 18311M 18348M 18348  18357
                                                 18358  18400M 18430M 18861M 18878M 19025M 19053M 19096M 19124M 19167M
                                                 19195M 19238M 19266M 19308M 19348M 19370M 19389M 19576M 19613M 19613
                                                 19622  19623  19665M 19695M 20310  20369M 20514  20531  20632  20643M
                                                 20643  20652  20653  20866M 21158M 21176M 21490M 21633M 21655M 21690M
                                                 21712M 21747M 21785M 21813M 21847M 21874M 21874  21915M 21942M 21942
                                                 21983M 22002M 22018M 22039M 22064M 22089M 22124M 22318M 22318  22327
                                                 22328  22360M 22372M 22372  22381  22382  22407M 22407  22649M 22649
                                                 22658  22659  22660  22696  22731M 22745M 22745  22983M 23015M 23031M
                                                 23135M 23135  23144  23145  23146  23178M 23178  23212  23247M 23366M
                                                 23398M 23414M 23529M 23529  23538  23539  23540  23572M 23572  23583M
                                                 23719M 23719  23728  23729  23730  23788M 23877M 23889M 23889  23898
                                                 23899  23956  23961M 24014M 24042M 24125M 24143M 24171M 24189M 24227M
                                                 24257M 24279M 24309M 24339M 24373M 24458M 24471M 24491M 24509M 24560M
                                                 24576M 24599M 24626M 24653M 24698M 24698  24729M 24730M 24764M 24800M
1ACMD     (ACMD4072) (12:39) (15MAR04) Ordinary Symbol and Literal Cross Reference                                          Page  198
                                                 24813M 24814M 24848M 24877M 24877  24949M 24977M 25005M 25025M 25048M
                                                 25075M 25123M 25159M 25212M 25309M 25386M 25463M 25593M 25632M 25649M
                                                 25667M 25959M 25980M 26003M 26021M 26056M 26069M 26103M 26143M 26173M
                                                 26173  26321M 26321  26330  26331  26332  26360M 26360  26371M 26394M
                                                 26402M 26423M 26438M 26438  26447  26448  26472M 26493M 26516M 26735M
                                                 26804  26884M 26884  26893  26894  27129M 27150M 27150  27191M 27209M
                                                 27228M 27318M 27348  27359M 27384M 27474M 27555M 27698M 27710M 27710
                                                 27719  27720  27757M 27757  27809M 27825M 27848M 27882M 27972M 27988M
                                                 28004M 28027M 28061M 28092  28103M 28133  28144M 28204M 28222M 28245M
                                                 28263M 28281M 28299M 28317M 28335M 28360M 28360  28384M 28402M 28442M
                                                 28460M 28514M 28723M 28871M 28905M 28918M 28993M 29021M 29055M 29055
                                                 29174M 29322M 29355M 29372  29377M 29444M 29465M 29465  29506M 29539M
                                                 29539  29683M 29683  29692  29693  29722M 29722  29748M 29760M 29760
                                                 29769  29770  29771  29798M 29798  29830M 30215M 30231M 30253M 30285M
                                                 30333M 30358M 30483M 30499M 30519M 30767M 30767  30776  30777  30778
                                                 30805M 30805  30834M 30835M 30835  30848M 30848  30857  30858  30859
                                                 30906M 30922M 31042M 31042  31051  31052  31093M 31147M 31175M 31203M
                                                 31231M 31251M 32000M 32030M 32403M 32417M 32592M 32593M 32594M 32633
                                                 32960M 32982M 33004M 33056M 33097M 33217M 33245M 33263M 33291M 33309M
                                                 33336M 33366M 33386M 33410M 33502  33503  33503  33503  33509M 33524M
                                                 33592  33593  33593  33593  33599M 33614M 33678M 33761  33761  33761
                                                 35308M 35308  35317  35318  35360M 35360  35369  35370  36164M 36325M
                                                 37840  37953  38136  39579M 41451  41473  41531M 41549M 41697  41871
                                                 41908M 42084  42121M 42685M 42715M 43049M 43049  43058  43059  43112M
                                                 43130M 43158M 43176M 43210M 43263M 43288M 43291  43303M 43346M 43632M
                                                 43650M 43678M 43712M 43740M 43758M 43797M 43825M 43843M 43883M 43919M
                                                 43940M 43995M 44034M 44073M 44127M 44166M 44205M 44244M 44287M 44316M
                                                 44316  44401M 44419M 44455M 44473M 44496M 44559M 44559  44589M 44615M
                                                 44652M 44729M 44750M 44750  44772M 44798M 44824M 44850M 44876M 44902M
                                                 44928M 44954M 44980M 45006M 45032M 45058M 45084M 45167M 45200M 45222M
                                                 45250M 45266M 45266  45288M 45314M 45340M 45366M 45427M 45427  45463M
                                                 45502M 45544M 45578M 45608M 45638M 45663M 45679M 45701M 45723M 45723
                                                 45739M 45789M 45811M 45811  45829M 45892M 45892  45925M 45971M 45999M
                                                 46015M 46065M 46093M 46109M 46159M 46187M 46249M 46249  46285M 46301M
                                                 46323M 46349M 46382M 46403M 46455M 46483M 46517M 46556M 46584M 46646M
                                                 46646  46680M 46726M 46739M 46740M 46774M 46792M 46793M 46827M 46865M
                                                 46878M 46879M 46913M 46955M 46968M 46969M 47003M 47025M 47041M 47091M
                                                 47091  47112M 47158M 47179M 47179  47220M 47236M 47286M 47308M 47308
                                                 47347M 47397M 47419M 47419  47504M 47504  47541M 47559M 47580M 47580
                                                 47598M 47619M 47619  47648M 47694M 47710M 47761M 47777M 47828M 47844M
                                                 47895M 47911M 47962M 47978M 48028M 48044M 48094M 48094  48127M 48173M
                                                 48189M 48242M 48258M 48279M 48307M 48307  48341M 48403M 48403  48455
                                                 48471M 48536M 48552M 48616M 48632M 48686M 48686  48709M 48730M 48794M
                                                 48856M 48856  49090  49108M 49108  49117  49118  49245M 49275M 49568M
                                                 49595M 49733M 49751M 49779M 49797M 49882M 49910M 49928M 49956M 49975M
                                                 50044M 50072M 50090M 50118M 50136M 50251M 50292  50468M 50509  50824M
                                                 50842M 51558  52026M 52077M 52116M 52155M 52194M 52233M 52272M 52311M
                                                 52466M 52466  52475  52476  52568M 52568  52577  52578  52819M 52881
                                                 52945  53009  53132M 53132  53141  53142  53143  53170M 53170  53336
                                                 53381M 53400M 53447M 53475M 53493M 53521M 53540M 53916M 53916  53934M
                                                 54066  54395M 54400  54412M 54413  54424M 54425  54472  54499M 54500M
                                                 54516  54540M 54543  54545  54686  54783M 54797M 54857M 54915  54954M
                                                 54954  54963  54964  55008M 55008  55017  55018  55500M 55587M 55626M
                                                 55654M 55672M 55700M 55719M 55730M 55838M 55898M 55945M 55945  55979
                                                 55990M 55990  55999  56000  56001  56034M 56066M 56066  56124M 56155
                                                 56179M 56200  56243  56243M 56383M 56421M 56421  56439M 56457M 56491M
                                                 56647M 56671M 56799M 56821M 56842M 56842
 R1            1 00000001 FFFFFFFF A   #     712  2164M  2165M  2171M  8151M  8186M  8199   8200   8202   8241M  8520M
                                                  8545M  8695M  8863M  8884M  8898M  9069M  9082   9083   9085   9135M
1ACMD     (ACMD4072) (12:39) (15MAR04) Ordinary Symbol and Literal Cross Reference                                          Page  199
                                                  9328M  9341   9380M  9408M  9409M  9409   9506M  9507M  9507   9622M
                                                  9623M  9623   9738M  9739M  9739  10388  10400M 10420M 10442M 10464M
                                                 10523M 10547M 10616M 10638M 10657M 10839M 10852  10853  10854  10916M
                                                 11350M 11363  11364  11366  11826M 11934M 11974M 11996M 12090M 12323M
                                                 12336  12337  12339  12378M 12418M 13249M 13262  13307  13355M 13397M
                                                 13439M 14532M 14629  14660M 14684M 14727M 14751M 14796M 14820M 14842M
                                                 14876M 14895M 14928M 14947M 14980M 14999M 15032M 15051M 15076M 15101M
                                                 15135M 15154M 15188M 15207M 15244M 15265M 15290M 15323M 15344M 15379M
                                                 15585M 15598  15599  15601  15640M 16387M 16411M 16433M 16457M 16496M
                                                 16520M 16542M 16564M 16581M 16603M 16625M 16687M 16707M 16729M 16751M
                                                 16794M 16829M 16851M 16895M 16930M 16952M 16987M 17009M 17044M 17066M
                                                 17235M 17248  17249  17251  17935M 17953M 18001M 18035M 18054M 18075M
                                                 18114M 18132M 18153M 18171M 18344M 18357  18358  18360  18399M 18439M
                                                 18896M 18993  19024M 19048M 19095M 19119M 19166M 19190M 19237M 19261M
                                                 19307M 19347M 19369M 19388M 19609M 19622  19623  19625  19664M 19704M
                                                 20368M 20631  20639M 20652  20653  20655  20865M 21157M 21175M 21504M
                                                 21601  21632M 21654M 21689M 21711M 21746M 21784M 21808M 21846M 21881M
                                                 21914M 21949M 21982M 22001M 22017M 22038M 22063M 22088M 22123M 22314M
                                                 22327  22328  22330  22368M 22381  22382  22384  22408M 22645M 22658
                                                 22659  22660  22730M 22982M 23010M 23030M 23131M 23144  23145  23146
                                                 23246M 23365M 23393M 23413M 23525M 23538  23539  23540  23561M 23562M
                                                 23562  23582M 23715M 23728  23729  23730  23787M 23885M 23898  23899
                                                 23901  23965M 23965  24007M 24037M 24120M 24142M 24166M 24188M 24226M
                                                 24256M 24278M 24308M 24338M 24372M 24457M 24472M 24508M 24553M 24575M
                                                 24598M 24625M 24652M 24763M 24799M 24847M 24944M 24972M 24998M 25024M
                                                 25047M 25074M 25116M 25166M 25219M 25316M 25393M 25470M 25536M 25549
                                                 25556M 25568  25600M 25631M 25650M 25975M 25998M 26020M 26055M 26102M
                                                 26142M 26317M 26330  26331  26332  26370M 26389M 26418M 26434M 26447
                                                 26448  26450  26488M 26515M 26730M 26880M 26893  26894  26896  27113
                                                 27128M 27157M 27190M 27208M 27227M 27317M 27358M 27383M 27473M 27706M
                                                 27719  27720  27722  27808M 27824M 27847M 27881M 27902  27903  27903
                                                 27903  27904M 27914U 27944M 27971M 27987M 28003M 28026M 28060M 28102M
                                                 28143M 28166M 28203M 28221M 28244M 28262M 28280M 28298M 28316M 28334M
                                                 28383M 28401M 28441M 28459M 28506M 28622  28622  28622  28737M 28838
                                                 28870M 28904M 28922M 28922  28992M 29016M 29188M 29289  29321M 29354M
                                                 29381M 29381  29443M 29472M 29505M 29679M 29692  29693  29695  29743M
                                                 29756M 29769  29770  29771  29829M 30214M 30230M 30252M 30284M 30328M
                                                 30354M 30482M 30498M 30518M 30748M 30763M 30776  30777  30778  30833M
                                                 30844M 30857  30858  30859  30905M 30921M 31038M 31051  31052  31054
                                                 31089M 31142M 31170M 31198M 31226M 32402M 32416M 32953M 32975M 32997M
                                                 33055M 33096M 33216M 33240M 33262M 33286M 33308M 33335M 33343M 33365M
                                                 33385M 33409M 33485M 33502  33503  33503  33503  33508M 33524M 33575M
                                                 33592  33593  33593  33593  33598M 33614M 33666M 33761  33761  33761
                                                 35304M 35317  35318  35320  35356M 35369  35370  35372  36163M 36324M
                                                 38123M 38124M 38124  39578M 41530M 41548M 41720M 41721M 41721  41903M
                                                 42116M 43045M 43058  43059  43061  43107M 43129M 43153M 43175M 43217M
                                                 43256M 43283M 43340M 43606  43627M 43649M 43673M 43711M 43735M 43757M
                                                 43796M 43820M 43842M 43882M 43918M 43939M 43994M 44033M 44072M 44126M
                                                 44165M 44204M 44243M 44286M 44394M 44418M 44448M 44472M 44486M 44495M
                                                 44509M 44588M 44610M 44651M 44724M 44771M 44797M 44823M 44849M 44875M
                                                 44901M 44927M 44953M 44979M 45005M 45031M 45057M 45083M 45166M 45199M
                                                 45221M 45245M 45287M 45313M 45339M 45365M 45456M 45501M 45543M 45577M
                                                 45607M 45637M 45662M 45678M 45700M 45719M 45738M 45788M 45807M 45828M
                                                 45918M 45970M 45994M 46014M 46064M 46088M 46108M 46158M 46182M 46278M
                                                 46300M 46322M 46344M 46381M 46402M 46454M 46478M 46516M 46555M 46579M
                                                 46673M 46725M 46773M 46826M 46864M 46912M 46954M 47002M 47024M 47040M
                                                 47111M 47157M 47186M 47219M 47235M 47285M 47315M 47346M 47396M 47426M
                                                 47534M 47558M 47576M 47597M 47615M 47641M 47693M 47709M 47760M 47776M
                                                 47827M 47843M 47894M 47910M 47961M 47977M 48027M 48043M 48120M 48172M
1ACMD     (ACMD4072) (12:39) (15MAR04) Ordinary Symbol and Literal Cross Reference                                          Page  200
                                                 48188M 48241M 48257M 48278M 48340M 48464M 48535M 48551M 48615M 48631M
                                                 48708M 48739M 48739  48793M 49104M 49117  49118  49120  49244M 49276M
                                                 49521M 49567M 49594M 49728M 49750M 49774M 49796M 49881M 49905M 49927M
                                                 49951M 49974M 50043M 50067M 50089M 50113M 50135M 50250M 50467M 50683M
                                                 50684M 50684  50686M 50799M 50800M 50800  50823M 50841M 50960M 50961M
                                                 50961  51148M 51149M 51149  51263M 51264M 51264  51480M 51481M 51481
                                                 52001  52025M 52076M 52115M 52154M 52193M 52232M 52271M 52310M 52462M
                                                 52475  52476  52478  52564M 52577  52578  52580  52818M 53128M 53141
                                                 53142  53143  53337  53354M 53380M 53399M 53446M 53470M 53492M 53516M
                                                 53539M 53939M 53940M 53940  54142M 54143M 54143  54154  54160M 54161M
                                                 54162  54194M 54195M 54195  54206  54212M 54213M 54214  54401  54489
                                                 54501M 54517  54542M 54687  54720M 54779M 54796M 54852M 54914  54950M
                                                 54963  54964  54966  55004M 55017  55018  55020  55425  55426  55426
                                                 55426  55427M 55437U 55467M 55471M 55472M 55472  55499M 55586M 55625M
                                                 55649M 55671M 55695M 55718M 55729M 55837M 55893M 55978  55986M 55999
                                                 56000  56001  56033M 56055M 56056M 56056  56123M 56178M 56438M 56456M
                                                 56490M 56646M 56678M 56798M 56820M 56849M 56941  56941  56941
 R12          12 0000000C FFFFFFFF A   #     855  2127
 R13          13 0000000D FFFFFFFF A   #     868  8194   8195   8196   8212   8213   8214   9077   9078   9079   9095
                                                  9096   9097   9336   9337   9338   9351   9352   9353  10847  10848
                                                 10849  10864  10865  10866  11358  11359  11360  11376  11377  11378
                                                 12331  12332  12333  12349  12350  12351  13257  13258  13259  13272
                                                 13273  13274  15593  15594  15595  15611  15612  15613  17243  17244
                                                 17245  17261  17262  17263  18352  18353  18354  18370  18371  18372
                                                 19617  19618  19619  19635  19636  19637  20600  20647  20648  20649
                                                 20665  20666  20667  22322  22323  22324  22340  22341  22342  22376
                                                 22377  22378  22394  22395  22396  22653  22654  22655  22670  22671
                                                 22672  23139  23140  23141  23156  23157  23158  23533  23534  23535
                                                 23550  23551  23552  23723  23724  23725  23740  23741  23742  23893
                                                 23894  23895  23911  23912  23913  26325  26326  26327  26342  26343
                                                 26344  26442  26443  26444  26460  26461  26462  26888  26889  26890
                                                 26906  26907  26908  27714  27715  27716  27732  27733  27734  29687
                                                 29688  29689  29705  29706  29707  29764  29765  29766  29781  29782
                                                 29783  30758  30771  30772  30773  30788  30789  30790  30852  30853
                                                 30854  30869  30870  30871  30926  31046  31047  31048  31064  31065
                                                 31066  35312  35313  35314  35330  35331  35332  35364  35365  35366
                                                 35382  35383  35384  43053  43054  43055  43071  43072  43073  49112
                                                 49113  49114  49130  49131  49132  52470  52471  52472  52488  52489
                                                 52490  52572  52573  52574  52590  52591  52592  53136  53137  53138
                                                 53153  53154  53155  54682  54958  54959  54960  54976  54977  54978
                                                 55012  55013  55014  55030  55031  55032  55831  55994  55995  55996
                                                 56011  56012  56013
 R14          14 0000000E FFFFFFFF A   #     881  2102M  8162M  8167M  8167   8178M  8183M  8183   8193M  8194   8195
                                                  8196   8201M  8202   8209M  8212   8213   8214   9008M  9013M  9013
                                                  9024M  9029M  9029   9076M  9077   9078   9079   9084M  9085   9092M
                                                  9095   9096   9097   9335M  9336   9337   9338   9348M  9351   9352
                                                  9353  10846M 10847  10848  10849  10861M 10864  10865  10866  11357M
                                                 11358  11359  11360  11365M 11366  11373M 11376  11377  11378  12089M
                                                 12090  12091  12095M 12095  12299M 12304M 12304  12315M 12320M 12320
                                                 12330M 12331  12332  12333  12338M 12339  12346M 12349  12350  12351
                                                 13256M 13257  13258  13259  13269M 13272  13273  13274  15561M 15566M
                                                 15566  15577M 15582M 15582  15592M 15593  15594  15595  15600M 15601
                                                 15608M 15611  15612  15613  17211M 17216M 17216  17227M 17232M 17232
                                                 17242M 17243  17244  17245  17250M 17251  17258M 17261  17262  17263
                                                 18320M 18325M 18325  18336M 18341M 18341  18351M 18352  18353  18354
                                                 18359M 18360  18367M 18370  18371  18372  19585M 19590M 19590  19601M
                                                 19606M 19606  19616M 19617  19618  19619  19624M 19625  19632M 19635
                                                 19636  19637  20599M 20600  20630M 20631  20632  20636M 20636  20646M
                                                 20647  20648  20649  20654M 20655  20662M 20665  20666  20667  20676M
1ACMD     (ACMD4072) (12:39) (15MAR04) Ordinary Symbol and Literal Cross Reference                                          Page  201
                                                 20679  22306M 22311M 22311  22321M 22322  22323  22324  22329M 22330
                                                 22337M 22340  22341  22342  22352M 22357M 22357  22375M 22376  22377
                                                 22378  22383M 22384  22391M 22394  22395  22396  22553M 22558M 22558
                                                 22652M 22653  22654  22655  22667M 22670  22671  22672  23138M 23139
                                                 23140  23141  23153M 23156  23157  23158  23532M 23533  23534  23535
                                                 23547M 23550  23551  23552  23722M 23723  23724  23725  23737M 23740
                                                 23741  23742  23819M 23820  23835  23850  23851  23852  23852  23853
                                                 23854  23867  23871M 23871  23892M 23893  23894  23895  23900M 23901
                                                 23908M 23911  23912  23913  26324M 26325  26326  26327  26339M 26342
                                                 26343  26344  26441M 26442  26443  26444  26449M 26450  26457M 26460
                                                 26461  26462  26887M 26888  26889  26890  26895M 26896  26903M 26906
                                                 26907  26908  27713M 27714  27715  27716  27721M 27722  27729M 27732
                                                 27733  27734  29416M 29421M 29422M 29686M 29687  29688  29689  29694M
                                                 29695  29702M 29705  29706  29707  29763M 29764  29765  29766  29778M
                                                 29781  29782  29783  29828M 29829  29830  29834M 29834  30757M 30758
                                                 30770M 30771  30772  30773  30785M 30788  30789  30790  30838M 30841
                                                 30851M 30852  30853  30854  30866M 30869  30870  30871  30880M 30883
                                                 30925M 30926  30935M 30938  31045M 31046  31047  31048  31053M 31054
                                                 31061M 31064  31065  31066  32580M 32587M 32593  32594M 33022M 33027M
                                                 33027  33452M 33457M 33457  35311M 35312  35313  35314  35319M 35320
                                                 35327M 35330  35331  35332  35363M 35364  35365  35366  35371M 35372
                                                 35379M 35382  35383  35384  38322M 38322  38323M 38430M 38430  38431M
                                                 38538M 38538  38539M 38646M 38646  38647M 39376M 39376  39377M 39589M
                                                 39589  39590M 43052M 43053  43054  43055  43060M 43061  43068M 43071
                                                 43072  43073  49111M 49112  49113  49114  49119M 49120  49127M 49130
                                                 49131  49132  49159M 49160  49175  49190  49191  49192  49192  49193
                                                 49194  49207  49211M 49211  52469M 52470  52471  52472  52477M 52478
                                                 52485M 52488  52489  52490  52571M 52572  52573  52574  52579M 52580
                                                 52587M 52590  52591  52592  53119M 53124M 53124  53135M 53136  53137
                                                 53138  53150M 53153  53154  53155  53221M 53226M 53226  54681M 54682
                                                 54913M 54914  54915  54919M 54919  54957M 54958  54959  54960  54965M
                                                 54966  54973M 54976  54977  54978  55011M 55012  55013  55014  55019M
                                                 55020  55027M 55030  55031  55032  55129M 55132  55830M 55831  55977M
                                                 55978  55979  55983M 55983  55993M 55994  55995  55996  56008M 56011
                                                 56012  56013  56246M 56249  56613M 56613  56614M 56626
 R15          15 0000000F FFFFFFFF A   #     894  2101   8215M  8215   8391M  8391   8570M  8608M  8608   8806M  8806
                                                  8919M  8919   9098M  9098   9173M  9173   9354M  9354   9823M  9826
                                                  9838M  9846M  9855M  9855   9862   9889M  9889   9908M  9908   9975M
                                                  9975  10042M 10042  10110M 10110  10176M 10179  10191M 10199M 10208M
                                                 10208  10215  10267M 10267  10286M 10286  10451M 10497M 10532M 10560M
                                                 10585M 10625M 10647M 10666M 10692M 10716M 10716  10867M 10867  10907M
                                                 11379M 11379  11739M 11739  11817M 11854M 11854  11943M 11987M 12005M
                                                 12035M 12035  12100M 12126M 12126  12352M 12352  12456M 12456  13103M
                                                 13103  13175M 13175  13275M 13275  13387  13429  13471  13499M 13499
                                                 13518M 13518  13589M 13589  13661M 13661  13732M 13732  13804M 13804
                                                 13890M 13890  13976M 13976  14058M 14058  14141M 14141  14213M 14213
                                                 14285M 14285  14357M 14357  14429M 14429  14570M 14570  14669M 14697M
                                                 14736M 14764M 14805M 14833M 14851M 14920M 14972M 15024M 15126M 15179M
                                                 15232M 15315M 15369M 15388M 15412M 15412  15614M 15614  15705M 15705
                                                 15916M 15916  15990M 15990  16063M 16063  16137M 16137  16210M 16210
                                                 16284M 16284  16396M 16424M 16442M 16470M 16505M 16533M 16551M 16573M
                                                 16612M 16654M 16679M 16738M 16784M 16803M 16838M 16860M 16885M 16904M
                                                 16939M 16961M 16996M 17018M 17053M 17075M 17114M 17114  17264M 17264
                                                 17428M 17428  17588M 17588  17698M 17698  17717M 17717  17787M 17787
                                                 17944M 17962M 18010M 18044M 18066M 18084M 18123M 18144M 18162M 18180M
                                                 18223M 18223  18373M 18373  18477M 18477  18701M 18701  18773M 18773
                                                 18934M 18934  19033M 19061M 19104M 19132M 19175M 19203M 19246M 19274M
                                                 19316M 19356M 19378M 19397M 19421M 19421  19638M 19638  19742M 19742
                                                 20030M 20030  20102M 20102  20173M 20173  20245M 20245  20295M 20296M
1ACMD     (ACMD4072) (12:39) (15MAR04) Ordinary Symbol and Literal Cross Reference                                          Page  202
                                                 20296  20358M 20393M 20393  20466M 20466  20554M 20554  20668M 20668
                                                 20698M 20698  20886M 20886  20953M 20953  21020M 21020  21087M 21087
                                                 21148M 21166M 21196M 21196  21256M 21256  21329M 21329  21401M 21401
                                                 21542M 21542  21641M 21663M 21698M 21720M 21755M 21793M 21833M 21855M
                                                 21869M 21905M 21923M 21937M 21973M 21991M 22010M 22113M 22132M 22156M
                                                 22156  22343M 22343  22397M 22397  22446M 22446  22586M 22586  22673M
                                                 22673  22721M 22839M 22896M 22896  23023M 23056M 23056  23159M 23159
                                                 23237M 23279M 23279  23406M 23439M 23439  23553M 23553  23631M 23631
                                                 23743M 23743  23751M 23752M 23752  23796M 23820M 23829M 23829  23835M
                                                 23844M 23844  23850M 23851M 23853M 23854  23866M 23866  23867  23914M
                                                 23914  23967M 23992M 24022M 24066M 24133M 24151M 24179M 24197M 24235M
                                                 24246M 24265M 24287M 24298M 24317M 24328M 24347M 24381M 24392M 24405
                                                 24412M 24448M 24466M 24499M 24517M 24568M 24677M 24706M 24754M 24772M
                                                 24808M 24838M 24856M 24885M 24957M 24985M 25103M 25143M 25148M 25190M
                                                 25204M 25243M 25254M 25267  25274M 25287M 25287  25294M 25340M 25351M
                                                 25364  25371M 25417M 25428M 25441  25448M 25494M 25505M 25518  25525M
                                                 25568M 25578M 25578  25624M 25691M 25734M 25734  25857M 25857  25960M
                                                 25981M 26011M 26029M 26064M 26093M 26111M 26151M 26181M 26215M 26215
                                                 26345M 26345  26380M 26403M 26424M 26463M 26463  26473M 26494M 26547M
                                                 26547  26677M 26677  26721M 26743M 26743  26762M 26762  26823M 26823
                                                 26909M 26909  26941M 26941  27137M 27146M 27181M 27199M 27217M 27236M
                                                 27244M 27244  27260M 27270U 27326M 27367M 27392M 27400M 27400  27416M
                                                 27426U 27482M 27487M 27497U 27579M 27579  27735M 27735  27765M 27817M
                                                 27872M 27890M 27902  27903  27903  27903  27935M 27940M 27940  27944M
                                                 27996M 28051M 28069M 28111M 28152M 28193  28212M 28230M 28253M 28271M
                                                 28289M 28307M 28325M 28343M 28368M 28392M 28410M 28450M 28505M 28553M
                                                 28553  28622  28622  28622  28775M 28775  28879M 28913M 28924M 28949M
                                                 29001M 29029M 29063M 29086M 29086  29226M 29226  29330M 29363M 29383M
                                                 29408M 29420M 29420  29427  29452M 29461M 29496M 29514M 29547M 29570M
                                                 29570  29708M 29708  29734M 29784M 29784  29862M 29891M 29891  30114M
                                                 30133M 30133  30223M 30277M 30339M 30345M 30402M 30403M 30404  30425M
                                                 30425  30491M 30544M 30544  30791M 30791  30872M 30872  30914M 31067M
                                                 31067  31074M 31129M 31130M 31131  31155M 31183M 31211M 31239M 31281
                                                 31327M 31327  31531M 31531  31598M 31598  31665M 31665  31732M 31732
                                                 31799M 31799  31866M 31866  32627M 32627  32940M 32965  32987  33009
                                                 33225M 33253M 33271M 33299M 33517M 33544M 33607M 33634M 33665M 33708M
                                                 33708  35333M 35333  35385M 35385  35413M 35413  35488M 35488  35559M
                                                 35559  35631M 35631  35702M 35702  35744M 35752M 35752  35771M 35771
                                                 35813M 35821M 35821  35840M 35840  35882M 35890M 35890  35909M 35909
                                                 35951M 35959M 35959  35978M 35978  36020M 36028M 36028  36047M 36047
                                                 36089M 36097M 36097  36116M 36116  36170M 36175M 36183M 36183  36202M
                                                 36202  36272  36304  36331M 36358M 36358  36430M 36430  36501M 36501
                                                 36591M 36591  36663M 36663  36734M 36734  36806M 36806  36877M 36877
                                                 36949M 36949  37020M 37020  37092M 37092  37169M 37169  37246M 37246
                                                 37321M 37321  37396M 37396  37467M 37467  37539M 37539  37633M 37633
                                                 37704M 37704  37776M 37776  37827M 37828M 37828  38053M 38053  38072M
                                                 38072  38195M 38195  38214M 38214  38293M 38295M 38302  38314M 38324
                                                 38328M 38328  38347M 38347  38401M 38403M 38410  38422M 38432  38436M
                                                 38436  38455M 38455  38509M 38511M 38518  38530M 38540  38544M 38544
                                                 38563M 38563  38617M 38619M 38626  38638M 38648  38652M 38652  38671M
                                                 38671  38726M 38726  38745M 38745  38813M 38813  38867M 38881M 38881
                                                 38897  38901M 38901  38920M 38920  38974M 38981  38985M 38985  39004M
                                                 39004  39072M 39072  39120M 39127  39139M 39152M 39152  39167  39171M
                                                 39171  39190M 39190  39257M 39257  39305M 39308  39320M 39325M 39332
                                                 39344M 39357M 39357  39372M 39378  39382M 39382  39401M 39401  39468M
                                                 39468  39516M 39519  39531M 39536M 39543  39555M 39568M 39568  39585M
                                                 39591  39595M 39595  39614M 39614  39685M 39685  39757M 39757  39828M
                                                 39828  39900M 39900  39972M 39972  40043M 40043  40092M 40107  40148
                                                 40149M 40164  40171M 40179  40181  40183  40191M 40191  40210M 40210
1ACMD     (ACMD4072) (12:39) (15MAR04) Ordinary Symbol and Literal Cross Reference                                          Page  203
                                                 40281M 40281  40353M 40353  40424M 40424  40496M 40496  40568M 40568
                                                 40639M 40639  40710M 40710  40782M 40782  40856M 40856  40927M 40927
                                                 41001M 41001  41072M 41072  41139M 41139  41187M 41190  41202M 41213
                                                 41225M 41241  41248M 41253  41257M 41257  41276M 41276  41324M 41331
                                                 41343M 41359  41366M 41371  41375M 41375  41394M 41394  41473M 41486
                                                 41539M 41557M 41571M 41580M 41580  41587  41610M 41625M 41625  41644M
                                                 41644  41726M 41726  41745M 41745  41818M 41818  41894M 41939M 41939
                                                 41958M 41958  42031M 42031  42107M 42129M 42129  42148M 42148  42221M
                                                 42221  42291M 42291  42357M 42357  43074M 43074  43120M 43138M 43166M
                                                 43184M 43198M 43199M 43241M 43271M 43276M 43384M 43384  43498M 43498
                                                 43640M 43658M 43686M 43720M 43748M 43766M 43805M 43833M 43851M 43891M
                                                 43964M 44003M 44042M 44081M 44135M 44174M 44213M 44252M 44295M 44324M
                                                 44409M 44427M 44463M 44481M 44504M 44567M 44597M 44676M 44737M 45108M
                                                 45175M 45208M 45230M 45258M 45390M 45435M 45471M 45489M 45510M 45552M
                                                 45586M 45597M 45616M 45627M 45646M 45671M 45709M 45731M 45763M 45797M
                                                 45819M 45837M 45900M 45961M 45979M 46007M 46055M 46073M 46101M 46149M
                                                 46167M 46195M 46257M 46293M 46331M 46373M 46427M 46463M 46491M 46525M
                                                 46564M 46592M 46654M 46716M 46734M 46764M 46782M 46817M 46835M 46873M
                                                 46903M 46921M 46963M 46993M 47011M 47033M 47099M 47148M 47166M 47175M
                                                 47210M 47228M 47276M 47294M 47304M 47339M 47387M 47405M 47415M 47450M
                                                 47512M 47549M 47567M 47588M 47606M 47627M 47684M 47702M 47751M 47769M
                                                 47818M 47836M 47885M 47903M 47952M 47970M 48018M 48036M 48102M 48163M
                                                 48181M 48232M 48250M 48331M 48349M 48411M 48449M 48449  48526M 48544M
                                                 48606M 48624M 48694M 48717M 48741M 48766M 48802M 48864M 48893M 48893
                                                 49133M 49133  49150  49160M 49169M 49169  49175M 49184M 49184  49190M
                                                 49191M 49193M 49194  49206M 49206  49207  49219M 49219  49299M 49299
                                                 49388M 49407M 49407  49449M 49468M 49468  49530M 49530  49603M 49613M
                                                 49636M 49636  49741M 49759M 49787M 49805M 49832M 49832  49890M 49918M
                                                 49936M 49964M 49995M 49995  50052M 50080M 50098M 50126M 50156M 50156
                                                 50241M 50292M 50295  50307M 50315M 50324M 50324  50331  50357M 50357
                                                 50376M 50376  50458M 50509M 50512  50524M 50532M 50541M 50541  50548
                                                 50574M 50574  50593M 50593  50709M 50709  50832M 50851M 50851  50870M
                                                 50870  50966M 50966  50985M 50985  51058M 51058  51154M 51154  51173M
                                                 51173  51298M 51298  51317M 51317  51390M 51390  51486M 51486  51505M
                                                 51505  51558M 51561  51573M 51581M 51590M 51590  51597  51619M 51619
                                                 51638M 51638  51711M 51711  51790M 51790  51864M 51864  51939M 51939
                                                 52034M 52085M 52124M 52163M 52202M 52241M 52280M 52319M 52350M 52350
                                                 52459  52491M 52491  52497M 52516M 52516  52561  52593M 52593  52599M
                                                 52618M 52618  52839M 52839  52884M 52903M 52903  52948M 52967M 52967
                                                 53012M 53031M 53031  53125  53156M 53156  53176M 53227M 53260M 53260
                                                 53389M 53455M 53483M 53501M 53529M 53969M 53969  54184M 54184  54246M
                                                 54246  54263M 54294M 54294  54394  54443  54445M 54452M 54453M 54454M
                                                 54454  54478M 54572M 54594M 54594  54745M 54745  54784M 54839M 54885M
                                                 54885  54979M 54979  55033M 55033  55051M 55051  55058M 55074  55094
                                                 55103M 55103  55119M 55151M 55151  55301M 55320M 55320  55362M 55381M
                                                 55381  55425  55426  55426  55426  55458M 55463M 55463  55467M 55506M
                                                 55525M 55525  55634M 55662M 55680M 55708M 55738M 55767M 55767  55880M
                                                 55926M 55926  55949M 55949  56014M 56014  56023M 56023  56042M 56132M
                                                 56187M 56200M 56203  56215M 56222M 56224  56239M 56268M 56268  56328M
                                                 56329M 56341  56429M 56447M 56465M 56499M 56508M 56518U 56561M 56561
                                                 56635M 56641  56655M 56664M 56702M 56725M 56725  56774  56807M 56829M
                                                 56838M 56873M 56896M 56896  56941  56941  56941
 R2            2 00000002 FFFFFFFF A   #     725 11392M 11392  11413M 11434M 11463M 11463  11503M 11543M 11583M 11623M
                                                 11663M 11681M 11681  13387M 13388M 13429M 13430M 13471M 13472M 13481M
                                                 13481  13495  17333M 17366M 17379M 17379  23956M 24423M 24436  24443M
                                                 24448  25966M 26409M 26479M 29372M 29424M 29425M 29426M 32572M 32592
                                                 32965M 32966M 32987M 32988M 33009M 33010M 33011  40148M 40171  40179
                                                 40181M 40182  44581M 44581  44583M 45155M 45155  45161M 45408M 45408
                                                 45689M 45690M 45690  45719  45777M 45778M 45778  45807  46690M 46691M
1ACMD     (ACMD4072) (12:39) (15MAR04) Ordinary Symbol and Literal Cross Reference                                          Page  204
                                                 46691  46739  46853M 46878  46943M 46968  47122M 47123M 47123  47175
                                                 47250M 47251M 47251  47299M 47304  47361M 47362M 47362  47410M 47415
                                                 52001M 54066M 54069  54081M 54086  54090M 54099M 54099  54106  54400M
                                                 54425M 54489M 54497U 54516M 54530  56363M 56364M 56365  56377  56403
                                                 56641M 56664  56774M 56786  56792M 56793M 56793  56838
 R3            3 00000003 FFFFFFFF A   #     738 13307M 17891M 17911M 17925M 17925  17991  18054  23960M 23960  27146
                                                 29376M 29376  29424M 29427M 29461  31076M 32934M 32940  43191M 43199
                                                 43288  43314M 52459M 52497  52561M 52599  52881M 52883  52883M 52945M
                                                 52947  52947M 53009M 53011  53011M 53125M 53176  53227  54401M 54409U
                                                 54515M 54515  54530  54543M 54544M 54544
 R4            4 00000004 FFFFFFFF A   #     751 19003M 19069M 19069  19140M 19140  19211M 19211  19282M 19282  19296M
                                                 19296  30691M 30699U 43190M 43283  43313M 49090M 49275  54426M 54517M
                                                 54541M 54541  54542  54545M
 R5            5 00000005 FFFFFFFF A   #     764  8099M  8107U  8486M  8494U  8712M  8720U  8987M  8995U 12278M 12286U
                                                 14506M 14514U 15540M 15548U 16361M 16369U 17190M 17198U 17864M 17872U
                                                 18299M 18307U 18849M 18857U 19564M 19572U 21478M 21486U 22289M 22297U
                                                 22796M 22823M 22832M 22832  23699M 23707U 27113M 27122U 27680M 27688U
                                                 28711M 28719U 29162M 29170U 31109M 31119U 31983M 31991U 42674M 42682U
                                                 43606M 43614U 49088U 53336M 53433  53555M 53555  53610  53680M 53680
                                                 53927  54394M 54445  54478  54686M 54942M 54942
 R6            6 00000006 FFFFFFFF A   #     777 10388M 10396U 10817M 10825U 14629M 14637U 18993M 19001U 21601M 21609U
                                                 22681M 22682M 22682  22752M 22790M 23167M 23168M 23168  23185M 26280M
                                                 26288U 28838M 28846U 29289M 29297U 30729M 30737U 53337M 53345U 54687M
                                                 54700M 54700  54713U 54720
 R7            7 00000007 FFFFFFFF A   #     790  2094M  2094   2095B  2107B
 R8            8 00000008 FFFFFFFF A   #     803  8085U  8472U  8671U  8973U 10813U 12264U 14492U 15526U 16347U 17176U
                                                 17850U 18285U 18835U 19550U 21464U 22275U 23685U 25936U 26269U 27666U
                                                 28697U 29148U 29654U 30677U 31969U 42660U 53112U 54061U
 SCANCHK       1 00000000 00000007     T   10310 10310  12168  15437  19447  22181  23453  26999  28606  30573  31896
                                                 38226  43524  52365  53273  56915
 SCNINVAL      1 00000000 00000010     T   11774 11774
 SCNNOOP       1 00000000 00000021     T   22509 22509
 SCUPCASE      1 00000000 00000014     T   12169 12169  27023  30574  42394
 SDSNQSZ       1 0000002C FFFFFFEC A   U    6082  6083   6084
 SEG           1 00000000 0000000A     T   10316 10316  12163  15447  19451  22189  27006  28608  30562  31902  33733
                                                 42391  43525  48922  52370  54313  56911
 SEGACCT       2 0000A8E2 00000001     H   49648 10314  15440  19457  22184  28607  30559
 SEGB          1 00000000 0000001B     T   19452 19452  22192  23459  27016  28595  30566  48923  52371  54315  56922
 SEGCR         1 00000000 00000011     T   12164 12164  19454  27021  28616  30579  31897  33738  48926  56923
 SEGDC         1 00000000 0000001C     T   19459 19459  48932
 SEGMACH       2 0000AF06 00000001     H   51966 48927
 SEGT          1 00000000 00000012     T   12165 12165  15449  19453  23462  48924
 SEGTB         1 00000000 00000015     T   12173 12173  15448  19463  22194
 SEGWR         1 00000000 00000013     T   12166 12166  15450  19466  22197  27001  28597  30564  38229  43526  52369
                                                 56924
 SEGXDOL       2 0000C20C 00000001     H   56739 27008  48931
 SETAUTO       2 0000111E 00000001     H   12222 12218
 SETCOST       2 00004880 00000001     H   25803 25799
 SETJOB        2 00003068 00000001     H   19508 19504
 SETMAIL       2 000002EA 00000001     H    8931  8927
 SETMAST       2 000065B2 00000001     H   31927 31923
 SETMST        2 00001F78 00000001     H   15484 15480
 SETNAME       2 00000018 00000001     H    8043  8039
 SETNOTM       2 00002552 00000001     H   17134 17130
 SETOUT        2 00002952 00000001     H   18243 18239
 SETPACCT      2 00000212 00000001     H    8629  8625
 SETPASS       2 00005028 00000001     H   27624 27620
 SETPRIV       2 00005FDC 00000001     H   30635 30631
 SETPROJ       2 00003E30 00000001     H   22607 22603
1ACMD     (ACMD4072) (12:39) (15MAR04) Ordinary Symbol and Literal Cross Reference                                          Page  205
 SETPROJ       1 00000000 00000024     T   23464 23464
 SETSMF        2 00005D48 00000001     H   30145 30141
 SETWAPP       2 0000417C 00000001     H   23487 23483
 SETWCH        2 000009D8 00000001     H   10771 10767
 SETWCHAR     16 00000000 FFFFFFE0     C   10754 10888M 10916  10921  10939  10945M 10962  10968M 10985  10991M 11008
                                                 11014M 11031  11037M 11054  11060M 11077  11083M 11100  11106M 11123
                                                 11129M 11146  11152M 11169  11175M 11192  11198M 11215  11221M 11238
                                                 11244M 11261  11267M 11284  11290M 11307  11313M 11330  11336M 11484
                                                 11524  11564  11604  11644  11698  11713  12136  12137  12138  12139
                                                 12140  12141  12142  12143  12144  12145  12146  12148  12149  12150
                                                 12151  12152  12153  12154  12155
 SETWCIN       2 0000499A 00000001     H   26227 26223
 SETWCPRT      4 00004B08 00000001     F   26554 27025
 SETWPASS      8 00000010 FFFFFFE0     C   10755 11490  11530  11570  11610  11650  11826  11831  12156  12157  12158
                                                 12159  12160
 SETWPROJ      2 00003F96 00000001     H   23068 23064
 SETWPRT       4 00000CB4 00000001     F   11747 12170
 SETWWA       24 00000000 FFFFFFE0     J   10762 10784  10813U 10817  10825U 10833M 10833  11735  11737  11738
 SETXMAIL      2 00000298 00000001     H    8826  8822
 SHOWAUTO      2 00001BE2 00000001     H   14450 14446
 SHOWCHAR      2 00004226 00000001     H   23643 23639
 SHOWCOST      2 00004C3E 00000001     H   26843 26839
 SHOWJOB       2 000038C4 00000001     H   21422 21418
 SHOWKTIM      2 000058A8 00000001     H   29106 29102
 SHOWLTIM      2 00005778 00000001     H   28655 28651
 SHOWMAST      2 000091C4 00000001     H   42618 42614
 SHOWMST       2 000022EC 00000001     H   16305 16301
 SHOWNAME      2 00000184 00000001     H    8430  8426
 SHOWNOTM      2 00002808 00000001     H   17808 17804
 SHOWOUT       2 00002C48 00000001     H   18793 18789
 SHOWPROJ      2 00003F2A 00000001     H   22908 22904
 SHOWSMF       2 00005E56 00000001     H   30443 30439
 SHOWSPCE      2 00003C20 00000001     H   22233 22229
 SHOWTRKS      1 00000000 00000023     T   23457 23457
 SHOWWCH       2 00000D3E 00000001     H   11874 11870
 SHOWWCIN      2 000048AC 00000001     H   25894 25890
 SHOWWPRJ      2 00004062 00000001     H   23291 23287
 SIB         254 00000000 FFFFFFE9     X    6994 30615  31119U 31123M 31290M
 SIBACCT       5 00000070 FFFFFFE9     C    6593  6756   6756
 SIBCRI        2 000000F0 FFFFFFE9     H    6983  6988   6988
 SIBFL         1 00000040 FFFFFFE9     R    6331  6335   6340   6345   6350   6355
 SIBFLG        1 000000B4 FFFFFFE9     R    6871  6875   6880   6885   6890   6895   6900   6905   6910
 SIBFLG2       1 000000B5 FFFFFFE9     R    6916  6920   6925   6930
 SIBFL2        1 00000041 FFFFFFE9     R    6361  6365   6370   6375   6380
 SIBFL3        1 00000042 FFFFFFE9     R    6386  6390   6395   6400
 SIBFL4        1 00000043 FFFFFFE9     R    6406  6410   6415   6420
 SIBFL5        1 00000044 FFFFFFE9     R    6426  6430   6435   6440
 SIBID         4 00000000 FFFFFFE9     F    6318 31142  31147
 SIBKAFL       1 0000007B FFFFFFE9     R    6727  6731   6736   6741   6746   6751  31125M
 SIBKIFL       1 0000007A FFFFFFE9     R    6682  6686   6691   6696   6701   6706   6711   6716   6721  31124M
 SIBNO         2 00000004 FFFFFFE9     H    6319 31170  31175
 SIBOFLAG      1 000000D2 FFFFFFE9     R    6941  6945   6950   6955   6960   6965
 SIBOPST       4 00000080 FFFFFFE9     F    6761  6990   6990
 SIBPORT       8 00000010 FFFFFFE9     C    6325  6445   6445
 SIBQFLG       1 000000A8 FFFFFFE9     R    6790  6794
 SIBSESS      16 00000070 FFFFFFE9     X    6756 31226  31231
 SIBSFLG       1 00000077 FFFFFFE9     R    6600  6604   6609   6614   6619   6624   6629
 SIBSTART      4 00000000 FFFFFFE9     F    6317  6321   6321   6757   6757   6862   6862   6994   6994
 SIBSTAT       1 0000004B FFFFFFE9     R    6537  6541   6546   6551   6556   6561   6566   6571
1ACMD     (ACMD4072) (12:39) (15MAR04) Ordinary Symbol and Literal Cross Reference                                          Page  206
 SIBTACF       1 00000078 FFFFFFE9     R    6635  6639   6644   6649   6654   6659   6664   6669   6674
 SIBTFLAG      1 000000A6 FFFFFFE9     R    6768  6772   6777   6782
 SIBTYPE       1 00000048 FFFFFFE9     R    6450  6459   6469   6479   6489   6499   6509   6519   6529
 SIBUC         2 00000080 FFFFFFE9     H    6762 31130  31131M 31198  31203
 SIBUFLG       1 000000AA FFFFFFE9     R    6805  6809   6814   6819   6824   6829   6834   6839   6844
 SIBUFLG2      1 000000AB FFFFFFE9     R    6850  6854   6859
 SIBVPGM       8 00000058 FFFFFFE9     C    6583  6589   6589
 SIB1ST        4 00000048 FFFFFFE9     F    6447  6992   6992
 SMASTFIN      4 000093E2 00000001     I   43346 43189B 43312B 43334B
 SMASTHEX      2 00009484 00000001     H   43439 43403
 SMASTPRT      4 0000940C 00000001     F   43391 43522
 SMF           2 00005A0E 00000001     H   29612 29608
 SMFCOM        2 00005D1C 00000001     H   30079 29908  29923  29938  29953  29968  29983  29998  30013  30028  30043
                                                 30058
 SMFDATA       4 0000003C FFFFFFE4     F    7650  7660   7669
 SMFHDR       56 00000000 FFFFFFE5     J    7633  7645   7692
 SMFLOG        1 00000000 00000037     T   30577 30577  31901  56910
 SMFNAME       8 00000000 FFFFFFDD     C   29595 29743  29748  29862
 SMFPRT        4 00005B3C 00000001     F   29896 30571
 SMFSTRT       2 00000004 FFFFFFE5     H    7608  7626   7626
 SMFWA         8 00000000 FFFFFFDD     J   29602 29625  29654U 29668U 29676M 29676  29887  29889  29890
 SMFWAUTH      1 00000020 FFFFFFE3 A   U    7705 12409  18430  19695  27555  28514  33678  43346
 SMFWAUTO      1 00000008 FFFFFFE3 A   U    7710 12409
 SMFWJOB       1 00000008 FFFFFFE3 A   U    7709 19695
 SMFWKEY       1 00000040 FFFFFFE3 A   U    7704 27555  28514
 SMFWMAST      1 00000080 FFFFFFE3 A   U    7703 32030  33678  42715  43346
 SMFWOUT       1 00000010 FFFFFFE3 A   U    7708 18430
 SMFWSEC       1 00000001 FFFFFFE3 A   U    7714 56383
 SMSG         43 00005E2A 00000001     X   30432 30328  30333
 SMSGGRP       2 00005E4F 00000001     C   30430 30315M
 SMSGON        3 00005E48 00000001     C   30429 30291M 30310M
 SMSGSTRT     30 00005E2A 00000001     C   30428 30432  30432
 SMSGUSER      3 00005E52 00000001     C   30431 30316M
 SPACEPRT      4 00003D54 00000001     F   22451 23455
 SPR          13 0000000D 00000001 A   #    1112  8050   8053   8055   8056M  8056   8383M  8387   8389   8437   8440
                                                  8442   8443M  8443   8600M  8604   8606   8636   8639   8641   8642M
                                                  8642   8798M  8802   8804   8832   8835   8836   8837M  8837   8911M
                                                  8915   8917   8938   8941   8943   8944M  8944   9165M  9169   9171
                                                  9295   9298   9299   9300M  9300   9900M  9904   9906   9921   9924
                                                  9925   9926M  9926   9967M  9971   9973   9988   9991   9992   9993M
                                                  9993  10034M 10038  10040  10055  10058  10059  10060M 10060  10102M
                                                 10106  10108  10123  10126  10127  10128M 10128  10278M 10282  10284
                                                 10359  10362  10363  10364M 10364  10708M 10712  10714  10778  10781
                                                 10783  10784M 10784  11731M 11735  11737  11786  11789  11790  11791M
                                                 11791  11846M 11850  11852  11880  11883  11884  11885M 11885  12027M
                                                 12031  12033  12057  12060  12061  12062M 12062  12118M 12122  12124
                                                 12229  12232  12234  12235M 12235  12448M 12452  12454  13045  13048
                                                 13049  13050M 13050  13095M 13099  13101  13116  13119  13120  13121M
                                                 13121  13167M 13171  13173  13188  13191  13192  13193M 13193  13510M
                                                 13514  13516  13531  13534  13535  13536M 13536  13581M 13585  13587
                                                 13602  13605  13606  13607M 13607  13653M 13657  13659  13674  13677
                                                 13678  13679M 13679  13724M 13728  13730  13745  13748  13749  13750M
                                                 13750  13796M 13800  13802  13817  13820  13821  13822M 13822  13882M
                                                 13886  13888  13903  13906  13907  13908M 13908  13968M 13972  13974
                                                 13989  13992  13993  13994M 13994  14050M 14054  14056  14071  14074
                                                 14075  14076M 14076  14133M 14137  14139  14155  14158  14159  14160M
                                                 14160  14205M 14209  14211  14226  14229  14230  14231M 14231  14277M
                                                 14281  14283  14299  14302  14303  14304M 14304  14349M 14353  14355
                                                 14370  14373  14374  14375M 14375  14421M 14425  14427  14457  14460
1ACMD     (ACMD4072) (12:39) (15MAR04) Ordinary Symbol and Literal Cross Reference                                          Page  207
                                                 14462  14463M 14463  14562M 14566  14568  14600  14603  14604  14605M
                                                 14605  15404M 15408  15410  15491  15494  15496  15497M 15497  15697M
                                                 15701  15703  15856  15859  15860  15861M 15861  15908M 15912  15914
                                                 15929  15932  15933  15934M 15934  15982M 15986  15988  16003  16006
                                                 16007  16008M 16008  16055M 16059  16061  16076  16079  16080  16081M
                                                 16081  16129M 16133  16135  16150  16153  16154  16155M 16155  16202M
                                                 16206  16208  16223  16226  16227  16228M 16228  16276M 16280  16282
                                                 16312  16315  16317  16318M 16318  17106M 17110  17112  17141  17144
                                                 17146  17147M 17147  17420M 17424  17426  17534  17537  17538  17539M
                                                 17539  17580M 17584  17586  17601  17604  17605  17606M 17606  17709M
                                                 17713  17715  17730  17733  17734  17735M 17735  17779M 17783  17785
                                                 17815  17818  17820  17821M 17821  18215M 18219  18221  18250  18253
                                                 18255  18256M 18256  18469M 18473  18475  18643  18646  18647  18648M
                                                 18648  18693M 18697  18699  18714  18717  18718  18719M 18719  18765M
                                                 18769  18771  18800  18803  18805  18806M 18806  18926M 18930  18932
                                                 18964  18967  18968  18969M 18969  19413M 19417  19419  19515  19518
                                                 19520  19521M 19521  19734M 19738  19740  19972  19975  19976  19977M
                                                 19977  20022M 20026  20028  20043  20046  20047  20048M 20048  20094M
                                                 20098  20100  20115  20118  20119  20120M 20120  20165M 20169  20171
                                                 20186  20189  20190  20191M 20191  20237M 20241  20243  20258  20261
                                                 20262  20263M 20263  20385M 20389  20391  20406  20409  20410  20411M
                                                 20411  20458M 20462  20464  20479  20482  20483  20484M 20484  20546M
                                                 20550  20552  20568  20571  20572  20573M 20573  20690M 20694  20696
                                                 20832  20835  20836  20837M 20837  20878M 20882  20884  20899  20902
                                                 20903  20904M 20904  20945M 20949  20951  20966  20969  20970  20971M
                                                 20971  21012M 21016  21018  21033  21036  21037  21038M 21038  21079M
                                                 21083  21085  21100  21103  21104  21105M 21105  21188M 21192  21194
                                                 21209  21212  21213  21214M 21214  21248M 21252  21254  21271  21274
                                                 21275  21276M 21276  21321M 21325  21327  21342  21345  21346  21347M
                                                 21347  21393M 21397  21399  21429  21432  21434  21435M 21435  21534M
                                                 21538  21540  21572  21575  21576  21577M 21577  22148M 22152  22154
                                                 22240  22243  22245  22246M 22246  22438M 22442  22444  22521  22524
                                                 22525  22526M 22526  22578M 22582  22584  22613  22616  22617  22618M
                                                 22618  22888M 22892  22894  22914  22917  22918  22919M 22919  23048M
                                                 23052  23054  23074  23077  23078  23079M 23079  23271M 23275  23277
                                                 23297  23300  23301  23302M 23302  23431M 23435  23437  23493  23496
                                                 23497  23498M 23498  23623M 23627  23629  23650  23653  23655  23656M
                                                 23656  25726M 25730  25732  25809  25812  25813  25814M 25814  25849M
                                                 25853  25855  25901  25904  25906  25907M 25907  26207M 26211  26213
                                                 26234  26237  26239  26240M 26240  26539M 26543  26545  26623  26626
                                                 26627  26628M 26628  26669M 26673  26675  26690  26693  26694  26695M
                                                 26695  26754M 26758  26760  26775  26778  26779  26780M 26780  26815M
                                                 26819  26821  26849  26852  26853  26854M 26854  26933M 26937  26939
                                                 27084  27087  27088  27089M 27089  27571M 27575  27577  27631  27634
                                                 27636  27637M 27637  28545M 28549  28551  28662  28665  28667  28668M
                                                 28668  28767M 28771  28773  28809  28812  28813  28814M 28814  29078M
                                                 29082  29084  29113  29116  29118  29119M 29119  29218M 29222  29224
                                                 29260  29263  29264  29265M 29265  29562M 29566  29568  29619  29622
                                                 29624  29625M 29625  29883M 29887  29889  30085  30088  30089  30090M
                                                 30090  30125M 30129  30131  30151  30154  30155  30156M 30156  30417M
                                                 30421  30423  30449  30452  30453  30454M 30454  30536M 30540  30542
                                                 30642  30645  30647  30648M 30648  31319M 31323  31325  31477  31480
                                                 31481  31482M 31482  31523M 31527  31529  31544  31547  31548  31549M
                                                 31549  31590M 31594  31596  31611  31614  31615  31616M 31616  31657M
                                                 31661  31663  31678  31681  31682  31683M 31683  31724M 31728  31730
                                                 31745  31748  31749  31750M 31750  31791M 31795  31797  31812  31815
                                                 31816  31817M 31817  31858M 31862  31864  31934  31937  31939  31940M
                                                 31940  33700M 33704  33706  35258  35261  35262  35263M 35263  35405M
                                                 35409  35411  35429  35432  35433  35434M 35434  35480M 35484  35486
1ACMD     (ACMD4072) (12:39) (15MAR04) Ordinary Symbol and Literal Cross Reference                                          Page  208
                                                 35501  35504  35505  35506M 35506  35551M 35555  35557  35572  35575
                                                 35576  35577M 35577  35623M 35627  35629  35644  35647  35648  35649M
                                                 35649  35694M 35698  35700  35715  35718  35719  35720M 35720  35763M
                                                 35767  35769  35784  35787  35788  35789M 35789  35832M 35836  35838
                                                 35853  35856  35857  35858M 35858  35901M 35905  35907  35922  35925
                                                 35926  35927M 35927  35970M 35974  35976  35991  35994  35995  35996M
                                                 35996  36039M 36043  36045  36060  36063  36064  36065M 36065  36108M
                                                 36112  36114  36129  36132  36133  36134M 36134  36194M 36198  36200
                                                 36215  36218  36219  36220M 36220  36350M 36354  36356  36371  36374
                                                 36375  36376M 36376  36422M 36426  36428  36443  36446  36447  36448M
                                                 36448  36493M 36497  36499  36514  36517  36518  36519M 36519  36583M
                                                 36587  36589  36604  36607  36608  36609M 36609  36655M 36659  36661
                                                 36676  36679  36680  36681M 36681  36726M 36730  36732  36747  36750
                                                 36751  36752M 36752  36798M 36802  36804  36819  36822  36823  36824M
                                                 36824  36869M 36873  36875  36890  36893  36894  36895M 36895  36941M
                                                 36945  36947  36962  36965  36966  36967M 36967  37012M 37016  37018
                                                 37033  37036  37037  37038M 37038  37084M 37088  37090  37105  37108
                                                 37109  37110M 37110  37161M 37165  37167  37182  37185  37186  37187M
                                                 37187  37238M 37242  37244  37259  37262  37263  37264M 37264  37313M
                                                 37317  37319  37334  37337  37338  37339M 37339  37388M 37392  37394
                                                 37409  37412  37413  37414M 37414  37459M 37463  37465  37480  37483
                                                 37484  37485M 37485  37531M 37535  37537  37552  37555  37556  37557M
                                                 37557  37625M 37629  37631  37646  37649  37650  37651M 37651  37696M
                                                 37700  37702  37717  37720  37721  37722M 37722  37768M 37772  37774
                                                 37790  37793  37794  37795M 37795  38064M 38068  38070  38086  38089
                                                 38090  38091M 38091  38206M 38210  38212  38252  38255  38256  38257M
                                                 38257  38339M 38343  38345  38360  38363  38364  38365M 38365  38447M
                                                 38451  38453  38468  38471  38472  38473M 38473  38555M 38559  38561
                                                 38576  38579  38580  38581M 38581  38663M 38667  38669  38684  38687
                                                 38688  38689M 38689  38737M 38741  38743  38759  38762  38763  38764M
                                                 38764  38805M 38809  38811  38826  38829  38830  38831M 38831  38912M
                                                 38916  38918  38933  38936  38937  38938M 38938  38996M 39000  39002
                                                 39018  39021  39022  39023M 39023  39064M 39068  39070  39085  39088
                                                 39089  39090M 39090  39182M 39186  39188  39203  39206  39207  39208M
                                                 39208  39249M 39253  39255  39270  39273  39274  39275M 39275  39393M
                                                 39397  39399  39414  39417  39418  39419M 39419  39460M 39464  39466
                                                 39481  39484  39485  39486M 39486  39606M 39610  39612  39627  39630
                                                 39631  39632M 39632  39677M 39681  39683  39698  39701  39702  39703M
                                                 39703  39749M 39753  39755  39770  39773  39774  39775M 39775  39820M
                                                 39824  39826  39841  39844  39845  39846M 39846  39892M 39896  39898
                                                 39913  39916  39917  39918M 39918  39964M 39968  39970  39985  39988
                                                 39989  39990M 39990  40035M 40039  40041  40056  40059  40060  40061M
                                                 40061  40202M 40206  40208  40223  40226  40227  40228M 40228  40273M
                                                 40277  40279  40294  40297  40298  40299M 40299  40345M 40349  40351
                                                 40366  40369  40370  40371M 40371  40416M 40420  40422  40437  40440
                                                 40441  40442M 40442  40488M 40492  40494  40509  40512  40513  40514M
                                                 40514  40560M 40564  40566  40581  40584  40585  40586M 40586  40631M
                                                 40635  40637  40652  40655  40656  40657M 40657  40702M 40706  40708
                                                 40723  40726  40727  40728M 40728  40774M 40778  40780  40795  40798
                                                 40799  40800M 40800  40848M 40852  40854  40869  40872  40873  40874M
                                                 40874  40919M 40923  40925  40940  40943  40944  40945M 40945  40993M
                                                 40997  40999  41014  41017  41018  41019M 41019  41064M 41068  41070
                                                 41085  41088  41089  41090M 41090  41131M 41135  41137  41152  41155
                                                 41156  41157M 41157  41268M 41272  41274  41289  41292  41293  41294M
                                                 41294  41386M 41390  41392  41407  41410  41411  41412M 41412  41636M
                                                 41640  41642  41657  41660  41661  41662M 41662  41737M 41741  41743
                                                 41758  41761  41762  41763M 41763  41810M 41814  41816  41831  41834
                                                 41835  41836M 41836  41950M 41954  41956  41971  41974  41975  41976M
                                                 41976  42023M 42027  42029  42044  42047  42048  42049M 42049  42140M
1ACMD     (ACMD4072) (12:39) (15MAR04) Ordinary Symbol and Literal Cross Reference                                          Page  209
                                                 42144  42146  42161  42164  42165  42166M 42166  42213M 42217  42219
                                                 42234  42237  42238  42239M 42239  42283M 42287  42289  42304  42307
                                                 42308  42309M 42309  42349M 42353  42355  42625  42628  42630  42631M
                                                 42631  43376M 43380  43382  43445  43448  43449  43450M 43450  43490M
                                                 43494  43496  43563  43566  43567  43568M 43568  48885M 48889  48891
                                                 49052  49055  49056  49057M 49057  49291M 49295  49297  49359  49362
                                                 49363  49364M 49364  49399M 49403  49405  49420  49423  49424  49425M
                                                 49425  49460M 49464  49466  49485  49488  49489  49490M 49490  49628M
                                                 49632  49634  49654  49657  49658  49659M 49659  49824M 49828  49830
                                                 49848  49851  49852  49853M 49853  49987M 49991  49993  50010  50013
                                                 50014  50015M 50015  50148M 50152  50154  50172  50175  50176  50177M
                                                 50177  50368M 50372  50374  50389  50392  50393  50394M 50394  50585M
                                                 50589  50591  50606  50609  50610  50611M 50611  50701M 50705  50707
                                                 50722  50725  50726  50727M 50727  50862M 50866  50868  50883  50886
                                                 50887  50888M 50888  50977M 50981  50983  50998  51001  51002  51003M
                                                 51003  51050M 51054  51056  51071  51074  51075  51076M 51076  51165M
                                                 51169  51171  51186  51189  51190  51191M 51191  51309M 51313  51315
                                                 51330  51333  51334  51335M 51335  51382M 51386  51388  51403  51406
                                                 51407  51408M 51408  51497M 51501  51503  51518  51521  51522  51523M
                                                 51523  51630M 51634  51636  51651  51654  51655  51656M 51656  51703M
                                                 51707  51709  51724  51727  51728  51729M 51729  51782M 51786  51788
                                                 51803  51806  51807  51808M 51808  51856M 51860  51862  51877  51880
                                                 51881  51882M 51882  51931M 51935  51937  51972  51975  51976  51977M
                                                 51977  52342M 52346  52348  52430  52433  52434  52435M 52435  52508M
                                                 52512  52514  52532  52535  52536  52537M 52537  52610M 52614  52616
                                                 52785  52788  52789  52790M 52790  52831M 52835  52837  52852  52855
                                                 52856  52857M 52857  52895M 52899  52901  52916  52919  52920  52921M
                                                 52921  52959M 52963  52965  52980  52983  52984  52985M 52985  53023M
                                                 53027  53029  53077  53080  53082  53083M 53083  53252M 53256  53258
                                                 53307  53310  53311  53312M 53312  53961M 53965  53967  54026  54029
                                                 54031  54032M 54032  54286M 54290  54292  54361  54364  54365  54366M
                                                 54366  54586M 54590  54592  54650  54653  54654  54655M 54655  55143M
                                                 55147  55149  55272  55275  55276  55277M 55277  55312M 55316  55318
                                                 55333  55336  55337  55338M 55338  55373M 55377  55379  55394  55397
                                                 55398  55399M 55399  55517M 55521  55523  55540  55543  55544  55545M
                                                 55545  55759M 55763  55765  55799  55802  55803  55804M 55804  56260M
                                                 56264  56266  56298  56301  56302  56303M 56303  56553M 56557  56559
                                                 56581  56584  56585  56586M 56586  56717M 56721  56723  56745  56748
                                                 56749  56750M 56750  56888M 56892  56894
 STAMX         2 00006858 00000001     H   32901 32747B 32761B
 SWPASS        2 00000D04 00000001     H   11780 11759
 TCNTL         1 00000000 0000003A     T   31903 31903
 TRC           1 00000000 00000000 A   T    2123  2123
 TREAD         1 00000000 0000004A     T   56912 56912
 TTYFLAG       1 00000004 FFFFFFEA     R    6211  6215
 TTYMAX#       1 00000006 FFFFFFEA A   U    6267  6268
 TTYTFLAG      1 00000005 FFFFFFEA     R    6221  6225   6230   6235   6240   6245   6250   6255
 UCECOMP      16 0000000C FFFFFFE6     C    7566  7569   7569
 UCEFLAG       1 00000008 FFFFFFE6     R    7556  7560
 UDEFQ         2 0000228C 00000001     H   16144 15784
 UKEPT         2 0000222C 00000001     H   15997 15754
 UMAIL         2 000021CC 00000001     H   15850 15724
 UNODEFQ       2 000022BC 00000001     H   16217 15799
 UNOKEPT       2 0000225C 00000001     H   16070 15769
 UNOMAIL       2 000021FC 00000001     H   15923 15739
 UPDCPSIB      1 00000000 00000008     T   10312 10312  19456  23460
 UPPTBL        1 00000000 00000000 A   T    2186  2186
 VERPSH        1 00000000 0000003E     T   35174 35174
 WA          688 00000000 FFFFFFE1     J    8030  8056   8085U  8096M  8096   8097M  8097   8098M  8098   8099   8107U
1ACMD     (ACMD4072) (12:39) (15MAR04) Ordinary Symbol and Literal Cross Reference                                          Page  210
                                                  8387   8389   8390   8443   8472U  8483M  8483   8484M  8484   8485M
                                                  8485   8486   8494U  8604   8606   8607   8642   8671U  8709M  8709
                                                  8710M  8710   8711M  8711   8712   8720U  8802   8804   8805   8944
                                                  8973U  8984M  8984   8985M  8985   8986M  8986   8987   8995U  9169
                                                  9171   9172  12235  12264U 12275M 12275  12276M 12276  12277M 12277
                                                 12278  12286U 12452  12454  12455  14463  14492U 14503M 14503  14504M
                                                 14504  14505M 14505  14506  14514U 14566  14568  14569  15497  15526U
                                                 15537M 15537  15538M 15538  15539M 15539  15540  15548U 15701  15703
                                                 15704  16318  16347U 16358M 16358  16359M 16359  16360M 16360  16361
                                                 16369U 17110  17112  17113  17147  17176U 17187M 17187  17188M 17188
                                                 17189M 17189  17190  17198U 17424  17426  17427  17821  17850U 17861M
                                                 17861  17862M 17862  17863M 17863  17864  17872U 18219  18221  18222
                                                 18256  18285U 18296M 18296  18297M 18297  18298M 18298  18299  18307U
                                                 18473  18475  18476  18806  18835U 18846M 18846  18847M 18847  18848M
                                                 18848  18849  18857U 18930  18932  18933  19521  19550U 19561M 19561
                                                 19562M 19562  19563M 19563  19564  19572U 19738  19740  19741  21435
                                                 21464U 21475M 21475  21476M 21476  21477M 21477  21478  21486U 21538
                                                 21540  21541  22246  22275U 22286M 22286  22287M 22287  22288M 22288
                                                 22289  22297U 22442  22444  22445  23656  23685U 23696M 23696  23697M
                                                 23697  23698M 23698  23699  23707U 25730  25732  25733  27608  27688U
                                                 28668  28697U 28708M 28708  28709M 28709  28710M 28710  28711  28719U
                                                 28771  28773  28774  29119  29148U 29159M 29159  29160M 29160  29161M
                                                 29161  29162  29170U 29222  29224  29225  31940  31969U 31980M 31980
                                                 31981M 31981  31982M 31982  31983  31991U 33704  33706  33707  42631
                                                 42660U 42671M 42671  42672M 42672  42673M 42673  42674  42682U 43380
                                                 43382  43383  49088U 49097M 49097  49098M 49098  49099M 49099
 WAFCRE       16 000001F9 FFFFFFE1         8013 33044  33044  33168  33206  42272M
 WAFDEL       32 000001F9 FFFFFFE1         8008 33044  33044  33045  33071  33400  33569  42338M
 WAFDHEX     128 000001F9 FFFFFFE1         7998 43090  43479M
 WAFLAG        1 000001F8 FFFFFFE1     R    7969  7973   7978   7983   7988
 WAFLAG2       1 000001F9 FFFFFFE1     R    7994  7998   8003   8008   8013   8018
 WAFMAST      64 000001F8 FFFFFFE1         7978 20524  32363M
 WAFNEW       64 000001F9 FFFFFFE1         8003 32414M 33118  33156  33194  33376  33479
 WAFOP       128 000001F8 FFFFFFE1         7973  8230  12367  13079M 13150M 13222M 13565M 13636M 13708M 13779M 13851M
                                                 13937M 14023M 14105M 14189M 14260M 14333M 14404M 15629  15890M 15963M
                                                 16037M 16110M 16184M 16257M 17568M 17635M 17764M 18388  18677M 18748M
                                                 19653  20006M 20077M 20149M 20220M 20292M 20440M 20513M 20608M 21305M
                                                 21376M 33086  33108M 33324  35463M 35535M 35606M 35678M 36249M 36405M
                                                 36477M 36548M 36638M 36710M 36781M 36853M 36924M 36996M 37067M 37139M
                                                 37216M 37293M 37368M 37443M 37514M 37586M 37680M 37751M 37824M 38120M
                                                 38286M 38394M 38502M 38610M 38718M 38793M 38860M 38967M 39052M 39119M
                                                 39237M 39304M 39448M 39515M 39661M 39732M 39804M 39875M 39947M 40019M
                                                 40090M 40257M 40328M 40400M 40471M 40543M 40615M 40686M 40757M 40829M
                                                 40903M 40974M 41048M 41119M 41186M 41323M 41471M 41717M 41792M 41891M
                                                 42005M 42104M 42195M 42268M 50206M 50423M 50680M 50796M 50957M 51032M
                                                 51145M 51260M 51364M 51477M 51556M 51685M 51758M 51837M 51911M
 WAFTEMP      16 000001F8 FFFFFFE1         7988 17279  17768M
 WAFUPDPW      8 000001F9 FFFFFFE1         8018 33659  41621M
 WAFXSYS      32 000001F8 FFFFFFE1         7983 36259  36270M
 WAITER        1 00000000 00000032     T   28610 28610  56919
 WAR           8 00000008 00000001 A   #    1035  8055M  8383   8442M  8600   8641M  8798   8836M  8911   8943M  9165
                                                  9299M  9900   9925M  9967   9992M 10034  10059M 10102  10127M 10278
                                                 10363M 10708  10783M 11731  11790M 11846  11884M 12027  12061M 12118
                                                 12234M 12448  13049M 13095  13120M 13167  13192M 13510  13535M 13581
                                                 13606M 13653  13678M 13724  13749M 13796  13821M 13882  13907M 13968
                                                 13993M 14050  14075M 14133  14159M 14205  14230M 14277  14303M 14349
                                                 14374M 14421  14462M 14562  14604M 15404  15496M 15697  15860M 15908
                                                 15933M 15982  16007M 16055  16080M 16129  16154M 16202  16227M 16276
                                                 16317M 17106  17146M 17420  17538M 17580  17605M 17709  17734M 17779
1ACMD     (ACMD4072) (12:39) (15MAR04) Ordinary Symbol and Literal Cross Reference                                          Page  211
                                                 17820M 18215  18255M 18469  18647M 18693  18718M 18765  18805M 18926
                                                 18968M 19413  19520M 19734  19976M 20022  20047M 20094  20119M 20165
                                                 20190M 20237  20262M 20385  20410M 20458  20483M 20546  20572M 20690
                                                 20836M 20878  20903M 20945  20970M 21012  21037M 21079  21104M 21188
                                                 21213M 21248  21275M 21321  21346M 21393  21434M 21534  21576M 22148
                                                 22245M 22438  22525M 22578  22617M 22888  22918M 23048  23078M 23271
                                                 23301M 23431  23497M 23623  23655M 25726  25813M 25849  25906M 26207
                                                 26239M 26539  26627M 26669  26694M 26754  26779M 26815  26853M 26933
                                                 27088M 27571  27636M 28545  28667M 28767  28813M 29078  29118M 29218
                                                 29264M 29562  29624M 29668U 29883  30089M 30125  30155M 30417  30453M
                                                 30536  30647M 31319  31481M 31523  31548M 31590  31615M 31657  31682M
                                                 31724  31749M 31791  31816M 31858  31939M 33700  35262M 35405  35433M
                                                 35480  35505M 35551  35576M 35623  35648M 35694  35719M 35763  35788M
                                                 35832  35857M 35901  35926M 35970  35995M 36039  36064M 36108  36133M
                                                 36194  36219M 36350  36375M 36422  36447M 36493  36518M 36583  36608M
                                                 36655  36680M 36726  36751M 36798  36823M 36869  36894M 36941  36966M
                                                 37012  37037M 37084  37109M 37161  37186M 37238  37263M 37313  37338M
                                                 37388  37413M 37459  37484M 37531  37556M 37625  37650M 37696  37721M
                                                 37768  37794M 38064  38090M 38206  38256M 38339  38364M 38447  38472M
                                                 38555  38580M 38663  38688M 38737  38763M 38805  38830M 38912  38937M
                                                 38996  39022M 39064  39089M 39182  39207M 39249  39274M 39393  39418M
                                                 39460  39485M 39606  39631M 39677  39702M 39749  39774M 39820  39845M
                                                 39892  39917M 39964  39989M 40035  40060M 40202  40227M 40273  40298M
                                                 40345  40370M 40416  40441M 40488  40513M 40560  40585M 40631  40656M
                                                 40702  40727M 40774  40799M 40848  40873M 40919  40944M 40993  41018M
                                                 41064  41089M 41131  41156M 41268  41293M 41386  41411M 41636  41661M
                                                 41737  41762M 41810  41835M 41950  41975M 42023  42048M 42140  42165M
                                                 42213  42238M 42283  42308M 42349  42630M 43376  43449M 43490  43567M
                                                 48885  49056M 49291  49363M 49399  49424M 49460  49489M 49628  49658M
                                                 49824  49852M 49987  50014M 50148  50176M 50368  50393M 50585  50610M
                                                 50701  50726M 50862  50887M 50977  51002M 51050  51075M 51165  51190M
                                                 51309  51334M 51382  51407M 51497  51522M 51630  51655M 51703  51728M
                                                 51782  51807M 51856  51881M 51931  51976M 52342  52434M 52508  52536M
                                                 52610  52789M 52831  52856M 52883  52895  52920M 52947  52959  52984M
                                                 53011  53023  53082M 53252  53311M 53961  54031M 54286  54365M 54586
                                                 54654M 55143  55276M 55312  55337M 55373  55398M 55517  55544M 55759
                                                 55803M 56243  56260  56302M 56553  56585M 56717  56749M 56888
 WASCSAVE    176 00000200 FFFFFFE1     X    8023  8163M  8179   9009M  9025  12300M 12316  15562M 15578  17212M 17228
                                                 18321M 18337  19586M 19602  22307M 22353  22554  33023M 33453
 WATCHKW       2 0000C0DE 00000001     H   56292 28611  56288  56920
 WATCHLC       1 00000028 00000001 A   U   56285 56930
 WATCHTMO      1 0000012C 00000001 A   U   56283 56927
 WATCHWC       1 00000014 00000001 A   U   56284 56928
 WCCOST        4 00000018 FFFFFFDF     F   25873 26045M 26045  26069  26804M
 WCDATA       12 00000010 FFFFFFDF     X   25874 25975  25980  26418  26423  26488  26493
 WCKEY        16 00000000 FFFFFFDF     C   25870 25966  25998  26003  26389  26394  26409  26479
 WCPASS        8 00000010 FFFFFFDF     C   25872 25874  25874  26131M 26131  26658M 26658  26730  26735
 WCWA         28 00000000 FFFFFFDF     J   25881 25907  25936U 25946M 25946  26211  26213  26214  26240  26269U 26279M
                                                 26279  26280  26288U 26543  26545  26546
 WEVENT        2 00000DB4 00000001     H   12051 12047
 WTOSG         1 00000000 00000000 A   T    2083  2083
 WYLACMD       1 00000000 00000001     J     990   992   1017   1030   1043   1055   1068   1081   1094   1107   1120
                                                  1133   2367   2451   6191   6303   7002   7199   7534   7590   7634
                                                  7681   7725   7757   7762   8031   9875  10228
 XGET          1 00000000 0000002E     T   27024 27024
 XGETNEXT      1 00000000 0000002D     T   27020 27020
 XPUT          1 00000000 0000002F     T   27026 27026
 XSETSET       1 00000000 0000002C     T   27019 27019
 XWCCOS        2 00004C12 00000001     H   26769 26596
1ACMD     (ACMD4072) (12:39) (15MAR04) Ordinary Symbol and Literal Cross Reference                                          Page  212
 XWCNOPAS      2 00004BA8 00000001     H   26617 26581
 XWCPAS        2 00004BD6 00000001     H   26684 26566
 YESREQ        1 00000000 00000038     T   30580 30580  31898  33735  56921
 =(L'KWRPASS)X'FF'
               1 000094B0 00000001     X   43517 43096
 =A(-1)        4 00002EE0 00000001     A   19458 17991
 =A(-1)        4 00008F64 00000001     A   42386 40107  40164
 =A(-2)        4 0000B960 00000001     A   54316 53610  53927
 =A(AUTODISP)
               4 00001EB4 00000001     A   15441 12421  14535
 =A(AUTOPRT)
               4 00001E9C 00000001     A   15435 12338
 =A(BADACCT)
               4 00006AFC 00000001     A   33726 32566  33127  33177
 =A(BADAGRP)
               4 00006AF4 00000001     A   33724 32087  32219  32307  32347
 =A(BADAGRP)
               4 000094C4 00000001     A   43521 42772  42904  42992  43032
 =A(CHARPRT)
               4 00004D5C 00000001     A   27003 23900
 =A(CHKKW)
               4 0000B964 00000001     A   54317 53943
 =A(CHKKWPRN)
               4 0000C2B0 00000001     A   56916 55019
 =A(CHKKWPRT)
               4 0000C2A4 00000001     A   56913 54965
 =A(CHKNOREC)
               4 0000C294 00000001     A   56909 54740
 =A(COSTPRT)
               4 00004DC4 00000001     A   27027 26895
 =A(DEFKWR)
               4 00006B00 00000001     A   33727 32572
 =A(GETAENT)
               4 000007D8 00000001     A   10307  8114   8501   8727   9002
 =A(GETAENT)
               4 00001E98 00000001     A   15434 12293  14521
 =A(GETAENT)
               4 00002E90 00000001     A   19444 15555  16376  17205  17879  18314  18885
 =A(GETAENT)
               4 00003B18 00000001     A   22178 19579  21493
 =A(GETAENT)
               4 000040F4 00000001     A   23454 22363
 =A(GETAENT)
               4 00004D58 00000001     A   27002 23880
 =A(GETAENT)
               4 000054C8 00000001     A   28603 27701
 =A(GETAENT)
               4 00005EE8 00000001     A   30557 28726  29177
 =A(GETAENT)
               4 00006AE8 00000001     A   33721 32003
 =A(GETAENT)
               4 000094B8 00000001     A   43518 42688
 =A(GETAPRT)
               4 0000B020 00000001     A   52363 49119
 =A(GETCNUM)
               4 00008F60 00000001     A   42385 40095  40152
 =A(GETKWR)
               4 00006AF8 00000001     A   33725 32420
 =A(GETKWR)
1ACMD     (ACMD4072) (12:39) (15MAR04) Ordinary Symbol and Literal Cross Reference                                          Page  213
               4 0000B030 00000001     A   52367 49279
 =A(GETLNO)
               4 00008F48 00000001     A   42379 38298  38406  38514  38622
 =A(GETNUM)
               4 00008F54 00000001     A   42382 38721  38871  38978  39123  39328  39539  41209  41327
 =A(JOBDISP)
               4 00003B34 00000001     A   22185 19707  21507
 =A(JOBPRT)
               4 00003B1C 00000001     A   22179 19624
 =A(KAUTHPRT)
               4 00003B48 00000001     A   22190 20654
 =A(KEYPRT)
               4 000054CC 00000001     A   28604 27721
 =A(KTIMDISP)
               4 00005F18 00000001     A   30565 29191
 =A(KXSYS)
               4 00008370 00000001     A   38228 35747  35816  35885  35954  36023  36092  36178
 =A(L'CPDOUB)
               4 0000C2D8 00000001     A   56926 56203  56215
 =A(L'CPSPROJ)
               4 00004104 00000001     A   23458 22696
 =A(L'CPWPROJ)
               4 00004138 00000001     A   23465 23212
 =A(L'KLGCMPBF)
               4 0000B968 00000001     A   54318 54069  54081  54154  54206
 =A(L'KRBREC+KRBMXDL#)
               4 0000BAB8 00000001     A   54607 54472
 =A(L'KRBREC)
               4 0000BABC 00000001     A   54608 54500
 =A(L'KWRCMD)
               4 0000B058 00000001     A   52377 51561  51573
 =A(L'KWRCOMM)
               4 0000B04C 00000001     A   52374 50512  50524
 =A(L'KWRJPFX)
               4 00003B38 00000001     A   22186 20310
 =A(L'KWRMFOR)
               4 00000844 00000001     A   10324  9826   9838
 =A(L'KWRMTXT)
               4 00000850 00000001     A   10327 10179  10191
 =A(L'KWRNAME)
               4 0000B048 00000001     A   52373 50295  50307
 =A(L'KWRNETH)
               4 00008F88 00000001     A   42395 42084
 =A(L'KWRNETU)
               4 00008F80 00000001     A   42393 41871
 =A(L'KWRPASS)
               4 000054EC 00000001     A   28612 28092
 =A(L'KWRPASS)
               4 00008F70 00000001     A   42389 41451
 =A(LTIMDISP)
               4 00005EF4 00000001     A   30560 28740
 =A(MAILPRT)
               4 00000830 00000001     A   10319  9084
 =A(MASTDISP+4000)
               4 0000A2B0 00000001     A   48921 43595
 =A(MASTDISP)
               4 00006B1C 00000001     A   33734 33346
 =A(MASTDISP)
               4 000094E8 00000001     A   43530 43343
1ACMD     (ACMD4072) (12:39) (15MAR04) Ordinary Symbol and Literal Cross Reference                                          Page  214
 =A(MASTPRT)
               4 00008360 00000001     A   38224 35319
 =A(MASTPRTA)
               4 0000836C 00000001     A   38227 35371
 =A(MASTSCAN)
               4 00006B14 00000001     A   33732 33030  33460
 =A(MBOXDISP)
               4 00000834 00000001     A   10320  9138
 =A(MSTATPRT)
               4 00002E94 00000001     A   19445 15600
 =A(NAMEPRT)
               4 000007DC 00000001     A   10308  8201
 =A(NOTMPRT)
               4 00002ED4 00000001     A   19455 17250
 =A(ONVOLPRT)
               4 000040E8 00000001     A   23451 22329
 =A(OUTDISP)
               4 00002EF0 00000001     A   19462 18442  18899
 =A(OUTPRT)
               4 00002EE8 00000001     A   19460 18359
 =A(PRIVPRT)
               4 00006578 00000001     A   31900 31053
 =A(PUTKWR)
               4 000007E8 00000001     A   10311  8250   9106
 =A(PUTKWR)
               4 00001EA8 00000001     A   15438 12387
 =A(PUTKWR)
               4 00002EBC 00000001     A   19449 15649  17290  18408
 =A(PUTKWR)
               4 00003B28 00000001     A   22182 19673
 =A(PUTKWR)
               4 000054BC 00000001     A   28600 27533  28481
 =A(PUTKWR)
               4 00006B24 00000001     A   33736 33439
 =A(READPW)
               4 000054B4 00000001     A   28598 27247  27403  27897  28076  28417
 =A(RELLPRT)
               4 0000B5C4 00000001     A   53274 52579
 =A(RELPRT)
               4 0000B5B8 00000001     A   53271 52477
 =A(SEGACCT)
               4 000007F4 00000001     A   10314  8510   9133
 =A(SEGACCT)
               4 00001EB0 00000001     A   15440 12416  14530
 =A(SEGACCT)
               4 00002EDC 00000001     A   19457 17888  18437  18894
 =A(SEGACCT)
               4 00003B30 00000001     A   22184 19702  21502
 =A(SEGACCT)
               4 000054D8 00000001     A   28607 27743
 =A(SEGACCT)
               4 00005EF0 00000001     A   30559 28735  29186
 =A(SEGMACH)
               4 0000A2D0 00000001     A   48927 44489  44512
 =A(SEGXDOL)
               4 00004D70 00000001     A   27008 24250  24302  24332  24451
 =A(SEGXDOL)
               4 0000A310 00000001     A   48931 45533  45601  45631
 =A(SETWCPRT)
1ACMD     (ACMD4072) (12:39) (15MAR04) Ordinary Symbol and Literal Cross Reference                                          Page  215
               4 00004DBC 00000001     A   27025 26449
 =A(SETWPRT)
               4 00000F8C 00000001     A   12170 11365
 =A(SMASTPRT)
               4 000094C8 00000001     A   43522 43060
 =A(SMFPRT)
               4 00005F30 00000001     A   30571 29694
 =A(SPACEPRT)
               4 000040F8 00000001     A   23455 22383
 =A(WATCHKW)
               4 000054E8 00000001     A   28611 27964
 =A(WATCHKW)
               4 0000C2C0 00000001     A   56920 55493
 =A(WATCHLC)
               4 0000C2E8 00000001     A   56930 56403
 =A(WATCHTMO)
               4 0000C2DC 00000001     A   56927 56341
 =A(WATCHWC)
               4 0000C2E0 00000001     A   56928 56377
 =A(X'FF000000')
               4 00004D7C 00000001     A   27011 24412  24443  25274  25371  25448  25525  25556
 =A(X'FF000000')
               4 0000C320 00000001     A   56936 56792
 =A(X'800000')
               4 00004D78 00000001     A   27010 24405  24436  25267  25364  25441  25518  25549
 =A(X'800000')
               4 0000C31C 00000001     A   56935 56786
 =A(0)         4 00008F4C 00000001     A   42380 38302  38314  38410  38422  38518  38530  38626  38638  39127  39139
                                                 39308  39320  39332  39344  39519  39531  39543  39555  41190  41202
                                                 41213  41225  41331  41343
 =A(1)         4 00008380 00000001     A   38232 38136
 =A(1)         4 0000C2D4 00000001     A   56925 56155  56635
 =A(1000)      4 00008F5C 00000001     A   42384 39590
 =A(1000000/64*60*60*24)
               4 00005F28 00000001     A   30569 29422  29426
 =A(2)         4 00008378 00000001     A   38230 37840  37953
 =A(2)         4 0000B958 00000001     A   54314 53433
 =A(3)         4 0000083C 00000001     A   10322  9400
 =A(32)        4 000094E0 00000001     A   43528 43291  43303
 =A(32767)
               4 00008F68 00000001     A   42387 41241  41359
 =A(4)         4 00006588 00000001     A   31904 31281
 =A(4)         4 0000C2B4 00000001     A   56917 55074
 =A(5)         4 000054B8 00000001     A   28599 27348  28133
 =A(5)         4 00008F74 00000001     A   42390 41486
 =A(5)         4 0000C314 00000001     A   56933 56626
 =A(6)         4 00000840 00000001     A   10323  9485   9601   9717
 =A(6)         4 00008F7C 00000001     A   42392 41697
 =A(8)         4 00001EC0 00000001     A   15444 13293
 =A(8)         4 000054F4 00000001     A   28614 28193
 =A(8)         4 0000B02C 00000001     A   52366 49150
 =A(8)         4 0000C2B8 00000001     A   56918 55094
 =AL2(-1)      2 00004DDC 00000001     R   27035 24789
 =AL3(0)       3 00008F96 00000001     R   42401 38794
 =C'  ('       3 00004E3B 00000001     C   27043 24372
 =C'  '        2 00004DEC 00000001     C   27037 26020
 =C'  '        2 0000A36A 00000001     C   48945 45166
 =C'  Account can receive new mail.'
              31 00002F78 00000001     C   19478 16707
1ACMD     (ACMD4072) (12:39) (15MAR04) Ordinary Symbol and Literal Cross Reference                                          Page  216
 =C'  Account can NOT receive new mail.'
              35 00002F55 00000001     C   19477 16687
 =C'  BATCH limits:'
              15 0000A58A 00000001     C   49005 47111
 =C'  Creation date: '
              17 0000A665 00000001     C   49018 48708
 =C'  Funds='
               8 0000A288 00000001     C   48918 44588
 =C'  Mail message: '
              16 00002E10 00000001     C   19439 16603
 =C'  New mail is being forwarded to '
              33 00002F97 00000001     C   19479 16729
 =C'  No mail message is set.'
              25 00002F3C 00000001     C   19476 16581
 =C'  Status flags: '
              16 00002E20 00000001     C   19440 16895
 =C'  SHOW MAIL options: '
              21 00002FB8 00000001     C   19480 16794
 =C' ('        2 0000A388 00000001     C   48950 45577  45788
 =C' (max='
               6 00002F1A 00000001     C   19470 18114
 =C' (Accts Receivable)'
              19 0000A451 00000001     C   48976 44797
 =C' (Closed)'
               9 0000A4FA 00000001     C   48987 45313
 =C' (Core)'
               7 0000A4DF 00000001     C   48984 45057
 =C' (Core/Class)'
              13 0000A4E6 00000001     C   48985 45083
 =C' (Data Center staff)'
              20 0000A2F0 00000001     C   48929 45031
 =C' (Departmental)'
              15 0000A475 00000001     C   48978 44849
 =C' (Expired)'
              10 0000A36E 00000001     C   48947 45287
 =C' (Govt Sponsored)'
              17 0000A464 00000001     C   48977 44823
 =C' (Instructional)'
              16 0000A290 00000001     C   48919 44901
 =C' (Internal Systems)'
              19 0000A4CC 00000001     C   48983 45005
 =C' (Library)'
              10 0000A35E 00000001     C   48943 44771
 =C' (Med Ctr/Hosp/FPP)'
              19 0000A49B 00000001     C   48980 44927
 =C' (Over budget)'
              14 0000A378 00000001     C   48948 45339
 =C' (Overhead)'
              11 0000A4AE 00000001     C   48981 44953
 =C' (University Admin)'
              19 0000A4B9 00000001     C   48982 44979
 =C' (Unsponsored Research)'
              23 0000A484 00000001     C   48979 44875
 =C' (User hold)'
              12 0000A304 00000001     C   48930 45365
 =C' ** Suspended ** '
              17 0000A426 00000001     C   48973 44286
 =C' - '       3 00004E2F 00000001     C   27041 24188
 =C' '         1 00004E93 00000001     C   27055 26102
1ACMD     (ACMD4072) (12:39) (15MAR04) Ordinary Symbol and Literal Cross Reference                                          Page  217
 =C' accounted'
              10 0000A3C2 00000001     C   48957 47002
 =C' allowed ('
              10 0000A3B8 00000001     C   48956 46773
 =C' already exists.'
              16 00006AD8 00000001     C   33720 33308
 =C' and national (#,$,@) characters.'
              33 00005746 00000001     C   28637 28298
 =C' budget'
               7 0000A503 00000001     C   48988 45543
 =C' characters in it.'
              18 00005584 00000001     C   28624 28262
 =C' charged on '
              12 00004D80 00000001     C   27012 24457
 =C' current password.'
              18 00005562 00000001     C   28621 27881
 =C' free'
               5 0000A584 00000001     C   49003 46912
 =C' from port '
              11 00005F62 00000001     C   30586 28992
 =C' hours allowed'
              14 00004DDE 00000001     C   27036 24847
 =C' hours used'
              11 00004E7B 00000001     C   27049 24763
 =C' is your current project id.'
              28 00004118 00000001     C   23463 23030
 =C' is your WPROJECT.'
              18 0000414C 00000001     C   23468 23413
 =C' minutes before being logged off'
              32 00002E60 00000001     C   19442 18075
 =C' new password.'
              14 00005576 00000001     C   28623 28060
 =C' tracks accounted)'
              18 0000A39E 00000001     C   48953 45828
 =C' tracks'
               7 0000A514 00000001     C   48991 45738
 =C' used'
               5 0000A57F 00000001     C   49002 46826
 =C' Bin='
               5 0000A523 00000001     C   48994 46158
 =C' Dest='
               6 0000A3B0 00000001     C   48954 45970
 =C' Forms='
               7 0000A51C 00000001     C   48993 46064
 =C' Hours='
               7 0000A578 00000001     C   49001 46725
 =C' MTD, '
               6 00004DD4 00000001     C   27033 24308
 =C' MTD,'
               5 0000A50A 00000001     C   48989 45607
 =C' Notime limits='
              15 0000A5A0 00000001     C   49007 47558
 =C' NONE'
               5 0000B157 00000001     C   52391 52025
 =C' SYSA'
               5 0000B15C 00000001     C   52392 52076
 =C' SYSB'
               5 0000B161 00000001     C   52393 52115
 =C' SYSC'
1ACMD     (ACMD4072) (12:39) (15MAR04) Ordinary Symbol and Literal Cross Reference                                          Page  218
               5 0000B166 00000001     C   52394 52154
 =C' SYSD'
               5 0000B16B 00000001     C   52395 52193
 =C' SYSF'
               5 0000B175 00000001     C   52397 52271
 =C' SYSG'
               5 0000B17A 00000001     C   52398 52310
 =C' SYSH'
               5 0000B170 00000001     C   52396 52232
 =C' YTD)'
               5 0000A50F 00000001     C   48990 45637
 =C' YTD'      4 00004D74 00000001     C   27009 24338
 =C'.'         1 00002F39 00000001     C   19473 16433  18171
 =C'.'         1 00004E2E 00000001     C   27040 24142
 =C'.'         1 00006BDD 00000001     C   33767 33262
 =C'.'         1 000094FA 00000001     C   43538 43129
 =C'.'         1 0000A3E2 00000001     C   48963 43649
 =C'.'         1 0000B0C8 00000001     C   52382 49750  49927  50089
 =C'.'         1 0000B9AA 00000001     C   54325 53492
 =C'.'         1 0000C3A1 00000001     C   56949 55671
 =C'('         1 00005FA1 00000001     C   30589 29443
 =C'(Acct) '
               7 0000A416 00000001     C   48971 44165
 =C'(Admin) '
               8 0000A280 00000001     C   48917 44072
 =C'(Expired)'
               9 00004E4A 00000001     C   27046 24598
 =C'(Multiple) '
              11 0000A3FB 00000001     C   48968 43918
 =C'(No DEST/FORMS/BIN) '
              20 00002EFC 00000001     C   19465 19307
 =C'(Opr) '
               6 0000A346 00000001     C   48941 44204
 =C'(Over budget)'
              13 00004E53 00000001     C   27047 24625
 =C'(Password) '
              11 00004E94 00000001     C   27056 26142
 =C'(PC) '
               5 0000A406 00000001     C   48969 43994
 =C'(Subadmin) '
              11 0000A40B 00000001     C   48970 44033
 =C'(Submit) '
               9 0000A41D 00000001     C   48972 44243
 =C'(Suspended)'
              11 00004E3F 00000001     C   27045 24575
 =C'(Suspended--see Accounting)'
              27 00004E60 00000001     C   27048 24652
 =C'(Sys) '
               6 0000A340 00000001     C   48940 44126
 =C'(Template account) '
              19 0000A3E8 00000001     C   48967 43882
 =C'(TOTAL='
               7 00003BF7 00000001     C   22211 21914
 =C'(XMultiple) '
              12 0000A2C0 00000001     C   48925 43939
 =C'$'         1 0000C401 00000001     C   56953 56646  56820
 =C')'         1 00003038 00000001     C   19488 18153
 =C')'         1 00003BFE 00000001     C   22212 21982
 =C')'         1 00004E3E 00000001     C   27044 24508
1ACMD     (ACMD4072) (12:39) (15MAR04) Ordinary Symbol and Literal Cross Reference                                          Page  219
 =C')'         1 0000A589 00000001     C   49004 47024
 =C'- charging component.'
              21 00001109 00000001     C   12206 11996
 =C'- AUTO Options'
              14 00001EF4 00000001     C   15457 15379
 =C'- JOB Options'
              13 00003C12 00000001     C   22216 22123
 =C'- OUTPUT Options'
              16 00002E80 00000001     C   19443 19388
 =C'- SHOW MAIL options'
              19 00001036 00000001     C   12185 10657
 =C'-'         1 0000B0C9 00000001     C   52383 49796
 =C'-'         1 0000C402 00000001     C   56954 56798
 =C', '        2 00004DD2 00000001     C   27032 24256  24799
 =C', '        2 0000A36C 00000001     C   48946 45199  45662
 =C', machine access allowed for'
              28 0000A2D4 00000001     C   48928 44495
 =C', Mail is allowed'
              17 0000A549 00000001     C   48998 46402
 =C', Network host='
              15 0000A569 00000001     C   49000 46555
 =C', Network user='
              15 0000A55A 00000001     C   48999 46454
 =C', No mail allowed'
              17 0000A538 00000001     C   48997 46381
 =C', No network user id'
              20 0000A318 00000001     C   48933 46516
 =C','         1 0000A51B 00000001     C   48992 46014  46108  46864  46954  47040  47235  47346  47597  47709  47776
                                                 47843  47910  47977  48043  48188  48551  48631
 =C'??/??'
               5 00004E89 00000001     C   27053 25631
 =C'?'         1 0000A450 00000001     C   48975 44651
 =C': invalid authority,'
              20 00003B4C 00000001     C   22191 21157
 =C': invalid characters in prefix.'
              31 00003BCC 00000001     C   22208 20368
 =C': invalid; quotes required.'
              27 0000B0F5 00000001     C   52387 50250  50467
 =C':'         1 00002F3B 00000001     C   19475 16564
 =C':'         1 000094FB 00000001     C   43539 43175
 =C'" '        2 00001EE6 00000001     C   15454 14842
 =C'" '        2 0000A33C 00000001     C   48938 43757
 =C'"'         1 00002F3A 00000001     C   19474 16496  16542
 =C'"'         1 0000A3E3 00000001     C   48964 43711
 =C'"XCALL WYL.GG.JDN.MS#SETXMAIL/"'
              31 00000897 00000001     C   10332  8863
 =C'"XCALL WYL.GG.JDN.MS#SETXMAIL/OFF"'
              34 00000858 00000001     C   10330  8884
 =C'days ago)'
               9 00005FA2 00000001     C   30590 29505
 =C'days.'
               5 0000567B 00000001     C   28630 27190
 =C'does not exist.'
              15 0000B0D1 00000001     C   52385 49974
 =C'does not exist.'
              15 0000B9AB 00000001     C   54326 53539
 =C'does not exist'
              14 0000C33A 00000001     C   56943 55718
 =C'for verification.'
1ACMD     (ACMD4072) (12:39) (15MAR04) Ordinary Symbol and Literal Cross Reference                                          Page  220
              17 00005767 00000001     C   28638 28401
 =C'input '
               6 0000A3DA 00000001     C   48961 48257
 =C'is not a valid password.'
              24 00005470 00000001     C   28593 28334
 =C'is not in your group.'
              21 0000B0E0 00000001     C   52386 50135
 =C'is too long for a project id.'
              29 0000415E 00000001     C   23469 22730  23246
 =C'off'       3 00005FD3 00000001     C   30593 30252  30518
 =C'on'        2 00005F5E 00000001     C   30584 30230  30498
 =C'output '
               7 0000A62F 00000001     C   49014 48278
 =C'please use a longer one.'
              24 00005430 00000001     C   28591 28221
 =C'seconds'
               7 0000A599 00000001     C   49006 47219
 =C'setup allowed'
              13 0000A636 00000001     C   49015 48340
 =C'status='
               7 0000A4F3 00000001     C   48986 45221
 =C'the new password has not been set.'
              34 00005618 00000001     C   28628 28459
 =C'the'       3 000056FF 00000001     C   28634 27847  28026
 =C'without being logged off.'
              25 00003002 00000001     C   19486 17953
 =C'your'      4 000054E0 00000001     C   28609 27824  28003
 =C'['         1 0000A3E4 00000001     C   48965 43796
 =C'] '        2 0000A33E 00000001     C   48939 43842
 =C'Account '
               8 00006AD0 00000001     C   33719 33216
 =C'Account not specified.'
              22 0000B05E 00000001     C   52379 49244
 =C'Account File is full, new account not created.'
              46 0000B074 00000001     C   52380 49567
 =C'Account'
               7 0000B0CA 00000001     C   52384 49881  50043
 =C'Account'
               7 0000B9A3 00000001     C   54324 53446
 =C'Account'
               7 0000C39A 00000001     C   56948 55625
 =C'Authorized command not allowed here.'
              36 00000808 00000001     C   10317  8695
 =C'ALL'       3 00006B6E 00000001     C   33762 32392
 =C'ATTN '
               5 00001031 00000001     C   12184 10638
 =C'ATTN '
               5 00002FCD 00000001     C   19481 16851
 =C'AUTH='
               5 00003BFF 00000001     C   22213 22001
 =C'BD'        2 00006B54 00000001     C   33755 32879
 =C'BF'        2 00006B56 00000001     C   33756 32893
 =C'BG'        2 00006B4E 00000001     C   33752 32837
 =C'BIN='      4 00002EF8 00000001     C   19464 19237
 =C'BN'        2 00006B46 00000001     C   33748 32781
 =C'BQ'        2 00006B4C 00000001     C   33751 32823
 =C'BS'        2 00006B48 00000001     C   33749 32795
 =C'BT'        2 00006B4A 00000001     C   33750 32809
 =C'BU'        2 00006B50 00000001     C   33753 32851
1ACMD     (ACMD4072) (12:39) (15MAR04) Ordinary Symbol and Literal Cross Reference                                          Page  221
 =C'BUDGET: '
               8 00004D40 00000001     C   26997 24226
 =C'BX'        2 00006B52 00000001     C   33754 32865
 =C'Can''t create account ALL.'
              25 00006B71 00000001     C   33763 32402
 =C'Can''t SET XMAIL/NOXMAIL.'
              24 000007C0 00000001     C   10306  8898
 =C'Cards='
               6 0000A3CC 00000001     C   48958 47285
 =C'Charges: '
               9 00004E32 00000001     C   27042 24278
 =C'Command="'
               9 00001F22 00000001     C   15460 14796
 =C'Cost='
               5 00004E8E 00000001     C   27054 26055
 =C'Create'
               6 00006B60 00000001     C   33759 33385
 =C'CA'        2 0000A368 00000001     C   48944 45074
 =C'CLASS=E jobs only'
              17 0000A5F8 00000001     C   49011 47961
 =C'CLASS=P allowed'
              15 0000A643 00000001     C   49016 48535
 =C'CLASS=P NOT allowed'
              19 0000A652 00000001     C   49017 48615
 =C'COMMUNITY'
               9 00003C09 00000001     C   22215 22063
 =C'CONSOLE name can''t be changed'
              29 0000087A 00000001     C   10331  8151
 =C'COUNT='
               6 00003BC0 00000001     C   22206 21846
 =C'CPU='      4 0000A330 00000001     C   48935 47157
 =C'CREATE and DELETE options conflict.'
              35 00006B8D 00000001     C   33765 33055
 =C'CV'        2 00006B3E 00000001     C   33744 32245  32276
 =C'CV'        2 000094F2 00000001     C   43534 42930  42961
 =C'C1'        2 00006B40 00000001     C   33745 32259  32296
 =C'C1'        2 000094F4 00000001     C   43535 42944  42981
 =C'Delete'
               6 00006B66 00000001     C   33760 33409
 =C'DEFQ '
               5 00002FDC 00000001     C   19484 17066
 =C'DELETE can''t be specified with other options.'
              45 00006BB0 00000001     C   33766 33096
 =C'DEST='
               5 00003054 00000001     C   19490 19024
 =C'DQ'        2 00006B38 00000001     C   33741 32150
 =C'DQ'        2 000094EC 00000001     C   43531 42835
 =C'DQ'        2 0000B97E 00000001     C   54320 53856
 =C'E'         1 00004E87 00000001     C   27051 25047
 =C'Enter '
               6 0000555C 00000001     C   28620 27808  27987
 =C'Enter the same new password again '
              34 000055F6 00000001     C   28627 28383
 =C'Enter the same new password again for verification.'
              51 000056B1 00000001     C   28632 27383
 =C'Enter your NEW PASSWORD.'
              24 000053B0 00000001     C   28587 27227
 =C'Expecting PUBLIC/COMMUNITY/GROUP/USER.'
              38 00003B90 00000001     C   22202 21175
1ACMD     (ACMD4072) (12:39) (15MAR04) Ordinary Symbol and Literal Cross Reference                                          Page  222
 =C'EC'        2 00006B42 00000001     C   33746 32744
 =C'ED'        2 00006B44 00000001     C   33747 32758
 =C'EMS_'      4 00000F90 00000001     C   12171 11524
 =C'For example, 54132 is a valid password and TRY23% '
              50 000055C4 00000001     C   28626 28316
 =C'FEEDIT_'
               7 000010D0 00000001     C   12201 11484
 =C'FOLIO '
               6 00001006 00000001     C   12181 10939
 =C'FOLIOAIR '
               9 00001052 00000001     C   12187 10985
 =C'FOLIOBST '
               9 0000105B 00000001     C   12188 11008
 =C'FOLIOCIP '
               9 00001064 00000001     C   12189 11031
 =C'FOLIOHBR '
               9 0000106D 00000001     C   12190 11054
 =C'FOLIOHOV '
               9 00001076 00000001     C   12191 11077
 =C'FOLIOINV '
               9 0000107F 00000001     C   12192 11100
 =C'FOLIOMLK '
               9 00001088 00000001     C   12193 11123
 =C'FOLIOSOC '
               9 00001049 00000001     C   12186 10962
 =C'FOR '      4 00004D50 00000001     C   27000 23774
 =C'FOR is not needed and has been ignored.'
              39 00004E07 00000001     C   27039 23787
 =C'FORCE'
               5 00003BEB 00000001     C   22209 21746
 =C'FORMS='
               6 00002F20 00000001     C   19471 19095
 =C'GENERAL '
               8 00000F60 00000001     C   12161 11698
 =C'GG'        2 00008F94 00000001     C   42400 41517
 =C'GROUP'
               5 00003C04 00000001     C   22214 22038
 =C'HH'        2 00006B3A 00000001     C   33742 32164
 =C'HH'        2 000094EE 00000001     C   43532 42849
 =C'HH'        2 0000B980 00000001     C   54321 53870
 =C'HN'        2 00006B3C 00000001     C   33743 32178
 =C'HN'        2 000094F0 00000001     C   43533 42863
 =C'HN'        2 0000B982 00000001     C   54322 53884
 =C'HOLD '
               5 00003062 00000001     C   19492 19369
 =C'I/O error in account file, retrying...'
              38 0000B0A2 00000001     C   52381 49594
 =C'Incorrect password.'
              19 00005702 00000001     C   28635 27971
 =C'Incorrect password.'
              19 0000C387 00000001     C   56947 55499
 =C'Invalid password, re-enter.'
              27 0000C3BB 00000001     C   56951 56033  56123
 =C'JOBMASK.'
               8 00003B00 00000001     C   22175 20298  21799
 =C'JOBMASK.'
               8 00006AC8 00000001     C   33718 32700
 =C'K'         1 0000BAC6 00000001     C   54611 54426
 =C'KEPT '
1ACMD     (ACMD4072) (12:39) (15MAR04) Ordinary Symbol and Literal Cross Reference                                          Page  223
               5 00002FD7 00000001     C   19483 17009
 =C'KSYSG'
               5 00008386 00000001     C   38234 36163
 =C'KXSYS secondary'
              15 0000838B 00000001     C   38235 36324
 =C'Last logoff was '
              16 00005EB0 00000001     C   30554 28904
 =C'Last password change at'
              23 00005F8A 00000001     C   30588 29354
 =C'Lines='
               6 0000A3D2 00000001     C   48959 47396
 =C'Mailbox status for '
              19 00002F26 00000001     C   19472 16387
 =C'Missing authority.'
              18 00003B7E 00000001     C   22201 20865
 =C'Missing operand.'
              16 0000B5A8 00000001     C   53270 52818
 =C'Missing option.'
              15 00004E9F 00000001     C   27057 26370
 =C'Missing APPLICATION name.'
              25 00004DEE 00000001     C   27038 23582
 =C'Missing FORWARD mail address.'
              29 000008B6 00000001     C   10333  9380
 =C'Missing SET AUTO options.'
              25 00001F02 00000001     C   15458 12378
 =C'Missing SET JOB options.'
              24 00003AE8 00000001     C   22174 19664
 =C'Missing SET MASTER options.'
              27 00006BDE 00000001     C   33768 33335
 =C'Missing SET MSTATUS options.'
              28 00002EA0 00000001     C   19448 15640
 =C'Missing SET NAME options'
              24 000007A8 00000001     C   10305  8241
 =C'Missing SET OUTPUT options.'
              27 00003039 00000001     C   19489 18399
 =C'MAIL '
               5 00002FD2 00000001     C   19482 16952
 =C'MULTIPLE '
               9 00001F56 00000001     C   15466 15265
 =C'New mail is being forwarded to '
              31 00001012 00000001     C   12183 10442
 =C'No account file.  '
              18 0000B96C 00000001     C   54319 53380
 =C'No account file.'
              16 00006548 00000001     C   31892 30905
 =C'No action taken.'
              16 00008F18 00000001     C   42377 41548
 =C'No batch allowed'
              16 0000A2A0 00000001     C   48920 47693
 =C'No charging component is set.'
              29 000010EC 00000001     C   12205 11934
 =C'No daytime sessions allowed'
              27 0000A609 00000001     C   49012 48027
 =C'No interactive sessions allowed'
              31 0000A5AF 00000001     C   49008 47760
 =C'No last logoff time.'
              20 00005EF8 00000001     C   30561 28870
 =C'No last password change time.'
              29 00005F6D 00000001     C   30587 29321
1ACMD     (ACMD4072) (12:39) (15MAR04) Ordinary Symbol and Literal Cross Reference                                          Page  224
 =C'No logon password needed.'
              25 0000A437 00000001     C   48974 44418
 =C'No more room (or record set error).'
              35 00004EAE 00000001     C   27058 26515
 =C'No name set.'
              12 000007F8 00000001     C   10315  8545
 =C'No password checking now.'
              25 0000C3A2 00000001     C   56950 55729
 =C'No priority'
              11 0000A624 00000001     C   49013 48172
 =C'No project id.'
              14 0000413E 00000001     C   23467 22982
 =C'No space limit'
              14 0000A38A 00000001     C   48951 45678
 =C'No volume'
               9 0000A528 00000001     C   48995 46300
 =C'No Logoff cost statistics'
              25 0000A5CE 00000001     C   49009 47827
 =C'No WPROJECT set.'
              16 000040D8 00000001     C   23450 23365
 =C'No'        2 0000A386 00000001     C   48949 45501  48241
 =C'Not available'
              13 0000A676 00000001     C   49019 48793
 =C'Note: Account not added to RACF data base -- '
              45 00006BF9 00000001     C   33769 33508
 =C'Note: Account not deleted from RACF data base -- '
              49 00006C26 00000001     C   33770 33598
 =C'NEWEXEC '
               8 00001E80 00000001     C   15431 15101
 =C'NO'        2 00001002 00000001     C   12179 10616
 =C'NO'        2 00002F18 00000001     C   19469 16829  16930  16987  17044  19347
 =C'NO'        2 00003BB6 00000001     C   22203 21632
 =C'NOEXEC '
               7 00001F44 00000001     C   15464 15032
 =C'NOLTIME '
               8 00001E88 00000001     C   15432 15135
 =C'NOMAIL '
               7 00001F32 00000001     C   15462 14928
 =C'NOMULTIPLE '
              11 00001F4B 00000001     C   15465 15244
 =C'NONEWS '
               7 00001F2B 00000001     C   15461 14876
 =C'NOPTIME '
               8 00001E90 00000001     C   15433 15188
 =C'NORECOVERY '
              11 00001F39 00000001     C   15463 14980
 =C'NOSTATISTICS '
              13 00001F6A 00000001     C   15468 15344
 =C'NOTIFY'
               6 00003BB8 00000001     C   22204 21654
 =C'NUMBERED'
               8 00003B10 00000001     C   22177 21711
 =C'O'         1 00004E88 00000001     C   27052 25074
 =C'Old style NOTIME in effect (compatibility mode).'
              48 00002E30 00000001     C   19441 18001
 =C'Orvyl='
               6 00001EE0 00000001     C   15453 14727
 =C'OFF'       3 00005FD9 00000001     C   30595 30310
 =C'OK'        2 00005F60 00000001     C   30585 30284
1ACMD     (ACMD4072) (12:39) (15MAR04) Ordinary Symbol and Literal Cross Reference                                          Page  225
 =C'OK'        2 00006590 00000001     C   31907 30921
 =C'OK'        2 0000C338 00000001     C   56942 55586
 =C'ON '       3 00005FD6 00000001     C   30594 30291
 =C'Password must be at least 5 characters long. '
              45 00008F99 00000001     C   42402 41530
 =C'Password? '
              10 0000C328 00000001     C   56938 54796  55837
 =C'Passwords can only contain alphabetic, numeric'
              46 00005596 00000001     C   28625 28280
 =C'Please enter the correct password.'
              34 0000C348 00000001     C   56944 56178
 =C'Please pick a password without "special"'
              40 00005448 00000001     C   28592 28244
 =C'Primary machine is'
              18 0000A34C 00000001     C   48942 44472
 =C'PASSWORD verification error'
              27 000056E4 00000001     C   28633 27473
 =C'PASSWORD, please contact Accounting.'
              36 0000C2EC 00000001     C   56931 56456
 =C'PREFIX='
               7 00003BF0 00000001     C   22210 21784
 =C'PRISM '
               6 0000100C 00000001     C   12182 11146
 =C'PRISMCLS '
               9 000010BE 00000001     C   12199 11307
 =C'PRISMNC '
               8 00000EB0 00000001     C   12147 11169
 =C'PRISMNSI '
               9 000010AC 00000001     C   12197 11261
 =C'PRISMOTH '
               9 000010C7 00000001     C   12200 11330
 =C'PRISMPEV '
               9 0000109A 00000001     C   12195 11215
 =C'PRISMSMS '
               9 00001091 00000001     C   12194 11192
 =C'PRISMSNP '
               9 000010B5 00000001     C   12198 11284
 =C'PRISMSUF '
               9 000010A3 00000001     C   12196 11238
 =C'PRTFORMS='
               9 00003059 00000001     C   19491 19166
 =C'PUB'       3 00006B8A 00000001     C   33764 32415  32557
 =C'PUB'       3 0000A3E5 00000001     C   48966 43871
 =C'PUBEXEC '
               8 00001E78 00000001     C   15430 15076
 =C'PUBLIC'
               6 00003BC6 00000001     C   22207 22088
 =C'PUBLISH'
               7 000010E5 00000001     C   12204 11644
 =C'Re-statement of the old PASSWORD does not constitute a CHANGE.'
              62 0000551C 00000001     C   28618 27317
 =C'S'         1 00004E86 00000001     C   27050 25024
 =C'Secure logon EXEC'
              17 0000A5E7 00000001     C   49010 47894
 =C'Session is now terminated.'
              26 0000C36A 00000001     C   56945 56490
 =C'Space='
               6 0000A398 00000001     C   48952 45700
 =C'Specify NOLINES.'
1ACMD     (ACMD4072) (12:39) (15MAR04) Ordinary Symbol and Literal Cross Reference                                          Page  226
              16 00008F08 00000001     C   42376 39578
 =C'System='
               7 00001F1B 00000001     C   15459 14660
 =C'SAV'       3 0000C384 00000001     C   56946 54765
 =C'SEL'       3 0000B110 00000001     C   52388 50813
 =C'SELF is not a forms code.'
              25 0000B113 00000001     C   52389 50823
 =C'SMF session accounting is turned'
              32 00005EC8 00000001     C   30556 30482
 =C'SMF session accounting will be turned'
              37 00005FAB 00000001     C   30591 30214
 =C'SMF'       3 00005FD0 00000001     C   30592 30243  30303  30382
 =C'STATISTICS '
              11 00001F5F 00000001     C   15467 15323
 =C'The passwords are not the same, '
              32 00005488 00000001     C   28594 28441
 =C'The PASSWORD for this privileged account has not been changed for'
              65 0000563A 00000001     C   28629 27128
 =C'The PASSWORD must be at least 5 characters long.'
              48 000053C8 00000001     C   28588 27358
 =C'This command can''t be executed.'
              31 0000B984 00000001     C   54323 53399
 =C'This password is too short, '
              28 000054F8 00000001     C   28615 28203
 =C'This session can be idle for '
              29 0000301B 00000001     C   19487 18035
 =C'This session can be idle forever '
              33 00002FE1 00000001     C   19485 17935
 =C'Update'
               6 00006B5A 00000001     C   33758 33365
 =C'Use DEST=SELF for the self-service printer.'
              43 0000B12C 00000001     C   52390 50841
 =C'UN'        2 00003BBE 00000001     C   22205 21689
 =C'USER'      4 00003B70 00000001     C   22196 22017
 =C'Volume='
               7 0000A531 00000001     C   48996 46322
 =C'WYLBUR  '
               8 0000B018 00000001     C   52362 51277
 =C'WYLMAIL'
               7 000010D7 00000001     C   12202 11564
 =C'XBEGIN_'
               7 000010DE 00000001     C   12203 11604
 =C'XMULTIPLE '
              10 00001EEA 00000001     C   15456 15290
 =C'You have made too many attempts to supply a'
              43 0000C3D6 00000001     C   56952 56438
 =C'You must change it at this time or be logged off.'
              49 00005680 00000001     C   28631 27208
 =C'Your account can not receive new mail.'
              38 00000FA4 00000001     C   12176 10400
 =C'Your account can receive new mail.'
              34 00000FCA 00000001     C   12177 10420
 =C'Your mail message is: '
              22 00000FEC 00000001     C   12178 10523
 =C'Your password can''t be longer than 8 characters.'
              48 00005400 00000001     C   28590 28102
 =C'Your password must be at least 5 characters long.'
              49 00005715 00000001     C   28636 28143
 =CL(L'KWRNETH)'LINDY'
1ACMD     (ACMD4072) (12:39) (15MAR04) Ordinary Symbol and Literal Cross Reference                                          Page  227
              32 00008F28 00000001     C   42378 41931
 =CL(L'SETWCHAR)'FOLIO_AIR'
              16 00000E30 00000001     C   12139 10991
 =CL(L'SETWCHAR)'FOLIO_BOOKSTORE'
              16 00000E40 00000001     C   12140 11014
 =CL(L'SETWCHAR)'FOLIO_COMMINFO'
              16 00000E50 00000001     C   12141 11037
 =CL(L'SETWCHAR)'FOLIO_GENERAL'
              16 00000E10 00000001     C   12137 10945
 =CL(L'SETWCHAR)'FOLIO_HBR'
              16 00000E60 00000001     C   12142 11060
 =CL(L'SETWCHAR)'FOLIO_HOOVER'
              16 00000E70 00000001     C   12143 11083
 =CL(L'SETWCHAR)'FOLIO_INVEST'
              16 00000E80 00000001     C   12144 11106
 =CL(L'SETWCHAR)'FOLIO_MLKING'
              16 00000E90 00000001     C   12145 11129
 =CL(L'SETWCHAR)'FOLIO_SOCRATES'
              16 00000E20 00000001     C   12138 10968
 =CL(L'SETWCHAR)'GENERAL'
              16 00000E00 00000001     C   12136 10888
 =CL(L'SETWCHAR)'PRISM_CLASS'
              16 00000F18 00000001     C   12154 11313
 =CL(L'SETWCHAR)'PRISM_GENERAL'
              16 00000EA0 00000001     C   12146 11152
 =CL(L'SETWCHAR)'PRISM_MISC'
              16 00000F28 00000001     C   12155 11336
 =CL(L'SETWCHAR)'PRISM_NC'
              16 00000EB8 00000001     C   12148 11175
 =CL(L'SETWCHAR)'PRISM_NSI'
              16 00000EF8 00000001     C   12152 11267
 =CL(L'SETWCHAR)'PRISM_PUBEVENTS'
              16 00000ED8 00000001     C   12150 11221
 =CL(L'SETWCHAR)'PRISM_SMAS'
              16 00000EC8 00000001     C   12149 11198
 =CL(L'SETWCHAR)'PRISM_SNAP'
              16 00000F08 00000001     C   12153 11290
 =CL(L'SETWCHAR)'PRISM_SUFIN'
              16 00000EE8 00000001     C   12151 11244
 =CL(L'SETWPASS)'<internal>'
               8 00000F48 00000001     C   12158 11570
 =CL(L'SETWPASS)'ALGERNON'
               8 00000F38 00000001     C   12156 11490
 =CL(L'SETWPASS)'LEVEL2'
               8 00000F50 00000001     C   12159 11610
 =CL(L'SETWPASS)'POSTFIX'
               8 00000F58 00000001     C   12160 11650
 =CL(L'SETWPASS)'UMAIL4US'
               8 00000F40 00000001     C   12157 11530
 =CL4'1181'
               4 00006B04 00000001     C   33728 32595
 =CL8'ASKPASS'
               8 0000C280 00000001     C   56906 54784
 =CL8'BADACCT'
               8 0000B010 00000001     C   52361 49971
 =CL8'BADACCT'
               8 0000B948 00000001     C   54311 53536
 =CL8'BADACCT'
               8 0000C288 00000001     C   56907 55715
1ACMD     (ACMD4072) (12:39) (15MAR04) Ordinary Symbol and Literal Cross Reference                                          Page  228
 =CL8'BADKW'
               8 000053F8 00000001     C   28589 27968
 =CL8'COMMAND'
               8 00000F68 00000001     C   12162 12100
 =CL8'INVCHARS'
               8 00003B08 00000001     C   22176 20365
 =CL8'MAGIC'
               8 00006558 00000001     C   31893 31074  31079
 =CL8'NOACCT'
               8 0000B008 00000001     C   52360 49241
 =CL8'NOKWFILE'
               8 0000B940 00000001     C   54310 53396
 =CL8'SETSMF'
               8 00005EC0 00000001     C   30555 30345
 =F'10'        4 0000C310 00000001     F   56932 56614
 =F'100'       4 00008F50 00000001     F   42381 38323  38431  38539  38647  39377
 =H'-1'        2 00000854 00000001     H   10328  8111   8999
 =H'-1'        2 00001EDC 00000001     H   15451 12290  14518
 =H'-1'        2 00002F14 00000001     H   19467 15552  17202  17569  17876  18311
 =H'-1'        2 00003B78 00000001     H   22198 19576  21490
 =H'-1'        2 00004DCE 00000001     H   27030 23877  25294
 =H'-1'        2 00005F58 00000001     H   30581 29174
 =H'-1'        2 00008F92 00000001     H   42399 40092  40149  41120  41248  41366
 =H'0'         2 00008F8E 00000001     H   42397 39053  39238  39449
 =H'100'       2 00004DDA 00000001     H   27034 24730  24814
 =H'100'       2 00008F8C 00000001     H   42396 38295  38403  38511  38619  39325
 =H'100'       2 0000A3B6 00000001     H   48955 46740  46793  46879  46969  47299
 =H'1000'      2 00008F90 00000001     H   42398 39536
 =H'1000'      2 0000A3D8 00000001     H   48960 47410
 =H'2'         2 00001EE8 00000001     H   15455 14896  14948  15000  15052  15155  15208
 =H'32'        2 000094F8 00000001     H   43537 43314
 =V(BTD)       4 00003B6C 00000001     V   22195 21884  21952
 =V(BTD)       4 00004D9C 00000001     V   27017 25319  25396  25473  25603
 =V(BTD)       4 000054AC 00000001     V   28596 27160
 =V(BTD)       4 00005F2C 00000001     V   30570 29475
 =V(BTD)       4 0000A334 00000001     V   48936 47189  47318  47429
 =V(BTD)       4 0000C324 00000001     V   56937 56852
 =V(BTR)       4 00004D94 00000001     V   27015 25169  25222
 =V(BTR)       4 0000C318 00000001     V   56934 56681
 =V(BTX)       4 000094DC 00000001     V   43527 43220
 =V(CHARCHKA)
               4 00003B40 00000001     V   22188 20326
 =V(CKQUOTES)
               4 00005F40 00000001     V   30575 29852
 =V(COLLOPTS)
               4 000007F0 00000001     V   10313  8505   8731
 =V(COLLOPTS)
               4 00000F94 00000001     V   12172 11911
 =V(COLLOPTS)
               4 00001EC8 00000001     V   15446 14526
 =V(COLLOPTS)
               4 00002EC0 00000001     V   19450 16381  17884  18890
 =V(COLLOPTS)
               4 00003B64 00000001     V   22193 21498
 =V(COLLOPTS)
               4 00004110 00000001     V   23461 22945  23328
 =V(COLLOPTS)
               4 00004DA0 00000001     V   27018 25950
 =V(COLLOPTS)
1ACMD     (ACMD4072) (12:39) (15MAR04) Ordinary Symbol and Literal Cross Reference                                          Page  229
               4 00005EEC 00000001     V   30558 28731  29182
 =V(CVEXNO)
               4 00004D90 00000001     V   27014 24733  24817  26072
 =V(CVEXNO)
               4 0000A32C 00000001     V   48934 46743  46796  46882  46972
 =V(DATE)      4 00004D8C 00000001     V   27013 24475  25653
 =V(DEQUOTE)
               4 00000848 00000001     V   10325 10154
 =V(DEQUOTE)
               4 00005F44 00000001     V   30576 29856
 =V(DEQUOTE)
               4 00008F6C 00000001     V   42388 41438
 =V(DEQUOTE)
               4 0000B044 00000001     V   52372 50209  50426  51549
 =V(DESTVER)
               4 0000B054 00000001     V   52376 50689
 =V(DISPCOST)
               4 00004DC8 00000001     V   27028 26920
 =V(DTB)       4 00001EC4 00000001     V   15445 13372  13414  13456
 =V(DTB)       4 00006B10 00000001     V   33731 32963  32985  33007
 =V(DTB)       4 0000B5C8 00000001     V   53275 53205
 =V(EXIT3)
               4 000040FC 00000001     V   23456 22411
 =V(FMTDATE)
               4 00006B0C 00000001     V   33730 32943
 =V(FMTRCLCK)
               4 00004D64 00000001     V   27005 23971
 =V(FMTRCLCK)
               4 00005F24 00000001     V   30568 29387
 =V(FMTXDATE)
               4 00005F10 00000001     V   30563 28928
 =V(FMTXDATE)
               4 0000A338 00000001     V   48937 48745
 =V(GBLCMD)
               4 0000082C 00000001     V   10318  8892
 =V(GETHEAP)
               4 0000BAAC 00000001     V   54604 54398
 =V(HEXFMT)
               4 000094E4 00000001     V   43529 43310
 =V(KEYGET)
               4 0000BAB0 00000001     V   54605 54429
 =V(KLOGCMPR)
               4 0000BAC0 00000001     V   54609 54548
 =V(KWIO)      4 00006560 00000001     V   31894 30752
 =V(KWIO)      4 0000B034 00000001     V   52368 49525
 =V(KWIO)      4 0000B950 00000001     V   54312 53358
 =V(KWIO)      4 0000C290 00000001     V   56908 54724
 =V(LOCALTOD)
               4 00004D60 00000001     V   27004 23954
 =V(LOCALTOD)
               4 00005F20 00000001     V   30567 29370
 =V(LOCALTOD)
               4 00006B08 00000001     V   33729 32938
 =V(LOGEVENT)
               4 00000FA0 00000001     V   12175 12103
 =V(LOGKWR)
               4 00001EAC 00000001     V   15439 12412
 =V(LOGKWR)
               4 00002EEC 00000001     V   19461 18433
1ACMD     (ACMD4072) (12:39) (15MAR04) Ordinary Symbol and Literal Cross Reference                                          Page  230
 =V(LOGKWR)
               4 00003B2C 00000001     V   22183 19698
 =V(LOGKWR)
               4 000054C0 00000001     V   28601 27558  28517
 =V(LOGKWR)
               4 00006AEC 00000001     V   33722 32033  33681
 =V(LOGKWR)
               4 000094BC 00000001     V   43519 42718  43349
 =V(LOGKWR)
               4 0000C2E4 00000001     V   56929 56386
 =V(LRTRIM)
               4 00000F9C 00000001     V   12174 12098
 =V(LRTRIM)
               4 00004D6C 00000001     V   27007 24045
 =V(MARKHEAP)
               4 0000BAA8 00000001     V   54603 54392
 =V(NOTVALID)
               4 0000084C 00000001     V   10326 10169
 =V(NOTVALID)
               4 00001EB8 00000001     V   15442 13240  13301  13341  13381  13423  13465  13489
 =V(NOTVALID)
               4 00003B3C 00000001     V   22187 20318
 =V(NOTVALID)
               4 00004DB0 00000001     V   27022 26308
 =V(NOTVALID)
               4 00005F4C 00000001     V   30578 30203
 =V(NOTVALID)
               4 00006574 00000001     V   31899 30974  31003
 =V(NOTVALID)
               4 00006AF0 00000001     V   33723 32037
 =V(NOTVALID)
               4 0000837C 00000001     V   38231 37849  37875  37931  37978  38034  38145  38185
 =V(NOTVALID)
               4 00008F58 00000001     V   42383 38890  39161  39366  41460  41706  41880  42093
 =V(NOTVALID)
               4 000094C0 00000001     V   43520 42722
 =V(NOTVALID)
               4 0000B050 00000001     V   52375 50669  50785  50946  51134  51249  51466
 =V(NSCAN)
               4 000007E0 00000001     V   10309  8205   9088
 =V(NSCAN)
               4 00000F80 00000001     V   12167 10857  11369
 =V(NSCAN)
               4 00001EA0 00000001     V   15436 12342
 =V(NSCAN)
               4 00002E98 00000001     V   19446 15604  17254  18363
 =V(NSCAN)
               4 00003B20 00000001     V   22180 19628  20658
 =V(NSCAN)
               4 000040EC 00000001     V   23452 22333  22387  22663  23149
 =V(NSCAN)
               4 00004D48 00000001     V   26998 23543  23733  23904  26335  26453  26899
 =V(NSCAN)
               4 000054D0 00000001     V   28605 27725
 =V(NSCAN)
               4 00005F34 00000001     V   30572 29698  29774
 =V(NSCAN)
               4 00006564 00000001     V   31895 30781  30862  31057
 =V(NSCAN)
1ACMD     (ACMD4072) (12:39) (15MAR04) Ordinary Symbol and Literal Cross Reference                                          Page  231
               4 00008364 00000001     V   38225 35323  35375
 =V(NSCAN)
               4 000094CC 00000001     V   43523 43064
 =V(NSCAN)
               4 0000B024 00000001     V   52364 49123
 =V(NSCAN)
               4 0000B5BC 00000001     V   53272 52481  52583  53146
 =V(NSCAN)
               4 0000C2A8 00000001     V   56914 54969  55023  56004
 =V(NSCANSTR)
               4 00000838 00000001     V   10321  9344
 =V(NSCANSTR)
               4 00001EBC 00000001     V   15443 13265
 =V(ORVCPASS)
               4 000054C4 00000001     V   28602 27693
 =V(RACADD)
               4 00006B28 00000001     V   33737 33488
 =V(RACDEL)
               4 00006B30 00000001     V   33739 33578
 =V(RACPASCK)
               4 000054F0 00000001     V   28613 28169
 =V(RACUPDPW)
               4 00005518 00000001     V   28617 28509
 =V(RACUPDPW)
               4 00006B34 00000001     V   33740 33669
 =V(RELHEAP)
               4 0000BAB4 00000001     V   54606 54448  54481
 =V(SCANCHK)
               4 000007E4 00000001     V   10310  8219   9102   9358
 =V(SCANCHK)
               4 00000F84 00000001     V   12168 10871  11383
 =V(SCANCHK)
               4 00001EA4 00000001     V   15437 12356  13279
 =V(SCANCHK)
               4 00002E9C 00000001     V   19447 15618  17268  18377
 =V(SCANCHK)
               4 00003B24 00000001     V   22181 19642  20672
 =V(SCANCHK)
               4 000040F0 00000001     V   23453 22347  22401  22677  23163
 =V(SCANCHK)
               4 00004D4C 00000001     V   26999 23557  23747  23918  26349  26467  26913
 =V(SCANCHK)
               4 000054D4 00000001     V   28606 27739
 =V(SCANCHK)
               4 00005F38 00000001     V   30573 29712  29788
 =V(SCANCHK)
               4 00006568 00000001     V   31896 30795  31071
 =V(SCANCHK)
               4 00008368 00000001     V   38226 35337  35389
 =V(SCANCHK)
               4 000094D0 00000001     V   43524 43078
 =V(SCANCHK)
               4 0000B028 00000001     V   52365 49137
 =V(SCANCHK)
               4 0000B5C0 00000001     V   53273 52495  52597  53160
 =V(SCANCHK)
               4 0000C2AC 00000001     V   56915 54983  55037
 =V(SCUPCASE)
               4 00000F88 00000001     V   12169 10924  11834
1ACMD     (ACMD4072) (12:39) (15MAR04) Ordinary Symbol and Literal Cross Reference                                          Page  232
 =V(SCUPCASE)
               4 00004DB4 00000001     V   27023 26397  26738
 =V(SCUPCASE)
               4 00005F3C 00000001     V   30574 29751
 =V(SCUPCASE)
               4 00008F84 00000001     V   42394 41911  42124
 =V(SEG)       4 00000804 00000001     V   10316  8573
 =V(SEG)       4 00000F70 00000001     V   12163 10454  10535  10628  10650  11946  12008
 =V(SEG)       4 00001ECC 00000001     V   15447 14672  14739  14808  14854  14923  14975  15027  15129  15182  15235
                                                 15318  15372
 =V(SEG)       4 00002EC4 00000001     V   19451 16399  16427  16445  16508  16554  16615  16741  16806  16841  16863
                                                 16907  16942  16964  16999  17021  17056  17078  17947  17965  18013
                                                 18047  18087  18126  18165  18183  19036  19107  19178  19249  19319
                                                 19359  19381
 =V(SEG)       4 00003B44 00000001     V   22189 20361  21151  21644  21701  21796  21858  21926  21976  22013
 =V(SEG)       4 00004D68 00000001     V   27006 23995  24025  24136  24154  24182  24200  24238  24268  24290  24320
                                                 24350  24384  24469  24502  24520  24571  24680  24757  24775  24811
                                                 24841  24859  24960  24988  25106  25146  26014  26032  26067  26096
                                                 26114  26154
 =V(SEG)       4 000054DC 00000001     V   28608 27820  27875  27999  28054  28215  28256  28292  28328  28395  28453
 =V(SEG)       4 00005F0C 00000001     V   30562 28882  28916  28952  29004  29032  29333  29455  29517
 =V(SEG)       4 00006580 00000001     V   31902 31158  31186  31214  31242
 =V(SEG)       4 00006B18 00000001     V   33733 33228  33256  33274  33302  33520  33610
 =V(SEG)       4 00008F78 00000001     V   42391 41542  41560
 =V(SEG)       4 000094D4 00000001     V   43525 43123  43141  43169  43244  43274
 =V(SEG)       4 0000A2B4 00000001     V   48922 43643  43661  43723  43769  43808  43854  43894  43967  44006  44045
                                                 44084  44138  44177  44216  44255  44298  44412  44466  44484  44507
                                                 44600  44679  44740  45111  45178  45211  45233  45261  45393  45474
                                                 45513  45555  45589  45649  45674  45712  45766  45800  45840  45964
                                                 45982  46058  46076  46104  46152  46170  46198  46296  46334  46430
                                                 46466  46528  46567  46719  46737  46767  46785  46820  46838  46906
                                                 46924  46996  47014  47036  47169  47231  47297  47342  47408  47453
                                                 47552  47570  47609  47705  47772  47839  47906  47973  48039  48184
                                                 48334  48352  48547  48627  48720  48769  48805
 =V(SEG)       4 0000B03C 00000001     V   52370 49744  49762  49921  49939  50083  50101  50244  50461  52037  52088
                                                 52127  52166  52205  52244  52283  52322
 =V(SEG)       4 0000B954 00000001     V   54313 53392  53486  53504
 =V(SEG)       4 0000C29C 00000001     V   56911 54842  55665  55683  55883  56658  56705  56810  56832  56876
 =V(SEGB)      4 00002EC8 00000001     V   19452 16473
 =V(SEGB)      4 00003B60 00000001     V   22192 21169  21666  21723  21758  21908  21994  22116
 =V(SEGB)      4 00004108 00000001     V   23459 22724  23240
 =V(SEGB)      4 00004D98 00000001     V   27016 25193  25246  25343  25420  25497  25627  25694
 =V(SEGB)      4 000054A8 00000001     V   28595 27140  27184
 =V(SEGB)      4 00005F1C 00000001     V   30566 29366  29411  29499  30226  30494
 =V(SEGB)      4 0000A2B8 00000001     V   48923 43689  45619  46876  46966  47151  47213  47279  47390  47687  47754
                                                 47821  47888  47955  48021  48166  48235  48253  48529  48609
 =V(SEGB)      4 0000B040 00000001     V   52371 49790  49808  49893  49967  50055  50129  50835
 =V(SEGB)      4 0000B95C 00000001     V   54315 53458  53532
 =V(SEGB)      4 0000C2C8 00000001     V   56922 55637  55711  56450
 =V(SEGCR)
               4 00000F74 00000001     V   12164 10500  10588  10669
 =V(SEGCR)
               4 00002ED0 00000001     V   19454 16576  16682  16787  16888
 =V(SEGCR)
               4 00004DAC 00000001     V   27021 26184
 =V(SEGCR)
               4 00005514 00000001     V   28616 28233  28274  28310  28346  28371
 =V(SEGCR)
               4 00005F50 00000001     V   30579 30280
1ACMD     (ACMD4072) (12:39) (15MAR04) Ordinary Symbol and Literal Cross Reference                                          Page  233
 =V(SEGCR)
               4 0000656C 00000001     V   31897 30917
 =V(SEGCR)
               4 00006B2C 00000001     V   33738 33547  33637
 =V(SEGCR)
               4 0000A2CC 00000001     V   48926 44327  44430  44570  45438  45903  46260  46657  47102  47515  48105
                                                 48414  48697  48867
 =V(SEGCR)
               4 0000C2CC 00000001     V   56923 55741  56468
 =V(SEGDC)
               4 00002EE4 00000001     V   19459 18069  18147
 =V(SEGDC)
               4 0000A314 00000001     V   48932 45734  45822  47591  47630
 =V(SEGT)      4 00000F78 00000001     V   12165 10563
 =V(SEGT)      4 00001ED4 00000001     V   15449 14836
 =V(SEGT)      4 00002ECC 00000001     V   19453 16536  16657
 =V(SEGT)      4 00004114 00000001     V   23462 23026  23409
 =V(SEGT)      4 0000A2BC 00000001     V   48924 43751  43836  46010  46376  46494  46595
 =V(SEGTB)
               4 00000F98 00000001     V   12173 11990
 =V(SEGTB)
               4 00001ED0 00000001     V   15448 14700  14767
 =V(SEGTB)
               4 00002EF4 00000001     V   19463 19064  19135  19206  19277
 =V(SEGTB)
               4 00003B68 00000001     V   22194 21836
 =V(SEGWR)
               4 00000F7C 00000001     V   12166 10695
 =V(SEGWR)
               4 00001ED8 00000001     V   15450 15391
 =V(SEGWR)
               4 00002F10 00000001     V   19466 19400
 =V(SEGWR)
               4 00003B74 00000001     V   22197 22135
 =V(SEGWR)
               4 00004D54 00000001     V   27001 23799  24069  24709  24888
 =V(SEGWR)
               4 000054B0 00000001     V   28597 27202  27220  27239  27329  27370  27395  27485  27768  27893  28072
                                                 28114  28155  28413
 =V(SEGWR)
               4 00005F14 00000001     V   30564 29066  29550  30342
 =V(SEGWR)
               4 00008374 00000001     V   38229 36173  36334
 =V(SEGWR)
               4 000094D8 00000001     V   43526 43187
 =V(SEGWR)
               4 0000B038 00000001     V   52369 49606
 =V(SEGWR)
               4 0000C2D0 00000001     V   56924 56045  56135  56190  56432  56502
 =V(SETPROJ)
               4 00004134 00000001     V   23464 23121
 =V(SHOWTRKS)
               4 00004100 00000001     V   23457 22565
 =V(SMFLOG)
               4 00005F48 00000001     V   30577 29865  30361
 =V(SMFLOG)
               4 0000657C 00000001     V   31901 31096
 =V(SMFLOG)
               4 0000C298 00000001     V   56910 54787
1ACMD     (ACMD4072) (12:39) (15MAR04) Ordinary Symbol and Literal Cross Reference                                          Page  234
 =V(TCNTL)
               4 00006584 00000001     V   31903 31254
 =V(TREAD)
               4 0000C2A0 00000001     V   56912 54888  55929
 =V(UPDCPSIB)
               4 000007EC 00000001     V   10312  8328
 =V(UPDCPSIB)
               4 00002ED8 00000001     V   19456 17349
 =V(UPDCPSIB)
               4 0000410C 00000001     V   23460 22806
 =V(WAITER)
               4 000054E4 00000001     V   28610 27938
 =V(WAITER)
               4 0000C2BC 00000001     V   56919 55461
 =V(XGET)      4 00004DB8 00000001     V   27024 26427
 =V(XGETNEXT)
               4 00004DA8 00000001     V   27020 25984
 =V(XPUT)      4 00004DC0 00000001     V   27026 26497
 =V(XSETSET)
               4 00004DA4 00000001     V   27019 25963  26406  26476
 =V(YESREQ)
               4 00005F54 00000001     V   30580 30288
 =V(YESREQ)
               4 00006570 00000001     V   31898 30931
 =V(YESREQ)
               4 00006B20 00000001     V   33735 33417
 =V(YESREQ)
               4 0000C2C4 00000001     V   56921 55590
 =X'D5C9E9'
               3 000065AE 00000001     X   31911 30833
 =X'D9C1E9E9D3C54BC4C1E9E9D3C5'
              13 00006594 00000001     X   31909 30821
 =X'9589A9A993854B8689A9A99385'
              13 000065A1 00000001     X   31910 30830
 =XL8'00'      8 000040D0 00000001     X   23449 22752  22790  23185
 =Y((L'NSCNCB+3)/4*4)
               2 00003B7C 00000001     Y   22200 20678
 =Y((L'NSCNCB+3)/4*4)
               2 0000658E 00000001     Y   31906 30840  30882  30937
 =Y((L'NSCNCB+3)/4*4)
               2 0000C334 00000001     Y   56940 55131  56248
 =Y((R1+1-(R0)+16*((R0)/(R1+1))/((R0)/(R1+1)))*4)
               2 00006B6C 00000001     Y   33761 33523  33613
 =Y((R1+1-(R15)+16*((R15)/(R1+1))/((R15)/(R1+1)))*4)
               2 00005574 00000001     Y   28622 27943
 =Y((R1+1-(R15)+16*((R15)/(R1+1))/((R15)/(R1+1)))*4)
               2 0000C336 00000001     Y   56941 55466
 =Y((12+3)/4*4)
               2 00000856 00000001     Y   10329  8211   9094   9350
 =Y((12+3)/4*4)
               2 00001004 00000001     Y   12180 10863  11375
 =Y((12+3)/4*4)
               2 00001EDE 00000001     Y   15452 12348  13271
 =Y((12+3)/4*4)
               2 00002F16 00000001     Y   19468 15610  17260  18369
 =Y((12+3)/4*4)
               2 00003B7A 00000001     Y   22199 19634  20664
 =Y((12+3)/4*4)
               2 0000413C 00000001     Y   23466 22339  22393  22669  23155
1ACMD     (ACMD4072) (12:39) (15MAR04) Ordinary Symbol and Literal Cross Reference                                          Page  235
 =Y((12+3)/4*4)
               2 00004DCC 00000001     Y   27029 23549  23739  23910  26341  26459  26905
 =Y((12+3)/4*4)
               2 0000555A 00000001     Y   28619 27731
 =Y((12+3)/4*4)
               2 00005F5C 00000001     Y   30583 29704  29780
 =Y((12+3)/4*4)
               2 0000658C 00000001     Y   31905 30787  30868  31063
 =Y((12+3)/4*4)
               2 00008384 00000001     Y   38233 35329  35381
 =Y((12+3)/4*4)
               2 000094F6 00000001     Y   43536 43070
 =Y((12+3)/4*4)
               2 0000B05C 00000001     Y   52378 49129
 =Y((12+3)/4*4)
               2 0000B5CC 00000001     Y   53276 52487  52589  53152
 =Y((12+3)/4*4)
               2 0000C332 00000001     Y   56939 54975  55029  56010
 =Y((30+3)/4*4)
               2 00004DD0 00000001     Y   27031 24028
 =Y((30+3)/4*4)
               2 00005F5A 00000001     Y   30582 29414
 =Y((64+3)/4*4)
               2 0000A3E0 00000001     Y   48962 48772
 =Y((8+3)/4*4)
               2 00006592 00000001     Y   31908 31101
 =Y((8+3)/4*4)
               2 00006B58 00000001     Y   33757 33013
 =Y(4)         2 0000BAC4 00000001     Y   54610 54451

1ACMD     (ACMD4072) (12:39) (15MAR04) Macro and Copy Code Source Summary                                                   Page  236
- Con Source                                        Volume    Members                        HLASM R4.0  2004/03/15 12.39
0     PRIMARY INPUT                                           CSECT    DROP     END      EX       LTORG    POP
                                                              PRINT    PUSH     SETWCH   SETWPASS START    USING
   L1 WYL.GS.WYL.WYLBUR.MACLIB                      SYSB05    ABORT    AINFO    BASE     BTD      BTR      BTX
                                                              COLINFO  COMMENT  CONTROL  CP       CPLOCAL  CV
                                                              CVLOCAL  DELAY    DTB      ERROR    JCB      KREAD
                                                              KWRITE   RG       RTNCODES SCAN     SCANCB   SCANCHK
                                                              SCANSTR  SCBKUP   SCCBADR  SCINFO   SCINIT   SCKW
                                                              SCPOP    SCPUSH   SCRSTR   SCSAVE   SCUPCASE SCUPTOK  TCCR
                                                              TCNTL    TCR      TNUM     TREAD    TSEG     TTYPE
                                                              TWRITE   UCE      VLTORG   XTRACE   XWTO
   L2 WYL.GG.SYS.MACLIB                             SYSB05    $BC      $BFLKUP  $BV      $CCLKUP  $CRS     $CSS     $L
                                                              $LA      $LBLAD   $LEXP    $LOR     $REL     $RGLKUP
                                                              $USLKUP  ACALL    BEGIN    CEIL     CLEAR    COMPROC
                                                              CSECT    DATA     DECR     DEFCC    DEX      DROP     DTEX
                                                              ELSE     ELSEIF   END      EX       FLAG     FLOOR    GEN
                                                              HIBAL    IDENT    IF       INCR     LABEL    LC       LCM
                                                              LOOP     LS       LTH      LTORG    L2       L3       L4
                                                              MOVE     MOVEL    PEND     POP      PRETURN  PRINT    PROC
                                                              PUSH     QLTORG   RECORD   REG      REGS     SET
                                                              SETMSG   START    ST3      SYSLR    UNTIL    USING
                                                              VCALL    WHILE    WITH     XPROC
   L3 SYS3.IS.MACLIB                                SYSB05    KRB      KWR      PDB      SEG      SEGCB    SEGCR
                                                              SEGDC    SEGLD    SEGWR    SIB      SMFACCT  SMFHDR
                                                              SMFKWR   SYSDEFN  XPOP     XPUSH
   L4 SYS3.MACLIB                                   SYSB02    HASPSERV UTYPDEFN

1ACMD     (ACMD4072) (12:39) (15MAR04) Dsect Cross Reference                                                                Page  237
-Dsect     Length      Id       Defn                                                         HLASM R4.0  2004/03/15 12.39
0$$$@R0   00000000  FFFFFFFE     705
 $$$@R1   00000000  FFFFFFFD     718
 $$$@R10  00000000  FFFFFFF4     835
 $$$@R11  00000000  FFFFFFF3     848
 $$$@R12  00000000  FFFFFFF2     861
 $$$@R13  00000000  FFFFFFF1     874
 $$$@R14  00000000  FFFFFFF0     887
 $$$@R15  00000000  FFFFFFEF     900
 $$$@R2   00000000  FFFFFFFC     731
 $$$@R3   00000000  FFFFFFFB     744
 $$$@R4   00000000  FFFFFFFA     757
 $$$@R5   00000000  FFFFFFF9     770
 $$$@R6   00000000  FFFFFFF8     783
 $$$@R7   00000000  FFFFFFF7     796
 $$$@R8   00000000  FFFFFFF6     809
 $$$@R9   00000000  FFFFFFF5     822
 $$$RCP   00001000  FFFFFFEC    2456
 $$$RCV   00000FB0  FFFFFFEE    1181
 $$$RDEV  0000000C  FFFFFFEB    4670
 $$$RGETCWA
          000000B0  FFFFFFDB   53048
 $$$RJCB  000000D0  FFFFFFE7    7259
 $$$RKEYWA
          000002B8  FFFFFFDE   27601
 $$$RKLGCMPWA
          00000084  FFFFFFDA   53996
 $$$RKRBREC
          00000012  FFFFFFE2    7736
 $$$RNSCNCB
          000000B0  FFFFFFED    2377
 $$$RPRIVWA
          000002F8  FFFFFFDC   30604
 $$$RSETWWA
          00000018  FFFFFFE0   10748
 $$$RSMFACCT
          00000062  FFFFFFE4    7639
 $$$RSMFHDR
          00000038  FFFFFFE5    7595
 $$$RSMFKWR
          00000130  FFFFFFE3    7686
 $$$RSMFWA
          00000008  FFFFFFDD   29589
 $$$RTTYPE
          0000010C  FFFFFFEA    6201
 $$$RUCE  00000064  FFFFFFE6    7539
 $$$RWA   000002B0  FFFFFFE1    7767
 $$$RWCWA 0000001C  FFFFFFDF   25864
 $$$R42   000000FE  FFFFFFE9    6308
 $$$R51   00000038  FFFFFFE8    7007
 HIBAL    00000000  FFFFFFFF     691

1ACMD     (ACMD4072) (12:39) (15MAR04) Using Map                                                                            Page  238
-                                                                                            HLASM R4.0  2004/03/15 12.39
   Stmt  -----Location----- Action ----------------Using----------------- Reg Max    Last  Label and Using Text
           Count      Id           Type          Value    Range     Id        Disp   Stmt
0   922  00000000  FFFFFFFF USING  ORDINARY    00000000 00001000 FFFFFFEF  15 000   20297  @R15,15
    926  00000000  FFFFFFFF USING  ORDINARY    00000000 00001000 FFFFFFF0  14 002   53222  @R14,14
    930  00000000  FFFFFFFF USING  ORDINARY    00000000 00001000 FFFFFFF1  13 000   56249  @R13,13
    934  00000000  FFFFFFFF USING  ORDINARY    00000000 00001000 FFFFFFF2  12 000          @R12,12
    938  00000000  FFFFFFFF USING  ORDINARY    00000000 00001000 FFFFFFF3  11 000          @R11,11
    942  00000000  FFFFFFFF USING  ORDINARY    00000000 00001000 FFFFFFF4  10 000          @R10,10
    946  00000000  FFFFFFFF USING  ORDINARY    00000000 00001000 FFFFFFF5   9 000          @R9,9
    950  00000000  FFFFFFFF USING  ORDINARY    00000000 00001000 FFFFFFF6   8 000          @R8,8
    954  00000000  FFFFFFFF USING  ORDINARY    00000000 00001000 FFFFFFF7   7 000          @R7,7
    958  00000000  FFFFFFFF USING  ORDINARY    00000000 00001000 FFFFFFF8   6 000          @R6,6
    962  00000000  FFFFFFFF USING  ORDINARY    00000000 00001000 FFFFFFF9   5 000          @R5,5
    966  00000000  FFFFFFFF USING  ORDINARY    00000000 00001000 FFFFFFFA   4 000          @R4,4
    970  00000000  FFFFFFFF USING  ORDINARY    00000000 00001000 FFFFFFFB   3 008   32997  @R3,3
    974  00000000  FFFFFFFF USING  ORDINARY    00000000 00001000 FFFFFFFC   2 000          @R2,2
    978  00000000  FFFFFFFF USING  ORDINARY    00000000 00001000 FFFFFFFD   1 004   23606  @R1,1
    982  00000000  FFFFFFFF USING  ORDINARY    00000000 00001000 FFFFFFFE   0 000          @R0,0
    983  00000000  FFFFFFFF DROP                                            0              0
   1165  00000017  00000001 USING  ORDINARY    00000000 00001000 FFFFFFEC  11 D5A   56873  CP,CPR
   1174  00000017  00000001 USING  ORDINARY    00000000 00001000 FFFFFFEE  12 BFC   56753  CV,CVR
   8071  00000032  00000001 USING  ORDINARY    00000032 00001000 00000001   7 848    8347  $$$53B,7
   8085  00000032  00000001 USING  ORDINARY    FFFFFFD8 00001000 FFFFFFE1   8 228    8099  WA-(4+36),R8
   8107  00000048  00000001 USING  ORDINARY    00000000 00001000 FFFFFFE1   5 200    8365  WA,R5
   8374  0000014C  00000001 USING  ORDINARY    00000000 00001000 FFFFFFF6   8 000          @R8,8
   8379  0000014C  00000001 USING  ORDINARY    00000000 00001000 FFFFFFF7   7 000          @R7,7
   8399  0000015A  00000001 USING  ORDINARY    00000000 00001000 FFFFFFF9   5 000          @R5,5
   8458  0000019E  00000001 USING  ORDINARY    0000019E 00001000 00000001   7 666    8573  $$$67B,7
   8472  0000019E  00000001 USING  ORDINARY    FFFFFFD8 00001000 FFFFFFE1   8 228    8486  WA-(4+36),R8
   8494  000001B4  00000001 USING  ORDINARY    00000000 00001000 FFFFFFE1   5 100    8582  WA,R5
   8591  00000204  00000001 USING  ORDINARY    00000000 00001000 FFFFFFF6   8 000          @R8,8
   8596  00000204  00000001 USING  ORDINARY    00000000 00001000 FFFFFFF7   7 000          @R7,7
   8616  00000212  00000001 USING  ORDINARY    00000000 00001000 FFFFFFF9   5 000          @R5,5
   8657  0000022C  00000001 USING  ORDINARY    0000022C 00001000 00000001   7 5DC    8769  $$$71B,7
   8671  0000022C  00000001 USING  ORDINARY    FFFFFFD8 00001000 FFFFFFE1   8 228    8712  WA-(4+36),R8
   8720  00000256  00000001 USING  ORDINARY    00000000 00001000 FFFFFFE1   5 000          WA,R5
   8789  0000028A  00000001 USING  ORDINARY    00000000 00001000 FFFFFFF6   8 000          @R8,8
   8794  0000028A  00000001 USING  ORDINARY    00000000 00001000 FFFFFFF7   7 000          @R7,7
   8814  00000298  00000001 USING  ORDINARY    00000000 00001000 FFFFFFF9   5 000          @R5,5
   8852  000002B2  00000001 USING  ORDINARY    000002B2 00001000 00000001   7 5E5    8898  $$$77B,7
   8907  000002DC  00000001 USING  ORDINARY    00000000 00001000 FFFFFFF7   7 000          @R7,7
   8959  00000304  00000001 USING  ORDINARY    00000304 00001000 00000001   7 552    9138  $$$81B,7
   8973  00000304  00000001 USING  ORDINARY    FFFFFFD8 00001000 FFFFFFE1   8 228    8987  WA-(4+36),R8
   8995  0000031A  00000001 USING  ORDINARY    00000000 00001000 FFFFFFE1   5 200   10259  WA,R5
   9156  000003D4  00000001 USING  ORDINARY    00000000 00001000 FFFFFFF6   8 000          @R8,8
   9161  000003D4  00000001 USING  ORDINARY    00000000 00001000 FFFFFFF7   7 000          @R7,7
   9315  00000516  00000001 USING  ORDINARY    00000516 00001000 00000001   7 3BE    9862  $$$90B,7
   9896  000006A6  00000001 USING  ORDINARY    00000000 00001000 FFFFFFF7   7 000          @R7,7
   9941  000006CE  00000001 USING  ORDINARY    000006CE 00001000 00000001   7 000          $$$120B,7
   9963  000006D4  00000001 USING  ORDINARY    00000000 00001000 FFFFFFF7   7 000          @R7,7
  10008  000006FC  00000001 USING  ORDINARY    000006FC 00001000 00000001   7 000          $$$123B,7
  10030  00000700  00000001 USING  ORDINARY    00000000 00001000 FFFFFFF7   7 000          @R7,7
  10075  00000728  00000001 USING  ORDINARY    00000728 00001000 00000001   7 000          $$$127B,7
  10098  0000072C  00000001 USING  ORDINARY    00000000 00001000 FFFFFFF7   7 000          @R7,7
  10143  00000754  00000001 USING  ORDINARY    00000754 00001000 00000001   7 186   10247  $$$131B,7
1ACMD     (ACMD4072) (12:39) (15MAR04) Using Map                                                                            Page  239
  10274  00000796  00000001 USING  ORDINARY    00000000 00001000 FFFFFFF7   7 000          @R7,7
  10295  000007A4  00000001 USING  ORDINARY    00000000 00001000 FFFFFFF9   5 000          @R5,5
  10379  000008FA  00000001 USING  ORDINARY    000008FA 00001000 00000001   7 73C   10695  $$$140B,7
  10396  000008FC  00000001 USING  ORDINARY    00000000 00001000 FFFFFFE1   6 102   10605  KWR,R6
  10704  000009CA  00000001 USING  ORDINARY    00000000 00001000 FFFFFFF7   7 000          @R7,7
  10724  000009D8  00000001 USING  ORDINARY    00000000 00001000 FFFFFFF8   6 000          @R6,6
  10799  000009F2  00000001 USING  ORDINARY    000009F2 00001000 00000001   7 6F3   11701  $$$149B,7
  10813  000009F2  00000001 USING  ORDINARY    FFFFFFD8 00001000 FFFFFFE0   8 028   10817  SETWWA-(4+36),R8
  10825  000009F6  00000001 USING  ORDINARY    00000000 00001000 FFFFFFE0   6 010   11826  SETWWA,R6
  11722  00000CA4  00000001 USING  ORDINARY    00000000 00001000 FFFFFFF6   8 000          @R8,8
  11727  00000CA4  00000001 USING  ORDINARY    00000000 00001000 FFFFFFF7   7 000          @R7,7
  11806  00000D1E  00000001 USING  ORDINARY    00000D1E 00001000 00000001   7 26A   11834  $$$189B,7
  11842  00000D30  00000001 USING  ORDINARY    00000000 00001000 FFFFFFF7   7 000          @R7,7
  11862  00000D3E  00000001 USING  ORDINARY    00000000 00001000 FFFFFFF8   6 000          @R6,6
  11900  00000D58  00000001 USING  ORDINARY    00000D58 00001000 00000001   7 3B1   12008  $$$192B,7
  12023  00000DA6  00000001 USING  ORDINARY    00000000 00001000 FFFFFFF7   7 000          @R7,7
  12077  00000DCE  00000001 USING  ORDINARY    00000DCE 00001000 00000001   7 1D2   12103  $$$197B,7
  12114  00000DF0  00000001 USING  ORDINARY    00000000 00001000 FFFFFFF7   7 000          @R7,7
  12250  00001138  00000001 USING  ORDINARY    00001138 00001000 00000001   7 DCA   12421  $$$200B,7
  12264  00001138  00000001 USING  ORDINARY    FFFFFFD8 00001000 FFFFFFE1   8 228   12278  WA-(4+36),R8
  12286  0000114E  00000001 USING  ORDINARY    00000000 00001000 FFFFFFE1   5 200   14410  WA,R5
  12439  00001216  00000001 USING  ORDINARY    00000000 00001000 FFFFFFF6   8 000          @R8,8
  12444  00001216  00000001 USING  ORDINARY    00000000 00001000 FFFFFFF7   7 000          @R7,7
  13065  0000182E  00000001 USING  ORDINARY    0000182E 00001000 00000001   7 000          $$$207B,7
  13091  00001836  00000001 USING  ORDINARY    00000000 00001000 FFFFFFF7   7 000          @R7,7
  13136  0000185E  00000001 USING  ORDINARY    0000185E 00001000 00000001   7 000          $$$211B,7
  13163  00001866  00000001 USING  ORDINARY    00000000 00001000 FFFFFFF7   7 000          @R7,7
  13208  0000188E  00000001 USING  ORDINARY    0000188E 00001000 00000001   7 650   13489  $$$215B,7
  13506  0000197C  00000001 USING  ORDINARY    00000000 00001000 FFFFFFF7   7 000          @R7,7
  13551  000019A4  00000001 USING  ORDINARY    000019A4 00001000 00000001   7 000          $$$226B,7
  13577  000019AC  00000001 USING  ORDINARY    00000000 00001000 FFFFFFF7   7 000          @R7,7
  13622  000019D4  00000001 USING  ORDINARY    000019D4 00001000 00000001   7 000          $$$230B,7
  13649  000019DC  00000001 USING  ORDINARY    00000000 00001000 FFFFFFF7   7 000          @R7,7
  13694  00001A04  00000001 USING  ORDINARY    00001A04 00001000 00000001   7 000          $$$234B,7
  13720  00001A0C  00000001 USING  ORDINARY    00000000 00001000 FFFFFFF7   7 000          @R7,7
  13765  00001A34  00000001 USING  ORDINARY    00001A34 00001000 00000001   7 000          $$$238B,7
  13792  00001A3C  00000001 USING  ORDINARY    00000000 00001000 FFFFFFF7   7 000          @R7,7
  13837  00001A64  00000001 USING  ORDINARY    00001A64 00001000 00000001   7 000          $$$242B,7
  13878  00001A74  00000001 USING  ORDINARY    00000000 00001000 FFFFFFF7   7 000          @R7,7
  13923  00001A9C  00000001 USING  ORDINARY    00001A9C 00001000 00000001   7 000          $$$248B,7
  13964  00001AAC  00000001 USING  ORDINARY    00000000 00001000 FFFFFFF7   7 000          @R7,7
  14009  00001AD4  00000001 USING  ORDINARY    00001AD4 00001000 00000001   7 000          $$$254B,7
  14046  00001AE0  00000001 USING  ORDINARY    00000000 00001000 FFFFFFF7   7 000          @R7,7
  14091  00001B08  00000001 USING  ORDINARY    00001B08 00001000 00000001   7 000          $$$260B,7
  14129  00001B14  00000001 USING  ORDINARY    00000000 00001000 FFFFFFF7   7 000          @R7,7
  14175  00001B3C  00000001 USING  ORDINARY    00001B3C 00001000 00000001   7 000          $$$266B,7
  14201  00001B44  00000001 USING  ORDINARY    00000000 00001000 FFFFFFF7   7 000          @R7,7
  14246  00001B6C  00000001 USING  ORDINARY    00001B6C 00001000 00000001   7 000          $$$270B,7
  14273  00001B74  00000001 USING  ORDINARY    00000000 00001000 FFFFFFF7   7 000          @R7,7
  14319  00001B9C  00000001 USING  ORDINARY    00001B9C 00001000 00000001   7 000          $$$274B,7
  14345  00001BA4  00000001 USING  ORDINARY    00000000 00001000 FFFFFFF7   7 000          @R7,7
  14390  00001BCC  00000001 USING  ORDINARY    00001BCC 00001000 00000001   7 000          $$$278B,7
  14417  00001BD4  00000001 USING  ORDINARY    00000000 00001000 FFFFFFF7   7 000          @R7,7
  14438  00001BE2  00000001 USING  ORDINARY    00000000 00001000 FFFFFFF9   5 000          @R5,5
  14478  00001BFC  00000001 USING  ORDINARY    00001BFC 00001000 00000001   7 2E0   14535  $$$282B,7
  14492  00001BFC  00000001 USING  ORDINARY    FFFFFFD8 00001000 FFFFFFE1   8 228   14506  WA-(4+36),R8
  14514  00001C12  00000001 USING  ORDINARY    00000000 00001000 FFFFFFE1   5 100   14544  WA,R5
  14553  00001C48  00000001 USING  ORDINARY    00000000 00001000 FFFFFFF6   8 000          @R8,8
  14558  00001C48  00000001 USING  ORDINARY    00000000 00001000 FFFFFFF7   7 000          @R7,7
1ACMD     (ACMD4072) (12:39) (15MAR04) Using Map                                                                            Page  240
  14578  00001C56  00000001 USING  ORDINARY    00000000 00001000 FFFFFFF9   5 000          @R5,5
  14620  00001C70  00000001 USING  ORDINARY    00001C70 00001000 00000001   7 2FA   15391  $$$285B,7
  14637  00001C72  00000001 USING  ORDINARY    00000000 00001000 FFFFFFE1   6 152   15335  KWR,R6
  15400  00001E68  00000001 USING  ORDINARY    00000000 00001000 FFFFFFF7   7 000          @R7,7
  15420  00001E76  00000001 USING  ORDINARY    00000000 00001000 FFFFFFF8   6 000          @R6,6
  15512  00001F92  00000001 USING  ORDINARY    00001F92 00001000 00000001   7 F84   15664  $$$314B,7
  15526  00001F92  00000001 USING  ORDINARY    FFFFFFD8 00001000 FFFFFFE1   8 228   15540  WA-(4+36),R8
  15548  00001FA8  00000001 USING  ORDINARY    00000000 00001000 FFFFFFE1   5 200   16265  WA,R5
  15688  00002056  00000001 USING  ORDINARY    00000000 00001000 FFFFFFF6   8 000          @R8,8
  15693  00002056  00000001 USING  ORDINARY    00000000 00001000 FFFFFFF7   7 000          @R7,7
  15876  000021E6  00000001 USING  ORDINARY    000021E6 00001000 00000001   7 000          $$$321B,7
  15904  000021EE  00000001 USING  ORDINARY    00000000 00001000 FFFFFFF7   7 000          @R7,7
  15949  00002216  00000001 USING  ORDINARY    00002216 00001000 00000001   7 000          $$$325B,7
  15978  0000221E  00000001 USING  ORDINARY    00000000 00001000 FFFFFFF7   7 000          @R7,7
  16023  00002246  00000001 USING  ORDINARY    00002246 00001000 00000001   7 000          $$$329B,7
  16051  0000224E  00000001 USING  ORDINARY    00000000 00001000 FFFFFFF7   7 000          @R7,7
  16096  00002276  00000001 USING  ORDINARY    00002276 00001000 00000001   7 000          $$$333B,7
  16125  0000227E  00000001 USING  ORDINARY    00000000 00001000 FFFFFFF7   7 000          @R7,7
  16170  000022A6  00000001 USING  ORDINARY    000022A6 00001000 00000001   7 000          $$$337B,7
  16198  000022AE  00000001 USING  ORDINARY    00000000 00001000 FFFFFFF7   7 000          @R7,7
  16243  000022D6  00000001 USING  ORDINARY    000022D6 00001000 00000001   7 000          $$$341B,7
  16272  000022DE  00000001 USING  ORDINARY    00000000 00001000 FFFFFFF7   7 000          @R7,7
  16293  000022EC  00000001 USING  ORDINARY    00000000 00001000 FFFFFFF9   5 000          @R5,5
  16333  00002306  00000001 USING  ORDINARY    00002306 00001000 00000001   7 CD6   17078  $$$345B,7
  16347  00002306  00000001 USING  ORDINARY    FFFFFFD8 00001000 FFFFFFE1   8 228   16361  WA-(4+36),R8
  16369  0000231C  00000001 USING  ORDINARY    00000000 00001000 FFFFFFE1   5 102   17088  WA,R5
  17097  00002544  00000001 USING  ORDINARY    00000000 00001000 FFFFFFF6   8 000          @R8,8
  17102  00002544  00000001 USING  ORDINARY    00000000 00001000 FFFFFFF7   7 000          @R7,7
  17122  00002552  00000001 USING  ORDINARY    00000000 00001000 FFFFFFF9   5 000          @R5,5
  17162  0000256C  00000001 USING  ORDINARY    0000256C 00001000 00000001   7 9AA   17388  $$$361B,7
  17176  0000256C  00000001 USING  ORDINARY    FFFFFFD8 00001000 FFFFFFE1   8 228   17190  WA-(4+36),R8
  17198  00002582  00000001 USING  ORDINARY    00000000 00001000 FFFFFFE1   5 200   17768  WA,R5
  17411  00002656  00000001 USING  ORDINARY    00000000 00001000 FFFFFFF6   8 000          @R8,8
  17416  00002656  00000001 USING  ORDINARY    00000000 00001000 FFFFFFF7   7 000          @R7,7
  17554  0000276E  00000001 USING  ORDINARY    0000276E 00001000 00000001   7 7A6   17569  $$$373B,7
  17576  00002778  00000001 USING  ORDINARY    00000000 00001000 FFFFFFF7   7 000          @R7,7
  17621  000027A0  00000001 USING  ORDINARY    000027A0 00001000 00000001   7 024   17683  $$$376B,7
  17705  000027CA  00000001 USING  ORDINARY    00000000 00001000 FFFFFFF7   7 000          @R7,7
  17750  000027F2  00000001 USING  ORDINARY    000027F2 00001000 00000001   7 000          $$$382B,7
  17775  000027FA  00000001 USING  ORDINARY    00000000 00001000 FFFFFFF7   7 000          @R7,7
  17796  00002808  00000001 USING  ORDINARY    00000000 00001000 FFFFFFF9   5 000          @R5,5
  17836  00002822  00000001 USING  ORDINARY    00002822 00001000 00000001   7 816   18183  $$$385B,7
  17850  00002822  00000001 USING  ORDINARY    FFFFFFD8 00001000 FFFFFFE1   8 228   17864  WA-(4+36),R8
  17872  00002838  00000001 USING  ORDINARY    00000000 00001000 FFFFFFE1   5 100   18197  WA,R5
  18206  00002944  00000001 USING  ORDINARY    00000000 00001000 FFFFFFF6   8 000          @R8,8
  18211  00002944  00000001 USING  ORDINARY    00000000 00001000 FFFFFFF7   7 000          @R7,7
  18231  00002952  00000001 USING  ORDINARY    00000000 00001000 FFFFFFF9   5 000          @R5,5
  18271  0000296C  00000001 USING  ORDINARY    0000296C 00001000 00000001   7 6CD   18442  $$$394B,7
  18285  0000296C  00000001 USING  ORDINARY    FFFFFFD8 00001000 FFFFFFE1   8 228   18299  WA-(4+36),R8
  18307  00002982  00000001 USING  ORDINARY    00000000 00001000 FFFFFFE1   5 200   18754  WA,R5
  18460  00002A4A  00000001 USING  ORDINARY    00000000 00001000 FFFFFFF6   8 000          @R8,8
  18465  00002A4A  00000001 USING  ORDINARY    00000000 00001000 FFFFFFF7   7 000          @R7,7
  18663  00002C02  00000001 USING  ORDINARY    00002C02 00001000 00000001   7 000          $$$401B,7
  18689  00002C0A  00000001 USING  ORDINARY    00000000 00001000 FFFFFFF7   7 000          @R7,7
  18734  00002C32  00000001 USING  ORDINARY    00002C32 00001000 00000001   7 000          $$$405B,7
  18761  00002C3A  00000001 USING  ORDINARY    00000000 00001000 FFFFFFF7   7 000          @R7,7
  18781  00002C48  00000001 USING  ORDINARY    00000000 00001000 FFFFFFF9   5 000          @R5,5
  18821  00002C62  00000001 USING  ORDINARY    00002C62 00001000 00000001   7 28E   18899  $$$409B,7
  18835  00002C62  00000001 USING  ORDINARY    FFFFFFD8 00001000 FFFFFFE1   8 228   18849  WA-(4+36),R8
1ACMD     (ACMD4072) (12:39) (15MAR04) Using Map                                                                            Page  241
  18857  00002C78  00000001 USING  ORDINARY    00000000 00001000 FFFFFFE1   5 100   18908  WA,R5
  18917  00002CBA  00000001 USING  ORDINARY    00000000 00001000 FFFFFFF6   8 000          @R8,8
  18922  00002CBA  00000001 USING  ORDINARY    00000000 00001000 FFFFFFF7   7 000          @R7,7
  18942  00002CC8  00000001 USING  ORDINARY    00000000 00001000 FFFFFFF9   5 000          @R5,5
  18984  00002CE2  00000001 USING  ORDINARY    00002CE2 00001000 00000001   7 380   19400  $$$413B,7
  19001  00002CE4  00000001 USING  ORDINARY    00000000 00001000 FFFFFFE1   6 04E   19336  KWR,R6
  19409  00002E02  00000001 USING  ORDINARY    00000000 00001000 FFFFFFF7   7 000          @R7,7
  19429  00002E10  00000001 USING  ORDINARY    00000000 00001000 FFFFFFF8   6 000          @R6,6
  19536  00003082  00000001 USING  ORDINARY    00003082 00001000 00000001   7 AF8   19707  $$$423B,7
  19550  00003082  00000001 USING  ORDINARY    FFFFFFD8 00001000 FFFFFFE1   8 228   19564  WA-(4+36),R8
  19572  00003098  00000001 USING  ORDINARY    00000000 00001000 FFFFFFE1   5 200   21382  WA,R5
  19725  00003160  00000001 USING  ORDINARY    00000000 00001000 FFFFFFF6   8 000          @R8,8
  19730  00003160  00000001 USING  ORDINARY    00000000 00001000 FFFFFFF7   7 000          @R7,7
  19992  000033BA  00000001 USING  ORDINARY    000033BA 00001000 00000001   7 000          $$$430B,7
  20018  000033C2  00000001 USING  ORDINARY    00000000 00001000 FFFFFFF7   7 000          @R7,7
  20063  000033EA  00000001 USING  ORDINARY    000033EA 00001000 00000001   7 000          $$$434B,7
  20090  000033F2  00000001 USING  ORDINARY    00000000 00001000 FFFFFFF7   7 000          @R7,7
  20135  0000341A  00000001 USING  ORDINARY    0000341A 00001000 00000001   7 000          $$$438B,7
  20161  00003422  00000001 USING  ORDINARY    00000000 00001000 FFFFFFF7   7 000          @R7,7
  20206  0000344A  00000001 USING  ORDINARY    0000344A 00001000 00000001   7 000          $$$442B,7
  20233  00003452  00000001 USING  ORDINARY    00000000 00001000 FFFFFFF7   7 000          @R7,7
  20278  0000347A  00000001 USING  ORDINARY    0000347A 00001000 00000001   7 752   20368  $$$446B,7
  20381  000034C6  00000001 USING  ORDINARY    00000000 00001000 FFFFFFF7   7 000          @R7,7
  20426  000034EE  00000001 USING  ORDINARY    000034EE 00001000 00000001   7 000          $$$451B,7
  20454  000034F8  00000001 USING  ORDINARY    00000000 00001000 FFFFFFF7   7 000          @R7,7
  20499  00003520  00000001 USING  ORDINARY    00003520 00001000 00000001   7 014   20525  $$$454B,7
  20542  00003534  00000001 USING  ORDINARY    00000000 00001000 FFFFFFF7   7 000          @R7,7
  20588  0000355C  00000001 USING  ORDINARY    0000355C 00001000 00000001   7 620   20678  $$$458B,7
  20686  000035E6  00000001 USING  ORDINARY    00000000 00001000 FFFFFFF7   7 000          @R7,7
  20852  0000374E  00000001 USING  ORDINARY    0000374E 00001000 00000001   7 430   20865  $$$462B,7
  20874  0000375A  00000001 USING  ORDINARY    00000000 00001000 FFFFFFF7   7 000          @R7,7
  20919  00003782  00000001 USING  ORDINARY    00003782 00001000 00000001   7 000          $$$465B,7
  20941  00003786  00000001 USING  ORDINARY    00000000 00001000 FFFFFFF7   7 000          @R7,7
  20986  000037AE  00000001 USING  ORDINARY    000037AE 00001000 00000001   7 000          $$$469B,7
  21008  000037B2  00000001 USING  ORDINARY    00000000 00001000 FFFFFFF7   7 000          @R7,7
  21053  000037DA  00000001 USING  ORDINARY    000037DA 00001000 00000001   7 000          $$$473B,7
  21075  000037DE  00000001 USING  ORDINARY    00000000 00001000 FFFFFFF7   7 000          @R7,7
  21120  00003806  00000001 USING  ORDINARY    00003806 00001000 00000001   7 38A   21175  $$$477B,7
  21184  0000382E  00000001 USING  ORDINARY    00000000 00001000 FFFFFFF7   7 000          @R7,7
  21229  00003856  00000001 USING  ORDINARY    00003856 00001000 00000001   7 000          $$$480B,7
  21244  00003856  00000001 USING  ORDINARY    00000000 00001000 FFFFFFF7   7 000          @R7,7
  21291  0000387E  00000001 USING  ORDINARY    0000387E 00001000 00000001   7 000          $$$483B,7
  21317  00003886  00000001 USING  ORDINARY    00000000 00001000 FFFFFFF7   7 000          @R7,7
  21362  000038AE  00000001 USING  ORDINARY    000038AE 00001000 00000001   7 000          $$$487B,7
  21389  000038B6  00000001 USING  ORDINARY    00000000 00001000 FFFFFFF7   7 000          @R7,7
  21410  000038C4  00000001 USING  ORDINARY    00000000 00001000 FFFFFFF9   5 000          @R5,5
  21450  000038DE  00000001 USING  ORDINARY    000038DE 00001000 00000001   7 29A   21507  $$$491B,7
  21464  000038DE  00000001 USING  ORDINARY    FFFFFFD8 00001000 FFFFFFE1   8 228   21478  WA-(4+36),R8
  21486  000038F4  00000001 USING  ORDINARY    00000000 00001000 FFFFFFE1   5 100   21516  WA,R5
  21525  0000392A  00000001 USING  ORDINARY    00000000 00001000 FFFFFFF6   8 000          @R8,8
  21530  0000392A  00000001 USING  ORDINARY    00000000 00001000 FFFFFFF7   7 000          @R7,7
  21550  00003938  00000001 USING  ORDINARY    00000000 00001000 FFFFFFF9   5 000          @R5,5
  21592  00003952  00000001 USING  ORDINARY    00003952 00001000 00000001   7 2C0   22135  $$$494B,7
  21609  00003954  00000001 USING  ORDINARY    00000000 00001000 FFFFFFE1   6 040   22079  KWR,R6
  21866  00003A12  00000001 DROP                                           15              15
  21870  00003A18  00000001 USING  ORDINARY    00000000 00001000 FFFFFFEF  15 000          @R15,15
  21934  00003A40  00000001 DROP                                           15              15
  21938  00003A46  00000001 USING  ORDINARY    00000000 00001000 FFFFFFEF  15 000   23774  @R15,15
  22144  00003AD8  00000001 USING  ORDINARY    00000000 00001000 FFFFFFF7   7 000          @R7,7
1ACMD     (ACMD4072) (12:39) (15MAR04) Using Map                                                                            Page  242
  22164  00003AE6  00000001 USING  ORDINARY    00000000 00001000 FFFFFFF8   6 000   23258  @R6,6
  22261  00003C3A  00000001 USING  ORDINARY    00003C3A 00001000 00000001   7 502   22411  $$$510B,7
  22275  00003C3A  00000001 USING  ORDINARY    FFFFFFD8 00001000 FFFFFFE1   8 228   22289  WA-(4+36),R8
  22297  00003C50  00000001 USING  ORDINARY    00000000 00001000 FFFFFFE1   5 200   22554  WA,R5
  22429  00003D44  00000001 USING  ORDINARY    00000000 00001000 FFFFFFF6   8 000          @R8,8
  22434  00003D44  00000001 USING  ORDINARY    00000000 00001000 FFFFFFF7   7 000          @R7,7
  22541  00003E0E  00000001 USING  ORDINARY    00003E0E 00001000 00000001   7 2F2   22565  $$$513B,7
  22574  00003E22  00000001 USING  ORDINARY    00000000 00001000 FFFFFFF7   7 000          @R7,7
  22595  00003E30  00000001 USING  ORDINARY    00000000 00001000 FFFFFFF9   5 000          @R5,5
  22633  00003E4A  00000001 USING  ORDINARY    00003E4A 00001000 00000001   7 314   22864  $$$516B,7
  22884  00003F1C  00000001 USING  ORDINARY    00000000 00001000 FFFFFFF7   7 000          @R7,7
  22934  00003F44  00000001 USING  ORDINARY    00003F44 00001000 00000001   7 1FA   23030  $$$527B,7
  23044  00003F88  00000001 USING  ORDINARY    00000000 00001000 FFFFFFF7   7 000          @R7,7
  23094  00003FB0  00000001 USING  ORDINARY    00003FB0 00001000 00000001   7 1AE   23246  $$$533B,7
  23267  00004054  00000001 USING  ORDINARY    00000000 00001000 FFFFFFF7   7 000          @R7,7
  23317  0000407C  00000001 USING  ORDINARY    0000407C 00001000 00000001   7 0D0   23413  $$$540B,7
  23427  000040C0  00000001 USING  ORDINARY    00000000 00001000 FFFFFFF7   7 000          @R7,7
  23513  00004196  00000001 USING  ORDINARY    00004196 00001000 00000001   7 C58   23601  $$$546B,7
  23619  00004218  00000001 USING  ORDINARY    00000000 00001000 FFFFFFF7   7 000          @R7,7
  23671  00004240  00000001 USING  ORDINARY    00004240 00001000 00000001   7 C49   25694  $$$551B,7
  23685  00004240  00000001 USING  ORDINARY    FFFFFFD8 00001000 FFFFFFE1   8 228   23699  WA-(4+36),R8
  23707  00004256  00000001 USING  ORDINARY    00000000 00001000 FFFFFFE1   5 100   25708  WA,R5
  24243  00004452  00000001 DROP                                           15              15
  24247  00004458  00000001 USING  ORDINARY    00000000 00001000 FFFFFFEF  15 000          @R15,15
  24295  00004482  00000001 DROP                                           15              15
  24299  00004488  00000001 USING  ORDINARY    00000000 00001000 FFFFFFEF  15 000          @R15,15
  24325  000044A0  00000001 DROP                                           15              15
  24329  000044A6  00000001 USING  ORDINARY    00000000 00001000 FFFFFFEF  15 000          @R15,15
  24389  000044DA  00000001 DROP                                           15              15
  24393  000044E0  00000001 USING  ORDINARY    00000000 00001000 FFFFFFEF  15 000          @R15,15
  24420  000044EC  00000001 DROP                                            2              2
  24424  000044F2  00000001 USING  ORDINARY    00000000 00001000 FFFFFFFC   2 000          @R2,2
  25201  000046D0  00000001 DROP                                           15              15
  25205  000046D6  00000001 USING  ORDINARY    00000000 00001000 FFFFFFEF  15 000          @R15,15
  25251  000046EE  00000001 DROP                                           15              15
  25255  000046F4  00000001 USING  ORDINARY    00000000 00001000 FFFFFFEF  15 000          @R15,15
  25348  00004722  00000001 DROP                                           15              15
  25352  00004728  00000001 USING  ORDINARY    00000000 00001000 FFFFFFEF  15 000          @R15,15
  25425  0000474C  00000001 DROP                                           15              15
  25429  00004752  00000001 USING  ORDINARY    00000000 00001000 FFFFFFEF  15 000          @R15,15
  25502  00004776  00000001 DROP                                           15              15
  25506  0000477C  00000001 USING  ORDINARY    00000000 00001000 FFFFFFEF  15 000          @R15,15
  25533  00004788  00000001 DROP                                            1              1
  25537  0000478E  00000001 USING  ORDINARY    00000000 00001000 FFFFFFFD   1 000          @R1,1
  25717  000047F8  00000001 USING  ORDINARY    00000000 00001000 FFFFFFF6   8 000          @R8,8
  25722  000047F8  00000001 USING  ORDINARY    00000000 00001000 FFFFFFF7   7 000          @R7,7
  25742  00004806  00000001 USING  ORDINARY    00000000 00001000 FFFFFFF9   5 000          @R5,5
  25829  0000489A  00000001 USING  ORDINARY    0000489A 00001000 00000001   7 000          $$$587B,7
  25845  0000489E  00000001 USING  ORDINARY    00000000 00001000 FFFFFFF7   7 000          @R7,7
  25922  000048C6  00000001 USING  ORDINARY    000048C6 00001000 00000001   7 5CE   26189  $$$590B,7
  25936  000048C6  00000001 USING  ORDINARY    FFFFFFD8 00001000 FFFFFFDF   8 040   26131  WCWA-(4+36),R8
  26198  0000498C  00000001 USING  ORDINARY    00000000 00001000 FFFFFFF6   8 000          @R8,8
  26203  0000498C  00000001 USING  ORDINARY    00000000 00001000 FFFFFFF7   7 000          @R7,7
  26255  000049B4  00000001 USING  ORDINARY    000049B4 00001000 00000001   7 4FA   26515  $$$596B,7
  26269  000049B4  00000001 USING  ORDINARY    FFFFFFD8 00001000 FFFFFFDF   8 028   26280  WCWA-(4+36),R8
  26288  000049BE  00000001 USING  ORDINARY    00000000 00001000 FFFFFFDF   6 018   26804  WCWA,R6
  26530  00004AF8  00000001 USING  ORDINARY    00000000 00001000 FFFFFFF6   8 000          @R8,8
  26535  00004AF8  00000001 USING  ORDINARY    00000000 00001000 FFFFFFF7   7 000          @R7,7
  26643  00004BC2  00000001 USING  ORDINARY    00004BC2 00001000 00000001   7 000          $$$602B,7
1ACMD     (ACMD4072) (12:39) (15MAR04) Using Map                                                                            Page  243
  26665  00004BC8  00000001 USING  ORDINARY    00000000 00001000 FFFFFFF7   7 000          @R7,7
  26710  00004BF0  00000001 USING  ORDINARY    00004BF0 00001000 00000001   7 1C4   26738  $$$605B,7
  26750  00004C04  00000001 USING  ORDINARY    00000000 00001000 FFFFFFF7   7 000          @R7,7
  26795  00004C2C  00000001 USING  ORDINARY    00004C2C 00001000 00000001   7 000          $$$608B,7
  26811  00004C30  00000001 USING  ORDINARY    00000000 00001000 FFFFFFF7   7 000          @R7,7
  26831  00004C3E  00000001 USING  ORDINARY    00000000 00001000 FFFFFFF8   6 000          @R6,6
  26869  00004C58  00000001 USING  ORDINARY    00004C58 00001000 00000001   7 174   26920  $$$611B,7
  26929  00004CBA  00000001 USING  ORDINARY    00000000 00001000 FFFFFFF7   7 000          @R7,7
  27104  00004EEC  00000001 USING  ORDINARY    00004EEC 00001000 00000001   7 7F8   27558  $$$614B,7
  27122  00004EEE  00000001 USING  ORDINARY    00000000 00001000 FFFFFFE1   5 070   27530  KWR,R5
  27270  00004F5E  00000001 USING  ORDINARY    00000000 00001000 FFFFFFE7  15 062   27281  JCB,R15
  27288  00004F62  00000001 USING  ORDINARY    00000000 00001000 FFFFFFEF  15 000   27378  @R15,15
  27426  00004FCC  00000001 USING  ORDINARY    00000000 00001000 FFFFFFE7  15 062   27437  JCB,R15
  27444  00004FD0  00000001 USING  ORDINARY    00000000 00001000 FFFFFFEF  15 000   27463  @R15,15
  27497  00004FF4  00000001 USING  ORDINARY    00000000 00001000 FFFFFFE7  15 062   27508  JCB,R15
  27515  00004FF8  00000001 USING  ORDINARY    00000000 00001000 FFFFFFEF  15 001   38049  @R15,15
  27567  0000501A  00000001 USING  ORDINARY    00000000 00001000 FFFFFFF7   7 000          @R7,7
  27589  00005028  00000001 USING  ORDINARY    00000000 00001000 FFFFFFF9   5 000          @R5,5
  27652  00005042  00000001 USING  ORDINARY    00005042 00001000 00000001   7 725   28517  $$$625B,7
  27666  00005042  00000001 USING  ORDINARY    FFFFFFD8 00001000 FFFFFFDE   8 228   28473  KEYWA-(4+36),R8
  27688  00005058  00000001 USING  ORDINARY    00000000 00001000 FFFFFFE1   5 100   28527  WA,R5
  27914  0000514A  00000001 USING  ORDINARY    00000000 00001000 FFFFFFE7   1 062   27926  JCB,R1
  27933  0000514E  00000001 USING  ORDINARY    00000000 00001000 FFFFFFFD   1 000   54113  @R1,1
  28536  00005374  00000001 USING  ORDINARY    00000000 00001000 FFFFFFF6   8 000          @R8,8
  28541  00005374  00000001 USING  ORDINARY    00000000 00001000 FFFFFFF7   7 000          @R7,7
  28561  00005382  00000001 USING  ORDINARY    00000000 00001000 FFFFFFF9   5 000          @R5,5
  28683  00005792  00000001 USING  ORDINARY    00005792 00001000 00000001   7 762   28740  $$$641B,7
  28697  00005792  00000001 USING  ORDINARY    FFFFFFD8 00001000 FFFFFFE1   8 228   28711  WA-(4+36),R8
  28719  000057A8  00000001 USING  ORDINARY    00000000 00001000 FFFFFFE1   5 100   28749  WA,R5
  28758  000057DE  00000001 USING  ORDINARY    00000000 00001000 FFFFFFF6   8 000          @R8,8
  28763  000057DE  00000001 USING  ORDINARY    00000000 00001000 FFFFFFF7   7 000          @R7,7
  28783  000057EC  00000001 USING  ORDINARY    00000000 00001000 FFFFFFF9   5 000          @R5,5
  28829  00005806  00000001 USING  ORDINARY    00005806 00001000 00000001   7 75C   29066  $$$644B,7
  28846  00005808  00000001 USING  ORDINARY    00000000 00001000 FFFFFFE1   6 1A2   29016  KWR,R6
  29074  0000589A  00000001 USING  ORDINARY    00000000 00001000 FFFFFFF7   7 000          @R7,7
  29094  000058A8  00000001 USING  ORDINARY    00000000 00001000 FFFFFFF8   6 000          @R6,6
  29134  000058C2  00000001 USING  ORDINARY    000058C2 00001000 00000001   7 696   29191  $$$651B,7
  29148  000058C2  00000001 USING  ORDINARY    FFFFFFD8 00001000 FFFFFFE1   8 228   29162  WA-(4+36),R8
  29170  000058D8  00000001 USING  ORDINARY    00000000 00001000 FFFFFFE1   5 100   29200  WA,R5
  29209  0000590E  00000001 USING  ORDINARY    00000000 00001000 FFFFFFF6   8 000          @R8,8
  29214  0000590E  00000001 USING  ORDINARY    00000000 00001000 FFFFFFF7   7 000          @R7,7
  29234  0000591C  00000001 USING  ORDINARY    00000000 00001000 FFFFFFF9   5 000          @R5,5
  29280  00005936  00000001 USING  ORDINARY    00005936 00001000 00000001   7 66C   29550  $$$654B,7
  29297  00005938  00000001 USING  ORDINARY    00000000 00001000 FFFFFFE1   6 05C   29416  KWR,R6
  29558  00005A00  00000001 USING  ORDINARY    00000000 00001000 FFFFFFF7   7 000          @R7,7
  29578  00005A0E  00000001 USING  ORDINARY    00000000 00001000 FFFFFFF8   6 000          @R6,6
  29640  00005A28  00000001 USING  ORDINARY    00005A28 00001000 00000001   7 534   29865  $$$660B,7
  29654  00005A28  00000001 USING  ORDINARY    FFFFFFD8 00001000 FFFFFFDD   8 000          SMFWA-(4+36),R8
  29665  00005A28  00000001 USING  ORDINARY    00000000 00001000 FFFFFFF6   8 000          @R8,8
  29668  00005A28  00000001 USING  ORDINARY    00000000 00001000 FFFFFFDD   8 000   29862  SMFWA,WAR
  29874  00005B2C  00000001 USING  ORDINARY    00000000 00001000 FFFFFFF6   8 000          @R8,8
  29879  00005B2C  00000001 USING  ORDINARY    00000000 00001000 FFFFFFF7   7 000          @R7,7
  30105  00005D36  00000001 USING  ORDINARY    00005D36 00001000 00000001   7 000          $$$667B,7
  30121  00005D3A  00000001 USING  ORDINARY    00000000 00001000 FFFFFFF7   7 000          @R7,7
  30171  00005D62  00000001 USING  ORDINARY    00005D62 00001000 00000001   7 277   30383  $$$670B,7
  30413  00005E1C  00000001 USING  ORDINARY    00000000 00001000 FFFFFFF7   7 000          @R7,7
  30469  00005E70  00000001 USING  ORDINARY    00005E70 00001000 00000001   7 163   30518  $$$677B,7
  30532  00005E9E  00000001 USING  ORDINARY    00000000 00001000 FFFFFFF7   7 000          @R7,7
  30663  00005FF6  00000001 USING  ORDINARY    00005FF6 00001000 00000001   7 5B8   31299  $$$681B,7
1ACMD     (ACMD4072) (12:39) (15MAR04) Using Map                                                                            Page  244
  30677  00005FF6  00000001 USING  ORDINARY    FFFFFFD8 00001000 FFFFFFDC   8 228   30691  PRIVWA-(4+36),R8
  30699  0000600C  00000001 USING  ORDINARY    00000000 00001000 FFFFFFDC   4 1FA   31847  PRIVWA,R4
  30737  0000602C  00000001 USING  ORDINARY    00000000 00001000 FFFFFFE1   6 1F4   31030  KWR,R6
  31119  00006236  00000001 USING  ORDINARY    00000000 00001000 FFFFFFE9   5 080   31290  SIB,R5
  31296  000062B8  00000001 USING  ORDINARY    00000000 00001000 FFFFFFF9   5 000          @R5,5
  31310  000062C6  00000001 USING  ORDINARY    00000000 00001000 FFFFFFF6   8 000          @R8,8
  31315  000062C6  00000001 USING  ORDINARY    00000000 00001000 FFFFFFF7   7 000          @R7,7
  31497  00006456  00000001 USING  ORDINARY    00006456 00001000 00000001   7 000          $$$698B,7
  31519  0000645A  00000001 USING  ORDINARY    00000000 00001000 FFFFFFF7   7 000          @R7,7
  31564  00006482  00000001 USING  ORDINARY    00006482 00001000 00000001   7 000          $$$702B,7
  31586  00006486  00000001 USING  ORDINARY    00000000 00001000 FFFFFFF7   7 000          @R7,7
  31631  000064AE  00000001 USING  ORDINARY    000064AE 00001000 00000001   7 000          $$$706B,7
  31653  000064B2  00000001 USING  ORDINARY    00000000 00001000 FFFFFFF7   7 000          @R7,7
  31698  000064DA  00000001 USING  ORDINARY    000064DA 00001000 00000001   7 000          $$$710B,7
  31720  000064DE  00000001 USING  ORDINARY    00000000 00001000 FFFFFFF7   7 000          @R7,7
  31765  00006506  00000001 USING  ORDINARY    00006506 00001000 00000001   7 000          $$$714B,7
  31787  0000650A  00000001 USING  ORDINARY    00000000 00001000 FFFFFFF7   7 000          @R7,7
  31832  00006532  00000001 USING  ORDINARY    00006532 00001000 00000001   7 000          $$$718B,7
  31854  00006536  00000001 USING  ORDINARY    00000000 00001000 FFFFFFF7   7 000          @R7,7
  31875  00006544  00000001 USING  ORDINARY    00000000 00001000 FFFFFFF8   6 000          @R6,6
  31882  00006544  00000001 USING  ORDINARY    00000000 00001000 FFFFFFFA   4 020   43313  @R4,4
  31955  000065CC  00000001 USING  ORDINARY    000065CC 00001000 00000001   7 65A   33681  $$$722B,7
  31969  000065CC  00000001 USING  ORDINARY    FFFFFFD8 00001000 FFFFFFE1   8 228   31983  WA-(4+36),R8
  31991  000065E2  00000001 USING  ORDINARY    00000000 00001000 FFFFFFE1   5 200   42338  WA,R5
  33691  00006AB8  00000001 USING  ORDINARY    00000000 00001000 FFFFFFF6   8 000          @R8,8
  33696  00006AB8  00000001 USING  ORDINARY    00000000 00001000 FFFFFFF7   7 000          @R7,7
  35278  00007B4A  00000001 USING  ORDINARY    00007B4A 00001000 00000001   7 83A   35389  $$$794B,7
  35401  00007C06  00000001 USING  ORDINARY    00000000 00001000 FFFFFFF7   7 000          @R7,7
  35449  00007C2E  00000001 USING  ORDINARY    00007C2E 00001000 00000001   7 000          $$$799B,7
  35476  00007C36  00000001 USING  ORDINARY    00000000 00001000 FFFFFFF7   7 000          @R7,7
  35521  00007C5E  00000001 USING  ORDINARY    00007C5E 00001000 00000001   7 000          $$$803B,7
  35547  00007C66  00000001 USING  ORDINARY    00000000 00001000 FFFFFFF7   7 000          @R7,7
  35592  00007C8E  00000001 USING  ORDINARY    00007C8E 00001000 00000001   7 000          $$$807B,7
  35619  00007C96  00000001 USING  ORDINARY    00000000 00001000 FFFFFFF7   7 000          @R7,7
  35664  00007CBE  00000001 USING  ORDINARY    00007CBE 00001000 00000001   7 000          $$$811B,7
  35690  00007CC6  00000001 USING  ORDINARY    00000000 00001000 FFFFFFF7   7 000          @R7,7
  35735  00007CEE  00000001 USING  ORDINARY    00007CEE 00001000 00000001   7 682   35747  $$$815B,7
  35759  00007CFA  00000001 USING  ORDINARY    00000000 00001000 FFFFFFF7   7 000          @R7,7
  35804  00007D22  00000001 USING  ORDINARY    00007D22 00001000 00000001   7 64E   35816  $$$818B,7
  35828  00007D2E  00000001 USING  ORDINARY    00000000 00001000 FFFFFFF7   7 000          @R7,7
  35873  00007D56  00000001 USING  ORDINARY    00007D56 00001000 00000001   7 61A   35885  $$$821B,7
  35897  00007D62  00000001 USING  ORDINARY    00000000 00001000 FFFFFFF7   7 000          @R7,7
  35942  00007D8A  00000001 USING  ORDINARY    00007D8A 00001000 00000001   7 5E6   35954  $$$824B,7
  35966  00007D96  00000001 USING  ORDINARY    00000000 00001000 FFFFFFF7   7 000          @R7,7
  36011  00007DBE  00000001 USING  ORDINARY    00007DBE 00001000 00000001   7 5B2   36023  $$$827B,7
  36035  00007DCA  00000001 USING  ORDINARY    00000000 00001000 FFFFFFF7   7 000          @R7,7
  36080  00007DF2  00000001 USING  ORDINARY    00007DF2 00001000 00000001   7 57E   36092  $$$830B,7
  36104  00007DFE  00000001 USING  ORDINARY    00000000 00001000 FFFFFFF7   7 000          @R7,7
  36149  00007E26  00000001 USING  ORDINARY    00007E26 00001000 00000001   7 560   36178  $$$833B,7
  36190  00007E44  00000001 USING  ORDINARY    00000000 00001000 FFFFFFF7   7 000          @R7,7
  36235  00007E6C  00000001 USING  ORDINARY    00007E6C 00001000 00000001   7 532   36334  $$$836B,7
  36346  00007EA0  00000001 USING  ORDINARY    00000000 00001000 FFFFFFF7   7 000          @R7,7
  36391  00007EC8  00000001 USING  ORDINARY    00007EC8 00001000 00000001   7 000          $$$845B,7
  36418  00007ED0  00000001 USING  ORDINARY    00000000 00001000 FFFFFFF7   7 000          @R7,7
  36463  00007EF8  00000001 USING  ORDINARY    00007EF8 00001000 00000001   7 000          $$$849B,7
  36489  00007F00  00000001 USING  ORDINARY    00000000 00001000 FFFFFFF7   7 000          @R7,7
  36534  00007F28  00000001 USING  ORDINARY    00007F28 00001000 00000001   7 000          $$$853B,7
  36579  00007F38  00000001 USING  ORDINARY    00000000 00001000 FFFFFFF7   7 000          @R7,7
  36624  00007F60  00000001 USING  ORDINARY    00007F60 00001000 00000001   7 000          $$$860B,7
1ACMD     (ACMD4072) (12:39) (15MAR04) Using Map                                                                            Page  245
  36651  00007F68  00000001 USING  ORDINARY    00000000 00001000 FFFFFFF7   7 000          @R7,7
  36696  00007F90  00000001 USING  ORDINARY    00007F90 00001000 00000001   7 000          $$$864B,7
  36722  00007F98  00000001 USING  ORDINARY    00000000 00001000 FFFFFFF7   7 000          @R7,7
  36767  00007FC0  00000001 USING  ORDINARY    00007FC0 00001000 00000001   7 000          $$$868B,7
  36794  00007FC8  00000001 USING  ORDINARY    00000000 00001000 FFFFFFF7   7 000          @R7,7
  36839  00007FF0  00000001 USING  ORDINARY    00007FF0 00001000 00000001   7 000          $$$872B,7
  36865  00007FF8  00000001 USING  ORDINARY    00000000 00001000 FFFFFFF7   7 000          @R7,7
  36910  00008020  00000001 USING  ORDINARY    00008020 00001000 00000001   7 000          $$$876B,7
  36937  00008028  00000001 USING  ORDINARY    00000000 00001000 FFFFFFF7   7 000          @R7,7
  36982  00008050  00000001 USING  ORDINARY    00008050 00001000 00000001   7 000          $$$880B,7
  37008  00008058  00000001 USING  ORDINARY    00000000 00001000 FFFFFFF7   7 000          @R7,7
  37053  00008080  00000001 USING  ORDINARY    00008080 00001000 00000001   7 000          $$$884B,7
  37080  00008088  00000001 USING  ORDINARY    00000000 00001000 FFFFFFF7   7 000          @R7,7
  37125  000080B0  00000001 USING  ORDINARY    000080B0 00001000 00000001   7 000          $$$888B,7
  37157  000080BC  00000001 USING  ORDINARY    00000000 00001000 FFFFFFF7   7 000          @R7,7
  37202  000080E4  00000001 USING  ORDINARY    000080E4 00001000 00000001   7 000          $$$893B,7
  37234  000080F0  00000001 USING  ORDINARY    00000000 00001000 FFFFFFF7   7 000          @R7,7
  37279  00008118  00000001 USING  ORDINARY    00008118 00001000 00000001   7 000          $$$898B,7
  37309  00008120  00000001 USING  ORDINARY    00000000 00001000 FFFFFFF7   7 000          @R7,7
  37354  00008148  00000001 USING  ORDINARY    00008148 00001000 00000001   7 000          $$$903B,7
  37384  00008150  00000001 USING  ORDINARY    00000000 00001000 FFFFFFF7   7 000          @R7,7
  37429  00008178  00000001 USING  ORDINARY    00008178 00001000 00000001   7 000          $$$908B,7
  37455  00008180  00000001 USING  ORDINARY    00000000 00001000 FFFFFFF7   7 000          @R7,7
  37500  000081A8  00000001 USING  ORDINARY    000081A8 00001000 00000001   7 000          $$$912B,7
  37527  000081B0  00000001 USING  ORDINARY    00000000 00001000 FFFFFFF7   7 000          @R7,7
  37572  000081D8  00000001 USING  ORDINARY    000081D8 00001000 00000001   7 000          $$$916B,7
  37621  000081E4  00000001 USING  ORDINARY    00000000 00001000 FFFFFFF7   7 000          @R7,7
  37666  0000820C  00000001 USING  ORDINARY    0000820C 00001000 00000001   7 000          $$$925B,7
  37692  00008214  00000001 USING  ORDINARY    00000000 00001000 FFFFFFF7   7 000          @R7,7
  37737  0000823C  00000001 USING  ORDINARY    0000823C 00001000 00000001   7 000          $$$929B,7
  37764  00008244  00000001 USING  ORDINARY    00000000 00001000 FFFFFFF7   7 000          @R7,7
  37810  0000826C  00000001 USING  ORDINARY    0000826C 00001000 00000001   7 110   38034  $$$933B,7
  38060  000082EE  00000001 USING  ORDINARY    00000000 00001000 FFFFFFF7   7 000          @R7,7
  38106  00008316  00000001 USING  ORDINARY    00008316 00001000 00000001   7 06A   38185  $$$946B,7
  38202  0000834E  00000001 USING  ORDINARY    00000000 00001000 FFFFFFF7   7 000          @R7,7
  38272  000083BC  00000001 USING  ORDINARY    000083BC 00001000 00000001   7 BD0   38323  $$$952B,7
  38290  000083C0  00000001 DROP                                           15              15
  38294  000083C6  00000001 USING  ORDINARY    00000000 00001000 FFFFFFEF  15 000          @R15,15
  38335  000083E8  00000001 USING  ORDINARY    00000000 00001000 FFFFFFF7   7 000          @R7,7
  38380  00008410  00000001 USING  ORDINARY    00008410 00001000 00000001   7 B7C   38431  $$$956B,7
  38398  00008414  00000001 DROP                                           15              15
  38402  0000841A  00000001 USING  ORDINARY    00000000 00001000 FFFFFFEF  15 000          @R15,15
  38443  0000843C  00000001 USING  ORDINARY    00000000 00001000 FFFFFFF7   7 000          @R7,7
  38488  00008464  00000001 USING  ORDINARY    00008464 00001000 00000001   7 B28   38539  $$$960B,7
  38506  00008468  00000001 DROP                                           15              15
  38510  0000846E  00000001 USING  ORDINARY    00000000 00001000 FFFFFFEF  15 000          @R15,15
  38551  00008490  00000001 USING  ORDINARY    00000000 00001000 FFFFFFF7   7 000          @R7,7
  38596  000084B8  00000001 USING  ORDINARY    000084B8 00001000 00000001   7 AD4   38647  $$$964B,7
  38614  000084BC  00000001 DROP                                           15              15
  38618  000084C2  00000001 USING  ORDINARY    00000000 00001000 FFFFFFEF  15 000          @R15,15
  38659  000084E4  00000001 USING  ORDINARY    00000000 00001000 FFFFFFF7   7 000          @R7,7
  38704  0000850C  00000001 USING  ORDINARY    0000850C 00001000 00000001   7 A48   38721  $$$968B,7
  38733  00008518  00000001 USING  ORDINARY    00000000 00001000 FFFFFFF7   7 000          @R7,7
  38779  00008540  00000001 USING  ORDINARY    00008540 00001000 00000001   7 A56   38794  $$$971B,7
  38801  0000854A  00000001 USING  ORDINARY    00000000 00001000 FFFFFFF7   7 000          @R7,7
  38846  00008572  00000001 USING  ORDINARY    00008572 00001000 00000001   7 9E6   38890  $$$974B,7
  38864  00008576  00000001 DROP                                           15              15
  38868  0000857C  00000001 USING  ORDINARY    00000000 00001000 FFFFFFEF  15 000          @R15,15
  38908  00008594  00000001 USING  ORDINARY    00000000 00001000 FFFFFFF7   7 000          @R7,7
1ACMD     (ACMD4072) (12:39) (15MAR04) Using Map                                                                            Page  246
  38953  000085BC  00000001 USING  ORDINARY    000085BC 00001000 00000001   7 998   38978  $$$978B,7
  38971  000085C0  00000001 DROP                                           15              15
  38975  000085C6  00000001 USING  ORDINARY    00000000 00001000 FFFFFFEF  15 3E7   41611  @R15,15
  38992  000085D2  00000001 USING  ORDINARY    00000000 00001000 FFFFFFF7   7 000          @R7,7
  39038  000085FA  00000001 USING  ORDINARY    000085FA 00001000 00000001   7 994   39053  $$$981B,7
  39060  00008604  00000001 USING  ORDINARY    00000000 00001000 FFFFFFF7   7 000          @R7,7
  39105  0000862C  00000001 USING  ORDINARY    0000862C 00001000 00000001   7 92C   39161  $$$984B,7
  39178  00008658  00000001 USING  ORDINARY    00000000 00001000 FFFFFFF7   7 000          @R7,7
  39223  00008680  00000001 USING  ORDINARY    00008680 00001000 00000001   7 90E   39238  $$$989B,7
  39245  0000868A  00000001 USING  ORDINARY    00000000 00001000 FFFFFFF7   7 000          @R7,7
  39290  000086B2  00000001 USING  ORDINARY    000086B2 00001000 00000001   7 8DA   39377  $$$992B,7
  39389  000086F8  00000001 USING  ORDINARY    00000000 00001000 FFFFFFF7   7 000          @R7,7
  39434  00008720  00000001 USING  ORDINARY    00008720 00001000 00000001   7 86E   39449  $$$998B,7
  39456  0000872A  00000001 USING  ORDINARY    00000000 00001000 FFFFFFF7   7 000          @R7,7
  39501  00008752  00000001 USING  ORDINARY    00008752 00001000 00000001   7 83E   39590  $$$1001B,7
  39602  0000879E  00000001 USING  ORDINARY    00000000 00001000 FFFFFFF7   7 000          @R7,7
  39647  000087C6  00000001 USING  ORDINARY    000087C6 00001000 00000001   7 000          $$$1007B,7
  39673  000087CE  00000001 USING  ORDINARY    00000000 00001000 FFFFFFF7   7 000          @R7,7
  39718  000087F6  00000001 USING  ORDINARY    000087F6 00001000 00000001   7 000          $$$1011B,7
  39745  000087FE  00000001 USING  ORDINARY    00000000 00001000 FFFFFFF7   7 000          @R7,7
  39790  00008826  00000001 USING  ORDINARY    00008826 00001000 00000001   7 000          $$$1015B,7
  39816  0000882E  00000001 USING  ORDINARY    00000000 00001000 FFFFFFF7   7 000          @R7,7
  39861  00008856  00000001 USING  ORDINARY    00008856 00001000 00000001   7 000          $$$1019B,7
  39888  0000885E  00000001 USING  ORDINARY    00000000 00001000 FFFFFFF7   7 000          @R7,7
  39933  00008886  00000001 USING  ORDINARY    00008886 00001000 00000001   7 000          $$$1023B,7
  39960  0000888E  00000001 USING  ORDINARY    00000000 00001000 FFFFFFF7   7 000          @R7,7
  40005  000088B6  00000001 USING  ORDINARY    000088B6 00001000 00000001   7 000          $$$1027B,7
  40031  000088BE  00000001 USING  ORDINARY    00000000 00001000 FFFFFFF7   7 000          @R7,7
  40076  000088E6  00000001 USING  ORDINARY    000088E6 00001000 00000001   7 6AC   40180  $$$1031B,7
  40198  00008938  00000001 USING  ORDINARY    00000000 00001000 FFFFFFF7   7 000          @R7,7
  40243  00008960  00000001 USING  ORDINARY    00008960 00001000 00000001   7 000          $$$1038B,7
  40269  00008968  00000001 USING  ORDINARY    00000000 00001000 FFFFFFF7   7 000          @R7,7
  40314  00008990  00000001 USING  ORDINARY    00008990 00001000 00000001   7 000          $$$1042B,7
  40341  00008998  00000001 USING  ORDINARY    00000000 00001000 FFFFFFF7   7 000          @R7,7
  40386  000089C0  00000001 USING  ORDINARY    000089C0 00001000 00000001   7 000          $$$1046B,7
  40412  000089C8  00000001 USING  ORDINARY    00000000 00001000 FFFFFFF7   7 000          @R7,7
  40457  000089F0  00000001 USING  ORDINARY    000089F0 00001000 00000001   7 000          $$$1050B,7
  40484  000089F8  00000001 USING  ORDINARY    00000000 00001000 FFFFFFF7   7 000          @R7,7
  40529  00008A20  00000001 USING  ORDINARY    00008A20 00001000 00000001   7 000          $$$1054B,7
  40556  00008A28  00000001 USING  ORDINARY    00000000 00001000 FFFFFFF7   7 000          @R7,7
  40601  00008A50  00000001 USING  ORDINARY    00008A50 00001000 00000001   7 000          $$$1058B,7
  40627  00008A58  00000001 USING  ORDINARY    00000000 00001000 FFFFFFF7   7 000          @R7,7
  40672  00008A80  00000001 USING  ORDINARY    00008A80 00001000 00000001   7 000          $$$1062B,7
  40698  00008A88  00000001 USING  ORDINARY    00000000 00001000 FFFFFFF7   7 000          @R7,7
  40743  00008AB0  00000001 USING  ORDINARY    00008AB0 00001000 00000001   7 000          $$$1066B,7
  40770  00008AB8  00000001 USING  ORDINARY    00000000 00001000 FFFFFFF7   7 000          @R7,7
  40815  00008AE0  00000001 USING  ORDINARY    00008AE0 00001000 00000001   7 000          $$$1070B,7
  40844  00008AE8  00000001 USING  ORDINARY    00000000 00001000 FFFFFFF7   7 000          @R7,7
  40889  00008B10  00000001 USING  ORDINARY    00008B10 00001000 00000001   7 000          $$$1074B,7
  40915  00008B18  00000001 USING  ORDINARY    00000000 00001000 FFFFFFF7   7 000          @R7,7
  40960  00008B40  00000001 USING  ORDINARY    00008B40 00001000 00000001   7 000          $$$1078B,7
  40989  00008B48  00000001 USING  ORDINARY    00000000 00001000 FFFFFFF7   7 000          @R7,7
  41034  00008B70  00000001 USING  ORDINARY    00008B70 00001000 00000001   7 000          $$$1082B,7
  41060  00008B78  00000001 USING  ORDINARY    00000000 00001000 FFFFFFF7   7 000          @R7,7
  41105  00008BA0  00000001 USING  ORDINARY    00008BA0 00001000 00000001   7 3F2   41120  $$$1086B,7
  41127  00008BAA  00000001 USING  ORDINARY    00000000 00001000 FFFFFFF7   7 000          @R7,7
  41172  00008BD2  00000001 USING  ORDINARY    00008BD2 00001000 00000001   7 3C0   41248  $$$1089B,7
  41264  00008C0A  00000001 USING  ORDINARY    00000000 00001000 FFFFFFF7   7 000          @R7,7
  41309  00008C32  00000001 USING  ORDINARY    00008C32 00001000 00000001   7 360   41366  $$$1095B,7
1ACMD     (ACMD4072) (12:39) (15MAR04) Using Map                                                                            Page  247
  41382  00008C5E  00000001 USING  ORDINARY    00000000 00001000 FFFFFFF7   7 000          @R7,7
  41427  00008C86  00000001 USING  ORDINARY    00008C86 00001000 00000001   7 340   41587  $$$1100B,7
  41632  00008D0E  00000001 USING  ORDINARY    00000000 00001000 FFFFFFF7   7 000          @R7,7
  41677  00008D36  00000001 USING  ORDINARY    00008D36 00001000 00000001   7 246   41706  $$$1110B,7
  41733  00008D58  00000001 USING  ORDINARY    00000000 00001000 FFFFFFF7   7 000          @R7,7
  41778  00008D80  00000001 USING  ORDINARY    00008D80 00001000 00000001   7 000          $$$1114B,7
  41806  00008D8A  00000001 USING  ORDINARY    00000000 00001000 FFFFFFF7   7 000          @R7,7
  41851  00008DB2  00000001 USING  ORDINARY    00008DB2 00001000 00000001   7 1D2   41931  $$$1117B,7
  41946  00008DE8  00000001 USING  ORDINARY    00000000 00001000 FFFFFFF7   7 000          @R7,7
  41991  00008E10  00000001 USING  ORDINARY    00008E10 00001000 00000001   7 000          $$$1122B,7
  42019  00008E1A  00000001 USING  ORDINARY    00000000 00001000 FFFFFFF7   7 000          @R7,7
  42064  00008E42  00000001 USING  ORDINARY    00008E42 00001000 00000001   7 146   42124  $$$1125B,7
  42136  00008E68  00000001 USING  ORDINARY    00000000 00001000 FFFFFFF7   7 000          @R7,7
  42181  00008E90  00000001 USING  ORDINARY    00008E90 00001000 00000001   7 000          $$$1129B,7
  42209  00008E9A  00000001 USING  ORDINARY    00000000 00001000 FFFFFFF7   7 000          @R7,7
  42254  00008EC2  00000001 USING  ORDINARY    00008EC2 00001000 00000001   7 000          $$$1132B,7
  42279  00008ECA  00000001 USING  ORDINARY    00000000 00001000 FFFFFFF7   7 000          @R7,7
  42324  00008EF2  00000001 USING  ORDINARY    00008EF2 00001000 00000001   7 000          $$$1135B,7
  42345  00008EF6  00000001 USING  ORDINARY    00000000 00001000 FFFFFFF7   7 000          @R7,7
  42366  00008F04  00000001 USING  ORDINARY    00000000 00001000 FFFFFFF9   5 000          @R5,5
  42646  000091DE  00000001 USING  ORDINARY    000091DE 00001000 00000001   7 31D   43349  $$$1138B,7
  42660  000091DE  00000001 USING  ORDINARY    FFFFFFD8 00001000 FFFFFFE1   8 228   42674  WA-(4+36),R8
  42682  000091F4  00000001 USING  ORDINARY    00000000 00001000 FFFFFFE1   5 1F9   43479  WA,R5
  43367  000093FC  00000001 USING  ORDINARY    00000000 00001000 FFFFFFF6   8 000          @R8,8
  43372  000093FC  00000001 USING  ORDINARY    00000000 00001000 FFFFFFF7   7 000          @R7,7
  43465  0000949E  00000001 USING  ORDINARY    0000949E 00001000 00000001   7 000          $$$1163B,7
  43486  000094A2  00000001 USING  ORDINARY    00000000 00001000 FFFFFFF7   7 000          @R7,7
  43507  000094B0  00000001 USING  ORDINARY    00000000 00001000 FFFFFFF9   5 000          @R5,5
  43583  00009516  00000001 USING  ORDINARY    00009516 00001000 00000001   7 F85   48867  $$$1166B,7
  43604  0000951A  00000001 USING  ORDINARY    0000A49C 00001000 00000001   4 1DA   48793  MASTDISP+4000,4
  43614  0000951C  00000001 USING  ORDINARY    00000000 00001000 FFFFFFE1   5 1CC   48730  KWR,R5
  45486  000099BA  00000001 DROP                                           15              15
  45490  000099C0  00000001 USING  ORDINARY    00000000 00001000 FFFFFFEF  15 000          @R15,15
  45594  00009A0E  00000001 DROP                                           15              15
  45598  00009A14  00000001 USING  ORDINARY    00000000 00001000 FFFFFFEF  15 000          @R15,15
  45624  00009A2C  00000001 DROP                                           15              15
  45628  00009A32  00000001 USING  ORDINARY    00000000 00001000 FFFFFFEF  15 000          @R15,15
  46850  00009D5A  00000001 DROP                                            2              2
  46854  00009D60  00000001 USING  ORDINARY    00000000 00001000 FFFFFFFC   2 000          @R2,2
  46940  00009D9E  00000001 DROP                                            2              2
  46944  00009DA4  00000001 USING  ORDINARY    00000000 00001000 FFFFFFFC   2 000   52299  @R2,2
  48881  0000A272  00000001 USING  ORDINARY    00000000 00001000 FFFFFFF7   7 000          @R7,7
  48900  0000A280  00000001 USING  ORDINARY    00000000 00001000 FFFFFFFA   4 000   54540  @R4,4
  48907  0000A280  00000001 USING  ORDINARY    00000000 00001000 FFFFFFF9   5 000          @R5,5
  49072  0000A69E  00000001 USING  ORDINARY    0000A69E 00001000 00000001   7 9C0   49279  $$$1296B,7
  49088  0000A69E  00000001 USING  ORDINARY    00000000 00001000 FFFFFFE1   5 200   51920  WA,R5
  49287  0000A78E  00000001 USING  ORDINARY    00000000 00001000 FFFFFFF7   7 000          @R7,7
  49379  0000A82E  00000001 USING  ORDINARY    0000A82E 00001000 00000001   7 000          $$$1304B,7
  49395  0000A832  00000001 USING  ORDINARY    00000000 00001000 FFFFFFF7   7 000          @R7,7
  49440  0000A85A  00000001 USING  ORDINARY    0000A85A 00001000 00000001   7 000          $$$1307B,7
  49456  0000A85E  00000001 USING  ORDINARY    00000000 00001000 FFFFFFF7   7 000          @R7,7
  49505  0000A886  00000001 USING  ORDINARY    0000A886 00001000 00000001   7 81C   49606  $$$1310B,7
  49624  0000A8D4  00000001 USING  ORDINARY    00000000 00001000 FFFFFFF7   7 000          @R7,7
  49674  0000A8FC  00000001 USING  ORDINARY    0000A8FC 00001000 00000001   7 7CD   49808  $$$1319B,7
  49820  0000A958  00000001 USING  ORDINARY    00000000 00001000 FFFFFFF7   7 000          @R7,7
  49868  0000A980  00000001 USING  ORDINARY    0000A980 00001000 00000001   7 751   49974  $$$1324B,7
  49983  0000A9DA  00000001 USING  ORDINARY    00000000 00001000 FFFFFFF7   7 000          @R7,7
  50030  0000AA02  00000001 USING  ORDINARY    0000AA02 00001000 00000001   7 6DE   50135  $$$1327B,7
  50144  0000AA56  00000001 USING  ORDINARY    00000000 00001000 FFFFFFF7   7 000          @R7,7
1ACMD     (ACMD4072) (12:39) (15MAR04) Using Map                                                                            Page  248
  50192  0000AA7E  00000001 USING  ORDINARY    0000AA7E 00001000 00000001   7 702   50331  $$$1330B,7
  50364  0000AAD2  00000001 USING  ORDINARY    00000000 00001000 FFFFFFF7   7 000          @R7,7
  50409  0000AAFA  00000001 USING  ORDINARY    0000AAFA 00001000 00000001   7 68C   50548  $$$1340B,7
  50581  0000AB4E  00000001 USING  ORDINARY    00000000 00001000 FFFFFFF7   7 000          @R7,7
  50626  0000AB76  00000001 USING  ORDINARY    0000AB76 00001000 00000001   7 4DE   50689  $$$1350B,7
  50697  0000ABA8  00000001 USING  ORDINARY    00000000 00001000 FFFFFFF7   7 000          @R7,7
  50742  0000ABD0  00000001 USING  ORDINARY    0000ABD0 00001000 00000001   7 55C   50841  $$$1355B,7
  50858  0000AC22  00000001 USING  ORDINARY    00000000 00001000 FFFFFFF7   7 000          @R7,7
  50903  0000AC4A  00000001 USING  ORDINARY    0000AC4A 00001000 00000001   7 406   50946  $$$1361B,7
  50973  0000AC74  00000001 USING  ORDINARY    00000000 00001000 FFFFFFF7   7 000          @R7,7
  51018  0000AC9C  00000001 USING  ORDINARY    0000AC9C 00001000 00000001   7 000          $$$1366B,7
  51046  0000ACA6  00000001 USING  ORDINARY    00000000 00001000 FFFFFFF7   7 000          @R7,7
  51091  0000ACCE  00000001 USING  ORDINARY    0000ACCE 00001000 00000001   7 382   51134  $$$1369B,7
  51161  0000ACF8  00000001 USING  ORDINARY    00000000 00001000 FFFFFFF7   7 000          @R7,7
  51206  0000AD20  00000001 USING  ORDINARY    0000AD20 00001000 00000001   7 330   51278  $$$1374B,7
  51305  0000AD5A  00000001 USING  ORDINARY    00000000 00001000 FFFFFFF7   7 000          @R7,7
  51350  0000AD82  00000001 USING  ORDINARY    0000AD82 00001000 00000001   7 000          $$$1380B,7
  51378  0000AD8C  00000001 USING  ORDINARY    00000000 00001000 FFFFFFF7   7 000          @R7,7
  51423  0000ADB4  00000001 USING  ORDINARY    0000ADB4 00001000 00000001   7 29C   51466  $$$1383B,7
  51493  0000ADDE  00000001 USING  ORDINARY    00000000 00001000 FFFFFFF7   7 000          @R7,7
  51538  0000AE06  00000001 USING  ORDINARY    0000AE06 00001000 00000001   7 386   51597  $$$1388B,7
  51626  0000AE32  00000001 USING  ORDINARY    00000000 00001000 FFFFFFF7   7 000          @R7,7
  51671  0000AE5A  00000001 USING  ORDINARY    0000AE5A 00001000 00000001   7 000          $$$1395B,7
  51699  0000AE64  00000001 USING  ORDINARY    00000000 00001000 FFFFFFF7   7 000          @R7,7
  51744  0000AE8C  00000001 USING  ORDINARY    0000AE8C 00001000 00000001   7 000          $$$1398B,7
  51778  0000AE98  00000001 USING  ORDINARY    00000000 00001000 FFFFFFF7   7 000          @R7,7
  51823  0000AEC0  00000001 USING  ORDINARY    0000AEC0 00001000 00000001   7 000          $$$1403B,7
  51852  0000AEC8  00000001 USING  ORDINARY    00000000 00001000 FFFFFFF7   7 000          @R7,7
  51897  0000AEF0  00000001 USING  ORDINARY    0000AEF0 00001000 00000001   7 000          $$$1408B,7
  51927  0000AEF8  00000001 USING  ORDINARY    00000000 00001000 FFFFFFF7   7 000          @R7,7
  51948  0000AF06  00000001 USING  ORDINARY    00000000 00001000 FFFFFFF9   5 000          @R5,5
  51992  0000AF20  00000001 USING  ORDINARY    0000AF20 00001000 00000001   7 25A   52322  $$$1413B,7
  52338  0000AFF6  00000001 USING  ORDINARY    00000000 00001000 FFFFFFF7   7 000          @R7,7
  52450  0000B1AC  00000001 USING  ORDINARY    0000B1AC 00001000 00000001   7 420   52495  $$$1432B,7
  52504  0000B208  00000001 USING  ORDINARY    00000000 00001000 FFFFFFF7   7 000          @R7,7
  52552  0000B230  00000001 USING  ORDINARY    0000B230 00001000 00000001   7 39C   52597  $$$1435B,7
  52606  0000B28C  00000001 USING  ORDINARY    00000000 00001000 FFFFFFF7   7 000          @R7,7
  52805  0000B446  00000001 USING  ORDINARY    0000B446 00001000 00000001   7 162   52818  $$$1438B,7
  52827  0000B452  00000001 USING  ORDINARY    00000000 00001000 FFFFFFF7   7 000          @R7,7
  52872  0000B47A  00000001 USING  ORDINARY    0000B47A 00001000 00000001   7 000          $$$1441B,7
  52891  0000B484  00000001 USING  ORDINARY    00000000 00001000 FFFFFFF7   7 000          @R7,7
  52936  0000B4AC  00000001 USING  ORDINARY    0000B4AC 00001000 00000001   7 000          $$$1444B,7
  52955  0000B4B6  00000001 USING  ORDINARY    00000000 00001000 FFFFFFF7   7 000          @R7,7
  53000  0000B4DE  00000001 USING  ORDINARY    0000B4DE 00001000 00000001   7 000          $$$1447B,7
  53019  0000B4E8  00000001 USING  ORDINARY    00000000 00001000 FFFFFFF7   7 000          @R7,7
  53098  0000B510  00000001 USING  ORDINARY    0000B510 00001000 00000001   7 0BC   53213  $$$1450B,7
  53112  0000B510  00000001 USING  ORDINARY    FFFFFFD8 00001000 FFFFFFDB   8 028   53222  GETCWA-(4+36),R8
  53243  0000B596  00000001 USING  ORDINARY    00000000 00001000 FFFFFFF6   8 000          @R8,8
  53248  0000B596  00000001 USING  ORDINARY    00000000 00001000 FFFFFFF7   7 000          @R7,7
  53327  0000B5E8  00000001 USING  ORDINARY    0000B5E8 00001000 00000001   7 3C3   53943  $$$1456B,7
  53345  0000B5EC  00000001 USING  ORDINARY    00000000 00001000 FFFFFFE1   6 1F4   53939  KWR,R6
  53957  0000B75E  00000001 USING  ORDINARY    00000000 00001000 FFFFFFF7   7 000          @R7,7
  53977  0000B76C  00000001 USING  ORDINARY    00000000 00001000 FFFFFFF8   6 000          @R6,6
  54047  0000B786  00000001 USING  ORDINARY    0000B786 00001000 00000001   7 234   54256  $$$1487B,7
  54061  0000B786  00000001 USING  ORDINARY    FFFFFFD8 00001000 FFFFFFDA   8 02C   54236  KLGCMPWA-(4+36),R8
  54277  0000B814  00000001 USING  ORDINARY    00000000 00001000 FFFFFFF6   8 000          @R8,8
  54282  0000B814  00000001 USING  ORDINARY    00000000 00001000 FFFFFFF7   7 000          @R7,7
  54381  0000B9DA  00000001 USING  ORDINARY    0000B9DA 00001000 00000001   7 0EC   54567  $$$1500B,7
  54409  0000B9F0  00000001 USING  ORDINARY    00000000 00001000 FFFFFFE2   3 007   54416  KRBREC,R3
1ACMD     (ACMD4072) (12:39) (15MAR04) Using Map                                                                            Page  249
  54422  0000BA0E  00000001 USING  ORDINARY    00000000 00001000 FFFFFFFB   3 000          @R3,3
  54497  0000BA5A  00000001 USING  ORDINARY    00000000 00001000 FFFFFFE2   2 012   54501  KRBREC,R2
  54507  0000BA66  00000001 USING  ORDINARY    00000000 00001000 FFFFFFFC   2 000          @R2,2
  54582  0000BA98  00000001 USING  ORDINARY    00000000 00001000 FFFFFFF7   7 000          @R7,7
  54670  0000BAE2  00000001 USING  ORDINARY    0000BAE2 00001000 00000001   7 8A2   55131  $$$1508B,7
  54713  0000BAFE  00000001 USING  ORDINARY    00000000 00001000 FFFFFFE1   6 1F4   55695  KWR,R6
  55139  0000BC76  00000001 USING  ORDINARY    00000000 00001000 FFFFFFF7   7 000          @R7,7
  55292  0000BDB6  00000001 USING  ORDINARY    0000BDB6 00001000 00000001   7 000          $$$1522B,7
  55308  0000BDBA  00000001 USING  ORDINARY    00000000 00001000 FFFFFFF7   7 000          @R7,7
  55353  0000BDE2  00000001 USING  ORDINARY    0000BDE2 00001000 00000001   7 000          $$$1525B,7
  55369  0000BDE6  00000001 USING  ORDINARY    00000000 00001000 FFFFFFF7   7 000          @R7,7
  55414  0000BE0E  00000001 USING  ORDINARY    0000BE0E 00001000 00000001   7 579   55499  $$$1528B,7
  55437  0000BE1A  00000001 USING  ORDINARY    00000000 00001000 FFFFFFE7   1 062   55449  JCB,R1
  55456  0000BE1E  00000001 USING  ORDINARY    00000000 00001000 FFFFFFFD   1 000   56231  @R1,1
  55513  0000BE5E  00000001 USING  ORDINARY    00000000 00001000 FFFFFFF7   7 000          @R7,7
  55560  0000BE86  00000001 USING  ORDINARY    0000BE86 00001000 00000001   7 51C   55741  $$$1532B,7
  55755  0000BF18  00000001 USING  ORDINARY    00000000 00001000 FFFFFFF7   7 000          @R7,7
  55777  0000BF26  00000001 USING  ORDINARY    00000000 00001000 FFFFFFF8   6 000          @R6,6
  55819  0000BF40  00000001 USING  ORDINARY    0000BF40 00001000 00000001   7 4C4   56248  $$$1538B,7
  56256  0000C09E  00000001 USING  ORDINARY    00000000 00001000 FFFFFFF7   7 000          @R7,7
  56318  0000C0F8  00000001 USING  ORDINARY    0000C0F8 00001000 00000001   7 2DE   56502  $$$1553B,7
  56518  0000C18E  00000001 USING  ORDINARY    00000000 00001000 FFFFFFE7  15 062   56529  JCB,R15
  56536  0000C192  00000001 USING  ORDINARY    00000000 00001000 FFFFFFEF  15 000          @R15,15
  56549  0000C196  00000001 USING  ORDINARY    00000000 00001000 FFFFFFF7   7 000          @R7,7
  56601  0000C1BE  00000001 USING  ORDINARY    0000C1BE 00001000 00000001   7 243   56705  $$$1560B,7
  56713  0000C1FE  00000001 USING  ORDINARY    00000000 00001000 FFFFFFF7   7 000          @R7,7
  56765  0000C226  00000001 USING  ORDINARY    0000C226 00001000 00000001   7 1DC   56876  $$$1564B,7
  56884  0000C272  00000001 USING  ORDINARY    00000000 00001000 FFFFFFF7   7 000          @R7,7

1         (ACMD4072) (12:39) (15MAR04) General Purpose Register Cross Reference                                             Page  250
- Register  References (M=modified, B=branch, U=USING, D=DROP, N=index)                      HLASM R4.0  2004/03/15 12.39
0    0(0)      982U   983D  2101   2169M  2169   2170M  8053   8111M  8152M  8190M  8190   8199   8200   8242M  8387M
              8440   8498M  8525M  8546M  8604M  8639   8696M  8724M  8802M  8835   8864M  8885M  8899M  8915M  8941
              8999M  9073M  9073   9082   9083   9169M  9298   9332M  9332   9341   9369M  9369   9381M  9400   9485
              9601   9717   9823   9904M  9924   9971M  9991  10038M 10058  10106M 10126  10176  10282M 10362  10401M
             10421M 10443M 10469M 10524M 10552M 10577M 10577  10617M 10639M 10658M 10684M 10684  10712M 10781  10843M
             10843  10852  10853  10854  10881M 10881  10921M 11354M 11354  11363  11364  11735M 11789  11831M 11850M
             11883  11935M 11979M 11997M 12031M 12060  12091M 12122M 12232  12290M 12327M 12327  12336  12337  12379M
             12409M 12452M 13048  13099M 13119  13171M 13191  13253M 13253  13262  13293  13362M 13404M 13446M 13514M
             13534  13585M 13605  13657M 13677  13728M 13748  13800M 13820  13886M 13906  13972M 13992  14054M 14074
             14137M 14158  14209M 14229  14281M 14302  14353M 14373  14425M 14460  14518M 14566M 14603  14661M 14689M
             14728M 14756M 14797M 14825M 14843M 14877M 14896M 14929M 14948M 14981M 15000M 15033M 15052M 15077M 15102M
             15136M 15155M 15189M 15208M 15245M 15266M 15291M 15324M 15345M 15380M 15408M 15494  15552M 15589M 15589
             15598  15599  15641M 15701M 15859  15912M 15932  15986M 16006  16059M 16079  16133M 16153  16206M 16226
             16280M 16315  16373M 16388M 16416M 16434M 16462M 16497M 16525M 16543M 16565M 16582M 16604M 16630M 16671M
             16671  16688M 16708M 16730M 16756M 16795M 16830M 16852M 16877M 16877  16896M 16931M 16953M 16988M 17010M
             17045M 17067M 17110M 17144  17202M 17239M 17239  17248  17249  17424M 17537  17584M 17604  17662  17669M
             17682M 17682  17689M 17694  17713M 17733  17783M 17818  17876M 17936M 17954M 18002M 18036M 18058M 18058
             18076M 18115M 18136M 18136  18154M 18172M 18219M 18253  18311M 18348M 18348  18357  18358  18400M 18430M
             18473M 18646  18697M 18717  18769M 18803  18861M 18878M 18930M 18967  19025M 19053M 19096M 19124M 19167M
             19195M 19238M 19266M 19308M 19348M 19370M 19389M 19417M 19518  19576M 19613M 19613  19622  19623  19665M
             19695M 19738M 19975  20026M 20046  20098M 20118  20169M 20189  20241M 20261  20310  20369M 20389M 20409
             20462M 20482  20514  20531  20550M 20571  20632  20643M 20643  20652  20653  20694M 20835  20866M 20882M
             20902  20949M 20969  21016M 21036  21083M 21103  21158M 21176M 21192M 21212  21252M 21274  21325M 21345
             21397M 21432  21490M 21538M 21575  21633M 21655M 21690M 21712M 21747M 21785M 21813M 21847M 21874M 21874
             21915M 21942M 21942  21983M 22002M 22018M 22039M 22064M 22089M 22124M 22152M 22243  22318M 22318  22327
             22328  22360M 22372M 22372  22381  22382  22407M 22407  22442M 22524  22582M 22616  22649M 22649  22658
             22659  22660  22696  22731M 22745M 22745  22892M 22917  22983M 23015M 23031M 23052M 23077  23135M 23135
             23144  23145  23146  23178M 23178  23212  23247M 23275M 23300  23366M 23398M 23414M 23435M 23496  23529M
             23529  23538  23539  23540  23572M 23572  23583M 23627M 23653  23719M 23719  23728  23729  23730  23788M
             23877M 23889M 23889  23898  23899  23956  23961M 24014M 24042M 24125M 24143M 24171M 24189M 24227M 24257M
             24279M 24309M 24339M 24373M 24458M 24471M 24491M 24509M 24560M 24576M 24599M 24626M 24653M 24698M 24698
             24729M 24730M 24764M 24800M 24813M 24814M 24848M 24877M 24877  24949M 24977M 25005M 25025M 25048M 25075M
             25123M 25159M 25212M 25309M 25386M 25463M 25593M 25632M 25649M 25667M 25730M 25812  25853M 25904  25959M
             25980M 26003M 26021M 26056M 26069M 26103M 26143M 26173M 26173  26211M 26237  26321M 26321  26330  26331
             26332  26360M 26360  26371M 26394M 26402M 26423M 26438M 26438  26447  26448  26472M 26493M 26516M 26543M
             26626  26673M 26693  26735M 26758M 26778  26804  26819M 26852  26884M 26884  26893  26894  26937M 27087
             27129M 27150M 27150  27191M 27209M 27228M 27318M 27348  27359M 27384M 27474M 27555M 27575M 27634  27698M
             27710M 27710  27719  27720  27757M 27757  27809M 27825M 27848M 27882M 27902  27944M 27972M 27988M 28004M
             28027M 28061M 28092  28103M 28133  28144M 28204M 28222M 28245M 28263M 28281M 28299M 28317M 28335M 28360M
             28360  28384M 28402M 28442M 28460M 28514M 28549M 28665  28723M 28771M 28812  28871M 28905M 28918M 28993M
             29021M 29055M 29055  29082M 29116  29174M 29222M 29263  29322M 29355M 29372  29377M 29444M 29465M 29465
             29506M 29539M 29539  29566M 29622  29683M 29683  29692  29693  29722M 29722  29748M 29760M 29760  29769
             29770  29771  29798M 29798  29830M 29887M 30088  30129M 30154  30215M 30231M 30253M 30285M 30333M 30358M
             30421M 30452  30483M 30499M 30519M 30540M 30645  30749M 30767M 30767  30776  30777  30778  30805M 30805
             30834M 30835M 30835  30848M 30848  30857  30858  30859  30906M 30922M 31042M 31042  31051  31052  31093M
             31147M 31175M 31203M 31231M 31251M 31323M 31480  31527M 31547  31594M 31614  31661M 31681  31728M 31748
             31795M 31815  31862M 31937  32000M 32030M 32403M 32417M 32592M 32594M 32606M 32633  32960M 32982M 33004M
             33056M 33097M 33217M 33245M 33263M 33291M 33309M 33336M 33366M 33386M 33410M 33502  33509M 33524M 33592
             33599M 33614M 33678M 33704M 35261  35308M 35308  35317  35318  35360M 35360  35369  35370  35409M 35432
             35484M 35504  35555M 35575  35627M 35647  35698M 35718  35767M 35787  35836M 35856  35905M 35925  35974M
             35994  36043M 36063  36112M 36132  36164M 36198M 36218  36325M 36354M 36374  36426M 36446  36497M 36517
             36587M 36607  36659M 36679  36730M 36750  36802M 36822  36873M 36893  36945M 36965  37016M 37036  37088M
             37108  37165M 37185  37242M 37262  37317M 37337  37392M 37412  37463M 37483  37535M 37555  37629M 37649
             37700M 37720  37772M 37793  37840  37953  38068M 38089  38136  38210M 38255  38343M 38363  38451M 38471
             38559M 38579  38667M 38687  38741M 38762  38809M 38829  38916M 38936  39000M 39021  39068M 39088  39186M
1         (ACMD4072) (12:39) (15MAR04) General Purpose Register Cross Reference                                             Page  251
             39206  39253M 39273  39397M 39417  39464M 39484  39579M 39610M 39630  39681M 39701  39753M 39773  39824M
             39844  39896M 39916  39968M 39988  40039M 40059  40206M 40226  40277M 40297  40349M 40369  40420M 40440
             40492M 40512  40564M 40584  40635M 40655  40706M 40726  40778M 40798  40852M 40872  40923M 40943  40997M
             41017  41068M 41088  41135M 41155  41272M 41292  41390M 41410  41451  41473  41531M 41549M 41640M 41660
             41697  41741M 41761  41814M 41834  41871  41908M 41954M 41974  42027M 42047  42084  42121M 42144M 42164
             42217M 42237  42287M 42307  42353M 42628  42685M 42715M 43049M 43049  43058  43059  43112M 43130M 43158M
             43176M 43210M 43263M 43288M 43291  43303M 43346M 43380M 43448  43494M 43566  43632M 43650M 43678M 43712M
             43740M 43758M 43797M 43825M 43843M 43883M 43919M 43940M 43995M 44034M 44073M 44127M 44166M 44205M 44244M
             44287M 44316M 44316  44401M 44419M 44455M 44473M 44496M 44559M 44559  44589M 44615M 44652M 44729M 44750M
             44750  44772M 44798M 44824M 44850M 44876M 44902M 44928M 44954M 44980M 45006M 45032M 45058M 45084M 45167M
             45200M 45222M 45250M 45266M 45266  45288M 45314M 45340M 45366M 45427M 45427  45463M 45502M 45544M 45578M
             45608M 45638M 45663M 45679M 45701M 45723M 45723  45739M 45789M 45811M 45811  45829M 45892M 45892  45925M
             45971M 45999M 46015M 46065M 46093M 46109M 46159M 46187M 46249M 46249  46285M 46301M 46323M 46349M 46382M
             46403M 46455M 46483M 46517M 46556M 46584M 46646M 46646  46680M 46726M 46739M 46740M 46774M 46791M 46791
             46792M 46793M 46827M 46865M 46878M 46879M 46913M 46955M 46968M 46969M 47003M 47025M 47041M 47091M 47091
             47112M 47158M 47179M 47179  47220M 47236M 47286M 47308M 47308  47347M 47397M 47419M 47419  47504M 47504
             47541M 47559M 47580M 47580  47598M 47619M 47619  47648M 47694M 47710M 47761M 47777M 47828M 47844M 47895M
             47911M 47962M 47978M 48028M 48044M 48094M 48094  48127M 48173M 48189M 48242M 48258M 48279M 48307M 48307
             48341M 48403M 48403  48428M 48455  48471M 48536M 48552M 48616M 48632M 48686M 48686  48709M 48730M 48794M
             48856M 48856  48889M 49055  49090  49108M 49108  49117  49118  49245M 49275M 49295M 49362  49403M 49423
             49464M 49488  49522M 49568M 49595M 49632M 49657  49733M 49751M 49779M 49797M 49828M 49851  49882M 49910M
             49928M 49956M 49975M 49991M 50013  50044M 50072M 50090M 50118M 50136M 50152M 50175  50251M 50292  50372M
             50392  50468M 50509  50589M 50609  50705M 50725  50824M 50842M 50866M 50886  50981M 51001  51054M 51074
             51169M 51189  51313M 51333  51386M 51406  51501M 51521  51558  51634M 51654  51707M 51727  51786M 51806
             51860M 51880  51935M 51975  52026M 52077M 52116M 52155M 52194M 52233M 52272M 52311M 52346M 52433  52466M
             52466  52475  52476  52512M 52535  52568M 52568  52577  52578  52614M 52788  52819M 52835M 52855  52881
             52899M 52919  52945  52963M 52983  53009  53027M 53080  53132M 53132  53141  53142  53143  53170M 53170
             53256M 53310  53336  53355M 53381M 53400M 53447M 53475M 53493M 53521M 53540M 53916M 53916  53934M 53965M
             54029  54066  54290M 54364  54395M 54400  54412M 54413  54424M 54425  54472  54499M 54500M 54516  54539M
             54539  54540M 54543  54545  54590M 54653  54686  54721M 54783M 54797M 54857M 54915  54954M 54954  54963
             54964  55008M 55008  55017  55018  55147M 55275  55316M 55336  55377M 55397  55425  55467M 55500M 55521M
             55543  55587M 55626M 55654M 55672M 55700M 55719M 55730M 55763M 55802  55838M 55898M 55945M 55945  55979
             55990M 55990  55999  56000  56001  56034M 56066M 56066  56124M 56155  56179M 56200  56243  56264M 56301
             56383M 56421M 56421  56439M 56457M 56491M 56557M 56584  56647M 56671M 56721M 56748  56799M 56821M 56842M
             56842  56892M
     1(1)      978U  2101   2164M  2165M  2171M  8053   8151M  8186M  8199N  8200N  8202N  8241M  8387M  8440   8520M
              8545M  8604M  8639   8695M  8802M  8835   8863M  8884M  8898M  8915M  8941   9069M  9082N  9083N  9085N
              9135M  9169M  9298   9328M  9341N  9380M  9408M  9409M  9409N  9506M  9507M  9507N  9622M  9623M  9623N
              9738M  9739M  9739N  9904M  9924   9971M  9991  10038M 10058  10106M 10126  10282M 10362  10388  10400M
             10420M 10442M 10464M 10523M 10547M 10616M 10638M 10657M 10712M 10781  10839M 10852N 10853N 10854N 10916M
             11350M 11363N 11364N 11366N 11735M 11789  11826M 11850M 11883  11934M 11974M 11996M 12031M 12060  12090M
             12122M 12232  12323M 12336N 12337N 12339N 12378M 12418M 12452M 13048  13099M 13119  13171M 13191  13249M
             13262N 13307  13355M 13397M 13439M 13514M 13534  13585M 13605  13657M 13677  13728M 13748  13800M 13820
             13886M 13906  13972M 13992  14054M 14074  14137M 14158  14209M 14229  14281M 14302  14353M 14373  14425M
             14460  14532M 14566M 14603  14629  14660M 14684M 14727M 14751M 14796M 14820M 14842M 14876M 14895M 14928M
             14947M 14980M 14999M 15032M 15051M 15076M 15101M 15135M 15154M 15188M 15207M 15244M 15265M 15290M 15323M
             15344M 15379M 15408M 15494  15585M 15598N 15599N 15601N 15640M 15701M 15859  15912M 15932  15986M 16006
             16059M 16079  16133M 16153  16206M 16226  16280M 16315  16387M 16411M 16433M 16457M 16496M 16520M 16542M
             16564M 16581M 16603M 16625M 16687M 16707M 16729M 16751M 16794M 16829M 16851M 16895M 16930M 16952M 16987M
             17009M 17044M 17066M 17110M 17144  17235M 17248N 17249N 17251N 17424M 17537  17584M 17604  17713M 17733
             17783M 17818  17935M 17953M 18001M 18035M 18054M 18075M 18114M 18132M 18153M 18171M 18219M 18253  18344M
             18357N 18358N 18360N 18399M 18439M 18473M 18646  18697M 18717  18769M 18803  18896M 18930M 18967  18993
             19024M 19048M 19095M 19119M 19166M 19190M 19237M 19261M 19307M 19347M 19369M 19388M 19417M 19518  19609M
             19622N 19623N 19625N 19664M 19704M 19738M 19975  20026M 20046  20098M 20118  20169M 20189  20241M 20261
             20368M 20389M 20409  20462M 20482  20550M 20571  20631  20639M 20652N 20653N 20655N 20694M 20835  20865M
             20882M 20902  20949M 20969  21016M 21036  21083M 21103  21157M 21175M 21192M 21212  21252M 21274  21325M
             21345  21397M 21432  21504M 21538M 21575  21601  21632M 21654M 21689M 21711M 21746M 21784M 21808M 21846M
             21881M 21914M 21949M 21982M 22001M 22017M 22038M 22063M 22088M 22123M 22152M 22243  22314M 22327N 22328N
             22330N 22368M 22381N 22382N 22384N 22408M 22442M 22524  22582M 22616  22645M 22658N 22659N 22660N 22730M
1         (ACMD4072) (12:39) (15MAR04) General Purpose Register Cross Reference                                             Page  252
             22892M 22917  22982M 23010M 23030M 23052M 23077  23131M 23144N 23145N 23146N 23246M 23275M 23300  23365M
             23393M 23413M 23435M 23496  23525M 23538N 23539N 23540N 23561M 23562M 23562N 23582M 23627M 23653  23715M
             23728N 23729N 23730N 23787M 23885M 23898N 23899N 23901N 23965M 23965  24007M 24037M 24120M 24142M 24166M
             24188M 24226M 24256M 24278M 24308M 24338M 24372M 24457M 24472M 24508M 24553M 24575M 24598M 24625M 24652M
             24763M 24799M 24847M 24944M 24972M 24998M 25024M 25047M 25074M 25116M 25166M 25219M 25316M 25393M 25470M
             25533D 25535M 25535  25536M 25537U 25549  25556M 25568  25600M 25631M 25650M 25730M 25812  25853M 25904
             25975M 25998M 26020M 26055M 26102M 26142M 26211M 26237  26317M 26330N 26331N 26332N 26370M 26389M 26418M
             26434M 26447N 26448N 26450N 26488M 26515M 26543M 26626  26673M 26693  26730M 26758M 26778  26819M 26852
             26880M 26893N 26894N 26896N 26937M 27087  27113  27128M 27157M 27190M 27208M 27227M 27317M 27358M 27383M
             27473M 27575M 27634  27706M 27719N 27720N 27722N 27808M 27824M 27847M 27881M 27902  27904M 27914U 27933U
             27944M 27971M 27987M 28003M 28026M 28060M 28102M 28143M 28166M 28203M 28221M 28244M 28262M 28280M 28298M
             28316M 28334M 28383M 28401M 28441M 28459M 28506M 28549M 28665  28737M 28771M 28812  28838  28870M 28904M
             28922M 28922  28992M 29016M 29082M 29116  29188M 29222M 29263  29289  29321M 29354M 29381M 29381  29443M
             29472M 29505M 29566M 29622  29679M 29692N 29693N 29695N 29743M 29756M 29769N 29770N 29771N 29829M 29887M
             30088  30129M 30154  30214M 30230M 30252M 30284M 30328M 30354M 30421M 30452  30482M 30498M 30518M 30540M
             30645  30748M 30763M 30776N 30777N 30778N 30833M 30844M 30857N 30858N 30859N 30905M 30921M 31038M 31051N
             31052N 31054N 31089M 31142M 31170M 31198M 31226M 31323M 31480  31527M 31547  31594M 31614  31661M 31681
             31728M 31748  31795M 31815  31862M 31937  32402M 32416M 32593M 32594M 32613M 32953M 32975M 32997M 33055M
             33096M 33216M 33240M 33262M 33286M 33308M 33335M 33343M 33365M 33385M 33409M 33485M 33502  33508M 33524M
             33575M 33592  33598M 33614M 33666M 33704M 35261  35304M 35317N 35318N 35320N 35356M 35369N 35370N 35372N
             35409M 35432  35484M 35504  35555M 35575  35627M 35647  35698M 35718  35767M 35787  35836M 35856  35905M
             35925  35974M 35994  36043M 36063  36112M 36132  36163M 36198M 36218  36324M 36354M 36374  36426M 36446
             36497M 36517  36587M 36607  36659M 36679  36730M 36750  36802M 36822  36873M 36893  36945M 36965  37016M
             37036  37088M 37108  37165M 37185  37242M 37262  37317M 37337  37392M 37412  37463M 37483  37535M 37555
             37629M 37649  37700M 37720  37772M 37793  38068M 38089  38123M 38124M 38124N 38210M 38255  38343M 38363
             38451M 38471  38559M 38579  38667M 38687  38741M 38762  38809M 38829  38916M 38936  39000M 39021  39068M
             39088  39186M 39206  39253M 39273  39397M 39417  39464M 39484  39578M 39610M 39630  39681M 39701  39753M
             39773  39824M 39844  39896M 39916  39968M 39988  40039M 40059  40206M 40226  40277M 40297  40349M 40369
             40420M 40440  40492M 40512  40564M 40584  40635M 40655  40706M 40726  40778M 40798  40852M 40872  40923M
             40943  40997M 41017  41068M 41088  41135M 41155  41272M 41292  41390M 41410  41530M 41548M 41640M 41660
             41720M 41721M 41721N 41741M 41761  41814M 41834  41903M 41954M 41974  42027M 42047  42116M 42144M 42164
             42217M 42237  42287M 42307  42353M 42628  43045M 43058N 43059N 43061N 43107M 43129M 43153M 43175M 43217M
             43256M 43283M 43340M 43380M 43448  43494M 43566  43606  43627M 43649M 43673M 43711M 43735M 43757M 43796M
             43820M 43842M 43882M 43918M 43939M 43994M 44033M 44072M 44126M 44165M 44204M 44243M 44286M 44394M 44418M
             44448M 44472M 44486M 44495M 44509M 44588M 44610M 44651M 44724M 44771M 44797M 44823M 44849M 44875M 44901M
             44927M 44953M 44979M 45005M 45031M 45057M 45083M 45166M 45199M 45221M 45245M 45287M 45313M 45339M 45365M
             45456M 45501M 45543M 45577M 45607M 45637M 45662M 45678M 45700M 45719M 45738M 45788M 45807M 45828M 45918M
             45970M 45994M 46014M 46064M 46088M 46108M 46158M 46182M 46278M 46300M 46322M 46344M 46381M 46402M 46454M
             46478M 46516M 46555M 46579M 46673M 46725M 46773M 46826M 46864M 46912M 46954M 47002M 47024M 47040M 47111M
             47157M 47186M 47219M 47235M 47285M 47315M 47346M 47396M 47426M 47534M 47558M 47576M 47597M 47615M 47641M
             47693M 47709M 47760M 47776M 47827M 47843M 47894M 47910M 47961M 47977M 48027M 48043M 48120M 48172M 48188M
             48241M 48257M 48278M 48340M 48435M 48464M 48535M 48551M 48615M 48631M 48708M 48739M 48739  48793M 48889M
             49055  49104M 49117N 49118N 49120N 49244M 49276M 49295M 49362  49403M 49423  49464M 49488  49521M 49567M
             49594M 49632M 49657  49728M 49750M 49774M 49796M 49828M 49851  49881M 49905M 49927M 49951M 49974M 49991M
             50013  50043M 50067M 50089M 50113M 50135M 50152M 50175  50250M 50372M 50392  50467M 50589M 50609  50683M
             50684M 50684N 50686M 50705M 50725  50799M 50800M 50800N 50823M 50841M 50866M 50886  50960M 50961M 50961N
             50981M 51001  51054M 51074  51148M 51149M 51149N 51169M 51189  51263M 51264M 51264N 51313M 51333  51386M
             51406  51480M 51481M 51481N 51501M 51521  51634M 51654  51707M 51727  51786M 51806  51860M 51880  51935M
             51975  52001  52025M 52076M 52115M 52154M 52193M 52232M 52271M 52310M 52346M 52433  52462M 52475N 52476N
             52478N 52512M 52535  52564M 52577N 52578N 52580N 52614M 52788  52818M 52835M 52855  52899M 52919  52963M
             52983  53027M 53080  53128M 53141N 53142N 53143N 53256M 53310  53337  53354M 53380M 53399M 53446M 53470M
             53492M 53516M 53539M 53939M 53940M 53940  53965M 54029  54130M 54142M 54143M 54143  54154  54160M 54161M
             54162  54194M 54195M 54195  54206  54212M 54213M 54214  54290M 54364  54401  54489  54501M 54517  54542M
             54590M 54653  54687  54720M 54779M 54796M 54852M 54914  54950M 54963N 54964N 54966N 55004M 55017N 55018N
             55020N 55147M 55275  55316M 55336  55377M 55397  55425  55427M 55437U 55456U 55467M 55471M 55472M 55472N
             55499M 55521M 55543  55586M 55625M 55649M 55671M 55695M 55718M 55729M 55763M 55802  55837M 55893M 55978
             55986M 55999N 56000N 56001N 56033M 56055M 56056M 56056N 56123M 56178M 56264M 56301  56438M 56456M 56490M
             56557M 56584  56646M 56678M 56721M 56748  56798M 56820M 56849M 56892M
     2(2)      974U  2101   8053   8387M  8440   8604M  8639   8802M  8835   8915M  8941   9169M  9298   9904M  9924
1         (ACMD4072) (12:39) (15MAR04) General Purpose Register Cross Reference                                             Page  253
              9971M  9991  10038M 10058  10106M 10126  10282M 10362  10712M 10781  11392M 11392  11413M 11434M 11463M
             11463  11503M 11543M 11583M 11623M 11663M 11681M 11681  11735M 11789  11850M 11883  12031M 12060  12122M
             12232  12452M 13048  13099M 13119  13171M 13191  13387M 13388M 13429M 13430M 13471M 13472M 13481M 13481
             13495  13514M 13534  13585M 13605  13657M 13677  13728M 13748  13800M 13820  13886M 13906  13972M 13992
             14054M 14074  14137M 14158  14209M 14229  14281M 14302  14353M 14373  14425M 14460  14566M 14603  15408M
             15494  15701M 15859  15912M 15932  15986M 16006  16059M 16079  16133M 16153  16206M 16226  16280M 16315
             17110M 17144  17333M 17366M 17379M 17379  17424M 17537  17584M 17604  17713M 17733  17783M 17818  18219M
             18253  18473M 18646  18697M 18717  18769M 18803  18930M 18967  19417M 19518  19738M 19975  20026M 20046
             20098M 20118  20169M 20189  20241M 20261  20389M 20409  20462M 20482  20550M 20571  20694M 20835  20882M
             20902  20949M 20969  21016M 21036  21083M 21103  21192M 21212  21252M 21274  21325M 21345  21397M 21432
             21538M 21575  22152M 22243  22442M 22524  22582M 22616  22892M 22917  23052M 23077  23275M 23300  23435M
             23496  23627M 23653  23956M 24420D 24422M 24422  24423M 24424U 24436  24443M 24448  25730M 25812  25853M
             25904  25966M 26211M 26237  26409M 26479M 26543M 26626  26673M 26693  26758M 26778  26819M 26852  26937M
             27087  27575M 27634  28549M 28665  28771M 28812  29082M 29116  29222M 29263  29372M 29424M 29425M 29426M
             29566M 29622  29887M 30088  30129M 30154  30421M 30452  30540M 30645  31323M 31480  31527M 31547  31594M
             31614  31661M 31681  31728M 31748  31795M 31815  31862M 31937  32572M 32592  32965M 32966M 32987M 32988M
             33009M 33010M 33011  33704M 35261  35409M 35432  35484M 35504  35555M 35575  35627M 35647  35698M 35718
             35767M 35787  35836M 35856  35905M 35925  35974M 35994  36043M 36063  36112M 36132  36198M 36218  36354M
             36374  36426M 36446  36497M 36517  36587M 36607  36659M 36679  36730M 36750  36802M 36822  36873M 36893
             36945M 36965  37016M 37036  37088M 37108  37165M 37185  37242M 37262  37317M 37337  37392M 37412  37463M
             37483  37535M 37555  37629M 37649  37700M 37720  37772M 37793  38068M 38089  38210M 38255  38343M 38363
             38451M 38471  38559M 38579  38667M 38687  38741M 38762  38809M 38829  38916M 38936  39000M 39021  39068M
             39088  39186M 39206  39253M 39273  39397M 39417  39464M 39484  39610M 39630  39681M 39701  39753M 39773
             39824M 39844  39896M 39916  39968M 39988  40039M 40059  40148M 40171  40179  40181M 40182  40206M 40226
             40277M 40297  40349M 40369  40420M 40440  40492M 40512  40564M 40584  40635M 40655  40706M 40726  40778M
             40798  40852M 40872  40923M 40943  40997M 41017  41068M 41088  41135M 41155  41272M 41292  41390M 41410
             41640M 41660  41741M 41761  41814M 41834  41954M 41974  42027M 42047  42144M 42164  42217M 42237  42287M
             42307  42353M 42628  43380M 43448  43494M 43566  44581M 44581  44583M 45155M 45155  45161M 45408M 45408
             45689M 45690M 45690  45719  45777M 45778M 45778  45807  46690M 46691M 46691  46739  46850D 46852M 46852
             46853M 46854U 46878  46940D 46942M 46942  46943M 46944U 46968  47122M 47123M 47123  47175  47250M 47251M
             47251  47299M 47304  47361M 47362M 47362  47410M 47415  48889M 49055  49295M 49362  49403M 49423  49464M
             49488  49632M 49657  49828M 49851  49991M 50013  50152M 50175  50372M 50392  50589M 50609  50705M 50725
             50866M 50886  50981M 51001  51054M 51074  51169M 51189  51313M 51333  51386M 51406  51501M 51521  51634M
             51654  51707M 51727  51786M 51806  51860M 51880  51935M 51975  52001M 52346M 52433  52512M 52535  52614M
             52788  52835M 52855  52899M 52919  52963M 52983  53027M 53080  53256M 53310  53965M 54029  54066M 54069
             54081M 54086  54090M 54099M 54099  54106  54130M 54290M 54364  54400M 54425M 54489M 54497U 54507U 54516M
             54530  54590M 54653  55147M 55275  55316M 55336  55377M 55397  55521M 55543  55763M 55802  56264M 56301
             56363M 56364M 56365  56377  56403  56557M 56584  56641M 56664  56721M 56748  56774M 56786  56792M 56793M
             56793  56838  56892M
     3(3)      970U  2101   8053   8387M  8440   8604M  8639   8802M  8835   8915M  8941   9169M  9298   9904M  9924
              9971M  9991  10038M 10058  10106M 10126  10282M 10362  10712M 10781  11735M 11789  11850M 11883  12031M
             12060  12122M 12232  12452M 13048  13099M 13119  13171M 13191  13307M 13397  13514M 13534  13585M 13605
             13657M 13677  13728M 13748  13800M 13820  13886M 13906  13972M 13992  14054M 14074  14137M 14158  14209M
             14229  14281M 14302  14353M 14373  14425M 14460  14566M 14603  15408M 15494  15701M 15859  15912M 15932
             15986M 16006  16059M 16079  16133M 16153  16206M 16226  16280M 16315  17110M 17144  17424M 17537  17584M
             17604  17713M 17733  17783M 17818  17891M 17911M 17925M 17925  17991  18054  18219M 18253  18473M 18646
             18697M 18717  18769M 18803  18930M 18967  19417M 19518  19738M 19975  20026M 20046  20098M 20118  20169M
             20189  20241M 20261  20389M 20409  20462M 20482  20550M 20571  20694M 20835  20882M 20902  20949M 20969
             21016M 21036  21083M 21103  21192M 21212  21252M 21274  21325M 21345  21397M 21432  21538M 21575  22152M
             22243  22442M 22524  22582M 22616  22892M 22917  23052M 23077  23275M 23300  23435M 23496  23627M 23653
             23960M 23960  25730M 25812  25853M 25904  26211M 26237  26543M 26626  26673M 26693  26758M 26778  26819M
             26852  26937M 27087  27146  27575M 27634  28549M 28665  28771M 28812  29082M 29116  29222M 29263  29376M
             29376  29424M 29425M 29426M 29427M 29461  29566M 29622  29887M 30088  30129M 30154  30421M 30452  30540M
             30645  31076M 31323M 31480  31527M 31547  31594M 31614  31661M 31681  31728M 31748  31795M 31815  31862M
             31937  32934M 32940  32975  33704M 35261  35409M 35432  35484M 35504  35555M 35575  35627M 35647  35698M
             35718  35767M 35787  35836M 35856  35905M 35925  35974M 35994  36043M 36063  36112M 36132  36198M 36218
             36354M 36374  36426M 36446  36497M 36517  36587M 36607  36659M 36679  36730M 36750  36802M 36822  36873M
             36893  36945M 36965  37016M 37036  37088M 37108  37165M 37185  37242M 37262  37317M 37337  37392M 37412
             37463M 37483  37535M 37555  37629M 37649  37700M 37720  37772M 37793  38068M 38089  38210M 38255  38343M
1         (ACMD4072) (12:39) (15MAR04) General Purpose Register Cross Reference                                             Page  254
             38363  38451M 38471  38559M 38579  38667M 38687  38741M 38762  38809M 38829  38916M 38936  39000M 39021
             39068M 39088  39186M 39206  39253M 39273  39397M 39417  39464M 39484  39610M 39630  39681M 39701  39753M
             39773  39824M 39844  39896M 39916  39968M 39988  40039M 40059  40206M 40226  40277M 40297  40349M 40369
             40420M 40440  40492M 40512  40564M 40584  40635M 40655  40706M 40726  40778M 40798  40852M 40872  40923M
             40943  40997M 41017  41068M 41088  41135M 41155  41272M 41292  41390M 41410  41640M 41660  41741M 41761
             41814M 41834  41954M 41974  42027M 42047  42144M 42164  42217M 42237  42287M 42307  42353M 42628  43191M
             43199  43288  43314M 43380M 43448  43494M 43566  48889M 49055  49295M 49362  49403M 49423  49464M 49488
             49632M 49657  49828M 49851  49991M 50013  50152M 50175  50372M 50392  50589M 50609  50705M 50725  50866M
             50886  50981M 51001  51054M 51074  51169M 51189  51313M 51333  51386M 51406  51501M 51521  51634M 51654
             51707M 51727  51786M 51806  51860M 51880  51935M 51975  52346M 52433  52459M 52497  52512M 52535  52561M
             52599  52614M 52788  52835M 52855  52881M 52883  52899M 52919  52945M 52947  52963M 52983  53009M 53011
             53027M 53080  53125M 53176  53227  53256M 53310  53965M 54029  54290M 54364  54401M 54409U 54422U 54515M
             54515  54530  54543M 54544M 54544  54590M 54653  55147M 55275  55316M 55336  55377M 55397  55521M 55543
             55763M 55802  56264M 56301  56557M 56584  56721M 56748  56892M
     4(4)      966U  2101   8053   8387M  8440   8604M  8639   8802M  8835   8915M  8941   9169M  9298   9904M  9924
              9971M  9991  10038M 10058  10106M 10126  10282M 10362  10712M 10781  11735M 11789  11850M 11883  12031M
             12060  12122M 12232  12452M 13048  13099M 13119  13171M 13191  13514M 13534  13585M 13605  13657M 13677
             13728M 13748  13800M 13820  13886M 13906  13972M 13992  14054M 14074  14137M 14158  14209M 14229  14281M
             14302  14353M 14373  14425M 14460  14566M 14603  15408M 15494  15701M 15859  15912M 15932  15986M 16006
             16059M 16079  16133M 16153  16206M 16226  16280M 16315  17110M 17144  17424M 17537  17584M 17604  17713M
             17733  17783M 17818  18219M 18253  18473M 18646  18697M 18717  18769M 18803  18930M 18967  19003M 19069M
             19069  19140M 19140  19211M 19211  19282M 19282  19296M 19296  19417M 19518  19738M 19975  20026M 20046
             20098M 20118  20169M 20189  20241M 20261  20389M 20409  20462M 20482  20550M 20571  20694M 20835  20882M
             20902  20949M 20969  21016M 21036  21083M 21103  21192M 21212  21252M 21274  21325M 21345  21397M 21432
             21538M 21575  22152M 22243  22442M 22524  22582M 22616  22892M 22917  23052M 23077  23275M 23300  23435M
             23496  23627M 23653  25730M 25812  25853M 25904  26211M 26237  26543M 26626  26673M 26693  26758M 26778
             26819M 26852  26937M 27087  27575M 27634  28549M 28665  28771M 28812  29082M 29116  29222M 29263  29566M
             29622  29887M 30088  30129M 30154  30421M 30452  30540M 30645  30691M 30699U 31323M 31480  31527M 31547
             31594M 31614  31661M 31681  31728M 31748  31795M 31815  31862M 31882U 31937  33704M 35261  35409M 35432
             35484M 35504  35555M 35575  35627M 35647  35698M 35718  35767M 35787  35836M 35856  35905M 35925  35974M
             35994  36043M 36063  36112M 36132  36198M 36218  36354M 36374  36426M 36446  36497M 36517  36587M 36607
             36659M 36679  36730M 36750  36802M 36822  36873M 36893  36945M 36965  37016M 37036  37088M 37108  37165M
             37185  37242M 37262  37317M 37337  37392M 37412  37463M 37483  37535M 37555  37629M 37649  37700M 37720
             37772M 37793  38068M 38089  38210M 38255  38343M 38363  38451M 38471  38559M 38579  38667M 38687  38741M
             38762  38809M 38829  38916M 38936  39000M 39021  39068M 39088  39186M 39206  39253M 39273  39397M 39417
             39464M 39484  39610M 39630  39681M 39701  39753M 39773  39824M 39844  39896M 39916  39968M 39988  40039M
             40059  40206M 40226  40277M 40297  40349M 40369  40420M 40440  40492M 40512  40564M 40584  40635M 40655
             40706M 40726  40778M 40798  40852M 40872  40923M 40943  40997M 41017  41068M 41088  41135M 41155  41272M
             41292  41390M 41410  41640M 41660  41741M 41761  41814M 41834  41954M 41974  42027M 42047  42144M 42164
             42217M 42237  42287M 42307  42353M 42628  43190M 43283  43313M 43380M 43448  43494M 43566  43595M 43604U
             48889M 48900U 49055  49090M 49275  49295M 49362  49403M 49423  49464M 49488  49632M 49657  49828M 49851
             49991M 50013  50152M 50175  50372M 50392  50589M 50609  50705M 50725  50866M 50886  50981M 51001  51054M
             51074  51169M 51189  51313M 51333  51386M 51406  51501M 51521  51634M 51654  51707M 51727  51786M 51806
             51860M 51880  51935M 51975  52346M 52433  52512M 52535  52614M 52788  52835M 52855  52899M 52919  52963M
             52983  53027M 53080  53256M 53310  53965M 54029  54290M 54364  54426M 54517M 54541M 54541  54542  54545M
             54590M 54653  55147M 55275  55316M 55336  55377M 55397  55521M 55543  55763M 55802  56264M 56301  56557M
             56584  56721M 56748  56892M
     5(5)      962U  2101   8053   8099M  8107U  8387M  8399U  8440   8486M  8494U  8604M  8616U  8639   8712M  8720U
              8802M  8814U  8835   8915M  8941   8987M  8995U  9169M  9298   9904M  9924   9971M  9991  10038M 10058
             10106M 10126  10282M 10295U 10362  10712M 10781  11735M 11789  11850M 11883  12031M 12060  12122M 12232
             12278M 12286U 12452M 13048  13099M 13119  13171M 13191  13514M 13534  13585M 13605  13657M 13677  13728M
             13748  13800M 13820  13886M 13906  13972M 13992  14054M 14074  14137M 14158  14209M 14229  14281M 14302
             14353M 14373  14425M 14438U 14460  14506M 14514U 14566M 14578U 14603  15408M 15494  15540M 15548U 15701M
             15859  15912M 15932  15986M 16006  16059M 16079  16133M 16153  16206M 16226  16280M 16293U 16315  16361M
             16369U 17110M 17122U 17144  17190M 17198U 17424M 17537  17584M 17604  17713M 17733  17783M 17796U 17818
             17864M 17872U 18219M 18231U 18253  18299M 18307U 18473M 18646  18697M 18717  18769M 18781U 18803  18849M
             18857U 18930M 18942U 18967  19417M 19518  19564M 19572U 19738M 19975  20026M 20046  20098M 20118  20169M
             20189  20241M 20261  20389M 20409  20462M 20482  20550M 20571  20694M 20835  20882M 20902  20949M 20969
             21016M 21036  21083M 21103  21192M 21212  21252M 21274  21325M 21345  21397M 21410U 21432  21478M 21486U
1         (ACMD4072) (12:39) (15MAR04) General Purpose Register Cross Reference                                             Page  255
             21538M 21550U 21575  22152M 22243  22289M 22297U 22442M 22524  22582M 22595U 22616  22796M 22823M 22832M
             22832  22892M 22917  23052M 23077  23275M 23300  23435M 23496  23627M 23653  23699M 23707U 25730M 25742U
             25812  25853M 25904  26211M 26237  26543M 26626  26673M 26693  26758M 26778  26819M 26852  26937M 27087
             27113M 27122U 27575M 27589U 27634  27680M 27688U 28549M 28561U 28665  28711M 28719U 28771M 28783U 28812
             29082M 29116  29162M 29170U 29222M 29234U 29263  29566M 29622  29887M 30088  30129M 30154  30421M 30452
             30540M 30645  31109M 31119U 31296U 31323M 31480  31527M 31547  31594M 31614  31661M 31681  31728M 31748
             31795M 31815  31862M 31937  31983M 31991U 33704M 35261  35409M 35432  35484M 35504  35555M 35575  35627M
             35647  35698M 35718  35767M 35787  35836M 35856  35905M 35925  35974M 35994  36043M 36063  36112M 36132
             36198M 36218  36354M 36374  36426M 36446  36497M 36517  36587M 36607  36659M 36679  36730M 36750  36802M
             36822  36873M 36893  36945M 36965  37016M 37036  37088M 37108  37165M 37185  37242M 37262  37317M 37337
             37392M 37412  37463M 37483  37535M 37555  37629M 37649  37700M 37720  37772M 37793  38068M 38089  38210M
             38255  38343M 38363  38451M 38471  38559M 38579  38667M 38687  38741M 38762  38809M 38829  38916M 38936
             39000M 39021  39068M 39088  39186M 39206  39253M 39273  39397M 39417  39464M 39484  39610M 39630  39681M
             39701  39753M 39773  39824M 39844  39896M 39916  39968M 39988  40039M 40059  40206M 40226  40277M 40297
             40349M 40369  40420M 40440  40492M 40512  40564M 40584  40635M 40655  40706M 40726  40778M 40798  40852M
             40872  40923M 40943  40997M 41017  41068M 41088  41135M 41155  41272M 41292  41390M 41410  41640M 41660
             41741M 41761  41814M 41834  41954M 41974  42027M 42047  42144M 42164  42217M 42237  42287M 42307  42353M
             42366U 42628  42674M 42682U 43380M 43448  43494M 43507U 43566  43606M 43614U 48889M 48907U 49055  49088U
             49295M 49362  49403M 49423  49464M 49488  49632M 49657  49828M 49851  49991M 50013  50152M 50175  50372M
             50392  50589M 50609  50705M 50725  50866M 50886  50981M 51001  51054M 51074  51169M 51189  51313M 51333
             51386M 51406  51501M 51521  51634M 51654  51707M 51727  51786M 51806  51860M 51880  51935M 51948U 51975
             52346M 52433  52512M 52535  52614M 52788  52835M 52855  52899M 52919  52963M 52983  53027M 53080  53256M
             53310  53336M 53433  53555M 53555  53610  53680M 53680  53927  53965M 54029  54290M 54364  54394M 54445
             54478  54590M 54653  54686M 54942M 54942  55147M 55275  55316M 55336  55377M 55397  55521M 55543  55763M
             55802  56264M 56301  56557M 56584  56721M 56748  56892M
     6(6)      958U  2101   8053   8387M  8440   8604M  8639   8802M  8835   8915M  8941   9169M  9298   9904M  9924
              9971M  9991  10038M 10058  10106M 10126  10282M 10362  10388M 10396U 10712M 10724U 10781  10817M 10825U
             11735M 11789  11850M 11862U 11883  12031M 12060  12122M 12232  12452M 13048  13099M 13119  13171M 13191
             13514M 13534  13585M 13605  13657M 13677  13728M 13748  13800M 13820  13886M 13906  13972M 13992  14054M
             14074  14137M 14158  14209M 14229  14281M 14302  14353M 14373  14425M 14460  14566M 14603  14629M 14637U
             15408M 15420U 15494  15701M 15859  15912M 15932  15986M 16006  16059M 16079  16133M 16153  16206M 16226
             16280M 16315  17110M 17144  17424M 17537  17584M 17604  17713M 17733  17783M 17818  18219M 18253  18473M
             18646  18697M 18717  18769M 18803  18930M 18967  18993M 19001U 19417M 19429U 19518  19738M 19975  20026M
             20046  20098M 20118  20169M 20189  20241M 20261  20389M 20409  20462M 20482  20550M 20571  20694M 20835
             20882M 20902  20949M 20969  21016M 21036  21083M 21103  21192M 21212  21252M 21274  21325M 21345  21397M
             21432  21538M 21575  21601M 21609U 22152M 22164U 22243  22442M 22524  22582M 22616  22681M 22682M 22682N
             22752M 22790M 22892M 22917  23052M 23077  23167M 23168M 23168N 23185M 23275M 23300  23435M 23496  23627M
             23653  25730M 25812  25853M 25904  26211M 26237  26280M 26288U 26543M 26626  26673M 26693  26758M 26778
             26819M 26831U 26852  26937M 27087  27575M 27634  28549M 28665  28771M 28812  28838M 28846U 29082M 29094U
             29116  29222M 29263  29289M 29297U 29566M 29578U 29622  29887M 30088  30129M 30154  30421M 30452  30540M
             30645  30729M 30737U 30748  31323M 31480  31527M 31547  31594M 31614  31661M 31681  31728M 31748  31795M
             31815  31862M 31875U 31937  33704M 35261  35409M 35432  35484M 35504  35555M 35575  35627M 35647  35698M
             35718  35767M 35787  35836M 35856  35905M 35925  35974M 35994  36043M 36063  36112M 36132  36198M 36218
             36354M 36374  36426M 36446  36497M 36517  36587M 36607  36659M 36679  36730M 36750  36802M 36822  36873M
             36893  36945M 36965  37016M 37036  37088M 37108  37165M 37185  37242M 37262  37317M 37337  37392M 37412
             37463M 37483  37535M 37555  37629M 37649  37700M 37720  37772M 37793  38068M 38089  38210M 38255  38343M
             38363  38451M 38471  38559M 38579  38667M 38687  38741M 38762  38809M 38829  38916M 38936  39000M 39021
             39068M 39088  39186M 39206  39253M 39273  39397M 39417  39464M 39484  39610M 39630  39681M 39701  39753M
             39773  39824M 39844  39896M 39916  39968M 39988  40039M 40059  40206M 40226  40277M 40297  40349M 40369
             40420M 40440  40492M 40512  40564M 40584  40635M 40655  40706M 40726  40778M 40798  40852M 40872  40923M
             40943  40997M 41017  41068M 41088  41135M 41155  41272M 41292  41390M 41410  41640M 41660  41741M 41761
             41814M 41834  41954M 41974  42027M 42047  42144M 42164  42217M 42237  42287M 42307  42353M 42628  43380M
             43448  43494M 43566  48889M 49055  49295M 49362  49403M 49423  49464M 49488  49632M 49657  49828M 49851
             49991M 50013  50152M 50175  50372M 50392  50589M 50609  50705M 50725  50866M 50886  50981M 51001  51054M
             51074  51169M 51189  51313M 51333  51386M 51406  51501M 51521  51634M 51654  51707M 51727  51786M 51806
             51860M 51880  51935M 51975  52346M 52433  52512M 52535  52614M 52788  52835M 52855  52899M 52919  52963M
             52983  53027M 53080  53256M 53310  53337M 53345U 53354  53965M 53977U 54029  54290M 54364  54590M 54653
             54687M 54700M 54700  54713U 54720  55147M 55275  55316M 55336  55377M 55397  55521M 55543  55763M 55777U
             55802  56264M 56301  56557M 56584  56721M 56748  56892M
