1                        J E S 2  J O B  L O G  --  S Y S T E M  S Y S B  --  N O D E  R L G
0
 12.42.25 JOB03516 ---- MONDAY,    15 MAR 2004 ----
 12.42.25 JOB03516  ICH70001I GG$SLP   LAST ACCESS AT 12:41:59 ON MONDAY, MARCH 15, 2004
 12.42.25 JOB03516  $HASP373 WYL#DISP STARTED - INIT 6    - CLASS B - SYS SYSB
 12.42.25 JOB03516  ***  HCMD      STEP $$QUIET
 12.42.25 JOB03516  PUR * Q OUT MUL
 12.42.25 JOB03516  JOB 5379 WYL#DISP WILL BE PURGED
 12.42.26 JOB03516  WYL#DISP.$$QUIET .         RC=Zero TapeIO=0000 DiskIO=0000 CPU=  .01s Elapsed=45.10s
 12.42.54 JOB03516  WYL#DISP.ASM     .         RC=Zero TapeIO=0000 DiskIO=1236 CPU= 8.54s Elapsed=46.31s
 12.42.56 JOB03516  WYL#DISP.EDIT    .         RC=Zero TapeIO=0000 DiskIO=0373 CPU= 1.18s Elapsed=74.50s
 12.42.56 JOB03516  WYL#DISP Ended.  Name=Assemble DISP                  Total CPU= 9.73s Elapsed=45.10s
 12.42.56 JOB03516
 12.42.56 JOB03516  Execution charges   Priority=Standard   Block=Day
 12.42.56 JOB03516
 12.42.56 JOB03516  CPU Usage         179.81         $111.48   Standard Processing Unit Equivalent
 12.42.56 JOB03516                                   =======
 12.42.56 JOB03516                                   $111.48   Total Job execution charge
 12.42.56 JOB03516
 12.42.56 JOB03516  See back separator page for print charges
 12.42.56 JOB03516
 12.42.57 JOB03516  $HASP395 WYL#DISP ENDED  ASM=0, EDIT=0
1        1 //WYL#DISP JOB SLP$GG,'Assemble DISP',TIME=4,REGION=4M                  JOB03516
           //*
           /*JOBPARM LINES=99,COPIES=1
           /*JOBPARM FORMS=3HOL,PFORMAT=LAND,CHARS=BD13,DUPLEX=YES,FLASH=BAR4
           //*
           /*JOBPARM NOTIFY=GG.SLP,HOLD=OUTPUT                                     WYLGEN
         2 //$$QUIET EXEC PGM=HCMDX,PARM='PUR * Q OUT MUL'
           //*
         3 //ASM    EXEC PGM=ASMA90,REGION=8M,
           //            PARM=('NORENT,TERM,FLAG(NOCONT),US(MAP,WARN(10)),NODECK',
           //            'LC(32767),XREF(SHORT),ESD,DXREF,NOOBJECT')
         4 //STEPLIB DD DSN=SYS3.IS.TESTASM,DISP=SHR
         5 //SYSLIB   DD  DSN=WYL.GS.WYL.WYLBUR.MACLIB,DISP=SHR
         6 //         DD  DSN=WYL.GG.SYS.MACLIB,DISP=SHR
         7 //         DD  DSN=SYS3.IS.MACLIB,DISP=SHR
         8 //         DD  DSN=SYS3.MACLIB,DISP=SHR
         9 //         DD  DSN=SYS1.MACLIB,DISP=SHR
        10 //         DD  DSN=SYS1.MODGEN,DISP=SHR
        11 //SYSUT1   DD DSN=&&SYSUT1,UNIT=VIO,DISP=(,DELETE),
           //            SPACE=(4088,(500,250),,CONTIG,ROUND)
        12 //SYSTERM  DD SYSOUT=T
        13 //SYSPRINT DD DSN=&&PRINT,UNIT=SYSDA,DISP=(,PASS),
           //            SPACE=(6650,(250,250),RLSE),
           //            DCB=(BLKSIZE=6650,LRECL=133,RECFM=FB)
        14 //SYSUDUMP DD SYSOUT=A
        15 //SYSIN    DD  DSN=WYL.GS.WYL.WYLBUR.SOURCE(DISP),DISP=SHR
           //*
        16 //EDIT    EXEC PGM=ASMEDIT,TIME=2,REGION=4000K,
           //             PARM='STMT'
        17 //STEPLIB  DD  DSN=WYL.GG.SYS.LINKLIB,DISP=SHR
        18 //ASMOUT   DD  DSN=&PRINT,DISP=(OLD,DELETE)
        19 //SYSPRINT DD  SYSOUT=A
1 STMT NO. MESSAGE
 -
        11 IGD01010I STORCLAS= TEMP STORGROUP =
        11 IGD01010I STORGRP=VIO ASSIGNED.
        13 IGD01010I STORCLAS= TEMP STORGROUP =
        13 IGD01010I STORGRP=VIO ASSIGNED.
 ICH70001I GG$SLP   LAST ACCESS AT 12:41:59 ON MONDAY, MARCH 15, 2004
 IEF142I WYL#DISP $$QUIET - STEP WAS EXECUTED - COND CODE 0000
 *********************************************************************************
 *   WYL#DISP/$$QUIET /                    Return Code      Zero                 *
 *   Region used      260K (16K user + 244K system)                              *
 *   Extended region  9692K (4K user + 9688K system)                             *
 *                                                                               *
 *   Paging              In      Out                                             *
 *   Private <-> Aux      0        0       CPU time (TCB)   00:00:00.01          *
 *   Private <-> Exp      0        0       CPU time (SRB)   00:00:00.00          *
 *   VIO                  0        0       Elapsed time    917:45:27.86          *
 *   Common               0      ---                                             *
 *                                                                               *
 *                                                                               *
 *   CPU Usage          0.18         $0.11  Standard Processing Unit Equivalent  *
 *                                   $0.11  Total Step execution charge          *
 *                                                                               *
 *    I/O count  DDname   Type Addr           I/O count  DDname   Type Addr      *
 *                         *** No I/O for this step ***                          *
 *********************************************************************************
 IEF373I STEP/$$QUIET /START 2004075.1242
 IEF374I STEP/$$QUIET /STOP  2004075.1242 CPU    0MIN 00.01SEC SRB    0MIN 00.00SEC VIRT    16K SYS   244K EXT       4K SYS    9688K
 IEF236I ALLOC. FOR WYL#DISP ASM
 IEF237I 04DC ALLOCATED TO STEPLIB
 IEF237I 04DC ALLOCATED TO SYSLIB
 IEF237I 04DC ALLOCATED TO
 IEF237I 04DC ALLOCATED TO
 IEF237I 0402 ALLOCATED TO
 IEF237I 04A0 ALLOCATED TO
 IEF237I 04A0 ALLOCATED TO
 IGD101I SMS ALLOCATED TO DDNAME (SYSUT1  )
         DSN (SYS04075.T124225.RA000.WYL#DISP.SYSUT1.H01  )
         STORCLAS (TEMP) MGMTCLAS (        ) DATACLAS (        )
         VOL SER NOS= VIO
 IEF237I JES2 ALLOCATED TO SYSTERM
 IGD101I SMS ALLOCATED TO DDNAME (SYSPRINT)
         DSN (SYS04075.T124225.RA000.WYL#DISP.PRINT.H01   )
         STORCLAS (TEMP) MGMTCLAS (        ) DATACLAS (        )
         VOL SER NOS= SCR100
 IEF237I JES2 ALLOCATED TO SYSUDUMP
 IEF237I 04DC ALLOCATED TO SYSIN
 IEF142I WYL#DISP ASM - STEP WAS EXECUTED - COND CODE 0000
 IEF285I   SYS3.IS.TESTASM                              KEPT
 IEF285I   VOL SER NOS= SYSB05.
 IEF285I   WYL.GS.WYL.WYLBUR.MACLIB                     KEPT
 IEF285I   VOL SER NOS= SYSB05.
 IEF285I   WYL.GG.SYS.MACLIB                            KEPT
 IEF285I   VOL SER NOS= SYSB05.
 IEF285I   SYS3.IS.MACLIB                               KEPT
 IEF285I   VOL SER NOS= SYSB05.
 IEF285I   SYS3.MACLIB                                  KEPT
 IEF285I   VOL SER NOS= SYSB02.
 IEF285I   SYS1.MACLIB                                  KEPT
 IEF285I   VOL SER NOS= MVSBR9.
 IEF285I   SYS1.MODGEN                                  KEPT
 IEF285I   VOL SER NOS= MVSBR9.
 IGD105I SYS04075.T124225.RA000.WYL#DISP.SYSUT1.H01   DELETED,   DDNAME=SYSUT1
 IEF285I   GG$SLP.WYL#DISP.JOB03516.D0000101.?          SYSOUT
 IGD106I SYS04075.T124225.RA000.WYL#DISP.PRINT.H01    PASSED,    DDNAME=SYSPRINT
 IEF285I   GG$SLP.WYL#DISP.JOB03516.D0000102.?          SYSOUT
 IEF285I   WYL.GS.WYL.WYLBUR.SOURCE                     KEPT
 IEF285I   VOL SER NOS= SYSB05.
 *********************************************************************************
 *   WYL#DISP/ASM     /                    Return Code      Zero                 *
 *   Region used      4376K (4096K user + 280K system)                           *
 *   Extended region  10316K (412K user + 9904K system)                          *
 *                                                                               *
 *   Paging              In      Out                                             *
 *   Private <-> Aux      0        0       CPU time (TCB)   00:00:08.43          *
 *   Private <-> Exp      0        0       CPU time (SRB)   00:00:00.11          *
 *   VIO                  0        0       Elapsed time    917:45:26.65          *
 *   Common               0      ---                                             *
 *                                                                               *
 *                                                                               *
 *   CPU Usage        158.06        $97.99  Standard Processing Unit Equivalent  *
 *                                  $97.99  Total Step execution charge          *
 *                                                                               *
 *    I/O count  DDname   Type Addr           I/O count  DDname   Type Addr      *
 *           83  STEPLIB  Disk 04DC                 371  SYSLIB   Disk 04DC      *
 *            0  SYSLIB   Disk 04DC                   0  SYSLIB   Disk 04DC      *
 *            7  SYSLIB   Disk 0402                 390  SYSLIB   Disk 04A0      *
 *            0  SYSLIB   Disk 04A0               1,933  SYSUT1   VIO  ----      *
 *            0  SYSTERM       ----                 370  SYSPRINT Disk 038B      *
 *            0  SYSUDUMP      ----                  15  SYSIN    Disk 04DC      *
 *********************************************************************************
 IEF373I STEP/ASM     /START 2004075.1242
 IEF374I STEP/ASM     /STOP  2004075.1242 CPU    0MIN 08.43SEC SRB    0MIN 00.11SEC VIRT  4096K SYS   280K EXT     412K SYS    9904K
 IEF236I ALLOC. FOR WYL#DISP EDIT
 IEF237I 0402 ALLOCATED TO STEPLIB
 IGD103I SMS ALLOCATED TO DDNAME ASMOUT
 IEF237I JES2 ALLOCATED TO SYSPRINT
 IEF142I WYL#DISP EDIT - STEP WAS EXECUTED - COND CODE 0000
 IEF285I   WYL.GG.SYS.LINKLIB                           KEPT
 IEF285I   VOL SER NOS= SYSB02.
 IGD105I SYS04075.T124225.RA000.WYL#DISP.PRINT.H01    DELETED,   DDNAME=ASMOUT
 IEF285I   GG$SLP.WYL#DISP.JOB03516.D0000103.?          SYSOUT
 *********************************************************************************
 *   WYL#DISP/EDIT    /                    Return Code      Zero                 *
 *   Region used      380K (116K user + 264K system)                             *
 *   Extended region  9812K (4K user + 9808K system)                             *
 *                                                                               *
 *   Paging              In      Out                                             *
 *   Private <-> Aux      0        0       CPU time (TCB)   00:00:01.15          *
 *   Private <-> Exp      0        0       CPU time (SRB)   00:00:00.03          *
 *   VIO                  0        0       Elapsed time    917:44:58.46          *
 *   Common               0      ---                                             *
 *                                                                               *
 *                                                                               *
 *   CPU Usage         21.56        $13.36  Standard Processing Unit Equivalent  *
 *                                  $13.36  Total Step execution charge          *
 *                                                                               *
 *    I/O count  DDname   Type Addr           I/O count  DDname   Type Addr      *
 *            2  STEPLIB  Disk 0402                 371  ASMOUT   Disk 038B      *
 *            0  SYSPRINT      ----                                              *
 *********************************************************************************
 IEF373I STEP/EDIT    /START 2004075.1242
 IEF374I STEP/EDIT    /STOP  2004075.1242 CPU    0MIN 01.15SEC SRB    0MIN 00.03SEC VIRT   116K SYS   264K EXT       4K SYS    9808K
 *********************************************************************************
 *                                                                               *
 *                      S t a n f o r d   U n i v e r s i t y                    *
 *                                                                               *
 *                              *** Job Summary ***                              *
 *                                                                               *
 *   System Id      SYSB                   Input time     12:39:16  Mar 15, 2004 *
 *                                                                               *
 *   System Release SP6.1.0                Start time     12:42:25  Mar 15, 2004 *
 *                                                                               *
 *   Job name       WYL#DISP               Stop  time     00:00:00  Mar 15, 2004 *
 *                                                                               *
 *   Account        SLP$GG                 Elapsed time  917:45:27.86            *
 *                                                                               *
 *   User Name      Assemble DISP          CPU time       00:00:09.59            *
 *                                                                               *
 *   Job class      B                      SRB Time       00:00:00.14            *
 *                                                                               *
 *********************************************************************************
 IEF375I  JOB/WYL#DISP/START 2004075.1242
 IEF376I  JOB/WYL#DISP/STOP  2004075.1242 CPU    0MIN 09.59SEC SRB    0MIN 00.14SEC
1Assembler Done DISP No Statements Flagged
1         High Level Assembler Option Summary                   (PTF P72483 )                                               Page    1
-                                                                                            HLASM R4.0  2004/03/15 12.42
0  No Overriding ASMAOPT Parameters
   Overriding Parameters-  NORENT,TERM,FLAG(NOCONT),US(MAP,WARN(10)),NODECK,LC(32767),XREF(SHORT),ESD,DXREF,NOOBJECT
   No Process Statements


   Options for this Assembly
0  NOADATA
     ALIGN
   NOASA
     BATCH
     CODEPAGE(047C)
   NOCOMPAT
   NODBCS
 3 NODECK
 3   DXREF
 3   ESD
   NOEXIT
 3   FLAG(0,ALIGN,NOCONT,NOIMPLEN,NOPAGE0,PUSH,RECORD,NOSUBSTR,USING0)
   NOFOLD
   NOGOFF
   NOINFO
     LANGUAGE(EN)
   NOLIBMAC
 3   LINECOUNT(32767)
     LIST(121)
     MXREF(SOURCE)
 3 NOOBJECT
     OPTABLE(UNI,NOLIST)
   NOPCONTROL
   NOPESTOP
   NOPROFILE
   NORA2
 3 NORENT
     RLD
     RXREF
     SIZE(MAX)
     SYSPARM()
 3   TERM(WIDE)
   NOTEST
     THREAD
   NOTRANSLATE
 3   USING(NOLIMIT,MAP,WARN(10))
 3   XREF(SHORT)

   No Overriding DD Names

1DISP     External Symbol Dictionary                                                                                        Page    2
-Symbol   Type   Id     Address  Length     LD ID  Flags Alias-of                            HLASM R4.0  2004/03/15 12.42
0WYLDISP   SD 00000001 00000000 00005778             00
 DISP2193  LD          00000000           00000001
 DISPINIT  LD          00000018           00000001
 STARTUP   LD          00000298           00000001
 DISPATCH  LD          0000030C           00000001
 DISPCONT  LD          00000634           00000001
 LOCALTOD  ER 00000002
 STKOVER   ER 00000003
 DEBDISP   ER 00000004
 SEG       ER 00000005
 SEGWR     ER 00000006
 MILPOST   ER 00000007
 GETRSC    ER 00000008
 TBREAK    ER 00000009
 FREECORE  ER 0000000A
 PATHPOST  ER 0000000B
 NPATPOST  ER 0000000C
 VTAMDISP  ER 0000000D
 SETRSG    ER 0000000E
 DQJCB     ER 0000000F
 RUNRSG    ER 00000010
 GETCP     ER 00000011
 INITUSER  ER 00000012
 BTD       ER 00000013
 SHUTDOWN  ER 00000014
 INITCMDS  ER 00000015
 TERMINIT  ER 00000016
 SEGT      ER 00000017
 EOSDISP   LD          00000F14           00000001
 PJUNKALL  ER 00000018
 FREECP    ER 00000019
 GETRSC    LD          00001534           00000001
 FREERSC   LD          00001702           00000001
 FNDRSCG   LD          0000186A           00000001
 QJCB      LD          000018CE           00000001
 DQJCB     LD          000018E2           00000001
 QRSC      LD          00001920           00000001
 DQRSC     LD          00001934           00000001
 WAITECB   LD          00001952           00000001
 FORCEOUT  LD          00001B7E           00000001
 QJCB      ER 0000001A
 DISPATCH  ER 0000001B
 DQRSC     ER 0000001C
 QRSC      ER 0000001D
 GETCORE   ER 0000001E
 BTX       ER 0000001F
 MGETNEW   LD          00002146           00000001
 PGETNEW   LD          0000219A           00000001
 PGETA     LD          000022AA           00000001
 PGETB     LD          000024E2           00000001
 PNUMA     LD          00002558           00000001
 PNUMB     LD          000025A4           00000001
 PCHK      LD          000025F0           00000001
 PTEMP     LD          0000264A           00000001
 PUNTEMP   LD          0000269C           00000001
1DISP     External Symbol Dictionary                                                                                        Page    3
 PJNKTMP   LD          00002722           00000001
 PFREEA    ER 00000020
 MGETNEW   ER 00000021
 PJUNK     ER 00000022
 PFREEB    ER 00000023
 PMARKA    LD          000027C8           00000001
 PMARKB    LD          00002838           00000001
 PLOCKA    LD          000028AE           00000001
 PLOCKB    LD          0000290E           00000001
 PUNLOCKA  LD          00002984           00000001
 PUNLOCKB  LD          000029E4           00000001
 PTYPEA    LD          00002A5A           00000001
 PTYPEB    LD          00002B10           00000001
 PALLOC    LD          00002F6A           00000001
 PFREEA    LD          000030BE           00000001
 PFREEB    LD          00003184           00000001
 PJUNK     LD          000031FA           00000001
 PJUNKA    LD          000033D0           00000001
 PJUNKALL  LD          00003410           00000001
 PLOCKA    ER 00000024
 PUNLOCKA  ER 00000025
 PTYPEA    ER 00000026
 PNUMA     ER 00000027
 PRCVYCHK  LD          000034B2           00000001
 PRCVYSET  LD          0000350A           00000001
 DBGREAD   LD          000036A2           00000001
 SAREAD    LD          00003884           00000001
 SAWRITE   LD          00003992           00000001
 SLICECHK  LD          00003A82           00000001
 PAGEMON   LD          00003B0E           00000001
 CALCPGC   LD          00003C20           00000001
 PGETNEW   ER 00000028
 PJUNKA    ER 00000029
 GETCOREX  LD          00004068           00000001
 GETCORE   LD          00004112           00000001
 FREECORE  LD          000042B6           00000001
 GETPOOL   LD          000043B2           00000001
 FREEPOOL  LD          00004488           00000001
 GETCPU    LD          00004508           00000001
 GETPCB    LD          00004604           00000001
 FREEPCB   LD          000048B0           00000001
 DISPSTOP  LD          0000495E           00000001
 FMTWBUF   LD          00004AD2           00000001
 FMTPGQ    LD          00004DD0           00000001
 KEYZERO   LD          00004F22           00000001
 KEYNZERO  LD          00004F28           00000001
 LOCK      LD          00004F38           00000001
 UNLOCK    LD          00004F86           00000001
 FIX       LD          00004FD4           00000001
 UNFIX     LD          000050A0           00000001
 AMODE31   LD          00005120           00000001
 AMODE24   LD          00005156           00000001
 SEGDC     ER 0000002A
 SEGCR     ER 0000002B
 SEGHX     ER 0000002C
 BTR       ER 0000002D
 DOTTBL    ER 0000002E
 SEGMARK   ER 0000002F
 CV        ER 00000030
1DISP     External Symbol Dictionary                                                                                        Page    4

1DISP     WYLBUR's Dispatcher                                                                                               Page    5
0Loc    Object Code    Addr1 Addr2  Stmt Lv Lineno    Source Statement                    (Asmedit 3.3)  HLASM R4.0  2004/03/15 12.42
+___    ______ ____    _____ _____  ____ __ ______    ______ _________
0                                      2              *******************************************************************
                                       3              *                                                                 *
                                       4              *     WYLBUR/370 - Release VI - Class I - Stanford Proprietary    *
                                       5              *                                                                 *
                                       6              *******************************************************************
                                       7                       HIBAL
                                     988
                                     989                       SYSDEFN ,                 Define installation values
                                     990
 000000                00000 05778   991              WYLDISP  CSECT
                                     995
                                     996                       REGS  FSR,,,,,,JCBR,BR,(WAR,LSR),PAR,PBR,CPR,CVR,SPR,RAR
                                    1145
 USING  JCB,R6                      1146                       USING JCB                 Global assumption
                                    1155
                                    1156              DISP     IDENT 2193                15:11:43 07/12/02  (SLP)
                                    1159             +
                                    1160    01-IDENT +         ENTRY DISP2193
                                    1161             +
 000000 16C4C9E2D7F2F1F9            1162    01-IDENT +DISP2193 DC    AL1(22),C'DISP2193,15MAR04,12:42'
                                    1163             +*
                                    1165              *
                                    1166              XA       EQU   X'80000000'         31-bit addressing mode flag
                                    1167
                                    1168              RSCWAIT  EQU   4
                                    1169              RSCWRTN  EQU   8
                                    1170              RSCQJCB  EQU   12
                                    1171              RSCHAVE  EQU   0
                                    1172              RSCJCBQD EQU   4
                                    1173              RSCBUSY  EQU   8
                                    1174              RSCOK    EQU   0
                                    1175
                                    1176              STKCHUNK EQU   16                  Stack allocation multiple
                                    1177              HPCHUNK  EQU   8                   Heap allocation multiple
                                    1178
                                    1179                       PUSH  DSECTS
 USING  CP,R11                      1190             =         USING (CP),(CV)
 USING  CV,R12
 000017                00000 05778  1209             =         POP   PRINT
1DISP     (DISP2193) (12:42) (15MAR04) IHAPSAE  - PSA Extension (ESAME)                                                     Page    6
0Current Usings:  (JCB,R6) (CP,R11) (CV,R12)
0Loc    Object Code    Addr1 Addr2  Stmt Lv Lineno    Source Statement           (Hibal 5, Asmedit 3.3)  HLASM R4.0  2004/03/15 12.42
+___    ______ ____    _____ _____  ____ __ ______    ______ _________
0                                  13060              ¿þþþþþþþþþþþþþþþþþþþþþþþþþþþþþþþþþþþþþþþþþþþþþþþþþþþþþþþþþþþþþþþþþþþþþÜ
                                   13061              Ÿ                                                                     Ÿ
                                   13062              Ÿ        Waiting ECB Entry                                            Ÿ
                                   13063              Ÿ                                                                     Ÿ
                                                      ¾þþþþþþþþþþþþþþþþþþþþþþþþþþþþþþþþþþþþþþþþþþþþþþþþþþþþþþþþþþþþþþþþþþþþþ»
0000000                00000 00010 13064              WECB     RECORD BEGIN
 000000 E6C5C3C2                   13072  1           WECBID     DC    C'WECB'
 000004 00000000                   13073  1           WECBLINK   DC    A(0)                Next WECB ptr
 000008 00000000                   13074  1           WECBJCBP   DC    A(0)                Owning JCB ptr
 00000C 00000000                   13075  1           WECBECBP   DC    A(0)                ECB ptr
 000010                00010 00010 13076                       END
1DISP     (DISP2193) (12:42) (15MAR04) IHAPSAE  - PSA Extension (ESAME)                                                     Page    7
0Current Usings:  (JCB,R6) (CP,R11) (CV,R12)
0Loc    Object Code    Addr1 Addr2  Stmt Lv Lineno    Source Statement           (Hibal 5, Asmedit 3.3)  HLASM R4.0  2004/03/15 12.42
+___    ______ ____    _____ _____  ____ __ ______    ______ _________
0000000                00000 000D4 13086              PCB      RECORD BEGIN
 000000                            13094  1           PCBSTART   DS    0D                  Reworked, 4/85, Niz
                                   13095  1           ¿þþþþþþþþþþþþþþþþþþþþþþþþþþþþþþþþþþþþþþþþþþþþþþþþþþþþþþþþþþþþþþþþþþþþþÜ
                                   13096  1           Ÿ                                                                     Ÿ
                                   13097  1           Ÿ        Page Control Block                                           Ÿ
                                   13098  1           Ÿ                                                                     Ÿ
                                          1           ¾þþþþþþþþþþþþþþþþþþþþþþþþþþþþþþþþþþþþþþþþþþþþþþþþþþþþþþþþþþþþþþþþþþþþþ»
0000000 D7C3C240                   13099  1                      DC    CL4'PCB '           Self identification
                                   13100  1
 000004                            13101  1           PCBLINK    DS    A                   Next page buffer (or zero)
                                   13102  1
 000008                            13103  1           PCBBUFP    DS    A                   Data buffer ptr
                                   13104  1                  ¿þþþþþþþþþþþþþþþþþþþþþþþþþþþþþþþþþþþþþþþþþþþþþþþþþþþþþþþþþþþþþþþþþþþÜ
                                   13105  1                  Ÿ  The following two DS statements will generate an assembly error  Ÿ
                                   13106  1                  Ÿ      if CVPINDEX is not equal to the PCB offset to PCBBUFP.       Ÿ
                                   13107  1                  ¾þþþþþþþþþþþþþþþþþþþþþþþþþþþþþþþþþþþþþþþþþþþþþþþþþþþþþþþþþþþþþþþþþþþ»
 00000C                            13108  1                      DS    0SL2((PCBBUFP-PCBSTART)-CVPINDEX)
 00000C                            13109  1                      DS    0SL2(CVPINDEX-(PCBBUFP-PCBSTART))
                                   13110  1
 00000C                            13111  1           PCBQF      DS    A                   Ptr to next buffer on queue
 000010                            13112  1           PCBQB      DS    A                   Ptr to prev buffer on queue
                                   13113  1
 000014                            13114  1           PCBQCLCK   DS    XL8                 Clock when buffer put on queue
                                   13115  1
 00001C 00                         13116  1           PCBSFL     FLAG  ,                   Status flags
 PCBSFL.PCBFLOW    80 ONES         13120  1                      FLAG  PCBFLOW             - Buffer has real pages below 16M
                                   13125  1           ***
                                   13126  1           ***  Page ownership information.
                                   13127  1           ***
                                   13128  1                      ¿þþþþþþþþþþþþþþþþþþþþþþþþþþþþþþþþþþþþþþþþþþþþþþþþþþþþþþþþþþþþþÜ
                                   13129  1                      Ÿ  A page buffer is owned by a user if PCBPTP is non-zero.    Ÿ
                                   13130  1                      Ÿ    The PT entry has a pointer to the user's JCB.  There is  Ÿ
                                   13131  1                      Ÿ    no longer any distinction between an "owned" and "full"  Ÿ
                                   13132  1                      Ÿ    buffer.                                                  Ÿ
                                   13133  1                      ¾þþþþþþþþþþþþþþþþþþþþþþþþþþþþþþþþþþþþþþþþþþþþþþþþþþþþþþþþþþþþþ»
 00001D 00                         13134  1           PCBFL      FLAG
 PCBFL.PCBFIO      80 ONES         13138  1                      FLAG  PCBFIO              - I/O in progress
 PCBFL.PCBFIOWR    40 ONES         13143  1                      FLAG  PCBFIOWR            - I/O is a page write
 PCBFL.PCBFMARK    20 ONES         13148  1                      FLAG  PCBFMARK            - Page has been changed
 PCBFL.PCBFJUNK    10 ONES         13153  1                      FLAG  PCBFJUNK            - Pageno has been junked
 PCBFL.PCBFLOCK    08 ONES         13158  1                      FLAG  PCBFLOCK            - Buffer is locked in this page
                                   13163  1
 00001E 00                         13164  1           PCBFL2     FLAG
 PCBFL2.PCBFSYNC   80 ONES         13168  1                      FLAG  PCBFSYNC            - Synchronous I/O mode
                                   13173  1                      ¿þþþþþþþþþþþþþþþþþþþþþþþþþþþþþþþþþþþþþþþþþþþþþþþþþþþþþþþþþþþÜ
                                   13174  1                      Ÿ  Because PCBFPOST can be updated by multiple processors   Ÿ
                                   13175  1                      Ÿ    (on MP systems) it must be a separate byte flag.  See  Ÿ
                                   13176  1                      Ÿ    370 POPS notes on multi-cpu considerations for OI, NI  Ÿ
                                   13177  1                      Ÿ    and XI.  (This avoids using MVS OIL and NIL macros.)   Ÿ
                                   13178  1                      ¾þþþþþþþþþþþþþþþþþþþþþþþþþþþþþþþþþþþþþþþþþþþþþþþþþþþþþþþþþþþ»
 00001F 00                         13179  1           PCBIOFL    FLAG
 PCBIOFL.PCBFPOST  FF EQ           13183  1                      FLAG  (PCBFPOST,X'FF',EQ)  - I/O posted complete
                                   13193  1
1DISP     (DISP2193) (12:42) (15MAR04) IHAPSAE  - PSA Extension (ESAME)                                                     Page    8
0Current Usings:  (JCB,R6) (CP,R11) (CV,R12)
0Loc    Object Code    Addr1 Addr2  Stmt Lv Lineno    Source Statement           (Hibal 5, Asmedit 3.3)  HLASM R4.0  2004/03/15 12.42
+___    ______ ____    _____ _____  ____ __ ______    ______ _________
0000020                            13194  1           PCBPTP     DS    A                   Page Table entry ptr
                                   13195  1
 000024                            13196  1           PCBDEBUG   DS    A                   Debugging information
                                   13197  1
 000028                            13198  1           PCBPOSTL   DS    A                   I/O completion posted queue
 00002C                            13199  1           PCBXECB    DS    F                   ECB (for sync mode only)
                                   13200  1
                                   13201  1           PCBCLEAR   EQU   PCBFL,*-PCBFL,C'X'  Ownership fields
                                   13202  1                      ¿þþþþþþþþþþþþþþþþþþþþþþþþþþþþÜ
                                   13203  1                      Ÿ  I/O control information.  Ÿ
                                   13204  1                      ¾þþþþþþþþþþþþþþþþþþþþþþþþþþþþ»
 000030                            13205  1           PCBCLCK    DS    XL8                 TOD clock when I/O started
                                   13206  1
 000038                            13207  1                      DS    0D
 000038                            13208  1           PCBSRB     DS    XL(SRBSIZE)         STARTIO SRB
                                   13209  1
 000068                            13210  1                      DS    0D
 000068                            13211  1           PCBIOSB    DS    XL(IOSBSIZE)        STARTIO IOSB
                                   13212  1           PCBCOD     EQU   PCBIOSB+(IOSCOD-IOSB),1,C'X'  I/O completion code
 0000D4                000D4 000D4 13213                       END
1DISP     (DISP2193) (12:42) (15MAR04) IHAPSAE  - PSA Extension (ESAME)                                                     Page    9
0Current Usings:  (JCB,R6) (CP,R11) (CV,R12)
0Loc    Object Code    Addr1 Addr2  Stmt Lv Lineno    Source Statement           (Hibal 5, Asmedit 3.3)  HLASM R4.0  2004/03/15 12.42
+___    ______ ____    _____ _____  ____ __ ______    ______ _________
0                                  13223              ***
                                   13224              ***  Page Buffer  (Allocated above the 16M line in MVS/XA)
                                   13225              ***
 000000                00000 04FF0 13226              PBUF     RECORD BEGIN
 000000                            13234  1                      DS    CL4'PBUF'           Self identification
 000004                            13235  1           PBUFPCBP   DS    A                   PCB ptr
                                   13236  1                      ¿þþþþþþþþþþþþþþþþþþþþþþþþþþþþþþþþþþþþþþþþþþÜ
                                   13237  1                      Ÿ  Channel program area.                   Ÿ
                                   13238  1                      Ÿ    (Format 1 CCW's are used in MVS/XA.)  Ÿ
                                   13239  1                      ¾þþþþþþþþþþþþþþþþþþþþþþþþþþþþþþþþþþþþþþþþþþ»
 000008 2300003040000001           13240  1           PCCWSECT   CCW   X'23',PBUFSECT,X'40',1        .Set Sector (or Nop)
 000010 3100002B40000005           13241  1           PCCWSID    CCW   X'31',PBUFSEEK+3,X'40',5      .Search
 000018 0800001000000000           13242  1           PCCWTIC    CCW   X'08',*-8,0,0                 .Tic *-8
 000020 0600003404004F80           13243  1           PCCWRW     CCW   X'06',PBUFIDAL,X'04',CVPIOSZ  .Read/Write data
                                   13244  1           PCCWS      EQU   PCCWSECT,*-PCCWSECT,C'X'
                                   13245  1
 000028                            13246  1           PBUFSEEK   DS    XL8                 Seek value (MBBCCHHR)
 000030                            13247  1           PBUFSECT   DS    X                   Sector number if RPS device
 000034                            13248  1           PBUFIDAL   DS    ((CVPIOSZ+2047)/2048)A  Indirect Address List
                                   13249  1
 000060                            13250  1                      DS    D                   Reserved
                                   13251  1                      ¿þþþþþþþþþþþþþþþþþþþþþþþþþþþÜ
                                   13252  1                      Ÿ  I/O buffer starts here.  Ÿ
                                   13253  1                      ¾þþþþþþþþþþþþþþþþþþþþþþþþþþþ»
 000068                            13254  1           PBUFX      DS    0D                  ********
                                   13255  1                ¿þþþþþþþþþþþþþþþþþþþþþþþþþþþþþþþþþþþþþþþþþþþþþþþþþþþþþþþþþþþþþþþþþþþþþþÜ
                                   13256  1                Ÿ  System data buffer prefix (copied to the start of the I/O buffer).  Ÿ
                                   13257  1                ¾þþþþþþþþþþþþþþþþþþþþþþþþþþþþþþþþþþþþþþþþþþþþþþþþþþþþþþþþþþþþþþþþþþþþþþ»
 000068                            13258  1           PBUFID     DS    CL4                 Page buffer type id
 00006C 00                         13259  1           PBUFFL     FLAG
 PBUFFL.PBUFFRCV   80 ONES         13263  1                      FLAG  PBUFFRCV            - This page is needed for rcvy
 00006D                            13268  1                      DS    XL3                 Reserved
                                   13269  1           PBUFSYS    EQU   PBUFID,*-PBUFID,C'X'
 000070                            13270  1                      DS    0SL2(L'PBUFSYS-CVPXSZ,CVPXSZ-L'PBUFSYS)  Verify
                                   13271  1                      ¿þþþþþþþþþþþþþþþþþþþþþÜ
                                   13272  1                      Ÿ  User data buffer.  Ÿ
                                   13273  1                      ¾þþþþþþþþþþþþþþþþþþþþþ»
 000070                            13274  1           PBUFUSER   DS    XL(CVPSZ)           User data buffer
                                   13275  1           PBUFBUF    EQU   PBUFX,*-PBUFX,C'X'  Total I/O buffer
                                   13276  1
 004FE8                            13277  1           PBUFEND    DS    CL8'PENDBUF'        End of buffer
 004FF0                04FF0 04FF0 13278                       END
1DISP     (DISP2193) (12:42) (15MAR04) IHAPSAE  - PSA Extension (ESAME)                                                     Page   10
0Current Usings:  (JCB,R6) (CP,R11) (CV,R12)
0Loc    Object Code    Addr1 Addr2  Stmt Lv Lineno    Source Statement           (Hibal 5, Asmedit 3.3)  HLASM R4.0  2004/03/15 12.42
+___    ______ ____    _____ _____  ____ __ ______    ______ _________
0000000                00000 000A4 13288              PFCB     RECORD BEGIN
                                   13296  1                      COPY  PFCB
 000000                            13297  1          =PFCBSTRT   DS    0F                  Page File Control Block, 7/86
 000000 D7C6C3C2                   13298  1          =PFCBID     DC    C'PFCB'             Self identification
 000004 00000000                   13299  1          =PFCBNO     DC    F'0'                PFCB number
 000008 00000000                   13300  1          =PFCBNP     DC    A(0)                No. of pages
 00000C 00000000                   13301  1          =PFCBMP     DC    A(0)                Max. pages used
 000010 00000000                   13302  1          =PFCBCP     DC    A(0)                Current pages used
 000014 00000000                   13303  1          =PFCBRPT    DC    A(0)                Records/track
 000018 00000000                   13304  1          =PFCBUCBP   DC    A(0)                UCB ptr
 00001C 00000000                   13305  1          =PFCBFPNO   DC    F'0'                First pageno in this PFCB
 000020 00000000                   13306  1          =PFCBAPQH   DC    A(0)                Available PT entry queue head
 000024 FFFFFFFFFFFFFFFF           13307  1          =           DC    3F'-1'
                                   13308  1          =
 000030 00000000                   13309  1          =PFCBNIO    DC    F'0'                No. of I/O's
 000034 0000000000000000           13310  1          =PFCBCLK    DC    XL8'00'             Total I/O wait time
                                   13311  1          =
 00003C 00000000                   13312  1          =PFCBPNIO   DC    F'0'                Previous no. of I/O's
 000040 0000000000000000           13313  1          =PFCBPCLK   DC    XL8'00'             Previous I/O wait time
                                   13314  1          =
 000048 0000                       13315  1          =PFCB#IOS   DC    H'0'                I/O's per second       (Stats)
 00004A                            13316  1          =PFCB#IOT   DS    H'0'                Milliseconds per page  (Stats)
                                   13317  1          =
 00004C FFFFFFFFFFFFFFFF           13318  1          =           DC    3F'-1'              Reserved
                                   13319  1          =
 000058 00                         13320  1          =PFCBFL     FLAG
 PFCBFL.PFCBFGND   80 ONES         13324  1          =           FLAG  PFCBFGND            - End of group
 PFCBFL.PFCBFRPS   40 ONES         13329  1          =           FLAG  PFCBFRPS            - File has RPS
                                   13334  1          =
 000059 000000                     13335  1          =           DC    XL3'00'             Reserved
                                   13336  1          =
                                   13337  1          =PFCBSECM   EQU   19                  Max sector records for RPS
 00005C 0000000000000000           13338  1          =PFCBSECT   DC    (PFCBSECM)X'00'     Define area for sector values
 000070                            13339  1          =PFCBDCBA   DS    0F                  DCB area
                                   13340  1          =PFCBDCB    DCB   DDNAME=PAGE0,MACRF=(E),DEVD=DA,DSORG=DA
0                                  13343  1          +*                       DATA CONTROL BLOCK
                                   13344  1          +*
 000070                            13345  1 01-DCB   +PFCBDCB    DS    0F'0'          ORIGIN ON WORD BOUNDARY
 000070                00070 00074 13346  1 01-DCB   +           ORG   *+4            TO ORIGIN GENERATION
                                   13347  1          +*                       DIRECT ACCESS DEVICE INTERFACE
 000074 0000000000000000           13348  1 01-DCB   +           DC    BL12'0'        FDAD, DVTBL
 000080 00000000                   13349  1 01-DCB   +           DC    A(0)           KEYLEN, DEVT, TRBAL
                                   13350  1          +*                       COMMON ACCESS METHOD INTERFACE
 000084 00                         13351  1 01-DCB   +           DC    AL1(0)         BUFNO, NUMBER OF BUFFERS
 000085 000001                     13352  1 01-DCB   +           DC    AL3(1)         BUFCB, BUFFER POOL CONTROL BLOCK
 000088 0000                       13353  1 01-DCB   +           DC    AL2(0)         BUFL, BUFFER LENGTH
 00008A 2000                       13354  1 01-DCB   +           DC    BL2'0010000000000000' DSORG, DATA SET ORGANIZATION
 00008C 00000001                   13355  1 01-DCB   +           DC    A(1)           IOBAD FOR EXCP OR RESERVED
                                   13356  1          +*                       FOUNDATION EXTENSION
 000090 00                         13357  1 01-DCB   +           DC    BL1'00000000'  BFTEK, BFALN, DCBE INDICATORS
 000091 000001                     13358  1 01-DCB   +           DC    AL3(1)         EODAD (END OF DATA ROUTINE ADDRESS)
 000094 00                         13359  1 01-DCB   +           DC    BL1'00000000'  RECFM (RECORD FORMAT)
 000095 000000                     13360  1 01-DCB   +           DC    AL3(0)         EXLST (EXIT LIST ADDRESS)
1DISP     (DISP2193) (12:42) (15MAR04) IHAPSAE  - PSA Extension (ESAME)                                                     Page   11
0Current Usings:  (JCB,R6) (CP,R11) (CV,R12)
0Loc    Object Code    Addr1 Addr2  Stmt Lv Lineno    Source Statement           (Hibal 5, Asmedit 3.3)  HLASM R4.0  2004/03/15 12.42
+___    ______ ____    _____ _____  ____ __ ______    ______ _________
0                                  13361  1          +*                       FOUNDATION BLOCK
 000098 D7C1C7C5F0404040           13362  1 01-DCB   +           DC    CL8'PAGE0'     DDNAME
 0000A0 02                         13363  1 01-DCB   +           DC    BL1'00000010'  OFLGS (OPEN FLAGS)
 0000A1 00                         13364  1 01-DCB   +           DC    BL1'00000000'  IFLGS (IOS FLAGS)
 0000A2 D004                       13365  1 01-DCB   +           DC    BL2'1101000000000100' MACR (MACRO FORMAT)
00000A4                            13367  1          =PFCBNEXT   DS    0F
 0000A4                000A4 000A4 13368                       END
1DISP     (DISP2193) (12:42) (15MAR04) IHAPSAE  - PSA Extension (ESAME)                                                     Page   12
0Current Usings:  (JCB,R6) (CP,R11) (CV,R12)
0Loc    Object Code    Addr1 Addr2  Stmt Lv Lineno    Source Statement           (Hibal 5, Asmedit 3.3)  HLASM R4.0  2004/03/15 12.42
+___    ______ ____    _____ _____  ____ __ ______    ______ _________
0000000                00000 00010 13378              PT       RECORD BEGIN              Page Table Entry
 000000                            13386  1           PTPNO      DS    F                   Page number
 000004                            13387  1           PTPFCBP    DS    A                   PFCB ptr
                                   13388  1           *  Format when PT entry is available (and linked through PFCBAPQH).
 000008                            13389  1           PTFREE     DS    F                   Zero means PT entry is free
 00000C                            13390  1           PTLINKP    DS    A                   Next available PT ptr
                                   13391  1           *  Format when PT entry is in use.
 000010                00010 00008 13392  1                      ORG   PTFREE
 000008                            13393  1           PTJCBP     DS    A                   JCB ptr of owner
 00000C                            13394  1           PTPCBP     DS    A                   PCB ptr (or zero if not in core)
                                   13395  1           PTNEXT     EQU   *
 000010                00010 00010 13396                       END
                                   13405
 000017                            13406                       DS    0SL2(L'PT-16,16-L'PT)
                                   13407              PTSHIFT# EQU   4                   2**PTSHIFT# = L'PT
                                   13408              *
                                   13409              *
                                   13410                       MACRO
                                   13411              &L       GETPT &N                  Get PT entry from pageno
                                   13412              &L       SLL   &N,PTSHIFT#
                                   13413                       AL    &N,CVXPTP
                                   13414                       MEND
                                   13415
                                   13416                       MACRO
                                   13417              &L       QBUFON &STCK=YES
                                   13418              .*
                                   13419              .*  Queue a buffer in R4 onto the buffer chain before the pointer
                                   13420              .*    in R15.  The buffer chains are forward and backward chains to
                                   13421              .*    make it easy to add or delete members of the chain.
                                   13422              .*
                                   13423              &L       L     R0,PCBQB-PCB(,R15)  Get back pointer
                                   13424                       ST    R4,PCBQB-PCB(,R15)  Set back ptr to new entry
                                   13425                       STM   R15,R0,PCBQF-PCB(R4)  Set ptrs for new entry
                                   13426                       LR    R15,R0              Put ptr is reg for index
                                   13427                       ST    R4,PCBQF-PCB(,R15)  Set for ptr of prev to new
                                   13428                       AIF   ('&STCK' NE 'YES').EXIT
                                   13429                       STCK  PCBQCLCK-PCB(R4)    Save TOD when buffer put on queue
                                   13430              .EXIT    MEND
                                   13431
                                   13432                       MACRO
                                   13433              &L       QBUFOFF
                                   13434              .*
                                   13435              .*  Dequeue the buffer in R4 from its current queues by updating
                                   13436              .*    the forward and backward pointers of the entries pointed to
                                   13437              .*    by this entry.
                                   13438              .*
                                   13439              &L       L     R15,PCBQF-PCB(,R4)  Get forward entry
                                   13440                       L     R1,PCBQB-PCB(,R4)   Get backward entry
                                   13441                       ST    R15,PCBQF-PCB(,R1)  Update forw entry of prev
                                   13442                       ST    R1,PCBQB-PCB(,R15)  Update back entry of next
                                   13443
                                   13444                       CLEAR R1
                                   13445                       ST    R1,PCBQF-PCB(,R4)   No forward ptr
                                   13446                       ST    R1,PCBQB-PCB(,R4)   No backwards ptr
1DISP     (DISP2193) (12:42) (15MAR04) IHAPSAE  - PSA Extension (ESAME)                                                     Page   13
0Current Usings:  (JCB,R6) (CP,R11) (CV,R12)
0Loc    Object Code    Addr1 Addr2  Stmt Lv Lineno    Source Statement           (Hibal 5, Asmedit 3.3)  HLASM R4.0  2004/03/15 12.42
+___    ______ ____    _____ _____  ____ __ ______    ______ _________
0                                  13447                       MEND
1DISP     (DISP2193) (12:42) (15MAR04) WYLBUR's Dispatcher                                                                  Page   14
0Current Usings:  (JCB,R6) (CP,R11) (CV,R12)
0Loc    Object Code    Addr1 Addr2  Stmt Lv Lineno    Source Statement           (Hibal 5, Asmedit 3.3)  HLASM R4.0  2004/03/15 12.42
+___    ______ ____    _____ _____  ____ __ ______    ______ _________
0000017                00000 05778 13449              WYLDISP  CSECT
                                   13451              *
                                   13452              ¿þþþþþþþþþþþþþþþþþþþþþþþþþþþþþþþþþþþþþþþþþþþþþþþþþþþþþþþþþþþþþþþþþþþþþÜ
                                   13453              Ÿ                                                                     Ÿ
                                   13454              Ÿ  DISPINIT -- Routine to initialize dispatcher.                      Ÿ
                                   13455              Ÿ    (Called from INIT at initialization.)                            Ÿ
                                   13456              Ÿ                                                                     Ÿ
                                                      ¾þþþþþþþþþþþþþþþþþþþþþþþþþþþþþþþþþþþþþþþþþþþþþþþþþþþþþþþþþþþþþþþþþþþþþ»
0000018 50E0 D000/9008_      00000 13457              DISPINIT XPROC
 USING  *,R7
                                   13497                       ¿þþþþþþþþþþþþþþþþþþþþþþþþþþþþþþþþþþþþþþþþþþþþþþþþþþþþþþþþþþþþÜ
                                   13498                       Ÿ  If we are running with memory pages only then we will     Ÿ
                                   13499                       Ÿ    never need to reference the PFCBs (or PTs).  As a       Ÿ
                                   13500                       Ÿ    safety measure, we clear the pointer to the PFCB here.  Ÿ
                                   13501                       ¾þþþþþþþþþþþþþþþþþþþþþþþþþþþþþþþþþþþþþþþþþþþþþþþþþþþþþþþþþþþþ»
 000032 9140 C4C8/47E0_004C8       13502                       IF    CVFMEMPAGE,BEGIN    Memory pages only...
 00003A D703 C1D0 C1D0_001D0 001D0 13517  1                      CLEAR CVFPFCB,CVLPFCB,CVSPFCB  No PFCBs
 00004C D707 C1E8 C1E8_001E8 001E8 13534  1                      CLEAR (CVEMBUFQ,8),(CVBUFQ,8)  No buffer queue either
 000058 D703 C154 C154 00154 00154 13546  1                      CLEAR CVMAXPNO            No max pageno
 00005E                            13553                       END
                                   13557
 00005E 7030/47F0 7152 0005E 00038 13558                       ELSE BEGIN
                                   13569  1                      ¿þþþþþþþþþþþþþþþþþþþþþþþþþþÜ
                                   13570  1                      Ÿ                          Ÿ
                                   13571  1                      Ÿ  Fix STARTIO appendage.  Ÿ
                                   13572  1                      ¾þþþþþþþþþþþþþþþþþþþþþþþþþþ»
 000062 5810 7246/5800_      00278 13573  1                      SETMSG L:=A(IOFIX),L:=A(IOFIXEND-IOFIX)
 00006A 58E0 724E/0DEE       00280 13585  1                      ACALL FIX                 Fix STARTIO termination routine
                                   13589  1
 000070 181C/4800 7262             13590  1                      SETMSG CV,LH:=AL2(CVSIZE)
 000076 58E0 724E/0DEE       00280 13603  1                      ACALL FIX                 Fix CV (ref'd by appendage)
                                   13607  1                      ¿þþþþþþþþþþþþþþþþþþþþþþþþÜ
                                   13608  1                      Ÿ  Allocate page table.  Ÿ
                                   13609  1                      ¾þþþþþþþþþþþþþþþþþþþþþþþþ»
 00007C 1B55                       13610  1                      CLEAR R5                  Total page count
 00007E 5860 C1D0            001D0 13614  1                      L     R6,CVFPFCB
 000082 5960 C1D4/47B0_      001D4 13615  1                      WHILE (R6,LT,CVLPFCB),BEGIN  Go through PFCBs...
 DROP   JCB,R6                     13634  2                        WITH  (PFCB,R6)
 USING  PFCB,R6
 00008A 5050 601C            0001C 13650  2                        ST    R5,PFCBFPNO         Save first pageno in PFCB
 00008E 5A50 6008            00008 13651  2                        A     R5,PFCBNP           Accumulate total page count
 000092 4160 60A4            000A4 13652  2                        LA    R6,PFCBNEXT
 000096 47F0 7050            00082 13653  1                      END
 DROP   PFCB,R6
 USING  JCB,R6
 00009A 5050 C154            00154 13670  1                      ST    R5,CVMAXPNO         Save maximum page number
                                   13671  1
 00009E 4C50 7264            00296 13672  1                      MH    R5,=AL2(L'PT)       Page table size
 0000A2 1805                       13673  1                      LR    R0,R5
 0000A4 47F0 707A/00/0_      000AC 13674  1                      GETMAIN RU,LV=(0),LOC=ANY  Get page table
 0000B4 5010 C5DC            005DC 13686  1                      ST    R1,CVPTP            Save page table ptr
 0000B8 4B10 7264            00296 13687  1                      SH    R1,=AL2(L'PT)       Calc virtual origin
 0000BC 5010 C5E0            005E0 13688  1                      ST    R1,CVXPTP           Save page table - L'PT origin
1DISP     (DISP2193) (12:42) (15MAR04) WYLBUR's Dispatcher                                                                  Page   15
0Current Usings:  (JCB,R6) (*,R7) (CP,R11) (CV,R12)
0Loc    Object Code    Addr1 Addr2  Stmt Lv Lineno    Source Statement           (Hibal 5, Asmedit 3.3)  HLASM R4.0  2004/03/15 12.42
+___    ______ ____    _____ _____  ____ __ ______    ______ _________
00000C0 58E0 C5DC/18F5_      005DC 13689  1                      ZOT   L:CVPTP,(R5)        Initialize all PT entries
                                   13702  1                      ¿þþþþþþþþþþþþþþþþþþþþþþþþþþþþþþþþþþþþþþþþþþþÜ
                                   13703  1                      Ÿ  Set page numbers in page table entries.  Ÿ
                                   13704  1                      ¾þþþþþþþþþþþþþþþþþþþþþþþþþþþþþþþþþþþþþþþþþþþ»
 0000CA 4140 0001            00001 13705  1                      LA    R4,1                Starting page number
 0000CE 5850 C5DC            005DC 13706  1                      L     R5,CVPTP            Starting PT entry
 0000D2 5940 C154/4730_      00154 13707  1                      WHILE (R4,LE,CVMAXPNO),BEGIN   Go through entries...
 USING  PT,R5                      13726  2                        WITH  (PT,R5)
 0000DA 5040 5000            00000 13739  2                        ST    R4,PTPNO            Set page number
                                   13740  2
 0000DE 4150 5010            00010 13741  2                        LA    R5,PTNEXT           Next PT entry
 0000E2 4140 4001            00001 13742  2                        LA    R4,@R4+1            Next page number
 0000E6 47F0 70A0            000D2 13743  1                      END
 DROP   PT,R5
                                   13753  1                      ¿þþþþþþþþþþþþþþþþþþþþþþþþþþþþþþþÜ
                                   13754  1                      Ÿ  Link up page table entries.  Ÿ
                                   13755  1                      ¾þþþþþþþþþþþþþþþþþþþþþþþþþþþþþþþ»
 0000EA 5850 C5DC            005DC 13756  1                      L     R5,CVPTP            Page Table start (for loop)
 0000EE 5860 C1D0            001D0 13757  1                      L     R6,CVFPFCB
 0000F2 5960 C1D4/47B0_      001D4 13758  1                      WHILE (R6,LT,CVLPFCB),BEGIN  Go through PFCBs...
 DROP   JCB,R6                     13777  2                        WITH  (PFCB,R6)
 USING  PFCB,R6
                                   13793  2
 0000FA 5800 6008/1200       00008 13794  2                        LT    R0,PFCBNP           Number of pages
 000100 47D0 7116            00148 13798  2                        IF    POS,BEGIN           Build PT for pages...
 000104 5050 6020            00020 13809  3                          ST    R5,PFCBAPQH         First available PT ptr
                                   13810  3
 000108 1825                       13811  3                          LR    R2,R5
 00010A 5830 6008            00008 13812  3                          L     R3,PFCBNP           Number of pages
 00010E 0630                       13813  3                          DECR  R3                  Minus one (omit last PT)
 000110 4C30 7264            00296 13815  3                          MH    R3,=AL2(L'PT)
 000114 1A32                       13816  3                          AR    R3,R2               Last PT
                                   13817  3
 000116 1923/47B0 7102             13818  3                          WHILE (R2,LT,R3),BEGIN    Link available PTs...
 USING  PT,R2                      13835  4                            WITH  (PT,R2)
 00011C 5060 2004            00004 13848  4                            ST    R6,PTPFCBP          Save PFCB ptr
 000120 D703 2008 2008 00008 00008 13849  4                            CLEAR PTFREE              Indicate free
 000126 41F0 2010            00010 13856  4                            LA    R15,PTNEXT          Next PT
 00012A 50F0 200C            0000C 13857  4                            ST    R15,PTLINKP         Set forward ptr
 00012E 182F                       13858  4                            LR    R2,R15
 000130 47F0 70E4            00116 13859  3                          END
 DROP   PT,R2
                                   13869  3
 USING  PT,R3                      13870  3                          WITH  (PT,R3),BEGIN       Fix up last PT...
 000134 5060 3004            00004 13884  4                            ST    R6,PTPFCBP          Save PFCB ptr
 000138 D703 3008 3008 00008 00008 13885  4                            CLEAR PTFREE              Indicate free
 00013E D703 300C 300C 0000C 0000C 13892  4                            CLEAR PTLINKP             No forward ptr
                                   13899  4
 000144 4150 3010            00010 13900  4                            LA    R5,PTNEXT           First PT entry for next PFCB
 DROP   PT,R3                      13901  3                          END
 000148                            13909  2                        END
                                   13913  2
 000148 4160 60A4            000A4 13914  2                        LA    R6,PFCBNEXT         Next PFCB ptr
 00014C 47F0 70C0            000F2 13915  1                      END
1DISP     (DISP2193) (12:42) (15MAR04) WYLBUR's Dispatcher                                                                  Page   16
0Current Usings:  (JCB,R6) (*,R7) (CP,R11) (CV,R12)
0Loc    Object Code    Addr1 Addr2  Stmt Lv Lineno    Source Statement           (Hibal 5, Asmedit 3.3)  HLASM R4.0  2004/03/15 12.42
+___    ______ ____    _____ _____  ____ __ ______    ______ _________
0DROP   PFCB,R6
 USING  JCB,R6
                                   13932  1                      ¿þþþþþþþþþþþþþþþþþþþþþþþþþþþþþþþþþþþþþÜ
                                   13933  1                      Ÿ  Initialize buffer queue pointers.  Ÿ
                                   13934  1                      ¾þþþþþþþþþþþþþþþþþþþþþþþþþþþþþþþþþþþþþ»
 000150 4110 C1DC            001DC 13935  1                      LA    R1,CVEMBUFQ-(PCBQF-PCB)  Set
 000154 1801                       13936  1                      LR    R0,R1               Empty buffer
 000156 9001 C1E8            001E8 13937  1                      STM   R0,R1,CVEMBUFQ      Queue empty
                                   13938  1
 00015A 4110 C1E4            001E4 13939  1                      LA    R1,CVBUFQ-(PCBQF-PCB)  Set
 00015E 1801                       13940  1                      LR    R0,R1               Buffer
 000160 9001 C1F0            001F0 13941  1                      STM   R0,R1,CVBUFQ        Queue empty
                                   13942  1                      ¿þþþþþþþþþþþþþþþþþþþþþþþþþþþþþþþþþþþþþþþþþþþþþþþÜ
                                   13943  1                      Ÿ  Now get the desired number of page buffers.  Ÿ
                                   13944  1                      ¾þþþþþþþþþþþþþþþþþþþþþþþþþþþþþþþþþþþþþþþþþþþþþþþ»
 000164 4820 C13C            0013C 13945  1                      LH    R2,CVNIPG           Number of pages to get initially
 000168 1222/47B0 7140_            13946  1                      IF    (R2,NEG),'LH R2,CVPGMAX'  Get maximum number of pages
 000172 1222/47D0 7152             13966  1                      WHILE (R2,POS),BEGIN      Get page buffers...
 000178 58E0 7252/0DEE       00284 13982  2                        ACALL GETPCB              Allocate/initialize a page buffer
 00017E 0620                       13986  2                        DECR  R2
 000180 47F0 7140            00172 13988  1                      END
 000184                            13993                       END
                                   13997              *
                                   13998              *  Initialize the stack and heap cell blocks
                                   13999              *
 000184 4110 0080            00080 14000                       LA    R1,CVSTACK#         Max stack (in K)
 000188 1B00                       14001                       CLEAR R0
 00018A 4120 0010            00010 14005                       LA    R2,STKCHUNK         Stack allocation mult (in K)
 00018E 1D02                       14006                       DR    R0,R2               Number of cell blocks needed
 000190 1200/4780 7168_            14007                       IF    (R0,NZ),'LA R1,1(,R1)'
 00019A 1831                       14027                       LR    R3,R1               Save for loop
 00019C 5C00 7256            00288 14028                       M     R0,=A(L'CELLBLOK)
 0001A0 47F0 7176/00/0_      001A8 14029                       GETMAIN RU,LV=(1),LOC=ANY  Get cell blocks
 0001B2 1861                       14042                       LR    R6,R1               Copy address
 0001B4 5010 C5E4            005E4 14043                       ST    R1,CVSTKCEL         Save it in the CV
 0001B8 1812                       14044                       LR    R1,R2               Get stack quantum
 0001BA 5C00 725A            0028C 14045                       M     R0,=F'1024'         Convert to bytes in R1
 0001BE 1821                       14046                       LR    R2,R1               Save size quantum for loop
 0001C0 5930 725E/47D0_      00290 14047                       WHILE (R3,GT,0),BEGIN
 DROP   JCB,R6                     14066  1                      WITH  (CELLBLOK,R6)
 USING  CELLBLOK,R6
 0001C8 D227 6000 721E 00000 00250 14082  1                      MVC   CELLBLOK,MODLCELL
 0001CE 5010 601C            0001C 14083  1                      ST    R1,CELSIZE
 0001D2 1A12                       14084  1                      AR    R1,R2
 0001D4 0630                       14085  1                      BCTR  R3,0
 0001D6 4160 6028            00028 14086  1                      LA    R6,L'CELLBLOK(,R6)
 0001DA 47F0 718E            001C0 14087                       END
 DROP   CELLBLOK,R6
 USING  JCB,R6
                                   14104
 0001DE 4110 0200            00200 14105                       LA    R1,CVHEAP#          Max allocation (in K)
 0001E2 1B00                       14106                       CLEAR R0
 0001E4 4120 0008            00008 14110                       LA    R2,HPCHUNK          Allocation mult (in K)
 0001E8 1D02                       14111                       DR    R0,R2               Number of cell blocks needed
1DISP     (DISP2193) (12:42) (15MAR04) WYLBUR's Dispatcher                                                                  Page   17
0Current Usings:  (JCB,R6) (*,R7) (CP,R11) (CV,R12)
0Loc    Object Code    Addr1 Addr2  Stmt Lv Lineno    Source Statement           (Hibal 5, Asmedit 3.3)  HLASM R4.0  2004/03/15 12.42
+___    ______ ____    _____ _____  ____ __ ______    ______ _________
00001EA 1200/4780 71C2_            14112                       IF    (R0,NZ),'LA R1,1(,R1)'
 0001F4 1831                       14132                       LR    R3,R1               Save for loop
 0001F6 5C00 7256            00288 14133                       M     R0,=A(L'CELLBLOK)
 0001FA 0700/47F0 71D2_            14134                       GETMAIN RU,LV=(1),LOC=ANY  Get cell blocks
 00020E 1861                       14147                       LR    R6,R1               Copy address
 000210 5010 C5E8            005E8 14148                       ST    R1,CVHEAPCL         Save it in the CV
 000214 1812                       14149                       LR    R1,R2               Get stack quantum
 000216 5C00 725A            0028C 14150                       M     R0,=F'1024'         Convert to bytes in R1
 00021A 1821                       14151                       LR    R2,R1               Save size quantum for loop
 00021C 4100 002D            0002D 14152                       LA    R0,45               Subpool for heap blocks
 000220 5930 725E/47D0_      00290 14153                       WHILE (R3,GT,0),BEGIN
 DROP   JCB,R6                     14172  1                      WITH  (CELLBLOK,R6)
 USING  CELLBLOK,R6
 000228 D227 6000 721E 00000 00250 14188  1                      MVC   CELLBLOK,MODLCELL
 00022E 5000 6020            00020 14189  1                      ST    R0,CELSUBP
 000232 5010 601C            0001C 14190  1                      ST    R1,CELSIZE
 000236 1A12                       14191  1                      AR    R1,R2
 000238 0630                       14192  1                      BCTR  R3,0
 00023A 4160 6028            00028 14193  1                      LA    R6,L'CELLBLOK(,R6)
 00023E 47F0 71EE            00220 14194                       END
 DROP   CELLBLOK,R6
 USING  JCB,R6
 000242 18D8/9808 D004_            14211                       PEND
 DROP   *,R7
 000250 C3C5D3D3C2D3D6D2_          14231              MODLCELL CELLBLOK SIZE=1,SUBPOOL=40
                                   14242                       QLTORG ,
1DISP     (DISP2193) (12:42) (15MAR04) WYLBUR's Dispatcher                                                                  Page   18
0Current Usings:  (JCB,R6) (CP,R11) (CV,R12)
0Loc    Object Code    Addr1 Addr2  Stmt Lv Lineno    Source Statement           (Hibal 5, Asmedit 3.3)  HLASM R4.0  2004/03/15 12.42
+___    ______ ____    _____ _____  ____ __ ______    ______ _________
0                                  14264              ¿þþþþþþþþþþþþþþþþþþþþþþþþþþþþþþþþþþþþþþþþþþþþþþþþþþþþþþþþþþþþþþþþþþþþþÜ
                                   14265              Ÿ                                                                     Ÿ
                                   14266              Ÿ  Start up after initialization.                                     Ÿ
                                   14267              Ÿ                                                                     Ÿ
                                                      ¾þþþþþþþþþþþþþþþþþþþþþþþþþþþþþþþþþþþþþþþþþþþþþþþþþþþþþþþþþþþþþþþþþþþþþ»
0                                  14268                       ENTRY STARTUP
 000298 0D70                       14269              STARTUP  BASE
 USING  *,R7
 00029A 1BBB                       14283                       CLEAR CPR                 No CP yet
                                   14287
 00029C 9110 C4C5/47E0_004C5       14288                       IF    CVFRCVY,'XTRACE STARTUPR'
 0002B8 7022/47F0 7036_002B8 002A2 14313                       ELSE  'XTRACE STARTUP'
                                   14334
 0002D0 5800 7066            00300 14335                       L     R0,=A(TIMESUP)      Put exit addr in R0
 0002D4 5810 706A            00304 14336                       L     R1,=A(TIMEVAL)      Put interval address in R1
 0002D8 18F0/4100 0080_            14337                       STIMER TASK,(0),TUINTVL=(1)  Start timer
 0002E4 B205 C708      00708       14344                       STCK  CVCLOCK             Save time of start
                                   14345
 0002E8 D703 C1CC C1CC_001CC 001CC 14346                       CLEAR CVOLDJCB,CVCURJCB   No current user
                                   14358                       ¿þþþþþþþþþþþþþþþþþþþþþþþþþþþþþÜ
                                   14359                       Ÿ  Jump into the dispatcher.  Ÿ
                                   14360                       ¾þþþþþþþþþþþþþþþþþþþþþþþþþþþþþ»
 0002F4 5870 706E            00308 14361                       BASE  BASE                Reset base for search
 DROP   *,R7
 USING  BASE,R7
                                   14379                       ¿þþþþþþþþþþþþþþþþþþþþþþþþþþþþþþþþþþþþþþþþþþþþþþþþþþþþþþþþþþþþÜ
                                   14380                       Ÿ  If recovery mode wasn't set before no one will be on the  Ÿ
                                   14381                       Ÿ    SETUPQ, and it will get reset.                          Ÿ
                                   14382                       ¾þþþþþþþþþþþþþþþþþþþþþþþþþþþþþþþþþþþþþþþþþþþþþþþþþþþþþþþþþþþþ»
 0002F8 9610 C4C5      004C5       14383                       SET   CVFRCVY             Set recovery mode
 0002FC 47F0 740A            00716 14389                       B     SEARCH
                                   14390
 DROP   BASE,R7                    14391                       DROP  BR
                                   14398
                                   14399                       QLTORG
1DISP     (DISP2193) (12:42) (15MAR04) WYLBUR's Dispatcher                                                                  Page   19
0Current Usings:  (JCB,R6) (CP,R11) (CV,R12)
0Loc    Object Code    Addr1 Addr2  Stmt Lv Lineno    Source Statement           (Hibal 5, Asmedit 3.3)  HLASM R4.0  2004/03/15 12.42
+___    ______ ____    _____ _____  ____ __ ______    ______ _________
000030C                            14415              BASE     LABEL ,                   Base point for dispatcher
                                   14417                       ¿þþþþþþþþþþþþþþþþþþþþþþþÜ
                                   14418                       Ÿ  Entry to dispatcher  Ÿ
                                   14419                       ¾þþþþþþþþþþþþþþþþþþþþþþþ»
                                   14420                       ENTRY DISPATCH
 00030C 0D70                       14421              DISPATCH BASE
 USING  *,R7
 00030E 5870 7AF2            00E00 14435                       BASE  BASE                Common base
 DROP   *,R7
 USING  BASE,R7
 000312 D703 C710 C710 00710 00710 14453                       CLEAR CVSPIEAD            Make sure SPIE intercept is zero
                                   14460
 000318 900F C780/4DE0_      00780 14461                       XTRACE UNDISP,REGS=RAR
                                   14467                       ¿þþþþþþþþþþþþþþþþþþþþþþþþþþþþþþþþþþþþþþþþþþþþÜ
                                   14468                       Ÿ  Verify that we are still in 31-bit mode.  Ÿ
                                   14469                       ¾þþþþþþþþþþþþþþþþþþþþþþþþþþþþþþþþþþþþþþþþþþþþ»
 00032C 0DF0                       14470                       BASR  R15,0               Sets high bit if AMODE 31
 00032E 12FF                       14471                       LTR   R15,R15             Are we or aren't we?
 000330 4740 7048            00354 14472                       IF    ~NEG,BEGIN          Not in 31-bit mode...
 000334 9102 C4C6/47E0_004C6       14483  1                      IF    ~CVFXA31,EXIT       It's cool, scram
 00033C 900F C780/4DE0_      00780 14501  1                      KAPUT AMODERR,'AMODE logic error.'
 000354                            14508                       END
                                   14512
 000354 5880 C270            00270 14513                       L     R8,CVDSTK           Use dispatcher
 000358 18D8                       14514                       LR    R13,R8              ... stack
                                   14515
 00035A 5860 C1C8            001C8 14516                       L     JCBR,CVCURJCB
                                   14517
 00035E D501 7BA8 B000_00EB4 00000 14518                       FAIL  (CP,NE,'CP'),CPERR1,'Dispatcher CP error.'
                                   14547                       ¿þþþþþþþþþþþþþþþþþþþþþþþþþþþþþþþþþþþþþþþþþþþþþþþþþþþþþþþþþþþþþÜ
                                   14548                       Ÿ  Stop charging the user now that we are in the dispatcher.  Ÿ
                                   14549                       ¾þþþþþþþþþþþþþþþþþþþþþþþþþþþþþþþþþþþþþþþþþþþþþþþþþþþþþþþþþþþþþ»
 000380 58E0 7AF8/0DEE       00E04 14550                       ACALL GETCPU              Get time used during this disp.
 000386 9180 C4C8/47E0_004C8       14554                       IF    CVFVISTA,'CLEAR R0'  !! BECAUSE VLOGON DOES WAITS !!!
 000390 18F0                       14578                       LR    R15,R0
 000392 1810                       14579                       LR    R1,R0
                                   14580
 000394 5E00 607C            0007C 14581                       AL    R0,JCBWCPU          Accumulate total user CPU time
 000398 5000 607C            0007C 14582                       ST    R0,JCBWCPU
                                   14583
 00039C 5820 6070/1222       00070 14584                       LT    R2,JCBUCEP          Get current charge component ptr
 0003A2 4780 70A2            003AE 14588                       IF    NZ,BEGIN            Accumulate sub-totals...
 USING  UCE,R2                     14599  1                      WITH  (UCE,R2)
 0003A6 5E10 2044            00044 14612  1                      AL    R1,UCEWCPU          Accumulate component CPU time
 0003AA 5010 2044            00044 14613  1                      ST    R1,UCEWCPU
 DROP   UCE,R2                     14614                       END
                                   14623
 0003AE 5EF0 C700            00700 14624                       AL    R15,CVTIME          Global total user CPU time
 0003B2 50F0 C700            00700 14625                       ST    R15,CVTIME
                                   14626
 0003B6 9604 C4C4      004C4       14627                       SET   CVFDISP             Now running in dispatcher mode
                                   14633
 0003BA 9140 C4C4/47E0_004C4       14634                       IF    CVFPGROT,'ACALL PDEBUG'  Jumble page ptrs
1DISP     (DISP2193) (12:42) (15MAR04) WYLBUR's Dispatcher                                                                  Page   20
0Current Usings:  (JCB,R6) (BASE,R7) (CP,R11) (CV,R12)
0Loc    Object Code    Addr1 Addr2  Stmt Lv Lineno    Source Statement           (Hibal 5, Asmedit 3.3)  HLASM R4.0  2004/03/15 12.42
+___    ______ ____    _____ _____  ____ __ ______    ______ _________
0                                  14658                       ¿þþþþþþþþþþþþþþþþþþþþþþþþþþþþþþþþþþþþÜ
                                   14659                       Ÿ  Finish un-dispatching this user.  Ÿ
                                   14660                       ¾þþþþþþþþþþþþþþþþþþþþþþþþþþþþþþþþþþþþ»
                                   14661              *
 0003C8 9104 6062/4710_00062       14662                       FAIL  ~JCBAFRUN,DISPERR1,'Dispatcher error.'
 0003E8 94FB 6062      00062       14689                       CLEAR JCBAFRUN            No longer running
 0003EC 94FB 6063      00063       14696                       CLEAR JCBFATTNFREE        Reset dispatch reason flag
                                   14703
 0003F0 B205 C630      00630       14704                       STCK  CVDSPCLK            Current TOD clock (GMT)
 0003F4 58E0 7B00/0DEE       00E0C 14705                       VCALL LOCALTOD
 0003FA 9001 B338            00338 14709                       STM   R0,R1,CPCLCK        Update user's current TOD clock
                                   14710                       ¿þþþþþþþþþþþþþþþþþþþþþþþþþþþþþþþþþþþþþþþþþþÜ
                                   14711                       Ÿ  Put user's pages back on buffer queue.  Ÿ
                                   14712                       ¾þþþþþþþþþþþþþþþþþþþþþþþþþþþþþþþþþþþþþþþþþþ»
 0003FE 58F0 6040/12FF       00040 14713                       LT    R15,JCBPTA          Get page ptr
 000404 4780 7172            0047E 14717                       IF    NZ,BEGIN            There is a page...
 000408 D703 B028 B028 00028 00028 14728  1                      CLEAR (CPREGS+(PAR*4),4)  (This address is re-calc'd later)
 00040E 5840 F00C            0000C 14735  1                      WITH  (PT,R15),'L R4,PTPCBP'
 USING  PT,R15
 DROP   PT,R15
                                   14759  1                      ¿þþþþþþþþþþþþþþþþþþþþþþþþþþþþþþþþþþþþþþþþþþþþþþþþþþþþþþþþþþþþþþÜ
                                   14760  1                      Ÿ  We have to allow for the case when the PCB (buffer) is not  Ÿ
                                   14761  1                      Ÿ  yet allocated; since PGETA will SETUP a user this way and   Ÿ
                                   14762  1                      Ÿ  then un-dispatch and dispatch the user to get the           Ÿ
                                   14763  1                      Ÿ  dispatcher to do the page-in.                               Ÿ
                                   14764  1                      Ÿ                                                              Ÿ
                                   14765  1                      Ÿ  We only have to allow for this for PAR; since this logic    Ÿ
                                   14766  1                      Ÿ  is only used by PGETA.                                      Ÿ
                                   14767  1                      ¾þþþþþþþþþþþþþþþþþþþþþþþþþþþþþþþþþþþþþþþþþþþþþþþþþþþþþþþþþþþþþþ»
 000412 1244/4780 7172             14768  1                      IF    (R4,Z),EXIT         Buffer isn't allocated, scram
                                   14785  1
 USING  PCB,R4                     14786  1                      WITH  (PCB,R4)
 000418 D502 7BB8 4000_00EC4 00000 14799  1                      FAIL  (PCB,NE,'PCB'),PCBERR01,'Dispatcher PCB error.'
 00043A D603 400C 400C_0000C 0000C 14828  1                      FAIL  (PCBQF,NZ),DISPERR2,'Dispatcher error.'
                                   14856  1                      ¿þþþþþþþþþþþþþþþþþþþþþþþþþþþþþþþþþþþþþþþþþþþþþþþþþþþþþþþþþþþþÜ
                                   14857  1                      Ÿ  We also have to allow for the case when the PCB (buffer)  Ÿ
                                   14858  1                      Ÿ  has I/O going on it; PGETA will SETUP a user this way.    Ÿ
                                   14859  1                      Ÿ                                                            Ÿ
                                   14860  1                      Ÿ  We only have to allow for this for PAR; since this logic  Ÿ
                                   14861  1                      Ÿ  is only used by "PGETA".                                  Ÿ
                                   14862  1                      ¾þþþþþþþþþþþþþþþþþþþþþþþþþþþþþþþþþþþþþþþþþþþþþþþþþþþþþþþþþþþþ»
 00045C 9180 401D/4710_0001D       14863  1                      IF    PCBFIO,EXIT         I/O going, scram
                                   14881  1
 000464 41F0 C1E4            001E4 14882  1                      LA    R15,CVBUFQ-(PCBQF-PCB)  Dummy first link
 000468 5800 F010/5040_      00010 14883  1                      QBUFON ,                  Put buffer back on queue
 DROP   PCB,R4                     14890                       END
                                   14899
 00047E 58F0 6044/12FF       00044 14900                       LT    R15,JCBPTB          Get page ptr
 000484 4780 720C            00518 14904                       IF    NZ,BEGIN            There is a page...
 000488 D703 B02C B02C 0002C 0002C 14915  1                      CLEAR (CPREGS+(PBR*4),4)  (This address is re-calc'd later)
 00048E 59F0 6040/4780_      00040 14922  1                      IF    (R15,EQ,JCBPTA),EXIT  Already taken care of, scram
 000496 5840 F00C            0000C 14942  1                      WITH  (PT,R15),'L R4,PTPCBP'
 USING  PT,R15
 DROP   PT,R15
1DISP     (DISP2193) (12:42) (15MAR04) WYLBUR's Dispatcher                                                                  Page   21
0Current Usings:  (PCB,R4) (JCB,R6) (BASE,R7) (CP,R11) (CV,R12)
0Loc    Object Code    Addr1 Addr2  Stmt Lv Lineno    Source Statement           (Hibal 5, Asmedit 3.3)  HLASM R4.0  2004/03/15 12.42
+___    ______ ____    _____ _____  ____ __ ______    ______ _________
0USING  PCB,R4                     14966  1                      WITH  (PCB,R4)
 00049A D502 7BB8 4000_00EC4 00000 14979  1                      FAIL  (PCB,NE,'PCB'),PCBERR02,'Dispatcher PCB error.'
 0004BC D603 400C 400C_0000C 0000C 15008  1                      FAIL  (PCBQF,NZ),DISPER2X,'Dispatcher error.'
 0004DE 9180 401D/47E0_0001D       15036  1                      FAIL  PCBFIO,DISPER3X,'Dispatcher error.'
                                   15063  1
 0004FE 41F0 C1E4            001E4 15064  1                      LA    R15,CVBUFQ-(PCBQF-PCB)  Dummy first link
 000502 5800 F010/5040_      00010 15065  1                      QBUFON ,                  Put buffer back on queue
 DROP   PCB,R4                     15072                       END
                                   15081                       ¿þþþþþþþþþþþþþþþþþþþþþþþþþþþþþþþþþþÜ
                                   15082                       Ÿ  Save the user's current stack.  Ÿ
                                   15083                       ¾þþþþþþþþþþþþþþþþþþþþþþþþþþþþþþþþþþ»
 000518 5820 B038/1222       00038 15084                       LT    R2,CPREGS+(R13*4)   Current stack
 00051E 4780 7236            00542 15088                       IF    NZ,BEGIN
 000522 5B20 C274            00274 15099  1                      S     R2,CVSTACK          Size of user stack
 000526 47B0 7236/900F_      00542 15100  1                      FAIL  NEG,STKERR1,'Stack logic error.'
 000542                            15123                       END
                                   15127
 000542 5920 C26C/47D0_      0026C 15128                       IF    (R2,GT,CVSTACKL),BEGIN  Stack overflow...
 00054A 1B22                       15145  1                      CLEAR R2
 00054C 5020 B038            00038 15149  1                      ST    R2,CPREGS+(R13*4)   No stack now
 000550 D203 B03C 7B04 0003C 00E10 15150  1                      MVC   CPREGS+(R14*4)(4),=V(STKOVER)  Stack ovfl
 000556                            15151                       END
                                   15155                       ¿þþþþþþþþþþþþþþþþþþþþþþþþþþþþþþþþþþþþþþþþþþþþþþþþþþþþþþþþþþþÜ
                                   15156                       Ÿ  Note: changing the stack "chunk" size from 4K to 16K     Ÿ
                                   15157                       Ÿ    (below) was a big performance improvement.  1/90, Niz  Ÿ
                                   15158                       ¾þþþþþþþþþþþþþþþþþþþþþþþþþþþþþþþþþþþþþþþþþþþþþþþþþþþþþþþþþþþ»
 000556 1832                       15159                       LR    R3,R2
 000558 5A30 7B08            00E14 15160                       A     R3,=A((STKCHUNK*1024)-1)
 00055C 5430 7B0C            00E18 15161                       N     R3,=A(-(STKCHUNK*1024))
                                   15162
 000560 5800 601C/1200       0001C 15163                       LT    R0,JCBSTKX          Stack memory len
 000566 1903/4780 7274             15167                       IF    (R0,NE,R3),BEGIN    Stack size has changed...
 00056C 58E0 7B10/0DEE       00E1C 15182  1                      ACALL RELSTACK            Release the old stack
 000572 1233/4780 7274             15186  1                      IF    (R3,NZ),BEGIN       Get new stack memory...
 000578 1803                       15200  2                        LR    R0,R3
 00057A 58E0 7B14/0DEE       00E20 15201  2                        ACALL GETSTACK
 000580                            15205  1                      END
 000580                            15209                       END
                                   15213
 000580 1222/4780 7288             15214                       IF    (R2,NZ),BEGIN       Save user stack...
 000586 58E0 6020/18F2_      00020 15228  1                      MOVEL L:JCBSTKX+4,L:CVSTACK,(R2)  Save stack
 000594                            15246                       END
 000594 5020 6018            00018 15250                       ST    R2,JCBSTKL          Save actual stack length
                                   15251                       ¿þþþþþþþþþþþþþþþþþþþþþþþþþþþþþþþþþÜ
                                   15252                       Ÿ  Save the user's current heap.  Ÿ
                                   15253                       ¾þþþþþþþþþþþþþþþþþþþþþþþþþþþþþþþþþ»
 000598 5820 B330/1222       00330 15254                       LT    R2,CPHEAPCR         Current heap
 00059E 4780 72B6            005C2 15258                       IF    NZ,BEGIN
 0005A2 5B20 C280            00280 15269  1                      S     R2,CVHEAP           Size of user heap
 0005A6 47B0 72B6/900F_      005C2 15270  1                      FAIL  NEG,HEAPERR1,'Heap logic error.'
 0005C2                            15293                       END
                                   15297
 0005C2 5920 C27C/47D0_      0027C 15298                       FAIL  (R2,GT,CVHEAPL),HEAPERR2,'Heap logic error.'
                                   15327
1DISP     (DISP2193) (12:42) (15MAR04) WYLBUR's Dispatcher                                                                  Page   22
0Current Usings:  (JCB,R6) (BASE,R7) (CP,R11) (CV,R12)
0Loc    Object Code    Addr1 Addr2  Stmt Lv Lineno    Source Statement           (Hibal 5, Asmedit 3.3)  HLASM R4.0  2004/03/15 12.42
+___    ______ ____    _____ _____  ____ __ ______    ______ _________
00005E2 1832                       15328                       LR    R3,R2
 0005E4 5A30 7B18            00E24 15329                       A     R3,=A((HPCHUNK*1024)-1)
 0005E8 5430 7B1C            00E28 15330                       N     R3,=A(-(HPCHUNK*1024))  Quantize heap to 8K chunks
                                   15331
 0005EC 9801 6028            00028 15332                       LM    R0,R1,JCBHEAPX      Heap memory len, loc
 0005F0 1903/4780 7304             15333                       IF    (R0,NE,R3),BEGIN    Heap size has changed...
 0005F6 1200/4780 72F6_            15348  1                      IF    (R0,NZ),'ACALL RELHEAP'
 000602 1233/4780 7304             15371  1                      IF    (R3,NZ),BEGIN       Get new heap memory...
 000608 1803                       15385  2                        LR    R0,R3
 00060A 58E0 7B24/0DEE       00E30 15386  2                        ACALL HEAPGET
 000610                            15390  1                      END
 000610                            15394                       END
                                   15398
 000610 1222/4780 7318             15399                       IF    (R2,NZ),BEGIN       Save user heap...
 000616 58E0 602C/18F2_      0002C 15413  1                      MOVEL L:JCBHEAPX+4,L:CVHEAP,(R2)  Save heap
 000624                            15431                       END
 000624 5020 6024            00024 15435                       ST    R2,JCBHEAPL         Save actual heap length
                                   15436                       ¿þþþþþþþþþþþþþþþþþþþþþþþþþþþþþþþþþþþþþþþþþÜ
                                   15437                       Ÿ  Switch to dispatcher mode (CURJCB=0).  Ÿ
                                   15438                       ¾þþþþþþþþþþþþþþþþþþþþþþþþþþþþþþþþþþþþþþþþþ»
 000628 D203 C1CC C1C8 001CC 001C8 15439                       MVC   CVOLDJCB,CVCURJCB   Save previous user's JCB ptr
 00062E D703 C1C8 C1C8 001C8 001C8 15440                       CLEAR CVCURJCB            Running in dispatcher mode
1DISP     (DISP2193) (12:42) (15MAR04) WYLBUR's Dispatcher                                                                  Page   23
0Current Usings:  (JCB,R6) (BASE,R7) (CP,R11) (CV,R12)
0Loc    Object Code    Addr1 Addr2  Stmt Lv Lineno    Source Statement           (Hibal 5, Asmedit 3.3)  HLASM R4.0  2004/03/15 12.42
+___    ______ ____    _____ _____  ____ __ ______    ______ _________
0                                  15448                       ¿þþþþþþþþþþþþþþþþþþþþþþþþþþþþþþþþþþþþþþþþþþþþþþþþþþþþþþþþÜ
                                   15449                       Ÿ  We are now in dispatcher mode (CVCURJCB=0) and using  Ÿ
                                   15450                       Ÿ    the dispatcher's stack.                             Ÿ
                                   15451                       ¾þþþþþþþþþþþþþþþþþþþþþþþþþþþþþþþþþþþþþþþþþþþþþþþþþþþþþþþþ»
                                   15452                       ENTRY DISPCONT
 000634 0D70                       15453              DISPCONT BASE
 DROP   BASE,R7
 USING  *,R7
 000636 5870 77CA            00E00 15470                       BASE  BASE
 DROP   *,R7
 USING  BASE,R7
                                   15488                       ¿þþþþþþþþþþþþþþþþþþþþþþþþþþþþþþþþþþþþþþþþþþþþþþþþþþþþþþþþþþþþþÜ
                                   15489                       Ÿ  While we were in dispatcher mode we queued some DEBUGGING  Ÿ
                                   15490                       Ÿ     messages; handle starting up the debugger line now.     Ÿ
                                   15491                       ¾þþþþþþþþþþþþþþþþþþþþþþþþþþþþþþþþþþþþþþþþþþþþþþþþþþþþþþþþþþþþþ»
 00063A 9180 C4CC/47E0_004CC       15492                       IF    CVFDEBUGIO,BEGIN    DEBUG messages waiting...
 000642 947F C4CC      004CC       15507  1                      CLEAR CVFDEBUGIO          Reset
 000646 58E0 7B28/0DEE       00E34 15514  1                      VCALL DEBDISP             Dispatch debugger now
 00064C                            15518                       END
                                   15522                       ¿þþþþþþþþþþþþþþþþþþþþþþþþþþþþþþþþþþþþþþþþþþÜ
                                   15523                       Ÿ  Start global checkpoint I/O if needed.  Ÿ
                                   15524                       ¾þþþþþþþþþþþþþþþþþþþþþþþþþþþþþþþþþþþþþþþþþþ»
 00064C                            15525              DISPCHIO BEGIN ,                   CHECKPOINT I/O CHECKS
                                   15530  1                      ¿þþþþþþþþþþþþþþþþþþþþþþþþþþþþþþþþþþþþþþþþþþþþþþþþþþþþþþþþþþþþþþÜ
                                   15531  1                      Ÿ  Wait until at least 10 seconds have elapsed before writing  Ÿ
                                   15532  1                      Ÿ    out the checkpoint record again.                          Ÿ
                                   15533  1                      Ÿ                                                              Ÿ
                                   15534  1                      Ÿ  CAUTION: Treat all halfword values as unsigned 16 bit       Ÿ
                                   15535  1                      Ÿ           integers.                                          Ÿ
                                   15536  1                      ¾þþþþþþþþþþþþþþþþþþþþþþþþþþþþþþþþþþþþþþþþþþþþþþþþþþþþþþþþþþþþþþ»
 00064C 58F0 C630            00630 15537  1                      L     R15,CVDSPCLK        Current time (lsb is seconds)
 000650 5FF0 C9F8            009F8 15538  1                      SL    R15,CVCHKCLK        No. of seconds since last
 000654 55F0 7B2C/4740_      00E38 15539  1                      IF    (R15,LLT,10),EXIT   Keep waiting, scram
 00065C D501 C9F4 C9E4_009F4 009E4 15559  1                      IF    (CVCHKUC,EQ,CVCHKPUC),EXIT    CHECKPOINT NOT NEEDED
 000666 9140 C4C7/4710_004C7       15580  1                      IF    CVFNCHK,EXIT                  NO CHECKPOINTING
 00066E 9180 C9C4/4710_009C4       15598  1                      IF    CVCHKECB.X'80',EXIT           I/O NOT COMPLETE
 000676 D603 C9C4 C9C4_009C4 009C4 15617  1                      IF    (CVCHKECB,Z),EXIT             I/O NOT COMPLETE
 000680 917F C9C4/47B0_009C4       15636  1                      IF    (CVCHKECB.X'7F',MIXED),BEGIN  I/O ERROR OCCURRED
                                   15654  2                        ¿þþþþþþþþþþþþþþþþþþþþþþþþþþþþþþþþþþþþþþþþþþþþþþþþþþþþþþþþþþþÜ
                                   15655  2                        Ÿ  An error has occurred during checkpoint I/O.  Inform     Ÿ
                                   15656  2                        Ÿ  console and then disable further attempts at checkpoint  Ÿ
                                   15657  2                        Ÿ  I/O.                                                     Ÿ
                                   15658  2                        ¾þþþþþþþþþþþþþþþþþþþþþþþþþþþþþþþþþþþþþþþþþþþþþþþþþþþþþþþþþþþ»
 000688 9640 C4C7      004C7       15659  2                        SET   CVFNCHK             Disable further checkpointing
                                   15665  2                        SEGDEF L:CVWTOSGP         Load and define console segcb
 00068C 4110 7AD4/4100_      00DE0 15666  2                        SEG   'I/O error on checkpoint record, '
 00069E 4110 7BBB/4100_      00EC7 15681  2                        SEG   'checkpointing disabled.'
 0006B0 9610 C4CB      004CB       15696  2                        SET   CVWTOFACTION        Make it an action message
 0006B4 1B00/58F0 C748_            15702  2                        XWTO  ,                   Issue message to console
                                   15725  2                        SEGDEF DUMMY              Safety disable
 0006C0 94EF C4CB      004CB       15726  2                        CLEAR CVWTOFACTION        Clear action message
 0006C4 47F0 740A            00716 15733  2                        EXIT  DISPCHIO            Exit checkpoint i/o process
 0006C8                            15736  1                      END   ,
                                   15740  1
1DISP     (DISP2193) (12:42) (15MAR04) WYLBUR's Dispatcher                                                                  Page   24
0Current Usings:  (JCB,R6) (BASE,R7) (CP,R11) (CV,R12)
0Loc    Object Code    Addr1 Addr2  Stmt Lv Lineno    Source Statement           (Hibal 5, Asmedit 3.3)  HLASM R4.0  2004/03/15 12.42
+___    ______ ____    _____ _____  ____ __ ______    ______ _________
00006C8 D201 C9E4 C9F4 009E4 009F4 15741  1                      MVC   CVCHKPUC,CVCHKUC    Update count
 0006CE D207 C9F8 C630 009F8 00630 15742  1                      MVC   CVCHKCLK,CVDSPCLK   Current time
                                   15743  1
 0006D4 58E0 C9C0            009C0 15744  1                      L     R14,CVCHKBUF        Checkpoint i/o buffer address
 0006D8 41F0 0438            00438 15745  1                      LA    R15,L'CVCHKPFX      Length of chkpt prefix
 0006DC 4100 C9F0            009F0 15746  1                      LA    R0,CVCHKPFX         Address of prefix
 0006E0 181F                       15747  1                      LR    R1,R15              Copy length
 0006E2 0EE0                       15748  1                      MVCL  R14,R0              Move in prefix
 0006E4 1FFF/BFF3 C9E2             15749  1                      L2    R15,CVCHKTLN        Length of checkpoint table
 0006EA 5800 C9C8            009C8 15757  1                      L     R0,CVCHKTAB         Address of checkpoint table
 0006EE 181F                       15758  1                      LR    R1,R15              Copy length
 0006F0 0EE0                       15759  1                      MVCL  R14,R0              Move in initial table
 0006F2 41F0 0008            00008 15760  1                      LA    R15,L'CVCHKSFX      Length of suffix
 0006F6 4100 CE28            00E28 15761  1                      LA    R0,CVCHKSFX         Address of suffix
 0006FA 181F                       15762  1                      LR    R1,R15              Copy length
 0006FC 0EE0                       15763  1                      MVCL  R14,R0              Copy in suffix
00006FE D703 C9C4 C9C4 009C4 009C4 15765  1                      CLEAR CVCHKECB            Clear Checkpoint I/O ECB
 000704 5810 C9BC            009BC 15772  1                      L     R1,CVCHKIOB
 000708 0A00                       15773  1                      EXCP  (1)                 Start new checkpoint I/O
 00070A 41F0 0001/5EF0_      00001 15776  1                      INCR  R15,CVCHKNIO
 000716                            15782                       END
1DISP     (DISP2193) (12:42) (15MAR04) WYLBUR's Dispatcher                                                                  Page   25
0Current Usings:  (JCB,R6) (BASE,R7) (CP,R11) (CV,R12)
0Loc    Object Code    Addr1 Addr2  Stmt Lv Lineno    Source Statement           (Hibal 5, Asmedit 3.3)  HLASM R4.0  2004/03/15 12.42
+___    ______ ____    _____ _____  ____ __ ______    ______ _________
0                                  15787                       ¿þþþþþþþþþþþþþþþþþþÜ
                                   15788                       Ÿ  Process posts.  Ÿ
                                   15789                       ¾þþþþþþþþþþþþþþþþþþ»
 000716 1BFF                       15790              SEARCH   CLEAR R15
 000718 50F0 C720            00720 15795                       ST    R15,CVECB           Reset main ECB
                                   15796                       ¿þþþþþþþþþþþþþþþþþþþþþþþþþÜ
                                   15797                       Ÿ  Process MILTEN posts.  Ÿ
                                   15798                       ¾þþþþþþþþþþþþþþþþþþþþþþþþþ»
 00071C 58E0 7B38/0DEE       00E44 15799                       VCALL MILPOST             Check out MILTEN posts
                                   15803                       ¿þþþþþþþþþþþþþþþþþþþþþþþþþþþþþþþþþÜ
                                   15804                       Ÿ  Process resource group posts.  Ÿ
                                   15805                       ¾þþþþþþþþþþþþþþþþþþþþþþþþþþþþþþþþþ»
 000722 9835 C6D8            006D8 15806                       LM    R3,R5,CVRSG         Load the rsg ptr
 USING  RSCGROUP,R3                15807                       USING RSCGROUP,R3
 000726 9180 303B/47E0_0003B       15816              SRCHLOOP IF    RSG1ACTV,BEGIN
 00072E 4120 3014            00014 15832  1                      LA    R2,RSGQACFW-(RSC@NEXT-RESOURCE)
 USING  RESOURCE,R2                15833  1                      USING RESOURCE,R2
 000732 5920 3018/4780_      00018 15842  1                      WHILE (R2,NE,RSGQACBK),BEGIN
 00073A 5820 2000            00000 15861  2                        L     R2,RSC@NEXT         Get next
 00073E 9180 2014/47E0_00014       15862  2                        IF    RSC1ACTV,BEGIN      Only look at active rscs
 000746 4110 200C            0000C 15877  3                          LA    R1,RSC$ECB          Assume ECB (not ECB addr)
 00074A 9140 2014/47E0_00014       15878  3                          IF    RSC1@ECB,'L R1,RSC$ECB'
 000756 9140 1000      00000       15899  3                          TM    @R1,X'40'           Is it posted?
 00075A 4780 7492            0079E 15900  3                          IF    NZ,BEGIN
 00075E 58E0 3028/12EE       00028 15911  4                            LT    RAR,RSG@POST        Is there a post routine?
 000764 4780 7462            0076E 15915  4                            IF    NZ,BEGIN
 000768 1802                       15926  5                              LR    R0,R2               Copy rsc pointer
 00076A 1813                       15927  5                              LR    R1,R3               Copy rscgroup ptr
 00076C 0DEE                       15928  5                              BASR  RAR,RAR
 00076E 7466/47F0 7492 0076E 00766 15929  4                            END   ELSE,BEGIN
 000772 947F 2014      00014       15944  5                              CLEAR RSC1ACTV            No longer active
 000776 5860 2008            00008 15951  5                              L     JCBR,RSC@JCB        Get JCB pointer
 00077A D701 6060 6060 00060 00060 15952  5                              CLEAR (JCBWFL,JCBWFSIZ)   Post caller (clear wait flgs)
 000780 9110 6062/4710_00062       15959  5                              IF    ~JCBAPDSP,'SETUP (JCBR)'
 00079E                            16005  4                            END
 00079E                            16009  3                          END
 00079E                            16013  2                        END
 00079E 47F0 7426            00732 16017  1                      END
 0007A2                            16022                       END
 0007A2 8734 741A            00726 16026                       BXLE  R3,R4,SRCHLOOP      Loop through groups
 DROP   RSCGROUP,R3                16027                       DROP  RSCGROUP,RESOURCE
 DROP   RESOURCE,R2
                                   16042                       ¿þþþþþþþþþþþþþþþþþþþþþþþþÜ
                                   16043                       Ÿ  Process timer posts.  Ÿ
                                   16044                       ¾þþþþþþþþþþþþþþþþþþþþþþþþ»
 0007A6 58F0 C088/4110_      00088 16045                       SET   CVLOCK1.CVL1TQJ,MODE=LOCKED,REF=CV   Lock to run q
 0007BE 5860 C294/1266_      00294 16059              TIMRPOST IF    ('LT JCBR,CVTIMRQ',NZ),BEGIN  Someone posted...
 0007C8 58F0 6010            00010 16076  1                      L     R15,JCBTIMQL        Next entry
 0007CC BA6F C294            00294 16077  1                      CS    JCBR,R15,CVTIMRQ    Dequeue this entry
 0007D0 4770 74B2            007BE 16078  1                      BNZ   TIMRPOST            Try again
                                   16079  1
 0007D4 D703 600C 600C 0000C 0000C 16080  1                      CLEAR JCBTIMID            Reset timer id
 0007DA D203 6010 7B40 00010 00E4C 16087  1                      MVC   JCBTIMQL,=F'-1'     Reset timer queue link ptr
                                   16088  1
1DISP     (DISP2193) (12:42) (15MAR04) WYLBUR's Dispatcher                                                                  Page   26
0Current Usings:  (JCB,R6) (BASE,R7) (CP,R11) (CV,R12)
0Loc    Object Code    Addr1 Addr2  Stmt Lv Lineno    Source Statement           (Hibal 5, Asmedit 3.3)  HLASM R4.0  2004/03/15 12.42
+___    ______ ____    _____ _____  ____ __ ______    ______ _________
00007E0 9108 6063/47E0_00063       16089  1                      IF    JCBFTBRK,BEGIN      We want to TBREAK...
 0007E8 94F7 6063      00063       16104  2                        CLEAR JCBFTBRK            Neatness
 0007EC 4800 6048            00048 16111  2                        LH    R0,JCBSEQ           Our session number
 0007F0 58E0 7B44/0DEE       00E50 16112  2                        VCALL TBREAK              Interrupt read
 0007F6 47F0 74B2            007BE 16116  2                        B     TIMRPOST            Loop back
 0007FA                            16117  1                      END
                                   16121  1
 0007FA D701 6060 6060 00060 00060 16122  1                      CLEAR (JCBWFL,JCBWFSIZ)   Clear wait flags
 000800 9110 6062/4710_00062       16129  1                      IF    ~JCBAPDSP,'SETUP (JCBR)'  Post caller
 00081E 47F0 74B2            007BE 16175  1                      B     TIMRPOST
 000822                            16176                       END
 000EF1 BF/41F0 0001/1_00EF1 05778 16180                       CLEAR CVLOCK1.CVL1TQJ,MODE=LOCKED,REF=CV   Unlock when done
                                   16225                       ¿þþþþþþþþþþþþþþþþþþþþþþþþþþþþþþþþþþþþþþþþþþþþþÜ
                                   16226                       Ÿ  Process user ECBs which have been posted.  Ÿ
                                   16227                       ¾þþþþþþþþþþþþþþþþþþþþþþþþþþþþþþþþþþþþþþþþþþþþþ»
 000840 1B44                       16228              WECBCHK  CLEAR R4                  No previous WECB yet
 000842 4150 C204            00204 16233                       LA    R5,CVWECBQH-(WECBLINK-WECB)  Dummy queue head
 000846                            16234                       LOOP  BEGIN
 USING  WECB,R5                    16240  1                      WITH  (WECB,R5)
 000846 5850 5004/1255_      00004 16253  1                      WHILE ('LT R5,WECBLINK',NZ)
 000850 5820 500C            0000C 16270  1                      L     R2,WECBECBP
 000854 9140 2000/47E0_00000       16271  1                      IF    @R2.X'40',BEGIN     ECB has been posted...
 00085C 5860 5008            00008 16287  2                        L     JCBR,WECBJCBP       This user's JCB ptr
 000860 D701 6060 6060 00060 00060 16288  2                        CLEAR (JCBWFL,JCBWFSIZ)   Clear wait flags
 000866 9110 6062/4710_00062       16295  2                        IF    ~JCBAPDSP,'SETUP (JCBR)'  Post caller
                                   16341  2
 000884 1244/4770 7584_            16342  2                        IF    (R4,Z),'MVC CVWECBQH,WECBLINK'  New queue head
 000890 7588/47F0 758E_00890 00888 16362  2                        ELSE  'MVC @R4+(WECBLINK-WECB)(4),WECBLINK'  Dequeue us
 00089A D603 5004 5004_00004 00004 16379  2                        IF    (WECBLINK,Z),'ST R4,CVWECBQT'  New queue tail
                                   16401  2
 0008A8 D203 5000 7B48 00000 00E54 16402  2                        MVC   WECB(4),=C'FECB'    Zap control block ID
 0008AE D203 5004 7B40 00004 00E4C 16403  2                        MVC   WECBLINK,=F'-1'     Safety
 0008B4 4110 5000            00000 16404  2                        LA    R1,WECB
 0008B8 58E0 7B4C/0DEE       00E58 16405  2                        VCALL FREECORE            Free WECB
 0008BE 47F0 7534            00840 16409  2                        B     WECBCHK             Restart from the top
 0008C2                            16410  1                      END
                                   16414  1
 0008C2 1845                       16415  1                      LR    R4,R5               Save previous WECB ptr
 0008C4 47F0 753A            00846 16416                       END
 DROP   WECB,R5
                                   16426                       ¿þþþþþþþþþþþþþþþþþþþþþþþþþþþþþþþþÜ
                                   16427                       Ÿ  Call external post routines.  Ÿ
                                   16428                       ¾þþþþþþþþþþþþþþþþþþþþþþþþþþþþþþþþ»
 0008C8 182B                       16429                       LR    R2,CPR
 0008CA 1BBB                       16430                       CLEAR CPR                 (Safety)
                                   16434
 0008CC 58E0 7B50/0DEE       00E5C 16435                       VCALL PATHPOST            User paths
 0008D2 58E0 7B54/0DEE       00E60 16439                       VCALL NPATPOST            Network connections
                                   16443
 0008D8 58F0 C0C8/12FF_      000C8 16444                       IF    ('LT R15,CVVTAMQH',NZ),'VCALL VTAMDISP'  VTAM stuff
                                   16469
 0008E8 18B2                       16470                       LR    CPR,R2
1DISP     (DISP2193) (12:42) (15MAR04) WYLBUR's Dispatcher                                                                  Page   27
0Current Usings:  (JCB,R6) (BASE,R7) (CP,R11) (CV,R12)
0Loc    Object Code    Addr1 Addr2  Stmt Lv Lineno    Source Statement           (Hibal 5, Asmedit 3.3)  HLASM R4.0  2004/03/15 12.42
+___    ______ ____    _____ _____  ____ __ ______    ______ _________
0                                  16471                       ¿þþþþþþþþþþþþþþþþþþþþþþþþþþþþþþþþþþþþþþþþþþþþþþþþþþþþþþþþþþþþþÜ
                                   16472                       Ÿ  Process the completion of any page I/O.                    Ÿ
                                   16473                       Ÿ                                                             Ÿ
                                   16474                       Ÿ  Important note:  This is a bit subtle, the following line  Ÿ
                                   16475                       Ÿ    must be "CVPOSTQH,NE,=F'0'" and not "CVPOSTQH,NZ"        Ÿ
                                   16476                       Ÿ    because we need to avoid doing an OC instruction on      Ÿ
                                   16477                       Ÿ    memory that may be updated by multiple CPUs.             Ÿ
                                   16478                       ¾þþþþþþþþþþþþþþþþþþþþþþþþþþþþþþþþþþþþþþþþþþþþþþþþþþþþþþþþþþþþþ»
 0008EA D503 7B5C C1E0_00E68 001E0 16479                       IF    (CVPOSTQH,NE,=F'0'),'ACALL PIODONE'  Page I/O done
                                   16505                       ¿þþþþþþþþþþþþþþþþþþþþþþþþþþþþþþþþþþþþþþþÜ
                                   16506                       Ÿ  Write out really old changed pages.  Ÿ
                                   16507                       ¾þþþþþþþþþþþþþþþþþþþþþþþþþþþþþþþþþþþþþþþ»
 0008FA 58F0 C630            00630 16508                       L     R15,CVDSPCLK
 0008FE 5BF0 C638            00638 16509                       S     R15,CVOLDCLK        Calc elapsed seconds
 000902 55F0 7B64/4750_      00E70 16510                       IF    (R15,LGE,2),BEGIN   Every 2 seconds...
 00090A D207 C638 C630 00638 00630 16527  1                      MVC   CVOLDCLK,CVDSPCLK   Update periodic clock
 000910 58E0 7B68/0DEE       00E74 16528  1                      ACALL CHECKOUT            Do required checkpointing
 000916                            16532                       END
                                   16536                       ¿þþþþþþþþþþþþþþþþþþþþþþþþþþÜ
                                   16537                       Ÿ  Setup any ready users.  Ÿ
                                   16538                       ¾þþþþþþþþþþþþþþþþþþþþþþþþþþ»
 000916 5850 7B6C            00E78 16539                       L     R5,=V(SETRSG)       Get the setup resource group ptr
 USING  RSCGROUP,R5                16540                       USING RSCGROUP,R5
 00091A 9140 503B/47E0_0003B       16549                       IF    RSG1QUED,BEGIN      Skip if noone is setupable
 000922 47F0 766E            0097A 16564  1                      B     SETNXT              Go enter loop
 000926                            16565  1                      LOOP  BEGIN
 000926 5860 6000            00000 16571  2                        L     JCBR,JCBQF          Get next JCB
 00092A 58E0 7B70/0DEE       00E7C 16572  2                        ACALL ALLOC               Go allocate his pages
 000930 4770 767E            0098A 16576  2                        IF    NZ,TRYRUN           Br allo failed
 000934 94EF 6060      00060       16590  2                        CLEAR JCBWFRSC            No longer waiting for rsc
 000938 1816/58E0 7B74_            16597  2                        DQJCB (JCBR)              Take off of setup queue
 000940 4800 6032/1200       00032 16607  2                        LTH   R0,JCB#PIO          Check for queue
 000946 4780 764E/4110_      0095A 16611  2                        IF    NZ,'PAGEQ (JCBR)'   On pageio queue
 00095A 7652/47F0 766E 0095A 00948 16646  2                        ELSE  BEGIN               Add user to RUN queue...
 00095E 4110 0001/1806_      00001 16657  3                          RUNQ  (JCBR)
 00096E 41F0 0001/4AF0_      00001 16676  3                          INCR  R15,CVRUNCUR        Kick run queue depth
 00097A                            16682  2                        END
                                   16686  2
 00097A 4160 5030            00030 16687  2           SETNXT       LA    JCBR,RSGQJCFW-(JCBQF-JCBSTART)  Point at first
 00097E 5960 5034/4770_      00034 16688  1                      UNTIL (JCBR,EQ,RSGQJCBK),END  Repeat until empty
 000986 94BF 503B      0003B       16713  1                      CLEAR RSG1QUED            No longer queued
 00098A                            16720                       END
 DROP   RSCGROUP,R5                16724                       DROP  RSCGROUP
                                   16732                       ¿þþþþþþþþþþþþþþþþþþþþþþþþþþþþþþþþÜ
                                   16733                       Ÿ  Run first user on run queue.  Ÿ
                                   16734                       ¾þþþþþþþþþþþþþþþþþþþþþþþþþþþþþþþþ»
 USING  RSCGROUP,R5                16735                       USING RSCGROUP,R5
 00098A 5850 7B78            00E84 16744              TRYRUN   L     R5,=V(RUNRSG)       Get run resource
 00098E 9140 503B/47E0_0003B       16745                       IF    RSG1QUED,BEGIN      Anyone queued?
 000996 5860 5030            00030 16760  1                      L     JCBR,RSGQJCFW       Get first on queue
 00099A 4130 5030            00030 16761  1                      LA    R3,RSGQJCFW-(JCBQF-JCB)
 00099E 48F0 C0D6/06F0_      000D6 16762  1                      DECR  R15,CVRUNCUR        Decrement run queue depth
 0009A8 1816/58E0 7B74_            16767  1                      DQJCB (JCBR)              Take off of runq
 0009B0 5930 5030/4770_      00030 16777  1                      IF    (R3,EQ,RSGQJCFW),'CLEAR RSG1QUED'
1DISP     (DISP2193) (12:42) (15MAR04) WYLBUR's Dispatcher                                                                  Page   28
0Current Usings:  (RSCGROUP,R5) (JCB,R6) (BASE,R7) (CP,R11) (CV,R12)
0Loc    Object Code    Addr1 Addr2  Stmt Lv Lineno    Source Statement           (Hibal 5, Asmedit 3.3)  HLASM R4.0  2004/03/15 12.42
+___    ______ ____    _____ _____  ____ __ ______    ______ _________
00009BC 94EF 6062      00062       16806  1                      CLEAR JCBAPDSP            No longer pending dispatch
 0009C0 94EF 6060      00060       16813  1                      CLEAR JCBWFRSC            No wait for resource
                                   16820  1                      ¿þþþþþþþþþþþþþþþþþþþþþþþþþþþþÜ
                                   16821  1                      Ÿ  New user just logged on.  Ÿ
                                   16822  1                      ¾þþþþþþþþþþþþþþþþþþþþþþþþþþþþ»
 0009C4 58B0 6014/12BB       00014 16823  1                      LT    CPR,JCBCPX          User's CP
 0009CA 4770 76E8            009F4 16827  1                      IF    Z,BEGIN             New user just logged on...
 0009CE 5060 C1C8            001C8 16838  2                        ST    JCBR,CVCURJCB       Current JCB
 0009D2 5060 C1CC            001CC 16839  2                        ST    JCBR,CVOLDJCB       Set old JCB too
                                   16840  2
 0009D6 58E0 7B7C/0DEE       00E88 16841  2                        VCALL GETCP               Get a new CP
 0009DC 50B0 6014            00014 16845  2                        ST    CPR,JCBCPX          Save CP ptr
                                   16846  2
 0009E0 58E0 7B80            00E8C 16847  2                        L     R14,=V(INITUSER)    Entry point for a new user
 0009E4 50E0 B03C            0003C 16848  2                        ST    R14,CPREGS+(R14*4)  Set dispatch addr
 0009E8 50B0 B030            00030 16849  2                        ST    CPR,CPREGS+(CPR*4)  Save our CP ptr
 0009EC 50C0 B034            00034 16850  2                        ST    CVR,CPREGS+(CVR*4)  Save CV ptr
 0009F0 47F0 77D0            00ADC 16851  2                        B     GORUN               Go run users
 0009F4                            16852  1                      END
                                   16856  1                      ¿þþþþþþþþþþþþþþþþþÜ
                                   16857  1                      Ÿ  Run the user.  Ÿ
                                   16858  1                      ¾þþþþþþþþþþþþþþþþþ»
 0009F4 58F0 6008/12FF       00008 16859  1                      LT    R15,JCBDSPP
 0009FA 4780 773C            00A48 16863  1                      IF    NZ,BEGIN            Another user is waiting...
 0009FE D703 6008 6008 00008 00008 16874  2                        CLEAR JCBDSPP             Reset ptr
 USING  JCB,R15                    16881  2                        WITH  (JCB,R15)
 000A04 94F7 F060      00060       16894  2                        CLEAR JCBWFDSP            No longer waiting
 000A08 4800 F060/1200       00060 16901  2                        LTH   R0,JCBWFL           Ok to setup?
 000A0E 4770 773C            00A48 16905  2                        IF    Z,BEGIN             Setup if so
 000A12 5800 F000/1200       00000 16916  3                          LT    R0,JCBQF            Already queued?
 000A18 4780 7728/900F_      00A34 16920  3                          FAIL  NZ,RUNERR1,'JCB RUNQ logic error'
 000A34 9610 F062/4110_00062       16943  3                          SETUP (R15)               Setup JCB
 000A48                            16968  2                        END
 DROP   JCB,R15                    16972  1                      END
                                   16981  1
 000A48 5060 C1C8            001C8 16982  1                      ST    JCBR,CVCURJCB       We are the current user
                                   16983  1                      ¿þþþþþþþþþþþþþþþþþþþþþþþþþþþþþþþþþþþþþþþþþþþþþþþþþþþþþþþþþþþþþÜ
                                   16984  1                      Ÿ  For test systems zap stack/heap/dir on every dispatch to   Ÿ
                                   16985  1                      Ÿ    help flush out logic errors that might only occur under  Ÿ
                                   16986  1                      Ÿ    load otherwise.                                          Ÿ
                                   16987  1                      ¾þþþþþþþþþþþþþþþþþþþþþþþþþþþþþþþþþþþþþþþþþþþþþþþþþþþþþþþþþþþþþ»
 000A4C 9140 C4C4/47E0_004C4       16988  1                      IF    CVFPGROT,BEGIN      It's a test system...
 000A54 5800 C274            00274 17003  2                        L     R0,CVSTACK
 000A58 5810 C26C            0026C 17004  2                        L     R1,CVSTACKL
 000A5C 1BEE                       17005  2                        CLEAR R14
 000A5E 58F0 7B84            00E90 17009  2                        L     R15,=A(X'81000000')
 000A62 0E0E                       17010  2                        MVCL  R0,R14              Zap current stack
                                   17011  2
 000A64 5800 C280            00280 17012  2                        L     R0,CVHEAP
 000A68 5810 C27C            0027C 17013  2                        L     R1,CVHEAPL
 000A6C 1BEE                       17014  2                        CLEAR R14
 000A6E 58F0 7B84            00E90 17018  2                        L     R15,=A(X'81000000')
 000A72 0E0E                       17019  2                        MVCL  R0,R14              Zap current heap
                                   17020  2
1DISP     (DISP2193) (12:42) (15MAR04) WYLBUR's Dispatcher                                                                  Page   29
0Current Usings:  (RSCGROUP,R5) (JCB,R6) (BASE,R7) (CP,R11) (CV,R12)
0Loc    Object Code    Addr1 Addr2  Stmt Lv Lineno    Source Statement           (Hibal 5, Asmedit 3.3)  HLASM R4.0  2004/03/15 12.42
+___    ______ ____    _____ _____  ____ __ ______    ______ _________
0000A74 D203 C1CC 7B40 001CC 00E4C 17021  2                        MVC   CVOLDJCB,=F'-1'     Force "different user" logic
 000A7A                            17022  1                      END
                                   17026  1                      ¿þþþþþþþþþþþþþþþþþþþþþþþþþþþþþþþþþþþþþþþþþþþþþþþþÜ
                                   17027  1                      Ÿ  Dispatching a different user than last time.  Ÿ
                                   17028  1                      ¾þþþþþþþþþþþþþþþþþþþþþþþþþþþþþþþþþþþþþþþþþþþþþþþþ»
 000A7A 58B0 6014            00014 17029  1                      L     CPR,JCBCPX          Get user's CP ptr
 000A7E D501 7BA8 B000_00EB4 00000 17030  1                      FAIL  (CP,NE,'CP'),CPERR2,'Dispatcher CP error.'
                                   17059  1
 000AA0 5960 C1CC/4780_      001CC 17060  1                      IF    (JCBR,NE,CVOLDJCB),BEGIN  Dispatching diff user...
 000AA8 5060 C1CC            001CC 17077  2                        ST    JCBR,CVOLDJCB       Set old JCB too
                                   17078  2                        ¿þþþþþþþþþþþþþþþþþþþþþþþþþÜ
                                   17079  2                        Ÿ  Restore user's stack.  Ÿ
                                   17080  2                        ¾þþþþþþþþþþþþþþþþþþþþþþþþþ»
 000AAC 5820 6018/1222_      00018 17081  2                        IF    ('LT R2,JCBSTKL',NZ),BEGIN
 000AB6 58E0 C274/18F2_      00274 17097  3                          MOVEL L:CVSTACK,L:JCBSTKX+4,(R2)  Restore stack
 000AC4                            17115  2                        END
                                   17119  2                        ¿þþþþþþþþþþþþþþþþþþþþþþþþÜ
                                   17120  2                        Ÿ  Restore user's heap.  Ÿ
                                   17121  2                        ¾þþþþþþþþþþþþþþþþþþþþþþþþ»
 000AC4 5820 6024/1222_      00024 17122  2                        IF    ('LT R2,JCBHEAPL',NZ),BEGIN
 000ACE 58E0 C280/18F2_      00280 17138  3                          MOVEL L:CVHEAP,L:JCBHEAPX+4,(R2)  Restore heap
 000ADC                            17156  2                        END
 000ADC                            17160  1                      END
                                   17164  1           *
                                   17165  1           *
 000ADC 41F0 0001/5EF0_      00001 17166  1           GORUN      INCR  R15,CVNDISP         Count number of dispatches
                                   17172  1                      ¿þþþþþþþþþþþþþþþþþþþþþþþþþþþþþþþþþþþþþþþþþþþþþþþþþþþþþþþþþþþþþþþÜ
                                   17173  1                      Ÿ  Fix up page registers if they currently have pages in them.  Ÿ
                                   17174  1                      ¾þþþþþþþþþþþþþþþþþþþþþþþþþþþþþþþþþþþþþþþþþþþþþþþþþþþþþþþþþþþþþþþ»
 000AE8 58F0 6040/12FF       00040 17175  1                      LT    R15,JCBPTA          Is there a page A?
 000AEE 4780 7832            00B3E 17179  1                      IF    NZ,BEGIN            Yes...
 000AF2 58F0 F00C            0000C 17190  2                        WITH  (PT,R15),'L R15,PTPCBP'
 USING  PT,R15
 DROP   PT,R15
 USING  PCB,R15                    17214  2                        WITH  (PCB,R15)
 000AF6 D502 7BB8 F000_00EC4 00000 17227  2                        FAIL  (PCB,NE,'PCB'),PCBERR03,'Dispatcher PCB error.'
 000B18 9180 F01D/47E0_0001D       17256  2                        FAIL  PCBFIO,DISPERX2,'Dispatcher error.'
 000B38 D203 B028 F008 00028 00008 17283  2                        MVC   CPREGS+(PAR*4)(4),CVPINDEX(R15)  Update PAR
 DROP   PCB,R15                    17284  1                      END
                                   17293  1
 000B3E 58F0 6044/12FF       00044 17294  1                      LT    R15,JCBPTB          Is there a page B?
 000B44 4780 7888            00B94 17298  1                      IF    NZ,BEGIN            Yes...
 000B48 58F0 F00C            0000C 17309  2                        WITH  (PT,R15),'L R15,PTPCBP'
 USING  PT,R15
 DROP   PT,R15
 USING  PCB,R15                    17333  2                        WITH  (PCB,R15)
 000B4C D502 7BB8 F000_00EC4 00000 17346  2                        FAIL  (PCB,NE,'PCB'),PCBERR04,'Dispatcher PCB error.'
 000B6E 9180 F01D/47E0_0001D       17375  2                        FAIL  PCBFIO,DISPERX4,'Dispatcher error.'
 000B8E D203 B02C F008 0002C 00008 17402  2                        MVC   CPREGS+(PBR*4)(4),CVPINDEX(R15)  Update PBR
 DROP   PCB,R15                    17403  1                      END
                                   17412  1           *
                                   17413  1           *
                                   17414  1           *************************
                                   17415  1           ***  User is running  ***
1DISP     (DISP2193) (12:42) (15MAR04) WYLBUR's Dispatcher                                                                  Page   30
0Current Usings:  (RSCGROUP,R5) (JCB,R6) (BASE,R7) (CP,R11) (CV,R12)
0Loc    Object Code    Addr1 Addr2  Stmt Lv Lineno    Source Statement           (Hibal 5, Asmedit 3.3)  HLASM R4.0  2004/03/15 12.42
+___    ______ ____    _____ _____  ____ __ ______    ______ _________
0                                  17416  1           *************************
                                   17417  1           *
                                   17418  1           *  Start user CPU time clock.
                                   17419  1           *
 000B94 58E0 7AF8/0DEE       00E04 17420  1                      ACALL GETCPU              Go get CPU time
 000B9A 5010 C6FC            006FC 17424  1                      ST    R1,CVRCPUTM         Save start cpu time
 000B9E 94FB C4C4      004C4       17425  1                      CLEAR CVFDISP             Now running in user mode
                                   17432  1                      ¿þþþþþþþþþþþþþþþþþþþþþþþþþþþþþþþþþþþþþþþþÜ
                                   17433  1                      Ÿ  Restore user registers and warp out.  Ÿ
                                   17434  1                      ¾þþþþþþþþþþþþþþþþþþþþþþþþþþþþþþþþþþþþþþþþ»
 000BA2 980F B004            00004 17435  1                      LM    R0,R15,CPREGS       Pick up user regs
 000BA6 900F C780/4DE0_      00780 17436  1                      XTRACE DISP,REGS=RAR      ********
 000BBA 07FE                       17442  1                      BR    RAR                 Return to user
 000BBC                            17443                       END
                                   17447
 DROP   RSCGROUP,R5                17448                       DROP  RSCGROUP
1DISP     (DISP2193) (12:42) (15MAR04) WYLBUR's Dispatcher                                                                  Page   31
0Current Usings:  (JCB,R6) (BASE,R7) (CP,R11) (CV,R12)
0Loc    Object Code    Addr1 Addr2  Stmt Lv Lineno    Source Statement           (Hibal 5, Asmedit 3.3)  HLASM R4.0  2004/03/15 12.42
+___    ______ ____    _____ _____  ____ __ ______    ______ _________
0                                  17457                       ¿þþþþþþþþþþþþþþþþþþþþþþþþþþþþþþÜ
                                   17458                       Ÿ  Run through the I/O queue.  Ÿ
                                   17459                       ¾þþþþþþþþþþþþþþþþþþþþþþþþþþþþþþ»
 DROP   JCB,R6                     17460                       DROP  JCBR                No longer need to address JCB
 000BBC 58F0 C6E8            006E8 17467              WAIT     L     R15,CVECBLST        Point at ECB list
 000BC0 9200 F000      00000       17468                       MVI   @R15,0              Reset first address
                                   17469                       ¿þþþþþþþþþþþþþþþþþþþþþþþþþþþþþþþÜ
                                   17470                       Ÿ  Run through resource queue.  Ÿ
                                   17471                       ¾þþþþþþþþþþþþþþþþþþþþþþþþþþþþþþþ»
 000BC4 1B22                       17472                       CLEAR R2                  Zero ECB entry counter
                                   17476
 000BC6 9835 C6D8            006D8 17477                       LM    R3,R5,CVRSG         Get the group loop
 USING  RSCGROUP,R3                17478                       USING RSCGROUP,R3
 000BCA 9180 303B/47E0_0003B       17487              WAITLOOP IF    RSG1ACTV,BEGIN      If resources in use
 000BD2 4160 3014            00014 17503  1                      LA    R6,RSGQACFW-(RSC@NEXT-RESOURCE)
 USING  RESOURCE,R6                17504  1                      WITH  (RESOURCE,R6)
 000BD6 5960 3018/4780_      00018 17517  1                      WHILE (R6,NE,RSGQACBK),BEGIN
 000BDE 5860 6000            00000 17536  2                        L     R6,RSC@NEXT         Get next resource
 000BE2 9180 6014/47E0_00014       17537  2                        IF    RSC1ACTV,BEGIN
 000BEA 4110 600C            0000C 17552  3                          LA    R1,RSC$ECB          Assume ECB (not ECB addr)
 000BEE 9140 6014/47E0_00014       17553  3                          IF    RSC1@ECB,'L R1,RSC$ECB'  Get ECB addr
 000BFA 4DE0 7992            00C9E 17574  3                          LCALL ADDECB              Go put it on the ECB list
 000BFE                            17576  2                        END
 000BFE 47F0 78CA            00BD6 17580  1                      END
 DROP   RESOURCE,R6                17585                       END
 000C02 8734 78BE            00BCA 17594                       BXLE  R3,R4,WAITLOOP      Go through all groups
 DROP   RSCGROUP,R3                17595                       DROP  RSCGROUP
                                   17603                       ¿þþþþþþþþþþþþþþþþþþþþþþþþþþþþþþþÜ
                                   17604                       Ÿ  Add ECBs on user ECB queue.  Ÿ
                                   17605                       ¾þþþþþþþþþþþþþþþþþþþþþþþþþþþþþþþ»
 000C06 4150 C204            00204 17606                       LA    R5,CVWECBQH-(WECBLINK-WECB)  Dummy queue head
 000C0A                            17607                       LOOP  BEGIN
 USING  WECB,R5                    17613  1                      WITH  (WECB,R5)
 000C0A 5850 5004/1255_      00004 17626  1                      WHILE ('LT R5,WECBLINK',NZ)
 000C14 5810 500C            0000C 17643  1                      L     R1,WECBECBP         Get ECB ptr
 000C18 4DE0 7992            00C9E 17644  1                      LCALL ADDECB              Go put it on the ECB list
 000C1C 47F0 78FE            00C0A 17646                       END
 DROP   WECB,R5
                                   17656                       ¿þþþþþþþþþþþþþþþþþþþþþþþþþþþÜ
                                   17657                       Ÿ  Special recovery check.  Ÿ
                                   17658                       ¾þþþþþþþþþþþþþþþþþþþþþþþþþþþ»
 000C20 1222/4770 7934             17659                       IF    (R2,Z),BEGIN        No ECBs happens in rcvy...
 000C26 9110 C4C5/4710_004C5       17673  1                      IF    (~CVFRCVY,AND,~CVFPUSR),EXIT  Not recovery, scram
                                   17705  1
 000C36 D601 C0D4 C0D4_000D4 000D4 17706  1                      IF    (CVNUSERS,Z),RECDONE  All done with recovery, scram
 000C40                            17725                       END
                                   17729                       ¿þþþþþþþþþþþþþþþþþþþþþþþþþþþþþþþþþþÜ
                                   17730                       Ÿ  Nothing at all is ready, wait.  Ÿ
                                   17731                       ¾þþþþþþþþþþþþþþþþþþþþþþþþþþþþþþþþþþ»
 000C40 4110 C720            00720 17732                       LA    R1,CVECB            Main ECB
 000C44 4DE0 7992            00C9E 17733                       LCALL ADDECB              Always add main ECB to list
                                   17735
 000C48 411F 2000            00000 17736                       LA    R1,@R2(R15)         Point at end of list
 000C4C 5B10 7B88            00E94 17737                       S     R1,=F'4'            Back down to last
1DISP     (DISP2193) (12:42) (15MAR04) WYLBUR's Dispatcher                                                                  Page   32
0Current Usings:  (BASE,R7) (CP,R11) (CV,R12)
0Loc    Object Code    Addr1 Addr2  Stmt Lv Lineno    Source Statement           (Hibal 5, Asmedit 3.3)  HLASM R4.0  2004/03/15 12.42
+___    ______ ____    _____ _____  ____ __ ______    ______ _________
0000C50 9280 1000      00000       17738                       MVI   @R1,X'80'           Terminate list
 000C54 181F                       17739                       LR    R1,R15              Copy pointer
                                   17740                       ¿þþþþþþþþþÜ
                                   17741                       Ÿ  WAIT.  Ÿ
                                   17742                       ¾þþþþþþþþþ»
 000C56 182D/41D0 D008             17743                       XPUSH ,,8,PTR=R2
 000C5C B205 2000      00000       17746                       STCK  @R2                 Save TOD
 000C60 4100 0001/4110_      00001 17747                       WAIT  ECBLIST=(1)         WYLBUR is waiting
 000C6C B205 C630      00630       17754                       STCK  CVDSPCLK            New TOD
 000C70 9801 C630            00630 17755                       LM    R0,R1,CVDSPCLK
 000C74 5F10 2004/47B0_      00004 17756                       SDL   R0,@R2              Voluntary wait time
 000C82 5E10 C644/47C0_      00644 17761                       ADL   R0,CVWTCLK          Keep running total
 000C92 9001 C640            00640 17782                       STM   R0,R1,CVWTCLK       Save total wait time
 000C96 4BD0 7BAA            00EB6 17783                       XPOP  ,,8
 000C9A 47F0 740A            00716 17785                       B     SEARCH
1DISP     (DISP2193) (12:42) (15MAR04) WYLBUR's Dispatcher                                                                  Page   33
0Current Usings:  (BASE,R7) (CP,R11) (CV,R12)
0Loc    Object Code    Addr1 Addr2  Stmt Lv Lineno    Source Statement           (Hibal 5, Asmedit 3.3)  HLASM R4.0  2004/03/15 12.42
+___    ______ ____    _____ _____  ____ __ ______    ______ _________
0                                  17787                       ¿þþþþþþþþþþþþþþþþþþþþþþþþþþþþþþþþþþþþþþÜ
                                   17788                       Ÿ  Routine to put an ECB on the list.  Ÿ
                                   17789                       ¾þþþþþþþþþþþþþþþþþþþþþþþþþþþþþþþþþþþþþþ»
 000C9E 5012 F000            00000 17790              ADDECB   ST    R1,@R15(R2)         Put on list
 000CA2 4120 2004            00004 17791                       LA    R2,@R2+4            Up count
 000CA6 9140 1000      00000       17792                       TM    @R1,X'40'           Is it posted?
 000CAA 078E                       17793                       BZR   RAR                 Br if not return
 000CAC 47F0 740A            00716 17794                       B     SEARCH              Abort build - go loop for work
                                   17795              *
                                   17796              *
 000CB0 9110 C4C5/47E0_004C5       17797              RECDONE  IF    CVFRCVY,BEGIN       Recovery is done...
 000CB8 94EF C4C5      004C5       17813  1                      CLEAR CVFRCVY             No longer doing recovery
 000CBC 58F0 7C04/12FF_      00F10 17820  1                      IF    ('LT R15,RECVCNT',NZ),BEGIN
 000CC6 4100 0004/4110_      00004 17836  2                        BTD   RCVNUM,,(R15)
 000CD4 4110 7BEA/4100_      00EF6 17856  2                        XWTO  RCVMSG              Tell oper recovery is done
 000EF6                00EF1 05778 17883  2           RCVMSG       DATA  BEGIN
 000EF6 6F40404040A4A285           17889  3           RCVNUM         DC    CL4'?',C' user(s) processed.'
 000CE6                0030C 05778 17890  2                        END
 000CE6                            17897  1                      END
 000CE6                            17901                       END
                                   17905
 000CE6 9180 C4C6/47E0_004C6       17906                       IF    CVFNOR,BEGIN        Go away now...
 000CEE 1BFF                       17921  1                      CLEAR R15                 Rc=0
 000CF0 58E0 7B94/0DEE       00EA0 17925  1                      VCALL SHUTDOWN            Terminate normally now
 000CF6                            17929                       END
                                   17933
 000CF6 9104 C4C6/47E0_004C6       17934                       IF    CVFCMDS,BEGIN       Execute initial commands...
 000CFE 94FB C4C6      004C6       17949  1                      CLEAR CVFCMDS             Only do this once
 000D02 58E0 7B98/0DEE       00EA4 17956  1                      VCALL INITCMDS            Set up pseudo-user (see INIT)
 000D08 47F0 740A            00716 17960  1                      B     SEARCH
 000D0C                            17961                       END
                                   17965
 000D0C 94DF C4C6      004C6       17966                       CLEAR CVFPUSR             Reset pseudo-user flag (if on)
                                   17973
 000D10 D703 C1CC C1CC 001CC 001CC 17974                       CLEAR CVOLDJCB            No previous JCB
 000D16 D203 C1C8 C1C4 001C8 001C4 17981                       MVC   CVCURJCB,CVLJCB     Dummy JCB for init stuff
 000D1C 58E0 7B9C/0DEE       00EA8 17982                       VCALL TERMINIT            Do milten initialization
                                   17986
 000D22 9102 C4C5/4710_004C5       17987                       IF    ~CVFTEST,BEGIN      Production version...
 000D2A 5860 0010            00010 18002  1                      L     R6,CVTPTR
 USING  CVT,R6                     18003  1                      WITH  (CVT,R6)
 000D2E 5850 60CC/1255       000CC 18016  1                      LT    R5,CVTUSER          SCIP CVT ptr
 000D34 4780 7A5A            00D66 18020  1                      IF    Z,EXIT              None, scram
 USING  USERCVT,R5                 18034  1                      WITH  (USERCVT,R5)
 000D38 D503 7BA0 5000_00EAC 00000 18047  1                      IF    (USERCVT,NE,'SCIP'),EXIT  Not ours, scram
 000D42 0700/4510 7A40_            18067  1                      MODESET KEY=ZERO          ********
 000D52 9640 5004      00004       18074  1                      SET   USEHSPFL.HSPFWYL    Wylbur is up
 000D56 0700/4510 7A54_            18081  1                      MODESET KEY=NZERO         ********
 DROP   USERCVT,R5                 18088                       END
 DROP   CVT,R6
                                   18102
 000D66 4110 7BAC/4100_      00EB8 18103                       XWTO  'Ready.'            Notify operator
                                   18120
 000D78 9102 C4C5/4710_004C5       18121                       IF    ~CVFTEST,BEGIN
1DISP     (DISP2193) (12:42) (15MAR04) WYLBUR's Dispatcher                                                                  Page   34
0Current Usings:  (BASE,R7) (CP,R11) (CV,R12)
0Loc    Object Code    Addr1 Addr2  Stmt Lv Lineno    Source Statement           (Hibal 5, Asmedit 3.3)  HLASM R4.0  2004/03/15 12.42
+___    ______ ____    _____ _____  ____ __ ______    ______ _________
0000D80 D6EA CA1C CA1C_00A1C 00A1C 18136  1                      IF    (CVMSG,NZ),BEGIN    Display msg...
 000D8A 4110 7BB2/4100_      00EBE 18152  2                        SEG   '***** ',,L:CVWTOSGP
 000D9C 4110 CA1C/4100_      00A1C 18167  2                        SEGT  CVMSG
 000DAE 1B00/58F0 C748_            18193  2                        XWTO
 000DBA                            18216  1                      END
                                   18220  1
 000DBA D607 C050 C050_00050 00050 18221  1                      IF    (CVWORD,NZ),BEGIN   Word is set...
 000DC4 4110 7BD2/4100_      00EDE 18237  2                        XWTO  'System word is set.'
 000DD6                            18254  1                      END
 000DD6                            18258                       END
                                   18262
 000DD6 94F7 C4C5      004C5       18263                       CLEAR CVFINIT             Out of initialization now
 000DDA 47F0 740A            00716 18270                       B     SEARCH
                                   18271
                                   18272                       QLTORG
                                   18337
 000F0D 000000
 000F10 00000000                   18338              RECVCNT  DC    F'0'                Count of users recovered
1DISP     (DISP2193) (12:42) (15MAR04) WYLBUR's Dispatcher                                                                  Page   35
0Current Usings:  (BASE,R7) (CP,R11) (CV,R12)
0Loc    Object Code    Addr1 Addr2  Stmt Lv Lineno    Source Statement           (Hibal 5, Asmedit 3.3)  HLASM R4.0  2004/03/15 12.42
+___    ______ ____    _____ _____  ____ __ ______    ______ _________
0                                  18340              ***
                                   18341              ***  EOSDISP -- Enter dispatcher when we have logged off.
                                   18342              ***
                                   18343                       ENTRY EOSDISP
 000F14 0D70                       18344              EOSDISP  BASE
 DROP   BASE,R7
 USING  *,R7
 000F16 5870 7122            01038 18361                       BASE  BASE                Common dispatcher base
 DROP   *,R7
 USING  BASE,R7
                                   18379
 000F1A 5880 C270            00270 18380                       L     R8,CVDSTK           Switch to dispatcher...
 000F1E 18D8                       18381                       LR    R13,R8              ...stack
                                   18382
 000F20 900F C780/4DE0_      00780 18383                       XTRACE EOSDISP
                                   18388
 000F34 5860 C1C8            001C8 18389                       L     JCBR,CVCURJCB
 USING  JCB,R6                     18390                       USING JCB
                                   18399
 000F38 9104 6062/4710_00062       18400                       FAIL  ~JCBAFRUN,EOSDISP1,'EOSDISP logic error.'
 000F58 D501 7D48 B000_01054 00000 18427                       FAIL  (CP,NE,'CP'),CPERR3,'Dispatcher CP error.'
 000F7A D603 6040 6040_00040 00040 18456                       FAIL  ((JCBPTA,NZ),OR,(JCBPTB,NZ)),PAERR,'EOSDISP error.'
                                   18499                       ¿þþþþþþþþþþþþþþþþþþþþþþþþÜ
                                   18500                       Ÿ  Free user resources.  Ÿ
                                   18501                       ¾þþþþþþþþþþþþþþþþþþþþþþþþ»
 000FA6 58E0 7D30/0DEE       0103C 18502                       VCALL PJUNKALL            Junk all remaining pages
                                   18506
 000FAC 94FB 6062      00062       18507                       CLEAR JCBAFRUN            User is no longer running
 000FB0 9680 6060      00060       18514                       SET   JCBWFSO             Waiting for logon now
 000FB4 9435 6062      00062       18520                       CLEAR JCBFATTN+JCBFPATN+JCBFNATN+JCBAFALO   Tidy up
                                   18539
 000FB8 D703 6014 6014 00014 00014 18540                       CLEAR JCBCPX              No CP any more
 000FBE 58E0 7D34/0DEE       01040 18547                       VCALL FREECP              Make it official
                                   18551
 000FC4 5800 601C/1200       0001C 18552                       LT    R0,JCBSTKX          Stack memory length
 000FCA 1200/4780 7CCA_            18556                       IF    (R0,NZ),'ACALL RELSTACK'
 000FD6 D703 6018 6018 00018 00018 18579                       CLEAR JCBSTKL             No stack memory now
                                   18586
 000FDC 5800 6028/1200       00028 18587                       LT    R0,JCBHEAPX         Heap memory len
 000FE2 1200/4780 7CE2_            18591                       IF    (R0,NZ),'ACALL RELHEAP'
 000FEE D703 6024 6024 00024 00024 18614                       CLEAR JCBHEAPL            No heap memory now
                                   18621
 000FF4 1B66/5060 C1C8_            18622                       CLEAR JCBR,CVCURJCB,CVOLDJCB  No current user
                                   18636                       ¿þþþþþþþþþþþþþþþþþþþþþþþþþþþþþþþþþþþþþþþþþþþþþþþþþþþþþþþþþþÜ
                                   18637                       Ÿ  Shutdown if reload is pending and no one is logged on.  Ÿ
                                   18638                       ¾þþþþþþþþþþþþþþþþþþþþþþþþþþþþþþþþþþþþþþþþþþþþþþþþþþþþþþþþþþ»
 000FFE 9120 C4C4/47E0_004C4       18639                       IF    CVFRLOAD,BEGIN      Reload pending...
 001006 D601 C0D4 C0D4_000D4 000D4 18654  1                      IF    (CVNUSERS,Z),BEGIN
 001010 4110 7D4A/4100_      01056 18670  2                        XWTO  'Reloading'
 001022 41F0 0014            00014 18687  2                        LA    R15,20              OS return code
 001026 58E0 7D44/0DEE       01050 18688  2                        VCALL SHUTDOWN            Go away
 00102C 0000                       18692  2                        DC    H'0'                (No return)
 00102E                            18693  1                      END
 00102E                            18697                       END
1DISP     (DISP2193) (12:42) (15MAR04) WYLBUR's Dispatcher                                                                  Page   36
0Current Usings:  (JCB,R6) (BASE,R7) (CP,R11) (CV,R12)
0Loc    Object Code    Addr1 Addr2  Stmt Lv Lineno    Source Statement           (Hibal 5, Asmedit 3.3)  HLASM R4.0  2004/03/15 12.42
+___    ______ ____    _____ _____  ____ __ ______    ______ _________
0                                  18701
 00102E 47F0 7328            00634 18702                       B     DISPCONT            Re-join common code
                                   18703
 DROP   BASE,R7                    18704                       DROP  BR
                                   18711
                                   18712                       QLTORG
1DISP     (DISP2193) (12:42) (15MAR04) WYLBUR's Dispatcher                                                                  Page   37
0Current Usings:  (JCB,R6) (CP,R11) (CV,R12)
0Loc    Object Code    Addr1 Addr2  Stmt Lv Lineno    Source Statement           (Hibal 5, Asmedit 3.3)  HLASM R4.0  2004/03/15 12.42
+___    ______ ____    _____ _____  ____ __ ______    ______ _________
0                                  18734              ¿þþþþþþþþþþþþþþþþþþþþþþþþþþþþþþþþþþþþþþþþþþþþþþþþþþþþþþþþþþþþþþþþþþþþþÜ
                                   18735              Ÿ                                                                     Ÿ
                                   18736              Ÿ  GETSTACK -- Routine to allocate stack space for user               Ÿ
                                   18737              Ÿ                                                                     Ÿ
                                   18738              Ÿ    On entry:                                                        Ÿ
                                   18739              Ÿ      R0   - indicates the amount of stack space to get              Ÿ
                                   18740              Ÿ      JCBR - points to the user's JCB                                Ÿ
                                   18741              Ÿ                                                                     Ÿ
                                                      ¾þþþþþþþþþþþþþþþþþþþþþþþþþþþþþþþþþþþþþþþþþþþþþþþþþþþþþþþþþþþþþþþþþþþþþ»
0001060 50E0 D000/9008_      00000 18742              GETSTACK PROC
 USING  *,R7
                                   18781                       WITH  JCB
 00107A 1830                       18784                       LR    R3,R0               Save for later
 00107C 18F0                       18785                       LR    R15,R0
 00107E 1BEE                       18786                       CLEAR R14
 001080 5DE0 7046            010C0 18790                       D     R14,=A(STKCHUNK*1024)
 001084 06F0                       18791                       BCTR  R15,0               Array index relative to 0
 001086 5CE0 704A            010C4 18792                       M     R14,=A(L'CELLBLOK)  Convert index to offset
 00108A 5AF0 C5E4            005E4 18793                       A     R15,CVSTKCEL
 00108E 58E0 704E/0DEE       010C8 18794                       ACALL GETPOOL
 001094 1803                       18798                       LR    R0,R3
 001096 9001 601C            0001C 18799                       STM   R0,R1,JCBSTKX       Save new stack memory len, loc
 00109A 41F0 0001/5EF0_      00001 18800                       INCR  R15,CVSTKGET        Count 'em
 0010A6 58F0 C6AC            006AC 18806                       L     R15,CVSTKMEM        Total STACK space used
 0010AA 5AF0 601C            0001C 18807                       A     R15,JCBSTKX         Add in this piece
 0010AE 50F0 C6AC            006AC 18808                       ST    R15,CVSTKMEM        Save new total
 0010B2 18D8/9808 D004_            18809                       PEND
 DROP   *,R7
                                   18829                       QLTORG
1DISP     (DISP2193) (12:42) (15MAR04) WYLBUR's Dispatcher                                                                  Page   38
0Current Usings:  (JCB,R6) (CP,R11) (CV,R12)
0Loc    Object Code    Addr1 Addr2  Stmt Lv Lineno    Source Statement           (Hibal 5, Asmedit 3.3)  HLASM R4.0  2004/03/15 12.42
+___    ______ ____    _____ _____  ____ __ ______    ______ _________
0                                  18845              ¿þþþþþþþþþþþþþþþþþþþþþþþþþþþþþþþþþþþþþþþþþþþþþþþþþþþþþþþþþþþþþþþþþþþþþÜ
                                   18846              Ÿ                                                                     Ÿ
                                   18847              Ÿ  RELSTACK -- Routine to free stack space for user                   Ÿ
                                   18848              Ÿ                                                                     Ÿ
                                   18849              Ÿ    On entry:                                                        Ÿ
                                   18850              Ÿ      JCBR - points to the user's JCB                                Ÿ
                                   18851              Ÿ                                                                     Ÿ
                                                      ¾þþþþþþþþþþþþþþþþþþþþþþþþþþþþþþþþþþþþþþþþþþþþþþþþþþþþþþþþþþþþþþþþþþþþþ»
00010CC 50E0 D000/9008_      00000 18852              RELSTACK PROC
 USING  *,R7
                                   18891                       WITH  JCB
 0010E6 9801 601C            0001C 18894                       LM    R0,R1,JCBSTKX       Stack memory len, loc
 0010EA 1200/4780 7040             18895                       IF    (R0,NZ),BEGIN       Free old stack memory...
 0010F0 41F0 0001/5EF0_      00001 18909  1                      INCR  R15,CVSTKFRE        Count 'em
 0010FC 58F0 C6AC            006AC 18915  1                      L     R15,CVSTKMEM        Total STACK space used
 001100 5BF0 601C            0001C 18916  1                      S     R15,JCBSTKX         Deduct from total
 001104 50F0 C6AC            006AC 18917  1                      ST    R15,CVSTKMEM        Save new total
 001108 D707 601C 601C 0001C 0001C 18918  1                      CLEAR JCBSTKX
 00110E 18F0                       18925  1                      LR    R15,R0
 001110 1BEE                       18926  1                      CLEAR R14
 001112 5DE0 7052            01138 18930  1                      D     R14,=A(STKCHUNK*1024)
 001116 06F0                       18931  1                      BCTR  R15,0               Array index relative to 0
 001118 5CE0 7056            0113C 18932  1                      M     R14,=A(L'CELLBLOK)  Convert index to offset
 00111C 5AF0 C5E4            005E4 18933  1                      A     R15,CVSTKCEL
 001120 58E0 705A/0DEE       01140 18934  1                      ACALL FREEPOOL
 001126                            18938                       END
 001126 18D8/9808 D004_            18942                       PEND
 DROP   *,R7
                                   18962                       QLTORG
1DISP     (DISP2193) (12:42) (15MAR04) WYLBUR's Dispatcher                                                                  Page   39
0Current Usings:  (JCB,R6) (CP,R11) (CV,R12)
0Loc    Object Code    Addr1 Addr2  Stmt Lv Lineno    Source Statement           (Hibal 5, Asmedit 3.3)  HLASM R4.0  2004/03/15 12.42
+___    ______ ____    _____ _____  ____ __ ______    ______ _________
0                                  18978              ¿þþþþþþþþþþþþþþþþþþþþþþþþþþþþþþþþþþþþþþþþþþþþþþþþþþþþþþþþþþþþþþþþþþþþþÜ
                                   18979              Ÿ                                                                     Ÿ
                                   18980              Ÿ  HEAPGET -- Routine to allocate heap space for user                 Ÿ
                                   18981              Ÿ                                                                     Ÿ
                                   18982              Ÿ    On entry:                                                        Ÿ
                                   18983              Ÿ      R0   - indicates the amount of heap space to get               Ÿ
                                   18984              Ÿ      JCBR - points to the user's JCB                                Ÿ
                                   18985              Ÿ                                                                     Ÿ
                                                      ¾þþþþþþþþþþþþþþþþþþþþþþþþþþþþþþþþþþþþþþþþþþþþþþþþþþþþþþþþþþþþþþþþþþþþþ»
0001144 50E0 D000/9008_      00000 18986              HEAPGET  PROC
 USING  *,R7
                                   19025                       WITH  JCB
 00115E 1830                       19028                       LR    R3,R0               Save for later
 001160 18F0                       19029                       LR    R15,R0
 001162 1BEE                       19030                       CLEAR R14
 001164 5DE0 704A            011A8 19034                       D     R14,=A(HPCHUNK*1024)
 001168 06F0                       19035                       BCTR  R15,0               Array index relative to 0
 00116A 5CE0 704E            011AC 19036                       M     R14,=A(L'CELLBLOK)  Convert index to offset
 00116E 5AF0 C5E8            005E8 19037                       A     R15,CVHEAPCL
 001172 58E0 7052/0DEE       011B0 19038                       ACALL GETPOOL
 001178 1803                       19042                       LR    R0,R3
 00117A 9001 6028            00028 19043                       STM   R0,R1,JCBHEAPX      Save new heap memory len, loc
 00117E 58F0 C6AC            006AC 19044                       L     R15,CVSTKMEM        Total HEAP (STACK) space used
 001182 5AF0 6028            00028 19045                       A     R15,JCBHEAPX        Add in this piece
 001186 50F0 C6AC            006AC 19046                       ST    R15,CVSTKMEM        Save new total
 00118A 41F0 0001/5EF0_      00001 19047                       INCR  R15,CVHEAPGT        Count 'em
 001196 18D8/9808 D004_            19053                       PEND
 DROP   *,R7
                                   19073                       QLTORG
1DISP     (DISP2193) (12:42) (15MAR04) WYLBUR's Dispatcher                                                                  Page   40
0Current Usings:  (JCB,R6) (CP,R11) (CV,R12)
0Loc    Object Code    Addr1 Addr2  Stmt Lv Lineno    Source Statement           (Hibal 5, Asmedit 3.3)  HLASM R4.0  2004/03/15 12.42
+___    ______ ____    _____ _____  ____ __ ______    ______ _________
0                                  19089              ¿þþþþþþþþþþþþþþþþþþþþþþþþþþþþþþþþþþþþþþþþþþþþþþþþþþþþþþþþþþþþþþþþþþþþþÜ
                                   19090              Ÿ                                                                     Ÿ
                                   19091              Ÿ  RELHEAP -- Routine to free heap space for user                     Ÿ
                                   19092              Ÿ                                                                     Ÿ
                                   19093              Ÿ    On entry:                                                        Ÿ
                                   19094              Ÿ      JCBR - points to the user's JCB                                Ÿ
                                   19095              Ÿ                                                                     Ÿ
                                                      ¾þþþþþþþþþþþþþþþþþþþþþþþþþþþþþþþþþþþþþþþþþþþþþþþþþþþþþþþþþþþþþþþþþþþþþ»
00011B4 50E0 D000/9008_      00000 19096              RELHEAP PROC
 USING  *,R7
                                   19135                       WITH  JCB
 0011CE 9801 6028            00028 19138                       LM    R0,R1,JCBHEAPX      Heap memory len, loc
 0011D2 1200/4780 7040             19139                       IF    (R0,NZ),BEGIN       Free old heap memory...
 0011D8 41F0 0001/5EF0_      00001 19153  1                      INCR  R15,CVHEAPFR        Count 'em
 0011E4 58F0 C6AC            006AC 19159  1                      L     R15,CVSTKMEM        Total HEAP (STACK) space used
 0011E8 5BF0 6028            00028 19160  1                      S     R15,JCBHEAPX        Deduct from total
 0011EC 50F0 C6AC            006AC 19161  1                      ST    R15,CVSTKMEM        Save new total
 0011F0 D707 6028 6028 00028 00028 19162  1                      CLEAR JCBHEAPX
 0011F6 18F0                       19169  1                      LR    R15,R0
 0011F8 1BEE                       19170  1                      CLEAR R14
 0011FA 5DE0 7052            01220 19174  1                      D     R14,=A(HPCHUNK*1024)
 0011FE 06F0                       19175  1                      BCTR  R15,0               Array index relative to 0
 001200 5CE0 7056            01224 19176  1                      M     R14,=A(L'CELLBLOK)  Convert index to offset
 001204 5AF0 C5E8            005E8 19177  1                      A     R15,CVHEAPCL
 001208 58E0 705A/0DEE       01228 19178  1                      ACALL FREEPOOL
 00120E                            19182                       END
 00120E 18D8/9808 D004_            19186                       PEND
 DROP   *,R7
                                   19206                       QLTORG
1DISP     (DISP2193) (12:42) (15MAR04) WYLBUR's Dispatcher                                                                  Page   41
0Current Usings:  (JCB,R6) (CP,R11) (CV,R12)
0Loc    Object Code    Addr1 Addr2  Stmt Lv Lineno    Source Statement           (Hibal 5, Asmedit 3.3)  HLASM R4.0  2004/03/15 12.42
+___    ______ ____    _____ _____  ____ __ ______    ______ _________
0                                  19222              ¿þþþþþþþþþþþþþþþþþþþþþþþþþþþþþþþþþþþþþþþþþþþþþþþþþþþþþþþþþþþþþþþþþþþþþÜ
                                   19223              Ÿ                                                                     Ÿ
                                   19224              Ÿ  ALLOC -- Routine to allocate the user's page buffers.              Ÿ
                                   19225              Ÿ                                                                     Ÿ
                                   19226              Ÿ    On exit, R15 (and cc):                                           Ÿ
                                   19227              Ÿ      0 - ok                                                         Ÿ
                                   19228              Ÿ      4 - can't allocate this user (no more buffers)                 Ÿ
                                   19229              Ÿ                                                                     Ÿ
                                                      ¾þþþþþþþþþþþþþþþþþþþþþþþþþþþþþþþþþþþþþþþþþþþþþþþþþþþþþþþþþþþþþþþþþþþþþ»
000122C 50E0 D000/9008_      00000 19230              ALLOC    PROC
 USING  *,R7
                                   19269                       WITH  JCB
                                   19272
 001246 9104 6062/47E0_00062       19273                       FAIL  JCBAFRUN,SETQERR,'Setup of already setup user.'
                                   19300
 001266 9604 6062      00062       19301                       SET   JCBAFRUN            User wants to run
 00126A D701 6032 6032 00032 00032 19307                       CLEAR JCB#PIO             Clear the page I/O count
                                   19314                       ¿þþþþþþþþþþþþþþþþþþþþþþþþþþþþþþþþþþþþþþþþþþþþÜ
                                   19315                       Ÿ  Check for too many users waiting to run.  Ÿ
                                   19316                       ¾þþþþþþþþþþþþþþþþþþþþþþþþþþþþþþþþþþþþþþþþþþþþ»
 001270 48F0 C0D6            000D6 19317                       LH    R15,CVRUNCUR        Current run queue depth
 001274 49F0 C0D8/4750_      000D8 19318                       IF    (R15,GE,CVRUNMAX),BEGIN  Too many users...
 00127C 12FF/4720 71A0             19335  1                      IF    (R15,POS),ALLOCNC   Don't allocate this user
 001282                            19352                       END
                                   19356                       ¿þþþþþþþþþþþþþþþþþþþþÜ
                                   19357                       Ÿ  Allocate page A.  Ÿ
                                   19358                       ¾þþþþþþþþþþþþþþþþþþþþ»
 001282 5850 6040/1255       00040 19359                       LT    R5,JCBPTA           Do we have a page A?
 001288 4780 70CA            01310 19363                       IF    NZ,BEGIN            Yes...
 USING  PT,R5                      19374  1                      WITH  (PT,R5)
 00128C 5840 500C/1244       0000C 19387  1                      LT    R4,PTPCBP
 001292 4780 70A4            012EA 19391  1                      IF    NZ,BEGIN            Page is in core...
 USING  PCB,R4                     19402  2                        WITH  (PCB,R4)
 001296 D502 72EA 4000_01530 00000 19415  2                        FAIL  (PCB,NE,'PCB'),PCBERR05,'Dispatcher PCB error.'
 0012B8 9180 401D/47E0_0001D       19444  2                        IF    PCBFIO,'INCR R15,JCB#PIO'  Need to wait for this I/O
 0012CC 708A/47F0 70A4_012CC 012BE 19470  2                        ELSE  'QBUFOFF'           Take buffer off queue
 DROP   PCB,R4                     19498  1                      END
 0012EA 70A8/47F0 70CA 012EA 01294 19507  1                      ELSE  BEGIN               Page is not in core...
 0012EE 4110 5000            00000 19518  2                        LA    R1,PT               Page
 0012F2 4DE0 71C8            0140E 19519  2                        LCALL ALLOCPCB            Get buffer
 0012F6 4770 71A0            013E6 19521  2                        BNZ   ALLOCNC             Can't (rare)
                                   19522  2
 0012FA 58F0 500C            0000C 19523  2                        L     R15,PTPCBP
 0012FE 58E0 72E2/0DEE       01528 19524  2                        ACALL PREAD               Start the page read
 001304 41F0 0001/4AF0_      00001 19528  2                        INCR  R15,JCB#PIO         Kick active page I/O count
 001310                            19534  1                      END
 DROP   PT,R5                      19538                       END
                                   19547                       ¿þþþþþþþþþþþþþþþþþþþþÜ
                                   19548                       Ÿ  Allocate page B.  Ÿ
                                   19549                       ¾þþþþþþþþþþþþþþþþþþþþ»
 001310 5850 6044/1255       00044 19550                       LT    R5,JCBPTB           Do we have a page B?
 001316 4780 719A            013E0 19554                       IF    NZ,BEGIN            Yes...
 00131A 5950 6040/4780_      00040 19565  1                      IF    (R5,EQ,JCBPTA),EXIT  We've already taken care of it
1DISP     (DISP2193) (12:42) (15MAR04) WYLBUR's Dispatcher                                                                  Page   42
0Current Usings:  (PT,R5) (JCB,R6) (*,R7) (CP,R11) (CV,R12)
0Loc    Object Code    Addr1 Addr2  Stmt Lv Lineno    Source Statement           (Hibal 5, Asmedit 3.3)  HLASM R4.0  2004/03/15 12.42
+___    ______ ____    _____ _____  ____ __ ______    ______ _________
0USING  PT,R5                      19585  1                      WITH  (PT,R5)
 001322 5840 500C/1244       0000C 19598  1                      LT    R4,PTPCBP
 001328 4780 713A            01380 19602  1                      IF    NZ,BEGIN            Page is in core...
 USING  PCB,R4                     19613  2                        WITH  (PCB,R4)
 00132C D502 72EA 4000_01530 00000 19626  2                        FAIL  (PCB,NE,'PCB'),PCBERR06,'Dispatcher PCB error.'
 00134E 9180 401D/47E0_0001D       19655  2                        IF    PCBFIO,'INCR R15,JCB#PIO'  Need to wait for this I/O
 001362 7120/47F0 713A_01362 01354 19681  2                        ELSE  'QBUFOFF'           Take buffer off queue
 DROP   PCB,R4                     19709  1                      END
 001380 713E/47F0 719A 01380 0132A 19718  1                      ELSE  BEGIN               Page is not in core...
 001384 4110 5000            00000 19729  2                        LA    R1,PT               Page
 001388 4DE0 71C8            0140E 19730  2                        LCALL ALLOCPCB            Get buffer
 00138C 4780 7184            013CA 19732  2                        IF    NZ,BEGIN            Can't get a buffer...
                                   19743  3                          ¿þþþþþþþþþþþþþþþþþþþþþþþþþþþþþþþþþþþþþþþþþþþþþþþþþþþþþÜ
                                   19744  3                          Ÿ  If we can't get a buffer for page B, then we must  Ÿ
                                   19745  3                          Ÿ    un-allocate page A's buffer.                     Ÿ
                                   19746  3                          ¾þþþþþþþþþþþþþþþþþþþþþþþþþþþþþþþþþþþþþþþþþþþþþþþþþþþþþ»
 001390 5850 6040/1255       00040 19747  3                          LT    R5,JCBPTA           Is there a page A?
 001396 4780 7180            013C6 19751  3                          IF    NZ,BEGIN            Yes...
 00139A 5840 500C/1244       0000C 19762  4                            LT    R4,PTPCBP           Was it allocated?
 0013A0 4780 7180            013C6 19766  4                            IF    NZ,BEGIN            Yes...
 USING  PCB,R4                     19777  5                              WITH  (PCB,R4)
 0013A4 9180 401D/4710_0001D       19790  5                              IF    PCBFIO,EXIT         I/O in progress, scram
 0013AC 41F0 C1E4            001E4 19808  5                              LA    R15,CVBUFQ-(PCBQF-PCB)  Dummy first Q entry
 0013B0 5800 F010/5040_      00010 19809  5                              QBUFON ,                  Put buffer back on queue
 DROP   PCB,R4                     19816  4                            END
 0013C6                            19825  3                          END
 0013C6 47F0 71A0            013E6 19829  3                          B     ALLOCNC
 0013CA                            19830  2                        END
                                   19834  2
 0013CA 58F0 500C            0000C 19835  2                        L     R15,PTPCBP
 0013CE 58E0 72E2/0DEE       01528 19836  2                        ACALL PREAD               Start the page read
 0013D4 41F0 0001/4AF0_      00001 19840  2                        INCR  R15,JCB#PIO         Kick active page I/O count
 0013E0                            19846  1                      END
 DROP   PT,R5                      19850                       END
                                   19859
 0013E0 1BFF                       19860                       CLEAR R15                 A-ok
 0013E2 47F0 71BA            01400 19864                       EXIT
                                   19867                       ¿þþþþþþþþþþþþþþþþþþþþþþþþþþþþþþþþþþþþþþþþþþþþþþþþþþþþþþþþþþþþÜ
                                   19868                       Ÿ  If we get here it means that we can't allocate the        Ÿ
                                   19869                       Ÿ    required buffers to be able to run this user.  Failing  Ÿ
                                   19870                       Ÿ    to allocate this user doesn't necessarily mean that     Ÿ
                                   19871                       Ÿ    WYLBUR will serialize, since there could already be     Ÿ
                                   19872                       Ÿ    many allocated users on the RUN queue.                  Ÿ
                                   19873                       ¾þþþþþþþþþþþþþþþþþþþþþþþþþþþþþþþþþþþþþþþþþþþþþþþþþþþþþþþþþþþþ»
 0013E6 41F0 0001/5EF0_      00001 19874              ALLOCNC  INCR  R15,CV#SNC          Can't snatch condition
                                   19880
 0013F2 94FB 6062      00062       19881                       CLEAR JCBAFRUN            Not ready to run now
 0013F6 D701 6032 6032 00032 00032 19888                       CLEAR JCB#PIO             Reset active page I/O count
                                   19895
 0013FC 41F0 0004            00004 19896                       LA    R15,4               Can't allocate rc
 001400 18D8/9808 D004_            19897                       PEND
 DROP   *,R7
1DISP     (DISP2193) (12:42) (15MAR04) WYLBUR's Dispatcher                                                                  Page   43
0Current Usings:  (JCB,R6) (CP,R11) (CV,R12)
0Loc    Object Code    Addr1 Addr2  Stmt Lv Lineno    Source Statement           (Hibal 5, Asmedit 3.3)  HLASM R4.0  2004/03/15 12.42
+___    ______ ____    _____ _____  ____ __ ______    ______ _________
0                                  19918              ¿þþþþþþþþþþþþþþþþþþþþþþþþþþþþþþþþþþþþþþþþþþþþþþþþþþþþþþþþþþþþþþþþþþþþþÜ
                                   19919              Ÿ                                                                     Ÿ
                                   19920              Ÿ  ALLOCPCB -- Routine to allocate a page buffer (PCB) to the         Ÿ
                                   19921              Ÿ    page-number specified.                                           Ÿ
                                   19922              Ÿ                                                                     Ÿ
                                   19923              Ÿ    On entry:                                                        Ÿ
                                   19924              Ÿ      R1 - PT entry ptr                                              Ÿ
                                   19925              Ÿ                                                                     Ÿ
                                   19926              Ÿ    On exit, R15 (and cc):                                           Ÿ
                                   19927              Ÿ      0 - allocated                                                  Ÿ
                                   19928              Ÿ      4 - can't allocate                                             Ÿ
                                   19929              Ÿ                                                                     Ÿ
                                                      ¾þþþþþþþþþþþþþþþþþþþþþþþþþþþþþþþþþþþþþþþþþþþþþþþþþþþþþþþþþþþþþþþþþþþþþ»
000140E 50E0 D000/9008_      00000 19930              ALLOCPCB PROC
 USING  *,R7
                                   19969                       WITH  JCB                 (Entry assumption)
 001428 1851                       19972                       LR    R5,R1
 USING  PT,R5                      19973                       WITH  (PT,R5)
                                   19986                       ¿þþþþþþþþþþþþþþþþþþþþþþþþþþþþþþþþþþþþþþþþþþþþþþþþþþþþÜ
                                   19987                       Ÿ  Allocate new buffer for page that's not in core.  Ÿ
                                   19988                       ¾þþþþþþþþþþþþþþþþþþþþþþþþþþþþþþþþþþþþþþþþþþþþþþþþþþþþ»
 00142A 41F0 C1DC            001DC 19989                       LA    R15,CVEMBUFQ-(PCBQF-PCB)  Dummy first empty Q link
 00142E 59F0 C1EC/4780_      001EC 19990                       IF    ('C R15,CVEMBUFQ+4',NE),BEGIN  Buffer on empty Q...
 001436 41F0 0001/5EF0_      00001 20003  1                      INCR  R15,CV#SNEM         Count empty buffer snatch
 001442 5840 C1E8            001E8 20009  1                      L     R4,CVEMBUFQ         Take first empty buffer
 001446 47F0 7074            0149C 20010  1                      B     PACTAKE             Go make it ours
 00144A                            20011                       END
                                   20015                       ¿þþþþþþþþþþþþþþþþþþþþþþþþþþþþþþþþþþþþþþþþþþþþþþþþþþþþþþþþþþþþþþþÜ
                                   20016                       Ÿ  If there are no empty buffers, take someone else's buffer.   Ÿ
                                   20017                       Ÿ    We will take the least recently used buffer (do NOT try    Ÿ
                                   20018                       Ÿ    to improve on this unless you are really sure!).  If the   Ÿ
                                   20019                       Ÿ    least recently used buffer is changed then queue it to     Ÿ
                                   20020                       Ÿ    be written and keep looking.  Buffers belonging to user's  Ÿ
                                   20021                       Ÿ    who have already been setup are NOT on any queue.          Ÿ
                                   20022                       Ÿ    This avoids any searching for a "good" buffer.             Ÿ
                                   20023                       Ÿ                                                               Ÿ
                                   20024                       Ÿ  It's amazing how well this simple algorithm works.           Ÿ
                                   20025                       ¾þþþþþþþþþþþþþþþþþþþþþþþþþþþþþþþþþþþþþþþþþþþþþþþþþþþþþþþþþþþþþþþ»
 USING  PCB,R4                     20026                       WITH  (PCB,R4)
                                   20039
 00144A                            20040                       LOOP  BEGIN               Snatch a buffer...
 00144A 4140 C1E4            001E4 20046  1                      LA    R4,CVBUFQ-(PCBQF-PCB)  Dummy first buffer entry
 00144E 5940 C1F4/4780_      001F4 20047  1                      WHILE ('C R4,CVBUFQ+4',NE)  Go through queue
 001456 5840 400C            0000C 20061  1                      L     R4,PCBQF            Get first/next PCB
                                   20062  1
 00145A 9120 401D/47E0_0001D       20063  1                      IF    ~PCBFMARK,PACTAKEB  Take the buffer, scram
                                   20081  1
 001462 58F0 400C/5810_      0000C 20082  1                      QBUFOFF ,                 Take buffer off queue
                                   20094  1
 00147C 18F4                       20095  1                      LR    R15,R4
 00147E 58E0 7104/0DEE       0152C 20096  1                      ACALL PWRITE              Write buffer
 001484 47F0 7022            0144A 20100                       END
1DISP     (DISP2193) (12:42) (15MAR04) WYLBUR's Dispatcher                                                                  Page   44
0Current Usings:  (PCB,R4) (PT,R5) (JCB,R6) (*,R7) (CP,R11) (CV,R12)
0Loc    Object Code    Addr1 Addr2  Stmt Lv Lineno    Source Statement           (Hibal 5, Asmedit 3.3)  HLASM R4.0  2004/03/15 12.42
+___    ______ ____    _____ _____  ____ __ ______    ______ _________
0                                  20105                       ¿þþþþþþþþþþþþþþþþþþþþþþþþþþþþþþþþþþþþþþþþþþþÜ
                                   20106                       Ÿ  We don't have any buffers left to take.  Ÿ
                                   20107                       ¾þþþþþþþþþþþþþþþþþþþþþþþþþþþþþþþþþþþþþþþþþþþ»
 001488 41F0 0004            00004 20108                       LA    R15,4               Can't allocate RC
 00148C 47F0 70F0            01518 20109                       EXIT
                                   20112                       ¿þþþþþþþþþþþþþþþþþþþþþþþþþþþþþþþþþþþþþþþþþþþþþþþþþþþþþþþþþÜ
                                   20113                       Ÿ  We have the buffer we want to take, now make it ours.  Ÿ
                                   20114                       ¾þþþþþþþþþþþþþþþþþþþþþþþþþþþþþþþþþþþþþþþþþþþþþþþþþþþþþþþþþ»
 001490 41F0 0001/5EF0_      00001 20115              PACTAKEB INCR  R15,CV#SNB          Count buffer snatch
 00149C D502 7108 4000_01530 00000 20121              PACTAKE  FAIL  (PCB,NE,'PCB'),PCBERR07,'Dispatcher PCB error.'
 0014BE 9180 401D/47E0_0001D       20151                       FAIL  PCBFIO,ALLOX2,'ALLOCPCB error.'
 0014DE 58F0 400C/5810_      0000C 20178                       QBUFOFF ,                 Take buffer off queue
                                   20190
 0014F8 58F0 4020/12FF       00020 20191                       LT    R15,PCBPTP
 0014FE 4780 70E0            01508 20195                       IF    NZ,BEGIN            Belongs to someone else...
 001502 D703 F00C F00C 0000C 0000C 20206  1                      WITH  (PT,R15),'CLEAR PTPCBP'  Doesn't belong any more
 USING  PT,R15
 DROP   PT,R15
 001508                            20236                       END
                                   20240
 001508 D712 401D 401D 0001D 0001D 20241                       CLEAR PCBCLEAR            Reset ownership info
                                   20248
 00150E 5050 4020            00020 20249                       ST    R5,PCBPTP           Save PT ptr in PCB
 001512 5040 500C            0000C 20250                       ST    R4,PTPCBP           Save PCB ptr in PT
                                   20251
 001516 1BFF                       20252                       CLEAR R15                 A-ok
 001518 18D8/9808 D004_            20256                       PEND
 DROP   PCB,R4
 DROP   PT,R5
 DROP   *,R7
                                   20286
                                   20287                       QLTORG
1DISP     (DISP2193) (12:42) (15MAR04) Resource Management -- Obtain a Resource                                             Page   45
0Current Usings:  (JCB,R6) (CP,R11) (CV,R12)
0Loc    Object Code    Addr1 Addr2  Stmt Lv Lineno    Source Statement           (Hibal 5, Asmedit 3.3)  HLASM R4.0  2004/03/15 12.42
+___    ______ ____    _____ _____  ____ __ ______    ______ _________
0                                  20303              *
                                   20304              * the following routine is used to obtain a  resource  for
                                   20305              * use.   a  resource is obtained by searching for the name
                                   20306              * of the resource type in the resource group  list.   when
                                   20307              * the  resource  type  is found the free resource queue is
                                   20308              * searched for a free resource; the free resource is taken
                                   20309              * off the free queue and queued to the active queue.   the
                                   20310              * current  JCB  is then set in the owners slot and the ECB
                                   20311              * and flags are cleared.  return is made  to  the  caller.
                                   20312              * the entry parameters are as follows:
                                   20313              *
                                   20314              *     register           contents
                                   20315              *        0                JCB addr of requestor
                                   20316              *        1                address of resource name
                                   20317              *       15                resource obtain request:
                                   20318              *
                                   20319              *  the following obtain requests are defined:
                                   20320              *
                                   20321              *       4   -   wait for the resource if unavailable
                                   20322              *       8   -   return if resource is unavailable
                                   20323              *      12   -   queue JCB & return if resource unavail
                                   20324              * upon return from the resource obtain routine the
                                   20325              * exit parameters are as follows:
                                   20326              *
                                   20327              *      register          contents
                                   20328              *         0               address of resource entry block
                                   20329              *         1               address of resource
                                   20330              *        15               return code as follows:
                                   20331              *                         0  - R0,R1 are set as above
                                   20332              *                         4  - JCB was queued
                                   20333              *                              and return was made
                                   20334              *                         8  - resources busy|attn
                                   20335              *
 001533 00/50E0 D000/902_          20336              GETRSC   XENTER TRACE=NO
 USING  *,R7
 001544 1260/4770 700A_            20357              RSCBASE  IF    ('LTR JCBR,R0',Z),'L JCBR,CVCURJCB'  Use current
                                   20377                       USING JCB
 00154E 122F                       20379                       LTR   R2,R15              Save request code
 001550 47B0 7016            0155A 20380                       IF    NEG,BEGIN           If no attn abort signaled then
 001554 9620 6062      00062       20391  1                      SET   JCBFARB             Set no attn can abort wait
 001558 1022                       20397  1                      LPR   R2,R2               Make request positive
 00155A                            20398                       END
 00155A 4DE0 7348            0188C 20402                       LCALL FINDRSC             Go find resource/set up rsc reg.
                                   20404              * note: no return from routine is made if resource request invalid
 USING  RSCGROUP,R5                20405                       USING RSCGROUP,R5
 00155E 4100 0001/5E00_      00001 20414              HAVRGRP  INCR  R0,RSG#AUSE         Count number of use attempts
 00156A 4920 7714            01C58 20420                       CH    R2,=AL2(RSCQJCB)    Just a QJCB request?
 00156E 4780 7060            015A4 20421                       BE    QUERJCB             Br if so
 001572 5840 501C            0001C 20422                       L     R4,RSGQFRFW         Assume there is one free
 001576 4830 500C/1233       0000C 20423                       LTH   R3,RSG#FREE         Is there one?
 00157C 4720 70FC            01640 20427                       BP    HAVRSC              Br if there is
 001580 47B0 7058/900F_      0159C 20428                       FAIL  NEG,JCBQ,'Queueing error.'
 00159C 4920 7716            01C5A 20451                       CH    R2,=AL2(RSCWRTN)    Unwilling to wait/queue JCB?
 0015A0 4780 71B6            016FA 20452                       BE    ITSBUSY             Br if so, take busy exit
1DISP     (DISP2193) (12:42) (15MAR04) Resource Management -- Obtain a Resource                                             Page   46
0Current Usings:  (RSCGROUP,R5) (JCB,R6) (*,R7) (CP,R11) (CV,R12)
0Loc    Object Code    Addr1 Addr2  Stmt Lv Lineno    Source Statement           (Hibal 5, Asmedit 3.3)  HLASM R4.0  2004/03/15 12.42
+___    ______ ____    _____ _____  ____ __ ______    ______ _________
00015A4 9640 503B      0003B       20453              QUERJCB  SET   RSG1QUED            Set rscgroup has a queued JCB
 0015A8 5800 6000/1200       00000 20460                       LT    R0,JCBQF            Already queued?
 0015AE 4780 7086/900F_      015CA 20464                       FAIL  NZ,JCBQ,'Queueing error.'
 0015CA 58E0 502C/12EE       0002C 20487                       LT    RAR,RSG@QUER        Check for queueing routine
 0015D0 4780 709A            015DE 20491                       BZ    QUEJCB              Br if not one
 0015D4 1816                       20492                       LR    R1,JCBR             Point at JCB
 0015D6 1805                       20493                       LR    R0,R5               Copy resource group pointer
 0015D8 0DEE                       20494                       BASR  RAR,RAR             Go queue JCB
 0015DA 47F0 70A6            015EA 20495                       B     QUEDJCB             Br all queued
                                   20496
 0015DE 41F0 5030            00030 20497              QUEJCB   LA    R15,RSGQJCFW-(JCBQF-JCB)  point at queue head
 0015E2 1816/58E0 76D4_            20498                       QJCB  (JCBR)              Go queue up the JCB
 0015EA 9610 6060      00060       20512              QUEDJCB  SET   JCBWFRSC            Set waiting for resource
 0015EE 4DE0 73C0            01904 20519                       LCALL JCBQCNT             Go count number of JCBs in queue
 0015F2 4900 5038            00038 20521                       CH    R0,RSG#MXJC         Is it largest ever?
 0015F6 47D0 70BA            015FE 20522                       BNH   *+8                 br if not, don't update
 0015FA 4000 5038            00038 20523                       STH   R0,RSG#MXJC         Save largest ever seen
 0015FE 4920 7714            01C58 20524                       CH    R2,=AL2(RSCQJCB)    Queue JCB request?
 001602 4780 70F4            01638 20525                       BE    RSMJCBQD            Br all queued
 001606 4100 0001/5E00_      00001 20526                       INCR  R0,RSG#WAIT         Count number of waits
 001612 9610 6060/41E0_00060       20532                       PAUSE JCBWFRSC            Wait for resource to free up
 001624 9120 6062/4710_00062       20545                       IF    JCBFARB,HAVRGRP     Br if attn not allowed
 00162C 9102 6062/4710_00062       20563                       IF    JCBFATTN,ITSBUSY    Branch if attention
 001634 47F0 701A            0155E 20581                       B     HAVRGRP             Go try again
                                   20582
 001638 41F0 0004            00004 20583              RSMJCBQD LA    R15,RSCJCBQD        Set we did it
 00163C 47F0 737C            018C0 20584                       B     RSMRTRN             Go return
                                   20585
 001640 94DF 6062      00062       20586              HAVRSC   CLEAR JCBFARB             Allow attentions again
 USING  RESOURCE,R4                20594                       USING RESOURCE,R4
 001644 4100 0001/5E00_      00001 20603                       INCR  R0,RSG#IMFR         Count number given
 001650 41F0 501C            0001C 20609                       LA    R15,RSGQFRFW-(RSC@NEXT-RESOURCE)  point at start
                                   20610              *        if the group is asynchronous and no resources are on
                                   20611              *        the free queue, then search the active queue for a rsc.
 001654 9120 503B/47E0_0003B       20612                       IF    (RSG1ASYN,AND,(R15,EQ,RSGQFRBK)),BEGIN
 001664 4140 5014            00014 20643  1                      LA    R4,RSGQACFW-(RSC@NEXT-RESOURCE)  start of active
 001668 5940 5018/4780_      00018 20644  1                      WHILE (R4,NE,RSGQACBK),BEGIN  look for active rsc free
 001670 5840 4000/1244       00000 20663  2                        LT    R4,RSC@NEXT
 001676 9120 4014/47E0_00014       20667  2                        IF    RSC1ASYN,BEGIN      Is it asynchronous?
 00167E 5800 4008/1200_      00008 20682  3                          IF    ('LT R0,RSC@JCB',Z),QRSCFND
 001688                            20701  2                        END
 001688 47F0 7124            01668 20705  1                      END
 00168C 900F C780/4DE0_      00780 20710  1                      KAPUT JCBQ,'Queueing error.'
 0016A4 7164/7164/47F0_016A4 0165A 20717                       END   ELSE,BEGIN
 0016A8 1814/58E0 76DC_            20734  1           QRSCTOA    DQRSC (R4)                Go dequeue resource
 0016B0 41F0 5014            00014 20744  1                      LA    R15,RSGQACFW-(RSC@NEXT-RESOURCE)
 0016B4 1814/58E0 76E0_            20745  1                      QRSC  (R4)                Go put on active queue
 0016BC                            20755                       END
 0016BC 0630                       20759              QRSCFND  DECR  R3
 0016BE 4030 500C            0000C 20761                       STH   R3,RSG#FREE         Save new free count
 0016C2 4100 0001/4A00_      00001 20762                       INCR  R0,RSG#ACTV         Bump count of active
 0016CE 9680 503B      0003B       20768                       SET   RSG1ACTV            Set rscgroup is active
 0016D2 9120 4014/4710_00014       20774                       IF    ~RSC1ASYN,'MVI RSC$ECB,0'  clear  if not asynch
 0016DE 4100 0001/5E00_      00001 20795                       INCR  R0,RSC#USE          Count resource uses
1DISP     (DISP2193) (12:42) (15MAR04) Resource Management -- Obtain a Resource                                             Page   47
0Current Usings:  (RESOURCE,R4) (RSCGROUP,R5) (JCB,R6) (*,R7) (CP,R11) (CV,R12)
0Loc    Object Code    Addr1 Addr2  Stmt Lv Lineno    Source Statement           (Hibal 5, Asmedit 3.3)  HLASM R4.0  2004/03/15 12.42
+___    ______ ____    _____ _____  ____ __ ______    ______ _________
00016EA 5060 4008            00008 20801                       ST    JCBR,RSC@JCB        Save new owner
 0016EE 1805                       20802                       LR    R0,R5               Return rsc block address
 0016F0 1814                       20803                       LR    R1,R4               Get address
 0016F2 41F0 0000            00000 20804                       LA    R15,RSCHAVE         Set have
 0016F6 47F0 737C            018C0 20805                       B     RSMRTRN
                                   20806
 0016FA 41F0 0008            00008 20807              ITSBUSY  LA    R15,RSCBUSY         Resource is busy
 0016FE 47F0 737C            018C0 20808                       B     RSMRTRN             Go return to caller
1DISP     (DISP2193) (12:42) (15MAR04) Resource Management - Return Resource to Pool                                        Page   48
0Current Usings:  (RESOURCE,R4) (RSCGROUP,R5) (JCB,R6) (*,R7) (CP,R11) (CV,R12)
0Loc    Object Code    Addr1 Addr2  Stmt Lv Lineno    Source Statement           (Hibal 5, Asmedit 3.3)  HLASM R4.0  2004/03/15 12.42
+___    ______ ____    _____ _____  ____ __ ______    ______ _________
0                                  20810              *
                                   20811              * the following routine is used to return a resource  that
                                   20812              * the  current  JCB  owns.  this is done by looking up the
                                   20813              * resource name in  the  resource  group  list,  and  then
                                   20814              * looking  up  the JCB in the active resource queue.  when
                                   20815              * (if) found, the resource is  dequeued  from  the  active
                                   20816              * queue  and requeued onto the free queue.  then the queue
                                   20817              * of waiting JCBs is examined to find the first JCB on the
                                   20818              * queue waiting for the resource.  this  JCB  is  dequeued
                                   20819              * from  the  JCB queue and is assigned the freed resource.
                                   20820              * the JCB is then queued to the setup queue and return  is
                                   20821              * made  to  the  caller.   the  entry  parameters  are  as
                                   20822              * follows:
                                   20823              *
                                   20824              *    register           contents
                                   20825              *      0                 JCB address of requestor
                                   20826              *      1                 pointer to resource name
                                   20827              *
                                   20828              * upon return from the  resource  free  routine  the  exit
                                   20829              * registers are set as follows:
                                   20830              *
                                   20831              *    register     -     contents
                                   20832              *      0                 arbitrary
                                   20833              *      1                 arbitrary
                                   20834              *     2-8                same as on entry
                                   20835              *     15                 return code as follows
                                   20836              *                         0  -  resource returned ok
                                   20837              *                         4  -  JCB doesn't own resource
                                   20838              *
 001702 50E0 D000/9028_      00000 20839              FREERSC  XENTER R2,R8,TRACE=NO     Return used resource
 DROP   *,R7
 USING  *,R7
 001712 5870 7516            01C28 20863                       BASE  RSCBASE             Common base
 DROP   *,R7
 USING  RSCBASE,R7
 001716 1260/4770 71DC_            20881                       IF    ('LTR JCBR,R0',Z),'L JCBR,CVCURJCB'
 001720 4DE0 7348            0188C 20900                       LCALL FINDRSC             Go find resource
                                   20902              * note: no return is made if resource not found
                                   20903              *
 001724 4140 5014            00014 20904              FRERGRP  LA    R4,RSGQACFW-(RSC@NEXT-RESOURCE)
 001728 5940 5018/4780_      00018 20905                       WHILE (R4,NE,RSGQACBK),BEGIN  loop until end
 001730 5840 4000            00000 20924  1                      L     R4,RSC@NEXT
 001734 5960 4008            00008 20925  1                      C     JCBR,RSC@JCB        Is this the owner?
 001738 4780 7204            01748 20926  1                      BE    FREEJCB             Go free it if so
 00173C 47F0 71E4            01728 20927                       END
 001740 41F0 0008            00008 20932                       LA    R15,8               Resource not held
 001744 47F0 737C            018C0 20933                       B     RSMRTRN
                                   20934
 001748 D703 4008 4008 00008 00008 20935              FREEJCB  CLEAR RSC@JCB             Clear owner
 00174E 48F0 500E/06F0_      0000E 20943                       DECR  R15,RSG#ACTV        Reduce active count
 001758 9120 4014/4710_00014       20948                       IF    ~RSC1ASYN,BEGIN     If not asynchronous resource
 001760 1814/58E0 76DC_            20963  1                      DQRSC (R4)                Take off active queue
 001768 58F0 501C            0001C 20973  1                      L     R15,RSGQFRFW        Pnt at free q
                                   20974  1           *          note that we place the newly free resource on the
1DISP     (DISP2193) (12:42) (15MAR04) Resource Management - Return Resource to Pool                                        Page   49
0Current Usings:  (RESOURCE,R4) (RSCGROUP,R5) (JCB,R6) (RSCBASE,R7) (CP,R11) (CV,R12)
0Loc    Object Code    Addr1 Addr2  Stmt Lv Lineno    Source Statement           (Hibal 5, Asmedit 3.3)  HLASM R4.0  2004/03/15 12.42
+___    ______ ____    _____ _____  ____ __ ______    ______ _________
0                                  20975  1           *          top of the free queue.  this is done to reduce paging
                                   20976  1           *          of large resources (like iowas).  we will reuse this
                                   20977  1           *          resource as the next resource.
 00176C 1814/58E0 76E0_            20978  1                      QRSC  (R4)                Put on free queue
 001774 48F0 500E/12FF       0000E 20988  1                      LTH   R15,RSG#ACTV        Test number active
 00177A 47B0 7252/900F_      01796 20992  1                      FAIL  NEG,JCBQ,'Queueing error.'
 001796 4770 725A/947F_      0179E 21015  1                      IF    Z,'CLEAR RSG1ACTV'  Clear group active
 00179E 947F 4014      00014       21038  1                      CLEAR RSC1ACTV            Resource no longer active
 0017A2                            21045                       END
 0017A2 4100 0001/4A00_      00001 21049                       INCR  R0,RSG#FREE         Bump the free count
 0017AE 41F0 0000            00000 21055                       LA    R15,RSCOK           Set ok
 0017B2 9140 503B/47E0_0003B       21056                       IF    ~RSG1QUED,RSMRTRN   Return if none queued
 0017BA 4830 500C/1233       0000C 21074                       LTH   R3,RSG#FREE         Get number free
 0017C0 4720 7298/900F_      017DC 21078                       FAIL  ~POS,JCBQ,'Queueing error.'
 0017DC 1826                       21101                       LR    R2,JCBR             Save user freeing resource
 0017DE 4160 5030            00030 21102                       LA    JCBR,RSGQJCFW-(JCBQF-JCBSTART)  Point at start
 0017E2 5960 5034/4780_      00034 21103                       WHILE (JCBR,NE,RSGQJCBK),BEGIN
 0017EA 5860 6000            00000 21122  1                      L     JCBR,JCBQF          Get the next JCB
 0017EE 1816/58E0 76E8_            21123  1                      DQJCB (JCBR)              Take this one off of queue
 0017F6 1222/47D0 72BE             21133  1                      IF    (R2,P),BEGIN        if we haven't waited user
 0017FC 5020 6008            00008 21147  2                        ST    R2,JCBDSPP          Save next user ptr
 001800 1322                       21148  2                        LCR   R2,R2               Invert
 001802                            21149  1                      END
 001802 94EF 6060      00060       21153  1                      CLEAR JCBWFRSC            No longer waiting for resource
 001806 4800 6060/1200_      00060 21160  1                      IF    ('LTH R0,JCBWFL',Z),'SETUP (JCBR)'  setup if no wait
 001826 4630 72EA            0182E 21207  1                      BCT   R3,*+8              Skip if not last free rsc
 00182A 47F0 72F2            01836 21208  1                      B     L1                  Jump out of loop
 00182E 4160 5030            00030 21209  1                      LA    JCBR,RSGQJCFW-(JCBQF-JCBSTART)
 001832 47F0 729E            017E2 21210                       END
 001836 1862                       21215              L1       LR    JCBR,R2             Copy
 001838 4120 5030            00030 21216                       LA    R2,RSGQJCFW-(JCBQF-JCBSTART)
 00183C 5920 5034/4770_      00034 21217                       IF    (R2,EQ,RSGQJCBK),'CLEAR RSG1QUED'
 001848 1266/47B0 731E             21246                       IF    (JCBR,M),BEGIN      If we dispatched
 00184E 1366                       21260  1                      LCR   JCBR,JCBR           Make it positive
 001850 9608 6060/41E0_00060       21261  1                      PAUSE JCBWFDSP            Wait for other user
 001862                            21274                       END
 001862 41F0 0000            00000 21278                       LA    R15,RSCOK           Thanks, resource returned
 001866 47F0 737C            018C0 21279                       B     RSMRTRN             Return to caller
1DISP     (DISP2193) (12:42) (15MAR04) Resource Management - Find Resource Group                                            Page   50
0Current Usings:  (RESOURCE,R4) (RSCGROUP,R5) (JCB,R6) (RSCBASE,R7) (CP,R11) (CV,R12)
0Loc    Object Code    Addr1 Addr2  Stmt Lv Lineno    Source Statement           (Hibal 5, Asmedit 3.3)  HLASM R4.0  2004/03/15 12.42
+___    ______ ____    _____ _____  ____ __ ______    ______ _________
0                                  21281              *
                                   21282              *               find resource group
                                   21283              *
                                   21284              * this routine finds a resource group for the caller. upon
                                   21285              * entry R1 contains the address of an 8 byte resource name
                                   21286              * upon exit R0 is loaded with the resource group pointer if
                                   21287              * it was found.  R15 contains a return code indicating the
                                   21288              * validity of R0 as follows:
                                   21289              *        R15    0  -  R0 contains valid rscgroup pointer
                                   21290              *              12  -  R0 contains entry value, unknown rscgroup
                                   21291              *
 00186A 50E0 D000/9028_      00000 21292              FNDRSCG  XENTER TRACE=NO
 DROP   RSCBASE,R7
 USING  *,R7
 00187A 5870 73AE            01C28 21316                       BASE  RSCBASE             Common base
 DROP   *,R7
 USING  RSCBASE,R7
 00187E 4DE0 7348            0188C 21334                       LCALL FINDRSC             Go find rscgroup
 001882 1805                       21336                       LR    R0,R5               Copy resource
 001884 41F0 0000            00000 21337                       LA    R15,RSCOK           Set ok
 001888 47F0 737C            018C0 21338                       B     RSMRTRN             Go return
1DISP     (DISP2193) (12:42) (15MAR04) Resource Management - Find Resource Group Block                                      Page   51
0Current Usings:  (RESOURCE,R4) (RSCGROUP,R5) (JCB,R6) (RSCBASE,R7) (CP,R11) (CV,R12)
0Loc    Object Code    Addr1 Addr2  Stmt Lv Lineno    Source Statement           (Hibal 5, Asmedit 3.3)  HLASM R4.0  2004/03/15 12.42
+___    ______ ____    _____ _____  ____ __ ______    ______ _________
0                                  21340              ¿þþþþþþþþþþþþþþþþþþþþþþþþþþþþþþþþþþþþþþþþþþþþþþþþþþþþþþþþþþþþþþþþþþþþþÜ
                                   21341              Ÿ                                                                     Ÿ
                                   21342              Ÿ  find the resource pointed at in R1                                 Ÿ
                                   21343              Ÿ                                                                     Ÿ
                                                      ¾þþþþþþþþþþþþþþþþþþþþþþþþþþþþþþþþþþþþþþþþþþþþþþþþþþþþþþþþþþþþþþþþþþþþþ»
000188C 1211/47D0 7356_            21344              FINDRSC  FAIL ((R1,NP),OR,(R1,GT,=Y(CVRLAST))),BADRSG,'Rsc error.'
 0018B2 0610                       21386                       DECR  R1                  Down one
 0018B4 4C10 771A            01C5E 21388                       MH    R1,=AL2(L'RSCGROUP) Get offset
 0018B8 5E10 C6D4            006D4 21389                       AL    R1,CVFRSG           Point at it
 0018BC 1851                       21390                       LR    R5,R1               Copy R1
 0018BE 07FE                       21391                       BR    RAR
                                   21392
 0018C0 18D8/58E0 D000_            21393              RSMRTRN  XEXIT ,,LTR               Return with cc set
1DISP     (DISP2193) (12:42) (15MAR04) Resource Management Queueing Routines                                                Page   52
0Current Usings:  (RESOURCE,R4) (RSCGROUP,R5) (JCB,R6) (RSCBASE,R7) (CP,R11) (CV,R12)
0Loc    Object Code    Addr1 Addr2  Stmt Lv Lineno    Source Statement           (Hibal 5, Asmedit 3.3)  HLASM R4.0  2004/03/15 12.42
+___    ______ ____    _____ _____  ____ __ ______    ______ _________
0                                  21400                       ¿þþþþþþþþþþþþþþþþþþþþþþþþþþþþþþþþþþþþþþþþþþþþþþþþþþþþþþþþþÜ
                                   21401                       Ÿ  Queue this JCB just before the JCB pointed at by R15.  Ÿ
                                   21402                       ¾þþþþþþþþþþþþþþþþþþþþþþþþþþþþþþþþþþþþþþþþþþþþþþþþþþþþþþþþþ»
 DROP   JCB,R6                     21403                       WITH  (JCB,R1),BEGIN
 USING  JCB,R1
                                   21425  1                      ENTRY QJCB
 0018CE 5800 F004            00004 21426  1           QJCB       L     R0,JCBQB-JCB(,R15)  Get back pointer
 0018D2 5010 F004            00004 21427  1                      ST    R1,JCBQB-JCB(,R15)  Set new back pointer
 0018D6 90F0 1000            00000 21428  1                      STM   R15,R0,JCBQF        Store link pointers
 0018DA 18F0                       21429  1                      LR    R15,R0              Copy back pointer
 0018DC 5010 F000            00000 21430  1                      ST    R1,JCBQF-JCB(,R15)  Set new forward pointer
 0018E0 07FE                       21431  1                      BR    RAR
                                   21432  1                      ¿þþþþþþþþþþþþþþþþþþþþþþþþþþþþþþþþþþþþþþÜ
                                   21433  1                      Ÿ  Dequeue this JCB off of its queue.  Ÿ
                                   21434  1                      ¾þþþþþþþþþþþþþþþþþþþþþþþþþþþþþþþþþþþþþþ»
                                   21435  1                      ENTRY DQJCB
 0018E2 58F0 1000            00000 21436  1           DQJCB      L     R15,JCBQF           Get forward pointer
 0018E6 5800 1004            00004 21437  1                      L     R0,JCBQB            Get back pointer
 0018EA 5000 F004            00004 21438  1                      ST    R0,JCBQB-JCB(,R15)  Set new back pointer
 0018EE 17F0/170F/17F0             21439  1                      FLIP  (R15,R0)            Flip the ptrs
 0018F4 5000 F000            00000 21447  1                      ST    R0,JCBQF-JCB(,R15)  Set new forward pointer
 0018F8 1B00                       21448  1                      SR    R0,R0               Zero for stores
 0018FA 5000 1000            00000 21449  1                      ST    R0,JCBQF            Zero forward pointer
 0018FE 5000 1004            00004 21450  1                      ST    R0,JCBQB            And backward pointer
 001902 07FE                       21451  1                      BR    RAR                 Return to caller
 DROP   JCB,R1                     21452  1                      DROP  JCB
                                   21460  1                      ¿þþþþþþþþþþþþþþþþþþþþþþþþþþþþþþþþþþþþþþþþþþþÜ
                                   21461  1                      Ÿ  Count the number of JCBs on this queue.  Ÿ
                                   21462  1                      ¾þþþþþþþþþþþþþþþþþþþþþþþþþþþþþþþþþþþþþþþþþþþ»
 001904 41F0 5030            00030 21463  1           JCBQCNT    LA    R15,RSGQJCFW-(JCBQF-JCB)  point at first ptr
 001908 1B00                       21464  1                      CLEAR R0                  Zero counter
 00190A 59F0 5034/4780_      00034 21468  1                      WHILE (R15,NE,RSGQJCBK),BEGIN
 USING  JCB,R15                    21487  2                        WITH  (JCB,R15),BEGIN
 001912 58F0 F000            00000 21501  3                          L     R15,JCBQF           Get next pointer
 001916 5E00 C4D0            004D0 21502  3                          AL    R0,CVONE            Add in count
 DROP   JCB,R15                    21503  2                        END
 00191A 47F0 73C6            0190A 21511  1                      END
 00191E 07FE                       21516  1                      BR    RAR                 Return to caller
 USING  JCB,R6                     21517                       END
                                   21531                       ¿þþþþþþþþþþþþþþþþþþþþþþþþþþþþþþþþþþþþþþþþþþþþþþþþþþþþþÜ
                                   21532                       Ÿ  Queue resource before resource pointed to in R15.  Ÿ
                                   21533                       ¾þþþþþþþþþþþþþþþþþþþþþþþþþþþþþþþþþþþþþþþþþþþþþþþþþþþþþ»
                                   21534                       ENTRY QRSC
 001920 5800 F004            00004 21535              QRSC     L     R0,RSC@PREV-RESOURCE(,R15)
 001924 5010 F004            00004 21536                       ST    R1,RSC@PREV-RESOURCE(,R15)  save new back
 001928 90F0 1000            00000 21537                       STM   R15,R0,RSC@NEXT-RESOURCE(R1)
 00192C 18F0                       21538                       LR    R15,R0              Copy pointer
 00192E 5010 F000            00000 21539                       ST    R1,RSC@NEXT-RESOURCE(,R15)
 001932 07FE                       21540                       BR    RAR                 Return to caller
1DISP     (DISP2193) (12:42) (15MAR04) Resource Management Queueing Routines                                                Page   53
0Current Usings:  (RESOURCE,R4) (RSCGROUP,R5) (JCB,R6) (RSCBASE,R7) (CP,R11) (CV,R12)
0Loc    Object Code    Addr1 Addr2  Stmt Lv Lineno    Source Statement           (Hibal 5, Asmedit 3.3)  HLASM R4.0  2004/03/15 12.42
+___    ______ ____    _____ _____  ____ __ ______    ______ _________
0                                  21541                       ¿þþþþþþþþþþþþþþþþþþþþþþþþþþþÜ
                                   21542                       Ÿ  Dequeue resource in R1.  Ÿ
                                   21543                       ¾þþþþþþþþþþþþþþþþþþþþþþþþþþþ»
                                   21544                       ENTRY DQRSC
 001934 58F1 0004            00004 21545              DQRSC    L     R15,RSC@PREV-RESOURCE(R1)  get previous ptr
 001938 5801 0000            00000 21546                       L     R0,RSC@NEXT-RESOURCE(R1)  get next pointer
 00193C 5000 F000            00000 21547                       ST    R0,RSC@NEXT-RESOURCE(,R15)
 001940 170F/17F0/170F             21548                       FLIP  (R0,R15)            Flip ptrs
 001946 5000 F004            00004 21556                       ST    R0,RSC@PREV-RESOURCE(,R15)
 00194A D707 1000 1000 00000 00000 21557                       CLEAR (@R1+RSC@NEXT-RESOURCE,8)  clear links
 001950 07FE                       21564                       BR    RAR
                                   21565
 DROP   RESOURCE,R4                21566                       DROP  RESOURCE,RSCGROUP,JCB,BR
 DROP   RSCGROUP,R5
 DROP   JCB,R6
 DROP   RSCBASE,R7
1DISP     (DISP2193) (12:42) (15MAR04) Resource Management Queueing Routines                                                Page   54
0Current Usings:  (CP,R11) (CV,R12)
0Loc    Object Code    Addr1 Addr2  Stmt Lv Lineno    Source Statement           (Hibal 5, Asmedit 3.3)  HLASM R4.0  2004/03/15 12.42
+___    ______ ____    _____ _____  ____ __ ______    ______ _________
0                                  21595              ¿þþþþþþþþþþþþþþþþþþþþþþþþþþþþþþþþþþþþþþþþþþþþþþþþþþþþþþþþþþþþþþþþþþþþþÜ
                                   21596              Ÿ                                                                     Ÿ
                                   21597              Ÿ  WAITECB -- Routine to wait for the ECB specified to be posted.     Ÿ
                                   21598              Ÿ                                                                     Ÿ
                                   21599              Ÿ    On entry:                                                        Ÿ
                                   21600              Ÿ      R0 - options:                                                  Ÿ
                                   21601              Ÿ             0 = don't come back until posted                        Ÿ
                                   21602              Ÿ             1 = attn can interrupt wait                             Ÿ
                                   21603              Ÿ      R1 - ECB ptr                                                   Ÿ
                                   21604              Ÿ                                                                     Ÿ
                                   21605              Ÿ    On exit, R15 (and cc):                                           Ÿ
                                   21606              Ÿ      0 - posted                                                     Ÿ
                                   21607              Ÿ      4 - attn/logoff interrupted wait                               Ÿ
                                   21608              Ÿ                                                                     Ÿ
                                                      ¾þþþþþþþþþþþþþþþþþþþþþþþþþþþþþþþþþþþþþþþþþþþþþþþþþþþþþþþþþþþþþþþþþþþþþ»
0001952 50E0 D000/9008_      00000 21609              WAITECB  XPROC
 USING  *,R7
 00196C 5860 C1C8            001C8 21649                       L     JCBR,CVCURJCB
 USING  JCB,R6                     21650                       WITH  JCB
                                   21662
 001970 1840                       21663                       LR    R4,R0               Save options
 001972 1831                       21664                       LR    R3,R1               Save ECB ptr
                                   21665                       ¿þþþþþþþþþþþþþþþþþþþþþþþþþþþþþþþþþþþþþþþþþþþþþþþþþþþÜ
                                   21666                       Ÿ  Build WECB queue entry and add it to the queue.  Ÿ
                                   21667                       ¾þþþþþþþþþþþþþþþþþþþþþþþþþþþþþþþþþþþþþþþþþþþþþþþþþþþ»
 001974 4100 0010            00010 21668                       LA    R0,L'WECB
 001978 58E0 72C8/0DEE       01C34 21669                       VCALL GETCORE             Get WECB entry
 00197E 1851                       21673                       LR    R5,R1
 USING  WECB,R5                    21674                       WITH  (WECB,R5),BEGIN
 001980 D70F 5000 5000 00000 00000 21688  1                      CLEAR WECB
 001986 D203 5000 72CC 00000 01C38 21695  1                      MVC   WECB(4),=C'WECB'
 00198C D203 5008 C1C8 00008 001C8 21696  1                      MVC   WECBJCBP,CVCURJCB   Save current JCB ptr
 001992 5030 500C            0000C 21697  1                      ST    R3,WECBECBP         Save ECB ptr
                                   21698  1
 001996 5820 C20C            0020C 21699  1                      L     R2,CVWECBQT         Get last WECB entry
 00199A 1222/4770 703C             21700  1                      IF    (R2,Z),BEGIN        Nothing on queue...
 0019A0 5010 C208            00208 21714  2                        ST    R1,CVWECBQH         We are the only entry
 0019A4 5010 C20C            0020C 21715  2                        ST    R1,CVWECBQT
 0019A8                            21716  1                      END
 0019A8 7040/47F0 7048 019A8 0199E 21720  1                      ELSE  BEGIN               Add to end of queue...
 0019AC 5010 2004            00004 21731  2                        WITH  (WECB,R2),'ST R1,WECBLINK'  Link us to prev
 DROP   WECB,R5
 USING  WECB,R2
 USING  WECB,R5
 DROP   WECB,R2
 0019B0 5010 C20C            0020C 21772  2                        ST    R1,CVWECBQT         We are the new queue tail
 0019B4                            21773  1                      END
 DROP   WECB,R5                    21777                       END
1DISP     (DISP2193) (12:42) (15MAR04) Resource Management Queueing Routines                                                Page   55
0Current Usings:  (JCB,R6) (*,R7) (CP,R11) (CV,R12)
0Loc    Object Code    Addr1 Addr2  Stmt Lv Lineno    Source Statement           (Hibal 5, Asmedit 3.3)  HLASM R4.0  2004/03/15 12.42
+___    ______ ____    _____ _____  ____ __ ______    ______ _________
0                                  21785                       ¿þþþþþþþþþþþþþþþþþþþþþþþþÜ
                                   21786                       Ÿ  Wait for completion.  Ÿ
                                   21787                       ¾þþþþþþþþþþþþþþþþþþþþþþþþ»
 0019B4 1244/4770 7060_            21788                       IF    (R4,Z),'PAUSE JCBWFECB'  Normal ECB wait
 0019CC 7064/47F0 7076_019CC 019B8 21820                       ELSE  'PAUSE JCBWWFECB'   Weak wait (attn will interrupt)
                                   21849
 0019E2 1B22                       21850                       CLEAR R2                  Assume A-ok
 0019E4 9104 6063/47E0_00063       21854                       IF    JCBFATTNFREE,'LA R2,4'  Attn freed the resource wait
                                   21875                       ¿þþþþþþþþþþþþþþþþþþþþþþþþþþþþþþþþþþþþþþþþþþþþþþþþþþþþÜ
                                   21876                       Ÿ  We have to remove our WECB entry from the queue.  Ÿ
                                   21877                       ¾þþþþþþþþþþþþþþþþþþþþþþþþþþþþþþþþþþþþþþþþþþþþþþþþþþþþ»
 0019F0 1B44                       21878              WTEFREE  CLEAR R4                  No previous WECB yet
 0019F2 4150 C204            00204 21883                       LA    R5,CVWECBQH-(WECBLINK-WECB)  Dummy queue head
 0019F6                            21884                       LOOP  BEGIN
 USING  WECB,R5                    21890  1                      WITH  (WECB,R5)
 0019F6 5850 5004/1255_      00004 21903  1                      WHILE ('LT R5,WECBLINK',NZ)  Go through queue...
 001A00 D503 5008 C1C8_00008 001C8 21920  1                      IF    (WECBJCBP,EQ,CVCURJCB),BEGIN  It's our entry...
 001A0A 1244/4770 70AA_            21938  2                        IF    (R4,Z),'MVC CVWECBQH,WECBLINK'  New queue head
 001A16 70AE/47F0 70B4_01A16 01A0E 21958  2                        ELSE  'MVC @R4+(WECBLINK-WECB)(4),WECBLINK'  Dequeue us
 001A20 D603 5004 5004_00004 00004 21975  2                        IF    (WECBLINK,Z),'ST R4,CVWECBQT'  New queue tail
                                   21997  2
 001A2E D203 5000 72D0 00000 01C3C 21998  2                        MVC   WECB(4),=C'XECB'    Zap id
 001A34 D203 5004 72D4 00004 01C40 21999  2                        MVC   WECBLINK,=F'-1'     Safety
 001A3A 4110 5000            00000 22000  2                        LA    R1,WECB
 001A3E 58E0 72D8/0DEE       01C44 22001  2                        VCALL FREECORE            Release memory
 001A44 47F0 7084            019F0 22005  2                        B     WTEFREE             Restart loop
 001A48                            22006  1                      END
                                   22010  1
 001A48 1845                       22011  1                      LR    R4,R5               Save previous WECB ptr
 001A4A 47F0 708A            019F6 22012                       END
 DROP   WECB,R5
                                   22022
 001A4E 18F2                       22023                       LR    R15,R2
 001A50 18D8/9808 D004_            22024                       PEND
 DROP   JCB,R6
 DROP   *,R7
1DISP     (DISP2193) (12:42) (15MAR04) WYLBUR's Dispatcher                                                                  Page   56
0Current Usings:  (CP,R11) (CV,R12)
0Loc    Object Code    Addr1 Addr2  Stmt Lv Lineno    Source Statement           (Hibal 5, Asmedit 3.3)  HLASM R4.0  2004/03/15 12.42
+___    ______ ____    _____ _____  ____ __ ______    ______ _________
0                                  22050              ¿þþþþþþþþþþþþþþþþþþþþþþþþþþþþþþþþþþþþþþþþþþþþþþþþþþþþþþþþþþþþþþþþþþþþþÜ
                                   22051              Ÿ                                                                     Ÿ
                                   22052              Ÿ  CHECKOUT -- Routine to force changed pages which have not been     Ÿ
                                   22053              Ÿ    referenced for a long time to be written out.                    Ÿ
                                   22054              Ÿ                                                                     Ÿ
                                   22055              Ÿ    This is really just a way to write out old changed pages         Ÿ
                                   22056              Ÿ    during non-peak times.  During peak times the ALLOC routine      Ÿ
                                   22057              Ÿ    will force old pages to be written out.                          Ÿ
                                   22058              Ÿ                                                                     Ÿ
                                                      ¾þþþþþþþþþþþþþþþþþþþþþþþþþþþþþþþþþþþþþþþþþþþþþþþþþþþþþþþþþþþþþþþþþþþþþ»
0000000                00000 00004 22059              CKWA     RECORD BEGIN
 000000                            22067  1           CKNIO      DS    F                   Number of I/O scheduled
 000004                00004 00004 22068                       END
                                   22077              þþþþ
 001A5E 50E0 D000/9008_      00000 22078              CHECKOUT PROC  CKWA
 USING  *,R7
 USING  CKWA-(4+36),R8
 001A78 D703 8028 8028 00000 00000 22128                       CLEAR CKWA
                                   22135
 001A7E 9140 C4C8/4710_004C8       22136                       IF    CVFMEMPAGE,EXIT     No paging system, scram
                                   22154
 001A86 4140 C1E4            001E4 22155                       LA    R4,CVBUFQ-(PCBQF-PCB)  Dummy first link
 001A8A 1834                       22156                       LR    R3,R4
 001A8C 5850 C1F0            001F0 22157                       L     R5,CVBUFQ           First entry
 001A90 1953/4780 70F8             22158                       WHILE (R5,NE,R3),BEGIN    Go through buffer queue...
 001A96 1845                       22175  1                      LR    R4,R5               Next PCB
 USING  PCB,R4                     22176  1                      WITH  (PCB,R4)
 001A98 D502 71EA 4000_01C62 00000 22189  1                      FAIL  (PCB,NE,'PCB'),PCBERR09,'Dispatcher PCB error.'
 001ABA 5850 400C            0000C 22218  1                      L     R5,PCBQF            Get link now (for loop)
                                   22219  1                      ¿þþþþþþþþþþþþþþþþþþþþþþþþþþþþþþþÜ
                                   22220  1                      Ÿ  Only look at changed pages.  Ÿ
                                   22221  1                      ¾þþþþþþþþþþþþþþþþþþþþþþþþþþþþþþþ»
 001ABE 9120 401D/47E0_0001D       22222  1                      IF    PCBFMARK,BEGIN      Page has changed...
 001AC6 D603 4020 4020_00020 00020 22237  2                        FAIL  (PCBPTP,Z),CHECKER2,'CHECKOUT logic error.'
 001AE8 9180 401D/47E0_0001D       22265  2                        FAIL  PCBFIO,CHECKER3,'CHECKOUT logic error.'
                                   22292  2
 001B08 5860 4008            00008 22293  2                        L     R6,PCBBUFP
 001B0C 4B60 71E8            01C60 22294  2                        SH    R6,=AL2(PBUFUSER-PBUF)
 USING  PBUF,R6                    22295  2                        WITH  (PBUF,R6)
                                   22308  2                        ¿þþþþþþþþþþþþþþþþþþþþþþþþþþþþþþþþþþþþþþþþþþþþþþþþþþþþþþþþþþþþþþÜ
                                   22309  2                        Ÿ  We are processing the owned queue pages from oldest to      Ÿ
                                   22310  2                        Ÿ    newest so as soon as we find a changed pages that is too  Ÿ
                                   22311  2                        Ÿ    new to be written, we can stop searching the queue.       Ÿ
                                   22312  2                        ¾þþþþþþþþþþþþþþþþþþþþþþþþþþþþþþþþþþþþþþþþþþþþþþþþþþþþþþþþþþþþþþ»
 001B10 58F0 C630            00630 22313  2                        L     R15,CVDSPCLK
 001B14 5BF0 4014            00014 22314  2                        S     R15,PCBQCLCK        Number of seconds since change
 001B18 59F0 C29C/4740_      0029C 22315  2                        IF    (R15,LT,CVPCSEC),CKOEXIT  Too new, stop looking
 001B20 58F0 4020            00020 22335  2                        L     R15,PCBPTP
 001B24 5860 F008            00008 22336  2                        WITH  (PT,R15),'L JCBR,PTJCBP'
 USING  PT,R15
 DROP   PT,R15
 DROP   PBUF,R6                    22360  2                        WITH  JCB
 USING  JCB,R6
1DISP     (DISP2193) (12:42) (15MAR04) WYLBUR's Dispatcher                                                                  Page   57
0Current Usings:  (PCB,R4) (JCB,R6) (*,R7) (CKWA-(4+36),R8) (CP,R11) (CV,R12)
0Loc    Object Code    Addr1 Addr2  Stmt Lv Lineno    Source Statement           (Hibal 5, Asmedit 3.3)  HLASM R4.0  2004/03/15 12.42
+___    ______ ____    _____ _____  ____ __ ______    ______ _________
0                                  22375  2
 001B28 58F0 400C/5810_      0000C 22376  2                        QBUFOFF ,                 Take buffer off queue
                                   22388  2
 001B42 41F0 4000            00000 22389  2                        LA    R15,PCB
 001B46 58E0 71D0/0DEE       01C48 22390  2                        ACALL PWRITE              Write the page
 001B4C 41F0 0001/5EF0_      00001 22394  2                        INCR  R15,CV#COUT         Count the checkpoint I/O
                                   22400  2                        ¿þþþþþþþþþþþþþþþþþþþþþþþþþþþþþþþþþþþþþþþþþþþþþþþþþþþþþþþþþþþþþþÜ
                                   22401  2                        Ÿ  Avoid queueing a huge number of pages all to be written     Ÿ
                                   22402  2                        Ÿ    simultaniously; so after we've queued a few we can        Ÿ
                                   22403  2                        Ÿ    stop.  The next time this routine is called (two seconds  Ÿ
                                   22404  2                        Ÿ    later) we'll queue some more pages.                       Ÿ
                                   22405  2                        ¾þþþþþþþþþþþþþþþþþþþþþþþþþþþþþþþþþþþþþþþþþþþþþþþþþþþþþþþþþþþþþþ»
 001B58 41F0 0001/5EF0_      00001 22406  2                        INCR  R15,CKNIO           Count number of I/O's we started
 001B64 59F0 71D4/47A0_      01C4C 22412  2                        IF    (R15,GE,CVPCMAX#),CKOEXIT  That's enough, more later
 DROP   JCB,R6                     22432  1                      END
 USING  PBUF,R6
 DROP   PBUF,R6
 001B6C 47F0 7018            01A90 22453                       END
 DROP   PCB,R4
                                   22463
 001B70 18D8/9808 D004_            22464              CKOEXIT  PEND
 DROP   CKWA-(4+36),R8
 DROP   *,R7
1DISP     (DISP2193) (12:42) (15MAR04) WYLBUR's Dispatcher                                                                  Page   58
0Current Usings:  (CP,R11) (CV,R12)
0Loc    Object Code    Addr1 Addr2  Stmt Lv Lineno    Source Statement           (Hibal 5, Asmedit 3.3)  HLASM R4.0  2004/03/15 12.42
+___    ______ ____    _____ _____  ____ __ ______    ______ _________
0                                  22491              ¿þþþþþþþþþþþþþþþþþþþþþþþþþþþþþþþþþþþþþþþþþþþþþþþþþþþþþþþþþþþþþþþþþþþþþÜ
                                   22492              Ÿ                                                                     Ÿ
                                   22493              Ÿ  FORCEOUT -- Routine to write changed pages back out to disk        Ÿ
                                   22494              Ÿ    for complete ACTIVE file recovery.                               Ÿ
                                   22495              Ÿ                                                                     Ÿ
                                                      ¾þþþþþþþþþþþþþþþþþþþþþþþþþþþþþþþþþþþþþþþþþþþþþþþþþþþþþþþþþþþþþþþþþþþþþ»
0001B7E 50E0 D000/9008_      00000 22496              FORCEOUT XPROC
 USING  *,R7
 001B98 9140 C4C8/4710_004C8       22536                       IF    CVFMEMPAGE,EXIT     No paging system, scram
                                   22554
 001BA0 9101 C4C5/4710_004C5       22555                       IF    ~CVFFORCE,BEGIN     Once...
 001BA8 9601 C4C5      004C5       22570  1                      SET   CVFFORCE            We've gone through this once
                                   22576  1                      ¿þþþþþþþþþþþþþþþþþþþþþþþþþþþþÜ
                                   22577  1                      Ÿ  Go through page buffers.  Ÿ
                                   22578  1                      ¾þþþþþþþþþþþþþþþþþþþþþþþþþþþþ»
 001BAC 4150 C1D8            001D8 22579  1                      LA    R5,CVPCBQH-(PCBLINK-PCB)  Dummy first link
 001BB0                            22580  1                      LOOP  BEGIN
 USING  PCB,R5                     22586  2                        WITH  (PCB,R5)
 001BB0 5850 5004/1255_      00004 22599  2                        WHILE ('LT R5,PCBLINK',NZ)  Go through PCBs...
 001BBA D502 70CA 5000_01C62 00000 22616  2                        IF    (PCB,EQ,'PCB'),BEGIN  Valid PCB control block...
 001BC4 5840 5008            00008 22633  3                          L     R4,PCBBUFP          User data buffer
 001BC8 4B40 70C8            01C60 22634  3                          SH    R4,=AL2(PBUFUSER-PBUF)  Backup to PBUF control block
 USING  PBUF,R4                    22635  3                          WITH  (PBUF,R4)
 001BCC D503 70B8 4000_01C50 00000 22648  3                          IF    (PBUF,NE,'PBUF'),EXIT  Not a good buffer, scram
 001BD6 5820 5020/1222       00020 22668  3                          LT    R2,PCBPTP
 001BDC 4780 706E            01C06 22672  3                          IF    NZ,BEGIN            Owned buffer...
 USING  PT,R2                      22683  4                            WITH  (PT,R2)
 001BE0 9180 501D/4710_0001D       22696  4                            IF    PCBFIO,EXIT         I/O in progress, forget it
 001BE8 9120 501D/47E0_0001D       22714  4                            IF    ~PCBFMARK,EXIT      Not changed
 001BF0 9180 406C/47E0_0006C       22732  4                            IF    ~PBUFFRCV,EXIT      Not needed for recovery
                                   22750  4
 001BF8 5810 2000            00000 22751  4                            L     R1,PTPNO            Get pageno
 001BFC 41F0 5000            00000 22752  4                            LA    R15,PCB
 001C00 58E0 70BC/0DEE       01C54 22753  4                            ACALL SAWRITE             Write this page out (and wait)
 DROP   PT,R2                      22757  3                          END
 DROP   PBUF,R4                    22766  2                        END
 001C06 47F0 7018            01BB0 22775  1                      END
 DROP   PCB,R5
 001C0A                            22785                       END
                                   22789
 001C0A 18D8/9808 D004_            22790                       PEND
 DROP   *,R7
                                   22810
                                   22811                       QLTORG
1DISP     (DISP2193) (12:42) (15MAR04) WYLBUR's Dispatcher                                                                  Page   59
0Current Usings:  (CP,R11) (CV,R12)
0Loc    Object Code    Addr1 Addr2  Stmt Lv Lineno    Source Statement           (Hibal 5, Asmedit 3.3)  HLASM R4.0  2004/03/15 12.42
+___    ______ ____    _____ _____  ____ __ ______    ______ _________
0                                  22846              ¿þþþþþþþþþþþþþþþþþþþþþþþþþþþþþþþþþþþþþþþþþþþþþþþþþþþþþþþþþþþþþþþþþþþþþÜ
                                   22847              Ÿ                                                                     Ÿ
                                   22848              Ÿ  PIODONE -- Routine to process the completion of page I/O.          Ÿ
                                   22849              Ÿ                                                                     Ÿ
                                                      ¾þþþþþþþþþþþþþþþþþþþþþþþþþþþþþþþþþþþþþþþþþþþþþþþþþþþþþþþþþþþþþþþþþþþþþ»
0001C66 50E0 D000/9008_      00000 22850              PIODONE  PROC
 USING  *,R7
                                   22889                       ¿þþþþþþþþþþþþþþþþþþþþþþþþþþþþþþþþþþþþþþþþþþþþþþþþþþþþþþþþþþþþþÜ
                                   22890                       Ÿ  Get a page off of appendage's completion queue.            Ÿ
                                   22891                       Ÿ                                                             Ÿ
                                   22892                       Ÿ  (Note: the page completion queue works like a LIFO stack,  Ÿ
                                   22893                       Ÿ     below we pop an item off the stack)                     Ÿ
                                   22894                       ¾þþþþþþþþþþþþþþþþþþþþþþþþþþþþþþþþþþþþþþþþþþþþþþþþþþþþþþþþþþþþþ»
 001C80 9845 C1E0            001E0 22895              PIOLOOP  LM    R4,R5,CVPOSTQH      Get posted queue pntr, lock
 001C84 1244/4780 72B4             22896                       IF    (R4,Z),PIOEXIT      Nothing, scram
                                   22913
 001C8A 58E4 0028            00028 22914                       L     R14,PCBPOSTL-PCB(R4) Get link to next PCB in queue...
 001C8E 41F5 0001            00001 22915                       LA    R15,1(R5)            Reset lock
 001C92 BB4E C1E0            001E0 22916                       CDS   R4,R14,CVPOSTQH      Point queue head to next PCB
 001C96 4770 7000            01C80 22917                       BNZ   PIOLOOP              If lock changed, try again
                                   22918
 USING  PCB,R4                     22919                       WITH  (PCB,R4)
 001C9A 5830 4020            00020 22932                       L     R3,PCBPTP           Page table entry ptr
 001C9E 1233/4770 703C_            22933                       FAIL  (R3,Z),PIOPROB7,'PIODONE logic error.'
 USING  PT,R3                      22959                       WITH  (PT,R3)
 001CBC 5940 300C/4780_      0000C 22972                       FAIL  (R4,NE,PTPCBP),PIOPROB8,'PIODONE logic error.'
 001CDC 5850 3004            00004 23001                       L     R5,PTPFCBP          Get our PFCB ptr
 USING  PFCB,R5                    23002                       WITH  (PFCB,R5)
                                   23015
 001CE0 D502 74C2 4000_02142 00000 23016                       FAIL  (PCB,NE,'PCB'),PCBERR10,'Dispatcher PCB error.'
 001D02 9180 401D/4710_0001D       23045                       FAIL  ~PCBFIO,PIOPROB1,'PIODONE logic error.'
 001D22 95FF 401F/4780_0001F       23072                       FAIL  ~PCBFPOST,PIOPROB2,'PIODONE logic error.'
 001D42 D603 400C 400C_0000C 0000C 23099                       FAIL  (PCBQF,NZ),PIOPROB3,'PIODONE logic error.'
                                   23127
 001D64 9200 401F      0001F       23128                       CLEAR PCBFPOST            Clear posted flag
 001D68 D203 4028 74A0 00028 02120 23135                       MVC   PCBPOSTL,=F'-1'     Safety
                                   23136                       ¿þþþþþþþþþþþþþþþþþþþþþþþþÜ
                                   23137                       Ÿ  Check for I/O error.  Ÿ
                                   23138                       ¾þþþþþþþþþþþþþþþþþþþþþþþþ»
 001D6E 957F 4075/4780_00075       23139                       IF    (PCBCOD,NE,X'7F'),BEGIN  I/O error...
 001D76 4DE0 72C2            01F42 23156  1                      LCALL PIOERROR            Write out I/O error messages
 001D7A 47F0 7000            01C80 23158  1                      B     PIOLOOP             Loop back
 001D7E                            23159                       END
                                   23163                       ¿þþþþþþþþþþþþþþþþþþþþþþþþþþþÜ
                                   23164                       Ÿ  Keep paging statistics.  Ÿ
                                   23165                       ¾þþþþþþþþþþþþþþþþþþþþþþþþþþþ»
 001D7E 4100 0001/5E00_      00001 23166                       INCR  R0,CVNPIO           Count the page I/O
                                   23172
 001D8A 5820 4008            00008 23173                       L     R2,PCBBUFP
 001D8E 4B20 74C0            02140 23174                       SH    R2,=AL2(PBUFUSER-PBUF)
 USING  PBUF,R2                    23175                       WITH  (PBUF,R2),BEGIN
 001D92 4110 C674            00674 23189  1                      LA    R1,CV#MSC           Assume miscellaneous page type
 001D96 D503 74A4 2068_02124 00068 23190  1                      IF    (PBUFID,EQ,'TEXT'),'LA R1,CV#TXT'
1DISP     (DISP2193) (12:42) (15MAR04) WYLBUR's Dispatcher                                                                  Page   60
0Current Usings:  (PBUF,R2) (PT,R3) (PCB,R4) (PFCB,R5) (*,R7) (CP,R11) (CV,R12)
0Loc    Object Code    Addr1 Addr2  Stmt Lv Lineno    Source Statement           (Hibal 5, Asmedit 3.3)  HLASM R4.0  2004/03/15 12.42
+___    ______ ____    _____ _____  ____ __ ______    ______ _________
0                                  23213  1
 001DA4 41F0 0001            00001 23214  1                      LA    R15,1
 001DA8 5AF0 1004            00004 23215  1                      A     R15,@R1+4           Kick page I/O count
 001DAC 50F0 1004            00004 23216  1                      ST    R15,@R1+4           Save new count
                                   23217  1
 001DB0 9505 2020/4770_00020       23218  1                      IF    ('CLI PCCWRW,X"05"',EQ),BEGIN  Page write...
 001DB8 41F0 0001            00001 23231  2                        LA    R15,1
 001DBC 5AF0 1008            00008 23232  2                        A     R15,@R1+8           Kick page write count
 001DC0 50F0 1008            00008 23233  2                        ST    R15,@R1+8           Save new count
 001DC4                            23234  1                      END
 DROP   PBUF,R2                    23238                       END
                                   23246
 001DC4 4100 0001/5E00_      00001 23247                       INCR  R0,PFCBNIO          Count the page I/O on this PFCB
 001DD0 B205 D000      00000       23253                       STCK  @R13                Current TOD
 001DD4 9801 D000            00000 23254                       LM    R0,R1,@R13
 001DD8 5F10 4034/47B0_      00034 23255                       SDL   R0,PCBCLCK          I/O elapsed time
 001DE6 5E10 5038/47C0_      00038 23260                       ADL   R0,PFCBCLK          Total I/O time
 001DF6 9001 5034            00034 23281                       STM   R0,R1,PFCBCLK       Save total I/O time
                                   23282                       ¿þþþþþþþþþþþþþþþþþþþþþþþþþþþþþþþþþþþþþþþþþþþþþÜ
                                   23283                       Ÿ  Finish up processing page I/O completion.  Ÿ
                                   23284                       ¾þþþþþþþþþþþþþþþþþþþþþþþþþþþþþþþþþþþþþþþþþþþþþ»
 001DFA 947F 401D      0001D       23285                       CLEAR PCBFIO              Clear I/O
 001DFE 94DF 401D      0001D       23292                       CLEAR PCBFMARK            Page is no longer changed
                                   23299                       ¿þþþþþþþþþþþþþþþþþþþþþþþþþþþþþþþþþþþþþþþþþþþþþþþþþþþþþþþþþþþÜ
                                   23300                       Ÿ  Page I/O for a junked buffer has completed; release the  Ÿ
                                   23301                       Ÿ    pageno and add the buffer to the empty queue.          Ÿ
                                   23302                       ¾þþþþþþþþþþþþþþþþþþþþþþþþþþþþþþþþþþþþþþþþþþþþþþþþþþþþþþþþþþþ»
 001E02 9110 401D/47E0_0001D       23303                       IF    PCBFJUNK,BEGIN      We need to junk this pageno...
 001E0A 94BF 401D      0001D       23318  1                      CLEAR PCBFIOWR            Reset I/O option flag
 001E0E D703 3008 3008 00008 00008 23325  1                      CLEAR PTFREE              Pageno is available now
 001E14 D203 300C 5020 0000C 00020 23332  1                      MVC   PTLINKP,PFCBAPQH    Link up free PT's
 001E1A 5030 5020            00020 23333  1                      ST    R3,PFCBAPQH         We are the new free PT queue head
                                   23334  1
 001E1E 58F0 5010/06F0_      00010 23335  1                      DECR  R15,PFCBCP          Decr current count
                                   23340  1
 001E28 D712 401D 401D 0001D 0001D 23341  1                      CLEAR PCBCLEAR            Clear ownership info
 001E2E 5820 4008            00008 23348  1                      L     R2,PCBBUFP
 001E32 4B20 74C0            02140 23349  1                      SH    R2,=AL2(PBUFUSER-PBUF)
 001E36 D707 2068 2068 00068 00068 23350  1                      WITH  (PBUF,R2),'CLEAR PBUFSYS'  Clear buffer prefix
 USING  PBUF,R2
 DROP   PBUF,R2
                                   23380  1
 001E3C 41F0 C1DC            001DC 23381  1                      LA    R15,CVEMBUFQ-(PCBQF-PCB)  Dummy first link
 001E40 5800 F010/5040_      00010 23382  1                      QBUFON ,                  Put on empty buffer queue
                                   23389  1
 001E56 47F0 7000            01C80 23390  1                      B     PIOLOOP             Loop back
 001E5A                            23391                       END
                                   23395
 001E5A 5860 3008            00008 23396                       L     JCBR,PTJCBP         Get our JCB ptr
 001E5E 1266/4770 71FC_            23397                       FAIL  (JCBR,Z),PIOPROB9,'PIODONE logic error.'
 USING  JCB,R6                     23423                       WITH  JCB
1DISP     (DISP2193) (12:42) (15MAR04) WYLBUR's Dispatcher                                                                  Page   61
0Current Usings:  (PT,R3) (PCB,R4) (PFCB,R5) (JCB,R6) (*,R7) (CP,R11) (CV,R12)
0Loc    Object Code    Addr1 Addr2  Stmt Lv Lineno    Source Statement           (Hibal 5, Asmedit 3.3)  HLASM R4.0  2004/03/15 12.42
+___    ______ ____    _____ _____  ____ __ ______    ______ _________
0                                  23435                       ¿þþþþþþþþþþþþþþþþþþþþþþþþþþþþþþþþþþþþþþþþþþþþþþþþþþþþþþþþþþÜ
                                   23436                       Ÿ  Put the user on the run queue if his PAR and PBR pages  Ÿ
                                   23437                       Ÿ    have completed I/O.                                   Ÿ
                                   23438                       ¾þþþþþþþþþþþþþþþþþþþþþþþþþþþþþþþþþþþþþþþþþþþþþþþþþþþþþþþþþþ»
 001E7C 9104 6062/47E0_00062       23439                       IF    JCBAFRUN,BEGIN      We are trying to run this guy...
 001E84 5930 6040/4780_      00040 23454  1                      IF    ((R3,NE,JCBPTA),AND,(R3,NE,JCBPTB)),EXIT  Not PA/PB
 001E94 94BF 401D      0001D       23490  1                      CLEAR PCBFIOWR            Reset I/O option flag
                                   23497  1
 001E98 4800 6032/1200       00032 23498  1                      LTH   R0,JCB#PIO          Get active I/O count
 001E9E 4720 723A/900F_      01EBA 23502  1                      FAIL  NP,PDONEQR,'Logic error in setup I/O.'
 001EBA 4600 7268            01EE8 23525  1                      BCT   R0,PIONTDN          Br if I/O not done
 001EBE 94EF 6060      00060       23526  1                      CLEAR JCBWFRSC            No longer waiting for rsc
 001EC2 1816/58E0 74AC_            23533  1                      DQJCB (JCBR)              Take off of pagio queue
 001ECA 4110 0001/1806_      00001 23543  1                      RUNQ  (JCBR)              And put on run queue
 001EDA 41F0 0001/4AF0_      00001 23562  1                      INCR  R15,CVRUNCUR        Kick run queue depth
 001EE6 1B00                       23568  1                      CLEAR R0                  Make sure zero
 001EE8 4000 6032            00032 23572  1           PIONTDN    STH   R0,JCB#PIO          Save new I/O count
                                   23573  1
 001EEC 47F0 7000            01C80 23574  1                      B     PIOLOOP             Loop back
 001EF0                            23575                       END
                                   23579                       ¿þþþþþþþþþþþþþþþþþþþþþþþþþþþþþþþþþþþþþþþþþþþþþþþþþþþþþþþþþþþþþþÜ
                                   23580                       Ÿ  Owned buffer I/O completion.                                Ÿ
                                   23581                       Ÿ                                                              Ÿ
                                   23582                       Ÿ  Note:  QBUFON puts the buffer on the queue before the       Ÿ
                                   23583                       Ÿ    entry in R15.  Normally we put the buffer at the end of   Ÿ
                                   23584                       Ÿ    the LRU queue, and when we need to take a buffer we will  Ÿ
                                   23585                       Ÿ    take a buffer from the top (i.e., the oldest).            Ÿ
                                   23586                       Ÿ                                                              Ÿ
                                   23587                       Ÿ    However, if we are writing out an old buffer to free      Ÿ
                                   23588                       Ÿ    the buffer, then we want to put it back at the end of     Ÿ
                                   23589                       Ÿ    the queue, so it can be snatched by the next person       Ÿ
                                   23590                       Ÿ    who needs a page.                                         Ÿ
                                   23591                       ¾þþþþþþþþþþþþþþþþþþþþþþþþþþþþþþþþþþþþþþþþþþþþþþþþþþþþþþþþþþþþþþ»
 001EF0 41F0 C1E4            001E4 23592                       LA    R15,CVBUFQ-(PCBQF-PCB)  Dummy first entry
 001EF4 9140 401D/47E0_0001D       23593                       IF    PCBFIOWR,BEGIN      This was a page write...
 001EFC 58F0 F00C            0000C 23608  1                      L     R15,PCBQF-PCB(,R15)  Get 2nd entry ptr
 001F00 94BF 401D      0001D       23609  1                      CLEAR PCBFIOWR            Reset I/O option
 001F04 5800 F010/5040_      00010 23616  1                      QBUFON STCK=NO
 001F16 47F0 7000            01C80 23622  1                      B     PIOLOOP             Loop back
 001F1A                            23623                       END
                                   23627
 001F1A 5800 F010/5040_      00010 23628                       QBUFON ,                  Put on buffer queue
 001F30 47F0 7000            01C80 23635                       B     PIOLOOP             Loop back
                                   23636
 001F34 18D8/9808 D004_            23637              PIOEXIT  PEND
 DROP   JCB,R6
 DROP   PFCB,R5
 DROP   PT,R3
 DROP   PCB,R4
 DROP   *,R7
1DISP     (DISP2193) (12:42) (15MAR04) WYLBUR's Dispatcher                                                                  Page   62
0Current Usings:  (CP,R11) (CV,R12)
0Loc    Object Code    Addr1 Addr2  Stmt Lv Lineno    Source Statement           (Hibal 5, Asmedit 3.3)  HLASM R4.0  2004/03/15 12.42
+___    ______ ____    _____ _____  ____ __ ______    ______ _________
0                                  23679              ¿þþþþþþþþþþþþþþþþþþþþþþþþþþþþþþþþþþþþþþþþþþþþþþþþþþþþþþþþþþþþþþþþþþþþþÜ
                                   23680              Ÿ                                                                     Ÿ
                                   23681              Ÿ  PIOERROR -- Routine to process a page I/O error.  All we do is     Ÿ
                                   23682              Ÿ    write a message to the operator and return.  Because we've       Ÿ
                                   23683              Ÿ    never decremented the user's active page I/O count, he won't     Ÿ
                                   23684              Ÿ    run again.                                                       Ÿ
                                   23685              Ÿ                                                                     Ÿ
                                   23686              Ÿ    If page I/O errors happen more often, this logic should be       Ÿ
                                   23687              Ÿ    improved to try and recover the user.                            Ÿ
                                   23688              Ÿ                                                                     Ÿ
                                   23689              Ÿ    On entry:                                                        Ÿ
                                   23690              Ÿ      R4 - PCB ptr                                                   Ÿ
                                   23691              Ÿ                                                                     Ÿ
                                                      ¾þþþþþþþþþþþþþþþþþþþþþþþþþþþþþþþþþþþþþþþþþþþþþþþþþþþþþþþþþþþþþþþþþþþþþ»
0001F42 50E0 D000/9008_      00000 23692              PIOERROR PROC
 USING  *,R7
 USING  PCB,R4                     23731                       WITH  (PCB,R4)
 001F5C D502 71E6 4000_02142 00000 23744                       FAIL  (PCB,NE,'PCB'),PCBERR11,'Dispatcher PCB error.'
                                   23773                       ¿þþþþþþþþþþþþþþþþþþþþþþþþþþþþþþþþþþÜ
                                   23774                       Ÿ  Check for too many I/O errors.  Ÿ
                                   23775                       ¾þþþþþþþþþþþþþþþþþþþþþþþþþþþþþþþþþþ»
 001F7E 41F0 0001/5EF0_      00001 23776                       INCR  R15,IOERRCNT        Count the paging error
 001F8A 59F0 71D8/47D0_      02134 23782                       FAIL  (R15,GT,10),IOERROR,'Paging I/O errors.'
                                   23811                       ¿þþþþþþþþþþþþþþþþþþþþþþþþþþþþþþþþþþþþþþþþþþþþþþþþþþÜ
                                   23812                       Ÿ  Write out page I/O error messages to operator.  Ÿ
                                   23813                       ¾þþþþþþþþþþþþþþþþþþþþþþþþþþþþþþþþþþþþþþþþþþþþþþþþþþ»
 001FAA D207 7144 C018 020A0 00018 23814                       MVC   DRERSYS,CVNAME      Put system name in message
                                   23815
 001FB0 58F0 4020            00020 23816                       L     R15,PCBPTP
 001FB4 58F0 F000            00000 23817                       WITH  (PT,R15),'L R15,PTPNO'  Get pageno
 USING  PT,R15
 DROP   PT,R15
 001FB8 4100 0005/4110_      00005 23841                       BTD   DRERPNO,,(R15)      Page no.
                                   23861
 001FC6 5830 4008            00008 23862                       L     R3,PCBBUFP          PBUF ptr
 001FCA 4B30 71E4            02140 23863                       SH    R3,=AL2(PBUFUSER-PBUF)
 USING  PBUF,R3                    23864                       WITH  (PBUF,R3),BEGIN
 001FCE 1FFF/43F0 3020_            23878  1                      BTX   DREROPCD,,LC:PCCWRW  Put in opcode
 001FE2 58F0 3028/4100_      00028 23904  1                      BTX   DRERSEEK,8,PBUFSEEK
 001FF4 58F0 302C/4100_      0002C 23927  1                      BTX   DRERSEEK+8,8,PBUFSEEK+4
 DROP   PBUF,R3                    23950                       END
                                   23958
 002006 4130 4068            00068 23959                       LA    R3,PCBIOSB          IOSB has error info
 USING  IOSB,R3                    23960                       WITH  (IOSB,R3),BEGIN
 00200A 1FFF/43F0 300D_            23974  1                      BTX   DRERCODE,,IC:IOSCOD  I/O completion code
 00201E 58F0 3014/4100_      00014 24000  1                      BTX   DRERCSW,8,L:IOSFCSW   CSW
 002030 58F0 3018/4100_      00018 24023  1                      BTX   DRERCSW+8,8,L:IOSFCSW+4
 002042 48F0 302A/4100_      0002A 24046  1                      BTX   DRERSNS,4,LH:IOSSNS  Put in sense bytes
 DROP   IOSB,R3                    24068                       END
                                   24076
 002054 58F0 4020            00020 24077                       L     R15,PCBPTP
 002058 5860 F008            00008 24078                       WITH  (PT,R15),'L JCBR,PTJCBP'  Unlucky user
 USING  PT,R15
1DISP     (DISP2193) (12:42) (15MAR04) WYLBUR's Dispatcher                                                                  Page   63
0Current Usings:  (PCB,R4) (*,R7) (CP,R11) (CV,R12)
0Loc    Object Code    Addr1 Addr2  Stmt Lv Lineno    Source Statement           (Hibal 5, Asmedit 3.3)  HLASM R4.0  2004/03/15 12.42
+___    ______ ____    _____ _____  ____ __ ______    ______ _________
0DROP   PT,R15
 USING  JCB,R6                     24102                       WITH  JCB,BEGIN
 00205C D201 7174 604D 020D0 0004D 24115  1                      MVC   DRERACCT(2),JCBACCT+3  gg
 002062 D202 7177 604A 020D3 0004A 24116  1                      MVC   DRERACCT+3(3),JCBACCT  uuu
 002068 48F0 6048/4100_      00048 24117  1                      BTD   DRERSEQ,,LH:JCBSEQ  Line number
 DROP   JCB,R6                     24137                       END
                                   24145
 00207A 4110 713C            02098 24146                       LA    R1,DRERM1           Issue first wto
 00207E 0A23                       24147                       WTO   MF=(E,(1))
                                   24150
 002080 4110 718C            020E8 24151                       LA    R1,DRERM2           Issue second wto
 002084 0A23                       24152                       WTO   MF=(E,(1))
                                   24155
 002086 18D8/9808 D004_            24156                       PEND
 DROP   PCB,R4
 DROP   *,R7
                                   24181
 002094 00000000                   24182              IOERRCNT DC    F'0'                I/O error count
                                   24183
 002098                            24184              DRERM1   DS    0F
 002098 004A                       24185                       DC    AL2(DRERM1L)
 00209A 8000                       24186                       DC    X'8000'             Routing & desc codes present
 00209C 5C5C5C40                   24187                       DC    C'*** '
 0020A0 E6E8D3C2E4D94040           24188              DRERSYS  DC    CL8'WYLBUR'
 0020A8 405C5C5C40D78187           24189                       DC    C' *** Paging I/O error on page '
 0020C6 6F6F6F6F6F                 24190              DRERPNO  DC    C'?????'
 0020CB 4086969940                 24191                       DC    C' for '
 0020D0 87874BA4A4A4               24192              DRERACCT DC    C'gg.uuu'
 0020D6 4096954093899585           24193                       DC    C' on line '
 0020DF 6F6F6F                     24194              DRERSEQ  DC    C'???'
                                   24195              DRERM1L  EQU   *-DRERM1
 0020E2 0000                       24196                       DC    X'0000'             Descriptor codes
 0020E4 4140                       24197                       DC    X'4140'             Routcde=(2,8,10)
 0020E6 0000
 0020E8 0034                       24198              DRERM2   DC    0F'0',AL2(DRERM2L)
 0020EA 8000                       24199                       DC    X'8000'             Routing & desc codes present
 0020EC 5C5C5C40                   24200                       DC    C'*** '
 0020F0 6F6F                       24201              DREROPCD DC    C'??'
 0020F2 6B                         24202                       DC    C','
 0020F3 6F6F                       24203              DRERCODE DC    C'??'
 0020F5 6B                         24204                       DC    C','
 0020F6 6F6F6F6F6F6F6F6F           24205              DRERCSW  DC    C'????????????????'
 002106 6B                         24206                       DC    C','
 002107 6F6F6F6F                   24207              DRERSNS  DC    C'????'
 00210B 6B                         24208                       DC    C','
 00210C 6F6F6F6F6F6F6F6F           24209              DRERSEEK DC    C'????????????????'
                                   24210              DRERM2L  EQU   *-DRERM2
 00211C 0000                       24211                       DC    X'0000'             Descriptor codes
 00211E 4140                       24212                       DC    X'4140'             Routcde=(2,8,10)
                                   24213
                                   24214                       QLTORG
1DISP     (DISP2193) (12:42) (15MAR04) WYLBUR's Dispatcher                                                                  Page   64
0Current Usings:  (CP,R11) (CV,R12)
0Loc    Object Code    Addr1 Addr2  Stmt Lv Lineno    Source Statement           (Hibal 5, Asmedit 3.3)  HLASM R4.0  2004/03/15 12.42
+___    ______ ____    _____ _____  ____ __ ______    ______ _________
0                                  24237              ¿þþþþþþþþþþþþþþþþþþþþþþþþþþþþþþþþþþþþþþþþþþþþþþþþþþþþþþþþþþþþþþþþþþþþþÜ
                                   24238              Ÿ                                                                     Ÿ
                                   24239              Ÿ  MGETNEW -- Routine to get a new "memory page" in PAR.              Ÿ
                                   24240              Ÿ                                                                     Ÿ
                                   24241              Ÿ    A memory page is a WYLBUR page that is kept in virtual           Ÿ
                                   24242              Ÿ    memory, not part of WYLBUR's paging system.  Memory pages        Ÿ
                                   24243              Ÿ    are used to keep information global for all users.               Ÿ
                                   24244              Ÿ                                                                     Ÿ
                                   24245              Ÿ    On exit, R15 (and cc):                                           Ÿ
                                   24246              Ÿ      0 - ok; R0 = pageno;                                           Ÿ
                                   24247              Ÿ              PAR = new page data ptr                                Ÿ
                                   24248              Ÿ      4 - no more memory; R0/PAR = zero                              Ÿ
                                   24249              Ÿ                                                                     Ÿ
                                   24250              Ÿ    Historical note:                                                 Ÿ
                                   24251              Ÿ      Prior to 7/86, pagenos were halfword numbers.  Now they        Ÿ
                                   24252              Ÿ      are fullwords.  If the high-order bit is on, then the          Ÿ
                                   24253              Ÿ      "pageno" is actually just the address of a memory page.        Ÿ
                                   24254              Ÿ      If the high-order bit is off, then it is pageno of a           Ÿ
                                   24255              Ÿ      disk page.  Code that never gets memory pages can still        Ÿ
                                   24256              Ÿ      get away with saving just a halfword for a pageno, but it      Ÿ
                                   24257              Ÿ      is a bad idea.  In the future, all pagenos should be           Ÿ
                                   24258              Ÿ      considered to be fullword quantities.                          Ÿ
                                   24259              Ÿ                                                                     Ÿ
                                                      ¾þþþþþþþþþþþþþþþþþþþþþþþþþþþþþþþþþþþþþþþþþþþþþþþþþþþþþþþþþþþþþþþþþþþþþ»
0002146 50E0 D000/9008_      00000 24260              MGETNEW  XPROC
 USING  *,R7
 002160 58E0 7620/0DEE       02780 24300                       PFREE PAR                 Free any previous page
                                   24306
 002166 4800 7658            027B8 24307                       LH    R0,=AL2(CVPSZ)
 00216A 58E0 7624/0DEE       02784 24308                       VCALL GETCORE             Get memory for page
                                   24312
 002170 5820 C6C4            006C4 24313                       L     R2,CVMPGMEM         Memory page byte count
 002174 1A20                       24314                       AR    R2,R0               Keep it accurate
 002176 5020 C6C4            006C4 24315                       ST    R2,CVMPGMEM
                                   24316
 00217A 1891                       24317                       LR    PAR,R1              Set page register
 00217C 1801                       24318                       LR    R0,R1
 00217E 5600 7628            02788 24319                       O     R0,=A(X'80000000')  Indicate memory page address
 002182 5008 0004            00004 24320                       PRETURN (R0)              Return pageno to caller
 002186 4199 0000            00000 24322                       LA    PAR,0(PAR)          Return positive page address
 00218A 1BFF                       24323                       CLEAR R15                 Set good return code
 00218C 18D8/9808 D004_            24327                       PEND
 DROP   *,R7
1DISP     (DISP2193) (12:42) (15MAR04) WYLBUR's Dispatcher                                                                  Page   65
0Current Usings:  (CP,R11) (CV,R12)
0Loc    Object Code    Addr1 Addr2  Stmt Lv Lineno    Source Statement           (Hibal 5, Asmedit 3.3)  HLASM R4.0  2004/03/15 12.42
+___    ______ ____    _____ _____  ____ __ ______    ______ _________
0                                  24348              ¿þþþþþþþþþþþþþþþþþþþþþþþþþþþþþþþþþþþþþþþþþþþþþþþþþþþþþþþþþþþþþþþþþþþþþÜ
                                   24349              Ÿ                                                                     Ÿ
                                   24350              Ÿ  PGETNEW -- Routine to get a new page in PAR.                       Ÿ
                                   24351              Ÿ                                                                     Ÿ
                                   24352              Ÿ    On exit, R15 (and cc):                                           Ÿ
                                   24353              Ÿ      0 - ok; R0 = pageno;                                           Ÿ
                                   24354              Ÿ              PAR = new page data ptr                                Ÿ
                                   24355              Ÿ      4 - no more pages; R0/PAR = zero                               Ÿ
                                   24356              Ÿ                                                                     Ÿ
                                                      ¾þþþþþþþþþþþþþþþþþþþþþþþþþþþþþþþþþþþþþþþþþþþþþþþþþþþþþþþþþþþþþþþþþþþþþ»
000219A 50E0 D000/9008_      00000 24357              PGETNEW  XPROC
 USING  *,R7
                                   24397                       ¿þþþþþþþþþþþþþþþþþþþþþþþþþþþþþþþþþþþþþþþþþþþþþþþþþþþþþþþþþþÜ
                                   24398                       Ÿ  In memory mode, there is no paging system so we always  Ÿ
                                   24399                       Ÿ    need to do an MGETNEW instead of PGETNEW.             Ÿ
                                   24400                       ¾þþþþþþþþþþþþþþþþþþþþþþþþþþþþþþþþþþþþþþþþþþþþþþþþþþþþþþþþþþ»
 0021B4 9140 C4C8/47E0_004C8       24401                       IF    CVFMEMPAGE,BEGIN    Memory mode...
 0021BC 58E0 75D8/0DEE       0278C 24416  1                      VCALL MGETNEW             Do memory style PGETNEW
 0021C2 5008 0004            00004 24420  1                      PRETURN (R0)              Return "pageno"
 0021C6 47F0 70E8            0229C 24422  1                      EXIT  PGETNEW             Scram
 0021CA                            24425                       END
                                   24429
 0021CA 5860 C1C8            001C8 24430                       L     JCBR,CVCURJCB
 USING  JCB,R6                     24431                       WITH  JCB
                                   24443
 0021CE 58E0 75CC/0DEE       02780 24444                       PFREE PAR                 Free any previous page
                                   24450                       ¿þþþþþþþþþþþþþþþþþþþþþþþþþþþþþþþÜ
                                   24451                       Ÿ  Allocate a new page number.  Ÿ
                                   24452                       ¾þþþþþþþþþþþþþþþþþþþþþþþþþþþþþþþ»
 0021D4 58E0 75DC/0DEE       02790 24453                       ACALL PALLOC              Get a new page number
 0021DA 1850                       24457                       LR    R5,R0               Save pageno (for later)
 0021DC 4770 7030/41F0_      021E4 24458                       IF    Z,'LA R15,4'        No more pages
                                   24475
 0021E4 7034/47F0 70E2 021E4 021DE 24476                       ELSE  BEGIN               Allocate a page buffer...
 0021E8 1810                       24487  1                      LR    R1,R0
 0021EA 8910 0004/5E10_      00004 24488  1                      GETPT R1                  Get PT ptr
 USING  PT,R1                      24491  1                      WITH  (PT,R1)
 0021F2 D603 100C 100C_0000C 0000C 24504  1                      FAIL  (PTPCBP,NZ),PGETNEW1,'PGETNEW error.'
 002214 5960 1008/4780_      00008 24532  1                      FAIL  (JCBR,NE,PTJCBP),PGETNEW2,'PGETNEW error.'
 002234 5010 6040            00040 24561  1                      ST    R1,JCBPTA           Save PT ptr
                                   24562  1                      ¿þþþþþþþþþþþþþþþþþþþþþþþþþþþþþþþþþþþþþþþþþÜ
                                   24563  1                      Ÿ  Allocate a page buffer (if possible).  Ÿ
                                   24564  1                      ¾þþþþþþþþþþþþþþþþþþþþþþþþþþþþþþþþþþþþþþþþþ»
 002238 58E0 75E0/0DEE       02794 24565  1                      ACALL ALLOCPCB            Allocate PCB
 00223E 4770 70B8            0226C 24569  1                      IF    Z,BEGIN             Got a PCB...
 002242 5840 100C            0000C 24580  2                        L     R4,PTPCBP
 USING  PCB,R4                     24581  2                        WITH  (PCB,R4)
 002246 D502 760A 4000_027BE 00000 24594  2                        FAIL  (PCB,NE,'PCB'),PCBERR16,'Dispatcher PCB error.'
 002268 5894 0008            00008 24623  2                        L     PAR,CVPINDEX(R4)    Page buffer ptr
 DROP   PCB,R4                     24624  1                      END
                                   24633  1
 00226C 70BC/47F0 70E0 0226C 02240 24634  1                      ELSE  BEGIN               No buffers available now...
 002270 18F6/9610 F062_            24645  2                        SETUP (JCBR)
1DISP     (DISP2193) (12:42) (15MAR04) WYLBUR's Dispatcher                                                                  Page   66
0Current Usings:  (PT,R1) (JCB,R6) (*,R7) (CP,R11) (CV,R12)
0Loc    Object Code    Addr1 Addr2  Stmt Lv Lineno    Source Statement           (Hibal 5, Asmedit 3.3)  HLASM R4.0  2004/03/15 12.42
+___    ______ ____    _____ _____  ____ __ ______    ______ _________
0002286 41E0 70E0/900F_      02294 24671  2                        PAUSE ,                   Let dispatcher allocate page
 002294                            24678  1                      END
 002294 1BFF                       24682  1                      CLEAR R15                 A-ok
 DROP   PT,R1                      24686                       END
                                   24695
 002296 1805                       24696                       LR    R0,R5
 002298 5008 0004            00004 24697                       PRETURN (R0)              Return pageno
 00229C 18D8/9808 D004_            24699                       PEND
 DROP   JCB,R6
 DROP   *,R7
1DISP     (DISP2193) (12:42) (15MAR04) WYLBUR's Dispatcher                                                                  Page   67
0Current Usings:  (CP,R11) (CV,R12)
0Loc    Object Code    Addr1 Addr2  Stmt Lv Lineno    Source Statement           (Hibal 5, Asmedit 3.3)  HLASM R4.0  2004/03/15 12.42
+___    ______ ____    _____ _____  ____ __ ______    ______ _________
0                                  24725              ¿þþþþþþþþþþþþþþþþþþþþþþþþþþþþþþþþþþþþþþþþþþþþþþþþþþþþþþþþþþþþþþþþþþþþþÜ
                                   24726              Ÿ                                                                     Ÿ
                                   24727              Ÿ  PGETA -- Routine to get a page in PAR.                             Ÿ
                                   24728              Ÿ                                                                     Ÿ
                                   24729              Ÿ    On entry:                                                        Ÿ
                                   24730              Ÿ      R0 - page-number of page to get                                Ÿ
                                   24731              Ÿ                                                                     Ÿ
                                   24732              Ÿ    On exit, R15 (and cc):                                           Ÿ
                                   24733              Ÿ      0 - ok (PAR = page data ptr)                                   Ÿ
                                   24734              Ÿ                                                                     Ÿ
                                                      ¾þþþþþþþþþþþþþþþþþþþþþþþþþþþþþþþþþþþþþþþþþþþþþþþþþþþþþþþþþþþþþþþþþþþþþ»
00022AA 50E0 D000/9008_      00000 24735              PGETA    XPROC
 USING  *,R7
 0022C4 5860 C1C8            001C8 24775                       L     JCBR,CVCURJCB
 USING  JCB,R6                     24776                       WITH  JCB
                                   24788
 0022C8 D601 6032 6032_00032 00032 24789                       FAIL  (JCB#PIO,NZ),PGETAD,'PGET error.'
                                   24817              ***
                                   24818              ***  Get a regular page.
                                   24819              ***
 0022EA 1250                       24820                       LTR   R5,R0               Page number to get
 0022EC 47D0 71B0            02474 24821                       IF    POS,BEGIN           Regular page...
 0022F0 5950 C154/47D0_      00154 24832  1                      FAIL  (R5,GT,CVMAXPNO),PGETERR1,'PGET error.'
 002310 8950 0004/5E50_      00004 24861  1                      GETPT R5
 USING  PT,R5                      24864  1                      WITH  (PT,R5)
 002318 5960 5008/4780_      00008 24877  1                      FAIL  (JCBR,NE,PTJCBP),PGETERR7,'PGET error.'
 002338 5950 6040/4780_      00040 24906  1                      IF    (R5,EQ,JCBPTA),PGETDONE  Already set, scram
                                   24926  1           *
                                   24927  1           *  06/05/2000: MPD. FAIL if we ever to try to get the PAGE B
                                   24928  1           *                   page into PAGE A. I think this should never
                                   24929  1           *                   happen, and if it did, it might explain a
                                   24930  1           *                   DISPATCHER failsoft in the QBUFOFF below
                                   24931  1           *                   where the foward and backward pointers
                                   24932  1           *                   were both 0 (which should never happen
                                   24933  1           *                   unless the PCB was owned and therefore
                                   24934  1           *                   on no queue at all).
                                   24935  1           *
 002340 5950 6044/4770_      00044 24936  1                      FAIL  (R5,EQ,JCBPTB),"PGETA called to get PAGE B"
                                   24964  1
 00235C 58E0 74BC/0DEE       02780 24965  1                      PFREE PAR                 Free previous page
 002362 D603 6040 6040_00040 00040 24971  1                      FAIL  (JCBPTA,NZ),PGETERR2,'PGET error.'
 002384 5050 6040            00040 24999  1                      ST    R5,JCBPTA           Set new page pointer
                                   25000  1
 002388 5840 500C/1244       0000C 25001  1                      LT    R4,PTPCBP
 00238E 4770 7118            023DC 25005  1                      IF    Z,BEGIN             Not in core...
 002392 18F6/9610 F062_            25016  2                        SETUP (JCBR)
 0023A8 41E0 70F2/900F_      023B6 25042  2                        PAUSE ,                   Dispatcher will read page
 0023B6 D603 500C 500C_0000C 0000C 25049  2                        FAIL  (PTPCBP,Z),PGETERR9,'PGET error.'
 0023D8 47F0 720A            024CE 25077  2                        B     PGETDONE
 0023DC                            25078  1                      END
                                   25082  1
 USING  PCB,R4                     25083  1                      WITH  (PCB,R4)
 0023DC D502 74FA 4000_027BE 00000 25096  1                      FAIL  (PCB,NE,'PCB'),PCBERR17,'Dispatcher PCB error.'
1DISP     (DISP2193) (12:42) (15MAR04) WYLBUR's Dispatcher                                                                  Page   68
0Current Usings:  (PCB,R4) (PT,R5) (JCB,R6) (*,R7) (CP,R11) (CV,R12)
0Loc    Object Code    Addr1 Addr2  Stmt Lv Lineno    Source Statement           (Hibal 5, Asmedit 3.3)  HLASM R4.0  2004/03/15 12.42
+___    ______ ____    _____ _____  ____ __ ______    ______ _________
0                                  25125  1                      ¿þþþþþþþþþþþþþþþþþþþþþþþþþþþþþþþþþþþþþþÜ
                                   25126  1                      Ÿ  Must wait for I/O if I/O is going.  Ÿ
                                   25127  1                      ¾þþþþþþþþþþþþþþþþþþþþþþþþþþþþþþþþþþþþþþ»
 0023FE 9180 401D/47E0_0001D       25128  1                      IF    PCBFIO,BEGIN        Dispatcher will wait for I/O...
 002406 18F6/9610 F062_            25143  2                        SETUP (JCBR)
 00241C 41E0 7166/900F_      0242A 25169  2                        PAUSE ,                   A trip through the dispatcher
 00242A 5840 500C            0000C 25176  2                        L     R4,PTPCBP           (Dispatch could have changed PCB)
 00242E 9180 401D/47E0_0001D       25177  2                        FAIL  PCBFIO,PGETERR3,'PGET error.'
 00244E 47F0 720A            024CE 25204  2                        B     PGETDONE
 002452                            25205  1                      END
                                   25209  1                      ¿þþþþþþþþþþþþþþþþþþþþþþþþþþþþþþþþþþþþþþþþþþþÜ
                                   25210  1                      Ÿ  Take buffer off buffer queue and scram.  Ÿ
                                   25211  1                      ¾þþþþþþþþþþþþþþþþþþþþþþþþþþþþþþþþþþþþþþþþþþþ»
 002452 58F0 400C/5810_      0000C 25212  1                      QBUFOFF ,                 Take buffer off queue
                                   25224  1
 00246C 5890 4008            00008 25225  1                      L     PAR,PCBBUFP         Load page data ptr
 002470 47F0 7204            024C8 25226  1                      B     PGETCHK
 DROP   PCB,R4                     25227                       END
 DROP   PT,R5
                                   25241              ***
                                   25242              ***  Get a memory page.
                                   25243              ***
 002474 47B0 71EC            024B0 25244                       IF    NEG,BEGIN           Memory page...
 002478 5450 74DC            027A0 25255  1                      N     R5,=A(X'7FFFFFFF')  Positive for page address
                                   25256  1
 00247C 1995/4780 720A             25257  1                      IF    (PAR,EQ,R5),PGETDONE  Already set, scram
                                   25275  1
 002482 58E0 74BC/0DEE       02780 25276  1                      PFREE PAR                 Free previous page
 002488 D603 6040 6040_00040 00040 25282  1                      FAIL  (JCBPTA,NZ),PGETERR4,'PGET error.'
                                   25310  1                      ¿þþþþþþþþþþþþþþþþþþþþþþþþþþþþþþþþþþþþþþþþþþþþþþþþþþþþþþþþþþþþþÜ
                                   25311  1                      Ÿ  Note:  For memory pages, JCBPTA is zero because memory     Ÿ
                                   25312  1                      Ÿ    pages exist in memory only and are never moved or paged  Ÿ
                                   25313  1                      Ÿ    out by WYLBUR.  Hence the dispatcher does not need to    Ÿ
                                   25314  1                      Ÿ    worry about re-locating the page register when it is     Ÿ
                                   25315  1                      Ÿ    pointing to a memory page.                               Ÿ
                                   25316  1                      ¾þþþþþþþþþþþþþþþþþþþþþþþþþþþþþþþþþþþþþþþþþþþþþþþþþþþþþþþþþþþþþ»
 0024AA 1895                       25317  1                      LR    PAR,R5              Set page data ptr
                                   25318  1                      ¿þþþþþþþþþþþþþþþþþþþþþþþþþþþþþþþþþþþþþþþþþþþþþþþþþþþþþþþþþþþþþþÜ
                                   25319  1                      Ÿ  When getting a memory page it is important to never return  Ÿ
                                   25320  1                      Ÿ    to through the WYLBUR dispatcher (i.e., don't call        Ÿ
                                   25321  1                      Ÿ    SLICECHK).  This is so that the higher level logic won't  Ÿ
                                   25322  1                      Ÿ    have to worry about being interrupted in the middle of a  Ÿ
                                   25323  1                      Ÿ    low level operation.  See comments in RECS for a more     Ÿ
                                   25324  1                      Ÿ    detailed discussion of the possible pitfalls.             Ÿ
                                   25325  1                      ¾þþþþþþþþþþþþþþþþþþþþþþþþþþþþþþþþþþþþþþþþþþþþþþþþþþþþþþþþþþþþþþ»
 0024AC 47F0 720A            024CE 25326  1                      B     PGETDONE
 0024B0                            25327                       END
                                   25331              ***
                                   25332              ***  Page number is zero.
                                   25333              ***
 0024B0 900F C780/4DE0_      00780 25334                       KAPUT PGETERR5,'PGET error.'
                                   25341
 0024C8 58E0 74E0/0DEE       027A4 25342              PGETCHK  ACALL SLICECHK            Check for timeslice expiration
 0024CE                            25346              PGETDONE LABEL ,
1DISP     (DISP2193) (12:42) (15MAR04) WYLBUR's Dispatcher                                                                  Page   69
0Current Usings:  (JCB,R6) (*,R7) (CP,R11) (CV,R12)
0Loc    Object Code    Addr1 Addr2  Stmt Lv Lineno    Source Statement           (Hibal 5, Asmedit 3.3)  HLASM R4.0  2004/03/15 12.42
+___    ______ ____    _____ _____  ____ __ ______    ______ _________
00024CE 4199 0000            00000 25348                       LA    PAR,0(PAR)          Return positive page address
 0024D2 1BFF                       25349                       CLEAR R15                 Return good CC
 0024D4 18D8/9808 D004_            25353                       PEND
 DROP   JCB,R6
 DROP   *,R7
1DISP     (DISP2193) (12:42) (15MAR04) WYLBUR's Dispatcher                                                                  Page   70
0Current Usings:  (CP,R11) (CV,R12)
0Loc    Object Code    Addr1 Addr2  Stmt Lv Lineno    Source Statement           (Hibal 5, Asmedit 3.3)  HLASM R4.0  2004/03/15 12.42
+___    ______ ____    _____ _____  ____ __ ______    ______ _________
0                                  25379              ¿þþþþþþþþþþþþþþþþþþþþþþþþþþþþþþþþþþþþþþþþþþþþþþþþþþþþþþþþþþþþþþþþþþþþþÜ
                                   25380              Ÿ                                                                     Ÿ
                                   25381              Ÿ  PGETB -- Routine to get a page in PBR.                             Ÿ
                                   25382              Ÿ                                                                     Ÿ
                                   25383              Ÿ    On entry:                                                        Ÿ
                                   25384              Ÿ      R0 - page-number of page to get                                Ÿ
                                   25385              Ÿ                                                                     Ÿ
                                   25386              Ÿ    On exit, R15 (and cc):                                           Ÿ
                                   25387              Ÿ      0 - ok (PBR = page data ptr)                                   Ÿ
                                   25388              Ÿ                                                                     Ÿ
                                                      ¾þþþþþþþþþþþþþþþþþþþþþþþþþþþþþþþþþþþþþþþþþþþþþþþþþþþþþþþþþþþþþþþþþþþþþ»
00024E2 50E0 D000/9008_      00000 25389              PGETB    XPROC
 USING  *,R7
 0024FC 50F0 D000/58F0_      00000 25429                       PFLIP ,                   Flip current PAR in PBR
 USING  JCB,R15
 DROP   JCB,R15
 002520 58E0 72AC/0DEE       027A8 25470                       ACALL PGETA               Get page in PAR
 002526 50F0 D000/58F0_      00000 25474                       PFLIP ,                   Switch back
 USING  JCB,R15
 DROP   JCB,R15
 00254A 18D8/9808 D004_            25515                       PEND
 DROP   *,R7
1DISP     (DISP2193) (12:42) (15MAR04) WYLBUR's Dispatcher                                                                  Page   71
0Current Usings:  (CP,R11) (CV,R12)
0Loc    Object Code    Addr1 Addr2  Stmt Lv Lineno    Source Statement           (Hibal 5, Asmedit 3.3)  HLASM R4.0  2004/03/15 12.42
+___    ______ ____    _____ _____  ____ __ ______    ______ _________
0                                  25536              ¿þþþþþþþþþþþþþþþþþþþþþþþþþþþþþþþþþþþþþþþþþþþþþþþþþþþþþþþþþþþþþþþþþþþþþÜ
                                   25537              Ÿ                                                                     Ÿ
                                   25538              Ÿ  PNUMA -- Routine to return PAR's page number (or zero).            Ÿ
                                   25539              Ÿ                                                                     Ÿ
                                   25540              Ÿ    On exit:                                                         Ÿ
                                   25541              Ÿ      R0 - pageno                                                    Ÿ
                                   25542              Ÿ                                                                     Ÿ
                                                      ¾þþþþþþþþþþþþþþþþþþþþþþþþþþþþþþþþþþþþþþþþþþþþþþþþþþþþþþþþþþþþþþþþþþþþþ»
0002558 50E0 D000/9008_      00000 25543              PNUMA    XPROC
 USING  *,R7
 002572 5860 C1C8            001C8 25583                       L     JCBR,CVCURJCB
 USING  JCB,R6                     25584                       WITH  JCB
                                   25596
 002576 5820 6040/1222       00040 25597                       LT    R2,JCBPTA
 00257C 4780 7012            02584 25601                       IF    NZ,BEGIN            Regular page...
 USING  PT,R2                      25612  1                      WITH  (PT,R2)
 002580 5800 2000            00000 25625  1                      L     R0,PTPNO            Return pageno
 DROP   PT,R2                      25626                       END
                                   25635
 002584 7016/47F0 7020 02584 0257E 25636                       ELSE  BEGIN               Memory/no page...
 002588 1209                       25647  1                      LTR   R0,PAR
 00258A 4780 7020            02592 25648  1                      IF    NZ,BEGIN            Pageno is addr with hi-bit on
 00258E 5600 7216            02788 25659  2                        O     R0,=A(X'80000000')
 002592                            25660  1                      END
 002592                            25664                       END
                                   25668
 002592 5008 0004            00004 25669                       PRETURN (R0)
 002596 18D8/9808 D004_            25671                       PEND
 DROP   JCB,R6
 DROP   *,R7
1DISP     (DISP2193) (12:42) (15MAR04) WYLBUR's Dispatcher                                                                  Page   72
0Current Usings:  (CP,R11) (CV,R12)
0Loc    Object Code    Addr1 Addr2  Stmt Lv Lineno    Source Statement           (Hibal 5, Asmedit 3.3)  HLASM R4.0  2004/03/15 12.42
+___    ______ ____    _____ _____  ____ __ ______    ______ _________
0                                  25697              ¿þþþþþþþþþþþþþþþþþþþþþþþþþþþþþþþþþþþþþþþþþþþþþþþþþþþþþþþþþþþþþþþþþþþþþÜ
                                   25698              Ÿ                                                                     Ÿ
                                   25699              Ÿ  PNUMB -- Routine to return PBR's page number (or zero).            Ÿ
                                   25700              Ÿ                                                                     Ÿ
                                   25701              Ÿ    On exit:                                                         Ÿ
                                   25702              Ÿ      R0 - pageno                                                    Ÿ
                                   25703              Ÿ                                                                     Ÿ
                                                      ¾þþþþþþþþþþþþþþþþþþþþþþþþþþþþþþþþþþþþþþþþþþþþþþþþþþþþþþþþþþþþþþþþþþþþþ»
00025A4 50E0 D000/9008_      00000 25704              PNUMB    XPROC
 USING  *,R7
 0025BE 5860 C1C8            001C8 25744                       L     JCBR,CVCURJCB
 USING  JCB,R6                     25745                       WITH  JCB
                                   25757
 0025C2 5820 6044/1222       00044 25758                       LT    R2,JCBPTB
 0025C8 4780 7012            025D0 25762                       IF    NZ,BEGIN            Regular page...
 USING  PT,R2                      25773  1                      WITH  (PT,R2)
 0025CC 5800 2000            00000 25786  1                      L     R0,PTPNO            Return pageno
 DROP   PT,R2                      25787                       END
                                   25796
 0025D0 7016/47F0 7020 025D0 025CA 25797                       ELSE  BEGIN               Memory/no page...
 0025D4 120A                       25808  1                      LTR   R0,PBR
 0025D6 4780 7020            025DE 25809  1                      IF    NZ,BEGIN            Pageno is addr with hi-bit on
 0025DA 5600 71CA            02788 25820  2                        O     R0,=A(X'80000000')
 0025DE                            25821  1                      END
 0025DE                            25825                       END
                                   25829
 0025DE 5008 0004            00004 25830                       PRETURN (R0)
 0025E2 18D8/9808 D004_            25832                       PEND
 DROP   JCB,R6
 DROP   *,R7
1DISP     (DISP2193) (12:42) (15MAR04) WYLBUR's Dispatcher                                                                  Page   73
0Current Usings:  (CP,R11) (CV,R12)
0Loc    Object Code    Addr1 Addr2  Stmt Lv Lineno    Source Statement           (Hibal 5, Asmedit 3.3)  HLASM R4.0  2004/03/15 12.42
+___    ______ ____    _____ _____  ____ __ ______    ______ _________
0                                  25858              ¿þþþþþþþþþþþþþþþþþþþþþþþþþþþþþþþþþþþþþþþþþþþþþþþþþþþþþþþþþþþþþþþþþþþþþÜ
                                   25859              Ÿ                                                                     Ÿ
                                   25860              Ÿ                                                                     Ÿ
                                   25861              Ÿ  PCHK -- Routine to check the validity of a page number.            Ÿ
                                   25862              Ÿ                                                                     Ÿ
                                   25863              Ÿ                                                                     Ÿ
                                   25864              Ÿ  On Entry:                                                          Ÿ
                                   25865              Ÿ       R0 - page number to check                                     Ÿ
                                   25866              Ÿ                                                                     Ÿ
                                   25867              Ÿ  On exit:                                                           Ÿ
                                   25868              Ÿ       R15 - cc=zero, if page number ok                              Ÿ
                                   25869              Ÿ             cc=nz, if invalid page number                           Ÿ
                                   25870              Ÿ                                                                     Ÿ
                                   25871              Ÿ   Note: we check to see that page number is not too big             Ÿ
                                   25872              Ÿ         or too small, that it is owned, and owned by caller         Ÿ
                                   25873              Ÿ         of this routine.  no more.                                  Ÿ
                                   25874              Ÿ                                                                     Ÿ
                                   25875              Ÿ                                                                     Ÿ
                                                      ¾þþþþþþþþþþþþþþþþþþþþþþþþþþþþþþþþþþþþþþþþþþþþþþþþþþþþþþþþþþþþþþþþþþþþþ»
00025F0 50E0 D000/9008_      00000 25876              PCHK     XPROC
 USING  *,R7
 00260A 41F0 0004            00004 25916                       LA    R15,4               assume page number invalid
                                   25917
 00260E 1200/47D0 7032_            25918                       IF    ((R0,POS),AND,(R0,LE,CVMAXPNO)),BEGIN
 00261C 1810                       25948  1                      LR    R1,R0
 00261E 8910 0004/5E10_      00004 25949  1                      GETPT R1                  Get PT entry ptr
 USING  PT,R1                      25952  1                      WITH  (PT,R1)
 002626 D603 1008 1008_00008 00008 25965  1                      IF    (PTFREE,NZ),BEGIN           If not free
 002630 D503 1008 C1C8_00008 001C8 25981  2                        IF    (PTJCBP,EQ,CVCURJCB),BEGIN    If owned by caller
 00263A 1BFF                       25999  3                          CLEAR R15                              Page number ok.
 00263C                            26003  2                        END
 00263C                            26007  1                      END
 DROP   PT,R1                      26011                       END
                                   26020
 00263C 18D8/9808 D004_            26021                       PEND
 DROP   *,R7
1DISP     (DISP2193) (12:42) (15MAR04) WYLBUR's Dispatcher                                                                  Page   74
0Current Usings:  (CP,R11) (CV,R12)
0Loc    Object Code    Addr1 Addr2  Stmt Lv Lineno    Source Statement           (Hibal 5, Asmedit 3.3)  HLASM R4.0  2004/03/15 12.42
+___    ______ ____    _____ _____  ____ __ ______    ______ _________
0                                  26042              ¿þþþþþþþþþþþþþþþþþþþþþþþþþþþþþþþþþþþþþþþþþþþþþþþþþþþþþþþþþþþþþþþþþþþþþÜ
                                   26043              Ÿ                                                                     Ÿ
                                   26044              Ÿ  PTEMP -- Routine to put pageno in temporary directory.             Ÿ
                                   26045              Ÿ                                                                     Ÿ
                                   26046              Ÿ    On entry:                                                        Ÿ
                                   26047              Ÿ      R0 - pageno                                                    Ÿ
                                   26048              Ÿ                                                                     Ÿ
                                                      ¾þþþþþþþþþþþþþþþþþþþþþþþþþþþþþþþþþþþþþþþþþþþþþþþþþþþþþþþþþþþþþþþþþþþþþ»
000264A 50E0 D000/9028_      00000 26049              PTEMP    XENTER
 USING  *,R7
 002664 1200/4780 702A             26068                       IF    (R0,NZ),BEGIN
 00266A 4820 B920            00920 26082  1                      LH    R2,CPTEMPNP         Current dir offset
 00266E 5920 7148/47B0_      027AC 26083  1                      IF    (R2,LT,CPTEMPP#*2),BEGIN  We have room...
 002676 4002 B922            00922 26100  2                        STH   R0,CPTEMPPG(R2)
 00267A 4120 2002            00002 26101  2                        LA    R2,@R2+2
 00267E 4020 B920            00920 26102  2                        STH   R2,CPTEMPNP
 002682                            26103  1                      END
 002682 7022/47F0 702A 02682 02674 26107  1                      ELSE  BEGIN               No more room...
 002686 58E0 714C/0DEE       027B0 26118  2                        PJUNK (R0)
 00268C 1B00                       26126  2                        CLEAR R0
 00268E                            26130  1                      END
 00268E                            26134                       END
 00268E 1200                       26138                       LTR   R0,R0               Set cc
 002690 18D8/58E0 D000_            26139                       XEXIT
 DROP   *,R7                       26144                       DROP  BR
1DISP     (DISP2193) (12:42) (15MAR04) WYLBUR's Dispatcher                                                                  Page   75
0Current Usings:  (CP,R11) (CV,R12)
0Loc    Object Code    Addr1 Addr2  Stmt Lv Lineno    Source Statement           (Hibal 5, Asmedit 3.3)  HLASM R4.0  2004/03/15 12.42
+___    ______ ____    _____ _____  ____ __ ______    ______ _________
0                                  26152              ¿þþþþþþþþþþþþþþþþþþþþþþþþþþþþþþþþþþþþþþþþþþþþþþþþþþþþþþþþþþþþþþþþþþþþþÜ
                                   26153              Ÿ                                                                     Ÿ
                                   26154              Ÿ  PUNTEMP -- Routine to remove pageno from temporary directory.      Ÿ
                                   26155              Ÿ                                                                     Ÿ
                                   26156              Ÿ    On entry:                                                        Ÿ
                                   26157              Ÿ      R0 - pageno                                                    Ÿ
                                   26158              Ÿ                                                                     Ÿ
                                                      ¾þþþþþþþþþþþþþþþþþþþþþþþþþþþþþþþþþþþþþþþþþþþþþþþþþþþþþþþþþþþþþþþþþþþþþ»
000269C 50E0 D000/9028_      00000 26159              PUNTEMP  XENTER
 USING  *,R7
 0026B6 1B22                       26178                       CLEAR R2
 0026B8 4850 B920            00920 26182                       LH    R5,CPTEMPNP
 0026BC 1835                       26183                       LR    R3,R5
 0026BE 4B30 7104            027BA 26184                       SH    R3,=AL2(2+1)        Remaining len-1 (for MVC)
 0026C2 1925/47B0 7048             26185                       WHILE (R2,LT,R5),BEGIN    Loop thru all temp pages
 0026C8 41F2 B922            00922 26202  1                      LA    R15,CPTEMPPG(R2)
 0026CC 1F44/BF43 F000             26203  1                      L2    R4,@R15             R4 - temp pageno entry
 0026D2 1904/4770 703C             26211  1                      IF    (R0,EQ,R4),BEGIN    If correct entry, delete from list
 0026D8 41F2 B922            00922 26226  2                        LA    R15,CPTEMPPG(R2)
 0026DC 1233/47D0 7030_            26227  2                        IF    (R3,POS),'EX R3,"MVC @R15(0),@R15+2"'
 0026E6 4B50 7106            027BC 26262  2                        SH    R5,=AL2(2)
 0026EA 4050 B920            00920 26263  2                        STH   R5,CPTEMPNP
 0026EE 47F0 7060            02716 26264  2                        B     PUNTEXIT
 0026F2                            26265  1                      END
 0026F2 4120 2002            00002 26269  1                      LA    R2,@R2+2
 0026F6 4B30 7106            027BC 26270  1                      SH    R3,=AL2(2)
 0026FA 47F0 700C            026C2 26271                       END
 0026FE 900F C780/4DE0_      00780 26276                       KAPUT PUNTERR,'PUNTEMP logic error.'
 002716 18D8/58E0 D000_            26283              PUNTEXIT XEXIT
 DROP   *,R7                       26288                       DROP  BR
1DISP     (DISP2193) (12:42) (15MAR04) WYLBUR's Dispatcher                                                                  Page   76
0Current Usings:  (CP,R11) (CV,R12)
0Loc    Object Code    Addr1 Addr2  Stmt Lv Lineno    Source Statement           (Hibal 5, Asmedit 3.3)  HLASM R4.0  2004/03/15 12.42
+___    ______ ____    _____ _____  ____ __ ______    ______ _________
0                                  26296              ¿þþþþþþþþþþþþþþþþþþþþþþþþþþþþþþþþþþþþþþþþþþþþþþþþþþþþþþþþþþþþþþþþþþþþþÜ
                                   26297              Ÿ                                                                     Ÿ
                                   26298              Ÿ  PJNKTMP -- Routine to junk pageno in temporary directory.          Ÿ
                                   26299              Ÿ                                                                     Ÿ
                                                      ¾þþþþþþþþþþþþþþþþþþþþþþþþþþþþþþþþþþþþþþþþþþþþþþþþþþþþþþþþþþþþþþþþþþþþþ»
0002722 50E0 D000/9028_      00000 26300              PJNKTMP  XENTER
 USING  *,R7
 00273C 58E0 7044/0DEE       02780 26319                       PFREE PAR
 002742 58E0 7078/0DEE       027B4 26325                       PFREE PBR
 002748 1B22                       26331                       CLEAR R2
 00274A 4920 B920/47B0_      00920 26335                       WHILE (R2,LT,CPTEMPNP),BEGIN
 002752 4132 B922            00922 26354  1                      LA    R3,CPTEMPPG(R2)
 002756 1F00/BF03 3000_            26355  1                      PJUNK L2:@R3
 002762 4120 2002            00002 26368  1                      LA    R2,@R2+2
 002766 47F0 700E            0274A 26369                       END
 00276A D701 B920 B920 00920 00920 26374                       CLEAR CPTEMPNP
 002770 18D8/58E0 D000_            26381                       XEXIT
 DROP   *,R7                       26386                       DROP  BR
                                   26393
                                   26394                       QLTORG
1DISP     (DISP2193) (12:42) (15MAR04) WYLBUR's Dispatcher                                                                  Page   77
0Current Usings:  (CP,R11) (CV,R12)
0Loc    Object Code    Addr1 Addr2  Stmt Lv Lineno    Source Statement           (Hibal 5, Asmedit 3.3)  HLASM R4.0  2004/03/15 12.42
+___    ______ ____    _____ _____  ____ __ ______    ______ _________
0                                  26425              ¿þþþþþþþþþþþþþþþþþþþþþþþþþþþþþþþþþþþþþþþþþþþþþþþþþþþþþþþþþþþþþþþþþþþþþÜ
                                   26426              Ÿ                                                                     Ÿ
                                   26427              Ÿ  PMARKA -- Routine to mark PAR page as changed.                     Ÿ
                                   26428              Ÿ                                                                     Ÿ
                                                      ¾þþþþþþþþþþþþþþþþþþþþþþþþþþþþþþþþþþþþþþþþþþþþþþþþþþþþþþþþþþþþþþþþþþþþþ»
00027C8 50E0 D000/9008_      00000 26429              PMARKA   XPROC
 USING  *,R7
 0027E2 5860 C1C8            001C8 26469                       L     JCBR,CVCURJCB       Are we running in user mode?
 USING  JCB,R6                     26470                       WITH  JCB
                                   26482
 0027E6 5820 6040/1222       00040 26483                       LT    R2,JCBPTA           Is there a PAR buffer?
 0027EC 4780 7048            0282A 26487                       IF    NZ,BEGIN            Yes...
 0027F0 5840 200C            0000C 26498  1                      WITH  (PT,R2),'L R4,PTPCBP'  Get page's PCB ptr
 USING  PT,R2
 DROP   PT,R2
 USING  PCB,R4                     26522  1                      WITH  (PCB,R4)
 0027F4 D502 7CC6 4000_034A8 00000 26535  1                      FAIL  (PCB,NE,'PCB'),PCBERR12,'Dispatcher PCB error.'
                                   26564  1
 002816 9120 401D/4710_0001D       26565  1                      IF    ~PCBFMARK,BEGIN     Not yet marked...
 00281E 9620 401D      0001D       26580  2                        SET   PCBFMARK            Mark as changed
                                   26586  2                        ¿þþþþþþþþþþþþþþþþþþþþþþþþþþþþþþþþþþþþþþþþþþþþþþþþþþþþþþþþþþÜ
                                   26587  2                        Ÿ  Keep track of when the first change in a recovery page  Ÿ
                                   26588  2                        Ÿ    happens.                                              Ÿ
                                   26589  2                        ¾þþþþþþþþþþþþþþþþþþþþþþþþþþþþþþþþþþþþþþþþþþþþþþþþþþþþþþþþþþ»
 002822 5850 4008            00008 26590  2                        L     R5,PCBBUFP
 002826 4B50 7CBE            034A0 26591  2                        SH    R5,=AL2(PBUFUSER-PBUF)
 USING  PBUF,R5                    26592  2                        WITH  (PBUF,R5)
 DROP   PBUF,R5                    26605  1                      END
 DROP   PCB,R4                     26614                       END
                                   26623
 00282A 18D8/9808 D004_            26624                       PEND
 DROP   JCB,R6
 DROP   *,R7
1DISP     (DISP2193) (12:42) (15MAR04) WYLBUR's Dispatcher                                                                  Page   78
0Current Usings:  (CP,R11) (CV,R12)
0Loc    Object Code    Addr1 Addr2  Stmt Lv Lineno    Source Statement           (Hibal 5, Asmedit 3.3)  HLASM R4.0  2004/03/15 12.42
+___    ______ ____    _____ _____  ____ __ ______    ______ _________
0                                  26650              ¿þþþþþþþþþþþþþþþþþþþþþþþþþþþþþþþþþþþþþþþþþþþþþþþþþþþþþþþþþþþþþþþþþþþþþÜ
                                   26651              Ÿ                                                                     Ÿ
                                   26652              Ÿ  PMARKB -- Routine to mark PBR page as changed.                     Ÿ
                                   26653              Ÿ                                                                     Ÿ
                                                      ¾þþþþþþþþþþþþþþþþþþþþþþþþþþþþþþþþþþþþþþþþþþþþþþþþþþþþþþþþþþþþþþþþþþþþþ»
0002838 50E0 D000/9008_      00000 26654              PMARKB   XPROC
 USING  *,R7
 002852 50F0 D000/58F0_      00000 26694                       PFLIP ,                   Flip PAR and PBR
 USING  JCB,R15
 DROP   JCB,R15
 002876 58E0 7C16/0DEE       03468 26735                       ACALL PMARKA              Mark PAR (formerly PBR)
 00287C 50F0 D000/58F0_      00000 26739                       PFLIP ,                   Flip back
 USING  JCB,R15
 DROP   JCB,R15
 0028A0 18D8/9808 D004_            26780                       PEND
 DROP   *,R7
1DISP     (DISP2193) (12:42) (15MAR04) WYLBUR's Dispatcher                                                                  Page   79
0Current Usings:  (CP,R11) (CV,R12)
0Loc    Object Code    Addr1 Addr2  Stmt Lv Lineno    Source Statement           (Hibal 5, Asmedit 3.3)  HLASM R4.0  2004/03/15 12.42
+___    ______ ____    _____ _____  ____ __ ______    ______ _________
0                                  26801              ¿þþþþþþþþþþþþþþþþþþþþþþþþþþþþþþþþþþþþþþþþþþþþþþþþþþþþþþþþþþþþþþþþþþþþþÜ
                                   26802              Ÿ                                                                     Ÿ
                                   26803              Ÿ  PLOCKA -- Routine to mark PAR page as unmovable.                   Ÿ
                                   26804              Ÿ                                                                     Ÿ
                                                      ¾þþþþþþþþþþþþþþþþþþþþþþþþþþþþþþþþþþþþþþþþþþþþþþþþþþþþþþþþþþþþþþþþþþþþþ»
00028AE 50E0 D000/9008_      00000 26805              PLOCKA   XPROC
 USING  *,R7
 0028C8 5860 C1C8            001C8 26845                       L     JCBR,CVCURJCB
 USING  JCB,R6                     26846                       WITH  JCB
                                   26858
 0028CC 5820 6040/1222       00040 26859                       LT    R2,JCBPTA           Is there a PAR buffer?
 0028D2 4780 7038            02900 26863                       IF    NZ,BEGIN            Yes...
 0028D6 5840 200C            0000C 26874  1                      WITH  (PT,R2),'L R4,PTPCBP'  Get page's PCB ptr
 USING  PT,R2
 DROP   PT,R2
 USING  PCB,R4                     26898  1                      WITH  (PCB,R4)
 0028DA D502 7BE0 4000_034A8 00000 26911  1                      FAIL  (PCB,NE,'PCB'),PCBERR99,'Dispatcher PCB error.'
                                   26940  1
 0028FC 9608 401D      0001D       26941  1                      SET   PCBFLOCK            Lock page buffer in place
 DROP   PCB,R4                     26947                       END
 002900 18D8/9808 D004_            26956                       PEND
 DROP   JCB,R6
 DROP   *,R7
-                                  26982              ¿þþþþþþþþþþþþþþþþþþþþþþþþþþþþþþþþþþþþþþþþþþþþþþþþþþþþþþþþþþþþþþþþþþþþþÜ
                                   26983              Ÿ                                                                     Ÿ
                                   26984              Ÿ  PLOCKB -- Routine to mark PBR page as unmovable.                   Ÿ
                                   26985              Ÿ                                                                     Ÿ
                                                      ¾þþþþþþþþþþþþþþþþþþþþþþþþþþþþþþþþþþþþþþþþþþþþþþþþþþþþþþþþþþþþþþþþþþþþþ»
000290E 50E0 D000/9008_      00000 26986              PLOCKB   XPROC
 USING  *,R7
 002928 50F0 D000/58F0_      00000 27026                       PFLIP ,
 USING  JCB,R15
 DROP   JCB,R15
 00294C 58E0 7B44/0DEE       0346C 27067                       VCALL PLOCKA
 002952 50F0 D000/58F0_      00000 27071                       PFLIP ,
 USING  JCB,R15
 DROP   JCB,R15
 002976 18D8/9808 D004_            27112                       PEND
 DROP   *,R7
1DISP     (DISP2193) (12:42) (15MAR04) WYLBUR's Dispatcher                                                                  Page   80
0Current Usings:  (CP,R11) (CV,R12)
0Loc    Object Code    Addr1 Addr2  Stmt Lv Lineno    Source Statement           (Hibal 5, Asmedit 3.3)  HLASM R4.0  2004/03/15 12.42
+___    ______ ____    _____ _____  ____ __ ______    ______ _________
0                                  27133              ¿þþþþþþþþþþþþþþþþþþþþþþþþþþþþþþþþþþþþþþþþþþþþþþþþþþþþþþþþþþþþþþþþþþþþþÜ
                                   27134              Ÿ                                                                     Ÿ
                                   27135              Ÿ  PUNLOCKA -- Routine to mark PAR page as movable again.             Ÿ
                                   27136              Ÿ                                                                     Ÿ
                                                      ¾þþþþþþþþþþþþþþþþþþþþþþþþþþþþþþþþþþþþþþþþþþþþþþþþþþþþþþþþþþþþþþþþþþþþþ»
0002984 50E0 D000/9008_      00000 27137              PUNLOCKA XPROC
 USING  *,R7
 00299E 5860 C1C8            001C8 27177                       L     JCBR,CVCURJCB
 USING  JCB,R6                     27178                       WITH  JCB
                                   27190
 0029A2 5820 6040/1222       00040 27191                       LT    R2,JCBPTA           Is there a PAR buffer?
 0029A8 4780 7038            029D6 27195                       IF    NZ,BEGIN            Yes...
 0029AC 5840 200C            0000C 27206  1                      WITH  (PT,R2),'L R4,PTPCBP'  Get page's PCB ptr
 USING  PT,R2
 DROP   PT,R2
 USING  PCB,R4                     27230  1                      WITH  (PCB,R4)
 0029B0 D502 7B0A 4000_034A8 00000 27243  1                      FAIL  (PCB,NE,'PCB'),PCBERR98,'Dispatcher PCB error.'
                                   27272  1
 0029D2 94F7 401D      0001D       27273  1                      CLEAR PCBFLOCK            Clear buffer lock
 DROP   PCB,R4                     27280                       END
 0029D6 18D8/9808 D004_            27289                       PEND
 DROP   JCB,R6
 DROP   *,R7
-                                  27315              ¿þþþþþþþþþþþþþþþþþþþþþþþþþþþþþþþþþþþþþþþþþþþþþþþþþþþþþþþþþþþþþþþþþþþþþÜ
                                   27316              Ÿ                                                                     Ÿ
                                   27317              Ÿ  PUNLOCKB -- Routine to mark PBR page as movable again.             Ÿ
                                   27318              Ÿ                                                                     Ÿ
                                                      ¾þþþþþþþþþþþþþþþþþþþþþþþþþþþþþþþþþþþþþþþþþþþþþþþþþþþþþþþþþþþþþþþþþþþþþ»
00029E4 50E0 D000/9008_      00000 27319              PUNLOCKB XPROC
 USING  *,R7
 0029FE 50F0 D000/58F0_      00000 27359                       PFLIP ,
 USING  JCB,R15
 DROP   JCB,R15
 002A22 58E0 7A72/0DEE       03470 27400                       VCALL PUNLOCKA
 002A28 50F0 D000/58F0_      00000 27404                       PFLIP ,
 USING  JCB,R15
 DROP   JCB,R15
 002A4C 18D8/9808 D004_            27445                       PEND
 DROP   *,R7
1DISP     (DISP2193) (12:42) (15MAR04) WYLBUR's Dispatcher                                                                  Page   81
0Current Usings:  (CP,R11) (CV,R12)
0Loc    Object Code    Addr1 Addr2  Stmt Lv Lineno    Source Statement           (Hibal 5, Asmedit 3.3)  HLASM R4.0  2004/03/15 12.42
+___    ______ ____    _____ _____  ____ __ ______    ______ _________
0                                  27466              ¿þþþþþþþþþþþþþþþþþþþþþþþþþþþþþþþþþþþþþþþþþþþþþþþþþþþþþþþþþþþþþþþþþþþþþÜ
                                   27467              Ÿ                                                                     Ÿ
                                   27468              Ÿ  PTYPEA -- Routine to set the page type of the PAR page.            Ÿ
                                   27469              Ÿ                                                                     Ÿ
                                   27470              Ÿ    On entry:                                                        Ÿ
                                   27471              Ÿ      R1 - 4 char page type (complemented if RECOVERY=YES)           Ÿ
                                   27472              Ÿ                                                                     Ÿ
                                                      ¾þþþþþþþþþþþþþþþþþþþþþþþþþþþþþþþþþþþþþþþþþþþþþþþþþþþþþþþþþþþþþþþþþþþþþ»
0002A5A 50E0 D000/9008_      00000 27473              PTYPEA   XPROC
 USING  *,R7
 002A74 5860 C1C8            001C8 27513                       L     JCBR,CVCURJCB
 USING  JCB,R6                     27514                       WITH  JCB
                                   27526
 002A78 5820 6040/1222       00040 27527                       LT    R2,JCBPTA           Do we have a page A?
 002A7E 4780 708E            02B02 27531                       IF    NZ,BEGIN            Yes...
 002A82 5840 200C            0000C 27542  1                      WITH  (PT,R2),'L R4,PTPCBP'  Get PCB ptr
 USING  PT,R2
 DROP   PT,R2
                                   27566  1
 USING  PCB,R4                     27567  1                      WITH  (PCB,R4)
 002A86 D502 7A34 4000_034A8 00000 27580  1                      FAIL  (PCB,NE,'PCB'),PCBERR97,'Dispatcher PCB error.'
                                   27609  1
 002AA8 5850 4008            00008 27610  1                      L     R5,PCBBUFP
 002AAC 1959/4780 7056_            27611  1                      FAIL  (R5,NE,PAR),PTYPEX,'PTYPE logic error.'
 002ACA 4B50 7A2C            034A0 27638  1                      SH    R5,=AL2(PBUFUSER-PBUF)  Backup to PBUF proper
 USING  PBUF,R5                    27639  1                      WITH  (PBUF,R5)
 002ACE D503 7A00 5000_03474 00000 27652  1                      FAIL  (PBUF,NE,'PBUF'),PBUFERR1,'Dispatcher PBUF error.'
                                   27681  1
 002AF0 1211/47B0 7088             27682  1                      IF    (R1,NEG),BEGIN
 002AF6 9680 506C      0006C       27696  2                        SET   PBUFFRCV            Page is needed for recovery
 002AFA 1311                       27702  2                        LCR   R1,R1
 002AFC                            27703  1                      END
                                   27707  1
 002AFC D203 5068 1000 00068 00000 27708  1                      MVC   PBUFID,@R1          Save page type
 DROP   PBUF,R5                    27709                       END
 DROP   PCB,R4
 002B02 18D8/9808 D004_            27723                       PEND
 DROP   JCB,R6
 DROP   *,R7
1DISP     (DISP2193) (12:42) (15MAR04) WYLBUR's Dispatcher                                                                  Page   82
0Current Usings:  (CP,R11) (CV,R12)
0Loc    Object Code    Addr1 Addr2  Stmt Lv Lineno    Source Statement           (Hibal 5, Asmedit 3.3)  HLASM R4.0  2004/03/15 12.42
+___    ______ ____    _____ _____  ____ __ ______    ______ _________
0                                  27749              ¿þþþþþþþþþþþþþþþþþþþþþþþþþþþþþþþþþþþþþþþþþþþþþþþþþþþþþþþþþþþþþþþþþþþþþÜ
                                   27750              Ÿ                                                                     Ÿ
                                   27751              Ÿ  PTYPEB -- Routine to set the page type of the PBR page.            Ÿ
                                   27752              Ÿ                                                                     Ÿ
                                   27753              Ÿ    On entry:                                                        Ÿ
                                   27754              Ÿ      R1 - 4 char page type (complemented if RECOVERY=YES)           Ÿ
                                   27755              Ÿ                                                                     Ÿ
                                                      ¾þþþþþþþþþþþþþþþþþþþþþþþþþþþþþþþþþþþþþþþþþþþþþþþþþþþþþþþþþþþþþþþþþþþþþ»
0002B10 50E0 D000/9008_      00000 27756              PTYPEB   XPROC
 USING  *,R7
 002B2A 50F0 D000/58F0_      00000 27796                       PFLIP ,
 USING  JCB,R15
 DROP   JCB,R15
 002B4E 58E0 794E/0DEE       03478 27837                       VCALL PTYPEA
 002B54 50F0 D000/58F0_      00000 27841                       PFLIP ,
 USING  JCB,R15
 DROP   JCB,R15
 002B78 18D8/9808 D004_            27882                       PEND
 DROP   *,R7
1DISP     (DISP2193) (12:42) (15MAR04) WYLBUR's Dispatcher                                                                  Page   83
0Current Usings:  (CP,R11) (CV,R12)
0Loc    Object Code    Addr1 Addr2  Stmt Lv Lineno    Source Statement           (Hibal 5, Asmedit 3.3)  HLASM R4.0  2004/03/15 12.42
+___    ______ ____    _____ _____  ____ __ ______    ______ _________
0                                  27903              ¿þþþþþþþþþþþþþþþþþþþþþþþþþþþþþþþþþþþþþþþþþþþþþþþþþþþþþþþþþþþþþþþþþþþþþÜ
                                   27904              Ÿ                                                                     Ÿ
                                   27905              Ÿ  PDEBUG -- Local routine used only for debugging test systems.      Ÿ
                                   27906              Ÿ    This routine moves the user's PAR and PBR page pointers to       Ÿ
                                   27907              Ÿ    a new location every time it is called.  This helps to           Ÿ
                                   27908              Ÿ    discover situations where a page pointer COULD change in a       Ÿ
                                   27909              Ÿ    heavily loaded system.                                           Ÿ
                                   27910              Ÿ                                                                     Ÿ
                                                      ¾þþþþþþþþþþþþþþþþþþþþþþþþþþþþþþþþþþþþþþþþþþþþþþþþþþþþþþþþþþþþþþþþþþþþþ»
0002B86 50E0 D000/9008_      00000 27911              PDEBUG   PROC
 USING  *,R7
 002BA0 9140 C4C4/47E0_004C4       27950                       IF    ~CVFPGROT,PDEBEXIT   Not a test system, scram
                                   27968
 002BA8 5860 C1C8            001C8 27969                       L     JCBR,CVCURJCB
 USING  JCB,R6                     27970                       WITH  JCB
                                   27982                       ¿þþþþþþþþþþþþþþþþþþþþþþþþþþÜ
                                   27983                       Ÿ  Switch any PAR buffer.  Ÿ
                                   27984                       ¾þþþþþþþþþþþþþþþþþþþþþþþþþþ»
 002BAC D603 6040 6040_00040 00040 27985                       IF    (JCBPTA,NZ),BEGIN   Switch PAR...
 002BB6 5860 C1E8            001E8 28001  1                      L     R6,CVEMBUFQ         Empty buffer ptr
 002BBA 5960 C1EC/4780_      001EC 28002  1                      IF    ('C R6,CVEMBUFQ+4',EQ),EXIT  None, scram
                                   28018  1
 002BC2 1859                       28019  1                      LR    R5,PAR
 002BC4 4B50 7900            034A0 28020  1                      SH    R5,=AL2(PBUFUSER-PBUF)  PBUF ptr
 USING  PBUF,R5                    28021  1                      WITH  (PBUF,R5)
 002BC8 D503 78D4 5000_03474 00000 28034  1                      FAIL  (PBUF,NE,'PBUF'),PBUG1,'PDEBUG logic error.'
 002BEA 48F0 7902            034A2 28063  1                      LH    R15,=AL2(PBUFEND-PBUF)
 002BEE 1AF5                       28064  1                      AR    R15,R5
 002BF0 D506 790B F000_034AB 00000 28065  1                      FAIL  (@R15,NE,'PENDBUF'),PBUG2,'PDEBUG logic error.'
                                   28093  1
 002C12 5840 5004            00004 28094  1                      L     R4,PBUFPCBP
 USING  PCB,R4                     28095  1                      WITH  (PCB,R4)
 002C16 D502 7908 4000_034A8 00000 28108  1                      FAIL  (PCB,NE,'PCB'),PCBERR18,'Dispatcher PCB error.'
 002C38 D603 4020 4020_00020 00020 28137  1                      FAIL  (PCBPTP,Z),PBUG4,'PDEBUG logic error.'
 002C5A 9180 401D/47E0_0001D       28165  1                      FAIL  PCBFIO,PBUG6,'PDEBUG logic error.'
 002C7A 9110 401D/47E0_0001D       28192  1                      FAIL  PCBFJUNK,PBUG7,'PDEBUG logic error.'
 002C9A D603 400C 400C_0000C 0000C 28219  1                      FAIL  (PCBQF,NZ),PBUG9,'PDEBUG logic error.'
                                   28247  1
 002CBC 9108 401D/4710_0001D       28248  1                      IF    PCBFLOCK,EXIT       Can't move, scram
                                   28266  1                      ¿þþþþþþþþþþþþþþþþþþþþþþþþþþþþþþþþÜ
                                   28267  1                      Ÿ  Move data into new PBUF/PCB.  Ÿ
                                   28268  1                      ¾þþþþþþþþþþþþþþþþþþþþþþþþþþþþþþþþ»
 002CC4 D212 601D 401D 0001D 0001D 28269  1                      MVC   PCBCLEAR-PCB(L'PCBCLEAR,R6),PCBCLEAR  Copy info
 002CCA D712 401D 401D 0001D 0001D 28270  1                      CLEAR PCBCLEAR            Zap it
                                   28277  1
 002CD0 5826 0008            00008 28278  1                      L     R2,PCBBUFP-PCB(R6)
 002CD4 4B20 7900            034A0 28279  1                      SH    R2,=AL2(PBUFUSER-PBUF)
 002CD8 D503 78D4 2000_03474 00000 28280  1                      FAIL  (@R2,NE,'PBUF'),PBUG10,'PDEBUG logic error.'
 002CFA 41E2 0068/48F0_      00068 28308  1                      MOVEL PBUFSYS-PBUF(R2),PBUFSYS,LH:=AL2(CVPIOSZ)  Copy data
 002D0A D707 5068 5068 00068 00068 28329  1                      CLEAR PBUFSYS             Zap old system buffer
 002D10 4100 5070            00070 28336  1                      LA    R0,PBUFUSER
 002D14 4810 7906            034A6 28337  1                      LH    R1,=AL2(CVPSZ)      Pad with x'81's
 002D18 1BEE                       28338  1                      CLEAR R14
1DISP     (DISP2193) (12:42) (15MAR04) WYLBUR's Dispatcher                                                                  Page   84
0Current Usings:  (PCB,R4) (PBUF,R5) (JCB,R6) (*,R7) (CP,R11) (CV,R12)
0Loc    Object Code    Addr1 Addr2  Stmt Lv Lineno    Source Statement           (Hibal 5, Asmedit 3.3)  HLASM R4.0  2004/03/15 12.42
+___    ______ ____    _____ _____  ____ __ ______    ______ _________
0002D1A 58F0 78DC            0347C 28342  1                      L     R15,=A(X'81000000')
 002D1E 0E0E                       28343  1                      MVCL  R0,R14              Zap old buffer
                                   28344  1
 002D20 41F0 C1DC            001DC 28345  1                      LA    R15,CVEMBUFQ-(PCBQF-PCB)
 002D24 5800 F010/5040_      00010 28346  1                      QBUFON ,                  Add buffer to empty queue
                                   28353  1
 002D3A 1846                       28354  1                      LR    R4,R6               New PCB ptr
 002D3C 58F0 4020            00020 28355  1                      L     R15,PCBPTP
 USING  PT,R15                     28356  1                      WITH  (PT,R15),BEGIN
 002D40 D603 F008 F008_00008 00008 28370  2                        FAIL  (PTFREE,Z),PBUG11,'PDEBUG logic error.'
 002D62 5040 F00C            0000C 28398  2                        ST    R4,PTPCBP           Point to correct PCB
 DROP   PT,R15                     28399  1                      END
                                   28407  1
 002D66 58F0 400C/5810_      0000C 28408  1                      QBUFOFF ,                 Remove new buffer from queue
                                   28420  1
 002D80 5890 4008            00008 28421  1                      L     PAR,PCBBUFP         Set new PAR ptr
 DROP   PCB,R4                     28422                       END
 DROP   PBUF,R5
                                   28436                       ¿þþþþþþþþþþþþþþþþþþþþþþþþþþÜ
                                   28437                       Ÿ  Switch any PBR buffer.  Ÿ
                                   28438                       ¾þþþþþþþþþþþþþþþþþþþþþþþþþþ»
 002D84 D603 6044 6044_00044 00044 28439                       IF    (JCBPTB,NZ),BEGIN   Switch PBR...
 002D8E 5860 C1E8            001E8 28455  1                      L     R6,CVEMBUFQ         Empty buffer ptr
 002D92 5960 C1EC/4780_      001EC 28456  1                      IF    ('C R6,CVEMBUFQ+4',EQ),EXIT  None, scram
                                   28472  1
 002D9A 185A                       28473  1                      LR    R5,PBR
 002D9C 4B50 7900            034A0 28474  1                      SH    R5,=AL2(PBUFUSER-PBUF)  PBUF ptr
 USING  PBUF,R5                    28475  1                      WITH  (PBUF,R5)
 002DA0 D503 78D4 5000_03474 00000 28488  1                      FAIL  (PBUF,NE,'PBUF'),PBUGB1,'PDEBUG logic error.'
 002DC2 48F0 7902            034A2 28517  1                      LH    R15,=AL2(PBUFEND-PBUF)
 002DC6 1AF5                       28518  1                      AR    R15,R5
 002DC8 D506 790B F000_034AB 00000 28519  1                      FAIL  (@R15,NE,'PENDBUF'),PBUGB2,'PDEBUG logic error.'
                                   28547  1
 002DEA 5840 5004            00004 28548  1                      L     R4,PBUFPCBP
 USING  PCB,R4                     28549  1                      WITH  (PCB,R4)
 002DEE D502 7908 4000_034A8 00000 28562  1                      FAIL  (PCB,NE,'PCB'),PCBERR19,'Dispatcher PCB error.'
 002E10 D603 4020 4020_00020 00020 28591  1                      FAIL  (PCBPTP,Z),PBUGB4,'PDEBUG logic error.'
 002E32 9180 401D/47E0_0001D       28619  1                      FAIL  PCBFIO,PBUGB6,'PDEBUG logic error.'
 002E52 9110 401D/47E0_0001D       28646  1                      FAIL  PCBFJUNK,PBUGB7,'PDEBUG logic error.'
 002E72 D603 400C 400C_0000C 0000C 28673  1                      FAIL  (PCBQF,NZ),PBUGB9,'PDEBUG logic error.'
                                   28701  1
 002E94 9108 401D/4710_0001D       28702  1                      IF    PCBFLOCK,EXIT       Can't move, scram
                                   28720  1                      ¿þþþþþþþþþþþþþþþþþþþþþþþþþþþþþþþþÜ
                                   28721  1                      Ÿ  Move data into new PBUF/PCB.  Ÿ
                                   28722  1                      ¾þþþþþþþþþþþþþþþþþþþþþþþþþþþþþþþþ»
 002E9C D212 601D 401D 0001D 0001D 28723  1                      MVC   PCBCLEAR-PCB(L'PCBCLEAR,R6),PCBCLEAR  Copy info
 002EA2 D712 401D 401D 0001D 0001D 28724  1                      CLEAR PCBCLEAR            Zap it
                                   28731  1
 002EA8 5826 0008            00008 28732  1                      L     R2,PCBBUFP-PCB(R6)
 002EAC 4B20 7900            034A0 28733  1                      SH    R2,=AL2(PBUFUSER-PBUF)
 002EB0 D503 78D4 2000_03474 00000 28734  1                      FAIL  (@R2,NE,'PBUF'),PBUGB10,'PDEBUG logic error.'
 002ED2 41E2 0068/48F0_      00068 28762  1                      MOVEL PBUFSYS-PBUF(R2),PBUFSYS,LH:=AL2(CVPIOSZ)  Copy data
 002EE2 D707 5068 5068 00068 00068 28783  1                      CLEAR PBUFSYS             Zap old system buffer
 002EE8 4100 5070            00070 28790  1                      LA    R0,PBUFUSER
1DISP     (DISP2193) (12:42) (15MAR04) WYLBUR's Dispatcher                                                                  Page   85
0Current Usings:  (PCB,R4) (PBUF,R5) (JCB,R6) (*,R7) (CP,R11) (CV,R12)
0Loc    Object Code    Addr1 Addr2  Stmt Lv Lineno    Source Statement           (Hibal 5, Asmedit 3.3)  HLASM R4.0  2004/03/15 12.42
+___    ______ ____    _____ _____  ____ __ ______    ______ _________
0002EEC 4810 7906            034A6 28791  1                      LH    R1,=AL2(CVPSZ)      Pad with x'81's
 002EF0 1BEE                       28792  1                      CLEAR R14
 002EF2 58F0 78DC            0347C 28796  1                      L     R15,=A(X'81000000')
 002EF6 0E0E                       28797  1                      MVCL  R0,R14              Zap old buffer
                                   28798  1
 002EF8 41F0 C1DC            001DC 28799  1                      LA    R15,CVEMBUFQ-(PCBQF-PCB)
 002EFC 5800 F010/5040_      00010 28800  1                      QBUFON ,                  Add buffer to empty queue
                                   28807  1
 002F12 1846                       28808  1                      LR    R4,R6               New PCB ptr
 002F14 58F0 4020            00020 28809  1                      L     R15,PCBPTP
 USING  PT,R15                     28810  1                      WITH  (PT,R15),BEGIN
 002F18 D603 F008 F008_00008 00008 28824  2                        FAIL  (PTFREE,Z),PBUGB11,'PDEBUG logic error.'
 002F3A 5040 F00C            0000C 28852  2                        ST    R4,PTPCBP           Point to correct PCB
 DROP   PT,R15                     28853  1                      END
                                   28861  1
 002F3E 58F0 400C/5810_      0000C 28862  1                      QBUFOFF ,                 Remove new buffer from queue
                                   28874  1
 002F58 58A0 4008            00008 28875  1                      L     PBR,PCBBUFP         Set new PBR ptr
 DROP   PCB,R4                     28876                       END
 DROP   PBUF,R5
 002F5C 18D8/9808 D004_            28890              PDEBEXIT PEND
 DROP   JCB,R6
 DROP   *,R7
1DISP     (DISP2193) (12:42) (15MAR04) WYLBUR's Dispatcher                                                                  Page   86
0Current Usings:  (CP,R11) (CV,R12)
0Loc    Object Code    Addr1 Addr2  Stmt Lv Lineno    Source Statement           (Hibal 5, Asmedit 3.3)  HLASM R4.0  2004/03/15 12.42
+___    ______ ____    _____ _____  ____ __ ______    ______ _________
0                                  28917              ¿þþþþþþþþþþþþþþþþþþþþþþþþþþþþþþþþþþþþþþþþþþþþþþþþþþþþþþþþþþþþþþþþþþþþþÜ
                                   28918              Ÿ                                                                     Ÿ
                                   28919              Ÿ  PALLOC -- Routine to allocate a page slot.                         Ÿ
                                   28920              Ÿ                                                                     Ÿ
                                   28921              Ÿ    On exit:                                                         Ÿ
                                   28922              Ÿ      R0 (and CC) - pageno or zero if there are no more pages        Ÿ
                                   28923              Ÿ                                                                     Ÿ
                                                      ¾þþþþþþþþþþþþþþþþþþþþþþþþþþþþþþþþþþþþþþþþþþþþþþþþþþþþþþþþþþþþþþþþþþþþþ»
0002F6A 50E0 D000/9028_      00000 28924              PALLOC   XENTER
 USING  *,R7
 002F84 5860 C1C8            001C8 28943                       L     JCBR,CVCURJCB
 USING  JCB,R6                     28944                       USING JCB
                                   28953
 002F88 D501 6030 C130_00030 00130 28954                       IF    (JCBNPG,GE,CVPPG),BEGIN  Time to get secondary page...
 002F92 5820 C1D8/1222       001D8 28972  1                      LT    R2,CVSPFCB          Start at secondary point
 002F98 4780 7054            02FD8 28976  1                      IF    Z,EXIT              No secondary point defined, scram
 USING  PFCB,R2                    28990  1                      WITH  (PFCB,R2)
 002F9C 1B55                       29003  1                      CLEAR R5                  Init for loop
 002F9E 5840 74FC            03480 29007  1                      L     R4,=A(X'7FFFFFFF')  Dummy max
 002FA2 5540 2010            00010 29008  1           NDPF       CL    R4,PFCBCP           Cur pages under min?
 002FA6 47D0 7036            02FBA 29009  1                      BNH   DHPT                No
 002FAA 5830 2010            00010 29010  1                      L     R3,PFCBCP           Get current page count
 002FAE 5530 2008            00008 29011  1                      CL    R3,PFCBNP           Compare to max for file
 002FB2 47B0 7036            02FBA 29012  1                      BNL   DHPT                Br if already full
 002FB6 1843                       29013  1                      LR    R4,R3               Save cur page count
 002FB8 1852                       29014  1                      LR    R5,R2               Save PFCB ptr
 002FBA 9180 2058/47E0_00058       29015  1           DHPT       IF    PFCBFGND,BEGIN      End of group...
 002FC2 1255/4780 7048             29031  2                        IF    (R5,Z),EXIT         No space in this group
 002FC8 47F0 7096            0301A 29048  2                        B     PACOM               Join common code
 002FCC                            29049  1                      END
 002FCC 4120 20A4            000A4 29053  1                      LA    R2,PFCBNEXT         Next page file
 002FD0 5520 C1D4            001D4 29054  1                      CL    R2,CVLPFCB
 002FD4 4740 701E            02FA2 29055  1                      BL    NDPF                Br if more to search
 DROP   PFCB,R2                    29056                       END
                                   29065
 002FD8 5820 C1D0            001D0 29066                       L     R2,CVFPFCB          Run through page files
 USING  PFCB,R2                    29067                       WITH  (PFCB,R2),BEGIN
 002FDC 1B55                       29081  1                      CLEAR R5
 002FDE 5840 74FC            03480 29085  1                      L     R4,=A(X'7FFFFFFF')
 002FE2 5540 2010            00010 29086  1           NPTSRCH    CL    R4,PFCBCP           Cur pages under minimum fnd
 002FE6 47D0 7076            02FFA 29087  1                      BNH   HPT                 Br if not
 002FEA 5830 2010            00010 29088  1                      L     R3,PFCBCP           Get current page count
 002FEE 5530 2008            00008 29089  1                      CL    R3,PFCBNP           Compare to max for file
 002FF2 47B0 7076            02FFA 29090  1                      BNL   HPT                 Br if already full
 002FF6 1843                       29091  1                      LR    R4,R3               Save current page count
 002FF8 1852                       29092  1                      LR    R5,R2               Save PFCB addr.
 002FFA 9180 2058/4710_00058       29093  1           HPT        IF    PFCBFGND,NDPTSRCH   At end of group, scram
 003002 4120 20A4            000A4 29112  1           NXPT       LA    R2,PFCBNEXT         Next page file
 003006 5520 C1D4            001D4 29113  1                      CL    R2,CVLPFCB
 00300A 4740 705E            02FE2 29114  1                      BL    NPTSRCH             Br if more to search
                                   29115  1
 00300E 1B00                       29116  1           NMPG       CLEAR R0                  Set for no more pages
 003010 47F0 712C            030B0 29121  1                      B     PAEXIT              Scram
1DISP     (DISP2193) (12:42) (15MAR04) WYLBUR's Dispatcher                                                                  Page   87
0Current Usings:  (PFCB,R2) (JCB,R6) (*,R7) (CP,R11) (CV,R12)
0Loc    Object Code    Addr1 Addr2  Stmt Lv Lineno    Source Statement           (Hibal 5, Asmedit 3.3)  HLASM R4.0  2004/03/15 12.42
+___    ______ ____    _____ _____  ____ __ ______    ______ _________
0                                  29122  1
 003014 1255                       29123  1           NDPTSRCH   LTR   R5,R5               Any space in this group
 003016 4780 707E            03002 29124  1                      BZ    NXPT                Br no to do next group
 DROP   PFCB,R2                    29125                       END
                                   29133
 USING  PFCB,R5                    29134                       USING PFCB,R5
                                   29143                       ¿þþþþþþþþþþþþþþþþþþþþþþþþþþþÜ
                                   29144                       Ÿ  Get available PT entry.  Ÿ
                                   29145                       ¾þþþþþþþþþþþþþþþþþþþþþþþþþþþ»
 00301A 5840 5020/1244       00020 29146              PACOM    LT    R4,PFCBAPQH         First available PT entry
 003020 4770 70A6/1B00_      0302A 29150                       IF    Z,'CLEAR R0; B PAEXIT'  No more pages
                                   29171
 USING  PT,R4                      29172                       WITH  (PT,R4),BEGIN
 00302A 5950 4004/4780_      00004 29186  1                      FAIL  (R5,NE,PTPFCBP),PALLOY,'PALLOC logic error.'
 00304A D603 4008 4008_00008 00008 29215  1                      FAIL  (PTFREE,NZ),PALLOX,'PALLOC logic error.'
 00306C D203 5020 400C 00020 0000C 29243  1                      MVC   PFCBAPQH,PTLINKP    Dequeue this PT entry
                                   29244  1
 003072 5060 4008            00008 29245  1                      ST    JCBR,PTJCBP         Save our JCB ptr in PT entry
 003076 D703 400C 400C 0000C 0000C 29246  1                      CLEAR PTPCBP              Buffer not in core
 DROP   PT,R4                      29253                       END
                                   29261                       ¿þþþþþþþþþþþþþþþþþþþþþþþþÜ
                                   29262                       Ÿ  Compute page number.  Ÿ
                                   29263                       ¾þþþþþþþþþþþþþþþþþþþþþþþþ»
 00307C 1BEE                       29264                       CLEAR R14
 00307E 18F4                       29268                       LR    R15,R4
 003080 5BF0 C5DC            005DC 29269                       S     R15,CVPTP           Compute page no.
 003084 5DE0 7500            03484 29270                       D     R14,=A(L'PT)
 003088 4100 F001            00001 29271                       LA    R0,@R15+1           Page number
                                   29272
 00308C 4120 0001/5E20_      00001 29273                       INCR  R2,PFCBCP
 003098 5520 500C/47D0_      0000C 29279                       IF    (R2,LGT,PFCBMP),'ST R2,PFCBMP'
 0030A4 4120 0001/4A20_      00001 29302                       INCR  R2,JCBNPG           Kick user's no. of pages
                                   29308              *
                                   29309              *PERF*   LCALL BUFCHK              Validity check pageno & buffers
                                   29310              *
 0030B0 1200                       29311              PAEXIT   LTR   R0,R0
 0030B2 18D8/58E0 D000_            29312                       XEXIT
 DROP   JCB,R6                     29317                       DROP  JCB,PFCB,BR
 DROP   PFCB,R5
 DROP   *,R7
1DISP     (DISP2193) (12:42) (15MAR04) WYLBUR's Dispatcher                                                                  Page   88
0Current Usings:  (CP,R11) (CV,R12)
0Loc    Object Code    Addr1 Addr2  Stmt Lv Lineno    Source Statement           (Hibal 5, Asmedit 3.3)  HLASM R4.0  2004/03/15 12.42
+___    ______ ____    _____ _____  ____ __ ______    ______ _________
0                                  29339              ¿þþþþþþþþþþþþþþþþþþþþþþþþþþþþþþþþþþþþþþþþþþþþþþþþþþþþþþþþþþþþþþþþþþþþþÜ
                                   29340              Ÿ                                                                     Ÿ
                                   29341              Ÿ  PFREEA -- Routine to release PAR register.                         Ÿ
                                   29342              Ÿ                                                                     Ÿ
                                                      ¾þþþþþþþþþþþþþþþþþþþþþþþþþþþþþþþþþþþþþþþþþþþþþþþþþþþþþþþþþþþþþþþþþþþþþ»
00030BE 50E0 D000/9008_      00000 29343              PFREEA   XPROC
 USING  *,R7
 0030D8 5860 C1C8            001C8 29383                       L     JCBR,CVCURJCB
 USING  JCB,R6                     29384                       WITH  JCB
                                   29396
 0030DC 5850 6040/1255       00040 29397                       LT    R5,JCBPTA           Do we have a page A?
 0030E2 4780 7076            0314E 29401                       IF    NZ,BEGIN            Yes...
 0030E6 D603 6040 6040_00040 00040 29412  1                      FAIL  (JCBPTA,Z),PFREEA8,'PFREE error.'
 USING  PT,R5                      29440  1                      WITH  (PT,R5)
 003108 5840 500C            0000C 29453  1                      L     R4,PTPCBP           Page's PCB ptr
 USING  PCB,R4                     29454  1                      WITH  (PCB,R4)
 00310C D502 73D0 4000_034A8 00000 29467  1                      FAIL  (PCB,NE,'PCB'),PCBERR20,'Dispatcher PCB error.'
 00312E 41F0 C1E4            001E4 29496  1                      LA    R15,CVBUFQ-(PCBQF-PCB)  Dummy first entry
 003132 5800 F010/5040_      00010 29497  1                      QBUFON ,                  Add it to buffer queue
                                   29504  1
 003148 1B99/5090 6040             29505  1                      CLEAR PAR,JCBPTA
 DROP   PCB,R4                     29514                       END
 DROP   PT,R5
                                   29528
 00314E 707A/47F0 709E 0314E 030E4 29529                       ELSE  BEGIN               Memory/No page...
 003152 D603 6040 6040_00040 00040 29540  1                      FAIL  (JCBPTA,NZ),PFREEA9,'PFREE error.'
 003174 1B99                       29568  1                      CLEAR PAR
 003176                            29572                       END
 003176 18D8/9808 D004_            29576                       PEND
 DROP   JCB,R6
 DROP   *,R7
1DISP     (DISP2193) (12:42) (15MAR04) WYLBUR's Dispatcher                                                                  Page   89
0Current Usings:  (CP,R11) (CV,R12)
0Loc    Object Code    Addr1 Addr2  Stmt Lv Lineno    Source Statement           (Hibal 5, Asmedit 3.3)  HLASM R4.0  2004/03/15 12.42
+___    ______ ____    _____ _____  ____ __ ______    ______ _________
0                                  29602              ¿þþþþþþþþþþþþþþþþþþþþþþþþþþþþþþþþþþþþþþþþþþþþþþþþþþþþþþþþþþþþþþþþþþþþþÜ
                                   29603              Ÿ                                                                     Ÿ
                                   29604              Ÿ  PFREEB -- Routine to release PBR register.                         Ÿ
                                   29605              Ÿ                                                                     Ÿ
                                                      ¾þþþþþþþþþþþþþþþþþþþþþþþþþþþþþþþþþþþþþþþþþþþþþþþþþþþþþþþþþþþþþþþþþþþþþ»
0003184 50E0 D000/9008_      00000 29606              PFREEB   XPROC
 USING  *,R7
 00319E 50F0 D000/58F0_      00000 29646                       PFLIP ,
 USING  JCB,R15
 DROP   JCB,R15
 0031C2 58E0 72EA/0DEE       03488 29687                       ACALL PFREEA
 0031C8 50F0 D000/58F0_      00000 29691                       PFLIP ,
 USING  JCB,R15
 DROP   JCB,R15
 0031EC 18D8/9808 D004_            29732                       PEND
 DROP   *,R7
1DISP     (DISP2193) (12:42) (15MAR04) WYLBUR's Dispatcher                                                                  Page   90
0Current Usings:  (CP,R11) (CV,R12)
0Loc    Object Code    Addr1 Addr2  Stmt Lv Lineno    Source Statement           (Hibal 5, Asmedit 3.3)  HLASM R4.0  2004/03/15 12.42
+___    ______ ____    _____ _____  ____ __ ______    ______ _________
0                                  29753              ¿þþþþþþþþþþþþþþþþþþþþþþþþþþþþþþþþþþþþþþþþþþþþþþþþþþþþþþþþþþþþþþþþþþþþþÜ
                                   29754              Ÿ                                                                     Ÿ
                                   29755              Ÿ  PJUNK -- Routine to junk a page.  Junking a page means that you    Ÿ
                                   29756              Ÿ   (the current user) no longer want to own the page.                Ÿ
                                   29757              Ÿ                                                                     Ÿ
                                   29758              Ÿ   On entry:                                                         Ÿ
                                   29759              Ÿ     R0 - pageno to junk                                             Ÿ
                                   29760              Ÿ                                                                     Ÿ
                                                      ¾þþþþþþþþþþþþþþþþþþþþþþþþþþþþþþþþþþþþþþþþþþþþþþþþþþþþþþþþþþþþþþþþþþþþþ»
00031FA 50E0 D000/9008_      00000 29761              PJUNK    XPROC
 USING  *,R7
                                   29801                       ¿þþþþþþþþþþþþþþþþþþþþþþþþþþÜ
                                   29802                       Ÿ  Free up memory pageno.  Ÿ
                                   29803                       ¾þþþþþþþþþþþþþþþþþþþþþþþþþþ»
 003214 1200/47B0 701E             29804                       IF    (R0,NEG),BEGIN      Memory pageno...
 00321A 1810                       29818  1                      LR    R1,R0               Address IS pageno
 00321C 58E0 7278/0DEE       0348C 29819  1                      VCALL FREECORE            Free the memory
                                   29823  1
 003222 5820 C6C4            006C4 29824  1                      L     R2,CVMPGMEM         Memory page byte count
 003226 4B20 7292            034A6 29825  1                      SH    R2,=AL2(CVPSZ)      Keep it accurate
 00322A 5020 C6C4            006C4 29826  1                      ST    R2,CVMPGMEM
                                   29827  1
 00322E 47F0 71AE            033C2 29828  1                      B     PJNKEXIT
 003232                            29829                       END
                                   29833              *
                                   29834              *
 003232 5860 C1C8            001C8 29835                       L     JCBR,CVCURJCB       Our JCB ptr
 USING  JCB,R6                     29836                       WITH  JCB
                                   29848                       ¿þþþþþþþþþþþþþþþþþþþþþþþþþÜ
                                   29849                       Ÿ  Free up our PT entry.  Ÿ
                                   29850                       ¾þþþþþþþþþþþþþþþþþþþþþþþþþ»
 003236 1200/47D0 7030_            29851                       FAIL  ((R0,NP),OR,(R0,GT,CVMAXPNO)),PJUNKERR
                                   29892
 003258 1830                       29893                       LR    R3,R0
 00325A 8930 0004/5E30_      00004 29894                       GETPT R3
 USING  PT,R3                      29897                       WITH  (PT,R3),BEGIN
 003262 5850 3004            00004 29911  1                      L     R5,PTPFCBP
 USING  PFCB,R5                    29912  1                      WITH  (PFCB,R5)
                                   29925  1
 003266 5930 6040/4770_      00040 29926  1                      IF    (R3,EQ,JCBPTA),'PFREE PAR'
 003274 5930 6044/4770_      00044 29954  1                      IF    (R3,EQ,JCBPTB),'PFREE PBR'
                                   29982  1
 003282 5840 300C/1244       0000C 29983  1                      LT    R4,PTPCBP           PCB ptr
 003288 4780 711A            0332E 29987  1                      IF    NZ,BEGIN            PCB is in core...
 USING  PCB,R4                     29998  2                        WITH  (PCB,R4)
                                   30011  2
 00328C D502 7294 4000_034A8 00000 30012  2                        FAIL  (PCB,NE,'PCB'),PCBERR22,'Dispatcher PCB error.'
 0032AE 5930 4020/4780_      00020 30041  2                        FAIL  (R3,NE,PCBPTP),PJUNK1,'PJUNK logic error.'
 0032CE 5900 3000/4780_      00000 30070  2                        FAIL  (R0,NE,PTPNO),PJUNK2,'PJUNK logic error.'
 0032EE 5960 3008/4780_      00008 30099  2                        FAIL  (JCBR,NE,PTJCBP),PJUNK3,'PJUNK logic error.'
1DISP     (DISP2193) (12:42) (15MAR04) WYLBUR's Dispatcher                                                                  Page   91
0Current Usings:  (PT,R3) (PCB,R4) (PFCB,R5) (JCB,R6) (*,R7) (CP,R11) (CV,R12)
0Loc    Object Code    Addr1 Addr2  Stmt Lv Lineno    Source Statement           (Hibal 5, Asmedit 3.3)  HLASM R4.0  2004/03/15 12.42
+___    ______ ____    _____ _____  ____ __ ______    ______ _________
0                                  30128  2                       ¿þþþþþþþþþþþþþþþþþþþþþþþþþþþþþþþþþþþþþþþþþþþþþþþþþþþþþþþþþþþþþþþþÜ
                                   30129  2                       Ÿ  If I/O is going on PCB don't do anything until it completes.  Ÿ
                                   30130  2                       Ÿ   We set the PCBFJUNK flag and the PIODONE routine takes care  Ÿ
                                   30131  2                       Ÿ     of junking the page when the I/O completes.                Ÿ
                                   30132  2                       ¾þþþþþþþþþþþþþþþþþþþþþþþþþþþþþþþþþþþþþþþþþþþþþþþþþþþþþþþþþþþþþþþþ»
 00330E 9180 401D/47E0_0001D       30133  2                        IF    PCBFIO,BEGIN        Can't junk until I/O completes
 003316 9610 401D      0001D       30148  3                          SET   PCBFJUNK            Junk page when I/O completes
 00331A D703 3008 3008 00008 00008 30154  3                          CLEAR PTJCBP              No longer owned by this JCB
 003320 48F0 6030/06F0_      00030 30161  3                          DECR  R15,JCBNPG          Decr user's page count
 00332A 47F0 71AE            033C2 30166  3                          B     PJNKEXIT            Scram
 00332E                            30167  2                        END
 DROP   PCB,R4                     30171  1                      END
                                   30180  1                      ¿þþþþþþþþþþþþþþþþþþþþþþþþÜ
                                   30181  1                      Ÿ  Free up page number.  Ÿ
                                   30182  1                      ¾þþþþþþþþþþþþþþþþþþþþþþþþ»
 00332E D703 3008 3008 00008 00008 30183  1                      CLEAR PTFREE              Pageno is available now
 003334 D203 300C 5020 0000C 00020 30190  1                      MVC   PTLINKP,PFCBAPQH    Link up free PTs
 00333A 5030 5020            00020 30191  1                      ST    R3,PFCBAPQH         We are the new free PT queue head
                                   30192  1
 00333E 48F0 6030/06F0_      00030 30193  1                      DECR  R15,JCBNPG          Decr user's page count
 003348 58F0 5010/06F0_      00010 30198  1                      DECR  R15,PFCBCP          Decr current count
 DROP   PFCB,R5                    30203                       END
 DROP   PT,R3
                                   30216                       ¿þþþþþþþþþþþþþþþþþÜ
                                   30217                       Ÿ  Free any PCB.  Ÿ
                                   30218                       ¾þþþþþþþþþþþþþþþþþ»
 003352 1244/4780 71AE             30219                       IF    (R4,NZ),BEGIN       PCB is in core...
 USING  PCB,R4                     30233  1                      WITH  (PCB,R4)
 003358 D603 400C 400C_0000C 0000C 30246  1                      FAIL  (PCBQF,Z),PJUNK6,'PJUNK logic error.'
 00337A D712 401D 401D 0001D 0001D 30274  1                      CLEAR PCBCLEAR            Clear ownership info
 003380 58F0 400C/5810_      0000C 30281  1                      QBUFOFF ,                 Remove PCB from buffer queue
                                   30293  1
 00339A 5820 4008            00008 30294  1                      L     R2,PCBBUFP
 00339E 4B20 728C            034A0 30295  1                      SH    R2,=AL2(PBUFUSER-PBUF)
 0033A2 D707 2068 2068 00068 00068 30296  1                      WITH  (PBUF,R2),'CLEAR PBUFSYS'  Clear buffer prefix
 USING  PBUF,R2
 DROP   PBUF,R2
                                   30326  1
 0033A8 41F0 C1DC            001DC 30327  1                      LA    R15,CVEMBUFQ-(PCBQF-PCB)  Dummy first empty link
 0033AC 5800 F010/5040_      00010 30328  1                      QBUFON ,                  Add PCB to queue
 DROP   PCB,R4                     30335                       END
                                   30344              *
                                   30345              *PERF*   LCALL BUFCHK              Validity check pageno & buffers
                                   30346              *
 0033C2 18D8/9808 D004_            30347              PJNKEXIT PEND
 DROP   JCB,R6
 DROP   *,R7
1DISP     (DISP2193) (12:42) (15MAR04) WYLBUR's Dispatcher                                                                  Page   92
0Current Usings:  (CP,R11) (CV,R12)
0Loc    Object Code    Addr1 Addr2  Stmt Lv Lineno    Source Statement           (Hibal 5, Asmedit 3.3)  HLASM R4.0  2004/03/15 12.42
+___    ______ ____    _____ _____  ____ __ ______    ______ _________
0                                  30374              ¿þþþþþþþþþþþþþþþþþþþþþþþþþþþþþþþþþþþþþþþþþþþþþþþþþþþþþþþþþþþþþþþþþþþþþÜ
                                   30375              Ÿ                                                                     Ÿ
                                   30376              Ÿ  PJUNKA -- Routine to free and junk the page pointed to by PAR.     Ÿ
                                   30377              Ÿ                                                                     Ÿ
                                                      ¾þþþþþþþþþþþþþþþþþþþþþþþþþþþþþþþþþþþþþþþþþþþþþþþþþþþþþþþþþþþþþþþþþþþþþ»
00033D0 50E0 D000/9008_      00000 30378              PJUNKA   XPROC
 USING  *,R7
 0033EA 1299/4780 7018             30418                       IF    (PAR,NZ),BEGIN      We have a page...
 0033F0 58E0 70AE/0DEE       03498 30432  1                      PNUM  PAR                 Get pageno (for PJUNK)
 0033F6 58E0 70A6/0DEE       03490 30437  1                      PFREE PAR                 Free page register
 0033FC 58E0 70B2/0DEE       0349C 30443  1                      PJUNK (R0)                Junk the page
 003402                            30451                       END
 003402 18D8/9808 D004_            30455                       PEND
 DROP   *,R7
1DISP     (DISP2193) (12:42) (15MAR04) WYLBUR's Dispatcher                                                                  Page   93
0Current Usings:  (CP,R11) (CV,R12)
0Loc    Object Code    Addr1 Addr2  Stmt Lv Lineno    Source Statement           (Hibal 5, Asmedit 3.3)  HLASM R4.0  2004/03/15 12.42
+___    ______ ____    _____ _____  ____ __ ______    ______ _________
0                                  30476              ¿þþþþþþþþþþþþþþþþþþþþþþþþþþþþþþþþþþþþþþþþþþþþþþþþþþþþþþþþþþþþþþþþþþþþþÜ
                                   30477              Ÿ                                                                     Ÿ
                                   30478              Ÿ  PJUNKALL -- Routine to junk ALL the user's remaining pages.        Ÿ
                                   30479              Ÿ                                                                     Ÿ
                                   30480              Ÿ    This is called when the user is logging off to do a final        Ÿ
                                   30481              Ÿ    cleanup.                                                         Ÿ
                                   30482              Ÿ                                                                     Ÿ
                                                      ¾þþþþþþþþþþþþþþþþþþþþþþþþþþþþþþþþþþþþþþþþþþþþþþþþþþþþþþþþþþþþþþþþþþþþþ»
0003410 50E0 D000/9008_      00000 30483              PJUNKALL XPROC
 USING  *,R7
                                   30523                       ¿þþþþþþþþþþþþþþþþþþþþþþþþþþþþþþþþþþþþþþþþþþþþþþþþþþþþÜ
                                   30524                       Ÿ  Go through page table and free any of our pages.  Ÿ
                                   30525                       ¾þþþþþþþþþþþþþþþþþþþþþþþþþþþþþþþþþþþþþþþþþþþþþþþþþþþþ»
 00342A 4140 0001            00001 30526                       LA    R4,1                Starting page number
 00342E 5850 C5DC            005DC 30527                       L     R5,CVPTP            Starting PT entry
 003432 5940 C154/4730_      00154 30528                       WHILE (R4,LE,CVMAXPNO),BEGIN   Go through entries...
 USING  PT,R5                      30547  1                      WITH  (PT,R5)
                                   30560  1                      ¿þþþþþþþþþþþþþþþþþþþþþþþþÜ
                                   30561  1                      Ÿ  Junk our pages only!  Ÿ
                                   30562  1                      ¾þþþþþþþþþþþþþþþþþþþþþþþþ»
 00343A D503 5008 C1C8_00008 001C8 30563  1                      IF    (PTJCBP,EQ,CVCURJCB),BEGIN  Our page...
 003444 5800 5000/58E0_      00000 30581  2                        PJUNK L:PTPNO
 00344E                            30590  1                      END
                                   30594  1           *
                                   30595  1           *
 00344E 4150 5010            00010 30596  1                      LA    R5,PTNEXT           Next PT entry
 003452 4140 4001            00001 30597  1                      LA    R4,@R4+1            Next page number
 003456 47F0 7008            03432 30598                       END
 DROP   PT,R5
                                   30608
 00345A 18D8/9808 D004_            30609                       PEND
 DROP   *,R7
                                   30629                       QLTORG
1DISP     (DISP2193) (12:42) (15MAR04) WYLBUR's Dispatcher                                                                  Page   94
0Current Usings:  (CP,R11) (CV,R12)
0Loc    Object Code    Addr1 Addr2  Stmt Lv Lineno    Source Statement           (Hibal 5, Asmedit 3.3)  HLASM R4.0  2004/03/15 12.42
+___    ______ ____    _____ _____  ____ __ ______    ______ _________
0                                  30662              ¿þþþþþþþþþþþþþþþþþþþþþþþþþþþþþþþþþþþþþþþþþþþþþþþþþþþþþþþþþþþþþþþþþþþþþÜ
                                   30663              Ÿ                                                                     Ÿ
                                   30664              Ÿ  PRCVYCHK -- Routine to check the pageno and tell the caller        Ÿ
                                   30665              Ÿ    if it is already allocated.  This routine is used by RECS        Ÿ
                                   30666              Ÿ    during WYLBUR recovery to see if the pages in the record         Ÿ
                                   30667              Ÿ    group are valid.                                                 Ÿ
                                   30668              Ÿ                                                                     Ÿ
                                   30669              Ÿ    On entry:                                                        Ÿ
                                   30670              Ÿ      R0 - pageno                                                    Ÿ
                                   30671              Ÿ                                                                     Ÿ
                                   30672              Ÿ    On exit, R15 (and cc):                                           Ÿ
                                   30673              Ÿ     -4 - bad pageno                                                 Ÿ
                                   30674              Ÿ      0 - ok                                                         Ÿ
                                   30675              Ÿ      4 - page is already allocated                                  Ÿ
                                   30676              Ÿ                                                                     Ÿ
                                                      ¾þþþþþþþþþþþþþþþþþþþþþþþþþþþþþþþþþþþþþþþþþþþþþþþþþþþþþþþþþþþþþþþþþþþþþ»
00034B2 50E0 D000/9008_      00000 30677              PRCVYCHK XPROC
 USING  *,R7
 0034CC 48F0 7B3C            04008 30717                       LH    R15,=H'-4'          Assume bad pageno
                                   30718
 0034D0 1200/47D0 7030             30719                       IF    (R0,POS),BEGIN      Check pageno...
 0034D6 5900 C154/4720_      00154 30733  1                      IF    (R0,GT,CVMAXPNO),EXIT  Not valid, scram
 0034DE 1820                       30753  1                      LR    R2,R0
 0034E0 8920 0004/5E20_      00004 30754  1                      GETPT R2
 USING  PT,R2                      30757  1                      WITH  (PT,R2)
 0034E8 D603 2008 2008_00008 00008 30770  1                      IF    (PTFREE,NZ),'LA R15,4'  Already allocated
 0034F6 702E/47F0 7030_034F6 034F0 30792  1                      ELSE  'CLEAR R15'         Not allocated
 DROP   PT,R2                      30812                       END
                                   30821
 0034FC 18D8/9808 D004_            30822                       PEND
 DROP   *,R7
1DISP     (DISP2193) (12:42) (15MAR04) WYLBUR's Dispatcher                                                                  Page   95
0Current Usings:  (CP,R11) (CV,R12)
0Loc    Object Code    Addr1 Addr2  Stmt Lv Lineno    Source Statement           (Hibal 5, Asmedit 3.3)  HLASM R4.0  2004/03/15 12.42
+___    ______ ____    _____ _____  ____ __ ______    ______ _________
0                                  30843              ¿þþþþþþþþþþþþþþþþþþþþþþþþþþþþþþþþþþþþþþþþþþþþþþþþþþþþþþþþþþþþþþþþþþþþþÜ
                                   30844              Ÿ                                                                     Ÿ
                                   30845              Ÿ  PRCVYSET -- Routine to mark the pageno as allocated to             Ÿ
                                   30846              Ÿ    the current user.  This routine is called by RECS to             Ÿ
                                   30847              Ÿ    rebuild a record group for WYLBUR recovery.                      Ÿ
                                   30848              Ÿ                                                                     Ÿ
                                   30849              Ÿ    On entry:                                                        Ÿ
                                   30850              Ÿ      R0 - pageno                                                    Ÿ
                                   30851              Ÿ                                                                     Ÿ
                                   30852              Ÿ    On exit, R15 (and cc):                                           Ÿ
                                   30853              Ÿ     -4 - bad pageno                                                 Ÿ
                                   30854              Ÿ      0 - ok                                                         Ÿ
                                   30855              Ÿ      4 - page is already allocated                                  Ÿ
                                   30856              Ÿ                                                                     Ÿ
                                                      ¾þþþþþþþþþþþþþþþþþþþþþþþþþþþþþþþþþþþþþþþþþþþþþþþþþþþþþþþþþþþþþþþþþþþþþ»
000350A 50E0 D000/9008_      00000 30857              PRCVYSET XPROC
 USING  *,R7
 003524 5860 C1C8            001C8 30897                       L     JCBR,CVCURJCB
 USING  JCB,R6                     30898                       WITH  JCB
                                   30910
 003528 48F0 7AE4            04008 30911                       LH    R15,=H'-4'          Assume bad pageno
                                   30912
 00352C 1200/47D0 70A2             30913                       IF    (R0,POS),BEGIN      Check pageno...
 003532 5900 C154/4720_      00154 30927  1                      IF    (R0,GT,CVMAXPNO),EXIT  Not valid, scram
 00353A 1810                       30947  1                      LR    R1,R0
 00353C 8910 0004/5E10_      00004 30948  1                      GETPT R1
 USING  PT,R1                      30951  1                      WITH  (PT,R1)
                                   30964  1
 003544 D603 1008 1008_00008 00008 30965  1                      IF    (PTFREE,NZ),'LA R15,4; B RCVYEXIT'  Already alloc'd
                                   30988  1
 003556 5850 1004            00004 30989  1                      L     R5,PTPFCBP
 USING  PFCB,R5                    30990  1                      WITH  (PFCB,R5)
                                   31003  1                      ¿þþþþþþþþþþþþþþþþþþþþþþþþþþþþþþþþþþþþþþþþþþþþþþþþþþþÜ
                                   31004  1                      Ÿ  Fix up PT entry so that we now own this pageno.  Ÿ
                                   31005  1                      ¾þþþþþþþþþþþþþþþþþþþþþþþþþþþþþþþþþþþþþþþþþþþþþþþþþþþ»
 00355A 4130 5014            00014 31006  1                      LA    R3,PFCBAPQH-(PTLINKP-PT)  Dummy first link
 00355E                            31007  1                      LOOP  BEGIN
 00355E 1823                       31013  2                        LR    R2,R3               Save previous ptr
 USING  PT,R3                      31014  2                        WITH  (PT,R3)
 003560 5830 300C/1233       0000C 31027  2                        LT    R3,PTLINKP          Get next free PT entry ptr
 003566 4770 705E/900F_      03582 31031  2                        FAIL  Z,RCVYPERR,'RCVYPALO logic error.'
 003582 1913/4770 706E             31054  2                        IF    (R1,EQ,R3),BEGIN    We found our entry...
 003588 D203 200C 300C 0000C 0000C 31069  3                          MVC   PTLINKP-PT(4,R2),PTLINKP  Dequeue our entry
 00358E 47F0 7072            03596 31070  3                          B     RCVYCOM             Continue
 003592                            31071  2                        END
 003592 47F0 703A            0355E 31075  1                      END
 DROP   PT,R3
                                   31085  1
 003596 5060 1008            00008 31086  1           RCVYCOM    ST    JCBR,PTJCBP         We own this PT entry now
 00359A D703 100C 100C 0000C 0000C 31087  1                      CLEAR PTPCBP              No PCB is in core
                                   31094  1
 0035A0 41F0 0001/4AF0_      00001 31095  1                      INCR  R15,JCBNPG          Kick user's page count
                                   31101  1
1DISP     (DISP2193) (12:42) (15MAR04) WYLBUR's Dispatcher                                                                  Page   96
0Current Usings:  (PT,R1) (PFCB,R5) (JCB,R6) (*,R7) (CP,R11) (CV,R12)
0Loc    Object Code    Addr1 Addr2  Stmt Lv Lineno    Source Statement           (Hibal 5, Asmedit 3.3)  HLASM R4.0  2004/03/15 12.42
+___    ______ ____    _____ _____  ____ __ ______    ______ _________
00035AC 41F0 0001/5EF0_      00001 31102  1                      INCR  R15,PFCBCP          Count the allocated page
 0035B8 55F0 500C/47D0_      0000C 31108  1                      IF    (R15,LGT,PFCBMP),'ST R15,PFCBMP'  Maximum allocated
                                   31131  1
 0035C4 1BFF                       31132  1                      CLEAR R15                 Set good rc
 DROP   PFCB,R5                    31136                       END
 DROP   PT,R1
 0035C6 18D8/9808 D004_            31150              RCVYEXIT PEND
 DROP   JCB,R6
 DROP   *,R7
1DISP     (DISP2193) (12:42) (15MAR04) WYLBUR's Dispatcher                                                                  Page   97
0Current Usings:  (CP,R11) (CV,R12)
0Loc    Object Code    Addr1 Addr2  Stmt Lv Lineno    Source Statement           (Hibal 5, Asmedit 3.3)  HLASM R4.0  2004/03/15 12.42
+___    ______ ____    _____ _____  ____ __ ______    ______ _________
0                                  31177              ¿þþþþþþþþþþþþþþþþþþþþþþþþþþþþþþþþþþþþþþþþþþþþþþþþþþþþþþþþþþþþþþþþþþþþþÜ
                                   31178              Ÿ                                                                     Ÿ
                                   31179              Ÿ  BUFCHK -- Local routine to verify that the page number is NOT      Ÿ
                                   31180              Ÿ    in the buffer queue.  This is simply a validity check and can    Ÿ
                                   31181              Ÿ     be commented out to improve performance.                        Ÿ
                                   31182              Ÿ                                                                     Ÿ
                                   31183              Ÿ    On entry:                                                        Ÿ
                                   31184              Ÿ      R0 - page number                                               Ÿ
                                   31185              Ÿ                                                                     Ÿ
                                                      ¾þþþþþþþþþþþþþþþþþþþþþþþþþþþþþþþþþþþþþþþþþþþþþþþþþþþþþþþþþþþþþþþþþþþþþ»
00035D4 50E0 D000/9008_      00000 31186              BUFCHK   PROC
 USING  *,R7
                                   31225                       ¿þþþþþþþþþþþþþþþþþþþþþþþÜ
                                   31226                       Ÿ  Check buffer queue.  Ÿ
                                   31227                       ¾þþþþþþþþþþþþþþþþþþþþþþþ»
 0035EE 4140 C1E4            001E4 31228                       LA    R4,CVBUFQ-(PCBQF-PCB)
 0035F2 5940 C1F4/4780_      001F4 31229                       WHILE ('C R4,CVBUFQ+4',NE),BEGIN  Check buffer queue...
 USING  PCB,R4                     31244  1                      WITH  (PCB,R4)
 0035FA 5840 400C            0000C 31257  1                      L     R4,PCBQF            First/next buffer
 0035FE 5850 4020            00020 31258  1                      L     R5,PCBPTP
 003602 1255/4770 7032_            31259  1                      FAIL  (R5,Z),BUFCHK1,'Dispatcher error.'
 USING  PT,R5                      31285  1                      WITH  (PT,R5)
 003620 5940 500C/4780_      0000C 31298  1                      FAIL  (R4,NE,PTPCBP),BUFCHK2,'Dispatcher error.'
 003640 D603 5008 5008_00008 00008 31327  1                      FAIL  (PTJCBP,Z),BUFCHK3,'Dispatcher error.'
                                   31355  1
 003662 5900 5000/4770_      00000 31356  1                      IF    (R0,EQ,PTPNO),BEGIN  Oops...
 00366A 1F22/BF23 401D             31373  2                        L2    R2,PCBFL
 003670 5830 5008            00008 31381  2                        L     R3,PTJCBP
 003674 9604 C4C7      004C7       31382  2                        SET   CVFNORET            (Temporary)
 003678 900F C780/4DE0_      00780 31388  2                        KAPUT BUFERR,'Owned page error.'
 003690                            31395  1                      END
 003690 47F0 7004            035F2 31399                       END
 DROP   PT,R5
 DROP   PCB,R4
 003694 18D8/9808 D004_            31414                       PEND
 DROP   *,R7
1DISP     (DISP2193) (12:42) (15MAR04) WYLBUR's Dispatcher                                                                  Page   98
0Current Usings:  (CP,R11) (CV,R12)
0Loc    Object Code    Addr1 Addr2  Stmt Lv Lineno    Source Statement           (Hibal 5, Asmedit 3.3)  HLASM R4.0  2004/03/15 12.42
+___    ______ ____    _____ _____  ____ __ ______    ______ _________
0                                  31435              ¿þþþþþþþþþþþþþþþþþþþþþþþþþþþþþþþþþþþþþþþþþþþþþþþþþþþþþþþþþþþþþþþþþþþþþÜ
                                   31436              Ÿ                                                                     Ÿ
                                   31437              Ÿ                                                                     Ÿ
                                   31438              Ÿ  DBGREAD - debug page read.                                         Ÿ
                                   31439              Ÿ                                                                     Ÿ
                                   31440              Ÿ  this routine will read any page specified by caller.               Ÿ
                                   31441              Ÿ  if page is not in core, page is read with stand alone read         Ÿ
                                   31442              Ÿ  routine (SAREAD).                                                  Ÿ
                                   31443              Ÿ                                                                     Ÿ
                                   31444              Ÿ  on entry:                                                          Ÿ
                                   31445              Ÿ       R0 - pageno                                                   Ÿ
                                   31446              Ÿ       PAR - a page pointer (page contents destoryed)                Ÿ
                                   31447              Ÿ                                                                     Ÿ
                                   31448              Ÿ  on exit:                                                           Ÿ
                                   31449              Ÿ       R1 - JCB of pages owner (zero if none)                        Ÿ
                                   31450              Ÿ       PAR - page pointer, contains contents of page specified       Ÿ
                                   31451              Ÿ       R15 - CC=0, successful read                                   Ÿ
                                   31452              Ÿ             CC=NZ, read unsucessful, error message tseg'd           Ÿ
                                   31453              Ÿ                                                                     Ÿ
                                   31454              Ÿ                                                                     Ÿ
                                                      ¾þþþþþþþþþþþþþþþþþþþþþþþþþþþþþþþþþþþþþþþþþþþþþþþþþþþþþþþþþþþþþþþþþþþþþ»
00036A2 50E0 D000/9028_      00000 31455              DBGREAD  XENTER
 USING  *,R7
 0036BC 1200/47D0 700E_            31474                       IF    ((R0,NP),OR,(R0,GT,CVMAXPNO)),BEGIN
 0036CA 4110 7960/4100_      0401C 31504  1                      TSEG  'Invalid page number specified. '
 0036DC 41F0 0004            00004 31522  1                      LA    R15,4
 0036E0 47F0 71B8            03874 31523  1                      B     DBGDONE
 0036E4                            31524                       END
 0036E4 1810                       31528                       LR    R1,R0               index into page table
 0036E6 0610                       31529                       DECR  R1
 0036E8 4C10 794E            0400A 31531                       MH    R1,=AL2(L'PT)
 0036EC 5E10 C5DC            005DC 31532                       AL    R1,CVPTP            R1 - pt entry pointer
 USING  PT,R1                      31533                       USING PT,R1
 0036F0 5860 1008            00008 31542                       L     R6,PTJCBP           R6 - page owner jcb
                                   31543                       ¿þþþþþþþþþþþþþþþþþþþþþþþþþþþþþþþþþþþþþþþþÜ
                                   31544                       Ÿ  If page in core, move to par buffer.  Ÿ
                                   31545                       ¾þþþþþþþþþþþþþþþþþþþþþþþþþþþþþþþþþþþþþþþþ»
 0036F4 D503 7904 1008_03FC0 00008 31546                       IF    ((PTJCBP,NE,0),AND,(PTPCBP,NE,0)),BEGIN
 003708 5840 100C            0000C 31581  1                      L     R4,PTPCBP
 USING  PCB,R4                     31582  1                      WITH  (PCB,R4),BEGIN
 00370C D502 797F 4000_0403B 00000 31596  2                        FAIL  (PCB,NE,'PCB'),PCBERR25,'Dispatcher PCB error.'
                                   31625  2           *        FAIL  (PCBPTP,Z),PBUG4,'DBGREAD logic error.'
                                   31626  2           *        FAIL  PCBFJUNK,PBUG7,'DBGREAD logic error.'
                                   31627  2           *        FAIL  (PCBQF,NZ),PBUG9,'DBGREAD logic error.'
 00372E 9180 401D/47E0_0001D       31628  2                        IF    PCBFIO,BEGIN
 003736 4110 7982/4100_      0403E 31643  3                          TSEG  'I/O in progress on specified page. '
 003748 41F0 0004            00004 31661  3                          LA    R15,4
 00374C 47F0 71B8            03874 31662  3                          B     DBGDONE
 003750                            31663  2                        END
 003750 5850 4008            00008 31667  2                        L     R5,PCBBUFP
 003754 4B50 7950            0400C 31668  2                        SH    R5,=AL2(PBUFUSER-PBUF)  PBUF ptr
 USING  PBUF,R5                    31669  2                        WITH  (PBUF,R5),BEGIN
 003758 D503 7910 5000_03FCC 00000 31683  3                          FAIL  (PBUF,NE,'PBUF'),PBUG1,'DBGREAD logic error.'
1DISP     (DISP2193) (12:42) (15MAR04) WYLBUR's Dispatcher                                                                  Page   99
0Current Usings:  (PT,R1) (PCB,R4) (PBUF,R5) (*,R7) (CP,R11) (CV,R12)
0Loc    Object Code    Addr1 Addr2  Stmt Lv Lineno    Source Statement           (Hibal 5, Asmedit 3.3)  HLASM R4.0  2004/03/15 12.42
+___    ______ ____    _____ _____  ____ __ ______    ______ _________
000377A 48F0 7952            0400E 31712  3                          LH    R15,=AL2(PBUFEND-PBUF)
 00377E 1AF5                       31713  3                          AR    R15,R5
 003780 D506 79A5 F000_04061 00000 31714  3                          FAIL  (@R15,NE,'PENDBUF'),PBUG2,'DBGREAD logic error.'
                                   31742  3                          COMMENT
                                   31743  3                          COMMENT                   Move page contents to PAR page
 0037A2 1809                       31744  3                          LR    R0,PAR
 0037A4 5810 7914            03FD0 31745  3                          L     R1,=A(CVPSZ)
 0037A8 4120 5070            00070 31746  3                          LA    R2,PBUFUSER
 0037AC 1831                       31747  3                          LR    R3,R1
 0037AE 0E02                       31748  3                          MVCL  R0,R2
 DROP   PBUF,R5                    31749  2                        END   , WITH (R5,PBUF)
 DROP   PCB,R4                     31757  1                      END   , WITH (R4,PCB)
 0037B0 1BFF                       31765  1                      CLEAR R15
 0037B2 47F0 71B8            03874 31769  1                      B     DBGDONE
 0037B6                            31770                       END   ,                   end of page in core
 DROP   PT,R1                      31774                       DROP  R1
                                   31781                       ¿þþþþþþþþþþþþþþþþþþþþþþþþþþþþþþþþþþþþþþþþþþþþþþþþþþþþþþþþþÜ
                                   31782                       Ÿ  If page not in core, read it in via stand alone read.  Ÿ
                                   31783                       ¾þþþþþþþþþþþþþþþþþþþþþþþþþþþþþþþþþþþþþþþþþþþþþþþþþþþþþþþþþ»
 0037B6 1859                       31784                       LR    R5,PAR
 0037B8 4B50 7950            0400C 31785                       SH    R5,=AL2(PBUFUSER-PBUF)  PBUF ptr
 USING  PBUF,R5                    31786                       WITH  (PBUF,R5),BEGIN
 0037BC D503 7910 5000_03FCC 00000 31800  1                      FAIL  (PBUF,NE,'PBUF'),PBUG1,'DBGREAD logic error.'
 0037DE 48F0 7952            0400E 31829  1                      LH    R15,=AL2(PBUFEND-PBUF)
 0037E2 1AF5                       31830  1                      AR    R15,R5
 0037E4 D506 79A5 F000_04061 00000 31831  1                      FAIL  (@R15,NE,'PENDBUF'),PBUG2,'DBGREAD logic error.'
 003806 5840 5004            00004 31859  1                      L     R4,PBUFPCBP
 USING  PCB,R4                     31860  1                      WITH  (PCB,R4),BEGIN
 00380A D502 797F 4000_0403B 00000 31874  2                        FAIL  (PCB,NE,'PCB'),PCBERR26,'Dispatcher PCB error.'
                                   31903  2           *        FAIL  (PCBPTP,Z),PBUG4,'DBGREAD logic error.'
 00382C 9180 401D/47E0_0001D       31904  2                        FAIL  PCBFIO,PBUG6,'DBGREAD logic error.'
                                   31931  2           *        FAIL  PCBFJUNK,PBUG7,'DBGREAD logic error.'
                                   31932  2           *        FAIL  (PCBQF,NZ),PBUG9,'DBGREAD logic error.'
                                   31933  2                        COMMENT
 00384C 18F4                       31934  2                        LR    R15,R4              R15 - PCB
 00384E 1810                       31935  2                        LR    R1,R0               R1 - pageno
 003850 58E0 7918/0DEE       03FD4 31936  2                        ACALL SAREAD              Read specified page
 003856 4780 71B6/900F_      03872 31940  2                        FAIL  NZ,SARDERR,'SAREAD failed. Invalid page number. '
 003872 1BFF                       31963  2                        CLEAR R15
 DROP   PCB,R4                     31967  1                      END   , WITH (PCB,R4)
 DROP   PBUF,R5                    31975                       END   , WITH (PBUF,R5)
                                   31983
 003874                            31984              DBGDONE  LABEL ,
 003874 1816                       31986                       LR    R1,R6               RETRUN R1 -JCB, R15 -CC
 003876 18D8/58E0 D000_            31987                       XEXIT ,,LTR
 DROP   *,R7                       31993                       DROP  BR
1DISP     (DISP2193) (12:42) (15MAR04) WYLBUR's Dispatcher                                                                  Page  100
0Current Usings:  (CP,R11) (CV,R12)
0Loc    Object Code    Addr1 Addr2  Stmt Lv Lineno    Source Statement           (Hibal 5, Asmedit 3.3)  HLASM R4.0  2004/03/15 12.42
+___    ______ ____    _____ _____  ____ __ ______    ______ _________
0                                  32001              ¿þþþþþþþþþþþþþþþþþþþþþþþþþþþþþþþþþþþþþþþþþþþþþþþþþþþþþþþþþþþþþþþþþþþþþÜ
                                   32002              Ÿ                                                                     Ÿ
                                   32003              Ÿ  SAREAD -- Routine to read a page and wait for the I/O              Ÿ
                                   32004              Ÿ    completion.  This routine is ONLY called for debuging and        Ÿ
                                   32005              Ÿ    active file recovery.                                            Ÿ
                                   32006              Ÿ                                                                     Ÿ
                                   32007              Ÿ    On entry:                                                        Ÿ
                                   32008              Ÿ      R1 - pageno to read                                            Ÿ
                                   32009              Ÿ      R15- PCB ptr                                                   Ÿ
                                   32010              Ÿ                                                                     Ÿ
                                   32011              Ÿ    On exit:                                                         Ÿ
                                   32012              Ÿ      R0 - pointer to page                                           Ÿ
                                   32013              Ÿ      R15- cc=zero, read ok                                          Ÿ
                                   32014              Ÿ           cc=nz, page number out of range                           Ÿ
                                   32015              Ÿ           (all other read errors result in failsoft)                Ÿ
                                   32016              Ÿ                                                                     Ÿ
                                                      ¾þþþþþþþþþþþþþþþþþþþþþþþþþþþþþþþþþþþþþþþþþþþþþþþþþþþþþþþþþþþþþþþþþþþþþ»
0003884 50E0 D000/9028_      00000 32017              SAREAD   XENTER
 USING  *,R7
 00389E 185F                       32036                       LR    R5,R15
                                   32037
 0038A0 9140 C4C8/47E0_004C8       32038                       FAIL  CVFMEMPAGE,SAREAD,'SAREAD MEMPAGE logic error.'
                                   32065
 0038C0 1211/47D0 7030_            32066                       IF    ((R1,NP),OR,(R1,GE,CVMAXPNO)),BEGIN
 0038CE 41F0 0004            00004 32096  1                      LA    R15,4
 0038D2 47F0 70E6            03984 32097  1                      B     SARDDONE
 0038D6                            32098                       END
                                   32102
 USING  PCB,R5                     32103                       WITH  (PCB,R5),BEGIN
 0038D6 D502 779D 5000_0403B 00000 32117  1                      FAIL  (PCB,NE,'PCB'),PCBERR27,'Dispatcher PCB error.'
 0038F8 9180 501D/47E0_0001D       32146  1                      FAIL  PCBFIO,SARDERR,'SAREAD logic error.'
                                   32173  1
 003918 5830 5020            00020 32174  1                      L     R3,PCBPTP           Old PT entry ptr
                                   32175  1
 00391C 8910 0004/5E10_      00004 32176  1                      GETPT R1
 003924 5010 5020            00020 32179  1                      ST    R1,PCBPTP           Set PT entry ptr
                                   32180  1
 003928 9680 501E      0001E       32181  1                      SET   PCBFSYNC            Synchronous request
 00392C D703 502C 502C 0002C 0002C 32187  1                      CLEAR PCBXECB             Make sure ECB is clear
 003932 4100 0006            00006 32194  1                      LA    R0,X'06'            Read CCW opcode
 003936 41F0 5000            00000 32195  1                      LA    R15,PCB             Buffer ptr
 00393A 4DE0 74EC            03D8A 32196  1                      LCALL SIO                 Do the I/O
 00393E 4100 0001/4110_      00001 32198  1                      WAIT  ECB=PCBXECB
                                   32205  1
 003948 5030 5020            00020 32206  1                      ST    R3,PCBPTP           Restore old PT entry ptr
                                   32207  1
 00394C 957F 5075/4780_00075       32208  1                      FAIL  (PCBCOD,NE,X'7F'),SARDERR,'Page I/O error.'
 00396C 947F 501E      0001E       32237  1                      CLEAR PCBFSYNC            Clear synchronous flag
 003970 947F 501D/9200_0001D       32244  1                      CLEAR PCBFIO,PCBFPOST     Clear I/O flags
 003978 D703 502C 502C 0002C 0002C 32256  1                      CLEAR PCBXECB
 00397E 5800 5008            00008 32263  1                      L     R0,PCBBUFP          Return R0 - page pointer
 DROP   PCB,R5                     32264                       END
 003982 1BFF                       32272                       CLEAR R15
1DISP     (DISP2193) (12:42) (15MAR04) WYLBUR's Dispatcher                                                                  Page  101
0Current Usings:  (*,R7) (CP,R11) (CV,R12)
0Loc    Object Code    Addr1 Addr2  Stmt Lv Lineno    Source Statement           (Hibal 5, Asmedit 3.3)  HLASM R4.0  2004/03/15 12.42
+___    ______ ____    _____ _____  ____ __ ______    ______ _________
0                                  32276
 003984                            32277              SARDDONE LABEL ,
 003984 18D8/58E0 D000_            32279                       XEXIT ,,LTR
 DROP   *,R7                       32285                       DROP  BR
1DISP     (DISP2193) (12:42) (15MAR04) WYLBUR's Dispatcher                                                                  Page  102
0Current Usings:  (CP,R11) (CV,R12)
0Loc    Object Code    Addr1 Addr2  Stmt Lv Lineno    Source Statement           (Hibal 5, Asmedit 3.3)  HLASM R4.0  2004/03/15 12.42
+___    ______ ____    _____ _____  ____ __ ______    ______ _________
0                                  32293              ¿þþþþþþþþþþþþþþþþþþþþþþþþþþþþþþþþþþþþþþþþþþþþþþþþþþþþþþþþþþþþþþþþþþþþþÜ
                                   32294              Ÿ                                                                     Ÿ
                                   32295              Ÿ  SAWRITE -- Routine to write a page and wait for the I/O            Ÿ
                                   32296              Ÿ    completion.  This routine is ONLY called from initialization.    Ÿ
                                   32297              Ÿ                                                                     Ÿ
                                   32298              Ÿ    On entry:                                                        Ÿ
                                   32299              Ÿ      R1 - pageno to write                                           Ÿ
                                   32300              Ÿ      R15- PCB ptr                                                   Ÿ
                                   32301              Ÿ                                                                     Ÿ
                                                      ¾þþþþþþþþþþþþþþþþþþþþþþþþþþþþþþþþþþþþþþþþþþþþþþþþþþþþþþþþþþþþþþþþþþþþþ»
0003992 50E0 D000/9028_      00000 32302              SAWRITE  XENTER
 USING  *,R7
 0039AC 185F                       32321                       LR    R5,R15
                                   32322
 0039AE 9140 C4C8/47E0_004C8       32323                       FAIL  CVFMEMPAGE,SAWRITE,'SAWRITE MEMPAGE logic error.'
                                   32350
 USING  PCB,R5                     32351                       WITH  (PCB,R5),BEGIN
 0039CE D502 768F 5000_0403B 00000 32365  1                      FAIL  (PCB,NE,'PCB'),PCBERR28,'Dispatcher PCB error.'
 0039F0 9180 501D/47E0_0001D       32394  1                      FAIL  PCBFIO,SAWRERR,'SAWRITE logic error.'
                                   32421  1
 003A10 5830 5020            00020 32422  1                      L     R3,PCBPTP           Old PT entry ptr
                                   32423  1
 003A14 8910 0004/5E10_      00004 32424  1                      GETPT R1
 003A1C 5010 5020            00020 32427  1                      ST    R1,PCBPTP           Set PT entry ptr
                                   32428  1
 003A20 9680 501E      0001E       32429  1                      SET   PCBFSYNC            Synchronous request
 003A24 D703 502C 502C 0002C 0002C 32435  1                      CLEAR PCBXECB             Make sure ECB is clear
 003A2A 4100 0005            00005 32442  1                      LA    R0,X'05'            Write CCW opcode
 003A2E 41F0 5000            00000 32443  1                      LA    R15,PCB             Buffer ptr
 003A32 4DE0 73DE            03D8A 32444  1                      LCALL SIO                 Do the I/O
 003A36 4100 0001/4110_      00001 32446  1                      WAIT  ECB=PCBXECB
                                   32453  1
 003A40 5030 5020            00020 32454  1                      ST    R3,PCBPTP           Restore old PT entry ptr
                                   32455  1
 003A44 957F 5075/4780_00075       32456  1                      FAIL  (PCBCOD,NE,X'7F'),SAWRERR,'Page I/O error.'
 003A64 947F 501E      0001E       32485  1                      CLEAR PCBFSYNC            Clear synchronous flag
 003A68 947F 501D/9200_0001D       32492  1                      CLEAR PCBFIO,PCBFPOST     Clear I/O flags
 003A70 D703 502C 502C 0002C 0002C 32504  1                      CLEAR PCBXECB
 DROP   PCB,R5                     32511                       END
 003A76 18D8/58E0 D000_            32519                       XEXIT
 DROP   *,R7                       32524                       DROP  BR
1DISP     (DISP2193) (12:42) (15MAR04) WYLBUR's Dispatcher                                                                  Page  103
0Current Usings:  (CP,R11) (CV,R12)
0Loc    Object Code    Addr1 Addr2  Stmt Lv Lineno    Source Statement           (Hibal 5, Asmedit 3.3)  HLASM R4.0  2004/03/15 12.42
+___    ______ ____    _____ _____  ____ __ ______    ______ _________
0                                  32532              ¿þþþþþþþþþþþþþþþþþþþþþþþþþþþþþþþþþþþþþþþþþþþþþþþþþþþþþþþþþþþþþþþþþþþþþÜ
                                   32533              Ÿ                                                                     Ÿ
                                   32534              Ÿ  SLICECHK -- Routine to check if this user's timeslice has          Ÿ
                                   32535              Ÿ    expired.                                                         Ÿ
                                   32536              Ÿ                                                                     Ÿ
                                                      ¾þþþþþþþþþþþþþþþþþþþþþþþþþþþþþþþþþþþþþþþþþþþþþþþþþþþþþþþþþþþþþþþþþþþþþ»
0003A82 50E0 D000/9008_      00000 32537              SLICECHK XPROC
 USING  *,R7
 003A9C B205 D000      00000       32577                       STCK  @R13
 003AA0 9823 D000            00000 32578                       LM    R2,R3,@R13          Current TOD clock
 003AA4 5F30 C634/47B0_      00634 32579                       SDL   R2,CVDSPCLK         Elapsed time this dispatch
                                   32584
 003AB2 9140 C4C4/47E0_004C4       32585                       IF    CVFPGROT,'LA R2,1'  Force page switching
                                   32606                       ¿þþþþþþþþþþþþþþþþþþþþþþþþþþþþþþþþþþþþþþþþþþþþþþþþþþþÜ
                                   32607                       Ÿ  A user's maximum elapsed timeslice has expired.  Ÿ
                                   32608                       ¾þþþþþþþþþþþþþþþþþþþþþþþþþþþþþþþþþþþþþþþþþþþþþþþþþþþ»
 003ABE 1222/4770 7030_            32609                       IF    ((R2,NZ),OR,(R3,LGT,CVSLICE)),BEGIN
 003ACC 4150 0001/5E50_      00001 32639  1                      INCR  R5,CVNSLICE         Count timeslice expiration
 003AD8 5860 C1C8            001C8 32645  1                      L     JCBR,CVCURJCB
 003ADC 18F6/9610 F062_            32646  1                      SETUP (JCBR)
 003AF2 41E0 7064/900F_      03B00 32672  1                      PAUSE
 003B00                            32679                       END
 003B00 18D8/9808 D004_            32683                       PEND
 DROP   *,R7
1DISP     (DISP2193) (12:42) (15MAR04) WYLBUR's Dispatcher                                                                  Page  104
0Current Usings:  (CP,R11) (CV,R12)
0Loc    Object Code    Addr1 Addr2  Stmt Lv Lineno    Source Statement           (Hibal 5, Asmedit 3.3)  HLASM R4.0  2004/03/15 12.42
+___    ______ ____    _____ _____  ____ __ ______    ______ _________
0                                  32704              ¿þþþþþþþþþþþþþþþþþþþþþþþþþþþþþþþþþþþþþþþþþþþþþþþþþþþþþþþþþþþþþþþþþþþþþÜ
                                   32705              Ÿ                                                                     Ÿ
                                   32706              Ÿ  PAGEMON -- Routine to periodically allocate/free page buffers      Ÿ
                                   32707              Ÿ    based on WYLBUR's current activity.  This routine must be        Ÿ
                                   32708              Ÿ    called by in "user mode" (i.e., not by the dispatcher            Ÿ
                                   32709              Ÿ    itself since we may have to wait the user when releasing         Ÿ
                                   32710              Ÿ    pages).                                                          Ÿ
                                   32711              Ÿ                                                                     Ÿ
                                                      ¾þþþþþþþþþþþþþþþþþþþþþþþþþþþþþþþþþþþþþþþþþþþþþþþþþþþþþþþþþþþþþþþþþþþþþ»
0003B0E 50E0 D000/9008_      00000 32712              PAGEMON  XPROC
 USING  *,R7
 003B28 1299/4780 701E_            32752                       FAIL  (PAR,NZ),PMONERR,'Page monitoring error.'
                                   32778
 003B46 9140 C4C8/4710_004C8       32779                       IF    CVFMEMPAGE,EXIT     No paging system, scram
                                   32797
 003B4E B205 D000      00000       32798                       STCK  @R13                Current time of day
 003B52 58F0 D000            00000 32799                       L     R15,@R13
 003B56 5BF0 70F4            03C1C 32800                       S     R15,PMONCLK         Number of seconds since last time
 003B5A BDF3 CA02/4740_      00A02 32801                       IF    (R15,LLT,CVPGSECS),EXIT  Too soon, scram
 003B62 D203 70F4 D000 03C1C 00000 32821                       MVC   PMONCLK,@R13        Save new clock
                                   32822
 003B68 58E0 74B8/0DEE       03FE0 32823                       ACALL CALCPGC             Re-calculate paging configuration
                                   32827                       ¿þþþþþþþþþþþþþþþþþþþþþþþþþþþþþþþþþþþþþþþþÜ
                                   32828                       Ÿ  Time to check paging activity again.  Ÿ
                                   32829                       ¾þþþþþþþþþþþþþþþþþþþþþþþþþþþþþþþþþþþþþþþþ»
 003B6E 1B55                       32830                       CLEAR R5                  Signed page get/free count
 003B70 4820 C660            00660 32834                       LH    R2,CV#IOSEC         Current page I/O's per second
 003B74 4920 CA0A/47D0_      00A0A 32835                       IF    (R2,GT,CVPGHI),BEGIN  Too high...
 003B7C 4150 0032            00032 32852  1                      LA    R5,50               Number of new pages to get
 003B80 4A50 C13E            0013E 32853  1                      AH    R5,CVNPG            Desired new total count
 003B84 4950 C144/47D0_      00144 32854  1                      CEIL  R5,CVPGMAX          Not too much now
 003B90 4B50 C13E            0013E 32860  1                      SH    R5,CVNPG            Number of new pages to get
 003B94                            32861                       END
                                   32865
 003B94 4920 CA08/47B0_      00A08 32866                       IF    (R2,LT,CVPGLO),BEGIN  Too low...
 003B9C 4850 C13E            0013E 32883  1                      LH    R5,CVNPG
 003BA0 4B50 74E8            04010 32884  1                      SH    R5,=H'5'            Number of pages to reduce
 003BA4 4950 C142/47B0_      00142 32885  1                      FLOOR R5,CVPGMIN          Not too small now
 003BB0 4B50 C13E            0013E 32891  1                      SH    R5,CVNPG            Neg number
 003BB4                            32892                       END
                                   32896                       ¿þþþþþþþþþþþþþþþþþþþþþþþþþþþþþþþþþþþþþþþþþþþþþþþþþÜ
                                   32897                       Ÿ  R5 is the signed number of pages to get/free.  Ÿ
                                   32898                       ¾þþþþþþþþþþþþþþþþþþþþþþþþþþþþþþþþþþþþþþþþþþþþþþþþþ»
 003BB4 1255/4780 709C             32899                       IF    (R5,NZ),BEGIN       Save monitoring info...
 003BBA 4050 C14E            0014E 32913  1                      STH   R5,CVPGADJ          Save adjustment page count
 003BBE D203 C150 70F4 00150 03C1C 32914  1                      MVC   CVPGCLK,PMONCLK     Save time of day
 003BC4                            32915                       END
                                   32919
 003BC4 1255                       32920                       LTR   R5,R5               Get more pages?
 003BC6 47D0 70B4            03BDC 32921                       IF    POS,BEGIN           Add page buffers...
 003BCA 1255/47D0 70B4             32932  1                      WHILE (R5,POS),BEGIN      Add a page at a time...
 003BD0 58E0 74BC/0DEE       03FE4 32948  2                        ACALL GETPCB              Add a page
 003BD6 0650                       32952  2                        DECR  R5
1DISP     (DISP2193) (12:42) (15MAR04) WYLBUR's Dispatcher                                                                  Page  105
0Current Usings:  (*,R7) (CP,R11) (CV,R12)
0Loc    Object Code    Addr1 Addr2  Stmt Lv Lineno    Source Statement           (Hibal 5, Asmedit 3.3)  HLASM R4.0  2004/03/15 12.42
+___    ______ ____    _____ _____  ____ __ ______    ______ _________
0003BD8 47F0 70A2            03BCA 32954  1                      END
 003BDC                            32959                       END
                                   32963
 003BDC 70B8/47F0 70E4 03BDC 03BC8 32964                       ELSE  BEGIN               Delete page buffers...
 003BE0 1055                       32975  1                      LPR   R5,R5               Number of pages to delete
 003BE2 1255/47D0 70E4             32976  1                      WHILE (R5,POS),BEGIN      Delete a page at a time...
 003BE8 58E0 74C0/0DEE       03FE8 32992  2                        ACALL FREEPCB             Free a page
 003BEE 4780 70DA            03C02 32996  2                        IF    NZ,BEGIN            No empty pages...
 003BF2 58E0 74C4/0DEE       03FEC 33007  3                          VCALL PGETNEW             Get a new page
 003BF8 4770 70DA/58E0_      03C02 33011  3                          IF    Z,'PFREE PAR,EMPTY'  Free it and put page on emptyQ
 003C02                            33033  2                        END
 003C02 70DE/47F0 70E0_03C02 03BF0 33037  2                        ELSE  'DECR R5'
 003C08 47F0 70BA            03BE2 33055  1                      END
 003C0C                            33060                       END
 003C0C 18D8/9808 D004_            33064                       PEND
 DROP   *,R7
                                   33084
 003C1A 0000
 003C1C 00000000                   33085              PMONCLK  DC    F'0'                Clock at last monitor check
1DISP     (DISP2193) (12:42) (15MAR04) WYLBUR's Dispatcher                                                                  Page  106
0Current Usings:  (CP,R11) (CV,R12)
0Loc    Object Code    Addr1 Addr2  Stmt Lv Lineno    Source Statement           (Hibal 5, Asmedit 3.3)  HLASM R4.0  2004/03/15 12.42
+___    ______ ____    _____ _____  ____ __ ______    ______ _________
0                                  33087              ¿þþþþþþþþþþþþþþþþþþþþþþþþþþþþþþþþþþþþþþþþþþþþþþþþþþþþþþþþþþþþþþþþþþþþþÜ
                                   33088              Ÿ                                                                     Ÿ
                                   33089              Ÿ  CALCPGC -- Routine to calculate the desired paging buffer          Ÿ
                                   33090              Ÿ    configuration.                                                   Ÿ
                                   33091              Ÿ                                                                     Ÿ
                                                      ¾þþþþþþþþþþþþþþþþþþþþþþþþþþþþþþþþþþþþþþþþþþþþþþþþþþþþþþþþþþþþþþþþþþþþþ»
0003C20 50E0 D000/9008_      00000 33092              CALCPGC  XPROC
 USING  *,R7
                                   33132                       ¿þþþþþþþþþþþþþþþþþþþþþþþþþþþþþþþþþþþþþþþþþþþþþþþþþþþþþþþÜ
                                   33133                       Ÿ  Switch from page-fixed page buffers to virtual page  Ÿ
                                   33134                       Ÿ    buffers during the low usage (non-day) hours.      Ÿ
                                   33135                       ¾þþþþþþþþþþþþþþþþþþþþþþþþþþþþþþþþþþþþþþþþþþþþþþþþþþþþþþþ»
 003C3A 9120 CA01/47E0_00A01       33136                       IF    CVPGFAUTO,BEGIN     Automaticly switch...
 003C42 4120 0063            00063 33151  1                      LA    R2,99               Assume non-day setting
                                   33152  1
 003C46 9102 C4C5/4710_004C5       33153  1                      IF    ~CVFTEST,BEGIN      Only check for day if prod...
 003C4E 58F0 0010            00010 33168  2                        L     R15,CVTPTR
 003C52 58F0 F0CC            000CC 33169  2                        WITH  (CVT,R15),'L R15,CVTUSER'
 USING  CVT,R15
 DROP   CVT,R15
 003C56 12FF/4780 7032_            33193  2                        IF    ((R15,NZ),AND,(@R15,EQ,'SCIP')),BEGIN
 003C66 1F22/4320 F00F             33222  3                          WITH  (USERCVT,R15),'LC R2,USEBLOCK'  Current time-block
 USING  USERCVT,R15
 DROP   USERCVT,R15
 003C6C                            33252  2                        END
 003C6C                            33256  1                      END
                                   33260  1
 003C6C 943F CA01      00A01       33261  1                      CLEAR CVPGFVIRT+CVPGFREAL
 003C70 1222/4780 7044_            33271  1                      IF    ((R2,Z),OR,(R2,EQ,4)),'SET CVPGFREAL'  Day/peak
 003C82 704C/47F0 7050_03C82 03C7C 33312  1                      ELSE  'SET CVPGFVIRT'     All other blocks
 003C8A                            33334                       END
                                   33338                       ¿þþþþþþþþþþþþþþþþþþþþþþþþþþþþþþþþþþþþþþþþþþþþþþþþþþþþþþþþþþþþÜ
                                   33339                       Ÿ  Check to see how much real memory is currently available  Ÿ
                                   33340                       Ÿ    to determine if we should use the large or small        Ÿ
                                   33341                       Ÿ    configuration.                                          Ÿ
                                   33342                       ¾þþþþþþþþþþþþþþþþþþþþþþþþþþþþþþþþþþþþþþþþþþþþþþþþþþþþþþþþþþþþ»
 003C8A 5840 0010            00010 33343                       L     R4,CVTPTR
 003C8E 5830 4490            00490 33344                       WITH  (CVT,R4),'L R3,CVTRCEP'  SRM RCE ptr
 USING  CVT,R4
 DROP   CVT,R4
 003C92 5820 3004            00004 33368                       L     R2,@R3+4            RCEPOOL = memory online & avail
 003C96 8820 0008            00008 33369                       SRL   R2,8                Amount in megabytes
                                   33370                       ¿þþþþþþþþþþþþþþþþþþþþþþþþÜ
                                   33371                       Ÿ  Large configuration.  Ÿ
                                   33372                       ¾þþþþþþþþþþþþþþþþþþþþþþþþ»
 003C9A 4920 CA0C/47D0_      00A0C 33373                       IF    (R2,GT,CVPGMEG),BEGIN  Large configuration...
 003CA2 D201 C142 CA04 00142 00A04 33390  1                      MVC   CVPGMIN,CVPGLMIN    Set large min
 003CA8 D201 C144 CA06 00144 00A06 33391  1                      MVC   CVPGMAX,CVPGLMAX    Set large max
 003CAE                            33392                       END
1DISP     (DISP2193) (12:42) (15MAR04) WYLBUR's Dispatcher                                                                  Page  107
0Current Usings:  (*,R7) (CP,R11) (CV,R12)
0Loc    Object Code    Addr1 Addr2  Stmt Lv Lineno    Source Statement           (Hibal 5, Asmedit 3.3)  HLASM R4.0  2004/03/15 12.42
+___    ______ ____    _____ _____  ____ __ ______    ______ _________
0                                  33396                       ¿þþþþþþþþþþþþþþþþþþþþþþþþÜ
                                   33397                       Ÿ  Small configuration.  Ÿ
                                   33398                       ¾þþþþþþþþþþþþþþþþþþþþþþþþ»
 003CAE 7078/47F0 70A4 03CAE 03CA0 33399                       ELSE  BEGIN               Small configuration...
 003CB2 D201 C142 CA0E 00142 00A0E 33410  1                      MVC   CVPGMIN,CVPGSMIN    Set small min
 003CB8 D601 C142 C142_00142 00142 33411  1                      IF    (CVPGMIN,Z),'MVC CVPGMIN,CVPGLMIN'  Or use large min
 003CC8 D201 C144 CA10 00144 00A10 33433  1                      MVC   CVPGMAX,CVPGSMAX    Set small max
 003CCE D601 C144 C144_00144 00144 33434  1                      IF    (CVPGMAX,Z),'MVC CVPGMAX,CVPGLMAX'  Or use large max
 003CDE                            33456                       END
                                   33460                       ¿þþþþþþþþþþþþþþþþþþþþþþþþþþþþþÜ
                                   33461                       Ÿ  Check for reasonableness.  Ÿ
                                   33462                       ¾þþþþþþþþþþþþþþþþþþþþþþþþþþþþþ»
 003CDE D501 C144 C142_00144 00142 33463                       IF    (CVPGMAX,LT,CVPGMIN),'MVC CVPGMAX,CVPGMIN'
                                   33487
 003CEE D501 73D8 C144_04012 00144 33488                       IF    (CVPGMAX,LT,10),'MVC CVPGMAX,=H"10"'  Too little
 003CFE D501 73D8 C142_04012 00142 33512                       IF    (CVPGMIN,LT,10),'MVC CVPGMIN,=H"10"'  Ditto
                                   33536
 003D0E D501 73DC C144_04016 00144 33537                       IF    (CVPGMAX,GT,8000),'MVC CVPGMAX,=H"8000"'  Too large
 003D1E D501 73DC C142_04016 00142 33561                       IF    (CVPGMIN,GT,8000),'MVC CVPGMIN,=H"8000"'  Ditto
                                   33585
 003D2E 1BFF                       33586                       CLEAR R15                 Neatness
 003D30 18D8/9808 D004_            33590                       PEND
 DROP   *,R7
1DISP     (DISP2193) (12:42) (15MAR04) WYLBUR's Dispatcher                                                                  Page  108
0Current Usings:  (CP,R11) (CV,R12)
0Loc    Object Code    Addr1 Addr2  Stmt Lv Lineno    Source Statement           (Hibal 5, Asmedit 3.3)  HLASM R4.0  2004/03/15 12.42
+___    ______ ____    _____ _____  ____ __ ______    ______ _________
0                                  33611              ¿þþþþþþþþþþþþþþþþþþþþþþþþþþþþþþþþþþþþþþþþþþþþþþþþþþþþþþþþþþþþþþþþþþþþþÜ
                                   33612              Ÿ                                                                     Ÿ
                                   33613              Ÿ  PREAD -- Local routine to queue a page read.                       Ÿ
                                   33614              Ÿ                                                                     Ÿ
                                   33615              Ÿ    On entry:                                                        Ÿ
                                   33616              Ÿ      R15- PCB ptr                                                   Ÿ
                                   33617              Ÿ                                                                     Ÿ
                                                      ¾þþþþþþþþþþþþþþþþþþþþþþþþþþþþþþþþþþþþþþþþþþþþþþþþþþþþþþþþþþþþþþþþþþþþþ»
0003D3E 50E0 D000/9028_      00000 33618              PREAD    XENTER R2,R8,,LOCAL
 USING  *,R7
 003D58 4100 0006            00006 33636                       LA    R0,X'06'            Read CCW opcode
 003D5C 5870 72A4            03FFC 33637                       BASE  SIOBASE
 DROP   *,R7
 USING  SIOBASE,R7
 003D60 47F0 7000            03DA6 33655                       B     SIOCOM
                                   33656
 DROP   SIOBASE,R7                 33657                       DROP  BR
-                                  33665              ¿þþþþþþþþþþþþþþþþþþþþþþþþþþþþþþþþþþþþþþþþþþþþþþþþþþþþþþþþþþþþþþþþþþþþþÜ
                                   33666              Ÿ                                                                     Ÿ
                                   33667              Ÿ  PWRITE -- Local routine to queue a page write.                     Ÿ
                                   33668              Ÿ                                                                     Ÿ
                                   33669              Ÿ    On entry:                                                        Ÿ
                                   33670              Ÿ      R15- PCB ptr                                                   Ÿ
                                   33671              Ÿ                                                                     Ÿ
                                                      ¾þþþþþþþþþþþþþþþþþþþþþþþþþþþþþþþþþþþþþþþþþþþþþþþþþþþþþþþþþþþþþþþþþþþþþ»
0003D64 50E0 D000/9028_      00000 33672              PWRITE   XENTER R2,R8,,LOCAL
 USING  *,R7
 003D7E 4100 0005            00005 33690                       LA    R0,X'05'            Write CCW opcode
 003D82 5870 727E            03FFC 33691                       BASE  SIOBASE
 DROP   *,R7
 USING  SIOBASE,R7
 003D86 47F0 7000            03DA6 33709                       B     SIOCOM
                                   33710
 DROP   SIOBASE,R7                 33711                       DROP  BR
-                                  33719              ¿þþþþþþþþþþþþþþþþþþþþþþþþþþþþþþþþþþþþþþþþþþþþþþþþþþþþþþþþþþþþþþþþþþþþþÜ
                                   33720              Ÿ                                                                     Ÿ
                                   33721              Ÿ  SIO -- Routine to start a page I/O operation.                      Ÿ
                                   33722              Ÿ                                                                     Ÿ
                                   33723              Ÿ    On entry:                                                        Ÿ
                                   33724              Ÿ      R0 - CCW read/write opcode                                     Ÿ
                                   33725              Ÿ      R15- PCB ptr                                                   Ÿ
                                   33726              Ÿ                                                                     Ÿ
                                                      ¾þþþþþþþþþþþþþþþþþþþþþþþþþþþþþþþþþþþþþþþþþþþþþþþþþþþþþþþþþþþþþþþþþþþþþ»
0003D8A 50E0 D000/9028_      00000 33727              SIO      XENTER R2,R8,,LOCAL
 USING  *,R7
                                   33745
 003DA4 0D70                       33746                       BASE
1DISP     (DISP2193) (12:42) (15MAR04) WYLBUR's Dispatcher                                                                  Page  109
0Current Usings:  (*,R7) (CP,R11) (CV,R12)
0Loc    Object Code    Addr1 Addr2  Stmt Lv Lineno    Source Statement           (Hibal 5, Asmedit 3.3)  HLASM R4.0  2004/03/15 12.42
+___    ______ ____    _____ _____  ____ __ ______    ______ _________
0DROP   *,R7
 USING  *,R7
 003DA6                            33763              SIOBASE  LABEL
                                   33765
 003DA6 9140 C4C8/47E0_004C8       33766              SIOCOM   FAIL  CVFMEMPAGE,SIOERR,'MEMPAGE logic error.'
                                   33794
 003DC6 184F                       33795                       LR    R4,R15              Copy PCB ptr
 USING  PCB,R4                     33796                       USING PCB,R4
 003DC8 D502 7295 4000_0403B 00000 33805                       FAIL  (PCB,NE,'PCB'),PCBERR29,'Dispatcher PCB error.'
                                   33834
 003DEA D603 400C 400C_0000C 0000C 33835                       IF    (PCBQF,NZ),BEGIN    Could be trouble...
 003DF4 9180 401E/4710_0001E       33851  1                      IF    PCBFSYNC,EXIT       Ok if SAREAD/SAWRITE
 003DFC 900F C780/4DE0_      00780 33869  1                      KAPUT SIOERR,'Dispatcher error.'
 003E14                            33876                       END
                                   33880
 003E14 5850 4008            00008 33881                       L     R5,PCBBUFP
 003E18 4B50 7266            0400C 33882                       SH    R5,=AL2(PBUFUSER-PBUF)
 USING  PBUF,R5                    33883                       USING PBUF,R5
 003E1C D503 7226 5000_03FCC 00000 33892                       FAIL  (PBUF,NE,'PBUF'),PBUFERR9,'PBUF logic error.'
                                   33921
 003E3E 4200 5020            00020 33922                       STC   R0,PCCWRW           Set read/write CCW opcode
 003E42 5900 725A/4770_      04000 33923                       IF    (R0,EQ,X'05'),'SET PCBFIOWR'  I/O operation is write
                                   33951
 003E4E 58F0 4020            00020 33952                       L     R15,PCBPTP
 USING  PT,R15                     33953                       WITH  (PT,R15),BEGIN
 003E52 5810 F000            00000 33967  1                      L     R1,PTPNO            Our pageno
 003E56 5820 F004            00004 33968  1                      L     R2,PTPFCBP          Our PFCB ptr
 DROP   PT,R15                     33969                       END
                                   33977
 USING  PFCB,R2                    33978                       USING PFCB,R2
                                   33987
 003E5A 1B00                       33988                       CLEAR R0                  Compute ttrn
 003E5C 5B10 201C            0001C 33992                       S     R1,PFCBFPNO         Relative to first PFCB pageno
 003E60 0610                       33993                       DECR  R1
 003E62 5D00 2014            00014 33995                       D     R0,PFCBRPT
 003E66 5E00 725E            04004 33996                       AL    R0,=F'1'
                                   33997
 003E6A D203 4078 2018 00078 00018 33998                       MVC   PCBIOSB+(IOSUCB-IOSB)(4),PFCBUCBP  UCB ptr in IOSB
                                   33999
 003E70 9203 5008      00008       34000                       MVI   PCCWSECT,X'03'      NOP CCW (for non-RPS)
 003E74 9140 2058/47E0_00058       34001                       IF    PFCBFRPS,BEGIN      RPS device...
 003E7C 9223 5008      00008       34016  1                      MVI   PCCWSECT,X'23'      Set Sector CCW
 003E80 1830                       34017  1                      LR    R3,R0               Put record no. in R3
 003E82 4333 205B            0005B 34018  1                      IC    R3,PFCBSECT-1(R3)   Pick up sector value
 003E86 4230 5030            00030 34019  1                      STC   R3,PBUFSECT         Save in PBUF for set sector
 003E8A                            34020                       END
                                   34024
 003E8A 8900 0008            00008 34025                       SLL   R0,8
 003E8E 8910 0010            00010 34026                       SLL   R1,16
 003E92 1601                       34027                       OR    R0,R1               Ttrz
 003E94 4110 2070            00070 34028                       LA    R1,PFCBDCB          Point to DCB
 DROP   PFCB,R2                    34029                       DROP  PFCB
 003E98 5810 102C            0002C 34037                       L     R1,DCBDEBAD-IHADCB(,R1)  DEB addr
 003E9C 4120 5028            00028 34038                       LA    R2,PBUFSEEK
1DISP     (DISP2193) (12:42) (15MAR04) WYLBUR's Dispatcher                                                                  Page  110
0Current Usings:  (PCB,R4) (PBUF,R5) (*,R7) (CP,R11) (CV,R12)
0Loc    Object Code    Addr1 Addr2  Stmt Lv Lineno    Source Statement           (Hibal 5, Asmedit 3.3)  HLASM R4.0  2004/03/15 12.42
+___    ______ ____    _____ _____  ____ __ ______    ______ _________
0003EA0 909F D000/41D0_      00000 34039                       XPUSH R9,R15              IECPCNVT only preserves R3-R8
 003EA8 183D                       34042                       LR    R3,R13
 003EAA 58F0 0010            00010 34043                       L     R15,16
 003EAE 58F0 F01C            0001C 34044                       L     R15,28(,R15)        Ep to conversion routine
 003EB2 0DEF                       34045                       BASR  R14,R15             Go convert
 003EB4 18D3                       34046                       LR    R13,R3              Restore
 003EB6 4BD0 7274/989F_      0401A 34047                       XPOP  R9,R15              ..our regs
                                   34050                       ¿þþþþþþþþþþþþþþþþþþþÜ
                                   34051                       Ÿ  Do the STARTIO.  Ÿ
                                   34052                       ¾þþþþþþþþþþþþþþþþþþþ»
 003EBE 9180 401D/47E0_0001D       34053                       FAIL  PCBFIO,SIO,'SIO logic problem.'
 003EDE 9680 401D      0001D       34080                       SET   PCBFIO              I/O now in progress
                                   34086
 003EE2 9180 401E/4710_0001E       34087                       IF    ~PCBFSYNC,BEGIN     Asynchronous I/O...
 003EEA D603 400C 400C_0000C 0000C 34102  1                      FAIL  (PCBQF,NZ),SIO2,'SIO queue problem.'
 003F0C D703 4028 4028 00028 00028 34130  1                      CLEAR PCBPOSTL            Clear link
 003F12                            34137                       END
                                   34141
 003F12 0700/4510 7176_            34142                       MODESET MODE=SUP          ********
                                   34149
 003F22 41F0 4068            00068 34150                       LA    R15,PCBIOSB         IOSB ptr
 USING  IOSB,R15                   34151                       WITH  (IOSB,R15),BEGIN
 003F26 92C0 F000      00000       34165  1                      SET   (IOSFLA.IOSACHN,EQ) Set chain & clear error
 003F2A D207 F05C 5028 0005C 00028 34173  1                      MVC   IOSEEK,PBUFSEEK     Set seek address
 003F30 D207 F064 5028 00064 00028 34174  1                      MVC   IOSEEKA,PBUFSEEK    Ditto
 003F36 9200 F003      00003       34175  1                      CLEAR IOSPROC             CLEAR
 003F3A D703 F034 F034 00034 00034 34182  1                      CLEAR IOSERP                ERROR
 003F40 D703 F02C F02C 0002C 0002C 34189  1                      CLEAR IOSIPIB                 FIELDS
 DROP   IOSB,R15                   34196                       END
                                   34204
 003F46 B205 4030      00030       34205                       STCK  PCBCLCK             Save TOD clock when I/O starts
                                   34206
 003F4A B20B 0000/B20A_            34207                       MODESET EXTKEY=ZERO,SAVEKEY=(2)  Get into key zero
 003F52 18FB/180C/181D_            34211                       SETLOCK OBTAIN,TYPE=LOCAL,MODE=UNCOND,REGS=USE,RELATED=SIO
 003F6A 900F D000            00000 34225                       STM   R0,R15,@R13         Save regs
 003F6E 4110 4038            00038 34226                       LA    R1,PCBSRB           SRB pointer
 003F72 1111/58F0 0010_            34227                       STARTIO SRB=(1),TCB=SRB
 003F82 980F D000            00000 34234                       LM    R0,R15,@R13         Restore regs
 003F86 18FB/180C/181D_            34235                       SETLOCK RELEASE,TYPE=LOCAL,REGS=USE,RELATED=SIO
 003F9E B20A 2000      00000       34249                       MODESET KEYADDR=(2)       Back to our key
                                   34252
 003FA2 0700/4510 7206_            34253                       MODESET MODE=PROB         ********
 003FB2 18D8/58E0 D000_            34260                       XEXIT
 DROP   PCB,R4                     34265                       DROP  PCB,PBUF,BR
 DROP   PBUF,R5
 DROP   *,R7
                                   34286
                                   34287                       QLTORG
1DISP     (DISP2193) (12:42) (15MAR04) WYLBUR's Dispatcher                                                                  Page  111
0Current Usings:  (CP,R11) (CV,R12)
0Loc    Object Code    Addr1 Addr2  Stmt Lv Lineno    Source Statement           (Hibal 5, Asmedit 3.3)  HLASM R4.0  2004/03/15 12.42
+___    ______ ____    _____ _____  ____ __ ______    ______ _________
0                                  34331              ¿þþþþþþþþþþþþþþþþþþþþþþþþþþþþþþþþþþþþþþþþþþþþþþþþþþþþþþþþþþþþþþþþþþþþþÜ
                                   34332              Ÿ                                                                     Ÿ
                                   34333              Ÿ  GETCOREX -- Same as GETCORE, but lets the caller specify the       Ÿ
                                   34334              Ÿ              subpool.                                               Ÿ
                                   34335              Ÿ                                                                     Ÿ
                                   34336              Ÿ    WYLBUR Subpool usage:                                            Ÿ
                                   34337              Ÿ          10   -- GETCORE requests.                                  Ÿ
                                   34338              Ÿ          15   -- GETCORE requests satisfied from CELL POOLS         Ÿ
                                   34339              Ÿ          20   -- Storage for CPs.                                   Ÿ
                                   34340              Ÿ          30   -- Storage for PBUFs (page buffers).                  Ÿ
                                   34341              Ÿ          40   -- Storage for stacks                                 Ÿ
                                   34342              Ÿ          45   -- Storage for heaps                                  Ÿ
                                   34343              Ÿ          50   -- TTYPE entries.               <== to do             Ÿ
                                   34344              Ÿ          60   -- IOWAs (disk/subtask buffers).                      Ÿ
                                   34345              Ÿ          70   -- Spelling Dictionary.         <== to do             Ÿ
                                   34346              Ÿ          80   -- SHOW CATALOG jumbo buffer.                         Ÿ
                                   34347              Ÿ          90   -- HCMDs (history command entries).                   Ÿ
                                   34348              Ÿ                                                                     Ÿ
                                   34349              Ÿ    On entry:                                                        Ÿ
                                   34350              Ÿ      R0 - no. of bytes needed                                       Ÿ
                                   34351              Ÿ      R15 - subpool number (GETCOREX entry only)                     Ÿ
                                   34352              Ÿ                                                                     Ÿ
                                   34353              Ÿ    On exit:                                                         Ÿ
                                   34354              Ÿ      R1 - addr of memory                                            Ÿ
                                   34355              Ÿ      R0 - no. of bytes obtained (ge needed)                         Ÿ
                                   34356              Ÿ                                                                     Ÿ
                                                      ¾þþþþþþþþþþþþþþþþþþþþþþþþþþþþþþþþþþþþþþþþþþþþþþþþþþþþþþþþþþþþþþþþþþþþþ»
0004068 50E0 D000/9008_      00000 34357              GETCOREX XPROC
 USING  *,R7
 004082 186E                       34397                       LR    R6,RAR              Save callers addr
 004084 183F                       34398                       LR    R3,R15              Save desired subpool number
                                   34399
 004086 4A00 7086            04108 34400                       AH    R0,=H'7'
 00408A 5400 707E            04100 34401                       N     R0,=F'-8'           Doubleword
 00408E 4A00 7088            0410A 34402                       AH    R0,=H'16'           Overhead
 004092 1840                       34403                       LR    R4,R0               Save length for later
                                   34405                       GETMAIN RU,LV=(0),SP=(R3),LOC=ANY  Get memory
 004094                            34407    01-GETMA +         CNOP  0,4
 004094 47F0 701A            0409C 34408    01-GETMA +         B     IHB13478C          BRANCH AROUND DATA
 004098 00                         34409    01-GETMA +IHB13478F DC   BL1'00000000'                         Flags.        @L7C
 004099 00                         34410    01-GETMA +         DC    AL1(0)             RESERVED
 00409A 72                         34411    01-GETMA +         DC    BL1'01110010'                 MODE BYTE         @G860P30
 00409C                            34412    01-GETMA +IHB13478C DS    0H
 00409C 18F3                       34413    01-GETMA +         LR    15,R3                             OBTAIN SUBPOOL ID
 00409E 89F0 0008            00008 34414    01-GETMA +         SLL   15,8(0)                    MOVE SUBPOOL TO BYTE 2 YM1995
 0040A2 BFFD 7016            04098 34415    01-GETMA +         ICM   15,13,IHB13478F                   ADD REMAINING PARMS
 0040A6 1B11                       34416    01-GETMA +         SR    1,1                     ZERO RESERVED REG 1
 0040A8 0A78                       34417    01-GETMA +         SVC   120                     ISSUE GETMAIN SVC
 0040AA D202 1000 708C 00000 0410E 34419                       MVC   @R1(3),=C'MEM'      Identifier
 0040B0 4230 1003            00003 34420                       STC   R3,@R1+3            Save subpool number
                                   34421
 0040B4 5040 1004            00004 34422                       ST    R4,@R1+4            Len
 0040B8 5060 1008            00008 34423                       ST    R6,@R1+8            Caller's addr (for debugging)
1DISP     (DISP2193) (12:42) (15MAR04) WYLBUR's Dispatcher                                                                  Page  112
0Current Usings:  (*,R7) (CP,R11) (CV,R12)
0Loc    Object Code    Addr1 Addr2  Stmt Lv Lineno    Source Statement           (Hibal 5, Asmedit 3.3)  HLASM R4.0  2004/03/15 12.42
+___    ______ ____    _____ _____  ____ __ ______    ______ _________
00040BC 41F4 1000            00000 34424                       LA    R15,@R1(R4)
 0040C0 4BF0 708A            0410C 34425                       SH    R15,=H'4'
 0040C4 D203 F000 7082 00000 04104 34426                       MVC   @R15(4),=C'MEND'    Ending identifier
                                   34427
 0040CA 5820 C6C8            006C8 34428                       L     R2,CVMEMTOT         Keep count of bytes...
 0040CE 1A24                       34429                       AR    R2,R4               ...allocated
 0040D0 5020 C6C8            006C8 34430                       ST    R2,CVMEMTOT         ...by GETCORE
                                   34431
 0040D4 4110 100C            0000C 34432                       LA    R1,@R1+12           Skip past overhead prefix
 0040D8 1804                       34433                       LR    R0,R4
 0040DA 4B00 7088            0410A 34434                       SH    R0,=H'16'           Deduct overhead
                                   34435
 0040DE 41F0 0001/5EF0_      00001 34436                       INCR  R15,CV#CNT1         Count 'em
                                   34442
 0040EA 9001 8004            00004 34443                       PRETURN (R0,R1)           Return len, loc
 0040EE 1BFF                       34445                       CLEAR R15                 Always good rc
 0040F0 18D8/9808 D004_            34449                       PEND
 DROP   *,R7
                                   34469                       QLTORG ,
1DISP     (DISP2193) (12:42) (15MAR04) WYLBUR's Dispatcher                                                                  Page  113
0Current Usings:  (CP,R11) (CV,R12)
0Loc    Object Code    Addr1 Addr2  Stmt Lv Lineno    Source Statement           (Hibal 5, Asmedit 3.3)  HLASM R4.0  2004/03/15 12.42
+___    ______ ____    _____ _____  ____ __ ______    ______ _________
0                                  34488              ¿þþþþþþþþþþþþþþþþþþþþþþþþþþþþþþþþþþþþþþþþþþþþþþþþþþþþþþþþþþþþþþþþþþþþþÜ
                                   34489              Ÿ                                                                     Ÿ
                                   34490              Ÿ  GETCORE -- Routine to get memory.                                  Ÿ
                                   34491              Ÿ                                                                     Ÿ
                                   34492              Ÿ    On entry:                                                        Ÿ
                                   34493              Ÿ      R0 - no. of bytes needed                                       Ÿ
                                   34494              Ÿ      R15 - subpool number (GETCOREX entry only)                     Ÿ
                                   34495              Ÿ                                                                     Ÿ
                                   34496              Ÿ    On exit:                                                         Ÿ
                                   34497              Ÿ      R1 - addr of memory                                            Ÿ
                                   34498              Ÿ      R0 - no. of bytes obtained (ge needed)                         Ÿ
                                   34499              Ÿ                                                                     Ÿ
                                                      ¾þþþþþþþþþþþþþþþþþþþþþþþþþþþþþþþþþþþþþþþþþþþþþþþþþþþþþþþþþþþþþþþþþþþþþ»
0004112 50E0 D000/9008_      00000 34500              GETCORE  XPROC
 USING  *,R7
 00412C 4A00 7184            042B0 34540                       AH    R0,=H'7'
 004130 5400 716C            04298 34541                       N     R0,=F'-8'           Doubleword
                                   34542
 004134 5900 7170/4730_      0429C 34543                       IF    (R0,LE,=F'1024'),BEGIN Use a cell pool
 00413C 41F0 707C            041A8 34559  1                      LA    R15,CEL0TO1K
 USING  CELLBLOK,R15               34560  1                      USING CELLBLOK,R15
 004140 4A00 7186            042B2 34569  1                      AH    R0,=H'16'           Account for memory overhead
 004144 5900 F01C/47D0_      0001C 34570  1                      WHILE (R0,GT,CELSIZE),BEGIN
 00414C 41F0 F028            00028 34589  2                        LA    R15,L'CELLBLOK(,R15)
 004150 47F0 7018            04144 34590  1                      END
 DROP   CELLBLOK,R15               34595  1                      DROP  R15
 004154 186F                       34602  1                      LR    R6,R15              Copy for later
 004156 58E0 7174/0DEE       042A0 34603  1                      ACALL GETPOOL
                                   34607  1           *
                                   34608  1           * Set up memory overhead data
                                   34609  1           *
 00415C D203 1000 7178 00000 042A4 34610  1                      MVC   @R1(4),=C'POOL'     Identifier
 004162 5000 1004            00004 34611  1                      ST    R0,@R1+4            Actual len
 004166 5060 1008            00008 34612  1                      ST    R6,@R1+8            Save cell block address
 00416A 18F1                       34613  1                      LR    R15,R1
 00416C 1AF0                       34614  1                      AR    R15,R0
 00416E 4BF0 7188            042B4 34615  1                      SH    R15,=H'4'
 004172 D203 F000 717C 00000 042A8 34616  1                      MVC   @R15(4),=C'MEND'    Ending identifier
                                   34617  1
 004178 4110 100C            0000C 34618  1                      LA    R1,@R1+12           Skip past overhead prefix
 00417C 4B00 7186            042B2 34619  1                      SH    R0,=H'16'           Deduct overhead
 004180                            34620                       END
 004180 7058/47F0 7062 04180 0413A 34624                       ELSE  BEGIN
 004184 41F0 000A            0000A 34635  1                      LA    R15,10              Use subpool 10
 004188 58E0 7180/0DEE       042AC 34636  1                      ACALL GETCOREX
 00418E                            34640                       END
                                   34644
 00418E 9001 8004            00004 34645                       PRETURN (R0,R1)           Return len, loc
 004192 1BFF                       34647                       CLEAR R15                 Always good rc
 004194 18D8/9808 D004_            34651                       PEND
 DROP   *,R7
                                   34671              *
                                   34672              * Arrays of cell blocks used for quick allocation of certain
1DISP     (DISP2193) (12:42) (15MAR04) WYLBUR's Dispatcher                                                                  Page  114
0Current Usings:  (CP,R11) (CV,R12)
0Loc    Object Code    Addr1 Addr2  Stmt Lv Lineno    Source Statement           (Hibal 5, Asmedit 3.3)  HLASM R4.0  2004/03/15 12.42
+___    ______ ____    _____ _____  ____ __ ______    ______ _________
0                                  34673              * memory sizes.
                                   34674              *
 0041A8 C3C5D3D3C2D3D6D2_          34675              CEL0TO1K CELLBLOK SIZE=32+16,SUBPOOL=15  For up to 1K allocations
 0041D0 C3C5D3D3C2D3D6D2_          34686                       CELLBLOK SIZE=64+16,SUBPOOL=15
 0041F8 C3C5D3D3C2D3D6D2_          34697                       CELLBLOK SIZE=128+16,SUBPOOL=15
 004220 C3C5D3D3C2D3D6D2_          34708                       CELLBLOK SIZE=256+16,SUBPOOL=15
 004248 C3C5D3D3C2D3D6D2_          34719                       CELLBLOK SIZE=512+16,SUBPOOL=15
 004270 C3C5D3D3C2D3D6D2_          34730                       CELLBLOK SIZE=1024+16,SUBPOOL=15
                                   34741                       QLTORG ,
1DISP     (DISP2193) (12:42) (15MAR04) WYLBUR's Dispatcher                                                                  Page  115
0Current Usings:  (CP,R11) (CV,R12)
0Loc    Object Code    Addr1 Addr2  Stmt Lv Lineno    Source Statement           (Hibal 5, Asmedit 3.3)  HLASM R4.0  2004/03/15 12.42
+___    ______ ____    _____ _____  ____ __ ______    ______ _________
0                                  34763              ¿þþþþþþþþþþþþþþþþþþþþþþþþþþþþþþþþþþþþþþþþþþþþþþþþþþþþþþþþþþþþþþþþþþþþþÜ
                                   34764              Ÿ                                                                     Ÿ
                                   34765              Ÿ  FREECORE -- Routine to release memory.                             Ÿ
                                   34766              Ÿ                                                                     Ÿ
                                   34767              Ÿ    On entry:                                                        Ÿ
                                   34768              Ÿ      R1 - address of memory being released                          Ÿ
                                   34769              Ÿ                                                                     Ÿ
                                                      ¾þþþþþþþþþþþþþþþþþþþþþþþþþþþþþþþþþþþþþþþþþþþþþþþþþþþþþþþþþþþþþþþþþþþþþ»
00042B6 50E0 D000/9008_      00000 34770              FREECORE XPROC
 USING  *,R7
 0042D0 186E                       34810                       LR    R6,RAR              Save caller's addr
 0042D2 4B10 70D8            043A8 34811                       SH    R1,=H'12'           Backup for prefix
 0042D6 5840 1004            00004 34812                       L     R4,@R1+4            Get length
 0042DA 41F4 1000            00000 34813                       LA    R15,@R1(R4)
 0042DE 4BF0 70DA            043AA 34814                       SH    R15,=H'4'
 0042E2 D503 70C8 F000_04398 00000 34815                       FAIL  (@R15,NE,'MEND'),FREECORE,'Freecore overrun error.'
                                   34843
 004304 D503 70CC 1000_0439C 00000 34844                       IF    (@R1,EQ,'POOL'),BEGIN
 00430E 58F0 1008            00008 34860  1                      L     R15,@R1+8           Get cell block address
 004312 58E0 70D0/0DEE       043A0 34861  1                      ACALL FREEPOOL
 004318                            34865                       END
                                   34869
 004318 704C/47F0 70B2 04318 0430C 34870                       ELSE  BEGIN
 00431C D502 70DC 1000_043AC 00000 34881  1                      FAIL  (@R1,NE,'MEM'),FREECORE,'Freecore error.'
 00433E 1F33/4330 1003             34909  1                      LC    R3,@R1+3            Subpool number
                                   34916  1
 004344 D202 1000 70DF 00000 043AF 34917  1                      MVC   @R1(3),=C'FRM'      Tag as free
 00434A 5060 1008            00008 34918  1                      ST    R6,@R1+8
 00434E D203 F000 70D4 00000 043A4 34919  1                      MVC   @R15(4),=C'FEND'    Ending tag
 004354 47F0 708C/00/0_      0435C 34920  1                      FREEMAIN RU,A=(R1),LV=(R4),SP=(R3)  Release memory
                                   34933  1
 00436C 5820 C6C8            006C8 34934  1                      L     R2,CVMEMTOT         Keep count of bytes...
 004370 1B24                       34935  1                      SR    R2,R4               ...allocated
 004372 5020 C6C8            006C8 34936  1                      ST    R2,CVMEMTOT         ...by GETCORE
                                   34937  1
 004376 41F0 0001/5EF0_      00001 34938  1                      INCR  R15,CV#CNT2         Count 'em
 004382                            34944                       END
                                   34948
 004382 1B11                       34949                       CLEAR R1
 004384 5018 0008            00008 34953                       PRETURN (R1)              Return loc of zero (tidy)
                                   34955
 004388 1BFF                       34956                       CLEAR R15                 Always good rc
 00438A 18D8/9808 D004_            34960                       PEND
 DROP   *,R7
                                   34980                       QLTORG ,
1DISP     (DISP2193) (12:42) (15MAR04) WYLBUR's Dispatcher                                                                  Page  116
0Current Usings:  (CP,R11) (CV,R12)
0Loc    Object Code    Addr1 Addr2  Stmt Lv Lineno    Source Statement           (Hibal 5, Asmedit 3.3)  HLASM R4.0  2004/03/15 12.42
+___    ______ ____    _____ _____  ____ __ ______    ______ _________
0                                  35001              ¿þþþþþþþþþþþþþþþþþþþþþþþþþþþþþþþþþþþþþþþþþþþþþþþþþþþþþþþþþþþþþþþþþþþþþÜ
                                   35002              Ÿ                                                                     Ÿ
                                   35003              Ÿ  GETPOOL -- Get a cell from a pool.                                 Ÿ
                                   35004              Ÿ                                                                     Ÿ
                                   35005              Ÿ    On entry:                                                        Ÿ
                                   35006              Ÿ      R15 - points to cell block.                                    Ÿ
                                   35007              Ÿ                                                                     Ÿ
                                   35008              Ÿ    On exit:                                                         Ÿ
                                   35009              Ÿ      R0 - size of cell                                              Ÿ
                                   35010              Ÿ      R1 - addr of cell                                              Ÿ
                                   35011              Ÿ                                                                     Ÿ
                                   35012              Ÿ    Note: This code is from the IBM ESA/390 Principles               Ÿ
                                   35013              Ÿ          of Operation pg A-48 with embellishments for               Ÿ
                                   35014              Ÿ          counters.                                                  Ÿ
                                   35015              Ÿ                                                                     Ÿ
                                   35016              Ÿ          When we make use of trimming the free list                 Ÿ
                                   35017              Ÿ          back, we'll need to switch to the Perform                  Ÿ
                                   35018              Ÿ          Locked Operation instruction.                              Ÿ
                                   35019              Ÿ                                                                     Ÿ
                                                      ¾þþþþþþþþþþþþþþþþþþþþþþþþþþþþþþþþþþþþþþþþþþþþþþþþþþþþþþþþþþþþþþþþþþþþþ»
00043B2 50E0 D000/9008_      00000 35020              GETPOOL  XPROC
 USING  *,R7
 0043CC D507 70B4 F000_04480 00000 35060                       FAIL  (@R15,NE,'CELLBLOK'),GETPOOL,'Not a cell block'
 0043EE 186F                       35088                       LR    R6,R15
 USING  CELLBLOK,R6                35089                       WITH  (CELLBLOK,R6)
 0043F0 9823 6008            00008 35102                       LM    R2,R3,CELFHDR
 0043F4                            35103              GTPLAGN  LABEL
 0043F4 1222/4780 7052             35105                       IF    (R2,NZ),BEGIN
 0043FA 5800 2000            00000 35119  1                      L     R0,0(,R2)
 0043FE 1813                       35120  1                      LR    R1,R3               Copy the counter
 004400 BB20 6008            00008 35121  1                      CDS   2,0,CELFHDR         Update the free list
 004404 4770 7028            043F4 35122  1                      BNE   GTPLAGN             Try again if update failed
 004408 1812                       35123  1                      LR    R1,R2               Copy address to R1
                                   35124  1           *
                                   35125  1           *  Update the count of free cells
                                   35126  1           *
 00440A 4120 0001            00001 35127  1                      LA    R2,1                Update the count of
 00440E 5830 6010            00010 35128  1                      L     R3,CELFCNT            free cells
 004412 1843                       35129  1           GTPUPD0    LR    R4,R3
 004414 1B42                       35130  1                      SR    R4,R2
 004416 BA34 6010            00010 35131  1                      CS    R3,R4,CELFCNT
 00441A 4770 7046            04412 35132  1                      BNE   GTPUPD0
 00441E                            35133                       END
                                   35137
 00441E 7056/47F0 708A 0441E 043F8 35138                       ELSE  BEGIN
 004422 5800 601C            0001C 35149  1                      L     R0,CELSIZE          Size we need
 004426 5830 6020            00020 35150  1                      L     R3,CELSUBP          and subpool
                                   35152  1                      GETMAIN RU,LV=(0),SP=(R3),LOC=ANY  Get memory
 00442A 0700                       35154  1 01-GETMA +           CNOP  0,4
 00442C 47F0 7068            04434 35155  1 01-GETMA +           B     IHB13795C          BRANCH AROUND DATA
 004430 00                         35156  1 01-GETMA +IHB13795F   DC   BL1'00000000'                         Flags.        @L7C
 004431 00                         35157  1 01-GETMA +           DC    AL1(0)             RESERVED
 004432 72                         35158  1 01-GETMA +           DC    BL1'01110010'                 MODE BYTE         @G860P30
1DISP     (DISP2193) (12:42) (15MAR04) WYLBUR's Dispatcher                                                                  Page  117
0Current Usings:  (CELLBLOK,R6) (*,R7) (CP,R11) (CV,R12)
0Loc    Object Code    Addr1 Addr2  Stmt Lv Lineno    Source Statement           (Hibal 5, Asmedit 3.3)  HLASM R4.0  2004/03/15 12.42
+___    ______ ____    _____ _____  ____ __ ______    ______ _________
0004434                            35159  1 01-GETMA +IHB13795C   DS    0H
 004434 18F3                       35160  1 01-GETMA +           LR    15,R3                             OBTAIN SUBPOOL ID
 004436 89F0 0008            00008 35161  1 01-GETMA +           SLL   15,8(0)                    MOVE SUBPOOL TO BYTE 2 YM1995
 00443A BFFD 7064            04430 35162  1 01-GETMA +           ICM   15,13,IHB13795F                   ADD REMAINING PARMS
 00443E 1B11                       35163  1 01-GETMA +           SR    1,1                     ZERO RESERVED REG 1
 004440 0A78                       35164  1 01-GETMA +           SVC   120                     ISSUE GETMAIN SVC
 004442 4120 0001            00001 35166  1                      LA    R2,1                Update the count of
 004446 5830 6018            00018 35167  1                      L     R3,CEL#GET            GETMAINs
 00444A 1843                       35168  1           GTPUPD1    LR    R4,R3
 00444C 1A42                       35169  1                      AR    R4,R2
 00444E BA34 6018            00018 35170  1                      CS    R3,R4,CEL#GET
 004452 4770 707E            0444A 35171  1                      BNE   GTPUPD1
 004456                            35172                       END
                                   35176              *
                                   35177              * Update the count of GETs for this pool
                                   35178              *
 004456 4120 0001            00001 35179                       LA    R2,1                Update the count of
 00445A 5830 6014            00014 35180                       L     R3,CEL#REQ            requests
 00445E 1843                       35181              GTPUPD2  LR    R4,R3
 004460 1A42                       35182                       AR    R4,R2
 004462 BA34 6014            00014 35183                       CS    R3,R4,CEL#REQ
 004466 4770 7092            0445E 35184                       BNE   GTPUPD2
                                   35185
 00446A 5800 601C            0001C 35186                       L     R0,CELSIZE
 00446E 9001 8004            00004 35187                       PRETURN (R0,R1)
 004472 18D8/9808 D004_            35189                       PEND
 DROP   CELLBLOK,R6
 DROP   *,R7
                                   35214                       QLTORG ,
1DISP     (DISP2193) (12:42) (15MAR04) WYLBUR's Dispatcher                                                                  Page  118
0Current Usings:  (CP,R11) (CV,R12)
0Loc    Object Code    Addr1 Addr2  Stmt Lv Lineno    Source Statement           (Hibal 5, Asmedit 3.3)  HLASM R4.0  2004/03/15 12.42
+___    ______ ____    _____ _____  ____ __ ______    ______ _________
0                                  35228              ¿þþþþþþþþþþþþþþþþþþþþþþþþþþþþþþþþþþþþþþþþþþþþþþþþþþþþþþþþþþþþþþþþþþþþþÜ
                                   35229              Ÿ                                                                     Ÿ
                                   35230              Ÿ  FREEPOOL -- Release cell                                           Ÿ
                                   35231              Ÿ                                                                     Ÿ
                                   35232              Ÿ    On entry:                                                        Ÿ
                                   35233              Ÿ      R1  - address of cell being released                           Ÿ
                                   35234              Ÿ      R15 - address of cell block                                    Ÿ
                                   35235              Ÿ                                                                     Ÿ
                                   35236              Ÿ    Note: This code is from the IBM ESA/390 Principles               Ÿ
                                   35237              Ÿ          of Operation pg A-48 with embellishments for               Ÿ
                                   35238              Ÿ          counters.                                                  Ÿ
                                   35239              Ÿ                                                                     Ÿ
                                   35240              Ÿ          When we make use of trimming the free list                 Ÿ
                                   35241              Ÿ          back, we'll need to switch to the Perform                  Ÿ
                                   35242              Ÿ          Locked Operation instruction.                              Ÿ
                                   35243              Ÿ                                                                     Ÿ
                                                      ¾þþþþþþþþþþþþþþþþþþþþþþþþþþþþþþþþþþþþþþþþþþþþþþþþþþþþþþþþþþþþþþþþþþþþþ»
0004488 50E0 D000/9008_      00000 35244              FREEPOOL XPROC
 USING  *,R7
 0044A2 D507 705E F000_04500 00000 35284                       FAIL  (@R15,NE,'CELLBLOK'),FREEPOOL,'Not a cell block'
 0044C4 186F                       35312                       LR    R6,R15
 USING  CELLBLOK,R6                35313                       WITH  (CELLBLOK,R6)
 0044C6 1821                       35326                       LR    R2,R1               Copy address
 0044C8 9801 6008            00008 35327                       LM    R0,R1,CELFHDR
 0044CC 5000 2000            00000 35328              FREEAGN  ST    R0,0(,R2)           Link element to list head
 0044D0 1831                       35329                       LR    R3,R1
 0044D2 0630                       35330                       BCTR  R3,0                Decrement header counter
 0044D4 BB02 6008            00008 35331                       CDS   0,2,CELFHDR         Put at head of list
 0044D8 4770 702A            044CC 35332                       BNE   FREEAGN             Try again if failed
                                   35333              *
                                   35334              *  Update the count of free cells
                                   35335              *
 0044DC 4120 0001            00001 35336                       LA    R2,1                Update the count of
 0044E0 5830 6010            00010 35337                       L     R3,CELFCNT            free cells
 0044E4 1843                       35338              FREEUPD0 LR    R4,R3
 0044E6 1A42                       35339                       AR    R4,R2
 0044E8 BA34 6010            00010 35340                       CS    R3,R4,CELFCNT
 0044EC 4770 7042            044E4 35341                       BNE   FREEUPD0
                                   35342
 0044F0 18D8/9808 D004_            35343                       PEND
 DROP   CELLBLOK,R6
 DROP   *,R7
                                   35368                       QLTORG ,
1DISP     (DISP2193) (12:42) (15MAR04) WYLBUR's Dispatcher                                                                  Page  119
0Current Usings:  (CP,R11) (CV,R12)
0Loc    Object Code    Addr1 Addr2  Stmt Lv Lineno    Source Statement           (Hibal 5, Asmedit 3.3)  HLASM R4.0  2004/03/15 12.42
+___    ______ ____    _____ _____  ____ __ ______    ______ _________
0                                  35382              ¿þþþþþþþþþþþþþþþþþþþþþþþþþþþþþþþþþþþþþþþþþþþþþþþþþþþþþþþþþþþþþþþþþþþþþÜ
                                   35383              Ÿ                                                                     Ÿ
                                   35384              Ÿ  GETCPU -- Routine to calculate CPU time used.                      Ÿ
                                   35385              Ÿ                                                                     Ÿ
                                   35386              Ÿ    On exit:                                                         Ÿ
                                   35387              Ÿ      R0 - CPU time used since last dispatch (in TU's)               Ÿ
                                   35388              Ÿ      R1 - total WYLBUR CPU time used (in TU's)                      Ÿ
                                   35389              Ÿ                                                                     Ÿ
                                   35390              Ÿ    Note:  1 TU = 1/38400 second                                     Ÿ
                                   35391              Ÿ                                                                     Ÿ
                                                      ¾þþþþþþþþþþþþþþþþþþþþþþþþþþþþþþþþþþþþþþþþþþþþþþþþþþþþþþþþþþþþþþþþþþþþþ»
0000000                00000 00030 35392              GCPUWA   RECORD BEGIN
                                   35400  1                      XSA   R2,R8
 000000 0000000000000000           35401  1 01-XSA   +           DC    (R8+2-(R2))A(0)
                                   35402  1
 000020                            35403  1           GCPUAJST   DS    D           [Order] Needed to be able to align DOUB
 000028                            35404  1           GCPUDOUB   DS    D           [Order] Double word work area
 000030                00030 00030 35405                       END
                                   35414              þþþþ
 004508 50E0 D000/9028_      00000 35415              GETCPU   XENTER R2,R8,L'GCPUWA
 USING  *,R7
 USING  GCPUWA,R8                  35434                       USING GCPUWA,WAR
                                   35443                       ¿þþþþþþþþþþþþþþþþþþþþþþþþþþþþþþþþþþþþþþþþþþþÜ
                                   35444                       Ÿ  Use CPUTIMER if possible (it's faster).  Ÿ
                                   35445                       ¾þþþþþþþþþþþþþþþþþþþþþþþþþþþþþþþþþþþþþþþþþþþ»
 004522 9110 C4C6/47E0_004C6       35446                       IF    CVFXA,BEGIN         CPUTIMER only available in XA...
 00452A 4120 8028            00028 35461  1                      LA    R2,GCPUDOUB         Put result here
 00452E 5420 7C76            05198 35462  1                      N     R2,=A(-8)           Align (may use GCPUAJST area)
 004532 1812                       35463  1                      LR    R1,R2               For CPUTIMER
 004534 B227 00F0/90EC_            35464  1                      CPUTIMER TU,(1)           Get remaining time in TU's
 00455C 5800 2004            00004 35477  1                      L     R0,@R2+4
 004560                            35478                       END
                                   35482
 004560 7042/47F0 7046 04560 04528 35483                       ELSE  BEGIN               TTIMER...
 004564 1B11/0A2E                  35494  1                      TTIMER ,                  Read remaining time in R0
 004568                            35498                       END
                                   35502
 004568 12FF/4780 7054_            35503                       IF    (R15,NZ),'CLEAR R0,R1; B GTTEXIT'  Trouble, scram
                                   35529
 004576 1310                       35530                       LCR   R1,R0
 004578 5E10 70DA            045FC 35531                       AL    R1,TIMEVAL          Calc amount used in this interval
 00457C 5E10 C6F8            006F8 35532                       AL    R1,CVSCPUTM         Add in total at last stimer
 004580 5010 C6F4            006F4 35533                       ST    R1,CVTCPUTM         Save total time used
 004584 5500 70DE/47B0_      04600 35534                       IF    (R0,LLT,TIMELOW),BEGIN  Restart timer...
 00458C 4110 70DA/41F0_      045FC 35551  1                      STIMER TASK,TIMESUP,TUINTVL=TIMEVAL  Restart timer
 00459E D203 C6F8 C6F4 006F8 006F4 35559  1                      MVC   CVSCPUTM,CVTCPUTM   Save cputime @ stimer
 0045A4 5810 C6F4            006F4 35560  1                      L     R1,CVTCPUTM         Get total cputime wylbur used
 0045A8                            35561                       END
 0045A8 1801                       35565                       LR    R0,R1
 0045AA 5F00 C6FC            006FC 35566                       SL    R0,CVRCPUTM         Time used during this dispatch
 0045AE 47B0 7092/1B00       045B4 35567                       IF    NEG,'CLEAR R0'      Can't be negative
 0045B4 5B00 70C2            045E4 35587                       S     R0,GTOVER           Deduct CPU time needed for GETCPU
 0045B8 47B0 709C/1B00       045BE 35588                       IF    NEG,'CLEAR R0'      Can't be negative
1DISP     (DISP2193) (12:42) (15MAR04) WYLBUR's Dispatcher                                                                  Page  120
0Current Usings:  (*,R7) (GCPUWA,R8) (CP,R11) (CV,R12)
0Loc    Object Code    Addr1 Addr2  Stmt Lv Lineno    Source Statement           (Hibal 5, Asmedit 3.3)  HLASM R4.0  2004/03/15 12.42
+___    ______ ____    _____ _____  ____ __ ______    ______ _________
0                                  35608              *  Check for overhead mode...
 0045BE 9180 B758/47E0_00758       35609                       IF    (CPFEXEC,AND,CPFXAUTHLIB,AND,CPFXOVER),'CLEAR R0'
 0045D8 18D8/58E0 D000_            35659              GTTEXIT  XEXIT
 DROP   GCPUWA,R8                  35664                       DROP  GCPUWA,BR
 DROP   *,R7
                                   35678
 0045E4 00000005                   35679              GTOVER   DC    F'5'                Deduct time used by GETCPU itself
-0045E8 0D70                       35681              TIMESUP  BASE  ,                   Timer expired -- abend
 USING  *,R7
 0045EA 4110 0142/4100_      00142 35695                       ABEND 322,DUMP            Looping looping (can't use kaput)
 DROP   *,R7                       35704                       DROP  BR
                                   35711
 0045FA 0000
 0045FC 00697800                   35712              TIMEVAL  DC    A(180*300*128)      Set timer of 180 secs
 004600 00465000                   35713              TIMELOW  DC    A(120*300*128)      Restart timer if less than 120 secs
1DISP     (DISP2193) (12:42) (15MAR04) WYLBUR's Dispatcher                                                                  Page  121
0Current Usings:  (CP,R11) (CV,R12)
0Loc    Object Code    Addr1 Addr2  Stmt Lv Lineno    Source Statement           (Hibal 5, Asmedit 3.3)  HLASM R4.0  2004/03/15 12.42
+___    ______ ____    _____ _____  ____ __ ______    ______ _________
0                                  35715              ¿þþþþþþþþþþþþþþþþþþþþþþþþþþþþþþþþþþþþþþþþþþþþþþþþþþþþþþþþþþþþþþþþþþþþþÜ
                                   35716              Ÿ                                                                     Ÿ
                                   35717              Ÿ  GETPCB -- Routine to allocate and initialize a new PCB.            Ÿ
                                   35718              Ÿ    (Also called from MODE for SET WPAGES command.)                  Ÿ
                                   35719              Ÿ                                                                     Ÿ
                                                      ¾þþþþþþþþþþþþþþþþþþþþþþþþþþþþþþþþþþþþþþþþþþþþþþþþþþþþþþþþþþþþþþþþþþþþþ»
0004604 50E0 D000/9008_      00000 35720              GETPCB   XPROC
 USING  *,R7
 00461E 0700/4510 700A_            35760                       MODESET MODE=SUP          ********
                                   35767                 ¿þþþþþþþþþþþþþþþþþþþþþþþþþþþþþþþþþþþþþþþþþþþþþþþþþþþþþþþþþþþþþþþþþþþþþÜ
                                   35768                 Ÿ        Allocate PCB (which contains SRB/IOSB).                      Ÿ
                                   35769                 Ÿ                                                                     Ÿ
                                   35770                 Ÿ  Get PCB from subpool 228: CSA, non-pageable, not fetch protected.  Ÿ
                                   35771                 ¾þþþþþþþþþþþþþþþþþþþþþþþþþþþþþþþþþþþþþþþþþþþþþþþþþþþþþþþþþþþþþþþþþþþþþ»
 00462E 0700/47F0 701E_            35772                       GETMAIN RU,LV=L'PCB,SP=228,LOC=ANY  Get PCB
 004648 1861                       35786                       LR    R6,R1
 USING  PCB,R6                     35787                       WITH  (PCB,R6)
 00464A D7D3 6000 6000 00000 00000 35800                       CLEAR PCB                 Initialize PCB
 004650 D203 6000 7B7E 00000 0519C 35807                       MVC   PCB(4),=CL4'PCB'    Set self-identification
                                   35808              *
                                   35809              *  Get data buffer above the 16M line, and initialize IDAL.
                                   35810              *
 004656 0700/47F0 7046_            35811                       GETMAIN RU,LV=L'PBUF,BNDRY=PAGE,LOC=ANY,SP=30  I/O buf
 004670 1851                       35825                       LR    R5,R1
 USING  PBUF,R5                    35826                       WITH  (PBUF,R5)
 004672 58E0 7B82/0DEE       051A0 35839                       ACALL FIX                 Page fix memory
                                   35843                       ¿þþþþþþþþþþþþþþþþþþþþþþþþþþþþþþþþþþþþþþþþþþþþþþþþþþþþþþþþþþþþþÜ
                                   35844                       Ÿ  Count this buffer as below the 16 megabyte line if any of  Ÿ
                                   35845                       Ÿ    the real addresses are below the line (remember one      Ÿ
                                   35846                       Ÿ    PBUF is multiple 4K MVS pages).                          Ÿ
                                   35847                       ¾þþþþþþþþþþþþþþþþþþþþþþþþþþþþþþþþþþþþþþþþþþþþþþþþþþþþþþþþþþþþþ»
 004678 1BFF                       35848                       CLEAR R15                 Flag:  Assume all above 16M
 00467A 1825                       35852                       LR    R2,R5
 00467C 5A20 7B86            051A4 35853                       A     R2,=A(L'PBUF)       End of PBUF
 004680 1815                       35854                       LR    R1,R5
 004682 1912/47B0 7082             35855                       WHILE (R1,LT,R2),BEGIN    Go through MVS pages...
 004688 B130 1000            00000 35872  1                      LRA   R3,@R1              Get real addr
 00468C 5430 7B8A            051A8 35873  1                      N     R3,=A(X'FF000000')
 004690 4770 707A/41F0_      04698 35874  1                      IF    Z,'LA R15,@R15+1'   Count VS page below the line
 004698 5A10 7B8E            051AC 35891  1                      A     R1,=F'4096'         Next VS page
 00469C 47F0 7064            04682 35892                       END
                                   35897
 0046A0 12FF/4780 7098             35898                       IF    (R15,NZ),BEGIN      We have pages below the line...
 0046A6 9680 601C      0001C       35912  1                      SET   PCBFLOW             PBUF is below the 16M line
 0046AA 4100 0001/4A00_      00001 35918  1                      INCR  R0,CVNPG16M         Count buffer with low pages
 0046B6                            35924                       END
                                   35928                       ¿þþþþþþþþþþþþþþþþþþþþÜ
                                   35929                       Ÿ  Initialize PBUF.  Ÿ
                                   35930                       ¾þþþþþþþþþþþþþþþþþþþþ»
 0046B6 18E5/48F0 7C22_            35931                       ZOT   PBUF,LH:=AL2(L'PBUF)  Initialize buffer
 0046C0 D203 5000 7B92 00000 051B0 35945                       MVC   PBUF(4),=C'PBUF'    Set self-identification
 0046C6 41F0 5000            00000 35946                       LA    R15,PBUF
 0046CA 4AF0 7C24            05242 35947                       AH    R15,=AL2(PBUFEND-PBUF)
1DISP     (DISP2193) (12:42) (15MAR04) WYLBUR's Dispatcher                                                                  Page  122
0Current Usings:  (PBUF,R5) (PCB,R6) (*,R7) (CP,R11) (CV,R12)
0Loc    Object Code    Addr1 Addr2  Stmt Lv Lineno    Source Statement           (Hibal 5, Asmedit 3.3)  HLASM R4.0  2004/03/15 12.42
+___    ______ ____    _____ _____  ____ __ ______    ______ _________
00046CE D207 F000 7B62 00000 05180 35948                       MVC   @R15(L'PBUFEND),=CL8'PENDBUF'  End of buffer id
                                   35949
 0046D4 41F0 5070            00070 35950                       LA    R15,PBUFUSER        User data buffer
 0046D8 50F0 6008            00008 35951                       ST    R15,PCBBUFP         Save buffer ptr in PCB
                                   35952
 0046DC 5060 5004            00004 35953                       ST    R6,PBUFPCBP         Save PCB ptr in buffer
                                   35954                       ¿þþþþþþþþþþþþþþþþþþþþþþþþþþþÜ
                                   35955                       Ÿ  Set up channel program.  Ÿ
                                   35956                       ¾þþþþþþþþþþþþþþþþþþþþþþþþþþþ»
 0046E0 9110 C4C6/47E0_004C6       35957                       IF    CVFXA,BEGIN         Format 1 CCWs...
 0046E8 D21F 5008 7272 00008 04890 35972  1                      MVC   PCCWS,MODXCCWS      Move in model fmt1 CCWs
 0046EE B1F0 5030            00030 35973  1                      LRA   R15,PBUFSECT
 0046F2 50F0 500C            0000C 35974  1                      ST    R15,PCCWSECT+4      Fix up Set Sector
 0046F6 B1F0 502B            0002B 35975  1                      LRA   R15,PBUFSEEK+3
 0046FA 50F0 5014            00014 35976  1                      ST    R15,PCCWSID+4       Fix up Search Id Equal
 0046FE B1F0 5010            00010 35977  1                      LRA   R15,PCCWSID
 004702 50F0 501C            0001C 35978  1                      ST    R15,PCCWTIC+4       Fix up Tic
 004706 B1F0 5034            00034 35979  1                      LRA   R15,PBUFIDAL
 00470A 50F0 5024            00024 35980  1                      ST    R15,PCCWRW+4        Fix up Read/Write
 00470E                            35981                       END
                                   35985
 00470E 70F4/47F0 711A 0470E 046E6 35986                       ELSE  BEGIN               Format 0 CCWs...
 004712 D21F 5008 7252 00008 04870 35997  1                      MVC   PCCWS,MODLCCWS      Move in model fmt0 CCWs
 004718 B1F0 5030            00030 35998  1                      LRA   R15,PBUFSECT
 00471C BEF7 5009            00009 35999  1                      ST3   R15,PCCWSECT+1      Fix up Set Sector
 004720 B1F0 502B            0002B 36001  1                      LRA   R15,PBUFSEEK+3
 004724 BEF7 5011            00011 36002  1                      ST3   R15,PCCWSID+1       Fix up Search Id Equal
 004728 B1F0 5010            00010 36004  1                      LRA   R15,PCCWSID
 00472C BEF7 5019            00019 36005  1                      ST3   R15,PCCWTIC+1       Fix up Tic
 004730 B1F0 5034            00034 36007  1                      LRA   R15,PBUFIDAL
 004734 BEF7 5021            00021 36008  1                      ST3   R15,PCCWRW+1        Fix up Read/Write
 004738                            36010                       END
                                   36014
 004738 4120 5034            00034 36015                       LA    R2,PBUFIDAL         Start of IDAL list
 00473C 4130 5068            00068 36016                       LA    R3,PBUFBUF          Start of I/O buffer
 004740 1843                       36017                       LR    R4,R3
 004742 4A40 7C26            05244 36018                       AH    R4,=AL2(L'PBUFBUF)  End of I/O buffer
 004746 1934/47B0 7162             36019                       WHILE (R3,LT,R4),BEGIN    Build IDAL...
 00474C B1F0 3000            00000 36036  1                      LRA   R15,@R3
 004750 4780 714E/900F_      0476C 36037  1                      FAIL  NZ,GETPCB,'GETPCB logic error.'
 00476C 50F0 2000            00000 36060  1                      ST    R15,@R2             Save real address
 004770 4120 2004            00004 36061  1                      LA    R2,@R2+4            Next IDA entry
 004774 5430 7B96            051B4 36062  1                      N     R3,=A(X'7FFFF800')  Align to 2K boundry
 004778 4130 3800            00800 36063  1                      LA    R3,@R3+2048         Next 2K segment
 00477C 47F0 7128            04746 36064                       END
                                   36069                       ¿þþþþþþþþþþþþþþþþþþþþþþþþÜ
                                   36070                       Ÿ  Initialize SRB/IOSB.  Ÿ
                                   36071                       ¾þþþþþþþþþþþþþþþþþþþþþþþþ»
 004780 4140 6038            00038 36072                       LA    R4,PCBSRB           STARTIO SRB
 USING  SRB,R4                     36073                       WITH  (SRB,R4),BEGIN
 004784 4130 6068            00068 36087  1                      LA    R3,PCBIOSB          STARTIO IOSB
 USING  IOSB,R3                    36088  1                      WITH  (IOSB,R3)
                                   36101  1
 004788 D203 4000 7B9A 00000 051B8 36102  1                      MVC   SRBID,=C'SRB '      Self-identication
1DISP     (DISP2193) (12:42) (15MAR04) WYLBUR's Dispatcher                                                                  Page  123
0Current Usings:  (IOSB,R3) (SRB,R4) (PBUF,R5) (PCB,R6) (*,R7) (CP,R11) (CV,R12)
0Loc    Object Code    Addr1 Addr2  Stmt Lv Lineno    Source Statement           (Hibal 5, Asmedit 3.3)  HLASM R4.0  2004/03/15 12.42
+___    ______ ____    _____ _____  ____ __ ______    ______ _________
000478E 58F0 C718            00718 36103  1                      L     R15,CVASCBP
 004792 50F0 4008            00008 36104  1                      ST    R15,SRBASCB         Save our ASCB ptr
 004796 4810 F024            00024 36105  1                      WITH  (ASCB,R15),'LH  R1,ASCBASID'
 USING  ASCB,R15
 DROP   ASCB,R15
 00479A 4010 400E            0000E 36129  1                      STH   R1,SRBPASID         ... and ASCB id
 00479E D203 4010 C73C 00010 0073C 36130  1                      MVC   SRBPTCB,CVTCBP      Save our TCB ptr
 0047A4 D200 4024 C066 00024 00066 36131  1                      MVC   SRBPKF,CVKEY        Set storage key
 0047AA 5030 401C            0001C 36132  1                      ST    R3,SRBPARM          SRB parm points to IOSB
                                   36133  1
 0047AE 5040 301C            0001C 36134  1                      ST    R4,IOSSRB           Save SRB ptr in IOSB
                                   36135  1
 0047B2 9110 C4C6/47E0_004C6       36136  1                      IF    CVFXA,'SET IOSOPT2.IOSF'  Format 1 CCWs being used
 0047BE 41F0 5008            00008 36163  1                      LA    R15,PCCWS           Start of channel program
 0047C2 50F0 304C            0004C 36164  1                      ST    R15,IOSVST          Save virtual channel program ptr
 0047C6 B1F0 F000            00000 36165  1                      LRA   R15,@R15
 0047CA 50F0 3048            00048 36166  1                      ST    R15,IOSRST          Save real channel program ptr
                                   36167  1
 0047CE 9201 3004      00004       36168  1                      MVI   IOSDVRID,IOSMISID   Set misc IOS driver ID
 0047D2 D201 3006 400E 00006 0000E 36169  1                      MVC   IOSASID,SRBPASID    Set ASCB id
 0047D8 D203 3008 7B9E 00008 051BC 36170  1                      MVC   IOSPGAD,=A(IOTERM)  I/O termination routine
 0047DE 9110 C4C6/47E0_004C6       36171  1                      IF    CVFXA,'SET IOSPGAD.X"80"'  Set AMODE 31 for MVS/XA
 0047EA D200 3059 C066 00059 00066 36198  1                      MVC   IOSCKEY,CVKEY       Set CCW area key
 0047F0 D200 300C C066 0000C 00066 36199  1                      MVC   IOSPKEY,CVKEY       Set termination routine key
 0047F6 9608 300C      0000C       36200  1                      SET   IOSPKEY.IOSLCL      Schedule at ASCB's priority
 0047FA 5060 3020            00020 36207  1                      ST    R6,IOSUSE           Set PCB ptr as IOSB parm
 0047FE 58F0 7BA2            051C0 36208  1                      L     R15,=A(DUMMYRET)    Dummy return routine
 004802 9110 C4C6/47E0_004C6       36209  1                      IF    CVFXA,'O R15,=A(XA)'  Set AMODE 31 for MVS/XA
 00480E 50F0 303C            0003C 36230  1                      ST    R15,IOSNRM          Normal end appendage
 004812 50F0 3040            00040 36231  1                      ST    R15,IOSABN          Abnormal end appendage
 004816 9680 3058      00058       36232  1                      SET   IOSFMSK.X'80'       Set file mask
 DROP   IOSB,R3                    36239                       END
 DROP   SRB,R4
                                   36252                       ¿þþþþþþþþþþþþþþþþþþþþþþþþþþþþþþþþþþþþþþþþþþþþþþþþþþþþþþþÜ
                                   36253                       Ÿ  Finally, link up PCB and add it to the empty queue.  Ÿ
                                   36254                       ¾þþþþþþþþþþþþþþþþþþþþþþþþþþþþþþþþþþþþþþþþþþþþþþþþþþþþþþþ»
 00481A D203 6004 C1DC 00004 001DC 36255                       MVC   PCBLINK,CVPCBQH     Our forward link is old head
 004820 5060 C1DC            001DC 36256                       ST    R6,CVPCBQH          We are the new first buffer
                                   36257
 004824 4140 6000            00000 36258                       LA    R4,PCB              QBUFON assumption
 004828 41F0 C1DC            001DC 36259                       LA    R15,CVEMBUFQ-(PCBQF-PCB)  Dummy first link
 00482C 5800 F010/5040_      00010 36260                       QBUFON ,                  Add new PCB to empty queue
                                   36267
 004842 41F0 0001/4AF0_      00001 36268                       INCR  R15,CVNPG           Total number of page buffers
                                   36274
 00484E 0700/4510 723A_            36275                       MODESET MODE=PROB         ********
 00485E 18D8/9808 D004_            36282                       PEND
 DROP   PBUF,R5
 DROP   PCB,R6
 DROP   *,R7
-                                  36313              ***
                                   36314              ***  Model channel program for page I/O (must match PCCWS exactly).
1DISP     (DISP2193) (12:42) (15MAR04) WYLBUR's Dispatcher                                                                  Page  124
0Current Usings:  (CP,R11) (CV,R12)
0Loc    Object Code    Addr1 Addr2  Stmt Lv Lineno    Source Statement           (Hibal 5, Asmedit 3.3)  HLASM R4.0  2004/03/15 12.42
+___    ______ ____    _____ _____  ____ __ ______    ______ _________
0                                  36315              ***
                                   36316                       ¿þþþþþþþþþþþþþþþþþþþþþþþþþþþþþþþþþþþþþþþþþþþþþþþþþþþþþþþþþþþþÜ
                                   36317                       Ÿ  FORMAT 0 CCWs  (for MVS/SP, when data is below 16M line)  Ÿ
                                   36318                       ¾þþþþþþþþþþþþþþþþþþþþþþþþþþþþþþþþþþþþþþþþþþþþþþþþþþþþþþþþþþþþ»
 00486C 00000000
 004870 2300000040000001           36319              MODLSTRT CCW   X'23',*-*,X'40',1                .Set Sector/Nop
 004878 3100000040000005           36320                       CCW   X'31',*-*,X'40',5                .Search id equal
 004880 0800000000000000           36321                       CCW   X'08',*-*,0,0                    .Tic *-8
 004888 0600000004004F80           36322                       CCW   X'06',*-*,X'04',CVPIOSZ          .Read/Write data
                                   36323              MODLCCWS EQU   MODLSTRT,*-MODLSTRT,C'X'
-                                  36325                       ¿þþþþþþþþþþþþþþþþþþþþþþþþþþþþþþþþþþþþþþþþþþþþþþþþþþþþþþþþþþþþÜ
                                   36326                       Ÿ  FORMAT 1 CCWs  (for MVS/XA, when data is above 16M line)  Ÿ
                                   36327                       ¾þþþþþþþþþþþþþþþþþþþþþþþþþþþþþþþþþþþþþþþþþþþþþþþþþþþþþþþþþþþþ»
 004890                            36328                       DS    0D
 004890 2340000100000000           36329              MODXSTRT DC    X'23',X'40',AL2(1),A(*-*)        .Set Sector/Nop
 004898 3140000500000000           36330                       DC    X'31',X'40',AL2(5),A(*-*)        .Search id equal
 0048A0 0800000000000000           36331                       DC    X'08',X'00',AL2(0),A(*-*)        .Tic *-8
 0048A8 06044F8000000000           36332                       DC    X'06',X'04',AL2(CVPIOSZ),A(*-*)  .Read/Write Date
                                   36333              MODXCCWS EQU   MODXSTRT,*-MODXSTRT,C'X'
1DISP     (DISP2193) (12:42) (15MAR04) WYLBUR's Dispatcher                                                                  Page  125
0Current Usings:  (CP,R11) (CV,R12)
0Loc    Object Code    Addr1 Addr2  Stmt Lv Lineno    Source Statement           (Hibal 5, Asmedit 3.3)  HLASM R4.0  2004/03/15 12.42
+___    ______ ____    _____ _____  ____ __ ______    ______ _________
0                                  36335              ¿þþþþþþþþþþþþþþþþþþþþþþþþþþþþþþþþþþþþþþþþþþþþþþþþþþþþþþþþþþþþþþþþþþþþþÜ
                                   36336              Ÿ                                                                     Ÿ
                                   36337              Ÿ  FREEPCB -- Routine to free a page buffer.                          Ÿ
                                   36338              Ÿ    (Also called from MODE for SET WPAGES command.)                  Ÿ
                                   36339              Ÿ                                                                     Ÿ
                                   36340              Ÿ    On exit, R15 (and cc):                                           Ÿ
                                   36341              Ÿ      0 - ok                                                         Ÿ
                                   36342              Ÿ      4 - can't free a PCB, none on empty queue                      Ÿ
                                   36343              Ÿ                                                                     Ÿ
                                                      ¾þþþþþþþþþþþþþþþþþþþþþþþþþþþþþþþþþþþþþþþþþþþþþþþþþþþþþþþþþþþþþþþþþþþþþ»
00048B0 50E0 D000/9008_      00000 36344              FREEPCB  XPROC
 USING  *,R7
 0048CA 9140 C4C8/4710_004C8       36384                       IF    CVFMEMPAGE,EXIT     No paging system, scram
                                   36402                       ¿þþþþþþþþþþþþþþþþþþþþþþþþþþþþþþþþþþþþþþþþþþþþþÜ
                                   36403                       Ÿ  Free the first buffer on the empty queue.  Ÿ
                                   36404                       ¾þþþþþþþþþþþþþþþþþþþþþþþþþþþþþþþþþþþþþþþþþþþþþ»
 0048D2 41F0 0004            00004 36405                       LA    R15,4               Assume the worst
                                   36406
 0048D6 4110 C1DC            001DC 36407                       LA    R1,CVEMBUFQ-(PCBQF-PCB)  Dummy first link
 0048DA 5910 C1E8/4780_      001E8 36408                       IF    ('C R1,CVEMBUFQ',NE),BEGIN  At least one buffer...
 0048E2 5840 C1E8            001E8 36421  1                      L     R4,CVEMBUFQ         First buffer on empty queue
 USING  PCB,R4                     36422  1                      WITH  (PCB,R4)
                                   36435  1                      ¿þþþþþþþþþþþþþþþþþþþþþþþþþþþþþþþþþþþþþþþÜ
                                   36436  1                      Ÿ  Remove buffer from the empty queue.  Ÿ
                                   36437  1                      ¾þþþþþþþþþþþþþþþþþþþþþþþþþþþþþþþþþþþþþþþ»
 0048E6 58F0 400C/5810_      0000C 36438  1                      QBUFOFF ,                 Take buffer off of empty queue
                                   36450  1                      ¿þþþþþþþþþþþþþþþþþþþþþþþþþþþþþþþþþþþþþþþþþþþÜ
                                   36451  1                      Ÿ  Remove buffer from the PCB linked list.  Ÿ
                                   36452  1                      ¾þþþþþþþþþþþþþþþþþþþþþþþþþþþþþþþþþþþþþþþþþþþ»
 004900 4160 C1D8            001D8 36453  1                      LA    R6,CVPCBQH-(PCBLINK-PCB)  Dummy first link
 004904                            36454  1                      LOOP  BEGIN
 004904 1856                       36460  2                        LR    R5,R6               Save previous ptr
 USING  PCB,R6                     36461  2                        WITH  (PCB,R6)
 004906 5860 6004/1266_      00004 36474  2                        WHILE ('LT R6,PCBLINK',NZ)
 004910 1946/4770 7056             36491  2                        IF    (R4,EQ,R6),BEGIN    This entry is our buffer...
 004916 D203 5004 6004 00004 00004 36506  3                          MVC   PCBLINK-PCB(4,R5),PCBLINK  Dequeue our buffer
 00491C 47F0 7072            0493C 36507  3                          B     FPCBGO
 004920                            36508  2                        END
 004920 47F0 703A            04904 36512  1                      END
 DROP   PCB,R6
 004924 900F C780/4DE0_      00780 36522  1                      KAPUT FREEPCB1,'FREEPCB logic error.'
                                   36529  1                      ¿þþþþþþþþþþþþþþþþþþþþþþþþþþþþþþþþþþþþþþÜ
                                   36530  1                      Ÿ  Finally, FREEMAIN the page buffer.  Ÿ
                                   36531  1                      ¾þþþþþþþþþþþþþþþþþþþþþþþþþþþþþþþþþþþþþþ»
 00493C 4110 4000            00000 36532  1           FPCBGO     LA    R1,PCB
 004940 4DE0 70DC            049A6 36533  1                      LCALL JUNKPCB             FREEMAIN PCB
                                   36535  1
 004944 48F0 C13E/06F0_      0013E 36536  1                      DECR  R15,CVNPG           Keep buffer count accurate
                                   36541  1
 00494E 1BFF                       36542  1                      CLEAR R15                 Set OK return code
 DROP   PCB,R4                     36546                       END
 004950 18D8/9808 D004_            36555                       PEND
 DROP   *,R7
1DISP     (DISP2193) (12:42) (15MAR04) WYLBUR's Dispatcher                                                                  Page  126
0Current Usings:  (CP,R11) (CV,R12)
0Loc    Object Code    Addr1 Addr2  Stmt Lv Lineno    Source Statement           (Hibal 5, Asmedit 3.3)  HLASM R4.0  2004/03/15 12.42
+___    ______ ____    _____ _____  ____ __ ______    ______ _________
0                                  36576              ¿þþþþþþþþþþþþþþþþþþþþþþþþþþþþþþþþþþþþþþþþþþþþþþþþþþþþþþþþþþþþþþþþþþþþþÜ
                                   36577              Ÿ                                                                     Ÿ
                                   36578              Ÿ  DISPSTOP -- Routine to free page buffers (called at                Ÿ
                                   36579              Ÿ    termination).  This routine must always be called, even for      Ÿ
                                   36580              Ÿ    abormal termination to free the PCBs in CSA.                     Ÿ
                                   36581              Ÿ                                                                     Ÿ
                                                      ¾þþþþþþþþþþþþþþþþþþþþþþþþþþþþþþþþþþþþþþþþþþþþþþþþþþþþþþþþþþþþþþþþþþþþþ»
000495E 50E0 D000/9008_      00000 36582              DISPSTOP XPROC
 USING  *,R7
                                   36622                       ¿þþþþþþþþþþþþþþþþþþÜ
                                   36623                       Ÿ  Free all PCBs.  Ÿ
                                   36624                       ¾þþþþþþþþþþþþþþþþþþ»
 004978 5850 C1DC            001DC 36625                       L     R5,CVPCBQH          First PCB on queue
 00497C D703 C1DC C1DC 001DC 001DC 36626                       CLEAR CVPCBQH             Reset queue head
                                   36633
 004982 1265/4780 7020             36634                       WHILE ('LTR R6,R5',NZ),BEGIN  Go through queue...
 USING  PCB,R6                     36649  1                      WITH  (PCB,R6)
 004988 5850 6004            00004 36662  1                      L     R5,PCBLINK          Save next PCB ptr
                                   36663  1
 00498C 4110 6000            00000 36664  1                      LA    R1,PCB
 004990 4DE0 702E            049A6 36665  1                      LCALL JUNKPCB             FREEMAIN PCB
 004994 47F0 700A            04982 36667                       END
 DROP   PCB,R6
                                   36677
 004998 18D8/9808 D004_            36678                       PEND
 DROP   *,R7
1DISP     (DISP2193) (12:42) (15MAR04) WYLBUR's Dispatcher                                                                  Page  127
0Current Usings:  (CP,R11) (CV,R12)
0Loc    Object Code    Addr1 Addr2  Stmt Lv Lineno    Source Statement           (Hibal 5, Asmedit 3.3)  HLASM R4.0  2004/03/15 12.42
+___    ______ ____    _____ _____  ____ __ ______    ______ _________
0                                  36699              ¿þþþþþþþþþþþþþþþþþþþþþþþþþþþþþþþþþþþþþþþþþþþþþþþþþþþþþþþþþþþþþþþþþþþþþÜ
                                   36700              Ÿ                                                                     Ÿ
                                   36701              Ÿ  JUNKPCB -- Local routine to FREEMAIN PCB.                          Ÿ
                                   36702              Ÿ                                                                     Ÿ
                                   36703              Ÿ    On entry:                                                        Ÿ
                                   36704              Ÿ      R1 - PCB ptr                                                   Ÿ
                                   36705              Ÿ                                                                     Ÿ
                                                      ¾þþþþþþþþþþþþþþþþþþþþþþþþþþþþþþþþþþþþþþþþþþþþþþþþþþþþþþþþþþþþþþþþþþþþþ»
00049A6 50E0 D000/9008_      00000 36706              JUNKPCB  PROC
 USING  *,R7
 0049C0 1861                       36745                       LR    R6,R1
 USING  PCB,R6                     36746                       WITH  (PCB,R6)
                                   36759
 0049C2 D502 78A6 6000_05266 00000 36760                       IF    (PCB,EQ,'PCB'),BEGIN  Free the PCB...
                                   36777  1                      ¿þþþþþþþþþþþþþþþþþþþþþþþþþþþþþÜ
                                   36778  1                      Ÿ  Wait for I/O to complete.  Ÿ
                                   36779  1                      ¾þþþþþþþþþþþþþþþþþþþþþþþþþþþþþ»
 0049CC 9180 601D/47E0_0001D       36780  1                      IF    PCBFIO,BEGIN        I/O is active...
 0049D4 95FF 601F/4780_0001F       36795  2                        IF    PCBFPOST,EXIT       It's OK, scram
 0049DC 4110 7808/1BFF_      051C8 36813  2                        STIMER WAIT,BINTVL==A(5*100)  Five seconds
 0049EC 95FF 601F/4780_0001F       36821  2                        IF    PCBFPOST,EXIT       It's done now
 0049F4 4510 7056/001D_      04A16 36839  2                        WTO   'Page I/O didn''t complete!'
 004A18 47F0 70F4            04AB4 36847  2                        B     JPCBERR             Forget it
 004A1C                            36848  1                      END
                                   36852  1                      ¿þþþþþþþþþþþþþþþþþþþþþþþÜ
                                   36853  1                      Ÿ  Check PCB validity.  Ÿ
                                   36854  1                      ¾þþþþþþþþþþþþþþþþþþþþþþþ»
 004A1C 5850 6008            00008 36855  1                      L     R5,PCBBUFP          Page buffer ptr
 004A20 4B50 7886            05246 36856  1                      SH    R5,=AL2(PBUFUSER-PBUF)
 USING  PBUF,R5                    36857  1                      WITH  (PBUF,R5)
 004A24 D503 77F0 5000_051B0 00000 36870  1                      IF    (PBUF,NE,'PBUF'),JPCBERR  Hmmm... forget it
 004A2E 18F5                       36890  1                      LR    R15,R5
 004A30 4AF0 7882            05242 36891  1                      AH    R15,=AL2(PBUFEND-PBUF)
 004A34 D506 78A9 F000_05269 00000 36892  1                      IF    (@R15,NE,'PENDBUF'),JPCBERR  Forget it
                                   36911  1
 004A3E 9180 601C/47E0_0001C       36912  1                      IF    PCBFLOW,'DECR R0,CVNPG16M'  Buffer was below 16M line
                                   36937  1
 004A50 D203 6000 780C 00000 051CC 36938  1                      MVC   PCB(4),=C'OPCB'     Reset ident fields
 004A56 D203 6004 7810 00004 051D0 36939  1                      MVC   PCBLINK,=F'-1'
 004A5C D203 6008 7810 00008 051D0 36940  1                      MVC   PCBBUFP,=F'-1'
 004A62 D203 5000 7814 00000 051D4 36941  1                      MVC   PBUF(4),=C'OBUF'
 004A68 D207 F000 78B0 00000 05270 36942  1                      MVC   @R15(8),=C'OENDBUF'
                                   36943  1
 004A6E 1816/4100 00D4             36944  1                      SETMSG PCB                 Free loc, len
 004A74 41F0 00E4            000E4 36958  1                      LA    R15,228             Subpool 228
 004A78 47F0 70C0/00/0_      04A80 36959  1                      FREEMAIN RU,LV=(0),A=(1),SP=(15)  Free PCB
                                   36969  1
 004A8A 1815/4800 7880             36970  1                      SETMSG PBUF,LH:=AL2(L'PBUF)
 004A90 58E0 7818/0DEE       051D8 36983  1                      ACALL UNFIX               Unfix PBUF
 004A96 0700/47F0 70E4_            36987  1                      FREEMAIN RU,LV=L'PBUF,A=(R5),SP=30  Free PBUF
 004AB0 47F0 7104            04AC4 37000  1                      B     JPCBEXIT
 DROP   PBUF,R5                    37001                       END
1DISP     (DISP2193) (12:42) (15MAR04) WYLBUR's Dispatcher                                                                  Page  128
0Current Usings:  (PCB,R6) (*,R7) (CP,R11) (CV,R12)
0Loc    Object Code    Addr1 Addr2  Stmt Lv Lineno    Source Statement           (Hibal 5, Asmedit 3.3)  HLASM R4.0  2004/03/15 12.42
+___    ______ ____    _____ _____  ____ __ ______    ______ _________
0                                  37010                       ¿þþþþþþþþþþþþþþþþþþþþþþþþþþþþþþþþþþþþþþþþþþþÜ
                                   37011                       Ÿ  Leave PCB without releasing the memory.  Ÿ
                                   37012                       ¾þþþþþþþþþþþþþþþþþþþþþþþþþþþþþþþþþþþþþþþþþþþ»
 004AB4 0ADE/010F/4100_            37013              JPCBERR  QSNAP 'Can''t free PCB'
 004ABC 0ADE/020100/60_            37018                       QSNAP (R6)
                                   37023
 004AC4 18D8/9808 D004_            37024              JPCBEXIT PEND
 DROP   PCB,R6
 DROP   *,R7
1DISP     (DISP2193) (12:42) (15MAR04) WYLBUR's Dispatcher                                                                  Page  129
0Current Usings:  (CP,R11) (CV,R12)
0Loc    Object Code    Addr1 Addr2  Stmt Lv Lineno    Source Statement           (Hibal 5, Asmedit 3.3)  HLASM R4.0  2004/03/15 12.42
+___    ______ ____    _____ _____  ____ __ ______    ______ _________
0                                  37051              ¿þþþþþþþþþþþþþþþþþþþþþþþþþþþþþþþþþþþþþþþþþþþþþþþþþþþþþþþþþþþþþþþþþþþþþÜ
                                   37052              Ÿ                                                                     Ÿ
                                   37053              Ÿ  FMTWBUF -- Routine to display owned page buffer queue.             Ÿ
                                   37054              Ÿ    (Called by the SHOW WBUF command).                               Ÿ
                                   37055              Ÿ                                                                     Ÿ
                                   37056              Ÿ    On entry:                                                        Ÿ
                                   37057              Ÿ      R15 - max number of buffers to display                         Ÿ
                                   37058              Ÿ                                                                     Ÿ
                                                      ¾þþþþþþþþþþþþþþþþþþþþþþþþþþþþþþþþþþþþþþþþþþþþþþþþþþþþþþþþþþþþþþþþþþþþþ»
0000000                00000 00014 37059              WBUFWA   RECORD BEGIN
 000000                            37067  1           WBUFFMT    DS    CL20                Formatting area
 000014                00014 00014 37068                       END
                                   37077              þþþþ
 004AD2 50E0 D000/9008_      00000 37078              FMTWBUF  XPROC WBUFWA
 USING  *,R7
 USING  WBUFWA-(4+36),R8
 004AEC 9140 C4C8/4710_004C8       37129                       IF    CVFMEMPAGE,EXIT     No paging system, forget it
                                   37147
 004AF4 185F                       37148                       LR    R5,R15              Max number of bufs to display
                                   37149
 004AF6 4110 778B/4100_      05277 37150                       TSEG  'Number of empty buffers: '
                                   37168
 004B08 1BFF                       37169                       CLEAR R15                 Empty buffer count
 004B0A 4140 C1DC            001DC 37173                       LA    R4,CVEMBUFQ-(PCBQF-PCB)  Dummy first empty Q link
 004B0E 5940 C1EC/4780_      001EC 37174                       WHILE ('C R4,CVEMBUFQ+4',NE),BEGIN  Go through buffer...
 USING  PCB,R4                     37189  1                      WITH  (PCB,R4)
 004B16 41F0 F001            00001 37202  1                      LA    R15,@R15+1          Kick counter
 004B1A 5840 400C            0000C 37203  1                      L     R4,PCBQF            Next buffer
 004B1E 47F0 7022            04B0E 37204                       END
 DROP   PCB,R4
 004B22 181F/1B00/41F0_            37214                       TNUM  (R15)
 004B30 1B00/41F0 B050_            37236                       TCR
 004B3C 1B00/41F0 B050_            37261                       TCR
                                   37286
 004B48 4110 77A4/4100_      05290 37287                       TSEG  'Owned buffer queue (in snatch order):',,CR
 004B5A 1B00/41F0 B050_            37305                       TCR
                                   37330                       ¿þþþþþþþþþþþþþþþþþþþþþþþþþþþþþþþþþþþþþþþþþþþþþþþþþþþþþþþþþÜ
                                   37331                       Ÿ  Display queue from oldest to most recent (in the same  Ÿ
                                   37332                       Ÿ    order as we would "snatch" old pages).               Ÿ
                                   37333                       ¾þþþþþþþþþþþþþþþþþþþþþþþþþþþþþþþþþþþþþþþþþþþþþþþþþþþþþþþþþ»
 004B66 4140 C1E4            001E4 37334                       LA    R4,CVBUFQ-(PCBQF-PCB)  Dummy first buffer entry
                                   37335
 004B6A 1255/47D0 7260             37336                       WHILE (R5,POS),BEGIN      Go through queue...
 004B70 5940 C1F4/4780_      001F4 37352  1                      IF    ('C R4,CVBUFQ+4',EQ),EXIT  All done, scram
 USING  PCB,R4                     37368  1                      WITH  (PCB,R4)
                                   37381  1
 004B78 D203 C710 76FC 00710 051E8 37382  1                      MVC   CVSPIEAD,=A(WBUFERR)  Catch S0C4's when queue changes
 004B7E 5840 400C            0000C 37383  1                      L     R4,PCBQF            Get first/next PCB
 004B82 D703 C710 C710 00710 00710 37384  1                      CLEAR CVSPIEAD            Reset
                                   37391  1
 004B88 4110 77C9/4100_      052B5 37392  1                      SETMSG ' '
 004B90 9120 401D/47E0_0001D       37396  1                      IF    PCBFMARK,'SETMSG "*"'  Changed flag
 004BA0 41F0 B050/58E0_      00050 37420  1                      TSEG  (R1),(R0)
1DISP     (DISP2193) (12:42) (15MAR04) WYLBUR's Dispatcher                                                                  Page  130
0Current Usings:  (PCB,R4) (*,R7) (WBUFWA-(4+36),R8) (CP,R11) (CV,R12)
0Loc    Object Code    Addr1 Addr2  Stmt Lv Lineno    Source Statement           (Hibal 5, Asmedit 3.3)  HLASM R4.0  2004/03/15 12.42
+___    ______ ____    _____ _____  ____ __ ______    ______ _________
0                                  37444  1
 004BAA 1814/4100 0008_            37445  1                      THEX  (R4),8              PCB address
                                   37470  1
 004BBA B205 D000      00000       37471  1                      STCK  @R13
 004BBE 58F0 D000            00000 37472  1                      L     R15,@R13
 004BC2 5BF0 4014            00014 37473  1                      S     R15,PCBQCLCK        Buffer age (in seconds)
 004BC6 4740 70E8/D607_      04BD4 37474  1                      IF    (NEG,OR,(PCBQCLCK,Z)),'LH R15,=H"-1"'  Odd
 004BD8 59F0 7704/47B0_      051F0 37506  1                      IF    (R15,LT,120),BEGIN  Seconds...
 004BE0 181F/4100 0006_            37523  2                        TNUM  (R15),6
 004BF0 4110 7708/4100_      051F4 37548  2                        TSEG  ' seconds    '
 004C02                            37566  1                      END
 004C02 711A/47F0 7156 04C02 04BDE 37570  1                      ELSE  BEGIN               Convert to minutes...
 004C06 1BEE                       37581  2                        CLEAR R14
 004C08 5DE0 7714            05200 37585  2                        D     R14,=F'6'           Convert to minutes * 10
 004C0C 59E0 7718/4750_      05204 37586  2                        IF    (R14,GE,3),'INCR R15'  Round
 004C18 4100 0601/4110_      00601 37611  2                        BTR   WBUFFMT,(6,1),(R15)  "n.n minutes"
 004C26 41F0 B050/58E0_      00050 37633  2                        TSEG  (R1),(R0)
 004C30 4110 7724/4100_      05210 37657  2                        TSEG  ' minutes    '
 004C42                            37675  1                      END
                                   37679  1
 004C42 D203 C710 76FC 00710 051E8 37680  1                      MVC   CVSPIEAD,=A(WBUFERR)  Catch S0C4's when queue changes
 004C48 58F0 4020            00020 37681  1                      L     R15,PCBPTP          Page table entry
 004C4C 5830 F008            00008 37682  1                      WITH  (PT,R15),'L R3,PTJCBP'  JCB ptr from PT
 USING  PT,R15
 DROP   PT,R15
 004C50 D703 C710 C710 00710 00710 37706  1                      CLEAR CVSPIEAD            Reset
                                   37713  1
 004C56 1233/4780 71DC             37714  1                      IF    (R3,NZ),BEGIN       Display owner...
 USING  JCB,R3                     37728  2                        WITH  (JCB,R3)
 004C5C 4110 7730/4100_      0521C 37741  2                        TSEG  'Line'
 004C6E 4810 3048/4100_      00048 37759  2                        TNUM  LH:JCBSEQ,4
 004C80 4110 77C9/4100_      052B5 37783  2                        TSEG  ' '
 004C92 4110 304D/4100_      0004D 37801  2                        TSEG  JCBGRP
 004CA4 4110 77CB/4100_      052B7 37829  2                        TSEG  '.'
 004CB6 4110 304A/4100_      0004A 37847  2                        TSEG  JCBUSER
 DROP   JCB,R3                     37875  1                      END
                                   37884  1
 004CC8 4110 77CC/4100_      052B8 37885  1                      TSEG  '  @'
 004CDA D203 C710 76FC 00710 051E8 37903  1                      MVC   CVSPIEAD,=A(WBUFERR)  Catch S0C4's when queue changes
 004CE0 5820 4008            00008 37904  1                      L     R2,PCBBUFP          Buffer address
 004CE4 D513 2000 C4D8 00000 004D8 37905  1                      CLC   @R2(L'WBUFFMT),CVBLANKS  Dummy test to force S0C4
 004CEA D703 C710 C710 00710 00710 37906  1                      CLEAR CVSPIEAD            Reset
 004CF0 1812/4100 0008_            37913  1                      THEX  (R2),8
 004D00 1222/4780 724E             37938  1                      IF    (R2,NZ),BEGIN       Format first few bytes...
 004D06 4110 776C/4100_      05258 37952  2                        TSEG  ': '
 004D18 D213 8028 2000 00000 00000 37970  2                        MVC   WBUFFMT,@R2         Copy first few bytes
 004D1E 58F0 7734            05220 37971  2                        L     R15,=V(DOTTBL)
 004D22 DC13 8028 F000 00000 00000 37972  2                        TR    WBUFFMT,@R15        Change binary chars to dots
 004D28 4110 8028/4100_      00000 37973  2                        TSEG  WBUFFMT
 004D3A                            38001  1                      END
                                   38005  1
 004D3A 1B00/41F0 B050_            38006  1                      TCR
                                   38031  1
 004D46 0650                       38032  1                      DECR  R5                  One less buffer to display
1DISP     (DISP2193) (12:42) (15MAR04) WYLBUR's Dispatcher                                                                  Page  131
0Current Usings:  (*,R7) (WBUFWA-(4+36),R8) (CP,R11) (CV,R12)
0Loc    Object Code    Addr1 Addr2  Stmt Lv Lineno    Source Statement           (Hibal 5, Asmedit 3.3)  HLASM R4.0  2004/03/15 12.42
+___    ______ ____    _____ _____  ____ __ ______    ______ _________
0004D48 47F0 707E            04B6A 38034                       END
 DROP   PCB,R4
                                   38044
 004D4C 1255/4720 7278_            38045                       IF    (R5,NP),'TSEG "(...more...)",,CR'
 004D64 18D8/9808 D004_            38082                       PEND
 DROP   WBUFWA-(4+36),R8
 DROP   *,R7
                                   38107                       ¿þþþþþþþþþþþþþþþþþþþþþþþþþþþþþþþþþþÜ
                                   38108                       Ÿ  SPIE exit routine for FMTWBUF.  Ÿ
                                   38109                       ¾þþþþþþþþþþþþþþþþþþþþþþþþþþþþþþþþþþ»
 004D72 50E0 D000/9008_      00000 38110              WBUFERR  PROC
 USING  *,R7
 004D8C D603 B05C B05C_0005C 0005C 38149                       TCCR
 004DAC 4110 752F/4100_      052BB 38211                       TSEG  'Buffer queue changed; command output stopped.'
 004DBE 47F0 C7DE            007DE 38229                       B     CVNEXT
 004DC2 18D8/9808 D004_            38230                       PEND
 DROP   *,R7
1DISP     (DISP2193) (12:42) (15MAR04) WYLBUR's Dispatcher                                                                  Page  132
0Current Usings:  (CP,R11) (CV,R12)
0Loc    Object Code    Addr1 Addr2  Stmt Lv Lineno    Source Statement           (Hibal 5, Asmedit 3.3)  HLASM R4.0  2004/03/15 12.42
+___    ______ ____    _____ _____  ____ __ ______    ______ _________
0                                  38251              ¿þþþþþþþþþþþþþþþþþþþþþþþþþþþþþþþþþþþþþþþþþþþþþþþþþþþþþþþþþþþþþþþþþþþþþÜ
                                   38252              Ÿ                                                                     Ÿ
                                   38253              Ÿ  FMTPGQ -- Routine to format page queue.                            Ÿ
                                   38254              Ÿ                                                                     Ÿ
                                   38255              Ÿ    On entry:                                                        Ÿ
                                   38256              Ÿ      R15 - queue head ptr                                           Ÿ
                                   38257              Ÿ      R1,R0 - queue type msg                                         Ÿ
                                   38258              Ÿ                                                                     Ÿ
                                                      ¾þþþþþþþþþþþþþþþþþþþþþþþþþþþþþþþþþþþþþþþþþþþþþþþþþþþþþþþþþþþþþþþþþþþþþ»
0004DD0 50E0 D000/9008_      00000 38259              FMTPGQ   XPROC
 USING  *,R7
 004DEA 9140 C4C8/4710_004C8       38299                       IF    CVFMEMPAGE,EXIT     No paging system, forget it
                                   38317
 004DF2 182F                       38318                       LR    R2,R15
 004DF4 9001 D000/41D0_      00000 38319                       XPUSH R0,R1
 004DFC 1B00/41F0 B050_            38322                       TCR
 004E08 1B00/41F0 B050_            38347                       TCR
 004E14 4BD0 7470/9801_      0525A 38372                       XPOP  R0,R1
 004E1C 41F0 B050/58E0_      00050 38375                       TSEG  (R1),(R0)
 004E26 4110 74FE/4100_      052E8 38399                       TSEG  ':'
 004E38 D203 B060 B05C 00060 0005C 38417                       MVC   CPSEGINDF,CPSEGLENF Set indentation for cont lines
 004E3E 5830 2004            00004 38418                       L     R3,@R2+4            Last entry
 004E42 4B20 7472            0525C 38419                       SH    R2,=Y(PCBQF-PCB)    Dummy first entry
 004E46 1923/4770 7074_            38420                       IF    (R2,EQ,R3),'TSEG " Empty"'
 004E5E 7078/47F0 7118 04E5E 04E4A 38458                       ELSE  BEGIN
 004E62 1B55                       38469  1                      CLEAR R5                  Loop counter
 USING  PCB,R2                     38473  1                      WITH  (PCB,R2)
 004E64                            38486  1                      LOOP  BEGIN
 004E64 5820 200C            0000C 38492  2                        L     R2,PCBQF            Next page
 004E68 4110 C4D8/4100_      004D8 38493  2                        TSEG  CVBLANKS,1
 004E7A 58F0 2020/12FF       00020 38523  2                        LT    R15,PCBPTP
 004E80 4780 709E            04E88 38527  2                        IF    NZ,BEGIN
 004E84 58F0 F000            00000 38538  3                          WITH  (PT,R15),'L R15,PTPNO'
 USING  PT,R15
 DROP   PT,R15
 004E88                            38562  2                        END
 004E88 181F/4100 0008_            38566  2                        THEX  (R15),8             Page no.
 004E98 4110 747A/4100_      05264 38591  2                        TSEG  ' ('
 004EAA 1812/4100 0008_            38609  2                        THEX  (R2),8              PCB addr
 004EBA 4110 74FF/4100_      052E9 38634  2                        TSEG  ')'
 004ECC 4150 5001            00001 38652  2                        LA    R5,@R5+1            Count number of buffers
 004ED0 5950 7446/47D0_      05230 38653  2                        IF    (R5,GT,1000),BEGIN  We are in a loop...
 004ED8 4110 739E/4100_      05188 38670  3                          TSEG  ' ***TRUNCATED***'
 004EEA 1B22/1B33                  38688  3                          CLEAR R2,R3               Get us out of the loop
 004EEE                            38694  2                        END
 004EEE 41F0 B050/58E0_      00050 38698  2                        TMARK
 004EF8 1923/4780 7118             38712  2                        UNTIL (R2,EQ,R3)
 004EFE 47F0 707A            04E64 38731  1                      END
 DROP   PCB,R2                     38736                       END
 004F02 1B00/41F0 B050_            38745                       TCR
 004F0E D703 B060 B060 00060 00060 38770                       CLEAR CPSEGINDF
 004F14 18D8/9808 D004_            38777                       PEND
 DROP   *,R7
1DISP     (DISP2193) (12:42) (15MAR04) WYLBUR's Dispatcher                                                                  Page  133
0Current Usings:  (CP,R11) (CV,R12)
0Loc    Object Code    Addr1 Addr2  Stmt Lv Lineno    Source Statement           (Hibal 5, Asmedit 3.3)  HLASM R4.0  2004/03/15 12.42
+___    ______ ____    _____ _____  ____ __ ______    ______ _________
0                                  38798              ¿þþþþþþþþþþþþþþþþþþþþþþþþþþþþþþþþþþþþþþþþþþþþþþþþþþþþþþþþþþþþþþþþþþþþþÜ
                                   38799              Ÿ                                                                     Ÿ
                                   38800              Ÿ  KEYZERO -- Routine to change to PSW key zero.                      Ÿ
                                   38801              Ÿ                                                                     Ÿ
                                                      ¾þþþþþþþþþþþþþþþþþþþþþþþþþþþþþþþþþþþþþþþþþþþþþþþþþþþþþþþþþþþþþþþþþþþþþ»
0                                  38802                       ENTRY KEYZERO
 004F22 B20A 0000      00000       38803              KEYZERO  MODESET EXTKEY=ZERO
 004F26 07FE                       38806                       BR    RAR
-                                  38808              ¿þþþþþþþþþþþþþþþþþþþþþþþþþþþþþþþþþþþþþþþþþþþþþþþþþþþþþþþþþþþþþþþþþþþþþÜ
                                   38809              Ÿ                                                                     Ÿ
                                   38810              Ÿ  KEYNZERO -- Routine to change back to our Address Space key.       Ÿ
                                   38811              Ÿ                                                                     Ÿ
                                                      ¾þþþþþþþþþþþþþþþþþþþþþþþþþþþþþþþþþþþþþþþþþþþþþþþþþþþþþþþþþþþþþþþþþþþþþ»
0                                  38812                       ENTRY KEYNZERO
 004F28 18F2                       38813              KEYNZERO LR    R15,R2
 004F2A 1F22/4320 C066             38814                       LC    R2,CVKEY
 004F30 B20A 2000      00000       38821                       MODESET KEYADDR=(2)       Our key
 004F34 182F                       38824                       LR    R2,R15
 004F36 07FE                       38825                       BR    RAR
1DISP     (DISP2193) (12:42) (15MAR04) WYLBUR's Dispatcher                                                                  Page  134
0Current Usings:  (CP,R11) (CV,R12)
0Loc    Object Code    Addr1 Addr2  Stmt Lv Lineno    Source Statement           (Hibal 5, Asmedit 3.3)  HLASM R4.0  2004/03/15 12.42
+___    ______ ____    _____ _____  ____ __ ______    ______ _________
0                                  38827              ¿þþþþþþþþþþþþþþþþþþþþþþþþþþþþþþþþþþþþþþþþþþþþþþþþþþþþþþþþþþþþþþþþþþþþþÜ
                                   38828              Ÿ                                                                     Ÿ
                                   38829              Ÿ  LOCK -- Routine to lock out other tasks and appendage SRBs         Ÿ
                                   38830              Ÿ    (which hold the LOCAL lock) from running by obtaining the        Ÿ
                                   38831              Ÿ    LOCAL lock.                                                      Ÿ
                                   38832              Ÿ                                                                     Ÿ
                                                      ¾þþþþþþþþþþþþþþþþþþþþþþþþþþþþþþþþþþþþþþþþþþþþþþþþþþþþþþþþþþþþþþþþþþþþþ»
0004F38 50E0 D000/9008_      00000 38833              LOCK     XPROC
 USING  *,R7
 004F52 B20B 0000/B20A_            38873                       MODESET EXTKEY=ZERO,SAVEKEY=(2)
 004F5A 18FD/90BE D000_            38877                       SETLOCK OBTAIN,TYPE=LOCAL,MODE=UNCOND,REGS=SAVE,RELATED=X
 004F74 B20A 2000      00000       38890                       MODESET KEYADDR=(2)
 004F78 18D8/9808 D004_            38893                       PEND
 DROP   *,R7
1DISP     (DISP2193) (12:42) (15MAR04) WYLBUR's Dispatcher                                                                  Page  135
0Current Usings:  (CP,R11) (CV,R12)
0Loc    Object Code    Addr1 Addr2  Stmt Lv Lineno    Source Statement           (Hibal 5, Asmedit 3.3)  HLASM R4.0  2004/03/15 12.42
+___    ______ ____    _____ _____  ____ __ ______    ______ _________
0                                  38914              ¿þþþþþþþþþþþþþþþþþþþþþþþþþþþþþþþþþþþþþþþþþþþþþþþþþþþþþþþþþþþþþþþþþþþþþÜ
                                   38915              Ÿ                                                                     Ÿ
                                   38916              Ÿ  UNLOCK -- Routine to allow other tasks and appendage SRBs          Ÿ
                                   38917              Ÿ    (which hold the LOCAL lock) to run by releasing the              Ÿ
                                   38918              Ÿ    LOCAL lock.                                                      Ÿ
                                   38919              Ÿ                                                                     Ÿ
                                                      ¾þþþþþþþþþþþþþþþþþþþþþþþþþþþþþþþþþþþþþþþþþþþþþþþþþþþþþþþþþþþþþþþþþþþþþ»
0004F86 50E0 D000/9008_      00000 38920              UNLOCK   XPROC
 USING  *,R7
 004FA0 B20B 0000/B20A_            38960                       MODESET EXTKEY=ZERO,SAVEKEY=(2)
 004FA8 18FD/90BE D000_            38964                       SETLOCK RELEASE,TYPE=LOCAL,REGS=SAVE,RELATED=X
 004FC2 B20A 2000      00000       38977                       MODESET KEYADDR=(2)
 004FC6 18D8/9808 D004_            38980                       PEND
 DROP   *,R7
1DISP     (DISP2193) (12:42) (15MAR04) WYLBUR's Dispatcher                                                                  Page  136
0Current Usings:  (CP,R11) (CV,R12)
0Loc    Object Code    Addr1 Addr2  Stmt Lv Lineno    Source Statement           (Hibal 5, Asmedit 3.3)  HLASM R4.0  2004/03/15 12.42
+___    ______ ____    _____ _____  ____ __ ______    ______ _________
0000000                00000 00024 39001              FIXWA    RECORD BEGIN
                                   39009  1                      XSA   R2,R8
 000000 0000000000000000           39010  1 01-XSA   +           DC    (R8+2-(R2))A(0)
 000020                            39011  1           FIXECB     DS    A
 000024                00024 00024 39012                       END
-                                  39022              ¿þþþþþþþþþþþþþþþþþþþþþþþþþþþþþþþþþþþþþþþþþþþþþþþþþþþþþþþþþþþþþþþþþþþþþÜ
                                   39023              Ÿ                                                                     Ÿ
                                   39024              Ÿ  FIX -- Routine to page-fix memory.                                 Ÿ
                                   39025              Ÿ                                                                     Ÿ
                                   39026              Ÿ    On entry:                                                        Ÿ
                                   39027              Ÿ      R1,R0 - starting addr, len                                     Ÿ
                                   39028              Ÿ                                                                     Ÿ
                                                      ¾þþþþþþþþþþþþþþþþþþþþþþþþþþþþþþþþþþþþþþþþþþþþþþþþþþþþþþþþþþþþþþþþþþþþþ»
0004FD4 50E0 D000/9028_      00000 39029              FIX      XENTER R2,R8,L'FIXWA
 USING  *,R7
 USING  FIXWA,R8                   39048                       USING FIXWA,WAR
                                   39057
 004FEE 1200/4720 701E_            39058                       FAIL  (R0,NP),FIXERR,'PGFIX logic error.'
 00500C 18F1                       39084                       LR    R15,R1
 00500E 1AF0                       39085                       AR    R15,R0              Ending address+1
                                   39086
 005010 D703 8020 8020 00020 00020 39087                       CLEAR FIXECB
 005016 4100 8020            00020 39094                       LA    R0,FIXECB
                                   39095
 00501A 9110 C4C6/47E0_004C6       39096                       IF    CVFXA,BEGIN         MVS/XA version...
 005022 06F0                       39111  1                      DECR  R15                 Actual ending address
                                   39113  1                      ¿þþþþþþþþþþþþþþþþþþþþþþþþþþþþþþþþþþþþþþþþþþþþþþþþþþþþþþþþþþþþþÜ
                                   39114  1                      Ÿ  If you are assembling this for an MVS/SP system, then the  Ÿ
                                   39115  1                      Ÿ    following "PGSER" macro may generate an assembly error.  Ÿ
                                   39116  1                      Ÿ    Since PGSER is only executed if the system is MVS/XA     Ÿ
                                   39117  1                      Ÿ    then PGSER line can be safely commented out.             Ÿ
                                   39118  1                      ¾þþþþþþþþþþþþþþþþþþþþþþþþþþþþþþþþþþþþþþþþþþþþþþþþþþþþþþþþþþþþþ»
 005024 47F0 703E/7FFF_      0502C 39119  1                      PGSER R,FIX,A=(1),EA=(15),ECB=(0),LONG=Y  Fix pages (XA)
 005036                            39126                       END
                                   39130
 005036 704C/47F0 705C 05036 05020 39131                       ELSE  BEGIN               MVS/SP version...
 00503A 47F0 7052/52/0_      05040 39142  1                      PGFIX R,A=(1),EA=(15),ECB=(0)  Fix pages (SP version)
 00504A                            39151                       END
                                   39155
 00504A 12FF/4780 70A4             39156                       IF    (R15,NZ),BEGIN      Something unusual...
 005050 59F0 724A/4780_      05238 39170  1                      FAIL  (R15,NE,8),PGFIX,'PGFIX error'
 005070 4510 7098/0012_      05086 39199  1                      WTO   'Page fix wait.'
 005088 4100 0001/4110_      00001 39207  1                      WAIT  ECB=FIXECB
 005092                            39214                       END
                                   39218
 005092 1BFF                       39219                       CLEAR R15                 Return code
 005094 18D8/58E0 D000_            39223                       XEXIT
 DROP   FIXWA,R8                   39228                       DROP  FIXWA,BR
 DROP   *,R7
1DISP     (DISP2193) (12:42) (15MAR04) WYLBUR's Dispatcher                                                                  Page  137
0Current Usings:  (CP,R11) (CV,R12)
0Loc    Object Code    Addr1 Addr2  Stmt Lv Lineno    Source Statement           (Hibal 5, Asmedit 3.3)  HLASM R4.0  2004/03/15 12.42
+___    ______ ____    _____ _____  ____ __ ______    ______ _________
0                                  39243              ¿þþþþþþþþþþþþþþþþþþþþþþþþþþþþþþþþþþþþþþþþþþþþþþþþþþþþþþþþþþþþþþþþþþþþþÜ
                                   39244              Ÿ                                                                     Ÿ
                                   39245              Ÿ  UNFIX -- Routine to free previously page-fixed memory.             Ÿ
                                   39246              Ÿ                                                                     Ÿ
                                   39247              Ÿ    On entry:                                                        Ÿ
                                   39248              Ÿ      R1,R0 - starting addr, len                                     Ÿ
                                   39249              Ÿ                                                                     Ÿ
                                                      ¾þþþþþþþþþþþþþþþþþþþþþþþþþþþþþþþþþþþþþþþþþþþþþþþþþþþþþþþþþþþþþþþþþþþþþ»
00050A0 50E0 D000/9028_      00000 39250              UNFIX    XENTER
 USING  *,R7
 0050BA 1200/4720 701E_            39269                       FAIL  (R0,NP),UNFIXERR,'PGFREE logic error.'
 0050D8 18F1                       39295                       LR    R15,R1
 0050DA 1AF0                       39296                       AR    R15,R0              Ending address+1
                                   39297
 0050DC 9110 C4C6/47E0_004C6       39298                       IF    CVFXA,BEGIN         MVS/XA version...
 0050E4 06F0                       39313  1                      DECR  R15                 Actual ending address
                                   39315  1                      ¿þþþþþþþþþþþþþþþþþþþþþþþþþþþþþþþþþþþþþþþþþþþþþþþþþþþþþþþþþþþþþÜ
                                   39316  1                      Ÿ  If you are assembling this for an MVS/SP system, then the  Ÿ
                                   39317  1                      Ÿ    following "PGSER" macro may generate an assembly error.  Ÿ
                                   39318  1                      Ÿ    Since PGSER is only executed if the system is MVS/XA     Ÿ
                                   39319  1                      Ÿ    then PGSER line can be safely commented out.             Ÿ
                                   39320  1                      ¾þþþþþþþþþþþþþþþþþþþþþþþþþþþþþþþþþþþþþþþþþþþþþþþþþþþþþþþþþþþþþ»
 0050E6 47F0 7036/0000_      050F0 39321  1                      PGSER R,FREE,A=(1),EA=(15)  Unfix pages (XA version)
 0050FC                            39329                       END
                                   39333
 0050FC 7046/47F0 7058 050FC 050E2 39334                       ELSE  BEGIN               MVS/SP version...
 005100 47F0 704C/20/0_      05106 39345  1                      PGFREE R,A=(1),EA=(15)    Unfix pages (SP version)
 005112                            39355                       END
                                   39359
 005112 1BFF                       39360                       CLEAR R15                 Return code
 005114 18D8/58E0 D000_            39364                       XEXIT
 DROP   *,R7                       39369                       DROP  BR
1DISP     (DISP2193) (12:42) (15MAR04) WYLBUR's Dispatcher                                                                  Page  138
0Current Usings:  (CP,R11) (CV,R12)
0Loc    Object Code    Addr1 Addr2  Stmt Lv Lineno    Source Statement           (Hibal 5, Asmedit 3.3)  HLASM R4.0  2004/03/15 12.42
+___    ______ ____    _____ _____  ____ __ ______    ______ _________
0                                  39377              ¿þþþþþþþþþþþþþþþþþþþþþþþþþþþþþþþþþþþþþþþþþþþþþþþþþþþþþþþþþþþþþþþþþþþþþÜ
                                   39378              Ÿ                                                                     Ÿ
                                   39379              Ÿ  AMODE31 -- Routine to switch to 31-bit addressing mode if          Ÿ
                                   39380              Ÿ    we are running MVS/XA.                                           Ÿ
                                   39381              Ÿ                                                                     Ÿ
                                   39382              Ÿ    Note:  This may be called from a subtask (be sure not to         Ÿ
                                   39383              Ÿ           have TRACE=YES on the XENTER).                            Ÿ
                                   39384              Ÿ                                                                     Ÿ
                                                      ¾þþþþþþþþþþþþþþþþþþþþþþþþþþþþþþþþþþþþþþþþþþþþþþþþþþþþþþþþþþþþþþþþþþþþþ»
0005120 50E0 D000/9028_      00000 39385              AMODE31  XENTER R2,R8,TRACE=NO
 USING  *,R7
 005130 9110 C4C6/47E0_004C6       39406                       IF    CVFXA,BEGIN         XA mode...
 005138 4120 701A            0514A 39421  1                      LA    R2,A31GO
 00513C 9102 C4C6/47E0_004C6       39422  1                      IF    CVFXA31,BEGIN       We want 31-bit mode...
 005144 5620 710C            0523C 39437  2                        O     R2,=A(X'80000000')  31 bit mode wanted
 005148                            39438  1                      END
 005148 0B02                       39442  1                      BSM   0,R2
                                   39443  1
 00514A                            39444  1           A31GO      LABEL
 00514A                            39446                       END
 00514A 18D8/58E0 D000_            39450                       XEXIT R2,R8
 DROP   *,R7                       39455                       DROP  BR
1DISP     (DISP2193) (12:42) (15MAR04) WYLBUR's Dispatcher                                                                  Page  139
0Current Usings:  (CP,R11) (CV,R12)
0Loc    Object Code    Addr1 Addr2  Stmt Lv Lineno    Source Statement           (Hibal 5, Asmedit 3.3)  HLASM R4.0  2004/03/15 12.42
+___    ______ ____    _____ _____  ____ __ ______    ______ _________
0                                  39463              ¿þþþþþþþþþþþþþþþþþþþþþþþþþþþþþþþþþþþþþþþþþþþþþþþþþþþþþþþþþþþþþþþþþþþþþÜ
                                   39464              Ÿ                                                                     Ÿ
                                   39465              Ÿ  AMODE24 -- Routine to switch back to 24-bit addressing mode.       Ÿ
                                   39466              Ÿ                                                                     Ÿ
                                   39467              Ÿ    Note:  This may be called from a subtask (be sure not to         Ÿ
                                   39468              Ÿ           have TRACE=YES on the XENTER).                            Ÿ
                                   39469              Ÿ                                                                     Ÿ
                                                      ¾þþþþþþþþþþþþþþþþþþþþþþþþþþþþþþþþþþþþþþþþþþþþþþþþþþþþþþþþþþþþþþþþþþþþþ»
0005156 50E0 D000/9028_      00000 39470              AMODE24  XENTER R2,R8,TRACE=NO
 USING  *,R7
 005166 9110 C4C6/47E0_004C6       39491                       IF    CVFXA,BEGIN         XA mode...
 00516E 4120 700E            05174 39506  1                      LA    R2,A24GO
 005172 0B02                       39507  1                      BSM   0,R2                Return to 24 bit mode
                                   39508  1
 005174                            39509  1           A24GO      LABEL
 005174                            39511                       END
 005174 18D8/58E0 D000_            39515                       XEXIT R2,R8
 DROP   *,R7                       39520                       DROP  BR
                                   39527
                                   39528                       QLTORG
1DISP     (DISP2193) (12:42) (15MAR04) WYLBUR's Dispatcher                                                                  Page  140
0Current Usings:  (CP,R11) (CV,R12)
0Loc    Object Code    Addr1 Addr2  Stmt Lv Lineno    Source Statement           (Hibal 5, Asmedit 3.3)  HLASM R4.0  2004/03/15 12.42
+___    ______ ____    _____ _____  ____ __ ______    ______ _________
0DROP   CP,R11                     39602                       DROP  CP,CV               (No addressability in appendage)
 DROP   CV,R12
                                   39617
 0052EA                            39618              IOFIX    LABEL                     Start of fixed memory
-                                  39621              ¿þþþþþþþþþþþþþþþþþþþþþþþþþþþþþþþþþþþþþþþþþþþþþþþþþþþþþþþþþþþþþþþþþþþþþÜ
                                   39622              Ÿ                                                                     Ÿ
                                   39623              Ÿ  DUMMYRET -- STARTIO IOS appendage routines.  Do nothing here       Ÿ
                                   39624              Ÿ    (the termination routine does all the work).                     Ÿ
                                   39625              Ÿ                                                                     Ÿ
                                                      ¾þþþþþþþþþþþþþþþþþþþþþþþþþþþþþþþþþþþþþþþþþþþþþþþþþþþþþþþþþþþþþþþþþþþþþ»
00052EA 1BFF                       39626              DUMMYRET CLEAR R15                 Good return code
 0052EC 0B0E                       39631                       BSM   0,R14               Return
-                                  39633              ¿þþþþþþþþþþþþþþþþþþþþþþþþþþþþþþþþþþþþþþþþþþþþþþþþþþþþþþþþþþþþþþþþþþþþþÜ
                                   39634              Ÿ                                                                     Ÿ
                                   39635              Ÿ  IOTERM -- STARTIO IOS termination rotuine.  Entered to             Ÿ
                                   39636              Ÿ    finish the processing of an I/O request.  We need to move        Ÿ
                                   39637              Ÿ    the PCB to our posted queue and then post WYLBUR.  We also       Ÿ
                                   39638              Ÿ    need to call the IOS purge processor (IECVQCNT) to tell IOS      Ÿ
                                   39639              Ÿ    that this I/O operation has completed.                           Ÿ
                                   39640              Ÿ                                                                     Ÿ
                                   39641              Ÿ    This IOS exit routine runs under an SRB, enabled, with the       Ÿ
                                   39642              Ÿ    local lock held.                                                 Ÿ
                                   39643              Ÿ                                                                     Ÿ
                                                      ¾þþþþþþþþþþþþþþþþþþþþþþþþþþþþþþþþþþþþþþþþþþþþþþþþþþþþþþþþþþþþþþþþþþþþþ»
00052EE                            39644              IOTERM   LABEL
 USING  *,R7                       39646                       USING *,BR
 0052EE 187F                       39656                       LR    BR,R15
 0052F0 1891                       39657                       LR    R9,R1
 USING  IOSB,R9                    39658                       USING IOSB,R9
 0052F2 186E                       39667                       LR    R6,R14              Save return address
 0052F4 5840 9020            00020 39668                       L     R4,IOSUSE           Get PCB ptr
 USING  PCB,R4                     39669                       USING PCB,R4
                                   39678
 0052F8 58C0 70F2            053E0 39679                       L     CVR,=V(CV)
 USING  CV,R12                     39680                       USING CV
                                   39689
 0052FC D502 70FA 4000_053E8 00000 39690                       IF    (PCB,NE,'PCB'),'DC H"0"'  FAIL (sort of)
 005308 9180 401D/4710_0001D       39713                       IF    ~PCBFIO,'DC H"0"'   FAIL (sort of)
 005312 92FF 401F      0001F       39734                       SET   PCBFPOST            I/O posted complete
                                   39740                       ¿þþþþþþþþþþþþþþþþþþþþþþþþþþþþþþþþþþþþþþþþþþþþþÜ
                                   39741                       Ÿ  Just post PCBXECB if in synchronous mode.  Ÿ
                                   39742                       ¾þþþþþþþþþþþþþþþþþþþþþþþþþþþþþþþþþþþþþþþþþþþþþ»
 005316 9180 401E/47E0_0001E       39743                       IF    PCBFSYNC,BEGIN      Synchronous mode...
 00531E 41B0 402C            0002C 39758  1                      LA    R11,PCBXECB         Our ECB
 005322 47F0 705C            0534A 39759  1                      B     IOTJOIN             Re-join common code
 005326                            39760                       END
1DISP     (DISP2193) (12:42) (15MAR04) WYLBUR's Dispatcher                                                                  Page  141
0Current Usings:  (PCB,R4) (*,R7) (IOSB,R9) (CV,R12)
0Loc    Object Code    Addr1 Addr2  Stmt Lv Lineno    Source Statement           (Hibal 5, Asmedit 3.3)  HLASM R4.0  2004/03/15 12.42
+___    ______ ____    _____ _____  ____ __ ______    ______ _________
0                                  39764                       ¿þþþþþþþþþþþþþþþþþþþþþþþþþþþþþþþþþþþþþþþþþþþþþþþþþþþþþþþþþþþþþÜ
                                   39765                       Ÿ  Add PCB to posted queue.                                   Ÿ
                                   39766                       Ÿ                                                             Ÿ
                                   39767                       Ÿ  (Note: the page completion queue works like a LIFO stack,  Ÿ
                                   39768                       Ÿ     below we push an item on the stack)                     Ÿ
                                   39769                       ¾þþþþþþþþþþþþþþþþþþþþþþþþþþþþþþþþþþþþþþþþþþþþþþþþþþþþþþþþþþþþþ»
 005326 D603 4028 4028_00028 00028 39770                       IF    (PCBPOSTL,NZ),'DC H"0"'  FAIL (sort of)
                                   39792
 005332 98EF C1E0            001E0 39793              IOTQL    LM    R14,R15,CVPOSTQH     Posted queue head, lock
 005336 50E4 0028            00028 39794                       ST    R14,PCBPOSTL-PCB(R4) Save link to next in current PCB
 00533A 415F 0001            00001 39795                       LA    R5,1(R15)            Reset lock
 00533E BBE4 C1E0            001E0 39796                       CDS   R14,R4,CVPOSTQH      Point queue head to current PCB
 005342 4770 7044            05332 39797                       BNZ   IOTQL                If lock changed, try again
                                   39798                       ¿þþþþþþþþþþþþþþþþþþþþþþÜ
                                   39799                       Ÿ  Post WYLBUR's ECB.  Ÿ
                                   39800                       ¾þþþþþþþþþþþþþþþþþþþþþþ»
 005346 41B0 C720            00720 39801                       LA    R11,CVECB           Addr of main ECB
                                   39802
 00534A B20B 0000/B20A_            39803              IOTJOIN  MODESET EXTKEY=ZERO,SAVEKEY=(2)  Get into key zero
                                   39807                       ¿þþþþþþþþþþþþþþþþþþþþþþþþþþþþþþþþþþþþþþþþþþþþþþþþþþþþþþþþþþþþþþÜ
                                   39808                       Ÿ  Note: "REGS=USE" is really important on SETLOCK!  It means  Ÿ
                                   39809                       Ÿ    use (clobber) R15-R1, instead of clobbering R11-R13.      Ÿ
                                   39810                       ¾þþþþþþþþþþþþþþþþþþþþþþþþþþþþþþþþþþþþþþþþþþþþþþþþþþþþþþþþþþþþþþ»
 005352 9101 02FB/4780_002FB       39811                       SETLOCK TEST,TYPE=LOCAL,BRANCH=(HELD,LOCKOK)
 005364 18FB/180C/181D_            39821                       SETLOCK OBTAIN,TYPE=LOCAL,REGS=USE,MODE=UNCOND,RELATED=IOP
                                   39835
 00537C 58F0 B000            00000 39836              LOCKOK   L     R15,@R11            Is it waiting?
 005380 12FF/4740 70A8             39837                       IF    (R15,NM),BEGIN      No...
 005386 5800 70F6            053E4 39851  1                      L     R0,=A(X'40000000')  Set post bit
 00538A BAF0 B000            00000 39852  1                      CS    R15,R0,@R11         Try a fast post
 00538E 4780 70B4            053A2 39853  1                      BZ    IOPURGE             All done, scram
 005392 47F0 708E            0537C 39854  1                      B     LOCKOK              Loop back and try it again
 005396                            39855                       END
                                   39859
 005396 1BAA                       39860                       CLEAR R10                 Post code
 005398 58F0 0010            00010 39864                       L     R15,CVTPTR
 00539C 58F0 F370            00370 39865                       WITH  (CVT,R15),'L  R15,CVT0PT02'  Post routine
 USING  CVT,R15
 DROP   CVT,R15
                                   39889              *  R11 has the ECB pointer.
 0053A0 0DEF                       39890                       BASR  R14,R15             Go post
                                   39891                       ¿þþþþþþþþþþþþþþþþþþþþþþþþþþþþþþþþÜ
                                   39892                       Ÿ  Do purge/quiesce processing.  Ÿ
                                   39893                       ¾þþþþþþþþþþþþþþþþþþþþþþþþþþþþþþþþ»
 0053A2 5810 902C/1211_      0002C 39894              IOPURGE  IF    ('LT R1,IOSIPIB',NZ),BEGIN  Purge I/O...
 0053AC 1B00                       39911  1                      CLEAR R0                  Indicate local lock held
 0053AE 58F0 0010            00010 39915  1                      L     R15,CVTPTR
 0053B2 58F0 F07C            0007C 39916  1                      WITH  (CVT,R15),'L R15,CVTIXAVL'  IOS vector table
 USING  CVT,R15
 DROP   CVT,R15
 0053B6 58F0 F074            00074 39940  1                      WITH  (IOCOM,R15),'L R15,IOCQCNT'  Purge/Quiesce
 USING  IOCOM,R15
 DROP   IOCOM,R15
 0053BA 0CEF                       39964  1                      BASSM R14,R15
1DISP     (DISP2193) (12:42) (15MAR04) WYLBUR's Dispatcher                                                                  Page  142
0Current Usings:  (PCB,R4) (*,R7) (IOSB,R9) (CV,R12)
0Loc    Object Code    Addr1 Addr2  Stmt Lv Lineno    Source Statement           (Hibal 5, Asmedit 3.3)  HLASM R4.0  2004/03/15 12.42
+___    ______ ____    _____ _____  ____ __ ______    ______ _________
00053BC                            39965                       END
                                   39969
 0053BC 18FB/180C/181D_            39970                       SETLOCK RELEASE,TYPE=LOCAL,REGS=USE,RELATED=IOP
 0053D4 B20A 2000      00000       39984                       MODESET KEYADDR=(2)       Back to our key
 0053D8 0B06                       39987                       BSM   0,R6                Return
                                   39988
 DROP   IOSB,R9                    39989                       DROP  IOSB,PCB,BR
 DROP   PCB,R4
 DROP   *,R7
                                   40010
                                   40011                       QLTORG
                                   40026
                                   40027                       VLTORG
                                   40083              *
                                   40084              *
                                   40085              IOFIXEND EQU   *                   End of fixed memory
 005778                05778 05778 40086                       END   .

1DISP     (DISP2193) (12:42) (15MAR04) Relocation Dictionary                                                                Page  143
-   Pos.Id   Rel.Id   Flags    Address                                                       HLASM R4.0  2004/03/15 12.42
0  00000001 00000001    0C    00000278
   00000001 00000001    0C    00000280
   00000001 00000001    0C    00000284
   00000001 00000001    0C    00000300
   00000001 00000001    0C    00000304
   00000001 00000001    0C    00000308
   00000001 00000001    08    00000351
   00000001 00000001    08    0000037D
   00000001 00000001    08    000003E5
   00000001 00000001    08    00000437
   00000001 00000001    08    00000459
   00000001 00000001    08    000004B9
   00000001 00000001    08    000004DB
   00000001 00000001    08    000004FB
   00000001 00000001    08    0000053F
   00000001 00000001    08    000005BF
   00000001 00000001    08    000005DF
   00000001 00000001    08    00000A31
   00000001 00000001    08    00000A9D
   00000001 00000001    08    00000B15
   00000001 00000001    08    00000B35
   00000001 00000001    08    00000B6B
   00000001 00000001    08    00000B8B
   00000001 00000001    0C    00000E00
   00000001 00000001    0C    00000E04
   00000001 00000001    0C    00000E08
   00000001 00000001    0C    00000E1C
   00000001 00000001    0C    00000E20
   00000001 00000001    0C    00000E2C
   00000001 00000001    0C    00000E30
   00000001 00000001    0C    00000E6C
   00000001 00000001    0C    00000E74
   00000001 00000001    0C    00000E7C
   00000001 00000001    08    00000F55
   00000001 00000001    08    00000F77
   00000001 00000001    08    00000FA3
   00000001 00000001    0C    00001038
   00000001 00000001    0C    00001044
   00000001 00000001    0C    00001048
   00000001 00000001    0C    000010C8
   00000001 00000001    0C    00001140
   00000001 00000001    0C    000011B0
   00000001 00000001    0C    00001228
   00000001 00000001    08    00001263
   00000001 00000001    08    000012B5
   00000001 00000001    08    0000134B
   00000001 00000001    08    000014BB
   00000001 00000001    08    000014DB
   00000001 00000001    0C    00001528
   00000001 00000001    0C    0000152C
   00000001 00000001    08    00001599
   00000001 00000001    08    000015C7
   00000001 00000001    08    000016A1
   00000001 00000001    08    00001793
   00000001 00000001    08    000017D9
1DISP     (DISP2193) (12:42) (15MAR04) Relocation Dictionary                                                                Page  144
   00000001 00000001    08    000018AF
   00000001 00000001    08    00001AB7
   00000001 00000001    08    00001AE5
   00000001 00000001    08    00001B05
   00000001 00000001    0C    00001C28
   00000001 00000001    0C    00001C48
   00000001 00000001    0C    00001C54
   00000001 00000001    08    00001CB9
   00000001 00000001    08    00001CD9
   00000001 00000001    08    00001CFF
   00000001 00000001    08    00001D1F
   00000001 00000001    08    00001D3F
   00000001 00000001    08    00001D61
   00000001 00000001    08    00001E79
   00000001 00000001    08    00001EB7
   00000001 00000001    08    00001F7B
   00000001 00000001    08    00001FA7
   00000001 00000001    08    00002211
   00000001 00000001    08    00002231
   00000001 00000001    08    00002265
   00000001 00000001    08    000022E7
   00000001 00000001    08    0000230D
   00000001 00000001    08    00002335
   00000001 00000001    08    00002381
   00000001 00000001    08    000023D5
   00000001 00000001    08    000023FB
   00000001 00000001    08    0000244B
   00000001 00000001    08    000024A7
   00000001 00000001    08    000024C5
   00000001 00000001    08    00002713
   00000001 00000001    0C    00002790
   00000001 00000001    0C    00002794
   00000001 00000001    0C    000027A4
   00000001 00000001    0C    000027A8
   00000001 00000001    08    00002813
   00000001 00000001    08    000028F9
   00000001 00000001    08    000029CF
   00000001 00000001    08    00002AA5
   00000001 00000001    08    00002AC7
   00000001 00000001    08    00002AED
   00000001 00000001    08    00002BE7
   00000001 00000001    08    00002C0F
   00000001 00000001    08    00002C35
   00000001 00000001    08    00002C57
   00000001 00000001    08    00002C77
   00000001 00000001    08    00002C97
   00000001 00000001    08    00002CB9
   00000001 00000001    08    00002CF7
   00000001 00000001    08    00002D5F
   00000001 00000001    08    00002DBF
   00000001 00000001    08    00002DE7
   00000001 00000001    08    00002E0D
   00000001 00000001    08    00002E2F
   00000001 00000001    08    00002E4F
   00000001 00000001    08    00002E6F
   00000001 00000001    08    00002E91
   00000001 00000001    08    00002ECF
   00000001 00000001    08    00002F37
   00000001 00000001    08    00003047
1DISP     (DISP2193) (12:42) (15MAR04) Relocation Dictionary                                                                Page  145
   00000001 00000001    08    00003069
   00000001 00000001    08    00003105
   00000001 00000001    08    0000312B
   00000001 00000001    08    00003171
   00000001 00000001    08    000032AB
   00000001 00000001    08    000032CB
   00000001 00000001    08    000032EB
   00000001 00000001    08    0000330B
   00000001 00000001    08    00003377
   00000001 00000001    0C    00003468
   00000001 00000001    0C    00003488
   00000001 00000001    08    0000357F
   00000001 00000001    08    0000361D
   00000001 00000001    08    0000363D
   00000001 00000001    08    0000365F
   00000001 00000001    08    0000368D
   00000001 00000001    08    0000372B
   00000001 00000001    08    00003777
   00000001 00000001    08    0000379F
   00000001 00000001    08    000037DB
   00000001 00000001    08    00003803
   00000001 00000001    08    00003829
   00000001 00000001    08    00003849
   00000001 00000001    08    0000386F
   00000001 00000001    08    000038BD
   00000001 00000001    08    000038F5
   00000001 00000001    08    00003915
   00000001 00000001    08    00003969
   00000001 00000001    08    000039CB
   00000001 00000001    08    000039ED
   00000001 00000001    08    00003A0D
   00000001 00000001    08    00003A61
   00000001 00000001    08    00003B43
   00000001 00000001    08    00003DC3
   00000001 00000001    08    00003DE7
   00000001 00000001    08    00003E11
   00000001 00000001    08    00003E3B
   00000001 00000001    08    00003EDB
   00000001 00000001    08    00003F09
   00000001 00000001    0C    00003FD4
   00000001 00000001    0C    00003FE0
   00000001 00000001    0C    00003FE4
   00000001 00000001    0C    00003FE8
   00000001 00000001    0C    00003FFC
   00000001 00000001    0C    000042A0
   00000001 00000001    0C    000042AC
   00000001 00000001    08    00004301
   00000001 00000001    08    0000433B
   00000001 00000001    0C    000043A0
   00000001 00000001    08    000043EB
   00000001 00000001    08    000044C1
   00000001 00000001    08    00004769
   00000001 00000001    08    00004939
   00000001 00000001    08    00005009
   00000001 00000001    08    0000506D
   00000001 00000001    08    000050D5
   00000001 00000001    0C    000051A0
   00000001 00000001    0C    000051BC
   00000001 00000001    0C    000051C0
1DISP     (DISP2193) (12:42) (15MAR04) Relocation Dictionary                                                                Page  146
   00000001 00000001    0C    000051D8
   00000001 00000001    0C    000051E8
   00000001 00000002    1C    00000E0C
   00000001 00000003    1C    00000E10
   00000001 00000004    1C    00000E34
   00000001 00000005    1C    00000E3C
   00000001 00000005    1C    00003FC8
   00000001 00000005    1C    000051DC
   00000001 00000006    1C    00000E40
   00000001 00000006    1C    0000104C
   00000001 00000007    1C    00000E44
   00000001 00000008    1C    00000E48
   00000001 00000008    1C    00001C30
   00000001 00000008    1C    00002130
   00000001 00000008    1C    00002798
   00000001 00000008    1C    00003FD8
   00000001 00000009    1C    00000E50
   00000001 0000000A    1C    00000E58
   00000001 0000000A    1C    00001C44
   00000001 0000000A    1C    0000348C
   00000001 0000000B    1C    00000E5C
   00000001 0000000C    1C    00000E60
   00000001 0000000D    1C    00000E64
   00000001 0000000E    1C    00000E78
   00000001 0000000F    1C    00000E80
   00000001 0000000F    1C    00001C2C
   00000001 0000000F    1C    0000212C
   00000001 00000010    1C    00000E84
   00000001 00000011    1C    00000E88
   00000001 00000012    1C    00000E8C
   00000001 00000013    1C    00000E9C
   00000001 00000013    1C    00002138
   00000001 00000014    1C    00000EA0
   00000001 00000014    1C    00001050
   00000001 00000015    1C    00000EA4
   00000001 00000016    1C    00000EA8
   00000001 00000017    1C    00000EB0
   00000001 00000018    1C    0000103C
   00000001 00000019    1C    00001040
   00000001 0000001A    1C    00001C18
   00000001 0000001B    1C    00001C1C
   00000001 0000001B    1C    0000279C
   00000001 0000001B    1C    00003FDC
   00000001 0000001C    1C    00001C20
   00000001 0000001D    1C    00001C24
   00000001 0000001E    1C    00001C34
   00000001 0000001E    1C    00002784
   00000001 0000001F    1C    0000213C
   00000001 00000020    1C    00002780
   00000001 00000020    1C    00003490
   00000001 00000021    1C    0000278C
   00000001 00000022    1C    000027B0
   00000001 00000022    1C    0000349C
   00000001 00000023    1C    000027B4
   00000001 00000023    1C    00003494
   00000001 00000024    1C    0000346C
   00000001 00000025    1C    00003470
   00000001 00000026    1C    00003478
   00000001 00000027    1C    00003498
1DISP     (DISP2193) (12:42) (15MAR04) Relocation Dictionary                                                                Page  147
   00000001 00000028    1C    00003FEC
   00000001 00000029    1C    00003FF0
   00000001 0000002A    1C    000051E0
   00000001 0000002B    1C    000051E4
   00000001 0000002C    1C    000051EC
   00000001 0000002D    1C    0000520C
   00000001 0000002E    1C    00005220
   00000001 0000002F    1C    00005234
   00000001 00000030    1C    000053E0

1DISP     (DISP2193) (12:42) (15MAR04) Ordinary Symbol and Literal Cross Reference                                          Page  148
-Symbol   Length   Value     Id    R Type   Defn References                                  HLASM R4.0  2004/03/15 12.42
0$$$@R0        1 00000000 FFFFFFFE     J     705  1009
 $$$@R10       1 00000000 FFFFFFF4     J     835  1086
 $$$@R11       1 00000000 FFFFFFF3     J     848  1099
 $$$@R12       1 00000000 FFFFFFF2     J     861  1112
 $$$@R13       1 00000000 FFFFFFF1     J     874  1125
 $$$@R14       1 00000000 FFFFFFF0     J     887  1138
 $$$@R6        1 00000000 FFFFFFF8     J     783  1022
 $$$@R7        1 00000000 FFFFFFF7     J     796  1035
 $$$@R8        1 00000000 FFFFFFF6     J     809  1048   1060
 $$$@R9        1 00000000 FFFFFFF5     J     822  1073
 $$$C1WYLDISP
               1 00000298 00000001     J   14258 14260
 $$$C10WYLDISP
               1 00001C65 00000001     J   22840 22842
 $$$C11WYLDISP
               1 00002145 00000001     J   24231 24233  26256
 $$$C12WYLDISP
               1 000027C8 00000001     J   26419 26421
 $$$C13WYLDISP
               1 000034B2 00000001     J   30656 30658
 $$$C14WYLDISP
               1 00004068 00000001     J   34325 34327
 $$$C15WYLDISP
               1 00004111 00000001     J   34482 34484
 $$$C16WYLDISP
               1 000042B6 00000001     J   34757 34759
 $$$C17WYLDISP
               1 000043B2 00000001     J   34995 34997
 $$$C18WYLDISP
               1 00004488 00000001     J   35222 35224
 $$$C19WYLDISP
               1 00004508 00000001     J   35376 35378  35412  37075  39019
 $$$C2WYLDISP
               1 0000030C 00000001     J   14409 14411  16198  16217  17895
 $$$C20WYLDISP
               1 000052EA 00000001     J   39596 39598
 $$$C21WYLDISP
               1 000053EB 00000001     J   40021 40023
 $$$C22WYLDISP
               1 00005778 00000001     J   40089 40091
 $$$C3WYLDISP
               1 00000F0D 00000001     J   18332 18334
 $$$C4WYLDISP
               1 0000105F 00000001     J   18728 18730
 $$$C5WYLDISP
               1 000010CC 00000001     J   18839 18841
 $$$C6WYLDISP
               1 00001144 00000001     J   18972 18974
 $$$C7WYLDISP
               1 000011B4 00000001     J   19083 19085
 $$$C8WYLDISP
               1 0000122C 00000001     J   19216 19218
 $$$C9WYLDISP
               1 00001533 00000001     J   20297 20299  22075
 $$$DRCVMSG
1DISP     (DISP2193) (12:42) (15MAR04) Ordinary Symbol and Literal Cross Reference                                          Page  149
               2 00000EF6 00000001     H   17885 17894  17894
 $$$D11WYLDISP
               1 000027C1 00000001     J   24232 26245
 $$$D2WYLDISP
               1 00000EF1 00000001     J   14410 16188  16206  17884
 $$$RCELLBLOK
               1 00000000 FFFFFFD5     J   12693 12716  12716
 $$$RCKWA      1 00000000 FFFFFFCD     J   22061 22074  22074
 $$$RCP        1 00000000 FFFFFFEC     J    2489  4749   6223   6223
 $$$RCV        1 00000000 FFFFFFEE     J    1214  2399   2399
 $$$RDEV       1 00000000 FFFFFFEB     J    4703  4748   4748
 $$$RFIXWA
               1 00000000 FFFFFFCA     J   39003 39018  39018
 $$$RGCPUWA
               1 00000000 FFFFFFCC     J   35394 35411  35411
 $$$RJCB       1 00000000 FFFFFFD4     J   12722 12996  12996
 $$$RNSCNCB
               1 00000000 FFFFFFED     J    2410  2483   2483
 $$$RPBUF      1 00000000 FFFFFFD0     J   13228 13284  13284
 $$$RPCB       1 00000000 FFFFFFD1     J   13088 13219  13219
 $$$RPFCB      1 00000000 FFFFFFCF     J   13290 13374  13374
 $$$RPT        1 00000000 FFFFFFCE     J   13380 13402  13402
 $$$RRESOURCE
               1 00000000 FFFFFFD6     J   12647 12688  12688
 $$$RRSCGROUP
               1 00000000 FFFFFFD7     J   12586 12641  12641
 $$$RTTYPE
               1 00000000 FFFFFFEA     J    6234  6335   6335
 $$$RUCE       1 00000000 FFFFFFD3     J   13002 13052  13052
 $$$RUSERCVT
               1 00000000 FFFFFFE5     J    7672  7755   7755
 $$$RWBUFWA
               1 00000000 FFFFFFCB     J   37061 37074  37074
 $$$RWECB      1 00000000 FFFFFFD2     J   13066 13082  13082
 $$$SEGCB0
               4 00000050 FFFFFFEC     F    2520  2606   2606
 $$$V01       18 000053EB 00000001     C   40033 14507
 $$$V010      28 00005490 00000001     C   40042 19295
 $$$V011      15 000054AC 00000001     C   40043 20173
 $$$V012      15 000054BB 00000001     C   40044 20446  20482  20716  21010  21096
 $$$V013      10 000054CA 00000001     C   40045 21381
 $$$V014      21 000054D4 00000001     C   40046 22260  22287
 $$$V015      20 000054E9 00000001     C   40047 22954  22996  23067  23094  23122  23418
 $$$V016      25 000054FD 00000001     C   40048 23520
 $$$V017      18 00005516 00000001     C   40049 23806
 $$$V018      14 00005528 00000001     C   40050 24527  24556
 $$$V019      11 00005536 00000001     C   40051 24812  24856  24901  24994  25072  25199  25305  25340
 $$$V02       20 000053FD 00000001     C   40034 14542  17054  18451
 $$$V020      20 00005541 00000001     C   40052 26282
 $$$V021      18 00005555 00000001     C   40053 27633
 $$$V022      22 00005567 00000001     C   40054 27676
 $$$V023      19 0000557D 00000001     C   40055 28058  28088  28160  28187  28214  28242  28303  28393  28512  28542
                                                 28614  28641  28668  28696  28757  28847
 $$$V024      19 00005590 00000001     C   40056 29210  29238
 $$$V025      12 000055A3 00000001     C   40057 29435  29563
 $$$V026      18 000055AF 00000001     C   40058 30065  30094  30123  30269
 $$$V027      21 000055C1 00000001     C   40059 31049
 $$$V028      17 000055D6 00000001     C   40060 31394
 $$$V029      20 000055E7 00000001     C   40061 31707  31737  31824  31854  31926
1DISP     (DISP2193) (12:42) (15MAR04) Ordinary Symbol and Literal Cross Reference                                          Page  150
 $$$V03       17 00005411 00000001     C   40035 14684  14851  15031  15058  17278  17397  31280  31322  31350  33875
 $$$V030      36 000055FB 00000001     C   40062 31958
 $$$V031      27 0000561F 00000001     C   40063 32060
 $$$V032      19 0000563A 00000001     C   40064 32168
 $$$V033      15 0000564D 00000001     C   40065 32232  32480
 $$$V034      28 0000565C 00000001     C   40066 32345
 $$$V035      20 00005678 00000001     C   40067 32416
 $$$V036      22 0000568C 00000001     C   40068 32773
 $$$V037      20 000056A2 00000001     C   40069 33789
 $$$V038      17 000056B6 00000001     C   40070 33916
 $$$V039      18 000056C7 00000001     C   40071 34075
 $$$V04       21 00005422 00000001     C   40036 14823  15003  17251  17370  19439  19650  20146  22213  23040  23768
                                                 24618  25120  26559  26935  27267  27604  28132  28586  29491  30036
                                                 31620  31898  32141  32389  33829
 $$$V040      18 000056D9 00000001     C   40072 34125
 $$$V041      23 000056EB 00000001     C   40073 34838
 $$$V042      15 00005702 00000001     C   40074 34904
 $$$V043      16 00005711 00000001     C   40075 35083  35307
 $$$V044      19 00005721 00000001     C   40076 36055
 $$$V045      20 00005734 00000001     C   40077 36528
 $$$V046      18 00005748 00000001     C   40078 39079
 $$$V047      11 0000575A 00000001     C   40079 39194
 $$$V048      19 00005765 00000001     C   40080 39290
 $$$V05       18 00005437 00000001     C   40037 15118
 $$$V06       17 00005449 00000001     C   40038 15288  15322
 $$$V07       20 0000545A 00000001     C   40039 16938
 $$$V08       20 0000546E 00000001     C   40040 18422
 $$$V09       14 00005482 00000001     C   40041 18494
 $$$Z13        4 00003FC0 00000001     F   34293 31560  31575
 $$$100F       2 00000610 00000001     H   15397 15343B
 $$$101F       2 00000602 00000001     H   15370 15357B
 $$$102F       2 00000610 00000001     H   15393 15380B
 $$$103F       2 00000624 00000001     H   15434 15408B
 $$$104B       1 00000636 00000001     X   15458 15468U
 $$$105F       2 0000064C 00000001     H   15521 15502B
 $$$106F       2 00000716 00000001     H   15785 15553B 15574B 15592B 15611B 15630B 15735B
 $$$113F       2 000006C8 00000001     H   15739 15649B
 $$$115F       2 000007A2 00000001     H   16025 15827B
 $$$116F       2 000007A2 00000001     H   16021 15856B
 $$$116S       2 00000732 00000001     H   15847 16020B
 $$$118F       2 0000079E 00000001     H   16016 15872B
 $$$119F       2 00000756 00000001     H   15898 15888B
 $$$120F       2 0000079E 00000001     H   16012 15906B
 $$$121B       4 00000764 00000001     I   15921 15935
 $$$121F       2 0000076E 00000001     H   15932 15921B 15934
 $$$122E       2 00000772 00000001     H   15942 15936
 $$$122F       2 0000079E 00000001     H   16008 15938B
 $$$124F       2 0000079E 00000001     H   16004 15969B
 $$$125F       2 00000822 00000001     H   16179 16071B
 $$$126F       2 000007FA 00000001     H   16120 16099B
 $$$128F       2 0000081E 00000001     H   16174 16139B
 $$$129        4 00000EF2 00000001     I   16212 16204X
 $$$130        4 00000EF2 00000001     I   16211 16212  16212
 $$$131F       2 000008C8 00000001     H   16425 16265B
 $$$131S       2 00000846 00000001     H   16238 16424B
 $$$134F       2 000008C2 00000001     H   16413 16282B
 $$$137F       2 00000884 00000001     H   16340 16305B
 $$$138B       4 00000886 00000001     I   16351 16364
 $$$138F       2 00000890 00000001     H   16361 16351B 16363
1DISP     (DISP2193) (12:42) (15MAR04) Ordinary Symbol and Literal Cross Reference                                          Page  151
 $$$139E       2 00000894 00000001     H   16371 16365
 $$$139F       2 0000089A 00000001     H   16378 16367B
 $$$140F       2 000008A8 00000001     H   16400 16390B
 $$$141F       2 000008E8 00000001     H   16468 16455B
 $$$142F       2 000008FA 00000001     H   16504 16491B
 $$$143F       2 00000916 00000001     H   16535 16522B
 $$$144F       2 0000098A 00000001     H   16723 16559B
 $$$145S       2 00000926 00000001     H   16569 16707B
 $$$147B       4 00000946 00000001     I   16617 16648
 $$$147F       2 0000095A 00000001     H   16645 16617B 16647
 $$$148E       2 0000095E 00000001     H   16655 16649
 $$$148F       2 0000097A 00000001     H   16685 16651B
 $$$151F       2 00000BBC 00000001     H   17446 16755B
 $$$152F       2 000009BC 00000001     H   16805 16789B
 $$$153F       2 000009F4 00000001     H   16855 16833B
 $$$154F       2 00000A48 00000001     H   16980 16869B
 $$$155F       2 00000A48 00000001     H   16971 16911B
 $$$156F       2 00000A34 00000001     H   16942 16927B
 $$$157F       2 00000A7A 00000001     H   17025 16998B
 $$$158F       2 00000AA0 00000001     H   17058 17043B
 $$$159F       2 00000ADC 00000001     H   17163 17072B
 $$$160F       2 00000AC4 00000001     H   17118 17092B
 $$$161F       2 00000ADC 00000001     H   17159 17133B
 $$$162F       2 00000B3E 00000001     H   17292 17185B
 $$$163F       2 00000B18 00000001     H   17255 17240B
 $$$164F       2 00000B38 00000001     H   17282 17267B
 $$$165F       2 00000B94 00000001     H   17411 17304B
 $$$166F       2 00000B6E 00000001     H   17374 17359B
 $$$167F       2 00000B8E 00000001     H   17401 17386B
 $$$168F       2 00000C02 00000001     H   17593 17498B
 $$$169F       2 00000C02 00000001     H   17584 17531B
 $$$169S       2 00000BD6 00000001     H   17522 17583B
 $$$171F       2 00000BFE 00000001     H   17579 17547B
 $$$172F       2 00000BFA 00000001     H   17573 17563B
 $$$173F       2 00000C20 00000001     H   17655 17638B
 $$$173S       2 00000C0A 00000001     H   17611 17654B
 $$$176F       2 00000C40 00000001     H   17728 17668B 17699B
 $$$177F       2 00000C36 00000001     H   17702 17685B
 $$$180F       2 00000C8E 00000001     H   17780 17770B
 $$$181F       2 00000CE6 00000001     H   17904 17808B
 $$$182F       2 00000CE6 00000001     H   17900 17831B
 $$$183F       2 00000CF6 00000001     H   17932 17916B
 $$$184F       2 00000D0C 00000001     H   17964 17944B
 $$$185F       2 00000D66 00000001     H   18101 17997B 18028B 18061B
 $$$189F       2 00000DD6 00000001     H   18261 18131B
 $$$190F       2 00000DBA 00000001     H   18219 18147B
 $$$191F       2 00000DD6 00000001     H   18257 18232B
 $$$192B       1 00000F16 00000001     X   18349 18359U
 $$$193F       2 00000F58 00000001     H   18426 18411B
 $$$194F       2 00000F7A 00000001     H   18455 18440B
 $$$195F       2 00000FA6 00000001     H   18498 18483B
 $$$195T       2 00000F8E 00000001     H   18486 18472B
 $$$197F       2 00000FD6 00000001     H   18578 18565B
 $$$198F       2 00000FEE 00000001     H   18613 18600B
 $$$199F       2 0000102E 00000001     H   18700 18649B
 $$$200F       2 0000102E 00000001     H   18696 18665B
 $$$202B       1 0000107A 00000001     X   18765 18772U
 $$$203        1 00000050 00000001 A   U   18826 18823  18825
 $$$205B       1 000010E6 00000001     X   18875 18882U
1DISP     (DISP2193) (12:42) (15MAR04) Ordinary Symbol and Literal Cross Reference                                          Page  152
 $$$206F       2 00001126 00000001     H   18941 18904B
 $$$207        1 00000050 00000001 A   U   18959 18956  18958
 $$$209B       1 0000115E 00000001     X   19009 19016U
 $$$210        1 00000050 00000001 A   U   19070 19067  19069
 $$$212B       1 000011CE 00000001     X   19119 19126U
 $$$213F       2 0000120E 00000001     H   19185 19148B
 $$$214        1 00000050 00000001 A   U   19203 19200  19202
 $$$215F       2 00001400 00000001     H   19905 19866B
 $$$216B       1 00001246 00000001     X   19253 19260U
 $$$217F       2 00001266 00000001     H   19299 19284B
 $$$218F       2 00001282 00000001     H   19355 19330B
 $$$220F       2 00001310 00000001     H   19546 19369B
 $$$221B       4 00001292 00000001     I   19397 19509
 $$$221F       2 000012EA 00000001     H   19506 19397B 19508
 $$$222F       2 000012B8 00000001     H   19443 19428B
 $$$223B       4 000012BC 00000001     I   19454 19472
 $$$223F       2 000012CC 00000001     H   19469 19454B 19471
 $$$224E       2 000012D0 00000001     H   19479 19473
 $$$224F       2 000012EA 00000001     H   19497 19475B
 $$$225E       2 000012EE 00000001     H   19516 19510
 $$$225F       2 00001310 00000001     H   19537 19512B
 $$$226F       2 000013E0 00000001     H   19858 19560B 19579B
 $$$228B       4 00001328 00000001     I   19608 19720
 $$$228F       2 00001380 00000001     H   19717 19608B 19719
 $$$229F       2 0000134E 00000001     H   19654 19639B
 $$$230B       4 00001352 00000001     I   19665 19683
 $$$230F       2 00001362 00000001     H   19680 19665B 19682
 $$$231E       2 00001366 00000001     H   19690 19684
 $$$231F       2 00001380 00000001     H   19708 19686B
 $$$232E       2 00001384 00000001     H   19727 19721
 $$$232F       2 000013E0 00000001     H   19849 19723B
 $$$233F       2 000013CA 00000001     H   19833 19738B
 $$$234F       2 000013C6 00000001     H   19828 19757B
 $$$235F       2 000013C6 00000001     H   19824 19772B 19802B
 $$$237        1 00000050 00000001 A   U   19914 19911  19913
 $$$238F       2 00001518 00000001     H   20274 20111B
 $$$239B       1 00001428 00000001     X   19953 19960U
 $$$240F       2 0000144A 00000001     H   20014 19998B
 $$$241F       2 00001488 00000001     H   20104 20056B
 $$$241S       2 0000144A 00000001     H   20044 20103B
 $$$245F       2 000014BE 00000001     H   20150 20135B
 $$$246F       2 000014DE 00000001     H   20177 20162B
 $$$247F       2 00001508 00000001     H   20239 20201B
 $$$248        1 00000050 00000001 A   U   20283 20280  20282
 $$$249B       1 00001544 00000001     X   20348 20355U
 $$$250F       2 0000154E 00000001     H   20376 20366B
 $$$251F       2 0000155A 00000001     H   20401 20386B
 $$$252F       2 0000159C 00000001     H   20450 20435B
 $$$253F       2 000015CA 00000001     H   20486 20471B
 $$$256B       4 00001660 00000001     I   20638 20725
 $$$256F       2 000016A4 00000001     H   20720 20624B 20638B 20722
 $$$257B       4 00001658 00000001     I   20624 20723
 $$$258F       2 0000168C 00000001     H   20709 20658B
 $$$258S       2 00001668 00000001     H   20649 20708B
 $$$260F       2 00001688 00000001     H   20704 20677B
 $$$262E       2 000016A8 00000001     H   20732 20724  20726
 $$$262F       2 000016BC 00000001     H   20758 20728B
 $$$263F       2 000016DE 00000001     H   20794 20784B
 $$$264B       1 00001712 00000001     X   20851 20861U
1DISP     (DISP2193) (12:42) (15MAR04) Ordinary Symbol and Literal Cross Reference                                          Page  153
 $$$265F       2 00001720 00000001     H   20899 20889B
 $$$266F       2 00001740 00000001     H   20931 20919B
 $$$266S       2 00001728 00000001     H   20910 20930B
 $$$268F       2 000017A2 00000001     H   21048 20958B
 $$$269F       2 00001796 00000001     H   21014 20999B
 $$$270F       2 0000179E 00000001     H   21037 21021B
 $$$272F       2 000017DC 00000001     H   21100 21085B
 $$$273F       2 00001836 00000001     H   21214 21117B
 $$$273S       2 000017E2 00000001     H   21108 21213B
 $$$275F       2 00001802 00000001     H   21152 21142B
 $$$276F       2 00001826 00000001     H   21206 21171B
 $$$277F       2 00001848 00000001     H   21245 21229B
 $$$278F       2 00001862 00000001     H   21277 21255B
 $$$279B       1 0000187A 00000001     X   21304 21314U
 $$$280F       2 000018B2 00000001     H   21385 21370B
 $$$280T       2 0000189A 00000001     H   21373 21359B
 $$$282F       2 0000191E 00000001     H   21515 21482B
 $$$282S       2 0000190A 00000001     H   21473 21514B
 $$$286B       1 0000196C 00000001     X   21633 21640U
 $$$287B       4 0000199C 00000001     I   21709 21722
 $$$287F       2 000019A8 00000001     H   21719 21709B 21721
 $$$288E       2 000019AC 00000001     H   21729 21723
 $$$288F       2 000019B4 00000001     H   21776 21725B
 $$$289B       4 000019B6 00000001     I   21797 21822
 $$$289F       2 000019CC 00000001     H   21819 21797B 21821
 $$$290E       2 000019D0 00000001     H   21829 21823
 $$$290F       2 000019E2 00000001     H   21848 21825B
 $$$291F       2 000019F0 00000001     H   21874 21864B
 $$$292F       2 00001A4E 00000001     H   22021 21915B
 $$$292S       2 000019F6 00000001     H   21888 22020B
 $$$295F       2 00001A48 00000001     H   22009 21933B
 $$$296B       4 00001A0C 00000001     I   21947 21960
 $$$296F       2 00001A16 00000001     H   21957 21947B 21959
 $$$297E       2 00001A1A 00000001     H   21967 21961
 $$$297F       2 00001A20 00000001     H   21974 21963B
 $$$298F       2 00001A2E 00000001     H   21996 21986B
 $$$299        1 00000050 00000001 A   U   22046 22043  22045
 $$$300F       2 00001B70 00000001     H   22478 22148B
 $$$301B       1 00001A78 00000001     X   22103 22110U
 $$$303F       2 00001B70 00000001     H   22462 22170B
 $$$303S       2 00001A90 00000001     H   22163 22461B
 $$$305F       2 00001ABA 00000001     H   22217 22202B
 $$$306F       2 00001B6C 00000001     H   22452 22232B
 $$$307F       2 00001AE8 00000001     H   22264 22249B
 $$$308F       2 00001B08 00000001     H   22291 22276B
 $$$311        1 00000054 00000001 A   U   22487 22484  22486
 $$$312F       2 00001C0A 00000001     H   22798 22548B
 $$$313B       1 00001B98 00000001     X   22520 22527U
 $$$315F       2 00001C0A 00000001     H   22788 22565B
 $$$316F       2 00001C0A 00000001     H   22784 22611B
 $$$316S       2 00001BB0 00000001     H   22584 22783B
 $$$319F       2 00001C06 00000001     H   22774 22628B 22662B
 $$$321F       2 00001C06 00000001     H   22765 22678B 22708B 22726B 22744B
 $$$325        1 00000050 00000001 A   U   22807 22804  22806
 $$$327B       1 00001C80 00000001     X   22873 22880U
 $$$329F       2 00001CBC 00000001     H   22958 22943B
 $$$330F       2 00001CDC 00000001     H   23000 22985B
 $$$331F       2 00001D02 00000001     H   23044 23029B
 $$$332F       2 00001D22 00000001     H   23071 23056B
1DISP     (DISP2193) (12:42) (15MAR04) Ordinary Symbol and Literal Cross Reference                                          Page  154
 $$$333F       2 00001D42 00000001     H   23098 23083B
 $$$334F       2 00001D64 00000001     H   23126 23111B
 $$$335F       2 00001D7E 00000001     H   23162 23151B
 $$$336F       2 00001DA4 00000001     H   23212 23202B
 $$$337F       2 00001DC4 00000001     H   23237 23226B
 $$$338F       2 00001DF2 00000001     H   23279 23269B
 $$$339F       2 00001E5A 00000001     H   23394 23313B
 $$$340F       2 00001E7C 00000001     H   23422 23407B
 $$$341F       2 00001EF0 00000001     H   23578 23449B 23484B
 $$$342F       2 00001E94 00000001     H   23487 23468B
 $$$344F       2 00001EBA 00000001     H   23524 23509B
 $$$345F       2 00001F1A 00000001     H   23626 23603B
 $$$346        1 00000050 00000001 A   U   23675 23672  23674
 $$$348B       1 00001F5C 00000001     X   23715 23722U
 $$$349F       2 00001F7E 00000001     H   23772 23757B
 $$$350F       2 00001FAA 00000001     H   23810 23795B
 $$$351        1 00000050 00000001 A   U   24178 24175  24177
 $$$353B       1 00002160 00000001     X   24284 24291U
 $$$354        1 00000050 00000001 A   U   24344 24341  24343
 $$$355F       2 0000229C 00000001     H   24712 24424B
 $$$356B       1 000021B4 00000001     X   24381 24388U
 $$$357F       2 000021CA 00000001     H   24428 24411B
 $$$358B       4 000021DC 00000001     I   24464 24478
 $$$358F       2 000021E4 00000001     H   24474 24464B 24477
 $$$359E       2 000021E8 00000001     H   24485 24479
 $$$359F       2 00002296 00000001     H   24694 24481B
 $$$360F       2 00002214 00000001     H   24531 24516B
 $$$361F       2 00002234 00000001     H   24560 24545B
 $$$362B       4 0000223E 00000001     I   24575 24636
 $$$362F       2 0000226C 00000001     H   24632 24575B 24635
 $$$363F       2 00002268 00000001     H   24622 24607B
 $$$364E       2 00002270 00000001     H   24643 24637
 $$$364F       2 00002294 00000001     H   24681 24639B
 $$$365        1 00000050 00000001 A   U   24721 24718  24720
 $$$367B       1 000022C4 00000001     X   24759 24766U
 $$$368F       2 000022EA 00000001     H   24816 24801B
 $$$369F       2 00002474 00000001     H   25240 24827B
 $$$370F       2 00002310 00000001     H   24860 24845B
 $$$371F       2 00002338 00000001     H   24905 24890B
 $$$373F       2 0000235C 00000001     H   24963 24949B
 $$$374F       2 00002384 00000001     H   24998 24983B
 $$$375F       2 000023DC 00000001     H   25081 25011B
 $$$376F       2 000023D8 00000001     H   25076 25061B
 $$$377F       2 000023FE 00000001     H   25124 25109B
 $$$378F       2 00002452 00000001     H   25208 25138B
 $$$379F       2 0000244E 00000001     H   25203 25188B
 $$$380F       2 000024B0 00000001     H   25330 25250B
 $$$382F       2 000024AA 00000001     H   25309 25294B
 $$$383        1 00000050 00000001 A   U   25375 25372  25374
 $$$385B       1 000024FC 00000001     X   25413 25420U
 $$$386        1 00000050 00000001 A   U   25532 25529  25531
 $$$388B       1 00002572 00000001     X   25567 25574U
 $$$389B       4 0000257C 00000001     I   25607 25638
 $$$389F       2 00002584 00000001     H   25634 25607B 25637
 $$$390E       2 00002588 00000001     H   25645 25639
 $$$390F       2 00002592 00000001     H   25667 25641B
 $$$391F       2 00002592 00000001     H   25663 25654B
 $$$392        1 00000050 00000001 A   U   25693 25690  25692
 $$$394B       1 000025BE 00000001     X   25728 25735U
1DISP     (DISP2193) (12:42) (15MAR04) Ordinary Symbol and Literal Cross Reference                                          Page  155
 $$$395B       4 000025C8 00000001     I   25768 25799
 $$$395F       2 000025D0 00000001     H   25795 25768B 25798
 $$$396E       2 000025D4 00000001     H   25806 25800
 $$$396F       2 000025DE 00000001     H   25828 25802B
 $$$397F       2 000025DE 00000001     H   25824 25815B
 $$$398        1 00000050 00000001 A   U   25854 25851  25853
 $$$400B       1 0000260A 00000001     X   25900 25907U
 $$$401F       2 0000263C 00000001     H   26019 25929B 25943B
 $$$403F       2 0000263C 00000001     H   26010 25976B
 $$$404F       2 0000263C 00000001     H   26006 25994B
 $$$405        1 00000050 00000001 A   U   26038 26035  26037
 $$$406B       1 00002664 00000001     X   26059 26066U
 $$$407F       2 0000268E 00000001     H   26137 26077B
 $$$408B       4 00002672 00000001     I   26095 26109
 $$$408F       2 00002682 00000001     H   26106 26095B 26108
 $$$409E       2 00002686 00000001     H   26116 26110
 $$$409F       2 0000268E 00000001     H   26133 26112B
 $$$410B       1 000026B6 00000001     X   26169 26176U
 $$$411F       2 000026FE 00000001     H   26275 26197B
 $$$411S       2 000026C2 00000001     H   26190 26274B
 $$$413F       2 000026F2 00000001     H   26268 26221B
 $$$414F       2 000026E6 00000001     H   26261 26236B
 $$$415        6 000027C2 00000001     I   26251 26243X
 $$$416        6 000027C2 00000001     I   26250 26251  26251
 $$$417B       1 0000273C 00000001     X   26310 26317U
 $$$418F       2 0000276A 00000001     H   26373 26349B
 $$$418S       2 0000274A 00000001     H   26340 26372B
 $$$421B       1 000027E2 00000001     X   26453 26460U
 $$$422F       2 0000282A 00000001     H   26622 26493B
 $$$423F       2 00002816 00000001     H   26563 26548B
 $$$424F       2 0000282A 00000001     H   26613 26575B
 $$$425        1 00000050 00000001 A   U   26646 26643  26645
 $$$427B       1 00002852 00000001     X   26678 26685U
 $$$428        1 00000050 00000001 A   U   26797 26794  26796
 $$$430B       1 000028C8 00000001     X   26829 26836U
 $$$431F       2 00002900 00000001     H   26955 26869B
 $$$432F       2 000028FC 00000001     H   26939 26924B
 $$$433        1 00000050 00000001 A   U   26978 26975  26977
 $$$435B       1 00002928 00000001     X   27010 27017U
 $$$436        1 00000050 00000001 A   U   27129 27126  27128
 $$$438B       1 0000299E 00000001     X   27161 27168U
 $$$439F       2 000029D6 00000001     H   27288 27201B
 $$$44B        1 00000032 00000001     X   13481 13488U
 $$$440F       2 000029D2 00000001     H   27271 27256B
 $$$441        1 00000050 00000001 A   U   27311 27308  27310
 $$$443B       1 000029FE 00000001     X   27343 27350U
 $$$444        1 00000050 00000001 A   U   27462 27459  27461
 $$$446B       1 00002A74 00000001     X   27497 27504U
 $$$447F       2 00002B02 00000001     H   27722 27537B
 $$$448F       2 00002AA8 00000001     H   27608 27593B
 $$$449F       2 00002ACA 00000001     H   27637 27622B
 $$$45B        4 00000036 00000001     I   13512 13560
 $$$45F        2 0000005E 00000001     H   13556 13512B 13559
 $$$450F       2 00002AF0 00000001     H   27680 27665B
 $$$451F       2 00002AFC 00000001     H   27706 27691B
 $$$452        1 00000050 00000001 A   U   27745 27742  27744
 $$$454B       1 00002B2A 00000001     X   27780 27787U
 $$$455        1 00000050 00000001 A   U   27899 27896  27898
 $$$457B       1 00002BA0 00000001     X   27934 27941U
1DISP     (DISP2193) (12:42) (15MAR04) Ordinary Symbol and Literal Cross Reference                                          Page  156
 $$$459F       2 00002D84 00000001     H   28435 27996B 28012B 28260B
 $$$461F       2 00002BEA 00000001     H   28062 28047B
 $$$462F       2 00002C12 00000001     H   28092 28077B
 $$$463F       2 00002C38 00000001     H   28136 28121B
 $$$464F       2 00002C5A 00000001     H   28164 28149B
 $$$465F       2 00002C7A 00000001     H   28191 28176B
 $$$466F       2 00002C9A 00000001     H   28218 28203B
 $$$467F       2 00002CBC 00000001     H   28246 28231B
 $$$469F       2 00002CFA 00000001     H   28307 28292B
 $$$470F       2 00002D62 00000001     H   28397 28382B
 $$$471F       2 00002F5C 00000001     H   28889 28450B 28466B 28714B
 $$$473F       2 00002DC2 00000001     H   28516 28501B
 $$$474F       2 00002DEA 00000001     H   28546 28531B
 $$$475F       2 00002E10 00000001     H   28590 28575B
 $$$476F       2 00002E32 00000001     H   28618 28603B
 $$$477F       2 00002E52 00000001     H   28645 28630B
 $$$478F       2 00002E72 00000001     H   28672 28657B
 $$$479F       2 00002E94 00000001     H   28700 28685B
 $$$48E        2 00000062 00000001     H   13567 13561
 $$$48F        2 00000184 00000001     H   13996 13563B
 $$$481F       2 00002ED2 00000001     H   28761 28746B
 $$$482F       2 00002F3A 00000001     H   28851 28836B
 $$$483        1 00000050 00000001 A   U   28913 28910  28912
 $$$484B       1 00002F84 00000001     X   28934 28941U
 $$$485F       2 00002FD8 00000001     H   29064 28967B 28984B
 $$$487F       2 00002FCC 00000001     H   29052 29026B 29042B
 $$$49F        2 0000009A 00000001     H   13669 13629B
 $$$49S        2 00000082 00000001     H   13620 13668B
 $$$490F       2 0000302A 00000001     H   29170 29156B
 $$$491F       2 0000304A 00000001     H   29214 29199B
 $$$492F       2 0000306C 00000001     H   29242 29227B
 $$$493F       2 000030A4 00000001     H   29301 29291B
 $$$495B       1 000030D8 00000001     X   29367 29374U
 $$$496B       4 000030E2 00000001     I   29407 29531
 $$$496F       2 0000314E 00000001     H   29527 29407B 29530
 $$$497F       2 00003108 00000001     H   29439 29424B
 $$$498F       2 0000312E 00000001     H   29495 29480B
 $$$499E       2 00003152 00000001     H   29538 29532
 $$$499F       2 00003176 00000001     H   29575 29534B
 $$$500F       2 00003174 00000001     H   29567 29552B
 $$$501        1 00000050 00000001 A   U   29598 29595  29597
 $$$503B       1 0000319E 00000001     X   29630 29637U
 $$$504        1 00000050 00000001 A   U   29749 29746  29748
 $$$506B       1 00003214 00000001     X   29785 29792U
 $$$507F       2 00003232 00000001     H   29832 29813B
 $$$508F       2 00003258 00000001     H   29891 29877B
 $$$508T       2 00003244 00000001     H   29880 29865B
 $$$51F        2 000000EA 00000001     H   13752 13721B
 $$$51S        2 000000D2 00000001     H   13712 13751B
 $$$510F       2 00003274 00000001     H   29953 29938B
 $$$511F       2 00003282 00000001     H   29981 29966B
 $$$512F       2 0000332E 00000001     H   30179 29993B
 $$$513F       2 000032AE 00000001     H   30040 30025B
 $$$514F       2 000032CE 00000001     H   30069 30054B
 $$$515F       2 000032EE 00000001     H   30098 30083B
 $$$516F       2 0000330E 00000001     H   30127 30112B
 $$$517F       2 0000332E 00000001     H   30170 30143B
 $$$518F       2 000033C2 00000001     H   30343 30228B
 $$$519F       2 0000337A 00000001     H   30273 30258B
1DISP     (DISP2193) (12:42) (15MAR04) Ordinary Symbol and Literal Cross Reference                                          Page  157
 $$$520        1 00000050 00000001 A   U   30370 30367  30369
 $$$522B       1 000033EA 00000001     X   30402 30409U
 $$$523F       2 00003402 00000001     H   30454 30427B
 $$$524        1 00000050 00000001 A   U   30472 30469  30471
 $$$526B       1 0000342A 00000001     X   30507 30514U
 $$$527F       2 0000345A 00000001     H   30607 30542B
 $$$527S       2 00003432 00000001     H   30533 30606B
 $$$529F       2 0000344E 00000001     H   30593 30576B
 $$$53F        2 00000150 00000001     H   13931 13772B
 $$$53S        2 000000F2 00000001     H   13763 13930B
 $$$530        1 00000050 00000001 A   U   30626 30623  30625
 $$$532B       1 000034CC 00000001     X   30701 30708U
 $$$533F       2 000034FC 00000001     H   30820 30728B 30747B
 $$$535B       4 000034EE 00000001     I   30781 30794
 $$$535F       2 000034F6 00000001     H   30791 30781B 30793
 $$$536E       2 000034FA 00000001     H   30801 30795
 $$$536F       2 000034FC 00000001     H   30811 30797B
 $$$537        1 00000050 00000001 A   U   30839 30836  30838
 $$$539B       1 00003524 00000001     X   30881 30888U
 $$$540F       2 000035C6 00000001     H   31149 30922B 30941B
 $$$542F       2 00003556 00000001     H   30987 30976B
 $$$543S       2 0000355E 00000001     H   31011 31083B
 $$$544F       2 00003582 00000001     H   31053 31038B
 $$$545F       2 00003592 00000001     H   31074 31064B
 $$$546F       2 000035C4 00000001     H   31130 31120B
 $$$547        1 00000050 00000001 A   U   31173 31170  31172
 $$$549B       1 000035EE 00000001     X   31209 31216U
 $$$55F        2 00000148 00000001     H   13912 13804B
 $$$550F       2 00003694 00000001     H   31413 31239B
 $$$550S       2 000035F2 00000001     H   31234 31412B
 $$$552F       2 00003620 00000001     H   31284 31269B
 $$$553F       2 00003640 00000001     H   31326 31311B
 $$$554F       2 00003662 00000001     H   31354 31339B
 $$$555F       2 00003690 00000001     H   31398 31368B
 $$$556        1 00000050 00000001 A   U   31431 31428  31430
 $$$557B       1 000036BC 00000001     X   31465 31472U
 $$$558F       2 000036E4 00000001     H   31527 31499B
 $$$558T       2 000036CA 00000001     H   31502 31487B
 $$$56F        2 00000134 00000001     H   13868 13830B
 $$$56S        2 00000116 00000001     H   13823 13867B
 $$$560F       2 000037B6 00000001     H   31773 31561B 31576B
 $$$562F       2 0000372E 00000001     H   31624 31609B
 $$$563F       2 00003750 00000001     H   31666 31638B
 $$$564F       2 0000377A 00000001     H   31711 31696B
 $$$565F       2 000037A2 00000001     H   31741 31726B
 $$$566F       2 000037DE 00000001     H   31828 31813B
 $$$567F       2 00003806 00000001     H   31858 31843B
 $$$568F       2 0000382C 00000001     H   31902 31887B
 $$$569F       2 0000384C 00000001     H   31930 31915B
 $$$570F       2 00003872 00000001     H   31962 31947B
 $$$571B       1 0000389E 00000001     X   32027 32034U
 $$$572F       2 000038C0 00000001     H   32064 32049B
 $$$573F       2 000038D6 00000001     H   32101 32091B
 $$$573T       2 000038CE 00000001     H   32094 32079B
 $$$575F       2 000038F8 00000001     H   32145 32130B
 $$$576F       2 00003918 00000001     H   32172 32157B
 $$$577F       2 0000396C 00000001     H   32236 32221B
 $$$578B       1 000039AC 00000001     X   32312 32319U
 $$$579F       2 000039CE 00000001     H   32349 32334B
1DISP     (DISP2193) (12:42) (15MAR04) Ordinary Symbol and Literal Cross Reference                                          Page  158
 $$$58F        2 00000172 00000001     H   13965 13955B
 $$$580F       2 000039F0 00000001     H   32393 32378B
 $$$581F       2 00003A10 00000001     H   32420 32405B
 $$$582F       2 00003A64 00000001     H   32484 32469B
 $$$584B       1 00003A9C 00000001     X   32561 32568U
 $$$585F       2 00003ABE 00000001     H   32605 32595B
 $$$586F       2 00003B00 00000001     H   32682 32634B
 $$$586T       2 00003ACC 00000001     H   32637 32622B
 $$$588        1 00000050 00000001 A   U   32700 32697  32699
 $$$589F       2 00003C0C 00000001     H   33072 32791B 32815B
 $$$59F        2 00000184 00000001     H   13992 13977B
 $$$59S        2 00000172 00000001     H   13971 13991B
 $$$590B       1 00003B28 00000001     X   32736 32743U
 $$$591F       2 00003B46 00000001     H   32777 32762B
 $$$594F       2 00003B94 00000001     H   32864 32847B
 $$$595F       2 00003BB4 00000001     H   32895 32878B
 $$$596F       2 00003BC4 00000001     H   32918 32908B
 $$$597B       4 00003BC6 00000001     I   32927 32966
 $$$597F       2 00003BDC 00000001     H   32962 32927B 32965
 $$$598F       2 00003BDC 00000001     H   32958 32943B
 $$$598S       2 00003BCA 00000001     H   32937 32957B
 $$$600E       2 00003BE0 00000001     H   32973 32967
 $$$600F       2 00003C0C 00000001     H   33063 32969B
 $$$601F       2 00003C0C 00000001     H   33059 32987B
 $$$601S       2 00003BE2 00000001     H   32981 33058B
 $$$603B       4 00003BEE 00000001     I   33002 33039
 $$$603F       2 00003C02 00000001     H   33036 33002B 33038
 $$$604F       2 00003C02 00000001     H   33032 33017B
 $$$605E       2 00003C06 00000001     H   33046 33040
 $$$605F       2 00003C08 00000001     H   33054 33042B
 $$$606        1 00000050 00000001 A   U   33081 33078  33080
 $$$608B       1 00003C3A 00000001     X   33116 33123U
 $$$609F       2 00003C8A 00000001     H   33337 33146B
 $$$61F        2 0000019A 00000001     H   14026 14016B
 $$$610F       2 00003C6C 00000001     H   33259 33163B
 $$$611F       2 00003C6C 00000001     H   33255 33204B 33217B
 $$$613B       4 00003C7A 00000001     I   33296 33314
 $$$613F       2 00003C82 00000001     H   33311 33296B 33313
 $$$613T       2 00003C7E 00000001     H   33299 33284B
 $$$615E       2 00003C86 00000001     H   33321 33315
 $$$615F       2 00003C8A 00000001     H   33333 33317B
 $$$616B       4 00003C9E 00000001     I   33385 33401
 $$$616F       2 00003CAE 00000001     H   33395 33385B 33400
 $$$617E       2 00003CB2 00000001     H   33408 33402
 $$$617F       2 00003CDE 00000001     H   33459 33404B
 $$$618F       2 00003CC8 00000001     H   33432 33422B
 $$$619F       2 00003CDE 00000001     H   33455 33445B
 $$$62F        2 000001DE 00000001     H   14103 14061B
 $$$62S        2 000001C0 00000001     H   14052 14102B
 $$$620F       2 00003CEE 00000001     H   33486 33476B
 $$$621F       2 00003CFE 00000001     H   33511 33501B
 $$$622F       2 00003D0E 00000001     H   33535 33525B
 $$$623F       2 00003D1E 00000001     H   33560 33550B
 $$$624F       2 00003D2E 00000001     H   33584 33574B
 $$$625        1 00000050 00000001 A   U   33607 33604  33606
 $$$626B       1 00003D58 00000001     X   33627 33634U
 $$$627B       1 00003D7E 00000001     X   33681 33688U
 $$$628B       1 00003DA4 00000001     X   33736 33743U
 $$$629B       1 00003DA6 00000001     X   33751 33761U
1DISP     (DISP2193) (12:42) (15MAR04) Ordinary Symbol and Literal Cross Reference                                          Page  159
 $$$630F       2 00003DC6 00000001     H   33793 33778B
 $$$631F       2 00003DEA 00000001     H   33833 33818B
 $$$632F       2 00003E14 00000001     H   33879 33846B 33863B
 $$$634F       2 00003E3E 00000001     H   33920 33905B
 $$$635F       2 00003E4E 00000001     H   33950 33935B
 $$$636F       2 00003E8A 00000001     H   34023 34011B
 $$$637F       2 00003EDE 00000001     H   34079 34064B
 $$$638F       2 00003F12 00000001     H   34140 34097B
 $$$639F       2 00003F0C 00000001     H   34129 34114B
 $$$64F        2 000001F4 00000001     H   14131 14121B
 $$$642B       1 00004082 00000001     X   34381 34388U
 $$$643        1 00000050 00000001 A   U   34466 34463  34465
 $$$645B       1 0000412C 00000001     X   34524 34531U
 $$$646B       4 00004138 00000001     I   34554 34626
 $$$646F       2 00004180 00000001     H   34623 34554B 34625
 $$$647F       2 00004154 00000001     H   34594 34584B
 $$$647S       2 00004144 00000001     H   34575 34593B
 $$$649E       2 00004184 00000001     H   34633 34627
 $$$649F       2 0000418E 00000001     H   34643 34629B
 $$$65F        2 00000242 00000001     H   14210 14167B
 $$$65S        2 00000220 00000001     H   14158 14209B
 $$$650        1 00000050 00000001 A   U   34668 34665  34667
 $$$652B       1 000042D0 00000001     X   34794 34801U
 $$$653F       2 00004304 00000001     H   34842 34827B
 $$$654B       4 0000430A 00000001     I   34855 34872
 $$$654F       2 00004318 00000001     H   34868 34855B 34871
 $$$655E       2 0000431C 00000001     H   34879 34873
 $$$655F       2 00004382 00000001     H   34947 34875B
 $$$656F       2 0000433E 00000001     H   34908 34893B
 $$$657        1 00000050 00000001 A   U   34977 34974  34976
 $$$659B       1 000043CC 00000001     X   35044 35051U
 $$$660F       2 000043EE 00000001     H   35087 35072B
 $$$661B       4 000043F6 00000001     I   35114 35140
 $$$661F       2 0000441E 00000001     H   35136 35114B 35139
 $$$662E       2 00004422 00000001     H   35147 35141
 $$$662F       2 00004456 00000001     H   35175 35143B
 $$$663        1 00000050 00000001 A   U   35211 35208  35210
 $$$665B       1 000044A2 00000001     X   35268 35275U
 $$$666F       2 000044C4 00000001     H   35311 35296B
 $$$667        1 00000050 00000001 A   U   35365 35362  35364
 $$$668B       1 00004522 00000001     X   35425 35432U
 $$$669B       4 00004526 00000001     I   35456 35485
 $$$669F       2 00004560 00000001     H   35481 35456B 35484
 $$$67         1 00000050 00000001 A   U   14228 14225  14227
 $$$670E       2 00004564 00000001     H   35492 35486
 $$$670F       2 00004568 00000001     H   35501 35488B
 $$$671F       2 00004576 00000001     H   35528 35512B
 $$$672F       2 000045A8 00000001     H   35564 35546B
 $$$673F       2 000045B4 00000001     H   35586 35573B
 $$$674F       2 000045BE 00000001     H   35607 35594B
 $$$675F       2 000045D8 00000001     H   35658 35621B 35633B 35645B
 $$$678B       1 000045EA 00000001     X   35686 35693U
 $$$68B        1 0000029A 00000001     X   14274 14281U
 $$$680B       1 0000461E 00000001     X   35744 35751U
 $$$681F       2 000046A0 00000001     H   35896 35867B
 $$$681S       2 00004682 00000001     H   35860 35895B
 $$$683F       2 00004698 00000001     H   35890 35880B
 $$$684F       2 000046B6 00000001     H   35927 35907B
 $$$685B       4 000046E4 00000001     I   35967 35988
1DISP     (DISP2193) (12:42) (15MAR04) Ordinary Symbol and Literal Cross Reference                                          Page  160
 $$$685F       2 0000470E 00000001     H   35984 35967B 35987
 $$$686E       2 00004712 00000001     H   35995 35989
 $$$686F       2 00004738 00000001     H   36013 35991B
 $$$687F       2 00004780 00000001     H   36068 36031B
 $$$687S       2 00004746 00000001     H   36024 36067B
 $$$689F       2 0000476C 00000001     H   36059 36044B
 $$$69B        4 000002A0 00000001     I   14298 14315
 $$$69F        2 000002B8 00000001     H   14312 14298B 14314
 $$$690F       2 000047BE 00000001     H   36162 36146B
 $$$692F       2 000047EA 00000001     H   36197 36181B
 $$$695F       2 0000480E 00000001     H   36229 36219B
 $$$697        1 00000050 00000001 A   U   36309 36306  36308
 $$$698F       2 00004950 00000001     H   36563 36396B
 $$$699B       1 000048CA 00000001     X   36368 36375U
 $$$70E        2 000002BC 00000001     H   14322 14316
 $$$70F        2 000002D0 00000001     H   14333 14318B
 $$$701F       2 00004950 00000001     H   36554 36416B
 $$$702F       2 00004924 00000001     H   36521 36486B
 $$$702S       2 00004904 00000001     H   36458 36520B
 $$$705F       2 00004920 00000001     H   36511 36501B
 $$$706        1 00000050 00000001 A   U   36572 36569  36571
 $$$708B       1 00004978 00000001     X   36606 36613U
 $$$709F       2 00004998 00000001     H   36676 36644B
 $$$709S       2 00004982 00000001     H   36639 36675B
 $$$71B        1 0000030E 00000001     X   14426 14433U
 $$$711        1 00000050 00000001 A   U   36695 36692  36694
 $$$713B       1 000049C0 00000001     X   36729 36736U
 $$$714F       2 00004AB4 00000001     H   37009 36772B
 $$$715F       2 00004A1C 00000001     H   36851 36790B 36807B 36833B
 $$$72F        2 00000354 00000001     H   14511 14478B 14495B
 $$$720F       2 00004A50 00000001     H   36936 36922B
 $$$721        1 00000050 00000001 A   U   37047 37044  37046
 $$$722F       2 00004D64 00000001     H   38095 37141B
 $$$723B       1 00004AEC 00000001     X   37104 37111U
 $$$725F       2 00004B22 00000001     H   37213 37184B
 $$$725S       2 00004B0E 00000001     H   37179 37212B
 $$$727F       2 00004D4C 00000001     H   38043 37347B 37362B
 $$$727S       2 00004B6A 00000001     H   37341 38042B
 $$$730F       2 00004BA0 00000001     H   37419 37406B
 $$$731F       2 00004BD8 00000001     H   37505 37495B
 $$$731T       2 00004BD4 00000001     H   37498 37484B
 $$$733B       4 00004BDC 00000001     I   37518 37572
 $$$733F       2 00004C02 00000001     H   37569 37518B 37571
 $$$734E       2 00004C06 00000001     H   37579 37573
 $$$734F       2 00004C42 00000001     H   37678 37575B
 $$$735F       2 00004C18 00000001     H   37610 37598B
 $$$736F       2 00004CC8 00000001     H   37883 37723B
 $$$737F       2 00004D3A 00000001     H   38004 37947B
 $$$738F       2 00004D64 00000001     H   38081 38054B
 $$$739        1 00000064 00000001 A   U   38104 38101  38103
 $$$74F        2 00000380 00000001     H   14546 14531B
 $$$741B       1 00004D8C 00000001     X   38133 38140U
 $$$742F       2 00004DAC 00000001     H   38210 38163B 38178B
 $$$744        1 00000050 00000001 A   U   38247 38244  38246
 $$$745F       2 00004F14 00000001     H   38785 38311B
 $$$746B       1 00004DEA 00000001     X   38283 38290U
 $$$748B       4 00004E48 00000001     I   38430 38460
 $$$748F       2 00004E5E 00000001     H   38457 38430B 38459
 $$$749E       2 00004E62 00000001     H   38467 38461
1DISP     (DISP2193) (12:42) (15MAR04) Ordinary Symbol and Literal Cross Reference                                          Page  161
 $$$749F       2 00004F02 00000001     H   38744 38463B
 $$$75F        2 00000390 00000001     H   14577 14564B
 $$$750F       2 00004F02 00000001     H   38735 38726B
 $$$750S       2 00004E64 00000001     H   38490 38734B
 $$$751F       2 00004E88 00000001     H   38565 38533B
 $$$752F       2 00004EEE 00000001     H   38697 38665B
 $$$755        1 00000050 00000001 A   U   38794 38791  38793
 $$$757B       1 00004F52 00000001     X   38857 38864U
 $$$758        1 00000050 00000001 A   U   38910 38907  38909
 $$$76F        2 000003AE 00000001     H   14622 14594B
 $$$760B       1 00004FA0 00000001     X   38944 38951U
 $$$761        1 00000050 00000001 A   U   38997 38994  38996
 $$$762B       1 00004FEE 00000001     X   39039 39046U
 $$$763F       2 0000500C 00000001     H   39083 39068B
 $$$764B       4 0000501E 00000001     I   39106 39133
 $$$764F       2 00005036 00000001     H   39129 39106B 39132
 $$$765E       2 0000503A 00000001     H   39140 39134
 $$$765F       2 0000504A 00000001     H   39154 39136B
 $$$766F       2 00005092 00000001     H   39217 39165B
 $$$767F       2 00005070 00000001     H   39198 39183B
 $$$768B       1 000050BA 00000001     X   39260 39267U
 $$$769F       2 000050D8 00000001     H   39294 39279B
 $$$77F        2 000003C8 00000001     H   14657 14644B
 $$$770B       4 000050E0 00000001     I   39308 39336
 $$$770F       2 000050FC 00000001     H   39332 39308B 39335
 $$$771E       2 00005100 00000001     H   39343 39337
 $$$771F       2 00005112 00000001     H   39358 39339B
 $$$772B       1 00005130 00000001     X   39397 39404U
 $$$773F       2 0000514A 00000001     H   39449 39416B
 $$$774F       2 00005148 00000001     H   39441 39432B
 $$$775B       1 00005166 00000001     X   39482 39489U
 $$$776F       2 00005174 00000001     H   39514 39501B
 $$$777B       1 000052EE 00000001     X   39647 39654U
 $$$778F       2 00005308 00000001     H   39712 39702B
 $$$779F       2 00005312 00000001     H   39733 39723B
 $$$78F        2 000003E8 00000001     H   14688 14673B
 $$$780F       2 00005326 00000001     H   39763 39753B
 $$$781F       2 00005332 00000001     H   39791 39781B
 $$$782F       2 00005396 00000001     H   39858 39846B
 $$$783F       2 000053BC 00000001     H   39968 39906B
 $$$79F        2 0000047E 00000001     H   14898 14723B 14779B 14875B
 $$$82F        2 0000043A 00000001     H   14827 14812B
 $$$83F        2 0000045C 00000001     H   14855 14840B
 $$$85F        2 00000518 00000001     H   15080 14910B 14936B
 $$$88F        2 000004BC 00000001     H   15007 14992B
 $$$89F        2 000004DE 00000001     H   15035 15020B
 $$$90F        2 000004FE 00000001     H   15062 15047B
 $$$91F        2 00000542 00000001     H   15126 15094B
 $$$92F        2 00000542 00000001     H   15122 15107B
 $$$93F        2 00000556 00000001     H   15154 15140B
 $$$94F        2 00000580 00000001     H   15212 15177B
 $$$95F        2 00000580 00000001     H   15208 15195B
 $$$96F        2 00000594 00000001     H   15249 15223B
 $$$97F        2 000005C2 00000001     H   15296 15264B
 $$$98F        2 000005C2 00000001     H   15292 15277B
 $$$99F        2 000005E2 00000001     H   15326 15311B
 $NLL2872      2 00000834 00000001     I   16220 16224B
 $NLM2872      1 00000EF1 00000001     R   16193 16211
 $OLL2790      2 000007B2 00000001     I   16054 16058B
1DISP     (DISP2193) (12:42) (15MAR04) Ordinary Symbol and Literal Cross Reference                                          Page  162
 @RAR          0 00000000 FFFFFFF0     @    1139  2197   2205B
 @R0           0 00000000 FFFFFFFE     @     706   982U 11021U
 @R1           0 00000000 FFFFFFFD     @     719   978U  2203   2204  15899  17738M 17792  21458U 21563M 21563  23215
                                                 23216M 23232  23233M 24691U 26016U 27708  31146U 31779U 34419M 34420M
                                                 34422M 34423M 34424  34432  34610M 34611M 34612M 34618  34812  34813
                                                 34854  34860  34892  34914  34917M 34918M 35872
 @R10          0 00000000 FFFFFFF4     @     836   942U
 @R11          0 00000000 FFFFFFF3     @     849   938U 39608U 39836  39852M
 @R12          0 00000000 FFFFFFF2     @     862   934U 39615U
 @R13          0 00000000 FFFFFFF1     @     875   930U 20338M 20841M 21294M 23253M 23254  25430M 25469  25475M 25514
                                                 26051M 26161M 26302M 26695M 26734  26740M 26779  27027M 27066  27072M
                                                 27111  27360M 27399  27405M 27444  27797M 27836  27842M 27881  28926M
                                                 29647M 29686  29692M 29731  31457M 32019M 32304M 32577M 32578  32798M
                                                 32799  32821  33619M 33673M 33728M 34225M 34234  35417M 37471M 37472
                                                 39031M 39252M 39387M 39472M
 @R14          0 00000000 FFFFFFF0     @     888   926U
 @R15          0 00000000 FFFFFFEF     @     901   922U 14757U 14964U 15756U 16977U 17212U 17289U 17331U 17408U 17468M
                                                 17790M 20234U 21509U 22358U 23839U 23887U 23983U 24100U 25467U 25512U
                                                 26209  26250M 26250  26732U 26777U 27064U 27109U 27397U 27442U 27834U
                                                 27879U 28076  28405U 28530  28859U 29271  29684U 29729U 31725  31842
                                                 33191U 33216  33250U 33975U 34202U 34426M 34600U 34616M 34826  34919M
                                                 35071  35295  35886  35948M 36127U 36165  36902  36942M 37202  37704U
                                                 37972  38560U 39887U 39938U 39962U
 @R2           0 00000000 FFFFFFFC     @     732   974U 13864U 14619U 16040U 16281  17736  17746M 17757  17760  17791
                                                 21770U 22762U 23244U 23378U 25631U 25792U 26101  26269  26368  26520U
                                                 26896U 27228U 27564U 28291  28745  29061U 29131U 30324U 30817U 31380U
                                                 33243U 34035U 35477  36060M 36061  37905  37970  38418  38741U 38820U
 @R3           0 00000000 FFFFFFFB     @     745   970U 13907U 16033U 17601U 23654U 23956U 24074U 26363  30214U 31080U
                                                 33368  34915U 36036  36063  36244U 37880U
 @R4           0 00000000 FFFFFFFA     @     758   966U 13742  14895U 15077U 16374M 19503U 19714U 19821U 20262U 21572U
                                                 21970M 22458U 22771U 23659U 24162U 24629U 25232U 26210U 26619U 26952U
                                                 27285U 27719U 28427U 28881U 29259U 29519U 30176U 30340U 30597  31409U
                                                 31763U 31973U 33366U 34271U 36250U 36551U 37209U 38039U 40002U
 @R5           0 00000000 FFFFFFF9     @     771   962U 13748U 16421U 16730U 17454U 17651U 18093U 19543U 19855U 20267U
                                                 21579U 21745U 21783U 22017U 22780U 23649U 25237U 26610U 27714U 28432U
                                                 28886U 29330U 29524U 30208U 30603U 31141U 31404U 31755U 31981U 32270U
                                                 32517U 34278U 36288U 37006U 38652
 @R6           0 00000000 FFFFFFF8     @     784   958U 13643U 13662U 13786U 13924U 14075U 14096U 14181U 14203U 17465U
                                                 17590U 18098U 21417U 21586U 22030U 22368U 22441U 22449U 23644U 24143U
                                                 24705U 25359U 25677U 25838U 26630U 26962U 27295U 27729U 28897U 29323U
                                                 29582U 30354U 31157U 35195U 35349U 36293U 36517U 36672U 37031U
 @R7           0 00000000 FFFFFFF7     @     797   954U 14217U 14374U 14396U 14448U 15465U 15483U 18356U 18374U 18709U
                                                 18815U 18948U 19059U 19192U 19903U 20272U 20858U 20876U 21311U 21329U
                                                 21592U 22035U 22476U 22796U 23664U 24167U 24333U 24710U 25364U 25521U
                                                 25682U 25843U 26027U 26149U 26293U 26391U 26635U 26786U 26967U 27118U
                                                 27300U 27451U 27734U 27888U 28902U 29336U 29587U 29738U 30359U 30461U
                                                 30615U 30828U 31162U 31420U 31998U 32290U 32529U 32689U 33070U 33596U
                                                 33650U 33662U 33704U 33716U 33758U 34284U 34455U 34657U 34966U 35200U
                                                 35354U 35676U 35709U 36298U 36561U 36684U 37036U 38093U 38236U 38783U
                                                 38899U 38986U 39240U 39374U 39460U 39525U 40008U
 @R8           0 00000000 FFFFFFF6     @     810   950U 22471U 35670U 38088U 39234U
 @R9           0 00000000 FFFFFFF5     @     823   946U 39995U
 ABSCENT       1 00000000 00000000 A   T    2213  2213
 ADDECB        4 00000C9E 00000001     I   17790 17575B 17645B 17734B
 AHLHEAD       1 00000000 00000000 A   T    6745  6745
 AHLVCCR8      1 00000000 00000000 A   T    7236  7236
 ALLOC         2 0000122C 00000001     H   19234 18311
 ALLOCNC       4 000013E6 00000001     I   19877 19346B 19521B 19829B
 ALLOCPCB      2 0000140E 00000001     H   19934 19520B 19731B 26406
1DISP     (DISP2193) (12:42) (15MAR04) Ordinary Symbol and Literal Cross Reference                                          Page  163
 AMODE24       4 00005156 00000001     I   39472 39471
 AMODE31       4 00005120 00000001     I   39387 39386
 ASCB          1 00000000 FFFFFFE3     J    8169 36114U
 ASCBASID      2 00000024 FFFFFFE3     H    8206 36120
 ASCTBL        1 00000000 00000000 A   T    2221  2221
 ASMVT         1 00000000 00000000 A   T    7125  7125
 A24GO         2 00005174 00000001     H   39510 39506
 A31GO         2 0000514A 00000001     H   39445 39421
 BASE          2 0000030C 00000001     H   14416 14377U 14408  14451U 15486U 18280  18377U 18719
 BLTBL         1 00000000 00000000 A   T    2223  2223
 BR            7 00000007 00000001 A   #    1029 13476M 18760M 18870M 19004M 19114M 19248M 19948M 21628M 22098M 22515M
                                                 22868M 23710M 24279M 24376M 24754M 25408M 25562M 25723M 25895M 26056M
                                                 26066U 26166M 26176U 26307M 26317U 26448M 26673M 26824M 27005M 27156M
                                                 27338M 27492M 27775M 27929M 28931M 28941U 29362M 29625M 29780M 30397M
                                                 30502M 30696M 30876M 31204M 31462M 31472U 32024M 32034U 32309M 32319U
                                                 32556M 32731M 33111M 33624M 33634U 33678M 33688U 33733M 33743U 34376M
                                                 34519M 34789M 35039M 35263M 35422M 35432U 35739M 36363M 36601M 36724M
                                                 37099M 38128M 38278M 38852M 38939M 39036M 39046U 39257M 39267U 39654U
                                                 39656M
 BTD           1 00000000 00000013     T   18319 18319  24227
 BTR           1 00000000 0000002D     T   39564 39564
 BTX           1 00000000 0000001F     T   24228 24228
 CALCPGC       2 00003C20 00000001     H   33097 33093  34301
 CBBRANCH      1 00000000 00000000 A   T    7281  7281
 CEL#GET       4 00000018 FFFFFFD5     F   12705 35167  35170M
 CEL#REQ       4 00000014 FFFFFFD5     F   12704 35180  35183M
 CELFCNT       4 00000010 FFFFFFD5     F   12703 35128  35131M 35337  35340M
 CELFHDR       4 00000008 FFFFFFD5     A   12702 35102  35121M 35327  35331M
 CELLBLOK     40 00000000 FFFFFFD5     J   12716 14078U 14082M 14086  14184U 14188M 14193  14253  18837  18970  19081
                                                 19214  34567U 34589  35098U 35322U
 CELSIZE       4 0000001C FFFFFFD5     F   12706 14083M 14190M 34583  35149  35186
 CELSUBP       4 00000020 FFFFFFD5     F   12707 14189M 35150
 CEL0TO1K      8 000041A8 00000001     D   34676 34559
 CHECKIOB      1 00000000 00000000 A   T    2269  2269
 CHECKOUT      2 00001A5E 00000001     H   22082 18309
 CKNIO         4 00000000 FFFFFFCD     F   22067 22410  22411M
 CKOEXIT       2 00001B70 00000001     H   22467 22329B 22426B
 CKWA          4 00000000 FFFFFFCD     J   22074 22095  22124U 22134M 22134  22484  22486  22487
 COMMAND       1 00000000 00000000 A   T    2209  2209
 COMMSEG       1 00000000 00000000 A   T    2210  2210
 CP         4096 00000000 FFFFFFEC     J    6223  1198U 14530  17042  18439
 CP#XSTK       1 00000010 FFFFFFEC A   U    3955  3956
 CPACFLG       1 000005D5 FFFFFFEC     R    4058  4062   4067   4072   4077   4082
 CPACFLN       4 000005C4 FFFFFFEC     F    4050  4085   4085
 CPAFLAG       1 000005C3 FFFFFFEC     R    4022  4026   4031   4036   4041
 CPANAME       8 00000588 FFFFFFEC     C    4004  4100   4100
 CPAUTFLG      1 000008A9 FFFFFFEC     R    4368  4372   4377   4382   4387
 CPCHFLAG      1 00000B68 FFFFFFEC     R    4995  4999
 CPCLCK        8 00000338 FFFFFFEC     D    2852 14709M
 CPDFLG        1 0000084C FFFFFFEC     R    4255  4259   4264   4269   4274   4279
 CPDFLG2       1 0000084D FFFFFFEC     R    4284  4288   4293   4298   4303   4308   4313
 CPEXFLG       1 00000758 FFFFFFEC     R    4124  4128
 CPEXFLG2      1 00000759 FFFFFFEC     R    4134  4143   4153
 CPEXFLG3      1 0000075A FFFFFFEC     R    4160  4164   4169
 CPEXTFLG      1 00000E28 FFFFFFEC     R    5806  5810   5815   5820   5825   5830   5835
 CPFABORT    128 00000D5A FFFFFFEC         5572  2173M  2173   2178M  2178
 CPFERROR     64 00000D5A FFFFFFEC         5577  2172M  2172   2177M  2177
 CPFEXEC     128 00000758 FFFFFFEC         4128 35620
 CPFNTEX       1 00000040 FFFFFFEC A   U    5424  5425
1DISP     (DISP2193) (12:42) (15MAR04) Ordinary Symbol and Literal Cross Reference                                          Page  164
 CPFRDRNG      1 00000D88 FFFFFFEC     R    5692  5696   5701   5706   5711   5716   5721   5726
 CPFRDSRC      1 00000D89 FFFFFFEC     R    5731  5740   5750   5760
 CPFUNUM       1 00000080 FFFFFFEC A   U    5423  5425
 CPFXAUTHLIB
             128 0000075A FFFFFFEC         4164 35632
 CPFXDFLG      1 000007E4 FFFFFFEC     R    4202  4206   4211
 CPFXOVER    128 000007FD FFFFFFEC         4234 35644
 CPGFLG1       1 00000474 FFFFFFEC     R    3565  3569   3574   3579   3584   3589   3919   3919
 CPGFLG10      1 0000047D FFFFFFEC     R    3802  3806   3811   3816   3821   3826   3831
 CPGFLG11      1 0000047E FFFFFFEC     R    3837  3841   3846
 CPGFLG12      1 0000047F FFFFFFEC     R    3852  3856   3861   3866
 CPGFLG13      1 00000480 FFFFFFEC     R    3872  3876
 CPGFLG14      1 00000481 FFFFFFEC     R    3882  3886   3891   3896   3901   3906
 CPGFLG4       1 00000477 FFFFFFEC     R    3618  3629   3638   3647   3656   3665
 CPGFLG5       1 00000478 FFFFFFEC     R    3671  3675   3680   3685   3690   3695   3700   3705   3710
 CPGFLG6       1 00000479 FFFFFFEC     R    3716  3720   3725   3730
 CPGFLG7       1 0000047A FFFFFFEC     R    3736  3740   3745   3750   3755
 CPGFLG8       1 0000047B FFFFFFEC     R    3761  3765   3770   3775   3780
 CPGFLG9       1 0000047C FFFFFFEC     R    3786  3790   3796
 CPHEAPCR      4 00000330 FFFFFFEC     A    2850 15256
 CPINIT        1 00000174 FFFFFFEC     U    2735  6192
 CPJESFLG      1 000009E1 FFFFFFEC     R    4467  4471   4476   4481   4486   4491   4496   4501   4506
 CPJESFLY      1 000009FD FFFFFFEC     R    4517  4521   4526   4531
 CPJESHFL      1 000009E0 FFFFFFEC     R    4452  4456   4461   4540   4540
 CPLFLG10      1 00000D59 FFFFFFEC     R    5558  5562
 CPLFLG11      1 00000D5A FFFFFFEC     R    5568  5572   5577   5582   5587
 CPLFLG12      1 00000D5B FFFFFFEC     R    5593  5597
 CPLFLG14      1 00000D5C FFFFFFEC     R    5603  5607   5612   5617   5622   5627
 CPLFLG6       1 00000D55 FFFFFFEC     R    5433  5437   5442   5447   5452   5457   5462
 CPLFLG7       1 00000D56 FFFFFFEC     R    5468  5472   5477   5482   5487   5492
 CPLFLG8       1 00000D57 FFFFFFEC     R    5498  5502   5507   5512   5517
 CPLFLG9       1 00000D58 FFFFFFEC     R    5523  5527   5532   5537   5542   5547   5552
 CPLOCALZ      1 00000C48 FFFFFFEC     U    5025  6186   6186
 CPMFLG        1 0000084F FFFFFFEC     R    4322  4326
 CPMODFLG      1 00000C78 FFFFFFEC     R    5053  5057   5062   5067   5072   5077
 CPNAMELN      1 00000010 FFFFFFEC A   U    3948  4195
 CPNEDPFX     10 00000E29 FFFFFFEC     X    5839  5840   5841
 CPNUMFLG      1 00000C79 FFFFFFEC     R    5083  5095
 CPORVCMD      1 00000140 FFFFFFEC     R    2617  2621   2626   2631   2636   2641   2646   2651   2656   2661   2661
                                                  2712   2712
 CPORVFLG      1 00000149 FFFFFFEC     R    2668  2672   2677   2682   2687   2692   2697   2702   2707
 CPORVWF       1 00000150 FFFFFFEC     R    2720  2724
 CPOSCANX      4 00000CA8 FFFFFFEC     F    5252  5319   5319
 CPR          11 0000000B 00000001 A   #    1093  1198U 14286M 14286  16429  16433M 16433  16470M 16825M 16826M 16826
                                                 16845  16849  16849M 17029M
 CPRACBAD     16 000001FC FFFFFFEC         2786  2820   2820   2821   2821
 CPRACF1       1 000001FC FFFFFFEC     R    2767  2771   2776   2781   2786   2791   2796   2801   2806   2822
 CPRACPSW     32 000001FC FFFFFFEC         2781  2819   2819   2821   2821
 CPRACUND     64 000001FC FFFFFFEC         2776  2819   2819   2820   2820
 CPRCVCUR      4 00000730 FFFFFFEC     A    4103  4105   4105
 CPREGS        4 00000004 FFFFFFEC     A    2498 14734M 14734  14921M 14921  15086  15149M 15150M 16848M 16849M 16850M
                                                 17283M 17402M 17435  20541M 21270M 21812M 21841M 24674M 25045M 25172M
                                                 32675M
 CPRFLG        1 000008AA FFFFFFEC     R    4393  4397   4402   4407   4412   4417   4422
 CPS         254 00000344 FFFFFFEC     X    3537  3540   3541   3543   3543
 CPSACCT       5 000003B4 FFFFFFEC     C    3136  3299   3299
 CPSAMCOD      1 00000A22 FFFFFFEC     R    4589  4597   4607   4617   4626   4635   4644   4654   4663   4672
 CPSAMFLG      1 00000A21 FFFFFFEC     R    4549  4553   4558   4563   4568   4573   4578   4583   4694   4694
 CPSCNFLG      1 00000CD0 FFFFFFEC     R    5265  5276   5285   5296
1DISP     (DISP2193) (12:42) (15MAR04) Ordinary Symbol and Literal Cross Reference                                          Page  165
 CPSCNF2       1 00000CD1 FFFFFFEC     R    5301  5305
 CPSCNMAX      1 00000014 FFFFFFEC A   U    5317  5318
 CPSCRI        2 00000434 FFFFFFEC     H    3526  3531   3531
 CPSEG        60 00000050 FFFFFFEC     X    2606 31517  31656  37163  37231  37256  37281  37300  37325  37439  37465
                                                 37543  37561  37652  37670  37754  37778  37796  37824  37842  37870
                                                 37898  37933  37965  37996  38026  38073  38202  38224  38342  38367
                                                 38394  38412  38449  38518  38586  38604  38629  38647  38683  38707
                                                 38765
 CPSEGCOD      1 00000050 FFFFFFEC     R    2523  2532   2542   2552   2562   2572   2582   2592
 CPSEGINDF
               4 00000060 FFFFFFEC     A    2599 38417M 38776M 38776
 CPSEGLENF
               4 0000005C FFFFFFEC     A    2598 38162M 38162  38177  38417
 CPSEGMRKF
               4 00000058 FFFFFFEC     A    2597 38177
 CPSFL         1 00000384 FFFFFFEC     R    2874  2878   2883   2888   2893   2898
 CPSFLG        1 000003F8 FFFFFFEC     R    3414  3418   3423   3428   3433   3438   3443   3448   3453
 CPSFLG2       1 000003F9 FFFFFFEC     R    3459  3463   3468   3473
 CPSFL2        1 00000385 FFFFFFEC     R    2904  2908   2913   2918   2923
 CPSFL3        1 00000386 FFFFFFEC     R    2929  2933   2938   2943
 CPSFL4        1 00000387 FFFFFFEC     R    2949  2953   2958   2963
 CPSFL5        1 00000388 FFFFFFEC     R    2969  2973   2978   2983
 CPSKAFL       1 000003BF FFFFFFEC     R    3270  3274   3279   3284   3289   3294
 CPSKIFL       1 000003BE FFFFFFEC     R    3225  3229   3234   3239   3244   3249   3254   3259   3264
 CPSOF         1 000001F8 FFFFFFEC     X    2757  2759   2759
 CPSOFLAG      1 00000416 FFFFFFEC     R    3484  3488   3493   3498   3503   3508
 CPSOPST       4 000003C4 FFFFFFEC     F    3304  3533   3533
 CPSPORT       8 00000354 FFFFFFEC     C    2868  2988   2988
 CPSQFLG       1 000003EC FFFFFFEC     R    3333  3337
 CPSSFLG       1 000003BB FFFFFFEC     R    3143  3147   3152   3157   3162   3167   3172
 CPSSTART      4 00000344 FFFFFFEC     F    2860  2864   2864   3300   3300   3405   3405   3537   3537
 CPSSTAT       1 0000038F FFFFFFEC     R    3080  3084   3089   3094   3099   3104   3109   3114
 CPSTACF       1 000003BC FFFFFFEC     R    3178  3182   3187   3192   3197   3202   3207   3212   3217
 CPSTART       4 00000000 FFFFFFEC     C    2496  6190   6194
 CPSTFLAG      1 000003EA FFFFFFEC     R    3311  3315   3320   3325
 CPSTYPE       1 0000038C FFFFFFEC     R    2993  3002   3012   3022   3032   3042   3052   3062   3072
 CPSUFLG       1 000003EE FFFFFFEC     R    3348  3352   3357   3362   3367   3372   3377   3382   3387
 CPSUFLG2      1 000003EF FFFFFFEC     R    3393  3397   3402
 CPSVPGM       8 0000039C FFFFFFEC     C    3126  3132   3132
 CPS1ST        4 0000038C FFFFFFEC     F    2990  3535   3535
 CPTEMPNP      2 00000920 FFFFFFEC     H    4444 26082  26102M 26182  26263M 26348  26380M 26380
 CPTEMPP#      1 0000005F FFFFFFEC A   U    4443  4445  26412
 CPTEMPPG      2 00000922 FFFFFFEC     H    4445 26100M 26202  26226  26354
 CPTRMFL1      1 00000C7A FFFFFFEC     R    5101  5105   5110   5115   5239   5239
 CPTRMFL2      1 00000C7B FFFFFFEC     R    5121  5125   5130   5135   5140   5145   5150
 CPTRMFL3      1 00000C7C FFFFFFEC     R    5156  5160   5165   5170   5175   5180   5185   5190
 CPTRMFL4      1 00000C7D FFFFFFEC     R    5196  5200   5205   5210   5215   5220   5225   5230
 CPUSED        1 00000FBC FFFFFFEC A   U    6190  6191
 CPVACURS      8 00000AF0 FFFFFFEC     D    4968  4969   4970
 CPVCURS       8 00000AE0 FFFFFFEC     D    4962  4963   4964
 CPVFLAG       1 00000AC8 FFFFFFEC     R    4763  4767   4772   4777   4782   4787
 CPVFLAG2      1 00000AC9 FFFFFFEC     R    4793  4797   4802   4807   4812   4817   4822
 CPVFLAG3      1 00000ACA FFFFFFEC     R    4828  4832   4837   4842   4847   4852   4857
 CPVFLAG4      1 00000ACB FFFFFFEC     R    4863  4867   4872   4877
 CPVLFLAG      1 00000ACE FFFFFFEC     R    4932  4936   4941   4946
 CPVMODE       1 00000ACC FFFFFFEC     R    4885  4889   4894   4899   4904   4909   4914   4919   4924
 CPVTWID       2 00000AD0 FFFFFFEC     H    4952  4955   4955
 CPWK1         4 00000D60 FFFFFFEC     F    5636  5651   5674
 CPWK2         4 00000D64 FFFFFFEC     F    5637  5652   5666
1DISP     (DISP2193) (12:42) (15MAR04) Ordinary Symbol and Literal Cross Reference                                          Page  166
 CPWK3         4 00000D68 FFFFFFEC     F    5638  5653   5667
 CPWK4         4 00000D6C FFFFFFEC     F    5639  5654   5668
 CPWK5         4 00000D70 FFFFFFEC     F    5640  5656   5661   5669
 CPWK6         4 00000D74 FFFFFFEC     F    5641  5657   5662   5670   5677   5679
 CPWK7         4 00000D78 FFFFFFEC     F    5642  5655   5671
 CPXFLAG       1 000007FD FFFFFFEC     R    4230  4234
 CPXSTATE      4 000007F8 FFFFFFEC     F    4224  4237   4237
 CRBRANCH      1 00000000 00000000 A   T    7022  7022
 CSRTABLE      1 00000000 00000000 A   T    7042  7042
 CSVARMGR      1 00000000 00000000 A   T    7090  7090
 CSVEXIT       1 00000000 00000000 A   T    6963  6963
 CSVLLCB       1 00000000 00000000 A   T    6563  6563
 CSVLLTRM      1 00000000 00000000 A   T    6564  6564
 CSVMEM        1 00000000 00000000 A   T    6791  6791
 CSVVFGET      1 00000000 00000000 A   T    7355  7355
 CSVVFIND      1 00000000 00000000 A   T    7353  7353
 CV         4016 00000000 FFFFFFEE     J    2399  1207U 16051  16051  16053  16053  16057M 16057M 16202  16202  16219
                                                 16219  16223M 16223M 39687U
 CV            1 00000000 00000030     T   40018 40018
 CV#CNT1       4 000008FC FFFFFFEE     F    2241 34440  34441M
 CV#CNT2       4 00000900 FFFFFFEE     F    2242 34942  34943M
 CV#COUT       4 000006B4 FFFFFFEE     F    2053 22398  22399M
 CV#IOSEC      2 00000660 FFFFFFEE     H    2033 32834
 CV#MSC        4 00000674 FFFFFFEE     C    2042 23189
 CV#SNB        4 000006BC FFFFFFEE     F    2056 20119  20120M
 CV#SNC        4 000006C0 FFFFFFEE     F    2057 19878  19879M
 CV#SNEM       4 000006B8 FFFFFFEE     F    2055 20007  20008M
 CV#TXT        4 00000668 FFFFFFEE     C    2038 23208
 CVABSRTN      4 0000088C FFFFFFEE     V    2213  2188
 CVASCBP       4 00000718 FFFFFFEE     A    2098 36103
 CVBLANKS    235 000004D8 FFFFFFEE     C    1993 37905  38503
 CVBRMSK       1 00000751 FFFFFFEE     X    2129  2130   2131
 CVBUFQ        4 000001F0 FFFFFFEE     A    1492 13545M 13545  13939  13941M 14882  15064  19808  20046  20055  22155
                                                 22157  23592  29496  31228  31238  37334  37359
 CVCFLAG       1 00000A00 FFFFFFEE     R    2294  2298   2303   2308   2313   2318
 CVCHKBUF      4 000009C0 FFFFFFEE     A    2270 15744
 CVCHKCLK      8 000009F8 FFFFFFEE     X    2290 15538  15742M
 CVCHKECB      4 000009C4 FFFFFFEE     F    2271 15608  15627M 15627  15648  15771M 15771
 CVCHKIOB      4 000009BC FFFFFFEE     V    2269 15772
 CVCHKNIO      4 000009E8 FFFFFFEE     F    2281 15780  15781M
 CVCHKPFX   1080 000009F0 FFFFFFEE     X    2374 15745  15746
 CVCHKPUC      2 000009E4 FFFFFFEE     H    2278 15571  15741M
 CVCHKSFX      8 00000E28 FFFFFFEE     X    2380 15760  15761
 CVCHKST       8 000009F0 FFFFFFEE     D    2284  2374   2374
 CVCHKST2      8 00000E28 FFFFFFEE     D    2377  2380   2380
 CVCHKTAB      4 000009C8 FFFFFFEE     A    2272 15757
 CVCHKTLN      2 000009E2 FFFFFFEE     H    2276 15755
 CVCHKUC       2 000009F4 FFFFFFEE     H    2287 15571  15741
 CVCLOCK       8 00000708 FFFFFFEE     D    2094 14344M
 CVCOMRTN      4 0000087C FFFFFFEE     V    2209  2179
 CVCURJCB      4 000001C8 FFFFFFEE     A    1478 14357M 14357  14516  15439  15446M 15446  16838M 16982M 17981M 18389
                                                 18630M 20372  20895  21649  21696  21932  24430  24775  25431  25476
                                                 25583  25744  25993  26469  26696  26741  26845  27028  27073  27177
                                                 27361  27406  27513  27798  27843  27969  28943  29383  29648  29693
                                                 29835  30575  30897  32645
 CVDBGFLG      1 000004CC FFFFFFEE     R    1983  1987
 CVDSPCLK      8 00000630 FFFFFFEE     D    2022 14704M 15537  15742  16508  16527  17754M 17755  22313  32580  32583
 CVDSTK        4 00000270 FFFFFFEE     A    1550 14513  18380
 CVECB         4 00000720 FFFFFFEE     F    2101 15795M 17732  39801
1DISP     (DISP2193) (12:42) (15MAR04) Ordinary Symbol and Literal Cross Reference                                          Page  167
 CVECBLST      4 000006E8 FFFFFFEE     V    2085 17467
 CVEMBUFQ      4 000001E8 FFFFFFEE     A    1491 13540M 13540  13935  13937M 19989  19997  20009  23381  28001  28009
                                                 28345  28455  28463  28799  30327  36259  36407  36415  36421  37173
                                                 37183
 CVENT         4 0000074C FFFFFFEE     I    2127 13476B 18760B 18870B 19004B 19114B 19248B 19948B 21628B 22098B 22515B
                                                 22868B 23710B 24279B 24376B 24754B 25408B 25562B 25723B 25895B 26056B
                                                 26166B 26307B 26448B 26673B 26824B 27005B 27156B 27338B 27492B 27775B
                                                 27929B 28931B 29362B 29625B 29780B 30397B 30502B 30696B 30876B 31204B
                                                 31462B 32024B 32309B 32556B 32731B 33111B 33624B 33678B 33733B 34376B
                                                 34519B 34789B 35039B 35263B 35422B 35739B 36363B 36601B 36724B 37099B
                                                 38128B 38278B 38852B 38939B 39036B 39257B
 CVENTBR       2 00000750 FFFFFFEE     I    2128  2129
 CVERROR       4 000007D6 FFFFFFEE     I    2177  2193B
 CVEXIRTN      4 0000077C FFFFFFEE     V    2157  2153
 CVFCHRKBPR
               8 000004C9 FFFFFFEE         1898  1914   1914
 CVFCHRKBSE
               4 000004C9 FFFFFFEE         1903  1914   1914
 CVFCHRKCPR
               2 000004C9 FFFFFFEE         1920  1936   1936
 CVFCHRKCSE
               1 000004C9 FFFFFFEE         1925  1936   1936
 CVFCHRUBPR
             128 000004C9 FFFFFFEE         1854  1870   1870
 CVFCHRUBSE
              64 000004C9 FFFFFFEE         1859  1870   1870
 CVFCHRUCPR
              32 000004C9 FFFFFFEE         1876  1892   1892
 CVFCHRUCSE
              16 000004C9 FFFFFFEE         1881  1892   1892
 CVFCMDS       4 000004C6 FFFFFFEE         1769 17943  17955M
 CVFDEBUGIO
             128 000004CC FFFFFFEE         1987 15501  15513M
 CVFDISP       4 000004C4 FFFFFFEE         1679 14632M 17431M
 CVFFORCE      1 000004C5 FFFFFFEE         1734 22564  22575M
 CVFINIT       8 000004C5 FFFFFFEE         1719 18269M
 CVFL          1 000004C4 FFFFFFEE     R    1650  1654   1659   1664   1669   1674   1679   1684   1689
 CVFL2         1 000004C5 FFFFFFEE     R    1695  1699   1704   1709   1714   1719   1724   1729   1734
 CVFL3         1 000004C6 FFFFFFEE     R    1740  1744   1749   1754   1759   1764   1769   1774   1779
 CVFL4         1 000004C7 FFFFFFEE     R    1785  1789   1794   1799   1804   1809   1814   1819
 CVFL5         1 000004C8 FFFFFFEE     R    1825  1829   1834   1839   1844
 CVFL6         1 000004C9 FFFFFFEE     R    1850  1854   1859   1871   1876   1881   1893   1898   1903   1915   1920
                                                  1925   1937
 CVFMEMPAGE
              64 000004C8 FFFFFFEE         1834 13511  22145  22545  24410  32048  32333  32788  33777  36393  37138
                                                 38308
 CVFNCHK      64 000004C7 FFFFFFEE         1794 15589  15664M
 CVFNOR      128 000004C6 FFFFFFEE         1744 17915
 CVFNORET      4 000004C7 FFFFFFEE         1814 31387M
 CVFPFCB       4 000001D0 FFFFFFEE     A    1481 13523M 13523  13614  13757  29066
 CVFPGROT     64 000004C4 FFFFFFEE         1659 14643  16997  27959  32594
 CVFPUSR      32 000004C6 FFFFFFEE         1754 17696  17972M
 CVFRCVY      16 000004C5 FFFFFFEE         1714 14297  14388M 17684  17807  17819M
 CVFRLOAD     32 000004C4 FFFFFFEE         1664 18648
 CVFRSG        4 000006D4 FFFFFFEE     A    2068 21389
 CVFTEST       2 000004C5 FFFFFFEE         1729 17996  18130  33162
 CVFVISTA    128 000004C8 FFFFFFEE         1829 14563
 CVFXA        16 000004C6 FFFFFFEE         1759 35455  35966  36145  36180  36218  39105  39307  39415  39500
 CVFXA31       2 000004C6 FFFFFFEE         1774 14492  39431
1DISP     (DISP2193) (12:42) (15MAR04) Ordinary Symbol and Literal Cross Reference                                          Page  168
 CVHEAP        4 00000280 FFFFFFEE     A    1558 15269  15428  17012  17143
 CVHEAP#       1 00000200 FFFFFFEE A   U    1556  1557  14105
 CVHEAPCL      4 000005E8 FFFFFFEE     A    2002 14148M 19037  19177
 CVHEAPFR      4 00000234 FFFFFFEE     F    1528 19157  19158M
 CVHEAPGT      4 00000230 FFFFFFEE     F    1527 19051  19052M
 CVHEAPL       4 0000027C FFFFFFEE     A    1557 15310  17013
 CVINVRTN      4 00000888 FFFFFFEE     V    2212  2182
 CVJESFLG      1 000004CA FFFFFFEE     R    1943  1947
 CVKEY         1 00000066 FFFFFFEE     X    1244 36131  36198  36199  38819
 CVLJCB        4 000001C4 FFFFFFEE     A    1477 17981
 CVLNKRGS      4 00000780 FFFFFFEE     F    2159  2134M  2160  14306M 14327M 14463M 14504M 14539M 14681M 14820M 14848M
                                                 15000M 15028M 15055M 15115M 15285M 15319M 16935M 17051M 17248M 17275M
                                                 17367M 17394M 17438M 18385M 18419M 18448M 18491M 19292M 19436M 19647M
                                                 20143M 20170M 20443M 20479M 20713M 21007M 21093M 21378M 22210M 22257M
                                                 22284M 22951M 22993M 23037M 23064M 23091M 23119M 23415M 23517M 23765M
                                                 23803M 24524M 24553M 24615M 24809M 24853M 24898M 24957M 24991M 25069M
                                                 25117M 25196M 25302M 25337M 26279M 26556M 26932M 27264M 27601M 27630M
                                                 27673M 28055M 28085M 28129M 28157M 28184M 28211M 28239M 28300M 28390M
                                                 28509M 28539M 28583M 28611M 28638M 28665M 28693M 28754M 28844M 29207M
                                                 29235M 29432M 29488M 29560M 29885M 30033M 30062M 30091M 30120M 30266M
                                                 31046M 31277M 31319M 31347M 31391M 31617M 31704M 31734M 31821M 31851M
                                                 31895M 31923M 31955M 32057M 32138M 32165M 32229M 32342M 32386M 32413M
                                                 32477M 32770M 33786M 33826M 33872M 33913M 34072M 34122M 34835M 34901M
                                                 35080M 35304M 36052M 36525M 39076M 39191M 39287M
 CVLNKRTN      4 000007B0 FFFFFFEE     U    2160  2149M
 CVLOCK1       1 00000088 FFFFFFEE     R    1301  1305   1310  16051  16053  16053  16057M 16202  16202  16219  16223M
 CVLOCK2       1 00000089 FFFFFFEE     R    1315  1319
 CVLOCK3       1 0000008A FFFFFFEE     R    1324  1328
 CVLOCK4       1 0000008B FFFFFFEE     R    1333  1337
 CVLOGMOD      1 00000068 FFFFFFEE     R    1288  1292
 CVLPFCB       4 000001D4 FFFFFFEE     A    1482 13528M 13528  13628  13771  29054  29113
 CVMACH        1 00000067 FFFFFFEE     R    1248  1252   1257   1262   1267   1272   1277   1282
 CVMAXPNO      4 00000154 FFFFFFEE     F    1437 13552M 13552  13670M 13720  24844  25942  29876  30541  30744  30938
                                                 31498  32090
 CVMEMTOT      4 000006C8 FFFFFFEE     F    2060 34428  34430M 34934  34936M
 CVMILRTN      4 00000884 FFFFFFEE     V    2211  2191
 CVMPGMEM      4 000006C4 FFFFFFEE     F    2059 24313  24315M 29824  29826M
 CVMSG       235 00000A1C FFFFFFEE     X    2354 18146M 18146  18177  18182
 CVNAME        8 00000018 FFFFFFEE     C    1231 23814
 CVNDISP       4 000008F8 FFFFFFEE     F    2239 17170  17171M
 CVNEXT        4 000007DE FFFFFFEE     I    2179 38229B
 CVNIPG        2 0000013C FFFFFFEE     H    1426 13945
 CVNOARTN      4 00000890 FFFFFFEE     V    2214  2185
 CVNPG         2 0000013E FFFFFFEE     H    1427 32853  32860  32883  32891  36272  36273M 36538  36540M
 CVNPG16M      2 00000140 FFFFFFEE     H    1428 35922  35923M 36930  36932M
 CVNPIO        4 000008E4 FFFFFFEE     F    2234 23170  23171M
 CVNSLICE      4 000008F4 FFFFFFEE     F    2238 32643  32644M
 CVNUSERS      2 000000D4 FFFFFFEE     H    1396 17716M 17716  18664M 18664
 CVNWDATE      4 00000608 FFFFFFEE     F    2016  2020   2020
 CVNWMPG#      1 00000008 FFFFFFEE A   U    2018  2019
 CVOLDCLK      8 00000638 FFFFFFEE     D    2023 16509  16527M
 CVOLDJCB      4 000001CC FFFFFFEE     A    1479 14352M 14352  15439M 16839M 17021M 17071  17077M 17980M 17980  18635M
 CVONE         4 000004D0 FFFFFFEE     F    1991 21502
 CVPCBQH       4 000001DC FFFFFFEE     A    1485 22579  36255  36256M 36453  36625  36632M 36632
 CVPCMAX#      1 00000014 FFFFFFEE A   N    1570 22831
 CVPCSEC       4 0000029C FFFFFFEE     F    1569 22326
 CVPFXRTN      1 00000000 00000000 A   T    2157  2157
 CVPGADJ       2 0000014E FFFFFFEE     H    1434 32913M
 CVPGCLK       4 00000150 FFFFFFEE     F    1435 32914M
1DISP     (DISP2193) (12:42) (15MAR04) Ordinary Symbol and Literal Cross Reference                                          Page  169
 CVPGFAUTO
              32 00000A01 FFFFFFEE         2338 33145
 CVPGFLAG      1 00000A01 FFFFFFEE     R    2324  2328   2333   2338
 CVPGFREAL
             128 00000A01 FFFFFFEE         2328 33269  33269  33307M
 CVPGFVIRT
              64 00000A01 FFFFFFEE         2333 33269  33269  33270M 33329M
 CVPGHI        2 00000A0A FFFFFFEE     H    2346 32846
 CVPGLMAX      2 00000A06 FFFFFFEE     H    2344 33391  33451
 CVPGLMIN      2 00000A04 FFFFFFEE     H    2343 33390  33428
 CVPGLO        2 00000A08 FFFFFFEE     H    2345 32877
 CVPGMAX       2 00000144 FFFFFFEE     H    1430 13961  32857  32859  33391M 33433M 33444M 33444  33451M 33475  33482M
                                                 33500  33507M 33549  33556M
 CVPGMEG       2 00000A0C FFFFFFEE     H    2348 33384
 CVPGMIN       2 00000142 FFFFFFEE     H    1429 32888  32890  33390M 33410M 33421M 33421  33428M 33475  33482  33524
                                                 33531M 33573  33580M
 CVPGSECS      2 00000A02 FFFFFFEE     H    2342 32812
 CVPGSMAX      2 00000A10 FFFFFFEE     H    2350 33433
 CVPGSMIN      2 00000A0E FFFFFFEE     H    2349 33410
 CVPINDEX      1 00000008 FFFFFFEE A   U    1394 13108  13109  17283  17402  24623
 CVPIOSZ       1 00004F80 FFFFFFEE A   U    1387  1389  13243  13248  30652  36322  36332
 CVPOSTQH      4 000001E0 FFFFFFEE     A    1488 16490  22895  22916M 39793  39796M
 CVPPDBQH      4 0000009C FFFFFFEE     A    1345  1346
 CVPPG         2 00000130 FFFFFFEE     H    1411 28966
 CVPSFNO       1 000003E9 FFFFFFEE A   N    1509  1511
 CVPSLNO       1 000007CF FFFFFFEE A   N    1510  1511
 CVPSZ         1 00004F78 FFFFFFEE A   U    1389 13274  26415  30653  34297
 CVPTP         4 000005DC FFFFFFEE     A    1998 13686M 13694  13706  13756  29269  30527  31532
 CVPXSZ        1 00000008 FFFFFFEE A   U    1388  1389  13270  13270
 CVR          12 0000000C 00000001 A   #    1106  1207U 16850  16850M 39679M 39687U
 CVRCPUTM      4 000006FC FFFFFFEE     A    2092 17424M 35566
 CVRKEY        1 00000008 FFFFFFEE A   U    2082  2083
 CVRLAST       1 00000008 FFFFFFEE A   U    2083 22836
 CVRPAG        1 00000003 FFFFFFEE A   U    2077 16631
 CVRRUN        1 00000001 FFFFFFEE A   U    2075 16665  23551
 CVRSET        1 00000002 FFFFFFEE A   U    2076 15989  16159  16325  16956  21191  24659  25030  25157  32660
 CVRSG         4 000006D8 FFFFFFEE     A    2070 15806  17477
 CVRUNCUR      2 000000D6 FFFFFFEE     H    1397 16680  16681M 16764  16766M 19317  23566  23567M
 CVRUNMAX      2 000000D8 FFFFFFEE     H    1398 19329
 CVSCPUTM      4 000006F8 FFFFFFEE     A    2091 35532  35559M
 CVSEGRTN      4 00000880 FFFFFFEE     V    2210  2174
 CVSIZE        1 00000FB0 FFFFFFEE A   U    2392 14256
 CVSLICE       4 000000D0 FFFFFFEE     A    1371 32633
 CVSPFCB       4 000001D8 FFFFFFEE     A    1483 13533M 13533  28974
 CVSPIEAD      4 00000710 FFFFFFEE     A    2096 14459M 14459  37382M 37390M 37390  37680M 37712M 37712  37903M 37912M
                                                 37912
 CVSTACK       4 00000274 FFFFFFEE     A    1551 15099  15243  17003  17102
 CVSTACK#      1 00000080 FFFFFFEE A   U    1548  1549  14000
 CVSTACKL      4 0000026C FFFFFFEE     A    1549 15139  17004
 CVSTART       4 00000000 FFFFFFEE     C    1221  2392
 CVSTKCEL      4 000005E4 FFFFFFEE     A    2001 14043M 18793  18933
 CVSTKFRE      4 000006B0 FFFFFFEE     F    2052 18913  18914M
 CVSTKGET      4 000006CC FFFFFFEE     F    2062 18804  18805M
 CVSTKMEM      4 000006AC FFFFFFEE     F    2050 18806  18808M 18915  18917M 19044  19046M 19159  19161M
 CVT           1 00000000 FFFFFFE9     J    6533 18012U 33178U 33353U 39874U 39925U
 CVTBRET       2 00000052 FFFFFFE9     H    6588  7101   7180
 CVTCBP        4 0000073C FFFFFFEE     A    2112 36130
 CVTCPUTM      4 000006F4 FFFFFFEE     A    2090 35533M 35559  35560
 CVTIME        4 00000700 FFFFFFEE     A    2093 14624  14625M
1DISP     (DISP2193) (12:42) (15MAR04) Ordinary Symbol and Literal Cross Reference                                          Page  170
 CVTIMRQ       4 00000294 FFFFFFEE     A    1566 16069  16077M
 CVTIXAVL      4 0000007C FFFFFFE9     V    6627 34230  39931
 CVTMAP        1 00000000 FFFFFFE9     U    6538 34230
 CVTPTR        1 00000010 00000001 A   U    6529 18002  33168  33343  34229  39864  39915
 CVTRC         4 00000768 FFFFFFEE     I    2149  2135B 14307B 14328B 14464B 14505B 14540B 14682B 14821B 14849B 15001B
                                                 15029B 15056B 15116B 15286B 15320B 16936B 17052B 17249B 17276B 17368B
                                                 17395B 17439B 18386B 18420B 18449B 18492B 19293B 19437B 19648B 20144B
                                                 20171B 20444B 20480B 20714B 21008B 21094B 21379B 22211B 22258B 22285B
                                                 22952B 22994B 23038B 23065B 23092B 23120B 23416B 23518B 23766B 23804B
                                                 24525B 24554B 24616B 24810B 24854B 24899B 24958B 24992B 25070B 25118B
                                                 25197B 25303B 25338B 26280B 26557B 26933B 27265B 27602B 27631B 27674B
                                                 28056B 28086B 28130B 28158B 28185B 28212B 28240B 28301B 28391B 28510B
                                                 28540B 28584B 28612B 28639B 28666B 28694B 28755B 28845B 29208B 29236B
                                                 29433B 29489B 29561B 29886B 30034B 30063B 30092B 30121B 30267B 31047B
                                                 31278B 31320B 31348B 31392B 31618B 31705B 31735B 31822B 31852B 31896B
                                                 31924B 31956B 32058B 32139B 32166B 32230B 32343B 32387B 32414B 32478B
                                                 32771B 33787B 33827B 33873B 33914B 34073B 34123B 34836B 34902B 35081B
                                                 35305B 36053B 36526B 39077B 39192B 39288B
 CVTRCEP       4 00000490 FFFFFFE9     V    7394 33359
 CVTRCRTN      4 00000778 FFFFFFEE     V    2156  2150
 CVTUSER       4 000000CC FFFFFFE9     A    6713 18018  33184
 CVTVSTGX      1 00000000 FFFFFFE8     J    7553  7417
 CVTXTNT1      1 00000000 FFFFFFE7     J    7592  6760
 CVTXTNT2      1 00000000 FFFFFFE6     J    7600  6830   7756
 CVT0PT02      4 00000370 FFFFFFE9     V    7226 39880
 CVT4MS1       1 00000010 FFFFFFE9 A   U    6613  6621
 CVT6DAT       1 00000002 FFFFFFE9 A   U    6617  6621
 CVUSFNO       1 00000001 FFFFFFEE A   N    1516  1518
 CVUSLNO       1 000003E7 FFFFFFEE A   N    1517  1518
 CVVOL#        1 00000005 FFFFFFEE A   U    2367  2368
 CVVTAMQH      4 000000C8 FFFFFFEE     A    1368 16453
 CVWECBQH      4 00000208 FFFFFFEE     A    1502 16233  16357M 17606  21714M 21883  21953M
 CVWECBQT      4 0000020C FFFFFFEE     A    1503 16396M 21699  21715M 21772M 21992M
 CVWORD        8 00000050 FFFFFFEE     X    1238 18231M 18231
 CVWTCLK       8 00000640 FFFFFFEE     D    2024 17769  17781  17782M
 CVWTOFACTION
              16 000004CB FFFFFFEE         1972 15701M 15732M
 CVWTOFLG      1 000004CB FFFFFFEE     R    1953  1957   1962   1967   1972   1977
 CVWTOSGP      4 00000748 FFFFFFEE     V    2116 15676  15691  15720  17878  18115  18162  18188  18211  18249  18682
 CVXPTP        4 000005E0 FFFFFFEE     A    1999 13688M 24490  24863  25951  29896  30756  30950  32178  32426
 DBGDONE       2 00003874 00000001     H   31985 31523B 31662B 31769B
 DBGREAD       4 000036A2 00000001     I   31457 31456
 DCBBIT0       1 00000080 FFFFFFE4 A   U    7774  7804   7812   7826   7848   7890   7892   7893   7895   7915   7918
                                                  7940   7944   7959   7996   8052
 DCBBIT1       1 00000040 FFFFFFE4 A   U    7775  7805   7813   7828   7857   7858   7867   7873   7890   7892   7894
                                                  7895   7920   7940   7942   7944   7962   7963   7964   7999   8000
                                                  8052
 DCBBIT2       1 00000020 FFFFFFE4 A   U    7776  7806   7814   7829   7830   7831   7857   7858   7862   7868   7873
                                                  7890   7891   7896   7922   7945   7946   7967   7968   7969   8003
                                                  8004   8053
 DCBBIT3       1 00000010 FFFFFFE4 A   U    7777  7807   7829   7831   7832   7857   7870   7897   7925   7945   7948
                                                  7971   7972   7973   8007   8008   8053
 DCBBIT4       1 00000008 FFFFFFE4 A   U    7778  7815   7871   7872   7873   7898   7926   7950   7955   7956   7976
                                                  7977   8011   8012   8014   8015   8054
 DCBBIT5       1 00000004 FFFFFFE4 A   U    7779  7816   7878   7901   7902   7928   7950   7952   7953   7956   7980
                                                  7982   7983   7984   8018   8019   8020   8021   8054
 DCBBIT6       1 00000002 FFFFFFE4 A   U    7780  7808   7880   7881   7884   7901   7903   7929   7987   7988   7989
                                                  7990   8024   8025   8026   8027   8055
 DCBBIT7       1 00000001 FFFFFFE4 A   U    7781  7809   7880   7882   7884   7905   7934   7992   7993   8030   8031
1DISP     (DISP2193) (12:42) (15MAR04) Ordinary Symbol and Literal Cross Reference                                          Page  171
                                                  8033   8034
 DCBDEBAD      4 0000002C FFFFFFE4     A    8050 34037
 DCBOFIOF      1 00000001 FFFFFFE4 A   U    7934  7936
 DCBOFUEX      1 00000002 FFFFFFE4 A   U    7929  7933
 DEBDISP       1 00000000 00000004     T   18293 18293
 DEBUGSG       1 00000000 00000000 A   T    2110  2110
 DEV          12 00000000 FFFFFFEB     J    4748  4756
 DEVMAX#       1 00000002 FFFFFFEC A   U    4699  4756
 DEVTYPE       1 00000001 FFFFFFEB     R    4716  4725   4735
 DFAIDTAB      1 00000000 00000000 A   T    7430  7430
 DHPT          2 00002FBA 00000001     H   29017 29009B 29012B
 DISPATCH      2 0000030C 00000001     I   14423 14420
 DISPATCH      1 00000000 0000001B     T   22819 22819  26408  34300
 DISPCONT      2 00000634 00000001     I   15455 15452  18702B
 DISPINIT      2 00000018 00000001     H   13462 13458
 DISPLOCK      1 00000000 00000000 A   T   10122 10122
 DISPSTOP      2 0000495E 00000001     H   36587 36583
 DISP2193      1 00000000 00000001     R    1162  1160
 DOTTBL        1 00000000 0000002E     T    2226  2226  39567
 DQJCB         4 000018E2 00000001     I   21436 21435
 DQJCB         1 00000000 0000000F     T   18312 18312  22823  24224
 DQRSC         4 00001934 00000001     I   21545 21544
 DQRSC         1 00000000 0000001C     T   22820 22820
 DRENCFLG      1 00000F9F FFFFFFEC     R    6154  6158   6163   6168   6173   6178
 DRENPROT      1 00000F9E FFFFFFEC     R    6141  6149
 DRERACCT      6 000020D0 00000001     C   24192 24115M 24116M
 DRERCODE      2 000020F3 00000001     C   24203 23988  23995
 DRERCSW      16 000020F6 00000001     C   24205 24018  24041
 DRERM1        4 00002098 00000001     F   24184 24146  24195
 DRERM1L       1 0000004A 00000001 A   U   24195 24185
 DRERM2        4 000020E8 00000001     F   24198 24151  24210
 DRERM2L       1 00000034 00000001 A   U   24210 24198
 DREROPCD      2 000020F0 00000001     C   24201 23892  23899
 DRERPNO       5 000020C6 00000001     C   24190 23849  23856
 DRERSEEK     16 0000210C 00000001     C   24209 23922  23945
 DRERSEQ       3 000020DF 00000001     C   24194 24125  24132
 DRERSNS       4 00002107 00000001     C   24207 24063
 DRERSYS       8 000020A0 00000001     C   24188 23814M
 DSNON        40 00000E90 FFFFFFEC     C    5874  5875
 DSNWADSN     44 00000E5C FFFFFFEC     C    5861  5862   5863   5864   5873   5881   6112   6118   6120   6126   6129
                                                  6131   6134   6183
 DSNWAF4       1 00000F37 FFFFFFEC     R    5929  5933   5938   5943   5948   5953   5958   5963   5968
 DSNWAF5       1 00000F38 FFFFFFEC     R    5974  5978   5983   5988   5993   5998   6003   6008   6013
 DSNWAF6       1 00000F39 FFFFFFEC     R    6019  6023   6028   6033   6038   6043   6048   6053   6058
 DSNWAF7       1 00000F3A FFFFFFEC     R    6064  6068   6073   6078   6083
 DSNXG         1 00000004 FFFFFFEC A   U    5866  5868
 DSNXGL        1 00000003 FFFFFFEC A   U    5867  5868
 DSNXU         1 00000007 FFFFFFEC A   U    5868  5870
 DSNXUL        1 00000004 FFFFFFEC A   U    5869  5870
 DSSIZ         1 00000108 FFFFFFEC A   U    6112  6120   6129   6134
 DUMMYRET      2 000052EA 00000001     H   39628 39547
 EBCTBL        1 00000000 00000000 A   T    2222  2222
 EBCTBL7       1 00000000 00000000 A   T    2225  2225
 ECBLIST       1 00000000 00000000 A   T    2085  2085
 EOSDISP       2 00000F14 00000001     I   18346 18343
 EPARTBL       1 00000000 00000000 A   T    2217  2217
 FINDRSC       2 0000188C 00000001     H   21347 20403B 20901B 21335B
 FIX           4 00004FD4 00000001     I   39031 14251  39030  39539
 FIXECB        4 00000020 FFFFFFCA     A   39011 39093M 39093  39094  39212
1DISP     (DISP2193) (12:42) (15MAR04) Ordinary Symbol and Literal Cross Reference                                          Page  172
 FIXWA        36 00000000 FFFFFFCA     J   39018 39035  39055U
 FLCEAMDID
               1 000000A3 FFFFFFE0     C   10922 10923  10925
 FLCEFACILITIESLIST
               4 000000C8 FFFFFFE0     C   10952 10953
 FLCEFACILITIESLISTBYTE0
               1 000000C8 FFFFFFE0     B   10954 10955  10959
 FLCEICOD      2 00000086 FFFFFFE0     H    9862  9863
 FLCENPSW      4 00000058 FFFFFFE0     X    9838  9840
 FLCEOPSW      8 00000018 FFFFFFE0     X    9821  9822
 FLCEPDATA
               4 0000008C FFFFFFE0     C   10873 10874  10890
 FLCEPDATABYTE0
               2 0000008C FFFFFFE0     C   10875 10876  10881
 FLCEPER       8 00000098 FFFFFFE0     C   10915 10916
 FLCEPERATMID
               1 00000097 FFFFFFE0     B   10905 10906
 FLCEPERCODE
               2 00000096 FFFFFFE0     C   10896 10897  10914
 FLCEPERCODE0
               1 00000096 FFFFFFE0     B   10898 10899  10904
 FLCEPICODE
               2 0000008E FFFFFFE0     C   10882 10883
 FLCEPICODE1
               1 0000008F FFFFFFE0     G   10885 10886
 FLCEPIINFORMATION
               4 00000090 FFFFFFE0     C   10891 10892
 FLCEPILC      1 0000008D FFFFFFE0     G   10878 10879
 FLCESAME      8 00000000 FFFFFFE0     D   10855 10984
 FLCESDATA
               4 00000088 FFFFFFE0     C   10863 10864
 FLCESDATABYTE0
               2 00000088 FFFFFFE0     C   10865 10866  10871
 FLCESILC      1 00000089 FFFFFFE0     G   10868 10869
 FLCETEA       8 000000A8 FFFFFFE0     C   10929 10930
 FLCETEASNINFO
               8 000000A8 FFFFFFE0     C   10938 10939
 FLCETEA7      1 000000AF FFFFFFE0     B   10932 10933
 FLCETEID      8 000000A8 FFFFFFE0     C   10927 10928  10937  10942
 FLCETEPCINFO
               8 000000A8 FFFFFFE0     C   10943 10944
 FLCINPSW      4 00000078 FFFFFFE0     X    9852  9854
 FLCIOPSW      8 00000038 FFFFFFE0     X    9830  9831
 FLCIPPSW      8 00000000 FFFFFFE0     C    9811  9814
 FLCMNPSW      4 00000070 FFFFFFE0     X    9848  9851
 FLCMOPSW      8 00000030 FFFFFFE0     X    9828  9829
 FLCPICOD      2 0000008E FFFFFFE0     H    9886  9887
 FLCPIILC      1 0000008D FFFFFFE0     G    9879  9885
 FLCPNPSW      4 00000068 FFFFFFE0     X    9844  9847
 FLCPOPSW      8 00000028 FFFFFFE0     X    9826  9827
 FLCSNPSW      4 00000060 FFFFFFE0     X    9841  9843
 FLCSOPSW      8 00000020 FFFFFFE0     X    9823  9825
 FLCSVCN       2 0000008A FFFFFFE0     H    9873  9876
 FLCSVILC      1 00000089 FFFFFFE0     G    9867  9872
 FMBRANCH      1 00000000 00000000 A   T    7206  7206
 FMTPGQ        2 00004DD0 00000001     H   38264 38260
 FMTWBUF       2 00004AD2 00000001     H   37083 37079
 FNDRSCG       4 0000186A 00000001     I   21294 21293
 FORCEOUT      2 00001B7E 00000001     H   22501 22497
1DISP     (DISP2193) (12:42) (15MAR04) Ordinary Symbol and Literal Cross Reference                                          Page  173
 FPCBGO        4 0000493C 00000001     I   36532 36507B
 FREEAGN       4 000044CC 00000001     I   35328 35332B
 FREECORE      2 000042B6 00000001     H   34775 34771
 FREECORE      1 00000000 0000000A     T   18302 18302  22829  30645
 FREECP        1 00000000 00000019     T   18721 18721
 FREEJCB       2 00001748 00000001     H   20937 20926B
 FREEPCB       2 000048B0 00000001     H   36349 34303  36345
 FREEPOOL      2 00004488 00000001     H   35249 18971  19215  34989  35245
 FREERSC       4 00001702 00000001     I   20841 20840
 FREEUPD0      2 000044E4 00000001     I   35338 35341B
 FRRSESZE      1 00000020 FFFFFFE0 A   U   11127 11149
 FRRSEXSZ      1 00000010 FFFFFFE0 A   U   11128 11151
 FRRSNENT      1 00000010 FFFFFFE0 A   U   11129 11149  11151
 FSR           0 00000000 00000001 A   #    1003 13471  14225M 18755  18823M 18865  18956M 18999  19067M 19109  19200M
                                                 19243  19911M 19943  20280M 21623  22043M 22092  22484M 22510  22804M
                                                 22863  23672M 23705  24175M 24274  24321M 24341M 24371  24421M 24698M
                                                 24718M 24749  25372M 25403  25529M 25557  25670M 25690M 25718  25831M
                                                 25851M 25890  26035M 26443  26643M 26668  26794M 26819  26975M 27000
                                                 27126M 27151  27308M 27333  27459M 27487  27742M 27770  27896M 27924
                                                 28910M 29357  29595M 29620  29746M 29775  30367M 30392  30469M 30497
                                                 30623M 30691  30836M 30871  31170M 31199  31428M 32551  32697M 32726
                                                 33078M 33106  33604M 34371  34444M 34463M 34514  34646M 34665M 34784
                                                 34954M 34974M 35034  35188M 35208M 35258  35362M 35734  36306M 36358
                                                 36569M 36596  36692M 36719  37044M 37093  38101M 38123  38244M 38273
                                                 38791M 38847  38907M 38934  38994M
 GCPUDOUB      8 00000028 FFFFFFCC     D   35404 35461
 GCPUWA       48 00000000 FFFFFFCC     J   35411 35421  35441U
 GETCORE       2 00004112 00000001     H   34505 34501
 GETCORE       1 00000000 0000001E     T   22825 22825  26402
 GETCOREX      2 00004068 00000001     H   34362 34358  34753
 GETCP         1 00000000 00000011     T   18314 18314
 GETCPU        4 00004508 00000001     I   35417 18281  35416
 GETPCB        2 00004604 00000001     H   35725 14252  34302  35721
 GETPOOL       2 000043B2 00000001     H   35025 18838  19082  34750  35021
 GETRSC        4 00001534 00000001     I   20338 20337
 GETRSC        1 00000000 00000008     T   18298 18298  22824  24225  26407  34299
 GETSTACK      2 00001060 00000001     H   18746 18288
 GLBRANCH      1 00000000 00000000 A   T    7112  7112
 GMBRANCH      1 00000000 00000000 A   T    7208  7208
 GORUN         4 00000ADC 00000001     I   17169 16851B
 GTOVER        4 000045E4 00000001     F   35679 35587
 GTPLAGN       2 000043F4 00000001     H   35104 35122B
 GTPUPD0       2 00004412 00000001     I   35129 35132B
 GTPUPD1       2 0000444A 00000001     I   35168 35171B
 GTPUPD2       2 0000445E 00000001     I   35181 35184B
 GTTEXIT       2 000045D8 00000001     I   35660 35524B
 GVT           1 00000000 00000000 A   T    6974  6974
 HAVRGRP       4 0000155E 00000001     I   20417 20557B 20581B
 HAVRSC        2 00001640 00000001     H   20588 20427B
 HEAPGET       2 00001144 00000001     H   18990 18292
 HIBAL         1 00000000 FFFFFFFF     J     691   707    720    733    746    759    772    785    798    811    824
                                                   837    850    863    876    889    902
 HPCHUNK       1 00000008 00000001 A   U    1177 14110  18289  18290  19080  19213
 HPT           2 00002FFA 00000001     H   29095 29087B 29090B
 HSPFMIL       1 00000080 FFFFFFE5 A   U    7684  7688   7689
 HSPFORV       1 00000020 FFFFFFE5 A   U    7686  7688
 HSPFORVR      1 00000010 FFFFFFE5 A   U    7687  7689
 HSPFWYL       1 00000040 FFFFFFE5 A   U    7685  7688   7689  18078
 IARMPVT       1 00000000 00000000 A   T    6849  6849
1DISP     (DISP2193) (12:42) (15MAR04) Ordinary Symbol and Literal Cross Reference                                          Page  174
 IARMRRCE      1 00000000 00000000 A   T    7394  7394
 IARPIBR       1 00000000 00000000 A   T    7364  7364
 IARPSIV       1 00000000 00000000 A   T    7188  7188
 IARPSXM       1 00000000 00000000 A   T    7337  7337
 IARXKEY       1 00000000 00000000 A   T    7295  7295
 IARXVIO       1 00000000 00000000 A   T    7189  7189
 ICYMMVTC      1 00000000 00000000 A   T    7620  7620
 IDA121CV      1 00000000 00000000 A   T    7127  7127
 IEABEND       1 00000000 00000000 A   T    6711  6711
 IEACLTE       1 00000000 00000000 A   T   10444 10444
 IEACVT        1 00000000 00000000 A   T    9818  9818   9833
 IEADQIQE      1 00000000 00000000 A   T    7107  7107
 IEAECVT       1 00000000 00000000 A   T    6636  6636
 IEAGSMQ       1 00000000 00000000 A   T    7084  7084
 IEAIHASU      1 00000000 00000000 A   T    7324  7324
 IEALKPT       1 00000000 00000000 A   T   10437 10437
 IEALSMQ       1 00000000 00000000 A   T    7086  7086
 IEAMASCB      1 00000000 00000000 A   T    7054  7054   7058   9971
 IEAPATCH      1 00000000 00000000 A   T    6719  6719
 IEAPDSRT      1 00000000 00000000 A   T    6982  6982
 IEAPTRV       1 00000000 00000000 A   T    6798  6798
 IEAQCDSR      1 00000000 00000000 A   T    6702  6702
 IEAQCS01      1 00000000 00000000 A   T    7094  7094
 IEAQEX00      1 00000000 00000000 A   T    9839  9839
 IEAQIO00      1 00000000 00000000 A   T    9853  9853
 IEAQLPAQ      1 00000000 00000000 A   T    6703  6703
 IEAQPK00      1 00000000 00000000 A   T    9846  9846
 IEAQSC00      1 00000000 00000000 A   T    9842  9842
 IEAQTD00      1 00000000 00000000 A   T    6599  6599
 IEAQTE00      1 00000000 00000000 A   T    6597  6597
 IEARPOST      1 00000000 00000000 A   T    7109  7109
 IEASMFEX      1 00000000 00000000 A   T    6986  6986
 IEASMFSP      1 00000000 00000000 A   T    7332  7332
 IEASPOST      1 00000000 00000000 A   T    7129  7129
 IEASVDCB      1 00000000 00000000 A   T    6590  6590
 IEATCBP       1 00000000 00000000 A   T    6540  6540
 IEATPC        1 00000000 00000000 A   T    6592  6592
 IEATRSCN      1 00000000 00000000 A   T    6950  6950
 IEAVAR02      1 00000000 00000000 A   T    7034  7034
 IEAVBLDP      1 00000000 00000000 A   T    7018  7018
 IEAVDELP      1 00000000 00000000 A   T    7021  7021
 IEAVEAC0      1 00000000 00000000 A   T    7111  7111
 IEAVEADV      1 00000000 00000000 A   T    7269  7269
 IEAVEDR1      1 00000000 00000000 A   T    7154  7154
 IEAVELRM      1 00000000 00000000 A   T    7103  7103
 IEAVELT1      1 00000000 00000000 A   T   10208 10208
 IEAVELT2      1 00000000 00000000 A   T   10442 10442
 IEAVENLU      1 00000000 00000000 A   T    7450  7450
 IEAVENQ2      1 00000000 00000000 A   T    7100  7100
 IEAVEQV1      1 00000000 00000000 A   T    7257  7257
 IEAVEQV2      1 00000000 00000000 A   T    7260  7260
 IEAVEQV3      1 00000000 00000000 A   T    7263  7263
 IEAVERI1      1 00000000 00000000 A   T    7156  7156
 IEAVERP1      1 00000000 00000000 A   T    7158  7158
 IEAVERX1      1 00000000 00000000 A   T    7346  7346
 IEAVESC1      1 00000000 00000000 A   T    7285  7285  10734
 IEAVESC2      1 00000000 00000000 A   T   10736 10736
 IEAVESC7      1 00000000 00000000 A   T   10730 10730
 IEAVESC8      1 00000000 00000000 A   T   10732 10732
1DISP     (DISP2193) (12:42) (15MAR04) Ordinary Symbol and Literal Cross Reference                                          Page  175
 IEAVESPR      1 00000000 00000000 A   T    7214  7214
 IEAVESTU      1 00000000 00000000 A   T    7448  7448
 IEAVESVT      1 00000000 00000000 A   T    7220  7220  10738
 IEAVETOT      1 00000000 00000000 A   T   10591 10591
 IEAVETVT      1 00000000 00000000 A   T   10589 10589
 IEAVET6E      1 00000000 00000000 A   T    7320  7320
 IEAVEVT2      1 00000000 00000000 A   T    7274  7274
 IEAVEXPR      1 00000000 00000000 A   T    7082  7082
 IEAVEXP1      1 00000000 00000000 A   T    7251  7251
 IEAVFRCL      1 00000000 00000000 A   T    7020  7020
 IEAVGSDA      1 00000000 00000000 A   T    7265  7265
 IEAVGTCL      1 00000000 00000000 A   T    7019  7019
 IEAVGWSA      1 00000000 00000000 A   T    7114  7114
 IEAVLKRM      1 00000000 00000000 A   T    6821  6821
 IEAVMFRM      1 00000000 00000000 A   T    7199  7199
 IEAVMSGS      1 00000000 00000000 A   T    6768  6768
 IEAVNVT0      1 00000000 00000000 A   T    7433  7433
 IEAVRSTR      1 00000000 00000000 A   T    9813  9813
 IEAVRSUH      1 00000000 00000000 A   T    7312  7312
 IEAVRT03      1 00000000 00000000 A   T    6926  6926
 IEAVSPND      1 00000000 00000000 A   T    7322  7322
 IEAVSTAG      1 00000000 00000000 A   T    7062  7062
 IEAVSVTX      1 00000000 00000000 A   T   10740 10740
 IEAVTCTL      1 00000000 00000000 A   T    7314  7314
 IEAVTEST      1 00000000 00000000 A   T    6825  6825
 IEAVTRGR      1 00000000 00000000 A   T    7122  7122
 IEAVTRG1      1 00000000 00000000 A   T    6571  6571
 IEAVTRV3      1 00000000 00000000 A   T    6818  6818
 IEAVTSBP      1 00000000 00000000 A   T    7068  7068
 IEAVTSFR      1 00000000 00000000 A   T    6789  6789
 IEAVTSGL      1 00000000 00000000 A   T    7066  7066
 IEAVVMSR      1 00000000 00000000 A   T    6847  6847
 IEAVWAIT      1 00000000 00000000 A   T    7089  7089
 IEAVWSAC      1 00000000 00000000 A   T    7120  7120
 IEAVWSAG      1 00000000 00000000 A   T    7118  7118
 IEAVWSAL      1 00000000 00000000 A   T    7116  7116
 IEAVXEXT      1 00000000 00000000 A   T    7197  7197
 IEAVXSFT      1 00000000 00000000 A   T    7164  7164
 IEAVXSTN      1 00000000 00000000 A   T    7170  7170
 IEAVXSTS      1 00000000 00000000 A   T    7168  7168
 IEAVXUNN      1 00000000 00000000 A   T    7193  7193
 IEAVXUNS      1 00000000 00000000 A   T    7172  7172
 IEAWTCB       1 00000000 00000000 A   T    7229  7229
 IEA0DS        1 00000000 00000000 A   T    6635  6635
 IEA0EF00      1 00000000 00000000 A   T    6541  6541
 IEA0EF01      1 00000000 00000000 A   T    6581  6581
 IEA0PT0E      1 00000000 00000000 A   T    7301  7301
 IEA0PT01      1 00000000 00000000 A   T    6642  6642
 IEA0PT02      1 00000000 00000000 A   T    7226  7226
 IEA0PT03      1 00000000 00000000 A   T    7303  7303
 IEA0VL00      1 00000000 00000000 A   T    6552  6552
 IEA0VL01      1 00000000 00000000 A   T    6959  6959
 IECIXAVL      1 00000000 00000000 A   T    6627  6627
 IECPCNVT      1 00000000 00000000 A   T    6555  6555
 IECPRLTV      1 00000000 00000000 A   T    6559  6559
 IECVEXCL      1 00000000 00000000 A   T    7191  7191
 IECXAPG       1 00000000 00000000 A   T    6550  6550
 IECXITP       1 00000000 00000000 A   T    6580  6580
 IECXTLER      1 00000000 00000000 A   T    6566  6566
1DISP     (DISP2193) (12:42) (15MAR04) Ordinary Symbol and Literal Cross Reference                                          Page  176
 IEC0SCR1      1 00000000 00000000 A   T    6725  6725
 IEECUCB       1 00000000 00000000 A   T    6596  6596
 IEEMSER       1 00000000 00000000 A   T    6574  6574   6640
 IEEVEXSN      1 00000000 00000000 A   T    6929  6929
 IEEVSTOP      1 00000000 00000000 A   T    7239  7239
 IEFAQTOP      1 00000000 00000000 A   T    7046  7046
 IEFAUSDM      1 00000000 00000000 A   T    6546  6546
 IEFENFDM      1 00000000 00000000 A   T    6705  6705
 IEFJESCT      1 00000000 00000000 A   T    6805  6805
 IEFLINK       1 00000000 00000000 A   T    6543  6543
 IEFQMWR       1 00000000 00000000 A   T    6656  6656
 IEWFBOSV      1 00000000 00000000 A   T    6633  6633
 IEWMSEPT      1 00000000 00000000 A   T    7138  7138
 IFBDCB        1 00000000 00000000 A   T    6622  6622
 IFDOLT0A      1 00000000 00000000 A   T    6984  6984
 IFGDEBVR      1 00000000 00000000 A   T    7615  7615
 IGC043BR      1 00000000 00000000 A   T    7030  7030
 IGC044R2      1 00000000 00000000 A   T    7140  7140
 IGC062R1      1 00000000 00000000 A   T    7110  7110
 IGC07903      1 00000000 00000000 A   T    7255  7255
 IGC124        1 00000000 00000000 A   T    7271  7271
 IGFPMAIN      1 00000000 00000000 A   T    9849  9849
 IGFRVT        1 00000000 00000000 A   T    6720  6720
 IGVCPBDB      1 00000000 00000000 A   T    7386  7386
 IGVCPDLB      1 00000000 00000000 A   T    7388  7388
 IGVCPFRE      1 00000000 00000000 A   T    7378  7378
 IGVCPGTC      1 00000000 00000000 A   T    7376  7376
 IGVCPGUB      1 00000000 00000000 A   T    7370  7370
 IGVCPGUP      1 00000000 00000000 A   T    7373  7373
 IGVCPGUS      1 00000000 00000000 A   T    7396  7396
 IGVGCAS       1 00000000 00000000 A   T    7024  7024
 IGVGFAS       1 00000000 00000000 A   T    7028  7028
 IGVGRRGN      1 00000000 00000000 A   T    7400  7400
 IGVGVRGN      1 00000000 00000000 A   T    7402  7402
 IGVQSPET      1 00000000 00000000 A   T    7026  7026
 IGVSLIST      1 00000000 00000000 A   T    7380  7380
 IGVSLOC       1 00000000 00000000 A   T    7384  7384
 IGVSREGN      1 00000000 00000000 A   T    7382  7382
 IGVSTSKI      1 00000000 00000000 A   T    7367  7367
 IHADCB        1 00000000 FFFFFFE4     J    7764  7786   7836   7911   8038   8043   8058  34037
 IHAMPL        1 00000000 00000000 A   T    9927  9927
 IHA16426B
               2 00005364 00000001     H   39820 39816B
 IHB13478C
               2 0000409C 00000001     H   34412 34408B
 IHB13478F
               1 00004098 00000001     B   34409 34415
 IHB13692F
               1 00004358 00000001     B   34924 34931
 IHB13795C
               2 00004434 00000001     H   35159 35155B
 IHB13795F
               1 00004430 00000001     B   35156 35162
 IHB14094C
               2 0000463C 00000001     H   35781 35775B
 IHB14094F
               1 00004638 00000001     B   35777 35783
 IHB14094L
               4 00004634 00000001     A   35776 35782
1DISP     (DISP2193) (12:42) (15MAR04) Ordinary Symbol and Literal Cross Reference                                          Page  177
 IHB14113C
               2 00004664 00000001     H   35820 35814B
 IHB14113F
               1 00004660 00000001     B   35816 35822
 IHB14113L
               4 0000465C 00000001     A   35815 35821
 IHB1428C      2 000000AC 00000001     H   13682 13677B
 IHB1428F      1 000000A8 00000001     B   13678 13683
 IHB14666A
               2 00004A16 00000001     H   36845 36841B
 IHB14741F
               1 00004A7C 00000001     B   36963 36967
 IHB14755F
               1 00004AA0 00000001     B   36992 36998
 IHB16121A
               2 0000502C 00000001     H   39122 39120B
 IHB16121Z
               4 00005028 00000001     A   39121 39123
 IHB16129B
               2 00005040 00000001     H   39147 39144B
 IHB16129F
               1 0000503F 00000001     B   39146 39148
 IHB161291
               1 0000503E 00000001     B   39145 39149
 IHB16160A
               2 00005086 00000001     H   39205 39201B
 IHB1621C      2 000001A8 00000001     H   14037 14032B
 IHB1621F      1 000001A4 00000001     B   14033 14039
 IHB16216A
               2 000050F0 00000001     H   39324 39322B
 IHB16216Z
               4 000050EC 00000001     A   39323 39326
 IHB16224B
               2 00005106 00000001     H   39350 39347B
 IHB16224F
               1 00005105 00000001     B   39349 39351
 IHB162241
               1 00005104 00000001     B   39348 39353
 IHB1674C      2 00000204 00000001     H   14142 14137B
 IHB1674F      1 00000200 00000001     B   14138 14144
 ILRJTERM      1 00000000 00000000 A   T    7309  7309
 INITCMDS      1 00000000 00000015     T   18321 18321
 INITUSER      1 00000000 00000012     T   18315 18315
 INVALID       1 00000000 00000000 A   T    2212  2212
 IOCENDW       1 00000044 FFFFFFD9     U   11837 11778
 IOCIOCW       4 00000000 FFFFFFD9     C   11775 11778
 IOCOM         1 00000000 FFFFFFDA     J   11597 11598  34231  39949U
 IOCQCNT       4 00000074 FFFFFFDA     A   11660 39955
 IOCSTIO       4 0000001C FFFFFFDA     A   11617 34231
 IOERRCNT      4 00002094 00000001     F   24182 23780  23781M
 IOFIX         2 000052EA 00000001     H   39619 14249  14250
 IOFIXEND      1 00005778 00000001     U   40085 14250
 IOPURGE       2 000053A2 00000001     H   39896 39853B
 IOSABN        4 00000040 FFFFFFD8     A   12402 36231M
 IOSACHN       1 000000C0 FFFFFFD8 A   U   12078 34170
 IOSASID       2 00000006 FFFFFFD8     H   12203 36169M
 IOSATTSN     40 0000002C FFFFFFD8     X   12461 12462
 IOSB          1 00000000 FFFFFFD8     J   12069 12581  12642  12689  12717  12997  13053  13212  23969U 33998M 34160U
                                                 36097U 39665U
1DISP     (DISP2193) (12:42) (15MAR04) Ordinary Symbol and Literal Cross Reference                                          Page  178
 IOSBSIZE      1 0000006C FFFFFFD8 A   U   12581 13211
 IOSCCWAD      4 00000014 FFFFFFD8     A   12314 12315
 IOSCKEY       1 00000059 FFFFFFD8     X   12417 36198M
 IOSCOD        1 0000000D FFFFFFD8     X   12215 13212  23982
 IOSCSW        7 00000015 FFFFFFD8     X   12320 12321  12348  12348
 IOSCTCDW      8 00000060 FFFFFFD8     D   12451 12452  12454  12454
 IOSDVRID      1 00000004 FFFFFFD8     X   12141 36168M
 IOSEEK        8 0000005C FFFFFFD8     C   12430 34173M
 IOSEEKA       8 00000064 FFFFFFD8     C   12434 12435  12450  34174M
 IOSEND        1 0000006C FFFFFFD8     U   12445 12492  12581
 IOSERP        4 00000034 FFFFFFD8     A   12396 34188M 34188
 IOSF          1 00000080 FFFFFFD8 A   U   12284 36156
 IOSFCSW       8 00000014 FFFFFFD8     X   12313 24004  24027
 IOSFLA        1 00000000 FFFFFFD8     X   12074 34172M
 IOSFMSK       1 00000058 FFFFFFD8     X   12416 36238M
 IOSIPIB       4 0000002C FFFFFFD8     A   12390 34195M 34195  39904
 IOSLCL        1 00000008 FFFFFFD8 A   U   12209 36204
 IOSLOCK       1 00000000 00000000 A   T   10152 10152
 IOSMISID      1 00000001 FFFFFFD8 A   U   12144 36168
 IOSNRM        4 0000003C FFFFFFD8     A   12401 36230M
 IOSOPT2       1 0000000F FFFFFFD8     X   12267 36158M
 IOSPCHN       4 00000030 FFFFFFD8     A   12392 12393
 IOSPGAD       4 00000008 FFFFFFD8     A   12205 36170M 36193M
 IOSPKEY       1 0000000C FFFFFFD8     X   12207 36199M 36206M
 IOSPROC       1 00000003 FFFFFFD8     X   12119 34181M
 IOSRST        4 00000048 FFFFFFD8     A   12407 36166M
 IOSSECT       1 0000002C FFFFFFD8     U   12388 12460  12488
 IOSSNS        2 0000002A FFFFFFD8     H   12379 24049
 IOSSRB        4 0000001C FFFFFFD8     A   12351 36134M
 IOSTATUS      2 00000018 FFFFFFD8     X   12323 12324
 IOSTSA        1 00000018 FFFFFFD8     X   12325 12326
 IOSTSB        1 00000019 FFFFFFD8     X   12336 12337
 IOSUCB        4 00000010 FFFFFFD8     A   12304 33998M
 IOSUSE        4 00000020 FFFFFFD8     A   12352 36207M 39668
 IOSVDEVN      1 00000000 00000000 A   T    7326  7326
 IOSVHID       1 00000000 00000000 A   T    7336  7336
 IOSVST        4 0000004C FFFFFFD8     A   12408 36164M
 IOSVSUCB      1 00000000 00000000 A   T    7339  7339
 IOTERM        2 000052EE 00000001     H   39645 39546
 IOTJOIN       4 0000534A 00000001     I   39805 39759B
 IOTQL         4 00005332 00000001     I   39793 39797B
 IRARMCNS      1 00000000 00000000 A   T    7080  7080
 IRARMEPS      1 00000000 00000000 A   T    7298  7298
 IRARMI00      1 00000000 00000000 A   T    7037  7037
 ISNBRNCH      1 00000000 00000000 A   T    7195  7195
 ITSBUSY       4 000016FA 00000001     I   20807 20452B 20575B
 JCB         208 00000000 FFFFFFD4     J   12996  1153U 13665U 13927U 14099U 14206U 15981M 16151M 16317M 16761  16890U
                                                 16948M 18397U 20497  21183M 21420U 21426  21427M 21430M 21438M 21447M
                                                 21463  21496U 21527U 21658U 22371U 23431U 24110U 24439U 24651M 24784U
                                                 25022M 25149M 25441U 25486U 25592U 25753U 26478U 26706U 26751U 26854U
                                                 27038U 27083U 27186U 27371U 27416U 27522U 27808U 27853U 27978U 28951U
                                                 29392U 29658U 29703U 29844U 30906U 32652M 37737U
 JCB#PIO       2 00000032 FFFFFFD4     H   12745 16609  19313M 19313  19464  19465M 19532  19533M 19675  19676M 19844
                                                 19845M 19894M 19894  23500  23572M 24800M 24800
 JCBACCT       5 0000004A FFFFFFD4     C   12758 24115  24116
 JCBAFALO    128 00000062 FFFFFFD4        12845 18535  18535  18536  18536  18537  18537
 JCBAFL        1 00000062 FFFFFFD4     R   12841 12845  12850  12855  12860  12865  12870  12875  12880
 JCBAFRUN      4 00000062 FFFFFFD4        12870 14672  14695M 18410  18513M 19283  19306M 19887M 23448
 JCBAPDSP     16 00000062 FFFFFFD4        12860 15968  15981M 15981  16138  16151M 16151  16304  16317M 16317  16812M
1DISP     (DISP2193) (12:42) (15MAR04) Ordinary Symbol and Literal Cross Reference                                          Page  179
                                                 16948M 16948  21183M 21183  24651M 24651  25022M 25022  25149M 25149
                                                 32652M 32652
 JCBBFL        1 00000063 FFFFFFD4     R   12886 12890  12895  12900  12905  12910  12915  12920
 JCBBILLX      8 00000088 FFFFFFD4     D   12971 12979  12979
 JCBCPX        4 00000014 FFFFFFD4     A   12738 16825  16845M 17029  18546M 18546
 JCBDSPP       4 00000008 FFFFFFD4     A   12733 16861  16880M 16880  21147M
 JCBFARB      32 00000062 FFFFFFD4        12855 20396M 20554  20593M
 JCBFATTN      2 00000062 FFFFFFD4        12875 18532  18532  18533  18533  18535  18535  18538M 20572
 JCBFATTNFREE
               4 00000063 FFFFFFD4        12915 14702M 21863
 JCBFNATN     64 00000062 FFFFFFD4        12850 18533  18533  18534  18534  18537  18537
 JCBFPATN      8 00000062 FFFFFFD4        12865 18532  18532  18534  18534  18536  18536
 JCBFTBRK      8 00000063 FFFFFFD4        12910 16098  16110M
 JCBGRP        2 0000004D FFFFFFD4     C   12760 37811  37816
 JCBHEAPL      4 00000024 FFFFFFD4     A   12741 15435M 17131  18620M 18620
 JCBHEAPX      8 00000028 FFFFFFD4     X   12742 15332  15418  17153  18589  19043M 19045  19138  19160  19168M 19168
 JCBNPG        2 00000030 FFFFFFD4     H   12744 28966  29306  29307M 30163  30165M 30195  30197M 31099  31100M
 JCBPTA        4 00000040 FFFFFFD4     A   12754 14715  14933  17177  18469M 18469  19361  19576  19749  23467  24561M
                                                 24917  24982M 24982  24999M 25293M 25293  25450  25450M 25451  25451
                                                 25452  25452M 25495  25495M 25496  25496  25497  25497M 25599  26485
                                                 26715  26715M 26716  26716  26717  26717M 26760  26760M 26761  26761
                                                 26762  26762M 26861  27047  27047M 27048  27048  27049  27049M 27092
                                                 27092M 27093  27093  27094  27094M 27193  27380  27380M 27381  27381
                                                 27382  27382M 27425  27425M 27426  27426  27427  27427M 27529  27817
                                                 27817M 27818  27818  27819  27819M 27862  27862M 27863  27863  27864
                                                 27864M 27995M 27995  29399  29423M 29423  29513M 29551M 29551  29667
                                                 29667M 29668  29668  29669  29669M 29712  29712M 29713  29713  29714
                                                 29714M 29937
 JCBPTB        4 00000044 FFFFFFD4     A   12755 14902  17296  18482M 18482  19552  23481  24948  25450  25451M 25452
                                                 25495  25496M 25497  25760  26715  26716M 26717  26760  26761M 26762
                                                 27047  27048M 27049  27092  27093M 27094  27380  27381M 27382  27425
                                                 27426M 27427  27817  27818M 27819  27862  27863M 27864  28449M 28449
                                                 29667  29668M 29669  29712  29713M 29714  29965
 JCBQB         4 00000004 FFFFFFD4     A   12731 21426  21427M 21437  21438M 21450M
 JCBQCNT       4 00001904 00000001     I   21463 20520B
 JCBQF         4 00000000 FFFFFFD4     A   12730 16571  16687  16761  16918  20462  20497  21102  21122  21209  21216
                                                 21428M 21430M 21436  21447M 21449M 21463  21501
 JCBR          6 00000006 00000001 A   #    1016  1153U 14516M 15951M 15980  16069M 16070M 16070  16077M 16150  16287M
                                                 16316  16571M 16602  16636  16670  16687M 16704  16760M 16772  16838
                                                 16839  16982  17071  17077  18389M 18397U 18625M 18625  20365M 20372M
                                                 20492  20502  20801  20888M 20895M 20925  21101  21102M 21116  21122M
                                                 21128  21182  21209M 21215M 21254M 21254  21260M 21260  21649M 21658U
                                                 22351M 22371U 23396M 23406M 23406  23431U 23538  23556  24093M 24110U
                                                 24430M 24439U 24544  24650  24775M 24784U 24889  25021  25148  25583M
                                                 25592U 25744M 25753U 26469M 26478U 26845M 26854U 27177M 27186U 27513M
                                                 27522U 27969M 27978U 28943M 28951U 29245  29383M 29392U 29835M 29844U
                                                 30111  30897M 30906U 31086  32645M 32651
 JCBRSCF1      1 00000064 FFFFFFD4     R   12926 12930  12935  12940
 JCBSEQ        2 00000048 FFFFFFD4     H   12757 16111  24120  37763
 JCBSFLG1      1 00000065 FFFFFFD4     R   12946 12950  12955
 JCBSTART      4 00000000 FFFFFFD4     F   12729 16687  21102  21209  21216
 JCBSTKL       4 00000018 FFFFFFD4     A   12739 15250M 17090  18585M 18585
 JCBSTKX       8 0000001C FFFFFFD4     X   12740 15165  15233  17112  18554  18799M 18807  18894  18916  18924M 18924
 JCBTIMID      4 0000000C FFFFFFD4     A   12735 16086M 16086
 JCBTIMQL      4 00000010 FFFFFFD4     A   12736 16076  16087M
 JCBUCEP       4 00000070 FFFFFFD4     A   12963 14586
 JCBUSER       3 0000004A FFFFFFD4     C   12759 37857  37862
 JCBWCPU       4 0000007C FFFFFFD4     F   12967 14581  14582M
 JCBWFDSP      8 00000060 FFFFFFD4        12794 16900M 21268M
1DISP     (DISP2193) (12:42) (15MAR04) Ordinary Symbol and Literal Cross Reference                                          Page  180
 JCBWFECB      4 00000060 FFFFFFD4        12799 21810M
 JCBWFL        1 00000060 FFFFFFD4     R   12770 12774  12779  12784  12789  12794  12799  12804  12809  12837  15958M
                                                 15958  16128M 16128  16294M 16294  16903  21169
 JCBWFRSC     16 00000060 FFFFFFD4        12789 16596M 16819M 20518M 20539M 21159M 23532M
 JCBWFSIZ      1 00000002 FFFFFFD4 A   U   12837 15957  16127  16293
 JCBWFSO     128 00000060 FFFFFFD4        12774 18519M
 JCBWWFECB
              32 00000061 FFFFFFD4        12829 21839M
 JCBWWFL       1 00000061 FFFFFFD4     R   12815 12819  12824  12829  12834
 JPCBERR       2 00004AB4 00000001     I   37015 36847B 36884B 36905B
 JPCBEXIT      2 00004AC4 00000001     H   37027 37000B
 JUNKPCB       2 000049A6 00000001     H   36710 36534B 36666B
 KEYNZERO      2 00004F28 00000001     I   38813 38812
 KEYZERO       4 00004F22 00000001     I   38805 38802
 LOCALTOD      1 00000000 00000002     T   18283 18283
 LOCK          2 00004F38 00000001     H   38838 38834
 LOCKOK        4 0000537C 00000001     I   39836 39819B 39854B
 LOWTBL        1 00000000 00000000 A   T    2220  2220
 LSR           8 00000008 00000001 A   #    1054 13471  14225M 18755  18823M 18865  18956M 18999  19067M 19109  19200M
                                                 19243  19911M 19943  20280M 21623  22043M 22092  22484M 22510  22804M
                                                 22863  23672M 23705  24175M 24274  24341M 24371  24718M 24749  25372M
                                                 25403  25529M 25557  25690M 25718  25851M 25890  26035M 26443  26643M
                                                 26668  26794M 26819  26975M 27000  27126M 27151  27308M 27333  27459M
                                                 27487  27742M 27770  27896M 27924  28910M 29357  29595M 29620  29746M
                                                 29775  30367M 30392  30469M 30497  30623M 30691  30836M 30871  31170M
                                                 31199  31428M 32551  32697M 32726  33078M 33106  33604M 34371  34463M
                                                 34514  34665M 34784  34974M 35034  35208M 35258  35362M 35734  36306M
                                                 36358  36569M 36596  36692M 36719  37044M 37093  38101M 38123  38244M
                                                 38273  38791M 38847  38907M 38934  38994M
 L1            2 00001836 00000001     I   21215 21208B
 MGETNEW       2 00002146 00000001     H   24265 24261
 MGETNEW       1 00000000 00000021     T   26404 26404
 MILERR        1 00000000 00000000 A   T    2211  2211
 MILPOST       1 00000000 00000007     T   18297 18297
 MODLCCWS     32 00004870 00000001     X   36323 35997
 MODLCELL      8 00000250 00000001     D   14232 14082  14188
 MODLSTRT      8 00004870 00000001     W   36319 36323  36323
 MODXCCWS     32 00004890 00000001     X   36333 35972
 MODXSTRT      1 00004890 00000001     X   36329 36333  36333
 NBLTBL        1 00000000 00000000 A   T    2224  2224
 NDPF          4 00002FA2 00000001     I   29008 29055B
 NDPTSRCH      2 00003014 00000001     I   29123 29106B
 NOACTION      1 00000000 00000000 A   T    2214  2214
 NPARTBL       1 00000000 00000000 A   T    2218  2218
 NPATPOST      1 00000000 0000000C     T   18304 18304
 NPTSRCH       4 00002FE2 00000001     I   29086 29114B
 NSCNCB      176 00000000 FFFFFFED     J    2483  2609
 NSCNFLGS      1 00000008 FFFFFFED     R    2420  2424   2429
 NSCNTYPE      1 00000018 FFFFFFED     R    2438  2442   2447   2452   2457   2462
 NXPT          4 00003002 00000001     I   29112 29124B
 OPTLOCK       1 00000000 00000000 A   T   10133 10133
 PACOM         4 0000301A 00000001     I   29148 29048B
 PACTAKE       2 0000149C 00000001     H   20124 20010B
 PACTAKEB      4 00001490 00000001     I   20118 20075B
 PAEXIT        2 000030B0 00000001     I   29311 29121B 29166B
 PAGEMON       2 00003B0E 00000001     H   32717 32713
 PALLOC        4 00002F6A 00000001     I   28926 26405  28925
 PAR           9 00000009 00000001 A   #    1067 14734M 14734  17283M 24317M 24322M 24322  24623M 25225M 25266  25317M
                                                 25348M 25348  25458M 25459  25460M 25503M 25504  25505M 25647  26723M
1DISP     (DISP2193) (12:42) (15MAR04) Ordinary Symbol and Literal Cross Reference                                          Page  181
                                                 26724  26725M 26768M 26769  26770M 27055M 27056  27057M 27100M 27101
                                                 27102M 27388M 27389  27390M 27433M 27434  27435M 27621  27825M 27826
                                                 27827M 27870M 27871  27872M 28019  28421M 29508M 29508  29571M 29571
                                                 29675M 29676  29677M 29720M 29721  29722M 30426M 30426  31744  31784
                                                 32761M 32761
 PATHPOST      1 00000000 0000000B     T   18303 18303
 PAVE          1 00000000 00000000 A   T   11835 11835
 PBR          10 0000000A 00000001 A   #    1080 14921M 14921  17402M 25458  25459M 25460  25503  25504M 25505  25808
                                                 26723  26724M 26725  26768  26769M 26770  27055  27056M 27057  27100
                                                 27101M 27102  27388  27389M 27390  27433  27434M 27435  27825  27826M
                                                 27827  27870  27871M 27872  28473  28875M 29675  29676M 29677  29720
                                                 29721M 29722
 PBUF      20464 00000000 FFFFFFD0     J   13284 22304U 22444U 22644U 22659  22838  23184U 23359U 23873U 24229  26601U
                                                 27648U 27664  28030U 28046  28315  28484U 28500  28769  30305U 30650
                                                 30651  31678U 31695  31795U 31812  33890U 33904  34313  34314  35815
                                                 35835U 35945M 35946  36866U 36881  36941M 36991  39540  39573  39574
                                                 39576
 PBUFBUF   20352 00000068 FFFFFFD0     X   13275 36016  39575
 PBUFEND       8 00004FE8 FFFFFFD0     C   13277 30651  34314  35948  39574
 PBUFFL        1 0000006C FFFFFFD0     R   13261 13265
 PBUFFRCV    128 0000006C FFFFFFD0        13265 22741  27701M
 PBUFID        4 00000068 FFFFFFD0     C   13258 13269  13269  23201  27708M
 PBUFIDAL      4 00000034 FFFFFFD0     A   13248 13243  35979  36007  36015
 PBUFPCBP      4 00000004 FFFFFFD0     A   13235 28094  28548  31859  35953M
 PBUFSECT      1 00000030 FFFFFFD0     X   13247 13240  34019M 35973  35998
 PBUFSEEK      8 00000028 FFFFFFD0     X   13246 13241  23908  23931  34038  34173  34174  35975  36001
 PBUFSYS       8 00000068 FFFFFFD0     X   13269 13270  13270  23371M 23371  28315  28326  28335M 28335  28769  28780
                                                 28789M 28789  30317M 30317
 PBUFUSER  20344 00000070 FFFFFFD0     X   13274 22838  24229  28336  28790  30650  31746  34313  35950  39576
 PBUFX         8 00000068 FFFFFFD0     D   13254 13275  13275
 PCB         212 00000000 FFFFFFD1     J   13219 13935  13939  14795U 14811  14882  14884  14885M 14886M 14888M 14889M
                                                 14975U 14991  15064  15066  15067M 15068M 15070M 15071M 17223U 17239
                                                 17342U 17358  19411U 19427  19483  19484  19485M 19486M 19492M 19493M
                                                 19622U 19638  19694  19695  19696M 19697M 19703M 19704M 19786U 19808
                                                 19810  19811M 19812M 19814M 19815M 19989  20035U 20046  20083  20084
                                                 20085M 20086M 20092M 20093M 20134  20179  20180  20181M 20182M 20188M
                                                 20189M 22155  22185U 22201  22377  22378  22379M 22380M 22386M 22387M
                                                 22389  22579  22595U 22627  22752  22914  22928U 23028  23381  23383
                                                 23384M 23385M 23387M 23388M 23592  23608  23617  23618M 23619M 23621M
                                                 23629  23630M 23631M 23633M 23634M 23740U 23756  24590U 24606  25092U
                                                 25108  25213  25214  25215M 25216M 25222M 25223M 26531U 26547  26907U
                                                 26923  27239U 27255  27576U 27592  28104U 28120  28269M 28278  28345
                                                 28347  28348M 28349M 28351M 28352M 28409  28410  28411M 28412M 28418M
                                                 28419M 28558U 28574  28723M 28732  28799  28801  28802M 28803M 28805M
                                                 28806M 28863  28864  28865M 28866M 28872M 28873M 29463U 29479  29496
                                                 29498  29499M 29500M 29502M 29503M 30007U 30024  30242U 30282  30283
                                                 30284M 30285M 30291M 30292M 30327  30329  30330M 30331M 30333M 30334M
                                                 31228  31253U 31591U 31608  31869U 31886  32112U 32129  32195  32360U
                                                 32377  32443  33803U 33817  35776  35796U 35806M 35806  35807M 36258
                                                 36259  36261  36262M 36263M 36265M 36266M 36407  36431U 36439  36440
                                                 36441M 36442M 36448M 36449M 36453  36470U 36506M 36532  36658U 36664
                                                 36755U 36771  36938M 36957  37173  37198U 37334  37377U 38482U 39581
                                                 39676U 39701  39794M
 PCBBUFP       4 00000008 FFFFFFD1     A   13103 13108  13109  22293  22633  23173  23348  23862  25225  26590  27610
                                                 28278  28421  28732  28875  30294  31667  32263  33881  35951M 36855
                                                 36940M 37904
 PCBCLCK       8 00000030 FFFFFFD1     X   13205 23256  23259  34205M
 PCBCLEAR     19 0000001D FFFFFFD1     X   13201 20247M 20247  23347M 23347  28269  28269M 28269  28276M 28276  28723
                                                 28723M 28723  28730M 28730  30280M 30280
1DISP     (DISP2193) (12:42) (15MAR04) Ordinary Symbol and Literal Cross Reference                                          Page  182
 PCBCOD        1 00000075 FFFFFFD1     X   13212 23150  32220  32468
 PCBFIO      128 0000001D FFFFFFD1        13140 14872  15046  17266  17385  19453  19664  19799  20161  22275  22705
                                                 23055  23291M 25137  25187  28175  28629  30142  31637  31914  32156
                                                 32250M 32404  32498M 34063  34085M 36789  39722
 PCBFIOWR     64 0000001D FFFFFFD1        13145 23324M 23496M 23602  23615M 33946M
 PCBFJUNK     16 0000001D FFFFFFD1        13155 23312  28202  28656  30153M
 PCBFL         1 0000001D FFFFFFD1     R   13136 13140  13145  13150  13155  13160  13201  13201  31379
 PCBFLOCK      8 0000001D FFFFFFD1        13160 26946M 27279M 28257  28711
 PCBFLOW     128 0000001C FFFFFFD1        13122 35917M 36921
 PCBFL2        1 0000001E FFFFFFD1     R   13166 13170
 PCBFMARK     32 0000001D FFFFFFD1        13150 20072  22231  22723  23298M 26574  26585M 37405
 PCBFPOST    255 0000001F FFFFFFD1        13190 23082  23134M 32255M 32503M 36804  36830  39739M
 PCBFSYNC    128 0000001E FFFFFFD1        13170 32186M 32243M 32434M 32491M 33860  34096  39752
 PCBIOFL       1 0000001F FFFFFFD1     R   13181 13190
 PCBIOSB     108 00000068 FFFFFFD1     X   13211 13212  23959  33998M 34150  36087
 PCBLINK       4 00000004 FFFFFFD1     A   13101 22579  22609  36255M 36453  36484  36506M 36506  36662  36939M
 PCBPOSTL      4 00000028 FFFFFFD1     A   13198 22914  23135M 34136M 34136  39780M 39780  39794M
 PCBPTP        4 00000020 FFFFFFD1     A   13194 20193  20249M 22248M 22248  22335  22670  22932  23816  24077  28148M
                                                 28148  28355  28602M 28602  28809  30053  31258  32174  32179M 32206M
                                                 32422  32427M 32454M 33952  37681  38525
 PCBQB         4 00000010 FFFFFFD1     A   13112 14884  14885M 15066  15067M 19484  19486M 19493M 19695  19697M 19704M
                                                 19810  19811M 20084  20086M 20093M 20180  20182M 20189M 22378  22380M
                                                 22387M 23383  23384M 23617  23618M 23629  23630M 25214  25216M 25223M
                                                 28347  28348M 28410  28412M 28419M 28801  28802M 28864  28866M 28873M
                                                 29498  29499M 30283  30285M 30292M 30329  30330M 36261  36262M 36440
                                                 36442M 36449M
 PCBQCLCK      8 00000014 FFFFFFD1     X   13114 14889M 15071M 19815M 22314  23388M 23634M 28352M 28806M 29503M 30334M
                                                 36266M 37473  37494M 37494
 PCBQF         4 0000000C FFFFFFD1     A   13111 13935  13939  14839M 14839  14882  14886M 14888M 15019M 15019  15064
                                                 15068M 15070M 19483  19485M 19492M 19694  19696M 19703M 19808  19812M
                                                 19814M 19989  20046  20061  20083  20085M 20092M 20179  20181M 20188M
                                                 22155  22218  22377  22379M 22386M 23110M 23110  23381  23385M 23387M
                                                 23592  23608  23619M 23621M 23631M 23633M 25213  25215M 25222M 28230M
                                                 28230  28345  28349M 28351M 28409  28411M 28418M 28684M 28684  28799
                                                 28803M 28805M 28863  28865M 28872M 29496  29500M 29502M 30257M 30257
                                                 30282  30284M 30291M 30327  30331M 30333M 31228  31257  33845M 33845
                                                 34113M 34113  36259  36263M 36265M 36407  36439  36441M 36448M 37173
                                                 37203  37334  37383  38492  39581
 PCBSFL        1 0000001C FFFFFFD1     R   13118 13122
 PCBSRB       44 00000038 FFFFFFD1     X   13208 34226  36072
 PCBSTART      8 00000000 FFFFFFD1     D   13094 13108  13109
 PCBXECB       4 0000002C FFFFFFD1     F   13199 32193M 32193  32203  32262M 32262  32441M 32441  32451  32510M 32510
                                                 39758
 PCCWRW        8 00000020 FFFFFFD0     W   13243 23225  23886  33922M 35980M 36009M
 PCCWS        32 00000008 FFFFFFD0     X   13244 35972M 35997M 36163
 PCCWSECT      8 00000008 FFFFFFD0     W   13240 13244  13244  34000M 34016M 35974M 36000M
 PCCWSID       8 00000010 FFFFFFD0     W   13241 35976M 35977  36003M 36004
 PCCWTIC       8 00000018 FFFFFFD0     W   13242 35978M 36006M
 PCHK          2 000025F0 00000001     H   25881 25877
 PDEBEXIT      2 00002F5C 00000001     H   28893 27962B
 PDEBUG        2 00002B86 00000001     H   27915 18282
 PFCB        164 00000000 FFFFFFCF     J   13374 13646U 13789U 23011U 28999U 29076U 29141U 29921U 30999U 33985U
 PFCBAPQH      4 00000020 FFFFFFCF     A   13306 13809M 23332  23333M 29148  29243M 30190  30191M 31006
 PFCBCLK       8 00000034 FFFFFFCF     X   13310 23268  23280  23281M
 PFCBCP        4 00000010 FFFFFFCF     A   13302 23337  23339M 29008  29010  29086  29088  29277  29278M 30200  30202M
                                                 31106  31107M
 PFCBDCB       4 00000070 FFFFFFCF     F   13345 34028
 PFCBFGND    128 00000058 FFFFFFCF        13326 29025  29103
 PFCBFL        1 00000058 FFFFFFCF     R   13322 13326  13331
1DISP     (DISP2193) (12:42) (15MAR04) Ordinary Symbol and Literal Cross Reference                                          Page  183
 PFCBFPNO      4 0000001C FFFFFFCF     F   13305 13650M 33992
 PFCBFRPS     64 00000058 FFFFFFCF        13331 34010
 PFCBMP        4 0000000C FFFFFFCF     A   13301 29290  29297M 31119  31126M
 PFCBNEXT      4 000000A4 FFFFFFCF     F   13367 13652  13914  29053  29112
 PFCBNIO       4 00000030 FFFFFFCF     F   13309 23251  23252M
 PFCBNP        4 00000008 FFFFFFCF     A   13300 13651  13796  13812  29011  29089
 PFCBRPT       4 00000014 FFFFFFCF     A   13303 33995
 PFCBSECM      1 00000013 FFFFFFCF A   U   13337 13338
 PFCBSECT      1 0000005C FFFFFFCF     X   13338 34018
 PFCBUCBP      4 00000018 FFFFFFCF     A   13304 33998
 PFREEA        2 000030BE 00000001     H   29348 29344  30644
 PFREEA        1 00000000 00000020     T   26401 26401  30646
 PFREEB        2 00003184 00000001     H   29611 29607
 PFREEB        1 00000000 00000023     T   26414 26414  30647
 PGETA         2 000022AA 00000001     H   24740 24736  26411
 PGETB         2 000024E2 00000001     H   25394 25390
 PGETCHK       4 000024C8 00000001     I   25344 25226B
 PGETDONE      2 000024CE 00000001     H   25347 24920B 25077B 25204B 25269B 25326B
 PGETNEW       2 0000219A 00000001     H   24362 24358
 PGETNEW       1 00000000 00000028     T   34304 34304
 PIODONE       2 00001C66 00000001     H   22854 18307
 PIOERROR      2 00001F42 00000001     H   23696 23157B
 PIOEXIT       2 00001F34 00000001     H   23640 22907B
 PIOLOOP       4 00001C80 00000001     I   22895 22917B 23158B 23390B 23574B 23622B 23635B
 PIONTDN       4 00001EE8 00000001     I   23572 23525B
 PJNKEXIT      2 000033C2 00000001     H   30350 29828B 30166B
 PJNKTMP       4 00002722 00000001     I   26302 26301
 PJUNK         2 000031FA 00000001     H   29766 29762
 PJUNK         1 00000000 00000022     T   26413 26413  30649
 PJUNKA        2 000033D0 00000001     H   30383 30379
 PJUNKA        1 00000000 00000029     T   34305 34305
 PJUNKALL      2 00003410 00000001     H   30488 30484
 PJUNKALL      1 00000000 00000018     T   18720 18720
 PLOCKA        2 000028AE 00000001     H   26810 26806
 PLOCKA        1 00000000 00000024     T   30637 30637
 PLOCKB        2 0000290E 00000001     H   26991 26987
 PMARKA        2 000027C8 00000001     H   26434 26430  30636
 PMARKB        2 00002838 00000001     H   26659 26655
 PMONCLK       4 00003C1C 00000001     F   33085 32800  32821M 32914
 PNUMA         2 00002558 00000001     H   25548 25544
 PNUMA         1 00000000 00000027     T   30648 30648
 PNUMB         2 000025A4 00000001     H   25709 25705
 PRCVYCHK      2 000034B2 00000001     H   30682 30678
 PRCVYSET      2 0000350A 00000001     H   30862 30858
 PREAD         4 00003D3E 00000001     I   33619 20294
 PSA           1 00000000 FFFFFFE0     J    9809  9807U 10755  10985  34218  34242  38883  38970  39815  39817  39817
                                                 39828  39977
 PSACLHS       4 000002F8 FFFFFFE0     F   10172 39815
 PSADTSAV      8 000006C0 FFFFFFE0     D   10555 10558  10559
 PSAEMS2S      4 0000026C FFFFFFE0     F   10088 10092
 PSAFZERO      4 000004A8 FFFFFFE0     F   10433 39817
 PSAGSAV      64 000008A8 FFFFFFE0     X   10640 10642  10643
 PSAIPCIN      4 00000268 FFFFFFE0     F   10081 10085
 PSAJSTSA     64 00000998 FFFFFFE0     X   10689 10693  10694
 PSALITA       4 000002FC FFFFFFE0     V   10208 34218  34242  38883  38970  39828  39977
 PSALOCAL      4 000002EC FFFFFFE0     A   10164 39817
 PSARTM1R      4 000003FC FFFFFFE0     F   10315 10320
 PSARV7E8      4 000007E8 FFFFFFE0     X   10571 10572  10573
 PSASLSA      72 00000950 FFFFFFE0     X   10681 10687  10688
1DISP     (DISP2193) (12:42) (15MAR04) Ordinary Symbol and Literal Cross Reference                                          Page  184
 PSASTOSM      4 00000270 FFFFFFE0     F   10095 10104
 PSATNEW       4 00000218 FFFFFFE0     A    9965  9968
 PT           16 00000000 FFFFFFCE     J   13402 13406  13406  13735U 13844U 13879U 14257  14744U 14951U 17199U 17318U
                                                 19383U 19518  19594U 19729  19982U 20215U 22345U 22692U 22968U 23826U
                                                 24087U 24500U 24873U 25621U 25782U 25961U 26507U 26883U 27215U 27551U
                                                 28365U 28819U 29181U 29449U 29906U 30556U 30643  30766U 30960U 31006
                                                 31023U 31069M 31294U 31540U 33962U 34312  37691U 38547U
 PTEMP         4 0000264A 00000001     I   26051 26050
 PTFREE        4 00000008 FFFFFFCE     F   13389 13392  13855M 13855  13891M 13891  23331M 23331  25975M 25975  28381M
                                                 28381  28835M 28835  29226M 29226  30189M 30189  30780M 30780  30975M
                                                 30975
 PTJCBP        4 00000008 FFFFFFCE     A   13393 22351  23396  24093  24544  24889  25993  29245M 30111  30160M 30160
                                                 30575  31086M 31338M 31338  31381  31542  31560  37697
 PTLINKP       4 0000000C FFFFFFCE     A   13390 13857M 13898M 13898  23332M 29243  30190M 31006  31029  31069M 31069
 PTNEXT        1 00000010 FFFFFFCE     U   13395 13741  13856  13900  30596
 PTPCBP        4 0000000C FFFFFFCE     A   13394 14750  14957  17205  17324  19389  19523  19600  19764  19835  20227M
                                                 20227  20250M 22984  24515M 24515  24580  25003  25060M 25060  25176
                                                 26513  26889  27221  27557  28398M 28852M 29252M 29252  29453  29985
                                                 31093M 31093  31310  31575  31581
 PTPFCBP       4 00000004 FFFFFFCE     A   13387 13848M 13884M 23001  29198  29911  30989  33968
 PTPNO         4 00000000 FFFFFFCE     F   13386 13739M 22751  23832  25625  25786  30082  30585  31367  33967  38553
 PTSHIFT#      1 00000004 00000001 A   U   13407 24489  24862  25950  29895  30755  30949  32177  32425
 PTYPEA        2 00002A5A 00000001     H   27478 27474
 PTYPEA        1 00000000 00000026     T   30640 30640
 PTYPEB        2 00002B10 00000001     H   27761 27757
 PUNLOCKA      2 00002984 00000001     H   27142 27138
 PUNLOCKA      1 00000000 00000025     T   30638 30638
 PUNLOCKB      2 000029E4 00000001     H   27324 27320
 PUNTEMP       4 0000269C 00000001     I   26161 26160
 PUNTEXIT      2 00002716 00000001     I   26284 26264B
 PWRITE        4 00003D64 00000001     I   33673 20295  22830
 QJCB          4 000018CE 00000001     I   21426 21425
 QJCB          1 00000000 0000001A     T   22818 22818
 QRSC          4 00001920 00000001     I   21535 21534
 QRSC          1 00000000 0000001D     T   22821 22821
 QRSCFND       2 000016BC 00000001     I   20760 20695B
 QUEDJCB       2 000015EA 00000001     H   20514 20495B
 QUEJCB        4 000015DE 00000001     I   20497 20491B
 QUERJCB       2 000015A4 00000001     H   20455 20421B
 RAR          14 0000000E 00000001 A   #    1132  2149   2150M  2151B  2153M  2154B  2174M  2175B  2179M  2180B  2182M
                                                  2183B  2185M  2186B  2188M  2189B  2191M  2192M  2192B  2198  13468
                                                 13587M 13588M 13588B 13605M 13606M 13606B 13984M 13985M 13985B 14227M
                                                 14230B 14552M 14553M 14553B 14652M 14653M 14653B 14707M 14708M 14708B
                                                 15184M 15185M 15185B 15203M 15204M 15204B 15365M 15366M 15366B 15388M
                                                 15389M 15389B 15516M 15517M 15517B 15679M 15680M 15680B 15694M 15695M
                                                 15695B 15723M 15724M 15724B 15801M 15802M 15802B 15913M 15914M 15914
                                                 15928M 15928B 15999M 16000M 16000B 16114M 16115M 16115B 16169M 16170M
                                                 16170B 16335M 16336M 16336B 16407M 16408M 16408B 16437M 16438M 16438B
                                                 16441M 16442M 16442B 16463M 16464M 16464B 16499M 16500M 16500B 16530M
                                                 16531M 16531B 16574M 16575M 16575B 16605M 16606M 16606B 16640M 16641M
                                                 16641B 16674M 16675M 16675B 16775M 16776M 16776B 16843M 16844M 16844B
                                                 16966M 16967M 16967B 17422M 17423M 17423B 17442B 17575M 17645M 17734M
                                                 17793B 17854M 17855M 17855B 17881M 17882M 17882B 17927M 17928M 17928B
                                                 17958M 17959M 17959B 17984M 17985M 17985B 18118M 18119M 18119B 18165M
                                                 18166M 18166B 18191M 18192M 18192B 18214M 18215M 18215B 18252M 18253M
                                                 18253B 18504M 18505M 18505B 18549M 18550M 18550B 18573M 18574M 18574B
                                                 18608M 18609M 18609B 18685M 18686M 18686B 18690M 18691M 18691B 18752
                                                 18796M 18797M 18797B 18825M 18828B 18862  18936M 18937M 18937B 18958M
                                                 18961B 18996  19040M 19041M 19041B 19069M 19072B 19106  19180M 19181M
1DISP     (DISP2193) (12:42) (15MAR04) Ordinary Symbol and Literal Cross Reference                                          Page  185
                                                 19181B 19202M 19205B 19240  19520M 19526M 19527M 19527B 19731M 19838M
                                                 19839M 19839B 19913M 19916B 19940  20098M 20099M 20099B 20282M 20285B
                                                 20403M 20489M 20490M 20490  20494M 20494B 20510M 20511M 20511B 20520M
                                                 20742M 20743M 20743B 20753M 20754M 20754B 20901M 20971M 20972M 20972B
                                                 20986M 20987M 20987B 21131M 21132M 21132B 21201M 21202M 21202B 21335M
                                                 21391B 21431B 21451B 21516B 21540B 21564B 21620  21671M 21672M 21672B
                                                 22003M 22004M 22004B 22045M 22048B 22089  22392M 22393M 22393B 22486M
                                                 22489B 22507  22755M 22756M 22756B 22806M 22809B 22860  23157M 23541M
                                                 23542M 23542B 23560M 23561M 23561B 23674M 23677B 23702  23859M 23860M
                                                 23860B 23902M 23903M 23903B 23925M 23926M 23926B 23948M 23949M 23949B
                                                 23998M 23999M 23999B 24021M 24022M 24022B 24044M 24045M 24045B 24066M
                                                 24067M 24067B 24135M 24136M 24136B 24177M 24180B 24271  24304M 24305M
                                                 24305B 24310M 24311M 24311B 24343M 24346B 24368  24418M 24419M 24419B
                                                 24448M 24449M 24449B 24455M 24456M 24456B 24567M 24568M 24568B 24669M
                                                 24670M 24670B 24720M 24723B 24746  24969M 24970M 24970B 25040M 25041M
                                                 25041B 25167M 25168M 25168B 25280M 25281M 25281B 25344M 25345M 25345B
                                                 25374M 25377B 25400  25472M 25473M 25473B 25531M 25534B 25554  25692M
                                                 25695B 25715  25853M 25856B 25887  26037M 26040B 26124M 26125M 26125B
                                                 26323M 26324M 26324B 26329M 26330M 26330B 26366M 26367M 26367B 26440
                                                 26645M 26648B 26665  26737M 26738M 26738B 26796M 26799B 26816  26977M
                                                 26980B 26997  27069M 27070M 27070B 27128M 27131B 27148  27310M 27313B
                                                 27330  27402M 27403M 27403B 27461M 27464B 27484  27744M 27747B 27767
                                                 27839M 27840M 27840B 27898M 27901B 27921  28912M 28915B 29354  29597M
                                                 29600B 29617  29689M 29690M 29690B 29748M 29751B 29772  29821M 29822M
                                                 29822B 29948M 29949M 29949B 29976M 29977M 29977B 30369M 30372B 30389
                                                 30435M 30436M 30436B 30441M 30442M 30442B 30449M 30450M 30450B 30471M
                                                 30474B 30494  30588M 30589M 30589B 30625M 30628B 30688  30838M 30841B
                                                 30868  31172M 31175B 31196  31430M 31433B 31520M 31521M 31521B 31659M
                                                 31660M 31660B 31938M 31939M 31939B 32197M 32445M 32548  32670M 32671M
                                                 32671B 32699M 32702B 32723  32825M 32826M 32826B 32950M 32951M 32951B
                                                 32994M 32995M 32995B 33009M 33010M 33010B 33027M 33028M 33028B 33080M
                                                 33083B 33103  33606M 33609B 34368  34397  34465M 34468B 34511  34605M
                                                 34606M 34606B 34638M 34639M 34639B 34667M 34670B 34781  34810  34863M
                                                 34864M 34864B 34976M 34979B 35031  35210M 35213B 35255  35364M 35367B
                                                 35731  35841M 35842M 35842B 36308M 36311B 36355  36534M 36571M 36574B
                                                 36593  36666M 36694M 36697B 36716  36985M 36986M 36986B 37046M 37049B
                                                 37090  37166M 37167M 37167B 37234M 37235M 37235B 37259M 37260M 37260B
                                                 37284M 37285M 37285B 37303M 37304M 37304B 37328M 37329M 37329B 37442M
                                                 37443M 37443B 37468M 37469M 37469B 37546M 37547M 37547B 37564M 37565M
                                                 37565B 37631M 37632M 37632B 37655M 37656M 37656B 37673M 37674M 37674B
                                                 37757M 37758M 37758B 37781M 37782M 37782B 37799M 37800M 37800B 37827M
                                                 37828M 37828B 37845M 37846M 37846B 37873M 37874M 37874B 37901M 37902M
                                                 37902B 37936M 37937M 37937B 37968M 37969M 37969B 37999M 38000M 38000B
                                                 38029M 38030M 38030B 38076M 38077M 38077B 38103M 38106B 38120  38205M
                                                 38206M 38206B 38227M 38228M 38228B 38246M 38249B 38270  38345M 38346M
                                                 38346B 38370M 38371M 38371B 38397M 38398M 38398B 38415M 38416M 38416B
                                                 38452M 38453M 38453B 38521M 38522M 38522B 38589M 38590M 38590B 38607M
                                                 38608M 38608B 38632M 38633M 38633B 38650M 38651M 38651B 38686M 38687M
                                                 38687B 38710M 38711M 38711B 38768M 38769M 38769B 38793M 38796B 38806B
                                                 38825B 38844  38909M 38912B 38931  38996M 38999B
 RCVMSG       23 00000EF6 00000001     H   17894 17867  17872
 RCVNUM        4 00000EF6 00000001     C   17889 17844  17851
 RCVYCOM       4 00003596 00000001     I   31086 31070B
 RCVYEXIT      2 000035C6 00000001     H   31153 30983B
 RECDONE       2 00000CB0 00000001     H   17799 17719B
 RECVCNT       4 00000F10 00000001     F   18338 17829
 RELHEAP       2 000011B4 00000001     H   19100 18291  18723
 RELSTACK      2 000010CC 00000001     H   18856 18287  18722
 RESOURCE     24 00000000 FFFFFFD6     J   12688 15832  15840U 17503  17513U 20601U 20609  20643  20744  20904  21535
1DISP     (DISP2193) (12:42) (15MAR04) Ordinary Symbol and Literal Cross Reference                                          Page  186
                                                 21536M 21537M 21539M 21545  21546  21547M 21556M 21563M 21563
 RMBRANCH      1 00000000 00000000 A   T    7205  7205
 RSC$ECB       4 0000000C FFFFFFD6     A   12659 15877  15894  17552  17569  20790M
 RSC#USE       4 00000010 FFFFFFD6     A   12660 20799  20800M
 RSC@JCB       4 00000008 FFFFFFD6     A   12658 15951  20691  20801M 20925  20942M 20942
 RSC@NEXT      4 00000000 FFFFFFD6     A   12656 15832  15861  17503  17536  20609  20643  20665  20744  20904  20924
                                                 21537M 21539M 21546  21547M 21563M 21563
 RSC@PREV      4 00000004 FFFFFFD6     A   12657 21535  21536M 21545  21556M
 RSCBASE       2 00001544 00000001     H   20359 20879U 21332U 22822
 RSCBUSY       1 00000008 00000001 A   U    1173 20807
 RSCFLAGS      1 00000014 FFFFFFD6     R   12664 12668  12673  12678
 RSCGROUP     60 00000000 FFFFFFD7     J   12641 15814U 16547U 16742U 17485U 20412U 22837
 RSCHAVE       1 00000000 00000001 A   U    1171 20804
 RSCJCBQD      1 00000004 00000001 A   U    1172 20583
 RSCOK         1 00000000 00000001 A   U    1174 21055  21278  21337
 RSCQJCB       1 0000000C 00000001 A   U    1170 22834
 RSCWRTN       1 00000008 00000001 A   U    1169 22835
 RSC1@ECB     64 00000014 FFFFFFD6        12673 15887  17562
 RSC1ACTV    128 00000014 FFFFFFD6        12668 15871  15950M 17546  21044M
 RSC1ASYN     32 00000014 FFFFFFD6        12678 20676  20783  20957
 RSG#ACTV      2 0000000E FFFFFFD7     H   12595 20766  20767M 20945  20947M 20990
 RSG#AUSE      4 00000008 FFFFFFD7     F   12593 20418  20419M
 RSG#FREE      2 0000000C FFFFFFD7     H   12594 20425  20761M 21053  21054M 21076
 RSG#IMFR      4 00000010 FFFFFFD7     F   12596 20607  20608M
 RSG#MXJC      2 00000038 FFFFFFD7     H   12606 20521  20523M
 RSG#WAIT      4 00000024 FFFFFFD7     F   12601 20530  20531M
 RSG@POST      4 00000028 FFFFFFD7     A   12602 15913
 RSG@QUER      4 0000002C FFFFFFD7     A   12603 20489
 RSGFLG1       1 0000003B FFFFFFD7     R   12616 12620  12625  12630  12633
 RSGQACBK      4 00000018 FFFFFFD7     A   12598 15855  17530  20657  20918
 RSGQACFW      4 00000014 FFFFFFD7     A   12597 15832  17503  20643  20744  20904
 RSGQFRBK      4 00000020 FFFFFFD7     A   12600 20637
 RSGQFRFW      4 0000001C FFFFFFD7     A   12599 20422  20609  20973
 RSGQJCBK      4 00000034 FFFFFFD7     A   12605 16704  21116  21228  21481
 RSGQJCFW      4 00000030 FFFFFFD7     A   12604 16687  16760  16761  16788  20497  21102  21209  21216  21463
 RSG1ACTV    128 0000003B FFFFFFD7        12620 15826  17497  20773M 21033M
 RSG1ASYN     32 0000003B FFFFFFD7        12630 20623
 RSG1QUED     64 0000003B FFFFFFD7        12625 16558  16719M 16754  16801M 20459M 21065  21241M
 RSMJCBQD      4 00001638 00000001     I   20583 20525B
 RSMLOCK       1 00000000 00000000 A   T   10145 10145
 RSMRTRN       2 000018C0 00000001     I   21394 20584B 20805B 20808B 20933B 21068B 21279B 21338B
 RUNRSG        1 00000000 00000010     T   18313 18313
 R0            0 00000000 FFFFFFFF A   #     699  2134   2203M 13584M 13602M 13673M 13700M 13700  13701M 13796M 13797M
                                                 13797  13936M 13937  13940M 13941  14004M 14004  14006M 14015M 14015
                                                 14028M 14045M 14109M 14109  14111M 14120M 14120  14133M 14150M 14152M
                                                 14189  14306  14327  14335M 14463  14504  14539  14573M 14573  14578
                                                 14579  14581M 14582  14681  14709  14820  14848  14884M 14886  14887
                                                 15000  15028  15055  15066M 15068  15069  15115  15165M 15166M 15166
                                                 15176  15200M 15243M 15244M 15245M 15285  15319  15332M 15342  15356M
                                                 15356  15385M 15428M 15429M 15430M 15670M 15685M 15714M 15714  15746M
                                                 15748M 15757M 15759M 15761M 15763M 15926M 15995M 16054M 16055M 16057
                                                 16111M 16165M 16220M 16221M 16223  16331M 16609M 16610M 16610  16636M
                                                 16670M 16903M 16904M 16904  16918M 16919M 16919  16935  16962M 17003M
                                                 17010M 17012M 17019M 17051  17112M 17113M 17114M 17153M 17154M 17155M
                                                 17248  17275  17367  17394  17435M 17438  17755M 17757M 17759M 17760M
                                                 17769M 17776M 17781M 17782  17844M 17872M 18109M 18156M 18182M 18205M
                                                 18205  18243M 18385  18419  18448  18491  18554M 18555M 18555  18564M
                                                 18564  18589M 18590M 18590  18599M 18599  18676M 18784  18785  18798M
                                                 18799  18894M 18903M 18903  18925  19028  19029  19042M 19043  19138M
1DISP     (DISP2193) (12:42) (15MAR04) Ordinary Symbol and Literal Cross Reference                                          Page  187
                                                 19147M 19147  19169  19292  19436  19647  19810M 19812  19813  20143
                                                 20170  20365  20417M 20418M 20419  20443  20462M 20463M 20463  20479
                                                 20493M 20521  20523  20529M 20530M 20531  20541  20606M 20607M 20608
                                                 20691M 20692M 20692  20713  20765M 20766M 20767  20798M 20799M 20800
                                                 20802M 20888  21007  21052M 21053M 21054  21093  21169M 21170M 21170
                                                 21197M 21270  21336M 21378  21426M 21428  21429  21437M 21438  21444
                                                 21445M 21446  21447  21448M 21448  21449  21450  21467M 21467  21502M
                                                 21535M 21537  21538  21546M 21547  21553M 21554  21555M 21556  21663
                                                 21668M 21812  21841  22210  22257  22284  22951  22993  23037  23064
                                                 23091  23119  23169M 23170M 23171  23250M 23251M 23252  23254M 23256M
                                                 23258M 23259M 23268M 23275M 23280M 23281  23383M 23385  23386  23415
                                                 23500M 23501M 23501  23517  23525M 23556M 23571M 23571  23572  23617M
                                                 23619  23620  23629M 23631  23632  23765  23803  23849M 23892M 23915M
                                                 23938M 23988M 24011M 24034M 24056M 24125M 24307M 24314  24318M 24319M
                                                 24321  24321M 24421  24421M 24457  24487  24524  24553  24615  24665M
                                                 24674  24696M 24698  24698M 24809  24820  24853  24898  24957  24991
                                                 25036M 25045  25069  25117  25163M 25172  25196  25302  25337  25625M
                                                 25647M 25659M 25670  25670M 25786M 25808M 25820M 25831  25831M 25928M
                                                 25928  25942  25948  26076M 26076  26100  26129M 26129  26138M 26138
                                                 26220  26279  26363M 26556  26932  27264  27601  27630  27673  28055
                                                 28085  28129  28157  28184  28211  28239  28300  28326M 28327M 28328M
                                                 28336M 28343M 28347M 28349  28350  28390  28509  28539  28583  28611
                                                 28638  28665  28693  28754  28780M 28781M 28782M 28790M 28797M 28801M
                                                 28803  28804  28844  29120M 29120  29165M 29165  29207  29235  29271M
                                                 29311M 29311  29432  29488  29498M 29500  29501  29560  29812M 29812
                                                 29818  29862M 29862  29876  29885  29893  30033  30062  30082  30091
                                                 30120  30266  30329M 30331  30332  30585M 30727M 30727  30744  30753
                                                 30921M 30921  30938  30947  31046  31277  31319  31347  31367  31391
                                                 31484M 31484  31498  31509M 31528  31617  31648M 31704  31734  31744M
                                                 31748M 31821  31851  31895  31923  31935  31955  32057  32138  32165
                                                 32194M 32229  32263M 32342  32386  32413  32442M 32477  32666M 32675
                                                 32770  33636M 33690M 33786  33826  33872  33913  33922  33934  33991M
                                                 33991  33995M 33996M 34017  34025M 34027M 34072  34122  34225  34234M
                                                 34400M 34401M 34402M 34403  34433M 34434M 34444  34444M 34540M 34541M
                                                 34553  34569M 34583  34611  34614  34619M 34646  34646M 34835  34901
                                                 35080  35119M 35149M 35186M 35188  35188M 35304  35327M 35328  35477M
                                                 35521M 35521  35530  35545  35565M 35566M 35582M 35582  35587M 35603M
                                                 35603  35654M 35654  35921M 35922M 35923  35943M 35943  35944M 36052
                                                 36261M 36263  36264  36525  36930M 36931M 36932  36957M 36982M 37155M
                                                 37223M 37223  37248M 37248  37273M 37273  37292M 37317M 37317  37395M
                                                 37415M 37457M 37535M 37553M 37621M 37662M 37746M 37770M 37788M 37816M
                                                 37834M 37862M 37890M 37925M 37957M 37988M 38018M 38018  38065M 38194M
                                                 38194  38216M 38320  38321  38321  38321  38334M 38334  38359M 38359
                                                 38374M 38404M 38441M 38510M 38578M 38596M 38621M 38639M 38675M 38757M
                                                 38757  39067M 39067  39076  39085  39094M 39191  39278M 39278  39287
                                                 39296  39580  39580  39580  39851M 39852  39914M 39914
 R1            1 00000001 FFFFFFFF A   #     712  2197M  2198M  2204M 13579M 13598M 13686  13687M 13688  13935M 13936
                                                 13937  13939M 13940  13941  14000M 14022M 14022  14027  14042  14043
                                                 14044M 14046  14083  14084M 14105M 14127M 14127  14132  14147  14148
                                                 14149M 14151  14190  14191M 14336M 14579M 14612M 14613  14709  15332M
                                                 15669M 15684M 15747M 15758M 15762M 15772M 15877M 15894M 15927M 15989M
                                                 16052M 16053M 16055  16159M 16201M 16211M 16221  16325M 16404M 16602M
                                                 16631M 16665M 16772M 16956M 17004M 17013M 17424  17552M 17569M 17643M
                                                 17732M 17736M 17737M 17739M 17755M 17782  17790  17851M 17867M 18108M
                                                 18155M 18177M 18242M 18675M 18799  18894M 19043  19138M 19484M 19485
                                                 19486  19491M 19491  19492  19493  19518M 19695M 19696  19697  19702M
                                                 19702  19703  19704  19729M 19972  20084M 20085  20086  20091M 20091
                                                 20092  20093  20180M 20181  20182  20187M 20187  20188  20189  20492M
                                                 20502M 20739M 20750M 20803M 20968M 20983M 21128M 21191M 21356M 21356
1DISP     (DISP2193) (12:42) (15MAR04) Ordinary Symbol and Literal Cross Reference                                          Page  188
                                                 21369  21387M 21388M 21389M 21390  21420U 21427  21430  21536  21537
                                                 21539  21545  21546  21664  21673  21714  21715  21754  21772  22000M
                                                 22378M 22379  22380  22385M 22385  22386  22387  22751M 23189M 23208M
                                                 23254M 23281  23538M 23551M 23856M 23899M 23922M 23945M 23995M 24018M
                                                 24041M 24063M 24132M 24146M 24151M 24317  24318  24487M 24489M 24490M
                                                 24500U 24561  24659M 25030M 25157M 25214M 25215  25216  25221M 25221
                                                 25222  25223  25948M 25950M 25951M 25961U 27690M 27690  27702M 27702
                                                 28337M 28410M 28411  28412  28417M 28417  28418  28419  28791M 28864M
                                                 28865  28866  28871M 28871  28872  28873  29818M 30283M 30284  30285
                                                 30290M 30290  30291  30292  30947M 30949M 30950M 30960U 31063  31508M
                                                 31528M 31530M 31531M 31532M 31540U 31647M 31745M 31747  31935M 31986M
                                                 32076M 32076  32090  32177M 32178M 32179  32425M 32426M 32427  32660M
                                                 33967M 33992M 33994M 34026M 34027  34028M 34037M 34037  34226M 34432M
                                                 34444  34613  34618M 34646  34811M 34928  34952M 34952  34954  34954M
                                                 35120M 35123M 35188  35326  35327M 35329  35463M 35523M 35523  35530M
                                                 35531M 35532M 35533  35560M 35565  35786  35825  35854M 35866  35891M
                                                 36120M 36129  36407M 36415  36440M 36441  36442  36447M 36447  36448
                                                 36449  36532M 36664M 36745  36952M 36978M 37154M 37219M 37291M 37394M
                                                 37414M 37450M 37528M 37552M 37628M 37661M 37745M 37763M 37787M 37811M
                                                 37833M 37857M 37889M 37918M 37956M 37983M 38064M 38215M 38320  38321
                                                 38321  38321  38374M 38403M 38440M 38503M 38571M 38595M 38614M 38638M
                                                 38674M 39084  39295  39580  39580  39580  39657  39904M 39905M 39905
 R10          10 0000000A FFFFFFFF A   #     829 39863M 39863
 R11          11 0000000B FFFFFFFF A   #     842 39758M 39801M
 R12          12 0000000C FFFFFFFF A   #     855  2160
 R13          13 0000000D FFFFFFFF A   #     868 14514M 15086  15149M 18381M 34042  34046M
 R14          14 0000000E FFFFFFFF A   #     881  2135M 13694M 13699M 13701M 14307M 14328M 14464M 14505M 14540M 14682M
                                                 14821M 14849M 15001M 15029M 15056M 15116M 15150M 15233M 15238M 15244
                                                 15245M 15286M 15320M 15418M 15423M 15429  15430M 15744M 15748M 15759M
                                                 15763M 16847M 16848  16848M 16936M 17008M 17008  17010M 17017M 17017
                                                 17019M 17052M 17102M 17107M 17113  17114M 17143M 17148M 17154  17155M
                                                 17249M 17276M 17368M 17395M 17439M 18386M 18420M 18449M 18492M 18789M
                                                 18789  18790M 18792M 18929M 18929  18930M 18932M 19033M 19033  19034M
                                                 19036M 19173M 19173  19174M 19176M 19293M 19437M 19648M 20144M 20171M
                                                 20338  20444M 20480M 20540M 20714M 20841  21008M 21094M 21269M 21294
                                                 21379M 21811M 21840M 22211M 22258M 22285M 22914M 22916  22952M 22994M
                                                 23038M 23065M 23092M 23120M 23416M 23518M 23766M 23804M 24525M 24554M
                                                 24616M 24673M 24810M 24854M 24899M 24958M 24992M 25044M 25070M 25118M
                                                 25171M 25197M 25303M 25338M 26051  26161  26280M 26302  26557M 26933M
                                                 27265M 27602M 27631M 27674M 28056M 28086M 28130M 28158M 28185M 28212M
                                                 28240M 28301M 28315M 28319M 28327  28328M 28341M 28341  28343M 28391M
                                                 28510M 28540M 28584M 28612M 28639M 28666M 28694M 28755M 28769M 28773M
                                                 28781  28782M 28795M 28795  28797M 28845M 28926  29208M 29236M 29267M
                                                 29267  29270M 29433M 29489M 29561M 29886M 30034M 30063M 30092M 30121M
                                                 30267M 31047M 31278M 31320M 31348M 31392M 31457  31618M 31705M 31735M
                                                 31822M 31852M 31896M 31924M 31956M 32019  32058M 32139M 32166M 32230M
                                                 32304  32343M 32387M 32414M 32478M 32674M 32771M 33619  33673  33728
                                                 33787M 33827M 33873M 33914M 34045M 34073M 34123M 34836M 34902M 35081M
                                                 35305M 35417  35938M 35942M 35944M 36053M 36526M 37584M 37584  37585M
                                                 37597  39031  39077M 39192M 39252  39288M 39387  39472  39631B 39667
                                                 39793M 39794  39796M 39890M 39964M
 R15          15 0000000F FFFFFFFF A   #     894  2134  13856M 13857  13858  14229M 14229  14306  14327  14463  14470M
                                                 14471M 14471  14504  14539  14578M 14624M 14625  14681  14715M 14716M
                                                 14716  14744U 14820  14848  14882M 14884  14885  14886  14887M 14888
                                                 14902M 14903M 14903  14933  14951U 15000  15028  15055  15064M 15066
                                                 15067  15068  15069M 15070  15115  15285  15319  15537M 15538M 15550
                                                 15676M 15691M 15720M 15745M 15747  15755M 15758  15760M 15762  15779M
                                                 15780M 15781  15794M 15794  15795  15980M 15981  15996M 16051M 16054
                                                 16057M 16076M 16077  16150M 16151  16166M 16200M 16201  16202M 16204
1DISP     (DISP2193) (12:42) (15MAR04) Ordinary Symbol and Literal Cross Reference                                          Page  189
                                                 16219M 16220  16223M 16316M 16317  16332M 16453M 16454M 16454  16508M
                                                 16509M 16521  16637M 16671M 16679M 16680M 16681  16764M 16765M 16766
                                                 16861M 16862M 16862  16890U 16935  16948  16963M 17009M 17018M 17051
                                                 17169M 17170M 17171  17177M 17178M 17178  17199U 17205M 17223U 17248
                                                 17275  17283  17296M 17297M 17297  17318U 17324M 17342U 17367  17394
                                                 17402  17435M 17438  17467M 17736  17739  17829M 17830M 17830  17878M
                                                 17924M 17924  18115M 18162M 18188M 18211M 18249M 18385  18419  18448
                                                 18491  18682M 18687M 18785M 18791M 18793M 18803M 18804M 18805  18806M
                                                 18807M 18808  18827M 18827  18912M 18913M 18914  18915M 18916M 18917
                                                 18925M 18931M 18933M 18960M 18960  19029M 19035M 19037M 19044M 19045M
                                                 19046  19050M 19051M 19052  19071M 19071  19156M 19157M 19158  19159M
                                                 19160M 19161  19169M 19175M 19177M 19204M 19204  19292  19317M 19329
                                                 19343M 19343  19436  19463M 19464M 19465  19483M 19485  19486  19523M
                                                 19531M 19532M 19533  19647  19674M 19675M 19676  19694M 19696  19697
                                                 19808M 19810  19811  19812  19813M 19814  19835M 19843M 19844M 19845
                                                 19863M 19863  19877M 19878M 19879  19896M 19915M 19915  19989M 19997
                                                 20006M 20007M 20008  20083M 20085  20086  20095M 20108M 20118M 20119M
                                                 20120  20143  20170  20179M 20181  20182  20193M 20194M 20194  20215U
                                                 20255M 20255  20284M 20284  20379  20443  20479  20497M 20541  20542M
                                                 20543B 20583M 20609M 20637  20713  20744M 20804M 20807M 20932M 20945M
                                                 20946M 20947  20973M 20990M 20991M 20991  21007  21055M 21093  21182M
                                                 21183  21198M 21270  21271M 21272B 21278M 21337M 21378  21426  21427
                                                 21428  21429M 21430  21436M 21438  21444M 21445  21446M 21447  21463M
                                                 21481  21496U 21501M 21535  21536  21537  21538M 21539  21545M 21547
                                                 21553  21554M 21555  21556  21812  21813M 21814B 21841  21842M 21843B
                                                 22023M 22047M 22047  22210  22257  22284  22313M 22314M 22326  22335M
                                                 22345U 22377M 22379  22380  22389M 22397M 22398M 22399  22409M 22410M
                                                 22411  22423  22488M 22488  22752M 22808M 22808  22915M 22951  22993
                                                 23037  23064  23091  23119  23214M 23215M 23216  23231M 23232M 23233
                                                 23337M 23338M 23339  23381M 23383  23384  23385  23386M 23387  23415
                                                 23517  23557M 23565M 23566M 23567  23592M 23608M 23608  23617  23618
                                                 23619  23620M 23621  23629  23630  23631  23632M 23633  23676M 23676
                                                 23765  23779M 23780M 23781  23794  23803  23816M 23826U 23832M 23886M
                                                 23908M 23931M 23982M 24004M 24027M 24049M 24077M 24087U 24120M 24179M
                                                 24179  24326M 24326  24345M 24345  24470M 24524  24553  24615  24650M
                                                 24651  24666M 24674  24675M 24676B 24685M 24685  24722M 24722  24809
                                                 24853  24898  24957  24991  25021M 25022  25037M 25045  25046M 25047B
                                                 25069  25117  25148M 25149  25164M 25172  25173M 25174B 25196  25213M
                                                 25215  25216  25302  25337  25352M 25352  25376M 25376  25430  25431M
                                                 25441U 25469M 25475  25476M 25486U 25514M 25533M 25533  25694M 25694
                                                 25855M 25855  25916M 26002M 26002  26039M 26039  26202M 26226M 26279
                                                 26556  26647M 26647  26695  26696M 26706U 26734M 26740  26741M 26751U
                                                 26779M 26798M 26798  26932  26979M 26979  27027  27028M 27038U 27066M
                                                 27072  27073M 27083U 27111M 27130M 27130  27264  27312M 27312  27360
                                                 27361M 27371U 27399M 27405  27406M 27416U 27444M 27463M 27463  27601
                                                 27630  27673  27746M 27746  27797  27798M 27808U 27836M 27842  27843M
                                                 27853U 27881M 27900M 27900  28055  28063M 28064M 28085  28129  28157
                                                 28184  28211  28239  28300  28342M 28345M 28347  28348  28349  28350M
                                                 28351  28355M 28365U 28390  28409M 28411  28412  28509  28517M 28518M
                                                 28539  28583  28611  28638  28665  28693  28754  28796M 28799M 28801
                                                 28802  28803  28804M 28805  28809M 28819U 28844  28863M 28865  28866
                                                 28914M 28914  29207  29235  29268M 29269M 29432  29488  29496M 29498
                                                 29499  29500  29501M 29502  29560  29599M 29599  29647  29648M 29658U
                                                 29686M 29692  29693M 29703U 29731M 29750M 29750  29885  30033  30062
                                                 30091  30120  30163M 30164M 30165  30195M 30196M 30197  30200M 30201M
                                                 30202  30266  30282M 30284  30285  30327M 30329  30330  30331  30332M
                                                 30333  30371M 30371  30473M 30473  30627M 30627  30717M 30787M 30807M
                                                 30807  30840M 30840  30911M 30982M 31046  31098M 31099M 31100  31105M
                                                 31106M 31107  31119  31126  31135M 31135  31174M 31174  31277  31319
1DISP     (DISP2193) (12:42) (15MAR04) Ordinary Symbol and Literal Cross Reference                                          Page  190
                                                 31347  31391  31432M 31432  31517M 31522M 31617  31656M 31661M 31704
                                                 31712M 31713M 31734  31768M 31768  31821  31829M 31830M 31851  31895
                                                 31923  31934M 31955  31966M 31966  32036  32057  32096M 32138  32165
                                                 32195M 32229  32275M 32275  32321  32342  32386  32413  32443M 32477
                                                 32651M 32652  32667M 32675  32676M 32677B 32701M 32701  32770  32799M
                                                 32800M 32812  33082M 33082  33168M 33178U 33184M 33203M 33203  33231U
                                                 33589M 33589  33608M 33608  33786  33795  33826  33872  33913  33952M
                                                 33962U 34040  34041  34041  34041  34043M 34044M 34044  34045B 34049M
                                                 34072  34122  34150M 34160U 34225  34234M 34320  34320  34320  34398
                                                 34424M 34425M 34439M 34440M 34441  34448M 34448  34467M 34467  34559M
                                                 34567U 34589M 34589  34602  34613M 34614M 34615M 34635M 34650M 34650
                                                 34669M 34669  34813M 34814M 34835  34860M 34901  34941M 34942M 34943
                                                 34959M 34959  34978M 34978  35080  35088  35212M 35212  35304  35312
                                                 35366M 35366  35511M 35511  35851M 35851  35886M 35906M 35906  35946M
                                                 35947M 35950M 35951  35973M 35974  35975M 35976  35977M 35978  35979M
                                                 35980  35998M 36000  36001M 36003  36004M 36006  36007M 36009  36036M
                                                 36052  36060  36103M 36104  36114U 36163M 36164  36165M 36166  36208M
                                                 36225M 36230  36231  36259M 36261  36262  36263  36264M 36265  36271M
                                                 36272M 36273  36310M 36310  36405M 36439M 36441  36442  36525  36538M
                                                 36539M 36540  36545M 36545  36573M 36573  36696M 36696  36890M 36891M
                                                 36958M 37048M 37048  37148  37163M 37172M 37172  37202M 37219  37231M
                                                 37256M 37281M 37300M 37325M 37439M 37465M 37472M 37473M 37501M 37517
                                                 37528  37543M 37561M 37606M 37652M 37670M 37681M 37691U 37754M 37778M
                                                 37796M 37824M 37842M 37870M 37898M 37933M 37965M 37971M 37996M 38026M
                                                 38073M 38105M 38105  38202M 38224M 38248M 38248  38318  38342M 38367M
                                                 38394M 38412M 38449M 38518M 38525M 38526M 38526  38547U 38553M 38571
                                                 38586M 38604M 38629M 38647M 38683M 38707M 38765M 38795M 38795  38813M
                                                 38824  38911M 38911  38998M 38998  39076  39084M 39085M 39112M 39164M
                                                 39164  39182  39191  39222M 39222  39287  39295M 39296M 39314M 39363M
                                                 39363  39630M 39630  39656  39793M 39795  39836M 39845M 39845  39852M
                                                 39864M 39874U 39880M 39890B 39915M 39925U 39931M 39949U 39955M 39964B
 R2            2 00000002 FFFFFFFF A   #     725 13811M 13816  13829  13844U 13858M 13945M 13954M 13954  13961M 13976M
                                                 13976  13987M 14005M 14006  14044  14046M 14084  14110M 14111  14149
                                                 14151M 14191  14586M 14587M 14587  14608U 15086M 15087M 15087  15099M
                                                 15139  15148M 15148  15149  15159  15222M 15222  15238  15250  15256M
                                                 15257M 15257  15269M 15310  15328  15407M 15407  15423  15435  15832M
                                                 15840U 15855  15861M 15926  16270M 16429M 16470  17090M 17091M 17091
                                                 17107  17131M 17132M 17132  17148  17475M 17475  17667M 17667  17744M
                                                 17790  17791M 20340  20342  20342  20342  20379M 20397M 20397  20420
                                                 20451  20524  20843  20845  20845  20845  21101M 21141M 21141  21147
                                                 21148M 21148  21215  21216M 21228  21296  21298  21298  21298  21699M
                                                 21708M 21708  21748U 21853M 21853  21870M 22023  22670M 22671M 22671
                                                 22692U 23173M 23174M 23184U 23348M 23349M 23359U 24313M 24314M 24315
                                                 25599M 25600M 25600  25621U 25760M 25761M 25761  25782U 26053  26055
                                                 26055  26055  26082M 26094  26100  26101M 26102  26163  26165  26165
                                                 26165  26181M 26181  26196  26202  26226  26269M 26304  26306  26306
                                                 26306  26334M 26334  26348  26354  26368M 26485M 26486M 26486  26507U
                                                 26861M 26862M 26862  26883U 27193M 27194M 27194  27215U 27529M 27530M
                                                 27530  27551U 28278M 28279M 28315  28732M 28733M 28769  28928  28930
                                                 28930  28930  28974M 28975M 28975  28999U 29014  29053M 29054  29066M
                                                 29076U 29092  29112M 29113  29276M 29277M 29278  29290  29297  29305M
                                                 29306M 29307  29824M 29825M 29826  30294M 30295M 30305U 30753M 30755M
                                                 30756M 30766U 31013M 31069  31379M 31459  31461  31461  31461  31746M
                                                 31748M 32021  32023  32023  32023  32306  32308  32308  32308  32578M
                                                 32580M 32582M 32583M 32601M 32619M 32619  32834M 32846  32877  33151M
                                                 33242M 33281M 33281  33295  33368M 33369M 33384  33621  33623  33623
                                                 33623  33675  33677  33677  33677  33730  33732  33732  33732  33968M
                                                 33985U 34038M 34428M 34429M 34430  34934M 34935M 34936  35102M 35113M
                                                 35113  35119  35123  35127M 35130  35166M 35169  35179M 35182  35326M
1DISP     (DISP2193) (12:42) (15MAR04) Ordinary Symbol and Literal Cross Reference                                          Page  191
                                                 35328  35336M 35339  35401  35419  35461M 35462M 35463  35852M 35853M
                                                 35866  36015M 36061M 37904M 37918  37946M 37946  38318M 38419M 38429
                                                 38482U 38492M 38614  38691M 38691  38725  38813  38819M 38824M 39010
                                                 39033  39254  39256  39256  39256  39389  39391  39391  39391  39421M
                                                 39437M 39442B 39453M 39474  39476  39476  39476  39506M 39507B 39518M
 R3            3 00000003 FFFFFFFF A   #     738 13812M 13814M 13815M 13816M 13829  13879U 14027M 14060  14085M 14132M
                                                 14166  14192M 15159M 15160M 15161M 15176  15194M 15194  15200  15328M
                                                 15329M 15330M 15342  15379M 15379  15385  15806M 15814U 15927  16026M
                                                 16761M 16788  17477M 17485U 17594M 18784M 18798  19028M 19042  20425M
                                                 20426M 20426  20760M 20761  21076M 21077M 21077  21207M 21664M 21697
                                                 22156M 22169  22932M 22942M 22942  22968U 23333  23467  23481  23862M
                                                 23863M 23873U 23959M 23969U 26183M 26184M 26235M 26235  26243  26270M
                                                 26354M 29010M 29011  29013  29088M 29089  29091  29893M 29895M 29896M
                                                 29906U 29937  29965  30053  30191  31006M 31013  31023U 31029M 31030M
                                                 31030  31063  31381M 31747M 32174M 32206  32422M 32454  32578M 32633
                                                 33359M 34017M 34018M 34018  34019  34042M 34046  34398M 34413  34420
                                                 34914M 34929  35102M 35120  35128M 35129  35131M 35150M 35160  35167M
                                                 35168  35170M 35180M 35181  35183M 35329M 35330M 35337M 35338  35340M
                                                 35872M 35873M 36016M 36017  36030  36062M 36063M 36087M 36097U 36132
                                                 37697M 37722M 37722  37737U 38418M 38429  38693M 38693  38725
 R4            4 00000004 FFFFFFFF A   #     751 13705M 13720  13739  13742M 14750M 14776M 14776  14795U 14885  14886
                                                 14888  14889  14957M 14975U 15067  15068  15070  15071  16026  16232M
                                                 16232  16350M 16350  16396  16415M 17594  19389M 19390M 19390  19411U
                                                 19483  19484  19492  19493  19600M 19601M 19601  19622U 19694  19695
                                                 19703  19704  19764M 19765M 19765  19786U 19811  19812  19814  19815
                                                 20009M 20035U 20046M 20055  20061M 20083  20084  20092  20093  20095
                                                 20179  20180  20188  20189  20250  20422M 20601U 20643M 20657  20665M
                                                 20666M 20666  20739  20750  20803  20904M 20918  20924M 20968  20983
                                                 21663M 21796M 21796  21882M 21882  21946M 21946  21992  22011M 22155M
                                                 22156  22175M 22185U 22377  22378  22386  22387  22633M 22634M 22644U
                                                 22895M 22904M 22904  22914  22916M 22928U 22984  23384  23385  23387
                                                 23388  23618  23619  23621  23630  23631  23633  23634  23740U 24580M
                                                 24590U 24623  25003M 25004M 25004  25092U 25176M 25213  25214  25222
                                                 25223  26209M 26220  26513M 26531U 26889M 26907U 27221M 27239U 27557M
                                                 27576U 28094M 28104U 28348  28349  28351  28352  28354M 28398  28409
                                                 28410  28418  28419  28548M 28558U 28802  28803  28805  28806  28808M
                                                 28852  28863  28864  28872  28873  29007M 29008  29013M 29085M 29086
                                                 29091M 29148M 29149M 29149  29181U 29268  29453M 29463U 29499  29500
                                                 29502  29503  29985M 29986M 29986  30007U 30227M 30227  30242U 30282
                                                 30283  30291  30292  30330  30331  30333  30334  30526M 30541  30597M
                                                 31228M 31238  31253U 31257M 31310  31581M 31591U 31859M 31869U 31934
                                                 33343M 33353U 33795M 33803U 34403M 34422  34424  34429  34433  34812M
                                                 34813  34927  34935  35129M 35130M 35131  35168M 35169M 35170  35181M
                                                 35182M 35183  35338M 35339M 35340  36017M 36018M 36030  36072M 36082U
                                                 36134  36258M 36262  36263  36265  36266  36421M 36431U 36439  36440
                                                 36448  36449  36500  37173M 37183  37198U 37203M 37334M 37359  37377U
                                                 37383M 37450  39668M 39676U 39794  39796
 R5            5 00000005 FFFFFFFF A   #     764 13613M 13613  13650  13651M 13670  13672M 13673  13699  13706M 13735U
                                                 13741M 13756M 13809  13811  13900M 15806M 16233M 16249U 16263M 16264M
                                                 16264  16415  16539M 16547U 16742U 16744M 17477M 17606M 17622U 17636M
                                                 17637M 17637  18018M 18019M 18019  18043U 19361M 19362M 19362  19383U
                                                 19552M 19553M 19553  19576  19594U 19749M 19750M 19750  19972M 19982U
                                                 20249  20412U 20493  20802  21336  21390M 21673M 21683U 21883M 21899U
                                                 21913M 21914M 21914  22011  22157M 22169  22175  22218M 22579M 22595U
                                                 22609M 22610M 22610  22895M 22915  23001M 23011U 24457M 24696  24820M
                                                 24844  24862M 24863M 24873U 24917  24948  24999  25255M 25266  25317
                                                 26182M 26183  26196  26262M 26263  26590M 26591M 26601U 27610M 27621
                                                 27638M 27648U 28019M 28020M 28030U 28064  28473M 28474M 28484U 28518
                                                 29006M 29006  29014M 29039M 29039  29084M 29084  29092M 29123M 29123
1DISP     (DISP2193) (12:42) (15MAR04) Ordinary Symbol and Literal Cross Reference                                          Page  192
                                                 29141U 29198  29399M 29400M 29400  29449U 29911M 29921U 30527M 30556U
                                                 30596M 30989M 30999U 31258M 31268M 31268  31294U 31667M 31668M 31678U
                                                 31713  31784M 31785M 31795U 31830  32036M 32112U 32321M 32360U 32642M
                                                 32643M 32644  32833M 32833  32852M 32853M 32857  32859M 32860M 32883M
                                                 32884M 32888  32890M 32891M 32907M 32907  32913  32920M 32920  32942M
                                                 32942  32953M 32975M 32975  32986M 32986  33050M 33881M 33882M 33890U
                                                 35825M 35835U 35852  35854  36460M 36506  36625M 36643  36662M 36855M
                                                 36856M 36866U 36890  36997  37148M 37346M 37346  38033M 38053M 38053
                                                 38472M 38472  38652M 38664  39795M
 R6            6 00000006 FFFFFFFF A   #     777 13614M 13628  13646U 13652M 13757M 13771  13789U 13848  13884  13914M
                                                 14042M 14078U 14086M 14086  14147M 14184U 14193M 14193  17503M 17513U
                                                 17530  17536M 18002M 18012U 22293M 22294M 22304U 28001M 28009  28269
                                                 28278  28354  28455M 28463  28723  28732  28808  31542M 31986  34397M
                                                 34423  34602M 34612  34810M 34918  35088M 35098U 35312M 35322U 35786M
                                                 35796U 35953  36207  36256  36453M 36460  36470U 36484M 36485M 36485
                                                 36500  36643M 36658U 36745M 36755U 37022  39667M 39987B
 R7            7 00000007 FFFFFFFF A   #     790  2127M  2127   2128B  2140B
 R8            8 00000008 FFFFFFFF A   #     803 14513M 14514  18380M 18381  20340  20341M 20342  20342  20342  20843
                                                 20844M 20845  20845  20845  21296  21297M 21298  21298  21298  22124U
                                                 26053  26054M 26055  26055  26055  26163  26164M 26165  26165  26165
                                                 26304  26305M 26306  26306  26306  28928  28929M 28930  28930  28930
                                                 31459  31460M 31461  31461  31461  32021  32022M 32023  32023  32023
                                                 32306  32307M 32308  32308  32308  33621  33622M 33623  33623  33623
                                                 33675  33676M 33677  33677  33677  33730  33731M 33732  33732  33732
                                                 35401  35419  35420M 37125U 39010  39033  39034M 39254  39255M 39256
                                                 39256  39256  39389  39390M 39391  39391  39391  39453M 39474  39475M
                                                 39476  39476  39476  39518M
 R9            9 00000009 FFFFFFFF A   #     816 34040  34041  34041  34041  34049M 34320  34320  34320  39657M 39665U
 SALCLOCK      1 00000000 00000000 A   T   10125 10125
 SARDDONE      2 00003984 00000001     H   32278 32097B
 SAREAD        4 00003884 00000001     I   32019 32018  34298
 SAWRITE       4 00003992 00000001     I   32304 22833  32303
 SDSNQSZ       1 0000002C FFFFFFEC A   U    6115  6116   6117
 SEARCH        2 00000716 00000001     H   15792 14389B 17785B 17794B 17960B 18270B
 SEG           1 00000000 00000005     T   18295 18295  34295  39554
 SEGCR         1 00000000 0000002B     T   39556 39556
 SEGDC         1 00000000 0000002A     T   39555 39555
 SEGHX         1 00000000 0000002C     T   39558 39558
 SEGMARK       1 00000000 0000002F     T   39570 39570
 SEGT          1 00000000 00000017     T   18324 18324
 SEGWR         1 00000000 00000006     T   18296 18296  18724
 SETNXT        4 0000097A 00000001     I   16687 16564B
 SETRSG        1 00000000 0000000E     T   18310 18310
 SHUTDOWN      1 00000000 00000014     T   18320 18320  18725
 SIO           4 00003D8A 00000001     I   33728 32197B 32445B
 SIOBASE       2 00003DA6 00000001     H   33764 33653U 33707U 34308
 SIOCOM        2 00003DA6 00000001     H   33769 33655B 33709B
 SLICECHK      2 00003A82 00000001     H   32542 26410  32538
 SPR          13 0000000D 00000001 A   #    1119 13468  13471  13472  13473M 13473  14221M 14225  14227  18752  18755
                                                 18756  18757M 18757  18819M 18823  18825  18862  18865  18866  18867M
                                                 18867  18952M 18956  18958  18996  18999  19000  19001M 19001  19063M
                                                 19067  19069  19106  19109  19110  19111M 19111  19196M 19200  19202
                                                 19240  19243  19244  19245M 19245  19907M 19911  19913  19940  19943
                                                 19944  19945M 19945  20276M 20280  20282  21620  21623  21624  21625M
                                                 21625  22039M 22043  22045  22089  22092  22094  22095M 22095  22480M
                                                 22484  22486  22507  22510  22511  22512M 22512  22800M 22804  22806
                                                 22860  22863  22864  22865M 22865  23668M 23672  23674  23702  23705
                                                 23706  23707M 23707  24171M 24175  24177  24271  24274  24275  24276M
                                                 24276  24337M 24341  24343  24368  24371  24372  24373M 24373  24714M
1DISP     (DISP2193) (12:42) (15MAR04) Ordinary Symbol and Literal Cross Reference                                          Page  193
                                                 24718  24720  24746  24749  24750  24751M 24751  25368M 25372  25374
                                                 25400  25403  25404  25405M 25405  25525M 25529  25531  25554  25557
                                                 25558  25559M 25559  25686M 25690  25692  25715  25718  25719  25720M
                                                 25720  25847M 25851  25853  25887  25890  25891  25892M 25892  26031M
                                                 26035  26037  26440  26443  26444  26445M 26445  26639M 26643  26645
                                                 26665  26668  26669  26670M 26670  26790M 26794  26796  26816  26819
                                                 26820  26821M 26821  26971M 26975  26977  26997  27000  27001  27002M
                                                 27002  27122M 27126  27128  27148  27151  27152  27153M 27153  27304M
                                                 27308  27310  27330  27333  27334  27335M 27335  27455M 27459  27461
                                                 27484  27487  27488  27489M 27489  27738M 27742  27744  27767  27770
                                                 27771  27772M 27772  27892M 27896  27898  27921  27924  27925  27926M
                                                 27926  28906M 28910  28912  29354  29357  29358  29359M 29359  29591M
                                                 29595  29597  29617  29620  29621  29622M 29622  29742M 29746  29748
                                                 29772  29775  29776  29777M 29777  30363M 30367  30369  30389  30392
                                                 30393  30394M 30394  30465M 30469  30471  30494  30497  30498  30499M
                                                 30499  30619M 30623  30625  30688  30691  30692  30693M 30693  30832M
                                                 30836  30838  30868  30871  30872  30873M 30873  31166M 31170  31172
                                                 31196  31199  31200  31201M 31201  31424M 31428  31430  32548  32551
                                                 32552  32553M 32553  32693M 32697  32699  32723  32726  32727  32728M
                                                 32728  33074M 33078  33080  33103  33106  33107  33108M 33108  33600M
                                                 33604  33606  34368  34371  34372  34373M 34373  34459M 34463  34465
                                                 34511  34514  34515  34516M 34516  34661M 34665  34667  34781  34784
                                                 34785  34786M 34786  34970M 34974  34976  35031  35034  35035  35036M
                                                 35036  35204M 35208  35210  35255  35258  35259  35260M 35260  35358M
                                                 35362  35364  35731  35734  35735  35736M 35736  36302M 36306  36308
                                                 36355  36358  36359  36360M 36360  36565M 36569  36571  36593  36596
                                                 36597  36598M 36598  36688M 36692  36694  36716  36719  36720  36721M
                                                 36721  37040M 37044  37046  37090  37093  37095  37096M 37096  38097M
                                                 38101  38103  38120  38123  38124  38125M 38125  38240M 38244  38246
                                                 38270  38273  38274  38275M 38275  38787M 38791  38793  38844  38847
                                                 38848  38849M 38849  38903M 38907  38909  38931  38934  38935  38936M
                                                 38936  38990M 38994  38996
 SRB           4 00000000 FFFFFFDB     A   11304 36082U
 SRBASCB       4 00000008 FFFFFFDB     A   11308 36104M
 SRBEND        4 0000002C FFFFFFDB     F   11370 11371
 SRBID         4 00000000 FFFFFFDB     C   11305 36102M
 SRBPARM       4 0000001C FFFFFFDB     A   11326 36132M
 SRBPASID      2 0000000E FFFFFFDB     H   11313 36129M 36169
 SRBPKF        1 00000024 FFFFFFDB     B   11333 36131M
 SRBPTCB       4 00000010 FFFFFFDB     A   11314 36130M
 SRBSECT       1 00000000 FFFFFFDB     J   11303 11371
 SRBSIZE       4 0000002C FFFFFFDB A   U   11371 13208
 SRCHLOOP      2 00000726 00000001     H   15818 16026B
 STARTUP       2 00000298 00000001     I   14271 14268
 STKCHUNK      1 00000010 00000001 A   U    1176 14005  18285  18286  18836  18969
 STKOVER       1 00000000 00000003     T   18284 18284
 TBREAK        1 00000000 00000009     T   18300 18300
 TCB           1 00000020 FFFFFFE2     U    8956  9655
 TCBAE         4 000000BC FFFFFFE2     A    9200  9203
 TCBDARPN      1 00000040 FFFFFFE2 A   U    9246  9248
 TCBDARTN      1 00000080 FFFFFFE2 A   U    9243  9245
 TCBFIX        1 00000000 FFFFFFE2     J    8944  8951
 TCBMNLEN      1 00000158 FFFFFFE2 A   U    9655  9700
 TCBPXLEN      1 00000020 FFFFFFE2 A   U    8951  9700
 TCBRD         4 000000B8 FFFFFFE2     A    9195  9199
 TCBXTNT2      1 00000000 FFFFFFE1     J    9660  9698
 TCBX2LEN      1 00000020 FFFFFFE1 A   U    9698  9700
 TERMINIT      1 00000000 00000016     T   18322 18322
 TIMELOW       4 00004600 00000001     A   35713 35545
1DISP     (DISP2193) (12:42) (15MAR04) Ordinary Symbol and Literal Cross Reference                                          Page  194
 TIMESUP       2 000045E8 00000001     I   35683 14406  35555
 TIMEVAL       4 000045FC 00000001     A   35712 14407  35531  35554
 TIMRPOST      2 000007BE 00000001     H   16061 16078B 16116B 16175B
 TRC           1 00000000 00000000 A   T    2156  2156
 TRCELOCK      1 00000000 00000000 A   T   10149 10149
 TRYRUN        4 0000098A 00000001     I   16744 16584B
 TTYFLAG       1 00000004 FFFFFFEA     R    6244  6248
 TTYMAX#       1 00000006 FFFFFFEA A   U    6300  6301
 TTYTFLAG      1 00000005 FFFFFFEA     R    6254  6258   6263   6268   6273   6278   6283   6288
 UCE         100 00000000 FFFFFFD3     J   13052 14608U
 UCECOMP      16 0000000C FFFFFFD3     C   13029 13032  13032
 UCEFLAG       1 00000008 FFFFFFD3     R   13019 13023
 UCEWCPU       4 00000044 FFFFFFD3     F   13038 14612  14613M
 UNFIX         4 000050A0 00000001     I   39252 39251  39553
 UNLOCK        2 00004F86 00000001     H   38925 38921
 UPPTBL        1 00000000 00000000 A   T    2219  2219
 USEBLOCK      1 0000000F FFFFFFE5     X    7711 33242
 USEHSPFL      1 00000004 FFFFFFE5     X    7683 18080M
 USERCVT     863 00000000 FFFFFFE5     J    7755 18043U 18058  33231U
 VFIXLOCK      1 00000000 00000000 A   T   10135 10135
 VPAGLOCK      1 00000000 00000000 A   T   10140 10140
 VTAMDISP      1 00000000 0000000D     T   18305 18305
 WAITECB       2 00001952 00000001     H   21614 21610
 WAITLOOP      2 00000BCA 00000001     H   17489 17594B
 WAR           8 00000008 00000001 A   #    1042 13472M 14221  18756M 18819  18866M 18952  19000M 19063  19110M 19196
                                                 19244M 19907  19944M 20276  21624M 22039  22094M 22480  22511M 22800
                                                 22864M 23668  23706M 24171  24275M 24321  24337  24372M 24421  24698
                                                 24714  24750M 25368  25404M 25525  25558M 25670  25686  25719M 25831
                                                 25847  25891M 26031  26444M 26639  26669M 26790  26820M 26971  27001M
                                                 27122  27152M 27304  27334M 27455  27488M 27738  27771M 27892  27925M
                                                 28906  29358M 29591  29621M 29742  29776M 30363  30393M 30465  30498M
                                                 30619  30692M 30832  30872M 31166  31200M 31424  32552M 32693  32727M
                                                 33074  33107M 33600  34372M 34444  34459  34515M 34646  34661  34785M
                                                 34954  34970  35035M 35188  35204  35259M 35358  35441U 35735M 36302
                                                 36359M 36565  36597M 36688  36720M 37040  37095M 38097  38124M 38240
                                                 38274M 38787  38848M 38903  38935M 38990  39055U
 WBUFERR       2 00004D72 00000001     H   38114 39557
 WBUFFMT      20 00000000 FFFFFFCB     C   37067 37628  37905  37970M 37972M 37983  37988
 WBUFWA       20 00000000 FFFFFFCB     J   37074 37096  37125U 38101  38103  38104
 WECB         16 00000000 FFFFFFD2     J   13082 16233  16249U 16374M 16402M 16404  17606  17622U 21668  21683U 21694M
                                                 21694  21695M 21748U 21765U 21883  21899U 21970M 21998M 22000
 WECBCHK       2 00000840 00000001     H   16230 16409B
 WECBECBP      4 0000000C FFFFFFD2     A   13075 16270  17643  21697M
 WECBJCBP      4 00000008 FFFFFFD2     A   13074 16287  21696M 21932
 WECBLINK      4 00000004 FFFFFFD2     A   13073 16233  16263  16357  16374M 16374  16389M 16389  16403M 17606  17636
                                                 21754M 21883  21913  21953  21970M 21970  21985M 21985  21999M
 WTEFREE       2 000019F0 00000001     H   21880 22005B
 WTOSG         1 00000000 00000000 A   T    2116  2116
 WYLDISP       1 00000000 00000001     J     992   994   1011   1024   1037   1050   1062   1075   1088   1101   1114
                                                  1127   1140   2400   2484   6224   6336  13057  13083  13220  13285
                                                 13375  13403  13450
 XA            1 80000000 00000001 A   U    1166 39548
 =A((HPCHUNK*1024)-1)
               4 00000E24 00000001     A   18289 15329
 =A((STKCHUNK*1024)-1)
               4 00000E14 00000001     A   18285 15160
 =A(-(HPCHUNK*1024))
               4 00000E28 00000001     A   18290 15330
 =A(-(STKCHUNK*1024))
1DISP     (DISP2193) (12:42) (15MAR04) Ordinary Symbol and Literal Cross Reference                                          Page  195
               4 00000E18 00000001     A   18286 15161
 =A(-8)        4 00005198 00000001     A   39537 35462
 =A(ALLOC)
               4 00000E7C 00000001     A   18311 16574
 =A(ALLOCPCB)
               4 00002794 00000001     A   26406 24567
 =A(BASE)      4 00000308 00000001     A   14408 14365
 =A(BASE)      4 00000E00 00000001     A   18280 14439  15474
 =A(BASE)      4 00001038 00000001     A   18719 18365
 =A(CALCPGC)
               4 00003FE0 00000001     A   34301 32825
 =A(CHECKOUT)
               4 00000E74 00000001     A   18309 16530
 =A(CPTEMPP#*2)
               4 000027AC 00000001     A   26412 26094
 =A(CVPCMAX#)
               4 00001C4C 00000001     A   22831 22423
 =A(CVPSZ)
               4 00003FD0 00000001     A   34297 31745
 =A(DUMMYRET)
               4 000051C0 00000001     A   39547 36208
 =A(FIX)       4 00000280 00000001     A   14251 13587  13605
 =A(FIX)       4 000051A0 00000001     A   39539 35841
 =A(FREEPCB)
               4 00003FE8 00000001     A   34303 32994
 =A(FREEPOOL)
               4 00001140 00000001     A   18971 18936
 =A(FREEPOOL)
               4 00001228 00000001     A   19215 19180
 =A(FREEPOOL)
               4 000043A0 00000001     A   34989 34863
 =A(GETCOREX)
               4 000042AC 00000001     A   34753 34638
 =A(GETCPU)
               4 00000E04 00000001     A   18281 14552  17422
 =A(GETPCB)
               4 00000284 00000001     A   14252 13984
 =A(GETPCB)
               4 00003FE4 00000001     A   34302 32950
 =A(GETPOOL)
               4 000010C8 00000001     A   18838 18796
 =A(GETPOOL)
               4 000011B0 00000001     A   19082 19040
 =A(GETPOOL)
               4 000042A0 00000001     A   34750 34605
 =A(GETSTACK)
               4 00000E20 00000001     A   18288 15203
 =A(HEAPGET)
               4 00000E30 00000001     A   18292 15388
 =A(HPCHUNK*1024)
               4 000011A8 00000001     A   19080 19034
 =A(HPCHUNK*1024)
               4 00001220 00000001     A   19213 19174
 =A(IOFIX)
               4 00000278 00000001     A   14249 13579
 =A(IOFIXEND-IOFIX)
               4 0000027C 00000001     A   14250 13584
 =A(IOTERM)
               4 000051BC 00000001     A   39546 36170
1DISP     (DISP2193) (12:42) (15MAR04) Ordinary Symbol and Literal Cross Reference                                          Page  196
 =A(L'CELLBLOK)
               4 00000288 00000001     A   14253 14028  14133
 =A(L'CELLBLOK)
               4 000010C4 00000001     A   18837 18792
 =A(L'CELLBLOK)
               4 0000113C 00000001     A   18970 18932
 =A(L'CELLBLOK)
               4 000011AC 00000001     A   19081 19036
 =A(L'CELLBLOK)
               4 00001224 00000001     A   19214 19176
 =A(L'PBUF)
               4 000051A4 00000001     A   39540 35853
 =A(L'PT)      4 00003484 00000001     A   30643 29270
 =A(PALLOC)
               4 00002790 00000001     A   26405 24455
 =A(PDEBUG)
               4 00000E08 00000001     A   18282 14652
 =A(PFREEA)
               4 00003488 00000001     A   30644 29689
 =A(PGETA)
               4 000027A8 00000001     A   26411 25472
 =A(PIODONE)
               4 00000E6C 00000001     A   18307 16499
 =A(PMARKA)
               4 00003468 00000001     A   30636 26737
 =A(PREAD)
               4 00001528 00000001     A   20294 19526  19838
 =A(PWRITE)
               4 0000152C 00000001     A   20295 20098
 =A(PWRITE)
               4 00001C48 00000001     A   22830 22392
 =A(RELHEAP)
               4 00000E2C 00000001     A   18291 15365
 =A(RELHEAP)
               4 00001048 00000001     A   18723 18608
 =A(RELSTACK)
               4 00000E1C 00000001     A   18287 15184
 =A(RELSTACK)
               4 00001044 00000001     A   18722 18573
 =A(RSCBASE)
               4 00001C28 00000001     A   22822 20867  21320
 =A(SAREAD)
               4 00003FD4 00000001     A   34298 31938
 =A(SAWRITE)
               4 00001C54 00000001     A   22833 22755
 =A(SIOBASE)
               4 00003FFC 00000001     A   34308 33641  33695
 =A(SLICECHK)
               4 000027A4 00000001     A   26410 25344
 =A(STKCHUNK*1024)
               4 000010C0 00000001     A   18836 18790
 =A(STKCHUNK*1024)
               4 00001138 00000001     A   18969 18930
 =A(TIMESUP)
               4 00000300 00000001     A   14406 14335
 =A(TIMEVAL)
               4 00000304 00000001     A   14407 14336
 =A(UNFIX)
               4 000051D8 00000001     A   39553 36985
1DISP     (DISP2193) (12:42) (15MAR04) Ordinary Symbol and Literal Cross Reference                                          Page  197
 =A(WBUFERR)
               4 000051E8 00000001     A   39557 37382  37680  37903
 =A(X'FF000000')
               4 000051A8 00000001     A   39541 35873
 =A(X'05')
               4 00004000 00000001     A   34309 33934
 =A(X'40000000')
               4 000053E4 00000001     A   40019 39851
 =A(X'7FFFFFFF')
               4 000027A0 00000001     A   26409 25255
 =A(X'7FFFFFFF')
               4 00003480 00000001     A   30642 29007  29085
 =A(X'7FFFF800')
               4 000051B4 00000001     A   39544 36062
 =A(X'80000000')
               4 00002788 00000001     A   26403 24319  25659  25820
 =A(X'80000000')
               4 0000523C 00000001     A   39572 39437
 =A(X'81000000')
               4 00000E90 00000001     A   18316 17009  17018
 =A(X'81000000')
               4 0000347C 00000001     A   30641 28342  28796
 =A(XA)        4 000051C4 00000001     A   39548 36225
 =A(0)         4 00000290 00000001     A   14255 14060  14166
 =A(1)         4 00000E98 00000001     A   18318 17776
 =A(1)         4 00002128 00000001     A   24223 23275
 =A(1)         4 00005208 00000001     A   39563 37606
 =A(10)        4 00000E38 00000001     A   18294 15550
 =A(10)        4 00002134 00000001     A   24226 23794
 =A(1000)      4 00005230 00000001     A   39569 38664
 =A(120)       4 000051F0 00000001     A   39559 37517
 =A(2)         4 00000E70 00000001     A   18308 16521
 =A(3)         4 00005204 00000001     A   39562 37597
 =A(4)         4 00003FF8 00000001     A   34307 33295
 =A(5*100)
               4 000051C8 00000001     A   39549 36816
 =A(8)         4 00005238 00000001     A   39571 39182
 =AL2(CVPIOSZ)
               2 000034A4 00000001     R   30652 28319  28773
 =AL2(CVPSZ)
               2 000027B8 00000001     R   26415 24307
 =AL2(CVPSZ)
               2 000034A6 00000001     R   30653 28337  28791  29825
 =AL2(CVSIZE)
               2 00000294 00000001     R   14256 13602
 =AL2(L'PBUF)
               2 00005240 00000001     R   39573 35942  36982
 =AL2(L'PBUFBUF)
               2 00005244 00000001     R   39575 36018
 =AL2(L'PT)
               2 00000296 00000001     R   14257 13672  13687  13815
 =AL2(L'PT)
               2 0000400A 00000001     R   34312 31531
 =AL2(L'RSCGROUP)
               2 00001C5E 00000001     R   22837 21388
 =AL2(PBUFEND-PBUF)
               2 000034A2 00000001     R   30651 28063  28517
 =AL2(PBUFEND-PBUF)
               2 0000400E 00000001     R   34314 31712  31829
1DISP     (DISP2193) (12:42) (15MAR04) Ordinary Symbol and Literal Cross Reference                                          Page  198
 =AL2(PBUFEND-PBUF)
               2 00005242 00000001     R   39574 35947  36891
 =AL2(PBUFUSER-PBUF)
               2 00001C60 00000001     R   22838 22294  22634
 =AL2(PBUFUSER-PBUF)
               2 00002140 00000001     R   24229 23174  23349  23863
 =AL2(PBUFUSER-PBUF)
               2 000034A0 00000001     R   30650 26591  27638  28020  28279  28474  28733  30295
 =AL2(PBUFUSER-PBUF)
               2 0000400C 00000001     R   34313 31668  31785  33882
 =AL2(PBUFUSER-PBUF)
               2 00005246 00000001     R   39576 36856
 =AL2(RSCQJCB)
               2 00001C58 00000001     R   22834 20420  20524
 =AL2(RSCWRTN)
               2 00001C5A 00000001     R   22835 20451
 =AL2(10)      2 00004012 00000001     R   34316 33500  33524
 =AL2(2+1)
               2 000027BA 00000001     R   26416 26184
 =AL2(2)       2 000027BC 00000001     R   26417 26262  26270
 =AL2(8000)
               2 00004016 00000001     R   34318 33549  33573
 =C'  @'       3 000052B8 00000001     C   39592 37889
 =C' ('        2 00005264 00000001     C   39583 38595
 =C' ***TRUNCATED***'
              16 00005188 00000001     C   39536 38674
 =C' '         1 000052B5 00000001     C   39589 37394  37787
 =C' minutes    '
              12 00005210 00000001     C   39565 37661
 =C' seconds    '
              12 000051F4 00000001     C   39560 37552
 =C' Empty'
               6 0000525E 00000001     C   39582 38440
 =C'.'         1 000052B7 00000001     C   39591 37833
 =C'(...more...)'
              12 00005224 00000001     C   39568 38064
 =C'***** '
               6 00000EBE 00000001     C   18328 18155
 =C'*'         1 000052B6 00000001     C   39590 37414
 =C')'         1 000052E9 00000001     C   39595 38638
 =C': '        2 00005258 00000001     C   39579 37956
 =C':'         1 000052E8 00000001     C   39594 38403
 =C'checkpointing disabled.'
              23 00000EC7 00000001     C   18330 15684
 =C'Buffer queue changed; command output stopped.'
              45 000052BB 00000001     C   39593 38215
 =C'Can''t free PCB'
              14 00005248 00000001     C   39577 37017
 =C'CELLBLOK'
               8 00004480 00000001     C   35221 35071
 =C'CELLBLOK'
               8 00004500 00000001     C   35375 35295
 =C'CP'        2 00000EB4 00000001     C   18325 14530  17042
 =C'CP'        2 00001054 00000001     C   18726 18439
 =C'FECB'      4 00000E54 00000001     C   18301 16402
 =C'FEND'      4 000043A4 00000001     C   34990 34919
 =C'FRM'       3 000043AF 00000001     C   34994 34917
 =C'I/O error on checkpoint record, '
              32 00000DE0 00000001     C   18279 15669
1DISP     (DISP2193) (12:42) (15MAR04) Ordinary Symbol and Literal Cross Reference                                          Page  199
 =C'I/O in progress on specified page. '
              35 0000403E 00000001     C   34323 31647
 =C'Invalid page number specified. '
              31 0000401C 00000001     C   34321 31508
 =C'Line'      4 0000521C 00000001     C   39566 37745
 =C'MEM'       3 0000410E 00000001     C   34481 34419
 =C'MEM'       3 000043AC 00000001     C   34993 34892
 =C'MEND'      4 00004104 00000001     C   34477 34426
 =C'MEND'      4 000042A8 00000001     C   34752 34616
 =C'MEND'      4 00004398 00000001     C   34987 34826
 =C'Number of empty buffers: '
              25 00005277 00000001     C   39587 37154
 =C'Owned buffer queue (in snatch order):'
              37 00005290 00000001     C   39588 37291
 =C'OBUF'      4 000051D4 00000001     C   39552 36941
 =C'OENDBUF'
               7 00005270 00000001     C   39586 36942
 =C'OPCB'      4 000051CC 00000001     C   39550 36938
 =C'PBUF'      4 00001C50 00000001     C   22832 22659
 =C'PBUF'      4 00003474 00000001     C   30639 27664  28046  28291  28500  28745
 =C'PBUF'      4 00003FCC 00000001     C   34296 31695  31812  33904
 =C'PBUF'      4 000051B0 00000001     C   39543 35945  36881
 =C'PCB'       3 00000EC4 00000001     C   18329 14811  14991  17239  17358
 =C'PCB'       3 00001530 00000001     C   20296 19427  19638  20134
 =C'PCB'       3 00001C62 00000001     C   22839 22201  22627
 =C'PCB'       3 00002142 00000001     C   24230 23028  23756
 =C'PCB'       3 000027BE 00000001     C   26418 24606  25108
 =C'PCB'       3 000034A8 00000001     C   30654 26547  26923  27255  27592  28120  28574  29479  30024
 =C'PCB'       3 0000403B 00000001     C   34322 31608  31886  32129  32377  33817
 =C'PCB'       3 00005266 00000001     C   39584 36771
 =C'PCB'       3 000053E8 00000001     C   40020 39701
 =C'PENDBUF'
               7 000034AB 00000001     C   30655 28076  28530
 =C'PENDBUF'
               7 00004061 00000001     C   34324 31725  31842
 =C'PENDBUF'
               7 00005269 00000001     C   39585 36902
 =C'POOL'      4 000042A4 00000001     C   34751 34610
 =C'POOL'      4 0000439C 00000001     C   34988 34854
 =C'Ready.'
               6 00000EB8 00000001     C   18327 18108
 =C'Reloading'
               9 00001056 00000001     C   18727 18675
 =C'System word is set.'
              19 00000EDE 00000001     C   18331 18242
 =C'SCIP'      4 00000EAC 00000001     C   18323 18058
 =C'SCIP'      4 00003FF4 00000001     C   34306 33216
 =C'SRB '      4 000051B8 00000001     C   39545 36102
 =C'TEXT'      4 00002124 00000001     C   24222 23201
 =C'WECB'      4 00001C38 00000001     C   22826 21695
 =C'XECB'      4 00001C3C 00000001     C   22827 21998
 =CL4'PCB'
               4 0000519C 00000001     C   39538 35807
 =CL8'PENDBUF'
               8 00005180 00000001     C   39535 35948
 =F'-1'        4 00000E4C 00000001     F   18299 16087  16403  17021
 =F'-1'        4 00001C40 00000001     F   22828 21999
 =F'-1'        4 00002120 00000001     F   24221 23135
 =F'-1'        4 000051D0 00000001     F   39551 36939  36940
1DISP     (DISP2193) (12:42) (15MAR04) Ordinary Symbol and Literal Cross Reference                                          Page  200
 =F'-8'        4 00004100 00000001     F   34476 34401
 =F'-8'        4 00004298 00000001     F   34748 34541
 =F'0'         4 00000E68 00000001     F   18306 16490
 =F'1'         4 00004004 00000001     F   34310 33996
 =F'1024'      4 0000028C 00000001     F   14254 14045  14150
 =F'1024'      4 0000429C 00000001     F   34749 34553
 =F'4'         4 00000E94 00000001     F   18317 17737
 =F'4096'      4 000051AC 00000001     F   39542 35891
 =F'6'         4 00005200 00000001     F   39561 37585
 =H'-1'        2 00005256 00000001     H   39578 37501
 =H'-4'        2 00004008 00000001     H   34311 30717  30911
 =H'10'        2 00004014 00000001     H   34317 33507  33531
 =H'12'        2 000043A8 00000001     H   34991 34811
 =H'16'        2 0000410A 00000001     H   34479 34402  34434
 =H'16'        2 000042B2 00000001     H   34755 34569  34619
 =H'4'         2 0000410C 00000001     H   34480 34425
 =H'4'         2 000042B4 00000001     H   34756 34615
 =H'4'         2 000043AA 00000001     H   34992 34814
 =H'5'         2 00004010 00000001     H   34315 32884
 =H'7'         2 00004108 00000001     H   34478 34400
 =H'7'         2 000042B0 00000001     H   34754 34540
 =H'8000'      2 00004018 00000001     H   34319 33556  33580
 =V(BTD)       4 00000E9C 00000001     V   18319 17854
 =V(BTD)       4 00002138 00000001     V   24227 23859  24135
 =V(BTR)       4 0000520C 00000001     V   39564 37631
 =V(BTX)       4 0000213C 00000001     V   24228 23902  23925  23948  23998  24021  24044  24066
 =V(CV)        4 000053E0 00000001     V   40018 39679
 =V(DEBDISP)
               4 00000E34 00000001     V   18293 15516
 =V(DISPATCH)
               4 00001C1C 00000001     V   22819 20542  21271  21813  21842
 =V(DISPATCH)
               4 0000279C 00000001     V   26408 24675  25046  25173
 =V(DISPATCH)
               4 00003FDC 00000001     V   34300 32676
 =V(DOTTBL)
               4 00005220 00000001     V   39567 37971
 =V(DQJCB)
               4 00000E80 00000001     V   18312 16605  16775
 =V(DQJCB)
               4 00001C2C 00000001     V   22823 21131
 =V(DQJCB)
               4 0000212C 00000001     V   24224 23541
 =V(DQRSC)
               4 00001C20 00000001     V   22820 20742  20971
 =V(FREECORE)
               4 00000E58 00000001     V   18302 16407
 =V(FREECORE)
               4 00001C44 00000001     V   22829 22003
 =V(FREECORE)
               4 0000348C 00000001     V   30645 29821
 =V(FREECP)
               4 00001040 00000001     V   18721 18549
 =V(GETCORE)
               4 00001C34 00000001     V   22825 21671
 =V(GETCORE)
               4 00002784 00000001     V   26402 24310
 =V(GETCP)
               4 00000E88 00000001     V   18314 16843
1DISP     (DISP2193) (12:42) (15MAR04) Ordinary Symbol and Literal Cross Reference                                          Page  201
 =V(GETRSC)
               4 00000E48 00000001     V   18298 15999  16169  16335  16640  16674  16966
 =V(GETRSC)
               4 00001C30 00000001     V   22824 21201
 =V(GETRSC)
               4 00002130 00000001     V   24225 23560
 =V(GETRSC)
               4 00002798 00000001     V   26407 24669  25040  25167
 =V(GETRSC)
               4 00003FD8 00000001     V   34299 32670
 =V(INITCMDS)
               4 00000EA4 00000001     V   18321 17958
 =V(INITUSER)
               4 00000E8C 00000001     V   18315 16847
 =V(LOCALTOD)
               4 00000E0C 00000001     V   18283 14707
 =V(MGETNEW)
               4 0000278C 00000001     V   26404 24418
 =V(MILPOST)
               4 00000E44 00000001     V   18297 15801
 =V(NPATPOST)
               4 00000E60 00000001     V   18304 16441
 =V(PATHPOST)
               4 00000E5C 00000001     V   18303 16437
 =V(PFREEA)
               4 00002780 00000001     V   26401 24304  24448  24969  25280  26323
 =V(PFREEA)
               4 00003490 00000001     V   30646 29948  30441
 =V(PFREEB)
               4 000027B4 00000001     V   26414 26329
 =V(PFREEB)
               4 00003494 00000001     V   30647 29976
 =V(PGETNEW)
               4 00003FEC 00000001     V   34304 33009
 =V(PJUNK)
               4 000027B0 00000001     V   26413 26124  26366
 =V(PJUNK)
               4 0000349C 00000001     V   30649 30449  30588
 =V(PJUNKA)
               4 00003FF0 00000001     V   34305 33027
 =V(PJUNKALL)
               4 0000103C 00000001     V   18720 18504
 =V(PLOCKA)
               4 0000346C 00000001     V   30637 27069
 =V(PNUMA)
               4 00003498 00000001     V   30648 30435
 =V(PTYPEA)
               4 00003478 00000001     V   30640 27839
 =V(PUNLOCKA)
               4 00003470 00000001     V   30638 27402
 =V(QJCB)      4 00001C18 00000001     V   22818 20510
 =V(QRSC)      4 00001C24 00000001     V   22821 20753  20986
 =V(RUNRSG)
               4 00000E84 00000001     V   18313 16744
 =V(SEG)       4 00000E3C 00000001     V   18295 15679  15694  18165
 =V(SEG)       4 00003FC8 00000001     V   34295 31520  31659
 =V(SEG)       4 000051DC 00000001     V   39554 37166  37442  37564  37655  37673  37757  37799  37827  37845  37873
                                                 37901  37968  37999  38227  38397  38415  38452  38521  38607  38650
                                                 38686
1DISP     (DISP2193) (12:42) (15MAR04) Ordinary Symbol and Literal Cross Reference                                          Page  202
 =V(SEGCR)
               4 000051E4 00000001     V   39556 37259  37284  37303  37328  38029  38076  38205  38345  38370  38768
 =V(SEGDC)
               4 000051E0 00000001     V   39555 37234  37546  37781
 =V(SEGHX)
               4 000051EC 00000001     V   39558 37468  37936  38589  38632
 =V(SEGMARK)
               4 00005234 00000001     V   39570 38710
 =V(SEGT)      4 00000EB0 00000001     V   18324 18191
 =V(SEGWR)
               4 00000E40 00000001     V   18296 15723  17881  18118  18214  18252
 =V(SEGWR)
               4 0000104C 00000001     V   18724 18685
 =V(SETRSG)
               4 00000E78 00000001     V   18310 16539
 =V(SHUTDOWN)
               4 00000EA0 00000001     V   18320 17927
 =V(SHUTDOWN)
               4 00001050 00000001     V   18725 18690
 =V(STKOVER)
               4 00000E10 00000001     V   18284 15150
 =V(TBREAK)
               4 00000E50 00000001     V   18300 16114
 =V(TERMINIT)
               4 00000EA8 00000001     V   18322 17984
 =V(VTAMDISP)
               4 00000E64 00000001     V   18305 16463
 =Y((R1+1-(R0)+16*((R0)/(R1+1))/((R0)/(R1+1)))*4)
               2 0000525A 00000001     Y   39580 38373
 =Y((R15+1-(R9)+16*((R9)/(R15+1))/((R9)/(R15+1)))*4)
               2 0000401A 00000001     Y   34320 34048
 =Y((8+3)/4*4)
               2 00000EB6 00000001     Y   18326 17784
 =Y(CVRLAST)
               2 00001C5C 00000001     Y   22836 21369
 =Y(PCBQF-PCB)
               2 0000525C 00000001     Y   39581 38419

1DISP     (DISP2193) (12:42) (15MAR04) Macro and Copy Code Source Summary                                                   Page  203
- Con Source                                        Volume    Members                        HLASM R4.0  2004/03/15 12.42
0     PRIMARY INPUT                                           CSECT    DROP     END      EX       GETPT    LTORG    POP
                                                              PRINT    PUSH     QBUFOFF  QBUFON   START    USING
   L1 WYL.GS.WYL.WYLBUR.MACLIB                      SYSB05    AINFO    BASE     BTD      BTR      BTX      CELLBLOK
                                                              COLINFO  COMMENT  CONTROL  CP       CPLOCAL  CV
                                                              CVLOCAL  DQJCB    DQRSC    FAIL     GETRSC   JCB
                                                              KAPUT    PAGEQ    PAUSE    PFCB     PFLIP    PFREE
                                                              PJUNK    PNUM     QJCB     QRSC     RG       RSCGROUP
                                                              RSCHDR   RUNQ     SCANCB   SETUP    TCCR     TCR      THEX
                                                              TMARK    TNUM     TSEG     TTYPE    UCE      VLTORG
                                                              XENTER   XEXIT    XSA      XTRACE   XWTO
   L2 WYL.GG.SYS.MACLIB                             SYSB05    $BC      $BFLKUP  $BV      $CCLKUP  $CRS     $CSS     $L
                                                              $LA      $LBLAD   $LEXP    $LOR     $NIL     $OIL     $REL
                                                              $RGLKUP  $USLKUP  ACALL    ADL      BEGIN    CEIL
                                                              CLEAR    COMPROC  CSECT    DATA     DECR     DEFCC    DROP
                                                              ELSE     END      EX       EXIT     FLAG     FLIP
                                                              FLOOR    GEN      HIBAL    IDENT    IF       INCR
                                                              LABEL    LC       LCALL    LCM      LOOP     LS       LT
                                                              LTH      LTORG    L2       MOVEL    PEND     POP
                                                              PRETURN  PRINT    PROC     PUSH     QLTORG   RECORD   REG
                                                              REGS     SDL      SET      SETMSG   START    ST3
                                                              UNTIL    USING    VCALL    WHILE    WITH     XPROC    ZOT
   L3 SYS3.IS.MACLIB                                SYSB05    SEG      SEGCB    SEGCR    SEGDC    SEGDEF   SEGHX
                                                              SEGLD    SEGMARK  SEGT     SEGWR    SIB      SYSDEFN  XPOP
                                                              XPUSH
   L4 SYS3.MACLIB                                   SYSB02    QSNAP    SCIPCVT  USERCVT
   L5 SYS1.MACLIB                                   MVSBR9    ABEND    CPUTIMER CVT      DCB      DCBD     EXCP
                                                              FREEMAIN GETMAIN  IECDIOCM IHAASCB  IHAFRRS  IHAPSA
                                                              IHAPSAE  IHASRB   IHBERMAC IHBINNRA IHBINNRR IHBPSINR
                                                              IHB01    IKJTCB   MODESET  PGFIX    PGFREE   PGSER
                                                              SETLOCK  SPLEVEL  STIMER   SYSSTATE TTIMER   WAIT     WTO
   L6 SYS1.MODGEN                                   MVSBR9    IECDIOSB STARTIO

1DISP     (DISP2193) (12:42) (15MAR04) Dsect Cross Reference                                                                Page  204
-Dsect     Length      Id       Defn                                                         HLASM R4.0  2004/03/15 12.42
0$$$@R0   00000000  FFFFFFFE     705
 $$$@R1   00000000  FFFFFFFD     718
 $$$@R10  00000000  FFFFFFF4     835
 $$$@R11  00000000  FFFFFFF3     848
 $$$@R12  00000000  FFFFFFF2     861
 $$$@R13  00000000  FFFFFFF1     874
 $$$@R14  00000000  FFFFFFF0     887
 $$$@R15  00000000  FFFFFFEF     900
 $$$@R2   00000000  FFFFFFFC     731
 $$$@R3   00000000  FFFFFFFB     744
 $$$@R4   00000000  FFFFFFFA     757
 $$$@R5   00000000  FFFFFFF9     770
 $$$@R6   00000000  FFFFFFF8     783
 $$$@R7   00000000  FFFFFFF7     796
 $$$@R8   00000000  FFFFFFF6     809
 $$$@R9   00000000  FFFFFFF5     822
 $$$RCELLBLOK
          00000028  FFFFFFD5   12693
 $$$RCKWA 00000004  FFFFFFCD   22061
 $$$RCP   00001000  FFFFFFEC    2489
 $$$RCV   00000FB0  FFFFFFEE    1214
 $$$RDEV  0000000C  FFFFFFEB    4703
 $$$RFIXWA
          00000024  FFFFFFCA   39003
 $$$RGCPUWA
          00000030  FFFFFFCC   35394
 $$$RJCB  000000D0  FFFFFFD4   12722
 $$$RNSCNCB
          000000B0  FFFFFFED    2410
 $$$RPBUF 00004FF0  FFFFFFD0   13228
 $$$RPCB  000000D4  FFFFFFD1   13088
 $$$RPFCB 000000A4  FFFFFFCF   13290
 $$$RPT   00000010  FFFFFFCE   13380
 $$$RRESOURCE
          00000018  FFFFFFD6   12647
 $$$RRSCGROUP
          0000003C  FFFFFFD7   12586
 $$$RTTYPE
          0000010C  FFFFFFEA    6234
 $$$RUCE  00000064  FFFFFFD3   13002
 $$$RUSERCVT
          0000035F  FFFFFFE5    7672
 $$$RWBUFWA
          00000014  FFFFFFCB   37061
 $$$RWECB 00000010  FFFFFFD2   13066
 ASCB     00000180  FFFFFFE3    8169
 CVT      00000500  FFFFFFE9    6533
 CVTVSTGX 00000050  FFFFFFE8    7553
 CVTXTNT1 0000000C  FFFFFFE7    7592
 CVTXTNT2 00000084  FFFFFFE6    7600
 FRRS     00000258  FFFFFFDF   11131
 FRRSENTR 00000020  FFFFFFDD   11152
 FRRSXENT 00000010  FFFFFFDC   11179
 FRRSXSTK 00000100  FFFFFFDE   11150
 HIBAL    00000000  FFFFFFFF     691
1DISP     (DISP2193) (12:42) (15MAR04) Dsect Cross Reference                                                                Page  205
 IHADCB   00000034  FFFFFFE4    7764
 IOCOM    00000158  FFFFFFDA   11597
 IOCOMW   00000044  FFFFFFD9   11772
 IOSB     0000006C  FFFFFFD8   12069
 PSA      00001000  FFFFFFE0    9809
 SRBSECT  0000002C  FFFFFFDB   11303
 TCBFIX   00000178  FFFFFFE2    8944
 TCBXTNT2 00000020  FFFFFFE1    9660

1DISP     (DISP2193) (12:42) (15MAR04) Using Map                                                                            Page  206
-                                                                                            HLASM R4.0  2004/03/15 12.42
   Stmt  -----Location----- Action ----------------Using----------------- Reg Max    Last  Label and Using Text
           Count      Id           Type          Value    Range     Id        Disp   Stmt
0   922  00000000  FFFFFFFF USING  ORDINARY    00000000 00001000 FFFFFFEF  15 000          @R15,15
    926  00000000  FFFFFFFF USING  ORDINARY    00000000 00001000 FFFFFFF0  14 002    2205  @R14,14
    930  00000000  FFFFFFFF USING  ORDINARY    00000000 00001000 FFFFFFF1  13 000   39472  @R13,13
    934  00000000  FFFFFFFF USING  ORDINARY    00000000 00001000 FFFFFFF2  12 000          @R12,12
    938  00000000  FFFFFFFF USING  ORDINARY    00000000 00001000 FFFFFFF3  11 000          @R11,11
    942  00000000  FFFFFFFF USING  ORDINARY    00000000 00001000 FFFFFFF4  10 000          @R10,10
    946  00000000  FFFFFFFF USING  ORDINARY    00000000 00001000 FFFFFFF5   9 000          @R9,9
    950  00000000  FFFFFFFF USING  ORDINARY    00000000 00001000 FFFFFFF6   8 000          @R8,8
    954  00000000  FFFFFFFF USING  ORDINARY    00000000 00001000 FFFFFFF7   7 000          @R7,7
    958  00000000  FFFFFFFF USING  ORDINARY    00000000 00001000 FFFFFFF8   6 000          @R6,6
    962  00000000  FFFFFFFF USING  ORDINARY    00000000 00001000 FFFFFFF9   5 000          @R5,5
    966  00000000  FFFFFFFF USING  ORDINARY    00000000 00001000 FFFFFFFA   4 001   13742  @R4,4
    970  00000000  FFFFFFFF USING  ORDINARY    00000000 00001000 FFFFFFFB   3 000          @R3,3
    974  00000000  FFFFFFFF USING  ORDINARY    00000000 00001000 FFFFFFFC   2 000          @R2,2
    978  00000000  FFFFFFFF USING  ORDINARY    00000000 00001000 FFFFFFFD   1 001   17792  @R1,1
    982  00000000  FFFFFFFF USING  ORDINARY    00000000 00001000 FFFFFFFE   0 000          @R0,0
    983  00000000  FFFFFFFF DROP                                            0              0
   1153  00000000  00000001 USING  ORDINARY    00000000 00001000 FFFFFFD4   6 000          JCB,JCBR
   1198  00000017  00000001 USING  ORDINARY    00000000 00001000 FFFFFFEC  11 D5A   38776  CP,CPR
   1207  00000017  00000001 USING  ORDINARY    00000000 00001000 FFFFFFEE  12 E28   39500  CV,CVR
   9807  00000020  FFFFFFE1 USING  ORDINARY    00000000 00001000 FFFFFFE0   0 000          PSA,0
  11021  00001000  FFFFFFE0 USING  ORDINARY    00000000 00001000 FFFFFFFE   0 000          @R0,0
  11022  00001000  FFFFFFE0 DROP                                            0              0
  13488  00000032  00000001 USING  ORDINARY    00000032 00001000 00000001   7 264   14209  $$$44B,7
  13643  0000008A  00000001 USING  ORDINARY    00000000 00001000 FFFFFFF8   6 000          @R6,6
  13646  0000008A  00000001 USING  ORDINARY    00000000 00001000 FFFFFFCF   6 0A4   13652  PFCB,R6
  13662  00000096  00000001 USING  ORDINARY    00000000 00001000 FFFFFFF8   6 000          @R6,6
  13665  00000096  00000001 USING  ORDINARY    00000000 00001000 FFFFFFD4   6 000          JCB,6
  13735  000000DA  00000001 USING  ORDINARY    00000000 00001000 FFFFFFCE   5 010   13741  PT,R5
  13748  000000E6  00000001 USING  ORDINARY    00000000 00001000 FFFFFFF9   5 000          @R5,5
  13786  000000FA  00000001 USING  ORDINARY    00000000 00001000 FFFFFFF8   6 000          @R6,6
  13789  000000FA  00000001 USING  ORDINARY    00000000 00001000 FFFFFFCF   6 0A4   13914  PFCB,R6
  13844  0000011C  00000001 USING  ORDINARY    00000000 00001000 FFFFFFCE   2 010   13857  PT,R2
  13864  00000130  00000001 USING  ORDINARY    00000000 00001000 FFFFFFFC   2 000          @R2,2
  13879  00000134  00000001 USING  ORDINARY    00000000 00001000 FFFFFFCE   3 010   13900  PT,R3
  13907  00000148  00000001 USING  ORDINARY    00000000 00001000 FFFFFFFB   3 000          @R3,3
  13924  0000014C  00000001 USING  ORDINARY    00000000 00001000 FFFFFFF8   6 000          @R6,6
  13927  0000014C  00000001 USING  ORDINARY    00000000 00001000 FFFFFFD4   6 000          JCB,6
  14075  000001C8  00000001 USING  ORDINARY    00000000 00001000 FFFFFFF8   6 000          @R6,6
  14078  000001C8  00000001 USING  ORDINARY    00000000 00001000 FFFFFFD5   6 01C   14083  CELLBLOK,R6
  14096  000001DA  00000001 USING  ORDINARY    00000000 00001000 FFFFFFF8   6 000          @R6,6
  14099  000001DA  00000001 USING  ORDINARY    00000000 00001000 FFFFFFD4   6 000          JCB,6
  14181  00000228  00000001 USING  ORDINARY    00000000 00001000 FFFFFFF8   6 000          @R6,6
  14184  00000228  00000001 USING  ORDINARY    00000000 00001000 FFFFFFD5   6 020   14190  CELLBLOK,R6
  14203  0000023E  00000001 USING  ORDINARY    00000000 00001000 FFFFFFF8   6 000          @R6,6
  14206  0000023E  00000001 USING  ORDINARY    00000000 00001000 FFFFFFD4   6 07C   17296  JCB,6
  14217  00000242  00000001 USING  ORDINARY    00000000 00001000 FFFFFFF7   7 000          @R7,7
  14281  0000029A  00000001 USING  ORDINARY    0000029A 00001000 00000001   7 06E   14365  $$$68B,7
  14374  000002F8  00000001 USING  ORDINARY    00000000 00001000 FFFFFFF7   7 000          @R7,7
  14377  000002F8  00000001 USING  ORDINARY    0000030C 00001000 00000001   7 40A   14389  BASE,7
  14396  00000300  00000001 USING  ORDINARY    00000000 00001000 FFFFFFF7   7 000          @R7,7
  14433  0000030E  00000001 USING  ORDINARY    0000030E 00001000 00000001   7 AF2   14439  $$$71B,7
  14448  00000312  00000001 USING  ORDINARY    00000000 00001000 FFFFFFF7   7 000          @R7,7
1DISP     (DISP2193) (12:42) (15MAR04) Using Map                                                                            Page  207
  14451  00000312  00000001 USING  ORDINARY    0000030C 00001000 00000001   7 BB8   15408  BASE,7
  14608  000003A6  00000001 USING  ORDINARY    00000000 00001000 FFFFFFD3   2 044   14613  UCE,R2
  14619  000003AE  00000001 USING  ORDINARY    00000000 00001000 FFFFFFFC   2 000          @R2,2
  14744  0000040E  00000001 USING  ORDINARY    00000000 00001000 FFFFFFCE  15 00C   14750  PT,R15
  14757  00000412  00000001 USING  ORDINARY    00000000 00001000 FFFFFFEF  15 000          @R15,15
  14795  00000418  00000001 USING  ORDINARY    00000000 00001000 FFFFFFD1   4 01D   14872  PCB,R4
  14895  0000047E  00000001 USING  ORDINARY    00000000 00001000 FFFFFFFA   4 000          @R4,4
  14951  00000496  00000001 USING  ORDINARY    00000000 00001000 FFFFFFCE  15 00C   14957  PT,R15
  14964  0000049A  00000001 USING  ORDINARY    00000000 00001000 FFFFFFEF  15 000          @R15,15
  14975  0000049A  00000001 USING  ORDINARY    00000000 00001000 FFFFFFD1   4 01D   15046  PCB,R4
  15077  00000518  00000001 USING  ORDINARY    00000000 00001000 FFFFFFFA   4 004   16374  @R4,4
  15465  00000636  00000001 USING  ORDINARY    00000000 00001000 FFFFFFF7   7 000          @R7,7
  15468  00000636  00000001 USING  ORDINARY    00000636 00001000 00000001   7 7CA   15474  $$$104B,7
  15483  0000063A  00000001 USING  ORDINARY    00000000 00001000 FFFFFFF7   7 000          @R7,7
  15486  0000063A  00000001 USING  ORDINARY    0000030C 00001000 00000001   7 C04   18270  BASE,7
  15752  000006E4  00000001 DROP                                           15              15
  15756  000006EA  00000001 USING  ORDINARY    00000000 00001000 FFFFFFEF  15 000          @R15,15
  15814  00000726  00000001 USING  ORDINARY    00000000 00001000 FFFFFFD7   3 03B   15913  RSCGROUP,R3
  15840  00000732  00000001 USING  ORDINARY    00000000 00001000 FFFFFFD6   2 014   15951  RESOURCE,R2
  16033  000007A6  00000001 USING  ORDINARY    00000000 00001000 FFFFFFFB   3 000          @R3,3
  16040  000007A6  00000001 USING  ORDINARY    00000000 00001000 FFFFFFFC   2 004   17791  @R2,2
  16249  00000846  00000001 USING  ORDINARY    00000000 00001000 FFFFFFD2   5 00C   16404  WECB,R5
  16421  000008C4  00000001 USING  ORDINARY    00000000 00001000 FFFFFFF9   5 000          @R5,5
  16547  0000091A  00000001 USING  ORDINARY    00000000 00001000 FFFFFFD7   5 03B   16719  RSCGROUP,R5
  16730  0000098A  00000001 USING  ORDINARY    00000000 00001000 FFFFFFF9   5 000          @R5,5
  16742  0000098A  00000001 USING  ORDINARY    00000000 00001000 FFFFFFD7   5 03B   16801  RSCGROUP,R5
  16890  00000A04  00000001 USING  ORDINARY    00000000 00001000 FFFFFFD4  15 060   16918  JCB,R15
  16977  00000A48  00000001 USING  ORDINARY    00000000 00001000 FFFFFFEF  15 000          @R15,15
  17199  00000AF2  00000001 USING  ORDINARY    00000000 00001000 FFFFFFCE  15 00C   17205  PT,R15
  17212  00000AF6  00000001 USING  ORDINARY    00000000 00001000 FFFFFFEF  15 000          @R15,15
  17223  00000AF6  00000001 USING  ORDINARY    00000000 00001000 FFFFFFD1  15 01D   17266  PCB,R15
  17289  00000B3E  00000001 USING  ORDINARY    00000000 00001000 FFFFFFEF  15 000          @R15,15
  17318  00000B48  00000001 USING  ORDINARY    00000000 00001000 FFFFFFCE  15 00C   17324  PT,R15
  17331  00000B4C  00000001 USING  ORDINARY    00000000 00001000 FFFFFFEF  15 000          @R15,15
  17342  00000B4C  00000001 USING  ORDINARY    00000000 00001000 FFFFFFD1  15 01D   17385  PCB,R15
  17408  00000B94  00000001 USING  ORDINARY    00000000 00001000 FFFFFFEF  15 000   17790  @R15,15
  17454  00000BBC  00000001 USING  ORDINARY    00000000 00001000 FFFFFFF9   5 000          @R5,5
  17465  00000BBC  00000001 USING  ORDINARY    00000000 00001000 FFFFFFF8   6 000          @R6,6
  17485  00000BCA  00000001 USING  ORDINARY    00000000 00001000 FFFFFFD7   3 03B   17530  RSCGROUP,R3
  17513  00000BD6  00000001 USING  ORDINARY    00000000 00001000 FFFFFFD6   6 014   17569  RESOURCE,R6
  17590  00000C02  00000001 USING  ORDINARY    00000000 00001000 FFFFFFF8   6 000          @R6,6
  17601  00000C06  00000001 USING  ORDINARY    00000000 00001000 FFFFFFFB   3 000          @R3,3
  17622  00000C0A  00000001 USING  ORDINARY    00000000 00001000 FFFFFFD2   5 00C   17643  WECB,R5
  17651  00000C1C  00000001 USING  ORDINARY    00000000 00001000 FFFFFFF9   5 000          @R5,5
  18012  00000D2E  00000001 USING  ORDINARY    00000000 00001000 FFFFFFE9   6 0CC   18018  CVT,R6
  18043  00000D38  00000001 USING  ORDINARY    00000000 00001000 FFFFFFE5   5 004   18080  USERCVT,R5
  18093  00000D66  00000001 USING  ORDINARY    00000000 00001000 FFFFFFF9   5 000          @R5,5
  18098  00000D66  00000001 USING  ORDINARY    00000000 00001000 FFFFFFF8   6 000          @R6,6
  18356  00000F16  00000001 USING  ORDINARY    00000000 00001000 FFFFFFF7   7 000          @R7,7
  18359  00000F16  00000001 USING  ORDINARY    00000F16 00001000 00000001   7 122   18365  $$$192B,7
  18374  00000F1A  00000001 USING  ORDINARY    00000000 00001000 FFFFFFF7   7 000          @R7,7
  18377  00000F1A  00000001 USING  ORDINARY    0000030C 00001000 00000001   7 D4A   18702  BASE,7
  18397  00000F38  00000001 USING  ORDINARY    00000000 00001000 FFFFFFD4   6 062   21268  JCB,JCBR
  18709  00001032  00000001 USING  ORDINARY    00000000 00001000 FFFFFFF7   7 000          @R7,7
  18772  0000107A  00000001 USING  ORDINARY    0000107A 00001000 00000001   7 04E   18796  $$$202B,7
  18815  000010B2  00000001 USING  ORDINARY    00000000 00001000 FFFFFFF7   7 000          @R7,7
  18882  000010E6  00000001 USING  ORDINARY    000010E6 00001000 00000001   7 05A   18936  $$$205B,7
  18948  00001126  00000001 USING  ORDINARY    00000000 00001000 FFFFFFF7   7 000          @R7,7
  19016  0000115E  00000001 USING  ORDINARY    0000115E 00001000 00000001   7 052   19040  $$$209B,7
1DISP     (DISP2193) (12:42) (15MAR04) Using Map                                                                            Page  208
  19059  00001196  00000001 USING  ORDINARY    00000000 00001000 FFFFFFF7   7 000          @R7,7
  19126  000011CE  00000001 USING  ORDINARY    000011CE 00001000 00000001   7 05A   19180  $$$212B,7
  19192  0000120E  00000001 USING  ORDINARY    00000000 00001000 FFFFFFF7   7 000          @R7,7
  19260  00001246  00000001 USING  ORDINARY    00001246 00001000 00000001   7 2EA   19866  $$$216B,7
  19383  0000128C  00000001 USING  ORDINARY    00000000 00001000 FFFFFFCE   5 00C   19523  PT,R5
  19411  00001296  00000001 USING  ORDINARY    00000000 00001000 FFFFFFD1   4 01D   19453  PCB,R4
  19503  000012EA  00000001 USING  ORDINARY    00000000 00001000 FFFFFFFA   4 000          @R4,4
  19543  00001310  00000001 USING  ORDINARY    00000000 00001000 FFFFFFF9   5 000          @R5,5
  19594  00001322  00000001 USING  ORDINARY    00000000 00001000 FFFFFFCE   5 00C   19835  PT,R5
  19622  0000132C  00000001 USING  ORDINARY    00000000 00001000 FFFFFFD1   4 01D   19664  PCB,R4
  19714  00001380  00000001 USING  ORDINARY    00000000 00001000 FFFFFFFA   4 000          @R4,4
  19786  000013A4  00000001 USING  ORDINARY    00000000 00001000 FFFFFFD1   4 01D   19799  PCB,R4
  19821  000013C6  00000001 USING  ORDINARY    00000000 00001000 FFFFFFFA   4 000          @R4,4
  19855  000013E0  00000001 USING  ORDINARY    00000000 00001000 FFFFFFF9   5 000          @R5,5
  19903  00001400  00000001 USING  ORDINARY    00000000 00001000 FFFFFFF7   7 000          @R7,7
  19960  00001428  00000001 USING  ORDINARY    00001428 00001000 00000001   7 108   20201  $$$239B,7
  19982  0000142A  00000001 USING  ORDINARY    00000000 00001000 FFFFFFCE   5 00C   20250  PT,R5
  20035  0000144A  00000001 USING  ORDINARY    00000000 00001000 FFFFFFD1   4 020   20249  PCB,R4
  20215  00001502  00000001 USING  ORDINARY    00000000 00001000 FFFFFFCE  15 00C   20227  PT,R15
  20234  00001508  00000001 USING  ORDINARY    00000000 00001000 FFFFFFEF  15 000          @R15,15
  20262  00001518  00000001 USING  ORDINARY    00000000 00001000 FFFFFFFA   4 000          @R4,4
  20267  00001518  00000001 USING  ORDINARY    00000000 00001000 FFFFFFF9   5 000          @R5,5
  20272  00001518  00000001 USING  ORDINARY    00000000 00001000 FFFFFFF7   7 000          @R7,7
  20355  00001544  00000001 USING  ORDINARY    00001544 00001000 00000001   7 716   20808  $$$249B,7
  20412  0000155E  00000001 USING  ORDINARY    00000000 00001000 FFFFFFD7   5 03B   21481  RSCGROUP,R5
  20601  00001644  00000001 USING  ORDINARY    00000000 00001000 FFFFFFD6   4 014   21044  RESOURCE,R4
  20858  00001712  00000001 USING  ORDINARY    00000000 00001000 FFFFFFF7   7 000          @R7,7
  20861  00001712  00000001 USING  ORDINARY    00001712 00001000 00000001   7 516   20867  $$$264B,7
  20876  00001716  00000001 USING  ORDINARY    00000000 00001000 FFFFFFF7   7 000          @R7,7
  20879  00001716  00000001 USING  ORDINARY    00001544 00001000 00000001   7 6EC   21279  RSCBASE,7
  21311  0000187A  00000001 USING  ORDINARY    00000000 00001000 FFFFFFF7   7 000          @R7,7
  21314  0000187A  00000001 USING  ORDINARY    0000187A 00001000 00000001   7 3AE   21320  $$$279B,7
  21329  0000187E  00000001 USING  ORDINARY    00000000 00001000 FFFFFFF7   7 000          @R7,7
  21332  0000187E  00000001 USING  ORDINARY    00001544 00001000 00000001   7 71A   21514  RSCBASE,7
  21417  000018CE  00000001 USING  ORDINARY    00000000 00001000 FFFFFFF8   6 000          @R6,6
  21420  000018CE  00000001 USING  ORDINARY    00000000 00001000 FFFFFFD4   1 004   21450  JCB,R1
  21458  00001904  00000001 USING  ORDINARY    00000000 00001000 FFFFFFFD   1 008   23233  @R1,1
  21496  00001912  00000001 USING  ORDINARY    00000000 00001000 FFFFFFD4  15 000   21501  JCB,R15
  21509  0000191A  00000001 USING  ORDINARY    00000000 00001000 FFFFFFEF  15 000          @R15,15
  21527  00001920  00000001 USING  ORDINARY    00000000 00001000 FFFFFFD4   6 000          JCB,6
  21572  00001952  00000001 USING  ORDINARY    00000000 00001000 FFFFFFFA   4 004   21970  @R4,4
  21579  00001952  00000001 USING  ORDINARY    00000000 00001000 FFFFFFF9   5 000          @R5,5
  21586  00001952  00000001 USING  ORDINARY    00000000 00001000 FFFFFFF8   6 000          @R6,6
  21592  00001952  00000001 USING  ORDINARY    00000000 00001000 FFFFFFF7   7 000          @R7,7
  21640  0000196C  00000001 USING  ORDINARY    0000196C 00001000 00000001   7 2D8   22020  $$$286B,7
  21658  00001970  00000001 USING  ORDINARY    00000000 00001000 FFFFFFD4   6 063   21863  JCB,JCBR
  21683  00001980  00000001 USING  ORDINARY    00000000 00001000 FFFFFFD2   5 00C   21697  WECB,R5
  21745  000019AC  00000001 USING  ORDINARY    00000000 00001000 FFFFFFF9   5 000          @R5,5
  21748  000019AC  00000001 USING  ORDINARY    00000000 00001000 FFFFFFD2   2 004   21754  WECB,R2
  21765  000019B0  00000001 USING  ORDINARY    00000000 00001000 FFFFFFD2   5 000          WECB,5
  21770  000019B0  00000001 USING  ORDINARY    00000000 00001000 FFFFFFFC   2 000          @R2,2
  21783  000019B4  00000001 USING  ORDINARY    00000000 00001000 FFFFFFF9   5 000          @R5,5
  21899  000019F6  00000001 USING  ORDINARY    00000000 00001000 FFFFFFD2   5 008   22000  WECB,R5
  22017  00001A4A  00000001 USING  ORDINARY    00000000 00001000 FFFFFFF9   5 000          @R5,5
  22030  00001A50  00000001 USING  ORDINARY    00000000 00001000 FFFFFFF8   6 000          @R6,6
  22035  00001A50  00000001 USING  ORDINARY    00000000 00001000 FFFFFFF7   7 000          @R7,7
  22110  00001A78  00000001 USING  ORDINARY    00001A78 00001000 00000001   7 1EA   22461  $$$301B,7
  22124  00001A78  00000001 USING  ORDINARY    FFFFFFD8 00001000 FFFFFFCD   8 028   22411  CKWA-(4+36),R8
  22185  00001A98  00000001 USING  ORDINARY    00000000 00001000 FFFFFFD1   4 020   22389  PCB,R4
1DISP     (DISP2193) (12:42) (15MAR04) Using Map                                                                            Page  209
  22304  00001B10  00000001 USING  ORDINARY    00000000 00001000 FFFFFFD0   6 000          PBUF,R6
  22345  00001B24  00000001 USING  ORDINARY    00000000 00001000 FFFFFFCE  15 008   22351  PT,R15
  22358  00001B28  00000001 USING  ORDINARY    00000000 00001000 FFFFFFEF  15 000          @R15,15
  22368  00001B28  00000001 USING  ORDINARY    00000000 00001000 FFFFFFF8   6 000          @R6,6
  22371  00001B28  00000001 USING  ORDINARY    00000000 00001000 FFFFFFD4   6 000          JCB,JCBR
  22441  00001B6C  00000001 USING  ORDINARY    00000000 00001000 FFFFFFF8   6 000          @R6,6
  22444  00001B6C  00000001 USING  ORDINARY    00000000 00001000 FFFFFFD0   6 000          PBUF,6
  22449  00001B6C  00000001 USING  ORDINARY    00000000 00001000 FFFFFFF8   6 000          @R6,6
  22458  00001B6C  00000001 USING  ORDINARY    00000000 00001000 FFFFFFFA   4 000          @R4,4
  22471  00001B70  00000001 USING  ORDINARY    00000000 00001000 FFFFFFF6   8 000          @R8,8
  22476  00001B70  00000001 USING  ORDINARY    00000000 00001000 FFFFFFF7   7 000          @R7,7
  22527  00001B98  00000001 USING  ORDINARY    00001B98 00001000 00000001   7 0CA   22783  $$$313B,7
  22595  00001BB0  00000001 USING  ORDINARY    00000000 00001000 FFFFFFD1   5 020   22752  PCB,R5
  22644  00001BCC  00000001 USING  ORDINARY    00000000 00001000 FFFFFFD0   4 06C   22741  PBUF,R4
  22692  00001BE0  00000001 USING  ORDINARY    00000000 00001000 FFFFFFCE   2 000   22751  PT,R2
  22762  00001C06  00000001 USING  ORDINARY    00000000 00001000 FFFFFFFC   2 000          @R2,2
  22771  00001C06  00000001 USING  ORDINARY    00000000 00001000 FFFFFFFA   4 000          @R4,4
  22780  00001C06  00000001 USING  ORDINARY    00000000 00001000 FFFFFFF9   5 000          @R5,5
  22796  00001C0A  00000001 USING  ORDINARY    00000000 00001000 FFFFFFF7   7 000          @R7,7
  22880  00001C80  00000001 USING  ORDINARY    00001C80 00001000 00000001   7 4C2   23635  $$$327B,7
  22928  00001C9A  00000001 USING  ORDINARY    00000000 00001000 FFFFFFD1   4 075   23615  PCB,R4
  22968  00001CBC  00000001 USING  ORDINARY    00000000 00001000 FFFFFFCE   3 00C   23396  PT,R3
  23011  00001CE0  00000001 USING  ORDINARY    00000000 00001000 FFFFFFCF   5 038   23339  PFCB,R5
  23184  00001D92  00000001 USING  ORDINARY    00000000 00001000 FFFFFFD0   2 068   23225  PBUF,R2
  23244  00001DC4  00000001 USING  ORDINARY    00000000 00001000 FFFFFFFC   2 000          @R2,2
  23359  00001E36  00000001 USING  ORDINARY    00000000 00001000 FFFFFFD0   2 068   23371  PBUF,R2
  23378  00001E3C  00000001 USING  ORDINARY    00000000 00001000 FFFFFFFC   2 000          @R2,2
  23431  00001E7C  00000001 USING  ORDINARY    00000000 00001000 FFFFFFD4   6 062   23572  JCB,JCBR
  23644  00001F34  00000001 USING  ORDINARY    00000000 00001000 FFFFFFF8   6 000          @R6,6
  23649  00001F34  00000001 USING  ORDINARY    00000000 00001000 FFFFFFF9   5 000          @R5,5
  23654  00001F34  00000001 USING  ORDINARY    00000000 00001000 FFFFFFFB   3 000          @R3,3
  23659  00001F34  00000001 USING  ORDINARY    00000000 00001000 FFFFFFFA   4 000          @R4,4
  23664  00001F34  00000001 USING  ORDINARY    00000000 00001000 FFFFFFF7   7 000          @R7,7
  23722  00001F5C  00000001 USING  ORDINARY    00001F5C 00001000 00000001   7 1E6   24151  $$$348B,7
  23740  00001F5C  00000001 USING  ORDINARY    00000000 00001000 FFFFFFD1   4 068   24077  PCB,R4
  23826  00001FB4  00000001 USING  ORDINARY    00000000 00001000 FFFFFFCE  15 000   23832  PT,R15
  23839  00001FB8  00000001 USING  ORDINARY    00000000 00001000 FFFFFFEF  15 000          @R15,15
  23873  00001FCE  00000001 USING  ORDINARY    00000000 00001000 FFFFFFD0   3 02C   23931  PBUF,R3
  23883  00001FCE  00000001 DROP                                           15              15
  23887  00001FD4  00000001 USING  ORDINARY    00000000 00001000 FFFFFFEF  15 000          @R15,15
  23956  00002006  00000001 USING  ORDINARY    00000000 00001000 FFFFFFFB   3 000          @R3,3
  23969  0000200A  00000001 USING  ORDINARY    00000000 00001000 FFFFFFD8   3 02A   24049  IOSB,R3
  23979  0000200A  00000001 DROP                                           15              15
  23983  00002010  00000001 USING  ORDINARY    00000000 00001000 FFFFFFEF  15 000          @R15,15
  24074  00002054  00000001 USING  ORDINARY    00000000 00001000 FFFFFFFB   3 000   26363  @R3,3
  24087  00002058  00000001 USING  ORDINARY    00000000 00001000 FFFFFFCE  15 008   24093  PT,R15
  24100  0000205C  00000001 USING  ORDINARY    00000000 00001000 FFFFFFEF  15 000          @R15,15
  24110  0000205C  00000001 USING  ORDINARY    00000000 00001000 FFFFFFD4   6 04D   24120  JCB,JCBR
  24143  0000207A  00000001 USING  ORDINARY    00000000 00001000 FFFFFFF8   6 000          @R6,6
  24162  00002086  00000001 USING  ORDINARY    00000000 00001000 FFFFFFFA   4 000          @R4,4
  24167  00002086  00000001 USING  ORDINARY    00000000 00001000 FFFFFFF7   7 000          @R7,7
  24291  00002160  00000001 USING  ORDINARY    00002160 00001000 00000001   7 658   24319  $$$353B,7
  24333  0000218C  00000001 USING  ORDINARY    00000000 00001000 FFFFFFF7   7 000          @R7,7
  24388  000021B4  00000001 USING  ORDINARY    000021B4 00001000 00000001   7 60A   24675  $$$356B,7
  24439  000021CE  00000001 USING  ORDINARY    00000000 00001000 FFFFFFD4   6 040   24561  JCB,JCBR
  24500  000021F2  00000001 USING  ORDINARY    00000000 00001000 FFFFFFCE   1 00C   24580  PT,R1
  24590  00002246  00000001 USING  ORDINARY    00000000 00001000 FFFFFFD1   4 000   24606  PCB,R4
  24629  0000226C  00000001 USING  ORDINARY    00000000 00001000 FFFFFFFA   4 000          @R4,4
  24691  00002296  00000001 USING  ORDINARY    00000000 00001000 FFFFFFFD   1 000          @R1,1
1DISP     (DISP2193) (12:42) (15MAR04) Using Map                                                                            Page  210
  24705  0000229C  00000001 USING  ORDINARY    00000000 00001000 FFFFFFF8   6 000          @R6,6
  24710  0000229C  00000001 USING  ORDINARY    00000000 00001000 FFFFFFF7   7 000          @R7,7
  24766  000022C4  00000001 USING  ORDINARY    000022C4 00001000 00000001   7 4FA   25344  $$$367B,7
  24784  000022C8  00000001 USING  ORDINARY    00000000 00001000 FFFFFFD4   6 044   25293  JCB,JCBR
  24873  00002318  00000001 USING  ORDINARY    00000000 00001000 FFFFFFCE   5 00C   25176  PT,R5
  25092  000023DC  00000001 USING  ORDINARY    00000000 00001000 FFFFFFD1   4 01D   25225  PCB,R4
  25232  00002474  00000001 USING  ORDINARY    00000000 00001000 FFFFFFFA   4 000          @R4,4
  25237  00002474  00000001 USING  ORDINARY    00000000 00001000 FFFFFFF9   5 000          @R5,5
  25359  000024D4  00000001 USING  ORDINARY    00000000 00001000 FFFFFFF8   6 000          @R6,6
  25364  000024D4  00000001 USING  ORDINARY    00000000 00001000 FFFFFFF7   7 000          @R7,7
  25420  000024FC  00000001 USING  ORDINARY    000024FC 00001000 00000001   7 2AC   25472  $$$385B,7
  25441  00002504  00000001 USING  ORDINARY    00000000 00001000 FFFFFFD4  15 044   25452  JCB,R15
  25467  0000251C  00000001 USING  ORDINARY    00000000 00001000 FFFFFFEF  15 000          @R15,15
  25486  0000252E  00000001 USING  ORDINARY    00000000 00001000 FFFFFFD4  15 044   25497  JCB,R15
  25512  00002546  00000001 USING  ORDINARY    00000000 00001000 FFFFFFEF  15 002   26250  @R15,15
  25521  0000254A  00000001 USING  ORDINARY    00000000 00001000 FFFFFFF7   7 000          @R7,7
  25574  00002572  00000001 USING  ORDINARY    00002572 00001000 00000001   7 216   25659  $$$388B,7
  25592  00002576  00000001 USING  ORDINARY    00000000 00001000 FFFFFFD4   6 040   25599  JCB,JCBR
  25621  00002580  00000001 USING  ORDINARY    00000000 00001000 FFFFFFCE   2 000   25625  PT,R2
  25631  00002584  00000001 USING  ORDINARY    00000000 00001000 FFFFFFFC   2 000          @R2,2
  25677  00002596  00000001 USING  ORDINARY    00000000 00001000 FFFFFFF8   6 000          @R6,6
  25682  00002596  00000001 USING  ORDINARY    00000000 00001000 FFFFFFF7   7 000          @R7,7
  25735  000025BE  00000001 USING  ORDINARY    000025BE 00001000 00000001   7 1CA   25820  $$$394B,7
  25753  000025C2  00000001 USING  ORDINARY    00000000 00001000 FFFFFFD4   6 044   25760  JCB,JCBR
  25782  000025CC  00000001 USING  ORDINARY    00000000 00001000 FFFFFFCE   2 000   25786  PT,R2
  25792  000025D0  00000001 USING  ORDINARY    00000000 00001000 FFFFFFFC   2 002   26368  @R2,2
  25838  000025E2  00000001 USING  ORDINARY    00000000 00001000 FFFFFFF8   6 000          @R6,6
  25843  000025E2  00000001 USING  ORDINARY    00000000 00001000 FFFFFFF7   7 000          @R7,7
  25907  0000260A  00000001 USING  ORDINARY    0000260A 00001000 00000001   7 032   25994  $$$400B,7
  25961  00002626  00000001 USING  ORDINARY    00000000 00001000 FFFFFFCE   1 008   25993  PT,R1
  26016  0000263C  00000001 USING  ORDINARY    00000000 00001000 FFFFFFFD   1 000   27708  @R1,1
  26027  0000263C  00000001 USING  ORDINARY    00000000 00001000 FFFFFFF7   7 000          @R7,7
  26066  00002664  00000001 USING  ORDINARY    00002664 00001000 00000001   7 14C   26124  $$$406B,BR
  26149  0000269C  00000001 USING  ORDINARY    00000000 00001000 FFFFFFF7   7 000          @R7,7
  26176  000026B6  00000001 USING  ORDINARY    000026B6 00001000 00000001   7 10C   26274  $$$410B,BR
  26206  000026CC  00000001 DROP                                            4              4
  26210  000026D2  00000001 USING  ORDINARY    00000000 00001000 FFFFFFFA   4 000          @R4,4
  26293  00002722  00000001 USING  ORDINARY    00000000 00001000 FFFFFFF7   7 000          @R7,7
  26317  0000273C  00000001 USING  ORDINARY    0000273C 00001000 00000001   7 078   26372  $$$417B,BR
  26391  0000277C  00000001 USING  ORDINARY    00000000 00001000 FFFFFFF7   7 000          @R7,7
  26460  000027E2  00000001 USING  ORDINARY    000027E2 00001000 00000001   7 CC6   26591  $$$421B,7
  26478  000027E6  00000001 USING  ORDINARY    00000000 00001000 FFFFFFD4   6 040   26485  JCB,JCBR
  26507  000027F0  00000001 USING  ORDINARY    00000000 00001000 FFFFFFCE   2 00C   26513  PT,R2
  26520  000027F4  00000001 USING  ORDINARY    00000000 00001000 FFFFFFFC   2 000          @R2,2
  26531  000027F4  00000001 USING  ORDINARY    00000000 00001000 FFFFFFD1   4 01D   26590  PCB,R4
  26601  0000282A  00000001 USING  ORDINARY    00000000 00001000 FFFFFFD0   5 000          PBUF,R5
  26610  0000282A  00000001 USING  ORDINARY    00000000 00001000 FFFFFFF9   5 000          @R5,5
  26619  0000282A  00000001 USING  ORDINARY    00000000 00001000 FFFFFFFA   4 000          @R4,4
  26630  0000282A  00000001 USING  ORDINARY    00000000 00001000 FFFFFFF8   6 000          @R6,6
  26635  0000282A  00000001 USING  ORDINARY    00000000 00001000 FFFFFFF7   7 000          @R7,7
  26685  00002852  00000001 USING  ORDINARY    00002852 00001000 00000001   7 C16   26737  $$$427B,7
  26706  0000285A  00000001 USING  ORDINARY    00000000 00001000 FFFFFFD4  15 044   26717  JCB,R15
  26732  00002872  00000001 USING  ORDINARY    00000000 00001000 FFFFFFEF  15 000          @R15,15
  26751  00002884  00000001 USING  ORDINARY    00000000 00001000 FFFFFFD4  15 044   26762  JCB,R15
  26777  0000289C  00000001 USING  ORDINARY    00000000 00001000 FFFFFFEF  15 000          @R15,15
  26786  000028A0  00000001 USING  ORDINARY    00000000 00001000 FFFFFFF7   7 000          @R7,7
  26836  000028C8  00000001 USING  ORDINARY    000028C8 00001000 00000001   7 BE0   26924  $$$430B,7
  26854  000028CC  00000001 USING  ORDINARY    00000000 00001000 FFFFFFD4   6 040   26861  JCB,JCBR
  26883  000028D6  00000001 USING  ORDINARY    00000000 00001000 FFFFFFCE   2 00C   26889  PT,R2
1DISP     (DISP2193) (12:42) (15MAR04) Using Map                                                                            Page  211
  26896  000028DA  00000001 USING  ORDINARY    00000000 00001000 FFFFFFFC   2 000          @R2,2
  26907  000028DA  00000001 USING  ORDINARY    00000000 00001000 FFFFFFD1   4 01D   26946  PCB,R4
  26952  00002900  00000001 USING  ORDINARY    00000000 00001000 FFFFFFFA   4 000          @R4,4
  26962  00002900  00000001 USING  ORDINARY    00000000 00001000 FFFFFFF8   6 000          @R6,6
  26967  00002900  00000001 USING  ORDINARY    00000000 00001000 FFFFFFF7   7 000          @R7,7
  27017  00002928  00000001 USING  ORDINARY    00002928 00001000 00000001   7 B44   27069  $$$435B,7
  27038  00002930  00000001 USING  ORDINARY    00000000 00001000 FFFFFFD4  15 044   27049  JCB,R15
  27064  00002948  00000001 USING  ORDINARY    00000000 00001000 FFFFFFEF  15 000          @R15,15
  27083  0000295A  00000001 USING  ORDINARY    00000000 00001000 FFFFFFD4  15 044   27094  JCB,R15
  27109  00002972  00000001 USING  ORDINARY    00000000 00001000 FFFFFFEF  15 000          @R15,15
  27118  00002976  00000001 USING  ORDINARY    00000000 00001000 FFFFFFF7   7 000          @R7,7
  27168  0000299E  00000001 USING  ORDINARY    0000299E 00001000 00000001   7 B0A   27256  $$$438B,7
  27186  000029A2  00000001 USING  ORDINARY    00000000 00001000 FFFFFFD4   6 040   27193  JCB,JCBR
  27215  000029AC  00000001 USING  ORDINARY    00000000 00001000 FFFFFFCE   2 00C   27221  PT,R2
  27228  000029B0  00000001 USING  ORDINARY    00000000 00001000 FFFFFFFC   2 000          @R2,2
  27239  000029B0  00000001 USING  ORDINARY    00000000 00001000 FFFFFFD1   4 01D   27279  PCB,R4
  27285  000029D6  00000001 USING  ORDINARY    00000000 00001000 FFFFFFFA   4 000          @R4,4
  27295  000029D6  00000001 USING  ORDINARY    00000000 00001000 FFFFFFF8   6 000          @R6,6
  27300  000029D6  00000001 USING  ORDINARY    00000000 00001000 FFFFFFF7   7 000          @R7,7
  27350  000029FE  00000001 USING  ORDINARY    000029FE 00001000 00000001   7 A72   27402  $$$443B,7
  27371  00002A06  00000001 USING  ORDINARY    00000000 00001000 FFFFFFD4  15 044   27382  JCB,R15
  27397  00002A1E  00000001 USING  ORDINARY    00000000 00001000 FFFFFFEF  15 000          @R15,15
  27416  00002A30  00000001 USING  ORDINARY    00000000 00001000 FFFFFFD4  15 044   27427  JCB,R15
  27442  00002A48  00000001 USING  ORDINARY    00000000 00001000 FFFFFFEF  15 000          @R15,15
  27451  00002A4C  00000001 USING  ORDINARY    00000000 00001000 FFFFFFF7   7 000          @R7,7
  27504  00002A74  00000001 USING  ORDINARY    00002A74 00001000 00000001   7 A34   27691  $$$446B,7
  27522  00002A78  00000001 USING  ORDINARY    00000000 00001000 FFFFFFD4   6 040   27529  JCB,JCBR
  27551  00002A82  00000001 USING  ORDINARY    00000000 00001000 FFFFFFCE   2 00C   27557  PT,R2
  27564  00002A86  00000001 USING  ORDINARY    00000000 00001000 FFFFFFFC   2 000   28745  @R2,2
  27576  00002A86  00000001 USING  ORDINARY    00000000 00001000 FFFFFFD1   4 008   27610  PCB,R4
  27648  00002ACE  00000001 USING  ORDINARY    00000000 00001000 FFFFFFD0   5 06C   27708  PBUF,R5
  27714  00002B02  00000001 USING  ORDINARY    00000000 00001000 FFFFFFF9   5 000          @R5,5
  27719  00002B02  00000001 USING  ORDINARY    00000000 00001000 FFFFFFFA   4 000          @R4,4
  27729  00002B02  00000001 USING  ORDINARY    00000000 00001000 FFFFFFF8   6 000          @R6,6
  27734  00002B02  00000001 USING  ORDINARY    00000000 00001000 FFFFFFF7   7 000          @R7,7
  27787  00002B2A  00000001 USING  ORDINARY    00002B2A 00001000 00000001   7 94E   27839  $$$454B,7
  27808  00002B32  00000001 USING  ORDINARY    00000000 00001000 FFFFFFD4  15 044   27819  JCB,R15
  27834  00002B4A  00000001 USING  ORDINARY    00000000 00001000 FFFFFFEF  15 000          @R15,15
  27853  00002B5C  00000001 USING  ORDINARY    00000000 00001000 FFFFFFD4  15 044   27864  JCB,R15
  27879  00002B74  00000001 USING  ORDINARY    00000000 00001000 FFFFFFEF  15 000   28076  @R15,15
  27888  00002B78  00000001 USING  ORDINARY    00000000 00001000 FFFFFFF7   7 000          @R7,7
  27941  00002BA0  00000001 USING  ORDINARY    00002BA0 00001000 00000001   7 90B   28836  $$$457B,7
  27978  00002BAC  00000001 USING  ORDINARY    00000000 00001000 FFFFFFD4   6 044   28449  JCB,JCBR
  28030  00002BC8  00000001 USING  ORDINARY    00000000 00001000 FFFFFFD0   5 070   28336  PBUF,R5
  28104  00002C16  00000001 USING  ORDINARY    00000000 00001000 FFFFFFD1   4 020   28421  PCB,R4
  28365  00002D40  00000001 USING  ORDINARY    00000000 00001000 FFFFFFCE  15 00C   28398  PT,R15
  28405  00002D66  00000001 USING  ORDINARY    00000000 00001000 FFFFFFEF  15 000   28530  @R15,15
  28427  00002D84  00000001 USING  ORDINARY    00000000 00001000 FFFFFFFA   4 000          @R4,4
  28432  00002D84  00000001 USING  ORDINARY    00000000 00001000 FFFFFFF9   5 000          @R5,5
  28484  00002DA0  00000001 USING  ORDINARY    00000000 00001000 FFFFFFD0   5 070   28790  PBUF,R5
  28558  00002DEE  00000001 USING  ORDINARY    00000000 00001000 FFFFFFD1   4 020   28875  PCB,R4
  28819  00002F18  00000001 USING  ORDINARY    00000000 00001000 FFFFFFCE  15 00C   28852  PT,R15
  28859  00002F3E  00000001 USING  ORDINARY    00000000 00001000 FFFFFFEF  15 001   29271  @R15,15
  28881  00002F5C  00000001 USING  ORDINARY    00000000 00001000 FFFFFFFA   4 000          @R4,4
  28886  00002F5C  00000001 USING  ORDINARY    00000000 00001000 FFFFFFF9   5 000          @R5,5
  28897  00002F5C  00000001 USING  ORDINARY    00000000 00001000 FFFFFFF8   6 000          @R6,6
  28902  00002F5C  00000001 USING  ORDINARY    00000000 00001000 FFFFFFF7   7 000          @R7,7
  28941  00002F84  00000001 USING  ORDINARY    00002F84 00001000 00000001   7 500   29291  $$$484B,BR
  28951  00002F88  00000001 USING  ORDINARY    00000000 00001000 FFFFFFD4   6 030   29307  JCB,JCBR
1DISP     (DISP2193) (12:42) (15MAR04) Using Map                                                                            Page  212
  28999  00002F9C  00000001 USING  ORDINARY    00000000 00001000 FFFFFFCF   2 0A4   29053  PFCB,R2
  29061  00002FD8  00000001 USING  ORDINARY    00000000 00001000 FFFFFFFC   2 000          @R2,2
  29076  00002FDC  00000001 USING  ORDINARY    00000000 00001000 FFFFFFCF   2 0A4   29112  PFCB,R2
  29131  0000301A  00000001 USING  ORDINARY    00000000 00001000 FFFFFFFC   2 000          @R2,2
  29141  0000301A  00000001 USING  ORDINARY    00000000 00001000 FFFFFFCF   5 020   29297  PFCB,R5
  29181  0000302A  00000001 USING  ORDINARY    00000000 00001000 FFFFFFCE   4 00C   29252  PT,R4
  29259  0000307C  00000001 USING  ORDINARY    00000000 00001000 FFFFFFFA   4 000          @R4,4
  29323  000030BE  00000001 USING  ORDINARY    00000000 00001000 FFFFFFF8   6 000          @R6,6
  29330  000030BE  00000001 USING  ORDINARY    00000000 00001000 FFFFFFF9   5 000          @R5,5
  29336  000030BE  00000001 USING  ORDINARY    00000000 00001000 FFFFFFF7   7 000          @R7,7
  29374  000030D8  00000001 USING  ORDINARY    000030D8 00001000 00000001   7 3D0   29552  $$$495B,7
  29392  000030DC  00000001 USING  ORDINARY    00000000 00001000 FFFFFFD4   6 040   29551  JCB,JCBR
  29449  00003108  00000001 USING  ORDINARY    00000000 00001000 FFFFFFCE   5 00C   29453  PT,R5
  29463  0000310C  00000001 USING  ORDINARY    00000000 00001000 FFFFFFD1   4 000   29479  PCB,R4
  29519  0000314E  00000001 USING  ORDINARY    00000000 00001000 FFFFFFFA   4 000          @R4,4
  29524  0000314E  00000001 USING  ORDINARY    00000000 00001000 FFFFFFF9   5 000          @R5,5
  29582  00003176  00000001 USING  ORDINARY    00000000 00001000 FFFFFFF8   6 000          @R6,6
  29587  00003176  00000001 USING  ORDINARY    00000000 00001000 FFFFFFF7   7 000          @R7,7
  29637  0000319E  00000001 USING  ORDINARY    0000319E 00001000 00000001   7 2EA   29689  $$$503B,7
  29658  000031A6  00000001 USING  ORDINARY    00000000 00001000 FFFFFFD4  15 044   29669  JCB,R15
  29684  000031BE  00000001 USING  ORDINARY    00000000 00001000 FFFFFFEF  15 000          @R15,15
  29703  000031D0  00000001 USING  ORDINARY    00000000 00001000 FFFFFFD4  15 044   29714  JCB,R15
  29729  000031E8  00000001 USING  ORDINARY    00000000 00001000 FFFFFFEF  15 000   31842  @R15,15
  29738  000031EC  00000001 USING  ORDINARY    00000000 00001000 FFFFFFF7   7 000          @R7,7
  29792  00003214  00000001 USING  ORDINARY    00003214 00001000 00000001   7 294   30295  $$$506B,7
  29844  00003236  00000001 USING  ORDINARY    00000000 00001000 FFFFFFD4   6 044   30197  JCB,JCBR
  29906  00003262  00000001 USING  ORDINARY    00000000 00001000 FFFFFFCE   3 00C   30190  PT,R3
  29921  00003266  00000001 USING  ORDINARY    00000000 00001000 FFFFFFCF   5 020   30202  PFCB,R5
  30007  0000328C  00000001 USING  ORDINARY    00000000 00001000 FFFFFFD1   4 020   30153  PCB,R4
  30176  0000332E  00000001 USING  ORDINARY    00000000 00001000 FFFFFFFA   4 000          @R4,4
  30208  00003352  00000001 USING  ORDINARY    00000000 00001000 FFFFFFF9   5 000          @R5,5
  30214  00003352  00000001 USING  ORDINARY    00000000 00001000 FFFFFFFB   3 000          @R3,3
  30242  00003358  00000001 USING  ORDINARY    00000000 00001000 FFFFFFD1   4 01D   30294  PCB,R4
  30305  000033A2  00000001 USING  ORDINARY    00000000 00001000 FFFFFFD0   2 068   30317  PBUF,R2
  30324  000033A8  00000001 USING  ORDINARY    00000000 00001000 FFFFFFFC   2 000          @R2,2
  30340  000033C2  00000001 USING  ORDINARY    00000000 00001000 FFFFFFFA   4 001   30597  @R4,4
  30354  000033C2  00000001 USING  ORDINARY    00000000 00001000 FFFFFFF8   6 000          @R6,6
  30359  000033C2  00000001 USING  ORDINARY    00000000 00001000 FFFFFFF7   7 000          @R7,7
  30409  000033EA  00000001 USING  ORDINARY    000033EA 00001000 00000001   7 0B2   30449  $$$522B,7
  30461  00003402  00000001 USING  ORDINARY    00000000 00001000 FFFFFFF7   7 000          @R7,7
  30514  0000342A  00000001 USING  ORDINARY    0000342A 00001000 00000001   7 072   30606  $$$526B,7
  30556  0000343A  00000001 USING  ORDINARY    00000000 00001000 FFFFFFCE   5 010   30596  PT,R5
  30603  00003456  00000001 USING  ORDINARY    00000000 00001000 FFFFFFF9   5 000          @R5,5
  30615  0000345A  00000001 USING  ORDINARY    00000000 00001000 FFFFFFF7   7 000          @R7,7
  30708  000034CC  00000001 USING  ORDINARY    000034CC 00001000 00000001   7 B3C   30797  $$$532B,7
  30766  000034E8  00000001 USING  ORDINARY    00000000 00001000 FFFFFFCE   2 008   30780  PT,R2
  30817  000034FC  00000001 USING  ORDINARY    00000000 00001000 FFFFFFFC   2 000          @R2,2
  30828  000034FC  00000001 USING  ORDINARY    00000000 00001000 FFFFFFF7   7 000          @R7,7
  30888  00003524  00000001 USING  ORDINARY    00003524 00001000 00000001   7 AE4   31120  $$$539B,7
  30906  00003528  00000001 USING  ORDINARY    00000000 00001000 FFFFFFD4   6 030   31100  JCB,JCBR
  30960  00003544  00000001 USING  ORDINARY    00000000 00001000 FFFFFFCE   1 00C   31093  PT,R1
  30999  0000355A  00000001 USING  ORDINARY    00000000 00001000 FFFFFFCF   5 014   31126  PFCB,R5
  31023  00003560  00000001 USING  ORDINARY    00000000 00001000 FFFFFFCE   3 00C   31069  PT,R3
  31080  00003592  00000001 USING  ORDINARY    00000000 00001000 FFFFFFFB   3 004   33368  @R3,3
  31141  000035C6  00000001 USING  ORDINARY    00000000 00001000 FFFFFFF9   5 000          @R5,5
  31146  000035C6  00000001 USING  ORDINARY    00000000 00001000 FFFFFFFD   1 000          @R1,1
  31157  000035C6  00000001 USING  ORDINARY    00000000 00001000 FFFFFFF8   6 000          @R6,6
  31162  000035C6  00000001 USING  ORDINARY    00000000 00001000 FFFFFFF7   7 000          @R7,7
  31216  000035EE  00000001 USING  ORDINARY    000035EE 00001000 00000001   7 0A6   31412  $$$549B,7
1DISP     (DISP2193) (12:42) (15MAR04) Using Map                                                                            Page  213
  31253  000035FA  00000001 USING  ORDINARY    00000000 00001000 FFFFFFD1   4 020   31379  PCB,R4
  31294  00003620  00000001 USING  ORDINARY    00000000 00001000 FFFFFFCE   5 00C   31381  PT,R5
  31376  0000366A  00000001 DROP                                            2              2
  31380  00003670  00000001 USING  ORDINARY    00000000 00001000 FFFFFFFC   2 000          @R2,2
  31404  00003690  00000001 USING  ORDINARY    00000000 00001000 FFFFFFF9   5 000          @R5,5
  31409  00003690  00000001 USING  ORDINARY    00000000 00001000 FFFFFFFA   4 000          @R4,4
  31420  00003694  00000001 USING  ORDINARY    00000000 00001000 FFFFFFF7   7 000          @R7,7
  31472  000036BC  00000001 USING  ORDINARY    000036BC 00001000 00000001   7 9A5   31947  $$$557B,BR
  31540  000036F0  00000001 USING  ORDINARY    00000000 00001000 FFFFFFCE   1 00C   31581  PT,R1
  31591  0000370C  00000001 USING  ORDINARY    00000000 00001000 FFFFFFD1   4 01D   31667  PCB,R4
  31678  00003758  00000001 USING  ORDINARY    00000000 00001000 FFFFFFD0   5 070   31746  PBUF,R5
  31755  000037B0  00000001 USING  ORDINARY    00000000 00001000 FFFFFFF9   5 000          @R5,5
  31763  000037B0  00000001 USING  ORDINARY    00000000 00001000 FFFFFFFA   4 000          @R4,4
  31779  000037B6  00000001 USING  ORDINARY    00000000 00001000 FFFFFFFD   1 00C   35872  @R1,1
  31795  000037BC  00000001 USING  ORDINARY    00000000 00001000 FFFFFFD0   5 004   31859  PBUF,R5
  31869  0000380A  00000001 USING  ORDINARY    00000000 00001000 FFFFFFD1   4 01D   31914  PCB,R4
  31973  00003874  00000001 USING  ORDINARY    00000000 00001000 FFFFFFFA   4 000          @R4,4
  31981  00003874  00000001 USING  ORDINARY    00000000 00001000 FFFFFFF9   5 000          @R5,5
  31998  00003884  00000001 USING  ORDINARY    00000000 00001000 FFFFFFF7   7 000          @R7,7
  32034  0000389E  00000001 USING  ORDINARY    0000389E 00001000 00000001   7 79D   32221  $$$571B,BR
  32112  000038D6  00000001 USING  ORDINARY    00000000 00001000 FFFFFFD1   5 075   32263  PCB,R5
  32270  00003982  00000001 USING  ORDINARY    00000000 00001000 FFFFFFF9   5 000          @R5,5
  32290  00003992  00000001 USING  ORDINARY    00000000 00001000 FFFFFFF7   7 000          @R7,7
  32319  000039AC  00000001 USING  ORDINARY    000039AC 00001000 00000001   7 68F   32469  $$$578B,BR
  32360  000039CE  00000001 USING  ORDINARY    00000000 00001000 FFFFFFD1   5 075   32510  PCB,R5
  32517  00003A76  00000001 USING  ORDINARY    00000000 00001000 FFFFFFF9   5 000          @R5,5
  32529  00003A82  00000001 USING  ORDINARY    00000000 00001000 FFFFFFF7   7 000          @R7,7
  32568  00003A9C  00000001 USING  ORDINARY    00003A9C 00001000 00000001   7 540   32676  $$$584B,7
  32689  00003B00  00000001 USING  ORDINARY    00000000 00001000 FFFFFFF7   7 000          @R7,7
  32743  00003B28  00000001 USING  ORDINARY    00003B28 00001000 00000001   7 4E8   33058  $$$590B,7
  33070  00003C0C  00000001 USING  ORDINARY    00000000 00001000 FFFFFFF7   7 000          @R7,7
  33123  00003C3A  00000001 USING  ORDINARY    00003C3A 00001000 00000001   7 3DE   33580  $$$608B,7
  33178  00003C52  00000001 USING  ORDINARY    00000000 00001000 FFFFFFE9  15 0CC   33184  CVT,R15
  33191  00003C56  00000001 USING  ORDINARY    00000000 00001000 FFFFFFEF  15 000   33216  @R15,15
  33231  00003C66  00000001 USING  ORDINARY    00000000 00001000 FFFFFFE5  15 00F   33242  USERCVT,R15
  33239  00003C66  00000001 DROP                                            2              2
  33243  00003C6C  00000001 USING  ORDINARY    00000000 00001000 FFFFFFFC   2 000          @R2,2
  33250  00003C6C  00000001 USING  ORDINARY    00000000 00001000 FFFFFFEF  15 000          @R15,15
  33353  00003C8E  00000001 USING  ORDINARY    00000000 00001000 FFFFFFE9   4 490   33359  CVT,R4
  33366  00003C92  00000001 USING  ORDINARY    00000000 00001000 FFFFFFFA   4 000          @R4,4
  33596  00003D30  00000001 USING  ORDINARY    00000000 00001000 FFFFFFF7   7 000          @R7,7
  33634  00003D58  00000001 USING  ORDINARY    00003D58 00001000 00000001   7 2A4   33641  $$$626B,BR
  33650  00003D60  00000001 USING  ORDINARY    00000000 00001000 FFFFFFF7   7 000          @R7,7
  33653  00003D60  00000001 USING  ORDINARY    00003DA6 00001000 00000001   7 000   33655  SIOBASE,7
  33662  00003D64  00000001 USING  ORDINARY    00000000 00001000 FFFFFFF7   7 000          @R7,7
  33688  00003D7E  00000001 USING  ORDINARY    00003D7E 00001000 00000001   7 27E   33695  $$$627B,BR
  33704  00003D86  00000001 USING  ORDINARY    00000000 00001000 FFFFFFF7   7 000          @R7,7
  33707  00003D86  00000001 USING  ORDINARY    00003DA6 00001000 00000001   7 000   33709  SIOBASE,7
  33716  00003D8A  00000001 USING  ORDINARY    00000000 00001000 FFFFFFF7   7 000          @R7,7
  33743  00003DA4  00000001 USING  ORDINARY    00003DA4 00001000 00000001   7 000          $$$628B,BR
  33758  00003DA6  00000001 USING  ORDINARY    00000000 00001000 FFFFFFF7   7 000          @R7,7
  33761  00003DA6  00000001 USING  ORDINARY    00003DA6 00001000 00000001   7 295   34256  $$$629B,7
  33803  00003DC8  00000001 USING  ORDINARY    00000000 00001000 FFFFFFD1   4 078   34226  PCB,R4
  33890  00003E1C  00000001 USING  ORDINARY    00000000 00001000 FFFFFFD0   5 030   34174  PBUF,R5
  33962  00003E52  00000001 USING  ORDINARY    00000000 00001000 FFFFFFCE  15 004   33968  PT,R15
  33975  00003E5A  00000001 USING  ORDINARY    00000000 00001000 FFFFFFEF  15 000          @R15,15
  33985  00003E5A  00000001 USING  ORDINARY    00000000 00001000 FFFFFFCF   2 070   34028  PFCB,R2
  34035  00003E98  00000001 USING  ORDINARY    00000000 00001000 FFFFFFFC   2 004   38418  @R2,2
  34160  00003F26  00000001 USING  ORDINARY    00000000 00001000 FFFFFFD8  15 064   34195  IOSB,R15
1DISP     (DISP2193) (12:42) (15MAR04) Using Map                                                                            Page  214
  34202  00003F46  00000001 USING  ORDINARY    00000000 00001000 FFFFFFEF  15 000   34426  @R15,15
  34271  00003FBE  00000001 USING  ORDINARY    00000000 00001000 FFFFFFFA   4 000          @R4,4
  34278  00003FBE  00000001 USING  ORDINARY    00000000 00001000 FFFFFFF9   5 000          @R5,5
  34284  00003FBE  00000001 USING  ORDINARY    00000000 00001000 FFFFFFF7   7 000          @R7,7
  34388  00004082  00000001 USING  ORDINARY    00004082 00001000 00000001   7 08C   34434  $$$642B,7
  34455  000040F0  00000001 USING  ORDINARY    00000000 00001000 FFFFFFF7   7 000          @R7,7
  34531  0000412C  00000001 USING  ORDINARY    0000412C 00001000 00000001   7 188   34638  $$$645B,7
  34567  00004140  00000001 USING  ORDINARY    00000000 00001000 FFFFFFD5  15 01C   34583  CELLBLOK,R15
  34600  00004154  00000001 USING  ORDINARY    00000000 00001000 FFFFFFEF  15 001   35948  @R15,15
  34657  00004194  00000001 USING  ORDINARY    00000000 00001000 FFFFFFF7   7 000          @R7,7
  34801  000042D0  00000001 USING  ORDINARY    000042D0 00001000 00000001   7 0DF   34931  $$$652B,7
  34911  0000433E  00000001 DROP                                            3              3
  34915  00004344  00000001 USING  ORDINARY    00000000 00001000 FFFFFFFB   3 800   36063  @R3,3
  34966  0000438A  00000001 USING  ORDINARY    00000000 00001000 FFFFFFF7   7 000          @R7,7
  35051  000043CC  00000001 USING  ORDINARY    000043CC 00001000 00000001   7 0B4   35184  $$$659B,7
  35098  000043F0  00000001 USING  ORDINARY    00000000 00001000 FFFFFFD5   6 020   35186  CELLBLOK,R6
  35195  00004472  00000001 USING  ORDINARY    00000000 00001000 FFFFFFF8   6 000          @R6,6
  35200  00004472  00000001 USING  ORDINARY    00000000 00001000 FFFFFFF7   7 000          @R7,7
  35275  000044A2  00000001 USING  ORDINARY    000044A2 00001000 00000001   7 05E   35341  $$$665B,7
  35322  000044C6  00000001 USING  ORDINARY    00000000 00001000 FFFFFFD5   6 010   35340  CELLBLOK,R6
  35349  000044F0  00000001 USING  ORDINARY    00000000 00001000 FFFFFFF8   6 000          @R6,6
  35354  000044F0  00000001 USING  ORDINARY    00000000 00001000 FFFFFFF7   7 000          @R7,7
  35432  00004522  00000001 USING  ORDINARY    00004522 00001000 00000001   7 C76   35645  $$$668B,BR
  35441  00004522  00000001 USING  ORDINARY    00000000 00001000 FFFFFFCC   8 028   35461  GCPUWA,WAR
  35670  000045E4  00000001 USING  ORDINARY    00000000 00001000 FFFFFFF6   8 000          @R8,8
  35676  000045E4  00000001 USING  ORDINARY    00000000 00001000 FFFFFFF7   7 000          @R7,7
  35693  000045EA  00000001 USING  ORDINARY    000045EA 00001000 00000001   7 000          $$$678B,7
  35709  000045FA  00000001 USING  ORDINARY    00000000 00001000 FFFFFFF7   7 000          @R7,7
  35751  0000461E  00000001 USING  ORDINARY    0000461E 00001000 00000001   7 C26   36278  $$$680B,7
  35796  0000464A  00000001 USING  ORDINARY    00000000 00001000 FFFFFFD1   6 068   36258  PCB,R6
  35835  00004672  00000001 USING  ORDINARY    00000000 00001000 FFFFFFD0   5 070   36163  PBUF,R5
  36082  00004784  00000001 USING  ORDINARY    00000000 00001000 FFFFFFDB   4 024   36169  SRB,R4
  36097  00004788  00000001 USING  ORDINARY    00000000 00001000 FFFFFFD8   3 059   36238  IOSB,R3
  36114  00004796  00000001 USING  ORDINARY    00000000 00001000 FFFFFFE3  15 024   36120  ASCB,R15
  36127  0000479A  00000001 USING  ORDINARY    00000000 00001000 FFFFFFEF  15 001   37202  @R15,15
  36244  0000481A  00000001 USING  ORDINARY    00000000 00001000 FFFFFFFB   3 000          @R3,3
  36250  0000481A  00000001 USING  ORDINARY    00000000 00001000 FFFFFFFA   4 000          @R4,4
  36288  0000485E  00000001 USING  ORDINARY    00000000 00001000 FFFFFFF9   5 000          @R5,5
  36293  0000485E  00000001 USING  ORDINARY    00000000 00001000 FFFFFFF8   6 000          @R6,6
  36298  0000485E  00000001 USING  ORDINARY    00000000 00001000 FFFFFFF7   7 000          @R7,7
  36375  000048CA  00000001 USING  ORDINARY    000048CA 00001000 00000001   7 0DC   36534  $$$699B,7
  36431  000048E6  00000001 USING  ORDINARY    00000000 00001000 FFFFFFD1   4 000   36532  PCB,R4
  36470  00004906  00000001 USING  ORDINARY    00000000 00001000 FFFFFFD1   6 004   36506  PCB,R6
  36517  00004920  00000001 USING  ORDINARY    00000000 00001000 FFFFFFF8   6 000          @R6,6
  36551  00004950  00000001 USING  ORDINARY    00000000 00001000 FFFFFFFA   4 000          @R4,4
  36561  00004950  00000001 USING  ORDINARY    00000000 00001000 FFFFFFF7   7 000          @R7,7
  36613  00004978  00000001 USING  ORDINARY    00004978 00001000 00000001   7 02E   36675  $$$708B,7
  36658  00004988  00000001 USING  ORDINARY    00000000 00001000 FFFFFFD1   6 004   36664  PCB,R6
  36672  00004994  00000001 USING  ORDINARY    00000000 00001000 FFFFFFF8   6 000          @R6,6
  36684  00004998  00000001 USING  ORDINARY    00000000 00001000 FFFFFFF7   7 000          @R7,7
  36736  000049C0  00000001 USING  ORDINARY    000049C0 00001000 00000001   7 8B0   37017  $$$713B,7
  36755  000049C2  00000001 USING  ORDINARY    00000000 00001000 FFFFFFD1   6 01F   36940  PCB,R6
  36866  00004A24  00000001 USING  ORDINARY    00000000 00001000 FFFFFFD0   5 000   36941  PBUF,R5
  37006  00004AB4  00000001 USING  ORDINARY    00000000 00001000 FFFFFFF9   5 001   38652  @R5,5
  37031  00004AC4  00000001 USING  ORDINARY    00000000 00001000 FFFFFFF8   6 000          @R6,6
  37036  00004AC4  00000001 USING  ORDINARY    00000000 00001000 FFFFFFF7   7 000          @R7,7
  37111  00004AEC  00000001 USING  ORDINARY    00004AEC 00001000 00000001   7 7CC   38076  $$$723B,7
  37125  00004AEC  00000001 USING  ORDINARY    FFFFFFD8 00001000 FFFFFFCB   8 028   37983  WBUFWA-(4+36),R8
  37198  00004B16  00000001 USING  ORDINARY    00000000 00001000 FFFFFFD1   4 00C   37203  PCB,R4
1DISP     (DISP2193) (12:42) (15MAR04) Using Map                                                                            Page  215
  37209  00004B1E  00000001 USING  ORDINARY    00000000 00001000 FFFFFFFA   4 000          @R4,4
  37377  00004B78  00000001 USING  ORDINARY    00000000 00001000 FFFFFFD1   4 020   37904  PCB,R4
  37691  00004C4C  00000001 USING  ORDINARY    00000000 00001000 FFFFFFCE  15 008   37697  PT,R15
  37704  00004C50  00000001 USING  ORDINARY    00000000 00001000 FFFFFFEF  15 000   37972  @R15,15
  37737  00004C5C  00000001 USING  ORDINARY    00000000 00001000 FFFFFFD4   3 04D   37857  JCB,R3
  37880  00004CC8  00000001 USING  ORDINARY    00000000 00001000 FFFFFFFB   3 000          @R3,3
  38039  00004D48  00000001 USING  ORDINARY    00000000 00001000 FFFFFFFA   4 000          @R4,4
  38088  00004D64  00000001 USING  ORDINARY    00000000 00001000 FFFFFFF6   8 000          @R8,8
  38093  00004D64  00000001 USING  ORDINARY    00000000 00001000 FFFFFFF7   7 000          @R7,7
  38140  00004D8C  00000001 USING  ORDINARY    00004D8C 00001000 00000001   7 52F   38227  $$$741B,7
  38236  00004DC2  00000001 USING  ORDINARY    00000000 00001000 FFFFFFF7   7 000          @R7,7
  38290  00004DEA  00000001 USING  ORDINARY    00004DEA 00001000 00000001   7 4FF   38768  $$$746B,7
  38482  00004E64  00000001 USING  ORDINARY    00000000 00001000 FFFFFFD1   2 020   38525  PCB,R2
  38547  00004E84  00000001 USING  ORDINARY    00000000 00001000 FFFFFFCE  15 000   38553  PT,R15
  38560  00004E88  00000001 USING  ORDINARY    00000000 00001000 FFFFFFEF  15 000          @R15,15
  38741  00004F02  00000001 USING  ORDINARY    00000000 00001000 FFFFFFFC   2 000          @R2,2
  38783  00004F14  00000001 USING  ORDINARY    00000000 00001000 FFFFFFF7   7 000          @R7,7
  38816  00004F2A  00000001 DROP                                            2              2
  38820  00004F30  00000001 USING  ORDINARY    00000000 00001000 FFFFFFFC   2 000          @R2,2
  38864  00004F52  00000001 USING  ORDINARY    00004F52 00001000 00000001   7 000          $$$757B,7
  38899  00004F78  00000001 USING  ORDINARY    00000000 00001000 FFFFFFF7   7 000          @R7,7
  38951  00004FA0  00000001 USING  ORDINARY    00004FA0 00001000 00000001   7 000          $$$760B,7
  38986  00004FC6  00000001 USING  ORDINARY    00000000 00001000 FFFFFFF7   7 000          @R7,7
  39046  00004FEE  00000001 USING  ORDINARY    00004FEE 00001000 00000001   7 24A   39201  $$$762B,BR
  39055  00004FEE  00000001 USING  ORDINARY    00000000 00001000 FFFFFFCA   8 020   39212  FIXWA,WAR
  39234  000050A0  00000001 USING  ORDINARY    00000000 00001000 FFFFFFF6   8 000          @R8,8
  39240  000050A0  00000001 USING  ORDINARY    00000000 00001000 FFFFFFF7   7 000          @R7,7
  39267  000050BA  00000001 USING  ORDINARY    000050BA 00001000 00000001   7 058   39353  $$$768B,BR
  39374  00005120  00000001 USING  ORDINARY    00000000 00001000 FFFFFFF7   7 000          @R7,7
  39404  00005130  00000001 USING  ORDINARY    00005130 00001000 00000001   7 10C   39437  $$$772B,7
  39460  00005156  00000001 USING  ORDINARY    00000000 00001000 FFFFFFF7   7 000          @R7,7
  39489  00005166  00000001 USING  ORDINARY    00005166 00001000 00000001   7 00E   39506  $$$775B,7
  39525  00005180  00000001 USING  ORDINARY    00000000 00001000 FFFFFFF7   7 000          @R7,7
  39608  000052EA  00000001 USING  ORDINARY    00000000 00001000 FFFFFFF3  11 000   39852  @R11,11
  39615  000052EA  00000001 USING  ORDINARY    00000000 00001000 FFFFFFF2  12 000          @R12,12
  39654  000052EE  00000001 USING  ORDINARY    000052EE 00001000 00000001   7 0FA   39906  $$$777B,BR
  39665  000052F2  00000001 USING  ORDINARY    00000000 00001000 FFFFFFD8   9 02C   39904  IOSB,R9
  39676  000052F8  00000001 USING  ORDINARY    00000000 00001000 FFFFFFD1   4 02C   39780  PCB,R4
  39687  000052FC  00000001 USING  ORDINARY    00000000 00001000 FFFFFFEE  12 720   39801  CV,CVR
  39874  0000539C  00000001 USING  ORDINARY    00000000 00001000 FFFFFFE9  15 370   39880  CVT,R15
  39887  000053A0  00000001 USING  ORDINARY    00000000 00001000 FFFFFFEF  15 000          @R15,15
  39925  000053B2  00000001 USING  ORDINARY    00000000 00001000 FFFFFFE9  15 07C   39931  CVT,R15
  39938  000053B6  00000001 USING  ORDINARY    00000000 00001000 FFFFFFEF  15 000          @R15,15
  39949  000053B6  00000001 USING  ORDINARY    00000000 00001000 FFFFFFDA  15 074   39955  IOCOM,R15
  39962  000053BA  00000001 USING  ORDINARY    00000000 00001000 FFFFFFEF  15 000          @R15,15
  39995  000053DA  00000001 USING  ORDINARY    00000000 00001000 FFFFFFF5   9 000          @R9,9
  40002  000053DA  00000001 USING  ORDINARY    00000000 00001000 FFFFFFFA   4 000          @R4,4
  40008  000053DA  00000001 USING  ORDINARY    00000000 00001000 FFFFFFF7   7 000          @R7,7

1         (DISP2193) (12:42) (15MAR04) General Purpose Register Cross Reference                                             Page  216
- Register  References (M=modified, B=branch, U=USING, D=DROP, N=index)                      HLASM R4.0  2004/03/15 12.42
0    0(0)      982U   983D  2134   2202M  2202   2203M 11022D 13471  13584M 13602M 13673M 13701M 13796M 13797M 13797
             13936M 13937  13940M 13941  14004M 14004  14006M 14015M 14015  14028M 14038M 14045M 14109M 14109  14111M
             14120M 14120  14133M 14143M 14150M 14152M 14189  14225M 14306  14327  14335M 14340  14341M 14342M 14463
             14504  14539  14573M 14573  14578  14579  14581M 14582  14681  14709  14820  14848  14884M 14886  14887
             15000  15028  15055  15066M 15068  15069  15115  15165M 15166M 15166  15176  15200M 15243M 15245M 15285
             15319  15332M 15342  15356M 15356  15385M 15428M 15430M 15670M 15685M 15714M 15714  15746M 15748M 15757M
             15759M 15761M 15763M 15926M 15995M 16054M 16055M 16057  16111M 16165M 16220M 16221M 16223  16331M 16609M
             16610M 16610  16636M 16670M 16903M 16904M 16904  16918M 16919M 16919  16935  16962M 17003M 17010M 17012M
             17019M 17051  17112M 17114M 17153M 17155M 17248  17275  17367  17394  17435M 17438  17750M 17755M 17759M
             17760M 17776M 17781M 17782  17844M 17872M 18109M 18156M 18182M 18205M 18205  18243M 18385  18419  18448
             18491  18554M 18555M 18555  18564M 18564  18589M 18590M 18590  18599M 18599  18676M 18755  18784  18785
             18798M 18799  18823M 18865  18894M 18903M 18903  18925  18956M 18999  19028  19029  19042M 19043  19067M
             19109  19138M 19147M 19147  19169  19200M 19243  19292  19436  19647  19810M 19812  19813  19911M 19943
             20143  20170  20280M 20365  20417M 20418M 20419  20443  20462M 20463M 20463  20479  20493M 20521  20523
             20529M 20530M 20531  20541  20606M 20607M 20608  20691M 20692M 20692  20713  20765M 20766M 20767  20798M
             20799M 20800  20802M 20888  21007  21052M 21053M 21054  21093  21169M 21170M 21170  21197M 21270  21336M
             21378  21426M 21428  21429  21437M 21438  21444  21445M 21446  21447  21448M 21448  21449  21450  21467M
             21467  21502M 21535M 21537  21538  21546M 21547  21553M 21554  21555M 21556  21623  21663  21668M 21812
             21841  22043M 22092  22210  22257  22284  22484M 22510  22804M 22863  22951  22993  23037  23064  23091
             23119  23169M 23170M 23171  23250M 23251M 23252  23254M 23258M 23259M 23275M 23280M 23281  23383M 23385
             23386  23415  23500M 23501M 23501  23517  23525M 23556M 23571M 23571  23572  23617M 23619  23620  23629M
             23631  23632  23672M 23705  23765  23803  23849M 23892M 23915M 23938M 23988M 24011M 24034M 24056M 24125M
             24175M 24274  24307M 24314  24318M 24319M 24321  24341M 24371  24421  24457  24487  24524  24553  24615
             24665M 24674  24696M 24698  24718M 24749  24809  24820  24853  24898  24957  24991  25036M 25045  25069
             25117  25163M 25172  25196  25302  25337  25372M 25403  25529M 25557  25625M 25647M 25659M 25670  25690M
             25718  25786M 25808M 25820M 25831  25851M 25890  25928M 25928  25942  25948  26035M 26076M 26076  26100
             26129M 26129  26138M 26138  26220  26279  26362M 26362  26363M 26443  26556  26643M 26668  26794M 26819
             26932  26975M 27000  27126M 27151  27264  27308M 27333  27459M 27487  27601  27630  27673  27742M 27770
             27896M 27924  28055  28085  28129  28157  28184  28211  28239  28300  28326M 28328M 28336M 28343M 28347M
             28349  28350  28390  28509  28539  28583  28611  28638  28665  28693  28754  28780M 28782M 28790M 28797M
             28801M 28803  28804  28844  28910M 29120M 29120  29165M 29165  29207  29235  29271M 29311M 29311  29357
             29432  29488  29498M 29500  29501  29560  29595M 29620  29746M 29775  29812M 29812  29818  29862M 29862
             29876  29885  29893  30033  30062  30082  30091  30120  30266  30329M 30331  30332  30367M 30392  30469M
             30497  30585M 30623M 30691  30727M 30727  30744  30753  30836M 30871  30921M 30921  30938  30947  31046
             31170M 31199  31277  31319  31347  31367  31391  31428M 31484M 31484  31498  31509M 31528  31617  31648M
             31704  31734  31744M 31748M 31821  31851  31895  31923  31935  31955  32057  32138  32165  32194M 32201M
             32229  32263M 32342  32386  32413  32442M 32449M 32477  32551  32666M 32675  32697M 32726  32770  33078M
             33106  33604M 33636M 33690M 33786  33826  33872  33913  33922  33934  33991M 33991  33995M 33996M 34017
             34025M 34027M 34072  34122  34216M 34223  34225  34234M 34240M 34247  34371  34400M 34401M 34402M 34403
             34433M 34434M 34444  34463M 34514  34540M 34541M 34553  34569M 34583  34611  34614  34619M 34646  34665M
             34784  34835  34901  34927M 34974M 35034  35080  35119M 35121  35149M 35186M 35188  35208M 35258  35304
             35327M 35328  35331M 35362M 35468  35469M 35476M 35477M 35521M 35521  35530  35545  35556M 35557M 35565M
             35566M 35582M 35582  35587M 35603M 35603  35654M 35654  35700M 35701M 35702  35734  35782M 35821M 35921M
             35922M 35923  35944M 36052  36261M 36263  36264  36306M 36358  36525  36569M 36596  36692M 36719  36818M
             36819M 36930M 36931M 36932  36957M 36982M 36996M 37017M 37044M 37093  37155M 37223M 37223  37248M 37248
             37273M 37273  37292M 37317M 37317  37395M 37415M 37457M 37535M 37553M 37621M 37662M 37746M 37770M 37788M
             37816M 37834M 37862M 37890M 37925M 37957M 37988M 38018M 38018  38065M 38101M 38123  38194M 38194  38216M
             38244M 38273  38320  38334M 38334  38359M 38359  38374M 38404M 38441M 38510M 38578M 38596M 38621M 38639M
             38675M 38757M 38757  38791M 38847  38907M 38934  38994M 39067M 39067  39076  39085  39094M 39191  39210M
             39278M 39278  39287  39296  39325M 39325  39352M 39352  39826M 39833  39851M 39852  39914M 39914  39975M
             39982
     1(1)      978U  2134   2197M  2198M  2204M 13471  13579M 13598M 13684M 13684  13686  13687M 13688  13700M 13700
             13701M 13935M 13936  13937  13939M 13940  13941  14000M 14006M 14022M 14022  14027  14028M 14038  14040M
             14040  14042  14043  14044M 14045M 14046  14083  14084M 14105M 14111M 14127M 14127  14132  14133M 14143
             14145M 14145  14147  14148  14149M 14150M 14151  14190  14191M 14225M 14306  14327  14336M 14463  14504
1         (DISP2193) (12:42) (15MAR04) General Purpose Register Cross Reference                                             Page  217
             14539  14579M 14612M 14613  14681  14709  14820  14848  15000  15028  15055  15115  15244M 15245M 15285
             15319  15332M 15429M 15430M 15669M 15684M 15747M 15748M 15758M 15759M 15762M 15763M 15772M 15877M 15894M
             15927M 15989M 16052M 16053M 16055  16159M 16201M 16211M 16221  16325M 16404M 16602M 16631M 16665M 16772M
             16935  16956M 17004M 17010M 17013M 17019M 17051  17113M 17114M 17154M 17155M 17248  17275  17367  17394
             17424  17435M 17438  17552M 17569M 17643M 17732M 17736M 17737M 17739M 17751M 17751  17752M 17752  17755M
             17757M 17769M 17782  17790  17851M 17867M 18070M 18072M 18072  18084M 18086M 18086  18108M 18155M 18177M
             18242M 18385  18419  18448  18491  18675M 18755  18799  18823M 18865  18894M 18956M 18999  19043  19067M
             19109  19138M 19200M 19243  19292  19436  19484M 19485  19486  19491M 19491  19492  19493  19518M 19647
             19695M 19696  19697  19702M 19702  19703  19704  19729M 19911M 19943  19972  20084M 20085  20086  20091M
             20091  20092  20093  20143  20170  20180M 20181  20182  20187M 20187  20188  20189  20280M 20443  20479
             20492M 20502M 20541  20713  20739M 20750M 20803M 20968M 20983M 21007  21093  21128M 21191M 21270  21356M
             21356  21369  21378  21387M 21388M 21389M 21390  21420U 21427  21430  21458U 21536  21537  21539  21545N
             21546N 21623  21664  21673  21714  21715  21754  21772  21812  21841  22000M 22043M 22092  22210  22257
             22284  22378M 22379  22380  22385M 22385  22386  22387  22484M 22510  22751M 22804M 22863  22951  22993
             23037  23064  23091  23119  23189M 23208M 23254M 23256M 23268M 23281  23415  23517  23538M 23551M 23672M
             23705  23765  23803  23856M 23899M 23922M 23945M 23995M 24018M 24041M 24063M 24132M 24146M 24151M 24175M
             24274  24317  24318  24341M 24371  24487M 24489M 24490M 24500U 24524  24553  24561  24615  24659M 24674
             24691U 24718M 24749  24809  24853  24898  24957  24991  25030M 25045  25069  25117  25157M 25172  25196
             25214M 25215  25216  25221M 25221  25222  25223  25302  25337  25372M 25403  25529M 25557  25690M 25718
             25851M 25890  25948M 25950M 25951M 25961U 26016U 26035M 26279  26443  26556  26643M 26668  26794M 26819
             26932  26975M 27000  27126M 27151  27264  27308M 27333  27459M 27487  27601  27630  27673  27690M 27690
             27702M 27702  27742M 27770  27896M 27924  28055  28085  28129  28157  28184  28211  28239  28300  28327M
             28328M 28337M 28343M 28390  28410M 28411  28412  28417M 28417  28418  28419  28509  28539  28583  28611
             28638  28665  28693  28754  28781M 28782M 28791M 28797M 28844  28864M 28865  28866  28871M 28871  28872
             28873  28910M 29207  29235  29357  29432  29488  29560  29595M 29620  29746M 29775  29818M 29885  30033
             30062  30091  30120  30266  30283M 30284  30285  30290M 30290  30291  30292  30367M 30392  30469M 30497
             30623M 30691  30836M 30871  30947M 30949M 30950M 30960U 31046  31063  31146U 31170M 31199  31277  31319
             31347  31391  31428M 31508M 31528M 31530M 31531M 31532M 31540U 31617  31647M 31704  31734  31745M 31747
             31748M 31779U 31821  31851  31895  31923  31935M 31955  31986M 32057  32076M 32076  32090  32138  32165
             32177M 32178M 32179  32203M 32229  32342  32386  32413  32425M 32426M 32427  32451M 32477  32551  32660M
             32675  32697M 32726  32770  33078M 33106  33604M 33786  33826  33872  33913  33967M 33992M 33994M 33995M
             34026M 34027  34028M 34037M 34037  34072  34122  34145M 34147M 34147  34217M 34224  34225  34226M 34228M
             34228  34234M 34241M 34248  34256M 34258M 34258  34371  34416M 34416  34432M 34444  34463M 34514  34613
             34618M 34646  34665M 34784  34811M 34835  34901  34928M 34928  34952M 34952  34954  34974M 35034  35080
             35120M 35121  35123M 35163M 35163  35188  35208M 35258  35304  35326  35327M 35329  35331M 35362M 35463M
             35468  35476M 35496M 35496  35523M 35523  35530M 35531M 35532M 35533  35554M 35560M 35565  35699M 35702M
             35734  35763M 35765M 35765  35784M 35784  35786  35823M 35823  35825  35854M 35866  35891M 35943M 35943
             35944M 36052  36120M 36129  36278M 36280M 36280  36306M 36358  36407M 36415  36440M 36441  36442  36447M
             36447  36448  36449  36525  36532M 36569M 36596  36664M 36692M 36719  36745  36816M 36841M 36952M 36978M
             36997M 37044M 37093  37154M 37219M 37291M 37394M 37414M 37450M 37528M 37552M 37628M 37661M 37745M 37763M
             37787M 37811M 37833M 37857M 37889M 37918M 37956M 37983M 38064M 38101M 38123  38215M 38244M 38273  38320
             38374M 38403M 38440M 38503M 38571M 38595M 38614M 38638M 38674M 38791M 38847  38907M 38934  38994M 39076
             39084  39123M 39149M 39191  39201M 39212M 39287  39295  39326M 39353M 39657  39827M 39834  39904M 39905M
             39905  39976M 39983
     2(2)      974U  2134  13471  13811M 13816  13829  13844U 13858M 13864U 13945M 13954M 13954  13961M 13976M 13976
             13987M 14005M 14006  14044  14046M 14084  14110M 14111  14149  14151M 14191  14225M 14306  14327  14463
             14504  14539  14586M 14587M 14587  14608U 14619U 14681  14820  14848  15000  15028  15055  15086M 15087M
             15087  15099M 15115  15139  15148M 15148  15149  15159  15222M 15222  15238  15250  15256M 15257M 15257
             15269M 15285  15310  15319  15328  15407M 15407  15423  15435  15832M 15840U 15855  15861M 15926  16040U
             16270M 16429M 16470  16935  17051  17090M 17091M 17091  17107  17131M 17132M 17132  17148  17248  17275
             17367  17394  17435M 17438  17475M 17475  17667M 17667  17744M 17790N 17791M 18385  18419  18448  18491
             18755  18823M 18865  18956M 18999  19067M 19109  19200M 19243  19292  19436  19647  19911M 19943  20143
             20170  20280M 20340  20379M 20397M 20397  20420  20443  20451  20479  20524  20541  20713  20843  21007
             21093  21101M 21141M 21141  21147  21148M 21148  21215  21216M 21228  21270  21296  21378  21396M 21623
             21699M 21708M 21708  21748U 21770U 21812  21841  21853M 21853  21870M 22023  22043M 22092  22210  22257
             22284  22484M 22510  22670M 22671M 22671  22692U 22762U 22804M 22863  22951  22993  23037  23064  23091
             23119  23173M 23174M 23184U 23244U 23348M 23349M 23359U 23378U 23415  23517  23672M 23705  23765  23803
             24175M 24274  24313M 24314M 24315  24341M 24371  24524  24553  24615  24674  24718M 24749  24809  24853
             24898  24957  24991  25045  25069  25117  25172  25196  25302  25337  25372M 25403  25529M 25557  25599M
1         (DISP2193) (12:42) (15MAR04) General Purpose Register Cross Reference                                             Page  218
             25600M 25600  25621U 25631U 25690M 25718  25760M 25761M 25761  25782U 25792U 25851M 25890  26035M 26053
             26082M 26094  26100N 26101M 26102  26142M 26163  26181M 26181  26196  26202N 26226N 26269M 26279  26286M
             26304  26334M 26334  26348  26354N 26368M 26384M 26443  26485M 26486M 26486  26507U 26520U 26556  26643M
             26668  26794M 26819  26861M 26862M 26862  26883U 26896U 26932  26975M 27000  27126M 27151  27193M 27194M
             27194  27215U 27228U 27264  27308M 27333  27459M 27487  27529M 27530M 27530  27551U 27564U 27601  27630
             27673  27742M 27770  27896M 27924  28055  28085  28129  28157  28184  28211  28239  28278M 28279M 28300
             28315N 28390  28509  28539  28583  28611  28638  28665  28693  28732M 28733M 28754  28769N 28844  28910M
             28928  28974M 28975M 28975  29014  29053M 29054  29061U 29066M 29092  29112M 29113  29131U 29207  29235
             29276M 29277M 29278  29290  29297  29305M 29306M 29307  29315M 29357  29432  29488  29560  29595M 29620
             29746M 29775  29824M 29825M 29826  29885  30033  30062  30091  30120  30266  30294M 30295M 30305U 30324U
             30367M 30392  30469M 30497  30623M 30691  30753M 30755M 30756M 30766U 30817U 30836M 30871  31013M 31046
             31069  31170M 31199  31277  31319  31347  31376D 31378M 31378  31379M 31380U 31391  31428M 31459  31617
             31704  31734  31746M 31748M 31821  31851  31895  31923  31955  31990M 32021  32057  32138  32165  32229
             32282M 32306  32342  32386  32413  32477  32522M 32551  32578M 32582M 32583M 32601M 32619M 32619  32675
             32697M 32726  32770  32834M 32846  32877  33078M 33106  33151M 33239D 33241M 33241  33242M 33243U 33281M
             33281  33295  33368M 33369M 33384  33604M 33621  33675  33730  33786  33826  33872  33913  33968M 33985U
             34035U 34038M 34072  34122  34209M 34225  34234M 34251  34263M 34371  34428M 34429M 34430  34463M 34514
             34665M 34784  34835  34901  34934M 34935M 34936  34974M 35034  35080  35102M 35113M 35113  35119  35121M
             35123  35127M 35130  35166M 35169  35179M 35182  35208M 35258  35304  35326M 35328  35331  35336M 35339
             35362M 35419  35461M 35462M 35463  35468  35470M 35471M 35471  35472M 35472  35473  35476M 35662M 35734
             35852M 35853M 35866  36015M 36052  36061M 36306M 36358  36525  36569M 36596  36692M 36719  37044M 37093
             37904M 37918  37946M 37946  38101M 38123  38244M 38273  38318M 38419M 38429  38482U 38492M 38614  38691M
             38691  38725  38741U 38791M 38813  38816D 38818M 38818  38819M 38820U 38823  38824M 38847  38875M 38892
             38907M 38934  38962M 38979  38994M 39033  39076  39191  39226M 39254  39287  39367M 39389  39421M 39437M
             39442B 39453M 39474  39506M 39507B 39518M 39805M 39986
     3(3)      970U  2134  13471  13812M 13814M 13815M 13816M 13829  13879U 13907U 14027M 14060  14085M 14132M 14166
             14192M 14225M 14306  14327  14463  14504  14539  14681  14820  14848  15000  15028  15055  15115  15159M
             15160M 15161M 15176  15194M 15194  15200  15285  15319  15328M 15329M 15330M 15342  15379M 15379  15385
             15806M 15927  16026M 16761M 16788  16935  17051  17248  17275  17367  17394  17435M 17438  17477M 17594M
             18385  18419  18448  18491  18755  18784M 18798  18823M 18865  18956M 18999  19028M 19042  19067M 19109
             19200M 19243  19292  19436  19647  19911M 19943  20143  20170  20280M 20340  20425M 20426M 20426  20443
             20479  20541  20713  20760M 20761  20843  21007  21076M 21077M 21077  21093  21207M 21270  21296  21378
             21396M 21623  21664M 21697  21812  21841  22043M 22092  22156M 22169  22210  22257  22284  22484M 22510
             22804M 22863  22932M 22942M 22942  22951  22968U 22993  23037  23064  23091  23119  23333  23415  23467
             23481  23517  23654U 23672M 23705  23765  23803  23862M 23863M 23873U 23956U 23959M 23969U 24074U 24175M
             24274  24341M 24371  24524  24553  24615  24674  24718M 24749  24809  24853  24898  24957  24991  25045
             25069  25117  25172  25196  25302  25337  25372M 25403  25529M 25557  25690M 25718  25851M 25890  26035M
             26053  26142M 26163  26183M 26184M 26235M 26235  26243  26270M 26279  26286M 26304  26354M 26384M 26443
             26556  26643M 26668  26794M 26819  26932  26975M 27000  27126M 27151  27264  27308M 27333  27459M 27487
             27601  27630  27673  27742M 27770  27896M 27924  28055  28085  28129  28157  28184  28211  28239  28300
             28390  28509  28539  28583  28611  28638  28665  28693  28754  28844  28910M 28928  29010M 29011  29013
             29088M 29089  29091  29207  29235  29315M 29357  29432  29488  29560  29595M 29620  29746M 29775  29885
             29893M 29895M 29896M 29906U 29937  29965  30033  30053  30062  30091  30120  30191  30214U 30266  30367M
             30392  30469M 30497  30623M 30691  30836M 30871  31006M 31013  31023U 31029M 31030M 31030  31046  31063
             31080U 31170M 31199  31277  31319  31347  31381M 31391  31428M 31459  31617  31704  31734  31747M 31748M
             31821  31851  31895  31923  31955  31990M 32021  32057  32138  32165  32174M 32206  32229  32282M 32306
             32342  32386  32413  32422M 32454  32477  32522M 32551  32578M 32580M 32633  32675  32697M 32726  32770
             33078M 33106  33359M 33604M 33621  33675  33730  33786  33826  33872  33913  34017M 34018M 34018N 34019
             34042M 34046  34072  34122  34225  34234M 34263M 34371  34398M 34413  34420  34463M 34514  34665M 34784
             34835  34901  34911D 34913M 34913  34914M 34915U 34929  34974M 35034  35080  35102M 35120  35121M 35128M
             35129  35131M 35150M 35160  35167M 35168  35170M 35180M 35181  35183M 35208M 35258  35304  35329M 35330M
             35331  35337M 35338  35340M 35362M 35419  35468  35473M 35476M 35662M 35734  35872M 35873M 36016M 36017
             36030  36052  36062M 36063M 36087M 36097U 36132  36244U 36306M 36358  36525  36569M 36596  36692M 36719
             37044M 37093  37697M 37722M 37722  37737U 37880U 38101M 38123  38244M 38273  38418M 38429  38693M 38693
             38725  38791M 38847  38907M 38934  38994M 39033  39076  39191  39226M 39254  39287  39367M 39389  39453M
             39474  39518M
     4(4)      966U  2134  13471  13705M 13720  13739  13742M 14225M 14306  14327  14463  14504  14539  14681  14750M
             14776M 14776  14795U 14820  14848  14885  14886  14888  14889  14895U 14957M 14975U 15000  15028  15055
             15067  15068  15070  15071  15077U 15115  15285  15319  15806M 16026  16232M 16232  16350M 16350  16396
1         (DISP2193) (12:42) (15MAR04) General Purpose Register Cross Reference                                             Page  219
             16415M 16935  17051  17248  17275  17367  17394  17435M 17438  17477M 17594  18385  18419  18448  18491
             18755  18823M 18865  18956M 18999  19067M 19109  19200M 19243  19292  19389M 19390M 19390  19411U 19436
             19483  19484  19492  19493  19503U 19600M 19601M 19601  19622U 19647  19694  19695  19703  19704  19714U
             19764M 19765M 19765  19786U 19811  19812  19814  19815  19821U 19911M 19943  20009M 20035U 20046M 20055
             20061M 20083  20084  20092  20093  20095  20143  20170  20179  20180  20188  20189  20250  20262U 20280M
             20340  20422M 20443  20479  20541  20601U 20643M 20657  20665M 20666M 20666  20713  20739  20750  20803
             20843  20904M 20918  20924M 20968  20983  21007  21093  21270  21296  21378  21396M 21572U 21623  21663M
             21796M 21796  21812  21841  21882M 21882  21946M 21946  21992  22011M 22043M 22092  22155M 22156  22175M
             22185U 22210  22257  22284  22377  22378  22386  22387  22458U 22484M 22510  22633M 22634M 22644U 22771U
             22804M 22863  22895M 22904M 22904  22914N 22916M 22928U 22951  22984  22993  23037  23064  23091  23119
             23384  23385  23387  23388  23415  23517  23618  23619  23621  23630  23631  23633  23634  23659U 23672M
             23705  23740U 23765  23803  24162U 24175M 24274  24341M 24371  24524  24553  24580M 24590U 24615  24623N
             24629U 24674  24718M 24749  24809  24853  24898  24957  24991  25003M 25004M 25004  25045  25069  25092U
             25117  25172  25176M 25196  25213  25214  25222  25223  25232U 25302  25337  25372M 25403  25529M 25557
             25690M 25718  25851M 25890  26035M 26053  26142M 26163  26206D 26208M 26208  26209M 26210U 26220  26279
             26286M 26304  26384M 26443  26513M 26531U 26556  26619U 26643M 26668  26794M 26819  26889M 26907U 26932
             26952U 26975M 27000  27126M 27151  27221M 27239U 27264  27285U 27308M 27333  27459M 27487  27557M 27576U
             27601  27630  27673  27719U 27742M 27770  27896M 27924  28055  28085  28094M 28104U 28129  28157  28184
             28211  28239  28300  28348  28349  28351  28352  28354M 28390  28398  28409  28410  28418  28419  28427U
             28509  28539  28548M 28558U 28583  28611  28638  28665  28693  28754  28802  28803  28805  28806  28808M
             28844  28852  28863  28864  28872  28873  28881U 28910M 28928  29007M 29008  29013M 29085M 29086  29091M
             29148M 29149M 29149  29181U 29207  29235  29259U 29268  29315M 29357  29432  29453M 29463U 29488  29499
             29500  29502  29503  29519U 29560  29595M 29620  29746M 29775  29885  29985M 29986M 29986  30007U 30033
             30062  30091  30120  30176U 30227M 30227  30242U 30266  30282  30283  30291  30292  30330  30331  30333
             30334  30340U 30367M 30392  30469M 30497  30526M 30541  30597M 30623M 30691  30836M 30871  31046  31170M
             31199  31228M 31238  31253U 31257M 31277  31310  31319  31347  31391  31409U 31428M 31459  31581M 31591U
             31617  31704  31734  31763U 31821  31851  31859M 31869U 31895  31923  31934  31955  31973U 31990M 32021
             32057  32138  32165  32229  32282M 32306  32342  32386  32413  32477  32522M 32551  32675  32697M 32726
             32770  33078M 33106  33343M 33353U 33366U 33604M 33621  33675  33730  33786  33795M 33803U 33826  33872
             33913  34072  34122  34225  34234M 34263M 34271U 34371  34403M 34422  34424N 34429  34433  34463M 34514
             34665M 34784  34812M 34813N 34835  34901  34927  34935  34974M 35034  35080  35129M 35130M 35131  35168M
             35169M 35170  35181M 35182M 35183  35208M 35258  35304  35338M 35339M 35340  35362M 35419  35468  35473M
             35476M 35662M 35734  36017M 36018M 36030  36052  36072M 36082U 36134  36250U 36258M 36262  36263  36265
             36266  36306M 36358  36421M 36431U 36439  36440  36448  36449  36500  36525  36551U 36569M 36596  36692M
             36719  37044M 37093  37173M 37183  37198U 37203M 37209U 37334M 37359  37377U 37383M 37450  38039U 38101M
             38123  38244M 38273  38791M 38847  38907M 38934  38994M 39033  39076  39191  39226M 39254  39287  39367M
             39389  39453M 39474  39518M 39668M 39676U 39794N 39796  40002U
     5(5)      962U  2134  13471  13613M 13613  13650  13651M 13670  13672M 13673  13699  13706M 13735U 13741M 13748U
             13756M 13809  13811  13900M 14225M 14306  14327  14463  14504  14539  14681  14820  14848  15000  15028
             15055  15115  15285  15319  15806M 16026  16233M 16249U 16263M 16264M 16264  16415  16421U 16539M 16547U
             16730U 16742U 16744M 16935  17051  17248  17275  17367  17394  17435M 17438  17454U 17477M 17594  17606M
             17622U 17636M 17637M 17637  17651U 18018M 18019M 18019  18043U 18093U 18385  18419  18448  18491  18755
             18823M 18865  18956M 18999  19067M 19109  19200M 19243  19292  19361M 19362M 19362  19383U 19436  19543U
             19552M 19553M 19553  19576  19594U 19647  19749M 19750M 19750  19855U 19911M 19943  19972M 19982U 20143
             20170  20249  20267U 20280M 20340  20412U 20443  20479  20493  20541  20713  20802  20843  21007  21093
             21270  21296  21336  21378  21390M 21396M 21579U 21623  21673M 21683U 21745U 21765U 21783U 21812  21841
             21883M 21899U 21913M 21914M 21914  22011  22017U 22043M 22092  22157M 22169  22175  22210  22218M 22257
             22284  22484M 22510  22579M 22595U 22609M 22610M 22610  22780U 22804M 22863  22895M 22915N 22916M 22951
             22993  23001M 23011U 23037  23064  23091  23119  23415  23517  23649U 23672M 23705  23765  23803  24175M
             24274  24341M 24371  24457M 24524  24553  24615  24674  24696  24718M 24749  24809  24820M 24844  24853
             24862M 24863M 24873U 24898  24917  24948  24957  24991  24999  25045  25069  25117  25172  25196  25237U
             25255M 25266  25302  25317  25337  25372M 25403  25529M 25557  25690M 25718  25851M 25890  26035M 26053
             26142M 26163  26182M 26183  26196  26262M 26263  26279  26286M 26304  26384M 26443  26556  26590M 26591M
             26601U 26610U 26643M 26668  26794M 26819  26932  26975M 27000  27126M 27151  27264  27308M 27333  27459M
             27487  27601  27610M 27621  27630  27638M 27648U 27673  27714U 27742M 27770  27896M 27924  28019M 28020M
             28030U 28055  28064  28085  28129  28157  28184  28211  28239  28300  28390  28432U 28473M 28474M 28484U
             28509  28518  28539  28583  28611  28638  28665  28693  28754  28844  28886U 28910M 28928  29006M 29006
             29014M 29039M 29039  29084M 29084  29092M 29123M 29123  29141U 29198  29207  29235  29315M 29330U 29357
             29399M 29400M 29400  29432  29449U 29488  29524U 29560  29595M 29620  29746M 29775  29885  29911M 29921U
1         (DISP2193) (12:42) (15MAR04) General Purpose Register Cross Reference                                             Page  220
             30033  30062  30091  30120  30208U 30266  30367M 30392  30469M 30497  30527M 30556U 30596M 30603U 30623M
             30691  30836M 30871  30989M 30999U 31046  31141U 31170M 31199  31258M 31268M 31268  31277  31294U 31319
             31347  31391  31404U 31428M 31459  31617  31667M 31668M 31678U 31704  31713  31734  31755U 31784M 31785M
             31795U 31821  31830  31851  31895  31923  31955  31981U 31990M 32021  32036M 32057  32112U 32138  32165
             32229  32270U 32282M 32306  32321M 32342  32360U 32386  32413  32477  32517U 32522M 32551  32642M 32643M
             32644  32675  32697M 32726  32770  32833M 32833  32852M 32853M 32857  32859M 32860M 32883M 32884M 32888
             32890M 32891M 32907M 32907  32913  32920M 32920  32942M 32942  32953M 32975M 32975  32986M 32986  33050M
             33078M 33106  33604M 33621  33675  33730  33786  33826  33872  33881M 33882M 33890U 33913  34072  34122
             34225  34234M 34263M 34278U 34371  34463M 34514  34665M 34784  34835  34901  34974M 35034  35080  35208M
             35258  35304  35362M 35419  35468  35476M 35662M 35734  35825M 35835U 35852  35854  35938  36052  36288U
             36306M 36358  36460M 36506  36525  36569M 36596  36625M 36643  36662M 36692M 36719  36855M 36856M 36866U
             36890  36978  36997  37006U 37044M 37093  37148M 37346M 37346  38033M 38053M 38053  38101M 38123  38244M
             38273  38472M 38472  38652M 38664  38791M 38847  38907M 38934  38994M 39033  39076  39191  39226M 39254
             39287  39367M 39389  39453M 39474  39518M 39795M 39796
     6(6)      958U  1153U  2134  13471  13614M 13628  13643U 13646U 13652M 13662U 13665U 13757M 13771  13786U 13789U
             13848  13884  13914M 13924U 13927U 14042M 14075U 14078U 14086M 14086  14096U 14099U 14147M 14181U 14184U
             14193M 14193  14203U 14206U 14225M 14306  14327  14463  14504  14516M 14539  14681  14820  14848  15000
             15028  15055  15115  15285  15319  15951M 15980  16069M 16070M 16070  16077M 16150  16287M 16316  16571M
             16602  16636  16670  16687M 16704  16760M 16772  16838  16839  16935  16982  17051  17071  17077  17248
             17275  17367  17394  17435M 17438  17465U 17503M 17513U 17530  17536M 17590U 18002M 18012U 18098U 18385
             18389M 18397U 18419  18448  18491  18625M 18625  18630  18635  18755  18823M 18865  18956M 18999  19067M
             19109  19200M 19243  19292  19436  19647  19911M 19943  20143  20170  20280M 20340  20365M 20372M 20443
             20479  20492  20502  20541  20713  20801  20843  20888M 20895M 20925  21007  21093  21101  21102M 21116
             21122M 21128  21182  21209M 21215M 21254M 21254  21260M 21260  21270  21296  21378  21396M 21417U 21527U
             21586U 21623  21649M 21658U 21812  21841  22030U 22043M 22092  22210  22257  22284  22293M 22294M 22304U
             22351M 22368U 22371U 22441U 22444U 22449U 22484M 22510  22804M 22863  22951  22993  23037  23064  23091
             23119  23396M 23406M 23406  23415  23431U 23517  23538  23556  23644U 23672M 23705  23765  23803  24093M
             24110U 24143U 24175M 24274  24341M 24371  24430M 24439U 24524  24544  24553  24615  24650  24674  24705U
             24718M 24749  24775M 24784U 24809  24853  24889  24898  24957  24991  25021  25045  25069  25117  25148
             25172  25196  25302  25337  25359U 25372M 25403  25529M 25557  25583M 25592U 25677U 25690M 25718  25744M
             25753U 25838U 25851M 25890  26035M 26053  26142M 26163  26279  26286M 26304  26384M 26443  26469M 26478U
             26556  26630U 26643M 26668  26794M 26819  26845M 26854U 26932  26962U 26975M 27000  27126M 27151  27177M
             27186U 27264  27295U 27308M 27333  27459M 27487  27513M 27522U 27601  27630  27673  27729U 27742M 27770
             27896M 27924  27969M 27978U 28001M 28009  28055  28085  28129  28157  28184  28211  28239  28269  28278N
             28300  28354  28390  28455M 28463  28509  28539  28583  28611  28638  28665  28693  28723  28732N 28754
             28808  28844  28897U 28910M 28928  28943M 28951U 29207  29235  29245  29315M 29323U 29357  29383M 29392U
             29432  29488  29560  29582U 29595M 29620  29746M 29775  29835M 29844U 29885  30033  30062  30091  30111
             30120  30266  30354U 30367M 30392  30469M 30497  30623M 30691  30836M 30871  30897M 30906U 31046  31086
             31157U 31170M 31199  31277  31319  31347  31391  31428M 31459  31542M 31617  31704  31734  31821  31851
             31895  31923  31955  31986  31990M 32021  32057  32138  32165  32229  32282M 32306  32342  32386  32413
             32477  32522M 32551  32645M 32651  32675  32697M 32726  32770  33078M 33106  33604M 33621  33675  33730
             33786  33826  33872  33913  34072  34122  34225  34234M 34263M 34371  34397M 34423  34463M 34514  34602M
             34612  34665M 34784  34810M 34835  34901  34918  34974M 35034  35080  35088M 35098U 35195U 35208M 35258
             35304  35312M 35322U 35349U 35362M 35419  35468  35476M 35662M 35734  35786M 35796U 35953  36052  36207
             36256  36293U 36306M 36358  36453M 36460  36470U 36484M 36485M 36485  36500  36517U 36525  36569M 36596
             36643M 36658U 36672U 36692M 36719  36745M 36755U 36952  37031U 37044M 37093  38101M 38123  38244M 38273
             38791M 38847  38907M 38934  38994M 39033  39076  39191  39226M 39254  39287  39367M 39389  39453M 39474
             39518M 39667M 39987B
     7(7)      954U  2127M  2127   2128B  2134   2140B 13471  13476M 13488U 14217U 14225M 14271M 14281U 14306  14327
             14365M 14374U 14377U 14396U 14423M 14433U 14439M 14448U 14451U 14463  14504  14539  14681  14820  14848
             15000  15028  15055  15115  15285  15319  15455M 15465U 15468U 15474M 15483U 15486U 16935  17051  17248
             17275  17367  17394  17435M 17438  18346M 18356U 18359U 18365M 18374U 18377U 18385  18419  18448  18491
             18709U 18755  18760M 18772U 18815U 18823M 18865  18870M 18882U 18948U 18956M 18999  19004M 19016U 19059U
             19067M 19109  19114M 19126U 19192U 19200M 19243  19248M 19260U 19292  19436  19647  19903U 19911M 19943
             19948M 19960U 20143  20170  20272U 20280M 20340  20345M 20355U 20443  20479  20541  20713  20843  20848M
             20858U 20861U 20867M 20876U 20879U 21007  21093  21270  21296  21301M 21311U 21314U 21320M 21329U 21332U
             21378  21396M 21592U 21623  21628M 21640U 21812  21841  22035U 22043M 22092  22098M 22110U 22210  22257
             22284  22476U 22484M 22510  22515M 22527U 22796U 22804M 22863  22868M 22880U 22951  22993  23037  23064
             23091  23119  23415  23517  23664U 23672M 23705  23710M 23722U 23765  23803  24167U 24175M 24274  24279M
1         (DISP2193) (12:42) (15MAR04) General Purpose Register Cross Reference                                             Page  221
             24291U 24333U 24341M 24371  24376M 24388U 24524  24553  24615  24674  24710U 24718M 24749  24754M 24766U
             24809  24853  24898  24957  24991  25045  25069  25117  25172  25196  25302  25337  25364U 25372M 25403
             25408M 25420U 25521U 25529M 25557  25562M 25574U 25682U 25690M 25718  25723M 25735U 25843U 25851M 25890
             25895M 25907U 26027U 26035M 26053  26056M 26066U 26142M 26149U 26163  26166M 26176U 26279  26286M 26293U
             26304  26307M 26317U 26384M 26391U 26443  26448M 26460U 26556  26635U 26643M 26668  26673M 26685U 26786U
             26794M 26819  26824M 26836U 26932  26967U 26975M 27000  27005M 27017U 27118U 27126M 27151  27156M 27168U
             27264  27300U 27308M 27333  27338M 27350U 27451U 27459M 27487  27492M 27504U 27601  27630  27673  27734U
             27742M 27770  27775M 27787U 27888U 27896M 27924  27929M 27941U 28055  28085  28129  28157  28184  28211
             28239  28300  28390  28509  28539  28583  28611  28638  28665  28693  28754  28844  28902U 28910M 28928
             28931M 28941U 29207  29235  29315M 29336U 29357  29362M 29374U 29432  29488  29560  29587U 29595M 29620
             29625M 29637U 29738U 29746M 29775  29780M 29792U 29885  30033  30062  30091  30120  30266  30359U 30367M
             30392  30397M 30409U 30461U 30469M 30497  30502M 30514U 30615U 30623M 30691  30696M 30708U 30828U 30836M
             30871  30876M 30888U 31046  31162U 31170M 31199  31204M 31216U 31277  31319  31347  31391  31420U 31428M
             31459  31462M 31472U 31617  31704  31734  31821  31851  31895  31923  31955  31990M 31998U 32021  32024M
             32034U 32057  32138  32165  32229  32282M 32290U 32306  32309M 32319U 32342  32386  32413  32477  32522M
             32529U 32551  32556M 32568U 32675  32689U 32697M 32726  32731M 32743U 32770  33070U 33078M 33106  33111M
             33123U 33596U 33604M 33621  33624M 33634U 33641M 33650U 33653U 33662U 33675  33678M 33688U 33695M 33704U
             33707U 33716U 33730  33733M 33743U 33748M 33758U 33761U 33786  33826  33872  33913  34072  34122  34225
             34234M 34263M 34284U 34371  34376M 34388U 34455U 34463M 34514  34519M 34531U 34657U 34665M 34784  34789M
             34801U 34835  34901  34966U 34974M 35034  35039M 35051U 35080  35200U 35208M 35258  35263M 35275U 35304
             35354U 35362M 35419  35422M 35432U 35468  35476M 35662M 35676U 35683M 35693U 35709U 35734  35739M 35751U
             36052  36298U 36306M 36358  36363M 36375U 36525  36561U 36569M 36596  36601M 36613U 36684U 36692M 36719
             36724M 36736U 37036U 37044M 37093  37099M 37111U 38093U 38101M 38123  38128M 38140U 38236U 38244M 38273
             38278M 38290U 38783U 38791M 38847  38852M 38864U 38899U 38907M 38934  38939M 38951U 38986U 38994M 39033
             39036M 39046U 39076  39191  39226M 39240U 39254  39257M 39267U 39287  39367M 39374U 39389  39394M 39404U
             39453M 39460U 39474  39479M 39489U 39518M 39525U 39654U 39656M 40008U
     8(8)      950U  2134  13471  13472M 14221  14225M 14306  14327  14463  14504  14513M 14514  14539  14681  14820
             14848  15000  15028  15055  15115  15285  15319  16935  17051  17248  17275  17367  17394  17435M 17438
             18380M 18381  18385  18419  18448  18491  18755  18756M 18819  18823M 18865  18866M 18952  18956M 18999
             19000M 19063  19067M 19109  19110M 19196  19200M 19243  19244M 19292  19436  19647  19907  19911M 19943
             19944M 20143  20170  20276  20280M 20340  20341M 20443  20479  20541  20713  20843  20844M 21007  21093
             21270  21296  21297M 21378  21394  21396M 21623  21624M 21812  21841  22039  22043M 22092  22094M 22124U
             22210  22257  22284  22471U 22480  22484M 22510  22511M 22800  22804M 22863  22864M 22951  22993  23037
             23064  23091  23119  23415  23517  23668  23672M 23705  23706M 23765  23803  24171  24175M 24274  24275M
             24321N 24337  24341M 24371  24372M 24421N 24524  24553  24615  24674  24698N 24714  24718M 24749  24750M
             24809  24853  24898  24957  24991  25045  25069  25117  25172  25196  25302  25337  25368  25372M 25403
             25404M 25525  25529M 25557  25558M 25670N 25686  25690M 25718  25719M 25831N 25847  25851M 25890  25891M
             26031  26035M 26053  26054M 26140  26142M 26163  26164M 26279  26284  26286M 26304  26305M 26382  26384M
             26443  26444M 26556  26639  26643M 26668  26669M 26790  26794M 26819  26820M 26932  26971  26975M 27000
             27001M 27122  27126M 27151  27152M 27264  27304  27308M 27333  27334M 27455  27459M 27487  27488M 27601
             27630  27673  27738  27742M 27770  27771M 27892  27896M 27924  27925M 28055  28085  28129  28157  28184
             28211  28239  28300  28390  28509  28539  28583  28611  28638  28665  28693  28754  28844  28906  28910M
             28928  28929M 29207  29235  29313  29315M 29357  29358M 29432  29488  29560  29591  29595M 29620  29621M
             29742  29746M 29775  29776M 29885  30033  30062  30091  30120  30266  30363  30367M 30392  30393M 30465
             30469M 30497  30498M 30619  30623M 30691  30692M 30832  30836M 30871  30872M 31046  31166  31170M 31199
             31200M 31277  31319  31347  31391  31424  31428M 31459  31460M 31617  31704  31734  31821  31851  31895
             31923  31955  31988  31990M 32021  32022M 32057  32138  32165  32229  32280  32282M 32306  32307M 32342
             32386  32413  32477  32520  32522M 32551  32552M 32675  32693  32697M 32726  32727M 32770  33074  33078M
             33106  33107M 33600  33604M 33621  33622M 33675  33676M 33730  33731M 33786  33826  33872  33913  34072
             34122  34225  34234M 34261  34263M 34371  34372M 34444  34459  34463M 34514  34515M 34646  34661  34665M
             34784  34785M 34835  34901  34954N 34970  34974M 35034  35035M 35080  35188  35204  35208M 35258  35259M
             35304  35358  35362M 35419  35420M 35441U 35468  35476M 35660  35662M 35670U 35734  35735M 36052  36302
             36306M 36358  36359M 36525  36565  36569M 36596  36597M 36688  36692M 36719  36720M 37040  37044M 37093
             37095M 37125U 38088U 38097  38101M 38123  38124M 38240  38244M 38273  38274M 38787  38791M 38847  38848M
             38903  38907M 38934  38935M 38990  38994M 39033  39034M 39055U 39076  39191  39224  39226M 39234U 39254
             39255M 39287  39365  39367M 39389  39390M 39451  39453M 39474  39475M 39516  39518M
     9(9)      946U  2134  14306  14327  14463  14504  14539  14681  14820  14848  15000  15028  15055  15115  15285
             15319  16935  17051  17248  17275  17367  17394  17435M 17438  18385  18419  18448  18491  19292  19436
             19647  20143  20170  20443  20479  20541  20713  21007  21093  21270  21378  21812  21841  22210  22257
1         (DISP2193) (12:42) (15MAR04) General Purpose Register Cross Reference                                             Page  222
             22284  22951  22993  23037  23064  23091  23119  23415  23517  23765  23803  24317M 24322M 24322N 24524
             24553  24615  24623M 24674  24809  24853  24898  24957  24991  25045  25069  25117  25172  25196  25225M
             25266  25302  25317M 25337  25348M 25348N 25458M 25459  25460M 25503M 25504  25505M 25647  26279  26556
             26723M 26724  26725M 26768M 26769  26770M 26932  27055M 27056  27057M 27100M 27101  27102M 27264  27388M
             27389  27390M 27433M 27434  27435M 27601  27621  27630  27673  27825M 27826  27827M 27870M 27871  27872M
             28019  28055  28085  28129  28157  28184  28211  28239  28300  28390  28421M 28509  28539  28583  28611
             28638  28665  28693  28754  28844  29207  29235  29432  29488  29508M 29508  29513  29560  29571M 29571
             29675M 29676  29677M 29720M 29721  29722M 29885  30033  30062  30091  30120  30266  30426M 30426  31046
             31277  31319  31347  31391  31617  31704  31734  31744  31784  31821  31851  31895  31923  31955  32057
             32138  32165  32229  32342  32386  32413  32477  32675  32761M 32761  32770  33786  33826  33872  33913
             34040  34049M 34072  34122  34225  34234M 34835  34901  35080  35304  35468  35476M 36052  36525  39076
             39191  39287  39657M 39665U 39995U
    10(A)      942U  2134  14306  14327  14463  14504  14539  14681  14820  14848  15000  15028  15055  15115  15285
             15319  16935  17051  17248  17275  17367  17394  17435M 17438  18385  18419  18448  18491  19292  19436
             19647  20143  20170  20443  20479  20541  20713  21007  21093  21270  21378  21812  21841  22210  22257
             22284  22951  22993  23037  23064  23091  23119  23415  23517  23765  23803  24524  24553  24615  24674
             24809  24853  24898  24957  24991  25045  25069  25117  25172  25196  25302  25337  25458  25459M 25460
             25503  25504M 25505  25808  26279  26556  26723  26724M 26725  26768  26769M 26770  26932  27055  27056M
             27057  27100  27101M 27102  27264  27388  27389M 27390  27433  27434M 27435  27601  27630  27673  27825
             27826M 27827  27870  27871M 27872  28055  28085  28129  28157  28184  28211  28239  28300  28390  28473
             28509  28539  28583  28611  28638  28665  28693  28754  28844  28875M 29207  29235  29432  29488  29560
             29675  29676M 29677  29720  29721M 29722  29885  30033  30062  30091  30120  30266  31046  31277  31319
             31347  31391  31617  31704  31734  31821  31851  31895  31923  31955  32057  32138  32165  32229  32342
             32386  32413  32477  32675  32770  33786  33826  33872  33913  34040  34049M 34072  34122  34225  34234M
             34835  34901  35080  35304  35468  35476M 36052  36525  39076  39191  39287  39863M 39863
    11(B)      938U  1198U  2134   6948B  6949B 14286M 14286  14306  14327  14463  14504  14539  14681  14820  14848
             15000  15028  15055  15115  15285  15319  16429  16433M 16433  16470M 16825M 16826M 16826  16845  16849
             16935  17029M 17051  17248  17275  17367  17394  17435M 17438  18385  18419  18448  18491  19292  19436
             19647  20143  20170  20443  20479  20541  20713  21007  21093  21270  21378  21812  21841  22210  22257
             22284  22951  22993  23037  23064  23091  23119  23415  23517  23765  23803  24524  24553  24615  24674
             24809  24853  24898  24957  24991  25045  25069  25117  25172  25196  25302  25337  26279  26556  26932
             27264  27601  27630  27673  28055  28085  28129  28157  28184  28211  28239  28300  28390  28509  28539
             28583  28611  28638  28665  28693  28754  28844  29207  29235  29432  29488  29560  29885  30033  30062
             30091  30120  30266  31046  31277  31319  31347  31391  31617  31704  31734  31821  31851  31895  31923
             31955  32057  32138  32165  32229  32342  32386  32413  32477  32675  32770  33786  33826  33872  33913
             34040  34049M 34072  34122  34215  34221M 34225  34234M 34239  34245M 34835  34901  35080  35304  35468
             35476M 36052  36525  38882  38889M 38969  38976M 39076  39191  39287  39608U 39758M 39801M 39825  39831M
             39974  39980M
    12(C)      934U  1207U  2134  13598  14306  14327  14463  14504  14539  14681  14820  14848  15000  15028  15055
             15115  15285  15319  16850  16935  17051  17248  17275  17367  17394  17435M 17438  18385  18419  18448
             18491  19292  19436  19647  20143  20170  20443  20479  20541  20713  21007  21093  21270  21378  21812
             21841  22210  22257  22284  22951  22993  23037  23064  23091  23119  23415  23517  23765  23803  24524
             24553  24615  24674  24809  24853  24898  24957  24991  25045  25069  25117  25172  25196  25302  25337
             26279  26556  26932  27264  27601  27630  27673  28055  28085  28129  28157  28184  28211  28239  28300
             28390  28509  28539  28583  28611  28638  28665  28693  28754  28844  29207  29235  29432  29488  29560
             29885  30033  30062  30091  30120  30266  31046  31277  31319  31347  31391  31617  31704  31734  31821
             31851  31895  31923  31955  32057  32138  32165  32229  32342  32386  32413  32477  32675  32770  33786
             33826  33872  33913  34040  34049M 34072  34122  34216  34223M 34225  34234M 34240  34247M 34835  34901
             35080  35304  35468  35474M 35475  35476M 36052  36525  38882  38886M 38888  38889M 38969  38973M 38975
             38976M 39076  39191  39287  39615U 39679M 39687U 39826  39833M 39975  39982M
    13(D)      930U  2134  13468  13471  13472  13473M 13473  14221M 14225  14227  14306  14327  14463  14504  14514M
             14539  14681  14820  14848  15000  15028  15055  15115  15285  15319  16935  17051  17248  17275  17367
             17394  17435M 17438  17744  17745M 17745  17784M 18381M 18385  18419  18448  18491  18752  18755  18756
             18757M 18757  18819M 18823  18825  18862  18865  18866  18867M 18867  18952M 18956  18958  18996  18999
             19000  19001M 19001  19063M 19067  19069  19106  19109  19110  19111M 19111  19196M 19200  19202  19240
             19243  19244  19245M 19245  19292  19436  19647  19907M 19911  19913  19940  19943  19944  19945M 19945
             20143  20170  20276M 20280  20282  20340  20341  20342M 20342  20443  20479  20541  20713  20843  20844
             20845M 20845  21007  21093  21270  21296  21297  21298M 21298  21378  21394M 21395  21396  21620  21623
             21624  21625M 21625  21812  21841  22039M 22043  22045  22089  22092  22094  22095M 22095  22210  22257
1         (DISP2193) (12:42) (15MAR04) General Purpose Register Cross Reference                                             Page  223
             22284  22480M 22484  22486  22507  22510  22511  22512M 22512  22800M 22804  22806  22860  22863  22864
             22865M 22865  22951  22993  23037  23064  23091  23119  23415  23517  23668M 23672  23674  23702  23705
             23706  23707M 23707  23765  23803  24171M 24175  24177  24271  24274  24275  24276M 24276  24337M 24341
             24343  24368  24371  24372  24373M 24373  24524  24553  24615  24674  24714M 24718  24720  24746  24749
             24750  24751M 24751  24809  24853  24898  24957  24991  25045  25069  25117  25172  25196  25302  25337
             25368M 25372  25374  25400  25403  25404  25405M 25405  25525M 25529  25531  25554  25557  25558  25559M
             25559  25686M 25690  25692  25715  25718  25719  25720M 25720  25847M 25851  25853  25887  25890  25891
             25892M 25892  26031M 26035  26037  26053  26054  26055M 26055  26140M 26141  26142  26163  26164  26165M
             26165  26279  26284M 26285  26286  26304  26305  26306M 26306  26382M 26383  26384  26440  26443  26444
             26445M 26445  26556  26639M 26643  26645  26665  26668  26669  26670M 26670  26790M 26794  26796  26816
             26819  26820  26821M 26821  26932  26971M 26975  26977  26997  27000  27001  27002M 27002  27122M 27126
             27128  27148  27151  27152  27153M 27153  27264  27304M 27308  27310  27330  27333  27334  27335M 27335
             27455M 27459  27461  27484  27487  27488  27489M 27489  27601  27630  27673  27738M 27742  27744  27767
             27770  27771  27772M 27772  27892M 27896  27898  27921  27924  27925  27926M 27926  28055  28085  28129
             28157  28184  28211  28239  28300  28390  28509  28539  28583  28611  28638  28665  28693  28754  28844
             28906M 28910  28912  28928  28929  28930M 28930  29207  29235  29313M 29314  29315  29354  29357  29358
             29359M 29359  29432  29488  29560  29591M 29595  29597  29617  29620  29621  29622M 29622  29742M 29746
             29748  29772  29775  29776  29777M 29777  29885  30033  30062  30091  30120  30266  30363M 30367  30369
             30389  30392  30393  30394M 30394  30465M 30469  30471  30494  30497  30498  30499M 30499  30619M 30623
             30625  30688  30691  30692  30693M 30693  30832M 30836  30838  30868  30871  30872  30873M 30873  31046
             31166M 31170  31172  31196  31199  31200  31201M 31201  31277  31319  31347  31391  31424M 31428  31430
             31459  31460  31461M 31461  31617  31704  31734  31821  31851  31895  31923  31955  31988M 31989  31990
             32021  32022  32023M 32023  32057  32138  32165  32229  32280M 32281  32282  32306  32307  32308M 32308
             32342  32386  32413  32477  32520M 32521  32522  32548  32551  32552  32553M 32553  32675  32693M 32697
             32699  32723  32726  32727  32728M 32728  32770  33074M 33078  33080  33103  33106  33107  33108M 33108
             33600M 33604  33606  33621  33622  33623M 33623  33675  33676  33677M 33677  33730  33731  33732M 33732
             33786  33826  33872  33913  34040  34040  34041M 34041  34042  34046M 34048M 34049M 34049  34072  34122
             34217  34219M 34220B 34222  34224M 34225  34234M 34241  34243M 34244B 34246  34248M 34261M 34262  34263
             34368  34371  34372  34373M 34373  34459M 34463  34465  34511  34514  34515  34516M 34516  34661M 34665
             34667  34781  34784  34785  34786M 34786  34835  34901  34970M 34974  34976  35031  35034  35035  35036M
             35036  35080  35204M 35208  35210  35255  35258  35259  35260M 35260  35304  35358M 35362  35364  35419
             35420  35421M 35421  35468  35474N 35476  35660M 35661  35662  35731  35734  35735  35736M 35736  36052
             36302M 36306  36308  36355  36358  36359  36360M 36360  36525  36565M 36569  36571  36593  36596  36597
             36598M 36598  36688M 36692  36694  36716  36719  36720  36721M 36721  37040M 37044  37046  37090  37093
             37095  37096M 37096  38097M 38101  38103  38120  38123  38124  38125M 38125  38240M 38244  38246  38270
             38273  38274  38275M 38275  38320  38321M 38321  38373M 38374  38787M 38791  38793  38844  38847  38848
             38849M 38849  38881  38882  38882  38884M 38885B 38886  38887M 38889M 38889  38903M 38907  38909  38931
             38934  38935  38936M 38936  38968  38969  38969  38971M 38972B 38973  38974M 38976M 38976  38990M 38994
             38996  39033  39034  39035M 39035  39076  39191  39224M 39225  39226  39254  39255  39256M 39256  39287
             39365M 39366  39367  39389  39390  39391M 39391  39451M 39452  39453  39474  39475  39476M 39476  39516M
             39517  39518  39827  39829M 39830B 39832  39834M 39976  39978M 39979B 39981  39983M
    14(E)      926U  2134   2135M  2149   2150M  2151B  2153M  2154B  2174M  2175B  2179M  2180B  2182M  2183B  2185M
              2186B  2188M  2189B  2191M  2192M  2192B  2198  13468  13587M 13588M 13588B 13605M 13606M 13606B 13694M
             13701M 13984M 13985M 13985B 14227M 14230B 14306  14307M 14327  14328M 14463  14464M 14504  14505M 14539
             14540M 14552M 14553M 14553B 14652M 14653M 14653B 14681  14682M 14707M 14708M 14708B 14820  14821M 14848
             14849M 15000  15001M 15028  15029M 15055  15056M 15115  15116M 15184M 15185M 15185B 15203M 15204M 15204B
             15233M 15245M 15285  15286M 15319  15320M 15365M 15366M 15366B 15388M 15389M 15389B 15418M 15430M 15516M
             15517M 15517B 15679M 15680M 15680B 15694M 15695M 15695B 15723M 15724M 15724B 15744M 15748M 15759M 15763M
             15801M 15802M 15802B 15913M 15914M 15914  15928M 15928B 15999M 16000M 16000B 16114M 16115M 16115B 16169M
             16170M 16170B 16335M 16336M 16336B 16407M 16408M 16408B 16437M 16438M 16438B 16441M 16442M 16442B 16463M
             16464M 16464B 16499M 16500M 16500B 16530M 16531M 16531B 16574M 16575M 16575B 16605M 16606M 16606B 16640M
             16641M 16641B 16674M 16675M 16675B 16775M 16776M 16776B 16843M 16844M 16844B 16847M 16848  16935  16936M
             16966M 16967M 16967B 17008M 17008  17010M 17017M 17017  17019M 17051  17052M 17102M 17114M 17143M 17155M
             17248  17249M 17275  17276M 17367  17368M 17394  17395M 17422M 17423M 17423B 17435M 17438  17439M 17442B
             17575M 17645M 17734M 17793B 17854M 17855M 17855B 17881M 17882M 17882B 17927M 17928M 17928B 17958M 17959M
             17959B 17984M 17985M 17985B 18118M 18119M 18119B 18165M 18166M 18166B 18191M 18192M 18192B 18214M 18215M
             18215B 18252M 18253M 18253B 18385  18386M 18419  18420M 18448  18449M 18491  18492M 18504M 18505M 18505B
             18549M 18550M 18550B 18573M 18574M 18574B 18608M 18609M 18609B 18685M 18686M 18686B 18690M 18691M 18691B
             18752  18789M 18789  18790M 18792M 18796M 18797M 18797B 18825M 18828B 18862  18929M 18929  18930M 18932M
1         (DISP2193) (12:42) (15MAR04) General Purpose Register Cross Reference                                             Page  224
             18936M 18937M 18937B 18958M 18961B 18996  19033M 19033  19034M 19036M 19040M 19041M 19041B 19069M 19072B
             19106  19173M 19173  19174M 19176M 19180M 19181M 19181B 19202M 19205B 19240  19292  19293M 19436  19437M
             19520M 19526M 19527M 19527B 19647  19648M 19731M 19838M 19839M 19839B 19913M 19916B 19940  20098M 20099M
             20099B 20143  20144M 20170  20171M 20282M 20285B 20338  20403M 20443  20444M 20479  20480M 20489M 20490M
             20490  20494M 20494B 20510M 20511M 20511B 20520M 20540M 20541  20713  20714M 20742M 20743M 20743B 20753M
             20754M 20754B 20841  20901M 20971M 20972M 20972B 20986M 20987M 20987B 21007  21008M 21093  21094M 21131M
             21132M 21132B 21201M 21202M 21202B 21269M 21270  21294  21335M 21378  21379M 21391B 21395M 21398B 21431B
             21451B 21516B 21540B 21564B 21620  21671M 21672M 21672B 21811M 21812  21840M 21841  22003M 22004M 22004B
             22045M 22048B 22089  22210  22211M 22257  22258M 22284  22285M 22392M 22393M 22393B 22486M 22489B 22507
             22755M 22756M 22756B 22806M 22809B 22860  22914M 22916  22951  22952M 22993  22994M 23037  23038M 23064
             23065M 23091  23092M 23119  23120M 23157M 23415  23416M 23517  23518M 23541M 23542M 23542B 23560M 23561M
             23561B 23674M 23677B 23702  23765  23766M 23803  23804M 23859M 23860M 23860B 23902M 23903M 23903B 23925M
             23926M 23926B 23948M 23949M 23949B 23998M 23999M 23999B 24021M 24022M 24022B 24044M 24045M 24045B 24066M
             24067M 24067B 24135M 24136M 24136B 24177M 24180B 24271  24304M 24305M 24305B 24310M 24311M 24311B 24343M
             24346B 24368  24418M 24419M 24419B 24448M 24449M 24449B 24455M 24456M 24456B 24524  24525M 24553  24554M
             24567M 24568M 24568B 24615  24616M 24669M 24670M 24670B 24673M 24674  24720M 24723B 24746  24809  24810M
             24853  24854M 24898  24899M 24957  24958M 24969M 24970M 24970B 24991  24992M 25040M 25041M 25041B 25044M
             25045  25069  25070M 25117  25118M 25167M 25168M 25168B 25171M 25172  25196  25197M 25280M 25281M 25281B
             25302  25303M 25337  25338M 25344M 25345M 25345B 25374M 25377B 25400  25472M 25473M 25473B 25531M 25534B
             25554  25692M 25695B 25715  25853M 25856B 25887  26037M 26040B 26051  26124M 26125M 26125B 26141M 26143B
             26161  26279  26280M 26285M 26287B 26302  26323M 26324M 26324B 26329M 26330M 26330B 26366M 26367M 26367B
             26383M 26385B 26440  26556  26557M 26645M 26648B 26665  26737M 26738M 26738B 26796M 26799B 26816  26932
             26933M 26977M 26980B 26997  27069M 27070M 27070B 27128M 27131B 27148  27264  27265M 27310M 27313B 27330
             27402M 27403M 27403B 27461M 27464B 27484  27601  27602M 27630  27631M 27673  27674M 27744M 27747B 27767
             27839M 27840M 27840B 27898M 27901B 27921  28055  28056M 28085  28086M 28129  28130M 28157  28158M 28184
             28185M 28211  28212M 28239  28240M 28300  28301M 28315M 28328M 28341M 28341  28343M 28390  28391M 28509
             28510M 28539  28540M 28583  28584M 28611  28612M 28638  28639M 28665  28666M 28693  28694M 28754  28755M
             28769M 28782M 28795M 28795  28797M 28844  28845M 28912M 28915B 28926  29207  29208M 29235  29236M 29267M
             29267  29270M 29314M 29316B 29354  29432  29433M 29488  29489M 29560  29561M 29597M 29600B 29617  29689M
             29690M 29690B 29748M 29751B 29772  29821M 29822M 29822B 29885  29886M 29948M 29949M 29949B 29976M 29977M
             29977B 30033  30034M 30062  30063M 30091  30092M 30120  30121M 30266  30267M 30369M 30372B 30389  30435M
             30436M 30436B 30441M 30442M 30442B 30449M 30450M 30450B 30471M 30474B 30494  30588M 30589M 30589B 30625M
             30628B 30688  30838M 30841B 30868  31046  31047M 31172M 31175B 31196  31277  31278M 31319  31320M 31347
             31348M 31391  31392M 31430M 31433B 31457  31520M 31521M 31521B 31617  31618M 31659M 31660M 31660B 31704
             31705M 31734  31735M 31821  31822M 31851  31852M 31895  31896M 31923  31924M 31938M 31939M 31939B 31955
             31956M 31989M 31992B 32019  32057  32058M 32138  32139M 32165  32166M 32197M 32229  32230M 32281M 32284B
             32304  32342  32343M 32386  32387M 32413  32414M 32445M 32477  32478M 32521M 32523B 32548  32670M 32671M
             32671B 32674M 32675  32699M 32702B 32723  32770  32771M 32825M 32826M 32826B 32950M 32951M 32951B 32994M
             32995M 32995B 33009M 33010M 33010B 33027M 33028M 33028B 33080M 33083B 33103  33606M 33609B 33619  33673
             33728  33786  33787M 33826  33827M 33872  33873M 33913  33914M 34040  34045M 34049M 34072  34073M 34122
             34123M 34218M 34219N 34220M 34225  34233M 34234M 34242M 34243N 34244M 34262M 34264B 34368  34397  34465M
             34468B 34511  34605M 34606M 34606B 34638M 34639M 34639B 34667M 34670B 34781  34810  34835  34836M 34863M
             34864M 34864B 34901  34902M 34976M 34979B 35031  35080  35081M 35210M 35213B 35255  35304  35305M 35364M
             35367B 35417  35468  35473M 35661M 35663B 35731  35841M 35842M 35842B 35938M 35944M 36052  36053M 36308M
             36311B 36355  36525  36526M 36534M 36571M 36574B 36593  36666M 36694M 36697B 36716  36985M 36986M 36986B
             37046M 37049B 37090  37166M 37167M 37167B 37234M 37235M 37235B 37259M 37260M 37260B 37284M 37285M 37285B
             37303M 37304M 37304B 37328M 37329M 37329B 37442M 37443M 37443B 37468M 37469M 37469B 37546M 37547M 37547B
             37564M 37565M 37565B 37584M 37584  37585M 37597  37631M 37632M 37632B 37655M 37656M 37656B 37673M 37674M
             37674B 37757M 37758M 37758B 37781M 37782M 37782B 37799M 37800M 37800B 37827M 37828M 37828B 37845M 37846M
             37846B 37873M 37874M 37874B 37901M 37902M 37902B 37936M 37937M 37937B 37968M 37969M 37969B 37999M 38000M
             38000B 38029M 38030M 38030B 38076M 38077M 38077B 38103M 38106B 38120  38205M 38206M 38206B 38227M 38228M
             38228B 38246M 38249B 38270  38345M 38346M 38346B 38370M 38371M 38371B 38397M 38398M 38398B 38415M 38416M
             38416B 38452M 38453M 38453B 38521M 38522M 38522B 38589M 38590M 38590B 38607M 38608M 38608B 38632M 38633M
             38633B 38650M 38651M 38651B 38686M 38687M 38687B 38710M 38711M 38711B 38768M 38769M 38769B 38793M 38796B
             38806B 38825B 38844  38882  38883M 38884N 38885M 38889M 38909M 38912B 38931  38969  38970M 38971N 38972M
             38976M 38996M 38999B 39031  39076  39077M 39124M 39191  39192M 39225M 39227B 39252  39287  39288M 39327M
             39366M 39368B 39387  39452M 39454B 39472  39517M 39519B 39631B 39667  39793M 39794  39796M 39828M 39829N
             39830M 39890M 39964M 39977M 39978N 39979M
    15(F)      922U  2134   7410M  7410  13683M 13699M 13701M 13856M 13857  13858  14039M 14144M 14229M 14229  14306
1         (DISP2193) (12:42) (15MAR04) General Purpose Register Cross Reference                                             Page  225
             14327  14340M 14463  14470M 14471M 14471  14504  14539  14578M 14624M 14625  14681  14715M 14716M 14716
             14744U 14757U 14820  14848  14882M 14884  14885  14886  14887M 14888  14902M 14903M 14903  14933  15000
             15028  15055  15064M 15066  15067  15068  15069M 15070  15115  15238M 15244  15245M 15285  15319  15423M
             15429  15430M 15537M 15538M 15550  15676M 15691M 15720M 15745M 15747  15748M 15752D 15754M 15754  15755M
             15756U 15758  15759M 15760M 15762  15763M 15779M 15780M 15781  15794M 15794  15795  15980M 15981  15995
             15996M 16051M 16054  16057M 16076M 16077  16150M 16151  16165  16166M 16200M 16201  16202M 16204  16219M
             16220  16223M 16316M 16317  16331  16332M 16453M 16454M 16454  16508M 16509M 16521  16637M 16671M 16679M
             16680M 16681  16764M 16765M 16766  16861M 16862M 16862  16890U 16935  16948  16962  16963M 16977U 17009M
             17010M 17018M 17019M 17051  17107M 17113  17114M 17148M 17154  17155M 17169M 17170M 17171  17177M 17178M
             17178  17199U 17205M 17212U 17223U 17248  17275  17283  17289U 17296M 17297M 17297  17318U 17324M 17331U
             17342U 17367  17394  17402  17408U 17435M 17438  17467M 17736N 17739  17829M 17830M 17830  17878M 17924M
             17924  18115M 18162M 18188M 18211M 18249M 18385  18419  18448  18491  18682M 18687M 18785M 18790M 18791M
             18792M 18793M 18803M 18804M 18805  18806M 18807M 18808  18827M 18827  18912M 18913M 18914  18915M 18916M
             18917  18925M 18930M 18931M 18932M 18933M 18960M 18960  19029M 19034M 19035M 19036M 19037M 19044M 19045M
             19046  19050M 19051M 19052  19071M 19071  19156M 19157M 19158  19159M 19160M 19161  19169M 19174M 19175M
             19176M 19177M 19204M 19204  19292  19317M 19329  19343M 19343  19436  19463M 19464M 19465  19483M 19485
             19486  19523M 19531M 19532M 19533  19647  19674M 19675M 19676  19694M 19696  19697  19808M 19810  19811
             19812  19813M 19814  19835M 19843M 19844M 19845  19863M 19863  19877M 19878M 19879  19896M 19915M 19915
             19989M 19997  20006M 20007M 20008  20083M 20085  20086  20095M 20108M 20118M 20119M 20120  20143  20170
             20179M 20181  20182  20193M 20194M 20194  20215U 20234U 20255M 20255  20284M 20284  20379  20443  20479
             20497M 20541  20542M 20543B 20583M 20609M 20637  20713  20744M 20804M 20807M 20932M 20945M 20946M 20947
             20973M 20990M 20991M 20991  21007  21055M 21093  21182M 21183  21197  21198M 21270  21271M 21272B 21278M
             21337M 21378  21397M 21397  21426  21427  21428  21429M 21430  21436M 21438  21444M 21445  21446M 21447
             21463M 21481  21501M 21535  21536  21537  21538M 21539  21545M 21547  21553  21554M 21555  21556  21812
             21813M 21814B 21841  21842M 21843B 22023M 22047M 22047  22210  22257  22284  22313M 22314M 22326  22335M
             22345U 22358U 22377M 22379  22380  22389M 22397M 22398M 22399  22409M 22410M 22411  22423  22488M 22488
             22752M 22808M 22808  22915M 22916  22951  22993  23037  23064  23091  23119  23214M 23215M 23216  23231M
             23232M 23233  23337M 23338M 23339  23381M 23383  23384  23385  23386M 23387  23415  23517  23557M 23565M
             23566M 23567  23592M 23608M 23608  23617  23618  23619  23620M 23621  23629  23630  23631  23632M 23633
             23676M 23676  23765  23779M 23780M 23781  23794  23803  23816M 23826U 23832M 23839U 23883D 23885M 23885
             23886M 23887U 23908M 23931M 23979D 23981M 23981  23982M 23983U 24004M 24027M 24049M 24077M 24087U 24100U
             24120M 24179M 24179  24326M 24326  24345M 24345  24470M 24524  24553  24615  24650M 24651  24665  24666M
             24674  24675M 24676B 24685M 24685  24722M 24722  24809  24853  24898  24957  24991  25021M 25022  25036
             25037M 25045  25046M 25047B 25069  25117  25148M 25149  25163  25164M 25172  25173M 25174B 25196  25213M
             25215  25216  25302  25337  25352M 25352  25376M 25376  25430  25431M 25441U 25467U 25469M 25475  25476M
             25486U 25512U 25514M 25533M 25533  25694M 25694  25855M 25855  25916M 26002M 26002  26039M 26039  26202M
             26226M 26279  26556  26647M 26647  26695  26696M 26706U 26732U 26734M 26740  26741M 26751U 26777U 26779M
             26798M 26798  26932  26979M 26979  27027  27028M 27038U 27064U 27066M 27072  27073M 27083U 27109U 27111M
             27130M 27130  27264  27312M 27312  27360  27361M 27371U 27397U 27399M 27405  27406M 27416U 27442U 27444M
             27463M 27463  27601  27630  27673  27746M 27746  27797  27798M 27808U 27834U 27836M 27842  27843M 27853U
             27879U 27881M 27900M 27900  28055  28063M 28064M 28085  28129  28157  28184  28211  28239  28300  28319M
             28327  28328M 28342M 28343M 28345M 28347  28348  28349  28350M 28351  28355M 28390  28405U 28409M 28411
             28412  28509  28517M 28518M 28539  28583  28611  28638  28665  28693  28754  28773M 28781  28782M 28796M
             28797M 28799M 28801  28802  28803  28804M 28805  28809M 28844  28859U 28863M 28865  28866  28914M 28914
             29207  29235  29268M 29269M 29270M 29432  29488  29496M 29498  29499  29500  29501M 29502  29560  29599M
             29599  29647  29648M 29658U 29684U 29686M 29692  29693M 29703U 29729U 29731M 29750M 29750  29885  30033
             30062  30091  30120  30163M 30164M 30165  30195M 30196M 30197  30200M 30201M 30202  30266  30282M 30284
             30285  30327M 30329  30330  30331  30332M 30333  30371M 30371  30473M 30473  30627M 30627  30717M 30787M
             30807M 30807  30840M 30840  30911M 30982M 31046  31098M 31099M 31100  31105M 31106M 31107  31119  31126
             31135M 31135  31174M 31174  31277  31319  31347  31391  31432M 31432  31517M 31522M 31617  31656M 31661M
             31704  31712M 31713M 31734  31768M 31768  31821  31829M 31830M 31851  31895  31923  31934M 31955  31966M
             31966  31991M 31991  32036  32057  32096M 32138  32165  32195M 32229  32275M 32275  32283M 32283  32321
             32342  32386  32413  32443M 32477  32651M 32652  32666  32667M 32675  32676M 32677B 32701M 32701  32770
             32799M 32800M 32812  33082M 33082  33168M 33178U 33184M 33191U 33203M 33203  33231U 33250U 33589M 33589
             33608M 33608  33786  33795  33826  33872  33913  33952M 33962U 33975U 34040  34043M 34044M 34044  34045B
             34049M 34072  34122  34150M 34160U 34202U 34215M 34221  34222M 34225  34229M 34230M 34230  34231M 34231
             34233B 34234M 34239M 34245  34246M 34398  34413M 34414M 34415M 34424M 34425M 34439M 34440M 34441  34448M
             34448  34467M 34467  34559M 34567U 34589M 34589  34600U 34602  34613M 34614M 34615M 34635M 34650M 34650
             34669M 34669  34813M 34814M 34835  34860M 34901  34929M 34930M 34931M 34941M 34942M 34943  34959M 34959
1         (DISP2193) (12:42) (15MAR04) General Purpose Register Cross Reference                                             Page  226
             34978M 34978  35080  35088  35160M 35161M 35162M 35212M 35212  35304  35312  35366M 35366  35467M 35468
             35511M 35511  35555M 35783M 35822M 35851M 35851  35886M 35906M 35906  35942M 35944M 35946M 35947M 35950M
             35951  35973M 35974  35975M 35976  35977M 35978  35979M 35980  35998M 36000  36001M 36003  36004M 36006
             36007M 36009  36036M 36052  36060  36103M 36104  36114U 36127U 36163M 36164  36165M 36166  36208M 36225M
             36230  36231  36259M 36261  36262  36263  36264M 36265  36271M 36272M 36273  36310M 36310  36405M 36439M
             36441  36442  36525  36538M 36539M 36540  36545M 36545  36573M 36573  36696M 36696  36817M 36817  36890M
             36891M 36958M 36966M 36967M 36998M 37048M 37048  37148  37163M 37172M 37172  37202M 37219  37231M 37256M
             37281M 37300M 37325M 37439M 37465M 37472M 37473M 37501M 37517  37528  37543M 37561M 37585M 37606M 37652M
             37670M 37681M 37691U 37704U 37754M 37778M 37796M 37824M 37842M 37870M 37898M 37933M 37965M 37971M 37996M
             38026M 38073M 38105M 38105  38202M 38224M 38248M 38248  38318  38342M 38367M 38394M 38412M 38449M 38518M
             38525M 38526M 38526  38547U 38553M 38560U 38571  38586M 38604M 38629M 38647M 38683M 38707M 38765M 38795M
             38795  38813M 38824  38881M 38887  38888M 38911M 38911  38968M 38974  38975M 38998M 38998  39076  39084M
             39085M 39112M 39148M 39164M 39164  39182  39191  39222M 39222  39287  39295M 39296M 39314M 39351M 39363M
             39363  39630M 39630  39656  39793M 39795N 39796M 39825M 39831  39832M 39836M 39845M 39845  39852M 39864M
             39874U 39880M 39887U 39890B 39915M 39925U 39931M 39938U 39949U 39955M 39962U 39964B 39974M 39980  39981M

1DISP     (DISP2193) (12:42) (15MAR04) Diagnostic Cross Reference and Assembler Summary                                     Page  227
-                                                                                            HLASM R4.0  2004/03/15 12.42
0     No Statements Flagged in this Assembly
 HIGH LEVEL ASSEMBLER, 5696-234, RELEASE 4.0, PTF P72483
0SYSTEM: OS/390 02.10.00            JOBNAME: WYL#DISP    STEPNAME: ASM        PROCSTEP: (NOPROC)
0Datasets Allocated for this Assembly
  Con DDname   Dataset Name                                 Volume  Member
   P1 SYSIN    WYL.GS.WYL.WYLBUR.SOURCE                     SYSB05  DISP
   L1 SYSLIB   WYL.GS.WYL.WYLBUR.MACLIB                     SYSB05
   L2          WYL.GG.SYS.MACLIB                            SYSB05
   L3          SYS3.IS.MACLIB                               SYSB05
   L4          SYS3.MACLIB                                  SYSB02
   L5          SYS1.MACLIB                                  MVSBR9
   L6          SYS1.MODGEN                                  MVSBR9
      SYSPRINT SYS04075.T124225.RA000.WYL#DISP.PRINT.H01    SCR100
      SYSTERM  GG$SLP.WYL#DISP.JOB03516.D0000101.?

    3668K allocated to Buffer Pool,         7561K would be required for this to be an In-Storage Assembly
    4785 Primary Input Records Read        33360 Library Records Read                955 Work File Reads
       0 ASMAOPT Records Read              18457 Primary Print Records Written       978 Work File Writes
       0 Punch Records Written                 0 ADATA Records Written
0Assembly Start Time: 12.42.26 Stop Time: 12.42.54 Processor Time: 00.00.08.3248
 Return Code 000
