1                        J E S 2  J O B  L O G  --  S Y S T E M  S Y S B  --  N O D E  R L G
0
 12.47.32 JOB03537 ---- MONDAY,    15 MAR 2004 ----
 12.47.32 JOB03537  ICH70001I GG$SLP   LAST ACCESS AT 12:47:22 ON MONDAY, MARCH 15, 2004
 12.47.32 JOB03537  $HASP373 WYL#KWWR STARTED - INIT 6    - CLASS B - SYS SYSB
 12.47.32 JOB03537  ***  HCMD      STEP $$QUIET
 12.47.32 JOB03537  PUR * Q OUT MUL
 12.47.32 JOB03537  JOB 5400 WYL#KWWR WILL BE PURGED
 12.47.33 JOB03537  WYL#KWWR.$$QUIET .         RC=Zero TapeIO=0000 DiskIO=0000 CPU=  .01s Elapsed=52.10s
 12.47.42 JOB03537  WYL#KWWR.ASM     .         RC=Zero TapeIO=0000 DiskIO=0501 CPU= 1.88s Elapsed=53.52s
 12.47.42 JOB03537  WYL#KWWR.EDIT    .         RC=Zero TapeIO=0000 DiskIO=0048 CPU=  .17s Elapsed=62.31s
 12.47.42 JOB03537  WYL#KWWR Ended.  Name=Assemble KWWR                  Total CPU= 2.06s Elapsed=52.10s
 12.47.42 JOB03537
 12.47.42 JOB03537  Execution charges   Priority=Standard   Block=Day
 12.47.42 JOB03537
 12.47.42 JOB03537  CPU Usage          37.50          $23.25   Standard Processing Unit Equivalent
 12.47.42 JOB03537                                   =======
 12.47.42 JOB03537                                    $23.25   Total Job execution charge
 12.47.42 JOB03537
 12.47.42 JOB03537  See back separator page for print charges
 12.47.42 JOB03537
 12.47.42 JOB03537  $HASP395 WYL#KWWR ENDED  ASM=0, EDIT=0
1        1 //WYL#KWWR JOB SLP$GG,'Assemble KWWR',TIME=4,REGION=4M                  JOB03537
           //*
           /*JOBPARM LINES=99,COPIES=1
           /*JOBPARM FORMS=3HOL,PFORMAT=LAND,CHARS=BD13,DUPLEX=YES,FLASH=BAR4
           //*
           /*JOBPARM NOTIFY=GG.SLP,HOLD=OUTPUT                                     WYLGEN
         2 //$$QUIET EXEC PGM=HCMDX,PARM='PUR * Q OUT MUL'
           //*
         3 //ASM    EXEC PGM=ASMA90,REGION=8M,
           //            PARM=('NORENT,TERM,FLAG(NOCONT),US(MAP,WARN(10)),NODECK',
           //            'LC(32767),XREF(SHORT),ESD,DXREF,NOOBJECT')
         4 //STEPLIB DD DSN=SYS3.IS.TESTASM,DISP=SHR
         5 //SYSLIB   DD  DSN=WYL.GS.WYL.WYLBUR.MACLIB,DISP=SHR
         6 //         DD  DSN=WYL.GG.SYS.MACLIB,DISP=SHR
         7 //         DD  DSN=SYS3.IS.MACLIB,DISP=SHR
         8 //         DD  DSN=SYS3.MACLIB,DISP=SHR
         9 //         DD  DSN=SYS1.MACLIB,DISP=SHR
        10 //         DD  DSN=SYS1.MODGEN,DISP=SHR
        11 //SYSUT1   DD DSN=&&SYSUT1,UNIT=VIO,DISP=(,DELETE),
           //            SPACE=(4088,(500,250),,CONTIG,ROUND)
        12 //SYSTERM  DD SYSOUT=T
        13 //SYSPRINT DD DSN=&&PRINT,UNIT=SYSDA,DISP=(,PASS),
           //            SPACE=(6650,(250,250),RLSE),
           //            DCB=(BLKSIZE=6650,LRECL=133,RECFM=FB)
        14 //SYSUDUMP DD SYSOUT=A
        15 //SYSIN    DD  DSN=WYL.GS.WYL.WYLBUR.SOURCE(KWWR),DISP=SHR
           //*
        16 //EDIT    EXEC PGM=ASMEDIT,TIME=2,REGION=4000K,
           //             PARM='STMT'
        17 //STEPLIB  DD  DSN=WYL.GG.SYS.LINKLIB,DISP=SHR
        18 //ASMOUT   DD  DSN=&PRINT,DISP=(OLD,DELETE)
        19 //SYSPRINT DD  SYSOUT=A
1 STMT NO. MESSAGE
 -
        11 IGD01010I STORCLAS= TEMP STORGROUP =
        11 IGD01010I STORGRP=VIO ASSIGNED.
        13 IGD01010I STORCLAS= TEMP STORGROUP =
        13 IGD01010I STORGRP=VIO ASSIGNED.
 ICH70001I GG$SLP   LAST ACCESS AT 12:47:22 ON MONDAY, MARCH 15, 2004
 IEF142I WYL#KWWR $$QUIET - STEP WAS EXECUTED - COND CODE 0000
 *********************************************************************************
 *   WYL#KWWR/$$QUIET /                    Return Code      Zero                 *
 *   Region used      260K (16K user + 244K system)                              *
 *   Extended region  9692K (4K user + 9688K system)                             *
 *                                                                               *
 *   Paging              In      Out                                             *
 *   Private <-> Aux      0        0       CPU time (TCB)   00:00:00.01          *
 *   Private <-> Exp      0        0       CPU time (SRB)   00:00:00.00          *
 *   VIO                  0        0       Elapsed time    917:40:20.86          *
 *   Common               0      ---                                             *
 *                                                                               *
 *                                                                               *
 *   CPU Usage          0.18         $0.11  Standard Processing Unit Equivalent  *
 *                                   $0.11  Total Step execution charge          *
 *                                                                               *
 *    I/O count  DDname   Type Addr           I/O count  DDname   Type Addr      *
 *                         *** No I/O for this step ***                          *
 *********************************************************************************
 IEF373I STEP/$$QUIET /START 2004075.1247
 IEF374I STEP/$$QUIET /STOP  2004075.1247 CPU    0MIN 00.01SEC SRB    0MIN 00.00SEC VIRT    16K SYS   244K EXT       4K SYS    9688K
 IEF236I ALLOC. FOR WYL#KWWR ASM
 IEF237I 04DC ALLOCATED TO STEPLIB
 IEF237I 04DC ALLOCATED TO SYSLIB
 IEF237I 04DC ALLOCATED TO
 IEF237I 04DC ALLOCATED TO
 IEF237I 0402 ALLOCATED TO
 IEF237I 04A0 ALLOCATED TO
 IEF237I 04A0 ALLOCATED TO
 IGD101I SMS ALLOCATED TO DDNAME (SYSUT1  )
         DSN (SYS04075.T124732.RA000.WYL#KWWR.SYSUT1.H01  )
         STORCLAS (TEMP) MGMTCLAS (        ) DATACLAS (        )
         VOL SER NOS= VIO
 IEF237I JES2 ALLOCATED TO SYSTERM
 IGD101I SMS ALLOCATED TO DDNAME (SYSPRINT)
         DSN (SYS04075.T124732.RA000.WYL#KWWR.PRINT.H01   )
         STORCLAS (TEMP) MGMTCLAS (        ) DATACLAS (        )
         VOL SER NOS= SCR101
 IEF237I JES2 ALLOCATED TO SYSUDUMP
 IEF237I 04DC ALLOCATED TO SYSIN
 IEF142I WYL#KWWR ASM - STEP WAS EXECUTED - COND CODE 0000
 IEF285I   SYS3.IS.TESTASM                              KEPT
 IEF285I   VOL SER NOS= SYSB05.
 IEF285I   WYL.GS.WYL.WYLBUR.MACLIB                     KEPT
 IEF285I   VOL SER NOS= SYSB05.
 IEF285I   WYL.GG.SYS.MACLIB                            KEPT
 IEF285I   VOL SER NOS= SYSB05.
 IEF285I   SYS3.IS.MACLIB                               KEPT
 IEF285I   VOL SER NOS= SYSB05.
 IEF285I   SYS3.MACLIB                                  KEPT
 IEF285I   VOL SER NOS= SYSB02.
 IEF285I   SYS1.MACLIB                                  KEPT
 IEF285I   VOL SER NOS= MVSBR9.
 IEF285I   SYS1.MODGEN                                  KEPT
 IEF285I   VOL SER NOS= MVSBR9.
 IGD105I SYS04075.T124732.RA000.WYL#KWWR.SYSUT1.H01   DELETED,   DDNAME=SYSUT1
 IEF285I   GG$SLP.WYL#KWWR.JOB03537.D0000101.?          SYSOUT
 IGD106I SYS04075.T124732.RA000.WYL#KWWR.PRINT.H01    PASSED,    DDNAME=SYSPRINT
 IEF285I   GG$SLP.WYL#KWWR.JOB03537.D0000102.?          SYSOUT
 IEF285I   WYL.GS.WYL.WYLBUR.SOURCE                     KEPT
 IEF285I   VOL SER NOS= SYSB05.
 *********************************************************************************
 *   WYL#KWWR/ASM     /                    Return Code      Zero                 *
 *   Region used      4376K (4096K user + 280K system)                           *
 *   Extended region  10292K (412K user + 9880K system)                          *
 *                                                                               *
 *   Paging              In      Out                                             *
 *   Private <-> Aux      0        0       CPU time (TCB)   00:00:01.83          *
 *   Private <-> Exp      0        0       CPU time (SRB)   00:00:00.05          *
 *   VIO                  0        0       Elapsed time    917:40:19.44          *
 *   Common               0      ---                                             *
 *                                                                               *
 *                                                                               *
 *   CPU Usage         34.31        $21.27  Standard Processing Unit Equivalent  *
 *                                  $21.27  Total Step execution charge          *
 *                                                                               *
 *    I/O count  DDname   Type Addr           I/O count  DDname   Type Addr      *
 *           86  STEPLIB  Disk 04DC                 237  SYSLIB   Disk 04DC      *
 *            0  SYSLIB   Disk 04DC                   0  SYSLIB   Disk 04DC      *
 *            0  SYSLIB   Disk 0402                 130  SYSLIB   Disk 04A0      *
 *            0  SYSLIB   Disk 04A0                   0  SYSUT1   VIO  ----      *
 *            0  SYSTERM       ----                  45  SYSPRINT Disk 04E3      *
 *            0  SYSUDUMP      ----                   3  SYSIN    Disk 04DC      *
 *********************************************************************************
 IEF373I STEP/ASM     /START 2004075.1247
 IEF374I STEP/ASM     /STOP  2004075.1247 CPU    0MIN 01.83SEC SRB    0MIN 00.05SEC VIRT  4096K SYS   280K EXT     412K SYS    9880K
 IEF236I ALLOC. FOR WYL#KWWR EDIT
 IEF237I 0402 ALLOCATED TO STEPLIB
 IGD103I SMS ALLOCATED TO DDNAME ASMOUT
 IEF237I JES2 ALLOCATED TO SYSPRINT
 IEF142I WYL#KWWR EDIT - STEP WAS EXECUTED - COND CODE 0000
 IEF285I   WYL.GG.SYS.LINKLIB                           KEPT
 IEF285I   VOL SER NOS= SYSB02.
 IGD105I SYS04075.T124732.RA000.WYL#KWWR.PRINT.H01    DELETED,   DDNAME=ASMOUT
 IEF285I   GG$SLP.WYL#KWWR.JOB03537.D0000103.?          SYSOUT
 *********************************************************************************
 *   WYL#KWWR/EDIT    /                    Return Code      Zero                 *
 *   Region used      380K (116K user + 264K system)                             *
 *   Extended region  9820K (4K user + 9816K system)                             *
 *                                                                               *
 *   Paging              In      Out                                             *
 *   Private <-> Aux      0        0       CPU time (TCB)   00:00:00.16          *
 *   Private <-> Exp      0        0       CPU time (SRB)   00:00:00.01          *
 *   VIO                  0        0       Elapsed time    917:40:10.65          *
 *   Common               0      ---                                             *
 *                                                                               *
 *                                                                               *
 *   CPU Usage          3.00         $1.86  Standard Processing Unit Equivalent  *
 *                                   $1.86  Total Step execution charge          *
 *                                                                               *
 *    I/O count  DDname   Type Addr           I/O count  DDname   Type Addr      *
 *            2  STEPLIB  Disk 0402                  46  ASMOUT   Disk 04E3      *
 *            0  SYSPRINT      ----                                              *
 *********************************************************************************
 IEF373I STEP/EDIT    /START 2004075.1247
 IEF374I STEP/EDIT    /STOP  2004075.1247 CPU    0MIN 00.16SEC SRB    0MIN 00.01SEC VIRT   116K SYS   264K EXT       4K SYS    9816K
 *********************************************************************************
 *                                                                               *
 *                      S t a n f o r d   U n i v e r s i t y                    *
 *                                                                               *
 *                              *** Job Summary ***                              *
 *                                                                               *
 *   System Id      SYSB                   Input time     12:39:20  Mar 15, 2004 *
 *                                                                               *
 *   System Release SP6.1.0                Start time     12:47:32  Mar 15, 2004 *
 *                                                                               *
 *   Job name       WYL#KWWR               Stop  time     00:00:00  Mar 15, 2004 *
 *                                                                               *
 *   Account        SLP$GG                 Elapsed time  917:40:20.86            *
 *                                                                               *
 *   User Name      Assemble KWWR          CPU time       00:00:02.00            *
 *                                                                               *
 *   Job class      B                      SRB Time       00:00:00.06            *
 *                                                                               *
 *********************************************************************************
 IEF375I  JOB/WYL#KWWR/START 2004075.1247
 IEF376I  JOB/WYL#KWWR/STOP  2004075.1247 CPU    0MIN 02.00SEC SRB    0MIN 00.06SEC
1Assembler Done KWWR No Statements Flagged
1         High Level Assembler Option Summary                   (PTF P72483 )                                               Page    1
-                                                                                            HLASM R4.0  2004/03/15 12.47
0  No Overriding ASMAOPT Parameters
   Overriding Parameters-  NORENT,TERM,FLAG(NOCONT),US(MAP,WARN(10)),NODECK,LC(32767),XREF(SHORT),ESD,DXREF,NOOBJECT
   No Process Statements


   Options for this Assembly
0  NOADATA
     ALIGN
   NOASA
     BATCH
     CODEPAGE(047C)
   NOCOMPAT
   NODBCS
 3 NODECK
 3   DXREF
 3   ESD
   NOEXIT
 3   FLAG(0,ALIGN,NOCONT,NOIMPLEN,NOPAGE0,PUSH,RECORD,NOSUBSTR,USING0)
   NOFOLD
   NOGOFF
   NOINFO
     LANGUAGE(EN)
   NOLIBMAC
 3   LINECOUNT(32767)
     LIST(121)
     MXREF(SOURCE)
 3 NOOBJECT
     OPTABLE(UNI,NOLIST)
   NOPCONTROL
   NOPESTOP
   NOPROFILE
   NORA2
 3 NORENT
     RLD
     RXREF
     SIZE(MAX)
     SYSPARM()
 3   TERM(WIDE)
   NOTEST
     THREAD
   NOTRANSLATE
 3   USING(NOLIMIT,MAP,WARN(10))
 3   XREF(SHORT)

   No Overriding DD Names

1KWWR     External Symbol Dictionary                                                                                        Page    2
-Symbol   Type   Id     Address  Length     LD ID  Flags Alias-of                            HLASM R4.0  2004/03/15 12.47
0WYLKWWR   SD 00000001 00000000 00000AC4             00
 KWWR7     LD          00000000           00000001
 KWEXCP    LD          00000014           00000001
 KWWAIT    LD          00000352           00000001
 KWECB     LD          000004B8           00000001
 KWIO      LD          00000780           00000001
 KWRFREE   LD          000008BC           00000001
 KIOPOST   LD          000008F4           00000001
 KIOINIT   LD          00000958           00000001
 GETRSC    ER 00000002
 KWEXCP    ER 00000003
 DISPATCH  ER 00000004
 FREERSC   ER 00000005
 KWWAIT    ER 00000006
 QSETUP    ER 00000007
 KWRRSG    ER 00000008
 KWECB     ER 00000009

1KWWR     WYLBUR's Password File Routines                                                                                   Page    3
0Loc    Object Code    Addr1 Addr2  Stmt Lv Lineno    Source Statement                    (Asmedit 3.3)  HLASM R4.0  2004/03/15 12.47
+___    ______ ____    _____ _____  ____ __ ______    ______ _________
0                                      2              *******************************************************************
                                       3              *                                                                 *
                                       4              *     WYLBUR/370 - Release VI - Class I - Stanford Proprietary    *
                                       5              *                                                                 *
                                       6              *******************************************************************
                                       7                       HIBAL
                                     988
                                     989                       SYSDEFN
                                     990              *
                                     991              *MOD6, 18SEP79, R. Levitt/J. Nisbet
                                     992              *  If R0 contains ttr do direct read instead of search.
                                     993              *  Return ttr to caller in R0 at I/O complete exit.
                                     994              *
                                     995              *MOD7, 14Nov84, J. Nisbet/J. Stosick
                                     996              *  Expand the size of the keyword record (since it's now over
                                     997              *  255 bytes, a few MVCs had to be changed).  Also, the hash number
                                     998              *  was changed from 19949 to 32749.  The hash algorithm was also
                                     999              *  changed so that all the letters in the account participate
                                    1000              *  in the hash.
                                    1001              *
-                                   1003                       MACRO
                                    1004              &L       VERIFY &C
                                    1005                       AIF   ('&C' EQ '').A1
                                    1006              &L       B&C   *+8                 Br if ok
                                    1007                       BAS   R2,ABEND            Abend if not
                                    1008                       MEXIT
                                    1009              .A1      ANOP
                                    1010              &L       BAS   R2,ABEND
                                    1011                       MEND
-                                   1013                       PUSH  DSECTS
 AUSING (CP,CPR)                    1024             =         USING (CP),(CV)
 AUSING (CV,CVR)
 000000                00000 00000  1035             =         POP   PRINT
1KWWR     Common Control Blocks                                                                                             Page    4
0D-Loc  Object Code    Addr1 Addr2  Stmt Lv Lineno    Source Statement           (Hibal 5, Asmedit 3.3)  HLASM R4.0  2004/03/15 12.47
+_____  ______ ____    _____ _____  ____ __ ______    ______ _________
0                                   8305              *WR      RECORD 'KWR'
                                    8306              *        EJECT
                                    8307                       GBLA  &KWFSIZE            Number records in kwrfile
                                    8308
                                    8309              &KWFSIZE SETA  32749               Set file max (should be prime)
                                    8310
 000000                00000 00AC4  8311              WYLKWWR  CSECT
                                    8315              KWBASE   EQU   *
                                    8316
                                    8317              KWWR     IDENT 7                   19:56:20 11/14/84 "Niz"
                                    8320             +
                                    8321    01-IDENT +         ENTRY KWWR7
                                    8322             +
 000000 13D2E6E6D9F76BF1            8323    01-IDENT +KWWR7    DC    AL1(19),C'KWWR7,15MAR04,12:47'
                                    8324             +*
                                    8326              *
                                    8327                       ENTRY KWEXCP,KWWAIT
                                    8328                       ENTRY KWECB
                                    8329
                                    8330                       REGS FSR,,,,,JCBR,DEBR,BR,(WAR,LSR),DCBR,KWRR,CPR,CVR,SPR,RAR
                                    8492
 USING  KWBASE,R7                   8493                       USING KWBASE,BR
 USING  KWR,R10                     8502                       USING KWR
 USING  IHADCB,R9                   8511                       USING IHADCB,DCBR
1KWWR     (KWWR7) (12:47) (15MAR04) Common Control Blocks                                                                   Page    5
0Current Usings:  (KWBASE,R7) (IHADCB,R9) (KWR,R10)
0Loc    Object Code    Addr1 Addr2  Stmt Lv Lineno    Source Statement           (Hibal 5, Asmedit 3.3)  HLASM R4.0  2004/03/15 12.47
+___    ______ ____    _____ _____  ____ __ ______    ______ _________
0DROP   KWBASE,R7                   8521                       DROP  BR
 USING  *,R15                       8528                       USING *,R15
 000014 90EC D000            00000  8538              KWEXCP   STM   14,12,0(13)
 000018 188D                        8539                       LR    WAR,13              Save old stack pointer
 00001A 41D0 D03C            0003C  8540                       LA    13,15*4(,13)        Push stack
 00001E 5870 F48C            004A0  8541                       L     BR,=A(KWBASE)       Proper base register
 DROP   *,R15                       8542                       DROP  R15
 USING  KWBASE,R7                   8549                       USING KWBASE,BR
 000022 4190 7718            00718  8558                       LA    DCBR,KEYFILE
                                    8559
 000026 D200 76E8 1000 006E8 00000  8560                       MVC   KWCMD,@R1           Copy command code
 00002C 1FAA/BFA7 1001              8561                       L3    KWRR,@R1+1          Point to kwr area
 000032 95FF 76E8      006E8        8569                       CLI   KWCMD,KWRCDIE       Die command?
 000036 4780 7318            00318  8570                       BE    KWCLOSE             Br if so
 00003A 9180 76E9      006E9        8571                       TM    GFL,GFBUSY          Already busy?
 00003E 4780 7046/4D20_      00046  8572                       VERIFY Z                  Better not be...
 000046 9680 76E9      006E9        8575                       OI    GFL,GFBUSY          Set password operation in progress
 00004A 9580 76E8      006E8        8576                       CLI   KWCMD,KWRCWR        Write command?
 00004E 4780 705E            0005E  8577                       BE    INITCHK
 000052 9540 76E8      006E8        8578                       CLI   KWCMD,KWRCRD        Read command?
 000056 4780 705E/4D20_      0005E  8579                       VERIFY E                  It should be...
 00005E 9140 76E9      006E9        8582              INITCHK  TM    GFL,GFOPEN          Dcb opened?
 000062 4710 70C0            000C0  8583                       BO    KWGO                B if so
 000066 9640 76E9      006E9        8584                       OI    GFL,GFOPEN          Set open done
 00006A D207 76EA 9028 006EA 00028  8585                       MVC   KEYNAME,DCBDDNAM    Set ddname for devtype
 000070 4DE0 73AA            003AA  8586                       LCALL AMODE24             ********
 000074 4110 76EA/4100_      006EA  8588                       DEVTYPE KEYNAME,DVTAREA,DEVTAB  Get good info
 000080 4DE0 73BE            003BE  8594                       LCALL AMODER              ********
 000084 9520 76FA      006FA        8596                       CLI   DVTCLASS,DVTCDA     Direct access?
 000088 4770 7300            00300  8597                       BNE   NOFILE              No, skip (dd dummy)
 00008C 4DE0 73AA            003AA  8598                       LCALL AMODE24             ********
 000090 4110 74D4/0A13       004D4  8600                       OPEN  MF=(E,OPENLIST)
 000096 4DE0 73BE            003BE  8604                       LCALL AMODER              ********
 00009A 9110 9030      00030        8606                       TM    DCBOFLGS,X'10'      DCB open up?
 00009E 4780 7300            00300  8607                       BZ    NOFILE              Br if not
 0000A2 4800 903E            0003E  8608                       LH    R0,DCBBLKSI         Get total record length
 0000A6 BF04 9010            00010  8609                       ICM   R0,B'0100',DCBKEYLE  ...add in key length
 0000AA 4110 76F8            006F8  8610                       LA    R1,DVTAREA          Point at device area
 0000AE 4DE0 742C            0042C  8611                       BAS   R14,CALCREC         Go compute records/track
 0000B2 5010 7714            00714  8612                       ST    R1,TRKRCDS          Save number
 0000B6 4DE0 7466            00466  8613                       BAS   R14,COUNT           Get number of tracks
 0000BA 5000 76F4            006F4  8614                       ST    R0,NUMTRKS           and save away
 0000BE 1B00                        8615                       CLEAR R0                  couldn't be ttr if here
 0000C0 9110 9030      00030        8619              KWGO     TM    DCBOFLGS,X'10'      Dcb open?
 0000C4 4780 7300            00300  8620                       BZ    NOFILE              B if not
 0000C8 9280 A1F4      00218        8621                       MVI   KWRHFL,KWRHFCK      Password checking in effect
 0000CC D202 76C7 A000 006C7 00024  8622                       MVC   KEYKEY(3),KWRUSER   Move in user id
 0000D2 D201 76CA A003 006CA 00027  8623                       MVC   KEYKEY+3(2),KWRGRP  Group code
 0000D8 D704 76C7 76CF 006C7 006CF  8624                       XC    KEYKEY,SCRMASK      Scramble user and acct
 0000DE 1200/4780 7152              8625                       IF    (R0,Z),KWSRCH       Do search if ttr not given
 0000E4 BE07 76CC            006CC  8642                       STCM  R0,B'0111',KEYTTR   Set ttr pointer
 0000E8 8800 0008            00008  8643                       SRL   R0,8                Move out record number
 0000EC 5900 76F4            006F4  8644                       C     R0,NUMTRKS          In bounds?
 0000F0 47B0 7152            00152  8645                       BNL   KWSRCH              Oops
1KWWR     (KWWR7) (12:47) (15MAR04) Common Control Blocks                                                                   Page    6
0Current Usings:  (KWBASE,R7) (IHADCB,R9) (KWR,R10)
0Loc    Object Code    Addr1 Addr2  Stmt Lv Lineno    Source Statement           (Hibal 5, Asmedit 3.3)  HLASM R4.0  2004/03/15 12.47
+___    ______ ____    _____ _____  ____ __ ______    ______ _________
00000F4 1F00/4300 76CE              8646                       LC    R0,KEYTTR+2         Get record num
 0000FA 5900 7714            00714  8651                       C     R0,TRKRCDS          In bounds?
 0000FE 4720 7152            00152  8652                       BH    KWSRCH              No
 000102 D204 76DF 76C7 006DF 006C7  8653                       MVC   KEYKEY1,KEYKEY      Save desired key
 000108 4DE0 73AA            003AA  8654                       LCALL AMODE24             ********
 00010C 4110 74B8/9404_      004B8  8656                       READ  KEYDECB,DI,MF=E
 000126 4DE0 73BE            003BE  8665                       LCALL AMODER              ********
 00012A 4DE0 7342            00342  8667                       BAS   14,KWEXCPEX         Return to dispatcher
 00012E 910A 74B9      004B9        8668                       TM    KEYDECB+1,X'0A'     I/O error?
 000132 4770 71A8            001A8  8669                       BNZ   KWRCLR              Clear record if so
 000136 91FF 74B9      004B9        8670                       TM    KEYDECB+1,X'FF'     Abend if anything else wrong
 00013A 4780 7142/4D20_      00142  8671                       VERIFY Z                  Besides I/O err
 000142 D504 76C7 76DF 006C7 006DF  8674                       CLC   KEYKEY,KEYKEY1      Get the right one?
 000148 4780 7198            00198  8675                       BE    KWDOK               Continue on if so
 00014C D204 76C7 76DF 006C7 006DF  8676                       MVC   KEYKEY,KEYKEY1      Reset desired key
                                    8677                       ¿þþþþþþþþþþþþþþþþþþþþþþþþþþþþþþþþþþþþþþþþþþþþþþþþþÜ
                                    8678                       Ÿ  Search for the record for the user and group.  Ÿ
                                    8679                       ¾þþþþþþþþþþþþþþþþþþþþþþþþþþþþþþþþþþþþþþþþþþþþþþþþþ»
 000152 4DE0 737C            0037C  8680              KWSRCH   BAS   R14,TTRGET          Go get the ttr
 000156 BE07 76CC            006CC  8681                       STCM  R0,B'0111',KEYTTR   Save ttr pointer
 00015A 4DE0 73AA            003AA  8682                       LCALL AMODE24             ********
 00015E 4110 74B8/9404_      004B8  8684                       READ  KEYDECB,DKF,MF=E
 00017C 4DE0 73BE            003BE  8694                       LCALL AMODER              ********
 000180 4DE0 7342            00342  8696                       BAS   R14,KWEXCPEX        Return to dispatcher
                                    8697
 000184 9175 74B9      004B9        8698                       TM    KEYDECB+1,X'FF'-X'8A'  abend if anything wrong
 000188 4780 7190/4D20_      00190  8699                       VERIFY Z                  Besides I/O err or nrf
 000190 910A 74B9      004B9        8702                       TM    KEYDECB+1,X'0A'     I/O error?
 000194 4770 71A8            001A8  8703                       BNZ   KWRCLR              Go post I/O err if so
 000198                             8704              KWDOK    DS    0H
 000198 9580 76E8      006E8        8705                       CLI   KWCMD,KWRCWR        Write?
 00019C 4780 71E6            001E6  8706                       BE    KEYWR               B if so
 0001A0 9188 74B9      004B9        8707                       TM    KEYDECB+1,X'88'     I/O err or rec not found?
 0001A4 4780 71CA            001CA  8708                       BZ    KEYRDOK             Br if no problem
 0001A8 D7FF A005 A005_00029 00029  8709              KWRCLR   CLEAR KWRDATA             Clear kwr area
 0001B4 D702 76CC 76CC 006CC 006CC  8718                       XC    KEYTTR,KEYTTR       And zot ttr
 0001BA 910A 74B9      004B9        8719                       TM    KEYDECB+1,X'0A'     I/O error?
 0001BE 4780 72E4            002E4  8720                       BZ    KEYPOST             Br if not
 0001C2 9620 A1F4      00218        8721              KEYIOERR OI    KWRHFL,KWRHFERR     Post I/O error condition
 0001C6 47F0 72E4            002E4  8722                       B     KEYPOST             Send record back
 0001CA D2FF A005 74D8 00029 004D8  8723              KEYRDOK  MVC   KWRDATA(256),KEYBUF  Copy...
 0001D0 D2EE A105 75D8 00129 005D8  8724                       MVC   KWRDATA+256(L'KWRDATA-256),KEYBUF+256  ...pw record
 0001D6 D707 A070 76D7 00094 006D7  8725                       XC    KWRPASS,PASSMASK    Unscramble...
 0001DC D703 A074 A070 00098 00094  8726                       XC    KWRPASS+KEYHALF(KEYHALF),KWRPASS  ...password
 0001E2 47F0 72E4            002E4  8727                       B     KEYPOST
1KWWR     (KWWR7) (12:47) (15MAR04) Common Control Blocks                                                                   Page    7
0Current Usings:  (KWBASE,R7) (IHADCB,R9) (KWR,R10)
0Loc    Object Code    Addr1 Addr2  Stmt Lv Lineno    Source Statement           (Hibal 5, Asmedit 3.3)  HLASM R4.0  2004/03/15 12.47
+___    ______ ____    _____ _____  ____ __ ______    ______ _________
00001E6 9180 74B9      004B9        8729              KEYWR    TM    KEYDECB+1,X'80'     Does record already exist?
 0001EA 4780 71FA            001FA  8730                       BZ    KEYUPD1             Br if so
 0001EE 9500 A013      00037        8731                       CLI   KWRWRCT,0           Rewrite count is 0?
 0001F2 4780 7204            00204  8732                       BE    KEYWR1              Br if so
                                    8733              *
                                    8734              * If the record is not found, and the rewrite count of the buffer
                                    8735              * that the caller passed to us is non-zero, we have a situation
                                    8736              * where the record has been deleted, and the calling routine doesn't
                                    8737              * know that and is attempting to update from a stale copy of the
                                    8738              * keyword record. This actually happened. Account services deleted
                                    8739              * the account of a user who was logged on and was doing a SHOW MAIL.
                                    8740              * When the SHOW MAIL completed, it attempted to update the user's
                                    8741              * keyword record with the result being that KWWR abended.
                                    8742              *
                                    8743              * The abend has now been changed to treat the case the same as if the
                                    8744              * the record was not found on the read. That is, the buffer is
                                    8745              * zeroed, and the caller doesn't get an UPDATE OK indication.
                                    8746              *
                                    8747              *        VERIFY                    Don't do this anymore
 0001F6 47F0 71A8            001A8  8748                       B     KWRCLR              Clear it out
                                    8749
 0001FA D500 A013 74E6 00037 004E6  8750              KEYUPD1  CLC   KWRWRCT,KWRWRCT-KWRDATA+KEYBUF   rewrite counts agree?
 000200 4770 71CA            001CA  8751                       BNE   KEYRDOK             Record changed--send it back
 000204 D2FF 74D8 A005 004D8 00029  8752              KEYWR1   MVC   KEYBUF(256),KWRDATA  Copy in...
 00020A D2EE 75D8 A105 005D8 00129  8753                       MVC   KEYBUF+256(L'KEYBUF-256),KWRDATA+256  ...new record
 000210 4310 A013            00037  8754                       IC    R1,KWRWRCT          Get old rewrite count
 000214 4110 1001            00001  8755                       LA    R1,1(,R1)           Increment rewrite count
 000218 4210 74E6            004E6  8756                       STC   R1,KEYBUF+(KWRWRCT-KWRDATA)  new count to buffer
 00021C D703 7547 A070 00547 00094  8757                       XC    KEYBUF+(KWRPASS+KEYHALF-KWRDATA)(KEYHALF),KWRPASS
 000222 D707 7543 76D7 00543 006D7  8758                       XC    KEYBUF+(KWRPASS-KWRDATA)(L'KWRPASS),PASSMASK  Scramble
 000228 9180 74B9      004B9        8759                       TM    KEYDECB+1,X'80'     Does record already exist?
 00022C 4780 7262            00262  8760                       BZ    KEYUPD2             Br if so
 000230 9180 A00E      00032        8761                       TM    KWRIFL,KWRIFVAL     Initials valid?
 000234 4780 72DC            002DC  8762                       BZ    KEYWROK             Don't add if not
 000238 4DE0 73AA            003AA  8763                       LCALL AMODE24             ********
 00023C 4110 74B8/9404_      004B8  8765                       WRITE KEYDECB,DA,MF=E     Add the record
 000256 4DE0 73BE            003BE  8774                       LCALL AMODER              ********
 00025A 92D7 76E7      006E7        8776                       MVI   CHKMASK,X'FF'-X'28' Allow I/O err and no space
 00025E 47F0 72A4            002A4  8777                       B     KEYWR2
                                    8778
 000262 9180 A00E      00032        8779              KEYUPD2  TM    KWRIFL,KWRIFVAL     Initials valid?
 000266 4710 7274            00274  8780                       BO    KEYUPD3             Br if so
 00026A 92FF 76C7      006C7        8781                       MVI   KEYKEY,X'FF'        Set to delete if not
 00026E D200 74D8 76CE 004D8 006CE  8782                       MVC   KEYBUF(1),KEYTTR+2  Dummy record must have rec num
 000274 4DE0 73AA            003AA  8783              KEYUPD3  LCALL AMODE24             ********
 000278 4110 74B8/9404_      004B8  8785                       WRITE KEYDECB,DI,MF=E     Rewrite the record
 00028E 4DE0 73BE            003BE  8793                       LCALL AMODER              ********
 000292 92F5 76E7      006E7        8795                       MVI   CHKMASK,X'FF'-X'0A' Allow only I/O err
 000296 95FF 76C7      006C7        8796                       CLI   KEYKEY,X'FF'        Delete operation?
 00029A 4770 72A4            002A4  8797                       BNE   KEYWR2              No
 00029E D702 76CC 76CC 006CC 006CC  8798                       XC    KEYTTR,KEYTTR       can't return ttr if gone
 0002A4 4DE0 7342            00342  8799              KEYWR2   BAS   R14,KWEXCPEX        Return to dispatcher
 0002A8 91FF 74B9      004B9        8800                       TM    KEYDECB+1,X'FF'     Anything funny?
 0002AC 4780 72DC            002DC  8801                       BZ    KEYWROK             Br if not
1KWWR     (KWWR7) (12:47) (15MAR04) Common Control Blocks                                                                   Page    8
0Current Usings:  (KWBASE,R7) (IHADCB,R9) (KWR,R10)
0Loc    Object Code    Addr1 Addr2  Stmt Lv Lineno    Source Statement           (Hibal 5, Asmedit 3.3)  HLASM R4.0  2004/03/15 12.47
+___    ______ ____    _____ _____  ____ __ ______    ______ _________
00002B0 D400 76E7 74B9 006E7 004B9  8802                       NC    CHKMASK,KEYDECB+1   Anything really funny, then?
 0002B6 4780 72BE/4D20_      002BE  8803                       VERIFY Z
 0002BE D702 76CC 76CC 006CC 006CC  8806                       XC    KEYTTR,KEYTTR       Zero ttr if something amiss
 0002C4 9120 74B9      004B9        8807                       TM    KEYDECB+1,X'20'     No room for new record?
 0002C8 4780 72D0            002D0  8808                       BZ    *+8
 0002CC 9610 A1F4      00218        8809                       OI    KWRHFL,KWRHFFUL
 0002D0 9108 74B9      004B9        8810                       TM    KEYDECB+1,X'08'     I/O error?
 0002D4 4780 72E4            002E4  8811                       BZ    KEYPOST
 0002D8 47F0 71C2            001C2  8812                       B     KEYIOERR            Go post I/O err
                                    8813
 0002DC 9640 A1F4      00218        8814              KEYWROK  OI    KWRHFL,KWRHFUOK     Update or add successful
 0002E0 47F0 72E4            002E4  8815                       B     KEYPOST
1KWWR     (KWWR7) (12:47) (15MAR04) Common Control Blocks                                                                   Page    9
0Current Usings:  (KWBASE,R7) (IHADCB,R9) (KWR,R10)
0Loc    Object Code    Addr1 Addr2  Stmt Lv Lineno    Source Statement           (Hibal 5, Asmedit 3.3)  HLASM R4.0  2004/03/15 12.47
+___    ______ ____    _____ _____  ____ __ ______    ______ _________
0                                   8817                       ¿þþþþþþþþþþþþþþþþþþþþþþþþþþþþþþþþþþþþþþÜ
                                    8818                       Ÿ  signal password operation complete  Ÿ
                                    8819                       ¾þþþþþþþþþþþþþþþþþþþþþþþþþþþþþþþþþþþþþþ»
 0002E4 9200 74B8      004B8        8820              KEYPOST  MVI   KWECB,0             Clear ecb
 0002E8 947F 76E9      006E9        8821                       NI    GFL,X'FF'-GFBUSY    Clear busy indication
 0002EC 1F00/BF07 76CC              8822                       LCM   R0,B'0111',KEYTTR   Get ttr pointer
 0002F2 18D8                        8827                       LR    13,WAR              Pop stack
 0002F4 98EF D000            00000  8828                       LM    14,15,0(13)
 0002F8 981C D00C            0000C  8829                       LM    1,12,12(13)
 0002FC 47F0 E004            00004  8830                       B     4(,14)              Return to "done" return point
                                    8831
 000300 9240 74B8      004B8        8832              NOFILE   MVI   KWECB,X'40'         Post ecb
 000304 4DE0 7342            00342  8833                       BAS   14,KWEXCPEX         Return to dispatcher
 000308 9200 A1F4      00218        8834                       MVI   KWRHFL,0            Password checking not in effect
 00030C 9280 A00E      00032        8835                       MVI   KWRIFL,KWRIFVAL     Set user valid
 000310 9280 A00F      00033        8836                       MVI   KWRAFL,KWRAFVAL     Set account valid
 000314 47F0 72E4            002E4  8837                       B     KEYPOST
                                    8838
 000318 9180 76E9      006E9        8839              KWCLOSE  TM    GFL,GFBUSY          Password operation in progress?
 00031C 4780 732A            0032A  8840                       BZ    KWCLOS1             Br if not
 000320 4100 0001/4110_      00001  8841                       WAIT  ECB=KWECB           Wait for current I/O to finish
 00032A 4DE0 73AA            003AA  8848              KWCLOS1  LCALL AMODE24             ********
 00032E 4110 74D4/0A14       004D4  8850                       CLOSE MF=(E,OPENLIST)     Close DCB
 000334 4DE0 73BE            003BE  8854                       LCALL AMODER              ********
 000338 D702 76CC 76CC 006CC 006CC  8856                       XC    KEYTTR,KEYTTR       Zero ttr if no file
 00033E 47F0 734A            0034A  8857                       B     EXIT1               Return
                                    8858
 000342 50E0 74AC            004AC  8859              KWEXCPEX ST    14,EXITSA           Save resume point
 000346 909A 74B0            004B0  8860                       STM   DCBR,KWRR,EXITSA+4  Save regs
 00034A 18D8                        8861              EXIT1    LR    13,WAR              Pop save area stack
 00034C 98EC D000            00000  8862                       LM    14,12,0(13)
 000350 07FE                        8863                       BR    14                  Return to "not done" return point
1KWWR     (KWWR7) (12:47) (15MAR04) Common Control Blocks                                                                   Page   10
0Current Usings:  (KWBASE,R7) (IHADCB,R9) (KWR,R10)
0Loc    Object Code    Addr1 Addr2  Stmt Lv Lineno    Source Statement           (Hibal 5, Asmedit 3.3)  HLASM R4.0  2004/03/15 12.47
+___    ______ ____    _____ _____  ____ __ ______    ______ _________
0                                   8865                       ¿þþþþþþþþþþþþþþþþþþþþþþþþþþþþþþþþþþþÜ
                                    8866                       Ÿ  password wait and check routine  Ÿ
                                    8867                       ¾þþþþþþþþþþþþþþþþþþþþþþþþþþþþþþþþþþþ»
                                    8868              KWWAIT   EQU   *
 DROP   KWBASE,R7                   8869                       DROP  BR
 USING  *,R15                       8876                       USING *,15
 000352 91C0 F397      006E9        8886                       TM    GFL,GFBUSY+GFOPEN
 000356 4710 F00C/4D20_      0035E  8887                       VERIFY O
 00035E 9140 F166      004B8        8890                       TM    KWECB,X'40'         I/O done yet?
 000362 078E                        8891                       BZR   14                  Return to "not done" return point
 000364 90EC D000            00000  8892                       STM   14,12,0(13)
 000368 188D                        8893                       LR    WAR,13              Save old stack pointer
 00036A 41D0 D03C            0003C  8894                       LA    13,15*4(,13)        Push stack
 00036E 5870 F14E            004A0  8895                       L     BR,=A(KWBASE)       Proper base register
 DROP   *,R15                       8896                       DROP  R15
 USING  KWBASE,R7                   8903                       USING KWBASE,BR
 000372 58E0 74AC            004AC  8912                       L     14,EXITSA           Get resume point
 000376 989A 74B0            004B0  8913                       LM    DCBR,KWRR,EXITSA+4  Restore regs
 00037A 07FE                        8914                       BR    R14
1KWWR     (KWWR7) (12:47) (15MAR04) Common Control Blocks                                                                   Page   11
0Current Usings:  (KWBASE,R7) (IHADCB,R9) (KWR,R10)
0Loc    Object Code    Addr1 Addr2  Stmt Lv Lineno    Source Statement           (Hibal 5, Asmedit 3.3)  HLASM R4.0  2004/03/15 12.47
+___    ______ ____    _____ _____  ____ __ ______    ______ _________
0                                   8916              *
                                    8917              * The alrogithm below calculates a hashed starting place to
                                    8918              *   search for the keyword record based on the account.  Note, if
                                    8919              *   you change this you will also need to change the PL/I version
                                    8920              *   in the "DAFT" accounting routine.
                                    8921              *
 00037C BF1F A000            00024  8922              TTRGET   ICM   R1,15,KWRUSER       Get "uuug" in account
 000380 1111                        8923                       LNR   R1,R1
 000382 BF0F A001            00025  8924                       ICM   R0,15,KWRUSER+1     Get "uugg" in account
 000386 1100                        8925                       LNR   R0,R0
 000388 1B10                        8926                       SR    R1,R0               Calc ("uuug"-"uugg"))
 00038A 1011                        8927                       LPR   R1,R1               Ensure positive
 00038C 1B00                        8928                       CLEAR R0
 00038E 5D00 7710            00710  8932                       D     R0,KWFSIZE          Get hashed record number
                                    8933
 000392 5E00 74A4            004A4  8934                       AL    R0,=F'1'            Add in one
 000396 8C00 0020            00020  8935                       SRDL  R0,32               Move for divide
 00039A 5D00 7714            00714  8936                       D     R0,TRKRCDS          Compute
 00039E 5E00 74A4            004A4  8937                       AL    R0,=F'1'            Ttr
 0003A2 8910 0008            00008  8938                       SLL   R1,8                Move tracks to left
 0003A6 1601                        8939                       OR    R0,R1               Setup ttr in R0
 0003A8 07FE                        8940                       BR    R14                 Return to caller
1KWWR     (KWWR7) (12:47) (15MAR04) Common Control Blocks                                                                   Page   12
0Current Usings:  (KWBASE,R7) (IHADCB,R9) (KWR,R10)
0Loc    Object Code    Addr1 Addr2  Stmt Lv Lineno    Source Statement           (Hibal 5, Asmedit 3.3)  HLASM R4.0  2004/03/15 12.47
+___    ______ ____    _____ _____  ____ __ ______    ______ _________
0                                   8942              ¿þþþþþþþþþþþþþþþþþþþþþþþþþþþþþþþþþþþþþþþþþþþþþþþþþþþþþþþþþþþþþþþþþþþþþÜ
                                    8943              Ÿ                                                                     Ÿ
                                    8944              Ÿ  AMODE24 -- Local routine to switch to 24-bit mode.                 Ÿ
                                    8945              Ÿ                                                                     Ÿ
                                                      ¾þþþþþþþþþþþþþþþþþþþþþþþþþþþþþþþþþþþþþþþþþþþþþþþþþþþþþþþþþþþþþþþþþþþþþ»
00003AA 90EF 73E0            003E0  8946              AMODE24  STM   R14,R15,AMODERGS
 0003AE 41F0 73B4            003B4  8947                       LA    R15,A24GO
 0003B2 0CEF                        8948                       BASSM R14,R15             Switch to 24-bit mode
 0003B4 50E0 73DC            003DC  8949              A24GO    ST    R14,AMODESAV        Save old mode indicator
 0003B8 98EF 73E0            003E0  8950                       LM    R14,R15,AMODERGS    Restore regs
 0003BC 07FE                        8951                       BR    RAR
-                                   8953              ¿þþþþþþþþþþþþþþþþþþþþþþþþþþþþþþþþþþþþþþþþþþþþþþþþþþþþþþþþþþþþþþþþþþþþþÜ
                                    8954              Ÿ                                                                     Ÿ
                                    8955              Ÿ  AMODER -- Local routine to switch back to previous AMODE.          Ÿ
                                    8956              Ÿ                                                                     Ÿ
                                                      ¾þþþþþþþþþþþþþþþþþþþþþþþþþþþþþþþþþþþþþþþþþþþþþþþþþþþþþþþþþþþþþþþþþþþþþ»
00003BE 90EF 73E0            003E0  8957              AMODER   STM   R14,R15,AMODERGS
 0003C2 41F0 73D4            003D4  8958                       LA    R15,ARGO
 0003C6 9180 73DC/47E0_003DC        8959                       IF    AMODESAV.X'80','O R15,=A(X"80000000")'  31-bit mode
 0003D2 0B0F                        8981                       BSM   0,R15
 0003D4 98EF 73E0            003E0  8982              ARGO     LM    R14,R15,AMODERGS    Restore regs
 0003D8 07FE                        8983                       BR    RAR
                                    8984
 0003DC                             8985              AMODESAV DS    A                   Saved AMODE
 0003E0                             8986              AMODERGS DS    2A                  Save area
1KWWR     (KWWR7) (12:47) (15MAR04) Common Control Blocks                                                                   Page   13
0Current Usings:  (KWBASE,R7) (IHADCB,R9) (KWR,R10)
0Loc    Object Code    Addr1 Addr2  Stmt Lv Lineno    Source Statement           (Hibal 5, Asmedit 3.3)  HLASM R4.0  2004/03/15 12.47
+___    ______ ____    _____ _____  ____ __ ______    ______ _________
00003E8                             8988              TRKREGS  DS    14F                 Register save area
                                    8989              *
                                    8991              TRKLIST  TRKCALC MF=D
 000420                             8992    01-TRKCA +         DS    0F                       ALIGN TO FULL WORD BOUNDARY
 000420                             8993    01-TRKCA +TRKLIST  DS    0CL12                    STAR PARM LIST MAP
 000420                             8994    01-TRKCA +STARUCBA DS    0F                       UCB ADDRESS
 000420                             8995    01-TRKCA +STARDCTA DS    0F                       DEVICE TABLE ADDRESS
 000420                             8996    01-TRKCA +         DS    XL3
 000423                             8997    01-TRKCA +STARTYPE DS    XL1                      DEVICE TYPE
 000424                             8998    01-TRKCA +STARFLGS DS    XL1                      FUNCTION AND OPTIONS
                                    8999    01-TRKCA +STARFUNC EQU   B'10000000'              FUNCTION: 0=TRKBAL, 1=TRKCAP
                                    9000    01-TRKCA +STARMAXS EQU   B'01000000'              1=MAXSIZE REQUESTED
                                    9001    01-TRKCA +STARREMV EQU   B'00100000'              1=REMOVE REQUESTED
                                    9002    01-TRKCA +STARUBAL EQU   B'00010000'              1=CALLER PROVIDED BALANCE
                                    9003    01-TRKCA +STARLAST EQU   B'00001000'              1=SPECIAL LAST RCD REQUEST
                                    9004    01-TRKCA +STARDTU  EQU   B'00000110'              DVCT ENTRY SOURCE FLAGS:
                                    9005             +*                                       00=DVCT ENTRY ADDRESS PROVIDED
                                    9006             +*                                       01=RESERVED
                                    9007             +*                                       10=UCB ADDRESS PROVIDED
                                    9008             +*                                       11=DEVICE TYPE PROVIDED
                                    9009    01-TRKCA +STARLOC  EQU   B'00000001'              LOC=ANY. DEVTAB OR UCB     @L1C
                                    9010             +*                                       ABOVE THE LINE             @L1A
 000425                             9011    01-TRKCA +         DS    XL1                      RESERVED
 000426                             9012    01-TRKCA +STARBAL  DS    H                        TRACK BALANCE
 000428                             9013    01-TRKCA +STARRKDD DS    0F                       RECORD INFO AS DEFINED BELOW
 000428                             9014    01-TRKCA +STARR    DS    XL1                      RECORD NUMBER
 000429                             9015    01-TRKCA +STARKL   DS    XL1                      KEY LENGTH
 00042A                             9016    01-TRKCA +STARDL   DS    H                        DATA LENGTH
-                                   9019              ¿þþþþþþþþþþþþþþþþþþþþþþþþþþþþþþþþþþþþþþþþþþþþþþþþþþþþþþþþþþþþþþþþþþþþþÜ
                                    9020              Ÿ                                                                     Ÿ
                                    9021              Ÿ  CALCREC -- Routine to calculate the number of records per          Ÿ
                                    9022              Ÿ    track for a given block size.                                    Ÿ
                                    9023              Ÿ                                                                     Ÿ
                                    9024              Ÿ    On entry:                                                        Ÿ
                                    9025              Ÿ      R0 - block size (keylen in byte 2; datalen in bytes 3-4)       Ÿ
                                    9026              Ÿ      R1 - DVTAREA ptr (info returned from DEVTYPE)                  Ÿ
                                    9027              Ÿ                                                                     Ÿ
                                    9028              Ÿ    On exit:                                                         Ÿ
                                    9029              Ÿ      R1 - no. of records/track                                      Ÿ
                                    9030              Ÿ                                                                     Ÿ
                                    9031              Ÿ                                                                     Ÿ
                                                      ¾þþþþþþþþþþþþþþþþþþþþþþþþþþþþþþþþþþþþþþþþþþþþþþþþþþþþþþþþþþþþþþþþþþþþþ»
000042C 902F 73E8            003E8  9032              CALCREC  STM   R2,R15,TRKREGS      Save regs
                                    9033
 000430 1861                        9034                       LR    R6,R1
 USING  DVTAREA,R6                  9035                       WITH  (DVTAREA,R6),BEGIN
 000432 D70B 7420 7420 00420 00420  9049  1                      CLEAR TRKLIST
 000438 5000 7428            00428  9056  1                      ST    R0,STARRKDD         Save key and data length
 00043C 9201 7428      00428        9057  1                      MVI   STARR,1             Save record number
 000440 1F22/4320 6003              9058  1                      LC    R2,DVTUTYPE         Device type
 000446 4110 7420/4220_      00420  9065  1                      TRKCALC  FUNCTN=TRKCAP,TYPE=(R2),MF=(E,TRKLIST)
1KWWR     (KWWR7) (12:47) (15MAR04) Common Control Blocks                                                                   Page   14
0Current Usings:  (DVTAREA,R6) (KWBASE,R7) (IHADCB,R9) (KWR,R10)
0Loc    Object Code    Addr1 Addr2  Stmt Lv Lineno    Source Statement           (Hibal 5, Asmedit 3.3)  HLASM R4.0  2004/03/15 12.47
+___    ______ ____    _____ _____  ____ __ ______    ______ _________
000045E 982F 73E8            003E8  9076  1                      LM    R2,R15,TRKREGS
 000462 1810                        9077  1                      LR    R1,R0               Records per track
 DROP   DVTAREA,R6                  9078                       END
 000464 07FE                        9086                       BR    R14                 Return
1KWWR     (KWWR7) (12:47) (15MAR04) Common Control Blocks                                                                   Page   15
0Current Usings:  (KWBASE,R7) (IHADCB,R9) (KWR,R10)
0Loc    Object Code    Addr1 Addr2  Stmt Lv Lineno    Source Statement           (Hibal 5, Asmedit 3.3)  HLASM R4.0  2004/03/15 12.47
+___    ______ ____    _____ _____  ____ __ ______    ______ _________
0000466 1F11/BF17 902D              9088              COUNT    L3    R1,DCBDEBAD+1       DEB addr
 USING  DEBBASIC,R1                 9096                       WITH  (DEBBASIC,R1),BEGIN
 00046C 1F22/4320 1010              9110  1                      LC    R2,DEBNMEXT         No. of extents
 000472 4110 1020            00044  9117  1                      LA    R1,DEBBASND         Device dependent section
 DROP   DEBBASIC,R1                 9118  1                      WITH  (DEBDASD,R1),BEGIN
 USING  DEBDASD,R1
 000476 1B00                        9135  2                        CLEAR R0
 000478 4A00 100E            0000E  9139  2           CNTTRK       AH    R0,DEBNMTRK         No. tracks in this extent
 DROP   DEBDASD,R1                  9140  1                      END
 USING  DEBBASIC,R1
 00047C 4110 1010            00010  9155  1                      LA    R1,DEBDSZDA(,R1)    Size of extent area
 000480 4620 7478            00478  9156  1                      BCT   R2,CNTTRK           Next extent
 DROP   DEBBASIC,R1                 9157                       END   ,
 000484 07FE                        9165                       BR    R14                 Done
1KWWR     (KWWR7) (12:47) (15MAR04) Common Control Blocks                                                                   Page   16
0Current Usings:  (KWBASE,R7) (IHADCB,R9) (KWR,R10)
0Loc    Object Code    Addr1 Addr2  Stmt Lv Lineno    Source Statement           (Hibal 5, Asmedit 3.3)  HLASM R4.0  2004/03/15 12.47
+___    ______ ____    _____ _____  ____ __ ______    ______ _________
0000486 0D70                        9167              ABEND    BASE
 DROP   KWBASE,R7
 USING  *,R7
 000488 5870 7018            004A0  9184                       L     BR,=A(KWBASE)
 DROP   *,R7                        9185                       USING KWBASE,BR
 USING  KWBASE,R7
 00048C 1F27                        9197                       SLR   R2,BR               Displacement to error point
 00048E 4110 0049/4100_      00049  9198                       ABEND 73,DUMP
                                    9207
                                    9208                       QLTORG
                                    9223
 0004AC 0000000000000000            9224              EXITSA   DC    (KWRR-DCBR+2)A(0)
 0004B8 00000000/10/4C/0_           9225                       READ  KEYDECB,DKF,KEYFILE,KEYBUF,'S',KEYKEY,KEYTTR,MF=L
                                    9237
                                    9238              KWECB    EQU   KEYDECB             Password I/O ecb
                                    9239
 0004D4 84/000718                   9240              OPENLIST OPEN  (KEYFILE,UPDAT),MF=L
                                    9244
 0004D8                             9245              KEYBUF   DS    XL(KWRHFL-KWRDATA)  Keyword file
                                    9246              KEYHALF  EQU   L'KWRPASS/2         For scrambling
 0006C7 0000000000                  9247              KEYKEY   DC    XL5'0'              Key for password record
 0006CC 000000                      9248              KEYTTR   DC    XL3'0'              Initial search address
 0006CF E3E3D4C3C3404040            9249              SCRMASK  DC    CL8'TTMCC'          Scramble mask for account
 0006D7 C5C1E3C1E3C3C9E3            9250              PASSMASK DC    CL8'EATATCIT'       Scramble mask for password
 0006DF 0000000000                  9251              KEYKEY1  DC    XL5'0'
 0006E4 000001                      9252              KEYTTR1  DC    XL3'1'
                                    9253
 0006E7 FF                          9254              CHKMASK  DC    X'FF'               1-bits in mask are lethal errors
 0006E8 00                          9255              KWCMD    DC    X'0'                Cmd code
 0006E9 00                          9256              GFL      DC    X'0'                Global flags
                                    9257
                                    9258              GFBUSY   EQU   X'80'               Password operation in progress
                                    9259              GFOPEN   EQU   X'40'               DCB has been opened
                                    9260
 0006EA 4040404040404040            9261              KEYNAME  DC    CL8' '              Ddname of file
                                    9262
 0006F2 0000
 0006F4 00000000                    9263              NUMTRKS  DC    A(0)                Number of tracks in data set
1KWWR     (KWWR7) (12:47) (15MAR04) Common Control Blocks                                                                   Page   17
0Current Usings:  (KWBASE,R7) (IHADCB,R9) (KWR,R10)
0Loc    Object Code    Addr1 Addr2  Stmt Lv Lineno    Source Statement           (Hibal 5, Asmedit 3.3)  HLASM R4.0  2004/03/15 12.47
+___    ______ ____    _____ _____  ____ __ ______    ______ _________
00006F8                             9265              DVTAREA  DVTAREA ,                 Define device area
                                    9321
 000710 00007FED                    9322              KWFSIZE  DC    A(&KWFSIZE)         Number of records in file
                                    9323
 000714 00000000                    9324              TRKRCDS  DC    F'0'                Number of records/track
1KWWR     (KWWR7) (12:47) (15MAR04) Common Control Blocks                                                                   Page   18
0Current Usings:  (KWBASE,R7) (IHADCB,R9) (KWR,R10)
0Loc    Object Code    Addr1 Addr2  Stmt Lv Lineno    Source Statement           (Hibal 5, Asmedit 3.3)  HLASM R4.0  2004/03/15 12.47
+___    ______ ____    _____ _____  ____ __ ______    ______ _________
0                                   9326            C KEYFILE  DCB   DDNAME=KWRFILE,DSORG=DA,RECFM=F,BLKSIZE=L'KEYBUF,
 000718 05/000000/00/0_00718 00728                                   MACRF=(RK,WAI),OPTCD=EF,KEYLEN=5,LIMCT=10
-DROP   IHADCB,R9                   9368                       DROP  DCBR,KWRR
 DROP   KWR,R10
1KWWR     (KWWR7) (12:47) (15MAR04) Common Control Blocks                                                                   Page   19
0Current Usings:  (KWBASE,R7)
0Loc    Object Code    Addr1 Addr2  Stmt Lv Lineno    Source Statement           (Hibal 5, Asmedit 3.3)  HLASM R4.0  2004/03/15 12.47
+___    ______ ____    _____ _____  ____ __ ______    ______ _________
0                                   9382              *
                                    9383              *
                                    9384              *                 Password I/O Routines
                                    9385              *
                                    9386              *
                                    9387              * the password I/O routines handle the password file resource
                                    9388              * this file is a single user path and is used to update space
                                    9389              * used, control various batch limits and contain the users
                                    9390              * password.  it is also used to store cross session information
                                    9391              * of which the best example is the flag that indicates that an
                                    9392              * execfile is to be automatically executed when the user logs
                                    9393              * on.
                                    9394              *
                                    9395              * the kwio routine obtains the kwrio resource and of course
                                    9396              * waits if it is not available.  when the resource is obtained
                                    9397              * the I/O is started and the user waits until it completes
                                    9398              * upon completion of the I/O the kiopost routine is entered
                                    9399              * this routine simply queues the kwrio user JCB to the setup
                                    9400              * queue so that he can be dispatched again.  when the user
                                    9401              * is dispatched he will free up the resource and that will
                                    9402              * cause the first in the queue of other users to be setup
                                    9403              * so that the resource can be reused.
                                    9404              *
                                    9405              * upon entry to kwio the following registers are setup:
                                    9406              *      R1  -  address of the password record.
                                    9407              *      R0  -  type of operation:
                                    9408              *             nn    read
                                    9409              *             mm    write
                                    9410              *             oo    terminate
                                    9411              *
                                    9412              * upon exit the password record has been updated to contain
                                    9413              *   the result of the read/write.  note that an attempt to
                                    9414              *   update the password record may result in a rejection if
                                    9415              *   it had been updated prior to the update request but after
                                    9416              *   the previous read.  if this happens the calling routine
                                    9417              *   should reupdate the newly returned record and retry the
                                    9418              *   update.
                                    9419              *   registers R0 and R1 are not preserved across the call
                                    9420              *
 000780 50E0 D000/9008_      00000  9421              KWIO     XPROC
 DROP   KWBASE,R7
 USING  *,R7
 00079A 1820                        9464                       LR    R2,R0               Save function rqst
 00079C 1831                        9465                       LR    R3,R1               Save kwr pointer
 00079E 5850 C1C8            001C8  9466              KGO      L     JCBR,CVCURJCB       Point at JCB
 USING  JCB,R5                      9467                       USING JCB
                                    9476
 0007A2 9110 B8AA/47E0_008AA        9477                       FAIL  CPRFKWR,KWRLOGIC,'Password I/O logic problem.'
                                    9504
 0007C2 9610 B8AA      008AA        9505                       SET   CPRFKWR             KWR owned
 0007C6 4110 0005/1B00_      00005  9511                       GETRSC KWR,ATTN=NO        Get the resource
 0007D8 4780 705A/900F_      007F4  9529                       FAIL  NZ,KWRERR,'Password resource error.'
 0007F4 1861                        9552                       LR    R6,R1               Copy kwrio resource pointer
 USING  KWRRSC,R6                   9553                       USING KWRRSC,R6
1KWWR     (KWWR7) (12:47) (15MAR04) Common Control Blocks                                                                   Page   20
0Current Usings:  (JCB,R5) (KWRRSC,R6) (*,R7)
0Loc    Object Code    Addr1 Addr2  Stmt Lv Lineno    Source Statement           (Hibal 5, Asmedit 3.3)  HLASM R4.0  2004/03/15 12.47
+___    ______ ____    _____ _____  ____ __ ______    ______ _________
00007F6 9680 6014      00014        9562                       SET   KIO1ACTV            Turn on ecb moniter
 0007FA 4220 601C            0001C  9568                       STC   R2,KWOP             Save op code
 0007FE 41E0 6024/41F0_      00024  9569                       MOVEL KWR,@R3             Move the record
 00080C 9200 6218      00218        9593                       MVI   KWRHFL,0            Assume that it fails
 000810 1B00                        9594                       CLEAR R0                  Assume no record no.
 000812 D504 B3B4 6024_003B4 00024  9598                       IF    (CPSACCT,EQ,KWRUSER),'L R0,CPKWRID'  Our record no.
 000820 4110 601C            0001C  9622                       LA    R1,KWLIST           Parm list
 000824 58F0 730A            00AA4  9623                       L     R15,=V(KWEXCP)      Get address of kwio start
 000828 12FF                        9624                       LTR   R15,R15             Is there a password routine
 00082A 47D0 70B4            0084E  9625                       BNP   KWIODN              Br no to set flag
 00082E 0DEF                        9626                       BASR  RAR,R15             Go start the kw I/O
 000830 47F0 709E            00838  9627                       B     KIOPAUSE            Branch if not done
 000834 47F0 70B4            0084E  9628                       B     KWIODN              Br if done
 000838 9620 5060/41E0_00060        9629              KIOPAUSE PAUSE JCBWFD              Wait for kwrio to complete
 00084A 5800 6020            00020  9643                       L     R0,KWKWRID          Get kwr record id. from kwrrsc
 00084E 9180 6218/4710_00218        9644              KWIODN   IF    ~KWRHFL.KWRHFCK,'CLEAR KWRIFL'  No kw checking, zot
 00085A D504 B3B4 6024_003B4 00024  9673                       IF    (CPSACCT,EQ,KWRUSER),'ST R0,CPKWRID'  Save our rec no.
 000868 18E3/41F0 01F8_             9697                       MOVEL @R3,KWR,L'KWR       Move the record
 000876 D7FF 6024 6024_00024 00024  9721                       CLEAR KWR
 000882 4110 0005/1B00_      00005  9729                       FREERSC KWR
 0008AA 94EF B8AA      008AA        9768                       CLEAR CPRFKWR             KWR no longer owned
 0008AE 18D8/9808 D004_             9775                       PEND  ,
 DROP   *,R7
 USING  KWBASE,R7
 DROP   KWRRSC,R6                   9802                       DROP  KWRRSC
1KWWR     (KWWR7) (12:47) (15MAR04) Common Control Blocks                                                                   Page   21
0Current Usings:  (JCB,R5) (KWBASE,R7)
0Loc    Object Code    Addr1 Addr2  Stmt Lv Lineno    Source Statement           (Hibal 5, Asmedit 3.3)  HLASM R4.0  2004/03/15 12.47
+___    ______ ____    _____ _____  ____ __ ______    ______ _________
0                                   9811              ¿þþþþþþþþþþþþþþþþþþþþþþþþþþþþþþþþþþþþþþþþþþþþþþþþþþþþþþþþþþþþþþþþþþþþþÜ
                                    9812              Ÿ                                                                     Ÿ
                                    9813              Ÿ  KWRFREE -- Routine to release the KWR resource if it is held.      Ÿ
                                    9814              Ÿ    This routine is called by the command processor at command       Ÿ
                                    9815              Ÿ    cleanup.                                                         Ÿ
                                    9816              Ÿ                                                                     Ÿ
                                                      ¾þþþþþþþþþþþþþþþþþþþþþþþþþþþþþþþþþþþþþþþþþþþþþþþþþþþþþþþþþþþþþþþþþþþþþ»
00008BC 50E0 D000/9008_      00000  9817              KWRFREE  XPROC
 DROP   KWBASE,R7
 USING  *,R7
 0008D6 4110 0005/1B00_      00005  9860                       FREERSC KWR,CHECK=NO      Free if held
 0008E2 94EF B8AA      008AA        9876                       CLEAR CPRFKWR
 0008E6 18D8/9808 D004_             9883                       PEND
 DROP   *,R7
 USING  KWBASE,R7
1KWWR     (KWWR7) (12:47) (15MAR04) Common Control Blocks                                                                   Page   22
0Current Usings:  (JCB,R5) (KWBASE,R7)
0Loc    Object Code    Addr1 Addr2  Stmt Lv Lineno    Source Statement           (Hibal 5, Asmedit 3.3)  HLASM R4.0  2004/03/15 12.47
+___    ______ ____    _____ _____  ____ __ ______    ______ _________
0                                   9911              *
                                    9912              *            Password I/O post routine
                                    9913              *
                                    9914              * this routine is entered when the kwr$ecb is posted for
                                    9915              * the kwrrsc.  it it used to set the user waiting on the
                                    9916              * password I/O dispatchable.
                                    9917              *
 0008F4 50E0 D000/9008_      00000  9918              KIOPOST  XPROC
 DROP   KWBASE,R7
 USING  *,R7
 00090E 1841                        9961                       LR    R4,R1               Copy resource group pointer
 USING  RSCGROUP,R4                 9962                       WITH  (RSCGROUP,R4)
 000910 1860                        9975                       LR    R6,R0               Get the resource
 USING  KWRRSC,R6                   9976                       WITH  (KWRRSC,R6),BEGIN
 000912 9140 6014/47E0_00014        9990  1                      IF    KIO1@ECB,'L  R1,KIO$ECB'  Get pointer to...
 00091E 7014/47F0 7018_0091E 00918 10011  1                      ELSE  'LA  R1,KIO$ECB'    ...the ecb
 000926 9140 1000      00000       10028  1                      TM    @R1,X'40'           Is it posted?
 00092A 4780 703C            0094A 10029  1                      BZ    KIONP               Br if not
 00092E 58F0 71A2            00AB0 10030  1                      L     R15,=V(KWWAIT)      Get kwr routine
 000932 0DEF                       10031  1                      BASR  RAR,R15             Go there
 000934 47F0 703C            0094A 10032  1                      B     KIONP               Onward
 000938 5000 6020            00020 10033  1                      ST    R0,KWKWRID          Save kwr record no.
 00093C 5850 6008            00008 10034  1                      L     R5,KIO@JCB          Get the JCB pointer
 000940 94DF 5060      00060       10035  1                      CLEAR JCBWFD              No longer waiting for kio
 000944 58E0 71A6/0DEE       00AB4 10042  1                      VCALL QSETUP              Go put on setup queue
 00094A                            10046  1           KIONP      LABEL
 DROP   KWRRSC,R6                  10048                       END
 00094A 18D8/9808 D004_            10056                       PEND
 DROP   RSCGROUP,R4
 DROP   *,R7
 USING  KWBASE,R7
1KWWR     (KWWR7) (12:47) (15MAR04) Common Control Blocks                                                                   Page   23
0Current Usings:  (JCB,R5) (KWBASE,R7)
0Loc    Object Code    Addr1 Addr2  Stmt Lv Lineno    Source Statement           (Hibal 5, Asmedit 3.3)  HLASM R4.0  2004/03/15 12.47
+___    ______ ____    _____ _____  ____ __ ______    ______ _________
0                                  10089              ¿þþþþþþþþþþþþþþþþþþþþþþþþþþþþþþþþþþþþþþþþþþþþþþþþþþþþþþþþþþþþþþþþþþþþþÜ
                                   10090              Ÿ                                                                     Ÿ
                                   10091              Ÿ  KIOINIT -- Password file initialization.                           Ÿ
                                   10092              Ÿ    Called from the INIT module.                                     Ÿ
                                   10093              Ÿ                                                                     Ÿ
                                                      ¾þþþþþþþþþþþþþþþþþþþþþþþþþþþþþþþþþþþþþþþþþþþþþþþþþþþþþþþþþþþþþþþþþþþþþ»
0000958 50E0 D000/9008_      00000 10094              KIOINIT  XPROC
 DROP   KWBASE,R7
 USING  *,R7
 000972 58F0 C1C0            001C0 10137                       L     R15,CVFJCB
 000976 50F0 C1C8            001C8 10138                       ST    R15,CVCURJCB        Set for lousy GETRSC
                                   10139
 00097A 5840 7146            00AB8 10140                       L     R4,=V(KWRRSG)       Password file resource group
 USING  RSCGROUP,R4                10141                       WITH  (RSCGROUP,R4)
 00097E 4110 0005/1B00_      00005 10154                       GETRSC KWR,WAIT=NO        Get the password resource
 00098E 4780 7038/900F_      009AA 10171                       FAIL  NZ,NOKWRRSC,'No password file resource.'
                                   10194
 0009AA 1861                       10195                       LR    R6,R1               Copy resource pointer
 USING  KWRRSC,R6                  10196                       WITH  (KWRRSC,R6),BEGIN
 0009AC 5800 714A/1200       00ABC 10210  1                      LT    R0,=V(KWECB)        Get address of kw ecb
 0009B2 4770 705C/900F_      009CE 10214  1                      FAIL  Z,NOKWECB,'Password file support messed up.'
 0009CE 9640 6014      00014       10237  1                      SET   KIO1@ECB            Set have ecb address
 0009D2 5000 600C            0000C 10243  1                      ST    R0,KIO$ECB          Save ecb address
 0009D6 5800 714E            00AC0 10244  1                      L     R0,=A(KIOPOST)      Get post routine address
 0009DA 5000 4028            00028 10245  1                      ST    R0,RSG@POST         Save post address
 DROP   KWRRSC,R6                  10246                       END
                                   10254
 0009DE 4110 0005/1B00_      00005 10255                       FREERSC KWR               Give the resource up
 000A06 D703 C1C8 C1C8 001C8 001C8 10294                       CLEAR CVCURJCB            Reset
 000A0C 18D8/9808 D004_            10301                       PEND
 DROP   RSCGROUP,R4
 DROP   *,R7
 USING  KWBASE,R7
-                                  10334                       VLTORG ,
 000AA0                            10347                       END   .
 000AA0 00000000                   10350                             =V(GETRSC)
 000AA4 00000000                   10351                             =V(KWEXCP)
 000AA8 00000000                   10352                             =V(DISPATCH)
 000AAC 00000000                   10353                             =V(FREERSC)
 000AB0 00000000                   10354                             =V(KWWAIT)
 000AB4 00000000                   10355                             =V(QSETUP)
 000AB8 00000000                   10356                             =V(KWRRSG)
 000ABC 00000000                   10357                             =V(KWECB)
 000AC0 000008F4                   10358                             =A(KIOPOST)

1KWWR     (KWWR7) (12:47) (15MAR04) Relocation Dictionary                                                                   Page   24
-   Pos.Id   Rel.Id   Flags    Address                                                       HLASM R4.0  2004/03/15 12.47
0  00000001 00000001    0C    000004A0
   00000001 00000001    0C    000004C0
   00000001 00000001    0C    000004C4
   00000001 00000001    0C    000004CC
   00000001 00000001    0C    000004D0
   00000001 00000001    08    000004D5
   00000001 00000001    08    000007BF
   00000001 00000001    08    000007F1
   00000001 00000001    08    000008A7
   00000001 00000001    08    000009A7
   00000001 00000001    08    000009CB
   00000001 00000001    08    00000A03
   00000001 00000001    0C    00000AC0
   00000001 00000002    1C    00000AA0
   00000001 00000003    1C    00000AA4
   00000001 00000004    1C    00000AA8
   00000001 00000005    1C    00000AAC
   00000001 00000006    1C    00000AB0
   00000001 00000007    1C    00000AB4
   00000001 00000008    1C    00000AB8
   00000001 00000009    1C    00000ABC

1KWWR     (KWWR7) (12:47) (15MAR04) Ordinary Symbol and Literal Cross Reference                                             Page   25
-Symbol   Length   Value     Id    R Type   Defn References                                  HLASM R4.0  2004/03/15 12.47
0$$$@R0        1 00000000 FFFFFFFE     J     705  8343
 $$$@R10       1 00000000 FFFFFFF4     J     835  8433
 $$$@R11       1 00000000 FFFFFFF3     J     848  8446
 $$$@R12       1 00000000 FFFFFFF2     J     861  8459
 $$$@R13       1 00000000 FFFFFFF1     J     874  8472
 $$$@R14       1 00000000 FFFFFFF0     J     887  8485
 $$$@R5        1 00000000 FFFFFFF9     J     770  8356
 $$$@R6        1 00000000 FFFFFFF8     J     783  8369
 $$$@R7        1 00000000 FFFFFFF7     J     796  8382
 $$$@R8        1 00000000 FFFFFFF6     J     809  8395   8407
 $$$@R9        1 00000000 FFFFFFF5     J     822  8420
 $$$C1WYLKWWR
               1 000004AC 00000001     J    9218  9220
 $$$C2WYLKWWR
               1 00000AC4 00000001     J   10359 10361
 $$$DVT        4 000006F8 00000001     F    9266  9320   9320
 $$$RCP        1 00000000 FFFFFFEC     J    2315  4575   6049   6049
 $$$RCV        1 00000000 FFFFFFEE     J    1040  2225   2225
 $$$RDEV       1 00000000 FFFFFFEB     J    4529  4574   4574
 $$$RJCB       1 00000000 FFFFFFE5     J    6548  6822   6822
 $$$RKWRRSC
               1 00000000 FFFFFFE8     J    6178  6425   6425
 $$$RNSCNCB
               1 00000000 FFFFFFED     J    2236  2309   2309
 $$$RRESOURCE
               1 00000000 FFFFFFE6     J    6501  6542   6542
 $$$RRSCGROUP
               1 00000000 FFFFFFE7     J    6440  6495   6495
 $$$RTTYPE
               1 00000000 FFFFFFEA     J    6060  6161   6161
 $$$R42        1 00000000 FFFFFFE9     J    6168  6426
 $$$SEGCB0
               4 00000050 FFFFFFEC     F    2346  2432   2432
 $$$V01       27 00000A1A 00000001     C   10340  9499
 $$$V02       24 00000A35 00000001     C   10341  9547
 $$$V03       18 00000A4D 00000001     C   10342  9763  10289
 $$$V04       26 00000A5F 00000001     C   10343 10189
 $$$V05       32 00000A79 00000001     C   10344 10232
 $$$43B        1 00000014 00000001     X    8529  8536U
 $$$45B        1 00000352 00000001     X    8877  8884U
 $$$46F        2 000003D2 00000001     H    8980  8970B
 $$$48B        1 00000488 00000001     X    9172  9182U
 $$$50B        1 0000079A 00000001     X    9445  9455U
 $$$51F        2 000007C2 00000001     H    9503  9488B
 $$$52F        2 000007F4 00000001     H    9551  9536B
 $$$53F        2 00000820 00000001     H    9621  9611B
 $$$54F        2 0000085A 00000001     H    9672  9656B
 $$$56F        2 00000868 00000001     H    9696  9686B
 $$$57F        2 000008AA 00000001     H    9767  9752B
 $$$58         1 00000050 00000001 A   U    9799  9796   9798
 $$$60B        1 000008D6 00000001     X    9841  9851U
 $$$61         1 00000050 00000001 A   U    9907  9904   9906
 $$$63B        1 0000090E 00000001     X    9942  9952U
 $$$64B        4 00000916 00000001     I   10000 10013
 $$$64F        2 0000091E 00000001     H   10010 10000B 10012
1KWWR     (KWWR7) (12:47) (15MAR04) Ordinary Symbol and Literal Cross Reference                                             Page   26
 $$$65E        2 00000922 00000001     H   10020 10014
 $$$65F        2 00000926 00000001     H   10027 10016B
 $$$66         1 00000050 00000001 A   U   10085 10082  10084
 $$$68B        1 00000972 00000001     X   10118 10128U
 $$$69F        2 000009AA 00000001     H   10193 10178B
 $$$70F        2 000009CE 00000001     H   10236 10221B
 $$$71F        2 00000A06 00000001     H   10293 10278B
 $$$72         1 00000050 00000001 A   U   10330 10327  10329
 @RAR          0 00000000 FFFFFFF0     @    8486  2023   2031B
 @R0           0 00000000 FFFFFFFE     @     706   982U
 @R1           0 00000000 FFFFFFFD     @     719   978U  2029   2030   8560   8567   9095U  9127U  9150U  9163U 10028
 @R10          0 00000000 FFFFFFF4     @     836   942U  9379U
 @R11          0 00000000 FFFFFFF3     @     849   938U
 @R12          0 00000000 FFFFFFF2     @     862   934U
 @R13          0 00000000 FFFFFFF1     @     875   930U
 @R14          0 00000000 FFFFFFF0     @     888   926U
 @R15          0 00000000 FFFFFFEF     @     901   922U  8547U  8901U
 @R2           0 00000000 FFFFFFFC     @     732   974U  9064U  9116U
 @R3           0 00000000 FFFFFFFB     @     745   970U
 @R4           0 00000000 FFFFFFFA     @     758   966U 10062U 10307U
 @R5           0 00000000 FFFFFFF9     @     771   962U
 @R6           0 00000000 FFFFFFF8     @     784   958U  9084U  9808U 10054U 10252U
 @R7           0 00000000 FFFFFFF7     @     797   954U  8526U  8874U  9179U  9192U  9452U  9785U  9848U  9893U  9949U
                                                 10071U 10125U 10316U
 @R8           0 00000000 FFFFFFF6     @     810   950U
 @R9           0 00000000 FFFFFFF5     @     823   946U  9373U
 ABEND         2 00000486 00000001     I    9169  8574B  8581B  8673B  8701B  8805B  8889B
 ABSCENT       1 00000000 00000000 A   T    1026  2039
 AMODER        4 000003BE 00000001     I    8957  8595B  8605B  8666B  8695B  8775B  8794B  8855B
 AMODERGS      4 000003E0 00000001     A    8986  8946M  8950   8957M  8982
 AMODESAV      4 000003DC 00000001     A    8985  8949M  8969
 AMODE24       4 000003AA 00000001     I    8946  8587B  8599B  8655B  8683B  8764B  8784B  8849B
 ARGO          4 000003D4 00000001     I    8982  8958
 ASCTBL        1 00000000 00000000 A   T    1026  2047
 A24GO         4 000003B4 00000001     I    8949  8947
 BLTBL         1 00000000 00000000 A   T    1026  2049
 BR            7 00000007 00000001 A   #    8376  8500U  8541M  8556U  8895M  8910U  9184M  9195U  9197   9440M  9836M
                                                  9937M 10113M
 CALCREC       4 0000042C 00000001     I    9032  8611B
 CHECKIOB      1 00000000 00000000 A   T    1026  2095
 CHKMASK       1 000006E7 00000001     X    9254  8776M  8795M  8802M
 CNTTRK        4 00000478 00000001     I    9139  9156B
 COMMAND       1 00000000 00000000 A   T    1026  2035
 COMMSEG       1 00000000 00000000 A   T    1026  2036
 COUNT         2 00000466 00000001     I    9093  8613B
 CP         4096 00000000 FFFFFFEC     J    6049  1028U
 CP#XSTK       1 00000010 FFFFFFEC A   U    3781  3782
 CPACFLG       1 000005D5 FFFFFFEC     R    3884  3888   3893   3898   3903   3908
 CPACFLN       4 000005C4 FFFFFFEC     F    3876  3911   3911
 CPAFLAG       1 000005C3 FFFFFFEC     R    3848  3852   3857   3862   3867
 CPANAME       8 00000588 FFFFFFEC     C    3830  3926   3926
 CPAUTFLG      1 000008A9 FFFFFFEC     R    4194  4198   4203   4208   4213
 CPCHFLAG      1 00000B68 FFFFFFEC     R    4821  4825
 CPDFLG        1 0000084C FFFFFFEC     R    4081  4085   4090   4095   4100   4105
 CPDFLG2       1 0000084D FFFFFFEC     R    4110  4114   4119   4124   4129   4134   4139
 CPEXFLG       1 00000758 FFFFFFEC     R    3950  3954
 CPEXFLG2      1 00000759 FFFFFFEC     R    3960  3969   3979
 CPEXFLG3      1 0000075A FFFFFFEC     R    3986  3990   3995
 CPEXTFLG      1 00000E28 FFFFFFEC     R    5632  5636   5641   5646   5651   5656   5661
1KWWR     (KWWR7) (12:47) (15MAR04) Ordinary Symbol and Literal Cross Reference                                             Page   27
 CPFABORT    128 00000D5A FFFFFFEC         5398  1999M  1999   2004M  2004
 CPFERROR     64 00000D5A FFFFFFEC         5403  1998M  1998   2003M  2003
 CPFNTEX       1 00000040 FFFFFFEC A   U    5250  5251
 CPFRDRNG      1 00000D88 FFFFFFEC     R    5518  5522   5527   5532   5537   5542   5547   5552
 CPFRDSRC      1 00000D89 FFFFFFEC     R    5557  5566   5576   5586
 CPFUNUM       1 00000080 FFFFFFEC A   U    5249  5251
 CPFXDFLG      1 000007E4 FFFFFFEC     R    4028  4032   4037
 CPGFLG1       1 00000474 FFFFFFEC     R    3391  3395   3400   3405   3410   3415   3745   3745
 CPGFLG10      1 0000047D FFFFFFEC     R    3628  3632   3637   3642   3647   3652   3657
 CPGFLG11      1 0000047E FFFFFFEC     R    3663  3667   3672
 CPGFLG12      1 0000047F FFFFFFEC     R    3678  3682   3687   3692
 CPGFLG13      1 00000480 FFFFFFEC     R    3698  3702
 CPGFLG14      1 00000481 FFFFFFEC     R    3708  3712   3717   3722   3727   3732
 CPGFLG4       1 00000477 FFFFFFEC     R    3444  3455   3464   3473   3482   3491
 CPGFLG5       1 00000478 FFFFFFEC     R    3497  3501   3506   3511   3516   3521   3526   3531   3536
 CPGFLG6       1 00000479 FFFFFFEC     R    3542  3546   3551   3556
 CPGFLG7       1 0000047A FFFFFFEC     R    3562  3566   3571   3576   3581
 CPGFLG8       1 0000047B FFFFFFEC     R    3587  3591   3596   3601   3606
 CPGFLG9       1 0000047C FFFFFFEC     R    3612  3616   3622
 CPINIT        1 00000174 FFFFFFEC     U    2561  6018
 CPJESFLG      1 000009E1 FFFFFFEC     R    4293  4297   4302   4307   4312   4317   4322   4327   4332
 CPJESFLY      1 000009FD FFFFFFEC     R    4343  4347   4352   4357
 CPJESHFL      1 000009E0 FFFFFFEC     R    4278  4282   4287   4366   4366
 CPKWRID       4 00000878 FFFFFFEC     F    4175  9617   9692M
 CPLFLG10      1 00000D59 FFFFFFEC     R    5384  5388
 CPLFLG11      1 00000D5A FFFFFFEC     R    5394  5398   5403   5408   5413
 CPLFLG12      1 00000D5B FFFFFFEC     R    5419  5423
 CPLFLG14      1 00000D5C FFFFFFEC     R    5429  5433   5438   5443   5448   5453
 CPLFLG6       1 00000D55 FFFFFFEC     R    5259  5263   5268   5273   5278   5283   5288
 CPLFLG7       1 00000D56 FFFFFFEC     R    5294  5298   5303   5308   5313   5318
 CPLFLG8       1 00000D57 FFFFFFEC     R    5324  5328   5333   5338   5343
 CPLFLG9       1 00000D58 FFFFFFEC     R    5349  5353   5358   5363   5368   5373   5378
 CPLOCALZ      1 00000C48 FFFFFFEC     U    4851  6012   6012
 CPMFLG        1 0000084F FFFFFFEC     R    4148  4152
 CPMODFLG      1 00000C78 FFFFFFEC     R    4879  4883   4888   4893   4898   4903
 CPNAMELN      1 00000010 FFFFFFEC A   U    3774  4021
 CPNEDPFX     10 00000E29 FFFFFFEC     X    5665  5666   5667
 CPNUMFLG      1 00000C79 FFFFFFEC     R    4909  4921
 CPORVCMD      1 00000140 FFFFFFEC     R    2443  2447   2452   2457   2462   2467   2472   2477   2482   2487   2487
                                                  2538   2538
 CPORVFLG      1 00000149 FFFFFFEC     R    2494  2498   2503   2508   2513   2518   2523   2528   2533
 CPORVWF       1 00000150 FFFFFFEC     R    2546  2550
 CPOSCANX      4 00000CA8 FFFFFFEC     F    5078  5145   5145
 CPR          11 0000000B 00000001 A   #    8440  1028U
 CPRACBAD     16 000001FC FFFFFFEC         2612  2646   2646   2647   2647
 CPRACF1       1 000001FC FFFFFFEC     R    2593  2597   2602   2607   2612   2617   2622   2627   2632   2648
 CPRACPSW     32 000001FC FFFFFFEC         2607  2645   2645   2647   2647
 CPRACUND     64 000001FC FFFFFFEC         2602  2645   2645   2646   2646
 CPRCVCUR      4 00000730 FFFFFFEC     A    3929  3931   3931
 CPREGS        4 00000004 FFFFFFEC     A    2324  9639M
 CPRFKWR      16 000008AA FFFFFFEC         4238  9487   9510M  9774M  9882M
 CPRFLG        1 000008AA FFFFFFEC     R    4219  4223   4228   4233   4238   4243   4248
 CPS         254 00000344 FFFFFFEC     X    3363  3366   3367   3369   3369
 CPSACCT       5 000003B4 FFFFFFEC     C    2962  3125   3125   9610   9685
 CPSAMCOD      1 00000A22 FFFFFFEC     R    4415  4423   4433   4443   4452   4461   4470   4480   4489   4498
 CPSAMFLG      1 00000A21 FFFFFFEC     R    4375  4379   4384   4389   4394   4399   4404   4409   4520   4520
 CPSCNFLG      1 00000CD0 FFFFFFEC     R    5091  5102   5111   5122
 CPSCNF2       1 00000CD1 FFFFFFEC     R    5127  5131
 CPSCNMAX      1 00000014 FFFFFFEC A   U    5143  5144
1KWWR     (KWWR7) (12:47) (15MAR04) Ordinary Symbol and Literal Cross Reference                                             Page   28
 CPSCRI        2 00000434 FFFFFFEC     H    3352  3357   3357
 CPSEGCOD      1 00000050 FFFFFFEC     R    2349  2358   2368   2378   2388   2398   2408   2418
 CPSFL         1 00000384 FFFFFFEC     R    2700  2704   2709   2714   2719   2724
 CPSFLG        1 000003F8 FFFFFFEC     R    3240  3244   3249   3254   3259   3264   3269   3274   3279
 CPSFLG2       1 000003F9 FFFFFFEC     R    3285  3289   3294   3299
 CPSFL2        1 00000385 FFFFFFEC     R    2730  2734   2739   2744   2749
 CPSFL3        1 00000386 FFFFFFEC     R    2755  2759   2764   2769
 CPSFL4        1 00000387 FFFFFFEC     R    2775  2779   2784   2789
 CPSFL5        1 00000388 FFFFFFEC     R    2795  2799   2804   2809
 CPSKAFL       1 000003BF FFFFFFEC     R    3096  3100   3105   3110   3115   3120
 CPSKIFL       1 000003BE FFFFFFEC     R    3051  3055   3060   3065   3070   3075   3080   3085   3090
 CPSOF         1 000001F8 FFFFFFEC     X    2583  2585   2585
 CPSOFLAG      1 00000416 FFFFFFEC     R    3310  3314   3319   3324   3329   3334
 CPSOPST       4 000003C4 FFFFFFEC     F    3130  3359   3359
 CPSPORT       8 00000354 FFFFFFEC     C    2694  2814   2814
 CPSQFLG       1 000003EC FFFFFFEC     R    3159  3163
 CPSSFLG       1 000003BB FFFFFFEC     R    2969  2973   2978   2983   2988   2993   2998
 CPSSTART      4 00000344 FFFFFFEC     F    2686  2690   2690   3126   3126   3231   3231   3363   3363
 CPSSTAT       1 0000038F FFFFFFEC     R    2906  2910   2915   2920   2925   2930   2935   2940
 CPSTACF       1 000003BC FFFFFFEC     R    3004  3008   3013   3018   3023   3028   3033   3038   3043
 CPSTART       4 00000000 FFFFFFEC     C    2322  6016   6020
 CPSTFLAG      1 000003EA FFFFFFEC     R    3137  3141   3146   3151
 CPSTYPE       1 0000038C FFFFFFEC     R    2819  2828   2838   2848   2858   2868   2878   2888   2898
 CPSUFLG       1 000003EE FFFFFFEC     R    3174  3178   3183   3188   3193   3198   3203   3208   3213
 CPSUFLG2      1 000003EF FFFFFFEC     R    3219  3223   3228
 CPSVPGM       8 0000039C FFFFFFEC     C    2952  2958   2958
 CPS1ST        4 0000038C FFFFFFEC     F    2816  3361   3361
 CPTEMPP#      1 0000005F FFFFFFEC A   U    4269  4271
 CPTRMFL1      1 00000C7A FFFFFFEC     R    4927  4931   4936   4941   5065   5065
 CPTRMFL2      1 00000C7B FFFFFFEC     R    4947  4951   4956   4961   4966   4971   4976
 CPTRMFL3      1 00000C7C FFFFFFEC     R    4982  4986   4991   4996   5001   5006   5011   5016
 CPTRMFL4      1 00000C7D FFFFFFEC     R    5022  5026   5031   5036   5041   5046   5051   5056
 CPUSED        1 00000FBC FFFFFFEC A   U    6016  6017
 CPVACURS      8 00000AF0 FFFFFFEC     D    4794  4795   4796
 CPVCURS       8 00000AE0 FFFFFFEC     D    4788  4789   4790
 CPVFLAG       1 00000AC8 FFFFFFEC     R    4589  4593   4598   4603   4608   4613
 CPVFLAG2      1 00000AC9 FFFFFFEC     R    4619  4623   4628   4633   4638   4643   4648
 CPVFLAG3      1 00000ACA FFFFFFEC     R    4654  4658   4663   4668   4673   4678   4683
 CPVFLAG4      1 00000ACB FFFFFFEC     R    4689  4693   4698   4703
 CPVLFLAG      1 00000ACE FFFFFFEC     R    4758  4762   4767   4772
 CPVMODE       1 00000ACC FFFFFFEC     R    4711  4715   4720   4725   4730   4735   4740   4745   4750
 CPVTWID       2 00000AD0 FFFFFFEC     H    4778  4781   4781
 CPWK1         4 00000D60 FFFFFFEC     F    5462  5477   5500
 CPWK2         4 00000D64 FFFFFFEC     F    5463  5478   5492
 CPWK3         4 00000D68 FFFFFFEC     F    5464  5479   5493
 CPWK4         4 00000D6C FFFFFFEC     F    5465  5480   5494
 CPWK5         4 00000D70 FFFFFFEC     F    5466  5482   5487   5495
 CPWK6         4 00000D74 FFFFFFEC     F    5467  5483   5488   5496   5503   5505
 CPWK7         4 00000D78 FFFFFFEC     F    5468  5481   5497
 CPXFLAG       1 000007FD FFFFFFEC     R    4056  4060
 CPXSTATE      4 000007F8 FFFFFFEC     F    4050  4063   4063
 CV         4016 00000000 FFFFFFEE     J    2225  1033U
 CVABSRTN      4 0000088C FFFFFFEE     V    2039  2014
 CVBRMSK       1 00000751 FFFFFFEE     X    1955  1956   1957
 CVCFLAG       1 00000A00 FFFFFFEE     R    2120  2124   2129   2134   2139   2144
 CVCHKST       8 000009F0 FFFFFFEE     D    2110  2200   2200
 CVCHKST2      8 00000E28 FFFFFFEE     D    2203  2206   2206
 CVCOMRTN      4 0000087C FFFFFFEE     V    2035  2005
 CVCURJCB      4 000001C8 FFFFFFEE     A    1304  9466  10138M 10300M 10300
1KWWR     (KWWR7) (12:47) (15MAR04) Ordinary Symbol and Literal Cross Reference                                             Page   29
 CVDBGFLG      1 000004CC FFFFFFEE     R    1809  1813
 CVENT         4 0000074C FFFFFFEE     I    1953  9440B  9836B  9937B 10113B
 CVENTBR       2 00000750 FFFFFFEE     I    1954  1955
 CVERROR       4 000007D6 FFFFFFEE     I    2003  2019B
 CVEXIRTN      4 0000077C FFFFFFEE     V    1983  1979
 CVFCHRKBPR
               8 000004C9 FFFFFFEE         1724  1740   1740
 CVFCHRKBSE
               4 000004C9 FFFFFFEE         1729  1740   1740
 CVFCHRKCPR
               2 000004C9 FFFFFFEE         1746  1762   1762
 CVFCHRKCSE
               1 000004C9 FFFFFFEE         1751  1762   1762
 CVFCHRUBPR
             128 000004C9 FFFFFFEE         1680  1696   1696
 CVFCHRUBSE
              64 000004C9 FFFFFFEE         1685  1696   1696
 CVFCHRUCPR
              32 000004C9 FFFFFFEE         1702  1718   1718
 CVFCHRUCSE
              16 000004C9 FFFFFFEE         1707  1718   1718
 CVFJCB        4 000001C0 FFFFFFEE     A    1302 10137
 CVFL          1 000004C4 FFFFFFEE     R    1476  1480   1485   1490   1495   1500   1505   1510   1515
 CVFL2         1 000004C5 FFFFFFEE     R    1521  1525   1530   1535   1540   1545   1550   1555   1560
 CVFL3         1 000004C6 FFFFFFEE     R    1566  1570   1575   1580   1585   1590   1595   1600   1605
 CVFL4         1 000004C7 FFFFFFEE     R    1611  1615   1620   1625   1630   1635   1640   1645
 CVFL5         1 000004C8 FFFFFFEE     R    1651  1655   1660   1665   1670
 CVFL6         1 000004C9 FFFFFFEE     R    1676  1680   1685   1697   1702   1707   1719   1724   1729   1741   1746
                                                  1751   1763
 CVHEAP#       1 00000200 FFFFFFEE A   U    1382  1383
 CVINVRTN      4 00000888 FFFFFFEE     V    2038  2008
 CVJESFLG      1 000004CA FFFFFFEE     R    1769  1773
 CVLNKRGS      4 00000780 FFFFFFEE     F    1985  1960M  1986   9496M  9544M  9760M 10186M 10229M 10286M
 CVLNKRTN      4 000007B0 FFFFFFEE     U    1986  1975M
 CVLOCK1       1 00000088 FFFFFFEE     R    1127  1131   1136
 CVLOCK2       1 00000089 FFFFFFEE     R    1141  1145
 CVLOCK3       1 0000008A FFFFFFEE     R    1150  1154
 CVLOCK4       1 0000008B FFFFFFEE     R    1159  1163
 CVLOGMOD      1 00000068 FFFFFFEE     R    1114  1118
 CVMACH        1 00000067 FFFFFFEE     R    1074  1078   1083   1088   1093   1098   1103   1108
 CVMILRTN      4 00000884 FFFFFFEE     V    2037  2017
 CVNOARTN      4 00000890 FFFFFFEE     V    2040  2011
 CVNWDATE      4 00000608 FFFFFFEE     F    1842  1846   1846
 CVNWMPG#      1 00000008 FFFFFFEE A   U    1844  1845
 CVPFXRTN      1 00000000 00000000 A   T    1026  1983
 CVPGFLAG      1 00000A01 FFFFFFEE     R    2150  2154   2159   2164
 CVPIOSZ       1 00004F80 FFFFFFEE A   U    1213  1215
 CVPPDBQH      4 0000009C FFFFFFEE     A    1171  1172
 CVPSFNO       1 000003E9 FFFFFFEE A   N    1335  1337
 CVPSLNO       1 000007CF FFFFFFEE A   N    1336  1337
 CVPXSZ        1 00000008 FFFFFFEE A   U    1214  1215
 CVR          12 0000000C 00000001 A   #    8453  1033U
 CVRKEY        1 00000008 FFFFFFEE A   U    1908  1909
 CVRKWR        1 00000005 FFFFFFEE A   U    1905  9518   9736   9867  10161  10262
 CVSEGRTN      4 00000880 FFFFFFEE     V    2036  2000
 CVSTACK#      1 00000080 FFFFFFEE A   U    1374  1375
 CVSTART       4 00000000 FFFFFFEE     C    1047  2218
 CVTRC         4 00000768 FFFFFFEE     I    1975  1961B  9497B  9545B  9761B 10187B 10230B 10287B
 CVTRCRTN      4 00000778 FFFFFFEE     V    1982  1976
1KWWR     (KWWR7) (12:47) (15MAR04) Ordinary Symbol and Literal Cross Reference                                             Page   30
 CVUSFNO       1 00000001 FFFFFFEE A   N    1342  1344
 CVUSLNO       1 000003E7 FFFFFFEE A   N    1343  1344
 CVVOL#        1 00000005 FFFFFFEE A   U    2193  2194
 CVWTOFLG      1 000004CB FFFFFFEE     R    1779  1783   1788   1793   1798   1803
 DCBBIT0       1 00000080 FFFFFFE4 A   U    6839  6927   6935   6949   6971   7013   7015   7016   7018   7038   7041
                                                  7063   7067   7082   7119   7175   7193
 DCBBIT1       1 00000040 FFFFFFE4 A   U    6840  6928   6936   6951   6980   6981   6990   6996   7013   7015   7017
                                                  7018   7043   7063   7065   7067   7085   7086   7087   7122   7123
                                                  7175   7195
 DCBBIT2       1 00000020 FFFFFFE4 A   U    6841  6929   6937   6952   6953   6954   6980   6981   6985   6991   6996
                                                  7013   7014   7019   7045   7068   7069   7090   7091   7092   7126
                                                  7127   7176   7196
 DCBBIT3       1 00000010 FFFFFFE4 A   U    6842  6930   6952   6954   6955   6980   6993   7020   7048   7068   7071
                                                  7094   7095   7096   7130   7131   7176   7197
 DCBBIT4       1 00000008 FFFFFFE4 A   U    6843  6938   6994   6995   6996   7021   7049   7073   7078   7079   7099
                                                  7100   7134   7135   7137   7138   7177   7198
 DCBBIT5       1 00000004 FFFFFFE4 A   U    6844  6939   7001   7024   7025   7051   7073   7075   7076   7079   7103
                                                  7105   7106   7107   7141   7142   7143   7144   7177   7199
 DCBBIT6       1 00000002 FFFFFFE4 A   U    6845  6931   7003   7004   7007   7024   7026   7052   7110   7111   7112
                                                  7113   7147   7148   7149   7150   7178   7200
 DCBBIT7       1 00000001 FFFFFFE4 A   U    6846  6932   7003   7005   7007   7028   7057   7115   7116   7153   7154
                                                  7156   7157   7201
 DCBBLKSI      2 0000003E FFFFFFE4     H    7205  8608
 DCBDCBE       4 00000000 FFFFFFE4     A    6854  6858
 DCBDDNAM      8 00000028 FFFFFFE4     C    7035  8585
 DCBDEBAD      4 0000002C FFFFFFE4     A    7173  9094
 DCBFDAD       8 00000005 FFFFFFE4     C    6870  6872
 DCBKEYLE      1 00000010 FFFFFFE4     G    6911  8609
 DCBOFIOF      1 00000001 FFFFFFE4 A   U    7057  7059
 DCBOFLGS      1 00000030 FFFFFFE4     B    7037  8606   8619
 DCBOFUEX      1 00000002 FFFFFFE4 A   U    7052  7056
 DCBR          9 00000009 00000001 A   #    8414  8518U  8558M  8860   8913M  9224
 DEBACSMD      1 00000000 FFFFFFE1     J    7833  7871   7888   7901   7925   7944   7958   7968   8008
 DEBBASIC      1 00000024 FFFFFFE3     U    7485  9105U  9153U
 DEBBASND      1 00000044 FFFFFFE3     U    7639  7764   9117
 DEBDASD       1 00000000 FFFFFFE2     J    7801  8298   9130U
 DEBDEVED      4 00000048 FFFFFFE3     A    7686  7718
 DEBDSZDA      2 00000010 FFFFFFDE A   U    8298  9155
 DEBEOEA       4 00000000 FFFFFFE3     A    7392  7395
 DEBMCOMP      1 00000008 FFFFFFE3 A   U    7671  7672
 DEBMTRF0      1 00000080 FFFFFFE3 A   U    7667  7677   7680   7681
 DEBMTRF1      1 00000040 FFFFFFE3 A   U    7668  7677   7678   7680   7682
 DEBM3424      1 00000002 FFFFFFE3 A   U    7673  7677   7678
 DEBM9348      1 00000002 FFFFFFE3 A   U    7674  7680   7681   7682
 DEBNMEXT      1 00000034 FFFFFFE3     B    7608  9115
 DEBNMTRK      2 0000000E FFFFFFE2     C    7822  8298   8298   9139
 DEBUGSG       1 00000000 00000000 A   T    1026  1936
 DEBXEND       1 00000054 FFFFFFDF     U    8238  8239
 DEBXTN        1 00000000 FFFFFFDF     J    8048  8239
 DEB2XEND      1 000000B8 FFFFFFDE     U    8294  8295
 DEB2XTN       1 00000000 FFFFFFDE     J    8246  8295
 DEV          12 00000000 FFFFFFEB     J    4574  4582
 DEVMAX#       1 00000002 FFFFFFEC A   U    4525  4582
 DEVTYPE       1 00000001 FFFFFFEB     R    4542  4551   4561
 DISPATCH      1 00000000 00000004     T   10352 10352
 DOTTBL        1 00000000 00000000 A   T    1026  2052
 DRENCFLG      1 00000F9F FFFFFFEC     R    5980  5984   5989   5994   5999   6004
 DRENPROT      1 00000F9E FFFFFFEC     R    5967  5975
 DSNON        40 00000E90 FFFFFFEC     C    5700  5701
1KWWR     (KWWR7) (12:47) (15MAR04) Ordinary Symbol and Literal Cross Reference                                             Page   31
 DSNWADSN     44 00000E5C FFFFFFEC     C    5687  5688   5689   5690   5699   5707   5938   5944   5946   5952   5955
                                                  5957   5960   6009
 DSNWAF4       1 00000F37 FFFFFFEC     R    5755  5759   5764   5769   5774   5779   5784   5789   5794
 DSNWAF5       1 00000F38 FFFFFFEC     R    5800  5804   5809   5814   5819   5824   5829   5834   5839
 DSNWAF6       1 00000F39 FFFFFFEC     R    5845  5849   5854   5859   5864   5869   5874   5879   5884
 DSNWAF7       1 00000F3A FFFFFFEC     R    5890  5894   5899   5904   5909
 DSNXG         1 00000004 FFFFFFEC A   U    5692  5694
 DSNXGL        1 00000003 FFFFFFEC A   U    5693  5694
 DSNXU         1 00000007 FFFFFFEC A   U    5694  5696
 DSNXUL        1 00000004 FFFFFFEC A   U    5695  5696
 DSSIZ         1 00000108 FFFFFFEC A   U    5938  5946   5955   5960
 DVTAREA      24 000006F8 00000001     X    9320  8591   8610   9044U
 DVTCDA        1 00000020 00000001 A   U    9277  8596
 DVTCLASS      1 000006FA 00000001     X    9273  8596
 DVTDEVCD      4 000006F8 00000001     F    9267  9269   9273   9282
 DVTUTYPE      1 000006FB 00000001     X    9282  9063
 EBCTBL        1 00000000 00000000 A   T    1026  2048
 EBCTBL7       1 00000000 00000000 A   T    1026  2051
 ECBLIST       1 00000000 00000000 A   T    1026  1911
 EPARTBL       1 00000000 00000000 A   T    1026  2043
 EXITSA        4 000004AC 00000001     A    9224  8859M  8860M  8912   8913
 EXIT1         2 0000034A 00000001     I    8861  8857B
 FREERSC       1 00000000 00000005     T   10353 10353
 FSR           0 00000000 00000001 A   #    8337  9435   9796M  9831   9904M  9932  10082M 10108  10327M
 GETRSC        1 00000000 00000002     T   10350 10350
 GFBUSY        1 00000080 00000001 A   U    9258  8571   8575   8821   8839   8886
 GFL           1 000006E9 00000001     X    9256  8571   8575M  8582   8584M  8821M  8839   8886
 GFOPEN        1 00000040 00000001 A   U    9259  8582   8584   8886
 HIBAL         1 00000000 FFFFFFFF     J     691   707    720    733    746    759    772    785    798    811    824
                                                   837    850    863    876    889    902   2226   2310   6050   6162
                                                  6434   6496   6543   6823   8302
 IHADCB        1 00000000 FFFFFFE4     J    6829  6909   6959   7034   7161   7166   7181   7190   7234   8518U
 INITCHK       4 0000005E 00000001     I    8582  8577B
 INVALID       1 00000000 00000000 A   T    1026  2038
 JCB         208 00000000 FFFFFFE5     J    6822  9474U
 JCBAFL        1 00000062 FFFFFFE5     R    6667  6671   6676   6681   6686   6691   6696   6701   6706
 JCBBFL        1 00000063 FFFFFFE5     R    6712  6716   6721   6726   6731   6736   6741   6746
 JCBBILLX      8 00000088 FFFFFFE5     D    6797  6805   6805
 JCBR          5 00000005 00000001 A   #    8350  9466M  9474U
 JCBRSCF1      1 00000064 FFFFFFE5     R    6752  6756   6761   6766
 JCBSFLG1      1 00000065 FFFFFFE5     R    6772  6776   6781
 JCBWFD       32 00000060 FFFFFFE5         6610  9637M 10041M
 JCBWFL        1 00000060 FFFFFFE5     R    6596  6600   6605   6610   6615   6620   6625   6630   6635   6663
 JCBWWFL       1 00000061 FFFFFFE5     R    6641  6645   6650   6655   6660
 KEYBUF      495 000004D8 00000001     X    9245  8723   8724   8750   8752M  8753   8753M  8756M  8757M  8758M  8782M
                                                  9233   9356
 KEYDECB       4 000004B8 00000001     A    9228  8658   8668   8670   8686   8698   8702   8707   8719   8729   8759
                                                  8767   8787   8800   8802   8807   8810   9238
 KEYFILE       4 00000718 00000001     F    9331  8558   9232   9243
 KEYHALF       1 00000004 00000001 A   U    9246  8726   8726M  8757   8757M
 KEYIOERR      4 000001C2 00000001     I    8721  8812B
 KEYKEY        5 000006C7 00000001     X    9247  8622M  8623M  8624M  8653   8674   8676M  8781M  8796   9235
 KEYKEY1       5 000006DF 00000001     X    9251  8653M  8674   8676
 KEYNAME       8 000006EA 00000001     C    9261  8585M  8590
 KEYPOST       4 000002E4 00000001     I    8820  8720B  8722B  8727B  8811B  8815B  8837B
 KEYRDOK       6 000001CA 00000001     I    8723  8708B  8751B
 KEYTTR        3 000006CC 00000001     X    9248  8642M  8650   8681M  8718M  8718   8782   8798M  8798   8806M  8806
                                                  8826   8856M  8856   9236
 KEYUPD1       6 000001FA 00000001     I    8750  8730B
1KWWR     (KWWR7) (12:47) (15MAR04) Ordinary Symbol and Literal Cross Reference                                             Page   32
 KEYUPD2       4 00000262 00000001     I    8779  8760B
 KEYUPD3       4 00000274 00000001     I    8784  8780B
 KEYWR         4 000001E6 00000001     I    8729  8706B
 KEYWROK       4 000002DC 00000001     I    8814  8762B  8801B
 KEYWR1        6 00000204 00000001     I    8752  8732B
 KEYWR2        4 000002A4 00000001     I    8799  8777B  8797B
 KIO$ECB       4 0000000C FFFFFFE8     A    6192 10006  10023  10243M
 KIO@JCB       4 00000008 FFFFFFE8     A    6191 10034
 KIOFLAGS      1 00000014 FFFFFFE8     R    6197  6201   6206   6211
 KIOINIT       2 00000958 00000001     H   10099 10095
 KIONP         2 0000094A 00000001     H   10047 10029B 10032B
 KIOPAUSE      2 00000838 00000001     H    9631  9627B
 KIOPOST       2 000008F4 00000001     H    9923  9919  10358
 KIO1@ECB     64 00000014 FFFFFFE8         6206  9999  10242M
 KIO1ACTV    128 00000014 FFFFFFE8         6201  9567M
 KWBASE        1 00000000 00000001     U    8315  8500U  8556U  8910U  9195U  9215   9788U  9896U 10074U 10319U
 KWCLOSE       4 00000318 00000001     I    8839  8570B
 KWCLOS1       4 0000032A 00000001     I    8849  8840B
 KWCMD         1 000006E8 00000001     X    9255  8560M  8569   8576   8578   8705
 KWDOK         2 00000198 00000001     H    8704  8675B
 KWECB         4 000004B8 00000001     U    9238  8328   8820M  8832M  8846   8890
 KWECB         1 00000000 00000009     T   10357 10357
 KWEXCP        4 00000014 00000001     I    8538  8327
 KWEXCP        1 00000000 00000003     T   10351 10351
 KWEXCPEX      4 00000342 00000001     I    8859  8667B  8696B  8799B  8833B
 KWFSIZE       4 00000710 00000001     A    9322  8932
 KWGO          4 000000C0 00000001     I    8619  8583B
 KWIO          2 00000780 00000001     H    9426  9422
 KWIODN        2 0000084E 00000001     H    9646  9625B  9628B
 KWKWRID       4 00000020 FFFFFFE8     F    6223  9643  10033M
 KWLIST        4 0000001C FFFFFFE8     A    6220  6221   9622
 KWOP          4 0000001C FFFFFFE8     U    6221  9568M
 KWR         504 00000024 FFFFFFE8     X    6418  6220   8509U  8568U  9576   9583   9711   9718   9727M  9727   9728M
                                                  9728
 KWRAFL        1 00000033 FFFFFFE8     X    6251  8836M
 KWRAFVAL      1 00000080 FFFFFFE8 A   U    6252  8836
 KWRCDIE       1 000000FF FFFFFFE8 A   U    6417  8569
 KWRCLR        2 000001A8 00000001     H    8711  8669B  8703B  8748B
 KWRCRD        1 00000040 FFFFFFE8 A   U    6416  8578
 KWRCWR        1 00000080 FFFFFFE8 A   U    6415  8576   8705
 KWRDATA     495 00000029 FFFFFFE8     X    6397  8716M  8716   8717M  8717   8723M  8724   8724M  8750   8752   8753
                                                  8756M  8757M  8758M  9245
 KWRDSTRT      1 00000029 FFFFFFE8     U    6235  6397   6397
 KWRFREE       2 000008BC 00000001     H    9822  9818
 KWRGRP        2 00000027 FFFFFFE8     C    6232  8623
 KWRHFCK       1 00000080 FFFFFFE8 A   U    6402  8621   9653
 KWRHFERR      1 00000020 FFFFFFE8 A   U    6407  8721
 KWRHFFUL      1 00000010 FFFFFFE8 A   U    6408  8809
 KWRHFL        1 00000218 FFFFFFE8     X    6401  8621M  8721M  8809M  8814M  8834M  9245   9593M  9655
 KWRHFUOK      1 00000040 FFFFFFE8 A   U    6403  8814
 KWRIFL        1 00000032 FFFFFFE8     X    6241  8761   8779   8835M  9668M
 KWRIFVAL      1 00000080 FFFFFFE8 A   U    6242  8761   8779   8835
 KWRPASS       8 00000094 FFFFFFE8     X    6365  8725M  8726M  8726   8757M  8757   8758   8758M  9246
 KWRR         10 0000000A 00000001 A   #    8427  8509U  8567M  8860   8913M  9224
 KWRRSC      540 00000000 FFFFFFE8     J    6425  9560U  9985U 10205U
 KWRRSG        1 00000000 00000008     T   10356 10356
 KWRST         4 00000024 FFFFFFE8     F    6225  6418   6418
 KWRSTART      4 00000024 FFFFFFE8     F    6230  6411
 KWRUSER       3 00000024 FFFFFFE8     C    6231  6233   6233   8622   8922   8924   9610   9685
1KWWR     (KWWR7) (12:47) (15MAR04) Ordinary Symbol and Literal Cross Reference                                             Page   33
 KWRWRCT       1 00000037 FFFFFFE8     X    6258  8731   8750   8750   8754   8756M
 KWSRCH        4 00000152 00000001     I    8680  8636B  8645B  8652B
 KWWAIT        1 00000352 00000001     U    8868  8327
 KWWAIT        1 00000000 00000006     T   10354 10354
 KWWR7         1 00000000 00000001     R    8323  8321
 LOWTBL        1 00000000 00000000 A   T    1026  2046
 LSR           8 00000008 00000001 A   #    8401  9435   9796M  9831   9904M  9932  10082M 10108  10327M
 MILERR        1 00000000 00000000 A   T    1026  2037
 NBLTBL        1 00000000 00000000 A   T    1026  2050
 NOACTION      1 00000000 00000000 A   T    1026  2040
 NOFILE        4 00000300 00000001     I    8832  8597B  8607B  8620B
 NPARTBL       1 00000000 00000000 A   T    1026  2044
 NSCNCB      176 00000000 FFFFFFED     J    2309  2435
 NSCNFLGS      1 00000008 FFFFFFED     R    2246  2250   2255
 NSCNTYPE      1 00000018 FFFFFFED     R    2264  2268   2273   2278   2283   2288
 NUMTRKS       4 000006F4 00000001     A    9263  8614M  8644
 OPENLIST      4 000004D4 00000001     F    9241  8602   8852
 PASSMASK      8 000006D7 00000001     C    9250  8725   8758
 QSETUP        1 00000000 00000007     T   10355 10355
 RAR          14 0000000E 00000001 A   #    8479  1975   1976M  1977B  1979M  1980B  2000M  2001B  2005M  2006B  2008M
                                                  2009B  2011M  2012B  2014M  2015B  2017M  2018M  2018B  2024   8587M
                                                  8595M  8599M  8605M  8655M  8666M  8683M  8695M  8764M  8775M  8784M
                                                  8794M  8849M  8855M  8951B  8983B  9432   9527M  9528M  9528B  9626M
                                                  9743M  9744M  9744B  9798M  9801B  9828   9874M  9875M  9875B  9906M
                                                  9909B  9929  10031M 10044M 10045M 10045B 10084M 10087B 10105  10169M
                                                 10170M 10170B 10269M 10270M 10270B 10329M 10332B
 RSCFLAGS      1 00000014 FFFFFFE6     R    6518  6522   6527   6532
 RSCGROUP     60 00000000 FFFFFFE7     J    6495  9971U 10150U
 RSG@POST      4 00000028 FFFFFFE7     A    6456 10245M
 RSGFLG1       1 0000003B FFFFFFE7     R    6470  6474   6479   6484   6487
 R0            0 00000000 FFFFFFFF A   #     699  1960   2029M  8608M  8609M  8614   8618M  8618   8633M  8633   8642
                                                  8643M  8644   8650M  8651   8681   8826M  8924M  8925M  8925   8926
                                                  8931M  8931   8932M  8934M  8935M  8936M  8937M  8939M  9056   9077
                                                  9138M  9138   9139M  9464   9496   9522M  9522   9544   9590M  9591M
                                                  9592M  9597M  9597   9617M  9639   9643M  9692   9718M  9719M  9720M
                                                  9740M  9740   9760   9871M  9871   9975  10033  10165M 10165  10186
                                                 10212M 10213M 10213  10229  10243  10244M 10245  10266M 10266  10286
 R1            1 00000001 FFFFFFFF A   #     712  2023M  2024M  2030M  8610M  8612   8754M  8755M  8755   8756   8922M
                                                  8923M  8923   8926M  8927M  8927   8938M  8939   9034   9077M  9094M
                                                  9105U  9117M  9130U  9155M  9155   9465   9518M  9552   9622M  9736M
                                                  9867M  9961  10006M 10023M 10161M 10195  10262M
 R12          12 0000000C FFFFFFFF A   #     855  1986
 R14          14 0000000E FFFFFFFF A   #     881  1961M  8611M  8613M  8680M  8696M  8799M  8914B  8940B  8946   8948M
                                                  8949   8950M  8957   8982M  9086B  9165B  9497M  9545M  9576M  9583M
                                                  9591   9592M  9638M  9704M  9711M  9719   9720M  9761M 10187M 10230M
                                                 10287M
 R15          15 0000000F FFFFFFFF A   #     894  1960   8536U  8946   8947M  8948B  8950M  8957   8958M  8976M  8981B
                                                  8982M  9032   9076M  9496   9523M  9524M  9524   9544   9623M  9624M
                                                  9624   9626B  9639   9640M  9641B  9760   9800M  9800   9908M  9908
                                                 10030M 10031B 10086M 10086  10137M 10138  10166M 10186  10229  10286
                                                 10331M 10331
 R2            2 00000002 FFFFFFFF A   #     725  8574M  8581M  8673M  8701M  8805M  8889M  9032   9063M  9071   9076M
                                                  9115M  9156M  9197M  9464M  9568
 R3            3 00000003 FFFFFFFF A   #     738  9465M
 R4            4 00000004 FFFFFFFF A   #     751  9961M  9971U 10140M 10150U
 R5            5 00000005 FFFFFFFF A   #     764 10034M
 R6            6 00000006 FFFFFFFF A   #     777  9034M  9044U  9552M  9560U  9975M  9985U 10195M 10205U
 R7            7 00000007 FFFFFFFF A   #     790  1953M  1953   1954B  1966B
 SCRMASK       8 000006CF 00000001     C    9249  8624
1KWWR     (KWWR7) (12:47) (15MAR04) Ordinary Symbol and Literal Cross Reference                                             Page   34
 SDSNQSZ       1 0000002C FFFFFFEC A   U    5941  5942   5943
 SPR          13 0000000D 00000001 A   #    8466  9432   9435   9436   9437M  9437   9792M  9796   9798   9828   9831
                                                  9832   9833M  9833   9900M  9904   9906   9929   9932   9933   9934M
                                                  9934  10078M 10082  10084  10105  10108  10109  10110M 10110  10323M
                                                 10327  10329
 STARR         1 00000428 00000001     X    9014  9057M
 STARRKDD      4 00000428 00000001     F    9013  9056M
 TRC           1 00000000 00000000 A   T    1026  1982
 TRKLIST      12 00000420 00000001     C    8993  9055M  9055   9070
 TRKRCDS       4 00000714 00000001     F    9324  8612M  8651   8936
 TRKREGS       4 000003E8 00000001     F    8988  9032M  9076
 TTRGET        4 0000037C 00000001     I    8922  8680B
 TTYFLAG       1 00000004 FFFFFFEA     R    6070  6074
 TTYMAX#       1 00000006 FFFFFFEA A   U    6126  6127
 TTYTFLAG      1 00000005 FFFFFFEA     R    6080  6084   6089   6094   6099   6104   6109   6114
 UPPTBL        1 00000000 00000000 A   T    1026  2045
 WAR           8 00000008 00000001 A   #    8389  8539M  8827   8861   8893M  9436M  9792   9832M  9900   9933M 10078
                                                 10109M 10323
 WTOSG         1 00000000 00000000 A   T    1026  1942
 WYLKWWR       1 00000000 00000001     J    8312  8314   8345   8358   8371   8384   8397   8409   8422   8435   8448
                                                  8461   8474   8487
 =A(KIOPOST)
               4 00000AC0 00000001     A   10358 10244
 =A(KWBASE)
               4 000004A0 00000001     A    9215  8541   8895   9184
 =A(X'80000000')
               4 000004A8 00000001     A    9217  8976
 =F'1'         4 000004A4 00000001     F    9216  8934   8937
 =V(DISPATCH)
               4 00000AA8 00000001     V   10352  9640
 =V(FREERSC)
               4 00000AAC 00000001     V   10353  9743   9874  10269
 =V(GETRSC)
               4 00000AA0 00000001     V   10350  9527  10169
 =V(KWECB)
               4 00000ABC 00000001     V   10357 10212
 =V(KWEXCP)
               4 00000AA4 00000001     V   10351  9623
 =V(KWRRSG)
               4 00000AB8 00000001     V   10356 10140
 =V(KWWAIT)
               4 00000AB0 00000001     V   10354 10030
 =V(QSETUP)
               4 00000AB4 00000001     V   10355 10044

1KWWR     (KWWR7) (12:47) (15MAR04) Macro and Copy Code Source Summary                                                      Page   35
- Con Source                                        Volume    Members                        HLASM R4.0  2004/03/15 12.47
0     PRIMARY INPUT                                           CSECT    DROP     END      EX       LTORG    POP
                                                              PRINT    PUSH     START    USING    VERIFY
   L1 WYL.GS.WYL.WYLBUR.MACLIB                      SYSB05    AINFO    BASE     COLINFO  CONTROL  CP       CPLOCAL  CV
                                                              CVLOCAL  FAIL     FREERSC  GETRSC   JCB      KAPUT
                                                              KWRRSC   PAUSE    RG       RSCGROUP RSCHDR   SCANCB
                                                              TTYPE    VLTORG   XTRACE
   L2 WYL.GG.SYS.MACLIB                             SYSB05    $BC      $BFLKUP  $BV      $CCLKUP  $CSS     $L       $LA
                                                              $LBLAD   $LEXP    $LOR     $REL     $RGLKUP  $USLKUP
                                                              AUSING   BEGIN    CLEAR    COMPROC  CSECT    DEFCC    DROP
                                                              ELSE     END      EX       FLAG     GEN      HIBAL
                                                              IDENT    IF       LABEL    LC       LCALL    LCM      LT
                                                              LTORG    L3       MOVEL    PEND     POP      PRINT    PUSH
                                                              QLTORG   RECORD   REG      REGS     SET      START
                                                              USING    VCALL    WITH     XPROC
   L3 SYS3.IS.MACLIB                                SYSB05    DVTAREA  KWR      SEGCB    SIB      SYSDEFN
   L5 SYS1.MACLIB                                   MVSBR9    ABEND    CLOSE    DCB      DCBD     DEVTYPE  IEZDEB
                                                              IHBINNRA IHBINNRR IHBRDWRD IHB01    OPEN     READ
                                                              SYSSTATE TRKCALC  WAIT     WRITE

1KWWR     (KWWR7) (12:47) (15MAR04) Dsect Cross Reference                                                                   Page   36
-Dsect     Length      Id       Defn                                                         HLASM R4.0  2004/03/15 12.47
0$$$@R0   00000000  FFFFFFFE     705
 $$$@R1   00000000  FFFFFFFD     718
 $$$@R10  00000000  FFFFFFF4     835
 $$$@R11  00000000  FFFFFFF3     848
 $$$@R12  00000000  FFFFFFF2     861
 $$$@R13  00000000  FFFFFFF1     874
 $$$@R14  00000000  FFFFFFF0     887
 $$$@R15  00000000  FFFFFFEF     900
 $$$@R2   00000000  FFFFFFFC     731
 $$$@R3   00000000  FFFFFFFB     744
 $$$@R4   00000000  FFFFFFFA     757
 $$$@R5   00000000  FFFFFFF9     770
 $$$@R6   00000000  FFFFFFF8     783
 $$$@R7   00000000  FFFFFFF7     796
 $$$@R8   00000000  FFFFFFF6     809
 $$$@R9   00000000  FFFFFFF5     822
 $$$RCP   00001000  FFFFFFEC    2315
 $$$RCV   00000FB0  FFFFFFEE    1040
 $$$RDEV  0000000C  FFFFFFEB    4529
 $$$RJCB  000000D0  FFFFFFE5    6548
 $$$RKWRRSC
          0000021C  FFFFFFE8    6178
 $$$RNSCNCB
          000000B0  FFFFFFED    2236
 $$$RRESOURCE
          00000018  FFFFFFE6    6501
 $$$RRSCGROUP
          0000003C  FFFFFFE7    6440
 $$$RTTYPE
          0000010C  FFFFFFEA    6060
 $$$R42   00000000  FFFFFFE9    6168
 DEB      00000058  FFFFFFE3    7237
 DEBACSMD 00000044  FFFFFFE1    7833
 DEBDASD  00000010  FFFFFFE2    7801
 DEBSUBNM 00000002  FFFFFFE0    8035
 DEBXTN   00000054  FFFFFFDF    8048
 DEB2XTN  000000B8  FFFFFFDE    8246
 HIBAL    00000000  FFFFFFFF     691
 IHADCB   00000068  FFFFFFE4    6829

1KWWR     (KWWR7) (12:47) (15MAR04) Using Map                                                                               Page   37
-                                                                                            HLASM R4.0  2004/03/15 12.47
   Stmt  -----Location----- Action ----------------Using----------------- Reg Max    Last  Label and Using Text
           Count      Id           Type          Value    Range     Id        Disp   Stmt
0   922  00000000  FFFFFFFF USING  ORDINARY    00000000 00001000 FFFFFFEF  15 000          @R15,15
    926  00000000  FFFFFFFF USING  ORDINARY    00000000 00001000 FFFFFFF0  14 002    2031  @R14,14
    930  00000000  FFFFFFFF USING  ORDINARY    00000000 00001000 FFFFFFF1  13 000          @R13,13
    934  00000000  FFFFFFFF USING  ORDINARY    00000000 00001000 FFFFFFF2  12 000          @R12,12
    938  00000000  FFFFFFFF USING  ORDINARY    00000000 00001000 FFFFFFF3  11 000          @R11,11
    942  00000000  FFFFFFFF USING  ORDINARY    00000000 00001000 FFFFFFF4  10 000          @R10,10
    946  00000000  FFFFFFFF USING  ORDINARY    00000000 00001000 FFFFFFF5   9 000          @R9,9
    950  00000000  FFFFFFFF USING  ORDINARY    00000000 00001000 FFFFFFF6   8 000          @R8,8
    954  00000000  FFFFFFFF USING  ORDINARY    00000000 00001000 FFFFFFF7   7 000          @R7,7
    958  00000000  FFFFFFFF USING  ORDINARY    00000000 00001000 FFFFFFF8   6 000          @R6,6
    962  00000000  FFFFFFFF USING  ORDINARY    00000000 00001000 FFFFFFF9   5 000          @R5,5
    966  00000000  FFFFFFFF USING  ORDINARY    00000000 00001000 FFFFFFFA   4 000          @R4,4
    970  00000000  FFFFFFFF USING  ORDINARY    00000000 00001000 FFFFFFFB   3 000          @R3,3
    974  00000000  FFFFFFFF USING  ORDINARY    00000000 00001000 FFFFFFFC   2 000          @R2,2
    978  00000000  FFFFFFFF USING  ORDINARY    00000000 00001000 FFFFFFFD   1 001    8567  @R1,1
    982  00000000  FFFFFFFF USING  ORDINARY    00000000 00001000 FFFFFFFE   0 000          @R0,0
    983  00000000  FFFFFFFF DROP                                            0              0
   1028  00000000  FFFFFFFF USING  ORDINARY    00000000 00001000 FFFFFFEC  11 D5A    9882  CP,CPR
   1033  00000000  FFFFFFFF USING  ORDINARY    00000000 00001000 FFFFFFEE  12 890   10300  CV,CVR
   8500  00000014  00000001 USING  ORDINARY    00000000 00001000 00000001   7 000          KWBASE,BR
   8509  00000014  00000001 USING  ORDINARY    00000024 00001000 FFFFFFE8  10 000          KWR,KWRR
   8518  00000014  00000001 USING  ORDINARY    00000000 00001000 FFFFFFE4   9 03E    9094  IHADCB,DCBR
   8526  00000014  00000001 USING  ORDINARY    00000000 00001000 FFFFFFF7   7 000          @R7,7
   8536  00000014  00000001 USING  ORDINARY    00000014 00001000 00000001  15 48C    8541  $$$43B,R15
   8547  00000022  00000001 USING  ORDINARY    00000000 00001000 FFFFFFEF  15 000          @R15,15
   8556  00000022  00000001 USING  ORDINARY    00000000 00001000 00000001   7 718    8860  KWBASE,BR
   8564  0000002C  00000001 DROP                                           10              10
   8568  00000032  00000001 USING  ORDINARY    00000024 00001000 FFFFFFE8  10 1F4    8924  KWR,10
   8874  00000352  00000001 USING  ORDINARY    00000000 00001000 FFFFFFF7   7 000          @R7,7
   8884  00000352  00000001 USING  ORDINARY    00000352 00001000 00000001  15 397    8895  $$$45B,15
   8901  00000372  00000001 USING  ORDINARY    00000000 00001000 FFFFFFEF  15 000          @R15,15
   8910  00000372  00000001 USING  ORDINARY    00000000 00001000 00000001   7 714    9156  KWBASE,BR
   9044  00000432  00000001 USING  ORDINARY    000006F8 00001000 00000001   6 003    9063  DVTAREA,R6
   9060  00000440  00000001 DROP                                            2              2
   9064  00000446  00000001 USING  ORDINARY    00000000 00001000 FFFFFFFC   2 000          @R2,2
   9084  00000464  00000001 USING  ORDINARY    00000000 00001000 FFFFFFF8   6 000          @R6,6
   9091  00000466  00000001 DROP                                            1              1
   9095  0000046C  00000001 USING  ORDINARY    00000000 00001000 FFFFFFFD   1 000          @R1,1
   9105  0000046C  00000001 USING  ORDINARY    00000024 00001000 FFFFFFE3   1 020    9117  DEBBASIC,R1
   9112  0000046C  00000001 DROP                                            2              2
   9116  00000472  00000001 USING  ORDINARY    00000000 00001000 FFFFFFFC   2 000          @R2,2
   9127  00000476  00000001 USING  ORDINARY    00000000 00001000 FFFFFFFD   1 000          @R1,1
   9130  00000476  00000001 USING  ORDINARY    00000000 00001000 FFFFFFE2   1 00E    9139  DEBDASD,R1
   9150  0000047C  00000001 USING  ORDINARY    00000000 00001000 FFFFFFFD   1 000          @R1,1
   9153  0000047C  00000001 USING  ORDINARY    00000024 00001000 FFFFFFE3   1 000          DEBBASIC,1
   9163  00000484  00000001 USING  ORDINARY    00000000 00001000 FFFFFFFD   1 000   10028  @R1,1
   9179  00000488  00000001 USING  ORDINARY    00000000 00001000 FFFFFFF7   7 000          @R7,7
   9182  00000488  00000001 USING  ORDINARY    00000488 00001000 00000001   7 018    9184  $$$48B,7
   9192  0000048C  00000001 USING  ORDINARY    00000000 00001000 FFFFFFF7   7 000          @R7,7
   9195  0000048C  00000001 USING  ORDINARY    00000000 00001000 00000001   7 000          KWBASE,BR
   9373  00000780  00000001 USING  ORDINARY    00000000 00001000 FFFFFFF5   9 000          @R9,9
   9379  00000780  00000001 USING  ORDINARY    00000000 00001000 FFFFFFF4  10 000          @R10,10
   9452  0000079A  00000001 USING  ORDINARY    00000000 00001000 FFFFFFF7   7 000          @R7,7
1KWWR     (KWWR7) (12:47) (15MAR04) Using Map                                                                               Page   38
   9455  0000079A  00000001 USING  ORDINARY    0000079A 00001000 00000001   7 312    9752  $$$50B,7
   9474  000007A2  00000001 USING  ORDINARY    00000000 00001000 FFFFFFE5   5 060   10041  JCB,JCBR
   9560  000007F6  00000001 USING  ORDINARY    00000000 00001000 FFFFFFE8   6 218    9728  KWRRSC,R6
   9785  000008AE  00000001 USING  ORDINARY    00000000 00001000 FFFFFFF7   7 000          @R7,7
   9788  000008AE  00000001 USING  ORDINARY    00000000 00001000 00000001   7 000          KWBASE,7
   9808  000008BC  00000001 USING  ORDINARY    00000000 00001000 FFFFFFF8   6 000          @R6,6
   9848  000008D6  00000001 USING  ORDINARY    00000000 00001000 FFFFFFF7   7 000          @R7,7
   9851  000008D6  00000001 USING  ORDINARY    000008D6 00001000 00000001   7 1D6    9874  $$$60B,7
   9893  000008E6  00000001 USING  ORDINARY    00000000 00001000 FFFFFFF7   7 000          @R7,7
   9896  000008E6  00000001 USING  ORDINARY    00000000 00001000 00000001   7 000          KWBASE,7
   9949  0000090E  00000001 USING  ORDINARY    00000000 00001000 FFFFFFF7   7 000          @R7,7
   9952  0000090E  00000001 USING  ORDINARY    0000090E 00001000 00000001   7 1A6   10044  $$$63B,7
   9971  00000910  00000001 USING  ORDINARY    00000000 00001000 FFFFFFE7   4 000          RSCGROUP,R4
   9985  00000912  00000001 USING  ORDINARY    00000000 00001000 FFFFFFE8   6 020   10034  KWRRSC,R6
  10054  0000094A  00000001 USING  ORDINARY    00000000 00001000 FFFFFFF8   6 000          @R6,6
  10062  0000094A  00000001 USING  ORDINARY    00000000 00001000 FFFFFFFA   4 000          @R4,4
  10071  0000094A  00000001 USING  ORDINARY    00000000 00001000 FFFFFFF7   7 000          @R7,7
  10074  0000094A  00000001 USING  ORDINARY    00000000 00001000 00000001   7 000          KWBASE,7
  10125  00000972  00000001 USING  ORDINARY    00000000 00001000 FFFFFFF7   7 000          @R7,7
  10128  00000972  00000001 USING  ORDINARY    00000972 00001000 00000001   7 14E   10278  $$$68B,7
  10150  0000097E  00000001 USING  ORDINARY    00000000 00001000 FFFFFFE7   4 028   10245  RSCGROUP,R4
  10205  000009AC  00000001 USING  ORDINARY    00000000 00001000 FFFFFFE8   6 014   10243  KWRRSC,R6
  10252  000009DE  00000001 USING  ORDINARY    00000000 00001000 FFFFFFF8   6 000          @R6,6
  10307  00000A0C  00000001 USING  ORDINARY    00000000 00001000 FFFFFFFA   4 000          @R4,4
  10316  00000A0C  00000001 USING  ORDINARY    00000000 00001000 FFFFFFF7   7 000          @R7,7
  10319  00000A0C  00000001 USING  ORDINARY    00000000 00001000 00000001   7 000          KWBASE,7

1         (KWWR7) (12:47) (15MAR04) General Purpose Register Cross Reference                                                Page   39
- Register  References (M=modified, B=branch, U=USING, D=DROP, N=index)                      HLASM R4.0  2004/03/15 12.47
0    0(0)      982U   983D  1960   2028M  2028   2029M  8538   8591M  8592M  8592   8608M  8609M  8614   8618M  8618
              8633M  8633   8642   8643M  8644   8649M  8649   8650M  8651   8681   8825M  8825   8826M  8844M  8862M
              8892   8924M  8925M  8925   8926   8931M  8931   8932M  8934M  8935M  8936M  8937M  8939M  9056   9077
              9138M  9138   9139M  9203M  9204M  9205   9435   9464   9496   9522M  9522   9544   9590M  9592M  9597M
              9597   9617M  9639   9643M  9692   9718M  9720M  9740M  9740   9760   9796M  9831   9871M  9871   9904M
              9932   9975  10033  10082M 10108  10165M 10165  10186  10212M 10213M 10213  10229  10243  10244M 10245
             10266M 10266  10286  10327M
     1(1)      978U  1960   2023M  2024M  2030M  8538   8590M  8602M  8610M  8612   8658M  8659   8660   8661   8662
              8686M  8687   8688   8689   8690   8691   8754M  8755M  8755   8756   8767M  8768   8769   8770   8771
              8787M  8788   8789   8790   8829M  8846M  8852M  8862M  8892   8922M  8923M  8923   8926M  8927M  8927
              8932M  8935M  8936M  8938M  8939   9034   9070M  9071   9072   9077M  9091D  9093M  9093   9094M  9095U
              9105U  9117M  9127U  9130U  9150U  9153U  9155M  9155   9163U  9202M  9205M  9435   9465   9496   9518M
              9544   9552   9591M  9592M  9622M  9639   9719M  9720M  9736M  9760   9796M  9831   9867M  9904M  9932
              9961  10006M 10023M 10082M 10108  10161M 10186  10195  10229  10262M 10286  10327M
     2(2)      974U  1960   8538   8574M  8581M  8673M  8701M  8805M  8829M  8862M  8889M  8892   9032   9060D  9062M
              9062   9063M  9071   9076M  9112D  9114M  9114   9115M  9156M  9197M  9435   9464M  9496   9544   9568
              9639   9760   9796M  9831   9904M  9932  10082M 10108  10186  10229  10286  10327M
     3(3)      970U  1960   8538   8829M  8862M  8892   9032   9076M  9435   9465M  9496   9544   9590   9639   9704
              9760   9796M  9831   9904M  9932  10082M 10108  10186  10229  10286  10327M
     4(4)      966U  1960   8538   8829M  8862M  8892   9032   9076M  9435   9496   9544   9639   9760   9796M  9831
              9904M  9932   9961M  9971U 10062U 10082M 10108  10140M 10150U 10186  10229  10286  10307U 10327M
     5(5)      962U  1960   8538   8829M  8862M  8892   9032   9076M  9435   9466M  9474U  9496   9544   9639   9760
              9796M  9831   9904M  9932  10034M 10082M 10108  10186  10229  10286  10327M
     6(6)      958U  1960   8538   8829M  8862M  8892   9032   9034M  9044U  9076M  9084U  9435   9496   9544   9552M
              9560U  9639   9760   9796M  9808U  9831   9904M  9932   9975M  9985U 10054U 10082M 10108  10186  10195M
             10205U 10229  10252U 10286  10327M
     7(7)      954U  1953M  1953   1954B  1960   1966B  8500U  8526U  8538   8541M  8556U  8829M  8862M  8874U  8892
              8895M  8910U  9032   9076M  9169M  9179U  9182U  9184M  9192U  9195U  9197   9435   9440M  9452U  9455U
              9496   9544   9639   9760   9785U  9788U  9796M  9831   9836M  9848U  9851U  9893U  9896U  9904M  9932
              9937M  9949U  9952U 10071U 10074U 10082M 10108  10113M 10125U 10128U 10186  10229  10286  10316U 10319U
             10327M
     8(8)      950U  1960   8538   8539M  8827   8829M  8861   8862M  8892   8893M  9032   9076M  9435   9436M  9496
              9544   9639   9760   9792   9796M  9831   9832M  9900   9904M  9932   9933M 10078  10082M 10108  10109M
             10186  10229  10286  10323  10327M
     9(9)      946U  1960   8518U  8538   8558M  8829M  8860   8862M  8892   8913M  9032   9076M  9373U  9496   9544
              9639   9760  10186  10229  10286
    10(A)      942U  1960   8509U  8538   8564D  8566M  8566   8567M  8568U  8829M  8860   8862M  8892   8913M  9032
              9076M  9379U  9496   9544   9639   9760  10186  10229  10286
    11(B)      938U  1028U  1960   8538   8829M  8862M  8892   9032   9076M  9496   9544   9639   9760  10186  10229
             10286
    12(C)      934U  1033U  1960   8538   8829M  8862M  8892   9032   9076M  9496   9544   9639   9760  10186  10229
             10286
    13(D)      930U  1960   8538   8539   8540M  8540   8827M  8828   8829   8861M  8862   8892   8893   8894M  8894
              9032   9076M  9432   9435   9436   9437M  9437   9496   9544   9639   9760   9792M  9796   9798   9828
              9831   9832   9833M  9833   9900M  9904   9906   9929   9932   9933   9934M  9934  10078M 10082  10084
             10105  10108  10109  10110M 10110  10186  10229  10286  10323M 10327  10329
    14(E)      926U  1960   1961M  1975   1976M  1977B  1979M  1980B  2000M  2001B  2005M  2006B  2008M  2009B  2011M
              2012B  2014M  2015B  2017M  2018M  2018B  2024   8538   8587M  8595M  8599M  8605M  8611M  8613M  8655M
              8664M  8666M  8667M  8680M  8683M  8693M  8695M  8696M  8764M  8773M  8775M  8784M  8792M  8794M  8799M
              8828M  8830   8833M  8849M  8855M  8859   8862M  8863B  8891B  8892   8912M  8914B  8940B  8946   8948M
              8949   8950M  8951B  8957   8982M  8983B  9032   9075M  9076M  9086B  9165B  9432   9496   9497M  9527M
              9528M  9528B  9544   9545M  9576M  9592M  9626M  9638M  9639   9704M  9720M  9743M  9744M  9744B  9760
              9761M  9798M  9801B  9828   9874M  9875M  9875B  9906M  9909B  9929  10031M 10044M 10045M 10045B 10084M
             10087B 10105  10169M 10170M 10170B 10186  10187M 10229  10230M 10269M 10270M 10270B 10286  10287M 10329M
             10332B
1         (KWWR7) (12:47) (15MAR04) General Purpose Register Cross Reference                                                Page   40
    15(F)      922U  1960   8536U  8538   8547U  8662M  8663M  8663   8664B  8691M  8692M  8692   8693B  8771M  8772M
              8772   8773B  8790M  8791M  8791   8792B  8828M  8862M  8884U  8892   8901U  8946   8947M  8948B  8950M
              8957   8958M  8976M  8981B  8982M  9032   9073M  9074M  9074   9075   9076M  9496   9523M  9524M  9524
              9544   9583M  9591   9592M  9623M  9624M  9624   9626B  9639   9640M  9641B  9711M  9719   9720M  9760
              9800M  9800   9908M  9908  10030M 10031B 10086M 10086  10137M 10138  10166M 10186  10229  10286  10331M
             10331

1KWWR     (KWWR7) (12:47) (15MAR04) Diagnostic Cross Reference and Assembler Summary                                        Page   41
-                                                                                            HLASM R4.0  2004/03/15 12.47
0     No Statements Flagged in this Assembly
 HIGH LEVEL ASSEMBLER, 5696-234, RELEASE 4.0, PTF P72483
0SYSTEM: OS/390 02.10.00            JOBNAME: WYL#KWWR    STEPNAME: ASM        PROCSTEP: (NOPROC)
0Datasets Allocated for this Assembly
  Con DDname   Dataset Name                                 Volume  Member
   P1 SYSIN    WYL.GS.WYL.WYLBUR.SOURCE                     SYSB05  KWWR
   L1 SYSLIB   WYL.GS.WYL.WYLBUR.MACLIB                     SYSB05
   L2          WYL.GG.SYS.MACLIB                            SYSB05
   L3          SYS3.IS.MACLIB                               SYSB05
   L4          SYS3.MACLIB                                  SYSB02
   L5          SYS1.MACLIB                                  MVSBR9
   L6          SYS1.MODGEN                                  MVSBR9
      SYSPRINT SYS04075.T124732.RA000.WYL#KWWR.PRINT.H01    SCR101
      SYSTERM  GG$SLP.WYL#KWWR.JOB03537.D0000101.?

    3668K allocated to Buffer Pool,         2389K would be required for this to be an In-Storage Assembly
     575 Primary Input Records Read        14436 Library Records Read                  0 Work File Reads
       0 ASMAOPT Records Read               2221 Primary Print Records Written         0 Work File Writes
       0 Punch Records Written                 0 ADATA Records Written
0Assembly Start Time: 12.47.34 Stop Time: 12.47.42 Processor Time: 00.00.01.7261
 Return Code 000
