1                        J E S 2  J O B  L O G  --  S Y S T E M  S Y S B  --  N O D E  R L G
0
 12.50.24 JOB03550 ---- MONDAY,    15 MAR 2004 ----
 12.50.24 JOB03550  ICH70001I GG$SLP   LAST ACCESS AT 12:50:06 ON MONDAY, MARCH 15, 2004
 12.50.24 JOB03550  $HASP373 WYL#OPT  STARTED - INIT 6    - CLASS B - SYS SYSB
 12.50.24 JOB03550  ***  HCMD      STEP $$QUIET
 12.50.24 JOB03550  PUR * Q OUT MUL
 12.50.24 JOB03550  JOB 5411 WYL#OPT  WILL BE PURGED
 12.50.25 JOB03550  WYL#OPT .$$QUIET .         RC=Zero TapeIO=0000 DiskIO=0000 CPU=  .01s Elapsed=24.37s
 12.50.42 JOB03550  WYL#OPT .ASM     .         RC=Zero TapeIO=0000 DiskIO=0669 CPU= 4.89s Elapsed=25.45s
 12.50.45 JOB03550  WYL#OPT .EDIT    .         RC=Zero TapeIO=0000 DiskIO=0271 CPU=  .77s Elapsed=42.26s
 12.50.45 JOB03550  WYL#OPT  Ended.  Name=Assemble OPT                   Total CPU= 5.67s Elapsed=24.37s
 12.50.45 JOB03550
 12.50.45 JOB03550  Execution charges   Priority=Standard   Block=Day
 12.50.45 JOB03550
 12.50.45 JOB03550  CPU Usage         105.00          $65.10   Standard Processing Unit Equivalent
 12.50.45 JOB03550                                   =======
 12.50.45 JOB03550                                    $65.10   Total Job execution charge
 12.50.45 JOB03550
 12.50.45 JOB03550  See back separator page for print charges
 12.50.45 JOB03550
 12.50.45 JOB03550  $HASP395 WYL#OPT  ENDED  ASM=0, EDIT=0
1        1 //WYL#OPT JOB SLP$GG,'Assemble OPT',TIME=4,REGION=4M                    JOB03550
           //*
           /*JOBPARM LINES=99,COPIES=1
           /*JOBPARM FORMS=3HOL,PFORMAT=LAND,CHARS=BD13,DUPLEX=YES,FLASH=BAR4
           //*
           /*JOBPARM NOTIFY=GG.SLP,HOLD=OUTPUT                                     WYLGEN
         2 //$$QUIET EXEC PGM=HCMDX,PARM='PUR * Q OUT MUL'
           //*
         3 //ASM    EXEC PGM=ASMA90,REGION=8M,
           //            PARM=('NORENT,TERM,FLAG(NOCONT),US(MAP,WARN(10)),NODECK',
           //            'LC(32767),XREF(SHORT),ESD,DXREF,NOOBJECT')
         4 //STEPLIB DD DSN=SYS3.IS.TESTASM,DISP=SHR
         5 //SYSLIB   DD  DSN=WYL.GS.WYL.WYLBUR.MACLIB,DISP=SHR
         6 //         DD  DSN=WYL.GG.SYS.MACLIB,DISP=SHR
         7 //         DD  DSN=SYS3.IS.MACLIB,DISP=SHR
         8 //         DD  DSN=SYS3.MACLIB,DISP=SHR
         9 //         DD  DSN=SYS1.MACLIB,DISP=SHR
        10 //         DD  DSN=SYS1.MODGEN,DISP=SHR
        11 //SYSUT1   DD DSN=&&SYSUT1,UNIT=VIO,DISP=(,DELETE),
           //            SPACE=(4088,(500,250),,CONTIG,ROUND)
        12 //SYSTERM  DD SYSOUT=T
        13 //SYSPRINT DD DSN=&&PRINT,UNIT=SYSDA,DISP=(,PASS),
           //            SPACE=(6650,(250,250),RLSE),
           //            DCB=(BLKSIZE=6650,LRECL=133,RECFM=FB)
        14 //SYSUDUMP DD SYSOUT=A
        15 //SYSIN    DD  DSN=WYL.GS.WYL.WYLBUR.SOURCE(OPT),DISP=SHR
           //*
        16 //EDIT    EXEC PGM=ASMEDIT,TIME=2,REGION=4000K,
           //             PARM='STMT'
        17 //STEPLIB  DD  DSN=WYL.GG.SYS.LINKLIB,DISP=SHR
        18 //ASMOUT   DD  DSN=&PRINT,DISP=(OLD,DELETE)
        19 //SYSPRINT DD  SYSOUT=A
1 STMT NO. MESSAGE
 -
        11 IGD01010I STORCLAS= TEMP STORGROUP =
        11 IGD01010I STORGRP=VIO ASSIGNED.
        13 IGD01010I STORCLAS= TEMP STORGROUP =
        13 IGD01010I STORGRP=VIO ASSIGNED.
 ICH70001I GG$SLP   LAST ACCESS AT 12:50:06 ON MONDAY, MARCH 15, 2004
 IEF142I WYL#OPT $$QUIET - STEP WAS EXECUTED - COND CODE 0000
 *********************************************************************************
 *   WYL#OPT /$$QUIET /                    Return Code      Zero                 *
 *   Region used      260K (16K user + 244K system)                              *
 *   Extended region  9692K (4K user + 9688K system)                             *
 *                                                                               *
 *   Paging              In      Out                                             *
 *   Private <-> Aux      0        0       CPU time (TCB)   00:00:00.01          *
 *   Private <-> Exp      0        0       CPU time (SRB)   00:00:00.00          *
 *   VIO                  0        0       Elapsed time    917:37:28.59          *
 *   Common               0      ---                                             *
 *                                                                               *
 *                                                                               *
 *   CPU Usage          0.18         $0.11  Standard Processing Unit Equivalent  *
 *                                   $0.11  Total Step execution charge          *
 *                                                                               *
 *    I/O count  DDname   Type Addr           I/O count  DDname   Type Addr      *
 *                         *** No I/O for this step ***                          *
 *********************************************************************************
 IEF373I STEP/$$QUIET /START 2004075.1250
 IEF374I STEP/$$QUIET /STOP  2004075.1250 CPU    0MIN 00.01SEC SRB    0MIN 00.00SEC VIRT    16K SYS   244K EXT       4K SYS    9688K
 IEF236I ALLOC. FOR WYL#OPT ASM
 IEF237I 04DC ALLOCATED TO STEPLIB
 IEF237I 04DC ALLOCATED TO SYSLIB
 IEF237I 04DC ALLOCATED TO
 IEF237I 04DC ALLOCATED TO
 IEF237I 0402 ALLOCATED TO
 IEF237I 04A0 ALLOCATED TO
 IEF237I 04A0 ALLOCATED TO
 IGD101I SMS ALLOCATED TO DDNAME (SYSUT1  )
         DSN (SYS04075.T125024.RA000.WYL#OPT.SYSUT1.H01   )
         STORCLAS (TEMP) MGMTCLAS (        ) DATACLAS (        )
         VOL SER NOS= VIO
 IEF237I JES2 ALLOCATED TO SYSTERM
 IGD101I SMS ALLOCATED TO DDNAME (SYSPRINT)
         DSN (SYS04075.T125024.RA000.WYL#OPT.PRINT.H01    )
         STORCLAS (TEMP) MGMTCLAS (        ) DATACLAS (        )
         VOL SER NOS= SCR100
 IEF237I JES2 ALLOCATED TO SYSUDUMP
 IEF237I 04DC ALLOCATED TO SYSIN
 IEF142I WYL#OPT ASM - STEP WAS EXECUTED - COND CODE 0000
 IEF285I   SYS3.IS.TESTASM                              KEPT
 IEF285I   VOL SER NOS= SYSB05.
 IEF285I   WYL.GS.WYL.WYLBUR.MACLIB                     KEPT
 IEF285I   VOL SER NOS= SYSB05.
 IEF285I   WYL.GG.SYS.MACLIB                            KEPT
 IEF285I   VOL SER NOS= SYSB05.
 IEF285I   SYS3.IS.MACLIB                               KEPT
 IEF285I   VOL SER NOS= SYSB05.
 IEF285I   SYS3.MACLIB                                  KEPT
 IEF285I   VOL SER NOS= SYSB02.
 IEF285I   SYS1.MACLIB                                  KEPT
 IEF285I   VOL SER NOS= MVSBR9.
 IEF285I   SYS1.MODGEN                                  KEPT
 IEF285I   VOL SER NOS= MVSBR9.
 IGD105I SYS04075.T125024.RA000.WYL#OPT.SYSUT1.H01    DELETED,   DDNAME=SYSUT1
 IEF285I   GG$SLP.WYL#OPT.JOB03550.D0000101.?           SYSOUT
 IGD106I SYS04075.T125024.RA000.WYL#OPT.PRINT.H01     PASSED,    DDNAME=SYSPRINT
 IEF285I   GG$SLP.WYL#OPT.JOB03550.D0000102.?           SYSOUT
 IEF285I   WYL.GS.WYL.WYLBUR.SOURCE                     KEPT
 IEF285I   VOL SER NOS= SYSB05.
 *********************************************************************************
 *   WYL#OPT /ASM     /                    Return Code      Zero                 *
 *   Region used      4376K (4096K user + 280K system)                           *
 *   Extended region  10292K (412K user + 9880K system)                          *
 *                                                                               *
 *   Paging              In      Out                                             *
 *   Private <-> Aux      0        0       CPU time (TCB)   00:00:04.84          *
 *   Private <-> Exp      0        0       CPU time (SRB)   00:00:00.05          *
 *   VIO                  0        0       Elapsed time    917:37:27.51          *
 *   Common               0      ---                                             *
 *                                                                               *
 *                                                                               *
 *   CPU Usage         90.75        $56.26  Standard Processing Unit Equivalent  *
 *                                  $56.26  Total Step execution charge          *
 *                                                                               *
 *    I/O count  DDname   Type Addr           I/O count  DDname   Type Addr      *
 *           84  STEPLIB  Disk 04DC                 309  SYSLIB   Disk 04DC      *
 *            0  SYSLIB   Disk 04DC                   0  SYSLIB   Disk 04DC      *
 *            0  SYSLIB   Disk 0402                   0  SYSLIB   Disk 04A0      *
 *            0  SYSLIB   Disk 04A0                   0  SYSUT1   VIO  ----      *
 *            0  SYSTERM       ----                 268  SYSPRINT Disk 038B      *
 *            0  SYSUDUMP      ----                   8  SYSIN    Disk 04DC      *
 *********************************************************************************
 IEF373I STEP/ASM     /START 2004075.1250
 IEF374I STEP/ASM     /STOP  2004075.1250 CPU    0MIN 04.84SEC SRB    0MIN 00.05SEC VIRT  4096K SYS   280K EXT     412K SYS    9880K
 IEF236I ALLOC. FOR WYL#OPT EDIT
 IEF237I 0402 ALLOCATED TO STEPLIB
 IGD103I SMS ALLOCATED TO DDNAME ASMOUT
 IEF237I JES2 ALLOCATED TO SYSPRINT
 IEF142I WYL#OPT EDIT - STEP WAS EXECUTED - COND CODE 0000
 IEF285I   WYL.GG.SYS.LINKLIB                           KEPT
 IEF285I   VOL SER NOS= SYSB02.
 IGD105I SYS04075.T125024.RA000.WYL#OPT.PRINT.H01     DELETED,   DDNAME=ASMOUT
 IEF285I   GG$SLP.WYL#OPT.JOB03550.D0000103.?           SYSOUT
 *********************************************************************************
 *   WYL#OPT /EDIT    /                    Return Code      Zero                 *
 *   Region used      380K (116K user + 264K system)                             *
 *   Extended region  9816K (4K user + 9812K system)                             *
 *                                                                               *
 *   Paging              In      Out                                             *
 *   Private <-> Aux      0        0       CPU time (TCB)   00:00:00.75          *
 *   Private <-> Exp      0        0       CPU time (SRB)   00:00:00.02          *
 *   VIO                  0        0       Elapsed time    917:37:10.70          *
 *   Common               0      ---                                             *
 *                                                                               *
 *                                                                               *
 *   CPU Usage         14.06         $8.71  Standard Processing Unit Equivalent  *
 *                                   $8.71  Total Step execution charge          *
 *                                                                               *
 *    I/O count  DDname   Type Addr           I/O count  DDname   Type Addr      *
 *            2  STEPLIB  Disk 0402                 269  ASMOUT   Disk 038B      *
 *            0  SYSPRINT      ----                                              *
 *********************************************************************************
 IEF373I STEP/EDIT    /START 2004075.1250
 IEF374I STEP/EDIT    /STOP  2004075.1250 CPU    0MIN 00.75SEC SRB    0MIN 00.02SEC VIRT   116K SYS   264K EXT       4K SYS    9812K
 *********************************************************************************
 *                                                                               *
 *                      S t a n f o r d   U n i v e r s i t y                    *
 *                                                                               *
 *                              *** Job Summary ***                              *
 *                                                                               *
 *   System Id      SYSB                   Input time     12:39:23  Mar 15, 2004 *
 *                                                                               *
 *   System Release SP6.1.0                Start time     12:50:24  Mar 15, 2004 *
 *                                                                               *
 *   Job name       WYL#OPT                Stop  time     00:00:00  Mar 15, 2004 *
 *                                                                               *
 *   Account        SLP$GG                 Elapsed time  917:37:28.59            *
 *                                                                               *
 *   User Name      Assemble OPT           CPU time       00:00:05.60            *
 *                                                                               *
 *   Job class      B                      SRB Time       00:00:00.07            *
 *                                                                               *
 *********************************************************************************
 IEF375I  JOB/WYL#OPT /START 2004075.1250
 IEF376I  JOB/WYL#OPT /STOP  2004075.1250 CPU    0MIN 05.60SEC SRB    0MIN 00.07SEC
1Assembler Done OPT No Statements Flagged
1         High Level Assembler Option Summary                   (PTF P72483 )                                               Page    1
-                                                                                            HLASM R4.0  2004/03/15 12.50
0  No Overriding ASMAOPT Parameters
   Overriding Parameters-  NORENT,TERM,FLAG(NOCONT),US(MAP,WARN(10)),NODECK,LC(32767),XREF(SHORT),ESD,DXREF,NOOBJECT
   No Process Statements


   Options for this Assembly
0  NOADATA
     ALIGN
   NOASA
     BATCH
     CODEPAGE(047C)
   NOCOMPAT
   NODBCS
 3 NODECK
 3   DXREF
 3   ESD
   NOEXIT
 3   FLAG(0,ALIGN,NOCONT,NOIMPLEN,NOPAGE0,PUSH,RECORD,NOSUBSTR,USING0)
   NOFOLD
   NOGOFF
   NOINFO
     LANGUAGE(EN)
   NOLIBMAC
 3   LINECOUNT(32767)
     LIST(121)
     MXREF(SOURCE)
 3 NOOBJECT
     OPTABLE(UNI,NOLIST)
   NOPCONTROL
   NOPESTOP
   NOPROFILE
   NORA2
 3 NORENT
     RLD
     RXREF
     SIZE(MAX)
     SYSPARM()
 3   TERM(WIDE)
   NOTEST
     THREAD
   NOTRANSLATE
 3   USING(NOLIMIT,MAP,WARN(10))
 3   XREF(SHORT)

   No Overriding DD Names

1OPT      External Symbol Dictionary                                                                                        Page    2
-Symbol   Type   Id     Address  Length     LD ID  Flags Alias-of                            HLASM R4.0  2004/03/15 12.50
0WYLOPT    SD 00000001 00000000 00005198             00
 OPT2025   LD          00000000           00000001
 NOOPTS    LD          00000016           00000001
 MALL      ER 00000002
 NOTVALID  ER 00000003
 COLLOPTS  LD          000000C0           00000001
 SCNINVAL  ER 00000004
 DSNOPTS   LD          00000190           00000001
 DSNFOPTS  LD          00000260           00000001
 FNAMOPTS  LD          00000330           00000001
 FNAMPSH   ER 00000005
 NSCAN     ER 00000006
 SCANCHK   ER 00000007
 ACCTPSHL  LD          0000041E           00000001
 ACCTPSHN  LD          00000454           00000001
 ACCTPSHC  LD          0000048A           00000001
 ACCTPSH   LD          000004C0           00000001
 SCNNOOP   ER 00000008
 MPARM     ER 00000009
 MATUID    LD          0000094C           00000001
 RLOOKUP   ER 0000000A
 SCSEG     ER 0000000B
 GETACCT   ER 0000000C
 SEG       ER 0000000D
 CHARCHKA  ER 0000000E
 LTNPSH    LD          00000E64           00000001
 LISTPSH   LD          00000E9A           00000001
 TEXTPSH   LD          00000ED0           00000001
 RNUMPSH   LD          00000F06           00000001
 NUMPSH    LD          00000F3C           00000001
 CASEPSH   LD          00000F72           00000001
 LENPSH    LD          00000FA8           00000001
 VERPSH    LD          00000FDE           00000001
 MTOKEN    ER 0000000F
 MPINT     ER 00000010
 COLSPSH   LD          00001670           00000001
 MPCOLS    ER 00000011
 COLLPSH   LD          00001788           00000001
 MNULL     ER 00000012
 MSYMLN    ER 00000013
 MPLNO     ER 00000014
 ENDLNO    ER 00000015
 CLRTEXT   ER 00000016
 NOOPTPSH  LD          00001ECA           00000001
 INTPSH    LD          00001F00           00000001
 QUIETPSH  LD          00001F36           00000001
 SCRPSH    LD          0000208C           00000001
 CLSCRPSH  LD          000020C2           00000001
 CLRPSH    LD          000020F8           00000001
 ATTNLINE  LD          00002414           00000001
 LABELLNO  ER 00000017
 SCNEX     LD          000026B8           00000001
 SCNEXFR   LD          0000275C           00000001
 DSNSCAN   LD          00002A14           00000001
 DODSNM    LD          00002A44           00000001
1OPT      External Symbol Dictionary                                                                                        Page    3
 SETSKIP   ER 00000018
 SETSTOP   ER 00000019
 DEQUOTE   ER 0000001A
 EXIT2     ER 0000001B
 SEGCR     ER 0000001C
 RETFMEM   ER 0000001D
 RETFNAME  ER 0000001E
 DSNFIN    LD          000038A8           00000001
 DSNSTDDO  LD          00003AD6           00000001
 DSNUDSDO  LD          00003B44           00000001
 FINDDEV   ER 0000001F
 SEGT      ER 00000020
 RTRIM     ER 00000021
 VOLCHK    ER 00000022
 DSNPSH    LD          00003F94           00000001
 DSNPSHF   LD          00003FCA           00000001
 DSNPSHON  LD          00004000           00000001
 MINT      ER 00000023
 CNVCODE   LD          0000495C           00000001
 NSCANSTR  ER 00000024

1OPT      WYLBUR's Common Scan Tables                                                                                       Page    4
0Loc    Object Code    Addr1 Addr2  Stmt Lv Lineno    Source Statement                    (Asmedit 3.3)  HLASM R4.0  2004/03/15 12.50
+___    ______ ____    _____ _____  ____ __ ______    ______ _________
0                                      2              *******************************************************************
                                       3              *                                                                 *
                                       4              *     WYLBUR/370 - Release VI - Class I - Stanford Proprietary    *
                                       5              *                                                                 *
                                       6              *******************************************************************
                                       7                       HIBAL
                                     988
                                     989                       SYSDEFN
                                     990                       GBLC  &PUBUSER,&PUBGRP
                                     991
 000000                00000 05198   992              WYLOPT   CSECT
                                     996                       REGS  FSR,,,,,,,BR,(WAR,LSR),PAR,PBR,CPR,CVR,SPR,RAR
                                    1132
                                    1133              OPT      IDENT 2025                11:49:28 01/25/02  (SLP)
                                    1136             +
                                    1137    01-IDENT +         ENTRY OPT2025
                                    1138             +
 000000 15D6D7E3F2F0F2F5            1139    01-IDENT +OPT2025  DC    AL1(21),C'OPT2025,15MAR04,12:50'
                                    1140             +*
                                    1142              *
                                    1143                       PUSH  DSECTS
 USING  CP,R11                      1435             =         USING (CP),(CV)
 USING  CV,R12
 000016                00000 05198  1454             =         POP   PRINT
1OPT      (OPT2025) (12:50) (15MAR04) Some Common Scan Routines                                                             Page    5
0Current Usings:  (CP,R11) (CV,R12)
0Loc    Object Code    Addr1 Addr2  Stmt Lv Lineno    Source Statement           (Hibal 5, Asmedit 3.3)  HLASM R4.0  2004/03/15 12.50
+___    ______ ____    _____ _____  ____ __ ______    ______ _________
0                                   6589              *
                                    6590              *  SCAN, NO OPTIONS ALLOWED
                                    6591              *
                                    6592              *
 000016 50E0 D000/9008_      00000  6593              NOOPTS   XPROC ,
 USING  *,R7
 000030 5810 B08C/1B00_      0008C  6633                       SCAN  NOOPTSKW
 000082 58E0 73D8/0DEE       00408  6665                       SCANCHK
 000088 18D8/9808 D004_             6670                       PEND  ,
 DROP   *,R7
 000098 4040404040404040_           6690              NOOPTSKW SCKW  ,V(NOTVALID)
0                                   6706              *
                                    6707              *  SCAN COLLECT OPTIONS
                                    6708              *
                                    6709              *
 0000C0 50E0 D000/9008_      00000  6710              COLLOPTS XPROC ,
 USING  *,R7
 0000DA 5810 B08C/1B00_      0008C  6750                       SCAN  COPTSKWS
 00012C 58E0 732E/0DEE       00408  6782                       SCANCHK
 000132 18D8/9808 D004_             6787                       PEND  ,
 DROP   *,R7
 000140 4040404040404040_           6807              COPTSKWS SCKW  ,COLLPSH,PUSH
 000168 4040404040404040_           6822                       SCKW  ,V(SCNINVAL)
1OPT      (OPT2025) (12:50) (15MAR04) Some Common Scan Routines                                                             Page    6
0Current Usings:  (CP,R11) (CV,R12)
0Loc    Object Code    Addr1 Addr2  Stmt Lv Lineno    Source Statement           (Hibal 5, Asmedit 3.3)  HLASM R4.0  2004/03/15 12.50
+___    ______ ____    _____ _____  ____ __ ______    ______ _________
0                                   6838              *
                                    6839              *  SCAN DSNAME OPTS         ** DEBUG **
                                    6840              *
                                    6841              *
 000190 50E0 D000/9008_      00000  6842              DSNOPTS  XPROC ,
 USING  *,R7
 0001AA 5810 B08C/1B00_      0008C  6882                       SCAN  DOPTSKWS
 0001FC 58E0 725E/0DEE       00408  6914                       SCANCHK
 000202 18D8/9808 D004_             6919                       PEND  ,
 DROP   *,R7
 000210 4040404040404040_           6939              DOPTSKWS SCKW  ,DSNPSH,PUSH
 000238 4040404040404040_           6954                       SCKW  ,V(SCNINVAL)
0                                   6970              *
                                    6971              *  SCAN DSNAME OPTS  W/FORMAT OPTIONS INCLUDED
                                    6972              *
                                    6973              *
 000260 50E0 D000/9008_      00000  6974              DSNFOPTS XPROC ,
 USING  *,R7
 00027A 5810 B08C/1B00_      0008C  7014                       SCAN  DFOPTSKW
 0002CC 58E0 718E/0DEE       00408  7046                       SCANCHK
 0002D2 18D8/9808 D004_             7051                       PEND  ,
 DROP   *,R7
 0002E0 4040404040404040_           7071              DFOPTSKW SCKW  ,DSNPSHF,PUSH
 000308 4040404040404040_           7086                       SCKW  ,V(SCNINVAL)
1OPT      (OPT2025) (12:50) (15MAR04) Some Common Scan Routines                                                             Page    7
0Current Usings:  (CP,R11) (CV,R12)
0Loc    Object Code    Addr1 Addr2  Stmt Lv Lineno    Source Statement           (Hibal 5, Asmedit 3.3)  HLASM R4.0  2004/03/15 12.50
+___    ______ ____    _____ _____  ____ __ ______    ______ _________
0                                   7103              *
                                    7104              *  SCAN FILE NAME OPTIONS
                                    7105              *
                                    7106              *
 000330 50E0 D000/9008_      00000  7107              FNAMOPTS XPROC ,
 USING  *,R7
 00034A 5810 B08C/1B00_      0008C  7147                       SCAN  FOPTSKWS
 00039C 58E0 70BE/0DEE       00408  7179                       SCANCHK
 0003A2 18D8/9808 D004_             7184                       PEND  ,
 DROP   *,R7
 0003B0 4040404040404040_           7204              FOPTSKWS SCKW  ,V(FNAMPSH),PUSH
 0003D8 4040404040404040_           7219                       SCKW  ,V(SCNINVAL)
                                    7234                       QLTORG
1OPT      (OPT2025) (12:50) (15MAR04) Account Scan Table                                                                    Page    8
0Current Usings:  (CP,R11) (CV,R12)
0Loc    Object Code    Addr1 Addr2  Stmt Lv Lineno    Source Statement           (Hibal 5, Asmedit 3.3)  HLASM R4.0  2004/03/15 12.50
+___    ______ ____    _____ _____  ____ __ ______    ______ _________
0                                   7255              *
                                    7256              *  ACCOUNT SCAN TABLES, ROUTINES
                                    7257              *
 00041E 50E0 D000/9008_      00000  7258              ACCTPSHL XPUSHRTN ACCTKWSL         Gg.uuu[.project]
 USING  *,R7
 DROP   *,R7
                                    7326
 000454 50E0 D000/9008_      00000  7327              ACCTPSHN XPUSHRTN ACCTKWSN         Gg.uuu or uuu$gg
 USING  *,R7
 DROP   *,R7
                                    7395
 00048A 50E0 D000/9008_      00000  7396              ACCTPSHC XPUSHRTN ACCTKWSC         Gg.uuu, acc, user, group,
 USING  *,R7
 DROP   *,R7
                                    7464
 0004C0 50E0 D000/9008_      00000  7465              ACCTPSH  XPUSHRTN ACCTKWS          Acc, user, group
 USING  *,R7
 DROP   *,R7
                                    7533
 0004F8 4040404040404040_           7534              ACCTKWSL SCKW  ,V(SCNNOOP),A(MACCTPRJ)       Gg.uuu[.project]
 000520 4040404040404040_           7549                       SCKW  ,,END
-000548 4040404040404040_           7565              ACCTKWSN SCKW  ,V(SCNNOOP),A(MACCT)          Gg.uuu or uuu$gg
 000570 4040404040404040_           7580                       SCKW  ,,END
-000598 4040404040404040_           7596              ACCTKWSC SCKW  ,V(SCNNOOP),A(MACCT)          Gg.uuu, acc, user, gro
 0005C0 4040404040404040_           7611                       SCKW  ,ACCTPSH,PUSH
 0005E8 4040404040404040_           7626                       SCKW  ,,END
                                    7641
 000610 C1C3C3D6E4D5E340_           7642              ACCTKWS  SCKW  ACCOUNT,SCNACCT,(A,P) Acc, user, group
 000638 C1C3C3E340404040_           7657                       SCKW  ACCT,SCNACCT,P
 000660 E4E2C5D940404040_           7672                       SCKW  USER,SCNUSER,(A,P)
 000688 E4E2D94040404040_           7687                       SCKW  USR,SCNUSER,P
 0006B0 C7D9D6E4D7404040_           7702                       SCKW  GROUP,SCNGRP,(A,P)
 0006D8 C7D9D74040404040_           7717                       SCKW  GRP,SCNGRP,P
 000700 E4E2C5D9C9C44040_           7732                       SCKW  USERID,SCNUID,(P,END)
1OPT      (OPT2025) (12:50) (15MAR04) Account Scan Table                                                                    Page    9
0Current Usings:  (CP,R11) (CV,R12)
0Loc    Object Code    Addr1 Addr2  Stmt Lv Lineno    Source Statement           (Hibal 5, Asmedit 3.3)  HLASM R4.0  2004/03/15 12.50
+___    ______ ____    _____ _____  ____ __ ______    ______ _________
0                                   7748              *
                                    7749              *   MATCH GG.UUU[.PROJECT]
                                    7750              *
                                    7751              *   gg.uuu[.project]
                                    7752              *
 000728 50E0 D000/9008_      00000  7753              MACCTPRJ PROC  ,
 USING  *,R7
                                    7792
                                    7793                       COMMENT                   GET 6 CHAR ACCT, UPPER CASE
 000742 58E0 B08C/581E_      0008C  7794                       SCTOK
 000750 5810 B08C/4111_      0008C  7803                       SCUPTOK R1
 000758 5900 760A/47D0_      00D4C  7807                       IF ((R0,GT,7),AND,(@R1+2,EQ,'.'),AND,(@R1+6,EQ,'.')),BEGIN
 000770 5900 760E/47D0_      00D50  7852  1                      CEIL  R0,6
 00077C                             7871                       END
                                    7875
                                    7876                       COMMENT                   CHECK ACCOUNT PART
 00077C 58E0 7612/0DEE       00D54  7877                       ACALL TRYACCT
 000782 4780 7048            0078A  7881                       IF    NZ,BEGIN
 000786 47F0 7102            00844  7892  1                      B     MPRJDONE
 00078A                             7893                       END
                                    7897
                                    7898                       COMMENT                   NOW CHECK PROJECT
 00078A 58E0 B08C/581E_      0008C  7899                       SCTOK
 000798 5810 B08C/4111_      0008C  7908                       SCUPTOK R1
 0007A0 5900 760A/4750_      00D4C  7912                       IF    (R0,GE,7),BEGIN
 0007A8 954B 1006/4780_00006        7929  1                      IF    (@R1+6,NE,'.'),BEGIN
 0007B0 41F0 0004            00004  7945  2                        LA    R15,4
 0007B4 47F0 7102            00844  7946  2                        B     MPRJDONE
 0007B8                             7947  1                      END
 0007B8 4110 1007            00007  7951  1                      LA    R1,@R1+7
 0007BC 4B00 7652            00D94  7952  1                      SH    R0,=H'7'
 0007C0 5900 7616/47D0_      00D58  7953  1                      IF    (R0,GT,L'CPSPROJ),BEGIN
 0007C8 5820 B08C/58E0_      0008C  7970  2                        SCSEG (R1),(R0)
 0007D2 4110 7676/4100_      00DB8  7988  2                        SCSEG ': project-id is too long (max is 8 characters).'
 0007E4 58F0 761E            00D60  8000  2                        L     R15,=F'-4'
 0007E8 47F0 7102            00844  8001  2                        B     MPRJDONE
 0007EC                             8002  1                      END
 0007EC D207 B3F0 C4D8 003F0 004D8  8006  1                      MVC   CPSPROJ,CVBLANKS    All ok, set project
 0007F2 1840                        8007  1                      LR    R4,R0
 0007F4 0640/1244/4740_             8008  1                      MOVE  R4,CPSPROJ,@R1
 000800                             8046                       END
                                    8050
                                    8051                       COMMENT                   All ok, set account
 000800 5810 B08C/4111_      0008C  8052                       SCUPTOK R1
                                    8056                       ¿þþþþþþþþþþþþþþþþþþþþþÜ
                                    8057                       Ÿ  gg.uuu or gg$uuu.  Ÿ
                                    8058                       ¾þþþþþþþþþþþþþþþþþþþþþ»
 000808 954B 1002/4780_00002        8059                       IF    ((@R1+2,EQ,'.'),OR,(@R1+2,EQ,'$')),BEGIN
 000818 D201 BC4B 1000 00C4B 00000  8090  1                      MVC   CPCGRP,@R1
 00081E D202 BC48 1003 00C48 00003  8091  1                      MVC   CPCUSER,@R1+3
 000824                             8092                       END
1OPT      (OPT2025) (12:50) (15MAR04) Account Scan Table                                                                    Page   10
0Current Usings:  (*,R7) (CP,R11) (CV,R12)
0Loc    Object Code    Addr1 Addr2  Stmt Lv Lineno    Source Statement           (Hibal 5, Asmedit 3.3)  HLASM R4.0  2004/03/15 12.50
+___    ______ ____    _____ _____  ____ __ ______    ______ _________
0                                   8096                       ¿þþþþþþþþþþþþþþþþþþþþþþþþþþþþþþþþþþþþþÜ
                                    8097                       Ÿ  Allow "uuu$gg" for compatibility.  Ÿ
                                    8098                       ¾þþþþþþþþþþþþþþþþþþþþþþþþþþþþþþþþþþþþþ»
 000824 70E6/47F0 70FA_00824 00816  8099                       ELSEIF (@R1+3,EQ,'$'),BEGIN
 000830 D201 BC4B 1004 00C4B 00004  8124  1                      MVC   CPCGRP,@R1+4
 000836 D202 BC48 1000 00C48 00000  8125  1                      MVC   CPCUSER,@R1
 00083C                             8126                       END
                                    8130
 00083C 70FE/47F0 7100_0083C 0082E  8131                       ELSE  ' BOMB '
 000842 1BFF                        8149                       CLEAR R15                 all ok match found
                                    8153
 000844                             8154              MPRJDONE LABEL ,
 000844 18D8/9808 D004_             8156                       PEND
 DROP   *,R7
1OPT      (OPT2025) (12:50) (15MAR04) Account Scan Table                                                                    Page   11
0Current Usings:  (CP,R11) (CV,R12)
0Loc    Object Code    Addr1 Addr2  Stmt Lv Lineno    Source Statement           (Hibal 5, Asmedit 3.3)  HLASM R4.0  2004/03/15 12.50
+___    ______ ____    _____ _____  ____ __ ______    ______ _________
0                                   8177              *
                                    8178              *  MATCH GG.UUU  or  GG$UUU  or  UUU$GG
                                    8179              *
 000852 50E0 D000/9008_      00000  8180              MACCT    PROC
 USING  *,R7
                                    8219
                                    8220                       COMMENT                   GET 6 CHAR ACCT, UPPER CASE
 00086C 58E0 B08C/581E_      0008C  8221                       SCTOK
 00087A 5810 B08C/4111_      0008C  8230                       SCUPTOK R1
                                    8234                       COMMENT                   CHECK ACCOUNT
 000882 58E0 74E8/0DEE       00D54  8235                       ACALL TRYACCT
 000888 12FF/4770 705C              8239                       IF    (R15,Z),BEGIN       Got one...
 00088E 954B 1002/4780_00002        8253  1                      IF    ((@R1+2,EQ,'.'),OR,(@R1+2,EQ,'$')),BEGIN
 00089E D201 BC4B 1000 00C4B 00000  8284  2                        MVC   CPCGRP,@R1
 0008A4 D202 BC48 1003 00C48 00003  8285  2                        MVC   CPCUSER,@R1+3
 0008AA                             8286  1                      END
                                    8290  1
 0008AA 7042/47F0 7056_008AA 0089C  8291  1                      ELSEIF (@R1+3,EQ,'$'),BEGIN
 0008B6 D201 BC4B 1004 00C4B 00004  8316  2                        MVC   CPCGRP,@R1+4
 0008BC D202 BC48 1000 00C48 00000  8317  2                        MVC   CPCUSER,@R1
 0008C2                             8318  1                      END
                                    8322  1
 0008C2 705A/47F0 705C_008C2 008B4  8323  1                      ELSE  ' BOMB '
 0008C8                             8341                       END
                                    8345
 0008C8 18D8/9808 D004_             8346                       PEND
 DROP   *,R7
1OPT      (OPT2025) (12:50) (15MAR04) Account Scan Table                                                                    Page   12
0Current Usings:  (CP,R11) (CV,R12)
0Loc    Object Code    Addr1 Addr2  Stmt Lv Lineno    Source Statement           (Hibal 5, Asmedit 3.3)  HLASM R4.0  2004/03/15 12.50
+___    ______ ____    _____ _____  ____ __ ______    ______ _________
0                                   8367              ¿þþþþþþþþþþþþþþþþþþþþþþþþþþþþþþþþþþþþþþþþþþþþþþþþþþþþþþþþþþþþþþþþþþþþþÜ
                                    8368              Ÿ                                                                     Ÿ
                                    8369              Ÿ  gg.uuu, gg$uuu or uuu$gg                                           Ÿ
                                    8370              Ÿ                                                                     Ÿ
                                                      ¾þþþþþþþþþþþþþþþþþþþþþþþþþþþþþþþþþþþþþþþþþþþþþþþþþþþþþþþþþþþþþþþþþþþþþ»
00008D6 50E0 D000/9008_      00000  8371              SCNACCT  PROC
 USING  *,R7
 0008F0 5810 B08C/4111_      0008C  8410                       SCUPTOK R1
 0008F8 58E0 7474/0DEE       00D64  8414                       ACALL CKACCT
 0008FE 4780 7012            00902  8418                       IF    NZ,BEGIN
 000902                             8429                       END
                                    8433
 000902 7016/47F0 7034_00902 00900  8434                       ELSEIF ((@R1+2,EQ,'.'),OR,(@R1+2,EQ,'$')),BEGIN
 000916 D201 BC4B 1000 00C4B 00000  8474  1                      MVC   CPCGRP,@R1
 00091C D202 BC48 1003 00C48 00003  8475  1                      MVC   CPCUSER,@R1+3
 000922 1BFF                        8476  1                      CLEAR R15
 000924                             8480                       END
                                    8484
 000924 7038/47F0 704E_00924 00914  8485                       ELSEIF (@R1+3,EQ,'$'),BEGIN
 000930 D201 BC4B 1004 00C4B 00004  8510  1                      MVC   CPCGRP,@R1+4
 000936 D202 BC48 1000 00C48 00000  8511  1                      MVC   CPCUSER,@R1
 00093C 1BFF                        8512  1                      CLEAR R15
 00093E                             8516                       END
                                    8520
 00093E 18D8/9808 D004_             8521                       PEND
 DROP   *,R7
1OPT      (OPT2025) (12:50) (15MAR04) Account Scan Table                                                                    Page   13
0Current Usings:  (CP,R11) (CV,R12)
0Loc    Object Code    Addr1 Addr2  Stmt Lv Lineno    Source Statement           (Hibal 5, Asmedit 3.3)  HLASM R4.0  2004/03/15 12.50
+___    ______ ____    _____ _____  ____ __ ______    ______ _________
0                                   8542              *
                                    8543              *  MATCH <user id> OR <account>
                                    8544              *
                                    8545              *  if match, CPCACCT is set to correct account
                                    8546              *  user routine assumed SCNNOOP, (similar to MACCT usage)
                                    8547              *
 00094C 50E0 D000/9008_      00000  8548              MATUID   XPROC
 USING  *,R7
                                    8588
                                    8589                       COMMENT                   CHECK IF USER ID/ACCT
 000966 58E0 B08C/581E_      0008C  8590                       SCTOK ,                   R1,R0 TOKEN SCANNED
 000974 41F0 BC48            00C48  8599                       LA    R15,CPCACCT         R15 - ACCOUNT RETURNED
                                    8600                       COMMENT                   CHECK FOR UID
 000978 58E0 7402/0DEE       00D68  8601                       VCALL GETACCT
 00097E 12FF/4770 7030              8605                       IF    (R15,Z),BEGIN       FOUND USER ID
 000984 58E0 B08C/581E_      0008C  8619  1                      SCTOK ,                   RETURN KEYWORD
 000992 9001 8004            00004  8628  1                      PRETURN (R0,R1)
 000996                             8630                       END
 000996 7034/47F0 7038 00996 00982  8634                       ELSE  BEGIN               USERID NOT FOUND
 00099A 41F0 0004            00004  8645  1                      LA    R15,4
 00099E                             8646                       END
                                    8650
 00099E 18D8/9808 D004_             8651                       PEND
 DROP   *,R7
1OPT      (OPT2025) (12:50) (15MAR04) Account Scan Table                                                                    Page   14
0Current Usings:  (CP,R11) (CV,R12)
0Loc    Object Code    Addr1 Addr2  Stmt Lv Lineno    Source Statement           (Hibal 5, Asmedit 3.3)  HLASM R4.0  2004/03/15 12.50
+___    ______ ____    _____ _____  ____ __ ______    ______ _________
0                                   8672              ¿þþþþþþþþþþþþþþþþþþþþþþþþþþþþþþþþþþþþþþþþþþþþþþþþþþþþþþþþþþþþþþþþþþþþþÜ
                                    8673              Ÿ                                                                     Ÿ
                                    8674              Ÿ        userid                                                       Ÿ
                                    8675              Ÿ                                                                     Ÿ
                                                      ¾þþþþþþþþþþþþþþþþþþþþþþþþþþþþþþþþþþþþþþþþþþþþþþþþþþþþþþþþþþþþþþþþþþþþþ»
00009AC 50E0 D000/9008_      00000  8676              SCNUID   PROC
 USING  *,R7
 0009C6 41F0 BC48            00C48  8715                       LA    R15,CPCACCT
 0009CA 58E0 73A2/0DEE       00D68  8716                       VCALL GETACCT             Convert userid to account
 0009D0 4780 7024            009EA  8720                       IF    NZ,BEGIN            Unknown userid...
 0009D4 41F0 B050/58E0_      00050  8731  1                      TSEG  (R1),(R0)
 0009DE 4110 7421/4100_      00DE7  8755  1                      ERROR ' is an unknown user-ID.'
 0009EA                             8762                       END
 0009EA 1BFF                        8766                       CLEAR R15                 A-ok
 0009EC 18D8/9808 D004_             8770                       PEND
 DROP   *,R7
1OPT      (OPT2025) (12:50) (15MAR04) Account Scan Table                                                                    Page   15
0Current Usings:  (CP,R11) (CV,R12)
0Loc    Object Code    Addr1 Addr2  Stmt Lv Lineno    Source Statement           (Hibal 5, Asmedit 3.3)  HLASM R4.0  2004/03/15 12.50
+___    ______ ____    _____ _____  ____ __ ______    ______ _________
0                                   8791              *
                                    8792              *  TRY ACCOUNT,  ON ENTRY: R1,R0 - ACCOUNT FIELD, R2 - NSCNCB
                                    8793              *    R15 = 4, NOT ACCOUNT
                                    8794              *    R15 = 0, ACCOUNT
                                    8795              *    R15 = -4, INVALID ACCOUNT, APPROPRIATE MESSAGE PLACED IN SCAN CB
                                    8796              *
 0009FA 50E0 D000/9008_      00000  8797              TRYACCT  PROC  ,
 USING  *,R7
 000A14 5900 733C/4770_      00D50  8836                       IF    (R0,NE,6),TNOTACCT
 000A1C 954B 1003/4770_00003        8856                       IF    (@R1+3,EQ,'.'),BEGIN  Close, but wrong...
                                    8872  1           *        SCTOK
                                    8873  1           *        SCSEG (R1),(R0)
                                    8874  1           *        SCSEG ': invalid; '
                                    8875  1           *        SCSEG 'account must be specified in "gg.uuu" format.'
                                    8876  1           *        B     TBADACCT
 000A24 47F0 7040            00A54  8877  1                      B     TNOTACCT            less stringent, may be userid
 000A28                             8878                       END
                                    8882
                                    8883            C          IF    ((@R1+2,EQ,'.'),OR,(@R1+2,EQ,'$'),OR,
 000A28 954B 1002/4780_00002                                         (@R1+3,EQ,'$')),BEGIN  gg.uuu, gg$uuu, or uuu$gg...
 000A40 58E0 7350/0DEE       00D64  8927  1                      ACALL CKACCT
 000A46 4770 7048            00A5C  8931  1                      BNZ   TBADACCT
 000A4A 1BFF                        8932  1                      CLEAR R15                 ACCOUNT OK
 000A4C 47F0 7050            00A64  8936  1                      B     TACCDONE
 000A50                             8937                       END
                                    8941
 000A50 47F0 7040            00A54  8942                       B     TNOTACCT            NOT EVEN CLOSE
                                    8943
 000A54                             8944              TNOTACCT LABEL ,
 000A54 41F0 0004            00004  8946                       LA    R15,4
 000A58 47F0 7050            00A64  8947                       B     TACCDONE
                                    8948
 000A5C                             8949              TBADACCT LABEL ,
 000A5C 58F0 734C            00D60  8951                       L     R15,=F'-4'
 000A60 47F0 7050            00A64  8952                       B     TACCDONE
                                    8953
 000A64 18D8/9808 D004_             8954              TACCDONE PEND
 DROP   *,R7
1OPT      (OPT2025) (12:50) (15MAR04) Account Scan Table                                                                    Page   16
0Current Usings:  (CP,R11) (CV,R12)
0Loc    Object Code    Addr1 Addr2  Stmt Lv Lineno    Source Statement           (Hibal 5, Asmedit 3.3)  HLASM R4.0  2004/03/15 12.50
+___    ______ ____    _____ _____  ____ __ ______    ______ _________
0                                   8976              *
                                    8977              *  CHECK ACCOUNT,  ON ENTRY: R1,R0 - ACCOUNT FIELD, R2 - NSCNCB
                                    8978              *    R15 = 0, ACCOUNT
                                    8979              *    R15 = -4, INVALID ACCOUNT, APPROPRIATE MESSAGE PLACED IN SCAN CB
                                    8980              *
 000A72 50E0 D000/9008_      00000  8981              CKACCT   PROC ,
 USING  *,R7
 000A8C 5900 72C4/4780_      00D50  9020                       IF    (R0,NE,6),BEGIN
 000A94 47F0 708C            00B18  9037  1                      B     CBADACCT
 000A98                             9038                       END
 000A98 1861                        9042                       LR    R6,R1
                                    9043                       ¿þþþþþþþþþþþþþþþþþþþþþþþþþþþþþþþÜ
                                    9044                       Ÿ  Allow "gg.uuu" or "gg$uuu".  Ÿ
                                    9045                       ¾þþþþþþþþþþþþþþþþþþþþþþþþþþþþþþþ»
 000A9A 954B 6002/4780_00002        9046                       IF    ((@R6+2,EQ,'.'),OR,(@R6+2,EQ,'$')),BEGIN
 000AAA 1816/4100 0002              9077  1                      SETMSG @R6,2
 000AB0 58E0 72E4/0DEE       00D70  9093  1                      VCALL CHARCHKA
 000AB6 4770 70BE            00B4A  9097  1                      BNZ   CBADCHAR
 000ABA 4110 6003/4100_      00003  9098  1                      SETMSG @R6+3,3
 000AC2 58E0 72E4/0DEE       00D70  9114  1                      VCALL CHARCHKA
 000AC8 4770 70BE            00B4A  9118  1                      BNZ   CBADCHAR
 000ACC                             9119                       END
                                    9123                       ¿þþþþþþþþþþþþþþþþþþþþþþþþþþþþþþþþþþþþþÜ
                                    9124                       Ÿ  Allow "uuu$gg" for compatibility.  Ÿ
                                    9125                       ¾þþþþþþþþþþþþþþþþþþþþþþþþþþþþþþþþþþþþþ»
 000ACC 7044/47F0 706E_00ACC 00AA8  9126                       ELSEIF (@R6+3,EQ,'$'),BEGIN  uuu$gg...
 000AD8 1816/4100 0003              9151  1                      SETMSG @R6,3
 000ADE 58E0 72E4/0DEE       00D70  9167  1                      VCALL CHARCHKA
 000AE4 4770 70BE            00B4A  9171  1                      BNZ   CBADCHAR
 000AE8 4110 6004/4100_      00004  9172  1                      SETMSG @R6+4,2
 000AF0 58E0 72E4/0DEE       00D70  9188  1                      VCALL CHARCHKA
 000AF6 4770 70BE            00B4A  9192  1                      BNZ   CBADCHAR
 000AFA                             9193                       END
                                    9197
 000AFA 7072/47F0 707E_00AFA 00AD6  9198                       ELSEIF (@R6+3,EQ,'.'),BEGIN  Close, but wrong...
 000B06 47F0 70F0            00B7C  9223  1                      B     CBADFRMT
 000B0A                             9224                       END
                                    9228
 000B0A 7082/47F0 7086 00B0A 00B04  9229                       ELSE BEGIN                Totally wrong...
 000B0E 47F0 708C            00B18  9240  1                      B     CBADACCT
 000B12                             9241                       END
                                    9245
                                    9246                       COMMENT                   OK ACCOUNTS FALL THRU HERE
 000B12 1BFF                        9247                       CLEAR R15                 ACCOUNT OK
 000B14 47F0 7118            00BA4  9251                       B CACCDONE
                                    9252
 000B18                             9253              CBADACCT LABEL ,
 000B18 58E0 B08C/581E_      0008C  9255                       SCTOK
 000B26 5820 B08C/58E0_      0008C  9264                       SCSEG (R1),(R0)
 000B30 4110 72E8/4100_      00D74  9282                       SCSEG ': invalid account.  '
 000B42 58F0 72D4            00D60  9294                       L     R15,=F'-4'
 000B46 47F0 7118            00BA4  9295                       B     CACCDONE
                                    9296
 000B4A                             9297              CBADCHAR LABEL ,
1OPT      (OPT2025) (12:50) (15MAR04) Account Scan Table                                                                    Page   17
0Current Usings:  (*,R7) (CP,R11) (CV,R12)
0Loc    Object Code    Addr1 Addr2  Stmt Lv Lineno    Source Statement           (Hibal 5, Asmedit 3.3)  HLASM R4.0  2004/03/15 12.50
+___    ______ ____    _____ _____  ____ __ ______    ______ _________
0000B4A 58E0 B08C/581E_      0008C  9299                       SCTOK
 000B58 5820 B08C/58E0_      0008C  9308                       SCSEG (R1),(R0)
 000B62 4110 730A/4100_      00D96  9326                       SCSEG ': invalid characters in account.  '
 000B74 58F0 72D4            00D60  9338                       L R15,=F'-4'
 000B78 47F0 7118            00BA4  9339                       B CACCDONE
                                    9340
 000B7C                             9341              CBADFRMT LABEL ,
 000B7C 58E0 B08C/581E_      0008C  9343                       SCTOK
 000B8A 4110 7372/4100_      00DFE  9352                       SCSEG 'Account must be specified in "gg.uuu" format.  '
 000B9C 58F0 72D4            00D60  9364                       L     R15,=F'-4'
 000BA0 47F0 7118            00BA4  9365                       B     CACCDONE
                                    9366
 000BA4                             9367              CACCDONE LABEL ,
 000BA4 18D8/9808 D004_             9369                       PEND
 DROP   *,R7
1OPT      (OPT2025) (12:50) (15MAR04) Account Scan Table                                                                    Page   18
0Current Usings:  (CP,R11) (CV,R12)
0Loc    Object Code    Addr1 Addr2  Stmt Lv Lineno    Source Statement           (Hibal 5, Asmedit 3.3)  HLASM R4.0  2004/03/15 12.50
+___    ______ ____    _____ _____  ____ __ ______    ______ _________
0                                   9390              *
                                    9391              *  scan user
                                    9392              *
 000BB2 50E0 D000/9008_      00000  9393              SCNUSER  PROC  ,
 USING  *,R7
 000BCC 5810 B08C/4111_      0008C  9432                       SCUPTOK R1
 000BD4 5900 71BC/4770_      00D88  9436                       IF    ((R0,EQ,1),AND,(@R1,EQ,'&&')),'SETMSG CPSUSER'
 000BEE 5900 71C0/4780_      00D8C  9487                       IF    (R0,NE,3),BEGIN
 000BF6 5820 B08C/58E0_      0008C  9504  1                      SCSEG (R1),(R0)
 000C00 4110 713C/4100_      00D08  9522  1                      SCSEG ': invalid user. '
 000C12 58F0 7194            00D60  9534  1                      L     R15,=F'-4'
 000C16                             9535                       END
 000C16 704E/47F0 7084 00C16 00BF4  9539                       ELSE  BEGIN
 000C1A 58E0 71A4/0DEE       00D70  9550  1                      VCALL CHARCHKA
 000C20 4780 7078            00C44  9554  1                      IF    NZ,BEGIN
 000C24 5820 B08C/58E0_      0008C  9565  2                        SCSEG (R1),(R0)
 000C2E 4110 714C/4100_      00D18  9583  2                        SCSEG ': invalid characters in user-id.'
 000C40 58F0 7194            00D60  9595  2                        L     R15,=F'-4'
 000C44                             9596  1                      END
 000C44 707C/47F0 7084 00C44 00C22  9600  1                      ELSE  BEGIN
 000C48 D202 BC48 1000 00C48 00000  9611  2                        MVC   CPCUSER,@R1
 000C4E 1BFF                        9612  2                        CLEAR R15
 000C50                             9616  1                      END
 000C50                             9620                       END
 000C50 18D8/9808 D004_             9624                       PEND
 DROP   *,R7
                                    9644              *
                                    9645              *   scan group
                                    9646              *
 000C5E 50E0 D000/9008_      00000  9647              SCNGRP   PROC  ,
 USING  *,R7
 000C78 5810 B08C/4111_      0008C  9686                       SCUPTOK R1
 000C80 5900 7110/4770_      00D88  9690                       IF    ((R0,EQ,1),AND,(@R1,EQ,'@')),'SETMSG CPSGRP'
 000C98 5900 7118/4780_      00D90  9741                       IF    (R0,NE,2),BEGIN
 000CA0 5820 B08C/58E0_      0008C  9758  1                      SCSEG (R1),(R0)
 000CAA 4110 71B6/4100_      00E2E  9776  1                      SCSEG ': invalid group. '
 000CBC 58F0 70E8            00D60  9788  1                      L     R15,=F'-4'
 000CC0                             9789                       END
 000CC0 704C/47F0 7082 00CC0 00C9E  9793                       ELSE  BEGIN
 000CC4 58E0 70F8/0DEE       00D70  9804  1                      VCALL CHARCHKA
 000CCA 4780 7076            00CEE  9808  1                      IF    NZ,BEGIN
 000CCE 5820 B08C/58E0_      0008C  9819  2                        SCSEG (R1),(R0)
 000CD8 4110 71C7/4100_      00E3F  9837  2                        SCSEG ': invalid characters in group. '
 000CEA 58F0 70E8            00D60  9849  2                        L     R15,=F'-4'
 000CEE                             9850  1                      END
 000CEE 707A/47F0 7082 00CEE 00CCC  9854  1                      ELSE  BEGIN
 000CF2 D201 BC4B 1000 00C4B 00000  9865  2                        MVC   CPCGRP,@R1
 000CF8 1BFF                        9866  2                        CLEAR R15
 000CFA                             9870  1                      END
 000CFA                             9874                       END
 000CFA 18D8/9808 D004_             9878                       PEND
 DROP   *,R7
1OPT      (OPT2025) (12:50) (15MAR04) Account Scan Table                                                                    Page   19
0Current Usings:  (CP,R11) (CV,R12)
0Loc    Object Code    Addr1 Addr2  Stmt Lv Lineno    Source Statement           (Hibal 5, Asmedit 3.3)  HLASM R4.0  2004/03/15 12.50
+___    ______ ____    _____ _____  ____ __ ______    ______ _________
0                                   9899                       QLTORG
1OPT      (OPT2025) (12:50) (15MAR04) Editing Command Scan Tables                                                           Page   20
0Current Usings:  (CP,R11) (CV,R12)
0Loc    Object Code    Addr1 Addr2  Stmt Lv Lineno    Source Statement           (Hibal 5, Asmedit 3.3)  HLASM R4.0  2004/03/15 12.50
+___    ______ ____    _____ _____  ____ __ ______    ______ _________
0                                   9941                       ¿þþþþþþþþþþþþþþþþþþþþþþþþþþþÜ
                                    9942                       Ÿ  list/number/etc options  Ÿ
                                    9943                       ¾þþþþþþþþþþþþþþþþþþþþþþþþþþþ»
 000E64 50E0 D000/9008_      00000  9944              LTNPSH   XPUSHRTN LTNKWS           LIST OPTIONS
 USING  *,R7
 DROP   *,R7
                                   10012
 000E9A 50E0 D000/9008_      00000 10013              LISTPSH  XPUSHRTN LISTKWS          LIST/NOLIST OPTIONS
 USING  *,R7
 DROP   *,R7
                                   10081
 000ED0 50E0 D000/9008_      00000 10082              TEXTPSH  XPUSHRTN TEXTKWS          NOTEXT OPTIONS
 USING  *,R7
 DROP   *,R7
                                   10150
 000F06 50E0 D000/9008_      00000 10151              RNUMPSH  XPUSHRTN RNUMKWS          NUMBER OPTIONS
 USING  *,R7
 DROP   *,R7
                                   10219
 000F3C 50E0 D000/9008_      00000 10220              NUMPSH   XPUSHRTN NUMKWS           NUMBER OPTIONS
 USING  *,R7
 DROP   *,R7
                                   10288
 000F72 50E0 D000/9008_      00000 10289              CASEPSH  XPUSHRTN CASEKWS          CASE (UPPER/LOWER) OPTIONS
 USING  *,R7
 DROP   *,R7
                                   10357
 000FA8 50E0 D000/9008_      00000 10358              LENPSH   XPUSHRTN LENKWS           LENGTH OPTIONS
 USING  *,R7
 DROP   *,R7
                                   10426
 000FDE 50E0 D000/9008_      00000 10427              VERPSH   XPUSHRTN VERKWS           VERIFY OPTIONS
 USING  *,R7
 DROP   *,R7
                                   10495
1OPT      (OPT2025) (12:50) (15MAR04) Editing Command Scan Tables                                                           Page   21
0Current Usings:  (CP,R11) (CV,R12)
0Loc    Object Code    Addr1 Addr2  Stmt Lv Lineno    Source Statement           (Hibal 5, Asmedit 3.3)  HLASM R4.0  2004/03/15 12.50
+___    ______ ____    _____ _____  ____ __ ______    ______ _________
0                                  10497              *
                                   10498              *  pushed tables
                                   10499              *
 001014 4040404040404040_          10500              LTNKWS   SCKW  ,LISTPSH,PUSH
 00103C 4040404040404040_          10515                       SCKW  ,TEXTPSH,PUSH
 001064 4040404040404040_          10530                       SCKW  ,NUMPSH,PUSH
 00108C 4040404040404040_          10545                       SCKW  ,,END
                                   10560                       ¿þþþþþþþþþþþþþþþþþþþÜ
                                   10561                       Ÿ  list/nolist prt  Ÿ
                                   10562                       ¾þþþþþþþþþþþþþþþþþþþ»
 0010B4 D3C9E2E340404040_          10563              LISTKWS  SCKW  LIST,SCNLIST,A
 0010DC D5D6D3C9E2E34040_          10578                       SCKW  NOLIST,SCNNLST,A
 001104 D540404040404040_          10593                       SCKW  N,SCNNLST
 00112C 4040404040404040_          10608                       SCKW  ,,END
                                   10623                       ¿þþþþþþþþþþþþþþÜ
                                   10624                       Ÿ  notext prt  Ÿ
                                   10625                       ¾þþþþþþþþþþþþþþ»
 001154 D5D6E3C5E7E34040_          10626              TEXTKWS  SCKW  NOTEXT,SCNNTEX,(A,END)
                                   10641                       ¿þþþþþþþþþþþþþþþþÜ
                                   10642                       Ÿ  numbered prt  Ÿ
                                   10643                       ¾þþþþþþþþþþþþþþþþ»
 00117C D9D5E4D4C2C5D9C5_          10644              RNUMKWS  SCKW  RNUMBERED,SCNRNUM,A
 0011A4 D5E4D4C2C5D9C5C4_          10659              NUMKWS   SCKW  NUMBERED,SCNNUM,A
 0011CC E4D5D5E4D4C2C5D9_          10674                       SCKW  UNNUMBERED,SCNUNUM,A
 0011F4 D5D6D5E4D4C2C5D9_          10689                       SCKW  NONUMBERED,SCNONUM,A
 00121C C9D5E3C5C7C5D940_          10704                       SCKW  INTEGER,SCNINT,A
 001244 4040404040404040_          10719                       SCKW  ,,END
                                   10734                       ¿þþþþþþþþþþþþþþþþþþþþþþþþþþÜ
                                   10735                       Ÿ  case (upper/uplow) prt  Ÿ
                                   10736                       ¾þþþþþþþþþþþþþþþþþþþþþþþþþþ»
 00126C E4D7D7C5D9404040_          10737              CASEKWS  SCKW  UPPER,SCNUPP,A
 001294 E4D7D3D6E6404040_          10752                       SCKW  UPLOW,SCNUPL,A
 0012BC 4040404040404040_          10767                       SCKW  ,,END
                                   10782                       ¿þþþþþþþþþþþþþþÜ
                                   10783                       Ÿ  length prt  Ÿ
                                   10784                       ¾þþþþþþþþþþþþþþ»
 0012E4 D5D6D3C5D5C7E3C8_          10785              LENKWS   SCKW  NOLENGTH,SCNNOLEN,A
 00130C D3C5D5C7E3C84040_          10800                       SCKW  LENGTH,SCNLEN,(A,P,PI),&LINESZ
 001334 4040404040404040_          10815                       SCKW  ,,END
                                   10830                       ¿þþþþþþþþþþþþþþÜ
                                   10831                       Ÿ  verify prt  Ÿ
                                   10832                       ¾þþþþþþþþþþþþþþ»
 00135C E5C5D9C9C6E84040_          10833              VERKWS   SCKW  VERIFY,SCNVER,A
 001384 D5D6E5C5D9C9C6E8_          10848                       SCKW  NOVERIFY,SCNNVER,A
 0013AC 4040404040404040_          10863                       SCKW  ,,END
1OPT      (OPT2025) (12:50) (15MAR04) Editing Command Scan Tables                                                           Page   22
0Current Usings:  (CP,R11) (CV,R12)
0Loc    Object Code    Addr1 Addr2  Stmt Lv Lineno    Source Statement           (Hibal 5, Asmedit 3.3)  HLASM R4.0  2004/03/15 12.50
+___    ______ ____    _____ _____  ____ __ ______    ______ _________
00013D4 50E0 D000/9008_      00000 10879              SCNLIST  DPROC ,
 USING  *,R7
 0013EE 94DF BD54      00D54       10919                       CLEAR CPLFLG5.CPFNLST
 0013F2 18D8/9808 D004_            10927                       PEND  ,
 DROP   *,R7
                                   10947
 001400 50E0 D000/9008_      00000 10948              SCNNLST  DPROC ,
 USING  *,R7
 00141A 9620 BD54      00D54       10988                       SET   CPLFLG5.CPFNLST
 00141E 18D8/9808 D004_            10995                       PEND  ,
 DROP   *,R7
                                   11015
 00142C 50E0 D000/9008_      00000 11016              SCNNTEX  DPROC ,
 USING  *,R7
 001446 941F BD54      00D54       11056                       NI    CPLFLG5,255-CPFNONUM-CPFNLST  reset options & list
 00144A 9650 BD54      00D54       11057                       OI    CPLFLG5,CPFNTEX+CPFFOPT  turn on notext flag
 00144E 18D8/9808 D004_            11058                       PEND  ,
 DROP   *,R7
                                   11078
 00145C 50E0 D000/9008_      00000 11079              SCNONUM  DPROC ,
 USING  *,R7
 001476 96D0 BD54      00D54       11119                       SET   CPLFLG5.CPFNONUM*CPFFOPT
 00147A 18D8/9808 D004_            11129                       PEND  ,
 DROP   *,R7
                                   11149
 001488 50E0 D000/9008_      00000 11150              SCNUNUM  DPROC ,
 USING  *,R7
 0014A2 943F BD54      00D54       11190                       CLEAR CPLFLG5.CPFNONUM
 0014A6 9690 BD54      00D54       11198                       SET   CPLFLG5.CPFUNUM+CPFFOPT
 0014AA 18D8/9808 D004_            11208                       PEND  ,
 DROP   *,R7
                                   11228
 0014B8 50E0 D000/9008_      00000 11229              SCNRNUM  DPROC ,
 USING  *,R7
 0014D2 943F BD54      00D54       11269                       CLEAR CPLFLG5.CPFNONUM
 0014D6 9608 BC79/9610_00C79       11277                       SET   CPNFRNUM,CPLFLG5.CPFFOPT
 0014DE 18D8/9808 D004_            11288                       PEND  ,
 DROP   *,R7
                                   11308
 0014EC 50E0 D000/9008_      00000 11309              SCNNUM   DPROC ,
 USING  *,R7
 001506 943F BD54/94F7_00D54       11349                       CLEAR CPLFLG5.CPFNONUM,CPNFRNUM
 00150E 9610 BD54      00D54       11362                       SET   CPLFLG5.CPFFOPT
 001512 18D8/9808 D004_            11369                       PEND  ,
 DROP   *,R7
                                   11389
 001520 50E0 D000/9008_      00000 11390              SCNINT   PROC  ,
 USING  *,R7
 00153A 9608 BD54      00D54       11429                       SET   CPLFLG5.CPNFINT
 00153E 9110 BD54/4710_00D54       11436                       IF    ~CPLFLG5.CPFFOPT,BEGIN If no option
 001546 943F BD54      00D54       11452  1                      NI    CPLFLG5,255-CPFNONUM  no, turn on numbered
 00154A 9610 BD54      00D54       11453  1                      SET   CPLFLG5.CPFFOPT     Set option given
 00154E                            11460                       END
 00154E 1BFF                       11464                       CLEAR R15
1OPT      (OPT2025) (12:50) (15MAR04) Editing Command Scan Tables                                                           Page   23
0Current Usings:  (CP,R11) (CV,R12)
0Loc    Object Code    Addr1 Addr2  Stmt Lv Lineno    Source Statement           (Hibal 5, Asmedit 3.3)  HLASM R4.0  2004/03/15 12.50
+___    ______ ____    _____ _____  ____ __ ______    ______ _________
0001550 18D8/9808 D004_            11468                       PEND  ,
 DROP   *,R7
                                   11488
 00155E 50E0 D000/9008_      00000 11489              SCNUPP   DPROC ,
 USING  *,R7
 001578 9630 BD57      00D57       11529                       SET   CPFCASE+CPFUPPER
 00157C 18D8/9808 D004_            11538                       PEND  ,
 DROP   *,R7
                                   11558
 00158A 50E0 D000/9008_      00000 11559              SCNUPL   DPROC ,
 USING  *,R7
 0015A4 9620 BD57/94EF_00D57       11599                       SET   CPFCASE,(CPFUPPER,OFF)
 0015AC 18D8/9808 D004_            11610                       PEND  ,
 DROP   *,R7
                                   11630
 0015BA 50E0 D000/9008_      00000 11631              SCNNOLEN DPROC ,
 USING  *,R7
 0015D4 41F0 00EB            000EB 11671                       LA    R15,&LINESZ
 0015D8 40F0 BC52            00C52 11672                       STH   R15,CPLLEN
 0015DC 1BFF                       11673                       CLEAR R15
 0015DE 18D8/9808 D004_            11677                       PEND  ,
 DROP   *,R7
                                   11697
 0015EC 50E0 D000/9008_      00000 11698              SCNLEN   DPROC ,
 USING  *,R7
 001606 4000 BC52            00C52 11738                       STH   R0,CPLLEN
 00160A 18D8/9808 D004_            11739                       PEND  ,
 DROP   *,R7
                                   11759
 001618 50E0 D000/9008_      00000 11760              SCNVER   DPROC ,
 USING  *,R7
 001632 9620 BD58      00D58       11800                       SET   CPFVER
 001636 18D8/9808 D004_            11806                       PEND  ,
 DROP   *,R7
                                   11826
 001644 50E0 D000/9008_      00000 11827              SCNNVER  DPROC ,
 USING  *,R7
 00165E 94DF BD58      00D58       11867                       CLEAR CPFVER
 001662 18D8/9808 D004_            11874                       PEND  ,
 DROP   *,R7
1OPT      (OPT2025) (12:50) (15MAR04) Editing Command Scan Tables                                                           Page   24
0Current Usings:  (CP,R11) (CV,R12)
0Loc    Object Code    Addr1 Addr2  Stmt Lv Lineno    Source Statement           (Hibal 5, Asmedit 3.3)  HLASM R4.0  2004/03/15 12.50
+___    ______ ____    _____ _____  ____ __ ______    ______ _________
0                                  11895                       ¿þþþþþþþþþþþþþþþþþÜ
                                   11896                       Ÿ  columns stuff  Ÿ
                                   11897                       ¾þþþþþþþþþþþþþþþþþ»
 001670 50E0 D000/9008_      00000 11898              COLSPSH  XPUSHRTN COLSKWS
 USING  *,R7
 DROP   *,R7
                                   11966              *
                                   11967              *  columns=x(/y)
                                   11968              *
                                   11969              *  CHECK OUT COLS SCAN PRIMITIVE,,, !
                                   11970              *
 0016A8 C3D6D3E4D4D5E240_          11971              COLSKWS  SCKW  COLUMNS,SCNCOLS,(A,V(MPCOLS))
 0016D0 C3D6D3E240404040_          11986                       SCKW  COLS,SCNCOLS,(A,V(MPCOLS))
 0016F8 4040404040404040_          12001                       SCKW  ,,END
-                                  12017              *
                                   12018              *   SAVE COL1 AND COL2 ,,, AS FOLLOWS
                                   12019              *
 001720 50E0 D000/9008_      00000 12020              SCNCOLS  PROC  ,
 USING  *,R7
 00173A 0600                       12059                       DECR  R0                  ZERO BIAS FIRST COLUMN
 00173C 4000 BC4E            00C4E 12061                       STH   R0,CPFCOL
 001740 1211/4770 7010             12062                       IF    (R1,Z),BEGIN        DEFAULT SECOND COLUMN TO &LINESZ
 001746 4110 00EB            000EB 12076  1                      LA    R1,&LINESZ
 00174A                            12077                       END
 00174A 4010 BC50            00C50 12081                       STH   R1,CPLCOL
 00174E 18D8/9808 D004_            12082                       PEND
 DROP   *,R7
1OPT      (OPT2025) (12:50) (15MAR04) Editing Command Scan Tables                                                           Page   25
0Current Usings:  (CP,R11) (CV,R12)
0Loc    Object Code    Addr1 Addr2  Stmt Lv Lineno    Source Statement           (Hibal 5, Asmedit 3.3)  HLASM R4.0  2004/03/15 12.50
+___    ______ ____    _____ _____  ____ __ ______    ______ _________
0                                  12103                       QLTORG
1OPT      (OPT2025) (12:50) (15MAR04) Editing Command Scan Tables                                                           Page   26
0Current Usings:  (CP,R11) (CV,R12)
0Loc    Object Code    Addr1 Addr2  Stmt Lv Lineno    Source Statement           (Hibal 5, Asmedit 3.3)  HLASM R4.0  2004/03/15 12.50
+___    ______ ____    _____ _____  ____ __ ______    ______ _________
0                                  12126              *
                                   12127              **
                                   12128              **  SCAN COLLECT OPTIONS
                                   12129              **
                                   12130              **
                                   12131              *
 001788 50E0 D000/9008_      00000 12132              COLLPSH  XPUSHRTN COLLKWS
 USING  *,R7
 DROP   *,R7
                                   12200
 0017C0 C3D6D3D3C5C3E340_          12201              COLLKWS  SCKW  COLLECT,SCNCOL,A
 0017E8 4040404040404040_          12216                       SCKW  ,V(SCNNOOP),A(MCOLOPTS)
 001810 4040404040404040_          12231                       SCKW  ,,END
                                   12246
 001838 50E0 D000/9008_      00000 12247              SCNCOL   PROC  ,
 USING  *,R7
                                   12286
                                   12287                       COMMENT                   ENTRANCE EXAMS
 001852 D604 B3B4 B3B4_003B4 003B4 12288                       IF    (CPSACCT,Z),BEGIN
 00185C 4110 75E6/4100_      01E38 12304  1                      SCSEG 'Collect option not allowed before logon.'
 00186E 58F0 761A            01E6C 12316  1                      L     R15,=F'-4'
 001872 47F0 70C2            01914 12317  1                      B     SCOLDONE
 001876                            12318                       END
 001876 9104 B149/47E0_00149       12322                       IF    CPOFNCHG,BEGIN      ACTIVE file mods blocked...
 00187E 4110 764A/4100_      01E9C 12337  1                      SCSEG 'ACTIVE file changes blocked by ORVYL program.'
 001890 58F0 761A            01E6C 12349  1                      L     R15,=F'-4'
 001894 47F0 70C2            01914 12350  1                      B     SCOLDONE
 001898                            12351                       END
                                   12355
                                   12356                       COMMENT                   SCAN FOR OPTIONAL COLLECT LINENO
 001898 9680 BD55      00D55       12357                       SET   CPFDUMP             Route output to active file
                                   12363              *        VCALL BLNKTOK   DEBUG     Blank token if wanted   ???
 00189C 58E0 B08C/D2AF_      0008C 12364                       SCPUSH
 0018AA 5810 B08C/1B00_      0008C 12370                       SCAN  COLLN
 0018FC 59F0 7626/4780_      01E78 12402                       IF    (R15,NE,4),BEGIN    IF NOT FOUND, RESTORE SCAN
 001904 58E0 B08C/4BD0_      0008C 12419  1                      SCPOP
 001912                            12425                       END
 001912 1BFF                       12429                       CLEAR R15
 001914                            12433              SCOLDONE LABEL ,
 001914 18D8/9808 D004_            12435                       PEND
 DROP   *,R7
                                   12455
 001924 4040404040404040_          12456              COLLN    SCKW  ,CNOLINE,NULL
 00194C 4040404040404040_          12471                       SCKW  ,COLLINE,SYMLN
 001974 4040404040404040_          12486                       SCKW  ,CNOLINE,(END,DONTBLANK)       DEBUG DONTBLANK
                                   12501
 00199C 50E0 D000/9008_      00000 12502              CNOLINE  PROC  ,
 USING  *,R7
 0019B6 9280 BC68      00C68       12541                       MVI   CPDMPLST,X'80'      No lineno yet
 0019BA D203 B5A8 74C6 005A8 01E7C 12542                       MVC   CPACLNO,=F'-1000'   No current lineno
 0019C0 41F0 0008            00008 12543                       LA    R15,8
 0019C4 18D8/9808 D004_            12544                       PEND
 DROP   *,R7
                                   12564
1OPT      (OPT2025) (12:50) (15MAR04) Editing Command Scan Tables                                                           Page   27
0Current Usings:  (*,R7) (CP,R11) (CV,R12)
0Loc    Object Code    Addr1 Addr2  Stmt Lv Lineno    Source Statement           (Hibal 5, Asmedit 3.3)  HLASM R4.0  2004/03/15 12.50
+___    ______ ____    _____ _____  ____ __ ______    ______ _________
00019D2 50E0 D000/9008_      00000 12565              COLLINE  PROC  ,
 USING  *,R7
 0019EC 9680 BD57      00D57       12604                       SET   CPLCOLXP
 0019F0 5000 BC68            00C68 12610                       ST    R0,CPDMPLST
 0019F4 5010 BC6C            00C6C 12611                       ST    R1,CPDMPDLT
                                   12612              *        VCALL BLNKTOK            ??? HELP FIX  DEBUG
 0019F8 41F0 0004            00004 12613                       LA    R15,4
 0019FC 18D8/9808 D004_            12614                       PEND
 DROP   *,R7
                                   12634              *
                                   12635              *  MCOLOPTS ,,,, MATCH IF COLLECT OPTION
                                   12636              *
                                   12637              *  NOTE: THIS ROUTINE WILL NOT ONLY MATCH BUT WILL DO
                                   12638              *  PROCESSING.  THUS PROCESSING ROUTINE IS ONLY A NOOP.
                                   12639              *
 001A0A 50E0 D000/9008_      00000 12640              MCOLOPTS PROC ,
 USING  *,R7
                                   12679
 001A24 9180 BD55/47E0_00D55       12680                       IF    CPFDUMP,BEGIN
 001A2C 58E0 B08C/D2AF_      0008C 12695  1                      SCPUSH ,
 001A3A 58E0 B08C/58FE_      0008C 12701  1                      SCBKUP
                                   12757  1                      COMMENT                   DEBUG,,, NOBLANK WHAT HOW WHERE
 001A70 5810 B08C/1B00_      0008C 12758  1                      SCAN  CHKKWS
 001AC2 12FF/47B0 70A4             12790  1                      IF    (R15,NEG),BEGIN     IF ERROR, ,,
 001AC8                            12804  1                      END
 001AC8 70A8/47F0 70B2_01AC8 01AC6 12808  1                      ELSEIF (R15,EQ,4),BEGIN   IF COLLECT OPTION MATCH, ,,
 001AD4 1BFF                       12834  2                        CLEAR R15
 001AD6                            12838  1                      END
 001AD6 70B6/47F0 70D0_01AD6 01AD2 12842  1                      ELSEIF (R15,NE,4),BEGIN   IF NOT A MATCH, ,,
 001AE2 58E0 B08C/4BD0_      0008C 12868  2                        SCPOP
 001AF0 41F0 0004            00004 12874  2                        LA    R15,4
 001AF4                            12875  1                      END
 001AF4                            12879                       END
                                   12883
 001AF4 70D4/47F0 70D8 01AF4 01A2A 12884                       ELSE  BEGIN ,             NOT CPFDUMP
 001AF8 41F0 0004            00004 12895  1                      LA    R15,4
 001AFC                            12896                       END
                                   12900
 001AFC 18D8/9808 D004_            12901                       PEND
 DROP   *,R7
                                   12921
 001B0C 4040404040404040_          12922              CHKKWS   SCKW  ,NOTCOPT,NULL
 001B34 C2E8404040404040_          12937                       SCKW  BY,COLBY,(P,LN)        ???
 001B5C C3D3C5C1D9404040_          12952                       SCKW  CLEAR,COLCLR,A
 001B84 C3D3D94040404040_          12967                       SCKW  CLR,COLCLR,A
 001BAC D2C5C5D740404040_          12982                       SCKW  KEEP,COLKEEP,A
 001BD4 D5D6C3D3C5C1D940_          12997                       SCKW  NOCLEAR,COLKEEP,A
 001BFC D5D6C3D3D9404040_          13012                       SCKW  NOCLR,COLKEEP,A
 001C24 E6C1D9D540404040_          13027                       SCKW  WARN,COLWARN,A
 001C4C D5D6E6C1D9D54040_          13042                       SCKW  NOWARN,COLOWRN,A
 001C74 4040404040404040_          13057                       SCKW  ,NOTCOPT
                                   13072
 001C9C 50E0 D000/9008_      00000 13073              COLBY    PROC  ,
 USING  *,R7
1OPT      (OPT2025) (12:50) (15MAR04) Editing Command Scan Tables                                                           Page   28
0Current Usings:  (*,R7) (CP,R11) (CV,R12)
0Loc    Object Code    Addr1 Addr2  Stmt Lv Lineno    Source Statement           (Hibal 5, Asmedit 3.3)  HLASM R4.0  2004/03/15 12.50
+___    ______ ____    _____ _____  ____ __ ______    ______ _________
0001CB6 1200/4770 701C             13112                       IF    (R0,Z),BEGIN
 001CBC 4110 71CE/4100_      01E84 13126  1                      SCSEG '0: invalid. '
 001CCE 58F0 71B6            01E6C 13138  1                      L      R15,=F'-4'
 001CD2                            13139                       END
 001CD2 7020/47F0 703A 01CD2 01CBA 13143                       ELSE  BEGIN
 001CD6 5000 BC6C            00C6C 13154  1                      ST    R0,CPDMPDLT        Collect delta
 001CDA 9180 BC68/47E0_00C68       13155  1                      IF    CPDMPLST.X'80',BEGIN  No collect lineno yet...
 001CE2 58E0 71DA/0DEE       01E90 13171  2                        VCALL ENDLNO              Get END line-number
 001CE8 5000 BC68            00C68 13175  2                        ST    R0,CPDMPLST         Set starting lineno
 001CEC                            13176  1                      END
 001CEC 41F0 0004            00004 13180  1                      LA    R15,4
 001CF0                            13181                       END
 001CF0 18D8/9808 D004_            13185                       PEND
 DROP   *,R7
                                   13205
 001CFE 50E0 D000/9008_      00000 13206              COLCLR   DPROC ,
 USING  *,R7
 001D18 9610 BD55      00D55       13246                       SET   CPFCLEAR
 001D1C 94F7 BD55      00D55       13252                       CLEAR CPFKEEP
 001D20 58E0 B08C/D2AF_      0008C 13259                       SCPUSH ,
 001D2E 58E0 717C/0DEE       01E94 13265                       VCALL CLRTEXT
 001D34 58E0 B08C/4BD0_      0008C 13269                       SCPOP ,
 001D42 41F0 0004            00004 13275                       LA    R15,4
 001D46 18D8/9808 D004_            13276                       PEND
 DROP   *,R7
                                   13296
 001D54 50E0 D000/9008_      00000 13297              COLKEEP  DPROC ,
 USING  *,R7
 001D6E 9608 BD55      00D55       13337                       SET   CPFKEEP
 001D72 94EF BD55      00D55       13343                       CLEAR CPFCLEAR
 001D76 58E0 B08C/D2AF_      0008C 13350                       SCPUSH ,
 001D84 58E0 7126/0DEE       01E94 13356                       VCALL CLRTEXT
 001D8A 58E0 B08C/4BD0_      0008C 13360                       SCPOP ,
 001D98 41F0 0004            00004 13366                       LA    R15,4
 001D9C 18D8/9808 D004_            13367                       PEND  ,
 DROP   *,R7
                                   13387
 001DAA 50E0 D000/9008_      00000 13388              COLOWRN  DPROC ,
 USING  *,R7
 001DC4 9604 BD55      00D55       13428                       SET   CPFNWARN
 001DC8 41F0 0004            00004 13434                       LA    R15,4
 001DCC 18D8/9808 D004_            13435                       PEND  ,
 DROP   *,R7
                                   13455
 001DDA 50E0 D000/9008_      00000 13456              COLWARN  DPROC ,
 USING  *,R7
 001DF4 94FB BD55      00D55       13496                       CLEAR CPFNWARN
 001DF8 41F0 0004            00004 13503                       LA    R15,4
 001DFC 18D8/9808 D004_            13504                       PEND  ,
 DROP   *,R7
                                   13524
 001E0A 50E0 D000/9008_      00000 13525              NOTCOPT  DPROC ,
 USING  *,R7
 001E24 41F0 0008            00008 13565                       LA    R15,8
1OPT      (OPT2025) (12:50) (15MAR04) Editing Command Scan Tables                                                           Page   29
0Current Usings:  (CP,R11) (CV,R12)
0Loc    Object Code    Addr1 Addr2  Stmt Lv Lineno    Source Statement           (Hibal 5, Asmedit 3.3)  HLASM R4.0  2004/03/15 12.50
+___    ______ ____    _____ _____  ____ __ ______    ______ _________
0001E28 18D8/9808 D004_            13566                       PEND
 DROP   *,R7
                                   13586
1OPT      (OPT2025) (12:50) (15MAR04) Editing Command Scan Tables                                                           Page   30
0Current Usings:  (CP,R11) (CV,R12)
0Loc    Object Code    Addr1 Addr2  Stmt Lv Lineno    Source Statement           (Hibal 5, Asmedit 3.3)  HLASM R4.0  2004/03/15 12.50
+___    ______ ____    _____ _____  ____ __ ______    ______ _________
0                                  13588                       QLTORG
1OPT      (OPT2025) (12:50) (15MAR04) Editing Command Scan Tables                                                           Page   31
0Current Usings:  (CP,R11) (CV,R12)
0Loc    Object Code    Addr1 Addr2  Stmt Lv Lineno    Source Statement           (Hibal 5, Asmedit 3.3)  HLASM R4.0  2004/03/15 12.50
+___    ______ ____    _____ _____  ____ __ ______    ______ _________
0                                  13617                       ¿þþþþþþþþþþþþþþþþþþþþþþþÜ
                                   13618                       Ÿ  quiet,, other stuff  Ÿ
                                   13619                       ¾þþþþþþþþþþþþþþþþþþþþþþþ»
 001ECA 50E0 D000/9008_      00000 13620              NOOPTPSH XPUSHRTN NOOPTKWS
 USING  *,R7
 DROP   *,R7
                                   13688
 001F00 50E0 D000/9008_      00000 13689              INTPSH   XPUSHRTN INTKWS
 USING  *,R7
 DROP   *,R7
                                   13757
 001F36 50E0 D000/9008_      00000 13758              QUIETPSH XPUSHRTN QUIETKWS
 USING  *,R7
 DROP   *,R7
                                   13826              *
                                   13827              *
                                   13828              *  push sckws
                                   13829              *
 001F6C 4040404040404040_          13830              NOOPTKWS SCKW  ,V(SCNINVAL)
                                   13845
 001F94 C9D5E3C5D9D5C1D3_          13846              INTKWS   SCKW  INTERNAL,SCNINTRL,A
 001FBC 4040404040404040_          13861                       SCKW  ,,END
                                   13876
 001FE4 D8E4C9C5E3404040_          13877              QUIETKWS SCKW  QUIET,SCNQUIET,A
 00200C 4040404040404040_          13892                       SCKW  ,,END
                                   13907
1OPT      (OPT2025) (12:50) (15MAR04) Editing Command Scan Tables                                                           Page   32
0Current Usings:  (CP,R11) (CV,R12)
0Loc    Object Code    Addr1 Addr2  Stmt Lv Lineno    Source Statement           (Hibal 5, Asmedit 3.3)  HLASM R4.0  2004/03/15 12.50
+___    ______ ____    _____ _____  ____ __ ______    ______ _________
0                                  13909              *
                                   13910              *  routines
                                   13911              *
 002034 50E0 D000/9008_      00000 13912              SCNINTRL DPROC ,
 USING  *,R7
 00204E 9610 BD58      00D58       13952                       SET   CPFINT
 002052 18D8/9808 D004_            13958                       PEND
 DROP   *,R7
                                   13978
 002060 50E0 D000/9008_      00000 13979              SCNQUIET DPROC ,
 USING  *,R7
 00207A 9640 BD55      00D55       14019                       SET   CPFQUIET            don't write msgs
 00207E 18D8/9808 D004_            14025                       PEND  ,
 DROP   *,R7
1OPT      (OPT2025) (12:50) (15MAR04) SCRATCH/CLEAR PRTs                                                                    Page   33
0Current Usings:  (CP,R11) (CV,R12)
0Loc    Object Code    Addr1 Addr2  Stmt Lv Lineno    Source Statement           (Hibal 5, Asmedit 3.3)  HLASM R4.0  2004/03/15 12.50
+___    ______ ____    _____ _____  ____ __ ______    ______ _________
0                                  14046                       ¿þþþþþþþþþþþþþþþþþþþþþþþÜ
                                   14047                       Ÿ  scratch/clear stuff  Ÿ
                                   14048                       ¾þþþþþþþþþþþþþþþþþþþþþþþ»
 00208C 50E0 D000/9008_      00000 14049              SCRPSH   XPUSHRTN SCRKWS
 USING  *,R7
 DROP   *,R7
                                   14117
 0020C2 50E0 D000/9008_      00000 14118              CLSCRPSH XPUSHRTN CLSCRKWS
 USING  *,R7
 DROP   *,R7
                                   14186
 0020F8 50E0 D000/9008_      00000 14187              CLRPSH   XPUSHRTN CLRKWS
 USING  *,R7
 DROP   *,R7
                                   14255              *
                                   14256              *
                                   14257              * sckws
                                   14258              *
 002130 E2C3D9C1E3C3C840_          14259              SCRKWS   SCKW  SCRATCH,SCNSCR,A
 002158 D9C5D7D3C1C3C540_          14274                       SCKW  REPLACE,SCNSCR,A
 002180 4040404040404040_          14289                       SCKW  ,,END
                                   14304              *
                                   14305              * clear/noclear and scratch/noscratch
                                   14306              *
 0021A8 4040404040404040_          14307              CLSCRKWS SCKW  ,SCRPSH,PUSH
 0021D0 C3D3C5C1D9404040_          14322              CLRKWS   SCKW  CLEAR,SCNCLR,A
 0021F8 C3D3D94040404040_          14337                       SCKW  CLR,SCNCLR,A
 002220 D2C5C5D740404040_          14352                       SCKW  KEEP,SCNKEEP,A
 002248 D5D6C3D3C5C1D940_          14367                       SCKW  NOCLEAR,SCNKEEP,A
 002270 D5D6C3D3D9404040_          14382                       SCKW  NOCLR,SCNKEEP,A
 002298 E6C1D9D540404040_          14397                       SCKW  WARN,SCNWARN,A
 0022C0 D5D6E6C1D9D54040_          14412                       SCKW  NOWARN,SCNOWRN,A
 0022E8 4040404040404040_          14427                       SCKW  ,,END
                                   14442              *
                                   14443              *  routines
                                   14444              *
 002310 50E0 D000/9008_      00000 14445              SCNSCR   DPROC ,
 USING  *,R7
 00232A 9640 BD51      00D51       14485                       SET   CPLFLG2.CPFSCRTC
 00232E 18D8/9808 D004_            14492                       PEND  ,
 DROP   *,R7
                                   14512
 00233C 50E0 D000/9008_      00000 14513              SCNCLR   DPROC ,
 USING  *,R7
 002356 9610 BD55      00D55       14553                       SET   CPFCLEAR
 00235A 94F7 BD55      00D55       14559                       CLEAR CPFKEEP
 00235E 18D8/9808 D004_            14566                       PEND  ,
 DROP   *,R7
                                   14586
 00236C 50E0 D000/9008_      00000 14587              SCNKEEP  DPROC ,
 USING  *,R7
 002386 9608 BD55      00D55       14627                       SET   CPFKEEP
 00238A 94EF BD55      00D55       14633                       CLEAR CPFCLEAR
 00238E 18D8/9808 D004_            14640                       PEND  ,
1OPT      (OPT2025) (12:50) (15MAR04) SCRATCH/CLEAR PRTs                                                                    Page   34
0Current Usings:  (CP,R11) (CV,R12)
0Loc    Object Code    Addr1 Addr2  Stmt Lv Lineno    Source Statement           (Hibal 5, Asmedit 3.3)  HLASM R4.0  2004/03/15 12.50
+___    ______ ____    _____ _____  ____ __ ______    ______ _________
0DROP   *,R7
                                   14660
 00239C 50E0 D000/9008_      00000 14661              SCNOWRN  DPROC ,
 USING  *,R7
 0023B6 9604 BD55      00D55       14701                       SET   CPFNWARN
 0023BA 18D8/9808 D004_            14707                       PEND  ,
 DROP   *,R7
                                   14727
 0023C8 50E0 D000/9008_      00000 14728              SCNWARN  DPROC ,
 USING  *,R7
 0023E2 94FB BD55      00D55       14768                       CLEAR CPFNWARN
 0023E6 18D8/9808 D004_            14775                       PEND  ,
 DROP   *,R7
                                   14795
                                   14796                       QLTORG
1OPT      (OPT2025) (12:50) (15MAR04) Line Number Recognition Routine                                                       Page   35
0Current Usings:  (CP,R11) (CV,R12)
0Loc    Object Code    Addr1 Addr2  Stmt Lv Lineno    Source Statement           (Hibal 5, Asmedit 3.3)  HLASM R4.0  2004/03/15 12.50
+___    ______ ____    _____ _____  ____ __ ______    ______ _________
0                                  14816              *
                                   14817              *  LINE NUMBER RECOGNITION ROUTINE DELETED !!,
                                   14818              *  LINE NUMBERS NOW RECOGNIZED BY SCANNER !!
                                   14819              *
                                   14820              *  line numbers (symbolic ones too) are now recognized by
                                   14821              *  by the scanner.  use the SYMLN flag.  (eg SCKW ,ROUTINE,SYMLN ).
                                   14822              *  the processing routine will be entered with R0 - line number,
                                   14823              *  R1 - delta.  go for it.
                                   14824              *
                                   14825              *  what follows are the old LNENOPRT comments.  Remove in 1991.
                                   14826              *
                                   14827              * ----------------------------------------------------------
                                   14828              *
                                   14829              * to use this prt, register r6 must be set to the desired
                                   14830              * return address if a line number is recognized
                                   14831              *
                                   14832              * R0 contains the specified line number on exit
                                   14833              * R1 has a delta that can be used by collect, move and copy
                                   14834              * R15 has return codes to show which way the line no was
                                   14835              * specified.
                                   14836              * R15 -  0 regular line number specified
                                   14837              *        4 first specified
                                   14838              *        8 current specified
                                   14839              *       12 last specified
                                   14840              *       16 end specified
                                   14841              *       20 next specified
                                   14842              *       24 previous specified
                                   14843              *       28 return specified
                                   14844              *       32 ATTN specified
                                   14845              *       36 ABORT specified
                                   14846              *
                                   14847              * after the line number specified has been processed,
                                   14848              * an increment is scanned for and added in if found
                                   14849              * unless cpfnoinc bit is on in cplflg4.
                                   14850              *
                                   14851              *         ENTRY LNENOPRT,LNENOPRN
                                   14852              *LNENOPRT SCKW  F,SCNFRST
                                   14853              *         SCKW  L,SCNLAST
                                   14854              *         SCKW  RETURN,SCNRETN,A
                                   14855              *LNENOPRN SCKW  ,SCNLNENO,LN
                                   14856              *         SCKW  FIRST,SCNFRST,A
                                   14857              *         SCKW  CURRENT,SCNCURR,A
                                   14858              *         SCKW  LAST,SCNLAST,A
                                   14859              *         SCKW  END,SCNEND
                                   14860              *         SCKW  NEXT,SCNNEXT,A
                                   14861              *         SCKW  PREVIOUS,SCNPREV,A
                                   14862              *         SCKW  FBLOCK,SCNFBLK,A
                                   14863              *         SCKW  LBLOCK,SCNLBLK,A
                                   14864              *         SCKW  *,SCNCURR
                                   14865              **IOWA*   SCKW  ATTN,SCNATTN,A
                                   14866              **IOWA*   SCKW  ATTENTION,SCNATTN,A
                                   14867              **IOWA*   SCKW  ABORT,SCNABORT,A
                                   14868              *         SCKW  ,,POP
                                   14869              *         SCKW  ,V(INVALID)
1OPT      (OPT2025) (12:50) (15MAR04) Line Number Recognition Routine                                                       Page   36
0Current Usings:  (CP,R11) (CV,R12)
0Loc    Object Code    Addr1 Addr2  Stmt Lv Lineno    Source Statement           (Hibal 5, Asmedit 3.3)  HLASM R4.0  2004/03/15 12.50
+___    ______ ____    _____ _____  ____ __ ______    ______ _________
0                                  14870              *
                                   14871              *  ROUTINES DELETED
                                   14872              *
1OPT      (OPT2025) (12:50) (15MAR04) Line Number Recognition Routine                                                       Page   37
0Current Usings:  (CP,R11) (CV,R12)
0Loc    Object Code    Addr1 Addr2  Stmt Lv Lineno    Source Statement           (Hibal 5, Asmedit 3.3)  HLASM R4.0  2004/03/15 12.50
+___    ______ ____    _____ _____  ____ __ ______    ______ _________
0                                  14874              ¿þþþþþþþþþþþþþþþþþþþþþþþþþþþþþþþþþþþþþþþþþþþþþþþþþþþþþþþþþþþþþþþþþþþþþÜ
                                   14875              Ÿ                                                                     Ÿ
                                   14876              Ÿ                                                                     Ÿ
                                   14877              Ÿ  ATTNLINE - GET ATTENTION LINE NUMBER                               Ÿ
                                   14878              Ÿ                                                                     Ÿ
                                   14879              Ÿ  ON ENTRY:                                                          Ÿ
                                   14880              Ÿ       SCANCB - POINTS JUST PAST 'ATTN' KEYWORD                      Ÿ
                                   14881              Ÿ                                                                     Ÿ
                                   14882              Ÿ  ON EXIT:                                                           Ÿ
                                   14883              Ÿ       SCANCB - UPDATED                                              Ÿ
                                   14884              Ÿ       R0 - ATTENTION LINE NUMBER                                    Ÿ
                                   14885              Ÿ                                                                     Ÿ
                                   14886              Ÿ                                                                     Ÿ
                                   14887              Ÿ  WE TREAT TWO CASES: 1. IN OLD EXECS A LINE NUMBER                  Ÿ
                                   14888              Ÿ     MUST BE SPECIFIED.  2. IN EXTENDED EXECS A LABEL                Ÿ
                                   14889              Ÿ     MUST BE SPECIFIED.                                              Ÿ
                                   14890              Ÿ                                                                     Ÿ
                                   14891              Ÿ                                                                     Ÿ
                                                      ¾þþþþþþþþþþþþþþþþþþþþþþþþþþþþþþþþþþþþþþþþþþþþþþþþþþþþþþþþþþþþþþþþþþþþþ»
0002414 50E0 D000/9008_      00000 14892              ATTNLINE XPROC ,
 USING  *,R7
                                   14932
 00242E 9180 B758/4710_00758       14933                       IF    ~CPFEXEC,BEGIN
 002436 4110 725C/4100_      0268A 14948  1                      TSEG  'ATTN: invalid. '
 002448 4110 7216/4100_      02644 14966  1                      ERROR 'ATTN option may only be used in EXEC files. '
 002454                            14973                       END
                                   14977
 002454 702A/47F0 709C_02454 02434 14978                       ELSEIF  CPFXOLD,BEGIN     IF OLD,
 002460 4320 BD89            00D89 15002  1                      IC    R2,CPFRDSRC         GET LINENO IS STANDARD (OLD)
 002464 9200 BD89      00D89       15003  1                      CLEAR CPFRDSRC                FASION
 002468 9202 BD89      00D89       15010  1                      SET   CPFRDEXE
 00246C 5810 B08C/1B00_      0008C 15016  1                      SCAN  ATTNLNKW
 0024BE 58E0 724A/0DEE       02678 15048  1                      SCANCHK
 0024C4 1803                       15053  1                      LR    R0,R3
 0024C6 4220 BD89            00D89 15054  1                      STC   R2,CPFRDSRC
 0024CA                            15055                       END
                                   15059
                                   15060                       COMMENT                   IF EXTENDED MODE, LABELS ONLY
                                   15061                       COMMENT
 0024CA 70A0/47F0 710C_024CA 0245E 15062                       ELSEIF CPFXTEND,BEGIN     PROCSSES ATTN = LABEL
 0024D6 58E0 B08C/581E_      0008C 15086  1                      SCINFO
 0024E4 1A01                       15095  1                      AR    R0,R1
 0024E6 9540 1000/4770_00000       15096  1                      WHILE ((@R1,EQ,' '),AND,(R1,LT,R0)),BEGIN    SKIP BLANKS
 0024F4 4111 0001            00001 15128  2                        LA    R1,1(R1)
 0024F8 47F0 70B8            024E6 15129  1                      END
 0024FC 957E 1000/4770_00000       15134  1                      IF    ((@R1,EQ,'='),AND,(R1,LT,R0)),BEGIN    SKIP '='
 00250A 4111 0001            00001 15164  2                        LA    R1,1(R1)
 00250E                            15165  1                      END
 00250E 9540 1000/4770_00000       15169  1                      WHILE ((@R1,EQ,' '),AND,(R1,LT,R0)),BEGIN    SKIP BLANKS
 00251C 4111 0001            00001 15201  2                        LA    R1,1(R1)
 002520 47F0 70E0            0250E 15202  1                      END
 002524 1B01                       15207  1                      SR    R0,R1
 002526 58E0 B08C/501E_      0008C 15208  1                      SCINIT (R1),(R0)
1OPT      (OPT2025) (12:50) (15MAR04) Line Number Recognition Routine                                                       Page   38
0Current Usings:  (*,R7) (CP,R11) (CV,R12)
0Loc    Object Code    Addr1 Addr2  Stmt Lv Lineno    Source Statement           (Hibal 5, Asmedit 3.3)  HLASM R4.0  2004/03/15 12.50
+___    ______ ____    _____ _____  ____ __ ______    ______ _________
0                                  15228  1
 002534 58E0 724E/0DEE       0267C 15229  1                      VCALL LABELLNO            PROCESS LABEL
                                   15233  1                      COMMENT                   RETURNS R0=LABEL LINENO
 00253A                            15234                       END
                                   15238
 00253A 7110/47F0 7112 0253A 024D4 15239                       ELSE  BEGIN               MUST HAVE BEEN ONE OF ABOVE
 00253E 0000                       15250  1                      BOMB
 002540                            15252                       END
                                   15256
 002540 5008 0004            00004 15257                       PRETURN (R0)
 002544 1BFF                       15259                       CLEAR R15
 002546 18D8/9808 D004_            15263                       PEND
 DROP   *,R7
                                   15283              *
                                   15284              *  OLD EXEC ATTN LINE SCANNING, SCKWS ROUTINES
                                   15285              *
 002554 4040404040404040_          15286              ATTNLNKW SCKW  ,NOATTNLN,NULL
 00257C 4040404040404040_          15301                       SCKW  ,GOTALINE,SYMLN
 0025A4 4040404040404040_          15316                       SCKW  ,V(SCNINVAL)
                                   15331
 0025CC 50E0 D000/9008_      00000 15332              NOATTNLN PROC  ,
 USING  *,R7
 0025E6 4110 70B3/4100_      02699 15371                       SCSEG 'Missing attention line number. '
 0025F8 58F0 709E            02684 15383                       L     R15,=F'-4'
 0025FC 18D8/9808 D004_            15384                       PEND
 DROP   *,R7
                                   15404
 00260A 50E0 D000/9008_      00000 15405              GOTALINE PROC  ,
 USING  *,R7
 002624 1830                       15444                       LR    R3,R0
 002626 5038 0010            00010 15445                       PRETURN (R3)
 00262A 41F0 0004            00004 15447                       LA    R15,4
 00262E 18D8/9808 D004_            15448                       PEND
 DROP   *,R7
1OPT      (OPT2025) (12:50) (15MAR04) Line Number Recognition Routine                                                       Page   39
0Current Usings:  (CP,R11) (CV,R12)
0Loc    Object Code    Addr1 Addr2  Stmt Lv Lineno    Source Statement           (Hibal 5, Asmedit 3.3)  HLASM R4.0  2004/03/15 12.50
+___    ______ ____    _____ _____  ____ __ ______    ______ _________
0                                  15469                       QLTORG
1OPT      (OPT2025) (12:50) (15MAR04) Scan Line for EXECUTE and/or FROM                                                     Page   40
0Current Usings:  (CP,R11) (CV,R12)
0Loc    Object Code    Addr1 Addr2  Stmt Lv Lineno    Source Statement           (Hibal 5, Asmedit 3.3)  HLASM R4.0  2004/03/15 12.50
+___    ______ ____    _____ _____  ____ __ ______    ______ _________
0                                  15493              *
                                   15494              * scan line to see if select from active, execute or external
                                   15495              *
                                   15496              * NOTE:
                                   15497              * If nothing set on entry we default to active.
                                   15498              *
 0026B8 50E0 D000/9008_      00000 15499              SCNEX    XPROC ,                   Allow active/exec
 USING  *,R7
 0026D2 9500 BD89/4770_00D89       15539                       IF    (CPFRDSRC,EQ,0),BEGIN  Default to active
 0026DA 9201 BD89      00D89       15557  1                      SET   CPFRDACT
 0026DE                            15563                       END
 0026DE 58E0 B08C/D2AF_      0008C 15567                       SCPUSH
 0026EC 5810 B08C/1B00_      0008C 15573                       SCAN EXKWS
 00273E 58E0 B08C/4BD0_      0008C 15605                       SCPOP ,
 00274C 1BFF                       15611                       CLEAR R15
 00274E 18D8/9808 D004_            15615                       PEND
 DROP   *,R7
                                   15635
 00275C 50E0 D000/9008_      00000 15636              SCNEXFR  XPROC ,                   Allow active/exec/from
 USING  *,R7
 002776 9500 BD89/4770_00D89       15676                       IF    (CPFRDSRC,EQ,0),BEGIN  Default to active
 00277E 9201 BD89      00D89       15694  1                      SET   CPFRDACT
 002782                            15700                       END
 002782 58E0 B08C/D2AF_      0008C 15704                       SCPUSH
 002790 5810 B08C/1B00_      0008C 15710                       SCAN EXFRKWS
 0027E2 58E0 B08C/4BD0_      0008C 15742                       SCPOP ,
 0027F0 1BFF                       15748                       CLEAR R15
 0027F2 18D8/9808 D004_            15752                       PEND
 DROP   *,R7
                                   15772
 002800 C5E7C5C3E4E3C540_          15773              EXKWS    SCKW  EXECUTE,GOTEXEC,A
 002828 C1C3E3C9E5C54040_          15788                       SCKW  ACTIVE,GOTACT,A
 002850 4040404040404040_          15803                       SCKW  ,SKIPIT
                                   15818
 002878 C6D9D6D440404040_          15819              EXFRKWS  SCKW  FROM,GOTFROM,A
 0028A0 C5E7C5C3E4E3C540_          15834                       SCKW  EXECUTE,GOTEXEC,A
 0028C8 C1C3E3C9E5C54040_          15849                       SCKW  ACTIVE,GOTACT,A
 0028F0 4040404040404040_          15864                       SCKW  ,SKIPIT
                                   15879
 002918 50E0 D000/9008_      00000 15880              GOTFROM  PROC  ,
 USING  *,R7
 002932 9203 BD89      00D89       15919                       SET   CPFRDEXT
 002936 D203 BDA0 70DA 00DA0 02A0C 15925                       MVC   CPSEQFLD(4),=H'-1,8'  initialize seqflds
 00293C 9280 BD9C      00D9C       15926                       MVI   CPLRCL,X'80'        Set file type to undefined
 002940 D7FF BE5C BE5C_00E5C 00E5C 15927                       CLEAR (CPDSNWA,DSSIZ)     Clear dsname work area
 00294C 9240 BE5C      00E5C       15935                       MVI   DSNWADSN,C' '       Now blank first part
 002950 D2A8 BE5D BE5C 00E5D 00E5C 15936                       MVC   DSNWADSN+1(DSNWACLR-1),DSNWADSN  of the area
 002956 D727 BE90 BE90 00E90 00E90 15937                       CLEAR DSNON
 00295C 9602 BD50      00D50       15944                       OI    CPLFLG1,CPFDSN1     Set flag for dodsnm init.
 002960 41F0 0004            00004 15945                       LA    R15,4
 002964 18D8/9808 D004_            15946                       PEND
 DROP   *,R7
                                   15966
 002972 50E0 D000/9008_      00000 15967              GOTACT   PROC  ,
1OPT      (OPT2025) (12:50) (15MAR04) Scan Line for EXECUTE and/or FROM                                                     Page   41
0Current Usings:  (*,R7) (CP,R11) (CV,R12)
0Loc    Object Code    Addr1 Addr2  Stmt Lv Lineno    Source Statement           (Hibal 5, Asmedit 3.3)  HLASM R4.0  2004/03/15 12.50
+___    ______ ____    _____ _____  ____ __ ______    ______ _________
0USING  *,R7
 00298C 9201 BD89      00D89       16006                       SET   CPFRDACT
 002990 41F0 0004            00004 16012                       LA    R15,4
 002994 18D8/9808 D004_            16013                       PEND
 DROP   *,R7
                                   16033
 0029A2 50E0 D000/9008_      00000 16034              GOTEXEC  PROC  ,
 USING  *,R7
 0029BC 9202 BD89      00D89       16073                       SET   CPFRDEXE
 0029C0 41F0 0004            00004 16079                       LA    R15,4
 0029C4 18D8/9808 D004_            16080                       PEND
 DROP   *,R7
                                   16100
 0029D2 50E0 D000/9008_      00000 16101              SKIPIT   DPROC ,
 USING  *,R7
 0029EC 18D8/9808 D004_            16141                       PEND
 DROP   *,R7
                                   16161                       QLTORG
1OPT      (OPT2025) (12:50) (15MAR04) DSNSCAN/DODSNM Routines                                                               Page   42
0Current Usings:  (CP,R11) (CV,R12)
0Loc    Object Code    Addr1 Addr2  Stmt Lv Lineno    Source Statement           (Hibal 5, Asmedit 3.3)  HLASM R4.0  2004/03/15 12.50
+___    ______ ____    _____ _____  ____ __ ______    ______ _________
0                                  16180              ¿þþþþþþþþþþþþþþþþþþþþþþþþþþþþþþþþþþþþþþþþþþþþþþþþþþþþþþþþþþþþþþþþþþþþþÜ
                                   16181              Ÿ                                                                     Ÿ
                                   16182              Ÿ  DSNSCAN -- Entered as SCKW routine to process dsname.              Ÿ
                                   16183              Ÿ                                                                     Ÿ
                                                      ¾þþþþþþþþþþþþþþþþþþþþþþþþþþþþþþþþþþþþþþþþþþþþþþþþþþþþþþþþþþþþþþþþþþþþþ»
0002A14 50E0 D000/9008_      00000 16184              DSNSCAN  XPROC ,
 USING  *,R7
 002A2E 58E0 7A72/0DEE       034A0 16224                       ACALL DODSNM
 002A34 1BFF                       16228                       CLEAR R15                 KEEP SCANNING
 002A36 18D8/9808 D004_            16232                       PEND  ,
 DROP   *,R7
                                   16252              * dodsnm takes 1st token found as dsname and handles it.
                                   16253              *
                                   16254              * errors are resolved internally
 000000                00000 00300 16255              DODWA    RECORD BEGIN
 000000                            16263  1           DODSNAME   DS    CL256               DS NAME WORK AREA
 000100                            16264  1           DODSKIPT   DS    CL256
 000200                            16265  1           DODSTOPT   DS    CL256
 000300                00300 00300 16266                       END
                                   16275              *
                                   16276              *
 002A44 50E0 D000/9008_      00000 16277              DODSNM   XPROC DODWA
 USING  *,R7
 USING  DODWA-(4+36),R8
 002A5E 9102 BD50/47E0_00D50       16328                       IF    CPLFLG1.CPFDSN1,BEGIN  This is a re-entry...
 002A66 9240 BE5C      00E5C       16344  1                      MVI   DSNWADSN,X'40'      Blank part of work area
 002A6A D232 BE5D BE5C 00E5D 00E5C 16345  1                      MVC   DSNWADSN+1(DSNWACL2-1),DSNWADSN
 002A70 D701 BF04 BF04_00F04 00F04 16346  1                      CLEAR DSNWLEN,DSNWFILE
 002A7C 9200 BF34      00F34       16358  1                      MVI   DSNWAF1,0           Reset attribute types
 002A80                            16359                       END
                                   16363
 002A80 7026/47F0 7050 02A80 02A64 16364                       ELSE  BEGIN               First time initialization...
 002A84 9602 BD50      00D50       16375  1                      SET   CPLFLG1.CPFDSN1     Set first entry done
 002A88 D203 BDA0 7A46 00DA0 034A4 16382  1                      MVC   CPSEQFLD(4),=H'-1,8'  Initialize seqflds
 002A8E 9280 BD9C      00D9C       16383  1                      MVI   CPLRCL,X'80'        Set file type to undefined
 002A92 D7FF BE5C BE5C_00E5C 00E5C 16384  1                      CLEAR (CPDSNWA,DSSIZ)     Clear dsname work area
 002A9E 9240 BE5C      00E5C       16392  1                      MVI   DSNWADSN,X'40'
 002AA2 D2A8 BE5D BE5C 00E5D 00E5C 16393  1                      MVC   DSNWADSN+1(DSNWACLR-1),DSNWADSN
 002AA8 D727 BE90 BE90 00E90 00E90 16394  1                      CLEAR DSNON
 002AAE                            16401                       END
                                   16405
 002AAE 1B66                       16406                       SR    R6,R6               Zero length counter
 002AB0 4150 BE5C            00E5C 16407                       LA    R5,DSNWADSN         Addr of dsname work area
                                   16408                      ¿þþþþþþþþþþþþþþþþþþþþþþþþþþþþþþþþþþþþþþþþþþþþþþþþþþþþþþþþþþþþþþÜ
                                   16409                      Ÿ  Scan next operand for a dsname.  We save and reset the      Ÿ
                                   16410                      Ÿ     scan skip/stop chars because we want to allow special    Ÿ
                                   16411                      Ÿ     characters in the dsname that would ordinarily stop the  Ÿ
                                   16412                      Ÿ     scan (such as / and -).  Network file names have these   Ÿ
                                   16413                      Ÿ     characters in them.                                      Ÿ
                                   16414                      ¾þþþþþþþþþþþþþþþþþþþþþþþþþþþþþþþþþþþþþþþþþþþþþþþþþþþþþþþþþþþþþþ»
                                   16415              *
                                   16416                       COMMENT                   SCAN DATA SET NAME
                                   16417
1OPT      (OPT2025) (12:50) (15MAR04) DSNSCAN/DODSNM Routines                                                               Page   43
0Current Usings:  (*,R7) (DODWA-(4+36),R8) (CP,R11) (CV,R12)
0Loc    Object Code    Addr1 Addr2  Stmt Lv Lineno    Source Statement           (Hibal 5, Asmedit 3.3)  HLASM R4.0  2004/03/15 12.50
+___    ______ ____    _____ _____  ____ __ ______    ______ _________
0002AB4 58E0 B08C/D203_      0008C 16418                       SCPUSH TABLES
 002ACE 58E0 B08C/41F0_      0008C 16426                       SETSKIP DODSKIPT,' ,='    SET NEW SKIP/STOP CHARS
 002AFC 58E0 B08C/41F0_      0008C 16447                       SETSTOP DODSTOPT,' ,;('
                                   16468
                                   16469                       COMMENT                   SCAN NAME
 002B2A 5810 B08C/1B00_      0008C 16470                       SCAN  ,TABLES=NOPUSH      SCAN NAME
 002B3A 58E0 7A5A/0DEE       034B8 16482                       SCANCHK
 002B40 58E0 B08C/4BD0_      0008C 16487                       SCPOP TABLES
 002B5A 1200/4770 7126             16495                       IF    (R0,Z),BEGIN        IF MISSING NAME, ERROR
 002B60 9110 BD5C/47E0_00D5C       16509  1                      IF    CPFDSNNE,BEGIN
 002B68 D207 B886 79D2 00886 03430 16524  2                        MVC   CPERRID,=CL8'MISSDSN'
 002B6E 47F0 7964            033C2 16525  2                        B     DOERREX
 002B72                            16526  1                      END
 002B72 D207 B886 79D2_00886 03430 16530  1                      ERROR 'Missing data set name.',,MISSDSN
 002B84                            16538                       END
 002B84 954D 1000/4770_00000       16542                       IF    (@R1,EQ,'('),BEGIN  IF '(' IS DSN NAME, ERROR
 002B8C 9110 BD5C/47E0_00D5C       16558  1                      IF    CPFDSNNE,BEGIN
 002B94 D207 B886 79DA 00886 03438 16573  2                        MVC   CPERRID,=CL8'BADDSN'
 002B9A 47F0 7964            033C2 16574  2                        B     DOERREX
 002B9E                            16575  1                      END
 002B9E 4110 7B43/4100_      035A1 16579  1                      ERROR '(: invalid data set name.'
 002BAA                            16586                       END
                                   16590
                                   16591                       COMMENT                   MOVE NAME TO WORK AREA
 002BAA 58E0 0000            00000 16592                       L     R14,R0
 002BAE 06E0/12EE/4740_            16593                       MOVE  R14,DODSNAME,@R1
 002BBA 4110 8028            00000 16631                       LA    R1,DODSNAME
                                   16632
 002BBE 9001 BC9C            00C9C 16633                       STM   R0,R1,CPSAVE        Save scan token ptrs (for later)
                                   16634
                                   16635                       COMMENT                   DEQUOTE APPROPRIATELY
 002BC2 58E0 7A5E/0DEE       034BC 16636                       VCALL DEQUOTE             Dequote if quoted
 002BC8 4740 7172/9610_      02BD0 16640                       IF    NM,'SET DSNWAF1.DSNFQDSN'  Quoted dsname
                                   16663                       ¿þþþþþþþþþþþþþþþþþþþþþþþþþþþþþþþþþþþþþþþþþþþþþþþþþþþþþþþþþþþþÜ
                                   16664                       Ÿ  Save the file name as the user typed it (for network      Ÿ
                                   16665                       Ÿ    files).  This entire data set name scanning code needs  Ÿ
                                   16666                       Ÿ    to be re-coded.                                         Ÿ
                                   16667                       ¾þþþþþþþþþþþþþþþþþþþþþþþþþþþþþþþþþþþþþþþþþþþþþþþþþþþþþþþþþþþþ»
 002BD0 1830                       16668                       LR    R3,R0
 002BD2 5930 7A62/47D0_      034C0 16669                       CEIL  R3,L'DSNWFILE
 002BDE 4030 BF04            00F04 16688                       STH   R3,DSNWLEN          Save file name length
 002BE2 D22B BF08 C4D8 00F08 004D8 16689                       MVC   DSNWFILE,CVBLANKS   Pre-blank
 002BE8 0630/1233/4740_            16690                       MOVE  R3,DSNWFILE,@R1     Save file name (in uplow)
                                   16728
 002BF4 9110 BF34/4710_00F34       16729                       IF    ~DSNWAF1.DSNFQDSN,BEGIN  Not-quoted dsname...
 002BFC 18F0                       16745  1                      LR    R15,R0
 002BFE 58E0 C8A8            008A8 16746  1                      L     R14,CVUPPTBL
 002C02 06F0/12FF/4740_            16747  1                      DTEX  R15,'TR @R1(0),@R14'   Convert to upper case
 002C0E                            16784                       END
                                   16788
                                   16789                       COMMENT                   R4,R3 - LOC LEN OF DSN NAME
 002C0E 1841                       16790                       LR    R4,R1
 002C10 1830                       16791                       LR    R3,R0
1OPT      (OPT2025) (12:50) (15MAR04) DSNSCAN/DODSNM Routines                                                               Page   44
0Current Usings:  (*,R7) (DODWA-(4+36),R8) (CP,R11) (CV,R12)
0Loc    Object Code    Addr1 Addr2  Stmt Lv Lineno    Source Statement           (Hibal 5, Asmedit 3.3)  HLASM R4.0  2004/03/15 12.50
+___    ______ ____    _____ _____  ____ __ ______    ______ _________
0                                  16792                       ¿þþþþþþþþþþþþþþþþþþþþþþþþþþþþþþþþþþþþþþþþþþþþþþþþþþþþþþþþþþþþÜ
                                   16793                       Ÿ  If not quoted, check for "<dev>" and "volume:" prefixes.  Ÿ
                                   16794                       ¾þþþþþþþþþþþþþþþþþþþþþþþþþþþþþþþþþþþþþþþþþþþþþþþþþþþþþþþþþþþþ»
 002C12 9110 BF34/4710_00F34       16795                       IF    ~DSNWAF1.DSNFQDSN,BEGIN  Not quoted dsname...
                                   16811  1                      ¿þþþþþþþþþþþþþþþþþþþþþþþþþþþþþþþþþþþÜ
                                   16812  1                      Ÿ  Check for <device-type> prefix.  Ÿ
                                   16813  1                      ¾þþþþþþþþþþþþþþþþþþþþþþþþþþþþþþþþþþþ»
                                   16814  1         C            IF    ((R3,POS),AND,
 002C1A 1233/47D0 72CC_                   1                            (@R4,EQ,'<')),BEGIN  We have <>...
 002C28 4110 1001            00001 16843  2                        LA    R1,@R1+1            Skip past "<"
 002C2C 0600                       16844  2                        DECR  R0
                                   16846  2
 002C2E 1200/47D0 71E8             16847  2                        WHILE (R0,POS),BEGIN
 002C34 956E 1000/4780_00000       16863  3                          IF    (@R1,EQ,'>'),EXIT   End quote, scram
 002C3C 4110 1001            00001 16882  3                          LA    R1,@R1+1
 002C40 0600                       16883  3                          DECR  R0
 002C42 47F0 71D0            02C2E 16885  2                        END
                                   16890  2
 002C46 1200/4770 7210             16891  2                        IF    (R0,Z),BEGIN
 002C4C 9110 BD5C/4710_00D5C       16905  3                          IF    CPFDSNNE,DOERREX    Error suppression request?
 002C54 4110 7B5C/4100_      035BA 16923  3                          TSEG  'Missing ">" in '
 002C66 1814/1803/47F0_            16941  3                          ABORT (R4),(R3)
 002C6E                            16956  2                        END
                                   16960  2
 002C6E 58E0 B08C/D2AF_      0008C 16961  2                        SCPUSH
                                   16967  2
 002C7C 9001 D000/41D0_      00000 16968  2                        XPUSH R0,R1
                                   16971  2
 002C84 1801                       16972  2                        LR    R0,R1
 002C86 1B04                       16973  2                        SR    R0,R4
 002C88 0600                       16974  2                        DECR  R0                  Length of text inside brackets
 002C8A 4110 4001/58E0_      00001 16976  2                        SCINIT @R4+1,(R0)
                                   16999  2
 002C9C 4BD0 7AB4/9801_      03512 17000  2                        XPOP  R0,R1
 002CA4 4140 1001            00001 17003  2                        LA    R4,@R1+1            Dsname ptr past [dev]
 002CA8 1830                       17004  2                        LR    R3,R0               Dsname length
 002CAA 0630                       17005  2                        DECR  R3
                                   17007  2
 002CAC 5810 B08C/1B00_      0008C 17008  2                        SCAN  DEVPRT
 002CFE 58E0 7A5A/0DEE       034B8 17040  2                        SCANCHK
 002D04 12FF/4780 72BE             17045  2                        IF    (R15,NZ),BEGIN
 002D0A 9110 BD5C/47E0_00D5C       17059  3                          IF    CPFDSNNE,BEGIN
 002D12 47F0 7964            033C2 17074  4                            B     DOERREX
 002D16                            17075  3                          END
 002D16 72BC/47F0 72BE_02D16 02D10 17079  3                          ELSE  ' BOMB '
 002D1C                            17097  2                        END
 002D1C 58E0 B08C/4BD0_      0008C 17101  2                        SCPOP
 002D2A                            17107  1                      END
                                   17111  1                      ¿þþþþþþþþþþþþþþþþþþþþþþþþþþþþþþþþþþþþþÜ
                                   17112  1                      Ÿ  Check for volume:dsname notation.  Ÿ
                                   17113  1                      ¾þþþþþþþþþþþþþþþþþþþþþþþþþþþþþþþþþþþþþ»
                                   17114  1                      COMMENT                   RESET LOC,LEN
 002D2A 1814                       17115  1                      LR    R1,R4
 002D2C 1803                       17116  1                      LR    R0,R3
1OPT      (OPT2025) (12:50) (15MAR04) DSNSCAN/DODSNM Routines                                                               Page   45
0Current Usings:  (*,R7) (DODWA-(4+36),R8) (CP,R11) (CV,R12)
0Loc    Object Code    Addr1 Addr2  Stmt Lv Lineno    Source Statement           (Hibal 5, Asmedit 3.3)  HLASM R4.0  2004/03/15 12.50
+___    ______ ____    _____ _____  ____ __ ______    ______ _________
0                                  17117  1
 002D2E 1200/47D0 738A             17118  1                      WHILE (R0,POS),BEGIN      Scan for a :...
 002D34 957B 1000/4780_00000       17134  2                        IF    ((@R1,EQ,'#'),OR,(@R1,EQ,'(')),EXIT  Scram if member
                                   17168  2
 002D44 957A 1000/4770_00000       17169  2                        IF    (@R1,EQ,':'),BEGIN
 002D4C 18F1                       17185  3                          LR    R15,R1
 002D4E 1BF4                       17186  3                          SR    R15,R4
 002D50 47D0 7354            02DB2 17187  3                          IF    POS,BEGIN
 002D54 D502 7B6B 4000_035C9 00000 17198  4                            IF    (@R4,EQ,'CAT'),'CLEAR R15'  Allow "CAT:"
 002D60 D502 7B6E 4000_035CC 00000 17223  4                            IF    (@R4,EQ,'TEM'),BEGIN  Allow "TEMP:"...
 002D6A 9001 D000/41D0_      00000 17239  5                              XPUSH R0,R1               Exit will wipe R0,R1
 002D72 58E0 7A6E/0DEE       034CC 17242  5                              VCALL EXIT2               Get scratch volser
 002D78 1841                       17246  5                              LR    R4,R1               Copy volser ptr
 002D7A 18F0                       17247  5                              LR    R15,R0              Copy volser length
 002D7C 4BD0 7AB4/9801_      03512 17248  5                              XPOP  R0,R1               Restore R0,R1
 002D84                            17251  4                            END
 002D84 59F0 7A72/47D0_      034D0 17255  4                            CEIL  R15,L'DSNON         Not too long now
                                   17274  4
 002D90 D227 BE90 C4D8 00E90 004D8 17275  4                            MVC   DSNON,CVBLANKS
 002D96 06F0/12FF/4740_            17276  4                            MOVE  R15,DSNON,@R4       Set volume
 002DA2 D527 BE90 C4D8_00E90 004D8 17314  4                            IF    (DSNON,EQ,CVBLANKS),'CLEAR DSNON'
 002DB2                            17344  3                          END
                                   17348  3
 002DB2 4140 1001            00001 17349  3                          LA    R4,@R1+1            Update dsname...
 002DB6 1830                       17350  3                          LR    R3,R0               ...ptrs
 002DB8 0630                       17351  3                          DECR  R3
                                   17353  3
 002DBA 1233/4720 737C             17354  3                          IF    (R3,NP),BEGIN       Null dsname...
 002DC0 D701 BF06 BF06 00F06 00F06 17368  4                            CLEAR DSNWANL             No dsname
 002DC6 D22B BE5C C4D8 00E5C 004D8 17375  4                            MVC   DSNWADSN,CVBLANKS   Nada
 002DCC D707 BE88 BE88 00E88 00E88 17376  4                            CLEAR DSNWAMBR            No member either
 002DD2 947F BF34      00F34       17383  4                            CLEAR DSNWAF1.DSNFSTD     Not a standard file name
 002DD6 47F0 79C0            0341E 17391  4                            B     DSCNEXIT            Scam
 002DDA                            17392  3                          END
                                   17396  3
 002DDA 47F0 738A            02DE8 17397  3                          B     DMORE
 002DDE                            17398  2                        END
                                   17402  2
 002DDE 4110 1001            00001 17403  2                        LA    R1,@R1+1
 002DE2 0600                       17404  2                        DECR  R0
 002DE4 47F0 72D0            02D2E 17406  1                      END
 002DE8                            17411                       END
                                   17415
 002DE8                            17416              DMORE    LABEL ,
                                   17418                       COMMENT                   R4,R3 - LOC, END OF NAME
 002DE8 1A34                       17419                       AR    R3,R4               End of operand +1
                                   17420              *  If 'WYL.' specified treat as full dsname.
 002DEA D503 7A76 4000 034D4 00000 17421                       CLC   =C'WYL.',0(R4)
 002DF0 4780 75C2            03020 17422                       BE    MAINDSN
                                   17423              *  Check for "SYSn." and treat as full dsname.
 002DF4 D502 7B71 4000_035CF 00000 17424                       IF    (@R4,EQ,'SYS'),BEGIN
 002DFE 954B 4004/4770_00004       17440  1                      IF    (@R4+4,NE,'.'),EXIT
 002E06 95F0 4003/4740_00003       17459  1                      IF    ((@R4+3,LT,'0'),OR,(@R4+3,GT,'9')),EXIT
 002E16 47F0 75C2            03020 17493  1                      B     MAINDSN             Ok, treat as full dsname
1OPT      (OPT2025) (12:50) (15MAR04) DSNSCAN/DODSNM Routines                                                               Page   46
0Current Usings:  (*,R7) (DODWA-(4+36),R8) (CP,R11) (CV,R12)
0Loc    Object Code    Addr1 Addr2  Stmt Lv Lineno    Source Statement           (Hibal 5, Asmedit 3.3)  HLASM R4.0  2004/03/15 12.50
+___    ______ ____    _____ _____  ____ __ ______    ______ _________
0002E1A                            17494                       END
                                   17498                       ¿þþþþþþþþþþþþþþþþþþþþþþþþþþþþþþþþþþþþþþþþþþþþþþþþþþþþþþþþþþþþÜ
                                   17499                       Ÿ  For network file names:  If file name begins with % then  Ÿ
                                   17500                       Ÿ    it is a network file.                                   Ÿ
                                   17501                       ¾þþþþþþþþþþþþþþþþþþþþþþþþþþþþþþþþþþþþþþþþþþþþþþþþþþþþþþþþþþþþ»
 002E1A 956C 4000/4770_00000       17502                       IF    (@R4,EQ,'%'),BEGIN  Also a network file name...
 002E22 D627 BE90 BE90_00E90 00E90 17518  1                      IF    (DSNON,Z),BEGIN     No volume...
 002E2C D61F B1BD B1BD_001BD 001BD 17534  2                        IF    (CPHOST,Z),BEGIN    No default host...
 002E36 4110 7AB8/4100_      03516 17550  3                          TSEG  'Can''t access remote file, no default host set.',,CR
 002E48 D207 B886 79E2_00886 03440 17568  3                          ABORT 'Type HELP SET HOST for more information.',,REMFILE
 002E5A                            17576  2                        END
                                   17580  2
 002E5A D227 BE90 C4D8 00E90 004D8 17581  2                        MVC   DSNON,CVBLANKS
 002E60 D21F BE90 B1BD 00E90 001BD 17582  2                        MVC   DSNON(L'CPHOST),CPHOST  Set default host
                                   17583  2
 002E66 956C BF08/4770_00F08       17584  2                        IF    (DSNWFILE,EQ,'%'),BEGIN  Tidy up other dsname...
 002E6E D22A BF08 BF09 00F08 00F09 17601  3                          MVC   DSNWFILE(L'DSNWFILE-1),DSNWFILE+1  Remove %
 002E74 9240 BF33      00F33       17602  3                          MVI   DSNWFILE+L'DSNWFILE-1,C' '
 002E78 48F0 BF04/06F0_      00F04 17603  3                          DECR  R15,DSNWLEN         Adjust file name length
 002E82 12FF/47B0 7430_            17608  3                          IF    (R15,NEG),'CLEAR DSNWLEN'
 002E8E                            17634  2                        END
 002E8E                            17638  1                      END
                                   17642  1
 002E8E 4140 4001            00001 17643  1                      LA    R4,@R4+1            Skip over %
 002E92 47F0 75C2            03020 17644  1                      B     MAINDSN
 002E96                            17645                       END
                                   17649                       ¿þþþþþþþþþþþþþþþþþþþþþþþþþþþþþþþþþþþþþÜ
                                   17650                       Ÿ  If '$' specified its full dsname.  Ÿ
                                   17651                       ¾þþþþþþþþþþþþþþþþþþþþþþþþþþþþþþþþþþþþþ»
 002E96 955B 4000/4770_00000       17652                       IF    (@R4,EQ,'$'),BEGIN
 002E9E 4144 0001            00001 17668  1                      LA    R4,1(R4)            Bump past $
 002EA2 925B BF06      00F06       17669  1                      MVI   DSNWANL,C'$'        Flag $ dsname for later
 002EA6 47F0 75C2            03020 17670  1                      B     MAINDSN
 002EAA                            17671                       END
                                   17675              *  full dsn not spec - construct first part of dsn as default
 002EAA D203 5000 7A76 00000 034D4 17676                       MVC   0(4,R5),=C'WYL.'
 002EB0 D201 5004 B1BB 00004 001BB 17677                       MVC   DSNXG(DSNXGL-1,R5),CPGRPSV
 002EB6 924B 5006      00006       17678                       MVI   DSNXG+DSNXGL-1(R5),C'.'
 002EBA D202 5007 B1B8 00007 001B8 17679                       MVC   DSNXU(DSNXUL-1,R5),CPUSERSV
 002EC0 924B 500A      0000A       17680                       MVI   DSNXU+DSNXUL-1(R5),C'.'
                                   17681
 002EC4 D604 B7F8 B7F8_007F8 007F8 17682                       IF    (CPPACCT,NZ),BEGIN  PACCOUNT is set...
 002ECE 9180 B758/47E0_00758       17698  1                      IF    ~CPFEXEC,EXIT       Only do if in exec mode
 002ED6 D201 5004 B7FB 00004 007FB 17716  1                      MVC   DSNXG(DSNXGL-1,R5),CPPGRP
 002EDC D202 5007 B7F8 00007 007F8 17717  1                      MVC   DSNXU(DSNXUL-1,R5),CPPUSER
 002EE2                            17718                       END
 002EE2 4160 000B            0000B 17722                       LA    R6,DSNXN
-                                  17724                 ¿þþþþþþþþþþþþþþþþþþþþþþþþÜ
                                   17725                 Ÿ  SCAN &USER OR @GROUP  Ÿ
                                   17726                 ¾þþþþþþþþþþþþþþþþþþþþþþþþ»
                                   17727                       COMMENT                   PROCESS & OR @
 002EE6 1943/47B0 75C2             17728                       IF    (R4,LT,R3),BEGIN
1OPT      (OPT2025) (12:50) (15MAR04) DSNSCAN/DODSNM Routines                                                               Page   47
0Current Usings:  (*,R7) (DODWA-(4+36),R8) (CP,R11) (CV,R12)
0Loc    Object Code    Addr1 Addr2  Stmt Lv Lineno    Source Statement           (Hibal 5, Asmedit 3.3)  HLASM R4.0  2004/03/15 12.50
+___    ______ ____    _____ _____  ____ __ ______    ______ _________
0002EEC 957C 4000/4780_00000       17743  1                      WHILE ((@R4,EQ,'@'),OR,(@R4,EQ,'&&')),BEGIN
                                   17776  2
 002EFE 957C 4000/4770_00000       17777  2                        IF    (@R4,EQ,'@'),BEGIN
 002F06 5E40 7A7E            034DC 17793  3                          INCR  R4
 002F0A 1814                       17796  3                          LR    R1,R4
 002F0C 1943/47B0 74CC_            17797  3                          WHILE ((R4,LT,R3),AND,(@R4,NE,'.'),AND,(@R4,NE,'#')),BEGIN
 002F22 5E40 7A7E            034DC 17842  4                            INCR  R4
 002F26 47F0 74AE            02F0C 17845  3                          END
 002F2A 1804                       17850  3                          LR    R0,R4
 002F2C 1B01                       17851  3                          SR    R0,R1
 002F2E 954B 4000/4770_00000       17852  3                          IF    (@R4,EQ,'.'),BEGIN
 002F36 5E40 7A7E            034DC 17868  4                            INCR  R4
 002F3A                            17871  3                          END
                                   17875  3                          COMMENT                   R1,R0 - @GROUP LOC, LEN
 002F3A 1200/4770 74E8             17876  3                          IF    (R0,Z),BEGIN
 002F40 D201 BC4B B3B7 00C4B 003B7 17890  4                            MVC   CPCGRP,CPSGRP
 002F46                            17891  3                          END
 002F46 74EC/47F0 74FA_02F46 02F3E 17895  3                          ELSEIF (R0,EQ,2),BEGIN
 002F52 D201 BC4B 1000 00C4B 00000 17921  4                            MVC   CPCGRP,@R1
 002F58                            17922  3                          END
 002F58 74FE/47F0 752C 02F58 02F50 17926  3                          ELSE  BEGIN
 002F5C 9110 BD5C/47E0_00D5C       17937  4                            IF    CPFDSNNE,BEGIN      Error suppression requested?
 002F64 D207 B886 7A12 00886 03470 17952  5                              MVC   CPERRID,=CL8'INVGRP'
 002F6A 47F0 7964            033C2 17953  5                              B     DOERREX
 002F6E                            17954  4                            END
 002F6E 41F0 B050/58E0_      00050 17958  4                            TSEG  (R1),(R0)
 002F78 D207 B886 7A12_00886 03470 17982  4                            ERROR ': invalid group.',,INVGRP
 002F8A                            17990  3                          END
 002F8A                            17994  2                        END   , OF GROUP STUFF
                                   17998  2
 002F8A 7530/47F0 75BE_02F8A 02F04 17999  2                        ELSEIF (@R4,EQ,'&&'),BEGIN
 002F98 5E40 7A7E            034DC 18024  3                          INCR  R4
 002F9C 1814                       18027  3                          LR    R1,R4
 002F9E 1943/47B0 755E_            18028  3                          WHILE ((R4,LT,R3),AND,(@R4,NE,'.'),AND,(@R4,NE,'#')),BEGIN
 002FB4 5E40 7A7E            034DC 18073  4                            INCR  R4
 002FB8 47F0 7540            02F9E 18076  3                          END
 002FBC 1804                       18081  3                          LR    R0,R4
 002FBE 1B01                       18082  3                          SR    R0,R1
 002FC0 954B 4000/4770_00000       18083  3                          IF    (@R4,EQ,'.'),BEGIN
 002FC8 5E40 7A7E            034DC 18099  4                            INCR  R4
 002FCC                            18102  3                          END
                                   18106  3                          COMMENT                   R1,R0 - @GROUP LOC, LEN
 002FCC 1200/4770 757A             18107  3                          IF    (R0,Z),BEGIN
 002FD2 D202 BC48 B3B4 00C48 003B4 18121  4                            MVC   CPCUSER,CPSUSER
 002FD8                            18122  3                          END
 002FD8 757E/47F0 758C_02FD8 02FD0 18126  3                          ELSEIF (R0,EQ,3),BEGIN
 002FE4 D202 BC48 1000 00C48 00000 18152  4                            MVC   CPCUSER,@R1
 002FEA                            18153  3                          END
 002FEA 7590/47F0 75BE 02FEA 02FE2 18157  3                          ELSE  BEGIN
 002FEE 9110 BD5C/47E0_00D5C       18168  4                            IF    CPFDSNNE,BEGIN      Error suppression requested?
 002FF6 D207 B886 7A12 00886 03470 18183  5                              MVC   CPERRID,=CL8'INVGRP'
 002FFC 47F0 7964            033C2 18184  5                              B     DOERREX
 003000                            18185  4                            END
 003000 41F0 B050/58E0_      00050 18189  4                            TSEG  (R1),(R0)
1OPT      (OPT2025) (12:50) (15MAR04) DSNSCAN/DODSNM Routines                                                               Page   48
0Current Usings:  (*,R7) (DODWA-(4+36),R8) (CP,R11) (CV,R12)
0Loc    Object Code    Addr1 Addr2  Stmt Lv Lineno    Source Statement           (Hibal 5, Asmedit 3.3)  HLASM R4.0  2004/03/15 12.50
+___    ______ ____    _____ _____  ____ __ ______    ______ _________
000300A D207 B886 7A12_00886 03470 18213  4                            ERROR ': invalid user.',,INVGRP
 00301C                            18221  3                          END
 00301C                            18225  2                        END   , OF USER STUFF
 00301C 47F0 748E            02EEC 18229  1                      END
 003020                            18234                       END
1OPT      (OPT2025) (12:50) (15MAR04) DSNSCAN/DODSNM Routines                                                               Page   49
0Current Usings:  (*,R7) (DODWA-(4+36),R8) (CP,R11) (CV,R12)
0Loc    Object Code    Addr1 Addr2  Stmt Lv Lineno    Source Statement           (Hibal 5, Asmedit 3.3)  HLASM R4.0  2004/03/15 12.50
+___    ______ ____    _____ _____  ____ __ ______    ______ _________
0                                  18239              *
                                   18240              **  process dsn after overrides or entire dsname
                                   18241              *
 003020 1A56                       18242              MAINDSN  AR    R5,R6               Update dsn pointer
 003022 1823                       18243                       LR    R2,R3               End of operand
 003024 1B24                       18244                       SR    R2,R4               Length remaining
 003026 47D0 7784            031E2 18245                       BNP   ENDSNOP             Br if nothing left
                                   18246              *  check whether use of prefix was specified
 00302A 955C 4000      00000       18247                       CLI   0(R4),C'*'          Prefix char?
 00302E 4770 7740            0319E 18248                       BNE   NOPFX
                                   18249                       ¿þþþþþþþþþþþþþþþþþþþþþþþþþþþþþþþþþþþþþþþþþþþþþþþþþþþþþþþþþþþþÜ
                                   18250                       Ÿ  Don't allow "*XYZ" as a dsname; it's "*" or nothing.      Ÿ
                                   18251                       Ÿ  (But all the code to handle "*xxx" still remains below).  Ÿ
                                   18252                       ¾þþþþþþþþþþþþþþþþþþþþþþþþþþþþþþþþþþþþþþþþþþþþþþþþþþþþþþþþþþþþ»
 003032 5920 7A7E/4780_      034DC 18253                       IF    (R2,NE,1),BEGIN     Only allow "*" as dsname...
 00303A 957B 4001/4780_00001       18270  1                      IF    ((@R4+1,EQ,'#'),OR,(@R4+1,EQ,'(')),EXIT  "*#member"
 00304A 9110 BD5C/47E0_00D5C       18304  1                      IF    CPFDSNNE,BEGIN      Error suppression...
 003052 D207 B886 7A2A 00886 03488 18319  2                        MVC   CPERRID,=CL8'STARBAD'
 003058 47F0 7964            033C2 18320  2                        B     DOERREX
 00305C                            18321  1                      END
 00305C 1814/1802/41F0_            18325  1                      TSEG  (R4),(R2)
 00306A D207 B886 7A2A_00886 03488 18351  1                      ERROR ': invalid characters in dsname.',,STARBAD
 00307C                            18359                       END
                                   18363              **  prefix to be used
 00307C 9610 BF34      00F34       18364                       SET   DSNWAF1.DSNFQDSN    Avoid OS dsname check
 003080 D503 79CE B628_0342C 00628 18371                       IF    (CPAFNAMEL,EQ,0),BEGIN
 00308A 9110 BD5C/47E0_00D5C       18389  1                      IF    CPFDSNNE,BEGIN      Error suppression requested?
 003092 D207 B886 7A32 00886 03490 18404  2                        MVC   CPERRID,=CL8'NOSTAR'
 003098 47F0 7964            033C2 18405  2                        B     DOERREX
 00309C                            18406  1                      END
 00309C D207 B886 7A32_00886 03490 18410  1                      ERROR 'The current dsname is not set.',,NOSTAR
 0030AE                            18418                       END
 0030AE D627 BE90 BE90_00E90 00E90 18422                       IF    (DSNON,Z),BEGIN     DO HOST
 0030B8 5820 B6AC            006AC 18438  1                      L     R2,CPAHOSTL
 0030BC 1222/47D0 7682             18439  1                      IF    (R2,POS),BEGIN
 0030C2 5920 7A72/47D0_      034D0 18453  2                        CEIL  R2,L'DSNON
 0030CE D227 BE90 C4D8 00E90 004D8 18472  2                        MVC   DSNON,CVBLANKS
 0030D4 0620/1222/4740_            18473  2                        MOVE  R2,DSNON,CPAHOST
 0030E0                            18511  1                      END
 0030E0                            18515                       END
 0030E0 90E1 D000/41D0_      00000 18519                       XPUSH R14,R1              DO MEMBER IF ANY
 0030E8 4110 B62C/5800_      0062C 18522                       SETMSG CPAFNAME,L:CPAFNAMEL
 0030F0 58E0 7A8A/0DEE       034E8 18536                       VCALL RETFMEM
 0030F6 1200/47D0 76B2             18540                       IF    (R0,POS),BEGIN
 0030FC D207 BE88 C4D8 00E88 004D8 18554  1                      MVC   DSNWAMBR,CVBLANKS
 003102 1820                       18555  1                      LR    R2,R0
 003104 0620/1222/4740_            18556  1                      MOVE  R2,DSNWAMBR,@R1
 003110                            18594                       END
 003110 4110 B62C/5800_      0062C 18598                       SETMSG CPAFNAME,L:CPAFNAMEL
 003118 58E0 7A8E/0DEE       034EC 18612                       VCALL RETFNAME
 00311E 1820                       18616                       LR    R2,R0               R2 prefix length
 003120 4BD0 7B04/98E1_      03562 18617                       XPOP  R14,R1
 003128 4144 0001            00001 18620              DOPFX    LA    R4,1(R4)            Past *
                                   18621              **  insert prefix
1OPT      (OPT2025) (12:50) (15MAR04) DSNSCAN/DODSNM Routines                                                               Page   50
0Current Usings:  (*,R7) (DODWA-(4+36),R8) (CP,R11) (CV,R12)
0Loc    Object Code    Addr1 Addr2  Stmt Lv Lineno    Source Statement           (Hibal 5, Asmedit 3.3)  HLASM R4.0  2004/03/15 12.50
+___    ______ ____    _____ _____  ____ __ ______    ______ _________
000312C 41F0 B62C            0062C 18622                       LA    R15,CPAFNAME
 003130 D503 7A76 F000_034D4 00000 18623                       IF    (@R15,EQ,'WYL.'),BEGIN  Wylbur dsn...
 00313A 5920 7A92/47C0_      034F0 18639  1                      IF    (R2,LE,11),EXIT  Nope
 003142 954B F003/4770_00003       18659  1                      IF    ((@R15+3,NE,'.'),OR,(@R15+6,NE,'.')),EXIT
 003152 954B F00A/4770_0000A       18693  1                      IF    (@R15+10,NE,'.'),EXIT
 00315A 9680 BF34      00F34       18712  1                      SET   DSNWAF1.DSNFSTD     Standard dsn
 00315E 47F0 7712            03170 18719  1                      B     PFXCOMA
 003162                            18720                       END
                                   18724
 003162 955B F000      00000       18725                       CLI   @R15,C'$'           Is prefix entire dsn spec
                                   18726              *        BNE   INSPFX              Br if no
 003166 4770 7712            03170 18727                       BNE   PFXCOMA             Br if no  CH - 05/91
 00316A 41F0 F001            00001 18728                       LA    R15,@R15+1          Past $
 00316E 0620                       18729                       DECR  R2                  Decr len
 003170 1B56                       18731              PFXCOMA  SR    R5,R6               Start over again
 003172 1266                       18732                       LTR   R6,R6               Test if nothing generated yet
 003174 4780 772C            0318A 18733                       BZ    INSPFX              Bypass re-clear
 003178 4100 0040            00040 18734                       LA    R0,X'40'            Set up blank
 00317C 4206 5000            00000 18735              PFXLOOP  STC   R0,0(R6,R5)         Blank orig dsname
 003180 4660 771E            0317C 18736                       BCT   R6,PFXLOOP          doesn't clear first char - tough
 003184 1222/47D0 7740             18737                       IF    (R2,NP),NOPFX       Br if $ was alone in pfx
 00318A 1A62                       18754              INSPFX   AR    R6,R2               Compute total dsn length
 00318C 4960 7B06            03564 18755                       CH    R6,=H'44'           Is there room for pfx
 003190 4720 7898            032F6 18756                       BH    DSNLONG             No
 003194 0620/4420 7BF0_            18757                       DEX   R2,' MVC 0(0,R5),@R15 '  Add prefix to dsn
 00319A 4152 5001            00001 18776                       LA    R5,1(R2,R5)         Update dsn pointer
-                                  18778              ** continue processing operand
 00319E 1543                       18779              NOPFX    CLR   R4,R3               Is scan at end of operand
 0031A0 47B0 7784            031E2 18780                       BNL   ENDSNOP             Br if yes
 0031A4 954D 4000      00000       18781                       CLI   0(R4),C'('          Test paren specified alone
 0031A8 4780 7784            031E2 18782                       BE    ENDSNOP             Br if yes
                                   18783              *  scan for member spec (#) - scanner takes care of parens
 0031AC 1803                       18784                       LR    R0,R3
 0031AE 1B04                       18785                       SR    R0,R4               Length remaining
 0031B0 1824                       18786                       LR    R2,R4               Current pointer
 0031B2 957B 2000      00000       18787              MEMSRCH  CLI   @R2,C'#'
 0031B6 4780 7764            031C2 18788                       BE    HVDSNSTR            Found end of string
 0031BA 4120 2001            00001 18789                       LA    R2,@R2+1
 0031BE 4600 7754            031B2 18790                       BCT   R0,MEMSRCH
                                   18791              **  have end of dsname string
 0031C2 1B24                       18792              HVDSNSTR SR    R2,R4               Length of string
 0031C4 4780 7784            031E2 18793                       BZ    ENDSNOP             Br if null string
 0031C8 1A62                       18794              HVDSTR2  AR    R6,R2               Compute total length
 0031CA 4960 7B06            03564 18795                       CH    R6,=H'44'           Is it too long?
 0031CE 4720 7898            032F6 18796                       BH    DSNLONG             Br if yes
 0031D2 18F4                       18797                       LR    R15,R4              For ex mvc
 0031D4 0620/4420 7BF6_            18798                       DEX   R2,' MVC 0(0,R5),@R15 '  Move string
 0031DA 4120 2001            00001 18817                       LA    R2,@R2+1            Restore length
 0031DE 1A42                       18818                       AR    R4,R2               Update scan pointer
 0031E0 1A52                       18819                       AR    R5,R2               Update dsn pointer
1OPT      (OPT2025) (12:50) (15MAR04) DSNSCAN/DODSNM Routines                                                               Page   51
0Current Usings:  (*,R7) (DODWA-(4+36),R8) (CP,R11) (CV,R12)
0Loc    Object Code    Addr1 Addr2  Stmt Lv Lineno    Source Statement           (Hibal 5, Asmedit 3.3)  HLASM R4.0  2004/03/15 12.50
+___    ______ ____    _____ _____  ____ __ ______    ______ _________
0                                  18821              ***  end of dsn operand except member spec
 0031E2 18F5                       18822              ENDSNOP  LR    R15,R5              Current point
 0031E4 1B56                       18823                       SR    R5,R6               Start of name
-                                  18825              **  now process member name present
 0031E6 1543                       18826                       CLR   R4,R3               Is operand at the end?
 0031E8 47B0 779A            031F8 18827                       BNL   PARENSCN            Br if yes
 0031EC 957B 4000      00000       18828                       CLI   0(R4),C'#'          Is it #?
 0031F0 4780 782E            0328C 18829                       BE    HAVEMEM
                                   18830              *  only other possibility is '('
 0031F4 47F0 782C            0328A 18831                       B     PARENMEM
                                   18832              *
                                   18833              **  end of scanned stuff - check member in parens or # after ''
                                   18834              *
 0031F8 9801 BC9C            00C9C 18835              PARENSCN LM    R0,R1,CPSAVE        Get pointers to dsname
 0031FC 1A10                       18836                       AR    R1,R0               Point to character after
 0031FE 957B 1000      00000       18837                       CLI   @R1,C'#'            Member after quoted dsn?
 003202 4780 77B0            0320E 18838                       BE    MBRSCN              Br if yes
 003206 954D 1000      00000       18839                       CLI   @R1,C'('
 00320A 4770 7942            033A0 18840                       BNE   DSNDONE             No member specified
 00320E 58E0 B08C/581E_      0008C 18841              MBRSCN   SCINFO ,                 Find out if any left to scan
 00321C 1200                       18850                       LTR   R0,R0               Was there anything left?
 00321E 47D0 7942            033A0 18851                       BNP   DSNDONE             Br if finished
 003222 5810 B08C/1B00_      0008C 18852                       SCAN  ,                   Go scan for member name
 003270 58E0 7A5A/0DEE       034B8 18883                       SCANCHK
 003276 1200/4780 7942             18888                       IF    (R0,Z),DSNDONE      Done if nothing there
                                   18905              **  have member in parens or # following quoted dsname
 00327C 1841                       18906                       LR    R4,R1               Loc of lparen
 00327E 1831                       18907                       LR    R3,R1
 003280 1A30                       18908                       AR    R3,R0               Loc of rparen+1
 003282 957B 4000      00000       18909                       CLI   0(R4),C'#'
 003286 4780 782E            0328C 18910                       BE    HAVEMEM
 00328A 0630                       18911              PARENMEM DECR  R3                  Loc of rparen
                                   18913              *  process member name in parens or by #
 00328C 4144 0001            00001 18914              HAVEMEM  LA    R4,1(R4)            Past # or (
 003290 1823                       18915                       LR    R2,R3
 003292 1B24                       18916                       SR    R2,R4               Length of member name
 003294 4780 793C            0339A 18917                       BZ    NULLMBR             Br if null override
0003298 D501 7B08 4000_03566 00000 18919                       IF    ((@R4,EQ,'0)'),OR,(@R4,EQ,'-'),OR,(@R4,EQ,'+')),BEGIN
 0032B2 18F5                       18963  1                      LR    R15,R5              R15 -> Start of dsn
 0032B4 1AF6                       18964  1                      AR    R15,R6              R15 -> End of dsn + 1
 0032B6 0640                       18965  1                      BCTR  R4,0                Fall back to start of gen#
 0032B8 4122 0002            00002 18966  1                      LA    R2,2(R2)            Compute the gen# length
 0032BC 1A62                       18967  1                      AR    R6,R2               Add into total dsn length
 0032BE 0620/4420 7BFC_            18968  1                      DEX   R2,'MVC @R15(0),@R4' Move in generation number
 0032C4 9604 BD58      00D58       18987  1                      SET   CPFGEN              Flag as generation data set
 0032C8 47F0 7942            033A0 18993  1                      B     DSNDONE             Finish up
 0032CC                            18994                       END
00032CC 4920 7B0A            03568 18999                       CH    R2,=H'8'            Check length
 0032D0 47D0 78BE            0331C 19000                       BNH   REPLMEM             Br if ok
                                   19001              *  member name is too long
1OPT      (OPT2025) (12:50) (15MAR04) DSNSCAN/DODSNM Routines                                                               Page   52
0Current Usings:  (*,R7) (DODWA-(4+36),R8) (CP,R11) (CV,R12)
0Loc    Object Code    Addr1 Addr2  Stmt Lv Lineno    Source Statement           (Hibal 5, Asmedit 3.3)  HLASM R4.0  2004/03/15 12.50
+___    ______ ____    _____ _____  ____ __ ______    ______ _________
00032D4 9110 BD5C/4710_00D5C       19002              MBRLONG  IF    CPFDSNNE,DOERREX    Error suppression request?
 0032DC 1814/1802/41F0_            19021                       TSEG  (R4),(R2)
 0032EA 4110 7BA3/4100_      03601 19047                       ERROR ': member name too long.'
                                   19054              *  dsname is too long
 0032F6 1806                       19055              DSNLONG  LR    R0,R6
 0032F8 1B62                       19056                       SR    R6,R2               Back up to prev length
 0032FA 1B56                       19057                       SR    R5,R6               Find start of dsname
 0032FC 9110 BD5C/4710_00D5C       19058                       IF    CPFDSNNE,DOERREX    Error suppression request?
 003304 1815/41F0 B050_            19076                       TSEG  (R5),(R0)
 003310 4110 7B0C/4100_      0356A 19101                       ERROR ': dsname too long.'
-                                  19109              **  insert specified member name
 00331C D207 BE88 C4D8 00E88 004D8 19110              REPLMEM  MVC   DSNWAMBR,CVBLANKS
 003322 0620/4420 7C02_            19111                       DEX   R2,' MVC DSNWAMBR(0),@R4 '  Move member name
 003328 D507 7A3A BE88_03498 00E88 19130                       IF    (DSNWAMBR,EQ,=CL8'*'),BEGIN
 003332 90E2 D000/41D0_      00000 19147  1                      XPUSH R14,R2
 00333A 4110 B62C/5800_      0062C 19150  1                      SETMSG CPAFNAME,L:CPAFNAMEL
 003342 58E0 7A8A/0DEE       034E8 19164  1                      VCALL RETFMEM
 003348 1820                       19168  1                      LR    R2,R0
 00334A D207 BE88 C4D8 00E88 004D8 19169  1                      MVC   DSNWAMBR,CVBLANKS
 003350 0620/1222/4740_            19170  1                      MOVE  R2,DSNWAMBR,@R1
 00335C 4BD0 7B1E/98E2_      0357C 19208  1                      XPOP  R14,R2
 003364 9540 BE88/4770_00E88       19211  1                      IF    (DSNWAMBR,NE,' '),EXIT
 00336C 9110 BD5C/47E0_00D5C       19231  1                      IF    CPFDSNNE,BEGIN      Error suppression requested?
 003374 D207 B886 7A32 00886 03490 19246  2                        MVC   CPERRID,=CL8'NOSTAR'
 00337A 47F0 7964            033C2 19247  2                        B     DOERREX
 00337E                            19248  1                      END
 00337E D207 B886 7A32_00886 03490 19252  1                      ERROR 'The current member is not set.',,NOSTAR
 003390                            19260                       END
 003390 D607 BE88 C4D8 00E88 004D8 19264                       OC    DSNWAMBR,CVBLANKS   Convert to upper case
 003396 47F0 7942            033A0 19265                       B     DSNDONE
                                   19266              *
                                   19267              ***  done with dsname
                                   19268              *
 00339A D707 BE88 BE88 00E88 00E88 19269              NULLMBR  CLEAR DSNWAMBR            Flag explicit null member
 0033A0 9120 BD51      00D51       19277              DSNDONE  TM    CPLFLG2,CPFDSNMS    Test null ok
 0033A4 4710 796C            033CA 19278                       BO    DOLGO               Br if so
 0033A8 1266                       19279              DSNDONE2 LTR   R6,R6
 0033AA 4720 796C            033CA 19280                       BP    DOLGO
 0033AE 9110 BD5C/4710_00D5C       19281                       IF    CPFDSNNE,DOERREX    Error suppression request?
 0033B6 4110 7BBA/4100_      03618 19299                       ERROR 'Dsname is null.'
 0033C2 9608 BD5C      00D5C       19306              DOERREX  SET   CPFDSNBD            Set error
 0033C6 47F0 79C0            0341E 19313                       B     DSCNEXIT
 0033CA 4060 BF06            00F06 19314              DOLGO    STH   R6,DSNWANL          Save length for dsnstddo
 0033CE 58E0 7A96/0DEE       034F4 19315                       ACALL DSNSTDDO            Go set dsname flags
                                   19319              **  if std wyl dsname check null after userid
 0033D4 9180 BF34      00F34       19320                       TM    DSNWAF1,DSNFSTD     Is it std wyl dsn?
 0033D8 4780 79BA            03418 19321                       BZ    DOLGO2              Br if no
 0033DC 4960 7B3E            0359C 19322                       CH    R6,=AL2(DSNXN)      Is wyl name just std length?
 0033E0 4770 79BA            03418 19323                       BNE   DOLGO2              Br if no
                                   19324              **  default dsname = 'lib'
 0033E4 D502 7BC9 BD24_03627 00D24 19325                       IF    (CPCMNM,EQ,'PFX'),PFXLIB  IT'S ok, mom
 0033EE 9120 BD51      00D51       19345                       TM    CPLFLG2,CPFDSNMS    Is default permitted?
1OPT      (OPT2025) (12:50) (15MAR04) DSNSCAN/DODSNM Routines                                                               Page   53
0Current Usings:  (*,R7) (DODWA-(4+36),R8) (CP,R11) (CV,R12)
0Loc    Object Code    Addr1 Addr2  Stmt Lv Lineno    Source Statement           (Hibal 5, Asmedit 3.3)  HLASM R4.0  2004/03/15 12.50
+___    ______ ____    _____ _____  ____ __ ______    ______ _________
00033F2 4710 79BA            03418 19346                       BO    DOLGO2              Br if no
 0033F6 D207 BE67 B8AB 00E67 008AB 19347              PFXLIB   MVC   DSNWADSN+DSNXN(L'CPLIB),CPLIB  move in def lib
 0033FC 9620 BF34      00F34       19348                       OI    DSNWAF1,DSNFWLIB    Flag wylbur library
 003400 41F0 BE67            00E67 19349                       LA    R15,DSNWADSN+DSNXN
 003404 9540 F000      00000       19350              BLKLOOP  CLI   @R15,C' '           At end of dsn
 003408 4780 79BA            03418 19351                       BE    DOLGO2              Yes, have correct length
 00340C 4160 6001            00001 19352                       LA    R6,1(,R6)           No, increment length
 003410 41F0 F001            00001 19353                       LA    R15,@R15+1          Pt to next slot
 003414 47F0 79A6            03404 19354                       B     BLKLOOP             And look for end
 003418 1806                       19355              DOLGO2   LR    R0,R6
 00341A 4000 BF06            00F06 19356                       STH   R0,DSNWANL          Save dsname length
 00341E 18D8/9808 D004_            19357              DSCNEXIT PEND  ,
 DROP   DODWA-(4+36),R8
 DROP   *,R7
                                   19383
                                   19384                       QLTORG
1OPT      (OPT2025) (12:50) (15MAR04) DSNSCAN/DODSNM Routines                                                               Page   54
0Current Usings:  (CP,R11) (CV,R12)
0Loc    Object Code    Addr1 Addr2  Stmt Lv Lineno    Source Statement           (Hibal 5, Asmedit 3.3)  HLASM R4.0  2004/03/15 12.50
+___    ______ ____    _____ _____  ____ __ ______    ______ _________
000366C C4C9E2D240404040_          19456              DEVPRT   SCKW  DISK,DEVDISK
 003694 D4C9C3D9D6404040_          19471                       SCKW  MICRO,DEVMICRO
 0036BC E2C1D4E2D6D54040_          19486                       SCKW  SAMSON,DEVMICRO     (Compat--Remove me after 8/85)
 0036E4 D5C5E3E6D6D9D240_          19501                       SCKW  NETWORK,DEVNET,A
 00370C 4040404040404040_          19516                       SCKW  ,NULDEV,NULL
 003734 4040404040404040_          19531                       SCKW  ,INVDEV
                                   19546
 00375C 50E0 D000/9008_      00000 19547              DEVDISK  DPROC ,
 USING  *,R7
 003776 9201 BF3B      00F3B       19587                       MVI   DSNDTYPE,DSNDDISK
 00377A 18D8/9808 D004_            19588                       PEND  ,
 DROP   *,R7
                                   19608
 003788 50E0 D000/9008_      00000 19609              DEVMICRO DPROC ,
 USING  *,R7
 0037A2 9202 BF3B      00F3B       19649                       MVI   DSNDTYPE,DSNDSAM
 0037A6 18D8/9808 D004_            19650                       PEND  ,
 DROP   *,R7
                                   19670
 0037B4 50E0 D000/9008_      00000 19671              DEVNET   DPROC ,
 USING  *,R7
 0037CE 9203 BF3B      00F3B       19711                       MVI   DSNDTYPE,DSNDNET
 0037D2 18D8/9808 D004_            19712                       PEND  ,
 DROP   *,R7
                                   19732
 0037E0 50E0 D000/9008_      00000 19733              NULDEV   PROC  ,
 USING  *,R7
 0037FA 9110 BD5C/4710_00D5C       19772                       IF    ~CPFDSNNE,BEGIN     IF NO Error suppression request?
 003802 4110 7094/4100_      0388E 19787  1                      ABORT 'Missing device-type name.'  give error
 00380E                            19794                       END
 00380E 41F0 0008            00008 19798                       LA    R15,8
 003812 18D8/9808 D004_            19799                       PEND
 DROP   *,R7
                                   19819
 003820 50E0 D000/9008_      00000 19820              INVDEV   PROC  ,
 USING  *,R7
 00383A 9110 BD5C/4710_00D5C       19859                       IF    ~CPFDSNNE,BEGIN     IF NO Error suppression request?
 003842 41F0 B050/58E0_      00050 19874  1                      TSEG  (R1),(R0)                    give error
 00384C 4110 703A/4100_      03874 19898  1                      ABORT ' is an unkown device type.'
 003858                            19905                       END
 003858 41F0 0008            00008 19909                       LA    R15,8
 00385C 18D8/9808 D004_            19910                       PEND
 DROP   *,R7
                                   19930
                                   19931                       QLTORG
1OPT      (OPT2025) (12:50) (15MAR04) Dsname Finish Routine -- Do Overrides                                                 Page   55
0Current Usings:  (CP,R11) (CV,R12)
0Loc    Object Code    Addr1 Addr2  Stmt Lv Lineno    Source Statement           (Hibal 5, Asmedit 3.3)  HLASM R4.0  2004/03/15 12.50
+___    ______ ____    _____ _____  ____ __ ______    ______ _________
0                                  19947              * this routine processes any group or user overrides found.
                                   19948              * it must be called after scanning has been completed.
                                   19949              *
 0038A8 50E0 D000/9008_      00000 19950              DSNFIN   XPROC
 USING  *,R7
                                   19990                       ¿þþþþþþþþþþþþþþþþþþþþþþÜ
                                   19991                       Ÿ  Validity checking.  Ÿ
                                   19992                       ¾þþþþþþþþþþþþþþþþþþþþþþ»
 0038C2 9160 BF3A/4780_00F3A       19993                       IF    DSNFASCII+DSNFEBCDIC,BEGIN  ASCII/EBCDIC explicit...
 0038CA 9180 BF39/4710_00F39       20011  1                      IF    DSNFTRAN,EXIT       It's OK, scram
 0038D2 4110 73CA/4100_      03C8C 20029  1                      TSEG  'TRANSPARENT must be specified '
 0038E4 4110 73FA/4100_      03CBC 20047  1                      ERROR 'if ASCII/EBCDIC is specified.'
 0038F0                            20054                       END
                                   20058
 0038F0 9500 BF3B/4770_00F3B       20059                       IF    (DSNDTYPE,Z),BEGIN  Default device type...
                                   20075  1                      ¿þþþþþþþþþþþþþþþþþþþþþþþþþþþþþþþþþþþþþþþþþþþþþþÜ
                                   20076  1                      Ÿ  Check the device type based on the volume.  Ÿ
                                   20077  1                      ¾þþþþþþþþþþþþþþþþþþþþþþþþþþþþþþþþþþþþþþþþþþþþþþ»
 0038F8 9201 BF3B      00F3B       20078  1                      MVI   DSNDTYPE,DSNDDISK   Assume disk
                                   20079  1
 0038FC D627 BE90 BE90_00E90 00E90 20080  1                      IF    (DSNON,NZ),BEGIN    Have a volume...
                                   20096  2                        ¿þþþþþþþþþþþþþþþþþþþþþþþþþþþþþþþþþþþþþÜ
                                   20097  2                        Ÿ  Check for Samson looking devices.  Ÿ
                                   20098  2                        ¾þþþþþþþþþþþþþþþþþþþþþþþþþþþþþþþþþþþþþ»
 003906 9140 B3EA/47E0_003EA       20099  2                        IF    CPSFSAM,BEGIN       Samson terminal...
 00390E 95C1 BE90/4750_00E90       20114  3                          IF    ((DSNON,GE,'A'),AND,(DSNON,LE,'Z')),BEGIN
 00391E 9540 BE91/4770_00E91       20147  4                            IF    (DSNON+1,NE,' '),EXIT  Looking for one char device
 003926 9202 BF3B      00F3B       20167  4                            MVI   DSNDTYPE,DSNDSAM    It's a samson device
 00392A 47F0 7096            03958 20168  4                            B     DFINEXT
 00392E                            20169  3                          END
                                   20173  3
 00392E D504 7417 BE90_03CD9 00E90 20174  3                          IF    ((DSNON,EQ,'CLIP '),OR,(DSNON,EQ,'CLIPBOARD ')),BEGIN
 003942 9202 BF3B      00F3B       20207  4                            MVI   DSNDTYPE,DSNDSAM    It's a samson device
 003946 47F0 7096            03958 20208  4                            B     DFINEXT
 00394A                            20209  3                          END
 00394A                            20213  2                        END
                                   20217  2                        ¿þþþþþþþþþþþþþþþþþþþþþþþþþþþþþþþþþþþþþþþþþþþþþþþÜ
                                   20218  2                        Ÿ  Check for volume name which is a host name.  Ÿ
                                   20219  2                        ¾þþþþþþþþþþþþþþþþþþþþþþþþþþþþþþþþþþþþþþþþþþþþþþþ»
 00394A 58E0 73AA/0DEE       03C6C 20220  2                        ACALL HOSTCHK             Check DSNON for host name
 003950 4770 7096/9203_      03958 20224  2                        IF    Z,'MVI DSNDTYPE,DSNDNET'  It's a network file
                                   20241  2                        ¿þþþþþþþþþþþþþþþþþþþþþþþþþþþþþþþþþþþþþþþþÜ
                                   20242  2                        Ÿ  Check for user defined device names.  Ÿ
                                   20243  2                        ¾þþþþþþþþþþþþþþþþþþþþþþþþþþþþþþþþþþþþþþþþ»
 003958 4110 BE90/4100_      00E90 20244  2           DFINEXT      SETMSG DSNON
                                   20258  2                        ¿þþþþþþþþþþþþþþþþþþþþþþþþþþþþþþþþþþþþþþþþþþþþþþþþþþÜ
                                   20259  2                        Ÿ  This is for an explicit device type set by the  Ÿ
                                   20260  2                        Ÿ    SET DEVICE command (it's not really used).    Ÿ
                                   20261  2                        ¾þþþþþþþþþþþþþþþþþþþþþþþþþþþþþþþþþþþþþþþþþþþþþþþþþþ»
 003960 58E0 73AE/0DEE       03C70 20262  2                        VCALL FINDDEV             Is it an external device?
 003966 4770 70C0            03982 20266  2                        IF    Z,BEGIN             Yes...
 USING  DEV,R1                     20277  3                          WITH  (DEV,R1)
 00396A 9501 1001/4770_00001       20290  3                          IF    DEVTSAM,'MVI DSNDTYPE,DSNDSAM'
 003976 9502 1001/4770_00001       20311  3                          IF    DEVTNET,'MVI DSNDTYPE,DSNDNET'
1OPT      (OPT2025) (12:50) (15MAR04) Dsname Finish Routine -- Do Overrides                                                 Page   56
0Current Usings:  (*,R7) (CP,R11) (CV,R12)
0Loc    Object Code    Addr1 Addr2  Stmt Lv Lineno    Source Statement           (Hibal 5, Asmedit 3.3)  HLASM R4.0  2004/03/15 12.50
+___    ______ ____    _____ _____  ____ __ ______    ______ _________
0DROP   DEV,R1                     20332  2                        END
 003982                            20341  1                      END
 003982                            20345                       END
                                   20349                       ¿þþþþþþþþþþþþþþþþþþþþþþþþþþþþþþþþþþþþþþþþþþþþþÜ
                                   20350                       Ÿ  Process a disk device the same as before.  Ÿ
                                   20351                       ¾þþþþþþþþþþþþþþþþþþþþþþþþþþþþþþþþþþþþþþþþþþþþþ»
 003982 9501 BF3B/4770_00F3B       20352                       IF    (DSNDTYPE,EQ,DSNDDISK),BEGIN  Disk...
 00398A D627 BE90 BE90_00E90 00E90 20370  1                      IF    (DSNON,NZ),BEGIN    Check volume name...
 003994 D521 BE96 C4D8 00E96 004D8 20386  2                        CLC   DSNON+6(L'DSNON-6),CVBLANKS  Extra chars in vol name?
 00399A 4780 70FA            039BC 20387  2                        IF    EQ,EXIT             Yes, scram
 00399E 4110 BE90/4100_      00E90 20401  2                        TSEG  DSNON,,T
 0039B0 4110 7386/4100_      03C48 20429  2                        ERROR ': volume/host not found.'
 0039BC                            20436  1                      END
 0039BC                            20440                       END
                                   20444
 0039BC 9180 BF34/47E0_00F34       20445                       IF    DSNWAF1.DSNFSTD,BEGIN  Process user/group override...
 0039C4 D601 BC4B BC4B_00C4B 00C4B 20461  1                      IF    (CPCGRP,NZ),'MVC DSNWADSN+DSNXG(DSNXGL-1),CPCGRP'
 0039D4 D602 BC48 BC48_00C48 00C48 20483  1                      IF    (CPCUSER,NZ),'MVC DSNWADSN+DSNXU(DSNXUL-1),CPCUSER'
 0039E4                            20505                       END
                                   20509
 0039E4 58E0 73B6/0DEE       03C78 20510                       ACALL DSNUDSDO            Go set user data set flags
                                   20514
 0039EA 9501 BF3B/4770_00F3B       20515                       IF    (DSNDTYPE,EQ,DSNDDISK),BEGIN  Check dsname...
 0039F2 D508 741C BE5C_03CDE 00E5C 20533  1                      IF    (DSNWADSN,EQ,'NULLFILE '),XIBADNM  Never, never
                                   20553  1
 0039FC 9120 BF37/47E0_00F37       20554  1                      IF    (DSNFBADN,AND,~DSNWAF1.DSNFQDSN),BEGIN  Bad name...
 003A0C 9104 BD58/4710_00D58       20584  2                        IF    CPFGEN,EXIT         Allow funny chars if GDG dsname
 003A14 58E0 73BA/0DEE       03C7C 20602  2                        ACALL DSNCHK              Is dsn ok?
 003A1A 4780 71A8            03A6A 20606  2                        IF    Z,EXIT              (Shouldn't happen)
 003A1E 182F                       20620  2                        LR    R2,R15
 003A20 9110 BD5C/47E0_00D5C       20621  2           XIBADNM      IF    CPFDSNNE,BEGIN      Error suppression request?
 003A28 D207 B886 739E 00886 03C60 20637  3                          MVC   CPERRID,=CL8'INVDSN'
 003A2E 9608 BD5C      00D5C       20638  3                          SET   CPFDSNBD            Set error
 003A32 47F0 7206            03AC8 20644  3                          EXIT  DSNFIN
 003A36                            20647  2                        END
 003A36 4110 BE5C/4800_      00E5C 20651  2                        TSEG  DSNWADSN,LH:DSNWANL
 003A48 4110 7425/4100_      03CE7 20678  2                        SETMSG ': invalid dsname.'
 003A50 5920 73BE/4770_      03C80 20682  2                        IF    (R2,EQ,8),'SETMSG ": invalid characters in dsname."'
 003A60 D207 B886 739E_00886 03C60 20708  2                        ABORT (R1),(R0),INVDSN
 003A6A                            20722  1                      END
 003A6A                            20726                       END
                                   20730                       ¿þþþþþþþþþþþþþþþþþþþþþþþþþþþþþþþþþþþþþþþþþþþþþþþþþþþþþþþþþþþÜ
                                   20731                       Ÿ  Check the exact copy of the file name the user specifed  Ÿ
                                   20732                       Ÿ    for "*".  If it is an asterisk, then use the saved     Ÿ
                                   20733                       Ÿ    dsname.                                                Ÿ
                                   20734                       ¾þþþþþþþþþþþþþþþþþþþþþþþþþþþþþþþþþþþþþþþþþþþþþþþþþþþþþþþþþþþ»
 003A6A D501 73F2 BF04_03CB4 00F04 20735                       IF    ((DSNWLEN,EQ,1),AND,(DSNWFILE,EQ,'*')),BEGIN
 003A7C 4110 BE5C/4800_      00E5C 20769  1                      SETMSG DSNWADSN,LH:DSNWANL  Complete file name
 003A84 9501 BF3B/4780_00F3B       20782  1                      IF    (DSNDTYPE,NE,DSNDDISK),BEGIN  Non-disk...
 003A8C 9180 BF34/47E0_00F34       20800  2                        IF    DSNWAF1.DSNFSTD,'LA R1,@R1+11; SH R0,=H"11"'  No pfx
 003A9C                            20823  1                      END
                                   20827  1
 003A9C 5900 73C2/47D0_      03C84 20828  1                      CEIL  R0,L'DSNWFILE       (Safety)
 003AA8 12FF/4720 71EE_            20847  1                      IF    (R15,NP),'CLEAR R0'
1OPT      (OPT2025) (12:50) (15MAR04) Dsname Finish Routine -- Do Overrides                                                 Page   57
0Current Usings:  (*,R7) (CP,R11) (CV,R12)
0Loc    Object Code    Addr1 Addr2  Stmt Lv Lineno    Source Statement           (Hibal 5, Asmedit 3.3)  HLASM R4.0  2004/03/15 12.50
+___    ______ ____    _____ _____  ____ __ ______    ______ _________
0003AB0 4000 BF04            00F04 20870  1                      STH   R0,DSNWLEN
 003AB4 18F0                       20871  1                      LR    R15,R0              File length
 003AB6 D22B BF08 C4D8 00F08 004D8 20872  1                      MVC   DSNWFILE,CVBLANKS   Blank out file name
 003ABC 06F0/12FF/4740_            20873  1                      MOVE  R15,DSNWFILE,@R1    Save file name
 003AC8                            20911                       END
                                   20915
 003AC8 18D8/9808 D004_            20916                       PEND
 DROP   *,R7
1OPT      (OPT2025) (12:50) (15MAR04) Dsname Attribute and Possession Routines                                              Page   58
0Current Usings:  (CP,R11) (CV,R12)
0Loc    Object Code    Addr1 Addr2  Stmt Lv Lineno    Source Statement           (Hibal 5, Asmedit 3.3)  HLASM R4.0  2004/03/15 12.50
+___    ______ ____    _____ _____  ____ __ ______    ______ _________
0                                  20937              ***  routine to set dsname attribute flags
                                   20938              *
 003AD6 50E0 D000/9008_      00000 20939              DSNSTDDO XPROC ,
 USING  *,R7
 003AF0 945F BF34      00F34       20979                       CLEAR DSNWAF1.DSNFSTD+DSNFWLIB  reset flags
 003AF4 D503 7198 BE5C 03C88 00E5C 20990                       CLC   =C'WYL.',DSNWADSN   First level ok?
 003AFA 4770 7046            03B36 20991                       BNE   DODSNNS             Br if not std
 003AFE 954B BE62      00E62       20992                       CLI   DSNWADSN+DSNXG+DSNXGL-1,C'.'  Group delim?
 003B02 4770 7046            03B36 20993                       BNE   DODSNNS             Br if not
 003B06 954B BE66      00E66       20994                       CLI   DSNWADSN+DSNXU+DSNXUL-1,C'.'  User delim?
 003B0A 4770 7046            03B36 20995                       BNE   DODSNNS             Br if not
 003B0E 4800 BF06            00F06 20996                       LH    R0,DSNWANL          Get dsname length
 003B12 4900 71C8            03CB8 20997                       CH    R0,=Y(DSNXN)        Is it long enough?
 003B16 4740 7046            03B36 20998                       BL    DODSNNS             Br if not
 003B1A 9680 BF34      00F34       20999                       OI    DSNWAF1,DSNFSTD     Set std wyl dsn flag
 003B1E 4120 0013            00013 21000                       LA    R2,DSNXN+8          Length of std pfx +8
 003B22 1902                       21001                       CR    R0,R2               Is that the length?
 003B24 4720 7046            03B36 21002                       BH    DODSNNS             Br if not
 003B28 D507 B8AB BE67 008AB 00E67 21003                       CLC   CPLIB,DSNWADSN+DSNXN  Is a wylbur lib?
 003B2E 4770 7046            03B36 21004                       BNE   DODSNNS             Br if not
 003B32 9620 BF34      00F34       21005                       OI    DSNWAF1,DSNFWLIB    Say so
 003B36 18D8/9808 D004_            21006              DODSNNS  PEND  ,
 DROP   *,R7
                                   21027                       DROP  BR
1OPT      (OPT2025) (12:50) (15MAR04) Dsname Attribute and Possession Routines                                              Page   59
0Current Usings:  (CP,R11) (CV,R12)
0Loc    Object Code    Addr1 Addr2  Stmt Lv Lineno    Source Statement           (Hibal 5, Asmedit 3.3)  HLASM R4.0  2004/03/15 12.50
+___    ______ ____    _____ _____  ____ __ ______    ______ _________
0                                  21032              ***  routine to set dsname possession flags
                                   21033              *
 003B44 50E0 D000/9008_      00000 21034              DSNUDSDO XPROC ,
 USING  *,R7
 003B5E 50F0 D000/41D0_      00000 21074                       XPUSH R15
 003B66 94DF BF37      00F37       21077                       CLEAR DSNFBADN            Assume a-ok dsname
 003B6A 9104 BD58/4710_00D58       21084                       IF    ~CPFGEN,BEGIN       Not a GDG...
 003B72 58E0 711E/0DEE       03C7C 21099  1                      ACALL DSNCHK              Is it a valid os dsname?
 003B78 4780 7022/9620_      03B80 21103  1                      IF    NZ,'SET DSNFBADN'   Flag as invalid
 003B80                            21125                       END
                                   21129
 003B80 94BF BF34      00F34       21130                       NI    DSNWAF1,255-DSNFMYDS  reset
 003B84 9180 BF34      00F34       21131                       TM    DSNWAF1,DSNFSTD     Is it std data set?
 003B88 4780 70CE            03C2C 21132                       BZ    DODSNSX             Br if not
 003B8C D501 BE60 B3B7 00E60 003B7 21133                       CLC   DSNWADSN+DSNXG(DSNXGL-1),CPSGRP  his group?
 003B92 4770 7050            03BAE 21134                       BNE   DODSNGSV            Br no to test saved group
 003B96 D502 BE63 B3B4 00E63 003B4 21135                       CLC   DSNWADSN+DSNXU(DSNXUL-1),CPSUSER  his id?
 003B9C 4780 70CA            03C28 21136                       BE    DODSNSMY            Br if yes
 003BA0 D502 BE63 71B9 00E63 03D17 21137                       CLC   DSNWADSN+DSNXU(DSNXUL-1),=C'&PUBUSER'  pub?
 003BA6 4770 7050            03BAE 21138                       BNE   DODSNGSV            Br no to test saved group
 003BAA 47F0 70CA            03C28 21139                       B     DODSNSMY
                                   21140
 003BAE 9180 B476      00476       21141              DODSNGSV TM    CPGFLG3,CPFKWENT    Did user give kw for save grp
 003BB2 4780 707A            03BD8 21142                       BZ    DODSNSA             no, don't test saved group
 003BB6 D501 BE60 B1BB 00E60 001BB 21143                       CLC   DSNWADSN+DSNXG(DSNXGL-1),CPGRPSV  saved group?
 003BBC 4770 707A            03BD8 21144                       BNE   DODSNSA             Br if not
 003BC0 D502 BE63 B1B8 00E63 001B8 21145                       CLC   DSNWADSN+DSNXU(DSNXUL-1),CPUSERSV  saved user?
 003BC6 4780 70CA            03C28 21146                       BE    DODSNSMY            Br yes to set my data set
 003BCA D502 BE63 71B9 00E63 03D17 21147                       CLC   DSNWADSN+DSNXU(DSNXUL-1),=C'&PUBUSER'  pub?
 003BD0 4780 70CA            03C28 21148                       BE    DODSNSMY            Br yes to set my data set
 003BD4 47F0 70CE            03C2C 21149                       B     DODSNSX             Br to set not mine
                                   21150
 003BD8 D604 B7F8 B7F8_007F8 007F8 21151              DODSNSA  IF    (CPPACCT,NZ),BEGIN  Check PACCOUNT...
 003BE2 9180 B758/47E0_00758       21168  1                      IF    ~CPFEXEC,EXIT       Only in exec mode
 003BEA D501 BE60 B7FB 00E60 007FB 21186  1                      CLC   DSNWADSN+DSNXG(DSNXGL-1),CPPGRP  PACCT group?
 003BF0 4770 70A0            03BFE 21187  1                      IF    NE,EXIT             No
 003BF4 D502 BE63 B7F8 00E63 007F8 21201  1                      CLC   DSNWADSN+DSNXU(DSNXUL-1),CPPUSER  PACCT user?
 003BFA 4780 70CA            03C28 21202  1                      BE    DODSNSMY            Br if yes
 003BFE                            21203                       END
                                   21207
 003BFE 9140 B477      00477       21208                       TM    CPGFLG4,CPFAUSET    Authority field set?
 003C02 4780 70CE            03C2C 21209                       BZ    DODSNSX             no, don't test auth group
 003C06 D501 BE60 B8A7 00E60 008A7 21210                       CLC   DSNWADSN+DSNXG(DSNXGL-1),CPAUTHGP  auth group?
 003C0C 4770 70CE            03C2C 21211                       BNE   DODSNSX             Br if not
 003C10 D502 BE63 B8A4 00E63 008A4 21212                       CLC   DSNWADSN+DSNXU(DSNXUL-1),CPAUTHUS  auth user?
 003C16 4780 70CA            03C28 21213                       BE    DODSNSMY            Br yes to set my data set
 003C1A D502 BE63 71B9 00E63 03D17 21214                       CLC   DSNWADSN+DSNXU(DSNXUL-1),=C'&PUBUSER'  pub?
 003C20 4780 70CA            03C28 21215                       BE    DODSNSMY            Br yes to set my data set
 003C24 47F0 70CE            03C2C 21216                       B     DODSNSX             Exit
                                   21217
 003C28 9640 BF34      00F34       21218              DODSNSMY OI    DSNWAF1,DSNFMYDS    Set my data set flag
 003C2C 4BD0 715C/58F0_      03CBA 21219              DODSNSX  XPOP  R15
 003C34 18D8/9808 D004_            21222                       PEND  ,
 DROP   *,R7
1OPT      (OPT2025) (12:50) (15MAR04) Dsname Attribute and Possession Routines                                              Page   60
0Current Usings:  (CP,R11) (CV,R12)
0Loc    Object Code    Addr1 Addr2  Stmt Lv Lineno    Source Statement           (Hibal 5, Asmedit 3.3)  HLASM R4.0  2004/03/15 12.50
+___    ______ ____    _____ _____  ____ __ ______    ______ _________
0                                  21243                       QLTORG
1OPT      (OPT2025) (12:50) (15MAR04) Dsname Attribute and Possession Routines                                              Page   61
0Current Usings:  (CP,R11) (CV,R12)
0Loc    Object Code    Addr1 Addr2  Stmt Lv Lineno    Source Statement           (Hibal 5, Asmedit 3.3)  HLASM R4.0  2004/03/15 12.50
+___    ______ ____    _____ _____  ____ __ ______    ______ _________
0                                  21279              ¿þþþþþþþþþþþþþþþþþþþþþþþþþþþþþþþþþþþþþþþþþþþþþþþþþþþþþþþþþþþþþþþþþþþþþÜ
                                   21280              Ÿ                                                                     Ÿ
                                   21281              Ÿ  DSNCHK -- Routine to check that dsname conforms to OS              Ÿ
                                   21282              Ÿ    data set name conventions.                                       Ÿ
                                   21283              Ÿ                                                                     Ÿ
                                   21284              Ÿ      On entry:                                                      Ÿ
                                   21285              Ÿ        DSNWA - contains dsname, etc.                                Ÿ
                                   21286              Ÿ                                                                     Ÿ
                                   21287              Ÿ      On exit, R15 (and CC):                                         Ÿ
                                   21288              Ÿ        0 - ok                                                       Ÿ
                                   21289              Ÿ        4 - bad os dsname                                            Ÿ
                                   21290              Ÿ        8 - bad chars in dsname                                      Ÿ
                                   21291              Ÿ                                                                     Ÿ
                                                      ¾þþþþþþþþþþþþþþþþþþþþþþþþþþþþþþþþþþþþþþþþþþþþþþþþþþþþþþþþþþþþþþþþþþþþþ»
0003D20 50E0 D000/9008_      00000 21292              DSNCHK   PROC  ,
 USING  *,R7
 003D3A 1BFF                       21331                       CLEAR R15                 Assume ok
                                   21335
 003D3C 4160 BE5C            00E5C 21336                       LA    R6,DSNWADSN
 003D40 4850 BF06/1255       00F06 21337                       LTH   R5,DSNWANL
 003D46 47D0 706C            03DA6 21341                       BNP   DSNRC4              Null dsname is n.g.
                                   21342
 003D4A 4140 0008            00008 21343                       LA    R4,8                Max no. of chars per level
 003D4E 4130 0002            00002 21344                       LA    R3,2                Allow dot, alpha, or national
 003D52 1255/47D0 7068             21345                       WHILE (R5,POS),BEGIN
 003D58 1F22/4320 6000             21361  1                      LC    R2,@R6              Get char
 003D5E 1F00/4302 707E             21368  1                      LC    R0,DSNCHR(R2)       Get char type
 003D64 1200/4770 7040             21373  1                      IF    (R0,Z),BEGIN        It's a dot...
 003D6A 5940 7246/47A0_      03F80 21387  2                        IF    (R4,GE,8),DSNRC4    Dot can't be first char
 003D72 4140 0008            00008 21407  2                        LA    R4,8                Allow eight more chars
 003D76 4130 0002            00002 21408  2                        LA    R3,2                Allow dot, alpha, or national
 003D7A                            21409  1                      END
 003D7A 7044/47F0 705E 03D7A 03D68 21413  1                      ELSE  BEGIN
 003D7E 1903/47D0 7052_            21424  2                        IF    (R0,GT,R3),'LA R15,8; B DSNCHKX'  bad chars
 003D8C 0640                       21446  2                        DECR  R4
 003D8E 1244/4740 706C             21448  2                        IF    (R4,NEG),DSNRC4     Over 8 chars w/o a dot
 003D94 4130 0003            00003 21465  2                        LA    R3,3                Allow numbers too now
 003D98                            21466  1                      END
 003D98 4160 6001            00001 21470  1                      LA    R6,@R6+1
 003D9C 0650                       21471  1                      DECR  R5
 003D9E 47F0 7018            03D52 21473                       END
 003DA2 47F0 7070            03DAA 21478                       B     DSNCHKX             All done, aok -- scram
                                   21479
 003DA6 41F0 0004            00004 21480              DSNRC4   LA    R15,4
 003DAA 18D8/9808 D004_            21481              DSNCHKX  PEND  ,
 DROP   *,R7
1OPT      (OPT2025) (12:50) (15MAR04) Dsname Attribute and Possession Routines                                              Page   62
0Current Usings:  (CP,R11) (CV,R12)
0Loc    Object Code    Addr1 Addr2  Stmt Lv Lineno    Source Statement           (Hibal 5, Asmedit 3.3)  HLASM R4.0  2004/03/15 12.50
+___    ______ ____    _____ _____  ____ __ ______    ______ _________
0                                  21503                       ¿þþþþþþþþþþþþþþþþþþþþþþþþþþþþþþþþþÜ
                                   21504                       Ÿ   Dsname character type table.  Ÿ
                                   21505                       Ÿ                                 Ÿ
                                   21506                       Ÿ  0 - Dot (.)                    Ÿ
                                   21507                       Ÿ  1 - Alphabetic                 Ÿ
                                   21508                       Ÿ  2 - National ($,@,#)           Ÿ
                                   21509                       Ÿ  3 - Numeric                    Ÿ
                                   21510                       Ÿ      255 - Everything else      Ÿ
                                   21511                       ¾þþþþþþþþþþþþþþþþþþþþþþþþþþþþþþþþþ»
 003DB8 FFFFFFFFFFFFFFFF           21512              DSNCHR   DC    256X'FF'
 003EB8                03EB8 03E03 21513                       ORG   DSNCHR+C'.'
 003E03 00                         21514                       DC    X'00'
 003E04                03E04 03E79 21515                       ORG   DSNCHR+C'A'
 003E79 0101010101010101           21516                       DC    X'010101010101010101'
 003E82                03E82 03E89 21517                       ORG   DSNCHR+C'J'
 003E89 0101010101010101           21518                       DC    X'010101010101010101'
 003E92                03E92 03E9A 21519                       ORG   DSNCHR+C'S'
 003E9A 0101010101010101           21520                       DC    X'0101010101010101'
 003EA2                03EA2 03E13 21521                       ORG   DSNCHR+C'$'
 003E13 02                         21522                       DC    X'02'
 003E14                03E14 03E34 21523                       ORG   DSNCHR+C'@'
 003E34 02                         21524                       DC    X'02'
 003E35                03E35 03E33 21525                       ORG   DSNCHR+C'#'
 003E33 02                         21526                       DC    X'02'
 003E34                03E34 03EA8 21527                       ORG   DSNCHR+C'0'
 003EA8 0303030303030303           21528                       DC    X'03030303030303030303'
 003EB2                03EB2 03EB8 21529                       ORG
1OPT      (OPT2025) (12:50) (15MAR04) Dsname Attribute and Possession Routines                                              Page   63
0Current Usings:  (CP,R11) (CV,R12)
0Loc    Object Code    Addr1 Addr2  Stmt Lv Lineno    Source Statement           (Hibal 5, Asmedit 3.3)  HLASM R4.0  2004/03/15 12.50
+___    ______ ____    _____ _____  ____ __ ______    ______ _________
0                                  21531              ¿þþþþþþþþþþþþþþþþþþþþþþþþþþþþþþþþþþþþþþþþþþþþþþþþþþþþþþþþþþþþþþþþþþþþþÜ
                                   21532              Ÿ                                                                     Ÿ
                                   21533              Ÿ  HOSTCHK -- Routine to check to see if name passed is               Ÿ
                                   21534              Ÿ    the name of another host computer on the network.                Ÿ
                                   21535              Ÿ                                                                     Ÿ
                                   21536              Ÿ    On entry:                                                        Ÿ
                                   21537              Ÿ      DSNON = possible host name                                     Ÿ
                                   21538              Ÿ                                                                     Ÿ
                                   21539              Ÿ    On exit, R15 (and cc):                                           Ÿ
                                   21540              Ÿ      0 - yes, this is a host name                                   Ÿ
                                   21541              Ÿ      4 - no, it is not a host name                                  Ÿ
                                   21542              Ÿ                                                                     Ÿ
                                                      ¾þþþþþþþþþþþþþþþþþþþþþþþþþþþþþþþþþþþþþþþþþþþþþþþþþþþþþþþþþþþþþþþþþþþþþ»
0003EB8 50E0 D000/9008_      00000 21543              HOSTCHK  PROC
 USING  *,R7
 003ED2 4110 BE90/4100_      00E90 21582                       SETMSG DSNON               Possible host name
 003EDA 58E0 70B2/0DEE       03F84 21596                       VCALL RTRIM               Get length
 003EE0 5900 70B6/4740_      03F88 21600                       IF    (R0,LT,2),HOSTNO    Too short, can't be host name
 003EE8 5900 70BA/4720_      03F8C 21620                       IF    (R0,GT,6),HOSTYES   Too long for OS volume
                                   21640                       ¿þþþþþþþþþþþþþþþþþþþþþþþþþþþþþþþþþþþþþþþþþþþþþþþþþþþþþþÜ
                                   21641                       Ÿ  Check for "aaannn" (a=alpha,n=numeric) style name.  Ÿ
                                   21642                       Ÿ    If we find a name like this then assume it is a   Ÿ
                                   21643                       Ÿ    disk volume name.                                 Ÿ
                                   21644                       ¾þþþþþþþþþþþþþþþþþþþþþþþþþþþþþþþþþþþþþþþþþþþþþþþþþþþþþþ»
 003EF0 5900 70BA/4770_      03F8C 21645                       IF    (R0,EQ,6),BEGIN     Exactly 6 characters...
                                   21662  1         C            IF    ((DSNON,GE,'A'),AND,(DSNON,LE,'Z'),AND,
                                          1         C                  (DSNON+1,GE,'A'),AND,(DSNON+1,LE,'Z'),AND,
                                          1         C                  (DSNON+2,GE,'A'),AND,(DSNON+2,LE,'Z'),AND,
                                          1         C                  (DSNON+3,GE,'0'),AND,(DSNON+3,LE,'9'),AND,
                                          1         C                  (DSNON+4,GE,'0'),AND,(DSNON+4,LE,'9'),AND,
 003EF8 95C1 BE90/4750_00E90              1                            (DSNON+5,GE,'0'),AND,(DSNON+5,LE,'9')),HOSTNO
 003F58                            21838                       END
                                   21842                       ¿þþþþþþþþþþþþþþþþþþþþþþþþþþþþþþþþþþþþþþþþþþþþþþþþþþþþþþþþþþþÜ
                                   21843                       Ÿ  Check the volume table to see if this is a disk volume.  Ÿ
                                   21844                       ¾þþþþþþþþþþþþþþþþþþþþþþþþþþþþþþþþþþþþþþþþþþþþþþþþþþþþþþþþþþþ»
 003F58 4110 BE90            00E90 21845                       LA    R1,DSNON
 003F5C 58E0 70BE/0DEE       03F90 21846                       VCALL VOLCHK              Is this a disk volume?
 003F62 4770 709C            03F6E 21850                       BNZ   HOSTYES             No, then maybe it's a host
                                   21851
 003F66 41F0 0004            00004 21852              HOSTNO   LA    R15,4               It's not a host name
 003F6A 47F0 709E            03F70 21853                       B     HOSTEXIT
                                   21854
 003F6E 1BFF                       21855              HOSTYES  CLEAR R15                 It is a host name
 003F70 18D8/9808 D004_            21860              HOSTEXIT PEND
 DROP   *,R7
1OPT      (OPT2025) (12:50) (15MAR04) Dsname Attribute and Possession Routines                                              Page   64
0Current Usings:  (CP,R11) (CV,R12)
0Loc    Object Code    Addr1 Addr2  Stmt Lv Lineno    Source Statement           (Hibal 5, Asmedit 3.3)  HLASM R4.0  2004/03/15 12.50
+___    ______ ____    _____ _____  ____ __ ______    ______ _________
0                                  21882                       QLTORG
1OPT      (OPT2025) (12:50) (15MAR04) Dsname Parameter Scan Routines                                                        Page   65
0Current Usings:  (CP,R11) (CV,R12)
0Loc    Object Code    Addr1 Addr2  Stmt Lv Lineno    Source Statement           (Hibal 5, Asmedit 3.3)  HLASM R4.0  2004/03/15 12.50
+___    ______ ____    _____ _____  ____ __ ______    ______ _________
0                                  21900              * the dsname parameter scan routines are used by including
                                   21901              * a push pointer to dsnprt in the scan table for a command.
                                   21902              * these routines recognize group and user overrides. at the
                                   21903              * end of the scan of a line, the routine dsnfin completes
                                   21904              * processing of these parameters and must be called.
                                   21905              *
                                   21906              *
                                   21907              *
                                   21908              * dsnprtf is the scanner prt used by use, save, exec from,
                                   21909              * and copy from to recognize format dsname keywords as well
                                   21910              * as the normal dsname keywords.
                                   21911              *
 003F94 50E0 D000/9008_      00000 21912              DSNPSH   XPUSHRTN DSNPRT
 USING  *,R7
 DROP   *,R7
 003FCA 50E0 D000/9008_      00000 21980              DSNPSHF  XPUSHRTN DSNPRTF
 USING  *,R7
 DROP   *,R7
 004000 50E0 D000/9008_      00000 22048              DSNPSHON XPUSHRTN DSNPRTON
 USING  *,R7
 DROP   *,R7
                                   22116
 004038 C5C4C9E340404040_          22117              DSNPRTF  SCKW  EDIT,EDITA,A
 004060 D5C5E6C5C4C9E340_          22132                       SCKW  NEWEDIT,NEWEDIT
 004088 D6D3C4C5C4C9E340_          22147                       SCKW  OLDEDIT,OLDEDIT
 0040B0 C3C1D9C440404040_          22162                       SCKW  CARD,CARDA,A
 0040D8 D7D9C9D5E3404040_          22177                       SCKW  PRINT,PRNTA,A
 004100 E3C1C2E240404040_          22192                       SCKW  TABS,TABS,A
 004128 D5D6E3C1C2E24040_          22207                       SCKW  NOTABS,NOTABS,A
 004150 E4D5C6D6D9D4C1E3_          22222                       SCKW  UNFORMATTED,UNFMT,A
 004178 C6D6D9D4C1E3E3C5_          22237                       SCKW  FORMATTED,FMT,A
 0041A0 E3C5E7E3D6D5D3E8_          22252                       SCKW  TEXTONLY,TEXTONLY,A
 0041C8 E3D9C1D5E2D7C1D9_          22267                       SCKW  TRANSPARENT,TRANS,A
 0041F0 C4E3D9C1D5E2D7C1_          22282                       SCKW  DTRANSPARENT,DTRANS,A
 004218 C1E2C3C9C9404040_          22297                       SCKW  ASCII,ASCII,A
 004240 C5C2C3C4C9C34040_          22312                       SCKW  EBCDIC,EBCDIC,A
 004268 E6D9C1D740404040_          22327                       SCKW  WRAP,WRAP,(A,P,PI),&LINESZ
 004290 E2D7D3C9E3404040_          22342                       SCKW  SPLIT,SPLIT,(A,P,PI),&LINESZ
 0042B8 D3D9C5C3D3404040_          22357                       SCKW  LRECL,LRECLA,(P,PI,A),256
 0042E0 C3D6C4C540404040_          22372                       SCKW  CODE,CNVCODE,(P,A)
 004308 4040404040404040_          22387                       SCKW  ,NUMPSH,PUSH
 004330 E2C5D8C6D3C44040_          22402                       SCKW  SEQFLD,SETSEQ,(A,P)
                                   22417              *
                                   22418              * dsnprt is the scanner prt used by all of wylbur to
                                   22419              * recognize dsname keywords.
                                   22420              *
 004358 D6D5404040404040_          22421              DSNPRT   SCKW  ON,HAVOLM
 004380 E5D6D3E4D4C54040_          22436                       SCKW  VOLUME,HAVOLM,A
 0043A8 E6C9D5C7E2404040_          22451                       SCKW  WINGS,V(SCNNOOP)    ALLOW, IGNORE TYPES IN
 0043D0 E4D5C9E740404040_          22466                       SCKW  UNIX,V(SCNNOOP)     OLD FILE OPTIONS SCANNING
 0043F8 E2C1D4E2D6D54040_          22481                       SCKW  SAMSON,V(SCNNOOP),A
 004420 D5C5E34040404040_          22496                       SCKW  NET,V(SCNNOOP)
 004448 D6D3C4C9C2D44040_          22511                       SCKW  OLDIBM,V(SCNNOOP),A
 004470 E3C5D4D7D6D9C1D9_          22526                       SCKW  TEMPORARY,HAVTEMP,A
1OPT      (OPT2025) (12:50) (15MAR04) Dsname Parameter Scan Routines                                                        Page   66
0Current Usings:  (CP,R11) (CV,R12)
0Loc    Object Code    Addr1 Addr2  Stmt Lv Lineno    Source Statement           (Hibal 5, Asmedit 3.3)  HLASM R4.0  2004/03/15 12.50
+___    ______ ____    _____ _____  ____ __ ______    ______ _________
0004498 E2C5E34040404040_          22541                       SCKW  SET,SETSET
 0044C0 D5D6E2C5E3404040_          22556                       SCKW  NOSET,SETNOSET,A
 0044E8 D7E4C2D3C9C34040_          22571                       SCKW  PUBLIC,HAVPUB,A
 004510 C7E4C5E2E3404040_          22586                       SCKW  GUEST,HAVGUEST,A
 004538 D5D6C5D5D8E4C5E4_          22601                       SCKW  NOENQUEUE,NOENQ,A
 004560 4040404040404040_          22616                       SCKW  ,ACCTPSH,PUSH
 004588 4040404040404040_          22631                       SCKW  ,,END
                                   22646
 0045B0 D6D5404040404040_          22647              DSNPRTON SCKW  ON,HAVOLM
 0045D8 E5D6D3E4D4C54040_          22662                       SCKW  VOLUME,HAVOLM,A
 004600 4040404040404040_          22677                       SCKW  ,,END
                                   22692
 004628 4040404040404040_          22693              SEQPRT1  SCKW  ,SEQF1NUL,NULL
 004650 4040404040404040_          22708                       SCKW  ,SEQF1NUM,I
 004678 C5D5C44040404040_          22723                       SCKW  END,SEQF1END
 0046A0 4040404040404040_          22738                       SCKW  ,SEQFBAD
                                   22753
 0046C8 4040404040404040_          22754              SEQPRT2  SCKW  ,SEQF2NUL,NULL
 0046F0 4040404040404040_          22769                       SCKW  ,SEQF2NUM,I
 004718 4040404040404040_          22784                       SCKW  ,SEQFBAD
                                   22799
 004740 4040404040404040_          22800              SEQPRT3  SCKW  ,SEQFBAD
                                   22815
1OPT      (OPT2025) (12:50) (15MAR04) Dsname Parameter Scan Routines                                                        Page   67
0Current Usings:  (CP,R11) (CV,R12)
0Loc    Object Code    Addr1 Addr2  Stmt Lv Lineno    Source Statement           (Hibal 5, Asmedit 3.3)  HLASM R4.0  2004/03/15 12.50
+___    ______ ____    _____ _____  ____ __ ______    ______ _________
0                                  22817              *
                                   22818              *        DSN PARAMETER SCANNING ROUTINES
                                   22819              *
 004768 50E0 D000/9008_      00000 22820              HAVTEMP  PROC
 USING  *,R7
 004782 58E0 75F6/0DEE       04D78 22859                       VCALL EXIT2               Get scratch volser
 004788 5900 75FA/47D0_      04D7C 22863                       CEIL  R0,L'DSNON
 004794 D227 BE90 C4D8 00E90 004D8 22882                       MVC   DSNON,CVBLANKS
 00479A 18F0                       22883                       LR    R15,R0
 00479C 06F0/12FF/4740_            22884                       MOVE  R15,DSNON,@R1       Set volume name
 0047A8 1BFF                       22922                       CLEAR R15
 0047AA 18D8/9808 D004_            22926                       PEND
 DROP   *,R7
                                   22946
 000000                00000 00200 22947              HAVONWA  RECORD BEGIN
 000000                            22955  1           HAVOSKIP   DS    CL256
 000100                            22956  1           HAVOSTOP   DS    CL256
 000200                00200 00200 22957                       END
                                   22966              *
                                   22967              *
 0047B8 50E0 D000/9008_      00000 22968              HAVOLM   PROC  HAVONWA
 USING  *,R7
 USING  HAVONWA-(4+36),R8
                                   23018
                                   23019                       COMMENT                   SIMPLE SCAN
 0047D2 5810 B08C/1B00_      0008C 23020                       SCANSTR ,                 SCAN STRING INCLUDING ODD CHARS
 004818 12FF/47B0 7050_            23049                       IF    (R15,NEG),' EXIT HAVOLM '
 004822 1200/4720 7072             23071                       IF    (R0,NP),BEGIN       IF NOTHING MORE ,,,
 004828 9110 BD5C/47E0_00D5C       23085  1                      IF    CPFDSNNE,BEGIN      Error suppression requested?
 004830 9608 BD5C      00D5C       23100  2                        SET   CPFDSNBD
 004834 47F0 70C2            04894 23106  2                        EXIT  HAVOLM
 004838                            23109  1                      END
 004838 4110 75C4/4100_      04D96 23113  1                      ERROR 'Missing disk/host name after "ON".'
 004844                            23120                       END
                                   23124
 004844 5900 75AA/47D0_      04D7C 23125                       CEIL  R0,L'DSNON
 004850 D227 BE90 C4D8 00E90 004D8 23144                       MVC   DSNON,CVBLANKS      Pre-blank
 004856 18F0                       23145                       LR    R15,R0
 004858 06F0/12FF/4740_            23146                       MOVE  R15,DSNON,@R1       Save volume/host name
 004864 58F0 C8A8            008A8 23184                       L     R15,CVUPPTBL
 004868 DC27 BE90 F000 00E90 00000 23185                       TR    DSNON,@R15          Convert to upper case
                                   23186
                                   23187            C          IF    ((DSNON,EQ,'CATALOG '),OR,(DSNON,EQ,'CATLG '),
 00486E D507 756E BE90_04D40 00E90                                   OR,(DSNON,EQ,'CAT ')),'CLEAR DSNON'  Reset volume
 004892 1BFF                       23246                       CLEAR R15
 004894 18D8/9808 D004_            23250                       PEND
 DROP   HAVONWA-(4+36),R8
 DROP   *,R7
                                   23275
 0048A2 50E0 D000/9008_      00000 23276              SETSET   DPROC ,
 USING  *,R7
 0048BC 9680 BD52      00D52       23316                       OI    CPLFLG3,CPFSET      Turn on set operand
 0048C0 18D8/9808 D004_            23317                       PEND  ,
 DROP   *,R7
1OPT      (OPT2025) (12:50) (15MAR04) Dsname Parameter Scan Routines                                                        Page   68
0Current Usings:  (CP,R11) (CV,R12)
0Loc    Object Code    Addr1 Addr2  Stmt Lv Lineno    Source Statement           (Hibal 5, Asmedit 3.3)  HLASM R4.0  2004/03/15 12.50
+___    ______ ____    _____ _____  ____ __ ______    ______ _________
0                                  23337
 0048CE 50E0 D000/9008_      00000 23338              SETNOSET DPROC ,
 USING  *,R7
 0048E8 947F BD52      00D52       23378                       NI    CPLFLG3,255-CPFSET  Turn off set flag
 0048EC 18D8/9808 D004_            23379                       PEND  ,
 DROP   *,R7
                                   23399
 0048FA 50E0 D000/9008_      00000 23400              HAVGUEST PROC  ,
 USING  *,R7
 004914 D21F BEC4 7434 00EC4 04D48 23439                       MVC   DSNNUSER,=CL(L'DSNNUSER)'guest'
 00491A D21F BEE4 C4D8 00EE4 004D8 23440                       MVC   DSNNPASS,CVBLANKS
 004920 18D8/9808 D004_            23441                       PEND  ,
 DROP   *,R7
                                   23461
 00492E 50E0 D000/9008_      00000 23462              HAVPUB   PROC  ,
 USING  *,R7
 004948 D204 BC48 7476 00C48 04DBE 23501                       MVC   CPCACCT,=C'&PUBUSER&PUBGRP'  Public account
 00494E 18D8/9808 D004_            23502                       PEND  ,
 DROP   *,R7
                                   23522
 00495C 50E0 D000/9008_      00000 23523              CNVCODE  XPROC ,
 USING  *,R7
 004976 18F0                       23563                       LR    R15,R0              Load length of code string
 004978 59F0 7412/4740_      04D88 23564                       IF    ((R15,LT,8),OR,(R15,GT,16)),BEGIN
 004988 4110 744D/4100_      04DC3 23597  1                      ERROR 'CODE must be 8-16 characters in length.'
 004994                            23604                       END
 004994 D70F D000 D000 00000 00000 23608                       CLEAR (@R13,16)           Clear work area
 00499A 9620 BF38      00F38       23615                       SET   DSNFCODE            Set encode/decode flag
 00499E 06F0/44F0 7484_            23621                       DEX   R15,'MVC @R13(0),@R1'  Move code str to work area
 0049A4 58F0 D000            00000 23640                       L     R15,@R13            Load 1st four bytes
 0049A8 5EF0 D004            00004 23641                       AL    R15,@R13+4          Add 2nd four bytes
 0049AC 5EF0 D008            00008 23642                       AL    R15,@R13+8          Add 3rd four bytes
 0049B0 5EF0 D00C            0000C 23643                       AL    R15,@R13+12         Add 4th four bytes
 0049B4 10FF                       23644                       LPR   R15,R15             Make code value positive
 0049B6 50F0 BF5C            00F5C 23645                       ST    R15,DSNCODE         Store code value
 0049BA 1BFF                       23646                       CLEAR R15
 0049BC 18D8/9808 D004_            23650                       PEND  ,
 DROP   *,R7
                                   23670
 0049CA 50E0 D000/9008_      00000 23671              LRECLA   DPROC ,
 USING  *,R7
 0049E4 5000 BD9C            00D9C 23711                       ST    R0,CPLRCL          Set LRECL
 0049E8 18D8/9808 D004_            23712                       PEND  ,
 DROP   *,R7
                                   23732
 0049F6 50E0 D000/9008_      00000 23733              NEWEDIT  DPROC ,
 USING  *,R7
 004A10 9680 BE28      00E28       23773                       SET   CPFNEWED            NEWEDIT
 004A14 D703 BD9C BD9C 00D9C 00D9C 23779                       CLEAR CPLRCL              Set Edit format
 004A1A 18D8/9808 D004_            23786                       PEND  ,
 DROP   *,R7
                                   23806
 004A28 50E0 D000/9008_      00000 23807              OLDEDIT  DPROC ,
 USING  *,R7
1OPT      (OPT2025) (12:50) (15MAR04) Dsname Parameter Scan Routines                                                        Page   69
0Current Usings:  (*,R7) (CP,R11) (CV,R12)
0Loc    Object Code    Addr1 Addr2  Stmt Lv Lineno    Source Statement           (Hibal 5, Asmedit 3.3)  HLASM R4.0  2004/03/15 12.50
+___    ______ ____    _____ _____  ____ __ ______    ______ _________
0004A42 947F BE28      00E28       23847                       CLEAR CPFNEWED            OLDEDIT
 004A46 D703 BD9C BD9C 00D9C 00D9C 23854                       CLEAR CPLRCL              Set Edit format
 004A4C 18D8/9808 D004_            23861                       PEND  ,
 DROP   *,R7
                                   23881
 004A5A 50E0 D000/9008_      00000 23882              EDITA    DPROC ,
 USING  *,R7
 004A74 D703 BD9C BD9C 00D9C 00D9C 23922                       CLEAR CPLRCL              Set Edit format
 004A7A 18D8/9808 D004_            23929                       PEND  ,
 DROP   *,R7
                                   23949
 004A88 50E0 D000/9008_      00000 23950              CARDA    DPROC ,
 USING  *,R7
 004AA2 4100 0050            00050 23990                       LA    R0,80
 004AA6 5000 BD9C            00D9C 23991                       ST    R0,CPLRCL           Set CARD format
 004AAA 18D8/9808 D004_            23992                       PEND  ,
 DROP   *,R7
                                   24012
 004AB8 50E0 D000/9008_      00000 24013              PRNTA    DPROC ,
 USING  *,R7
 004AD2 4100 0085            00085 24053                       LA    R0,133
 004AD6 5000 BD9C            00D9C 24054                       ST    R0,CPLRCL           Set PRINT format
 004ADA 18D8/9808 D004_            24055                       PEND  ,
 DROP   *,R7
                                   24075
 004AE8 50E0 D000/9008_      00000 24076              TABS     DPROC ,
 USING  *,R7
 004B02 9602 BF39      00F39       24116                       SET   DSNFTABS            Keep TAB characters in data
 004B06 18D8/9808 D004_            24122                       PEND  ,
 DROP   *,R7
                                   24142
 004B14 50E0 D000/9008_      00000 24143              NOTABS   DPROC ,
 USING  *,R7
 004B2E 94FD BF39      00F39       24183                       CLEAR DSNFTABS            Expand TAB characters in data
 004B32 18D8/9808 D004_            24190                       PEND  ,
 DROP   *,R7
                                   24210
 004B40 50E0 D000/9008_      00000 24211              FMT      DPROC ,
 USING  *,R7
 004B5A 94FC BF39      00F39       24251                       CLEAR DSNFUFMT+DSNFTABS   FORMATTED
 004B5E 18D8/9808 D004_            24261                       PEND  ,
 DROP   *,R7
                                   24281
 004B6C 50E0 D000/9008_      00000 24282              UNFMT    DPROC ,
 USING  *,R7
 004B86 9603 BF39      00F39       24322                       SET   DSNFUFMT+DSNFTABS   UNFORMATTED
 004B8A 18D8/9808 D004_            24331                       PEND  ,
 DROP   *,R7
                                   24351
 004B98 50E0 D000/9008_      00000 24352              TEXTONLY DPROC ,
 USING  *,R7
 004BB2 9680 BF3A      00F3A       24392                       SET   DSNFTEXTONLY        TEXTONLY
 004BB6 18D8/9808 D004_            24398                       PEND  ,
 DROP   *,R7
1OPT      (OPT2025) (12:50) (15MAR04) Dsname Parameter Scan Routines                                                        Page   70
0Current Usings:  (CP,R11) (CV,R12)
0Loc    Object Code    Addr1 Addr2  Stmt Lv Lineno    Source Statement           (Hibal 5, Asmedit 3.3)  HLASM R4.0  2004/03/15 12.50
+___    ______ ____    _____ _____  ____ __ ______    ______ _________
0                                  24418
 004BC4 50E0 D000/9008_      00000 24419              TRANS    DPROC
 USING  *,R7
 004BDE 9680 BF39      00F39       24459                       SET   DSNFTRAN            Set TRANSPARENT format
 004BE2 18D8/9808 D004_            24465                       PEND
 DROP   *,R7
                                   24485
 004BF0 50E0 D000/9008_      00000 24486              DTRANS   DPROC
 USING  *,R7
 004C0A 9684 BF39      00F39       24526                       SET   DSNFDTRAN+DSNFTRAN  Set DTRANSPARENT format
 004C0E 18D8/9808 D004_            24535                       PEND
 DROP   *,R7
                                   24555
 004C1C 50E0 D000/9008_      00000 24556              ASCII    DPROC
 USING  *,R7
 004C36 9640 BF3A      00F3A       24596                       SET   DSNFASCII           ASCII
 004C3A 94DF BF3A      00F3A       24602                       CLEAR DSNFEBCDIC          Not EBCDIC
 004C3E 18D8/9808 D004_            24609                       PEND
 DROP   *,R7
                                   24629
 004C4C 50E0 D000/9008_      00000 24630              EBCDIC   DPROC
 USING  *,R7
 004C66 9620 BF3A      00F3A       24670                       SET   DSNFEBCDIC          EBCDIC
 004C6A 94BF BF3A      00F3A       24676                       CLEAR DSNFASCII           Not ASCII
 004C6E 18D8/9808 D004_            24683                       PEND
 DROP   *,R7
                                   24703
 004C7C 50E0 D000/9008_      00000 24704              WRAP     PROC
 USING  *,R7
 004C96 D502 7154 BD24_04DEA 00D24 24743                       IF    (CPCMNM,EQ,'SAV'),BEGIN    WRAP invalid on SAVE
 004CA0 58E0 70FA/0DEE       04D90 24760  1                      VCALL NOTVALID
 004CA6                            24764                       END
 004CA6 94DF BF39      00F39       24768                       CLEAR DSNFSPLT            WRAP, not SPLIT
 004CAA 4000 BF42            00F42 24775                       STH   R0,DSNWRAPL         Save WRAP length
 004CAE 1BFF                       24776                       CLEAR R15
 004CB0 18D8/9808 D004_            24780                       PEND
 DROP   *,R7
                                   24800
 004CBE 50E0 D000/9008_      00000 24801              SPLIT    PROC  ,
 USING  *,R7
 004CD8 D502 7112 BD24_04DEA 00D24 24840                       IF    (CPCMNM,EQ,'SAV'),BEGIN    SPLIT invalid on SAVE
 004CE2 58E0 70B8/0DEE       04D90 24857  1                      VCALL NOTVALID
 004CE8                            24861                       END
 004CE8 9620 BF39      00F39       24865                       SET   DSNFSPLT            SPLIT, not WRAP
 004CEC 4000 BF42            00F42 24871                       STH   R0,DSNWRAPL         Save WRAP length
 004CF0 1BFF                       24872                       CLEAR R15
 004CF2 18D8/9808 D004_            24876                       PEND  ,
 DROP   *,R7
                                   24896
 004D00 50E0 D000/9008_      00000 24897              NOENQ    PROC  ,
 USING  *,R7
 004D1A 9120 B3BE/4710_003BE       24936                       IF    ~CPSFSPR,BEGIN      Only the strong survive ...
 004D22 58E0 7076/0DEE       04D90 24951  1                      VCALL NOTVALID
 004D28                            24955                       END
1OPT      (OPT2025) (12:50) (15MAR04) Dsname Parameter Scan Routines                                                        Page   71
0Current Usings:  (*,R7) (CP,R11) (CV,R12)
0Loc    Object Code    Addr1 Addr2  Stmt Lv Lineno    Source Statement           (Hibal 5, Asmedit 3.3)  HLASM R4.0  2004/03/15 12.50
+___    ______ ____    _____ _____  ____ __ ______    ______ _________
0004D28 9610 BF38      00F38       24959                       SET   DSNFNONQ            No enqueue on dataset
 004D2C 1BFF                       24965                       CLEAR R15
 004D2E 18D8/9808 D004_            24969                       PEND  ,
 DROP   *,R7
                                   24989
                                   24990                       QLTORG
1OPT      (OPT2025) (12:50) (15MAR04) Dsname Parameter Scan Routines                                                        Page   72
0Current Usings:  (CP,R11) (CV,R12)
0Loc    Object Code    Addr1 Addr2  Stmt Lv Lineno    Source Statement           (Hibal 5, Asmedit 3.3)  HLASM R4.0  2004/03/15 12.50
+___    ______ ____    _____ _____  ____ __ ______    ______ _________
0                                  25022              *
                                   25023              * SEQUENCE FIELD SCANNING
                                   25024              *
 004E00 50E0 D000/9008_      00000 25025              SETSEQ   PROC  ,                   TYPE HELP FORMAT-OPTIONS
 USING  *,R7
                                   25064
                                   25065                       COMMENT                   SET SEQ FLAGS
 004E1A 943F BD54      00D54       25066                       NI    CPLFLG5,255-CPFNONUM  SET NUMBERED DEFAULT
 004E1E 9610 BD54      00D54       25067                       OI    CPLFLG5,CPFFOPT     SET NUMBER OPTION GIVEN
                                   25068
                                   25069                       COMMENT                   CHECK PARENTHESIS, ETC
 004E22 1831                       25070                       LR    R3,R1
 004E24 1A30                       25071                       AR    R3,R0
 004E26 0630                       25072                       DECR  R3
 004E28 5900 72CE/4740_      050E8 25074                       IF    ((R0,LT,3),OR,(@R1,NE,'('),OR,(@R3,NE,')')),BEGIN
 004E40 58E0 72D2/0DEE       050EC 25119  1                      VCALL NOTVALID
 004E46                            25123                       END
 004E46 5E10 72D6            050F0 25127                       INCR  R1
 004E4A 5B00 72DA            050F4 25130                       S     R0,=F'2'
                                   25131
                                   25132                       COMMENT                   SCAN SEQ FIELDS
 004E4E 58E0 B08C/D2AF_      0008C 25133                       SCPUSH
 004E5C 58E0 B08C/501E_      0008C 25139                       SCINIT (R1),(R0)
 004E6A 5810 B08C/1B00_      0008C 25159                       SCAN  SEQPRT1
 004EBC 58E0 72E6/0DEE       05100 25191                       SCANCHK
 004EC2 5810 B08C/1B00_      0008C 25196                       SCAN  SEQPRT2
 004F14 58E0 72E6/0DEE       05100 25228                       SCANCHK
 004F1A 5810 B08C/1B00_      0008C 25233                       SCAN  SEQPRT3
 004F6C 58E0 72E6/0DEE       05100 25265                       SCANCHK
 004F72 58E0 B08C/4BD0_      0008C 25270                       SCPOP
                                   25276
 004F80 18D8/9808 D004_            25277                       PEND
 DROP   *,R7
                                   25297
 004F8E 50E0 D000/9008_      00000 25298              SEQF1NUL PROC  ,                   SEQ FIELD OPTIONS
 USING  *,R7
 004FA8 4110 7178/4100_      05120 25337                       ERROR 'Missing sequence field specification. '
 004FB4 18D8/9808 D004_            25344                       PEND
 DROP   *,R7
                                   25364
 004FC2 50E0 D000/9008_      00000 25365              SEQF1NUM PROC  ,
 USING  *,R7
 004FDC 5900 7130/4750_      0510C 25404                       IF    (R0,GE,&LINESZ),BEGIN
 004FE4 4110 7190/4100_      0516C 25421  1                      ERROR 'Invalid sequece field specification. '
 004FF0                            25428                       END
 004FF0 4000 BDA0            00DA0 25432                       STH   R0,CPSEQFLD
 004FF4 41F0 0004            00004 25433                       LA    R15,4
 004FF8 18D8/9808 D004_            25434                       PEND
 DROP   *,R7
                                   25454
 005006 50E0 D000/9008_      00000 25455              SEQF1END PROC  ,
 USING  *,R7
 005020 5800 70F0            05110 25494                       L     R0,=F'-1'
 005024 4000 BDA0            00DA0 25495                       STH   R0,CPSEQFLD
1OPT      (OPT2025) (12:50) (15MAR04) Dsname Parameter Scan Routines                                                        Page   73
0Current Usings:  (*,R7) (CP,R11) (CV,R12)
0Loc    Object Code    Addr1 Addr2  Stmt Lv Lineno    Source Statement           (Hibal 5, Asmedit 3.3)  HLASM R4.0  2004/03/15 12.50
+___    ______ ____    _____ _____  ____ __ ______    ______ _________
0005028 41F0 0004            00004 25496                       LA    R15,4
 00502C 18D8/9808 D004_            25497                       PEND
 DROP   *,R7
                                   25517
 00503A 50E0 D000/9008_      00000 25518              SEQF2NUL PROC  ,
 USING  *,R7
 005054 5800 70C0            05114 25557                       L     R0,=F'8'
 005058 4000 BDA0            00DA0 25558                       STH   R0,CPSEQFLD
 00505C 18D8/9808 D004_            25559                       PEND
 DROP   *,R7
                                   25579
 00506A 50E0 D000/9008_      00000 25580              SEQF2NUM PROC  ,
 USING  *,R7
 005084 5900 7094/4750_      05118 25619                       IF    (R0,GE,9),BEGIN
 00508C 4110 70E8/4100_      0516C 25636  1                      ERROR 'Invalid sequece field specification. '
 005098                            25643                       END
 005098 4000 BDA2            00DA2 25647                       STH   R0,CPSEQLN
 00509C 41F0 0004            00004 25648                       LA    R15,4
 0050A0 18D8/9808 D004_            25649                       PEND
 DROP   *,R7
                                   25669
 0050AE 50E0 D000/9008_      00000 25670              SEQFBAD  PROC  ,
 USING  *,R7
 0050C8 4110 707E/4100_      05146 25709                       ERROR 'Invalid sequence field specification. '
 0050D4 18D8/9808 D004_            25716                       PEND
 DROP   *,R7
                                   25736
                                   25737              RTNAD    EQU   32
                                   25738              PRESTPT  EQU   32+4
                                   25739              LINAREA  EQU   32+8
                                   25740              WRKAREA  EQU   32+16
1OPT      (OPT2025) (12:50) (15MAR04) Literals                                                                              Page   74
0Current Usings:  (CP,R11) (CV,R12)
0Loc    Object Code    Addr1 Addr2  Stmt Lv Lineno    Source Statement           (Hibal 5, Asmedit 3.3)  HLASM R4.0  2004/03/15 12.50
+___    ______ ____    _____ _____  ____ __ ______    ______ _________
0                                  25742                       QLTORG
                                   25772
                                   25773                       VLTORG
 005198                05198 05198 25781                       END   .

1OPT      (OPT2025) (12:50) (15MAR04) Relocation Dictionary                                                                 Page   75
-   Pos.Id   Rel.Id   Flags    Address                                                       HLASM R4.0  2004/03/15 12.50
0  00000001 00000001    0C    00000164
   00000001 00000001    0C    00000234
   00000001 00000001    0C    00000304
   00000001 00000001    0C    00000400
   00000001 00000001    0C    0000040C
   00000001 00000001    0C    00000410
   00000001 00000001    0C    00000414
   00000001 00000001    0C    00000418
   00000001 00000001    0C    00000518
   00000001 00000001    0C    00000568
   00000001 00000001    0C    000005B8
   00000001 00000001    0C    000005E4
   00000001 00000001    0C    00000634
   00000001 00000001    0C    0000065C
   00000001 00000001    0C    00000684
   00000001 00000001    0C    000006AC
   00000001 00000001    0C    000006D4
   00000001 00000001    0C    000006FC
   00000001 00000001    0C    00000724
   00000001 00000001    0C    00000D38
   00000001 00000001    0C    00000D40
   00000001 00000001    0C    00000D44
   00000001 00000001    0C    00000D48
   00000001 00000001    0C    00000D54
   00000001 00000001    0C    00000D64
   00000001 00000001    0C    00001038
   00000001 00000001    0C    00001060
   00000001 00000001    0C    00001088
   00000001 00000001    0C    000010D8
   00000001 00000001    0C    00001100
   00000001 00000001    0C    00001128
   00000001 00000001    0C    00001178
   00000001 00000001    0C    000011A0
   00000001 00000001    0C    000011C8
   00000001 00000001    0C    000011F0
   00000001 00000001    0C    00001218
   00000001 00000001    0C    00001240
   00000001 00000001    0C    00001290
   00000001 00000001    0C    000012B8
   00000001 00000001    0C    00001308
   00000001 00000001    0C    00001330
   00000001 00000001    0C    00001380
   00000001 00000001    0C    000013A8
   00000001 00000001    0C    000016CC
   00000001 00000001    0C    000016F4
   00000001 00000001    0C    00001760
   00000001 00000001    0C    00001768
   00000001 00000001    0C    0000176C
   00000001 00000001    0C    00001770
   00000001 00000001    0C    00001774
   00000001 00000001    0C    00001778
   00000001 00000001    0C    0000177C
   00000001 00000001    0C    00001780
   00000001 00000001    0C    00001784
   00000001 00000001    0C    000017E4
1OPT      (OPT2025) (12:50) (15MAR04) Relocation Dictionary                                                                 Page   76
   00000001 00000001    0C    00001808
   00000001 00000001    0C    00001948
   00000001 00000001    0C    00001970
   00000001 00000001    0C    00001998
   00000001 00000001    0C    00001B30
   00000001 00000001    0C    00001B58
   00000001 00000001    0C    00001B80
   00000001 00000001    0C    00001BA8
   00000001 00000001    0C    00001BD0
   00000001 00000001    0C    00001BF8
   00000001 00000001    0C    00001C20
   00000001 00000001    0C    00001C48
   00000001 00000001    0C    00001C70
   00000001 00000001    0C    00001C98
   00000001 00000001    0C    00001E60
   00000001 00000001    0C    00001E70
   00000001 00000001    0C    00001E80
   00000001 00000001    0C    00001FB8
   00000001 00000001    0C    00002008
   00000001 00000001    0C    00002154
   00000001 00000001    0C    0000217C
   00000001 00000001    0C    000021CC
   00000001 00000001    0C    000021F4
   00000001 00000001    0C    0000221C
   00000001 00000001    0C    00002244
   00000001 00000001    0C    0000226C
   00000001 00000001    0C    00002294
   00000001 00000001    0C    000022BC
   00000001 00000001    0C    000022E4
   00000001 00000001    0C    000023F8
   00000001 00000001    0C    00002400
   00000001 00000001    0C    00002404
   00000001 00000001    0C    00002408
   00000001 00000001    0C    0000240C
   00000001 00000001    0C    00002410
   00000001 00000001    0C    00002578
   00000001 00000001    0C    000025A0
   00000001 00000001    0C    00002670
   00000001 00000001    0C    00002824
   00000001 00000001    0C    0000284C
   00000001 00000001    0C    00002874
   00000001 00000001    0C    0000289C
   00000001 00000001    0C    000028C4
   00000001 00000001    0C    000028EC
   00000001 00000001    0C    00002914
   00000001 00000001    0C    00002A00
   00000001 00000001    0C    00002A08
   00000001 00000001    0C    000034A0
   00000001 00000001    0C    000034C8
   00000001 00000001    0C    000034F4
   00000001 00000001    0C    00003690
   00000001 00000001    0C    000036B8
   00000001 00000001    0C    000036E0
   00000001 00000001    0C    00003708
   00000001 00000001    0C    00003730
   00000001 00000001    0C    00003758
   00000001 00000001    0C    00003C6C
   00000001 00000001    0C    00003C78
   00000001 00000001    0C    00003C7C
1OPT      (OPT2025) (12:50) (15MAR04) Relocation Dictionary                                                                 Page   77
   00000001 00000001    0C    0000405C
   00000001 00000001    0C    00004084
   00000001 00000001    0C    000040AC
   00000001 00000001    0C    000040D4
   00000001 00000001    0C    000040FC
   00000001 00000001    0C    00004124
   00000001 00000001    0C    0000414C
   00000001 00000001    0C    00004174
   00000001 00000001    0C    0000419C
   00000001 00000001    0C    000041C4
   00000001 00000001    0C    000041EC
   00000001 00000001    0C    00004214
   00000001 00000001    0C    0000423C
   00000001 00000001    0C    00004264
   00000001 00000001    0C    0000428C
   00000001 00000001    0C    000042B4
   00000001 00000001    0C    000042DC
   00000001 00000001    0C    00004304
   00000001 00000001    0C    0000432C
   00000001 00000001    0C    00004354
   00000001 00000001    0C    0000437C
   00000001 00000001    0C    000043A4
   00000001 00000001    0C    00004494
   00000001 00000001    0C    000044BC
   00000001 00000001    0C    000044E4
   00000001 00000001    0C    0000450C
   00000001 00000001    0C    00004534
   00000001 00000001    0C    0000455C
   00000001 00000001    0C    00004584
   00000001 00000001    0C    000045D4
   00000001 00000001    0C    000045FC
   00000001 00000001    0C    0000464C
   00000001 00000001    0C    00004674
   00000001 00000001    0C    0000469C
   00000001 00000001    0C    000046C4
   00000001 00000001    0C    000046EC
   00000001 00000001    0C    00004714
   00000001 00000001    0C    0000473C
   00000001 00000001    0C    00004764
   00000001 00000001    0C    00004D68
   00000001 00000001    0C    00004D70
   00000001 00000001    0C    00004D74
   00000001 00000001    0C    000050F8
   00000001 00000001    0C    00005104
   00000001 00000001    0C    00005108
   00000001 00000002    1C    000000B8
   00000001 00000002    1C    00000188
   00000001 00000002    1C    00000258
   00000001 00000002    1C    00000328
   00000001 00000002    1C    000003F8
   00000001 00000002    1C    00001994
   00000001 00000002    1C    00001C94
   00000001 00000002    1C    00001F8C
   00000001 00000002    1C    000025C4
   00000001 00000002    1C    00002870
   00000001 00000002    1C    00002910
   00000001 00000002    1C    00003754
   00000001 00000002    1C    000046C0
   00000001 00000002    1C    00004738
1OPT      (OPT2025) (12:50) (15MAR04) Relocation Dictionary                                                                 Page   78
   00000001 00000002    1C    00004760
   00000001 00000003    1C    000000BC
   00000001 00000003    1C    00004D90
   00000001 00000003    1C    000050EC
   00000001 00000004    1C    0000018C
   00000001 00000004    1C    0000025C
   00000001 00000004    1C    0000032C
   00000001 00000004    1C    000003FC
   00000001 00000004    1C    00001F90
   00000001 00000004    1C    000025C8
   00000001 00000005    1C    000003D4
   00000001 00000006    1C    00000404
   00000001 00000006    1C    00001E74
   00000001 00000006    1C    00002674
   00000001 00000006    1C    00002A04
   00000001 00000006    1C    000034B4
   00000001 00000006    1C    000050FC
   00000001 00000007    1C    00000408
   00000001 00000007    1C    00002678
   00000001 00000007    1C    000034B8
   00000001 00000007    1C    00005100
   00000001 00000008    1C    0000051C
   00000001 00000008    1C    0000056C
   00000001 00000008    1C    000005BC
   00000001 00000008    1C    0000180C
   00000001 00000008    1C    000043CC
   00000001 00000008    1C    000043F4
   00000001 00000008    1C    0000441C
   00000001 00000008    1C    00004444
   00000001 00000008    1C    0000446C
   00000001 00000009    1C    00000630
   00000001 00000009    1C    00000658
   00000001 00000009    1C    00000680
   00000001 00000009    1C    000006A8
   00000001 00000009    1C    000006D0
   00000001 00000009    1C    000006F8
   00000001 00000009    1C    00000720
   00000001 00000009    1C    00004300
   00000001 00000009    1C    00004350
   00000001 0000000A    1C    00000D3C
   00000001 0000000A    1C    00001764
   00000001 0000000A    1C    00001E64
   00000001 0000000A    1C    000023FC
   00000001 0000000A    1C    00004D6C
   00000001 0000000B    1C    00000D5C
   00000001 0000000B    1C    00001E68
   00000001 0000000B    1C    00002680
   00000001 0000000C    1C    00000D68
   00000001 0000000D    1C    00000D6C
   00000001 0000000D    1C    00002640
   00000001 0000000D    1C    000034C4
   00000001 0000000D    1C    00003870
   00000001 0000000D    1C    00003C68
   00000001 0000000E    1C    00000D70
   00000001 0000000F    1C    000010D4
   00000001 0000000F    1C    000010FC
   00000001 0000000F    1C    00001124
   00000001 0000000F    1C    00001174
   00000001 0000000F    1C    0000119C
1OPT      (OPT2025) (12:50) (15MAR04) Relocation Dictionary                                                                 Page   79
   00000001 0000000F    1C    000011C4
   00000001 0000000F    1C    000011EC
   00000001 0000000F    1C    00001214
   00000001 0000000F    1C    0000123C
   00000001 0000000F    1C    0000128C
   00000001 0000000F    1C    000012B4
   00000001 0000000F    1C    00001304
   00000001 0000000F    1C    0000137C
   00000001 0000000F    1C    000013A4
   00000001 0000000F    1C    000017E0
   00000001 0000000F    1C    00001B7C
   00000001 0000000F    1C    00001BA4
   00000001 0000000F    1C    00001BCC
   00000001 0000000F    1C    00001BF4
   00000001 0000000F    1C    00001C1C
   00000001 0000000F    1C    00001C44
   00000001 0000000F    1C    00001C6C
   00000001 0000000F    1C    00001FB4
   00000001 0000000F    1C    00002004
   00000001 0000000F    1C    00002150
   00000001 0000000F    1C    00002178
   00000001 0000000F    1C    000021F0
   00000001 0000000F    1C    00002218
   00000001 0000000F    1C    00002240
   00000001 0000000F    1C    00002268
   00000001 0000000F    1C    00002290
   00000001 0000000F    1C    000022B8
   00000001 0000000F    1C    000022E0
   00000001 0000000F    1C    00002820
   00000001 0000000F    1C    00002848
   00000001 0000000F    1C    00002898
   00000001 0000000F    1C    000028C0
   00000001 0000000F    1C    000028E8
   00000001 0000000F    1C    0000368C
   00000001 0000000F    1C    000036B4
   00000001 0000000F    1C    000036DC
   00000001 0000000F    1C    00003704
   00000001 0000000F    1C    00004058
   00000001 0000000F    1C    00004080
   00000001 0000000F    1C    000040A8
   00000001 0000000F    1C    000040D0
   00000001 0000000F    1C    000040F8
   00000001 0000000F    1C    00004120
   00000001 0000000F    1C    00004148
   00000001 0000000F    1C    00004170
   00000001 0000000F    1C    00004198
   00000001 0000000F    1C    000041C0
   00000001 0000000F    1C    000041E8
   00000001 0000000F    1C    00004210
   00000001 0000000F    1C    00004238
   00000001 0000000F    1C    00004260
   00000001 0000000F    1C    00004378
   00000001 0000000F    1C    000043A0
   00000001 0000000F    1C    000043C8
   00000001 0000000F    1C    000043F0
   00000001 0000000F    1C    00004418
   00000001 0000000F    1C    00004440
   00000001 0000000F    1C    00004468
   00000001 0000000F    1C    00004490
1OPT      (OPT2025) (12:50) (15MAR04) Relocation Dictionary                                                                 Page   80
   00000001 0000000F    1C    000044B8
   00000001 0000000F    1C    000044E0
   00000001 0000000F    1C    00004508
   00000001 0000000F    1C    00004530
   00000001 0000000F    1C    00004558
   00000001 0000000F    1C    000045D0
   00000001 0000000F    1C    000045F8
   00000001 0000000F    1C    00004698
   00000001 00000010    1C    0000132C
   00000001 00000010    1C    00004288
   00000001 00000010    1C    000042B0
   00000001 00000010    1C    000042D8
   00000001 00000011    1C    000016C8
   00000001 00000011    1C    000016F0
   00000001 00000012    1C    00001944
   00000001 00000012    1C    00001B2C
   00000001 00000012    1C    00002574
   00000001 00000012    1C    0000372C
   00000001 00000012    1C    00004648
   00000001 00000012    1C    000046E8
   00000001 00000013    1C    0000196C
   00000001 00000013    1C    0000259C
   00000001 00000014    1C    00001B54
   00000001 00000015    1C    00001E90
   00000001 00000016    1C    00001E94
   00000001 00000017    1C    0000267C
   00000001 00000018    1C    000034A8
   00000001 00000019    1C    000034B0
   00000001 0000001A    1C    000034BC
   00000001 0000001B    1C    000034CC
   00000001 0000001B    1C    00004D78
   00000001 0000001C    1C    000034D8
   00000001 0000001D    1C    000034E8
   00000001 0000001E    1C    000034EC
   00000001 0000001F    1C    00003C70
   00000001 00000020    1C    00003C74
   00000001 00000021    1C    00003F84
   00000001 00000022    1C    00003F90
   00000001 00000023    1C    00004670
   00000001 00000023    1C    00004710
   00000001 00000024    1C    00004D80

1OPT      (OPT2025) (12:50) (15MAR04) Ordinary Symbol and Literal Cross Reference                                           Page   81
-Symbol   Length   Value     Id    R Type   Defn References                                  HLASM R4.0  2004/03/15 12.50
0$$$@R0        1 00000000 FFFFFFFE     J     705  1009
 $$$@R10       1 00000000 FFFFFFF4     J     835  1073
 $$$@R11       1 00000000 FFFFFFF3     J     848  1086
 $$$@R12       1 00000000 FFFFFFF2     J     861  1099
 $$$@R13       1 00000000 FFFFFFF1     J     874  1112
 $$$@R14       1 00000000 FFFFFFF0     J     887  1125
 $$$@R7        1 00000000 FFFFFFF7     J     796  1022
 $$$@R8        1 00000000 FFFFFFF6     J     809  1035   1047
 $$$@R9        1 00000000 FFFFFFF5     J     822  1060
 $$$C1WYLOPT
               1 0000041E 00000001     J    7249  7251   8040
 $$$C10WYLOPT
               1 00003D20 00000001     J   21273 21275
 $$$C11WYLOPT
               1 00003F94 00000001     J   21894 21896  22916  22964  23178  23638
 $$$C12WYLOPT
               1 00004E00 00000001     J   25016 25018
 $$$C13WYLOPT
               1 00005191 00000001     J   25767 25769
 $$$C14WYLOPT
               1 00005198 00000001     J   25784 25786
 $$$C2WYLOPT
               1 00000E64 00000001     J    9935  9937
 $$$C3WYLOPT
               1 00001788 00000001     J   12120 12122
 $$$C4WYLOPT
               1 00001EC9 00000001     J   13611 13613
 $$$C5WYLOPT
               1 00002414 00000001     J   14810 14812
 $$$C6WYLOPT
               1 000026B8 00000001     J   15487 15489
 $$$C7WYLOPT
               1 00002A14 00000001     J   16174 16176  16273  16625  16722  16778  17308  18505  18588  18774  18815
                                                 18985  19128  19202
 $$$C8WYLOPT
               1 0000366C 00000001     J   19450 19452
 $$$C9WYLOPT
               1 000038A7 00000001     J   19941 19943  20905
 $$$D1WYLOPT
               1 00000E5E 00000001     J    7250  8029
 $$$D11WYLOPT
               1 00004DED 00000001     J   21895 22905  23167  23627
 $$$D7WYLOPT
               1 0000362A 00000001     J   16175 16614  16711  16767  17297  18494  18577  18763  18804  18974  19117
                                                 19191
 $$$D9WYLOPT
               1 00003D1A 00000001     J   19942 20894
 $$$RCP        1 00000000 FFFFFFEB     J    2734  4994   6468   6468
 $$$RCV        1 00000000 FFFFFFED     J    1459  2644   2644
 $$$RDEV       1 00000000 FFFFFFEA     J    4948  4993   4993
 $$$RDODWA
               1 00000000 FFFFFFE8     J   16257 16272  16272
 $$$RHAVONWA
               1 00000000 FFFFFFE7     J   22949 22963  22963
 $$$RJCB       1 00000000 FFFFFFEE     J    1151  1425   1425
1OPT      (OPT2025) (12:50) (15MAR04) Ordinary Symbol and Literal Cross Reference                                           Page   82
 $$$RNSCNCB
               1 00000000 FFFFFFEC     J    2655  2728   2728
 $$$RTTYPE
               1 00000000 FFFFFFE9     J    6479  6580   6580
 $$$SEGCB0
               4 00000050 FFFFFFEB     F    2765  2851   2851
 $$$Z7         4 0000342C 00000001     F   19390 18383
 $$$100B       4 00000912 00000001     I    8469  8488
 $$$100E       2 00000906 00000001     H    8444  8438
 $$$100F       2 00000924 00000001     H    8483  8440B  8469B  8487
 $$$100T       2 00000916 00000001     H    8472  8458B
 $$$103E       2 00000928 00000001     H    8495  8489
 $$$103F       2 0000093E 00000001     H    8519  8491B  8505B
 $$$105        1 00000050 00000001 A   U    8538  8535   8537
 $$$107B       1 00000966 00000001     X    8572  8579U
 $$$108B       4 00000980 00000001     I    8614  8636
 $$$108F       2 00000996 00000001     H    8633  8614B  8635
 $$$109E       2 0000099A 00000001     H    8643  8637
 $$$109F       2 0000099E 00000001     H    8649  8639B
 $$$110        1 00000050 00000001 A   U    8668  8665   8667
 $$$112B       1 000009C6 00000001     X    8699  8706U
 $$$113F       2 000009EA 00000001     H    8765  8726B
 $$$114        1 00000050 00000001 A   U    8787  8784   8786
 $$$116B       1 00000A14 00000001     X    8820  8827U
 $$$118F       2 00000A28 00000001     H    8881  8867B
 $$$119F       2 00000A50 00000001     H    8940  8922B
 $$$119T       2 00000A40 00000001     H    8925  8898B  8911B
 $$$122        1 00000050 00000001 A   U    8972  8969   8971
 $$$124B       1 00000A8C 00000001     X    9004  9011U
 $$$125F       2 00000A98 00000001     H    9041  9032B
 $$$126B       4 00000AA6 00000001     I    9072  9129
 $$$126F       2 00000ACC 00000001     H    9122  9072B  9128
 $$$126T       2 00000AAA 00000001     H    9075  9061B
 $$$128B       4 00000AD4 00000001     I    9146  9201
 $$$128E       2 00000AD0 00000001     H    9136  9130
 $$$128F       2 00000AFA 00000001     H    9196  9132B  9146B  9200
 $$$130B       4 00000B02 00000001     I    9218  9231
 $$$130E       2 00000AFE 00000001     H    9208  9202
 $$$130F       2 00000B0A 00000001     H    9227  9204B  9218B  9230
 $$$132E       2 00000B0E 00000001     H    9238  9232
 $$$132F       2 00000B12 00000001     H    9244  9234B
 $$$133        1 00000050 00000001 A   U    9386  9383   9385
 $$$135B       1 00000BCC 00000001     X    9416  9423U
 $$$136F       2 00000BEE 00000001     H    9486  9450B  9463B
 $$$138B       4 00000BF2 00000001     I    9499  9541
 $$$138F       2 00000C16 00000001     H    9538  9499B  9540
 $$$139E       2 00000C1A 00000001     H    9548  9542
 $$$139F       2 00000C50 00000001     H    9623  9544B
 $$$140B       4 00000C20 00000001     I    9560  9602
 $$$140F       2 00000C44 00000001     H    9599  9560B  9601
 $$$141E       2 00000C48 00000001     H    9609  9603
 $$$141F       2 00000C50 00000001     H    9619  9605B
 $$$142        1 00000050 00000001 A   U    9641  9638   9640
 $$$144B       1 00000C78 00000001     X    9670  9677U
 $$$145F       2 00000C98 00000001     H    9740  9704B  9717B
 $$$147B       4 00000C9C 00000001     I    9753  9795
 $$$147F       2 00000CC0 00000001     H    9792  9753B  9794
 $$$148E       2 00000CC4 00000001     H    9802  9796
 $$$148F       2 00000CFA 00000001     H    9877  9798B
1OPT      (OPT2025) (12:50) (15MAR04) Ordinary Symbol and Literal Cross Reference                                           Page   83
 $$$149B       4 00000CCA 00000001     I    9814  9856
 $$$149F       2 00000CEE 00000001     H    9853  9814B  9855
 $$$150E       2 00000CF2 00000001     H    9863  9857
 $$$150F       2 00000CFA 00000001     H    9873  9859B
 $$$151        1 00000050 00000001 A   U    9895  9892   9894
 $$$153B       1 00000E7E 00000001     X    9969  9976U
 $$$154        1 00000050 00000001 A   U   10009 10006  10008
 $$$156B       1 00000EB4 00000001     X   10038 10045U
 $$$157        1 00000050 00000001 A   U   10078 10075  10077
 $$$159B       1 00000EEA 00000001     X   10107 10114U
 $$$160        1 00000050 00000001 A   U   10147 10144  10146
 $$$162B       1 00000F20 00000001     X   10176 10183U
 $$$163        1 00000050 00000001 A   U   10216 10213  10215
 $$$165B       1 00000F56 00000001     X   10245 10252U
 $$$166        1 00000050 00000001 A   U   10285 10282  10284
 $$$168B       1 00000F8C 00000001     X   10314 10321U
 $$$169        1 00000050 00000001 A   U   10354 10351  10353
 $$$171B       1 00000FC2 00000001     X   10383 10390U
 $$$172        1 00000050 00000001 A   U   10423 10420  10422
 $$$174B       1 00000FF8 00000001     X   10452 10459U
 $$$175        1 00000050 00000001 A   U   10492 10489  10491
 $$$177B       1 000013EE 00000001     X   10903 10910U
 $$$179        1 00000050 00000001 A   U   10944 10941  10943
 $$$181B       1 0000141A 00000001     X   10972 10979U
 $$$183        1 00000050 00000001 A   U   11012 11009  11011
 $$$185B       1 00001446 00000001     X   11040 11047U
 $$$186        1 00000050 00000001 A   U   11075 11072  11074
 $$$188B       1 00001476 00000001     X   11103 11110U
 $$$191        1 00000050 00000001 A   U   11146 11143  11145
 $$$193B       1 000014A2 00000001     X   11174 11181U
 $$$197        1 00000050 00000001 A   U   11225 11222  11224
 $$$199B       1 000014D2 00000001     X   11253 11260U
 $$$202        1 00000050 00000001 A   U   11305 11302  11304
 $$$204B       1 00001506 00000001     X   11333 11340U
 $$$207        1 00000050 00000001 A   U   11386 11383  11385
 $$$209B       1 0000153A 00000001     X   11413 11420U
 $$$211F       2 0000154E 00000001     H   11463 11447B
 $$$214        1 00000050 00000001 A   U   11485 11482  11484
 $$$216B       1 00001578 00000001     X   11513 11520U
 $$$217        1 00000050 00000001 A   U   11555 11552  11554
 $$$219B       1 000015A4 00000001     X   11583 11590U
 $$$220        1 00000050 00000001 A   U   11627 11624  11626
 $$$222B       1 000015D4 00000001     X   11655 11662U
 $$$223        1 00000050 00000001 A   U   11694 11691  11693
 $$$225B       1 00001606 00000001     X   11722 11729U
 $$$226        1 00000050 00000001 A   U   11756 11753  11755
 $$$228B       1 00001632 00000001     X   11784 11791U
 $$$229        1 00000050 00000001 A   U   11823 11820  11822
 $$$231B       1 0000165E 00000001     X   11851 11858U
 $$$232        1 00000050 00000001 A   U   11891 11888  11890
 $$$234B       1 0000168A 00000001     X   11923 11930U
 $$$235        1 00000050 00000001 A   U   11963 11960  11962
 $$$237B       1 0000173A 00000001     X   12043 12050U
 $$$238F       2 0000174A 00000001     H   12080 12071B
 $$$239        1 00000050 00000001 A   U   12099 12096  12098
 $$$241B       1 000017A2 00000001     X   12157 12164U
 $$$242        1 00000050 00000001 A   U   12197 12194  12196
 $$$244B       1 00001852 00000001     X   12270 12277U
 $$$245F       2 00001876 00000001     H   12321 12299B
1OPT      (OPT2025) (12:50) (15MAR04) Ordinary Symbol and Literal Cross Reference                                           Page   84
 $$$246F       2 00001898 00000001     H   12354 12332B
 $$$247F       2 00001912 00000001     H   12428 12414B
 $$$248        1 00000050 00000001 A   U   12452 12449  12451
 $$$250B       1 000019B6 00000001     X   12525 12532U
 $$$251        1 00000050 00000001 A   U   12561 12558  12560
 $$$253B       1 000019EC 00000001     X   12588 12595U
 $$$254        1 00000050 00000001 A   U   12631 12628  12630
 $$$256B       1 00001A24 00000001     X   12663 12670U
 $$$257B       4 00001A28 00000001     I   12690 12886
 $$$257F       2 00001AF4 00000001     H   12882 12690B 12885
 $$$258F       2 00001A68 00000001     H   12747 12715B
 $$$259F       2 00001A68 00000001     H   12743 12730B
 $$$260B       4 00001AC4 00000001     I   12799 12811
 $$$260F       2 00001AC8 00000001     H   12807 12799B 12810
 $$$261B       4 00001AD0 00000001     I   12829 12845
 $$$261E       2 00001ACC 00000001     H   12818 12812
 $$$261F       2 00001AD6 00000001     H   12841 12814B 12829B 12844
 $$$263E       2 00001ADA 00000001     H   12852 12846
 $$$263F       2 00001AF4 00000001     H   12878 12848B 12863B
 $$$265E       2 00001AF8 00000001     H   12893 12887
 $$$265F       2 00001AFC 00000001     H   12899 12889B
 $$$266        1 00000050 00000001 A   U   12918 12915  12917
 $$$268B       1 00001CB6 00000001     X   13096 13103U
 $$$269B       4 00001CB8 00000001     I   13121 13145
 $$$269F       2 00001CD2 00000001     H   13142 13121B 13144
 $$$270E       2 00001CD6 00000001     H   13152 13146
 $$$270F       2 00001CF0 00000001     H   13184 13148B
 $$$271F       2 00001CEC 00000001     H   13179 13166B
 $$$273        1 00000050 00000001 A   U   13202 13199  13201
 $$$275B       1 00001D18 00000001     X   13230 13237U
 $$$276        1 00000050 00000001 A   U   13293 13290  13292
 $$$278B       1 00001D6E 00000001     X   13321 13328U
 $$$279        1 00000050 00000001 A   U   13384 13381  13383
 $$$281B       1 00001DC4 00000001     X   13412 13419U
 $$$282        1 00000050 00000001 A   U   13452 13449  13451
 $$$284B       1 00001DF4 00000001     X   13480 13487U
 $$$285        1 00000050 00000001 A   U   13521 13518  13520
 $$$287B       1 00001E24 00000001     X   13549 13556U
 $$$288        1 00000050 00000001 A   U   13583 13580  13582
 $$$290B       1 00001EE4 00000001     X   13645 13652U
 $$$291        1 00000050 00000001 A   U   13685 13682  13684
 $$$293B       1 00001F1A 00000001     X   13714 13721U
 $$$294        1 00000050 00000001 A   U   13754 13751  13753
 $$$296B       1 00001F50 00000001     X   13783 13790U
 $$$297        1 00000050 00000001 A   U   13823 13820  13822
 $$$299B       1 0000204E 00000001     X   13936 13943U
 $$$300        1 00000050 00000001 A   U   13975 13972  13974
 $$$302B       1 0000207A 00000001     X   14003 14010U
 $$$303        1 00000050 00000001 A   U   14042 14039  14041
 $$$305B       1 000020A6 00000001     X   14074 14081U
 $$$306        1 00000050 00000001 A   U   14114 14111  14113
 $$$308B       1 000020DC 00000001     X   14143 14150U
 $$$309        1 00000050 00000001 A   U   14183 14180  14182
 $$$311B       1 00002112 00000001     X   14212 14219U
 $$$312        1 00000050 00000001 A   U   14252 14249  14251
 $$$314B       1 0000232A 00000001     X   14469 14476U
 $$$316        1 00000050 00000001 A   U   14509 14506  14508
 $$$318B       1 00002356 00000001     X   14537 14544U
 $$$319        1 00000050 00000001 A   U   14583 14580  14582
1OPT      (OPT2025) (12:50) (15MAR04) Ordinary Symbol and Literal Cross Reference                                           Page   85
 $$$321B       1 00002386 00000001     X   14611 14618U
 $$$322        1 00000050 00000001 A   U   14657 14654  14656
 $$$324B       1 000023B6 00000001     X   14685 14692U
 $$$325        1 00000050 00000001 A   U   14724 14721  14723
 $$$327B       1 000023E2 00000001     X   14752 14759U
 $$$328        1 00000050 00000001 A   U   14792 14789  14791
 $$$330B       1 0000242E 00000001     X   14916 14923U
 $$$331B       4 00002432 00000001     I   14943 14981
 $$$331F       2 00002454 00000001     H   14976 14943B 14980
 $$$332B       4 0000245C 00000001     I   14997 15065
 $$$332E       2 00002458 00000001     H   14988 14982
 $$$332F       2 000024CA 00000001     H   15058 14984B 14997B 15064
 $$$334B       4 000024D2 00000001     I   15081 15241
 $$$334E       2 000024CE 00000001     H   15072 15066
 $$$334F       2 0000253A 00000001     H   15237 15068B 15081B 15240
 $$$336F       2 000024FC 00000001     H   15133 15111B 15123B
 $$$336S       2 000024E6 00000001     H   15101 15132B
 $$$339F       2 0000250E 00000001     H   15168 15147B 15159B
 $$$341F       2 00002524 00000001     H   15206 15184B 15196B
 $$$341S       2 0000250E 00000001     H   15174 15205B
 $$$344E       2 0000253E 00000001     H   15248 15242
 $$$344F       2 00002540 00000001     H   15255 15244B
 $$$345        1 00000050 00000001 A   U   15280 15277  15279
 $$$347B       1 000025E6 00000001     X   15355 15362U
 $$$348        1 00000050 00000001 A   U   15401 15398  15400
 $$$350B       1 00002624 00000001     X   15428 15435U
 $$$351        1 00000050 00000001 A   U   15465 15462  15464
 $$$353B       1 000026D2 00000001     X   15523 15530U
 $$$354F       2 000026DE 00000001     H   15566 15552B
 $$$355        1 00000050 00000001 A   U   15632 15629  15631
 $$$357B       1 00002776 00000001     X   15660 15667U
 $$$358F       2 00002782 00000001     H   15703 15689B
 $$$359        1 00000050 00000001 A   U   15769 15766  15768
 $$$361B       1 00002932 00000001     X   15903 15910U
 $$$363        1 00000050 00000001 A   U   15963 15960  15962
 $$$365B       1 0000298C 00000001     X   15990 15997U
 $$$366        1 00000050 00000001 A   U   16030 16027  16029
 $$$368B       1 000029BC 00000001     X   16057 16064U
 $$$369        1 00000050 00000001 A   U   16097 16094  16096
 $$$371B       1 000029EC 00000001     X   16125 16132U
 $$$372        1 00000050 00000001 A   U   16158 16155  16157
 $$$374B       1 00002A2E 00000001     X   16208 16215U
 $$$375        1 00000050 00000001 A   U   16249 16246  16248
 $$$377B       1 00002A5E 00000001     X   16303 16310U
 $$$378B       4 00002A62 00000001     I   16339 16366
 $$$378F       2 00002A80 00000001     H   16362 16339B 16365
 $$$380E       2 00002A84 00000001     H   16373 16367
 $$$380F       2 00002AAE 00000001     H   16404 16369B
 $$$383F       2 00002B84 00000001     H   16541 16504B
 $$$384F       2 00002B72 00000001     H   16529 16519B
 $$$385F       2 00002BAA 00000001     H   16589 16553B
 $$$386F       2 00002B9E 00000001     H   16578 16568B
 $$$387F       2 00002BBA 00000001     H   16630 16606B
 $$$388        6 0000362A 00000001     I   16620 16612X
 $$$389        6 0000362A 00000001     I   16619 16620  16620
 $$$390F       2 00002BD0 00000001     H   16662 16646B
 $$$392F       2 00002BDE 00000001     H   16687 16678B
 $$$393F       2 00002BF4 00000001     H   16727 16703B
 $$$394        6 00003630 00000001     I   16717 16709X
1OPT      (OPT2025) (12:50) (15MAR04) Ordinary Symbol and Literal Cross Reference                                           Page   86
 $$$395        6 00003630 00000001     I   16716 16717  16717
 $$$396F       2 00002C0E 00000001     H   16787 16740B
 $$$398F       2 00002C0E 00000001     H   16783 16759B
 $$$399        6 00003636 00000001     I   16773 16765X
 $$$400        6 00003636 00000001     I   16772 16773  16773
 $$$401F       2 00002DE8 00000001     H   17414 16806B
 $$$403F       2 00002D2A 00000001     H   17110 16825B 16838B
 $$$405F       2 00002C46 00000001     H   16889 16858B 16876B
 $$$405S       2 00002C2E 00000001     H   16852 16888B
 $$$408F       2 00002C6E 00000001     H   16959 16900B
 $$$410F       2 00002D1C 00000001     H   17100 17054B
 $$$411B       4 00002D0E 00000001     I   17069 17081
 $$$411F       2 00002D16 00000001     H   17078 17069B 17080
 $$$412E       2 00002D1A 00000001     H   17088 17082
 $$$412F       2 00002D1C 00000001     H   17096 17084B
 $$$413F       2 00002DE8 00000001     H   17410 17129B 17149B 17162B
 $$$413S       2 00002D2E 00000001     H   17123 17409B
 $$$417F       2 00002DDE 00000001     H   17401 17180B
 $$$418F       2 00002DB2 00000001     H   17347 17193B
 $$$419F       2 00002D60 00000001     H   17222 17209B
 $$$420F       2 00002D84 00000001     H   17254 17234B
 $$$421F       2 00002D90 00000001     H   17273 17264B
 $$$422F       2 00002DA2 00000001     H   17313 17289B
 $$$423        6 0000363C 00000001     I   17303 17295X
 $$$424        6 0000363C 00000001     I   17302 17303  17303
 $$$425F       2 00002DB2 00000001     H   17343 17327B
 $$$426F       2 00002DDA 00000001     H   17395 17363B
 $$$428F       2 00002E1A 00000001     H   17497 17435B 17453B 17474B 17487B
 $$$43B        1 00000030 00000001     X    6617  6624U
 $$$432F       2 00002E96 00000001     H   17648 17513B
 $$$433F       2 00002E8E 00000001     H   17641 17529B
 $$$434F       2 00002E5A 00000001     H   17579 17545B
 $$$435F       2 00002E8E 00000001     H   17637 17596B
 $$$436F       2 00002E8E 00000001     H   17633 17617B
 $$$437F       2 00002EAA 00000001     H   17674 17663B
 $$$438F       2 00002EE2 00000001     H   17721 17693B 17710B
 $$$44         1 00000050 00000001 A   U    6687  6684   6686
 $$$440F       2 00003020 00000001     H   18237 17738B
 $$$441F       2 00003020 00000001     H   18233 17771B
 $$$441S       2 00002EEC 00000001     H   17748 18232B
 $$$441T       2 00002EFE 00000001     H   17774 17760B
 $$$444B       4 00002F02 00000001     I   17788 18002
 $$$444F       2 00002F8A 00000001     H   17997 17788B 18001
 $$$445F       2 00002F2A 00000001     H   17849 17811B 17824B 17837B
 $$$445S       2 00002F0C 00000001     H   17802 17848B
 $$$449F       2 00002F3A 00000001     H   17874 17863B
 $$$450B       4 00002F3C 00000001     I   17885 17898
 $$$450F       2 00002F46 00000001     H   17894 17885B 17897
 $$$451B       4 00002F4E 00000001     I   17916 17928
 $$$451E       2 00002F4A 00000001     H   17905 17899
 $$$451F       2 00002F58 00000001     H   17925 17901B 17916B 17927
 $$$453E       2 00002F5C 00000001     H   17935 17929
 $$$453F       2 00002F8A 00000001     H   17993 17931B
 $$$454F       2 00002F6E 00000001     H   17957 17947B
 $$$455E       2 00002F8E 00000001     H   18009 18003
 $$$455F       2 0000301C 00000001     H   18228 18005B 18019B
 $$$457F       2 00002FBC 00000001     H   18080 18042B 18055B 18068B
 $$$457S       2 00002F9E 00000001     H   18033 18079B
 $$$46B        1 000000DA 00000001     X    6734  6741U
1OPT      (OPT2025) (12:50) (15MAR04) Ordinary Symbol and Literal Cross Reference                                           Page   87
 $$$461F       2 00002FCC 00000001     H   18105 18094B
 $$$462B       4 00002FCE 00000001     I   18116 18129
 $$$462F       2 00002FD8 00000001     H   18125 18116B 18128
 $$$463B       4 00002FE0 00000001     I   18147 18159
 $$$463E       2 00002FDC 00000001     H   18136 18130
 $$$463F       2 00002FEA 00000001     H   18156 18132B 18147B 18158
 $$$465E       2 00002FEE 00000001     H   18166 18160
 $$$465F       2 0000301C 00000001     H   18224 18162B
 $$$466F       2 00003000 00000001     H   18188 18178B
 $$$467F       2 0000307C 00000001     H   18362 18265B 18285B 18298B
 $$$47         1 00000050 00000001 A   U    6804  6801   6803
 $$$470F       2 0000305C 00000001     H   18324 18314B
 $$$472F       2 000030AE 00000001     H   18421 18384B
 $$$473F       2 0000309C 00000001     H   18409 18399B
 $$$474F       2 000030E0 00000001     H   18518 18433B
 $$$475F       2 000030E0 00000001     H   18514 18448B
 $$$476F       2 000030CE 00000001     H   18471 18462B
 $$$477F       2 000030E0 00000001     H   18510 18486B
 $$$478        6 00003642 00000001     I   18500 18492X
 $$$479        6 00003642 00000001     I   18499 18500  18500
 $$$480F       2 00003110 00000001     H   18597 18549B
 $$$481F       2 00003110 00000001     H   18593 18569B
 $$$482        6 00003648 00000001     I   18583 18575X
 $$$483        6 00003648 00000001     I   18582 18583  18583
 $$$484F       2 00003162 00000001     H   18723 18634B 18653B 18674B 18687B 18706B
 $$$49B        1 000001AA 00000001     X    6866  6873U
 $$$491        6 0000364E 00000001     I   18769 18761X
 $$$492        6 0000364E 00000001     I   18768 18769  18769
 $$$493        6 00003654 00000001     I   18810 18802X
 $$$494        6 00003654 00000001     I   18809 18810  18810
 $$$496F       2 000032CC 00000001     H   18997 18958B
 $$$496T       2 000032B2 00000001     H   18961 18934B 18947B
 $$$499        6 0000365A 00000001     I   18980 18972X
 $$$50         1 00000050 00000001 A   U    6936  6933   6935
 $$$500        6 0000365A 00000001     I   18979 18980  18980
 $$$503        6 00003660 00000001     I   19123 19115X
 $$$504        6 00003660 00000001     I   19122 19123  19123
 $$$505F       2 00003390 00000001     H   19263 19142B 19225B
 $$$506F       2 0000335C 00000001     H   19207 19183B
 $$$507        6 00003666 00000001     I   19197 19189X
 $$$508        6 00003666 00000001     I   19196 19197  19197
 $$$510F       2 0000337E 00000001     H   19251 19241B
 $$$513        1 00000350 00000001 A   U   19380 19377  19379
 $$$515B       1 00003776 00000001     X   19571 19578U
 $$$516        1 00000050 00000001 A   U   19605 19602  19604
 $$$518B       1 000037A2 00000001     X   19633 19640U
 $$$519        1 00000050 00000001 A   U   19667 19664  19666
 $$$52B        1 0000027A 00000001     X    6998  7005U
 $$$521B       1 000037CE 00000001     X   19695 19702U
 $$$522        1 00000050 00000001 A   U   19729 19726  19728
 $$$524B       1 000037FA 00000001     X   19756 19763U
 $$$525F       2 0000380E 00000001     H   19797 19782B
 $$$526        1 00000050 00000001 A   U   19816 19813  19815
 $$$528B       1 0000383A 00000001     X   19843 19850U
 $$$529F       2 00003858 00000001     H   19908 19869B
 $$$53         1 00000050 00000001 A   U    7068  7065   7067
 $$$530        1 00000050 00000001 A   U   19927 19924  19926
 $$$531F       2 00003AC8 00000001     H   20924 20646B
 $$$532B       1 000038C2 00000001     X   19974 19981U
1OPT      (OPT2025) (12:50) (15MAR04) Ordinary Symbol and Literal Cross Reference                                           Page   88
 $$$533F       2 000038F0 00000001     H   20057 20006B 20023B
 $$$535F       2 00003982 00000001     H   20348 20070B
 $$$536F       2 00003982 00000001     H   20344 20091B
 $$$537F       2 0000394A 00000001     H   20216 20109B
 $$$538F       2 0000392E 00000001     H   20172 20128B 20142B 20161B
 $$$541F       2 0000394A 00000001     H   20212 20202B
 $$$541T       2 00003942 00000001     H   20205 20190B
 $$$543F       2 00003958 00000001     H   20240 20230B
 $$$544F       2 00003982 00000001     H   20340 20272B
 $$$545F       2 00003976 00000001     H   20310 20300B
 $$$546F       2 00003982 00000001     H   20331 20321B
 $$$547F       2 000039BC 00000001     H   20443 20365B
 $$$548F       2 000039BC 00000001     H   20439 20381B 20395B
 $$$55B        1 0000034A 00000001     X    7131  7138U
 $$$550F       2 000039E4 00000001     H   20508 20456B
 $$$552F       2 000039D4 00000001     H   20482 20472B
 $$$553F       2 000039E4 00000001     H   20504 20494B
 $$$554F       2 00003A6A 00000001     H   20729 20528B
 $$$556F       2 00003A6A 00000001     H   20725 20566B 20579B 20596B 20614B
 $$$56         1 00000050 00000001 A   U    7201  7198   7200
 $$$561F       2 00003A36 00000001     H   20650 20632B
 $$$562F       2 00003A60 00000001     H   20707 20694B
 $$$563F       2 00003AC8 00000001     H   20914 20750B 20764B
 $$$565F       2 00003A9C 00000001     H   20826 20795B
 $$$566F       2 00003A9C 00000001     H   20822 20811B
 $$$568F       2 00003AA8 00000001     H   20846 20837B
 $$$569F       2 00003AB0 00000001     H   20869 20856B
 $$$570F       2 00003AC8 00000001     H   20910 20886B
 $$$571        6 00003D1A 00000001     I   20900 20892X
 $$$572        6 00003D1A 00000001     I   20899 20900  20900
 $$$573        1 00000050 00000001 A   U   20933 20930  20932
 $$$575B       1 00003AF0 00000001     X   20963 20970U
 $$$578        1 00000050 00000001 A   U   21024 21021  21023
 $$$58B        1 00000438 00000001     X    7283  7290U
 $$$580B       1 00003B5E 00000001     X   21058 21065U
 $$$581F       2 00003B80 00000001     H   21128 21094B
 $$$582F       2 00003B80 00000001     H   21124 21109B
 $$$583F       2 00003BFE 00000001     H   21206 21163B 21180B 21195B
 $$$586        1 00000050 00000001 A   U   21239 21236  21238
 $$$588B       1 00003D3A 00000001     X   21315 21322U
 $$$589F       2 00003DA2 00000001     H   21477 21356B
 $$$589S       2 00003D52 00000001     H   21350 21476B
 $$$59         1 00000050 00000001 A   U    7323  7320   7322
 $$$591B       4 00003D66 00000001     I   21382 21415
 $$$591F       2 00003D7A 00000001     H   21412 21382B 21414
 $$$593E       2 00003D7E 00000001     H   21422 21416
 $$$593F       2 00003D98 00000001     H   21469 21418B
 $$$594F       2 00003D8C 00000001     H   21445 21434B
 $$$596        1 00000050 00000001 A   U   21499 21496  21498
 $$$598B       1 00003ED2 00000001     X   21566 21573U
 $$$601F       2 00003F58 00000001     H   21841 21657B
 $$$602F       2 00003F58 00000001     H   21835 21676B 21690B 21704B 21718B 21732B 21746B 21760B 21774B 21788B 21802B
                                                 21816B
 $$$61B        1 0000046E 00000001     X    7352  7359U
 $$$614        1 00000050 00000001 A   U   21878 21875  21877
 $$$616B       1 00003FAE 00000001     X   21937 21944U
 $$$617        1 00000050 00000001 A   U   21977 21974  21976
 $$$619B       1 00003FE4 00000001     X   22005 22012U
 $$$62         1 00000050 00000001 A   U    7392  7389   7391
1OPT      (OPT2025) (12:50) (15MAR04) Ordinary Symbol and Literal Cross Reference                                           Page   89
 $$$620        1 00000050 00000001 A   U   22045 22042  22044
 $$$622B       1 0000401A 00000001     X   22073 22080U
 $$$623        1 00000050 00000001 A   U   22113 22110  22112
 $$$625B       1 00004782 00000001     X   22843 22850U
 $$$626F       2 00004794 00000001     H   22881 22872B
 $$$627F       2 000047A8 00000001     H   22921 22897B
 $$$628        6 00004DEE 00000001     I   22911 22903X
 $$$629        6 00004DEE 00000001     I   22910 22911  22911
 $$$630        1 00000050 00000001 A   U   22943 22940  22942
 $$$631F       2 00004894 00000001     H   23263 23066B 23108B
 $$$632B       1 000047D2 00000001     X   22993 23000U
 $$$633F       2 00004822 00000001     H   23070 23058B
 $$$634F       2 00004844 00000001     H   23123 23080B
 $$$635F       2 00004838 00000001     H   23112 23095B
 $$$636F       2 00004850 00000001     H   23143 23134B
 $$$637F       2 00004864 00000001     H   23183 23159B
 $$$638        6 00004DF4 00000001     I   23173 23165X
 $$$639        6 00004DF4 00000001     I   23172 23173  23173
 $$$64B        1 000004A4 00000001     X    7421  7428U
 $$$640F       2 00004892 00000001     H   23245 23229B
 $$$640T       2 0000488C 00000001     H   23232 23203B 23217B
 $$$643        1 00000250 00000001 A   U   23272 23269  23271
 $$$645B       1 000048BC 00000001     X   23300 23307U
 $$$646        1 00000050 00000001 A   U   23334 23331  23333
 $$$648B       1 000048E8 00000001     X   23362 23369U
 $$$649        1 00000050 00000001 A   U   23396 23393  23395
 $$$65         1 00000050 00000001 A   U    7461  7458   7460
 $$$651B       1 00004914 00000001     X   23423 23430U
 $$$652        1 00000050 00000001 A   U   23458 23455  23457
 $$$654B       1 00004948 00000001     X   23485 23492U
 $$$655        1 00000050 00000001 A   U   23519 23516  23518
 $$$657B       1 00004976 00000001     X   23547 23554U
 $$$658F       2 00004994 00000001     H   23607 23592B
 $$$658T       2 00004988 00000001     H   23595 23580B
 $$$661        6 00004DFA 00000001     I   23633 23625X
 $$$662        6 00004DFA 00000001     I   23632 23633  23633
 $$$663        1 00000050 00000001 A   U   23667 23664  23666
 $$$665B       1 000049E4 00000001     X   23695 23702U
 $$$666        1 00000050 00000001 A   U   23729 23726  23728
 $$$668B       1 00004A10 00000001     X   23757 23764U
 $$$669        1 00000050 00000001 A   U   23803 23800  23802
 $$$67B        1 000004DA 00000001     X    7490  7497U
 $$$671B       1 00004A42 00000001     X   23831 23838U
 $$$672        1 00000050 00000001 A   U   23878 23875  23877
 $$$674B       1 00004A74 00000001     X   23906 23913U
 $$$675        1 00000050 00000001 A   U   23946 23943  23945
 $$$677B       1 00004AA2 00000001     X   23974 23981U
 $$$678        1 00000050 00000001 A   U   24009 24006  24008
 $$$68         1 00000050 00000001 A   U    7530  7527   7529
 $$$680B       1 00004AD2 00000001     X   24037 24044U
 $$$681        1 00000050 00000001 A   U   24072 24069  24071
 $$$683B       1 00004B02 00000001     X   24100 24107U
 $$$684        1 00000050 00000001 A   U   24139 24136  24138
 $$$686B       1 00004B2E 00000001     X   24167 24174U
 $$$687        1 00000050 00000001 A   U   24207 24204  24206
 $$$689B       1 00004B5A 00000001     X   24235 24242U
 $$$690        1 00000050 00000001 A   U   24278 24275  24277
 $$$692B       1 00004B86 00000001     X   24306 24313U
 $$$693        1 00000050 00000001 A   U   24348 24345  24347
1OPT      (OPT2025) (12:50) (15MAR04) Ordinary Symbol and Literal Cross Reference                                           Page   90
 $$$695B       1 00004BB2 00000001     X   24376 24383U
 $$$696        1 00000050 00000001 A   U   24415 24412  24414
 $$$698B       1 00004BDE 00000001     X   24443 24450U
 $$$699        1 00000050 00000001 A   U   24482 24479  24481
 $$$70B        1 00000742 00000001     X    7776  7783U
 $$$701B       1 00004C0A 00000001     X   24510 24517U
 $$$702        1 00000050 00000001 A   U   24552 24549  24551
 $$$704B       1 00004C36 00000001     X   24580 24587U
 $$$705        1 00000050 00000001 A   U   24626 24623  24625
 $$$707B       1 00004C66 00000001     X   24654 24661U
 $$$708        1 00000050 00000001 A   U   24700 24697  24699
 $$$71F        2 0000077C 00000001     H    7874  7821B  7834B  7847B
 $$$710B       1 00004C96 00000001     X   24727 24734U
 $$$711F       2 00004CA6 00000001     H   24767 24755B
 $$$712        1 00000050 00000001 A   U   24797 24794  24796
 $$$714B       1 00004CD8 00000001     X   24824 24831U
 $$$715F       2 00004CE8 00000001     H   24864 24852B
 $$$716        1 00000050 00000001 A   U   24893 24890  24892
 $$$718B       1 00004D1A 00000001     X   24920 24927U
 $$$719F       2 00004D28 00000001     H   24958 24946B
 $$$720        1 00000050 00000001 A   U   24986 24983  24985
 $$$722B       1 00004E1A 00000001     X   25048 25055U
 $$$723F       2 00004E46 00000001     H   25126 25114B
 $$$723T       2 00004E40 00000001     H   25117 25090B 25103B
 $$$726        1 00000050 00000001 A   U   25294 25291  25293
 $$$728B       1 00004FA8 00000001     X   25321 25328U
 $$$729        1 00000050 00000001 A   U   25361 25358  25360
 $$$731B       1 00004FDC 00000001     X   25388 25395U
 $$$732F       2 00004FF0 00000001     H   25431 25416B
 $$$733        1 00000050 00000001 A   U   25451 25448  25450
 $$$735B       1 00005020 00000001     X   25478 25485U
 $$$736        1 00000050 00000001 A   U   25514 25511  25513
 $$$738B       1 00005054 00000001     X   25541 25548U
 $$$739        1 00000050 00000001 A   U   25576 25573  25575
 $$$74F        2 0000077C 00000001     H    7870  7861B
 $$$741B       1 00005084 00000001     X   25603 25610U
 $$$742F       2 00005098 00000001     H   25646 25631B
 $$$743        1 00000050 00000001 A   U   25666 25663  25665
 $$$745B       1 000050C8 00000001     X   25693 25700U
 $$$746        1 00000050 00000001 A   U   25733 25730  25732
 $$$75F        2 0000078A 00000001     H    7896  7887B
 $$$76F        2 00000800 00000001     H    8049  7924B
 $$$77F        2 000007B8 00000001     H    7950  7940B
 $$$78F        2 000007EC 00000001     H    8005  7965B
 $$$79F        2 00000800 00000001     H    8045  8021B
 $$$80         6 00000E5E 00000001     I    8035  8027X
 $$$81         6 00000E5E 00000001     I    8034  8035   8035
 $$$82B        4 00000814 00000001     I    8085  8102
 $$$82F        2 00000824 00000001     H    8095  8085B  8101
 $$$82T        2 00000818 00000001     H    8088  8074B
 $$$84B        4 0000082C 00000001     I    8119  8133
 $$$84E        2 00000828 00000001     H    8109  8103
 $$$84F        2 0000083C 00000001     H    8129  8105B  8119B  8132
 $$$86E        2 00000840 00000001     H    8140  8134
 $$$86F        2 00000842 00000001     H    8148  8136B
 $$$87         1 00000050 00000001 A   U    8173  8170   8172
 $$$89B        1 0000086C 00000001     X    8203  8210U
 $$$90F        2 000008C8 00000001     H    8344  8248B
 $$$91B        4 0000089A 00000001     I    8279  8294
1OPT      (OPT2025) (12:50) (15MAR04) Ordinary Symbol and Literal Cross Reference                                           Page   91
 $$$91F        2 000008AA 00000001     H    8289  8279B  8293
 $$$91T        2 0000089E 00000001     H    8282  8268B
 $$$93B        4 000008B2 00000001     I    8311  8325
 $$$93E        2 000008AE 00000001     H    8301  8295
 $$$93F        2 000008C2 00000001     H    8321  8297B  8311B  8324
 $$$95E        2 000008C6 00000001     H    8332  8326
 $$$95F        2 000008C8 00000001     H    8340  8328B
 $$$96         1 00000050 00000001 A   U    8363  8360   8362
 $$$98B        1 000008F0 00000001     X    8394  8401U
 $$$99B        4 000008FE 00000001     I    8424  8437
 $$$99F        2 00000902 00000001     H    8432  8424B  8436
 @RAR          0 00000000 FFFFFFF0     @    1126  2442   2450B
 @R0           0 00000000 FFFFFFFE     @     706   982U
 @R1           0 00000000 FFFFFFFD     @     719   978U  2448   2449   7833   7846   7939   7951   8034   8071   8084
                                                  8090   8091   8118   8124   8125   8265   8278   8284   8285   8310
                                                  8316   8317   8455   8468   8474   8475   8504   8510   8511   8866
                                                  8895   8908   8921   9462   9611   9716   9865  15110  15146  15183
                                                 16552  16619  16716  16772M 16843  16873  16882  17003  17146  17159
                                                 17179  17349  17403  17921  18152  18582  18837  18839  19196  20337U
                                                 20817  20899  22910  23172  23632  25100
 @R10          0 00000000 FFFFFFF4     @     836   942U
 @R11          0 00000000 FFFFFFF3     @     849   938U
 @R12          0 00000000 FFFFFFF2     @     862   934U
 @R13          0 00000000 FFFFFFF1     @     875   930U 12424  12873  13274  13365  15610  15747  17106  23614M 23614
                                                 23632M 23640  23641  23642  23643  25275
 @R14          0 00000000 FFFFFFF0     @     888   926U 16772
 @R15          0 00000000 FFFFFFEF     @     901   922U 18633  18671  18684  18703  18725  18728  18768  18809  18979M
                                                 19350  19353  23185
 @R2           0 00000000 FFFFFFFC     @     732   974U 18787  18789  18817  21367U
 @R3           0 00000000 FFFFFFFB     @     745   970U 25113
 @R4           0 00000000 FFFFFFFA     @     758   966U 16837  16986  17208  17233  17302  17434  17450  17471  17484
                                                 17512  17643  17662  17757  17770  17787  17823  17836  17862  18018
                                                 18054  18067  18093  18282  18295  18931  18944  18957  18979  19122
 @R5           0 00000000 FFFFFFF9     @     771   962U
 @R6           0 00000000 FFFFFFF8     @     784   958U  9058   9071   9106   9145   9180   9217  21366  21470
 @R7           0 00000000 FFFFFFF7     @     797   954U  6676U  6793U  6925U  7057U  7190U  7312U  7381U  7450U  7519U
                                                  8162U  8352U  8527U  8657U  8776U  8961U  9375U  9630U  9884U  9998U
                                                 10067U 10136U 10205U 10274U 10343U 10412U 10481U 10933U 11001U 11064U
                                                 11135U 11214U 11294U 11375U 11474U 11544U 11616U 11683U 11745U 11812U
                                                 11880U 11952U 12088U 12186U 12441U 12550U 12620U 12907U 13191U 13282U
                                                 13373U 13441U 13510U 13572U 13674U 13743U 13812U 13964U 14031U 14103U
                                                 14172U 14241U 14498U 14572U 14646U 14713U 14781U 15269U 15390U 15454U
                                                 15621U 15758U 15952U 16019U 16086U 16147U 16238U 19369U 19594U 19656U
                                                 19718U 19805U 19916U 20922U 21013U 21228U 21488U 21867U 21966U 22034U
                                                 22102U 22932U 23261U 23323U 23385U 23447U 23508U 23656U 23718U 23792U
                                                 23867U 23935U 23998U 24061U 24128U 24196U 24267U 24337U 24404U 24471U
                                                 24541U 24615U 24689U 24786U 24882U 24975U 25283U 25350U 25440U 25503U
                                                 25565U 25655U 25722U
 @R8           0 00000000 FFFFFFF6     @     810   950U 19364U 23256U
 @R9           0 00000000 FFFFFFF5     @     823   946U
 ABSCENT       1 00000000 00000000 A   T    2458  2458
 ACCTKWS       4 00000610 00000001     F    7644  9912
 ACCTKWSC      4 00000598 00000001     F    7598  9911
 ACCTKWSL      4 000004F8 00000001     F    7536  9908
 ACCTKWSN      4 00000548 00000001     F    7567  9910
 ACCTPSH       2 000004C0 00000001     H    7471  7467   7625  22630
 ACCTPSHC      2 0000048A 00000001     H    7402  7398
 ACCTPSHL      2 0000041E 00000001     H    7264  7260
 ACCTPSHN      2 00000454 00000001     H    7333  7329
1OPT      (OPT2025) (12:50) (15MAR04) Ordinary Symbol and Literal Cross Reference                                           Page   92
 ASCII         2 00004C1C 00000001     H   24561 22311
 ASCTBL        1 00000000 00000000 A   T    2466  2466
 ATTNLINE      2 00002414 00000001     H   14897 14893
 ATTNLNKW      4 00002554 00000001     F   15288 15478
 BLKLOOP       4 00003404 00000001     I   19350 19354B
 BLTBL         1 00000000 00000000 A   T    2468  2468
 BR            7 00000007 00000001 A   #    1016  6612M  6729M  6861M  6993M  7126M  7278M  7347M  7416M  7485M  7771M
                                                  8198M  8389M  8567M  8694M  8815M  8999M  9411M  9665M  9964M 10033M
                                                 10102M 10171M 10240M 10309M 10378M 10447M 10898M 10967M 11035M 11098M
                                                 11169M 11248M 11328M 11408M 11508M 11578M 11650M 11717M 11779M 11846M
                                                 11918M 12038M 12152M 12265M 12520M 12583M 12658M 13091M 13225M 13316M
                                                 13407M 13475M 13544M 13640M 13709M 13778M 13931M 13998M 14069M 14138M
                                                 14207M 14464M 14532M 14606M 14680M 14747M 14911M 15350M 15423M 15518M
                                                 15655M 15898M 15985M 16052M 16120M 16203M 16298M 19566M 19628M 19690M
                                                 19751M 19838M 19969M 20958M 21053M 21310M 21561M 21932M 22000M 22068M
                                                 22838M 22988M 23295M 23357M 23418M 23480M 23542M 23690M 23752M 23826M
                                                 23901M 23969M 24032M 24095M 24162M 24230M 24301M 24371M 24438M 24505M
                                                 24575M 24649M 24722M 24819M 24915M 25043M 25316M 25383M 25473M 25536M
                                                 25598M 25688M
 CACCDONE      2 00000BA4 00000001     H    9368  9251B  9295B  9339B  9365B
 CARDA         2 00004A88 00000001     H   23955 22176
 CASEKWS       4 0000126C 00000001     F   10739 12116
 CASEPSH       2 00000F72 00000001     H   10295 10291
 CBADACCT      2 00000B18 00000001     H    9254  9037B  9240B
 CBADCHAR      2 00000B4A 00000001     H    9298  9097B  9118B  9171B  9192B
 CBADFRMT      2 00000B7C 00000001     H    9342  9223B
 CHARCHKA      1 00000000 0000000E     T    9922  9922
 CHECKIOB      1 00000000 00000000 A   T    2514  2514
 CHKKWS        4 00001B0C 00000001     F   12924 13604
 CKACCT        2 00000A72 00000001     H    8985  9919
 CLRKWS        4 000021D0 00000001     F   14324 14809
 CLRPSH        2 000020F8 00000001     H   14193 14189
 CLRTEXT       1 00000000 00000016     T   13607 13607
 CLSCRKWS      4 000021A8 00000001     F   14309 14808
 CLSCRPSH      2 000020C2 00000001     H   14124 14120
 CNOLINE       2 0000199C 00000001     H   12506 12470  12500
 CNVCODE       2 0000495C 00000001     H   23528 22386  23524
 COLBY         2 00001C9C 00000001     H   13077 12951
 COLCLR        2 00001CFE 00000001     H   13211 12966  12981
 COLKEEP       2 00001D54 00000001     H   13302 12996  13011  13026
 COLLINE       2 000019D2 00000001     H   12569 12485
 COLLKWS       4 000017C0 00000001     F   12203 13596
 COLLN         4 00001924 00000001     F   12458 13600
 COLLOPTS      2 000000C0 00000001     H    6715  6711
 COLLPSH       2 00001788 00000001     H   12138  6821  12134
 COLOWRN       2 00001DAA 00000001     H   13393 13056
 COLSKWS       4 000016A8 00000001     F   11973 12119
 COLSPSH       2 00001670 00000001     H   11904 11900
 COLWARN       2 00001DDA 00000001     H   13461 13041
 COMMAND       1 00000000 00000000 A   T    2454  2454
 COMMSEG       1 00000000 00000000 A   T    2455  2455
 COPTSKWS      4 00000140 00000001     F    6809  7244
 CP         4096 00000000 FFFFFFEB     J    6468  1443U
 CP#XSTK       1 00000010 FFFFFFEB A   U    4200  4201
 CPACFLG       1 000005D5 FFFFFFEB     R    4303  4307   4312   4317   4322   4327
 CPACFLN       4 000005C4 FFFFFFEB     F    4295  4330   4330
 CPACLNO       4 000005A8 FFFFFFEB     F    4257 12542M
 CPAFLAG       1 000005C3 FFFFFFEB     R    4267  4271   4276   4281   4286
 CPAFNAME    128 0000062C FFFFFFEB     C    4341 18530  18606  18622  19158
1OPT      (OPT2025) (12:50) (15MAR04) Ordinary Symbol and Literal Cross Reference                                           Page   93
 CPAFNAMEL
               4 00000628 FFFFFFEB     F    4340 18383  18535  18611  19163
 CPAHOST     128 000006B0 FFFFFFEB     C    4343 18499
 CPAHOSTL      4 000006AC FFFFFFEB     F    4342 18438
 CPANAME       8 00000588 FFFFFFEB     C    4249  4345   4345
 CPAUTFLG      1 000008A9 FFFFFFEB     R    4613  4617   4622   4627   4632
 CPAUTHGP      2 000008A7 FFFFFFEB     C    4609 21210
 CPAUTHUS      3 000008A4 FFFFFFEB     C    4608 21212
 CPCACCT       5 00000C48 FFFFFFEB     C    5278  8599   8715  23501M
 CPCGRP        2 00000C4B FFFFFFEB     C    5280  8090M  8124M  8284M  8316M  8474M  8510M  9865M 17890M 17921M 20471M
                                                 20471  20478
 CPCHFLAG      1 00000B68 FFFFFFEB     R    5240  5244
 CPCMNM        3 00000D24 FFFFFFEB     C    5566 19336  24754  24851
 CPCUSER       3 00000C48 FFFFFFEB     C    5279  8091M  8125M  8285M  8317M  8475M  8511M  9611M 18121M 18152M 20493M
                                                 20493  20500
 CPDFLG        1 0000084C FFFFFFEB     R    4500  4504   4509   4514   4519   4524
 CPDFLG2       1 0000084D FFFFFFEB     R    4529  4533   4538   4543   4548   4553   4558
 CPDMPDLT      4 00000C6C FFFFFFEB     F    5291 12611M 13154M
 CPDMPLST      4 00000C68 FFFFFFEB     F    5290 12541M 12610M 13165  13175M
 CPDSNWA       4 00000E5C FFFFFFEB     F    6105 15933M 15933  15934M 15934  16390M 16390  16391M 16391
 CPERRID       8 00000886 FFFFFFEB     C    4599 16524M 16532M 16573M 17570M 17952M 17984M 18183M 18215M 18319M 18353M
                                                 18404M 18412M 19246M 19254M 20637M 20710M
 CPEXFLG       1 00000758 FFFFFFEB     R    4369  4373
 CPEXFLG2      1 00000759 FFFFFFEB     R    4379  4388   4398
 CPEXFLG3      1 0000075A FFFFFFEB     R    4405  4409   4414
 CPEXTFLG      1 00000E28 FFFFFFEB     R    6051  6055   6060   6065   6070   6075   6080
 CPFABORT    128 00000D5A FFFFFFEB         5817  2418M  2418   2423M  2423
 CPFAUSET      1 00000040 FFFFFFEB A   U    3866 21208
 CPFCASE      32 00000D57 FFFFFFEB         5757 11536  11536  11537M 11604M
 CPFCLEAR     16 00000D55 FFFFFFEB         5697 13251M 13349M 14558M 14639M
 CPFCOL        2 00000C4E FFFFFFEB     H    5282 12061M
 CPFDSNBD      8 00000D5C FFFFFFEB         5872 19312M 20643M 23105M
 CPFDSNMS      1 00000020 FFFFFFEB A   U    5593 19277  19345
 CPFDSNNE     16 00000D5C FFFFFFEB         5867 16518  16567  16914  17068  17946  18177  18313  18398  19012  19067
                                                 19240  19290  19781  19868  20631  23094
 CPFDSN1       1 00000002 FFFFFFEB A   U    5585 15944  16336  16379
 CPFDUMP     128 00000D55 FFFFFFEB         5682 12362M 12689
 CPFERROR     64 00000D5A FFFFFFEB         5822  2417M  2417   2422M  2422
 CPFEXEC     128 00000758 FFFFFFEB         4373 14942  17707  21177
 CPFFOPT       1 00000010 FFFFFFEB A   U    5672 11057  11126  11205  11285  11366  11444  11457  25067
 CPFGEN        4 00000D58 FFFFFFEB         5797 18992M 20593  21093
 CPFINT       16 00000D58 FFFFFFEB         5787 13957M
 CPFKEEP       8 00000D55 FFFFFFEB         5702 13258M 13342M 14565M 14632M
 CPFKWENT      1 00000080 FFFFFFEB A   U    3852 21141
 CPFNEWED    128 00000E28 FFFFFFEB         6055 23778M 23853M
 CPFNLST       1 00000020 FFFFFFEB A   U    5671 10924  10992  11056
 CPFNONUM      1 000000C0 FFFFFFEB A   U    5670 11056  11123  11195  11274  11354  11452  25066
 CPFNTEX       1 00000040 FFFFFFEB A   U    5669  5670  11057
 CPFNWARN      4 00000D55 FFFFFFEB         5707 13433M 13502M 14706M 14774M
 CPFQUIET     64 00000D55 FFFFFFEB         5687 14024M
 CPFRDACT      1 00000D89 FFFFFFEB         5985 15562M 15699M 16011M
 CPFRDEXE      2 00000D89 FFFFFFEB         5995 15015M 16078M
 CPFRDEXT      3 00000D89 FFFFFFEB         6005 15924M
 CPFRDRNG      1 00000D88 FFFFFFEB     R    5937  5941   5946   5951   5956   5961   5966   5971
 CPFRDSRC      1 00000D89 FFFFFFEB     R    5976  5985   5995   6005  15002  15009M 15054M 15551  15688
 CPFSCRTC      1 00000040 FFFFFFEB A   U    5592 14489
 CPFSET        1 00000080 FFFFFFEB A   U    5623 23316  23378
 CPFUNUM       1 00000080 FFFFFFEB A   U    5668  5670  11202
 CPFUPPER     16 00000D57 FFFFFFEB         5762 11536  11536  11609M
1OPT      (OPT2025) (12:50) (15MAR04) Ordinary Symbol and Literal Cross Reference                                           Page   94
 CPFVER       32 00000D58 FFFFFFEB         5782 11805M 11873M
 CPFXDFLG      1 000007E4 FFFFFFEB     R    4447  4451   4456
 CPFXOLD       2 00000759 FFFFFFEB         4398 14996
 CPFXTEND      1 00000759 FFFFFFEB         4388 15080
 CPGFLG1       1 00000474 FFFFFFEB     R    3810  3814   3819   3824   3829   3834   4164   4164
 CPGFLG10      1 0000047D FFFFFFEB     R    4047  4051   4056   4061   4066   4071   4076
 CPGFLG11      1 0000047E FFFFFFEB     R    4082  4086   4091
 CPGFLG12      1 0000047F FFFFFFEB     R    4097  4101   4106   4111
 CPGFLG13      1 00000480 FFFFFFEB     R    4117  4121
 CPGFLG14      1 00000481 FFFFFFEB     R    4127  4131   4136   4141   4146   4151
 CPGFLG3       1 00000476 FFFFFFEB     R    3850 21141
 CPGFLG4       1 00000477 FFFFFFEB     R    3863  3874   3883   3892   3901   3910  21208
 CPGFLG5       1 00000478 FFFFFFEB     R    3916  3920   3925   3930   3935   3940   3945   3950   3955
 CPGFLG6       1 00000479 FFFFFFEB     R    3961  3965   3970   3975
 CPGFLG7       1 0000047A FFFFFFEB     R    3981  3985   3990   3995   4000
 CPGFLG8       1 0000047B FFFFFFEB     R    4006  4010   4015   4020   4025
 CPGFLG9       1 0000047C FFFFFFEB     R    4031  4035   4041
 CPGRPSV       2 000001BB FFFFFFEB     C    2988 17677  21143
 CPHOST       32 000001BD FFFFFFEB     C    2990 17544M 17544  17582  17582
 CPINIT        1 00000174 FFFFFFEB     U    2980  6437
 CPJESFLG      1 000009E1 FFFFFFEB     R    4712  4716   4721   4726   4731   4736   4741   4746   4751
 CPJESFLY      1 000009FD FFFFFFEB     R    4762  4766   4771   4776
 CPJESHFL      1 000009E0 FFFFFFEB     R    4697  4701   4706   4785   4785
 CPLCOL        2 00000C50 FFFFFFEB     H    5283 12081M
 CPLCOLXP    128 00000D57 FFFFFFEB         5747 12609M
 CPLFLG1       1 00000D50 FFFFFFEB     R    5580 15944M 16338  16381M
 CPLFLG10      1 00000D59 FFFFFFEB     R    5803  5807
 CPLFLG11      1 00000D5A FFFFFFEB     R    5813  5817   5822   5827   5832
 CPLFLG12      1 00000D5B FFFFFFEB     R    5838  5842
 CPLFLG14      1 00000D5C FFFFFFEB     R    5848  5852   5857   5862   5867   5872
 CPLFLG2       1 00000D51 FFFFFFEB     R    5590 14491M 19277  19345
 CPLFLG3       1 00000D52 FFFFFFEB     R    5621 23316M 23378M
 CPLFLG5       1 00000D54 FFFFFFEB     R    5665 10926M 10994M 11056M 11057M 11128M 11197M 11207M 11276M 11287M 11356M
                                                 11368M 11435M 11446  11452M 11459M 25066M 25067M
 CPLFLG6       1 00000D55 FFFFFFEB     R    5678  5682   5687   5692   5697   5702   5707
 CPLFLG7       1 00000D56 FFFFFFEB     R    5713  5717   5722   5727   5732   5737
 CPLFLG8       1 00000D57 FFFFFFEB     R    5743  5747   5752   5757   5762
 CPLFLG9       1 00000D58 FFFFFFEB     R    5768  5772   5777   5782   5787   5792   5797
 CPLIB         8 000008AB FFFFFFEB     C    4671 19347  19347  21003
 CPLLEN        2 00000C52 FFFFFFEB     H    5285 11672M 11738M
 CPLOCALZ      1 00000C48 FFFFFFEB     U    5270  6431   6431
 CPLRCL        4 00000D9C FFFFFFEB     F    6012 15926M 16383M 23711M 23785M 23785  23860M 23860  23928M 23928  23991M
                                                 24054M
 CPMFLG        1 0000084F FFFFFFEB     R    4567  4571
 CPMODFLG      1 00000C78 FFFFFFEB     R    5298  5302   5307   5312   5317   5322
 CPNAMELN      1 00000010 FFFFFFEB A   U    4193  4440
 CPNEDPFX     10 00000E29 FFFFFFEB     X    6084  6085   6086
 CPNFINT       1 00000008 FFFFFFEB A   U    5673 11433
 CPNFRNUM      8 00000C79 FFFFFFEB         5340 11282M 11361M
 CPNSCANP      4 0000008C FFFFFFEB     A    2853  6635   6642   6658   6752   6759   6775   6884   6891   6907   7016
                                                  7023   7039   7149   7156   7172   7796   7805   7901   7910   7983
                                                  7995   8054   8223   8232   8412   8592   8621   9257   9277   9289
                                                  9301   9321   9333   9345   9359   9434   9517   9529   9578   9590
                                                  9688   9771   9783   9832   9844  12311  12344  12366  12372  12379
                                                 12395  12421  12697  12704  12760  12767  12783  12870  13133  13261
                                                 13271  13352  13362  15018  15025  15041  15088  15221  15378  15569
                                                 15575  15582  15598  15607  15706  15712  15719  15735  15744  16420
                                                 16429  16450  16472  16489  16963  16992  17010  17017  17033  17103
                                                 18843  18854  18861  18876  23022  23029  23042  25135  25152  25161
1OPT      (OPT2025) (12:50) (15MAR04) Ordinary Symbol and Literal Cross Reference                                           Page   95
                                                 25168  25184  25198  25205  25221  25235  25242  25258  25272
 CPNUMFLG      1 00000C79 FFFFFFEB     R    5328  5340
 CPOFNCHG      4 00000149 FFFFFFEB         2942 12331
 CPORVCMD      1 00000140 FFFFFFEB     R    2862  2866   2871   2876   2881   2886   2891   2896   2901   2906   2906
                                                  2957   2957
 CPORVFLG      1 00000149 FFFFFFEB     R    2913  2917   2922   2927   2932   2937   2942   2947   2952
 CPORVWF       1 00000150 FFFFFFEB     R    2965  2969
 CPOSCANX      4 00000CA8 FFFFFFEB     F    5497  5564   5564
 CPPACCT       5 000007F8 FFFFFFEB     C    4470 17692M 17692  21162M 21162
 CPPGRP        2 000007FB FFFFFFEB     C    4472 17716  21186
 CPPUSER       3 000007F8 FFFFFFEB     C    4471 17717  21201
 CPR          11 0000000B 00000001 A   #    1080  1443U
 CPRACBAD     16 000001FC FFFFFFEB         3031  3065   3065   3066   3066
 CPRACF1       1 000001FC FFFFFFEB     R    3012  3016   3021   3026   3031   3036   3041   3046   3051   3067
 CPRACPSW     32 000001FC FFFFFFEB         3026  3064   3064   3066   3066
 CPRACUND     64 000001FC FFFFFFEB         3021  3064   3064   3065   3065
 CPRCVCUR      4 00000730 FFFFFFEB     A    4348  4350   4350
 CPRFLG        1 000008AA FFFFFFEB     R    4638  4642   4647   4652   4657   4662   4667
 CPS         254 00000344 FFFFFFEB     X    3782  3785   3786   3788   3788
 CPSACCT       5 000003B4 FFFFFFEB     C    3381  3544   3544  12298M 12298
 CPSAMCOD      1 00000A22 FFFFFFEB     R    4834  4842   4852   4862   4871   4880   4889   4899   4908   4917
 CPSAMFLG      1 00000A21 FFFFFFEB     R    4794  4798   4803   4808   4813   4818   4823   4828   4939   4939
 CPSAVE        4 00000C9C FFFFFFEB     A    5491 16633M 18835
 CPSCNFLG      1 00000CD0 FFFFFFEB     R    5510  5521   5530   5541
 CPSCNF2       1 00000CD1 FFFFFFEB     R    5546  5550
 CPSCNMAX      1 00000014 FFFFFFEB A   U    5562  5563
 CPSCRI        2 00000434 FFFFFFEB     H    3771  3776   3776
 CPSEG        60 00000050 FFFFFFEB     X    2851  8750  14961  16936  17563  17977  18208  18346  19042  19096  19893
                                                 20042  20424  20673
 CPSEGCOD      1 00000050 FFFFFFEB     R    2768  2777   2787   2797   2807   2817   2827   2837
 CPSEQFLD      2 00000DA0 FFFFFFEB     H    6013 15925M 16382M 25432M 25495M 25558M
 CPSEQLN       2 00000DA2 FFFFFFEB     H    6014 25647M
 CPSFL         1 00000384 FFFFFFEB     R    3119  3123   3128   3133   3138   3143
 CPSFLG        1 000003F8 FFFFFFEB     R    3659  3663   3668   3673   3678   3683   3688   3693   3698
 CPSFLG2       1 000003F9 FFFFFFEB     R    3704  3708   3713   3718
 CPSFL2        1 00000385 FFFFFFEB     R    3149  3153   3158   3163   3168
 CPSFL3        1 00000386 FFFFFFEB     R    3174  3178   3183   3188
 CPSFL4        1 00000387 FFFFFFEB     R    3194  3198   3203   3208
 CPSFL5        1 00000388 FFFFFFEB     R    3214  3218   3223   3228
 CPSFSAM      64 000003EA FFFFFFEB         3565 20108
 CPSFSPR      32 000003BE FFFFFFEB         3484 24945
 CPSGRP        2 000003B7 FFFFFFEB     C    3383  9731   9736  17890  21133
 CPSKAFL       1 000003BF FFFFFFEB     R    3515  3519   3524   3529   3534   3539
 CPSKIFL       1 000003BE FFFFFFEB     R    3470  3474   3479   3484   3489   3494   3499   3504   3509
 CPSOF         1 000001F8 FFFFFFEB     X    3002  3004   3004
 CPSOFLAG      1 00000416 FFFFFFEB     R    3729  3733   3738   3743   3748   3753
 CPSOPST       4 000003C4 FFFFFFEB     F    3549  3778   3778
 CPSPORT       8 00000354 FFFFFFEB     C    3113  3233   3233
 CPSPROJ       8 000003F0 FFFFFFEB     C    3655  8006M  8034M  9916
 CPSQFLG       1 000003EC FFFFFFEB     R    3578  3582
 CPSSFLG       1 000003BB FFFFFFEB     R    3388  3392   3397   3402   3407   3412   3417
 CPSSTART      4 00000344 FFFFFFEB     F    3105  3109   3109   3545   3545   3650   3650   3782   3782
 CPSSTAT       1 0000038F FFFFFFEB     R    3325  3329   3334   3339   3344   3349   3354   3359
 CPSTACF       1 000003BC FFFFFFEB     R    3423  3427   3432   3437   3442   3447   3452   3457   3462
 CPSTART       4 00000000 FFFFFFEB     C    2741  6435   6439
 CPSTFLAG      1 000003EA FFFFFFEB     R    3556  3560   3565   3570
 CPSTYPE       1 0000038C FFFFFFEB     R    3238  3247   3257   3267   3277   3287   3297   3307   3317
 CPSUFLG       1 000003EE FFFFFFEB     R    3593  3597   3602   3607   3612   3617   3622   3627   3632
 CPSUFLG2      1 000003EF FFFFFFEB     R    3638  3642   3647
1OPT      (OPT2025) (12:50) (15MAR04) Ordinary Symbol and Literal Cross Reference                                           Page   96
 CPSUSER       3 000003B4 FFFFFFEB     C    3382  9477   9482  18121  21135
 CPSVPGM       8 0000039C FFFFFFEB     C    3371  3377   3377
 CPS1ST        4 0000038C FFFFFFEB     F    3235  3780   3780
 CPTEMPP#      1 0000005F FFFFFFEB A   U    4688  4690
 CPTRMFL1      1 00000C7A FFFFFFEB     R    5346  5350   5355   5360   5484   5484
 CPTRMFL2      1 00000C7B FFFFFFEB     R    5366  5370   5375   5380   5385   5390   5395
 CPTRMFL3      1 00000C7C FFFFFFEB     R    5401  5405   5410   5415   5420   5425   5430   5435
 CPTRMFL4      1 00000C7D FFFFFFEB     R    5441  5445   5450   5455   5460   5465   5470   5475
 CPUSED        1 00000FBC FFFFFFEB A   U    6435  6436
 CPUSERSV      3 000001B8 FFFFFFEB     C    2987 17679  21145
 CPVACURS      8 00000AF0 FFFFFFEB     D    5213  5214   5215
 CPVCURS       8 00000AE0 FFFFFFEB     D    5207  5208   5209
 CPVFLAG       1 00000AC8 FFFFFFEB     R    5008  5012   5017   5022   5027   5032
 CPVFLAG2      1 00000AC9 FFFFFFEB     R    5038  5042   5047   5052   5057   5062   5067
 CPVFLAG3      1 00000ACA FFFFFFEB     R    5073  5077   5082   5087   5092   5097   5102
 CPVFLAG4      1 00000ACB FFFFFFEB     R    5108  5112   5117   5122
 CPVLFLAG      1 00000ACE FFFFFFEB     R    5177  5181   5186   5191
 CPVMODE       1 00000ACC FFFFFFEB     R    5130  5134   5139   5144   5149   5154   5159   5164   5169
 CPVTWID       2 00000AD0 FFFFFFEB     H    5197  5200   5200
 CPWK1         4 00000D60 FFFFFFEB     F    5881  5896   5919
 CPWK2         4 00000D64 FFFFFFEB     F    5882  5897   5911
 CPWK3         4 00000D68 FFFFFFEB     F    5883  5898   5912
 CPWK4         4 00000D6C FFFFFFEB     F    5884  5899   5913
 CPWK5         4 00000D70 FFFFFFEB     F    5885  5901   5906   5914
 CPWK6         4 00000D74 FFFFFFEB     F    5886  5902   5907   5915   5922   5924
 CPWK7         4 00000D78 FFFFFFEB     F    5887  5900   5916
 CPXFLAG       1 000007FD FFFFFFEB     R    4475  4479
 CPXSTATE      4 000007F8 FFFFFFEB     F    4469  4482   4482
 CV         4016 00000000 FFFFFFED     J    2644  1452U
 CVABSRTN      4 0000088C FFFFFFED     V    2458  2433
 CVABTMSG      4 000007CC FFFFFFED     I    2418 16955B 17575B 19793B 19904B 20721B
 CVBLANKS    235 000004D8 FFFFFFED     C    2238  8006  16689  17275  17326  17375  17581  18472  18554  19110  19169
                                                 19264  20386  20872  22882  23144  23440
 CVBRMSK       1 00000751 FFFFFFED     X    2374  2375   2376
 CVCFLAG       1 00000A00 FFFFFFED     R    2539  2543   2548   2553   2558   2563
 CVCHKST       8 000009F0 FFFFFFED     D    2529  2619   2619
 CVCHKST2      8 00000E28 FFFFFFED     D    2622  2625   2625
 CVCOMRTN      4 0000087C FFFFFFED     V    2454  2424
 CVDBGFLG      1 000004CC FFFFFFED     R    2228  2232
 CVENT         4 0000074C FFFFFFED     I    2372  6612B  6729B  6861B  6993B  7126B  7278B  7347B  7416B  7485B  7771B
                                                  8198B  8389B  8567B  8694B  8815B  8999B  9411B  9665B  9964B 10033B
                                                 10102B 10171B 10240B 10309B 10378B 10447B 10898B 10967B 11035B 11098B
                                                 11169B 11248B 11328B 11408B 11508B 11578B 11650B 11717B 11779B 11846B
                                                 11918B 12038B 12152B 12265B 12520B 12583B 12658B 13091B 13225B 13316B
                                                 13407B 13475B 13544B 13640B 13709B 13778B 13931B 13998B 14069B 14138B
                                                 14207B 14464B 14532B 14606B 14680B 14747B 14911B 15350B 15423B 15518B
                                                 15655B 15898B 15985B 16052B 16120B 16203B 16298B 19566B 19628B 19690B
                                                 19751B 19838B 19969B 20958B 21053B 21310B 21561B 21932B 22000B 22068B
                                                 22838B 22988B 23295B 23357B 23418B 23480B 23542B 23690B 23752B 23826B
                                                 23901B 23969B 24032B 24095B 24162B 24230B 24301B 24371B 24438B 24505B
                                                 24575B 24649B 24722B 24819B 24915B 25043B 25316B 25383B 25473B 25536B
                                                 25598B 25688B
 CVENTBR       2 00000750 FFFFFFED     I    2373  2374
 CVERRMSG      4 000007C8 FFFFFFED     I    2417  8761B 14972B 16537B 16585B 17989B 18220B 18358B 18417B 19053B 19107B
                                                 19259B 19305B 20053B 20435B 23119B 23603B 25343B 25427B 25642B 25715B
 CVERROR       4 000007D6 FFFFFFED     I    2422  2438B
 CVEXIRTN      4 0000077C FFFFFFED     V    2402  2398
 CVFCHRKBPR
               8 000004C9 FFFFFFED         2143  2159   2159
1OPT      (OPT2025) (12:50) (15MAR04) Ordinary Symbol and Literal Cross Reference                                           Page   97
 CVFCHRKBSE
               4 000004C9 FFFFFFED         2148  2159   2159
 CVFCHRKCPR
               2 000004C9 FFFFFFED         2165  2181   2181
 CVFCHRKCSE
               1 000004C9 FFFFFFED         2170  2181   2181
 CVFCHRUBPR
             128 000004C9 FFFFFFED         2099  2115   2115
 CVFCHRUBSE
              64 000004C9 FFFFFFED         2104  2115   2115
 CVFCHRUCPR
              32 000004C9 FFFFFFED         2121  2137   2137
 CVFCHRUCSE
              16 000004C9 FFFFFFED         2126  2137   2137
 CVFL          1 000004C4 FFFFFFED     R    1895  1899   1904   1909   1914   1919   1924   1929   1934
 CVFL2         1 000004C5 FFFFFFED     R    1940  1944   1949   1954   1959   1964   1969   1974   1979
 CVFL3         1 000004C6 FFFFFFED     R    1985  1989   1994   1999   2004   2009   2014   2019   2024
 CVFL4         1 000004C7 FFFFFFED     R    2030  2034   2039   2044   2049   2054   2059   2064
 CVFL5         1 000004C8 FFFFFFED     R    2070  2074   2079   2084   2089
 CVFL6         1 000004C9 FFFFFFED     R    2095  2099   2104   2116   2121   2126   2138   2143   2148   2160   2165
                                                  2170   2182
 CVHEAP#       1 00000200 FFFFFFED A   U    1801  1802
 CVINVRTN      4 00000888 FFFFFFED     V    2457  2427
 CVJESFLG      1 000004CA FFFFFFED     R    2188  2192
 CVLNKRGS      4 00000780 FFFFFFED     F    2404  2379M  2405
 CVLNKRTN      4 000007B0 FFFFFFED     U    2405  2394M
 CVLOCK1       1 00000088 FFFFFFED     R    1546  1550   1555
 CVLOCK2       1 00000089 FFFFFFED     R    1560  1564
 CVLOCK3       1 0000008A FFFFFFED     R    1569  1573
 CVLOCK4       1 0000008B FFFFFFED     R    1578  1582
 CVLOGMOD      1 00000068 FFFFFFED     R    1533  1537
 CVMACH        1 00000067 FFFFFFED     R    1493  1497   1502   1507   1512   1517   1522   1527
 CVMILRTN      4 00000884 FFFFFFED     V    2456  2436
 CVNOARTN      4 00000890 FFFFFFED     V    2459  2430
 CVNWDATE      4 00000608 FFFFFFED     F    2261  2265   2265
 CVNWMPG#      1 00000008 FFFFFFED A   U    2263  2264
 CVPFXRTN      1 00000000 00000000 A   T    2402  2402
 CVPGFLAG      1 00000A01 FFFFFFED     R    2569  2573   2578   2583
 CVPIOSZ       1 00004F80 FFFFFFED A   U    1632  1634
 CVPPDBQH      4 0000009C FFFFFFED     A    1590  1591
 CVPSFNO       1 000003E9 FFFFFFED A   N    1754  1756
 CVPSLNO       1 000007CF FFFFFFED A   N    1755  1756
 CVPXSZ        1 00000008 FFFFFFED A   U    1633  1634
 CVR          12 0000000C 00000001 A   #    1093  1452U
 CVRKEY        1 00000008 FFFFFFED A   U    2327  2328
 CVSEGRTN      4 00000880 FFFFFFED     V    2455  2419
 CVSTACK#      1 00000080 FFFFFFED A   U    1793  1794
 CVSTART       4 00000000 FFFFFFED     C    1466  2637
 CVTRC         4 00000768 FFFFFFED     I    2394  2380B
 CVTRCRTN      4 00000778 FFFFFFED     V    2401  2395
 CVUPPTBL      4 000008A8 FFFFFFED     V    2464 16746  23184
 CVUSFNO       1 00000001 FFFFFFED A   N    1761  1763
 CVUSLNO       1 000003E7 FFFFFFED A   N    1762  1763
 CVVOL#        1 00000005 FFFFFFED A   U    2612  2613
 CVWTOFLG      1 000004CB FFFFFFED     R    2198  2202   2207   2212   2217   2222
 DEBUGSG       1 00000000 00000000 A   T    2355  2355
 DEQUOTE       1 00000000 0000001A     T   19408 19408
 DEV          12 00000000 FFFFFFEA     J    4993  5001  20286U
 DEVDISK       2 0000375C 00000001     H   19552 19470
1OPT      (OPT2025) (12:50) (15MAR04) Ordinary Symbol and Literal Cross Reference                                           Page   98
 DEVMAX#       1 00000002 FFFFFFEB A   U    4944  5001
 DEVMICRO      2 00003788 00000001     H   19614 19485  19500
 DEVNET        2 000037B4 00000001     H   19676 19515
 DEVPRT        4 0000366C 00000001     F   19458 19411
 DEVTNET       2 00000001 FFFFFFEA         4980 20320
 DEVTSAM       1 00000001 FFFFFFEA         4970 20299
 DEVTYPE       1 00000001 FFFFFFEA     R    4961  4970   4980
 DFINEXT       4 00003958 00000001     I   20252 20168B 20208B
 DFOPTSKW      4 000002E0 00000001     F    7073  7246
 DMORE         2 00002DE8 00000001     H   17417 17397B
 DODSKIPT    256 00000100 FFFFFFE8     C   16264 16430  16439
 DODSNAME    256 00000000 FFFFFFE8     C   16263 16619M 16631
 DODSNGSV      4 00003BAE 00000001     I   21141 21134B 21138B
 DODSNM        2 00002A44 00000001     H   16282 16278  19401
 DODSNNS       2 00003B36 00000001     H   21009 20991B 20993B 20995B 20998B 21002B 21004B
 DODSNSA       2 00003BD8 00000001     H   21153 21142B 21144B
 DODSNSMY      4 00003C28 00000001     I   21218 21136B 21139B 21146B 21148B 21202B 21213B 21215B
 DODSNSX       4 00003C2C 00000001     I   21220 21132B 21149B 21209B 21211B 21216B
 DODSTOPT    256 00000200 FFFFFFE8     C   16265 16451  16460
 DODWA       768 00000000 FFFFFFE8     J   16272 16295  16324U 19377  19379  19380
 DOERREX       2 000033C2 00000001     H   19308 16525B 16574B 16917B 17074B 17953B 18184B 18320B 18405B 19015B 19070B
                                                 19247B 19293B
 DOLGO         4 000033CA 00000001     I   19314 19278B 19280B
 DOLGO2        2 00003418 00000001     I   19355 19321B 19323B 19346B 19351B
 DOPTSKWS      4 00000210 00000001     F    6941  7245
 DOTTBL        1 00000000 00000000 A   T    2471  2471
 DRENCFLG      1 00000F9F FFFFFFEB     R    6399  6403   6408   6413   6418   6423
 DRENPROT      1 00000F9E FFFFFFEB     R    6386  6394
 DSCNEXIT      2 0000341E 00000001     H   19360 17391B 19313B
 DSNCHK        2 00003D20 00000001     H   21296 21257
 DSNCHKX       2 00003DAA 00000001     H   21484 21441B 21478B
 DSNCHR        1 00003DB8 00000001     X   21512 21372  21513  21515  21517  21519  21521  21523  21525  21527
 DSNCODE       4 00000F5C FFFFFFEB     F    6352 23645M
 DSNDDISK      1 00000001 FFFFFFEB A   U    6333 19587  20078  20364  20527  20794
 DSNDNET       1 00000003 FFFFFFEB A   U    6335 19711  20236  20327
 DSNDONE       4 000033A0 00000001     I   19277 18840B 18851B 18899B 18993B 19265B
 DSNDSAM       1 00000002 FFFFFFEB A   U    6334 19649  20167  20207  20306
 DSNDTYPE      1 00000F3B FFFFFFEB     X    6332 19587M 19649M 19711M 20069  20078M 20167M 20207M 20236M 20306M 20327M
                                                 20364  20527  20794
 DSNFASCII
              64 00000F3A FFFFFFEB         6318 20004  20004  20005  24601M 24682M
 DSNFBADN     32 00000F37 FFFFFFEB         6188 20565  21083M 21120M
 DSNFCODE     32 00000F38 FFFFFFEB         6233 23620M
 DSNFDTRAN
               4 00000F39 FFFFFFEB         6293 24533  24533  24534M
 DSNFEBCDIC
              32 00000F3A FFFFFFEB         6323 20004  20004  24608M 24675M
 DSNFIN        2 000038A8 00000001     H   19955 19951
 DSNFMYDS      1 00000040 FFFFFFEB A   U    6136 21130  21218
 DSNFNONQ     16 00000F38 FFFFFFEB         6238 24964M
 DSNFOPTS      2 00000260 00000001     H    6979  6975
 DSNFQDSN      1 00000010 FFFFFFEB A   U    6138 16656  16737  16803  18368  20576
 DSNFSPLT     32 00000F39 FFFFFFEB         6278 24774M 24870M
 DSNFSTD       1 00000080 FFFFFFEB A   U    6135 17388  18716  19320  20453  20808  20984  20999  21131
 DSNFTABS      2 00000F39 FFFFFFEB         6298 24121M 24189M 24259  24259  24329  24329
 DSNFTEXTONLY
             128 00000F3A FFFFFFEB         6313 24397M
 DSNFTRAN    128 00000F39 FFFFFFEB         6268 20020  24464M 24533  24533
 DSNFUFMT      1 00000F39 FFFFFFEB         6303 24259  24259  24260M 24329  24329  24330M
1OPT      (OPT2025) (12:50) (15MAR04) Ordinary Symbol and Literal Cross Reference                                           Page   99
 DSNFWLIB      1 00000020 FFFFFFEB A   U    6137 19348  20987  21005
 DSNLONG       2 000032F6 00000001     I   19055 18756B 18796B
 DSNNPASS     32 00000EE4 FFFFFFEB     C    6124 23440M
 DSNNUSER     32 00000EC4 FFFFFFEB     C    6123 23439M 24998
 DSNON        40 00000E90 FFFFFFEB     C    6119  6120  15943M 15943  16400M 16400  17275M 17302M 17326  17339M 17339
                                                 17528M 17528  17581M 17582M 18432M 18432  18472M 18499M 19413  20090M
                                                 20090  20127  20141  20158  20187  20201  20252  20257  20380M 20380
                                                 20386  20386  20411  20416  21590  21595  21675  21689  21703  21717
                                                 21731  21745  21759  21773  21787  21801  21815  21829  21845  22882M
                                                 22910M 23144M 23172M 23185M 23200  23214  23228  23241M 23241  25004
 DSNOPTS       2 00000190 00000001     H    6847  6843
 DSNPRT        4 00004358 00000001     F   22423 24999
 DSNPRTF       4 00004038 00000001     F   22119 25001
 DSNPRTON      4 000045B0 00000001     F   22649 25002
 DSNPSH        2 00003F94 00000001     H   21918  6953  21914
 DSNPSHF       2 00003FCA 00000001     H   21986  7085  21982
 DSNPSHON      2 00004000 00000001     H   22054 22050
 DSNRC4        4 00003DA6 00000001     I   21480 21341B 21401B 21459B
 DSNSCAN       2 00002A14 00000001     H   16189 16185
 DSNSTDDO      2 00003AD6 00000001     H   20944 19422  20940
 DSNUDSDO      2 00003B44 00000001     H   21039 21035  21256
 DSNWACLR      1 000000AA FFFFFFEB A   U    6126 15936  16393
 DSNWACL2      1 00000034 FFFFFFEB A   U    6118 16345
 DSNWADSN     44 00000E5C FFFFFFEB     C    6106  6107   6108   6109   6118   6126   6357   6363   6365   6371   6374
                                                  6376   6379   6428  15935M 15936M 15936  16344M 16345M 16345  16392M
                                                 16393M 16393  16407  17375M 19347M 19349  20478M 20500M 20544  20661
                                                 20777  20990  20992  20994  21003  21133  21135  21137  21143  21145
                                                 21147  21186  21201  21210  21212  21214  21336
 DSNWAF1       1 00000F34 FFFFFFEB     R    6133 16358M 16658M 16739  16805  17390M 18370M 18718M 19320  19348M 20455
                                                 20578  20810  20989M 20999M 21005M 21130M 21131  21218M
 DSNWAF4       1 00000F37 FFFFFFEB     R    6174  6178   6183   6188   6193   6198   6203   6208   6213
 DSNWAF5       1 00000F38 FFFFFFEB     R    6219  6223   6228   6233   6238   6243   6248   6253   6258
 DSNWAF6       1 00000F39 FFFFFFEB     R    6264  6268   6273   6278   6283   6288   6293   6298   6303
 DSNWAF7       1 00000F3A FFFFFFEB     R    6309  6313   6318   6323   6328
 DSNWAMBR      8 00000E88 FFFFFFEB     C    6117 17382M 17382  18554M 18582M 19110M 19122M 19141  19169M 19196M 19222
                                                 19264M 19276M 19276
 DSNWANL       2 00000F06 FFFFFFEB     H    6127 17374M 17374  17669M 19314M 19356M 20665  20781  20996  21339
 DSNWFILE     44 00000F08 FFFFFFEB     C    6129 16357M 16357  16689M 16716M 17595  17601  17601M 17601  17602M 17602M
                                                 19409  20763  20872M 20899M 21259
 DSNWLEN       2 00000F04 FFFFFFEB     H    6125 16352M 16352  16688M 17605  17607M 17629M 17629  20749  20870M
 DSNWRAPL      2 00000F42 FFFFFFEB     H    6342 24775M 24871M
 DSNXG         1 00000004 FFFFFFEB A   U    6111  6113  17677M 17678M 17716M 20478M 20992  21133  21143  21186  21210
 DSNXGL        1 00000003 FFFFFFEB A   U    6112  6113  17677  17678M 17716  20478  20992  21133  21143  21186  21210
 DSNXN         1 0000000B FFFFFFEB A   U    6115 17722  19347M 19349  19437  21000  21003  21265
 DSNXU         1 00000007 FFFFFFEB A   U    6113  6115  17679M 17680M 17717M 20500M 20994  21135  21137  21145  21147
                                                 21201  21212  21214
 DSNXUL        1 00000004 FFFFFFEB A   U    6114  6115  17679  17680M 17717  20500  20994  21135  21137  21145  21147
                                                 21201  21212  21214
 DSSIZ         1 00000108 FFFFFFEB A   U    6357  6365   6374   6379  15932  16389
 DTRANS        2 00004BF0 00000001     H   24491 22296
 EBCDIC        2 00004C4C 00000001     H   24635 22326
 EBCTBL        1 00000000 00000000 A   T    2467  2467
 EBCTBL7       1 00000000 00000000 A   T    2470  2470
 ECBLIST       1 00000000 00000000 A   T    2330  2330
 EDITA         2 00004A5A 00000001     H   23887 22131
 ENDLNO        1 00000000 00000015     T   13606 13606
 ENDSNOP       2 000031E2 00000001     I   18822 18245B 18780B 18782B 18793B
 EPARTBL       1 00000000 00000000 A   T    2462  2462
 EXFRKWS       4 00002878 00000001     F   15821 16170
1OPT      (OPT2025) (12:50) (15MAR04) Ordinary Symbol and Literal Cross Reference                                           Page  100
 EXIT2         1 00000000 0000001B     T   19412 19412  25003
 EXKWS         4 00002800 00000001     F   15775 16168
 FINDDEV       1 00000000 0000001F     T   21254 21254
 FMT           2 00004B40 00000001     H   24216 22251
 FNAMOPTS      2 00000330 00000001     H    7112  7108
 FNAMPSH       1 00000000 00000005     T    7218  7218
 FOPTSKWS      4 000003B0 00000001     F    7206  7247
 FSR           0 00000000 00000001 A   #    1003  6607   6684M  6724   6801M  6856   6933M  6988   7065M  7121   7198M
                                                  7273   7305M  7320M  7342   7374M  7389M  7411   7443M  7458M  7480
                                                  7512M  7527M  7766   8170M  8193   8360M  8384   8535M  8562   8629M
                                                  8665M  8689   8784M  8810   8969M  8994   9383M  9406   9638M  9660
                                                  9892M  9959   9991M 10006M 10028  10060M 10075M 10097  10129M 10144M
                                                 10166  10198M 10213M 10235  10267M 10282M 10304  10336M 10351M 10373
                                                 10405M 10420M 10442  10474M 10489M 10893  10941M 10962  11009M 11030
                                                 11072M 11093  11143M 11164  11222M 11243  11302M 11323  11383M 11403
                                                 11482M 11503  11552M 11573  11624M 11645  11691M 11712  11753M 11774
                                                 11820M 11841  11888M 11913  11945M 11960M 12033  12096M 12147  12179M
                                                 12194M 12260  12449M 12515  12558M 12578  12628M 12653  12915M 13086
                                                 13199M 13220  13290M 13311  13381M 13402  13449M 13470  13518M 13539
                                                 13580M 13635  13667M 13682M 13704  13736M 13751M 13773  13805M 13820M
                                                 13926  13972M 13993  14039M 14064  14096M 14111M 14133  14165M 14180M
                                                 14202  14234M 14249M 14459  14506M 14527  14580M 14601  14654M 14675
                                                 14721M 14742  14789M 14906  15258M 15277M 15345  15398M 15418  15446M
                                                 15462M 15513  15629M 15650  15766M 15893  15960M 15980  16027M 16047
                                                 16094M 16115  16155M 16198  16246M 16292  19377M 19561  19602M 19623
                                                 19664M 19685  19726M 19746  19813M 19833  19924M 19964  20930M 20953
                                                 21021M 21048  21236M 21305  21496M 21556  21875M 21927  21959M 21974M
                                                 21995  22027M 22042M 22063  22095M 22110M 22833  22940M 22982  23269M
                                                 23290  23331M 23352  23393M 23413  23455M 23475  23516M 23537  23664M
                                                 23685  23726M 23747  23800M 23821  23875M 23896  23943M 23964  24006M
                                                 24027  24069M 24090  24136M 24157  24204M 24225  24275M 24296  24345M
                                                 24366  24412M 24433  24479M 24500  24549M 24570  24623M 24644  24697M
                                                 24717  24794M 24814  24890M 24910  24983M 25038  25291M 25311  25358M
                                                 25378  25448M 25468  25511M 25531  25573M 25593  25663M 25683  25730M
 GETACCT       1 00000000 0000000C     T    9920  9920
 GOTACT        2 00002972 00000001     H   15971 15802  15863
 GOTALINE      2 0000260A 00000001     H   15409 15315
 GOTEXEC       2 000029A2 00000001     H   16038 15787  15848
 GOTFROM       2 00002918 00000001     H   15884 15833
 HAVEMEM       4 0000328C 00000001     I   18914 18829B 18910B
 HAVGUEST      2 000048FA 00000001     H   23404 22600
 HAVOLM        2 000047B8 00000001     H   22972 22435  22450  22661  22676
 HAVONWA     512 00000000 FFFFFFE7     J   22963 22985  23014U 23269  23271  23272
 HAVPUB        2 0000492E 00000001     H   23466 22585
 HAVTEMP       2 00004768 00000001     H   22824 22540
 HIBAL         1 00000000 FFFFFFFF     J     691   707    720    733    746    759    772    785    798    811    824
                                                   837    850    863    876    889    902
 HOSTCHK       2 00003EB8 00000001     H   21547 21253
 HOSTEXIT      2 00003F70 00000001     H   21863 21853B
 HOSTNO        4 00003F66 00000001     I   21852 21614B 21832B
 HOSTYES       2 00003F6E 00000001     H   21857 21634B 21850B
 HVDSNSTR      2 000031C2 00000001     I   18792 18788B
 INSPFX        2 0000318A 00000001     I   18754 18733B
 INTKWS        4 00001F94 00000001     F   13848 14805
 INTPSH        2 00001F00 00000001     H   13695 13691
 INVALID       1 00000000 00000000 A   T    2457  2457
 INVDEV        2 00003820 00000001     H   19824 19545
 JCBAFL        1 00000062 FFFFFFEE     R    1270  1274   1279   1284   1289   1294   1299   1304   1309
 JCBBFL        1 00000063 FFFFFFEE     R    1315  1319   1324   1329   1334   1339   1344   1349
1OPT      (OPT2025) (12:50) (15MAR04) Ordinary Symbol and Literal Cross Reference                                           Page  101
 JCBBILLX      8 00000088 FFFFFFEE     D    1400  1408   1408
 JCBRSCF1      1 00000064 FFFFFFEE     R    1355  1359   1364   1369
 JCBSFLG1      1 00000065 FFFFFFEE     R    1375  1379   1384
 JCBWFL        1 00000060 FFFFFFEE     R    1199  1203   1208   1213   1218   1223   1228   1233   1238   1266
 JCBWWFL       1 00000061 FFFFFFEE     R    1244  1248   1253   1258   1263
 LABELLNO      1 00000000 00000017     T   15481 15481
 LENKWS        4 000012E4 00000001     F   10787 12117
 LENPSH        2 00000FA8 00000001     H   10364 10360
 LISTKWS       4 000010B4 00000001     F   10565 12112
 LISTPSH       2 00000E9A 00000001     H   10019 10015  10514
 LOWTBL        1 00000000 00000000 A   T    2465  2465
 LRECLA        2 000049CA 00000001     H   23676 22371
 LSR           8 00000008 00000001 A   #    1041  6607   6684M  6724   6801M  6856   6933M  6988   7065M  7121   7198M
                                                  7273   7320M  7342   7389M  7411   7458M  7480   7527M  7766   8170M
                                                  8193   8360M  8384   8535M  8562   8665M  8689   8784M  8810   8969M
                                                  8994   9383M  9406   9638M  9660   9892M  9959  10006M 10028  10075M
                                                 10097  10144M 10166  10213M 10235  10282M 10304  10351M 10373  10420M
                                                 10442  10489M 10893  10941M 10962  11009M 11030  11072M 11093  11143M
                                                 11164  11222M 11243  11302M 11323  11383M 11403  11482M 11503  11552M
                                                 11573  11624M 11645  11691M 11712  11753M 11774  11820M 11841  11888M
                                                 11913  11960M 12033  12096M 12147  12194M 12260  12449M 12515  12558M
                                                 12578  12628M 12653  12915M 13086  13199M 13220  13290M 13311  13381M
                                                 13402  13449M 13470  13518M 13539  13580M 13635  13682M 13704  13751M
                                                 13773  13820M 13926  13972M 13993  14039M 14064  14111M 14133  14180M
                                                 14202  14249M 14459  14506M 14527  14580M 14601  14654M 14675  14721M
                                                 14742  14789M 14906  15277M 15345  15398M 15418  15462M 15513  15629M
                                                 15650  15766M 15893  15960M 15980  16027M 16047  16094M 16115  16155M
                                                 16198  16246M 16292  19377M 19561  19602M 19623  19664M 19685  19726M
                                                 19746  19813M 19833  19924M 19964  20930M 20953  21021M 21048  21236M
                                                 21305  21496M 21556  21875M 21927  21974M 21995  22042M 22063  22110M
                                                 22833  22940M 22982  23269M 23290  23331M 23352  23393M 23413  23455M
                                                 23475  23516M 23537  23664M 23685  23726M 23747  23800M 23821  23875M
                                                 23896  23943M 23964  24006M 24027  24069M 24090  24136M 24157  24204M
                                                 24225  24275M 24296  24345M 24366  24412M 24433  24479M 24500  24549M
                                                 24570  24623M 24644  24697M 24717  24794M 24814  24890M 24910  24983M
                                                 25038  25291M 25311  25358M 25378  25448M 25468  25511M 25531  25573M
                                                 25593  25663M 25683  25730M
 LTNKWS        4 00001014 00000001     F   10502 12110
 LTNPSH        2 00000E64 00000001     H    9950  9946
 MACCT         2 00000852 00000001     H    8184  7578   7609
 MACCTPRJ      2 00000728 00000001     H    7757  7547
 MAINDSN       2 00003020 00000001     I   18242 17422B 17493B 17644B 17670B
 MALL          1 00000000 00000002     T    6703  6703   6835   6967   7099   7232  12499  13070  13843  15329  15816
                                                 15877  19544  22751  22797  22813
 MATUID        2 0000094C 00000001     H    8553  8549
 MBRSCN        4 0000320E 00000001     I   18843 18838B
 MCOLOPTS      2 00001A0A 00000001     H   12644 12229
 MEMSRCH       4 000031B2 00000001     I   18787 18790B
 MILERR        1 00000000 00000000 A   T    2456  2456
 MINT          1 00000000 00000023     T   22721 22721  22782
 MNULL         1 00000000 00000012     T   12469 12469  12935  15299  19529  22706  22767
 MPARM         1 00000000 00000009     T    7655  7655   7670   7685   7700   7715   7730   7745  22385  22415
 MPCOLS        1 00000000 00000011     T   11984 11984  11999
 MPINT         1 00000000 00000010     T   10813 10813  22340  22355  22370
 MPLNO         1 00000000 00000014     T   12950 12950
 MPRJDONE      2 00000844 00000001     H    8155  7892B  7946B  8001B
 MSYMLN        1 00000000 00000013     T   12484 12484  15314
 MTOKEN        1 00000000 0000000F     T   10576 10576  10591  10606  10639  10657  10672  10687  10702  10717  10750
                                                 10765  10798  10846  10861  12214  12965  12980  12995  13010  13025
1OPT      (OPT2025) (12:50) (15MAR04) Ordinary Symbol and Literal Cross Reference                                           Page  102
                                                 13040  13055  13859  13890  14272  14287  14335  14350  14365  14380
                                                 14395  14410  14425  15786  15801  15832  15847  15862  19469  19484
                                                 19499  19514  22130  22145  22160  22175  22190  22205  22220  22235
                                                 22250  22265  22280  22295  22310  22325  22434  22449  22464  22479
                                                 22494  22509  22524  22539  22554  22569  22584  22599  22614  22660
                                                 22675  22736
 NBLTBL        1 00000000 00000000 A   T    2469  2469
 NEWEDIT       2 000049F6 00000001     H   23738 22146
 NOACTION      1 00000000 00000000 A   T    2459  2459
 NOATTNLN      2 000025CC 00000001     H   15336 15300
 NOENQ         2 00004D00 00000001     H   24901 22615
 NOOPTKWS      4 00001F6C 00000001     F   13832 14803
 NOOPTPSH      2 00001ECA 00000001     H   13626 13622
 NOOPTS        2 00000016 00000001     H    6598  6594
 NOOPTSKW      4 00000098 00000001     F    6692  7241
 NOPFX         2 0000319E 00000001     I   18779 18248B 18748B
 NOTABS        2 00004B14 00000001     H   24148 22221
 NOTCOPT       2 00001E0A 00000001     H   13530 12936  13071
 NOTVALID      1 00000000 00000003     T    6704  6704  25009  25750
 NPARTBL       1 00000000 00000000 A   T    2463  2463
 NSCAN         1 00000000 00000006     T    7242  7242  13601  15479  16169  19406  25754
 NSCANSTR      1 00000000 00000024     T   25005 25005
 NSCNCB      176 00000000 FFFFFFEC     J    2728  2854   6643   6644   6645   6648M  6649M  6651M  6661M  6662M  6663M
                                                  6760   6761   6762   6765M  6766M  6768M  6778M  6779M  6780M  6892
                                                  6893   6894   6897M  6898M  6900M  6910M  6911M  6912M  7024   7025
                                                  7026   7029M  7030M  7032M  7042M  7043M  7044M  7157   7158   7159
                                                  7162M  7163M  7165M  7175M  7176M  7177M  7797   7798   7806   7902
                                                  7903   7911   8055   8224   8225   8233   8413   8593   8594   8622
                                                  8623   9258   9259   9302   9303   9346   9347   9435   9689  12367
                                                 12369  12380  12381  12382  12385M 12386M 12388M 12398M 12399M 12400M
                                                 12424  12698  12700  12705  12720  12735  12736  12737M 12737  12738
                                                 12739M 12752M 12768  12769  12770  12773M 12774M 12776M 12786M 12787M
                                                 12788M 12873  13262  13264  13274  13353  13355  13365  13609  15026
                                                 15027  15028  15031M 15032M 15034M 15044M 15045M 15046M 15089  15090
                                                 15222M 15223M 15570  15572  15583  15584  15585  15588M 15589M 15591M
                                                 15601M 15602M 15603M 15610  15707  15709  15720  15721  15722  15725M
                                                 15726M 15728M 15738M 15739M 15740M 15747  16173  16421  16422  16423
                                                 16431M 16452M 16477M 16492M 16493M 16494M 16964  16966  16993M 16994M
                                                 17018  17019  17020  17023M 17024M 17026M 17036M 17037M 17038M 17106
                                                 18844  18845  18862  18863  18864  18867M 18868M 18869M 18879M 18880M
                                                 18881M 19427  23030  23031  23032  23035M 23045M 23046M 23047M 25136
                                                 25138  25153M 25154M 25169  25170  25171  25174M 25175M 25177M 25187M
                                                 25188M 25189M 25206  25207  25208  25211M 25212M 25214M 25224M 25225M
                                                 25226M 25243  25244  25245  25248M 25249M 25251M 25261M 25262M 25263M
                                                 25275  25763
 NSCNFLGS      1 00000008 FFFFFFEC     R    2665  2669   2674
 NSCNKWS       4 00000028 FFFFFFEC     A    2714  6643   6651M  6661M  6760   6768M  6778M  6892   6900M  6910M  7024
                                                  7032M  7042M  7157   7165M  7175M 12380  12388M 12398M 12768  12776M
                                                 12786M 15026  15034M 15044M 15583  15591M 15601M 15720  15728M 15738M
                                                 16421  16477M 16492M 17018  17026M 17036M 18862  18869M 18879M 23030
                                                 23035M 23045M 25169  25177M 25187M 25206  25214M 25224M 25243  25251M
                                                 25261M
 NSCNLEN       4 00000004 FFFFFFEC     F    2662 12738  12739M 15090  15223M 16994M 18845  25154M
 NSCNLOC       4 00000000 FFFFFFEC     A    2661 12735  12737M 15089  15222M 16993M 18844  25153M
 NSCNSKIP      4 00000024 FFFFFFEC     A    2713  6644   6648M  6662M  6761   6765M  6779M  6893   6897M  6911M  7025
                                                  7029M  7043M  7158   7162M  7176M 12381  12385M 12399M 12769  12773M
                                                 12787M 15027  15031M 15045M 15584  15588M 15602M 15721  15725M 15739M
                                                 16422  16431M 16493M 17019  17023M 17037M 18863  18867M 18880M 23031
                                                 23046M 25170  25174M 25188M 25207  25211M 25225M 25244  25248M 25262M
1OPT      (OPT2025) (12:50) (15MAR04) Ordinary Symbol and Literal Cross Reference                                           Page  103
 NSCNSTOP      4 00000020 FFFFFFEC     A    2712  6645   6649M  6663M  6762   6766M  6780M  6894   6898M  6912M  7026
                                                  7030M  7044M  7159   7163M  7177M 12382  12386M 12400M 12770  12774M
                                                 12788M 15028  15032M 15046M 15585  15589M 15603M 15722  15726M 15740M
                                                 16423  16452M 16494M 17020  17024M 17038M 18864  18868M 18881M 23032
                                                 23047M 25171  25175M 25189M 25208  25212M 25226M 25245  25249M 25263M
 NSCNTLEN      4 00000014 FFFFFFEC     F    2680  7798   7903   8225   8594   8623   9259   9303   9347  12705  12752M
 NSCNTLOC      4 00000010 FFFFFFEC     A    2679  7797   7902   8224   8593   8622   9258   9302   9346  12720  12736
                                                 12737
 NSCNTOK      16 00000030 FFFFFFEC     C    2716  7806   7911   8055   8233   8413   9435   9689
 NSCNTYPE      1 00000018 FFFFFFEC     R    2683  2687   2692   2697   2702   2707
 NULDEV        2 000037E0 00000001     H   19737 19530
 NULLMBR       2 0000339A 00000001     H   19271 18917B
 NUMKWS        4 000011A4 00000001     F   10661 12115
 NUMPSH        2 00000F3C 00000001     H   10226 10222  10544  22401
 OLDEDIT       2 00004A28 00000001     H   23812 22161
 OPT2025       1 00000000 00000001     R    1139  1137
 PARENMEM      2 0000328A 00000001     I   18912 18831B
 PARENSCN      4 000031F8 00000001     I   18835 18827B
 PFXCOMA       2 00003170 00000001     I   18731 18719B 18727B
 PFXLIB        6 000033F6 00000001     I   19347 19339B
 PFXLOOP       4 0000317C 00000001     I   18735 18736B
 PRNTA         2 00004AB8 00000001     H   24018 22191
 QUIETKWS      4 00001FE4 00000001     F   13879 14806
 QUIETPSH      2 00001F36 00000001     H   13764 13760
 RAR          14 0000000E 00000001 A   #    1119  2394   2395M  2396B  2398M  2399B  2419M  2420B  2424M  2425B  2427M
                                                  2428B  2430M  2431B  2433M  2434B  2436M  2437M  2437B  2443   6604
                                                  6654M  6655M  6655B  6668M  6669M  6669B  6686M  6689B  6721   6771M
                                                  6772M  6772B  6785M  6786M  6786B  6803M  6806B  6853   6903M  6904M
                                                  6904B  6917M  6918M  6918B  6935M  6938B  6985   7035M  7036M  7036B
                                                  7049M  7050M  7050B  7067M  7070B  7118   7168M  7169M  7169B  7182M
                                                  7183M  7183B  7200M  7203B  7270   7302M  7303M  7303B  7322M  7325B
                                                  7339   7371M  7372M  7372B  7391M  7394B  7408   7440M  7441M  7441B
                                                  7460M  7463B  7477   7509M  7510M  7510B  7529M  7532B  7763   7879M
                                                  7880M  7880B  7986M  7987M  7987B  7998M  7999M  7999B  8172M  8175B
                                                  8190   8237M  8238M  8238B  8362M  8365B  8381   8416M  8417M  8417B
                                                  8537M  8540B  8559   8603M  8604M  8604B  8667M  8670B  8686   8718M
                                                  8719M  8719B  8753M  8754M  8754B  8786M  8789B  8807   8929M  8930M
                                                  8930B  8971M  8974B  8991   9095M  9096M  9096B  9116M  9117M  9117B
                                                  9169M  9170M  9170B  9190M  9191M  9191B  9280M  9281M  9281B  9292M
                                                  9293M  9293B  9324M  9325M  9325B  9336M  9337M  9337B  9362M  9363M
                                                  9363B  9385M  9388B  9403   9520M  9521M  9521B  9532M  9533M  9533B
                                                  9552M  9553M  9553B  9581M  9582M  9582B  9593M  9594M  9594B  9640M
                                                  9643B  9657   9774M  9775M  9775B  9786M  9787M  9787B  9806M  9807M
                                                  9807B  9835M  9836M  9836B  9847M  9848M  9848B  9894M  9897B  9956
                                                  9988M  9989M  9989B 10008M 10011B 10025  10057M 10058M 10058B 10077M
                                                 10080B 10094  10126M 10127M 10127B 10146M 10149B 10163  10195M 10196M
                                                 10196B 10215M 10218B 10232  10264M 10265M 10265B 10284M 10287B 10301
                                                 10333M 10334M 10334B 10353M 10356B 10370  10402M 10403M 10403B 10422M
                                                 10425B 10439  10471M 10472M 10472B 10491M 10494B 10890  10943M 10946B
                                                 10959  11011M 11014B 11027  11074M 11077B 11090  11145M 11148B 11161
                                                 11224M 11227B 11240  11304M 11307B 11320  11385M 11388B 11400  11484M
                                                 11487B 11500  11554M 11557B 11570  11626M 11629B 11642  11693M 11696B
                                                 11709  11755M 11758B 11771  11822M 11825B 11838  11890M 11893B 11910
                                                 11942M 11943M 11943B 11962M 11965B 12030  12098M 12101B 12144  12176M
                                                 12177M 12177B 12196M 12199B 12257  12314M 12315M 12315B 12347M 12348M
                                                 12348B 12391M 12392M 12392B 12451M 12454B 12512  12560M 12563B 12575
                                                 12630M 12633B 12650  12779M 12780M 12780B 12917M 12920B 13083  13136M
                                                 13137M 13137B 13173M 13174M 13174B 13201M 13204B 13217  13267M 13268M
                                                 13268B 13292M 13295B 13308  13358M 13359M 13359B 13383M 13386B 13399
1OPT      (OPT2025) (12:50) (15MAR04) Ordinary Symbol and Literal Cross Reference                                           Page  104
                                                 13451M 13454B 13467  13520M 13523B 13536  13582M 13585B 13632  13664M
                                                 13665M 13665B 13684M 13687B 13701  13733M 13734M 13734B 13753M 13756B
                                                 13770  13802M 13803M 13803B 13822M 13825B 13923  13974M 13977B 13990
                                                 14041M 14044B 14061  14093M 14094M 14094B 14113M 14116B 14130  14162M
                                                 14163M 14163B 14182M 14185B 14199  14231M 14232M 14232B 14251M 14254B
                                                 14456  14508M 14511B 14524  14582M 14585B 14598  14656M 14659B 14672
                                                 14723M 14726B 14739  14791M 14794B 14903  14964M 14965M 14965B 15037M
                                                 15038M 15038B 15051M 15052M 15052B 15231M 15232M 15232B 15279M 15282B
                                                 15342  15381M 15382M 15382B 15400M 15403B 15415  15464M 15467B 15510
                                                 15594M 15595M 15595B 15631M 15634B 15647  15731M 15732M 15732B 15768M
                                                 15771B 15890  15962M 15965B 15977  16029M 16032B 16044  16096M 16099B
                                                 16112  16157M 16160B 16195  16226M 16227M 16227B 16248M 16251B 16289
                                                 16442M 16443M 16443B 16463M 16464M 16464B 16480M 16481M 16481B 16485M
                                                 16486M 16486B 16638M 16639M 16639B 16939M 16940M 16940B 17029M 17030M
                                                 17030B 17043M 17044M 17044B 17244M 17245M 17245B 17566M 17567M 17567B
                                                 17980M 17981M 17981B 18211M 18212M 18212B 18349M 18350M 18350B 18538M
                                                 18539M 18539B 18614M 18615M 18615B 18872M 18873M 18873B 18886M 18887M
                                                 18887B 19045M 19046M 19046B 19099M 19100M 19100B 19166M 19167M 19167B
                                                 19317M 19318M 19318B 19379M 19382B 19558  19604M 19607B 19620  19666M
                                                 19669B 19682  19728M 19731B 19743  19815M 19818B 19830  19896M 19897M
                                                 19897B 19926M 19929B 19961  20045M 20046M 20046B 20222M 20223M 20223B
                                                 20264M 20265M 20265B 20427M 20428M 20428B 20512M 20513M 20513B 20604M
                                                 20605M 20605B 20676M 20677M 20677B 20932M 20935B 20950  21023M 21026B
                                                 21045  21101M 21102M 21102B 21238M 21241B 21302  21498M 21501B 21553
                                                 21598M 21599M 21599B 21848M 21849M 21849B 21877M 21880B 21924  21956M
                                                 21957M 21957B 21976M 21979B 21992  22024M 22025M 22025B 22044M 22047B
                                                 22060  22092M 22093M 22093B 22112M 22115B 22830  22861M 22862M 22862B
                                                 22942M 22945B 22979  23038M 23039M 23039B 23271M 23274B 23287  23333M
                                                 23336B 23349  23395M 23398B 23410  23457M 23460B 23472  23518M 23521B
                                                 23534  23666M 23669B 23682  23728M 23731B 23744  23802M 23805B 23818
                                                 23877M 23880B 23893  23945M 23948B 23961  24008M 24011B 24024  24071M
                                                 24074B 24087  24138M 24141B 24154  24206M 24209B 24222  24277M 24280B
                                                 24293  24347M 24350B 24363  24414M 24417B 24430  24481M 24484B 24497
                                                 24551M 24554B 24567  24625M 24628B 24641  24699M 24702B 24714  24762M
                                                 24763M 24763B 24796M 24799B 24811  24859M 24860M 24860B 24892M 24895B
                                                 24907  24953M 24954M 24954B 24985M 24988B 25035  25121M 25122M 25122B
                                                 25180M 25181M 25181B 25194M 25195M 25195B 25217M 25218M 25218B 25231M
                                                 25232M 25232B 25254M 25255M 25255B 25268M 25269M 25269B 25293M 25296B
                                                 25308  25360M 25363B 25375  25450M 25453B 25465  25513M 25516B 25528
                                                 25575M 25578B 25590  25665M 25668B 25680  25732M 25735B
 REPLMEM       6 0000331C 00000001     I   19110 19000B
 RETFMEM       1 00000000 0000001D     T   19419 19419
 RETFNAME      1 00000000 0000001E     T   19420 19420
 RLOOKUP       1 00000000 0000000A     T    9909  9909  12111  13597  14804  25000
 RNUMKWS       4 0000117C 00000001     F   10646 12114
 RNUMPSH       2 00000F06 00000001     H   10157 10153
 RTRIM         1 00000000 00000021     T   21890 21890
 R0            0 00000000 FFFFFFFF A   #     699  2379   2448M  6639M  6639   6648   6649   6756M  6756   6765   6766
                                                  6888M  6888   6897   6898   7020M  7020   7029   7030   7153M  7153
                                                  7162   7163   7305   7305M  7374   7374M  7443   7443M  7512   7512M
                                                  7798M  7820   7854   7866M  7903M  7923   7952M  7964   7993M  8007
                                                  8225M  8594M  8623M  8629   8629M  8760M  8847   9031   9092M  9113M
                                                  9166M  9187M  9259M  9287M  9303M  9331M  9347M  9357M  9449   9482M
                                                  9498   9527M  9588M  9703   9736M  9752   9781M  9842M  9991   9991M
                                                 10060  10060M 10129  10129M 10198  10198M 10267  10267M 10336  10336M
                                                 10405  10405M 10474  10474M 11738  11945  11945M 12060M 12061  12179
                                                 12179M 12309M 12342M 12376M 12376  12385  12386  12610  12764M 12764
                                                 12773  12774  13120M 13120  13131M 13154  13175  13667  13667M 13736
                                                 13736M 13805  13805M 14096  14096M 14165  14165M 14234  14234M 14953M
1OPT      (OPT2025) (12:50) (15MAR04) Ordinary Symbol and Literal Cross Reference                                           Page  105
                                                 14971M 15022M 15022  15031  15032  15053M 15090M 15095M 15122  15158
                                                 15195  15207M 15223  15258  15258M 15376M 15444  15579M 15579  15588
                                                 15589  15716M 15716  15725  15726  16435M 16456M 16476M 16476  16477
                                                 16503M 16503  16536M 16584M 16592  16633  16668  16745  16791  16845M
                                                 16857M 16857  16884M 16899M 16899  16928M 16954M 16969  16970  16970
                                                 16970  16972M 16973M 16975M 16994  17002M 17004  17014M 17014  17023
                                                 17024  17116M 17128M 17128  17240  17241  17241  17241  17247  17250M
                                                 17350  17405M 17555M 17574M 17850M 17851M 17884M 17884  17915  17988M
                                                 18081M 18082M 18115M 18115  18146  18219M 18338M 18357M 18416M 18535M
                                                 18548M 18548  18555  18611M 18616  18734M 18735  18784M 18785M 18790M
                                                 18835M 18836  18845M 18850M 18850  18858M 18858  18867  18868  18869
                                                 18896M 18896  18908  19034M 19052M 19055M 19106M 19163M 19168  19258M
                                                 19304M 19355M 19356  19426  19426  19426  19792M 19903M 20034M 20052M
                                                 20257M 20416M 20434M 20665M 20681M 20703M 20781M 20818M 20830  20842M
                                                 20865M 20865  20870  20871  20996M 20997  21001  21372M 21381M 21381
                                                 21433  21595M 21611  21631  21656  21959  21959M 22027  22027M 22095
                                                 22095M 22865  22877M 22883  23026M 23026  23035  23079M 23079  23118M
                                                 23127  23139M 23145  23563  23602M 23711  23990M 23991  24053M 24054
                                                 24775  24871  25071  25087  25130M 25154  25165M 25165  25174  25175
                                                 25202M 25202  25211  25212  25239M 25239  25248  25249  25342M 25415
                                                 25426M 25432  25494M 25495  25557M 25558  25630  25641M 25647  25714M
 R1            1 00000001 FFFFFFFF A   #     712  2442M  2443M  2449M  6635M  6648   6649   6651   6752M  6765   6766
                                                  6768   6884M  6897   6898   6900   7016M  7029   7030   7032   7149M
                                                  7162   7163   7165   7299M  7368M  7437M  7506M  7797M  7805M  7806M
                                                  7806   7902M  7910M  7911M  7911   7951M  7992M  8054M  8055M  8055
                                                  8224M  8232M  8233M  8233   8412M  8413M  8413   8593M  8622M  8629
                                                  8759M  9042   9085M  9106M  9159M  9180M  9258M  9286M  9302M  9330M
                                                  9346M  9356M  9434M  9435M  9435   9477M  9526M  9587M  9688M  9689M
                                                  9689   9731M  9780M  9841M  9985M 10054M 10123M 10192M 10261M 10330M
                                                 10399M 10468M 11939M 12070M 12070  12076M 12081  12173M 12308M 12341M
                                                 12372M 12385  12386  12388  12611  12760M 12773  12774  12776  13130M
                                                 13661M 13730M 13799M 14090M 14159M 14228M 14952M 14970M 15018M 15031
                                                 15032  15034  15089M 15095  15122  15128M 15128  15158  15164M 15164
                                                 15195  15201M 15201  15207  15222  15375M 15575M 15588  15589  15591
                                                 15712M 15725  15726  15728  16434M 16455M 16472M 16477  16535M 16583M
                                                 16631M 16633  16790  16843M 16882M 16927M 16949M 16969  16970  16970
                                                 16970  16972  16986M 16993  17002M 17010M 17023  17024  17026  17115M
                                                 17185  17240  17241  17241  17241  17246  17250M 17403M 17554M 17573M
                                                 17796M 17851  17987M 18027M 18082  18218M 18333M 18356M 18415M 18520
                                                 18521  18521  18521  18530M 18606M 18619M 18835M 18836M 18844M 18854M
                                                 18867  18868  18869  18906  18907  19029M 19051M 19084M 19105M 19158M
                                                 19257M 19303M 19426  19426  19426  19430  19430  19430  19791M 19902M
                                                 20033M 20051M 20252M 20286U 20411M 20433M 20661M 20680M 20702M 20777M
                                                 20817M 21590M 21845M 21953M 22021M 22089M 23022M 23035  23117M 23601M
                                                 25070  25129M 25153  25161M 25174  25175  25177  25198M 25211  25212
                                                 25214  25235M 25248  25249  25251  25341M 25425M 25640M 25713M
 R12          12 0000000C FFFFFFFF A   #     855  2405
 R13          13 0000000D FFFFFFFF A   #     868  6643   6644   6645   6661   6662   6663   6760   6761   6762   6778
                                                  6779   6780   6892   6893   6894   6910   6911   6912   7024   7025
                                                  7026   7042   7043   7044   7157   7158   7159   7175   7176   7177
                                                 12367  12380  12381  12382  12398  12399  12400  12698  12768  12769
                                                 12770  12786  12787  12788  13262  13353  15026  15027  15028  15044
                                                 15045  15046  15570  15583  15584  15585  15601  15602  15603  15707
                                                 15720  15721  15722  15738  15739  15740  16421  16422  16423  16492
                                                 16493  16494  16964  17018  17019  17020  17036  17037  17038  18862
                                                 18863  18864  18879  18880  18881  23030  23031  23032  23045  23046
                                                 23047  25136  25169  25170  25171  25187  25188  25189  25206  25207
                                                 25208  25224  25225  25226  25243  25244  25245  25261  25262  25263
 R14          14 0000000E FFFFFFFF A   #     881  2380M  6642M  6643   6644   6645   6650M  6651   6658M  6661   6662
1OPT      (OPT2025) (12:50) (15MAR04) Ordinary Symbol and Literal Cross Reference                                           Page  106
                                                  6663   6759M  6760   6761   6762   6767M  6768   6775M  6778   6779
                                                  6780   6891M  6892   6893   6894   6899M  6900   6907M  6910   6911
                                                  6912   7023M  7024   7025   7026   7031M  7032   7039M  7042   7043
                                                  7044   7156M  7157   7158   7159   7164M  7165   7172M  7175   7176
                                                  7177   7796M  7797   7798   7802M  7802   7901M  7902   7903   7907M
                                                  7907   8223M  8224   8225   8229M  8229   8592M  8593   8594   8598M
                                                  8598   8621M  8622   8623   8627M  8627   9257M  9258   9259   9263M
                                                  9263   9301M  9302   9303   9307M  9307   9345M  9346   9347   9351M
                                                  9351  12366M 12367  12379M 12380  12381  12382  12387M 12388  12395M
                                                 12398  12399  12400  12421M 12424  12697M 12698  12704M 12705  12720
                                                 12735  12736  12737  12737  12738  12739  12752  12756M 12756  12767M
                                                 12768  12769  12770  12775M 12776  12783M 12786  12787  12788  12870M
                                                 12873  13261M 13262  13271M 13274  13352M 13353  13362M 13365  15025M
                                                 15026  15027  15028  15033M 15034  15041M 15044  15045  15046  15088M
                                                 15089  15090  15094M 15094  15221M 15222  15223  15227M 15227  15569M
                                                 15570  15582M 15583  15584  15585  15590M 15591  15598M 15601  15602
                                                 15603  15607M 15610  15706M 15707  15719M 15720  15721  15722  15727M
                                                 15728  15735M 15738  15739  15740  15744M 15747  16420M 16421  16422
                                                 16423  16429M 16431  16450M 16452  16489M 16492  16493  16494  16592M
                                                 16596M 16605M 16605  16612  16746M 16963M 16964  16992M 16993  16994
                                                 16998M 16998  17017M 17018  17019  17020  17025M 17026  17033M 17036
                                                 17037  17038  17103M 17106  18520  18521  18521  18521  18619M 18843M
                                                 18844  18845  18849M 18849  18861M 18862  18863  18864  18876M 18879
                                                 18880  18881  19148  19149  19149  19149  19210M 19430  19430  19430
                                                 19435  19435  19435  23029M 23030  23031  23032  23042M 23045  23046
                                                 23047  25135M 25136  25152M 25153  25154  25158M 25158  25168M 25169
                                                 25170  25171  25176M 25177  25184M 25187  25188  25189  25205M 25206
                                                 25207  25208  25213M 25214  25221M 25224  25225  25226  25242M 25243
                                                 25244  25245  25250M 25251  25258M 25261  25262  25263  25272M 25275
 R15          15 0000000F FFFFFFFF A   #     894  2379   6664M  6664   6688M  6688   6781M  6781   6805M  6805   6913M
                                                  6913   6937M  6937   7045M  7045   7069M  7069   7178M  7178   7202M
                                                  7202   7324M  7324   7393M  7393   7462M  7462   7531M  7531   7945M
                                                  8000M  8152M  8152   8174M  8174   8247M  8247   8364M  8364   8479M
                                                  8479   8515M  8515   8539M  8539   8599M  8613M  8613   8645M  8669M
                                                  8669   8715M  8750M  8769M  8769   8788M  8788   8935M  8935   8946M
                                                  8951M  8973M  8973   9250M  9250   9294M  9338M  9364M  9387M  9387
                                                  9534M  9595M  9615M  9615   9642M  9642   9788M  9849M  9869M  9869
                                                  9896M  9896  10010M 10010  10079M 10079  10148M 10148  10217M 10217
                                                 10286M 10286  10355M 10355  10424M 10424  10493M 10493  10945M 10945
                                                 11013M 11013  11076M 11076  11147M 11147  11226M 11226  11306M 11306
                                                 11387M 11387  11467M 11467  11486M 11486  11556M 11556  11628M 11628
                                                 11671M 11672  11676M 11676  11695M 11695  11757M 11757  11824M 11824
                                                 11892M 11892  11964M 11964  12100M 12100  12198M 12198  12316M 12349M
                                                 12401M 12401  12413  12432M 12432  12453M 12453  12543M 12562M 12562
                                                 12613M 12632M 12632  12705M 12714M 12714  12720M 12729M 12729  12735M
                                                 12736M 12738M 12739  12751M 12751  12752  12789M 12789  12798M 12798
                                                 12828  12837M 12837  12862  12874M 12895M 12919M 12919  13138M 13180M
                                                 13203M 13203  13275M 13294M 13294  13366M 13385M 13385  13434M 13453M
                                                 13453  13503M 13522M 13522  13565M 13584M 13584  13686M 13686  13755M
                                                 13755  13824M 13824  13976M 13976  14043M 14043  14115M 14115  14184M
                                                 14184  14253M 14253  14510M 14510  14584M 14584  14658M 14658  14725M
                                                 14725  14793M 14793  14961M 15047M 15047  15262M 15262  15281M 15281
                                                 15383M 15402M 15402  15447M 15466M 15466  15604M 15604  15614M 15614
                                                 15633M 15633  15741M 15741  15751M 15751  15770M 15770  15945M 15964M
                                                 15964  16012M 16031M 16031  16079M 16098M 16098  16159M 16159  16231M
                                                 16231  16250M 16250  16430M 16431  16451M 16452  16745M 16749M 16758M
                                                 16758  16765  16936M 17039M 17039  17053M 17053  17185M 17186M 17218M
                                                 17218  17247M 17257  17269M 17279M 17288M 17288  17295  17563M 17605M
                                                 17606M 17607  17616M 17616  17977M 18208M 18346M 18622M 18728M 18797M
1OPT      (OPT2025) (12:50) (15MAR04) Ordinary Symbol and Literal Cross Reference                                           Page  107
                                                 18822M 18882M 18882  18963M 18964M 19042M 19096M 19349M 19353M 19381M
                                                 19381  19606M 19606  19668M 19668  19730M 19730  19798M 19817M 19817
                                                 19893M 19909M 19928M 19928  20042M 20424M 20620  20673M 20855M 20855
                                                 20871M 20876M 20885M 20885  20892  20934M 20934  21025M 21025  21075
                                                 21221M 21240M 21240  21334M 21334  21440M 21480M 21500M 21500  21852M
                                                 21859M 21859  21879M 21879  21978M 21978  22046M 22046  22114M 22114
                                                 22883M 22887M 22896M 22896  22903  22925M 22925  22944M 22944  23048M
                                                 23048  23057M 23057  23145M 23149M 23158M 23158  23165  23184M 23249M
                                                 23249  23273M 23273  23335M 23335  23397M 23397  23459M 23459  23520M
                                                 23520  23563M 23577  23591  23623M 23625  23640M 23641M 23642M 23643M
                                                 23644M 23644  23645  23649M 23649  23668M 23668  23730M 23730  23804M
                                                 23804  23879M 23879  23947M 23947  24010M 24010  24073M 24073  24140M
                                                 24140  24208M 24208  24279M 24279  24349M 24349  24416M 24416  24483M
                                                 24483  24553M 24553  24627M 24627  24701M 24701  24779M 24779  24798M
                                                 24798  24875M 24875  24894M 24894  24968M 24968  24987M 24987  25190M
                                                 25190  25227M 25227  25264M 25264  25295M 25295  25362M 25362  25433M
                                                 25452M 25452  25496M 25515M 25515  25577M 25577  25648M 25667M 25667
                                                 25734M 25734
 R2            2 00000002 FFFFFFFF A   #     725  7983M  7995M  9277M  9289M  9321M  9333M  9359M  9517M  9529M  9578M
                                                  9590M  9771M  9783M  9832M  9844M 12311M 12344M 13133M 15002M 15054
                                                 15378M 16437  16439M 16446M 16458  16460M 16467M 18243M 18244M 18264
                                                 18338  18438M 18447M 18447  18455  18467M 18476M 18485M 18485  18492
                                                 18555M 18559M 18568M 18568  18575  18616M 18650  18730M 18745M 18745
                                                 18754  18759M 18761  18776  18786M 18789M 18792M 18794  18800M 18802
                                                 18817M 18818  18819  18915M 18916M 18966M 18966  18967  18970M 18972
                                                 18999  19034  19056  19113M 19115  19148  19149  19149  19149  19168M
                                                 19173M 19182M 19182  19189  19210M 19435  19435  19435  20620M 20693
                                                 21000M 21001  21366M 21372
 R3            3 00000003 FFFFFFFF A   #     738 15053  15444M 15446  15446M 16668M 16671  16683M 16688  16693M 16702M
                                                 16702  16709  16791M 16824M 16824  16954  17004M 17006M 17116  17350M
                                                 17352M 17362M 17362  17419M 17737  17810  18041  18243  18779  18784
                                                 18826  18907M 18908M 18912M 18915  21344M 21408M 21433  21465M 25070M
                                                 25071M 25073M
 R4            4 00000004 FFFFFFFF A   #     751  8007M  8011M  8020M  8020   8027  16790M 16949  16973  17003M 17115
                                                 17186  17246M 17349M 17419  17421  17643M 17668M 17668  17737  17795M
                                                 17796  17810  17844M 17850  17870M 18026M 18027  18041  18075M 18081
                                                 18101M 18244  18247  18333  18620M 18620  18779  18781  18785  18786
                                                 18792  18797  18818M 18826  18828  18906M 18909  18914M 18914  18916
                                                 18965M 19029  21343M 21398  21407M 21447M 21456M 21456
 R5            5 00000005 FFFFFFFF A   #     764 16407M 17676  17677  17678  17679  17680  17716  17717  18242M 18731M
                                                 18735  18768  18776M 18776  18809  18819M 18822  18823M 18963  19057M
                                                 19084  21339M 21340M 21340  21355M 21355  21472M
 R6            6 00000006 FFFFFFFF A   #     777  9042M 16406M 16406  17722M 18242  18731  18732M 18732  18735  18736M
                                                 18754M 18755  18794M 18795  18823  18964  18967M 19055  19056M 19057
                                                 19279M 19279  19314  19322  19352M 19352  19355  21336M 21470M
 R7            7 00000007 FFFFFFFF A   #     790  2372M  2372   2373B  2385B
 R8            8 00000008 FFFFFFFF A   #     803 16324U 23014U
 SCANCHK       1 00000000 00000007     T    7243  7243  15480  19407  25755
 SCNACCT       2 000008D6 00000001     H    8375  7656   7671
 SCNCLR        2 0000233C 00000001     H   14518 14336  14351
 SCNCOL        2 00001838 00000001     H   12251 12215
 SCNCOLS       2 00001720 00000001     H   12024 11985  12000
 SCNEX         2 000026B8 00000001     H   15504 15500
 SCNEXFR       2 0000275C 00000001     H   15641 15637
 SCNGRP        2 00000C5E 00000001     H    9651  7716   7731
 SCNINT        2 00001520 00000001     H   11394 10718
 SCNINTRL      2 00002034 00000001     H   13917 13860
 SCNINVAL      1 00000000 00000004     T    6836  6836   6968   7100   7233  13844  15330
 SCNKEEP       2 0000236C 00000001     H   14592 14366  14381  14396
1OPT      (OPT2025) (12:50) (15MAR04) Ordinary Symbol and Literal Cross Reference                                           Page  108
 SCNLEN        2 000015EC 00000001     H   11703 10814
 SCNLIST       2 000013D4 00000001     H   10884 10577
 SCNNLST       2 00001400 00000001     H   10953 10592  10607
 SCNNOLEN      2 000015BA 00000001     H   11636 10799
 SCNNOOP       1 00000000 00000008     T    7548  7548   7579   7610  12230  22465  22480  22495  22510  22525
 SCNNTEX       2 0000142C 00000001     H   11021 10640
 SCNNUM        2 000014EC 00000001     H   11314 10673
 SCNNVER       2 00001644 00000001     H   11832 10862
 SCNONUM       2 0000145C 00000001     H   11084 10703
 SCNOWRN       2 0000239C 00000001     H   14666 14426
 SCNQUIET      2 00002060 00000001     H   13984 13891
 SCNRNUM       2 000014B8 00000001     H   11234 10658
 SCNSCR        2 00002310 00000001     H   14450 14273  14288
 SCNUID        2 000009AC 00000001     H    8680  7746
 SCNUNUM       2 00001488 00000001     H   11155 10688
 SCNUPL        2 0000158A 00000001     H   11564 10766
 SCNUPP        2 0000155E 00000001     H   11494 10751
 SCNUSER       2 00000BB2 00000001     H    9397  7686   7701
 SCNVER        2 00001618 00000001     H   11765 10847
 SCNWARN       2 000023C8 00000001     H   14733 14411
 SCOLDONE      2 00001914 00000001     H   12434 12317B 12350B
 SCRKWS        4 00002130 00000001     F   14261 14807
 SCRPSH        2 0000208C 00000001     H   14055 14051  14321
 SCSEG         1 00000000 0000000B     T    9917  9917  13598  15482
 SDSNQSZ       1 0000002C FFFFFFEB A   U    6360  6361   6362
 SEG           1 00000000 0000000D     T    9921  9921  15476  19410  19938  21252
 SEGCR         1 00000000 0000001C     T   19415 19415
 SEGT          1 00000000 00000020     T   21255 21255
 SEQFBAD       2 000050AE 00000001     H   25674 22752  22798  22814
 SEQF1END      2 00005006 00000001     H   25459 22737
 SEQF1NUL      2 00004F8E 00000001     H   25302 22707
 SEQF1NUM      2 00004FC2 00000001     H   25369 22722
 SEQF2NUL      2 0000503A 00000001     H   25522 22768
 SEQF2NUM      2 0000506A 00000001     H   25584 22783
 SEQPRT1       4 00004628 00000001     F   22695 25753
 SEQPRT2       4 000046C8 00000001     F   22756 25756
 SEQPRT3       4 00004740 00000001     F   22802 25757
 SETNOSET      2 000048CE 00000001     H   23343 22570
 SETSEQ        2 00004E00 00000001     H   25029 22416
 SETSET        2 000048A2 00000001     H   23281 22555
 SETSKIP       1 00000000 00000018     T   19403 19403
 SETSTOP       1 00000000 00000019     T   19405 19405
 SKIPIT        2 000029D2 00000001     H   16106 15817  15878
 SPLIT         2 00004CBE 00000001     H   24805 22356
 SPR          13 0000000D 00000001 A   #    1106  6604   6607   6608   6609M  6609   6680M  6684   6686   6721   6724
                                                  6725   6726M  6726   6797M  6801   6803   6853   6856   6857   6858M
                                                  6858   6929M  6933   6935   6985   6988   6989   6990M  6990   7061M
                                                  7065   7067   7118   7121   7122   7123M  7123   7194M  7198   7200
                                                  7270   7273   7274   7275M  7275   7316M  7320   7322   7339   7342
                                                  7343   7344M  7344   7385M  7389   7391   7408   7411   7412   7413M
                                                  7413   7454M  7458   7460   7477   7480   7481   7482M  7482   7523M
                                                  7527   7529   7763   7766   7767   7768M  7768   8166M  8170   8172
                                                  8190   8193   8194   8195M  8195   8356M  8360   8362   8381   8384
                                                  8385   8386M  8386   8531M  8535   8537   8559   8562   8563   8564M
                                                  8564   8661M  8665   8667   8686   8689   8690   8691M  8691   8780M
                                                  8784   8786   8807   8810   8811   8812M  8812   8965M  8969   8971
                                                  8991   8994   8995   8996M  8996   9379M  9383   9385   9403   9406
                                                  9407   9408M  9408   9634M  9638   9640   9657   9660   9661   9662M
                                                  9662   9888M  9892   9894   9956   9959   9960   9961M  9961  10002M
1OPT      (OPT2025) (12:50) (15MAR04) Ordinary Symbol and Literal Cross Reference                                           Page  109
                                                 10006  10008  10025  10028  10029  10030M 10030  10071M 10075  10077
                                                 10094  10097  10098  10099M 10099  10140M 10144  10146  10163  10166
                                                 10167  10168M 10168  10209M 10213  10215  10232  10235  10236  10237M
                                                 10237  10278M 10282  10284  10301  10304  10305  10306M 10306  10347M
                                                 10351  10353  10370  10373  10374  10375M 10375  10416M 10420  10422
                                                 10439  10442  10443  10444M 10444  10485M 10489  10491  10890  10893
                                                 10894  10895M 10895  10937M 10941  10943  10959  10962  10963  10964M
                                                 10964  11005M 11009  11011  11027  11030  11031  11032M 11032  11068M
                                                 11072  11074  11090  11093  11094  11095M 11095  11139M 11143  11145
                                                 11161  11164  11165  11166M 11166  11218M 11222  11224  11240  11243
                                                 11244  11245M 11245  11298M 11302  11304  11320  11323  11324  11325M
                                                 11325  11379M 11383  11385  11400  11403  11404  11405M 11405  11478M
                                                 11482  11484  11500  11503  11504  11505M 11505  11548M 11552  11554
                                                 11570  11573  11574  11575M 11575  11620M 11624  11626  11642  11645
                                                 11646  11647M 11647  11687M 11691  11693  11709  11712  11713  11714M
                                                 11714  11749M 11753  11755  11771  11774  11775  11776M 11776  11816M
                                                 11820  11822  11838  11841  11842  11843M 11843  11884M 11888  11890
                                                 11910  11913  11914  11915M 11915  11956M 11960  11962  12030  12033
                                                 12034  12035M 12035  12092M 12096  12098  12144  12147  12148  12149M
                                                 12149  12190M 12194  12196  12257  12260  12261  12262M 12262  12445M
                                                 12449  12451  12512  12515  12516  12517M 12517  12554M 12558  12560
                                                 12575  12578  12579  12580M 12580  12624M 12628  12630  12650  12653
                                                 12654  12655M 12655  12911M 12915  12917  13083  13086  13087  13088M
                                                 13088  13195M 13199  13201  13217  13220  13221  13222M 13222  13286M
                                                 13290  13292  13308  13311  13312  13313M 13313  13377M 13381  13383
                                                 13399  13402  13403  13404M 13404  13445M 13449  13451  13467  13470
                                                 13471  13472M 13472  13514M 13518  13520  13536  13539  13540  13541M
                                                 13541  13576M 13580  13582  13632  13635  13636  13637M 13637  13678M
                                                 13682  13684  13701  13704  13705  13706M 13706  13747M 13751  13753
                                                 13770  13773  13774  13775M 13775  13816M 13820  13822  13923  13926
                                                 13927  13928M 13928  13968M 13972  13974  13990  13993  13994  13995M
                                                 13995  14035M 14039  14041  14061  14064  14065  14066M 14066  14107M
                                                 14111  14113  14130  14133  14134  14135M 14135  14176M 14180  14182
                                                 14199  14202  14203  14204M 14204  14245M 14249  14251  14456  14459
                                                 14460  14461M 14461  14502M 14506  14508  14524  14527  14528  14529M
                                                 14529  14576M 14580  14582  14598  14601  14602  14603M 14603  14650M
                                                 14654  14656  14672  14675  14676  14677M 14677  14717M 14721  14723
                                                 14739  14742  14743  14744M 14744  14785M 14789  14791  14903  14906
                                                 14907  14908M 14908  15273M 15277  15279  15342  15345  15346  15347M
                                                 15347  15394M 15398  15400  15415  15418  15419  15420M 15420  15458M
                                                 15462  15464  15510  15513  15514  15515M 15515  15625M 15629  15631
                                                 15647  15650  15651  15652M 15652  15762M 15766  15768  15890  15893
                                                 15894  15895M 15895  15956M 15960  15962  15977  15980  15981  15982M
                                                 15982  16023M 16027  16029  16044  16047  16048  16049M 16049  16090M
                                                 16094  16096  16112  16115  16116  16117M 16117  16151M 16155  16157
                                                 16195  16198  16199  16200M 16200  16242M 16246  16248  16289  16292
                                                 16294  16295M 16295  19373M 19377  19379  19558  19561  19562  19563M
                                                 19563  19598M 19602  19604  19620  19623  19624  19625M 19625  19660M
                                                 19664  19666  19682  19685  19686  19687M 19687  19722M 19726  19728
                                                 19743  19746  19747  19748M 19748  19809M 19813  19815  19830  19833
                                                 19834  19835M 19835  19920M 19924  19926  19961  19964  19965  19966M
                                                 19966  20926M 20930  20932  20950  20953  20954  20955M 20955  21017M
                                                 21021  21023  21045  21048  21049  21050M 21050  21232M 21236  21238
                                                 21302  21305  21306  21307M 21307  21492M 21496  21498  21553  21556
                                                 21557  21558M 21558  21871M 21875  21877  21924  21927  21928  21929M
                                                 21929  21970M 21974  21976  21992  21995  21996  21997M 21997  22038M
                                                 22042  22044  22060  22063  22064  22065M 22065  22106M 22110  22112
                                                 22830  22833  22834  22835M 22835  22936M 22940  22942  22979  22982
                                                 22984  22985M 22985  23265M 23269  23271  23287  23290  23291  23292M
1OPT      (OPT2025) (12:50) (15MAR04) Ordinary Symbol and Literal Cross Reference                                           Page  110
                                                 23292  23327M 23331  23333  23349  23352  23353  23354M 23354  23389M
                                                 23393  23395  23410  23413  23414  23415M 23415  23451M 23455  23457
                                                 23472  23475  23476  23477M 23477  23512M 23516  23518  23534  23537
                                                 23538  23539M 23539  23660M 23664  23666  23682  23685  23686  23687M
                                                 23687  23722M 23726  23728  23744  23747  23748  23749M 23749  23796M
                                                 23800  23802  23818  23821  23822  23823M 23823  23871M 23875  23877
                                                 23893  23896  23897  23898M 23898  23939M 23943  23945  23961  23964
                                                 23965  23966M 23966  24002M 24006  24008  24024  24027  24028  24029M
                                                 24029  24065M 24069  24071  24087  24090  24091  24092M 24092  24132M
                                                 24136  24138  24154  24157  24158  24159M 24159  24200M 24204  24206
                                                 24222  24225  24226  24227M 24227  24271M 24275  24277  24293  24296
                                                 24297  24298M 24298  24341M 24345  24347  24363  24366  24367  24368M
                                                 24368  24408M 24412  24414  24430  24433  24434  24435M 24435  24475M
                                                 24479  24481  24497  24500  24501  24502M 24502  24545M 24549  24551
                                                 24567  24570  24571  24572M 24572  24619M 24623  24625  24641  24644
                                                 24645  24646M 24646  24693M 24697  24699  24714  24717  24718  24719M
                                                 24719  24790M 24794  24796  24811  24814  24815  24816M 24816  24886M
                                                 24890  24892  24907  24910  24911  24912M 24912  24979M 24983  24985
                                                 25035  25038  25039  25040M 25040  25287M 25291  25293  25308  25311
                                                 25312  25313M 25313  25354M 25358  25360  25375  25378  25379  25380M
                                                 25380  25444M 25448  25450  25465  25468  25469  25470M 25470  25507M
                                                 25511  25513  25528  25531  25532  25533M 25533  25569M 25573  25575
                                                 25590  25593  25594  25595M 25595  25659M 25663  25665  25680  25683
                                                 25684  25685M 25685  25726M 25730  25732
 TABS          2 00004AE8 00000001     H   24081 22206
 TACCDONE      2 00000A64 00000001     H    8957  8936B  8947B  8952B
 TBADACCT      2 00000A5C 00000001     H    8950  8931B
 TEXTKWS       4 00001154 00000001     F   10628 12113
 TEXTONLY      2 00004B98 00000001     H   24357 22266
 TEXTPSH       2 00000ED0 00000001     H   10088 10084  10529
 TNOTACCT      2 00000A54 00000001     H    8945  8850B  8877B  8942B
 TRANS         2 00004BC4 00000001     H   24424 22281
 TRC           1 00000000 00000000 A   T    2401  2401
 TRYACCT       2 000009FA 00000001     H    8801  9915
 TTYFLAG       1 00000004 FFFFFFE9     R    6489  6493
 TTYMAX#       1 00000006 FFFFFFE9 A   U    6545  6546
 TTYTFLAG      1 00000005 FFFFFFE9     R    6499  6503   6508   6513   6518   6523   6528   6533
 UNFMT         2 00004B6C 00000001     H   24287 22236
 UPPTBL        1 00000000 00000000 A   T    2464  2464
 VERKWS        4 0000135C 00000001     F   10835 12118
 VERPSH        2 00000FDE 00000001     H   10433 10429
 VOLCHK        1 00000000 00000022     T   21893 21893
 WAR           8 00000008 00000001 A   #    1029  6608M  6680   6725M  6797   6857M  6929   6989M  7061   7122M  7194
                                                  7274M  7305   7316   7343M  7374   7385   7412M  7443   7454   7481M
                                                  7512   7523   7767M  8166   8194M  8356   8385M  8531   8563M  8629
                                                  8661   8690M  8780   8811M  8965   8995M  9379   9407M  9634   9661M
                                                  9888   9960M  9991  10002  10029M 10060  10071  10098M 10129  10140
                                                 10167M 10198  10209  10236M 10267  10278  10305M 10336  10347  10374M
                                                 10405  10416  10443M 10474  10485  10894M 10937  10963M 11005  11031M
                                                 11068  11094M 11139  11165M 11218  11244M 11298  11324M 11379  11404M
                                                 11478  11504M 11548  11574M 11620  11646M 11687  11713M 11749  11775M
                                                 11816  11842M 11884  11914M 11945  11956  12034M 12092  12148M 12179
                                                 12190  12261M 12445  12516M 12554  12579M 12624  12654M 12911  13087M
                                                 13195  13221M 13286  13312M 13377  13403M 13445  13471M 13514  13540M
                                                 13576  13636M 13667  13678  13705M 13736  13747  13774M 13805  13816
                                                 13927M 13968  13994M 14035  14065M 14096  14107  14134M 14165  14176
                                                 14203M 14234  14245  14460M 14502  14528M 14576  14602M 14650  14676M
                                                 14717  14743M 14785  14907M 15258  15273  15346M 15394  15419M 15446
                                                 15458  15514M 15625  15651M 15762  15894M 15956  15981M 16023  16048M
1OPT      (OPT2025) (12:50) (15MAR04) Ordinary Symbol and Literal Cross Reference                                           Page  111
                                                 16090  16116M 16151  16199M 16242  16294M 19373  19562M 19598  19624M
                                                 19660  19686M 19722  19747M 19809  19834M 19920  19965M 20926  20954M
                                                 21017  21049M 21232  21306M 21492  21557M 21871  21928M 21959  21970
                                                 21996M 22027  22038  22064M 22095  22106  22834M 22936  22984M 23265
                                                 23291M 23327  23353M 23389  23414M 23451  23476M 23512  23538M 23660
                                                 23686M 23722  23748M 23796  23822M 23871  23897M 23939  23965M 24002
                                                 24028M 24065  24091M 24132  24158M 24200  24226M 24271  24297M 24341
                                                 24367M 24408  24434M 24475  24501M 24545  24571M 24619  24645M 24693
                                                 24718M 24790  24815M 24886  24911M 24979  25039M 25287  25312M 25354
                                                 25379M 25444  25469M 25507  25532M 25569  25594M 25659  25684M 25726
 WRAP          2 00004C7C 00000001     H   24708 22341
 WTOSG         1 00000000 00000000 A   T    2361  2361
 WYLOPT        1 00000000 00000001     J     993   995   1011   1024   1037   1049   1062   1075   1088   1101   1114
                                                  1127   1426   2645   2729   6469   6581   6586
 XIBADNM       2 00003A20 00000001     H   20623 20547B
 =A(ACCTKWS)
               4 00000D48 00000001     A    9912  7506
 =A(ACCTKWSC)
               4 00000D44 00000001     A    9911  7437
 =A(ACCTKWSL)
               4 00000D38 00000001     A    9908  7299
 =A(ACCTKWSN)
               4 00000D40 00000001     A    9910  7368
 =A(ATTNLNKW)
               4 00002670 00000001     A   15478 15033
 =A(CASEKWS)
               4 00001778 00000001     A   12116 10330
 =A(CHKKWS)
               4 00001E80 00000001     A   13604 12775
 =A(CKACCT)
               4 00000D64 00000001     A    9919  8416   8929
 =A(CLRKWS)
               4 00002410 00000001     A   14809 14228
 =A(CLSCRKWS)
               4 0000240C 00000001     A   14808 14159
 =A(COLLKWS)
               4 00001E60 00000001     A   13596 12173
 =A(COLLN)
               4 00001E70 00000001     A   13600 12387
 =A(COLSKWS)
               4 00001784 00000001     A   12119 11939
 =A(COPTSKWS)
               4 0000040C 00000001     A    7244  6767
 =A(DEVPRT)
               4 000034C8 00000001     A   19411 17025
 =A(DFOPTSKW)
               4 00000414 00000001     A    7246  7031
 =A(DODSNM)
               4 000034A0 00000001     A   19401 16226
 =A(DOPTSKWS)
               4 00000410 00000001     A    7245  6899
 =A(DSNCHK)
               4 00003C7C 00000001     A   21257 20604  21101
 =A(DSNPRT)
               4 00004D68 00000001     A   24999 21953
 =A(DSNPRTF)
               4 00004D70 00000001     A   25001 22021
 =A(DSNPRTON)
               4 00004D74 00000001     A   25002 22089
1OPT      (OPT2025) (12:50) (15MAR04) Ordinary Symbol and Literal Cross Reference                                           Page  112
 =A(DSNSTDDO)
               4 000034F4 00000001     A   19422 19317
 =A(DSNUDSDO)
               4 00003C78 00000001     A   21256 20512
 =A(EXFRKWS)
               4 00002A08 00000001     A   16170 15727
 =A(EXKWS)
               4 00002A00 00000001     A   16168 15590
 =A(FOPTSKWS)
               4 00000418 00000001     A    7247  7164
 =A(HOSTCHK)
               4 00003C6C 00000001     A   21253 20222
 =A(INTKWS)
               4 00002400 00000001     A   14805 13730
 =A(L'CPSPROJ)
               4 00000D58 00000001     A    9916  7964
 =A(L'DSNON)
               4 000034D0 00000001     A   19413 17257  17269  18455  18467
 =A(L'DSNON)
               4 00004D7C 00000001     A   25004 22865  22877  23127  23139
 =A(L'DSNWFILE)
               4 000034C0 00000001     A   19409 16671  16683
 =A(L'DSNWFILE)
               4 00003C84 00000001     A   21259 20830  20842
 =A(LENKWS)
               4 0000177C 00000001     A   12117 10399
 =A(LISTKWS)
               4 00001768 00000001     A   12112 10054
 =A(LTNKWS)
               4 00001760 00000001     A   12110  9985
 =A(NOOPTKWS)
               4 000023F8 00000001     A   14803 13661
 =A(NOOPTSKW)
               4 00000400 00000001     A    7241  6650
 =A(NUMKWS)
               4 00001774 00000001     A   12115 10261
 =A(QUIETKWS)
               4 00002404 00000001     A   14806 13799
 =A(RNUMKWS)
               4 00001770 00000001     A   12114 10192
 =A(SCRKWS)
               4 00002408 00000001     A   14807 14090
 =A(SEQPRT1)
               4 000050F8 00000001     A   25753 25176
 =A(SEQPRT2)
               4 00005104 00000001     A   25756 25213
 =A(SEQPRT3)
               4 00005108 00000001     A   25757 25250
 =A(TEXTKWS)
               4 0000176C 00000001     A   12113 10123
 =A(TRYACCT)
               4 00000D54 00000001     A    9915  7879   8237
 =A(VERKWS)
               4 00001780 00000001     A   12118 10468
 =A(1)         4 00000D88 00000001     A    9924  9449   9703
 =A(1)         4 000034DC 00000001     A   19416 17795  17844  17870  18026  18075  18101  18264
 =A(1)         4 000050F0 00000001     A   25751 25129
 =A(11)        4 000034F0 00000001     A   19421 18650
 =A(16)        4 00004D8C 00000001     A   25008 23591
1OPT      (OPT2025) (12:50) (15MAR04) Ordinary Symbol and Literal Cross Reference                                           Page  113
 =A(2)         4 00000D90 00000001     A    9926  9752
 =A(2)         4 000034E0 00000001     A   19417 17915
 =A(2)         4 00003F88 00000001     A   21891 21611
 =A(235)       4 0000510C 00000001     A   25758 25415
 =A(3)         4 00000D8C 00000001     A    9925  9498
 =A(3)         4 000034E4 00000001     A   19418 18146
 =A(3)         4 000050E8 00000001     A   25749 25087
 =A(4)         4 00001E78 00000001     A   13602 12413  12828  12862
 =A(6)         4 00000D50 00000001     A    9914  7854   7866   8847   9031
 =A(6)         4 00003F8C 00000001     A   21892 21631  21656
 =A(7)         4 00000D4C 00000001     A    9913  7820   7923
 =A(8)         4 00003C80 00000001     A   21258 20693
 =A(8)         4 00003F80 00000001     A   21889 21398
 =A(8)         4 00004D88 00000001     A   25007 23577
 =A(9)         4 00005118 00000001     A   25761 25630
 =AL2(DSNXN)
               2 0000359C 00000001     R   19437 19322
 =AL2(1)       2 00003CB4 00000001     R   21263 20749
 =C' ,;('      4 000034AC 00000001     C   19404 16455
 =C' ,='       3 0000359E 00000001     C   19438 16434
 =C' is an unknown user-ID.'
              23 00000DE7 00000001     C    9930  8759
 =C' is an unkown device type.'
              26 00003874 00000001     C   19939 19902
 =C'(: invalid data set name.'
              25 000035A1 00000001     C   19439 16583
 =C'&&'        1 00000E2D 00000001     C    9932  9462
 =C'&&'        1 000035D2 00000001     C   19444 17770  18018
 =C': dsname too long.'
              18 0000356A 00000001     C   19434 19105
 =C': invalid account.  '
              20 00000D74 00000001     C    9923  9286
 =C': invalid characters in account.  '
              34 00000D96 00000001     C    9928  9330
 =C': invalid characters in dsname.'
              31 000035E2 00000001     C   19446 18356
 =C': invalid characters in dsname.'
              31 00003CF8 00000001     C   21271 20702
 =C': invalid characters in group. '
              31 00000E3F 00000001     C    9934  9841
 =C': invalid characters in user-id.'
              32 00000D18 00000001     C    9907  9587
 =C': invalid dsname.'
              17 00003CE7 00000001     C   21270 20680
 =C': invalid group. '
              17 00000E2E 00000001     C    9933  9780
 =C': invalid group.'
              16 00003478 00000001     C   19397 17987
 =C': invalid user. '
              16 00000D08 00000001     C    9906  9526
 =C': invalid user.'
              15 000035D3 00000001     C   19445 18218
 =C': member name too long.'
              23 00003601 00000001     C   19447 19051
 =C': project-id is too long (max is 8 characters).'
              47 00000DB8 00000001     C    9929  7992
 =C': volume/host not found.'
              24 00003C48 00000001     C   21250 20433
 =C'if ASCII/EBCDIC is specified.'
1OPT      (OPT2025) (12:50) (15MAR04) Ordinary Symbol and Literal Cross Reference                                           Page  114
              29 00003CBC 00000001     C   21267 20051
 =C'Account must be specified in "gg.uuu" format.  '
              47 00000DFE 00000001     C    9931  9356
 =C'ACTIVE file changes blocked by ORVYL program.'
              45 00001E9C 00000001     C   13610 12341
 =C'ATTN option may only be used in EXEC files. '
              44 00002644 00000001     C   15477 14970
 =C'ATTN: invalid. '
              15 0000268A 00000001     C   15485 14952
 =C'Can''t access remote file, no default host set.'
              46 00003516 00000001     C   19428 17554
 =C'Collect option not allowed before logon.'
              40 00001E38 00000001     C   13595 12308
 =C'CAT '      4 00004D84 00000001     C   25006 23228
 =C'CAT'       3 000035C9 00000001     C   19441 17208
 =C'CATALOG '
               8 00004D40 00000001     C   24997 23200
 =C'CATLG '
               6 00004DB8 00000001     C   25012 23214
 =C'CLIP '
               5 00003CD9 00000001     C   21268 20187
 =C'CLIPBOARD '
              10 00003CAA 00000001     C   21262 20201
 =C'CODE must be 8-16 characters in length.'
              39 00004DC3 00000001     C   25014 23601
 =C'Dsname is null.'
              15 00003618 00000001     C   19448 19303
 =C'Invalid sequece field specification. '
              37 0000516C 00000001     C   25766 25425  25640
 =C'Invalid sequence field specification. '
              38 00005146 00000001     C   25765 25713
 =C'Missing ">" in '
              15 000035BA 00000001     C   19440 16927
 =C'Missing attention line number. '
              31 00002699 00000001     C   15486 15375
 =C'Missing data set name.'
              22 000034FC 00000001     C   19425 16535
 =C'Missing device-type name.'
              25 0000388E 00000001     C   19940 19791
 =C'Missing disk/host name after "ON".'
              34 00004D96 00000001     C   25011 23117
 =C'Missing sequence field specification. '
              38 00005120 00000001     C   25764 25341
 =C'NULLFILE '
               9 00003CDE 00000001     C   21269 20544
 =C'PFX'       3 00003627 00000001     C   19449 19336
 =C'PUB'       3 00003D17 00000001     C   21272 21137  21147  21214
 =C'PUBGA'
               5 00004DBE 00000001     C   25013 23501
 =C'SAV'       3 00004DEA 00000001     C   25015 24754  24851
 =C'SYS'       3 000035CF 00000001     C   19443 17434
 =C'The current dsname is not set.'
              30 00003544 00000001     C   19429 18415
 =C'The current member is not set.'
              30 0000357E 00000001     C   19436 19257
 =C'Type HELP SET HOST for more information.'
              40 00003448 00000001     C   19395 17573
 =C'TEM'       3 000035CC 00000001     C   19442 17233
 =C'TRANSPARENT must be specified '
1OPT      (OPT2025) (12:50) (15MAR04) Ordinary Symbol and Literal Cross Reference                                           Page  115
              30 00003C8C 00000001     C   21261 20033
 =C'WYL.'      4 000034D4 00000001     C   19414 17421  17676  18633
 =C'WYL.'      4 00003C88 00000001     C   21260 20990
 =C'0)'        2 00003566 00000001     C   19432 18931
 =C'0: invalid. '
              12 00001E84 00000001     C   13605 13130
 =CL(L'DSNNUSER)'guest'
              32 00004D48 00000001     C   24998 23439
 =CL8'*'       8 00003498 00000001     C   19400 19141
 =CL8'BADDSN'
               8 00003438 00000001     C   19393 16573
 =CL8'INVDSN'
               8 00003C60 00000001     C   21251 20637  20710
 =CL8'INVGRP'
               8 00003470 00000001     C   19396 17952  17984  18183  18215
 =CL8'MISSDSN'
               8 00003430 00000001     C   19392 16524  16532
 =CL8'NOSTAR'
               8 00003490 00000001     C   19399 18404  18412  19246  19254
 =CL8'REMFILE'
               8 00003440 00000001     C   19394 17570
 =CL8'STARBAD'
               8 00003488 00000001     C   19398 18319  18353
 =F'-1'        4 00005110 00000001     F   25759 25494
 =F'-1000'
               4 00001E7C 00000001     F   13603 12542
 =F'-4'        4 00000D60 00000001     F    9918  8000   8951   9294   9338   9364   9534   9595   9788   9849
 =F'-4'        4 00001E6C 00000001     F   13599 12316  12349  13138
 =F'-4'        4 00002684 00000001     F   15483 15383
 =F'2'         4 000050F4 00000001     F   25752 25130
 =F'8'         4 00005114 00000001     F   25760 25557
 =H'-1,8'      2 00002A0C 00000001     H   16171 15925
 =H'-1,8'      2 000034A4 00000001     H   19402 16382
 =H'11'        2 00003CB6 00000001     H   21264 20818
 =H'44'        2 00003564 00000001     H   19431 18755  18795
 =H'7'         2 00000D94 00000001     H    9927  7952
 =H'8'         2 00003568 00000001     H   19433 18999
 =V(CHARCHKA)
               4 00000D70 00000001     V    9922  9095   9116   9169   9190   9552   9806
 =V(CLRTEXT)
               4 00001E94 00000001     V   13607 13267  13358
 =V(DEQUOTE)
               4 000034BC 00000001     V   19408 16638
 =V(ENDLNO)
               4 00001E90 00000001     V   13606 13173
 =V(EXIT2)
               4 000034CC 00000001     V   19412 17244
 =V(EXIT2)
               4 00004D78 00000001     V   25003 22861
 =V(FINDDEV)
               4 00003C70 00000001     V   21254 20264
 =V(GETACCT)
               4 00000D68 00000001     V    9920  8603   8718
 =V(LABELLNO)
               4 0000267C 00000001     V   15481 15231
 =V(NOTVALID)
               4 00004D90 00000001     V   25009 24762  24859  24953
 =V(NOTVALID)
               4 000050EC 00000001     V   25750 25121
1OPT      (OPT2025) (12:50) (15MAR04) Ordinary Symbol and Literal Cross Reference                                           Page  116
 =V(NSCAN)
               4 00000404 00000001     V    7242  6654   6771   6903   7035   7168
 =V(NSCAN)
               4 00001E74 00000001     V   13601 12391  12779
 =V(NSCAN)
               4 00002674 00000001     V   15479 15037
 =V(NSCAN)
               4 00002A04 00000001     V   16169 15594  15731
 =V(NSCAN)
               4 000034B4 00000001     V   19406 16480  17029  18872
 =V(NSCAN)
               4 000050FC 00000001     V   25754 25180  25217  25254
 =V(NSCANSTR)
               4 00004D80 00000001     V   25005 23038
 =V(RETFMEM)
               4 000034E8 00000001     V   19419 18538  19166
 =V(RETFNAME)
               4 000034EC 00000001     V   19420 18614
 =V(RLOOKUP)
               4 00000D3C 00000001     V    9909  7302   7371   7440   7509
 =V(RLOOKUP)
               4 00001764 00000001     V   12111  9988  10057  10126  10195  10264  10333  10402  10471  11942
 =V(RLOOKUP)
               4 00001E64 00000001     V   13597 12176
 =V(RLOOKUP)
               4 000023FC 00000001     V   14804 13664  13733  13802  14093  14162  14231
 =V(RLOOKUP)
               4 00004D6C 00000001     V   25000 21956  22024  22092
 =V(RTRIM)
               4 00003F84 00000001     V   21890 21598
 =V(SCANCHK)
               4 00000408 00000001     V    7243  6668   6785   6917   7049   7182
 =V(SCANCHK)
               4 00002678 00000001     V   15480 15051
 =V(SCANCHK)
               4 000034B8 00000001     V   19407 16485  17043  18886
 =V(SCANCHK)
               4 00005100 00000001     V   25755 25194  25231  25268
 =V(SCSEG)
               4 00000D5C 00000001     V    9917  7986   7998   9280   9292   9324   9336   9362   9520   9532   9581
                                                  9593   9774   9786   9835   9847
 =V(SCSEG)
               4 00001E68 00000001     V   13598 12314  12347  13136
 =V(SCSEG)
               4 00002680 00000001     V   15482 15381
 =V(SEG)       4 00000D6C 00000001     V    9921  8753
 =V(SEG)       4 00002640 00000001     V   15476 14964
 =V(SEG)       4 000034C4 00000001     V   19410 16939  17980  18211  18349  19045  19099
 =V(SEG)       4 00003870 00000001     V   19938 19896
 =V(SEG)       4 00003C68 00000001     V   21252 20045  20676
 =V(SEGCR)
               4 000034D8 00000001     V   19415 17566
 =V(SEGT)      4 00003C74 00000001     V   21255 20427
 =V(SETSKIP)
               4 000034A8 00000001     V   19403 16442
 =V(SETSTOP)
               4 000034B0 00000001     V   19405 16463
 =V(VOLCHK)
               4 00003F90 00000001     V   21893 21848
1OPT      (OPT2025) (12:50) (15MAR04) Ordinary Symbol and Literal Cross Reference                                           Page  117
 =Y((L'NSCNCB+3)/4*4)
               2 00001E9A 00000001     Y   13609 12423  12872  13273  13364
 =Y((L'NSCNCB+3)/4*4)
               2 00002A12 00000001     Y   16173 15609  15746
 =Y((L'NSCNCB+3)/4*4)
               2 00003514 00000001     Y   19427 17105
 =Y((L'NSCNCB+3)/4*4)
               2 0000511E 00000001     Y   25763 25274
 =Y((R1+1-(R0)+16*((R0)/(R1+1))/((R0)/(R1+1)))*4)
               2 00003512 00000001     Y   19426 17001  17249
 =Y((R1+1-(R14)+16*((R14)/(R1+1))/((R14)/(R1+1)))*4)
               2 00003562 00000001     Y   19430 18618
 =Y((R2+1-(R14)+16*((R14)/(R2+1))/((R14)/(R2+1)))*4)
               2 0000357C 00000001     Y   19435 19209
 =Y((12+3)/4*4)
               2 0000041C 00000001     Y    7248  6660   6777   6909   7041   7174
 =Y((12+3)/4*4)
               2 00001E98 00000001     Y   13608 12397  12785
 =Y((12+3)/4*4)
               2 00002688 00000001     Y   15484 15043
 =Y((12+3)/4*4)
               2 00002A10 00000001     Y   16172 15600  15737
 =Y((12+3)/4*4)
               2 000034FA 00000001     Y   19424 16491  17035  18878
 =Y((12+3)/4*4)
               2 00004D94 00000001     Y   25010 23044
 =Y((12+3)/4*4)
               2 0000511C 00000001     Y   25762 25186  25223  25260
 =Y(DSNXN)
               2 00003CB8 00000001     Y   21265 20997
 =Y(4)         2 000034F8 00000001     Y   19423 16445  16466
 =Y(4)         2 00003CBA 00000001     Y   21266 21220

1OPT      (OPT2025) (12:50) (15MAR04) Macro and Copy Code Source Summary                                                    Page  118
- Con Source                                        Volume    Members                        HLASM R4.0  2004/03/15 12.50
0     PRIMARY INPUT                                           CSECT    DROP     END      EX       LTORG    POP
                                                              PRINT    PUSH     START    USING
   L1 WYL.GS.WYL.WYLBUR.MACLIB                      SYSB05    ABORT    AINFO    BASE     BOMB     COLINFO  COMMENT
                                                              CONTROL  CP       CPLOCAL  CV       CVLOCAL  ERROR    JCB
                                                              RG       SCAN     SCANCB   SCANCHK  SCANSTR  SCBKUP
                                                              SCCBADR  SCINFO   SCINIT   SCKW     SCPOP    SCPUSH
                                                              SCSEG    SCTOK    SCUPTOK  SETSKIP  SETSTOP  TSEG
                                                              TTYPE    VLTORG   XPUSHRTN XTRACE
   L2 WYL.GG.SYS.MACLIB                             SYSB05    $BC      $BFLKUP  $BV      $CCLKUP  $CRS     $CSS     $L
                                                              $LA      $LBLAD   $LEXP    $LOR     $REL     $RGLKUP
                                                              $USLKUP  ACALL    BEGIN    CEIL     CLEAR    COMPROC
                                                              CSECT    DATA     DECR     DEFCC    DEX      DPROC    DROP
                                                              DTEX     ELSE     ELSEIF   END      EX       EXIT     FLAG
                                                              GEN      HIBAL    IDENT    IF       INCR     LABEL    LC
                                                              LS       LTH      LTORG    MOVE     PEND     POP
                                                              PRETURN  PRINT    PROC     PUSH     QLTORG   RECORD   REG
                                                              REGS     SET      SETMSG   START    USING    VCALL
                                                              WHILE    WITH     XPROC
   L3 SYS3.IS.MACLIB                                SYSB05    SEG      SEGCB    SEGLD    SIB      SYSDEFN  XPOP
                                                              XPUSH

1OPT      (OPT2025) (12:50) (15MAR04) Dsect Cross Reference                                                                 Page  119
-Dsect     Length      Id       Defn                                                         HLASM R4.0  2004/03/15 12.50
0$$$@R0   00000000  FFFFFFFE     705
 $$$@R1   00000000  FFFFFFFD     718
 $$$@R10  00000000  FFFFFFF4     835
 $$$@R11  00000000  FFFFFFF3     848
 $$$@R12  00000000  FFFFFFF2     861
 $$$@R13  00000000  FFFFFFF1     874
 $$$@R14  00000000  FFFFFFF0     887
 $$$@R15  00000000  FFFFFFEF     900
 $$$@R2   00000000  FFFFFFFC     731
 $$$@R3   00000000  FFFFFFFB     744
 $$$@R4   00000000  FFFFFFFA     757
 $$$@R5   00000000  FFFFFFF9     770
 $$$@R6   00000000  FFFFFFF8     783
 $$$@R7   00000000  FFFFFFF7     796
 $$$@R8   00000000  FFFFFFF6     809
 $$$@R9   00000000  FFFFFFF5     822
 $$$RCP   00001000  FFFFFFEB    2734
 $$$RCV   00000FB0  FFFFFFED    1459
 $$$RDEV  0000000C  FFFFFFEA    4948
 $$$RDODWA
          00000300  FFFFFFE8   16257
 $$$RHAVONWA
          00000200  FFFFFFE7   22949
 $$$RJCB  000000D0  FFFFFFEE    1151
 $$$RNSCNCB
          000000B0  FFFFFFEC    2655
 $$$RTTYPE
          0000010C  FFFFFFE9    6479
 HIBAL    00000000  FFFFFFFF     691

1OPT      (OPT2025) (12:50) (15MAR04) Using Map                                                                             Page  120
-                                                                                            HLASM R4.0  2004/03/15 12.50
   Stmt  -----Location----- Action ----------------Using----------------- Reg Max    Last  Label and Using Text
           Count      Id           Type          Value    Range     Id        Disp   Stmt
0   922  00000000  FFFFFFFF USING  ORDINARY    00000000 00001000 FFFFFFEF  15 00A   23185  @R15,15
    926  00000000  FFFFFFFF USING  ORDINARY    00000000 00001000 FFFFFFF0  14 002   16772  @R14,14
    930  00000000  FFFFFFFF USING  ORDINARY    00000000 00001000 FFFFFFF1  13 00C   25275  @R13,13
    934  00000000  FFFFFFFF USING  ORDINARY    00000000 00001000 FFFFFFF2  12 000          @R12,12
    938  00000000  FFFFFFFF USING  ORDINARY    00000000 00001000 FFFFFFF3  11 000          @R11,11
    942  00000000  FFFFFFFF USING  ORDINARY    00000000 00001000 FFFFFFF4  10 000          @R10,10
    946  00000000  FFFFFFFF USING  ORDINARY    00000000 00001000 FFFFFFF5   9 000          @R9,9
    950  00000000  FFFFFFFF USING  ORDINARY    00000000 00001000 FFFFFFF6   8 000          @R8,8
    954  00000000  FFFFFFFF USING  ORDINARY    00000000 00001000 FFFFFFF7   7 000          @R7,7
    958  00000000  FFFFFFFF USING  ORDINARY    00000000 00001000 FFFFFFF8   6 004   21470  @R6,6
    962  00000000  FFFFFFFF USING  ORDINARY    00000000 00001000 FFFFFFF9   5 000          @R5,5
    966  00000000  FFFFFFFF USING  ORDINARY    00000000 00001000 FFFFFFFA   4 004   19122  @R4,4
    970  00000000  FFFFFFFF USING  ORDINARY    00000000 00001000 FFFFFFFB   3 000   25113  @R3,3
    974  00000000  FFFFFFFF USING  ORDINARY    00000000 00001000 FFFFFFFC   2 001   18817  @R2,2
    978  00000000  FFFFFFFF USING  ORDINARY    00000000 00001000 FFFFFFFD   1 007   19196  @R1,1
    982  00000000  FFFFFFFF USING  ORDINARY    00000000 00001000 FFFFFFFE   0 000          @R0,0
    983  00000000  FFFFFFFF DROP                                            0              0
   1443  00000016  00000001 USING  ORDINARY    00000000 00001000 FFFFFFEB  11 F5C   25647  CP,CPR
   1452  00000016  00000001 USING  ORDINARY    00000000 00001000 FFFFFFED  12 8A8   25715  CV,CVR
   6624  00000030  00000001 USING  ORDINARY    00000030 00001000 00000001   7 3EC    6668  $$$43B,7
   6676  00000088  00000001 USING  ORDINARY    00000000 00001000 FFFFFFF7   7 000          @R7,7
   6741  000000DA  00000001 USING  ORDINARY    000000DA 00001000 00000001   7 342    6785  $$$46B,7
   6793  00000132  00000001 USING  ORDINARY    00000000 00001000 FFFFFFF7   7 000          @R7,7
   6873  000001AA  00000001 USING  ORDINARY    000001AA 00001000 00000001   7 272    6917  $$$49B,7
   6925  00000202  00000001 USING  ORDINARY    00000000 00001000 FFFFFFF7   7 000          @R7,7
   7005  0000027A  00000001 USING  ORDINARY    0000027A 00001000 00000001   7 1A2    7049  $$$52B,7
   7057  000002D2  00000001 USING  ORDINARY    00000000 00001000 FFFFFFF7   7 000          @R7,7
   7138  0000034A  00000001 USING  ORDINARY    0000034A 00001000 00000001   7 0D2    7182  $$$55B,7
   7190  000003A2  00000001 USING  ORDINARY    00000000 00001000 FFFFFFF7   7 000          @R7,7
   7290  00000438  00000001 USING  ORDINARY    00000438 00001000 00000001   7 904    7302  $$$58B,7
   7312  00000446  00000001 USING  ORDINARY    00000000 00001000 FFFFFFF7   7 000          @R7,7
   7359  0000046E  00000001 USING  ORDINARY    0000046E 00001000 00000001   7 8D2    7371  $$$61B,7
   7381  0000047C  00000001 USING  ORDINARY    00000000 00001000 FFFFFFF7   7 000          @R7,7
   7428  000004A4  00000001 USING  ORDINARY    000004A4 00001000 00000001   7 8A0    7440  $$$64B,7
   7450  000004B2  00000001 USING  ORDINARY    00000000 00001000 FFFFFFF7   7 000          @R7,7
   7497  000004DA  00000001 USING  ORDINARY    000004DA 00001000 00000001   7 86E    7509  $$$67B,7
   7519  000004E8  00000001 USING  ORDINARY    00000000 00001000 FFFFFFF7   7 000          @R7,7
   7783  00000742  00000001 USING  ORDINARY    00000742 00001000 00000001   7 71C    8136  $$$70B,7
   8162  00000844  00000001 USING  ORDINARY    00000000 00001000 FFFFFFF7   7 000          @R7,7
   8210  0000086C  00000001 USING  ORDINARY    0000086C 00001000 00000001   7 4E8    8328  $$$89B,7
   8352  000008C8  00000001 USING  ORDINARY    00000000 00001000 FFFFFFF7   7 000          @R7,7
   8401  000008F0  00000001 USING  ORDINARY    000008F0 00001000 00000001   7 474    8505  $$$98B,7
   8527  0000093E  00000001 USING  ORDINARY    00000000 00001000 FFFFFFF7   7 000          @R7,7
   8579  00000966  00000001 USING  ORDINARY    00000966 00001000 00000001   7 402    8639  $$$107B,7
   8657  0000099E  00000001 USING  ORDINARY    00000000 00001000 FFFFFFF7   7 000          @R7,7
   8706  000009C6  00000001 USING  ORDINARY    000009C6 00001000 00000001   7 421    8759  $$$112B,7
   8776  000009EC  00000001 USING  ORDINARY    00000000 00001000 FFFFFFF7   7 000          @R7,7
   8827  00000A14  00000001 USING  ORDINARY    00000A14 00001000 00000001   7 350    8952  $$$116B,7
   8961  00000A64  00000001 USING  ORDINARY    00000000 00001000 FFFFFFF7   7 000          @R7,7
   9011  00000A8C  00000001 USING  ORDINARY    00000A8C 00001000 00000001   7 372    9365  $$$124B,7
   9375  00000BA4  00000001 USING  ORDINARY    00000000 00001000 FFFFFFF7   7 000          @R7,7
   9423  00000BCC  00000001 USING  ORDINARY    00000BCC 00001000 00000001   7 261    9605  $$$135B,7
   9630  00000C50  00000001 USING  ORDINARY    00000000 00001000 FFFFFFF7   7 000          @R7,7
1OPT      (OPT2025) (12:50) (15MAR04) Using Map                                                                             Page  121
   9677  00000C78  00000001 USING  ORDINARY    00000C78 00001000 00000001   7 1C7    9859  $$$144B,7
   9884  00000CFA  00000001 USING  ORDINARY    00000000 00001000 FFFFFFF7   7 000          @R7,7
   9976  00000E7E  00000001 USING  ORDINARY    00000E7E 00001000 00000001   7 8E6    9988  $$$153B,7
   9998  00000E8C  00000001 USING  ORDINARY    00000000 00001000 FFFFFFF7   7 000          @R7,7
  10045  00000EB4  00000001 USING  ORDINARY    00000EB4 00001000 00000001   7 8B4   10057  $$$156B,7
  10067  00000EC2  00000001 USING  ORDINARY    00000000 00001000 FFFFFFF7   7 000          @R7,7
  10114  00000EEA  00000001 USING  ORDINARY    00000EEA 00001000 00000001   7 882   10126  $$$159B,7
  10136  00000EF8  00000001 USING  ORDINARY    00000000 00001000 FFFFFFF7   7 000          @R7,7
  10183  00000F20  00000001 USING  ORDINARY    00000F20 00001000 00000001   7 850   10195  $$$162B,7
  10205  00000F2E  00000001 USING  ORDINARY    00000000 00001000 FFFFFFF7   7 000          @R7,7
  10252  00000F56  00000001 USING  ORDINARY    00000F56 00001000 00000001   7 81E   10264  $$$165B,7
  10274  00000F64  00000001 USING  ORDINARY    00000000 00001000 FFFFFFF7   7 000          @R7,7
  10321  00000F8C  00000001 USING  ORDINARY    00000F8C 00001000 00000001   7 7EC   10333  $$$168B,7
  10343  00000F9A  00000001 USING  ORDINARY    00000000 00001000 FFFFFFF7   7 000          @R7,7
  10390  00000FC2  00000001 USING  ORDINARY    00000FC2 00001000 00000001   7 7BA   10402  $$$171B,7
  10412  00000FD0  00000001 USING  ORDINARY    00000000 00001000 FFFFFFF7   7 000          @R7,7
  10459  00000FF8  00000001 USING  ORDINARY    00000FF8 00001000 00000001   7 788   10471  $$$174B,7
  10481  00001006  00000001 USING  ORDINARY    00000000 00001000 FFFFFFF7   7 000          @R7,7
  10910  000013EE  00000001 USING  ORDINARY    000013EE 00001000 00000001   7 000          $$$177B,7
  10933  000013F2  00000001 USING  ORDINARY    00000000 00001000 FFFFFFF7   7 000          @R7,7
  10979  0000141A  00000001 USING  ORDINARY    0000141A 00001000 00000001   7 000          $$$181B,7
  11001  0000141E  00000001 USING  ORDINARY    00000000 00001000 FFFFFFF7   7 000          @R7,7
  11047  00001446  00000001 USING  ORDINARY    00001446 00001000 00000001   7 000          $$$185B,7
  11064  0000144E  00000001 USING  ORDINARY    00000000 00001000 FFFFFFF7   7 000          @R7,7
  11110  00001476  00000001 USING  ORDINARY    00001476 00001000 00000001   7 000          $$$188B,7
  11135  0000147A  00000001 USING  ORDINARY    00000000 00001000 FFFFFFF7   7 000          @R7,7
  11181  000014A2  00000001 USING  ORDINARY    000014A2 00001000 00000001   7 000          $$$193B,7
  11214  000014AA  00000001 USING  ORDINARY    00000000 00001000 FFFFFFF7   7 000          @R7,7
  11260  000014D2  00000001 USING  ORDINARY    000014D2 00001000 00000001   7 000          $$$199B,7
  11294  000014DE  00000001 USING  ORDINARY    00000000 00001000 FFFFFFF7   7 000          @R7,7
  11340  00001506  00000001 USING  ORDINARY    00001506 00001000 00000001   7 000          $$$204B,7
  11375  00001512  00000001 USING  ORDINARY    00000000 00001000 FFFFFFF7   7 000          @R7,7
  11420  0000153A  00000001 USING  ORDINARY    0000153A 00001000 00000001   7 014   11447  $$$209B,7
  11474  00001550  00000001 USING  ORDINARY    00000000 00001000 FFFFFFF7   7 000          @R7,7
  11520  00001578  00000001 USING  ORDINARY    00001578 00001000 00000001   7 000          $$$216B,7
  11544  0000157C  00000001 USING  ORDINARY    00000000 00001000 FFFFFFF7   7 000          @R7,7
  11590  000015A4  00000001 USING  ORDINARY    000015A4 00001000 00000001   7 000          $$$219B,7
  11616  000015AC  00000001 USING  ORDINARY    00000000 00001000 FFFFFFF7   7 000          @R7,7
  11662  000015D4  00000001 USING  ORDINARY    000015D4 00001000 00000001   7 000          $$$222B,7
  11683  000015DE  00000001 USING  ORDINARY    00000000 00001000 FFFFFFF7   7 000          @R7,7
  11729  00001606  00000001 USING  ORDINARY    00001606 00001000 00000001   7 000          $$$225B,7
  11745  0000160A  00000001 USING  ORDINARY    00000000 00001000 FFFFFFF7   7 000          @R7,7
  11791  00001632  00000001 USING  ORDINARY    00001632 00001000 00000001   7 000          $$$228B,7
  11812  00001636  00000001 USING  ORDINARY    00000000 00001000 FFFFFFF7   7 000          @R7,7
  11858  0000165E  00000001 USING  ORDINARY    0000165E 00001000 00000001   7 000          $$$231B,7
  11880  00001662  00000001 USING  ORDINARY    00000000 00001000 FFFFFFF7   7 000          @R7,7
  11930  0000168A  00000001 USING  ORDINARY    0000168A 00001000 00000001   7 0FA   11942  $$$234B,7
  11952  00001698  00000001 USING  ORDINARY    00000000 00001000 FFFFFFF7   7 000          @R7,7
  12050  0000173A  00000001 USING  ORDINARY    0000173A 00001000 00000001   7 010   12071  $$$237B,7
  12088  0000174E  00000001 USING  ORDINARY    00000000 00001000 FFFFFFF7   7 000          @R7,7
  12164  000017A2  00000001 USING  ORDINARY    000017A2 00001000 00000001   7 6C2   12176  $$$241B,7
  12186  000017B0  00000001 USING  ORDINARY    00000000 00001000 FFFFFFF7   7 000          @R7,7
  12277  00001852  00000001 USING  ORDINARY    00001852 00001000 00000001   7 64A   12423  $$$244B,7
  12441  00001914  00000001 USING  ORDINARY    00000000 00001000 FFFFFFF7   7 000          @R7,7
  12532  000019B6  00000001 USING  ORDINARY    000019B6 00001000 00000001   7 4C6   12542  $$$250B,7
  12550  000019C4  00000001 USING  ORDINARY    00000000 00001000 FFFFFFF7   7 000          @R7,7
  12595  000019EC  00000001 USING  ORDINARY    000019EC 00001000 00000001   7 000          $$$253B,7
  12620  000019FC  00000001 USING  ORDINARY    00000000 00001000 FFFFFFF7   7 000          @R7,7
  12670  00001A24  00000001 USING  ORDINARY    00001A24 00001000 00000001   7 476   12889  $$$256B,7
1OPT      (OPT2025) (12:50) (15MAR04) Using Map                                                                             Page  122
  12907  00001AFC  00000001 USING  ORDINARY    00000000 00001000 FFFFFFF7   7 000          @R7,7
  13103  00001CB6  00000001 USING  ORDINARY    00001CB6 00001000 00000001   7 1DA   13173  $$$268B,7
  13191  00001CF0  00000001 USING  ORDINARY    00000000 00001000 FFFFFFF7   7 000          @R7,7
  13237  00001D18  00000001 USING  ORDINARY    00001D18 00001000 00000001   7 182   13273  $$$275B,7
  13282  00001D46  00000001 USING  ORDINARY    00000000 00001000 FFFFFFF7   7 000          @R7,7
  13328  00001D6E  00000001 USING  ORDINARY    00001D6E 00001000 00000001   7 12C   13364  $$$278B,7
  13373  00001D9C  00000001 USING  ORDINARY    00000000 00001000 FFFFFFF7   7 000          @R7,7
  13419  00001DC4  00000001 USING  ORDINARY    00001DC4 00001000 00000001   7 000          $$$281B,7
  13441  00001DCC  00000001 USING  ORDINARY    00000000 00001000 FFFFFFF7   7 000          @R7,7
  13487  00001DF4  00000001 USING  ORDINARY    00001DF4 00001000 00000001   7 000          $$$284B,7
  13510  00001DFC  00000001 USING  ORDINARY    00000000 00001000 FFFFFFF7   7 000          @R7,7
  13556  00001E24  00000001 USING  ORDINARY    00001E24 00001000 00000001   7 000          $$$287B,7
  13572  00001E28  00000001 USING  ORDINARY    00000000 00001000 FFFFFFF7   7 000          @R7,7
  13652  00001EE4  00000001 USING  ORDINARY    00001EE4 00001000 00000001   7 518   13664  $$$290B,7
  13674  00001EF2  00000001 USING  ORDINARY    00000000 00001000 FFFFFFF7   7 000          @R7,7
  13721  00001F1A  00000001 USING  ORDINARY    00001F1A 00001000 00000001   7 4E6   13733  $$$293B,7
  13743  00001F28  00000001 USING  ORDINARY    00000000 00001000 FFFFFFF7   7 000          @R7,7
  13790  00001F50  00000001 USING  ORDINARY    00001F50 00001000 00000001   7 4B4   13802  $$$296B,7
  13812  00001F5E  00000001 USING  ORDINARY    00000000 00001000 FFFFFFF7   7 000          @R7,7
  13943  0000204E  00000001 USING  ORDINARY    0000204E 00001000 00000001   7 000          $$$299B,7
  13964  00002052  00000001 USING  ORDINARY    00000000 00001000 FFFFFFF7   7 000          @R7,7
  14010  0000207A  00000001 USING  ORDINARY    0000207A 00001000 00000001   7 000          $$$302B,7
  14031  0000207E  00000001 USING  ORDINARY    00000000 00001000 FFFFFFF7   7 000          @R7,7
  14081  000020A6  00000001 USING  ORDINARY    000020A6 00001000 00000001   7 362   14093  $$$305B,7
  14103  000020B4  00000001 USING  ORDINARY    00000000 00001000 FFFFFFF7   7 000          @R7,7
  14150  000020DC  00000001 USING  ORDINARY    000020DC 00001000 00000001   7 330   14162  $$$308B,7
  14172  000020EA  00000001 USING  ORDINARY    00000000 00001000 FFFFFFF7   7 000          @R7,7
  14219  00002112  00000001 USING  ORDINARY    00002112 00001000 00000001   7 2FE   14231  $$$311B,7
  14241  00002120  00000001 USING  ORDINARY    00000000 00001000 FFFFFFF7   7 000          @R7,7
  14476  0000232A  00000001 USING  ORDINARY    0000232A 00001000 00000001   7 000          $$$314B,7
  14498  0000232E  00000001 USING  ORDINARY    00000000 00001000 FFFFFFF7   7 000          @R7,7
  14544  00002356  00000001 USING  ORDINARY    00002356 00001000 00000001   7 000          $$$318B,7
  14572  0000235E  00000001 USING  ORDINARY    00000000 00001000 FFFFFFF7   7 000          @R7,7
  14618  00002386  00000001 USING  ORDINARY    00002386 00001000 00000001   7 000          $$$321B,7
  14646  0000238E  00000001 USING  ORDINARY    00000000 00001000 FFFFFFF7   7 000          @R7,7
  14692  000023B6  00000001 USING  ORDINARY    000023B6 00001000 00000001   7 000          $$$324B,7
  14713  000023BA  00000001 USING  ORDINARY    00000000 00001000 FFFFFFF7   7 000          @R7,7
  14759  000023E2  00000001 USING  ORDINARY    000023E2 00001000 00000001   7 000          $$$327B,7
  14781  000023E6  00000001 USING  ORDINARY    00000000 00001000 FFFFFFF7   7 000          @R7,7
  14923  0000242E  00000001 USING  ORDINARY    0000242E 00001000 00000001   7 25C   15244  $$$330B,7
  15269  00002546  00000001 USING  ORDINARY    00000000 00001000 FFFFFFF7   7 000          @R7,7
  15362  000025E6  00000001 USING  ORDINARY    000025E6 00001000 00000001   7 0B3   15383  $$$347B,7
  15390  000025FC  00000001 USING  ORDINARY    00000000 00001000 FFFFFFF7   7 000          @R7,7
  15435  00002624  00000001 USING  ORDINARY    00002624 00001000 00000001   7 000          $$$350B,7
  15454  0000262E  00000001 USING  ORDINARY    00000000 00001000 FFFFFFF7   7 000          @R7,7
  15530  000026D2  00000001 USING  ORDINARY    000026D2 00001000 00000001   7 340   15609  $$$353B,7
  15621  0000274E  00000001 USING  ORDINARY    00000000 00001000 FFFFFFF7   7 000          @R7,7
  15667  00002776  00000001 USING  ORDINARY    00002776 00001000 00000001   7 29C   15746  $$$357B,7
  15758  000027F2  00000001 USING  ORDINARY    00000000 00001000 FFFFFFF7   7 000          @R7,7
  15910  00002932  00000001 USING  ORDINARY    00002932 00001000 00000001   7 0DA   15925  $$$361B,7
  15952  00002964  00000001 USING  ORDINARY    00000000 00001000 FFFFFFF7   7 000          @R7,7
  15997  0000298C  00000001 USING  ORDINARY    0000298C 00001000 00000001   7 000          $$$365B,7
  16019  00002994  00000001 USING  ORDINARY    00000000 00001000 FFFFFFF7   7 000          @R7,7
  16064  000029BC  00000001 USING  ORDINARY    000029BC 00001000 00000001   7 000          $$$368B,7
  16086  000029C4  00000001 USING  ORDINARY    00000000 00001000 FFFFFFF7   7 000          @R7,7
  16132  000029EC  00000001 USING  ORDINARY    000029EC 00001000 00000001   7 000          $$$371B,7
  16147  000029EC  00000001 USING  ORDINARY    00000000 00001000 FFFFFFF7   7 000          @R7,7
  16215  00002A2E  00000001 USING  ORDINARY    00002A2E 00001000 00000001   7 A72   16226  $$$374B,7
  16238  00002A36  00000001 USING  ORDINARY    00000000 00001000 FFFFFFF7   7 000          @R7,7
1OPT      (OPT2025) (12:50) (15MAR04) Using Map                                                                             Page  123
  16310  00002A5E  00000001 USING  ORDINARY    00002A5E 00001000 00000001   7 C08   19354  $$$377B,7
  16324  00002A5E  00000001 USING  ORDINARY    FFFFFFD8 00001000 FFFFFFE8   8 228   16631  DODWA-(4+36),R8
  19364  0000341E  00000001 USING  ORDINARY    00000000 00001000 FFFFFFF6   8 000          @R8,8
  19369  0000341E  00000001 USING  ORDINARY    00000000 00001000 FFFFFFF7   7 000          @R7,7
  19578  00003776  00000001 USING  ORDINARY    00003776 00001000 00000001   7 000          $$$515B,7
  19594  0000377A  00000001 USING  ORDINARY    00000000 00001000 FFFFFFF7   7 000          @R7,7
  19640  000037A2  00000001 USING  ORDINARY    000037A2 00001000 00000001   7 000          $$$518B,7
  19656  000037A6  00000001 USING  ORDINARY    00000000 00001000 FFFFFFF7   7 000          @R7,7
  19702  000037CE  00000001 USING  ORDINARY    000037CE 00001000 00000001   7 000          $$$521B,7
  19718  000037D2  00000001 USING  ORDINARY    00000000 00001000 FFFFFFF7   7 000          @R7,7
  19763  000037FA  00000001 USING  ORDINARY    000037FA 00001000 00000001   7 094   19791  $$$524B,7
  19805  00003812  00000001 USING  ORDINARY    00000000 00001000 FFFFFFF7   7 000          @R7,7
  19850  0000383A  00000001 USING  ORDINARY    0000383A 00001000 00000001   7 03A   19902  $$$528B,7
  19916  0000385C  00000001 USING  ORDINARY    00000000 00001000 FFFFFFF7   7 000          @R7,7
  19981  000038C2  00000001 USING  ORDINARY    000038C2 00001000 00000001   7 458   20892  $$$532B,7
  20286  0000396A  00000001 USING  ORDINARY    00000000 00001000 FFFFFFEA   1 001   20320  DEV,R1
  20337  00003982  00000001 USING  ORDINARY    00000000 00001000 FFFFFFFD   1 00B   25100  @R1,1
  20922  00003AC8  00000001 USING  ORDINARY    00000000 00001000 FFFFFFF7   7 000          @R7,7
  20970  00003AF0  00000001 USING  ORDINARY    00003AF0 00001000 00000001   7 1C8   21004  $$$575B,7
  21013  00003B36  00000001 USING  ORDINARY    00000000 00001000 FFFFFFF7   7 000          @R7,7
  21065  00003B5E  00000001 USING  ORDINARY    00003B5E 00001000 00000001   7 1B9   21220  $$$580B,7
  21228  00003C34  00000001 USING  ORDINARY    00000000 00001000 FFFFFFF7   7 000          @R7,7
  21322  00003D3A  00000001 USING  ORDINARY    00003D3A 00001000 00000001   7 246   21478  $$$588B,7
  21363  00003D58  00000001 DROP                                            2              2
  21367  00003D5E  00000001 USING  ORDINARY    00000000 00001000 FFFFFFFC   2 000          @R2,2
  21488  00003DAA  00000001 USING  ORDINARY    00000000 00001000 FFFFFFF7   7 000          @R7,7
  21573  00003ED2  00000001 USING  ORDINARY    00003ED2 00001000 00000001   7 0BE   21853  $$$598B,7
  21867  00003F70  00000001 USING  ORDINARY    00000000 00001000 FFFFFFF7   7 000          @R7,7
  21944  00003FAE  00000001 USING  ORDINARY    00003FAE 00001000 00000001   7 DBE   21956  $$$616B,7
  21966  00003FBC  00000001 USING  ORDINARY    00000000 00001000 FFFFFFF7   7 000          @R7,7
  22012  00003FE4  00000001 USING  ORDINARY    00003FE4 00001000 00000001   7 D8C   22024  $$$619B,7
  22034  00003FF2  00000001 USING  ORDINARY    00000000 00001000 FFFFFFF7   7 000          @R7,7
  22080  0000401A  00000001 USING  ORDINARY    0000401A 00001000 00000001   7 D5A   22092  $$$622B,7
  22102  00004028  00000001 USING  ORDINARY    00000000 00001000 FFFFFFF7   7 000          @R7,7
  22850  00004782  00000001 USING  ORDINARY    00004782 00001000 00000001   7 66C   22903  $$$625B,7
  22932  000047AA  00000001 USING  ORDINARY    00000000 00001000 FFFFFFF7   7 000          @R7,7
  23000  000047D2  00000001 USING  ORDINARY    000047D2 00001000 00000001   7 622   23229  $$$632B,7
  23014  000047D2  00000001 USING  ORDINARY    FFFFFFD8 00001000 FFFFFFE7   8 000          HAVONWA-(4+36),R8
  23256  00004894  00000001 USING  ORDINARY    00000000 00001000 FFFFFFF6   8 000          @R8,8
  23261  00004894  00000001 USING  ORDINARY    00000000 00001000 FFFFFFF7   7 000          @R7,7
  23307  000048BC  00000001 USING  ORDINARY    000048BC 00001000 00000001   7 000          $$$645B,7
  23323  000048C0  00000001 USING  ORDINARY    00000000 00001000 FFFFFFF7   7 000          @R7,7
  23369  000048E8  00000001 USING  ORDINARY    000048E8 00001000 00000001   7 000          $$$648B,7
  23385  000048EC  00000001 USING  ORDINARY    00000000 00001000 FFFFFFF7   7 000          @R7,7
  23430  00004914  00000001 USING  ORDINARY    00004914 00001000 00000001   7 434   23439  $$$651B,7
  23447  00004920  00000001 USING  ORDINARY    00000000 00001000 FFFFFFF7   7 000          @R7,7
  23492  00004948  00000001 USING  ORDINARY    00004948 00001000 00000001   7 476   23501  $$$654B,7
  23508  0000494E  00000001 USING  ORDINARY    00000000 00001000 FFFFFFF7   7 000          @R7,7
  23554  00004976  00000001 USING  ORDINARY    00004976 00001000 00000001   7 484   23625  $$$657B,7
  23656  000049BC  00000001 USING  ORDINARY    00000000 00001000 FFFFFFF7   7 000          @R7,7
  23702  000049E4  00000001 USING  ORDINARY    000049E4 00001000 00000001   7 000          $$$665B,7
  23718  000049E8  00000001 USING  ORDINARY    00000000 00001000 FFFFFFF7   7 000          @R7,7
  23764  00004A10  00000001 USING  ORDINARY    00004A10 00001000 00000001   7 000          $$$668B,7
  23792  00004A1A  00000001 USING  ORDINARY    00000000 00001000 FFFFFFF7   7 000          @R7,7
  23838  00004A42  00000001 USING  ORDINARY    00004A42 00001000 00000001   7 000          $$$671B,7
  23867  00004A4C  00000001 USING  ORDINARY    00000000 00001000 FFFFFFF7   7 000          @R7,7
  23913  00004A74  00000001 USING  ORDINARY    00004A74 00001000 00000001   7 000          $$$674B,7
  23935  00004A7A  00000001 USING  ORDINARY    00000000 00001000 FFFFFFF7   7 000          @R7,7
  23981  00004AA2  00000001 USING  ORDINARY    00004AA2 00001000 00000001   7 000          $$$677B,7
1OPT      (OPT2025) (12:50) (15MAR04) Using Map                                                                             Page  124
  23998  00004AAA  00000001 USING  ORDINARY    00000000 00001000 FFFFFFF7   7 000          @R7,7
  24044  00004AD2  00000001 USING  ORDINARY    00004AD2 00001000 00000001   7 000          $$$680B,7
  24061  00004ADA  00000001 USING  ORDINARY    00000000 00001000 FFFFFFF7   7 000          @R7,7
  24107  00004B02  00000001 USING  ORDINARY    00004B02 00001000 00000001   7 000          $$$683B,7
  24128  00004B06  00000001 USING  ORDINARY    00000000 00001000 FFFFFFF7   7 000          @R7,7
  24174  00004B2E  00000001 USING  ORDINARY    00004B2E 00001000 00000001   7 000          $$$686B,7
  24196  00004B32  00000001 USING  ORDINARY    00000000 00001000 FFFFFFF7   7 000          @R7,7
  24242  00004B5A  00000001 USING  ORDINARY    00004B5A 00001000 00000001   7 000          $$$689B,7
  24267  00004B5E  00000001 USING  ORDINARY    00000000 00001000 FFFFFFF7   7 000          @R7,7
  24313  00004B86  00000001 USING  ORDINARY    00004B86 00001000 00000001   7 000          $$$692B,7
  24337  00004B8A  00000001 USING  ORDINARY    00000000 00001000 FFFFFFF7   7 000          @R7,7
  24383  00004BB2  00000001 USING  ORDINARY    00004BB2 00001000 00000001   7 000          $$$695B,7
  24404  00004BB6  00000001 USING  ORDINARY    00000000 00001000 FFFFFFF7   7 000          @R7,7
  24450  00004BDE  00000001 USING  ORDINARY    00004BDE 00001000 00000001   7 000          $$$698B,7
  24471  00004BE2  00000001 USING  ORDINARY    00000000 00001000 FFFFFFF7   7 000          @R7,7
  24517  00004C0A  00000001 USING  ORDINARY    00004C0A 00001000 00000001   7 000          $$$701B,7
  24541  00004C0E  00000001 USING  ORDINARY    00000000 00001000 FFFFFFF7   7 000          @R7,7
  24587  00004C36  00000001 USING  ORDINARY    00004C36 00001000 00000001   7 000          $$$704B,7
  24615  00004C3E  00000001 USING  ORDINARY    00000000 00001000 FFFFFFF7   7 000          @R7,7
  24661  00004C66  00000001 USING  ORDINARY    00004C66 00001000 00000001   7 000          $$$707B,7
  24689  00004C6E  00000001 USING  ORDINARY    00000000 00001000 FFFFFFF7   7 000          @R7,7
  24734  00004C96  00000001 USING  ORDINARY    00004C96 00001000 00000001   7 154   24762  $$$710B,7
  24786  00004CB0  00000001 USING  ORDINARY    00000000 00001000 FFFFFFF7   7 000          @R7,7
  24831  00004CD8  00000001 USING  ORDINARY    00004CD8 00001000 00000001   7 112   24859  $$$714B,7
  24882  00004CF2  00000001 USING  ORDINARY    00000000 00001000 FFFFFFF7   7 000          @R7,7
  24927  00004D1A  00000001 USING  ORDINARY    00004D1A 00001000 00000001   7 076   24953  $$$718B,7
  24975  00004D2E  00000001 USING  ORDINARY    00000000 00001000 FFFFFFF7   7 000          @R7,7
  25055  00004E1A  00000001 USING  ORDINARY    00004E1A 00001000 00000001   7 304   25274  $$$722B,7
  25283  00004F80  00000001 USING  ORDINARY    00000000 00001000 FFFFFFF7   7 000          @R7,7
  25328  00004FA8  00000001 USING  ORDINARY    00004FA8 00001000 00000001   7 178   25341  $$$728B,7
  25350  00004FB4  00000001 USING  ORDINARY    00000000 00001000 FFFFFFF7   7 000          @R7,7
  25395  00004FDC  00000001 USING  ORDINARY    00004FDC 00001000 00000001   7 190   25425  $$$731B,7
  25440  00004FF8  00000001 USING  ORDINARY    00000000 00001000 FFFFFFF7   7 000          @R7,7
  25485  00005020  00000001 USING  ORDINARY    00005020 00001000 00000001   7 0F0   25494  $$$735B,7
  25503  0000502C  00000001 USING  ORDINARY    00000000 00001000 FFFFFFF7   7 000          @R7,7
  25548  00005054  00000001 USING  ORDINARY    00005054 00001000 00000001   7 0C0   25557  $$$738B,7
  25565  0000505C  00000001 USING  ORDINARY    00000000 00001000 FFFFFFF7   7 000          @R7,7
  25610  00005084  00000001 USING  ORDINARY    00005084 00001000 00000001   7 0E8   25640  $$$741B,7
  25655  000050A0  00000001 USING  ORDINARY    00000000 00001000 FFFFFFF7   7 000          @R7,7
  25700  000050C8  00000001 USING  ORDINARY    000050C8 00001000 00000001   7 07E   25713  $$$745B,7
  25722  000050D4  00000001 USING  ORDINARY    00000000 00001000 FFFFFFF7   7 000          @R7,7

1         (OPT2025) (12:50) (15MAR04) General Purpose Register Cross Reference                                              Page  125
- Register  References (M=modified, B=branch, U=USING, D=DROP, N=index)                      HLASM R4.0  2004/03/15 12.50
0    0(0)      982U   983D  2379   2447M  2447   2448M  6607   6639M  6639   6648   6649   6684M  6724   6756M  6756
              6765   6766   6801M  6856   6888M  6888   6897   6898   6933M  6988   7020M  7020   7029   7030   7065M
              7121   7153M  7153   7162   7163   7198M  7273   7305   7320M  7342   7374   7389M  7411   7443   7458M
              7480   7512   7527M  7766   7798M  7820   7854   7866M  7903M  7923   7952M  7964   7993M  8007   8170M
              8193   8225M  8360M  8384   8535M  8562   8594M  8623M  8629   8665M  8689   8760M  8784M  8810   8847
              8969M  8994   9031   9092M  9113M  9166M  9187M  9259M  9287M  9303M  9331M  9347M  9357M  9383M  9406
              9449   9482M  9498   9527M  9588M  9638M  9660   9703   9736M  9752   9781M  9842M  9892M  9959   9991
             10006M 10028  10060  10075M 10097  10129  10144M 10166  10198  10213M 10235  10267  10282M 10304  10336
             10351M 10373  10405  10420M 10442  10474  10489M 10893  10941M 10962  11009M 11030  11072M 11093  11143M
             11164  11222M 11243  11302M 11323  11383M 11403  11482M 11503  11552M 11573  11624M 11645  11691M 11712
             11738  11753M 11774  11820M 11841  11888M 11913  11945  11960M 12033  12060M 12061  12096M 12147  12179
             12194M 12260  12309M 12342M 12376M 12376  12385  12386  12449M 12515  12558M 12578  12610  12628M 12653
             12764M 12764  12773  12774  12915M 13086  13120M 13120  13131M 13154  13175  13199M 13220  13290M 13311
             13381M 13402  13449M 13470  13518M 13539  13580M 13635  13667  13682M 13704  13736  13751M 13773  13805
             13820M 13926  13972M 13993  14039M 14064  14096  14111M 14133  14165  14180M 14202  14234  14249M 14459
             14506M 14527  14580M 14601  14654M 14675  14721M 14742  14789M 14906  14953M 14971M 15022M 15022  15031
             15032  15053M 15090M 15095M 15122  15158  15195  15207M 15223  15258  15277M 15345  15376M 15398M 15418
             15444  15462M 15513  15579M 15579  15588  15589  15629M 15650  15716M 15716  15725  15726  15766M 15893
             15960M 15980  16027M 16047  16094M 16115  16155M 16198  16246M 16292  16435M 16456M 16476M 16476  16477
             16503M 16503  16536M 16584M 16633  16668  16745  16791  16845M 16857M 16857  16884M 16899M 16899  16928M
             16954M 16969  16972M 16973M 16975M 16994  17002M 17004  17014M 17014  17023  17024  17116M 17128M 17128
             17240  17247  17250M 17350  17405M 17555M 17574M 17850M 17851M 17884M 17884  17915  17988M 18081M 18082M
             18115M 18115  18146  18219M 18338M 18357M 18416M 18520  18535M 18548M 18548  18555  18611M 18616  18619M
             18734M 18735  18784M 18785M 18790M 18835M 18836  18845M 18850M 18850  18858M 18858  18867  18868  18869
             18896M 18896  18908  19034M 19052M 19055M 19106M 19148  19163M 19168  19210M 19258M 19304M 19355M 19356
             19377M 19561  19602M 19623  19664M 19685  19726M 19746  19792M 19813M 19833  19903M 19924M 19964  20034M
             20052M 20257M 20416M 20434M 20665M 20681M 20703M 20781M 20818M 20830  20842M 20865M 20865  20870  20871
             20930M 20953  20996M 20997  21001  21021M 21048  21236M 21305  21371M 21371  21372M 21381M 21381  21433
             21496M 21556  21595M 21611  21631  21656  21875M 21927  21959  21974M 21995  22027  22042M 22063  22095
             22110M 22833  22865  22877M 22883  22940M 22982  23026M 23026  23035  23079M 23079  23118M 23127  23139M
             23145  23269M 23290  23331M 23352  23393M 23413  23455M 23475  23516M 23537  23563  23602M 23664M 23685
             23711  23726M 23747  23800M 23821  23875M 23896  23943M 23964  23990M 23991  24006M 24027  24053M 24054
             24069M 24090  24136M 24157  24204M 24225  24275M 24296  24345M 24366  24412M 24433  24479M 24500  24549M
             24570  24623M 24644  24697M 24717  24775  24794M 24814  24871  24890M 24910  24983M 25038  25071  25087
             25130M 25154  25165M 25165  25174  25175  25202M 25202  25211  25212  25239M 25239  25248  25249  25291M
             25311  25342M 25358M 25378  25415  25426M 25432  25448M 25468  25494M 25495  25511M 25531  25557M 25558
             25573M 25593  25630  25641M 25647  25663M 25683  25714M 25730M
     1(1)      978U  2379   2442M  2443M  2449M  6607   6635M  6648N  6649N  6651N  6684M  6724   6752M  6765N  6766N
              6768N  6801M  6856   6884M  6897N  6898N  6900N  6933M  6988   7016M  7029N  7030N  7032N  7065M  7121
              7149M  7162N  7163N  7165N  7198M  7273   7299M  7320M  7342   7368M  7389M  7411   7437M  7458M  7480
              7506M  7527M  7766   7797M  7805M  7806M  7806N  7902M  7910M  7911M  7911N  7951M  7992M  8054M  8055M
              8055N  8170M  8193   8224M  8232M  8233M  8233N  8360M  8384   8412M  8413M  8413N  8535M  8562   8593M
              8622M  8629   8665M  8689   8759M  8784M  8810   8969M  8994   9042   9085M  9106M  9159M  9180M  9258M
              9286M  9302M  9330M  9346M  9356M  9383M  9406   9434M  9435M  9435N  9477M  9526M  9587M  9638M  9660
              9688M  9689M  9689N  9731M  9780M  9841M  9892M  9959   9985M 10006M 10028  10054M 10075M 10097  10123M
             10144M 10166  10192M 10213M 10235  10261M 10282M 10304  10330M 10351M 10373  10399M 10420M 10442  10468M
             10489M 10893  10941M 10962  11009M 11030  11072M 11093  11143M 11164  11222M 11243  11302M 11323  11383M
             11403  11482M 11503  11552M 11573  11624M 11645  11691M 11712  11753M 11774  11820M 11841  11888M 11913
             11939M 11960M 12033  12070M 12070  12076M 12081  12096M 12147  12173M 12194M 12260  12308M 12341M 12372M
             12385N 12386N 12388N 12449M 12515  12558M 12578  12611  12628M 12653  12760M 12773N 12774N 12776N 12915M
             13086  13130M 13199M 13220  13290M 13311  13381M 13402  13449M 13470  13518M 13539  13580M 13635  13661M
             13682M 13704  13730M 13751M 13773  13799M 13820M 13926  13972M 13993  14039M 14064  14090M 14111M 14133
             14159M 14180M 14202  14228M 14249M 14459  14506M 14527  14580M 14601  14654M 14675  14721M 14742  14789M
             14906  14952M 14970M 15018M 15031N 15032N 15034N 15089M 15095  15122  15128M 15128N 15158  15164M 15164N
             15195  15201M 15201N 15207  15222  15277M 15345  15375M 15398M 15418  15462M 15513  15575M 15588N 15589N
1         (OPT2025) (12:50) (15MAR04) General Purpose Register Cross Reference                                              Page  126
             15591N 15629M 15650  15712M 15725N 15726N 15728N 15766M 15893  15960M 15980  16027M 16047  16094M 16115
             16155M 16198  16246M 16292  16434M 16455M 16472M 16477N 16535M 16583M 16631M 16633  16790  16843M 16882M
             16927M 16949M 16969  16972  16986M 16993  17002M 17010M 17023N 17024N 17026N 17115M 17185  17240  17246
             17250M 17403M 17554M 17573M 17796M 17851  17987M 18027M 18082  18218M 18333M 18356M 18415M 18520  18530M
             18606M 18619M 18835M 18836M 18844M 18854M 18867N 18868N 18869N 18906  18907  19029M 19051M 19084M 19105M
             19148  19158M 19210M 19257M 19303M 19377M 19561  19602M 19623  19664M 19685  19726M 19746  19791M 19813M
             19833  19902M 19924M 19964  20033M 20051M 20252M 20286U 20337U 20411M 20433M 20661M 20680M 20702M 20777M
             20817M 20930M 20953  21021M 21048  21236M 21305  21496M 21556  21590M 21845M 21875M 21927  21953M 21974M
             21995  22021M 22042M 22063  22089M 22110M 22833  22940M 22982  23022M 23035N 23117M 23269M 23290  23331M
             23352  23393M 23413  23455M 23475  23516M 23537  23601M 23664M 23685  23726M 23747  23800M 23821  23875M
             23896  23943M 23964  24006M 24027  24069M 24090  24136M 24157  24204M 24225  24275M 24296  24345M 24366
             24412M 24433  24479M 24500  24549M 24570  24623M 24644  24697M 24717  24794M 24814  24890M 24910  24983M
             25038  25070  25129M 25153  25161M 25174N 25175N 25177N 25198M 25211N 25212N 25214N 25235M 25248N 25249N
             25251N 25291M 25311  25341M 25358M 25378  25425M 25448M 25468  25511M 25531  25573M 25593  25640M 25663M
             25683  25713M 25730M
     2(2)      974U  2379   6607   6684M  6724   6801M  6856   6933M  6988   7065M  7121   7198M  7273   7320M  7342
              7389M  7411   7458M  7480   7527M  7766   7983M  7995M  8170M  8193   8360M  8384   8535M  8562   8665M
              8689   8784M  8810   8969M  8994   9277M  9289M  9321M  9333M  9359M  9383M  9406   9517M  9529M  9578M
              9590M  9638M  9660   9771M  9783M  9832M  9844M  9892M  9959  10006M 10028  10075M 10097  10144M 10166
             10213M 10235  10282M 10304  10351M 10373  10420M 10442  10489M 10893  10941M 10962  11009M 11030  11072M
             11093  11143M 11164  11222M 11243  11302M 11323  11383M 11403  11482M 11503  11552M 11573  11624M 11645
             11691M 11712  11753M 11774  11820M 11841  11888M 11913  11960M 12033  12096M 12147  12194M 12260  12311M
             12344M 12449M 12515  12558M 12578  12628M 12653  12915M 13086  13133M 13199M 13220  13290M 13311  13381M
             13402  13449M 13470  13518M 13539  13580M 13635  13682M 13704  13751M 13773  13820M 13926  13972M 13993
             14039M 14064  14111M 14133  14180M 14202  14249M 14459  14506M 14527  14580M 14601  14654M 14675  14721M
             14742  14789M 14906  15002M 15054  15277M 15345  15378M 15398M 15418  15462M 15513  15629M 15650  15766M
             15893  15960M 15980  16027M 16047  16094M 16115  16155M 16198  16246M 16292  16437  16439M 16446M 16458
             16460M 16467M 18243M 18244M 18264  18338  18438M 18447M 18447  18455  18467M 18476M 18485M 18485  18492
             18555M 18559M 18568M 18568  18575  18616M 18650  18730M 18745M 18745  18754  18759M 18761  18776N 18786M
             18789M 18792M 18794  18800M 18802  18817M 18818  18819  18915M 18916M 18966M 18966N 18967  18970M 18972
             18999  19034  19056  19113M 19115  19148  19168M 19173M 19182M 19182  19189  19210M 19377M 19561  19602M
             19623  19664M 19685  19726M 19746  19813M 19833  19924M 19964  20620M 20693  20930M 20953  21000M 21001
             21021M 21048  21236M 21305  21363D 21365M 21365  21366M 21367U 21372N 21496M 21556  21875M 21927  21974M
             21995  22042M 22063  22110M 22833  22940M 22982  23269M 23290  23331M 23352  23393M 23413  23455M 23475
             23516M 23537  23664M 23685  23726M 23747  23800M 23821  23875M 23896  23943M 23964  24006M 24027  24069M
             24090  24136M 24157  24204M 24225  24275M 24296  24345M 24366  24412M 24433  24479M 24500  24549M 24570
             24623M 24644  24697M 24717  24794M 24814  24890M 24910  24983M 25038  25291M 25311  25358M 25378  25448M
             25468  25511M 25531  25573M 25593  25663M 25683  25730M
     3(3)      970U  2379   6607   6684M  6724   6801M  6856   6933M  6988   7065M  7121   7198M  7273   7320M  7342
              7389M  7411   7458M  7480   7527M  7766   8170M  8193   8360M  8384   8535M  8562   8665M  8689   8784M
              8810   8969M  8994   9383M  9406   9638M  9660   9892M  9959  10006M 10028  10075M 10097  10144M 10166
             10213M 10235  10282M 10304  10351M 10373  10420M 10442  10489M 10893  10941M 10962  11009M 11030  11072M
             11093  11143M 11164  11222M 11243  11302M 11323  11383M 11403  11482M 11503  11552M 11573  11624M 11645
             11691M 11712  11753M 11774  11820M 11841  11888M 11913  11960M 12033  12096M 12147  12194M 12260  12449M
             12515  12558M 12578  12628M 12653  12915M 13086  13199M 13220  13290M 13311  13381M 13402  13449M 13470
             13518M 13539  13580M 13635  13682M 13704  13751M 13773  13820M 13926  13972M 13993  14039M 14064  14111M
             14133  14180M 14202  14249M 14459  14506M 14527  14580M 14601  14654M 14675  14721M 14742  14789M 14906
             15053  15277M 15345  15398M 15418  15444M 15446  15462M 15513  15629M 15650  15766M 15893  15960M 15980
             16027M 16047  16094M 16115  16155M 16198  16246M 16292  16668M 16671  16683M 16688  16693M 16702M 16702
             16709  16791M 16824M 16824  16954  17004M 17006M 17116  17350M 17352M 17362M 17362  17419M 17737  17810
             18041  18243  18779  18784  18826  18907M 18908M 18912M 18915  19377M 19561  19602M 19623  19664M 19685
             19726M 19746  19813M 19833  19924M 19964  20930M 20953  21021M 21048  21236M 21305  21344M 21408M 21433
             21465M 21496M 21556  21875M 21927  21974M 21995  22042M 22063  22110M 22833  22940M 22982  23269M 23290
             23331M 23352  23393M 23413  23455M 23475  23516M 23537  23664M 23685  23726M 23747  23800M 23821  23875M
             23896  23943M 23964  24006M 24027  24069M 24090  24136M 24157  24204M 24225  24275M 24296  24345M 24366
             24412M 24433  24479M 24500  24549M 24570  24623M 24644  24697M 24717  24794M 24814  24890M 24910  24983M
             25038  25070M 25071M 25073M 25291M 25311  25358M 25378  25448M 25468  25511M 25531  25573M 25593  25663M
             25683  25730M
     4(4)      966U  2379   6607   6684M  6724   6801M  6856   6933M  6988   7065M  7121   7198M  7273   7320M  7342
1         (OPT2025) (12:50) (15MAR04) General Purpose Register Cross Reference                                              Page  127
              7389M  7411   7458M  7480   7527M  7766   8007M  8011M  8020M  8020   8027   8170M  8193   8360M  8384
              8535M  8562   8665M  8689   8784M  8810   8969M  8994   9383M  9406   9638M  9660   9892M  9959  10006M
             10028  10075M 10097  10144M 10166  10213M 10235  10282M 10304  10351M 10373  10420M 10442  10489M 10893
             10941M 10962  11009M 11030  11072M 11093  11143M 11164  11222M 11243  11302M 11323  11383M 11403  11482M
             11503  11552M 11573  11624M 11645  11691M 11712  11753M 11774  11820M 11841  11888M 11913  11960M 12033
             12096M 12147  12194M 12260  12449M 12515  12558M 12578  12628M 12653  12915M 13086  13199M 13220  13290M
             13311  13381M 13402  13449M 13470  13518M 13539  13580M 13635  13682M 13704  13751M 13773  13820M 13926
             13972M 13993  14039M 14064  14111M 14133  14180M 14202  14249M 14459  14506M 14527  14580M 14601  14654M
             14675  14721M 14742  14789M 14906  15277M 15345  15398M 15418  15462M 15513  15629M 15650  15766M 15893
             15960M 15980  16027M 16047  16094M 16115  16155M 16198  16246M 16292  16790M 16949  16973  17003M 17115
             17186  17246M 17349M 17419  17421  17643M 17668M 17668N 17737  17795M 17796  17810  17844M 17850  17870M
             18026M 18027  18041  18075M 18081  18101M 18244  18247  18333  18620M 18620N 18779  18781  18785  18786
             18792  18797  18818M 18826  18828  18906M 18909  18914M 18914N 18916  18965M 19029  19377M 19561  19602M
             19623  19664M 19685  19726M 19746  19813M 19833  19924M 19964  20930M 20953  21021M 21048  21236M 21305
             21343M 21398  21407M 21447M 21456M 21456  21496M 21556  21875M 21927  21974M 21995  22042M 22063  22110M
             22833  22940M 22982  23269M 23290  23331M 23352  23393M 23413  23455M 23475  23516M 23537  23664M 23685
             23726M 23747  23800M 23821  23875M 23896  23943M 23964  24006M 24027  24069M 24090  24136M 24157  24204M
             24225  24275M 24296  24345M 24366  24412M 24433  24479M 24500  24549M 24570  24623M 24644  24697M 24717
             24794M 24814  24890M 24910  24983M 25038  25291M 25311  25358M 25378  25448M 25468  25511M 25531  25573M
             25593  25663M 25683  25730M
     5(5)      962U  2379   6607   6684M  6724   6801M  6856   6933M  6988   7065M  7121   7198M  7273   7320M  7342
              7389M  7411   7458M  7480   7527M  7766   8170M  8193   8360M  8384   8535M  8562   8665M  8689   8784M
              8810   8969M  8994   9383M  9406   9638M  9660   9892M  9959  10006M 10028  10075M 10097  10144M 10166
             10213M 10235  10282M 10304  10351M 10373  10420M 10442  10489M 10893  10941M 10962  11009M 11030  11072M
             11093  11143M 11164  11222M 11243  11302M 11323  11383M 11403  11482M 11503  11552M 11573  11624M 11645
             11691M 11712  11753M 11774  11820M 11841  11888M 11913  11960M 12033  12096M 12147  12194M 12260  12449M
             12515  12558M 12578  12628M 12653  12915M 13086  13199M 13220  13290M 13311  13381M 13402  13449M 13470
             13518M 13539  13580M 13635  13682M 13704  13751M 13773  13820M 13926  13972M 13993  14039M 14064  14111M
             14133  14180M 14202  14249M 14459  14506M 14527  14580M 14601  14654M 14675  14721M 14742  14789M 14906
             15277M 15345  15398M 15418  15462M 15513  15629M 15650  15766M 15893  15960M 15980  16027M 16047  16094M
             16115  16155M 16198  16246M 16292  16407M 17676  17677  17678  17679  17680  17716  17717  18242M 18731M
             18735  18768  18776M 18776  18809  18819M 18822  18823M 18963  19057M 19084  19377M 19561  19602M 19623
             19664M 19685  19726M 19746  19813M 19833  19924M 19964  20930M 20953  21021M 21048  21236M 21305  21339M
             21340M 21340  21355M 21355  21472M 21496M 21556  21875M 21927  21974M 21995  22042M 22063  22110M 22833
             22940M 22982  23269M 23290  23331M 23352  23393M 23413  23455M 23475  23516M 23537  23664M 23685  23726M
             23747  23800M 23821  23875M 23896  23943M 23964  24006M 24027  24069M 24090  24136M 24157  24204M 24225
             24275M 24296  24345M 24366  24412M 24433  24479M 24500  24549M 24570  24623M 24644  24697M 24717  24794M
             24814  24890M 24910  24983M 25038  25291M 25311  25358M 25378  25448M 25468  25511M 25531  25573M 25593
             25663M 25683  25730M
     6(6)      958U  2379   6607   6684M  6724   6801M  6856   6933M  6988   7065M  7121   7198M  7273   7320M  7342
              7389M  7411   7458M  7480   7527M  7766   8170M  8193   8360M  8384   8535M  8562   8665M  8689   8784M
              8810   8969M  8994   9042M  9085   9159   9383M  9406   9638M  9660   9892M  9959  10006M 10028  10075M
             10097  10144M 10166  10213M 10235  10282M 10304  10351M 10373  10420M 10442  10489M 10893  10941M 10962
             11009M 11030  11072M 11093  11143M 11164  11222M 11243  11302M 11323  11383M 11403  11482M 11503  11552M
             11573  11624M 11645  11691M 11712  11753M 11774  11820M 11841  11888M 11913  11960M 12033  12096M 12147
             12194M 12260  12449M 12515  12558M 12578  12628M 12653  12915M 13086  13199M 13220  13290M 13311  13381M
             13402  13449M 13470  13518M 13539  13580M 13635  13682M 13704  13751M 13773  13820M 13926  13972M 13993
             14039M 14064  14111M 14133  14180M 14202  14249M 14459  14506M 14527  14580M 14601  14654M 14675  14721M
             14742  14789M 14906  15277M 15345  15398M 15418  15462M 15513  15629M 15650  15766M 15893  15960M 15980
             16027M 16047  16094M 16115  16155M 16198  16246M 16292  16406M 16406  17722M 18242  18731  18732M 18732
             18735N 18736M 18754M 18755  18794M 18795  18823  18964  18967M 19055  19056M 19057  19279M 19279  19314
             19322  19352M 19352  19355  19377M 19561  19602M 19623  19664M 19685  19726M 19746  19813M 19833  19924M
             19964  20930M 20953  21021M 21048  21236M 21305  21336M 21470M 21496M 21556  21875M 21927  21974M 21995
             22042M 22063  22110M 22833  22940M 22982  23269M 23290  23331M 23352  23393M 23413  23455M 23475  23516M
             23537  23664M 23685  23726M 23747  23800M 23821  23875M 23896  23943M 23964  24006M 24027  24069M 24090
             24136M 24157  24204M 24225  24275M 24296  24345M 24366  24412M 24433  24479M 24500  24549M 24570  24623M
             24644  24697M 24717  24794M 24814  24890M 24910  24983M 25038  25291M 25311  25358M 25378  25448M 25468
             25511M 25531  25573M 25593  25663M 25683  25730M
     7(7)      954U  2372M  2372   2373B  2379   2385B  6607   6612M  6624U  6676U  6684M  6724   6729M  6741U  6793U
1         (OPT2025) (12:50) (15MAR04) General Purpose Register Cross Reference                                              Page  128
              6801M  6856   6861M  6873U  6925U  6933M  6988   6993M  7005U  7057U  7065M  7121   7126M  7138U  7190U
              7198M  7273   7278M  7290U  7312U  7320M  7342   7347M  7359U  7381U  7389M  7411   7416M  7428U  7450U
              7458M  7480   7485M  7497U  7519U  7527M  7766   7771M  7783U  8162U  8170M  8193   8198M  8210U  8352U
              8360M  8384   8389M  8401U  8527U  8535M  8562   8567M  8579U  8657U  8665M  8689   8694M  8706U  8776U
              8784M  8810   8815M  8827U  8961U  8969M  8994   8999M  9011U  9375U  9383M  9406   9411M  9423U  9630U
              9638M  9660   9665M  9677U  9884U  9892M  9959   9964M  9976U  9998U 10006M 10028  10033M 10045U 10067U
             10075M 10097  10102M 10114U 10136U 10144M 10166  10171M 10183U 10205U 10213M 10235  10240M 10252U 10274U
             10282M 10304  10309M 10321U 10343U 10351M 10373  10378M 10390U 10412U 10420M 10442  10447M 10459U 10481U
             10489M 10893  10898M 10910U 10933U 10941M 10962  10967M 10979U 11001U 11009M 11030  11035M 11047U 11064U
             11072M 11093  11098M 11110U 11135U 11143M 11164  11169M 11181U 11214U 11222M 11243  11248M 11260U 11294U
             11302M 11323  11328M 11340U 11375U 11383M 11403  11408M 11420U 11474U 11482M 11503  11508M 11520U 11544U
             11552M 11573  11578M 11590U 11616U 11624M 11645  11650M 11662U 11683U 11691M 11712  11717M 11729U 11745U
             11753M 11774  11779M 11791U 11812U 11820M 11841  11846M 11858U 11880U 11888M 11913  11918M 11930U 11952U
             11960M 12033  12038M 12050U 12088U 12096M 12147  12152M 12164U 12186U 12194M 12260  12265M 12277U 12441U
             12449M 12515  12520M 12532U 12550U 12558M 12578  12583M 12595U 12620U 12628M 12653  12658M 12670U 12907U
             12915M 13086  13091M 13103U 13191U 13199M 13220  13225M 13237U 13282U 13290M 13311  13316M 13328U 13373U
             13381M 13402  13407M 13419U 13441U 13449M 13470  13475M 13487U 13510U 13518M 13539  13544M 13556U 13572U
             13580M 13635  13640M 13652U 13674U 13682M 13704  13709M 13721U 13743U 13751M 13773  13778M 13790U 13812U
             13820M 13926  13931M 13943U 13964U 13972M 13993  13998M 14010U 14031U 14039M 14064  14069M 14081U 14103U
             14111M 14133  14138M 14150U 14172U 14180M 14202  14207M 14219U 14241U 14249M 14459  14464M 14476U 14498U
             14506M 14527  14532M 14544U 14572U 14580M 14601  14606M 14618U 14646U 14654M 14675  14680M 14692U 14713U
             14721M 14742  14747M 14759U 14781U 14789M 14906  14911M 14923U 15269U 15277M 15345  15350M 15362U 15390U
             15398M 15418  15423M 15435U 15454U 15462M 15513  15518M 15530U 15621U 15629M 15650  15655M 15667U 15758U
             15766M 15893  15898M 15910U 15952U 15960M 15980  15985M 15997U 16019U 16027M 16047  16052M 16064U 16086U
             16094M 16115  16120M 16132U 16147U 16155M 16198  16203M 16215U 16238U 16246M 16292  16298M 16310U 19369U
             19377M 19561  19566M 19578U 19594U 19602M 19623  19628M 19640U 19656U 19664M 19685  19690M 19702U 19718U
             19726M 19746  19751M 19763U 19805U 19813M 19833  19838M 19850U 19916U 19924M 19964  19969M 19981U 20922U
             20930M 20953  20958M 20970U 21013U 21021M 21048  21053M 21065U 21228U 21236M 21305  21310M 21322U 21488U
             21496M 21556  21561M 21573U 21867U 21875M 21927  21932M 21944U 21966U 21974M 21995  22000M 22012U 22034U
             22042M 22063  22068M 22080U 22102U 22110M 22833  22838M 22850U 22932U 22940M 22982  22988M 23000U 23261U
             23269M 23290  23295M 23307U 23323U 23331M 23352  23357M 23369U 23385U 23393M 23413  23418M 23430U 23447U
             23455M 23475  23480M 23492U 23508U 23516M 23537  23542M 23554U 23656U 23664M 23685  23690M 23702U 23718U
             23726M 23747  23752M 23764U 23792U 23800M 23821  23826M 23838U 23867U 23875M 23896  23901M 23913U 23935U
             23943M 23964  23969M 23981U 23998U 24006M 24027  24032M 24044U 24061U 24069M 24090  24095M 24107U 24128U
             24136M 24157  24162M 24174U 24196U 24204M 24225  24230M 24242U 24267U 24275M 24296  24301M 24313U 24337U
             24345M 24366  24371M 24383U 24404U 24412M 24433  24438M 24450U 24471U 24479M 24500  24505M 24517U 24541U
             24549M 24570  24575M 24587U 24615U 24623M 24644  24649M 24661U 24689U 24697M 24717  24722M 24734U 24786U
             24794M 24814  24819M 24831U 24882U 24890M 24910  24915M 24927U 24975U 24983M 25038  25043M 25055U 25283U
             25291M 25311  25316M 25328U 25350U 25358M 25378  25383M 25395U 25440U 25448M 25468  25473M 25485U 25503U
             25511M 25531  25536M 25548U 25565U 25573M 25593  25598M 25610U 25655U 25663M 25683  25688M 25700U 25722U
             25730M
     8(8)      950U  2379   6607   6608M  6680   6684M  6724   6725M  6797   6801M  6856   6857M  6929   6933M  6988
              6989M  7061   7065M  7121   7122M  7194   7198M  7273   7274M  7305N  7316   7320M  7342   7343M  7374N
              7385   7389M  7411   7412M  7443N  7454   7458M  7480   7481M  7512N  7523   7527M  7766   7767M  8166
              8170M  8193   8194M  8356   8360M  8384   8385M  8531   8535M  8562   8563M  8629   8661   8665M  8689
              8690M  8780   8784M  8810   8811M  8965   8969M  8994   8995M  9379   9383M  9406   9407M  9634   9638M
              9660   9661M  9888   9892M  9959   9960M  9991N 10002  10006M 10028  10029M 10060N 10071  10075M 10097
             10098M 10129N 10140  10144M 10166  10167M 10198N 10209  10213M 10235  10236M 10267N 10278  10282M 10304
             10305M 10336N 10347  10351M 10373  10374M 10405N 10416  10420M 10442  10443M 10474N 10485  10489M 10893
             10894M 10937  10941M 10962  10963M 11005  11009M 11030  11031M 11068  11072M 11093  11094M 11139  11143M
             11164  11165M 11218  11222M 11243  11244M 11298  11302M 11323  11324M 11379  11383M 11403  11404M 11478
             11482M 11503  11504M 11548  11552M 11573  11574M 11620  11624M 11645  11646M 11687  11691M 11712  11713M
             11749  11753M 11774  11775M 11816  11820M 11841  11842M 11884  11888M 11913  11914M 11945N 11956  11960M
             12033  12034M 12092  12096M 12147  12148M 12179N 12190  12194M 12260  12261M 12445  12449M 12515  12516M
             12554  12558M 12578  12579M 12624  12628M 12653  12654M 12911  12915M 13086  13087M 13195  13199M 13220
             13221M 13286  13290M 13311  13312M 13377  13381M 13402  13403M 13445  13449M 13470  13471M 13514  13518M
             13539  13540M 13576  13580M 13635  13636M 13667N 13678  13682M 13704  13705M 13736N 13747  13751M 13773
             13774M 13805N 13816  13820M 13926  13927M 13968  13972M 13993  13994M 14035  14039M 14064  14065M 14096N
             14107  14111M 14133  14134M 14165N 14176  14180M 14202  14203M 14234N 14245  14249M 14459  14460M 14502
1         (OPT2025) (12:50) (15MAR04) General Purpose Register Cross Reference                                              Page  129
             14506M 14527  14528M 14576  14580M 14601  14602M 14650  14654M 14675  14676M 14717  14721M 14742  14743M
             14785  14789M 14906  14907M 15258N 15273  15277M 15345  15346M 15394  15398M 15418  15419M 15446N 15458
             15462M 15513  15514M 15625  15629M 15650  15651M 15762  15766M 15893  15894M 15956  15960M 15980  15981M
             16023  16027M 16047  16048M 16090  16094M 16115  16116M 16151  16155M 16198  16199M 16242  16246M 16292
             16294M 16324U 19364U 19373  19377M 19561  19562M 19598  19602M 19623  19624M 19660  19664M 19685  19686M
             19722  19726M 19746  19747M 19809  19813M 19833  19834M 19920  19924M 19964  19965M 20926  20930M 20953
             20954M 21017  21021M 21048  21049M 21232  21236M 21305  21306M 21492  21496M 21556  21557M 21871  21875M
             21927  21928M 21959N 21970  21974M 21995  21996M 22027N 22038  22042M 22063  22064M 22095N 22106  22110M
             22833  22834M 22936  22940M 22982  22984M 23014U 23256U 23265  23269M 23290  23291M 23327  23331M 23352
             23353M 23389  23393M 23413  23414M 23451  23455M 23475  23476M 23512  23516M 23537  23538M 23660  23664M
             23685  23686M 23722  23726M 23747  23748M 23796  23800M 23821  23822M 23871  23875M 23896  23897M 23939
             23943M 23964  23965M 24002  24006M 24027  24028M 24065  24069M 24090  24091M 24132  24136M 24157  24158M
             24200  24204M 24225  24226M 24271  24275M 24296  24297M 24341  24345M 24366  24367M 24408  24412M 24433
             24434M 24475  24479M 24500  24501M 24545  24549M 24570  24571M 24619  24623M 24644  24645M 24693  24697M
             24717  24718M 24790  24794M 24814  24815M 24886  24890M 24910  24911M 24979  24983M 25038  25039M 25287
             25291M 25311  25312M 25354  25358M 25378  25379M 25444  25448M 25468  25469M 25507  25511M 25531  25532M
             25569  25573M 25593  25594M 25659  25663M 25683  25684M 25726  25730M
     9(9)      946U  2379
    10(A)      942U  2379
    11(B)      938U  1443U  2379
    12(C)      934U  1452U  2379
    13(D)      930U  2379   6604   6607   6608   6609M  6609   6643   6644   6645   6647M  6647   6660M  6661   6662
              6663   6680M  6684   6686   6721   6724   6725   6726M  6726   6760   6761   6762   6764M  6764   6777M
              6778   6779   6780   6797M  6801   6803   6853   6856   6857   6858M  6858   6892   6893   6894   6896M
              6896   6909M  6910   6911   6912   6929M  6933   6935   6985   6988   6989   6990M  6990   7024   7025
              7026   7028M  7028   7041M  7042   7043   7044   7061M  7065   7067   7118   7121   7122   7123M  7123
              7157   7158   7159   7161M  7161   7174M  7175   7176   7177   7194M  7198   7200   7270   7273   7274
              7275M  7275   7316M  7320   7322   7339   7342   7343   7344M  7344   7385M  7389   7391   7408   7411
              7412   7413M  7413   7454M  7458   7460   7477   7480   7481   7482M  7482   7523M  7527   7529   7763
              7766   7767   7768M  7768   8166M  8170   8172   8190   8193   8194   8195M  8195   8356M  8360   8362
              8381   8384   8385   8386M  8386   8531M  8535   8537   8559   8562   8563   8564M  8564   8661M  8665
              8667   8686   8689   8690   8691M  8691   8780M  8784   8786   8807   8810   8811   8812M  8812   8965M
              8969   8971   8991   8994   8995   8996M  8996   9379M  9383   9385   9403   9406   9407   9408M  9408
              9634M  9638   9640   9657   9660   9661   9662M  9662   9888M  9892   9894   9956   9959   9960   9961M
              9961  10002M 10006  10008  10025  10028  10029  10030M 10030  10071M 10075  10077  10094  10097  10098
             10099M 10099  10140M 10144  10146  10163  10166  10167  10168M 10168  10209M 10213  10215  10232  10235
             10236  10237M 10237  10278M 10282  10284  10301  10304  10305  10306M 10306  10347M 10351  10353  10370
             10373  10374  10375M 10375  10416M 10420  10422  10439  10442  10443  10444M 10444  10485M 10489  10491
             10890  10893  10894  10895M 10895  10937M 10941  10943  10959  10962  10963  10964M 10964  11005M 11009
             11011  11027  11030  11031  11032M 11032  11068M 11072  11074  11090  11093  11094  11095M 11095  11139M
             11143  11145  11161  11164  11165  11166M 11166  11218M 11222  11224  11240  11243  11244  11245M 11245
             11298M 11302  11304  11320  11323  11324  11325M 11325  11379M 11383  11385  11400  11403  11404  11405M
             11405  11478M 11482  11484  11500  11503  11504  11505M 11505  11548M 11552  11554  11570  11573  11574
             11575M 11575  11620M 11624  11626  11642  11645  11646  11647M 11647  11687M 11691  11693  11709  11712
             11713  11714M 11714  11749M 11753  11755  11771  11774  11775  11776M 11776  11816M 11820  11822  11838
             11841  11842  11843M 11843  11884M 11888  11890  11910  11913  11914  11915M 11915  11956M 11960  11962
             12030  12033  12034  12035M 12035  12092M 12096  12098  12144  12147  12148  12149M 12149  12190M 12194
             12196  12257  12260  12261  12262M 12262  12367  12369M 12369  12380  12381  12382  12384M 12384  12397M
             12398  12399  12400  12423M 12445M 12449  12451  12512  12515  12516  12517M 12517  12554M 12558  12560
             12575  12578  12579  12580M 12580  12624M 12628  12630  12650  12653  12654  12655M 12655  12698  12700M
             12700  12768  12769  12770  12772M 12772  12785M 12786  12787  12788  12872M 12911M 12915  12917  13083
             13086  13087  13088M 13088  13195M 13199  13201  13217  13220  13221  13222M 13222  13262  13264M 13264
             13273M 13286M 13290  13292  13308  13311  13312  13313M 13313  13353  13355M 13355  13364M 13377M 13381
             13383  13399  13402  13403  13404M 13404  13445M 13449  13451  13467  13470  13471  13472M 13472  13514M
             13518  13520  13536  13539  13540  13541M 13541  13576M 13580  13582  13632  13635  13636  13637M 13637
             13678M 13682  13684  13701  13704  13705  13706M 13706  13747M 13751  13753  13770  13773  13774  13775M
             13775  13816M 13820  13822  13923  13926  13927  13928M 13928  13968M 13972  13974  13990  13993  13994
             13995M 13995  14035M 14039  14041  14061  14064  14065  14066M 14066  14107M 14111  14113  14130  14133
             14134  14135M 14135  14176M 14180  14182  14199  14202  14203  14204M 14204  14245M 14249  14251  14456
1         (OPT2025) (12:50) (15MAR04) General Purpose Register Cross Reference                                              Page  130
             14459  14460  14461M 14461  14502M 14506  14508  14524  14527  14528  14529M 14529  14576M 14580  14582
             14598  14601  14602  14603M 14603  14650M 14654  14656  14672  14675  14676  14677M 14677  14717M 14721
             14723  14739  14742  14743  14744M 14744  14785M 14789  14791  14903  14906  14907  14908M 14908  15026
             15027  15028  15030M 15030  15043M 15044  15045  15046  15273M 15277  15279  15342  15345  15346  15347M
             15347  15394M 15398  15400  15415  15418  15419  15420M 15420  15458M 15462  15464  15510  15513  15514
             15515M 15515  15570  15572M 15572  15583  15584  15585  15587M 15587  15600M 15601  15602  15603  15609M
             15625M 15629  15631  15647  15650  15651  15652M 15652  15707  15709M 15709  15720  15721  15722  15724M
             15724  15737M 15738  15739  15740  15746M 15762M 15766  15768  15890  15893  15894  15895M 15895  15956M
             15960  15962  15977  15980  15981  15982M 15982  16023M 16027  16029  16044  16047  16048  16049M 16049
             16090M 16094  16096  16112  16115  16116  16117M 16117  16151M 16155  16157  16195  16198  16199  16200M
             16200  16242M 16246  16248  16289  16292  16294  16295M 16295  16421  16422  16423  16425M 16425  16437
             16438M 16438  16445M 16446  16458  16459M 16459  16466M 16467  16491M 16492  16493  16494  16964  16966M
             16966  16969  16970M 16970  17001M 17002  17018  17019  17020  17022M 17022  17035M 17036  17037  17038
             17105M 17240  17241M 17241  17249M 17250  18520  18521M 18521  18618M 18619  18862  18863  18864  18866M
             18866  18878M 18879  18880  18881  19148  19149M 19149  19209M 19210  19373M 19377  19379  19558  19561
             19562  19563M 19563  19598M 19602  19604  19620  19623  19624  19625M 19625  19660M 19664  19666  19682
             19685  19686  19687M 19687  19722M 19726  19728  19743  19746  19747  19748M 19748  19809M 19813  19815
             19830  19833  19834  19835M 19835  19920M 19924  19926  19961  19964  19965  19966M 19966  20926M 20930
             20932  20950  20953  20954  20955M 20955  21017M 21021  21023  21045  21048  21049  21050M 21050  21075
             21076M 21076  21220M 21221  21232M 21236  21238  21302  21305  21306  21307M 21307  21492M 21496  21498
             21553  21556  21557  21558M 21558  21871M 21875  21877  21924  21927  21928  21929M 21929  21970M 21974
             21976  21992  21995  21996  21997M 21997  22038M 22042  22044  22060  22063  22064  22065M 22065  22106M
             22110  22112  22830  22833  22834  22835M 22835  22936M 22940  22942  22979  22982  22984  22985M 22985
             23030  23031  23032  23034M 23034  23044M 23045  23046  23047  23265M 23269  23271  23287  23290  23291
             23292M 23292  23327M 23331  23333  23349  23352  23353  23354M 23354  23389M 23393  23395  23410  23413
             23414  23415M 23415  23451M 23455  23457  23472  23475  23476  23477M 23477  23512M 23516  23518  23534
             23537  23538  23539M 23539  23660M 23664  23666  23682  23685  23686  23687M 23687  23722M 23726  23728
             23744  23747  23748  23749M 23749  23796M 23800  23802  23818  23821  23822  23823M 23823  23871M 23875
             23877  23893  23896  23897  23898M 23898  23939M 23943  23945  23961  23964  23965  23966M 23966  24002M
             24006  24008  24024  24027  24028  24029M 24029  24065M 24069  24071  24087  24090  24091  24092M 24092
             24132M 24136  24138  24154  24157  24158  24159M 24159  24200M 24204  24206  24222  24225  24226  24227M
             24227  24271M 24275  24277  24293  24296  24297  24298M 24298  24341M 24345  24347  24363  24366  24367
             24368M 24368  24408M 24412  24414  24430  24433  24434  24435M 24435  24475M 24479  24481  24497  24500
             24501  24502M 24502  24545M 24549  24551  24567  24570  24571  24572M 24572  24619M 24623  24625  24641
             24644  24645  24646M 24646  24693M 24697  24699  24714  24717  24718  24719M 24719  24790M 24794  24796
             24811  24814  24815  24816M 24816  24886M 24890  24892  24907  24910  24911  24912M 24912  24979M 24983
             24985  25035  25038  25039  25040M 25040  25136  25138M 25138  25169  25170  25171  25173M 25173  25186M
             25187  25188  25189  25206  25207  25208  25210M 25210  25223M 25224  25225  25226  25243  25244  25245
             25247M 25247  25260M 25261  25262  25263  25274M 25287M 25291  25293  25308  25311  25312  25313M 25313
             25354M 25358  25360  25375  25378  25379  25380M 25380  25444M 25448  25450  25465  25468  25469  25470M
             25470  25507M 25511  25513  25528  25531  25532  25533M 25533  25569M 25573  25575  25590  25593  25594
             25595M 25595  25659M 25663  25665  25680  25683  25684  25685M 25685  25726M 25730  25732
    14(E)      926U  2379   2380M  2394   2395M  2396B  2398M  2399B  2419M  2420B  2424M  2425B  2427M  2428B  2430M
              2431B  2433M  2434B  2436M  2437M  2437B  2443   6604   6642M  6643   6644   6645   6650M  6651   6654M
              6655M  6655B  6658M  6661   6662   6663   6668M  6669M  6669B  6686M  6689B  6721   6759M  6760   6761
              6762   6767M  6768   6771M  6772M  6772B  6775M  6778   6779   6780   6785M  6786M  6786B  6803M  6806B
              6853   6891M  6892   6893   6894   6899M  6900   6903M  6904M  6904B  6907M  6910   6911   6912   6917M
              6918M  6918B  6935M  6938B  6985   7023M  7024   7025   7026   7031M  7032   7035M  7036M  7036B  7039M
              7042   7043   7044   7049M  7050M  7050B  7067M  7070B  7118   7156M  7157   7158   7159   7164M  7165
              7168M  7169M  7169B  7172M  7175   7176   7177   7182M  7183M  7183B  7200M  7203B  7270   7302M  7303M
              7303B  7322M  7325B  7339   7371M  7372M  7372B  7391M  7394B  7408   7440M  7441M  7441B  7460M  7463B
              7477   7509M  7510M  7510B  7529M  7532B  7763   7796M  7797N  7798N  7802M  7802   7879M  7880M  7880B
              7901M  7902N  7903N  7907M  7907   7986M  7987M  7987B  7998M  7999M  7999B  8172M  8175B  8190   8223M
              8224N  8225N  8229M  8229   8237M  8238M  8238B  8362M  8365B  8381   8416M  8417M  8417B  8537M  8540B
              8559   8592M  8593N  8594N  8598M  8598   8603M  8604M  8604B  8621M  8622N  8623N  8627M  8627   8667M
              8670B  8686   8718M  8719M  8719B  8753M  8754M  8754B  8786M  8789B  8807   8929M  8930M  8930B  8971M
              8974B  8991   9095M  9096M  9096B  9116M  9117M  9117B  9169M  9170M  9170B  9190M  9191M  9191B  9257M
              9258N  9259N  9263M  9263   9280M  9281M  9281B  9292M  9293M  9293B  9301M  9302N  9303N  9307M  9307
              9324M  9325M  9325B  9336M  9337M  9337B  9345M  9346N  9347N  9351M  9351   9362M  9363M  9363B  9385M
1         (OPT2025) (12:50) (15MAR04) General Purpose Register Cross Reference                                              Page  131
              9388B  9403   9520M  9521M  9521B  9532M  9533M  9533B  9552M  9553M  9553B  9581M  9582M  9582B  9593M
              9594M  9594B  9640M  9643B  9657   9774M  9775M  9775B  9786M  9787M  9787B  9806M  9807M  9807B  9835M
              9836M  9836B  9847M  9848M  9848B  9894M  9897B  9956   9988M  9989M  9989B 10008M 10011B 10025  10057M
             10058M 10058B 10077M 10080B 10094  10126M 10127M 10127B 10146M 10149B 10163  10195M 10196M 10196B 10215M
             10218B 10232  10264M 10265M 10265B 10284M 10287B 10301  10333M 10334M 10334B 10353M 10356B 10370  10402M
             10403M 10403B 10422M 10425B 10439  10471M 10472M 10472B 10491M 10494B 10890  10943M 10946B 10959  11011M
             11014B 11027  11074M 11077B 11090  11145M 11148B 11161  11224M 11227B 11240  11304M 11307B 11320  11385M
             11388B 11400  11484M 11487B 11500  11554M 11557B 11570  11626M 11629B 11642  11693M 11696B 11709  11755M
             11758B 11771  11822M 11825B 11838  11890M 11893B 11910  11942M 11943M 11943B 11962M 11965B 12030  12098M
             12101B 12144  12176M 12177M 12177B 12196M 12199B 12257  12314M 12315M 12315B 12347M 12348M 12348B 12366M
             12367  12379M 12380  12381  12382  12387M 12388  12391M 12392M 12392B 12395M 12398  12399  12400  12421M
             12424  12451M 12454B 12512  12560M 12563B 12575  12630M 12633B 12650  12697M 12698  12704M 12705N 12720N
             12735N 12736N 12737  12737  12738N 12739N 12752N 12756M 12756  12767M 12768  12769  12770  12775M 12776
             12779M 12780M 12780B 12783M 12786  12787  12788  12870M 12873  12917M 12920B 13083  13136M 13137M 13137B
             13173M 13174M 13174B 13201M 13204B 13217  13261M 13262  13267M 13268M 13268B 13271M 13274  13292M 13295B
             13308  13352M 13353  13358M 13359M 13359B 13362M 13365  13383M 13386B 13399  13451M 13454B 13467  13520M
             13523B 13536  13582M 13585B 13632  13664M 13665M 13665B 13684M 13687B 13701  13733M 13734M 13734B 13753M
             13756B 13770  13802M 13803M 13803B 13822M 13825B 13923  13974M 13977B 13990  14041M 14044B 14061  14093M
             14094M 14094B 14113M 14116B 14130  14162M 14163M 14163B 14182M 14185B 14199  14231M 14232M 14232B 14251M
             14254B 14456  14508M 14511B 14524  14582M 14585B 14598  14656M 14659B 14672  14723M 14726B 14739  14791M
             14794B 14903  14964M 14965M 14965B 15025M 15026  15027  15028  15033M 15034  15037M 15038M 15038B 15041M
             15044  15045  15046  15051M 15052M 15052B 15088M 15089N 15090N 15094M 15094  15221M 15222N 15223N 15227M
             15227  15231M 15232M 15232B 15279M 15282B 15342  15381M 15382M 15382B 15400M 15403B 15415  15464M 15467B
             15510  15569M 15570  15582M 15583  15584  15585  15590M 15591  15594M 15595M 15595B 15598M 15601  15602
             15603  15607M 15610  15631M 15634B 15647  15706M 15707  15719M 15720  15721  15722  15727M 15728  15731M
             15732M 15732B 15735M 15738  15739  15740  15744M 15747  15768M 15771B 15890  15962M 15965B 15977  16029M
             16032B 16044  16096M 16099B 16112  16157M 16160B 16195  16226M 16227M 16227B 16248M 16251B 16289  16420M
             16421  16422  16423  16429M 16431N 16442M 16443M 16443B 16450M 16452N 16463M 16464M 16464B 16480M 16481M
             16481B 16485M 16486M 16486B 16489M 16492  16493  16494  16592M 16596M 16605M 16605  16612  16638M 16639M
             16639B 16746M 16939M 16940M 16940B 16963M 16964  16992M 16993N 16994N 16998M 16998  17017M 17018  17019
             17020  17025M 17026  17029M 17030M 17030B 17033M 17036  17037  17038  17043M 17044M 17044B 17103M 17106
             17244M 17245M 17245B 17566M 17567M 17567B 17980M 17981M 17981B 18211M 18212M 18212B 18349M 18350M 18350B
             18520  18538M 18539M 18539B 18614M 18615M 18615B 18619M 18843M 18844N 18845N 18849M 18849  18861M 18862
             18863  18864  18872M 18873M 18873B 18876M 18879  18880  18881  18886M 18887M 18887B 19045M 19046M 19046B
             19099M 19100M 19100B 19148  19166M 19167M 19167B 19210M 19317M 19318M 19318B 19379M 19382B 19558  19604M
             19607B 19620  19666M 19669B 19682  19728M 19731B 19743  19815M 19818B 19830  19896M 19897M 19897B 19926M
             19929B 19961  20045M 20046M 20046B 20222M 20223M 20223B 20264M 20265M 20265B 20427M 20428M 20428B 20512M
             20513M 20513B 20604M 20605M 20605B 20676M 20677M 20677B 20932M 20935B 20950  21023M 21026B 21045  21101M
             21102M 21102B 21238M 21241B 21302  21498M 21501B 21553  21598M 21599M 21599B 21848M 21849M 21849B 21877M
             21880B 21924  21956M 21957M 21957B 21976M 21979B 21992  22024M 22025M 22025B 22044M 22047B 22060  22092M
             22093M 22093B 22112M 22115B 22830  22861M 22862M 22862B 22942M 22945B 22979  23029M 23030  23031  23032
             23038M 23039M 23039B 23042M 23045  23046  23047  23271M 23274B 23287  23333M 23336B 23349  23395M 23398B
             23410  23457M 23460B 23472  23518M 23521B 23534  23666M 23669B 23682  23728M 23731B 23744  23802M 23805B
             23818  23877M 23880B 23893  23945M 23948B 23961  24008M 24011B 24024  24071M 24074B 24087  24138M 24141B
             24154  24206M 24209B 24222  24277M 24280B 24293  24347M 24350B 24363  24414M 24417B 24430  24481M 24484B
             24497  24551M 24554B 24567  24625M 24628B 24641  24699M 24702B 24714  24762M 24763M 24763B 24796M 24799B
             24811  24859M 24860M 24860B 24892M 24895B 24907  24953M 24954M 24954B 24985M 24988B 25035  25121M 25122M
             25122B 25135M 25136  25152M 25153N 25154N 25158M 25158  25168M 25169  25170  25171  25176M 25177  25180M
             25181M 25181B 25184M 25187  25188  25189  25194M 25195M 25195B 25205M 25206  25207  25208  25213M 25214
             25217M 25218M 25218B 25221M 25224  25225  25226  25231M 25232M 25232B 25242M 25243  25244  25245  25250M
             25251  25254M 25255M 25255B 25258M 25261  25262  25263  25268M 25269M 25269B 25272M 25275  25293M 25296B
             25308  25360M 25363B 25375  25450M 25453B 25465  25513M 25516B 25528  25575M 25578B 25590  25665M 25668B
             25680  25732M 25735B
    15(F)      922U  2379   6664M  6664   6688M  6688   6781M  6781   6805M  6805   6913M  6913   6937M  6937   7045M
              7045   7069M  7069   7178M  7178   7202M  7202   7324M  7324   7393M  7393   7462M  7462   7531M  7531
              7945M  8000M  8152M  8152   8174M  8174   8247M  8247   8364M  8364   8479M  8479   8515M  8515   8539M
              8539   8599M  8613M  8613   8645M  8669M  8669   8715M  8750M  8769M  8769   8788M  8788   8935M  8935
              8946M  8951M  8973M  8973   9250M  9250   9294M  9338M  9364M  9387M  9387   9534M  9595M  9615M  9615
              9642M  9642   9788M  9849M  9869M  9869   9896M  9896  10010M 10010  10079M 10079  10148M 10148  10217M
1         (OPT2025) (12:50) (15MAR04) General Purpose Register Cross Reference                                              Page  132
             10217  10286M 10286  10355M 10355  10424M 10424  10493M 10493  10945M 10945  11013M 11013  11076M 11076
             11147M 11147  11226M 11226  11306M 11306  11387M 11387  11467M 11467  11486M 11486  11556M 11556  11628M
             11628  11671M 11672  11676M 11676  11695M 11695  11757M 11757  11824M 11824  11892M 11892  11964M 11964
             12100M 12100  12198M 12198  12316M 12349M 12401M 12401  12413  12432M 12432  12453M 12453  12543M 12562M
             12562  12613M 12632M 12632  12705M 12714M 12714  12720M 12729M 12729  12735M 12736M 12738M 12739  12751M
             12751  12752  12789M 12789  12798M 12798  12828  12837M 12837  12862  12874M 12895M 12919M 12919  13138M
             13180M 13203M 13203  13275M 13294M 13294  13366M 13385M 13385  13434M 13453M 13453  13503M 13522M 13522
             13565M 13584M 13584  13686M 13686  13755M 13755  13824M 13824  13976M 13976  14043M 14043  14115M 14115
             14184M 14184  14253M 14253  14510M 14510  14584M 14584  14658M 14658  14725M 14725  14793M 14793  14961M
             15047M 15047  15262M 15262  15281M 15281  15383M 15402M 15402  15447M 15466M 15466  15604M 15604  15614M
             15614  15633M 15633  15741M 15741  15751M 15751  15770M 15770  15945M 15964M 15964  16012M 16031M 16031
             16079M 16098M 16098  16159M 16159  16231M 16231  16250M 16250  16430M 16431  16451M 16452  16745M 16749M
             16758M 16758  16765  16936M 17039M 17039  17053M 17053  17185M 17186M 17218M 17218  17247M 17257  17269M
             17279M 17288M 17288  17295  17563M 17605M 17606M 17607  17616M 17616  17977M 18208M 18346M 18520  18619M
             18622M 18728M 18797M 18822M 18882M 18882  18963M 18964M 19042M 19096M 19148  19210M 19349M 19353M 19381M
             19381  19606M 19606  19668M 19668  19730M 19730  19798M 19817M 19817  19893M 19909M 19928M 19928  20042M
             20424M 20620  20673M 20855M 20855  20871M 20876M 20885M 20885  20892  20934M 20934  21025M 21025  21075
             21221M 21240M 21240  21334M 21334  21440M 21480M 21500M 21500  21852M 21859M 21859  21879M 21879  21978M
             21978  22046M 22046  22114M 22114  22883M 22887M 22896M 22896  22903  22925M 22925  22944M 22944  23048M
             23048  23057M 23057  23145M 23149M 23158M 23158  23165  23184M 23249M 23249  23273M 23273  23335M 23335
             23397M 23397  23459M 23459  23520M 23520  23563M 23577  23591  23623M 23625  23640M 23641M 23642M 23643M
             23644M 23644  23645  23649M 23649  23668M 23668  23730M 23730  23804M 23804  23879M 23879  23947M 23947
             24010M 24010  24073M 24073  24140M 24140  24208M 24208  24279M 24279  24349M 24349  24416M 24416  24483M
             24483  24553M 24553  24627M 24627  24701M 24701  24779M 24779  24798M 24798  24875M 24875  24894M 24894
             24968M 24968  24987M 24987  25190M 25190  25227M 25227  25264M 25264  25295M 25295  25362M 25362  25433M
             25452M 25452  25496M 25515M 25515  25577M 25577  25648M 25667M 25667  25734M 25734

1OPT      (OPT2025) (12:50) (15MAR04) Diagnostic Cross Reference and Assembler Summary                                      Page  133
-                                                                                            HLASM R4.0  2004/03/15 12.50
0     No Statements Flagged in this Assembly
 HIGH LEVEL ASSEMBLER, 5696-234, RELEASE 4.0, PTF P72483
0SYSTEM: OS/390 02.10.00            JOBNAME: WYL#OPT     STEPNAME: ASM        PROCSTEP: (NOPROC)
0Datasets Allocated for this Assembly
  Con DDname   Dataset Name                                 Volume  Member
   P1 SYSIN    WYL.GS.WYL.WYLBUR.SOURCE                     SYSB05  OPT
   L1 SYSLIB   WYL.GS.WYL.WYLBUR.MACLIB                     SYSB05
   L2          WYL.GG.SYS.MACLIB                            SYSB05
   L3          SYS3.IS.MACLIB                               SYSB05
   L4          SYS3.MACLIB                                  SYSB02
   L5          SYS1.MACLIB                                  MVSBR9
   L6          SYS1.MODGEN                                  MVSBR9
      SYSPRINT SYS04075.T125024.RA000.WYL#OPT.PRINT.H01     SCR100
      SYSTERM  GG$SLP.WYL#OPT.JOB03550.D0000101.?

    3668K allocated to Buffer Pool,         3217K would be required for this to be an In-Storage Assembly
    2226 Primary Input Records Read         7117 Library Records Read                  0 Work File Reads
       0 ASMAOPT Records Read              13390 Primary Print Records Written         0 Work File Writes
       0 Punch Records Written                 0 ADATA Records Written
0Assembly Start Time: 12.50.25 Stop Time: 12.50.42 Processor Time: 00.00.04.7385
 Return Code 000
