1                        J E S 2  J O B  L O G  --  S Y S T E M  S Y S B  --  N O D E  R L G
0
 12.44.29 JOB03523 ---- MONDAY,    15 MAR 2004 ----
 12.44.29 JOB03523  ICH70001I GG$SLP   LAST ACCESS AT 12:44:06 ON MONDAY, MARCH 15, 2004
 12.44.29 JOB03523  $HASP373 WYL#EXT  STARTED - INIT 9    - CLASS B - SYS SYSB
 12.44.29 JOB03523  ***  HCMD      STEP $$QUIET
 12.44.29 JOB03523  PUR * Q OUT MUL
 12.44.29 JOB03523  JOB 5388 WYL#EXT  WILL BE PURGED
 12.44.30 JOB03523  WYL#EXT .$$QUIET .         RC=Zero TapeIO=0000 DiskIO=0000 CPU=  .01s Elapsed=69.61s
 12.44.38 JOB03523  WYL#EXT .ASM     .         RC=Zero TapeIO=0000 DiskIO=0439 CPU= 1.75s Elapsed=70.70s
 12.44.39 JOB03523  WYL#EXT .EDIT    .         RC=Zero TapeIO=0000 DiskIO=0057 CPU=  .17s Elapsed=78.75s
 12.44.39 JOB03523  WYL#EXT  Ended.  Name=Assemble EXT                   Total CPU= 1.93s Elapsed=69.61s
 12.44.39 JOB03523
 12.44.39 JOB03523  Execution charges   Priority=Standard   Block=Day
 12.44.39 JOB03523
 12.44.39 JOB03523  CPU Usage          35.43          $21.96   Standard Processing Unit Equivalent
 12.44.39 JOB03523                                   =======
 12.44.39 JOB03523                                    $21.96   Total Job execution charge
 12.44.39 JOB03523
 12.44.39 JOB03523  See back separator page for print charges
 12.44.39 JOB03523
 12.44.39 JOB03523  $HASP395 WYL#EXT  ENDED  ASM=0, EDIT=0
1        1 //WYL#EXT JOB SLP$GG,'Assemble EXT',TIME=4,REGION=4M                    JOB03523
           //*
           /*JOBPARM LINES=99,COPIES=1
           /*JOBPARM FORMS=3HOL,PFORMAT=LAND,CHARS=BD13,DUPLEX=YES,FLASH=BAR4
           //*
           /*JOBPARM NOTIFY=GG.SLP,HOLD=OUTPUT                                     WYLGEN
         2 //$$QUIET EXEC PGM=HCMDX,PARM='PUR * Q OUT MUL'
           //*
         3 //ASM    EXEC PGM=ASMA90,REGION=8M,
           //            PARM=('NORENT,TERM,FLAG(NOCONT),US(MAP,WARN(10)),NODECK',
           //            'LC(32767),XREF(SHORT),ESD,DXREF,NOOBJECT')
         4 //STEPLIB DD DSN=SYS3.IS.TESTASM,DISP=SHR
         5 //SYSLIB   DD  DSN=WYL.GS.WYL.WYLBUR.MACLIB,DISP=SHR
         6 //         DD  DSN=WYL.GG.SYS.MACLIB,DISP=SHR
         7 //         DD  DSN=SYS3.IS.MACLIB,DISP=SHR
         8 //         DD  DSN=SYS3.MACLIB,DISP=SHR
         9 //         DD  DSN=SYS1.MACLIB,DISP=SHR
        10 //         DD  DSN=SYS1.MODGEN,DISP=SHR
        11 //SYSUT1   DD DSN=&&SYSUT1,UNIT=VIO,DISP=(,DELETE),
           //            SPACE=(4088,(500,250),,CONTIG,ROUND)
        12 //SYSTERM  DD SYSOUT=T
        13 //SYSPRINT DD DSN=&&PRINT,UNIT=SYSDA,DISP=(,PASS),
           //            SPACE=(6650,(250,250),RLSE),
           //            DCB=(BLKSIZE=6650,LRECL=133,RECFM=FB)
        14 //SYSUDUMP DD SYSOUT=A
        15 //SYSIN    DD  DSN=WYL.GS.WYL.WYLBUR.SOURCE(EXT),DISP=SHR
           //*
        16 //EDIT    EXEC PGM=ASMEDIT,TIME=2,REGION=4000K,
           //             PARM='STMT'
        17 //STEPLIB  DD  DSN=WYL.GG.SYS.LINKLIB,DISP=SHR
        18 //ASMOUT   DD  DSN=&PRINT,DISP=(OLD,DELETE)
        19 //SYSPRINT DD  SYSOUT=A
1 STMT NO. MESSAGE
 -
        11 IGD01010I STORCLAS= TEMP STORGROUP =
        11 IGD01010I STORGRP=VIO ASSIGNED.
        13 IGD01010I STORCLAS= TEMP STORGROUP =
        13 IGD01010I STORGRP=VIO ASSIGNED.
 ICH70001I GG$SLP   LAST ACCESS AT 12:44:06 ON MONDAY, MARCH 15, 2004
 IEF142I WYL#EXT $$QUIET - STEP WAS EXECUTED - COND CODE 0000
 *********************************************************************************
 *   WYL#EXT /$$QUIET /                    Return Code      Zero                 *
 *   Region used      260K (16K user + 244K system)                              *
 *   Extended region  9464K (4K user + 9460K system)                             *
 *                                                                               *
 *   Paging              In      Out                                             *
 *   Private <-> Aux      0        0       CPU time (TCB)   00:00:00.01          *
 *   Private <-> Exp      0        0       CPU time (SRB)   00:00:00.00          *
 *   VIO                  0        0       Elapsed time    917:43:23.35          *
 *   Common               0      ---                                             *
 *                                                                               *
 *                                                                               *
 *   CPU Usage          0.18         $0.11  Standard Processing Unit Equivalent  *
 *                                   $0.11  Total Step execution charge          *
 *                                                                               *
 *    I/O count  DDname   Type Addr           I/O count  DDname   Type Addr      *
 *                         *** No I/O for this step ***                          *
 *********************************************************************************
 IEF373I STEP/$$QUIET /START 2004075.1244
 IEF374I STEP/$$QUIET /STOP  2004075.1244 CPU    0MIN 00.01SEC SRB    0MIN 00.00SEC VIRT    16K SYS   244K EXT       4K SYS    9460K
 IEF236I ALLOC. FOR WYL#EXT ASM
 IEF237I 04DC ALLOCATED TO STEPLIB
 IEF237I 04DC ALLOCATED TO SYSLIB
 IEF237I 04DC ALLOCATED TO
 IEF237I 04DC ALLOCATED TO
 IEF237I 0402 ALLOCATED TO
 IEF237I 04A0 ALLOCATED TO
 IEF237I 04A0 ALLOCATED TO
 IGD101I SMS ALLOCATED TO DDNAME (SYSUT1  )
         DSN (SYS04075.T124429.RA000.WYL#EXT.SYSUT1.H01   )
         STORCLAS (TEMP) MGMTCLAS (        ) DATACLAS (        )
         VOL SER NOS= VIO
 IEF237I JES2 ALLOCATED TO SYSTERM
 IGD101I SMS ALLOCATED TO DDNAME (SYSPRINT)
         DSN (SYS04075.T124429.RA000.WYL#EXT.PRINT.H01    )
         STORCLAS (TEMP) MGMTCLAS (        ) DATACLAS (        )
         VOL SER NOS= SCR101
 IEF237I JES2 ALLOCATED TO SYSUDUMP
 IEF237I 04DC ALLOCATED TO SYSIN
 IEF142I WYL#EXT ASM - STEP WAS EXECUTED - COND CODE 0000
 IEF285I   SYS3.IS.TESTASM                              KEPT
 IEF285I   VOL SER NOS= SYSB05.
 IEF285I   WYL.GS.WYL.WYLBUR.MACLIB                     KEPT
 IEF285I   VOL SER NOS= SYSB05.
 IEF285I   WYL.GG.SYS.MACLIB                            KEPT
 IEF285I   VOL SER NOS= SYSB05.
 IEF285I   SYS3.IS.MACLIB                               KEPT
 IEF285I   VOL SER NOS= SYSB05.
 IEF285I   SYS3.MACLIB                                  KEPT
 IEF285I   VOL SER NOS= SYSB02.
 IEF285I   SYS1.MACLIB                                  KEPT
 IEF285I   VOL SER NOS= MVSBR9.
 IEF285I   SYS1.MODGEN                                  KEPT
 IEF285I   VOL SER NOS= MVSBR9.
 IGD105I SYS04075.T124429.RA000.WYL#EXT.SYSUT1.H01    DELETED,   DDNAME=SYSUT1
 IEF285I   GG$SLP.WYL#EXT.JOB03523.D0000101.?           SYSOUT
 IGD106I SYS04075.T124429.RA000.WYL#EXT.PRINT.H01     PASSED,    DDNAME=SYSPRINT
 IEF285I   GG$SLP.WYL#EXT.JOB03523.D0000102.?           SYSOUT
 IEF285I   WYL.GS.WYL.WYLBUR.SOURCE                     KEPT
 IEF285I   VOL SER NOS= SYSB05.
 *********************************************************************************
 *   WYL#EXT /ASM     /                    Return Code      Zero                 *
 *   Region used      4376K (4096K user + 280K system)                           *
 *   Extended region  10064K (412K user + 9652K system)                          *
 *                                                                               *
 *   Paging              In      Out                                             *
 *   Private <-> Aux      0        0       CPU time (TCB)   00:00:01.71          *
 *   Private <-> Exp      0        0       CPU time (SRB)   00:00:00.04          *
 *   VIO                  0        0       Elapsed time    917:43:22.26          *
 *   Common               0      ---                                             *
 *                                                                               *
 *                                                                               *
 *   CPU Usage         32.06        $19.87  Standard Processing Unit Equivalent  *
 *                                  $19.87  Total Step execution charge          *
 *                                                                               *
 *    I/O count  DDname   Type Addr           I/O count  DDname   Type Addr      *
 *           87  STEPLIB  Disk 04DC                 295  SYSLIB   Disk 04DC      *
 *            0  SYSLIB   Disk 04DC                   0  SYSLIB   Disk 04DC      *
 *            0  SYSLIB   Disk 0402                   0  SYSLIB   Disk 04A0      *
 *            0  SYSLIB   Disk 04A0                   0  SYSUT1   VIO  ----      *
 *            0  SYSTERM       ----                  54  SYSPRINT Disk 04E3      *
 *            0  SYSUDUMP      ----                   3  SYSIN    Disk 04DC      *
 *********************************************************************************
 IEF373I STEP/ASM     /START 2004075.1244
 IEF374I STEP/ASM     /STOP  2004075.1244 CPU    0MIN 01.71SEC SRB    0MIN 00.04SEC VIRT  4096K SYS   280K EXT     412K SYS    9652K
 IEF236I ALLOC. FOR WYL#EXT EDIT
 IEF237I 0402 ALLOCATED TO STEPLIB
 IGD103I SMS ALLOCATED TO DDNAME ASMOUT
 IEF237I JES2 ALLOCATED TO SYSPRINT
 IEF142I WYL#EXT EDIT - STEP WAS EXECUTED - COND CODE 0000
 IEF285I   WYL.GG.SYS.LINKLIB                           KEPT
 IEF285I   VOL SER NOS= SYSB02.
 IGD105I SYS04075.T124429.RA000.WYL#EXT.PRINT.H01     DELETED,   DDNAME=ASMOUT
 IEF285I   GG$SLP.WYL#EXT.JOB03523.D0000103.?           SYSOUT
 *********************************************************************************
 *   WYL#EXT /EDIT    /                    Return Code      Zero                 *
 *   Region used      380K (116K user + 264K system)                             *
 *   Extended region  9584K (4K user + 9580K system)                             *
 *                                                                               *
 *   Paging              In      Out                                             *
 *   Private <-> Aux      0        0       CPU time (TCB)   00:00:00.17          *
 *   Private <-> Exp      0        0       CPU time (SRB)   00:00:00.00          *
 *   VIO                  0        0       Elapsed time    917:43:14.21          *
 *   Common               0      ---                                             *
 *                                                                               *
 *                                                                               *
 *   CPU Usage          3.18         $1.97  Standard Processing Unit Equivalent  *
 *                                   $1.97  Total Step execution charge          *
 *                                                                               *
 *    I/O count  DDname   Type Addr           I/O count  DDname   Type Addr      *
 *            2  STEPLIB  Disk 0402                  55  ASMOUT   Disk 04E3      *
 *            0  SYSPRINT      ----                                              *
 *********************************************************************************
 IEF373I STEP/EDIT    /START 2004075.1244
 IEF374I STEP/EDIT    /STOP  2004075.1244 CPU    0MIN 00.17SEC SRB    0MIN 00.00SEC VIRT   116K SYS   264K EXT       4K SYS    9580K
 *********************************************************************************
 *                                                                               *
 *                      S t a n f o r d   U n i v e r s i t y                    *
 *                                                                               *
 *                              *** Job Summary ***                              *
 *                                                                               *
 *   System Id      SYSB                   Input time     12:39:18  Mar 15, 2004 *
 *                                                                               *
 *   System Release SP6.1.0                Start time     12:44:29  Mar 15, 2004 *
 *                                                                               *
 *   Job name       WYL#EXT                Stop  time     00:00:00  Mar 15, 2004 *
 *                                                                               *
 *   Account        SLP$GG                 Elapsed time  917:43:23.35            *
 *                                                                               *
 *   User Name      Assemble EXT           CPU time       00:00:01.89            *
 *                                                                               *
 *   Job class      B                      SRB Time       00:00:00.04            *
 *                                                                               *
 *********************************************************************************
 IEF375I  JOB/WYL#EXT /START 2004075.1244
 IEF376I  JOB/WYL#EXT /STOP  2004075.1244 CPU    0MIN 01.89SEC SRB    0MIN 00.04SEC
1Assembler Done EXT No Statements Flagged
1         High Level Assembler Option Summary                   (PTF P72483 )                                               Page    1
-                                                                                            HLASM R4.0  2004/03/15 12.44
0  No Overriding ASMAOPT Parameters
   Overriding Parameters-  NORENT,TERM,FLAG(NOCONT),US(MAP,WARN(10)),NODECK,LC(32767),XREF(SHORT),ESD,DXREF,NOOBJECT
   No Process Statements


   Options for this Assembly
0  NOADATA
     ALIGN
   NOASA
     BATCH
     CODEPAGE(047C)
   NOCOMPAT
   NODBCS
 3 NODECK
 3   DXREF
 3   ESD
   NOEXIT
 3   FLAG(0,ALIGN,NOCONT,NOIMPLEN,NOPAGE0,PUSH,RECORD,NOSUBSTR,USING0)
   NOFOLD
   NOGOFF
   NOINFO
     LANGUAGE(EN)
   NOLIBMAC
 3   LINECOUNT(32767)
     LIST(121)
     MXREF(SOURCE)
 3 NOOBJECT
     OPTABLE(UNI,NOLIST)
   NOPCONTROL
   NOPESTOP
   NOPROFILE
   NORA2
 3 NORENT
     RLD
     RXREF
     SIZE(MAX)
     SYSPARM()
 3   TERM(WIDE)
   NOTEST
     THREAD
   NOTRANSLATE
 3   USING(NOLIMIT,MAP,WARN(10))
 3   XREF(SHORT)

   No Overriding DD Names

1EXT      External Symbol Dictionary                                                                                        Page    2
-Symbol   Type   Id     Address  Length     LD ID  Flags Alias-of                            HLASM R4.0  2004/03/15 12.44
0WYLEXT    SD 00000001 00000000 00000998             00
 EXT2025   LD          00000000           00000001
 EXTOPEN   LD          00000016           00000001
 EXTOPENE  LD          000001D6           00000001
 EXTREAD   LD          000002C8           00000001
 EXTWRITE  LD          0000043E           00000001
 EXTCLOSE  LD          0000059C           00000001
 LOCALTOD  ER 00000002
 WGSOPEN   ER 00000003
 UFSOPEN   ER 00000004
 SAMOPEN   ER 00000005
 NETOPEN   ER 00000006
 DSKOPEN   ER 00000007
 EXTCLOSE  ER 00000008
 SEGCLR    ER 00000009
 SEGDSN    ER 0000000A
 SEG       ER 0000000B
 SEGT      ER 0000000C
 SEGCR     ER 0000000D
 YESREQ    ER 0000000E
 SEGDC     ER 0000000F
 SEGMARK   ER 00000010
 SEGWR     ER 00000011
 WGSREAD   ER 00000012
 UFSREAD   ER 00000013
 SAMREAD   ER 00000014
 NETREAD   ER 00000015
 DSKREAD   ER 00000016
 WGSWRITE  ER 00000017
 UFSWRITE  ER 00000018
 SAMWRITE  ER 00000019
 NETWRITE  ER 0000001A
 DSKWRITE  ER 0000001B
 WGSCLOSE  ER 0000001C
 UFSCLOSE  ER 0000001D
 SAMCLOSE  ER 0000001E
 NETCLOSE  ER 0000001F
 DSKCLOSE  ER 00000020
 SEGINIT   ER 00000021
 FINDDEV   LD          0000084A           00000001
 MKFFINFO  ER 00000022

1EXT      WYLBUR's External Device Interface                                                                                Page    3
0Loc    Object Code    Addr1 Addr2  Stmt Lv Lineno    Source Statement                    (Asmedit 3.3)  HLASM R4.0  2004/03/15 12.44
+___    ______ ____    _____ _____  ____ __ ______    ______ _________
0                                      2              *******************************************************************
                                       3              *                                                                 *
                                       4              *     WYLBUR/370 - Release VI - Class I - Stanford Proprietary    *
                                       5              *                                                                 *
                                       6              *******************************************************************
                                       7                       HIBAL
                                     988
                                     989                       SYSDEFN
                                     990
 000000                00000 00998   991              WYLEXT   CSECT
                                     995
                                     996              EXT      IDENT 2025                11:49:23 01/25/02  (SLP)
                                     999             +
                                    1000    01-IDENT +         ENTRY EXT2025
                                    1001             +
 000000 15C5E7E3F2F0F2F5            1002    01-IDENT +EXT2025  DC    AL1(21),C'EXT2025,15MAR04,12:44'
                                    1003             +*
                                    1005                       REGS  FSR,,,,,,,BR,(WAR,LSR),PAR,PBR,CPR,CVR,SPR,RAR
                                    1141
                                    1142                       PUSH  DSECTS
 USING  CP,R11                      1153             =         USING (CP),(CV)
 USING  CV,R12
 000016                00000 00998  1172             =         POP   PRINT
1EXT      (EXT2025) (12:44) (15MAR04) Common Control Blocks                                                                 Page    4
0Current Usings:  (CP,R11) (CV,R12)
0Loc    Object Code    Addr1 Addr2  Stmt Lv Lineno    Source Statement           (Hibal 5, Asmedit 3.3)  HLASM R4.0  2004/03/15 12.44
+___    ______ ____    _____ _____  ____ __ ______    ______ _________
0                                   6587                       COPY  FFINFO
                                    6588             =*
                                    6589             =*
                                    6590             =*  FILE INFO DSECT
                                    6591             =*
                                    6592             =*  THIS DSECT CONTAINS THE INFO NEEDED TO OPEN FILES.
                                    6593             =*  IT CONTAINS THE FILE NAME, FILE OPTIONS, FILE SYSTEM
                                    6594             =*  NAME AND FILE SYSTEM OPTIONS. THIS DSECT SHOULD CONTAIN
                                    6595             =*  ONLY DESCRIPTIVE INFO NEEDED TO OPEN THE FILE.
                                    6596             =*
                                    6597             =*
                                    6598             =FNAMELN  EQU   128                 MAXIMUM FILE NAME LENGTH
                                    6599             =FSYSLN   EQU   128                 MAXIMUM FILE SYSTEM LENGTH
                                    6600             =FHOSTLN  EQU   128                 MAXIMUM FILE SYSTEM HOST LENGTH
                                    6601             =*
                                    6602             =*
 000000                00000 003A0  6603             =FFINFO   RECORD BEGIN
 000000 00                          6611  1          =FFTYPE     FLAG  ,                   FILE SYSTEM TYPE FLAGS
 FFTYPE.FFFWINGS   01 EQ            6615  1          =           FLAG  (FFFWINGS,1,EQ)     WINGS
 FFTYPE.FFFUNIX    02 EQ            6625  1          =           FLAG  (FFFUNIX,2,EQ)      UNIX (NOT IMPLEMENTED)
 FFTYPE.FFFSAM     03 EQ            6635  1          =           FLAG  (FFFSAM,3,EQ)       SAMSON
 FFTYPE.FFFNET     04 EQ            6645  1          =           FLAG  (FFFNET,4,EQ)       NET
 FFTYPE.FFFOLD     05 EQ            6655  1          =           FLAG  (FFFOLD,5,EQ)       OLD IBM
 000001 00                          6665  1          =FFRQTYPE   FLAG  ,                   REQUEST TYPE FLAGS
 FFRQTYPE.FFFREAD  01 EQ            6669  1          =           FLAG  (FFFREAD,1,EQ)      READ (DEFAULT)
 FFRQTYPE.FFFWRITE 02 EQ            6679  1          =           FLAG  (FFFWRITE,2,EQ)     WRITE
 FFRQTYPE.FFFAPPD  04 EQ            6689  1          =           FLAG  (FFFAPPD,4,EQ)      APPEND
 FFRQTYPE.FFFREPL  08 EQ            6699  1          =           FLAG  (FFFREPL,8,EQ)      REPLACE
 000002 00                          6709  1          =FFMISC     FLAG  ,                   MISC FLAGS
 FFMISC.FFFPASSW   80 ONES          6713  1          =           FLAG  FFFPASSW            PASSWORD ACCESS OK
 FFMISC.FFFDIFFV   40 ONES          6718  1          =           FLAG  FFFDIFFV            DIFFERENT VOL SAVE OK
 FFMISC.FFFCHFMT   20 ONES          6723  1          =           FLAG  FFFCHFMT            CHANGE DSN FORMAT OK
 FFMISC.FFFNRACF   10 ONES          6728  1          =           FLAG  FFFNRACF            NO RACF PROCESSING
 FFMISC.FFFPDS     08 ONES          6733  1          =           FLAG  FFFPDS              OP APPLIES TO PDS
 000003 00                          6738  1          =FFPTYPE    FLAG  ,                   PREVIOUS FILE TYPE
 FFPTYPE.FFFPWINGS 01 EQ            6742  1          =           FLAG  (FFFPWINGS,1,EQ)    WINGS
 FFPTYPE.FFFPUNIX  02 EQ            6752  1          =           FLAG  (FFFPUNIX,2,EQ)     UNIX (NOT IMPLEMENTED)
 FFPTYPE.FFFPSAM   03 EQ            6762  1          =           FLAG  (FFFPSAM,3,EQ)      SAMSON
 FFPTYPE.FFFPNET   04 EQ            6772  1          =           FLAG  (FFFPNET,4,EQ)      NET
 FFPTYPE.FFFPOLD   05 EQ            6782  1          =           FLAG  (FFFPOLD,5,EQ)      OLD IBM
 000004 00                          6792  1          =FFFLAG4    FLAG  ,
 000008                             6796  1          =FFNAMEL    DS    F                   FILE NAME
 00000C                             6797  1          =FFNAME     DS    CL128
 00008C                             6798  1          =FFHOSTL    DS    F                   FILE HOST
 000090                             6799  1          =FFHOST     DS    CL128
 000110                             6800  1          =FFOPTSL    DS    F                   FILE OPTIONS (FORMAT ETC)
 000114                             6801  1          =FFOPTS     DS    CL256
 000214                             6802  1          =FFRNAMEL   DS    F                   RESOLVED FULL FILE NAME
 000218                             6803  1          =FFRNAME    DS    CL128
 000298                             6804  1          =FFPNAMEL   DS    F                   PREVIOUS FILE NAME (IE. *)
 00029C                             6805  1          =FFPNAME    DS    CL128
 00031C                             6806  1          =FFPHOSTL   DS    F                   PREVIOUS HOST
 000320                             6807  1          =FFPHOST    DS    CL128
 0003A0                003A0 003A0  6808             =         END   ,
1EXT      (EXT2025) (12:44) (15MAR04) Common Control Blocks                                                                 Page    5
0Current Usings:  (CP,R11) (CV,R12)
0Loc    Object Code    Addr1 Addr2  Stmt Lv Lineno    Source Statement           (Hibal 5, Asmedit 3.3)  HLASM R4.0  2004/03/15 12.44
+___    ______ ____    _____ _____  ____ __ ______    ______ _________
0                                   6817
1EXT      (EXT2025) (12:44) (15MAR04) External Device Interface Routines                                                    Page    6
0Current Usings:  (CP,R11) (CV,R12)
0Loc    Object Code    Addr1 Addr2  Stmt Lv Lineno    Source Statement           (Hibal 5, Asmedit 3.3)  HLASM R4.0  2004/03/15 12.44
+___    ______ ____    _____ _____  ____ __ ______    ______ _________
0                                   6819              ¿þþþþþþþþþþþþþþþþþþþþþþþþþþþþþþþþþþþþþþþþþþþþþþþþþþþþþþþþþþþþþþþþþþþþþÜ
                                    6820              Ÿ                                                                     Ÿ
                                    6821              Ÿ  EXTOPEN -- Routine to open an external file.                       Ÿ
                                    6822              Ÿ                                                                     Ÿ
                                    6823              Ÿ    On entry:                                                        Ÿ
                                    6824              Ÿ      CPFINFOP - FFINFO WA (file information dsect)                  Ÿ
                                    6825              Ÿ      DSNWA contains information about the file (OLDIBM)             Ÿ
                                    6826              Ÿ                                                                     Ÿ
                                    6827              Ÿ    On exit:                                                         Ÿ
                                    6828              Ÿ      R15=0 if open ok.  Errors exit via CVERROR.                    Ÿ
                                    6829              Ÿ                                                                     Ÿ
                                    6830              Ÿ    NOTE:                                                            Ÿ
                                    6831              Ÿ    All errors exit to CVERROR.  A few "recoverable errors"          Ÿ
                                    6832              Ÿ    will be passed back to the caller.. or maybe not.                Ÿ
                                    6833              Ÿ    code is in progress. the errors that may be passed back          Ÿ
                                    6834              Ÿ    or handled right here are the "file exists" error on             Ÿ
                                    6835              Ÿ    save. and the "password required" access error for               Ÿ
                                    6836              Ÿ    read/write.                                                      Ÿ
                                    6837              Ÿ                                                                     Ÿ
                                    6838              Ÿ    NOTE:                                                            Ÿ
                                    6839              Ÿ    ERROR STUFF IS IN PROGRESS, HANDLE RECOVERABLE ERRORS HERE       Ÿ
                                    6840              Ÿ    OR NOT THAT IS THE QUESTION. 'EXISTS' AND 'PASSWORD' ARE         Ÿ
                                    6841              Ÿ    WHAT WE HAVE TO DEAL WITH. AND EVENTUALLY 'CONDENSE' AND         Ÿ
                                    6842              Ÿ    'BADGUESS' (SPACE REQUIREMENT GUESS IS WRONG).  FIGURE           Ÿ
                                    6843              Ÿ    IT OUT AND FIX IT.                                               Ÿ
                                    6844              Ÿ                                                                     Ÿ
                                                      ¾þþþþþþþþþþþþþþþþþþþþþþþþþþþþþþþþþþþþþþþþþþþþþþþþþþþþþþþþþþþþþþþþþþþþþ»
0000016 50E0 D000/9008_      00000  6845              EXTOPEN  XPROC ,
 USING  *,R7
 000030 58E0 76E0/0DEE       00710  6885                       ACALL ZAPFINFO
 000036 5860 BE54            00E54  6889                       L     R6,CPFINFOP
 USING  FFINFO,R6                   6890                       USING FFINFO,R6
                                    6899
 00003A 9180 B8AA/47E0_008AA        6900              EXTORTRY FAIL  CPRFEXT,BADOPEN,'External data path open error.'
 00005A 9680 B8AA      008AA        6928                       SET   CPRFEXT             External data path now active
                                    6934
 00005E 58E0 76E4/0DEE       00714  6935                       VCALL LOCALTOD
 000064 5000 BF4C            00F4C  6939                       ST    R0,DSNCLCK          Save initial time of day
                                    6940
                                    6941                       COMMENT                   CALL OPEN ROUTINES
 000068 4110 6000            00000  6942                       LA    R1,FFINFO           R1 - FILE INFO DSECT
 00006C 9501 6000/4770_00000        6943                       IF     (FFFWINGS),' VCALL WGSOPEN'
 00007A 704E/47F0 705C_0007A 00072  6967                       ELSEIF (FFFUNIX),' VCALL UFSOPEN'
 00008C 7060/47F0 706E_0008C 00084  7000                       ELSEIF (FFFSAM),' VCALL SAMOPEN'
 00009E 7072/47F0 7080_0009E 00096  7033                       ELSEIF (FFFNET),' VCALL NETOPEN'
 0000B0 7084/47F0 7092_000B0 000A8  7066                       ELSEIF (FFFOLD),' VCALL DSKOPEN'
 0000C2 7096/47F0 70AE 000C2 000BA  7099                       ELSE  BEGIN
 0000C6 900F C780/4DE0_      00780  7110  1                      KAPUT BADDEV,'EXTOPEN: invalid/unknown device type.'
 0000DE                             7117                       END
1EXT      (EXT2025) (12:44) (15MAR04) External Device Interface Routines                                                    Page    7
0Current Usings:  (FFINFO,R6) (*,R7) (CP,R11) (CV,R12)
0Loc    Object Code    Addr1 Addr2  Stmt Lv Lineno    Source Statement           (Hibal 5, Asmedit 3.3)  HLASM R4.0  2004/03/15 12.44
+___    ______ ____    _____ _____  ____ __ ______    ______ _________
0                                   7121                  ¿þþþþþþþþþþþþþþþþþþþþþþþþþþþþþþþþþþþþþþþþþþþþþþþþþÜ
                                    7122                  Ÿ  DONT PROCESS DEVICE=OLDIBM ERRORS,, (HELP ??)  Ÿ
                                    7123                  ¾þþþþþþþþþþþþþþþþþþþþþþþþþþþþþþþþþþþþþþþþþþþþþþþþþ»
                                    7124                       COMMENT                   ** DEBUG **
                                    7125              * THIS IS COPIED FROM OLD CODE, I AM NOT SURE WHAT THIS IS
                                    7126              * ALL ABOUT OR HOW IT WORKS, WHO CHECKS RETURNS ON EXTOPEN ??
                                    7127              * MOST DO NOT. MAIL DOES. SO MAYBE DSKOPEN ONLY RETURNS
                                    7128              * ERRORS FOR FILES OPENED OUTPUT ? THAT WOULD BE MAIL AND SAVE.
                                    7129              * BUT HOW DOES DSKOPEN KNOW. I DO NOT KNOW. I HAVE MERELY
                                    7130              * TRANSCRIBED. AND SOME DAY DSKOPEN (IE.OLDIBM) WILL BE HISTORY.
                                    7131              *  -- GG.SCH
 0000DE 9505 6000/4770_00000        7132                       IF    FFFOLD,BEGIN        OLDIBM ** DEBUG **
 0000E6 47F0 7198            001C8  7147  1                      B     EXTOEXIT
 0000EA                             7148                       END
                                    7152                       ¿þþþþþþþþþþþþþþþþþþþþþþþþþþþþÜ
                                    7153                       Ÿ  Process any open errors.  Ÿ
                                    7154                       ¾þþþþþþþþþþþþþþþþþþþþþþþþþþþþ»
 0000EA 12FF/4780 7198              7155                       IF    (R15,NZ),BEGIN      IF ERROR DO, EXTCLOSE
 0000F0 50F0 D000/41D0_      00000  7169  1                      XPUSH R15
 0000F8 58E0 76FC/0DEE       0072C  7172  1                      VCALL EXTCLOSE
 0000FE 4BD0 7780/58F0_      007B0  7176  1                      XPOP  R15
                                    7179  1                      COMMENT                   ** DEBUG **
                                    7180  1                      COMMENT                   TEMPORARY WINGS PATCH
                                    7181  1                      COMMENT                   FIX TO DO, FIX HERE
 000106 D507 76B8 B886_006E8 00886  7182  1                      IF    (CPERRID,EQ,'EXISTS  '),EXTOEXIT
 000110 D507 76C0 B886_006F0 00886  7202  1                      IF    (CPERRID,EQ,'NOTYOURS'),EXTOEXIT
 00011A D507 76C8 B886_006F8 00886  7222  1                      IF    (CPERRID,EQ,'DIFFVOL '),EXTOEXIT
 000124 D507 76D0 B886_00700 00886  7242  1                      IF    (CPERRID,EQ,'CHANGFMT'),EXTOEXIT
                                    7262  1
                                    7263  1                      COMMENT ** DEBUG ** SAMSON RETURNS THIS
                                    7264  1                      COMMENT ** THIS CODE WILL NOT WORK WHEN SAMSON
                                    7265  1                      COMMENT ** IS UPGRADED TO NOT USE DSN WORK AREA
                                    7266  1                      COMMENT ** FIX, FIX, FIX !!
 00012E D507 76D8 B886_00708 00886  7267  1                      IF    (CPERRID,EQ,'FEXISTS '),BEGIN
 000138 943F BD5A      00D5A        7284  2                        CLEAR CPFERROR+CPFABORT
 00013C 41F0 B050/58E0_      00050  7294  2                        TCLEAR
 000146 58E0 7704/0DEE       00734  7308  2                        VCALL SEGDSN
 00014C 4110 778E/4100_      007BE  7312  2                        TSEG  'is already '
 00015E D627 BE90 BE90_00E90 00E90  7330  2                        IF    (DSNON,Z),'TSEG "there."'
 00017A 714E/47F0 7172 0017A 00166  7369  2                        ELSE  BEGIN
 00017E 4110 7799/4100_      007C9  7380  3                          TSEG  'on '
 000190 4110 BE90/4100_      00E90  7398  3                          TSEG  DSNON,,T
 0001A2                             7426  2                        END
 0001A2 1B00/41F0 B050_             7430  2                        TCR
 0001AE 4110 779C/4100_      007CC  7455  2                        SETMSG 'Replace'
 0001B6 58E0 7714/0DEE       00744  7459  2                        VCALL YESREQ
 0001BC 9640 BD51      00D51        7463  2                        SET   CPLFLG2.CPFSCRTC    Ok to replace now
 0001C0 47F0 700A            0003A  7470  2                        B     EXTORTRY            Try it again
 0001C4                             7471  1                      END
                                    7475  1
                                    7476  1                      COMMENT                   ERRORS EXIT TO CVERROR
 0001C4 47F0 C7D6            007D6  7477  1                      B     CVERROR
 0001C8                             7478                       END
                                    7482
1EXT      (EXT2025) (12:44) (15MAR04) External Device Interface Routines                                                    Page    8
0Current Usings:  (FFINFO,R6) (*,R7) (CP,R11) (CV,R12)
0Loc    Object Code    Addr1 Addr2  Stmt Lv Lineno    Source Statement           (Hibal 5, Asmedit 3.3)  HLASM R4.0  2004/03/15 12.44
+___    ______ ____    _____ _____  ____ __ ______    ______ _________
00001C8                             7483              EXTOEXIT LABEL ,
 0001C8 18D8/9808 D004_             7485                       PEND
 DROP   *,R7
 DROP   FFINFO,R6                   7505                       DROP  R6
1EXT      (EXT2025) (12:44) (15MAR04) External Device Interface Routines                                                    Page    9
0Current Usings:  (CP,R11) (CV,R12)
0Loc    Object Code    Addr1 Addr2  Stmt Lv Lineno    Source Statement           (Hibal 5, Asmedit 3.3)  HLASM R4.0  2004/03/15 12.44
+___    ______ ____    _____ _____  ____ __ ______    ______ _________
0                                   7513              ¿þþþþþþþþþþþþþþþþþþþþþþþþþþþþþþþþþþþþþþþþþþþþþþþþþþþþþþþþþþþþþþþþþþþþþÜ
                                    7514              Ÿ                                                                     Ÿ
                                    7515              Ÿ  EXTOPENE -- Routine to open an external file.                      Ÿ
                                    7516              Ÿ                                                                     Ÿ
                                    7517              Ÿ    On entry:                                                        Ÿ
                                    7518              Ÿ      CPFINFOP - FFINFO WA (file information dsect)                  Ÿ
                                    7519              Ÿ      DSNWA contains information about the file (OLDIBM)             Ÿ
                                    7520              Ÿ                                                                     Ÿ
                                    7521              Ÿ    On exit:                                                         Ÿ
                                    7522              Ÿ      R15=0 if open ok, else non-zero                                Ÿ
                                    7523              Ÿ                                                                     Ÿ
                                    7524              Ÿ    NOTE:                                                            Ÿ
                                    7525              Ÿ    All errors are reported back to the caller in this               Ÿ
                                    7526              Ÿ    version of EXTOPEN.                                              Ÿ
                                    7527              Ÿ                                                                     Ÿ
                                                      ¾þþþþþþþþþþþþþþþþþþþþþþþþþþþþþþþþþþþþþþþþþþþþþþþþþþþþþþþþþþþþþþþþþþþþþ»
00001D6 50E0 D000/9008_      00000  7528              EXTOPENE XPROC ,
 USING  *,R7
 0001F0 58E0 7520/0DEE       00710  7568                       ACALL ZAPFINFO
 0001F6 5860 BE54            00E54  7572                       L     R6,CPFINFOP
 USING  FFINFO,R6                   7573                       USING FFINFO,R6
                                    7582
 0001FA 9180 B8AA/47E0_008AA        7583                       FAIL  CPRFEXT,BADOPEN,'External data path open error.'
 00021A 9680 B8AA      008AA        7610                       SET   CPRFEXT             External data path now active
                                    7616
 00021E 58E0 7524/0DEE       00714  7617                       VCALL LOCALTOD
 000224 5000 BF4C            00F4C  7621                       ST    R0,DSNCLCK          Save initial time of day
                                    7622
                                    7623                       COMMENT                   CALL OPEN ROUTINES
 000228 4110 6000            00000  7624                       LA    R1,FFINFO           R1 - FILE INFO DSECT
 00022C 9501 6000/4770_00000        7625                       IF     (FFFWINGS),' VCALL WGSOPEN'
 00023A 704E/47F0 705C_0023A 00232  7649                       ELSEIF (FFFUNIX),' VCALL UFSOPEN'
 00024C 7060/47F0 706E_0024C 00244  7682                       ELSEIF (FFFSAM),' VCALL SAMOPEN'
 00025E 7072/47F0 7080_0025E 00256  7715                       ELSEIF (FFFNET),' VCALL NETOPEN'
 000270 7084/47F0 7092_00270 00268  7748                       ELSEIF (FFFOLD),' VCALL DSKOPEN'
 000282 7096/47F0 70AE 00282 0027A  7781                       ELSE  BEGIN
 000286 900F C780/4DE0_      00780  7792  1                      KAPUT BADDEV,'EXTOPEN: invalid/unknown device type.'
 00029E                             7799                       END
                                    7803                       ¿þþþþþþþþþþþþþþþþþþþþþþþþþþþþþÜ
                                    7804                       Ÿ  Perform a close on error.  Ÿ
                                    7805                       ¾þþþþþþþþþþþþþþþþþþþþþþþþþþþþþ»
 00029E 12FF/4780 70CA              7806                       IF    (R15,NZ),BEGIN      IF ERROR DO, EXTCLOSE
 0002A4 50F0 D000/41D0_      00000  7820  1                      XPUSH R15
 0002AC 58E0 753C/0DEE       0072C  7823  1                      VCALL EXTCLOSE
 0002B2 4BD0 75C0/58F0_      007B0  7827  1                      XPOP  R15
 0002BA                             7830                       END
                                    7834
 0002BA 18D8/9808 D004_             7835                       PEND
 DROP   *,R7
 DROP   FFINFO,R6                   7855                       DROP  R6
1EXT      (EXT2025) (12:44) (15MAR04) External Device Interface Routines                                                    Page   10
0Current Usings:  (CP,R11) (CV,R12)
0Loc    Object Code    Addr1 Addr2  Stmt Lv Lineno    Source Statement           (Hibal 5, Asmedit 3.3)  HLASM R4.0  2004/03/15 12.44
+___    ______ ____    _____ _____  ____ __ ______    ______ _________
0                                   7863              ¿þþþþþþþþþþþþþþþþþþþþþþþþþþþþþþþþþþþþþþþþþþþþþþþþþþþþþþþþþþþþþþþþþþþþþÜ
                                    7864              Ÿ                                                                     Ÿ
                                    7865              Ÿ  EXTREAD -- Routine to read the next line from an external file.    Ÿ
                                    7866              Ÿ                                                                     Ÿ
                                    7867              Ÿ    On entry:                                                        Ÿ
                                    7868              Ÿ      R1,R0 - Line buffer location, length                           Ÿ
                                    7869              Ÿ      Device work area contains inforamation about the file.         Ÿ
                                    7870              Ÿ      DSNWA contains information about the file. (OLDIBM)            Ÿ
                                    7871              Ÿ                                                                     Ÿ
                                    7872              Ÿ    On exit, R15 (and cc):                                           Ÿ
                                    7873              Ÿ      R1,R0 - text location length                                   Ÿ
                                    7874              Ÿ      R2 - line number                                               Ÿ
                                    7875              Ÿ      R15=ZERO - line read.  R15=NZ, end of file.                    Ÿ
                                    7876              Ÿ                                                                     Ÿ
                                                      ¾þþþþþþþþþþþþþþþþþþþþþþþþþþþþþþþþþþþþþþþþþþþþþþþþþþþþþþþþþþþþþþþþþþþþþ»
00002C8 50E0 D000/9008_      00000  7877              EXTREAD  XPROC
 USING  *,R7
 0002E2 58E0 742E/0DEE       00710  7917                       ACALL ZAPFINFO
 0002E8 5860 BE54            00E54  7921                       L     R6,CPFINFOP
 USING  FFINFO,R6                   7922                       USING FFINFO,R6
 0002EC 9001 D000/41D0_      00000  7931                       XPUSH R0,R1
                                    7934                       ¿þþþþþþþþþþþþþþþþþþþþþþþþþþþþþþþþþþþþþþþþþþþþþþþþþþþÜ
                                    7935                       Ÿ  Give "in progress" status message if requested.  Ÿ
                                    7936                       ¾þþþþþþþþþþþþþþþþþþþþþþþþþþþþþþþþþþþþþþþþþþþþþþþþþþþ»
 0002F4 9108 BF37/47E0_00F37        7937                       IF    DSNFSTAT,BEGIN      Give status message...
 0002FC 58E0 7432/0DEE       00714  7952  1                      VCALL LOCALTOD
 000302 5B00 BF4C            00F4C  7956  1                      S     R0,DSNCLCK          Number of seconds (roughly)
 000306 5900 7466/4740_      00748  7957  1                      IF    (R0,LT,10),EXIT     Wait a bit longer, scram
                                    7977  1
 00030E 4110 74F1/4100_      007D3  7978  1                      TSEG  '('
 000320 5810 BF50/1B00_      00F50  7996  1                      TNUM  L:DSNLCNT
 000330 5820 BF54/1222_      00F54  8018  1                      IF    ('LT R2,DSNLTOT',NZ),'TSEG " of "; TNUM (R2)'
 00035A 4110 7472/4100_      00754  8079  1                      TSEG  ' lines read so far) '
 00036C 4110 74F2/4100_      007D4  8097  1                      TSEG  X'0D'               (CR)
 00037E 41F0 B050/58E0_      00050  8115  1                      TMARK ,                   (Avoid automatic NL)
 000388 1B00/41F0 B050_             8129  1                      TWRITE
                                    8154  1
 000394 9608 BC7D      00C7D        8155  1                      SET   CPFSTMSG            Status message needs erasing
 000398 58E0 7432/0DEE       00714  8161  1                      VCALL LOCALTOD
 00039E 5000 BF4C            00F4C  8165  1                      ST    R0,DSNCLCK          Save the current clock
 0003A2                             8166                       END
                                    8170                       ¿þþþþþþþþþþþþþþþþþþþþþþþþþþþþþþþþþþþþþþÜ
                                    8171                       Ÿ  Call the appropriate read routine.  Ÿ
                                    8172                       ¾þþþþþþþþþþþþþþþþþþþþþþþþþþþþþþþþþþþþþþ»
 0003A2 4BD0 74D6/9801_      007B8  8173                       XPOP   R0,R1
 0003AA 9501 6000/4770_00000        8176                       IF     (FFFWINGS),' VCALL WGSREAD'
 0003B8 70DA/47F0 70E8_003B8 003B0  8200                       ELSEIF (FFFUNIX),' VCALL UFSREAD'
 0003CA 70EC/47F0 70FA_003CA 003C2  8233                       ELSEIF (FFFSAM),' VCALL SAMREAD'
 0003DC 70FE/47F0 710C_003DC 003D4  8266                       ELSEIF (FFFNET),' VCALL NETREAD'
 0003EE 7110/47F0 711E_003EE 003E6  8299                       ELSEIF (FFFOLD),' VCALL DSKREAD'
 000400 7122/47F0 713A 00400 003F8  8332                       ELSE  BEGIN
 000404 900F C780/4DE0_      00780  8343  1                      KAPUT BADDEV,'EXTREAD: invalid/unknown device type.'
 00041C                             8350                       END
1EXT      (EXT2025) (12:44) (15MAR04) External Device Interface Routines                                                    Page   11
0Current Usings:  (FFINFO,R6) (*,R7) (CP,R11) (CV,R12)
0Loc    Object Code    Addr1 Addr2  Stmt Lv Lineno    Source Statement           (Hibal 5, Asmedit 3.3)  HLASM R4.0  2004/03/15 12.44
+___    ______ ____    _____ _____  ____ __ ______    ______ _________
0                                   8354
 00041C 4770 714A/4130_      0042C  8355                       IF    Z,'INCR R3,DSNLCNT'  Lines read count
                                    8377
 00042C 9002 8004            00004  8378                       PRETURN (R0,R2)
 000430 18D8/9808 D004_             8380                       PEND
 DROP   *,R7
 DROP   FFINFO,R6                   8400                       DROP  R6
                                    8407
1EXT      (EXT2025) (12:44) (15MAR04) External Device Interface Routines                                                    Page   12
0Current Usings:  (CP,R11) (CV,R12)
0Loc    Object Code    Addr1 Addr2  Stmt Lv Lineno    Source Statement           (Hibal 5, Asmedit 3.3)  HLASM R4.0  2004/03/15 12.44
+___    ______ ____    _____ _____  ____ __ ______    ______ _________
0                                   8409              ¿þþþþþþþþþþþþþþþþþþþþþþþþþþþþþþþþþþþþþþþþþþþþþþþþþþþþþþþþþþþþþþþþþþþþþÜ
                                    8410              Ÿ                                                                     Ÿ
                                    8411              Ÿ  EXTWRITE -- Routine to write the next line to an external file.    Ÿ
                                    8412              Ÿ                                                                     Ÿ
                                    8413              Ÿ    On entry:                                                        Ÿ
                                    8414              Ÿ      R1,R0 - line text location, length                             Ÿ
                                    8415              Ÿ      R2 - line number                                               Ÿ
                                    8416              Ÿ      Device work area contains information about the file.          Ÿ
                                    8417              Ÿ      DSNWA contains information about the file. (OLDIBM)            Ÿ
                                    8418              Ÿ                                                                     Ÿ
                                    8419              Ÿ    Only returns if ok.                                              Ÿ
                                    8420              Ÿ                                                                     Ÿ
                                                      ¾þþþþþþþþþþþþþþþþþþþþþþþþþþþþþþþþþþþþþþþþþþþþþþþþþþþþþþþþþþþþþþþþþþþþþ»
000043E 50E0 D000/9008_      00000  8421              EXTWRITE XPROC
 USING  *,R7
 000458 58E0 72B8/0DEE       00710  8461                       ACALL ZAPFINFO
 00045E 5860 BE54            00E54  8465                       L     R6,CPFINFOP
 USING  FFINFO,R6                   8466                       USING FFINFO,R6
                                    8475                       ¿þþþþþþþþþþþþþþþþþþþþþþþþþþþþþþþþþþþþþþþÜ
                                    8476                       Ÿ  Call the appropriate write routine.  Ÿ
                                    8477                       ¾þþþþþþþþþþþþþþþþþþþþþþþþþþþþþþþþþþþþþþþ»
 000462 9501 6000/4770_00000        8478                       IF     (FFFWINGS),' VCALL WGSWRITE'
 000470 701C/47F0 702A_00470 00468  8502                       ELSEIF (FFFUNIX),' VCALL UFSWRITE'
 000482 702E/47F0 703C_00482 0047A  8535                       ELSEIF (FFFSAM),' VCALL SAMWRITE'
 000494 7040/47F0 704E_00494 0048C  8568                       ELSEIF (FFFNET),' VCALL NETWRITE'
 0004A6 7052/47F0 7060_004A6 0049E  8601                       ELSEIF (FFFOLD),' VCALL DSKWRITE'
 0004B8 7064/47F0 707C 004B8 004B0  8634                       ELSE  BEGIN
 0004BC 900F C780/4DE0_      00780  8645  1                      KAPUT BADDEV,'EXTWRITE: invalid/unknown device type.'
 0004D4                             8652                       END
                                    8656
 0004D4 4120 0001/5E20_      00001  8657                       INCR  R2,DSNLCNT          Count the lines written
                                    8663                       ¿þþþþþþþþþþþþþþþþþþþþþþþþþþþþþþþþþþþþþþþþþþþþþþþþþþþÜ
                                    8664                       Ÿ  Give "in progress" status message if requested.  Ÿ
                                    8665                       ¾þþþþþþþþþþþþþþþþþþþþþþþþþþþþþþþþþþþþþþþþþþþþþþþþþþþ»
 0004E0 9108 BF37/47E0_00F37        8666                       IF    DSNFSTAT,BEGIN      Give status message...
 0004E8 58E0 72BC/0DEE       00714  8681  1                      VCALL LOCALTOD
 0004EE 5B00 BF4C            00F4C  8685  1                      S     R0,DSNCLCK          Number of seconds (roughly)
 0004F2 5900 72F0/4740_      00748  8686  1                      IF    (R0,LT,10),EXIT     Wait a bit longer, scram
                                    8706  1
 0004FA 4110 737B/4100_      007D3  8707  1                      TSEG  '('
 00050C 5810 BF50/1B00_      00F50  8725  1                      TNUM  L:DSNLCNT
 00051C 5820 BF54/1222_      00F54  8747  1                      IF    ('LT R2,DSNLTOT',NZ),'TSEG " of "; TNUM (R2)'
 000546 4110 737D/4100_      007D5  8808  1                      TSEG  ' lines written so far) '
 000558 4110 737C/4100_      007D4  8826  1                      TSEG  X'0D'               (CR)
 00056A 41F0 B050/58E0_      00050  8844  1                      TMARK ,                   (Avoid automatic NL)
 000574 1B00/41F0 B050_             8858  1                      TWRITE
                                    8883  1
 000580 9608 BC7D      00C7D        8884  1                      SET   CPFSTMSG            Status message needs erasing
 000584 58E0 72BC/0DEE       00714  8890  1                      VCALL LOCALTOD
 00058A 5000 BF4C            00F4C  8894  1                      ST    R0,DSNCLCK          Save the current clock
 00058E                             8895                       END
                                    8899
 00058E 18D8/9808 D004_             8900                       PEND
1EXT      (EXT2025) (12:44) (15MAR04) External Device Interface Routines                                                    Page   13
0Current Usings:  (FFINFO,R6) (CP,R11) (CV,R12)
0Loc    Object Code    Addr1 Addr2  Stmt Lv Lineno    Source Statement           (Hibal 5, Asmedit 3.3)  HLASM R4.0  2004/03/15 12.44
+___    ______ ____    _____ _____  ____ __ ______    ______ _________
0DROP   *,R7
 DROP   FFINFO,R6                   8920                       DROP  R6
                                    8927
1EXT      (EXT2025) (12:44) (15MAR04) External Device Interface Routines                                                    Page   14
0Current Usings:  (CP,R11) (CV,R12)
0Loc    Object Code    Addr1 Addr2  Stmt Lv Lineno    Source Statement           (Hibal 5, Asmedit 3.3)  HLASM R4.0  2004/03/15 12.44
+___    ______ ____    _____ _____  ____ __ ______    ______ _________
0                                   8929              ¿þþþþþþþþþþþþþþþþþþþþþþþþþþþþþþþþþþþþþþþþþþþþþþþþþþþþþþþþþþþþþþþþþþþþþÜ
                                    8930              Ÿ                                                                     Ÿ
                                    8931              Ÿ  EXTCLOSE -- Routine to close an external file.                     Ÿ
                                    8932              Ÿ                                                                     Ÿ
                                    8933              Ÿ  ON ENTRY:                                                          Ÿ
                                    8934              Ÿ      Device work area contains information about the file.          Ÿ
                                    8935              Ÿ      DSNWA contains information about the file. (OLDIBM)            Ÿ
                                    8936              Ÿ                                                                     Ÿ
                                    8937              Ÿ  ON EXIT:                                                           Ÿ
                                    8938              Ÿ    R15=ZERO, all ok.  always returned.                              Ÿ
                                    8939              Ÿ                                                                     Ÿ
                                    8940              Ÿ  NOTE:                                                              Ÿ
                                    8941              Ÿ  EXTCLOSE routine should be robust.  It should be able to           Ÿ
                                    8942              Ÿ  be called more than once to close the same file without            Ÿ
                                    8943              Ÿ  complaining.  In effect, it should never return R15=NZ.            Ÿ
                                    8944              Ÿ                                                                     Ÿ
                                    8945              Ÿ                                                                     Ÿ
                                                      ¾þþþþþþþþþþþþþþþþþþþþþþþþþþþþþþþþþþþþþþþþþþþþþþþþþþþþþþþþþþþþþþþþþþþþþ»
000059C 50E0 D000/9008_      00000  8946              EXTCLOSE XPROC
 USING  *,R7
 0005B6 58E0 715A/0DEE       00710  8986                       ACALL ZAPFINFO
 0005BC 5860 BE54            00E54  8990                       L     R6,CPFINFOP
 USING  FFINFO,R6                   8991                       USING FFINFO,R6
                                    9000
 0005C0 9180 B8AA/47E0_008AA        9001                       IF    CPRFEXT,BEGIN       Only close if already open...
 0005C8 947F B8AA      008AA        9016  1                      CLEAR CPRFEXT             Indicate no longer owned
                                    9023  1
 0005CC 9501 6000/4770_00000        9024  1                      IF     (FFFWINGS),' VCALL WGSCLOSE'
 0005DA 7028/47F0 7036_005DA 005D2  9048  1                      ELSEIF (FFFUNIX),' VCALL UFSCLOSE'
 0005EC 703A/47F0 7048_005EC 005E4  9081  1                      ELSEIF (FFFSAM),' VCALL SAMCLOSE'
 0005FE 704C/47F0 705A_005FE 005F6  9114  1                      ELSEIF (FFFNET),' VCALL NETCLOSE'
 000610 705E/47F0 706C_00610 00608  9147  1                      ELSEIF (FFFOLD),' VCALL DSKCLOSE'
 000622 7070/47F0 7088 00622 0061A  9180  1                      ELSE  BEGIN
 000626 900F C780/4DE0_      00780  9191  2                        KAPUT BADDEV,'EXTCLOSE: invalid/unknown device type.'
 00063E                             9198  1                      END
                                    9202  1                      ¿þþþþþþþþþþþþþþþþþþþþþþþþþþþþþþþþþþþþþþÜ
                                    9203  1                      Ÿ  Erase status message if necessary.  Ÿ
                                    9204  1                      ¾þþþþþþþþþþþþþþþþþþþþþþþþþþþþþþþþþþþþþþ»
 00063E 9108 BC7D/47E0_00C7D        9205  1                      IF    CPFSTMSG,BEGIN      Erase status message...
                                    9220  2           *
                                    9221  2           * TPUSH the current terminal buffer, so that our blanking
                                    9222  2           * of the status message doesn't wipe out any final
                                    9223  2           * message from the command which did the EXTOPEN. This can
                                    9224  2           * happen, for example, if a USE aborts with > 999999 lines.
                                    9225  2           *
 000646 18ED/41D0 D43C_             9226  2                        TPUSH ,
 00067A 94F7 BC7D      00C7D        9264  2                        CLEAR CPFSTMSG            Turn off status message flag
 00067E 4110 721E/4100_      007D4  9271  2                        TSEG  X'0D'               CR (no LF)
 000690 4110 C4D8/4100_      004D8  9289  2                        TSEG  CVBLANKS,50         Blank out message
 0006A2 4110 721E/4100_      007D4  9319  2                        TSEG  X'0D'               CR (no LF)
 0006B4 41F0 B050/58E0_      00050  9337  2                        TMARK ,                   (Avoid automatic NL)
 0006BE 1B00/41F0 B050_             9351  2                        TWRITE
 0006CA 4BD0 7206/D23B_      007BC  9376  2                        TPOP  JUNK
1EXT      (EXT2025) (12:44) (15MAR04) External Device Interface Routines                                                    Page   15
0Current Usings:  (FFINFO,R6) (*,R7) (CP,R11) (CV,R12)
0Loc    Object Code    Addr1 Addr2  Stmt Lv Lineno    Source Statement           (Hibal 5, Asmedit 3.3)  HLASM R4.0  2004/03/15 12.44
+___    ______ ____    _____ _____  ____ __ ______    ______ _________
00006D4                             9381  1                      END
 0006D4                             9385                       END
 0006D4 1BFF                        9389                       CLEAR R15                 FOR NOW ALL OK
 0006D6 18D8/9808 D004_             9393                       PEND
 DROP   *,R7
 DROP   FFINFO,R6                   9413                       DROP  R6
                                    9420
                                    9421                       QLTORG
                                    9485              *
                                    9486              *  ZAPFINFO -
                                    9487              *
                                    9488              *  TEMP ZAP, UNTIL NEW DATA SET NAME SCANNING IN PLACE.
                                    9489              *  MAKE SURE FFTYPE FLAG EXITS AND IS SET.  WE SET
                                    9490              *  BASED ON DSNDTYPE IF FFTYPE FLAG IS NOT SET.
                                    9491              *
                                    9492              *
 0007EC 50E0 D000/9008_      00000  9493              ZAPFINFO PROC  ,
 USING  *,R7
                                    9532
                                    9533                       COMMENT                   IF NO FFINFO WA, MAKE ONE
 000806 58E0 70CA/0DEE       008D0  9534                       VCALL MKFFINFO
 00080C 5860 BE54            00E54  9538                       L     R6,CPFINFOP
 USING  FFINFO,R6                   9539                       USING FFINFO,R6
                                    9548
                                    9549                       COMMENT                   IF NO FFTYPE, SET ONE
 000810 9500 6000/4770_00000        9550                       IF    (FFTYPE,EQ,0),BEGIN
 000818 9501 BF3B/4770_00F3B        9568  1                      IF    (DSNDTYPE,EQ,1),' SET FFFOLD'
 000824 9502 BF3B/4770_00F3B        9597  1                      IF    (DSNDTYPE,EQ,2),' SET FFFSAM'
 000830 9503 BF3B/4770_00F3B        9626  1                      IF    (DSNDTYPE,EQ,3),' SET FFFNET'
 00083C                             9655                       END
                                    9659
 00083C 18D8/9808 D004_             9660                       PEND
 DROP   *,R7
 DROP   FFINFO,R6                   9680                       DROP  R6
                                    9687                       AGO   .SKIP2
                                    9688              .SKIP2   ANOP
1EXT      (EXT2025) (12:44) (15MAR04) External Device Interface Routines                                                    Page   16
0Current Usings:  (CP,R11) (CV,R12)
0Loc    Object Code    Addr1 Addr2  Stmt Lv Lineno    Source Statement           (Hibal 5, Asmedit 3.3)  HLASM R4.0  2004/03/15 12.44
+___    ______ ____    _____ _____  ____ __ ______    ______ _________
0                                   9690              ¿þþþþþþþþþþþþþþþþþþþþþþþþþþþþþþþþþþþþþþþþþþþþþþþþþþþþþþþþþþþþþþþþþþþþþÜ
                                    9691              Ÿ                                                                     Ÿ
                                    9692              Ÿ  FINDDEV -- Routine to find the user's device entry, given it's     Ÿ
                                    9693              Ÿ    name.                                                            Ÿ
                                    9694              Ÿ                                                                     Ÿ
                                    9695              Ÿ    On entry:                                                        Ÿ
                                    9696              Ÿ      R1,R0 - device name loc, len                                   Ÿ
                                    9697              Ÿ                                                                     Ÿ
                                    9698              Ÿ    On exit, R15 (and cc):                                           Ÿ
                                    9699              Ÿ      0 = ok (R0=device number, R1=DEV entry ptr)                    Ÿ
                                    9700              Ÿ      4 = not found                                                  Ÿ
                                    9701              Ÿ                                                                     Ÿ
                                                      ¾þþþþþþþþþþþþþþþþþþþþþþþþþþþþþþþþþþþþþþþþþþþþþþþþþþþþþþþþþþþþþþþþþþþþþ»
000084A 50E0 D000/9008_      00000  9702              FINDDEV  XPROC ,
 USING  *,R7
 000864 D207 BC88 C4D8 00C88 004D8  9742                       MVC   CPDOUB,CVBLANKS
 00086A 5900 7070/47D0_      008D4  9743                       CEIL  R0,8
 000876 18F0                        9762                       LR    R15,R0
 000878 06F0/12FF/4740_             9763                       MOVE  R15,CPDOUB,@R1      Save device name
                                    9801
 000884 1BFF                        9802                       CLEAR R15                 Assume good RC
                                    9806
 000886 1B00                        9807                       CLEAR R0
 000888 4110 BAB0            00AB0  9811                       LA    R1,CPDEVTBL
 00088C 4900 BAAC/47B0_      00AAC  9812                       WHILE (R0,LT,CPDEVCNT),BEGIN
 USING  DEV,R1                      9831  1                      WITH  (DEV,R1)
 000894 D507 1002 BC88_00002 00C88  9844  1                      IF    (DEVNAME,EQ,CPDOUB),FDEVEXIT
 00089E D507 1002 BC88_00002 00C88  9865  1                      IF    (DEVNAME,GT,CPDOUB),EXIT
 0008A8 4110 100C            0000C  9886  1                      LA    R1,DEVNEXT
 0008AC 5A00 C4D0            004D0  9887  1                      A     R0,CVONE
 0008B0 47F0 7028            0088C  9888                       END
 DROP   DEV,R1
                                    9898
 0008B4 41F0 0004            00004  9899                       LA    R15,4               Not found
 0008B8                             9900              FDEVEXIT LABEL ,
 0008B8 9001 8004            00004  9902                       PRETURN (R0,R1)
 0008BC 18D8/9808 D004_             9904                       PEND  ,
 DROP   *,R7
                                    9924                       QLTORG
                                    9938
                                    9939                       VLTORG
                                    9952
 000998                00998 00998  9953                       END   .

1EXT      (EXT2025) (12:44) (15MAR04) Relocation Dictionary                                                                 Page   17
-   Pos.Id   Rel.Id   Flags    Address                                                       HLASM R4.0  2004/03/15 12.44
0  00000001 00000001    08    00000057
   00000001 00000001    08    000000DB
   00000001 00000001    08    00000217
   00000001 00000001    08    0000029B
   00000001 00000001    08    00000419
   00000001 00000001    08    000004D1
   00000001 00000001    08    0000063B
   00000001 00000001    0C    00000710
   00000001 00000002    1C    00000714
   00000001 00000003    1C    00000718
   00000001 00000004    1C    0000071C
   00000001 00000005    1C    00000720
   00000001 00000006    1C    00000724
   00000001 00000007    1C    00000728
   00000001 00000008    1C    0000072C
   00000001 00000009    1C    00000730
   00000001 0000000A    1C    00000734
   00000001 0000000B    1C    00000738
   00000001 0000000C    1C    0000073C
   00000001 0000000D    1C    00000740
   00000001 0000000E    1C    00000744
   00000001 0000000F    1C    0000074C
   00000001 00000010    1C    00000768
   00000001 00000011    1C    0000076C
   00000001 00000012    1C    00000770
   00000001 00000013    1C    00000774
   00000001 00000014    1C    00000778
   00000001 00000015    1C    0000077C
   00000001 00000016    1C    00000780
   00000001 00000017    1C    00000784
   00000001 00000018    1C    00000788
   00000001 00000019    1C    0000078C
   00000001 0000001A    1C    00000790
   00000001 0000001B    1C    00000794
   00000001 0000001C    1C    00000798
   00000001 0000001D    1C    0000079C
   00000001 0000001E    1C    000007A0
   00000001 0000001F    1C    000007A4
   00000001 00000020    1C    000007A8
   00000001 00000021    1C    000007AC
   00000001 00000022    1C    000008D0

1EXT      (EXT2025) (12:44) (15MAR04) Ordinary Symbol and Literal Cross Reference                                           Page   18
-Symbol   Length   Value     Id    R Type   Defn References                                  HLASM R4.0  2004/03/15 12.44
0$$$@R0        1 00000000 FFFFFFFE     J     705 1018
 $$$@R10       1 00000000 FFFFFFF4     J     835 1082
 $$$@R11       1 00000000 FFFFFFF3     J     848 1095
 $$$@R12       1 00000000 FFFFFFF2     J     861 1108
 $$$@R13       1 00000000 FFFFFFF1     J     874 1121
 $$$@R14       1 00000000 FFFFFFF0     J     887 1134
 $$$@R7        1 00000000 FFFFFFF7     J     796 1031
 $$$@R8        1 00000000 FFFFFFF6     J     809 1044  1056
 $$$@R9        1 00000000 FFFFFFF5     J     822 1069
 $$$C1WYLEXT
               1 000007EC 00000001     J    9480 9482  9795
 $$$C2WYLEXT
               1 000008DE 00000001     J    9933 9935
 $$$C3WYLEXT
               1 00000998 00000001     J    9956 9958
 $$$D1WYLEXT
               1 000008D8 00000001     J    9481 9784
 $$$RCP        1 00000000 FFFFFFEC     J    2452 4712  6186  6186
 $$$RCV        1 00000000 FFFFFFEE     J    1177 2362  2362
 $$$RDEV       1 00000000 FFFFFFEB     J    4666 4711  4711
 $$$RFFINFO
               1 00000000 FFFFFFE8     J    6605 6814  6814
 $$$RJCB       1 00000000 FFFFFFE9     J    6304 6578  6578
 $$$RNSCNCB
               1 00000000 FFFFFFED     J    2373 2446  2446
 $$$RTTYPE
               1 00000000 FFFFFFEA     J    6197 6298  6298
 $$$SEGCB0
               4 00000050 FFFFFFEC     F    2483 2569  2569
 $$$V01       30 000008DE 00000001     C    9945 6923  7605
 $$$V02       37 000008FC 00000001     C    9946 7116  7798
 $$$V03       37 00000921 00000001     C    9947 8349
 $$$V04       38 00000946 00000001     C    9948 8651
 $$$V05       38 0000096C 00000001     C    9949 9197
 $$$100B       4 000003AE 00000001     I    8186 8203
 $$$100F       2 000003B8 00000001     H    8199 8186B 8202
 $$$101B       4 000003C0 00000001     I    8219 8236
 $$$101E       2 000003BC 00000001     H    8210 8204
 $$$101F       2 000003CA 00000001     H    8232 8206B 8219B 8235
 $$$103B       4 000003D2 00000001     I    8252 8269
 $$$103E       2 000003CE 00000001     H    8243 8237
 $$$103F       2 000003DC 00000001     H    8265 8239B 8252B 8268
 $$$105B       4 000003E4 00000001     I    8285 8302
 $$$105E       2 000003E0 00000001     H    8276 8270
 $$$105F       2 000003EE 00000001     H    8298 8272B 8285B 8301
 $$$107B       4 000003F6 00000001     I    8318 8334
 $$$107E       2 000003F2 00000001     H    8309 8303
 $$$107F       2 00000400 00000001     H    8331 8305B 8318B 8333
 $$$109E       2 00000404 00000001     H    8341 8335
 $$$109F       2 0000041C 00000001     H    8353 8337B
 $$$110F       2 0000042C 00000001     H    8376 8361B
 $$$111        1 00000050 00000001 A   U    8397 8394  8396
 $$$113B       1 00000458 00000001     X    8445 8452U
 $$$114B       4 00000466 00000001     I    8488 8505
 $$$114F       2 00000470 00000001     H    8501 8488B 8504
1EXT      (EXT2025) (12:44) (15MAR04) Ordinary Symbol and Literal Cross Reference                                           Page   19
 $$$115B       4 00000478 00000001     I    8521 8538
 $$$115E       2 00000474 00000001     H    8512 8506
 $$$115F       2 00000482 00000001     H    8534 8508B 8521B 8537
 $$$117B       4 0000048A 00000001     I    8554 8571
 $$$117E       2 00000486 00000001     H    8545 8539
 $$$117F       2 00000494 00000001     H    8567 8541B 8554B 8570
 $$$119B       4 0000049C 00000001     I    8587 8604
 $$$119E       2 00000498 00000001     H    8578 8572
 $$$119F       2 000004A6 00000001     H    8600 8574B 8587B 8603
 $$$121B       4 000004AE 00000001     I    8620 8636
 $$$121E       2 000004AA 00000001     H    8611 8605
 $$$121F       2 000004B8 00000001     H    8633 8607B 8620B 8635
 $$$123E       2 000004BC 00000001     H    8643 8637
 $$$123F       2 000004D4 00000001     H    8655 8639B
 $$$124F       2 0000058E 00000001     H    8898 8676B 8700B
 $$$126F       2 00000546 00000001     H    8807 8758B
 $$$127        1 00000050 00000001 A   U    8917 8914  8916
 $$$129B       1 000005B6 00000001     X    8970 8977U
 $$$130F       2 000006D4 00000001     H    9388 9011B
 $$$131B       4 000005D0 00000001     I    9034 9051
 $$$131F       2 000005DA 00000001     H    9047 9034B 9050
 $$$132B       4 000005E2 00000001     I    9067 9084
 $$$132E       2 000005DE 00000001     H    9058 9052
 $$$132F       2 000005EC 00000001     H    9080 9054B 9067B 9083
 $$$134B       4 000005F4 00000001     I    9100 9117
 $$$134E       2 000005F0 00000001     H    9091 9085
 $$$134F       2 000005FE 00000001     H    9113 9087B 9100B 9116
 $$$136B       4 00000606 00000001     I    9133 9150
 $$$136E       2 00000602 00000001     H    9124 9118
 $$$136F       2 00000610 00000001     H    9146 9120B 9133B 9149
 $$$138B       4 00000618 00000001     I    9166 9182
 $$$138E       2 00000614 00000001     H    9157 9151
 $$$138F       2 00000622 00000001     H    9179 9153B 9166B 9181
 $$$140E       2 00000626 00000001     H    9189 9183
 $$$140F       2 0000063E 00000001     H    9201 9185B
 $$$141F       2 000006D4 00000001     H    9384 9215B
 $$$142        1 00000050 00000001 A   U    9410 9407  9409
 $$$144B       1 00000806 00000001     X    9516 9523U
 $$$145F       2 0000083C 00000001     H    9658 9563B
 $$$146F       2 00000824 00000001     H    9596 9581B
 $$$147F       2 00000830 00000001     H    9625 9610B
 $$$148F       2 0000083C 00000001     H    9654 9639B
 $$$149        1 00000050 00000001 A   U    9677 9674  9676
 $$$151B       1 00000864 00000001     X    9726 9733U
 $$$152F       2 00000876 00000001     H    9761 9752B
 $$$153F       2 00000884 00000001     H    9800 9776B
 $$$154        6 000008D8 00000001     I    9790 9782X
 $$$155        6 000008D8 00000001     I    9789 9790  9790
 $$$156F       2 000008B4 00000001     H    9897 9826B 9880B
 $$$156S       2 0000088C 00000001     H    9817 9896B
 $$$160        1 00000050 00000001 A   U    9921 9918  9920
 $$$57B        1 00000030 00000001     X    6869 6876U
 $$$58F        2 0000005A 00000001     H    6927 6912B
 $$$59B        4 00000070 00000001     I    6953 6970
 $$$59F        2 0000007A 00000001     H    6966 6953B 6969
 $$$60B        4 00000082 00000001     I    6986 7003
 $$$60E        2 0000007E 00000001     H    6977 6971
 $$$60F        2 0000008C 00000001     H    6999 6973B 6986B 7002
 $$$62B        4 00000094 00000001     I    7019 7036
1EXT      (EXT2025) (12:44) (15MAR04) Ordinary Symbol and Literal Cross Reference                                           Page   20
 $$$62E        2 00000090 00000001     H    7010 7004
 $$$62F        2 0000009E 00000001     H    7032 7006B 7019B 7035
 $$$64B        4 000000A6 00000001     I    7052 7069
 $$$64E        2 000000A2 00000001     H    7043 7037
 $$$64F        2 000000B0 00000001     H    7065 7039B 7052B 7068
 $$$66B        4 000000B8 00000001     I    7085 7101
 $$$66E        2 000000B4 00000001     H    7076 7070
 $$$66F        2 000000C2 00000001     H    7098 7072B 7085B 7100
 $$$68E        2 000000C6 00000001     H    7108 7102
 $$$68F        2 000000DE 00000001     H    7120 7104B
 $$$69F        2 000000EA 00000001     H    7151 7142B
 $$$70F        2 000001C8 00000001     H    7481 7164B
 $$$75F        2 000001C4 00000001     H    7474 7279B
 $$$76B        4 00000164 00000001     I    7341 7371
 $$$76F        2 0000017A 00000001     H    7368 7341B 7370
 $$$77E        2 0000017E 00000001     H    7378 7372
 $$$77F        2 000001A2 00000001     H    7429 7374B
 $$$79         1 00000050 00000001 A   U    7502 7499  7501
 $$$81B        1 000001F0 00000001     X    7552 7559U
 $$$82F        2 0000021A 00000001     H    7609 7594B
 $$$83B        4 00000230 00000001     I    7635 7652
 $$$83F        2 0000023A 00000001     H    7648 7635B 7651
 $$$84B        4 00000242 00000001     I    7668 7685
 $$$84E        2 0000023E 00000001     H    7659 7653
 $$$84F        2 0000024C 00000001     H    7681 7655B 7668B 7684
 $$$86B        4 00000254 00000001     I    7701 7718
 $$$86E        2 00000250 00000001     H    7692 7686
 $$$86F        2 0000025E 00000001     H    7714 7688B 7701B 7717
 $$$88B        4 00000266 00000001     I    7734 7751
 $$$88E        2 00000262 00000001     H    7725 7719
 $$$88F        2 00000270 00000001     H    7747 7721B 7734B 7750
 $$$90B        4 00000278 00000001     I    7767 7783
 $$$90E        2 00000274 00000001     H    7758 7752
 $$$90F        2 00000282 00000001     H    7780 7754B 7767B 7782
 $$$92E        2 00000286 00000001     H    7790 7784
 $$$92F        2 0000029E 00000001     H    7802 7786B
 $$$93F        2 000002BA 00000001     H    7833 7815B
 $$$94         1 00000050 00000001 A   U    7852 7849  7851
 $$$96B        1 000002E2 00000001     X    7901 7908U
 $$$97F        2 000003A2 00000001     H    8169 7947B 7971B
 $$$99F        2 0000035A 00000001     H    8078 8029B
 @RAR          0 00000000 FFFFFFF0     @    1135 2160  2168B
 @R0           0 00000000 FFFFFFFE     @     706  982U
 @R1           0 00000000 FFFFFFFD     @     719  978U 2166  2167  9789  9893U
 @R10          0 00000000 FFFFFFF4     @     836  942U
 @R11          0 00000000 FFFFFFF3     @     849  938U
 @R12          0 00000000 FFFFFFF2     @     862  934U
 @R13          0 00000000 FFFFFFF1     @     875  930U 9380
 @R14          0 00000000 FFFFFFF0     @     888  926U 9231M 9263
 @R15          0 00000000 FFFFFFEF     @     901  922U
 @R2           0 00000000 FFFFFFFC     @     732  974U
 @R3           0 00000000 FFFFFFFB     @     745  970U
 @R4           0 00000000 FFFFFFFA     @     758  966U
 @R5           0 00000000 FFFFFFF9     @     771  962U
 @R6           0 00000000 FFFFFFF8     @     784  958U 7510U 7860U 8405U 8925U 9418U 9685U
 @R7           0 00000000 FFFFFFF7     @     797  954U 7491U 7841U 8386U 8906U 9399U 9666U 9910U
 @R8           0 00000000 FFFFFFF6     @     810  950U
 @R9           0 00000000 FFFFFFF5     @     823  946U
 ABSCENT       1 00000000 00000000 A   T    2176 2176
1EXT      (EXT2025) (12:44) (15MAR04) Ordinary Symbol and Literal Cross Reference                                           Page   21
 ASCTBL        1 00000000 00000000 A   T    2184 2184
 BLTBL         1 00000000 00000000 A   T    2186 2186
 BR            7 00000007 00000001 A   #    1025 6864M 7547M 7896M 8440M 8965M 9511M 9721M
 CHECKIOB      1 00000000 00000000 A   T    2232 2232
 COMMAND       1 00000000 00000000 A   T    2172 2172
 COMMSEG       1 00000000 00000000 A   T    2173 2173
 CP         4096 00000000 FFFFFFEC     J    6186 1161U
 CP#XSTK       1 00000010 FFFFFFEC A   U    3918 3919
 CPACFLG       1 000005D5 FFFFFFEC     R    4021 4025  4030  4035  4040  4045
 CPACFLN       4 000005C4 FFFFFFEC     F    4013 4048  4048
 CPAFLAG       1 000005C3 FFFFFFEC     R    3985 3989  3994  3999  4004
 CPANAME       8 00000588 FFFFFFEC     C    3967 4063  4063
 CPAUTFLG      1 000008A9 FFFFFFEC     R    4331 4335  4340  4345  4350
 CPCHFLAG      1 00000B68 FFFFFFEC     R    4958 4962
 CPDEVCNT      2 00000AAC FFFFFFEC     H    4716 9825
 CPDEVTBL     24 00000AB0 FFFFFFEC     X    4719 9811
 CPDFLG        1 0000084C FFFFFFEC     R    4218 4222  4227  4232  4237  4242
 CPDFLG2       1 0000084D FFFFFFEC     R    4247 4251  4256  4261  4266  4271  4276
 CPDOUB        8 00000C88 FFFFFFEC     D    5204 9742M 9789M 9856  9877
 CPERRID       8 00000886 FFFFFFEC     C    4317 7193  7213  7233  7253  7278
 CPEXFLG       1 00000758 FFFFFFEC     R    4087 4091
 CPEXFLG2      1 00000759 FFFFFFEC     R    4097 4106  4116
 CPEXFLG3      1 0000075A FFFFFFEC     R    4123 4127  4132
 CPEXTFLG      1 00000E28 FFFFFFEC     R    5769 5773  5778  5783  5788  5793  5798
 CPFABORT    128 00000D5A FFFFFFEC         5535 2136M 2136  2141M 2141  7292  7292
 CPFERROR     64 00000D5A FFFFFFEC         5540 2135M 2135  2140M 2140  7292  7292  7293M
 CPFINFOP      4 00000E54 FFFFFFEC     A    5817 6889  7572  7921  8465  8990  9538
 CPFNTEX       1 00000040 FFFFFFEC A   U    5387 5388
 CPFRDRNG      1 00000D88 FFFFFFEC     R    5655 5659  5664  5669  5674  5679  5684  5689
 CPFRDSRC      1 00000D89 FFFFFFEC     R    5694 5703  5713  5723
 CPFSCRTC      1 00000040 FFFFFFEC A   U    5310 7467
 CPFSTMSG      8 00000C7D FFFFFFEC         5183 8160M 8889M 9214  9270M
 CPFUNUM       1 00000080 FFFFFFEC A   U    5386 5388
 CPFXDFLG      1 000007E4 FFFFFFEC     R    4165 4169  4174
 CPGFLG1       1 00000474 FFFFFFEC     R    3528 3532  3537  3542  3547  3552  3882  3882
 CPGFLG10      1 0000047D FFFFFFEC     R    3765 3769  3774  3779  3784  3789  3794
 CPGFLG11      1 0000047E FFFFFFEC     R    3800 3804  3809
 CPGFLG12      1 0000047F FFFFFFEC     R    3815 3819  3824  3829
 CPGFLG13      1 00000480 FFFFFFEC     R    3835 3839
 CPGFLG14      1 00000481 FFFFFFEC     R    3845 3849  3854  3859  3864  3869
 CPGFLG4       1 00000477 FFFFFFEC     R    3581 3592  3601  3610  3619  3628
 CPGFLG5       1 00000478 FFFFFFEC     R    3634 3638  3643  3648  3653  3658  3663  3668  3673
 CPGFLG6       1 00000479 FFFFFFEC     R    3679 3683  3688  3693
 CPGFLG7       1 0000047A FFFFFFEC     R    3699 3703  3708  3713  3718
 CPGFLG8       1 0000047B FFFFFFEC     R    3724 3728  3733  3738  3743
 CPGFLG9       1 0000047C FFFFFFEC     R    3749 3753  3759
 CPINIT        1 00000174 FFFFFFEC     U    2698 6155
 CPJESFLG      1 000009E1 FFFFFFEC     R    4430 4434  4439  4444  4449  4454  4459  4464  4469
 CPJESFLY      1 000009FD FFFFFFEC     R    4480 4484  4489  4494
 CPJESHFL      1 000009E0 FFFFFFEC     R    4415 4419  4424  4503  4503
 CPLFLG10      1 00000D59 FFFFFFEC     R    5521 5525
 CPLFLG11      1 00000D5A FFFFFFEC     R    5531 5535  5540  5545  5550
 CPLFLG12      1 00000D5B FFFFFFEC     R    5556 5560
 CPLFLG14      1 00000D5C FFFFFFEC     R    5566 5570  5575  5580  5585  5590
 CPLFLG2       1 00000D51 FFFFFFEC     R    5308 7469M
 CPLFLG6       1 00000D55 FFFFFFEC     R    5396 5400  5405  5410  5415  5420  5425
 CPLFLG7       1 00000D56 FFFFFFEC     R    5431 5435  5440  5445  5450  5455
 CPLFLG8       1 00000D57 FFFFFFEC     R    5461 5465  5470  5475  5480
 CPLFLG9       1 00000D58 FFFFFFEC     R    5486 5490  5495  5500  5505  5510  5515
1EXT      (EXT2025) (12:44) (15MAR04) Ordinary Symbol and Literal Cross Reference                                           Page   22
 CPLOCALZ      1 00000C48 FFFFFFEC     U    4988 6149  6149
 CPMFLG        1 0000084F FFFFFFEC     R    4285 4289
 CPMODFLG      1 00000C78 FFFFFFEC     R    5016 5020  5025  5030  5035  5040
 CPNAMELN      1 00000010 FFFFFFEC A   U    3911 4158
 CPNEDPFX     10 00000E29 FFFFFFEC     X    5802 5803  5804
 CPNUMFLG      1 00000C79 FFFFFFEC     R    5046 5058
 CPORVCMD      1 00000140 FFFFFFEC     R    2580 2584  2589  2594  2599  2604  2609  2614  2619  2624  2624  2675  2675
 CPORVFLG      1 00000149 FFFFFFEC     R    2631 2635  2640  2645  2650  2655  2660  2665  2670
 CPORVWF       1 00000150 FFFFFFEC     R    2683 2687
 CPOSCANX      4 00000CA8 FFFFFFEC     F    5215 5282  5282
 CPR          11 0000000B 00000001 A   #    1089 1161U
 CPRACBAD     16 000001FC FFFFFFEC         2749 2783  2783  2784  2784
 CPRACF1       1 000001FC FFFFFFEC     R    2730 2734  2739  2744  2749  2754  2759  2764  2769  2785
 CPRACPSW     32 000001FC FFFFFFEC         2744 2782  2782  2784  2784
 CPRACUND     64 000001FC FFFFFFEC         2739 2782  2782  2783  2783
 CPRCVCUR      4 00000730 FFFFFFEC     A    4066 4068  4068
 CPRFEXT     128 000008AA FFFFFFEC         4360 6911  6933M 7593  7615M 9010  9022M
 CPRFLG        1 000008AA FFFFFFEC     R    4356 4360  4365  4370  4375  4380  4385
 CPS         254 00000344 FFFFFFEC     X    3500 3503  3504  3506  3506
 CPSACCT       5 000003B4 FFFFFFEC     C    3099 3262  3262
 CPSAMCOD      1 00000A22 FFFFFFEC     R    4552 4560  4570  4580  4589  4598  4607  4617  4626  4635
 CPSAMFLG      1 00000A21 FFFFFFEC     R    4512 4516  4521  4526  4531  4536  4541  4546  4657  4657
 CPSCNFLG      1 00000CD0 FFFFFFEC     R    5228 5239  5248  5259
 CPSCNF2       1 00000CD1 FFFFFFEC     R    5264 5268
 CPSCNMAX      1 00000014 FFFFFFEC A   U    5280 5281
 CPSCRI        2 00000434 FFFFFFEC     H    3489 3494  3494
 CPSEG        60 00000050 FFFFFFEC     X    2569 7303  7325  7360  7393  7421  7450  7991  8013  8048  8070  8092  8110
                                                 8124  8149  8720  8742  8777  8799  8821  8839  8853  8878  9230  9231
                                                 9231  9235  9255  9263  9284  9314  9332  9346  9371  9380M 9473
 CPSEGCOD      1 00000050 FFFFFFEC     R    2486 2495  2505  2515  2525  2535  2545  2555
 CPSEGRTN      4 00000074 FFFFFFEC     A    2566 9263M 9263
 CPSFL         1 00000384 FFFFFFEC     R    2837 2841  2846  2851  2856  2861
 CPSFLG        1 000003F8 FFFFFFEC     R    3377 3381  3386  3391  3396  3401  3406  3411  3416
 CPSFLG2       1 000003F9 FFFFFFEC     R    3422 3426  3431  3436
 CPSFL2        1 00000385 FFFFFFEC     R    2867 2871  2876  2881  2886
 CPSFL3        1 00000386 FFFFFFEC     R    2892 2896  2901  2906
 CPSFL4        1 00000387 FFFFFFEC     R    2912 2916  2921  2926
 CPSFL5        1 00000388 FFFFFFEC     R    2932 2936  2941  2946
 CPSKAFL       1 000003BF FFFFFFEC     R    3233 3237  3242  3247  3252  3257
 CPSKIFL       1 000003BE FFFFFFEC     R    3188 3192  3197  3202  3207  3212  3217  3222  3227
 CPSOF         1 000001F8 FFFFFFEC     X    2720 2722  2722
 CPSOFLAG      1 00000416 FFFFFFEC     R    3447 3451  3456  3461  3466  3471
 CPSOPST       4 000003C4 FFFFFFEC     F    3267 3496  3496
 CPSPORT       8 00000354 FFFFFFEC     C    2831 2951  2951
 CPSQFLG       1 000003EC FFFFFFEC     R    3296 3300
 CPSSFLG       1 000003BB FFFFFFEC     R    3106 3110  3115  3120  3125  3130  3135
 CPSSTART      4 00000344 FFFFFFEC     F    2823 2827  2827  3263  3263  3368  3368  3500  3500
 CPSSTAT       1 0000038F FFFFFFEC     R    3043 3047  3052  3057  3062  3067  3072  3077
 CPSTACF       1 000003BC FFFFFFEC     R    3141 3145  3150  3155  3160  3165  3170  3175  3180
 CPSTART       4 00000000 FFFFFFEC     C    2459 6153  6157
 CPSTFLAG      1 000003EA FFFFFFEC     R    3274 3278  3283  3288
 CPSTYPE       1 0000038C FFFFFFEC     R    2956 2965  2975  2985  2995  3005  3015  3025  3035
 CPSUFLG       1 000003EE FFFFFFEC     R    3311 3315  3320  3325  3330  3335  3340  3345  3350
 CPSUFLG2      1 000003EF FFFFFFEC     R    3356 3360  3365
 CPSVPGM       8 0000039C FFFFFFEC     C    3089 3095  3095
 CPS1ST        4 0000038C FFFFFFEC     F    2953 3498  3498
 CPTEMPP#      1 0000005F FFFFFFEC A   U    4406 4408
 CPTRMFL1      1 00000C7A FFFFFFEC     R    5064 5068  5073  5078  5202  5202
 CPTRMFL2      1 00000C7B FFFFFFEC     R    5084 5088  5093  5098  5103  5108  5113
1EXT      (EXT2025) (12:44) (15MAR04) Ordinary Symbol and Literal Cross Reference                                           Page   23
 CPTRMFL3      1 00000C7C FFFFFFEC     R    5119 5123  5128  5133  5138  5143  5148  5153
 CPTRMFL4      1 00000C7D FFFFFFEC     R    5159 5163  5168  5173  5178  5183  5188  5193
 CPUSED        1 00000FBC FFFFFFEC A   U    6153 6154
 CPVACURS      8 00000AF0 FFFFFFEC     D    4931 4932  4933
 CPVCURS       8 00000AE0 FFFFFFEC     D    4925 4926  4927
 CPVFLAG       1 00000AC8 FFFFFFEC     R    4726 4730  4735  4740  4745  4750
 CPVFLAG2      1 00000AC9 FFFFFFEC     R    4756 4760  4765  4770  4775  4780  4785
 CPVFLAG3      1 00000ACA FFFFFFEC     R    4791 4795  4800  4805  4810  4815  4820
 CPVFLAG4      1 00000ACB FFFFFFEC     R    4826 4830  4835  4840
 CPVLFLAG      1 00000ACE FFFFFFEC     R    4895 4899  4904  4909
 CPVMODE       1 00000ACC FFFFFFEC     R    4848 4852  4857  4862  4867  4872  4877  4882  4887
 CPVTWID       2 00000AD0 FFFFFFEC     H    4915 4918  4918
 CPWK1         4 00000D60 FFFFFFEC     F    5599 5614  5637
 CPWK2         4 00000D64 FFFFFFEC     F    5600 5615  5629
 CPWK3         4 00000D68 FFFFFFEC     F    5601 5616  5630
 CPWK4         4 00000D6C FFFFFFEC     F    5602 5617  5631
 CPWK5         4 00000D70 FFFFFFEC     F    5603 5619  5624  5632
 CPWK6         4 00000D74 FFFFFFEC     F    5604 5620  5625  5633  5640  5642
 CPWK7         4 00000D78 FFFFFFEC     F    5605 5618  5634
 CPXFLAG       1 000007FD FFFFFFEC     R    4193 4197
 CPXSTATE      4 000007F8 FFFFFFEC     F    4187 4200  4200
 CV         4016 00000000 FFFFFFEE     J    2362 1170U
 CVABSRTN      4 0000088C FFFFFFEE     V    2176 2151
 CVBLANKS    235 000004D8 FFFFFFEE     C    1956 9299  9742
 CVBRMSK       1 00000751 FFFFFFEE     X    2092 2093  2094
 CVCFLAG       1 00000A00 FFFFFFEE     R    2257 2261  2266  2271  2276  2281
 CVCHKST       8 000009F0 FFFFFFEE     D    2247 2337  2337
 CVCHKST2      8 00000E28 FFFFFFEE     D    2340 2343  2343
 CVCOMRTN      4 0000087C FFFFFFEE     V    2172 2142
 CVDBGFLG      1 000004CC FFFFFFEE     R    1946 1950
 CVENT         4 0000074C FFFFFFEE     I    2090 6864B 7547B 7896B 8440B 8965B 9511B 9721B
 CVENTBR       2 00000750 FFFFFFEE     I    2091 2092
 CVERROR       4 000007D6 FFFFFFEE     I    2140 2156B 7477B
 CVEXIRTN      4 0000077C FFFFFFEE     V    2120 2116
 CVFCHRKBPR
               8 000004C9 FFFFFFEE         1861 1877  1877
 CVFCHRKBSE
               4 000004C9 FFFFFFEE         1866 1877  1877
 CVFCHRKCPR
               2 000004C9 FFFFFFEE         1883 1899  1899
 CVFCHRKCSE
               1 000004C9 FFFFFFEE         1888 1899  1899
 CVFCHRUBPR
             128 000004C9 FFFFFFEE         1817 1833  1833
 CVFCHRUBSE
              64 000004C9 FFFFFFEE         1822 1833  1833
 CVFCHRUCPR
              32 000004C9 FFFFFFEE         1839 1855  1855
 CVFCHRUCSE
              16 000004C9 FFFFFFEE         1844 1855  1855
 CVFL          1 000004C4 FFFFFFEE     R    1613 1617  1622  1627  1632  1637  1642  1647  1652
 CVFL2         1 000004C5 FFFFFFEE     R    1658 1662  1667  1672  1677  1682  1687  1692  1697
 CVFL3         1 000004C6 FFFFFFEE     R    1703 1707  1712  1717  1722  1727  1732  1737  1742
 CVFL4         1 000004C7 FFFFFFEE     R    1748 1752  1757  1762  1767  1772  1777  1782
 CVFL5         1 000004C8 FFFFFFEE     R    1788 1792  1797  1802  1807
 CVFL6         1 000004C9 FFFFFFEE     R    1813 1817  1822  1834  1839  1844  1856  1861  1866  1878  1883  1888  1900
 CVHEAP#       1 00000200 FFFFFFEE A   U    1519 1520
 CVINVRTN      4 00000888 FFFFFFEE     V    2175 2145
 CVJESFLG      1 000004CA FFFFFFEE     R    1906 1910
1EXT      (EXT2025) (12:44) (15MAR04) Ordinary Symbol and Literal Cross Reference                                           Page   24
 CVLNKRGS      4 00000780 FFFFFFEE     F    2122 2097M 2123  6920M 7113M 7602M 7795M 8346M 8648M 9194M
 CVLNKRTN      4 000007B0 FFFFFFEE     U    2123 2112M
 CVLOCK1       1 00000088 FFFFFFEE     R    1264 1268  1273
 CVLOCK2       1 00000089 FFFFFFEE     R    1278 1282
 CVLOCK3       1 0000008A FFFFFFEE     R    1287 1291
 CVLOCK4       1 0000008B FFFFFFEE     R    1296 1300
 CVLOGMOD      1 00000068 FFFFFFEE     R    1251 1255
 CVMACH        1 00000067 FFFFFFEE     R    1211 1215  1220  1225  1230  1235  1240  1245
 CVMILRTN      4 00000884 FFFFFFEE     V    2174 2154
 CVNOARTN      4 00000890 FFFFFFEE     V    2177 2148
 CVNWDATE      4 00000608 FFFFFFEE     F    1979 1983  1983
 CVNWMPG#      1 00000008 FFFFFFEE A   U    1981 1982
 CVONE         4 000004D0 FFFFFFEE     F    1954 9887
 CVPFXRTN      1 00000000 00000000 A   T    2120 2120
 CVPGFLAG      1 00000A01 FFFFFFEE     R    2287 2291  2296  2301
 CVPIOSZ       1 00004F80 FFFFFFEE A   U    1350 1352
 CVPPDBQH      4 0000009C FFFFFFEE     A    1308 1309
 CVPSFNO       1 000003E9 FFFFFFEE A   N    1472 1474
 CVPSLNO       1 000007CF FFFFFFEE A   N    1473 1474
 CVPXSZ        1 00000008 FFFFFFEE A   U    1351 1352
 CVR          12 0000000C 00000001 A   #    1102 1170U
 CVRKEY        1 00000008 FFFFFFEE A   U    2045 2046
 CVSEGRTN      4 00000880 FFFFFFEE     V    2173 2137
 CVSTACK#      1 00000080 FFFFFFEE A   U    1511 1512
 CVSTART       4 00000000 FFFFFFEE     C    1184 2355
 CVTRC         4 00000768 FFFFFFEE     I    2112 2098B 6921B 7114B 7603B 7796B 8347B 8649B 9195B
 CVTRCRTN      4 00000778 FFFFFFEE     V    2119 2113
 CVUSFNO       1 00000001 FFFFFFEE A   N    1479 1481
 CVUSLNO       1 000003E7 FFFFFFEE A   N    1480 1481
 CVVOL#        1 00000005 FFFFFFEE A   U    2330 2331
 CVWTOFLG      1 000004CB FFFFFFEE     R    1916 1920  1925  1930  1935  1940
 DEBUGSG       1 00000000 00000000 A   T    2073 2073
 DEV          12 00000000 FFFFFFEB     J    4711 4719  9840U
 DEVMAX#       1 00000002 FFFFFFEC A   U    4662 4719
 DEVNAME       8 00000002 FFFFFFEB     C    4702 9856  9877
 DEVNEXT       4 0000000C FFFFFFEB     F    4704 9886
 DEVTYPE       1 00000001 FFFFFFEB     R    4679 4688  4698
 DOTTBL        1 00000000 00000000 A   T    2189 2189
 DRENCFLG      1 00000F9F FFFFFFEC     R    6117 6121  6126  6131  6136  6141
 DRENPROT      1 00000F9E FFFFFFEC     R    6104 6112
 DSKCLOSE      1 00000000 00000020     T    9467 9467
 DSKOPEN       1 00000000 00000007     T    9439 9439
 DSKREAD       1 00000000 00000016     T    9457 9457
 DSKWRITE      1 00000000 0000001B     T    9462 9462
 DSNCLCK       4 00000F4C FFFFFFEC     F    6065 6939M 7621M 7956  8165M 8685  8894M
 DSNDTYPE      1 00000F3B FFFFFFEC     X    6050 9580  9609  9638
 DSNFSTAT      8 00000F37 FFFFFFEC         5916 7946  8675
 DSNLCNT       4 00000F50 FFFFFFEC     F    6066 8001  8371  8372M 8661  8662M 8730
 DSNLTOT       4 00000F54 FFFFFFEC     F    6067 8027  8756
 DSNON        40 00000E90 FFFFFFEC     C    5837 5838  7340M 7340  7408  7413
 DSNWADSN     44 00000E5C FFFFFFEC     C    5824 5825  5826  5827  5836  5844  6075  6081  6083  6089  6092  6094  6097
                                                 6146
 DSNWAF4       1 00000F37 FFFFFFEC     R    5892 5896  5901  5906  5911  5916  5921  5926  5931
 DSNWAF5       1 00000F38 FFFFFFEC     R    5937 5941  5946  5951  5956  5961  5966  5971  5976
 DSNWAF6       1 00000F39 FFFFFFEC     R    5982 5986  5991  5996  6001  6006  6011  6016  6021
 DSNWAF7       1 00000F3A FFFFFFEC     R    6027 6031  6036  6041  6046
 DSNXG         1 00000004 FFFFFFEC A   U    5829 5831
 DSNXGL        1 00000003 FFFFFFEC A   U    5830 5831
 DSNXU         1 00000007 FFFFFFEC A   U    5831 5833
1EXT      (EXT2025) (12:44) (15MAR04) Ordinary Symbol and Literal Cross Reference                                           Page   25
 DSNXUL        1 00000004 FFFFFFEC A   U    5832 5833
 DSSIZ         1 00000108 FFFFFFEC A   U    6075 6083  6092  6097
 EBCTBL        1 00000000 00000000 A   T    2185 2185
 EBCTBL7       1 00000000 00000000 A   T    2188 2188
 ECBLIST       1 00000000 00000000 A   T    2048 2048
 EPARTBL       1 00000000 00000000 A   T    2180 2180
 EXTCLOSE      2 0000059C 00000001     H    8951 8947
 EXTCLOSE      1 00000000 00000008     T    9440 9440
 EXTOEXIT      2 000001C8 00000001     H    7484 7147B 7196B 7216B 7236B 7256B
 EXTOPEN       2 00000016 00000001     H    6850 6846
 EXTOPENE      2 000001D6 00000001     H    7533 7529
 EXTORTRY      2 0000003A 00000001     H    6903 7470B
 EXTREAD       2 000002C8 00000001     H    7882 7878
 EXTWRITE      2 0000043E 00000001     H    8426 8422
 EXT2025       1 00000000 00000001     R    1002 1000
 FDEVEXIT      2 000008B8 00000001     H    9901 9859B
 FFFNET        4 00000000 FFFFFFE8         6652 7051  7733  8284  8586  9132  9650M
 FFFOLD        5 00000000 FFFFFFE8         6662 7084  7141  7766  8317  8619  9165  9592M
 FFFSAM        3 00000000 FFFFFFE8         6642 7018  7700  8251  8553  9099  9621M
 FFFUNIX       2 00000000 FFFFFFE8         6632 6985  7667  8218  8520  9066
 FFFWINGS      1 00000000 FFFFFFE8         6622 6952  7634  8185  8487  9033
 FFINFO      928 00000000 FFFFFFE8     J    6814 6897U 6942  7580U 7624  7929U 8473U 8998U 9546U
 FFMISC        1 00000002 FFFFFFE8     R    6711 6715  6720  6725  6730  6735
 FFPTYPE       1 00000003 FFFFFFE8     R    6740 6749  6759  6769  6779  6789
 FFRQTYPE      1 00000001 FFFFFFE8     R    6667 6676  6686  6696  6706
 FFTYPE        1 00000000 FFFFFFE8     R    6613 6622  6632  6642  6652  6662  9562
 FINDDEV       2 0000084A 00000001     H    9707 9703
 FSR           0 00000000 00000001 A   #    1012 6859  7499M 7542  7849M 7891  8379M 8394M 8435  8914M 8960  9407M 9506
                                                 9674M 9716  9903M 9918M
 HIBAL         1 00000000 FFFFFFFF     J     691  707   720   733   746   759   772   785   798   811   824   837   850
                                                  863   876   889   902
 INVALID       1 00000000 00000000 A   T    2175 2175
 JCBAFL        1 00000062 FFFFFFE9     R    6423 6427  6432  6437  6442  6447  6452  6457  6462
 JCBBFL        1 00000063 FFFFFFE9     R    6468 6472  6477  6482  6487  6492  6497  6502
 JCBBILLX      8 00000088 FFFFFFE9     D    6553 6561  6561
 JCBRSCF1      1 00000064 FFFFFFE9     R    6508 6512  6517  6522
 JCBSFLG1      1 00000065 FFFFFFE9     R    6528 6532  6537
 JCBWFL        1 00000060 FFFFFFE9     R    6352 6356  6361  6366  6371  6376  6381  6386  6391  6419
 JCBWWFL       1 00000061 FFFFFFE9     R    6397 6401  6406  6411  6416
 LOCALTOD      1 00000000 00000002     T    9434 9434
 LOWTBL        1 00000000 00000000 A   T    2183 2183
 LSR           8 00000008 00000001 A   #    1050 6859  7499M 7542  7849M 7891  8394M 8435  8914M 8960  9407M 9506  9674M
                                                 9716  9918M
 MILERR        1 00000000 00000000 A   T    2174 2174
 MKFFINFO      1 00000000 00000022     T    9931 9931
 NBLTBL        1 00000000 00000000 A   T    2187 2187
 NETCLOSE      1 00000000 0000001F     T    9466 9466
 NETOPEN       1 00000000 00000006     T    9438 9438
 NETREAD       1 00000000 00000015     T    9456 9456
 NETWRITE      1 00000000 0000001A     T    9461 9461
 NOACTION      1 00000000 00000000 A   T    2177 2177
 NPARTBL       1 00000000 00000000 A   T    2181 2181
 NSCNCB      176 00000000 FFFFFFED     J    2446 2572
 NSCNFLGS      1 00000008 FFFFFFED     R    2383 2387  2392
 NSCNTYPE      1 00000018 FFFFFFED     R    2401 2405  2410  2415  2420  2425
 RAR          14 0000000E 00000001 A   #    1128 2112  2113M 2114B 2116M 2117B 2137M 2138B 2142M 2143B 2145M 2146B 2148M
                                                 2149B 2151M 2152B 2154M 2155M 2155B 2161  6856  6887M 6888M 6888B 6937M
                                                 6938M 6938B 6961M 6962M 6962B 6994M 6995M 6995B 7027M 7028M 7028B 7060M
                                                 7061M 7061B 7093M 7094M 7094B 7174M 7175M 7175B 7306M 7307M 7307B 7310M
1EXT      (EXT2025) (12:44) (15MAR04) Ordinary Symbol and Literal Cross Reference                                           Page   26
                                                 7311M 7311B 7328M 7329M 7329B 7363M 7364M 7364B 7396M 7397M 7397B 7424M
                                                 7425M 7425B 7453M 7454M 7454B 7461M 7462M 7462B 7501M 7504B 7539  7570M
                                                 7571M 7571B 7619M 7620M 7620B 7643M 7644M 7644B 7676M 7677M 7677B 7709M
                                                 7710M 7710B 7742M 7743M 7743B 7775M 7776M 7776B 7825M 7826M 7826B 7851M
                                                 7854B 7888  7919M 7920M 7920B 7954M 7955M 7955B 7994M 7995M 7995B 8016M
                                                 8017M 8017B 8051M 8052M 8052B 8073M 8074M 8074B 8095M 8096M 8096B 8113M
                                                 8114M 8114B 8127M 8128M 8128B 8152M 8153M 8153B 8163M 8164M 8164B 8194M
                                                 8195M 8195B 8227M 8228M 8228B 8260M 8261M 8261B 8293M 8294M 8294B 8326M
                                                 8327M 8327B 8396M 8399B 8432  8463M 8464M 8464B 8496M 8497M 8497B 8529M
                                                 8530M 8530B 8562M 8563M 8563B 8595M 8596M 8596B 8628M 8629M 8629B 8683M
                                                 8684M 8684B 8723M 8724M 8724B 8745M 8746M 8746B 8780M 8781M 8781B 8802M
                                                 8803M 8803B 8824M 8825M 8825B 8842M 8843M 8843B 8856M 8857M 8857B 8881M
                                                 8882M 8882B 8892M 8893M 8893B 8916M 8919B 8957  8988M 8989M 8989B 9042M
                                                 9043M 9043B 9075M 9076M 9076B 9108M 9109M 9109B 9141M 9142M 9142B 9174M
                                                 9175M 9175B 9258M 9259M 9259B 9287M 9288M 9288B 9317M 9318M 9318B 9335M
                                                 9336M 9336B 9349M 9350M 9350B 9374M 9375M 9375B 9409M 9412B 9503  9536M
                                                 9537M 9537B 9676M 9679B 9713  9920M 9923B
 R0            0 00000000 FFFFFFFF A   #     699 2097  2166M 6920  6939  7113  7317M 7352M 7385M 7413M 7442M 7442  7458M
                                                 7602  7621  7795  7932  7933  7933  7933  7956M 7968  7983M 8005M 8005
                                                 8040M 8062M 8062  8084M 8102M 8141M 8141  8165  8175M 8346  8379  8379M
                                                 8648  8685M 8697  8712M 8734M 8734  8769M 8791M 8791  8813M 8831M 8870M
                                                 8870  8894  9194  9236M 9276M 9306M 9324M 9363M 9363  9471  9471  9471
                                                 9745  9757M 9762  9810M 9810  9825  9887M 9903  9903M
 R1            1 00000001 FFFFFFFF A   #     712 2160M 2161M 2167M 6942M 7316M 7351M 7384M 7408M 7457M 7624M 7932  7933
                                                 7933  7933  7982M 8001M 8039M 8058M 8083M 8101M 8175M 8711M 8730M 8768M
                                                 8787M 8812M 8830M 9233  9234  9234  9234  9235M 9262M 9275M 9299M 9323M
                                                 9471  9471  9471  9472  9472  9472  9811M 9840U 9886M 9903
 R12          12 0000000C FFFFFFFF A   #     855 2123
 R14          14 0000000E FFFFFFFF A   #     881 2098M 6921M 7114M 7603M 7796M 8347M 8649M 9195M 9229M 9233  9234  9234
                                                 9234  9235  9262M 9472  9472  9472
 R15          15 0000000F FFFFFFFF A   #     894 2097  6920  7113  7163M 7163  7170  7178M 7303M 7325M 7360M 7393M 7421M
                                                 7450M 7503M 7503  7602  7795  7814M 7814  7821  7829M 7853M 7853  7991M
                                                 8013M 8048M 8070M 8092M 8110M 8124M 8149M 8346  8398M 8398  8648  8720M
                                                 8742M 8777M 8799M 8821M 8839M 8853M 8878M 8918M 8918  9194  9255M 9284M
                                                 9314M 9332M 9346M 9371M 9392M 9392  9411M 9411  9678M 9678  9762M 9766M
                                                 9775M 9775  9782  9805M 9805  9899M 9922M 9922
 R2            2 00000002 FFFFFFFF A   #     725 8027M 8028M 8028  8058  8379  8660M 8661M 8662  8756M 8757M 8757  8787
 R3            3 00000003 FFFFFFFF A   #     738 8370M 8371M 8372
 R6            6 00000006 FFFFFFFF A   #     777 6889M 6897U 7572M 7580U 7921M 7929U 8465M 8473U 8990M 8998U 9538M 9546U
 R7            7 00000007 FFFFFFFF A   #     790 2090M 2090  2091B 2103B
 SAMCLOSE      1 00000000 0000001E     T    9465 9465
 SAMOPEN       1 00000000 00000005     T    9437 9437
 SAMREAD       1 00000000 00000014     T    9455 9455
 SAMWRITE      1 00000000 00000019     T    9460 9460
 SDSNQSZ       1 0000002C FFFFFFEC A   U    6078 6079  6080
 SEG           1 00000000 0000000B     T    9443 9443
 SEGCLR        1 00000000 00000009     T    9441 9441
 SEGCR         1 00000000 0000000D     T    9445 9445
 SEGDC         1 00000000 0000000F     T    9448 9448
 SEGDSN        1 00000000 0000000A     T    9442 9442
 SEGINIT       1 00000000 00000021     T    9468 9468
 SEGMARK       1 00000000 00000010     T    9451 9451
 SEGT          1 00000000 0000000C     T    9444 9444
 SEGWR         1 00000000 00000011     T    9452 9452
 SPR          13 0000000D 00000001 A   #    1115 6856  6859  6860  6861M 6861  7495M 7499  7501  7539  7542  7543  7544M
                                                 7544  7845M 7849  7851  7888  7891  7892  7893M 7893  8390M 8394  8396
                                                 8432  8435  8436  8437M 8437  8910M 8914  8916  8957  8960  8961  8962M
                                                 8962  9403M 9407  9409  9503  9506  9507  9508M 9508  9670M 9674  9676
                                                 9713  9716  9717  9718M 9718  9914M 9918  9920
1EXT      (EXT2025) (12:44) (15MAR04) Ordinary Symbol and Literal Cross Reference                                           Page   27
 TRC           1 00000000 00000000 A   T    2119 2119
 TTYFLAG       1 00000004 FFFFFFEA     R    6207 6211
 TTYMAX#       1 00000006 FFFFFFEA A   U    6263 6264
 TTYTFLAG      1 00000005 FFFFFFEA     R    6217 6221  6226  6231  6236  6241  6246  6251
 UFSCLOSE      1 00000000 0000001D     T    9464 9464
 UFSOPEN       1 00000000 00000004     T    9436 9436
 UFSREAD       1 00000000 00000013     T    9454 9454
 UFSWRITE      1 00000000 00000018     T    9459 9459
 UPPTBL        1 00000000 00000000 A   T    2182 2182
 WAR           8 00000008 00000001 A   #    1038 6860M 7495  7543M 7845  7892M 8379  8390  8436M 8910  8961M 9403  9507M
                                                 9670  9717M 9903  9914
 WGSCLOSE      1 00000000 0000001C     T    9463 9463
 WGSOPEN       1 00000000 00000003     T    9435 9435
 WGSREAD       1 00000000 00000012     T    9453 9453
 WGSWRITE      1 00000000 00000017     T    9458 9458
 WTOSG         1 00000000 00000000 A   T    2079 2079
 WYLEXT        1 00000000 00000001     J     992  994  1020  1033  1046  1058  1071  1084  1097  1110  1123  1136  2363
                                                 2447  6187  6299  6579  6584  6815
 YESREQ        1 00000000 0000000E     T    9446 9446
 ZAPFINFO      2 000007EC 00000001     H    9497 9433
 =A(ZAPFINFO)
               4 00000710 00000001     A    9433 6887  7570  7919  8463  8988
 =A(10)        4 00000748 00000001     A    9447 7968  8697
 =A(8)         4 000008D4 00000001     A    9932 9745  9757
 =C' lines read so far) '
              20 00000754 00000001     C    9450 8083
 =C' lines written so far) '
              23 000007D5 00000001     C    9479 8812
 =C' of '      4 00000750 00000001     C    9449 8039  8768
 =C'('         1 000007D3 00000001     C    9477 7982  8711
 =C'is already '
              11 000007BE 00000001     C    9474 7316
 =C'on '       3 000007C9 00000001     C    9475 7384
 =C'there.'
               6 000007B2 00000001     C    9470 7351
 =C'CHANGFMT'
               8 00000700 00000001     C    9431 7253
 =C'DIFFVOL '
               8 000006F8 00000001     C    9430 7233
 =C'EXISTS  '
               8 000006E8 00000001     C    9428 7193
 =C'FEXISTS '
               8 00000708 00000001     C    9432 7278
 =C'NOTYOURS'
               8 000006F0 00000001     C    9429 7213
 =C'Replace'
               7 000007CC 00000001     C    9476 7457
 =V(DSKCLOSE)
               4 000007A8 00000001     V    9467 9174
 =V(DSKOPEN)
               4 00000728 00000001     V    9439 7093  7775
 =V(DSKREAD)
               4 00000780 00000001     V    9457 8326
 =V(DSKWRITE)
               4 00000794 00000001     V    9462 8628
 =V(EXTCLOSE)
               4 0000072C 00000001     V    9440 7174  7825
 =V(LOCALTOD)
               4 00000714 00000001     V    9434 6937  7619  7954  8163  8683  8892
1EXT      (EXT2025) (12:44) (15MAR04) Ordinary Symbol and Literal Cross Reference                                           Page   28
 =V(MKFFINFO)
               4 000008D0 00000001     V    9931 9536
 =V(NETCLOSE)
               4 000007A4 00000001     V    9466 9141
 =V(NETOPEN)
               4 00000724 00000001     V    9438 7060  7742
 =V(NETREAD)
               4 0000077C 00000001     V    9456 8293
 =V(NETWRITE)
               4 00000790 00000001     V    9461 8595
 =V(SAMCLOSE)
               4 000007A0 00000001     V    9465 9108
 =V(SAMOPEN)
               4 00000720 00000001     V    9437 7027  7709
 =V(SAMREAD)
               4 00000778 00000001     V    9455 8260
 =V(SAMWRITE)
               4 0000078C 00000001     V    9460 8562
 =V(SEG)       4 00000738 00000001     V    9443 7328  7363  7396  7994  8051  8095  8113  8723  8780  8824  8842  9287
                                                 9317  9335
 =V(SEGCLR)
               4 00000730 00000001     V    9441 7306
 =V(SEGCR)
               4 00000740 00000001     V    9445 7453
 =V(SEGDC)
               4 0000074C 00000001     V    9448 8016  8073  8745  8802
 =V(SEGDSN)
               4 00000734 00000001     V    9442 7310
 =V(SEGINIT)
               4 000007AC 00000001     V    9468 9258
 =V(SEGMARK)
               4 00000768 00000001     V    9451 8127  8856  9349
 =V(SEGT)      4 0000073C 00000001     V    9444 7424
 =V(SEGWR)
               4 0000076C 00000001     V    9452 8152  8881  9374
 =V(UFSCLOSE)
               4 0000079C 00000001     V    9464 9075
 =V(UFSOPEN)
               4 0000071C 00000001     V    9436 6994  7676
 =V(UFSREAD)
               4 00000774 00000001     V    9454 8227
 =V(UFSWRITE)
               4 00000788 00000001     V    9459 8529
 =V(WGSCLOSE)
               4 00000798 00000001     V    9463 9042
 =V(WGSOPEN)
               4 00000718 00000001     V    9435 6961  7643
 =V(WGSREAD)
               4 00000770 00000001     V    9453 8194
 =V(WGSWRITE)
               4 00000784 00000001     V    9458 8496
 =V(YESREQ)
               4 00000744 00000001     V    9446 7461
 =X'0D'        1 000007D4 00000001     X    9478 8101  8830  9275  9323
 =Y((L'CPSEG+1024+3)/4*4)
               2 000007BC 00000001     Y    9473 9379
 =Y((R1+1-(R0)+16*((R0)/(R1+1))/((R0)/(R1+1)))*4)
               2 000007B8 00000001     Y    9471 8174
 =Y((R1+1-(R14)+16*((R14)/(R1+1))/((R14)/(R1+1)))*4)
1EXT      (EXT2025) (12:44) (15MAR04) Ordinary Symbol and Literal Cross Reference                                           Page   29
               2 000007BA 00000001     Y    9472 9261
 =Y(4)         2 000007B0 00000001     Y    9469 7177  7828

1EXT      (EXT2025) (12:44) (15MAR04) Macro and Copy Code Source Summary                                                    Page   30
- Con Source                                        Volume    Members                        HLASM R4.0  2004/03/15 12.44
0     PRIMARY INPUT                                           CSECT    DROP     END      EX       LTORG    POP
                                                              PRINT    PUSH     START    USING
   L1 WYL.GS.WYL.WYLBUR.MACLIB                      SYSB05    AINFO    BASE     COLINFO  COMMENT  CONTROL  CP
                                                              CPLOCAL  CV       CVLOCAL  FAIL     FFINFO   JCB
                                                              KAPUT    RG       SCANCB   SEGINIT  TCLEAR   TCR
                                                              TMARK    TNUM     TPOP     TPUSH    TSEG     TTYPE
                                                              TWRITE   VLTORG   XTRACE
   L2 WYL.GG.SYS.MACLIB                             SYSB05    $BC      $BFLKUP  $BV      $CCLKUP  $CRS     $CSS     $L
                                                              $LA      $LBLAD   $LEXP    $LOR     $REL     $RGLKUP
                                                              $USLKUP  ACALL    BEGIN    CEIL     CLEAR    COMPROC
                                                              CSECT    DATA     DECR     DEFCC    DROP     DTEX     ELSE
                                                              ELSEIF   END      EX       FLAG     GEN      HIBAL
                                                              IDENT    IF       INCR     LABEL    LC       LS       LT
                                                              LTORG    MOVE     PEND     POP      PRETURN  PRINT    PROC
                                                              PUSH     QLTORG   RECORD   REG      REGS     SET
                                                              SETMSG   START    USING    VCALL    WHILE    WITH
                                                              XPROC
   L3 SYS3.IS.MACLIB                                SYSB05    SEG      SEGCB    SEGCLR   SEGCR    SEGDC    SEGLD
                                                              SEGMARK  SEGWR    SIB      SYSDEFN  XPOP     XPUSH

1EXT      (EXT2025) (12:44) (15MAR04) Dsect Cross Reference                                                                 Page   31
-Dsect     Length      Id       Defn                                                         HLASM R4.0  2004/03/15 12.44
0$$$@R0   00000000  FFFFFFFE     705
 $$$@R1   00000000  FFFFFFFD     718
 $$$@R10  00000000  FFFFFFF4     835
 $$$@R11  00000000  FFFFFFF3     848
 $$$@R12  00000000  FFFFFFF2     861
 $$$@R13  00000000  FFFFFFF1     874
 $$$@R14  00000000  FFFFFFF0     887
 $$$@R15  00000000  FFFFFFEF     900
 $$$@R2   00000000  FFFFFFFC     731
 $$$@R3   00000000  FFFFFFFB     744
 $$$@R4   00000000  FFFFFFFA     757
 $$$@R5   00000000  FFFFFFF9     770
 $$$@R6   00000000  FFFFFFF8     783
 $$$@R7   00000000  FFFFFFF7     796
 $$$@R8   00000000  FFFFFFF6     809
 $$$@R9   00000000  FFFFFFF5     822
 $$$RCP   00001000  FFFFFFEC    2452
 $$$RCV   00000FB0  FFFFFFEE    1177
 $$$RDEV  0000000C  FFFFFFEB    4666
 $$$RFFINFO
          000003A0  FFFFFFE8    6605
 $$$RJCB  000000D0  FFFFFFE9    6304
 $$$RNSCNCB
          000000B0  FFFFFFED    2373
 $$$RTTYPE
          0000010C  FFFFFFEA    6197
 HIBAL    00000000  FFFFFFFF     691

1EXT      (EXT2025) (12:44) (15MAR04) Using Map                                                                             Page   32
-                                                                                            HLASM R4.0  2004/03/15 12.44
   Stmt  -----Location----- Action ----------------Using----------------- Reg Max    Last  Label and Using Text
           Count      Id           Type          Value    Range     Id        Disp   Stmt
0   922  00000000  FFFFFFFF USING  ORDINARY    00000000 00001000 FFFFFFEF  15 000          @R15,15
    926  00000000  FFFFFFFF USING  ORDINARY    00000000 00001000 FFFFFFF0  14 024    9263  @R14,14
    930  00000000  FFFFFFFF USING  ORDINARY    00000000 00001000 FFFFFFF1  13 000    9380  @R13,13
    934  00000000  FFFFFFFF USING  ORDINARY    00000000 00001000 FFFFFFF2  12 000          @R12,12
    938  00000000  FFFFFFFF USING  ORDINARY    00000000 00001000 FFFFFFF3  11 000          @R11,11
    942  00000000  FFFFFFFF USING  ORDINARY    00000000 00001000 FFFFFFF4  10 000          @R10,10
    946  00000000  FFFFFFFF USING  ORDINARY    00000000 00001000 FFFFFFF5   9 000          @R9,9
    950  00000000  FFFFFFFF USING  ORDINARY    00000000 00001000 FFFFFFF6   8 000          @R8,8
    954  00000000  FFFFFFFF USING  ORDINARY    00000000 00001000 FFFFFFF7   7 000          @R7,7
    958  00000000  FFFFFFFF USING  ORDINARY    00000000 00001000 FFFFFFF8   6 000          @R6,6
    962  00000000  FFFFFFFF USING  ORDINARY    00000000 00001000 FFFFFFF9   5 000          @R5,5
    966  00000000  FFFFFFFF USING  ORDINARY    00000000 00001000 FFFFFFFA   4 000          @R4,4
    970  00000000  FFFFFFFF USING  ORDINARY    00000000 00001000 FFFFFFFB   3 000          @R3,3
    974  00000000  FFFFFFFF USING  ORDINARY    00000000 00001000 FFFFFFFC   2 000          @R2,2
    978  00000000  FFFFFFFF USING  ORDINARY    00000000 00001000 FFFFFFFD   1 001    9789  @R1,1
    982  00000000  FFFFFFFF USING  ORDINARY    00000000 00001000 FFFFFFFE   0 000          @R0,0
    983  00000000  FFFFFFFF DROP                                            0              0
   1161  00000016  00000001 USING  ORDINARY    00000000 00001000 FFFFFFEC  11 F54    9877  CP,CPR
   1170  00000016  00000001 USING  ORDINARY    00000000 00001000 FFFFFFEE  12 890    9887  CV,CVR
   6876  00000030  00000001 USING  ORDINARY    00000030 00001000 00000001   7 79C    7470  $$$57B,7
   6897  0000003A  00000001 USING  ORDINARY    00000000 00001000 FFFFFFE8   6 000    7141  FFINFO,R6
   7491  000001C8  00000001 USING  ORDINARY    00000000 00001000 FFFFFFF7   7 000          @R7,7
   7510  000001D6  00000001 USING  ORDINARY    00000000 00001000 FFFFFFF8   6 000          @R6,6
   7559  000001F0  00000001 USING  ORDINARY    000001F0 00001000 00000001   7 5C0    7828  $$$81B,7
   7580  000001FA  00000001 USING  ORDINARY    00000000 00001000 FFFFFFE8   6 000    7766  FFINFO,R6
   7841  000002BA  00000001 USING  ORDINARY    00000000 00001000 FFFFFFF7   7 000          @R7,7
   7860  000002C8  00000001 USING  ORDINARY    00000000 00001000 FFFFFFF8   6 000          @R6,6
   7908  000002E2  00000001 USING  ORDINARY    000002E2 00001000 00000001   7 4F2    8361  $$$96B,7
   7929  000002EC  00000001 USING  ORDINARY    00000000 00001000 FFFFFFE8   6 000    8317  FFINFO,R6
   8386  00000430  00000001 USING  ORDINARY    00000000 00001000 FFFFFFF7   7 000          @R7,7
   8405  0000043E  00000001 USING  ORDINARY    00000000 00001000 FFFFFFF8   6 000          @R6,6
   8452  00000458  00000001 USING  ORDINARY    00000458 00001000 00000001   7 37D    8892  $$$113B,7
   8473  00000462  00000001 USING  ORDINARY    00000000 00001000 FFFFFFE8   6 000    8619  FFINFO,R6
   8906  0000058E  00000001 USING  ORDINARY    00000000 00001000 FFFFFFF7   7 000          @R7,7
   8925  0000059C  00000001 USING  ORDINARY    00000000 00001000 FFFFFFF8   6 000          @R6,6
   8977  000005B6  00000001 USING  ORDINARY    000005B6 00001000 00000001   7 21E    9379  $$$129B,7
   8998  000005C0  00000001 USING  ORDINARY    00000000 00001000 FFFFFFE8   6 000    9165  FFINFO,R6
   9399  000006D6  00000001 USING  ORDINARY    00000000 00001000 FFFFFFF7   7 000          @R7,7
   9418  000006E4  00000001 USING  ORDINARY    00000000 00001000 FFFFFFF8   6 000          @R6,6
   9523  00000806  00000001 USING  ORDINARY    00000806 00001000 00000001   7 0CA    9639  $$$144B,7
   9546  00000810  00000001 USING  ORDINARY    00000000 00001000 FFFFFFE8   6 000    9650  FFINFO,R6
   9666  0000083C  00000001 USING  ORDINARY    00000000 00001000 FFFFFFF7   7 000          @R7,7
   9685  0000084A  00000001 USING  ORDINARY    00000000 00001000 FFFFFFF8   6 000          @R6,6
   9733  00000864  00000001 USING  ORDINARY    00000864 00001000 00000001   7 074    9896  $$$151B,7
   9840  00000894  00000001 USING  ORDINARY    00000000 00001000 FFFFFFEB   1 00C    9886  DEV,R1
   9893  000008B0  00000001 USING  ORDINARY    00000000 00001000 FFFFFFFD   1 000          @R1,1
   9910  000008BC  00000001 USING  ORDINARY    00000000 00001000 FFFFFFF7   7 000          @R7,7

1         (EXT2025) (12:44) (15MAR04) General Purpose Register Cross Reference                                              Page   33
- Register  References (M=modified, B=branch, U=USING, D=DROP, N=index)                      HLASM R4.0  2004/03/15 12.44
0    0(0)     982U  983D 2097  2165M 2165  2166M 6859  6920  6939  7113  7317M 7352M 7385M 7413M 7442M 7442  7458M 7499M
             7542  7602  7621  7795  7849M 7891  7932  7956M 7968  7983M 8005M 8005  8040M 8062M 8062  8084M 8102M 8141M
             8141  8165  8175M 8346  8379  8394M 8435  8648  8685M 8697  8712M 8734M 8734  8769M 8791M 8791  8813M 8831M
             8870M 8870  8894  8914M 8960  9194  9233  9236M 9262M 9276M 9306M 9324M 9363M 9363  9407M 9506  9674M 9716
             9745  9757M 9762  9810M 9810  9825  9887M 9903  9918M
     1(1)     978U 2097  2160M 2161M 2167M 6859  6920  6942M 7113  7316M 7351M 7384M 7408M 7457M 7499M 7542  7602  7624M
             7795  7849M 7891  7932  7982M 8001M 8039M 8058M 8083M 8101M 8175M 8346  8379  8394M 8435  8648  8711M 8730M
             8768M 8787M 8812M 8830M 8914M 8960  9194  9233  9235M 9262M 9275M 9299M 9323M 9407M 9506  9674M 9716  9811M
             9840U 9886M 9893U 9903  9918M
     2(2)     974U 2097  6859  6920  7113  7499M 7542  7602  7795  7849M 7891  8027M 8028M 8028  8058  8346  8379  8394M
             8435  8648  8660M 8661M 8662  8756M 8757M 8757  8787  8914M 8960  9194  9407M 9506  9674M 9716  9918M
     3(3)     970U 2097  6859  6920  7113  7499M 7542  7602  7795  7849M 7891  8346  8370M 8371M 8372  8394M 8435  8648
             8914M 8960  9194  9407M 9506  9674M 9716  9918M
     4(4)     966U 2097  6859  6920  7113  7499M 7542  7602  7795  7849M 7891  8346  8394M 8435  8648  8914M 8960  9194
             9407M 9506  9674M 9716  9918M
     5(5)     962U 2097  6859  6920  7113  7499M 7542  7602  7795  7849M 7891  8346  8394M 8435  8648  8914M 8960  9194
             9407M 9506  9674M 9716  9918M
     6(6)     958U 2097  6859  6889M 6897U 6920  7113  7499M 7510U 7542  7572M 7580U 7602  7795  7849M 7860U 7891  7921M
             7929U 8346  8394M 8405U 8435  8465M 8473U 8648  8914M 8925U 8960  8990M 8998U 9194  9407M 9418U 9506  9538M
             9546U 9674M 9685U 9716  9918M
     7(7)     954U 2090M 2090  2091B 2097  2103B 6859  6864M 6876U 6920  7113  7491U 7499M 7542  7547M 7559U 7602  7795
             7841U 7849M 7891  7896M 7908U 8346  8386U 8394M 8435  8440M 8452U 8648  8906U 8914M 8960  8965M 8977U 9194
             9399U 9407M 9506  9511M 9523U 9666U 9674M 9716  9721M 9733U 9910U 9918M
     8(8)     950U 2097  6859  6860M 6920  7113  7495  7499M 7542  7543M 7602  7795  7845  7849M 7891  7892M 8346  8379
             8390  8394M 8435  8436M 8648  8910  8914M 8960  8961M 9194  9403  9407M 9506  9507M 9670  9674M 9716  9717M
             9903  9914  9918M
     9(9)     946U 2097  6920  7113  7602  7795  8346  8648  9194
    10(A)     942U 2097  6920  7113  7602  7795  8346  8648  9194
    11(B)     938U 1161U 2097  6920  7113  7602  7795  8346  8648  9194
    12(C)     934U 1170U 2097  6920  7113  7602  7795  8346  8648  9194
    13(D)     930U 2097  6856  6859  6860  6861M 6861  6920  7113  7170  7171M 7171  7177M 7178  7495M 7499  7501  7539
             7542  7543  7544M 7544  7602  7795  7821  7822M 7822  7828M 7829  7845M 7849  7851  7888  7891  7892  7893M
             7893  7932  7933M 7933  8174M 8175  8346  8390M 8394  8396  8432  8435  8436  8437M 8437  8648  8910M 8914
             8916  8957  8960  8961  8962M 8962  9194  9229  9230M 9230  9233  9234M 9234  9261M 9262  9379M 9403M 9407
             9409  9503  9506  9507  9508M 9508  9670M 9674  9676  9713  9716  9717  9718M 9718  9914M 9918  9920
    14(E)     926U 2097  2098M 2112  2113M 2114B 2116M 2117B 2137M 2138B 2142M 2143B 2145M 2146B 2148M 2149B 2151M 2152B
             2154M 2155M 2155B 2161  6856  6887M 6888M 6888B 6920  6921M 6937M 6938M 6938B 6961M 6962M 6962B 6994M 6995M
             6995B 7027M 7028M 7028B 7060M 7061M 7061B 7093M 7094M 7094B 7113  7114M 7174M 7175M 7175B 7306M 7307M 7307B
             7310M 7311M 7311B 7328M 7329M 7329B 7363M 7364M 7364B 7396M 7397M 7397B 7424M 7425M 7425B 7453M 7454M 7454B
             7461M 7462M 7462B 7501M 7504B 7539  7570M 7571M 7571B 7602  7603M 7619M 7620M 7620B 7643M 7644M 7644B 7676M
             7677M 7677B 7709M 7710M 7710B 7742M 7743M 7743B 7775M 7776M 7776B 7795  7796M 7825M 7826M 7826B 7851M 7854B
             7888  7919M 7920M 7920B 7954M 7955M 7955B 7994M 7995M 7995B 8016M 8017M 8017B 8051M 8052M 8052B 8073M 8074M
             8074B 8095M 8096M 8096B 8113M 8114M 8114B 8127M 8128M 8128B 8152M 8153M 8153B 8163M 8164M 8164B 8194M 8195M
             8195B 8227M 8228M 8228B 8260M 8261M 8261B 8293M 8294M 8294B 8326M 8327M 8327B 8346  8347M 8396M 8399B 8432
             8463M 8464M 8464B 8496M 8497M 8497B 8529M 8530M 8530B 8562M 8563M 8563B 8595M 8596M 8596B 8628M 8629M 8629B
             8648  8649M 8683M 8684M 8684B 8723M 8724M 8724B 8745M 8746M 8746B 8780M 8781M 8781B 8802M 8803M 8803B 8824M
             8825M 8825B 8842M 8843M 8843B 8856M 8857M 8857B 8881M 8882M 8882B 8892M 8893M 8893B 8916M 8919B 8957  8988M
             8989M 8989B 9042M 9043M 9043B 9075M 9076M 9076B 9108M 9109M 9109B 9141M 9142M 9142B 9174M 9175M 9175B 9194
             9195M 9229M 9233  9235N 9258M 9259M 9259B 9262M 9287M 9288M 9288B 9317M 9318M 9318B 9335M 9336M 9336B 9349M
             9350M 9350B 9374M 9375M 9375B 9409M 9412B 9503  9536M 9537M 9537B 9676M 9679B 9713  9920M 9923B
    15(F)     922U 2097  6920  7113  7163M 7163  7170  7178M 7303M 7325M 7360M 7393M 7421M 7450M 7503M 7503  7602  7795
             7814M 7814  7821  7829M 7853M 7853  7991M 8013M 8048M 8070M 8092M 8110M 8124M 8149M 8346  8398M 8398  8648
             8720M 8742M 8777M 8799M 8821M 8839M 8853M 8878M 8918M 8918  9194  9233  9255M 9262M 9284M 9314M 9332M 9346M
             9371M 9392M 9392  9411M 9411  9678M 9678  9762M 9766M 9775M 9775  9782  9805M 9805  9899M 9922M 9922

1EXT      (EXT2025) (12:44) (15MAR04) Diagnostic Cross Reference and Assembler Summary                                      Page   34
-                                                                                            HLASM R4.0  2004/03/15 12.44
0     No Statements Flagged in this Assembly
 HIGH LEVEL ASSEMBLER, 5696-234, RELEASE 4.0, PTF P72483
0SYSTEM: OS/390 02.10.00            JOBNAME: WYL#EXT     STEPNAME: ASM        PROCSTEP: (NOPROC)
0Datasets Allocated for this Assembly
  Con DDname   Dataset Name                                 Volume  Member
   P1 SYSIN    WYL.GS.WYL.WYLBUR.SOURCE                     SYSB05  EXT
   L1 SYSLIB   WYL.GS.WYL.WYLBUR.MACLIB                     SYSB05
   L2          WYL.GG.SYS.MACLIB                            SYSB05
   L3          SYS3.IS.MACLIB                               SYSB05
   L4          SYS3.MACLIB                                  SYSB02
   L5          SYS1.MACLIB                                  MVSBR9
   L6          SYS1.MODGEN                                  MVSBR9
      SYSPRINT SYS04075.T124429.RA000.WYL#EXT.PRINT.H01     SCR101
      SYSTERM  GG$SLP.WYL#EXT.JOB03523.D0000101.?

    3668K allocated to Buffer Pool,         1417K would be required for this to be an In-Storage Assembly
     638 Primary Input Records Read         6459 Library Records Read                  0 Work File Reads
       0 ASMAOPT Records Read               2695 Primary Print Records Written         0 Work File Writes
       0 Punch Records Written                 0 ADATA Records Written
0Assembly Start Time: 12.44.31 Stop Time: 12.44.38 Processor Time: 00.00.01.6070
 Return Code 000
