1                        J E S 2  J O B  L O G  --  S Y S T E M  S Y S B  --  N O D E  R L G
0
 12.48.51 JOB03541 ---- MONDAY,    15 MAR 2004 ----
 12.48.51 JOB03541  ICH70001I GG$SLP   LAST ACCESS AT 12:48:22 ON MONDAY, MARCH 15, 2004
 12.48.51 JOB03541  $HASP373 WYL#MICR STARTED - INIT 6    - CLASS B - SYS SYSB
 12.48.51 JOB03541  ***  HCMD      STEP $$QUIET
 12.48.51 JOB03541  PUR * Q OUT MUL
 12.48.51 JOB03541  JOB 5405 WYL#MICR WILL BE PURGED
 12.48.52 JOB03541  WYL#MICR.$$QUIET .         RC=Zero TapeIO=0000 DiskIO=0000 CPU=  .01s Elapsed=31.08s
 12.48.57 JOB03541  WYL#MICR.ASM     .         RC=Zero TapeIO=0000 DiskIO=0421 CPU= 1.63s Elapsed=32.15s
 12.48.57 JOB03541  WYL#MICR.EDIT    .         RC=Zero TapeIO=0000 DiskIO=0057 CPU=  .16s Elapsed=37.25s
 12.48.57 JOB03541  WYL#MICR Ended.  Name=Assemble MICRO                 Total CPU= 1.80s Elapsed=31.08s
 12.48.57 JOB03541
 12.48.57 JOB03541  Execution charges   Priority=Standard   Block=Day
 12.48.57 JOB03541
 12.48.57 JOB03541  CPU Usage          33.00          $20.46   Standard Processing Unit Equivalent
 12.48.57 JOB03541                                   =======
 12.48.57 JOB03541                                    $20.46   Total Job execution charge
 12.48.57 JOB03541
 12.48.57 JOB03541  See back separator page for print charges
 12.48.57 JOB03541
 12.48.57 JOB03541  $HASP395 WYL#MICR ENDED  ASM=0, EDIT=0
1        1 //WYL#MICR JOB SLP$GG,'Assemble MICRO',TIME=4,REGION=4M                 JOB03541
           //*
           /*JOBPARM LINES=99,COPIES=1
           /*JOBPARM FORMS=3HOL,PFORMAT=LAND,CHARS=BD13,DUPLEX=YES,FLASH=BAR4
           //*
           /*JOBPARM NOTIFY=GG.SLP,HOLD=OUTPUT                                     WYLGEN
         2 //$$QUIET EXEC PGM=HCMDX,PARM='PUR * Q OUT MUL'
           //*
         3 //ASM    EXEC PGM=ASMA90,REGION=8M,
           //            PARM=('NORENT,TERM,FLAG(NOCONT),US(MAP,WARN(10)),NODECK',
           //            'LC(32767),XREF(SHORT),ESD,DXREF,NOOBJECT')
         4 //STEPLIB DD DSN=SYS3.IS.TESTASM,DISP=SHR
         5 //SYSLIB   DD  DSN=WYL.GS.WYL.WYLBUR.MACLIB,DISP=SHR
         6 //         DD  DSN=WYL.GG.SYS.MACLIB,DISP=SHR
         7 //         DD  DSN=SYS3.IS.MACLIB,DISP=SHR
         8 //         DD  DSN=SYS3.MACLIB,DISP=SHR
         9 //         DD  DSN=SYS1.MACLIB,DISP=SHR
        10 //         DD  DSN=SYS1.MODGEN,DISP=SHR
        11 //SYSUT1   DD DSN=&&SYSUT1,UNIT=VIO,DISP=(,DELETE),
           //            SPACE=(4088,(500,250),,CONTIG,ROUND)
        12 //SYSTERM  DD SYSOUT=T
        13 //SYSPRINT DD DSN=&&PRINT,UNIT=SYSDA,DISP=(,PASS),
           //            SPACE=(6650,(250,250),RLSE),
           //            DCB=(BLKSIZE=6650,LRECL=133,RECFM=FB)
        14 //SYSUDUMP DD SYSOUT=A
        15 //SYSIN    DD  DSN=WYL.GS.WYL.WYLBUR.SOURCE(MICRO),DISP=SHR
           //*
        16 //EDIT    EXEC PGM=ASMEDIT,TIME=2,REGION=4000K,
           //             PARM='STMT'
        17 //STEPLIB  DD  DSN=WYL.GG.SYS.LINKLIB,DISP=SHR
        18 //ASMOUT   DD  DSN=&PRINT,DISP=(OLD,DELETE)
        19 //SYSPRINT DD  SYSOUT=A
1 STMT NO. MESSAGE
 -
        11 IGD01010I STORCLAS= TEMP STORGROUP =
        11 IGD01010I STORGRP=VIO ASSIGNED.
        13 IGD01010I STORCLAS= TEMP STORGROUP =
        13 IGD01010I STORGRP=VIO ASSIGNED.
 ICH70001I GG$SLP   LAST ACCESS AT 12:48:22 ON MONDAY, MARCH 15, 2004
 IEF142I WYL#MICR $$QUIET - STEP WAS EXECUTED - COND CODE 0000
 *********************************************************************************
 *   WYL#MICR/$$QUIET /                    Return Code      Zero                 *
 *   Region used      260K (16K user + 244K system)                              *
 *   Extended region  9692K (4K user + 9688K system)                             *
 *                                                                               *
 *   Paging              In      Out                                             *
 *   Private <-> Aux      0        0       CPU time (TCB)   00:00:00.01          *
 *   Private <-> Exp      0        0       CPU time (SRB)   00:00:00.00          *
 *   VIO                  0        0       Elapsed time    917:39:01.88          *
 *   Common               0      ---                                             *
 *                                                                               *
 *                                                                               *
 *   CPU Usage          0.18         $0.11  Standard Processing Unit Equivalent  *
 *                                   $0.11  Total Step execution charge          *
 *                                                                               *
 *    I/O count  DDname   Type Addr           I/O count  DDname   Type Addr      *
 *                         *** No I/O for this step ***                          *
 *********************************************************************************
 IEF373I STEP/$$QUIET /START 2004075.1248
 IEF374I STEP/$$QUIET /STOP  2004075.1248 CPU    0MIN 00.01SEC SRB    0MIN 00.00SEC VIRT    16K SYS   244K EXT       4K SYS    9688K
 IEF236I ALLOC. FOR WYL#MICR ASM
 IEF237I 04DC ALLOCATED TO STEPLIB
 IEF237I 04DC ALLOCATED TO SYSLIB
 IEF237I 04DC ALLOCATED TO
 IEF237I 04DC ALLOCATED TO
 IEF237I 0402 ALLOCATED TO
 IEF237I 04A0 ALLOCATED TO
 IEF237I 04A0 ALLOCATED TO
 IGD101I SMS ALLOCATED TO DDNAME (SYSUT1  )
         DSN (SYS04075.T124851.RA000.WYL#MICR.SYSUT1.H01  )
         STORCLAS (TEMP) MGMTCLAS (        ) DATACLAS (        )
         VOL SER NOS= VIO
 IEF237I JES2 ALLOCATED TO SYSTERM
 IGD101I SMS ALLOCATED TO DDNAME (SYSPRINT)
         DSN (SYS04075.T124851.RA000.WYL#MICR.PRINT.H01   )
         STORCLAS (TEMP) MGMTCLAS (        ) DATACLAS (        )
         VOL SER NOS= SCR101
 IEF237I JES2 ALLOCATED TO SYSUDUMP
 IEF237I 04DC ALLOCATED TO SYSIN
 IEF142I WYL#MICR ASM - STEP WAS EXECUTED - COND CODE 0000
 IEF285I   SYS3.IS.TESTASM                              KEPT
 IEF285I   VOL SER NOS= SYSB05.
 IEF285I   WYL.GS.WYL.WYLBUR.MACLIB                     KEPT
 IEF285I   VOL SER NOS= SYSB05.
 IEF285I   WYL.GG.SYS.MACLIB                            KEPT
 IEF285I   VOL SER NOS= SYSB05.
 IEF285I   SYS3.IS.MACLIB                               KEPT
 IEF285I   VOL SER NOS= SYSB05.
 IEF285I   SYS3.MACLIB                                  KEPT
 IEF285I   VOL SER NOS= SYSB02.
 IEF285I   SYS1.MACLIB                                  KEPT
 IEF285I   VOL SER NOS= MVSBR9.
 IEF285I   SYS1.MODGEN                                  KEPT
 IEF285I   VOL SER NOS= MVSBR9.
 IGD105I SYS04075.T124851.RA000.WYL#MICR.SYSUT1.H01   DELETED,   DDNAME=SYSUT1
 IEF285I   GG$SLP.WYL#MICR.JOB03541.D0000101.?          SYSOUT
 IGD106I SYS04075.T124851.RA000.WYL#MICR.PRINT.H01    PASSED,    DDNAME=SYSPRINT
 IEF285I   GG$SLP.WYL#MICR.JOB03541.D0000102.?          SYSOUT
 IEF285I   WYL.GS.WYL.WYLBUR.SOURCE                     KEPT
 IEF285I   VOL SER NOS= SYSB05.
 *********************************************************************************
 *   WYL#MICR/ASM     /                    Return Code      Zero                 *
 *   Region used      4376K (4096K user + 280K system)                           *
 *   Extended region  10292K (412K user + 9880K system)                          *
 *                                                                               *
 *   Paging              In      Out                                             *
 *   Private <-> Aux      0        0       CPU time (TCB)   00:00:01.59          *
 *   Private <-> Exp      0        0       CPU time (SRB)   00:00:00.04          *
 *   VIO                  0        0       Elapsed time    917:39:00.81          *
 *   Common               0      ---                                             *
 *                                                                               *
 *                                                                               *
 *   CPU Usage         29.81        $18.48  Standard Processing Unit Equivalent  *
 *                                  $18.48  Total Step execution charge          *
 *                                                                               *
 *    I/O count  DDname   Type Addr           I/O count  DDname   Type Addr      *
 *           84  STEPLIB  Disk 04DC                 280  SYSLIB   Disk 04DC      *
 *            0  SYSLIB   Disk 04DC                   0  SYSLIB   Disk 04DC      *
 *            0  SYSLIB   Disk 0402                   0  SYSLIB   Disk 04A0      *
 *            0  SYSLIB   Disk 04A0                   0  SYSUT1   VIO  ----      *
 *            0  SYSTERM       ----                  54  SYSPRINT Disk 04E3      *
 *            0  SYSUDUMP      ----                   3  SYSIN    Disk 04DC      *
 *********************************************************************************
 IEF373I STEP/ASM     /START 2004075.1248
 IEF374I STEP/ASM     /STOP  2004075.1248 CPU    0MIN 01.59SEC SRB    0MIN 00.04SEC VIRT  4096K SYS   280K EXT     412K SYS    9880K
 IEF236I ALLOC. FOR WYL#MICR EDIT
 IEF237I 0402 ALLOCATED TO STEPLIB
 IGD103I SMS ALLOCATED TO DDNAME ASMOUT
 IEF237I JES2 ALLOCATED TO SYSPRINT
 IEF142I WYL#MICR EDIT - STEP WAS EXECUTED - COND CODE 0000
 IEF285I   WYL.GG.SYS.LINKLIB                           KEPT
 IEF285I   VOL SER NOS= SYSB02.
 IGD105I SYS04075.T124851.RA000.WYL#MICR.PRINT.H01    DELETED,   DDNAME=ASMOUT
 IEF285I   GG$SLP.WYL#MICR.JOB03541.D0000103.?          SYSOUT
 *********************************************************************************
 *   WYL#MICR/EDIT    /                    Return Code      Zero                 *
 *   Region used      380K (116K user + 264K system)                             *
 *   Extended region  9812K (4K user + 9808K system)                             *
 *                                                                               *
 *   Paging              In      Out                                             *
 *   Private <-> Aux      0        0       CPU time (TCB)   00:00:00.16          *
 *   Private <-> Exp      0        0       CPU time (SRB)   00:00:00.00          *
 *   VIO                  0        0       Elapsed time    917:38:55.71          *
 *   Common               0      ---                                             *
 *                                                                               *
 *                                                                               *
 *   CPU Usage          3.00         $1.86  Standard Processing Unit Equivalent  *
 *                                   $1.86  Total Step execution charge          *
 *                                                                               *
 *    I/O count  DDname   Type Addr           I/O count  DDname   Type Addr      *
 *            2  STEPLIB  Disk 0402                  55  ASMOUT   Disk 04E3      *
 *            0  SYSPRINT      ----                                              *
 *********************************************************************************
 IEF373I STEP/EDIT    /START 2004075.1248
 IEF374I STEP/EDIT    /STOP  2004075.1248 CPU    0MIN 00.16SEC SRB    0MIN 00.00SEC VIRT   116K SYS   264K EXT       4K SYS    9808K
 *********************************************************************************
 *                                                                               *
 *                      S t a n f o r d   U n i v e r s i t y                    *
 *                                                                               *
 *                              *** Job Summary ***                              *
 *                                                                               *
 *   System Id      SYSB                   Input time     12:39:21  Mar 15, 2004 *
 *                                                                               *
 *   System Release SP6.1.0                Start time     12:48:51  Mar 15, 2004 *
 *                                                                               *
 *   Job name       WYL#MICR               Stop  time     00:00:00  Mar 15, 2004 *
 *                                                                               *
 *   Account        SLP$GG                 Elapsed time  917:39:01.88            *
 *                                                                               *
 *   User Name      Assemble MICRO         CPU time       00:00:01.76            *
 *                                                                               *
 *   Job class      B                      SRB Time       00:00:00.04            *
 *                                                                               *
 *********************************************************************************
 IEF375I  JOB/WYL#MICR/START 2004075.1248
 IEF376I  JOB/WYL#MICR/STOP  2004075.1248 CPU    0MIN 01.76SEC SRB    0MIN 00.04SEC
1Assembler Done MICRO No Statements Flagged
1         High Level Assembler Option Summary                   (PTF P72483 )                                               Page    1
-                                                                                            HLASM R4.0  2004/03/15 12.48
0  No Overriding ASMAOPT Parameters
   Overriding Parameters-  NORENT,TERM,FLAG(NOCONT),US(MAP,WARN(10)),NODECK,LC(32767),XREF(SHORT),ESD,DXREF,NOOBJECT
   No Process Statements


   Options for this Assembly
0  NOADATA
     ALIGN
   NOASA
     BATCH
     CODEPAGE(047C)
   NOCOMPAT
   NODBCS
 3 NODECK
 3   DXREF
 3   ESD
   NOEXIT
 3   FLAG(0,ALIGN,NOCONT,NOIMPLEN,NOPAGE0,PUSH,RECORD,NOSUBSTR,USING0)
   NOFOLD
   NOGOFF
   NOINFO
     LANGUAGE(EN)
   NOLIBMAC
 3   LINECOUNT(32767)
     LIST(121)
     MXREF(SOURCE)
 3 NOOBJECT
     OPTABLE(UNI,NOLIST)
   NOPCONTROL
   NOPESTOP
   NOPROFILE
   NORA2
 3 NORENT
     RLD
     RXREF
     SIZE(MAX)
     SYSPARM()
 3   TERM(WIDE)
   NOTEST
     THREAD
   NOTRANSLATE
 3   USING(NOLIMIT,MAP,WARN(10))
 3   XREF(SHORT)

   No Overriding DD Names

1MICRO    External Symbol Dictionary                                                                                        Page    2
-Symbol   Type   Id     Address  Length     LD ID  Flags Alias-of                            HLASM R4.0  2004/03/15 12.48
0WYLMICRO  SD 00000001 00000000 00000BB8             00
 MICR2025  LD          00000000           00000001
 UPLOAD    LD          00000018           00000001
 MPINT     ER 00000002
 MPARM     ER 00000003
 MTOKEN    ER 00000004
 MALL      ER 00000005
 INVALID   ER 00000006
 SAVEDATA  ER 00000007
 ENDLNO    ER 00000008
 NSCAN     ER 00000009
 SCANCHK   ER 0000000A
 TREAD     ER 0000000B
 PUTBYTES  ER 0000000C
 SCDQUOTE  ER 0000000D
 SEGCR     ER 0000000E
 SEGWR     ER 0000000F
 SEG       ER 00000010
 DOWNLOAD  LD          000007DA           00000001
 FNAMESCN  ER 00000011
 FNAMPSHF  ER 00000012
 LTNPSH    ER 00000013
 NOTVALID  ER 00000014
 SCNEXFR   ER 00000015
 NDETRNG   ER 00000016
 MKFFINFO  ER 00000017
 FNAMEFIN  ER 00000018
 EXTOPEN   ER 00000019
 RDRNG     ER 0000001A
 SEGMARK   ER 0000001B

1MICRO    WYLBUR's Micro-computer Commands                                                                                  Page    3
0Loc    Object Code    Addr1 Addr2  Stmt Lv Lineno    Source Statement                    (Asmedit 3.3)  HLASM R4.0  2004/03/15 12.48
+___    ______ ____    _____ _____  ____ __ ______    ______ _________
0                                      2              *******************************************************************
                                       3              *                                                                 *
                                       4              *     WYLBUR/370 - Release VI - Class I - Stanford Proprietary    *
                                       5              *                                                                 *
                                       6              *******************************************************************
                                       7                       HIBAL
                                     988
 000000                00000 00BB8   989              WYLMICRO CSECT
-                                    994                       REGS  FSR,,,,,,,BR,(WAR,LSR),PAR,PBR,CPR,CVR,SPR,RAR
                                    1130                       SYSDEFN ,                 Define installation params
                                    1131
                                    1132              MICR     IDENT 2025                11:49:25 01/25/02  (SLP)
                                    1135             +
                                    1136    01-IDENT +         ENTRY MICR2025
                                    1137             +
 000000 16D4C9C3D9F2F0F2            1138    01-IDENT +MICR2025 DC    AL1(22),C'MICR2025,15MAR04,12:48'
                                    1139             +*
                                    1141              *
                                    1142                       PUSH  DSECTS
 USING  CP,R11                      1153             =         USING (CP),(CV)
 USING  CV,R12
 000017                00000 00BB8  1172             =         POP   PRINT
1MICRO    (MICR2025) (12:48) (15MAR04) UPLOAD Command                                                                       Page    4
0Current Usings:  (CP,R11) (CV,R12)
0Loc    Object Code    Addr1 Addr2  Stmt Lv Lineno    Source Statement           (Hibal 5, Asmedit 3.3)  HLASM R4.0  2004/03/15 12.48
+___    ______ ____    _____ _____  ____ __ ______    ______ _________
0                                   6306              ¿þþþþþþþþþþþþþþþþþþþþþþþþþþþþþþþþþþþþþþþþþþþþþþþþþþþþþþþþþþþþþþþþþþþþþÜ
                                    6307              Ÿ                                                                     Ÿ
                                    6308              Ÿ  UPLOAD -- UPLOAD Command.                                          Ÿ
                                    6309              Ÿ                                                                     Ÿ
                                                      ¾þþþþþþþþþþþþþþþþþþþþþþþþþþþþþþþþþþþþþþþþþþþþþþþþþþþþþþþþþþþþþþþþþþþþþ»
0000000                00000 003F0  6310              UPWA     RECORD BEGIN
 000000 00                          6318  1           UPFLAG     FLAG
 UPFLAG.UPFDATTN   80 ONES          6322  1                      FLAG  UPFDATTN            - Disallow read attns
                                    6327  1
 000002                             6328  1           UPPRLEN    DS    H                   Prompt text length
                                    6329  1           UPPROMPT   DS    CL(&LINESZ)         Prompt text
 000004                                   1          +UPPROMPT   DS    CL(235)             Prompt text
                                    6330  1
 0000F0                             6331  1           UPTMOUT    DS    F                   Timeout value (sec*100)
                                    6332  1
                                    6333  1           UPPUTCB    PUTCB PFX=UP              PUTBYTES options
                                    6334+ 1          +           ¿þþþþþþþþþþþþþþþþþþþþþþþþþþþþþþþþþþþþþþþþþþþþÜ
                                    6335+ 1          +           Ÿ  PUTBYTES Control Block (see ACT module).  Ÿ
                                    6336+ 1          +           ¾þþþþþþþþþþþþþþþþþþþþþþþþþþþþþþþþþþþþþþþþþþþþ»
 0000F4 00                          6337  1 01-PUTCB +UPSTART      DS  0F
 UPFL.UPFTRAN      80 ONES
 UPFL.UPFWRAP      40 ONES
 UPFL.UPFNECHO     20 ONES
 UPFL.UPFTABS      10 ONES
 UPFL.UPFSTOP      08 ONES
 0000F5 00                          6367  1          +*
 UPFL2.UPFGOTCR    80 ONES
 UPFL2.UPFACTCT    40 ONES
                                    6382  1          +*
 0000F6                             6383  1 01-PUTCB +UPMAXLN      DS  H                   Max line length
                                    6384  1          +
 0000F8                             6385  1 01-PUTCB +UPCOUNT      DS  F                   Max number of lines to add
 0000FC                             6386  1 01-PUTCB +UPLNO        DS  F                   Current line-number
                                    6387  1          +
 000100                             6388  1 01-PUTCB +UPSTLEN      DS  H                   Stop text length
 000102                             6389  1 01-PUTCB +UPSTOP       DS  CL(235)             Stop text
                                    6390  1          +
 0001EE                             6391  1 01-PUTCB +UPRESLN      DS  H                   Current residual buffer length
 0001F0                             6392  1 01-PUTCB +UPRESBF      DS  XL512               Residual buffer data saved here
                                    6393  1          +
                                    6394  1 01-PUTCB +UPPUTCB    EQU   UPSTART,*-UPSTART,C'X'
                                    6395  1                      ¿þþþþþþþþþþþþþþþþþþþþþþþþþþþþþþþþþþþþþþþþþþþþþþþþþþþþþþþþþþþþþÜ
                                    6396  1                      Ÿ  Be careful about increasing UPBUFSZ#.  The ALF front-ends  Ÿ
                                    6397  1                      Ÿ    currently will not accept larger input buffer            Ÿ
                                    6398  1                      Ÿ    specifications than 2K for TRANSPARENT reads             Ÿ
                                    6399  1                      Ÿ    (ask Mike Durket to explain it).                         Ÿ
                                    6400  1                      ¾þþþþþþþþþþþþþþþþþþþþþþþþþþþþþþþþþþþþþþþþþþþþþþþþþþþþþþþþþþþþþ»
                                    6401  1           UPBUFSZ#   EQU   2048,,C'N'          Maximum input buffer size
 0003F0                003F0 003F0  6402                       END
                                    6411              þþþþ
 000018 50E0 D000/9008_      00000  6412              UPLOAD   XPROC UPWA
 USING  *,R7
 USING  UPWA-(4+36),R8
1MICRO    (MICR2025) (12:48) (15MAR04) UPLOAD Command                                                                       Page    5
0Current Usings:  (*,R7) (UPWA-(4+36),R8) (CP,R11) (CV,R12)
0Loc    Object Code    Addr1 Addr2  Stmt Lv Lineno    Source Statement           (Hibal 5, Asmedit 3.3)  HLASM R4.0  2004/03/15 12.48
+___    ______ ____    _____ _____  ____ __ ______    ______ _________
0000032 4160 8028            00000  6463                       LA    R6,UPWA
 USING  UPWA,R6                     6464                       USING UPWA,R6
 000036 D7FF 6000 6000_00000 00000  6473                       CLEAR UPWA
 00004E 5080 BCA4            00CA4  6483                       ST    WAR,CPCWA           Save UPWA ptr
                                    6484
 000052 1B00/1B11                   6485                       CLEAR R0,R1               Initialize RC_UPLOAD to null
 000056 4120 76FE            00730  6491                       LA    R2,=CL16'SYS.RC_UPLOAD'
 00005A 58E0 770E/0DEE       00740  6492                       VCALL SAVEDATA            Set variable
                                    6496
 000060 58E0 7712/0DEE       00744  6497                       VCALL ENDLNO              Get END lineno
 000066 5000 60FC            000FC  6501                       ST    R0,UPLNO            Save default starting point
                                    6502
 00006A D201 60F6 7746 000F6 00778  6503                       MVC   UPMAXLN,=H'230'     Max line length before split
                                    6504
 000070 5810 B08C/1B00_      0008C  6505                       SCAN  UPLPRT              Scan UPLOAD options
 0000C2 58E0 771E/0DEE       00750  6537                       SCANCHK
                                    6542                       ¿þþþþþþþþþþþþþþþþþþþþþþþþþþþþþþþþþþþþÜ
                                    6543                       Ÿ  Set terminal options for upload.  Ÿ
                                    6544                       ¾þþþþþþþþþþþþþþþþþþþþþþþþþþþþþþþþþþþþ»
 0000C8 9680 BC7B/9680_00C7B        6545                       SET   CPFCLEAN,CPFTRAN    Clean, transparent
 0000D0 9120 60F4/47E0_000F4        6555                       IF    UPFNECHO,'SET CPFNECHO'  Noecho
 0000DC 9180 6000/47E0_00000        6581                       IF    UPFDATTN,'SET CPFDATTN'  Disallow input attns
 0000E8 D201 BC80 774A 00C80 0077C  6607                       MVC   CPTRMIN,=AL2(UPBUFSZ#)  Maximum input buffer size
                                    6608
 0000EE 58F0 C8B0            008B0  6609                       L     R15,CVASCTBL        EBCDIC to ASCII translate table
 0000F2 DCEA 6004 F000 00004 00000  6610                       TR    UPPROMPT,@R15       Convert to ASCII
                                    6611                       ¿þþþþþþþþþþþþþþþþþþþþþþþþþþþþþþþþþþþþþþÜ
                                    6612                       Ÿ  Get first/next line from terminal.  Ÿ
                                    6613                       ¾þþþþþþþþþþþþþþþþþþþþþþþþþþþþþþþþþþþþþþ»
 0000F8                             6614                       LOOP  BEGIN
 0000F8 4110 6004/4800_      00004  6620  1                      TREAD UPPROMPT,LH:UPPRLEN,TIMEOUT=L:UPTMOUT  Get more input
 00010A 4740 C7DA            007DA  6644  1                      BM    CVABORT             Logging off, scram
 00010E 47D0 70FC            0012E  6645  1                      IF    POS,BEGIN           Attn/timeout...
 000112 4110 7726/4100_      00758  6656  2                        SETMSG 'ATTN'
 00011A 59F0 772A/4770_      0075C  6660  2                        IF    (R15,EQ,101),'SETMSG "TIMEOUT"'
 00012A 47F0 7116            00148  6686  2                        B     UPLRSET
 00012E                             6687  1                      END
                                    6691  1
                                    6692  1                      SETMSG (R1),(R0)           Buffer
 00012E 41F0 60F4            000F4  6702  1                      LA    R15,UPPUTCB         PUTCB
 000132 58E0 772E/0DEE       00760  6703  1                      VCALL PUTBYTES            Save buffer in the Active file
 000138 4770 710E            00140  6707  1                      IF    NZ,EXIT             Time to quit
 00013C 47F0 70C6            000F8  6721                       END
                                    6726
 000140 4110 774C/4100_      0077E  6727                       SETMSG 'OK'
 000148 4120 76FE            00730  6731              UPLRSET  LA    R2,=CL16'SYS.RC_UPLOAD'
 00014C 58E0 770E/0DEE       00740  6732                       VCALL SAVEDATA
                                    6736
 000152 47F0 C7DE            007DE  6737                       B     CVNEXT
 000156 18D8/9808 D004_             6738                       PEND
 DROP   UPWA-(4+36),R8
 DROP   *,R7
1MICRO    (MICR2025) (12:48) (15MAR04) UPLOAD Command                                                                       Page    6
0Current Usings:  (UPWA,R6) (CP,R11) (CV,R12)
0Loc    Object Code    Addr1 Addr2  Stmt Lv Lineno    Source Statement           (Hibal 5, Asmedit 3.3)  HLASM R4.0  2004/03/15 12.48
+___    ______ ____    _____ _____  ____ __ ______    ______ _________
0                                   6763                       ¿þþþþþþþþþþþþþþþþþþþþþþþþþþþÜ
                                    6764                       Ÿ  UPLOAD command options.  Ÿ
                                    6765                       ¾þþþþþþþþþþþþþþþþþþþþþþþþþþþ»
 000164 C3D6E4D5E3404040_           6766              UPLPRT   SCKW  COUNT,UPXCOUNT,(A,P,PI)
 00018C D7D9D6D4D7E34040_           6781                       SCKW  PROMPT,UPXPRMT,(A,P)
 0001B4 E2E3D6D740404040_           6796                       SCKW  STOP,UPXSTOP,(A,P)
 0001DC E6D9C1D740404040_           6811                       SCKW  WRAP,UPXWRAP,(A,P,PI)
 000204 E2D7D3C9E3404040_           6826                       SCKW  SPLIT,UPXSPLIT,(A,P,PI)
 00022C E3C9D4C5D6E4E340_           6841                       SCKW  TIMEOUT,UPXTMOUT,(A,P,PI)
 000254 E3C1C2E240404040_           6856                       SCKW  TABS,UPXTABS,A
 00027C E3D9C1D5E2D7C1D9_           6871                       SCKW  TRANSPARENT,UPXTRAN,A
 0002A4 C6D6D9C3C5404040_           6886                       SCKW  FORCE,UPXFORCE,A
 0002CC C2E4C6C6C5D9C5C4_           6901                       SCKW  BUFFERED,UPXBUF,A
 0002F4 C4C1E3E3D5404040_           6916                       SCKW  DATTN,UPXDATN,A
 00031C D5D6C4C1E3E3D540_           6931                       SCKW  NODATTN,UPXNDATN,A
 000344 C5C3C8D640404040_           6946                       SCKW  ECHO,UPXECHO,A
 00036C D5D6C5C3C8D64040_           6961                       SCKW  NOECHO,UPXNECHO,A
 000394 4040404040404040_           6976                       SCKW  ,V(INVALID)
                                    6991
 0003BC 50E0 D000/9008_      00000  6992              UPXCOUNT PROC
 USING  *,R7
 0003D6 5000 60F8            000F8  7031                       ST    R0,UPCOUNT
 0003DA 18D8/9808 D004_             7032                       PEND
 DROP   *,R7
                                    7052
 0003E8 50E0 D000/9008_      00000  7053              UPXPRMT  PROC
 USING  *,R7
 000402 58F0 B08C/4110_      0008C  7092                       SCDQUOTE UPPROMPT
 000414 4000 6002            00002  7113                       STH   R0,UPPRLEN
 000418 1BFF                        7114                       CLEAR R15
 00041A 18D8/9808 D004_             7118                       PEND
 DROP   *,R7
                                    7138
 000428 50E0 D000/9008_      00000  7139              UPXSTOP  PROC
 USING  *,R7
 000442 9608 60F4      000F4        7178                       SET   UPFSTOP
 000446 58F0 B08C/4110_      0008C  7184                       SCDQUOTE UPSTOP
 000458 4000 6100            00100  7205                       STH   R0,UPSTLEN
 00045C 1BFF                        7206                       CLEAR R15
 00045E 18D8/9808 D004_             7210                       PEND
 DROP   *,R7
                                    7230
 00046C 50E0 D000/9008_      00000  7231              UPXWRAP  PROC
 USING  *,R7
 000486 9640 60F4      000F4        7270                       SET   UPFWRAP
 00048A 5900 72E2/47D0_      00768  7276                       CEIL  R0,&LINESZ
 000496 4000 60F6            000F6  7295                       STH   R0,UPMAXLN
 00049A 18D8/9808 D004_             7296                       PEND
 DROP   *,R7
                                    7316
 0004A8 50E0 D000/9008_      00000  7317              UPXSPLIT PROC
 USING  *,R7
 0004C2 5900 72A6/47D0_      00768  7356                       CEIL  R0,&LINESZ
 0004CE 4000 60F6            000F6  7375                       STH   R0,UPMAXLN
1MICRO    (MICR2025) (12:48) (15MAR04) UPLOAD Command                                                                       Page    7
0Current Usings:  (UPWA,R6) (CP,R11) (CV,R12)
0Loc    Object Code    Addr1 Addr2  Stmt Lv Lineno    Source Statement           (Hibal 5, Asmedit 3.3)  HLASM R4.0  2004/03/15 12.48
+___    ______ ____    _____ _____  ____ __ ______    ______ _________
00004D2 18D8/9808 D004_             7376                       PEND
 DROP   *,R7
                                    7396
 0004E0 50E0 D000/9008_      00000  7397              UPXTMOUT PROC
 USING  *,R7
 0004FA 4C00 7286            00780  7436                       MH    R0,=H'100'         We want .01 second increments
 0004FE 5000 60F0            000F0  7437                       ST    R0,UPTMOUT
 000502 18D8/9808 D004_             7438                       PEND
 DROP   *,R7
                                    7458
 000510 50E0 D000/9008_      00000  7459              UPXTABS  PROC
 USING  *,R7
 00052A 9610 60F4      000F4        7498                       SET   UPFTABS
 00052E 18D8/9808 D004_             7504                       PEND
 DROP   *,R7
                                    7524
 00053C 50E0 D000/9008_      00000  7525              UPXTRAN  PROC
 USING  *,R7
 000556 9680 60F4      000F4        7564                       SET   UPFTRAN
 00055A 18D8/9808 D004_             7570                       PEND
 DROP   *,R7
                                    7590
 000568 50E0 D000/9008_      00000  7591              UPXFORCE PROC
 USING  *,R7
 000582 9604 BC7C      00C7C        7630                       SET   CPFFORCE
 000586 18D8/9808 D004_             7636                       PEND
 DROP   *,R7
                                    7656
 000594 50E0 D000/9008_      00000  7657              UPXBUF   PROC
 USING  *,R7
 0005AE 9602 BC7C      00C7C        7696                       SET   CPFBUFIO
 0005B2 18D8/9808 D004_             7702                       PEND
 DROP   *,R7
                                    7722
 0005C0 50E0 D000/9008_      00000  7723              UPXECHO  PROC
 USING  *,R7
 0005DA 94DF 60F4      000F4        7762                       CLEAR UPFNECHO
 0005DE 18D8/9808 D004_             7769                       PEND
 DROP   *,R7
                                    7789
 0005EC 50E0 D000/9008_      00000  7790              UPXNECHO PROC
 USING  *,R7
 000606 9620 60F4      000F4        7829                       SET   UPFNECHO
 00060A 18D8/9808 D004_             7835                       PEND
 DROP   *,R7
                                    7855
 000618 50E0 D000/9008_      00000  7856              UPXDATN  PROC
 USING  *,R7
 000632 9680 6000      00000        7895                       SET   UPFDATTN
 000636 18D8/9808 D004_             7901                       PEND
 DROP   *,R7
                                    7921
 000644 50E0 D000/9008_      00000  7922              UPXNDATN PROC
 USING  *,R7
1MICRO    (MICR2025) (12:48) (15MAR04) UPLOAD Command                                                                       Page    8
0Current Usings:  (UPWA,R6) (*,R7) (CP,R11) (CV,R12)
0Loc    Object Code    Addr1 Addr2  Stmt Lv Lineno    Source Statement           (Hibal 5, Asmedit 3.3)  HLASM R4.0  2004/03/15 12.48
+___    ______ ____    _____ _____  ____ __ ______    ______ _________
000065E 947F 6000      00000        7961                       CLEAR UPFDATTN
 000662 18D8/9808 D004_             7968                       PEND
 DROP   *,R7
                                    7988
 DROP   UPWA,R6                     7989                       DROP  R6
1MICRO    (MICR2025) (12:48) (15MAR04) UPLOAD Command                                                                       Page    9
0Current Usings:  (CP,R11) (CV,R12)
0Loc    Object Code    Addr1 Addr2  Stmt Lv Lineno    Source Statement           (Hibal 5, Asmedit 3.3)  HLASM R4.0  2004/03/15 12.48
+___    ______ ____    _____ _____  ____ __ ______    ______ _________
0                                   7997              ¿þþþþþþþþþþþþþþþþþþþþþþþþþþþþþþþþþþþþþþþþþþþþþþþþþþþþþþþþþþþþþþþþþþþþþÜ
                                    7998              Ÿ                                                                     Ÿ
                                    7999              Ÿ  XMODEM Packet Description                                          Ÿ
                                    8000              Ÿ                                                                     Ÿ
                                                      ¾þþþþþþþþþþþþþþþþþþþþþþþþþþþþþþþþþþþþþþþþþþþþþþþþþþþþþþþþþþþþþþþþþþþþþ»
0000000                00000 00083  8001              XMODPACK RECORD BEGIN
 000000                             8009  1           XMODSOH    DS    X                   Start of header (ASCII SOH char)
 000001                             8010  1           XMODSEQ    DS    X                   Sequence number
 000002                             8011  1           XMODCSQ    DS    X                   Complimented sequence number
 000003                             8012  1           XMODDATA   DS    XL128               128 bytes of data
 000083                00083 00083  8013                       END
-                                   8023              ¿þþþþþþþþþþþþþþþþþþþþþþþþþþþþþþþþþþþþþþþþþþþþþþþþþþþþþþþþþþþþþþþþþþþþþÜ
                                    8024              Ÿ                                                                     Ÿ
                                    8025              Ÿ  XMODUP -- XMODEM Upload.  *** Experimental ***                     Ÿ
                                    8026              Ÿ                                                                     Ÿ
                                                      ¾þþþþþþþþþþþþþþþþþþþþþþþþþþþþþþþþþþþþþþþþþþþþþþþþþþþþþþþþþþþþþþþþþþþþþ»
0000000                00000 0000E  8027              XMODWA   RECORD BEGIN
 000000                             8035  1           XMODTRM    DS    XL(L'CPTRM)         Terminal I/O settings
 00000E                0000E 0000E  8036                       END
                                    8045              þþþþ
 000670 50E0 D000/9008_      00000  8046              XMODUP   PROC  XMODWA
 USING  *,R7
 USING  XMODWA-(4+36),R8
                                    8096
 00068A 4110 70F8/4100_      00782  8097                       TSEG  '(The XModem UPLOAD command isn''t working yet!)',,CR
 00069C 1B00/41F0 B050_             8115                       TCR
 0006A8 4110 712F/4100_      007B9  8140                       TSEG  'This is a test of UPLOAD...',,CR
 0006BA 1B00/41F0 B050_             8158                       TWRITE
 0006C6 4770 C7DA            007DA  8183                       BNZ   CVABORT
                                    8184                       ¿þþþþþþþþþþþþþþþþþþþþþþþþÜ
                                    8185                       Ÿ  XMODEM Receive loop.  Ÿ
                                    8186                       ¾þþþþþþþþþþþþþþþþþþþþþþþþ»
 0006CA D20D 8028 BC7A 00000 00C7A  8187                       MVC   XMODTRM,CPTRM       Save terminal I/O settings
                                    8188
 0006D0 9680 BC7A/9680_00C7A        8189                       SET   CPFNONL,CPFCLEAN,CPFTRAN+CPFRUND
 0006DC D201 BC80 7126 00C80 007B0  8206                       MVC   CPTRMIN,=AL2(L'XMODPACK)
                                    8207
 0006E2 4110 714D/4100_      007D7  8208                       TSEG  XNAK
                                    8236                       ¿þþþþþþþþþþþþþþþþþþþþþþþþþþÜ
                                    8237                       Ÿ  Read an XMODEM packet.  Ÿ
                                    8238                       ¾þþþþþþþþþþþþþþþþþþþþþþþþþþ»
 0006F4 1B00/1BFF/58E0_             8239              LPLPLP   TREAD
                                    8254
 0006FE 4110 714C/4100_      007D6  8255                       TSEG  XACK                Acknowlege packet
 000710 4770 C7DA            007DA  8283                       BNZ   CVABORT
 000714 47F0 706A            006F4  8284                       B     LPLPLP
1MICRO    (MICR2025) (12:48) (15MAR04) UPLOAD Command                                                                       Page   10
0Current Usings:  (*,R7) (XMODWA-(4+36),R8) (CP,R11) (CV,R12)
0Loc    Object Code    Addr1 Addr2  Stmt Lv Lineno    Source Statement           (Hibal 5, Asmedit 3.3)  HLASM R4.0  2004/03/15 12.48
+___    ______ ____    _____ _____  ____ __ ______    ______ _________
0                                   8285                       ¿þþþþþþþþþþþþþþþþþþþþþþþþþþþþþþþþþþÜ
                                    8286                       Ÿ  Restore terminal I/O settings.  Ÿ
                                    8287                       ¾þþþþþþþþþþþþþþþþþþþþþþþþþþþþþþþþþþ»
 000718 D20D BC7A 8028 00C7A 00000  8288                       MVC   CPTRM,XMODTRM       Restore terminal I/O settings
 00071E 18D8/9808 D004_             8289                       PEND
 DROP   XMODWA-(4+36),R8
 DROP   *,R7
                                    8314
                                    8315                       QLTORG
                                    8351
 0007D4 01                          8352              XSOH     DC    X'01'               ASCII SOH character
 0007D5 04                          8353              XEOT     DC    X'04'               ASCII EOT character
 0007D6 06                          8354              XACK     DC    X'06'               ASCII ACK character
 0007D7 15                          8355              XNAK     DC    X'15'               ASCII NAK character
 0007D8 18                          8356              XCAN     DC    X'18'               ASCII CAN character
1MICRO    (MICR2025) (12:48) (15MAR04) DOWNLOAD Command                                                                     Page   11
0Current Usings:  (CP,R11) (CV,R12)
0Loc    Object Code    Addr1 Addr2  Stmt Lv Lineno    Source Statement           (Hibal 5, Asmedit 3.3)  HLASM R4.0  2004/03/15 12.48
+___    ______ ____    _____ _____  ____ __ ______    ______ _________
0                                   8358              ¿þþþþþþþþþþþþþþþþþþþþþþþþþþþþþþþþþþþþþþþþþþþþþþþþþþþþþþþþþþþþþþþþþþþþþÜ
                                    8359              Ÿ                                                                     Ÿ
                                    8360              Ÿ  DOWNLOAD -- DOWNLOAD Command.                                      Ÿ
                                    8361              Ÿ                                                                     Ÿ
                                                      ¾þþþþþþþþþþþþþþþþþþþþþþþþþþþþþþþþþþþþþþþþþþþþþþþþþþþþþþþþþþþþþþþþþþþþþ»
0000000                00000 00001  8362              DOWNWA   RECORD BEGIN
 000000 00                          8370  1           DOWNFLG    FLAG
 DOWNFLG.DOWNFST   80 ONES          8374  1                      FLAG  DOWNFST             - Processed the first line
 DOWNFLG.DOWNFTXT  40 ONES          8379  1                      FLAG  DOWNFTXT            - Last line had text on it
 000001                00001 00001  8384                       END
                                    8393              þþþþ
 0007DA 50E0 D000/9008_      00000  8394              DOWNLOAD XPROC DOWNWA
 USING  *,R7
 USING  DOWNWA-(4+36),R8
 0007F4 9200 8028      00000        8445                       CLEAR DOWNWA
 0007F8 4160 8028            00000  8452                       LA    R6,DOWNWA
 0007FC 5060 BD6C            00D6C  8453                       ST    R6,CPWK4            Save DOWNWA ptr
                                    8454
 000800 58E0 733C/0DEE       00B30  8455                       VCALL SCNEXFR             Allow active/exec/from dsname
 000806 9610 BD50      00D50        8459                       SET   CPLFLG1.CPFALL      Default is ALL
 00080A 58E0 7340/0DEE       00B34  8466                       VCALL NDETRNG             Scan range
                                    8470
 000810 9503 BD89/4770_00D89        8471                       IF    CPFRDEXT,BEGIN
 000818 58E0 7344/0DEE       00B38  8486  1                      VCALL MKFFINFO
 00081E 5810 B08C/1B00_      0008C  8490  1                      SCAN  DOWNPRTX
 000870 58E0 7350/0DEE       00B44  8522  1                      SCANCHK
 000876                             8527                       END
 000876 7086/47F0 70DE 00876 00816  8531                       ELSE  BEGIN
 00087A 5810 B08C/1B00_      0008C  8542  1                      SCAN  DOWNPRT
 0008CC 58E0 7350/0DEE       00B44  8574  1                      SCANCHK
 0008D2                             8579                       END
                                    8583
 0008D2 9503 BD89/4770_00D89        8584                       IF    CPFRDEXT,BEGIN
 0008DA 58E0 7358/0DEE       00B4C  8599  1                      VCALL FNAMEFIN
 0008E0 58E0 735C/0DEE       00B50  8603  1                      VCALL EXTOPEN
 0008E6 12FF/4770 C7DE              8607  1                      IF    (R15,NZ),CVNEXT
 0008EC                             8624                       END
                                    8628
                                    8629                       COMMENT                   READ RANGE
 0008EC 9502 BD89/4770_00D89        8630                       IF    CPFRDEXE,BEGIN      Exec
 0008F4 5800 7360/5810_      00B54  8645  1                      RDRNG DOWNRTN,(DESRTRN+LEXATRTN+UNPRST+DESABORT)
 000902                             8652                       END
 000902 7112/47F0 7128_00902 008F2  8656                       ELSEIF    CPFRDEXT,BEGIN       External
 00090E 5800 736C/5810_      00B60  8680  1                      RDRNG DOWNRTN,(DESRTRN+LXCATRTN+UNPRST+DESABORT)
 00091C                             8687                       END
 00091C 712C/47F0 713A 0091C 0090C  8691                       ELSE  BEGIN                       ACTIVE FILE
 000920 5800 7370/5810_      00B64  8702  1                      RDRNG DOWNRTN,(DESRTRN+LOCATRTN+UNPRST+DESABORT)
 00092E                             8709                       END
 00092E 1B00/41F0 B050_             8713                       TWRITE
                                    8738
 00093A 947F BC7A/947F_00C7A        8739                       CLEAR CPFNONL,CPFCLEAN,CPFSLOW,CPFNMOD,CPFNPAU
 00094E 1B00/41F0 B050_             8766                       TCR
 00095A 1B00/41F0 B050_             8791                       TCR
1MICRO    (MICR2025) (12:48) (15MAR04) DOWNLOAD Command                                                                     Page   12
0Current Usings:  (*,R7) (DOWNWA-(4+36),R8) (CP,R11) (CV,R12)
0Loc    Object Code    Addr1 Addr2  Stmt Lv Lineno    Source Statement           (Hibal 5, Asmedit 3.3)  HLASM R4.0  2004/03/15 12.48
+___    ______ ____    _____ _____  ____ __ ______    ______ _________
0000966 4110 73AC/4100_      00BA0  8816                       TSEG  X'2F'
 000978 4110 73AD/4100_      00BA1  8834                       SETMSG 'DOWNLOAD completed.'
 000980 47F0 C7D0            007D0  8838                       B     CVNXTMSG
                                    8839
 000984 18D8/9808 D004_             8840                       PEND
 DROP   DOWNWA-(4+36),R8
 DROP   *,R7
                                    8865              *
                                    8866              *
 000994 C6D9D6D440404040_           8867              DOWNPRTX SCKW  FROM,V(FNAMESCN),A
 0009BC 4040404040404040_           8882                       SCKW  ,V(FNAMPSHF),PUSH
                                    8897
 0009E4 4040404040404040_           8898              DOWNPRT  SCKW  ,V(LTNPSH),PUSH
 000A0C 4040404040404040_           8913                       SCKW  ,V(NOTVALID)
                                    8928
1MICRO    (MICR2025) (12:48) (15MAR04) DOWNLOAD Command                                                                     Page   13
0Current Usings:  (CP,R11) (CV,R12)
0Loc    Object Code    Addr1 Addr2  Stmt Lv Lineno    Source Statement           (Hibal 5, Asmedit 3.3)  HLASM R4.0  2004/03/15 12.48
+___    ______ ____    _____ _____  ____ __ ______    ______ _________
0                                   8930              ¿þþþþþþþþþþþþþþþþþþþþþþþþþþþþþþþþþþþþþþþþþþþþþþþþþþþþþþþþþþþþþþþþþþþþþÜ
                                    8931              Ÿ                                                                     Ÿ
                                    8932              Ÿ  DOWNRTN -- Co-routine to list lines from the range processor       Ÿ
                                    8933              Ÿ    in a format suitable to be captured by a micro-computer.         Ÿ
                                    8934              Ÿ                                                                     Ÿ
                                    8935              Ÿ    On entry:                                                        Ÿ
                                    8936              Ÿ      R1,R0 - line loc, len                                          Ÿ
                                    8937              Ÿ                                                                     Ÿ
                                                      ¾þþþþþþþþþþþþþþþþþþþþþþþþþþþþþþþþþþþþþþþþþþþþþþþþþþþþþþþþþþþþþþþþþþþþþ»
0000A34 50E0 D000/9008_      00000  8938              DOWNRTN  PROC
 USING  *,R7
 000A4E 5860 BD6C            00D6C  8977                       L     R6,CPWK4            DOWNWA ptr
 USING  DOWNWA,R6                   8978                       WITH  (DOWNWA,R6)
                                    8991
 000A52 1831                        8992                       LR    R3,R1               Save line ptr
 000A54 1820                        8993                       LR    R2,R0
                                    8994
 000A56 9180 6000/4710_00000        8995                       IF    ~DOWNFST,BEGIN      First time...
 000A5E 9680 BC7A/9680_00C7A        9010  1                      SET   CPFNONL,CPFCLEAN,CPFSLOW,CPFNMOD,CPFNPAU
                                    9032  1
 000A72 4110 7130/4100_      00B7E  9033  1                      TREAD 'Press RETURN to begin download... '
 000A82 4770 C7EA            007EA  9047  1                      BNZ   CVNOACTN            Forget it
                                    9048  1
 000A86 9680 6000      00000        9049  1                      SET   DOWNFST             All set now
 000A8A                             9055                       END
                                    9059                       ¿þþþþþþþþþþþþþþþþþþþÜ
                                    9060                       Ÿ  Write the text.  Ÿ
                                    9061                       ¾þþþþþþþþþþþþþþþþþþþ»
 000A8A 1222/4780 709E              9062                       IF    (R2,NZ),BEGIN       Write text line...
 000A90 9140 6000/47E0_00000        9076  1                      IF    DOWNFTXT,BEGIN      We had text before...
 000A98 9540 3000/4780_00000        9091  2                        IF    (@R3,NE,' '),'TSEG CVBLANKS,1'
 000AB2 7068/47F0 7074_00AB2 00A9E  9142  2                        ELSE  'TCR'
 000AC2                             9183  1                      END
                                    9187  1
 000AC2 1813/1802/41F0_             9188  1                      TSEG  (R3),(R2)           Write line text
 000AD0 9540 3000/4770_00000        9214  1                      IF    (@R3,EQ,' '),'TCR'  Not text, add the CR
 000AE4 709A/47F0 709E_00AE4 00AD6  9260  1                      ELSE  'SET DOWNFTXT'      It's just text
 000AEC                             9282                       END
                                    9286
 000AEC 70A2/47F0 70C6 00AEC 00A8E  9287                       ELSE  BEGIN               Blank line...
 000AF0 9140 6000/47E0_00000        9298  1                      IF    DOWNFTXT,'TCR'      End last text line
 000B04 1B00/41F0 B050_             9343  1                      TCR
 000B10 94BF 6000      00000        9368  1                      CLEAR DOWNFTXT
 000B14                             9375                       END
                                    9379
 000B14 41F0 B050/58E0_      00050  9380                       TMARK
 000B1E 18D8/9808 D004_             9394                       PEND
 DROP   DOWNWA,R6
 DROP   *,R7
                                    9419
                                    9420                       QLTORG
                                    9455
                                    9456                       VLTORG
1MICRO    (MICR2025) (12:48) (15MAR04) DOWNLOAD Command                                                                     Page   14
0Current Usings:  (CP,R11) (CV,R12)
0Loc    Object Code    Addr1 Addr2  Stmt Lv Lineno    Source Statement           (Hibal 5, Asmedit 3.3)  HLASM R4.0  2004/03/15 12.48
+___    ______ ____    _____ _____  ____ __ ______    ______ _________
0000BB8                00BB8 00BB8  9464                       END   .

1MICRO    (MICR2025) (12:48) (15MAR04) Relocation Dictionary                                                                Page   15
-   Pos.Id   Rel.Id   Flags    Address                                                       HLASM R4.0  2004/03/15 12.48
0  00000001 00000001    0C    00000188
   00000001 00000001    0C    000001B0
   00000001 00000001    0C    000001D8
   00000001 00000001    0C    00000200
   00000001 00000001    0C    00000228
   00000001 00000001    0C    00000250
   00000001 00000001    0C    00000278
   00000001 00000001    0C    000002A0
   00000001 00000001    0C    000002C8
   00000001 00000001    0C    000002F0
   00000001 00000001    0C    00000318
   00000001 00000001    0C    00000340
   00000001 00000001    0C    00000368
   00000001 00000001    0C    00000390
   00000001 00000001    0C    00000748
   00000001 00000001    0C    00000B3C
   00000001 00000001    0C    00000B48
   00000001 00000001    0C    00000B58
   00000001 00000002    1C    00000184
   00000001 00000002    1C    000001FC
   00000001 00000002    1C    00000224
   00000001 00000002    1C    0000024C
   00000001 00000003    1C    000001AC
   00000001 00000003    1C    000001D4
   00000001 00000004    1C    00000274
   00000001 00000004    1C    0000029C
   00000001 00000004    1C    000002C4
   00000001 00000004    1C    000002EC
   00000001 00000004    1C    00000314
   00000001 00000004    1C    0000033C
   00000001 00000004    1C    00000364
   00000001 00000004    1C    0000038C
   00000001 00000004    1C    000009B4
   00000001 00000005    1C    000003B4
   00000001 00000005    1C    00000A2C
   00000001 00000006    1C    000003B8
   00000001 00000007    1C    00000740
   00000001 00000008    1C    00000744
   00000001 00000009    1C    0000074C
   00000001 00000009    1C    00000B40
   00000001 0000000A    1C    00000750
   00000001 0000000A    1C    00000B44
   00000001 0000000B    1C    00000754
   00000001 0000000B    1C    00000B74
   00000001 0000000C    1C    00000760
   00000001 0000000D    1C    00000764
   00000001 0000000E    1C    0000076C
   00000001 0000000E    1C    00000B6C
   00000001 0000000F    1C    00000770
   00000001 0000000F    1C    00000B68
   00000001 00000010    1C    00000774
   00000001 00000010    1C    00000B70
   00000001 00000011    1C    000009B8
   00000001 00000012    1C    000009E0
   00000001 00000013    1C    00000A08
1MICRO    (MICR2025) (12:48) (15MAR04) Relocation Dictionary                                                                Page   16
   00000001 00000014    1C    00000A30
   00000001 00000015    1C    00000B30
   00000001 00000016    1C    00000B34
   00000001 00000017    1C    00000B38
   00000001 00000018    1C    00000B4C
   00000001 00000019    1C    00000B50
   00000001 0000001A    1C    00000B5C
   00000001 0000001B    1C    00000B78

1MICRO    (MICR2025) (12:48) (15MAR04) Ordinary Symbol and Literal Cross Reference                                          Page   17
-Symbol   Length   Value     Id    R Type   Defn References                                  HLASM R4.0  2004/03/15 12.48
0$$$@R0        1 00000000 FFFFFFFE     J     705 1007
 $$$@R10       1 00000000 FFFFFFF4     J     835 1071
 $$$@R11       1 00000000 FFFFFFF3     J     848 1084
 $$$@R12       1 00000000 FFFFFFF2     J     861 1097
 $$$@R13       1 00000000 FFFFFFF1     J     874 1110
 $$$@R14       1 00000000 FFFFFFF0     J     887 1123
 $$$@R7        1 00000000 FFFFFFF7     J     796 1020
 $$$@R8        1 00000000 FFFFFFF6     J     809 1033  1045
 $$$@R9        1 00000000 FFFFFFF5     J     822 1058
 $$$C1WYLMICRO
               1 000007D4 00000001     J    8346 8348  8391
 $$$C2WYLMICRO
               1 00000BB4 00000001     J    9450 9452
 $$$C3WYLMICRO
               1 00000BB8 00000001     J    9467 9469
 $$$RCP        1 00000000 FFFFFFEC     J    2452 4712  6186  6186
 $$$RCV        1 00000000 FFFFFFEE     J    1177 2362  2362
 $$$RDEV       1 00000000 FFFFFFEB     J    4666 4711  4711
 $$$RDOWNWA
               1 00000000 FFFFFFE6     J    8364 8390  8390
 $$$RNSCNCB
               1 00000000 FFFFFFED     J    2373 2446  2446
 $$$RTTYPE
               1 00000000 FFFFFFEA     J    6197 6298  6298
 $$$RUPWA      1 00000000 FFFFFFE9     J    6312 6408  6408
 $$$RXMODPACK
               1 00000000 FFFFFFE8     J    8003 8019  8019
 $$$RXMODWA
               1 00000000 FFFFFFE7     J    8029 8042  8042
 $$$SEGCB0
               4 00000050 FFFFFFEC     F    2483 2569  2569
 $$$101B       4 00000814 00000001     I    8481 8533
 $$$101F       2 00000876 00000001     H    8530 8481B 8532
 $$$102E       2 0000087A 00000001     H    8540 8534
 $$$102F       2 000008D2 00000001     H    8582 8536B
 $$$103F       2 000008EC 00000001     H    8627 8594B
 $$$105B       4 000008F0 00000001     I    8640 8659
 $$$105F       2 00000902 00000001     H    8655 8640B 8658
 $$$106B       4 0000090A 00000001     I    8675 8693
 $$$106E       2 00000906 00000001     H    8666 8660
 $$$106F       2 0000091C 00000001     H    8690 8662B 8675B 8692
 $$$108E       2 00000920 00000001     H    8700 8694
 $$$108F       2 0000092E 00000001     H    8712 8696B
 $$$109        1 00000054 00000001 A   U    8862 8859  8861
 $$$111B       1 00000A4E 00000001     X    8961 8968U
 $$$112F       2 00000A8A 00000001     H    9058 9005B
 $$$113B       4 00000A8C 00000001     I    9071 9289
 $$$113F       2 00000AEC 00000001     H    9285 9071B 9288
 $$$114F       2 00000AC2 00000001     H    9186 9086B
 $$$115B       4 00000A9C 00000001     I    9102 9144
 $$$115F       2 00000AB2 00000001     H    9141 9102B 9143
 $$$116E       2 00000AB6 00000001     H    9151 9145
 $$$116F       2 00000AC2 00000001     H    9182 9147B
 $$$117B       4 00000AD4 00000001     I    9225 9262
 $$$117F       2 00000AE4 00000001     H    9259 9225B 9261
1MICRO    (MICR2025) (12:48) (15MAR04) Ordinary Symbol and Literal Cross Reference                                          Page   18
 $$$118E       2 00000AE8 00000001     H    9269 9263
 $$$118F       2 00000AEC 00000001     H    9281 9265B
 $$$119E       2 00000AF0 00000001     H    9296 9290
 $$$119F       2 00000B14 00000001     H    9378 9292B
 $$$120F       2 00000B04 00000001     H    9342 9308B
 $$$121        1 00000050 00000001 A   U    9416 9413  9415
 $$$43B        1 00000032 00000001     X    6438 6445U
 $$$44F        2 000000DC 00000001     H    6580 6565B
 $$$45F        2 000000E8 00000001     H    6606 6591B
 $$$46F        2 00000140 00000001     H    6725 6715B
 $$$46S        2 000000F8 00000001     H    6618 6724B
 $$$47F        2 0000012E 00000001     H    6690 6651B
 $$$48F        2 0000012A 00000001     H    6685 6672B
 $$$50         1 00000440 00000001 A   U    6760 6757  6759
 $$$52B        1 000003D6 00000001     X    7015 7022U
 $$$53         1 00000050 00000001 A   U    7049 7046  7048
 $$$55B        1 00000402 00000001     X    7076 7083U
 $$$56         1 00000050 00000001 A   U    7135 7132  7134
 $$$58B        1 00000442 00000001     X    7162 7169U
 $$$59         1 00000050 00000001 A   U    7227 7224  7226
 $$$61B        1 00000486 00000001     X    7254 7261U
 $$$62F        2 00000496 00000001     H    7294 7285B
 $$$63         1 00000050 00000001 A   U    7313 7310  7312
 $$$65B        1 000004C2 00000001     X    7340 7347U
 $$$66F        2 000004CE 00000001     H    7374 7365B
 $$$67         1 00000050 00000001 A   U    7393 7390  7392
 $$$69B        1 000004FA 00000001     X    7420 7427U
 $$$70         1 00000050 00000001 A   U    7455 7452  7454
 $$$72B        1 0000052A 00000001     X    7482 7489U
 $$$73         1 00000050 00000001 A   U    7521 7518  7520
 $$$75B        1 00000556 00000001     X    7548 7555U
 $$$76         1 00000050 00000001 A   U    7587 7584  7586
 $$$78B        1 00000582 00000001     X    7614 7621U
 $$$79         1 00000050 00000001 A   U    7653 7650  7652
 $$$81B        1 000005AE 00000001     X    7680 7687U
 $$$82         1 00000050 00000001 A   U    7719 7716  7718
 $$$84B        1 000005DA 00000001     X    7746 7753U
 $$$85         1 00000050 00000001 A   U    7786 7783  7785
 $$$87B        1 00000606 00000001     X    7813 7820U
 $$$88         1 00000050 00000001 A   U    7852 7849  7851
 $$$90B        1 00000632 00000001     X    7879 7886U
 $$$91         1 00000050 00000001 A   U    7918 7915  7917
 $$$93B        1 0000065E 00000001     X    7945 7952U
 $$$94         1 00000050 00000001 A   U    7985 7982  7984
 $$$96B        1 0000068A 00000001     X    8071 8078U
 $$$97         1 00000060 00000001 A   U    8311 8308  8310
 $$$99B        1 000007F4 00000001     X    8420 8427U
 @RAR          0 00000000 FFFFFFF0     @    1124 2160  2168B
 @R0           0 00000000 FFFFFFFE     @     706  982U
 @R1           0 00000000 FFFFFFFD     @     719  978U 2166  2167
 @R10          0 00000000 FFFFFFF4     @     836  942U
 @R11          0 00000000 FFFFFFF3     @     849  938U
 @R12          0 00000000 FFFFFFF2     @     862  934U
 @R13          0 00000000 FFFFFFF1     @     875  930U
 @R14          0 00000000 FFFFFFF0     @     888  926U
 @R15          0 00000000 FFFFFFEF     @     901  922U 6610
 @R2           0 00000000 FFFFFFFC     @     732  974U
 @R3           0 00000000 FFFFFFFB     @     745  970U 9101  9224
 @R4           0 00000000 FFFFFFFA     @     758  966U
1MICRO    (MICR2025) (12:48) (15MAR04) Ordinary Symbol and Literal Cross Reference                                          Page   19
 @R5           0 00000000 FFFFFFF9     @     771  962U
 @R6           0 00000000 FFFFFFF8     @     784  958U 7994U 9400U
 @R7           0 00000000 FFFFFFF7     @     797  954U 6749U 7038U 7124U 7216U 7302U 7382U 7444U 7510U 7576U 7642U 7708U
                                                 7775U 7841U 7907U 7974U 8300U 8851U 9405U
 @R8           0 00000000 FFFFFFF6     @     810  950U 6744U 8295U 8846U
 @R9           0 00000000 FFFFFFF5     @     823  946U
 ABSCENT       1 00000000 00000000 A   T    2176 2176
 ASCTBL        1 00000000 00000000 A   T    2184 2184
 BLTBL         1 00000000 00000000 A   T    2186 2186
 BR            7 00000007 00000001 A   #    1014 6433M 7010M 7071M 7157M 7249M 7335M 7415M 7477M 7543M 7609M 7675M 7741M
                                                 7808M 7874M 7940M 8066M 8415M 8956M
 CHECKIOB      1 00000000 00000000 A   T    2232 2232
 COMMAND       1 00000000 00000000 A   T    2172 2172
 COMMSEG       1 00000000 00000000 A   T    2173 2173
 CP         4096 00000000 FFFFFFEC     J    6186 1161U
 CP#XSTK       1 00000010 FFFFFFEC A   U    3918 3919
 CPACFLG       1 000005D5 FFFFFFEC     R    4021 4025  4030  4035  4040  4045
 CPACFLN       4 000005C4 FFFFFFEC     F    4013 4048  4048
 CPAFLAG       1 000005C3 FFFFFFEC     R    3985 3989  3994  3999  4004
 CPANAME       8 00000588 FFFFFFEC     C    3967 4063  4063
 CPAUTFLG      1 000008A9 FFFFFFEC     R    4331 4335  4340  4345  4350
 CPCHFLAG      1 00000B68 FFFFFFEC     R    4958 4962
 CPCWA         4 00000CA4 FFFFFFEC     F    5210 6483M
 CPDFLG        1 0000084C FFFFFFEC     R    4218 4222  4227  4232  4237  4242
 CPDFLG2       1 0000084D FFFFFFEC     R    4247 4251  4256  4261  4266  4271  4276
 CPEXFLG       1 00000758 FFFFFFEC     R    4087 4091
 CPEXFLG2      1 00000759 FFFFFFEC     R    4097 4106  4116
 CPEXFLG3      1 0000075A FFFFFFEC     R    4123 4127  4132
 CPEXTFLG      1 00000E28 FFFFFFEC     R    5769 5773  5778  5783  5788  5793  5798
 CPFABORT    128 00000D5A FFFFFFEC         5535 2136M 2136  2141M 2141
 CPFALL        1 00000010 FFFFFFEC A   U    5301 8463
 CPFBUFIO      2 00000C7C FFFFFFEC         5153 7701M
 CPFCLEAN    128 00000C7B FFFFFFEC         5088 6550M 8198M 8750M 9019M
 CPFDATTN      2 00000C7D FFFFFFEC         5193 6602M
 CPFERROR     64 00000D5A FFFFFFEC         5540 2135M 2135  2140M 2140
 CPFFORCE      4 00000C7C FFFFFFEC         5148 7635M
 CPFNECHO     64 00000C7B FFFFFFEC         5093 6576M
 CPFNMOD      16 00000C7C FFFFFFEC         5138 8760M 9027M
 CPFNONL     128 00000C7A FFFFFFEC         5068 8194M 8745M 9015M
 CPFNPAU     128 00000C7D FFFFFFEC         5163 8765M 9031M
 CPFNTEX       1 00000040 FFFFFFEC A   U    5387 5388
 CPFRDEXE      2 00000D89 FFFFFFEC         5713 8639
 CPFRDEXT      3 00000D89 FFFFFFEC         5723 8480  8593  8674
 CPFRDRNG      1 00000D88 FFFFFFEC     R    5655 5659  5664  5669  5674  5679  5684  5689
 CPFRDSRC      1 00000D89 FFFFFFEC     R    5694 5703  5713  5723
 CPFRUND      32 00000C7C FFFFFFEC         5133 8204  8204
 CPFSLOW      32 00000C7B FFFFFFEC         5098 8755M 9023M
 CPFTRAN     128 00000C7C FFFFFFEC         5123 6554M 8204  8204  8205M
 CPFUNUM       1 00000080 FFFFFFEC A   U    5386 5388
 CPFXDFLG      1 000007E4 FFFFFFEC     R    4165 4169  4174
 CPGFLG1       1 00000474 FFFFFFEC     R    3528 3532  3537  3542  3547  3552  3882  3882
 CPGFLG10      1 0000047D FFFFFFEC     R    3765 3769  3774  3779  3784  3789  3794
 CPGFLG11      1 0000047E FFFFFFEC     R    3800 3804  3809
 CPGFLG12      1 0000047F FFFFFFEC     R    3815 3819  3824  3829
 CPGFLG13      1 00000480 FFFFFFEC     R    3835 3839
 CPGFLG14      1 00000481 FFFFFFEC     R    3845 3849  3854  3859  3864  3869
 CPGFLG4       1 00000477 FFFFFFEC     R    3581 3592  3601  3610  3619  3628
 CPGFLG5       1 00000478 FFFFFFEC     R    3634 3638  3643  3648  3653  3658  3663  3668  3673
 CPGFLG6       1 00000479 FFFFFFEC     R    3679 3683  3688  3693
1MICRO    (MICR2025) (12:48) (15MAR04) Ordinary Symbol and Literal Cross Reference                                          Page   20
 CPGFLG7       1 0000047A FFFFFFEC     R    3699 3703  3708  3713  3718
 CPGFLG8       1 0000047B FFFFFFEC     R    3724 3728  3733  3738  3743
 CPGFLG9       1 0000047C FFFFFFEC     R    3749 3753  3759
 CPINIT        1 00000174 FFFFFFEC     U    2698 6155
 CPJESFLG      1 000009E1 FFFFFFEC     R    4430 4434  4439  4444  4449  4454  4459  4464  4469
 CPJESFLY      1 000009FD FFFFFFEC     R    4480 4484  4489  4494
 CPJESHFL      1 000009E0 FFFFFFEC     R    4415 4419  4424  4503  4503
 CPLFLG1       1 00000D50 FFFFFFEC     R    5298 8465M
 CPLFLG10      1 00000D59 FFFFFFEC     R    5521 5525
 CPLFLG11      1 00000D5A FFFFFFEC     R    5531 5535  5540  5545  5550
 CPLFLG12      1 00000D5B FFFFFFEC     R    5556 5560
 CPLFLG14      1 00000D5C FFFFFFEC     R    5566 5570  5575  5580  5585  5590
 CPLFLG6       1 00000D55 FFFFFFEC     R    5396 5400  5405  5410  5415  5420  5425
 CPLFLG7       1 00000D56 FFFFFFEC     R    5431 5435  5440  5445  5450  5455
 CPLFLG8       1 00000D57 FFFFFFEC     R    5461 5465  5470  5475  5480
 CPLFLG9       1 00000D58 FFFFFFEC     R    5486 5490  5495  5500  5505  5510  5515
 CPLOCALZ      1 00000C48 FFFFFFEC     U    4988 6149  6149
 CPMFLG        1 0000084F FFFFFFEC     R    4285 4289
 CPMODFLG      1 00000C78 FFFFFFEC     R    5016 5020  5025  5030  5035  5040
 CPNAMELN      1 00000010 FFFFFFEC A   U    3911 4158
 CPNEDPFX     10 00000E29 FFFFFFEC     X    5802 5803  5804
 CPNSCANP      4 0000008C FFFFFFEC     A    2571 6507  6514  6530  7094  7186  8492  8499  8515  8544  8551  8567
 CPNUMFLG      1 00000C79 FFFFFFEC     R    5046 5058
 CPORVCMD      1 00000140 FFFFFFEC     R    2580 2584  2589  2594  2599  2604  2609  2614  2619  2624  2624  2675  2675
 CPORVFLG      1 00000149 FFFFFFEC     R    2631 2635  2640  2645  2650  2655  2660  2665  2670
 CPORVWF       1 00000150 FFFFFFEC     R    2683 2687
 CPOSCANX      4 00000CA8 FFFFFFEC     F    5215 5282  5282
 CPR          11 0000000B 00000001 A   #    1078 1161U
 CPRACBAD     16 000001FC FFFFFFEC         2749 2783  2783  2784  2784
 CPRACF1       1 000001FC FFFFFFEC     R    2730 2734  2739  2744  2749  2754  2759  2764  2769  2785
 CPRACPSW     32 000001FC FFFFFFEC         2744 2782  2782  2784  2784
 CPRACUND     64 000001FC FFFFFFEC         2739 2782  2782  2783  2783
 CPRCVCUR      4 00000730 FFFFFFEC     A    4066 4068  4068
 CPRFLG        1 000008AA FFFFFFEC     R    4356 4360  4365  4370  4375  4380  4385
 CPS         254 00000344 FFFFFFEC     X    3500 3503  3504  3506  3506
 CPSACCT       5 000003B4 FFFFFFEC     C    3099 3262  3262
 CPSAMCOD      1 00000A22 FFFFFFEC     R    4552 4560  4570  4580  4589  4598  4607  4617  4626  4635
 CPSAMFLG      1 00000A21 FFFFFFEC     R    4512 4516  4521  4526  4531  4536  4541  4546  4657  4657
 CPSCNFLG      1 00000CD0 FFFFFFEC     R    5228 5239  5248  5259
 CPSCNF2       1 00000CD1 FFFFFFEC     R    5264 5268
 CPSCNMAX      1 00000014 FFFFFFEC A   U    5280 5281
 CPSCRI        2 00000434 FFFFFFEC     H    3489 3494  3494
 CPSEG        60 00000050 FFFFFFEC     X    2569 8110  8135  8153  8178  8231  8278  8733  8786  8811  8829  9133  9174
                                                 9209  9251  9334  9363  9389
 CPSEGCOD      1 00000050 FFFFFFEC     R    2486 2495  2505  2515  2525  2535  2545  2555
 CPSFL         1 00000384 FFFFFFEC     R    2837 2841  2846  2851  2856  2861
 CPSFLG        1 000003F8 FFFFFFEC     R    3377 3381  3386  3391  3396  3401  3406  3411  3416
 CPSFLG2       1 000003F9 FFFFFFEC     R    3422 3426  3431  3436
 CPSFL2        1 00000385 FFFFFFEC     R    2867 2871  2876  2881  2886
 CPSFL3        1 00000386 FFFFFFEC     R    2892 2896  2901  2906
 CPSFL4        1 00000387 FFFFFFEC     R    2912 2916  2921  2926
 CPSFL5        1 00000388 FFFFFFEC     R    2932 2936  2941  2946
 CPSKAFL       1 000003BF FFFFFFEC     R    3233 3237  3242  3247  3252  3257
 CPSKIFL       1 000003BE FFFFFFEC     R    3188 3192  3197  3202  3207  3212  3217  3222  3227
 CPSOF         1 000001F8 FFFFFFEC     X    2720 2722  2722
 CPSOFLAG      1 00000416 FFFFFFEC     R    3447 3451  3456  3461  3466  3471
 CPSOPST       4 000003C4 FFFFFFEC     F    3267 3496  3496
 CPSPORT       8 00000354 FFFFFFEC     C    2831 2951  2951
 CPSQFLG       1 000003EC FFFFFFEC     R    3296 3300
1MICRO    (MICR2025) (12:48) (15MAR04) Ordinary Symbol and Literal Cross Reference                                          Page   21
 CPSSFLG       1 000003BB FFFFFFEC     R    3106 3110  3115  3120  3125  3130  3135
 CPSSTART      4 00000344 FFFFFFEC     F    2823 2827  2827  3263  3263  3368  3368  3500  3500
 CPSSTAT       1 0000038F FFFFFFEC     R    3043 3047  3052  3057  3062  3067  3072  3077
 CPSTACF       1 000003BC FFFFFFEC     R    3141 3145  3150  3155  3160  3165  3170  3175  3180
 CPSTART       4 00000000 FFFFFFEC     C    2459 6153  6157
 CPSTFLAG      1 000003EA FFFFFFEC     R    3274 3278  3283  3288
 CPSTYPE       1 0000038C FFFFFFEC     R    2956 2965  2975  2985  2995  3005  3015  3025  3035
 CPSUFLG       1 000003EE FFFFFFEC     R    3311 3315  3320  3325  3330  3335  3340  3345  3350
 CPSUFLG2      1 000003EF FFFFFFEC     R    3356 3360  3365
 CPSVPGM       8 0000039C FFFFFFEC     C    3089 3095  3095
 CPS1ST        4 0000038C FFFFFFEC     F    2953 3498  3498
 CPTEMPP#      1 0000005F FFFFFFEC A   U    4406 4408
 CPTRM        14 00000C7A FFFFFFEC     X    5202 8035  8187  8288M
 CPTRMFL1      1 00000C7A FFFFFFEC     R    5064 5068  5073  5078  5202  5202
 CPTRMFL2      1 00000C7B FFFFFFEC     R    5084 5088  5093  5098  5103  5108  5113
 CPTRMFL3      1 00000C7C FFFFFFEC     R    5119 5123  5128  5133  5138  5143  5148  5153
 CPTRMFL4      1 00000C7D FFFFFFEC     R    5159 5163  5168  5173  5178  5183  5188  5193
 CPTRMIN       2 00000C80 FFFFFFEC     H    5199 6607M 8206M
 CPUSED        1 00000FBC FFFFFFEC A   U    6153 6154
 CPVACURS      8 00000AF0 FFFFFFEC     D    4931 4932  4933
 CPVCURS       8 00000AE0 FFFFFFEC     D    4925 4926  4927
 CPVFLAG       1 00000AC8 FFFFFFEC     R    4726 4730  4735  4740  4745  4750
 CPVFLAG2      1 00000AC9 FFFFFFEC     R    4756 4760  4765  4770  4775  4780  4785
 CPVFLAG3      1 00000ACA FFFFFFEC     R    4791 4795  4800  4805  4810  4815  4820
 CPVFLAG4      1 00000ACB FFFFFFEC     R    4826 4830  4835  4840
 CPVLFLAG      1 00000ACE FFFFFFEC     R    4895 4899  4904  4909
 CPVMODE       1 00000ACC FFFFFFEC     R    4848 4852  4857  4862  4867  4872  4877  4882  4887
 CPVTWID       2 00000AD0 FFFFFFEC     H    4915 4918  4918
 CPWK1         4 00000D60 FFFFFFEC     F    5599 5614  5637
 CPWK2         4 00000D64 FFFFFFEC     F    5600 5615  5629
 CPWK3         4 00000D68 FFFFFFEC     F    5601 5616  5630
 CPWK4         4 00000D6C FFFFFFEC     F    5602 5617  5631  8453M 8977
 CPWK5         4 00000D70 FFFFFFEC     F    5603 5619  5624  5632
 CPWK6         4 00000D74 FFFFFFEC     F    5604 5620  5625  5633  5640  5642
 CPWK7         4 00000D78 FFFFFFEC     F    5605 5618  5634
 CPXFLAG       1 000007FD FFFFFFEC     R    4193 4197
 CPXSTATE      4 000007F8 FFFFFFEC     F    4187 4200  4200
 CV         4016 00000000 FFFFFFEE     J    2362 1170U
 CVABORT       4 000007DA FFFFFFEE     I    2141 6644B 8183B 8283B
 CVABSRTN      4 0000088C FFFFFFEE     V    2176 2151
 CVASCTBL      4 000008B0 FFFFFFEE     V    2184 6609
 CVBLANKS    235 000004D8 FFFFFFEE     C    1956 9118
 CVBRMSK       1 00000751 FFFFFFEE     X    2092 2093  2094
 CVCFLAG       1 00000A00 FFFFFFEE     R    2257 2261  2266  2271  2276  2281
 CVCHKST       8 000009F0 FFFFFFEE     D    2247 2337  2337
 CVCHKST2      8 00000E28 FFFFFFEE     D    2340 2343  2343
 CVCOMRTN      4 0000087C FFFFFFEE     V    2172 2142
 CVDBGFLG      1 000004CC FFFFFFEE     R    1946 1950
 CVENT         4 0000074C FFFFFFEE     I    2090 6433B 7010B 7071B 7157B 7249B 7335B 7415B 7477B 7543B 7609B 7675B 7741B
                                                 7808B 7874B 7940B 8066B 8415B 8956B
 CVENTBR       2 00000750 FFFFFFEE     I    2091 2092
 CVERROR       4 000007D6 FFFFFFEE     I    2140 2156B
 CVEXIRTN      4 0000077C FFFFFFEE     V    2120 2116
 CVFCHRKBPR
               8 000004C9 FFFFFFEE         1861 1877  1877
 CVFCHRKBSE
               4 000004C9 FFFFFFEE         1866 1877  1877
 CVFCHRKCPR
               2 000004C9 FFFFFFEE         1883 1899  1899
1MICRO    (MICR2025) (12:48) (15MAR04) Ordinary Symbol and Literal Cross Reference                                          Page   22
 CVFCHRKCSE
               1 000004C9 FFFFFFEE         1888 1899  1899
 CVFCHRUBPR
             128 000004C9 FFFFFFEE         1817 1833  1833
 CVFCHRUBSE
              64 000004C9 FFFFFFEE         1822 1833  1833
 CVFCHRUCPR
              32 000004C9 FFFFFFEE         1839 1855  1855
 CVFCHRUCSE
              16 000004C9 FFFFFFEE         1844 1855  1855
 CVFL          1 000004C4 FFFFFFEE     R    1613 1617  1622  1627  1632  1637  1642  1647  1652
 CVFL2         1 000004C5 FFFFFFEE     R    1658 1662  1667  1672  1677  1682  1687  1692  1697
 CVFL3         1 000004C6 FFFFFFEE     R    1703 1707  1712  1717  1722  1727  1732  1737  1742
 CVFL4         1 000004C7 FFFFFFEE     R    1748 1752  1757  1762  1767  1772  1777  1782
 CVFL5         1 000004C8 FFFFFFEE     R    1788 1792  1797  1802  1807
 CVFL6         1 000004C9 FFFFFFEE     R    1813 1817  1822  1834  1839  1844  1856  1861  1866  1878  1883  1888  1900
 CVHEAP#       1 00000200 FFFFFFEE A   U    1519 1520
 CVINVRTN      4 00000888 FFFFFFEE     V    2175 2145
 CVJESFLG      1 000004CA FFFFFFEE     R    1906 1910
 CVLNKRGS      4 00000780 FFFFFFEE     F    2122 2097M 2123
 CVLNKRTN      4 000007B0 FFFFFFEE     U    2123 2112M
 CVLOCK1       1 00000088 FFFFFFEE     R    1264 1268  1273
 CVLOCK2       1 00000089 FFFFFFEE     R    1278 1282
 CVLOCK3       1 0000008A FFFFFFEE     R    1287 1291
 CVLOCK4       1 0000008B FFFFFFEE     R    1296 1300
 CVLOGMOD      1 00000068 FFFFFFEE     R    1251 1255
 CVMACH        1 00000067 FFFFFFEE     R    1211 1215  1220  1225  1230  1235  1240  1245
 CVMILRTN      4 00000884 FFFFFFEE     V    2174 2154
 CVNEXT        4 000007DE FFFFFFEE     I    2142 6737B 8618B
 CVNOACTN      4 000007EA FFFFFFEE     I    2148 9047B
 CVNOARTN      4 00000890 FFFFFFEE     V    2177 2148
 CVNWDATE      4 00000608 FFFFFFEE     F    1979 1983  1983
 CVNWMPG#      1 00000008 FFFFFFEE A   U    1981 1982
 CVNXTMSG      4 000007D0 FFFFFFEE     I    2137 8838B
 CVPFXRTN      1 00000000 00000000 A   T    2120 2120
 CVPGFLAG      1 00000A01 FFFFFFEE     R    2287 2291  2296  2301
 CVPIOSZ       1 00004F80 FFFFFFEE A   U    1350 1352
 CVPPDBQH      4 0000009C FFFFFFEE     A    1308 1309
 CVPSFNO       1 000003E9 FFFFFFEE A   N    1472 1474
 CVPSLNO       1 000007CF FFFFFFEE A   N    1473 1474
 CVPXSZ        1 00000008 FFFFFFEE A   U    1351 1352
 CVR          12 0000000C 00000001 A   #    1091 1170U
 CVRKEY        1 00000008 FFFFFFEE A   U    2045 2046
 CVSEGRTN      4 00000880 FFFFFFEE     V    2173 2137
 CVSTACK#      1 00000080 FFFFFFEE A   U    1511 1512
 CVSTART       4 00000000 FFFFFFEE     C    1184 2355
 CVTRC         4 00000768 FFFFFFEE     I    2112 2098B
 CVTRCRTN      4 00000778 FFFFFFEE     V    2119 2113
 CVUSFNO       1 00000001 FFFFFFEE A   N    1479 1481
 CVUSLNO       1 000003E7 FFFFFFEE A   N    1480 1481
 CVVOL#        1 00000005 FFFFFFEE A   U    2330 2331
 CVWTOFLG      1 000004CB FFFFFFEE     R    1916 1920  1925  1930  1935  1940
 DEBUGSG       1 00000000 00000000 A   T    2073 2073
 DESABORT      1 00000004 FFFFFFEC A   U    6169 9436  9439  9440
 DESRTRN       1 00000080 FFFFFFEC A   U    6162 9436  9439  9440
 DEV          12 00000000 FFFFFFEB     J    4711 4719
 DEVMAX#       1 00000002 FFFFFFEC A   U    4662 4719
 DEVTYPE       1 00000001 FFFFFFEB     R    4679 4688  4698
 DOTTBL        1 00000000 00000000 A   T    2189 2189
1MICRO    (MICR2025) (12:48) (15MAR04) Ordinary Symbol and Literal Cross Reference                                          Page   23
 DOWNFLG       1 00000000 FFFFFFE6     R    8372 8376  8381
 DOWNFST     128 00000000 FFFFFFE6         8376 9004  9054M
 DOWNFTXT     64 00000000 FFFFFFE6         8381 9085  9277M 9307  9374M
 DOWNLOAD      2 000007DA 00000001     H    8399 8395
 DOWNPRT       4 000009E4 00000001     F    8900 9433
 DOWNPRTX      4 00000994 00000001     F    8869 9430
 DOWNRTN       2 00000A34 00000001     H    8942 9437
 DOWNWA        1 00000000 FFFFFFE6     J    8390 8412  8441U 8451M 8452  8859  8861  8862  8987U
 DRENCFLG      1 00000F9F FFFFFFEC     R    6117 6121  6126  6131  6136  6141
 DRENPROT      1 00000F9E FFFFFFEC     R    6104 6112
 DSNON        40 00000E90 FFFFFFEC     C    5837 5838
 DSNWADSN     44 00000E5C FFFFFFEC     C    5824 5825  5826  5827  5836  5844  6075  6081  6083  6089  6092  6094  6097
                                                 6146
 DSNWAF4       1 00000F37 FFFFFFEC     R    5892 5896  5901  5906  5911  5916  5921  5926  5931
 DSNWAF5       1 00000F38 FFFFFFEC     R    5937 5941  5946  5951  5956  5961  5966  5971  5976
 DSNWAF6       1 00000F39 FFFFFFEC     R    5982 5986  5991  5996  6001  6006  6011  6016  6021
 DSNWAF7       1 00000F3A FFFFFFEC     R    6027 6031  6036  6041  6046
 DSNXG         1 00000004 FFFFFFEC A   U    5829 5831
 DSNXGL        1 00000003 FFFFFFEC A   U    5830 5831
 DSNXU         1 00000007 FFFFFFEC A   U    5831 5833
 DSNXUL        1 00000004 FFFFFFEC A   U    5832 5833
 DSSIZ         1 00000108 FFFFFFEC A   U    6075 6083  6092  6097
 EBCTBL        1 00000000 00000000 A   T    2185 2185
 EBCTBL7       1 00000000 00000000 A   T    2188 2188
 ECBLIST       1 00000000 00000000 A   T    2048 2048
 ENDLNO        1 00000000 00000008     T    8324 8324
 EPARTBL       1 00000000 00000000 A   T    2180 2180
 EXTOPEN       1 00000000 00000019     T    9435 9435
 FNAMEFIN      1 00000000 00000018     T    9434 9434
 FNAMESCN      1 00000000 00000011     T    8881 8881
 FNAMPSHF      1 00000000 00000012     T    8896 8896
 FSR           0 00000000 00000001 A   #    1001 6427  6757M 7005  7046M 7066  7132M 7152  7224M 7244  7310M 7330  7390M
                                                 7410  7452M 7472  7518M 7538  7584M 7604  7650M 7670  7716M 7736  7783M
                                                 7803  7849M 7869  7915M 7935  7982M 8060  8308M 8409  8859M 8951  9413M
 HIBAL         1 00000000 FFFFFFFF     J     691  707   720   733   746   759   772   785   798   811   824   837   850
                                                  863   876   889   902
 INVALID       1 00000000 00000006     T    2175 2175  6990
 LEXATRTN      1 00000040 FFFFFFEC A   U    6164 9436
 LOCATRTN      1 00000000 FFFFFFEC A   U    6166 9440
 LOWTBL        1 00000000 00000000 A   T    2183 2183
 LPLPLP        2 000006F4 00000001     H    8241 8284B
 LSR           8 00000008 00000001 A   #    1039 6427  6757M 7005  7046M 7066  7132M 7152  7224M 7244  7310M 7330  7390M
                                                 7410  7452M 7472  7518M 7538  7584M 7604  7650M 7670  7716M 7736  7783M
                                                 7803  7849M 7869  7915M 7935  7982M 8060  8308M 8409  8859M 8951  9413M
 LTNPSH        1 00000000 00000013     T    8912 8912
 LXCATRTN      1 00000060 FFFFFFEC A   U    6165 9439
 MALL          1 00000000 00000005     T    6989 6989  8926
 MICR2025      1 00000000 00000001     R    1138 1136
 MILERR        1 00000000 00000000 A   T    2174 2174
 MKFFINFO      1 00000000 00000017     T    9429 9429
 MPARM         1 00000000 00000003     T    6794 6794  6809
 MPINT         1 00000000 00000002     T    6779 6779  6824  6839  6854
 MTOKEN        1 00000000 00000004     T    6869 6869  6884  6899  6914  6929  6944  6959  6974  8880
 NBLTBL        1 00000000 00000000 A   T    2187 2187
 NDETRNG       1 00000000 00000016     T    9428 9428
 NOACTION      1 00000000 00000000 A   T    2177 2177
 NOTVALID      1 00000000 00000014     T    8927 8927
 NPARTBL       1 00000000 00000000 A   T    2181 2181
 NSCAN         1 00000000 00000009     T    8326 8326  9431
1MICRO    (MICR2025) (12:48) (15MAR04) Ordinary Symbol and Literal Cross Reference                                          Page   24
 NSCNCB      176 00000000 FFFFFFED     J    2446 2572  6515  6516  6517  6520M 6521M 6523M 6533M 6534M 6535M 8500  8501
                                                 8502  8505M 8506M 8508M 8518M 8519M 8520M 8552  8553  8554  8557M 8558M
                                                 8560M 8570M 8571M 8572M
 NSCNFLGS      1 00000008 FFFFFFED     R    2383 2387  2392
 NSCNKWS       4 00000028 FFFFFFED     A    2432 6515  6523M 6533M 8500  8508M 8518M 8552  8560M 8570M
 NSCNSKIP      4 00000024 FFFFFFED     A    2431 6516  6520M 6534M 8501  8505M 8519M 8553  8557M 8571M
 NSCNSTOP      4 00000020 FFFFFFED     A    2430 6517  6521M 6535M 8502  8506M 8520M 8554  8558M 8572M
 NSCNTYPE      1 00000018 FFFFFFED     R    2401 2405  2410  2415  2420  2425
 PUTBYTES      1 00000000 0000000C     T    8331 8331
 RAR          14 0000000E 00000001 A   #    1117 2112  2113M 2114B 2116M 2117B 2137M 2138B 2142M 2143B 2145M 2146B 2148M
                                                 2149B 2151M 2152B 2154M 2155M 2155B 2161  6424  6494M 6495M 6495B 6499M
                                                 6500M 6500B 6526M 6527M 6527B 6540M 6541M 6541B 6642M 6643M 6643B 6705M
                                                 6706M 6706B 6734M 6735M 6735B 6759M 6762B 7002  7048M 7051B 7063  7111M
                                                 7112M 7112B 7134M 7137B 7149  7203M 7204M 7204B 7226M 7229B 7241  7312M
                                                 7315B 7327  7392M 7395B 7407  7454M 7457B 7469  7520M 7523B 7535  7586M
                                                 7589B 7601  7652M 7655B 7667  7718M 7721B 7733  7785M 7788B 7800  7851M
                                                 7854B 7866  7917M 7920B 7932  7984M 7987B 8057  8113M 8114M 8114B 8138M
                                                 8139M 8139B 8156M 8157M 8157B 8181M 8182M 8182B 8234M 8235M 8235B 8252M
                                                 8253M 8253B 8281M 8282M 8282B 8310M 8313B 8406  8457M 8458M 8458B 8468M
                                                 8469M 8469B 8488M 8489M 8489B 8511M 8512M 8512B 8525M 8526M 8526B 8563M
                                                 8564M 8564B 8577M 8578M 8578B 8601M 8602M 8602B 8605M 8606M 8606B 8650M
                                                 8651M 8651B 8685M 8686M 8686B 8707M 8708M 8708B 8736M 8737M 8737B 8789M
                                                 8790M 8790B 8814M 8815M 8815B 8832M 8833M 8833B 8861M 8864B 8948  9045M
                                                 9046M 9046B 9136M 9137M 9137B 9177M 9178M 9178B 9212M 9213M 9213B 9254M
                                                 9255M 9255B 9337M 9338M 9338B 9366M 9367M 9367B 9392M 9393M 9393B 9415M
                                                 9418B
 RDRNG         1 00000000 0000001A     T    9438 9438
 R0            0 00000000 FFFFFFFF A   #     699 2097  2166M 6488M 6488  6501  6511M 6511  6520  6521  6634M 6659M 6681M
                                                 6730M 7031  7108M 7113  7200M 7205  7278  7290M 7295  7358  7370M 7375
                                                 7436M 7437  8102M 8127M 8127  8145M 8170M 8170  8223M 8245M 8245  8270M
                                                 8496M 8496  8505  8506  8548M 8548  8557  8558  8646M 8681M 8703M 8725M
                                                 8725  8778M 8778  8803M 8803  8821M 8837M 8993  9038M 9125M 9166M 9166
                                                 9201M 9243M 9243  9326M 9326  9355M 9355
 R1            1 00000001 FFFFFFFF A   #     712 2160M 2161M 2167M 6490M 6490  6507M 6520  6521  6523  6630M 6658M 6680M
                                                 6729M 7103M 7195M 8101M 8144M 8218M 8265M 8492M 8505  8506  8508  8544M
                                                 8557  8558  8560  8647M 8682M 8704M 8820M 8836M 8992  9037M 9118M 9196M
 R12          12 0000000C FFFFFFFF A   #     855 2123
 R13          13 0000000D FFFFFFFF A   #     868 6515  6516  6517  6533  6534  6535  8500  8501  8502  8518  8519  8520
                                                 8552  8553  8554  8570  8571  8572
 R14          14 0000000E FFFFFFFF A   #     881 2098M 6514M 6515  6516  6517  6522M 6523  6530M 6533  6534  6535  8499M
                                                 8500  8501  8502  8507M 8508  8515M 8518  8519  8520  8551M 8552  8553
                                                 8554  8559M 8560  8567M 8570  8571  8572
 R15          15 0000000F FFFFFFFF A   #     894 2097  6536M 6536  6609M 6639M 6671  6702M 6761M 6761  7050M 7050  7094M
                                                 7117M 7117  7136M 7136  7186M 7209M 7209  7228M 7228  7314M 7314  7394M
                                                 7394  7456M 7456  7522M 7522  7588M 7588  7654M 7654  7720M 7720  7787M
                                                 7787  7853M 7853  7919M 7919  7986M 7986  8110M 8135M 8153M 8178M 8231M
                                                 8249M 8249  8278M 8312M 8312  8521M 8521  8573M 8573  8615M 8615  8733M
                                                 8786M 8811M 8829M 8863M 8863  9042M 9042  9133M 9174M 9209M 9251M 9334M
                                                 9363M 9389M 9417M 9417
 R2            2 00000002 FFFFFFFF A   #     725 6491M 6731M 8993M 9070M 9070  9201
 R3            3 00000003 FFFFFFFF A   #     738 8992M 9196
 R6            6 00000006 FFFFFFFF A   #     777 6463M 6471U 8452M 8453  8977M 8987U
 R7            7 00000007 FFFFFFFF A   #     790 2090M 2090  2091B 2103B
 R8            8 00000008 FFFFFFFF A   #     803 6459U 8092U 8441U
 SAVEDATA      1 00000000 00000007     T    8323 8323
 SCANCHK       1 00000000 0000000A     T    8327 8327  9432
 SCDQUOTE      1 00000000 0000000D     T    8332 8332
 SCNEXFR       1 00000000 00000015     T    9427 9427
 SDSNQSZ       1 0000002C FFFFFFEC A   U    6078 6079  6080
1MICRO    (MICR2025) (12:48) (15MAR04) Ordinary Symbol and Literal Cross Reference                                          Page   25
 SEG           1 00000000 00000010     T    8336 8336  9443
 SEGCR         1 00000000 0000000E     T    8334 8334  9442
 SEGMARK       1 00000000 0000001B     T    9445 9445
 SEGWR         1 00000000 0000000F     T    8335 8335  9441
 SPR          13 0000000D 00000001 A   #    1104 6424  6427  6429  6430M 6430  6753M 6757  6759  7002  7005  7006  7007M
                                                 7007  7042M 7046  7048  7063  7066  7067  7068M 7068  7128M 7132  7134
                                                 7149  7152  7153  7154M 7154  7220M 7224  7226  7241  7244  7245  7246M
                                                 7246  7306M 7310  7312  7327  7330  7331  7332M 7332  7386M 7390  7392
                                                 7407  7410  7411  7412M 7412  7448M 7452  7454  7469  7472  7473  7474M
                                                 7474  7514M 7518  7520  7535  7538  7539  7540M 7540  7580M 7584  7586
                                                 7601  7604  7605  7606M 7606  7646M 7650  7652  7667  7670  7671  7672M
                                                 7672  7712M 7716  7718  7733  7736  7737  7738M 7738  7779M 7783  7785
                                                 7800  7803  7804  7805M 7805  7845M 7849  7851  7866  7869  7870  7871M
                                                 7871  7911M 7915  7917  7932  7935  7936  7937M 7937  7978M 7982  7984
                                                 8057  8060  8062  8063M 8063  8304M 8308  8310  8406  8409  8411  8412M
                                                 8412  8855M 8859  8861  8948  8951  8952  8953M 8953  9409M 9413  9415
 TRC           1 00000000 00000000 A   T    2119 2119
 TREAD         1 00000000 0000000B     T    8328 8328  9444
 TTYFLAG       1 00000004 FFFFFFEA     R    6207 6211
 TTYMAX#       1 00000006 FFFFFFEA A   U    6263 6264
 TTYTFLAG      1 00000005 FFFFFFEA     R    6217 6221  6226  6231  6236  6241  6246  6251
 UNPRST        1 00000001 FFFFFFEC A   U    6167 9436  9439  9440
 UPBUFSZ#      1 00000800 FFFFFFE9 A   N    6401 8339
 UPCOUNT       4 000000F8 FFFFFFE9     F    6385 7031M
 UPFDATTN    128 00000000 FFFFFFE9         6324 6590  7900M 7967M
 UPFL          1 000000F4 FFFFFFE9     R    6340 6344  6349  6354  6359  6364
 UPFLAG        1 00000000 FFFFFFE9     R    6320 6324
 UPFL2         1 000000F5 FFFFFFE9     R    6370 6374  6379
 UPFNECHO     32 000000F4 FFFFFFE9         6354 6564  7768M 7834M
 UPFSTOP       8 000000F4 FFFFFFE9         6364 7183M
 UPFTABS      16 000000F4 FFFFFFE9         6359 7503M
 UPFTRAN     128 000000F4 FFFFFFE9         6344 7569M
 UPFWRAP      64 000000F4 FFFFFFE9         6349 7275M
 UPLNO         4 000000FC FFFFFFE9     F    6386 6501M
 UPLOAD        2 00000018 00000001     H    6417 6413
 UPLPRT        4 00000164 00000001     F    6768 8325
 UPLRSET       4 00000148 00000001     I    6731 6686B
 UPMAXLN       2 000000F6 FFFFFFE9     H    6383 6503M 7295M 7375M
 UPPRLEN       2 00000002 FFFFFFE9     H    6328 6634  7113M
 UPPROMPT    235 00000004 FFFFFFE9     C    6329 6610M 6630  7103  7108
 UPPTBL        1 00000000 00000000 A   T    2182 2182
 UPPUTCB     764 000000F4 FFFFFFE9     X    6394 6702
 UPSTART       4 000000F4 FFFFFFE9     F    6337 6394  6394
 UPSTLEN       2 00000100 FFFFFFE9     H    6388 7205M
 UPSTOP      235 00000102 FFFFFFE9     C    6389 7195  7200
 UPTMOUT       4 000000F0 FFFFFFE9     F    6331 6639  7437M
 UPWA       1008 00000000 FFFFFFE9     J    6408 6430  6459U 6463  6471U 6479M 6479  6480M 6480  6481M 6481  6482M 6482
                                                 6757  6759  6760
 UPXBUF        2 00000594 00000001     H    7661 6915
 UPXCOUNT      2 000003BC 00000001     H    6996 6780
 UPXDATN       2 00000618 00000001     H    7860 6930
 UPXECHO       2 000005C0 00000001     H    7727 6960
 UPXFORCE      2 00000568 00000001     H    7595 6900
 UPXNDATN      2 00000644 00000001     H    7926 6945
 UPXNECHO      2 000005EC 00000001     H    7794 6975
 UPXPRMT       2 000003E8 00000001     H    7057 6795
 UPXSPLIT      2 000004A8 00000001     H    7321 6840
 UPXSTOP       2 00000428 00000001     H    7143 6810
 UPXTABS       2 00000510 00000001     H    7463 6870
1MICRO    (MICR2025) (12:48) (15MAR04) Ordinary Symbol and Literal Cross Reference                                          Page   26
 UPXTMOUT      2 000004E0 00000001     H    7401 6855
 UPXTRAN       2 0000053C 00000001     H    7529 6885
 UPXWRAP       2 0000046C 00000001     H    7235 6825
 WAR           8 00000008 00000001 A   #    1027 6429M 6483  6753  7006M 7042  7067M 7128  7153M 7220  7245M 7306  7331M
                                                 7386  7411M 7448  7473M 7514  7539M 7580  7605M 7646  7671M 7712  7737M
                                                 7779  7804M 7845  7870M 7911  7936M 7978  8062M 8304  8411M 8855  8952M
                                                 9409
 WTOSG         1 00000000 00000000 A   T    2079 2079
 WYLMICRO      1 00000000 00000001     J     990  992  1009  1022  1035  1047  1060  1073  1086  1099  1112  1125  2363
                                                 2447  6187  6299  6303  6409  8020  8043
 XACK          1 000007D6 00000001     X    8354 8265  8270
 XMODPACK    131 00000000 FFFFFFE8     J    8019 8343
 XMODTRM      14 00000000 FFFFFFE7     X    8035 8187M 8288
 XMODWA       14 00000000 FFFFFFE7     J    8042 8063  8092U 8308  8310  8311
 XNAK          1 000007D7 00000001     X    8355 8218  8223
 =A((DESRTRN+LEXATRTN+UNPRST+DESABORT))
               4 00000B54 00000001     A    9436 8646
 =A((DESRTRN+LOCATRTN+UNPRST+DESABORT))
               4 00000B64 00000001     A    9440 8703
 =A((DESRTRN+LXCATRTN+UNPRST+DESABORT))
               4 00000B60 00000001     A    9439 8681
 =A(DOWNPRT)
               4 00000B48 00000001     A    9433 8559
 =A(DOWNPRTX)
               4 00000B3C 00000001     A    9430 8507
 =A(DOWNRTN)
               4 00000B58 00000001     A    9437 8647  8682  8704
 =A(UPLPRT)
               4 00000748 00000001     A    8325 6522
 =A(101)       4 0000075C 00000001     A    8330 6671
 =A(235)       4 00000768 00000001     A    8333 7278  7290  7358  7370
 =AL2(L'XMODPACK)
               2 000007B0 00000001     R    8343 8206
 =AL2(UPBUFSZ#)
               2 0000077C 00000001     R    8339 6607
 =C'(The XModem UPLOAD command isn''t working yet!)'
              46 00000782 00000001     C    8342 8101
 =C'ATTN'      4 00000758 00000001     C    8329 6658
 =C'DOWNLOAD completed.'
              19 00000BA1 00000001     C    9449 8836
 =C'OK'        2 0000077E 00000001     C    8340 6729
 =C'Press RETURN to begin download... '
              34 00000B7E 00000001     C    9447 9037
 =C'This is a test of UPLOAD...'
              27 000007B9 00000001     C    8345 8144
 =C'TIMEOUT'
               7 000007B2 00000001     C    8344 6680
 =CL16'SYS.RC_UPLOAD'
              16 00000730 00000001     C    8322 6491  6731
 =H'100'       2 00000780 00000001     H    8341 7436
 =H'230'       2 00000778 00000001     H    8337 6503
 =V(ENDLNO)
               4 00000744 00000001     V    8324 6499
 =V(EXTOPEN)
               4 00000B50 00000001     V    9435 8605
 =V(FNAMEFIN)
               4 00000B4C 00000001     V    9434 8601
 =V(MKFFINFO)
               4 00000B38 00000001     V    9429 8488
1MICRO    (MICR2025) (12:48) (15MAR04) Ordinary Symbol and Literal Cross Reference                                          Page   27
 =V(NDETRNG)
               4 00000B34 00000001     V    9428 8468
 =V(NSCAN)
               4 0000074C 00000001     V    8326 6526
 =V(NSCAN)
               4 00000B40 00000001     V    9431 8511  8563
 =V(PUTBYTES)
               4 00000760 00000001     V    8331 6705
 =V(RDRNG)
               4 00000B5C 00000001     V    9438 8650  8685  8707
 =V(SAVEDATA)
               4 00000740 00000001     V    8323 6494  6734
 =V(SCANCHK)
               4 00000750 00000001     V    8327 6540
 =V(SCANCHK)
               4 00000B44 00000001     V    9432 8525  8577
 =V(SCDQUOTE)
               4 00000764 00000001     V    8332 7111  7203
 =V(SCNEXFR)
               4 00000B30 00000001     V    9427 8457
 =V(SEG)       4 00000774 00000001     V    8336 8234  8281
 =V(SEG)       4 00000B70 00000001     V    9443 8832  9136  9212
 =V(SEGCR)
               4 0000076C 00000001     V    8334 8113  8138  8156
 =V(SEGCR)
               4 00000B6C 00000001     V    9442 8789  8814  9177  9254  9337  9366
 =V(SEGMARK)
               4 00000B78 00000001     V    9445 9392
 =V(SEGWR)
               4 00000770 00000001     V    8335 8181
 =V(SEGWR)
               4 00000B68 00000001     V    9441 8736
 =V(TREAD)
               4 00000754 00000001     V    8328 6642  8252
 =V(TREAD)
               4 00000B74 00000001     V    9444 9045
 =X'2F'        1 00000BA0 00000001     X    9448 8820
 =Y((12+3)/4*4)
               2 0000077A 00000001     Y    8338 6532
 =Y((12+3)/4*4)
               2 00000B7C 00000001     Y    9446 8517  8569

1MICRO    (MICR2025) (12:48) (15MAR04) Macro and Copy Code Source Summary                                                   Page   28
- Con Source                                        Volume    Members                        HLASM R4.0  2004/03/15 12.48
0     PRIMARY INPUT                                           CSECT    DROP     END      EX       LTORG    POP
                                                              PRINT    PUSH     START    USING
   L1 WYL.GS.WYL.WYLBUR.MACLIB                      SYSB05    AINFO    BASE     COLINFO  COMMENT  CONTROL  CP
                                                              CPLOCAL  CV       CVLOCAL  PUTCB    RDRNG    RG       SCAN
                                                              SCANCB   SCANCHK  SCCBADR  SCDQUOTE SCKW     SCPOP
                                                              SCPUSH   TCR      TMARK    TREAD    TSEG     TTYPE
                                                              TWRITE   VLTORG   XTRACE
   L2 WYL.GG.SYS.MACLIB                             SYSB05    $BC      $BFLKUP  $BV      $CCLKUP  $CRS     $CSS     $L
                                                              $LA      $LBLAD   $LEXP    $LOR     $REL     $RGLKUP
                                                              $USLKUP  BEGIN    CEIL     CLEAR    COMPROC  CSECT
                                                              DEFCC    DROP     ELSE     ELSEIF   END      EX       FLAG
                                                              GEN      HIBAL    IDENT    IF       LABEL    LC       LOOP
                                                              LS       LTORG    PEND     POP      PRINT    PROC     PUSH
                                                              QLTORG   RECORD   REG      REGS     SET      SETMSG
                                                              START    USING    VCALL    WITH     XPROC
   L3 SYS3.IS.MACLIB                                SYSB05    SEG      SEGCB    SEGCR    SEGLD    SEGMARK  SEGWR    SIB
                                                              SYSDEFN  XPOP     XPUSH

1MICRO    (MICR2025) (12:48) (15MAR04) Dsect Cross Reference                                                                Page   29
-Dsect     Length      Id       Defn                                                         HLASM R4.0  2004/03/15 12.48
0$$$@R0   00000000  FFFFFFFE     705
 $$$@R1   00000000  FFFFFFFD     718
 $$$@R10  00000000  FFFFFFF4     835
 $$$@R11  00000000  FFFFFFF3     848
 $$$@R12  00000000  FFFFFFF2     861
 $$$@R13  00000000  FFFFFFF1     874
 $$$@R14  00000000  FFFFFFF0     887
 $$$@R15  00000000  FFFFFFEF     900
 $$$@R2   00000000  FFFFFFFC     731
 $$$@R3   00000000  FFFFFFFB     744
 $$$@R4   00000000  FFFFFFFA     757
 $$$@R5   00000000  FFFFFFF9     770
 $$$@R6   00000000  FFFFFFF8     783
 $$$@R7   00000000  FFFFFFF7     796
 $$$@R8   00000000  FFFFFFF6     809
 $$$@R9   00000000  FFFFFFF5     822
 $$$RCP   00001000  FFFFFFEC    2452
 $$$RCV   00000FB0  FFFFFFEE    1177
 $$$RDEV  0000000C  FFFFFFEB    4666
 $$$RDOWNWA
          00000001  FFFFFFE6    8364
 $$$RNSCNCB
          000000B0  FFFFFFED    2373
 $$$RTTYPE
          0000010C  FFFFFFEA    6197
 $$$RUPWA 000003F0  FFFFFFE9    6312
 $$$RXMODPACK
          00000083  FFFFFFE8    8003
 $$$RXMODWA
          0000000E  FFFFFFE7    8029
 HIBAL    00000000  FFFFFFFF     691

1MICRO    (MICR2025) (12:48) (15MAR04) Using Map                                                                            Page   30
-                                                                                            HLASM R4.0  2004/03/15 12.48
   Stmt  -----Location----- Action ----------------Using----------------- Reg Max    Last  Label and Using Text
           Count      Id           Type          Value    Range     Id        Disp   Stmt
0   922  00000000  FFFFFFFF USING  ORDINARY    00000000 00001000 FFFFFFEF  15 000    6610  @R15,15
    926  00000000  FFFFFFFF USING  ORDINARY    00000000 00001000 FFFFFFF0  14 002    2168  @R14,14
    930  00000000  FFFFFFFF USING  ORDINARY    00000000 00001000 FFFFFFF1  13 000          @R13,13
    934  00000000  FFFFFFFF USING  ORDINARY    00000000 00001000 FFFFFFF2  12 000          @R12,12
    938  00000000  FFFFFFFF USING  ORDINARY    00000000 00001000 FFFFFFF3  11 000          @R11,11
    942  00000000  FFFFFFFF USING  ORDINARY    00000000 00001000 FFFFFFF4  10 000          @R10,10
    946  00000000  FFFFFFFF USING  ORDINARY    00000000 00001000 FFFFFFF5   9 000          @R9,9
    950  00000000  FFFFFFFF USING  ORDINARY    00000000 00001000 FFFFFFF6   8 000          @R8,8
    954  00000000  FFFFFFFF USING  ORDINARY    00000000 00001000 FFFFFFF7   7 000          @R7,7
    958  00000000  FFFFFFFF USING  ORDINARY    00000000 00001000 FFFFFFF8   6 000          @R6,6
    962  00000000  FFFFFFFF USING  ORDINARY    00000000 00001000 FFFFFFF9   5 000          @R5,5
    966  00000000  FFFFFFFF USING  ORDINARY    00000000 00001000 FFFFFFFA   4 000          @R4,4
    970  00000000  FFFFFFFF USING  ORDINARY    00000000 00001000 FFFFFFFB   3 000    9224  @R3,3
    974  00000000  FFFFFFFF USING  ORDINARY    00000000 00001000 FFFFFFFC   2 000          @R2,2
    978  00000000  FFFFFFFF USING  ORDINARY    00000000 00001000 FFFFFFFD   1 001    2167  @R1,1
    982  00000000  FFFFFFFF USING  ORDINARY    00000000 00001000 FFFFFFFE   0 000          @R0,0
    983  00000000  FFFFFFFF DROP                                            0              0
   1161  00000017  00000001 USING  ORDINARY    00000000 00001000 FFFFFFEC  11 D89    9389  CP,CPR
   1170  00000017  00000001 USING  ORDINARY    00000000 00001000 FFFFFFEE  12 8B0    9118  CV,CVR
   6445  00000032  00000001 USING  ORDINARY    00000032 00001000 00000001   7 780    6734  $$$43B,7
   6459  00000032  00000001 USING  ORDINARY    FFFFFFD8 00001000 FFFFFFE9   8 028    6463  UPWA-(4+36),R8
   6471  00000036  00000001 USING  ORDINARY    00000000 00001000 FFFFFFE9   6 300    7967  UPWA,R6
   6744  00000156  00000001 USING  ORDINARY    00000000 00001000 FFFFFFF6   8 000          @R8,8
   6749  00000156  00000001 USING  ORDINARY    00000000 00001000 FFFFFFF7   7 000          @R7,7
   7022  000003D6  00000001 USING  ORDINARY    000003D6 00001000 00000001   7 000          $$$52B,7
   7038  000003DA  00000001 USING  ORDINARY    00000000 00001000 FFFFFFF7   7 000          @R7,7
   7083  00000402  00000001 USING  ORDINARY    00000402 00001000 00000001   7 362    7111  $$$55B,7
   7124  0000041A  00000001 USING  ORDINARY    00000000 00001000 FFFFFFF7   7 000          @R7,7
   7169  00000442  00000001 USING  ORDINARY    00000442 00001000 00000001   7 322    7203  $$$58B,7
   7216  0000045E  00000001 USING  ORDINARY    00000000 00001000 FFFFFFF7   7 000          @R7,7
   7261  00000486  00000001 USING  ORDINARY    00000486 00001000 00000001   7 2E2    7290  $$$61B,7
   7302  0000049A  00000001 USING  ORDINARY    00000000 00001000 FFFFFFF7   7 000          @R7,7
   7347  000004C2  00000001 USING  ORDINARY    000004C2 00001000 00000001   7 2A6    7370  $$$65B,7
   7382  000004D2  00000001 USING  ORDINARY    00000000 00001000 FFFFFFF7   7 000          @R7,7
   7427  000004FA  00000001 USING  ORDINARY    000004FA 00001000 00000001   7 286    7436  $$$69B,7
   7444  00000502  00000001 USING  ORDINARY    00000000 00001000 FFFFFFF7   7 000          @R7,7
   7489  0000052A  00000001 USING  ORDINARY    0000052A 00001000 00000001   7 000          $$$72B,7
   7510  0000052E  00000001 USING  ORDINARY    00000000 00001000 FFFFFFF7   7 000          @R7,7
   7555  00000556  00000001 USING  ORDINARY    00000556 00001000 00000001   7 000          $$$75B,7
   7576  0000055A  00000001 USING  ORDINARY    00000000 00001000 FFFFFFF7   7 000          @R7,7
   7621  00000582  00000001 USING  ORDINARY    00000582 00001000 00000001   7 000          $$$78B,7
   7642  00000586  00000001 USING  ORDINARY    00000000 00001000 FFFFFFF7   7 000          @R7,7
   7687  000005AE  00000001 USING  ORDINARY    000005AE 00001000 00000001   7 000          $$$81B,7
   7708  000005B2  00000001 USING  ORDINARY    00000000 00001000 FFFFFFF7   7 000          @R7,7
   7753  000005DA  00000001 USING  ORDINARY    000005DA 00001000 00000001   7 000          $$$84B,7
   7775  000005DE  00000001 USING  ORDINARY    00000000 00001000 FFFFFFF7   7 000          @R7,7
   7820  00000606  00000001 USING  ORDINARY    00000606 00001000 00000001   7 000          $$$87B,7
   7841  0000060A  00000001 USING  ORDINARY    00000000 00001000 FFFFFFF7   7 000          @R7,7
   7886  00000632  00000001 USING  ORDINARY    00000632 00001000 00000001   7 000          $$$90B,7
   7907  00000636  00000001 USING  ORDINARY    00000000 00001000 FFFFFFF7   7 000          @R7,7
   7952  0000065E  00000001 USING  ORDINARY    0000065E 00001000 00000001   7 000          $$$93B,7
   7974  00000662  00000001 USING  ORDINARY    00000000 00001000 FFFFFFF7   7 000          @R7,7
   7994  00000670  00000001 USING  ORDINARY    00000000 00001000 FFFFFFF8   6 000          @R6,6
1MICRO    (MICR2025) (12:48) (15MAR04) Using Map                                                                            Page   31
   8078  0000068A  00000001 USING  ORDINARY    0000068A 00001000 00000001   7 14D    8284  $$$96B,7
   8092  0000068A  00000001 USING  ORDINARY    FFFFFFD8 00001000 FFFFFFE7   8 028    8288  XMODWA-(4+36),R8
   8295  0000071E  00000001 USING  ORDINARY    00000000 00001000 FFFFFFF6   8 000          @R8,8
   8300  0000071E  00000001 USING  ORDINARY    00000000 00001000 FFFFFFF7   7 000          @R7,7
   8427  000007F4  00000001 USING  ORDINARY    000007F4 00001000 00000001   7 3AD    8836  $$$99B,7
   8441  000007F4  00000001 USING  ORDINARY    FFFFFFD8 00001000 FFFFFFE6   8 028    8452  DOWNWA-(4+36),R8
   8846  00000984  00000001 USING  ORDINARY    00000000 00001000 FFFFFFF6   8 000          @R8,8
   8851  00000984  00000001 USING  ORDINARY    00000000 00001000 FFFFFFF7   7 000          @R7,7
   8968  00000A4E  00000001 USING  ORDINARY    00000A4E 00001000 00000001   7 130    9392  $$$111B,7
   8987  00000A52  00000001 USING  ORDINARY    00000000 00001000 FFFFFFE6   6 000    9374  DOWNWA,R6
   9400  00000B1E  00000001 USING  ORDINARY    00000000 00001000 FFFFFFF8   6 000          @R6,6
   9405  00000B1E  00000001 USING  ORDINARY    00000000 00001000 FFFFFFF7   7 000          @R7,7

1         (MICR2025) (12:48) (15MAR04) General Purpose Register Cross Reference                                             Page   32
- Register  References (M=modified, B=branch, U=USING, D=DROP, N=index)                      HLASM R4.0  2004/03/15 12.48
0    0(0)     982U  983D 2097  2165M 2165  2166M 6427  6488M 6488  6501  6511M 6511  6520  6521  6634M 6659M 6681M 6730M
             6757M 7005  7031  7046M 7066  7108M 7113  7132M 7152  7200M 7205  7224M 7244  7278  7290M 7295  7310M 7330
             7358  7370M 7375  7390M 7410  7436M 7437  7452M 7472  7518M 7538  7584M 7604  7650M 7670  7716M 7736  7783M
             7803  7849M 7869  7915M 7935  7982M 8060  8102M 8127M 8127  8145M 8170M 8170  8223M 8245M 8245  8270M 8308M
             8409  8496M 8496  8505  8506  8548M 8548  8557  8558  8646M 8681M 8703M 8725M 8725  8778M 8778  8803M 8803
             8821M 8837M 8859M 8951  8993  9038M 9125M 9166M 9166  9201M 9243M 9243  9326M 9326  9355M 9355  9413M
     1(1)     978U 2097  2160M 2161M 2167M 6427  6490M 6490  6507M 6520N 6521N 6523N 6630M 6658M 6680M 6729M 6757M 7005
             7046M 7066  7103M 7132M 7152  7195M 7224M 7244  7310M 7330  7390M 7410  7452M 7472  7518M 7538  7584M 7604
             7650M 7670  7716M 7736  7783M 7803  7849M 7869  7915M 7935  7982M 8060  8101M 8144M 8218M 8265M 8308M 8409
             8492M 8505N 8506N 8508N 8544M 8557N 8558N 8560N 8647M 8682M 8704M 8820M 8836M 8859M 8951  8992  9037M 9118M
             9196M 9413M
     2(2)     974U 2097  6427  6491M 6731M 6757M 7005  7046M 7066  7132M 7152  7224M 7244  7310M 7330  7390M 7410  7452M
             7472  7518M 7538  7584M 7604  7650M 7670  7716M 7736  7783M 7803  7849M 7869  7915M 7935  7982M 8060  8308M
             8409  8859M 8951  8993M 9070M 9070  9201  9413M
     3(3)     970U 2097  6427  6757M 7005  7046M 7066  7132M 7152  7224M 7244  7310M 7330  7390M 7410  7452M 7472  7518M
             7538  7584M 7604  7650M 7670  7716M 7736  7783M 7803  7849M 7869  7915M 7935  7982M 8060  8308M 8409  8859M
             8951  8992M 9196  9413M
     4(4)     966U 2097  6427  6757M 7005  7046M 7066  7132M 7152  7224M 7244  7310M 7330  7390M 7410  7452M 7472  7518M
             7538  7584M 7604  7650M 7670  7716M 7736  7783M 7803  7849M 7869  7915M 7935  7982M 8060  8308M 8409  8859M
             8951  9413M
     5(5)     962U 2097  6427  6757M 7005  7046M 7066  7132M 7152  7224M 7244  7310M 7330  7390M 7410  7452M 7472  7518M
             7538  7584M 7604  7650M 7670  7716M 7736  7783M 7803  7849M 7869  7915M 7935  7982M 8060  8308M 8409  8859M
             8951  9413M
     6(6)     958U 2097  6427  6463M 6471U 6757M 7005  7046M 7066  7132M 7152  7224M 7244  7310M 7330  7390M 7410  7452M
             7472  7518M 7538  7584M 7604  7650M 7670  7716M 7736  7783M 7803  7849M 7869  7915M 7935  7982M 7994U 8060
             8308M 8409  8452M 8453  8859M 8951  8977M 8987U 9400U 9413M
     7(7)     954U 2090M 2090  2091B 2097  2103B 6427  6433M 6445U 6749U 6757M 7005  7010M 7022U 7038U 7046M 7066  7071M
             7083U 7124U 7132M 7152  7157M 7169U 7216U 7224M 7244  7249M 7261U 7302U 7310M 7330  7335M 7347U 7382U 7390M
             7410  7415M 7427U 7444U 7452M 7472  7477M 7489U 7510U 7518M 7538  7543M 7555U 7576U 7584M 7604  7609M 7621U
             7642U 7650M 7670  7675M 7687U 7708U 7716M 7736  7741M 7753U 7775U 7783M 7803  7808M 7820U 7841U 7849M 7869
             7874M 7886U 7907U 7915M 7935  7940M 7952U 7974U 7982M 8060  8066M 8078U 8300U 8308M 8409  8415M 8427U 8851U
             8859M 8951  8956M 8968U 9405U 9413M
     8(8)     950U 2097  6427  6429M 6459U 6483  6744U 6753  6757M 7005  7006M 7042  7046M 7066  7067M 7128  7132M 7152
             7153M 7220  7224M 7244  7245M 7306  7310M 7330  7331M 7386  7390M 7410  7411M 7448  7452M 7472  7473M 7514
             7518M 7538  7539M 7580  7584M 7604  7605M 7646  7650M 7670  7671M 7712  7716M 7736  7737M 7779  7783M 7803
             7804M 7845  7849M 7869  7870M 7911  7915M 7935  7936M 7978  7982M 8060  8062M 8092U 8295U 8304  8308M 8409
             8411M 8441U 8846U 8855  8859M 8951  8952M 9409  9413M
     9(9)     946U 2097
    10(A)     942U 2097
    11(B)     938U 1161U 2097
    12(C)     934U 1170U 2097
    13(D)     930U 2097  6424  6427  6429  6430M 6430  6515  6516  6517  6519M 6519  6532M 6533  6534  6535  6753M 6757
             6759  7002  7005  7006  7007M 7007  7042M 7046  7048  7063  7066  7067  7068M 7068  7128M 7132  7134  7149
             7152  7153  7154M 7154  7220M 7224  7226  7241  7244  7245  7246M 7246  7306M 7310  7312  7327  7330  7331
             7332M 7332  7386M 7390  7392  7407  7410  7411  7412M 7412  7448M 7452  7454  7469  7472  7473  7474M 7474
             7514M 7518  7520  7535  7538  7539  7540M 7540  7580M 7584  7586  7601  7604  7605  7606M 7606  7646M 7650
             7652  7667  7670  7671  7672M 7672  7712M 7716  7718  7733  7736  7737  7738M 7738  7779M 7783  7785  7800
             7803  7804  7805M 7805  7845M 7849  7851  7866  7869  7870  7871M 7871  7911M 7915  7917  7932  7935  7936
             7937M 7937  7978M 7982  7984  8057  8060  8062  8063M 8063  8304M 8308  8310  8406  8409  8411  8412M 8412
             8500  8501  8502  8504M 8504  8517M 8518  8519  8520  8552  8553  8554  8556M 8556  8569M 8570  8571  8572
             8855M 8859  8861  8948  8951  8952  8953M 8953  9409M 9413  9415
    14(E)     926U 2097  2098M 2112  2113M 2114B 2116M 2117B 2137M 2138B 2142M 2143B 2145M 2146B 2148M 2149B 2151M 2152B
             2154M 2155M 2155B 2161  6424  6494M 6495M 6495B 6499M 6500M 6500B 6514M 6515  6516  6517  6522M 6523  6526M
             6527M 6527B 6530M 6533  6534  6535  6540M 6541M 6541B 6642M 6643M 6643B 6705M 6706M 6706B 6734M 6735M 6735B
             6759M 6762B 7002  7048M 7051B 7063  7111M 7112M 7112B 7134M 7137B 7149  7203M 7204M 7204B 7226M 7229B 7241
1         (MICR2025) (12:48) (15MAR04) General Purpose Register Cross Reference                                             Page   33
             7312M 7315B 7327  7392M 7395B 7407  7454M 7457B 7469  7520M 7523B 7535  7586M 7589B 7601  7652M 7655B 7667
             7718M 7721B 7733  7785M 7788B 7800  7851M 7854B 7866  7917M 7920B 7932  7984M 7987B 8057  8113M 8114M 8114B
             8138M 8139M 8139B 8156M 8157M 8157B 8181M 8182M 8182B 8234M 8235M 8235B 8252M 8253M 8253B 8281M 8282M 8282B
             8310M 8313B 8406  8457M 8458M 8458B 8468M 8469M 8469B 8488M 8489M 8489B 8499M 8500  8501  8502  8507M 8508
             8511M 8512M 8512B 8515M 8518  8519  8520  8525M 8526M 8526B 8551M 8552  8553  8554  8559M 8560  8563M 8564M
             8564B 8567M 8570  8571  8572  8577M 8578M 8578B 8601M 8602M 8602B 8605M 8606M 8606B 8650M 8651M 8651B 8685M
             8686M 8686B 8707M 8708M 8708B 8736M 8737M 8737B 8789M 8790M 8790B 8814M 8815M 8815B 8832M 8833M 8833B 8861M
             8864B 8948  9045M 9046M 9046B 9136M 9137M 9137B 9177M 9178M 9178B 9212M 9213M 9213B 9254M 9255M 9255B 9337M
             9338M 9338B 9366M 9367M 9367B 9392M 9393M 9393B 9415M 9418B
    15(F)     922U 2097  6536M 6536  6609M 6639M 6671  6702M 6761M 6761  7050M 7050  7094M 7117M 7117  7136M 7136  7186M
             7209M 7209  7228M 7228  7314M 7314  7394M 7394  7456M 7456  7522M 7522  7588M 7588  7654M 7654  7720M 7720
             7787M 7787  7853M 7853  7919M 7919  7986M 7986  8110M 8135M 8153M 8178M 8231M 8249M 8249  8278M 8312M 8312
             8521M 8521  8573M 8573  8615M 8615  8733M 8786M 8811M 8829M 8863M 8863  9042M 9042  9133M 9174M 9209M 9251M
             9334M 9363M 9389M 9417M 9417

1MICRO    (MICR2025) (12:48) (15MAR04) Diagnostic Cross Reference and Assembler Summary                                     Page   34
-                                                                                            HLASM R4.0  2004/03/15 12.48
0     No Statements Flagged in this Assembly
 HIGH LEVEL ASSEMBLER, 5696-234, RELEASE 4.0, PTF P72483
0SYSTEM: OS/390 02.10.00            JOBNAME: WYL#MICR    STEPNAME: ASM        PROCSTEP: (NOPROC)
0Datasets Allocated for this Assembly
  Con DDname   Dataset Name                                 Volume  Member
   P1 SYSIN    WYL.GS.WYL.WYLBUR.SOURCE                     SYSB05  MICRO
   L1 SYSLIB   WYL.GS.WYL.WYLBUR.MACLIB                     SYSB05
   L2          WYL.GG.SYS.MACLIB                            SYSB05
   L3          SYS3.IS.MACLIB                               SYSB05
   L4          SYS3.MACLIB                                  SYSB02
   L5          SYS1.MACLIB                                  MVSBR9
   L6          SYS1.MODGEN                                  MVSBR9
      SYSPRINT SYS04075.T124851.RA000.WYL#MICR.PRINT.H01    SCR101
      SYSTERM  GG$SLP.WYL#MICR.JOB03541.D0000101.?

    3668K allocated to Buffer Pool,         1377K would be required for this to be an In-Storage Assembly
     350 Primary Input Records Read         6595 Library Records Read                  0 Work File Reads
       0 ASMAOPT Records Read               2658 Primary Print Records Written         0 Work File Writes
       0 Punch Records Written                 0 ADATA Records Written
0Assembly Start Time: 12.48.52 Stop Time: 12.48.56 Processor Time: 00.00.01.4937
 Return Code 000
