1                        J E S 2  J O B  L O G  --  S Y S T E M  S Y S B  --  N O D E  R L G
0
 12.47.42 JOB03538 ---- MONDAY,    15 MAR 2004 ----
 12.47.42 JOB03538  ICH70001I GG$SLP   LAST ACCESS AT 12:47:32 ON MONDAY, MARCH 15, 2004
 12.47.42 JOB03538  $HASP373 WYL#LINE STARTED - INIT 9    - CLASS B - SYS SYSB
 12.47.42 JOB03538  ***  HCMD      STEP $$QUIET
 12.47.42 JOB03538  PUR * Q OUT MUL
 12.47.42 JOB03538  JOB 5401 WYL#LINE WILL BE PURGED
 12.47.44 JOB03538  WYL#LINE.$$QUIET .         RC=Zero TapeIO=0000 DiskIO=0000 CPU=  .01s Elapsed=62.98s
 12.48.08 JOB03538  WYL#LINE.ASM     .         RC=Zero TapeIO=0000 DiskIO=1041 CPU=10.64s Elapsed=64.07s
 12.48.13 JOB03538  WYL#LINE.EDIT    .         RC=Zero TapeIO=0000 DiskIO=0608 CPU= 1.77s Elapsed=88.40s
 12.48.13 JOB03538  WYL#LINE Ended.  Name=Assemble LINE                  Total CPU=12.42s Elapsed=62.98s
 12.48.13 JOB03538
 12.48.13 JOB03538  Execution charges   Priority=Standard   Block=Day
 12.48.13 JOB03538
 12.48.13 JOB03538  CPU Usage         230.81         $143.10   Standard Processing Unit Equivalent
 12.48.13 JOB03538                                   =======
 12.48.13 JOB03538                                   $143.10   Total Job execution charge
 12.48.13 JOB03538
 12.48.13 JOB03538  See back separator page for print charges
 12.48.13 JOB03538
 12.48.13 JOB03538  $HASP395 WYL#LINE ENDED  ASM=0, EDIT=0
1        1 //WYL#LINE JOB SLP$GG,'Assemble LINE',TIME=4,REGION=4M                  JOB03538
           //*
           /*JOBPARM LINES=99,COPIES=1
           /*JOBPARM FORMS=3HOL,PFORMAT=LAND,CHARS=BD13,DUPLEX=YES,FLASH=BAR4
           //*
           /*JOBPARM NOTIFY=GG.SLP,HOLD=OUTPUT                                     WYLGEN
         2 //$$QUIET EXEC PGM=HCMDX,PARM='PUR * Q OUT MUL'
           //*
         3 //ASM    EXEC PGM=ASMA90,REGION=8M,
           //            PARM=('NORENT,TERM,FLAG(NOCONT),US(MAP,WARN(10)),NODECK',
           //            'LC(32767),XREF(SHORT),ESD,DXREF,NOOBJECT')
         4 //STEPLIB DD DSN=SYS3.IS.TESTASM,DISP=SHR
         5 //SYSLIB   DD  DSN=WYL.GS.WYL.WYLBUR.MACLIB,DISP=SHR
         6 //         DD  DSN=WYL.GG.SYS.MACLIB,DISP=SHR
         7 //         DD  DSN=SYS3.IS.MACLIB,DISP=SHR
         8 //         DD  DSN=SYS3.MACLIB,DISP=SHR
         9 //         DD  DSN=SYS1.MACLIB,DISP=SHR
        10 //         DD  DSN=SYS1.MODGEN,DISP=SHR
        11 //SYSUT1   DD DSN=&&SYSUT1,UNIT=VIO,DISP=(,DELETE),
           //            SPACE=(4088,(500,250),,CONTIG,ROUND)
        12 //SYSTERM  DD SYSOUT=T
        13 //SYSPRINT DD DSN=&&PRINT,UNIT=SYSDA,DISP=(,PASS),
           //            SPACE=(6650,(250,250),RLSE),
           //            DCB=(BLKSIZE=6650,LRECL=133,RECFM=FB)
        14 //SYSUDUMP DD SYSOUT=A
        15 //SYSIN    DD  DSN=WYL.GS.WYL.WYLBUR.SOURCE(LINE),DISP=SHR
           //*
        16 //EDIT    EXEC PGM=ASMEDIT,TIME=2,REGION=4000K,
           //             PARM='STMT'
        17 //STEPLIB  DD  DSN=WYL.GG.SYS.LINKLIB,DISP=SHR
        18 //ASMOUT   DD  DSN=&PRINT,DISP=(OLD,DELETE)
        19 //SYSPRINT DD  SYSOUT=A
1 STMT NO. MESSAGE
 -
        11 IGD01010I STORCLAS= TEMP STORGROUP =
        11 IGD01010I STORGRP=VIO ASSIGNED.
        13 IGD01010I STORCLAS= TEMP STORGROUP =
        13 IGD01010I STORGRP=VIO ASSIGNED.
 ICH70001I GG$SLP   LAST ACCESS AT 12:47:32 ON MONDAY, MARCH 15, 2004
 IEF142I WYL#LINE $$QUIET - STEP WAS EXECUTED - COND CODE 0000
 *********************************************************************************
 *   WYL#LINE/$$QUIET /                    Return Code      Zero                 *
 *   Region used      260K (16K user + 244K system)                              *
 *   Extended region  9464K (4K user + 9460K system)                             *
 *                                                                               *
 *   Paging              In      Out                                             *
 *   Private <-> Aux      0        0       CPU time (TCB)   00:00:00.01          *
 *   Private <-> Exp      0        0       CPU time (SRB)   00:00:00.00          *
 *   VIO                  0        0       Elapsed time    917:40:09.98          *
 *   Common               0      ---                                             *
 *                                                                               *
 *                                                                               *
 *   CPU Usage          0.18         $0.11  Standard Processing Unit Equivalent  *
 *                                   $0.11  Total Step execution charge          *
 *                                                                               *
 *    I/O count  DDname   Type Addr           I/O count  DDname   Type Addr      *
 *                         *** No I/O for this step ***                          *
 *********************************************************************************
 IEF373I STEP/$$QUIET /START 2004075.1247
 IEF374I STEP/$$QUIET /STOP  2004075.1247 CPU    0MIN 00.01SEC SRB    0MIN 00.00SEC VIRT    16K SYS   244K EXT       4K SYS    9460K
 IEF236I ALLOC. FOR WYL#LINE ASM
 IEF237I 04DC ALLOCATED TO STEPLIB
 IEF237I 04DC ALLOCATED TO SYSLIB
 IEF237I 04DC ALLOCATED TO
 IEF237I 04DC ALLOCATED TO
 IEF237I 0402 ALLOCATED TO
 IEF237I 04A0 ALLOCATED TO
 IEF237I 04A0 ALLOCATED TO
 IGD101I SMS ALLOCATED TO DDNAME (SYSUT1  )
         DSN (SYS04075.T124742.RA000.WYL#LINE.SYSUT1.H01  )
         STORCLAS (TEMP) MGMTCLAS (        ) DATACLAS (        )
         VOL SER NOS= VIO
 IEF237I JES2 ALLOCATED TO SYSTERM
 IGD101I SMS ALLOCATED TO DDNAME (SYSPRINT)
         DSN (SYS04075.T124742.RA000.WYL#LINE.PRINT.H01   )
         STORCLAS (TEMP) MGMTCLAS (        ) DATACLAS (        )
         VOL SER NOS= SCR101
 IEF237I JES2 ALLOCATED TO SYSUDUMP
 IEF237I 04DC ALLOCATED TO SYSIN
 IEF142I WYL#LINE ASM - STEP WAS EXECUTED - COND CODE 0000
 IEF285I   SYS3.IS.TESTASM                              KEPT
 IEF285I   VOL SER NOS= SYSB05.
 IEF285I   WYL.GS.WYL.WYLBUR.MACLIB                     KEPT
 IEF285I   VOL SER NOS= SYSB05.
 IEF285I   WYL.GG.SYS.MACLIB                            KEPT
 IEF285I   VOL SER NOS= SYSB05.
 IEF285I   SYS3.IS.MACLIB                               KEPT
 IEF285I   VOL SER NOS= SYSB05.
 IEF285I   SYS3.MACLIB                                  KEPT
 IEF285I   VOL SER NOS= SYSB02.
 IEF285I   SYS1.MACLIB                                  KEPT
 IEF285I   VOL SER NOS= MVSBR9.
 IEF285I   SYS1.MODGEN                                  KEPT
 IEF285I   VOL SER NOS= MVSBR9.
 IGD105I SYS04075.T124742.RA000.WYL#LINE.SYSUT1.H01   DELETED,   DDNAME=SYSUT1
 IEF285I   GG$SLP.WYL#LINE.JOB03538.D0000101.?          SYSOUT
 IGD106I SYS04075.T124742.RA000.WYL#LINE.PRINT.H01    PASSED,    DDNAME=SYSPRINT
 IEF285I   GG$SLP.WYL#LINE.JOB03538.D0000102.?          SYSOUT
 IEF285I   WYL.GS.WYL.WYLBUR.SOURCE                     KEPT
 IEF285I   VOL SER NOS= SYSB05.
 *********************************************************************************
 *   WYL#LINE/ASM     /                    Return Code      Zero                 *
 *   Region used      4376K (4096K user + 280K system)                           *
 *   Extended region  10084K (412K user + 9672K system)                          *
 *                                                                               *
 *   Paging              In      Out                                             *
 *   Private <-> Aux      0        0       CPU time (TCB)   00:00:10.58          *
 *   Private <-> Exp      0        0       CPU time (SRB)   00:00:00.06          *
 *   VIO                  0        0       Elapsed time    917:40:08.89          *
 *   Common               0      ---                                             *
 *                                                                               *
 *                                                                               *
 *   CPU Usage        198.37       $122.98  Standard Processing Unit Equivalent  *
 *                                 $122.98  Total Step execution charge          *
 *                                                                               *
 *    I/O count  DDname   Type Addr           I/O count  DDname   Type Addr      *
 *           83  STEPLIB  Disk 04DC                 333  SYSLIB   Disk 04DC      *
 *            0  SYSLIB   Disk 04DC                   0  SYSLIB   Disk 04DC      *
 *            0  SYSLIB   Disk 0402                   0  SYSLIB   Disk 04A0      *
 *            0  SYSLIB   Disk 04A0               1,137  SYSUT1   VIO  ----      *
 *            0  SYSTERM       ----                 605  SYSPRINT Disk 04E3      *
 *            0  SYSUDUMP      ----                  20  SYSIN    Disk 04DC      *
 *********************************************************************************
 IEF373I STEP/ASM     /START 2004075.1247
 IEF374I STEP/ASM     /STOP  2004075.1248 CPU    0MIN 10.58SEC SRB    0MIN 00.06SEC VIRT  4096K SYS   280K EXT     412K SYS    9672K
 IEF236I ALLOC. FOR WYL#LINE EDIT
 IEF237I 0402 ALLOCATED TO STEPLIB
 IGD103I SMS ALLOCATED TO DDNAME ASMOUT
 IEF237I JES2 ALLOCATED TO SYSPRINT
 IEF142I WYL#LINE EDIT - STEP WAS EXECUTED - COND CODE 0000
 IEF285I   WYL.GG.SYS.LINKLIB                           KEPT
 IEF285I   VOL SER NOS= SYSB02.
 IGD105I SYS04075.T124742.RA000.WYL#LINE.PRINT.H01    DELETED,   DDNAME=ASMOUT
 IEF285I   GG$SLP.WYL#LINE.JOB03538.D0000103.?          SYSOUT
 *********************************************************************************
 *   WYL#LINE/EDIT    /                    Return Code      Zero                 *
 *   Region used      380K (116K user + 264K system)                             *
 *   Extended region  9584K (4K user + 9580K system)                             *
 *                                                                               *
 *   Paging              In      Out                                             *
 *   Private <-> Aux      0        0       CPU time (TCB)   00:00:01.72          *
 *   Private <-> Exp      0        0       CPU time (SRB)   00:00:00.05          *
 *   VIO                  0        0       Elapsed time    917:39:44.56          *
 *   Common               0      ---                                             *
 *                                                                               *
 *                                                                               *
 *   CPU Usage         32.25        $19.99  Standard Processing Unit Equivalent  *
 *                                  $19.99  Total Step execution charge          *
 *                                                                               *
 *    I/O count  DDname   Type Addr           I/O count  DDname   Type Addr      *
 *            2  STEPLIB  Disk 0402                 606  ASMOUT   Disk 04E3      *
 *            0  SYSPRINT      ----                                              *
 *********************************************************************************
 IEF373I STEP/EDIT    /START 2004075.1248
 IEF374I STEP/EDIT    /STOP  2004075.1248 CPU    0MIN 01.72SEC SRB    0MIN 00.05SEC VIRT   116K SYS   264K EXT       4K SYS    9580K
 *********************************************************************************
 *                                                                               *
 *                      S t a n f o r d   U n i v e r s i t y                    *
 *                                                                               *
 *                              *** Job Summary ***                              *
 *                                                                               *
 *   System Id      SYSB                   Input time     12:39:21  Mar 15, 2004 *
 *                                                                               *
 *   System Release SP6.1.0                Start time     12:47:42  Mar 15, 2004 *
 *                                                                               *
 *   Job name       WYL#LINE               Stop  time     00:00:00  Mar 15, 2004 *
 *                                                                               *
 *   Account        SLP$GG                 Elapsed time  917:40:09.98            *
 *                                                                               *
 *   User Name      Assemble LINE          CPU time       00:00:12.31            *
 *                                                                               *
 *   Job class      B                      SRB Time       00:00:00.11            *
 *                                                                               *
 *********************************************************************************
 IEF375I  JOB/WYL#LINE/START 2004075.1247
 IEF376I  JOB/WYL#LINE/STOP  2004075.1248 CPU    0MIN 12.31SEC SRB    0MIN 00.11SEC
1Assembler Done LINE No Statements Flagged
1         High Level Assembler Option Summary                   (PTF P72483 )                                               Page    1
-                                                                                            HLASM R4.0  2004/03/15 12.47
0  No Overriding ASMAOPT Parameters
   Overriding Parameters-  NORENT,TERM,FLAG(NOCONT),US(MAP,WARN(10)),NODECK,LC(32767),XREF(SHORT),ESD,DXREF,NOOBJECT
   No Process Statements


   Options for this Assembly
0  NOADATA
     ALIGN
   NOASA
     BATCH
     CODEPAGE(047C)
   NOCOMPAT
   NODBCS
 3 NODECK
 3   DXREF
 3   ESD
   NOEXIT
 3   FLAG(0,ALIGN,NOCONT,NOIMPLEN,NOPAGE0,PUSH,RECORD,NOSUBSTR,USING0)
   NOFOLD
   NOGOFF
   NOINFO
     LANGUAGE(EN)
   NOLIBMAC
 3   LINECOUNT(32767)
     LIST(121)
     MXREF(SOURCE)
 3 NOOBJECT
     OPTABLE(UNI,NOLIST)
   NOPCONTROL
   NOPESTOP
   NOPROFILE
   NORA2
 3 NORENT
     RLD
     RXREF
     SIZE(MAX)
     SYSPARM()
 3   TERM(WIDE)
   NOTEST
     THREAD
   NOTRANSLATE
 3   USING(NOLIMIT,MAP,WARN(10))
 3   XREF(SHORT)

   No Overriding DD Names

1LINE     External Symbol Dictionary                                                                                        Page    2
-Symbol   Type   Id     Address  Length     LD ID  Flags Alias-of                            HLASM R4.0  2004/03/15 12.47
0WYLLINE   SD 00000001 00000000 0000B448             00
 LINE2193  LD          00000000           00000001
 MODIFY    LD          00000018           00000001
 EDIT      LD          0000004A           00000001
 LTNPSH    ER 00000002
 LENPSH    ER 00000003
 CASEPSH   ER 00000004
 COLSPSH   ER 00000005
 MTOKEN    ER 00000006
 MPINT     ER 00000007
 MALL      ER 00000008
 NOTVALID  ER 00000009
 PAGERES   ER 0000000A
 NDETRNG   ER 0000000B
 NSCAN     ER 0000000C
 SCANCHK   ER 0000000D
 SEG       ER 0000000E
 RDRNG     ER 0000000F
 SEGDC     ER 00000010
 SEGWR     ER 00000011
 LINEMOD   LD          0000058C           00000001
 BTD       ER 00000012
 SEGCR     ER 00000013
 LOCATE    ER 00000014
 SELDELTA  ER 00000015
 LENCHKM   ER 00000016
 LISTLINE  ER 00000017
 PRESS     ER 00000018
 STOW      ER 00000019
 UNPRESS   ER 0000001A
 CVEXNO    ER 0000001B
 NUMRANGE  ER 0000001C
 DELRANGE  ER 0000001D
 TREAD     ER 0000001E
 DTB       ER 0000001F
 HELP      ER 00000020
 MNULL     ER 00000021
 MSYMLN    ER 00000022
 SEGB      ER 00000023
 WBREAK    LD          00004338           00000001
 COLLECT   LD          00004378           00000001
 CLRPSH    ER 00000024
 SCNNOOP   ER 00000025
 MPLNO     ER 00000026
 NOOPTS    ER 00000027
 CLRTEXT   ER 00000028
 PAGETCHK  ER 00000029
 PAGECLR   ER 0000002A
 LOWMULT   ER 0000002B
 ADDER     ER 0000002C
 GETLNO    ER 0000002D
 PREVLNO   ER 0000002E
 GETLINE   ER 0000002F
 LOCLIST   ER 00000030
 PUTLINE   ER 00000031
1LINE     External Symbol Dictionary                                                                                        Page    3
 PAGELINE  ER 00000032
 CNTRANGE  ER 00000033
 IMPLYEND  LD          000051D4           00000001
 MIMPLIED  ER 00000034
 IMPLIED   LD          000052E0           00000001
 PUTLCMD   LD          00005520           00000001
 PUTEND    LD          00005706           00000001
 PUTLCMDT  LD          00005786           00000001
 INSERT    LD          00005A0A           00000001
 ACTCHK    ER 00000035
 YESREQ    ER 00000036
 EDTCOMNH  ER 00000037
 CMDFIN    ER 00000038
 LENCHK    ER 00000039
 ENDLNO    ER 0000003A
 PAGEMOD   ER 0000003B
 REPLACE   LD          00006280           00000001
 RNGABORT  ER 0000003C
 CHANGE    LD          00006636           00000001
 MPARM     ER 0000003D
 MINT      ER 0000003E
 VERPSH    ER 0000003F
 MPCOLS    ER 00000040
 CKQUOTES  ER 00000041
 HEXSTR    ER 00000042
 DEQSTR    ER 00000043
 SCDQUOTE  ER 00000044
 MPAREN    ER 00000045
 GTFRSTLN  ER 00000046
 GTFRST    ER 00000047
 YESRTN    ER 00000048
 RTRIM     ER 00000049
 LMSGCHK   ER 0000004A
 LINEMOD   ER 0000004B
 DELETE    LD          0000987C           00000001
 DELSUB    LD          000099C0           00000001
 SPLIT     LD          00009B88           00000001
 JOIN      LD          0000A15A           00000001
 SEGCLR    ER 0000004C
 LRTRIM    ER 0000004D
 EXCHANGE  LD          0000A852           00000001
 TREADQ    ER 0000004E

1LINE     WYLBUR's Line Oriented Editing Commands                                                                           Page    4
0Loc    Object Code    Addr1 Addr2  Stmt Lv Lineno    Source Statement                    (Asmedit 3.3)  HLASM R4.0  2004/03/15 12.47
+___    ______ ____    _____ _____  ____ __ ______    ______ _________
0                                      2              *******************************************************************
                                       3              *                                                                 *
                                       4              *     WYLBUR/370 - Release VI - Class I - Stanford Proprietary    *
                                       5              *                                                                 *
                                       6              *******************************************************************
                                       7                       HIBAL
                                     988
 000000                00000 0B448   989              WYLLINE  CSECT
                                     993              LINE     IDENT 2193                15:11:45 07/12/02  (SLP)
                                     996             +
                                     997    01-IDENT +         ENTRY LINE2193
                                     998             +
 000000 16D3C9D5C5F2F1F9             999    01-IDENT +LINE2193 DC    AL1(22),C'LINE2193,15MAR04,12:47'
                                    1000             +*
                                    1002              *
                                    1003                       REGS  FSR,,,,,,,BR,(WAR,LSR),PAR,PBR,CPR,CVR,SPR,RAR
                                    1139                       SYSDEFN ,                 Define installation params
                                    1140                       PUSH  DSECTS
 USING  CP,R11                      1184             =         USING (CP),(CV)
 USING  CV,R12
 000017                00000 0B448  1203             =         POP   PRINT
                                    6617
                                    6618                       QLTORG
1LINE     (LINE2193) (12:47) (15MAR04) MODIFY/EDIT Commands                                                                 Page    5
0Current Usings:  (CP,R11) (CV,R12)
0Loc    Object Code    Addr1 Addr2  Stmt Lv Lineno    Source Statement           (Hibal 5, Asmedit 3.3)  HLASM R4.0  2004/03/15 12.47
+___    ______ ____    _____ _____  ____ __ ______    ______ _________
0                                   6631              ¿þþþþþþþþþþþþþþþþþþþþþþþþþþþþþþþþþþþþþþþþþþþþþþþþþþþþþþþþþþþþþþþþþþþþþÜ
                                    6632              Ÿ                                                                     Ÿ
                                    6633              Ÿ  MODIFY -- MODIFY COMMAND.                                          Ÿ
                                    6634              Ÿ  EDIT   -- EDIT COMMAND.                                            Ÿ
                                    6635              Ÿ                                                                     Ÿ
                                    6636              Ÿ                                                                     Ÿ
                                                      ¾þþþþþþþþþþþþþþþþþþþþþþþþþþþþþþþþþþþþþþþþþþþþþþþþþþþþþþþþþþþþþþþþþþþþþ»
0000000                00000 00006  6637              MODWA    RECORD BEGIN              Line size work area
 000000 00                          6645  1           MODOPTS    FLAG  ,                   Flag definitions
 MODOPTS.MODFLFST  80 ONES          6649  1                      FLAG  MODFLFST            - At least 1 line size ok
 MODOPTS.MODFLEQ   40 ONES          6654  1                      FLAG  MODFLEQ             - Equal
 MODOPTS.MODFLOV   20 ONES          6659  1                      FLAG  MODFLOV             - Over
 MODOPTS.MODFLUN   10 ONES          6664  1                      FLAG  MODFLUN             - Under
 000001 00                          6669  1           MODTEMPF   FLAG  ,                   Work copy of flags
 000002                             6673  1           MODUN      DS    H                   Under length
 000004                             6674  1           MODOV      DS    H                   Over length
 000006                00006 00006  6675                       END
                                    6684              *
                                    6685              *
                                    6686              *
 000018 50E0 D000/9008_      00000  6687              MODIFY   XPROC ,                   Modify/Edit commands
 USING  *,R7
 000032 9610 BC78      00C78        6727                       SET   CPFMODCD            Set for modify
 000036 58E0 74D6/0DEE       00508  6733                       ACALL EDIT                modify and edit use same code
 00003C 18D8/9808 D004_             6737                       PEND  ,
 DROP   *,R7
                                    6757              *
                                    6758              *
                                    6759              *
 00004A 50E0 D000/9008_      00000  6760              EDIT     XPROC MODWA               Modify/Edit commands
 USING  *,R7
 USING  MODWA-(4+36),R8
 000064 4160 8028            00000  6811                       LA    R6,MODWA
 USING  MODWA,R6                    6812                       WITH  (MODWA,R6)
 000068 D705 6000 6000 00000 00000  6825                       CLEAR MODWA               Clear work area
 00006E 5060 BD6C            00D6C  6832                       ST    R6,CPWK4            Save MODWA ptr for subroutines
                                    6833
 000072 9668 BC78      00C78        6834                       SET   CPFMODXP+CPFNUMXP+CPFLISXP  MODIFY/EDIT is explicit
                                    6847
 000076 58E0 74A8/0DEE       0050C  6848                       VCALL PAGERES             Reset page mode
                                    6852
 00007C 9608 BC7C      00C7C        6853                       SET   CPFUFMT             List lines in unformatted mode
 000080 9610 BD50      00D50        6859                       SET   CPLFLG1.CPFALL      All is the default range
 000084 58E0 74AC/0DEE       00510  6866                       VCALL NDETRNG             Scan range
                                    6870                       ¿þþþþþþþþþþþþþþþþþþþþþþþþþþþþþÜ
                                    6871                       Ÿ  Scan Modify/Edit options.  Ÿ
                                    6872                       ¾þþþþþþþþþþþþþþþþþþþþþþþþþþþþþ»
 00008A 5810 B08C/1B00_      0008C  6873              MODSCAN  SCAN  MODPRT              Scan for command options
 0000DC 58E0 74B8/0DEE       0051C  6905                       SCANCHK
1LINE     (LINE2193) (12:47) (15MAR04) MODIFY/EDIT Commands                                                                 Page    6
0Current Usings:  (MODWA,R6) (*,R7) (MODWA-(4+36),R8) (CP,R11) (CV,R12)
0Loc    Object Code    Addr1 Addr2  Stmt Lv Lineno    Source Statement           (Hibal 5, Asmedit 3.3)  HLASM R4.0  2004/03/15 12.47
+___    ______ ____    _____ _____  ____ __ ______    ______ _________
0                                   6910                       ¿þþþþþþþþþþþþþþþþþþþþþþþþþþþþþþþþþþÜ
                                    6911                       Ÿ  Make sure options are correct.  Ÿ
                                    6912                       ¾þþþþþþþþþþþþþþþþþþþþþþþþþþþþþþþþþþ»
 0000E2 9130 6000/47E0_00000        6913                       IF    MODFLOV*MODFLUN,BEGIN  Over and under specified...
 0000EA 4820 6002            00002  6931  1                      LH    R2,MODUN            R2 = size under
 0000EE 0620                        6932  1                      DECR  R2                  Subtract 1
 0000F0 4920 6004/4730_      00004  6934  1                      IF    (R2,LE,MODOV),BEGIN Guy's all messed up ...
 0000F8 4110 74E4/4100_      00548  6951  2                        TSEG  'It is not possible to have lines '
 00010A 47F0 70DE            00142  6969  2                        B     MODSZMSG
 00010E                             6970  1                      END
 00010E                             6974                       END
                                    6978                       ¿þþþþþþþþþþþþþþþþþþÜ
                                    6979                       Ÿ  Process lines.  Ÿ
                                    6980                       ¾þþþþþþþþþþþþþþþþþþ»
 00010E 5800 74C0/5810_      00524  6981                       RDRNG MODRTN,(DESRTRN+LOCATRTN+UNPRST+DESABORT)
 00011C 4720 C7D6            007D6  6988                       BP    CVERROR             End if attention
                                    6989
 000120 9102 BD88/47E0_00D88        6990                       IF    ~CPFSOME,CVNEXT     No lines found
 000128 9180 6000/4710_00000        7008                       IF    MODFLFST,CVNEXT     Got at least one line
                                    7026
 000130 4110 7505/4100_      00569  7027                       TSEG  'No lines '         Start of null message
 000142 9130 6000/4780_00000        7045              MODSZMSG IF    MODFLOV+MODFLUN,BEGIN
 00014A 9120 6000/47E0_00000        7064  1                      IF    MODFLOV,BEGIN       No lines over
 000152 4110 750E/4100_      00572  7079  2                        TSEG  'over '
 000164 4810 6004/1B00_      00004  7097  2                        TNUM  LH:MODOV
 000174 9110 6000/47E0_00000        7118  2                        IF    MODFLUN,BEGIN       No lines over and under
 00017C 4110 7513/4100_      00577  7133  3                          TSEG  ' and under '
 00018E 4810 6002/1B00_      00002  7151  3                          TNUM  LH:MODUN
 00019E                             7172  2                        END
 00019E 713E/47F0 7160 0019E 00150  7176  1                      END   ELSE,BEGIN          No lines under
 0001A2 4110 74DE/4100_      00542  7191  2                        TSEG  'under '
 0001B4 4810 6002/1B00_      00002  7209  2                        TNUM  LH:MODUN
 0001C4                             7230  1                      END
 0001C4 7164/47F0 7186 001C4 00148  7234                       END   ELSE,BEGIN          No lines equal to
 0001C8 4110 751E/4100_      00582  7249  1                      TSEG  'equal to '
 0001DA 4810 6002/1B00_      00002  7267  1                      TNUM  LH:MODUN
 0001EA                             7288                       END
 0001EA 1B00/41F0 B050_             7292                       TWRITE ,                  Write out message
                                    7317
 0001F6 47F0 C7DE            007DE  7318                       B     CVNEXT
 0001FA 18D8/9808 D004_             7319                       PEND
 DROP   MODWA,R6
 DROP   MODWA-(4+36),R8
 DROP   *,R7
                                    7349                       ¿þþþþþþþþþþþþþþþþþþþþþþþþþþþþþþþþÜ
                                    7350                       Ÿ  Modify/Edit command options.  Ÿ
                                    7351                       ¾þþþþþþþþþþþþþþþþþþþþþþþþþþþþþþþþ»
 000208 4040404040404040_           7352              MODPRT   SCKW  ,V(LTNPSH),PUSH
 000230 4040404040404040_           7367                       SCKW  ,V(LENPSH),PUSH
 000258 4040404040404040_           7382                       SCKW  ,V(CASEPSH),PUSH
 000280 4040404040404040_           7397                       SCKW  ,V(COLSPSH),PUSH
 0002A8 E2C9D5C7D3C54040_           7412                       SCKW  SINGLE,MODSING,A
 0002D0 E240404040404040_           7427                       SCKW  S,MODSING
 0002F8 D6E5C5D940404040_           7442                       SCKW  OVER,MODOVER,(A,P,PI),&LINESZ
1LINE     (LINE2193) (12:47) (15MAR04) MODIFY/EDIT Commands                                                                 Page    7
0Current Usings:  (CP,R11) (CV,R12)
0Loc    Object Code    Addr1 Addr2  Stmt Lv Lineno    Source Statement           (Hibal 5, Asmedit 3.3)  HLASM R4.0  2004/03/15 12.47
+___    ______ ____    _____ _____  ____ __ ______    ______ _________
0000320 E4D5C4C5D9404040_           7457                       SCKW  UNDER,MODUNDER,(A,P,PI),&LINESZ
 000348 C5D8E4C1D3404040_           7472                       SCKW  EQUAL,MODEQUAL,(A,P,PI),&LINESZ
 000370 4040404040404040_           7487                       SCKW  ,V(NOTVALID)
                                    7502
 000398 50E0 D000/9008_      00000  7503              MODSING  PROC
 USING  *,R7
 0003B2 9601 BD54      00D54        7542                       SET   CPLFLG5.CPFSING     Set single
 0003B6 18D8/9808 D004_             7549                       PEND
 DROP   *,R7
                                    7569
 0003C4 50E0 D000/9008_      00000  7570              MODOVER  PROC
 USING  *,R7
 USING  MODWA,R6                    7609                       WITH  (MODWA,R6)
 0003DE 9160 6000/4780_00000        7622                       IF    MODFLOV+MODFLEQ,'VCALL NOTVALID'
 0003EC 9620 6000      00000        7649                       SET   MODFLOV             Set "OVER" flag
 0003F0 4000 6004            00004  7655                       STH   R0,MODOV            Save OVER length
 0003F4 18D8/9808 D004_             7656                       PEND
 DROP   MODWA,R6
 DROP   *,R7
                                    7681
 000402 50E0 D000/9008_      00000  7682              MODUNDER PROC
 USING  *,R7
 USING  MODWA,R6                    7721                       WITH  (MODWA,R6)
 00041C 9150 6000/4780_00000        7734                       IF    MODFLUN+MODFLEQ,'VCALL NOTVALID'
 00042A 9610 6000      00000        7761                       SET   MODFLUN             Set "UNDER" flag
 00042E 4000 6002            00002  7767                       STH   R0,MODUN            Save UNDER length
 000432 18D8/9808 D004_             7768                       PEND
 DROP   MODWA,R6
 DROP   *,R7
                                    7793
 000440 50E0 D000/9008_      00000  7794              MODEQUAL PROC
 USING  *,R7
 USING  MODWA,R6                    7833                       WITH  (MODWA,R6)
 00045A 9170 6000/4780_00000        7846                       IF    MODFLUN+MODFLOV+MODFLEQ,'VCALL NOTVALID'
 000468 9640 6000      00000        7877                       SET   MODFLEQ             Set "EQUAL" flag
 00046C 4000 6002            00002  7883                       STH   R0,MODUN            Save EQUAL length
 000470 18D8/9808 D004_             7884                       PEND
 DROP   MODWA,R6
 DROP   *,R7
1LINE     (LINE2193) (12:47) (15MAR04) MODIFY/EDIT Commands                                                                 Page    8
0Current Usings:  (CP,R11) (CV,R12)
0Loc    Object Code    Addr1 Addr2  Stmt Lv Lineno    Source Statement           (Hibal 5, Asmedit 3.3)  HLASM R4.0  2004/03/15 12.47
+___    ______ ____    _____ _____  ____ __ ______    ______ _________
0                                   7910              ¿þþþþþþþþþþþþþþþþþþþþþþþþþþþþþþþþþþþþþþþþþþþþþþþþþþþþþþþþþþþþþþþþþþþþþÜ
                                    7911              Ÿ                                                                     Ÿ
                                    7912              Ÿ  MODRTN -- Modify/Edit command range processing co-routine.         Ÿ
                                    7913              Ÿ                                                                     Ÿ
                                    7914              Ÿ    On entry:                                                        Ÿ
                                    7915              Ÿ      R1,R0 - line loc, len                                          Ÿ
                                    7916              Ÿ                                                                     Ÿ
                                                      ¾þþþþþþþþþþþþþþþþþþþþþþþþþþþþþþþþþþþþþþþþþþþþþþþþþþþþþþþþþþþþþþþþþþþþþ»
000047E 50E0 D000/9008_      00000  7917              MODRTN   PROC
 USING  *,R7
 000498 5860 BD6C            00D6C  7956                       L     R6,CPWK4            Load pointer to size work area
 USING  MODWA,R6                    7957                       WITH  (MODWA,R6)
                                    7970
 00049C 9170 6000/4780_00000        7971                       IF    (MODFLOV+MODFLUN+MODFLEQ,Z),NOSIZE
 0004A4 4900 6004/47D0_      00004  7998                       IF    (R0,GT,MODOV),'SET MODTEMPF.MODFLOV'
 0004B0 4900 6002/47B0_      00002  8026                       IF    (R0,LT,MODUN),'SET MODTEMPF.MODFLUN'
 0004BC 4900 6002/4770_      00002  8054                       IF    (R0,EQ,MODUN),'SET MODTEMPF.MODFLEQ'
 0004C8 D400 6001 6000 00001 00000  8082                       NC    MODTEMPF,MODOPTS    See if size conditions hold
 0004CE D700 6001 6000 00001 00000  8083                       XC    MODTEMPF,MODOPTS
 0004D4 9170 6001/4770_00001        8084                       IF    (MODTEMPF.MODFLOV+MODFLUN+MODFLEQ,NZ),SIZEBAD
 0004DC 9680 6000      00000        8111              NOSIZE   SET   MODFLFST            Had at least one line
 0004E0 58E0 70A4/0DEE       0053C  8118                       ACALL LINEMOD             Perform alterations
 0004E6 4720 C7D6            007D6  8122                       BP    CVERROR             ATTN means abort command
 0004EA 4740 C7DE            007DE  8123                       BM    CVNEXT              Stop request
 0004EE D203 BD8C B73C 00D8C 0073C  8124                       MVC   CPNWLN,CPLCNO       Kick past any splits
 0004F4 9200 6001      00001        8125              SIZEBAD  CLEAR MODTEMPF            Reset size flags
 0004F8 18D8/9808 D004_             8133                       PEND
 DROP   MODWA,R6
 DROP   *,R7
                                    8158
                                    8159                       QLTORG
1LINE     (LINE2193) (12:47) (15MAR04) MODIFY/EDIT line modification work area                                              Page    9
0Current Usings:  (CP,R11) (CV,R12)
0Loc    Object Code    Addr1 Addr2  Stmt Lv Lineno    Source Statement           (Hibal 5, Asmedit 3.3)  HLASM R4.0  2004/03/15 12.47
+___    ______ ____    _____ _____  ____ __ ______    ______ _________
0                                   8194                       ¿þþþþþþþþþþþþþþþþþþþþþþþþþþþþþþþþþþþþþþþþþþþþþþþþÜ
                                    8195                       Ÿ  Split info.    (this must come before METWA)  Ÿ
                                    8196                       ¾þþþþþþþþþþþþþþþþþþþþþþþþþþþþþþþþþþþþþþþþþþþþþþþþ»
 000000                00000 00004  8197              METSPLIT RECORD BEGIN
 000000                             8205  1           METSOFFS   DS    H                   Offset to split place
 000002                             8206  1                      DS    H                   Reserved
 000004                             8207  1           METSNEXT   DS    0F                  (Next starts here...)
 000004                00004 00004  8208                       END
                                    8217                       ¿þþþþþþþþþþþþþþþþþÜ
                                    8218                       Ÿ  Get/put info.  Ÿ
                                    8219                       ¾þþþþþþþþþþþþþþþþþ»
 000000                00000 00004  8220              METPDATA RECORD BEGIN              Put data
 000000                             8228  1           METPOFFS   DS    H                   Put offset
 000002                             8229  1           METPUTLN   DS    H                   Put length
 000004                             8230  1           METPNEXT   DS    0F                  (Next starts here...)
 000004                00004 00004  8231                       END
1LINE     (LINE2193) (12:47) (15MAR04) MODIFY/EDIT line modification work area                                              Page   10
0Current Usings:  (CP,R11) (CV,R12)
0Loc    Object Code    Addr1 Addr2  Stmt Lv Lineno    Source Statement           (Hibal 5, Asmedit 3.3)  HLASM R4.0  2004/03/15 12.47
+___    ______ ____    _____ _____  ____ __ ______    ______ _________
0                                   8241              ¿þþþþþþþþþþþþþþþþþþþþþþþþþþþþþþþþþþþþþþþþþþþþþþþþþþþþþþþþþþþþþþþþþþþþþÜ
                                    8242              Ÿ                                                                     Ÿ
                                    8243              Ÿ        Line modification work area.                                 Ÿ
                                    8244              Ÿ                                                                     Ÿ
                                                      ¾þþþþþþþþþþþþþþþþþþþþþþþþþþþþþþþþþþþþþþþþþþþþþþþþþþþþþþþþþþþþþþþþþþþþþ»
0000000                00000 00396  8245              METWA    RECORD BEGIN
 000000                             8253  1           METLINER   DS    F                   Current line no. (for range)
 000004                             8254  1           METOLPTR   DS    2A                  Original line len, addr
 00000C                             8255  1           METLINE#   DS    F                   Original line no.
 000010                             8256  1           METNLINE   DS    F                   Next line no. (used by join)
 000014                             8257  1           METFLINE   DS    F                   Future line to modify
 000018                             8258  1           METCDELT   DS    F                   Delta for collecting
 00001C                             8259  1           METCFLIN   DS    F                   Original lineno before collect
 000020                             8260  1           METCLLIN   DS    F                   Last possible lineno for collect
 000024                             8261  1           METCNUM    DS    H                   No. of lines collected
 000026                             8262  1           METPLEN    DS    H                   Previous line len
                                    8263  1           METPLINE   DS    XL(&LINESZ)         Previous line
 000028                                   1          +METPLINE   DS    XL(235)             Previous line
                                    8264  1                      DS    XL(&PRESSZ-&LINESZ) Needed when metpline is press bfr
 000113                                   1          +           DS    XL(256-235)         Needed when metpline is press bfr
                                    8265  1
 000128                             8266  1           METLEN     DS    H                   Line len
                                    8267  1           METLINE    DS    XL(&LINESZ*2)       Line
 00012A                                   1          +METLINE    DS    XL(235*2)           Line
                                    8268  1
 000300                             8269  1           METPUTL    DS    H                   PUT data length
 000304                             8270  1           METPUT     DS    10F                 PUT data
                                    8271  1           METPUTMX   EQU   *-METPUT
                                    8272  1
 00032C                             8273  1           METPRMPT   DS    A                   Starting addr of prompt
 000330                             8274  1           METFCOL    DS    H                   Starting column (-1)
 000332                             8275  1           METLCOL    DS    H                   Last column
 000334                             8276  1           METPTRS    DS    2A                  Mod char ptr (loc,len)
 00033C                             8277  1           METNUM     DS    H                   Digit value
                                    8278  1
 00033E 00                          8279  1           METFLAGS   FLAG
 METFLAGS.METFNEW  80 ONES          8283  1                      FLAG  METFNEW             - New line being modified
 METFLAGS.METFINS  40 ONES          8288  1                      FLAG  METFINS             - Insert (not collect)
 METFLAGS.METFMOD  20 ONES          8293  1                      FLAG  METFMOD             - Modify (off means edit)
 METFLAGS.METFSTOP 10 ONES          8298  1                      FLAG  METFSTOP            - End command ($attn)
 METFLAGS.METFATTN 08 ONES          8303  1                      FLAG  METFATTN            - Attn hit
 METFLAGS.METFREN  04 ONES          8308  1                      FLAG  METFREN             - Renumber pending
 METFLAGS.METFPFX  02 ONES          8313  1                      FLAG  METFPFX             - Numeric/word prefix
 METFLAGS.METFWORD 01 ONES          8318  1                      FLAG  METFWORD            - Word mode
 00033F 00                          8323  1           METFLG2    FLAG  ,
 METFLG2.METFNEXT  80 ONES          8327  1                      FLAG  METFNEXT            - .line next
                                    8332  1
 000340                             8333  1           METLF4     DS    X                   Saved copy of CPLFLG4
 000341                             8334  1           METLF5     DS    X                   ... and CPLFLG5
                                    8335  1
 000342                             8336  1           METNSPLT   DS    H                   No. of splits
 000344                             8337  1           METWSPLT   DS    H                   Working no. of splits
 000346                             8338  1           METSAREA   DS    20XL(L'METSPLIT)    Split work areas
1LINE     (LINE2193) (12:47) (15MAR04) MODIFY/EDIT line modification work area                                              Page   11
0Current Usings:  (CP,R11) (CV,R12)
0Loc    Object Code    Addr1 Addr2  Stmt Lv Lineno    Source Statement           (Hibal 5, Asmedit 3.3)  HLASM R4.0  2004/03/15 12.47
+___    ______ ____    _____ _____  ____ __ ______    ______ _________
0000396                00396 00396  8339                       END
                                    8348              *
                                    8349              *
                                    8350              *  routine returns for modify/function calls
                                    8351              *
                                    8352              *  these return codes are used to take the proper
                                    8353              *  branches after to routines that do the work for
                                    8354              *  modify and edit.  note there used to be direct
                                    8355              *  branching between routines, this needed to be
                                    8356              *  eliminated when we procedurized everything, but
                                    8357              *  the logic was not completely reworked, so these
                                    8358              *  ugly indirect branches remain.
                                    8359              *
                                    8360              *
                                    8361              RNORMAL  EQU   0                   NORMAL, OK
                                    8362              RNORMAL2 EQU   4                   NORMAL, OK (STOP SCAN)
                                    8363              RERROR   EQU   8                   ERROR, RESTORE LINE
                                    8364              RLINDONE EQU   12                  LINDONE LABEL
                                    8365              RLINRET  EQU   16                  LINRET LABEL
                                    8366              RLINRETD EQU   20                  LINRETDJ LABEL
1LINE     (LINE2193) (12:47) (15MAR04) MODIFY/EDIT line Modification Routine                                                Page   12
0Current Usings:  (CP,R11) (CV,R12)
0Loc    Object Code    Addr1 Addr2  Stmt Lv Lineno    Source Statement           (Hibal 5, Asmedit 3.3)  HLASM R4.0  2004/03/15 12.47
+___    ______ ____    _____ _____  ____ __ ______    ______ _________
0                                   8368              ¿þþþþþþþþþþþþþþþþþþþþþþþþþþþþþþþþþþþþþþþþþþþþþþþþþþþþþþþþþþþþþþþþþþþþþÜ
                                    8369              Ÿ                                                                     Ÿ
                                    8370              Ÿ  LINEMOD -- Routine to do modify/edit processing on a line.         Ÿ
                                    8371              Ÿ                                                                     Ÿ
                                    8372              Ÿ   On entry:                                                         Ÿ
                                    8373              Ÿ     CPLCNO - lineno of line to modify                               Ÿ
                                    8374              Ÿ     R1,R0 - line loc, len                                           Ÿ
                                    8375              Ÿ                                                                     Ÿ
                                    8376              Ÿ   On exit:                                                          Ÿ
                                    8377              Ÿ     CPLCNO - lineno (past splits, etc.)                             Ÿ
                                    8378              Ÿ     R1,R0 - modified line loc, len                                  Ÿ
                                    8379              Ÿ     R15 (and CC):                                                   Ÿ
                                    8380              Ÿ        0 - modificiation completed                                  Ÿ
                                    8381              Ÿ        4 - modification aborted (attn)                              Ÿ
                                    8382              Ÿ       -4 - terminate command ($attn)                                Ÿ
                                    8383              Ÿ                                                                     Ÿ
                                    8384              Ÿ   Notes:  CPMODNEX is set by the caller to tell LINEMOD the         Ÿ
                                    8385              Ÿ     lineno of the next line (although, it does not exist            Ÿ
                                    8386              Ÿ     when the routine is called).  Then if a split, collect, etc.    Ÿ
                                    8387              Ÿ     is done LINEMOD won't go past that lineno.  If "CPMODNEX"       Ÿ
                                    8388              Ÿ     is zero, LINEMOD will use the next existing lineno.             Ÿ
                                    8389              Ÿ                                                                     Ÿ
                                    8390              Ÿ     METLINER is the lineno of the original line being modified      Ÿ
                                    8391              Ÿ     or the last split/collect lineno.  It is not updated when       Ÿ
                                    8392              Ÿ     the user uses the ".line x" function to modify a different      Ÿ
                                    8393              Ÿ     line.  CPLCNO is set to METLINER just before exiting to         Ÿ
                                    8394              Ÿ     allow the caller to continue any range after that line.         Ÿ
                                    8395              Ÿ                                                                     Ÿ
                                                      ¾þþþþþþþþþþþþþþþþþþþþþþþþþþþþþþþþþþþþþþþþþþþþþþþþþþþþþþþþþþþþþþþþþþþþþ»
000058C 50E0 D000/9028_      00000  8396              LINEMOD  XPROC (R2,LSR),METWA
 USING  *,R7
 USING  METWA-(4+28),R8
 0005A6 4160 8020            00000  8446                       LA    R6,METWA
 USING  METWA,R6                    8447                       WITH  (METWA,R6)
                                    8460
 0005AA D203 6000 B73C 00000 0073C  8461                       MVC   METLINER,CPLCNO
 0005B0 9200 633E      0033E        8462                       CLEAR METFLAGS
                                    8469                       ¿þþþþþþþþþþþþþþþþþþþþþþþþþþþþþþþþþþþþþþþþÜ
                                    8470                       Ÿ  Initialize options in our work area.  Ÿ
                                    8471                       ¾þþþþþþþþþþþþþþþþþþþþþþþþþþþþþþþþþþþþþþþþ»
 0005B4 D701 6342 6342_00342 00342  8472              LINSTART CLEAR METNSPLT,METNLINE
 0005C0 D701 6300 6300 00300 00300  8485                       CLEAR METPUTL             Clear put values
 0005C6 D203 6014 7A42 00014 00FE8  8492                       MVC   METFLINE,=F'-1'
 0005CC D703 6018 6018 00018 00018  8493                       CLEAR METCDELT
 0005D2 18F1                        8500                       LR    R15,R1
 0005D4 1AF0                        8501                       AR    R15,R0
 0005D6 06F0                        8502                       DECR  R15
 0005D8 19F1/4750 7048_             8504                       WHILE ((R15,GE,R1),AND,(@R15,EQ,' ')),'DECR R15; DECR R0'
 0005EE 5900 7A46/47D0_      00FEC  8546                       IF    (R0,GT,&LINESZ),'LA R0,&LINESZ'
 0005FA 9001 6004            00004  8569                       STM   R0,R1,METOLPTR      Save original line ptr
 0005FE D203 600C B73C 0000C 0073C  8570                       MVC   METLINE#,CPLCNO     Save lineno
 000604 9180 BC78/4710_00C78        8571                       IF    ~CPFCMDMD,'MVC CPACLNO,CPLCNO'  Adjust cur line ptr
 000612 12F0/47D0 7078_             8592                       IF    ('LTR R15,R0',POS),'DEX R15,"MVC METLINE(0),@R1"'
1LINE     (LINE2193) (12:47) (15MAR04) MODIFY/EDIT line Modification Routine                                                Page   13
0Current Usings:  (METWA,R6) (*,R7) (METWA-(4+28),R8) (CP,R11) (CV,R12)
0Loc    Object Code    Addr1 Addr2  Stmt Lv Lineno    Source Statement           (Hibal 5, Asmedit 3.3)  HLASM R4.0  2004/03/15 12.47
+___    ______ ____    _____ _____  ____ __ ______    ______ _________
000061E D201 6340 BD53 00340 00D53  8629                       MVC   METLF4(2),CPLFLG4   Save number/stow options, etc.
 000624 9200 BD53      00D53        8630                       CLEAR CPLFLG4             Set good stow options
 000628 94DE BD54      00D54        8637                       CLEAR CPLFLG5.CPFNLST+CPFSING   Reset for first time
 00062C 9120 B476/4710_00476        8648                       IF    ~CPGFLG3.CPFCMDED,'SET METFMOD'  Defaults
 000638 9140 BC78/47E0_00C78        8675                       IF    CPFMODXP,BEGIN      Modify/edit was explicit...
 000640 94DF 633E      0033E        8690  1                      CLEAR METFMOD
 000644 9110 BC78/47E0_00C78        8697  1                      IF    CPFMODCD,'SET METFMOD'
 000650                             8723                       END
 000650 D203 6330 BC4E 00330 00C4E  8727                       MVC   METFCOL(4),CPFCOL   Set columns to modify
 000656 9120 BC78/4710_00C78        8728                       IF    ~CPFNUMXP,'CLEAR CPLFLG5'  Reset number options
 000662 91C0 BD54/4710_00D54        8755                       IF    (~CPLFLG5.CPFNONUM,AND,CPLFLG5.CPFUNUM),BEGIN
 000672 96C0 BD54      00D54        8786  1                      SET   CPLFLG5.CPFNONUM    Change unnumber to nonumber
 000676                             8793                       END
 000676 4900 6332/47D0_      00332  8797                       IF    (R0,GT,METLCOL),'LH R0,METLCOL'
 000682 47F0 765C            00C02  8820                       B     LINLOOPA            Join up
                                    8821                       ¿þþþþþþþþþþþþþþþþþþþþþþþþþþþþþþþþþþþþþþþþþþþÜ
                                    8822                       Ÿ  Undo current line modifications          Ÿ
                                    8823                       Ÿ    and then join main modification loop.  Ÿ
                                    8824                       ¾þþþþþþþþþþþþþþþþþþþþþþþþþþþþþþþþþþþþþþþþþþþ»
 000686                             8825              LINBACK  LABEL ,
 000686 1B00/41F0 B050_             8827                       TWRITE
 000692 D2EC 6128 6026 00128 00026  8852                       MVC   METLEN(2+&LINESZ),METPLEN  backup
 000698 D701 6342 6342 00342 00342  8853                       CLEAR METNSPLT            Reset any splits
 00069E D701 6300 6300 00300 00300  8860                       CLEAR METPUTL             Clear put values
 0006A4 D203 6014 7A42 00014 00FE8  8867                       MVC   METFLINE,=F'-1'
 0006AA D703 6018 6018 00018 00018  8868                       CLEAR METCDELT
 0006B0 94FE BD54/94EF_00D54        8875                       CLEAR CPLFLG5.CPFSING,METFSTOP
                                    8888                       ¿þþþþþþþþþþþþþþþþþþþþþþþþþþþþþþþþþþþþþþþþþþþÜ
                                    8889                       Ÿ  Finish pending modifications             Ÿ
                                    8890                       Ÿ    and then join main modification loop.  Ÿ
                                    8891                       ¾þþþþþþþþþþþþþþþþþþþþþþþþþþþþþþþþþþþþþþþþþþþ»
 0006B8 1B00/1B55                   8892              LINLOOP  CLEAR R0,R5               Zero work regs
 0006BC 4950 6300/47B0_      00300  8899                       WHILE ((R5,LT,METPUTL),AND,(CPGETLN,NZ)),BEGIN
 0006CE 4135 6304            00304  8933  1                      LA    R3,METPUT(R5)       Point to put table entry
 USING  METPDATA,R3                 8934  1                      WITH  (METPDATA,R3),BEGIN
 0006D2 4840 3000            00000  8948  2                        LH    R4,METPOFFS         Insertion point offset
 0006D6 1A40                        8949  2                        AR    R4,R0               Adjust for other puts
 0006D8 48F0 3002            00002  8950  2                        LH    R15,METPUTLN        Number of chars to put
 DROP   METPDATA,R3                 8951  1                      END
 0006DC 12FF/47B0 71EE              8959  1                      IF    (R15,NEG),BEGIN     Value is a word spec ...
 0006E2 13FF                        8973  2                        LCR   R15,R15             Get back a positive value
 0006E4 1BEE                        8974  2                        CLEAR R14                 Clear stack deletion count
 0006E6 5820 B864            00864  8978  2                        L     R2,CPGETSTK         Load pointer to GETSTACK
 0006EA 4830 B868            00868  8979  2                        LH    R3,CPGETLN          Chars left in get-stack
 0006EE 4133 2000            00000  8980  2                        LA    R3,0(R3,R2)         Point to end of get-stack
 0006F2 9540 2000/4770_00000        8981  2                        WHILE ((@R2,EQ,' '),AND,(R2,LT,R3)),'INCR R2; INCR R14'
 00070C 4810 B868            00868  9025  2                        LH    R1,CPGETLN          Load old get count
 000710 1B1E                        9026  2                        SR    R1,R14              Adjust for this skip
 000712 4010 B868            00868  9027  2                        STH   R1,CPGETLN          Update get count left
 000716 1923/4750 717C_             9028  2                        IF    (R2,GE,R3),'CLEAR R14; B PUTWSTOP'
 000722 5050 D000/41D0_      00000  9053  2                        XPUSH R5
 00072A 1851                        9056  2                        LR    R5,R1               Copy length to keep in GETSTACK
 00072C 5820 B864            00864  9057  2                        L     R2,CPGETSTK         Load pointer to GETSTACK
 000730 41EE 2000            00000  9058  2                        LA    R14,0(R14,R2)       Point to new start of GETSTACK
1LINE     (LINE2193) (12:47) (15MAR04) MODIFY/EDIT line Modification Routine                                                Page   14
0Current Usings:  (METWA,R6) (*,R7) (METWA-(4+28),R8) (CP,R11) (CV,R12)
0Loc    Object Code    Addr1 Addr2  Stmt Lv Lineno    Source Statement           (Hibal 5, Asmedit 3.3)  HLASM R4.0  2004/03/15 12.47
+___    ______ ____    _____ _____  ____ __ ______    ______ _________
0000734 1255/47D0 719A_             9059  2                        TDEX  R5,'MVC @R2(0),@R14'   Shift GETSTACK over
 000740 4BD0 7AB6/5850_      0105C  9097  2                        XPOP  R5
 000748 1BEE                        9100  2                        CLEAR R14                 Clear word character count
 00074A 9540 2000/4770_00000        9104  2           PUTWLOOP     WHILE ((@R2,EQ,' '),AND,(R2,LT,R3)),'INCR R2; INCR R14'
 000764 1923/47A0 71EC              9149  2                        IF    (R2,GE,R3),PUTWSTOP
 00076A 9540 2000/4780_00000        9167  2                        WHILE ((@R2,NE,' '),AND,(R2,LT,R3)),'INCR R2; INCR R14'
 000784 1923/47A0 71EC              9211  2                        IF    (R2,GE,R3),PUTWSTOP
 00078A 46F0 71A4            0074A  9229  2                        BCT   R15,PUTWLOOP
 00078E 5EE0 7A4E            00FF4  9230  2                        INCR  R14                 Take the blank after the last word
 000792 18FE                        9233  2           PUTWSTOP     LR    R15,R14             Load put character count
 000794                             9234  1                      END
 000794 49F0 B868/47D0_      00868  9238  1                      IF    (R15,GT,CPGETLN),'LH R15,CPGETLN' Only what we have
 0007A0 4830 6128            00128  9261  1                      LH    R3,METLEN           Load work line length
 0007A4 1934/47B0 7214              9262  1                      IF    (R3,LT,R4),BEGIN    Insert after line end...
 0007AA 1824                        9277  2                        LR    R2,R4               Copy put offset
 0007AC 1B23                        9278  2                        SR    R2,R3               Compute added length
 0007AE 4133 612A            0012A  9279  2                        LA    R3,METLINE(R3)      Point to end of work line
 0007B2 0620/4420 7B74_             9280  2                        DEX   R2,'MVC @R3(0),CVBLANKS'  Pad end with blanks
 0007B8 1834                        9299  2                        LR    R3,R4               Padded len is put offset
 0007BA                             9300  1                      END
 0007BA 1A3F                        9304  1                      AR    R3,R15              New line len after insertion
 0007BC 4820 6128            00128  9305  1                      LH    R2,METLEN           Load old line len
 0007C0 4030 6128            00128  9306  1                      STH   R3,METLEN           Save new line len
 0007C4 1B24                        9307  1                      SR    R2,R4               Len of text following insert
 0007C6 4144 612A            0012A  9308  1                      LA    R4,METLINE(R4)      Insertion addr
 0007CA 1232/47D0 7230_             9309  1                      IF    ('LTR R3,R2',POS),'DEX R3,"MVC @R13(0),@R4"' Save text
 0007D6 182F                        9346  1                      LR    R2,R15              Copy insert count
 0007D8 5810 B864            00864  9347  1                      L     R1,CPGETSTK         Load pointer to GETSTACK
 0007DC 0620/1222/4740_             9348  1                      DTEX  R2,'MVC @R4(0),@R1'    Insert get text
 0007E8 4144 2001            00001  9385  1                      LA    R4,@R2+1(R4)        Insert point for rest of line
 0007EC 1233/4740 7250_             9386  1                      TEX   R3,'MVC @R4(0),@R13'   Move in rest of line
                                    9421  1                      ¿þþþþþþþþþþþþþþþþþþþþþþþþþþþþþþþþþþþþþþþþþþþþþþþþþþþþþþÜ
                                    9422  1                      Ÿ  Go in and adjust the split offsets since we mucked  Ÿ
                                    9423  1                      Ÿ    with the line.                                    Ÿ
                                    9424  1                      ¾þþþþþþþþþþþþþþþþþþþþþþþþþþþþþþþþþþþþþþþþþþþþþþþþþþþþþþ»
 0007F6 4830 6342/1233_      00342  9425  1                      IF    ('LTH R3,METNSPLT',NZ),BEGIN
 000800 4125 6304            00304  9441  2                        LA    R2,METPUT(R5)       Point to insert offset
 USING  METPDATA,R2                 9442  2                        USING (METPDATA,R2)
 000804 4140 6346            00346  9452  2                        LA    R4,METSAREA         Point to start of splits
 USING  METSPLIT,R4                 9453  2                        USING (METSPLIT,R4)
 000808 D501 4000 2000_00000 00000  9463  2           SPLITFIX     IF    (METSOFFS,GE,METPOFFS),BEGIN  (Split is after insert)
 000812 4810 4000            00000  9482  3                          LH    R1,METSOFFS         Load old offset
 000816 1A1F                        9483  3                          AR    R1,R15              Adjust up by our insert length
 000818 4010 4000            00000  9484  3                          STH   R1,METSOFFS         Update split offset
 00081C                             9485  2                        END
 00081C 4140 4004            00004  9489  2                        LA    R4,METSNEXT         Skip to next split entry
 000820 4630 7262            00808  9490  2                        BCT   R3,SPLITFIX         Loop for all entries
 DROP   METSPLIT,R4                 9491  2                        DROP  R4,R2
 DROP   METPDATA,R2
 000824                             9504  1                      END
                                    9508  1
 000824 1A0F                        9509  1                      AR    R0,R15              Add this put into accumulation
 000826 4155 0004            00004  9510  1                      LA    R5,L'METPDATA(R5)   Skip to next "put" entry
 00082A 4820 B868            00868  9511  1                      LH    R2,CPGETLN          Load old "get" count
1LINE     (LINE2193) (12:47) (15MAR04) MODIFY/EDIT line Modification Routine                                                Page   15
0Current Usings:  (METWA,R6) (*,R7) (METWA-(4+28),R8) (CP,R11) (CV,R12)
0Loc    Object Code    Addr1 Addr2  Stmt Lv Lineno    Source Statement           (Hibal 5, Asmedit 3.3)  HLASM R4.0  2004/03/15 12.47
+___    ______ ____    _____ _____  ____ __ ______    ______ _________
000082E 1B2F                        9512  1                      SR    R2,R15              Decrease by what we just "put"
 000830 4020 B868            00868  9513  1                      STH   R2,CPGETLN          Update "get" count
 000834 48E0 B868            00868  9514  1                      LH    R14,CPGETLN         Load get stack length
 000838 5820 B864            00864  9515  1                      L     R2,CPGETSTK         Point R2 to GETSTACK
 00083C 413F 2000            00000  9516  1                      LA    R3,0(R15,R2)        Point to new start of GETSTACK
 000840 06E0/12EE/4740_             9517  1                      DTEX  R14,'MVC @R2(0),@R3'  Shift GETSTACK over
 00084C 47F0 7116            006BC  9554                       END
                                    9559
 000850 4800 6128            00128  9560                       LH    R0,METLEN           Line len
 000854 4110 612A            0012A  9561                       LA    R1,METLINE
 000858 1821                        9562                       LR    R2,R1
 00085A 1A20                        9563                       AR    R2,R0
 00085C 0620                        9564                       DECR  R2                  Last char in line
 00085E 1921/4750 72CE_             9566                       WHILE ((R2,GE,R1),AND,(@R2,EQ,' ')),'DECR R2; DECR R0'
 000874 D601 6342 6342_00342 00342  9608                       IF    (METNSPLT,Z),LINNSPL  Br if no splits
 00087E D201 6344 6342 00344 00342  9627                       MVC   METWSPLT,METNSPLT   Save number of splits remaining
 000884 4850 6332            00332  9628                       LH    R5,METLCOL          Max line len
 000888 1831                        9629                       LR    R3,R1
 00088A 1A30                        9630                       AR    R3,R0               End of modified line
 00088C 4145 1000            00000  9631                       LA    R4,@R1(R5)          Modified line at max col
 000890 D501 7AB8 6332_0105E 00332  9632                       IF    (METLCOL,LT,&LINESZ),BEGIN
 00089A 1905/47D0 7326              9650  1                      IF    (R0,GT,R5),BEGIN    Text will get chopped...
 0008A0 4110 7ABA/4100_      01060  9665  2                        TSEG  'characters lost at column '
 0008B2 18F5/1B00/4110_             9683  2                        BTD   CPDOUB,0,(R5)
 0008C0 41F0 B050/58E0_      00050  9703  2                        TSEG  (R1),(R0),CR
 0008CA 1805                        9727  2                        LR    R0,R5               Set max allowed len
 0008CC                             9728  1                      END
 0008CC 5820 6004            00004  9732  1                      L     R2,METOLPTR         Original line len
 0008D0 1B25/47D0 734C              9733  1                      IF    ('SR R2,R5',POS),BEGIN  need to append stuff to line...
 0008D6 18F5                        9746  2                        LR    R15,R5
 0008D8 1BF0/47D0 733E              9747  2                        IF    ('SR R15,R0',POS),BEGIN
 0008DE 06F0/44F0 7B92_             9760  3                          DEX   R15,'MVC @R3(0),CVBLANKS'  pad with blanks
 0008E4                             9779  2                        END
 0008E4 5A50 6008            00008  9783  2                        A     R5,METOLPTR+4       Ptr to original text
 0008E8 0620/4420 7B98_             9784  2                        DEX   R2,'MVC @R4(0),@R5'
 0008EE 5800 6004            00004  9803  2                        L     R0,METOLPTR         Set good len
 0008F2                             9804  1                      END
 0008F2 4000 6128            00128  9808  1                      STH   R0,METLEN           Save new line len
 0008F6                             9809                       END
 0008F6 4150 6346            00346  9813                       LA    R5,METSAREA         First METSPLIT
 USING  METSPLIT,R5                 9814                       WITH  (METSPLIT,R5),BEGIN
 0008FA D501 7AD4 6344_0107A 00344  9828  1                      IF    (METWSPLT,GT,1),BEGIN  Sort multiple splits...
 000904 4150 6346            00346  9846  2           LINSSORT     LA    R5,METSAREA         Start of METSPLIT's
 000908 4800 6344            00344  9847  2                        LH    R0,METWSPLT         Number of splits remaining
 00090C 0600                        9848  2                        DECR  R0
 00090E D501 5000 5004_00000 00004  9850  2           LINSSLP      IF    (METSOFFS,GT,.METSNEXT+(METSOFFS-METSPLIT)),BEGIN
 000918 D703 5000 5004_00000 00004  9868  3                          FLIP  (METSPLIT,METSNEXT) Reverse entry order
 00092A 47F0 735E            00904  9875  3                          B     LINSSORT
 00092E                             9876  2                        END
 00092E D501 5000 6128_00000 00128  9880  2                        IF    (METSOFFS,GT,METLEN),'MVC METSOFFS,METLEN'
 00093E 4150 5004            00004  9904  2                        LA    R5,METSNEXT
 000942 4600 7368            0090E  9905  2                        BCT   R0,LINSSLP          Keep going
 000946                             9906  1                      END
 000946 D501 5000 6128_00000 00128  9910  1                      IF    (METSOFFS,GT,METLEN),'MVC METSOFFS,METLEN'
1LINE     (LINE2193) (12:47) (15MAR04) MODIFY/EDIT line Modification Routine                                                Page   16
0Current Usings:  (METWA,R6) (*,R7) (METWA-(4+28),R8) (CP,R11) (CV,R12)
0Loc    Object Code    Addr1 Addr2  Stmt Lv Lineno    Source Statement           (Hibal 5, Asmedit 3.3)  HLASM R4.0  2004/03/15 12.47
+___    ______ ____    _____ _____  ____ __ ______    ______ _________
0DROP   METSPLIT,R5                 9934                       END
 000956 4840 6342            00342  9942                       LH    R4,METNSPLT         Get, dummy last split entry
 00095A 4C40 7AD6            0107C  9943                       MH    R4,=AL2(L'METSPLIT)
 00095E 4144 6346            00346  9944                       LA    R4,METSAREA(R4)
 000962 D703 4000 4000_00000 00000  9945                       WITH  (METSPLIT,R4),'CLEAR METSPLIT; MVC METSOFFS,METLEN'
 USING  METSPLIT,R4
 DROP   METSPLIT,R4
 00096E 5810 BC74/1211_      00C74  9976                       IF    ('LT R1,CPMODNEX',Z),BEGIN
 000978 5810 600C            0000C  9992  1                      L     R1,METLINE#         Original lineno
 00097C 5A10 C4D0            004D0  9993  1                      A     R1,CVONE
 000980 5010 B73C            0073C  9994  1                      ST    R1,CPLCNO
 000984 4110 B73C            0073C  9995  1                      LA    R1,CPLCNO
 000988 D603 6010 6010_00010 00010  9996  1                      IF    (METNLINE,NZ),'LA R1,METNLINE'  Line after last join
 000996 58E0 7A5E/0DEE       01004 10018  1                      VCALL LOCATE              Find next lineno
 00099C 5810 B73C            0073C 10022  1                      L     R1,CPLCNO
 0009A0 91C0 BD84/4780_00D84       10023  1                      IF    (CPDRPT.CPFNTYT+CPFHIGH,NZ),'L R1,CVHILNO'
 0009AC                            10050                       END
 0009AC 0610                       10054                       DECR  R1
 0009AE 5B10 600C            0000C 10056                       S     R1,METLINE#         Distance between two lines
 0009B2 1B00                       10057                       CLEAR R0
 0009B4 48E0 6344            00344 10061                       LH    R14,METWSPLT
 0009B8 1D0E                       10062                       DR    R0,R14              Lines equally spaced
 0009BA 1211/4770 7442             10063                       IF    (R1,Z),BEGIN
 0009C0 4110 7B1C/4100_      010C2 10077  1                      TSEG  'No line-numbers available, '
 0009D2 4110 7AD8/4100_      0107E 10095  1                      TSEG  'split(s) not possible.',,CR
 0009E4 47F0 70E0            00686 10113  1                      B     LINBACK
 0009E8                            10114                       END
 0009E8 58E0 7A62/0DEE       01008 10118                       VCALL SELDELTA            Choose a nice delta
 0009EE 1851                       10122                       LR    R5,R1               Save it
                                   10123
 0009F0 4140 6346            00346 10124                       LA    R4,METSAREA
 0009F4 41E0 0001/4AE0_      00001 10125                       INCR  R14,METWSPLT        (include dummy metsplit)
 USING  METSPLIT,R4                10131                       WITH  (METSPLIT,R4),BEGIN
 000A00 5830 600C            0000C 10145  1                      L     R3,METLINE#         Original lineno
 000A04 1B22                       10146  1                      CLEAR R2
 000A06 5030 B73C            0073C 10150  1           LINSLIST   ST    R3,CPLCNO           Lineno
 000A0A 4112 612A            0012A 10151  1                      LA    R1,METLINE(R2)
 000A0E 4800 4000            00000 10152  1                      LH    R0,METSOFFS         Offset for split
 000A12 1B02                       10153  1                      SR    R0,R2
 000A14 58F0 B73C            0073C 10154  1                      L     R15,CPLCNO
 000A18 58E0 7A66/0DEE       0100C 10155  1                      VCALL LENCHKM             Length warnings, etc.
                                   10159  1         C            IF    ((~CPLFLG5.CPFNLST,AND,~METFATTN),OR,
 000A1E 9120 BD54/4710_00D54              1                            (METWSPLT,EQ,1)),BEGIN
 000A38 58E0 7A6A/0DEE       01010 10206  2                        VCALL LISTLINE
 000A3E 1B00/41F0 B050_            10210  2                        IF    ('TWRITE',NZ),'SET METFATTN'
 000A52                            10258  1                      END
 000A52 1A35                       10262  1                      AR    R3,R5               Next lineno
 000A54 4820 4000            00000 10263  1                      LH    R2,METSOFFS
 000A58 4140 4004            00004 10264  1                      LA    R4,METSNEXT
 000A5C 48E0 6344/06E0_      00344 10265  1                      DECR  R14,METWSPLT        One less split now
 000A66 12EE/4720 7460             10270  1                      IF    (R14,POS),LINSLIST  Loop back
 DROP   METSPLIT,R4                10287                       END
 000A6C 94F7 633E      0033E       10295                       CLEAR METFATTN
 000A70 58F0 C1C8            001C8 10302                       L     R15,CVCURJCB
1LINE     (LINE2193) (12:47) (15MAR04) MODIFY/EDIT line Modification Routine                                                Page   17
0Current Usings:  (METWA,R6) (*,R7) (METWA-(4+28),R8) (CP,R11) (CV,R12)
0Loc    Object Code    Addr1 Addr2  Stmt Lv Lineno    Source Statement           (Hibal 5, Asmedit 3.3)  HLASM R4.0  2004/03/15 12.47
+___    ______ ____    _____ _____  ____ __ ______    ______ _________
0000A74 94FD F062      00062       10303                       WITH  (JCB,R15),'CLEAR JCBFATTN'
 USING  JCB,R15
 DROP   JCB,R15
                                   10333
 000A78 9101 BD54/4710_00D54       10334                       IF    CPLFLG5.CPFSING,LINSPLIT  Finish up without prompt
 000A80 58E0 7A6E/0DEE       01014 10353                       ACALL MODREAD             Do prompt (before finishing split)
 000A86 47D0 7506            00AAC 10357                       IF    POS,BEGIN           Undo if attn...
 000A8A 5810 C1C8            001C8 10368  1                      L     R1,CVCURJCB
 000A8E 94FD 1062      00062       10369  1                      WITH  (JCB,R1),'CLEAR JCBFATTN'  Reset attn
 USING  JCB,R1
 DROP   JCB,R1
 000A92 4110 7AEE/4100_      01094 10399  1                      TSEG  'Previous split(s) aborted.',,CR
 000AA4 94DF BD54      00D54       10417  1                      CLEAR CPLFLG5.CPFNLST
 000AA8 47F0 70E0            00686 10425  1                      B     LINBACK
 000AAC                            10426                       END
                                   10430
 000AAC 90F1 D000/41D0_      00000 10431                       XPUSH R15,R1
                                   10434                       ¿þþþþþþþþþþþþþþþþþþþþþþþþþþþþþþþþþÜ
                                   10435                       Ÿ  Now actually do the split(s).  Ÿ
                                   10436                       ¾þþþþþþþþþþþþþþþþþþþþþþþþþþþþþþþþþ»
 000AB4 58E0 7A72/0DEE       01018 10437              LINSPLIT ACALL DELJOIND            Delete any joined lines
 000ABA D203 6330 7A76 00330 0101C 10441                       MVC   METFCOL(4),=Y(0,&LINESZ)  Reset columns
 000AC0 48E0 6342            00342 10442                       LH    R14,METNSPLT        No. of splits
 000AC4 41E0 E001            00001 10443                       LA    R14,@R14+1          (Include dummy METSPLIT)
 000AC8 40E0 6344            00344 10444                       STH   R14,METWSPLT        Save working count
 000ACC 4140 6346            00346 10445                       LA    R4,METSAREA         Start of METSPLIT's
 USING  METSPLIT,R4                10446                       WITH  (METSPLIT,R4),BEGIN
 000AD0 5830 600C            0000C 10460  1                      L     R3,METLINE#
 000AD4 1B22                       10461  1                      CLEAR R2
 000AD6 5030 B73C            0073C 10465  1           LINSSTOW   ST    R3,CPLCNO           Save lineno
 000ADA 4112 612A            0012A 10466  1                      LA    R1,METLINE(R2)
 000ADE 4800 4000            00000 10467  1                      LH    R0,METSOFFS
 000AE2 1B02                       10468  1                      SR    R0,R2               Line len
 000AE4 D2EA 6028 1000 00028 00000 10469  1                      MVC   METPLINE,@R1        Work buffer for PRESS
 000AEA 9001 D000/41D0_      00000 10470  1                      XPUSH R0,R1
 000AF2 4110 6028            00028 10473  1                      LA    R1,METPLINE
 000AF6 58F0 B73C            0073C 10474  1                      L     R15,CPLCNO
 000AFA 50F0 B5A8            005A8 10475  1                      ST    R15,CPACLNO         Update current line ptr
 000AFE 58E0 7A7A/0DEE       01020 10476  1                      VCALL PRESS
 000B04 58E0 7A7E/0DEE       01024 10480  1                      VCALL STOW                Put line in ACTIVE file
 000B0A 4100 0001/5E00_      00001 10484  1                      INCR  R0,CPACHCT          Change count
 000B16 4BD0 7B08/9801_      010AE 10490  1                      XPOP  R0,R1
 000B1E 1A35                       10493  1                      AR    R3,R5               Kick lineno
 000B20 4820 4000            00000 10494  1                      LH    R2,METSOFFS         Save current offset for loop
 000B24 4140 4004            00004 10495  1                      LA    R4,METSNEXT         Next METSPLIT
 000B28 48E0 6344/06E0_      00344 10496  1                      DECR  R14,METWSPLT        One less now
 000B32 12EE/4720 7530             10501  1                      IF    (R14,POS),LINSSTOW  Loop back
 DROP   METSPLIT,R4                10518                       END
                                   10526
 000B38 5900 7A46/47D0_      00FEC 10527                       CEIL  R0,&LINESZ
 000B44 4000 6128            00128 10546                       STH   R0,METLEN           Save line len
 000B48 D2EA 612A 1000 0012A 00000 10547                       MVC   METLINE(&LINESZ),@R1
 000B4E D203 600C B73C 0000C 0073C 10548                       MVC   METLINE#,CPLCNO     Update lineno
 000B54 9180 633E/4710_0033E       10549                       IF    ~METFNEW,'MVC METLINER,CPLCNO'
1LINE     (LINE2193) (12:47) (15MAR04) MODIFY/EDIT line Modification Routine                                                Page   18
0Current Usings:  (METWA,R6) (*,R7) (METWA-(4+28),R8) (CP,R11) (CV,R12)
0Loc    Object Code    Addr1 Addr2  Stmt Lv Lineno    Source Statement           (Hibal 5, Asmedit 3.3)  HLASM R4.0  2004/03/15 12.47
+___    ______ ____    _____ _____  ____ __ ______    ______ _________
0000B62 5820 6008            00008 10570                       L     R2,METOLPTR+4       Original line ptr
 000B66 12F0/47D0 75CC_            10571                       IF    ('LTR R15,R0',POS),'DEX R15,"MVC @R2(0),METLINE"'
 000B72 5000 6004            00004 10608                       ST    R0,METOLPTR         Update len
 000B76 9101 BD54/4710_00D54       10609                       IF    CPLFLG5.CPFSING,LINDONE  all done
 000B7E 4BD0 7B0A/98F1_      010B0 10628                       XPOP  R15,R1              Restore regs from MODREAD
 000B86 47F0 769E            00C44 10631                       B     LINLOOPB
 000B8A 9180 BC78/4710_00C78       10632              LINNSPL  IF    (CPFCMDMD,OR,(METLCOL,LT,&LINESZ)),BEGIN
 000B9C 4900 6332/47C0_      00332 10665  1                      IF    (R0,LE,METLCOL),EXIT
 000BA4 4110 7B37/4100_      010DD 10685  1                      TSEG  'characters past column '
 000BB6 4810 6332/1B00_      00332 10703  1                      TNUM  LH:METLCOL          Column no.
 000BC6 4110 7B4E/4100_      010F4 10724  1                      TSEG  ' lost',,CR
 000BD8 4800 6332            00332 10742  1                      LH    R0,METLCOL
 000BDC 4110 612A            0012A 10743  1                      LA    R1,METLINE
 000BE0                            10744                       END
 000BE0 9180 BC78/4710_00C78       10748                       IF    ~CPFCMDMD,BEGIN     No len chk if retry
 000BE8 9120 BD54/47E0_00D54       10763  1                      IF    (CPLFLG5.CPFNLST,AND,(R0,LE,&LINESZ)),EXIT
 000BF8 58F0 600C            0000C 10798  1                      L     R15,METLINE#        Lineno for lenchk
 000BFC 58E0 7A66/0DEE       0100C 10799  1                      VCALL LENCHKM             Give length warning
 000C02                            10803                       END
                                   10807                       ¿þþþþþþþþþþþþþþþþþþþþþþþþþþþþþþþþÜ
                                   10808                       Ÿ  Main line modification loop.  Ÿ
                                   10809                       ¾þþþþþþþþþþþþþþþþþþþþþþþþþþþþþþþþ»
 000C02 4000 6128            00128 10810              LINLOOPA STH   R0,METLEN
 000C06 4B00 6330            00330 10811                       SH    R0,METFCOL
 000C0A 4A10 6330            00330 10812                       AH    R1,METFCOL
 000C0E D203 B73C 600C 0073C 0000C 10813                       MVC   CPLCNO,METLINE#
 000C14 9120 BD54/4710_00D54       10814                       IF    ~CPLFLG5.CPFNLST,'VCALL LISTLINE; TWRITE'
 000C2E 94DF BD54      00D54       10864                       CLEAR CPLFLG5.CPFNLST     Reset nolist
 000C32 9101 BD54/4710_00D54       10872                       IF    CPLFLG5.CPFSING,LINDONE  all done
 000C3A 58E0 7A6E/0DEE       01014 10891                       ACALL MODREAD             Do mods/edit prompt
 000C40 4720 7714            00CBA 10895                       BP    LINATTN             Attn only
 000C44 D701 6342 6342 00342 00342 10896              LINLOOPB CLEAR METNSPLT            Reset any prev splits
 000C4A D701 6300 6300 00300 00300 10904                       CLEAR METPUTL             Clear put values
 000C50 1200/4770 76BA             10911                       IF    (R0,Z),BEGIN        Zero len reply
 000C56 12FF/4740 7112             10925  1                      IF    (R15,NEG),LINLOOP   Attn char ending
 000C5C 47F0 7772            00D18 10942  1                      B     LINDONE             Carriage return only
 000C60                            10943                       END
 000C60 D2EC 6026 6128 00026 00128 10947                       MVC   METPLEN(2+L'METPLINE),METLEN
                                   10948
 000C66 9120 633E/47E0_0033E       10949                       IF    METFMOD,BEGIN       Modify...
 000C6E 58E0 7A86/0DEE       0102C 10964  1                      ACALL MODS                Do modify
 000C74                            10968                       END
                                   10972
 000C74 76D2/47F0 76D8 00C74 00C6C 10973                       ELSE  BEGIN               Edit...
 000C78 58E0 7A8A/0DEE       01030 10984  1                      ACALL EDITS               Do edit
 000C7E                            10988                       END
                                   10992
                                   10993                       COMMENT                   Process returns
                                   10994                       COMMENT ,                 Normal return is LOOP for more
                                   10995                       COMMENT ,                 Mods/Edits
 000C7E 12FF/4780 7112             10996                       IF    (R15,Z),LINLOOP
 000C84 59F0 7A8E/4780_      01034 11013                       IF    (R15,EQ,RNORMAL2),LINLOOP
                                   11033                       COMMENT                   Error return, restore orig line
 000C8C 59F0 7A92/4770_      01038 11034                       IF    (R15,EQ,RERROR),BEGIN
1LINE     (LINE2193) (12:47) (15MAR04) MODIFY/EDIT line Modification Routine                                                Page   19
0Current Usings:  (METWA,R6) (*,R7) (METWA-(4+28),R8) (CP,R11) (CV,R12)
0Loc    Object Code    Addr1 Addr2  Stmt Lv Lineno    Source Statement           (Hibal 5, Asmedit 3.3)  HLASM R4.0  2004/03/15 12.47
+___    ______ ____    _____ _____  ____ __ ______    ______ _________
0000C94 9620 BD54      00D54       11051  1                      SET   CPLFLG5.CPFNLST
 000C98 94BF 633E      0033E       11058  1                      CLEAR METFINS
 000C9C 47F0 70E0            00686 11065  1                      B     LINBACK
 000CA0                            11066                       END
                                   11070                       COMMENT                   Special returns..
 000CA0 59F0 7A96/4780_      0103C 11071                       IF    (R15,EQ,RLINDONE),LINDONE
 000CA8 59F0 7A9A/4780_      01040 11091                       IF    (R15,EQ,RLINRET),LINRET
 000CB0 59F0 7A9E/4780_      01044 11111                       IF    (R15,EQ,RLINRETD),LINRETDJ
 000CB8 0000                       11131                       BOMB  ,                   If unrecognized return, bomb
1LINE     (LINE2193) (12:47) (15MAR04) MODIFY/EDIT line Modification Routine                                                Page   20
0Current Usings:  (METWA,R6) (*,R7) (METWA-(4+28),R8) (CP,R11) (CV,R12)
0Loc    Object Code    Addr1 Addr2  Stmt Lv Lineno    Source Statement           (Hibal 5, Asmedit 3.3)  HLASM R4.0  2004/03/15 12.47
+___    ______ ____    _____ _____  ____ __ ______    ______ _________
0                                  11134                       ¿þþþþþþþþþþþþþþþþþþþþþþþþþþþþþþþþþþþþþþþþþþþþþþþþþþþÜ
                                   11135                       Ÿ  Handle attention response to line modification.  Ÿ
                                   11136                       ¾þþþþþþþþþþþþþþþþþþþþþþþþþþþþþþþþþþþþþþþþþþþþþþþþþþþ»
 000CBA 9180 BC78/4710_00C78       11137              LINATTN  IF    CPFCMDMD,LINABORT   No msg if command retry
 000CC2 D603 6010 6010_00010 00010 11156                       IF    (METNLINE,NZ),LINCH  joins were done, force msg
 000CCC 9801 6004            00004 11175                       LM    R0,R1,METOLPTR      Get original line len, loc
 000CD0 4900 6332/47D0_      00332 11176                       CEIL  R0,METLCOL
 000CDC 48F0 6128            00128 11182                       LH    R15,METLEN
 000CE0 190F/4730 7756             11183                       IF    (R0,LE,R15),BEGIN
 000CE6 12FF/47D0 7768             11198  1                      IF    (R15,~POS),LINABORT  no message if null line
 000CEC 06F0/12FF/4740_            11215  1                      CMPR  R15,@R1,METLINE     Has the line changed?
 000CF8 4780 7768            00D0E 11253  1                      BE    LINABORT            no, don't give any message
 000CFC                            11254                       END
 000CFC 4110 7B53/4100_      010F9 11258              LINCH    TSEG  'Line was not changed.',,WR
                                   11276
 000D0E 41F0 0004            00004 11277              LINABORT LA    R15,4               Ended by attn
 000D12 1B00                       11278                       CLEAR R0                  Zot len
 000D14 47F0 79D8            00F7E 11282                       B     LINEXIT
                                   11283
 000D18 4800 6128            00128 11284              LINDONE  LH    R0,METLEN
 000D1C 4110 612A            0012A 11285                       LA    R1,METLINE
 000D20 9823 6004            00004 11286                       LM    R2,R3,METOLPTR      Get original line len, loc
 000D24 4920 6332/47D0_      00332 11287                       IF    (R2,GT,METLCOL),BEGIN  append ending col text...
 000D2C 1841                       11304  1                      LR    R4,R1
 000D2E 1A40                       11305  1                      AR    R4,R0
 000D30 4820 6332            00332 11306  1                      LH    R2,METLCOL
 000D34 1B20/47D0 779E             11307  1                      IF    ('SR R2,R0',POS),BEGIN
 000D3A 0620/4420 7BAA_            11320  2                        DEX   R2,'MVC @R4(0),CVBLANKS'
 000D40 4144 2001            00001 11339  2                        LA    R4,@R2+1(R4)
 000D44                            11340  1                      END
 000D44 1853                       11344  1                      LR    R5,R3
 000D46 4A50 6332            00332 11345  1                      AH    R5,METLCOL
 000D4A 5820 6004            00004 11346  1                      L     R2,METOLPTR
 000D4E 4020 6128            00128 11347  1                      STH   R2,METLEN           Update new len
 000D52 1802                       11348  1                      LR    R0,R2
 000D54 4B20 6332            00332 11349  1                      SH    R2,METLCOL
 000D58 0620/4420 7BB0_            11350  1                      DEX   R2,'MVC @R4(0),@R5'    Move in text past last col
 000D5E                            11369                       END
                                   11373
 000D5E 9180 BC78/47E0_00C78       11374                       IF    CPFCMDMD,BEGIN      Retry...
 000D66 12F0/47D0 77CC_            11389  1                      IF    ('LTR R15,R0',POS),'DEX R15,"MVC @R3(0),@R1"' upd orig
 000D72                            11426                       END
                                   11430
 000D72 77D0/47F0 7826 00D72 00D64 11431                       ELSE  BEGIN
 000D76 9823 6004            00004 11442  1                      LM    R2,R3,METOLPTR      Get original line loc, len
 000D7A 48F0 6128            00128 11443  1                      LH    R15,METLEN
 000D7E 192F/4730 7804             11444  1                      IF    (R2,LE,R15),BEGIN
 000D84 06F0/12FF/4740_            11459  2                        CMPR  R15,@R3,METLINE     Has the line changed?
 000D90 4770 77F8/D603_      00D9E 11497  2                        IF    (EQ,AND,(METNLINE,Z)),LINDLC  No changes, scram
 000D9E 12F0/47D0 7804_            11526  2                        IF    ('LTR R15,R0',POS),'DEX R15,"MVC @R3(0),@R1"'
 000DAA                            11563  1                      END
 000DAA 41E0 0001/5EE0_      00001 11567  1                      INCR  R14,CPACHCT         Kick change count
 000DB6 58E0 7A72/0DEE       01018 11573  1           LINDLC     ACALL DELJOIND            Delete any joined lines
 000DBC 58F0 600C            0000C 11577  1                      L     R15,METLINE#
1LINE     (LINE2193) (12:47) (15MAR04) MODIFY/EDIT line Modification Routine                                                Page   21
0Current Usings:  (METWA,R6) (*,R7) (METWA-(4+28),R8) (CP,R11) (CV,R12)
0Loc    Object Code    Addr1 Addr2  Stmt Lv Lineno    Source Statement           (Hibal 5, Asmedit 3.3)  HLASM R4.0  2004/03/15 12.47
+___    ______ ____    _____ _____  ____ __ ______    ______ _________
0000DC0 58E0 7A7A/0DEE       01020 11578  1                      VCALL PRESS
 000DC6 58E0 7A7E/0DEE       01024 11582  1                      VCALL STOW                Replace line in ACTIVE file
 000DCC                            11586                       END
 000DCC 5810 6008            00008 11590                       L     R1,METOLPTR+4       Line addr
 000DD0 4800 6128            00128 11591                       LH    R0,METLEN           And len
 000DD4 58E0 7A72/0DEE       01018 11592              LINRETDJ ACALL DELJOIND            Last chance to delete joined lines
 000DDA D503 7AA2 6014_01048 00014 11596              LINRET   IF    (METFLINE,NE,-1),BEGIN  New line to modify...
 000DE4 4110 6014            00014 11615  1                      LA    R1,METFLINE
 000DE8 58E0 7A5E/0DEE       01004 11616  1                      VCALL LOCATE
 000DEE 5810 6008            00008 11620  1                      L     R1,METOLPTR+4       Unpress into orig. line bufr
 000DF2 58E0 7AA6/0DEE       0104C 11621  1                      VCALL UNPRESS
 000DF8 D201 BD53 6340 00D53 00340 11625  1                      MVC   CPLFLG4(2),METLF4   Restore
 000DFE D703 BC74 BC74 00C74 00C74 11626  1                      CLEAR CPMODNEX            No longer applies
 000E04 9200 633E      0033E       11633  1                      CLEAR METFLAGS            Reset stuff
 000E08 9680 633E      0033E       11640  1                      SET   METFNEW             Line has no relation to range
 000E0C 47F0 700E            005B4 11646  1                      B     LINSTART
 000E10                            11647                       END
                                   11651
 000E10 D603 6018 6018_00018 00018 11652              LINCOLL  IF    (METCDELT,NZ),BEGIN  Collecting some new lines...
 000E1A D203 6330 7A76 00330 0101C 11669  1                      MVC   METFCOL(4),=Y(0,&LINESZ)  Reset columns
 000E20 94DE BD54      00D54       11670  1                      CLEAR CPLFLG5.CPFSING+CPFNLST  Reset options
 000E24 5820 600C            0000C 11681  1                      L     R2,METLINE#         Current lineno
 000E28 5810 6018            00018 11682  1                      L     R1,METCDELT         Current delta
 000E2C 1A21                       11683  1                      AR    R2,R1               Next lineno
 000E2E 5920 6020/47D0_      00020 11684  1                      IF    (R2,GT,METCLLIN),BEGIN  Collect ovfl, renumber...
 000E36 8810 0001            00001 11701  2                        SRL   R1,1                Halve delta
 000E3A 1211/4770 78B0             11702  2                        IF    (R1,Z),BEGIN        Not enough linenos...
 000E40 4110 79FA/4100_      00FA0 11716  3                          TSEG  'No more line-numbers available, collect aborted.',,CR
 000E52 47F0 79C0            00F66 11734  3                          EXIT  LINCOLL
 000E56                            11737  2                        END
 000E56 58E0 7A62/0DEE       01008 11741  2                        VCALL SELDELTA            Choose a nice delta
 000E5C 5010 6018            00018 11745  2                        ST    R1,METCDELT         Save new delta
 000E60 5010 BE18            00E18 11746  2                        ST    R1,CPWKDL           Save (for NUMRANGE)
 000E64 D203 BE14 6020 00E14 00020 11747  2                        MVC   CPWKPS,METCLLIN     Last possible line
 000E6A 4110 7B0C/4100_      010B2 11748  2                        TSEG  'Renumbered by '
 000E7C 5800 6018            00018 11766  2                        L     R0,METCDELT
 000E80 58E0 7AAA/0DEE       01050 11767  2                        VCALL CVEXNO
 000E86 41F0 B050/58E0_      00050 11771  2                        TSEG  (R1),(R0),WR
 000E90 58F0 C1C8            001C8 11795  2                        L     R15,CVCURJCB
 000E94 94FD F062      00062       11796  2                        WITH  (JCB,R15),'CLEAR JCBFATTN'
 USING  JCB,R15
 DROP   JCB,R15
 000E98 9604 633E      0033E       11826  2                        SET   METFREN             Renumber is pending
 000E9C 5820 6018            00018 11832  2                        L     R2,METCDELT
 000EA0 4C20 6024            00024 11833  2                        MH    R2,METCNUM
 000EA4 5A20 601C            0001C 11834  2                        A     R2,METCFLIN         New last line-number
 000EA8 5A20 6018            00018 11835  2                        A     R2,METCDELT         New next line-number
 000EAC                            11836  1                      END
 000EAC 1802                       11840  1                      LR    R0,R2
 000EAE 58E0 7AAE/0DEE       01054 11841  1                      ACALL LINERD              Get input
 000EB4 47D0 7930            00ED6 11845  1                      IF    POS,BEGIN           Attn only...
 000EB8 9104 633E/47E0_0033E       11856  2                        IF    METFREN,'TSEG "Original numbering kept.",,WR'
 000ED2 47F0 79C0            00F66 11894  2                        EXIT  LINCOLL
 000ED6                            11897  1                      END
1LINE     (LINE2193) (12:47) (15MAR04) MODIFY/EDIT line Modification Routine                                                Page   22
0Current Usings:  (METWA,R6) (*,R7) (METWA-(4+28),R8) (CP,R11) (CV,R12)
0Loc    Object Code    Addr1 Addr2  Stmt Lv Lineno    Source Statement           (Hibal 5, Asmedit 3.3)  HLASM R4.0  2004/03/15 12.47
+___    ______ ____    _____ _____  ____ __ ______    ______ _________
0000ED6 D2EA 612A 1000 0012A 00000 11901  1                      MVC   METLINE(&LINESZ),@R1
 000EDC 4110 612A            0012A 11902  1                      LA    R1,METLINE
 000EE0 9104 633E/47E0_0033E       11903  1                      IF    METFREN,BEGIN       Do renumbering now...
 000EE8 90F3 D000/41D0_      00000 11918  2                        XPUSH R15,R3
 000EF0 5800 601C            0001C 11921  2                        L     R0,METCFLIN         R0 = First lineno
 000EF4 5810 BE14            00E14 11922  2                        L     R1,CPWKPS           R1 = Last lineno
 000EF8 5820 BE18            00E18 11923  2                        L     R2,CPWKDL           R2 = Delta
 000EFC 1830                       11924  2                        LR    R3,R0               R3 = Starting lineno
 000EFE 58E0 7AB2/0DEE       01058 11925  2                        VCALL NUMRANGE            Re-number
 000F04 94FB 633E      0033E       11929  2                        CLEAR METFREN
 000F08 4BD0 7B1A/98F3_      010C0 11936  2                        XPOP  R15,R3
 000F10                            11939  1                      END
 000F10 5020 B5A8            005A8 11943  1                      ST    R2,CPACLNO          Update current line ptr
 000F14 5020 600C            0000C 11944  1                      ST    R2,METLINE#         Save new line-number
 000F18 9180 633E/4710_0033E       11945  1                      IF    ~METFNEW,'ST R2,METLINER'
 000F24 122F/4770 798E_            11966  1                      IF    ('LTR R2,R15',Z),'L R15,METLINE#; VCALL LENCHKM'
 000F34 4000 6128            00128 11989  1                      STH   R0,METLEN
 000F38 9140 633E/47E0_0033E       11990  1                      IF    METFINS,'CLEAR METFINS,METCDELT'
 000F4A 41F0 0001/4AF0_      00001 12022  1                      INCR  R15,METCNUM         Kick collect line count
 000F56 1222/4780 7772             12028  1                      IF    (R2,Z),LINDONE      Add line to file
 000F5C D703 6018 6018 00018 00018 12045  1                      CLEAR METCDELT            Turn off collecting
 000F62 47F0 7112            006B8 12052  1                      B     LINLOOP             @attn... go modify this line
 000F66                            12053                       END
                                   12057
 000F66 58F0 C1C8            001C8 12058                       L     R15,CVCURJCB
 000F6A 94FD F062      00062       12059                       WITH  (JCB,R15),'CLEAR JCBFATTN'
 USING  JCB,R15
 DROP   JCB,R15
                                   12089
 000F6E 1BFF                       12090                       CLEAR R15                 Rtn code
 000F70 9110 633E/47E0_0033E       12094                       IF    METFSTOP,'LA R15,4; LCR R15,R15'
 000F7E D203 B73C 6000 0073C 00000 12116              LINEXIT  MVC   CPLCNO,METLINER     Last modify lineno (in range)
 000F84 D201 BD53 6340 00D53 00340 12117                       MVC   CPLFLG4(2),METLF4   Restore local flags
 000F8A D703 BC74 BC74 00C74 00C74 12118                       CLEAR CPMODNEX
 000F90 18D8/9828 D004_            12125                       PEND
 DROP   METWA,R6
 DROP   METWA-(4+28),R8
 DROP   *,R7
                                   12155
                                   12156                       QLTORG
1LINE     (LINE2193) (12:47) (15MAR04) MODIFY/EDIT line Modification Routine                                                Page   23
0Current Usings:  (CP,R11) (CV,R12)
0Loc    Object Code    Addr1 Addr2  Stmt Lv Lineno    Source Statement           (Hibal 5, Asmedit 3.3)  HLASM R4.0  2004/03/15 12.47
+___    ______ ____    _____ _____  ____ __ ______    ______ _________
0                                  12215                       ¿þþþþþþþþþþþþþþþþþþþþþþþþþþþþþþþþþþþþþþþþþþþþþþþþþþÜ
                                   12216                       Ÿ  Routine to delete any previously joined lines.  Ÿ
                                   12217                       ¾þþþþþþþþþþþþþþþþþþþþþþþþþþþþþþþþþþþþþþþþþþþþþþþþþþ»
 00116E 50E0 D000/9008_      00000 12218              DELJOIND PROC
 USING  *,R7
 USING  METWA,R6                   12257                       WITH  (METWA,R6)
                                   12270
 001188 D603 6010 6010_00010 00010 12271                       IF    (METNLINE,NZ),BEGIN There are lines to delete...
 001192 5800 600C            0000C 12287  1                      L     R0,METLINE#
 001196 5A00 7100            01288 12288  1                      A     R0,=F'1'
 00119A 5810 6010            00010 12289  1                      L     R1,METNLINE
 00119E 0610                       12290  1                      DECR  R1
 0011A0 58E0 7104/0DEE       0128C 12292  1                      VCALL DELRANGE            Delete lines R0/R1
 0011A6 D703 6010 6010 00010 00010 12296  1                      CLEAR METNLINE            Reset
 0011AC                            12303                       END
 0011AC 18D8/9808 D004_            12307                       PEND
 DROP   METWA,R6
 DROP   *,R7
1LINE     (LINE2193) (12:47) (15MAR04) MODIFY/EDIT line Modification Routine                                                Page   24
0Current Usings:  (CP,R11) (CV,R12)
0Loc    Object Code    Addr1 Addr2  Stmt Lv Lineno    Source Statement           (Hibal 5, Asmedit 3.3)  HLASM R4.0  2004/03/15 12.47
+___    ______ ____    _____ _____  ____ __ ______    ______ _________
0                                  12333              ¿þþþþþþþþþþþþþþþþþþþþþþþþþþþþþþþþþþþþþþþþþþþþþþþþþþþþþþþþþþþþþþþþþþþþþÜ
                                   12334              Ÿ                                                                     Ÿ
                                   12335              Ÿ  MODREAD -- Routine to do terminal read for mods/edits prompt.      Ÿ
                                   12336              Ÿ                                                                     Ÿ
                                   12337              Ÿ    On exit:                                                         Ÿ
                                   12338              Ÿ      R1,R0 -- read line loc & len                                   Ÿ
                                   12339              Ÿ      R15 (and cc):                                                  Ÿ
                                   12340              Ÿ         0 - normal read completion                                  Ÿ
                                   12341              Ÿ        pos- abort line                                              Ÿ
                                   12342              Ÿ                                                                     Ÿ
                                                      ¾þþþþþþþþþþþþþþþþþþþþþþþþþþþþþþþþþþþþþþþþþþþþþþþþþþþþþþþþþþþþþþþþþþþþþ»
00011BA 50E0 D000/9028_      00000 12343              MODREAD  PROC  (R2,LSR)
 USING  *,R7
 USING  METWA,R6                   12382                       WITH  (METWA,R6)
                                   12395
 0011D4 9108 BC78/47E0_00C78       12396                       IF    CPFLISXP,BEGIN      List options explicit...
 0011DC 9120 6341/47E0_00341       12411  1                      IF    METLF5.CPFNLST,'SET CPLFLG5.CPFNLST'
 0011E8 9101 6341/47E0_00341       12439  1                      IF    METLF5.CPFSING,'SET CPLFLG5.CPFSING'
 0011F4                            12467                       END
 0011F4 4110 70AC/4100_      01280 12471                       SETMSG '  Edits '
 0011FC 9120 633E/47E0_0033E       12475                       IF    METFMOD,'SETMSG "   Mods  "'
 00120C 41F0 B050/58E0_      00050 12499                       TSEG  (R1),(R0)
 001216 4110 70CC/4100_      012A0 12523                       SETMSG '> '
 00121E 9110 BD57/47E0_00D57       12527                       IF    CPFUPPER,'SETMSG "? "'
 00122E 1BFF/58E0 70C0_            12551                       TREAD (R1),(R0)
 001236 4740 C7DA            007DA 12571                       BM    CVABORT             Logging off, scram
                                   12572
 00123A 59F0 70C4/4770_      01298 12573                       IF    (R15,EQ,3),BEGIN    @break...
 001242 9701 BD54      00D54       12590  1                      FLIP  CPLFLG5.CPFSING     Toggle single
 001246 9101 BD54/4710_00D54       12597  1                      IF    ~CPLFLG5.CPFSING,'CLEAR CPLFLG5.CPFNLST'  list!
 001252 1BFF                       12626  1                      CLEAR R15                 Looks like normal completion
 001254                            12630                       END
                                   12634
 001254 12FF/4770 709C             12635                       IF    (R15,Z),BEGIN       Normal completion...
 00125A 5900 70C8/47D0_      0129C 12649  1                      CEIL  R0,&LINESZ          Keep within bounds
 001266 1851                       12668  1                      LR    R5,R1
 001268 4B50 6330            00330 12669  1                      SH    R5,METFCOL          Adjust ptr for starting col
 00126C 5050 632C            0032C 12670  1                      ST    R5,METPRMPT
 001270                            12671                       END
 001270 18D8/9828 D004_            12675                       PEND
 DROP   METWA,R6
 DROP   *,R7
                                   12700
                                   12701                       QLTORG
1LINE     (LINE2193) (12:47) (15MAR04) MODIFY/EDIT line Modification Routine                                                Page   25
0Current Usings:  (CP,R11) (CV,R12)
0Loc    Object Code    Addr1 Addr2  Stmt Lv Lineno    Source Statement           (Hibal 5, Asmedit 3.3)  HLASM R4.0  2004/03/15 12.47
+___    ______ ____    _____ _____  ____ __ ______    ______ _________
0                                  12724              ¿þþþþþþþþþþþþþþþþþþþþþþþþþþþþþþþþþþþþþþþþþþþþþþþþþþþþþþþþþþþþþþþþþþþþþÜ
                                   12725              Ÿ                                                                     Ÿ
                                   12726              Ÿ  EDITS -- EDIT processing routine.                                  Ÿ
                                   12727              Ÿ                                                                     Ÿ
                                   12728              Ÿ    On entry:                                                        Ÿ
                                   12729              Ÿ      R1,R0 - input line location, length                            Ÿ
                                   12730              Ÿ                                                                     Ÿ
                                   12731              Ÿ    On exit, R15 (and cc):                                           Ÿ
                                   12732              Ÿ      0 - ok                                                         Ÿ
                                   12733              Ÿ      RERROR - error of some sort occurred                           Ÿ
                                   12734              Ÿ                                                                     Ÿ
                                                      ¾þþþþþþþþþþþþþþþþþþþþþþþþþþþþþþþþþþþþþþþþþþþþþþþþþþþþþþþþþþþþþþþþþþþþþ»
0000000                00000 00001 12735              EDWA     RECORD BEGIN
 000000                            12743  1           EDCHAR     DS    C                   Working character
 000001                00001 00001 12744                       END
                                   12753              þþþþ
 0012AE 50E0 D000/9008_      00000 12754              EDITS    PROC  EDWA
 USING  *,R7
 USING  EDWA-(4+36),R8
 USING  METWA,R6                   12804                       WITH  (METWA,R6)
                                   12817                       ¿þþþþþþþþþþþþþþþþþþþþþþþþþþþþþþþþþþþþþþþþþþþþþþþþþþþþþþþþþÜ
                                   12818                       Ÿ  Save and upper case the first character of the EDITS?  Ÿ
                                   12819                       Ÿ    response (it is an edit option).                     Ÿ
                                   12820                       ¾þþþþþþþþþþþþþþþþþþþþþþþþþþþþþþþþþþþþþþþþþþþþþþþþþþþþþþþþþ»
 0012C8 D200 8028 1000 00000 00000 12821                       MVC   EDCHAR,@R1          Save special first edit char
 0012CE 9581 8028/4750_00000       12822                       IF    ((EDCHAR,GE,'a'),AND,(EDCHAR,LE,'z')),'OI EDCHAR,C" "'
                                   12861                       ¿þþþþþþþþþþþþþþþþþþþþþþþþþþþþþþþþþþÜ
                                   12862                       Ÿ  Set up for processing routine.  Ÿ
                                   12863                       ¾þþþþþþþþþþþþþþþþþþþþþþþþþþþþþþþþþþ»
 0012E2 41F0 0001/5EF0_      00001 12864                       INCR  R15,METPRMPT
 0012EE 4110 1001            00001 12870                       LA    R1,@R1+1            Update prompt start ptr
 0012F2 0600                       12871                       DECR  R0
 0012F4 1BFF                       12873                       CLEAR R15
                                   12877
 0012F6 954B 8028/4770_00000       12878                       IF    (EDCHAR,EQ,'.'),'ACALL FUNCTION'
 001304 7040/47F0 704E_01304 012FC 12904                       ELSEIF (EDCHAR,EQ,'?'),'ACALL HELPLMOD'
 001316 7052/47F0 7060_01316 0130E 12939                       ELSEIF (EDCHAR,EQ,' '),'ACALL E'
 001328 7064/47F0 7072_01328 01320 12974                       ELSEIF (EDCHAR,EQ,'E'),'ACALL E'
 00133A 7076/47F0 7084_0133A 01332 13009                       ELSEIF (EDCHAR,EQ,'M'),'ACALL MODS'   Treat as mods line
 00134C 7088/47F0 709A_0134C 01344 13044                       ELSEIF (EDCHAR,EQ,'L'),'CLEAR CPLFLG5.CPFNLST; ACALL E'
 001362 709E/47F0 70B0_01362 01356 13087                       ELSEIF (EDCHAR,EQ,'N'),'SET CPLFLG5.CPFNLST; ACALL E'
 001378 70B4/47F0 70DA 01378 0136C 13129                       ELSE  BEGIN               Bad character...
 00137C 0610                       13140  1                      DECR  R1                  Point to char
 00137E 4100 0001/41F0_      00001 13142  1                      TSEG  (R1),1              First char
 00138C 4110 7310/4100_      015D8 13169  1                      TSEG  ': invalid first edit char.  Retype line.',,CR
 00139E 41F0 0008            00008 13187  1                      LA    R15,RERROR          Error
 0013A2                            13188                       END
                                   13192
 0013A2 18D8/9808 D004_            13193                       PEND
 DROP   METWA,R6
 DROP   EDWA-(4+36),R8
 DROP   *,R7
1LINE     (LINE2193) (12:47) (15MAR04) MODIFY/EDIT line Modification Routine                                                Page   26
0Current Usings:  (CP,R11) (CV,R12)
0Loc    Object Code    Addr1 Addr2  Stmt Lv Lineno    Source Statement           (Hibal 5, Asmedit 3.3)  HLASM R4.0  2004/03/15 12.47
+___    ______ ____    _____ _____  ____ __ ______    ______ _________
0                                  13224              ¿þþþþþþþþþþþþþþþþþþþþþþþþþþþþþþþþþþþþþþþþþþþþþþþþþþþþþþþþþþþþþþþþþþþþþÜ
                                   13225              Ÿ                                                                     Ÿ
                                   13226              Ÿ  MODS -- MODIFY processing routine.                                 Ÿ
                                   13227              Ÿ                                                                     Ÿ
                                   13228              Ÿ    On entry:                                                        Ÿ
                                   13229              Ÿ      R1,R0 - input line location, length                            Ÿ
                                   13230              Ÿ                                                                     Ÿ
                                   13231              Ÿ    On exit, R15 (and cc):                                           Ÿ
                                   13232              Ÿ      0,4 - ok                                                       Ÿ
                                   13233              Ÿ      8,... - error                                                  Ÿ
                                   13234              Ÿ                                                                     Ÿ
                                                      ¾þþþþþþþþþþþþþþþþþþþþþþþþþþþþþþþþþþþþþþþþþþþþþþþþþþþþþþþþþþþþþþþþþþþþþ»
00013B0 50E0 D000/9008_      00000 13235              MODS     PROC
 USING  *,R7
 USING  METWA,R6                   13274                       WITH  (METWA,R6)
                                   13287
 0013CA 94FD 633E/D701_0033E       13288                       CLEAR METFPFX,METNUM,METFWORD
                                   13305
 0013D8 1200/47D0 71FC             13306                       WHILE (R0,POS),BEGIN      Go through chars...
 0013DE 1841                       13322  1                      LR    R4,R1
 0013E0 1B22                       13323  1                      CLEAR R2                  (for trt)
 0013E2 5830 724E            01618 13327  1                      L     R3,=A(MCHAR)
 0013E6 18F0                       13328  1                      LR    R15,R0
 0013E8 06F0/44F0 72DE_            13329  1                      DEX   R15,'TRT @R1(0),@R3'   Find a modify char
 0013EE 4780 71FC            015C6 13348  1                      IF    Z,EXIT              Nothing (all blanks)
 0013F2 1B41/1A04                  13362  1                      GEN   'SR R4,R1; AR R0,R4'  Adjust len
 0013F6 48F0 633C/12FF_      0033C 13365  1                      IF    ('LTH R15,METNUM',Z),'STM R0,R1,METPTRS'
 001404 4110 1001            00001 13387  1                      LA    R1,@R1+1
 001408 0600                       13388  1                      DECR  R0
 00140A 5920 7252/4770_      0161C 13390  1                      IF     (R2,EQ,C'B'),'ACALL B; BNZ MODSEXIT'
 00141C 7056/47F0 7068_0141C 01410 13417  1                      ELSEIF (R2,EQ,C'C'),'ACALL C; BNZ MODSEXIT'
 001432 706C/47F0 707E_01432 01426 13453  1                      ELSEIF (R2,EQ,C'D'),'ACALL D; BNZ MODSEXIT'
 001448 7082/47F0 7094_01448 0143C 13489  1                      ELSEIF (R2,EQ,C'E'),'ACALL E; BNZ MODSEXIT'
 00145E 7098/47F0 70AA_0145E 01452 13525  1                      ELSEIF (R2,EQ,C'G'),'ACALL G; BNZ MODSEXIT'
 001474 70AE/47F0 70C0_01474 01468 13561  1                      ELSEIF (R2,EQ,C'I'),'ACALL I; BNZ MODSEXIT'
 00148A 70C4/47F0 70D6_0148A 0147E 13597  1                      ELSEIF (R2,EQ,C'L'),'ACALL L; BNZ MODSEXIT'
 0014A0 70DA/47F0 70EC_014A0 01494 13633  1                      ELSEIF (R2,EQ,C'N'),'ACALL N; BNZ MODSEXIT'
 0014B6 70F0/47F0 7102_014B6 014AA 13669  1                      ELSEIF (R2,EQ,C'P'),'ACALL P; BNZ MODSEXIT'
 0014CC 7106/47F0 7118_014CC 014C0 13705  1                      ELSEIF (R2,EQ,C'R'),'ACALL R; BNZ MODSEXIT'
 0014E2 711C/47F0 712E_014E2 014D6 13741  1                      ELSEIF (R2,EQ,C'S'),'ACALL S; BNZ MODSEXIT'
 0014F8 7132/47F0 7144_014F8 014EC 13777  1                      ELSEIF (R2,EQ,C'T'),'ACALL T; BNZ MODSEXIT'
 00150E 7148/47F0 715A_0150E 01502 13813  1                      ELSEIF (R2,EQ,C'X'),'ACALL X; BNZ MODSEXIT'
 001524 715E/47F0 7170_01524 01518 13849  1                      ELSEIF (R2,EQ,C'?'),'ACALL HELPLMOD; BNZ MODSEXIT'
                                   13885  1                      COMMENT , NOTE ALL FUNCTION CALLS EXIT
 00153A 7174/47F0 7186_0153A 0152E 13886  1                      ELSEIF (R2,EQ,X'4B'),'ACALL FUNCTION; B MODSEXIT'
 001550 718A/47F0 719C_01550 01544 13922  1                      ELSEIF (R2,EQ,C'*'),'ACALL REMAINDR; BNZ MODSEXIT'
 001566 71A0/47F0 71B2_01566 0155A 13958  1                      ELSEIF (R2,EQ,C'W'),'ACALL WORD; BNZ MODSEXIT'
                                   13994  1         C            ELSEIF ((R2,GE,C'0'),AND,(R2,LE,C'9')),
 00157C 71B6/47F0 71D0_0157C 01570        1                            'ACALL DIGIT; BNZ MODSEXIT'
 00159A 71D4/71D4/47F0_0159A 01586 14046  1                      ELSE  'ACALL BADCHAR; LA R15,RERROR; B MODSEXIT'
                                   14070  1
                                   14071  1                      COMMENT                   IF NOT NUM PREFIX, CLEAR PREFIX
 0015AC 9102 633E/4710_0033E       14072  1                      IF    ~METFPFX,'CLEAR METNUM,METFWORD '
1LINE     (LINE2193) (12:47) (15MAR04) MODIFY/EDIT line Modification Routine                                                Page   27
0Current Usings:  (METWA,R6) (*,R7) (CP,R11) (CV,R12)
0Loc    Object Code    Addr1 Addr2  Stmt Lv Lineno    Source Statement           (Hibal 5, Asmedit 3.3)  HLASM R4.0  2004/03/15 12.47
+___    ______ ____    _____ _____  ____ __ ______    ______ _________
00015BE 94FD 633E      0033E       14104  1                      CLEAR METFPFX
 0015C2 47F0 700E            013D8 14111                       END
                                   14116
 0015C6 1BFF                       14117                       CLEAR R15                 A-ok
 0015C8 18D8/9808 D004_            14121              MODSEXIT PEND
 DROP   METWA,R6
 DROP   *,R7
                                   14147
                                   14148                       QLTORG
1LINE     (LINE2193) (12:47) (15MAR04) MODIFY/EDIT line Modification Routine                                                Page   28
0Current Usings:  (CP,R11) (CV,R12)
0Loc    Object Code    Addr1 Addr2  Stmt Lv Lineno    Source Statement           (Hibal 5, Asmedit 3.3)  HLASM R4.0  2004/03/15 12.47
+___    ______ ____    _____ _____  ____ __ ______    ______ _________
0                                  14204              ¿þþþþþþþþþþþþþþþþþþþþþþþþþþþþþþþþþþþþþþþþþþþþþþþþþþþþþþþþþþþþþþþþþþþþþÜ
                                   14205              Ÿ                                                                     Ÿ
                                   14206              Ÿ        MCHAR macro to make building MODIFY char stop table a        Ÿ
                                   14207              Ÿ          little easier.                                             Ÿ
                                   14208              Ÿ                                                                     Ÿ
                                                      ¾þþþþþþþþþþþþþþþþþþþþþþþþþþþþþþþþþþþþþþþþþþþþþþþþþþþþþþþþþþþþþþþþþþþþþ»
0                                  14209                       MACRO
                                   14210                       MCHAR &CH
                                   14211                       ORG   MCHAR+C'&CH'
                                   14212                       DC    C'&CH'
                                   14213                       AIF   ('&CH' LT 'A' OR '&CH' GT 'Z').EXIT
                                   14214                       ORG   MCHAR+C'&CH'-X'40'  Lower case
                                   14215                       DC    C'&CH'
                                   14216              .EXIT    MEND
                                   14217              ¿þþþþþþþþþþþþþþþþþþþþþþþþþþþþþþþþþþþþþþþþþþþþþþþþþþþþþþþþþþþþþþþþþþþþþÜ
                                   14218              Ÿ                                                                     Ÿ
                                   14219              Ÿ        MODIFY character TRT table.                                  Ÿ
                                   14220              Ÿ                                                                     Ÿ
                                                      ¾þþþþþþþþþþþþþþþþþþþþþþþþþþþþþþþþþþþþþþþþþþþþþþþþþþþþþþþþþþþþþþþþþþþþþ»
00016AE FFFFFFFFFFFFFFFF           14221              MCHAR    DC    256X'FF'          MCHAR TRT table
                                   14222
 0017AE                017AE 016EE 14223                       ORG   MCHAR+C' '
 0016EE 00                         14224                       DC    X'00'               Skip blanks
 0016EF D3/D3          016EF 01781 14225                       MCHAR L                   List
 001742 D5/D5          01742 01783 14230                       MCHAR N                   Nolist
 001744 C5/C5          01744 01773 14235                       MCHAR E                   Edits
 001734 E7/E7          01734 01795 14240                       MCHAR X                   Expel (multi-delete)
 001756 C4/C4          01756 01772 14245                       MCHAR D                   Delete
 001733 C7/C7          01733 01775 14250                       MCHAR G                   Get
 001736 D9/D9          01736 01787 14255                       MCHAR R                   Replace
 001748 C9/C9          01748 01777 14260                       MCHAR I                   Insert
 001738 D7/D7          01738 01785 14265                       MCHAR P                   Put
 001746 C2/C2          01746 01770 14270                       MCHAR B                   Blank
 001731 C3/C3          01731 01771 14275                       MCHAR C                   Case change
 001732 E3/E3          01732 01791 14280                       MCHAR T                   Tab
 001752 E2/E2          01752 01790 14285                       MCHAR S                   Split
 001751 6F             01751 0171D 14290                       MCHAR ?                   Help
 00171E 4B             0171E 016F9 14293                       MCHAR .                   Line oriented function
 0016FA 5C             016FA 0170A 14296                       MCHAR *                   (acts as digit spec)
 00170B E6/E6          0170B 01794 14299                       MCHAR W                   Word (acts as implicit digit spec)
 001755 F0             01755 0179E 14304                       MCHAR 0                   Numerics
 00179F F1             0179F 0179F 14307                       MCHAR 1
 0017A0 F2             017A0 017A0 14310                       MCHAR 2
 0017A1 F3             017A1 017A1 14313                       MCHAR 3
 0017A2 F4             017A2 017A2 14316                       MCHAR 4
 0017A3 F5             017A3 017A3 14319                       MCHAR 5
 0017A4 F6             017A4 017A4 14322                       MCHAR 6
 0017A5 F7             017A5 017A5 14325                       MCHAR 7
 0017A6 F8             017A6 017A6 14328                       MCHAR 8
 0017A7 F9             017A7 017A7 14331                       MCHAR 9
 0017A8                017A8 017AE 14334                       ORG
1LINE     (LINE2193) (12:47) (15MAR04) MODIFY/EDIT line Modification Routine                                                Page   29
0Current Usings:  (CP,R11) (CV,R12)
0Loc    Object Code    Addr1 Addr2  Stmt Lv Lineno    Source Statement           (Hibal 5, Asmedit 3.3)  HLASM R4.0  2004/03/15 12.47
+___    ______ ____    _____ _____  ____ __ ______    ______ _________
0                                  14336              ¿þþþþþþþþþþþþþþþþþþþþþþþþþþþþþþþþþþþþþþþþþþþþþþþþþþþþþþþþþþþþþþþþþþþþþÜ
                                   14337              Ÿ                                                                     Ÿ
                                   14338              Ÿ  DIGIT -- Process numeric characters.                               Ÿ
                                   14339              Ÿ                                                                     Ÿ
                                   14340              Ÿ    On entry:                                                        Ÿ
                                   14341              Ÿ      R1,R0 - remaining text location, length                        Ÿ
                                   14342              Ÿ                                                                     Ÿ
                                   14343              Ÿ    On exit, R15 (and cc):                                           Ÿ
                                   14344              Ÿ      0 - OK;    R1,R0 - updated remaining ptrs                      Ÿ
                                   14345              Ÿ      RERROR - error                                                 Ÿ
                                   14346              Ÿ                                                                     Ÿ
                                                      ¾þþþþþþþþþþþþþþþþþþþþþþþþþþþþþþþþþþþþþþþþþþþþþþþþþþþþþþþþþþþþþþþþþþþþþ»
00017AE 50E0 D000/9028_      00000 14347              DIGIT    PROC  (R2,LSR)
 USING  *,R7
 USING  METWA,R6                   14386                       WITH  (METWA,R6)
                                   14399
 0017C8 9602 633E      0033E       14400                       SET   METFPFX             Numeric prefix
 0017CC 1200/4720 7014_            14406                       IF    (R0,NP),'ACALL DIGERR; B DIGEXIT'
 0017DC 1831                       14430                       LR    R3,R1
 0017DE 1820                       14431                       LR    R2,R0
 0017E0 0610                       14432                       DECR  R1                  First digit
 0017E2 4100 0001            00001 14434                       LA    R0,1                No. of digits
 0017E6 95F0 3000/4750_00000       14435              DIGLOOP  IF    ((@R3,GE,'0'),AND,(@R3,LE,'9')),BEGIN
 0017F6 5A00 C4D0            004D0 14467  1                      A     R0,CVONE
 0017FA 4130 3001            00001 14468  1                      LA    R3,@R3+1            Next digit
 0017FE 4620 701E            017E6 14469  1                      BCT   R2,DIGLOOP
 001802 58E0 7A68/0DEE       02230 14470  1                      ACALL DIGERR
 001808 47F0 70A8            01870 14474  1                      B     DIGEXIT
 00180C                            14475                       END
 00180C 9540 3000/4770_00000       14479                       IF    (@R3,EQ,' '),'ACALL DIGERR; B DIGEXIT'
                                   14505
 00181E 58E0 7A6C/0DEE       02234 14506                       VCALL DTB
 001824 12FF/4720 707C             14510                       IF    (R15,NP),BEGIN
 00182A 4110 7A50/4100_      02218 14524  1                      TSEG  'Number must be positive.',,CR
 00183C 41F0 0008            00008 14542  1                      LA    R15,RERROR          Error
 001840 47F0 70A8            01870 14543  1                      B     DIGEXIT
 001844                            14544                       END
 001844 59F0 7A74/47D0_      0223C 14548                       IF    (R15,GT,&LINESZ),BEGIN
 00184C 4110 7ABC/4100_      02284 14565  1                      TSEG  'Number is too big.',,CR
 00185E 41F0 0008            00008 14583  1                      LA    R15,RERROR          Error
 001862 47F0 70A8            01870 14584  1                      B     DIGEXIT
 001866                            14585                       END
                                   14589
 001866 40F0 633C            0033C 14590                       STH   R15,METNUM
 00186A 1813                       14591                       LR    R1,R3
 00186C 1802                       14592                       LR    R0,R2
 00186E 1BFF                       14593                       CLEAR R15                 A-ok
                                   14597
 001870 18D8/9828 D004_            14598              DIGEXIT  PEND  ,
 DROP   METWA,R6
 DROP   *,R7
1LINE     (LINE2193) (12:47) (15MAR04) MODIFY/EDIT line Modification Routine                                                Page   30
0Current Usings:  (CP,R11) (CV,R12)
0Loc    Object Code    Addr1 Addr2  Stmt Lv Lineno    Source Statement           (Hibal 5, Asmedit 3.3)  HLASM R4.0  2004/03/15 12.47
+___    ______ ____    _____ _____  ____ __ ______    ______ _________
0                                  14625              ¿þþþþþþþþþþþþþþþþþþþþþþþþþþþþþþþþþþþþþþþþþþþþþþþþþþþþþþþþþþþþþþþþþþþþþÜ
                                   14626              Ÿ                                                                     Ÿ
                                   14627              Ÿ  REMAINDR -- Process "*" (remainder) character.                     Ÿ
                                   14628              Ÿ                                                                     Ÿ
                                   14629              Ÿ    On entry:                                                        Ÿ
                                   14630              Ÿ      R1,R0 - remaining text location, length                        Ÿ
                                   14631              Ÿ                                                                     Ÿ
                                   14632              Ÿ    On exit, R15 (and cc):                                           Ÿ
                                   14633              Ÿ      0 - OK;    R1,R0 - updated remaining ptrs                      Ÿ
                                   14634              Ÿ      RERROR - error                                                 Ÿ
                                   14635              Ÿ                                                                     Ÿ
                                                      ¾þþþþþþþþþþþþþþþþþþþþþþþþþþþþþþþþþþþþþþþþþþþþþþþþþþþþþþþþþþþþþþþþþþþþþ»
000187E 50E0 D000/9028_      00000 14636              REMAINDR PROC  (R2,LSR)
 USING  *,R7
 USING  METWA,R6                   14675                       WITH  (METWA,R6)
                                   14688
 001898 12FF/4780 7010_            14689                       IF    (R15,NZ),'ACALL BADNUM; B REMERR'
                                   14713
 0018A8 1200/4720 7020_            14714                       IF    (R0,NP),'ACALL DIGERR; B REMERR'
                                   14738
 0018B8 9602 633E      0033E       14739                       SET   METFPFX             Numeric prefix
 0018BC 5840 632C            0032C 14745                       L     R4,METPRMPT
 0018C0 1BFF                       14746                       CLEAR R15                 Assume +0
 0018C2 954E 1000/4780_00000       14750                       IF    ((@R1,EQ,'+'),OR,(@R1,EQ,'-')),BEGIN
 0018D2 1831                       14781  1                      LR    R3,R1
 0018D4 4110 1001            00001 14782  1           REMLOOP    LA    R1,@R1+1
 0018D8 4600 704E            018E6 14783  1                      BCT   R0,REMNEXT
 0018DC 58E0 7998/0DEE       02230 14784  1                      ACALL DIGERR
 0018E2 47F0 7176            01A0E 14788  1                      B     REMERR
                                   14789  1
 0018E6 95F0 1000/4750_00000       14790  1           REMNEXT    IF    ((@R1,GE,'0'),AND,(@R1,LE,'9')),BEGIN
 0018F6 4320 1000            00000 14822  2                        IC    R2,@R1
 0018FA 5420 79AC            02244 14823  2                        N     R2,=A(X'F')
 0018FE 4CF0 79FE            02296 14824  2                        MH    R15,=Y(10)
 001902 1AF2                       14825  2                        AR    R15,R2
 001904 47F0 703C            018D4 14826  2                        B     REMLOOP
 001908                            14827  1                      END
                                   14831  1
 001908 9560 3000/4770_00000       14832  1                      IF    (@R3,EQ,'-'),'LCR R15,R15'
 001912                            14854                       END
                                   14858
 001912 95D7 1000/4780_00000       14859                       IF    ((@R1,EQ,'P'),OR,(@R1,EQ,'p')),BEGIN
 001922 12FF/4780 70A6             14890  1                      IF    (R15,NZ),BEGIN      Can't have "*+NP" OR "*-NP"
 001928 4110 7A5C/4100_      022F4 14904  2                        TSEG  '*+N or *-N invalid with "P"',,CR
 00193A 47F0 7176            01A0E 14922  2                        B     REMERR              Down the tubes, fella
 00193E                            14923  1                      END
                                   14927  1
 00193E 41F0 00EB            000EB 14928  1                      LA    R15,&LINESZ         Plop it all out here
 001942 40F0 633C            0033C 14929  1                      STH   R15,METNUM          Save value
 001946 1BFF                       14930  1                      CLEAR R15                 A-ok
 001948 47F0 717A            01A12 14934  1                      B     REMEXIT
 00194C                            14935                       END
                                   14939
1LINE     (LINE2193) (12:47) (15MAR04) MODIFY/EDIT line Modification Routine                                                Page   31
0Current Usings:  (METWA,R6) (*,R7) (CP,R11) (CV,R12)
0Loc    Object Code    Addr1 Addr2  Stmt Lv Lineno    Source Statement           (Hibal 5, Asmedit 3.3)  HLASM R4.0  2004/03/15 12.47
+___    ______ ____    _____ _____  ____ __ ______    ______ _________
000194C 4AF0 6128            00128 14940                       AH    R15,METLEN
 001950 47B0 70D2            0196A 14941                       IF    NEG,BEGIN
 001954 4110 7980/4100_      02218 14952  1                      TSEG  'Number must be positive.',,CR
 001966 47F0 7176            01A0E 14970  1                      B     REMERR
 00196A                            14971                       END
 00196A 59F0 79A4/47D0_      0223C 14975                       IF    (R15,GT,&LINESZ),BEGIN
 001972 4110 79EC/4100_      02284 14992  1                      TSEG  'Number is too big.',,CR
 001984 47F0 7176            01A0E 15010  1                      B     REMERR
 001988                            15011                       END
 001988 95E3 1000/4780_00000       15015                       IF    ((@R1,EQ,'T'),OR,(@R1,EQ,'t')),BEGIN
 001998 41F0 F001            00001 15046  1                      LA    R15,@R15+1          Position to ending column
 00199C 40F0 633C            0033C 15047  1                      STH   R15,METNUM
 0019A0 1BFF                       15048  1                      CLEAR R15
 0019A2 47F0 717A            01A12 15052  1                      B     REMEXIT
 0019A6                            15053                       END
                                   15057
 0019A6 1AF4                       15058                       AR    R15,R4
 0019A8 5BF0 6338            00338 15059                       S     R15,METPTRS+4       Remaining line len
 0019AC 4720 7120/4140_      019B8 15060                       IF    ~POS,'LA R4,@R4+1; ST R4,METPRMPT'  nothing left
 0019B8 7124/47F0 713C 019B8 019AE 15078                       ELSE  BEGIN
 0019BC 95D9 1000/4780_00000       15089  1                      IF    ((@R1,EQ,'R'),OR,(@R1,EQ,'r')),'LA R15,&LINESZ'
 0019D0 40F0 633C            0033C 15126  1                      STH   R15,METNUM
 0019D4                            15127                       END
 0019D4 9540 1000/4770_00000       15131                       IF    (@R1,EQ,' '),'ACALL DIGERR; B REMERR'
                                   15157            C          IF    ((@R1,EQ,'*'),OR,((@R1,GE,'0'),AND,
 0019E6 955C 1000/4780_00000                                         (@R1,LE,'9'))),'ACALL DIGERR; B REMERR'
                                   15213
 001A08 1BFF                       15214                       CLEAR R15                 OK
 001A0A 47F0 717A            01A12 15218                       B     REMEXIT
                                   15219
 001A0E                            15220              REMERR   LABEL ,
 001A0E 41F0 0008            00008 15222                       LA    R15,RERROR          Error
 001A12 18D8/9828 D004_            15223              REMEXIT  PEND
 DROP   METWA,R6
 DROP   *,R7
1LINE     (LINE2193) (12:47) (15MAR04) MODIFY/EDIT line Modification Routine                                                Page   32
0Current Usings:  (CP,R11) (CV,R12)
0Loc    Object Code    Addr1 Addr2  Stmt Lv Lineno    Source Statement           (Hibal 5, Asmedit 3.3)  HLASM R4.0  2004/03/15 12.47
+___    ______ ____    _____ _____  ____ __ ______    ______ _________
0                                  15250              ¿þþþþþþþþþþþþþþþþþþþþþþþþþþþþþþþþþþþþþþþþþþþþþþþþþþþþþþþþþþþþþþþþþþþþþÜ
                                   15251              Ÿ                                                                     Ÿ
                                   15252              Ÿ  WORD -- Implicit digit specification generated by words.           Ÿ
                                   15253              Ÿ                                                                     Ÿ
                                   15254              Ÿ    On entry:                                                        Ÿ
                                   15255              Ÿ      R1,R0 - remaining text location, length                        Ÿ
                                   15256              Ÿ                                                                     Ÿ
                                   15257              Ÿ    On exit, R15 (and cc):                                           Ÿ
                                   15258              Ÿ      0 - OK;    R1,R0 - updated remaining ptrs                      Ÿ
                                   15259              Ÿ      RERROR - error                                                 Ÿ
                                   15260              Ÿ                                                                     Ÿ
                                                      ¾þþþþþþþþþþþþþþþþþþþþþþþþþþþþþþþþþþþþþþþþþþþþþþþþþþþþþþþþþþþþþþþþþþþþþ»
0001A20 50E0 D000/9028_      00000 15261              WORD     PROC  (R2,LSR)
 USING  *,R7
 USING  METWA,R6                   15300                       WITH  (METWA,R6)
                                   15313
 001A3A 12FF/4770 700A_            15314                       IF    (R15,Z),'LA R15,1'        Default to one word
 001A44 9602 633E      0033E       15334                       SET   METFPFX             Set numeric prefix
 001A48 9601 633E      0033E       15340                       SET   METFWORD            Set word mode
 001A4C 1200/4770 701E             15346                       IF    (R0,Z),BEGIN        Nothing left
 001A52 1BFF                       15360  1                      CLEAR R15
 001A54 47F0 70FC            01B36 15364  1                      B     WORDEXIT
 001A58                            15365                       END
 001A58 95D7 1000/4780_00000       15369                       IF    ((@R1,EQ,'P'),OR,(@R1,EQ,'p')),BEGIN
 001A68 40F0 633C            0033C 15400  1                      STH   R15,METNUM          Don't futz with a put word count
 001A6C 1BFF                       15401  1                      CLEAR R15                 OK
 001A6E 47F0 70FC            01B36 15405  1                      B     WORDEXIT
 001A72                            15406                       END
                                   15410
 001A72 182F                       15411                       LR    R2,R15              Save the word count for later
 001A74 5850 6338            00338 15412                       L     R5,METPTRS+4        Load mod-char addr
 001A78 5B50 632C            0032C 15413                       S     R5,METPRMPT         Compute mod-char offset
                                   15414                       ¿þþþþþþþþþþþþþþþþþþþþþþþþþþþþþþþþþþþþþþþþþþþÜ
                                   15415                       Ÿ  Find the beginning of the current word.  Ÿ
                                   15416                       ¾þþþþþþþþþþþþþþþþþþþþþþþþþþþþþþþþþþþþþþþþþþþ»
 001A7C 4155 612A            0012A 15417                       LA    R5,METLINE(R5)      Point to word in line
 001A80 9540 5000/4770_00000       15418                       IF    (@R5,EQ,' '),BEGIN
 001A88 4110 785E/4100_      02298 15434  1                      TSEG  'Word term positioned under a blank',,CR
 001A9A 47F0 70F8            01B32 15452  1                      B     WORDERR
 001A9E                            15453                       END
 001A9E 1B44                       15457                       CLEAR R4                  Clear starting point adjustment
 001AA0 4130 6129            00129 15461                       LA    R3,METLINE-1        Point to start of line - 1
 001AA4 1953/47D0 7082_            15462                       WHILE ((R5,GT,R3),AND,(@R5,NE,' ')),'DECR R5; INCR R4'
 001ABC 5E50 780E            02248 15505                       INCR  R5                  Move up to 1st character in word
 001AC0 0640                       15508                       DECR  R4                  Re-adjust starting point adjustment
 001AC2 1244/4780 70A2             15510                       IF    (R4,NZ),BEGIN       Fake out where we found "W" stuff
 001AC8 5830 6334            00334 15524  1                      L     R3,METPTRS          Load old length
 001ACC 1A34                       15525  1                      AR    R3,R4               Back up
 001ACE 5030 6334            00334 15526  1                      ST    R3,METPTRS          Update line length
 001AD2 5830 6338            00338 15527  1                      L     R3,METPTRS+4        Load old start
 001AD6 1B34                       15528  1                      SR    R3,R4               Back up
 001AD8 5030 6338            00338 15529  1                      ST    R3,METPTRS+4        Update line start
 001ADC                            15530                       END
1LINE     (LINE2193) (12:47) (15MAR04) MODIFY/EDIT line Modification Routine                                                Page   33
0Current Usings:  (METWA,R6) (*,R7) (CP,R11) (CV,R12)
0Loc    Object Code    Addr1 Addr2  Stmt Lv Lineno    Source Statement           (Hibal 5, Asmedit 3.3)  HLASM R4.0  2004/03/15 12.47
+___    ______ ____    _____ _____  ____ __ ______    ______ _________
0                                  15534                       ¿þþþþþþþþþþþþþþþþþþþþþþþþþþþþþþþþþþþþþþþþÜ
                                   15535                       Ÿ  Skip over number of words specified.  Ÿ
                                   15536                       ¾þþþþþþþþþþþþþþþþþþþþþþþþþþþþþþþþþþþþþþþþ»
 001ADC 18F5                       15537                       LR    R15,R5              Copy word start location
 001ADE 4830 6128            00128 15538                       LH    R3,METLEN           Load line length
 001AE2 4133 612A            0012A 15539                       LA    R3,METLINE(R3)      Point to end of line
 001AE6 9540 F000/4770_00000       15540              WORDLOOP WHILE ((@R15,EQ,' '),AND,(R15,LT,R3)),'INCR R15'
 001AFC 19F3/47A0 70E8             15582                       IF    (R15,GE,R3),WORDSTOP Not enough words ...
 001B02 9540 F000/4780_00000       15600                       WHILE ((@R15,NE,' '),AND,(R15,LT,R3)),'INCR R15'
 001B18 19F3/47A0 70E8             15641                       IF    (R15,GE,R3),WORDSTOP Not enough words ...
 001B1E 4620 70AC            01AE6 15659                       BCT   R2,WORDLOOP         Skip over multiple blanks
                                   15660                       ¿þþþþþþþþþþþþþþþþþþþþþþþþþþþþþþþþþþþþþþþþþþþÜ
                                   15661                       Ÿ  Compute required skip count and return.  Ÿ
                                   15662                       ¾þþþþþþþþþþþþþþþþþþþþþþþþþþþþþþþþþþþþþþþþþþþ»
 001B22 1BF5                       15663              WORDSTOP SR    R15,R5              Compute character skip count
 001B24 5EF0 780E            02248 15664                       INCR  R15                 Also blank at end of last word
 001B28 40F0 633C            0033C 15667                       STH   R15,METNUM          Save for later
 001B2C 1BFF                       15668                       CLEAR R15                 OK
 001B2E 47F0 70FC            01B36 15672                       B     WORDEXIT
                                   15673
 001B32                            15674              WORDERR  LABEL ,
 001B32 41F0 0008            00008 15676                       LA    R15,RERROR          Error
 001B36 18D8/9828 D004_            15677              WORDEXIT PEND
 DROP   METWA,R6
 DROP   *,R7
1LINE     (LINE2193) (12:47) (15MAR04) MODIFY/EDIT line Modification Routine                                                Page   34
0Current Usings:  (CP,R11) (CV,R12)
0Loc    Object Code    Addr1 Addr2  Stmt Lv Lineno    Source Statement           (Hibal 5, Asmedit 3.3)  HLASM R4.0  2004/03/15 12.47
+___    ______ ____    _____ _____  ____ __ ______    ______ _________
0                                  15704              ¿þþþþþþþþþþþþþþþþþþþþþþþþþþþþþþþþþþþþþþþþþþþþþþþþþþþþþþþþþþþþþþþþþþþþþÜ
                                   15705              Ÿ                                                                     Ÿ
                                   15706              Ÿ  LIST -- Process L modify character.                                Ÿ
                                   15707              Ÿ                                                                     Ÿ
                                   15708              Ÿ    On entry:                                                        Ÿ
                                   15709              Ÿ      R15   - numeric prefix value (0=none)                          Ÿ
                                   15710              Ÿ      R1,R0 - remaining text location, length                        Ÿ
                                   15711              Ÿ                                                                     Ÿ
                                   15712              Ÿ    On exit, R15 (and cc):                                           Ÿ
                                   15713              Ÿ      0 - OK;    R1,R0 - updated remaining ptrs                      Ÿ
                                   15714              Ÿ      RERROR - error                                                 Ÿ
                                   15715              Ÿ                                                                     Ÿ
                                                      ¾þþþþþþþþþþþþþþþþþþþþþþþþþþþþþþþþþþþþþþþþþþþþþþþþþþþþþþþþþþþþþþþþþþþþþ»
0001B44 50E0 D000/9008_      00000 15716              L        PROC
 USING  *,R7
 USING  METWA,R6                   15755                       WITH  (METWA,R6)
                                   15768
 001B5E 12FF/4780 700C_            15769                       IF    (R15,NZ),'ACALL BADNUM'   Not expecting length spec
 001B6A 7010/47F0 7016 01B6A 01B62 15792                       ELSE  BEGIN
 001B6E 94DE BD54      00D54       15803  1                      CLEAR CPLFLG5.CPFNLST+CPFSING
 001B72 1BFF                       15814  1                      CLEAR R15                 OK
 001B74                            15818                       END
 001B74 18D8/9808 D004_            15822                       PEND
 DROP   METWA,R6
 DROP   *,R7
                                   15847              ¿þþþþþþþþþþþþþþþþþþþþþþþþþþþþþþþþþþþþþþþþþþþþþþþþþþþþþþþþþþþþþþþþþþþþþÜ
                                   15848              Ÿ                                                                     Ÿ
                                   15849              Ÿ  NOLIST -- Process N modify character.                              Ÿ
                                   15850              Ÿ                                                                     Ÿ
                                   15851              Ÿ    On entry:                                                        Ÿ
                                   15852              Ÿ      R15   - numeric prefix value (0=none)                          Ÿ
                                   15853              Ÿ      R1,R0 - remaining text location, length                        Ÿ
                                   15854              Ÿ                                                                     Ÿ
                                   15855              Ÿ    On exit, R15 (and cc):                                           Ÿ
                                   15856              Ÿ      0 - OK;    R1,R0 - updated remaining ptrs                      Ÿ
                                   15857              Ÿ      RERROR - error                                                 Ÿ
                                   15858              Ÿ                                                                     Ÿ
                                                      ¾þþþþþþþþþþþþþþþþþþþþþþþþþþþþþþþþþþþþþþþþþþþþþþþþþþþþþþþþþþþþþþþþþþþþþ»
0001B82 50E0 D000/9008_      00000 15859              N        PROC
 USING  *,R7
 USING  METWA,R6                   15898                       WITH  (METWA,R6)
                                   15911
 001B9C 12FF/4780 700C_            15912                       IF    (R15,NZ),'ACALL BADNUM'   Not expecting length spec
 001BA8 7010/47F0 7016 01BA8 01BA0 15935                       ELSE  BEGIN
 001BAC 9620 BD54      00D54       15946  1                      SET   CPLFLG5.CPFNLST
 001BB0 1BFF                       15953  1                      CLEAR R15                 OK
 001BB2                            15957                       END
 001BB2 18D8/9808 D004_            15961                       PEND
 DROP   METWA,R6
 DROP   *,R7
1LINE     (LINE2193) (12:47) (15MAR04) MODIFY/EDIT line Modification Routine                                                Page   35
0Current Usings:  (CP,R11) (CV,R12)
0Loc    Object Code    Addr1 Addr2  Stmt Lv Lineno    Source Statement           (Hibal 5, Asmedit 3.3)  HLASM R4.0  2004/03/15 12.47
+___    ______ ____    _____ _____  ____ __ ______    ______ _________
0                                  15987              ¿þþþþþþþþþþþþþþþþþþþþþþþþþþþþþþþþþþþþþþþþþþþþþþþþþþþþþþþþþþþþþþþþþþþþþÜ
                                   15988              Ÿ                                                                     Ÿ
                                   15989              Ÿ  EDIT -- Process E modify character.                                Ÿ
                                   15990              Ÿ                                                                     Ÿ
                                   15991              Ÿ    On entry:                                                        Ÿ
                                   15992              Ÿ      R15   - numeric prefix value (0=none)                          Ÿ
                                   15993              Ÿ      R1,R0 - remaining text location, length                        Ÿ
                                   15994              Ÿ                                                                     Ÿ
                                   15995              Ÿ    On exit, R15 (and cc):                                           Ÿ
                                   15996              Ÿ      0 - OK;    R1,R0 - updated remaining ptrs                      Ÿ
                                   15997              Ÿ      RERROR - error                                                 Ÿ
                                   15998              Ÿ                                                                     Ÿ
                                                      ¾þþþþþþþþþþþþþþþþþþþþþþþþþþþþþþþþþþþþþþþþþþþþþþþþþþþþþþþþþþþþþþþþþþþþþ»
0001BC0 50E0 D000/9028_      00000 15999              E        PROC  (R2,LSR)
 USING  *,R7
 USING  METWA,R6                   16038                       WITH  (METWA,R6)
                                   16051
 001BDA 12FF/4770 7008_            16052                       IF    (R15,Z),'LR R15,R0' No explicit len, use remaining
 001BE2 19F0/47D0 7010_            16072                       IF    (R15,GT,R0),'LR R15,R0'  Only use up to line end
 001BEA 12FF/4770 701C_            16093                       IF    (R15,Z),'CLEAR R15; EXIT E'
                                   16119
 001BF6 1851                       16120                       LR    R5,R1
 001BF8 5B50 632C            0032C 16121                       S     R5,METPRMPT         Offset in line
 001BFC 1845                       16122                       LR    R4,R5
 001BFE 1A4F                       16123                       AR    R4,R15              Ending pos
 001C00 4820 6128            00128 16124                       LH    R2,METLEN
                                   16125
 001C04 1942/47D0 7040             16126                       IF    (R4,GT,R2),BEGIN    Extending line...
 001C0A 4040 6128            00128 16141  1                      STH   R4,METLEN           Update line len
 001C0E 1B42                       16142  1                      SR    R4,R2
 001C10 4122 612A            0012A 16143  1                      LA    R2,METLINE(R2)
 001C14 0640/4440 774C_            16144  1                      DEX   R4,'MVC @R2(0),CVBLANKS'  pad with blanks
 001C1A                            16163                       END
                                   16167                       ¿þþþþþþþþþþþþþþþþþþþþþþþþþþþþþþþþþþþþþþþÜ
                                   16168                       Ÿ  Do character at a time replacement.  Ÿ
                                   16169                       ¾þþþþþþþþþþþþþþþþþþþþþþþþþþþþþþþþþþþþþþþ»
 001C1A 4155 612A            0012A 16170                       LA    R5,METLINE(R5)
 001C1E 12FF/47D0 707C             16171                       WHILE (R15,POS),BEGIN
 001C24 9540 1000/4780_00000       16187  1                      IF    (@R1,NE,' '),BEGIN
 001C2C 954F 1000/4770_00000       16203  2                        IF    ((@R1,EQ,'|'),AND,(@R5,NE,' ')),'MVI @R1,C" "'
 001C40 D200 5000 1000 00000 00000 16240  2                        MVC   @R5(1),@R1
 001C46                            16241  1                      END
 001C46 4150 5001            00001 16245  1                      LA    R5,@R5+1
 001C4A 4110 1001            00001 16246  1                      LA    R1,@R1+1
 001C4E 0600                       16247  1                      DECR  R0
 001C50 06F0                       16249  1                      DECR  R15
 001C52 47F0 7044            01C1E 16251                       END
                                   16256
 001C56 1BFF                       16257                       CLEAR R15                 OK
 001C58 18D8/9828 D004_            16261                       PEND
 DROP   METWA,R6
 DROP   *,R7
1LINE     (LINE2193) (12:47) (15MAR04) MODIFY/EDIT line Modification Routine                                                Page   36
0Current Usings:  (CP,R11) (CV,R12)
0Loc    Object Code    Addr1 Addr2  Stmt Lv Lineno    Source Statement           (Hibal 5, Asmedit 3.3)  HLASM R4.0  2004/03/15 12.47
+___    ______ ____    _____ _____  ____ __ ______    ______ _________
0                                  16287              ¿þþþþþþþþþþþþþþþþþþþþþþþþþþþþþþþþþþþþþþþþþþþþþþþþþþþþþþþþþþþþþþþþþþþþþÜ
                                   16288              Ÿ                                                                     Ÿ
                                   16289              Ÿ  INSERT -- Process I modify character.                              Ÿ
                                   16290              Ÿ                                                                     Ÿ
                                   16291              Ÿ    On entry:                                                        Ÿ
                                   16292              Ÿ      R15   - numeric prefix value (0=none)                          Ÿ
                                   16293              Ÿ      R1,R0 - remaining text location, length                        Ÿ
                                   16294              Ÿ                                                                     Ÿ
                                   16295              Ÿ    On exit, R15 (and cc):                                           Ÿ
                                   16296              Ÿ      0 - OK;    R1,R0 - updated remaining ptrs                      Ÿ
                                   16297              Ÿ      RERROR - error                                                 Ÿ
                                   16298              Ÿ                                                                     Ÿ
                                                      ¾þþþþþþþþþþþþþþþþþþþþþþþþþþþþþþþþþþþþþþþþþþþþþþþþþþþþþþþþþþþþþþþþþþþþþ»
0001C66 50E0 D000/9028_      00000 16299              I        PROC  (R2,LSR)
 USING  *,R7
 USING  METWA,R6                   16338                       WITH  (METWA,R6)
                                   16351
 001C80 12FF/4770 7008_            16352                       IF    (R15,Z),'LR R15,R0' No explicit len, use remaining
 001C88 12FF/4770 7014_            16372                       IF    (R15,Z),'CLEAR R15; EXIT I'
                                   16398
 001C94 5840 6338            00338 16399                       L     R4,METPTRS+4        Addr of mod char
 001C98 5B40 632C            0032C 16400                       S     R4,METPRMPT         Insertion point offset
 001C9C 4830 6128            00128 16401                       LH    R3,METLEN
 001CA0 1934/47B0 7036             16402                       IF    (R3,LT,R4),BEGIN    Insert after line end...
 001CA6 1824                       16417  1                      LR    R2,R4
 001CA8 1B23                       16418  1                      SR    R2,R3
 001CAA 4133 612A            0012A 16419  1                      LA    R3,METLINE(R3)
 001CAE 0620/4420 76AC_            16420  1                      DEX   R2,'MVC @R3(0),CVBLANKS'  pad with blanks
 001CB4 1834                       16439  1                      LR    R3,R4
 001CB6                            16440                       END
                                   16444
 001CB6 1A3F                       16445                       AR    R3,R15              New line len
 001CB8 5930 75CC/47D0_      0224C 16446                       IF    (R3,GT,L'METLINE),BEGIN  Insert will cause ovfl...
 001CC0 4B30 763A            022BA 16463  1                      SH    R3,=AL2(L'METLINE)  Amount of excess
 001CC4 1BF3/4720 7052_            16464  1                      IF    ('SR R15,R3',NP),'CLEAR R0; CLEAR R15; B IEXIT'
 001CD2 4130 01D6            001D6 16491  1                      LA    R3,L'METLINE        Set for max
 001CD6                            16492                       END
                                   16496
 001CD6 4820 6128            00128 16497                       LH    R2,METLEN
 001CDA 4030 6128            00128 16498                       STH   R3,METLEN           Save new line len
 001CDE 1B24                       16499                       SR    R2,R4               Len of text following insert
 001CE0 4144 612A            0012A 16500                       LA    R4,METLINE(R4)      Insertion addr
 001CE4 1232/47D0 7070_            16501                       IF    ('LTR R3,R2',POS),'DEX R3,"MVC @R13(0),@R4"' Save text
 001CF0 5820 632C            0032C 16538                       L     R2,METPRMPT
 001CF4 1B2F                       16539                       SR    R2,R15
 001CF6 5020 632C            0032C 16540                       ST    R2,METPRMPT         Update line "start" ptr
 001CFA 182F                       16541                       LR    R2,R15
 001CFC 1920/47D0 7084_            16542                       IF    (R2,GT,R0),'LR R2,R0'
 001D04 0620/1222/4740_            16563                       DTEX  R2,'MVC @R4(0),@R1'    Insert from modify line
 001D10 4144 2001            00001 16600                       LA    R4,@R2+1(R4)
 001D14 182F                       16601                       LR    R2,R15
 001D16 1B20/47D0 70A6             16602                       IF    ('SR R2,R0',POS),BEGIN  Fill rest with blanks...
 001D1C 0620/4420 76BE_            16615  1                      DEX   R2,'MVC @R4(0),CVBLANKS'
1LINE     (LINE2193) (12:47) (15MAR04) MODIFY/EDIT line Modification Routine                                                Page   37
0Current Usings:  (METWA,R6) (*,R7) (CP,R11) (CV,R12)
0Loc    Object Code    Addr1 Addr2  Stmt Lv Lineno    Source Statement           (Hibal 5, Asmedit 3.3)  HLASM R4.0  2004/03/15 12.47
+___    ______ ____    _____ _____  ____ __ ______    ______ _________
0001D22 4144 2001            00001 16634  1                      LA    R4,@R2+1(R4)
 001D26                            16635                       END
 001D26 1233/4740 70B0_            16639                       TEX   R3,'MVC @R4(0),@R13'   Rest of line
                                   16674
 001D30 1A1F                       16675                       AR    R1,R15              Update remaining input...
 001D32 1B0F                       16676                       SR    R0,R15              ...ptrs
                                   16677
 001D34 1BFF                       16678                       CLEAR R15                 OK
                                   16682
 001D36 18D8/9828 D004_            16683              IEXIT    PEND  ,
 DROP   METWA,R6
 DROP   *,R7
1LINE     (LINE2193) (12:47) (15MAR04) MODIFY/EDIT line Modification Routine                                                Page   38
0Current Usings:  (CP,R11) (CV,R12)
0Loc    Object Code    Addr1 Addr2  Stmt Lv Lineno    Source Statement           (Hibal 5, Asmedit 3.3)  HLASM R4.0  2004/03/15 12.47
+___    ______ ____    _____ _____  ____ __ ______    ______ _________
0                                  16710              ¿þþþþþþþþþþþþþþþþþþþþþþþþþþþþþþþþþþþþþþþþþþþþþþþþþþþþþþþþþþþþþþþþþþþþþÜ
                                   16711              Ÿ                                                                     Ÿ
                                   16712              Ÿ  PUT -- Process P modify character.                                 Ÿ
                                   16713              Ÿ                                                                     Ÿ
                                   16714              Ÿ    On entry:                                                        Ÿ
                                   16715              Ÿ      R15   - numeric prefix value (0=none)                          Ÿ
                                   16716              Ÿ      R1,R0 - remaining text location, length                        Ÿ
                                   16717              Ÿ                                                                     Ÿ
                                   16718              Ÿ    On exit, R15 (and cc):                                           Ÿ
                                   16719              Ÿ      0 - OK;    R1,R0 - updated remaining ptrs                      Ÿ
                                   16720              Ÿ      RERROR - error                                                 Ÿ
                                   16721              Ÿ                                                                     Ÿ
                                                      ¾þþþþþþþþþþþþþþþþþþþþþþþþþþþþþþþþþþþþþþþþþþþþþþþþþþþþþþþþþþþþþþþþþþþþþ»
0001D44 50E0 D000/9028_      00000 16722              P        PROC  (R2,LSR)
 USING  *,R7
 USING  METWA,R6                   16761                       WITH  (METWA,R6)
                                   16774                       ¿þþþþþþþþþþþþþþþþþþþþþþþþþþþþþþþþþþþþþþþþþþþþÜ
                                   16775                       Ÿ  Figure out implied length if none given.  Ÿ
                                   16776                       ¾þþþþþþþþþþþþþþþþþþþþþþþþþþþþþþþþþþþþþþþþþþþþ»
 001D5E 12FF/4770 702C             16777                       IF    (R15,Z),BEGIN       No length spec...
 001D64 41F0 0001            00001 16791  1                      LA    R15,1
 001D68 1200/4780 702C             16792  1                      IF    (R0,Z),EXIT
 001D6E 95D7 1000/4780_00000       16809  1           PSCAN      IF    ((@R1,EQ,'P'),OR,(@R1,EQ,'p')),BEGIN
 001D7E 41F0 F001            00001 16841  2                        LA    R15,@R15+1          No. of p-chars
 001D82 4110 1001            00001 16842  2                        LA    R1,@R1+1
 001D86 4600 7010            01D6E 16843  2                        BCT   R0,PSCAN
 001D8A                            16844  1                      END
 001D8A                            16848                       END
                                   16852
 001D8A 4840 6300            00300 16853                       LH    R4,METPUTL          Load current offset
 001D8E 5940 74F2/4750_      02250 16854                       IF    (R4,GE,METPUTMX),BEGIN
 001D96 4110 75B1/4100_      0230F 16871  1                      TSEG  'Too many PUT operations',,CR
 001DA8 41F0 0008            00008 16889  1                      LA    R15,RERROR
 001DAC 47F0 7080            01DDE 16890  1                      B     PEXIT
 001DB0                            16891                       END
                                   16895
 001DB0 4134 6304            00304 16896                       LA    R3,METPUT(R4)       Point to new entry
 USING  METPDATA,R3                16897                       WITH  (METPDATA,R3),BEGIN
 001DB4 D703 3000 3000 00000 00000 16911  1                      CLEAR METPDATA            Clear up area
 001DBA 5820 6338            00338 16918  1                      L     R2,METPTRS+4
 001DBE 5B20 632C            0032C 16919  1                      S     R2,METPRMPT         Calc offset
 001DC2 4020 3000            00000 16920  1                      STH   R2,METPOFFS         Save it
 001DC6 9101 633E/47E0_0033E       16921  1                      IF    METFWORD,'LCR R15,R15'  Flag as a word count
 001DD0 40F0 3002            00002 16942  1                      STH   R15,METPUTLN        Save length
 001DD4 4144 0004            00004 16943  1                      LA    R4,L'METPDATA(R4)   Compute next offset
 001DD8 4040 6300            00300 16944  1                      STH   R4,METPUTL          Save for next time
 DROP   METPDATA,R3                16945                       END
                                   16953
 001DDC 1BFF                       16954                       CLEAR R15                 OK
                                   16958
 001DDE                            16959              PEXIT    LABEL ,
 001DDE 18D8/9828 D004_            16961                       PEND
 DROP   METWA,R6
1LINE     (LINE2193) (12:47) (15MAR04) MODIFY/EDIT line Modification Routine                                                Page   39
0Current Usings:  (CP,R11) (CV,R12)
0Loc    Object Code    Addr1 Addr2  Stmt Lv Lineno    Source Statement           (Hibal 5, Asmedit 3.3)  HLASM R4.0  2004/03/15 12.47
+___    ______ ____    _____ _____  ____ __ ______    ______ _________
0DROP   *,R7
1LINE     (LINE2193) (12:47) (15MAR04) MODIFY/EDIT line Modification Routine                                                Page   40
0Current Usings:  (CP,R11) (CV,R12)
0Loc    Object Code    Addr1 Addr2  Stmt Lv Lineno    Source Statement           (Hibal 5, Asmedit 3.3)  HLASM R4.0  2004/03/15 12.47
+___    ______ ____    _____ _____  ____ __ ______    ______ _________
0                                  16987              ¿þþþþþþþþþþþþþþþþþþþþþþþþþþþþþþþþþþþþþþþþþþþþþþþþþþþþþþþþþþþþþþþþþþþþþÜ
                                   16988              Ÿ                                                                     Ÿ
                                   16989              Ÿ  BLANK -- Process B modify character.                               Ÿ
                                   16990              Ÿ                                                                     Ÿ
                                   16991              Ÿ    On entry:                                                        Ÿ
                                   16992              Ÿ      R15   - numeric prefix value (0=none)                          Ÿ
                                   16993              Ÿ      R1,R0 - remaining text location, length                        Ÿ
                                   16994              Ÿ                                                                     Ÿ
                                   16995              Ÿ    On exit, R15 (and cc):                                           Ÿ
                                   16996              Ÿ      0 - OK;    R1,R0 - updated remaining ptrs                      Ÿ
                                   16997              Ÿ      RERROR - error                                                 Ÿ
                                   16998              Ÿ                                                                     Ÿ
                                                      ¾þþþþþþþþþþþþþþþþþþþþþþþþþþþþþþþþþþþþþþþþþþþþþþþþþþþþþþþþþþþþþþþþþþþþþ»
0001DEC 50E0 D000/9008_      00000 16999              B        PROC
 USING  *,R7
 USING  METWA,R6                   17038                       WITH  (METWA,R6)
                                   17051
 001E06 12FF/4780 7008_            17052                       IF    (R15,NZ),'DECR R15'
 001E0E 5840 6338            00338 17073                       L     R4,METPTRS+4
 001E12 5B40 632C            0032C 17074                       S     R4,METPRMPT         Offset to text to blank
 001E16 4134 F001            00001 17075                       LA    R3,@R15+1(R4)
                                   17076
 001E1A 5930 7446/47D0_      0224C 17077                       IF    (R3,GT,L'METLINE),BEGIN  Too many chars...
 001E22 4B30 74B6            022BC 17094  1                      SH    R3,=Y(L'METLINE)
 001E26 1BF3                       17095  1                      SR    R15,R3
 001E28 47B0 702E/1B00_      01E34 17096  1                      IF    NEG,'CLEAR R0; CLEAR R15; B BEXIT'
 001E34                            17121                       END
                                   17125
 001E34 4144 612A            0012A 17126                       LA    R4,METLINE(R4)
 001E38 44F0 7544/D200_      0234A 17127                       EX    R15,'MVC @R4(0),CVBLANKS'  blank out text
                                   17143
 001E3C 1BFF                       17144                       CLEAR R15                 OK
 001E3E 18D8/9808 D004_            17148              BEXIT    PEND
 DROP   METWA,R6
 DROP   *,R7
1LINE     (LINE2193) (12:47) (15MAR04) MODIFY/EDIT line Modification Routine                                                Page   41
0Current Usings:  (CP,R11) (CV,R12)
0Loc    Object Code    Addr1 Addr2  Stmt Lv Lineno    Source Statement           (Hibal 5, Asmedit 3.3)  HLASM R4.0  2004/03/15 12.47
+___    ______ ____    _____ _____  ____ __ ______    ______ _________
0                                  17175              ¿þþþþþþþþþþþþþþþþþþþþþþþþþþþþþþþþþþþþþþþþþþþþþþþþþþþþþþþþþþþþþþþþþþþþþÜ
                                   17176              Ÿ                                                                     Ÿ
                                   17177              Ÿ  CASE -- Process C modify character.                                Ÿ
                                   17178              Ÿ                                                                     Ÿ
                                   17179              Ÿ    On entry:                                                        Ÿ
                                   17180              Ÿ      R15   - numeric prefix value (0=none)                          Ÿ
                                   17181              Ÿ      R1,R0 - remaining text location, length                        Ÿ
                                   17182              Ÿ                                                                     Ÿ
                                   17183              Ÿ    On exit, R15 (and cc):                                           Ÿ
                                   17184              Ÿ      0 - OK;    R1,R0 - updated remaining ptrs                      Ÿ
                                   17185              Ÿ      RERROR - error                                                 Ÿ
                                   17186              Ÿ                                                                     Ÿ
                                                      ¾þþþþþþþþþþþþþþþþþþþþþþþþþþþþþþþþþþþþþþþþþþþþþþþþþþþþþþþþþþþþþþþþþþþþþ»
0001E4C 50E0 D000/9008_      00000 17187              C        PROC
 USING  *,R7
 USING  METWA,R6                   17226                       WITH  (METWA,R6)
                                   17239
 001E66 12FF/4780 7008_            17240                       IF    (R15,NZ),'DECR R15'
 001E6E 5840 6338            00338 17261                       L     R4,METPTRS+4
 001E72 5B40 632C            0032C 17262                       S     R4,METPRMPT         Offset to case change text
 001E76 4134 F001            00001 17263                       LA    R3,@R15+1(R4)
                                   17264
 001E7A 5930 73E6/47D0_      0224C 17265                       IF    (R3,GT,L'METLINE),BEGIN  Too many chars...
 001E82 4B30 7456            022BC 17282  1                      SH    R3,=Y(L'METLINE)
 001E86 1BF3                       17283  1                      SR    R15,R3
 001E88 47B0 702E/1B00_      01E94 17284  1                      IF    NEG,'CLEAR R0; CLEAR R15; B CEXIT'
 001E94                            17309                       END
                                   17313
 001E94 4144 612A            0012A 17314                       LA    R4,METLINE(R4)
 001E98 5830 73EE            02254 17315                       L     R3,=A(UPLOWTBL)
 001E9C 44F0 74EA/DC00_      02350 17316                       EX    R15,'TR @R4(0),@R3'    Flip case
                                   17332
 001EA0 1BFF                       17333              CEXIT    CLEAR R15                 OK
 001EA2 18D8/9808 D004_            17338                       PEND
 DROP   METWA,R6
 DROP   *,R7
                                   17363                       ¿þþþþþþþþþþþþþþþþþþþþþþþþþþþþþþÜ
                                   17364                       Ÿ  Case flip translate table.  Ÿ
                                   17365                       ¾þþþþþþþþþþþþþþþþþþþþþþþþþþþþþþ»
 001EB0 0001020304050607           17366              UPLOWTBL DC    256AL1(*-UPLOWTBL)
 001FB0                01FB0 01F31 17367                       ORG   UPLOWTBL+C'a'       LOWER CASE
 001F31 C1C2C3C4C5C6C7C8           17368                       DC    C'ABCDEFGHI'
 001F3A                01F3A 01F41 17369                       ORG   UPLOWTBL+C'j'       LOWER CASE
 001F41 D1D2D3D4D5D6D7D8           17370                       DC    C'JKLMNOPQR'
 001F4A                01F4A 01F52 17371                       ORG   UPLOWTBL+C's'       LOWER CASE
 001F52 E2E3E4E5E6E7E8E9           17372                       DC    C'STUVWXYZ'
 001F5A                01F5A 01F71 17373                       ORG   UPLOWTBL+C'A'
 001F71 8182838485868788           17374                       DC    C'abcdefghi'        LOWER CASE
 001F7A                01F7A 01F81 17375                       ORG   UPLOWTBL+C'J'
 001F81 9192939495969798           17376                       DC    C'jklmnopqr'        LOWER CASE
 001F8A                01F8A 01F92 17377                       ORG   UPLOWTBL+C'S'
 001F92 A2A3A4A5A6A7A8A9           17378                       DC    C'stuvwxyz'         LOWER CASE
 001F9A                01F9A 01FB0 17379                       ORG
1LINE     (LINE2193) (12:47) (15MAR04) MODIFY/EDIT line Modification Routine                                                Page   42
0Current Usings:  (CP,R11) (CV,R12)
0Loc    Object Code    Addr1 Addr2  Stmt Lv Lineno    Source Statement           (Hibal 5, Asmedit 3.3)  HLASM R4.0  2004/03/15 12.47
+___    ______ ____    _____ _____  ____ __ ______    ______ _________
0                                  17381              ¿þþþþþþþþþþþþþþþþþþþþþþþþþþþþþþþþþþþþþþþþþþþþþþþþþþþþþþþþþþþþþþþþþþþþþÜ
                                   17382              Ÿ                                                                     Ÿ
                                   17383              Ÿ  TAB -- Process T modify character.                                 Ÿ
                                   17384              Ÿ                                                                     Ÿ
                                   17385              Ÿ    On entry:                                                        Ÿ
                                   17386              Ÿ      R15   - numeric prefix value (0=none)                          Ÿ
                                   17387              Ÿ      R1,R0 - remaining text location, length                        Ÿ
                                   17388              Ÿ                                                                     Ÿ
                                   17389              Ÿ    On exit, R15 (and cc):                                           Ÿ
                                   17390              Ÿ      0 - OK;    R1,R0 - updated remaining ptrs                      Ÿ
                                   17391              Ÿ      RERROR - error                                                 Ÿ
                                   17392              Ÿ                                                                     Ÿ
                                                      ¾þþþþþþþþþþþþþþþþþþþþþþþþþþþþþþþþþþþþþþþþþþþþþþþþþþþþþþþþþþþþþþþþþþþþþ»
0001FB0 50E0 D000/9008_      00000 17393              T        PROC
 USING  *,R7
 USING  METWA,R6                   17432                       WITH  (METWA,R6)
                                   17445
 001FCA 12FF/4770 7020             17446                       IF    (R15,Z),BEGIN
 001FD0 4110 72F4/4100_      022BE 17460  1                TSEG 'Missing modify char (column expected before tab char).',,CR
 001FE2 41F0 0008            00008 17478  1                      LA    R15,RERROR
 001FE6 47F0 703E            02008 17479  1                      B     TEXIT
 001FEA                            17480                       END
                                   17484
 001FEA 06F0                       17485                       DECR  R15
 001FEC 5840 6338            00338 17487                       L     R4,METPTRS+4
 001FF0 5830 632C            0032C 17488                       L     R3,METPRMPT
 001FF4 1B43                       17489                       SR    R4,R3               Current position
 001FF6 1BF4                       17490                       SR    R15,R4              Rel offset from current
 001FF8 1B3F                       17491                       SR    R3,R15              Adjust to new pos
 001FFA 1821                       17492                       LR    R2,R1
 001FFC 5B20 6338            00338 17493                       S     R2,METPTRS+4        Tab char, etc.
 002000 1A32                       17494                       AR    R3,R2               Noise
 002002 5030 632C            0032C 17495                       ST    R3,METPRMPT         Update ptr
                                   17496
 002006 1BFF                       17497                       CLEAR R15                 OK
 002008 18D8/9808 D004_            17501              TEXIT    PEND
 DROP   METWA,R6
 DROP   *,R7
1LINE     (LINE2193) (12:47) (15MAR04) MODIFY/EDIT line Modification Routine                                                Page   43
0Current Usings:  (CP,R11) (CV,R12)
0Loc    Object Code    Addr1 Addr2  Stmt Lv Lineno    Source Statement           (Hibal 5, Asmedit 3.3)  HLASM R4.0  2004/03/15 12.47
+___    ______ ____    _____ _____  ____ __ ______    ______ _________
0                                  17528              ¿þþþþþþþþþþþþþþþþþþþþþþþþþþþþþþþþþþþþþþþþþþþþþþþþþþþþþþþþþþþþþþþþþþþþþÜ
                                   17529              Ÿ                                                                     Ÿ
                                   17530              Ÿ  EXPEL -- Process X modify character.                               Ÿ
                                   17531              Ÿ                                                                     Ÿ
                                   17532              Ÿ    On entry:                                                        Ÿ
                                   17533              Ÿ      R15   - numeric prefix value (0=none)                          Ÿ
                                   17534              Ÿ      R1,R0 - remaining text location, length                        Ÿ
                                   17535              Ÿ                                                                     Ÿ
                                   17536              Ÿ    On exit, R15 (and cc):                                           Ÿ
                                   17537              Ÿ      0 - OK;    R1,R0 - updated remaining ptrs                      Ÿ
                                   17538              Ÿ      RERROR - error                                                 Ÿ
                                   17539              Ÿ                                                                     Ÿ
                                                      ¾þþþþþþþþþþþþþþþþþþþþþþþþþþþþþþþþþþþþþþþþþþþþþþþþþþþþþþþþþþþþþþþþþþþþþ»
0002016 50E0 D000/9028_      00000 17540              X        PROC  (R2,LSR)
 USING  *,R7
 USING  METWA,R6                   17579                       WITH  (METWA,R6)
                                   17592                       ¿þþþþþþþþþþþþþþþþþþþþþþþþþþþþþþþþþþþþþþþþþþþþþÜ
                                   17593                       Ÿ  Figure out how many characters to delete.  Ÿ
                                   17594                       ¾þþþþþþþþþþþþþþþþþþþþþþþþþþþþþþþþþþþþþþþþþþþþþ»
 002030 12FF/4770 7034             17595                       IF    (R15,Z),BEGIN       No length specification...
 002036 41F0 0001            00001 17609  1                      LA    R15,1
 00203A 1200/4780 7034             17610  1                      IF    (R0,Z),EXIT
                                   17627  1         C            WHILE (((@R1,EQ,'X'),OR,(@R1,EQ,'x')),AND,
 002040 95E7 1000/4780_00000              1                            (R0,POS)),BEGIN
 002056 41F0 F001            00001 17673  2                        LA    R15,@R15+1          No. of x-chars
 00205A 4110 1001            00001 17674  2                        LA    R1,@R1+1
 00205E 0600                       17675  2                        DECR  R0
 002060 47F0 7010            02040 17677  1                      END
 002064                            17682                       END
                                   17686                       ¿þþþþþþþþþþþþþþþþþþþþþþþþþþþþþþþþþþþÜ
                                   17687                       Ÿ  Check out length specification.  Ÿ
                                   17688                       ¾þþþþþþþþþþþþþþþþþþþþþþþþþþþþþþþþþþþ»
 002064 7038/47F0 708A 02064 02034 17689                       ELSE  BEGIN               Check out len specification...
 002068 182F                       17700  1                      LR    R2,R15              No. of chars to delete
 00206A 1841                       17701  1                      LR    R4,R1
 00206C 5B40 6338            00338 17702  1                      S     R4,METPTRS+4        No. of noise chars
 002070 1B24/47D0 708A             17703  1                      IF    ('SR R2,R4',NP),EXIT
 002076 1832                       17719  1                      LR    R3,R2
 002078 1841                       17720  1                      LR    R4,R1
 00207A 1200/4780 708A             17721  1                      IF    (R0,Z),EXIT
 002080 1902/47B0 7058_            17738  1                      IF    (R0,LT,R2),'LR R2,R0'
                                   17759  1
 002088 954B 4000/4780_00000       17760  1           XLP        IF    (@R4,EQ,'.'),EXIT
 002090 9540 4000/4780_00000       17780  1                      IF    (@R4,NE,' '),BEGIN  Don't accept this...
 002098 4110 7228/4100_      02258 17796  2                        TSEG  'Modify characters invalid in deletion range.',,CR
 0020AA 41F0 0008            00008 17814  2                        LA    R15,RERROR
 0020AE 47F0 70D2            02102 17815  2                        B     XEXIT
 0020B2                            17816  1                      END
 0020B2 4140 4001            00001 17820  1                      LA    R4,@R4+1            Next char
 0020B6 4620 7058            02088 17821  1                      BCT   R2,XLP
 0020BA                            17822                       END
1LINE     (LINE2193) (12:47) (15MAR04) MODIFY/EDIT line Modification Routine                                                Page   44
0Current Usings:  (METWA,R6) (*,R7) (CP,R11) (CV,R12)
0Loc    Object Code    Addr1 Addr2  Stmt Lv Lineno    Source Statement           (Hibal 5, Asmedit 3.3)  HLASM R4.0  2004/03/15 12.47
+___    ______ ____    _____ _____  ____ __ ______    ______ _________
0                                  17826                       ¿þþþþþþþþþþþþþþþþþþþþþþþþþþÜ
                                   17827                       Ÿ  Delete the characters.  Ÿ
                                   17828                       ¾þþþþþþþþþþþþþþþþþþþþþþþþþþ»
 0020BA 5840 6338            00338 17829                       L     R4,METPTRS+4
 0020BE 5820 632C            0032C 17830                       L     R2,METPRMPT
 0020C2 1B42                       17831                       SR    R4,R2               Offset for delete
 0020C4 1A2F                       17832                       AR    R2,R15
 0020C6 5020 632C            0032C 17833                       ST    R2,METPRMPT         Save adjusted line start ptr
 0020CA 4820 6128            00128 17834                       LH    R2,METLEN
 0020CE 1852                       17835                       LR    R5,R2
                                   17836                       COMMENT                   If delete starts past line end,
 0020D0 1B54/4720 70AC_            17837                       IF    ('SR R5,R4',NP),'CLEAR R15; B XEXIT'  exit
 0020DC 19F5/47D0 70B4_            17860                       IF    (R15,GT,R5),'LR R15,R5'  Only delete up to end
 0020E4 1B2F                       17881                       SR    R2,R15              Reduce line len
 0020E6 4020 6128            00128 17882                       STH   R2,METLEN           Save new line len
 0020EA 1B5F                       17883                       SR    R5,R15              Len of text after deleted stuff
 0020EC 4144 612A            0012A 17884                       LA    R4,METLINE(R4)      Start of deletion
 0020F0 4134 F000            00000 17885                       LA    R3,@R15(R4)         Text after deletion
 0020F4 1255/47D0 70D0_            17886                       TDEX  R5,'MVC @R4(0),@R3' Move text over
                                   17924
 002100 1BFF                       17925                       CLEAR R15                 OK
                                   17929
 002102 18D8/9828 D004_            17930              XEXIT    PEND
 DROP   METWA,R6
 DROP   *,R7
1LINE     (LINE2193) (12:47) (15MAR04) MODIFY/EDIT line Modification Routine                                                Page   45
0Current Usings:  (CP,R11) (CV,R12)
0Loc    Object Code    Addr1 Addr2  Stmt Lv Lineno    Source Statement           (Hibal 5, Asmedit 3.3)  HLASM R4.0  2004/03/15 12.47
+___    ______ ____    _____ _____  ____ __ ______    ______ _________
0                                  17957              ¿þþþþþþþþþþþþþþþþþþþþþþþþþþþþþþþþþþþþþþþþþþþþþþþþþþþþþþþþþþþþþþþþþþþþþÜ
                                   17958              Ÿ                                                                     Ÿ
                                   17959              Ÿ  DELETE -- Process D modify character.                              Ÿ
                                   17960              Ÿ                                                                     Ÿ
                                   17961              Ÿ    On entry:                                                        Ÿ
                                   17962              Ÿ      R15   - numeric prefix value (0=none)                          Ÿ
                                   17963              Ÿ      R1,R0 - remaining text location, length                        Ÿ
                                   17964              Ÿ                                                                     Ÿ
                                   17965              Ÿ    On exit, R15 (and cc):                                           Ÿ
                                   17966              Ÿ      0 - OK;    R1,R0 - updated remaining ptrs                      Ÿ
                                   17967              Ÿ      RERROR - error                                                 Ÿ
                                   17968              Ÿ                                                                     Ÿ
                                                      ¾þþþþþþþþþþþþþþþþþþþþþþþþþþþþþþþþþþþþþþþþþþþþþþþþþþþþþþþþþþþþþþþþþþþþþ»
0002110 50E0 D000/9028_      00000 17969              D        PROC  (R2,LSR)
 USING  *,R7
 USING  METWA,R6                   18008                       WITH  (METWA,R6)
                                   18021                       ¿þþþþþþþþþþþþþþþþþþþþþþþþþþþþþþþþþþþþþþþþþþþþþÜ
                                   18022                       Ÿ  Figure out how many characters to delete.  Ÿ
                                   18023                       ¾þþþþþþþþþþþþþþþþþþþþþþþþþþþþþþþþþþþþþþþþþþþþþ»
 00212A 12FF/4770 703C             18024                       IF    (R15,Z),BEGIN       No length specification...
 002130 41F0 0001            00001 18038  1                      LA    R15,1
 002134 1200/4780 703C             18039  1                      IF    (R0,Z),EXIT
                                   18056  1         C            WHILE (((@R1,EQ,'D'),OR,(@R1,EQ,'d'),OR,(@R1,EQ,' ')),AND,
 00213A 95C4 1000/4780_00000              1                            (R0,POS)),BEGIN
 002158 41F0 F001            00001 18115  2                        LA    R15,@R15+1          No. of d-chars
 00215C 4110 1001            00001 18116  2                        LA    R1,@R1+1
 002160 0600                       18117  2                        DECR  R0
 002162 47F0 7010            0213A 18119  1                      END
 002166                            18124                       END
                                   18128                       ¿þþþþþþþþþþþþþþþþþþþþþþþþþþþþþþþþþþþÜ
                                   18129                       Ÿ  Check out length specification.  Ÿ
                                   18130                       ¾þþþþþþþþþþþþþþþþþþþþþþþþþþþþþþþþþþþ»
 002166 7040/47F0 7092 02166 0212E 18131                       ELSE  BEGIN               Check out len specification...
 00216A 182F                       18142  1                      LR    R2,R15              No. of chars to delete
 00216C 1841                       18143  1                      LR    R4,R1
 00216E 5B40 6338            00338 18144  1                      S     R4,METPTRS+4        No. of noise chars
 002172 1B24/47D0 7092             18145  1                      IF    ('SR R2,R4',NP),EXIT
 002178 1832                       18161  1                      LR    R3,R2
 00217A 1841                       18162  1                      LR    R4,R1
 00217C 1200/4780 7092             18163  1                      IF    (R0,Z),EXIT
 002182 1902/47B0 7060_            18180  1                      IF    (R0,LT,R2),'LR R2,R0'
                                   18201  1
 00218A 954B 4000/4780_00000       18202  1           DLP        IF    (@R4,EQ,'.'),EXIT
 002192 9540 4000/4780_00000       18222  1                      IF    (@R4,NE,' '),BEGIN  Don't accept this...
 00219A 4110 712E/4100_      02258 18238  2                        TSEG  'Modify characters invalid in deletion range.',,CR
 0021AC 41F0 0008            00008 18256  2                        LA    R15,RERROR
 0021B0 47F0 70DA            02204 18257  2                        B     DEXIT
 0021B4                            18258  1                      END
 0021B4 4140 4001            00001 18262  1                      LA    R4,@R4+1            Next char
 0021B8 4620 7060            0218A 18263  1                      BCT   R2,DLP
 0021BC                            18264                       END
1LINE     (LINE2193) (12:47) (15MAR04) MODIFY/EDIT line Modification Routine                                                Page   46
0Current Usings:  (METWA,R6) (*,R7) (CP,R11) (CV,R12)
0Loc    Object Code    Addr1 Addr2  Stmt Lv Lineno    Source Statement           (Hibal 5, Asmedit 3.3)  HLASM R4.0  2004/03/15 12.47
+___    ______ ____    _____ _____  ____ __ ______    ______ _________
0                                  18268                       ¿þþþþþþþþþþþþþþþþþþþþþþþþþþÜ
                                   18269                       Ÿ  Delete the characters.  Ÿ
                                   18270                       ¾þþþþþþþþþþþþþþþþþþþþþþþþþþ»
 0021BC 5840 6338            00338 18271                       L     R4,METPTRS+4
 0021C0 5820 632C            0032C 18272                       L     R2,METPRMPT
 0021C4 1B42                       18273                       SR    R4,R2               Offset for delete
 0021C6 1A2F                       18274                       AR    R2,R15
 0021C8 5020 632C            0032C 18275                       ST    R2,METPRMPT         Save adjusted line start ptr
 0021CC 4820 6128            00128 18276                       LH    R2,METLEN
 0021D0 1852                       18277                       LR    R5,R2
                                   18278                       COMMENT                   If delete starts past line end,
 0021D2 1B54/4720 70B4_            18279                       IF    ('SR R5,R4',NP),'CLEAR R15; B DEXIT'  exit
 0021DE 19F5/47D0 70BC_            18302                       IF    (R15,GT,R5),'LR R15,R5'  Only delete up to end
 0021E6 1B2F                       18323                       SR    R2,R15              Reduce line len
 0021E8 4020 6128            00128 18324                       STH   R2,METLEN           Save new line len
 0021EC 1B5F                       18325                       SR    R5,R15              Len of text after deleted stuff
 0021EE 4144 612A            0012A 18326                       LA    R4,METLINE(R4)      Start of deletion
 0021F2 4134 F000            00000 18327                       LA    R3,@R15(R4)         Text after deletion
 0021F6 1255/47D0 70D8_            18328                       TDEX  R5,'MVC @R4(0),@R3' Move text over
                                   18366
 002202 1BFF                       18367                       CLEAR R15                 OK
                                   18371
 002204 18D8/9828 D004_            18372              DEXIT    PEND
 DROP   METWA,R6
 DROP   *,R7
                                   18398
                                   18399                       QLTORG
1LINE     (LINE2193) (12:47) (15MAR04) MODIFY/EDIT line Modification Routine                                                Page   47
0Current Usings:  (CP,R11) (CV,R12)
0Loc    Object Code    Addr1 Addr2  Stmt Lv Lineno    Source Statement           (Hibal 5, Asmedit 3.3)  HLASM R4.0  2004/03/15 12.47
+___    ______ ____    _____ _____  ____ __ ______    ______ _________
0                                  18432              ¿þþþþþþþþþþþþþþþþþþþþþþþþþþþþþþþþþþþþþþþþþþþþþþþþþþþþþþþþþþþþþþþþþþþþþÜ
                                   18433              Ÿ                                                                     Ÿ
                                   18434              Ÿ  GET -- Process G modify character.                                 Ÿ
                                   18435              Ÿ                                                                     Ÿ
                                   18436              Ÿ    On entry:                                                        Ÿ
                                   18437              Ÿ      R15   - numeric prefix value (0=none)                          Ÿ
                                   18438              Ÿ      R1,R0 - remaining text location, length                        Ÿ
                                   18439              Ÿ                                                                     Ÿ
                                   18440              Ÿ    On exit, R15 (and cc):                                           Ÿ
                                   18441              Ÿ      0 - OK;    R1,R0 - updated remaining ptrs                      Ÿ
                                   18442              Ÿ      RERROR - error                                                 Ÿ
                                   18443              Ÿ                                                                     Ÿ
                                                      ¾þþþþþþþþþþþþþþþþþþþþþþþþþþþþþþþþþþþþþþþþþþþþþþþþþþþþþþþþþþþþþþþþþþþþþ»
0002362 50E0 D000/9028_      00000 18444              G        PROC  (R2,LSR)
 USING  *,R7
 USING  METWA,R6                   18483                       WITH  (METWA,R6)
                                   18496
 00237C 12FF/4770 7030             18497                       IF    (R15,NZ),GTL        Length spec, go do checking
 002382 41F0 0001            00001 18514                       LA    R15,1
 002386 1200/4780 7082             18515                       IF    (R0,Z),GT
 00238C 95C7 1000/4780_00000       18532              GSCAN    IF    ((@R1,EQ,'G'),OR,(@R1,EQ,X'87')),BEGIN
 00239C 41F0 F001            00001 18564  1                      LA    R15,@R15+1          No. of g-chars
 0023A0 4110 1001            00001 18565  1                      LA    R1,@R1+1
 0023A4 4600 7010            0238C 18566  1                      BCT   R0,GSCAN
 0023A8                            18567                       END
 0023A8 47F0 7082            023FE 18571                       B     GT
                                   18572
 0023AC 182F                       18573              GTL      LR    R2,R15              No. of chars to get (delete)
 0023AE 1841                       18574                       LR    R4,R1
 0023B0 5B40 6338            00338 18575                       S     R4,METPTRS+4        No. of noise chars
 0023B4 1B24/47D0 7082             18576                       IF    ('SR R2,R4',~POS),GT
 0023BA 1832                       18592                       LR    R3,R2
 0023BC 1841                       18593                       LR    R4,R1
 0023BE 1200/4780 7082             18594                       IF    (R0,Z),GT
 0023C4 1902/47B0 7050_            18611                       IF    (R0,LT,R2),'LR R2,R0'
 0023CC 954B 4000/4780_00000       18632              GTLP     IF    (@R4,EQ,'.'),GT
 0023D4 9540 4000/4780_00000       18652                       IF    (@R4,NE,' '),BEGIN  Temporary... don't accept this
 0023DC 4110 7532/4100_      028AE 18668  1                      TSEG  'Modify chars invalid in GET range',,CR
 0023EE 41F0 0008            00008 18686  1                      LA    R15,RERROR
 0023F2 47F0 7124            024A0 18687  1                      B     GEXIT
 0023F6                            18688                       END
 0023F6 4140 4001            00001 18692                       LA    R4,@R4+1            Next char
 0023FA 4620 7050            023CC 18693                       BCT   R2,GTLP
                                   18694
 0023FE 4820 B868            00868 18695              GT       LH    R2,CPGETLN          Load length of getstack
 002402 1A2F                       18696                       AR    R2,R15              Add in length of new gets
 002404 5920 7480/47D0_      027FC 18697                       IF    (R2,GT,&LINESZ),BEGIN
 00240C 4110 74D8/4100_      02854 18714  1                      TSEG  'New GETs will not fit in GET stack',,CR
 00241E 41F0 0008            00008 18732  1                      LA    R15,RERROR
 002422 47F0 7124            024A0 18733  1                      B     GEXIT
 002426                            18734                       END
 002426 5840 6338            00338 18738                       L     R4,METPTRS+4
 00242A 5820 632C            0032C 18739                       L     R2,METPRMPT         Load old line start ptr
1LINE     (LINE2193) (12:47) (15MAR04) MODIFY/EDIT line Modification Routine                                                Page   48
0Current Usings:  (METWA,R6) (*,R7) (CP,R11) (CV,R12)
0Loc    Object Code    Addr1 Addr2  Stmt Lv Lineno    Source Statement           (Hibal 5, Asmedit 3.3)  HLASM R4.0  2004/03/15 12.47
+___    ______ ____    _____ _____  ____ __ ______    ______ _________
000242E 1B42                       18740                       SR    R4,R2               Offset for get
 002430 1A2F                       18741                       AR    R2,R15              Length of get
 002432 5020 632C            0032C 18742                       ST    R2,METPRMPT         Save adjusted line start ptr
                                   18743                       ¿þþþþþþþþþþþþþþþþþþþþþþþþþþþþþþþþþþþþþþþþþþþþþþþþþþþþþþþþþþþþþÜ
                                   18744                       Ÿ  Pad work line with blanks if gets extend beyound the end.  Ÿ
                                   18745                       ¾þþþþþþþþþþþþþþþþþþþþþþþþþþþþþþþþþþþþþþþþþþþþþþþþþþþþþþþþþþþþþ»
 002436 4820 6128            00128 18746                       LH    R2,METLEN           Load line length
 00243A 1852                       18747                       LR    R5,R2               Copy into new reg
 00243C 1834                       18748                       LR    R3,R4               Copy get offset
 00243E 1A3F                       18749                       AR    R3,R15              Compute end of get
 002440 1932/47D0 70DC             18750                       IF    (R3,GT,R2),BEGIN    Get beyound end of line
 002446 4030 6128            00128 18765  1                      STH   R3,METLEN           Save new length
 00244A 1B32                       18766  1                      SR    R3,R2               Compute number of pad-blanks
 00244C 1A53                       18767  1                      AR    R5,R3               Adjust length by pad
 00244E 4122 612A            0012A 18768  1                      LA    R2,METLINE(R2)      Pad blanks on end of line
 002452 0630/4430 759C_            18769  1                      DEX   R3,'MVC @R2(0),CVBLANKS'
 002458                            18788                       END
 002458 1B54                       18792                       SR    R5,R4               Length left (1st get onward)
                                   18793                       ¿þþþþþþþþþþþþþþþþþþþþþþþþþþþþþþþþþþþþþþþþþþþþþþþþþþþþþþþþþþþþþÜ
                                   18794                       Ÿ  Adjust mods line length for characters we are processing.  Ÿ
                                   18795                       ¾þþþþþþþþþþþþþþþþþþþþþþþþþþþþþþþþþþþþþþþþþþþþþþþþþþþþþþþþþþþþþ»
 00245A 4820 6128            00128 18796                       LH    R2,METLEN           Load mods len
 00245E 1B2F                       18797                       SR    R2,R15              Reduce len by mod-chars processed
 002460 4020 6128            00128 18798                       STH   R2,METLEN           Save new line len
                                   18799                       ¿þþþþþþþþþþþþþþþþþþþþþþþþþþþþþþþþþþþþþþþþþþþþþþþÜ
                                   18800                       Ÿ  Pick up the text and save it in get buffer.  Ÿ
                                   18801                       ¾þþþþþþþþþþþþþþþþþþþþþþþþþþþþþþþþþþþþþþþþþþþþþþþ»
 002464 4144 612A            0012A 18802                       LA    R4,METLINE(R4)      Start of get
 002468 4830 B868            00868 18803                       LH    R3,CPGETLN          Load current GETSTACK length
 00246C 5820 B864            00864 18804                       L     R2,CPGETSTK         Load pointer to GETSTACK
 002470 4123 2000            00000 18805                       LA    R2,0(R3,R2)         Point to end of GETSTACK
 002474 183F                       18806                       LR    R3,R15              Copy get length
 002476 1233/47D0 7106_            18807                       TDEX  R3,'MVC @R2(0),@R4' Save get text in get stack
 002482 4820 B868            00868 18845                       LH    R2,CPGETLN          Load old get text size
 002486 1A2F                       18846                       AR    R2,R15              Account for what we just got
 002488 4020 B868            00868 18847                       STH   R2,CPGETLN          Update it
                                   18848                       ¿þþþþþþþþþþþþþþþþþþþþþþþþþþþþþþþþþþþþþþþþþþþþþþþþþþÜ
                                   18849                       Ÿ  Shift over remaining text to perform deletion.  Ÿ
                                   18850                       ¾þþþþþþþþþþþþþþþþþþþþþþþþþþþþþþþþþþþþþþþþþþþþþþþþþþ»
 00248C 1B5F                       18851                       SR    R5,R15              Len of text after get stuff
 00248E 4134 F000            00000 18852                       LA    R3,@R15(R4)         Text after get
 002492 1255/47D0 7122_            18853                       TDEX  R5,'MVC @R4(0),@R3' Move text over
                                   18891
 00249E 1BFF                       18892                       CLEAR R15                 OK
                                   18896
 0024A0 18D8/9828 D004_            18897              GEXIT    PEND
 DROP   METWA,R6
 DROP   *,R7
1LINE     (LINE2193) (12:47) (15MAR04) MODIFY/EDIT line Modification Routine                                                Page   49
0Current Usings:  (CP,R11) (CV,R12)
0Loc    Object Code    Addr1 Addr2  Stmt Lv Lineno    Source Statement           (Hibal 5, Asmedit 3.3)  HLASM R4.0  2004/03/15 12.47
+___    ______ ____    _____ _____  ____ __ ______    ______ _________
0                                  18924              ¿þþþþþþþþþþþþþþþþþþþþþþþþþþþþþþþþþþþþþþþþþþþþþþþþþþþþþþþþþþþþþþþþþþþþþÜ
                                   18925              Ÿ                                                                     Ÿ
                                   18926              Ÿ  REPLACE -- Process R modify character.                             Ÿ
                                   18927              Ÿ                                                                     Ÿ
                                   18928              Ÿ    On entry:                                                        Ÿ
                                   18929              Ÿ      R15   - numeric prefix value (0=none)                          Ÿ
                                   18930              Ÿ      R1,R0 - remaining text location, length                        Ÿ
                                   18931              Ÿ                                                                     Ÿ
                                   18932              Ÿ    On exit, R15 (and cc):                                           Ÿ
                                   18933              Ÿ      0 - OK;    R1,R0 - updated remaining ptrs                      Ÿ
                                   18934              Ÿ      RERROR - error                                                 Ÿ
                                   18935              Ÿ                                                                     Ÿ
                                                      ¾þþþþþþþþþþþþþþþþþþþþþþþþþþþþþþþþþþþþþþþþþþþþþþþþþþþþþþþþþþþþþþþþþþþþþ»
00024AE 50E0 D000/9028_      00000 18936              R        PROC  (R2,LSR)
 USING  *,R7
 USING  METWA,R6                   18975                       WITH  (METWA,R6)
                                   18988
 0024C8 12FF/4770 7012             18989                       IF    (R15,Z),BEGIN       No explicit len...
 0024CE 12F0/4770 7012_            19003  1                      IF    ('LTR R15,R0',Z),'CLEAR R15; B REXIT'
 0024DA                            19026                       END
                                   19030
 0024DA 5840 6338            00338 19031                       L     R4,METPTRS+4        Addr of mod char
 0024DE 5B40 632C            0032C 19032                       S     R4,METPRMPT         Replacement point offset
 0024E2 4830 6128            00128 19033                       LH    R3,METLEN
 0024E6 1934/47B0 7032             19034                       IF    (R3,LT,R4),BEGIN    Replace after line end...
 0024EC 1824                       19049  1                      LR    R2,R4
 0024EE 1B23                       19050  1                      SR    R2,R3
 0024F0 4133 612A            0012A 19051  1                      LA    R3,METLINE(R3)
 0024F4 0620/4420 7462_            19052  1                      DEX   R2,'MVC @R3(0),CVBLANKS'  Pad with blanks
 0024FA                            19071                       END
 0024FA 413F 4000            00000 19075                       LA    R3,@R4(R15)
 0024FE 5930 7338/47D0_      02800 19076                       IF    (R3,GT,L'METLINE),BEGIN  Too much...
 002506 4B30 73AE            02876 19093  1                      SH    R3,=Y(L'METLINE)    Amount of excess
 00250A 1BF3/4720 7050_            19094  1                      IF    ('SR R15,R3',~POS),'CLEAR R0; CLEAR R15; B REXIT'
 002518 4130 01D6            001D6 19121  1                      LA    R3,L'METLINE        Set for max
 00251C                            19122                       END
 00251C 4930 6128/47D0_      00128 19126                       IF    (R3,GT,METLEN),'STH R3,METLEN'  Line is extended
 002528 4144 612A            0012A 19149                       LA    R4,METLINE(R4)      Start replacement here
 00252C 182F                       19150                       LR    R2,R15
 00252E 19F0/47D0 706E_            19151                       IF    (R15,GT,R0),'LR R2,R0'
 002536 0620/1222/4740_            19172                       DTEX  R2,'MVC @R4(0),@R1'    Replacement from modify line
 002542 4144 2001            00001 19209                       LA    R4,@R2+1(R4)
 002546 182F                       19210                       LR    R2,R15
 002548 1B20/47D0 708C_            19211                       IF    ('SR R2,R0',POS),'DEX R2,"MVC @R4(0),CVBLANKS"' fill
 002554 1A1F                       19248                       AR    R1,R15
 002556 1B0F                       19249                       SR    R0,R15
                                   19250
 002558 1BFF                       19251                       CLEAR R15                 OK
                                   19255
 00255A 18D8/9828 D004_            19256              REXIT    PEND
 DROP   METWA,R6
 DROP   *,R7
1LINE     (LINE2193) (12:47) (15MAR04) MODIFY/EDIT line Modification Routine                                                Page   50
0Current Usings:  (CP,R11) (CV,R12)
0Loc    Object Code    Addr1 Addr2  Stmt Lv Lineno    Source Statement           (Hibal 5, Asmedit 3.3)  HLASM R4.0  2004/03/15 12.47
+___    ______ ____    _____ _____  ____ __ ______    ______ _________
0                                  19283              ¿þþþþþþþþþþþþþþþþþþþþþþþþþþþþþþþþþþþþþþþþþþþþþþþþþþþþþþþþþþþþþþþþþþþþþÜ
                                   19284              Ÿ                                                                     Ÿ
                                   19285              Ÿ  SPLIT -- Process S modify character.                               Ÿ
                                   19286              Ÿ                                                                     Ÿ
                                   19287              Ÿ    On entry:                                                        Ÿ
                                   19288              Ÿ      R15   - numeric prefix value (0=none)                          Ÿ
                                   19289              Ÿ      R1,R0 - remaining text location, length                        Ÿ
                                   19290              Ÿ                                                                     Ÿ
                                   19291              Ÿ    On exit, R15 (and cc):                                           Ÿ
                                   19292              Ÿ      0 - OK;    R1,R0 - updated remaining ptrs                      Ÿ
                                   19293              Ÿ      RERROR - error                                                 Ÿ
                                   19294              Ÿ                                                                     Ÿ
                                                      ¾þþþþþþþþþþþþþþþþþþþþþþþþþþþþþþþþþþþþþþþþþþþþþþþþþþþþþþþþþþþþþþþþþþþþþ»
0002568 50E0 D000/9008_      00000 19295              S        PROC
 USING  *,R7
 USING  METWA,R6                   19334                       WITH  (METWA,R6)
                                   19347
                                   19348                       COMMENT                   Number prefix is error
 002582 12FF/4780 7010_            19349                       IF    (R15,NZ),'ACALL BADNUM; B SEXIT'
                                   19373
 002592 9180 BC78/47E0_00C78       19374                       IF    CPFCMDMD,BEGIN      Cmd retry...
 00259A 4110 734D/4100_      028CF 19389  1                      TSEG  'Split not valid in command retry.',,CR
 0025AC 41F0 0008            00008 19407  1                      LA    R15,RERROR
 0025B0 47F0 7082            02604 19408  1                      B     SEXIT
 0025B4                            19409                       END
                                   19413
                                   19414                       COMMENT                   Get new split work area
 0025B4 D501 72F6 6342_02878 00342 19415                       IF    (METNSPLT,GT,16),BEGIN
 0025BE 4110 7286/4100_      02808 19433  1                      TSEG  'Too many line splits specified (>16)',,CR
 0025D0 41F0 0008            00008 19451  1                      LA    R15,RERROR
 0025D4 47F0 7082            02604 19452  1                      B     SEXIT
 0025D8                            19453                       END
 0025D8 4840 6342            00342 19457                       LH    R4,METNSPLT
 0025DC 4C40 72F8            0287A 19458                       MH    R4,=AL2(L'METSPLIT)
 0025E0 4144 6346            00346 19459                       LA    R4,METSAREA(R4)
 USING  METSPLIT,R4                19460                       WITH  (METSPLIT,R4),BEGIN
 0025E4 D703 4000 4000 00000 00000 19474  1                      CLEAR METSPLIT            Tidy up
 0025EA 58F0 6338            00338 19481  1                      L     R15,METPTRS+4
 0025EE 5BF0 632C            0032C 19482  1                      S     R15,METPRMPT        Calc offset
 0025F2 40F0 4000            00000 19483  1                      STH   R15,METSOFFS        Save it
 DROP   METSPLIT,R4                19484                       END
 0025F6 4120 0001/4A20_      00001 19492                       INCR  R2,METNSPLT
                                   19498
 002602 1BFF                       19499                       CLEAR R15                 OK
 002604 18D8/9808 D004_            19503              SEXIT    PEND
 DROP   METWA,R6
 DROP   *,R7
1LINE     (LINE2193) (12:47) (15MAR04) MODIFY/EDIT line Modification Routine                                                Page   51
0Current Usings:  (CP,R11) (CV,R12)
0Loc    Object Code    Addr1 Addr2  Stmt Lv Lineno    Source Statement           (Hibal 5, Asmedit 3.3)  HLASM R4.0  2004/03/15 12.47
+___    ______ ____    _____ _____  ____ __ ______    ______ _________
0                                  19530                       ¿þþþþþþþþþþþþÜ
                                   19531                       Ÿ  ? (help)  Ÿ
                                   19532                       ¾þþþþþþþþþþþþ»
 002612 50E0 D000/9008_      00000 19533              HELPLMOD PROC
 USING  *,R7
 USING  METWA,R6                   19572                       WITH  (METWA,R6)
                                   19585
                                   19586                       COMMENT                   Number prefix is error
 00262C 12FF/4780 7010_            19587                       IF    (R15,NZ),'ACALL BADNUM; B HEXIT'
                                   19611
 00263C 94DE BD54      00D54       19612                       CLEAR CPLFLG5.CPFNLST+CPFSING  Reset single & nolist
                                   19623                       ¿þþþþþþþþþþþþþþþþþþþþþþþþþþþþþþþþþþÜ
                                   19624                       Ÿ  Command retry version of help.  Ÿ
                                   19625                       ¾þþþþþþþþþþþþþþþþþþþþþþþþþþþþþþþþþþ»
 002640 9180 BC78/47E0_00C78       19626                       IF    CPFCMDMD,BEGIN      Command Retry...
 002648 4110 7250/4100_      0287C 19641  1                      TSEG  '(You are in Command Retry -- press BREAK to exit.)'
 00265A 4110 72C4/4100_      028F0 19659  1                      TSEG  X'15',,WR
 00266C D607 B886 B886_00886 00886 19677  1                      IF    (CPERRID,NZ),BEGIN  Give help on current...
 002676 D207 B88E B886 0088E 00886 19693  2                        MVC   CPOERRID,CPERRID    Make current previous
 00267C D707 B886 B886 00886 00886 19694  2                        CLEAR CPERRID             Zot current
 002682 9620 BD5A      00D5A       19701  2                        SET   CPFRETRY            Force retry
 002686 4110 72C5            028F1 19707  2                        LA    R1,=C'?  '
 00268A D202 BD24 1000 00D24 00000 19708  2                        MVC   CPCMNM,@R1
 002690 4100 0001            00001 19709  2                        SETMSG @R1,1
 002694 58E0 7208/0DEE       02834 19724  2                        VCALL HELP                Go give help (no return)
 00269A                            19728  1                      END
 00269A                            19732                       END
                                   19736                       ¿þþþþþþþþþþþþþþþþþþþþþþþþþþþþþþþþÜ
                                   19737                       Ÿ  Modify/Edit version of help.  Ÿ
                                   19738                       ¾þþþþþþþþþþþþþþþþþþþþþþþþþþþþþþþþ»
 00269A 7072/47F0 70A2 0269A 02646 19739                       ELSE  BEGIN               Modify or Edit...
 00269E 5820 720C            02838 19750  1                      L     R2,=A(HELPEDIT)     Edit help
 0026A2 9120 633E/47E0_0033E       19751  1                      IF    METFMOD,'L R2,=A(HELPMOD)'  Modify help
 0026AE 95FF 2000/4780_00000       19772  1                      WHILE (@R2,NE,X'FF'),BEGIN
 0026B6 1812/4100 0050_            19790  2                        TSEG  @R2,HELPMSGL,CR
 0026C6 4120 2050            00050 19820  2                        LA    R2,@R2+HELPMSGL
 0026CA 47F0 7082            026AE 19821  1                      END
 0026CE                            19826                       END
                                   19830
 0026CE 1BFF                       19831                       CLEAR R15                 OK
                                   19835
 0026D0 18D8/9808 D004_            19836              HEXIT    PEND
 DROP   METWA,R6
 DROP   *,R7
1LINE     (LINE2193) (12:47) (15MAR04) MODIFY/EDIT line Modification Routine                                                Page   52
0Current Usings:  (CP,R11) (CV,R12)
0Loc    Object Code    Addr1 Addr2  Stmt Lv Lineno    Source Statement           (Hibal 5, Asmedit 3.3)  HLASM R4.0  2004/03/15 12.47
+___    ______ ____    _____ _____  ____ __ ______    ______ _________
0                                  19863              ¿þþþþþþþþþþþþþþþþþþþþþþþþþþþþþþþþþþþþþþþþþþþþþþþþþþþþþþþþþþþþþþþþþþþþþÜ
                                   19864              Ÿ                                                                     Ÿ
                                   19865              Ÿ  BADNUM -- Number given when none allowed.                          Ÿ
                                   19866              Ÿ                                                                     Ÿ
                                                      ¾þþþþþþþþþþþþþþþþþþþþþþþþþþþþþþþþþþþþþþþþþþþþþþþþþþþþþþþþþþþþþþþþþþþþþ»
00026DE 50E0 D000/9008_      00000 19867              DIGERR   PROC
 USING  *,R7
 USING  METWA,R6                   19906                       WITH  (METWA,R6)
                                   19919
 0026F8 4110 7148/4100_      02840 19920                       TSEG  'Missing modify char.',,CR
 00270A 9620 BD54      00D54       19938                       SET   CPLFLG5.CPFNLST
 00270E 94BF 633E      0033E       19945                       CLEAR METFINS             Reset flag
                                   19952
 002712 41F0 0008            00008 19953                       LA    R15,RERROR          Set bad return code
 002716 18D8/9808 D004_            19954                       PEND
 DROP   METWA,R6
 DROP   *,R7
1LINE     (LINE2193) (12:47) (15MAR04) MODIFY/EDIT line Modification Routine                                                Page   53
0Current Usings:  (CP,R11) (CV,R12)
0Loc    Object Code    Addr1 Addr2  Stmt Lv Lineno    Source Statement           (Hibal 5, Asmedit 3.3)  HLASM R4.0  2004/03/15 12.47
+___    ______ ____    _____ _____  ____ __ ______    ______ _________
0                                  19980              ¿þþþþþþþþþþþþþþþþþþþþþþþþþþþþþþþþþþþþþþþþþþþþþþþþþþþþþþþþþþþþþþþþþþþþþÜ
                                   19981              Ÿ                                                                     Ÿ
                                   19982              Ÿ  BADNUM -- Number given when none allowed.                          Ÿ
                                   19983              Ÿ                                                                     Ÿ
                                                      ¾þþþþþþþþþþþþþþþþþþþþþþþþþþþþþþþþþþþþþþþþþþþþþþþþþþþþþþþþþþþþþþþþþþþþþ»
0002724 50E0 D000/9008_      00000 19984              BADNUM   PROC
 USING  *,R7
 USING  METWA,R6                   20023                       WITH  (METWA,R6)
                                   20036
 00273E 0610                       20037                       DECR  R1
 002740 4100 0001/41F0_      00001 20039                       TSEG  (R1),1              Modify char
 00274E 4110 71B6/4100_      028F4 20066                       TSEG  ': Invalid with length specification',,CR
 002760 9620 BD54      00D54       20084                       SET   CPLFLG5.CPFNLST
 002764 94BF 633E      0033E       20091                       CLEAR METFINS             Reset flag
                                   20098
 002768 41F0 0008            00008 20099                       LA    R15,RERROR          Set bad return code
 00276C 18D8/9808 D004_            20100                       PEND
 DROP   METWA,R6
 DROP   *,R7
                                   20125              ¿þþþþþþþþþþþþþþþþþþþþþþþþþþþþþþþþþþþþþþþþþþþþþþþþþþþþþþþþþþþþþþþþþþþþþÜ
                                   20126              Ÿ                                                                     Ÿ
                                   20127              Ÿ  BADCHAR -- invalid edit/modify char                                Ÿ
                                   20128              Ÿ                                                                     Ÿ
                                   20129              Ÿ                                                                     Ÿ
                                                      ¾þþþþþþþþþþþþþþþþþþþþþþþþþþþþþþþþþþþþþþþþþþþþþþþþþþþþþþþþþþþþþþþþþþþþþ»
000277A 50E0 D000/9008_      00000 20130              BADCHAR  PROC
 USING  *,R7
 USING  METWA,R6                   20169                       WITH  (METWA,R6)
                                   20182
 002794 0610                       20183                       DECR  R1,
 002796 4100 0001/41F0_      00001 20185                       TSEG  (R1),1
 0027A4 4110 703C/4100_      027D0 20212                       TSEG  ': invalid modify character. Retype line.',,CR
 0027B6 9620 BD54      00D54       20230                       SET   CPLFLG5.CPFNLST
 0027BA 94BF 633E      0033E       20237                       CLEAR METFINS             Reset flag
                                   20244
 0027BE 41F0 0008            00008 20245                       LA    R15,RERROR          Set bad return code
 0027C2 18D8/9808 D004_            20246                       PEND
 DROP   METWA,R6
 DROP   *,R7
                                   20271
                                   20272                       QLTORG
1LINE     (LINE2193) (12:47) (15MAR04) MODIFY/EDIT line Modification Routine                                                Page   54
0Current Usings:  (CP,R11) (CV,R12)
0Loc    Object Code    Addr1 Addr2  Stmt Lv Lineno    Source Statement           (Hibal 5, Asmedit 3.3)  HLASM R4.0  2004/03/15 12.47
+___    ______ ____    _____ _____  ____ __ ______    ______ _________
0                                  20307              ¿þþþþþþþþþþþþþþþþþþþþþþþþþþþþþþþþþþþþþþþþþþþþþþþþþþþþþþþþþþþþþþþþþþþþþÜ
                                   20308              Ÿ                                                                     Ÿ
                                   20309              Ÿ  FUNCTION -- Routine to process the line oriented function          Ÿ
                                   20310              Ÿ    passed to it.                                                    Ÿ
                                   20311              Ÿ                                                                     Ÿ
                                   20312              Ÿ      On entry:                                                      Ÿ
                                   20313              Ÿ        R15   - numeric prefix value (zero = none specified)         Ÿ
                                   20314              Ÿ        R1,R0 - line location, length                                Ÿ
                                   20315              Ÿ                                                                     Ÿ
                                   20316              Ÿ      On exit, R15 (and cc):                                         Ÿ
                                   20317              Ÿ        0 - ok                                                       Ÿ
                                   20318              Ÿ        RERROR - error                                               Ÿ
                                   20319              Ÿ                                                                     Ÿ
                                                      ¾þþþþþþþþþþþþþþþþþþþþþþþþþþþþþþþþþþþþþþþþþþþþþþþþþþþþþþþþþþþþþþþþþþþþþ»
000293C 50E0 D000/9008_      00000 20320              FUNCTION PROC
 USING  *,R7
 USING  METWA,R6                   20359                       WITH  (METWA,R6)
                                   20372
 002956 12FF/4780 700E_            20373                       IF    (R15,NZ),'LA R15,4; EXIT FUNCTION'  Don't allow num
                                   20396
 002964 58E0 B08C/501E_      0008C 20397                       SCINIT (R1),(R0)
 002972 5810 B08C/1B00_      0008C 20417                       SCAN  FUNCPRT             Scan/process function
 0029C4 12FF/47B0 7078             20449                       IF    (R15,NEG),BEGIN     Scanning error...
                                   20463  1           *        TSEG  (R1),(R0)
                                   20464  1           *        TSEG  ': invalid',,CR
 0029CA 41F0 0008            00008 20465  1                      LA    R15,RERROR
 0029CE                            20466                       END
                                   20470
 0029CE 59F0 77C2/4770_      03118 20471                       IF    (R15,EQ,RNORMAL2),'CLEAR R15' CLEAR R15 IF NOT ERR
                                   20497
 0029D8 18D8/9808 D004_            20498                       PEND
 DROP   METWA,R6
 DROP   *,R7
                                   20523                       ¿þþþþþþþþþþþþþþþþþþþþþþþþþþþþÜ
                                   20524                       Ÿ  Line oriented functions.  Ÿ
                                   20525                       ¾þþþþþþþþþþþþþþþþþþþþþþþþþþþþ»
 0029E8 4040404040404040_          20526              FUNCPRT  SCKW  ,FUNCNULL,NULL
 002A10 E2E3D6D740404040_          20541                       SCKW  STOP,FSTOP,A
 002A38 E3C5D9D4C9D5C1E3_          20556                       SCKW  TERMINATE,FSTOP,A
 002A60 E2D2C9D740404040_          20571                       SCKW  SKIP,FSKIP,A
 002A88 D9C5E5C5D9E34040_          20586                       SCKW  REVERT,FREVERT,A
 002AB0 D4D6C4C9C6E84040_          20601                       SCKW  MODIFY,FMODIFY,A1
 002AD8 C5C4C9E340404040_          20616                       SCKW  EDIT,FEDIT,A1
 002B00 D9C5D7D3C1C3C540_          20631                       SCKW  REPLACE,FREPLACE,A1
 002B28 C4C5D3C5E3C54040_          20646                       SCKW  DELETE,FDELETE,A1
 002B50 C9D5E2C5D9E34040_          20661                       SCKW  INSERT,FINSERT,A1
 002B78 C3D6D3D3C5C3E340_          20676                       SCKW  COLLECT,FCOLLECT,A1
 002BA0 D1D6C9D540404040_          20691                       SCKW  JOIN,FJOIN,A1
 002BC8 D7D9C5E5C9D6E4E2_          20706                       SCKW  PREVIOUS,FPRNX,A
 002BF0 D5C5E7E340404040_          20721                       SCKW  NEXT,FPRNX,A
 002C18 D3C9D5C540404040_          20736                       SCKW  LINE,FLINE,A
 002C40 4040404040404040_          20751                       SCKW  ,BADFUNC
1LINE     (LINE2193) (12:47) (15MAR04) MODIFY/EDIT line Modification Routine                                                Page   55
0Current Usings:  (CP,R11) (CV,R12)
0Loc    Object Code    Addr1 Addr2  Stmt Lv Lineno    Source Statement           (Hibal 5, Asmedit 3.3)  HLASM R4.0  2004/03/15 12.47
+___    ______ ____    _____ _____  ____ __ ______    ______ _________
0                                  20767              ¿þþþþþþþþþþþþþþþþþþþþþþþþþþþþþþþþþþþþþþþþþþþþþþþþþþþþþþþþþþþþþþþþþþþþþÜ
                                   20768              Ÿ                                                                     Ÿ
                                   20769              Ÿ  FSTOP -- .STOP Sub-command.                                        Ÿ
                                   20770              Ÿ                                                                     Ÿ
                                   20771              Ÿ    On exit:  R15 = 4 (stop scanning return code)                    Ÿ
                                   20772              Ÿ                                                                     Ÿ
                                                      ¾þþþþþþþþþþþþþþþþþþþþþþþþþþþþþþþþþþþþþþþþþþþþþþþþþþþþþþþþþþþþþþþþþþþþþ»
0002C68 50E0 D000/9008_      00000 20773              FSTOP    PROC  ,
 USING  *,R7
 USING  METWA,R6                   20812                       WITH  (METWA,R6)
 002C82 9610 633E      0033E       20825                       SET   METFSTOP
 002C86 9801 6004            00004 20831                       LM    R0,R1,METOLPTR
 002C8A 41F0 0010            00010 20832                       LA    R15,RLINRET         RETURN TO LINRET
 002C8E 18D8/9808 D004_            20833                       PEND
 DROP   METWA,R6
 DROP   *,R7
                                   20858              ¿þþþþþþþþþþþþþþþþþþþþþþþþþþþþþþþþþþþþþþþþþþþþþþþþþþþþþþþþþþþþþþþþþþþþþÜ
                                   20859              Ÿ                                                                     Ÿ
                                   20860              Ÿ  FSKIP -- .SKIP Sub-command.                                        Ÿ
                                   20861              Ÿ                                                                     Ÿ
                                   20862              Ÿ    On exit:  R15 = 4 (stop scanning return code)                    Ÿ
                                   20863              Ÿ                                                                     Ÿ
                                                      ¾þþþþþþþþþþþþþþþþþþþþþþþþþþþþþþþþþþþþþþþþþþþþþþþþþþþþþþþþþþþþþþþþþþþþþ»
0002C9C 50E0 D000/9008_      00000 20864              FSKIP    PROC
 USING  *,R7
 USING  METWA,R6                   20903                       WITH  (METWA,R6)
 002CB6 9801 6004            00004 20916                       LM    R0,R1,METOLPTR
 002CBA 41F0 0010            00010 20917                       LA    R15,RLINRET         RETURN TO LINRET
 002CBE 18D8/9808 D004_            20918                       PEND
 DROP   METWA,R6
 DROP   *,R7
                                   20943              ¿þþþþþþþþþþþþþþþþþþþþþþþþþþþþþþþþþþþþþþþþþþþþþþþþþþþþþþþþþþþþþþþþþþþþþÜ
                                   20944              Ÿ                                                                     Ÿ
                                   20945              Ÿ  FMODIFY -- .MODIFY Sub-command.                                    Ÿ
                                   20946              Ÿ                                                                     Ÿ
                                   20947              Ÿ    On exit:  R15 = 4 (stop scanning return code)                    Ÿ
                                   20948              Ÿ                                                                     Ÿ
                                                      ¾þþþþþþþþþþþþþþþþþþþþþþþþþþþþþþþþþþþþþþþþþþþþþþþþþþþþþþþþþþþþþþþþþþþþþ»
0002CCC 50E0 D000/9008_      00000 20949              FMODIFY  PROC
 USING  *,R7
 USING  METWA,R6                   20988                       WITH  (METWA,R6)
 002CE6 9620 633E      0033E       21001                       SET   METFMOD             Set MODIFY mode
 002CEA 94FE BD54      00D54       21007                       CLEAR CPLFLG5.CPFSING
 002CEE 41F0 0004            00004 21015                       LA    R15,RNORMAL2
 002CF2 18D8/9808 D004_            21016                       PEND
 DROP   METWA,R6
 DROP   *,R7
                                   21041              ¿þþþþþþþþþþþþþþþþþþþþþþþþþþþþþþþþþþþþþþþþþþþþþþþþþþþþþþþþþþþþþþþþþþþþþÜ
                                   21042              Ÿ                                                                     Ÿ
                                   21043              Ÿ  FEDIT -- .EDIT Sub-command.                                        Ÿ
                                   21044              Ÿ                                                                     Ÿ
1LINE     (LINE2193) (12:47) (15MAR04) MODIFY/EDIT line Modification Routine                                                Page   56
0Current Usings:  (CP,R11) (CV,R12)
0Loc    Object Code    Addr1 Addr2  Stmt Lv Lineno    Source Statement           (Hibal 5, Asmedit 3.3)  HLASM R4.0  2004/03/15 12.47
+___    ______ ____    _____ _____  ____ __ ______    ______ _________
0                                  21045              Ÿ    On exit:  R15 = 4 (stop scanning return code)                    Ÿ
                                   21046              Ÿ                                                                     Ÿ
                                                      ¾þþþþþþþþþþþþþþþþþþþþþþþþþþþþþþþþþþþþþþþþþþþþþþþþþþþþþþþþþþþþþþþþþþþþþ»
0002D00 50E0 D000/9008_      00000 21047              FEDIT    PROC
 USING  *,R7
 USING  METWA,R6                   21086                       WITH  (METWA,R6)
                                   21099
 002D1A 94DF 633E      0033E       21100                       CLEAR METFMOD             Reset MODIFY mode for EDIT
 002D1E 94FE BD54      00D54       21107                       CLEAR CPLFLG5.CPFSING
 002D22 41F0 0004            00004 21115                       LA    R15,RNORMAL2
 002D26 18D8/9808 D004_            21116                       PEND
 DROP   METWA,R6
 DROP   *,R7
1LINE     (LINE2193) (12:47) (15MAR04) MODIFY/EDIT line Modification Routine                                                Page   57
0Current Usings:  (CP,R11) (CV,R12)
0Loc    Object Code    Addr1 Addr2  Stmt Lv Lineno    Source Statement           (Hibal 5, Asmedit 3.3)  HLASM R4.0  2004/03/15 12.47
+___    ______ ____    _____ _____  ____ __ ______    ______ _________
0                                  21142              ¿þþþþþþþþþþþþþþþþþþþþþþþþþþþþþþþþþþþþþþþþþþþþþþþþþþþþþþþþþþþþþþþþþþþþþÜ
                                   21143              Ÿ                                                                     Ÿ
                                   21144              Ÿ  FREVERT -- .REVERT Sub-command.                                    Ÿ
                                   21145              Ÿ                                                                     Ÿ
                                   21146              Ÿ    On exit:  R15 = 4 (stop scanning return code)                    Ÿ
                                   21147              Ÿ                                                                     Ÿ
                                                      ¾þþþþþþþþþþþþþþþþþþþþþþþþþþþþþþþþþþþþþþþþþþþþþþþþþþþþþþþþþþþþþþþþþþþþþ»
0002D34 50E0 D000/9008_      00000 21148              FREVERT  PROC  ,
 USING  *,R7
 USING  METWA,R6                   21187                       WITH  (METWA,R6)
                                   21200
 002D4E 9180 BC78/4710_00C78       21201                       IF    CPFCMDMD,FREVNL     Can't do locate if cmd retry
 002D56 4110 600C            0000C 21219                       LA    R1,METLINE#
 002D5A 58E0 73CE/0DEE       0311C 21220                       VCALL LOCATE
 002D60 9108 BD84/47E0_00D84       21224                       IF    CPDRPT.CPFMTCH,BEGIN  Use line in file, if it exists...
 002D68 4110 612A            0012A 21240  1                      LA    R1,METLINE
 002D6C 58E0 73D2/0DEE       03120 21241  1                      VCALL UNPRESS
 002D72 4000 6128            00128 21245  1                      STH   R0,METLEN
 002D76                            21246                       END
 002D76 702C/47F0 7040 02D76 02D66 21250                       ELSE  BEGIN               Otherwise, use line on entry...
 002D7A 9801 6004            00004 21261  1           FREVNL     LM    R0,R1,METOLPTR      Original line
 002D7E 4000 6128            00128 21262  1                      STH   R0,METLEN
 002D82 12F0/47D0 7040_            21263  1                      IF    ('LTR R15,R0',POS),'DEX R15,"MVC METLINE(0),@R1"'
 002D8E                            21300                       END
 002D8E D703 6010 6010 00010 00010 21304                       CLEAR METNLINE            Undo any joins
 002D94 94DF BD54/94EF_00D54       21311                       CLEAR CPLFLG5.CPFNLST,METFSTOP
                                   21324
 002D9C 41F0 0004            00004 21325                       LA    R15,RNORMAL2
 002DA0 18D8/9808 D004_            21326                       PEND
 DROP   METWA,R6
 DROP   *,R7
1LINE     (LINE2193) (12:47) (15MAR04) MODIFY/EDIT line Modification Routine                                                Page   58
0Current Usings:  (CP,R11) (CV,R12)
0Loc    Object Code    Addr1 Addr2  Stmt Lv Lineno    Source Statement           (Hibal 5, Asmedit 3.3)  HLASM R4.0  2004/03/15 12.47
+___    ______ ____    _____ _____  ____ __ ______    ______ _________
0                                  21352              ¿þþþþþþþþþþþþþþþþþþþþþþþþþþþþþþþþþþþþþþþþþþþþþþþþþþþþþþþþþþþþþþþþþþþþþÜ
                                   21353              Ÿ                                                                     Ÿ
                                   21354              Ÿ  FREPLACE -- .REPLACE Sub-command.                                  Ÿ
                                   21355              Ÿ                                                                     Ÿ
                                   21356              Ÿ    On exit:  R15 = 4 (stop scanning return code)                    Ÿ
                                   21357              Ÿ                                                                     Ÿ
                                                      ¾þþþþþþþþþþþþþþþþþþþþþþþþþþþþþþþþþþþþþþþþþþþþþþþþþþþþþþþþþþþþþþþþþþþþþ»
0002DAE 50E0 D000/9008_      00000 21358              FREPLACE PROC
 USING  *,R7
 USING  METWA,R6                   21397                       WITH  (METWA,R6)
                                   21410
 002DC8 5800 600C            0000C 21411                       L     R0,METLINE#         Lineno
 002DCC 58E0 735C/0DEE       03124 21412                       ACALL LINERD              Get input
 002DD2 47D0 7018            02DE0 21416                       IF    POS,BEGIN           Ended by attn only
 002DD6 1B00                       21427  1                      CLEAR R0
 002DD8 41F0 0008            00008 21431  1                      LA    R15,RERROR
 002DDC 47F0 7060            02E28 21432  1                      B     FREPEXIT
 002DE0                            21433                       END
 002DE0 47B0 702A/1200_      02DF2 21437                       IF    (NEG,AND,(R0,Z)),BEGIN    Ended by just @ATTN
 002DEA 41F0 0004            00004 21461  1                      LA    R15,RNORMAL2
 002DEE 47F0 7060            02E28 21462  1                      B     FREPEXIT
 002DF2                            21463                       END
 002DF2 D203 6330 7360 00330 03128 21467                       MVC   METFCOL(4),=Y(0,&LINESZ)  Reset columns
 002DF8 D2EA 612A 1000 0012A 00000 21468                       MVC   METLINE(&LINESZ),@R1
 002DFE 4110 612A            0012A 21469                       LA    R1,METLINE
 002E02 122F/4770 704A_            21470                       IF    ('LTR R2,R15',Z),'L R15,METLINE#; VCALL LENCHKM'
 002E12 4000 6128            00128 21493                       STH   R0,METLEN
 002E16 1222/47B0 705C             21494                       IF    (R2,NEG),BEGIN
 002E1C 41F0 0004            00004 21508  1                      LA    R15,RNORMAL2
 002E20 47F0 7060            02E28 21509  1                      B     FREPEXIT
 002E24                            21510                       END
                                   21514
 002E24 41F0 000C            0000C 21515                       LA    R15,RLINDONE
                                   21516
 002E28 18D8/9808 D004_            21517              FREPEXIT PEND
 DROP   METWA,R6
 DROP   *,R7
1LINE     (LINE2193) (12:47) (15MAR04) MODIFY/EDIT line Modification Routine                                                Page   59
0Current Usings:  (CP,R11) (CV,R12)
0Loc    Object Code    Addr1 Addr2  Stmt Lv Lineno    Source Statement           (Hibal 5, Asmedit 3.3)  HLASM R4.0  2004/03/15 12.47
+___    ______ ____    _____ _____  ____ __ ______    ______ _________
0                                  21544              ¿þþþþþþþþþþþþþþþþþþþþþþþþþþþþþþþþþþþþþþþþþþþþþþþþþþþþþþþþþþþþþþþþþþþþþÜ
                                   21545              Ÿ                                                                     Ÿ
                                   21546              Ÿ  FDELETE -- .DELETE Sub-command.                                    Ÿ
                                   21547              Ÿ                                                                     Ÿ
                                   21548              Ÿ    On exit:  R15 = 4 (stop scanning return code)                    Ÿ
                                   21549              Ÿ                                                                     Ÿ
                                                      ¾þþþþþþþþþþþþþþþþþþþþþþþþþþþþþþþþþþþþþþþþþþþþþþþþþþþþþþþþþþþþþþþþþþþþþ»
0002E36 50E0 D000/9008_      00000 21550              FDELETE  PROC
 USING  *,R7
 USING  METWA,R6                   21589                       WITH  (METWA,R6)
                                   21602
 002E50 9180 BC78/47E0_00C78       21603                       IF    CPFCMDMD,'ACALL BADFUNC; B FDELEXIT'  Can't
                                   21628
 002E62 5800 600C            0000C 21629                       L     R0,METLINE#
 002E66 1810                       21630                       LR    R1,R0
 002E68 58E0 72E4/0DEE       03134 21631                       VCALL DELRANGE            Delete line
 002E6E 4800 733E            0318E 21635                       LH    R0,=H'-1'           Line len is -1
 002E72 41F0 0014            00014 21636                       LA    R15,RLINRETD        Go to LINRETDJ
 002E76 18D8/9808 D004_            21637              FDELEXIT PEND  ,
 DROP   METWA,R6
 DROP   *,R7
1LINE     (LINE2193) (12:47) (15MAR04) MODIFY/EDIT line Modification Routine                                                Page   60
0Current Usings:  (CP,R11) (CV,R12)
0Loc    Object Code    Addr1 Addr2  Stmt Lv Lineno    Source Statement           (Hibal 5, Asmedit 3.3)  HLASM R4.0  2004/03/15 12.47
+___    ______ ____    _____ _____  ____ __ ______    ______ _________
0                                  21664              ¿þþþþþþþþþþþþþþþþþþþþþþþþþþþþþþþþþþþþþþþþþþþþþþþþþþþþþþþþþþþþþþþþþþþþþÜ
                                   21665              Ÿ                                                                     Ÿ
                                   21666              Ÿ  FINSERT -- .INSERT Sub-command.                                    Ÿ
                                   21667              Ÿ                                                                     Ÿ
                                   21668              Ÿ    On exit:  R15 = 4 (stop scanning return code)                    Ÿ
                                   21669              Ÿ                                                                     Ÿ
                                                      ¾þþþþþþþþþþþþþþþþþþþþþþþþþþþþþþþþþþþþþþþþþþþþþþþþþþþþþþþþþþþþþþþþþþþþþ»
0002E84 50E0 D000/9008_      00000 21670              FINSERT  PROC
 USING  *,R7
 USING  METWA,R6                   21709                       WITH  (METWA,R6)
                                   21722
 002E9E 9640 633E      0033E       21723                       SET   METFINS             Only "collect" one line
 002EA2 58E0 729A/0DEE       03138 21729                       ACALL FCOLLECT
 002EA8 18D8/9808 D004_            21733                       PEND
 DROP   METWA,R6
 DROP   *,R7
                                   21758              ¿þþþþþþþþþþþþþþþþþþþþþþþþþþþþþþþþþþþþþþþþþþþþþþþþþþþþþþþþþþþþþþþþþþþþþÜ
                                   21759              Ÿ                                                                     Ÿ
                                   21760              Ÿ  FCOLLECT -- .COLLECT Sub-command.                                  Ÿ
                                   21761              Ÿ                                                                     Ÿ
                                   21762              Ÿ    On exit:  R15 = 4 (stop scanning return code)                    Ÿ
                                   21763              Ÿ                                                                     Ÿ
                                                      ¾þþþþþþþþþþþþþþþþþþþþþþþþþþþþþþþþþþþþþþþþþþþþþþþþþþþþþþþþþþþþþþþþþþþþþ»
0002EB6 50E0 D000/9008_      00000 21764              FCOLLECT PROC
 USING  *,R7
 USING  METWA,R6                   21803                       WITH  (METWA,R6)
                                   21816
 002ED0 9180 BC78/47E0_00C78       21817                       IF    CPFCMDMD,'ACALL BADFUNC; B FCOLEXIT'  Cmd retry
                                   21842
 002EE2 5820 600C            0000C 21843                       L     R2,METLINE#         Original lineno
 002EE6 5020 601C            0001C 21844                       ST    R2,METCFLIN         Save (for later)
 002EEA 5810 BC74/1211_      00C74 21845                       IF    ('LT R1,CPMODNEX',Z),BEGIN
 002EF4 1812                       21861  1                      LR    R1,R2
 002EF6 5A10 C4D0            004D0 21862  1                      A     R1,CVONE
 002EFA 5010 B73C            0073C 21863  1                      ST    R1,CPLCNO
 002EFE 4110 B73C            0073C 21864  1                      LA    R1,CPLCNO
 002F02 D603 6010 6010_00010 00010 21865  1                      IF    (METNLINE,NZ),'LA R1,METNLINE'  Line after last join
 002F10 58E0 724C/0DEE       0311C 21887  1                      VCALL LOCATE
 002F16 5810 B73C            0073C 21891  1                      L     R1,CPLCNO           Next lineno
 002F1A 91C0 BD84/4780_00D84       21892  1                      IF    (CPDRPT.CPFNTYT+CPFHIGH,NZ),'L R1,CVHILNO'
 002F26                            21919                       END
 002F26 0610                       21923                       DECR  R1                  Last possible lineno
 002F28 5010 6020            00020 21925                       ST    R1,METCLLIN         Save
 002F2C 1B12                       21926                       SR    R1,R2               Distance between two lines
 002F2E 4770 70AC            02F7C 21927                       IF    Z,BEGIN
 002F32 4110 72C0/4100_      03190 21938  1                      TSEG  'No line-number available, '
 002F44 9140 633E/47E0_0033E       21956  1                      IF    METFINS,BEGIN
 002F4C 4110 7270/4100_      03140 21971  2                        TSEG  'INSERT not possible.',,CR
 002F5E                            21989  1                      END
 002F5E 7092/47F0 70A4 02F5E 02F4A 21993  1                      ELSE  BEGIN
 002F62 4110 72DA/4100_      031AA 22004  2                        TSEG  'COLLECT not possible.',,CR
 002F74                            22022  1                      END
1LINE     (LINE2193) (12:47) (15MAR04) MODIFY/EDIT line Modification Routine                                                Page   61
0Current Usings:  (METWA,R6) (*,R7) (CP,R11) (CV,R12)
0Loc    Object Code    Addr1 Addr2  Stmt Lv Lineno    Source Statement           (Hibal 5, Asmedit 3.3)  HLASM R4.0  2004/03/15 12.47
+___    ______ ____    _____ _____  ____ __ ______    ______ _________
0002F74 41F0 0008            00008 22026  1                      LA    R15,RERROR
 002F78 47F0 70F2            02FC2 22027  1                      B     FCOLEXIT
 002F7C                            22028                       END
 002F7C 9140 633E/4710_0033E       22032                       IF    ~METFINS,'CLEAR R0; D R0,=A(5)'  Enough for five lines
 002F8A 58E0 728C/0DEE       0315C 22057                       VCALL SELDELTA            Choose a nice delta
 002F90 5010 6018            00018 22061                       ST    R1,METCDELT         Save it
 002F94 D701 6024 6024 00024 00024 22062                       CLEAR METCNUM
                                   22069
 002F9A 9601 BD54      00D54       22070                       SET   CPLFLG5.CPFSING
 002F9E 48F0 6128            00128 22077                       LH    R15,METLEN
 002FA2 49F0 6026/4770_      00026 22078                       IF    (R15,EQ,METPLEN),BEGIN
 002FAA 12FF/4780 70EA_            22095  1                      IF ((R15,Z),OR,('DEX R15,"CLC METLINE(0),METPLINE"',EQ)),BEGIN
 002FBA 9620 BD54      00D54       22139  2                        SET   CPLFLG5.CPFNLST     Nolist if nothing changed
 002FBE                            22146  1                      END
 002FBE                            22150                       END
                                   22154
 002FBE 41F0 0004            00004 22155                       LA    R15,RNORMAL2
 002FC2 18D8/9808 D004_            22156              FCOLEXIT PEND
 DROP   METWA,R6
 DROP   *,R7
1LINE     (LINE2193) (12:47) (15MAR04) MODIFY/EDIT line Modification Routine                                                Page   62
0Current Usings:  (CP,R11) (CV,R12)
0Loc    Object Code    Addr1 Addr2  Stmt Lv Lineno    Source Statement           (Hibal 5, Asmedit 3.3)  HLASM R4.0  2004/03/15 12.47
+___    ______ ____    _____ _____  ____ __ ______    ______ _________
0                                  22183              ¿þþþþþþþþþþþþþþþþþþþþþþþþþþþþþþþþþþþþþþþþþþþþþþþþþþþþþþþþþþþþþþþþþþþþþÜ
                                   22184              Ÿ                                                                     Ÿ
                                   22185              Ÿ  FJOIN -- .JOIN Sub-command.                                        Ÿ
                                   22186              Ÿ                                                                     Ÿ
                                   22187              Ÿ    On exit:  R15 = 4 (stop scanning return code)                    Ÿ
                                   22188              Ÿ                                                                     Ÿ
                                                      ¾þþþþþþþþþþþþþþþþþþþþþþþþþþþþþþþþþþþþþþþþþþþþþþþþþþþþþþþþþþþþþþþþþþþþþ»
0002FD0 50E0 D000/9008_      00000 22189              FJOIN    PROC
 USING  *,R7
 USING  METWA,R6                   22228                       WITH  (METWA,R6)
                                   22241
 002FEA 9180 BC78/47E0_00C78       22242                       IF    CPFCMDMD,'ACALL BADFUNC; B FJEXIT'  Cmd retry
                                   22267
 002FFC D603 6010 6010_00010 00010 22268                       IF    (METNLINE,Z),'L R1,METLINE#;A R1,CVONE;ST R1,METNLINE'
 003012 4110 6010            00010 22292              FJOINLOC LA    R1,METNLINE         Next line
 003016 58E0 7132/0DEE       0311C 22293                       VCALL LOCATE
 00301C 91C0 BD84/4780_00D84       22297                       IF    (CPDRPT.CPFNTYT+CPFHIGH,NZ),BEGIN
 003024 4110 70F6/4100_      030E0 22318  1                      TSEG  'No next line, JOIN not possible.',,CR
 003036 41F0 0008            00008 22336  1                      LA    R15,RERROR
 00303A 47F0 70E6            030D0 22337  1                      B     FJEXIT
 00303E                            22338                       END
                                   22342
 00303E 5810 B73C            0073C 22343                       L     R1,CPLCNO
 003042 5A10 C4D0            004D0 22344                       A     R1,CVONE
 003046 5010 6010            00010 22345                       ST    R1,METNLINE         Keep a next line ptr
 00304A 4830 6128            00128 22346                       LH    R3,METLEN
 00304E 5930 7176/4750_      03160 22347                       IF    (R3,GE,&LINESZ),BEGIN  Line too long already...
 003056 4110 7116/4100_      03100 22364  1                      TSEG  'Line is already '
 003068 1813/1B00/41F0_            22382  1                      TNUM  (R3)
 003076 4110 717E/4100_      03168 22404  1                      TSEG  ' characters long, JOIN not possible.',,CR
 003088 41F0 0008            00008 22422  1                      LA    R15,RERROR
 00308C 47F0 70E6            030D0 22423  1                      B     FJEXIT
 003090                            22424                       END
                                   22428
 003090 4113 612A            0012A 22429                       LA    R1,METLINE(R3)      Append new line here
 003094 1233/4780 70BC_            22430                       IF    (R3,NZ),'MVI @R1,C" "; LA R1,@R1+1; LA R3,@R3+1'
 0030A6 58E0 7136/0DEE       03120 22452                       VCALL UNPRESS
 0030AC 1821                       22456                       LR    R2,R1
 0030AE 1200/4780 70DC             22457                       IF    (R0,NZ),BEGIN       Trim leading blanks...
 0030B4 9540 1000/4770_00000       22471  1           FJOINTRM   IF    (@R1,NE,' '),EXIT
 0030BC D2E9 2000 1001 00000 00001 22491  1                      MVC   @R2(&LINESZ-1),@R1+1
 0030C2 4600 70CA            030B4 22492  1                      BCT   R0,FJOINTRM
 0030C6                            22493                       END
 0030C6 1A03                       22497                       AR    R0,R3               New line len
 0030C8 4000 6128            00128 22498                       STH   R0,METLEN
                                   22499
 0030CC 41F0 0004            00004 22500                       LA    R15,RNORMAL2        All done
 0030D0 18D8/9808 D004_            22501              FJEXIT   PEND  ,
 DROP   METWA,R6
 DROP   *,R7
                                   22527
                                   22528                       QLTORG
1LINE     (LINE2193) (12:47) (15MAR04) MODIFY/EDIT line Modification Routine                                                Page   63
0Current Usings:  (CP,R11) (CV,R12)
0Loc    Object Code    Addr1 Addr2  Stmt Lv Lineno    Source Statement           (Hibal 5, Asmedit 3.3)  HLASM R4.0  2004/03/15 12.47
+___    ______ ____    _____ _____  ____ __ ______    ______ _________
0                                  22566              ¿þþþþþþþþþþþþþþþþþþþþþþþþþþþþþþþþþþþþþþþþþþþþþþþþþþþþþþþþþþþþþþþþþþþþþÜ
                                   22567              Ÿ                                                                     Ÿ
                                   22568              Ÿ  FLINE -- .LINE Sub-command.                                        Ÿ
                                   22569              Ÿ                                                                     Ÿ
                                   22570              Ÿ    On exit:  R15 = 4 (stop scanning return code)                    Ÿ
                                   22571              Ÿ                                                                     Ÿ
                                                      ¾þþþþþþþþþþþþþþþþþþþþþþþþþþþþþþþþþþþþþþþþþþþþþþþþþþþþþþþþþþþþþþþþþþþþþ»
00031CC 50E0 D000/9008_      00000 22572              FPRNX    PROC  ,                   NEXT/PREVIOUS
 USING  *,R7
 0031E6 58E0 B08C/501E_      0008C 22611                       SCINIT (R1),(R0)
 0031F4 58E0 7422/0DEE       03608 22631                       ACALL FLINE
 0031FA 18D8/9808 D004_            22635                       PEND  ,
 DROP   *,R7
                                   22655
 003208 50E0 D000/9008_      00000 22656              FLINE    PROC
 USING  *,R7
 USING  METWA,R6                   22695                       WITH  (METWA,R6)
                                   22708
 003222 9180 BC78/47E0_00C78       22709                       IF    CPFCMDMD,'ACALL BADFUNC; B FLINEXIT'  Cmd retry
                                   22734
 003234 947F 633F      0033F       22735                       CLEAR METFNEXT
 003238 5810 B08C/1B00_      0008C 22742                       SCAN  FLNPRT
 00328A 12FF/47B0 7076             22774                       IF    (R15,NEG),BEGIN
                                   22788  1           *        SEG   NSCNMSG,NSCNMSGL
 003290 41F0 0008            00008 22789  1                      LA    R15,RERROR
 003294 47F0 7182            033A4 22790  1                      B     FLINEXIT
 003298                            22791                       END
 003298 59F0 73F6/4780_      03618 22795                       IF    (R15,EQ,RERROR),FLINEXIT
                                   22815
 0032A0 1803                       22816                       LR    R0,R3
 0032A2 5000 6014            00014 22817                       ST    R0,METFLINE         Save line-number
 0032A6 5900 600C/47D0_      0000C 22818                       IF    ((R0,GT,METLINE#),AND,(R0,LT,METNLINE)),BEGIN
 0032B6 4110 743A/4100_      0365C 22851  1                      TSEG  'Line '
 0032C8 5800 6014            00014 22869  1                      L     R0,METFLINE
 0032CC 58E0 73FE/0DEE       03620 22870  1                      VCALL CVEXNO
 0032D2 41F0 B050/58E0_      00050 22874  1                      TSEG  (R1),(R0),B
 0032DC 4110 73BE/4100_      035E0 22898  1                      TSEG  'has already been joined.',,CR
 0032EE 41F0 0008            00008 22916  1                      LA    R15,RERROR
 0032F2 47F0 7182            033A4 22917  1                      B     FLINEXIT
 0032F6                            22918                       END
                                   22922
 0032F6 4110 6014            00014 22923                       LA    R1,METFLINE
 0032FA 58E0 740A/0DEE       0362C 22924                       VCALL LOCATE
 003300 9180 633F/47E0_0033F       22928                       IF    METFNEXT,BEGIN    Next is special...
 003308 91C0 BD84/4780_00D84       22943  1                      IF    (CPDRPT.CPFNTYT+CPFHIGH,NZ),BEGIN
 003310 4110 743F/4100_      03661 22964  2                        TSEG  'NEXT line does not exist.',,CR
 003322 41F0 0008            00008 22982  2                        LA    R15,RERROR
 003326 47F0 7182            033A4 22983  2                        B     FLINEXIT
 00332A                            22984  1                      END
                                   22988  1
 00332A D203 6014 B73C 00014 0073C 22989  1                      MVC   METFLINE,CPLCNO     Save next line no.
 003330                            22990                       END
 003330 7112/47F0 715A_03330 03306 22994                       ELSEIF ~CPDRPT.CPFMTCH,BEGIN  Line isn't there...
1LINE     (LINE2193) (12:47) (15MAR04) MODIFY/EDIT line Modification Routine                                                Page   64
0Current Usings:  (METWA,R6) (*,R7) (CP,R11) (CV,R12)
0Loc    Object Code    Addr1 Addr2  Stmt Lv Lineno    Source Statement           (Hibal 5, Asmedit 3.3)  HLASM R4.0  2004/03/15 12.47
+___    ______ ____    _____ _____  ____ __ ______    ______ _________
000333C 4110 743A/4100_      0365C 23019  1                      TSEG  'Line '
 00334E 5800 6014            00014 23037  1                      L     R0,METFLINE
 003352 58E0 73FE/0DEE       03620 23038  1                      VCALL CVEXNO
 003358 41F0 B050/58E0_      00050 23042  1                      TSEG  (R1),(R0)
 003362 4110 73D6/4100_      035F8 23066  1                      TSEG  ' does not exist.',,CR
 003374 41F0 0008            00008 23084  1                      LA    R15,RERROR
 003378 47F0 7182            033A4 23085  1                      B     FLINEXIT
 00337C                            23086                       END
                                   23090
 00337C 9601 BD54      00D54       23091                       SET   CPLFLG5.CPFSING
 003380 48F0 6128            00128 23098                       LH    R15,METLEN
 003384 49F0 6026/4770_      00026 23099                       IF    (R15,EQ,METPLEN),BEGIN
 00338C 12FF/4780 717A_            23116  1                      IF ((R15,Z),OR,('DEX R15,"CLC METLINE(0),METPLINE"',EQ)),BEGIN
 00339C 9620 BD54      00D54       23160  2                        SET   CPLFLG5.CPFNLST     Nolist if nothing changed
 0033A0                            23167  1                      END
 0033A0                            23171                       END
                                   23175
 0033A0 41F0 0004            00004 23176                       LA    R15,RNORMAL2
                                   23177
 0033A4 18D8/9808 D004_            23178              FLINEXIT PEND
 DROP   METWA,R6
 DROP   *,R7
                                   23204
 0033B4 D5C5E7E340404040_          23205              FLNPRT   SCKW  NEXT,FNEXT,A        (Next is special because of join)
 0033DC 4040404040404040_          23220                       SCKW  ,FLINENO,SYMLN
 003404 4040404040404040_          23235                       SCKW  ,FLMISS,NULL
 00342C 4040404040404040_          23250                       SCKW  ,FLINV
                                   23265
 003454 50E0 D000/9008_      00000 23266              FLINENO  PROC  ,
 USING  *,R7
 00346E 1830                       23305                       LR    R3,R0
 003470 5038 0010            00010 23306                       PRETURN (R3)
 003474 41F0 0004            00004 23308                       LA    R15,RNORMAL2
 003478 18D8/9808 D004_            23309                       PEND  ,
 DROP   *,R7
                                   23329
 003486 50E0 D000/9008_      00000 23330              FNEXT    PROC  ,
 USING  *,R7
 USING  METWA,R6                   23369                       WITH  (METWA,R6)
                                   23382
 0034A0 5800 600C            0000C 23383                       L     R0,METLINE#
 0034A4 5A00 C4D0            004D0 23384                       A     R0,CVONE            Next possible line
 0034A8 58F0 6010/12FF_      00010 23385                       IF    ('LT R15,METNLINE',NZ),'LR R0,R15'  past joins
 0034B4 9680 633F      0033F       23407                       SET   METFNEXT
 0034B8 1830                       23413                       LR    R3,R0
 0034BA 5038 0010            00010 23414                       PRETURN (R3)
 0034BE 41F0 0004            00004 23416                       LA    R15,RNORMAL2
 0034C2 18D8/9808 D004_            23417                       PEND
 DROP   METWA,R6
 DROP   *,R7
                                   23442
 0034D0 50E0 D000/9008_      00000 23443              FLMISS   PROC
 USING  *,R7
 0034EA 4110 7146/4100_      03630 23482                       TSEG  'Missing line-number.',,CR
1LINE     (LINE2193) (12:47) (15MAR04) MODIFY/EDIT line Modification Routine                                                Page   65
0Current Usings:  (*,R7) (CP,R11) (CV,R12)
0Loc    Object Code    Addr1 Addr2  Stmt Lv Lineno    Source Statement           (Hibal 5, Asmedit 3.3)  HLASM R4.0  2004/03/15 12.47
+___    ______ ____    _____ _____  ____ __ ______    ______ _________
00034FC 41F0 0008            00008 23500                       LA    R15,RERROR
 003500 18D8/9808 D004_            23501                       PEND
 DROP   *,R7
                                   23521
 00350E 50E0 D000/9008_      00000 23522              FLINV    PROC
 USING  *,R7
 003528 41F0 B050/58E0_      00050 23561                       TSEG  (R1),(R0)
 003532 4110 7152/4100_      0367A 23585                       TSEG  ': invalid line-number',,CR
 003544 41F0 0008            00008 23603                       LA    R15,RERROR
 003548 18D8/9808 D004_            23604                       PEND
 DROP   *,R7
1LINE     (LINE2193) (12:47) (15MAR04) MODIFY/EDIT line Modification Routine                                                Page   66
0Current Usings:  (CP,R11) (CV,R12)
0Loc    Object Code    Addr1 Addr2  Stmt Lv Lineno    Source Statement           (Hibal 5, Asmedit 3.3)  HLASM R4.0  2004/03/15 12.47
+___    ______ ____    _____ _____  ____ __ ______    ______ _________
0                                  23625              ¿þþþþþþþþþþþþþþþþþþþþþþþþþþþþþþþþþþþþþþþþþþþþþþþþþþþþþþþþþþþþþþþþþþþþþÜ
                                   23626              Ÿ                                                                     Ÿ
                                   23627              Ÿ  FUNCNULL -- Missing line oriented function name.                   Ÿ
                                   23628              Ÿ                                                                     Ÿ
                                                      ¾þþþþþþþþþþþþþþþþþþþþþþþþþþþþþþþþþþþþþþþþþþþþþþþþþþþþþþþþþþþþþþþþþþþþþ»
0003556 50E0 D000/9008_      00000 23629              FUNCNULL PROC
 USING  *,R7
 USING  METWA,R6                   23668                       WITH  (METWA,R6)
                                   23681
 003570 4110 70D6/4100_      03646 23682                       TSEG  'Function name missing.',,CR
 003582 41F0 0008            00008 23700                       LA    R15,RERROR
 003586 18D8/9808 D004_            23701                       PEND
 DROP   METWA,R6
 DROP   *,R7
                                   23726              ¿þþþþþþþþþþþþþþþþþþþþþþþþþþþþþþþþþþþþþþþþþþþþþþþþþþþþþþþþþþþþþþþþþþþþþÜ
                                   23727              Ÿ                                                                     Ÿ
                                   23728              Ÿ  BADFUNC -- Unknown line oriented function.                         Ÿ
                                   23729              Ÿ                                                                     Ÿ
                                                      ¾þþþþþþþþþþþþþþþþþþþþþþþþþþþþþþþþþþþþþþþþþþþþþþþþþþþþþþþþþþþþþþþþþþþþþ»
0003594 50E0 D000/9008_      00000 23730              BADFUNC  PROC
 USING  *,R7
 USING  METWA,R6                   23769                       WITH  (METWA,R6)
                                   23782
 0035AE 41F0 B050/58E0_      00050 23783                       TSEG  (R1),(R0)
 0035B8 4110 70E1/4100_      0368F 23807                       TSEG  ': invalid line oriented function.',,CR
 0035CA 41F0 0008            00008 23825                       LA    R15,RERROR          All done
 0035CE 18D8/9808 D004_            23826                       PEND
 DROP   METWA,R6
 DROP   *,R7
                                   23851
                                   23852                       QLTORG
1LINE     (LINE2193) (12:47) (15MAR04) MODIFY/EDIT line Modification Routine                                                Page   67
0Current Usings:  (CP,R11) (CV,R12)
0Loc    Object Code    Addr1 Addr2  Stmt Lv Lineno    Source Statement           (Hibal 5, Asmedit 3.3)  HLASM R4.0  2004/03/15 12.47
+___    ______ ____    _____ _____  ____ __ ______    ______ _________
0                                  23884              HELPMSGL EQU   80                  Length of a help text line
                                   23885                       ¿þþþþþþþþþþþþþþþþþþþþþþþþÜ
                                   23886                       Ÿ  MODIFY command help.  Ÿ
                                   23887                       ¾þþþþþþþþþþþþþþþþþþþþþþþþ»
 0036B6 D79985A2A240C2D9           23888              HELPMOD  DC    CL40'Press BREAK to abort the MODIFY command,'
 0036DE 40969940979985A2           23889                       DC    CL40' or press RETURN if finished.           '
 003706 4040404040404040           23890                       DC    CL40'                                        '
 00372E 4040404040404040           23891                       DC    CL40'                                        '
 003756 D4D6C4C9C6E840D6           23892                       DC    CL40'MODIFY Options are:                     '
 00377E 4040404040404040           23893                       DC    CL40'                                        '
 0037A6 AD95BDC240404040           23894                       DC    CL40'[n]B      Change to blank.              '
 0037CE 4040404040404040           23895                       DC    CL40'                                        '
 0037F6 AD95BDC340404040           23896                       DC    CL40'[n]C      Change case.                  '
 00381E 4040404040404040           23897                       DC    CL40'                                        '
 003846 AD95BDC440404040           23898                       DC    CL40'[n]D      Delete text (typing subsequent'
 00386E 408293819592A240           23899                       DC    CL40' blanks DOES continue deletion).        '
 003896 AD95BDC540404040           23900                       DC    CL40'[n]E      Treat rest of line as EDIT cha'
 0038BE 998183A38599A24B           23901                       DC    CL40'racters.                                '
 0038E6 AD95BDC940404040           23902                       DC    CL40'[n]I      Insert text.                  '
 00390E 4040404040404040           23903                       DC    CL40'                                        '
 003936 404040D340404040           23904                       DC    CL40'   L      List line.                    '
 00395E 4040404040404040           23905                       DC    CL40'                                        '
 003986 404040D540404040           23906                       DC    CL40'   N      Don''t list line.              '
 0039AE 4040404040404040           23907                       DC    CL40'                                        '
 0039D6 AD95BDD940404040           23908                       DC    CL40'[n]R      Replace text.                 '
 0039FE 4040404040404040           23909                       DC    CL40'                                        '
 003A26 404040E240404040           23910                       DC    CL40'   S      Split line.                   '
 003A4E 4040404040404040           23911                       DC    CL40'                                        '
 003A76 404083E340404040           23912                       DC    CL40'  cT      Tab to specified column.      '
 003A9E 4040404040404040           23913                       DC    CL40'                                        '
 003AC6 AD95BDE740404040           23914                       DC    CL40'[n]X      Delete text (typing subsequent'
 003AEE 408293819592A240           23915                       DC    CL40' blanks DOES NOT continue deletion).    '
 003B16 AD95BDC740404040           23916                       DC    CL40'[n]G      Delete text and append charact'
 003B3E 8599A240969540C7           23917                       DC    CL40'ers on GET stack.                       '
 003B66 AD95BDD740404040           23918                       DC    CL40'[n]P      Insert text from GET stack (te'
 003B8E A7A34089A2408485           23919                       DC    CL40'xt is deleted from the stack).          '
 003BB6 AD95BD4040404040           23920                       DC    CL40'[n]       is a length of modify to allow'
 003BDE 4094A493A3899793           23921                       DC    CL40' multiple modifications.                '
 003C06 4040404040404040           23922                       DC    CL40'                                        '
 003C2E 4040404040404040           23923                       DC    CL40'                                        '
 003C56 4BC3D6D3D3C5C3E3           23924                       DC    CL40'.COLLECT  Collect lines           .LINE '
 003C7E 938995854040C388           23925                       DC    CL40'line  Change line; go to new line       '
 003CA6 4BC4C5D3C5E3C540           23926                       DC    CL40'.DELETE   Delete line             .NEXT '
 003CCE 404040404040C388           23927                       DC    CL40'      Change line; go to next line      '
 003CF6 4BC9D5E2C5D9E340           23928                       DC    CL40'.INSERT   Insert line             .PREVI'
 003D1E D6E4E2404040C388           23929                       DC    CL40'OUS   Change line; go to previous line  '
 003D46 4BD1D6C9D5404040           23930                       DC    CL40'.JOIN     Append next line        .REPLA'
 003D6E C3C540404040D799           23931                       DC    CL40'CE    Prompt for replacement line       '
 003D96 4BD9C5E5C5D9E340           23932                       DC    CL40'.REVERT   Undo changes to line    .SKIP '
 003DBE 404040404040C496           23933                       DC    CL40'      Don''t change line, but continue   '
 003DE6 4BC5C4C9E3404040           23934                       DC    CL40'.EDIT     Switch to Edits? prompt .STOP '
 003E0E 404040404040E385           23935                       DC    CL40'      Terminate command                 '
 003E36 FF                         23936                       DC    X'FF'
1LINE     (LINE2193) (12:47) (15MAR04) MODIFY/EDIT line Modification Routine                                                Page   68
0Current Usings:  (CP,R11) (CV,R12)
0Loc    Object Code    Addr1 Addr2  Stmt Lv Lineno    Source Statement           (Hibal 5, Asmedit 3.3)  HLASM R4.0  2004/03/15 12.47
+___    ______ ____    _____ _____  ____ __ ______    ______ _________
0                                  23938                       ¿þþþþþþþþþþþþþþþþþþþþþþÜ
                                   23939                       Ÿ  EDIT command help.  Ÿ
                                   23940                       ¾þþþþþþþþþþþþþþþþþþþþþþ»
 003E37 D79985A2A240C2D9           23941              HELPEDIT DC    CL40'Press BREAK to abort the EDIT command, o'
 003E5F 9940979985A2A240           23942                       DC    CL40'r press RETURN if finished.             '
 003E87 4040404040404040           23943                       DC    CL40'                                        '
 003EAF 4040404040404040           23944                       DC    CL40'                                        '
 003ED7 C38881998183A385           23945                       DC    CL40'Characters typed in response to the EDIT'
 003EFF 409799969497A340           23946                       DC    CL40' prompt are "moved up" into the line    '
 003F27 8285899587408584           23947                       DC    CL40'being edited.  However, the first charac'
 003F4F A38599408186A385           23948                       DC    CL40'ter after the prompt (which starts just '
 003F77 8285869699854083           23949                       DC    CL40'before column 1 on the line being edited'
 003F9F 5D40A68993934081           23950                       DC    CL40') will accept the following characters: '
 003FC7 4040404040404040           23951                       DC    CL40'                                        '
 003FEF 4040404040404040           23952                       DC    CL40'                                        '
 004017 404040D340404040           23953                       DC    CL40'   L      List line.                    '
 00403F 4040404040404040           23954                       DC    CL40'                                        '
 004067 404040D440404040           23955                       DC    CL40'   M      Treat rest of line as MODIFY c'
 00408F 8881998183A38599           23956                       DC    CL40'haracters.                              '
 0040B7 404040D540404040           23957                       DC    CL40'   N      Don''t list line.              '
 0040DF 4040404040404040           23958                       DC    CL40'                                        '
 004107 4040404040404040           23959                       DC    CL40'                                        '
 00412F 4040404040404040           23960                       DC    CL40'                                        '
 004157 4BC3D6D3D3C5C3E3           23961                       DC    CL40'.COLLECT  Collect lines           .LINE '
 00417F 938995854040C388           23962                       DC    CL40'line  Change line; go to new line       '
 0041A7 4BC4C5D3C5E3C540           23963                       DC    CL40'.DELETE   Delete line             .NEXT '
 0041CF 404040404040C388           23964                       DC    CL40'      Change line; go to next line      '
 0041F7 4BC9D5E2C5D9E340           23965                       DC    CL40'.INSERT   Insert line             .PREVI'
 00421F D6E4E2404040C388           23966                       DC    CL40'OUS   Change line; go to previous line  '
 004247 4BD1D6C9D5404040           23967                       DC    CL40'.JOIN     Append next line        .REPLA'
 00426F C3C540404040D799           23968                       DC    CL40'CE    Prompt for replacement line       '
 004297 4BD9C5E5C5D9E340           23969                       DC    CL40'.REVERT   Undo changes to line    .SKIP '
 0042BF 404040404040C496           23970                       DC    CL40'      Don''t change line, but continue   '
 0042E7 4BD4D6C4C9C6E840           23971                       DC    CL40'.MODIFY   Switch to Mods? prompt  .STOP '
 00430F 404040404040E385           23972                       DC    CL40'      Terminate command                 '
 004337 FF                         23973                       DC    X'FF'
1LINE     (LINE2193) (12:47) (15MAR04) COLLECT Command                                                                      Page   69
0Current Usings:  (CP,R11) (CV,R12)
0Loc    Object Code    Addr1 Addr2  Stmt Lv Lineno    Source Statement           (Hibal 5, Asmedit 3.3)  HLASM R4.0  2004/03/15 12.47
+___    ______ ____    _____ _____  ____ __ ______    ______ _________
0                                  23975              ¿þþþþþþþþþþþþþþþþþþþþþþþþþþþþþþþþþþþþþþþþþþþþþþþþþþþþþþþþþþþþþþþþþþþþþÜ
                                   23976              Ÿ                                                                     Ÿ
                                   23977              Ÿ  WBREAK -- Command to simulate a BREAK being pressed at the         Ÿ
                                   23978              Ÿ    command prompt.  It either defaults to entering COLLECT mode     Ÿ
                                   23979              Ÿ    or doing nothing, as determined by user preference.              Ÿ
                                   23980              Ÿ                                                                     Ÿ
                                                      ¾þþþþþþþþþþþþþþþþþþþþþþþþþþþþþþþþþþþþþþþþþþþþþþþþþþþþþþþþþþþþþþþþþþþþþ»
0004338 50E0 D000/9008_      00000 23981              WBREAK   XPROC
 USING  *,R7
 004352 58E0 7D76/0DEE       050C8 24021                       VCALL NOOPTS              No options allowed
                                   24025
 004358 9108 B478/4710_00478       24026                       IF    CPGFNATN,CVNEXT     NOATTN means take no action
 004360 58E0 7D7A/0DEE       050CC 24044                       ACALL COLLECT             Join the collect command
 004366 47F0 C7DE            007DE 24048                       B     CVNEXT
                                   24049
 00436A 18D8/9808 D004_            24050                       PEND
 DROP   *,R7
1LINE     (LINE2193) (12:47) (15MAR04) COLLECT Command                                                                      Page   70
0Current Usings:  (CP,R11) (CV,R12)
0Loc    Object Code    Addr1 Addr2  Stmt Lv Lineno    Source Statement           (Hibal 5, Asmedit 3.3)  HLASM R4.0  2004/03/15 12.47
+___    ______ ____    _____ _____  ____ __ ______    ______ _________
0000000                00000 00122 24071              COLWA    RECORD BEGIN
 000000 00                         24079  1           COLFLAG    FLAG
 COLFLAG.COLFSPEC  80 ONES         24083  1                      FLAG  COLFSPEC            - Specific lineno given
 COLFLAG.COLFAFT   40 ONES         24088  1                      FLAG  COLFAFT             - Collect AFTER lineno
 COLFLAG.COLFBEF   20 ONES         24093  1                      FLAG  COLFBEF             - Collect BEFORE lineno
 COLFLAG.COLFLIST  10 ONES         24098  1                      FLAG  COLFLIST            - List previous line
 COLFLAG.COLFVIEW  08 ONES         24103  1                      FLAG  COLFVIEW            - Collect in VIEW mode
                                   24108  1
 000002                            24109  1           COLSPCOL   DS    H                   Split column number
                                   24110  1
 000004                            24111  1           COLNEXLN   DS    F                   Next existing lineno
 000008                            24112  1           COLCURLN   DS    F                   Current lineno
 00000C                            24113  1           COLNWEND   DS    F                   New end line-number (after re-numb)
                                   24114  1                      ¿þþþþþþþþþþþþþþþþþþþþþþþþþþþþþþþþþþþþþþþþþþþþþþþþþþþþþÜ
                                   24115  1                      Ÿ  COLINFO below is a copy of CPACINFO in the AINFO.  Ÿ
                                   24116  1                      ¾þþþþþþþþþþþþþþþþþþþþþþþþþþþþþþþþþþþþþþþþþþþþþþþþþþþþþ»
                                   24117  1           COL        COLINFO
                                   24119+ 1          +     ¿þþþþþþþþþþþþþþþþþþþþþþþþþþþþþþþþþþþþþþÜ
                                   24120+ 1          +     Ÿ  Collect command saved information.  Ÿ
                                   24121+ 1          +     ¾þþþþþþþþþþþþþþþþþþþþþþþþþþþþþþþþþþþþþþ»
 000010                            24122  1 01-COLIN +COLFLN     DS    F                   Lineno before first collected
 000014                            24123  1 01-COLIN +COLNLN     DS    F          [Order]  Next lineno to use
 000018                            24124  1 01-COLIN +COLDEL     DS    F          [Order]  Delta
 00001C                            24125  1 01-COLIN +COLLEN     DS    H                   Line warning length
 00001E                            24126  1 01-COLIN +COLCNT     DS    H                   No. of lines to collect
 000020 00                         24127  1 01-COLIN +COLFG5     DS    X                   Copy of CPLFLG5
 COLFLG.COLFMR     80 ONES
 COLFLG.COLFCS     40 ONES
 COLFLG.COLFUP     20 ONES
 COLFLG.COLFRN     10 ONES
 COLFLG.COLFPG     08 ONES
                                   24157  1 01-COLIN +COLINFO    EQU   COLFLN,*-COLFLN,C'X'
                                   24159  1
                                   24160  1           COLLINE    DS    XL(&PRESSZ)
 000022                                   1          +COLLINE    DS    XL(256)
 000122                00122 00122 24161                       END
-                                  24171              ¿þþþþþþþþþþþþþþþþþþþþþþþþþþþþþþþþþþþþþþþþþþþþþþþþþþþþþþþþþþþþþþþþþþþþþÜ
                                   24172              Ÿ                                                                     Ÿ
                                   24173              Ÿ                                                                     Ÿ
                                   24174              Ÿ  COLLECT -- COLLECT command.                                        Ÿ
                                   24175              Ÿ                                                                     Ÿ
                                   24176              Ÿ                                                                     Ÿ
                                   24177              Ÿ                                                                     Ÿ
                                                      ¾þþþþþþþþþþþþþþþþþþþþþþþþþþþþþþþþþþþþþþþþþþþþþþþþþþþþþþþþþþþþþþþþþþþþþ»
0004378 50E0 D000/9008_      00000 24178              COLLECT  XPROC COLWA
 USING  *,R7
 USING  COLWA-(4+36),R8
 004392 4160 8028            00000 24229                       LA    R6,COLWA
 USING  COLWA,R6                   24230                       USING COLWA,R6
 004396 D7FF 6000 6000_00000 00000 24239                       CLEAR COLWA
                                   24247
1LINE     (LINE2193) (12:47) (15MAR04) COLLECT Command                                                                      Page   71
0Current Usings:  (COLWA,R6) (*,R7) (COLWA-(4+36),R8) (CP,R11) (CV,R12)
0Loc    Object Code    Addr1 Addr2  Stmt Lv Lineno    Source Statement           (Hibal 5, Asmedit 3.3)  HLASM R4.0  2004/03/15 12.47
+___    ______ ____    _____ _____  ____ __ ______    ______ _________
0                                  24248                       COMMENT                   SCAN LINE NO, IF ANY
 0043A2 58E0 B08C/D2AF_      0008C 24249                       SCPUSH
 0043B0 5810 B08C/1B00_      0008C 24255                       SCAN  COLLNPRT
 004402 58E0 7D46/0DEE       050D8 24287                       SCANCHK
 004408 59F0 7D4A/4770_      050DC 24292                       IF    (R15,EQ,4),BEGIN    IF LNO SPECIFIED
 004410 47F0 714A            044DC 24309  1                      B     COLCONT
 004414                            24310                       END
 004414 59F0 7D4E/4770_      050E0 24314                       IF    (R15,EQ,8),BEGIN    IF NO LNO SPECIFIED,
 00441C 58E0 B08C/4BD0_      0008C 24331  1                      SCPOP ,
 00442A                            24337                       END
                                   24341
                                   24342                       COMMENT                   Look ahead for CLEAR
 00442A 58E0 B08C/D2AF_      0008C 24343                       SCPUSH ,
 004438 5810 B08C/1B00_      0008C 24349                       SCAN  COLCLPRT
 00448A 58E0 7D46/0DEE       050D8 24381                       SCANCHK
 004490 58E0 B08C/4BD0_      0008C 24386                       SCPOP ,
                                   24392
 00449E 9118 BD55/4780_00D55       24393                       IF    CPFCLEAR+CPFKEEP,'VCALL CLRTEXT'  Clear/keep
                                   24420
 0044AC D211 6010 B5C4 00010 005C4 24421                       MVC   COLINFO,CPACINFO    Use previous values
                                   24422
 0044B2 D611 6010 6010_00010 00010 24423                       IF    (COLINFO,Z),BEGIN   New collect...
 0044BC D203 6010 7D5A 00010 050EC 24439  1                      MVC   COLFLN,=F'-1'       No first line yet
 0044C2 D203 6014 7D5A 00014 050EC 24440  1                      MVC   COLNLN,=F'-1'       Collect at end
 0044C8 9101 B477/4710_00477       24441  1                      IF    (CPGFNLST,OR,~CPFTYPED),'SET COLFG5.CPFNLST'
 0044DC                            24482                       END
                                   24486
 0044DC D200 BD54 6020 00D54 00020 24487              COLCONT  MVC   CPLFLG5,COLFG5      List options
 0044E2 D201 BC52 601C 00C52 0001C 24488                       MVC   CPLLEN,COLLEN       Line length
 0044E8 9140 6021/47E0_00021       24489                       IF    COLFCS,BEGIN        Explicit case...
 0044F0 9630 BD57      00D57       24504  1                      SET   CPFCASE+CPFUPPER
 0044F4 9120 6021/4710_00021       24513  1                      IF    ~COLFUP,'CLEAR CPFUPPER'
 004500                            24540                       END
                                   24544
                                   24545                       COMMENT                   SCAN COLLECT OPTIONS
 004500 5810 B08C/1B00_      0008C 24546                       SCAN  COLPRT
 004552 58E0 7D46/0DEE       050D8 24578                       SCANCHK
 004558 D200 6020 BD54 00020 00D54 24583                       MVC   COLFG5,CPLFLG5      Save list options
 00455E D201 601C BC52 0001C 00C52 24584                       MVC   COLLEN,CPLLEN       Save line length
 004564 9120 BD57/47E0_00D57       24585                       IF    CPFCASE,BEGIN       Save case override...
 00456C 9660 6021      00021       24600  1                      SET   COLFCS+COLFUP
 004570 9110 BD57/4710_00D57       24609  1                      IF    ~CPFUPPER,'CLEAR COLFUP'
 00457C                            24636                       END
                                   24640
 00457C D603 B5AC B5AC_005AC 005AC 24641                       IF    ((CPALNCT,NZ),AND,~CPLFLG5.CPFNLST),BEGIN
 00458E 9610 6000      00000       24672  1                      SET   COLFLIST
 004592                            24678                       END
                                   24682                       ¿þþþþþþþþþþþþþþþþþþþþþþþþþþþþþþþþþþþþþþþþþÜ
                                   24683                       Ÿ  Initial page mode collect processing.  Ÿ
                                   24684                       ¾þþþþþþþþþþþþþþþþþþþþþþþþþþþþþþþþþþþþþþþþþ»
 004592 9108 6000/47E0_00000       24685                       IF    COLFVIEW,BEGIN      Collect view...
 00459A 9180 BAC8/4710_00AC8       24700  1                      IF    CPVFPAGE,EXIT       Already in page mode, scram
 0045A2 58E0 7D62/0DEE       050F4 24718  1                      VCALL PAGETCHK            Make sure terminal is ok
 0045A8 58E0 7D66/0DEE       050F8 24722  1                      VCALL PAGECLR             Forget the previous screen
1LINE     (LINE2193) (12:47) (15MAR04) COLLECT Command                                                                      Page   72
0Current Usings:  (COLWA,R6) (*,R7) (COLWA-(4+36),R8) (CP,R11) (CV,R12)
0Loc    Object Code    Addr1 Addr2  Stmt Lv Lineno    Source Statement           (Hibal 5, Asmedit 3.3)  HLASM R4.0  2004/03/15 12.47
+___    ______ ____    _____ _____  ____ __ ______    ______ _________
00045AE 9680 BAC8/9680_00AC8       24726  1                      SET   CPVFPAGE,CPVFCLR    It's page mode now
 0045B6                            24736                       END
                                   24740
 0045B6 9180 BAC8/47E0_00AC8       24741                       IF    CPVFPAGE,BEGIN      Page mode collect...
 0045BE D601 601E 601E_0001E 0001E 24756  1                      IF    (COLCNT,Z),BEGIN    Figure out no. of lines...
 0045C8 9180 6021/4710_00021       24772  2                        IF    COLFMR,EXIT         Can't calc lines if merge
 0045D0 4120 0005            00005 24790  2                        LA    R2,4+1              Assume 4 lines
 0045D4 4020 601E            0001E 24791  2                        STH   R2,COLCNT           Set collect line count
 0045D8                            24792  1                      END
 0045D8                            24796                       END
                                   24800                       ¿þþþþþþþþþþþþþþþþþþþþþþþþþþþþþþþÜ
                                   24801                       Ÿ  Initial collect processing.  Ÿ
                                   24802                       ¾þþþþþþþþþþþþþþþþþþþþþþþþþþþþþþþ»
 0045D8 D203 6008 6014 00008 00014 24803                       MVC   COLCURLN,COLNLN     Set line to start to collect
 0045DE D203 6004 C160 00004 00160 24804                       MVC   COLNEXLN,CVHILNO    No next line (effectively)
 0045E4 D203 B5A8 7D6A 005A8 050FC 24805                       MVC   CPACLNO,=F'-1000'   No current lineno yet
                                   24806                       ¿þþþþþþþþþþþþþþþþþþþþþþþþÜ
                                   24807                       Ÿ  Process collect end.  Ÿ
                                   24808                       ¾þþþþþþþþþþþþþþþþþþþþþþþþ»
 0045EA D503 7D6E 6014_05100 00014 24809                       IF    (COLNLN,EQ,-1),BEGIN  Collect end...
 0045F4 5800 B5A4            005A4 24827  1                      L     R0,CPALLNO          Highest lineno (or zero)
 0045F8 5810 6018/1211       00018 24828  1                      LT    R1,COLDEL           Delta
 0045FE 4770 7274/5810_      04606 24832  1                      IF    Z,'L R1,CPDELTA'
 004606 58E0 7D72/0DEE       05104 24849  1                      VCALL LOWMULT
 00460C 58E0 7D76/0DEE       05108 24853  1                      VCALL ADDER
 004612 4740 7778            04B0A 24857  1                      BM    COLFIX
 004616 5000 6008            00008 24858  1                      ST    R0,COLCURLN
 00461A 47F0 73FC            0478E 24859  1                      B     COLLOOP
 00461E                            24860                       END
                                   24864                       ¿þþþþþþþþþþþþþþþþþþþþþþþþþþþþþþþþÜ
                                   24865                       Ÿ  Calculate the initial delta.  Ÿ
                                   24866                       ¾þþþþþþþþþþþþþþþþþþþþþþþþþþþþþþþþ»
 00461E D503 7D6E 6010_05100 00010 24867                       IF    (COLFLN,EQ,-1),BEGIN  Save lineno before start...
 004628 58F0 6008            00008 24885  1                      L     R15,COLCURLN
 00462C 58E0 7D7A/0DEE       0510C 24886  1                      VCALL GETLNO              Find lineno
 004632 4780 72AE/D701_      04640 24890  1                      IF    NZ,'CLEAR COLSPCOL,COLFBEF+COLFAFT'  Lineno not there
 004640 12FF/4740 72DC             24921  1                      IF    (R15,~NEG),BEGIN    Not past end of file...
 004646 4720 72C0/9120_      04652 24935  2                        IF    (POS,OR,COLFBEF),'VCALL PREVLNO'  Backup
 004658 D203 6010 B73C 00010 0073C 24969  2                        MVC   COLFLN,CPLCNO       Save first lineno (for renum)
 00465E D503 6008 B5A0_00008 005A0 24970  2                        IF    (COLCURLN,LT,CPAFLNO),'MVC COLFLN,COLCURLN'  First
 00466E                            24994  1                      END
                                   24998  1
 00466E 9180 6021/4710_00021       24999  1                      IF    COLFMR,EXIT         Merge is simple, scram
                                   25017  1                   ¿þþþþþþþþþþþþþþþþþþþþþþþþþþþþþþþþþþþþþþþþþþþþþþþþþþþþþþþþþþþþþþþþþþÜ
                                   25018  1                   Ÿ  Choose an appropriate initial delta (if one is not specified).  Ÿ
                                   25019  1                   ¾þþþþþþþþþþþþþþþþþþþþþþþþþþþþþþþþþþþþþþþþþþþþþþþþþþþþþþþþþþþþþþþþþþ»
 004676 D603 6018 6018_00018 00018 25020  1                      IF    (COLDEL,Z),BEGIN    Choose a delta...
 004680 41F0 0001            00001 25036  2                        LA    R15,1
 004684 5AF0 6008            00008 25037  2                        A     R15,COLCURLN
 004688 58E0 7D7A/0DEE       0510C 25038  2                        VCALL GETLNO              Get next existing lineno
 00468E 58F0 B73C            0073C 25042  2                        L     R15,CPLCNO
 004692 5BF0 6010            00010 25043  2                        S     R15,COLFLN
 004696 06F0                       25044  2                        DECR  R15                 Space between linenos
                                   25046  2
1LINE     (LINE2193) (12:47) (15MAR04) COLLECT Command                                                                      Page   73
0Current Usings:  (COLWA,R6) (*,R7) (COLWA-(4+36),R8) (CP,R11) (CV,R12)
0Loc    Object Code    Addr1 Addr2  Stmt Lv Lineno    Source Statement           (Hibal 5, Asmedit 3.3)  HLASM R4.0  2004/03/15 12.47
+___    ______ ____    _____ _____  ____ __ ______    ______ _________
0004698 4830 601E/1233       0001E 25047  2                        LTH   R3,COLCNT           Number of lines to collect
 00469E 4770 7314/4130_      046A6 25051  2                        IF    Z,'LA R3,1'         At least one line
 0046A6 D601 6002 6002_00002 00002 25068  2                        IF    (COLSPCOL,NZ),'LA R3,@R3+1'  Account for split
                                   25090  2
 0046B4 1BEE                       25091  2                        CLEAR R14
 0046B6 1DE3                       25095  2                        DR    R14,R3              Increment per line
 0046B8 181F                       25096  2                        LR    R1,R15
 0046BA 58E0 7D82/0DEE       05114 25097  2                        VCALL SELDELTA            Pick a nice delta
 0046C0 5010 6018            00018 25101  2                        ST    R1,COLDEL           Set delta
 0046C4                            25102  1                      END
 0046C4                            25106                       END
                                   25110                       ¿þþþþþþþþþþþþþþþþþþþþþþþþþþþþþþþþþþþþþþþþþÜ
                                   25111                       Ÿ  Process resuming a page mode collect.  Ÿ
                                   25112                       ¾þþþþþþþþþþþþþþþþþþþþþþþþþþþþþþþþþþþþþþþþþ»
 0046C4 9108 6021/47E0_00021       25113                       IF    COLFPG,BEGIN        Page mode collect...
 0046CC 94F7 6021      00021       25128  1                      CLEAR COLFPG              Reset page mode collect
                                   25135  1
 0046D0 58F0 6014            00014 25136  1                      L     R15,COLNLN
 0046D4 4110 6022            00022 25137  1                      LA    R1,COLLINE
 0046D8 58E0 7D86/0DEE       05118 25138  1                      VCALL GETLINE             Get current collect line
 0046DE 4770 7376            04708 25142  1                      IF    NZ,EXIT             It doesn't exist, scram
                                   25156  1
 0046E2 1200/4770 7362             25157  1                      IF    (R0,Z),BEGIN        Blank line...
 0046E8 5800 6014            00014 25171  2                        L     R0,COLNLN
 0046EC 1810                       25172  2                        LR    R1,R0
 0046EE 58E0 7D8A/0DEE       0511C 25173  2                        VCALL DELRANGE            Delete line
 0046F4                            25177  1                      END
 0046F4 7366/47F0 7376 046F4 046E6 25181  1                      ELSE  BEGIN               Text on current line...
 0046F8 58F0 6014            00014 25192  2                        L     R15,COLNLN
 0046FC 5AF0 6018            00018 25193  2                        A     R15,COLDEL
 004700 50F0 6014            00014 25194  2                        ST    R15,COLNLN          Go on to next line
 004704 50F0 6008            00008 25195  2                        ST    R15,COLCURLN
 004708                            25196  1                      END
 004708                            25200                       END
                                   25204                       ¿þþþþþþþþþþþþþþþþþþþþþþþþþþþþþþþþþþþþþþþþþþÜ
                                   25205                       Ÿ  Process collect with pending renumber.  Ÿ
                                   25206                       ¾þþþþþþþþþþþþþþþþþþþþþþþþþþþþþþþþþþþþþþþþþþ»
 004708 9110 6021/47E0_00021       25207                       IF    COLFRN,BEGIN        Renumber is pending...
 004710 5810 6014            00014 25222  1                      L     R1,COLNLN           Last line collected
 004714 5A10 C4D0            004D0 25223  1                      A     R1,CVONE
 004718 5010 B73C            0073C 25224  1                      ST    R1,CPLCNO
 00471C 4110 B73C            0073C 25225  1                      LA    R1,CPLCNO
 004720 58E0 7D8E/0DEE       05120 25226  1                      VCALL LOCATE
 004726 91C0 BD84/4770_00D84       25230  1                      IF    ~CPDRPT.CPFNTYT*CPFHIGH,'MVC COLNEXLN,CPLCNO'
 004734 58F0 6018/12FF       00018 25255  1                      LT    R15,COLDEL
 00473A 4770 73B0/58F0_      04742 25259  1                      IF    Z,'L R15,CPDELTA'
 004742 D503 7D6E 6014_05100 00014 25276  1                      IF    (COLNLN,EQ,-1),BEGIN
 00474C 5810 B5A4            005A4 25294  2                        L     R1,CPALLNO          Get LAST line-number
 004750 1AF1                       25295  2                        AR    R15,R1              END line-number
 004752                            25296  1                      END
 004752 73C4/47F0 73C8_04752 0474A 25300  1                      ELSE  'A R15,COLNLN'
 00475A 59F0 6004/47A0_      00004 25317  1                      IF    (R15,GE,COLNEXLN),COLFIX  No room, renumber
 004762 50F0 6008            00008 25337  1                      ST    R15,COLCURLN
 004766 94EF 6021      00021       25338  1                      CLEAR COLFRN              There's room now
1LINE     (LINE2193) (12:47) (15MAR04) COLLECT Command                                                                      Page   74
0Current Usings:  (COLWA,R6) (*,R7) (COLWA-(4+36),R8) (CP,R11) (CV,R12)
0Loc    Object Code    Addr1 Addr2  Stmt Lv Lineno    Source Statement           (Hibal 5, Asmedit 3.3)  HLASM R4.0  2004/03/15 12.47
+___    ______ ____    _____ _____  ____ __ ______    ______ _________
000476A 47F0 73FC            0478E 25345  1                      B     COLLOOP
 00476E                            25346                       END
                                   25350                       ¿þþþþþþþþþþþþþþþþþþþþþþþþþþþþþþþþþþþþþþþþþþþþþþþþÜ
                                   25351                       Ÿ  Save next line-number in case of a renumber.  Ÿ
                                   25352                       ¾þþþþþþþþþþþþþþþþþþþþþþþþþþþþþþþþþþþþþþþþþþþþþþþþ»
 00476E 4110 6008            00008 25353                       LA    R1,COLCURLN
 004772 58E0 7D8E/0DEE       05120 25354                       VCALL LOCATE
 004778 9108 BD84/4710_00D84       25358                       IF    CPDRPT.CPFMTCH,COLEXIST  Line already exists
 004780 91C0 BD84/4770_00D84       25377                       IF    ~CPDRPT.CPFNTYT*CPFHIGH,'MVC COLNEXLN,CPLCNO'
1LINE     (LINE2193) (12:47) (15MAR04) COLLECT Command                                                                      Page   75
0Current Usings:  (COLWA,R6) (*,R7) (COLWA-(4+36),R8) (CP,R11) (CV,R12)
0Loc    Object Code    Addr1 Addr2  Stmt Lv Lineno    Source Statement           (Hibal 5, Asmedit 3.3)  HLASM R4.0  2004/03/15 12.47
+___    ______ ____    _____ _____  ____ __ ______    ______ _________
0                                  25403              **
                                   25404              **  Main collect loop
                                   25405              **
-00478E D503 7D6E 6014_05100 00014 25407              COLLOOP  IF    (COLNLN,NE,-1),'MVC COLNLN,COLCURLN'
 00479E 9110 B477/47E0_00477       25432                       IF    CPFTYPED,'MVC CPACINFO,COLINFO'  Save options
 0047AC 9110 6000/47E0_00000       25453              COLLOOPA IF    COLFLIST,BEGIN      List prev line...
 0047B4 9180 BAC8/4710_00AC8       25469  1                      IF    CPVFPAGE,EXIT       Page mode, don't bother
 0047BC 9110 6021/47E0_00021       25487  1                      IF    COLFRN,BEGIN        Must fake lineno...
 0047C4 58F0 6004            00004 25502  2                        L     R15,COLNEXLN
 0047C8 50F0 B73C            0073C 25503  2                        ST    R15,CPLCNO
 0047CC 58E0 7D7E/0DEE       05110 25504  2                        VCALL PREVLNO             Get previous lineno
 0047D2 58F0 B73C/12FF       0073C 25508  2                        LT    R15,CPLCNO
 0047D8 4740 7468            047FA 25512  2                        IF    NEG,EXIT
 0047DC 4110 6022/4100_      00022 25526  2                        SETMSG COLLINE            Line text area
 0047E4 58E0 7D86/0DEE       05118 25540  2                        VCALL GETLINE             Get line
 0047EA 4770 7468            047FA 25544  2                        IF    NZ,EXIT             (Shouldn't happen)
 0047EE D203 B73C 600C 0073C 0000C 25558  2                        MVC   CPLCNO,COLNWEND     Use "renumbered" lineno
 0047F4 58E0 7D92/0DEE       05124 25559  2                        VCALL LISTLINE
 0047FA                            25563  1                      END
 0047FA 746C/47F0 7476_047FA 047C2 25567  1                      ELSE  'LA R1,COLCURLN; VCALL LOCLIST'
 004808 94EF 6000      00000       25588  1                      CLEAR COLFLIST
 00480C                            25595                       END
                                   25599
 00480C 5800 6008            00008 25600                       L     R0,COLCURLN         Next lineno to collect
 004810 9110 6021/47E0_00021       25601                       IF    COLFRN,'L R0,COLNWEND; A R0,CPWKDL'
 004820 5000 B73C            0073C 25623                       ST    R0,CPLCNO           Save for inner mod/edit
                                   25624
 004824 48F0 601E/12FF       0001E 25625                       LTH   R15,COLCNT          No. of lines remaining
 00482A 4780 74BA            0484C 25629                       IF    NZ,BEGIN            There is a limit...
 00482E 06F0                       25640  1                      DECR  R15
 004830 40F0 601E            0001E 25642  1                      STH   R15,COLCNT          One less line
 004834 12FF/4770 74BA             25643  1                      IF    (R15,NZ),EXIT
 00483A 9110 B477/47E0_00477       25660  1                      IF    CPFTYPED,'MVC CPACINFO,COLINFO'  Save options
 004848 47F0 C7DE            007DE 25681  1                      B     CVNEXT
 00484C                            25682                       END
1LINE     (LINE2193) (12:47) (15MAR04) COLLECT Command                                                                      Page   76
0Current Usings:  (COLWA,R6) (*,R7) (COLWA-(4+36),R8) (CP,R11) (CV,R12)
0Loc    Object Code    Addr1 Addr2  Stmt Lv Lineno    Source Statement           (Hibal 5, Asmedit 3.3)  HLASM R4.0  2004/03/15 12.47
+___    ______ ____    _____ _____  ____ __ ______    ______ _________
0                                  25687                       ¿þþþþþþþþþþþþþþþþþþþþþþÜ
                                   25688                       Ÿ  Page mode collect.  Ÿ
                                   25689                       ¾þþþþþþþþþþþþþþþþþþþþþþ»
 00484C 9180 BAC8/47E0_00AC8       25690                       IF    CPVFPAGE,BEGIN      Page mode...
 004854 9110 6021/47E0_00021       25705  1                      IF    COLFRN,BEGIN        Do renumber now...
 00485C 5820 B73C            0073C 25720  2                        L     R2,CPLCNO           Lineno of line just collected
                                   25721  2
 004860 90F3 D000/41D0_      00000 25722  2                        XPUSH R15,R3
 004868 5800 6010            00010 25725  2                        L     R0,COLFLN           R0 = First lineno
 00486C 5810 BE14            00E14 25726  2                        L     R1,CPWKPS           R1 = Last lineno
 004870 5820 BE18            00E18 25727  2                        L     R2,CPWKDL           R2 = Delta
 004874 1830                       25728  2                        LR    R3,R0               R3 = Starting lineno
 004876 58E0 7D9A/0DEE       0512C 25729  2                        VCALL NUMRANGE            Re-number
 00487C 4BD0 7DFE/98F3_      05190 25733  2                        XPOP  R15,R3
                                   25736  2
 004884 5020 B73C            0073C 25737  2                        ST    R2,CPLCNO           Set lineno
 004888 5020 6008            00008 25738  2                        ST    R2,COLCURLN         Ditto
 00488C D203 6018 BE18 00018 00E18 25739  2                        MVC   COLDEL,CPWKDL       Set new delta
 004892 94EF 6021      00021       25740  2                        CLEAR COLFRN              Reset renumber pending
 004896                            25747  1                      END
                                   25751  1
 004896 58F0 B73C            0073C 25752  1                      L     R15,CPLCNO
 00489A 4110 6022/1B00       00022 25753  1                      SETMSG COLLINE,0
 0048A0 58E0 7D9E/0DEE       05130 25766  1                      VCALL PUTLINE             Add a blank line
 0048A6 4100 0001/5E00_      00001 25770  1                      INCR  R0,CPACHCT          Count the change
                                   25776  1
 0048B2 58F0 B73C            0073C 25777  1                      L     R15,CPLCNO
 0048B6 50F0 6014            00014 25778  1                      ST    R15,COLNLN          Set current collect lineno
 0048BA 50F0 B5A8            005A8 25779  1                      ST    R15,CPACLNO         Set current lineno
 0048BE 50F0 BADC            00ADC 25780  1                      ST    R15,CPVLNO          Set cursor lineno
 0048C2 D201 BADA 7E00 00ADA 05192 25781  1                      MVC   CPVCOL,=H'1'        ...and column 1
                                   25782  1
 0048C8 58E0 7DA2/0DEE       05134 25783  1                      VCALL PAGELINE            Make sure line is displayed
                                   25787  1
 0048CE 9608 6021      00021       25788  1                      SET   COLFPG              Page mode collect in progress
 0048D2 D211 B5C4 6010 005C4 00010 25794  1                      MVC   CPACINFO,COLINFO    Save collect options
 0048D8 47F0 C7DE            007DE 25795  1                      B     CVNEXT
 0048DC                            25796                       END
1LINE     (LINE2193) (12:47) (15MAR04) COLLECT Command                                                                      Page   77
0Current Usings:  (COLWA,R6) (*,R7) (COLWA-(4+36),R8) (CP,R11) (CV,R12)
0Loc    Object Code    Addr1 Addr2  Stmt Lv Lineno    Source Statement           (Hibal 5, Asmedit 3.3)  HLASM R4.0  2004/03/15 12.47
+___    ______ ____    _____ _____  ____ __ ______    ______ _________
0                                  25801                       ¿þþþþþþþþþþþþþþþþþþþþþþÜ
                                   25802                       Ÿ  Line mode collect.  Ÿ
                                   25803                       ¾þþþþþþþþþþþþþþþþþþþþþþ»
 0048DC 58E0 7DA6/0DEE       05138 25804                       ACALL LINERD              Get input
 0048E2 47D0 757E            04910 25808                       IF    POS,BEGIN           Attn only, end of command...
 0048E6 58F0 C1C8            001C8 25819  1                      L     R15,CVCURJCB
 USING  JCB,R15                    25820  1                      WITH  (JCB,R15)
 0048EA 94FD F062      00062       25833  1                      CLEAR JCBFATTN
 0048EE D603 B5AC B5AC_005AC 005AC 25840  1                      IF    (CPALNCT,Z),CVNEXT  ACTIVE is clear
 0048F8 9110 6021/47E0_00021       25859  1                      IF    COLFRN,'SETMSG "Original numbering kept."; B CVNXTMSG'
 00490C 47F0 C7DE            007DE 25884  1                      B     CVNEXT
 DROP   JCB,R15                    25885                       END
 004910 D2EA 6022 1000 00022 00000 25894                       MVC   COLLINE(&LINESZ),@R1  Save copy of line
 004916 90F0 D000/41D0_      00000 25895                       XPUSH R15,R0              Save rc & len
                                   25898
 00491E D603 B5AC B5AC_005AC 005AC 25899                       IF    (CPALNCT,Z),BEGIN   Set Active file title...
 004928 D64F B5D6 B5D6_005D6 005D6 25915  1                      IF    (CPATITL,NZ),EXIT   Already set, forget it
 004932 D24F B5D6 7CD6 005D6 05068 25934  1                      MVC   CPATITL,=CL(L'CPATITL)'Newly collected text'
 004938                            25935                       END
                                   25939
 004938 9110 6021/47E0_00021       25940                       IF    COLFRN,BEGIN        Do renumber now...
 004940 5820 B73C            0073C 25955  1                      L     R2,CPLCNO           Lineno of line just collected
                                   25956  1
 004944 90F3 D000/41D0_      00000 25957  1                      XPUSH R15,R3
 00494C 5800 6010            00010 25960  1                      L     R0,COLFLN           R0 = First lineno
 004950 5810 BE14            00E14 25961  1                      L     R1,CPWKPS           R1 = Last lineno
 004954 5820 BE18            00E18 25962  1                      L     R2,CPWKDL           R2 = Delta
 004958 1830                       25963  1                      LR    R3,R0               R3 = Starting lineno
 00495A 58E0 7D9A/0DEE       0512C 25964  1                      VCALL NUMRANGE            Re-number
 004960 5020 BE18            00E18 25968  1                      ST    R2,CPWKDL           Save delta actually used
 004964 4BD0 7DFE/98F3_      05190 25969  1                      XPOP  R15,R3
                                   25972  1
 00496C 5020 B73C            0073C 25973  1                      ST    R2,CPLCNO           Set lineno
 004970 5020 6008            00008 25974  1                      ST    R2,COLCURLN         Ditto
 004974 D203 6018 BE18 00018 00E18 25975  1                      MVC   COLDEL,CPWKDL       Set new delta
 00497A 94EF 6021      00021       25976  1                      CLEAR COLFRN              Reset renumber pending
 00497E                            25983                       END
 00497E 4BD0 7E02/98F0_      05194 25987                       XPOP  R15,R0
 004986 D203 B5A8 B73C 005A8 0073C 25990                       MVC   CPACLNO,CPLCNO      Set current lineno
 00498C 4110 6022            00022 25991                       LA    R1,COLLINE
                                   25992                       ¿þþþþþþþþþþþþþþþþþþþþþþþþþþþþþþþþþþþþþþþþþþþþþþþþþþþþþþþþþþþþþþþÜ
                                   25993                       Ÿ  Collect line ending with @BREAK means invoke command retry.  Ÿ
                                   25994                       ¾þþþþþþþþþþþþþþþþþþþþþþþþþþþþþþþþþþþþþþþþþþþþþþþþþþþþþþþþþþþþþþþ»
 004990 12FF/47B0 768C             25995                       IF    (R15,NEG),BEGIN     @break ending...
                                   26009  1                      ¿þþþþþþþþþþþþþþþþþþþþþþþþþÜ
                                   26010  1                      Ÿ  Modify previous line.  Ÿ
                                   26011  1                      ¾þþþþþþþþþþþþþþþþþþþþþþþþþ»
 004996 1200/4770 765C             26012  1                      IF    (R0,Z),BEGIN        Just @break, mod prev line...
 00499C 58F0 6008            00008 26026  2                        L     R15,COLCURLN
 0049A0 50F0 B73C            0073C 26027  2                        ST    R15,CPLCNO
 0049A4 58E0 7D7E/0DEE       05110 26028  2                        VCALL PREVLNO             Get previous lineno
 0049AA 47B0 7632            049C4 26032  2                        IF    NEG,BEGIN           No previous line...
 0049AE 4110 7E14/4100_      051A6 26043  3                          TSEG  'No previous line.',,CR
 0049C0 47F0 73FC            0478E 26061  3                          B     COLLOOP
1LINE     (LINE2193) (12:47) (15MAR04) COLLECT Command                                                                      Page   78
0Current Usings:  (COLWA,R6) (*,R7) (COLWA-(4+36),R8) (CP,R11) (CV,R12)
0Loc    Object Code    Addr1 Addr2  Stmt Lv Lineno    Source Statement           (Hibal 5, Asmedit 3.3)  HLASM R4.0  2004/03/15 12.47
+___    ______ ____    _____ _____  ____ __ ______    ______ _________
00049C4                            26062  2                        END
 0049C4 58F0 B73C            0073C 26066  2                        L     R15,CPLCNO
 0049C8 4110 6022/4100_      00022 26067  2                        SETMSG COLLINE
 0049D0 58E0 7D86/0DEE       05118 26081  2                        VCALL GETLINE             Get previous line text
                                   26085  2
 0049D6 4110 6022            00022 26086  2                        LA    R1,COLLINE
 0049DA D203 BC74 6008 00C74 00008 26087  2                        MVC   CPMODNEX,COLCURLN   Tell modify this is next
 0049E0 58E0 7DAE/0DEE       05140 26088  2                        ACALL LINEMOD             Do line mods
 0049E6 4740 C7DE            007DE 26092  2                        BM    CVNEXT              Abort command
 0049EA 47F0 73FC            0478E 26093  2                        B     COLLOOP
 0049EE                            26094  1                      END
                                   26098  1                      ¿þþþþþþþþþþþþþþþþþþþþþþþþÜ
                                   26099  1                      Ÿ  Modify current line.  Ÿ
                                   26100  1                      ¾þþþþþþþþþþþþþþþþþþþþþþþþ»
 0049EE 58F0 6018/12FF       00018 26101  1                      LT    R15,COLDEL
 0049F4 4770 766A/58F0_      049FC 26105  1                      IF    Z,'L R15,CPDELTA'
 0049FC 5AF0 6008            00008 26122  1                      A     R15,COLCURLN        Next line
 004A00 59F0 6004/47D0_      00004 26123  1                      IF    (R15,GT,COLNEXLN),'L R15,COLNEXLN'
 004A0C 50F0 BC74            00C74 26146  1                      ST    R15,CPMODNEX        Tell modify about next line
 004A10 58E0 7DAE/0DEE       05140 26147  1                      ACALL LINEMOD             Do line mods
 004A16 4740 C7DE            007DE 26151  1                      BM    CVNEXT              Abort command
 004A1A 4720 73FC            0478E 26152  1                      BP    COLLOOP             Abort mods
 004A1E                            26153                       END
                                   26157                       ¿þþþþþþþþþþþþþþþþþþþþþþþþþþÜ
                                   26158                       Ÿ  Normal collected line.  Ÿ
                                   26159                       ¾þþþþþþþþþþþþþþþþþþþþþþþþþþ»
 004A1E 7690/47F0 76BA 04A1E 04994 26160                       ELSE  BEGIN               Normal ending...
 004A22 58F0 6008            00008 26171  1                      L     R15,COLCURLN        Lineno
 004A26 58E0 7DB2/0DEE       05144 26172  1                      VCALL LENCHKM
 004A2C 58E0 7DB6/0DEE       05148 26176  1                      VCALL PRESS
 004A32 9640 BD53      00D53       26180  1                      SET   CPLFLG4.CPFSTINS    Stow options
 004A36 58E0 7DBA/0DEE       0514C 26187  1                      VCALL STOW
 004A3C 4740 7722            04AB4 26191  1                      BM    COLEXIST            Can't replace line
 004A40 41F0 0001/5EF0_      00001 26192  1                      INCR  R15,CPACHCT         Kick change count
 004A4C                            26198                       END
1LINE     (LINE2193) (12:47) (15MAR04) COLLECT Command                                                                      Page   79
0Current Usings:  (COLWA,R6) (*,R7) (COLWA-(4+36),R8) (CP,R11) (CV,R12)
0Loc    Object Code    Addr1 Addr2  Stmt Lv Lineno    Source Statement           (Hibal 5, Asmedit 3.3)  HLASM R4.0  2004/03/15 12.47
+___    ______ ____    _____ _____  ____ __ ______    ______ _________
0                                  26203                       ¿þþþþþþþþþþþþþþþþþþþþþþþþþþþþþþþþþþþþþþþþþþþþþþþÜ
                                   26204                       Ÿ  Figure out the next line-number to collect.  Ÿ
                                   26205                       ¾þþþþþþþþþþþþþþþþþþþþþþþþþþþþþþþþþþþþþþþþþþþþþþþ»
 004A4C D503 6008 B5A4_00008 005A4 26206              COLMORE  IF    (COLCURLN,GE,CPALLNO),'MVC COLNLN,=F"-1"'
                                   26231
 004A5C 5800 6008            00008 26232                       L     R0,COLCURLN         Current lineno
 004A60 D503 7D6E 6010_05100 00010 26233                       IF    (COLFLN,EQ,-1),'ST R0,COLFLN'  Remember first lineno
 004A6E 5810 6018/1211       00018 26257                       LT    R1,COLDEL           Delta
 004A74 4770 76EA/5810_      04A7C 26261                       IF    Z,'L R1,CPDELTA'
 004A7C 58E0 7D76/0DEE_      05108 26278                       IF    ('VCALL ADDER',M),COLFIX  Go renumber
 004A86 5900 6004/47B0_      00004 26297                       IF    (R0,LT,COLNEXLN),'ST R0,COLCURLN; B COLLOOP'
 004A96 9180 6021/47E0_00021       26321                       IF    COLFMR,BEGIN        Merge...
 004A9E 5000 6008            00008 26336  1                      ST    R0,COLCURLN
 004AA2 4110 6008            00008 26337  1                      LA    R1,COLCURLN
 004AA6 58E0 7D8E/0DEE       05120 26338  1                      VCALL LOCATE
 004AAC 9108 BD84/47E0_00D84       26342  1                      IF    CPDRPT.CPFMTCH,BEGIN
 004AB4 4110 7E25/4100_      051B7 26358  2           COLEXIST     TSEG  'Line '
 004AC6 5800 B73C            0073C 26376  2                        L     R0,CPLCNO
 004ACA 58E0 7DC2/0DEE       05154 26377  2                        VCALL CVEXNO
 004AD0 41F0 B050/58E0_      00050 26381  2                        TSEG  (R1),(R0)
 004ADA 4110 7E2A/4100_      051BC 26405  2                        ERROR ' already in file.'
 004AE6                            26412  1                      END
 004AE6 D203 6004 C160 00004 00160 26416  1                      MVC   COLNEXLN,CVHILNO
 004AEC 91C0 BD84/4770_00D84       26417  1                      IF    CPDRPT.CPFNTYT+CPFHIGH,COLLOOP
 004AF4 D203 6004 B73C 00004 0073C 26439  1                      MVC   COLNEXLN,CPLCNO
 004AFA 9120 BD54/4710_00D54       26440  1                      IF    ~CPLFLG5.CPFNLST,'SET COLFLIST'
 004B06 47F0 73FC            0478E 26467  1                      B     COLLOOP
 004B0A                            26468                       END
                                   26472
 004B0A 5800 6010/1200       00010 26473              COLFIX   LT    R0,COLFLN           First line
 004B10 47B0 77B6            04B48 26477                       IF    NEG,BEGIN           Nothing yet, so just change delta...
 004B14 5820 B5A4            005A4 26488  1                      L     R2,CPALLNO          Save LAST line-number value
 004B18 5810 C15C            0015C 26489  1                      L     R1,CVMAXLNO
 004B1C 1B12                       26490  1                      SR    R1,R2               Distance before last lineno
 004B1E 4720 779C/4110_      04B2E 26491  1                      IF    NP,'ABORT "Can''t go past line &MAXLNO"'
 004B2E 1B00                       26514  1                      CLEAR R0
 004B30 5D00 7DE2            05174 26518  1                      D     R0,=F'5'            Allow at least five lines
 004B34 58E0 7D82/0DEE       05114 26519  1                      VCALL SELDELTA            Pick a good number
 004B3A 5010 6018            00018 26523  1                      ST    R1,COLDEL           Save new delta
 004B3E 1A12                       26524  1                      AR    R1,R2               Next lineo to use
 004B40 5010 6008            00008 26525  1                      ST    R1,COLCURLN         Save it
 004B44 47F0 73FC            0478E 26526  1                      B     COLLOOP             Try it again
 004B48                            26527                       END
 004B48 5810 6004            00004 26531                       L     R1,COLNEXLN
 004B4C 0610                       26532                       DECR  R1                  Last available line
 004B4E 5010 BE14            00E14 26534                       ST    R1,CPWKPS           Save for logic below
 004B52 58E0 7DE6/0DEE       05178 26535                       VCALL CNTRANGE            Get no. of lines
 004B58 5800 6010            00010 26539                       L     R0,COLFLN
 004B5C 4770 77D8            04B6A 26540                       IF    Z,BEGIN             No lines in range...
 004B60 D203 6008 6010 00008 00010 26551  1                      MVC   COLCURLN,COLFLN     Just start prompt over again
 004B66 94EF 6021      00021       26552  1                      CLEAR COLFRN              don't actually try renumbering
 004B6A 77DC/47F0 7852 04B6A 04B5E 26559                       END   ELSE,BEGIN          Do renumber calculations...
 004B6E 182F                       26574  1                      LR    R2,R15              Save no. of lines
 004B70 5810 BE14            00E14 26575  1                      L     R1,CPWKPS
1LINE     (LINE2193) (12:47) (15MAR04) COLLECT Command                                                                      Page   80
0Current Usings:  (COLWA,R6) (*,R7) (COLWA-(4+36),R8) (CP,R11) (CV,R12)
0Loc    Object Code    Addr1 Addr2  Stmt Lv Lineno    Source Statement           (Hibal 5, Asmedit 3.3)  HLASM R4.0  2004/03/15 12.47
+___    ______ ____    _____ _____  ____ __ ______    ______ _________
0004B74 5B10 6010            00010 26576  1                      S     R1,COLFLN           Distance between lines
 004B78 4100 1001            00001 26577  1                      LA    R0,@R1+1            Max no of line-numbers possible
 004B7C 19F0/4750 782C             26578  1                      IF    (R15,GE,R0),BEGIN   No more line-numbers...
 004B82 4110 7D26/4100_      050B8 26593  2                        TSEG  'Collect aborted '
 004B94 D503 6004 C160_00004 00160 26611  2                        IF    (COLNEXLN,GE,CVHILNO),CVABORT
 004B9E 4110 7E3B/4100_      051CD 26632  2                        TSEG  'by line',,B
 004BB0 5800 6004            00004 26650  2                        L     R0,COLNEXLN
 004BB4 58E0 7DC2/0DEE       05154 26651  2                        VCALL CVEXNO
 004BBA 47F0 C7CC            007CC 26655  2                        B     CVABTMSG
 004BBE                            26656  1                      END
 004BBE 41F0 F005            00005 26660  1                      LA    R15,@R15+5          Allow at least five more lines
 004BC2 1B00                       26661  1                      CLEAR R0
 004BC4 1D0F                       26665  1                      DR    R0,R15              Average distance between lines
 004BC6 58E0 7D82/0DEE       05114 26666  1                      VCALL SELDELTA            Make it a nice number
 004BCC 5010 BE18            00E18 26670  1                      ST    R1,CPWKDL           Save for NUMRNG
 004BD0 9610 6021      00021       26671  1                      SET   COLFRN              Flag renumber pending
 004BD4 0620                       26677  1                      DECR  R2
 004BD6 1B00                       26679  1                      CLEAR R0
 004BD8 1C02                       26683  1                      MR    R0,R2
 004BDA 1801                       26684  1                      LR    R0,R1
 004BDC 5A00 6010            00010 26685  1                      A     R0,COLFLN           Calc. new ending lineno
 004BE0 5000 600C            0000C 26686  1                      ST    R0,COLNWEND         Save it (for later)
 004BE4                            26687                       END
                                   26691
 004BE4 9180 BAC8/4710_00AC8       26692                       IF    ~CPVFPAGE,BEGIN     Write msg if in line mode...
 004BEC 4110 7E04/4100_      05196 26707  1                      TSEG  'Renumbered by '
 004BFE 5800 BE18            00E18 26725  1                      L     R0,CPWKDL
 004C02 58E0 7DC2/0DEE       05154 26726  1                      VCALL CVEXNO
 004C08 41F0 B050/58E0_      00050 26730  1                      TSEG  (R1),(R0),WR
 004C12 58F0 C1C8            001C8 26754  1                      L     R15,CVCURJCB
 004C16 94FD F062      00062       26755  1                      WITH  (JCB,R15),'CLEAR JCBFATTN'
 USING  JCB,R15
 DROP   JCB,R15
 004C1A                            26785                       END
 004C1A 47F0 73FC            0478E 26789                       B     COLLOOP
 004C1E 18D8/9808 D004_            26790                       PEND  ,                   WE EXIT SOMEWHERE ABOVE
 DROP   COLWA-(4+36),R8
 DROP   *,R7
1LINE     (LINE2193) (12:47) (15MAR04) COLLECT Command                                                                      Page   81
0Current Usings:  (COLWA,R6) (CP,R11) (CV,R12)
0Loc    Object Code    Addr1 Addr2  Stmt Lv Lineno    Source Statement           (Hibal 5, Asmedit 3.3)  HLASM R4.0  2004/03/15 12.47
+___    ______ ____    _____ _____  ____ __ ______    ______ _________
0                                  26816              *
                                   26817              *
                                   26818              *  COLLECT SCKWS AND SCKW ROUTINES
                                   26819              *
                                   26820              *
 004C2C 4040404040404040_          26821              COLLNPRT SCKW  ,COLLNO,SYMLN
 004C54 4040404040404040_          26836                       SCKW  ,COLNOLNO
                                   26851
 004C7C 4040404040404040_          26852              COLCLPRT SCKW  ,V(CLRPSH),PUSH
 004CA4 4040404040404040_          26867                       SCKW  ,V(SCNNOOP)
                                   26882
 004CCC C2E8404040404040_          26883              COLPRT   SCKW  BY,COLBY,(P,LN)
 004CF4 D4C5D9C7C5404040_          26898                       SCKW  MERGE,COLMERGE,A
 004D1C D5D6D4C5D9C7C540_          26913                       SCKW  NOMERGE,COLNMER,A
 004D44 E5C9C5E640404040_          26928                       SCKW  VIEW,COLVIEW,A
 004D6C E540404040404040_          26943                       SCKW  V,COLVIEW
 004D94 4040404040404040_          26958                       SCKW  ,V(LTNPSH),PUSH
 004DBC 4040404040404040_          26973                       SCKW  ,V(CLRPSH),PUSH
 004DE4 4040404040404040_          26988                       SCKW  ,V(LENPSH),PUSH
 004E0C 4040404040404040_          27003                       SCKW  ,V(CASEPSH),PUSH
 004E34 4040404040404040_          27018                       SCKW  ,COLCCHK
                                   27033
 004E5C 50E0 D000/9008_      00000 27034              COLLNO   PROC  ,                   SCANED LINE NUMBER
 USING  *,R7
 004E76 9680 6000      00000       27073                       SET   COLFSPEC            Specific lineno specified
 004E7A D203 6010 7276 00010 050EC 27079                       MVC   COLFLN,=F'-1'       No first line collected yet
 004E80 9101 B477/4710_00477       27080                       IF    (CPGFNLST,OR,~CPFTYPED),'SET COLFG5.CPFNLST'
                                   27121              *        IF    (R15,EQ,16),'L R0,=F"-1"'  end specified
 004E94 5910 B738/4770_      00738 27122                       IF    (R1,EQ,CPDELTA),'CLEAR R1'
 004E9E 5000 6014            00014 27148                       ST    R0,COLNLN           SAVE LINE NUMBER
 004EA2 5010 6018            00018 27149                       ST    R1,COLDEL           SAVE DELTA
 004EA6 41F0 0004            00004 27150                       LA    R15,4
 004EAA 18D8/9808 D004_            27151                       PEND
 DROP   *,R7
                                   27171
 004EB8 50E0 D000/9008_      00000 27172              COLNOLNO PROC  ,                   NO LINE NUMBER SPECIFIED
 USING  *,R7
 004ED2 41F0 0008            00008 27211                       LA    R15,8
 004ED6 18D8/9808 D004_            27212                       PEND
 DROP   *,R7
                                   27232
 004EE4 50E0 D000/9008_      00000 27233              COLBY    PROC
 USING  *,R7
 004EFE 1200/4770 700C_            27272                       IF    (R0,Z),'VCALL NOTVALID'
 004F0A 5000 6018            00018 27295                       ST    R0,COLDEL
 004F0E 18D8/9808 D004_            27296                       PEND
 DROP   *,R7
                                   27316
 004F1C 50E0 D000/9008_      00000 27317              COLMERGE PROC
 USING  *,R7
 004F36 9680 6021      00021       27356                       SET   COLFMR
 004F3A 18D8/9808 D004_            27362                       PEND
 DROP   *,R7
                                   27382
1LINE     (LINE2193) (12:47) (15MAR04) COLLECT Command                                                                      Page   82
0Current Usings:  (COLWA,R6) (*,R7) (CP,R11) (CV,R12)
0Loc    Object Code    Addr1 Addr2  Stmt Lv Lineno    Source Statement           (Hibal 5, Asmedit 3.3)  HLASM R4.0  2004/03/15 12.47
+___    ______ ____    _____ _____  ____ __ ______    ______ _________
0004F48 50E0 D000/9008_      00000 27383              COLNMER  PROC
 USING  *,R7
 004F62 947F 6021      00021       27422                       CLEAR COLFMR
 004F66 18D8/9808 D004_            27429                       PEND
 DROP   *,R7
                                   27449
 004F74 50E0 D000/9008_      00000 27450              COLVIEW  PROC
 USING  *,R7
 004F8E 9608 6000      00000       27489                       SET   COLFVIEW
 004F92 18D8/9808 D004_            27495                       PEND
 DROP   *,R7
                                   27515              *
                                   27516              *
 004FA0 50E0 D000/9008_      00000 27517              COLCCHK  PROC
 USING  *,R7
 004FBA 954D 1000/4780_00000       27556                       IF    (@R1,NE,'('),'VCALL NOTVALID'
 004FC8 4B00 71EA            051A4 27581                       SH    R0,=H'2'            Account for parens
 004FCC 47B0 701C/58E0_      04FD6 27582                       IF    M,'VCALL NOTVALID'
 004FD6 4110 1001/58E0_      00001 27602                       DTB   @R1+1,(R0)
 004FE0 4780 7030/58E0_      04FEA 27620                       IF    NZ,'VCALL NOTVALID'
 004FEA 41F0 F001            00001 27640                       LA    R15,@R15+1          Save no. of lines+1
 004FEE 40F0 601E            0001E 27641                       STH   R15,COLCNT          Number of lines to collect
 004FF2 1BFF                       27642                       CLEAR R15
 004FF4 18D8/9808 D004_            27646                       PEND
 DROP   *,R7
                                   27666
 DROP   COLWA,R6                   27667                       DROP  R6
                                   27674              *
                                   27675              *
 005002 D796A289A3899695           27676              COLVMSGX DC    C'Position cursor to where you want to start '
 00502D 839693938583A389           27677                       DC    C'collecting text and press RETURN.'
                                   27678              COLVMSG  EQU   COLVMSGX,*-COLVMSGX,C'X'
                                   27679
                                   27680                       QLTORG
                                   27749
1LINE     (LINE2193) (12:47) (15MAR04) Implied Editing Commands                                                             Page   83
0Current Usings:  (CP,R11) (CV,R12)
0Loc    Object Code    Addr1 Addr2  Stmt Lv Lineno    Source Statement           (Hibal 5, Asmedit 3.3)  HLASM R4.0  2004/03/15 12.47
+___    ______ ____    _____ _____  ____ __ ______    ______ _________
0                                  27751              *
                                   27752              *  END ....
                                   27753              *  AS AN IMPLIED COMMAND.
                                   27754              *
                                   27755              *  WE LET IMPLIED ROUTINE DO IT TO IT, SEE BELOW
                                   27756              *
 0051D4 50E0 D000/9008_      00000 27757              IMPLYEND XPROC ,
 USING  *,R7
                                   27797
 0051EE 58E0 B08C/58FE_      0008C 27798                       SCBKUP ,                  BACKUP TO 'END'
 005224 5810 B08C/1B00_      0008C 27854                       SCAN  IMENDPRT            RESCAN WHOLE THING
 005276 58E0 7E6A/0DEE       06058 27886                       SCANCHK
 00527C 47F0 C7DE            007DE 27891                       B     CVNEXT
 005280 18D8/9808 D004_            27892                       PEND
 DROP   *,R7
                                   27912              *
                                   27913              *
 005290 4040404040404040_          27914              IMENDPRT SCKW  ,IMPLIED,V(MIMPLIED)
 0052B8 4040404040404040_          27929                       SCKW  ,V(NOTVALID)
                                   27944              ¿þþþþþþþþþþþþþþþþþþþþþþþþþþþþþþþþþþþþþþþþþþþþþþþþþþþþþþþþþþþþþþþþþþþþþÜ
                                   27945              Ÿ                                                                     Ÿ
                                   27946              Ÿ  IMPLIED -- Entry for the implied editing (line-number) commands.   Ÿ
                                   27947              Ÿ    On entry, R0 = line-number                                       Ÿ
                                   27948              Ÿ                                                                     Ÿ
                                                      ¾þþþþþþþþþþþþþþþþþþþþþþþþþþþþþþþþþþþþþþþþþþþþþþþþþþþþþþþþþþþþþþþþþþþþþ»
0000000                00000 00110 27949              IMWA     RECORD BEGIN
 000000 00                         27957  1           IMFLAGS    FLAG  ,
 IMFLAGS.IMDELETE  80 ONES         27961  1                      FLAG  IMDELETE
 IMFLAGS.IMINSERT  40 ONES         27966  1                      FLAG  IMINSERT
 000004                            27971  1           IMLINENO   DS    F
 000008                            27972  1           IMTEXTPT   DS    F
 00000C                            27973  1           IMTEXTLN   DS    F
                                   27974  1           IMTEXT     DS    CL(&PRESSZ)
 000010                                   1          +IMTEXT     DS    CL(256)
 000110                00110 00110 27975                       END
                                   27984
 0052E0 50E0 D000/9008_      00000 27985              IMPLIED  XPROC IMWA
 USING  *,R7
 USING  IMWA-(4+36),R8
 0052FA D7FF 8028 8028_00000 00000 28036                       CLEAR IMWA
 005306 5000 802C            00004 28044                       ST    R0,IMLINENO         Save internal line number
 00530A 9620 BD54      00D54       28045                       SET   CPLFLG5.CPFNLST     Nolist default
 00530E 58E0 B08C/581E_      0008C 28052                       SCINFO ,                  Get remaining text
 00531C 1200/47D0 702C_            28061                       IF    (R0,POS),'SET IMINSERT'
 005326 7030/47F0 7034_05326 05320 28086                       ELSE  'SET IMDELETE'
 00532E 5010 8030            00008 28108                       ST    R1,IMTEXTPT
 005332 5E10 7D62            0605C 28109                       INCR  R1                  Skip blank
 005336 0600                       28112                       DECR  R0
 005338 1200/47B0 7046_            28114                       IF    (R0,NEG),'CLEAR R0'
 005340 5900 7D66/47D0_      06060 28137                       CEIL  R0,L'IMTEXT         Not too long
 00534C 5000 8034            0000C 28156                       ST    R0,IMTEXTLN
 005350 1830                       28157                       LR    R3,R0
 005352 0630/1233/4740_            28158                       MOVE  R3,IMTEXT,@R1
1LINE     (LINE2193) (12:47) (15MAR04) Implied Editing Commands                                                             Page   84
0Current Usings:  (*,R7) (IMWA-(4+36),R8) (CP,R11) (CV,R12)
0Loc    Object Code    Addr1 Addr2  Stmt Lv Lineno    Source Statement           (Hibal 5, Asmedit 3.3)  HLASM R4.0  2004/03/15 12.47
+___    ______ ____    _____ _____  ____ __ ______    ______ _________
0                                  28196                       ¿þþþþþþþþþþþþþþþþÜ
                                   28197                       Ÿ  Delete line.  Ÿ
                                   28198                       ¾þþþþþþþþþþþþþþþþ»
 00535E 9180 8028/47E0_00000       28199                       IF    IMDELETE,BEGIN       Delete
 005366 9108 B476/4710_00476       28214  1                      IF    (~CPGFLG3.CPF3IMED,AND,CPFTYPED),BEGIN
 005376 4110 802C            00004 28244  2                        LA    R1,IMLINENO            Point at line
 00537A 58E0 7D6A/0DEE       06064 28245  2                        VCALL LOCATE              Go find line
 005380 9108 BD84/4710_00D84       28249  2                        IF    ~CPDRPT.CPFMTCH,BEGIN
 005388 58E0 7D6E/0DEE       06068 28265  3                          VCALL ACTCHK              No Active file
                                   28269  3
 00538E 4110 7EB6/4100_      061B0 28270  3                          TSEG  'Line '
 0053A0 5800 802C            00004 28288  3                          L     R0,IMLINENO
 0053A4 58E0 7D76/0DEE       06070 28289  3                          VCALL CVEXNO
 0053AA 41F0 B050/58E0_      00050 28293  3                          TSEG  (R1),(R0)
 0053B4 D207 B886 7CFE_00886 05FF8 28317  3                          ABORT ' not in file.',,NOLINESX
 0053C6                            28325  2                        END
                                   28329  2
 0053C6 4110 7D7A/4100_      06074 28330  2                        TSEG  'Delete line '
 0053D8 5800 802C            00004 28348  2                        L     R0,IMLINENO         Lineno
 0053DC 58E0 7D76/0DEE       06070 28349  2                        VCALL CVEXNO
 0053E2 58E0 7D86/0DEE       06080 28353  2                        VCALL YESREQ              Must have YES to continue
 0053E8                            28357  1                      END
                                   28361  1                      COMMENT                   EXECUTE DELETE COMMAND
 0053E8 D203 B242 7D8A 00242 06084 28362  1                      MVC   CPCMD(4),=C'DEL '
 0053EE 5800 802C            00004 28363  1                      L     R0,IMLINENO         Get line number
 0053F2 58E0 7D76/0DEE       06070 28364  1                      VCALL CVEXNO              Format line
 0053F8 D208 B246 BC88 00246 00C88 28368  1                      MVC   CPCMD+4(9),CPDOUB   Move in line
 0053FE 4100 000D            0000D 28369  1                      LA    R0,4+9
 005402 4000 B240            00240 28370  1                      STH   R0,CPCMDLEN
 005406 4110 B242            00242 28371  1                      LA    R1,CPCMD
 00540A 58E0 7D8E/0DEE       06088 28372  1                      VCALL EDTCOMNH            go execute delete cmd, no return
 005410 0000                       28376  1                      BOMB                      never, we exit above
 005412                            28378                       END
                                   28382                       ¿þþþþþþþþþþþþþþþþÜ
                                   28383                       Ÿ  Insert line.  Ÿ
                                   28384                       ¾þþþþþþþþþþþþþþþþ»
 005412 711C/47F0 7214 05412 05364 28385                       ELSE  BEGIN               INSERT
 005416 5820 8030            00008 28396  1                      L     R2,IMTEXTPT
 00541A 9540 2000/4780_00000       28397  1                      IF    ((@R2,NE,' '),AND,(@R2,NE,','),AND,(@R2,NE,'=')),BEGIN
 005432 58E0 7D92/0DEE       0608C 28441  2                        VCALL CMDFIN
 005438                            28445  1                      END
 005438 9108 B476/4710_00476       28449  1                      IF    (~CPGFLG3.CPF3IMED,AND,CPFTYPED),BEGIN
 005448 4110 802C            00004 28479  2                        LA    R1,IMLINENO         Point at internal line no
 00544C 58E0 7D6A/0DEE       06064 28480  2                        VCALL LOCATE              Is it in file?
 005452 9108 BD84/47E0_00D84       28484  2                        IF    CPDRPT.CPFMTCH,BEGIN  replace
 00545A 183F                       28500  3                          LR    R3,R15
 00545C 4110 7EC8/4100_      061C2 28501  3                          TSEG  'Replace line '
 00546E 5800 802C            00004 28519  3                          L     R0,IMLINENO         Lineno
 005472 58E0 7D76/0DEE       06070 28520  3                          VCALL CVEXNO
 005478 58E0 7D86/0DEE       06080 28524  3                          VCALL YESREQ              Must have YES to continue
 00547E 41F0 0003            00003 28528  3                          LA    R15,R3              Line addr
 005482 9120 BD54/4710_00D54       28529  3                          IF    ~CPLFLG5.CPFNLST,BEGIN  List old line
 00548A 181D/41D0 D0EC             28545  4                            XPUSH ,,&LINESZ,PTR=R1
 005490 58E0 7D96/0DEE       06090 28548  4                            VCALL UNPRESS
1LINE     (LINE2193) (12:47) (15MAR04) Implied Editing Commands                                                             Page   85
0Current Usings:  (*,R7) (IMWA-(4+36),R8) (CP,R11) (CV,R12)
0Loc    Object Code    Addr1 Addr2  Stmt Lv Lineno    Source Statement           (Hibal 5, Asmedit 3.3)  HLASM R4.0  2004/03/15 12.47
+___    ______ ____    _____ _____  ____ __ ______    ______ _________
0005496 58E0 7D9A/0DEE       06094 28552  4                            VCALL LISTLINE
 00549C 4BD0 7E38            06132 28556  4                            XPOP  ,,&LINESZ
 0054A0                            28558  3                          END
 0054A0                            28562  2                        END
 0054A0 71AA/47F0 71DE 054A0 05458 28566  2                        ELSE  BEGIN               Insert
 0054A4 4110 7D9E/4100_      06098 28577  3                          TSEG  'Insert line '
 0054B6 5800 802C            00004 28595  3                          L     R0,IMLINENO         Lineno
 0054BA 58E0 7D76/0DEE       06070 28596  3                          VCALL CVEXNO
 0054C0 58E0 7D86/0DEE       06080 28600  3                          VCALL YESREQ              Must have YES to continue
 0054C6 4110 802C            00004 28604  3                          LA    R1,IMLINENO         Addr of lineno for locate
 0054CA 9120 BD54/4710_00D54       28605  3                          IF    ~CPLFLG5.CPFNLST,'VCALL LOCLIST'
 0054D8                            28630  2                        END
 0054D8                            28634  1                      END
 0054D8 5800 8034            0000C 28638  1                      L     R0,IMTEXTLN         Restore count
 0054DC 4110 8038            00010 28639  1                      LA    R1,IMTEXT           Point at text
 0054E0 58F0 802C            00004 28640  1                      L     R15,IMLINENO        Get internal line no
 0054E4 50F0 B5A8            005A8 28641  1                      ST    R15,CPACLNO
 0054E8 58E0 7DAE/0DEE       060A8 28642  1                      VCALL LENCHK
 0054EE 58E0 7DB2/0DEE       060AC 28646  1                      VCALL PRESS
 0054F4 58E0 7DB6/0DEE       060B0 28650  1                      VCALL STOW
 0054FA 9110 B477/47E0_00477       28654  1                      IF    CPFTYPED,'INCR R0,CPACHCT'
 00550E                            28680                       END
                                   28684
 00550E 47F0 C7DE            007DE 28685                       B     CVNEXT
 005512 18D8/9808 D004_            28686                       PEND
 DROP   IMWA-(4+36),R8
 DROP   *,R7
1LINE     (LINE2193) (12:47) (15MAR04) PUTLINE Command                                                                      Page   86
0Current Usings:  (CP,R11) (CV,R12)
0Loc    Object Code    Addr1 Addr2  Stmt Lv Lineno    Source Statement           (Hibal 5, Asmedit 3.3)  HLASM R4.0  2004/03/15 12.47
+___    ______ ____    _____ _____  ____ __ ______    ______ _________
0                                  28712              ¿þþþþþþþþþþþþþþþþþþþþþþþþþþþþþþþþþþþþþþþþþþþþþþþþþþþþþþþþþþþþþþþþþþþþþÜ
                                   28713              Ÿ                                                                     Ÿ
                                   28714              Ÿ  PUTLCMD -- PUTLINE Command.                                        Ÿ
                                   28715              Ÿ                                                                     Ÿ
                                   28716              Ÿ  NOTE:                                                              Ÿ
                                   28717              Ÿ  WE GO THRU A LITTLE EXTRA RIGAMOROLL, SO THAT                      Ÿ
                                   28718              Ÿ  'NEXT +.1' IS SCANNED DIFFERENTLY THAT 'NEXT+.1'                   Ÿ
                                   28719              Ÿ  THIS IS REQUIRED FOR PUTLINE!                                      Ÿ
                                   28720              Ÿ                                                                     Ÿ
                                                      ¾þþþþþþþþþþþþþþþþþþþþþþþþþþþþþþþþþþþþþþþþþþþþþþþþþþþþþþþþþþþþþþþþþþþþþ»
0000000                00000 00004 28721              PUTLWA   RECORD BEGIN
 000000                            28729  1           PUTLLNO    DS    F
 000004                00004 00004 28730                       END
                                   28739              *
                                   28740              *
 005520 50E0 D000/9008_      00000 28741              PUTLCMD  XPROC PUTLWA
 USING  *,R7
 USING  PUTLWA-(4+36),R8
 00553A 4160 8028            00000 28792                       LA    R6,PUTLWA
 USING  PUTLWA,R6                  28793                       USING PUTLWA,R6
                                   28802
                                   28803                       COMMENT                   NOW SCAN LINENO FOR VALUE
 00553E 5810 B08C/1B00_      0008C 28804                       SCAN  PUTLPRT
 005590 58E0 7B1E/0DEE       06058 28836                       SCANCHK ,
 005596 1BFF                       28841                       CLEAR R15
                                   28845
                                   28846                       COMMENT                   PUT LINE
 005598 58E0 B08C/581E_      0008C 28847                       SCINFO ,
 0055A6 5E10 7B22            0605C 28856                       INCR  R1                  Skip blank
 0055AA 0600                       28859                       DECR  R0
 0055AC 1200/47B0 707A_            28861                       IF    (R0,NEG),'CLEAR R0'
 0055B4 58F0 6000            00000 28884                       L     R15,PUTLLNO         Line-number
 0055B8 58E0 7B7E/0DEE       060B8 28885                       VCALL PUTLINE             Save line in file
 0055BE 5820 6000            00000 28889                       L     R2,PUTLLNO
 0055C2 5020 B5A8            005A8 28890                       ST    R2,CPACLNO          Set current lineno
 0055C6 9110 B477/47E0_00477       28891                       IF    CPFTYPED,'INCR R15,CPACHCT'  Count typed changes
 0055DA 47F0 C7DE            007DE 28917                       B     CVNEXT
 0055DE 18D8/9808 D004_            28918                       PEND
 DROP   PUTLWA-(4+36),R8
 DROP   *,R7
                                   28943              *
                                   28944              *
 0055EC 4040404040404040_          28945              PUTLPRT  SCKW  ,PUTLNULL,NULL
 005614 4040404040404040_          28960                       SCKW  ,PUTLLINE,V(MIMPLIED)
 00563C 4040404040404040_          28975                       SCKW  ,PUTLERR
                                   28990
 005664 50E0 D000/9008_      00000 28991              PUTLNULL PROC
 USING  *,R7
 00567E 4110 7B51/4100_      061CF 29030                       ERROR 'Missing line-number on PUTLINE command.'
 00568A 18D8/9808 D004_            29037                       PEND
 DROP   *,R7
                                   29057
 005698 50E0 D000/9008_      00000 29058              PUTLLINE PROC
1LINE     (LINE2193) (12:47) (15MAR04) PUTLINE Command                                                                      Page   87
0Current Usings:  (PUTLWA,R6) (*,R7) (CP,R11) (CV,R12)
0Loc    Object Code    Addr1 Addr2  Stmt Lv Lineno    Source Statement           (Hibal 5, Asmedit 3.3)  HLASM R4.0  2004/03/15 12.47
+___    ______ ____    _____ _____  ____ __ ______    ______ _________
0USING  *,R7
 0056B2 5000 6000            00000 29097                       ST    R0,PUTLLNO
 0056B6 41F0 0004            00004 29098                       LA    R15,4
 0056BA 18D8/9808 D004_            29099                       PEND
 DROP   *,R7
                                   29119
 0056C8 50E0 D000/9008_      00000 29120              PUTLERR  PROC
 USING  *,R7
 0056E2 41F0 B050/58E0_      00050 29159                       TSEG  (R1),(R0)
 0056EC 4110 7A52/4100_      06134 29183                       ERROR ': invalid line number for PUTLINE.'
 0056F8 18D8/9808 D004_            29190                       PEND
 DROP   *,R7
                                   29210
 DROP   PUTLWA,R6                  29211                       DROP  R6
1LINE     (LINE2193) (12:47) (15MAR04) PUTEND Command                                                                       Page   88
0Current Usings:  (CP,R11) (CV,R12)
0Loc    Object Code    Addr1 Addr2  Stmt Lv Lineno    Source Statement           (Hibal 5, Asmedit 3.3)  HLASM R4.0  2004/03/15 12.47
+___    ______ ____    _____ _____  ____ __ ______    ______ _________
0                                  29219              ¿þþþþþþþþþþþþþþþþþþþþþþþþþþþþþþþþþþþþþþþþþþþþþþþþþþþþþþþþþþþþþþþþþþþþþÜ
                                   29220              Ÿ                                                                     Ÿ
                                   29221              Ÿ  PUTEND -- PUTEND Command.                                          Ÿ
                                   29222              Ÿ                                                                     Ÿ
                                                      ¾þþþþþþþþþþþþþþþþþþþþþþþþþþþþþþþþþþþþþþþþþþþþþþþþþþþþþþþþþþþþþþþþþþþþþ»
0005706 50E0 D000/9008_      00000 29223              PUTEND   XPROC
 USING  *,R7
                                   29263
                                   29264                       COMMENT                   Get END line number
 005720 58E0 799C/0DEE       060BC 29265                       VCALL ENDLNO
 005726 47B0 7016            05736 29269                       IF    NEG,BEGIN
 00572A 4110 7A36/4100_      06156 29280  1                      ABORT 'PUTEND not possible, no more line-numbers.'
 005736                            29287                       END
                                   29291
                                   29292                       COMMENT                   Put line
 005736 1820                       29293                       LR    R2,R0               Save line-number
 005738 58E0 B08C/581E_      0008C 29294                       SCINFO ,                  Remainder of line
 005746 5E10 793C            0605C 29303                       INCR  R1                  Skip blank
 00574A 0600                       29306                       DECR  R0
 00574C 1200/47B0 7034_            29308                       IF    (R0,NEG),'CLEAR R0'
 005754 18F2                       29331                       LR    R15,R2              Line-number
 005756 58E0 7998/0DEE       060B8 29332                       VCALL PUTLINE             Save line in file
 00575C 5020 B5A8            005A8 29336                       ST    R2,CPACLNO          Set current lineno
 005760 9110 B477/47E0_00477       29337                       IF    CPFTYPED,'INCR R15,CPACHCT'  Count typed changes
 005774 47F0 C7DE            007DE 29363                       B     CVNEXT
 005778 18D8/9808 D004_            29364                       PEND
 DROP   *,R7
1LINE     (LINE2193) (12:47) (15MAR04) PUTLINET Command                                                                     Page   89
0Current Usings:  (CP,R11) (CV,R12)
0Loc    Object Code    Addr1 Addr2  Stmt Lv Lineno    Source Statement           (Hibal 5, Asmedit 3.3)  HLASM R4.0  2004/03/15 12.47
+___    ______ ____    _____ _____  ____ __ ______    ______ _________
0                                  29385              ¿þþþþþþþþþþþþþþþþþþþþþþþþþþþþþþþþþþþþþþþþþþþþþþþþþþþþþþþþþþþþþþþþþþþþþÜ
                                   29386              Ÿ                                                                     Ÿ
                                   29387              Ÿ  PUTLCMDT -- PUTLINET Command (varient of PUTLINE command).         Ÿ
                                   29388              Ÿ                                                                     Ÿ
                                   29389              Ÿ  NOTE:                                                              Ÿ
                                   29390              Ÿ  WE GO THRU A LITTLE EXTRA RIGAMOROLL, SO THAT                      Ÿ
                                   29391              Ÿ  'NEXT +.1' IS SCANNED DIFFERENTLY THAT 'NEXT+.1'                   Ÿ
                                   29392              Ÿ  THIS IS REQUIRED FOR PUTLINE!                                      Ÿ
                                   29393              Ÿ                                                                     Ÿ
                                                      ¾þþþþþþþþþþþþþþþþþþþþþþþþþþþþþþþþþþþþþþþþþþþþþþþþþþþþþþþþþþþþþþþþþþþþþ»
0000000                00000 000F7 29394              TABLWA   RECORD BEGIN
 000000                            29402  1           TABLLNO    DS    F
 000004                            29403  1           TABLLEN    DS    F           [Order] Saved line length
 000008                            29404  1           TABLLOC    DS    A           [Order] Saved line location
                                   29405  1           TABLSAVE   DS    XL(&LINESZ)         Saved copy of a line
 00000C                                   1          +TABLSAVE   DS    XL(235)             Saved copy of a line
 0000F7                000F7 000F7 29406                       END
                                   29415              þþþþ
 005786 50E0 D000/9008_      00000 29416              PUTLCMDT XPROC TABLWA
 USING  *,R7
 USING  TABLWA-(4+36),R8
 0057A0 4160 8028            00000 29467                       LA    R6,TABLWA
 USING  TABLWA,R6                  29468                       USING TABLWA,R6
                                   29477
                                   29478                       COMMENT                   NOW SCAN LINENO FOR VALUE
 0057A4 5810 B08C/1B00_      0008C 29479                       SCAN  TABLPRT
 0057F6 58E0 78B8/0DEE       06058 29511                       SCANCHK ,
 0057FC 1BFF                       29516                       CLEAR R15
                                   29520
                                   29521                       COMMENT                   PUT LINE
 0057FE 58E0 B08C/581E_      0008C 29522                       SCINFO ,
 00580C 5E10 78BC            0605C 29531                       INCR  R1                  Skip blank
 005810 0600                       29534                       DECR  R0
 005812 1200/47B0 707A_            29536                       IF    (R0,NEG),'CLEAR R0'
                                   29559                       ¿þþþþþþþþþþþþþþþþþþþþþþþþþþþþþþþþþþþþþþþþþþþþþþþþþþÜ
                                   29560                       Ÿ  Change vertical bars to EBCDIC tab characters.  Ÿ
                                   29561                       ¾þþþþþþþþþþþþþþþþþþþþþþþþþþþþþþþþþþþþþþþþþþþþþþþþþþ»
 00581A 9001 6004            00004 29562                       STM   R0,R1,TABLLEN       Save line length, loc
 00581E 1200/47D0 7114             29563                       WHILE (R0,POS),BEGIN      Go through line...
                                   29579  1                      ¿þþþþþþþþþþþþþþþþþþþþþþþþþþþþþþþþþþþþþþþþþþþþþþþþþþþþþþþÜ
                                   29580  1                      Ÿ  Check for "\\" or "\|" escaped character sequences.  Ÿ
                                   29581  1                      ¾þþþþþþþþþþþþþþþþþþþþþþþþþþþþþþþþþþþþþþþþþþþþþþþþþþþþþþþ»
 005824 95E0 1000/4770_00000       29582  1                      IF    (@R1,EQ,'\'),BEGIN  Escape sequence...
 00582C 5900 78BC/47C0_      0605C 29598  2                        IF    (R0,LE,1),EXIT      Last character, scram
 005834 95E0 1001/4780_00001       29618  2                        IF    ((@R1+1,EQ,'\'),OR,(@R1+1,EQ,'|')),BEGIN
 005844 18F0                       29649  3                          LR    R15,R0
 005846 06F0/12FF/4740_            29650  3                          MOVE  R15,TABLSAVE,@R1
 005852 06F0/12FF/4740_            29688  3                          MOVE  R15,@R1,TABLSAVE+1
 00585E 58F0 6004/06F0_      00004 29726  3                          DECR  R15,TABLLEN         Reduce actual data length
 005868 0600                       29731  3                          DECR  R0                  One less character
 00586A                            29733  2                        END
                                   29737  2
 00586A 70CE/47F0 70FA 0586A 05842 29738  2                        ELSE  BEGIN               Bad sequence...
1LINE     (LINE2193) (12:47) (15MAR04) PUTLINET Command                                                                     Page   90
0Current Usings:  (TABLWA,R6) (*,R7) (TABLWA-(4+36),R8) (CP,R11) (CV,R12)
0Loc    Object Code    Addr1 Addr2  Stmt Lv Lineno    Source Statement           (Hibal 5, Asmedit 3.3)  HLASM R4.0  2004/03/15 12.47
+___    ______ ____    _____ _____  ____ __ ______    ______ _________
000586E 4100 0002/41F0_      00002 29749  3                          TSEG  @R1,2
 00587C 4110 7A56/4100_      061F6 29778  3                          TSEG  ': invalid TAB sequence '
 00588E 4110 7924/4100_      060C4 29796  3                          ERROR '(backslashes are treated specially).'
 00589A                            29803  2                        END
 00589A                            29807  1                      END
                                   29811  1                      ¿þþþþþþþþþþþþþþþþþþþþþþþþþþþþþþþþþþþþþþþþþþþþþþþþþþþþþÜ
                                   29812  1                      Ÿ  Change a vertical bar to an EBCDIC TAB character.  Ÿ
                                   29813  1                      ¾þþþþþþþþþþþþþþþþþþþþþþþþþþþþþþþþþþþþþþþþþþþþþþþþþþþþþ»
 00589A 70FE/47F0 710A_0589A 0582A 29814  1                      ELSEIF (@R1,EQ,'|'),BEGIN  Change vertical bar to tab...
 0058A6 9205 1000      00000       29839  2                        MVI   @R1,X'05'           Change to TAB
 0058AA                            29840  1                      END
                                   29844  1
 0058AA 4110 1001            00001 29845  1                      LA    R1,@R1+1
 0058AE 0600                       29846  1                      DECR  R0
 0058B0 47F0 707E            0581E 29848                       END
 0058B4 9801 6004            00004 29853                       LM    R0,R1,TABLLEN       Restore line length, loc
                                   29854
 0058B8 58F0 6000            00000 29855                       L     R15,TABLLNO         Line-number
 0058BC 58E0 7918/0DEE       060B8 29856                       VCALL PUTLINE             Save line in file
 0058C2 5820 6000            00000 29860                       L     R2,TABLLNO
 0058C6 5020 B5A8            005A8 29861                       ST    R2,CPACLNO          Set current lineno
 0058CA 9110 B477/47E0_00477       29862                       IF    CPFTYPED,'INCR R15,CPACHCT'  Count typed changes
 0058DE 47F0 C7DE            007DE 29888                       B     CVNEXT
 0058E2 18D8/9808 D004_            29889                       PEND
 DROP   TABLWA-(4+36),R8
 DROP   *,R7
                                   29914                       ¿þþþþþþþþþþþþþþþþþþþþþÜ
                                   29915                       Ÿ  PUTLINET options.  Ÿ
                                   29916                       ¾þþþþþþþþþþþþþþþþþþþþþ»
 0058F0 4040404040404040_          29917              TABLPRT  SCKW  ,TABLNULL,NULL
 005918 4040404040404040_          29932                       SCKW  ,TABLLINE,V(MIMPLIED)
 005940 4040404040404040_          29947                       SCKW  ,TABLERR
                                   29962              þþþþ
 005968 50E0 D000/9008_      00000 29963              TABLNULL PROC
 USING  *,R7
 005982 4110 767E/4100_      06000 30002                       ERROR 'Missing line-number on PUTLINET command.'
 00598E 18D8/9808 D004_            30009                       PEND
 DROP   *,R7
                                   30029
 00599C 50E0 D000/9008_      00000 30030              TABLLINE PROC
 USING  *,R7
 0059B6 5000 6000            00000 30069                       ST    R0,TABLLNO
 0059BA 41F0 0004            00004 30070                       LA    R15,4
 0059BE 18D8/9808 D004_            30071                       PEND
 DROP   *,R7
                                   30091
 0059CC 50E0 D000/9008_      00000 30092              TABLERR  PROC
 USING  *,R7
 0059E6 41F0 B050/58E0_      00050 30131                       TSEG  (R1),(R0)
 0059F0 4110 7827/4100_      0620D 30155                       ERROR ': invalid line number for PUTLINET.'
 0059FC 18D8/9808 D004_            30162                       PEND
 DROP   *,R7
                                   30182
 DROP   TABLWA,R6                  30183                       DROP  R6
1LINE     (LINE2193) (12:47) (15MAR04) INSERT Command                                                                       Page   91
0Current Usings:  (CP,R11) (CV,R12)
0Loc    Object Code    Addr1 Addr2  Stmt Lv Lineno    Source Statement           (Hibal 5, Asmedit 3.3)  HLASM R4.0  2004/03/15 12.47
+___    ______ ____    _____ _____  ____ __ ______    ______ _________
0000000                00000 00288 30191              INSWA    RECORD BEGIN
 000000 00                         30199  1           INSFLAG    FLAG
 INSFLAG.INSFDIT   80 ONES         30203  1                      FLAG  INSFDIT             - Ditto
 INSFLAG.INSFGOTL  40 ONES         30208  1                      FLAG  INSFGOTL            - Got line (for ditto)
 000004                            30213  1           INSCNT     DS    F                   insert line count
                                   30214  1
                                   30215  1           INSLINE    DS    CL(&LINESZ)
 000008                                   1          +INSLINE    DS    CL(235)
                                   30216  1                      DS    CL(&PRESSZ-&LINESZ)
 0000F3                                   1          +           DS    CL(256-235)
                                   30217  1
 000108                            30218  1                      DS    0F                  Start of linenos
 000108                            30219  1           INSLINS    DS    32XL12              Lineno(4)+delta(4)+no.lines(4)
 000288                00288 00288 30220                       END
-                                  30230              ¿þþþþþþþþþþþþþþþþþþþþþþþþþþþþþþþþþþþþþþþþþþþþþþþþþþþþþþþþþþþþþþþþþþþþþÜ
                                   30231              Ÿ                                                                     Ÿ
                                   30232              Ÿ                                                                     Ÿ
                                   30233              Ÿ  INSERT -- INSERT command.                                          Ÿ
                                   30234              Ÿ                                                                     Ÿ
                                   30235              Ÿ                                                                     Ÿ
                                   30236              Ÿ                                                                     Ÿ
                                                      ¾þþþþþþþþþþþþþþþþþþþþþþþþþþþþþþþþþþþþþþþþþþþþþþþþþþþþþþþþþþþþþþþþþþþþþ»
0005A0A 50E0 D000/9008_      00000 30237              INSERT   XPROC INSWA
 USING  *,R7
 USING  INSWA-(4+36),R8
 005A24 4160 8028            00000 30288                       LA    R6,INSWA
 USING  INSWA,R6                   30289                       USING INSWA,R6
 005A28 D7FF 6000 6000_00000 00000 30298                       CLEAR INSWA
 005A3A 9101 B477/4710_00477       30307                       IF    (CPGFNLST,OR,~CPFTYPED),'SET CPLFLG5.CPFNLST'
 005A4E 5810 B08C/1B00_      0008C 30348                       SCAN  INSPRT
 005AA0 58E0 7634/0DEE       06058 30380                       SCANCHK
 005AA6 5850 6004            00004 30385                       L     R5,INSCNT           COUNT OF LINE NOS. (R5)
 005AAA 1255/4770 7098             30386                       IF    (R5,Z),BEGIN
 005AB0 4110 775C/4100_      06180 30400  1                      ERROR 'Missing line-number(s) for INSERT command.'
 005ABC                            30407                       END
                                   30411
 005ABC 4C50 7786            061AA 30412                       MH    R5,=Y(L'INSLINS)
 005AC0 4155 6108            00108 30413                       LA    R5,INSLINS(R5)      Last+1 lineno
 005AC4 4140 6108            00108 30414                       LA    R4,INSLINS          First lineno starts here
                                   30415
 005AC8 1945/47B0 7286             30416                       WHILE (R4,LT,R5),BEGIN    Go through insert lines...
 005ACE 9180 BAC8/4710_00AC8       30433  1                      IF    ~CPVFPAGE,BEGIN     Line mode...
 005AD6 9120 BD54/4710_00D54       30448  2                        IF    ~CPLFLG5.CPFNLST,'LR R1,R4; VCALL LOCLIST; TWRITE'
 005AF2                            30499  1                      END
                                   30503  1
 005AF2 5830 4008            00008 30504  1                      L     R3,@R4+8            No. of lines to insert
                                   30505  1
 005AF6 1233/47D0 727E             30506  1                      WHILE (R3,POS),BEGIN
1LINE     (LINE2193) (12:47) (15MAR04) INSERT Command                                                                       Page   92
0Current Usings:  (INSWA,R6) (*,R7) (INSWA-(4+36),R8) (CP,R11) (CV,R12)
0Loc    Object Code    Addr1 Addr2  Stmt Lv Lineno    Source Statement           (Hibal 5, Asmedit 3.3)  HLASM R4.0  2004/03/15 12.47
+___    ______ ____    _____ _____  ____ __ ______    ______ _________
0                                  30522  2                        ¿þþþþþþþþþþþþþþþþþþþþþÜ
                                   30523  2                        Ÿ  Page mode insert.  Ÿ
                                   30524  2                        ¾þþþþþþþþþþþþþþþþþþþþþ»
 005AFC 9180 BAC8/47E0_00AC8       30525  2                        IF    CPVFPAGE,BEGIN      Page mode...
 005B04 58F0 4000            00000 30540  3                          L     R15,@R4
 005B08 4110 6008/1B00       00008 30541  3                          SETMSG INSLINE,0
 005B0E 58E0 7694/0DEE       060B8 30554  3                          VCALL PUTLINE             Add a null line
 005B14 4100 0001/5E00_      00001 30558  3                          INCR  R0,CPACHCT          Count the change
                                   30564  3
 005B20 58F0 4000            00000 30565  3           INSPRTRY       L     R15,@R4
 005B24 58E0 76CC/0DEE       060F0 30566  3                          VCALL PAGELINE            Add line to page
 005B2A 4780 7124            05B48 30570  3                          IF    NZ,BEGIN            The page is full...
 005B2E D24F BAFC C4D8 00AFC 004D8 30581  4                            MVC   CPVMSG,CVBLANKS
 005B34 D22E BAFC 75A4 00AFC 05FC8 30582  4                            MVC   CPVMSG(L'INSMSG),INSMSG  Press CONTINUE
 005B3A 58E0 76D0/0DEE       060F4 30583  4                            VCALL PAGEMOD             Display the page
 005B40 4770 C7EA            007EA 30587  4                            BNZ   CVNOACTN
 005B44 47F0 70FC            05B20 30588  4                            B     INSPRTRY            Try it again
 005B48                            30589  3                          END
 005B48 47F0 725E            05C82 30593  3                          B     INSNEXT
 005B4C                            30594  2                        END
                                   30598  2                        ¿þþþþþþþþþþþþþþþþþþþþþÜ
                                   30599  2                        Ÿ  Line mode insert.  Ÿ
                                   30600  2                        ¾þþþþþþþþþþþþþþþþþþþþþ»
 005B4C 9640 BD53      00D53       30601  2           INSREPR      SET   CPLFLG4.CPFSTINS    For stow: insert only mode
 005B50 9140 6000/4710_00000       30609  2                        IF    ~INSFGOTL,BEGIN     Prompt for line...
 005B58 5800 4000            00000 30624  3                          L     R0,@R4              Lineno
 005B5C 5000 B73C            0073C 30625  3                          ST    R0,CPLCNO           Save lineno (for inner mod/edit)
 005B60 58E0 76D4/0DEE       060F8 30626  3                          ACALL LINERD
 005B66 4720 C7DA            007DA 30630  3                          BP    CVABORT             Just attn, abort command
                                   30631  3
 005B6A 47B0 71EC            05C10 30632  3                          IF    NEG,BEGIN           Do if @attn...
 005B6E 1200/4770 7196             30643  4                            IF    (R0,Z),BEGIN        Just @attn, mod prev line...
 005B74 58E0 76D8/0DEE       060FC 30657  5                              VCALL PREVLNO             Get previous lineno
 005B7A 47B0 7170            05B94 30661  5                              IF    NEG,BEGIN
 005B7E 4110 780C/4100_      06230 30672  6                                TSEG  'No previous line.',,CR
 005B90 47F0 7128            05B4C 30690  6                                B     INSREPR
 005B94                            30691  5                              END
 005B94 D203 BC74 4000 00C74 00000 30695  5                              MVC   CPMODNEX,@R4        Tell modify about "next" line
 005B9A 58F0 B73C            0073C 30696  5                              L     R15,CPLCNO
 005B9E 4110 6008/4100_      00008 30697  5                              SETMSG INSLINE
 005BA6 58E0 76E0/0DEE       06104 30711  5                              VCALL GETLINE             Get line text
 005BAC 58E0 76E4/0DEE       06108 30715  5                              ACALL LINEMOD             Do line mods
 005BB2 4740 C7DE            007DE 30719  5                              BM    CVNEXT              Abort command
 005BB6 47F0 7128            05B4C 30720  5                              B     INSREPR
 005BBA                            30721  4                            END
                                   30725  4
 005BBA D2EA 6008 1000 00008 00000 30726  4                            MVC   INSLINE,@R1         Save line text
 005BC0 4110 6008            00008 30727  4                            LA    R1,INSLINE          Point to saved line
 005BC4 5930 7638/47D0_      0605C 30728  4                            IF    (R3,GT,1),'L R15,@R4; A R15,@R4+4; ST R15,CPMODNEX'
 005BD8 58E0 76E4/0DEE       06108 30753  4                            ACALL LINEMOD             Do line mods
 005BDE 4740 C7DE            007DE 30757  4                            BM    CVNEXT              Abort command
 005BE2 4720 7128            05B4C 30758  4                            BP    INSREPR             Abort mods
 005BE6 9180 6000/47E0_00000       30759  4                            IF    ~INSFDIT,INSNEXT
 005BEE D203 B73C 4000 0073C 00000 30777  4                            MVC   CPLCNO,@R4          Original lineno
1LINE     (LINE2193) (12:47) (15MAR04) INSERT Command                                                                       Page   93
0Current Usings:  (INSWA,R6) (*,R7) (INSWA-(4+36),R8) (CP,R11) (CV,R12)
0Loc    Object Code    Addr1 Addr2  Stmt Lv Lineno    Source Statement           (Hibal 5, Asmedit 3.3)  HLASM R4.0  2004/03/15 12.47
+___    ______ ____    _____ _____  ____ __ ______    ______ _________
0005BF4 4110 B73C            0073C 30778  4                            LA    R1,CPLCNO
 005BF8 58E0 7640/0DEE       06064 30779  4                            VCALL LOCATE
 005BFE 91C0 BD84/4770_00D84       30783  4                            IF    (CPDRPT.CPFNTYT+CPFHIGH,NZ),INSREPR
 005C06 D2FF 6008 1000 00008 00000 30807  4                            MVC   INSLINE(&PRESSZ),@R1
 005C0C 47F0 725E            05C82 30808  4                            B     INSNEXT
 005C10                            30809  3                          END
                                   30813  3
 005C10 D2EA 6008 1000 00008 00000 30814  3                          MVC   INSLINE,@R1         Save line text
 005C16 4110 6008            00008 30815  3                          LA    R1,INSLINE          Point to saved line
 005C1A 58F0 4000            00000 30816  3                          L     R15,@R4             Lineno
 005C1E 58E0 76E8/0DEE       0610C 30817  3                          VCALL LENCHKM             Check for excessive length
 005C24 58E0 7688/0DEE       060AC 30821  3                          VCALL PRESS
 005C2A 4100 0001/5E00_      00001 30825  3                          INCR  R0,CPACHCT          Kick change count
 005C36                            30831  2                        END
 005C36 D203 6008 4000 00008 00000 30835  2                        MVC   INSLINE(4),@R4      Set lineno
 005C3C 4110 6008            00008 30836  2                        LA    R1,INSLINE          Pressed line loc
 005C40 1F00/4300 600C             30837  2                        LC    R0,INSLINE+4        ... and len
 005C46 58E0 768C/0DEE       060B0 30842  2                        VCALL STOW
 005C4C 47B0 725E            05C82 30846  2                        IF    M,BEGIN             Line already exists
 005C50 4110 76EC/4100_      06110 30857  3                          TSEG  'Line',,B
 005C62 5800 B73C            0073C 30875  3                          L     R0,CPLCNO
 005C66 58E0 764C/0DEE       06070 30876  3                          VCALL CVEXNO
 005C6C 41F0 B050/58E0_      00050 30880  3                          TSEG  (R1),(R0),B
 005C76 4110 7604/4100_      06028 30904  3                          ERROR 'already in file.'
 005C82                            30911  2                        END
 005C82 9801 4000            00000 30915  2           INSNEXT      LM    R0,R1,@R4           Lineno & delta
 005C86 5000 B5A8            005A8 30916  2                        ST    R0,CPACLNO          Set current line ptr
 005C8A 1A01                       30917  2                        AR    R0,R1
 005C8C 5000 4000            00000 30918  2                        ST    R0,@R4              Next lineno
 005C90 0630                       30919  2                        DECR  R3
 005C92 9180 6000/47E0_00000       30921  2                        IF    INSFDIT,'SET INSFGOTL'  Ditto this line
 005C9E 47F0 70D2            05AF6 30947  1                      END
                                   30952  1
 005CA2 4140 400C            0000C 30953  1                      LA    R4,@R4+L'INSLINS    Next lineno
 005CA6 47F0 70A4            05AC8 30954                       END
 005CAA 47F0 C7DE            007DE 30959                       B     CVNEXT
 005CAE 18D8/9808 D004_            30960                       PEND
 DROP   INSWA-(4+36),R8
 DROP   *,R7
1LINE     (LINE2193) (12:47) (15MAR04) INSERT Command                                                                       Page   94
0Current Usings:  (INSWA,R6) (CP,R11) (CV,R12)
0Loc    Object Code    Addr1 Addr2  Stmt Lv Lineno    Source Statement           (Hibal 5, Asmedit 3.3)  HLASM R4.0  2004/03/15 12.47
+___    ______ ____    _____ _____  ____ __ ______    ______ _________
0                                  30986              *
                                   30987              *  INSERT SCKWS AND SCKWS ROUTINES
                                   30988              *
                                   30989              *
 005CBC 4040404040404040_          30990              INSPRT   SCKW  ,INSLNO,SYMLN
 005CE4 C4C9E3E3D6404040_          31005                       SCKW  DITTO,IDITTO,A
 005D0C 4040404040404040_          31020                       SCKW  ,V(LTNPSH),PUSH
 005D34 4040404040404040_          31035                       SCKW  ,V(CASEPSH),PUSH
 005D5C 4040404040404040_          31050                       SCKW  ,V(LENPSH),PUSH
 005D84 4040404040404040_          31065                       SCKW  ,V(NOTVALID)
                                   31080
 005DAC 50E0 D000/9008_      00000 31081              IDITTO   PROC
 USING  *,R7
 005DC6 9680 6000      00000       31120                       SET   INSFDIT
 005DCA 18D8/9808 D004_            31126                       PEND
 DROP   *,R7
                                   31146              *
                                   31147              *
                                   31148              *  SAVE AND CHECK INSERT LINE NUMBERS
                                   31149              *
                                   31150              *
 005DD8 50E0 D000/9008_      00000 31151              INSLNO   PROC
 USING  *,R7
                                   31190
                                   31191                       COMMENT                   GET INSERT INFO AREA (R4)
 005DF2 5840 6004            00004 31192                       L     R4,INSCNT
 005DF6 5E40 726A            0605C 31193                       INCR  R4
 005DFA 5040 6004            00004 31196                       ST    R4,INSCNT
 005DFE 5940 7326/47D0_      06118 31197                       IF    (R4,GT,30),BEGIN
 005E06 4110 744F/4100_      06241 31214  1                      ERROR 'Too many insert line numbers specified.'
 005E12                            31221                       END
 005E12 0640                       31225                       DECR  R4
 005E14 4C40 73BA            061AC 31227                       MH    R4,=AL2(L'INSLINS)
 005E18 4144 6108            00108 31228                       LA    R4,INSLINS(R4)
                                   31229
                                   31230                       COMMENT                   SAVE LINE NUMBER AND DELTA
 005E1C 9001 4000            00000 31231                       STM   R0,R1,@R4
 005E20 5000 B73C            0073C 31232                       ST    R0,CPLCNO
                                   31233
                                   31234                       COMMENT                   SCAN FOR (nnn) INSERT COUNT
 005E24 5810 B08C/1B00_      0008C 31235                       SCAN
 005E72 58E0 7266/0DEE       06058 31266                       SCANCHK
 005E78 1200/47D0 70C6_            31271                       IF    ((R0,POS),AND,(@R1,EQ,'(')),BEGIN   IF COUNT
 005E86 4B00 73BC            061AE 31300  1                      SH    R0,=Y(2)
 005E8A 47B0 70A2/58E0_      05E94 31301  1                      IF    M,'VCALL NOTVALID'
 005E94 4110 1001/58E0_      00001 31321  1                      DTB   @R1+1,(R0)
 005E9E 4780 70B6/58E0_      05EA8 31339  1                      IF    NZ,'VCALL NOTVALID'
 005EA8 59F0 7332/47D0_      06124 31359  1                      IF    (R15,GT,X'7FFF'),'VCALL NOTVALID'
 005EB6 183F                       31385  1                      LR    R3,R15              No. of lines to insert
 005EB8                            31386                       END
 005EB8 70CA/70CA/47F0_05EB8 05E7C 31390                       ELSE  BEGIN               NO COUNT, USE DEFAULT
 005EBC 58E0 B08C/58FE_      0008C 31403  1                      SCBKUP
 005EF2 4130 0001            00001 31459  1                      LA    R3,1                No. of lines to insert
 005EF6                            31460                       END
1LINE     (LINE2193) (12:47) (15MAR04) INSERT Command                                                                       Page   95
0Current Usings:  (INSWA,R6) (*,R7) (CP,R11) (CV,R12)
0Loc    Object Code    Addr1 Addr2  Stmt Lv Lineno    Source Statement           (Hibal 5, Asmedit 3.3)  HLASM R4.0  2004/03/15 12.47
+___    ______ ____    _____ _____  ____ __ ______    ______ _________
0005EF6 5030 4008            00008 31464                       ST    R3,@R4+8            Save no. of lines to insert
                                   31465
                                   31466                       COMMENT                   CHECK INSERT LINE NUMBER, COUNT
 005EFA 4110 B73C            0073C 31467                       LA    R1,CPLCNO
 005EFE 58E0 7272/0DEE       06064 31468                       VCALL LOCATE
 005F04 9108 BD84/47E0_00D84       31472                       IF    CPDRPT.CPFMTCH,BEGIN  Line already exists...
 005F0C 4110 731E/4100_      06110 31488  1                      TSEG  'Line',,B
 005F1E 5800 B73C            0073C 31506  1                      L     R0,CPLCNO
 005F22 58E0 727E/0DEE       06070 31507  1                      VCALL CVEXNO
 005F28 41F0 B050/58E0_      00050 31511  1                      TSEG  (R1),(R0),B
 005F32 4110 7236/4100_      06028 31535  1                      ERROR 'already in file.'
 005F3E                            31542                       END
 005F3E 5930 726A/47D0_      0605C 31546                       IF    (R3,GT,1),BEGIN
 005F46 5810 B73C            0073C 31563  1                      L     R1,CPLCNO
 005F4A 91C0 BD84/4780_00D84       31564  1                      IF    (CPDRPT.CPFNTYT+CPFHIGH,NZ),'L R1,CVHILNO'
 005F56 5B10 4000            00000 31591  1                      S     R1,@R4              Amount of room before next line
 005F5A 1821                       31592  1                      LR    R2,R1
 005F5C 1B00                       31593  1                      CLEAR R0
 005F5E 1D03                       31597  1                      DR    R0,R3               Distance between each line
 005F60 5910 4004/47A0_      00004 31598  1                      IF    ('C R1,@R4+4',GE),EXIT  Implied delta is fine
 005F68 1211/4770 71BC             31614  1                      IF    (R1,Z),BEGIN
 005F6E 4110 7476/4100_      06268 31628  2                        TSEG  'Only '
 005F80 1812/1B00/41F0_            31646  2                        TNUM  (R2)
 005F8E 4110 7246/4100_      06038 31668  2                        TSEG  ' lines will fit at line '
 005FA0 5800 4000            00000 31686  2                        L     R0,@R4
 005FA4 58E0 727E/0DEE       06070 31687  2                        VCALL CVEXNO
 005FAA 47F0 C7C8            007C8 31691  2                        B     CVERRMSG
 005FAE                            31692  1                      END
 005FAE 58E0 733A/0DEE       0612C 31696  1                      VCALL SELDELTA            Choose a nice delta
 005FB4 5010 4004            00004 31700  1                      ST    R1,@R4+4            Save it
 005FB8                            31701                       END
 005FB8 1BFF                       31705                       CLEAR R15
 005FBA 18D8/9808 D004_            31709                       PEND
 DROP   *,R7
                                   31729
 DROP   INSWA,R6                   31730                       DROP  R6
                                   31737
 005FC8 D79985A2A240C3D6           31738              INSMSG   DC    C'Press CONTINUE [ESC RETURN] to continue INSERT.'
                                   31739
                                   31740                       QLTORG
1LINE     (LINE2193) (12:47) (15MAR04) REPLACE Command                                                                      Page   96
0Current Usings:  (CP,R11) (CV,R12)
0Loc    Object Code    Addr1 Addr2  Stmt Lv Lineno    Source Statement           (Hibal 5, Asmedit 3.3)  HLASM R4.0  2004/03/15 12.47
+___    ______ ____    _____ _____  ____ __ ______    ______ _________
0                                  31818              ¿þþþþþþþþþþþþþþþþþþþþþþþþþþþþþþþþþþþþþþþþþþþþþþþþþþþþþþþþþþþþþþþþþþþþþÜ
                                   31819              Ÿ                                                                     Ÿ
                                   31820              Ÿ                                                                     Ÿ
                                   31821              Ÿ  REPLACE -- REPLACE command.                                        Ÿ
                                   31822              Ÿ                                                                     Ÿ
                                   31823              Ÿ                                                                     Ÿ
                                   31824              Ÿ                                                                     Ÿ
                                                      ¾þþþþþþþþþþþþþþþþþþþþþþþþþþþþþþþþþþþþþþþþþþþþþþþþþþþþþþþþþþþþþþþþþþþþþ»
0000000                00000 00100 31825              REPWA    RECORD BEGIN
                                   31833  1           REPLINWA   DS    CL(&PRESSZ)
 000000                                   1          +REPLINWA   DS    CL(256)
 000100                00100 00100 31834                       END
                                   31843              *
                                   31844              *
 006280 50E0 D000/9008_      00000 31845              REPLACE  XPROC REPWA
 USING  *,R7
 USING  REPWA-(4+36),R8
 00629A D7FF 8028 8028 00000 00000 31896                       CLEAR REPWA
 0062A0 4120 8028            00000 31903                       LA    R2,REPWA
 0062A4 5020 BCA4            00CA4 31904                       ST    R2,CPCWA
                                   31905
 0062A8 58E0 7336/0DEE       065D0 31906                       VCALL NDETRNG
 0062AE 9101 B477/4710_00477       31910                       IF    (CPGFNLST,OR,~CPFTYPED),'SET CPLFLG5.CPFNLST'
                                   31951
 0062C2 5810 B08C/1B00_      0008C 31952                       SCAN  REPPRT
 006314 58E0 7342/0DEE       065DC 31984                       SCANCHK
                                   31989
 00631A 5800 7346/5810_      065E0 31990                       RDRNG REPRTN,(DESNRTN+LOCATRTN+UNPRST+DESABORT)
 006328 0000                       31997                       BOMB                      No return
                                   31999
 00632A 18D8/9808 D004_            32000                       PEND
 DROP   REPWA-(4+36),R8
 DROP   *,R7
                                   32025
 006338 4040404040404040_          32026              REPPRT   SCKW  ,V(LTNPSH),PUSH
 006360 C4C9E3E3D6404040_          32041                       SCKW  DITTO,RDITTO,A
 006388 4040404040404040_          32056                       SCKW  ,V(CASEPSH),PUSH
 0063B0 4040404040404040_          32071                       SCKW  ,V(LENPSH),PUSH
 0063D8 4040404040404040_          32086                       SCKW  ,V(NOTVALID)
                                   32101
 006400 50E0 D000/9008_      00000 32102              RDITTO   PROC
 USING  *,R7
 00641A 9601 BD51      00D51       32141                       SET   CPLFLG2.CPFDITTO
 00641E 18D8/9808 D004_            32148                       PEND
 DROP   *,R7
                                   32168
1LINE     (LINE2193) (12:47) (15MAR04) REPLACE Command                                                                      Page   97
0Current Usings:  (CP,R11) (CV,R12)
0Loc    Object Code    Addr1 Addr2  Stmt Lv Lineno    Source Statement           (Hibal 5, Asmedit 3.3)  HLASM R4.0  2004/03/15 12.47
+___    ______ ____    _____ _____  ____ __ ______    ______ _________
0                                  32170              ¿þþþþþþþþþþþþþþþþþþþþþþþþþþþþþþþþþþþþþþþþþþþþþþþþþþþþþþþþþþþþþþþþþþþþþÜ
                                   32171              Ÿ                                                                     Ÿ
                                   32172              Ÿ  REPRTN -- Entered from the range processor with old line loc       Ÿ
                                   32173              Ÿ    in R1 and len in R0.                                             Ÿ
                                   32174              Ÿ                                                                     Ÿ
                                                      ¾þþþþþþþþþþþþþþþþþþþþþþþþþþþþþþþþþþþþþþþþþþþþþþþþþþþþþþþþþþþþþþþþþþþþþ»
000642C 50E0 D000/9008_      00000 32175              REPRTN   PROC
 USING  *,R7
                                   32214                       ¿þþþþþþþþþþþþþþþþþþþþþþÜ
                                   32215                       Ÿ  Page mode replace.  Ÿ
                                   32216                       ¾þþþþþþþþþþþþþþþþþþþþþþ»
 006446 9180 BAC8/47E0_00AC8       32217                       IF    CPVFPAGE,BEGIN      Page mode...
 00644E 5860 B73C            0073C 32232  1                      L     R6,CPLCNO
 006452 18F6                       32233  1           REPPRTRY   LR    R15,R6
 006454 58E0 71A6/0DEE       065EC 32234  1                      VCALL PAGELINE            Put line on the page
 00645A 4780 703C            06482 32238  1                      IF    NZ,BEGIN            The page is full...
 00645E D24F BAFC C4D8 00AFC 004D8 32249  2                        MVC   CPVMSG,CVBLANKS
 006464 D22F BAFC 7158 00AFC 0659E 32250  2                        MVC   CPVMSG(L'REPMSG),REPMSG  Press CONTINUE
 00646A 58E0 71AA/0DEE       065F0 32251  2                        VCALL PAGEMOD
 006470 4780 7038/58E0_      0647E 32255  2                        IF    NZ,'VCALL RNGABORT; B CVABORT'  abort command
 00647E 47F0 700C            06452 32276  2                        B     REPPRTRY            Try it again
 006482                            32277  1                      END
                                   32281  1
 006482 47F0 714A            06590 32282  1                      B     REPEXIT
 006486                            32283                       END
                                   32287                       ¿þþþþþþþþþþþþþþþþþþþþþþÜ
                                   32288                       Ÿ  Line mode replace.  Ÿ
                                   32289                       ¾þþþþþþþþþþþþþþþþþþþþþþ»
 006486 9120 BD54/4710_00D54       32290                       IF    ~CPLFLG5.CPFNLST,'VCALL LISTLINE'  list old line
 006494 1851                       32315                       LR    R5,R1               Save line
 006496 1840                       32316                       LR    R4,R0               ...ptrs
 006498 9102 BD51      00D51       32317                       TM    CPLFLG2,CPFREP1     Have a repl line for ditto
 00649C 4780 7062            064A8 32318                       BZ    FIRST               No
 0064A0 9101 BD51      00D51       32319                       TM    CPLFLG2,CPFDITTO    Ditto option
 0064A4 4710 7118            0655E 32320                       BO    SAMEREP             Yes, go do replace
 0064A8 5800 B73C            0073C 32321              FIRST    L     R0,CPLCNO           Get located no
 0064AC 58E0 71B6/0DEE       065FC 32322                       ACALL LINERD              Get input
 0064B2 47D0 70A2            064E8 32326                       IF    POS,BEGIN           Break...
 0064B6 4110 71EA/4100_      06630 32337  1                      TSEG  'Line '
 0064C8 5800 B73C            0073C 32355  1                      L     R0,CPLCNO
 0064CC 58E0 71BE/0DEE       06604 32356  1                      VCALL CVEXNO
 0064D2 41F0 B050/58E0_      00050 32360  1                      TSEG  (R1),(R0)
 0064DC 4110 71D8/4100_      0661E 32384  1                      ABORT ' was not replaced.'
 0064E8                            32391                       END
 0064E8 47B0 70D4            0651A 32395                       IF    NEG,BEGIN           Ended with @attn...
 0064EC 1200/4770 70B0_            32406  1                      IF    (R0,Z),'LR R1,R5; LR R0,R4'  use old line
 0064F6 5820 BCA4            00CA4 32427  1                      L     R2,CPCWA
 0064FA D2EA 2000 1000 00000 00000 32428  1                      MVC   @R2(&LINESZ),@R1    Save the line
 006500 58E0 71C2/0DEE       06608 32429  1                      ACALL LINEMOD             Do line modification
 006506 4740 C7DE            007DE 32433  1                      BM    CVNEXT              Stop command
 00650A 4780 714A            06590 32434  1                      BZ    REPEXIT             All was ok
 00650E 58F0 C1C8            001C8 32435  1                      L     R15,CVCURJCB
 006512 94FD F062      00062       32436  1                      WITH  (JCB,R15),'CLEAR JCBFATTN'  Reset attn
1LINE     (LINE2193) (12:47) (15MAR04) REPLACE Command                                                                      Page   98
0Current Usings:  (*,R7) (CP,R11) (CV,R12)
0Loc    Object Code    Addr1 Addr2  Stmt Lv Lineno    Source Statement           (Hibal 5, Asmedit 3.3)  HLASM R4.0  2004/03/15 12.47
+___    ______ ____    _____ _____  ____ __ ______    ______ _________
0USING  JCB,R15
 DROP   JCB,R15
 006516 47F0 7062            064A8 32466  1                      B     FIRST               Abort line, re-prompt
 00651A                            32467                       END
 00651A 58F0 B73C            0073C 32471                       L     R15,CPLCNO          Line no to 15
 00651E 1200/4770 70E6_            32472                       IF    (R0,Z),'SETMSG CVBLANKS,1'  null line
 00652C 9602 BD51      00D51       32507                       OI    CPLFLG2,CPFREP1     Set have repl line
 006530 5820 BCA4            00CA4 32508                       L     R2,CPCWA
 006534 D2EA 2000 1000 00000 00000 32509                       MVC   @R2(&LINESZ),@R1    Move text
 00653A 1812                       32510                       LR    R1,R2
 00653C 58E0 71C6/0DEE       0660C 32511                       VCALL LENCHKM             Compare to current length option
 006542 58E0 71CA/0DEE       06610 32515                       VCALL PRESS               Prest text
 006548 58E0 71CE/0DEE       06614 32519                       VCALL STOW                Go do the replace
 00654E 4100 0001/5E00_      00001 32523                       INCR  R0,CPACHCT          Count typed changes
 00655A 47F0 714A            06590 32529                       B     REPEXIT
                                   32530
 00655E 5810 BCA4            00CA4 32531              SAMEREP  L     R1,CPCWA            Point R1 to replacing line
 006562 D203 1000 B73C 00000 0073C 32532                       MVC   @R1(4),CPLCNO       Set new line no.
 006568 1F00/4300 1004             32533                       LC    R0,@R1+4            Prest count to zero
 00656E 58E0 71CE/0DEE       06614 32538                       VCALL STOW                Replace the line
 006574 9120 BD54      00D54       32542                       TM    CPLFLG5,CPFNLST     Anything to list
 006578 4710 714A            06590 32543                       BO    REPEXIT             No
 00657C 1B00/41F0 B050_            32544                       TWRITE ,                  Write out line
 006588 4720 C7D6            007D6 32569                       BP    CVERROR             Abort if attn
 00658C 47F0 714A            06590 32570                       B     REPEXIT             Normal exit
                                   32571
 006590 18D8/9808 D004_            32572              REPEXIT  PEND
 DROP   *,R7
                                   32593                       DROP  BR
                                   32597
 00659E D79985A2A240C3D6           32598              REPMSG   DC    C'Press CONTINUE [ESC RETURN] to continue REPLACE.'
                                   32599
                                   32600                       QLTORG
1LINE     (LINE2193) (12:47) (15MAR04) CHANGE Command                                                                       Page   99
0Current Usings:  (CP,R11) (CV,R12)
0Loc    Object Code    Addr1 Addr2  Stmt Lv Lineno    Source Statement           (Hibal 5, Asmedit 3.3)  HLASM R4.0  2004/03/15 12.47
+___    ______ ____    _____ _____  ____ __ ______    ______ _________
0                                  32635              ¿þþþþþþþþþþþþþþþþþþþþþþþþþþþþþþþþþþþþþþþþþþþþþþþþþþþþþþþþþþþþþþþþþþþþþÜ
                                   32636              Ÿ                                                                     Ÿ
                                   32637              Ÿ                                                                     Ÿ
                                   32638              Ÿ  CHANGE -- CHANGE command.                                          Ÿ
                                   32639              Ÿ                                                                     Ÿ
                                   32640              Ÿ  REDONE 9/90 ,,, UUGH!                                              Ÿ
                                   32641              Ÿ                                                                     Ÿ
                                   32642              Ÿ                                                                     Ÿ
0                                  32644              Ÿ                                                                     Ÿ
                                   32645              Ÿ                                                                     Ÿ
                                   32646              Ÿ  LOCAL CHANGE WORK AREA                                             Ÿ
                                   32647              Ÿ                                                                     Ÿ
                                   32648              Ÿ                                                                     Ÿ
                                                      ¾þþþþþþþþþþþþþþþþþþþþþþþþþþþþþþþþþþþþþþþþþþþþþþþþþþþþþþþþþþþþþþþþþþþþþ»
0000000                00000 008CC 32649              CHWA     RECORD BEGIN
 000000 00                         32657  1           CHFLAG1    FLAG  ,
 CHFLAG1.CHFCHSTR  80 ONES         32661  1                      FLAG  CHFCHSTR            REPLACE STRING
 CHFLAG1.CHFCHCOL  40 ONES         32666  1                      FLAG  CHFCHCOL            REPLACE COLUMNS
 CHFLAG1.CHFCTEXT  20 ONES         32671  1                      FLAG  CHFCTEXT            C'TEXT'
 CHFLAG1.CHFTO     10 ONES         32676  1                      FLAG  CHFTO               CHANGE .. TO ..
 CHFLAG1.CHFUSING  08 ONES         32681  1                      FLAG  CHFUSING            CHANGE .. USING ..
 CHFLAG1.CHFALL    04 ONES         32686  1                      FLAG  CHFALL              CHANGE ALL ....
 000001 00                         32691  1           CHFLAG2    FLAG  ,
 CHFLAG2.CHFUPPER  80 ONES         32695  1                      FLAG  CHFUPPER
 CHFLAG2.CHFLOWER  40 ONES         32700  1                      FLAG  CHFLOWER
 CHFLAG2.CHFUPLOW  20 ONES         32705  1                      FLAG  CHFUPLOW
 CHFLAG2.CHFMOD    10 ONES         32710  1                      FLAG  CHFMOD
 CHFLAG2.CHFEDIT   08 ONES         32715  1                      FLAG  CHFEDIT
 CHFLAG2.CHFLINE   04 ONES         32720  1                      FLAG  CHFLINE
 CHFLAG2.CHFREP    02 ONES         32725  1                      FLAG  CHFREP
 CHFLAG2.CHFIN     01 ONES         32730  1                      FLAG  CHFIN
 000002 00                         32735  1           CHFLAG3    FLAG  ,
 CHFLAG3.CHFCQUIT  80 ONES         32739  1                      FLAG  CHFCQUIT            QUIT CHANGE COMMAND,
 CHFLAG3.CHFINCR   40 ONES         32744  1                      FLAG  CHFINCR             CHANGE W/INCREMENT
 CHFLAG3.CHFBLNKS  20 ONES         32749  1                      FLAG  CHFBLNKS            STRING TO REPLACE ENDS IN BLANKS
 000003 00                         32754  1           CHFLAG4    FLAG  ,
 CHFLAG4.CHFCHNGD  80 ONES         32758  1                      FLAG  CHFCHNGD            CHANGE(S) MADE
 CHFLAG4.CHFLCHNG  40 ONES         32763  1                      FLAG  CHFLCHNG            CHANGE(S) MADE TO CURRENT LINE
 CHFLAG4.CHFCHCT   20 ONES         32768  1                      FLAG  CHFCHCT             WYLBUR CHANGE COUNT BUMPED
 000004                            32773  1           CHCOL1     DS    F                   COL 1
 000008                            32774  1           CHCOL2     DS    F                   COL 2
 00000C                            32775  1           CHFENCE    DS    F                   FENCE COL
 000010                            32776  1           CHCFENCE   DS    F                   COMPUTATIONAL FENCE COL (=FENCE-1)
 000014                            32777  1           CHOCCUR    DS    F                   OCCURANCE TO CHANGE
 000018                            32778  1           CHOCCCNT   DS    F                   CHANGE COUNT TO CURRENT LINE
 00001C                            32779  1           CHINCR     DS    F                   INCREMENT VALUE
 000020                            32780  1           CHITOTAL   DS    F                   TOTAL VALUE
 000024                            32781  1           CHIOFF     DS    F                   OFFSET OF NUMBER FIELD IN STRING
 000028                            32782  1           CHILEN     DS    F                   LENGTH OF NUMBER FIELD IN STRING
 00002C                            32783  1           CHISIGN    DS    C                   INCREMENT CHAR (-,+,#,$, OR '')
 00002D                            32784  1           CHIPAT     DS    CL12                INCREMENT EDMK PATTERN
 00003C                            32785  1           CHUFIRST   DS    F                   USING FIRST LINE NO
1LINE     (LINE2193) (12:47) (15MAR04) CHANGE Command                                                                       Page  100
0Current Usings:  (CP,R11) (CV,R12)
0Loc    Object Code    Addr1 Addr2  Stmt Lv Lineno    Source Statement           (Hibal 5, Asmedit 3.3)  HLASM R4.0  2004/03/15 12.47
+___    ______ ____    _____ _____  ____ __ ______    ______ _________
0000040                            32786  1           CHULAST    DS    F                   USING LAST LINE NO
 000044                            32787  1           CHUCOL1    DS    F                   USING COL1-1
 000048                            32788  1           CHUCOL2    DS    F                   USING COL RANGE LEN
 00004C                            32789  1           CHUXFIR    DS    F                   USING FIRST (FOR REPEAT USING)
 000050                            32790  1           CHUXLAST   DS    F                   USING LAST (FOR REPEAT USING)
 000054                            32791  1           CHSTR1LN   DS    F                   STRING TO CHANGE
                                   32792  1           CHSTR1     DS    CL(&LINESZ)
 000058                                   1          +CHSTR1     DS    CL(235)
 000144                            32793  1           CHSTR2LN   DS    F                   STRING TO USE AS REPLACEMENT
                                   32794  1           CHSTR2     DS    CL(&LINESZ)
 000148                                   1          +CHSTR2     DS    CL(235)
 000234                            32795  1           CHNDX      DS    F                   LINE INDEX
 000238                            32796  1           CHNDXLIM   DS    F                   LINE INDEX UPPER LIMIT
 00023C                            32797  1           CHMVNDX1   DS    F                   PART OF LINE TO COPY
 000240                            32798  1           CHMVNDX2   DS    F                   START AND END
 000244                            32799  1           CHLNO      DS    F                   LINE NUMBER
 000248                            32800  1           CHLINELN   DS    F
                                   32801  1           CHLINE     DS    CL(&LINESZ)         LINE TO CHANGE
 00024C                                   1          +CHLINE     DS    CL(235)             LINE TO CHANGE
 000338                            32802  1           CHUPLNLN   DS    F
                                   32803  1           CHUPLINE   DS    CL(&LINESZ)         LINE (IN UPPER CASE)
 00033C                                   1          +CHUPLINE   DS    CL(235)             LINE (IN UPPER CASE)
 000428                            32804  1           CHSUBADR   DS    F                   SUBSTITUTE STRING ADDR
 00042C                            32805  1           CHSUBLN    DS    F                   SUBSTITUTE STRING LENGTH
                                   32806  1           CHSUBBUF   DS    CL(&LINESZ)         SUBSTITUTE STRING BUFFER
 000430                                   1          +CHSUBBUF   DS    CL(235)             SUBSTITUTE STRING BUFFER
 00051C                            32807  1           CHNEWNDX   DS    F                   NEW LINE INDEX
                                   32808  1           CHNEWBUF   DS    CL(4*&LINESZ)       NEW LINE BUFFER  (MAY OVERFLOW)
 000520                                   1          +CHNEWBUF   DS    CL(4*235)           NEW LINE BUFFER  (MAY OVERFLOW)
 0008CC                008CC 008CC 32809                       END
1LINE     (LINE2193) (12:47) (15MAR04) CHANGE Command                                                                       Page  101
0Current Usings:  (CP,R11) (CV,R12)
0Loc    Object Code    Addr1 Addr2  Stmt Lv Lineno    Source Statement           (Hibal 5, Asmedit 3.3)  HLASM R4.0  2004/03/15 12.47
+___    ______ ____    _____ _____  ____ __ ______    ______ _________
0                                  32819              *
                                   32820              *
                                   32821              *   CHANGE COMMAND
                                   32822              *
                                   32823              *
                                   32824              *   THE CODE IS DIVIDED INTO BASICALLY 2 PARTS:
                                   32825              *     1. WE SCAN ALL THE VARIOUS OPTIONS.  VERY MINIMAL PROCESSING
                                   32826              *        IS DONE ON THESE OPTIONS. MOSTLY THEY ARE JUST STORED AWAY
                                   32827              *        IN THE LOCAL CHANGE WORK AREA.  WE THEN CALL THE RANGE
                                   32828              *        PROCESSOR.
                                   32829              *     2. THE RANGE PROCESSOR CO-ROUTINE. THIS ROUTINE (AND
                                   32830              *        SUBROUTINES) DO ALL THE ACTUAL LINE CHANGEING. THESE
                                   32831              *        ROUTINES ALSO USE THE LOCAL CHANGE WORK AREA. FOR
                                   32832              *        CHANGE ALGORITHMS SEE THE CO-ROUTINE CODE AND
                                   32833              *        SUBROUTINES.
                                   32834              *
                                   32835              *
 006636 50E0 D000/9008_      00000 32836              CHANGE   XPROC CHWA
 USING  *,R7
 USING  CHWA-(4+36),R8
                                   32887
                                   32888                       COMMENT                   EMERGENCY ZAP LOCATION **
 006650 1900/4780 700C             32889                       IF    (R0,NE,R0),BEGIN
 006656 58E0 7318/0DEE       06968 32904  1                      ACALL CHANGE
 00665C                            32908                       END
                                   32912
 00665C 4160 8028            00000 32913                       LA    R6,CHWA
 USING  CHWA,R6                    32914                       USING CHWA,R6
 006660 D7FF 6000 6000_00000 00000 32923                       CLEAR CHWA
 006696 5060 BCA4            00CA4 32938                       ST    R6,CPCWA
                                   32939
 00669A 9610 BD50      00D50       32940                       SET   CPLFLG1.CPFALL      Allow default all
 00669E 5810 B08C/1B00_      0008C 32947                       SCAN  SCHPRT1             Scan 1st string or posit
 0066F0 58E0 7324/0DEE       06974 32979                       SCANCHK
 0066F6 5810 B08C/1B00_      0008C 32984                       SCAN  TOUSPRT             Scan TO, USING ...
 006748 58E0 7324/0DEE       06974 33016                       SCANCHK
                                   33021
                                   33022                       COMMENT                   SCAN CHANGE ... USING
 00674E 9108 6000/47E0_00000       33023                       IF    CHFUSING,BEGIN
 006756 5810 B08C/1B00_      0008C 33038  1                      SCAN  SCHUSPRT
 0067A8 58E0 7324/0DEE       06974 33070  1                      SCANCHK
 0067AE 5810 B08C/1B00_      0008C 33075  1                      SCAN  SCHUSOPT
 006800 58E0 7324/0DEE       06974 33107  1                      SCANCHK
 006806                            33112                       END
                                   33116
                                   33117                       COMMENT                   SCAN CHANGE ... TO
 006806 9110 6000/47E0_00000       33118                       IF    CHFTO,BEGIN
 00680E 5810 B08C/1B00_      0008C 33133  1                      SCAN  SCHTOPRT
 006860 58E0 7324/0DEE       06974 33165  1                      SCANCHK
 006866 5810 B08C/1B00_      0008C 33170  1                      SCAN  SCHTOOPT
 0068B8 58E0 7324/0DEE       06974 33202  1                      SCANCHK
 0068BE                            33207                       END
                                   33211
                                   33212                       COMMENT                   PROCESS SOME SCANNED OPTIONS
1LINE     (LINE2193) (12:47) (15MAR04) CHANGE Command                                                                       Page  102
0Current Usings:  (CHWA,R6) (*,R7) (CHWA-(4+36),R8) (CP,R11) (CV,R12)
0Loc    Object Code    Addr1 Addr2  Stmt Lv Lineno    Source Statement           (Hibal 5, Asmedit 3.3)  HLASM R4.0  2004/03/15 12.47
+___    ______ ____    _____ _____  ____ __ ______    ______ _________
00068BE 9180 6000/47E0_00000       33213                       IF    CHFCHSTR,BEGIN      SEE IF BLANKS IN SEARCH STR
 0068C6 4110 6058            00058 33228  1                      LA    R1,CHSTR1
 0068CA 5A10 6054            00054 33229  1                      A     R1,CHSTR1LN
 0068CE 0610                       33230  1                      DECR  R1
 0068D0 9540 1000/4770_00000       33232  1                      IF    (@R1,EQ,' '),'SET CHFBLNKS'
 0068DC                            33259                       END
                                   33263
                                   33264                       COMMENT                   SET UP RANGE PROCESSOR
 0068DC 9101 6001/4710_00001       33265                       IF    ~CHFIN,BEGIN        IF NO RANGE GIVEN,
 0068E4 58E0 733C/0DEE       0698C 33280  1                      VCALL NDETRNG             GO SET UP DEFAULT RANGE
 0068EA                            33284                       END
                                   33288
                                   33289                       COMMENT                   PROCESS RANGE
 0068EA 9640 BD57      00D57       33290                       SET   CPFNCUR             Set no current line update
 0068EE D203 B5A8 7340 005A8 06990 33296                       MVC   CPACLNO,=F'-1000'   Set current line invalid
                                   33297                       COMMENT                   PROCESS RANGE
 0068F4 5800 7344/5810_      06994 33298                       RDRNG CHNGRTN,(DESRTRN+LOCATRTN+UNPRST+DESABORT)
                                   33305                       COMMENT                   RANGE PROCESSED
 006902 4770 C7D6            007D6 33306                       BNZ   CVERROR             Br if range aborted by attn
 006906 9102 BD88/47E0_00D88       33307                       IF    ~CPFSOME,CVNEXT     IF NO LINES IN RANGE, ALL DONE
 00690E 9180 6003/4710_00003       33325                       IF    ~CHFCHNGD,BEGIN     IF NO CHANGES, GIVE ERR MSG
 006916 9110 B477/47E0_00477       33340  1                      IF    ~CPFTYPED,CVNEXT
 00691E D207 B886 72F8_00886 06948 33358  1                      ERROR 'Nothing found to change.',,NOCHANGE
 006930                            33366                       END
 006930 47F0 C7DE            007DE 33370                       B     CVNEXT
                                   33371
 006934 18D8/9808 D004_            33372                       PEND
 DROP   CHWA-(4+36),R8
 DROP   *,R7
                                   33397
                                   33398                       QLTORG
1LINE     (LINE2193) (12:47) (15MAR04) CHANGE Command                                                                       Page  103
0Current Usings:  (CHWA,R6) (CP,R11) (CV,R12)
0Loc    Object Code    Addr1 Addr2  Stmt Lv Lineno    Source Statement           (Hibal 5, Asmedit 3.3)  HLASM R4.0  2004/03/15 12.47
+___    ______ ____    _____ _____  ____ __ ______    ______ _________
0                                  33428              *
                                   33429              *  CHANGE COMMAND SCANNING ROUTINES
                                   33430              *
                                   33431              *
 0069A4 4040404040404040_          33432              SCHPRT1  SCKW  ,SCHNULL,NULL
 0069CC E740404040404040_          33447                       SCKW  X,SCHHEX,P
 0069F4 C340404040404040_          33462                       SCKW  C,SCHCSTR,P
 006A1C 4040404040404040_          33477                       SCKW  ,SCHNUM,PI
 006A44 6140404040404040_          33492                       SCKW  /,SCHSLASH
 006A6C C1D3D34040404040_          33507                       SCKW  ALL,SCHALL
 006A94 4040404040404040_          33522                       SCKW  ,SCHSTR
                                   33537
 006ABC 4040404040404040_          33538              TOUSPRT  SCKW  ,MISSTOU,NULL
 006AE4 E3D6404040404040_          33553                       SCKW  TO,SCHTO
 006B0C E4E2C9D5C7404040_          33568                       SCKW  USING,SCHUSING,A
 006B34 C9D5404040404040_          33583                       SCKW  IN,SCHIN            ** YUCK, THIS SCKW ALLOWS
                                   33598                       COMMENT                   BACKWARDS COMPATATBILITY, IE.
                                   33599                       COMMENT                   CH 'XXX' IN <ZZZZ> TO 'MMM'
 006B5C 4040404040404040_          33600                       SCKW  ,V(NOTVALID)
                                   33615
                                   33616                       COMMENT                   CHANGE ... TO ...
 006B84 4040404040404040_          33617              SCHTOPRT SCKW  ,SCHMISS,NULL
 006BAC 4E40404040404040_          33632                       SCKW  +,SCHTPNUM,(P,I)
 006BD4 6040404040404040_          33647                       SCKW  -,SCHTMNUM,(P,I)
 006BFC 4040404040404040_          33662                       SCKW  ,SCHTNUM,I
 006C24 E4D7D7C5D9404040_          33677                       SCKW  UPPER,SCHTUPP,A
 006C4C D3D6E6C5D9404040_          33692                       SCKW  LOWER,SCHTLOW,A
 006C74 E4D7D3D6E6404040_          33707                       SCKW  UPLOW,SCHTUPLO,A
 006C9C E740404040404040_          33722                       SCKW  X,SCHTHEX,P
 006CC4 4040404040404040_          33737                       SCKW  ,SCHTSTR
                                   33752
                                   33753                       COMMENT                   CHANGE ... USING ...
 006CEC 4040404040404040_          33754              SCHUSPRT SCKW  ,SCHMISS,NULL
 006D14 C1D3D34040404040_          33769                       SCKW  ALL,USALL
 006D3C 4040404040404040_          33784                       SCKW  ,USLNO,SYMLN
 006D64 4040404040404040_          33799                       SCKW  ,V(NOTVALID)
                                   33814
                                   33815                       COMMENT                   TO ... OPTIONS
 006D8C D4D6C4C9C6E84040_          33816              SCHTOOPT SCKW  MODIFY,SCHMOD,A
 006DB4 D440404040404040_          33831                       SCKW  M,SCHMOD
 006DDC C5C4C9E340404040_          33846                       SCKW  EDIT,SCHEDIT,A
 006E04 C540404040404040_          33861                       SCKW  E,SCHEDIT
 006E2C D3C9D5C540404040_          33876                       SCKW  LINE,SCHLINE,A
 006E54 D9C5D7C5C1E34040_          33891                       SCKW  REPEAT,SCHREP,A
 006E7C C9D5404040404040_          33906                       SCKW  IN,SCHIN
 006EA4 4040404040404040_          33921                       SCKW  ,V(VERPSH),PUSH
 006ECC 4040404040404040_          33936                       SCKW  ,V(LTNPSH),PUSH
 006EF4 4040404040404040_          33951                       SCKW  ,V(LENPSH),PUSH
 006F1C 4040404040404040_          33966                       SCKW  ,V(NOTVALID)
                                   33981
                                   33982                       COMMENT                   USING ... OPTIONS
 006F44 C3D6D3E4D4D5E240_          33983              SCHUSOPT SCKW  COLUMNS,SCHCOLS,(A,V(MPCOLS))
 006F6C C3D6D3E240404040_          33998                       SCKW  COLS,SCHCOLS,V(MPCOLS)
 006F94 D4D6C4C9C6E84040_          34013                       SCKW  MODIFY,SCHMOD,A
1LINE     (LINE2193) (12:47) (15MAR04) CHANGE Command                                                                       Page  104
0Current Usings:  (CHWA,R6) (CP,R11) (CV,R12)
0Loc    Object Code    Addr1 Addr2  Stmt Lv Lineno    Source Statement           (Hibal 5, Asmedit 3.3)  HLASM R4.0  2004/03/15 12.47
+___    ______ ____    _____ _____  ____ __ ______    ______ _________
0006FBC D440404040404040_          34028                       SCKW  M,SCHMOD
 006FE4 C5C4C9E340404040_          34043                       SCKW  EDIT,SCHEDIT,A
 00700C C540404040404040_          34058                       SCKW  E,SCHEDIT
 007034 D3C9D5C540404040_          34073                       SCKW  LINE,SCHLINE,A
 00705C D9C5D7C5C1E34040_          34088                       SCKW  REPEAT,SCHREP,A
 007084 C9D5404040404040_          34103                       SCKW  IN,SCHIN
 0070AC 4040404040404040_          34118                       SCKW  ,V(VERPSH),PUSH
 0070D4 4040404040404040_          34133                       SCKW  ,V(LTNPSH),PUSH
 0070FC 4040404040404040_          34148                       SCKW  ,V(LENPSH),PUSH
 007124 4040404040404040_          34163                       SCKW  ,V(NOTVALID)
                                   34178
                                   34179                       QLTORG
1LINE     (LINE2193) (12:47) (15MAR04) CHANGE Command                                                                       Page  105
0Current Usings:  (CHWA,R6) (CP,R11) (CV,R12)
0Loc    Object Code    Addr1 Addr2  Stmt Lv Lineno    Source Statement           (Hibal 5, Asmedit 3.3)  HLASM R4.0  2004/03/15 12.47
+___    ______ ____    _____ _____  ____ __ ______    ______ _________
0                                  34192              *
                                   34193              *
                                   34194              *  SCAN FOR THING TO CHANGE
                                   34195              *
                                   34196              *
 007150 50E0 D000/9008_      00000 34197              SCHNULL  PROC
 USING  *,R7
 00716A 4110 7A1C/4100_      07B86 34236                       ERROR 'Missing CHANGE command options.'
 007176 18D8/9808 D004_            34243                       PEND
 DROP   *,R7
                                   34263
 007184 50E0 D000/9008_      00000 34264              SCHHEX   PROC
 USING  *,R7
 00719E 9680 6000      00000       34303                       SET   CHFCHSTR
 0071A2 58E0 797A/0DEE       07B18 34309                       VCALL CKQUOTES
 0071A8 41F0 6058            00058 34313                       LA    R15,CHSTR1
 0071AC 58E0 797E/0DEE       07B1C 34314                       VCALL HEXSTR
 0071B2 47B0 702E/41F0_      071CC 34318                       IF    NEG,'TSEG (R1),(R0); ERROR ": invalid hex digits."'
 0071CC 4720 7038/58E0_      071D6 34365                       IF    NP,'VCALL NOTVALID'  Null string is invalid
 0071D6 5000 6054            00054 34385                       ST    R0,CHSTR1LN
 0071DA 58E0 798A/0DEE       07B28 34386                       ACALL SCHSCOLS
 0071E0 58E0 798E/0DEE       07B2C 34390                       ACALL CHKCOLS
 0071E6 58E0 7992/0DEE       07B30 34394                       ACALL SCHOCCUR
 0071EC 41F0 0004            00004 34398                       LA    R15,4
 0071F0 18D8/9808 D004_            34399                       PEND
 DROP   *,R7
                                   34419
 0071FE 50E0 D000/9008_      00000 34420              SCHCSTR  PROC
 USING  *,R7
 007218 9680 6000      00000       34459                       SET   CHFCHSTR
 00721C 9620 6000      00000       34465                       SET   CHFCTEXT
 007220 58E0 7900/0DEE       07B18 34471                       VCALL CKQUOTES
 007226 41F0 6058            00058 34475                       LA    R15,CHSTR1
 00722A 58E0 791C/0DEE       07B34 34476                       VCALL DEQSTR
 007230 4720 7022/58E0_      0723A 34480                       IF    NP,'VCALL NOTVALID' Null string is ng
 00723A 58E0 C8A8            008A8 34500                       L     R14,CVUPPTBL
 00723E 18F0                       34501                       LR    R15,R0
 007240 06F0/44F0 7A38_            34502                       DEX   R15,'TR @R1(0),@R14'   Xlate to upper
 007246 5000 6054            00054 34521                       ST    R0,CHSTR1LN
 00724A 58E0 7910/0DEE       07B28 34522                       ACALL SCHSCOLS
 007250 58E0 7914/0DEE       07B2C 34526                       ACALL CHKCOLS
 007256 58E0 7918/0DEE       07B30 34530                       ACALL SCHOCCUR
 00725C 41F0 0004            00004 34534                       LA    R15,4
 007260 18D8/9808 D004_            34535                       PEND
 DROP   *,R7
                                   34555
 00726E 50E0 D000/9008_      00000 34556              SCHSTR   PROC
 USING  *,R7
 007288 9680 6000      00000       34595                       SET   CHFCHSTR
 00728C 58E0 7890/0DEE       07B18 34601                       VCALL CKQUOTES
 007292 41F0 6058            00058 34605                       LA    R15,CHSTR1
 007296 58E0 78AC/0DEE       07B34 34606                       VCALL DEQSTR
 00729C 4720 701E/58E0_      072A6 34610                       IF    NP,'VCALL NOTVALID' Null string is invalid
 0072A6 5000 6054            00054 34630                       ST    R0,CHSTR1LN
1LINE     (LINE2193) (12:47) (15MAR04) CHANGE Command                                                                       Page  106
0Current Usings:  (CHWA,R6) (*,R7) (CP,R11) (CV,R12)
0Loc    Object Code    Addr1 Addr2  Stmt Lv Lineno    Source Statement           (Hibal 5, Asmedit 3.3)  HLASM R4.0  2004/03/15 12.47
+___    ______ ____    _____ _____  ____ __ ______    ______ _________
00072AA 58E0 78A0/0DEE       07B28 34631                       ACALL SCHSCOLS
 0072B0 58E0 78A4/0DEE       07B2C 34635                       ACALL CHKCOLS
 0072B6 58E0 78A8/0DEE       07B30 34639                       ACALL SCHOCCUR
 0072BC 41F0 0004            00004 34643                       LA    R15,4
 0072C0 18D8/9808 D004_            34644                       PEND
 DROP   *,R7
                                   34664
 0072CE 50E0 D000/9008_      00000 34665              SCHNUM   PROC
 USING  *,R7
 0072E8 58E0 B08C/58FE_      0008C 34704                       SCBKUP ,
 00731E 9640 6000      00000       34760                       SET   CHFCHCOL
 007322 58E0 7840/0DEE       07B28 34766                       ACALL SCHSCOLS
 007328 41F0 0004            00004 34770                       LA    R15,4
 00732C 18D8/9808 D004_            34771                       PEND
 DROP   *,R7
                                   34791
 00733A 50E0 D000/9008_      00000 34792              SCHSLASH PROC
 USING  *,R7
 007354 58E0 B08C/58FE_      0008C 34831                       SCBKUP ,
 00738A 9640 6000      00000       34887                       SET   CHFCHCOL
 00738E 58E0 77D4/0DEE       07B28 34893                       ACALL SCHSCOLS
 007394 41F0 0004            00004 34897                       LA    R15,4
 007398 18D8/9808 D004_            34898                       PEND
 DROP   *,R7
                                   34918
 0073A6 50E0 D000/9008_      00000 34919              SCHALL   PROC
 USING  *,R7
 0073C0 9640 6000      00000       34958                       SET   CHFCHCOL
 0073C4 9604 6000      00000       34964                       SET   CHFALL
 0073C8 41F0 0004            00004 34970                       LA    R15,4
 0073CC 18D8/9808 D004_            34971                       PEND
 DROP   *,R7
                                   34991
1LINE     (LINE2193) (12:47) (15MAR04) CHANGE Command                                                                       Page  107
0Current Usings:  (CHWA,R6) (CP,R11) (CV,R12)
0Loc    Object Code    Addr1 Addr2  Stmt Lv Lineno    Source Statement           (Hibal 5, Asmedit 3.3)  HLASM R4.0  2004/03/15 12.47
+___    ______ ____    _____ _____  ____ __ ______    ______ _________
0                                  34993              *
                                   34994              *
                                   34995              *  SCAN FOR 'TO' OR 'USING'
                                   34996              *
                                   34997              *
 0073DA 50E0 D000/9008_      00000 34998              MISSTOU  PROC
 USING  *,R7
 0073F4 4110 7744/4100_      07B38 35037                       ERROR 'Missing TO or USING for the CHANGE command. '
 007400 18D8/9808 D004_            35044                       PEND
 DROP   *,R7
                                   35064
 00740E 50E0 D000/9008_      00000 35065              SCHTO    PROC
 USING  *,R7
 007428 9610 6000      00000       35104                       SET   CHFTO
 00742C 41F0 0004            00004 35110                       LA    R15,4
 007430 18D8/9808 D004_            35111                       PEND
 DROP   *,R7
                                   35131
 00743E 50E0 D000/9008_      00000 35132              SCHUSING PROC
 USING  *,R7
 007458 9608 6000      00000       35171                       SET   CHFUSING
 00745C 41F0 0004            00004 35177                       LA    R15,4
 007460 18D8/9808 D004_            35178                       PEND
 DROP   *,R7
1LINE     (LINE2193) (12:47) (15MAR04) CHANGE Command                                                                       Page  108
0Current Usings:  (CHWA,R6) (CP,R11) (CV,R12)
0Loc    Object Code    Addr1 Addr2  Stmt Lv Lineno    Source Statement           (Hibal 5, Asmedit 3.3)  HLASM R4.0  2004/03/15 12.47
+___    ______ ____    _____ _____  ____ __ ______    ______ _________
0                                  35199              *
                                   35200              *  ROUTINES TO SCAN THE  <xxxx> PART OF A
                                   35201              *     CHANGE ... TO <xxxxx> <OPTIONS> COMMAND.
                                   35202              *
                                   35203              *
                                   35204              *
 00746E 50E0 D000/9008_      00000 35205              SCHMISS  PROC
 USING  *,R7
 007488 4110 7732/4100_      07BBA 35244                       ERROR 'Missing operand. '
 007494 18D8/9808 D004_            35251                       PEND
 DROP   *,R7
                                   35271              *
                                   35272              *
 0074A2 50E0 D000/9008_      00000 35273              SCHTSTR  PROC  ,                   SCAN STRING, MUST BE QUOTED
 USING  *,R7
 0074BC 58E0 765C/0DEE       07B18 35312                       VCALL CKQUOTES
 0074C2 58F0 B08C/4110_      0008C 35316                       SCDQUOTE CHSTR2
 0074D4 5000 6144            00144 35337                       ST    R0,CHSTR2LN
 0074D8 58E0 76AC/0DEE       07B68 35338                       ACALL SCHINCR             SCAN FOR OPTIONAL INCREMENT
 0074DE 12FF/4780 702E             35342                       IF    (R15,NZ),BEGIN
 0074E4 58E0 76B0/0DEE       07B6C 35356  1                      ACALL SETINCR
 0074EA                            35360                       END
 0074EA 41F0 0004            00004 35364                       LA    R15,4
 0074EE 18D8/9808 D004_            35365                       PEND
 DROP   *,R7
                                   35385              *
                                   35386              *
 0074FC 50E0 D000/9008_      00000 35387              SCHTHEX  PROC  ,                   HEX STRING,
 USING  *,R7
 007516 58E0 7602/0DEE       07B18 35426                       VCALL CKQUOTES
 00751C 41F0 6148            00148 35430                       LA    R15,CHSTR2
 007520 58E0 7606/0DEE       07B1C 35431                       VCALL HEXSTR
 007526 47B0 702A            07540 35435                       IF    NEG,BEGIN
 00752A 41F0 B050/58E0_      00050 35446  1                      TSEG  (R1),(R0)
 007534 4110 76B5/4100_      07BCB 35470  1                      ERROR ': INVALID HEX'
 007540                            35477                       END
 007540 5000 6144            00144 35481                       ST    R0,CHSTR2LN
 007544 58E0 7652/0DEE       07B68 35482                       ACALL SCHINCR             SCAN FOR OPTIONAL INCREMENT
 00754A 12FF/4780 7040             35486                       IF    (R15,NZ),BEGIN
 007550 58E0 7656/0DEE       07B6C 35500  1                      ACALL SETINCR
 007556                            35504                       END
 007556 41F0 0004            00004 35508                       LA    R15,4
 00755A 18D8/9808 D004_            35509                       PEND
 DROP   *,R7
                                   35529              *
                                   35530              *
 007568 50E0 D000/9008_      00000 35531              SCHTNUM  PROC  ,                   NUMBER
 USING  *,R7
 007582 58E0 B08C/581E_      0008C 35570                       SCTOK
 007590 1830                       35579                       LR    R3,R0
 007592 0630/1233/4740_            35580                       MOVE  R3,CHSTR2,@R1
 00759E 5000 6144            00144 35618                       ST    R0,CHSTR2LN
 0075A2 58E0 75E6/0DEE       07B68 35619                       ACALL SCHINCR             SCAN FOR INCREMENT
 0075A8 58E0 75EA/0DEE       07B6C 35623                       ACALL SETINCR             SET INCREMENT PATTERN, ETC
1LINE     (LINE2193) (12:47) (15MAR04) CHANGE Command                                                                       Page  109
0Current Usings:  (CHWA,R6) (*,R7) (CP,R11) (CV,R12)
0Loc    Object Code    Addr1 Addr2  Stmt Lv Lineno    Source Statement           (Hibal 5, Asmedit 3.3)  HLASM R4.0  2004/03/15 12.47
+___    ______ ____    _____ _____  ____ __ ______    ______ _________
00075AE 41F0 0004            00004 35627                       LA    R15,4
 0075B2 18D8/9808 D004_            35628                       PEND
 DROP   *,R7
                                   35648              *
                                   35649              *
 0075C0 50E0 D000/9008_      00000 35650              SCHTPNUM PROC  ,                   +NUMBER
 USING  *,R7
 0075DA D200 6148 75FE 00148 07BD8 35689                       MVC   CHSTR2(1),=CL1'+'
 0075E0 58E0 B08C/581E_      0008C 35690                       SCTOK ,
 0075EE 1830                       35699                       LR    R3,R0
 0075F0 0630/1233/4740_            35700                       MOVE  R3,CHSTR2+1,@R1
 0075FC 5E00 7596            07B70 35738                       INCR  R0
 007600 5000 6144            00144 35741                       ST    R0,CHSTR2LN
 007604 58E0 758E/0DEE       07B68 35742                       ACALL SCHINCR             SCAN FOR INCREMENT
 00760A 58E0 7592/0DEE       07B6C 35746                       ACALL SETINCR             SET INCREMENT PATTERN, ETC
 007610 41F0 0004            00004 35750                       LA    R15,4
 007614 18D8/9808 D004_            35751                       PEND
 DROP   *,R7
                                   35771              *
                                   35772              *
 007622 50E0 D000/9008_      00000 35773              SCHTMNUM PROC  ,                   -NUMBER
 USING  *,R7
 00763C D200 6148 759D 00148 07BD9 35812                       MVC   CHSTR2(1),=CL1'-'
 007642 58E0 B08C/581E_      0008C 35813                       SCTOK
 007650 1830                       35822                       LR    R3,R0
 007652 0630/1233/4740_            35823                       MOVE  R3,CHSTR2+1,@R1
 00765E 5E00 7534            07B70 35861                       INCR  R0
 007662 5000 6144            00144 35864                       ST    R0,CHSTR2LN
 007666 58E0 752C/0DEE       07B68 35865                       ACALL SCHINCR             SCAN FOR INCREMENT
 00766C 58E0 7530/0DEE       07B6C 35869                       ACALL SETINCR             SET INCREMENT PATTERN, ETC
 007672 41F0 0004            00004 35873                       LA    R15,4
 007676 18D8/9808 D004_            35874                       PEND
 DROP   *,R7
                                   35894              *
                                   35895              *
 007684 50E0 D000/9008_      00000 35896              SCHTUPP  PROC  ,                   UPPER
 USING  *,R7
 00769E 9680 6001      00001       35935                       SET   CHFUPPER
 0076A2 41F0 0004            00004 35941                       LA    R15,4
 0076A6 18D8/9808 D004_            35942                       PEND
 DROP   *,R7
                                   35962              *
                                   35963              *
 0076B4 50E0 D000/9008_      00000 35964              SCHTLOW  PROC
 USING  *,R7
 0076CE 9640 6001      00001       36003                       SET   CHFLOWER
 0076D2 41F0 0004            00004 36009                       LA    R15,4
 0076D6 18D8/9808 D004_            36010                       PEND
 DROP   *,R7
                                   36030              *
                                   36031              *
 0076E4 50E0 D000/9008_      00000 36032              SCHTUPLO PROC
 USING  *,R7
 0076FE D207 B886 7402_00886 07B00 36071                       ERROR 'CHANGE ... TO UPLOW is not available.',,CR
1LINE     (LINE2193) (12:47) (15MAR04) CHANGE Command                                                                       Page  110
0Current Usings:  (CHWA,R6) (*,R7) (CP,R11) (CV,R12)
0Loc    Object Code    Addr1 Addr2  Stmt Lv Lineno    Source Statement           (Hibal 5, Asmedit 3.3)  HLASM R4.0  2004/03/15 12.47
+___    ______ ____    _____ _____  ____ __ ______    ______ _________
0007710 9620 6001      00001       36079                       SET   CHFUPLOW
 007714 41F0 0004            00004 36085                       LA    R15,4
 007718 18D8/9808 D004_            36086                       PEND
 DROP   *,R7
1LINE     (LINE2193) (12:47) (15MAR04) CHANGE Command                                                                       Page  111
0Current Usings:  (CHWA,R6) (CP,R11) (CV,R12)
0Loc    Object Code    Addr1 Addr2  Stmt Lv Lineno    Source Statement           (Hibal 5, Asmedit 3.3)  HLASM R4.0  2004/03/15 12.47
+___    ______ ____    _____ _____  ____ __ ______    ______ _________
0                                  36107              *
                                   36108              *  SCAN ROUTINES FOR USING ...
                                   36109              *
 007726 50E0 D000/9008_      00000 36110              MISSUSE  PROC
 USING  *,R7
 007740 4110 73C8/4100_      07B08 36149                       ERROR 'Missing operand.'
 00774C 18D8/9808 D004_            36156                       PEND
 DROP   *,R7
                                   36176
 00775A 50E0 D000/9008_      00000 36177              USALL    PROC
 USING  *,R7
 007774 5800 B5A0            005A0 36216                       L     R0,CPAFLNO          FIRST,LAST LINENO
 007778 5810 B5A4            005A4 36217                       L     R1,CPALLNO
 00777C 5000 603C            0003C 36218                       ST    R0,CHUFIRST
 007780 5010 6040            00040 36219                       ST    R1,CHULAST
 007784 5000 604C            0004C 36220                       ST    R0,CHUXFIR
 007788 5010 6050            00050 36221                       ST    R1,CHUXLAST
 00778C 41F0 0004            00004 36222                       LA    R15,4
 007790 18D8/9808 D004_            36223                       PEND
 DROP   *,R7
                                   36243
 00779E 50E0 D000/9008_      00000 36244              USLNO    PROC  ,                   USING <nnn> [/<mmm>]
 USING  *,R7
 0077B8 5000 603C            0003C 36283                       ST    R0,CHUFIRST
 0077BC 5000 6040            00040 36284                       ST    R0,CHULAST
 0077C0 5000 604C            0004C 36285                       ST    R0,CHUXFIR
 0077C4 5000 6050            00050 36286                       ST    R0,CHUXLAST
 0077C8 5810 B08C/1B00_      0008C 36287                       SCAN  ,
 007816 58E0 73C0/0DEE       07B78 36318                       SCANCHK
                                   36323                       COMMENT                   IF '/', SCAN FOR <mmm>
 00781C 9561 1000/4770_00000       36324                       IF    ((@R1,EQ,'/'),AND,(R0,EQ,1)),BEGIN
 00782C 5810 B08C/1B00_      0008C 36356  1                      SCAN  NEEDNUM
 00787E 58E0 73C0/0DEE       07B78 36388  1                      SCANCHK
 007884 5030 6040            00040 36393  1                      ST    R3,CHULAST
 007888 5030 6050            00050 36394  1                      ST    R3,CHUXLAST
 00788C                            36395                       END
 00788C 70D8/70D8/47F0_0788C 07822 36399                       ELSE  BEGIN               IF NOT '/', UNSCAN LAST TOKEN
 007890 58E0 B08C/58FE_      0008C 36412  1                      SCBKUP
 0078C6                            36468                       END
 0078C6 41F0 0004            00004 36472                       LA    R15,4
 0078CA 18D8/9808 D004_            36473                       PEND
 DROP   *,R7
                                   36493
 0078D8 4040404040404040_          36494              NEEDNUM  SCKW  ,MISSNUM,NULL
 007900 4040404040404040_          36509                       SCKW  ,GOTNUM,SYMLN
 007928 4040404040404040_          36524                       SCKW  ,V(NOTVALID)
                                   36539
 007950 50E0 D000/9008_      00000 36540              MISSNUM  PROC
 USING  *,R7
 00796A 4110 7250/4100_      07BBA 36579                       ERROR 'Missing operand. '
 007976 18D8/9808 D004_            36586                       PEND
 DROP   *,R7
                                   36606
 007984 50E0 D000/9008_      00000 36607              GOTNUM   PROC
1LINE     (LINE2193) (12:47) (15MAR04) CHANGE Command                                                                       Page  112
0Current Usings:  (CHWA,R6) (*,R7) (CP,R11) (CV,R12)
0Loc    Object Code    Addr1 Addr2  Stmt Lv Lineno    Source Statement           (Hibal 5, Asmedit 3.3)  HLASM R4.0  2004/03/15 12.47
+___    ______ ____    _____ _____  ____ __ ______    ______ _________
0USING  *,R7
 00799E 1830                       36646                       LR    R3,R0
 0079A0 5038 0010            00010 36647                       PRETURN (R3)
 0079A4 41F0 0004            00004 36649                       LA    R15,4
 0079A8 18D8/9808 D004_            36650                       PEND
 DROP   *,R7
1LINE     (LINE2193) (12:47) (15MAR04) CHANGE Command                                                                       Page  113
0Current Usings:  (CHWA,R6) (CP,R11) (CV,R12)
0Loc    Object Code    Addr1 Addr2  Stmt Lv Lineno    Source Statement           (Hibal 5, Asmedit 3.3)  HLASM R4.0  2004/03/15 12.47
+___    ______ ____    _____ _____  ____ __ ______    ______ _________
0                                  36671              *
                                   36672              *  ROUTINES TO SCAN MISC CHANGE COMMAND OPTIONS
                                   36673              *
                                   36674              *
 0079B6 50E0 D000/9008_      00000 36675              SCHLINE  PROC
 USING  *,R7
 0079D0 9604 6001      00001       36714                       SET   CHFLINE
 0079D4 18D8/9808 D004_            36720                       PEND
 DROP   *,R7
                                   36740
 0079E2 50E0 D000/9008_      00000 36741              SCHREP   PROC
 USING  *,R7
 0079FC 9602 6001      00001       36780                       SET   CHFREP              Set "repeat" option
 007A00 18D8/9808 D004_            36786                       PEND
 DROP   *,R7
                                   36806
 007A0E 50E0 D000/9008_      00000 36807              SCHMOD   PROC
 USING  *,R7
 007A28 9610 6001      00001       36846                       SET   CHFMOD
 007A2C 9650 BC78      00C78       36852                       SET   CPFMODXP*CPFMODCD   Modify line after changes
 007A30 18D8/9808 D004_            36861                       PEND
 DROP   *,R7
                                   36881
 007A3E 50E0 D000/9008_      00000 36882              SCHEDIT  PROC
 USING  *,R7
 007A58 9608 6001      00001       36921                       SET   CHFEDIT
 007A5C 9640 BC78/94EF_00C78       36927                       SET   CPFMODXP,(CPFMODCD,OFF)  edit line after changes
 007A64 18D8/9808 D004_            36938                       PEND
 DROP   *,R7
                                   36958
 007A72 50E0 D000/9008_      00000 36959              SCHCOLS  PROC
 USING  *,R7
 007A8C 5000 6044            00044 36998                       ST    R0,CHUCOL1
 007A90 5010 6048            00048 36999                       ST    R1,CHUCOL2
 007A94 18D8/9808 D004_            37000                       PEND
 DROP   *,R7
                                   37020              *
                                   37021              *
 007AA2 50E0 D000/9008_      00000 37022              SCHIN    PROC
 USING  *,R7
 007ABC 9101 6001/47E0_00001       37061                       IF    CHFIN,BEGIN         Dont allow 2nd 'in'
 007AC4 4110 7143/4100_      07BFF 37076  1                      ERROR 'in: invalid.  (2 range specifications not allowed.)'
 007AD0                            37083                       END   ,
 007AD0 9601 6001      00001       37087                       SET   CHFIN
 007AD4 58E0 70C4/0DEE       07B80 37093                       VCALL NDETRNG             Get range defined
 007ADA 9110 BD50      00D50       37097                       TM    CPLFLG1,CPFALL      Was a range given
 007ADE 4770 7032            07AEE 37098                       IF    Z,BEGIN
 007AE2 4110 7176/4100_      07C32 37109  1                      ERROR 'in: invalid.  Missing range. '
 007AEE                            37116                       END
 007AEE 1BFF                       37120                       CLEAR R15
 007AF0 18D8/9808 D004_            37124                       PEND
 DROP   *,R7
                                   37144
                                   37145                       QLTORG
1LINE     (LINE2193) (12:47) (15MAR04) CHANGE Command                                                                       Page  114
0Current Usings:  (CHWA,R6) (CP,R11) (CV,R12)
0Loc    Object Code    Addr1 Addr2  Stmt Lv Lineno    Source Statement           (Hibal 5, Asmedit 3.3)  HLASM R4.0  2004/03/15 12.47
+___    ______ ____    _____ _____  ____ __ ______    ______ _________
0                                  37187              *
                                   37188              *
                                   37189              *  SCAN COLUMNS TO CHANGE TYPE OPTION
                                   37190              *
                                   37191              *  ON ENTRY:
                                   37192              *    SCAN CONTROL BLOCK POINTS TO:
                                   37193              *      'X' OR 'X/Y' OR 'X/Y/Z' OR 'X//Z' OR '//Z'
                                   37194              *  ON EXIT:
                                   37195              *    CHCOL1, CHCOL2, CHFENCE ARE SET. ZERO IF NONE.
                                   37196              *    SCANNER POINTS BY ANY 'X//Y' CONSTRUCTS.
                                   37197              *    IF NO 'X//Z' CONSTRUCTS, ROUTINES DOES NOT ADVANCE
                                   37198              *    SCANNER.  R15 IS ALWAYS RETURNED AS ZERO.
                                   37199              *
                                   37200              *  COL1/COL2/FENCE,,, MAY TAKE FORMAT
                                   37201              *  OF   X ; X/Y ; X/Y/Z ; X//Z ; //Z
                                   37202              *
                                   37203              *  NOTE:
                                   37204              *  CALL TO 'SCAN COLSPRT ' RETURNS
                                   37205              *    R15 - 4 IF NOT NUMBER OR SLASH
                                   37206              *          8 IF NUMBER SCANNED (R3=VALUE OF NUMBER SCANNED)
                                   37207              *         12 IF SLASH SCANNED
                                   37208              *
                                   37209              *
 007C68 50E0 D000/9008_      00000 37210              SCHSCOLS PROC ,
 USING  *,R7
                                   37249                       USING CHWA,R6
                                   37251
                                   37252                       COMMENT                   CLEAR VALUES
 007C82 D703 6004 6004 00004 00004 37253                       CLEAR CHCOL1
 007C88 D703 6008 6008 00008 00008 37260                       CLEAR CHCOL2
 007C8E D703 600C 600C 0000C 0000C 37267                       CLEAR CHFENCE
                                   37274
                                   37275                       COMMENT                   SCAN FOR STARTING COL
 007C94 5810 B08C/1B00_      0008C 37276                       SCAN  COLSPRT
 007CE6 58E0 787E/0DEE       08500 37308                       SCANCHK
                                   37313                       COMMENT                   NO MATCH
 007CEC 59F0 7882/4770_      08504 37314                       IF    (R15,EQ,4),BEGIN
 007CF4 47F0 733A            07FBC 37331  1                      B     COLSDONE
 007CF8                            37332                       END
                                   37336                       COMMENT                   NUMBER
 007CF8 707A/47F0 7140_07CF8 07CF2 37337                       ELSEIF (R15,EQ,8),BEGIN
 007D04 1233/4740 7090_            37363  1                      IF    ((R3,NEG),OR,(R3,GT,&LINESZ)),BEGIN
 007D12 58E0 788E/0DEE       08510 37393  2                        VCALL NOTVALID
 007D18                            37397  1                      END
 007D18 5030 6004            00004 37401  1                      ST    R3,CHCOL1           SAVE COL1
 007D1C 5810 B08C/1B00_      0008C 37402  1                      SCAN  COLSPRT             CONTINUE IF SLASH, SKIP SLASH
 007D6E 58E0 787E/0DEE       08500 37434  1                      SCANCHK ,                 IF NOT SLASH, WE ARE DONE
 007D74 59F0 7882/4770_      08504 37439  1                      IF    (R15,EQ,4),BEGIN
 007D7C 47F0 733A            07FBC 37456  2                        B     COLSDONE
 007D80                            37457  1                      END
 007D80 59F0 7886/4770_      08508 37461  1                      IF    (R15,EQ,8),BEGIN
 007D88 58E0 B08C/58FE_      0008C 37478  2                        SCBKUP
 007DBE 47F0 733A            07FBC 37534  2                        B     COLSDONE
 007DC2                            37535  1                      END
1LINE     (LINE2193) (12:47) (15MAR04) CHANGE Command                                                                       Page  115
0Current Usings:  (CHWA,R6) (*,R7) (CP,R11) (CV,R12)
0Loc    Object Code    Addr1 Addr2  Stmt Lv Lineno    Source Statement           (Hibal 5, Asmedit 3.3)  HLASM R4.0  2004/03/15 12.47
+___    ______ ____    _____ _____  ____ __ ______    ______ _________
0007DC2                            37539                       END
                                   37543                       COMMENT                   SLASH,
 007DC2 7144/47F0 714C_07DC2 07D02 37544                       ELSEIF (R15,EQ,12),BEGIN
 007DCE                            37570                       END
                                   37574
                                   37575                       COMMENT                   SCAN FOR ENDING COL,
                                   37576                       COMMENT                   CHANGE LENGTH
 007DCE 5810 B08C/1B00_      0008C 37577                       SCAN  COLSPRT
 007E20 58E0 787E/0DEE       08500 37609                       SCANCHK
                                   37614                       COMMENT                   NO MATCH
 007E26 59F0 7882/4770_      08504 37615                       IF    (R15,EQ,4),BEGIN
 007E2E 47F0 733A            07FBC 37632  1                      B     COLSDONE
 007E32                            37633                       END
                                   37637                       COMMENT                   NUMBER
 007E32 71B4/47F0 727C_07E32 07E2C 37638                       ELSEIF (R15,EQ,8),BEGIN
 007E3E 5930 6004/4740_      00004 37664  1                      IF    ((R3,LT,CHCOL1),OR,(R3,GT,&LINESZ)),BEGIN
 007E4E 58E0 788E/0DEE       08510 37697  2                        VCALL NOTVALID
 007E54                            37701  1                      END
 007E54 5030 6008            00008 37705  1                      ST    R3,CHCOL2           SAVE COL2
 007E58 5810 B08C/1B00_      0008C 37706  1                      SCAN  COLSPRT             CONTINUE IF SLASH, SKIP SLASH
 007EAA 58E0 787E/0DEE       08500 37738  1                      SCANCHK ,                 IF NOT SLASH, WE ARE DONE
 007EB0 59F0 7882/4770_      08504 37743  1                      IF    (R15,EQ,4),BEGIN
 007EB8 47F0 733A            07FBC 37760  2                        B     COLSDONE
 007EBC                            37761  1                      END
 007EBC 59F0 7886/4770_      08508 37765  1                      IF    (R15,EQ,8),BEGIN
 007EC4 58E0 B08C/58FE_      0008C 37782  2                        SCBKUP
 007EFA 47F0 733A            07FBC 37838  2                        B     COLSDONE
 007EFE                            37839  1                      END
 007EFE                            37843                       END
                                   37847                       COMMENT                   SLASH,
 007EFE 7280/47F0 7288_07EFE 07E3C 37848                       ELSEIF (R15,EQ,12),BEGIN
 007F0A                            37874                       END
                                   37878
                                   37879                       COMMENT                   SCAN FOR FENCE COL,
                                   37880                       COMMENT                   CHANGE LENGTH
 007F0A 5810 B08C/1B00_      0008C 37881                       SCAN  COLSPRT
 007F5C 58E0 787E/0DEE       08500 37913                       SCANCHK
                                   37918                       COMMENT                   NO MATCH
 007F62 59F0 7882/4770_      08504 37919                       IF    (R15,EQ,4),BEGIN
 007F6A 47F0 733A            07FBC 37936  1                      B     COLSDONE
 007F6E                            37937                       END
                                   37941                       COMMENT                   NUMBER
 007F6E 72F0/47F0 7328_07F6E 07F68 37942                       ELSEIF (R15,EQ,8),BEGIN
                                   37968  1         C            IF    ((R3,LT,CHCOL1),OR,(R3,LT,CHCOL2),OR,
 007F7A 5930 6004/4740_      00004        1                            (R3,GT,&LINESZ)),BEGIN
 007F92 58E0 788E/0DEE       08510 38015  2                        VCALL NOTVALID
 007F98                            38019  1                      END
 007F98 1233/47B0 731E_            38023  1                      IF    (R3,NEG),'CLEAR R3'
 007FA0 5030 600C            0000C 38046  1                      ST    R3,CHFENCE          SAVE FENCE
 007FA4 0630                       38047  1                      DECR  R3
 007FA6 5030 6010            00010 38049  1                      ST    R3,CHCFENCE         SAVE FENCE COL - 1
 007FAA                            38050                       END
                                   38054                       COMMENT                   SLASH, THIRD SLASH !  NO GOOD
 007FAA 732C/47F0 733A_07FAA 07F78 38055                       ELSEIF (R15,EQ,12),BEGIN
1LINE     (LINE2193) (12:47) (15MAR04) CHANGE Command                                                                       Page  116
0Current Usings:  (CHWA,R6) (*,R7) (CP,R11) (CV,R12)
0Loc    Object Code    Addr1 Addr2  Stmt Lv Lineno    Source Statement           (Hibal 5, Asmedit 3.3)  HLASM R4.0  2004/03/15 12.47
+___    ______ ____    _____ _____  ____ __ ______    ______ _________
0007FB6 58E0 788E/0DEE       08510 38081  1                      VCALL NOTVALID
 007FBC                            38085                       END
                                   38089
 007FBC                            38090              COLSDONE LABEL ,
 007FBC 18D8/9808 D004_            38092                       PEND
 DROP   *,R7
                                   38112              *
                                   38113              * SCAN NUMBER, SLASH, OR OTHER.  SET RETURN CODE
                                   38114              *
 007FCC 4040404040404040_          38115              COLSPRT  SCKW  ,COLSNULL,NULL
 007FF4 4040404040404040_          38130                       SCKW  ,COLSNUM,PI
 00801C 6140404040404040_          38145                       SCKW  /,COLSSLSH
 008044 4040404040404040_          38160                       SCKW  ,COLSJUNK
                                   38175
 00806C 50E0 D000/9008_      00000 38176              COLSNULL PROC
 USING  *,R7
 008086 41F0 0004            00004 38215                       LA    R15,4
 00808A 18D8/9808 D004_            38216                       PEND
 DROP   *,R7
                                   38236
 008098 50E0 D000/9008_      00000 38237              COLSJUNK PROC
 USING  *,R7
 0080B2 58E0 B08C/58FE_      0008C 38276                       SCBKUP
 0080E8 41F0 0004            00004 38332                       LA    R15,4
 0080EC 18D8/9808 D004_            38333                       PEND
 DROP   *,R7
                                   38353
 0080FA 50E0 D000/9008_      00000 38354              COLSNUM  PROC
 USING  *,R7
 008114 1830                       38393                       LR    R3,R0
 008116 5038 0010            00010 38394                       PRETURN (R3)
 00811A 41F0 0008            00008 38396                       LA    R15,8
 00811E 18D8/9808 D004_            38397                       PEND
 DROP   *,R7
                                   38417
 00812C 50E0 D000/9008_      00000 38418              COLSSLSH PROC
 USING  *,R7
 008146 41F0 000C            0000C 38457                       LA    R15,12
 00814A 18D8/9808 D004_            38458                       PEND
 DROP   *,R7
1LINE     (LINE2193) (12:47) (15MAR04) CHANGE Command                                                                       Page  117
0Current Usings:  (CHWA,R6) (CP,R11) (CV,R12)
0Loc    Object Code    Addr1 Addr2  Stmt Lv Lineno    Source Statement           (Hibal 5, Asmedit 3.3)  HLASM R4.0  2004/03/15 12.47
+___    ______ ____    _____ _____  ____ __ ______    ______ _________
0                                  38479              *
                                   38480              *  CHECK COLUMNS
                                   38481              *
                                   38482              *  VALIDITY CHECH COLS FOR 'XXXXX'N/M SPECIFICATION.
                                   38483              *
                                   38484              *
 008158 50E0 D000/9008_      00000 38485              CHKCOLS  PROC
 USING  *,R7
                                   38524
                                   38525                       COMMENT                   CHECK TO SEE SEARCH WILL FIT
 008172 5820 6008            00008 38526                       L     R2,CHCOL2
 008176 1222/47D0 7026             38527                       IF    (R2,POS),BEGIN
 00817C 5810 6004            00004 38541  1                      L     R1,CHCOL1
 008180 0610                       38542  1                      DECR  R1
 008182 1B21                       38544  1                      SR    R2,R1               COLUNMS TO CHECK
 008184 5920 6054/47B0_      00054 38545  1                      IF    (R2,LT,CHSTR1LN),BEGIN
 00818C 4110 73A6/4100_      08518 38562  2                        ERROR 'String is longer than columns given.'
 008198                            38569  1                      END
 008198                            38573                       END
                                   38577
 008198 18D8/9808 D004_            38578                       PEND
 DROP   *,R7
1LINE     (LINE2193) (12:47) (15MAR04) CHANGE Command                                                                       Page  118
0Current Usings:  (CHWA,R6) (CP,R11) (CV,R12)
0Loc    Object Code    Addr1 Addr2  Stmt Lv Lineno    Source Statement           (Hibal 5, Asmedit 3.3)  HLASM R4.0  2004/03/15 12.47
+___    ______ ____    _____ _____  ____ __ ______    ______ _________
0                                  38599              *
                                   38600              *
                                   38601              *  SCAN CHANGE OCCURANCE NUMBER
                                   38602              *
                                   38603              *  ON ENTRY:
                                   38604              *    SCAN CONTROL BLOCK MAY POINT TO:
                                   38605              *      '(nnn)'
                                   38606              *  ON EXIT:
                                   38607              *    CHOCCUR SET TO NNNN OR ZERO IF NONE.
                                   38608              *    SCANNER POINTS PAST ANY '(nnn)' CONSTRUCTS
                                   38609              *    IF NO '(nnn)' CONSTRUCTS, ROUTINES DOES NOT ADVANCE
                                   38610              *    SCANNER.  R15 IS ALWAYS RETURNED AS ZERO.
                                   38611              *
                                   38612              *
 0081A6 50E0 D000/9008_      00000 38613              SCHOCCUR PROC ,
 USING  *,R7
                                   38652                       USING CHWA,R6
                                   38654
                                   38655                       COMMENT                   SET DEFAULTS
 0081C0 D703 6014 6014 00014 00014 38656                       CLEAR CHOCCUR             NOT SPECIFIED
                                   38663
                                   38664                       COMMENT                   SCAN FOR STARTING COL
 0081C6 5810 B08C/1B00_      0008C 38665                       SCAN  OCCURPRT
 008218 58E0 7340/0DEE       08500 38697                       SCANCHK
                                   38702
 00821E 18D8/9808 D004_            38703                       PEND
 DROP   *,R7
                                   38723              *
                                   38724              *
                                   38725              *
 00822C 4040404040404040_          38726              OCCURPRT SCKW  ,OCCNULL,NULL
 008254 4040404040404040_          38741                       SCKW  ,OCCSCAN,V(MPAREN)
 00827C 4040404040404040_          38756                       SCKW  ,OCCJUNK
                                   38771
 0082A4 50E0 D000/9008_      00000 38772              OCCNULL  PROC
 USING  *,R7
 0082BE 41F0 0004            00004 38811                       LA    R15,4
 0082C2 18D8/9808 D004_            38812                       PEND
 DROP   *,R7
                                   38832
 0082D0 50E0 D000/9008_      00000 38833              OCCJUNK  PROC
 USING  *,R7
 0082EA 58E0 B08C/58FE_      0008C 38872                       SCBKUP
 008320 41F0 0004            00004 38928                       LA    R15,4
 008324 18D8/9808 D004_            38929                       PEND
 DROP   *,R7
                                   38949              *
                                   38950              *  IF (nnn), SCAN 'nnn'
                                   38951              *
 008332 50E0 D000/9008_      00000 38952              OCCSCAN  PROC
 USING  *,R7
 00834C 5900 71F4/47B0_      08540 38991                       IF    (R0,LT,3),BEGIN
 008354 58E0 71C4/0DEE       08510 39008  1                      VCALL NOTVALID
 00835A                            39012                       END
1LINE     (LINE2193) (12:47) (15MAR04) CHANGE Command                                                                       Page  119
0Current Usings:  (CHWA,R6) (*,R7) (CP,R11) (CV,R12)
0Loc    Object Code    Addr1 Addr2  Stmt Lv Lineno    Source Statement           (Hibal 5, Asmedit 3.3)  HLASM R4.0  2004/03/15 12.47
+___    ______ ____    _____ _____  ____ __ ______    ______ _________
000835A 58E0 B08C/D2AF_      0008C 39016                       SCPUSH
 008368 5E10 71F8            08544 39022                       INCR  R1
 00836C 0600                       39025                       DECR  R0
 00836E 0600                       39027                       DECR  R0
 008370 58E0 B08C/501E_      0008C 39029                       SCINIT (R1),(R0)
 00837E 5810 B08C/1B00_      0008C 39049                       SCAN  OCCNTPRT
 0083D0 58E0 71B4/0DEE       08500 39081                       SCANCHK
 0083D6 5030 6014            00014 39086                       ST    R3,CHOCCUR
 0083DA 58E0 B08C/4BD0_      0008C 39087                       SCPOP
 0083E8 18D8/9808 D004_            39093                       PEND
 DROP   *,R7
                                   39113
 0083F8 4040404040404040_          39114              OCCNTPRT SCKW  ,OCCMISS,NULL
 008420 4040404040404040_          39129                       SCKW  ,OCCVAL,PI
 008448 4040404040404040_          39144                       SCKW  ,V(NOTVALID)
                                   39159
 008470 50E0 D000/9008_      00000 39160              OCCMISS  PROC
 USING  *,R7
 00848A 4110 704E/4100_      084D8 39199                       ERROR 'Missing occurance specification.'
 008496 18D8/9808 D004_            39206                       PEND
 DROP   *,R7
                                   39226
 0084A4 50E0 D000/9008_      00000 39227              OCCVAL   PROC
 USING  *,R7
 0084BE 1830                       39266                       LR    R3,R0
 0084C0 5038 0010            00010 39267                       PRETURN (R3)
 0084C4 18D8/9808 D004_            39269                       PEND
 DROP   *,R7
                                   39289
                                   39290                       QLTORG
1LINE     (LINE2193) (12:47) (15MAR04) CHANGE Command                                                                       Page  120
0Current Usings:  (CHWA,R6) (CP,R11) (CV,R12)
0Loc    Object Code    Addr1 Addr2  Stmt Lv Lineno    Source Statement           (Hibal 5, Asmedit 3.3)  HLASM R4.0  2004/03/15 12.47
+___    ______ ____    _____ _____  ____ __ ______    ______ _________
0                                  39319              *
                                   39320              *  SCAN INCREMENT, IF ANY
                                   39321              *
                                   39322              *  ON ENTRY:
                                   39323              *    SCANNER POINTS TO INCREMENT, IF ANY
                                   39324              *
                                   39325              *  ON EXIT:
                                   39326              *    IF INCREMENT SCANNED:
                                   39327              *      R15 - NZ
                                   39328              *      R0 - INCREMENT VALUE (MAY BE ZERO, NEGATIVE)
                                   39329              *    IF NO INCREMENT:
                                   39330              *      R15 - ZERO
                                   39331              *      R0 - DEFAULT INCREMENT VALUE (IE. R0=1)
                                   39332              *
 008550 50E0 D000/9008_      00000 39333              SCHINCR  PROC
 USING  *,R7
 00856A 5810 B08C/1B00_      0008C 39372                       SCAN  INCRPRT
 0085BC 58E0 73BE/0DEE       08928 39404                       SCANCHK
 0085C2 59F0 73C2/4770_      0892C 39409                       IF    (R15,EQ,4),BEGIN    NO INCREMENT FOUND
 0085CA 1BFF                       39426  1                      CLEAR R15
 0085CC 4100 0001            00001 39430  1                      LA    R0,1
 0085D0                            39431                       END
 0085D0 59F0 73C6/4770_      08930 39435                       IF    (R15,EQ,8),BEGIN
 0085D8 41F0 0004            00004 39452  1                      LA    R15,4
 0085DC 1803                       39453  1                      LR    R0,R3
 0085DE                            39454                       END
 0085DE 5008 0004            00004 39458                       PRETURN (R0)
 0085E2 18D8/9808 D004_            39460                       PEND
 DROP   *,R7
                                   39480              *
                                   39481              *
                                   39482              *
 0085F0 4040404040404040_          39483              INCRPRT  SCKW ,INCRNULL,NULL
 008618 4E40404040404040_          39498                       SCKW +,INCRPLUS,(P,I)
 008640 6040404040404040_          39513                       SCKW -,INCRMIN,(P,I)
 008668 4040404040404040_          39528                       SCKW ,INCRNONE
                                   39543
 008690 50E0 D000/9008_      00000 39544              INCRNULL PROC
 USING  *,R7
 0086AA 41F0 0004            00004 39583                       LA    R15,4
 0086AE 18D8/9808 D004_            39584                       PEND
 DROP   *,R7
                                   39604
 0086BC 50E0 D000/9008_      00000 39605              INCRNONE PROC
 USING  *,R7
 0086D6 58E0 B08C/58FE_      0008C 39644                       SCBKUP
 00870C 41F0 0004            00004 39700                       LA    R15,4
 008710 18D8/9808 D004_            39701                       PEND
 DROP   *,R7
                                   39721
 00871E 50E0 D000/9008_      00000 39722              INCRPLUS PROC
 USING  *,R7
 008738 1830                       39761                       LR    R3,R0
 00873A 5038 0010            00010 39762                       PRETURN (R3)
1LINE     (LINE2193) (12:47) (15MAR04) CHANGE Command                                                                       Page  121
0Current Usings:  (CHWA,R6) (*,R7) (CP,R11) (CV,R12)
0Loc    Object Code    Addr1 Addr2  Stmt Lv Lineno    Source Statement           (Hibal 5, Asmedit 3.3)  HLASM R4.0  2004/03/15 12.47
+___    ______ ____    _____ _____  ____ __ ______    ______ _________
000873E 41F0 0008            00008 39764                       LA    R15,8
 008742 18D8/9808 D004_            39765                       PEND
 DROP   *,R7
                                   39785
 008750 50E0 D000/9008_      00000 39786              INCRMIN  PROC
 USING  *,R7
 00876A 1330                       39825                       LCR   R3,R0
 00876C 5038 0010            00010 39826                       PRETURN (R3)
 008770 41F0 0008            00008 39828                       LA    R15,8
 008774 18D8/9808 D004_            39829                       PEND
 DROP   *,R7
1LINE     (LINE2193) (12:47) (15MAR04) CHANGE Command                                                                       Page  122
0Current Usings:  (CHWA,R6) (CP,R11) (CV,R12)
0Loc    Object Code    Addr1 Addr2  Stmt Lv Lineno    Source Statement           (Hibal 5, Asmedit 3.3)  HLASM R4.0  2004/03/15 12.47
+___    ______ ____    _____ _____  ____ __ ______    ______ _________
0                                  39850              *
                                   39851              *
                                   39852              *  SET UP STUFF TO DO INCREMENTS,,,
                                   39853              *
                                   39854              *  THIS IS A BIT COMPLICATED WE SET UP AN EDMK PATTERN
                                   39855              *  FOR CONVERTING THE NUMBER INTO A PRINTABLE STRING
                                   39856              *  AND OTHER NON OBVIOUS YUCK.
                                   39857              *
                                   39858              *  GETINCR IS SETINCR COMPANION ROUTINE, CHECK IT OUT.
                                   39859              *
                                   39860              *  NOTES:
                                   39861              *  WE SET UP PATTERN FOR EDMK: NOTE THAT SIGNIFICANCE BYTE
                                   39862              *  STARTS THE NUMBER PRINTING ON THE *NEXT* BYTE EXAMINED.
                                   39863              *  WE LOVE EDMK COMMAND.
                                   39864              *
 000000                00000 00010 39865              SETIWA   RECORD BEGIN
 000000                            39873  1           SETIFLD    DS    F                   START OF NUMBER FIELD
 000004                            39874  1           SETISIGN   DS    F                   SIGN BYTE OR START OF NUMBER
 000008                            39875  1           SETINUM    DS    F                   START OF NUMBER IN FIELD
 00000C                            39876  1           SETIEND    DS    F                   END OF NUMBER IN FIELD
 000010                00010 00010 39877                       END
                                   39886
 008782 50E0 D000/9008_      00000 39887              SETINCR  PROC  SETIWA
 USING  *,R7
 USING  SETIWA-(4+36),R8
                                   39937
                                   39938                       COMMENT                   SET INCREMENT
 00879C 9640 6002      00002       39939                       SET   CHFINCR
 0087A0 5000 601C            0001C 39945                       ST    R0,CHINCR
 0087A4 9200 602C      0002C       39946                       CLEAR CHISIGN
                                   39953
                                   39954                       COMMENT                   FIND END, START AND SIGN OF
                                   39955                       COMMENT                   NUMBER IN STRING TO INCREMENT
 0087A8 4120 6148            00148 39956                       LA    R2,CHSTR2           R2 - STRING START
 0087AC 4130 6148            00148 39957                       LA    R3,CHSTR2           R3 - STRING END
 0087B0 5A30 6144            00144 39958                       A     R3,CHSTR2LN
 0087B4 0630                       39959                       DECR  R3
                                   39961                       COMMENT                   FIND END OF NUMBER IN STRING
 0087B6 1932/4750 7036_            39962                       WHILE ((R3,GE,R2),AND,((@R3,LT,'0'),OR,(@R3,GT,'9'))),BEGIN
 0087CC 0630                       40009  1                      DECR  R3
 0087CE 47F0 701A            087B6 40011                       END
 0087D2 1932/47B0 7044             40016                       IF    (R3,LT,R2),BEGIN    IF NO NUMBER, FORGET INCREMENT
 0087D8 94BF 6002      00002       40031  1                      CLEAR CHFINCR
 0087DC 47F0 7176            08912 40038  1                      B     SETIEXIT
 0087E0                            40039                       END
 0087E0 5030 8034            0000C 40043                       ST    R3,SETIEND
                                   40044                       COMMENT                   FIND START OF NUMBER
 0087E4 1932/4750 7064_            40045                       WHILE ((R3,GE,R2),AND,(@R3,GE,'0'),AND,(@R3,LE,'9')),BEGIN
 0087FA 0630                       40090  1                      DECR  R3
 0087FC 47F0 7048            087E4 40092                       END
 008800 5E30 7198            08934 40097                       INCR  R3
 008804 5030 8030            00008 40100                       ST    R3,SETINUM
 008808 5030 802C            00004 40101                       ST    R3,SETISIGN
                                   40102                       COMMENT                   FIND SIGN, IF ANY
1LINE     (LINE2193) (12:47) (15MAR04) CHANGE Command                                                                       Page  123
0Current Usings:  (CHWA,R6) (*,R7) (SETIWA-(4+36),R8) (CP,R11) (CV,R12)
0Loc    Object Code    Addr1 Addr2  Stmt Lv Lineno    Source Statement           (Hibal 5, Asmedit 3.3)  HLASM R4.0  2004/03/15 12.47
+___    ______ ____    _____ _____  ____ __ ______    ______ _________
000880C 0630                       40103                       DECR  R3
 00880E 1932/4750 70A4             40105                       IF    (R3,GE,R2),BEGIN
                                   40120  1         C            IF    ((@R3,EQ,'+'),OR,(@R3,EQ,'-'),
 008814 954E 3000/4780_00000              1                            OR,(@R3,EQ,'#'),OR,(@R3,EQ,'$')),BEGIN
 008834 5030 802C            00004 40177  2                        ST    R3,SETISIGN
 008838 D200 602C 3000 0002C 00000 40178  2                        MVC   CHISIGN,@R3
 00883E 0630                       40179  2                        DECR  R3
 008840                            40181  1                      END
 008840                            40185                       END
                                   40189                       COMMENT                   FIND START OF FIELD
                                   40190                       COMMENT                   FIELD MAY CONTAIN STARTIN BLANKS
 008840 1932/4750 70B8_            40191                       WHILE ((R3,GE,R2),AND,(@R3,EQ,' ')),BEGIN
 00884E 0630                       40223  1                      DECR  R3
 008850 47F0 70A4            08840 40225                       END
 008854 5E30 7198            08934 40230                       INCR  R3
 008858 5030 8028            00000 40233                       ST    R3,SETIFLD
                                   40234
                                   40235                       COMMENT                   GET NUMBER OFFSET, LENGTH
 00885C 4120 6148            00148 40236                       LA    R2,CHSTR2
 008860 5830 8028            00000 40237                       L     R3,SETIFLD
 008864 1B32                       40238                       SR    R3,R2
 008866 5030 6024            00024 40239                       ST    R3,CHIOFF
 00886A 5820 8028            00000 40240                       L     R2,SETIFLD
 00886E 5830 8034            0000C 40241                       L     R3,SETIEND
 008872 1B32                       40242                       SR    R3,R2
 008874 5E30 7198            08934 40243                       INCR  R3
 008878 5030 6028            00028 40246                       ST    R3,CHILEN
                                   40247
                                   40248                       COMMENT                   CHECK, GET NUMBER VALUE
 00887C 5830 8034            0000C 40249                       L     R3,SETIEND
 008880 5820 8030            00008 40250                       L     R2,SETINUM
 008884 1B32                       40251                       SR    R3,R2
 008886 5E30 7198            08934 40252                       INCR  R3
 00888A 5930 719C/47D0_      08938 40255                       IF    (R3,GT,9),BEGIN
 008892 4110 71A0/4100_      0893C 40272  1                      ERROR 'Numeric overflow in CHANGE command. '
 00889E                            40279                       END
 00889E 5820 8030            00008 40283                       L     R2,SETINUM          GET NUMBER VALUE
 0088A2 5830 8034            0000C 40284                       L     R3,SETIEND
 0088A6 1B44                       40285                       CLEAR R4
 0088A8 1B55                       40289                       CLEAR R5
 0088AA 1923/4730 712A             40293                       WHILE (R2,LE,R3),BEGIN
 0088B0 4C40 71CA            08966 40310  1                      MH    R4,=H'10'
 0088B4 4350 2000            00000 40311  1                      IC    R5,@R2
 0088B8 5450 71C4            08960 40312  1                      N     R5,=X'0000000F'
 0088BC 1A45                       40313  1                      AR    R4,R5
 0088BE 5E20 7198            08934 40314  1                      INCR  R2
 0088C2 47F0 710E            088AA 40317                       END
 0088C6 9560 602C/4770_0002C       40322                       IF    (CHISIGN,EQ,'-'),BEGIN
 0088CE 1144                       40339  1                      LNR   R4,R4
 0088D0                            40340                       END
 0088D0 5B40 601C            0001C 40344                       S     R4,CHINCR           PRE SUBTRACT ONE INCREMENT
 0088D4 5040 6020            00020 40345                       ST    R4,CHITOTAL         SAVE TOTAL TO INCREMENT
                                   40346
                                   40347                       COMMENT                   SET UP PATTERN,
1LINE     (LINE2193) (12:47) (15MAR04) CHANGE Command                                                                       Page  124
0Current Usings:  (CHWA,R6) (*,R7) (SETIWA-(4+36),R8) (CP,R11) (CV,R12)
0Loc    Object Code    Addr1 Addr2  Stmt Lv Lineno    Source Statement           (Hibal 5, Asmedit 3.3)  HLASM R4.0  2004/03/15 12.47
+___    ______ ____    _____ _____  ____ __ ______    ______ _________
0                                  40348                       COMMENT                   NEED TO MARK SIGNIFICANCE BYTE
 0088D8 D20B 602D 71CC 0002D 08968 40349                       MVC   CHIPAT,=X'402020202020202020202020202020202020'
 0088DE 5820 8030            00008 40350                       L     R2,SETINUM
 0088E2 95F0 2000/4770_00000       40351                       IF    (@R2,EQ,'0'),BEGIN  IF NUMBER STARTS W/ZERO
 0088EA 5820 8034            0000C 40367  1                      L     R2,SETIEND          MARK AT NUMBER WIDTH
 0088EE 5B20 8030            00008 40368  1                      S     R2,SETINUM
 0088F2 5E20 7198            08934 40369  1                      INCR  R2
 0088F6 4130 6039            00039 40372  1                      LA    R3,CHIPAT+L'CHIPAT
 0088FA 1B32                       40373  1                      SR    R3,R2
 0088FC 0630                       40374  1                      DECR  R3                  SET SIGNIFICANCE ON PREVIOUS BYTE
 0088FE 9221 3000      00000       40376  1                      MVI   @R3,X'21'           SIGNIFICANCE BYTE
 008902                            40377                       END
 008902 716A/47F0 7176 08902 088E8 40381                       ELSE  BEGIN               OTHERWISE LAST BYTE IS SIGNIFICANT
 008906 4130 6039            00039 40392  1                      LA    R3,CHIPAT+L'CHIPAT
 00890A 0630                       40393  1                      DECR  R3
 00890C 0630                       40395  1                      DECR  R3                  SET SIGNIFICANCE ON PREVIOUS BYTE
 00890E 9221 3000      00000       40397  1                      MVI   @R3,X'21'           SIGNIFICANCE BYTE
 008912                            40398                       END
                                   40402
 008912                            40403              SETIEXIT LABEL ,
 008912 18D8/9808 D004_            40405                       PEND
 DROP   SETIWA-(4+36),R8
 DROP   *,R7
                                   40430
                                   40431                       QLTORG
1LINE     (LINE2193) (12:47) (15MAR04) CHANGE Command                                                                       Page  125
0Current Usings:  (CHWA,R6) (CP,R11) (CV,R12)
0Loc    Object Code    Addr1 Addr2  Stmt Lv Lineno    Source Statement           (Hibal 5, Asmedit 3.3)  HLASM R4.0  2004/03/15 12.47
+___    ______ ____    _____ _____  ____ __ ______    ______ _________
0                                  40456              *
                                   40457              *   CHANGE CO-ROUTINE
                                   40458              *
                                   40459              *   ON ENTRY:
                                   40460              *     R1 - LINE LOCATION
                                   40461              *     R0 - LINE LENGTH
                                   40462              *     CPLCNO - LINE NUMBER
                                   40463              *
                                   40464              *
                                   40465              *
 00897A 50E0 D000/9008_      00000 40466              CHNGRTN  PROC
 USING  *,R7
                                   40505
                                   40506                       COMMENT                   GET GLOBAL CHANGE WORK AREA
                                   40507                       USING CHWA,R6
 008994 5860 BCA4            00CA4 40509                       L     R6,CPCWA
                                   40510
                                   40511                       COMMENT                   INIT WORKAREA,PTRS FOR CHANGES
 008998 D203 6244 B73C 00244 0073C 40512                       MVC   CHLNO,CPLCNO
 00899E 58E0 784C/0DEE       091E0 40513                       ACALL INITCHNG
                                   40517
                                   40518                       COMMENT                   LOOP MAKING CHANGES IN LINE
 0089A4 58E0 7850/0DEE       091E4 40519                       ACALL GETCHLOC            FIND CHANGE LOCATION
 0089AA 12FF/4770 7032             40523                       WHILE (R15,Z),BEGIN       WHILE SOMETHING TO CHANGE
 0089B0 58E0 7854/0DEE       091E8 40539  1                      ACALL GETCHSTR            GET REPLACEMENT STRING
 0089B6 58E0 7858/0DEE       091EC 40543  1                      ACALL DOCHANGE            SUBSTITUTE REPLACEMENT
 0089BC 58E0 7850/0DEE       091E4 40547  1                      ACALL GETCHLOC            FIND NEXT CHANGE LOCATION
 0089C2 47F0 7016            089AA 40551                       END
                                   40556
                                   40557                       COMMENT                   IF LINE NOT CHANGED, WE ARE DONE
 0089C6 9140 6003/47E0_00003       40558                       IF    ~CHFLCHNG,CHNGEXIT
                                   40576
                                   40577                       COMMENT                   ADD UNCHANGED TEXT TO END OF LINE
 0089CE 58E0 785C/0DEE       091F0 40578                       ACALL DOEND
                                   40582
                                   40583                       COMMENT                   WE CHANGED LINE
                                   40584                       COMMENT                   DO END PROCESSING, WRITE OUT LINE,
 0089D4 58E0 7860/0DEE       091F4 40585                       ACALL ENDPROC             AND MISC. JUNK (EDIT,VERIFY,ETC)
                                   40589
 0089DA                            40590              CHNGEXIT LABEL ,
 0089DA 18D8/9808 D004_            40592                       PEND
 DROP   *,R7
1LINE     (LINE2193) (12:47) (15MAR04) CHANGE Command                                                                       Page  126
0Current Usings:  (CHWA,R6) (CP,R11) (CV,R12)
0Loc    Object Code    Addr1 Addr2  Stmt Lv Lineno    Source Statement           (Hibal 5, Asmedit 3.3)  HLASM R4.0  2004/03/15 12.47
+___    ______ ____    _____ _____  ____ __ ______    ______ _________
0                                  40613              *
                                   40614              *  CHANGE INITIALIZATION
                                   40615              *
                                   40616              *
                                   40617              *
 0089E8 50E0 D000/9008_      00000 40618              INITCHNG PROC ,
 USING  *,R7
                                   40657
                                   40658                       COMMENT                   CLEAR A FEW FIELDS
 008A02 94BF 6003      00003       40659                       CLEAR CHFLCHNG            LINE NOT YET CHANGED
 008A06 D703 6018 6018 00018 00018 40666                       CLEAR CHOCCCNT            OCCURANCE COUNT
                                   40673
                                   40674                       COMMENT                   MOVE INPUT STRING
 008A0C 4120 624C            0024C 40675                       LA    R2,CHLINE           BLANK LINE
 008A10 4130 00EB            000EB 40676                       LA    R3,L'CHLINE
 008A14 5850 77F6            091F8 40677                       L     R5,=X'40000000'
 008A18 0E24                       40678                       MVCL  R2,R4
 008A1A 5000 6248            00248 40679                       ST    R0,CHLINELN         MOVE STRING
 008A1E 1830                       40680                       LR    R3,R0
 008A20 1233/47D0 702A             40681                       IF    (R3,POS),BEGIN
 008A26 0630/4430 793C_            40695  1                      DEX   R3,' MVC CHLINE(0),@R1 '
 008A2C                            40714                       END
                                   40718
                                   40719                       COMMENT                   IF C'TEXT' COPY NEW STRING
 008A2C 9120 6000/47E0_00000       40720                       IF    CHFCTEXT,BEGIN
 008A34 4120 633C            0033C 40735  1                      LA    R2,CHUPLINE         BLANK LINE
 008A38 4130 00EB            000EB 40736  1                      LA    R3,L'CHUPLINE
 008A3C 5850 77F6            091F8 40737  1                      L     R5,=X'40000000'
 008A40 0E24                       40738  1                      MVCL  R2,R4
 008A42 5000 6338            00338 40739  1                      ST    R0,CHUPLNLN         MOVE STRING
 008A46 1830                       40740  1                      LR    R3,R0
 008A48 1233/47D0 705A             40741  1                      IF    (R3,POS),BEGIN
 008A4E 0630/4430 7942_            40755  2                        DEX   R3,' MVC CHUPLINE(0),@R1 '
 008A54 5840 C8A8            008A8 40774  2                        L     R4,CVUPPTBL
 008A58 4430 7948/DC00_      0934A 40775  2                        EX    R3,' TR CHUPLINE(0),@R4'  UPPER CASE STRING
 008A5C                            40791  1                      END
 008A5C                            40795                       END
                                   40799
                                   40800                       COMMENT                   IF ALL COLUMNS, SET COLUNMS
 008A5C 9104 6000/47E0_00000       40801                       IF    CHFALL,BEGIN
 008A64 4120 0001            00001 40816  1                      LA    R2,1
 008A68 5020 6004            00004 40817  1                      ST    R2,CHCOL1           COL1 = 1
 008A6C 5900 77FA/47B0_      091FC 40818  1                      FLOOR R0,1
 008A78 5000 6008            00008 40837  1                      ST    R0,CHCOL2           COL2 = LINE LENGTH
 008A7C                            40838                       END
                                   40842
                                   40843                       COMMENT                   SET NEW LINE POINTER
 008A7C 4120 6520            00520 40844                       LA    R2,CHNEWBUF
 008A80 5020 651C            0051C 40845                       ST    R2,CHNEWNDX
                                   40846
                                   40847                       COMMENT                   SET SEARCH, MOVE INDEXES
 008A84 4120 624C            0024C 40848                       LA    R2,CHLINE
 008A88 5020 623C            0023C 40849                       ST    R2,CHMVNDX1
 008A8C 5020 6240            00240 40850                       ST    R2,CHMVNDX2
1LINE     (LINE2193) (12:47) (15MAR04) CHANGE Command                                                                       Page  127
0Current Usings:  (CHWA,R6) (*,R7) (CP,R11) (CV,R12)
0Loc    Object Code    Addr1 Addr2  Stmt Lv Lineno    Source Statement           (Hibal 5, Asmedit 3.3)  HLASM R4.0  2004/03/15 12.47
+___    ______ ____    _____ _____  ____ __ ______    ______ _________
0008A90 5020 6234            00234 40851                       ST    R2,CHNDX
                                   40852
                                   40853                       COMMENT                   FIND SEARCH INDEX LIMIT
 008A94 9180 6000/47E0_00000       40854                       IF    CHFCHSTR,BEGIN
 008A9C D503 77BE 6004_091C0 00004 40869  1                      IF    (CHCOL1,EQ,0),BEGIN IF NO X/Y COLS, USE ALL
 008AA6 4120 624C            0024C 40887  2                        LA    R2,CHLINE
 008AAA 5A20 6248            00248 40888  2                        A     R2,CHLINELN
 008AAE 5E20 77FA            091FC 40889  2                        INCR  R2                  COMPARE ENTIRE STRING + A BLANK
 008AB2 9120 6002/4710_00002       40892  2                        IF    ~CHFBLNKS,BEGIN
 008ABA 5B20 6054            00054 40907  3                          S     R2,CHSTR1LN
 008ABE                            40908  2                        END
 008ABE 5020 6238            00238 40912  2                        ST    R2,CHNDXLIM
 008AC2                            40913  1                      END
                                   40917  1
 008AC2 70C4/47F0 7108 08AC2 08AA4 40918  1                      ELSE  BEGIN               X/Y COLS, SET LIMITS
 008AC6 4120 624C            0024C 40929  2                        LA    R2,CHLINE
 008ACA 5A20 6004            00004 40930  2                        A     R2,CHCOL1           SET CHNDX
 008ACE 0620                       40931  2                        DECR  R2
 008AD0 5020 6234            00234 40933  2                        ST    R2,CHNDX
 008AD4 D503 77BE 6008_091C0 00008 40934  2                        IF    (CHCOL2,EQ,0),BEGIN NO COL2
 008ADE 4120 624C            0024C 40952  3                          LA    R2,CHLINE
 008AE2 5A20 6004            00004 40953  3                          A     R2,CHCOL1
 008AE6 5020 6238            00238 40954  3                          ST    R2,CHNDXLIM
 008AEA                            40955  2                        END
 008AEA 70EC/47F0 7108 08AEA 08ADC 40959  2                        ELSE  BEGIN               GOT COL2
 008AEE 4120 624C            0024C 40970  3                          LA    R2,CHLINE
 008AF2 5A20 6008            00008 40971  3                          A     R2,CHCOL2
 008AF6 9120 6002/4710_00002       40972  3                          IF    ~CHFBLNKS,BEGIN
 008AFE 5E20 77FA            091FC 40987  4                            INCR  R2
 008B02 5B20 6054            00054 40990  4                            S     R2,CHSTR1LN
 008B06                            40991  3                          END
 008B06 5020 6238            00238 40995  3                          ST    R2,CHNDXLIM
 008B0A                            40996  2                        END
 008B0A                            41000  1                      END
                                   41004  1
                                   41005  1                      COMMENT                   CHECK SEARCH LIMIT
 008B0A 4120 6238            00238 41006  1                      LA    R2,CHNDXLIM
 008B0E 4130 624C            0024C 41007  1                      LA    R3,CHLINE
 008B12 1B23                       41008  1                      SR    R2,R3
 008B14 0620                       41009  1                      DECR  R2                  LAST COL TO SEARCH
 008B16 5A20 6054            00054 41011  1                      A     R2,CHSTR1LN
 008B1A 5920 77FE/4750_      09200 41012  1                      IF    (R2,GE,&LINESZ),BEGIN IF SEARCH PAST END OF LINE,
 008B22 4120 6337            00337 41029  2                        LA    R2,CHLINE+&LINESZ     SHORTEN SEARCH LIMITS
 008B26 5B20 6054            00054 41030  2                        S     R2,CHSTR1LN
 008B2A 5020 6238            00238 41031  2                        ST    R2,CHNDXLIM
 008B2E                            41032  1                      END
 008B2E                            41036                       END   , END OF FIND SEARCH LIMIT
                                   41040
 008B2E 18D8/9808 D004_            41041                       PEND
 DROP   *,R7
1LINE     (LINE2193) (12:47) (15MAR04) CHANGE Command                                                                       Page  128
0Current Usings:  (CHWA,R6) (CP,R11) (CV,R12)
0Loc    Object Code    Addr1 Addr2  Stmt Lv Lineno    Source Statement           (Hibal 5, Asmedit 3.3)  HLASM R4.0  2004/03/15 12.47
+___    ______ ____    _____ _____  ____ __ ______    ______ _________
0                                  41062              *
                                   41063              *
                                   41064              *  FIND PLACE FOR REPLACE
                                   41065              *
                                   41066              *  ON EXIT:
                                   41067              *   UPDATES MOVE INDEX 1 AND, BUMPS SEARCH INDEX
                                   41068              *   R15 - ZERO, CHANGE NEEDED
                                   41069              *         NZ, NO CHANGE NEEDED
                                   41070              *
                                   41071              *
                                   41072              *  NOTE:
                                   41073              *  WE HANDLE OCCURANCE COUNT WITH RECURSION. YUCK IT UP!
                                   41074              *
                                   41075              *
 008B3C 50E0 D000/9008_      00000 41076              GETCHLOC PROC
 USING  *,R7
                                   41115                       USING CHWA,R6
                                   41117
                                   41118                       COMMENT                   IF COLUMN CHANGE,
 008B56 9140 6000/47E0_00000       41119                       IF    (CHFCHCOL),BEGIN
 008B5E 9140 6003/4710_00003       41134  1                      IF    (CHFLCHNG),GOTNOLOC IF ALREADY CHANGED, DONE
 008B66 4110 624C            0024C 41152  1                      LA    R1,CHLINE           SET PLACE TO CHANGE,,
 008B6A 5A10 6004            00004 41153  1                      A     R1,CHCOL1
 008B6E 0610                       41154  1                      DECR  R1
 008B70 5010 6240            00240 41156  1                      ST    R1,CHMVNDX2
 008B74 5010 6234            00234 41157  1                      ST    R1,CHNDX
 008B78 D503 766A 6008_091C0 00008 41158  1                      IF    (CHCOL2,GT,0),BEGIN
 008B82 4110 624C            0024C 41176  2                        LA    R1,CHLINE
 008B86 5A10 6008            00008 41177  2                        A     R1,CHCOL2
 008B8A 5010 6234            00234 41178  2                        ST    R1,CHNDX
 008B8E                            41179  1                      END
 008B8E 47F0 70C2            08C18 41183  1                      B     GOTCHLOC
 008B92                            41184                       END
                                   41188
                                   41189                       COMMENT                   IF STRING CHANGE, SEARCH FOR STR
 008B92 7040/47F0 70C2_08B92 08B5C 41190                       ELSEIF (CHFCHSTR),BEGIN
 008B9E 5810 6234            00234 41214  1                      L     R1,CHNDX            R1 - CH SEARCH INDEX
 008BA2 5820 6054            00054 41215  1                      L     R2,CHSTR1LN         R2 - COMPARE LENGTH
 008BA6 0620                       41216  1                      DECR  R2 (FOR EX)         R3 - LIMIT FOR SEARCH INDEX
 008BA8 5830 6238            00238 41218  1                      L     R3,CHNDXLIM         R4 - ACTUAL COMPARE ADDR
 008BAC 1913/47B0 70BE             41219  1                      WHILE (R1,LT,R3),BEGIN
 008BB2 1841                       41236  2                        LR    R4,R1
 008BB4 9120 6000/47E0_00000       41237  2                        IF    CHFCTEXT,BEGIN      IF C'TEXT' COMPARE AGAIST UPPER
 008BBC 4144 00F0            000F0 41252  3                          LA    R4,CHUPLINE-CHLINE(R4)
 008BC0                            41253  2                        END
 008BC0 4420 77FA/D500_      09350 41257  2                        EX    R2,' CLC @R4(0),CHSTR1 '
 008BC4 4770 70B6            08C0C 41273  2                        IF    E,BEGIN             STRING MATCH
 008BC8 5010 6240            00240 41284  3                          ST    R1,CHMVNDX2
 008BCC 5A10 6054            00054 41285  3                          A     R1,CHSTR1LN
 008BD0 5010 6234            00234 41286  3                          ST    R1,CHNDX
 008BD4 D503 766A 6014_091C0 00014 41287  3                          IF    (CHOCCUR,NE,0),BEGIN  SOME RECURSIVE OCCUR CNT LOGIC
 008BDE 41F0 0001/5EF0_      00001 41305  4                            INCR  R15,CHOCCCNT
 008BEA D503 6018 6014_00018 00014 41311  4                            IF    (CHOCCCNT,EQ,CHOCCUR),GOTCHLOC
 008BF4 D503 6018 6014_00018 00014 41332  4                            IF    (CHOCCCNT,GT,CHOCCUR),GOTNOLOC
1LINE     (LINE2193) (12:47) (15MAR04) CHANGE Command                                                                       Page  129
0Current Usings:  (CHWA,R6) (*,R7) (CP,R11) (CV,R12)
0Loc    Object Code    Addr1 Addr2  Stmt Lv Lineno    Source Statement           (Hibal 5, Asmedit 3.3)  HLASM R4.0  2004/03/15 12.47
+___    ______ ____    _____ _____  ____ __ ______    ______ _________
0008BFE 58E0 768E/0DEE       091E4 41353  4                            ACALL GETCHLOC RECURSE
 008C04 47F0 70D0            08C26 41357  4                            B     GOTCDONE
 008C08                            41358  3                          END   , END RECURSE LOGIC
 008C08 47F0 70C2            08C18 41362  3                          B     GOTCHLOC
 008C0C                            41363  2                        END   , GOT STRING MATCH
 008C0C 4111 0001            00001 41367  2                        LA    R1,1(R1)
 008C10 47F0 7056            08BAC 41368  1                      END   , STRING SEARCH LOOP
 008C14 47F0 70C8            08C1E 41373  1                      B     GOTNOLOC
 008C18                            41374                       END
                                   41378
 008C18                            41379              GOTCHLOC LABEL ,                   MATCH
 008C18 1BFF                       41381                       CLEAR R15
 008C1A 47F0 70D0            08C26 41385                       B     GOTCDONE
                                   41386
 008C1E                            41387              GOTNOLOC LABEL ,                   NO-MATCH
 008C1E 41F0 0004            00004 41389                       LA    R15,4
 008C22 47F0 70D0            08C26 41390                       B     GOTCDONE
                                   41391
 008C26                            41392              GOTCDONE LABEL ,
 008C26 18D8/9808 D004_            41394                       PEND
 DROP   *,R7
1LINE     (LINE2193) (12:47) (15MAR04) CHANGE Command                                                                       Page  130
0Current Usings:  (CHWA,R6) (CP,R11) (CV,R12)
0Loc    Object Code    Addr1 Addr2  Stmt Lv Lineno    Source Statement           (Hibal 5, Asmedit 3.3)  HLASM R4.0  2004/03/15 12.47
+___    ______ ____    _____ _____  ____ __ ______    ______ _________
0                                  41415              *
                                   41416              *
                                   41417              *  GET REPLACEMENT STRING ...
                                   41418              *
                                   41419              *
                                   41420              *
 008C34 50E0 D000/9008_      00000 41421              GETCHSTR PROC
 USING  *,R7
                                   41460                       USING CHWA,R6
                                   41462
                                   41463                       COMMENT                   IF ONE CHANGE TEXT PER LINE, AND
                                   41464                       COMMENT                   WE ALREADY HAVE IT, WE DONE
 008C4E 9104 6001/47E0_00001       41465                       IF    (CHFLINE,AND,CHFLCHNG),BEGIN
 008C5E                            41494                       END
                                   41498
 008C5E 7014/7014/47F0_08C5E 08C54 41499                       ELSEIF CHFUPPER,BEGIN     UPPER
 008C6A 58E0 75B6/0DEE       09204 41525  1                      ACALL GETUPPER
 008C70                            41529                       END
                                   41533
 008C70 7026/47F0 7034_08C70 08C68 41534                       ELSEIF CHFLOWER,BEGIN     LOWER
 008C7C 58E0 75BA/0DEE       09208 41558  1                      ACALL GETLOWER
 008C82                            41562                       END
                                   41566
 008C82 7038/47F0 7046_08C82 08C7A 41567                       ELSEIF CHFUPLOW,BEGIN     UPLOW
 008C8E 58E0 75BE/0DEE       0920C 41591  1                      ACALL GETUPLOW
 008C94                            41595                       END
                                   41599
 008C94 704A/47F0 7058_08C94 08C8C 41600                       ELSEIF CHFINCR,BEGIN      INCREMENT
 008CA0 58E0 75C2/0DEE       09210 41624  1                      ACALL GETINCR
 008CA6                            41628                       END
                                   41632
 008CA6 705C/47F0 706A_08CA6 08C9E 41633                       ELSEIF CHFUSING,BEGIN     USING
 008CB2 58E0 75C6/0DEE       09214 41657  1                      ACALL  GETUSING
 008CB8                            41661                       END
                                   41665
 008CB8 706E/47F0 707E 08CB8 08CB0 41666                       ELSE  BEGIN               SIMPLE STRING SUBSTITUTION
 008CBC 4110 6148            00148 41677  1                      LA    R1,CHSTR2
 008CC0 5010 6428            00428 41678  1                      ST    R1,CHSUBADR
 008CC4 5810 6144            00144 41679  1                      L     R1,CHSTR2LN
 008CC8 5010 642C            0042C 41680  1                      ST    R1,CHSUBLN
 008CCC                            41681                       END
                                   41685
 008CCC 18D8/9808 D004_            41686                       PEND
 DROP   *,R7
1LINE     (LINE2193) (12:47) (15MAR04) CHANGE Command                                                                       Page  131
0Current Usings:  (CHWA,R6) (CP,R11) (CV,R12)
0Loc    Object Code    Addr1 Addr2  Stmt Lv Lineno    Source Statement           (Hibal 5, Asmedit 3.3)  HLASM R4.0  2004/03/15 12.47
+___    ______ ____    _____ _____  ____ __ ______    ______ _________
0                                  41707              *
                                   41708              *  GET UPPER REPLACEMENT STRING
                                   41709              *
                                   41710              *
 008CDA 50E0 D000/9008_      00000 41711              GETUPPER PROC
 USING  *,R7
                                   41750                       USING CHWA,R6
                                   41752
                                   41753                       COMMENT                   IF REPLACE COLUMNS
 008CF4 9140 6000/47E0_00000       41754                       IF    CHFCHCOL,BEGIN      R1 - COLUMN LOC
 008CFC 4110 624C            0024C 41769  1                      LA    R1,CHLINE
 008D00 5A10 6004            00004 41770  1                      A     R1,CHCOL1
 008D04 0610                       41771  1                      DECR  R1
 008D06 5820 6008            00008 41773  1                      L     R2,CHCOL2           R2 - COLUMN LEN
 008D0A 5830 6004            00004 41774  1                      L     R3,CHCOL1
 008D0E 0630                       41775  1                      DECR  R3
 008D10 1B23                       41777  1                      SR    R2,R3
 008D12 1222/4720 7030             41778  1                      IF    (R2,NP),BEGIN
 008D18 4110 7560/4100_      09254 41792  2                        ERROR 'Ending column must be specified when using UPPER.'
 008D24                            41799  1                      END
 008D24 0620/4420 7662_            41803  1                      DEX   R2,' MVC CHSUBBUF(0),@R1 '  MOVE STRING
 008D2A 5840 C8A8            008A8 41822  1                      L     R4,CVUPPTBL
 008D2E 4420 7668/DC00_      0935C 41823  1                      EX    R2,' TR CHSUBBUF(0),@R4 '   UPPER CASE STRING
 008D32 5E20 7508            091FC 41839  1                      INCR  R2
 008D36 5020 642C            0042C 41842  1                      ST    R2,CHSUBLN
 008D3A 4110 6430            00430 41843  1                      LA    R1,CHSUBBUF
 008D3E 5010 6428            00428 41844  1                      ST    R1,CHSUBADR
 008D42                            41845                       END
                                   41849
                                   41850                       COMMENT                   IF REPLACE STRING
 008D42 9180 6000/47E0_00000       41851                       IF    (CHFCHSTR,AND,~CHFCHNGD),BEGIN
 008D52 4110 6058            00058 41880  1                      LA    R1,CHSTR1
 008D56 5820 6054            00054 41881  1                      L     R2,CHSTR1LN
 008D5A 0620/4420 766E_            41882  1                      DEX   R2,' MVC CHSUBBUF(0),@R1 '  MOVE STRING
 008D60 5840 C8A8            008A8 41901  1                      L     R4,CVUPPTBL
 008D64 4420 7674/DC00_      09368 41902  1                      EX    R2,' TR CHSUBBUF(0),@R4 '   UPPER CASE STRING
 008D68 4110 6430            00430 41918  1                      LA    R1,CHSUBBUF
 008D6C 5010 6428            00428 41919  1                      ST    R1,CHSUBADR
 008D70 5810 6054            00054 41920  1                      L     R1,CHSTR1LN
 008D74 5010 642C            0042C 41921  1                      ST    R1,CHSUBLN
 008D78                            41922                       END
                                   41926
 008D78 18D8/9808 D004_            41927                       PEND
 DROP   *,R7
1LINE     (LINE2193) (12:47) (15MAR04) CHANGE Command                                                                       Page  132
0Current Usings:  (CHWA,R6) (CP,R11) (CV,R12)
0Loc    Object Code    Addr1 Addr2  Stmt Lv Lineno    Source Statement           (Hibal 5, Asmedit 3.3)  HLASM R4.0  2004/03/15 12.47
+___    ______ ____    _____ _____  ____ __ ______    ______ _________
0                                  41948              *
                                   41949              *  GET LOWER REPLACEMENT STRING
                                   41950              *
                                   41951              *
 008D86 50E0 D000/9008_      00000 41952              GETLOWER PROC
 USING  *,R7
                                   41991                       USING CHWA,R6
                                   41993
                                   41994                       COMMENT                   IF REPLACE COLUMNS
 008DA0 9140 6000/47E0_00000       41995                       IF    CHFCHCOL,BEGIN      R1 - COLUMN LOC
 008DA8 4110 624C            0024C 42010  1                      LA    R1,CHLINE
 008DAC 5A10 6004            00004 42011  1                      A     R1,CHCOL1
 008DB0 0610                       42012  1                      DECR  R1
 008DB2 5820 6008            00008 42014  1                      L     R2,CHCOL2           R2 - COLUMN LEN
 008DB6 5830 6004            00004 42015  1                      L     R3,CHCOL1
 008DBA 0630                       42016  1                      DECR  R3
 008DBC 1B23                       42018  1                      SR    R2,R3
 008DBE 1222/4720 7030             42019  1                      IF    (R2,NP),BEGIN
 008DC4 4110 74E5/4100_      09285 42033  2                        ERROR 'Ending column must be specified when using LOWER.'
 008DD0                            42040  1                      END
 008DD0 0620/4420 75CE_            42044  1                      DEX   R2,' MVC CHSUBBUF(0),@R1 '  MOVE STRING
 008DD6 5840 C8AC            008AC 42063  1                      L     R4,CVLOWTBL
 008DDA 4420 75D4/DC00_      09374 42064  1                      EX    R2,' TR CHSUBBUF(0),@R4 '   LOWER CASE STRING
 008DDE 5E20 745C            091FC 42080  1                      INCR  R2
 008DE2 5020 642C            0042C 42083  1                      ST    R2,CHSUBLN
 008DE6 4110 6430            00430 42084  1                      LA    R1,CHSUBBUF
 008DEA 5010 6428            00428 42085  1                      ST    R1,CHSUBADR
 008DEE                            42086                       END
                                   42090
                                   42091                       COMMENT                   IF REPLACE STRING
 008DEE 9180 6000/47E0_00000       42092                       IF    (CHFCHSTR,AND,~CHFCHNGD),BEGIN
 008DFE 4110 6058            00058 42121  1                      LA    R1,CHSTR1
 008E02 5820 6054            00054 42122  1                      L     R2,CHSTR1LN
 008E06 0620/4420 75DA_            42123  1                      DEX   R2,' MVC CHSUBBUF(0),@R1 '  MOVE STRING
 008E0C 5840 C8AC            008AC 42142  1                      L     R4,CVLOWTBL
 008E10 4420 75E0/DC00_      09380 42143  1                      EX    R2,' TR CHSUBBUF(0),@R4 '   LOWER CASE STRING
 008E14 4110 6430            00430 42159  1                      LA    R1,CHSUBBUF
 008E18 5010 6428            00428 42160  1                      ST    R1,CHSUBADR
 008E1C 5810 6054            00054 42161  1                      L     R1,CHSTR1LN
 008E20 5010 642C            0042C 42162  1                      ST    R1,CHSUBLN
 008E24                            42163                       END
                                   42167
 008E24 18D8/9808 D004_            42168                       PEND
 DROP   *,R7
1LINE     (LINE2193) (12:47) (15MAR04) CHANGE Command                                                                       Page  133
0Current Usings:  (CHWA,R6) (CP,R11) (CV,R12)
0Loc    Object Code    Addr1 Addr2  Stmt Lv Lineno    Source Statement           (Hibal 5, Asmedit 3.3)  HLASM R4.0  2004/03/15 12.47
+___    ______ ____    _____ _____  ____ __ ______    ______ _________
0                                  42189              *
                                   42190              *  GET UPLOW REPLACEMENT STRING
                                   42191              *
                                   42192              *
 008E32 50E0 D000/9008_      00000 42193              GETUPLOW PROC
 USING  *,R7
                                   42232                       USING CHWA,R6
                                   42234
                                   42235                       COMMENT                   IF REPLACE COLUMNS
 008E4C 9140 6000/47E0_00000       42236                       IF    CHFCHCOL,BEGIN      R1 - COLUMN LOC
 008E54 4110 624C            0024C 42251  1                      LA    R1,CHLINE
 008E58 5A10 6004            00004 42252  1                      A     R1,CHCOL1
 008E5C 0610                       42253  1                      DECR  R1
 008E5E 5820 6008            00008 42255  1                      L     R2,CHCOL2           R2 - COLUMN LEN
 008E62 5830 6004            00004 42256  1                      L     R3,CHCOL1
 008E66 0630                       42257  1                      DECR  R3
 008E68 1B23                       42259  1                      SR    R2,R3
 008E6A 1222/4720 7030             42260  1                      IF    (R2,NP),BEGIN
 008E70 4110 746A/4100_      092B6 42274  2                        ERROR 'Ending column must be specified when using UPLOW.'
 008E7C                            42281  1                      END
 008E7C                            42285                       END
 008E7C 0620/4420 753A_            42289                       DEX   R2,' MVC CHSUBBUF(0),@R1 '       MOVE STRING
 008E82 5E20 73B0            091FC 42308                       INCR  R2
 008E86 5020 642C            0042C 42311                       ST    R2,CHSUBLN
 008E8A 4110 6430            00430 42312                       LA    R1,CHSUBBUF
 008E8E 5010 6428            00428 42313                       ST    R1,CHSUBADR
                                   42314
                                   42315                       COMMENT                   IF REPLACE STRING
 008E92 9180 6000/47E0_00000       42316                       IF    (CHFCHSTR,AND,~CHFCHNGD),BEGIN
 008EA2 4110 6058            00058 42345  1                      LA    R1,CHSTR1
 008EA6 5820 6054            00054 42346  1                      L     R2,CHSTR1LN
 008EAA 0620/4420 7540_            42347  1                      DEX   R2,' MVC CHSUBBUF(0),@R1 '       MOVE STRING
 008EB0 4110 6430            00430 42366  1                      LA    R1,CHSUBBUF
 008EB4 5010 6428            00428 42367  1                      ST    R1,CHSUBADR
 008EB8 5810 6054            00054 42368  1                      L     R1,CHSTR1LN
 008EBC 5010 642C            0042C 42369  1                      ST    R1,CHSUBLN
 008EC0                            42370                       END
                                   42374
                                   42375                       COMMENT                   UPLOW STRING
 008EC0 5800 642C            0042C 42376                       L     R0,CHSUBLN
 008EC4 5810 6428            00428 42377                       L     R1,CHSUBADR
 008EC8 58E0 73CC/0DEE       09218 42378                       ACALL UPLOW
                                   42382
 008ECE 18D8/9808 D004_            42383                       PEND
 DROP   *,R7
                                   42403              *
                                   42404              *   R1,R0 - STRING TO UPLOW !
 008EDC 50E0 D000/9008_      00000 42405              UPLOW    PROC
 USING  *,R7
 008EF6 18D8/9808 D004_            42444                       PEND
 DROP   *,R7
                                   42464
1LINE     (LINE2193) (12:47) (15MAR04) CHANGE Command                                                                       Page  134
0Current Usings:  (CHWA,R6) (CP,R11) (CV,R12)
0Loc    Object Code    Addr1 Addr2  Stmt Lv Lineno    Source Statement           (Hibal 5, Asmedit 3.3)  HLASM R4.0  2004/03/15 12.47
+___    ______ ____    _____ _____  ____ __ ______    ______ _________
0                                  42466              *
                                   42467              *  GET USING REPLACEMENT STRING FROM ACTIVE FILE
                                   42468              *
 008F04 50E0 D000/9008_      00000 42469              GETUSING PROC
 USING  *,R7
                                   42508
                                   42509                       COMMENT                   IF 1ST TIME, VALIDITY CHECK RANGE
 008F1E 9180 6003/4710_00003       42510                       IF    ~CHFCHNGD,BEGIN
 008F26 5800 603C            0003C 42525  1                      L     R0,CHUFIRST
 008F2A 1B11                       42526  1                      CLEAR R1
 008F2C 58E0 72FE/0DEE       0921C 42530  1                      VCALL GTFRSTLN
 008F32 4780 7024            08F42 42534  1                      IF    NZ,BEGIN
 008F36 4110 73C9/4100_      092E7 42545  2                        ERROR 'No lines in USING range. '
 008F42                            42552  1                      END
 008F42 5900 6040/47D0_      00040 42556  1                      IF    (R0,GT,CHULAST),BEGIN
 008F4A 4110 73C9/4100_      092E7 42573  2                        ERROR 'No lines in USING range. '
 008F56                            42580  1                      END
 008F56                            42584                       END
                                   42588
                                   42589                       COMMENT                   BLANK BUFFER
 008F56 4120 6430            00430 42590                       LA    R2,CHSUBBUF
 008F5A 4130 00EB            000EB 42591                       LA    R3,L'CHSUBBUF
 008F5E 5850 72DA            091F8 42592                       L     R5,=X'40000000'
 008F62 0E24                       42593                       MVCL  R2,R4
                                   42594
                                   42595                       COMMENT                   GET USING LINE
 008F64 4110 6430            00430 42596                       LA    R1,CHSUBBUF
 008F68 4120 603C            0003C 42597                       LA    R2,CHUFIRST
 008F6C 1B33                       42598                       CLEAR R3
 008F6E 58E0 7302/0DEE       09220 42602                       VCALL GTFRST
                                   42606
                                   42607                       COMMENT                   NO MORE LINES IN RANGE,
                                   42608                       COMMENT                   REPEAT RANGE, OR ** EXIT **
 008F74 4770 7064/D503_      08F82 42609                       IF    (NZ,OR,(CHUFIRST,GT,CHULAST)),BEGIN  NO MORE LINES
 008F82 9102 6001/4710_00001       42637  1                      IF    ~CHFREP,BEGIN
 008F8A 4110 73E2/4100_      09300 42652  2                        TSEG  'Not enough lines for using.',,CR
 008F9C 4110 731E/4100_      0923C 42670  2                        SETMSG 'Repeat'
 008FA4 58E0 730A/0DEE       09228 42674  2                        VCALL YESRTN
 008FAA 4780 70A6            08FC4 42678  2                        IF    NZ,BEGIN
 008FAE 4110 7324/4100_      09242 42689  3                          TSEG  'No repeating done.'
 008FC0 47F0 C7DE            007DE 42707  3                          B     CVNEXT              ****** EXIT CHANGE COMMAND *****
 008FC4                            42708  2                        END   ,                   *** IF NO REPEAT OF USING ******
 008FC4 9602 6001      00001       42712  2                        SET   CHFREP
 008FC8                            42718  1                      END
 008FC8 5810 604C            0004C 42722  1                      L     R1,CHUXFIR          RESET RANGE FOR REPEAT
 008FCC 5010 603C            0003C 42723  1                      ST    R1,CHUFIRST
 008FD0 4110 6430            00430 42724  1                      LA    R1,CHSUBBUF
 008FD4 4120 603C            0003C 42725  1                      LA    R2,CHUFIRST
 008FD8 1B33                       42726  1                      CLEAR R3
 008FDA 58E0 7302/0DEE       09220 42730  1                      VCALL GTFRST              REPEAT AT START OF RANGE
 008FE0 4770 70D0/D503_      08FEE 42734  1                      IF    (NZ,OR,(CHUFIRST,GT,CHULAST)),BEGIN  NO MORE LINES
 008FEE 4110 72AA/4100_      091C8 42762  2                        ERROR 'No lines in USING range.' SHOULD NEVER HAPPEN
 008FFA                            42769  1                      END
 008FFA                            42773                       END
1LINE     (LINE2193) (12:47) (15MAR04) CHANGE Command                                                                       Page  135
0Current Usings:  (CHWA,R6) (*,R7) (CP,R11) (CV,R12)
0Loc    Object Code    Addr1 Addr2  Stmt Lv Lineno    Source Statement           (Hibal 5, Asmedit 3.3)  HLASM R4.0  2004/03/15 12.47
+___    ______ ____    _____ _____  ____ __ ______    ______ _________
0                                  42777
                                   42778                       COMMENT                   SET POINTERS TO LINE USED
 008FFA 5000 642C            0042C 42779                       ST    R0,CHSUBLN
 008FFE 4110 6430            00430 42780                       LA    R1,CHSUBBUF
 009002 5010 6428            00428 42781                       ST    R1,CHSUBADR
                                   42782
                                   42783                       COMMENT                   BUMP LINE NUMBER FOR NEXT USING
 009006 5800 603C            0003C 42784                       L     R0,CHUFIRST
 00900A 4110 0001            00001 42785                       LA    R1,1
 00900E 58E0 7312/0DEE       09230 42786                       VCALL ADDER
 009014 5000 603C            0003C 42790                       ST    R0,CHUFIRST
                                   42791
                                   42792                       COMMENT                   IF USING ... COL=X/Y
 009018 D503 72A2 6044_091C0 00044 42793                       IF    (CHUCOL1,GT,0),BEGIN
 009022 5810 6428            00428 42811  1                      L     R1,CHSUBADR         R1 - LOC
 009026 5A10 6044            00044 42812  1                      A     R1,CHUCOL1
 00902A 0610                       42813  1                      DECR  R1
 00902C 5010 6428            00428 42815  1                      ST    R1,CHSUBADR
 009030 5820 6048            00048 42816  1                      L     R2,CHUCOL2          R2 - LEN
 009034 1222/4770 7120_            42817  1                      IF    (R2,Z),' L R2,CHSUBLN'
 00903E 5810 6044            00044 42837  1                      L     R1,CHUCOL1
 009042 0610                       42838  1                      DECR  R1
 009044 1B21                       42840  1                      SR    R2,R1
 009046 1222/47B0 7130_            42841  1                      IF    (R2,NEG),' CLEAR R2 '
 00904E 5020 642C            0042C 42864  1                      ST    R2,CHSUBLN
 009052                            42865                       END
                                   42869
 009052 18D8/9808 D004_            42870                       PEND
 DROP   *,R7
1LINE     (LINE2193) (12:47) (15MAR04) CHANGE Command                                                                       Page  136
0Current Usings:  (CHWA,R6) (CP,R11) (CV,R12)
0Loc    Object Code    Addr1 Addr2  Stmt Lv Lineno    Source Statement           (Hibal 5, Asmedit 3.3)  HLASM R4.0  2004/03/15 12.47
+___    ______ ____    _____ _____  ____ __ ______    ______ _________
0                                  42891              *
                                   42892              *  GET INCREMENT STRING
                                   42893              *
                                   42894              *
                                   42895              *
 000000                00000 0001C 42896              GETIWA   RECORD BEGIN
 000000                            42904  1           GETIPACK   DS    2F                  TOTAL VALUE IN PACKED FORMAT
 000008                            42905  1           GETIPAT    DS    CL12                PATTERN
 000014                            42906  1           GETIMINL   DS    F                   MINIMAL NUMBER LENGTH
 000018                            42907  1           GETINLEN   DS    F                   NUMBER MOVE LENGTH
 00001C                0001C 0001C 42908                       END
                                   42917              *
                                   42918              *
 009060 50E0 D000/9008_      00000 42919              GETINCR  PROC  GETIWA
 USING  *,R7
 USING  GETIWA-(4+36),R8
                                   42969
                                   42970                       COMMENT                   INITIALIZE PATTERN
 00907A D20B 8030 602D 00008 0002D 42971                       MVC   GETIPAT,CHIPAT
                                   42972
                                   42973                       COMMENT                   INCREMENT VALUE
 009080 5820 6020            00020 42974                       L     R2,CHITOTAL
 009084 5A20 601C            0001C 42975                       A     R2,CHINCR
 009088 5920 71BA/4720_      09234 42976                       IF    ((R2,GT,999999999),OR,(R2,LT,-999999999)),BEGIN
 009098 4110 72A1/4100_      0931B 43008  1                      ERROR 'Numeric overflow in CHANGE command.'
 0090A4                            43015                       END
 0090A4 5020 6020            00020 43019                       ST    R2,CHITOTAL
                                   43020
                                   43021                       COMMENT                   DEFAULT R1 FOR EDMK
                                   43022                       COMMENT                   SET R1 TO FIRST BYTE FORCED OUT
 0090A8 4110 803C            00014 43023                       LA    R1,GETIPAT+L'GETIPAT
 0090AC 0610                       43024                       DECR  R1
 0090AE 9521 1000/4780_00000       43026                       WHILE (@R1,NE,X'21'),' DECR R1 '
 0090BC 5E10 7182            091FC 43052                       INCR  R1
                                   43055
                                   43056                       COMMENT                   FORMAT VALUE
 0090C0 4E20 8028            00000 43057                       CVD   R2,GETIPACK
 0090C4 DF0B 8030 802A 00008 00002 43058                       EDMK  GETIPAT,GETIPACK+2
 0090CA 0610                       43059                       DECR  R1
 0090CC 1222/47B0 705E             43061                       IF    (R2,NEG),BEGIN
 0090D2 9260 1000      00000       43075  1                      MVI   @R1,C'-'
 0090D6 0610                       43076  1                      DECR  R1
 0090D8                            43078                       END
 0090D8 7062/47F0 7070_090D8 090D0 43082                       ELSEIF    (CHISIGN,EQ,'+'),BEGIN
 0090E4 924E 1000      00000       43108  1                      MVI   @R1,C'+'
 0090E8 0610                       43109  1                      DECR  R1
 0090EA                            43111                       END
 0090EA 7074/47F0 7082_090EA 090E2 43115                       ELSEIF    (CHISIGN,EQ,'#'),BEGIN
 0090F6 927B 1000      00000       43141  1                      MVI   @R1,C'#'
 0090FA 0610                       43142  1                      DECR  R1
 0090FC                            43144                       END
 0090FC 7086/47F0 7094_090FC 090F4 43148                       ELSEIF    (CHISIGN,EQ,'$'),BEGIN
 009108 925B 1000      00000       43174  1                      MVI   @R1,C'$'
 00910C 0610                       43175  1                      DECR  R1
1LINE     (LINE2193) (12:47) (15MAR04) CHANGE Command                                                                       Page  137
0Current Usings:  (CHWA,R6) (*,R7) (GETIWA-(4+36),R8) (CP,R11) (CV,R12)
0Loc    Object Code    Addr1 Addr2  Stmt Lv Lineno    Source Statement           (Hibal 5, Asmedit 3.3)  HLASM R4.0  2004/03/15 12.47
+___    ______ ____    _____ _____  ____ __ ______    ______ _________
000910E                            43177                       END
                                   43181
                                   43182                       COMMENT                   CALCULATE MINIMUM LENGTH
                                   43183                       COMMENT                   AND CALCULATE NUMBER MOVE LENGTH
 00910E 4120 803C            00014 43184                       LA    R2,GETIPAT+L'GETIPAT    R2 - ACTUAL NUMBER LENGTH
 009112 1B21                       43185                       SR    R2,R1
 009114 0620                       43186                       DECR  R2
 009116 5020 803C            00014 43188                       ST    R2,GETIMINL
 00911A 5920 6028/47D0_      00028 43189                       IF    (R2,GT,CHILEN),BEGIN   MOVE LENGTH IS MAX ( MINAMAL
 009122 5020 8040            00018 43206  1                      ST    R2,GETINLEN            NUMBER LENGTH, NUMBER FIELD
 009126                            43207                       END   ,                      SIZE )
 009126 70B0/47F0 70B8 09126 09120 43211                       ELSE  BEGIN
 00912A 5820 6028            00028 43222  1                      L     R2,CHILEN
 00912E 5020 8040            00018 43223  1                      ST    R2,GETINLEN
 009132                            43224                       END
                                   43228
                                   43229                       COMMENT                   PUT STRING BACK TOGETHER
                                   43230                       COMMENT                   FIRST PART, IF ANY
 009132 4110 6148            00148 43231                       LA    R1,CHSTR2
 009136 5820 6024            00024 43232                       L     R2,CHIOFF
 00913A 4130 6430            00430 43233                       LA    R3,CHSUBBUF
 00913E 1222/47D0 70D0             43234                       IF    (R2,POS),BEGIN
 009144 0620/4420 7318_            43248  1                      DEX   R2,' MVC @R3(0),@R1 '
 00914A                            43267                       END
                                   43271                       COMMENT                   NUMBER PART
 00914A 4110 803C            00014 43272                       LA    R1,GETIPAT+L'GETIPAT
 00914E 5B10 8040            00018 43273                       S     R1,GETINLEN
 009152 5820 8040            00018 43274                       L     R2,GETINLEN
 009156 4130 6430            00430 43275                       LA    R3,CHSUBBUF
 00915A 5A30 6024            00024 43276                       A     R3,CHIOFF
 00915E 1222/47D0 70F0             43277                       IF    (R2,POS),BEGIN
 009164 0620/4420 731E_            43291  1                      DEX   R2,' MVC @R3(0),@R1 '
 00916A                            43310                       END
                                   43314                       COMMENT                   FINAL PART, IF ANY
 00916A 4110 6148            00148 43315                       LA    R1,CHSTR2
 00916E 5A10 6024            00024 43316                       A     R1,CHIOFF
 009172 5A10 6028            00028 43317                       A     R1,CHILEN
 009176 5820 6144            00144 43318                       L     R2,CHSTR2LN
 00917A 5B20 6024            00024 43319                       S     R2,CHIOFF
 00917E 5B20 6028            00028 43320                       S     R2,CHILEN
 009182 4130 6430            00430 43321                       LA    R3,CHSUBBUF
 009186 5A30 6024            00024 43322                       A     R3,CHIOFF
 00918A 5A30 8040            00018 43323                       A     R3,GETINLEN
 00918E 1222/47D0 7120             43324                       IF    (R2,POS),BEGIN
 009194 0620/4420 7324_            43338  1                      DEX   R2,' MVC @R3(0),@R1 '
 00919A                            43357                       END
                                   43361                       COMMENT                   SAVE INCR STRING ADDR, LEN
 00919A 4110 6430            00430 43362                       LA    R1,CHSUBBUF
 00919E 5010 6428            00428 43363                       ST    R1,CHSUBADR
 0091A2 5820 6144            00144 43364                       L     R2,CHSTR2LN
 0091A6 5B20 6028            00028 43365                       S     R2,CHILEN
 0091AA 5A20 8040            00018 43366                       A     R2,GETINLEN
 0091AE 5020 642C            0042C 43367                       ST    R2,CHSUBLN
                                   43368
1LINE     (LINE2193) (12:47) (15MAR04) CHANGE Command                                                                       Page  138
0Current Usings:  (CHWA,R6) (CP,R11) (CV,R12)
0Loc    Object Code    Addr1 Addr2  Stmt Lv Lineno    Source Statement           (Hibal 5, Asmedit 3.3)  HLASM R4.0  2004/03/15 12.47
+___    ______ ____    _____ _____  ____ __ ______    ______ _________
00091B2 18D8/9808 D004_            43369                       PEND
 DROP   GETIWA-(4+36),R8
 DROP   *,R7
                                   43394
                                   43395                       QLTORG
1LINE     (LINE2193) (12:47) (15MAR04) CHANGE Command                                                                       Page  139
0Current Usings:  (CHWA,R6) (CP,R11) (CV,R12)
0Loc    Object Code    Addr1 Addr2  Stmt Lv Lineno    Source Statement           (Hibal 5, Asmedit 3.3)  HLASM R4.0  2004/03/15 12.47
+___    ______ ____    _____ _____  ____ __ ______    ______ _________
0                                  43441              *
                                   43442              *
                                   43443              *  DO CHANGE SUBSTITUTION
                                   43444              *
                                   43445              *
                                   43446              *
 0093A4 50E0 D000/9008_      00000 43447              DOCHANGE PROC
 USING  *,R7
                                   43486                       USING CHWA,R6
                                   43488
                                   43489                       COMMENT                   MOVE PREVIOUS TEXT, IF NEEDED
 0093BE 5810 623C            0023C 43490                       L     R1,CHMVNDX1
 0093C2 5820 6240            00240 43491                       L     R2,CHMVNDX2
 0093C6 1B21                       43492                       SR    R2,R1
 0093C8 5830 651C            0051C 43493                       L     R3,CHNEWNDX
 0093CC 1222/4780 7022             43494                       IF    (R2,NZ),BEGIN
 0093D2 0620/4420 749A_            43508  1                      DEX   R2,' MVC @R3(0),@R1 '
 0093D8 4133 2001            00001 43527  1                      LA    R3,1(R3,R2)
 0093DC 5030 651C            0051C 43528  1                      ST    R3,CHNEWNDX
 0093E0                            43529                       END
 0093E0 5810 6234            00234 43533                       L     R1,CHNDX            UPDATE PREVIOUS TEXT POINTERS
 0093E4 5010 623C            0023C 43534                       ST    R1,CHMVNDX1
 0093E8 5010 6240            00240 43535                       ST    R1,CHMVNDX2
                                   43536
                                   43537                       COMMENT                   MOVE REPLACEMENT TEXT
 0093EC 5810 6428            00428 43538                       L     R1,CHSUBADR
 0093F0 5820 642C            0042C 43539                       L     R2,CHSUBLN
 0093F4 5830 651C            0051C 43540                       L     R3,CHNEWNDX
 0093F8 1222/4780 704E             43541                       IF    (R2,NZ),BEGIN
 0093FE 0620/4420 74A0_            43555  1                      DEX   R2,' MVC @R3(0),@R1 '
 009404 4132 3001            00001 43574  1                      LA    R3,1(R2,R3)
 009408 5030 651C            0051C 43575  1                      ST    R3,CHNEWNDX
 00940C                            43576                       END
                                   43580
                                   43581                       COMMENT                   CHECK FOR CHANGES OVERFLOW
 00940C 4110 6520            00520 43582                       LA    R1,CHNEWBUF
 009410 5A10 7452            09810 43583                       A     R1,=AL4(&LINESZ)
 009414 5820 651C            0051C 43584                       L     R2,CHNEWNDX
 009418 1921/47D0 7064             43585                       IF    (R2,GT,R1),BEGIN    RESET NDX IF TOO BIG
 00941E 5010 651C            0051C 43600  1                      ST    R1,CHNEWNDX
 009422                            43601                       END
                                   43605
 009422 9680 6003      00003       43606                       SET   CHFCHNGD            CHANGED
 009426 9640 6003      00003       43612                       SET   CHFLCHNG            THIS LINE CHANGED
                                   43618
 00942A 18D8/9808 D004_            43619                       PEND
 DROP   *,R7
1LINE     (LINE2193) (12:47) (15MAR04) CHANGE Command                                                                       Page  140
0Current Usings:  (CHWA,R6) (CP,R11) (CV,R12)
0Loc    Object Code    Addr1 Addr2  Stmt Lv Lineno    Source Statement           (Hibal 5, Asmedit 3.3)  HLASM R4.0  2004/03/15 12.47
+___    ______ ____    _____ _____  ____ __ ______    ______ _________
0                                  43640              *
                                   43641              *
                                   43642              *  DO END ,,, ADD TRAILING TEXT AFTER LAST SUBSTITUTION
                                   43643              *
                                   43644              *
 009438 50E0 D000/9008_      00000 43645              DOEND    PROC
 USING  *,R7
                                   43684
                                   43685                       COMMENT                   IF FENCE COL, DO SPECIAL CODE
 009452 D503 73A2 600C_097F4 0000C 43686                       IF    (CHFENCE,NE,0),BEGIN
 00945C 58E0 73C2/0DEE       09814 43704  1                      ACALL DOFENCE
 009462                            43708                       END
                                   43712
                                   43713                       COMMENT                   IF NO FENCE COL, STANDARD CODE
 009462 7014/47F0 7042 09462 0945A 43714                       ELSE  BEGIN
 009466 4120 624C            0024C 43725  1                      LA    R2,CHLINE
 00946A 5A20 6248            00248 43726  1                      A     R2,CHLINELN
 00946E 5020 6240            00240 43727  1                      ST    R2,CHMVNDX2         R2 - END OF STRING
 009472 5020 6234            00234 43728  1                      ST    R2,CHNDX
 009476 5810 623C            0023C 43729  1                      L     R1,CHMVNDX1         R1 - SOURCE
 00947A 1B21                       43730  1                      SR    R2,R1               R2 - LENGTH
 00947C 5830 651C            0051C 43731  1                      L     R3,CHNEWNDX         R3 - DESTINATION
 009480 1222/47D0 7042             43732  1                      IF    (R2,POS),BEGIN
 009486 0620/4420 7412_            43746  2                        DEX   R2,' MVC @R3(0),@R1 '
 00948C 4132 3001            00001 43765  2                        LA    R3,1(R2,R3)
 009490 5030 651C            0051C 43766  2                        ST    R3,CHNEWNDX
 009494                            43767  1                      END
 009494                            43771                       END
                                   43775
 009494 18D8/9808 D004_            43776                       PEND
 DROP   *,R7
1LINE     (LINE2193) (12:47) (15MAR04) CHANGE Command                                                                       Page  141
0Current Usings:  (CHWA,R6) (CP,R11) (CV,R12)
0Loc    Object Code    Addr1 Addr2  Stmt Lv Lineno    Source Statement           (Hibal 5, Asmedit 3.3)  HLASM R4.0  2004/03/15 12.47
+___    ______ ____    _____ _____  ____ __ ______    ______ _________
0                                  43797              *
                                   43798              *  DO FENCE PROCESSING
                                   43799              *
                                   43800              *  ADD TRAILING TEXT AFTER LAST SUBSTITUTUTION
                                   43801              *  TAKING INTO CONSIDERATION THE FENCE COLUMN AND ITS RAMIFICATIONS
                                   43802              *
                                   43803              *  NOTE:
                                   43804              *  IN THIS ROUTINE WE USE THE COMPUTATIONAL FENCE COLUMN VALUE
                                   43805              *  (= FENCE COL-1) FOR ALL TESTS AND CALCULATIONS.  THE
                                   43806              *  COMPUTATIONAL VALUE MARKS THE LENGTH (AND CALCULATES THE END)
                                   43807              *  OF THE FIRST PART OF THE LINE BEFORE THE FENCE.
                                   43808              *  WHATEVER WORKS. AND IT DOES.
                                   43809              *
                                   43810              *
 0094A2 50E0 D000/9008_      00000 43811              DOFENCE  PROC
 USING  *,R7
                                   43850              *
                                   43851              *
                                   43852              *  IF SMALL LINE
                                   43853              *
                                   43854              *
                                   43855                       COMMENT                   IF LINE LESS THAN FENCE,,
                                   43856                       COMMENT                   MOVE TRAILING TEXT
 0094BC D503 6248 6010_00248 00010 43857                       IF    (CHLINELN,LE,CHCFENCE),BEGIN
 0094C6 4120 624C            0024C 43875  1                      LA    R2,CHLINE
 0094CA 5A20 6248            00248 43876  1                      A     R2,CHLINELN
 0094CE 5020 6240            00240 43877  1                      ST    R2,CHMVNDX2
 0094D2 5020 6234            00234 43878  1                      ST    R2,CHNDX
 0094D6 5810 623C            0023C 43879  1                      L     R1,CHMVNDX1         R1 - SOURCE
 0094DA 1B21                       43880  1                      SR    R2,R1               R2 - LENGTH
 0094DC 5830 651C            0051C 43881  1                      L     R3,CHNEWNDX         R3 - DESTINATION
 0094E0 1222/47D0 7038             43882  1                      IF    (R2,POS),BEGIN
 0094E6 0620/4420 73AE_            43896  2                        DEX   R2,' MVC @R3(0),@R1 '
 0094EC 4132 3001            00001 43915  2                        LA    R3,1(R2,R3)
 0094F0 5030 651C            0051C 43916  2                        ST    R3,CHNEWNDX
 0094F4                            43917  1                      END
                                   43921  1                      COMMENT ,                 TRIM TRAILING BLANKS
 0094F4 4110 6520            00520 43922  1                      LA    R1,CHNEWBUF
 0094F8 5800 651C            0051C 43923  1                      L     R0,CHNEWNDX
 0094FC 1B01                       43924  1                      SR    R0,R1
 0094FE 58E0 735C/0DEE       09818 43925  1                      VCALL RTRIM
 009504 1840                       43929  1                      LR    R4,R0
 009506 4110 6520            00520 43930  1                      LA    R1,CHNEWBUF
 00950A 1A01                       43931  1                      AR    R0,R1
 00950C 5000 651C            0051C 43932  1                      ST    R0,CHNEWNDX
                                   43933  1                      COMMENT                   MAY NEED TO TRUCATE TO FENCE COL
 009510 5940 6010/47D0_      00010 43934  1                      IF    (R4,GT,CHCFENCE),BEGIN
 009518 4110 6520            00520 43951  2                        LA    R1,CHNEWBUF         TRUNCATE BY POINTER SUBTRACTION
 00951C 5A10 6010            00010 43952  2                        A     R1,CHCFENCE
 009520 5010 651C            0051C 43953  2                        ST    R1,CHNEWNDX
 009524 4110 733C/4100_      097F8 43954  2                        TSEG  'Characters lost in line '
 009536 5800 6244            00244 43972  2                        L     R0,CHLNO
 00953A 58E0 7364/0DEE       09820 43973  2                        VCALL CVEXNO
 009540 41F0 B050/58E0_      00050 43977  2                        TSEG  (R1),(R0),WR
1LINE     (LINE2193) (12:47) (15MAR04) CHANGE Command                                                                       Page  142
0Current Usings:  (CHWA,R6) (*,R7) (CP,R11) (CV,R12)
0Loc    Object Code    Addr1 Addr2  Stmt Lv Lineno    Source Statement           (Hibal 5, Asmedit 3.3)  HLASM R4.0  2004/03/15 12.47
+___    ______ ____    _____ _____  ____ __ ______    ______ _________
000954A 47D0 7096/9680_      09552 44001  2                        IF    P,' SET CHFCQUIT'   IF ATTN , QUIT
 009552                            44023  1                      END
 009552                            44027                       END   , OF SMALL LINE
                                   44031              *
                                   44032              *
                                   44033              *  LINE LARGER THAN FENCE COLUMN
                                   44034              *
                                   44035              *
 009552 709A/47F0 7174 09552 094C4 44036                       ELSE  BEGIN
                                   44047  1                      COMMENT                   MOVE TRAILING TEXT
 009556 4120 624C            0024C 44048  1                      LA    R2,CHLINE
 00955A 5A20 6010            00010 44049  1                      A     R2,CHCFENCE
 00955E 5020 6240            00240 44050  1                      ST    R2,CHMVNDX2         R2 - END OF LINE (W/FENCE)
 009562 5020 6234            00234 44051  1                      ST    R2,CHNDX
 009566 5810 623C            0023C 44052  1                      L     R1,CHMVNDX1         R1 - SOURCE
 00956A 1B21                       44053  1                      SR    R2,R1               R2 - LENGTH
 00956C 5830 651C            0051C 44054  1                      L     R3,CHNEWNDX         R3 - DESTINATION
 009570 1222/47D0 70C8             44055  1                      IF    (R2,POS),BEGIN
 009576 0620/4420 73B4_            44069  2                        DEX   R2,' MVC @R3(0),@R1 '
 00957C 4132 3001            00001 44088  2                        LA    R3,1(R2,R3)
 009580 5030 651C            0051C 44089  2                        ST    R3,CHNEWNDX
 009584                            44090  1                      END
                                   44094  1
                                   44095  1                      COMMENT ,                 TRIM TRAILING BLANKS
 009584 4110 6520            00520 44096  1                      LA    R1,CHNEWBUF
 009588 5800 651C            0051C 44097  1                      L     R0,CHNEWNDX
 00958C 1B01                       44098  1                      SR    R0,R1
 00958E 58E0 735C/0DEE       09818 44099  1                      VCALL RTRIM
 009594 1840                       44103  1                      LR    R4,R0
 009596 4110 6520            00520 44104  1                      LA    R1,CHNEWBUF
 00959A 1A01                       44105  1                      AR    R0,R1
 00959C 5000 651C            0051C 44106  1                      ST    R0,CHNEWNDX
                                   44107  1
                                   44108  1                      COMMENT                   PAD/TRUNCATE TO FENCE COL
 0095A0 5940 6010/47D0_      00010 44109  1                      IF    (R4,GT,CHCFENCE),BEGIN   TRUNCATE
 0095A8 4110 733C/4100_      097F8 44126  2                        TSEG  'Characters lost in line '
 0095BA 5800 6244            00244 44144  2                        L     R0,CHLNO
 0095BE 58E0 7364/0DEE       09820 44145  2                        VCALL CVEXNO
 0095C4 41F0 B050/58E0_      00050 44149  2                        TSEG  (R1),(R0),WR
 0095CE 47D0 711A/9680_      095D6 44173  2                        IF    P,' SET CHFCQUIT'   IF ATTN , QUIT
 0095D6                            44195  1                      END
 0095D6 711E/47F0 713A_095D6 095A6 44199  1                      ELSEIF (R4,LT,CHCFENCE),BEGIN  PAD W/BLANKS
 0095E2 4130 6520            00520 44225  2                        LA    R3,CHNEWBUF
 0095E6 5A30 6010            00010 44226  2                        A     R3,CHCFENCE
 0095EA 5820 651C            0051C 44227  2                        L     R2,CHNEWNDX
 0095EE 1B32                       44228  2                        SR    R3,R2
 0095F0 5850 736C            09828 44229  2                        L     R5,=X'40000000'
 0095F4 0E24                       44230  2                        MVCL  R2,R4
 0095F6                            44231  1                      END
                                   44235  1
                                   44236  1                      COMMENT                   MOVE TEXT TRAILING FENCE
 0095F6 4120 624C            0024C 44237  1                      LA    R2,CHLINE
 0095FA 5A20 6248            00248 44238  1                      A     R2,CHLINELN
 0095FE 5020 6240            00240 44239  1                      ST    R2,CHMVNDX2         R2 - END OF LINE (W/FENCE)
1LINE     (LINE2193) (12:47) (15MAR04) CHANGE Command                                                                       Page  143
0Current Usings:  (CHWA,R6) (*,R7) (CP,R11) (CV,R12)
0Loc    Object Code    Addr1 Addr2  Stmt Lv Lineno    Source Statement           (Hibal 5, Asmedit 3.3)  HLASM R4.0  2004/03/15 12.47
+___    ______ ____    _____ _____  ____ __ ______    ______ _________
0009602 5020 6234            00234 44240  1                      ST    R2,CHNDX
 009606 4110 624C            0024C 44241  1                      LA    R1,CHLINE           R1 - SOURCE
 00960A 5A10 6010            00010 44242  1                      A     R1,CHCFENCE
 00960E 1B21                       44243  1                      SR    R2,R1               R2 - LENGTH
 009610 4130 6520            00520 44244  1                      LA    R3,CHNEWBUF         R3 - DESTINATION
 009614 5A30 6010            00010 44245  1                      A     R3,CHCFENCE         FORCE DESTINATION TO FENCE COL
 009618 5030 651C            0051C 44246  1                      ST    R3,CHNEWNDX
 00961C 1222/47D0 7174             44247  1                      IF    (R2,POS),BEGIN
 009622 0620/4420 73BA_            44261  2                        DEX   R2,' MVC @R3(0),@R1 '
 009628 4132 3001            00001 44280  2                        LA    R3,1(R2,R3)
 00962C 5030 651C            0051C 44281  2                        ST    R3,CHNEWNDX
 009630                            44282  1                      END
 009630                            44286                       END   , END OF LONG LINE
                                   44290
 009630 18D8/9808 D004_            44291                       PEND
 DROP   *,R7
1LINE     (LINE2193) (12:47) (15MAR04) CHANGE Command                                                                       Page  144
0Current Usings:  (CHWA,R6) (CP,R11) (CV,R12)
0Loc    Object Code    Addr1 Addr2  Stmt Lv Lineno    Source Statement           (Hibal 5, Asmedit 3.3)  HLASM R4.0  2004/03/15 12.47
+___    ______ ____    _____ _____  ____ __ ______    ______ _________
0                                  44312              *
                                   44313              *
                                   44314              *  DO FINAL PROCESSING OF CHANGED LINE,,,
                                   44315              *   AND WRITE CHANGED LINE.
                                   44316              *
                                   44317              *  THE MAIN JOB OF THIS ROUTINE IS TO WRITE OUT THE
                                   44318              *  CHANGED LINE TO THE ACTIVE FILE.
                                   44319              *
                                   44320              *  THIS CODE COPIED FROM OLD VERSION OF CHANGE COMMAND.
                                   44321              *  THERE ARE MANY ODDS AND ENDS ADDED TO MAKE THE USER
                                   44322              *  INTERFACE NICE. (AND THE CODE A BIT COMPLICATED.)
                                   44323              *  IN ADDITION TO WRITING THE LINE OUT, WE HANDLE LINE
                                   44324              *  LISTING, LINE LENGTH CHECKS, MODIFY AND EDIT OPTIONS,
                                   44325              *  PAGE MODE INTERFACE, VERIFY, ETC... SO THIS IS MORE OR
                                   44326              *  LESS THE WAY THE OLD CODE LOOKED !   (excuses,excuses)
                                   44327              *
                                   44328              *
 00963E 50E0 D000/9008_      00000 44329              ENDPROC  PROC
 USING  *,R7
                                   44368
 009658 4110 6520            00520 44369                       LA    R1,CHNEWBUF         R1,R0 - NEW LINE LOC, LEN
 00965C 5800 651C            0051C 44370                       L     R0,CHNEWNDX
 009660 1B01                       44371                       SR    R0,R1
 009662 1830                       44372                       LR    R3,R0
 009664 58F0 6244            00244 44373                       L     R15,CHLNO
 009668 50F0 B73C            0073C 44374                       ST    R15,CPLCNO          insurance, (using may change)
 00966C 58E0 71D4/0DEE       0982C 44375                       VCALL LENCHK              Check length (and update count)
                                   44379              *
                                   44380              *  COMMENT, PROCESS EDIT/MODIFY REQUESTS
                                   44381              *
 009672 9140 BC78/47E0_00C78       44382                       IF    CPFMODXP,BEGIN      Change.... modify/edit
 00967A 9001 D000/41D0_      00000 44397  1                      XPUSH R0,R1
 009682 58E0 71D8/0DEE       09830 44400  1                      VCALL LMSGCHK             Do any length warnings now
 009688 4BD0 71F8/9801_      09850 44404  1                      XPOP  R0,R1
 009690 947F 6002      00002       44407  1                      CLEAR CHFCQUIT
 009694 58E0 71DC/0DEE       09834 44414  1                      VCALL LINEMOD             Do modify/edit of this line
 00969A 4740 C7DE            007DE 44418  1                      BM    CVNEXT              Stop command
 00969E 4720 C7D6            007D6 44419  1                      BP    CVERROR             Abort command
 0096A2 41F0 0001/5EF0_      00001 44420  1                      INCR  R15,CPACHCT         Kick change count
 0096AE D203 BD8C B73C 00D8C 0073C 44426  1                      MVC   CPNWLN,CPLCNO
 0096B4 47F0 70E8            09740 44427  1                      B     SKIPPUT             edit/mod did write   (?)
 0096B8                            44428                       END
 0096B8 1830                       44432                       LR    R3,R0               Save count
                                   44433              *
                                   44434              *  COMMENT, FOLLOWING ODD LOGIC HANDLES LIST, AND VERIFY
                                   44435              *  OPTIONS, AND VARIOUS EXCEPTIONS TO THEM...
                                   44436              *
 0096BA 9120 BD58/4710_00D58       44437                       IF    CPFVER,LISTCHNG     Change verify, must do list
 0096C2 9120 BD54/4710_00D54       44455                       IF    CPLFLG5.CPFNLST,DONLIST  Don't list the line
 0096CA 9180 BAC8/4710_00AC8       44474                       IF    CPVFPAGE,DONLIST    Page mode, scram
 0096D2 58E0 71E0/0DEE       09838 44492              LISTCHNG VCALL LISTLINE            Make desired listing
                                   44496                       COMMENT                   IF VERIFY, DO VERIFY
 0096D8 9120 BD58/47E0_00D58       44497                       IF    CPFVER,BEGIN        IF verify, do verify
 0096E0 9001 BD7C            00D7C 44512  1                      STM   R0,R1,CPWK8         Save line ptrs
1LINE     (LINE2193) (12:47) (15MAR04) CHANGE Command                                                                       Page  145
0Current Usings:  (CHWA,R6) (*,R7) (CP,R11) (CV,R12)
0Loc    Object Code    Addr1 Addr2  Stmt Lv Lineno    Source Statement           (Hibal 5, Asmedit 3.3)  HLASM R4.0  2004/03/15 12.47
+___    ______ ____    _____ _____  ____ __ ______    ______ _________
00096E4 58E0 71D8/0DEE       09830 44513  1                      VCALL LMSGCHK             Do any line warnings now
 0096EA 4110 71FA/4100_      09852 44517  1                      SETMSG 'Change'
 0096F2 58E0 71E4/0DEE       0983C 44521  1                      ACALL YESMOD              Allow ok or mod
 0096F8 4740 715E            097B6 44525  1                      BM    ENDPDONE            don't change
 0096FC 4720 70E8            09740 44526  1                      BP    SKIPPUT             Already changed (mod/edit)
 009700 41F0 0001/5EF0_      00001 44527  1                      INCR  R15,CPACHCT         Kick change count
 00970C 47F0 70CC            09724 44533  1                      B     DONLIST             Do change
 009710                            44534                       END   ,                   END VERIFY
 009710 1B00/41F0 B050_            44538                       TWRITE ,                  Put it out
 00971C 47D0 70CC            09724 44563                       BNP   DONLIST             Continue (no attn)
 009720 9680 6002      00002       44564                       SET   CHFCQUIT            Set to terminate change
 009724 58F0 6244            00244 44570              DONLIST  L     R15,CHLNO           Line no. to R15
 009728 50F0 B5A8            005A8 44571                       ST    R15,CPACLNO         Save current line pointer
                                   44572              *
                                   44573              *  COMMENT WRITE LINE
                                   44574              *
                                   44575                       COMMENT                   WRITE CHANGED LINE TO ACTIVE
 00972C 4110 6520            00520 44576                       LA    R1,CHNEWBUF         R1,R0 - NEW LINE LOC, LEN
 009730 5800 651C            0051C 44577                       L     R0,CHNEWNDX
 009734 1B01                       44578                       SR    R0,R1
 009736 58F0 6244            00244 44579                       L     R15,CHLNO           Line no. to R15
 00973A 58E0 71E8/0DEE       09840 44580                       VCALL PUTLINE
                                   44584              *
                                   44585              *
                                   44586                       COMMENT                   CHANGE COUNT STUFF
 009740 9120 6003/4710_00003       44587              SKIPPUT  IF    ~CHFCHCT,BEGIN      have we bumped change count
 009748 9620 6003      00003       44603  1                      SET   CHFCHCT             now we have (see below)
 00974C 9120 BD58/4710_00D58       44609  1                      IF    (CPFVER,OR,CPFMODXP),EXIT
 00975C 9110 B477/47E0_00477       44641  1                      IF    CPFTYPED,'INCR R0,CPACHCT'  Kick change count
 009770                            44667                       END
 009770 9180 6002/4710_00002       44671                       IF    CHFCQUIT,CVABORT    stop
                                   44689              *
                                   44690              *
                                   44691                       COMMENT                   DO PAGE MODE STUFF
 009778 9180 BAC8/47E0_00AC8       44692                       IF    CPVFPAGE,BEGIN      Page mode...
 009780 9120 BD54/4710_00D54       44707  1                      IF    CPLFLG5.CPFNLST,EXIT  Nolist, scram
 009788 5820 B5A8            005A8 44726  1                      L     R2,CPACLNO
 00978C 18F2                       44727  1           CHNXP      LR    R15,R2              Line-number just changed
 00978E 58E0 71EC/0DEE       09844 44728  1                      VCALL PAGELINE            Add line to current page
 009794 4780 715E            097B6 44732  1                      IF    NZ,BEGIN
 009798 D22E BAFC 716C 00AFC 097C4 44743  2                        MVC   CPVMSG(L'CHMSG),CHMSG  Press CONTINUE
 00979E 58E0 71F0/0DEE       09848 44744  2                        VCALL PAGEMOD             Display the current page
 0097A4 4780 715A/58E0_      097B2 44748  2                        IF    NZ,'VCALL RNGABORT; B CVABORT'
 0097B2 47F0 7134            0978C 44769  2                        B     CHNXP
 0097B6                            44770  1                      END
 0097B6                            44774                       END
                                   44778
 0097B6                            44779              ENDPDONE LABEL ,
 0097B6 18D8/9808 D004_            44781                       PEND
 DROP   *,R7
                                   44801
 0097C4 D79985A2A240C3D6           44802              CHMSG    DC    C'Press CONTINUE [ESC RETURN] to continue CHANGE.'
                                   44803                       QLTORG
1LINE     (LINE2193) (12:47) (15MAR04) DELETE Command                                                                       Page  146
0Current Usings:  (CHWA,R6) (CP,R11) (CV,R12)
0Loc    Object Code    Addr1 Addr2  Stmt Lv Lineno    Source Statement           (Hibal 5, Asmedit 3.3)  HLASM R4.0  2004/03/15 12.47
+___    ______ ____    _____ _____  ____ __ ______    ______ _________
0                                  44836              ¿þþþþþþþþþþþþþþþþþþþþþþþþþþþþþþþþþþþþþþþþþþþþþþþþþþþþþþþþþþþþþþþþþþþþþÜ
                                   44837              Ÿ                                                                     Ÿ
                                   44838              Ÿ                                                                     Ÿ
                                   44839              Ÿ  DELETE  -- DELETE command.                                         Ÿ
                                   44840              Ÿ                                                                     Ÿ
                                   44841              Ÿ                                                                     Ÿ
                                   44842              Ÿ                                                                     Ÿ
                                                      ¾þþþþþþþþþþþþþþþþþþþþþþþþþþþþþþþþþþþþþþþþþþþþþþþþþþþþþþþþþþþþþþþþþþþþþ»
000987C 50E0 D000/9008_      00000 44843              DELETE   XPROC ,
 USING  *,R7
 009896 9110 B477/4710_00477       44883                       IF    ~CPFTYPED,'SET CPLFLG5.CPFNLST'
 0098A2 9101 B477/47E0_00477       44910                       IF    CPGFNLST,BEGIN      Nolist is the default...
 0098AA 9110 B477/47E0_00477       44925  1                      IF    (CPFTYPED,AND,CPVFPAGE),EXIT
 0098BA 9620 BD54      00D54       44957  1                      SET   CPLFLG5.CPFNLST     Nolist
 0098BE                            44964                       END
 0098BE 58E0 72B2/0DEE       09B48 44968                       VCALL NDETRNG             Define range
 0098C4 5810 B08C/1B00_      0008C 44972                       SCAN  DELPRT              Delete options
 009916 58E0 72BE/0DEE       09B54 45004                       SCANCHK
 00991C 9110 BD54/4710_00D54       45009                       IF    (CPLFLG5.CPFFOPT,OR,CPFVER),'CLEAR CPLFLG5.CPFNLST'
 009930 58E0 72C2/0DEE       09B58 45052                       ACALL DELSUB              Delete the range
 009936 47F0 C7DE            007DE 45056                       B     CVNEXT
 00993A 18D8/9808 D004_            45057                       PEND
 DROP   *,R7
                                   45077              *
                                   45078              *
                                   45079              *
 009948 4040404040404040_          45080              DELPRT   SCKW  ,V(LTNPSH),PUSH
 009970 4040404040404040_          45095                       SCKW  ,V(VERPSH),PUSH
 009998 4040404040404040_          45110                       SCKW  ,V(NOTVALID)
1LINE     (LINE2193) (12:47) (15MAR04) DELETE Command                                                                       Page  147
0Current Usings:  (CHWA,R6) (CP,R11) (CV,R12)
0Loc    Object Code    Addr1 Addr2  Stmt Lv Lineno    Source Statement           (Hibal 5, Asmedit 3.3)  HLASM R4.0  2004/03/15 12.47
+___    ______ ____    _____ _____  ____ __ ______    ______ _________
0                                  45126              ¿þþþþþþþþþþþþþþþþþþþþþþþþþþþþþþþþþþþþþþþþþþþþþþþþþþþþþþþþþþþþþþþþþþþþþÜ
                                   45127              Ÿ                                                                     Ÿ
                                   45128              Ÿ  DELSUB -- Routine to delete lines from the ACTIVE file.            Ÿ
                                   45129              Ÿ                                                                     Ÿ
                                   45130              Ÿ    On entry:                                                        Ÿ
                                   45131              Ÿ      range for delete set up                                        Ÿ
                                   45132              Ÿ                                                                     Ÿ
                                                      ¾þþþþþþþþþþþþþþþþþþþþþþþþþþþþþþþþþþþþþþþþþþþþþþþþþþþþþþþþþþþþþþþþþþþþþ»
00099C0 50E0 D000/9008_      00000 45133              DELSUB   XPROC
 USING  *,R7
                                   45173                       ¿þþþþþþþþþþþþþþþþþþþþþþþþþþÜ
                                   45174                       Ÿ  Delete lines in range.  Ÿ
                                   45175                       ¾þþþþþþþþþþþþþþþþþþþþþþþþþþ»
 0099DA D203 BD60 7182 00D60 09B5C 45176                       MVC   CPWK1,=F'-1'        First line in range to delete
 0099E0 D203 BD64 7182 00D64 09B5C 45177                       MVC   CPWK2,=F'-1'        Last line in range
 0099E6 D203 BD68 7182 00D68 09B5C 45178                       MVC   CPWK3,=F'-1'        Working next line to delete
                                   45179
                                   45180                       COMMENT                   CALL CO-ROUTINE TO DO DELETE
 0099EC 5800 7186/5810_      09B60 45181                       RDRNG DELRTN,(DESRTRN+LOCATRTN+UNPRST+DESABORT)
 0099FA 182F                       45188                       LR    R2,R15              Save return code
                                   45189
 0099FC D503 7192 BD60_09B6C 00D60 45190                       IF    (CPWK1,NE,-1),BEGIN  Finish up last delete...
 009A06 5800 BD60            00D60 45208  1                      L     R0,CPWK1            First lineno
 009A0A 5810 BD64            00D64 45209  1                      L     R1,CPWK2            Last lineno
 009A0E 58E0 7196/0DEE       09B70 45210  1                      VCALL DELRANGE            Delete lines
 009A14                            45214                       END
                                   45218
 009A14 1222/4770 C7DA             45219                       IF    (R2,NZ),CVABORT     Aborted by attn
 009A1A 18D8/9808 D004_            45236                       PEND
 DROP   *,R7
1LINE     (LINE2193) (12:47) (15MAR04) DELETE Command                                                                       Page  148
0Current Usings:  (CHWA,R6) (CP,R11) (CV,R12)
0Loc    Object Code    Addr1 Addr2  Stmt Lv Lineno    Source Statement           (Hibal 5, Asmedit 3.3)  HLASM R4.0  2004/03/15 12.47
+___    ______ ____    _____ _____  ____ __ ______    ______ _________
0                                  45257              ¿þþþþþþþþþþþþþþþþþþþþþþþþþþþþþþþþþþþþþþþþþþþþþþþþþþþþþþþþþþþþþþþþþþþþþÜ
                                   45258              Ÿ                                                                     Ÿ
                                   45259              Ÿ  DELRTN -- Entered from the range processor to delete a line.       Ÿ
                                   45260              Ÿ                                                                     Ÿ
                                   45261              Ÿ    On entry:                                                        Ÿ
                                   45262              Ÿ      R1,R0 - line text loc, len                                     Ÿ
                                   45263              Ÿ                                                                     Ÿ
                                                      ¾þþþþþþþþþþþþþþþþþþþþþþþþþþþþþþþþþþþþþþþþþþþþþþþþþþþþþþþþþþþþþþþþþþþþþ»
0009A28 50E0 D000/9008_      00000 45264              DELRTN   PROC
 USING  *,R7
 009A42 5840 B73C            0073C 45303                       L     R4,CPLCNO           Get line-number
                                   45304
 009A46 9120 BD54/4710_00D54       45305                       IF    ~CPLFLG5.CPFNLST,BEGIN  List line...
 009A4E 9180 BAC8/4710_00AC8       45321  1                      IF    CPVFPAGE,EXIT       Page mode, scram
 009A56 58E0 7132/0DEE       09B74 45339  1                      VCALL LISTLINE            Display the line
                                   45343  1
 009A5C 9120 BD58/47E0_00D58       45344  1                      IF    CPFVER,BEGIN        Verify...
 009A64 4110 7140/4100_      09B82 45359  2                        SETMSG 'Delete'
 009A6C 58E0 7136/0DEE       09B78 45363  2                        VCALL YESRTN              Allow OK
 009A72 4770 70F2            09B34 45367  2                        IF    NZ,EXIT,DELRTN      Don't delete, scram
                                   45381  2
 009A76 58F0 C1C8            001C8 45382  2                        L     R15,CVCURJCB
 009A7A 94FD F062      00062       45383  2                        WITH  (JCB,R15),'CLEAR JCBFATTN'  Reset any ATTN
 USING  JCB,R15
 DROP   JCB,R15
                                   45413  2
 009A7E 41F0 0001/5EF0_      00001 45414  2                        INCR  R15,CPACHCT         Kick ACTIVE file change count
 009A8A                            45420  1                      END
 009A8A                            45424                       END
                                   45428                      ¿þþþþþþþþþþþþþþþþþþþþþþþþþþþþþþþþþþþþþþþþþþþþþþþþþþþþþþþþþþþþþþþþÜ
                                   45429                      Ÿ  Collect line-numbers for delete so that we can delete ranges  Ÿ
                                   45430                      Ÿ   of contiguous lines whereever possible (instead of deleting  Ÿ
                                   45431                      Ÿ     one line at a time).                                       Ÿ
                                   45432                      ¾þþþþþþþþþþþþþþþþþþþþþþþþþþþþþþþþþþþþþþþþþþþþþþþþþþþþþþþþþþþþþþþþ»
 009A8A D503 712A BD60_09B6C 00D60 45433                       IF    (CPWK1,EQ,-1),BEGIN  First line to delete...
 009A94 5040 BD60            00D60 45451  1                      ST    R4,CPWK1            Save first lineno...
 009A98 5040 BD64            00D64 45452  1                      ST    R4,CPWK2            ...and last lineno
 009A9C D203 BD68 711A 00D68 09B5C 45453  1                      MVC   CPWK3,=F'-1'        (Neatness)
 009AA2                            45454                       END
                                   45458
 009AA2 7064/47F0 7090 09AA2 09A92 45459                       ELSE  BEGIN               More lines to delete...
 009AA6 5940 BD68/4770_      00D68 45470  1                      IF    (R4,EQ,CPWK3),'ST R4,CPWK2'  Extend explicit range
                                   45493  1
 009AB2 7074/47F0 7090 09AB2 09AAC 45494  1                      ELSE  BEGIN               Start new explicit range...
 009AB6 5800 BD60            00D60 45505  2                        L     R0,CPWK1            First lineno
 009ABA 5810 BD64            00D64 45506  2                        L     R1,CPWK2            Last lineno
 009ABE 58E0 712E/0DEE       09B70 45507  2                        VCALL DELRANGE            Delete line range
                                   45511  2
 009AC4 5040 BD60            00D60 45512  2                        ST    R4,CPWK1            Start new range
 009AC8 5040 BD64            00D64 45513  2                        ST    R4,CPWK2            Ditto
 009ACC D203 BD68 711A 00D68 09B5C 45514  2                        MVC   CPWK3,=F'-1'        (Neatness)
 009AD2                            45515  1                      END
 009AD2                            45519                       END
1LINE     (LINE2193) (12:47) (15MAR04) DELETE Command                                                                       Page  149
0Current Usings:  (CHWA,R6) (*,R7) (CP,R11) (CV,R12)
0Loc    Object Code    Addr1 Addr2  Stmt Lv Lineno    Source Statement           (Hibal 5, Asmedit 3.3)  HLASM R4.0  2004/03/15 12.47
+___    ______ ____    _____ _____  ____ __ ______    ______ _________
0                                  45523
 009AD2 9140 BD58/4710_00D58       45524                       IF    (~CPFFIRST,AND,~CPFVER),BEGIN
 009AE2 9640 BD58      00D58       45553  1                      SET   CPFFIRST            Set first line processed
 009AE6 9110 B477/47E0_00477       45559  1                      IF    CPFTYPED,'INCR R15,CPACHCT'
 009AFA                            45585                       END
                                   45589                       ¿þþþþþþþþþþþþþþþþþþþþþþþþþþþþþþþþþþþþþþþþþþþþþþþþþþþþþþþþþþþþÜ
                                   45590                       Ÿ  Get next existing line-number for the next time we enter  Ÿ
                                   45591                       Ÿ    this routine so that we can determine if a contiguous   Ÿ
                                   45592                       Ÿ    range of lines is being deleted.                        Ÿ
                                   45593                       ¾þþþþþþþþþþþþþþþþþþþþþþþþþþþþþþþþþþþþþþþþþþþþþþþþþþþþþþþþþþþþ»
 009AFA 58F0 BD64            00D64 45594                       L     R15,CPWK2           Last line in range
 009AFE 5AF0 C4D0            004D0 45595                       A     R15,CVONE           Next line-number
 009B02 58E0 713A/0DEE       09B7C 45596                       VCALL GETLNO
 009B08 47B0 70CE/58F0_      09B10 45600                       IF    NEG,'L R15,=F"-1"'  No next lineno
                                   45617
 009B10 70D2/47F0 70DE 09B10 09B0A 45618                       ELSE  BEGIN               We have a next lineno...
 009B14 58F0 B73C            0073C 45629  1                      L     R15,CPLCNO
 009B18 50F0 BD8C            00D8C 45630  1                      ST    R15,CPNWLN          Save it for range processor
 009B1C 9620 BD53      00D53       45631  1                      SET   CPLFLG4.CPFDESET    Flag that lineno is set
 009B20                            45638                       END
                                   45642
 009B20 50F0 BD68            00D68 45643                       ST    R15,CPWK3           Save next existing lineno
                                   45644                       ¿þþþþþþþþþþþþþþþþþþþþþþþþþþþþþþþþþþþþþþþþþþþþþþþþþþþþþþþþþþþþÜ
                                   45645                       Ÿ  This little gimmick forces the "Range aborted before..."  Ÿ
                                   45646                       Ÿ    message to occur if the user presses BREAK on a write.  Ÿ
                                   45647                       ¾þþþþþþþþþþþþþþþþþþþþþþþþþþþþþþþþþþþþþþþþþþþþþþþþþþþþþþþþþþþþ»
 009B24 9120 BC7A/47E0_00C7A       45648                       IF    CPFIATTN,BEGIN      Write attn...
 009B2C 58F0 C1C8            001C8 45663  1                      L     R15,CVCURJCB
 009B30 9602 F062      00062       45664  1                      WITH  (JCB,R15),'SET JCBFATTN'  Attn!
 USING  JCB,R15
 DROP   JCB,R15
 009B34                            45693                       END
                                   45697
 009B34 18D8/9808 D004_            45698                       PEND
 DROP   *,R7
                                   45718
                                   45719                       QLTORG
1LINE     (LINE2193) (12:47) (15MAR04) SPLIT Command                                                                        Page  150
0Current Usings:  (CHWA,R6) (CP,R11) (CV,R12)
0Loc    Object Code    Addr1 Addr2  Stmt Lv Lineno    Source Statement           (Hibal 5, Asmedit 3.3)  HLASM R4.0  2004/03/15 12.47
+___    ______ ____    _____ _____  ____ __ ______    ______ _________
0000000                00000 00314 45748              SPLITWA  RECORD BEGIN
 000000 00                         45756  1           SPLFLAG    FLAG
 SPLFLAG.SPLFJOIN  80 ONES         45760  1                      FLAG  SPLFJOIN            - JOIN to the next line
 SPLFLAG.SPLFWORD  40 ONES         45765  1                      FLAG  SPLFWORD            - Split at a word
                                   45770  1
                                   45771  1                      FLAG
                                   45774  1
 000002                            45775  1           SPLCOL     DS    H                   Split line(s) at this column
 000004                            45776  1           SPLWCOL    DS    H                   Working split column
 000006                            45777  1           SPLBLCNT   DS    H                   Working trimmed blank count
 000008                            45778  1           SPLLEN2    DS    H                   Length of second line
                                   45779  1
 00000C                            45780  1           SPLLNO1    DS    F                   First lineno
 000010                            45781  1           SPLLNO2    DS    F                   Second lineno
                                   45782  1
                                   45783  1           SPLLINE1   DS    CL(&LINESZ)         First line
 000014                                   1          +SPLLINE1   DS    CL(235)             First line
                                   45784  1                      DS    CL(&PRESSZ-&LINESZ)
 0000FF                                   1          +           DS    CL(256-235)
                                   45785  1
                                   45786  1           SPLLINE2   DS    CL(&LINESZ)         Second line
 000114                                   1          +SPLLINE2   DS    CL(235)             Second line
                                   45787  1                      DS    CL(&PRESSZ-&LINESZ)
 0001FF                                   1          +           DS    CL(256-235)
                                   45788  1
                                   45789  1           SPLLINE3   DS    CL(&LINESZ)         Third line
 000214                                   1          +SPLLINE3   DS    CL(235)             Third line
                                   45790  1                      DS    CL(&PRESSZ-&LINESZ)
 0002FF                                   1          +           DS    CL(256-235)
 000314                00314 00314 45791                       END
-                                  45801              ¿þþþþþþþþþþþþþþþþþþþþþþþþþþþþþþþþþþþþþþþþþþþþþþþþþþþþþþþþþþþþþþþþþþþþþÜ
                                   45802              Ÿ                                                                     Ÿ
                                   45803              Ÿ                                                                     Ÿ
                                   45804              Ÿ  SPLIT -- SPLIT Command.                                            Ÿ
                                   45805              Ÿ                                                                     Ÿ
                                   45806              Ÿ                                                                     Ÿ
                                   45807              Ÿ                                                                     Ÿ
                                                      ¾þþþþþþþþþþþþþþþþþþþþþþþþþþþþþþþþþþþþþþþþþþþþþþþþþþþþþþþþþþþþþþþþþþþþþ»
0009B88 50E0 D000/9008_      00000 45808              SPLIT    XPROC SPLITWA
 USING  *,R7
 USING  SPLITWA-(4+36),R8
 009BA2 4160 8028            00000 45859                       LA    R6,SPLITWA
 DROP   CHWA,R6                    45860                       USING SPLITWA,R6
 USING  SPLITWA,R6
 009BA6 D7FF 6000 6000_00000 00000 45872                       CLEAR SPLITWA
 009BBE 5060 BCA4            00CA4 45882                       ST    R6,CPCWA
                                   45883
 009BC2 9180 BAC8/47E0_00AC8       45884                       IF    CPVFPAGE,BEGIN      Page mode...
 009BCA 58E0 B08C/D2AF_      0008C 45899  1                      SCPUSH ,
 009BD8 5810 B08C/1B00_      0008C 45905  1                      SCAN
 009C26 58E0 7B9A/0DEE       0A73C 45936  1                      SCANCHK
1LINE     (LINE2193) (12:47) (15MAR04) SPLIT Command                                                                        Page  151
0Current Usings:  (SPLITWA,R6) (*,R7) (SPLITWA-(4+36),R8) (CP,R11) (CV,R12)
0Loc    Object Code    Addr1 Addr2  Stmt Lv Lineno    Source Statement           (Hibal 5, Asmedit 3.3)  HLASM R4.0  2004/03/15 12.47
+___    ______ ____    _____ _____  ____ __ ______    ______ _________
0009C2C 58E0 B08C/4BD0_      0008C 45941  1                      SCPOP  ,
 009C3A 1200/4770 70B4             45947  1                      IF    (R0,Z),BEGIN        If nothing ,,
 009C40 4110 7C36/4100_      0A7D8 45961  2                        SCINIT '* COLUMN 0'
 009C56                            45975  1                      END
 009C56                            45979                       END
                                   45983
 009C56 58E0 7B9E/0DEE       0A740 45984                       VCALL NDETRNG
 009C5C 9101 B477/4710_00477       45988                       IF    (CPGFNLST,OR,~CPFTYPED),'SET CPLFLG5.CPFNLST'
                                   46029
 009C70 5810 B08C/1B00_      0008C 46030                       SCAN  SPLITPRT
 009CC2 58E0 7B9A/0DEE       0A73C 46062                       SCANCHK
 009CC8 9110 BD54/4710_00D54       46067                       IF    (CPLFLG5.CPFFOPT,OR,CPFVER),'CLEAR CPLFLG5.CPFNLST'
                                   46110
 009CDC 5800 7BA6/5810_      0A748 46111                       RDRNG SPLITRTN,(DESNRTN+LOCATRTN+UNPRST+DESABORT)
 009CEA 0000                       46118                       BOMB  ,                   (no return)
                                   46120
 009CEC 18D8/9808 D004_            46121                       PEND
 DROP   SPLITWA-(4+36),R8
 DROP   *,R7
1LINE     (LINE2193) (12:47) (15MAR04) SPLIT Command                                                                        Page  152
0Current Usings:  (SPLITWA,R6) (CP,R11) (CV,R12)
0Loc    Object Code    Addr1 Addr2  Stmt Lv Lineno    Source Statement           (Hibal 5, Asmedit 3.3)  HLASM R4.0  2004/03/15 12.47
+___    ______ ____    _____ _____  ____ __ ______    ______ _________
0009CFC C3D6D3E4D4D54040_          46147              SPLITPRT SCKW  COLUMN,SCOL,(A,P,I),&LINESZ
 009D24 D1D6C9D540404040_          46162                       SCKW  JOIN,SJOIN,A
 009D4C E6D6D9C440404040_          46177                       SCKW  WORD,SWORD,A
 009D74 4040404040404040_          46192                       SCKW  ,V(LTNPSH),PUSH
 009D9C 4040404040404040_          46207                       SCKW  ,V(LENPSH),PUSH
 009DC4 4040404040404040_          46222                       SCKW  ,V(VERPSH),PUSH
 009DEC 4040404040404040_          46237                       SCKW  ,V(NOTVALID)
                                   46252
 009E14 50E0 D000/9008_      00000 46253              SCOL     PROC
 USING  *,R7
 009E2E 1200/4770 7012             46292                       IF    (R0,Z),BEGIN
 009E34 9180 BAC8/47E0_00AC8       46306  1                      IF    CPVFPAGE,'LH R0,CPVCOL'
 009E40                            46327                       END
 009E40 1200/4770 701C_            46331                       IF    (R0,Z),'LA R0,1'
 009E4A 4000 6002            00002 46351                       STH   R0,SPLCOL
 009E4E 18D8/9808 D004_            46352                       PEND
 DROP   *,R7
                                   46372
 009E5C 50E0 D000/9008_      00000 46373              SJOIN    PROC
 USING  *,R7
 009E76 9680 6000      00000       46412                       SET   SPLFJOIN
 009E7A 18D8/9808 D004_            46418                       PEND
 DROP   *,R7
                                   46438
 009E88 50E0 D000/9008_      00000 46439              SWORD    PROC
 USING  *,R7
 009EA2 9640 6000      00000       46478                       SET   SPLFWORD
 009EA6 18D8/9808 D004_            46484                       PEND
 DROP   *,R7
                                   46504
 DROP   SPLITWA,R6                 46505                       DROP  R6
1LINE     (LINE2193) (12:47) (15MAR04) SPLIT Command                                                                        Page  153
0Current Usings:  (CP,R11) (CV,R12)
0Loc    Object Code    Addr1 Addr2  Stmt Lv Lineno    Source Statement           (Hibal 5, Asmedit 3.3)  HLASM R4.0  2004/03/15 12.47
+___    ______ ____    _____ _____  ____ __ ______    ______ _________
0                                  46513              ¿þþþþþþþþþþþþþþþþþþþþþþþþþþþþþþþþþþþþþþþþþþþþþþþþþþþþþþþþþþþþþþþþþþþþþÜ
                                   46514              Ÿ                                                                     Ÿ
                                   46515              Ÿ  SPLITRTN -- Entered from the range processor with line loc in      Ÿ
                                   46516              Ÿ    R1 and line len in R0.                                           Ÿ
                                   46517              Ÿ                                                                     Ÿ
                                                      ¾þþþþþþþþþþþþþþþþþþþþþþþþþþþþþþþþþþþþþþþþþþþþþþþþþþþþþþþþþþþþþþþþþþþþþ»
0009EB4 50E0 D000/9008_      00000 46518              SPLITRTN PROC
 USING  *,R7
 009ECE 5860 BCA4            00CA4 46557                       L     R6,CPCWA
 USING  SPLITWA,R6                 46558                       USING SPLITWA,R6
                                   46567
 009ED2 4840 6002            00002 46568                       LH    R4,SPLCOL           Split column
                                   46569                       ¿þþþþþþþþþþþþþþþþþþþþþþþþþþþþþþþþþþþþþþþþþþþÜ
                                   46570                       Ÿ  Split at a blank if WORD was specified.  Ÿ
                                   46571                       ¾þþþþþþþþþþþþþþþþþþþþþþþþþþþþþþþþþþþþþþþþþþþ»
 009ED6 9140 6000/47E0_00000       46572                       IF    SPLFWORD,BEGIN      Split at a word...
 009EDE 4154 1000            00000 46587  1                      LA    R5,@R1(R4)
 009EE2 0650                       46588  1                      DECR  R5                  Current text ptr
                                   46590  1                      ¿þþþþþþþþþþþþþþþþþþþþþþþþþþþþþþþþþþþþþþþÜ
                                   46591  1                      Ÿ  Search past the column for a blank.  Ÿ
                                   46592  1                      ¾þþþþþþþþþþþþþþþþþþþþþþþþþþþþþþþþþþþþþþþ»
 009EE4 1940/4730 7030             46593  1                      WHILE (R4,LE,R0),BEGIN
 009EEA 9540 5000/4780_00000       46610  2                        IF    (@R5,EQ,' '),SPLCOM  Found a blank, scram
 009EF2 4150 5001            00001 46629  2                        LA    R5,@R5+1
 009EF6 4140 4001            00001 46630  2                        LA    R4,@R4+1
 009EFA 47F0 7016            09EE4 46631  1                      END
                                   46636  1                      ¿þþþþþþþþþþþþþþþþþþþþþþþþþþþþþþþþþþþþþþþþþÜ
                                   46637  1                      Ÿ  Search before the column for a blank.  Ÿ
                                   46638  1                      ¾þþþþþþþþþþþþþþþþþþþþþþþþþþþþþþþþþþþþþþþþþ»
 009EFE 4840 6002            00002 46639  1                      LH    R4,SPLCOL
 009F02 4154 1000            00000 46640  1                      LA    R5,@R1(R4)
 009F06 0650                       46641  1                      DECR  R5
                                   46643  1
 009F08 1244/47D0 7050             46644  1                      WHILE (R4,POS),BEGIN
 009F0E 9540 5000/4780_00000       46660  2                        IF    (@R5,EQ,' '),SPLCOM  Found a blank, scram
 009F16 0650                       46679  2                        DECR  R5
 009F18 0640                       46681  2                        DECR  R4
 009F1A 47F0 703A            09F08 46683  1                      END
 009F1E 4140 03E7            003E7 46688  1                      LA    R4,999              No blanks, just add a new line
 009F22                            46689                       END
                                   46693              *
                                   46694              *
 009F22 1940/47D0 7060_            46695              SPLCOM   IF    (R4,GT,R0),'LA R4,1; AR R4,R0'  Keep entire line
                                   46718
 009F2E 4040 6004            00004 46719                       STH   R4,SPLWCOL          Save working split column
 009F32 D203 600C B73C 0000C 0073C 46720                       MVC   SPLLNO1,CPLCNO
 009F38 D2EA 6014 C4D8 00014 004D8 46721                       MVC   SPLLINE1,CVBLANKS
 009F3E 0640                       46722                       DECR  R4                  Rel to zero, not one
 009F40 18F4                       46724                       LR    R15,R4
 009F42 06F0/12FF/4740_            46725                       MOVE  R15,SPLLINE1,@R1    Save first line
                                   46763
 009F4E D2EA 6114 C4D8 00114 004D8 46764                       MVC   SPLLINE2,CVBLANKS
 009F54 1830                       46765                       LR    R3,R0
1LINE     (LINE2193) (12:47) (15MAR04) SPLIT Command                                                                        Page  154
0Current Usings:  (SPLITWA,R6) (*,R7) (CP,R11) (CV,R12)
0Loc    Object Code    Addr1 Addr2  Stmt Lv Lineno    Source Statement           (Hibal 5, Asmedit 3.3)  HLASM R4.0  2004/03/15 12.47
+___    ______ ____    _____ _____  ____ __ ______    ______ _________
0009F56 1B34                       46766                       SR    R3,R4
 009F58 4114 1000            00000 46767                       LA    R1,@R1(R4)
 009F5C 18F3                       46768                       LR    R15,R3
 009F5E 06F0/12FF/4740_            46769                       MOVE  R15,SPLLINE2,@R1    Save second line
                                   46807
 009F6A 1B22                       46808                       CLEAR R2
 009F6C 1233/47D0 70BE             46812                       WHILE (R3,POS),BEGIN      Trim leading blanks...
 009F72 9540 6114/4770_00114       46828  1                      IF    (SPLLINE2,NE,' '),EXIT
 009F7A 4120 2001            00001 46848  1                      LA    R2,@R2+1
 009F7E 18F3                       46849  1                      LR    R15,R3
 009F80 06F0/44F0 796C_            46850  1                      DEX   R15,'MVC SPLLINE2(0),SPLLINE2+1'  Move over
 009F86 0630                       46869  1                      DECR  R3
 009F88 47F0 709E            09F6C 46871                       END
 009F8C 4020 6006            00006 46876                       STH   R2,SPLBLCNT         Save trimmed blank count
                                   46877
 009F90 4030 6008            00008 46878                       STH   R3,SPLLEN2          Save second line length
                                   46879                       ¿þþþþþþþþþþþþþþþþþþþþþþþþþþþþþþþþþþþþþþþþþþþþþþþþþÜ
                                   46880                       Ÿ  Join the text onto the next line if possible.  Ÿ
                                   46881                       ¾þþþþþþþþþþþþþþþþþþþþþþþþþþþþþþþþþþþþþþþþþþþþþþþþþ»
 009F94 9180 6000/47E0_00000       46882                       IF    SPLFJOIN,BEGIN      Join...
 009F9C 41F0 0001            00001 46897  1                      LA    R15,1
 009FA0 5AF0 600C            0000C 46898  1                      A     R15,SPLLNO1         First line-number
 009FA4 4110 6214            00214 46899  1                      LA    R1,SPLLINE3
 009FA8 58E0 7886/0DEE       0A754 46900  1                      VCALL GETLINE             Get next line
 009FAE 4740 712A            09FF8 46904  1                      IF    NEG,EXIT
                                   46918  1
 009FB2 1200/4780 712A_            46919  1                      IF    ((R0,Z),OR,(@R1,EQ,' ')),EXIT  Can't join
                                   46951  1
 009FC0 4830 BC52/1233       00C52 46952  1                      LTH   R3,CPLLEN           Line length
 009FC6 4770 7100/4830_      09FCE 46956  1                      IF    Z,'LH R3,CPLENGTH'
                                   46973  1
 009FCE 4820 6008            00008 46974  1                      LH    R2,SPLLEN2          Our second line's length
 009FD2 18F0                       46975  1                      LR    R15,R0
 009FD4 41F2 F001            00001 46976  1                      LA    R15,@R15+1(R2)
 009FD8 19F3/4720 712A             46977  1                      IF    (R15,GT,R3),EXIT    Too long, can't join
                                   46995  1
 009FDE D203 6010 B73C 00010 0073C 46996  1                      MVC   SPLLNO2,CPLCNO      Set second line-number
 009FE4 4122 6115            00115 46997  1                      LA    R2,SPLLINE2+1(R2)
 009FE8 06F0/12FF/4740_            46998  1                      MOVE  R15,@R2,@R1         Append original second line
 009FF4 47F0 7196            0A064 47036  1                      B     SPLLIST
 009FF8                            47037                       END
                                   47041                       ¿þþþþþþþþþþþþþþþþþþþþþþþþþþþþþþþþþþþþþþþþþþþþþÜ
                                   47042                       Ÿ  Calculate a line-number for the new line.  Ÿ
                                   47043                       ¾þþþþþþþþþþþþþþþþþþþþþþþþþþþþþþþþþþþþþþþþþþþþþ»
 009FF8 58F0 600C            0000C 47044                       L     R15,SPLLNO1         First lineno
 009FFC 5EF0 788A            0A758 47045                       INCR  R15
 00A000 58E0 788E/0DEE       0A75C 47048                       VCALL GETLNO              Find next existing lineno
 00A006 58F0 B73C            0073C 47052                       L     R15,CPLCNO
 00A00A 06F0                       47053                       DECR  R15
 00A00C 5BF0 600C            0000C 47055                       S     R15,SPLLNO1         Amount of space between lines
 00A010 4720 7182            0A050 47056                       IF    ~POS,BEGIN
 00A014 4110 7916/4100_      0A7E4 47067  1                      TSEG  'Can''t split line '
 00A026 5800 600C            0000C 47085  1                      L     R0,SPLLNO1
 00A02A 58E0 7896/0DEE       0A764 47086  1                      VCALL CVEXNO
1LINE     (LINE2193) (12:47) (15MAR04) SPLIT Command                                                                        Page  155
0Current Usings:  (SPLITWA,R6) (*,R7) (CP,R11) (CV,R12)
0Loc    Object Code    Addr1 Addr2  Stmt Lv Lineno    Source Statement           (Hibal 5, Asmedit 3.3)  HLASM R4.0  2004/03/15 12.47
+___    ______ ____    _____ _____  ____ __ ______    ______ _________
000A030 41F0 B050/58E0_      00050 47090  1                      TSEG  (R1),(R0)
 00A03A 4110 789A/4100_      0A768 47114  1                      TSEG  ', no line-numbers available.',,CR
 00A04C 47F0 727E            0A14C 47132  1                      B     SPLEXIT
 00A050                            47133                       END
                                   47137
 00A050 88F0 0001            00001 47138                       SRL   R15,1
 00A054 181F                       47139                       LR    R1,R15
 00A056 58E0 78BA/0DEE       0A788 47140                       VCALL SELDELTA            Choose a good delta
 00A05C 5A10 600C            0000C 47144                       A     R1,SPLLNO1
 00A060 5010 6010            00010 47145                       ST    R1,SPLLNO2          Save second lineno
                                   47146                       ¿þþþþþþþþþþþþþþþþþþþÜ
                                   47147                       Ÿ  List the lines.  Ÿ
                                   47148                       ¾þþþþþþþþþþþþþþþþþþþ»
 00A064 D203 B73C 600C 0073C 0000C 47149              SPLLIST  MVC   CPLCNO,SPLLNO1
 00A06A D203 B740 600C 00740 0000C 47150                       MVC   CPSTLNO,SPLLNO1
 00A070 4110 6014/4100_      00014 47151                       SETMSG SPLLINE1
 00A078 58E0 78BE/0DEE       0A78C 47165                       VCALL LENCHK              Check for excessive length
 00A07E 9120 BD54/4710_00D54       47169                       IF    ~CPLFLG5.CPFNLST,'VCALL LISTLINE'
                                   47194
 00A08C D203 B73C 6010 0073C 00010 47195                       MVC   CPLCNO,SPLLNO2
 00A092 D203 B740 6010 00740 00010 47196                       MVC   CPSTLNO,SPLLNO2
 00A098 4110 6114/4100_      00114 47197                       SETMSG SPLLINE2           Second line
 00A0A0 58E0 78BE/0DEE       0A78C 47211                       VCALL LENCHK              Check for excessive length
 00A0A6 9001 BD7C            00D7C 47215                       STM   R0,R1,CPWK8         Save line loc, len
 00A0AA 9120 BD54/4710_00D54       47216                       IF    ~CPLFLG5.CPFNLST,'VCALL LISTLINE'
                                   47241                       ¿þþþþþþþþþþþþþþþþþþþþþþþþþþþþÜ
                                   47242                       Ÿ  Prompt for verification.  Ÿ
                                   47243                       ¾þþþþþþþþþþþþþþþþþþþþþþþþþþþþ»
 00A0B8 9120 BD58/47E0_00D58       47244                       IF    CPFVER,BEGIN        Verify...
 00A0C0 4110 7927/4100_      0A7F5 47259  1                      SETMSG 'Split'
 00A0C8 58E0 78C6/0DEE       0A794 47263  1                      ACALL YESMOD              Ask if ok
 00A0CE 4720 727E            0A14C 47267  1                      BP    SPLEXIT
 00A0D2 4740 C7DE            007DE 47268  1                      BM    CVNEXT
 00A0D6                            47269                       END
                                   47273                       ¿þþþþþþþþþþþþþþþþþþþþþþþþþþþþþþþþþþþþþÜ
                                   47274                       Ÿ  Add the lines to the ACTIVE file.  Ÿ
                                   47275                       ¾þþþþþþþþþþþþþþþþþþþþþþþþþþþþþþþþþþþþþ»
 00A0D6 58F0 6010            00010 47276                       L     R15,SPLLNO2
 00A0DA 4110 6114/4100_      00114 47277                       SETMSG SPLLINE2
 00A0E2 58E0 78CA/0DEE       0A798 47291                       VCALL PUTLINE             Add second line first
 00A0E8 4100 0001/5E00_      00001 47295                       INCR  R0,CPACHCT          Count the change
                                   47301
 00A0F4 58F0 600C            0000C 47302                       L     R15,SPLLNO1
 00A0F8 4110 6014/4100_      00014 47303                       SETMSG SPLLINE1
 00A100 58E0 78CA/0DEE       0A798 47317                       VCALL PUTLINE             Now replace the first line
 00A106 4100 0001/5E00_      00001 47321                       INCR  R0,CPACHCT          Count the change
                                   47327                       ¿þþþþþþþþþþþþþþþþþþþþþþþþþþþþþþþþþþþþþÜ
                                   47328                       Ÿ  Adjust page cursor if neccessary.  Ÿ
                                   47329                       ¾þþþþþþþþþþþþþþþþþþþþþþþþþþþþþþþþþþþþþ»
 00A112 D503 BADC 600C_00ADC 0000C 47330                       IF    (CPVLNO,EQ,SPLLNO1),BEGIN  Cursor needs to move...
 00A11C 48F0 BADA            00ADA 47348  1                      LH    R15,CPVCOL          Move cursor to the next column
 00A120 4BF0 6004            00004 47349  1                      SH    R15,SPLWCOL         Calc new column
 00A124 4740 727E            0A14C 47350  1                      IF    NEG,EXIT            Still on the old line
                                   47364  1
1LINE     (LINE2193) (12:47) (15MAR04) SPLIT Command                                                                        Page  156
0Current Usings:  (SPLITWA,R6) (*,R7) (CP,R11) (CV,R12)
0Loc    Object Code    Addr1 Addr2  Stmt Lv Lineno    Source Statement           (Hibal 5, Asmedit 3.3)  HLASM R4.0  2004/03/15 12.47
+___    ______ ____    _____ _____  ____ __ ______    ______ _________
000A128 D203 BADC 6010 00ADC 00010 47365  1                      MVC   CPVLNO,SPLLNO2      Set new lineno
 00A12E 4BF0 6006            00006 47366  1                      SH    R15,SPLBLCNT        Adjust for trimmed blanks
 00A132 9500 6118/4770_00118       47367  1                      IF    (SPLLINE2+4,EQ,X'00'),'CLEAR R15'  Force column
 00A13C 12FF/4720 7276_            47393  1                      IF    (R15,NP),'CLEAR R15'  Just in case
 00A144 41F0 F001            00001 47416  1                      LA    R15,@R15+1          Column is relative to one
 00A148 40F0 BADA            00ADA 47417  1                      STH   R15,CPVCOL          Set new column
 00A14C                            47418                       END
                                   47422
 00A14C 18D8/9808 D004_            47423              SPLEXIT  PEND
 DROP   *,R7
 DROP   SPLITWA,R6                 47444                       DROP  R6
1LINE     (LINE2193) (12:47) (15MAR04) JOIN Command                                                                         Page  157
0Current Usings:  (CP,R11) (CV,R12)
0Loc    Object Code    Addr1 Addr2  Stmt Lv Lineno    Source Statement           (Hibal 5, Asmedit 3.3)  HLASM R4.0  2004/03/15 12.47
+___    ______ ____    _____ _____  ____ __ ______    ______ _________
0000000                00000 002B8 47452              JOINWA   RECORD BEGIN
 000000 00                         47460  1           JOINFLAG   FLAG
 JOINFLAG.JOINFDEL 80 ONES         47464  1                      FLAG  JOINFDEL            - Delete joined lines
 JOINFLAG.JOINNOTR 40 ONES         47469  1                      FLAG  JOINNOTR            - Don't trim leading blanks
                                   47474  1
 000001                            47475  1           JOINSLEN   DS    X                   Length of separator
                                   47476  1           JOINSEP    DS    CL(&LINESZ)         Separator chars
 000002                                   1          +JOINSEP    DS    CL(235)             Separator chars
                                   47477  1
 0000ED                            47478  1           JOINLEN    DS    X                   Length of line
                                   47479  1           JOINLINE   DS    CL(&PRESSZ)         New line area
 0000EE                                   1          +JOINLINE   DS    CL(256)             New line area
                                   47480  1
 0001EE                            47481  1           JOINNLIN   DS    H                   No. of lineno's
                                   47482  1           JOINLIN#   EQU   50                  Max no. of lines
 0001F0                            47483  1           JOINLINS   DS    (JOINLIN#)F         Line no. area
 0002B8                002B8 002B8 47484                       END
-                                  47494              ¿þþþþþþþþþþþþþþþþþþþþþþþþþþþþþþþþþþþþþþþþþþþþþþþþþþþþþþþþþþþþþþþþþþþþþÜ
                                   47495              Ÿ                                                                     Ÿ
                                   47496              Ÿ                                                                     Ÿ
                                   47497              Ÿ  JOIN -- JOIN command.                                              Ÿ
                                   47498              Ÿ                                                                     Ÿ
                                   47499              Ÿ                                                                     Ÿ
                                   47500              Ÿ                                                                     Ÿ
                                                      ¾þþþþþþþþþþþþþþþþþþþþþþþþþþþþþþþþþþþþþþþþþþþþþþþþþþþþþþþþþþþþþþþþþþþþþ»
000A15A 50E0 D000/9008_      00000 47501              JOIN     XPROC JOINWA
 USING  *,R7
 USING  JOINWA-(4+36),R8
 00A174 4160 8028            00000 47552                       LA    R6,JOINWA
 USING  JOINWA,R6                  47553                       USING JOINWA,R6
 00A178 5060 BCA4            00CA4 47562                       ST    R6,CPCWA
 00A17C D7FF 6000 6000_00000 00000 47563                       CLEAR JOINWA
 00A18E 9680 6000      00000       47572                       SET   JOINFDEL            Default is delete
 00A192 9201 6001      00001       47578                       MVI   JOINSLEN,1
 00A196 9240 6002      00002       47579                       MVI   JOINSEP,C' '        default is sep=' '
                                   47580
 00A19A 58E0 75CC/0DEE       0A740 47581                       VCALL NDETRNG
 00A1A0 9101 B477/4710_00477       47585                       IF    (CPGFNLST,OR,~CPFTYPED),'SET CPLFLG5.CPFNLST'
                                   47626              *
                                   47627              *
 00A1B4 5810 B08C/1B00_      0008C 47628                       SCAN  JOINPRT
 00A206 58E0 75C8/0DEE       0A73C 47660                       SCANCHK
 00A20C 9110 BD54/4710_00D54       47665                       IF    (CPLFLG5.CPFFOPT,OR,CPFVER),'CLEAR CPLFLG5.CPFNLST'
 00A220 5800 762C/5810_      0A7A0 47708                       RDRNG JOINRTN,(DESRTRN+LOCATRTN+UNPRST+DESABORT)
 00A22E 4780 70CC/41F0_      0A240 47715                       IF    NZ,'TCLEAR; B CVNOACTN'
 00A240 D601 61EE 61EE_001EE 001EE 47746                       IF    (JOINNLIN,Z),CVNEXT  No lines found, scram
 00A24A D501 766E 61EE_0A7E2 001EE 47765                       IF    (JOINNLIN,EQ,1),BEGIN
 00A254 4110 7686/4100_      0A7FA 47783  1                      ERROR 'Must have at least two lines to join.'
 00A260                            47790                       END
                                   47794
 00A260 58F0 61F0            001F0 47795                       L     R15,JOINLINS
1LINE     (LINE2193) (12:47) (15MAR04) JOIN Command                                                                         Page  158
0Current Usings:  (JOINWA,R6) (*,R7) (JOINWA-(4+36),R8) (CP,R11) (CV,R12)
0Loc    Object Code    Addr1 Addr2  Stmt Lv Lineno    Source Statement           (Hibal 5, Asmedit 3.3)  HLASM R4.0  2004/03/15 12.47
+___    ______ ____    _____ _____  ____ __ ______    ______ _________
000A264 50F0 B73C            0073C 47796                       ST    R15,CPLCNO          For listline routine
 00A268 50F0 B5A8            005A8 47797                       ST    R15,CPACLNO         Set current line ptr
 00A26C 4110 60EE            000EE 47798                       LA    R1,JOINLINE
 00A270 1F00/4300 60ED             47799                       LC    R0,JOINLEN
 00A276 58E0 7618/0DEE       0A78C 47804                       VCALL LENCHK              Check for excessive length
 00A27C 9001 BD7C            00D7C 47808                       STM   R0,R1,CPWK8         Save line loc, len
 00A280 9120 BD54/4710_00D54       47809                       IF    ~CPLFLG5.CPFNLST,'VCALL LISTLINE; TWRITE'
 00A29A 9120 BD58/47E0_00D58       47859                       IF    CPFVER,BEGIN
 00A2A2 4110 763C/4100_      0A7B0 47874  1                      SETMSG 'Join'
 00A2AA 58E0 7620/0DEE       0A794 47878  1                      ACALL YESMOD
 00A2B0 4720 716C            0A2E0 47882  1                      BP JOIND
 00A2B4 4740 C7DE            007DE 47883  1                      BM CVNEXT
 00A2B8                            47884                       END   ,
 00A2B8 58F0 B73C            0073C 47888                       L     R15,CPLCNO          Lineno
 00A2BC 9801 BD7C            00D7C 47889                       LM    R0,R1,CPWK8         Line ptrs
 00A2C0 58E0 7640/0DEE       0A7B4 47890                       VCALL PRESS
 00A2C6 58E0 7644/0DEE       0A7B8 47894                       VCALL STOW
 00A2CC 9110 B477/47E0_00477       47898                       IF    CPFTYPED,'INCR R0,CPACHCT'
                                   47924
 00A2E0 9180 6000/47E0_00000       47925              JOIND    IF    JOINFDEL,BEGIN      Delete joined lines...
 00A2E8 4150 61F4            001F4 47941  1                      LA    R5,JOINLINS+4       Second/last linenos
 00A2EC 4840 61EE            001EE 47942  1                      LH    R4,JOINNLIN
 00A2F0 0640                       47943  1                      DECR  R4
                                   47945  1
 00A2F2 5800 5000            00000 47946  1           JOINDLP    L     R0,@R5              Line-number to delete
 00A2F6 1810                       47947  1                      LR    R1,R0
 00A2F8 59F0 61F0/4780_      001F0 47948  1                      IF    (R15,NE,JOINLINS),'VCALL DELRANGE'  Delete line
 00A306 4150 5004            00004 47974  1                      LA    R5,@R5+4            Next line
 00A30A 4640 717E            0A2F2 47975  1                      BCT   R4,JOINDLP
 00A30E                            47976                       END
 00A30E 47F0 C7DE            007DE 47980                       B     CVNEXT
                                   47981
 00A312 18D8/9808 D004_            47982                       PEND
 DROP   JOINWA-(4+36),R8
 DROP   *,R7
1LINE     (LINE2193) (12:47) (15MAR04) JOIN Command                                                                         Page  159
0Current Usings:  (JOINWA,R6) (CP,R11) (CV,R12)
0Loc    Object Code    Addr1 Addr2  Stmt Lv Lineno    Source Statement           (Hibal 5, Asmedit 3.3)  HLASM R4.0  2004/03/15 12.47
+___    ______ ____    _____ _____  ____ __ ______    ______ _________
000A320 E2C5D7C1D9C1E3D6_          48008              JOINPRT  SCKW  SEPARATOR,JSEP,(A,P)
 00A348 D5D6E2C5D7C1D9C1_          48023                       SCKW  NOSEPARATOR,JNOSEP,A
 00A370 C4C5D3C5E3C54040_          48038                       SCKW  DELETE,JDEL,A
 00A398 D5D6C4C5D3C5E3C5_          48053                       SCKW  NODELETE,JNODEL,A
 00A3C0 4040404040404040_          48068                       SCKW  ,V(LTNPSH),PUSH
 00A3E8 4040404040404040_          48083                       SCKW  ,V(LENPSH),PUSH
 00A410 4040404040404040_          48098                       SCKW  ,V(VERPSH),PUSH
 00A438 E3D9C9D440404040_          48113                       SCKW  TRIM,JTRIM,A
 00A460 D5D6E3D9C9D44040_          48128                       SCKW  NOTRIM,JNOTRIM,A
 00A488 4040404040404040_          48143                       SCKW  ,V(NOTVALID)
                                   48158
 00A4B0 50E0 D000/9008_      00000 48159              JSEP     PROC
 USING  *,R7
 00A4CA 58F0 B08C/4110_      0008C 48198                       SCDQUOTE JOINSEP
 00A4DC 4200 6001            00001 48219                       STC   R0,JOINSLEN
 00A4E0 1BFF                       48220                       CLEAR R15
 00A4E2 18D8/9808 D004_            48224                       PEND
 DROP   *,R7
                                   48244
 00A4F0 50E0 D000/9008_      00000 48245              JNOSEP   PROC
 USING  *,R7
 00A50A 9200 6001      00001       48284                       CLEAR JOINSLEN
 00A50E 18D8/9808 D004_            48291                       PEND
 DROP   *,R7
                                   48311
 00A51C 50E0 D000/9008_      00000 48312              JDEL     PROC
 USING  *,R7
 00A536 9680 6000      00000       48351                       SET   JOINFDEL
 00A53A 18D8/9808 D004_            48357                       PEND
 DROP   *,R7
                                   48377
 00A548 50E0 D000/9008_      00000 48378              JNODEL   PROC
 USING  *,R7
 00A562 947F 6000      00000       48417                       CLEAR JOINFDEL
 00A566 18D8/9808 D004_            48424                       PEND
 DROP   *,R7
                                   48444
 00A574 50E0 D000/9008_      00000 48445              JTRIM    PROC  ,
 USING  *,R7
 00A58E 94BF 6000      00000       48484                       CLEAR JOINNOTR            Trim leading blanks
 00A592 18D8/9808 D004_            48491                       PEND
 DROP   *,R7
                                   48511
 00A5A0 50E0 D000/9008_      00000 48512              JNOTRIM  PROC
 USING  *,R7
 00A5BA 9640 6000      00000       48551                       SET   JOINNOTR            Leave leading blanks
 00A5BE 18D8/9808 D004_            48557                       PEND
 DROP   *,R7
 DROP   JOINWA,R6                  48577                       DROP  R6
1LINE     (LINE2193) (12:47) (15MAR04) JOIN Command                                                                         Page  160
0Current Usings:  (CP,R11) (CV,R12)
0Loc    Object Code    Addr1 Addr2  Stmt Lv Lineno    Source Statement           (Hibal 5, Asmedit 3.3)  HLASM R4.0  2004/03/15 12.47
+___    ______ ____    _____ _____  ____ __ ______    ______ _________
0                                  48585              ¿þþþþþþþþþþþþþþþþþþþþþþþþþþþþþþþþþþþþþþþþþþþþþþþþþþþþþþþþþþþþþþþþþþþþþÜ
                                   48586              Ÿ                                                                     Ÿ
                                   48587              Ÿ  JOINRTN -- Entered from the range processor with line loc in R1    Ÿ
                                   48588              Ÿ    and line len in R0.                                              Ÿ
                                   48589              Ÿ                                                                     Ÿ
                                                      ¾þþþþþþþþþþþþþþþþþþþþþþþþþþþþþþþþþþþþþþþþþþþþþþþþþþþþþþþþþþþþþþþþþþþþþ»
000A5CC 50E0 D000/9008_      00000 48590              JOINRTN  PROC
 USING  *,R7
 00A5E6 5860 BCA4            00CA4 48629                       L     R6,CPCWA            JOINWA ptr
 USING  JOINWA,R6                  48630                       USING JOINWA,R6
 00A5EA 4820 61EE            001EE 48639                       LH    R2,JOINNLIN         No. of lines so far
 00A5EE 41F0 2001            00001 48640                       LA    R15,@R2+1           Plus this one
 00A5F2 59F0 71DE/47D0_      0A7C4 48641                       IF    (R15,GT,JOINLIN#),BEGIN
 00A5FA 4110 7102/4100_      0A6E8 48658  1                      TSEG  'JOIN not done, too many lines -- at line',,B
 00A60C 5800 B73C            0073C 48676  1                      L     R0,CPLCNO
 00A610 58E0 717E/0DEE       0A764 48677  1                      VCALL CVEXNO
 00A616 47F0 C7C8            007C8 48681  1                      B     CVERRMSG
 00A61A                            48682                       END
 00A61A 40F0 61EE            001EE 48686                       STH   R15,JOINNLIN        Update count
 00A61E 8920 0002            00002 48687                       SLL   R2,2                Times 4 for word offset
 00A622 4122 61F0            001F0 48688                       LA    R2,JOINLINS(R2)
 00A626 D203 2000 B73C 00000 0073C 48689                       MVC   @R2(4),CPLCNO       Save this lineno
                                   48690
 00A62C 1FFF/43F0 60ED             48691                       LC    R15,JOINLEN         Accumulated line len
 00A632 1F22/4320 6001             48698                       LC    R2,JOINSLEN         Separator len
 00A638 D501 71FC 61EE_0A7E2 001EE 48705                       IF    (JOINNLIN,EQ,1),'CLEAR R2'  First line has no sep
 00A644 7062/47F0 7070_0A644 0A640 48732                       ELSEIF ~JOINNOTR,'VCALL LRTRIM'
 00A656 415F 2000            00000 48765                       LA    R5,@R2(R15)         Length not including the new line
                                   48766
 00A65A 1835                       48767                       LR    R3,R5
 00A65C 1A30                       48768                       AR    R3,R0               Plus this line len
 00A65E 5930 71EA/47D0_      0A7D0 48769                       IF    (R3,GT,&LINESZ),BEGIN
 00A666 4110 7239/4100_      0A81F 48786  1                      TSEG  'Join not done, '
 00A678 4110 712A/4100_      0A710 48804  1                      TSEG  'Joined line would be too long -- at line',,B
 00A68A 5800 B73C            0073C 48822  1                      L     R0,CPLCNO
 00A68E 58E0 717E/0DEE       0A764 48823  1                      VCALL CVEXNO
 00A694 47F0 C7C8            007C8 48827  1                      B     CVERRMSG
 00A698                            48828                       END
 00A698 4230 60ED            000ED 48832                       STC   R3,JOINLEN          Save new length
                                   48833
 00A69C 41FF 60EE            000EE 48834                       LA    R15,JOINLINE(R15)   Start of separator
 00A6A0 0620/1222/4740_            48835                       MOVE  R2,@R15,JOINSEP     Move in separator
                                   48873
 00A6AC 1820                       48874                       LR    R2,R0
 00A6AE 41F5 60EE            000EE 48875                       LA    R15,JOINLINE(R5)    New line starts here
 00A6B2 0620/1222/4740_            48876                       MOVE  R2,@R15,@R1         Move in the new line
                                   48914                       ¿þþþþþþþþþþþþþþþþþþþþþþþþþþþþþþþþþþþþÜ
                                   48915                       Ÿ  Alter page cursor if neccessary.  Ÿ
                                   48916                       ¾þþþþþþþþþþþþþþþþþþþþþþþþþþþþþþþþþþþþ»
 00A6BE D503 B73C BADC_0073C 00ADC 48917                       IF    (CPLCNO,EQ,CPVLNO),BEGIN  Cursor needs to move...
 00A6C8 D203 BADC 61F0 00ADC 001F0 48935  1                      MVC   CPVLNO,JOINLINS     Set new cursor lineno
 00A6CE 48F0 BADA            00ADA 48936  1                      LH    R15,CPVCOL
 00A6D2 1AF5                       48937  1                      AR    R15,R5
1LINE     (LINE2193) (12:47) (15MAR04) JOIN Command                                                                         Page  161
0Current Usings:  (JOINWA,R6) (*,R7) (CP,R11) (CV,R12)
0Loc    Object Code    Addr1 Addr2  Stmt Lv Lineno    Source Statement           (Hibal 5, Asmedit 3.3)  HLASM R4.0  2004/03/15 12.47
+___    ______ ____    _____ _____  ____ __ ______    ______ _________
000A6D4 40F0 BADA            00ADA 48938  1                      STH   R15,CPVCOL          New column location
 00A6D8                            48939                       END
                                   48943
 00A6D8 18D8/9808 D004_            48944                       PEND
 DROP   *,R7
 DROP   JOINWA,R6                  48964                       DROP  R6
                                   48971
                                   48972                       QLTORG
1LINE     (LINE2193) (12:47) (15MAR04) EXCHANGE Command                                                                     Page  162
0Current Usings:  (CP,R11) (CV,R12)
0Loc    Object Code    Addr1 Addr2  Stmt Lv Lineno    Source Statement           (Hibal 5, Asmedit 3.3)  HLASM R4.0  2004/03/15 12.47
+___    ______ ____    _____ _____  ____ __ ______    ______ _________
0000000                00000 00200 49028              EXCHWA   RECORD BEGIN
                                   49036  1           EXCHLIN1   DS    CL(&PRESSZ)         Line #1 (pressed)
 000000                                   1          +EXCHLIN1   DS    CL(256)             Line #1 (pressed)
                                   49037  1           EXCHLIN2   DS    CL(&PRESSZ)         Line #2 (pressed)
 000100                                   1          +EXCHLIN2   DS    CL(256)             Line #2 (pressed)
 000200                00200 00200 49038                       END
-                                  49048              ¿þþþþþþþþþþþþþþþþþþþþþþþþþþþþþþþþþþþþþþþþþþþþþþþþþþþþþþþþþþþþþþþþþþþþþÜ
                                   49049              Ÿ                                                                     Ÿ
                                   49050              Ÿ  EXCHANGE -- EXCHANGE command.                                      Ÿ
                                   49051              Ÿ                                                                     Ÿ
                                                      ¾þþþþþþþþþþþþþþþþþþþþþþþþþþþþþþþþþþþþþþþþþþþþþþþþþþþþþþþþþþþþþþþþþþþþþ»
000A852 50E0 D000/9008_      00000 49052              EXCHANGE XPROC EXCHWA
 USING  *,R7
 USING  EXCHWA-(4+36),R8
 00A86C 4160 8028            00000 49103                       LA    R6,EXCHWA
 USING  EXCHWA,R6                  49104                       USING EXCHWA,R6
 00A870 D7FF 6000 6000_00000 00000 49113                       CLEAR EXCHWA
                                   49121
 00A87C 9101 B477/4710_00477       49122                       IF    (CPGFNLST,OR,~CPFTYPED),'SET CPLFLG5.CPFNLST'
 00A890 58E0 75FC/0DEE       0AE68 49163                       VCALL ACTCHK              Make sure there is an Active
                                   49167
                                   49168                       COMMENT                   SCAN LINE #1
 00A896 5810 B08C/1B00_      0008C 49169                       SCAN  EXLN1PRT
 00A8E8 58E0 7608/0DEE       0AE74 49201                       SCANCHK
                                   49206                       COMMENT                   SCAN LINE #2
 00A8EE 5810 B08C/1B00_      0008C 49207                       SCAN  EXLN2PRT
 00A940 58E0 7608/0DEE       0AE74 49239                       SCANCHK
                                   49244                       COMMENT                   SCAN OTHER OPTIONS
 00A946 5810 B08C/1B00_      0008C 49245                       SCAN  EXCHPRT
 00A998 9110 BD54/4710_00D54       49277                       IF    (CPLFLG5.CPFFOPT,OR,CPFVER),'CLEAR CPLFLG5.CPFNLST'
 00A9AC D203 B5A8 7614 005A8 0AE80 49320                       MVC   CPACLNO,=F'-1000'   Current line not set
                                   49321
 00A9B2 D703 6000 6100_00000 00100 49322                       FLIP  (EXCHLIN1,EXCHLIN2,4)  Exchange lineno's
                                   49327
 00A9C4 9120 BD54/4710_00D54       49328                       IF    ~CPLFLG5.CPFNLST,BEGIN
 00A9CC 182D/41D0 D0EC             49344  1                      XPUSH ,,&LINESZ,PTR=R2
 00A9D2 41F0 6100            00100 49347  1                      LA    R15,EXCHLIN2        Second line (with first lineno)
 00A9D6 D203 B73C 6100 0073C 00100 49348  1                      MVC   CPLCNO,EXCHLIN2     Set lineno for listline
 00A9DC 1812                       49349  1                      LR    R1,R2               Unpress area
 00A9DE 58E0 7618/0DEE       0AE84 49350  1                      VCALL UNPRESS
 00A9E4 58E0 761C/0DEE       0AE88 49354  1                      VCALL LISTLINE
 00A9EA 1B00/41F0 B050_            49358  1                      TWRITE
 00A9F6 41F0 6000            00000 49383  1                      LA    R15,EXCHLIN1        First line (with second lineno)
 00A9FA D203 B73C 6000 0073C 00000 49384  1                      MVC   CPLCNO,EXCHLIN1     Set lineno for listline
 00AA00 1812                       49385  1                      LR    R1,R2               Unpress area
 00AA02 58E0 7618/0DEE       0AE84 49386  1                      VCALL UNPRESS
 00AA08 58E0 761C/0DEE       0AE88 49390  1                      VCALL LISTLINE
 00AA0E 1B00/41F0 B050_            49394  1                      TWRITE
 00AA1A 4BD0 763E            0AEAA 49419  1                      XPOP  ,,&LINESZ
 00AA1E                            49421                       END
 00AA1E 9120 BD58/47E0_00D58       49425                       IF    CPFVER,'SETMSG "Exchange"; VCALL YESRTN; BNZ CVNEXT'
1LINE     (LINE2193) (12:47) (15MAR04) EXCHANGE Command                                                                     Page  163
0Current Usings:  (EXCHWA,R6) (*,R7) (EXCHWA-(4+36),R8) (CP,R11) (CV,R12)
0Loc    Object Code    Addr1 Addr2  Stmt Lv Lineno    Source Statement           (Hibal 5, Asmedit 3.3)  HLASM R4.0  2004/03/15 12.47
+___    ______ ____    _____ _____  ____ __ ______    ______ _________
000AA38 1F00/4300 6004             49454                       LC    R0,EXCHLIN1+4
 00AA3E 4110 6000            00000 49459                       LA    R1,EXCHLIN1
 00AA42 58E0 7628/0DEE       0AE94 49460                       VCALL STOW
 00AA48 1F00/4300 6104             49464                       LC    R0,EXCHLIN2+4
 00AA4E 4110 6100            00100 49469                       LA    R1,EXCHLIN2
 00AA52 58E0 7628/0DEE       0AE94 49470                       VCALL STOW
 00AA58 D203 B5A8 6100 005A8 00100 49474                       MVC   CPACLNO,EXCHLIN2    Set current lineno
 00AA5E 9110 B477/47E0_00477       49475                       IF    CPFTYPED,'INCR R0,CPACHCT'
 00AA72 47F0 C7DE            007DE 49501                       B     CVNEXT
                                   49502
 00AA76 18D8/9808 D004_            49503                       PEND
 DROP   EXCHWA-(4+36),R8
 DROP   *,R7
1LINE     (LINE2193) (12:47) (15MAR04) EXCHANGE Command                                                                     Page  164
0Current Usings:  (EXCHWA,R6) (CP,R11) (CV,R12)
0Loc    Object Code    Addr1 Addr2  Stmt Lv Lineno    Source Statement           (Hibal 5, Asmedit 3.3)  HLASM R4.0  2004/03/15 12.47
+___    ______ ____    _____ _____  ____ __ ______    ______ _________
0                                  49529              *
                                   49530              *  EXCHANGE SCKWS AND SCKW ROUTINES
                                   49531              *
 00AA84 4040404040404040_          49532              EXLN1PRT SCKW  ,EXL1NULL,NULL
 00AAAC 4040404040404040_          49547                       SCKW  ,EXL1,SYMLN
 00AAD4 4040404040404040_          49562                       SCKW  ,V(LTNPSH),PUSH
 00AAFC 4040404040404040_          49577                       SCKW  ,V(VERPSH),PUSH
 00AB24 4040404040404040_          49592                       SCKW  ,V(NOTVALID)
                                   49607
 00AB4C 4040404040404040_          49608              EXLN2PRT SCKW  ,EXL2NULL,NULL
 00AB74 4040404040404040_          49623                       SCKW  ,EXL2,SYMLN
 00AB9C 4040404040404040_          49638                       SCKW  ,V(LTNPSH),PUSH
 00ABC4 4040404040404040_          49653                       SCKW  ,V(VERPSH),PUSH
 00ABEC 4040404040404040_          49668                       SCKW  ,V(NOTVALID)
                                   49683
 00AC14 4040404040404040_          49684              EXCHPRT  SCKW  ,V(LTNPSH),PUSH
 00AC3C 4040404040404040_          49699                       SCKW  ,V(VERPSH),PUSH
 00AC64 4040404040404040_          49714                       SCKW  ,V(NOTVALID)
                                   49729
 00AC8C 50E0 D000/9008_      00000 49730              EXL1NULL PROC
 USING  *,R7
 00ACA6 4110 7206/4100_      0AEAC 49769                       ERROR 'Missing line-number pair for EXCHANGE command.'
 00ACB2 18D8/9808 D004_            49776                       PEND
 DROP   *,R7
                                   49796
 00ACC0 50E0 D000/9008_      00000 49797              EXL2NULL PROC
 USING  *,R7
 00ACDA 4110 7136/4100_      0AE10 49836                       ERROR 'Missing second line-number for EXCHANGE command.'
 00ACE6 18D8/9808 D004_            49843                       PEND
 DROP   *,R7
                                   49863
 00ACF4 50E0 D000/9008_      00000 49864              EXL1     PROC
 USING  *,R7
 00AD0E 5000 6000            00000 49903                       ST    R0,EXCHLIN1
 00AD12 5000 B73C            0073C 49904                       ST    R0,CPLCNO
 00AD16 1820                       49905                       LR    R2,R0               (for "exvoid")
 00AD18 4110 B73C            0073C 49906                       LA    R1,CPLCNO
 00AD1C 58E0 718A/0DEE       0AE98 49907                       VCALL LOCATE              Find line
 00AD22 9108 BD84/4710_00D84       49911                       IF    ~CPDRPT.CPFMTCH,'ACALL EXVOID'
 00AD30 D2FF 6000 F000 00000 00000 49936                       MVC   EXCHLIN1,@R15       MOVE LINE NO, LINE TEXT
 00AD36 41F0 0004            00004 49937                       LA    R15,4
 00AD3A 18D8/9808 D004_            49938                       PEND
 DROP   *,R7
                                   49958
 00AD48 50E0 D000/9008_      00000 49959              EXL2     PROC
 USING  *,R7
 00AD62 5900 6000/4770_      00000 49998                       IF    ('C R0,EXCHLIN1',EQ),BEGIN
 00AD6A 4110 70DE/4100_      0AE40 50011  1                      ERROR 'Exchange line-numbers can''t be the same.'
 00AD76                            50018                       END
 00AD76 5000 6100            00100 50022                       ST    R0,EXCHLIN2
 00AD7A 5000 B73C            0073C 50023                       ST    R0,CPLCNO
 00AD7E 1820                       50024                       LR    R2,R0
 00AD80 4110 B73C            0073C 50025                       LA    R1,CPLCNO
 00AD84 58E0 7136/0DEE       0AE98 50026                       VCALL LOCATE              Find line
1LINE     (LINE2193) (12:47) (15MAR04) EXCHANGE Command                                                                     Page  165
0Current Usings:  (EXCHWA,R6) (*,R7) (CP,R11) (CV,R12)
0Loc    Object Code    Addr1 Addr2  Stmt Lv Lineno    Source Statement           (Hibal 5, Asmedit 3.3)  HLASM R4.0  2004/03/15 12.47
+___    ______ ____    _____ _____  ____ __ ______    ______ _________
000AD8A 9108 BD84/4710_00D84       50030                       IF    ~CPDRPT.CPFMTCH,'ACALL EXVOID'
 00AD98 D2FF 6100 F000 00100 00000 50055                       MVC   EXCHLIN2,@R15       MOVE LINE NO, LINE TEXT
 00AD9E 41F0 0004            00004 50056                       LA    R15,4
 00ADA2 18D8/9808 D004_            50057                       PEND
 DROP   *,R7
                                   50077
 00ADB0 50E0 D000/9008_      00000 50078              EXVOID   PROC
 USING  *,R7
 00ADCA 4110 7110/4100_      0AEDA 50117                       TSEG  'Line '
 00ADDC 1802                       50135                       LR    R0,R2
 00ADDE 58E0 70DA/0DEE       0AEA4 50136                       VCALL CVEXNO
 00ADE4 41F0 B050/58E0_      00050 50140                       TSEG  (R1),(R0)
 00ADEE 4110 7115/4100_      0AEDF 50164                       ERROR ' not in file.'
 00ADFA 18D8/9808 D004_            50171                       PEND
 DROP   *,R7
 DROP   EXCHWA,R6                  50191                       DROP  R6
                                   50198
                                   50199                       QLTORG
1LINE     (LINE2193) (12:47) (15MAR04) Miscelanous Routines                                                                 Page  166
0Current Usings:  (CP,R11) (CV,R12)
0Loc    Object Code    Addr1 Addr2  Stmt Lv Lineno    Source Statement           (Hibal 5, Asmedit 3.3)  HLASM R4.0  2004/03/15 12.47
+___    ______ ____    _____ _____  ____ __ ______    ______ _________
0                                  50236              ¿þþþþþþþþþþþþþþþþþþþþþþþþþþþþþþþþþþþþþþþþþþþþþþþþþþþþþþþþþþþþþþþþþþþþþÜ
                                   50237              Ÿ                                                                     Ÿ
                                   50238              Ÿ  LINERD -- Routine to prompt for text line input.                   Ÿ
                                   50239              Ÿ                                                                     Ÿ
                                   50240              Ÿ    On entry:                                                        Ÿ
                                   50241              Ÿ      R0 - line-number of line to be entered                         Ÿ
                                   50242              Ÿ                                                                     Ÿ
                                   50243              Ÿ    On exit:                                                         Ÿ
                                   50244              Ÿ      R1,R0 - read text loc, len                                     Ÿ
                                   50245              Ÿ      R15 (and cc):                                                  Ÿ
                                   50246              Ÿ       -4 - Input ended with RETRY (@break)                          Ÿ
                                   50247              Ÿ        0 - Input ended normally (return)                            Ÿ
                                   50248              Ÿ        4 - break/logging off                                        Ÿ
                                   50249              Ÿ                                                                     Ÿ
                                                      ¾þþþþþþþþþþþþþþþþþþþþþþþþþþþþþþþþþþþþþþþþþþþþþþþþþþþþþþþþþþþþþþþþþþþþþ»
000AEEC 50E0 D000/9008_      00000 50250              LINERD   PROC
 USING  *,R7
 00AF06 91C0 BD54/47E0_00D54       50289                       IF    (CPLFLG5.CPFNONUM,ONES),BEGIN  Nonumber...
 00AF0E 4110 C4D8/4100_      004D8 50307  1                      SETMSG CVBLANKS,11
 00AF16                            50323                       END
                                   50327
 00AF16 7014/47F0 7020_0AF16 0AF0C 50328                       ELSEIF CPLFLG5.CPFUNUM,BEGIN  unnumbered...
 00AF22 1B11/1B00                  50353  1                      CLEAR R1,R0               No prompt
 00AF26                            50359                       END
                                   50363
 00AF26 7024/47F0 7054 0AF26 0AF20 50364                       ELSE  BEGIN               Regular...
 00AF2A 58E0 74C2/0DEE       0B3C8 50375  1                      VCALL CVEXNO              Convert line-number
 00AF30 4110 BC88/4100_      00C88 50379  1                      TSEG  CPDOUB,9
 00AF42 4110 74FE/4100_      0B404 50409  1                      SETMSG '> '
 00AF4A 9110 BD57/47E0_00D57       50413  1                      IF    CPFUPPER,'SETMSG "? "'
 00AF5A                            50437                       END
                                   50441
 00AF5A 1BFF/58E0 74CA_            50442                       TREAD (R1),(R0)           Get input
 00AF62 4780 7074            0AF7A 50462                       IF    NZ,BEGIN            Special ending status...
 00AF66 59F0 74CE/4770_      0B3D4 50473  1                      IF    (R15,EQ,3),'LH R15,=H"-4"'  @break
 00AF72 7070/47F0 7074_0AF72 0AF6C 50496  1                      ELSE  'LA R15,4'          Regular break
 00AF7A                            50513                       END
 00AF7A 9001 8004            00004 50517                       PRETURN (R0,R1)
 00AF7E 18D8/9808 D004_            50519                       PEND
 DROP   *,R7
1LINE     (LINE2193) (12:47) (15MAR04) Miscelanous Routines                                                                 Page  167
0Current Usings:  (CP,R11) (CV,R12)
0Loc    Object Code    Addr1 Addr2  Stmt Lv Lineno    Source Statement           (Hibal 5, Asmedit 3.3)  HLASM R4.0  2004/03/15 12.47
+___    ______ ____    _____ _____  ____ __ ______    ______ _________
0                                  50540              ¿þþþþþþþþþþþþþþþþþþþþþþþþþþþþþþþþþþþþþþþþþþþþþþþþþþþþþþþþþþþþþþþþþþþþþÜ
                                   50541              Ÿ                                                                     Ÿ
                                   50542              Ÿ  YESMOD -- Routine to get permission to update a line.  The         Ÿ
                                   50543              Ÿ    routine also accepts an answer of "MODIFY" or "EDIT" and         Ÿ
                                   50544              Ÿ    calls the line modification routine to modify the line.          Ÿ
                                   50545              Ÿ                                                                     Ÿ
                                   50546              Ÿ    On entry:                                                        Ÿ
                                   50547              Ÿ     R1,R0 - prompt loc, len                                         Ÿ
                                   50548              Ÿ     CPWK8,CPWK9 - unpressed line len, loc                           Ÿ
                                   50549              Ÿ     CPLCNO - lineno                                                 Ÿ
                                   50550              Ÿ                                                                     Ÿ
                                   50551              Ÿ    On exit, R15 (and CC):                                           Ÿ
                                   50552              Ÿ        -4 - don't update (user said "no")                           Ÿ
                                   50553              Ÿ         0 - it's ok to update the line                              Ÿ
                                   50554              Ÿ         4 - already updated by LINEMOD (user said modify/edit)      Ÿ
                                   50555              Ÿ                                                                     Ÿ
                                                      ¾þþþþþþþþþþþþþþþþþþþþþþþþþþþþþþþþþþþþþþþþþþþþþþþþþþþþþþþþþþþþþþþþþþþþþ»
000AF8C 50E0 D000/9008_      00000 50556              YESMOD   PROC
 USING  *,R7
 00AFA6 58E0 B08C/D2AF_      0008C 50595                       SCPUSH ,                  SAVE SCANNER INFO
                                   50601
 00AFB4 1861                       50602                       LR    R6,R1
 00AFB6 1850                       50603                       LR    R5,R0
                                   50604
 00AFB8 1B00/41F0 B050_            50605                       TWRITE
                                   50630
 00AFC4 1816/1805/41F0_            50631              YESMLOOP TSEG  (R6),(R5)
 00AFD2 4110 7468/4100_      0B40E 50657                       TREAD ' (Yes/No/Modify/Edit)',,Q
 00AFE2 4770 C7EA            007EA 50671                       BNZ   CVNOACTN            Abort cmd if just attn
                                   50672
 00AFE6 58E0 B08C/501E_      0008C 50673                       SCINIT (R1),(R0)
 00AFF4 5810 B08C/1B00_      0008C 50693                       SCAN  YESMPRT
                                   50725
                                   50726                       COMMENT                   IF ERROR ,,,
 00B046 12FF/47B0 70BC             50727                       IF    (R15,NEG),BEGIN
 00B04C 4110 747D/4100_      0B423 50741  1                      TSEG  'Answer Yes, No, Modify or Edit.',,CR
 00B05E 47F0 701E            0AFC4 50759  1                      B     YESMLOOP
 00B062                            50760                       END
                                   50764
                                   50765                       COMMENT                   YES ,,,
 00B062 59F0 7446/4770_      0B3EC 50766                       IF    (R15,EQ,4),BEGIN
 00B06A 1BFF                       50783  1                      CLEAR R15
 00B06C 47F0 716C            0B112 50787  1                      B     YESMEXIT
 00B070                            50788                       END
                                   50792
                                   50793                       COMMENT                   NO ,,,,
 00B070 59F0 744A/4770_      0B3F0 50794                       IF    (R15,EQ,8),BEGIN
 00B078 48F0 7462            0B408 50811  1                      LH    R15,=H'-4'          NO return code
 00B07C 47F0 716C            0B112 50812  1                      B     YESMEXIT
 00B080                            50813                       END
                                   50817
                                   50818                       COMMENT                   MODIFY ,,,
 00B080 59F0 744E/4770_      0B3F4 50819                       IF    (R15,EQ,12),BEGIN
1LINE     (LINE2193) (12:47) (15MAR04) Miscelanous Routines                                                                 Page  168
0Current Usings:  (*,R7) (CP,R11) (CV,R12)
0Loc    Object Code    Addr1 Addr2  Stmt Lv Lineno    Source Statement           (Hibal 5, Asmedit 3.3)  HLASM R4.0  2004/03/15 12.47
+___    ______ ____    _____ _____  ____ __ ______    ______ _________
000B088 9650 BC78      00C78       50836  1                      SET   CPFMODXP+CPFMODCD
 00B08C 9801 BD7C            00D7C 50845  1                      LM    R0,R1,CPWK8         Get line ptrs
 00B090 58E0 7452/0DEE       0B3F8 50846  1                      ACALL LINEMOD             Do modify/edit
 00B096 4770 C7DE            007DE 50850  1                      BNZ   CVNEXT              Stop
 00B09A 41F0 0001/5EF0_      00001 50851  1                      INCR  R15,CPACHCT         Kick change count
 00B0A6 D203 BD8C B73C 00D8C 0073C 50857  1                      MVC   CPNWLN,CPLCNO       Update for range processor
 00B0AC 94AF BC78      00C78       50858  1                      CLEAR CPFMODXP+CPFMODCD   Reset
 00B0B0 41F0 0004            00004 50868  1                      LA    R15,4               Rc
 00B0B4 47F0 716C            0B112 50869  1                      B     YESMEXIT
 00B0B8                            50870                       END
                                   50874
                                   50875                       COMMENT                   EDIT ,,,
 00B0B8 59F0 7456/4770_      0B3FC 50876                       IF    (R15,EQ,16),BEGIN
 00B0C0 9640 BC78/94EF_00C78       50893  1                      SET   CPFMODXP,(CPFMODCD,OFF)
 00B0C8 9801 BD7C            00D7C 50904  1                      LM    R0,R1,CPWK8         Get line ptrs
 00B0CC 58E0 7452/0DEE       0B3F8 50905  1                      ACALL LINEMOD             Do modify/edit
 00B0D2 4770 C7DE            007DE 50909  1                      BNZ   CVNEXT              Stop
 00B0D6 41F0 0001/5EF0_      00001 50910  1                      INCR  R15,CPACHCT         Kick change count
 00B0E2 D203 BD8C B73C 00D8C 0073C 50916  1                      MVC   CPNWLN,CPLCNO       Update for range processor
 00B0E8 94AF BC78      00C78       50917  1                      CLEAR CPFMODXP+CPFMODCD   Reset
 00B0EC 41F0 0004            00004 50927  1                      LA    R15,4               Rc
 00B0F0 47F0 716C            0B112 50928  1                      B     YESMEXIT
 00B0F4                            50929                       END
                                   50933
                                   50934                       COMMENT                   IF UNRECOGNIZED
 00B0F4 59F0 745A/4770_      0B400 50935                       IF    (R15,EQ,20),BEGIN
 00B0FC 4110 747D/4100_      0B423 50952  1                      TSEG  'Answer Yes, No, Modify or Edit.',,CR
 00B10E 47F0 701E            0AFC4 50970  1                      B     YESMLOOP
 00B112                            50971                       END
                                   50975              *
                                   50976              *
 00B112 58E0 B08C/4BD0_      0008C 50977              YESMEXIT SCPOP ,
 00B120 18D8/9808 D004_            50983                       PEND
 DROP   *,R7
                                   51003              ***
                                   51004              ***  YESMOD prompt options.
                                   51005              ***
 00B130 4040404040404040_          51006              YESMPRT  SCKW  ,YSMERR,NULL
 00B158 E8C5E24040404040_          51021                       SCKW  YES,YSMYES
 00B180 D6D2404040404040_          51036                       SCKW  OK,YSMYES
 00B1A8 E840404040404040_          51051                       SCKW  Y,YSMYES
 00B1D0 D5D6404040404040_          51066                       SCKW  NO,YSMNO
 00B1F8 D540404040404040_          51081                       SCKW  N,YSMNO
 00B220 D4D6C4C9C6E84040_          51096                       SCKW  MODIFY,YSMMOD,A
 00B248 D440404040404040_          51111                       SCKW  M,YSMMOD
 00B270 C5C4C9E340404040_          51126                       SCKW  EDIT,YSMEDIT,A
 00B298 C540404040404040_          51141                       SCKW  E,YSMEDIT
 00B2C0 4040404040404040_          51156                       SCKW  ,YSMERR
                                   51171
 00B2E8 50E0 D000/9008_      00000 51172              YSMYES   PROC
 USING  *,R7
 00B302 41F0 0004            00004 51211                       LA    R15,4
 00B306 18D8/9808 D004_            51212                       PEND
 DROP   *,R7
1LINE     (LINE2193) (12:47) (15MAR04) Miscelanous Routines                                                                 Page  169
0Current Usings:  (CP,R11) (CV,R12)
0Loc    Object Code    Addr1 Addr2  Stmt Lv Lineno    Source Statement           (Hibal 5, Asmedit 3.3)  HLASM R4.0  2004/03/15 12.47
+___    ______ ____    _____ _____  ____ __ ______    ______ _________
0                                  51232
 00B314 50E0 D000/9008_      00000 51233              YSMNO    PROC
 USING  *,R7
 00B32E 41F0 0008            00008 51272                       LA    R15,8
 00B332 18D8/9808 D004_            51273                       PEND
 DROP   *,R7
                                   51293
 00B340 50E0 D000/9008_      00000 51294              YSMMOD   PROC
 USING  *,R7
 00B35A 41F0 000C            0000C 51333                       LA    R15,12
 00B35E 18D8/9808 D004_            51334                       PEND
 DROP   *,R7
                                   51354
 00B36C 50E0 D000/9008_      00000 51355              YSMEDIT  PROC
 USING  *,R7
 00B386 41F0 0010            00010 51394                       LA    R15,16
 00B38A 18D8/9808 D004_            51395                       PEND
 DROP   *,R7
                                   51415
 00B398 50E0 D000/9008_      00000 51416              YSMERR   PROC
 USING  *,R7
 00B3B2 41F0 0014            00014 51455                       LA    R15,20
 00B3B6 18D8/9808 D004_            51456                       PEND
 DROP   *,R7
                                   51476
                                   51477                       QLTORG
                                   51511
                                   51512                       VLTORG
 00B448                0B448 0B448 51520                       END   .

1LINE     (LINE2193) (12:47) (15MAR04) Relocation Dictionary                                                                Page  170
-   Pos.Id   Rel.Id   Flags    Address                                                       HLASM R4.0  2004/03/15 12.47
0  00000001 00000001    0C    000002CC
   00000001 00000001    0C    000002F4
   00000001 00000001    0C    0000031C
   00000001 00000001    0C    00000344
   00000001 00000001    0C    0000036C
   00000001 00000001    0C    00000508
   00000001 00000001    0C    00000514
   00000001 00000001    0C    00000528
   00000001 00000001    0C    0000053C
   00000001 00000001    0C    00001014
   00000001 00000001    0C    00001018
   00000001 00000001    0C    0000102C
   00000001 00000001    0C    00001030
   00000001 00000001    0C    00001054
   00000001 00000001    0C    00001600
   00000001 00000001    0C    00001604
   00000001 00000001    0C    00001608
   00000001 00000001    0C    0000160C
   00000001 00000001    0C    00001618
   00000001 00000001    0C    00001620
   00000001 00000001    0C    00001628
   00000001 00000001    0C    00001630
   00000001 00000001    0C    0000163C
   00000001 00000001    0C    00001644
   00000001 00000001    0C    0000164C
   00000001 00000001    0C    00001654
   00000001 00000001    0C    0000165C
   00000001 00000001    0C    00001664
   00000001 00000001    0C    0000166C
   00000001 00000001    0C    00001674
   00000001 00000001    0C    0000167C
   00000001 00000001    0C    0000168C
   00000001 00000001    0C    00001694
   00000001 00000001    0C    000016A0
   00000001 00000001    0C    000016A4
   00000001 00000001    0C    00002230
   00000001 00000001    0C    00002240
   00000001 00000001    0C    00002254
   00000001 00000001    0C    00002804
   00000001 00000001    0C    00002838
   00000001 00000001    0C    0000283C
   00000001 00000001    0C    00002A0C
   00000001 00000001    0C    00002A34
   00000001 00000001    0C    00002A5C
   00000001 00000001    0C    00002A84
   00000001 00000001    0C    00002AAC
   00000001 00000001    0C    00002AD4
   00000001 00000001    0C    00002AFC
   00000001 00000001    0C    00002B24
   00000001 00000001    0C    00002B4C
   00000001 00000001    0C    00002B74
   00000001 00000001    0C    00002B9C
   00000001 00000001    0C    00002BC4
   00000001 00000001    0C    00002BEC
   00000001 00000001    0C    00002C14
1LINE     (LINE2193) (12:47) (15MAR04) Relocation Dictionary                                                                Page  171
   00000001 00000001    0C    00002C3C
   00000001 00000001    0C    00002C64
   00000001 00000001    0C    00003110
   00000001 00000001    0C    00003124
   00000001 00000001    0C    00003130
   00000001 00000001    0C    00003138
   00000001 00000001    0C    000033D8
   00000001 00000001    0C    00003400
   00000001 00000001    0C    00003428
   00000001 00000001    0C    00003450
   00000001 00000001    0C    00003608
   00000001 00000001    0C    0000360C
   00000001 00000001    0C    00003610
   00000001 00000001    0C    00004C50
   00000001 00000001    0C    00004C78
   00000001 00000001    0C    00004CF0
   00000001 00000001    0C    00004D18
   00000001 00000001    0C    00004D40
   00000001 00000001    0C    00004D68
   00000001 00000001    0C    00004D90
   00000001 00000001    0C    00004E58
   00000001 00000001    0C    000050CC
   00000001 00000001    0C    000050D0
   00000001 00000001    0C    000050E4
   00000001 00000001    0C    000050F0
   00000001 00000001    0C    00005138
   00000001 00000001    0C    00005140
   00000001 00000001    0C    000052B4
   00000001 00000001    0C    00005610
   00000001 00000001    0C    00005638
   00000001 00000001    0C    00005660
   00000001 00000001    0C    00005914
   00000001 00000001    0C    0000593C
   00000001 00000001    0C    00005964
   00000001 00000001    0C    00005CE0
   00000001 00000001    0C    00005D08
   00000001 00000001    0C    00006050
   00000001 00000001    0C    000060B4
   00000001 00000001    0C    000060C0
   00000001 00000001    0C    000060E8
   00000001 00000001    0C    000060F8
   00000001 00000001    0C    00006108
   00000001 00000001    0C    00006384
   00000001 00000001    0C    000065D4
   00000001 00000001    0C    000065E4
   00000001 00000001    0C    000065FC
   00000001 00000001    0C    00006608
   00000001 00000001    0C    00006968
   00000001 00000001    0C    0000696C
   00000001 00000001    0C    00006978
   00000001 00000001    0C    0000697C
   00000001 00000001    0C    00006980
   00000001 00000001    0C    00006984
   00000001 00000001    0C    00006988
   00000001 00000001    0C    00006998
   00000001 00000001    0C    000069C8
   00000001 00000001    0C    000069F0
   00000001 00000001    0C    00006A18
   00000001 00000001    0C    00006A40
1LINE     (LINE2193) (12:47) (15MAR04) Relocation Dictionary                                                                Page  172
   00000001 00000001    0C    00006A68
   00000001 00000001    0C    00006A90
   00000001 00000001    0C    00006AB8
   00000001 00000001    0C    00006AE0
   00000001 00000001    0C    00006B08
   00000001 00000001    0C    00006B30
   00000001 00000001    0C    00006B58
   00000001 00000001    0C    00006BA8
   00000001 00000001    0C    00006BD0
   00000001 00000001    0C    00006BF8
   00000001 00000001    0C    00006C20
   00000001 00000001    0C    00006C48
   00000001 00000001    0C    00006C70
   00000001 00000001    0C    00006C98
   00000001 00000001    0C    00006CC0
   00000001 00000001    0C    00006CE8
   00000001 00000001    0C    00006D10
   00000001 00000001    0C    00006D38
   00000001 00000001    0C    00006D60
   00000001 00000001    0C    00006DB0
   00000001 00000001    0C    00006DD8
   00000001 00000001    0C    00006E00
   00000001 00000001    0C    00006E28
   00000001 00000001    0C    00006E50
   00000001 00000001    0C    00006E78
   00000001 00000001    0C    00006EA0
   00000001 00000001    0C    00006F68
   00000001 00000001    0C    00006F90
   00000001 00000001    0C    00006FB8
   00000001 00000001    0C    00006FE0
   00000001 00000001    0C    00007008
   00000001 00000001    0C    00007030
   00000001 00000001    0C    00007058
   00000001 00000001    0C    00007080
   00000001 00000001    0C    000070A8
   00000001 00000001    0C    000078FC
   00000001 00000001    0C    00007924
   00000001 00000001    0C    00007B28
   00000001 00000001    0C    00007B2C
   00000001 00000001    0C    00007B30
   00000001 00000001    0C    00007B68
   00000001 00000001    0C    00007B6C
   00000001 00000001    0C    00007B7C
   00000001 00000001    0C    00007FF0
   00000001 00000001    0C    00008018
   00000001 00000001    0C    00008040
   00000001 00000001    0C    00008068
   00000001 00000001    0C    00008250
   00000001 00000001    0C    00008278
   00000001 00000001    0C    000082A0
   00000001 00000001    0C    0000841C
   00000001 00000001    0C    00008444
   00000001 00000001    0C    000084F8
   00000001 00000001    0C    0000853C
   00000001 00000001    0C    00008548
   00000001 00000001    0C    00008614
   00000001 00000001    0C    0000863C
   00000001 00000001    0C    00008664
   00000001 00000001    0C    0000868C
1LINE     (LINE2193) (12:47) (15MAR04) Relocation Dictionary                                                                Page  173
   00000001 00000001    0C    00008920
   00000001 00000001    0C    000091E0
   00000001 00000001    0C    000091E4
   00000001 00000001    0C    000091E8
   00000001 00000001    0C    000091EC
   00000001 00000001    0C    000091F0
   00000001 00000001    0C    000091F4
   00000001 00000001    0C    00009204
   00000001 00000001    0C    00009208
   00000001 00000001    0C    0000920C
   00000001 00000001    0C    00009210
   00000001 00000001    0C    00009214
   00000001 00000001    0C    00009218
   00000001 00000001    0C    00009814
   00000001 00000001    0C    0000983C
   00000001 00000001    0C    00009B4C
   00000001 00000001    0C    00009B58
   00000001 00000001    0C    00009B64
   00000001 00000001    0C    00009D20
   00000001 00000001    0C    00009D48
   00000001 00000001    0C    00009D70
   00000001 00000001    0C    0000A344
   00000001 00000001    0C    0000A36C
   00000001 00000001    0C    0000A394
   00000001 00000001    0C    0000A3BC
   00000001 00000001    0C    0000A45C
   00000001 00000001    0C    0000A484
   00000001 00000001    0C    0000A744
   00000001 00000001    0C    0000A74C
   00000001 00000001    0C    0000A794
   00000001 00000001    0C    0000A79C
   00000001 00000001    0C    0000A7A4
   00000001 00000001    0C    0000AAA8
   00000001 00000001    0C    0000AAD0
   00000001 00000001    0C    0000AB70
   00000001 00000001    0C    0000AB98
   00000001 00000001    0C    0000AE6C
   00000001 00000001    0C    0000AE78
   00000001 00000001    0C    0000AE7C
   00000001 00000001    0C    0000AE9C
   00000001 00000001    0C    0000B154
   00000001 00000001    0C    0000B17C
   00000001 00000001    0C    0000B1A4
   00000001 00000001    0C    0000B1CC
   00000001 00000001    0C    0000B1F4
   00000001 00000001    0C    0000B21C
   00000001 00000001    0C    0000B244
   00000001 00000001    0C    0000B26C
   00000001 00000001    0C    0000B294
   00000001 00000001    0C    0000B2BC
   00000001 00000001    0C    0000B2E4
   00000001 00000001    0C    0000B3E0
   00000001 00000001    0C    0000B3F8
   00000001 00000002    1C    0000022C
   00000001 00000002    1C    00004DB8
   00000001 00000002    1C    00005D30
   00000001 00000002    1C    0000635C
   00000001 00000002    1C    00006EF0
   00000001 00000002    1C    000070F8
1LINE     (LINE2193) (12:47) (15MAR04) Relocation Dictionary                                                                Page  174
   00000001 00000002    1C    0000996C
   00000001 00000002    1C    00009D98
   00000001 00000002    1C    0000A3E4
   00000001 00000002    1C    0000AAF8
   00000001 00000002    1C    0000ABC0
   00000001 00000002    1C    0000AC38
   00000001 00000003    1C    00000254
   00000001 00000003    1C    00004E08
   00000001 00000003    1C    00005D80
   00000001 00000003    1C    000063D4
   00000001 00000003    1C    00006F18
   00000001 00000003    1C    00007120
   00000001 00000003    1C    00009DC0
   00000001 00000003    1C    0000A40C
   00000001 00000004    1C    0000027C
   00000001 00000004    1C    00004E30
   00000001 00000004    1C    00005D58
   00000001 00000004    1C    000063AC
   00000001 00000005    1C    000002A4
   00000001 00000006    1C    000002C8
   00000001 00000006    1C    000002F0
   00000001 00000006    1C    00002A30
   00000001 00000006    1C    00002A58
   00000001 00000006    1C    00002A80
   00000001 00000006    1C    00002AA8
   00000001 00000006    1C    00002AD0
   00000001 00000006    1C    00002AF8
   00000001 00000006    1C    00002B20
   00000001 00000006    1C    00002B48
   00000001 00000006    1C    00002B70
   00000001 00000006    1C    00002B98
   00000001 00000006    1C    00002BC0
   00000001 00000006    1C    00002BE8
   00000001 00000006    1C    00002C10
   00000001 00000006    1C    00002C38
   00000001 00000006    1C    000033D4
   00000001 00000006    1C    00004D14
   00000001 00000006    1C    00004D3C
   00000001 00000006    1C    00004D64
   00000001 00000006    1C    00004D8C
   00000001 00000006    1C    00005D04
   00000001 00000006    1C    00006380
   00000001 00000006    1C    00006A64
   00000001 00000006    1C    00006A8C
   00000001 00000006    1C    00006B04
   00000001 00000006    1C    00006B2C
   00000001 00000006    1C    00006B54
   00000001 00000006    1C    00006C44
   00000001 00000006    1C    00006C6C
   00000001 00000006    1C    00006C94
   00000001 00000006    1C    00006D34
   00000001 00000006    1C    00006DAC
   00000001 00000006    1C    00006DD4
   00000001 00000006    1C    00006DFC
   00000001 00000006    1C    00006E24
   00000001 00000006    1C    00006E4C
   00000001 00000006    1C    00006E74
   00000001 00000006    1C    00006E9C
   00000001 00000006    1C    00006FB4
1LINE     (LINE2193) (12:47) (15MAR04) Relocation Dictionary                                                                Page  175
   00000001 00000006    1C    00006FDC
   00000001 00000006    1C    00007004
   00000001 00000006    1C    0000702C
   00000001 00000006    1C    00007054
   00000001 00000006    1C    0000707C
   00000001 00000006    1C    000070A4
   00000001 00000006    1C    0000803C
   00000001 00000006    1C    00009D44
   00000001 00000006    1C    00009D6C
   00000001 00000006    1C    0000A368
   00000001 00000006    1C    0000A390
   00000001 00000006    1C    0000A3B8
   00000001 00000006    1C    0000A458
   00000001 00000006    1C    0000A480
   00000001 00000006    1C    0000B178
   00000001 00000006    1C    0000B1A0
   00000001 00000006    1C    0000B1C8
   00000001 00000006    1C    0000B1F0
   00000001 00000006    1C    0000B218
   00000001 00000006    1C    0000B240
   00000001 00000006    1C    0000B268
   00000001 00000006    1C    0000B290
   00000001 00000006    1C    0000B2B8
   00000001 00000007    1C    00000318
   00000001 00000007    1C    00000340
   00000001 00000007    1C    00000368
   00000001 00000007    1C    00006BCC
   00000001 00000007    1C    00006BF4
   00000001 00000007    1C    00008638
   00000001 00000007    1C    00008660
   00000001 00000007    1C    00009D1C
   00000001 00000008    1C    00000390
   00000001 00000008    1C    00002C60
   00000001 00000008    1C    0000344C
   00000001 00000008    1C    00004C74
   00000001 00000008    1C    00004CC4
   00000001 00000008    1C    00004E54
   00000001 00000008    1C    000052D8
   00000001 00000008    1C    0000565C
   00000001 00000008    1C    00005960
   00000001 00000008    1C    00005DA4
   00000001 00000008    1C    000063F8
   00000001 00000008    1C    00006AB4
   00000001 00000008    1C    00006B7C
   00000001 00000008    1C    00006CE4
   00000001 00000008    1C    00006D84
   00000001 00000008    1C    00006F3C
   00000001 00000008    1C    00007144
   00000001 00000008    1C    00007948
   00000001 00000008    1C    00008064
   00000001 00000008    1C    0000829C
   00000001 00000008    1C    00008468
   00000001 00000008    1C    00008688
   00000001 00000008    1C    000099B8
   00000001 00000008    1C    00009E0C
   00000001 00000008    1C    0000A4A8
   00000001 00000008    1C    0000AB44
   00000001 00000008    1C    0000AC0C
   00000001 00000008    1C    0000AC84
1LINE     (LINE2193) (12:47) (15MAR04) Relocation Dictionary                                                                Page  176
   00000001 00000008    1C    0000B2E0
   00000001 00000009    1C    00000394
   00000001 00000009    1C    00000538
   00000001 00000009    1C    00005184
   00000001 00000009    1C    000052DC
   00000001 00000009    1C    00005DA8
   00000001 00000009    1C    0000611C
   00000001 00000009    1C    000063FC
   00000001 00000009    1C    00006B80
   00000001 00000009    1C    00006D88
   00000001 00000009    1C    00006F40
   00000001 00000009    1C    00007148
   00000001 00000009    1C    0000794C
   00000001 00000009    1C    00007B24
   00000001 00000009    1C    0000846C
   00000001 00000009    1C    00008510
   00000001 00000009    1C    000099BC
   00000001 00000009    1C    00009E10
   00000001 00000009    1C    0000A4AC
   00000001 00000009    1C    0000AB48
   00000001 00000009    1C    0000AC10
   00000001 00000009    1C    0000AC88
   00000001 0000000A    1C    0000050C
   00000001 0000000B    1C    00000510
   00000001 0000000B    1C    000065D0
   00000001 0000000B    1C    0000698C
   00000001 0000000B    1C    00007B80
   00000001 0000000B    1C    00009B48
   00000001 0000000B    1C    0000A740
   00000001 0000000C    1C    00000518
   00000001 0000000C    1C    00003114
   00000001 0000000C    1C    00003614
   00000001 0000000C    1C    000050D4
   00000001 0000000C    1C    00006054
   00000001 0000000C    1C    000065D8
   00000001 0000000C    1C    00006970
   00000001 0000000C    1C    00007B74
   00000001 0000000C    1C    000084FC
   00000001 0000000C    1C    00008924
   00000001 0000000C    1C    00009B50
   00000001 0000000C    1C    0000A738
   00000001 0000000C    1C    0000AE70
   00000001 0000000C    1C    0000B3E4
   00000001 0000000D    1C    0000051C
   00000001 0000000D    1C    000050D8
   00000001 0000000D    1C    00006058
   00000001 0000000D    1C    000065DC
   00000001 0000000D    1C    00006974
   00000001 0000000D    1C    00007B78
   00000001 0000000D    1C    00008500
   00000001 0000000D    1C    00008928
   00000001 0000000D    1C    00009B54
   00000001 0000000D    1C    0000A73C
   00000001 0000000D    1C    0000AE74
   00000001 0000000E    1C    00000520
   00000001 0000000E    1C    00000FF8
   00000001 0000000E    1C    00001290
   00000001 0000000E    1C    00001610
   00000001 0000000E    1C    0000282C
1LINE     (LINE2193) (12:47) (15MAR04) Relocation Dictionary                                                                Page  177
   00000001 0000000E    1C    0000313C
   00000001 0000000E    1C    0000361C
   00000001 0000000E    1C    00005150
   00000001 0000000E    1C    0000606C
   00000001 0000000E    1C    00006600
   00000001 0000000E    1C    00007B20
   00000001 0000000E    1C    0000922C
   00000001 0000000E    1C    0000981C
   00000001 0000000E    1C    0000A760
   00000001 0000000E    1C    0000AEA0
   00000001 0000000E    1C    0000B3CC
   00000001 0000000F    1C    0000052C
   00000001 0000000F    1C    000065E8
   00000001 0000000F    1C    0000699C
   00000001 0000000F    1C    00009B68
   00000001 0000000F    1C    0000A750
   00000001 00000010    1C    00000530
   00000001 00000010    1C    00001028
   00000001 00000010    1C    00003164
   00000001 00000010    1C    00006128
   00000001 00000011    1C    00000534
   00000001 00000011    1C    00000FF0
   00000001 00000011    1C    00002830
   00000001 00000011    1C    00005180
   00000001 00000011    1C    000060EC
   00000001 00000011    1C    00006618
   00000001 00000011    1C    00009824
   00000001 00000011    1C    0000A7AC
   00000001 00000011    1C    0000AE8C
   00000001 00000011    1C    0000B3D8
   00000001 00000012    1C    00000FFC
   00000001 00000013    1C    00001000
   00000001 00000013    1C    00001614
   00000001 00000013    1C    00002238
   00000001 00000013    1C    000027F8
   00000001 00000013    1C    00003154
   00000001 00000013    1C    00003628
   00000001 00000013    1C    0000513C
   00000001 00000013    1C    00006100
   00000001 00000013    1C    00009224
   00000001 00000013    1C    0000A784
   00000001 00000013    1C    0000B3E8
   00000001 00000014    1C    00001004
   00000001 00000014    1C    0000311C
   00000001 00000014    1C    0000362C
   00000001 00000014    1C    00005120
   00000001 00000014    1C    00006064
   00000001 00000014    1C    0000AE98
   00000001 00000015    1C    00001008
   00000001 00000015    1C    0000315C
   00000001 00000015    1C    00005114
   00000001 00000015    1C    0000612C
   00000001 00000015    1C    0000A788
   00000001 00000016    1C    0000100C
   00000001 00000016    1C    0000312C
   00000001 00000016    1C    00005144
   00000001 00000016    1C    0000610C
   00000001 00000016    1C    0000660C
   00000001 00000017    1C    00001010
1LINE     (LINE2193) (12:47) (15MAR04) Relocation Dictionary                                                                Page  178
   00000001 00000017    1C    00005124
   00000001 00000017    1C    00006094
   00000001 00000017    1C    000065F8
   00000001 00000017    1C    00009838
   00000001 00000017    1C    00009B74
   00000001 00000017    1C    0000A790
   00000001 00000017    1C    0000AE88
   00000001 00000018    1C    00001020
   00000001 00000018    1C    00005148
   00000001 00000018    1C    000060AC
   00000001 00000018    1C    00006610
   00000001 00000018    1C    0000A7B4
   00000001 00000019    1C    00001024
   00000001 00000019    1C    0000514C
   00000001 00000019    1C    000060B0
   00000001 00000019    1C    00006614
   00000001 00000019    1C    0000A7B8
   00000001 00000019    1C    0000AE94
   00000001 0000001A    1C    0000104C
   00000001 0000001A    1C    00003120
   00000001 0000001A    1C    00006090
   00000001 0000001A    1C    0000AE84
   00000001 0000001B    1C    00001050
   00000001 0000001B    1C    00003620
   00000001 0000001B    1C    00005154
   00000001 0000001B    1C    00006070
   00000001 0000001B    1C    00006604
   00000001 0000001B    1C    00009820
   00000001 0000001B    1C    0000A764
   00000001 0000001B    1C    0000AEA4
   00000001 0000001B    1C    0000B3C8
   00000001 0000001C    1C    00001058
   00000001 0000001C    1C    0000512C
   00000001 0000001D    1C    0000128C
   00000001 0000001D    1C    00003134
   00000001 0000001D    1C    0000511C
   00000001 0000001D    1C    00009B70
   00000001 0000001D    1C    0000A7BC
   00000001 0000001E    1C    00001294
   00000001 0000001E    1C    0000B3D0
   00000001 0000001F    1C    00002234
   00000001 0000001F    1C    00005188
   00000001 0000001F    1C    00006120
   00000001 00000020    1C    00002834
   00000001 00000021    1C    00002A08
   00000001 00000021    1C    00003424
   00000001 00000021    1C    0000560C
   00000001 00000021    1C    00005910
   00000001 00000021    1C    000069C4
   00000001 00000021    1C    00006ADC
   00000001 00000021    1C    00006BA4
   00000001 00000021    1C    00006D0C
   00000001 00000021    1C    000078F8
   00000001 00000021    1C    00007FEC
   00000001 00000021    1C    0000824C
   00000001 00000021    1C    00008418
   00000001 00000021    1C    00008610
   00000001 00000021    1C    0000AAA4
   00000001 00000021    1C    0000AB6C
1LINE     (LINE2193) (12:47) (15MAR04) Relocation Dictionary                                                                Page  179
   00000001 00000021    1C    0000B150
   00000001 00000022    1C    000033FC
   00000001 00000022    1C    00004C4C
   00000001 00000022    1C    00005CDC
   00000001 00000022    1C    00006D5C
   00000001 00000022    1C    00007920
   00000001 00000022    1C    0000AACC
   00000001 00000022    1C    0000AB94
   00000001 00000023    1C    00003624
   00000001 00000023    1C    0000517C
   00000001 00000023    1C    00006114
   00000001 00000023    1C    0000A7C8
   00000001 00000024    1C    00004CA0
   00000001 00000024    1C    00004DE0
   00000001 00000025    1C    00004CC8
   00000001 00000026    1C    00004CEC
   00000001 00000027    1C    000050C8
   00000001 00000028    1C    000050E8
   00000001 00000029    1C    000050F4
   00000001 0000002A    1C    000050F8
   00000001 0000002B    1C    00005104
   00000001 0000002C    1C    00005108
   00000001 0000002C    1C    00009230
   00000001 0000002D    1C    0000510C
   00000001 0000002D    1C    00009B7C
   00000001 0000002D    1C    0000A75C
   00000001 0000002E    1C    00005110
   00000001 0000002E    1C    000060FC
   00000001 0000002F    1C    00005118
   00000001 0000002F    1C    00006104
   00000001 0000002F    1C    0000A754
   00000001 00000030    1C    00005128
   00000001 00000030    1C    000060A4
   00000001 00000031    1C    00005130
   00000001 00000031    1C    000060B8
   00000001 00000031    1C    00009840
   00000001 00000031    1C    0000A798
   00000001 00000032    1C    00005134
   00000001 00000032    1C    000060F0
   00000001 00000032    1C    000065EC
   00000001 00000032    1C    00009844
   00000001 00000033    1C    00005178
   00000001 00000034    1C    000052B0
   00000001 00000034    1C    00005634
   00000001 00000034    1C    00005938
   00000001 00000035    1C    00006068
   00000001 00000035    1C    0000AE68
   00000001 00000036    1C    00006080
   00000001 00000037    1C    00006088
   00000001 00000038    1C    0000608C
   00000001 00000039    1C    000060A8
   00000001 00000039    1C    0000982C
   00000001 00000039    1C    0000A78C
   00000001 0000003A    1C    000060BC
   00000001 0000003B    1C    000060F4
   00000001 0000003B    1C    000065F0
   00000001 0000003B    1C    00009848
   00000001 0000003C    1C    000065F4
   00000001 0000003C    1C    0000984C
1LINE     (LINE2193) (12:47) (15MAR04) Relocation Dictionary                                                                Page  180
   00000001 0000003D    1C    000069EC
   00000001 0000003D    1C    00006A14
   00000001 0000003D    1C    00006CBC
   00000001 0000003D    1C    0000A340
   00000001 0000003E    1C    00006A3C
   00000001 0000003E    1C    00006C1C
   00000001 0000003E    1C    00008014
   00000001 0000003E    1C    00008440
   00000001 0000003F    1C    00006EC8
   00000001 0000003F    1C    000070D0
   00000001 0000003F    1C    00009994
   00000001 0000003F    1C    00009DE8
   00000001 0000003F    1C    0000A434
   00000001 0000003F    1C    0000AB20
   00000001 0000003F    1C    0000ABE8
   00000001 0000003F    1C    0000AC60
   00000001 00000040    1C    00006F64
   00000001 00000040    1C    00006F8C
   00000001 00000041    1C    00007B18
   00000001 00000042    1C    00007B1C
   00000001 00000043    1C    00007B34
   00000001 00000044    1C    00007B64
   00000001 00000044    1C    0000A7C0
   00000001 00000045    1C    00008274
   00000001 00000046    1C    0000921C
   00000001 00000047    1C    00009220
   00000001 00000048    1C    00009228
   00000001 00000048    1C    00009B78
   00000001 00000048    1C    0000AE90
   00000001 00000049    1C    00009818
   00000001 0000004A    1C    00009830
   00000001 0000004B    1C    00009834
   00000001 0000004C    1C    0000A7A8
   00000001 0000004D    1C    0000A7CC
   00000001 0000004E    1C    0000B3DC

1LINE     (LINE2193) (12:47) (15MAR04) Ordinary Symbol and Literal Cross Reference                                          Page  181
-Symbol   Length   Value     Id    R Type   Defn References                                  HLASM R4.0  2004/03/15 12.47
0$$$@R0        1 00000000 FFFFFFFE     J     705  1016
 $$$@R10       1 00000000 FFFFFFF4     J     835  1080
 $$$@R11       1 00000000 FFFFFFF3     J     848  1093
 $$$@R12       1 00000000 FFFFFFF2     J     861  1106
 $$$@R13       1 00000000 FFFFFFF1     J     874  1119
 $$$@R14       1 00000000 FFFFFFF0     J     887  1132
 $$$@R7        1 00000000 FFFFFFF7     J     796  1029
 $$$@R8        1 00000000 FFFFFFF6     J     809  1042   1054
 $$$@R9        1 00000000 FFFFFFF5     J     822  1067
 $$$C1WYLLINE
               1 00000018 00000001     J    6625  6627   6682
 $$$C10WYLLINE
               1 000051D4 00000001     J   27744 27746  27982  28190  28737  29413  29682  29720  30227
 $$$C11WYLLINE
               1 00006280 00000001     J   31812 31814  31841
 $$$C12WYLLINE
               1 00006635 00000001     J   32629 32631  32816
 $$$C13WYLLINE
               1 000069A2 00000001     J   33422 33424
 $$$C14WYLLINE
               1 00007150 00000001     J   34186 34188  34519  35612  35732  35855
 $$$C15WYLLINE
               1 00007C68 00000001     J   37181 37183
 $$$C16WYLLINE
               1 00008550 00000001     J   39313 39315  39884
 $$$C17WYLLINE
               1 0000897A 00000001     J   40450 40452  40712  40772  40789  41271  41820  41837  41899  41916  42061
                                                 42078  42140  42157  42306  42364  42915  43265  43308  43355
 $$$C18WYLLINE
               1 000093A4 00000001     J   43435 43437  43525  43572  43763  43913  44086  44278
 $$$C19WYLLINE
               1 0000987C 00000001     J   44830 44832
 $$$C2WYLLINE
               1 0000058B 00000001     J    8187  8189   8215   8238   8346   8623   9091   9297   9340   9379   9415
                                                  9548   9777   9801  10602  11247  11337  11367  11420  11491  11557
 $$$C20WYLLINE
               1 00009B88 00000001     J   45742 45744  45798  46757  46801  46867  47030  47491  48867  48908
 $$$C21WYLLINE
               1 0000A852 00000001     J   49022 49024  49045
 $$$C22WYLLINE
               1 0000AEEC 00000001     J   50230 50232
 $$$C23WYLLINE
               1 0000B442 00000001     J   51506 51508
 $$$C24WYLLINE
               1 0000B448 00000001     J   51523 51525
 $$$C3WYLLINE
               1 0000116E 00000001     J   12209 12211
 $$$C4WYLLINE
               1 000012AD 00000001     J   12718 12720  12751  13346
 $$$C5WYLLINE
               1 000016AE 00000001     J   14198 14200  16161  16437  16532  16594  16632  16668  17141  17330  17918
                                                 18360
 $$$C6WYLLINE
               1 00002362 00000001     J   18426 18428  18786  18839  18885  19069  19203  19242
 $$$C7WYLLINE
1LINE     (LINE2193) (12:47) (15MAR04) Ordinary Symbol and Literal Cross Reference                                          Page  182
               1 0000293C 00000001     J   20301 20303  21294  22132
 $$$C8WYLLINE
               1 000031CC 00000001     J   22560 22562  23153
 $$$C9WYLLINE
               1 000036B6 00000001     J   23878 23880  24168
 $$$D10WYLLINE
               1 0000626D 00000001     J   27745 28179  29671  29709
 $$$D14WYLLINE
               1 00007C4F 00000001     J   34187 34508  35601  35721  35844
 $$$D17WYLLINE
               1 0000933E 00000001     J   40451 40701  40761  40778  41260  41809  41826  41888  41905  42050  42067
                                                 42129  42146  42295  42353  43254  43297  43344
 $$$D18WYLLINE
               1 00009858 00000001     J   43436 43514  43561  43752  43902  44075  44267
 $$$D2WYLLINE
               1 0000110E 00000001     J    8188  8612   9080   9286   9329   9368   9404   9537   9766   9790  10591
                                                 11236  11326  11356  11409  11480  11546
 $$$D20WYLLINE
               1 0000A82E 00000001     J   45743 46746  46790  46856  47019  48856  48897
 $$$D4WYLLINE
               1 000016A8 00000001     J   12719 13335
 $$$D5WYLLINE
               1 00002326 00000001     J   14199 16150  16426  16521  16583  16621  16657  17130  17319  17907  18349
 $$$D6WYLLINE
               1 00002917 00000001     J   18427 18775  18828  18874  19058  19192  19231
 $$$D7WYLLINE
               1 000031BF 00000001     J   20302 21283  22121
 $$$D8WYLLINE
               1 000036B0 00000001     J   22561 23142
 $$$RCHWA      1 00000000 FFFFFFDD     J   32651 32815  32815
 $$$RCOLWA
               1 00000000 FFFFFFE3     J   24073 24167  24167
 $$$RCP        1 00000000 FFFFFFEC     J    2483  4743   6217   6217
 $$$RCV        1 00000000 FFFFFFEE     J    1208  2393   2393
 $$$RDEV       1 00000000 FFFFFFEB     J    4697  4742   4742
 $$$REDWA      1 00000000 FFFFFFE4     J   12737 12750  12750
 $$$REXCHWA
               1 00000000 FFFFFFD8     J   49030 49044  49044
 $$$RGETIWA
               1 00000000 FFFFFFDB     J   42898 42914  42914
 $$$RIMWA      1 00000000 FFFFFFE2     J   27951 27981  27981
 $$$RINSWA
               1 00000000 FFFFFFDF     J   30193 30226  30226
 $$$RJCB       1 00000000 FFFFFFE9     J    6335  6609   6609
 $$$RJOINWA
               1 00000000 FFFFFFD9     J   47454 47490  47490
 $$$RMETPDATA
               1 00000000 FFFFFFE6     J    8222  8237   8237
 $$$RMETSPLIT
               1 00000000 FFFFFFE7     J    8199  8214   8214
 $$$RMETWA
               1 00000000 FFFFFFE5     J    8247  8345   8345
 $$$RMODWA
               1 00000000 FFFFFFE8     J    6639  6681   6681
 $$$RNSCNCB
               1 00000000 FFFFFFED     J    2404  2477   2477
 $$$RPUTLWA
               1 00000000 FFFFFFE1     J   28723 28736  28736
 $$$RREPWA
1LINE     (LINE2193) (12:47) (15MAR04) Ordinary Symbol and Literal Cross Reference                                          Page  183
               1 00000000 FFFFFFDE     J   31827 31840  31840
 $$$RSETIWA
               1 00000000 FFFFFFDC     J   39867 39883  39883
 $$$RSPLITWA
               1 00000000 FFFFFFDA     J   45750 45797  45797
 $$$RTABLWA
               1 00000000 FFFFFFE0     J   29396 29412  29412
 $$$RTTYPE
               1 00000000 FFFFFFEA     J    6228  6329   6329
 $$$SEGCB0
               4 00000050 FFFFFFEC     F    2514  2600   2600
 $$$Z17        4 000091C0 00000001     F   43401 40881  40946  41170  41299  42805
 $$$Z18        4 000097F4 00000001     F   44809 43698
 $$$1000F      2 000068BE 00000001     H   33210 33128B
 $$$1001F      2 000068DC 00000001     H   33262 33223B
 $$$1002F      2 000068DC 00000001     H   33258 33243B
 $$$1003F      2 000068EA 00000001     H   33287 33275B
 $$$1005F      2 00006930 00000001     H   33369 33335B
 $$$1007       1 0000091C 00000001 A   U   33394 33391  33393
 $$$1009B      1 0000716A 00000001     X   34220 34227U
 $$$1010       1 00000050 00000001 A   U   34260 34257  34259
 $$$1012B      1 0000719E 00000001     X   34287 34294U
 $$$1013F      2 000071CC 00000001     H   34364 34324B
 $$$1014F      2 000071D6 00000001     H   34384 34371B
 $$$1015       1 00000050 00000001 A   U   34416 34413  34415
 $$$1017B      1 00007218 00000001     X   34443 34450U
 $$$1018F      2 0000723A 00000001     H   34499 34486B
 $$$1019       6 00007C50 00000001     I   34514 34506X
 $$$1020       6 00007C50 00000001     I   34513 34514  34514
 $$$1021       1 00000050 00000001 A   U   34552 34549  34551
 $$$1023B      1 00007288 00000001     X   34579 34586U
 $$$1024F      2 000072A6 00000001     H   34629 34616B
 $$$1025       1 00000050 00000001 A   U   34661 34658  34660
 $$$1027B      1 000072E8 00000001     X   34688 34695U
 $$$1028F      2 00007316 00000001     H   34750 34718B
 $$$1029F      2 00007316 00000001     H   34746 34733B
 $$$1030       1 00000050 00000001 A   U   34788 34785  34787
 $$$1032B      1 00007354 00000001     X   34815 34822U
 $$$1033F      2 00007382 00000001     H   34877 34845B
 $$$1034F      2 00007382 00000001     H   34873 34860B
 $$$1035       1 00000050 00000001 A   U   34915 34912  34914
 $$$1037B      1 000073C0 00000001     X   34942 34949U
 $$$1038       1 00000050 00000001 A   U   34988 34985  34987
 $$$104F       2 00000682 00000001     H    8819  8809B
 $$$1040B      1 000073F4 00000001     X   35021 35028U
 $$$1041       1 00000050 00000001 A   U   35061 35058  35060
 $$$1043B      1 00007428 00000001     X   35088 35095U
 $$$1044       1 00000050 00000001 A   U   35128 35125  35127
 $$$1046B      1 00007458 00000001     X   35155 35162U
 $$$1047       1 00000050 00000001 A   U   35195 35192  35194
 $$$1049B      1 00007488 00000001     X   35228 35235U
 $$$1050       1 00000050 00000001 A   U   35268 35265  35267
 $$$1052B      1 000074BC 00000001     X   35296 35303U
 $$$1053F      2 000074EA 00000001     H   35363 35351B
 $$$1054       1 00000050 00000001 A   U   35382 35379  35381
 $$$1056B      1 00007516 00000001     X   35410 35417U
 $$$1057F      2 00007540 00000001     H   35480 35441B
 $$$1058F      2 00007556 00000001     H   35507 35495B
 $$$1059       1 00000050 00000001 A   U   35526 35523  35525
1LINE     (LINE2193) (12:47) (15MAR04) Ordinary Symbol and Literal Cross Reference                                          Page  184
 $$$106F       2 00000850 00000001     H    9558  8915B  8928B
 $$$106S       2 000006BC 00000001     H    8904  9557B
 $$$1061B      1 00007582 00000001     X   35554 35561U
 $$$1062F      2 0000759E 00000001     H   35617 35593B
 $$$1063       6 00007C56 00000001     I   35607 35599X
 $$$1064       6 00007C56 00000001     I   35606 35607  35607
 $$$1065       1 00000050 00000001 A   U   35645 35642  35644
 $$$1067B      1 000075DA 00000001     X   35673 35680U
 $$$1068F      2 000075FC 00000001     H   35737 35713B
 $$$1069       6 00007C5C 00000001     I   35727 35719X
 $$$1070       6 00007C5C 00000001     I   35726 35727  35727
 $$$1071       1 00000050 00000001 A   U   35768 35765  35767
 $$$1073B      1 0000763C 00000001     X   35796 35803U
 $$$1074F      2 0000765E 00000001     H   35860 35836B
 $$$1075       6 00007C62 00000001     I   35850 35842X
 $$$1076       6 00007C62 00000001     I   35849 35850  35850
 $$$1077       1 00000050 00000001 A   U   35891 35888  35890
 $$$1079B      1 0000769E 00000001     X   35919 35926U
 $$$1080       1 00000050 00000001 A   U   35959 35956  35958
 $$$1082B      1 000076CE 00000001     X   35987 35994U
 $$$1083       1 00000050 00000001 A   U   36027 36024  36026
 $$$1085B      1 000076FE 00000001     X   36055 36062U
 $$$1086       1 00000050 00000001 A   U   36103 36100  36102
 $$$1088B      1 00007740 00000001     X   36133 36140U
 $$$1089       1 00000050 00000001 A   U   36173 36170  36172
 $$$109F       2 00000794 00000001     H    9237  8968B
 $$$1091B      1 00007774 00000001     X   36200 36207U
 $$$1092       1 00000050 00000001 A   U   36240 36237  36239
 $$$1094B      1 000077B8 00000001     X   36267 36274U
 $$$1095B      4 00007828 00000001     I   36351 36403
 $$$1095F      2 0000788C 00000001     H   36398 36337B 36351B 36400
 $$$1096B      4 00007820 00000001     I   36337 36401
 $$$1097E      2 00007890 00000001     H   36410 36402  36404
 $$$1097F      2 000078C6 00000001     H   36471 36406B
 $$$1098F      2 000078BE 00000001     H   36458 36426B
 $$$1099F      2 000078BE 00000001     H   36454 36441B
 $$$110F       2 0000070C 00000001     H    9024  8996B  9008B
 $$$110S       2 000006F2 00000001     H    8986  9023B
 $$$1100       1 00000050 00000001 A   U   36490 36487  36489
 $$$1102B      1 0000796A 00000001     X   36563 36570U
 $$$1103       1 00000050 00000001 A   U   36603 36600  36602
 $$$1105B      1 0000799E 00000001     X   36630 36637U
 $$$1106       1 00000050 00000001 A   U   36667 36664  36666
 $$$1108B      1 000079D0 00000001     X   36698 36705U
 $$$1109       1 00000050 00000001 A   U   36737 36734  36736
 $$$1111B      1 000079FC 00000001     X   36764 36771U
 $$$1112       1 00000050 00000001 A   U   36803 36800  36802
 $$$1114B      1 00007A28 00000001     X   36830 36837U
 $$$1115       1 00000050 00000001 A   U   36878 36875  36877
 $$$1117B      1 00007A58 00000001     X   36905 36912U
 $$$1118       1 00000050 00000001 A   U   36955 36952  36954
 $$$1120B      1 00007A8C 00000001     X   36982 36989U
 $$$1121       1 00000050 00000001 A   U   37017 37014  37016
 $$$1123B      1 00007ABC 00000001     X   37045 37052U
 $$$1124F      2 00007AD0 00000001     H   37086 37071B
 $$$1125F      2 00007AEE 00000001     H   37119 37104B
 $$$1126       1 00000050 00000001 A   U   37141 37138  37140
 $$$1128B      1 00007C82 00000001     X   37233 37240U
 $$$1129B      4 00007CF0 00000001     I   37326 37340
1LINE     (LINE2193) (12:47) (15MAR04) Ordinary Symbol and Literal Cross Reference                                          Page  185
 $$$1129F      2 00007CF8 00000001     H   37335 37326B 37339
 $$$113F       2 00000722 00000001     H    9052  9038B
 $$$1130B      4 00007D00 00000001     I   37358 37547
 $$$1130E      2 00007CFC 00000001     H   37347 37341
 $$$1130F      2 00007DC2 00000001     H   37542 37343B 37358B 37546
 $$$1132F      2 00007D18 00000001     H   37400 37388B
 $$$1132T      2 00007D12 00000001     H   37391 37376B
 $$$1134F      2 00007D80 00000001     H   37460 37451B
 $$$1135F      2 00007DC2 00000001     H   37538 37473B
 $$$1136F      2 00007DB6 00000001     H   37524 37492B
 $$$1137F      2 00007DB6 00000001     H   37520 37507B
 $$$1138E      2 00007DC6 00000001     H   37554 37548
 $$$1138F      2 00007DCE 00000001     H   37573 37550B 37565B
 $$$114F       2 00000740 00000001     H    9096  9069B
 $$$1140B      4 00007E2A 00000001     I   37627 37641
 $$$1140F      2 00007E32 00000001     H   37636 37627B 37640
 $$$1141B      4 00007E3A 00000001     I   37659 37851
 $$$1141E      2 00007E36 00000001     H   37648 37642
 $$$1141F      2 00007EFE 00000001     H   37846 37644B 37659B 37850
 $$$1143F      2 00007E54 00000001     H   37704 37692B
 $$$1143T      2 00007E4E 00000001     H   37695 37680B
 $$$1145F      2 00007EBC 00000001     H   37764 37755B
 $$$1146F      2 00007EFE 00000001     H   37842 37777B
 $$$1147F      2 00007EF2 00000001     H   37828 37796B
 $$$1148F      2 00007EF2 00000001     H   37824 37811B
 $$$1149E      2 00007F02 00000001     H   37858 37852
 $$$1149F      2 00007F0A 00000001     H   37877 37854B 37869B
 $$$115        6 00001114 00000001     I    9086  9078X
 $$$1151B      4 00007F66 00000001     I   37931 37945
 $$$1151F      2 00007F6E 00000001     H   37940 37931B 37944
 $$$1152B      4 00007F76 00000001     I   37963 38058
 $$$1152E      2 00007F72 00000001     H   37952 37946
 $$$1152F      2 00007FAA 00000001     H   38053 37948B 37963B 38057
 $$$1154F      2 00007F98 00000001     H   38022 38010B
 $$$1154T      2 00007F92 00000001     H   38013 37984B 37998B
 $$$1157F      2 00007FA0 00000001     H   38045 38032B
 $$$1158E      2 00007FAE 00000001     H   38065 38059
 $$$1158F      2 00007FBC 00000001     H   38088 38061B 38076B
 $$$116        6 00001114 00000001     I    9085  9086   9086
 $$$1160       1 00000050 00000001 A   U   38109 38106  38108
 $$$1162B      1 00008086 00000001     X   38199 38206U
 $$$1163       1 00000050 00000001 A   U   38233 38230  38232
 $$$1165B      1 000080B2 00000001     X   38260 38267U
 $$$1166F      2 000080E0 00000001     H   38322 38290B
 $$$1167F      2 000080E0 00000001     H   38318 38305B
 $$$1168       1 00000050 00000001 A   U   38350 38347  38349
 $$$117F       2 00000764 00000001     H    9148  9120B  9132B
 $$$117S       2 0000074A 00000001     H    9110  9147B
 $$$1170B      1 00008114 00000001     X   38377 38384U
 $$$1171       1 00000050 00000001 A   U   38414 38411  38413
 $$$1173B      1 00008146 00000001     X   38441 38448U
 $$$1174       1 00000050 00000001 A   U   38475 38472  38474
 $$$1176B      1 00008172 00000001     X   38508 38515U
 $$$1177F      2 00008198 00000001     H   38576 38536B
 $$$1178F      2 00008198 00000001     H   38572 38557B
 $$$1179       1 00000050 00000001 A   U   38595 38592  38594
 $$$1181B      1 000081C0 00000001     X   38636 38643U
 $$$1182       1 00000050 00000001 A   U   38720 38717  38719
 $$$1184B      1 000082BE 00000001     X   38795 38802U
1LINE     (LINE2193) (12:47) (15MAR04) Ordinary Symbol and Literal Cross Reference                                          Page  186
 $$$1185       1 00000050 00000001 A   U   38829 38826  38828
 $$$1187B      1 000082EA 00000001     X   38856 38863U
 $$$1188F      2 00008318 00000001     H   38918 38886B
 $$$1189F      2 00008318 00000001     H   38914 38901B
 $$$1190       1 00000050 00000001 A   U   38946 38943  38945
 $$$1192B      1 0000834C 00000001     X   38975 38982U
 $$$1193F      2 0000835A 00000001     H   39015 39003B
 $$$1194       1 00000050 00000001 A   U   39110 39107  39109
 $$$1196B      1 0000848A 00000001     X   39183 39190U
 $$$1197       1 00000050 00000001 A   U   39223 39220  39222
 $$$1199B      1 000084BE 00000001     X   39250 39257U
 $$$1200       1 00000050 00000001 A   U   39286 39283  39285
 $$$1202B      1 0000856A 00000001     X   39356 39363U
 $$$1203F      2 000085D0 00000001     H   39434 39421B
 $$$1204F      2 000085DE 00000001     H   39457 39447B
 $$$1205       1 00000050 00000001 A   U   39477 39474  39476
 $$$1207B      1 000086AA 00000001     X   39567 39574U
 $$$1208       1 00000050 00000001 A   U   39601 39598  39600
 $$$121F       2 00000784 00000001     H    9210  9182B  9194B
 $$$121S       2 0000076A 00000001     H    9172  9209B
 $$$1210B      1 000086D6 00000001     X   39628 39635U
 $$$1211F      2 00008704 00000001     H   39690 39658B
 $$$1212F      2 00008704 00000001     H   39686 39673B
 $$$1213       1 00000050 00000001 A   U   39718 39715  39717
 $$$1215B      1 00008738 00000001     X   39745 39752U
 $$$1216       1 00000050 00000001 A   U   39782 39779  39781
 $$$1218B      1 0000876A 00000001     X   39809 39816U
 $$$1219       1 00000050 00000001 A   U   39846 39843  39845
 $$$1221B      1 0000879C 00000001     X   39912 39919U
 $$$1222F      2 000087D2 00000001     H   40015 39976B 40004B
 $$$1222S      2 000087B6 00000001     H   39967 40014B
 $$$1222T      2 000087CC 00000001     H   40007 39993B
 $$$1226F      2 000087E0 00000001     H   40042 40026B
 $$$1227F      2 00008800 00000001     H   40096 40059B 40072B 40085B
 $$$1227S      2 000087E4 00000001     H   40050 40095B
 $$$1231F      2 00008840 00000001     H   40188 40115B
 $$$1232F      2 00008840 00000001     H   40184 40172B
 $$$1232T      2 00008834 00000001     H   40175 40135B 40148B 40161B
 $$$1236F      2 00008854 00000001     H   40229 40205B 40218B
 $$$1236S      2 00008840 00000001     H   40196 40228B
 $$$1239F      2 0000889E 00000001     H   40282 40267B
 $$$1240F      2 000088C6 00000001     H   40321 40305B
 $$$1240S      2 000088AA 00000001     H   40298 40320B
 $$$1242F      2 000088D0 00000001     H   40343 40334B
 $$$1243B      4 000088E6 00000001     I   40362 40383
 $$$1243F      2 00008902 00000001     H   40380 40362B 40382
 $$$1244E      2 00008906 00000001     H   40390 40384
 $$$1244F      2 00008912 00000001     H   40401 40386B
 $$$1245       1 00000060 00000001 A   U   40427 40424  40426
 $$$1247B      1 00008994 00000001     X   40489 40496U
 $$$1248F      2 000089C6 00000001     H   40555 40534B
 $$$1248S      2 000089AA 00000001     H   40528 40554B
 $$$125F       2 000007A0 00000001     H    9260  9250B
 $$$1251       1 00000050 00000001 A   U   40609 40606  40608
 $$$1253B      1 00008A02 00000001     X   40641 40648U
 $$$1254F      2 00008A2C 00000001     H   40717 40690B
 $$$1255       6 0000933E 00000001     I   40707 40699X
 $$$1256       6 0000933E 00000001     I   40706 40707  40707
 $$$1257F      2 00008A5C 00000001     H   40798 40730B
1LINE     (LINE2193) (12:47) (15MAR04) Ordinary Symbol and Literal Cross Reference                                          Page  187
 $$$1258F      2 00008A5C 00000001     H   40794 40750B
 $$$1259       6 00009344 00000001     I   40767 40759X
 $$$126F       2 000007BA 00000001     H    9303  9272B
 $$$1260       6 00009344 00000001     I   40766 40767  40767
 $$$1261       6 0000934A 00000001     I   40784 40776X
 $$$1262       6 0000934A 00000001     I   40783 40784  40784
 $$$1263F      2 00008A7C 00000001     H   40841 40811B
 $$$1264F      2 00008A78 00000001     H   40836 40827B
 $$$1265F      2 00008B2E 00000001     H   41039 40864B
 $$$1266B      4 00008AA2 00000001     I   40882 40920
 $$$1266F      2 00008AC2 00000001     H   40916 40882B 40919
 $$$1267F      2 00008ABE 00000001     H   40911 40902B
 $$$1268E      2 00008AC6 00000001     H   40927 40921
 $$$1268F      2 00008B0A 00000001     H   41003 40923B
 $$$1269B      4 00008ADA 00000001     I   40947 40961
 $$$1269F      2 00008AEA 00000001     H   40958 40947B 40960
 $$$127        6 0000111A 00000001     I    9292  9284X
 $$$1270E      2 00008AEE 00000001     H   40968 40962
 $$$1270F      2 00008B0A 00000001     H   40999 40964B
 $$$1271F      2 00008B06 00000001     H   40994 40982B
 $$$1272F      2 00008B2E 00000001     H   41035 41024B
 $$$1273       1 00000050 00000001 A   U   41058 41055  41057
 $$$1275B      1 00008B56 00000001     X   41099 41106U
 $$$1276B      4 00008B5A 00000001     I   41129 41193
 $$$1276F      2 00008B92 00000001     H   41187 41129B 41192
 $$$1278F      2 00008B8E 00000001     H   41182 41171B
 $$$1279E      2 00008B96 00000001     H   41200 41194
 $$$1279F      2 00008C18 00000001     H   41377 41196B 41209B
 $$$128        6 0000111A 00000001     I    9291  9292   9292
 $$$1281F      2 00008C14 00000001     H   41372 41231B
 $$$1281S      2 00008BAC 00000001     H   41224 41371B
 $$$1283F      2 00008BC0 00000001     H   41256 41247B
 $$$1284       6 00009350 00000001     I   41266 41258X
 $$$1285       6 00009350 00000001     I   41265 41266  41266
 $$$1286F      2 00008C0C 00000001     H   41366 41279B
 $$$1287F      2 00008C08 00000001     H   41361 41300B
 $$$129F       2 000007D6 00000001     H    9345  9317B
 $$$1290       1 00000050 00000001 A   U   41411 41408  41410
 $$$1292B      1 00008C4E 00000001     X   41444 41451U
 $$$1293B      4 00008C5A 00000001     I   41489 41504
 $$$1293F      2 00008C5E 00000001     H   41497 41477B 41489B 41501
 $$$1294B      4 00008C52 00000001     I   41477 41502
 $$$1295B      4 00008C66 00000001     I   41520 41537
 $$$1295E      2 00008C62 00000001     H   41511 41503  41505
 $$$1295F      2 00008C70 00000001     H   41532 41507B 41520B 41536
 $$$1297B      4 00008C78 00000001     I   41553 41570
 $$$1297E      2 00008C74 00000001     H   41544 41538
 $$$1297F      2 00008C82 00000001     H   41565 41540B 41553B 41569
 $$$1299B      4 00008C8A 00000001     I   41586 41603
 $$$1299E      2 00008C86 00000001     H   41577 41571
 $$$1299F      2 00008C94 00000001     H   41598 41573B 41586B 41602
 $$$130        6 00001120 00000001     I    9335  9327X
 $$$1301B      4 00008C9C 00000001     I   41619 41636
 $$$1301E      2 00008C98 00000001     H   41610 41604
 $$$1301F      2 00008CA6 00000001     H   41631 41606B 41619B 41635
 $$$1303B      4 00008CAE 00000001     I   41652 41668
 $$$1303E      2 00008CAA 00000001     H   41643 41637
 $$$1303F      2 00008CB8 00000001     H   41664 41639B 41652B 41667
 $$$1305E      2 00008CBC 00000001     H   41675 41669
1LINE     (LINE2193) (12:47) (15MAR04) Ordinary Symbol and Literal Cross Reference                                          Page  188
 $$$1305F      2 00008CCC 00000001     H   41684 41671B
 $$$1306       1 00000050 00000001 A   U   41703 41700  41702
 $$$1308B      1 00008CF4 00000001     X   41734 41741U
 $$$1309F      2 00008D42 00000001     H   41848 41764B
 $$$131        6 00001120 00000001     I    9334  9335   9335
 $$$1310F      2 00008D24 00000001     H   41802 41787B
 $$$1311       6 00009356 00000001     I   41815 41807X
 $$$1312       6 00009356 00000001     I   41814 41815  41815
 $$$1313       6 0000935C 00000001     I   41832 41824X
 $$$1314       6 0000935C 00000001     I   41831 41832  41832
 $$$1315F      2 00008D78 00000001     H   41925 41863B 41875B
 $$$1317       6 00009362 00000001     I   41894 41886X
 $$$1318       6 00009362 00000001     I   41893 41894  41894
 $$$1319       6 00009368 00000001     I   41911 41903X
 $$$132F       2 000007E8 00000001     H    9384  9360B
 $$$1320       6 00009368 00000001     I   41910 41911  41911
 $$$1321       1 00000050 00000001 A   U   41944 41941  41943
 $$$1323B      1 00008DA0 00000001     X   41975 41982U
 $$$1324F      2 00008DEE 00000001     H   42089 42005B
 $$$1325F      2 00008DD0 00000001     H   42043 42028B
 $$$1326       6 0000936E 00000001     I   42056 42048X
 $$$1327       6 0000936E 00000001     I   42055 42056  42056
 $$$1328       6 00009374 00000001     I   42073 42065X
 $$$1329       6 00009374 00000001     I   42072 42073  42073
 $$$133        6 00001126 00000001     I    9374  9366X
 $$$1330F      2 00008E24 00000001     H   42166 42104B 42116B
 $$$1332       6 0000937A 00000001     I   42135 42127X
 $$$1333       6 0000937A 00000001     I   42134 42135  42135
 $$$1334       6 00009380 00000001     I   42152 42144X
 $$$1335       6 00009380 00000001     I   42151 42152  42152
 $$$1336       1 00000050 00000001 A   U   42185 42182  42184
 $$$1338B      1 00008E4C 00000001     X   42216 42223U
 $$$1339F      2 00008E7C 00000001     H   42288 42246B
 $$$134        6 00001126 00000001     I    9373  9374   9374
 $$$1340F      2 00008E7C 00000001     H   42284 42269B
 $$$1341       6 00009386 00000001     I   42301 42293X
 $$$1342       6 00009386 00000001     I   42300 42301  42301
 $$$1343F      2 00008EC0 00000001     H   42373 42328B 42340B
 $$$1345       6 0000938C 00000001     I   42359 42351X
 $$$1346       6 0000938C 00000001     I   42358 42359  42359
 $$$1347       1 00000050 00000001 A   U   42400 42397  42399
 $$$1349B      1 00008EF6 00000001     X   42428 42435U
 $$$135F       2 000007F6 00000001     H    9420  9396B
 $$$1350       1 00000050 00000001 A   U   42461 42458  42460
 $$$1352B      1 00008F1E 00000001     X   42492 42499U
 $$$1353F      2 00008F56 00000001     H   42587 42520B
 $$$1354F      2 00008F42 00000001     H   42555 42540B
 $$$1355F      2 00008F56 00000001     H   42583 42568B
 $$$1356F      2 00008FFA 00000001     H   42776 42632B
 $$$1356T      2 00008F82 00000001     H   42635 42619B
 $$$1358F      2 00008FC8 00000001     H   42721 42647B
 $$$1359F      2 00008FC4 00000001     H   42711 42684B
 $$$136        6 0000112C 00000001     I    9410  9402X
 $$$1360F      2 00008FFA 00000001     H   42772 42757B
 $$$1360T      2 00008FEE 00000001     H   42760 42744B
 $$$1362F      2 00009052 00000001     H   42868 42806B
 $$$1363F      2 0000903E 00000001     H   42836 42826B
 $$$1364F      2 0000904E 00000001     H   42863 42850B
 $$$1365       1 00000050 00000001 A   U   42887 42884  42886
1LINE     (LINE2193) (12:47) (15MAR04) Ordinary Symbol and Literal Cross Reference                                          Page  189
 $$$1367B      1 0000907A 00000001     X   42944 42951U
 $$$1368F      2 000090A4 00000001     H   43018 43003B
 $$$1368T      2 00009098 00000001     H   43006 42992B
 $$$137        6 0000112C 00000001     I    9409  9410   9410
 $$$1370F      2 000090BC 00000001     H   43051 43039B
 $$$1370S      2 000090AE 00000001     H   43031 43050B
 $$$1372B      4 000090CE 00000001     I   43070 43085
 $$$1372F      2 000090D8 00000001     H   43081 43070B 43084
 $$$1373B      4 000090E0 00000001     I   43103 43118
 $$$1373E      2 000090DC 00000001     H   43092 43086
 $$$1373F      2 000090EA 00000001     H   43114 43088B 43103B 43117
 $$$1375B      4 000090F2 00000001     I   43136 43151
 $$$1375E      2 000090EE 00000001     H   43125 43119
 $$$1375F      2 000090FC 00000001     H   43147 43121B 43136B 43150
 $$$1377E      2 00009100 00000001     H   43158 43152
 $$$1377F      2 0000910E 00000001     H   43180 43154B 43169B
 $$$1379B      4 0000911E 00000001     I   43201 43213
 $$$1379F      2 00009126 00000001     H   43210 43201B 43212
 $$$138F       2 00000824 00000001     H    9507  9436B
 $$$1380E      2 0000912A 00000001     H   43220 43214
 $$$1380F      2 00009132 00000001     H   43227 43216B
 $$$1381F      2 0000914A 00000001     H   43270 43243B
 $$$1382       6 00009392 00000001     I   43260 43252X
 $$$1383       6 00009392 00000001     I   43259 43260  43260
 $$$1384F      2 0000916A 00000001     H   43313 43286B
 $$$1385       6 00009398 00000001     I   43303 43295X
 $$$1386       6 00009398 00000001     I   43302 43303  43303
 $$$1387F      2 0000919A 00000001     H   43360 43333B
 $$$1388       6 0000939E 00000001     I   43350 43342X
 $$$1389       6 0000939E 00000001     I   43349 43350  43350
 $$$139F       2 0000081C 00000001     H    9488  9477B
 $$$1390       1 0000006C 00000001 A   U   43391 43388  43390
 $$$1392B      1 000093BE 00000001     X   43470 43477U
 $$$1393F      2 000093E0 00000001     H   43532 43503B
 $$$1394       6 00009858 00000001     I   43520 43512X
 $$$1395       6 00009858 00000001     I   43519 43520  43520
 $$$1396F      2 0000940C 00000001     H   43579 43550B
 $$$1397       6 0000985E 00000001     I   43567 43559X
 $$$1398       6 0000985E 00000001     I   43566 43567  43567
 $$$1399F      2 00009422 00000001     H   43604 43595B
 $$$140F       2 0000084C 00000001     H    9553  9529B
 $$$1400       1 00000050 00000001 A   U   43636 43633  43635
 $$$1402B      1 00009452 00000001     X   43668 43675U
 $$$1403B      4 00009458 00000001     I   43699 43716
 $$$1403F      2 00009462 00000001     H   43711 43699B 43715
 $$$1404E      2 00009466 00000001     H   43723 43717
 $$$1404F      2 00009494 00000001     H   43774 43719B
 $$$1405F      2 00009494 00000001     H   43770 43741B
 $$$1406       6 00009864 00000001     I   43758 43750X
 $$$1407       6 00009864 00000001     I   43757 43758  43758
 $$$1408       1 00000050 00000001 A   U   43793 43790  43792
 $$$141        6 00001132 00000001     I    9543  9535X
 $$$1410B      1 000094BC 00000001     X   43834 43841U
 $$$1411B      4 000094C2 00000001     I   43870 44038
 $$$1411F      2 00009552 00000001     H   44030 43870B 44037
 $$$1412F      2 000094F4 00000001     H   43920 43891B
 $$$1413       6 0000986A 00000001     I   43908 43900X
 $$$1414       6 0000986A 00000001     I   43907 43908  43908
 $$$1415F      2 00009552 00000001     H   44026 43946B
1LINE     (LINE2193) (12:47) (15MAR04) Ordinary Symbol and Literal Cross Reference                                          Page  190
 $$$1416F      2 00009552 00000001     H   44022 44007B
 $$$1417E      2 00009556 00000001     H   44045 44039
 $$$1417F      2 00009630 00000001     H   44289 44041B
 $$$1418F      2 00009584 00000001     H   44093 44064B
 $$$1419       6 00009870 00000001     I   44081 44073X
 $$$142        6 00001132 00000001     I    9542  9543   9543
 $$$1420       6 00009870 00000001     I   44080 44081  44081
 $$$1421B      4 000095A4 00000001     I   44121 44202
 $$$1421F      2 000095D6 00000001     H   44198 44121B 44201
 $$$1422F      2 000095D6 00000001     H   44194 44179B
 $$$1423E      2 000095DA 00000001     H   44209 44203
 $$$1423F      2 000095F6 00000001     H   44234 44205B 44220B
 $$$1425F      2 00009630 00000001     H   44285 44256B
 $$$1426       6 00009876 00000001     I   44273 44265X
 $$$1427       6 00009876 00000001     I   44272 44273  44273
 $$$1428       1 00000050 00000001 A   U   44308 44305  44307
 $$$143F       2 00000874 00000001     H    9607  9580B  9593B
 $$$143S       2 0000085E 00000001     H    9571  9606B
 $$$1430B      1 00009658 00000001     X   44352 44359U
 $$$1431F      2 000096B8 00000001     H   44431 44392B
 $$$1436F      2 00009710 00000001     H   44537 44507B
 $$$1437F      2 00009770 00000001     H   44670 44598B 44623B 44635B
 $$$1440F      2 00009770 00000001     H   44666 44651B
 $$$1442F      2 000097B6 00000001     H   44777 44702B 44720B
 $$$1445F      2 000097B6 00000001     H   44773 44738B
 $$$1446F      2 000097B2 00000001     H   44768 44754B
 $$$1447       1 00000050 00000001 A   U   44798 44795  44797
 $$$1449B      1 00009896 00000001     X   44867 44874U
 $$$1450F      2 000098A2 00000001     H   44909 44893B
 $$$1452F      2 000098BE 00000001     H   44967 44920B 44951B
 $$$1453F      2 000098BA 00000001     H   44954 44937B
 $$$1456F      2 00009930 00000001     H   45051 45034B
 $$$1456T      2 0000992C 00000001     H   45037 45024B
 $$$1460       1 00000050 00000001 A   U   45074 45071  45073
 $$$1462B      1 000099DA 00000001     X   45157 45164U
 $$$1463F      2 00009A14 00000001     H   45217 45203B
 $$$1465       1 00000050 00000001 A   U   45253 45250  45252
 $$$1466F      2 00009B34 00000001     H   45706 45375B
 $$$1467B      1 00009A42 00000001     X   45287 45294U
 $$$1468F      2 00009A8A 00000001     H   45427 45316B 45333B
 $$$147F       2 000008F6 00000001     H    9812  9645B
 $$$1471F      2 00009A8A 00000001     H   45423 45354B
 $$$1473B      4 00009A90 00000001     I   45446 45461
 $$$1473F      2 00009AA2 00000001     H   45457 45446B 45460
 $$$1474E      2 00009AA6 00000001     H   45468 45462
 $$$1474F      2 00009AD2 00000001     H   45522 45464B
 $$$1475B      4 00009AAA 00000001     I   45482 45496
 $$$1475F      2 00009AB2 00000001     H   45492 45482B 45495
 $$$1476E      2 00009AB6 00000001     H   45503 45497
 $$$1476F      2 00009AD2 00000001     H   45518 45499B
 $$$1477F      2 00009AFA 00000001     H   45588 45536B 45548B
 $$$1479F      2 00009AFA 00000001     H   45584 45569B
 $$$148F       2 000008CC 00000001     H    9731  9660B
 $$$1480B      4 00009B08 00000001     I   45606 45620
 $$$1480F      2 00009B10 00000001     H   45616 45606B 45619
 $$$1481E      2 00009B14 00000001     H   45627 45621
 $$$1481F      2 00009B20 00000001     H   45641 45623B
 $$$1483F      2 00009B34 00000001     H   45696 45658B
 $$$1484       1 00000050 00000001 A   U   45715 45712  45714
1LINE     (LINE2193) (12:47) (15MAR04) Ordinary Symbol and Literal Cross Reference                                          Page  191
 $$$1486B      1 00009BA2 00000001     X   45834 45841U
 $$$1487F      2 00009C56 00000001     H   45982 45894B
 $$$1488F      2 00009C56 00000001     H   45978 45956B
 $$$1489F      2 00009C70 00000001     H   46028 46012B
 $$$1489T      2 00009C6C 00000001     H   46015 46002B
 $$$149F       2 000008F2 00000001     H    9807  9741B
 $$$1492F      2 00009CDC 00000001     H   46109 46092B
 $$$1492T      2 00009CD8 00000001     H   46095 46082B
 $$$1496       1 00000364 00000001 A   U   46143 46140  46142
 $$$1498B      1 00009E2E 00000001     X   46276 46283U
 $$$1499F      2 00009E40 00000001     H   46330 46301B
 $$$150F       2 000008E4 00000001     H    9782  9755B
 $$$1500F      2 00009E40 00000001     H   46326 46316B
 $$$1501F      2 00009E4A 00000001     H   46350 46340B
 $$$1502       1 00000050 00000001 A   U   46369 46366  46368
 $$$1504B      1 00009E76 00000001     X   46396 46403U
 $$$1505       1 00000050 00000001 A   U   46435 46432  46434
 $$$1507B      1 00009EA2 00000001     X   46462 46469U
 $$$1508       1 00000050 00000001 A   U   46501 46498  46500
 $$$151        6 00001138 00000001     I    9772  9764X
 $$$1510B      1 00009ECE 00000001     X   46541 46548U
 $$$1511F      2 00009F22 00000001     H   46692 46582B
 $$$1512F      2 00009EFE 00000001     H   46635 46605B
 $$$1512S      2 00009EE4 00000001     H   46598 46634B
 $$$1515F      2 00009F1E 00000001     H   46687 46655B
 $$$1515S      2 00009F08 00000001     H   46649 46686B
 $$$1518F      2 00009F2E 00000001     H   46717 46706B
 $$$1519F      2 00009F4E 00000001     H   46762 46738B
 $$$152        6 00001138 00000001     I    9771  9772   9772
 $$$1520       6 0000A82E 00000001     I   46752 46744X
 $$$1521       6 0000A82E 00000001     I   46751 46752  46752
 $$$1522F      2 00009F6A 00000001     H   46806 46782B
 $$$1523       6 0000A834 00000001     I   46796 46788X
 $$$1524       6 0000A834 00000001     I   46795 46796  46796
 $$$1525F      2 00009F8C 00000001     H   46875 46823B 46842B
 $$$1525S      2 00009F6C 00000001     H   46817 46874B
 $$$1528       6 0000A83A 00000001     I   46862 46854X
 $$$1529       6 0000A83A 00000001     I   46861 46862  46862
 $$$153        6 0000113E 00000001     I    9796  9788X
 $$$1530F      2 00009FF8 00000001     H   47040 46892B 46912B 46932B 46945B 46989B
 $$$1534F      2 00009FCE 00000001     H   46972 46962B
 $$$1536F      2 00009FF4 00000001     H   47035 47011B
 $$$1537       6 0000A840 00000001     I   47025 47017X
 $$$1538       6 0000A840 00000001     I   47024 47025  47025
 $$$1539F      2 0000A050 00000001     H   47136 47062B
 $$$154        6 0000113E 00000001     I    9795  9796   9796
 $$$1540F      2 0000A08C 00000001     H   47193 47180B
 $$$1542F      2 0000A0B8 00000001     H   47240 47227B
 $$$1544F      2 0000A0D6 00000001     H   47272 47254B
 $$$1545F      2 0000A14C 00000001     H   47421 47343B 47358B
 $$$1547F      2 0000A13C 00000001     H   47392 47379B
 $$$1548F      2 0000A144 00000001     H   47415 47402B
 $$$1549       1 00000050 00000001 A   U   47441 47438  47440
 $$$155F       2 00000946 00000001     H    9909  9841B
 $$$1551B      1 0000A174 00000001     X   47527 47534U
 $$$1552F      2 0000A1B4 00000001     H   47625 47609B
 $$$1552T      2 0000A1B0 00000001     H   47612 47599B
 $$$1555F      2 0000A220 00000001     H   47707 47690B
 $$$1555T      2 0000A21C 00000001     H   47693 47680B
1LINE     (LINE2193) (12:47) (15MAR04) Ordinary Symbol and Literal Cross Reference                                          Page  192
 $$$1559F      2 0000A240 00000001     H   47745 47721B
 $$$156F       2 0000092E 00000001     H    9879  9863B
 $$$1561F      2 0000A260 00000001     H   47793 47778B
 $$$1562F      2 0000A29A 00000001     H   47858 47820B
 $$$1564F      2 0000A2B8 00000001     H   47887 47869B
 $$$1565F      2 0000A2E0 00000001     H   47923 47908B
 $$$1566F      2 0000A30E 00000001     H   47979 47936B
 $$$1567F      2 0000A306 00000001     H   47973 47960B
 $$$1568       1 00000308 00000001 A   U   48004 48001  48003
 $$$157F       2 0000093E 00000001     H    9903  9893B
 $$$1570B      1 0000A4CA 00000001     X   48182 48189U
 $$$1571       1 00000050 00000001 A   U   48241 48238  48240
 $$$1573B      1 0000A50A 00000001     X   48268 48275U
 $$$1574       1 00000050 00000001 A   U   48308 48305  48307
 $$$1576B      1 0000A536 00000001     X   48335 48342U
 $$$1577       1 00000050 00000001 A   U   48374 48371  48373
 $$$1579B      1 0000A562 00000001     X   48401 48408U
 $$$158F       2 00000956 00000001     H    9933  9923B
 $$$1580       1 00000050 00000001 A   U   48441 48438  48440
 $$$1582B      1 0000A58E 00000001     X   48468 48475U
 $$$1583       1 00000050 00000001 A   U   48508 48505  48507
 $$$1585B      1 0000A5BA 00000001     X   48535 48542U
 $$$1586       1 00000050 00000001 A   U   48574 48571  48573
 $$$1588B      1 0000A5E6 00000001     X   48613 48620U
 $$$1589F      2 0000A61A 00000001     H   48685 48653B
 $$$159F       2 000009AC 00000001     H   10053  9987B
 $$$1590B      4 0000A63E 00000001     I   48718 48735
 $$$1590F      2 0000A644 00000001     H   48731 48718B 48734
 $$$1591E      2 0000A648 00000001     H   48742 48736
 $$$1591F      2 0000A656 00000001     H   48764 48738B 48751B
 $$$1593F      2 0000A698 00000001     H   48831 48781B
 $$$1594F      2 0000A6AC 00000001     H   48872 48848B
 $$$1595       6 0000A846 00000001     I   48862 48854X
 $$$1596       6 0000A846 00000001     I   48861 48862  48862
 $$$1597F      2 0000A6BE 00000001     H   48913 48889B
 $$$1598       6 0000A84C 00000001     I   48903 48895X
 $$$1599       6 0000A84C 00000001     I   48902 48903  48903
 $$$160F       2 00000996 00000001     H   10017 10007B
 $$$1600F      2 0000A6D8 00000001     H   48942 48930B
 $$$1601       1 00000050 00000001 A   U   48961 48958  48960
 $$$1603B      1 0000A86C 00000001     X   49078 49085U
 $$$1604F      2 0000A890 00000001     H   49162 49146B
 $$$1604T      2 0000A88C 00000001     H   49149 49136B
 $$$1607F      2 0000A9AC 00000001     H   49319 49302B
 $$$1607T      2 0000A9A8 00000001     H   49305 49292B
 $$$161F       2 000009AC 00000001     H   10049 10039B
 $$$1611F      2 0000AA1E 00000001     H   49424 49339B
 $$$1613F      2 0000AA38 00000001     H   49453 49435B
 $$$1614F      2 0000AA72 00000001     H   49500 49485B
 $$$1615       1 00000250 00000001 A   U   49525 49522  49524
 $$$1617B      1 0000ACA6 00000001     X   49753 49760U
 $$$1618       1 00000050 00000001 A   U   49793 49790  49792
 $$$1620B      1 0000ACDA 00000001     X   49820 49827U
 $$$1621       1 00000050 00000001 A   U   49860 49857  49859
 $$$1623B      1 0000AD0E 00000001     X   49887 49894U
 $$$1624F      2 0000AD30 00000001     H   49935 49922B
 $$$1626       1 00000050 00000001 A   U   49955 49952  49954
 $$$1628B      1 0000AD62 00000001     X   49982 49989U
 $$$1629F      2 0000AD76 00000001     H   50021 50006B
1LINE     (LINE2193) (12:47) (15MAR04) Ordinary Symbol and Literal Cross Reference                                          Page  193
 $$$1630F      2 0000AD98 00000001     H   50054 50041B
 $$$1632       1 00000050 00000001 A   U   50074 50071  50073
 $$$1634B      1 0000ADCA 00000001     X   50101 50108U
 $$$1635       1 00000050 00000001 A   U   50188 50185  50187
 $$$1637B      1 0000AF06 00000001     X   50273 50280U
 $$$1638B      4 0000AF0A 00000001     I   50302 50331
 $$$1638F      2 0000AF16 00000001     H   50326 50302B 50330
 $$$164F       2 000009E8 00000001     H   10117 10072B
 $$$1640B      4 0000AF1E 00000001     I   50348 50366
 $$$1640E      2 0000AF1A 00000001     H   50338 50332
 $$$1640F      2 0000AF26 00000001     H   50362 50334B 50348B 50365
 $$$1643E      2 0000AF2A 00000001     H   50373 50367
 $$$1643F      2 0000AF5A 00000001     H   50440 50369B
 $$$1644F      2 0000AF5A 00000001     H   50436 50423B
 $$$1645F      2 0000AF7A 00000001     H   50516 50468B
 $$$1646B      4 0000AF6A 00000001     I   50485 50498
 $$$1646F      2 0000AF72 00000001     H   50495 50485B 50497
 $$$1647E      2 0000AF76 00000001     H   50505 50499
 $$$1647F      2 0000AF7A 00000001     H   50512 50501B
 $$$1648       1 00000050 00000001 A   U   50536 50533  50535
 $$$165F       2 00000A52 00000001     H   10261 10201B
 $$$165T       2 00000A38 00000001     H   10204 10188B
 $$$1650B      1 0000AFA6 00000001     X   50579 50586U
 $$$1651F      2 0000B062 00000001     H   50763 50736B
 $$$1652F      2 0000B070 00000001     H   50791 50778B
 $$$1653F      2 0000B080 00000001     H   50816 50806B
 $$$1654F      2 0000B0B8 00000001     H   50873 50831B
 $$$1655F      2 0000B0F4 00000001     H   50932 50888B
 $$$1656F      2 0000B112 00000001     H   50974 50947B
 $$$1657       1 00000050 00000001 A   U   51000 50997  50999
 $$$1659B      1 0000B302 00000001     X   51195 51202U
 $$$166F       2 00000A2E 00000001     H   10191 10174B
 $$$1660       1 00000050 00000001 A   U   51229 51226  51228
 $$$1662B      1 0000B32E 00000001     X   51256 51263U
 $$$1663       1 00000050 00000001 A   U   51290 51287  51289
 $$$1665B      1 0000B35A 00000001     X   51317 51324U
 $$$1666       1 00000050 00000001 A   U   51351 51348  51350
 $$$1668B      1 0000B386 00000001     X   51378 51385U
 $$$1669       1 00000050 00000001 A   U   51412 51409  51411
 $$$1671B      1 0000B3B2 00000001     X   51439 51446U
 $$$1672       1 00000050 00000001 A   U   51473 51470  51472
 $$$169F       2 00000A52 00000001     H   10257 10242B
 $$$173F       2 00000AAC 00000001     H   10429 10363B
 $$$176F       2 00000B44 00000001     H   10545 10536B
 $$$177F       2 00000B62 00000001     H   10569 10559B
 $$$178F       2 00000B72 00000001     H   10607 10579B
 $$$179        6 00001144 00000001     I   10597 10589X
 $$$180        6 00001144 00000001     I   10596 10597  10597
 $$$183F       2 00000BE0 00000001     H   10747 10660B 10679B
 $$$183T       2 00000B9C 00000001     H   10663 10647B
 $$$186F       2 00000C02 00000001     H   10806 10758B 10792B
 $$$187F       2 00000BF8 00000001     H   10795 10776B
 $$$190F       2 00000C2E 00000001     H   10863 10825B
 $$$195F       2 00000C60 00000001     H   10946 10920B
 $$$197B       4 00000C6A 00000001     I   10959 10975
 $$$197F       2 00000C74 00000001     H   10971 10959B 10974
 $$$198E       2 00000C78 00000001     H   10982 10976
 $$$198F       2 00000C7E 00000001     H   10991 10978B
 $$$201F       2 00000CA0 00000001     H   11069 11046B
1LINE     (LINE2193) (12:47) (15MAR04) Ordinary Symbol and Literal Cross Reference                                          Page  194
 $$$208F       2 00000CFC 00000001     H   11257 11193B
 $$$210F       2 00000CF8 00000001     H   11252 11228B
 $$$211        6 0000114A 00000001     I   11242 11234X
 $$$212        6 0000114A 00000001     I   11241 11242  11242
 $$$213F       2 00000D5E 00000001     H   11372 11299B
 $$$214F       2 00000D44 00000001     H   11343 11315B
 $$$215        6 00001150 00000001     I   11332 11324X
 $$$216        6 00001150 00000001     I   11331 11332  11332
 $$$217        6 00001156 00000001     I   11362 11354X
 $$$218        6 00001156 00000001     I   11361 11362  11362
 $$$219B       4 00000D62 00000001     I   11384 11433
 $$$219F       2 00000D72 00000001     H   11429 11384B 11432
 $$$220F       2 00000D72 00000001     H   11425 11397B
 $$$221        6 0000115C 00000001     I   11415 11407X
 $$$222        6 0000115C 00000001     I   11414 11415  11415
 $$$223E       2 00000D76 00000001     H   11440 11434
 $$$223F       2 00000DCC 00000001     H   11589 11436B
 $$$224F       2 00000DAA 00000001     H   11566 11454B
 $$$225F       2 00000D90 00000001     H   11496 11472B
 $$$226        6 00001162 00000001     I   11486 11478X
 $$$227        6 00001162 00000001     I   11485 11486  11486
 $$$228F       2 00000D9E 00000001     H   11523 11505B
 $$$230F       2 00000DAA 00000001     H   11562 11534B
 $$$231        6 00001168 00000001     I   11552 11544X
 $$$232        6 00001168 00000001     I   11551 11552  11552
 $$$233F       2 00000E10 00000001     H   11650 11610B
 $$$234F       2 00000F66 00000001     H   12056 11664B 11736B 11896B
 $$$237F       2 00000EAC 00000001     H   11839 11696B
 $$$238F       2 00000E56 00000001     H   11740 11711B
 $$$239F       2 00000ED6 00000001     H   11900 11851B
 $$$240F       2 00000ED2 00000001     H   11893 11866B
 $$$241F       2 00000F10 00000001     H   11942 11913B
 $$$242F       2 00000F24 00000001     H   11965 11955B
 $$$243F       2 00000F34 00000001     H   11988 11974B
 $$$244F       2 00000F4A 00000001     H   12021 12000B
 $$$246F       2 00000F7E 00000001     H   12115 12104B
 $$$247        1 000003D8 00000001 A   U   12152 12149  12151
 $$$249B       1 00001188 00000001     X   12241 12248U
 $$$250F       2 000011AC 00000001     H   12306 12282B
 $$$251        1 00000050 00000001 A   U   12329 12326  12328
 $$$253B       1 000011D4 00000001     X   12366 12373U
 $$$254F       2 000011F4 00000001     H   12470 12406B
 $$$255F       2 000011E8 00000001     H   12438 12422B
 $$$258F       2 000011F4 00000001     H   12466 12450B
 $$$261F       2 0000120C 00000001     H   12498 12485B
 $$$262F       2 0000122E 00000001     H   12550 12537B
 $$$263F       2 00001254 00000001     H   12633 12585B
 $$$265F       2 00001252 00000001     H   12625 12608B
 $$$268F       2 00001270 00000001     H   12674 12644B
 $$$269F       2 00001266 00000001     H   12667 12658B
 $$$270        1 00000040 00000001 A   U   12697 12694  12696
 $$$272B       1 000012C8 00000001     X   12779 12786U
 $$$273F       2 000012E2 00000001     H   12860 12836B 12850B
 $$$275B       4 000012FA 00000001     I   12890 12907
 $$$275F       2 00001304 00000001     H   12903 12890B 12906
 $$$276B       4 0000130C 00000001     I   12925 12942
 $$$276E       2 00001308 00000001     H   12914 12908
 $$$276F       2 00001316 00000001     H   12938 12910B 12925B 12941
 $$$278B       4 0000131E 00000001     I   12960 12977
1LINE     (LINE2193) (12:47) (15MAR04) Ordinary Symbol and Literal Cross Reference                                          Page  195
 $$$278E       2 0000131A 00000001     H   12949 12943
 $$$278F       2 00001328 00000001     H   12973 12945B 12960B 12976
 $$$280B       4 00001330 00000001     I   12995 13012
 $$$280E       2 0000132C 00000001     H   12984 12978
 $$$280F       2 0000133A 00000001     H   13008 12980B 12995B 13011
 $$$282B       4 00001342 00000001     I   13030 13047
 $$$282E       2 0000133E 00000001     H   13019 13013
 $$$282F       2 0000134C 00000001     H   13043 13015B 13030B 13046
 $$$284B       4 00001354 00000001     I   13065 13090
 $$$284E       2 00001350 00000001     H   13054 13048
 $$$284F       2 00001362 00000001     H   13086 13050B 13065B 13089
 $$$287B       4 0000136A 00000001     I   13108 13131
 $$$287E       2 00001366 00000001     H   13097 13091
 $$$287F       2 00001378 00000001     H   13128 13093B 13108B 13130
 $$$290E       2 0000137C 00000001     H   13138 13132
 $$$290F       2 000013A2 00000001     H   13191 13134B
 $$$291        1 00000054 00000001 A   U   13220 13217  13219
 $$$293B       1 000013CA 00000001     X   13258 13265U
 $$$294F       2 000015C6 00000001     H   14115 13317B 13356B
 $$$294S       2 000013D8 00000001     H   13311 14114B
 $$$296        6 000016A8 00000001     I   13341 13333X
 $$$297        6 000016A8 00000001     I   13340 13341  13341
 $$$299F       2 00001404 00000001     H   13386 13376B
 $$$300B       4 0000140E 00000001     I   13402 13420
 $$$300F       2 0000141C 00000001     H   13416 13402B 13419
 $$$301B       4 00001424 00000001     I   13438 13456
 $$$301E       2 00001420 00000001     H   13427 13421
 $$$301F       2 00001432 00000001     H   13452 13423B 13438B 13455
 $$$303B       4 0000143A 00000001     I   13474 13492
 $$$303E       2 00001436 00000001     H   13463 13457
 $$$303F       2 00001448 00000001     H   13488 13459B 13474B 13491
 $$$305B       4 00001450 00000001     I   13510 13528
 $$$305E       2 0000144C 00000001     H   13499 13493
 $$$305F       2 0000145E 00000001     H   13524 13495B 13510B 13527
 $$$307B       4 00001466 00000001     I   13546 13564
 $$$307E       2 00001462 00000001     H   13535 13529
 $$$307F       2 00001474 00000001     H   13560 13531B 13546B 13563
 $$$309B       4 0000147C 00000001     I   13582 13600
 $$$309E       2 00001478 00000001     H   13571 13565
 $$$309F       2 0000148A 00000001     H   13596 13567B 13582B 13599
 $$$311B       4 00001492 00000001     I   13618 13636
 $$$311E       2 0000148E 00000001     H   13607 13601
 $$$311F       2 000014A0 00000001     H   13632 13603B 13618B 13635
 $$$313B       4 000014A8 00000001     I   13654 13672
 $$$313E       2 000014A4 00000001     H   13643 13637
 $$$313F       2 000014B6 00000001     H   13668 13639B 13654B 13671
 $$$315B       4 000014BE 00000001     I   13690 13708
 $$$315E       2 000014BA 00000001     H   13679 13673
 $$$315F       2 000014CC 00000001     H   13704 13675B 13690B 13707
 $$$317B       4 000014D4 00000001     I   13726 13744
 $$$317E       2 000014D0 00000001     H   13715 13709
 $$$317F       2 000014E2 00000001     H   13740 13711B 13726B 13743
 $$$319B       4 000014EA 00000001     I   13762 13780
 $$$319E       2 000014E6 00000001     H   13751 13745
 $$$319F       2 000014F8 00000001     H   13776 13747B 13762B 13779
 $$$321B       4 00001500 00000001     I   13798 13816
 $$$321E       2 000014FC 00000001     H   13787 13781
 $$$321F       2 0000150E 00000001     H   13812 13783B 13798B 13815
 $$$323B       4 00001516 00000001     I   13834 13852
1LINE     (LINE2193) (12:47) (15MAR04) Ordinary Symbol and Literal Cross Reference                                          Page  196
 $$$323E       2 00001512 00000001     H   13823 13817
 $$$323F       2 00001524 00000001     H   13848 13819B 13834B 13851
 $$$325B       4 0000152C 00000001     I   13870 13889
 $$$325E       2 00001528 00000001     H   13859 13853
 $$$325F       2 0000153A 00000001     H   13884 13855B 13870B 13888
 $$$327B       4 00001542 00000001     I   13907 13925
 $$$327E       2 0000153E 00000001     H   13896 13890
 $$$327F       2 00001550 00000001     H   13921 13892B 13907B 13924
 $$$329B       4 00001558 00000001     I   13943 13961
 $$$329E       2 00001554 00000001     H   13932 13926
 $$$329F       2 00001566 00000001     H   13957 13928B 13943B 13960
 $$$331B       4 0000156E 00000001     I   13979 13997
 $$$331E       2 0000156A 00000001     H   13968 13962
 $$$331F       2 0000157C 00000001     H   13993 13964B 13979B 13996
 $$$333B       4 0000158C 00000001     I   14031 14050
 $$$333E       2 00001580 00000001     H   14004 13998
 $$$333F       2 0000159A 00000001     H   14045 14000B 14017B 14031B 14047
 $$$335B       4 00001584 00000001     I   14017 14048
 $$$336E       2 0000159E 00000001     H   14057 14049  14051
 $$$336F       2 000015AC 00000001     H   14069 14053B
 $$$337F       2 000015BE 00000001     H   14103 14082B
 $$$338        1 00000050 00000001 A   U   14144 14141  14143
 $$$340B       1 000017C8 00000001     X   14370 14377U
 $$$341F       2 000017DC 00000001     H   14429 14415B
 $$$342F       2 0000180C 00000001     H   14478 14449B 14462B
 $$$344F       2 0000181E 00000001     H   14504 14490B
 $$$345F       2 00001844 00000001     H   14547 14519B
 $$$346F       2 00001866 00000001     H   14588 14560B
 $$$347        1 00000040 00000001 A   U   14621 14618  14620
 $$$349B       1 00001898 00000001     X   14659 14666U
 $$$350F       2 000018A8 00000001     H   14712 14698B
 $$$351F       2 000018B8 00000001     H   14737 14723B
 $$$352F       2 00001912 00000001     H   14857 14776B
 $$$352T       2 000018D2 00000001     H   14779 14765B
 $$$354F       2 00001908 00000001     H   14830 14804B 14817B
 $$$356F       2 00001912 00000001     H   14853 14843B
 $$$357F       2 0000194C 00000001     H   14938 14885B
 $$$357T       2 00001922 00000001     H   14888 14874B
 $$$359F       2 0000193E 00000001     H   14926 14899B
 $$$360F       2 0000196A 00000001     H   14974 14947B
 $$$361F       2 00001988 00000001     H   15014 14987B
 $$$362F       2 000019A6 00000001     H   15056 15041B
 $$$362T       2 00001998 00000001     H   15044 15030B
 $$$364B       4 000019AC 00000001     I   15066 15080
 $$$364F       2 000019B8 00000001     H   15077 15066B 15079
 $$$365E       2 000019BC 00000001     H   15087 15081
 $$$365F       2 000019D4 00000001     H   15130 15083B
 $$$366F       2 000019D0 00000001     H   15125 15115B
 $$$366T       2 000019CC 00000001     H   15118 15104B
 $$$368F       2 000019E6 00000001     H   15156 15142B
 $$$369F       2 00001A08 00000001     H   15212 15185B 15198B
 $$$369T       2 000019FE 00000001     H   15201 15172B
 $$$372        1 00000040 00000001 A   U   15246 15243  15245
 $$$374B       1 00001A3A 00000001     X   15284 15291U
 $$$375F       2 00001A44 00000001     H   15333 15323B
 $$$376F       2 00001A58 00000001     H   15368 15355B
 $$$377F       2 00001A72 00000001     H   15409 15395B
 $$$377T       2 00001A68 00000001     H   15398 15384B
 $$$379F       2 00001A9E 00000001     H   15456 15429B
1LINE     (LINE2193) (12:47) (15MAR04) Ordinary Symbol and Literal Cross Reference                                          Page  197
 $$$380F       2 00001ABC 00000001     H   15504 15476B 15489B
 $$$380S       2 00001AA4 00000001     H   15467 15503B
 $$$383F       2 00001ADC 00000001     H   15533 15519B
 $$$384F       2 00001AFC 00000001     H   15581 15556B 15568B
 $$$384S       2 00001AE6 00000001     H   15546 15580B
 $$$388F       2 00001B18 00000001     H   15640 15615B 15627B
 $$$388S       2 00001B02 00000001     H   15605 15639B
 $$$392        1 00000040 00000001 A   U   15700 15697  15699
 $$$394B       1 00001B5E 00000001     X   15739 15746U
 $$$395B       4 00001B60 00000001     I   15778 15794
 $$$395F       2 00001B6A 00000001     H   15791 15778B 15793
 $$$396E       2 00001B6E 00000001     H   15801 15795
 $$$396F       2 00001B74 00000001     H   15821 15797B
 $$$399        1 00000050 00000001 A   U   15844 15841  15843
 $$$401B       1 00001B9C 00000001     X   15882 15889U
 $$$402B       4 00001B9E 00000001     I   15921 15937
 $$$402F       2 00001BA8 00000001     H   15934 15921B 15936
 $$$403E       2 00001BAC 00000001     H   15944 15938
 $$$403F       2 00001BB2 00000001     H   15960 15940B
 $$$405        1 00000050 00000001 A   U   15983 15980  15982
 $$$406F       2 00001C58 00000001     H   16274 16114B
 $$$407B       1 00001BDA 00000001     X   16022 16029U
 $$$408F       2 00001BE2 00000001     H   16071 16061B
 $$$409F       2 00001BEA 00000001     H   16092 16082B
 $$$410F       2 00001BF6 00000001     H   16118 16102B
 $$$411F       2 00001C1A 00000001     H   16166 16136B
 $$$412        6 00002326 00000001     I   16156 16148X
 $$$413        6 00002326 00000001     I   16155 16156  16156
 $$$414F       2 00001C56 00000001     H   16255 16182B
 $$$414S       2 00001C1E 00000001     H   16176 16254B
 $$$416F       2 00001C46 00000001     H   16244 16198B
 $$$417F       2 00001C40 00000001     H   16239 16216B 16229B
 $$$419        1 00000040 00000001 A   U   16283 16280  16282
 $$$420F       2 00001D36 00000001     H   16697 16393B
 $$$421B       1 00001C80 00000001     X   16322 16329U
 $$$422F       2 00001C88 00000001     H   16371 16361B
 $$$423F       2 00001C94 00000001     H   16397 16381B
 $$$424F       2 00001CB6 00000001     H   16443 16412B
 $$$425        6 0000232C 00000001     I   16432 16424X
 $$$426        6 0000232C 00000001     I   16431 16432  16432
 $$$427F       2 00001CD6 00000001     H   16495 16458B
 $$$428F       2 00001CD2 00000001     H   16490 16472B
 $$$429F       2 00001CF0 00000001     H   16537 16509B
 $$$43B        1 00000032 00000001     X    6711  6718U
 $$$430        6 00002332 00000001     I   16527 16519X
 $$$431        6 00002332 00000001     I   16526 16527  16527
 $$$432F       2 00001D04 00000001     H   16562 16552B
 $$$433F       2 00001D10 00000001     H   16599 16575B
 $$$434        6 00002338 00000001     I   16589 16581X
 $$$435        6 00002338 00000001     I   16588 16589  16589
 $$$436F       2 00001D26 00000001     H   16638 16610B
 $$$437        6 0000233E 00000001     I   16627 16619X
 $$$438        6 0000233E 00000001     I   16626 16627  16627
 $$$439F       2 00001D30 00000001     H   16673 16649B
 $$$44         1 00000050 00000001 A   U    6754  6751   6753
 $$$440        6 00002344 00000001     I   16663 16655X
 $$$441        6 00002344 00000001     I   16662 16663  16663
 $$$442        1 00000040 00000001 A   U   16706 16703  16705
 $$$444B       1 00001D5E 00000001     X   16745 16752U
1LINE     (LINE2193) (12:47) (15MAR04) Ordinary Symbol and Literal Cross Reference                                          Page  198
 $$$445F       2 00001D8A 00000001     H   16851 16786B 16803B
 $$$447F       2 00001D8A 00000001     H   16847 16836B
 $$$447T       2 00001D7E 00000001     H   16839 16825B
 $$$449F       2 00001DB0 00000001     H   16894 16866B
 $$$450F       2 00001DD0 00000001     H   16941 16931B
 $$$451        1 00000040 00000001 A   U   16983 16980  16982
 $$$453B       1 00001E06 00000001     X   17022 17029U
 $$$454F       2 00001E0E 00000001     H   17072 17061B
 $$$455F       2 00001E34 00000001     H   17124 17089B
 $$$456F       2 00001E34 00000001     H   17120 17102B
 $$$457        6 0000234A 00000001     I   17136 17128X
 $$$458        6 0000234A 00000001     I   17135 17136  17136
 $$$459        1 00000050 00000001 A   U   17171 17168  17170
 $$$46B        1 00000064 00000001     X    6786  6793U
 $$$461B       1 00001E66 00000001     X   17210 17217U
 $$$462F       2 00001E6E 00000001     H   17260 17249B
 $$$463F       2 00001E94 00000001     H   17312 17277B
 $$$464F       2 00001E94 00000001     H   17308 17290B
 $$$465        6 00002350 00000001     I   17325 17317X
 $$$466        6 00002350 00000001     I   17324 17325  17325
 $$$467        1 00000050 00000001 A   U   17360 17357  17359
 $$$469B       1 00001FCA 00000001     X   17416 17423U
 $$$470F       2 00001FEA 00000001     H   17483 17455B
 $$$471        1 00000050 00000001 A   U   17524 17521  17523
 $$$473B       1 00002030 00000001     X   17563 17570U
 $$$474B       4 00002032 00000001     I   17604 17691
 $$$474F       2 00002064 00000001     H   17685 17604B 17621B 17690
 $$$476F       2 00002064 00000001     H   17681 17657B 17668B
 $$$476S       2 00002040 00000001     H   17632 17680B
 $$$478T       2 00002050 00000001     H   17662 17646B
 $$$48F        2 0000010E 00000001     H    6977  6926B
 $$$480E       2 00002068 00000001     H   17698 17692
 $$$480F       2 000020BA 00000001     H   17825 17694B 17713B 17732B 17774B
 $$$483F       2 00002088 00000001     H   17758 17748B
 $$$485F       2 000020B2 00000001     H   17819 17791B
 $$$486F       2 000020DC 00000001     H   17859 17845B
 $$$487F       2 000020E4 00000001     H   17880 17870B
 $$$488F       2 00002100 00000001     H   17923 17896B
 $$$489        6 00002356 00000001     I   17913 17905X
 $$$49F        2 0000010E 00000001     H    6973  6946B
 $$$490        6 00002356 00000001     I   17912 17913  17913
 $$$491        1 00000040 00000001 A   U   17953 17950  17952
 $$$493B       1 0000212A 00000001     X   17992 17999U
 $$$494B       4 0000212C 00000001     I   18033 18133
 $$$494F       2 00002166 00000001     H   18127 18033B 18050B 18132
 $$$496F       2 00002166 00000001     H   18123 18099B 18110B
 $$$496S       2 0000213A 00000001     H   18061 18122B
 $$$498T       2 00002152 00000001     H   18104 18075B 18088B
 $$$501E       2 0000216A 00000001     H   18140 18134
 $$$501F       2 000021BC 00000001     H   18267 18136B 18155B 18174B 18216B
 $$$504F       2 0000218A 00000001     H   18200 18190B
 $$$506F       2 000021B4 00000001     H   18261 18233B
 $$$507F       2 000021DE 00000001     H   18301 18287B
 $$$508F       2 000021E6 00000001     H   18322 18312B
 $$$509F       2 00002202 00000001     H   18365 18338B
 $$$510        6 0000235C 00000001     I   18355 18347X
 $$$511        6 0000235C 00000001     I   18354 18355  18355
 $$$512        1 00000040 00000001 A   U   18395 18392  18394
 $$$514B       1 0000237C 00000001     X   18467 18474U
1LINE     (LINE2193) (12:47) (15MAR04) Ordinary Symbol and Literal Cross Reference                                          Page  199
 $$$517F       2 000023A8 00000001     H   18570 18559B
 $$$517T       2 0000239C 00000001     H   18562 18548B
 $$$52B        4 00000146 00000001     I    7059  7240
 $$$52F        2 000001C4 00000001     H    7237  7059B  7239
 $$$521F       2 000023CC 00000001     H   18631 18621B
 $$$523F       2 000023F6 00000001     H   18691 18663B
 $$$524F       2 00002426 00000001     H   18737 18709B
 $$$525F       2 00002458 00000001     H   18791 18760B
 $$$526        6 00002918 00000001     I   18781 18773X
 $$$527        6 00002918 00000001     I   18780 18781  18781
 $$$528F       2 00002482 00000001     H   18844 18817B
 $$$529        6 0000291E 00000001     I   18834 18826X
 $$$53B        4 0000014E 00000001     I    7074  7182
 $$$53F        2 0000019E 00000001     H    7179  7074B  7181
 $$$530        6 0000291E 00000001     I   18833 18834  18834
 $$$531F       2 0000249E 00000001     H   18890 18863B
 $$$532        6 00002924 00000001     I   18880 18872X
 $$$533        6 00002924 00000001     I   18879 18880  18880
 $$$534        1 00000040 00000001 A   U   18920 18917  18919
 $$$536B       1 000024C8 00000001     X   18959 18966U
 $$$537F       2 000024DA 00000001     H   19029 18998B
 $$$538F       2 000024DA 00000001     H   19025 19011B
 $$$539F       2 000024FA 00000001     H   19074 19044B
 $$$54F        2 0000019E 00000001     H    7175  7128B
 $$$540        6 0000292A 00000001     I   19064 19056X
 $$$541        6 0000292A 00000001     I   19063 19064  19064
 $$$542F       2 0000251C 00000001     H   19125 19088B
 $$$543F       2 00002518 00000001     H   19120 19102B
 $$$544F       2 00002528 00000001     H   19148 19138B
 $$$545F       2 00002536 00000001     H   19171 19161B
 $$$546F       2 00002542 00000001     H   19208 19184B
 $$$547        6 00002930 00000001     I   19198 19190X
 $$$548        6 00002930 00000001     I   19197 19198  19198
 $$$549F       2 00002554 00000001     H   19247 19219B
 $$$55E        2 000001A2 00000001     H    7189  7183
 $$$55F        2 000001C4 00000001     H    7233  7185B
 $$$550        6 00002936 00000001     I   19237 19229X
 $$$551        6 00002936 00000001     I   19236 19237  19237
 $$$552        1 00000040 00000001 A   U   19279 19276  19278
 $$$554B       1 00002582 00000001     X   19318 19325U
 $$$555F       2 00002592 00000001     H   19372 19358B
 $$$556F       2 000025B4 00000001     H   19412 19384B
 $$$557F       2 000025D8 00000001     H   19456 19428B
 $$$558        1 00000050 00000001 A   U   19526 19523  19525
 $$$56E        2 000001C8 00000001     H    7247  7241
 $$$56F        2 000001EA 00000001     H    7291  7243B
 $$$560B       1 0000262C 00000001     X   19556 19563U
 $$$561F       2 0000263C 00000001     H   19610 19596B
 $$$564B       4 00002644 00000001     I   19636 19741
 $$$564F       2 0000269A 00000001     H   19735 19636B 19740
 $$$565F       2 0000269A 00000001     H   19731 19688B
 $$$566E       2 0000269E 00000001     H   19748 19742
 $$$566F       2 000026CE 00000001     H   19829 19744B
 $$$567F       2 000026AE 00000001     H   19771 19761B
 $$$568F       2 000026CE 00000001     H   19825 19785B
 $$$568S       2 000026AE 00000001     H   19777 19824B
 $$$57         1 00000058 00000001 A   U    7346  7343   7345
 $$$570        1 00000050 00000001 A   U   19859 19856  19858
 $$$572B       1 000026F8 00000001     X   19890 19897U
1LINE     (LINE2193) (12:47) (15MAR04) Ordinary Symbol and Literal Cross Reference                                          Page  200
 $$$574        1 00000050 00000001 A   U   19976 19973  19975
 $$$576B       1 0000273E 00000001     X   20007 20014U
 $$$578        1 00000050 00000001 A   U   20122 20119  20121
 $$$580B       1 00002794 00000001     X   20153 20160U
 $$$582        1 00000050 00000001 A   U   20268 20265  20267
 $$$583F       2 000029D8 00000001     H   20511 20391B
 $$$584B       1 00002956 00000001     X   20343 20350U
 $$$585F       2 00002964 00000001     H   20395 20382B
 $$$586F       2 000029CE 00000001     H   20469 20458B
 $$$587F       2 000029D8 00000001     H   20496 20483B
 $$$588        1 00000050 00000001 A   U   20520 20517  20519
 $$$59B        1 000003B2 00000001     X    7526  7533U
 $$$590B       1 00002C82 00000001     X   20796 20803U
 $$$591        1 00000050 00000001 A   U   20855 20852  20854
 $$$593B       1 00002CB6 00000001     X   20887 20894U
 $$$594        1 00000050 00000001 A   U   20940 20937  20939
 $$$596B       1 00002CE6 00000001     X   20972 20979U
 $$$598        1 00000050 00000001 A   U   21038 21035  21037
 $$$600B       1 00002D1A 00000001     X   21070 21077U
 $$$602        1 00000050 00000001 A   U   21138 21135  21137
 $$$604B       1 00002D4E 00000001     X   21171 21178U
 $$$606B       4 00002D64 00000001     I   21235 21252
 $$$606F       2 00002D76 00000001     H   21249 21235B 21251
 $$$608E       2 00002D7A 00000001     H   21259 21253
 $$$608F       2 00002D8E 00000001     H   21303 21255B
 $$$609F       2 00002D8E 00000001     H   21299 21271B
 $$$61         1 00000050 00000001 A   U    7566  7563   7565
 $$$610        6 000031C0 00000001     I   21289 21281X
 $$$611        6 000031C0 00000001     I   21288 21289  21289
 $$$613        1 00000050 00000001 A   U   21348 21345  21347
 $$$615B       1 00002DC8 00000001     X   21381 21388U
 $$$616F       2 00002DE0 00000001     H   21436 21422B
 $$$617F       2 00002DF2 00000001     H   21466 21445B 21456B
 $$$619F       2 00002E12 00000001     H   21492 21478B
 $$$620F       2 00002E24 00000001     H   21513 21503B
 $$$621        1 00000050 00000001 A   U   21540 21537  21539
 $$$623B       1 00002E50 00000001     X   21573 21580U
 $$$624F       2 00002E62 00000001     H   21627 21613B
 $$$625        1 00000050 00000001 A   U   21660 21657  21659
 $$$627B       1 00002E9E 00000001     X   21693 21700U
 $$$628        1 00000050 00000001 A   U   21755 21752  21754
 $$$63B        1 000003DE 00000001     X    7593  7600U
 $$$630B       1 00002ED0 00000001     X   21787 21794U
 $$$631F       2 00002EE2 00000001     H   21841 21827B
 $$$632F       2 00002F26 00000001     H   21922 21856B
 $$$633F       2 00002F10 00000001     H   21886 21876B
 $$$634F       2 00002F26 00000001     H   21918 21908B
 $$$637F       2 00002F7C 00000001     H   22031 21933B
 $$$638B       4 00002F48 00000001     I   21966 21995
 $$$638F       2 00002F5E 00000001     H   21992 21966B 21994
 $$$639E       2 00002F62 00000001     H   22002 21996
 $$$639F       2 00002F74 00000001     H   22025 21998B
 $$$64F        2 000003EC 00000001     H    7648  7635B
 $$$640F       2 00002F8A 00000001     H   22056 22042B
 $$$642F       2 00002FBE 00000001     H   22153 22090B
 $$$643F       2 00002FBE 00000001     H   22149 22134B
 $$$643T       2 00002FBA 00000001     H   22137 22108B
 $$$645        6 000031C6 00000001     I   22127 22119X
 $$$646        6 000031C6 00000001     I   22126 22127  22127
1LINE     (LINE2193) (12:47) (15MAR04) Ordinary Symbol and Literal Cross Reference                                          Page  201
 $$$648        1 00000050 00000001 A   U   22179 22176  22178
 $$$65         1 00000050 00000001 A   U    7678  7675   7677
 $$$650B       1 00002FEA 00000001     X   22212 22219U
 $$$651F       2 00002FFC 00000001     H   22266 22252B
 $$$652F       2 00003012 00000001     H   22291 22279B
 $$$653F       2 0000303E 00000001     H   22341 22313B
 $$$656F       2 00003090 00000001     H   22427 22359B
 $$$657F       2 000030A6 00000001     H   22451 22439B
 $$$658F       2 000030C6 00000001     H   22496 22466B 22485B
 $$$660        1 00000050 00000001 A   U   22524 22521  22523
 $$$662B       1 000031E6 00000001     X   22595 22602U
 $$$663        1 00000050 00000001 A   U   22652 22649  22651
 $$$665B       1 00003222 00000001     X   22679 22686U
 $$$666F       2 00003234 00000001     H   22733 22719B
 $$$667F       2 00003298 00000001     H   22794 22783B
 $$$669F       2 000032F6 00000001     H   22921 22832B 22846B
 $$$67B        1 0000041C 00000001     X    7705  7712U
 $$$671B       4 00003304 00000001     I   22938 22997
 $$$671F       2 00003330 00000001     H   22993 22938B 22996
 $$$672F       2 0000332A 00000001     H   22987 22959B
 $$$675E       2 00003334 00000001     H   23004 22998
 $$$675F       2 0000337C 00000001     H   23089 23000B 23014B
 $$$679F       2 000033A0 00000001     H   23174 23111B
 $$$68F        2 0000042A 00000001     H    7760  7747B
 $$$680F       2 000033A0 00000001     H   23170 23155B
 $$$680T       2 0000339C 00000001     H   23158 23129B
 $$$682        6 000036B0 00000001     I   23148 23140X
 $$$683        6 000036B0 00000001     I   23147 23148  23148
 $$$685        1 00000050 00000001 A   U   23201 23198  23200
 $$$687B       1 0000346E 00000001     X   23289 23296U
 $$$688        1 00000050 00000001 A   U   23326 23323  23325
 $$$69         1 00000050 00000001 A   U    7790  7787   7789
 $$$690B       1 000034A0 00000001     X   23353 23360U
 $$$691F       2 000034B4 00000001     H   23406 23396B
 $$$692        1 00000050 00000001 A   U   23439 23436  23438
 $$$694B       1 000034EA 00000001     X   23466 23473U
 $$$695        1 00000050 00000001 A   U   23518 23515  23517
 $$$697B       1 00003528 00000001     X   23545 23552U
 $$$698        1 00000050 00000001 A   U   23621 23618  23620
 $$$700B       1 00003570 00000001     X   23652 23659U
 $$$701        1 00000050 00000001 A   U   23723 23720  23722
 $$$703B       1 000035AE 00000001     X   23753 23760U
 $$$704        1 00000050 00000001 A   U   23848 23845  23847
 $$$706B       1 00004352 00000001     X   24005 24012U
 $$$708        1 00000050 00000001 A   U   24067 24064  24066
 $$$71B        1 0000045A 00000001     X    7817  7824U
 $$$710B       1 00004392 00000001     X   24204 24211U
 $$$711F       2 00004414 00000001     H   24313 24304B
 $$$712F       2 0000442A 00000001     H   24340 24326B
 $$$713F       2 000044AC 00000001     H   24419 24406B
 $$$714F       2 000044DC 00000001     H   24485 24434B
 $$$715F       2 000044DC 00000001     H   24481 24465B
 $$$715T       2 000044D8 00000001     H   24468 24455B
 $$$718F       2 00004500 00000001     H   24543 24499B
 $$$719F       2 00004500 00000001     H   24539 24523B
 $$$72F        2 00000468 00000001     H    7876  7863B
 $$$720F       2 0000457C 00000001     H   24639 24595B
 $$$721F       2 0000457C 00000001     H   24635 24619B
 $$$722F       2 00004592 00000001     H   24681 24654B 24667B
1LINE     (LINE2193) (12:47) (15MAR04) Ordinary Symbol and Literal Cross Reference                                          Page  202
 $$$725F       2 000045B6 00000001     H   24739 24695B 24712B
 $$$727F       2 000045D8 00000001     H   24799 24751B
 $$$728F       2 000045D8 00000001     H   24795 24767B 24784B
 $$$73         1 00000050 00000001 A   U    7906  7903   7905
 $$$730F       2 0000461E 00000001     H   24863 24822B
 $$$731F       2 00004606 00000001     H   24848 24838B
 $$$732F       2 000046C4 00000001     H   25109 24880B 25011B
 $$$733F       2 00004640 00000001     H   24920 24896B
 $$$734F       2 0000466E 00000001     H   24997 24930B
 $$$735F       2 00004658 00000001     H   24968 24955B
 $$$735T       2 00004652 00000001     H   24958 24945B
 $$$737F       2 0000466E 00000001     H   24993 24983B
 $$$739F       2 000046C4 00000001     H   25105 25031B
 $$$740F       2 000046A6 00000001     H   25067 25057B
 $$$741F       2 000046B4 00000001     H   25089 25079B
 $$$742F       2 00004708 00000001     H   25203 25123B 25150B
 $$$744B       4 000046E4 00000001     I   25166 25183
 $$$744F       2 000046F4 00000001     H   25180 25166B 25182
 $$$745E       2 000046F8 00000001     H   25190 25184
 $$$745F       2 00004708 00000001     H   25199 25186B
 $$$746F       2 0000476E 00000001     H   25349 25217B
 $$$747F       2 00004734 00000001     H   25254 25244B
 $$$75B        1 00000498 00000001     X    7940  7947U
 $$$750F       2 00004742 00000001     H   25275 25265B
 $$$751B       4 00004748 00000001     I   25289 25302
 $$$751F       2 00004752 00000001     H   25299 25289B 25301
 $$$752E       2 00004756 00000001     H   25309 25303
 $$$752F       2 0000475A 00000001     H   25316 25305B
 $$$756F       2 0000478E 00000001     H   25401 25391B
 $$$759F       2 0000479E 00000001     H   25431 25421B
 $$$760F       2 000047AC 00000001     H   25452 25442B
 $$$761F       2 0000480C 00000001     H   25598 25464B 25481B
 $$$763B       4 000047C0 00000001     I   25497 25569
 $$$763F       2 000047FA 00000001     H   25566 25497B 25520B 25552B 25568
 $$$766E       2 000047FE 00000001     H   25576 25570
 $$$766F       2 00004808 00000001     H   25587 25572B
 $$$767F       2 00004820 00000001     H   25622 25611B
 $$$768F       2 0000484C 00000001     H   25685 25635B 25654B
 $$$77F        2 000004B0 00000001     H    8025  8010B
 $$$770F       2 00004848 00000001     H   25680 25670B
 $$$771F       2 000048DC 00000001     H   25799 25700B
 $$$772F       2 00004896 00000001     H   25750 25715B
 $$$773F       2 00004910 00000001     H   25893 25814B
 $$$775F       2 0000490C 00000001     H   25883 25869B
 $$$776F       2 00004938 00000001     H   25938 25910B 25928B
 $$$778F       2 0000497E 00000001     H   25986 25950B
 $$$779B       4 00004992 00000001     I   26004 26162
 $$$779F       2 00004A1E 00000001     H   26156 26004B 26161
 $$$78F        2 000004BC 00000001     H    8053  8038B
 $$$780F       2 000049EE 00000001     H   26097 26021B
 $$$781F       2 000049C4 00000001     H   26065 26038B
 $$$782F       2 000049FC 00000001     H   26121 26111B
 $$$783F       2 00004A0C 00000001     H   26145 26135B
 $$$784E       2 00004A22 00000001     H   26169 26163
 $$$784F       2 00004A4C 00000001     H   26201 26165B
 $$$786F       2 00004A5C 00000001     H   26230 26220B
 $$$787F       2 00004A6E 00000001     H   26256 26246B
 $$$788F       2 00004A7C 00000001     H   26277 26267B
 $$$79F        2 000004C8 00000001     H    8081  8066B
1LINE     (LINE2193) (12:47) (15MAR04) Ordinary Symbol and Literal Cross Reference                                          Page  203
 $$$790F       2 00004A96 00000001     H   26320 26309B
 $$$791F       2 00004B0A 00000001     H   26471 26331B
 $$$792F       2 00004AE6 00000001     H   26415 26353B
 $$$797F       2 00004B06 00000001     H   26466 26451B
 $$$799F       2 00004B48 00000001     H   26530 26483B
 $$$800F       2 00004B2E 00000001     H   26513 26497B
 $$$801B       4 00004B5C 00000001     I   26546 26565
 $$$801F       2 00004B6A 00000001     H   26562 26546B 26564
 $$$802E       2 00004B6E 00000001     H   26572 26566
 $$$802F       2 00004BE4 00000001     H   26690 26568B
 $$$803F       2 00004BBE 00000001     H   26659 26588B
 $$$805F       2 00004C1A 00000001     H   26788 26702B
 $$$806        1 00000174 00000001 A   U   26812 26809  26811
 $$$808B       1 00004E76 00000001     X   27057 27064U
 $$$809F       2 00004E94 00000001     H   27120 27104B
 $$$809T       2 00004E90 00000001     H   27107 27094B
 $$$81         1 00000050 00000001 A   U    8155  8152   8154
 $$$812F       2 00004E9E 00000001     H   27147 27134B
 $$$813        1 00000050 00000001 A   U   27168 27165  27167
 $$$815B       1 00004ED2 00000001     X   27195 27202U
 $$$816        1 00000050 00000001 A   U   27229 27226  27228
 $$$818B       1 00004EFE 00000001     X   27256 27263U
 $$$819F       2 00004F0A 00000001     H   27294 27281B
 $$$820        1 00000050 00000001 A   U   27313 27310  27312
 $$$822B       1 00004F36 00000001     X   27340 27347U
 $$$823        1 00000050 00000001 A   U   27379 27376  27378
 $$$825B       1 00004F62 00000001     X   27406 27413U
 $$$826        1 00000050 00000001 A   U   27446 27443  27445
 $$$828B       1 00004F8E 00000001     X   27473 27480U
 $$$829        1 00000050 00000001 A   U   27512 27509  27511
 $$$83B        1 000005A6 00000001     X    8421  8428U
 $$$831B       1 00004FBA 00000001     X   27540 27547U
 $$$832F       2 00004FC8 00000001     H   27580 27567B
 $$$833F       2 00004FD6 00000001     H   27601 27588B
 $$$834F       2 00004FEA 00000001     H   27639 27626B
 $$$835        1 00000050 00000001 A   U   27663 27660  27662
 $$$837B       1 000051EE 00000001     X   27781 27788U
 $$$838F       2 0000521C 00000001     H   27844 27812B
 $$$839F       2 0000521C 00000001     H   27840 27827B
 $$$84F        2 000005EE 00000001     H    8545  8518B  8531B
 $$$84S        2 000005D8 00000001     H    8509  8544B
 $$$840        1 00000050 00000001 A   U   27909 27906  27908
 $$$842B       1 000052FA 00000001     X   28011 28018U
 $$$844B       4 0000531E 00000001     I   28070 28088
 $$$844F       2 00005326 00000001     H   28085 28070B 28087
 $$$845E       2 0000532A 00000001     H   28095 28089
 $$$845F       2 0000532E 00000001     H   28107 28091B
 $$$846F       2 00005340 00000001     H   28136 28123B
 $$$847F       2 0000534C 00000001     H   28155 28146B
 $$$848F       2 0000535E 00000001     H   28195 28171B
 $$$849        6 0000626E 00000001     I   28185 28177X
 $$$850        6 0000626E 00000001     I   28184 28185  28185
 $$$851B       4 00005362 00000001     I   28209 28387
 $$$851F       2 00005412 00000001     H   28381 28209B 28386
 $$$852F       2 000053E8 00000001     H   28360 28227B 28239B
 $$$855F       2 000053C6 00000001     H   28328 28260B
 $$$857E       2 00005416 00000001     H   28394 28388
 $$$857F       2 0000550E 00000001     H   28683 28390B
 $$$858F       2 00005438 00000001     H   28448 28410B 28423B 28436B
1LINE     (LINE2193) (12:47) (15MAR04) Ordinary Symbol and Literal Cross Reference                                          Page  204
 $$$861F       2 000054D8 00000001     H   28637 28462B 28474B
 $$$864B       4 00005456 00000001     I   28495 28568
 $$$864F       2 000054A0 00000001     H   28565 28495B 28567
 $$$866F       2 000054A0 00000001     H   28561 28540B
 $$$868E       2 000054A4 00000001     H   28575 28569
 $$$868F       2 000054D8 00000001     H   28633 28571B
 $$$869F       2 000054D8 00000001     H   28629 28616B
 $$$87F        2 000005FA 00000001     H    8568  8558B
 $$$871F       2 0000550E 00000001     H   28679 28664B
 $$$872        1 00000160 00000001 A   U   28708 28705  28707
 $$$874B       1 0000553A 00000001     X   28767 28774U
 $$$875F       2 000055B4 00000001     H   28883 28870B
 $$$876F       2 000055DA 00000001     H   28916 28901B
 $$$877        1 00000054 00000001 A   U   28940 28937  28939
 $$$879B       1 0000567E 00000001     X   29014 29021U
 $$$88F        2 00000612 00000001     H    8591  8581B
 $$$880        1 00000050 00000001 A   U   29054 29051  29053
 $$$882B       1 000056B2 00000001     X   29081 29088U
 $$$883        1 00000050 00000001 A   U   29116 29113  29115
 $$$885B       1 000056E2 00000001     X   29143 29150U
 $$$886        1 00000050 00000001 A   U   29207 29204  29206
 $$$888B       1 00005720 00000001     X   29247 29254U
 $$$889F       2 00005736 00000001     H   29290 29275B
 $$$89F        2 0000061E 00000001     H    8628  8600B
 $$$890F       2 00005754 00000001     H   29330 29317B
 $$$891F       2 00005774 00000001     H   29362 29347B
 $$$892        1 00000050 00000001 A   U   29381 29378  29380
 $$$894B       1 000057A0 00000001     X   29442 29449U
 $$$895F       2 0000581A 00000001     H   29558 29545B
 $$$896F       2 000058B4 00000001     H   29852 29574B
 $$$896S       2 0000581E 00000001     H   29568 29851B
 $$$898B       4 00005828 00000001     I   29593 29817
 $$$898F       2 0000589A 00000001     H   29810 29593B 29612B 29816
 $$$90         6 0000110E 00000001     I    8618  8610X
 $$$900B       4 00005840 00000001     I   29644 29740
 $$$900F       2 0000586A 00000001     H   29736 29644B 29739
 $$$900T       2 00005844 00000001     H   29647 29633B
 $$$902F       2 00005852 00000001     H   29687 29663B
 $$$903        6 00006274 00000001     I   29677 29669X
 $$$904        6 00006274 00000001     I   29676 29677  29677
 $$$905F       2 0000585E 00000001     H   29725 29701B
 $$$906        6 0000627A 00000001     I   29715 29707X
 $$$907        6 0000627A 00000001     I   29714 29715  29715
 $$$908E       2 0000586E 00000001     H   29747 29741
 $$$908F       2 0000589A 00000001     H   29806 29743B
 $$$909E       2 0000589E 00000001     H   29824 29818
 $$$909F       2 000058AA 00000001     H   29843 29820B 29834B
 $$$91         6 0000110E 00000001     I    8617  8618   8618
 $$$911F       2 000058DE 00000001     H   29887 29872B
 $$$912        1 00000148 00000001 A   U   29911 29908  29910
 $$$914B       1 00005982 00000001     X   29986 29993U
 $$$915        1 00000050 00000001 A   U   30026 30023  30025
 $$$917B       1 000059B6 00000001     X   30053 30060U
 $$$918        1 00000050 00000001 A   U   30088 30085  30087
 $$$920B       1 000059E6 00000001     X   30115 30122U
 $$$921        1 00000050 00000001 A   U   30179 30176  30178
 $$$923B       1 00005A24 00000001     X   30263 30270U
 $$$924F       2 00005A4E 00000001     H   30347 30331B
 $$$924T       2 00005A4A 00000001     H   30334 30321B
1LINE     (LINE2193) (12:47) (15MAR04) Ordinary Symbol and Literal Cross Reference                                          Page  205
 $$$927F       2 00005ABC 00000001     H   30410 30395B
 $$$928F       2 00005CAA 00000001     H   30958 30428B
 $$$928S       2 00005AC8 00000001     H   30421 30957B
 $$$930F       2 00005AF2 00000001     H   30502 30443B
 $$$931F       2 00005AF2 00000001     H   30498 30459B
 $$$933F       2 00005CA2 00000001     H   30951 30517B
 $$$933S       2 00005AF6 00000001     H   30511 30950B
 $$$935F       2 00005B4C 00000001     H   30597 30535B
 $$$936F       2 00005B48 00000001     H   30592 30576B
 $$$938F       2 00005C36 00000001     H   30834 30619B
 $$$939F       2 00005C10 00000001     H   30812 30638B
 $$$94F        2 00000638 00000001     H    8674  8659B
 $$$940F       2 00005BBA 00000001     H   30724 30652B
 $$$941F       2 00005B94 00000001     H   30694 30667B
 $$$942F       2 00005BD8 00000001     H   30752 30740B
 $$$947F       2 00005C82 00000001     H   30914 30852B
 $$$948F       2 00005C9E 00000001     H   30946 30931B
 $$$949        1 000002D8 00000001 A   U   30982 30979  30981
 $$$951B       1 00005DC6 00000001     X   31104 31111U
 $$$952        1 00000050 00000001 A   U   31143 31140  31142
 $$$954B       1 00005DF2 00000001     X   31174 31181U
 $$$955F       2 00005E12 00000001     H   31224 31209B
 $$$956B       4 00005E82 00000001     I   31295 31394
 $$$956F       2 00005EB8 00000001     H   31389 31282B 31295B 31391
 $$$957B       4 00005E7A 00000001     I   31282 31392
 $$$958F       2 00005E94 00000001     H   31320 31307B
 $$$959F       2 00005EA8 00000001     H   31358 31345B
 $$$96F        2 00000650 00000001     H    8726  8685B
 $$$960F       2 00005EB6 00000001     H   31384 31371B
 $$$961E       2 00005EBC 00000001     H   31401 31393  31395
 $$$961F       2 00005EF6 00000001     H   31463 31397B
 $$$962F       2 00005EEA 00000001     H   31449 31417B
 $$$963F       2 00005EEA 00000001     H   31445 31432B
 $$$964F       2 00005F3E 00000001     H   31545 31483B
 $$$966F       2 00005FB8 00000001     H   31704 31558B 31608B
 $$$967F       2 00005F56 00000001     H   31590 31580B
 $$$97F        2 00000650 00000001     H    8722  8707B
 $$$971F       2 00005FAE 00000001     H   31695 31623B
 $$$972        1 00000050 00000001 A   U   31726 31723  31725
 $$$974B       1 0000629A 00000001     X   31871 31878U
 $$$975F       2 000062C2 00000001     H   31950 31934B
 $$$975T       2 000062BE 00000001     H   31937 31924B
 $$$978        1 00000150 00000001 A   U   32022 32019  32021
 $$$98F        2 00000662 00000001     H    8754  8738B
 $$$980B       1 0000641A 00000001     X   32125 32132U
 $$$982        1 00000050 00000001 A   U   32165 32162  32164
 $$$984B       1 00006446 00000001     X   32198 32205U
 $$$985F       2 00006486 00000001     H   32286 32227B
 $$$986F       2 00006482 00000001     H   32280 32244B
 $$$987F       2 0000647E 00000001     H   32275 32261B
 $$$988F       2 00006494 00000001     H   32314 32301B
 $$$99F        2 00000676 00000001     H    8796  8768B  8781B
 $$$990F       2 000064E8 00000001     H   32394 32332B
 $$$991F       2 0000651A 00000001     H   32470 32401B
 $$$992F       2 000064F6 00000001     H   32426 32415B
 $$$993F       2 0000652C 00000001     H   32506 32481B
 $$$994        1 00000050 00000001 A   U   32590 32587  32589
 $$$996B       1 00006650 00000001     X   32862 32869U
 $$$997F       2 0000665C 00000001     H   32911 32899B
1LINE     (LINE2193) (12:47) (15MAR04) Ordinary Symbol and Literal Cross Reference                                          Page  206
 $$$999F       2 00006806 00000001     H   33115 33033B
 @RAR          0 00000000 FFFFFFF0     @    1133  2191   2199B
 @R0           0 00000000 FFFFFFFE     @     706   982U
 @R1           0 00000000 FFFFFFFD     @     719   978U  2197   2198   8617   9373   9631  10397U 10469  10547  11241
                                                 11414  11551  11901  12821  12870  13340  13387  14762  14775  14782
                                                 14803  14816  14822  14871  14884  15027  15040  15101  15114  15141
                                                 15169  15184  15197  15381  15394  16197  16215  16235M 16240  16246
                                                 16588  16822  16835  16842  17643  17656  17674  18072  18085  18098
                                                 18116  18545  18558  18565  19197  19708  21288  21468  22445M 22446
                                                 22482  22491  25894  26577  27566  27611  28184  29592  29630  29643
                                                 29676  29714M 29833  29839M 29845  30726  30807  30814  31294  31330
                                                 32428  32509  32532M 32537  33242  34513M 35606  35726  35849  36336
                                                 40706  40766  41814  41893  42055  42134  42300  42358  43038  43075M
                                                 43108M 43141M 43174M 43259  43302  43349  43519  43566  43757  43907
                                                 44080  44272  46587  46640  46751  46767  46795  46942  47024  48902
 @R10          0 00000000 FFFFFFF4     @     836   942U
 @R11          0 00000000 FFFFFFF3     @     849   938U
 @R12          0 00000000 FFFFFFF2     @     862   934U
 @R13          0 00000000 FFFFFFF1     @     875   930U  9334M  9409  16526M 16662  24336  24391  39092  45946  50982
 @R14          0 00000000 FFFFFFF0     @     888   926U  9085  10443  34513
 @R15          0 00000000 FFFFFFEF     @     901   922U  8530  10331U 11824U 12087U 15046  15555  15614  16841  17075
                                                 17263  17673  17885  18115  18327  18564  18852  25890U 26660  26783U
                                                 27640  32464U 45411U 45691U 46976  47416  48697U 48861M 48902M 49936
                                                 50055
 @R2           0 00000000 FFFFFFFC     @     732   974U  8995   9085M  9119   9181   9385   9502U  9542M  9592  10596M
                                                 11339  16155M 16600  16634  18780M 18833M 19209  19784  19820  22491M
                                                 28409  28422  28435  32428M 32509M 40311  40361  46848  47024M 48640
                                                 48689M 48704U 48765
 @R3           0 00000000 FFFFFFFB     @     745   970U  8957U  9291M  9542   9771M 11414M 11485  11551M 13340  14448
                                                 14461  14468  14489  14842  16431M 16951U 17324  17912  18354  18879
                                                 19063M 22447  25085  39990  40003  40071  40084  40132  40145  40158
                                                 40171  40178  40217  40376M 40397M 43259M 43302M 43349M 43519M 43566M
                                                 43757M 43907M 44080M 44272M
 @R4           0 00000000 FFFFFFFA     @     758   966U  9334   9373M  9409M  9496U  9795M  9974U 10293U 10524U 11331M
                                                 11361M 15072  16526  16588M 16626M 16662M 17135M 17324M 17771  17790
                                                 17820  17912M 18213  18232  18262  18354M 18643  18662  18692  18833
                                                 18879M 19075  19197M 19236M 19490U 30504  30540  30565  30624  30695
                                                 30746  30747  30777  30816  30835  30915  30918M 30953  31231M 31464M
                                                 31591  31605  31686  31700M 40783  41265  41831  41910  42072  42151
                                                 46630
 @R5           0 00000000 FFFFFFF9     @     771   962U  9795   9940U 11361  15428  15488  16228  16240M 16245  46620
                                                 46629  46670  47946  47974
 @R6           0 00000000 FFFFFFF8     @     784   958U  7325U  7662U  7774U  7890U  8139U 12131U 12313U 12681U 13199U
                                                 14128U 14605U 15230U 15684U 15828U 15967U 16267U 16690U 16967U 17155U
                                                 17344U 17508U 17937U 18379U 18904U 19263U 19510U 19843U 19960U 20106U
                                                 20252U 20504U 20839U 20924U 21022U 21122U 21332U 21524U 21644U 21739U
                                                 22163U 22508U 23185U 23423U 23707U 23832U 27672U 29216U 30188U 31735U
                                                 45867U 46510U 47449U 48582U 48969U 50196U
 @R7           0 00000000 FFFFFFF7     @     797   954U  6743U  7335U  7555U  7667U  7779U  7895U  8144U 12141U 12318U
                                                 12686U 13209U 14133U 14610U 15235U 15689U 15833U 15972U 16272U 16695U
                                                 16972U 17160U 17349U 17513U 17942U 18384U 18909U 19268U 19515U 19848U
                                                 19965U 20111U 20257U 20509U 20844U 20929U 21027U 21127U 21337U 21529U
                                                 21649U 21744U 22168U 22513U 22641U 23190U 23315U 23428U 23507U 23610U
                                                 23712U 23837U 24056U 26801U 27157U 27218U 27302U 27368U 27435U 27501U
                                                 27652U 27898U 28697U 28929U 29043U 29105U 29196U 29370U 29900U 30015U
                                                 30077U 30168U 30971U 31132U 31715U 32011U 32154U 32579U 33383U 34249U
                                                 34405U 34541U 34650U 34777U 34904U 34977U 35050U 35117U 35184U 35257U
                                                 35371U 35515U 35634U 35757U 35880U 35948U 36016U 36092U 36162U 36229U
                                                 36479U 36592U 36656U 36726U 36792U 36867U 36944U 37006U 37130U 38098U
1LINE     (LINE2193) (12:47) (15MAR04) Ordinary Symbol and Literal Cross Reference                                          Page  207
                                                 38222U 38339U 38403U 38464U 38584U 38709U 38818U 38935U 39099U 39212U
                                                 39275U 39466U 39590U 39707U 39771U 39835U 40416U 40598U 41047U 41400U
                                                 41692U 41933U 42174U 42389U 42450U 42876U 43380U 43625U 43782U 44297U
                                                 44787U 45063U 45242U 45704U 46132U 46358U 46424U 46490U 47430U 47993U
                                                 48230U 48297U 48363U 48430U 48497U 48563U 48950U 49514U 49782U 49849U
                                                 49944U 50063U 50177U 50525U 50989U 51218U 51279U 51340U 51401U 51462U
 @R8           0 00000000 FFFFFFF6     @     810   950U  7330U 12136U 13204U 26796U 28692U 28924U 29895U 30966U 32006U
                                                 33378U 40411U 43375U 46127U 47988U 49509U
 @R9           0 00000000 FFFFFFF5     @     823   946U
 ABSCENT       1 00000000 00000000 A   T    2207  2207
 ACTCHK        1 00000000 00000035     T   31757 31757  50209
 ADDER         1 00000000 0000002C     T   27706 27706  43424
 ASCTBL        1 00000000 00000000 A   T    2215  2215
 B             2 00001DEC 00000001     H   17003 14164
 BADCHAR       2 0000277A 00000001     H   20134 14197
 BADFUNC       2 00003594 00000001     H   23734 20765  22545  23862
 BADNUM        2 00002724 00000001     H   19988 18411  20283
 BEXIT         2 00001E3E 00000001     H   17151 17116B
 BLTBL         1 00000000 00000000 A   T    2217  2217
 BR            7 00000007 00000001 A   #    1023  6706M  6781M  7521M  7588M  7700M  7812M  7935M  8416M 12236M 12361M
                                                 12774M 13253M 14365M 14654M 15279M 15734M 15877M 16017M 16317M 16740M
                                                 17017M 17205M 17411M 17558M 17987M 18462M 18954M 19313M 19551M 19885M
                                                 20002M 20148M 20338M 20791M 20882M 20967M 21065M 21166M 21376M 21568M
                                                 21688M 21782M 22207M 22590M 22674M 23284M 23348M 23461M 23540M 23647M
                                                 23748M 24000M 24199M 27052M 27190M 27251M 27335M 27401M 27468M 27535M
                                                 27776M 28006M 28762M 29009M 29076M 29138M 29242M 29437M 29981M 30048M
                                                 30110M 30258M 31099M 31169M 31866M 32120M 32193M 32857M 34215M 34282M
                                                 34438M 34574M 34683M 34810M 34937M 35016M 35083M 35150M 35223M 35291M
                                                 35405M 35549M 35668M 35791M 35914M 35982M 36050M 36128M 36195M 36262M
                                                 36558M 36625M 36693M 36759M 36825M 36900M 36977M 37040M 37228M 38194M
                                                 38255M 38372M 38436M 38503M 38631M 38790M 38851M 38970M 39178M 39245M
                                                 39351M 39562M 39623M 39740M 39804M 39907M 40484M 40636M 41094M 41439M
                                                 41729M 41970M 42211M 42423M 42487M 42939M 43465M 43663M 43829M 44347M
                                                 44862M 45152M 45282M 45829M 46271M 46391M 46457M 46536M 47522M 48177M
                                                 48263M 48330M 48396M 48463M 48530M 48608M 49073M 49748M 49815M 49882M
                                                 49977M 50096M 50268M 50574M 51190M 51251M 51312M 51373M 51434M
 BTD           1 00000000 00000012     T   12170 12170
 C             2 00001E4C 00000001     H   17191 14166
 CASEPSH       1 00000000 00000004     T    7396  7396  27017  31049  32070
 CEXIT         2 00001EA0 00000001     H   17335 17304B
 CHANGE        2 00006636 00000001     H   32841 32837  33407
 CHCFENCE      4 00000010 FFFFFFDD     F   32776 38049M 43869  43945  43952  44049  44120  44219  44226  44242  44245
 CHCOL1        4 00000004 FFFFFFDD     F   32773 37259M 37259  37401M 37677  37981  38541  40817M 40881  40930  40953
                                                 41153  41770  41774  42011  42015  42252  42256
 CHCOL2        4 00000008 FFFFFFDD     F   32774 37266M 37266  37705M 37995  38526  40837M 40946  40971  41170  41177
                                                 41773  42014  42255
 CHECKIOB      1 00000000 00000000 A   T    2263  2263
 CHFALL        4 00000000 FFFFFFDD        32688 34969M 40810
 CHFBLNKS     32 00000002 FFFFFFDD        32751 33254M 40901  40981
 CHFCHCOL     64 00000000 FFFFFFDD        32668 34765M 34892M 34963M 41128  41763  42004  42245
 CHFCHCT      32 00000003 FFFFFFDD        32770 44597  44608M
 CHFCHNGD    128 00000003 FFFFFFDD        32760 33334  41874  42115  42339  42519  43611M
 CHFCHSTR    128 00000000 FFFFFFDD        32663 33222  34308M 34464M 34600M 40863  41208  41862  42103  42327
 CHFCQUIT    128 00000002 FFFFFFDD        32741 44018M 44190M 44413M 44569M 44680
 CHFCTEXT     32 00000000 FFFFFFDD        32673 34470M 40729  41246
 CHFEDIT       8 00000001 FFFFFFDD        32717 36926M
 CHFENCE       4 0000000C FFFFFFDD     F   32775 37273M 37273  38046M 43698
 CHFIN         1 00000001 FFFFFFDD        32732 33274  37070  37092M
 CHFINCR      64 00000002 FFFFFFDD        32746 39944M 40037M 41618
1LINE     (LINE2193) (12:47) (15MAR04) Ordinary Symbol and Literal Cross Reference                                          Page  208
 CHFLAG1       1 00000000 FFFFFFDD     R   32659 32663  32668  32673  32678  32683  32688
 CHFLAG2       1 00000001 FFFFFFDD     R   32693 32697  32702  32707  32712  32717  32722  32727  32732
 CHFLAG3       1 00000002 FFFFFFDD     R   32737 32741  32746  32751
 CHFLAG4       1 00000003 FFFFFFDD     R   32756 32760  32765  32770
 CHFLCHNG     64 00000003 FFFFFFDD        32765 40567  40665M 41143  41488  43617M
 CHFLINE       4 00000001 FFFFFFDD        32722 36719M 41476
 CHFLOWER     64 00000001 FFFFFFDD        32702 36008M 41552
 CHFMOD       16 00000001 FFFFFFDD        32712 36851M
 CHFREP        2 00000001 FFFFFFDD        32727 36785M 42646  42717M
 CHFTO        16 00000000 FFFFFFDD        32678 33127  35109M
 CHFUPLOW     32 00000001 FFFFFFDD        32707 36084M 41585
 CHFUPPER    128 00000001 FFFFFFDD        32697 35940M 41519
 CHFUSING      8 00000000 FFFFFFDD        32683 33032  35176M 41651
 CHILEN        4 00000028 FFFFFFDD     F   32782 40246M 43200  43222  43317  43320  43365
 CHINCR        4 0000001C FFFFFFDD     F   32779 39945M 40344  42975
 CHIOFF        4 00000024 FFFFFFDD     F   32781 40239M 43232  43276  43316  43319  43322
 CHIPAT       12 0000002D FFFFFFDD     C   32784 40349M 40372  40372  40392  40392  42971
 CHISIGN       1 0000002C FFFFFFDD     C   32783 39952M 40178M 40333  43102  43135  43168
 CHITOTAL      4 00000020 FFFFFFDD     F   32780 40345M 42974  43019M
 CHKCOLS       2 00008158 00000001     H   38489 37159
 CHLINE      235 0000024C FFFFFFDD     C   32801 40675  40676  40706M 40848  40887  40929  40952  40970  41007  41029
                                                 41152  41176  41252  41769  42010  42251  43725  43875  44048  44237
                                                 44241
 CHLINELN      4 00000248 FFFFFFDD     F   32800 40679M 40888  43726  43869  43876  44238
 CHLNO         4 00000244 FFFFFFDD     F   32799 40512M 43972  44144  44373  44570  44579
 CHMSG        47 000097C4 00000001     C   44802 44743  44743
 CHMVNDX1      4 0000023C FFFFFFDD     F   32797 40849M 43490  43534M 43729  43879  44052
 CHMVNDX2      4 00000240 FFFFFFDD     F   32798 40850M 41156M 41284M 43491  43535M 43727M 43877M 44050M 44239M
 CHNDX         4 00000234 FFFFFFDD     F   32795 40851M 40933M 41157M 41178M 41214  41286M 43533  43728M 43878M 44051M
                                                 44240M
 CHNDXLIM      4 00000238 FFFFFFDD     F   32796 40912M 40954M 40995M 41006  41031M 41218
 CHNEWBUF    940 00000520 FFFFFFDD     C   32808 40844  43582  43922  43930  43951  44096  44104  44225  44244  44369
                                                 44576
 CHNEWNDX      4 0000051C FFFFFFDD     F   32807 40845M 43493  43528M 43540  43575M 43584  43600M 43731  43766M 43881
                                                 43916M 43923  43932M 43953M 44054  44089M 44097  44106M 44227  44246M
                                                 44281M 44370  44577
 CHNGEXIT      2 000089DA 00000001     H   40591 40570B
 CHNGRTN       2 0000897A 00000001     H   40470 33419
 CHNXP         2 0000978C 00000001     I   44727 44769B
 CHOCCCNT      4 00000018 FFFFFFDD     F   32778 40672M 40672  41309  41310M 41323  41344
 CHOCCUR       4 00000014 FFFFFFDD     F   32777 38662M 38662  39086M 41299  41323  41344
 CHSTR1      235 00000058 FFFFFFDD     C   32792 33228  34313  34475  34605  41265  41880  42121  42345
 CHSTR1LN      4 00000054 FFFFFFDD     F   32791 33229  34385M 34521M 34630M 38556  40907  40990  41011  41030  41215
                                                 41285  41881  41920  42122  42161  42346  42368
 CHSTR2      235 00000148 FFFFFFDD     C   32794 35327  35332  35430  35606M 35689M 35726M 35812M 35849M 39956  39957
                                                 40236  41677  43231  43315
 CHSTR2LN      4 00000144 FFFFFFDD     F   32793 35337M 35481M 35618M 35741M 35864M 39958  41679  43318  43364
 CHSUBADR      4 00000428 FFFFFFDD     F   32804 41678M 41844M 41919M 42085M 42160M 42313M 42367M 42377  42781M 42811
                                                 42815M 43363M 43538
 CHSUBBUF    235 00000430 FFFFFFDD     C   32806 41814M 41831M 41843  41893M 41910M 41918  42055M 42072M 42084  42134M
                                                 42151M 42159  42300M 42312  42358M 42366  42590  42591  42596  42724
                                                 42780  43233  43275  43321  43362
 CHSUBLN       4 0000042C FFFFFFDD     F   32805 41680M 41842M 41921M 42083M 42162M 42311M 42369M 42376  42779M 42832
                                                 42864M 43367M 43539
 CHUCOL1       4 00000044 FFFFFFDD     F   32787 36998M 42805  42812  42837
 CHUCOL2       4 00000048 FFFFFFDD     F   32788 36999M 42816
 CHUFIRST      4 0000003C FFFFFFDD     F   32785 36218M 36283M 42525  42597  42631  42723M 42725  42756  42784  42790M
 CHULAST       4 00000040 FFFFFFDD     F   32786 36219M 36284M 36393M 42567  42631  42756
 CHUPLINE    235 0000033C FFFFFFDD     C   32803 40735  40736  40766M 40783M 41252
1LINE     (LINE2193) (12:47) (15MAR04) Ordinary Symbol and Literal Cross Reference                                          Page  209
 CHUPLNLN      4 00000338 FFFFFFDD     F   32802 40739M
 CHUXFIR       4 0000004C FFFFFFDD     F   32789 36220M 36285M 42722
 CHUXLAST      4 00000050 FFFFFFDD     F   32790 36221M 36286M 36394M
 CHWA       2252 00000000 FFFFFFDD     J   32815 32854  32883U 32913  32921U 32929M 32929  32930M 32930  32931M 32931
                                                 32932M 32932  32933M 32933  32934M 32934  32935M 32935  32936M 32936
                                                 32937M 32937  33391  33393  33394
 CKQUOTES      1 00000000 00000041     T   37154 37154
 CLRPSH        1 00000000 00000024     T   26866 26866  26987
 CLRTEXT       1 00000000 00000028     T   27698 27698
 CMDFIN        1 00000000 00000038     T   31764 31764
 CNTRANGE      1 00000000 00000033     T   27728 27728
 COLBY         2 00004EE4 00000001     H   27237 26897
 COLCCHK       2 00004FA0 00000001     H   27521 27032
 COLCLPRT      4 00004C7C 00000001     F   26854 27697
 COLCNT        2 0000001E FFFFFFE3     H   24126 24766M 24766  24791M 25049  25627  25642M 27641M
 COLCONT       6 000044DC 00000001     I   24487 24309B
 COLCURLN      4 00000008 FFFFFFE3     F   24112 24803M 24858M 24885  24982  24989  25037  25195M 25337M 25353  25427
                                                 25579  25600  25738M 25974M 26026  26087  26122  26171  26219  26232
                                                 26315M 26336M 26337  26525M 26551M
 COLDEL        4 00000018 FFFFFFE3     F   24124 24830  25030M 25030  25101M 25193  25257  25739M 25975M 26103  26259
                                                 26523M 27149M 27295M
 COLEXIST      4 00004AB4 00000001     I   26362 25371B 26191B
 COLFAFT      64 00000000 FFFFFFE3        24090 24915  24915
 COLFBEF      32 00000000 FFFFFFE3        24095 24915  24915  24916M 24954
 COLFCS       64 00000021 FFFFFFE3        24139 24498  24607  24607  24608M
 COLFG5        1 00000020 FFFFFFE3     X   24127 24477M 24487  24583M 27116M
 COLFIX        4 00004B0A 00000001     I   26475 24857B 25331B 26291B
 COLFLAG       1 00000000 FFFFFFE3     R   24081 24085  24090  24095  24100  24105
 COLFLG        1 00000021 FFFFFFE3     R   24130 24134  24139  24144  24149  24154
 COLFLIST     16 00000000 FFFFFFE3        24100 24677M 25463  25594M 26462M
 COLFLN        4 00000010 FFFFFFE3     F   24122 24157  24157  24439M 24879  24969M 24989M 25043  25725  25960  26245
                                                 26252M 26475  26539  26551  26576  26685  27079M
 COLFMR      128 00000021 FFFFFFE3        24134 24781  25008  26330  27361M 27428M
 COLFPG        8 00000021 FFFFFFE3        24154 25122  25134M 25793M
 COLFRN       16 00000021 FFFFFFE3        24149 25216  25344M 25496  25610  25714  25746M 25868  25949  25982M 26558M
                                                 26676M
 COLFSPEC    128 00000000 FFFFFFE3        24085 27078M
 COLFUP       32 00000021 FFFFFFE3        24144 24522  24607  24607  24631M
 COLFVIEW      8 00000000 FFFFFFE3        24105 24694  27494M
 COLINFO      18 00000010 FFFFFFE3     X   24157 24421M 24433M 24433  25448  25676  25794
 COLLECT       2 00004378 00000001     H   24183 24179  27691
 COLLEN        2 0000001C FFFFFFE3     H   24125 24488  24584M
 COLLINE     256 00000022 FFFFFFE3     X   24160 25137  25534  25539  25761  25894M 25991  26075  26080  26086
 COLLNO        2 00004E5C 00000001     H   27038 26835
 COLLNPRT      4 00004C2C 00000001     F   26823 27692
 COLLOOP       2 0000478E 00000001     H   25409 24859B 25345B 26061B 26093B 26152B 26316B 26433B 26467B 26526B 26789B
 COLMERGE      2 00004F1C 00000001     H   27321 26912
 COLNEXLN      4 00000004 FFFFFFE3     F   24111 24804M 25250M 25328  25397M 25502  26134  26141  26308  26416M 26439M
                                                 26531  26623  26650
 COLNLN        4 00000014 FFFFFFE3     F   24123 24440M 24803  24821  25136  25171  25192  25194M 25222  25288  25312
                                                 25420  25427M 25778M 26226M 27148M
 COLNMER       2 00004F48 00000001     H   27387 26927
 COLNOLNO      2 00004EB8 00000001     H   27176 26850
 COLNWEND      4 0000000C FFFFFFE3     F   24113 25558  25617  26686M
 COLPRT        4 00004CCC 00000001     F   26885 27700
 COLSDONE      2 00007FBC 00000001     H   38091 37331B 37456B 37534B 37632B 37760B 37838B 37936B
 COLSJUNK      2 00008098 00000001     H   38241 38174
 COLSNULL      2 0000806C 00000001     H   38180 38129
 COLSNUM       2 000080FA 00000001     H   38358 38144
1LINE     (LINE2193) (12:47) (15MAR04) Ordinary Symbol and Literal Cross Reference                                          Page  210
 COLSPCOL      2 00000002 FFFFFFE3     H   24109 24908M 24908  25078M 25078
 COLSPRT       4 00007FCC 00000001     F   38117 39298
 COLSPSH       1 00000000 00000005     T    7411  7411
 COLSSLSH      2 0000812C 00000001     H   38422 38159
 COLVIEW       2 00004F74 00000001     H   27454 26942  26957
 COLVMSGX     43 00005002 00000001     C   27676 27678  27678
 COLWA       290 00000000 FFFFFFE3     J   24167 24196  24225U 24229  24237U 24245M 24245  24246M 24246  26809  26811
                                                 26812
 COMMAND       1 00000000 00000000 A   T    2203  2203
 COMMSEG       1 00000000 00000000 A   T    2204  2204
 CP         4096 00000000 FFFFFFEC     J    6217  1192U
 CP#XSTK       1 00000010 FFFFFFEC A   U    3949  3950
 CPACFLG       1 000005D5 FFFFFFEC     R    4052  4056   4061   4066   4071   4076
 CPACFLN       4 000005C4 FFFFFFEC     F    4044  4079   4079
 CPACHCT       4 000005B4 FFFFFFEC     F    4009 10488  10489M 11571  11572M 25774  25775M 26196  26197M 28674  28675M
                                                 28911  28912M 29357  29358M 29882  29883M 30562  30563M 30829  30830M
                                                 32527  32528M 44424  44425M 44531  44532M 44661  44662M 45418  45419M
                                                 45579  45580M 47299  47300M 47325  47326M 47918  47919M 49495  49496M
                                                 50855  50856M 50914  50915M
 CPACINFO     18 000005C4 FFFFFFEC     X    4079 24421  25448M 25676M 25794M
 CPACLNO       4 000005A8 FFFFFFEC     F    4006  8587M 10475M 11943M 24805M 25779M 25990M 28641M 28890M 29336M 29861M
                                                 30916M 33296M 44571M 44726  47797M 49320M 49474M
 CPAFLAG       1 000005C3 FFFFFFEC     R    4016  4020   4025   4030   4035
 CPAFLNO       4 000005A0 FFFFFFEC     F    4004 24982  36216
 CPALLNO       4 000005A4 FFFFFFEC     F    4005 24827  25294  26219  26488  36217
 CPALNCT       4 000005AC FFFFFFEC     F    4007 24653M 24653  25850M 25850  25909M 25909
 CPANAME       8 00000588 FFFFFFEC     C    3998  4094   4094
 CPATITL      80 000005D6 FFFFFFEC     C    4084 25925M 25925  25934M 27688
 CPAUTFLG      1 000008A9 FFFFFFEC     R    4362  4366   4371   4376   4381
 CPCHFLAG      1 00000B68 FFFFFFEC     R    4989  4993
 CPCMD       235 00000242 FFFFFFEC     C    2842 28362M 28368M 28371
 CPCMDLEN      2 00000240 FFFFFFEC     H    2841 28370M
 CPCMNM        3 00000D24 FFFFFFEC     C    5315 19708M
 CPCWA         4 00000CA4 FFFFFFEC     F    5241 31904M 32427  32508  32531  32938M 40509  45882M 46557  47562M 48629
 CPDELTA       4 00000738 FFFFFFEC     F    4101 24844  25271  26117  26273  27133
 CPDFLG        1 0000084C FFFFFFEC     R    4249  4253   4258   4263   4268   4273
 CPDFLG2       1 0000084D FFFFFFEC     R    4278  4282   4287   4292   4297   4302   4307
 CPDOUB        8 00000C88 FFFFFFEC     D    5235  9698  28368  50389
 CPDRPT        4 00000D84 FFFFFFEC     F    5677 10038  21234  21907  22312  22958  23013  25243  25368  25390  26352
                                                 26430  28259  28494  30798  31482  31579  49921  50040
 CPERRID       8 00000886 FFFFFFEC     C    4348 19687M 19687  19693  19700M 19700  28319M 33360M 36073M
 CPEXFLG       1 00000758 FFFFFFEC     R    4118  4122
 CPEXFLG2      1 00000759 FFFFFFEC     R    4128  4137   4147
 CPEXFLG3      1 0000075A FFFFFFEC     R    4154  4158   4163
 CPEXTFLG      1 00000E28 FFFFFFEC     R    5800  5804   5809   5814   5819   5824   5829
 CPFABORT    128 00000D5A FFFFFFEC         5566  2167M  2167   2172M  2172
 CPFALL        1 00000010 FFFFFFEC A   U    5332  6863  32944  37097
 CPFCASE      32 00000D57 FFFFFFEC         5506 24511  24511  24512M 24594
 CPFCLEAR     16 00000D55 FFFFFFEC         5446 24404  24404  24405
 CPFCMDED      1 00000020 FFFFFFEC A   U    3603  8656
 CPFCMDMD    128 00000C78 FFFFFFEC         5051  8580  10644  10757  11147  11383  19383  19635  21210  21612  21826
                                                 22251  22718
 CPFCOL        2 00000C4E FFFFFFEC     H    5031  8727
 CPFDESET      1 00000020 FFFFFFEC A   U    5398 45635
 CPFDITTO      1 00000001 FFFFFFEC A   U    5347 32145  32319
 CPFERROR     64 00000D5A FFFFFFEC         5571  2166M  2166   2171M  2171
 CPFFIRST     64 00000D58 FFFFFFEC         5526 45535  45558M
 CPFFOPT       1 00000010 FFFFFFEC A   U    5421 45019  46077  47675  49287
 CPFHIGH       1 00000040 FFFFFFEC A   U    5680 10036  21905  22310  22956  25241  25388  26428  30796  31577
1LINE     (LINE2193) (12:47) (15MAR04) Ordinary Symbol and Literal Cross Reference                                          Page  211
 CPFIATTN     32 00000C7A FFFFFFEC         5109 45657
 CPFKEEP       8 00000D55 FFFFFFEC         5451 24404  24404
 CPFLISXP      8 00000C78 FFFFFFEC         5071  6844   6844   6845   6845  12405
 CPFMODCD     16 00000C78 FFFFFFEC         5066  6732M  8706  36859  36859  36937M 50843  50843  50866  50866  50903M
                                                 50925  50925
 CPFMODXP     64 00000C78 FFFFFFEC         5056  6843   6843   6844   6844   6846M  8684  36859  36859  36860M 36932M
                                                 44391  44632  50843  50843  50844M 50866  50866  50867M 50898M 50925
                                                 50925  50926M
 CPFMTCH       1 00000008 FFFFFFEC A   U    5681 21232  23011  25366  26350  28257  28492  31480  49919  50038
 CPFNCUR      64 00000D57 FFFFFFEC         5501 33295M
 CPFNLST       1 00000020 FFFFFFEC A   U    5420  8642  10171  10422  10773  10822  10869  11055  11678  12419  12432
                                                 12619  13076  13118  15808  15950  19617  19942  20088  20234  21316
                                                 22143  23164  24475  24664  26448  27114  28049  28537  28613  30341
                                                 30456  31944  32298  32542  44463  44715  44903  44961  45045  45313
                                                 46022  46103  47177  47224  47619  47701  47817  49156  49313  49336
 CPFNONUM      1 000000C0 FFFFFFEC A   U    5419  8765   8790  50299
 CPFNTEX       1 00000040 FFFFFFEC A   U    5418  5419
 CPFNTYT       1 00000080 FFFFFFEC A   U    5679 10033  21902  22307  22953  25238  25385  26425  30793  31574
 CPFNUMXP     32 00000C78 FFFFFFEC         5061  6843   6843   6845   6845   8737
 CPFRDRNG      1 00000D88 FFFFFFEC     R    5686  5690   5695   5700   5705   5710   5715   5720
 CPFRDSRC      1 00000D89 FFFFFFEC     R    5725  5734   5744   5754
 CPFREP1       1 00000002 FFFFFFEC A   U    5346 32317  32507
 CPFRETRY     32 00000D5A FFFFFFEC         5576 19706M
 CPFSING       1 00000001 FFFFFFEC A   U    5423  7546   8645   8880  10342  10617  10880  11675  12447  12460  12594
                                                 12605  15811  19620  21012  21112  22074  23095
 CPFSOME       2 00000D88 FFFFFFEC         5720  6999  33316
 CPFSTINS      1 00000040 FFFFFFEC A   U    5397 26184  30606
 CPFTYPED     16 00000477 FFFFFFEC         3623 24464  25441  25669  27103  28238  28473  28663  28900  29346  29871
                                                 30330  31933  33349  44650  44892  44936  45568  46011  47608  47907
                                                 49145  49484
 CPFUFMT       8 00000C7C FFFFFFEC         5174  6858M
 CPFUNUM       1 00000080 FFFFFFEC A   U    5417  5419   8778  50345
 CPFUPPER     16 00000D57 FFFFFFEC         5511 12536  24511  24511  24535M 24618  50422
 CPFVER       32 00000D58 FFFFFFEC         5531 44446  44506  44620  45033  45353  45547  46091  47253  47689  47868
                                                 49301  49434
 CPFXDFLG      1 000007E4 FFFFFFEC     R    4196  4200   4205
 CPF3IMED      1 00000008 FFFFFFEC A   U    3605 28224  28459
 CPGETLN       2 00000868 FFFFFFEC     H    4334  8927M  8927   8979   9025   9027M  9249   9256   9511   9513M  9514
                                                 18695  18803  18845  18847M
 CPGETSTK      4 00000864 FFFFFFEC     F    4333  8978   9057   9347   9515  18804
 CPGFLG1       1 00000474 FFFFFFEC     R    3559  3563   3568   3573   3578   3583   3913   3913
 CPGFLG10      1 0000047D FFFFFFEC     R    3796  3800   3805   3810   3815   3820   3825
 CPGFLG11      1 0000047E FFFFFFEC     R    3831  3835   3840
 CPGFLG12      1 0000047F FFFFFFEC     R    3846  3850   3855   3860
 CPGFLG13      1 00000480 FFFFFFEC     R    3866  3870
 CPGFLG14      1 00000481 FFFFFFEC     R    3876  3880   3885   3890   3895   3900
 CPGFLG3       1 00000476 FFFFFFEC     R    3599  8658  28226  28461
 CPGFLG4       1 00000477 FFFFFFEC     R    3612  3623   3632   3641   3650   3659
 CPGFLG5       1 00000478 FFFFFFEC     R    3665  3669   3674   3679   3684   3689   3694   3699   3704
 CPGFLG6       1 00000479 FFFFFFEC     R    3710  3714   3719   3724
 CPGFLG7       1 0000047A FFFFFFEC     R    3730  3734   3739   3744   3749
 CPGFLG8       1 0000047B FFFFFFEC     R    3755  3759   3764   3769   3774
 CPGFLG9       1 0000047C FFFFFFEC     R    3780  3784   3790
 CPGFNATN      8 00000478 FFFFFFEC         3689 24035
 CPGFNLST      1 00000477 FFFFFFEC         3659 24452  27091  30318  31921  44919  45999  47596  49133
 CPINIT        1 00000174 FFFFFFEC     U    2729  6186
 CPJESFLG      1 000009E1 FFFFFFEC     R    4461  4465   4470   4475   4480   4485   4490   4495   4500
 CPJESFLY      1 000009FD FFFFFFEC     R    4511  4515   4520   4525
 CPJESHFL      1 000009E0 FFFFFFEC     R    4446  4450   4455   4534   4534
1LINE     (LINE2193) (12:47) (15MAR04) Ordinary Symbol and Literal Cross Reference                                          Page  212
 CPLCNO        4 0000073C FFFFFFEC     F    4103  8124   8461   8570   8587   9994M  9995  10022  10150M 10154  10465M
                                                 10474  10548  10565  10813M 12116M 21863M 21864  21891  22343  22989
                                                 24969  25042  25224M 25225  25250  25397  25503M 25510  25558M 25623M
                                                 25720  25737M 25752  25777  25955  25973M 25990  26027M 26066  26376
                                                 26439  30625M 30696  30777M 30778  30875  31232M 31467  31506  31563
                                                 32232  32321  32355  32471  32532  40512  44374M 44426  45303  45629
                                                 46720  46996  47052  47149M 47195M 47796M 47888  48676  48689  48822
                                                 48929  49348M 49384M 49904M 49906  50023M 50025  50857  50916
 CPLENGTH      2 0000087E FFFFFFEC     H    4346 46968
 CPLFLG1       1 00000D50 FFFFFFEC     R    5329  6865M 32946M 37097
 CPLFLG10      1 00000D59 FFFFFFEC     R    5552  5556
 CPLFLG11      1 00000D5A FFFFFFEC     R    5562  5566   5571   5576   5581
 CPLFLG12      1 00000D5B FFFFFFEC     R    5587  5591
 CPLFLG14      1 00000D5C FFFFFFEC     R    5597  5601   5606   5611   5616   5621
 CPLFLG2       1 00000D51 FFFFFFEC     R    5339 32147M 32317  32319  32507M
 CPLFLG4       1 00000D53 FFFFFFEC     R    5395  8629   8636M 11625M 12117M 26186M 30608M 45637M
 CPLFLG5       1 00000D54 FFFFFFEC     R    5414  7548M  8647M  8750M  8767   8780   8792M  8882M 10173  10344  10424M
                                                 10619  10775  10824  10871M 10882  11057M 11680M 12434M 12462M 12596M
                                                 12607  12621M 13078M 13120M 15813M 15952M 19622M 19944M 20090M 20236M
                                                 21014M 21114M 21318M 22076M 22145M 23097M 23166M 24487M 24583  24666
                                                 26450  28051M 28539  28615  30343M 30458  31946M 32300  32542  44465
                                                 44717  44905M 44963M 45021  45047M 45315  46024M 46079  46105M 47179
                                                 47226  47621M 47677  47703M 47819  49158M 49289  49315M 49338  50301
                                                 50347
 CPLFLG6       1 00000D55 FFFFFFEC     R    5427  5431   5436   5441   5446   5451   5456
 CPLFLG7       1 00000D56 FFFFFFEC     R    5462  5466   5471   5476   5481   5486
 CPLFLG8       1 00000D57 FFFFFFEC     R    5492  5496   5501   5506   5511
 CPLFLG9       1 00000D58 FFFFFFEC     R    5517  5521   5526   5531   5536   5541   5546
 CPLLEN        2 00000C52 FFFFFFEC     H    5034 24488M 24584  46954
 CPLOCALZ      1 00000C48 FFFFFFEC     U    5019  6180   6180
 CPMFLG        1 0000084F FFFFFFEC     R    4316  4320
 CPMODFLG      1 00000C78 FFFFFFEC     R    5047  5051   5056   5061   5066   5071
 CPMODNEX      4 00000C74 FFFFFFEC     F    5043  9985  11632M 11632  12124M 12124  21854  26087M 26146M 30695M 30748M
 CPNAMELN      1 00000010 FFFFFFEC A   U    3942  4189
 CPNEDPFX     10 00000E29 FFFFFFEC     X    5833  5834   5835
 CPNSCANP      4 0000008C FFFFFFEC     A    2602  6875   6882   6898  20410  20419  20426  20442  22624  22744  22751
                                                 22767  24251  24257  24264  24280  24333  24345  24351  24358  24374
                                                 24388  24548  24555  24571  27801  27856  27863  27879  28054  28806
                                                 28813  28829  28849  29296  29481  29488  29504  29524  30350  30357
                                                 30373  31237  31244  31259  31406  31954  31961  31977  32949  32956
                                                 32972  32986  32993  33009  33040  33047  33063  33077  33084  33100
                                                 33135  33142  33158  33172  33179  33195  34707  34834  35318  35572
                                                 35692  35815  36289  36296  36311  36358  36365  36381  36415  37278
                                                 37285  37301  37404  37411  37427  37481  37579  37586  37602  37708
                                                 37715  37731  37785  37883  37890  37906  38279  38667  38674  38690
                                                 38875  39018  39042  39051  39058  39074  39089  39374  39381  39397
                                                 39647  44974  44981  44997  45901  45907  45914  45929  45943  45968
                                                 46032  46039  46055  47630  47637  47653  48200  49171  49178  49194
                                                 49209  49216  49232  49247  49254  49270  50597  50686  50695  50702
                                                 50718  50979
 CPNUMFLG      1 00000C79 FFFFFFEC     R    5077  5089
 CPNWLN        4 00000D8C FFFFFFEC     F    5757  8124M 44426M 45630M 50857M 50916M
 CPOERRID      8 0000088E FFFFFFEC     C    4349 19693M
 CPORVCMD      1 00000140 FFFFFFEC     R    2611  2615   2620   2625   2630   2635   2640   2645   2650   2655   2655
                                                  2706   2706
 CPORVFLG      1 00000149 FFFFFFEC     R    2662  2666   2671   2676   2681   2686   2691   2696   2701
 CPORVWF       1 00000150 FFFFFFEC     R    2714  2718
 CPOSCANX      4 00000CA8 FFFFFFEC     F    5246  5313   5313
 CPR          11 0000000B 00000001 A   #    1087  1192U
1LINE     (LINE2193) (12:47) (15MAR04) Ordinary Symbol and Literal Cross Reference                                          Page  213
 CPRACBAD     16 000001FC FFFFFFEC         2780  2814   2814   2815   2815
 CPRACF1       1 000001FC FFFFFFEC     R    2761  2765   2770   2775   2780   2785   2790   2795   2800   2816
 CPRACPSW     32 000001FC FFFFFFEC         2775  2813   2813   2815   2815
 CPRACUND     64 000001FC FFFFFFEC         2770  2813   2813   2814   2814
 CPRCVCUR      4 00000730 FFFFFFEC     A    4097  4099   4099
 CPRFLG        1 000008AA FFFFFFEC     R    4387  4391   4396   4401   4406   4411   4416
 CPS         254 00000344 FFFFFFEC     X    3531  3534   3535   3537   3537
 CPSACCT       5 000003B4 FFFFFFEC     C    3130  3293   3293
 CPSAMCOD      1 00000A22 FFFFFFEC     R    4583  4591   4601   4611   4620   4629   4638   4648   4657   4666
 CPSAMFLG      1 00000A21 FFFFFFEC     R    4543  4547   4552   4557   4562   4567   4572   4577   4688   4688
 CPSCNFLG      1 00000CD0 FFFFFFEC     R    5259  5270   5279   5290
 CPSCNF2       1 00000CD1 FFFFFFEC     R    5295  5299
 CPSCNMAX      1 00000014 FFFFFFEC A   U    5311  5312
 CPSCRI        2 00000434 FFFFFFEC     H    3520  3525   3525
 CPSEG        60 00000050 FFFFFFEC     X    2600  6964   7040   7092   7113   7146   7167   7204   7225   7262   7283
                                                  7312   8847   9678   9722  10090  10108  10237  10412  10698  10719
                                                 10737  10855  11271  11729  11761  11790  11885  12518  13164  13182
                                                 14537  14578  14917  14965  15005  15447  16884  17473  17809  18251
                                                 18681  18727  19402  19446  19654  19672  19815  19933  20061  20079
                                                 20207  20225  21951  21984  22017  22331  22377  22399  22417  22864
                                                 22893  22911  22977  23032  23061  23079  23495  23580  23598  23695
                                                 23802  23820  26056  26371  26400  26606  26645  26720  26749  28283
                                                 28312  28343  28514  28590  29178  29773  29791  30150  30490  30685
                                                 30870  30899  31501  31530  31641  31663  31681  32350  32379  32564
                                                 34349  35465  42665  42702  43967  43996  44139  44168  44558  47080
                                                 47109  47127  47736  47850  48671  48799  48817  49378  49414  50130
                                                 50159  50404  50625  50652  50754  50965
 CPSEGCOD      1 00000050 FFFFFFEC     R    2517  2526   2536   2546   2556   2566   2576   2586
 CPSFL         1 00000384 FFFFFFEC     R    2868  2872   2877   2882   2887   2892
 CPSFLG        1 000003F8 FFFFFFEC     R    3408  3412   3417   3422   3427   3432   3437   3442   3447
 CPSFLG2       1 000003F9 FFFFFFEC     R    3453  3457   3462   3467
 CPSFL2        1 00000385 FFFFFFEC     R    2898  2902   2907   2912   2917
 CPSFL3        1 00000386 FFFFFFEC     R    2923  2927   2932   2937
 CPSFL4        1 00000387 FFFFFFEC     R    2943  2947   2952   2957
 CPSFL5        1 00000388 FFFFFFEC     R    2963  2967   2972   2977
 CPSKAFL       1 000003BF FFFFFFEC     R    3264  3268   3273   3278   3283   3288
 CPSKIFL       1 000003BE FFFFFFEC     R    3219  3223   3228   3233   3238   3243   3248   3253   3258
 CPSOF         1 000001F8 FFFFFFEC     X    2751  2753   2753
 CPSOFLAG      1 00000416 FFFFFFEC     R    3478  3482   3487   3492   3497   3502
 CPSOPST       4 000003C4 FFFFFFEC     F    3298  3527   3527
 CPSPORT       8 00000354 FFFFFFEC     C    2862  2982   2982
 CPSQFLG       1 000003EC FFFFFFEC     R    3327  3331
 CPSSFLG       1 000003BB FFFFFFEC     R    3137  3141   3146   3151   3156   3161   3166
 CPSSTART      4 00000344 FFFFFFEC     F    2854  2858   2858   3294   3294   3399   3399   3531   3531
 CPSSTAT       1 0000038F FFFFFFEC     R    3074  3078   3083   3088   3093   3098   3103   3108
 CPSTACF       1 000003BC FFFFFFEC     R    3172  3176   3181   3186   3191   3196   3201   3206   3211
 CPSTART       4 00000000 FFFFFFEC     C    2490  6184   6188
 CPSTFLAG      1 000003EA FFFFFFEC     R    3305  3309   3314   3319
 CPSTLNO       4 00000740 FFFFFFEC     F    4104 47150M 47196M
 CPSTYPE       1 0000038C FFFFFFEC     R    2987  2996   3006   3016   3026   3036   3046   3056   3066
 CPSUFLG       1 000003EE FFFFFFEC     R    3342  3346   3351   3356   3361   3366   3371   3376   3381
 CPSUFLG2      1 000003EF FFFFFFEC     R    3387  3391   3396
 CPSVPGM       8 0000039C FFFFFFEC     C    3120  3126   3126
 CPS1ST        4 0000038C FFFFFFEC     F    2984  3529   3529
 CPTEMPP#      1 0000005F FFFFFFEC A   U    4437  4439
 CPTRMFL1      1 00000C7A FFFFFFEC     R    5095  5099   5104   5109   5233   5233
 CPTRMFL2      1 00000C7B FFFFFFEC     R    5115  5119   5124   5129   5134   5139   5144
 CPTRMFL3      1 00000C7C FFFFFFEC     R    5150  5154   5159   5164   5169   5174   5179   5184
 CPTRMFL4      1 00000C7D FFFFFFEC     R    5190  5194   5199   5204   5209   5214   5219   5224
1LINE     (LINE2193) (12:47) (15MAR04) Ordinary Symbol and Literal Cross Reference                                          Page  214
 CPUSED        1 00000FBC FFFFFFEC A   U    6184  6185
 CPVACURS      8 00000AF0 FFFFFFEC     D    4962  4963   4964
 CPVCOL        2 00000ADA FFFFFFEC     H    4954 25781M 46322  47348  47417M 48936  48938M
 CPVCURS       8 00000AE0 FFFFFFEC     D    4956  4957   4958
 CPVFCLR     128 00000AC9 FFFFFFEC         4791 24735M
 CPVFLAG       1 00000AC8 FFFFFFEC     R    4757  4761   4766   4771   4776   4781
 CPVFLAG2      1 00000AC9 FFFFFFEC     R    4787  4791   4796   4801   4806   4811   4816
 CPVFLAG3      1 00000ACA FFFFFFEC     R    4822  4826   4831   4836   4841   4846   4851
 CPVFLAG4      1 00000ACB FFFFFFEC     R    4857  4861   4866   4871
 CPVFPAGE    128 00000AC8 FFFFFFEC         4761 24709  24731M 24750  25478  25699  26701  30442  30534  32226  44483
                                                 44701  44948  45330  45893  46315
 CPVLFLAG      1 00000ACE FFFFFFEC     R    4926  4930   4935   4940
 CPVLNO        4 00000ADC FFFFFFEC     F    4955 25780M 47342  47365M 48929  48935M
 CPVMODE       1 00000ACC FFFFFFEC     R    4879  4883   4888   4893   4898   4903   4908   4913   4918
 CPVMSG       80 00000AFC FFFFFFEC     C    4967 30581M 30582M 32249M 32250M 44743M
 CPVTWID       2 00000AD0 FFFFFFEC     H    4946  4949   4949
 CPWKDL        4 00000E18 FFFFFFEC     F    5789 11746M 11923  25618  25727  25739  25962  25968M 25975  26670M 26725
 CPWKPS        4 00000E14 FFFFFFEC     F    5788 11747M 11922  25726  25961  26534M 26575
 CPWK1         4 00000D60 FFFFFFEC     F    5630  5645   5668  45176M 45202  45208  45445  45451M 45505  45512M
 CPWK2         4 00000D64 FFFFFFEC     F    5631  5646   5660  45177M 45209  45452M 45488M 45506  45513M 45594
 CPWK3         4 00000D68 FFFFFFEC     F    5632  5647   5661  45178M 45453M 45481  45514M 45643M
 CPWK4         4 00000D6C FFFFFFEC     F    5633  5648   5662   6832M  7956
 CPWK5         4 00000D70 FFFFFFEC     F    5634  5650   5655   5663
 CPWK6         4 00000D74 FFFFFFEC     F    5635  5651   5656   5664   5671   5673
 CPWK7         4 00000D78 FFFFFFEC     F    5636  5649   5665
 CPWK8         4 00000D7C FFFFFFEC     F    5637 44512M 47215M 47808M 47889  50845  50904
 CPXFLAG       1 000007FD FFFFFFEC     R    4224  4228
 CPXSTATE      4 000007F8 FFFFFFEC     F    4218  4231   4231
 CV         4016 00000000 FFFFFFEE     J    2393  1201U
 CVABORT       4 000007DA FFFFFFEE     I    2172 12571B 26626B 30630B 32271B 44683B 44764B 45230B
 CVABSRTN      4 0000088C FFFFFFEE     V    2207  2182
 CVABTMSG      4 000007CC FFFFFFEE     I    2167 26509B 26655B 28324B 29286B 32390B
 CVBLANKS    235 000004D8 FFFFFFEE     C    1987  9291   9771  11331  16155  16431  16626  17135  18780  19063  19236
                                                 30581  32249  32495  46721  46764  50315
 CVBRMSK       1 00000751 FFFFFFEE     X    2123  2124   2125
 CVCFLAG       1 00000A00 FFFFFFEE     R    2288  2292   2297   2302   2307   2312
 CVCHKST       8 000009F0 FFFFFFEE     D    2278  2368   2368
 CVCHKST2      8 00000E28 FFFFFFEE     D    2371  2374   2374
 CVCOMRTN      4 0000087C FFFFFFEE     V    2203  2173
 CVCURJCB      4 000001C8 FFFFFFEE     A    1472 10302  10368  11795  12058  25819  26754  32435  45382  45663
 CVDBGFLG      1 000004CC FFFFFFEE     R    1977  1981
 CVENT         4 0000074C FFFFFFEE     I    2121  6706B  6781B  7521B  7588B  7700B  7812B  7935B  8416B 12236B 12361B
                                                 12774B 13253B 14365B 14654B 15279B 15734B 15877B 16017B 16317B 16740B
                                                 17017B 17205B 17411B 17558B 17987B 18462B 18954B 19313B 19551B 19885B
                                                 20002B 20148B 20338B 20791B 20882B 20967B 21065B 21166B 21376B 21568B
                                                 21688B 21782B 22207B 22590B 22674B 23284B 23348B 23461B 23540B 23647B
                                                 23748B 24000B 24199B 27052B 27190B 27251B 27335B 27401B 27468B 27535B
                                                 27776B 28006B 28762B 29009B 29076B 29138B 29242B 29437B 29981B 30048B
                                                 30110B 30258B 31099B 31169B 31866B 32120B 32193B 32857B 34215B 34282B
                                                 34438B 34574B 34683B 34810B 34937B 35016B 35083B 35150B 35223B 35291B
                                                 35405B 35549B 35668B 35791B 35914B 35982B 36050B 36128B 36195B 36262B
                                                 36558B 36625B 36693B 36759B 36825B 36900B 36977B 37040B 37228B 38194B
                                                 38255B 38372B 38436B 38503B 38631B 38790B 38851B 38970B 39178B 39245B
                                                 39351B 39562B 39623B 39740B 39804B 39907B 40484B 40636B 41094B 41439B
                                                 41729B 41970B 42211B 42423B 42487B 42939B 43465B 43663B 43829B 44347B
                                                 44862B 45152B 45282B 45829B 46271B 46391B 46457B 46536B 47522B 48177B
                                                 48263B 48330B 48396B 48463B 48530B 48608B 49073B 49748B 49815B 49882B
                                                 49977B 50096B 50268B 50574B 51190B 51251B 51312B 51373B 51434B
 CVENTBR       2 00000750 FFFFFFEE     I    2122  2123
1LINE     (LINE2193) (12:47) (15MAR04) Ordinary Symbol and Literal Cross Reference                                          Page  215
 CVERRMSG      4 000007C8 FFFFFFEE     I    2166 26411B 29036B 29189B 29802B 30008B 30161B 30406B 30910B 31220B 31541B
                                                 31691B 33365B 34242B 34360B 35043B 35250B 35476B 36078B 36155B 36585B
                                                 37082B 37115B 38568B 39205B 40278B 41798B 42039B 42280B 42551B 42579B
                                                 42768B 43014B 47789B 48681B 48827B 49775B 49842B 50017B 50170B
 CVERROR       4 000007D6 FFFFFFEE     I    2171  2187B  6988B  8122B 32569B 33306B 44419B
 CVEXIRTN      4 0000077C FFFFFFEE     V    2151  2147
 CVEXNO        1 00000000 0000001B     T   12191 12191  23867  27725  31759  32620  44816  48992  50224  51484
 CVFCHRKBPR
               8 000004C9 FFFFFFEE         1892  1908   1908
 CVFCHRKBSE
               4 000004C9 FFFFFFEE         1897  1908   1908
 CVFCHRKCPR
               2 000004C9 FFFFFFEE         1914  1930   1930
 CVFCHRKCSE
               1 000004C9 FFFFFFEE         1919  1930   1930
 CVFCHRUBPR
             128 000004C9 FFFFFFEE         1848  1864   1864
 CVFCHRUBSE
              64 000004C9 FFFFFFEE         1853  1864   1864
 CVFCHRUCPR
              32 000004C9 FFFFFFEE         1870  1886   1886
 CVFCHRUCSE
              16 000004C9 FFFFFFEE         1875  1886   1886
 CVFL          1 000004C4 FFFFFFEE     R    1644  1648   1653   1658   1663   1668   1673   1678   1683
 CVFL2         1 000004C5 FFFFFFEE     R    1689  1693   1698   1703   1708   1713   1718   1723   1728
 CVFL3         1 000004C6 FFFFFFEE     R    1734  1738   1743   1748   1753   1758   1763   1768   1773
 CVFL4         1 000004C7 FFFFFFEE     R    1779  1783   1788   1793   1798   1803   1808   1813
 CVFL5         1 000004C8 FFFFFFEE     R    1819  1823   1828   1833   1838
 CVFL6         1 000004C9 FFFFFFEE     R    1844  1848   1853   1865   1870   1875   1887   1892   1897   1909   1914
                                                  1919   1931
 CVHEAP#       1 00000200 FFFFFFEE A   U    1550  1551
 CVHILNO       4 00000160 FFFFFFEE     A    1437 10045  21914  24804  26416  26623  31586
 CVINVRTN      4 00000888 FFFFFFEE     V    2206  2176
 CVJESFLG      1 000004CA FFFFFFEE     R    1937  1941
 CVLNKRGS      4 00000780 FFFFFFEE     F    2153  2128M  2154
 CVLNKRTN      4 000007B0 FFFFFFEE     U    2154  2143M
 CVLOCK1       1 00000088 FFFFFFEE     R    1295  1299   1304
 CVLOCK2       1 00000089 FFFFFFEE     R    1309  1313
 CVLOCK3       1 0000008A FFFFFFEE     R    1318  1322
 CVLOCK4       1 0000008B FFFFFFEE     R    1327  1331
 CVLOGMOD      1 00000068 FFFFFFEE     R    1282  1286
 CVLOWTBL      4 000008AC FFFFFFEE     V    2214 42063  42142
 CVMACH        1 00000067 FFFFFFEE     R    1242  1246   1251   1256   1261   1266   1271   1276
 CVMAXLNO      4 0000015C FFFFFFEE     A    1436 26489
 CVMILRTN      4 00000884 FFFFFFEE     V    2205  2185
 CVNEXT        4 000007DE FFFFFFEE     I    2173  7002B  7020B  7318B  8123B 24038B 24048B 25681B 25795B 25853B 25884B
                                                 26092B 26151B 27891B 28685B 28917B 29363B 29888B 30719B 30757B 30959B
                                                 32433B 33319B 33352B 33370B 42707B 44418B 45056B 47268B 47759B 47883B
                                                 47980B 49449B 49501B 50850B 50909B
 CVNOACTN      4 000007EA FFFFFFEE     I    2179 30587B 47741B 50671B
 CVNOARTN      4 00000890 FFFFFFEE     V    2208  2179
 CVNWDATE      4 00000608 FFFFFFEE     F    2010  2014   2014
 CVNWMPG#      1 00000008 FFFFFFEE A   U    2012  2013
 CVNXTMSG      4 000007D0 FFFFFFEE     I    2168 25879B
 CVONE         4 000004D0 FFFFFFEE     F    1985  9993  14467  21862  22286  22344  23384  25223  45595
 CVPFXRTN      1 00000000 00000000 A   T    2151  2151
 CVPGFLAG      1 00000A01 FFFFFFEE     R    2318  2322   2327   2332
 CVPIOSZ       1 00004F80 FFFFFFEE A   U    1381  1383
 CVPPDBQH      4 0000009C FFFFFFEE     A    1339  1340
1LINE     (LINE2193) (12:47) (15MAR04) Ordinary Symbol and Literal Cross Reference                                          Page  216
 CVPSFNO       1 000003E9 FFFFFFEE A   N    1503  1505
 CVPSLNO       1 000007CF FFFFFFEE A   N    1504  1505
 CVPXSZ        1 00000008 FFFFFFEE A   U    1382  1383
 CVR          12 0000000C 00000001 A   #    1100  1201U
 CVRKEY        1 00000008 FFFFFFEE A   U    2076  2077
 CVSEGRTN      4 00000880 FFFFFFEE     V    2204  2168
 CVSTACK#      1 00000080 FFFFFFEE A   U    1542  1543
 CVSTART       4 00000000 FFFFFFEE     C    1215  2386
 CVTRC         4 00000768 FFFFFFEE     I    2143  2129B
 CVTRCRTN      4 00000778 FFFFFFEE     V    2150  2144
 CVUPPTBL      4 000008A8 FFFFFFEE     V    2213 34500  40774  41822  41901
 CVUSFNO       1 00000001 FFFFFFEE A   N    1510  1512
 CVUSLNO       1 000003E7 FFFFFFEE A   N    1511  1512
 CVVOL#        1 00000005 FFFFFFEE A   U    2361  2362
 CVWTOFLG      1 000004CB FFFFFFEE     R    1947  1951   1956   1961   1966   1971
 D             2 00002110 00000001     H   17973 14168
 DEBUGSG       1 00000000 00000000 A   T    2104  2104
 DELETE        2 0000987C 00000001     H   44848 44844
 DELJOIND      2 0000116E 00000001     H   12222 12177
 DELPRT        4 00009948 00000001     F   45082 45727
 DELRANGE      1 00000000 0000001D     T   12710 12710  22546  27711  45736  49008
 DELRTN        2 00009A28 00000001     H   45268 45733
 DELSUB        2 000099C0 00000001     H   45138 45134  45730
 DEQSTR        1 00000000 00000043     T   37161 37161
 DESABORT      1 00000004 FFFFFFEC A   U    6200  8173  32611  33418  45732  48985  49001
 DESNRTN       1 00000000 FFFFFFEC A   U    6194 32611  48985
 DESRTRN       1 00000080 FFFFFFEC A   U    6193  8173  33418  45732  49001
 DEV          12 00000000 FFFFFFEB     J    4742  4750
 DEVMAX#       1 00000002 FFFFFFEC A   U    4693  4750
 DEVTYPE       1 00000001 FFFFFFEB     R    4710  4719   4729
 DEXIT         2 00002204 00000001     H   18375 18257B 18297B
 DIGERR        2 000026DE 00000001     H   19871 18407
 DIGEXIT       2 00001870 00000001     H   14601 14425B 14474B 14500B 14543B 14584B
 DIGIT         2 000017AE 00000001     H   14351 14196
 DIGLOOP       2 000017E6 00000001     H   14437 14469B
 DLP           2 0000218A 00000001     H   18204 18263B
 DOCHANGE      2 000093A4 00000001     H   43451 43407
 DOEND         2 00009438 00000001     H   43649 43408
 DOFENCE       2 000094A2 00000001     H   43815 44813
 DONLIST       4 00009724 00000001     I   44570 44468B 44486B 44533B 44563B
 DOTTBL        1 00000000 00000000 A   T    2220  2220
 DRENCFLG      1 00000F9F FFFFFFEC     R    6148  6152   6157   6162   6167   6172
 DRENPROT      1 00000F9E FFFFFFEC     R    6135  6143
 DSNON        40 00000E90 FFFFFFEC     C    5868  5869
 DSNWADSN     44 00000E5C FFFFFFEC     C    5855  5856   5857   5858   5867   5875   6106   6112   6114   6120   6123
                                                  6125   6128   6177
 DSNWAF4       1 00000F37 FFFFFFEC     R    5923  5927   5932   5937   5942   5947   5952   5957   5962
 DSNWAF5       1 00000F38 FFFFFFEC     R    5968  5972   5977   5982   5987   5992   5997   6002   6007
 DSNWAF6       1 00000F39 FFFFFFEC     R    6013  6017   6022   6027   6032   6037   6042   6047   6052
 DSNWAF7       1 00000F3A FFFFFFEC     R    6058  6062   6067   6072   6077
 DSNXG         1 00000004 FFFFFFEC A   U    5860  5862
 DSNXGL        1 00000003 FFFFFFEC A   U    5861  5862
 DSNXU         1 00000007 FFFFFFEC A   U    5862  5864
 DSNXUL        1 00000004 FFFFFFEC A   U    5863  5864
 DSSIZ         1 00000108 FFFFFFEC A   U    6106  6114   6123   6128
 DTB           1 00000000 0000001F     T   18408 18408  27732  31791
 E             2 00001BC0 00000001     H   16003 14158
 EBCTBL        1 00000000 00000000 A   T    2216  2216
 EBCTBL7       1 00000000 00000000 A   T    2219  2219
1LINE     (LINE2193) (12:47) (15MAR04) Ordinary Symbol and Literal Cross Reference                                          Page  217
 ECBLIST       1 00000000 00000000 A   T    2079  2079
 EDCHAR        1 00000000 FFFFFFE4     C   12743 12821M 12835  12849  12856M 12889  12924  12959  12994  13029  13064
                                                 13107
 EDIT          2 0000004A 00000001     H    6765  6761   8166
 EDITS         2 000012AE 00000001     H   12758 12183
 EDTCOMNH      1 00000000 00000037     T   31763 31763
 EDWA          1 00000000 FFFFFFE4     J   12750 12771  12800U 13217  13219  13220
 ENDLNO        1 00000000 0000003A     T   31774 31774
 ENDPDONE      2 000097B6 00000001     H   44780 44525B
 ENDPROC       2 0000963E 00000001     H   44333 43409
 EPARTBL       1 00000000 00000000 A   T    2211  2211
 EXCHANGE      2 0000A852 00000001     H   49057 49053
 EXCHLIN1    256 00000000 FFFFFFD8     C   49036 49324M 49325  49326M 49383  49384  49458  49459  49903M 49936M 50005
 EXCHLIN2    256 00000100 FFFFFFD8     C   49037 49324  49325M 49326  49347  49348  49468  49469  49474  50022M 50055M
 EXCHPRT       4 0000AC14 00000001     F   49686 50214
 EXCHWA      512 00000000 FFFFFFD8     J   49044 49070  49099U 49103  49111U 49119M 49119  49120M 49120  49522  49524
                                                 49525
 EXLN1PRT      4 0000AA84 00000001     F   49534 50210
 EXLN2PRT      4 0000AB4C 00000001     F   49610 50213
 EXL1          2 0000ACF4 00000001     H   49868 49561
 EXL1NULL      2 0000AC8C 00000001     H   49734 49546
 EXL2          2 0000AD48 00000001     H   49963 49637
 EXL2NULL      2 0000ACC0 00000001     H   49801 49622
 EXVOID        2 0000ADB0 00000001     H   50082 50222
 FCOLEXIT      2 00002FC2 00000001     H   22159 21837B 22027B
 FCOLLECT      2 00002EB6 00000001     H   21768 20690  22547
 FDELETE       2 00002E36 00000001     H   21554 20660
 FDELEXIT      2 00002E76 00000001     H   21640 21623B
 FEDIT         2 00002D00 00000001     H   21051 20630
 FINSERT       2 00002E84 00000001     H   21674 20675
 FIRST         4 000064A8 00000001     I   32321 32318B 32466B
 FJEXIT        2 000030D0 00000001     H   22504 22262B 22337B 22423B
 FJOIN         2 00002FD0 00000001     H   22193 20705
 FJOINTRM      2 000030B4 00000001     H   22473 22492B
 FLINE         2 00003208 00000001     H   22660 20750  23861
 FLINENO       2 00003454 00000001     H   23270 23234
 FLINEXIT      2 000033A4 00000001     H   23181 22729B 22790B 22809B 22917B 22983B 23085B
 FLINV         2 0000350E 00000001     H   23526 23264
 FLMISS        2 000034D0 00000001     H   23447 23249
 FLNPRT        4 000033B4 00000001     F   23207 23863
 FMODIFY       2 00002CCC 00000001     H   20953 20615
 FNEXT         2 00003486 00000001     H   23334 23219
 FPRNX         2 000031CC 00000001     H   22576 20720  20735
 FREPEXIT      2 00002E28 00000001     H   21520 21432B 21462B 21509B
 FREPLACE      2 00002DAE 00000001     H   21362 20645
 FREVERT       2 00002D34 00000001     H   21152 20600
 FREVNL        4 00002D7A 00000001     I   21261 21213B
 FSKIP         2 00002C9C 00000001     H   20868 20585
 FSR           0 00000000 00000001 A   #    1010  6701   6751M  6775   7343M  7516   7563M  7583   7675M  7695   7787M
                                                  7807   7903M  7930   8152M 12231  12326M 12768  13217M 13248  14141M
                                                 15729  15841M 15872  15980M 17012  17168M 17200  17357M 17406  17521M
                                                 19308  19523M 19546  19856M 19880  19973M 19997  20119M 20143  20265M
                                                 20333  20517M 20786  20852M 20877  20937M 20962  21035M 21060  21135M
                                                 21161  21345M 21371  21537M 21563  21657M 21683  21752M 21777  22176M
                                                 22202  22521M 22585  22649M 22669  23198M 23279  23307M 23323M 23343
                                                 23415M 23436M 23456  23515M 23535  23618M 23642  23720M 23743  23845M
                                                 23995  24064M 24193  26809M 27047  27165M 27185  27226M 27246  27310M
                                                 27330  27376M 27396  27443M 27463  27509M 27530  27660M 27771  27906M
                                                 28000  28705M 28756  28937M 29004  29051M 29071  29113M 29133  29204M
1LINE     (LINE2193) (12:47) (15MAR04) Ordinary Symbol and Literal Cross Reference                                          Page  218
                                                 29237  29378M 29431  29908M 29976  30023M 30043  30085M 30105  30176M
                                                 30252  30979M 31094  31140M 31164  31723M 31860  32019M 32115  32162M
                                                 32188  32587M 32851  33391M 34210  34257M 34277  34413M 34433  34549M
                                                 34569  34658M 34678  34785M 34805  34912M 34932  34985M 35011  35058M
                                                 35078  35125M 35145  35192M 35218  35265M 35286  35379M 35400  35523M
                                                 35544  35642M 35663  35765M 35786  35888M 35909  35956M 35977  36024M
                                                 36045  36100M 36123  36170M 36190  36237M 36257  36487M 36553  36600M
                                                 36620  36648M 36664M 36688  36734M 36754  36800M 36820  36875M 36895
                                                 36952M 36972  37014M 37035  37138M 37223  38106M 38189  38230M 38250
                                                 38347M 38367  38395M 38411M 38431  38472M 38498  38592M 38626  38717M
                                                 38785  38826M 38846  38943M 38965  39107M 39173  39220M 39240  39268M
                                                 39283M 39346  39459M 39474M 39557  39598M 39618  39715M 39735  39763M
                                                 39779M 39799  39827M 39843M 39901  40424M 40479  40606M 40631  41055M
                                                 41089  41408M 41434  41700M 41724  41941M 41965  42182M 42206  42397M
                                                 42418  42458M 42482  42884M 42933  43388M 43460  43633M 43658  43790M
                                                 43824  44305M 44342  44795M 44857  45071M 45147  45250M 45277  45712M
                                                 45823  46140M 46266  46366M 46386  46432M 46452  46498M 46531  47438M
                                                 47516  48001M 48172  48238M 48258  48305M 48325  48371M 48391  48438M
                                                 48458  48505M 48525  48571M 48603  48958M 49067  49522M 49743  49790M
                                                 49810  49857M 49877  49952M 49972  50071M 50091  50185M 50263  50518M
                                                 50533M 50569  50997M 51185  51226M 51246  51287M 51307  51348M 51368
                                                 51409M 51429  51470M
 FSTOP         2 00002C68 00000001     H   20777 20555  20570
 FUNCNULL      2 00003556 00000001     H   23633 20540
 FUNCPRT       4 000029E8 00000001     F   20528 22537
 FUNCTION      2 0000293C 00000001     H   20324 14156
 G             2 00002362 00000001     H   18448 14171
 GETCHLOC      2 00008B3C 00000001     H   41080 43405
 GETCHSTR      2 00008C34 00000001     H   41425 43406
 GETIMINL      4 00000014 FFFFFFDB     F   42906 43188M
 GETINCR       2 00009060 00000001     H   42923 43416
 GETINLEN      4 00000018 FFFFFFDB     F   42907 43206M 43223M 43273  43274  43323  43366
 GETIPACK      4 00000000 FFFFFFDB     F   42904 43057M 43058
 GETIPAT      12 00000008 FFFFFFDB     C   42905 42971M 43023  43023  43058M 43184  43184  43272  43272
 GETIWA       28 00000000 FFFFFFDB     J   42914 42936  42965U 43388  43390  43391
 GETLINE       1 00000000 0000002F     T   27710 27710  31784  48988
 GETLNO        1 00000000 0000002D     T   27707 27707  45739  48990
 GETLOWER      2 00008D86 00000001     H   41956 43414
 GETUPLOW      2 00008E32 00000001     H   42197 43415
 GETUPPER      2 00008CDA 00000001     H   41715 43413
 GETUSING      2 00008F04 00000001     H   42473 43417
 GEXIT         2 000024A0 00000001     H   18900 18687B 18733B
 GOTCDONE      2 00008C26 00000001     H   41393 41357B 41385B 41390B
 GOTCHLOC      2 00008C18 00000001     H   41380 41183B 41326B 41362B
 GOTNOLOC      2 00008C1E 00000001     H   41388 41146B 41347B 41373B
 GOTNUM        2 00007984 00000001     H   36611 36523
 GSCAN         2 0000238C 00000001     H   18534 18566B
 GT            4 000023FE 00000001     I   18695 18526B 18571B 18586B 18605B 18646B
 GTFRST        1 00000000 00000047     T   43420 43420
 GTFRSTLN      1 00000000 00000046     T   43419 43419
 GTL           2 000023AC 00000001     I   18573 18508B
 GTLP          2 000023CC 00000001     H   18634 18693B
 HELP          1 00000000 00000020     T   20287 20287
 HELPEDIT     40 00003E37 00000001     C   23941 20288
 HELPLMOD      2 00002612 00000001     H   19537 14157
 HELPMOD      40 000036B6 00000001     C   23888 20289
 HELPMSGL      1 00000050 00000001 A   U   23884 19807  19820
 HEXIT         2 000026D0 00000001     H   19839 19606B
 HEXSTR        1 00000000 00000042     T   37155 37155
1LINE     (LINE2193) (12:47) (15MAR04) Ordinary Symbol and Literal Cross Reference                                          Page  219
 HIBAL         1 00000000 FFFFFFFF     J     691   707    720    733    746    759    772    785    798    811    824
                                                   837    850    863    876    889    902
 I             2 00001C66 00000001     H   16303 14173
 IDITTO        2 00005DAC 00000001     H   31085 31019
 IEXIT         2 00001D36 00000001     H   16686 16486B
 IMDELETE    128 00000000 FFFFFFE2        27963 28103M 28208
 IMENDPRT      4 00005290 00000001     F   27916 31751
 IMFLAGS       1 00000000 FFFFFFE2     R   27959 27963  27968
 IMINSERT     64 00000000 FFFFFFE2        27968 28081M
 IMLINENO      4 00000004 FFFFFFE2     F   27971 28044M 28244  28288  28348  28363  28479  28519  28595  28604  28640
 IMPLIED       2 000052E0 00000001     H   27990 27928  27986
 IMPLYEND      2 000051D4 00000001     H   27762 27758
 IMTEXT      256 00000010 FFFFFFE2     C   27974 28184M 28639  31755
 IMTEXTLN      4 0000000C FFFFFFE2     F   27973 28156M 28638
 IMTEXTPT      4 00000008 FFFFFFE2     F   27972 28108M 28396
 IMWA        272 00000000 FFFFFFE2     J   27981 28003  28032U 28042M 28042  28043M 28043  28705  28707  28708
 INCRMIN       2 00008750 00000001     H   39790 39527
 INCRNONE      2 000086BC 00000001     H   39609 39542
 INCRNULL      2 00008690 00000001     H   39548 39497
 INCRPLUS      2 0000871E 00000001     H   39726 39512
 INCRPRT       4 000085F0 00000001     F   39485 40438
 INITCHNG      2 000089E8 00000001     H   40622 43404
 INSCNT        4 00000004 FFFFFFDF     F   30213 30385  31192  31196M
 INSERT        2 00005A0A 00000001     H   30242 30238
 INSFDIT     128 00000000 FFFFFFDF        30205 30768  30930  31125M
 INSFGOTL     64 00000000 FFFFFFDF        30210 30618  30942M
 INSFLAG       1 00000000 FFFFFFDF     R   30201 30205  30210
 INSLINE     235 00000008 FFFFFFDF     C   30215 30549  30705  30710  30726M 30727  30807M 30814M 30815  30835M 30836
                                                 30841
 INSLINS      12 00000108 FFFFFFDF     X   30219 30413  30414  30953  31228  31800  31801
 INSLNO        2 00005DD8 00000001     H   31155 31004
 INSMSG       47 00005FC8 00000001     C   31738 30582  30582
 INSNEXT       4 00005C82 00000001     I   30915 30593B 30771B 30808B
 INSPRT        4 00005CBC 00000001     F   30992 31777
 INSPRTRY      4 00005B20 00000001     I   30565 30588B
 INSREPR       2 00005B4C 00000001     H   30603 30690B 30720B 30758B 30801B
 INSWA       648 00000000 FFFFFFDF     J   30226 30255  30284U 30288  30296U 30304M 30304  30305M 30305  30306M 30306
                                                 30979  30981  30982
 INVALID       1 00000000 00000000 A   T    2206  2206
 JCB         208 00000000 FFFFFFE9     J    6609 10312U 10378U 11805U 12068U 25829U 26764U 32445U 45392U 45673U
 JCBAFL        1 00000062 FFFFFFE9     R    6454  6458   6463   6468   6473   6478   6483   6488   6493
 JCBBFL        1 00000063 FFFFFFE9     R    6499  6503   6508   6513   6518   6523   6528   6533
 JCBBILLX      8 00000088 FFFFFFE9     D    6584  6592   6592
 JCBFATTN      2 00000062 FFFFFFE9         6488 10324M 10390M 11817M 12080M 25839M 26776M 32457M 45404M 45684M
 JCBRSCF1      1 00000064 FFFFFFE9     R    6539  6543   6548   6553
 JCBSFLG1      1 00000065 FFFFFFE9     R    6559  6563   6568
 JCBWFL        1 00000060 FFFFFFE9     R    6383  6387   6392   6397   6402   6407   6412   6417   6422   6450
 JCBWWFL       1 00000061 FFFFFFE9     R    6428  6432   6437   6442   6447
 JDEL          2 0000A51C 00000001     H   48316 48052
 JNODEL        2 0000A548 00000001     H   48382 48067
 JNOSEP        2 0000A4F0 00000001     H   48249 48037
 JNOTRIM       2 0000A5A0 00000001     H   48516 48142
 JOIN          2 0000A15A 00000001     H   47506 47502
 JOIND         2 0000A2E0 00000001     H   47927 47882B
 JOINDLP       4 0000A2F2 00000001     I   47946 47975B
 JOINFDEL    128 00000000 FFFFFFD9        47466 47577M 47935  48356M 48423M
 JOINFLAG      1 00000000 FFFFFFD9     R   47462 47466  47471
 JOINLEN       1 000000ED FFFFFFD9     X   47478 47803  48696  48832M
 JOINLIN#      1 00000032 FFFFFFD9 A   U   47482 47483  49010
1LINE     (LINE2193) (12:47) (15MAR04) Ordinary Symbol and Literal Cross Reference                                          Page  220
 JOINLINE    256 000000EE FFFFFFD9     C   47479 47798  48834  48875
 JOINLINS      4 000001F0 FFFFFFD9     F   47483 47795  47941  47959  48688  48935
 JOINNLIN      2 000001EE FFFFFFD9     H   47481 47756M 47756  47777  47942  48639  48686M 48717
 JOINNOTR     64 00000000 FFFFFFD9        47471 48490M 48556M 48750
 JOINPRT       4 0000A320 00000001     F   48010 49000
 JOINRTN       2 0000A5CC 00000001     H   48594 49002
 JOINSEP     235 00000002 FFFFFFD9     C   47476 47579M 48209  48214  48861
 JOINSLEN      1 00000001 FFFFFFD9     X   47475 47578M 48219M 48290M 48703
 JOINWA      696 00000000 FFFFFFD9     J   47490 47519  47548U 47552  47560U 47569M 47569  47570M 47570  47571M 47571
                                                 48001  48003  48004  48637U
 JSEP          2 0000A4B0 00000001     H   48163 48022
 JTRIM         2 0000A574 00000001     H   48449 48127
 L             2 00001B44 00000001     H   15720 14175
 LENCHK        1 00000000 00000039     T   31769 31769  44819  48996
 LENCHKM       1 00000000 00000016     T   12174 12174  22544  27721  31786  32622
 LENPSH        1 00000000 00000003     T    7381  7381  27002  31064  32085  33965  34162  46221  48097
 LINABORT      4 00000D0E 00000001     I   11277 11150B 11209B 11253B
 LINATTN       2 00000CBA 00000001     H   11139 10895B
 LINBACK       2 00000686 00000001     H    8826 10113B 10425B 11065B
 LINCH         4 00000CFC 00000001     I   11262 11169B
 LINDLC        4 00000DB6 00000001     I   11575 11520B
 LINDONE       4 00000D18 00000001     I   11284 10622B 10885B 10942B 11085B 12039B
 LINEMOD       2 0000058C 00000001     H    8401  8179   8397  27720  31785  32621  51496
 LINEMOD       1 00000000 0000004B     T   44821 44821
 LINERD        2 0000AEEC 00000001     H   50254 12192  22542  27718  31781  32618
 LINEXIT       6 00000F7E 00000001     I   12116 11282B
 LINE2193      1 00000000 00000001     R     999   997
 LINLOOP       2 000006B8 00000001     H    8894 10936B 11007B 11027B 12052B
 LINLOOPA      4 00000C02 00000001     I   10810  8820B
 LINLOOPB      2 00000C44 00000001     H   10898 10631B
 LINNSPL       2 00000B8A 00000001     H   10634  9621B
 LINRET        2 00000DDA 00000001     H   11598 11105B
 LINRETDJ      4 00000DD4 00000001     I   11594 11125B
 LINSLIST      4 00000A06 00000001     I   10150 10281B
 LINSPLIT      4 00000AB4 00000001     I   10439 10347B
 LINSSLP       2 0000090E 00000001     H    9852  9905B
 LINSSORT      4 00000904 00000001     I    9846  9875B
 LINSSTOW      4 00000AD6 00000001     I   10465 10512B
 LINSTART      2 000005B4 00000001     H    8474 11646B
 LISTCHNG      4 000096D2 00000001     I   44494 44449B
 LISTLINE      1 00000000 00000017     T   12175 12175  27713  31766  32617  44822  45737  48997  50217
 LMSGCHK       1 00000000 0000004A     T   44820 44820
 LOCATE        1 00000000 00000014     T   12172 12172  22540  23870  27712  31756  50221
 LOCATRTN      1 00000000 FFFFFFEC A   U    6197  8173  32611  33418  45732  48985  49001
 LOCLIST       1 00000000 00000030     T   27714 27714  31768
 LOWMULT       1 00000000 0000002B     T   27705 27705
 LOWTBL        1 00000000 00000000 A   T    2214  2214
 LRTRIM        1 00000000 0000004D     T   49012 49012
 LSR           8 00000008 00000001 A   #    1048  6701   6751M  6775   7343M  7516   7563M  7583   7675M  7695   7787M
                                                  7807   7903M  7930   8152M  8410  12149M 12231  12326M 12356  12694M
                                                 12768  13217M 13248  14141M 14360  14618M 14649  15243M 15274  15697M
                                                 15729  15841M 15872  15980M 16012  16280M 16312  16703M 16735  16980M
                                                 17012  17168M 17200  17357M 17406  17521M 17553  17950M 17982  18392M
                                                 18457  18917M 18949  19276M 19308  19523M 19546  19856M 19880  19973M
                                                 19997  20119M 20143  20265M 20333  20517M 20786  20852M 20877  20937M
                                                 20962  21035M 21060  21135M 21161  21345M 21371  21537M 21563  21657M
                                                 21683  21752M 21777  22176M 22202  22521M 22585  22649M 22669  23198M
                                                 23279  23323M 23343  23436M 23456  23515M 23535  23618M 23642  23720M
                                                 23743  23845M 23995  24064M 24193  26809M 27047  27165M 27185  27226M
1LINE     (LINE2193) (12:47) (15MAR04) Ordinary Symbol and Literal Cross Reference                                          Page  221
                                                 27246  27310M 27330  27376M 27396  27443M 27463  27509M 27530  27660M
                                                 27771  27906M 28000  28705M 28756  28937M 29004  29051M 29071  29113M
                                                 29133  29204M 29237  29378M 29431  29908M 29976  30023M 30043  30085M
                                                 30105  30176M 30252  30979M 31094  31140M 31164  31723M 31860  32019M
                                                 32115  32162M 32188  32587M 32851  33391M 34210  34257M 34277  34413M
                                                 34433  34549M 34569  34658M 34678  34785M 34805  34912M 34932  34985M
                                                 35011  35058M 35078  35125M 35145  35192M 35218  35265M 35286  35379M
                                                 35400  35523M 35544  35642M 35663  35765M 35786  35888M 35909  35956M
                                                 35977  36024M 36045  36100M 36123  36170M 36190  36237M 36257  36487M
                                                 36553  36600M 36620  36664M 36688  36734M 36754  36800M 36820  36875M
                                                 36895  36952M 36972  37014M 37035  37138M 37223  38106M 38189  38230M
                                                 38250  38347M 38367  38411M 38431  38472M 38498  38592M 38626  38717M
                                                 38785  38826M 38846  38943M 38965  39107M 39173  39220M 39240  39283M
                                                 39346  39474M 39557  39598M 39618  39715M 39735  39779M 39799  39843M
                                                 39901  40424M 40479  40606M 40631  41055M 41089  41408M 41434  41700M
                                                 41724  41941M 41965  42182M 42206  42397M 42418  42458M 42482  42884M
                                                 42933  43388M 43460  43633M 43658  43790M 43824  44305M 44342  44795M
                                                 44857  45071M 45147  45250M 45277  45712M 45823  46140M 46266  46366M
                                                 46386  46432M 46452  46498M 46531  47438M 47516  48001M 48172  48238M
                                                 48258  48305M 48325  48371M 48391  48438M 48458  48505M 48525  48571M
                                                 48603  48958M 49067  49522M 49743  49790M 49810  49857M 49877  49952M
                                                 49972  50071M 50091  50185M 50263  50533M 50569  50997M 51185  51226M
                                                 51246  51287M 51307  51348M 51368  51409M 51429  51470M
 LTNPSH        1 00000000 00000002     T    7366  7366  26972  31034  32040  33950  34147  45094  46206  48082  49576
                                                 49652  49698
 MALL          1 00000000 00000008     T    7500  7500  20764  23263  26849  26880  27031  27942  28988  29960  31078
                                                 32099  33535  33613  33750  33812  33979  34176  36537  38173  38769
                                                 39157  39541  45123  46250  48156  49605  49681  49727  51169
 MCHAR         1 000016AE 00000001     X   14221 14162  14223  14226  14228  14231  14233  14236  14238  14241  14243
                                                 14246  14248  14251  14253  14256  14258  14261  14263  14266  14268
                                                 14271  14273  14276  14278  14281  14283  14286  14288  14291  14294
                                                 14297  14300  14302  14305  14308  14311  14314  14317  14320  14323
                                                 14326  14329  14332
 METCDELT      4 00000018 FFFFFFE5     F    8258  8499M  8499   8874M  8874  11663M 11663  11682  11745M 11766  11832
                                                 11835  12017M 12017  12051M 12051  22061M
 METCFLIN      4 0000001C FFFFFFE5     F    8259 11834  11921  21844M
 METCLLIN      4 00000020 FFFFFFE5     F    8260 11695  11747  21925M
 METCNUM       2 00000024 FFFFFFE5     H    8261 11833  12026  12027M 22068M 22068
 METFATTN      8 0000033E FFFFFFE5         8305 10185  10253M 10301M
 METFCOL       2 00000330 FFFFFFE5     H    8274  8727M 10441M 10811  10812  11669M 12669  21467M
 METFINS      64 0000033E FFFFFFE5         8290 11064M 11999  12012M 19951M 20097M 20243M 21728M 21965  22041
 METFLAGS      1 0000033E FFFFFFE5     R    8281  8285   8290   8295   8300   8305   8310   8315   8320   8468M 11639M
 METFLG2       1 0000033F FFFFFFE5     R    8325  8329
 METFLINE      4 00000014 FFFFFFE5     F    8257  8492M  8867M 11609  11615  22817M 22869  22923  22989M 23037
 METFMOD      32 0000033E FFFFFFE5         8295  8670M  8696M  8718M 10958  12484  19760  21006M 21106M
 METFNEW     128 0000033E FFFFFFE5         8285 10558  11645M 11954
 METFNEXT    128 0000033F FFFFFFE5         8329 22741M 22937  23412M
 METFPFX       2 0000033E FFFFFFE5         8315 13294M 14081  14110M 14405M 14744M 15339M
 METFREN       4 0000033E FFFFFFE5         8310 11831M 11865  11912  11935M
 METFSTOP     16 0000033E FFFFFFE5         8300  8887M 12103  20830M 21323M
 METFWORD      1 0000033E FFFFFFE5         8320 13304M 14099M 15345M 16930
 METLCOL       2 00000332 FFFFFFE5     H    8275  8808   8815   9628   9644  10659  10676  10707  10742  11179  11181
                                                 11298  11306  11345  11349
 METLEN        2 00000128 FFFFFFE5     H    8266  8852M  9261   9305   9306M  9560   9808M  9892   9899   9922   9929
                                                  9967  10546M 10810M 10947  11182  11284  11347M 11443  11591  11989M
                                                 14940  15538  16124  16141M 16401  16497  16498M 17834  17882M 18276
                                                 18324M 18746  18765M 18796  18798M 19033  19137  19144M 21245M 21262M
                                                 21493M 22077  22346  22498M 23098
 METLF4        1 00000340 FFFFFFE5     X    8333  8629M 11625  12117
1LINE     (LINE2193) (12:47) (15MAR04) Ordinary Symbol and Literal Cross Reference                                          Page  222
 METLF5        1 00000341 FFFFFFE5     X    8334 12421  12449
 METLINE     470 0000012A FFFFFFE5     X    8267  8617M  9279   9308   9561  10151  10466  10547M 10596  10743  11241
                                                 11285  11485  11901M 11902  15417  15461  15539  16143  16170  16419
                                                 16491  16500  17126  17314  17884  18326  18414  18421  18422  18768
                                                 18802  19051  19121  19149  20282  20292  21240  21288M 21468M 21469
                                                 22126  22429  23147
 METLINE#      4 0000000C FFFFFFE5     F    8255  8570M  9992  10056  10145  10460  10548M 10798  10813  11577  11681
                                                 11944M 11980  12287  21219  21411  21484  21629  21843  22285  22831
                                                 23383
 METLINER      4 00000000 FFFFFFE5     F    8253  8461M 10565M 11961M 12116
 METNLINE      4 00000010 FFFFFFE5     F    8256  8484M  8484  10006M 10006  10013  11166M 11166  11517M 11517  12281M
                                                 12281  12289  12302M 12302  21310M 21310  21875M 21875  21882  22278M
                                                 22278  22287M 22292  22345M 22845  23394
 METNSPLT      2 00000342 FFFFFFE5     H    8336  8479M  8479   8859M  8859   9434   9618M  9618   9627   9942  10442
                                                 10903M 10903  19427  19457  19496  19497M
 METNUM        2 0000033C FFFFFFE5     H    8277 13299M 13299  13374  14094M 14094  14590M 14929M 15047M 15126M 15400M
                                                 15667M
 METOLPTR      4 00000004 FFFFFFE5     A    8254  8569M  9732   9783   9803  10570  10608M 11175  11286  11346  11442
                                                 11590  11620  20831  20916  21261
 METPDATA      4 00000000 FFFFFFE6     J    8237  8943U  9450U  9510  16906U 16917M 16917  16943
 METPLEN       2 00000026 FFFFFFE5     H    8262  8852  10947M 22089  23110
 METPLINE    235 00000028 FFFFFFE5     X    8263 10469M 10473  10947  22126  23147
 METPOFFS      2 00000000 FFFFFFE6     H    8228  8948   9476  16920M
 METPRMPT      4 0000032C FFFFFFE5     A    8273 12670M 12868  12869M 14745  15073M 15413  16121  16400  16538  16540M
                                                 16919  17074  17262  17488  17495M 17830  17833M 18272  18275M 18739
                                                 18742M 19032  19482
 METPTRS       4 00000334 FFFFFFE5     A    8276 13382M 15059  15412  15524  15526M 15527  15529M 16399  16918  17073
                                                 17261  17487  17493  17702  17829  18144  18271  18575  18738  19031
                                                 19481
 METPUT        4 00000304 FFFFFFE5     F    8270  8271   8933   9441  16896
 METPUTL       2 00000300 FFFFFFE5     H    8269  8491M  8491   8866M  8866   8914  10910M 10910  16853  16944M
 METPUTLN      2 00000002 FFFFFFE6     H    8229  8950  16942M
 METPUTMX      1 00000028 FFFFFFE5 A   U    8271 18415
 METSAREA      4 00000346 FFFFFFE5     X    8338  9452   9813   9846   9944  10124  10445  19459
 METSNEXT      4 00000004 FFFFFFE7     F    8207  9489   9862   9872   9873M  9874   9904  10264  10495
 METSOFFS      2 00000000 FFFFFFE7     H    8205  9476   9482   9484M  9862   9862   9892   9899M  9922   9929M  9967M
                                                 10152  10263  10467  10494  19483M
 METSPLIT      4 00000000 FFFFFFE7     J    8214  8338   9461U  9823U  9862   9872   9872M  9873   9873   9874   9874M
                                                  9954U  9966M  9966  10140U 10455U 12198  19469U 19480M 19480  20294
 METWA       918 00000000 FFFFFFE5     J    8345  8413   8442U  8446   8456U 12149  12151  12152  12266U 12391U 12813U
                                                 13283U 14395U 14684U 15309U 15764U 15907U 16047U 16347U 16770U 17047U
                                                 17235U 17441U 17588U 18017U 18492U 18984U 19343U 19581U 19915U 20032U
                                                 20178U 20368U 20821U 20912U 20997U 21095U 21196U 21406U 21598U 21718U
                                                 21812U 22237U 22704U 23378U 23677U 23778U
 METWSPLT      2 00000344 FFFFFFE5     H    8337  9627M  9840   9847  10061  10129  10130M 10200  10267  10269M 10444M
                                                 10498  10500M
 MILERR        1 00000000 00000000 A   T    2205  2205
 MIMPLIED      1 00000000 00000034     T   27927 27927  28973  29945
 MINT          1 00000000 0000003E     T   33490 33490  33675  38143  39142
 MISSNUM       2 00007950 00000001     H   36544 36508
 MISSTOU       2 000073DA 00000001     H   35002 33552
 MNULL         1 00000000 00000021     T   20539 20539  23248  28958  29930  33445  33551  33630  33767  36507  38128
                                                 38739  39127  39496  49545  49621  51019
 MODEQUAL      2 00000440 00000001     H    7798  7486
 MODFLEQ      64 00000000 FFFFFFE8         6656  7633   7633   7745   7745   7860   7860   7861   7861   7882M  7987
                                                  7987   7988   7988   8100   8100   8101   8101
 MODFLFST    128 00000000 FFFFFFE8         6651  7017   8117M
 MODFLOV      32 00000000 FFFFFFE8         6661  6924   6924   6925   7057   7057   7058   7073   7633   7633   7634
                                                  7654M  7859   7859   7861   7861   7986   7986   7987   7987   7989
1LINE     (LINE2193) (12:47) (15MAR04) Ordinary Symbol and Literal Cross Reference                                          Page  223
                                                  8099   8099   8100   8100
 MODFLUN      16 00000000 FFFFFFE8         6666  6924   6924   7057   7057   7127   7745   7745   7746   7766M  7859
                                                  7859   7860   7860   7862   7986   7986   7988   7988   8099   8099
                                                  8101   8101
 MODIFY        2 00000018 00000001     H    6692  6688
 MODOPTS       1 00000000 FFFFFFE8     R    6647  6651   6656   6661   6666   8082   8083
 MODOV         2 00000004 FFFFFFE8     H    6674  6945   7101   7655M  8009
 MODOVER       2 000003C4 00000001     H    7574  7456
 MODPRT        4 00000208 00000001     F    7354  8169
 MODREAD       2 000011BA 00000001     H   12347 12176
 MODRTN        2 0000047E 00000001     H    7921  8174
 MODS          2 000013B0 00000001     H   13239 12182  14159
 MODSEXIT      2 000015C8 00000001     H   14124 13412B 13448B 13484B 13520B 13556B 13592B 13628B 13664B 13700B 13736B
                                                 13772B 13808B 13844B 13880B 13917B 13953B 13989B 14041B 14065B
 MODSING       2 00000398 00000001     H    7507  7426   7441
 MODSZMSG      2 00000142 00000001     H    7047  6969B
 MODTEMPF      1 00000001 FFFFFFE8     R    6671  8021M  8049M  8077M  8082M  8083M  8102   8132M
 MODUN         2 00000002 FFFFFFE8     H    6673  6931   7155   7213   7271   7767M  7883M  8037   8065
 MODUNDER      2 00000402 00000001     H    7686  7471
 MODWA         6 00000000 FFFFFFE8     J    6681  6778   6807U  6811   6821U  6831M  6831   7343   7345   7346   7618U
                                                  7730U  7842U  7966U
 MPAREN        1 00000000 00000045     T   38754 38754
 MPARM         1 00000000 0000003D     T   33460 33460  33475  33735  48021
 MPCOLS        1 00000000 00000040     T   33996 33996  34011
 MPINT         1 00000000 00000007     T    7455  7455   7470   7485  33645  33660  39511  39526  46160
 MPLNO         1 00000000 00000026     T   26896 26896
 MSYMLN        1 00000000 00000022     T   23233 23233  26834  31003  33797  36522  49560  49636
 MTOKEN        1 00000000 00000006     T    7425  7425   7440  20554  20569  20584  20599  20614  20629  20644  20659
                                                 20674  20689  20704  20719  20734  20749  23218  26911  26926  26941
                                                 26956  31018  32054  33505  33520  33566  33581  33596  33690  33705
                                                 33720  33782  33829  33844  33859  33874  33889  33904  33919  34026
                                                 34041  34056  34071  34086  34101  34116  38158  46175  46190  48036
                                                 48051  48066  48126  48141  51034  51049  51064  51079  51094  51109
                                                 51124  51139  51154
 N             2 00001B82 00000001     H   15863 14177
 NBLTBL        1 00000000 00000000 A   T    2218  2218
 NDETRNG       1 00000000 0000000B     T    8168  8168  32607  33416  37170  45726  48983
 NEEDNUM       4 000078D8 00000001     F   36496 37169
 NOACTION      1 00000000 00000000 A   T    2208  2208
 NOOPTS        1 00000000 00000027     T   27690 27690
 NOSIZE        2 000004DC 00000001     H    8113  7992B
 NOTVALID      1 00000000 00000009     T    7501  7501   8178  27731  27943  31079  31790  32100  33614  33813  33980
                                                 34177  36538  37157  39158  39304  45124  46251  48157  49606  49682
                                                 49728
 NPARTBL       1 00000000 00000000 A   T    2212  2212
 NSCAN         1 00000000 0000000C     T    8170  8170  22538  23864  27693  31752  32609  33409  37167  39299  40439
                                                 45728  48981  50211  51491
 NSCNCB      176 00000000 FFFFFFED     J    2477  2603   6883   6884   6885   6888M  6889M  6891M  6901M  6902M  6903M
                                                 20411M 20412M 20427  20428  20429  20432M 20433M 20435M 20445M 20446M
                                                 20447M 22625M 22626M 22752  22753  22754  22757M 22758M 22760M 22770M
                                                 22771M 22772M 24252  24254  24265  24266  24267  24270M 24271M 24273M
                                                 24283M 24284M 24285M 24336  24346  24348  24359  24360  24361  24364M
                                                 24365M 24367M 24377M 24378M 24379M 24391  24556  24557  24558  24561M
                                                 24562M 24564M 24574M 24575M 24576M 27734  27802  27817  27832  27833
                                                 27834M 27834  27835  27836M 27849M 27864  27865  27866  27869M 27870M
                                                 27872M 27882M 27883M 27884M 28055  28056  28814  28815  28816  28819M
                                                 28820M 28822M 28832M 28833M 28834M 28850  28851  29297  29298  29489
                                                 29490  29491  29494M 29495M 29497M 29507M 29508M 29509M 29525  29526
                                                 30358  30359  30360  30363M 30364M 30366M 30376M 30377M 30378M 31245
1LINE     (LINE2193) (12:47) (15MAR04) Ordinary Symbol and Literal Cross Reference                                          Page  224
                                                 31246  31247  31250M 31251M 31252M 31262M 31263M 31264M 31407  31422
                                                 31437  31438  31439M 31439  31440  31441M 31454M 31962  31963  31964
                                                 31967M 31968M 31970M 31980M 31981M 31982M 32957  32958  32959  32962M
                                                 32963M 32965M 32975M 32976M 32977M 32994  32995  32996  32999M 33000M
                                                 33002M 33012M 33013M 33014M 33048  33049  33050  33053M 33054M 33056M
                                                 33066M 33067M 33068M 33085  33086  33087  33090M 33091M 33093M 33103M
                                                 33104M 33105M 33143  33144  33145  33148M 33149M 33151M 33161M 33162M
                                                 33163M 33180  33181  33182  33185M 33186M 33188M 33198M 33199M 33200M
                                                 34708  34723  34738  34739  34740M 34740  34741  34742M 34755M 34835
                                                 34850  34865  34866  34867M 34867  34868  34869M 34882M 35573  35574
                                                 35693  35694  35816  35817  36297  36298  36299  36302M 36303M 36304M
                                                 36314M 36315M 36316M 36366  36367  36368  36371M 36372M 36374M 36384M
                                                 36385M 36386M 36416  36431  36446  36447  36448M 36448  36449  36450M
                                                 36463M 37286  37287  37288  37291M 37292M 37294M 37304M 37305M 37306M
                                                 37412  37413  37414  37417M 37418M 37420M 37430M 37431M 37432M 37482
                                                 37497  37512  37513  37514M 37514  37515  37516M 37529M 37587  37588
                                                 37589  37592M 37593M 37595M 37605M 37606M 37607M 37716  37717  37718
                                                 37721M 37722M 37724M 37734M 37735M 37736M 37786  37801  37816  37817
                                                 37818M 37818  37819  37820M 37833M 37891  37892  37893  37896M 37897M
                                                 37899M 37909M 37910M 37911M 38280  38295  38310  38311  38312M 38312
                                                 38313  38314M 38327M 38675  38676  38677  38680M 38681M 38683M 38693M
                                                 38694M 38695M 38876  38891  38906  38907  38908M 38908  38909  38910M
                                                 38923M 39019  39021  39043M 39044M 39059  39060  39061  39064M 39065M
                                                 39067M 39077M 39078M 39079M 39092  39312  39382  39383  39384  39387M
                                                 39388M 39390M 39400M 39401M 39402M 39648  39663  39678  39679  39680M
                                                 39680  39681  39682M 39695M 44982  44983  44984  44987M 44988M 44990M
                                                 45000M 45001M 45002M 45902  45904  45915  45916  45917  45920M 45921M
                                                 45922M 45932M 45933M 45934M 45946  45969M 45970M 46040  46041  46042
                                                 46045M 46046M 46048M 46058M 46059M 46060M 47638  47639  47640  47643M
                                                 47644M 47646M 47656M 47657M 47658M 49015  49179  49180  49181  49184M
                                                 49185M 49187M 49197M 49198M 49199M 49217  49218  49219  49222M 49223M
                                                 49225M 49235M 49236M 49237M 49255  49256  49257  49260M 49261M 49263M
                                                 49273M 49274M 49275M 50598  50600  50687M 50688M 50703  50704  50705
                                                 50708M 50709M 50711M 50721M 50722M 50723M 50982  51503
 NSCNFLGS      1 00000008 FFFFFFED     R    2414  2418   2423
 NSCNKWS       4 00000028 FFFFFFED     A    2463  6883   6891M  6901M 20427  20435M 20445M 22752  22760M 22770M 24265
                                                 24273M 24283M 24359  24367M 24377M 24556  24564M 24574M 27864  27872M
                                                 27882M 28814  28822M 28832M 29489  29497M 29507M 30358  30366M 30376M
                                                 31245  31252M 31262M 31962  31970M 31980M 32957  32965M 32975M 32994
                                                 33002M 33012M 33048  33056M 33066M 33085  33093M 33103M 33143  33151M
                                                 33161M 33180  33188M 33198M 36297  36304M 36314M 36366  36374M 36384M
                                                 37286  37294M 37304M 37412  37420M 37430M 37587  37595M 37605M 37716
                                                 37724M 37734M 37891  37899M 37909M 38675  38683M 38693M 39059  39067M
                                                 39077M 39382  39390M 39400M 44982  44990M 45000M 45915  45922M 45932M
                                                 46040  46048M 46058M 47638  47646M 47656M 49179  49187M 49197M 49217
                                                 49225M 49235M 49255  49263M 49273M 50703  50711M 50721M
 NSCNLEN       4 00000004 FFFFFFED     F    2411 20412M 22626M 27835  27836M 28056  28851  29298  29526  31440  31441M
                                                 34741  34742M 34868  34869M 36449  36450M 37515  37516M 37819  37820M
                                                 38313  38314M 38909  38910M 39044M 39681  39682M 45970M 50688M
 NSCNLOC       4 00000000 FFFFFFED     A    2410 20411M 22625M 27832  27834M 28055  28850  29297  29525  31437  31439M
                                                 34738  34740M 34865  34867M 36446  36448M 37512  37514M 37816  37818M
                                                 38310  38312M 38906  38908M 39043M 39678  39680M 45969M 50687M
 NSCNSKIP      4 00000024 FFFFFFED     A    2462  6884   6888M  6902M 20428  20432M 20446M 22753  22757M 22771M 24266
                                                 24270M 24284M 24360  24364M 24378M 24557  24561M 24575M 27865  27869M
                                                 27883M 28815  28819M 28833M 29490  29494M 29508M 30359  30363M 30377M
                                                 31246  31250M 31263M 31963  31967M 31981M 32958  32962M 32976M 32995
                                                 32999M 33013M 33049  33053M 33067M 33086  33090M 33104M 33144  33148M
                                                 33162M 33181  33185M 33199M 36298  36302M 36315M 36367  36371M 36385M
                                                 37287  37291M 37305M 37413  37417M 37431M 37588  37592M 37606M 37717
1LINE     (LINE2193) (12:47) (15MAR04) Ordinary Symbol and Literal Cross Reference                                          Page  225
                                                 37721M 37735M 37892  37896M 37910M 38676  38680M 38694M 39060  39064M
                                                 39078M 39383  39387M 39401M 44983  44987M 45001M 45916  45920M 45933M
                                                 46041  46045M 46059M 47639  47643M 47657M 49180  49184M 49198M 49218
                                                 49222M 49236M 49256  49260M 49274M 50704  50708M 50722M
 NSCNSTOP      4 00000020 FFFFFFED     A    2461  6885   6889M  6903M 20429  20433M 20447M 22754  22758M 22772M 24267
                                                 24271M 24285M 24361  24365M 24379M 24558  24562M 24576M 27866  27870M
                                                 27884M 28816  28820M 28834M 29491  29495M 29509M 30360  30364M 30378M
                                                 31247  31251M 31264M 31964  31968M 31982M 32959  32963M 32977M 32996
                                                 33000M 33014M 33050  33054M 33068M 33087  33091M 33105M 33145  33149M
                                                 33163M 33182  33186M 33200M 36299  36303M 36316M 36368  36372M 36386M
                                                 37288  37292M 37306M 37414  37418M 37432M 37589  37593M 37607M 37718
                                                 37722M 37736M 37893  37897M 37911M 38677  38681M 38695M 39061  39065M
                                                 39079M 39384  39388M 39402M 44984  44988M 45002M 45917  45921M 45934M
                                                 46042  46046M 46060M 47640  47644M 47658M 49181  49185M 49199M 49219
                                                 49223M 49237M 49257  49261M 49275M 50705  50709M 50723M
 NSCNTLEN      4 00000014 FFFFFFED     F    2429 27802  27849M 31407  31454M 34708  34755M 34835  34882M 35574  35694
                                                 35817  36416  36463M 37482  37529M 37786  37833M 38280  38327M 38876
                                                 38923M 39648  39695M
 NSCNTLOC      4 00000010 FFFFFFED     A    2428 27817  27833  27834  31422  31438  31439  34723  34739  34740  34850
                                                 34866  34867  35573  35693  35816  36431  36447  36448  37497  37513
                                                 37514  37801  37817  37818  38295  38311  38312  38891  38907  38908
                                                 39663  39679  39680
 NSCNTYPE      1 00000018 FFFFFFED     R    2432  2436   2441   2446   2451   2456
 NUMRANGE      1 00000000 0000001C     T   12193 12193  27715
 OCCJUNK       2 000082D0 00000001     H   38837 38770
 OCCMISS       2 00008470 00000001     H   39164 39128
 OCCNTPRT      4 000083F8 00000001     F   39116 39310
 OCCNULL       2 000082A4 00000001     H   38776 38740
 OCCSCAN       2 00008332 00000001     H   38956 38755
 OCCURPRT      4 0000822C 00000001     F   38728 39307
 OCCVAL        2 000084A4 00000001     H   39231 39143
 P             2 00001D44 00000001     H   16726 14179
 PAGECLR       1 00000000 0000002A     T   27702 27702
 PAGELINE      1 00000000 00000032     T   27717 27717  31779  32614  44825
 PAGEMOD       1 00000000 0000003B     T   31780 31780  32615  44826
 PAGERES       1 00000000 0000000A     T    8167  8167
 PAGETCHK      1 00000000 00000029     T   27701 27701
 PEXIT         2 00001DDE 00000001     H   16960 16890B
 PRESS         1 00000000 00000018     T   12179 12179  27722  31770  32623  49006
 PREVLNO       1 00000000 0000002E     T   27708 27708  31782
 PSCAN         2 00001D6E 00000001     H   16811 16843B
 PUTEND        2 00005706 00000001     H   29228 29224
 PUTLCMD       2 00005520 00000001     H   28746 28742
 PUTLCMDT      2 00005786 00000001     H   29421 29417
 PUTLERR       2 000056C8 00000001     H   29124 28989
 PUTLINE       1 00000000 00000031     T   27716 27716  31773  44824  48999
 PUTLLINE      2 00005698 00000001     H   29062 28974
 PUTLLNO       4 00000000 FFFFFFE1     F   28729 28884  28889  29097M
 PUTLNULL      2 00005664 00000001     H   28995 28959
 PUTLPRT       4 000055EC 00000001     F   28947 31772
 PUTLWA        4 00000000 FFFFFFE1     J   28736 28759  28788U 28792  28800U 28937  28939  28940
 PUTWLOOP      2 0000074A 00000001     H    9107  9229B
 PUTWSTOP      2 00000792 00000001     I    9233  9048B  9161B  9223B
 R             2 000024AE 00000001     H   18940 14181
 RAR          14 0000000E 00000001 A   #    1126  2143   2144M  2145B  2147M  2148B  2168M  2169B  2173M  2174B  2176M
                                                  2177B  2179M  2180B  2182M  2183B  2185M  2186M  2186B  2192   6698
                                                  6735M  6736M  6736B  6753M  6756B  6772   6850M  6851M  6851B  6868M
                                                  6869M  6869B  6894M  6895M  6895B  6908M  6909M  6909B  6967M  6968M
                                                  6968B  6986M  6987M  6987B  7043M  7044M  7044B  7095M  7096M  7096B
1LINE     (LINE2193) (12:47) (15MAR04) Ordinary Symbol and Literal Cross Reference                                          Page  226
                                                  7116M  7117M  7117B  7149M  7150M  7150B  7170M  7171M  7171B  7207M
                                                  7208M  7208B  7228M  7229M  7229B  7265M  7266M  7266B  7286M  7287M
                                                  7287B  7315M  7316M  7316B  7345M  7348B  7513   7565M  7568B  7580
                                                  7643M  7644M  7644B  7677M  7680B  7692   7755M  7756M  7756B  7789M
                                                  7792B  7804   7871M  7872M  7872B  7905M  7908B  7927   8120M  8121M
                                                  8121B  8154M  8157B  8407   8850M  8851M  8851B  9681M  9682M  9682B
                                                  9701M  9702M  9702B  9725M  9726M  9726B 10020M 10021M 10021B 10093M
                                                 10094M 10094B 10111M 10112M 10112B 10120M 10121M 10121B 10157M 10158M
                                                 10158B 10208M 10209M 10209B 10240M 10241M 10241B 10355M 10356M 10356B
                                                 10415M 10416M 10416B 10439M 10440M 10440B 10478M 10479M 10479B 10482M
                                                 10483M 10483B 10701M 10702M 10702B 10722M 10723M 10723B 10740M 10741M
                                                 10741B 10801M 10802M 10802B 10833M 10834M 10834B 10858M 10859M 10859B
                                                 10893M 10894M 10894B 10966M 10967M 10967B 10986M 10987M 10987B 11274M
                                                 11275M 11275B 11575M 11576M 11576B 11580M 11581M 11581B 11584M 11585M
                                                 11585B 11594M 11595M 11595B 11618M 11619M 11619B 11623M 11624M 11624B
                                                 11732M 11733M 11733B 11743M 11744M 11744B 11764M 11765M 11765B 11769M
                                                 11770M 11770B 11793M 11794M 11794B 11843M 11844M 11844B 11888M 11889M
                                                 11889B 11927M 11928M 11928B 11983M 11984M 11984B 12151M 12154B 12228
                                                 12294M 12295M 12295B 12328M 12331B 12353  12521M 12522M 12522B 12569M
                                                 12570M 12570B 12696M 12699B 12765  12898M 12899M 12899B 12933M 12934M
                                                 12934B 12968M 12969M 12969B 13003M 13004M 13004B 13038M 13039M 13039B
                                                 13081M 13082M 13082B 13123M 13124M 13124B 13167M 13168M 13168B 13185M
                                                 13186M 13186B 13219M 13222B 13245  13410M 13411M 13411B 13446M 13447M
                                                 13447B 13482M 13483M 13483B 13518M 13519M 13519B 13554M 13555M 13555B
                                                 13590M 13591M 13591B 13626M 13627M 13627B 13662M 13663M 13663B 13698M
                                                 13699M 13699B 13734M 13735M 13735B 13770M 13771M 13771B 13806M 13807M
                                                 13807B 13842M 13843M 13843B 13878M 13879M 13879B 13915M 13916M 13916B
                                                 13951M 13952M 13952B 13987M 13988M 13988B 14039M 14040M 14040B 14062M
                                                 14063M 14063B 14143M 14146B 14357  14423M 14424M 14424B 14472M 14473M
                                                 14473B 14498M 14499M 14499B 14508M 14509M 14509B 14540M 14541M 14541B
                                                 14581M 14582M 14582B 14620M 14623B 14646  14706M 14707M 14707B 14731M
                                                 14732M 14732B 14786M 14787M 14787B 14920M 14921M 14921B 14968M 14969M
                                                 14969B 15008M 15009M 15009B 15150M 15151M 15151B 15206M 15207M 15207B
                                                 15245M 15248B 15271  15450M 15451M 15451B 15699M 15702B 15726  15786M
                                                 15787M 15787B 15843M 15846B 15869  15929M 15930M 15930B 15982M 15985B
                                                 16009  16282M 16285B 16309  16705M 16708B 16732  16887M 16888M 16888B
                                                 16982M 16985B 17009  17170M 17173B 17197  17359M 17362B 17403  17476M
                                                 17477M 17477B 17523M 17526B 17550  17812M 17813M 17813B 17952M 17955B
                                                 17979  18254M 18255M 18255B 18394M 18397B 18454  18684M 18685M 18685B
                                                 18730M 18731M 18731B 18919M 18922B 18946  19278M 19281B 19305  19366M
                                                 19367M 19367B 19405M 19406M 19406B 19449M 19450M 19450B 19525M 19528B
                                                 19543  19604M 19605M 19605B 19657M 19658M 19658B 19675M 19676M 19676B
                                                 19726M 19727M 19727B 19818M 19819M 19819B 19858M 19861B 19877  19936M
                                                 19937M 19937B 19975M 19978B 19994  20064M 20065M 20065B 20082M 20083M
                                                 20083B 20121M 20124B 20140  20210M 20211M 20211B 20228M 20229M 20229B
                                                 20267M 20270B 20330  20438M 20439M 20439B 20519M 20522B 20783  20854M
                                                 20857B 20874  20939M 20942B 20959  21037M 21040B 21057  21137M 21140B
                                                 21158  21222M 21223M 21223B 21243M 21244M 21244B 21347M 21350B 21368
                                                 21414M 21415M 21415B 21487M 21488M 21488B 21539M 21542B 21560  21621M
                                                 21622M 21622B 21633M 21634M 21634B 21659M 21662B 21680  21731M 21732M
                                                 21732B 21754M 21757B 21774  21835M 21836M 21836B 21889M 21890M 21890B
                                                 21954M 21955M 21955B 21987M 21988M 21988B 22020M 22021M 22021B 22059M
                                                 22060M 22060B 22178M 22181B 22199  22260M 22261M 22261B 22295M 22296M
                                                 22296B 22334M 22335M 22335B 22380M 22381M 22381B 22402M 22403M 22403B
                                                 22420M 22421M 22421B 22454M 22455M 22455B 22523M 22526B 22582  22633M
                                                 22634M 22634B 22651M 22654B 22666  22727M 22728M 22728B 22763M 22764M
                                                 22764B 22867M 22868M 22868B 22872M 22873M 22873B 22896M 22897M 22897B
                                                 22914M 22915M 22915B 22926M 22927M 22927B 22980M 22981M 22981B 23035M
                                                 23036M 23036B 23040M 23041M 23041B 23064M 23065M 23065B 23082M 23083M
1LINE     (LINE2193) (12:47) (15MAR04) Ordinary Symbol and Literal Cross Reference                                          Page  227
                                                 23083B 23200M 23203B 23276  23325M 23328B 23340  23438M 23441B 23453
                                                 23498M 23499M 23499B 23517M 23520B 23532  23583M 23584M 23584B 23601M
                                                 23602M 23602B 23620M 23623B 23639  23698M 23699M 23699B 23722M 23725B
                                                 23740  23805M 23806M 23806B 23823M 23824M 23824B 23847M 23850B 23992
                                                 24023M 24024M 24024B 24046M 24047M 24047B 24066M 24069B 24190  24276M
                                                 24277M 24277B 24290M 24291M 24291B 24370M 24371M 24371B 24384M 24385M
                                                 24385B 24414M 24415M 24415B 24567M 24568M 24568B 24581M 24582M 24582B
                                                 24720M 24721M 24721B 24724M 24725M 24725B 24851M 24852M 24852B 24855M
                                                 24856M 24856B 24888M 24889M 24889B 24963M 24964M 24964B 25040M 25041M
                                                 25041B 25099M 25100M 25100B 25140M 25141M 25141B 25175M 25176M 25176B
                                                 25228M 25229M 25229B 25356M 25357M 25357B 25506M 25507M 25507B 25542M
                                                 25543M 25543B 25561M 25562M 25562B 25582M 25583M 25583B 25731M 25732M
                                                 25732B 25768M 25769M 25769B 25785M 25786M 25786B 25806M 25807M 25807B
                                                 25966M 25967M 25967B 26030M 26031M 26031B 26059M 26060M 26060B 26083M
                                                 26084M 26084B 26090M 26091M 26091B 26149M 26150M 26150B 26174M 26175M
                                                 26175B 26178M 26179M 26179B 26189M 26190M 26190B 26287M 26288M 26288B
                                                 26340M 26341M 26341B 26374M 26375M 26375B 26379M 26380M 26380B 26403M
                                                 26404M 26404B 26521M 26522M 26522B 26537M 26538M 26538B 26609M 26610M
                                                 26610B 26648M 26649M 26649B 26653M 26654M 26654B 26668M 26669M 26669B
                                                 26723M 26724M 26724B 26728M 26729M 26729B 26752M 26753M 26753B 26811M
                                                 26814B 27044  27167M 27170B 27182  27228M 27231B 27243  27289M 27290M
                                                 27290B 27312M 27315B 27327  27378M 27381B 27393  27445M 27448B 27460
                                                 27511M 27514B 27527  27575M 27576M 27576B 27596M 27597M 27597B 27618M
                                                 27619M 27619B 27634M 27635M 27635B 27662M 27665B 27768  27875M 27876M
                                                 27876B 27889M 27890M 27890B 27908M 27911B 27997  28247M 28248M 28248B
                                                 28267M 28268M 28268B 28286M 28287M 28287B 28291M 28292M 28292B 28315M
                                                 28316M 28316B 28346M 28347M 28347B 28351M 28352M 28352B 28355M 28356M
                                                 28356B 28366M 28367M 28367B 28374M 28375M 28375B 28443M 28444M 28444B
                                                 28482M 28483M 28483B 28517M 28518M 28518B 28522M 28523M 28523B 28526M
                                                 28527M 28527B 28550M 28551M 28551B 28554M 28555M 28555B 28593M 28594M
                                                 28594B 28598M 28599M 28599B 28602M 28603M 28603B 28624M 28625M 28625B
                                                 28644M 28645M 28645B 28648M 28649M 28649B 28652M 28653M 28653B 28707M
                                                 28710B 28753  28825M 28826M 28826B 28839M 28840M 28840B 28887M 28888M
                                                 28888B 28939M 28942B 29001  29053M 29056B 29068  29115M 29118B 29130
                                                 29181M 29182M 29182B 29206M 29209B 29234  29267M 29268M 29268B 29334M
                                                 29335M 29335B 29380M 29383B 29428  29500M 29501M 29501B 29514M 29515M
                                                 29515B 29776M 29777M 29777B 29794M 29795M 29795B 29858M 29859M 29859B
                                                 29910M 29913B 29973  30025M 30028B 30040  30087M 30090B 30102  30153M
                                                 30154M 30154B 30178M 30181B 30249  30369M 30370M 30370B 30383M 30384M
                                                 30384B 30468M 30469M 30469B 30493M 30494M 30494B 30556M 30557M 30557B
                                                 30568M 30569M 30569B 30585M 30586M 30586B 30628M 30629M 30629B 30659M
                                                 30660M 30660B 30688M 30689M 30689B 30713M 30714M 30714B 30717M 30718M
                                                 30718B 30755M 30756M 30756B 30781M 30782M 30782B 30819M 30820M 30820B
                                                 30823M 30824M 30824B 30844M 30845M 30845B 30873M 30874M 30874B 30878M
                                                 30879M 30879B 30902M 30903M 30903B 30981M 30984B 31091  31142M 31145B
                                                 31161  31255M 31256M 31256B 31269M 31270M 31270B 31315M 31316M 31316B
                                                 31337M 31338M 31338B 31353M 31354M 31354B 31379M 31380M 31380B 31470M
                                                 31471M 31471B 31504M 31505M 31505B 31509M 31510M 31510B 31533M 31534M
                                                 31534B 31644M 31645M 31645B 31666M 31667M 31667B 31684M 31685M 31685B
                                                 31689M 31690M 31690B 31698M 31699M 31699B 31725M 31728B 31857  31908M
                                                 31909M 31909B 31973M 31974M 31974B 31987M 31988M 31988B 31995M 31996M
                                                 31996B 32021M 32024B 32112  32164M 32167B 32185  32236M 32237M 32237B
                                                 32253M 32254M 32254B 32269M 32270M 32270B 32309M 32310M 32310B 32324M
                                                 32325M 32325B 32353M 32354M 32354B 32358M 32359M 32359B 32382M 32383M
                                                 32383B 32431M 32432M 32432B 32513M 32514M 32514B 32517M 32518M 32518B
                                                 32521M 32522M 32522B 32540M 32541M 32541B 32567M 32568M 32568B 32589M
                                                 32592B 32848  32906M 32907M 32907B 32968M 32969M 32969B 32982M 32983M
                                                 32983B 33005M 33006M 33006B 33019M 33020M 33020B 33059M 33060M 33060B
                                                 33073M 33074M 33074B 33096M 33097M 33097B 33110M 33111M 33111B 33154M
1LINE     (LINE2193) (12:47) (15MAR04) Ordinary Symbol and Literal Cross Reference                                          Page  228
                                                 33155M 33155B 33168M 33169M 33169B 33191M 33192M 33192B 33205M 33206M
                                                 33206B 33282M 33283M 33283B 33303M 33304M 33304B 33393M 33396B 34207
                                                 34259M 34262B 34274  34311M 34312M 34312B 34316M 34317M 34317B 34352M
                                                 34353M 34353B 34379M 34380M 34380B 34388M 34389M 34389B 34392M 34393M
                                                 34393B 34396M 34397M 34397B 34415M 34418B 34430  34473M 34474M 34474B
                                                 34478M 34479M 34479B 34494M 34495M 34495B 34524M 34525M 34525B 34528M
                                                 34529M 34529B 34532M 34533M 34533B 34551M 34554B 34566  34603M 34604M
                                                 34604B 34608M 34609M 34609B 34624M 34625M 34625B 34633M 34634M 34634B
                                                 34637M 34638M 34638B 34641M 34642M 34642B 34660M 34663B 34675  34768M
                                                 34769M 34769B 34787M 34790B 34802  34895M 34896M 34896B 34914M 34917B
                                                 34929  34987M 34990B 35008  35060M 35063B 35075  35127M 35130B 35142
                                                 35194M 35197B 35215  35267M 35270B 35283  35314M 35315M 35315B 35335M
                                                 35336M 35336B 35340M 35341M 35341B 35358M 35359M 35359B 35381M 35384B
                                                 35397  35428M 35429M 35429B 35433M 35434M 35434B 35468M 35469M 35469B
                                                 35484M 35485M 35485B 35502M 35503M 35503B 35525M 35528B 35541  35621M
                                                 35622M 35622B 35625M 35626M 35626B 35644M 35647B 35660  35744M 35745M
                                                 35745B 35748M 35749M 35749B 35767M 35770B 35783  35867M 35868M 35868B
                                                 35871M 35872M 35872B 35890M 35893B 35906  35958M 35961B 35974  36026M
                                                 36029B 36042  36102M 36105B 36120  36172M 36175B 36187  36239M 36242B
                                                 36254  36307M 36308M 36308B 36321M 36322M 36322B 36377M 36378M 36378B
                                                 36391M 36392M 36392B 36489M 36492B 36550  36602M 36605B 36617  36666M
                                                 36669B 36685  36736M 36739B 36751  36802M 36805B 36817  36877M 36880B
                                                 36892  36954M 36957B 36969  37016M 37019B 37032  37095M 37096M 37096B
                                                 37140M 37143B 37220  37297M 37298M 37298B 37311M 37312M 37312B 37395M
                                                 37396M 37396B 37423M 37424M 37424B 37437M 37438M 37438B 37598M 37599M
                                                 37599B 37612M 37613M 37613B 37699M 37700M 37700B 37727M 37728M 37728B
                                                 37741M 37742M 37742B 37902M 37903M 37903B 37916M 37917M 37917B 38017M
                                                 38018M 38018B 38083M 38084M 38084B 38108M 38111B 38186  38232M 38235B
                                                 38247  38349M 38352B 38364  38413M 38416B 38428  38474M 38477B 38495
                                                 38594M 38597B 38623  38686M 38687M 38687B 38700M 38701M 38701B 38719M
                                                 38722B 38782  38828M 38831B 38843  38945M 38948B 38962  39010M 39011M
                                                 39011B 39070M 39071M 39071B 39084M 39085M 39085B 39109M 39112B 39170
                                                 39222M 39225B 39237  39285M 39288B 39343  39393M 39394M 39394B 39407M
                                                 39408M 39408B 39476M 39479B 39554  39600M 39603B 39615  39717M 39720B
                                                 39732  39781M 39784B 39796  39845M 39848B 39898  40426M 40429B 40476
                                                 40515M 40516M 40516B 40521M 40522M 40522B 40541M 40542M 40542B 40545M
                                                 40546M 40546B 40549M 40550M 40550B 40580M 40581M 40581B 40587M 40588M
                                                 40588B 40608M 40611B 40628  41057M 41060B 41086  41355M 41356M 41356B
                                                 41410M 41413B 41431  41527M 41528M 41528B 41560M 41561M 41561B 41593M
                                                 41594M 41594B 41626M 41627M 41627B 41659M 41660M 41660B 41702M 41705B
                                                 41721  41943M 41946B 41962  42184M 42187B 42203  42380M 42381M 42381B
                                                 42399M 42402B 42415  42460M 42463B 42479  42532M 42533M 42533B 42604M
                                                 42605M 42605B 42668M 42669M 42669B 42676M 42677M 42677B 42705M 42706M
                                                 42706B 42732M 42733M 42733B 42788M 42789M 42789B 42886M 42889B 42930
                                                 43390M 43393B 43457  43635M 43638B 43655  43706M 43707M 43707B 43792M
                                                 43795B 43821  43927M 43928M 43928B 43970M 43971M 43971B 43975M 43976M
                                                 43976B 43999M 44000M 44000B 44101M 44102M 44102B 44142M 44143M 44143B
                                                 44147M 44148M 44148B 44171M 44172M 44172B 44307M 44310B 44339  44377M
                                                 44378M 44378B 44402M 44403M 44403B 44416M 44417M 44417B 44494M 44495M
                                                 44495B 44515M 44516M 44516B 44523M 44524M 44524B 44561M 44562M 44562B
                                                 44582M 44583M 44583B 44730M 44731M 44731B 44746M 44747M 44747B 44762M
                                                 44763M 44763B 44797M 44800B 44854  44970M 44971M 44971B 44993M 44994M
                                                 44994B 45007M 45008M 45008B 45054M 45055M 45055B 45073M 45076B 45144
                                                 45186M 45187M 45187B 45212M 45213M 45213B 45252M 45255B 45274  45341M
                                                 45342M 45342B 45365M 45366M 45366B 45509M 45510M 45510B 45598M 45599M
                                                 45599B 45714M 45717B 45820  45925M 45926M 45926B 45939M 45940M 45940B
                                                 45986M 45987M 45987B 46051M 46052M 46052B 46065M 46066M 46066B 46116M
                                                 46117M 46117B 46142M 46145B 46263  46368M 46371B 46383  46434M 46437B
                                                 46449  46500M 46503B 46528  46902M 46903M 46903B 47050M 47051M 47051B
1LINE     (LINE2193) (12:47) (15MAR04) Ordinary Symbol and Literal Cross Reference                                          Page  229
                                                 47083M 47084M 47084B 47088M 47089M 47089B 47112M 47113M 47113B 47130M
                                                 47131M 47131B 47142M 47143M 47143B 47167M 47168M 47168B 47188M 47189M
                                                 47189B 47213M 47214M 47214B 47235M 47236M 47236B 47265M 47266M 47266B
                                                 47293M 47294M 47294B 47319M 47320M 47320B 47440M 47443B 47513  47583M
                                                 47584M 47584B 47649M 47650M 47650B 47663M 47664M 47664B 47713M 47714M
                                                 47714B 47739M 47740M 47740B 47806M 47807M 47807B 47828M 47829M 47829B
                                                 47853M 47854M 47854B 47880M 47881M 47881B 47892M 47893M 47893B 47896M
                                                 47897M 47897B 47968M 47969M 47969B 48003M 48006B 48169  48217M 48218M
                                                 48218B 48240M 48243B 48255  48307M 48310B 48322  48373M 48376B 48388
                                                 48440M 48443B 48455  48507M 48510B 48522  48573M 48576B 48600  48674M
                                                 48675M 48675B 48679M 48680M 48680B 48759M 48760M 48760B 48802M 48803M
                                                 48803B 48820M 48821M 48821B 48825M 48826M 48826B 48960M 48963B 49064
                                                 49165M 49166M 49166B 49190M 49191M 49191B 49204M 49205M 49205B 49228M
                                                 49229M 49229B 49242M 49243M 49243B 49266M 49267M 49267B 49352M 49353M
                                                 49353B 49356M 49357M 49357B 49381M 49382M 49382B 49388M 49389M 49389B
                                                 49392M 49393M 49393B 49417M 49418M 49418B 49447M 49448M 49448B 49462M
                                                 49463M 49463B 49472M 49473M 49473B 49524M 49527B 49740  49792M 49795B
                                                 49807  49859M 49862B 49874  49909M 49910M 49910B 49930M 49931M 49931B
                                                 49954M 49957B 49969  50028M 50029M 50029B 50049M 50050M 50050B 50073M
                                                 50076B 50088  50133M 50134M 50134B 50138M 50139M 50139B 50162M 50163M
                                                 50163B 50187M 50190B 50260  50377M 50378M 50378B 50407M 50408M 50408B
                                                 50460M 50461M 50461B 50535M 50538B 50566  50628M 50629M 50629B 50655M
                                                 50656M 50656B 50669M 50670M 50670B 50714M 50715M 50715B 50757M 50758M
                                                 50758B 50848M 50849M 50849B 50907M 50908M 50908B 50968M 50969M 50969B
                                                 50999M 51002B 51182  51228M 51231B 51243  51289M 51292B 51304  51350M
                                                 51353B 51365  51411M 51414B 51426  51472M 51475B
 RDITTO        2 00006400 00000001     H   32106 32055
 RDRNG         1 00000000 0000000F     T    8175  8175  32613  33420  45734  48987
 REMAINDR      2 0000187E 00000001     H   14640 14191
 REMERR        2 00001A0E 00000001     H   15221 14708B 14733B 14788B 14922B 14970B 15010B 15152B 15208B
 REMEXIT       2 00001A12 00000001     H   15226 14934B 15052B 15218B
 REMLOOP       4 000018D4 00000001     I   14782 14826B
 REMNEXT       2 000018E6 00000001     H   14792 14783B
 REPEXIT       2 00006590 00000001     H   32575 32282B 32434B 32529B 32543B 32570B
 REPLACE       2 00006280 00000001     H   31850 31846
 REPMSG       48 0000659E 00000001     C   32598 32250  32250
 REPPRT        4 00006338 00000001     F   32028 32608
 REPPRTRY      2 00006452 00000001     I   32233 32276B
 REPRTN        2 0000642C 00000001     H   32179 32612
 REPWA       256 00000000 FFFFFFDE     J   31840 31863  31892U 31902M 31902  31903  32019  32021  32022
 RERROR        1 00000008 00000001 A   U    8363 12185  13187  14064  14542  14583  15222  15676  16889  17478  17814
                                                 18256  18686  18732  19407  19451  19953  20099  20245  20465  21431
                                                 22026  22336  22422  22789  22916  22982  23084  23500  23603  23700
                                                 23825  23865
 REXIT         2 0000255A 00000001     H   19259 19021B 19116B
 RLINDONE      1 0000000C 00000001 A   U    8364 12186  21515
 RLINRET       1 00000010 00000001 A   U    8365 12187  20832  20917
 RLINRETD      1 00000014 00000001 A   U    8366 12188  21636
 RNGABORT      1 00000000 0000003C     T   32616 32616  44827
 RNORMAL2      1 00000004 00000001 A   U    8362 12184  21015  21115  21325  21461  21508  22155  22500  22539  23176
                                                 23308  23416
 RTRIM         1 00000000 00000049     T   44814 44814
 R0            0 00000000 FFFFFFFF A   #     699  2128   2197M  6879M  6879   6888   6889   6956M  6982M  7032M  7084M
                                                  7105M  7105   7138M  7159M  7159   7196M  7217M  7217   7254M  7275M
                                                  7275   7304M  7304   7655   7767   7883   8009   8037   8065   8501
                                                  8540M  8557   8564M  8569   8599   8808   8815M  8839M  8839   8896M
                                                  8896   8949   9509M  9560M  9563   9602M  9630   9659   9670M  9691M
                                                  9691   9727M  9754   9803M  9808   9847M  9849M  9905M 10060M 10060
                                                 10062M 10082M 10100M 10152M 10153M 10229M 10229  10404M 10467M 10468M
1LINE     (LINE2193) (12:47) (15MAR04) Ordinary Symbol and Literal Cross Reference                                          Page  230
                                                 10471  10472  10472  10472  10487M 10488M 10489  10492M 10529  10541M
                                                 10546  10578  10608  10676  10690M 10711M 10711  10729M 10742M 10789
                                                 10810  10811M 10847M 10847  10919M 10919  11175M 11179  11181M 11192
                                                 11263M 11281M 11281  11284M 11305  11314  11348M 11396  11533  11591M
                                                 11721M 11753M 11766M 11840M 11877M 11921M 11924  11989  12201  12201
                                                 12201  12287M 12288M 12474M 12494M 12526M 12546M 12651  12663M 12872M
                                                 13156M 13174M 13316M 13316  13328  13364M 13382  13389M 14414M 14414
                                                 14431  14434M 14467M 14529M 14570M 14592M 14722M 14722  14783M 14909M
                                                 14957M 14997M 15354M 15354  15439M 16067  16081  16088  16248M 16367
                                                 16481M 16481  16551  16558  16609  16676M 16800M 16800  16843M 16876M
                                                 17111M 17111  17299M 17299  17465M 17618M 17618  17667M 17667  17676M
                                                 17729M 17729  17747  17754  17801M 18047M 18047  18109M 18109  18118M
                                                 18171M 18171  18189  18196  18243M 18523M 18523  18566M 18602M 18602
                                                 18620  18627  18673M 18719M 19010  19111M 19111  19160  19167  19218
                                                 19249M 19394M 19438M 19646M 19664M 19723M 19807M 19925M 20053M 20071M
                                                 20199M 20217M 20412  20423M 20423  20432  20433  20831M 20916M 21245
                                                 21261M 21262  21270  21411M 21430M 21430  21455M 21455  21493  21629M
                                                 21630  21635M 21943M 21976M 22009M 22051M 22051  22052M 22323M 22369M
                                                 22391M 22391  22409M 22465M 22465  22492M 22497M 22498  22626  22748M
                                                 22748  22757  22758  22816M 22817  22831  22845  22856M 22869M 22903M
                                                 22969M 23024M 23037M 23071M 23305  23383M 23384M 23402M 23413  23487M
                                                 23590M 23687M 23812M 24261M 24261  24270  24271  24355M 24355  24364
                                                 24365  24552M 24552  24561  24562  24827M 24858  25165M 25165  25171M
                                                 25172  25539M 25600M 25617M 25618M 25623  25725M 25728  25765M 25765
                                                 25773M 25774M 25775  25878M 25896  25897  25897  25897  25960M 25963
                                                 25989M 26020M 26020  26048M 26080M 26232M 26252  26308  26315  26336
                                                 26363M 26376M 26410M 26475M 26476M 26476  26508M 26517M 26517  26518M
                                                 26539M 26577M 26587  26598M 26637M 26650M 26664M 26664  26665M 26682M
                                                 26682  26683M 26684M 26685M 26686  26712M 26725M 27148  27280M 27280
                                                 27295  27581M 27737  27737  27737  27860M 27860  27869  27870  28044
                                                 28056M 28069M 28069  28113M 28122M 28122  28132M 28132  28139  28151M
                                                 28156  28157  28275M 28288M 28323M 28335M 28348M 28363M 28369M 28370
                                                 28506M 28519M 28582M 28595M 28638M 28673M 28674M 28675  28810M 28810
                                                 28819  28820  28851M 28860M 28869M 28869  28879M 28879  29035M 29097
                                                 29188M 29285M 29293  29298M 29307M 29316M 29316  29326M 29326  29485M
                                                 29485  29494  29495  29526M 29535M 29544M 29544  29554M 29554  29562
                                                 29573M 29573  29609  29649  29732M 29765M 29783M 29801M 29847M 29853M
                                                 30007M 30069  30160M 30354M 30354  30363  30364  30405M 30482M 30482
                                                 30553M 30553  30561M 30562M 30563  30624M 30625  30651M 30651  30677M
                                                 30710M 30828M 30829M 30830  30841M 30862M 30875M 30909M 30915M 30916
                                                 30917M 30918  31219M 31231  31232  31241M 31241  31250  31251  31252
                                                 31281M 31281  31300M 31493M 31506M 31540M 31596M 31596  31597M 31633M
                                                 31655M 31655  31673M 31686M 31958M 31958  31967  31968  31991M 32316
                                                 32321M 32342M 32355M 32389M 32414M 32414  32422M 32480M 32480  32502M
                                                 32526M 32527M 32528  32537M 32556M 32556  32898  32898  32953M 32953
                                                 32962  32963  32990M 32990  32999  33000  33044M 33044  33053  33054
                                                 33081M 33081  33090  33091  33139M 33139  33148  33149  33176M 33176
                                                 33185  33186  33299M 33364M 34241M 34359M 34385  34501  34521  34630
                                                 35042M 35249M 35332M 35337  35475M 35481  35574M 35579  35618  35694M
                                                 35699  35740M 35741  35817M 35822  35863M 35864  36077M 36154M 36216M
                                                 36218  36220  36283  36284  36285  36286  36293M 36293  36302  36303
                                                 36304  36350  36362M 36362  36371  36372  36584M 36646  36998  37081M
                                                 37114M 37282M 37282  37291  37292  37408M 37408  37417  37418  37583M
                                                 37583  37592  37593  37712M 37712  37721  37722  37887M 37887  37896
                                                 37897  38393  38567M 38671M 38671  38680  38681  39002  39026M 39028M
                                                 39044  39055M 39055  39064  39065  39204M 39266  39378M 39378  39387
                                                 39388  39430M 39453M 39459  39459M 39761  39825  39945  40277M 40679
                                                 40680  40739  40740  40820  40832M 40837  41797M 42038M 42279M 42376M
                                                 42525M 42550M 42567  42578M 42657M 42673M 42694M 42767M 42779  42784M
1LINE     (LINE2193) (12:47) (15MAR04) Ordinary Symbol and Literal Cross Reference                                          Page  231
                                                 42790  43013M 43923M 43924M 43929  43931M 43932  43959M 43972M 44097M
                                                 44098M 44103  44105M 44106  44131M 44144M 44370M 44371M 44372  44398
                                                 44399  44399  44399  44406M 44432  44512  44520M 44550M 44550  44577M
                                                 44578M 44660M 44661M 44662  44828  44828  44828  44978M 44978  44987
                                                 44988  45182M 45208M 45362M 45505M 45911M 45911  45920  45921  45922
                                                 45955M 45955  45966M 45970  46036M 46036  46045  46046  46112M 46300M
                                                 46300  46322M 46339M 46339  46346M 46351  46604  46705  46713  46765
                                                 46929M 46929  46975  47072M 47085M 47119M 47164M 47210M 47215  47262M
                                                 47290M 47298M 47299M 47300  47316M 47324M 47325M 47326  47634M 47634
                                                 47643  47644  47709M 47788M 47803M 47808  47842M 47842  47877M 47889M
                                                 47917M 47918M 47919  47946M 47947  48214M 48219  48663M 48676M 48768
                                                 48791M 48809M 48822M 48874  49175M 49175  49184  49185  49213M 49213
                                                 49222  49223  49251M 49251  49260  49261  49370M 49370  49406M 49406
                                                 49444M 49458M 49468M 49494M 49495M 49496  49774M 49841M 49903  49904
                                                 49905  50005  50016M 50022  50023  50024  50122M 50135M 50169M 50322M
                                                 50358M 50358  50396M 50412M 50432M 50518  50518M 50603  50617M 50617
                                                 50644M 50662M 50688  50699M 50699  50708  50709  50746M 50845M 50904M
                                                 50957M
 R1            1 00000001 FFFFFFFF A   #     712  2191M  2192M  2198M  6875M  6888   6889   6891   6955M  6983M  7031M
                                                  7083M  7101M  7137M  7155M  7195M  7213M  7253M  7271M  8500   8517
                                                  8569   9025M  9026M  9027   9056   9347M  9482M  9483M  9484   9561M
                                                  9562   9579   9629   9669M  9698M  9985M  9986M  9986   9992M  9993M
                                                  9994   9995M 10013M 10022M 10045M 10055M 10056M 10071M 10071  10081M
                                                 10099M 10122  10151M 10368M 10378U 10403M 10432  10433  10433  10433
                                                 10466M 10471  10472  10472  10472  10473M 10492M 10630M 10689M 10707M
                                                 10728M 10743M 10812M 11175M 11262M 11285M 11304  11590M 11615M 11620M
                                                 11682M 11683  11701M 11710M 11710  11720M 11745  11746  11752M 11876M
                                                 11902M 11922M 12201  12201  12201  12202  12202  12202  12289M 12291M
                                                 12473M 12493M 12525M 12545M 12668  12870M 13141M 13173M 13322  13363
                                                 13382  13387M 14430  14433M 14528M 14569M 14591M 14781  14782M 14908M
                                                 14956M 14996M 15438M 16120  16246M 16675M 16842M 16875M 17464M 17492
                                                 17674M 17701  17720  17800M 18116M 18143  18162  18242M 18565M 18574
                                                 18593  18672M 18718M 19248M 19393M 19437M 19645M 19663M 19707M 19800M
                                                 19924M 20038M 20070M 20184M 20216M 20411  20419M 20432  20433  20435
                                                 20831M 20916M 21219M 21240M 21261M 21469M 21630M 21854M 21855M 21855
                                                 21861M 21862M 21863  21864M 21882M 21891M 21914M 21924M 21925  21926M
                                                 21942M 21975M 22008M 22061  22285M 22286M 22287  22292M 22322M 22343M
                                                 22344M 22345  22368M 22387M 22408M 22429M 22446M 22456  22625  22744M
                                                 22757  22758  22760  22855M 22902M 22923M 22968M 23023M 23070M 23486M
                                                 23589M 23686M 23811M 24257M 24270  24271  24273  24351M 24364  24365
                                                 24367  24548M 24561  24562  24564  24830M 24831M 24831  24844M 25096M
                                                 25101  25137M 25172M 25222M 25223M 25224  25225M 25294M 25295  25353M
                                                 25534M 25579M 25726M 25761M 25877M 25961M 25991M 26047M 26075M 26086M
                                                 26259M 26260M 26260  26273M 26337M 26362M 26409M 26489M 26490M 26507M
                                                 26523  26524M 26525  26531M 26533M 26534  26575M 26576M 26597M 26636M
                                                 26670  26684  26711M 27133  27143M 27143  27149  27611M 27856M 27869
                                                 27870  27872  28055M 28108  28111M 28244M 28274M 28322M 28334M 28371M
                                                 28479M 28505M 28546M 28581M 28604M 28639M 28806M 28819  28820  28822
                                                 28850M 28858M 29034M 29187M 29284M 29297M 29305M 29481M 29494  29495
                                                 29497  29525M 29533M 29562  29782M 29800M 29845M 29853M 30006M 30159M
                                                 30350M 30363  30364  30366  30404M 30465M 30549M 30676M 30705M 30727M
                                                 30778M 30815M 30836M 30861M 30908M 30915M 30917  31218M 31231  31237M
                                                 31250  31251  31252  31330M 31467M 31492M 31539M 31563M 31586M 31591M
                                                 31592  31605  31622M 31622  31632M 31651M 31672M 31700  31954M 31967
                                                 31968  31970  31992M 32315  32341M 32388M 32421M 32495M 32510M 32531M
                                                 32949M 32962  32963  32965  32986M 32999  33000  33002  33040M 33053
                                                 33054  33056  33077M 33090  33091  33093  33135M 33148  33149  33151
                                                 33172M 33185  33186  33188  33228M 33229M 33231M 33300M 33363M 34240M
                                                 34358M 35041M 35248M 35327M 35474M 35573M 35693M 35816M 36076M 36153M
1LINE     (LINE2193) (12:47) (15MAR04) Ordinary Symbol and Literal Cross Reference                                          Page  232
                                                 36217M 36219  36221  36289M 36302  36303  36304  36358M 36371  36372
                                                 36374  36583M 36999  37080M 37113M 37278M 37291  37292  37294  37404M
                                                 37417  37418  37420  37579M 37592  37593  37595  37708M 37721  37722
                                                 37724  37883M 37896  37897  37899  38541M 38543M 38544  38566M 38667M
                                                 38680  38681  38683  39024M 39043  39051M 39064  39065  39067  39203M
                                                 39374M 39387  39388  39390  40276M 41152M 41153M 41155M 41156  41157
                                                 41176M 41177M 41178  41214M 41230  41236  41284  41285M 41286  41367M
                                                 41367  41677M 41678  41679M 41680  41769M 41770M 41772M 41796M 41843M
                                                 41844  41880M 41918M 41919  41920M 41921  42010M 42011M 42013M 42037M
                                                 42084M 42085  42121M 42159M 42160  42161M 42162  42251M 42252M 42254M
                                                 42278M 42312M 42313  42345M 42366M 42367  42368M 42369  42377M 42529M
                                                 42529  42549M 42577M 42596M 42656M 42672M 42693M 42722M 42723  42724M
                                                 42766M 42780M 42781  42785M 42811M 42812M 42814M 42815  42837M 42839M
                                                 42840  43012M 43023M 43025M 43046M 43054M 43060M 43077M 43110M 43143M
                                                 43176M 43185  43231M 43272M 43273M 43315M 43316M 43317M 43362M 43363
                                                 43490M 43492  43533M 43534  43535  43538M 43582M 43583M 43594  43600
                                                 43729M 43730  43879M 43880  43922M 43924  43930M 43931  43951M 43952M
                                                 43953  43958M 44052M 44053  44096M 44098  44104M 44105  44130M 44241M
                                                 44242M 44243  44369M 44371  44398  44399  44399  44399  44406M 44512
                                                 44519M 44576M 44578  44828  44828  44828  44974M 44987  44988  44990
                                                 45183M 45209M 45361M 45506M 45907M 45920  45921  45922  45965M 45969
                                                 46032M 46045  46046  46048  46113M 46767M 46899M 47071M 47118M 47139M
                                                 47144M 47145  47159M 47205M 47215  47261M 47285M 47311M 47630M 47643
                                                 47644  47646  47710M 47787M 47798M 47808  47876M 47889M 47947M 48209M
                                                 48662M 48790M 48808M 49171M 49184  49185  49187  49209M 49222  49223
                                                 49225  49247M 49260  49261  49263  49349M 49385M 49443M 49459M 49469M
                                                 49773M 49840M 49906M 50015M 50025M 50121M 50168M 50315M 50356M 50356
                                                 50389M 50411M 50431M 50518  50602  50639M 50661M 50687  50695M 50708
                                                 50709  50711  50745M 50845M 50904M 50956M
 R12          12 0000000C FFFFFFFF A   #     855  2154
 R13          13 0000000D FFFFFFFF A   #     868  6883   6884   6885   6901   6902   6903  20427  20428  20429  20445
                                                 20446  20447  22752  22753  22754  22770  22771  22772  24252  24265
                                                 24266  24267  24283  24284  24285  24346  24359  24360  24361  24377
                                                 24378  24379  24556  24557  24558  24574  24575  24576  27864  27865
                                                 27866  27882  27883  27884  28814  28815  28816  28832  28833  28834
                                                 29489  29490  29491  29507  29508  29509  30358  30359  30360  30376
                                                 30377  30378  31245  31246  31247  31262  31263  31264  31962  31963
                                                 31964  31980  31981  31982  32957  32958  32959  32975  32976  32977
                                                 32994  32995  32996  33012  33013  33014  33048  33049  33050  33066
                                                 33067  33068  33085  33086  33087  33103  33104  33105  33143  33144
                                                 33145  33161  33162  33163  33180  33181  33182  33198  33199  33200
                                                 36297  36298  36299  36314  36315  36316  36366  36367  36368  36384
                                                 36385  36386  37286  37287  37288  37304  37305  37306  37412  37413
                                                 37414  37430  37431  37432  37587  37588  37589  37605  37606  37607
                                                 37716  37717  37718  37734  37735  37736  37891  37892  37893  37909
                                                 37910  37911  38675  38676  38677  38693  38694  38695  39019  39059
                                                 39060  39061  39077  39078  39079  39382  39383  39384  39400  39401
                                                 39402  44982  44983  44984  45000  45001  45002  45902  45915  45916
                                                 45917  45932  45933  45934  46040  46041  46042  46058  46059  46060
                                                 47638  47639  47640  47656  47657  47658  49179  49180  49181  49197
                                                 49198  49199  49217  49218  49219  49235  49236  49237  49255  49256
                                                 49257  49273  49274  49275  50598  50703  50704  50705  50721  50722
                                                 50723
 R14          14 0000000E FFFFFFFF A   #     881  2129M  6882M  6883   6884   6885   6890M  6891   6898M  6901   6902
                                                  6903   8977M  8977   9019M  9026   9047M  9047   9058M  9058   9103M
                                                  9103   9143M  9205M  9232M  9233   9514M  9519M  9528M  9528   9535
                                                 10061M 10062  10128M 10129M 10130  10267M 10268M 10269  10278M 10278
                                                 10442M 10443M 10444  10498M 10499M 10500  10509M 10509  11570M 11571M
                                                 11572  20410M 20411  20412  20416M 20416  20426M 20427  20428  20429
1LINE     (LINE2193) (12:47) (15MAR04) Ordinary Symbol and Literal Cross Reference                                          Page  233
                                                 20434M 20435  20442M 20445  20446  20447  22624M 22625  22626  22630M
                                                 22630  22751M 22752  22753  22754  22759M 22760  22767M 22770  22771
                                                 22772  24251M 24252  24264M 24265  24266  24267  24272M 24273  24280M
                                                 24283  24284  24285  24333M 24336  24345M 24346  24358M 24359  24360
                                                 24361  24366M 24367  24374M 24377  24378  24379  24388M 24391  24555M
                                                 24556  24557  24558  24563M 24564  24571M 24574  24575  24576  25094M
                                                 25094  25095M 27801M 27802  27817  27832  27833  27834  27834  27835
                                                 27836  27849  27853M 27853  27863M 27864  27865  27866  27871M 27872
                                                 27879M 27882  27883  27884  28054M 28055  28056  28060M 28060  28813M
                                                 28814  28815  28816  28821M 28822  28829M 28832  28833  28834  28849M
                                                 28850  28851  28855M 28855  29296M 29297  29298  29302M 29302  29488M
                                                 29489  29490  29491  29496M 29497  29504M 29507  29508  29509  29524M
                                                 29525  29526  29530M 29530  30357M 30358  30359  30360  30365M 30366
                                                 30373M 30376  30377  30378  31244M 31245  31246  31247  31259M 31262
                                                 31263  31264  31406M 31407  31422  31437  31438  31439  31439  31440
                                                 31441  31454  31458M 31458  31961M 31962  31963  31964  31969M 31970
                                                 31977M 31980  31981  31982  32956M 32957  32958  32959  32964M 32965
                                                 32972M 32975  32976  32977  32993M 32994  32995  32996  33001M 33002
                                                 33009M 33012  33013  33014  33047M 33048  33049  33050  33055M 33056
                                                 33063M 33066  33067  33068  33084M 33085  33086  33087  33092M 33093
                                                 33100M 33103  33104  33105  33142M 33143  33144  33145  33150M 33151
                                                 33158M 33161  33162  33163  33179M 33180  33181  33182  33187M 33188
                                                 33195M 33198  33199  33200  34500M 34707M 34708  34723  34738  34739
                                                 34740  34740  34741  34742  34755  34759M 34759  34834M 34835  34850
                                                 34865  34866  34867  34867  34868  34869  34882  34886M 34886  35572M
                                                 35573  35574  35578M 35578  35692M 35693  35694  35698M 35698  35815M
                                                 35816  35817  35821M 35821  36296M 36297  36298  36299  36311M 36314
                                                 36315  36316  36365M 36366  36367  36368  36373M 36374  36381M 36384
                                                 36385  36386  36415M 36416  36431  36446  36447  36448  36448  36449
                                                 36450  36463  36467M 36467  37285M 37286  37287  37288  37293M 37294
                                                 37301M 37304  37305  37306  37411M 37412  37413  37414  37419M 37420
                                                 37427M 37430  37431  37432  37481M 37482  37497  37512  37513  37514
                                                 37514  37515  37516  37529  37533M 37533  37586M 37587  37588  37589
                                                 37594M 37595  37602M 37605  37606  37607  37715M 37716  37717  37718
                                                 37723M 37724  37731M 37734  37735  37736  37785M 37786  37801  37816
                                                 37817  37818  37818  37819  37820  37833  37837M 37837  37890M 37891
                                                 37892  37893  37898M 37899  37906M 37909  37910  37911  38279M 38280
                                                 38295  38310  38311  38312  38312  38313  38314  38327  38331M 38331
                                                 38674M 38675  38676  38677  38682M 38683  38690M 38693  38694  38695
                                                 38875M 38876  38891  38906  38907  38908  38908  38909  38910  38923
                                                 38927M 38927  39018M 39019  39042M 39043  39044  39048M 39048  39058M
                                                 39059  39060  39061  39066M 39067  39074M 39077  39078  39079  39089M
                                                 39092  39381M 39382  39383  39384  39389M 39390  39397M 39400  39401
                                                 39402  39647M 39648  39663  39678  39679  39680  39680  39681  39682
                                                 39695  39699M 39699  44981M 44982  44983  44984  44989M 44990  44997M
                                                 45000  45001  45002  45901M 45902  45914M 45915  45916  45917  45929M
                                                 45932  45933  45934  45943M 45946  45968M 45969  45970  45974M 45974
                                                 46039M 46040  46041  46042  46047M 46048  46055M 46058  46059  46060
                                                 47637M 47638  47639  47640  47645M 47646  47653M 47656  47657  47658
                                                 49178M 49179  49180  49181  49186M 49187  49194M 49197  49198  49199
                                                 49216M 49217  49218  49219  49224M 49225  49232M 49235  49236  49237
                                                 49254M 49255  49256  49257  49262M 49263  49270M 49273  49274  49275
                                                 50597M 50598  50686M 50687  50688  50692M 50692  50702M 50703  50704
                                                 50705  50710M 50711  50718M 50721  50722  50723  50979M 50982
 R15          15 0000000F FFFFFFFF A   #     894  2128   6755M  6755   6904M  6904   6964M  7040M  7092M  7113M  7146M
                                                  7167M  7204M  7225M  7262M  7283M  7312M  7347M  7347   7567M  7567
                                                  7679M  7679   7791M  7791   7907M  7907   8156M  8156   8500M  8501M
                                                  8503M  8517   8538M  8599M  8608M  8610   8847M  8950M  8967M  8967
                                                  8973M  8973   9229M  9233M  9249   9256M  9304   9346   9483   9509
1LINE     (LINE2193) (12:47) (15MAR04) Ordinary Symbol and Literal Cross Reference                                          Page  234
                                                  9512   9516   9678M  9687M  9722M  9746M  9754M  9762M  9764  10090M
                                                 10108M 10154M 10237M 10302M 10312U 10412M 10432  10433  10433  10433
                                                 10474M 10475  10578M 10587M 10589  10630M 10698M 10719M 10737M 10798M
                                                 10855M 10933M 10933  11004M 11004  11024  11045  11082  11102  11122
                                                 11182M 11192  11206M 11206  11218M 11227M 11227  11234  11271M 11277M
                                                 11396M 11405M 11407  11443M 11453  11462M 11471M 11471  11478  11533M
                                                 11542M 11544  11577M 11729M 11761M 11790M 11795M 11805U 11885M 11919
                                                 11920  11920  11920  11938M 11973  11980M 12025M 12026M 12027  12058M
                                                 12068U 12093M 12093  12110M 12111M 12111  12153M 12153  12202  12202
                                                 12202  12204  12204  12204  12330M 12330  12518M 12566M 12566  12584
                                                 12629M 12629  12643M 12643  12698M 12698  12867M 12868M 12869  12876M
                                                 12876  13164M 13182M 13187M 13221M 13221  13328M 13331M 13333  13374M
                                                 13375M 13375  14064M 14120M 14120  14145M 14145  14518M 14518  14537M
                                                 14542M 14559  14578M 14583M 14590  14596M 14596  14622M 14622  14697M
                                                 14697  14749M 14749  14824M 14825M 14849M 14849  14898M 14898  14917M
                                                 14928M 14929  14933M 14933  14940M 14965M 14986  15005M 15046M 15047
                                                 15051M 15051  15058M 15059M 15121M 15126  15217M 15217  15222M 15247M
                                                 15247  15322M 15322  15329M 15363M 15363  15400  15404M 15404  15411
                                                 15447M 15537M 15567  15576M 15591  15626  15635M 15650  15663M 15666M
                                                 15667  15671M 15671  15676M 15701M 15701  15777M 15777  15817M 15817
                                                 15845M 15845  15920M 15920  15956M 15956  15984M 15984  16060M 16060
                                                 16067M 16081  16088M 16101M 16101  16111M 16111  16123  16181M 16181
                                                 16250M 16260M 16260  16284M 16284  16360M 16360  16367M 16380M 16380
                                                 16390M 16390  16445  16471M 16485M 16485  16539  16541  16601  16675
                                                 16676  16681M 16681  16707M 16707  16785M 16785  16791M 16841M 16884M
                                                 16889M 16937M 16937  16942  16957M 16957  16984M 16984  17060M 17060
                                                 17068M 17095M 17115M 17115  17128  17147M 17147  17172M 17172  17248M
                                                 17248  17256M 17283M 17303M 17303  17317  17337M 17337  17361M 17361
                                                 17454M 17454  17473M 17478M 17486M 17490M 17491  17500M 17500  17525M
                                                 17525  17603M 17603  17609M 17673M 17700  17809M 17814M 17832  17854M
                                                 17854  17869  17876M 17881  17883  17928M 17928  17954M 17954  18032M
                                                 18032  18038M 18115M 18142  18251M 18256M 18274  18296M 18296  18311
                                                 18318M 18323  18325  18370M 18370  18396M 18396  18505M 18505  18514M
                                                 18564M 18573  18681M 18686M 18696  18727M 18732M 18741  18749  18797
                                                 18806  18846  18851  18895M 18895  18921M 18921  18997M 18997  19010M
                                                 19020M 19020  19075  19101M 19115M 19115  19150  19160  19210  19248
                                                 19249  19254M 19254  19280M 19280  19357M 19357  19402M 19407M 19446M
                                                 19451M 19481M 19482M 19483  19502M 19502  19527M 19527  19595M 19595
                                                 19654M 19672M 19815M 19834M 19834  19860M 19860  19933M 19953M 19977M
                                                 19977  20061M 20079M 20099M 20123M 20123  20207M 20225M 20245M 20269M
                                                 20269  20381M 20381  20388M 20448M 20448  20457M 20457  20465M 20482
                                                 20492M 20492  20521M 20521  20832M 20856M 20856  20917M 20941M 20941
                                                 21015M 21039M 21039  21115M 21139M 21139  21270M 21279M 21281  21325M
                                                 21349M 21349  21431M 21461M 21477  21484M 21508M 21515M 21541M 21541
                                                 21636M 21661M 21661  21756M 21756  21951M 21984M 22017M 22026M 22077M
                                                 22089  22105M 22105  22117M 22119  22155M 22180M 22180  22331M 22336M
                                                 22377M 22399M 22417M 22422M 22500M 22525M 22525  22653M 22653  22773M
                                                 22773  22782M 22782  22789M 22806  22864M 22893M 22911M 22916M 22977M
                                                 22982M 23032M 23061M 23079M 23084M 23098M 23110  23126M 23126  23138M
                                                 23140  23176M 23202M 23202  23308M 23327M 23327  23394M 23395M 23395
                                                 23402  23416M 23440M 23440  23495M 23500M 23519M 23519  23580M 23598M
                                                 23603M 23622M 23622  23695M 23700M 23724M 23724  23802M 23820M 23825M
                                                 23849M 23849  24068M 24068  24286M 24286  24303  24325  24380M 24380
                                                 24577M 24577  24885M 24929M 24929  25036M 25037M 25042M 25043M 25045M
                                                 25096  25136M 25192M 25193M 25194  25195  25257M 25258M 25258  25271M
                                                 25295M 25312M 25328  25337  25502M 25503  25510M 25511M 25511  25627M
                                                 25628M 25628  25641M 25642  25651M 25651  25723  25724  25724  25724
                                                 25735M 25752M 25777M 25778  25779  25780  25819M 25829U 25896  25897
                                                 25897  25897  25958  25959  25959  25959  25971M 25989M 26003M 26003
1LINE     (LINE2193) (12:47) (15MAR04) Ordinary Symbol and Literal Cross Reference                                          Page  235
                                                 26026M 26027  26056M 26066M 26103M 26104M 26104  26117M 26122M 26134
                                                 26141M 26146  26171M 26195M 26196M 26197  26371M 26400M 26574  26587
                                                 26606M 26645M 26660M 26665  26720M 26749M 26754M 26764U 26813M 26813
                                                 27150M 27169M 27169  27211M 27230M 27230  27314M 27314  27380M 27380
                                                 27447M 27447  27513M 27513  27640M 27641  27645M 27645  27664M 27664
                                                 27735  27735  27735  27737  27737  27737  27802M 27811M 27811  27817M
                                                 27826M 27826  27832M 27833M 27835M 27836  27848M 27848  27849  27885M
                                                 27885  27910M 27910  28283M 28312M 28343M 28500  28514M 28528M 28590M
                                                 28640M 28641  28709M 28709  28835M 28835  28844M 28844  28884M 28910M
                                                 28911M 28912  28941M 28941  29055M 29055  29098M 29117M 29117  29178M
                                                 29208M 29208  29331M 29356M 29357M 29358  29382M 29382  29510M 29510
                                                 29519M 29519  29649M 29653M 29662M 29662  29669  29691M 29700M 29700
                                                 29707  29728M 29729M 29730  29773M 29791M 29855M 29881M 29882M 29883
                                                 29912M 29912  30027M 30027  30070M 30089M 30089  30150M 30180M 30180
                                                 30379M 30379  30490M 30540M 30565M 30685M 30696M 30746M 30747M 30748
                                                 30816M 30870M 30899M 30983M 30983  31144M 31144  31265M 31265  31370
                                                 31385  31407M 31416M 31416  31422M 31431M 31431  31437M 31438M 31440M
                                                 31441  31453M 31453  31454  31501M 31530M 31641M 31663M 31681M 31708M
                                                 31708  31727M 31727  31983M 31983  32023M 32023  32166M 32166  32233M
                                                 32350M 32379M 32435M 32445U 32471M 32564M 32591M 32591  32978M 32978
                                                 33015M 33015  33069M 33069  33106M 33106  33164M 33164  33201M 33201
                                                 33395M 33395  34261M 34261  34313M 34349M 34398M 34417M 34417  34475M
                                                 34501M 34504M 34506  34534M 34553M 34553  34605M 34643M 34662M 34662
                                                 34708M 34717M 34717  34723M 34732M 34732  34738M 34739M 34741M 34742
                                                 34754M 34754  34755  34770M 34789M 34789  34835M 34844M 34844  34850M
                                                 34859M 34859  34865M 34866M 34868M 34869  34881M 34881  34882  34897M
                                                 34916M 34916  34970M 34989M 34989  35062M 35062  35110M 35129M 35129
                                                 35177M 35196M 35196  35269M 35269  35318M 35350M 35350  35364M 35383M
                                                 35383  35430M 35465M 35494M 35494  35508M 35527M 35527  35627M 35646M
                                                 35646  35750M 35769M 35769  35873M 35892M 35892  35941M 35960M 35960
                                                 36009M 36028M 36028  36085M 36104M 36104  36174M 36174  36222M 36241M
                                                 36241  36317M 36317  36387M 36387  36416M 36425M 36425  36431M 36440M
                                                 36440  36446M 36447M 36449M 36450  36462M 36462  36463  36472M 36491M
                                                 36491  36604M 36604  36649M 36668M 36668  36738M 36738  36804M 36804
                                                 36879M 36879  36956M 36956  37018M 37018  37123M 37123  37142M 37142
                                                 37307M 37307  37325  37357  37433M 37433  37450  37472  37482M 37491M
                                                 37491  37497M 37506M 37506  37512M 37513M 37515M 37516  37528M 37528
                                                 37529  37564  37608M 37608  37626  37658  37737M 37737  37754  37776
                                                 37786M 37795M 37795  37801M 37810M 37810  37816M 37817M 37819M 37820
                                                 37832M 37832  37833  37868  37912M 37912  37930  37962  38075  38110M
                                                 38110  38215M 38234M 38234  38280M 38289M 38289  38295M 38304M 38304
                                                 38310M 38311M 38313M 38314  38326M 38326  38327  38332M 38351M 38351
                                                 38396M 38415M 38415  38457M 38476M 38476  38596M 38596  38696M 38696
                                                 38721M 38721  38811M 38830M 38830  38876M 38885M 38885  38891M 38900M
                                                 38900  38906M 38907M 38909M 38910  38922M 38922  38923  38928M 38947M
                                                 38947  39080M 39080  39111M 39111  39224M 39224  39287M 39287  39403M
                                                 39403  39420  39429M 39429  39446  39452M 39478M 39478  39583M 39602M
                                                 39602  39648M 39657M 39657  39663M 39672M 39672  39678M 39679M 39681M
                                                 39682  39694M 39694  39695  39700M 39719M 39719  39764M 39783M 39783
                                                 39828M 39847M 39847  40428M 40428  40533M 40533  40610M 40610  41059M
                                                 41059  41308M 41309M 41310  41384M 41384  41389M 41412M 41412  41704M
                                                 41704  41945M 41945  42186M 42186  42401M 42401  42462M 42462  42665M
                                                 42702M 42888M 42888  43392M 43392  43637M 43637  43794M 43794  43967M
                                                 43996M 44139M 44168M 44309M 44309  44373M 44374  44423M 44424M 44425
                                                 44530M 44531M 44532  44558M 44570M 44571  44579M 44727M 44799M 44799
                                                 45003M 45003  45075M 45075  45188  45254M 45254  45382M 45392U 45417M
                                                 45418M 45419  45578M 45579M 45580  45594M 45595M 45612M 45629M 45630
                                                 45643  45663M 45673U 45716M 45716  45935M 45935  46061M 46061  46144M
                                                 46144  46370M 46370  46436M 46436  46502M 46502  46724M 46728M 46737M
1LINE     (LINE2193) (12:47) (15MAR04) Ordinary Symbol and Literal Cross Reference                                          Page  236
                                                 46737  46744  46768M 46772M 46781M 46781  46788  46849M 46852M 46854
                                                 46897M 46898M 46975M 46976M 46986  47001M 47010M 47010  47017  47044M
                                                 47047M 47052M 47054M 47055M 47080M 47109M 47127M 47138M 47139  47276M
                                                 47302M 47348M 47349M 47366M 47388M 47388  47401M 47401  47411M 47411
                                                 47416M 47417  47442M 47442  47659M 47659  47736M 47795M 47796  47797
                                                 47850M 47888M 47959  48005M 48005  48200M 48223M 48223  48242M 48242
                                                 48309M 48309  48375M 48375  48442M 48442  48509M 48509  48575M 48575
                                                 48640M 48652  48671M 48686  48696M 48765  48799M 48817M 48834M 48834
                                                 48875M 48936M 48937M 48938  48962M 48962  49200M 49200  49238M 49238
                                                 49276M 49276  49347M 49378M 49383M 49414M 49526M 49526  49794M 49794
                                                 49861M 49861  49937M 49956M 49956  50056M 50075M 50075  50130M 50159M
                                                 50189M 50189  50404M 50457M 50457  50484  50491M 50508M 50537M 50537
                                                 50625M 50652M 50666M 50666  50724M 50724  50735M 50735  50754M 50777
                                                 50786M 50786  50805  50811M 50830  50854M 50855M 50856  50868M 50887
                                                 50913M 50914M 50915  50927M 50946  50965M 51001M 51001  51211M 51230M
                                                 51230  51272M 51291M 51291  51333M 51352M 51352  51394M 51413M 51413
                                                 51455M 51474M 51474
 R2            2 00000002 FFFFFFFF A   #     725  6931M  6933M  6945   8410   8978M  8980   9007   9016M  9037   9057M
                                                  9058   9131   9140M  9158   9193   9202M  9220   9277M  9278M  9282M
                                                  9284   9305M  9307M  9316   9346M  9350M  9359M  9359   9366   9441M
                                                  9450U  9511M  9512M  9513   9515M  9516   9562M  9563M  9565M  9579
                                                  9600M  9732M  9740M  9786M  9788  10149M 10149  10151  10153  10263M
                                                 10464M 10464  10466  10468  10494M 10570M 11286M 11298  11306M 11314M
                                                 11322M 11324  11346M 11347  11348  11349M 11352M 11354  11442M 11453
                                                 11681M 11683M 11695  11832M 11833M 11834M 11835M 11840  11923M 11943
                                                 11944  11961  11973M 12036M 12036  12149M 12356  12694M 13326M 13326
                                                 13401  13437  13473  13509  13545  13581  13617  13653  13689  13725
                                                 13761  13797  13833  13869  13906  13942  13978  14016  14030  14360
                                                 14431M 14469M 14592  14618M 14649  14822M 14823M 14825  15243M 15274
                                                 15411M 15659M 15697M 16012  16124M 16135  16142  16143M 16143  16280M
                                                 16312  16417M 16418M 16422M 16424  16497M 16499M 16508  16538M 16539M
                                                 16540  16541M 16551  16558M 16565M 16574M 16574  16581  16601M 16609M
                                                 16617M 16619  16703M 16735  16918M 16919M 16920  16980M 17492M 17493M
                                                 17494  17553  17700M 17710M 17719  17747  17754M 17821M 17830M 17831
                                                 17832M 17833  17834M 17835  17881M 17882  17950M 17982  18142M 18152M
                                                 18161  18189  18196M 18263M 18272M 18273  18274M 18275  18276M 18277
                                                 18323M 18324  18392M 18457  18573M 18583M 18592  18620  18627M 18693M
                                                 18695M 18696M 18708  18739M 18740  18741M 18742  18746M 18747  18759
                                                 18766  18768M 18768  18796M 18797M 18798  18804M 18805M 18805  18845M
                                                 18846M 18847  18917M 18949  19049M 19050M 19054M 19056  19150M 19167M
                                                 19174M 19183M 19183  19190  19210M 19218M 19227M 19229  19276M 19495M
                                                 19496M 19497  19750M 19767M 19820M 21477M 21502M 21502  21843M 21844
                                                 21861  21926  22456M 24790M 24791  25720M 25727M 25737  25738  25955M
                                                 25962M 25968  25973  25974  26488M 26490  26524  26574M 26678M 26683
                                                 28396M 28889M 28890  29293M 29331  29336  29860M 29861  31592M 31651
                                                 31903M 31904  32427M 32508M 32510  38526M 38535M 38535  38544M 38556
                                                 39956M 39975  40025  40058  40114  40204  40236M 40238  40240M 40242
                                                 40250M 40251  40283M 40304  40316M 40350M 40367M 40368M 40371M 40373
                                                 40675M 40678M 40735M 40738M 40816M 40817  40844M 40845  40848M 40849
                                                 40850  40851  40887M 40888M 40891M 40907M 40912  40929M 40930M 40932M
                                                 40933  40952M 40953M 40954  40970M 40971M 40989M 40990M 40995  41006M
                                                 41008M 41010M 41011M 41023  41029M 41030M 41031  41215M 41217M 41258
                                                 41773M 41777M 41786M 41786  41805M 41807  41824  41841M 41842  41881M
                                                 41884M 41886  41903  42014M 42018M 42027M 42027  42046M 42048  42065
                                                 42082M 42083  42122M 42125M 42127  42144  42255M 42259M 42268M 42268
                                                 42291M 42293  42310M 42311  42346M 42349M 42351  42590M 42593M 42597M
                                                 42725M 42816M 42825M 42825  42832M 42840M 42849M 42849  42859M 42859
                                                 42864  42974M 42975M 42989  43002  43019  43057  43069M 43069  43184M
                                                 43185M 43187M 43188  43200  43206  43222M 43223  43232M 43242M 43242
1LINE     (LINE2193) (12:47) (15MAR04) Ordinary Symbol and Literal Cross Reference                                          Page  237
                                                 43250M 43252  43274M 43285M 43285  43293M 43295  43318M 43319M 43320M
                                                 43332M 43332  43340M 43342  43364M 43365M 43366M 43367  43491M 43492M
                                                 43502M 43502  43510M 43512  43527  43539M 43549M 43549  43557M 43559
                                                 43574  43584M 43594  43725M 43726M 43727  43728  43730M 43740M 43740
                                                 43748M 43750  43765  43875M 43876M 43877  43878  43880M 43890M 43890
                                                 43898M 43900  43915  44048M 44049M 44050  44051  44053M 44063M 44063
                                                 44071M 44073  44088  44227M 44228  44230M 44237M 44238M 44239  44240
                                                 44243M 44255M 44255  44263M 44265  44280  44726M 44727  45188M 45227M
                                                 45227  46811M 46811  46848M 46876  46974M 46976  46997M 46997  48639M
                                                 48687M 48688M 48688  48703M 48727M 48727  48838M 48847M 48847  48854
                                                 48874M 48879M 48888M 48888  48895  49345M 49349  49385  49905M 50024M
                                                 50135
 R3            3 00000003 FFFFFFFF A   #     738  8933M  8943U  8979M  8980M  8980   9007   9037   9131   9158   9193
                                                  9220   9261M  9271   9278   9279M  9279   9299M  9304M  9306   9316M
                                                  9325M  9327   9395M  9395   9402   9434M  9435M  9435   9490M  9516M
                                                  9629M  9630M 10145M 10150  10262M 10460M 10465  10493M 11286M 11344
                                                 11442M 11919  11920  11920  11920  11924M 11938M 12204  12204  12204
                                                 13327M 14430M 14468M 14591  14781M 15461M 15475  15524M 15525M 15526
                                                 15527M 15528M 15529  15538M 15539M 15539  15567  15591  15626  15650
                                                 16401M 16411  16418  16419M 16419  16439M 16445M 16457  16463M 16471
                                                 16491M 16498  16508M 16517M 16519  16648M 16648  16655  16896M 16906U
                                                 17075M 17088  17094M 17095  17263M 17276  17282M 17283  17315M 17488M
                                                 17489  17491M 17494M 17495  17719M 17885M 18161M 18327M 18592M 18748M
                                                 18749M 18759  18765  18766M 18767  18771M 18773  18803M 18805  18806M
                                                 18816M 18816  18824M 18826  18852M 19033M 19043  19050  19051M 19051
                                                 19075M 19087  19093M 19101  19121M 19137  19144  22346M 22358  22387
                                                 22429  22438M 22438  22447M 22497  22816  23305M 23307  23307M 23413M
                                                 23415  23415M 25049M 25050M 25050  25063M 25085M 25095  25723  25724
                                                 25724  25724  25728M 25735M 25958  25959  25959  25959  25963M 25971M
                                                 27735  27735  27735  28157M 28161M 28170M 28170  28177  28500M 28528
                                                 30504M 30516M 30516  30739  30920M 31385M 31459M 31464  31557  31597
                                                 35579M 35583M 35592M 35592  35599  35699M 35703M 35712M 35712  35719
                                                 35822M 35826M 35835M 35835  35842  36393  36394  36646M 36648  36648M
                                                 37373M 37373  37387  37401  37677  37691  37705  37981  37995  38009
                                                 38031M 38031  38041M 38041  38046  38048M 38049  38393M 38395  38395M
                                                 39086  39266M 39268  39268M 39453  39761M 39763  39763M 39825M 39827
                                                 39827M 39957M 39958M 39960M 39975  40010M 40025  40043  40058  40091M
                                                 40099M 40100  40101  40104M 40114  40177  40180M 40204  40224M 40232M
                                                 40233  40237M 40238M 40239  40241M 40242M 40245M 40246  40249M 40251M
                                                 40254M 40266  40284M 40304  40372M 40373M 40375M 40392M 40394M 40396M
                                                 40676M 40680M 40689M 40689  40697M 40699  40736M 40740M 40749M 40749
                                                 40757M 40759  40776  41007M 41008  41218M 41230  41774M 41776M 41777
                                                 42015M 42017M 42018  42256M 42258M 42259  42591M 42601M 42601  42729M
                                                 42729  43233M 43275M 43276M 43321M 43322M 43323M 43493M 43527M 43527
                                                 43528  43540M 43574M 43574  43575  43731M 43765M 43765  43766  43881M
                                                 43915M 43915  43916  44054M 44088M 44088  44089  44225M 44226M 44228M
                                                 44244M 44245M 44246  44280M 44280  44281  44372M 44432M 46765M 46766M
                                                 46768  46822M 46822  46849  46870M 46878  46954M 46955M 46955  46968M
                                                 46986  48767M 48768M 48780  48832
 R4            4 00000004 FFFFFFFF A   #     751  8948M  8949M  9271   9277   9299   9307   9308M  9308   9385M  9385
                                                  9452M  9461U  9489M  9631M  9942M  9943M  9944M  9944   9954U 10124M
                                                 10140U 10264M 10445M 10455U 10495M 11304M 11305M 11339M 11339  13322M
                                                 13363M 13364  14745M 15058  15072M 15073  15460M 15460  15499M 15509M
                                                 15518M 15518  15525  15528  16122M 16123M 16135  16141  16142M 16146M
                                                 16148  16399M 16400M 16411  16417  16439  16499  16500M 16500  16600M
                                                 16600  16634M 16634  16853M 16865  16896  16943M 16943  16944  17073M
                                                 17074M 17075  17126M 17126  17261M 17262M 17263  17314M 17314  17487M
                                                 17489M 17490  17701M 17702M 17710  17720M 17820M 17829M 17831M 17844
                                                 17884M 17884  17885  18143M 18144M 18152  18162M 18262M 18271M 18273M
1LINE     (LINE2193) (12:47) (15MAR04) Ordinary Symbol and Literal Cross Reference                                          Page  238
                                                 18286  18326M 18326  18327  18574M 18575M 18583  18593M 18692M 18738M
                                                 18740M 18748  18792  18802M 18802  18852  19031M 19032M 19043  19049
                                                 19149M 19149  19209M 19209  19457M 19458M 19459M 19459  19469U 30414M
                                                 30427  30465  30953M 31192M 31195M 31196  31208  31226M 31227M 31228M
                                                 31228  32316M 32422  40288M 40288  40310M 40313M 40339M 40339  40344M
                                                 40345  40678M 40738M 40774M 41236M 41252M 41252  41822M 41901M 42063M
                                                 42142M 42593M 43929M 43945  44103M 44120  44219  44230M 45303M 45451
                                                 45452  45481  45488  45512  45513  46568M 46587  46604  46630M 46639M
                                                 46640  46654M 46654  46682M 46688M 46705  46712M 46713M 46719  46723M
                                                 46724  46766  46767  47942M 47944M 47975M
 R5            5 00000005 FFFFFFFF A   #     764  8898M  8898   8914   8933   9054   9056M  9068M  9068   9076M  9078
                                                  9099M  9441   9510M  9510   9628M  9631   9659   9687   9727   9740
                                                  9746   9783M  9813M  9823U  9846M  9904M 10122M 10262  10493  11344M
                                                 11345M 12668M 12669M 12670  15412M 15413M 15417M 15417  15475  15496M
                                                 15507M 15537  15663  16120M 16121M 16122  16170M 16170  16245M 17835M
                                                 17844M 17869  17876  17883M 17895M 17895  17903M 17905  18277M 18286M
                                                 18311  18318  18325M 18337M 18337  18345M 18347  18747M 18767M 18792M
                                                 18851M 18862M 18862  18870M 18872  30385M 30394M 30394  30412M 30413M
                                                 30413  30427  32315M 32421  40292M 40292  40311M 40312M 40313  40677M
                                                 40737M 42592M 44229M 46587M 46589M 46629M 46640M 46642M 46680M 47941M
                                                 47974M 48765M 48767  48875  48937  50603M 50644
 R6            6 00000006 FFFFFFFF A   #     777  6811M  6821U  6832   7618U  7730U  7842U  7956M  7966U  8446M  8456U
                                                 12266U 12391U 12813U 13283U 14395U 14684U 15309U 15764U 15907U 16047U
                                                 16347U 16770U 17047U 17235U 17441U 17588U 18017U 18492U 18984U 19343U
                                                 19581U 19915U 20032U 20178U 20368U 20821U 20912U 20997U 21095U 21196U
                                                 21406U 21598U 21718U 21812U 22237U 22704U 23378U 23677U 23778U 24229M
                                                 24237U 28792M 28800U 29467M 29475U 30288M 30296U 32232M 32233  32913M
                                                 32921U 32938  40509M 45859M 45870U 45882  46557M 46565U 47552M 47560U
                                                 47562  48629M 48637U 49103M 49111U 50602M 50639
 R7            7 00000007 FFFFFFFF A   #     790  2121M  2121   2122B  2134B
 R8            8 00000008 FFFFFFFF A   #     803  6807U  8442U 12800U 24225U 28032U 28788U 29463U 30284U 31892U 32883U
                                                 39933U 42965U 45855U 47548U 49099U
 S             2 00002568 00000001     H   19299 14183
 SAMEREP       4 0000655E 00000001     I   32531 32320B
 SCANCHK       1 00000000 0000000D     T    8171  8171  27694  31753  32610  33410  37168  39300  40440  45729  48982
                                                 50212
 SCDQUOTE      1 00000000 00000044     T   37163 37163  49009
 SCHALL        2 000073A6 00000001     H   34923 33521
 SCHCOLS       2 00007A72 00000001     H   36963 33997  34012
 SCHCSTR       2 000071FE 00000001     H   34424 33476
 SCHEDIT       2 00007A3E 00000001     H   36886 33860  33875  34057  34072
 SCHHEX        2 00007184 00000001     H   34268 33461
 SCHIN         2 00007AA2 00000001     H   37026 33597  33920  34117
 SCHINCR       2 00008550 00000001     H   39337 37164
 SCHLINE       2 000079B6 00000001     H   36679 33890  34087
 SCHMISS       2 0000746E 00000001     H   35209 33631  33768
 SCHMOD        2 00007A0E 00000001     H   36811 33830  33845  34027  34042
 SCHNULL       2 00007150 00000001     H   34201 33446
 SCHNUM        2 000072CE 00000001     H   34669 33491
 SCHOCCUR      2 000081A6 00000001     H   38617 37160
 SCHPRT1       4 000069A4 00000001     F   33434 33408
 SCHREP        2 000079E2 00000001     H   36745 33905  34102
 SCHSCOLS      2 00007C68 00000001     H   37214 37158
 SCHSLASH      2 0000733A 00000001     H   34796 33506
 SCHSTR        2 0000726E 00000001     H   34560 33536
 SCHTHEX       2 000074FC 00000001     H   35391 33736
 SCHTLOW       2 000076B4 00000001     H   35968 33706
 SCHTMNUM      2 00007622 00000001     H   35777 33661
 SCHTNUM       2 00007568 00000001     H   35535 33676
1LINE     (LINE2193) (12:47) (15MAR04) Ordinary Symbol and Literal Cross Reference                                          Page  239
 SCHTO         2 0000740E 00000001     H   35069 33567
 SCHTOOPT      4 00006D8C 00000001     F   33818 33415
 SCHTOPRT      4 00006B84 00000001     F   33619 33414
 SCHTPNUM      2 000075C0 00000001     H   35654 33646
 SCHTSTR       2 000074A2 00000001     H   35277 33751
 SCHTUPLO      2 000076E4 00000001     H   36036 33721
 SCHTUPP       2 00007684 00000001     H   35900 33691
 SCHUSING      2 0000743E 00000001     H   35136 33582
 SCHUSOPT      4 00006F44 00000001     F   33985 33413
 SCHUSPRT      4 00006CEC 00000001     F   33756 33412
 SCNNOOP       1 00000000 00000025     T   26881 26881
 SCOL          2 00009E14 00000001     H   46257 46161
 SDSNQSZ       1 0000002C FFFFFFEC A   U    6109  6110   6111
 SEG           1 00000000 0000000E     T    8172  8172  12169  12711  14160  20285  22548  23866  27724  31758  32619
                                                 37156  43423  44815  48991  50223  51485
 SEGB          1 00000000 00000023     T   23868 23868  27729  31788  49011
 SEGCLR        1 00000000 0000004C     T   49003 49003
 SEGCR         1 00000000 00000013     T   12171 12171  14161  18409  20280  22550  23869  27719  31783  43421  48994
                                                 51492
 SEGDC         1 00000000 00000010     T    8176  8176  12181  22554  31793
 SEGWR         1 00000000 00000011     T    8177  8177  12167  20286  27730  31778  32625  44817  49004  50218  51488
 SELDELTA      1 00000000 00000015     T   12173 12173  22552  27709  31794  48995
 SETIEND       4 0000000C FFFFFFDC     F   39876 40043M 40241  40249  40284  40367
 SETIEXIT      2 00008912 00000001     H   40404 40038B
 SETIFLD       4 00000000 FFFFFFDC     F   39873 40233M 40237  40240
 SETINCR       2 00008782 00000001     H   39891 37165
 SETINUM       4 00000008 FFFFFFDC     F   39875 40100M 40250  40283  40350  40368
 SETISIGN      4 00000004 FFFFFFDC     F   39874 40101M 40177M
 SETIWA       16 00000000 FFFFFFDC     J   39883 39904  39933U 40424  40426  40427
 SEXIT         2 00002604 00000001     H   19506 19368B 19408B 19452B
 SIZEBAD       2 000004F4 00000001     H    8127  8105B
 SJOIN         2 00009E5C 00000001     H   46377 46176
 SKIPPUT       2 00009740 00000001     H   44589 44427B 44526B
 SPLBLCNT      2 00000006 FFFFFFDA     H   45777 46876M 47366
 SPLCOL        2 00000002 FFFFFFDA     H   45775 46351M 46568  46639
 SPLCOM        2 00009F22 00000001     H   46697 46623B 46673B
 SPLEXIT       2 0000A14C 00000001     H   47426 47132B 47267B
 SPLFJOIN    128 00000000 FFFFFFDA        45762 46417M 46891
 SPLFLAG       1 00000000 FFFFFFDA     R   45758 45762  45767
 SPLFWORD     64 00000000 FFFFFFDA        45767 46483M 46581
 SPLIT         2 00009B88 00000001     H   45813 45809
 SPLITFIX      2 00000808 00000001     H    9465  9490B
 SPLITPRT      4 00009CFC 00000001     F   46149 48984
 SPLITRTN      2 00009EB4 00000001     H   46522 48986
 SPLITWA     788 00000000 FFFFFFDA     J   45797 45826  45855U 45859  45870U 45878M 45878  45879M 45879  45880M 45880
                                                 45881M 45881  46140  46142  46143  46565U
 SPLLEN2       2 00000008 FFFFFFDA     H   45778 46878M 46974
 SPLLINE1    235 00000014 FFFFFFDA     C   45783 46721M 46751M 47159  47164  47311  47316
 SPLLINE2    235 00000114 FFFFFFDA     C   45786 46764M 46795M 46839  46861M 46861  46997  47205  47210  47285  47290
                                                 47378
 SPLLINE3    235 00000214 FFFFFFDA     C   45789 46899
 SPLLIST       6 0000A064 00000001     I   47149 47036B
 SPLLNO1       4 0000000C FFFFFFDA     F   45780 46720M 46898  47044  47055  47085  47144  47149  47150  47302  47342
 SPLLNO2       4 00000010 FFFFFFDA     F   45781 46996M 47145M 47195  47196  47276  47365
 SPLWCOL       2 00000004 FFFFFFDA     H   45776 46719M 47349
 SPR          13 0000000D 00000001 A   #    1113  6698   6701   6702   6703M  6703   6747M  6751   6753   6772   6775
                                                  6777   6778M  6778   7339M  7343   7345   7513   7516   7517   7518M
                                                  7518   7559M  7563   7565   7580   7583   7584   7585M  7585   7671M
                                                  7675   7677   7692   7695   7696   7697M  7697   7783M  7787   7789
1LINE     (LINE2193) (12:47) (15MAR04) Ordinary Symbol and Literal Cross Reference                                          Page  240
                                                  7804   7807   7808   7809M  7809   7899M  7903   7905   7927   7930
                                                  7931   7932M  7932   8148M  8152   8154   8407   8410   8412   8413M
                                                  8413  12145M 12149  12151  12228  12231  12232  12233M 12233  12322M
                                                 12326  12328  12353  12356  12357  12358M 12358  12690M 12694  12696
                                                 12765  12768  12770  12771M 12771  13213M 13217  13219  13245  13248
                                                 13249  13250M 13250  14137M 14141  14143  14357  14360  14361  14362M
                                                 14362  14614M 14618  14620  14646  14649  14650  14651M 14651  15239M
                                                 15243  15245  15271  15274  15275  15276M 15276  15693M 15697  15699
                                                 15726  15729  15730  15731M 15731  15837M 15841  15843  15869  15872
                                                 15873  15874M 15874  15976M 15980  15982  16009  16012  16013  16014M
                                                 16014  16276M 16280  16282  16309  16312  16313  16314M 16314  16699M
                                                 16703  16705  16732  16735  16736  16737M 16737  16976M 16980  16982
                                                 17009  17012  17013  17014M 17014  17164M 17168  17170  17197  17200
                                                 17201  17202M 17202  17353M 17357  17359  17403  17406  17407  17408M
                                                 17408  17517M 17521  17523  17550  17553  17554  17555M 17555  17946M
                                                 17950  17952  17979  17982  17983  17984M 17984  18388M 18392  18394
                                                 18454  18457  18458  18459M 18459  18913M 18917  18919  18946  18949
                                                 18950  18951M 18951  19272M 19276  19278  19305  19308  19309  19310M
                                                 19310  19519M 19523  19525  19543  19546  19547  19548M 19548  19852M
                                                 19856  19858  19877  19880  19881  19882M 19882  19969M 19973  19975
                                                 19994  19997  19998  19999M 19999  20115M 20119  20121  20140  20143
                                                 20144  20145M 20145  20261M 20265  20267  20330  20333  20334  20335M
                                                 20335  20513M 20517  20519  20783  20786  20787  20788M 20788  20848M
                                                 20852  20854  20874  20877  20878  20879M 20879  20933M 20937  20939
                                                 20959  20962  20963  20964M 20964  21031M 21035  21037  21057  21060
                                                 21061  21062M 21062  21131M 21135  21137  21158  21161  21162  21163M
                                                 21163  21341M 21345  21347  21368  21371  21372  21373M 21373  21533M
                                                 21537  21539  21560  21563  21564  21565M 21565  21653M 21657  21659
                                                 21680  21683  21684  21685M 21685  21748M 21752  21754  21774  21777
                                                 21778  21779M 21779  22172M 22176  22178  22199  22202  22203  22204M
                                                 22204  22517M 22521  22523  22582  22585  22586  22587M 22587  22645M
                                                 22649  22651  22666  22669  22670  22671M 22671  23194M 23198  23200
                                                 23276  23279  23280  23281M 23281  23319M 23323  23325  23340  23343
                                                 23344  23345M 23345  23432M 23436  23438  23453  23456  23457  23458M
                                                 23458  23511M 23515  23517  23532  23535  23536  23537M 23537  23614M
                                                 23618  23620  23639  23642  23643  23644M 23644  23716M 23720  23722
                                                 23740  23743  23744  23745M 23745  23841M 23845  23847  23992  23995
                                                 23996  23997M 23997  24060M 24064  24066  24190  24193  24195  24196M
                                                 24196  26805M 26809  26811  27044  27047  27048  27049M 27049  27161M
                                                 27165  27167  27182  27185  27186  27187M 27187  27222M 27226  27228
                                                 27243  27246  27247  27248M 27248  27306M 27310  27312  27327  27330
                                                 27331  27332M 27332  27372M 27376  27378  27393  27396  27397  27398M
                                                 27398  27439M 27443  27445  27460  27463  27464  27465M 27465  27505M
                                                 27509  27511  27527  27530  27531  27532M 27532  27656M 27660  27662
                                                 27768  27771  27772  27773M 27773  27902M 27906  27908  27997  28000
                                                 28002  28003M 28003  28701M 28705  28707  28753  28756  28758  28759M
                                                 28759  28933M 28937  28939  29001  29004  29005  29006M 29006  29047M
                                                 29051  29053  29068  29071  29072  29073M 29073  29109M 29113  29115
                                                 29130  29133  29134  29135M 29135  29200M 29204  29206  29234  29237
                                                 29238  29239M 29239  29374M 29378  29380  29428  29431  29433  29434M
                                                 29434  29904M 29908  29910  29973  29976  29977  29978M 29978  30019M
                                                 30023  30025  30040  30043  30044  30045M 30045  30081M 30085  30087
                                                 30102  30105  30106  30107M 30107  30172M 30176  30178  30249  30252
                                                 30254  30255M 30255  30975M 30979  30981  31091  31094  31095  31096M
                                                 31096  31136M 31140  31142  31161  31164  31165  31166M 31166  31719M
                                                 31723  31725  31857  31860  31862  31863M 31863  32015M 32019  32021
                                                 32112  32115  32116  32117M 32117  32158M 32162  32164  32185  32188
                                                 32189  32190M 32190  32583M 32587  32589  32848  32851  32853  32854M
                                                 32854  33387M 33391  33393  34207  34210  34211  34212M 34212  34253M
1LINE     (LINE2193) (12:47) (15MAR04) Ordinary Symbol and Literal Cross Reference                                          Page  241
                                                 34257  34259  34274  34277  34278  34279M 34279  34409M 34413  34415
                                                 34430  34433  34434  34435M 34435  34545M 34549  34551  34566  34569
                                                 34570  34571M 34571  34654M 34658  34660  34675  34678  34679  34680M
                                                 34680  34781M 34785  34787  34802  34805  34806  34807M 34807  34908M
                                                 34912  34914  34929  34932  34933  34934M 34934  34981M 34985  34987
                                                 35008  35011  35012  35013M 35013  35054M 35058  35060  35075  35078
                                                 35079  35080M 35080  35121M 35125  35127  35142  35145  35146  35147M
                                                 35147  35188M 35192  35194  35215  35218  35219  35220M 35220  35261M
                                                 35265  35267  35283  35286  35287  35288M 35288  35375M 35379  35381
                                                 35397  35400  35401  35402M 35402  35519M 35523  35525  35541  35544
                                                 35545  35546M 35546  35638M 35642  35644  35660  35663  35664  35665M
                                                 35665  35761M 35765  35767  35783  35786  35787  35788M 35788  35884M
                                                 35888  35890  35906  35909  35910  35911M 35911  35952M 35956  35958
                                                 35974  35977  35978  35979M 35979  36020M 36024  36026  36042  36045
                                                 36046  36047M 36047  36096M 36100  36102  36120  36123  36124  36125M
                                                 36125  36166M 36170  36172  36187  36190  36191  36192M 36192  36233M
                                                 36237  36239  36254  36257  36258  36259M 36259  36483M 36487  36489
                                                 36550  36553  36554  36555M 36555  36596M 36600  36602  36617  36620
                                                 36621  36622M 36622  36660M 36664  36666  36685  36688  36689  36690M
                                                 36690  36730M 36734  36736  36751  36754  36755  36756M 36756  36796M
                                                 36800  36802  36817  36820  36821  36822M 36822  36871M 36875  36877
                                                 36892  36895  36896  36897M 36897  36948M 36952  36954  36969  36972
                                                 36973  36974M 36974  37010M 37014  37016  37032  37035  37036  37037M
                                                 37037  37134M 37138  37140  37220  37223  37224  37225M 37225  38102M
                                                 38106  38108  38186  38189  38190  38191M 38191  38226M 38230  38232
                                                 38247  38250  38251  38252M 38252  38343M 38347  38349  38364  38367
                                                 38368  38369M 38369  38407M 38411  38413  38428  38431  38432  38433M
                                                 38433  38468M 38472  38474  38495  38498  38499  38500M 38500  38588M
                                                 38592  38594  38623  38626  38627  38628M 38628  38713M 38717  38719
                                                 38782  38785  38786  38787M 38787  38822M 38826  38828  38843  38846
                                                 38847  38848M 38848  38939M 38943  38945  38962  38965  38966  38967M
                                                 38967  39103M 39107  39109  39170  39173  39174  39175M 39175  39216M
                                                 39220  39222  39237  39240  39241  39242M 39242  39279M 39283  39285
                                                 39343  39346  39347  39348M 39348  39470M 39474  39476  39554  39557
                                                 39558  39559M 39559  39594M 39598  39600  39615  39618  39619  39620M
                                                 39620  39711M 39715  39717  39732  39735  39736  39737M 39737  39775M
                                                 39779  39781  39796  39799  39800  39801M 39801  39839M 39843  39845
                                                 39898  39901  39903  39904M 39904  40420M 40424  40426  40476  40479
                                                 40480  40481M 40481  40602M 40606  40608  40628  40631  40632  40633M
                                                 40633  41051M 41055  41057  41086  41089  41090  41091M 41091  41404M
                                                 41408  41410  41431  41434  41435  41436M 41436  41696M 41700  41702
                                                 41721  41724  41725  41726M 41726  41937M 41941  41943  41962  41965
                                                 41966  41967M 41967  42178M 42182  42184  42203  42206  42207  42208M
                                                 42208  42393M 42397  42399  42415  42418  42419  42420M 42420  42454M
                                                 42458  42460  42479  42482  42483  42484M 42484  42880M 42884  42886
                                                 42930  42933  42935  42936M 42936  43384M 43388  43390  43457  43460
                                                 43461  43462M 43462  43629M 43633  43635  43655  43658  43659  43660M
                                                 43660  43786M 43790  43792  43821  43824  43825  43826M 43826  44301M
                                                 44305  44307  44339  44342  44343  44344M 44344  44791M 44795  44797
                                                 44854  44857  44858  44859M 44859  45067M 45071  45073  45144  45147
                                                 45148  45149M 45149  45246M 45250  45252  45274  45277  45278  45279M
                                                 45279  45708M 45712  45714  45820  45823  45825  45826M 45826  46136M
                                                 46140  46142  46263  46266  46267  46268M 46268  46362M 46366  46368
                                                 46383  46386  46387  46388M 46388  46428M 46432  46434  46449  46452
                                                 46453  46454M 46454  46494M 46498  46500  46528  46531  46532  46533M
                                                 46533  47434M 47438  47440  47513  47516  47518  47519M 47519  47997M
                                                 48001  48003  48169  48172  48173  48174M 48174  48234M 48238  48240
                                                 48255  48258  48259  48260M 48260  48301M 48305  48307  48322  48325
                                                 48326  48327M 48327  48367M 48371  48373  48388  48391  48392  48393M
1LINE     (LINE2193) (12:47) (15MAR04) Ordinary Symbol and Literal Cross Reference                                          Page  242
                                                 48393  48434M 48438  48440  48455  48458  48459  48460M 48460  48501M
                                                 48505  48507  48522  48525  48526  48527M 48527  48567M 48571  48573
                                                 48600  48603  48604  48605M 48605  48954M 48958  48960  49064  49067
                                                 49069  49070M 49070  49518M 49522  49524  49740  49743  49744  49745M
                                                 49745  49786M 49790  49792  49807  49810  49811  49812M 49812  49853M
                                                 49857  49859  49874  49877  49878  49879M 49879  49948M 49952  49954
                                                 49969  49972  49973  49974M 49974  50067M 50071  50073  50088  50091
                                                 50092  50093M 50093  50181M 50185  50187  50260  50263  50264  50265M
                                                 50265  50529M 50533  50535  50566  50569  50570  50571M 50571  50993M
                                                 50997  50999  51182  51185  51186  51187M 51187  51222M 51226  51228
                                                 51243  51246  51247  51248M 51248  51283M 51287  51289  51304  51307
                                                 51308  51309M 51309  51344M 51348  51350  51365  51368  51369  51370M
                                                 51370  51405M 51409  51411  51426  51429  51430  51431M 51431  51466M
                                                 51470  51472
 STOW          1 00000000 00000019     T   12180 12180  27723  31771  32624  49007  50220
 SWORD         2 00009E88 00000001     H   46443 46191
 T             2 00001FB0 00000001     H   17397 14185
 TABLERR       2 000059CC 00000001     H   30096 29961
 TABLLEN       4 00000004 FFFFFFE0     F   29403 29562M 29728  29730M 29853
 TABLLINE      2 0000599C 00000001     H   30034 29946
 TABLLNO       4 00000000 FFFFFFE0     F   29402 29855  29860  30069M
 TABLNULL      2 00005968 00000001     H   29967 29931
 TABLPRT       4 000058F0 00000001     F   29919 31775
 TABLSAVE    235 0000000C FFFFFFE0     X   29405 29676M 29714
 TABLWA      247 00000000 FFFFFFE0     J   29412 29434  29463U 29467  29475U 29908  29910  29911
 TEXIT         2 00002008 00000001     H   17504 17479B
 TOUSPRT       4 00006ABC 00000001     F   33540 33411
 TRC           1 00000000 00000000 A   T    2150  2150
 TREAD         1 00000000 0000001E     T   12712 12712  51486
 TREADQ        1 00000000 0000004E     T   51489 51489
 TTYFLAG       1 00000004 FFFFFFEA     R    6238  6242
 TTYMAX#       1 00000006 FFFFFFEA A   U    6294  6295
 TTYTFLAG      1 00000005 FFFFFFEA     R    6248  6252   6257   6262   6267   6272   6277   6282
 UNPRESS       1 00000000 0000001A     T   12190 12190  22541  31765  50216
 UNPRST        1 00000001 FFFFFFEC A   U    6198  8173  32611  33418  45732  48985  49001
 UPLOW         2 00008EDC 00000001     H   42409 43418
 UPLOWTBL      1 00001EB0 00000001     R   17366 17366  17367  17369  17371  17373  17375  17377  18416
 UPPTBL        1 00000000 00000000 A   T    2213  2213
 USALL         2 0000775A 00000001     H   36181 33783
 USLNO         2 0000779E 00000001     H   36248 33798
 VERPSH        1 00000000 0000003F     T   33935 33935  34132  45109  46236  48112  49591  49667  49713
 WAR           8 00000008 00000001 A   #    1036  6702M  6747   6777M  7339   7517M  7559   7584M  7671   7696M  7783
                                                  7808M  7899   7931M  8148   8412M 12145  12232M 12322  12357M 12690
                                                 12770M 13213  13249M 14137  14361M 14614  14650M 15239  15275M 15693
                                                 15730M 15837  15873M 15976  16013M 16276  16313M 16699  16736M 16976
                                                 17013M 17164  17201M 17353  17407M 17517  17554M 17946  17983M 18388
                                                 18458M 18913  18950M 19272  19309M 19519  19547M 19852  19881M 19969
                                                 19998M 20115  20144M 20261  20334M 20513  20787M 20848  20878M 20933
                                                 20963M 21031  21061M 21131  21162M 21341  21372M 21533  21564M 21653
                                                 21684M 21748  21778M 22172  22203M 22517  22586M 22645  22670M 23194
                                                 23280M 23307  23319  23344M 23415  23432  23457M 23511  23536M 23614
                                                 23643M 23716  23744M 23841  23996M 24060  24195M 26805  27048M 27161
                                                 27186M 27222  27247M 27306  27331M 27372  27397M 27439  27464M 27505
                                                 27531M 27656  27772M 27902  28002M 28701  28758M 28933  29005M 29047
                                                 29072M 29109  29134M 29200  29238M 29374  29433M 29904  29977M 30019
                                                 30044M 30081  30106M 30172  30254M 30975  31095M 31136  31165M 31719
                                                 31862M 32015  32116M 32158  32189M 32583  32853M 33387  34211M 34253
                                                 34278M 34409  34434M 34545  34570M 34654  34679M 34781  34806M 34908
                                                 34933M 34981  35012M 35054  35079M 35121  35146M 35188  35219M 35261
1LINE     (LINE2193) (12:47) (15MAR04) Ordinary Symbol and Literal Cross Reference                                          Page  243
                                                 35287M 35375  35401M 35519  35545M 35638  35664M 35761  35787M 35884
                                                 35910M 35952  35978M 36020  36046M 36096  36124M 36166  36191M 36233
                                                 36258M 36483  36554M 36596  36621M 36648  36660  36689M 36730  36755M
                                                 36796  36821M 36871  36896M 36948  36973M 37010  37036M 37134  37224M
                                                 38102  38190M 38226  38251M 38343  38368M 38395  38407  38432M 38468
                                                 38499M 38588  38627M 38713  38786M 38822  38847M 38939  38966M 39103
                                                 39174M 39216  39241M 39268  39279  39347M 39459  39470  39558M 39594
                                                 39619M 39711  39736M 39763  39775  39800M 39827  39839  39903M 40420
                                                 40480M 40602  40632M 41051  41090M 41404  41435M 41696  41725M 41937
                                                 41966M 42178  42207M 42393  42419M 42454  42483M 42880  42935M 43384
                                                 43461M 43629  43659M 43786  43825M 44301  44343M 44791  44858M 45067
                                                 45148M 45246  45278M 45708  45825M 46136  46267M 46362  46387M 46428
                                                 46453M 46494  46532M 47434  47518M 47997  48173M 48234  48259M 48301
                                                 48326M 48367  48392M 48434  48459M 48501  48526M 48567  48604M 48954
                                                 49069M 49518  49744M 49786  49811M 49853  49878M 49948  49973M 50067
                                                 50092M 50181  50264M 50518  50529  50570M 50993  51186M 51222  51247M
                                                 51283  51308M 51344  51369M 51405  51430M 51466
 WBREAK        2 00004338 00000001     H   23986 23982
 WORD          2 00001A20 00000001     H   15265 14193
 WORDERR       2 00001B32 00000001     H   15675 15452B
 WORDEXIT      2 00001B36 00000001     H   15680 15364B 15405B 15672B
 WORDLOOP      2 00001AE6 00000001     H   15543 15659B
 WORDSTOP      2 00001B22 00000001     I   15663 15594B 15653B
 WTOSG         1 00000000 00000000 A   T    2110  2110
 WYLLINE       1 00000000 00000001     J     990   992   1018   1031   1044   1056   1069   1082   1095   1108   1121
                                                  1134   2394   2478   6218   6330   6610   6615
 X             2 00002016 00000001     H   17544 14187
 XEXIT         2 00002102 00000001     H   17933 17815B 17855B
 XLP           2 00002088 00000001     H   17762 17821B
 YESMEXIT      4 0000B112 00000001     I   50979 50787B 50812B 50869B 50928B
 YESMLOOP      2 0000AFC4 00000001     I   50639 50759B 50970B
 YESMOD        2 0000AF8C 00000001     H   50560 44823  48998
 YESMPRT       4 0000B130 00000001     F   51008 51490
 YESREQ        1 00000000 00000036     T   31761 31761
 YESRTN        1 00000000 00000048     T   43422 43422  45738  50219
 YSMEDIT       2 0000B36C 00000001     H   51359 51140  51155
 YSMERR        2 0000B398 00000001     H   51420 51020  51170
 YSMMOD        2 0000B340 00000001     H   51298 51110  51125
 YSMNO         2 0000B314 00000001     H   51237 51080  51095
 YSMYES        2 0000B2E8 00000001     H   51176 51035  51050  51065
 =A((DESNRTN+LOCATRTN+UNPRST+DESABORT))
               4 000065E0 00000001     A   32611 31991
 =A((DESNRTN+LOCATRTN+UNPRST+DESABORT))
               4 0000A748 00000001     A   48985 46112
 =A((DESRTRN+LOCATRTN+UNPRST+DESABORT))
               4 00000524 00000001     A    8173  6982
 =A((DESRTRN+LOCATRTN+UNPRST+DESABORT))
               4 00006994 00000001     A   33418 33299
 =A((DESRTRN+LOCATRTN+UNPRST+DESABORT))
               4 00009B60 00000001     A   45732 45182
 =A((DESRTRN+LOCATRTN+UNPRST+DESABORT))
               4 0000A7A0 00000001     A   49001 47709
 =A(-999999999)
               4 00009238 00000001     A   43426 43002
 =A(B)         4 00001620 00000001     A   14164 13410
 =A(BADCHAR)
               4 000016A4 00000001     A   14197 14062
 =A(BADFUNC)
               4 00003130 00000001     A   22545 21621  21835  22260
1LINE     (LINE2193) (12:47) (15MAR04) Ordinary Symbol and Literal Cross Reference                                          Page  244
 =A(BADFUNC)
               4 0000360C 00000001     A   23862 22727
 =A(BADNUM)
               4 00002240 00000001     A   18411 14706  15786  15929
 =A(BADNUM)
               4 00002804 00000001     A   20283 19366  19604
 =A(C)         4 00001628 00000001     A   14166 13446
 =A(C'*')      4 00001688 00000001     A   14190 13942
 =A(C'?')      4 00001680 00000001     A   14188 13869
 =A(C'B')      4 0000161C 00000001     A   14163 13401
 =A(C'C')      4 00001624 00000001     A   14165 13437
 =A(C'D')      4 0000162C 00000001     A   14167 13473
 =A(C'E')      4 00001634 00000001     A   14169 13509
 =A(C'G')      4 00001638 00000001     A   14170 13545
 =A(C'I')      4 00001640 00000001     A   14172 13581
 =A(C'L')      4 00001648 00000001     A   14174 13617
 =A(C'N')      4 00001650 00000001     A   14176 13653
 =A(C'P')      4 00001658 00000001     A   14178 13689
 =A(C'R')      4 00001660 00000001     A   14180 13725
 =A(C'S')      4 00001668 00000001     A   14182 13761
 =A(C'T')      4 00001670 00000001     A   14184 13797
 =A(C'W')      4 00001690 00000001     A   14192 13978
 =A(C'X')      4 00001678 00000001     A   14186 13833
 =A(C'0')      4 00001698 00000001     A   14194 14016
 =A(C'9')      4 0000169C 00000001     A   14195 14030
 =A(CHANGE)
               4 00006968 00000001     A   33407 32906
 =A(CHKCOLS)
               4 00007B2C 00000001     A   37159 34392  34528  34637
 =A(CHNGRTN)
               4 00006998 00000001     A   33419 33300
 =A(COLCLPRT)
               4 000050E4 00000001     A   27697 24366
 =A(COLLECT)
               4 000050CC 00000001     A   27691 24046
 =A(COLLNPRT)
               4 000050D0 00000001     A   27692 24272
 =A(COLPRT)
               4 000050F0 00000001     A   27700 24563
 =A(COLSPRT)
               4 000084F8 00000001     A   39298 37293  37419  37594  37723  37898
 =A(D)         4 00001630 00000001     A   14168 13482
 =A(DELJOIND)
               4 00001018 00000001     A   12177 10439  11575  11594
 =A(DELPRT)
               4 00009B4C 00000001     A   45727 44989
 =A(DELRTN)
               4 00009B64 00000001     A   45733 45183
 =A(DELSUB)
               4 00009B58 00000001     A   45730 45054
 =A(DIGERR)
               4 00002230 00000001     A   18407 14423  14472  14498  14731  14786  15150  15206
 =A(DIGIT)
               4 000016A0 00000001     A   14196 14039
 =A(DOCHANGE)
               4 000091EC 00000001     A   43407 40545
 =A(DOEND)
               4 000091F0 00000001     A   43408 40580
 =A(DOFENCE)
1LINE     (LINE2193) (12:47) (15MAR04) Ordinary Symbol and Literal Cross Reference                                          Page  245
               4 00009814 00000001     A   44813 43706
 =A(E)         4 00001608 00000001     A   14158 12968  13003  13081  13123  13518
 =A(EDIT)      4 00000508 00000001     A    8166  6735
 =A(EDITS)
               4 00001030 00000001     A   12183 10986
 =A(ENDPROC)
               4 000091F4 00000001     A   43409 40587
 =A(EXCHPRT)
               4 0000AE7C 00000001     A   50214 49262
 =A(EXLN1PRT)
               4 0000AE6C 00000001     A   50210 49186
 =A(EXLN2PRT)
               4 0000AE78 00000001     A   50213 49224
 =A(EXVOID)
               4 0000AE9C 00000001     A   50222 49930  50049
 =A(FCOLLECT)
               4 00003138 00000001     A   22547 21731
 =A(FLINE)
               4 00003608 00000001     A   23861 22633
 =A(FLNPRT)
               4 00003610 00000001     A   23863 22759
 =A(FUNCPRT)
               4 00003110 00000001     A   22537 20434
 =A(FUNCTION)
               4 00001600 00000001     A   14156 12898  13915
 =A(G)         4 0000163C 00000001     A   14171 13554
 =A(GETCHLOC)
               4 000091E4 00000001     A   43405 40521  40549  41355
 =A(GETCHSTR)
               4 000091E8 00000001     A   43406 40541
 =A(GETINCR)
               4 00009210 00000001     A   43416 41626
 =A(GETLOWER)
               4 00009208 00000001     A   43414 41560
 =A(GETUPLOW)
               4 0000920C 00000001     A   43415 41593
 =A(GETUPPER)
               4 00009204 00000001     A   43413 41527
 =A(GETUSING)
               4 00009214 00000001     A   43417 41659
 =A(HELPEDIT)
               4 00002838 00000001     A   20288 19750
 =A(HELPLMOD)
               4 00001604 00000001     A   14157 12933  13878
 =A(HELPMOD)
               4 0000283C 00000001     A   20289 19767
 =A(I)         4 00001644 00000001     A   14173 13590
 =A(IMENDPRT)
               4 00006050 00000001     A   31751 27871
 =A(INCRPRT)
               4 00008920 00000001     A   40438 39389
 =A(INITCHNG)
               4 000091E0 00000001     A   43404 40515
 =A(INSPRT)
               4 000060E8 00000001     A   31777 30365
 =A(JOINLIN#)
               4 0000A7C4 00000001     A   49010 48652
 =A(JOINPRT)
               4 0000A79C 00000001     A   49000 47645
