1                        J E S 2  J O B  L O G  --  S Y S T E M  S Y S B  --  N O D E  R L G
0
 12.41.37 JOB03514 ---- MONDAY,    15 MAR 2004 ----
 12.41.37 JOB03514  ICH70001I GG$SLP   LAST ACCESS AT 12:41:21 ON MONDAY, MARCH 15, 2004
 12.41.37 JOB03514  $HASP373 WYL#DIR  STARTED - INIT 6    - CLASS B - SYS SYSB
 12.41.37 JOB03514  ***  HCMD      STEP $$QUIET
 12.41.37 JOB03514  PUR * Q OUT MUL
 12.41.37 JOB03514  JOB 5377 WYL#DIR  WILL BE PURGED
 12.41.38 JOB03514  WYL#DIR .$$QUIET .         RC=Zero TapeIO=0000 DiskIO=0000 CPU=  .01s Elapsed=97.90s
 12.41.57 JOB03514  WYL#DIR .ASM     .         RC=Zero TapeIO=0000 DiskIO=0954 CPU= 6.50s Elapsed=99.00s
 12.41.59 JOB03514  WYL#DIR .EDIT    .         RC=Zero TapeIO=0000 DiskIO=0295 CPU=  .85s Elapsed=17.12s
 12.41.59 JOB03514  WYL#DIR  Ended.  Name=Assemble DIR                   Total CPU= 7.36s Elapsed=97.90s
 12.41.59 JOB03514
 12.41.59 JOB03514  Execution charges   Priority=Standard   Block=Day
 12.41.59 JOB03514
 12.41.59 JOB03514  CPU Usage         136.12          $84.39   Standard Processing Unit Equivalent
 12.41.59 JOB03514                                   =======
 12.41.59 JOB03514                                    $84.39   Total Job execution charge
 12.41.59 JOB03514
 12.41.59 JOB03514  See back separator page for print charges
 12.41.59 JOB03514
 12.41.59 JOB03514  $HASP395 WYL#DIR  ENDED  ASM=0, EDIT=0
1        1 //WYL#DIR JOB SLP$GG,'Assemble DIR',TIME=4,REGION=4M                    JOB03514
           //*
           /*JOBPARM LINES=99,COPIES=1
           /*JOBPARM FORMS=3HOL,PFORMAT=LAND,CHARS=BD13,DUPLEX=YES,FLASH=BAR4
           //*
           /*JOBPARM NOTIFY=GG.SLP,HOLD=OUTPUT                                     WYLGEN
         2 //$$QUIET EXEC PGM=HCMDX,PARM='PUR * Q OUT MUL'
           //*
         3 //ASM    EXEC PGM=ASMA90,REGION=8M,
           //            PARM=('NORENT,TERM,FLAG(NOCONT),US(MAP,WARN(10)),NODECK',
           //            'LC(32767),XREF(SHORT),ESD,DXREF,NOOBJECT')
         4 //STEPLIB DD DSN=SYS3.IS.TESTASM,DISP=SHR
         5 //SYSLIB   DD  DSN=WYL.GS.WYL.WYLBUR.MACLIB,DISP=SHR
         6 //         DD  DSN=WYL.GG.SYS.MACLIB,DISP=SHR
         7 //         DD  DSN=SYS3.IS.MACLIB,DISP=SHR
         8 //         DD  DSN=SYS3.MACLIB,DISP=SHR
         9 //         DD  DSN=SYS1.MACLIB,DISP=SHR
        10 //         DD  DSN=SYS1.MODGEN,DISP=SHR
        11 //SYSUT1   DD DSN=&&SYSUT1,UNIT=VIO,DISP=(,DELETE),
           //            SPACE=(4088,(500,250),,CONTIG,ROUND)
        12 //SYSTERM  DD SYSOUT=T
        13 //SYSPRINT DD DSN=&&PRINT,UNIT=SYSDA,DISP=(,PASS),
           //            SPACE=(6650,(250,250),RLSE),
           //            DCB=(BLKSIZE=6650,LRECL=133,RECFM=FB)
        14 //SYSUDUMP DD SYSOUT=A
        15 //SYSIN    DD  DSN=WYL.GS.WYL.WYLBUR.SOURCE(DIR),DISP=SHR
           //*
        16 //EDIT    EXEC PGM=ASMEDIT,TIME=2,REGION=4000K,
           //             PARM='STMT'
        17 //STEPLIB  DD  DSN=WYL.GG.SYS.LINKLIB,DISP=SHR
        18 //ASMOUT   DD  DSN=&PRINT,DISP=(OLD,DELETE)
        19 //SYSPRINT DD  SYSOUT=A
1 STMT NO. MESSAGE
 -
        11 IGD01010I STORCLAS= TEMP STORGROUP =
        11 IGD01010I STORGRP=VIO ASSIGNED.
        13 IGD01010I STORCLAS= TEMP STORGROUP =
        13 IGD01010I STORGRP=VIO ASSIGNED.
 ICH70001I GG$SLP   LAST ACCESS AT 12:41:21 ON MONDAY, MARCH 15, 2004
 IEF142I WYL#DIR $$QUIET - STEP WAS EXECUTED - COND CODE 0000
 *********************************************************************************
 *   WYL#DIR /$$QUIET /                    Return Code      Zero                 *
 *   Region used      260K (16K user + 244K system)                              *
 *   Extended region  9692K (4K user + 9688K system)                             *
 *                                                                               *
 *   Paging              In      Out                                             *
 *   Private <-> Aux      0        0       CPU time (TCB)   00:00:00.01          *
 *   Private <-> Exp      0        0       CPU time (SRB)   00:00:00.00          *
 *   VIO                  0        0       Elapsed time    917:46:15.06          *
 *   Common               0      ---                                             *
 *                                                                               *
 *                                                                               *
 *   CPU Usage          0.18         $0.11  Standard Processing Unit Equivalent  *
 *                                   $0.11  Total Step execution charge          *
 *                                                                               *
 *    I/O count  DDname   Type Addr           I/O count  DDname   Type Addr      *
 *                         *** No I/O for this step ***                          *
 *********************************************************************************
 IEF373I STEP/$$QUIET /START 2004075.1241
 IEF374I STEP/$$QUIET /STOP  2004075.1241 CPU    0MIN 00.01SEC SRB    0MIN 00.00SEC VIRT    16K SYS   244K EXT       4K SYS    9688K
 IEF236I ALLOC. FOR WYL#DIR ASM
 IEF237I 04DC ALLOCATED TO STEPLIB
 IEF237I 04DC ALLOCATED TO SYSLIB
 IEF237I 04DC ALLOCATED TO
 IEF237I 04DC ALLOCATED TO
 IEF237I 0402 ALLOCATED TO
 IEF237I 04A0 ALLOCATED TO
 IEF237I 04A0 ALLOCATED TO
 IGD101I SMS ALLOCATED TO DDNAME (SYSUT1  )
         DSN (SYS04075.T124137.RA000.WYL#DIR.SYSUT1.H01   )
         STORCLAS (TEMP) MGMTCLAS (        ) DATACLAS (        )
         VOL SER NOS= VIO
 IEF237I JES2 ALLOCATED TO SYSTERM
 IGD101I SMS ALLOCATED TO DDNAME (SYSPRINT)
         DSN (SYS04075.T124137.RA000.WYL#DIR.PRINT.H01    )
         STORCLAS (TEMP) MGMTCLAS (        ) DATACLAS (        )
         VOL SER NOS= SCR100
 IEF237I JES2 ALLOCATED TO SYSUDUMP
 IEF237I 04DC ALLOCATED TO SYSIN
 IEF142I WYL#DIR ASM - STEP WAS EXECUTED - COND CODE 0000
 IEF285I   SYS3.IS.TESTASM                              KEPT
 IEF285I   VOL SER NOS= SYSB05.
 IEF285I   WYL.GS.WYL.WYLBUR.MACLIB                     KEPT
 IEF285I   VOL SER NOS= SYSB05.
 IEF285I   WYL.GG.SYS.MACLIB                            KEPT
 IEF285I   VOL SER NOS= SYSB05.
 IEF285I   SYS3.IS.MACLIB                               KEPT
 IEF285I   VOL SER NOS= SYSB05.
 IEF285I   SYS3.MACLIB                                  KEPT
 IEF285I   VOL SER NOS= SYSB02.
 IEF285I   SYS1.MACLIB                                  KEPT
 IEF285I   VOL SER NOS= MVSBR9.
 IEF285I   SYS1.MODGEN                                  KEPT
 IEF285I   VOL SER NOS= MVSBR9.
 IGD105I SYS04075.T124137.RA000.WYL#DIR.SYSUT1.H01    DELETED,   DDNAME=SYSUT1
 IEF285I   GG$SLP.WYL#DIR.JOB03514.D0000101.?           SYSOUT
 IGD106I SYS04075.T124137.RA000.WYL#DIR.PRINT.H01     PASSED,    DDNAME=SYSPRINT
 IEF285I   GG$SLP.WYL#DIR.JOB03514.D0000102.?           SYSOUT
 IEF285I   WYL.GS.WYL.WYLBUR.SOURCE                     KEPT
 IEF285I   VOL SER NOS= SYSB05.
 *********************************************************************************
 *   WYL#DIR /ASM     /                    Return Code      Zero                 *
 *   Region used      4376K (4096K user + 280K system)                           *
 *   Extended region  10308K (412K user + 9896K system)                          *
 *                                                                               *
 *   Paging              In      Out                                             *
 *   Private <-> Aux      0        0       CPU time (TCB)   00:00:06.42          *
 *   Private <-> Exp      0        0       CPU time (SRB)   00:00:00.08          *
 *   VIO                  0        0       Elapsed time    917:46:13.96          *
 *   Common               0      ---                                             *
 *                                                                               *
 *                                                                               *
 *   CPU Usage        120.37        $74.62  Standard Processing Unit Equivalent  *
 *                                  $74.62  Total Step execution charge          *
 *                                                                               *
 *    I/O count  DDname   Type Addr           I/O count  DDname   Type Addr      *
 *           87  STEPLIB  Disk 04DC                 394  SYSLIB   Disk 04DC      *
 *            0  SYSLIB   Disk 04DC                   0  SYSLIB   Disk 04DC      *
 *            0  SYSLIB   Disk 0402                 171  SYSLIB   Disk 04A0      *
 *            0  SYSLIB   Disk 04A0                 727  SYSUT1   VIO  ----      *
 *            0  SYSTERM       ----                 292  SYSPRINT Disk 038B      *
 *            0  SYSUDUMP      ----                  10  SYSIN    Disk 04DC      *
 *********************************************************************************
 IEF373I STEP/ASM     /START 2004075.1241
 IEF374I STEP/ASM     /STOP  2004075.1241 CPU    0MIN 06.42SEC SRB    0MIN 00.08SEC VIRT  4096K SYS   280K EXT     412K SYS    9896K
 IEF236I ALLOC. FOR WYL#DIR EDIT
 IEF237I 0402 ALLOCATED TO STEPLIB
 IGD103I SMS ALLOCATED TO DDNAME ASMOUT
 IEF237I JES2 ALLOCATED TO SYSPRINT
 IEF142I WYL#DIR EDIT - STEP WAS EXECUTED - COND CODE 0000
 IEF285I   WYL.GG.SYS.LINKLIB                           KEPT
 IEF285I   VOL SER NOS= SYSB02.
 IGD105I SYS04075.T124137.RA000.WYL#DIR.PRINT.H01     DELETED,   DDNAME=ASMOUT
 IEF285I   GG$SLP.WYL#DIR.JOB03514.D0000103.?           SYSOUT
 *********************************************************************************
 *   WYL#DIR /EDIT    /                    Return Code      Zero                 *
 *   Region used      380K (116K user + 264K system)                             *
 *   Extended region  9816K (4K user + 9812K system)                             *
 *                                                                               *
 *   Paging              In      Out                                             *
 *   Private <-> Aux      0        0       CPU time (TCB)   00:00:00.83          *
 *   Private <-> Exp      0        0       CPU time (SRB)   00:00:00.02          *
 *   VIO                  0        0       Elapsed time    917:45:55.84          *
 *   Common               0      ---                                             *
 *                                                                               *
 *                                                                               *
 *   CPU Usage         15.56         $9.64  Standard Processing Unit Equivalent  *
 *                                   $9.64  Total Step execution charge          *
 *                                                                               *
 *    I/O count  DDname   Type Addr           I/O count  DDname   Type Addr      *
 *            2  STEPLIB  Disk 0402                 293  ASMOUT   Disk 038B      *
 *            0  SYSPRINT      ----                                              *
 *********************************************************************************
 IEF373I STEP/EDIT    /START 2004075.1241
 IEF374I STEP/EDIT    /STOP  2004075.1241 CPU    0MIN 00.83SEC SRB    0MIN 00.02SEC VIRT   116K SYS   264K EXT       4K SYS    9812K
 *********************************************************************************
 *                                                                               *
 *                      S t a n f o r d   U n i v e r s i t y                    *
 *                                                                               *
 *                              *** Job Summary ***                              *
 *                                                                               *
 *   System Id      SYSB                   Input time     12:39:16  Mar 15, 2004 *
 *                                                                               *
 *   System Release SP6.1.0                Start time     12:41:37  Mar 15, 2004 *
 *                                                                               *
 *   Job name       WYL#DIR                Stop  time     00:00:00  Mar 15, 2004 *
 *                                                                               *
 *   Account        SLP$GG                 Elapsed time  917:46:15.06            *
 *                                                                               *
 *   User Name      Assemble DIR           CPU time       00:00:07.26            *
 *                                                                               *
 *   Job class      B                      SRB Time       00:00:00.10            *
 *                                                                               *
 *********************************************************************************
 IEF375I  JOB/WYL#DIR /START 2004075.1241
 IEF376I  JOB/WYL#DIR /STOP  2004075.1241 CPU    0MIN 07.26SEC SRB    0MIN 00.10SEC
1Assembler Done DIR No Statements Flagged
1         High Level Assembler Option Summary                   (PTF P72483 )                                               Page    1
-                                                                                            HLASM R4.0  2004/03/15 12.41
0  No Overriding ASMAOPT Parameters
   Overriding Parameters-  NORENT,TERM,FLAG(NOCONT),US(MAP,WARN(10)),NODECK,LC(32767),XREF(SHORT),ESD,DXREF,NOOBJECT
   No Process Statements


   Options for this Assembly
0  NOADATA
     ALIGN
   NOASA
     BATCH
     CODEPAGE(047C)
   NOCOMPAT
   NODBCS
 3 NODECK
 3   DXREF
 3   ESD
   NOEXIT
 3   FLAG(0,ALIGN,NOCONT,NOIMPLEN,NOPAGE0,PUSH,RECORD,NOSUBSTR,USING0)
   NOFOLD
   NOGOFF
   NOINFO
     LANGUAGE(EN)
   NOLIBMAC
 3   LINECOUNT(32767)
     LIST(121)
     MXREF(SOURCE)
 3 NOOBJECT
     OPTABLE(UNI,NOLIST)
   NOPCONTROL
   NOPESTOP
   NOPROFILE
   NORA2
 3 NORENT
     RLD
     RXREF
     SIZE(MAX)
     SYSPARM()
 3   TERM(WIDE)
   NOTEST
     THREAD
   NOTRANSLATE
 3   USING(NOLIMIT,MAP,WARN(10))
 3   XREF(SHORT)

   No Overriding DD Names

1DIR      External Symbol Dictionary                                                                                        Page    2
-Symbol   Type   Id     Address  Length     LD ID  Flags Alias-of                            HLASM R4.0  2004/03/15 12.41
0WYLDIR    SD 00000001 00000000 00004BE0             00
 DIR2025   LD          00000000           00000001
 SHOWTRKS  LD          00000016           00000001
 DSNPSHON  ER 00000002
 COLLPSH   ER 00000003
 MALL      ER 00000004
 NOTVALID  ER 00000005
 NSCAN     ER 00000006
 MKFFINFO  ER 00000007
 WGSTRKS   ER 00000008
 SHODSN    LD          0000017C           00000001
 MTOKEN    ER 00000009
 MPARM     ER 0000000A
 FNAMPSH   ER 0000000B
 ACCTPSHC  ER 0000000C
 SCANCHK   ER 0000000D
 SEGB      ER 0000000E
 FNAMEFIN  ER 0000000F
 SEGT      ER 00000010
 SEGCR     ER 00000011
 SEG       ER 00000012
 NRESOLVE  ER 00000013
 TOUPPER   ER 00000014
 RETFNGDG  ER 00000015
 WGSHODSN  ER 00000016
 NOMORPG   ER 00000017
 UPCASE    ER 00000018
 NSCANSTR  ER 00000019
 RETFNAME  ER 0000001A
 PGETA     ER 0000001B
 PJUNKA    ER 0000001C
 RTRIM     ER 0000001D
 YESRTN    ER 0000001E
 WGSCRTCH  ER 0000001F
 DSPDSNIN  LD          0000106A           00000001
 SEGINIT   ER 00000020
 DTB       ER 00000021
 BTDZEROS  ER 00000022
 DSPDSINN  LD          00001374           00000001
 SEGDC     ER 00000023
 SHOWCAT   LD          00001FD0           00000001
 WGSHOCAT  ER 00000024
 SEGCLR    ER 00000025
 SEGWR     ER 00000026
 DSPCATIN  LD          00002DAA           00000001
 DSPCATEX  LD          00002E90           00000001
 SHOWDIR   LD          000032AA           00000001
 LRTRIM    ER 00000027
 SAMDIR    ER 00000028
 NETDIR    ER 00000029
 WGSHODIR  ER 0000002A
 SETPFXNS  ER 0000002B
 DOFNAME   ER 0000002C
 RETFMEM   ER 0000002D
 GETTPAGY  LD          00003CAC           00000001
1DIR      External Symbol Dictionary                                                                                        Page    3
 PMARKA    ER 0000002E
 PGETNEW   ER 0000002F
 PNUMA     ER 00000030
 VARY      LD          000044A0           00000001
 INVALID   ER 00000031
 SCAN      ER 00000032
 DOPEN     ER 00000033
 NTGDOPN   ER 00000034

1DIR      WYLBUR's Directory Commands                                                                                       Page    4
0Loc    Object Code    Addr1 Addr2  Stmt Lv Lineno    Source Statement                    (Asmedit 3.3)  HLASM R4.0  2004/03/15 12.41
+___    ______ ____    _____ _____  ____ __ ______    ______ _________
0                                      2              *******************************************************************
                                       3              *                                                                 *
                                       4              *     WYLBUR/370 - Release VI - Class I - Stanford Proprietary    *
                                       5              *                                                                 *
                                       6              *******************************************************************
                                       7                       HIBAL
                                     988
 000000                00000 04BE0   989              WYLDIR   CSECT
                                     993              DIR      IDENT 2025                11:49:20 01/25/02  (SLP)
                                     996             +
                                     997    01-IDENT +         ENTRY DIR2025
                                     998             +
 000000 15C4C9D9F2F0F2F5             999    01-IDENT +DIR2025  DC    AL1(21),C'DIR2025,15MAR04,12:41'
                                    1000             +*
                                    1002              *
                                    1003                       REGS   FSR,,,,,,IOWAR,BR,(WAR,LSR),PAR,PBR,CPR,CVR,SPR,RAR
-                                   1153                       SYSDEFN ,                 Define installation params
                                    1154                       GBLC  &PUBUSER,&PUBGRP
                                    1155                       GBLB  &ICF
-                                   1157                       PUSH  DSECTS
 USING  CP,R11                      1169             =         USING (CP),(CV)
 USING  CV,R12
 000016                00000 04BE0  1188             =         POP   PRINT
1DIR      (DIR2025) (12:41) (15MAR04) Local DSECTS                                                                          Page    5
0Current Usings:  (CP,R11) (CV,R12)
0Loc    Object Code    Addr1 Addr2  Stmt Lv Lineno    Source Statement           (Hibal 5, Asmedit 3.3)  HLASM R4.0  2004/03/15 12.41
+___    ______ ____    _____ _____  ____ __ ______    ______ _________
0                                   9947                       COPY  LUVHDR
 000000                00000 00008  9948             =LUVHDR   RECORD BEGIN
 000000                             9956  1          =LUVENTNO   DS    A                   Number of lookup entries
 000004                             9957  1          =LUVENTLN   DS    A                   Length of lookup entry
 000008                             9958  1          =LUVENTS    DS    0F                  Location of first entry
 000008                00008 00008  9959             =         END
-                                   9969                       COPY  LUVENTRY
 000000                00000 00020  9970             =LUVENTRY RECORD BEGIN
 000000                             9978  1          =LUVNAME    DS    CL8                 Lookup name
 000008                             9979  1          =LUVCODE    DS    CL4                 Lookup value
 00000C                             9980  1          =LUVGMTP    DS    A                   A(primary mask table)
 000010                             9981  1          =LUVGENNO   DS    A                   Number of generic entries
 000014                             9982  1          =LUVGENP    DS    A                   A(first generic) GENSECT
 000018                             9983  1          =LUVFLAGS   DS    BL3                 FLAGS
 00001C                             9984  1          =           DS    0F
 00001C                             9985  1          =LUVAGMTP   DS    A                   A(alternate mask)
 000020                00020 00020  9986             =         END
-000000                00000 00044  9996              SDSNBUF  RECORD 'SDSNBUF; SCATBUF'
 000000                            10006  1 03-SDSNB +SBUF       DS    0D                  output buffer for show dsnames
 000000                            10007  1 03-SDSNB +SBDSN      DS    CL44                dsname
 00002C                            10008  1 03-SDSNB +SBCRDT     DS    CL3                 creation date
 00002F                            10009  1 03-SDSNB +SBEXDT     DS    CL3                 last access date
 000032                            10010  1 03-SDSNB +SBNOEX     DS    CL1                 no. of extents
 000033                            10011  1 03-SDSNB +SBDSORG    DS    CL2                 DSORG
 000035                            10012  1 03-SDSNB +SBDSIND    DS    X                   Data set indicators
                                   10013  1 03-SDSNB +SBWSB      EQU   X'02'               - File written since last backup
 000036                            10014  1 03-SDSNB +SBRECFM    DS    CL1                 recfm
 000037                            10015  1 03-SDSNB +SBKEYL     DS    CL1                 key length
 000038                            10016  1 03-SDSNB +SBLRECL    DS    H                   lrecl
 00003A                            10017  1 03-SDSNB +SBBLKSZ    DS    H                   blksize
 00003C                            10018  1 03-SDSNB +SBLB       DS    0H,CL5              last block - ttrll
 000041                            10019  1 03-SDSNB +SBACCTG    DS    CL1                 accounted for flag
 000042                            10020  1 03-SDSNB +SPTRK      DS    H                   tracks alloc
                                   10021  1          +
                                   10022  1 03-SDSNB +SBSZ       EQU   *-SBUF              ** must be halfword multiple **
 000044                00044 00000 10024  1 03-SCATB +           ORG   SBUF
 000000                            10025  1 03-SCATB +SCBUF      DS    0D                  output buffer for show catalog
 000000                            10026  1 03-SCATB +SCBCODE    DS    CL1                 type entry code
 000001                            10027  1 03-SCATB +SCBNM      DS    CL8                 index level name
 000009                            10028  1 03-SCATB +SCBNM2     DS    0CL8                other name for alias entry
 000009                            10029  1 03-SCATB +SCBVOL     DS    CL6                 volume name
 00000F                            10030  1 03-SCATB +SCBDEVCD   DS    CL4                 Device codes
                                   10031  1          +**** following two fields must remain in order ****
 000013                            10032  1 03-SCATB +SCBMAX     DS    CL1                 max gdg names
 000014                            10033  1 03-SCATB +SCBNVOLS   DS    H                   number of vols or gdg entries
 000016                            10034  1 03-SCATB +SCBSEQNO   DS    H                   ds sequence number
 000018                00018 00044 10035    03-SCATB +SCBSZ    EQU   *-SCBUF             ** must be halfword multiple **
1DIR      (DIR2025) (12:41) (15MAR04) Local DSECTS                                                                          Page    6
0Current Usings:  (CP,R11) (CV,R12)
0Loc    Object Code    Addr1 Addr2  Stmt Lv Lineno    Source Statement           (Hibal 5, Asmedit 3.3)  HLASM R4.0  2004/03/15 12.41
+___    ______ ____    _____ _____  ____ __ ______    ______ _________
0000000                00000 00014 10046                       VOLINFO
 000000                            10055  1 01-VOLIN +VOLNAME    DS    CL6                 volume name
                                   10056  1          +
 000008                            10057  1 01-VOLIN +VOLFRTRK   DS    F                   no. of free tracks on volume
 00000C                            10058  1 01-VOLIN +VOLFREXT   DS    F                   no. of free extents on volume
 000010                            10059  1 01-VOLIN +VOLLGTRK   DS    F                   size of largest free extent
 000014                00014 00014 10060    01-VOLIN +VOLSTATS EQU   VOLFRTRK,*-VOLFRTRK,C'X'
1DIR      (DIR2025) (12:41) (15MAR04) WYLBUR's Directory Commands                                                           Page    7
0Current Usings:  (CP,R11) (CV,R12)
0Loc    Object Code    Addr1 Addr2  Stmt Lv Lineno    Source Statement           (Hibal 5, Asmedit 3.3)  HLASM R4.0  2004/03/15 12.41
+___    ______ ____    _____ _____  ____ __ ______    ______ _________
0                                  10071              ¿þþþþþþþþþþþþþþþþþþþþþþþþþþþþþþþþþþþþþþþþþþþþþþþþþþþþþþþþþþþþþþþþþþþþþÜ
                                   10072              Ÿ                                                                     Ÿ
                                   10073              Ÿ  SHOWTRKS -- SHOW TRACKS command.                                   Ÿ
                                   10074              Ÿ                                                                     Ÿ
                                                      ¾þþþþþþþþþþþþþþþþþþþþþþþþþþþþþþþþþþþþþþþþþþþþþþþþþþþþþþþþþþþþþþþþþþþþþ»
0000016 50E0 D000/9008_      00000 10075              SHOWTRKS XPROC
 USING  *,R7
                                   10115
 000030 5810 B08C/1B00_      0008C 10116                       SCAN STRKPRT
 000082 D627 BE90 BE90_00E90 00E90 10148                       IF    (DSNON,Z),BEGIN     No volume specified...
 00008C 4110 7122/4100_      00152 10164  1                      ERROR 'Volume must be specified for SHOW TRACKS.'
 000098                            10171                       END
                                   10175
 000098 58E0 7118/0DEE       00148 10176                       VCALL MKFFINFO
 00009E 5850 BE54            00E54 10180                       L     R5,CPFINFOP
 USING  FFINFO,R5                  10181                       USING FFINFO,R5
                                   10190
 0000A2 D27F 5090 BE90 00090 00E90 10191                       MVC   FFHOST,DSNON6
 0000A8 4100 0006            00006 10192                       LA    R0,6
 0000AC 5000 508C            0008C 10193                       ST    R0,FFHOSTL
                                   10194
 0000B0 58E0 711C/0DEE       0014C 10195                       VCALL WGSTRKS
                                   10199
 0000B6 47F0 C7DE            007DE 10200                       B     CVNEXT
 0000BA 18D8/9808 D004_            10201                       PEND
 DROP   *,R7
                                   10221              *
                                   10222              * for show tracks...
                                   10223              *
 0000C8 4040404040404040_          10224              STRKPRT  SCKW  ,V(DSNPSHON),PUSH
 0000F0 4040404040404040_          10239                       SCKW  ,V(COLLPSH),PUSH
 000118 4040404040404040_          10254                       SCKW  ,V(NOTVALID)
-                                  10270                       QLTORG
1DIR      (DIR2025) (12:41) (15MAR04) SHOW DSNAMES Command                                                                  Page    8
0Current Usings:  (FFINFO,R5) (CP,R11) (CV,R12)
0Loc    Object Code    Addr1 Addr2  Stmt Lv Lineno    Source Statement           (Hibal 5, Asmedit 3.3)  HLASM R4.0  2004/03/15 12.41
+___    ______ ____    _____ _____  ____ __ ______    ______ _________
0                                  10289              ¿þþþþþþþþþþþþþþþþþþþþþþþþþþþþþþþþþþþþþþþþþþþþþþþþþþþþþþþþþþþþþþþþþþþþþÜ
                                   10290              Ÿ                                                                     Ÿ
                                   10291              Ÿ  SHODSN  -- SHOW DSNAMES Command.                                   Ÿ
                                   10292              Ÿ                                                                     Ÿ
                                   10293              Ÿ  SHOW DSN BROKEN OUT INTO FILE TYPE (SAM,NET,WINGS,ETC)             Ÿ
                                   10294              Ÿ  CODE.                                                              Ÿ
                                   10295              Ÿ                                                                     Ÿ
                                   10296              Ÿ                                                                     Ÿ
                                                      ¾þþþþþþþþþþþþþþþþþþþþþþþþþþþþþþþþþþþþþþþþþþþþþþþþþþþþþþþþþþþþþþþþþþþþþ»
000017C 50E0 D000/9008_      00000 10297              SHODSN   XPROC SHDSARGS
 USING  *,R7
 USING  SHDSARGS-(4+36),R8
 000196 4160 8028            00000 10348                       LA    R6,SHDSARGS
 USING  SHDSARGS,R6                10349                       USING SHDSARGS,R6
 00019A D7FF 6000 6000_00000 00000 10358                       CLEAR SHDSARGS
                                   10366
 0001A6 58E0 7A2A/0DEE       00BC0 10367                       VCALL MKFFINFO
 0001AC 5850 BE54            00E54 10371                       L     R5,CPFINFOP
                                   10372                       USING FFINFO,R5
                                   10374
                                   10375                       COMMENT                   SCAN SHOW DSN OPTIONS
 0001B0 5810 B08C/1B00_      0008C 10376                       SCAN  DSONPRT
 000202 58E0 7A36/0DEE       00BCC 10408                       SCANCHK
                                   10413
                                   10414                       COMMENT                   VALIDITY
                                   10415            C          IF    ((SHDSONLY),AND,((SHDSLOWL,NE,0),OR,
 000208 9102 6000/47E0_00000                                         (SHDSUPL,NE,0))),BEGIN
                                   10464  1         C            ERROR '"FROM","EXCLUDE","THROUGH", and "TO" conflict with "ONL
 000224 D207 B886 79FA_00886 00B90        1                            Y" option"',,ONLYCONF
 000236                            10472                       END   ,
                                   10476
 000236 9108 6000/47E0_00000       10477                       IF    (SHDSSCR,AND,CPFDUMP),BEGIN
 000246 4110 7B11/4100_      00CA7 10506  1                      TSEG  'SCRATCH',,B        Tell which bad option
 000258 4110 7B18/4100_      00CAE 10524  1                      ERROR 'conflicts with dump command or collect options.'
 000264                            10531                       END
                                   10535
 000264 58E0 7A3E/0DEE       00BD4 10536                       VCALL FNAMEFIN            Process dsname parameters
                                   10540
                                   10541                       COMMENT                   SAMSON SHOW DSN
 00026A 9503 5000/4770_00000       10542                       IF    FFFSAM,BEGIN
 000272 4110 5090/5800_      00090 10557  1                      TSEG  FFHOST,L:FFHOSTL,T
 000284 4110 7B47/4100_      00CDD 10585  1                      TSEG  ': volume not valid.',,CR
 000296 4110 7A02/4100_      00B98 10603  1                      TSEG  '(Use "SHOW DIRECTORY ON volume" '
 0002A8 4110 7A9C/4100_      00C32 10621  1                      ERROR 'for Samson directory.)'
 0002B4                            10628                       END
                                   10632              *
                                   10633              *
                                   10634                       COMMENT                   NETWORK SHOW DSNAMES
 0002B4 9504 5000/4770_00000       10635                       IF    FFFNET,BEGIN
 0002BC 4110 5090/5800_      00090 10650  1                      TSEG  FFHOST,L:FFHOSTL,T
 0002CE 4110 7B47/4100_      00CDD 10678  1                      TSEG  ': volume not valid.',,CR
 0002E0 4110 7AB2/4100_      00C48 10696  1                      TSEG  '(Use "SHOW DIRECTORY ON host" '
 0002F2 4110 7B5A/4100_      00CF0 10714  1                      ERROR 'for network directory.)'
1DIR      (DIR2025) (12:41) (15MAR04) SHOW DSNAMES Command                                                                  Page    9
0Current Usings:  (FFINFO,R5) (SHDSARGS,R6) (*,R7) (SHDSARGS-(4+36),R8) (CP,R11) (CV,R12)
0Loc    Object Code    Addr1 Addr2  Stmt Lv Lineno    Source Statement           (Hibal 5, Asmedit 3.3)  HLASM R4.0  2004/03/15 12.41
+___    ______ ____    _____ _____  ____ __ ______    ______ _________
00002FE                            10721                       END
                                   10725              *
                                   10726              *
                                   10727                       COMMENT                   WINGS SHOW DSNAMES
 0002FE 9501 5000/4770_00000       10728                       IF    FFFWINGS,BEGIN
                                   10743  1
 000306 D503 79F2 6004_00B88 00004 10744  1                      IF    (SHDSUPL,GT,0),BEGIN
 000310 5810 6004            00004 10762  2                        L     R1,SHDSUPL
 000314 5010 5008            00008 10763  2                        ST    R1,FFNAMEL
 000318 0610/1211/4740_            10764  2                        MOVE  R1,FFNAME,SHDSUPB
 000324 58E0 7A4E/0DEE       00BE4 10802  2                        VCALL NRESOLVE
 00032A 5810 5214            00214 10806  2                        L     R1,FFRNAMEL
 00032E 5010 6004            00004 10807  2                        ST    R1,SHDSUPL
 000332 0610/1211/4740_            10808  2                        MOVE  R1,SHDSUPB,FFRNAME
 00033E                            10846  1                      END
                                   10850  1
 00033E D503 79F2 6088_00B88 00088 10851  1                      IF    (SHDSLOWL,GT,0),BEGIN
 000348 5810 6088            00088 10869  2                        L     R1,SHDSLOWL
 00034C 5010 5008            00008 10870  2                        ST    R1,FFNAMEL
 000350 0610/1211/4740_            10871  2                        MOVE  R1,FFNAME,SHDSLOWB
 00035C 58E0 7A4E/0DEE       00BE4 10909  2                        VCALL NRESOLVE
 000362 5810 5214            00214 10913  2                        L     R1,FFRNAMEL
 000366 5010 6088            00088 10914  2                        ST    R1,SHDSLOWL
 00036A 0610/1211/4740_            10915  2                        MOVE  R1,SHDSLOWB,FFRNAME
 000376                            10953  1                      END
                                   10957  1
 000376 D503 79F2 610C_00B88 0010C 10958  1                      IF    (SHDSLIKL,GT,0),BEGIN
 000380 5800 610C            0010C 10976  2                        L     R0,SHDSLIKL
 000384 4110 6110            00110 10977  2                        LA    R1,SHDSLIKE
 000388 58E0 7A52/0DEE       00BE8 10978  2                        VCALL TOUPPER
 00038E 955B 1000/4770_00000       10982  2                        IF    (@R1,EQ,'$'),BEGIN
 000396 5E10 7A56            00BEC 10998  3                          INCR  R1
 00039A 0600                       11001  3                          DECR  R0
 00039C 5000 610C            0010C 11003  3                          ST    R0,SHDSLIKL
 0003A0 1220                       11004  3                          LTR   R2,R0
 0003A2 4780 721C            003B2 11005  3                          IF    NZ,BEGIN
 0003A6 0620/1222/4740_            11016  4                            MOVE  R2,SHDSLIKE,SHDSLIKE+1
 0003B2                            11054  3                          END
 0003B2                            11058  2                        END
 0003B2 7220/47F0 7232_003B2 00394 11062  2                        ELSEIF ((R0,GE,4),AND,(@R1,EQ,'WYL.')),BEGIN
 0003C8                            11103  2                        END
                                   11107  2         C              ELSEIF ((R0,GE,5),AND,
                                          2         C                    (@R1,EQ,'SYS'),AND,
                                          2         C                    (@R1+3,GE,'0'),AND,(@R1+3,LE,'9'),AND,
 0003C8 7236/7236/47F0_003C8 003BC        2                              (@R1+4,EQ,'.')),BEGIN
 0003F6                            11189  2                        END
 0003F6 7264/7264/7264_003F6 003D2 11193  2                        ELSE  BEGIN
 0003FA 5000 5008            00008 11212  3                          ST    R0,FFNAMEL
 0003FE 1810                       11213  3                          LR    R1,R0
 000400 0610/1211/4740_            11214  3                          MOVE  R1,FFNAME,SHDSLIKE
 00040C 58E0 7A4E/0DEE       00BE4 11252  3                          VCALL NRESOLVE
 000412 5800 5214            00214 11256  3                          L     R0,FFRNAMEL
 000416 4110 5218            00218 11257  3                          LA    R1,FFRNAME
 00041A 58E0 7A66/0DEE       00BFC 11258  3                          VCALL RETFNGDG
1DIR      (DIR2025) (12:41) (15MAR04) SHOW DSNAMES Command                                                                  Page   10
0Current Usings:  (FFINFO,R5) (SHDSARGS,R6) (*,R7) (SHDSARGS-(4+36),R8) (CP,R11) (CV,R12)
0Loc    Object Code    Addr1 Addr2  Stmt Lv Lineno    Source Statement           (Hibal 5, Asmedit 3.3)  HLASM R4.0  2004/03/15 12.41
+___    ______ ____    _____ _____  ____ __ ______    ______ _________
0000420 5000 610C            0010C 11262  3                          ST    R0,SHDSLIKL
 000424 1810                       11263  3                          LR    R1,R0
 000426 0610/1211/4740_            11264  3                          MOVE  R1,SHDSLIKE,FFRNAME
 000432                            11302  2                        END
 000432                            11306  1                      END
 000432 72A0/47F0 72CA 00432 0037E 11310  1                      ELSE  BEGIN
 000436 4100 0001            00001 11321  2                        LA    R0,1
 00043A 92C1 500C      0000C       11322  2                        MVI   FFNAME,C'A'
 00043E 5000 5008            00008 11323  2                        ST    R0,FFNAMEL
 000442 58E0 7A4E/0DEE       00BE4 11324  2                        VCALL NRESOLVE
 000448 5810 5214            00214 11328  2                        L     R1,FFRNAMEL
 00044C 5B10 7A6A            00C00 11329  2                        S     R1,=F'2'
 000450 5010 610C            0010C 11330  2                        ST    R1,SHDSLIKL
 000454 0610/1211/4740_            11331  2                        MOVE  R1,SHDSLIKE,FFRNAME
 000460                            11369  1                      END
                                   11373  1
 000460 4110 6000            00000 11374  1                      LA    R1,SHDSARGS
 000464 58E0 7A6E/0DEE       00C04 11375  1                      VCALL WGSHODSN
                                   11379  1           *
                                   11380  1           * It makes no sense at all to set the prefix on SHOW
                                   11381  1           * DSNAMES.
                                   11382  1           *
                                   11383  1           * Removed 01/05/1995 by GG.MPD
                                   11384  1           *
                                   11385  1           *        IF    CPLFLG3.CPFSET,'VCALL SETPFXNS'  set prefix
 00046A 59F0 7A5A/4770_      00BF0 11386  1                      IF    (R15,EQ,4),BEGIN
 000472 47F0 C7D6            007D6 11403  2                        B     CVERROR
 000476                            11404  1                      END
 000476 59F0 7A72/4770_      00C08 11408  1                      IF    (R15,EQ,8),BEGIN
 00047E D601 6190 6190_00190 00190 11425  2                        IF    (SHDSPGCT,Z),BEGIN
 000488 58E0 7A76/0DEE       00C0C 11441  3                          VCALL NOMORPG
 00048E                            11445  2                        END
 00048E 4110 7B74/4100_      00D0A 11449  2                        TSEG  'Too many dsname items. Partial listing follows.'
 0004A0                            11467  1                      END
                                   11471  1           *
                                   11472  1           * If the user specified a volume, list the volume name first,
                                   11473  1           * unless it's a SHOW DSNAME INTERNAL command.
                                   11474  1           *
 0004A0 9104 6000/4710_00000       11475  1                      IF    (~SHDSINT),BEGIN
 0004A8 D503 7A7A 508C_00C10 0008C 11490  2                        IF    (FFHOSTL,EQ,6),BEGIN
 0004B2 4110 5090/5800_      00090 11508  3                          SETMSG FFHOST,L:FFHOSTL
 0004BA 58E0 7A7E/0DEE       00C14 11522  3                          VCALL UPCASE
 0004C0 41F0 B050/58E0_      00050 11526  3                          TSEG  (R1),(R0),CR
 0004CA                            11550  2                        END
 0004CA                            11554  1                      END
                                   11558  1
 0004CA D601 6190 6190_00190 00190 11559  1                      IF    (SHDSPGCT,Z),'B CVNEXT'
 0004D8 4110 6000            00000 11581  1                      LA    R1,SHDSARGS
 0004DC 58E0 7A82/0DEE       00C18 11582  1                      ACALL DSPDSN              No return
 0004E2 0000                       11586  1                      BOMB
 0004E4                            11588                       END
 0004E4 18D8/9808 D004_            11592                       PEND
 DROP   SHDSARGS-(4+36),R8
 DROP   *,R7
1DIR      (DIR2025) (12:41) (15MAR04) SHOW DSNAMES Command                                                                  Page   11
0Current Usings:  (FFINFO,R5) (SHDSARGS,R6) (CP,R11) (CV,R12)
0Loc    Object Code    Addr1 Addr2  Stmt Lv Lineno    Source Statement           (Hibal 5, Asmedit 3.3)  HLASM R4.0  2004/03/15 12.41
+___    ______ ____    _____ _____  ____ __ ______    ______ _________
0                                  11618              ¿þþþþþþþþþþþþþþþþþþþþþþþþþþþþþþþþþþþþþþþþþþþþþþþþþþþþþþþþþþþþþþþþþþþþþÜ
                                   11619              Ÿ                                                                     Ÿ
                                   11620              Ÿ  For Show Dsnames                                                   Ÿ
                                   11621              Ÿ                                                                     Ÿ
                                                      ¾þþþþþþþþþþþþþþþþþþþþþþþþþþþþþþþþþþþþþþþþþþþþþþþþþþþþþþþþþþþþþþþþþþþþþ»
00004F4 C4C1E3C5C4404040_          11622              DSONPRT  SCKW DATED,DSNMDTED,A
 00051C D3C9D2C540404040_          11637                       SCKW LIKE,ADLIKE,A
 000544 D6D5D3E840404040_          11652                       SCKW ONLY,ADONLY,A
 00056C C6D9D6D440404040_          11667                       SCKW FROM,DSNMFROM,(P,A)
                                   11682              *        SCKW EXCLUDE,DSNMEXCL,(P,A)
                                   11683              *        SCKW THROUGH,DSNMTHRU,(P,A)
                                   11684              *        SCKW THRU,DSNMTHRU,P
 000594 E3D6404040404040_          11685                       SCKW TO,DSNMTO,P
 0005BC E2D7C1C3C5404040_          11700                       SCKW SPACE,DSNMSPAC,A
 0005E4 E2C9E9C540404040_          11715                       SCKW SIZE,DSNMSPAC,A
 00060C E3D9C1C3D2E24040_          11730                       SCKW TRACKS,DSNMSPAC,A
 000634 E3E8D7C540404040_          11745                       SCKW TYPE,DSNMTYP,A
 00065C C9D5E3C5D9D5C1D3_          11760                       SCKW INTERNAL,DSNMINT,A
 000684 C1D3D34040404040_          11775                       SCKW ALL,DSNMALL
 0006AC E2C3D9C1E3C3C840_          11790                       SCKW SCRATCH,DSNMSCRT,A
 0006D4 D5C5E64040404040_          11805                       SCKW NEW,DSNMNEW
 0006FC D6D3C44040404040_          11820                       SCKW OLD,DSNMOLD
                                   11835
 000724 4040404040404040_          11836                       SCKW  ,V(COLLPSH),PUSH
 00074C 4040404040404040_          11851                       SCKW  ,V(FNAMPSH),PUSH
 000774 4040404040404040_          11866                       SCKW  ,V(ACCTPSHC),PUSH
 00079C 4040404040404040_          11881                       SCKW  ,V(NOTVALID)
                                   11896
 0007C4 50E0 D000/9008_      00000 11897              ADLIKE   PROC  ,
 USING  *,R7
 0007DE 5810 B08C/1B00_      0008C 11936                       SCANSTR ,                 SKIP=' ', STOP=' ,=;'
 000824 12FF/4770 7090             11965                       IF    (R15,Z),BEGIN
 00082A 1200/47D0 707A             11979  1                      IF    (R0,POS),BEGIN
 000830 1830                       11993  2                        LR    R3,R0
 000832 5930 7442/47D0_      00C20 11994  2                        CEIL  R3,L'SHDSLIKE
 00083E 5030 610C            0010C 12013  2                        ST    R3,SHDSLIKL
 000842 0630/1233/4740_            12014  2                        MOVE  R3,SHDSLIKE,@R1
 00084E 94FD 6000      00000       12052  2                        CLEAR SHDSONLY
 000852 9601 6000      00000       12059  2                        SET   SHDSLIK
 000856 1BFF                       12065  2                        CLEAR R15
 000858                            12069  1                      END
 000858 707E/47F0 7090 00858 0082E 12073  1                      ELSE  BEGIN
 00085C D207 B886 73DA_00886 00BB8 12084  2                        ERROR 'Missing dataset name.',,MISSDSN
 00086E                            12092  1                      END
 00086E                            12096                       END
 00086E 18D8/9808 D004_            12100                       PEND
 DROP   *,R7
                                   12120
 00087C 50E0 D000/9008_      00000 12121              DSNMFROM PROC  ,
 USING  *,R7
 000896 58E0 B08C/581E_      0008C 12160                       SCTOK (R1)
 0008A4 5900 7356/4770_      00BEC 12169                       IF    ((R0,EQ,1),AND,(@R1,EQ,'*')),BEGIN
 0008B4 4110 B62C/5800_      0062C 12201  1                      SETMSG CPAFNAME,L:CPAFNAMEL
1DIR      (DIR2025) (12:41) (15MAR04) SHOW DSNAMES Command                                                                  Page   12
0Current Usings:  (FFINFO,R5) (SHDSARGS,R6) (*,R7) (CP,R11) (CV,R12)
0Loc    Object Code    Addr1 Addr2  Stmt Lv Lineno    Source Statement           (Hibal 5, Asmedit 3.3)  HLASM R4.0  2004/03/15 12.41
+___    ______ ____    _____ _____  ____ __ ______    ______ _________
00008BC 58E0 738E/0DEE       00C24 12215  1                      VCALL RETFNAME
 0008C2                            12219                       END
 0008C2 1830                       12223                       LR    R3,R0
 0008C4 5930 7392/47D0_      00C28 12224                       CEIL  R3,L'SHDSLOWB
 0008D0 5030 6088            00088 12243                       ST    R3,SHDSLOWL
 0008D4 0630/1233/4740_            12244                       MOVE  R3,SHDSLOWB,@R1
 0008E0 18D8/9808 D004_            12282                       PEND
 DROP   *,R7
                                   12302
 0008EE 50E0 D000/9008_      00000 12303              DSNMTO   PROC  ,
 USING  *,R7
 000908 58E0 B08C/581E_      0008C 12342                       SCTOK (R1)
 000916 5900 72E4/4770_      00BEC 12351                       IF    ((R0,EQ,1),AND,(@R1,EQ,'*')),BEGIN
 000926 4110 B62C/5800_      0062C 12383  1                      SETMSG CPAFNAME,L:CPAFNAMEL
 00092E 58E0 731C/0DEE       00C24 12397  1                      VCALL RETFNAME
 000934                            12401                       END
 000934 1830                       12405                       LR    R3,R0
 000936 5930 7324/47D0_      00C2C 12406                       CEIL  R3,L'SHDSUPB
 000942 5030 6004            00004 12425                       ST    R3,SHDSUPL
 000946 0630/1233/4740_            12426                       MOVE  R3,SHDSUPB,@R1
 000952 18D8/9808 D004_            12464                       PEND
 DROP   *,R7
                                   12484
 000960 50E0 D000/9008_      00000 12485              ADONLY   PROC  ,
 USING  *,R7
 00097A 5810 B08C/1B00_      0008C 12524                       SCANSTR ,                 SKIP=' ', STOP=' ,=;'
 0009C0 12FF/4770 7090             12553                       IF    (R15,Z),BEGIN
 0009C6 1200/47D0 707A             12567  1                      IF    (R0,POS),BEGIN
 0009CC 1830                       12581  2                        LR    R3,R0
 0009CE 5930 72A6/47D0_      00C20 12582  2                        CEIL  R3,L'SHDSLIKE
 0009DA 5030 610C            0010C 12601  2                        ST    R3,SHDSLIKL
 0009DE 0630/1233/4740_            12602  2                        MOVE  R3,SHDSLIKE,@R1
 0009EA 9602 6000      00000       12640  2                        SET   SHDSONLY
 0009EE 94FE 6000      00000       12646  2                        CLEAR SHDSLIK
 0009F2 1BFF                       12653  2                        CLEAR R15
 0009F4                            12657  1                      END
 0009F4 707E/47F0 7090 009F4 009CA 12661  1                      ELSE  BEGIN
 0009F8 D207 B886 723E_00886 00BB8 12672  2                        ERROR 'Missing dataset name.',,MISSDSN
 000A0A                            12680  1                      END
 000A0A                            12684                       END
 000A0A 18D8/9808 D004_            12688                       PEND
 DROP   *,R7
                                   12708
 000A18 50E0 D000/9008_      00000 12709              DSNMSPAC PROC
 USING  *,R7
 000A32 9640 6000      00000       12748                       SET   SHDSTRK
 000A36 1BFF                       12754                       CLEAR R15
 000A38 18D8/9808 D004_            12758                       PEND
 DROP   *,R7
                                   12778
 000A46 50E0 D000/9008_      00000 12779              DSNMALL  PROC
 USING  *,R7
 000A60 9670 6000      00000       12818                       SET   SHDSDAT+SHDSTYP+SHDSTRK
 000A64 1BFF                       12831                       CLEAR R15
1DIR      (DIR2025) (12:41) (15MAR04) SHOW DSNAMES Command                                                                  Page   13
0Current Usings:  (FFINFO,R5) (SHDSARGS,R6) (CP,R11) (CV,R12)
0Loc    Object Code    Addr1 Addr2  Stmt Lv Lineno    Source Statement           (Hibal 5, Asmedit 3.3)  HLASM R4.0  2004/03/15 12.41
+___    ______ ____    _____ _____  ____ __ ______    ______ _________
0000A66 18D8/9808 D004_            12835                       PEND
 DROP   *,R7
                                   12855
 000A74 50E0 D000/9008_      00000 12856              DSNMDTED PROC
 USING  *,R7
 000A8E 9610 6000      00000       12895                       SET   SHDSDAT
 000A92 1BFF                       12901                       CLEAR R15
 000A94 18D8/9808 D004_            12905                       PEND
 DROP   *,R7
                                   12925
 000AA2 50E0 D000/9008_      00000 12926              DSNMTYP  PROC
 USING  *,R7
 000ABC 9620 6000      00000       12965                       SET   SHDSTYP
 000AC0 1BFF                       12971                       CLEAR R15
 000AC2 18D8/9808 D004_            12975                       PEND
 DROP   *,R7
                                   12995
 000AD0 50E0 D000/9008_      00000 12996              DSNMNEW  PROC
 USING  *,R7
 000AEA 9680 6001      00001       13035                       SET   SHDSNEW
 000AEE 1BFF                       13041                       CLEAR R15
 000AF0 18D8/9808 D004_            13045                       PEND
 DROP   *,R7
                                   13065
 000AFE 50E0 D000/9008_      00000 13066              DSNMOLD  PROC
 USING  *,R7
 000B18 947F 6001      00001       13105                       CLEAR SHDSNEW
 000B1C 1BFF                       13112                       CLEAR R15
 000B1E 18D8/9808 D004_            13116                       PEND
 DROP   *,R7
                                   13136
 000B2C 50E0 D000/9008_      00000 13137              DSNMINT  PROC
 USING  *,R7
 000B46 9604 6000      00000       13176                       SET   SHDSINT
 000B4A 1BFF                       13182                       CLEAR R15
 000B4C 18D8/9808 D004_            13186                       PEND
 DROP   *,R7
                                   13206
 000B5A 50E0 D000/9008_      00000 13207              DSNMSCRT PROC
 USING  *,R7
 000B74 9608 6000      00000       13246                       SET   SHDSSCR
 000B78 1BFF                       13252                       CLEAR R15
 000B7A 18D8/9808 D004_            13256                       PEND
 DROP   *,R7
                                   13276
 DROP   SHDSARGS,R6                13277                       DROP  R6
 DROP   FFINFO,R5                  13284                       DROP  R5
                                   13291
                                   13292                       QLTORG
1DIR      (DIR2025) (12:41) (15MAR04) Get next line for display                                                             Page   14
0Current Usings:  (CP,R11) (CV,R12)
0Loc    Object Code    Addr1 Addr2  Stmt Lv Lineno    Source Statement           (Hibal 5, Asmedit 3.3)  HLASM R4.0  2004/03/15 12.41
+___    ______ ____    _____ _____  ____ __ ______    ______ _________
0                                  13349              *
                                   13350              *    This routine is called by the DSPDSN subroutine to get the
                                   13351              *    next line for display.
                                   13352              *
                                   13353              *    On entry:
                                   13354              *      R1  -  Points to the SHOW DSNAMES work area which
                                   13355              *             contains a work area used by this routine.
                                   13356              *
                                   13357              *      R2  -  Points to an area of length L'DSNINFO where
                                   13358              *             the dataset information line should be stored,
                                   13359              *             padded out to its full length with blanks.
                                   13360              *
                                   13361              *      PAR -  Points to the current page being displayed.
                                   13362              *
                                   13363              *    On output:
                                   13364              *      R0,R1 - describe the length and location of the retrieved
                                   13365              *              line
                                   13366              *      R15=0   means a line was retrieved
                                   13367              *         =NZ  means EOF (no more lines in the display).
                                   13368              *
 000D96 50E0 D000/9008_      00000 13369              NEXTDSLN PROC  ,
 USING  *,R7
 000DB0 1861                       13408                       LR    R6,R1
 USING  SHDSARGS,R6                13409                       USING SHDSARGS,R6
                                   13418
 000DB2 5810 61F8            001F8 13419                       L     R1,SHDSCPG          Make sure we have the page in core
 000DB6 8910 0002            00002 13420                       SLL   R1,2
 000DBA 5801 6194            00194 13421                       L     R0,SHDSPAGS(R1)
 000DBE 58E0 70E0/0DEE       00E90 13422                       PGET  PAR,(R0)
                                   13430
 000DC4 4830 9000            00000 13431                       LH    R3,@PAR
 000DC8 5930 61FC/4730_      001FC 13432                       IF    (SHDSCOFF,GE,R3),BEGIN
 000DD0 5810 61F8            001F8 13449  1                      L     R1,SHDSCPG
 000DD4 4110 1001            00001 13450  1                      LA    R1,1(,R1)
 000DD8 4910 6190/47B0_      00190 13451  1                      IF    (R1,LT,SHDSPGCT),BEGIN
 000DE0 5010 61F8            001F8 13468  2                        ST    R1,SHDSCPG
 000DE4 D203 61FC 70E4 001FC 00E94 13469  2                        MVC   SHDSCOFF,=F'2'
 000DEA 58E0 70E8/0DEE       00E98 13470  2                        PFREE PAR,EMPTY
 000DF0 5810 61F8            001F8 13476  2                        L     R1,SHDSCPG          Get the new page into core
 000DF4 8910 0002            00002 13477  2                        SLL   R1,2
 000DF8 5801 6194            00194 13478  2                        L     R0,SHDSPAGS(R1)
 000DFC 58E0 70E0/0DEE       00E90 13479  2                        PGET  PAR,(R0)
 000E02 4830 9000            00000 13487  2                        LH    R3,@PAR
 000E06 5930 61FC/4730_      001FC 13488  2                        FAIL  (R3,LE,SHDSCOFF),DSNERR1,'NEXTDSLN error.'
 000E26                            13517  1                      END
 000E26 707A/47F0 7082 00E26 00DDE 13521  1                      ELSE  BEGIN
 000E2A 41F0 0004            00004 13532  2                        LA    R15,4
 000E2E 47F0 70CE            00E7E 13533  2                        B     NXTDSDON
 000E32                            13534  1                      END
 000E32                            13538                       END
                                   13542
 000E32 5840 61FC            001FC 13543                       L     R4,SHDSCOFF
 000E36 4114 9000            00000 13544                       LA    R1,0(R4,PAR)
 000E3A 1F00/4300 1000             13545                       LC    R0,@R1
1DIR      (DIR2025) (12:41) (15MAR04) Get next line for display                                                             Page   15
0Current Usings:  (SHDSARGS,R6) (*,R7) (CP,R11) (CV,R12)
0Loc    Object Code    Addr1 Addr2  Stmt Lv Lineno    Source Statement           (Hibal 5, Asmedit 3.3)  HLASM R4.0  2004/03/15 12.41
+___    ______ ____    _____ _____  ____ __ ______    ______ _________
0000E40 5E10 70EC            00E9C 13550                       INCR  R1
 000E44 1200/4780 70A8             13553                       IF    (R0,NZ),BEGIN
 000E4A D2EA 2000 C4D8 00000 004D8 13567  1                      MVC   0(L'DSNINFO,R2),CVBLANKS
 000E50 1830                       13568  1                      LR    R3,R0
 000E52 0630/4430 70F0_            13569  1                      DEX   R3,'MVC 0(0,R2),0(R1)'
 000E58                            13588                       END
 000E58 1A40                       13592                       AR    R4,R0
 000E5A 5E40 70EC            00E9C 13593                       INCR  R4
 000E5E 5040 61FC            001FC 13596                       ST    R4,SHDSCOFF
 000E62 1200/4770 70C2             13597                       IF    (R0,Z),BEGIN
 000E68 58E0 70E8/0DEE       00E98 13611  1                      PFREE PAR,EMPTY
 000E6E 41F0 0004            00004 13617  1                      LA    R15,4
 000E72                            13618                       END
 000E72 70C6/47F0 70CE 00E72 00E66 13622                       ELSE  BEGIN
 000E76 1812                       13633  1                      LR    R1,R2
 000E78 4100 00EB            000EB 13634  1                      LA    R0,L'DSNINFO
 000E7C 1BFF                       13635  1                      CLEAR R15
 000E7E                            13639                       END
                                   13643
 000E7E                            13644              NXTDSDON LABEL
 000E7E 9001 8004            00004 13646                       PRETURN (R0,R1)
 000E82 18D8/9808 D004_            13648                       PEND  ,
 DROP   *,R7
 DROP   SHDSARGS,R6                13668                       DROP  R6
                                   13675                       QLTORG ,
1DIR      (DIR2025) (12:41) (15MAR04) Release remaining display pages                                                       Page   16
0Current Usings:  (CP,R11) (CV,R12)
0Loc    Object Code    Addr1 Addr2  Stmt Lv Lineno    Source Statement           (Hibal 5, Asmedit 3.3)  HLASM R4.0  2004/03/15 12.41
+___    ______ ____    _____ _____  ____ __ ______    ______ _________
0                                  13693              *
                                   13694              *    This subroutine releases all pages containing the
                                   13695              *    information used by SHOW DSNAMES.
                                   13696              *
                                   13697              *    On entry:
                                   13698              *      R1  -  Points to the SHOW DSNAMES work area.
                                   13699              *
                                   13700              *    The current page (in PAR) and the remainder of the
                                   13701              *    pages not yet accessed in the array are released.
                                   13702              *
 000EA6 50E0 D000/9008_      00000 13703              RLSDSPGS PROC  ,
 USING  *,R7
 000EC0 1861                       13742                       LR    R6,R1
 USING  SHDSARGS,R6                13743                       USING SHDSARGS,R6
 000EC2 1299/4780 700E             13752                       IF    (PAR,NZ),BEGIN
 000EC8 58E0 7170/0DEE       01030 13766  1                      PFREE PAR,EMPTY
 000ECE                            13772                       END
 000ECE 5830 61F8            001F8 13776                       L     R3,SHDSCPG
 000ED2 5E30 7174            01034 13777                       INCR  R3
 000ED6 4930 6190/47B0_      00190 13780                       WHILE (R3,LT,SHDSPGCT),BEGIN
 000EDE 1813                       13799  1                      LR    R1,R3
 000EE0 8910 0002            00002 13800  1                      SLL   R1,2
 000EE4 5821 6194            00194 13801  1                      L     R2,SHDSPAGS(R1)
 000EE8 1802/58E0 7178_            13802  1                      PGET  PAR,(R2)
 000EF0 58E0 7170/0DEE       01030 13811  1                      PFREE PAR,EMPTY
 000EF6 4130 3001            00001 13817  1                      LA    R3,1(,R3)
 000EFA 47F0 7016            00ED6 13818                       END
 DROP   SHDSARGS,R6                13823                       DROP  R6
 000EFE 18D8/9808 D004_            13830                       PEND  ,
 DROP   *,R7
1DIR      (DIR2025) (12:41) (15MAR04) Handle scratch option of SHOW DSNAMES                                                 Page   17
0Current Usings:  (CP,R11) (CV,R12)
0Loc    Object Code    Addr1 Addr2  Stmt Lv Lineno    Source Statement           (Hibal 5, Asmedit 3.3)  HLASM R4.0  2004/03/15 12.41
+___    ______ ____    _____ _____  ____ __ ______    ______ _________
0                                  13852              *
                                   13853              *   Prompt the user to see if it's okay to scratch the indicated
                                   13854              *   member and scratch it if so.
                                   13855              *
                                   13856              *   On entry:
                                   13857              *      R1 - Points to the DSNINFO work area
                                   13858              *      R2 - Points to the SHOW DSNAMES work area
                                   13859              *
                                   13860              *   On output:
                                   13861              *      R15=0   If user wanted file scratched, file scratched,
                                   13862              *              else file not scratched.
                                   13863              *      R15>0   Some error occurred
                                   13864              *      R15<0   User pressed attention
                                   13865              *
 000F0C 50E0 D000/9008_      00000 13866              SCRDSN   PROC  FFINFO
 USING  *,R7
 USING  FFINFO-(4+36),R8
 000F26 1862                       13916                       LR    R6,R2
 USING  SHDSARGS,R6                13917                       USING SHDSARGS,R6
 000F28 1841                       13926                       LR    R4,R1
 USING  DSNINFO,R4                 13927                       WITH  (DSNINFO,R4),BEGIN
 000F2A 4110 4002            00002 13941  1                      LA    R1,DSNDSN
 000F2E 4100 002C            0002C 13942  1                      LA    R0,L'DSNDSN
 000F32 58E0 7116/0DEE       0103C 13943  1                      VCALL RTRIM
 DROP   DSNINFO,R4                 13947                       END
 000F38 1830                       13955                       LR    R3,R0
 000F3A 1841                       13956                       LR    R4,R1               Save filename information
 000F3C 4110 7130/4100_      01056 13957                       SETMSG 'Scratch'
 000F44 58E0 711A/0DEE       01040 13961                       VCALL YESRTN
 000F4A 4740 70E0            01006 13965                       BM    SCRDSATN
 000F4E 4770 70D8            00FFE 13966                       BNZ   SCRDSABT            OK if we want to skip it
                                   13967
 000F52 9034 D000/41D0_      00000 13968                       XPUSH R3,R4
 000F5A 4120 8028            00000 13971                       LA    R2,FFINFO           Save the current
 000F5E 4130 03A0            003A0 13972                       LA    R3,L'FFINFO             FFINFO data
 000F62 5840 BE54            00E54 13973                       L     R4,CPFINFOP
 000F66 1853                       13974                       LR    R5,R3
 000F68 0E24                       13975                       MVCL  R2,R4
 000F6A 5850 BE54            00E54 13976                       L     R5,CPFINFOP         Get the FFINFO
 USING  FFINFO,R5                  13977                       WITH  (FFINFO,R5),BEGIN
 000F6E D703 5110 5110 00110 00110 13991  1                      CLEAR FFOPTSL             No options
 000F74 D703 5214 5214 00214 00214 13998  1                      CLEAR FFRNAMEL
 000F7A 4BD0 712E/9823_      01054 14005  1                      XPOP  R2,R3               Recover file name
 000F82 5020 5214            00214 14008  1                      ST    R2,FFRNAMEL
 000F86 5020 5008            00008 14009  1                      ST    R2,FFNAMEL
 000F8A 0620/1222/4740_            14010  1                      MOVE  R2,FFRNAME,@R3
 000F96 5820 5008            00008 14048  1                      L     R2,FFNAMEL
 000F9A 0620/1222/4740_            14049  1                      MOVE  R2,FFNAME,FFRNAME
 000FA6 58E0 711E/0DEE       01044 14087  1                      VCALL WGSCRTCH            Scratch the file
 000FAC 4780 709E            00FC4 14091  1                      IF    NZ,BEGIN
 000FB0 D507 7102 B886_01028 00886 14102  2                        IF    (CPERRID,EQ,'NOTYOURS'),BEGIN
 000FBA 94F7 6000      00000       14119  3                          CLEAR SHDSSCR             Don't scratch any more
 000FBE                            14126  2                        END
 000FBE D707 B886 B886 00886 00886 14130  2                        CLEAR CPERRID
1DIR      (DIR2025) (12:41) (15MAR04) Handle scratch option of SHOW DSNAMES                                                 Page   18
0Current Usings:  (FFINFO,R5) (SHDSARGS,R6) (*,R7) (FFINFO-(4+36),R8) (CP,R11) (CV,R12)
0Loc    Object Code    Addr1 Addr2  Stmt Lv Lineno    Source Statement           (Hibal 5, Asmedit 3.3)  HLASM R4.0  2004/03/15 12.41
+___    ______ ____    _____ _____  ____ __ ______    ______ _________
0000FC4                            14137  1                      END
 000FC4 D603 B05C B05C_0005C 0005C 14141  1                      TCCR
 000FE4 58E0 7126/0DEE       0104C 14203  1                      ACALL CTWRITE             Write out the message
 DROP   FFINFO,R5                  14207                       END
                                   14215
 000FEA 4140 8028            00000 14216                       LA    R4,FFINFO           Restore the original
 000FEE 4130 03A0            003A0 14217                       LA    R3,L'FFINFO             FFINFO data
 000FF2 5820 BE54            00E54 14218                       L     R2,CPFINFOP
 000FF6 1853                       14219                       LR    R5,R3
 000FF8 0E24                       14220                       MVCL  R2,R4
 000FFA 47F0 70E8            0100E 14221                       B     SCRDSOK
                                   14222
 000FFE                            14223              SCRDSABT LABEL
 000FFE 41F0 0004            00004 14225                       LA    R15,4
 001002 47F0 70EE            01014 14226                       B     SCRDSDON
                                   14227
 001006                            14228              SCRDSATN LABEL
 001006 58F0 712A            01050 14230                       L     R15,=F'-4'
 00100A 47F0 70EE            01014 14231                       B     SCRDSDON
                                   14232
 00100E 1BFF                       14233              SCRDSOK  CLEAR R15
 001010 47F0 70EE            01014 14238                       B     SCRDSDON
                                   14239
 001014                            14240              SCRDSDON LABEL
 001014 18D8/9808 D004_            14242                       PEND  ,
 DROP   FFINFO-(4+36),R8
 DROP   *,R7
 DROP   SHDSARGS,R6                14267                       DROP  R6
1DIR      (DIR2025) (12:41) (15MAR04) Handle scratch option of SHOW DSNAMES                                                 Page   19
0Current Usings:  (CP,R11) (CV,R12)
0Loc    Object Code    Addr1 Addr2  Stmt Lv Lineno    Source Statement           (Hibal 5, Asmedit 3.3)  HLASM R4.0  2004/03/15 12.41
+___    ______ ____    _____ _____  ____ __ ______    ______ _________
0                                  14275                       QLTORG
1DIR      (DIR2025) (12:41) (15MAR04) Build SHOW DSN INTERNAL output line                                                   Page   20
0Current Usings:  (CP,R11) (CV,R12)
0Loc    Object Code    Addr1 Addr2  Stmt Lv Lineno    Source Statement           (Hibal 5, Asmedit 3.3)  HLASM R4.0  2004/03/15 12.41
+___    ______ ____    _____ _____  ____ __ ______    ______ _________
0                                  14300              *
                                   14301              * This routine formats a line in INTERNAL format for SHOW DSNAMES.
                                   14302              *
                                   14303              * Input:
                                   14304              *
                                   14305              *    R0, R1 - Describe the length and location of the output buffer
                                   14306              *    R2     - Points to the DSNINFO record containing the information
                                   14307              *             for the dataset in question.
                                   14308              *
                                   14309              * Output:
                                   14310              *    R0,R1 -  Contain the length and location of the output line.
                                   14311              *
 000000                00000 0003C 14312              DSNINWA  RECORD BEGIN
                                   14320  1           DSNSG      SEGCB  ,
 000000 00                         14321  1 01-SEGCB +$$$SEGCB218   DS 0F
 DSNSGCOD.DSNSGSEG 01 EQ
 DSNSGCOD.DSNSGWR  02 EQ
 DSNSGCOD.DSNSGCLR 03 EQ
 DSNSGCOD.DSNSGSPP 04 EQ
 DSNSGCOD.DSNSGOVF 05 EQ
 DSNSGCOD.DSNSGCR  06 EQ
 DSNSGCOD.DSNSGMAR 07 EQ
 000001 00                         14396  1 01-SEGCB +           DC    X'00'               Reserved
 000002 0000                              1          +
 000004 00000000                   14397  1 01-SEGCB +DSNSGMAXF   DC   A(0)                Maximum buffer length
 000008 00000000                   14398  1 01-SEGCB +DSNSGMRKF   DC   A(0)                Length at last mark
 00000C 00000000                   14399  1 01-SEGCB +DSNSGLENF   DC   A(0)                Current length
 000010 00000000                   14400  1 01-SEGCB +DSNSGINDF   DC   A(0)                Overflow/indent count
 000014 00000000                   14401  1 01-SEGCB +DSNSGERR   DC    A(0)                Address of error recovery routine
 000018 0000000000000000           14402  1 01-SEGCB +           DC    2F'0'               Reserved
 000020 00000000                   14403  1 01-SEGCB +DSNSGLOC   DC    A(0)                Location of buffer
 000024 00000000                   14404  1 01-SEGCB +DSNSGRTN   DC    A(0)                Processing routine
 000028 0000000000000000           14405  1 01-SEGCB +           DC    4F'0'               Reserved
 000038 00000000                   14406  1 01-SEGCB +DSNSGUSR   DC    A(0)                USER field
                                   14407  1 01-SEGCB +DSNSG      EQU   $$$SEGCB218,*-$$$SEGCB218,C'X'
 00003C                0003C 0003C 14408                       END
                                   14417
 00106A 50E0 D000/9008_      00000 14418              DSPDSNIN XPROC DSNINWA
 USING  *,R7
 USING  DSNINWA-(4+36),R8
 001084 1842                       14469                       LR    R4,R2
 001086 41F0 8028/58E0_      00000 14470                       SEGINIT (R1),(R0),DSNSG
 USING  DSNINFO,R4                 14493                       WITH  (DSNINFO,R4),BEGIN
 001090 4110 402E/4100_      0002E 14507  1                      SEG   DSNVOL,L'DSNVOL,.DSNSG,B
 0010A2 4110 4002/4100_      00002 14536  1                      SEG   DSNDSN,L'DSNDSN,.DSNSG,B
 0010B4 4110 4052/4100_      00052 14565  1                      DTB   DSNTRKUS,L'DSNTRKUS-3
 0010C2 183F                       14586  1                      LR    R3,R15
 0010C4 4110 4058/4100_      00058 14587  1                      DTB   DSNTRKUS+L'DSNTRKUS-2,2
 0010D2 12FF/4780 7078             14608  1                      IF    (R15,NZ),BEGIN
 0010D8 5E30 72E0            01364 14622  2                        INCR  R3
 0010DC 181D/41D0 D008             14625  2                        XPUSH ,,8,PTR=R1
 0010E2 4100 0005            00005 14628  2                        LA    R0,5
 0010E6 18F3                       14629  2                        LR    R15,R3
 0010E8 58E0 72E4/0DEE       01368 14630  2                        VCALL BTDZEROS
1DIR      (DIR2025) (12:41) (15MAR04) Build SHOW DSN INTERNAL output line                                                   Page   21
0Current Usings:  (DSNINFO,R4) (*,R7) (DSNINWA-(4+36),R8) (CP,R11) (CV,R12)
0Loc    Object Code    Addr1 Addr2  Stmt Lv Lineno    Source Statement           (Hibal 5, Asmedit 3.3)  HLASM R4.0  2004/03/15 12.41
+___    ______ ____    _____ _____  ____ __ ______    ______ _________
00010EE 41F0 8028/58E0_      00000 14634  2                        SEG   (R1),(R0),.DSNSG
 0010F8 4BD0 72EC            01370 14657  2                        XPOP  ,,8
 0010FC                            14659  1                      END
 0010FC 707C/47F0 708E 010FC 010D6 14663  1                      ELSE  BEGIN
 001100 4110 4052/4100_      00052 14674  2                        SEG   DSNTRKUS,L'DSNTRKUS-3,.DSNSG
 001112                            14703  1                      END
 001112 4110 4051/4100_      00051 14707  1                      SEG   DSNERRCD,L'DSNERRCD,.DSNSG
 001124 4110 405B/4100_      0005B 14736  1                      SEG   DSNTRKAL,L'DSNTRKAL,.DSNSG,B
 001136 4110 4061/4100_      00061 14765  1                      SEG   DSNXTNTS,L'DSNXTNTS,.DSNSG,B
 001148 4110 4065/4100_      00065 14794  1                      SEG   DSNDSORG,L'DSNDSORG,.DSNSG,B
 00115A 4110 4069/4100_      00069 14823  1                      SEG   DSNRECFM,L'DSNRECFM,.DSNSG,B
 00116C 4110 406F/4100_      0006F 14852  1                      SEG   DSNLRECL,L'DSNLRECL,.DSNSG,B
 00117E 4110 4075/4100_      00075 14881  1                      SEG   DSNBKSIZ,L'DSNBKSIZ,.DSNSG,B
 001190 4110 407B/4100_      0007B 14910  1                      SEG   DSNKEYLN,L'DSNKEYLN,.DSNSG,B
 0011A2 9540 407F/4780_0007F       14939  1                      IF    (DSNCRDAT,NE,' '),BEGIN
 0011AA 4110 4084/4100_      00084 14956  2                        SEG   DSNCRDAT+5,5,.DSNSG
 0011BC 4110 72EE/4100_      01372 14985  2                        SEG   '/',,.DSNSG
 0011CE 4110 4081/4100_      00081 15002  2                        SEG   DSNCRDAT+2,2,.DSNSG,B
 0011E0                            15031  1                      END
 0011E0 7160/47F0 7172 011E0 011A8 15035  1                      ELSE  BEGIN
 0011E4 4110 C4D8/4100_      004D8 15046  2                        SEG   CVBLANKS,8,.DSNSG,B
 0011F6                            15075  1                      END
 0011F6 9540 408A/4780_0008A       15079  1                      IF    (DSNLADAT,NE,' '),BEGIN
 0011FE 4110 408F/4100_      0008F 15096  2                        SEG   DSNLADAT+5,5,.DSNSG
 001210 4110 72EE/4100_      01372 15125  2                        SEG   '/',,.DSNSG
 001222 4110 408C/4100_      0008C 15142  2                        SEG   DSNLADAT+2,2,.DSNSG,B
 001234                            15171  1                      END
 001234 71B4/47F0 71C6 01234 011FC 15175  1                      ELSE  BEGIN
 001238 4110 C4D8/4100_      004D8 15186  2                        SEG   CVBLANKS,8,.DSNSG,B
 00124A                            15215  1                      END
 00124A 4110 4095/4100_      00095 15219  1                      SEG   DSNCHGED,L'DSNCHGED,.DSNSG,B
 00125C 4110 403E/4100_      0003E 15248  1                      SEG   DSNUCBTP,L'DSNUCBTP,.DSNSG,B
 00126E 4110 4047/4100_      00047 15277  1                      SEG   DSNDVDES,L'DSNDVDES,.DSNSG,B
 001280 4110 4097/4100_      00097 15306  1                      SEG   DSNKBYTU,L'DSNKBYTU,.DSNSG,B
 001292 4110 40A0/4100_      000A0 15335  1                      SEG   DSNKBYTA,L'DSNKBYTA,.DSNSG,B
 0012A4 4110 40B4/4100_      000B4 15364  1                      SEG   DSNSTORC,L'DSNSTORC,.DSNSG,B
 0012B6 4110 40BC/4100_      000BC 15393  1                      SEG   DSNMGMTC,L'DSNMGMTC,.DSNSG,B
 0012C8 4110 40C4/4100_      000C4 15422  1                      SEG   DSNDATAC,L'DSNDATAC,.DSNSG,B
                                   15451  1           *
                                   15452  1           * Add new format creation and last access dates at
                                   15453  1           * end
                                   15454  1           *
 0012DA 9540 407F/4780_0007F       15455  1                      IF    (DSNCRDAT,NE,' '),BEGIN
 0012E2 4110 407F/4100_      0007F 15472  2                        SEG   DSNCRDAT,L'DSNCRDAT,.DSNSG,B
 0012F4                            15501  1                      END
 0012F4 7274/47F0 7286 012F4 012E0 15505  1                      ELSE  BEGIN
 0012F8 4110 C4D8/4100_      004D8 15516  2                        SEG   CVBLANKS,8,.DSNSG,B
 00130A                            15545  1                      END
 00130A 9540 408A/4780_0008A       15549  1                      IF    (DSNLADAT,NE,' '),BEGIN
 001312 4110 408A/4100_      0008A 15566  2                        SEG   DSNLADAT,L'DSNLADAT,.DSNSG,B
 001324                            15595  1                      END
 001324 72A4/47F0 72B6 01324 01310 15599  1                      ELSE  BEGIN
 001328 4110 C4D8/4100_      004D8 15610  2                        SEG   CVBLANKS,8,.DSNSG,B
 00133A                            15639  1                      END
1DIR      (DIR2025) (12:41) (15MAR04) Build SHOW DSN INTERNAL output line                                                   Page   22
0Current Usings:  (*,R7) (DSNINWA-(4+36),R8) (CP,R11) (CV,R12)
0Loc    Object Code    Addr1 Addr2  Stmt Lv Lineno    Source Statement           (Hibal 5, Asmedit 3.3)  HLASM R4.0  2004/03/15 12.41
+___    ______ ____    _____ _____  ____ __ ______    ______ _________
0DROP   DSNINFO,R4                 15643                       END
 00133A 5810 8048/5800_      00020 15651                       SETMSG L:DSNSGLOC,L:DSNSGLENF
 001342 9001 8004            00004 15663                       PRETURN (R0,R1)
 001346 18D8/9808 D004_            15665                       PEND  ,
 DROP   DSNINWA-(4+36),R8
 DROP   *,R7
1DIR      (DIR2025) (12:41) (15MAR04) Build SHOW DSN INTERNAL output line                                                   Page   23
0Current Usings:  (CP,R11) (CV,R12)
0Loc    Object Code    Addr1 Addr2  Stmt Lv Lineno    Source Statement           (Hibal 5, Asmedit 3.3)  HLASM R4.0  2004/03/15 12.41
+___    ______ ____    _____ _____  ____ __ ______    ______ _________
0                                  15691                       QLTORG
1DIR      (DIR2025) (12:41) (15MAR04) Build SHOW DSN INTERNAL output line (NEW format)                                      Page   24
0Current Usings:  (CP,R11) (CV,R12)
0Loc    Object Code    Addr1 Addr2  Stmt Lv Lineno    Source Statement           (Hibal 5, Asmedit 3.3)  HLASM R4.0  2004/03/15 12.41
+___    ______ ____    _____ _____  ____ __ ______    ______ _________
0                                  15712              *
                                   15713              * This routine formats a line in INTERNAL format for SHOW DSNAMES.
                                   15714              *
                                   15715              * Input:
                                   15716              *
                                   15717              *    R0, R1 - Describe the length and location of the output buffer
                                   15718              *    R2     - Points to the DSNINFO record containing the information
                                   15719              *             for the dataset in question.
                                   15720              *
                                   15721              * Output:
                                   15722              *    R0,R1 -  Contain the length and location of the output line.
                                   15723              *
 001374 50E0 D000/9008_      00000 15724              DSPDSINN XPROC DSNINWA
 USING  *,R7
 USING  DSNINWA-(4+36),R8
 00138E 1842                       15775                       LR    R4,R2
 001390 41F0 8028/58E0_      00000 15776                       SEGINIT (R1),(R0),DSNSG
 USING  DSNINFO,R4                 15799                       WITH  (DSNINFO,R4),BEGIN
 00139A 4110 402E/4100_      0002E 15813  1                      SEG   DSNVOL,L'DSNVOL,.DSNSG,B
 0013AC 4110 4002/4100_      00002 15842  1                      SEG   DSNDSN,L'DSNDSN,.DSNSG,B
 0013BE 4110 4052/4100_      00052 15871  1                      DTB   DSNTRKUS,L'DSNTRKUS-3
 0013CC 183F                       15892  1                      LR    R3,R15
 0013CE 4110 4058/4100_      00058 15893  1                      DTB   DSNTRKUS+L'DSNTRKUS-2,2
 0013DC 12FF/4780 7078             15914  1                      IF    (R15,NZ),BEGIN
 0013E2 5E30 7236            015C4 15928  2                        INCR  R3
 0013E6 181D/41D0 D008             15931  2                        XPUSH ,,8,PTR=R1
 0013EC 4100 0005            00005 15934  2                        LA    R0,5
 0013F0 18F3                       15935  2                        LR    R15,R3
 0013F2 58E0 723A/0DEE       015C8 15936  2                        VCALL BTDZEROS
 0013F8 41F0 8028/58E0_      00000 15940  2                        SEG   (R1),(R0),.DSNSG
 001402 4BD0 7242            015D0 15963  2                        XPOP  ,,8
 001406                            15965  1                      END
 001406 707C/47F0 708E 01406 013E0 15969  1                      ELSE  BEGIN
 00140A 4110 4052/4100_      00052 15980  2                        SEG   DSNTRKUS,L'DSNTRKUS-3,.DSNSG
 00141C                            16009  1                      END
 00141C 4110 4051/4100_      00051 16013  1                      SEG   DSNERRCD,L'DSNERRCD,.DSNSG
 00142E 4110 405B/4100_      0005B 16042  1                      SEG   DSNTRKAL,L'DSNTRKAL,.DSNSG,B
 001440 4110 4061/4100_      00061 16071  1                      SEG   DSNXTNTS,L'DSNXTNTS,.DSNSG,B
 001452 4110 4065/4100_      00065 16100  1                      SEG   DSNDSORG,L'DSNDSORG,.DSNSG,B
 001464 4110 4069/4100_      00069 16129  1                      SEG   DSNRECFM,L'DSNRECFM,.DSNSG,B
 001476 4110 406F/4100_      0006F 16158  1                      SEG   DSNLRECL,L'DSNLRECL,.DSNSG,B
 001488 4110 4075/4100_      00075 16187  1                      SEG   DSNBKSIZ,L'DSNBKSIZ,.DSNSG,B
 00149A 4110 407B/4100_      0007B 16216  1                      SEG   DSNKEYLN,L'DSNKEYLN,.DSNSG,B
 0014AC 9540 407F/4780_0007F       16245  1                      IF    (DSNCRDAT,NE,' '),BEGIN
 0014B4 4110 407F/4100_      0007F 16262  2                        SEG   DSNCRDAT,L'DSNCRDAT,.DSNSG,B
 0014C6                            16291  1                      END
 0014C6 713C/47F0 714E 014C6 014B2 16295  1                      ELSE  BEGIN
 0014CA 4110 C4D8/4100_      004D8 16306  2                        SEG   CVBLANKS,8,.DSNSG,B
 0014DC                            16335  1                      END
 0014DC 9540 408A/4780_0008A       16339  1                      IF    (DSNLADAT,NE,' '),BEGIN
 0014E4 4110 408A/4100_      0008A 16356  2                        SEG   DSNLADAT,L'DSNLADAT,.DSNSG,B
 0014F6                            16385  1                      END
 0014F6 716C/47F0 717E 014F6 014E2 16389  1                      ELSE  BEGIN
 0014FA 4110 C4D8/4100_      004D8 16400  2                        SEG   CVBLANKS,8,.DSNSG,B
1DIR      (DIR2025) (12:41) (15MAR04) Build SHOW DSN INTERNAL output line (NEW format)                                      Page   25
0Current Usings:  (DSNINFO,R4) (*,R7) (DSNINWA-(4+36),R8) (CP,R11) (CV,R12)
0Loc    Object Code    Addr1 Addr2  Stmt Lv Lineno    Source Statement           (Hibal 5, Asmedit 3.3)  HLASM R4.0  2004/03/15 12.41
+___    ______ ____    _____ _____  ____ __ ______    ______ _________
000150C                            16429  1                      END
 00150C 4110 4095/4100_      00095 16433  1                      SEG   DSNCHGED,L'DSNCHGED,.DSNSG,B
 00151E 4110 403E/4100_      0003E 16462  1                      SEG   DSNUCBTP,L'DSNUCBTP,.DSNSG,B
 001530 4110 4047/4100_      00047 16491  1                      SEG   DSNDVDES,L'DSNDVDES,.DSNSG,B
 001542 4110 4097/4100_      00097 16520  1                      SEG   DSNKBYTU,L'DSNKBYTU,.DSNSG,B
 001554 4110 40A0/4100_      000A0 16549  1                      SEG   DSNKBYTA,L'DSNKBYTA,.DSNSG,B
 001566 4110 40B4/4100_      000B4 16578  1                      SEG   DSNSTORC,L'DSNSTORC,.DSNSG,B
 001578 4110 40BC/4100_      000BC 16607  1                      SEG   DSNMGMTC,L'DSNMGMTC,.DSNSG,B
 00158A 4110 40C4/4100_      000C4 16636  1                      SEG   DSNDATAC,L'DSNDATAC,.DSNSG,B
 DROP   DSNINFO,R4                 16665                       END
 00159C 5810 8048/5800_      00020 16673                       SETMSG L:DSNSGLOC,L:DSNSGLENF
 0015A4 9001 8004            00004 16685                       PRETURN (R0,R1)
 0015A8 18D8/9808 D004_            16687                       PEND  ,
 DROP   DSNINWA-(4+36),R8
 DROP   *,R7
1DIR      (DIR2025) (12:41) (15MAR04) Build SHOW DSN INTERNAL output line (NEW format)                                      Page   26
0Current Usings:  (CP,R11) (CV,R12)
0Loc    Object Code    Addr1 Addr2  Stmt Lv Lineno    Source Statement           (Hibal 5, Asmedit 3.3)  HLASM R4.0  2004/03/15 12.41
+___    ______ ____    _____ _____  ____ __ ______    ______ _________
0                                  16713                       QLTORG
                                   16732              ¿þþþþþþþþþþþþþþþþþþþþþþþþþþþþþþþþþþþþþþþþþþþþþþþþþþþþþþþþþþþþþþþþþþþþþÜ
                                   16733              Ÿ                                                                     Ÿ
                                   16734              Ÿ  DSNCHK -- Routine to check that dsname conforms to OS              Ÿ
                                   16735              Ÿ    data set name conventions.                                       Ÿ
                                   16736              Ÿ                                                                     Ÿ
                                   16737              Ÿ      On entry:                                                      Ÿ
                                   16738              Ÿ        R0,R1 - length and location of name to check                 Ÿ
                                   16739              Ÿ                                                                     Ÿ
                                   16740              Ÿ      On exit, R15 (and CC):                                         Ÿ
                                   16741              Ÿ        0 - ok                                                       Ÿ
                                   16742              Ÿ        4 - bad os dsname                                            Ÿ
                                   16743              Ÿ        8 - bad chars in dsname                                      Ÿ
                                   16744              Ÿ                                                                     Ÿ
                                   16745              Ÿ  Note: This routine is a duplicate of one in DOPT.  WGS             Ÿ
                                   16746              Ÿ        contains a similar routine that's never called.              Ÿ
                                   16747              Ÿ        We have to correct all that someday.                         Ÿ
                                   16748              Ÿ                                                                     Ÿ
                                                      ¾þþþþþþþþþþþþþþþþþþþþþþþþþþþþþþþþþþþþþþþþþþþþþþþþþþþþþþþþþþþþþþþþþþþþþ»
00015D2 50E0 D000/9008_      00000 16749              DSNCHK   PROC  ,
 USING  *,R7
 0015EC 1BFF                       16788                       CLEAR R15                 Assume ok
                                   16792
 0015EE 1861                       16793                       LR    R6,R1
 0015F0 1250                       16794                       LTR   R5,R0
 0015F2 47D0 7066            01652 16795                       BNP   DSNRC4              Null dsname is n.g.
                                   16796
 0015F6 4140 0008            00008 16797                       LA    R4,8                Max no. of chars per level
 0015FA 4130 0002            00002 16798                       LA    R3,2                Allow dot, alpha, or national
 0015FE 1255/47D0 7062             16799                       WHILE (R5,POS),BEGIN
 001604 1F22/4320 6000             16815  1                      LC    R2,@R6              Get char
 00160A 1F00/4302 7078             16822  1                      LC    R0,DSNCHR(R2)       Get char type
 001610 1200/4770 703A             16827  1                      IF    (R0,Z),BEGIN        It's a dot...
 001616 5940 760C/47A0_      01BF8 16841  2                        IF    (R4,GE,8),DSNRC4    Dot can't be first char
 00161E 4140 0008            00008 16861  2                        LA    R4,8                Allow eight more chars
 001622 4130 0002            00002 16862  2                        LA    R3,2                Allow dot, alpha, or national
 001626                            16863  1                      END
 001626 703E/47F0 7058 01626 01614 16867  1                      ELSE  BEGIN
 00162A 1903/47D0 704C_            16878  2                        IF    (R0,GT,R3),'LA R15,8; B DSNCHKX'  bad chars
 001638 0640                       16900  2                        DECR  R4
 00163A 1244/4740 7066             16902  2                        IF    (R4,NEG),DSNRC4     Over 8 chars w/o a dot
 001640 4130 0003            00003 16919  2                        LA    R3,3                Allow numbers too now
 001644                            16920  1                      END
 001644 4160 6001            00001 16924  1                      LA    R6,@R6+1
 001648 0650                       16925  1                      DECR  R5
 00164A 47F0 7012            015FE 16927                       END
 00164E 47F0 706A            01656 16932                       B     DSNCHKX             All done, aok -- scram
                                   16933
 001652 41F0 0004            00004 16934              DSNRC4   LA    R15,4
 001656 18D8/9808 D004_            16935              DSNCHKX  PEND
 DROP   *,R7
1DIR      (DIR2025) (12:41) (15MAR04) Build SHOW DSN INTERNAL output line (NEW format)                                      Page   27
0Current Usings:  (CP,R11) (CV,R12)
0Loc    Object Code    Addr1 Addr2  Stmt Lv Lineno    Source Statement           (Hibal 5, Asmedit 3.3)  HLASM R4.0  2004/03/15 12.41
+___    ______ ____    _____ _____  ____ __ ______    ______ _________
0                                  16957                       ¿þþþþþþþþþþþþþþþþþþþþþþþþþþþþþþþþþÜ
                                   16958                       Ÿ   Dsname character type table.  Ÿ
                                   16959                       Ÿ                                 Ÿ
                                   16960                       Ÿ  0 - Dot (.)                    Ÿ
                                   16961                       Ÿ  1 - Alphabetic                 Ÿ
                                   16962                       Ÿ  2 - National ($,@,#)           Ÿ
                                   16963                       Ÿ  3 - Numeric                    Ÿ
                                   16964                       Ÿ      255 - Everything else      Ÿ
                                   16965                       ¾þþþþþþþþþþþþþþþþþþþþþþþþþþþþþþþþþ»
 001664 FFFFFFFFFFFFFFFF           16966              DSNCHR   DC    256X'FF'
 001764                01764 016AF 16967                       ORG   DSNCHR+C'.'
 0016AF 00                         16968                       DC    X'00'
 0016B0                016B0 01725 16969                       ORG   DSNCHR+C'A'
 001725 0101010101010101           16970                       DC    X'010101010101010101'
 00172E                0172E 01735 16971                       ORG   DSNCHR+C'J'
 001735 0101010101010101           16972                       DC    X'010101010101010101'
 00173E                0173E 01746 16973                       ORG   DSNCHR+C'S'
 001746 0101010101010101           16974                       DC    X'0101010101010101'
 00174E                0174E 016BF 16975                       ORG   DSNCHR+C'$'
 0016BF 02                         16976                       DC    X'02'
 0016C0                016C0 016E0 16977                       ORG   DSNCHR+C'@'
 0016E0 02                         16978                       DC    X'02'
 0016E1                016E1 016DF 16979                       ORG   DSNCHR+C'#'
 0016DF 02                         16980                       DC    X'02'
 0016E0                016E0 01754 16981                       ORG   DSNCHR+C'0'
 001754 0303030303030303           16982                       DC    X'03030303030303030303'
 00175E                0175E 01764 16983                       ORG
1DIR      (DIR2025) (12:41) (15MAR04) Build SHOW DSN INTERNAL output line (NEW format)                                      Page   28
0Current Usings:  (CP,R11) (CV,R12)
0Loc    Object Code    Addr1 Addr2  Stmt Lv Lineno    Source Statement           (Hibal 5, Asmedit 3.3)  HLASM R4.0  2004/03/15 12.41
+___    ______ ____    _____ _____  ____ __ ______    ______ _________
0                                  16985              ¿þþþþþþþþþþþþþþþþþþþþþþþþþþþþþþþþþþþþþþþþþþþþþþþþþþþþþþþþþþþþþþþþþþþþþÜ
                                   16986              Ÿ                                                                     Ÿ
                                   16987              Ÿ  SEGFNAME Routine to seg dsname for SHOW CAT and SHOW DSNAME.       Ÿ
                                   16988              Ÿ                                                                     Ÿ
                                   16989              Ÿ  Inputs:                                                            Ÿ
                                   16990              Ÿ    R0, R1 - File name length and location                           Ÿ
                                   16991              Ÿ    R2     - If nonzero means disk dataset                           Ÿ
                                   16992              Ÿ                                                                     Ÿ
                                   16993              Ÿ  Output:                                                            Ÿ
                                   16994              Ÿ    File name TSEGed in appropriate format.                          Ÿ
                                   16995              Ÿ                                                                     Ÿ
                                                      ¾þþþþþþþþþþþþþþþþþþþþþþþþþþþþþþþþþþþþþþþþþþþþþþþþþþþþþþþþþþþþþþþþþþþþþ»
0001764 50E0 D000/9008_      00000 16996              SEGFILE  PROC  ,
 USING  *,R7
 00177E 1830                       17035                       LR    R3,R0
 001780 1841                       17036                       LR    R4,R1
 001782 58E0 747E/0DEE       01BFC 17037                       ACALL DSNCHK
 001788 12FF/4780 7014_            17041                       IF    (R15,NZ),'LA R5,1'
 001792 7018/47F0 701A_01792 0178C 17061                       ELSE  'CLEAR R5'
 001798 1222/4780 708C             17081                       IF    (R2,NZ),BEGIN       It's a disk file
 00179E 1255/4780 7038_            17095  1                      IF    (R5,NZ),'TSEG '''''
                                   17132  1         C            IF    ((R3,GE,11),AND,(@R4,EQ,'WYL.'),AND,
 0017B6 5930 7486/4750_      01C04        1                            (@R4+6,EQ,'.'),AND,(@R4+10,EQ,'.')),BEGIN
 0017D8 D501 B3B7 4004_003B7 00004 17190  2                        IF    ((CPSGRP,EQ,@R4+4),AND,(CPSUSER,EQ,@R4+7)),BEGIN
 0017EC 4140 400B            0000B 17223  3                          LA    R4,@R4+11           Skip past the standard prefix
 0017F0 4B30 74AA            01C28 17224  3                          SH    R3,=H'11'
 0017F4                            17225  2                        END
 0017F4                            17229  1                      END
 0017F4 707A/707A/707A_017F4 017BC 17233  1                      ELSE  BEGIN
 0017F8 4110 74BB/4100_      01C39 17250  2                        TSEG  '$'
 00180A                            17268  1                      END
 00180A                            17272                       END
 00180A 7090/47F0 70B4 0180A 0179C 17276                       ELSE  BEGIN               It's a tape file
 00180E 5930 7486/4740_      01C04 17287  1                      IF    ((R3,LT,11),OR,(@R4,NE,'WYL.')),BEGIN
 001820 4110 74BB/4100_      01C39 17319  2                        TSEG  '$'
 001832                            17337  1                      END
 001832                            17341                       END
 001832 1814/1803/41F0_            17345                       TSEG  (R4),(R3)
 001840 1222/4780 70E0             17371                       IF    (R2,NZ),BEGIN
 001846 1255/4780 70E0_            17385  1                      IF    (R5,NZ),'TSEG '''''
 00185E                            17422                       END
 00185E 4110 C4D8/4100_      004D8 17426                       TSEG  CVBLANKS,1
 001870 18D8/9808 D004_            17456                       PEND
 DROP   *,R7
1DIR      (DIR2025) (12:41) (15MAR04) Build SHOW DSN output line                                                            Page   29
0Current Usings:  (CP,R11) (CV,R12)
0Loc    Object Code    Addr1 Addr2  Stmt Lv Lineno    Source Statement           (Hibal 5, Asmedit 3.3)  HLASM R4.0  2004/03/15 12.41
+___    ______ ____    _____ _____  ____ __ ______    ______ _________
0                                  17478              *
                                   17479              * This routine formats a line for SHOW DSNAMES.
                                   17480              *
                                   17481              * Input:
                                   17482              *
                                   17483              *    R4     - Points to the DSNINFO record containing the information
                                   17484              *             for the dataset in question.
                                   17485              *
                                   17486              *    R6     - Points to the SHOW DSNAME argument block
                                   17487              *
                                   17488              * Output:
                                   17489              *    DSNAME information built and TSEGed.
                                   17490              *
                                   17491              *
 00187E 50E0 D000/9008_      00000 17492              DSPDSLIN PROC  ,
 USING  *,R7
 USING  SHDSARGS,R6                17531                       USING SHDSARGS,R6
 USING  DSNINFO,R4                 17540                       WITH  (DSNINFO,R4),BEGIN
                                   17554  1           *
                                   17555  1           * Write out the filename
                                   17556  1           *
 001898 4110 4002            00002 17557  1                      LA    R1,DSNDSN
 00189C 4100 002C            0002C 17558  1                      LA    R0,L'DSNDSN
 0018A0 58E0 7374/0DEE       01C0C 17559  1                      VCALL RTRIM
 0018A6 5850 BE54            00E54 17563  1                      L     R5,CPFINFOP         Get the FFINFO
 USING  FFINFO,R5                  17564  1                      WITH  (FFINFO,R5),BEGIN
 0018AA 5000 5214            00214 17578  2                        ST    R0,FFRNAMEL
 0018AE 1820                       17579  2                        LR    R2,R0
 0018B0 0620/1222/4740_            17580  2                        MOVE  R2,FFRNAME,@R1
 0018BC 4120 0001            00001 17618  2                        LA    R2,1                It's a disk
 0018C0 58E0 7378/0DEE       01C10 17619  2                        ACALL SEGFILE
 DROP   FFINFO,R5                  17623  1                      END
                                   17631  1
 0018C6 95C1 4051/4770_00051       17632  1                      IF    (DSNERRCD,EQ,'A'),BEGIN  It's been migrated....
 0018CE 4110 7392/4100_      01C2A 17649  2                        TSEG  '(Migrated)'
 0018E0                            17667  1                      END
 0018E0 704C/47F0 7344 018E0 018CC 17671  1                      ELSE  BEGIN
 0018E4 9140 6000/4710_00000       17682  2                        IF    (SHDSTRK,OR,SHDSTYP,OR,SHDSDAT),BEGIN
 0018FC 9140 6000/47E0_00000       17723  3                          IF    SHDSTRK,BEGIN
 001904 4110 739C/4100_      01C34 17738  4                            TSEG  '--',,B
 001916 4110 4052/4100_      00052 17756  4                            DTB   DSNTRKUS,L'DSNTRKUS-3  Tracks used
 001924 185F                       17777  4                            LR    R5,R15
 001926 4110 4058/4100_      00058 17778  4                            DTB   DSNTRKUS+L'DSNTRKUS-2,2
 001934 12FF/4780 70A6             17799  4                            IF    (R15,NZ),BEGIN
 00193A 5E50 7384            01C1C 17813  5                              INCR  R5
 00193E                            17816  4                            END
 00193E 4110 405B/4100_      0005B 17820  4                            DTB   DSNTRKAL,L'DSNTRKAL
 00194C 182F                       17841  4                            LR    R2,R15              Tracks allocated
 00194E 1952/47B0 70DC             17842  4                            IF    (R5,LT,R2),BEGIN
 001954 1815/1B00/41F0_            17857  5                              TNUM  (R5)
 001962 4110 738C/4100_      01C24 17879  5                              TSEG  ' OF '
 001974                            17897  4                            END
 001974 1812/1B00/41F0_            17901  4                            TNUM  (R2)
 001982 4110 73A2/4100_      01C3A 17923  4                            TSEG  ' TRACKS'
1DIR      (DIR2025) (12:41) (15MAR04) Build SHOW DSN output line                                                            Page   30
0Current Usings:  (DSNINFO,R4) (SHDSARGS,R6) (*,R7) (CP,R11) (CV,R12)
0Loc    Object Code    Addr1 Addr2  Stmt Lv Lineno    Source Statement           (Hibal 5, Asmedit 3.3)  HLASM R4.0  2004/03/15 12.41
+___    ______ ____    _____ _____  ____ __ ______    ______ _________
0001994 4110 4061/4100_      00061 17941  4                            DTB   DSNXTNTS,L'DSNXTNTS
 0019A2 185F                       17962  4                            LR    R5,R15              Extents
 0019A4 5950 7384/47D0_      01C1C 17963  4                            IF    (R5,GT,1),BEGIN
 0019AC 4110 739E/4100_      01C36 17980  5                              TSEG  ', '
 0019BE 1815/1B00/41F0_            17998  5                              TNUM  (R5)
 0019CC 4110 7358/4100_      01BF0 18020  5                              TSEG  ' EXTENTS'
 0019DE                            18038  4                            END
 0019DE                            18042  3                          END
                                   18046  3
 0019DE 4110 C4D8/4100_      004D8 18047  3                          TSEG  CVBLANKS,1
                                   18077  3
 0019F0 9120 6000/47E0_00000       18078  3                          IF    SHDSTYP,BEGIN
 0019F8 4110 739C/4100_      01C34 18093  4                            TSEG  '--',,B
 001A0A 4110 4065/4100_      00065 18111  4                            SETMSG DSNDSORG,L'DSNDSORG
 001A12 58E0 7374/0DEE       01C0C 18127  4                            VCALL RTRIM
 001A18 41F0 B050/58E0_      00050 18131  4                            TSEG  (R1),(R0)
 001A22 4110 73A9/4100_      01C41 18155  4                            TSEG  ',',,B
 001A34 4110 4069/4100_      00069 18173  4                            SETMSG DSNRECFM,L'DSNRECFM
 001A3C 58E0 7374/0DEE       01C0C 18189  4                            VCALL RTRIM
 001A42 41F0 B050/58E0_      00050 18193  4                            TSEG  (R1),(R0)
 001A4C 4110 73AA/4100_      01C42 18217  4                            TSEG  '/'
 001A5E 4110 406F/4100_      0006F 18235  4                            DTB   DSNLRECL,L'DSNLRECL
 001A6C 181F/1B00/41F0_            18256  4                            TNUM  (R15)
 001A7A 4110 73AA/4100_      01C42 18278  4                            TSEG  '/'
 001A8C 4110 4075/4100_      00075 18296  4                            DTB   DSNBKSIZ,L'DSNBKSIZ
 001A9A 181F/1B00/41F0_            18317  4                            TNUM  (R15)
 001AA8 4110 407B/4100_      0007B 18339  4                            DTB   DSNKEYLN,L'DSNKEYLN
 001AB6 12FF/4780 7246             18360  4                            IF    (R15,NZ),BEGIN
 001ABC 182F                       18374  5                              LR    R2,R15
 001ABE 4110 73AA/4100_      01C42 18375  5                              TSEG  '/'
 001AD0 1812/1B00/41F0_            18393  5                              TNUM  (R2)
 001ADE                            18415  4                            END
 001ADE                            18419  3                          END
                                   18423  3
 001ADE 4110 C4D8/4100_      004D8 18424  3                          TSEG  CVBLANKS,1
                                   18454  3
 001AF0 9110 6000/47E0_00000       18455  3                          IF    SHDSDAT,BEGIN
 001AF8 4110 739C/4100_      01C34 18470  4                            TSEG  '--',,B
 001B0A 4110 73AB/4100_      01C43 18488  4                            TSEG  'CR:  '
 001B1C 9180 6001/47E0_00001       18506  4                            IF    SHDSNEW,BEGIN
 001B24 4110 407F/4100_      0007F 18521  5                              TSEG  DSNCRDAT,L'DSNCRDAT
 001B36 4110 73B0/4100_      01C48 18551  5                              TSEG  '  LA:  '
 001B48 4110 408A/4100_      0008A 18569  5                              TSEG  DSNLADAT,L'DSNLADAT
 001B5A                            18599  4                            END
 001B5A 72C6/47F0 7344 01B5A 01B22 18603  4                            ELSE  BEGIN
 001B5E 4110 4084/4100_      00084 18614  5                              TSEG  DSNCRDAT+5,5
 001B70 4110 73AA/4100_      01C42 18644  5                              TSEG  '/'
 001B82 4110 4081/4100_      00081 18662  5                              TSEG  DSNCRDAT+2,2
 001B94 4110 73B0/4100_      01C48 18692  5                              TSEG  '  LA:  '
 001BA6 4110 408F/4100_      0008F 18710  5                              TSEG  DSNLADAT+5,5
 001BB8 4110 73AA/4100_      01C42 18740  5                              TSEG  '/'
 001BCA 4110 408C/4100_      0008C 18758  5                              TSEG  DSNLADAT+2,2
 001BDC                            18788  4                            END
 001BDC                            18792  3                          END
1DIR      (DIR2025) (12:41) (15MAR04) Build SHOW DSN output line                                                            Page   31
0Current Usings:  (DSNINFO,R4) (SHDSARGS,R6) (*,R7) (CP,R11) (CV,R12)
0Loc    Object Code    Addr1 Addr2  Stmt Lv Lineno    Source Statement           (Hibal 5, Asmedit 3.3)  HLASM R4.0  2004/03/15 12.41
+___    ______ ____    _____ _____  ____ __ ______    ______ _________
0001BDC                            18796  2                        END
 001BDC                            18800  1                      END
 DROP   DSNINFO,R4                 18804                       END
                                   18812
 001BDC 18D8/9808 D004_            18813                       PEND  ,
 DROP   *,R7
 DROP   SHDSARGS,R6                18833                       DROP  R6
1DIR      (DIR2025) (12:41) (15MAR04) Build SHOW DSN output line                                                            Page   32
0Current Usings:  (CP,R11) (CV,R12)
0Loc    Object Code    Addr1 Addr2  Stmt Lv Lineno    Source Statement           (Hibal 5, Asmedit 3.3)  HLASM R4.0  2004/03/15 12.41
+___    ______ ____    _____ _____  ____ __ ______    ______ _________
0                                  18841                       QLTORG
1DIR      (DIR2025) (12:41) (15MAR04) Output for SHOW DSNAMES                                                               Page   33
0Current Usings:  (CP,R11) (CV,R12)
0Loc    Object Code    Addr1 Addr2  Stmt Lv Lineno    Source Statement           (Hibal 5, Asmedit 3.3)  HLASM R4.0  2004/03/15 12.41
+___    ______ ____    _____ _____  ____ __ ______    ______ _________
0                                  18878              *
                                   18879              *    On entry:
                                   18880              *      R1  -  Points to the SHOW DSNAMES work area,
                                   18881              *             which contains the page array and options
                                   18882              *
                                   18883              *             The first halfword on each page is the total
                                   18884              *             number of bytes of information on that page.
                                   18885              *             Each line on the page is preceded by a byte
                                   18886              *             which indicates the line length. A zero byte
                                   18887              *             indicates all done.
                                   18888              *
                                   18889              *    Note: This routine does not return to its caller.
                                   18890              *
 000000                00000 001EB 18891              DSPDSWA  RECORD BEGIN
 000000                            18899  1           DSPERRSV   DS    XL256
 000100                            18900  1           DSPXLINE   DS    CL(L'DSNINFO)         Expanded info line
 0001EB                001EB 001EB 18901                       END
 001C56 50E0 D000/9008_      00000 18910              DSPDSN   PROC  DSPDSWA
 USING  *,R7
 USING  DSPDSWA-(4+36),R8
 001C70 1861                       18960                       LR    R6,R1
 USING  SHDSARGS,R6                18961                       USING SHDSARGS,R6
                                   18970
 001C72 5800 6194            00194 18971                       L     R0,SHDSPAGS
 001C76 58E0 72E8/0DEE       01F58 18972                       PGET  PAR,(R0)
 001C7C D703 61F8 61F8 001F8 001F8 18980                       CLEAR SHDSCPG
 001C82 D203 61FC 72EC 001FC 01F5C 18987                       MVC   SHDSCOFF,=F'2'
                                   18988
 001C88 4110 6000            00000 18989                       LA    R1,SHDSARGS
 001C8C 4120 8128            00100 18990                       LA    R2,DSPXLINE
 001C90 58E0 72F0/0DEE       01F60 18991                       ACALL NEXTDSLN
                                   18995
 001C96 12FF/4770 71D6             18996                       IF    (R15,Z),BEGIN
 001C9C 1841                       19010  1                      LR    R4,R1
 001C9E 1830                       19011  1                      LR    R3,R0               Save length in case of error
 USING  DSNINFO,R4                 19012  1                      WITH  (DSNINFO,R4),BEGIN
 001CA0 954E 4000/4780_00000       19026  2                        IF    (DSNCATTP,NE,'+'),BEGIN
                                   19043  3
                                   19044  3         C                IF    ((R0,LT,=A(DSNERRCD-DSNCATTP)),OR,
 001CA8 5900 72F4/4740_      01F64        3                                (DSNERRCD,EQ,' '),OR,(DSNERRCD,EQ,'A')),BEGIN
 001CC0 9104 6000/47E0_00000       19090  4                            IF    SHDSINT,BEGIN
 001CC8 181D/41D0 D100             19105  5                              XPUSH ,,256,PTR=R1
 001CCE 4100 0100            00100 19108  5                              LA    R0,256
 001CD2 4120 8128            00100 19109  5                              LA    R2,DSPXLINE
 001CD6 9180 6001/47E0_00001       19110  5                              IF    SHDSNEW,BEGIN
 001CDE 58E0 72F8/0DEE       01F68 19125  6                                ACALL DSPDSINN
 001CE4                            19129  5                              END
 001CE4 7078/47F0 707E 01CE4 01CDC 19133  5                              ELSE  BEGIN
 001CE8 58E0 72FC/0DEE       01F6C 19144  6                                ACALL DSPDSNIN
 001CEE                            19148  5                              END
 001CEE 41F0 B050/58E0_      00050 19152  5                              TSEG  (R1),(R0)
 001CF8 4BD0 731C            01F8C 19176  5                              XPOP  ,,256
 001CFC                            19178  4                            END
 001CFC 7090/47F0 7096 01CFC 01CC6 19182  4                            ELSE  BEGIN
1DIR      (DIR2025) (12:41) (15MAR04) Output for SHOW DSNAMES                                                               Page   34
0Current Usings:  (DSNINFO,R4) (SHDSARGS,R6) (*,R7) (DSPDSWA-(4+36),R8) (CP,R11) (CV,R12)
0Loc    Object Code    Addr1 Addr2  Stmt Lv Lineno    Source Statement           (Hibal 5, Asmedit 3.3)  HLASM R4.0  2004/03/15 12.41
+___    ______ ____    _____ _____  ____ __ ______    ______ _________
0001D00 58E0 7304/0DEE       01F74 19193  5                              ACALL DSPDSLIN
 001D06                            19197  4                            END
 001D06 D603 B05C B05C_0005C 0005C 19201  4                            TCCR
 001D26 58E0 730C/0DEE       01F7C 19263  4                            ACALL CTWRITE
 001D2C 4780 70C4/47F0_      01D34 19267  4                            IF    NZ,'B DSPEXIT'
 001D34 70C8/47F0 70F4 01D34 01D2E 19284  4                            ELSE  BEGIN
 001D38 9108 6000/47E0_00000       19295  5                              IF    SHDSSCR,BEGIN
 001D40 4110 4000            00000 19310  6                                LA    R1,DSNINFO
 001D44 4120 6000            00000 19311  6                                LA    R2,SHDSARGS
 001D48 58E0 7310/0DEE       01F80 19312  6                                ACALL SCRDSN
 001D4E 47B0 70E6/47F0_      01D56 19316  6                                IF    M,'B DSPEXIT'
 001D56                            19333  5                              END
 001D56 4110 6000            00000 19337  5                              LA    R1,SHDSARGS
 001D5A 4120 8128            00100 19338  5                              LA    R2,DSPXLINE
 001D5E 58E0 72F0/0DEE       01F60 19339  5                              ACALL NEXTDSLN
 001D64                            19343  4                            END
 001D64                            19347  3                          END
                                   19351  3
 001D64 70F8/47F0 71D6 01D64 01CBE 19352  3                          ELSE  BEGIN
                                   19363  4           *
                                   19364  4           *  Originally, if an error occurred, WYLBUR printed the
                                   19365  4           *  message only if the LIKE or ONLY options had been used
                                   19366  4           *  and information about exactly one dataset was returned.
                                   19367  4           *  Otherwise, WYLBUR just ignored the error. We reproduce
                                   19368  4           *  that behavior here.
                                   19369  4           *
 001D68 0630/1233/4740_            19370  4                            MOVE  R3,DSPERRSV,@R1     Save the line
 001D74 4110 6000            00000 19408  4                            LA    R1,SHDSARGS
 001D78 4120 8128            00100 19409  4                            LA    R2,DSPXLINE
 001D7C 58E0 72F0/0DEE       01F60 19410  4                            ACALL NEXTDSLN
 001D82 12FF/4780 71D6             19414  4                            IF    (R15,NZ),BEGIN
 001D88 9101 6000/4710_00000       19428  5                              IF    (SHDSLIK,OR,SHDSONLY),BEGIN
                                   19457  6
 001D98 4140 8028            00000 19458  6                                LA    R4,DSPERRSV         Switch back to the old line
 001D9C 95D4 4051/4770_00051       19459  6                                IF    (DSNERRCD,EQ,'M'),BEGIN
 001DA4 4110 72C0/4100_      01F30 19476  7                                  TSEG  'Volume not currently available to WYLBUR',,CR
 001DB6 4110 6000            00000 19494  7                                  LA    R1,SHDSARGS
 001DBA 58E0 7314/0DEE       01F84 19495  7                                  ACALL RLSDSPGS
 001DC0 47F0 C7EA            007EA 19499  7                                  B     CVNOACTN
 001DC4                            19500  6                                END
                                   19504  6
 001DC4 7158/47F0 7180_01DC4 01DA2 19505  6                                ELSEIF (DSNERRCD,EQ,'D'),BEGIN
 001DD0 4110 7338/4100_      01FA8 19531  7                                  TSEG  'Dataset information not on volume',,CR
 001DE2 4110 6000            00000 19549  7                                  LA    R1,SHDSARGS
 001DE6 58E0 7314/0DEE       01F84 19550  7                                  ACALL RLSDSPGS
 001DEC 47F0 C7EA            007EA 19554  7                                  B     CVNOACTN
 001DF0                            19555  6                                END
                                   19559  6
 001DF0 7184/47F0 71D6 01DF0 01DCE 19560  6                                ELSE  BEGIN
 001DF4 4110 731E/4100_      01F8E 19571  7                                  TSEG  'Unknown OBTAIN error, RC =',,B
 001E06 4110 4052/4100_      00052 19589  7                                  TSEG  DSNTRKUS,L'DSNTRKUS,B
 001E18 D603 B05C B05C_0005C 0005C 19619  7                                  TCCR
 001E38 4110 6000            00000 19681  7                                  LA    R1,SHDSARGS
 001E3C 58E0 7314/0DEE       01F84 19682  7                                  ACALL RLSDSPGS
1DIR      (DIR2025) (12:41) (15MAR04) Output for SHOW DSNAMES                                                               Page   35
0Current Usings:  (DSNINFO,R4) (SHDSARGS,R6) (*,R7) (DSPDSWA-(4+36),R8) (CP,R11) (CV,R12)
0Loc    Object Code    Addr1 Addr2  Stmt Lv Lineno    Source Statement           (Hibal 5, Asmedit 3.3)  HLASM R4.0  2004/03/15 12.41
+___    ______ ____    _____ _____  ____ __ ______    ______ _________
0001E42 47F0 C7EA            007EA 19686  7                                  B     CVNOACTN
 001E46                            19687  6                                END
                                   19691  6
 001E46                            19692  5                              END
 001E46                            19696  4                            END
 001E46                            19700  3                          END
                                   19704  3
 001E46                            19705  2                        END
 DROP   DSNINFO,R4                 19709  1                      END
 001E46                            19717                       END
                                   19721              *
                                   19722              *   Process 2nd through last lines here
                                   19723              *
 001E46 12FF/4770 72A4             19724                       WHILE (R15,Z),BEGIN
 001E4C 1841                       19740  1                      LR    R4,R1
 USING  DSNINFO,R4                 19741  1                      WITH  (DSNINFO,R4),BEGIN
 001E4E 954E 4000/4780_00000       19755  2                        IF    (DSNCATTP,NE,'+'),BEGIN
                                   19772  3         C                IF    ((R0,LT,=A(DSNERRCD-DSNCATTP)),OR,
 001E56 5900 72F4/4740_      01F64        3                                (DSNERRCD,EQ,' '),OR,(DSNERRCD,EQ,'A')),BEGIN
 001E6E 9104 6000/47E0_00000       19818  4                            IF    SHDSINT,BEGIN
 001E76 181D/41D0 D100             19833  5                              XPUSH ,,256,PTR=R1
 001E7C 4100 0100            00100 19836  5                              LA    R0,256
 001E80 1824                       19837  5                              LR    R2,R4
 001E82 9180 6001/47E0_00001       19838  5                              IF    SHDSNEW,BEGIN
 001E8A 58E0 72F8/0DEE       01F68 19853  6                                ACALL DSPDSINN
 001E90                            19857  5                              END
 001E90 7224/47F0 722A 01E90 01E88 19861  5                              ELSE  BEGIN
 001E94 58E0 72FC/0DEE       01F6C 19872  6                                ACALL DSPDSNIN
 001E9A                            19876  5                              END
 001E9A 41F0 B050/58E0_      00050 19880  5                              TSEG  (R1),(R0)
 001EA4 4BD0 731C            01F8C 19904  5                              XPOP  ,,256
 001EA8                            19906  4                            END
 001EA8 723C/47F0 7242 01EA8 01E74 19910  4                            ELSE  BEGIN
 001EAC 58E0 7304/0DEE       01F74 19921  5                              ACALL DSPDSLIN
 001EB2                            19925  4                            END
 001EB2 D603 B05C B05C_0005C 0005C 19929  4                            TCCR
 001ED2 58E0 730C/0DEE       01F7C 19991  4                            ACALL CTWRITE
 001ED8 4780 7270/47F0_      01EE0 19995  4                            IF    NZ,'B DSPEXIT'
 001EE0 7274/47F0 7292 01EE0 01EDA 20012  4                            ELSE  BEGIN
 001EE4 9108 6000/47E0_00000       20023  5                              IF    SHDSSCR,BEGIN
 001EEC 4110 4000            00000 20038  6                                LA    R1,DSNINFO
 001EF0 4120 6000            00000 20039  6                                LA    R2,SHDSARGS
 001EF4 58E0 7310/0DEE       01F80 20040  6                                ACALL SCRDSN
 001EFA 47B0 7292/47F0_      01F02 20044  6                                IF    M,'B DSPEXIT'
 001F02                            20061  5                              END
 001F02                            20065  4                            END
 001F02                            20069  3                          END
 001F02                            20073  2                        END
 001F02 4110 6000            00000 20077  2                        LA    R1,SHDSARGS
 001F06 4120 8128            00100 20078  2                        LA    R2,DSPXLINE
 001F0A 58E0 72F0/0DEE       01F60 20079  2                        ACALL NEXTDSLN
 DROP   DSNINFO,R4                 20083  1                      END
 001F10 47F0 71D6            01E46 20091                       END
                                   20096
1DIR      (DIR2025) (12:41) (15MAR04) Output for SHOW DSNAMES                                                               Page   36
0Current Usings:  (SHDSARGS,R6) (*,R7) (DSPDSWA-(4+36),R8) (CP,R11) (CV,R12)
0Loc    Object Code    Addr1 Addr2  Stmt Lv Lineno    Source Statement           (Hibal 5, Asmedit 3.3)  HLASM R4.0  2004/03/15 12.41
+___    ______ ____    _____ _____  ____ __ ______    ______ _________
0001F14                            20097              DSPEXIT  LABEL
 001F14 4110 6000            00000 20099                       LA    R1,SHDSARGS
 001F18 58E0 7314/0DEE       01F84 20100                       ACALL RLSDSPGS
 001F1E 47F0 C7DE            007DE 20104                       B     CVNEXT
 001F22 18D8/9808 D004_            20105                       PEND  ,
 DROP   DSPDSWA-(4+36),R8
 DROP   *,R7
                                   20130
                                   20131                       QLTORG
 DROP   SHDSARGS,R6                20160                       DROP  R6
1DIR      (DIR2025) (12:41) (15MAR04) SHOW CATALOG Command                                                                  Page   37
0Current Usings:  (CP,R11) (CV,R12)
0Loc    Object Code    Addr1 Addr2  Stmt Lv Lineno    Source Statement           (Hibal 5, Asmedit 3.3)  HLASM R4.0  2004/03/15 12.41
+___    ______ ____    _____ _____  ____ __ ______    ______ _________
0                                  20169              ¿þþþþþþþþþþþþþþþþþþþþþþþþþþþþþþþþþþþþþþþþþþþþþþþþþþþþþþþþþþþþþþþþþþþþþÜ
                                   20170              Ÿ                                                                     Ÿ
                                   20171              Ÿ  SHOWCAT -- SHOW CATALOG Command.                                   Ÿ
                                   20172              Ÿ                                                                     Ÿ
                                                      ¾þþþþþþþþþþþþþþþþþþþþþþþþþþþþþþþþþþþþþþþþþþþþþþþþþþþþþþþþþþþþþþþþþþþþþ»
0000000                00000 000F7 20173              CTERRWK  RECORD BEGIN
 000000                            20181  1           CTERRID    DS    CL8
 000008                            20182  1           CTMSGL     DS    F
                                   20183  1           CTMSG      DS    CL&LINESZ
 00000C                                   1          +CTMSG      DS    CL235
 0000F7                000F7 000F7 20184                       END
                                   20193
 001FD0 50E0 D000/9008_      00000 20194              SHOWCAT  XPROC SHCTARGS
 USING  *,R7
 USING  SHCTARGS-(4+36),R8
 001FEA 4160 8028            00000 20245                       LA    R6,SHCTARGS
 USING  SHCTARGS,R6                20246                       USING SHCTARGS,R6
 001FEE D7FF 6000 6000_00000 00000 20255                       CLEAR SHCTARGS
                                   20265
 002006 58E0 735E/0DEE       02348 20266                       VCALL MKFFINFO
 00200C 5850 BE54            00E54 20270                       L     R5,CPFINFOP
 USING  FFINFO,R5                  20271                       USING FFINFO,R5
                                   20280
                                   20281                       COMMENT                   SCAN SHOW CAT OPTIONS
 002010 5810 B08C/1B00_      0008C 20282                       SCAN  CATPRT
 002062 58E0 736A/0DEE       02354 20314                       SCANCHK
                                   20319
 002068 9104 6000/47E0_00000       20320                       IF    (SHCTSCR,AND,CPFDUMP),BEGIN
 002078 4110 7402/4100_      023EC 20349  1                      TSEG  'SCRATCH',,B        Tell which bad option
 00208A 4110 7409/4100_      023F3 20367  1                      ERROR 'conflicts with dump command or collect options.'
 002096                            20374                       END
                                   20378
 002096 58E0 7372/0DEE       0235C 20379                       VCALL FNAMEFIN            Process dsname parameters
                                   20383
                                   20384                       COMMENT                   SAMSON SHOW CAT
 00209C 9503 5000/4770_00000       20385                       IF    FFFSAM,BEGIN
 0020A4 4110 73BC/4100_      023A6 20400  1                      ERROR 'SHOW CAT not supported for Samson.'
 0020B0                            20407                       END
                                   20411              *
                                   20412              *
                                   20413                       COMMENT                   NETWORK SHOW CAT
 0020B0 9504 5000/4770_00000       20414                       IF    FFFNET,BEGIN
 0020B8 4110 7438/4100_      02422 20429  1                      ERROR 'SHOW CAT not supported for network files.'
 0020C4                            20436                       END
                                   20440              *
                                   20441              *
                                   20442                       COMMENT                   WINGS SHOW CAT
 0020C4 9501 5000/4770_00000       20443                       IF    FFFWINGS,BEGIN
                                   20458  1
 0020CC D503 735A 6004_02344 00004 20459  1                      IF    (SHCTUPL,GT,0),BEGIN
 0020D6 5810 6004            00004 20477  2                        L     R1,SHCTUPL
 0020DA 5010 5008            00008 20478  2                        ST    R1,FFNAMEL
 0020DE 0610/1211/4740_            20479  2                        MOVE  R1,FFNAME,SHCTUPB
1DIR      (DIR2025) (12:41) (15MAR04) SHOW CATALOG Command                                                                  Page   38
0Current Usings:  (FFINFO,R5) (SHCTARGS,R6) (*,R7) (SHCTARGS-(4+36),R8) (CP,R11) (CV,R12)
0Loc    Object Code    Addr1 Addr2  Stmt Lv Lineno    Source Statement           (Hibal 5, Asmedit 3.3)  HLASM R4.0  2004/03/15 12.41
+___    ______ ____    _____ _____  ____ __ ______    ______ _________
00020EA 58E0 7376/0DEE       02360 20517  2                        VCALL NRESOLVE
 0020F0 5810 5214            00214 20521  2                        L     R1,FFRNAMEL
 0020F4 5010 6004            00004 20522  2                        ST    R1,SHCTUPL
 0020F8 0610/1211/4740_            20523  2                        MOVE  R1,SHCTUPB,FFRNAME
 002104                            20561  1                      END
                                   20565  1
 002104 D503 735A 6088_02344 00088 20566  1                      IF    (SHCTLOWL,GT,0),BEGIN
 00210E 5810 6088            00088 20584  2                        L     R1,SHCTLOWL
 002112 5010 5008            00008 20585  2                        ST    R1,FFNAMEL
 002116 0610/1211/4740_            20586  2                        MOVE  R1,FFNAME,SHCTLOWB
 002122 58E0 7376/0DEE       02360 20624  2                        VCALL NRESOLVE
 002128 5810 5214            00214 20628  2                        L     R1,FFRNAMEL
 00212C 5010 6088            00088 20629  2                        ST    R1,SHCTLOWL
 002130 0610/1211/4740_            20630  2                        MOVE  R1,SHCTLOWB,FFRNAME
 00213C                            20668  1                      END
                                   20672  1
 00213C D503 735A 610C_02344 0010C 20673  1                      IF    (SHCTLIKL,GT,0),BEGIN
 002146 5800 610C            0010C 20691  2                        L     R0,SHCTLIKL
 00214A 4110 6110            00110 20692  2                        LA    R1,SHCTLIKE
 00214E 58E0 737A/0DEE       02364 20693  2                        VCALL TOUPPER
 002154 955B 1000/4770_00000       20697  2                        IF    ((@R1,EQ,'$'),AND,(R0,GT,1)),BEGIN
 002164 5E10 737E            02368 20729  3                          INCR  R1
 002168 0600                       20732  3                          DECR  R0
 00216A 5000 610C            0010C 20734  3                          ST    R0,SHCTLIKL
 00216E 1820                       20735  3                          LR    R2,R0
 002170 0620/1222/4740_            20736  3                          MOVE  R2,SHCTLIKE,SHCTLIKE+1
 00217C                            20774  2                        END
 00217C 7196/7196/47F0_0217C 0215A 20778  2                        ELSEIF ((R0,GE,4),AND,(@R1,EQ,'WYL.')),BEGIN
 002192                            20821  2                        END
                                   20825  2         C              ELSEIF ((R0,GE,5),AND,
                                          2         C                    (@R1,EQ,'SYS'),AND,
                                          2         C                    (@R1+3,GE,'0'),AND,(@R1+3,LE,'9'),AND,
 002192 71AC/71AC/47F0_02192 02186        2                              (@R1+4,EQ,'.')),BEGIN
 0021C0                            20907  2                        END
 0021C0 71DA/71DA/71DA_021C0 0219C 20911  2                        ELSE  BEGIN
 0021C4 5000 5008            00008 20930  3                          ST    R0,FFNAMEL
 0021C8 1810                       20931  3                          LR    R1,R0
 0021CA 0610/1211/4740_            20932  3                          MOVE  R1,FFNAME,SHCTLIKE
 0021D6 58E0 7376/0DEE       02360 20970  3                          VCALL NRESOLVE
 0021DC 5800 5214            00214 20974  3                          L     R0,FFRNAMEL
 0021E0 4110 5218            00218 20975  3                          LA    R1,FFRNAME
 0021E4 58E0 738E/0DEE       02378 20976  3                          VCALL RETFNAME
 0021EA 5000 610C            0010C 20980  3                          ST    R0,SHCTLIKL
 0021EE 1810                       20981  3                          LR    R1,R0
 0021F0 0610/1211/4740_            20982  3                          MOVE  R1,SHCTLIKE,FFRNAME
 0021FC                            21020  2                        END
 0021FC                            21024  1                      END
                                   21028  1
 0021FC 7216/47F0 7240 021FC 02144 21029  1                      ELSE  BEGIN
 002200 4100 0001            00001 21040  2                        LA    R0,1
 002204 92C1 500C      0000C       21041  2                        MVI   FFNAME,C'A'
 002208 5000 5008            00008 21042  2                        ST    R0,FFNAMEL
 00220C 58E0 7376/0DEE       02360 21043  2                        VCALL NRESOLVE
 002212 5810 5214            00214 21047  2                        L     R1,FFRNAMEL
1DIR      (DIR2025) (12:41) (15MAR04) SHOW CATALOG Command                                                                  Page   39
0Current Usings:  (FFINFO,R5) (SHCTARGS,R6) (*,R7) (SHCTARGS-(4+36),R8) (CP,R11) (CV,R12)
0Loc    Object Code    Addr1 Addr2  Stmt Lv Lineno    Source Statement           (Hibal 5, Asmedit 3.3)  HLASM R4.0  2004/03/15 12.41
+___    ______ ____    _____ _____  ____ __ ______    ______ _________
0002216 5B10 7392            0237C 21048  2                        S     R1,=F'2'
 00221A 5010 610C            0010C 21049  2                        ST    R1,SHCTLIKL
 00221E 0610/1211/4740_            21050  2                        MOVE  R1,SHCTLIKE,FFRNAME
 00222A                            21088  1                      END
                                   21092  1
 00222A 4110 6000            00000 21093  1                      LA    R1,SHCTARGS
 00222E 58E0 7396/0DEE       02380 21094  1                      VCALL WGSHOCAT
 002234 59F0 7382/4770_      0236C 21098  1                      IF    (R15,EQ,4),BEGIN
                                   21115  2           *
                                   21116  2           * If we got an error from WINGS, there still may be catalog entries
                                   21117  2           * that can be displayed. So, save the error message and error id,
                                   21118  2           * display the entries and then restore the error information.
                                   21119  2           *
 00223C D601 6190 6190_00190 00190 21120  2                        IF    (SHCTPGCT,NZ),BEGIN
 002246 182D/41D0 D0F8             21136  3                          XPUSH ,,L'CTERRWK,PTR=R2
 USING  CTERRWK,R2                 21139  3                          WITH  (CTERRWK,R2),BEGIN
 00224C D207 2000 B886 00000 00886 21153  4                            MVC   CTERRID,CPERRID
 002252 5810 B070            00070 21154  4                            L     R1,CPSEGLOC
 002256 5830 B05C            0005C 21155  4                            L     R3,CPSEGLENF
 00225A 1233/47D0 72B4             21156  4                            IF    (R3,POS),BEGIN
 002260 1A31                       21170  5                              AR    R3,R1
 002262 0630                       21171  5                              DECR  R3
 002264 9515 3000/4780_00000       21173  5                              IF    (@R3,NE,X'15'),BEGIN   IF TRAILING NL, STRIP IT
 00226C 5E30 737E            02368 21189  6                                INCR  R3
 002270                            21192  5                              END
 002270 1B31                       21196  5                              SR    R3,R1
 002272 1233/47D0 72AA             21197  5                              IF    (R3,POS),BEGIN
 002278 5930 739A/47D0_      02384 21211  6                                CEIL  R3,L'CTMSG
 002284 5030 2008            00008 21230  6                                ST    R3,CTMSGL
 002288 0630/1233/4740_            21231  6                                MOVE  R3,CTMSG,CPSEGLOC
 002294                            21269  5                              END
 002294 41F0 B050/58E0_      00050 21273  5                              TCLEAR ,
 00229E                            21287  4                            END
 00229E 4110 6000            00000 21291  4                            LA    R1,SHCTARGS
 0022A2 58E0 73A2/0DEE       0238C 21292  4                            ACALL DSPCAT
 0022A8 1B00/41F0 B050_            21296  4                            TWRITE ,                      Flush the last entry out
 0022B4 D207 B886 2000 00886 00000 21321  4                            MVC   CPERRID,CTERRID
 0022BA 4110 200C/5800_      0000C 21322  4                            TSEG  CTMSG,L:CTMSGL,CR
 DROP   CTERRWK,R2                 21350  3                          END
 0022CC 4BD0 73DE            023C8 21358  3                          XPOP  ,,L'CTERRWK
 0022D0                            21360  2                        END
 0022D0 47F0 C7DA            007DA 21364  2                        B     CVABORT
 0022D4                            21365  1                      END
 0022D4 59F0 73AE/4770_      02398 21369  1                      IF    (R15,EQ,8),BEGIN
 0022DC D601 6190 6190_00190 00190 21386  2                        IF    (SHCTPGCT,Z),BEGIN
 0022E6 58E0 73B2/0DEE       0239C 21402  3                          VCALL NOMORPG
 0022EC                            21406  2                        END
                                   21410  2           *        IF    (CPFDUMP),BEGIN
                                   21411  2           *        CLEAR CPFDUMP
                                   21412  2           *        TSEG  'Too many dsname items. Partial listing follows.',,CR
                                   21413  2           *        TWRITE
                                   21414  2           *        SET   CPFDUMP
                                   21415  2           *        END
                                   21416  2           *        ELSE  BEGIN
1DIR      (DIR2025) (12:41) (15MAR04) SHOW CATALOG Command                                                                  Page   40
0Current Usings:  (FFINFO,R5) (SHCTARGS,R6) (*,R7) (SHCTARGS-(4+36),R8) (CP,R11) (CV,R12)
0Loc    Object Code    Addr1 Addr2  Stmt Lv Lineno    Source Statement           (Hibal 5, Asmedit 3.3)  HLASM R4.0  2004/03/15 12.41
+___    ______ ____    _____ _____  ____ __ ______    ______ _________
00022EC 4110 7464/4100_      0244E 21417  2                        TSEG  'Too many dsname items. Partial listing follows.',,CR
                                   21435  2           *        END
 0022FE                            21436  1                      END
 0022FE D601 6190 6190_00190 00190 21440  1                      IF    (SHCTPGCT,Z),BEGIN
 002308 9140 6000/4710_00000       21456  2                        IF    ~SHCTINT,BEGIN
                                   21471  3           *        CLEAR CPFDUMP
 002310 4110 73E0/4100_      023CA 21472  3                          TSEG  'No data sets found in the catalog.'
 002322                            21490  2                        END
 002322 47F0 C7DE            007DE 21494  2                        B CVNEXT
 002326                            21495  1                      END
 002326 4110 6000            00000 21499  1                      LA    R1,SHCTARGS
 00232A 58E0 73A2/0DEE       0238C 21500  1                      ACALL DSPCAT
 002330 47F0 C7DE            007DE 21504  1                      B     CVNEXT
 002334                            21505                       END
 002334 18D8/9808 D004_            21509                       PEND
 DROP   SHCTARGS-(4+36),R8
 DROP   *,R7
                                   21534                       QLTORG
1DIR      (DIR2025) (12:41) (15MAR04) SHOW CATALOG Command                                                                  Page   41
0Current Usings:  (FFINFO,R5) (SHCTARGS,R6) (CP,R11) (CV,R12)
0Loc    Object Code    Addr1 Addr2  Stmt Lv Lineno    Source Statement           (Hibal 5, Asmedit 3.3)  HLASM R4.0  2004/03/15 12.41
+___    ______ ____    _____ _____  ____ __ ______    ______ _________
0                                  21580              ¿þþþþþþþþþþþþþþþþþþþþþþþþþþþþþþþþþþþþþþþþþþþþþþþþþþþþþþþþþþþþþþþþþþþþþÜ
                                   21581              Ÿ                                                                     Ÿ
                                   21582              Ÿ  For Show Catalog                                                   Ÿ
                                   21583              Ÿ                                                                     Ÿ
                                                      ¾þþþþþþþþþþþþþþþþþþþþþþþþþþþþþþþþþþþþþþþþþþþþþþþþþþþþþþþþþþþþþþþþþþþþþ»
00024B4 D3C9D2C540404040_          21584              CATPRT   SCKW  LIKE,CATLIKE,A
 0024DC C6D9D6D440404040_          21599                       SCKW  FROM,CATFROM,(P,A)
                                   21614              *        SCKW EXCLUDE,CATEXCL,(P,A)
                                   21615              *        SCKW THROUGH,CATTHRU,(P,A)
                                   21616              *        SCKW THRU,CATTHRU,P
 002504 E3D6404040404040_          21617                       SCKW  TO,CATTO,P
 00252C C6D6D94040404040_          21632                       SCKW  FOR,CATFOR,(P,A)
 002554 E5D6D3E4D4C54040_          21647                       SCKW  VOLUME,CATOPTVL,A
 00257C E4D5C9E340404040_          21662                       SCKW  UNIT,CATOPTDV,A
 0025A4 C4C9E2D240404040_          21677                       SCKW  DISK,CATOPTDK,A
 0025CC E3C1D7C540404040_          21692                       SCKW  TAPE,CATOPTTA,A
 0025F4 C9D5E3C5D9D5C1D3_          21707                       SCKW  INTERNAL,CATINT,A
 00261C E2C3D9C1E3C3C840_          21722                       SCKW  SCRATCH,CATSCRT,A
 002644 4040404040404040_          21737                       SCKW  ,V(COLLPSH),PUSH
 00266C 4040404040404040_          21752                       SCKW  ,V(FNAMPSH),PUSH
 002694 4040404040404040_          21767                       SCKW  ,V(ACCTPSHC),PUSH
 0026BC 4040404040404040_          21782                       SCKW  ,V(NOTVALID)
                                   21797
 0026E4 50E0 D000/9008_      00000 21798              CATFOR   PROC  ,
 USING  *,R7
 0026FE 9001 D000/41D0_      00000 21837                       XPUSH R0,R1
 002706 4110 7394/4100_      02A92 21840                       TSEG  'Please use LIKE instead of FOR in the future.',,CR
 002718 4BD0 738E/9801_      02A8C 21858                       XPOP  R0,R1
 002720 58E0 B08C/581E_      0008C 21861                       SCTOK (R1)
 00272E D501 7390 1000_02A8E 00000 21870                       IF    (@R1,EQ,'* '),BEGIN
 002738 4110 B62C/5800_      0062C 21886  1                      SETMSG CPAFNAME,L:CPAFNAMEL
 002740 58E0 7376/0DEE       02A74 21900  1                      VCALL RETFNAME
 002746                            21904                       END
 002746 1830                       21908                       LR    R3,R0
 002748 5930 737A/47D0_      02A78 21909                       CEIL  R3,L'SHCTLIKE
 002754 5030 610C            0010C 21928                       ST    R3,SHCTLIKL
 002758 0630/1233/4740_            21929                       MOVE  R3,SHCTLIKE,@R1
 002764 18D8/9808 D004_            21967                       PEND
 DROP   *,R7
                                   21987
 002772 50E0 D000/9008_      00000 21988              CATLIKE  PROC  ,
 USING  *,R7
 00278C 5810 B08C/1B00_      0008C 22027                       SCANSTR ,                 SKIP=' ', STOP=' ,=;'
 0027D2 12FF/4770 7088             22056                       IF    (R15,Z),BEGIN
 0027D8 1200/47D0 7072             22070  1                      IF    (R0,POS),BEGIN
 0027DE 1830                       22084  2                        LR    R3,R0
 0027E0 5930 72EC/47D0_      02A78 22085  2                        CEIL  R3,L'SHCTLIKE
 0027EC 5030 610C            0010C 22104  2                        ST    R3,SHCTLIKL
 0027F0 0630/1233/4740_            22105  2                        MOVE  R3,SHCTLIKE,@R1
 0027FC 1BFF                       22143  2                        CLEAR R15
 0027FE                            22147  1                      END
 0027FE 7076/47F0 7088 027FE 027DC 22151  1                      ELSE  BEGIN
 002802 D207 B886 72DC_00886 02A68 22162  2                        ERROR 'Missing dataset name.',,MISSDSN
1DIR      (DIR2025) (12:41) (15MAR04) SHOW CATALOG Command                                                                  Page   42
0Current Usings:  (FFINFO,R5) (SHCTARGS,R6) (*,R7) (CP,R11) (CV,R12)
0Loc    Object Code    Addr1 Addr2  Stmt Lv Lineno    Source Statement           (Hibal 5, Asmedit 3.3)  HLASM R4.0  2004/03/15 12.41
+___    ______ ____    _____ _____  ____ __ ______    ______ _________
0002814                            22170  1                      END
 002814                            22174                       END
 002814 18D8/9808 D004_            22178                       PEND
 DROP   *,R7
                                   22198
 002822 50E0 D000/9008_      00000 22199              CATFROM  PROC  ,
 USING  *,R7
 00283C 58E0 B08C/581E_      0008C 22238                       SCTOK (R1)
 00284A 1830                       22247                       LR    R3,R0
 00284C 5930 7244/47D0_      02A80 22248                       CEIL  R3,L'SHCTLOWB
 002858 5030 6088            00088 22267                       ST    R3,SHCTLOWL
 00285C 0630/1233/4740_            22268                       MOVE  R3,SHCTLOWB,@R1
 002868 5900 7248/4770_      02A84 22306                       IF    ((R0,EQ,1),AND,(@R1,EQ,'*')),BEGIN
 002878 4110 B62C/5800_      0062C 22338  1                      SETMSG CPAFNAME,L:CPAFNAMEL
 002880 58E0 7238/0DEE       02A74 22352  1                      VCALL RETFNAME
 002886 1230                       22356  1                      LTR   R3,R0
 002888 4780 706C            028A8 22357  1                      IF    NZ,BEGIN
 00288C 5930 7244/47D0_      02A80 22368  2                        CEIL  R3,L'SHCTLOWB
 002898 5030 6088            00088 22387  2                        ST    R3,SHCTLOWL
 00289C 0630/1233/4740_            22388  2                        MOVE  R3,SHCTLOWB,@R1
 0028A8                            22426  1                      END
 0028A8                            22430                       END
 0028A8 18D8/9808 D004_            22434                       PEND
 DROP   *,R7
                                   22454
 0028B6 50E0 D000/9008_      00000 22455              CATTO    PROC  ,
 USING  *,R7
 0028D0 58E0 B08C/581E_      0008C 22494                       SCTOK (R1)
 0028DE 1830                       22503                       LR    R3,R0
 0028E0 5930 71B8/47D0_      02A88 22504                       CEIL  R3,L'SHCTUPB
 0028EC 5030 6004            00004 22523                       ST    R3,SHCTUPL
 0028F0 0630/1233/4740_            22524                       MOVE  R3,SHCTUPB,@R1
 0028FC 5900 71B4/4770_      02A84 22562                       IF    ((R0,EQ,1),AND,(@R1,EQ,'*')),BEGIN
 00290C 4110 B62C/5800_      0062C 22594  1                      SETMSG CPAFNAME,L:CPAFNAMEL
 002914 58E0 71A4/0DEE       02A74 22608  1                      VCALL RETFNAME
 00291A 1230                       22612  1                      LTR   R3,R0
 00291C 4780 706C            0293C 22613  1                      IF    NZ,BEGIN
 002920 5930 71B8/47D0_      02A88 22624  2                        CEIL  R3,L'SHCTUPB
 00292C 5030 6004            00004 22643  2                        ST    R3,SHCTUPL
 002930 0630/1233/4740_            22644  2                        MOVE  R3,SHCTUPB,@R1
 00293C                            22682  1                      END
 00293C                            22686                       END
 00293C 18D8/9808 D004_            22690                       PEND
 DROP   *,R7
                                   22710
 00294A 50E0 D000/9008_      00000 22711              CATOPTVL PROC
 USING  *,R7
 002964 9680 6000      00000       22750                       SET   SHCTVOL
 002968 1BFF                       22756                       CLEAR R15
 00296A 18D8/9808 D004_            22760                       PEND
 DROP   *,R7
                                   22780
 002978 50E0 D000/9008_      00000 22781              CATOPTDV PROC
 USING  *,R7
1DIR      (DIR2025) (12:41) (15MAR04) SHOW CATALOG Command                                                                  Page   43
0Current Usings:  (FFINFO,R5) (SHCTARGS,R6) (*,R7) (CP,R11) (CV,R12)
0Loc    Object Code    Addr1 Addr2  Stmt Lv Lineno    Source Statement           (Hibal 5, Asmedit 3.3)  HLASM R4.0  2004/03/15 12.41
+___    ______ ____    _____ _____  ____ __ ______    ______ _________
0002992 9608 6000      00000       22820                       SET   SHCTUNIT
 002996 1BFF                       22826                       CLEAR R15
 002998 18D8/9808 D004_            22830                       PEND
 DROP   *,R7
                                   22850
 0029A6 50E0 D000/9008_      00000 22851              CATOPTDK PROC
 USING  *,R7
 0029C0 9620 6000      00000       22890                       SET   SHCTDSK
 0029C4 94EF 6000      00000       22896                       CLEAR SHCTTAP
 0029C8 1BFF                       22903                       CLEAR R15
 0029CA 18D8/9808 D004_            22907                       PEND
 DROP   *,R7
                                   22927
 0029D8 50E0 D000/9008_      00000 22928              CATOPTTA PROC
 USING  *,R7
 0029F2 9610 6000      00000       22967                       SET   SHCTTAP
 0029F6 94DF 6000      00000       22973                       CLEAR SHCTDSK
 0029FA 1BFF                       22980                       CLEAR R15
 0029FC 18D8/9808 D004_            22984                       PEND
 DROP   *,R7
                                   23004
 002A0A 50E0 D000/9008_      00000 23005              CATINT   PROC
 USING  *,R7
 002A24 9640 6000      00000       23044                       SET   SHCTINT
 002A28 1BFF                       23050                       CLEAR R15
 002A2A 18D8/9808 D004_            23054                       PEND
 DROP   *,R7
                                   23074
 002A38 50E0 D000/9008_      00000 23075              CATSCRT  PROC
 USING  *,R7
 002A52 9604 6000      00000       23114                       SET   SHCTSCR
 002A56 1BFF                       23120                       CLEAR R15
 002A58 18D8/9808 D004_            23124                       PEND
 DROP   *,R7
                                   23144                       QLTORG
 DROP   SHCTARGS,R6                23169                       DROP  R6
 DROP   FFINFO,R5                  23176                       DROP  R5
1DIR      (DIR2025) (12:41) (15MAR04) Get next line for display                                                             Page   44
0Current Usings:  (CP,R11) (CV,R12)
0Loc    Object Code    Addr1 Addr2  Stmt Lv Lineno    Source Statement           (Hibal 5, Asmedit 3.3)  HLASM R4.0  2004/03/15 12.41
+___    ______ ____    _____ _____  ____ __ ______    ______ _________
0                                  23185              *
                                   23186              *    This routine is called by the DSPCAT subroutine to get the
                                   23187              *    next line for display.
                                   23188              *
                                   23189              *    On entry:
                                   23190              *      R1  -  Points to the SHOW CATALOG work area which
                                   23191              *             contains a work area used by this routine.
                                   23192              *
                                   23193              *      PAR -  Points to the current page being displayed.
                                   23194              *
                                   23195              *    On output:
                                   23196              *      R0,R1 - describe the length and location of the retrieved
                                   23197              *              line
                                   23198              *      R15=0   means a line was retrieved
                                   23199              *         =NZ  means EOF (no more lines in the display).
                                   23200              *
 002AF8 50E0 D000/9008_      00000 23201              NEXTCTLN PROC  ,
 USING  *,R7
 002B12 1861                       23240                       LR    R6,R1
 USING  SHCTARGS,R6                23241                       USING SHCTARGS,R6
                                   23250
 002B14 5810 6324            00324 23251                       L     R1,SHCTCPG          Make sure we have the page in core
 002B18 8910 0002            00002 23252                       SLL   R1,2
 002B1C 5801 6194            00194 23253                       L     R0,SHCTPAGS(R1)
 002B20 58E0 70C6/0DEE       02BD8 23254                       PGET  PAR,(R0)
                                   23262
 002B26 4830 9000            00000 23263                       LH    R3,@PAR
 002B2A 5930 6328/4730_      00328 23264                       IF    (SHCTCOFF,GE,R3),BEGIN
 002B32 5810 6324            00324 23281  1                      L     R1,SHCTCPG
 002B36 4110 1001            00001 23282  1                      LA    R1,1(,R1)
 002B3A 4910 6190/47B0_      00190 23283  1                      IF    (R1,LT,SHCTPGCT),BEGIN
 002B42 5010 6324            00324 23300  2                        ST    R1,SHCTCPG
 002B46 D203 6328 70CA 00328 02BDC 23301  2                        MVC   SHCTCOFF,=F'2'
 002B4C 58E0 70CE/0DEE       02BE0 23302  2                        PFREE PAR,EMPTY
 002B52 5810 6324            00324 23308  2                        L     R1,SHCTCPG          Get the new page into core
 002B56 8910 0002            00002 23309  2                        SLL   R1,2
 002B5A 5801 6194            00194 23310  2                        L     R0,SHCTPAGS(R1)
 002B5E 58E0 70C6/0DEE       02BD8 23311  2                        PGET  PAR,(R0)
 002B64 4830 9000            00000 23319  2                        LH    R3,@PAR
 002B68 5930 6328/4730_      00328 23320  2                        FAIL  (R3,LE,SHCTCOFF),CATERR1,'NEXTCTLN error.'
 002B88                            23349  1                      END
 002B88 707A/47F0 7082 02B88 02B40 23353  1                      ELSE  BEGIN
 002B8C 41F0 0004            00004 23364  2                        LA    R15,4
 002B90 47F0 70B4            02BC6 23365  2                        B     NXTCTDON
 002B94                            23366  1                      END
 002B94                            23370                       END
                                   23374
 002B94 5820 6328            00328 23375                       L     R2,SHCTCOFF
 002B98 4112 9000            00000 23376                       LA    R1,0(R2,PAR)
 002B9C 1F00/4300 1000             23377                       LC    R0,@R1
 002BA2 5E10 70D2            02BE4 23382                       INCR  R1
 002BA6 1A20                       23385                       AR    R2,R0
 002BA8 5E20 70D2            02BE4 23386                       INCR  R2
 002BAC 5020 6328            00328 23389                       ST    R2,SHCTCOFF
1DIR      (DIR2025) (12:41) (15MAR04) Get next line for display                                                             Page   45
0Current Usings:  (SHCTARGS,R6) (*,R7) (CP,R11) (CV,R12)
0Loc    Object Code    Addr1 Addr2  Stmt Lv Lineno    Source Statement           (Hibal 5, Asmedit 3.3)  HLASM R4.0  2004/03/15 12.41
+___    ______ ____    _____ _____  ____ __ ______    ______ _________
0002BB0 1200/4770 70AE             23390                       IF    (R0,Z),BEGIN
 002BB6 58E0 70CE/0DEE       02BE0 23404  1                      PFREE PAR,EMPTY
 002BBC 41F0 0004            00004 23410  1                      LA    R15,4
 002BC0                            23411                       END
 002BC0 70B2/47F0 70B4 02BC0 02BB4 23415                       ELSE  BEGIN
 002BC4 1BFF                       23426  1                      CLEAR R15
 002BC6                            23430                       END
                                   23434
 002BC6                            23435              NXTCTDON LABEL
 002BC6 9001 8004            00004 23437                       PRETURN (R0,R1)
 002BCA 18D8/9808 D004_            23439                       PEND  ,
 DROP   *,R7
 DROP   SHCTARGS,R6                23459                       DROP  R6
                                   23466                       QLTORG ,
1DIR      (DIR2025) (12:41) (15MAR04) Release remaining display pages                                                       Page   46
0Current Usings:  (CP,R11) (CV,R12)
0Loc    Object Code    Addr1 Addr2  Stmt Lv Lineno    Source Statement           (Hibal 5, Asmedit 3.3)  HLASM R4.0  2004/03/15 12.41
+___    ______ ____    _____ _____  ____ __ ______    ______ _________
0                                  23484              *
                                   23485              *    This subroutine releases all pages containing the
                                   23486              *    information used by SHOW CATALOG.
                                   23487              *
                                   23488              *    On entry:
                                   23489              *      R1  -  Points to the SHOW CATALOG work area.
                                   23490              *
                                   23491              *    The current page (in PAR) and the remainder of the
                                   23492              *    pages not yet accessed in the array are released.
                                   23493              *
 002BE8 50E0 D000/9008_      00000 23494              RLSCTPGS PROC  ,
 USING  *,R7
 002C02 1861                       23533                       LR    R6,R1
 USING  SHCTARGS,R6                23534                       USING SHCTARGS,R6
 002C04 1299/4780 700E             23543                       IF    (PAR,NZ),BEGIN
 002C0A 58E0 716E/0DEE       02D70 23557  1                      PFREE PAR,EMPTY
 002C10                            23563                       END
 002C10 5830 6324            00324 23567                       L     R3,SHCTCPG
 002C14 5E30 7172            02D74 23568                       INCR  R3
 002C18 4930 6190/47B0_      00190 23571                       WHILE (R3,LT,SHCTPGCT),BEGIN
 002C20 1813                       23590  1                      LR    R1,R3
 002C22 8910 0002            00002 23591  1                      SLL   R1,2
 002C26 5821 6194            00194 23592  1                      L     R2,SHCTPAGS(R1)
 002C2A 1802/58E0 7176_            23593  1                      PGET  PAR,(R2)
 002C32 58E0 716E/0DEE       02D70 23602  1                      PFREE PAR,EMPTY
 002C38 4130 3001            00001 23608  1                      LA    R3,1(,R3)
 002C3C 47F0 7016            02C18 23609                       END
 DROP   SHCTARGS,R6                23614                       DROP  R6
 002C40 18D8/9808 D004_            23621                       PEND  ,
 DROP   *,R7
1DIR      (DIR2025) (12:41) (15MAR04) Handle scratch option of SHOW CATALOG                                                 Page   47
0Current Usings:  (CP,R11) (CV,R12)
0Loc    Object Code    Addr1 Addr2  Stmt Lv Lineno    Source Statement           (Hibal 5, Asmedit 3.3)  HLASM R4.0  2004/03/15 12.41
+___    ______ ____    _____ _____  ____ __ ______    ______ _________
0                                  23643              *
                                   23644              *   Prompt the user to see if it's okay to scratch the indicated
                                   23645              *   member and scratch it if so.
                                   23646              *
                                   23647              *   On entry:
                                   23648              *      R1 - Points to the DSNINFO work area
                                   23649              *      R2 - Points to the SHOW CATALOG work area
                                   23650              *
                                   23651              *   On output:
                                   23652              *      R15=0   If user wanted file scratched, file scratched,
                                   23653              *              else file not scratched.
                                   23654              *      R15>0   Some error occurred
                                   23655              *      R15<0   User pressed attention
                                   23656              *
 002C4E 50E0 D000/9008_      00000 23657              SCRCAT   PROC  FFINFO
 USING  *,R7
 USING  FFINFO-(4+36),R8
 002C68 1862                       23707                       LR    R6,R2
 USING  SHCTARGS,R6                23708                       USING SHCTARGS,R6
 002C6A 1841                       23717                       LR    R4,R1
 USING  DSNINFO,R4                 23718                       WITH  (DSNINFO,R4),BEGIN
 002C6C 4110 4002            00002 23732  1                      LA    R1,DSNDSN
 002C70 4100 002C            0002C 23733  1                      LA    R0,L'DSNDSN
 002C74 58E0 7114/0DEE       02D7C 23734  1                      VCALL RTRIM
 DROP   DSNINFO,R4                 23738                       END
 002C7A 1830                       23746                       LR    R3,R0
 002C7C 1841                       23747                       LR    R4,R1               Save filename information
 002C7E 4110 712E/4100_      02D96 23748                       SETMSG 'Scratch'
 002C86 58E0 7118/0DEE       02D80 23752                       VCALL YESRTN
 002C8C 4740 70E0            02D48 23756                       BM    SCRCTATN
 002C90 4770 70D8            02D40 23757                       BNZ   SCRCTABT            OK if we want to skip it
                                   23758
 002C94 9034 D000/41D0_      00000 23759                       XPUSH R3,R4
 002C9C 4120 8028            00000 23762                       LA    R2,FFINFO           Save the current
 002CA0 4130 03A0            003A0 23763                       LA    R3,L'FFINFO             FFINFO data
 002CA4 5840 BE54            00E54 23764                       L     R4,CPFINFOP
 002CA8 1853                       23765                       LR    R5,R3
 002CAA 0E24                       23766                       MVCL  R2,R4
 002CAC 5850 BE54            00E54 23767                       L     R5,CPFINFOP         Get the FFINFO
 USING  FFINFO,R5                  23768                       WITH  (FFINFO,R5),BEGIN
 002CB0 D703 5110 5110 00110 00110 23782  1                      CLEAR FFOPTSL             No options
 002CB6 D703 5214 5214 00214 00214 23789  1                      CLEAR FFRNAMEL
 002CBC 4BD0 712C/9823_      02D94 23796  1                      XPOP  R2,R3               Recover file name
 002CC4 5020 5214            00214 23799  1                      ST    R2,FFRNAMEL
 002CC8 5020 5008            00008 23800  1                      ST    R2,FFNAMEL
 002CCC 0620/1222/4740_            23801  1                      MOVE  R2,FFRNAME,@R3
 002CD8 5820 5008            00008 23839  1                      L     R2,FFNAMEL
 002CDC 0620/1222/4740_            23840  1                      MOVE  R2,FFNAME,FFRNAME
 002CE8 58E0 711C/0DEE       02D84 23878  1                      VCALL WGSCRTCH            Scratch the file
 002CEE 4780 709E            02D06 23882  1                      IF    NZ,BEGIN
 002CF2 D507 7100 B886_02D68 00886 23893  2                        IF    (CPERRID,EQ,'NOTYOURS'),BEGIN
 002CFC 94FB 6000      00000       23910  3                          CLEAR SHCTSCR             Don't scratch any more
 002D00                            23917  2                        END
 002D00 D707 B886 B886 00886 00886 23921  2                        CLEAR CPERRID
1DIR      (DIR2025) (12:41) (15MAR04) Handle scratch option of SHOW CATALOG                                                 Page   48
0Current Usings:  (FFINFO,R5) (SHCTARGS,R6) (*,R7) (FFINFO-(4+36),R8) (CP,R11) (CV,R12)
0Loc    Object Code    Addr1 Addr2  Stmt Lv Lineno    Source Statement           (Hibal 5, Asmedit 3.3)  HLASM R4.0  2004/03/15 12.41
+___    ______ ____    _____ _____  ____ __ ______    ______ _________
0002D06                            23928  1                      END
 002D06 D603 B05C B05C_0005C 0005C 23932  1                      TCCR
 002D26 58E0 7124/0DEE       02D8C 23994  1                      ACALL CTWRITE             Write out the message
 DROP   FFINFO,R5                  23998                       END
                                   24006
 002D2C 4140 8028            00000 24007                       LA    R4,FFINFO           Restore the original
 002D30 4130 03A0            003A0 24008                       LA    R3,L'FFINFO             FFINFO data
 002D34 5820 BE54            00E54 24009                       L     R2,CPFINFOP
 002D38 1853                       24010                       LR    R5,R3
 002D3A 0E24                       24011                       MVCL  R2,R4
 002D3C 47F0 70E8            02D50 24012                       B     SCRCTOK
                                   24013
 002D40                            24014              SCRCTABT LABEL
 002D40 41F0 0004            00004 24016                       LA    R15,4
 002D44 47F0 70EE            02D56 24017                       B     SCRCTDON
                                   24018
 002D48                            24019              SCRCTATN LABEL
 002D48 58F0 7128            02D90 24021                       L     R15,=F'-4'
 002D4C 47F0 70EE            02D56 24022                       B     SCRCTDON
                                   24023
 002D50 1BFF                       24024              SCRCTOK  CLEAR R15
 002D52 47F0 70EE            02D56 24029                       B     SCRCTDON
                                   24030
 002D56                            24031              SCRCTDON LABEL
 002D56 18D8/9808 D004_            24033                       PEND  ,
 DROP   FFINFO-(4+36),R8
 DROP   *,R7
1DIR      (DIR2025) (12:41) (15MAR04) Handle scratch option of SHOW CATALOG                                                 Page   49
0Current Usings:  (SHCTARGS,R6) (CP,R11) (CV,R12)
0Loc    Object Code    Addr1 Addr2  Stmt Lv Lineno    Source Statement           (Hibal 5, Asmedit 3.3)  HLASM R4.0  2004/03/15 12.41
+___    ______ ____    _____ _____  ____ __ ______    ______ _________
0                                  24059                       QLTORG
1DIR      (DIR2025) (12:41) (15MAR04) Build SHOW CAT INTERNAL output line                                                   Page   50
0Current Usings:  (SHCTARGS,R6) (CP,R11) (CV,R12)
0Loc    Object Code    Addr1 Addr2  Stmt Lv Lineno    Source Statement           (Hibal 5, Asmedit 3.3)  HLASM R4.0  2004/03/15 12.41
+___    ______ ____    _____ _____  ____ __ ______    ______ _________
0                                  24084              *
                                   24085              * This routine formats a line in INTERNAL format for SHOW CATALOG.
                                   24086              *
                                   24087              * Input:
                                   24088              *
                                   24089              *    R2     - Points to the DSNINFO record containing the information
                                   24090              *             for the dataset in question.
                                   24091              *
                                   24092              *
 002DAA 50E0 D000/9008_      00000 24093              DSPCATIN XPROC
 USING  *,R7
 002DC4 1842                       24133                       LR    R4,R2
 USING  DSNINFO,R4                 24134                       WITH  (DSNINFO,R4),BEGIN
                                   24148  1           *         IF    SHCTVOL,BEGIN
 002DC6 4110 402E/4100_      0002E 24149  1                      TSEG   DSNVOL,L'DSNVOL,B
 002DD8 4110 4035/4100_      00035 24179  1                      TSEG   DSNDEVTP,L'DSNDEVTP
 002DEA 95E3 4035/4770_00035       24209  1                      IF    (DSNDEVTP,EQ,'T'),BEGIN
 002DF2 4110 4036/4100_      00036 24226  2                        DTB   DSNFLSQ,L'DSNFLSQ
 002E00 182F                       24247  2                        LR    R2,R15
 002E02 1812/4100 0004_            24248  2                        TNUM  (R2),4
 002E12 4110 403A/4100_      0003A 24273  2                        DTB   DSNVLCT,L'DSNVLCT
 002E20 182F                       24294  2                        LR    R2,R15
 002E22 1812/4100 0003_            24295  2                        TNUM  (R2),3
 002E32                            24320  1                      END
 002E32 7072/47F0 7084 02E32 02DF0 24324  1                      ELSE  BEGIN
 002E36 4110 C4D8/4100_      004D8 24335  2                        TSEG   CVBLANKS,7
 002E48                            24365  1                      END
                                   24369  1           *         END
                                   24370  1           *         IF    SHCTUNIT,BEGIN
 002E48 4110 C4D8/4100_      004D8 24371  1                      TSEG   CVBLANKS,1
 002E5A 4110 403E/4100_      0003E 24401  1                      TSEG   DSNUCBTP,L'DSNUCBTP,B
                                   24431  1           *         END
 DROP   DSNINFO,R4                 24432                       END
 002E6C 18D8/9808 D004_            24440                       PEND  ,
 DROP   *,R7
1DIR      (DIR2025) (12:41) (15MAR04) Build SHOW CAT INTERNAL output line                                                   Page   51
0Current Usings:  (SHCTARGS,R6) (CP,R11) (CV,R12)
0Loc    Object Code    Addr1 Addr2  Stmt Lv Lineno    Source Statement           (Hibal 5, Asmedit 3.3)  HLASM R4.0  2004/03/15 12.41
+___    ______ ____    _____ _____  ____ __ ______    ______ _________
0                                  24461                       QLTORG
1DIR      (DIR2025) (12:41) (15MAR04) Build SHOW CAT output line                                                            Page   52
0Current Usings:  (SHCTARGS,R6) (CP,R11) (CV,R12)
0Loc    Object Code    Addr1 Addr2  Stmt Lv Lineno    Source Statement           (Hibal 5, Asmedit 3.3)  HLASM R4.0  2004/03/15 12.41
+___    ______ ____    _____ _____  ____ __ ______    ______ _________
0                                  24478              *
                                   24479              * This routine formats a line for SHOW CATALOG.
                                   24480              *
                                   24481              * Input:
                                   24482              *
                                   24483              *    R2     - Points to the DSNINFO record containing the information
                                   24484              *             for the dataset in question.
                                   24485              *
                                   24486              *
 002E90 50E0 D000/9008_      00000 24487              DSPCATEX XPROC
 USING  *,R7
 002EAA 1842                       24527                       LR    R4,R2
 USING  DSNINFO,R4                 24528                       WITH  (DSNINFO,R4),BEGIN
                                   24542  1           *
                                   24543  1           * Write out the filename
                                   24544  1           *
 002EAC 4110 4002            00002 24545  1                      LA    R1,DSNDSN
 002EB0 4100 002C            0002C 24546  1                      LA    R0,L'DSNDSN
 002EB4 58E0 714E/0DEE       02FF8 24547  1                      VCALL RTRIM
 002EBA 5850 BE54            00E54 24551  1                      L     R5,CPFINFOP         Get the FFINFO
 USING  FFINFO,R5                  24552  1                      WITH  (FFINFO,R5),BEGIN
 002EBE 5000 5214            00214 24566  2                        ST    R0,FFRNAMEL
 002EC2 1820                       24567  2                        LR    R2,R0
 002EC4 0620/1222/4740_            24568  2                        MOVE  R2,FFRNAME,@R1
 002ED0 95C4 4035/4770_00035       24606  2                        IF    (DSNDEVTP,EQ,'D'),'LA R2,1'
 002EDC 7036/47F0 7038_02EDC 02ED6 24629  2                        ELSE  'CLEAR R2'
 002EE2 58E0 7152/0DEE       02FFC 24649  2                        ACALL SEGFILE
 DROP   FFINFO,R5                  24653  1                      END
                                   24661  1
 002EE8 95C2 4000/4780_00000       24662  1                      IF    (DSNCATTP,NE,'B'),BEGIN
                                   24679  2
 002EF0 9180 6000/47E0_00000       24680  2                        IF    SHCTVOL,BEGIN
 002EF8 4110 7180/4100_      0302A 24695  3                          TSEG  'on '
 002F0A 4110 402E/4100_      0002E 24713  3                          TSEG  DSNVOL,L'DSNVOL,T
 002F1C 95E3 4035/4770_00035       24743  3                          IF    (DSNDEVTP,EQ,'T'),BEGIN
 002F24 4110 7183/4100_      0302D 24760  4                            TSEG  ', file '
 002F36 4110 4036/4100_      00036 24778  4                            DTB   DSNFLSQ,L'DSNFLSQ
 002F44 181F                       24799  4                            LR    R1,R15
 002F46 1B00/41F0 B050_            24800  4                            TNUM  (R1)
 002F52 4110 403A/4100_      0003A 24821  4                            DTB   DSNVLCT,L'DSNVLCT
 002F60 182F                       24842  4                            LR    R2,R15
 002F62 5920 7166/47D0_      03010 24843  4                            IF    (R2,GT,1),BEGIN
 002F6A 4110 718A/4100_      03034 24860  5                              TSEG  ',',,B
 002F7C 1812/1B00/41F0_            24878  5                              TNUM  (R2)
 002F8A 4110 7146/4100_      02FF0 24900  5                              TSEG  ' volumes'
 002F9C                            24918  4                            END
 002F9C                            24922  3                          END
 002F9C                            24926  2                        END
                                   24930  2
 002F9C 9108 6000/47E0_00000       24931  2                        IF    SHCTUNIT,BEGIN
 002FA4 4110 717A/4100_      03024 24946  3                          TSEG  ' Unit '
 002FB6 1803                       24964  3                          LR    R0,R3
 002FB8 5B00 716E            03018 24965  3                          S     R0,=A(DSNDVDES-DSNCATTP)
 002FBC 5900 7172/47D0_      0301C 24966  3                          CEIL  R0,L'DSNDVDES
1DIR      (DIR2025) (12:41) (15MAR04) Build SHOW CAT output line                                                            Page   53
0Current Usings:  (DSNINFO,R4) (SHCTARGS,R6) (*,R7) (CP,R11) (CV,R12)
0Loc    Object Code    Addr1 Addr2  Stmt Lv Lineno    Source Statement           (Hibal 5, Asmedit 3.3)  HLASM R4.0  2004/03/15 12.41
+___    ______ ____    _____ _____  ____ __ ______    ______ _________
0002FC8 4110 4047/41F0_      00047 24985  3                          TSEG  DSNDVDES,(R0),T
 002FD6                            25012  2                        END
                                   25016  2
 002FD6                            25017  1                      END
                                   25021  1
 002FD6 7130/47F0 7136 02FD6 02EEE 25022  1                      ELSE  BEGIN
 002FDA 58E0 7176/0DEE       03020 25033  2                        ACALL CATTYPE
 002FE0                            25037  1                      END
                                   25041  1
 DROP   DSNINFO,R4                 25042                       END
 002FE0 18D8/9808 D004_            25050                       PEND  ,
 DROP   *,R7
1DIR      (DIR2025) (12:41) (15MAR04) Build SHOW CAT output line                                                            Page   54
0Current Usings:  (SHCTARGS,R6) (CP,R11) (CV,R12)
0Loc    Object Code    Addr1 Addr2  Stmt Lv Lineno    Source Statement           (Hibal 5, Asmedit 3.3)  HLASM R4.0  2004/03/15 12.41
+___    ______ ____    _____ _____  ____ __ ______    ______ _________
0                                  25071                       QLTORG
1DIR      (DIR2025) (12:41) (15MAR04) Output for SHOW CATALOG                                                               Page   55
0Current Usings:  (SHCTARGS,R6) (CP,R11) (CV,R12)
0Loc    Object Code    Addr1 Addr2  Stmt Lv Lineno    Source Statement           (Hibal 5, Asmedit 3.3)  HLASM R4.0  2004/03/15 12.41
+___    ______ ____    _____ _____  ____ __ ______    ______ _________
0                                  25100              *
                                   25101              *    On entry:
                                   25102              *      R1  -  Points to the SHOW CATALOG work area,
                                   25103              *             which contains the page array and options
                                   25104              *
                                   25105              *             The first halfword on each page is the total
                                   25106              *             number of bytes of information on that page.
                                   25107              *             Each line on the page is preceded by a byte
                                   25108              *             which indicates the line length. A zero byte
                                   25109              *             indicates all done.
                                   25110              *
 00303C 50E0 D000/9008_      00000 25111              DSPCAT   PROC  ,
 USING  *,R7
 003056 1861                       25150                       LR    R6,R1
                                   25151                       USING SHCTARGS,R6
                                   25153
 003058 5800 6194            00194 25154                       L     R0,SHCTPAGS
 00305C 58E0 710A/0DEE       03160 25155                       PGET  PAR,(R0)
 003062 D703 6324 6324 00324 00324 25163                       CLEAR SHCTCPG
 003068 D203 6328 710E 00328 03164 25170                       MVC   SHCTCOFF,=F'2'
                                   25171
 00306E 4110 6000            00000 25172                       LA    R1,SHCTARGS
 003072 58E0 7112/0DEE       03168 25173                       ACALL NEXTCTLN
                                   25177
 003078 12FF/4770 70F2             25178                       WHILE (R15,Z),BEGIN
                                   25194  1
 00307E 1841                       25195  1                      LR    R4,R1
 003080 1830                       25196  1                      LR    R3,R0
 USING  DSNINFO,R4                 25197  1                      WITH  (DSNINFO,R4),BEGIN
 003082 954E 4000/4780_00000       25211  2                        IF    (DSNCATTP,NE,'+'),BEGIN
                                   25228  3
 00308A 9140 6000/47E0_00000       25229  3                          IF    (SHCTINT),BEGIN
 003092 4110 4000/4100_      00000 25244  4                            TSEG  DSNCATTP,L'DSNCATTP,B
 0030A4 4110 4002/4100_      00002 25274  4                            TSEG  DSNDSN,L'DSNDSN
 0030B6 95C1 4000/4770_00000       25304  4                            IF    (DSNCATTP,EQ,'A'),BEGIN
 0030BE 1824                       25321  5                              LR    R2,R4
 0030C0 58E0 711E/0DEE       03174 25322  5                              ACALL DSPCATIN
 0030C6                            25326  4                            END
 0030C6                            25330  3                          END
                                   25334  3
 0030C6 7074/47F0 7084 030C6 03090 25335  3                          ELSE  BEGIN
 0030CA 95E7 4000/4780_00000       25346  4                            IF    (DSNCATTP,EQ,'X'),DSPCNEXT
 0030D2 1824                       25366  4                            LR    R2,R4
 0030D4 58E0 7122/0DEE       03178 25367  4                            ACALL DSPCATEX
 0030DA                            25371  3                          END
                                   25375  3
 0030DA D603 B05C B05C_0005C 0005C 25376  3                          TCCR
 0030FA 58E0 712A/0DEE       03180 25438  3                          ACALL CTWRITE
 003100 4780 70B2/47F0_      03108 25442  3                          IF    NZ,'B DSPCXIT'
 003108 70B6/47F0 70E4 03108 03102 25459  3                          ELSE  BEGIN
                                   25470  4         C                  IF    ((SHCTSCR),AND,
                                          4         C                        (DSNCATTP,EQ,'A'),AND,
 00310C 9104 6000/47E0_00000              4                                  (DSNDEVTP,EQ,'D')),BEGIN
 003124 4110 4000            00000 25515  5                              LA    R1,DSNINFO
1DIR      (DIR2025) (12:41) (15MAR04) Output for SHOW CATALOG                                                               Page   56
0Current Usings:  (DSNINFO,R4) (SHCTARGS,R6) (*,R7) (CP,R11) (CV,R12)
0Loc    Object Code    Addr1 Addr2  Stmt Lv Lineno    Source Statement           (Hibal 5, Asmedit 3.3)  HLASM R4.0  2004/03/15 12.41
+___    ______ ____    _____ _____  ____ __ ______    ______ _________
0003128 4120 6000            00000 25516  5                              LA    R2,SHCTARGS
 00312C 58E0 712E/0DEE       03184 25517  5                              ACALL SCRCAT
 003132 47B0 70E4/47F0_      0313A 25521  5                              IF    M,'B DSPCXIT'
 00313A                            25538  4                            END
 00313A                            25542  3                          END
 00313A                            25546  2                        END
 00313A                            25550  2           DSPCNEXT     LABEL ,
 00313A 4110 6000            00000 25552  2                        LA    R1,SHCTARGS
 00313E 58E0 7112/0DEE       03168 25553  2                        ACALL NEXTCTLN
 DROP   DSNINFO,R4                 25557  1                      END
 003144 47F0 7022            03078 25565                       END
                                   25570
 003148                            25571              DSPCXIT  LABEL
 003148 4110 6000            00000 25573                       LA    R1,SHCTARGS
 00314C 58E0 7132/0DEE       03188 25574                       ACALL RLSCTPGS
 003152 18D8/9808 D004_            25578                       PEND  ,
 DROP   *,R7
                                   25598
                                   25599                       QLTORG
 DROP   SHCTARGS,R6                25622                       DROP  R6
                                   25629                       DROP  R5
1DIR      (DIR2025) (12:41) (15MAR04) Output for SHOW CATALOG                                                               Page   57
0Current Usings:  (CP,R11) (CV,R12)
0Loc    Object Code    Addr1 Addr2  Stmt Lv Lineno    Source Statement           (Hibal 5, Asmedit 3.3)  HLASM R4.0  2004/03/15 12.41
+___    ______ ____    _____ _____  ____ __ ______    ______ _________
000318C 50E0 D000/9008_      00000 25634              CATTYPE  PROC  ,
 USING  *,R7
 0031A6 4110 706A/4100_      03210 25673                       TSEG  '-',,B              Add separator to message
 0031B8 5810 7066            0320C 25691                       L     R1,=A(CATTAB)       Address of conversion table
 0031BC 1B00                       25692                       CLEAR R0                  Loop control register
 0031BE                            25696                       LOOP  BEGIN               Go find the entry
 0031BE D500 4000 1000 00000 00000 25702  1                      CLC   @R4(1),@R1          Do we have ignition?
 0031C4 4780 702A/9540_      031D0 25703  1                      IF    (E,OR,(@R1,EQ,' ')),BEGIN  Add type to message
 0031D0 4300 1001            00001 25729  2                        IC    R0,@R1+1            Set message length
 0031D4 4110 1002            00002 25730  2                        LA    R1,@R1+2            And message address
 0031D8 7036/47F0 7042 031D8 031CE 25731  1                      END   ELSE,BEGIN          Nope -- bump to next message
 0031DC 4300 1001            00001 25746  2                        IC    R0,@R1+1            Get length
 0031E0 1A10                       25747  2                        AR    R1,R0               Bump address
 0031E2 4110 1002            00002 25748  2                        LA    R1,@R1+2            By correct amount
 0031E6 1B00                       25749  2                        CLEAR R0                  Zero for next pass
 0031E8                            25753  1                      END
 0031E8 1200/4780 7018             25757                       UNTIL (R0,NZ),END         Loop until entry found
 0031EE 41F0 B050/58E0_      00050 25779                       TSEG  (R1),(R0),B         Finish off message
 0031F8 18D8/9808 D004_            25803                       PEND ,
 DROP   *,R7
                                   25823                       QLTORG
1DIR      (DIR2025) (12:41) (15MAR04) Output for SHOW CATALOG                                                               Page   58
0Current Usings:  (CP,R11) (CV,R12)
0Loc    Object Code    Addr1 Addr2  Stmt Lv Lineno    Source Statement           (Hibal 5, Asmedit 3.3)  HLASM R4.0  2004/03/15 12.41
+___    ______ ____    _____ _____  ____ __ ______    ______ _________
0003212                            25839              CATTAB   LABEL
 003212 C1                         25841                       DC    C'A'                ALIEN TYPE
 003213 08                         25842                       DC    AL1(L'CTATYP)
 003214 C481A38140A285A3           25843              CTATYP   DC    C'Data set'
 00321C C2                         25844                       DC    C'B'                GENERATION DATA GROUP BASE
 00321D 08                         25845                       DC    AL1(L'CTBTYP)
 00321E C7C4C7408281A285           25846              CTBTYP   DC    C'GDG base'
 003226 C3                         25847                       DC    C'C'                VSAM CLUSTER ASSOCIATION
 003227 0C                         25848                       DC    AL1(L'CTCTYP)
 003228 E5A28194408393A4           25849              CTCTYP   DC    C'Vsam cluster'
 003234 C4                         25850                       DC    C'D'                VSAM DATA
 003235 09                         25851                       DC    AL1(L'CTDTYP)
 003236 E5A28194408481A3           25852              CTDTYP   DC    C'Vsam data'
 00323F C6                         25853                       DC    C'F'                FREE (Hummm?, beats me)
 003240 04                         25854                       DC    AL1(L'CTFTYP)
 003241 C6998585                   25855              CTFTYP   DC    C'Free'
 003245 C7                         25856                       DC    C'G'                ALTERNATE INDEX
 003246 0F                         25857                       DC    AL1(L'CTGTYP)
 003247 C193A385999581A3           25858              CTGTYP   DC    C'Alternate index'
 003256 C9                         25859                       DC    C'I'                INDEX POINTER
 003257 05                         25860                       DC    AL1(L'CTITYP)
 003258 C9958485A7                 25861              CTITYP   DC    C'Index'
 00325D D4                         25862                       DC    C'M'                MASTER CATALOG
 00325E 0E                         25863                       DC    AL1(L'CTMTYP)
 00325F D481A2A385994083           25864              CTMTYP   DC    C'Master catalog'
 00326D D7                         25865                       DC    C'P'                PAGE SPACE
 00326E 0A                         25866                       DC    AL1(L'CTPTYP)
 00326F D781878540A29781           25867              CTPTYP   DC    C'Page space'
 003279 D9                         25868                       DC    C'R'                PATH
 00327A 04                         25869                       DC    AL1(L'CTRTYP)
 00327B D781A388                   25870              CTRTYP   DC    C'Path'
 00327F E4                         25871                       DC    C'U'                USERCATALOG ENTRY
 003280 0C                         25872                       DC    AL1(L'CTUTYP)
 003281 E4A28599408381A3           25873              CTUTYP   DC    C'User catalog'
 00328D E5                         25874                       DC    C'V'                VOLUME
 00328E 06                         25875                       DC    AL1(L'CTVTYP)
 00328F E59693A49485               25876              CTVTYP   DC    C'Volume'
 003295 E7                         25877                       DC    C'X'                ALIAS NAME
 003296 0A                         25878                       DC    AL1(L'CTXTYP)
 003297 C1938981A2409581           25879              CTXTYP   DC    C'Alias name'
 0032A1 40                         25880                       DC    C' '                STOPPER ELEMENT
 0032A2 07                         25881                       DC    AL1(L'CTUNK)
 0032A3 E495929596A695             25882              CTUNK    DC    C'Unknown'
1DIR      (DIR2025) (12:41) (15MAR04) SHOW DIRECTORY Command                                                                Page   59
0Current Usings:  (CP,R11) (CV,R12)
0Loc    Object Code    Addr1 Addr2  Stmt Lv Lineno    Source Statement           (Hibal 5, Asmedit 3.3)  HLASM R4.0  2004/03/15 12.41
+___    ______ ____    _____ _____  ____ __ ______    ______ _________
0                                  25884              ¿þþþþþþþþþþþþþþþþþþþþþþþþþþþþþþþþþþþþþþþþþþþþþþþþþþþþþþþþþþþþþþþþþþþþþÜ
                                   25885              Ÿ                                                                     Ÿ
                                   25886              Ÿ  SHOWDIR -- SHOW DIRECTORY Command.                                 Ÿ
                                   25887              Ÿ                                                                     Ÿ
                                   25888              Ÿ  SHOW DIR BROKEN OUT INTO FILE TYPE (SAM,NET,WINGS,ETC)             Ÿ
                                   25889              Ÿ  CODE.                                                              Ÿ
                                   25890              Ÿ                                                                     Ÿ
                                   25891              Ÿ                                                                     Ÿ
                                                      ¾þþþþþþþþþþþþþþþþþþþþþþþþþþþþþþþþþþþþþþþþþþþþþþþþþþþþþþþþþþþþþþþþþþþþþ»
00032AA 50E0 D000/9008_      00000 25892              SHOWDIR  XPROC SHDRARGS
 USING  *,R7
 USING  SHDRARGS-(4+36),R8
 0032C4 4160 8028            00000 25943                       LA    R6,SHDRARGS
 USING  SHDRARGS,R6                25944                       USING SHDRARGS,R6
 0032C8 D763 6000 6000 00000 00000 25953                       CLEAR SHDRARGS
                                   25960              *
                                   25961              *  Remove this when we make the default for ALL the new
                                   25962              *  format as opposed to the old format.
                                   25963              *
                                   25964              *  Removed 10/17/95 M. Durket
                                   25965              *
                                   25966              *        SET   SHDROLD             Default is old format if ALL
                                   25967              *
 0032CE 58E0 78AC/0DEE       03B70 25968                       VCALL MKFFINFO
 0032D4 5850 BE54            00E54 25972                       L     R5,CPFINFOP
 USING  FFINFO,R5                  25973                       USING FFINFO,R5
                                   25982              *
                                   25983              *
                                   25984                       COMMENT                   SCAN SHOW DIR OPTIONS
 0032D8 5810 B08C/1B00_      0008C 25985                       SCAN  MBRONPRT
 00332A 58E0 78B8/0DEE       03B7C 26017                       SCANCHK
                                   26022
                                   26023                       COMMENT                   VALIDITY
 003330 9108 6000/47E0_00000       26024                       IF    (SHDRSCR,AND,CPFDUMP),BEGIN
 003340 4110 798A/4100_      03C4E 26053  1                      TSEG  'SCRATCH',,B        Tell which bad option
 003352 4110 7991/4100_      03C55 26071  1                      ERROR 'conflicts with dump command or collect options.'
 00335E                            26078                       END
                                   26082
                                   26083                       COMMENT                   VALIDITY
 00335E 9108 6000/47E0_00000       26084                       IF    (SHDRSCR,AND,SHDRTAB),BEGIN
 00336E 4110 798A/4100_      03C4E 26113  1                      TSEG  'SCRATCH',,B        Tell which bad option
 003380 4110 78C0/4100_      03B84 26131  1                      ERROR 'conflicts with TABLE option.'
 00338C                            26138                       END
                                   26142
                                   26143                       COMMENT                   IF NO DIR SPECIFIED, USE DEFAULT
 00338C D503 78A4 5008_03B68 00008 26144                       IF    (FFNAMEL,EQ,0),BEGIN
 003396 9604 6000      00000       26162  1                      SET   SHDRDFLT
 00339A D202 500C 79C0 0000C 03C84 26168  1                      MVC   FFNAME(3),=CL3'LIB'
 0033A0 D203 5008 78DC 00008 03BA0 26169  1                      MVC   FFNAMEL,=A(3)
                                   26170  1                      COMMENT                   IF LIB SET, USE IT
                                   26171  1                      COMMENT                   ** DEBUG ** SET LIB VS. SET FPRE
 0033A6 4110 B8AB/4100_      008AB 26172  1                      SETMSG CPLIB,L'CPLIB
 0033AE 9540 1000/4780_00000       26188  1                      IF    ((@R1,NE,' '),AND,(@R1,NE,X'00')),BEGIN
1DIR      (DIR2025) (12:41) (15MAR04) SHOW DIRECTORY Command                                                                Page   60
0Current Usings:  (FFINFO,R5) (SHDRARGS,R6) (*,R7) (SHDRARGS-(4+36),R8) (CP,R11) (CV,R12)
0Loc    Object Code    Addr1 Addr2  Stmt Lv Lineno    Source Statement           (Hibal 5, Asmedit 3.3)  HLASM R4.0  2004/03/15 12.41
+___    ______ ____    _____ _____  ____ __ ______    ______ _________
00033BE D207 500C B8AB 0000C 008AB 26219  2                        MVC   FFNAME(L'CPLIB),CPLIB
 0033C4 58E0 78E0/0DEE       03BA4 26220  2                        VCALL LRTRIM
 0033CA 5000 5008            00008 26224  2                        ST    R0,FFNAMEL
 0033CE                            26225  1                      END
 0033CE                            26229                       END
                                   26233
 0033CE 58E0 78E4/0DEE       03BA8 26234                       VCALL FNAMEFIN            Process dsname parameters
                                   26238
                                   26239                       COMMENT                   SAMSON SHOW DIRECTORY
 0033D4 9503 5000/4770_00000       26240                       IF    FFFSAM,BEGIN
 0033DC 9104 6000/47E0_00000       26255  1                      IF    SHDRDFLT,BEGIN
 0033E4 D703 5008 5008 00008 00008 26270  2                        CLEAR FFNAMEL
 0033EA D701 BF04 BF04 00F04 00F04 26277  2                        CLEAR DSNWLEN             ** DEBUG ** DEL LINE 1/92
 0033F0                            26284  1                      END
 0033F0 9180 BD52/47E0_00D52       26288  1                      IF    CPLFLG3.CPFSET,BEGIN
 0033F8 4110 7932/4100_      03BF6 26304  2                        TSEG  'SET option ignored for SHOW DIRECTORY.',,CR
 00340A                            26322  1                      END
 00340A 4110 6020/5800_      00020 26326  1                      SETMSG SHDRLIKE,L:SHDRLIKL
 003412 58E0 78EC/0DEE       03BB0 26340  1                      VCALL SAMDIR              Do Samson show directory
 003418 4770 C7DA            007DA 26344  1                      BNZ   CVABORT             It didn't work, scram
 00341C 47F0 C7DE            007DE 26345  1                      B     CVNEXT
 003420                            26346                       END
                                   26350              *
                                   26351              *
                                   26352                       COMMENT                   NETWORK SHOW DIRECTORY
 003420 9504 5000/4770_00000       26353                       IF    FFFNET,BEGIN
 003428 9104 6000/47E0_00000       26368  1                      IF    SHDRDFLT,BEGIN
 003430 D703 5008 5008 00008 00008 26383  2                        CLEAR FFNAMEL
 003436 D701 BF04 BF04 00F04 00F04 26390  2                        CLEAR DSNWLEN             ** DEBUG ** DEL LINE 1/92
 00343C                            26397  1                      END
 00343C 9180 BD52/47E0_00D52       26401  1                      IF    CPLFLG3.CPFSET,BEGIN
 003444 4110 7932/4100_      03BF6 26417  2                        TSEG  'SET option ignored for SHOW DIRECTORY.',,CR
 003456                            26435  1                      END
 003456 4110 6020/5800_      00020 26439  1                      SETMSG SHDRLIKE,L:SHDRLIKL
 00345E 58E0 78F0/0DEE       03BB4 26453  1                      VCALL NETDIR              Do network show directory
 003464 4770 C7DA            007DA 26457  1                      BNZ   CVABORT             It didn't work, scram
 003468 47F0 C7DE            007DE 26458  1                      B     CVNEXT
 00346C                            26459                       END
                                   26463              *
                                   26464              *
                                   26465                       COMMENT                   WINGS SHOW DIRECTORY
 00346C 9501 5000/4770_00000       26466                       IF    FFFWINGS,BEGIN
 003474 58E0 78F4/0DEE       03BB8 26481  1                      VCALL NRESOLVE
 00347A 5800 5214            00214 26485  1                      L     R0,FFRNAMEL
 00347E 4110 5218            00218 26486  1                      LA    R1,FFRNAME
 003482 58E0 78F8/0DEE       03BBC 26487  1                      VCALL RETFNAME
 003488 5000 5214            00214 26491  1                      ST    R0,FFRNAMEL
 00348C 4110 6000            00000 26492  1                      LA    R1,SHDRARGS
 003490 58E0 78FC/0DEE       03BC0 26493  1                      VCALL WGSHODIR
 003496 9180 BD52/47E0_00D52       26497  1                      IF    CPLFLG3.CPFSET,'VCALL SETPFXNS'  set prefix
 0034A4 59F0 7904/4770_      03BC8 26522  1                      IF    (R15,EQ,4),BEGIN
 0034AC 47F0 C7D6            007D6 26539  2                        B     CVERROR
 0034B0                            26540  1                      END
 0034B0 59F0 7908/4770_      03BCC 26544  1                      IF    (R15,EQ,8),BEGIN
1DIR      (DIR2025) (12:41) (15MAR04) SHOW DIRECTORY Command                                                                Page   61
0Current Usings:  (FFINFO,R5) (SHDRARGS,R6) (*,R7) (SHDRARGS-(4+36),R8) (CP,R11) (CV,R12)
0Loc    Object Code    Addr1 Addr2  Stmt Lv Lineno    Source Statement           (Hibal 5, Asmedit 3.3)  HLASM R4.0  2004/03/15 12.41
+___    ______ ____    _____ _____  ____ __ ______    ______ _________
00034B8 D601 6030 6030_00030 00030 26561  2                        IF    (SHDRPGCT,Z),BEGIN
 0034C2 58E0 790C/0DEE       03BD0 26577  3                          VCALL NOMORPG
 0034C8                            26581  2                        END
 0034C8 4110 7958/4100_      03C1C 26585  2                        TSEG  'Too many directory items. Partial listing follows.'
 0034DA                            26603  1                      END
 0034DA D601 6030 6030_00030 00030 26607  1                      IF    (SHDRPGCT,Z),'B CVNEXT'
 0034E8 4110 6000            00000 26629  1                      LA    R1,SHDRARGS
 0034EC 58E0 7914/0DEE       03BD8 26630  1                      ACALL DSPDIR              No return
 0034F2 0000                       26634  1                      BOMB
 0034F4                            26636                       END
 0034F4 18D8/9808 D004_            26640                       PEND
 DROP   SHDRARGS-(4+36),R8
 DROP   *,R7
1DIR      (DIR2025) (12:41) (15MAR04) SHOW DIRECTORY Command                                                                Page   62
0Current Usings:  (FFINFO,R5) (SHDRARGS,R6) (CP,R11) (CV,R12)
0Loc    Object Code    Addr1 Addr2  Stmt Lv Lineno    Source Statement           (Hibal 5, Asmedit 3.3)  HLASM R4.0  2004/03/15 12.41
+___    ______ ____    _____ _____  ____ __ ______    ______ _________
0                                  26666              ¿þþþþþþþþþþþþþþþþþþþþþþþþþþþþþþþþþþþþþþþþþþþþþþþþþþþþþþþþþþþþþþþþþþþþþÜ
                                   26667              Ÿ                                                                     Ÿ
                                   26668              Ÿ  for show directory                                                 Ÿ
                                   26669              Ÿ                                                                     Ÿ
                                                      ¾þþþþþþþþþþþþþþþþþþþþþþþþþþþþþþþþþþþþþþþþþþþþþþþþþþþþþþþþþþþþþþþþþþþþþ»
0003504 C9D5404040404040_          26670              MBRONPRT SCKW  IN,FORFILE
 00352C C6D6D94040404040_          26685                       SCKW  FOR,FORFILE
 003554 C8C5E74040404040_          26700                       SCKW  HEX,SHDHEX
 00357C C1D3D34040404040_          26715                       SCKW  ALL,SHDALL
 0035A4 E2C3D9C1E3C3C840_          26730                       SCKW  SCRATCH,SHDSCR,A
 0035CC E3C1C2D3C5404040_          26745                       SCKW  TABLE,SHDTAB,A
 0035F4 C2D3D6C3D2E24040_          26760                       SCKW  BLOCKS,SHDBLK,A
 00361C D3C9D2C540404040_          26775                       SCKW  LIKE,MBRLIKE,(P,A)
 003644 C6D9D6D440404040_          26790                       SCKW  FROM,MBRFROM,(P,A)
 00366C E3D6404040404040_          26805                       SCKW  TO,MBRTO,P
 003694 E2C5E34040404040_          26820                       SCKW  SET,DIRSET
 0036BC D5D6E2C5E3404040_          26835                       SCKW  NOSET,DIRNOSET,A
 0036E4 D6D3C44040404040_          26850                       SCKW  OLD,OLDFMT
 00370C D5C5E64040404040_          26865                       SCKW  NEW,NEWFMT
                                   26880
 003734 4040404040404040_          26881                       SCKW  ,V(COLLPSH),PUSH
 00375C 4040404040404040_          26896                       SCKW  ,V(FNAMPSH),PUSH
 003784 4040404040404040_          26911                       SCKW  ,V(ACCTPSHC),PUSH
 0037AC 4040404040404040_          26926                       SCKW  ,V(NOTVALID)
1DIR      (DIR2025) (12:41) (15MAR04) SHOW DIRECTORY Command                                                                Page   63
0Current Usings:  (FFINFO,R5) (SHDRARGS,R6) (CP,R11) (CV,R12)
0Loc    Object Code    Addr1 Addr2  Stmt Lv Lineno    Source Statement           (Hibal 5, Asmedit 3.3)  HLASM R4.0  2004/03/15 12.41
+___    ______ ____    _____ _____  ____ __ ______    ______ _________
0                                  26942              *
 0037D4 50E0 D000/9008_      00000 26943              DIRSET   PROC  ,
 USING  *,R7
 0037EE 9680 BD52      00D52       26982                       SET   CPLFLG3.CPFSET
 0037F2 18D8/9808 D004_            26989                       PEND
 DROP   *,R7
                                   27009
 003800 50E0 D000/9008_      00000 27010              DIRNOSET PROC  ,
 USING  *,R7
 00381A 947F BD52      00D52       27049                       CLEAR CPLFLG3.CPFSET
 00381E 18D8/9808 D004_            27057                       PEND
 DROP   *,R7
                                   27077
 00382C 50E0 D000/9008_      00000 27078              FORFILE  PROC  ,
 USING  *,R7
 003846 58E0 7396/0DEE       03BDC 27117                       VCALL DOFNAME
 00384C 1BFF                       27121                       CLEAR R15
 00384E 18D8/9808 D004_            27125                       PEND  ,
 DROP   *,R7
                                   27145
 00385C 50E0 D000/9008_      00000 27146              MBRLIKE  PROC  ,
 USING  *,R7
 003876 58E0 B08C/581E_      0008C 27185                       SCTOK (R1)
 003884 1830                       27194                       LR    R3,R0
 003886 5930 736A/47D0_      03BE0 27195                       CEIL  R3,L'SHDRLIKE
 003892 5030 601C            0001C 27214                       ST    R3,SHDRLIKL
 003896 0630/1233/4740_            27215                       MOVE  R3,SHDRLIKE,@R1
 0038A2 5900 736E/4770_      03BE4 27253                       IF    ((R0,EQ,1),AND,(@R1,EQ,'*')),BEGIN
 0038B2 4110 B62C/5800_      0062C 27285  1                      SETMSG CPAFNAME,L:CPAFNAMEL
 0038BA 58E0 7372/0DEE       03BE8 27299  1                      VCALL RETFMEM
 0038C0 1220                       27303  1                      LTR   R2,R0
 0038C2 4780 706C            038E2 27304  1                      IF    NZ,BEGIN
 0038C6 5920 736A/47D0_      03BE0 27315  2                        CEIL  R2,L'SHDRLIKE
 0038D2 5020 601C            0001C 27334  2                        ST    R2,SHDRLIKL
 0038D6 0620/1222/4740_            27335  2                        MOVE  R2,SHDRLIKE,@R1
 0038E2                            27373  1                      END
 0038E2                            27377                       END
 0038E2 18D8/9808 D004_            27381                       PEND
 DROP   *,R7
                                   27401
 0038F0 50E0 D000/9008_      00000 27402              MBRFROM  PROC  ,
 USING  *,R7
 00390A 5810 B08C/4111_      0008C 27441                       SCUPTOK (R1)
 003912 1830                       27445                       LR    R3,R0
 003914 5930 72E2/47D0_      03BEC 27446                       CEIL  R3,L'SHDRLOWB
 003920 5030 6010            00010 27465                       ST    R3,SHDRLOWL
 003924 0630/1233/4740_            27466                       MOVE  R3,SHDRLOWB,@R1
 003930 5900 72DA/4770_      03BE4 27504                       IF    ((R0,EQ,1),AND,(@R1,EQ,'*')),BEGIN
 003940 4110 B62C/5800_      0062C 27536  1                      SETMSG CPAFNAME,L:CPAFNAMEL
 003948 58E0 72DE/0DEE       03BE8 27550  1                      VCALL RETFMEM
 00394E 1220                       27554  1                      LTR   R2,R0
 003950 4780 7066            03970 27555  1                      IF    NZ,BEGIN
 003954 5920 72E2/47D0_      03BEC 27566  2                        CEIL  R2,L'SHDRLOWB
 003960 5020 6010            00010 27585  2                        ST    R2,SHDRLOWL
1DIR      (DIR2025) (12:41) (15MAR04) SHOW DIRECTORY Command                                                                Page   64
0Current Usings:  (FFINFO,R5) (SHDRARGS,R6) (*,R7) (CP,R11) (CV,R12)
0Loc    Object Code    Addr1 Addr2  Stmt Lv Lineno    Source Statement           (Hibal 5, Asmedit 3.3)  HLASM R4.0  2004/03/15 12.41
+___    ______ ____    _____ _____  ____ __ ______    ______ _________
0003964 0620/1222/4740_            27586  2                        MOVE  R2,SHDRLOWB,@R1
 003970                            27624  1                      END
 003970                            27628                       END
 003970 18D8/9808 D004_            27632                       PEND
 DROP   *,R7
                                   27652
 00397E 50E0 D000/9008_      00000 27653              MBRTO    PROC  ,
 USING  *,R7
 003998 5810 B08C/4111_      0008C 27692                       SCUPTOK (R1)
 0039A0 1830                       27696                       LR    R3,R0
 0039A2 5930 7258/47D0_      03BF0 27697                       CEIL  R3,L'SHDRUPB
 0039AE 5030 6004            00004 27716                       ST    R3,SHDRUPL
 0039B2 0630/1233/4740_            27717                       MOVE  R3,SHDRUPB,@R1
 0039BE 5900 724C/4770_      03BE4 27755                       IF    ((R0,EQ,1),AND,(@R1,EQ,'*')),BEGIN
 0039CE 4110 B62C/5800_      0062C 27787  1                      SETMSG CPAFNAME,L:CPAFNAMEL
 0039D6 58E0 7250/0DEE       03BE8 27801  1                      VCALL RETFMEM
 0039DC 1220                       27805  1                      LTR   R2,R0
 0039DE 4780 7066            039FE 27806  1                      IF    NZ,BEGIN
 0039E2 5920 7258/47D0_      03BF0 27817  2                        CEIL  R2,L'SHDRUPB
 0039EE 5020 6004            00004 27836  2                        ST    R2,SHDRUPL
 0039F2 0620/1222/4740_            27837  2                        MOVE  R2,SHDRUPB,@R1
 0039FE                            27875  1                      END
 0039FE                            27879                       END
 0039FE 18D8/9808 D004_            27883                       PEND
 DROP   *,R7
                                   27903
 003A0C 50E0 D000/9008_      00000 27904              SHDHEX   PROC
 USING  *,R7
 003A26 947F 6000      00000       27943                       CLEAR SHDRALL
 003A2A 94DF 6000      00000       27950                       CLEAR SHDRTAB
 003A2E 9640 6000      00000       27957                       SET   SHDRHEX
 003A32 1BFF                       27963                       CLEAR R15
 003A34 18D8/9808 D004_            27967                       PEND
 DROP   *,R7
                                   27987
 003A42 50E0 D000/9008_      00000 27988              OLDFMT   PROC
 USING  *,R7
 003A5C 9602 6000      00000       28027                       SET   SHDROLD
 003A60 1BFF                       28033                       CLEAR R15
 003A62 18D8/9808 D004_            28037                       PEND
 DROP   *,R7
                                   28057
 003A70 50E0 D000/9008_      00000 28058              NEWFMT   PROC
 USING  *,R7
 003A8A 94FD 6000      00000       28097                       CLEAR SHDROLD
 003A8E 1BFF                       28104                       CLEAR R15
 003A90 18D8/9808 D004_            28108                       PEND
 DROP   *,R7
                                   28128
 003A9E 50E0 D000/9008_      00000 28129              SHDALL   PROC
 USING  *,R7
 003AB8 94DF 6000      00000       28168                       CLEAR SHDRTAB
 003ABC 94BF 6000      00000       28175                       CLEAR SHDRHEX
 003AC0 9680 6000      00000       28182                       SET   SHDRALL
1DIR      (DIR2025) (12:41) (15MAR04) SHOW DIRECTORY Command                                                                Page   65
0Current Usings:  (FFINFO,R5) (SHDRARGS,R6) (*,R7) (CP,R11) (CV,R12)
0Loc    Object Code    Addr1 Addr2  Stmt Lv Lineno    Source Statement           (Hibal 5, Asmedit 3.3)  HLASM R4.0  2004/03/15 12.41
+___    ______ ____    _____ _____  ____ __ ______    ______ _________
0003AC4 1BFF                       28188                       CLEAR R15
 003AC6 18D8/9808 D004_            28192                       PEND
 DROP   *,R7
                                   28212
 003AD4 50E0 D000/9008_      00000 28213              SHDBLK   PROC
 USING  *,R7
 003AEE 9610 6000      00000       28252                       SET   SHDRBLK
 003AF2 1BFF                       28258                       CLEAR R15
 003AF4 18D8/9808 D004_            28262                       PEND
 DROP   *,R7
                                   28282
 003B02 50E0 D000/9008_      00000 28283              SHDTAB   PROC
 USING  *,R7
 003B1C 947F 6000      00000       28322                       CLEAR SHDRALL
 003B20 94BF 6000      00000       28329                       CLEAR SHDRHEX
 003B24 9620 6000      00000       28336                       SET   SHDRTAB
 003B28 1BFF                       28342                       CLEAR R15
 003B2A 18D8/9808 D004_            28346                       PEND
 DROP   *,R7
                                   28366
 003B38 50E0 D000/9008_      00000 28367              SHDSCR   PROC
 USING  *,R7
 003B52 9608 6000      00000       28406                       SET   SHDRSCR
 003B56 1BFF                       28412                       CLEAR R15
 003B58 18D8/9808 D004_            28416                       PEND
 DROP   *,R7
                                   28436
 DROP   SHDRARGS,R6                28437                       DROP  R6
 DROP   FFINFO,R5                  28444                       DROP  R5
                                   28451
                                   28452                       QLTORG
1DIR      (DIR2025) (12:41) (15MAR04) GETTPAG Routine                                                                       Page   66
0Current Usings:  (CP,R11) (CV,R12)
0Loc    Object Code    Addr1 Addr2  Stmt Lv Lineno    Source Statement           (Hibal 5, Asmedit 3.3)  HLASM R4.0  2004/03/15 12.41
+___    ______ ____    _____ _____  ____ __ ______    ______ _________
0003CAC 50E0 D000/90F8_      00000 28499              GETTPAGY XENTER R15,R8,44          Save space (used by show dsnames)
 USING  *,R7
                                   28518              GETTPAG  EQU   GETTPAGY
 003CC6 5820 BDA8/1222       00DA8 28519                       LT    R2,CPMDLN           No pages already
 003CCC 47D0 7018            03CDE 28523                       BNP   GETTNO1
 003CD0 58E0 705A/0DEE       03D20 28524                       PMARK PAR
 003CD6 4920 7066            03D2C 28529                       CH    R2,=H'10'           10 max
 003CDA 47B0 7032            03CF8 28530                       BNL   SENSAME
 003CDE 58E0 705E/0DEE       03D24 28531              GETTNO1  VCALL PGETNEW
 003CE4 4770 7040            03D06 28535                       BNZ   TRUBBLE
 003CE8 4120 2001            00001 28536                       LA    R2,@R2+1            One more
 003CEC 5020 BDA8            00DA8 28537                       ST    R2,CPMDLN           Store
 003CF0 8920 0002            00002 28538                       SLL   R2,2                Point at place to store page no
 003CF4 5002 BDA8            00DA8 28539                       ST    R0,CPMDAD-4(R2)     Store page no
 003CF8 1299                       28540              SENSAME  LTR   PAR,PAR
 003CFA 18D8/58E0 D000_            28541                       XEXIT R15,R8
 003D06 1222/4780 7032             28546              TRUBBLE  IF    (R2,Z),SENSAME      No page yet
 003D0C 8920 0002            00002 28564                       SLL   R2,2
 003D10 5802 BDA8            00DA8 28565                       L     R0,CPMDAD-4(R2)     Last page no
 003D14 58E0 7062/0DEE       03D28 28566                       PGET  PAR,(R0)
 003D1A 47F0 7032            03CF8 28574                       B     SENSAME
                                   28575
                                   28576                       QLTORG
1DIR      (DIR2025) (12:41) (15MAR04) Get next line for display                                                             Page   67
0Current Usings:  (*,R7) (CP,R11) (CV,R12)
0Loc    Object Code    Addr1 Addr2  Stmt Lv Lineno    Source Statement           (Hibal 5, Asmedit 3.3)  HLASM R4.0  2004/03/15 12.41
+___    ______ ____    _____ _____  ____ __ ______    ______ _________
0                                  28593              *
                                   28594              *    This routine is called by the DSPDIR subroutine to get the
                                   28595              *    next line for display.
                                   28596              *
                                   28597              *    On entry:
                                   28598              *      R1  -  Points to the SHOW DIRECTORY work area which
                                   28599              *             contains a work area used by this routine.
                                   28600              *
                                   28601              *      PAR -  Points to the current page being displayed.
                                   28602              *
                                   28603              *    On output:
                                   28604              *      R0,R1 - describe the length and location of the retrieved
                                   28605              *              line
                                   28606              *      R15=0   means a line was retrieved
                                   28607              *         =NZ  means EOF (no more lines in the display).
                                   28608              *
 003D2E 50E0 D000/9008_      00000 28609              NEXTLINE PROC  ,
 DROP   *,R7
 USING  *,R7
 003D48 1861                       28651                       LR    R6,R1
 USING  SHDRARGS,R6                28652                       USING SHDRARGS,R6
                                   28661
 003D4A 5810 605C            0005C 28662                       L     R1,SHDRCPG          Make sure we have the page in core
 003D4E 8910 0002            00002 28663                       SLL   R1,2
 003D52 5801 6034            00034 28664                       L     R0,SHDRPAGS(R1)
 003D56 58E0 70C8/0DEE       03E10 28665                       PGET  PAR,(R0)
                                   28673
 003D5C 4830 9000            00000 28674                       LH    R3,@PAR
 003D60 5930 6060/4730_      00060 28675                       IF    (SHDRCOFF,GE,R3),BEGIN
 003D68 5810 605C            0005C 28692  1                      L     R1,SHDRCPG
 003D6C 4110 1001            00001 28693  1                      LA    R1,1(,R1)
 003D70 4910 6030/47B0_      00030 28694  1                      IF    (R1,LT,SHDRPGCT),BEGIN
 003D78 5010 605C            0005C 28711  2                        ST    R1,SHDRCPG
 003D7C D203 6060 70CC 00060 03E14 28712  2                        MVC   SHDRCOFF,=F'2'
 003D82 58E0 70D0/0DEE       03E18 28713  2                        PFREE PAR,EMPTY
 003D88 5810 605C            0005C 28719  2                        L     R1,SHDRCPG          Get the new page into core
 003D8C 8910 0002            00002 28720  2                        SLL   R1,2
 003D90 5801 6034            00034 28721  2                        L     R0,SHDRPAGS(R1)
 003D94 58E0 70C8/0DEE       03E10 28722  2                        PGET  PAR,(R0)
 003D9A 4830 9000            00000 28730  2                        LH    R3,@PAR
 003D9E 5930 6060/4730_      00060 28731  2                        FAIL  (R3,LE,SHDRCOFF),DIRERR1,'NEXTLINE error.'
 003DBE                            28760  1                      END
 003DBE 707A/47F0 7082 03DBE 03D76 28764  1                      ELSE  BEGIN
 003DC2 41F0 0004            00004 28775  2                        LA    R15,4
 003DC6 47F0 70B4            03DFC 28776  2                        B     NEXTDONE
 003DCA                            28777  1                      END
 003DCA                            28781                       END
                                   28785
 003DCA 5820 6060            00060 28786                       L     R2,SHDRCOFF
 003DCE 4112 9000            00000 28787                       LA    R1,0(R2,PAR)
 003DD2 1F00/4300 1000             28788                       LC    R0,@R1
 003DD8 5E10 70D4            03E1C 28793                       INCR  R1
 003DDC 1A20                       28796                       AR    R2,R0
 003DDE 5E20 70D4            03E1C 28797                       INCR  R2
1DIR      (DIR2025) (12:41) (15MAR04) Get next line for display                                                             Page   68
0Current Usings:  (SHDRARGS,R6) (*,R7) (CP,R11) (CV,R12)
0Loc    Object Code    Addr1 Addr2  Stmt Lv Lineno    Source Statement           (Hibal 5, Asmedit 3.3)  HLASM R4.0  2004/03/15 12.41
+___    ______ ____    _____ _____  ____ __ ______    ______ _________
0003DE2 5020 6060            00060 28800                       ST    R2,SHDRCOFF
 003DE6 1200/4770 70AE             28801                       IF    (R0,Z),BEGIN
 003DEC 58E0 70D0/0DEE       03E18 28815  1                      PFREE PAR,EMPTY
 003DF2 41F0 0004            00004 28821  1                      LA    R15,4
 003DF6                            28822                       END
 003DF6 70B2/47F0 70B4 03DF6 03DEA 28826                       ELSE  BEGIN
 003DFA 1BFF                       28837  1                      CLEAR R15
 003DFC                            28841                       END
                                   28845
 003DFC                            28846              NEXTDONE LABEL
 003DFC 9001 8004            00004 28848                       PRETURN (R0,R1)
 003E00 18D8/9808 D004_            28850                       PEND  ,
 DROP   *,R7
 USING  *,R7
 DROP   SHDRARGS,R6                28877                       DROP  R6
                                   28884                       QLTORG ,
1DIR      (DIR2025) (12:41) (15MAR04) Release remaining display pages                                                       Page   69
0Current Usings:  (*,R7) (CP,R11) (CV,R12)
0Loc    Object Code    Addr1 Addr2  Stmt Lv Lineno    Source Statement           (Hibal 5, Asmedit 3.3)  HLASM R4.0  2004/03/15 12.41
+___    ______ ____    _____ _____  ____ __ ______    ______ _________
0                                  28902              *
                                   28903              *    This subroutine releases all pages containing the
                                   28904              *    information used by SHOW DIRECTORY.
                                   28905              *
                                   28906              *    On entry:
                                   28907              *      R1  -  Points to the SHOW DIRECTORY work area.
                                   28908              *
                                   28909              *    The current page (in PAR) and the remainder of the
                                   28910              *    pages not yet accessed in the array are released.
                                   28911              *
 003E20 50E0 D000/9008_      00000 28912              RLSPAGES PROC  ,
 DROP   *,R7
 USING  *,R7
 003E3A 1861                       28954                       LR    R6,R1
 USING  SHDRARGS,R6                28955                       USING SHDRARGS,R6
 003E3C 1299/4780 700E             28964                       IF    (PAR,NZ),BEGIN
 003E42 58E0 7206/0DEE       04040 28978  1                      PFREE PAR,EMPTY
 003E48                            28984                       END
 003E48 5830 605C            0005C 28988                       L     R3,SHDRCPG
 003E4C 5E30 720A            04044 28989                       INCR  R3
 003E50 4930 6030/47B0_      00030 28992                       WHILE (R3,LT,SHDRPGCT),BEGIN
 003E58 1813                       29011  1                      LR    R1,R3
 003E5A 8910 0002            00002 29012  1                      SLL   R1,2
 003E5E 5821 6034            00034 29013  1                      L     R2,SHDRPAGS(R1)
 003E62 1802/58E0 720E_            29014  1                      PGET  PAR,(R2)
 003E6A 58E0 7206/0DEE       04040 29023  1                      PFREE PAR,EMPTY
 003E70 4130 3001            00001 29029  1                      LA    R3,1(,R3)
 003E74 47F0 7016            03E50 29030                       END
 DROP   SHDRARGS,R6                29035                       DROP  R6
 003E78 18D8/9808 D004_            29042                       PEND  ,
 DROP   *,R7
 USING  *,R7
1DIR      (DIR2025) (12:41) (15MAR04) Conditional write to terminal                                                         Page   70
0Current Usings:  (*,R7) (CP,R11) (CV,R12)
0Loc    Object Code    Addr1 Addr2  Stmt Lv Lineno    Source Statement           (Hibal 5, Asmedit 3.3)  HLASM R4.0  2004/03/15 12.41
+___    ______ ____    _____ _____  ____ __ ______    ______ _________
0                                  29071              *
                                   29072              *    To avoid having a TSEG in the SHOW DIRECTORY code
                                   29073              *    cause a TWRITE to occur that's not under our control,
                                   29074              *    this routine is called. It will perform the write
                                   29075              *    if there are less than 120 characters left in the
                                   29076              *    CPSEG buffers.
                                   29077              *
                                   29078              *
                                   29079              *     On exit:
                                   29080              *       R15=0  Normal processing occurred
                                   29081              *          =NZ Attention signalled.
                                   29082              *
 003E86 50E0 D000/9008_      00000 29083              CTWRITE  PROC  ,
 DROP   *,R7
 USING  *,R7
 003EA0 5830 B05C            0005C 29125                       L     R3,CPSEGLENF
 003EA4 4130 3078            00078 29126                       LA    R3,@R3+120
 003EA8 5930 B054/4750_      00054 29127                       IF    (R3,GE,CPSEGMAXF),BEGIN
 003EB0 58E0 71AC/0DEE       0404C 29144  1                      PNUM  PAR
 003EB6 5000 D000/41D0_      00000 29149  1                      XPUSH R0
 003EBE 1B00/41F0 B050_            29152  1                      TWRITE ,
 003ECA 4780 7040            03EE0 29177  1                      IF    NZ,BEGIN
 003ECE 4BD0 71CC/5800_      0406C 29188  2                        XPOP  R0
 003ED6 58E0 71A8/0DEE       04048 29191  2                        PGET  PAR,(R0)
 003EDC 41F0 0004            00004 29199  2                        LA    R15,4
 003EE0                            29200  1                      END
 003EE0 7044/47F0 7054 03EE0 03ECC 29204  1                      ELSE  BEGIN
 003EE4 4BD0 71CC/5800_      0406C 29215  2                        XPOP  R0
 003EEC 58E0 71A8/0DEE       04048 29218  2                        PGET  PAR,(R0)
 003EF2 1BFF                       29226  2                        CLEAR R15
 003EF4                            29230  1                      END
 003EF4                            29234                       END
 003EF4 7058/47F0 705A 03EF4 03EAE 29238                       ELSE  BEGIN
 003EF8 1BFF                       29249  1                      CLEAR R15
 003EFA                            29253                       END
 003EFA 18D8/9808 D004_            29257                       PEND  ,
 DROP   *,R7
 USING  *,R7
1DIR      (DIR2025) (12:41) (15MAR04) Handle scratch option of SHOW DIRECTORY                                               Page   71
0Current Usings:  (*,R7) (CP,R11) (CV,R12)
0Loc    Object Code    Addr1 Addr2  Stmt Lv Lineno    Source Statement           (Hibal 5, Asmedit 3.3)  HLASM R4.0  2004/03/15 12.41
+___    ______ ____    _____ _____  ____ __ ______    ______ _________
0                                  29286              *
                                   29287              *   Prompt the user to see if it's okay to scratch the indicated
                                   29288              *   member and scratch it if so.
                                   29289              *
                                   29290              *   On entry:
                                   29291              *      R1 - Points to the line containing the member name
                                   29292              *      R2 - Points to the SHOW DIRECTORY work area
                                   29293              *
                                   29294              *   On output:
                                   29295              *      R15=0   If user wanted member scratched, member scratched,
                                   29296              *              else member not scratched.
                                   29297              *      R15>0   Some error occurred
                                   29298              *      R15<0   User pressed attention
                                   29299              *
 003F08 50E0 D000/9008_      00000 29300              SCRMBR   PROC  FFINFO
 DROP   *,R7
 USING  *,R7
 USING  FFINFO-(4+36),R8
 003F22 1862                       29353                       LR    R6,R2
 USING  SHDRARGS,R6                29354                       USING SHDRARGS,R6
 003F24 4100 0008            00008 29363                       LA    R0,8
 003F28 58E0 7132/0DEE       04054 29364                       VCALL RTRIM
 003F2E 1830                       29368                       LR    R3,R0               Save name information
 003F30 1841                       29369                       LR    R4,R1
 003F32 4110 714E/4100_      04070 29370                       SETMSG 'Scratch'
 003F3A 58E0 7136/0DEE       04058 29374                       VCALL YESRTN
 003F40 4740 70F6            04018 29378                       BM    SCRATTN
 003F44 4770 70EE            04010 29379                       BNZ   SCRABORT            OK if we want to skip it
                                   29380
 003F48 9034 D000/41D0_      00000 29381                       XPUSH R3,R4
 003F50 4120 8028            00000 29384                       LA    R2,FFINFO           Save the current
 003F54 4130 03A0            003A0 29385                       LA    R3,L'FFINFO             FFINFO data
 003F58 5840 BE54            00E54 29386                       L     R4,CPFINFOP
 003F5C 1853                       29387                       LR    R5,R3
 003F5E 0E24                       29388                       MVCL  R2,R4
 003F60 5850 BE54            00E54 29389                       L     R5,CPFINFOP         Get the FFINFO
 USING  FFINFO,R5                  29390                       WITH  (FFINFO,R5),BEGIN
 003F64 D703 5110 5110 00110 00110 29404  1                      CLEAR FFOPTSL             No options
 003F6A 5800 5214            00214 29411  1                      L     R0,FFRNAMEL
 003F6E 4110 5218            00218 29412  1                      LA    R1,FFRNAME
 003F72 1A10                       29413  1                      AR    R1,R0
 003F74 924D 1000      00000       29414  1                      MVI   0(R1),C'('
 003F78 5E10 7122            04044 29415  1                      INCR  R1
 003F7C 4BD0 714C/9823_      0406E 29418  1                      XPOP  R2,R3               Recover member name info
 003F84 0620/1222/4740_            29421  1                      MOVE  R2,@R1,@R3
 003F90 5E20 7122            04044 29459  1                      INCR  R2
 003F94 1A12                       29462  1                      AR    R1,R2
 003F96 925D 1000      00000       29463  1                      MVI   0(R1),C')'
 003F9A 5E10 7122            04044 29464  1                      INCR  R1
 003F9E 4120 5218            00218 29467  1                      LA    R2,FFRNAME
 003FA2 1B12                       29468  1                      SR    R1,R2
 003FA4 5010 5214            00214 29469  1                      ST    R1,FFRNAMEL
 003FA8 5010 5008            00008 29470  1                      ST    R1,FFNAMEL
 003FAC 0610/1211/4740_            29471  1                      MOVE  R1,FFNAME,FFRNAME
1DIR      (DIR2025) (12:41) (15MAR04) Handle scratch option of SHOW DIRECTORY                                               Page   72
0Current Usings:  (FFINFO,R5) (SHDRARGS,R6) (*,R7) (FFINFO-(4+36),R8) (CP,R11) (CV,R12)
0Loc    Object Code    Addr1 Addr2  Stmt Lv Lineno    Source Statement           (Hibal 5, Asmedit 3.3)  HLASM R4.0  2004/03/15 12.41
+___    ______ ____    _____ _____  ____ __ ______    ______ _________
0003FB8 58E0 713A/0DEE       0405C 29509  1                      VCALL WGSCRTCH            Scratch the member
 003FBE 4780 70B4            03FD6 29513  1                      IF    NZ,BEGIN
 003FC2 D507 7116 B886_04038 00886 29524  2                        IF    (CPERRID,EQ,'NOTYOURS'),BEGIN
 003FCC 94F7 6000      00000       29541  3                          CLEAR SHDRSCR             Don't scratch any more
 003FD0                            29548  2                        END
 003FD0 D707 B886 B886 00886 00886 29552  2                        CLEAR CPERRID
 003FD6                            29559  1                      END
 003FD6 D603 B05C B05C_0005C 0005C 29563  1                      TCCR
 003FF6 58E0 7142/0DEE       04064 29625  1                      ACALL CTWRITE             Write out the message
 DROP   FFINFO,R5                  29629                       END
                                   29637
 003FFC 4140 8028            00000 29638                       LA    R4,FFINFO           Restore the original
 004000 4130 03A0            003A0 29639                       LA    R3,L'FFINFO             FFINFO data
 004004 5820 BE54            00E54 29640                       L     R2,CPFINFOP
 004008 1853                       29641                       LR    R5,R3
 00400A 0E24                       29642                       MVCL  R2,R4
 00400C 47F0 70FE            04020 29643                       B     SCRMBOK
                                   29644
 004010                            29645              SCRABORT LABEL
 004010 41F0 0004            00004 29647                       LA    R15,4
 004014 47F0 7104            04026 29648                       B     SCRMBDON
                                   29649
 004018                            29650              SCRATTN  LABEL
 004018 58F0 7146            04068 29652                       L     R15,=F'-4'
 00401C 47F0 7104            04026 29653                       B     SCRMBDON
                                   29654
 004020 1BFF                       29655              SCRMBOK  CLEAR R15
 004022 47F0 7104            04026 29660                       B     SCRMBDON
                                   29661
 004026                            29662              SCRMBDON LABEL
 004026 18D8/9808 D004_            29664                       PEND  ,
 DROP   FFINFO-(4+36),R8
 DROP   *,R7
 USING  *,R7
1DIR      (DIR2025) (12:41) (15MAR04) Handle scratch option of SHOW DIRECTORY                                               Page   73
0Current Usings:  (SHDRARGS,R6) (*,R7) (CP,R11) (CV,R12)
0Loc    Object Code    Addr1 Addr2  Stmt Lv Lineno    Source Statement           (Hibal 5, Asmedit 3.3)  HLASM R4.0  2004/03/15 12.41
+___    ______ ____    _____ _____  ____ __ ______    ______ _________
0                                  29697                       QLTORG
1DIR      (DIR2025) (12:41) (15MAR04) Output for SHOW DIR                                                                   Page   74
0Current Usings:  (SHDRARGS,R6) (*,R7) (CP,R11) (CV,R12)
0Loc    Object Code    Addr1 Addr2  Stmt Lv Lineno    Source Statement           (Hibal 5, Asmedit 3.3)  HLASM R4.0  2004/03/15 12.41
+___    ______ ____    _____ _____  ____ __ ______    ______ _________
0                                  29725              *
                                   29726              *    On entry:
                                   29727              *      R1  -  Points to the SHOW DIRECTORY work area,
                                   29728              *             which contains the page array and options
                                   29729              *
                                   29730              *             The first halfword on each page is the total
                                   29731              *             number of bytes of information on that page.
                                   29732              *             Each line on the page is preceded by a byte
                                   29733              *             which indicates the line length. A zero byte
                                   29734              *             indicates all done.
                                   29735              *
                                   29736              *    Note: This routine does not return to its caller.
                                   29737              *
 004084 50E0 D000/9008_      00000 29738              DSPDIR   PROC  ,
 DROP   *,R7
 USING  *,R7
 00409E 1861                       29780                       LR    R6,R1
                                   29781                       USING SHDRARGS,R6
                                   29783
 0040A0 5800 6034            00034 29784                       L     R0,SHDRPAGS
 0040A4 58E0 73AA/0DEE       04448 29785                       PGET  PAR,(R0)
 0040AA D703 605C 605C 0005C 0005C 29793                       CLEAR SHDRCPG
 0040B0 D203 6060 73AE 00060 0444C 29800                       MVC   SHDRCOFF,=F'2'
                                   29801
 0040B6 4110 73CC/4100_      0446A 29802                       TSEG  'Directory of '
 0040C8 5850 BE54            00E54 29820                       L     R5,CPFINFOP
 USING  FFINFO,R5                  29821                       WITH  (FFINFO,R5),BEGIN
 0040CC 4110 5218/5800_      00218 29835  1                      TSEG  FFRNAME,L:FFRNAMEL,CR
 DROP   FFINFO,R5                  29863                       END
 0040DE 1B00/41F0 B050_            29871                       TCR
 0040EA 58E0 73BA/0DEE       04458 29896                       ACALL CTWRITE
 0040F0 4780 705A/47F0_      040F8 29900                       IF    NZ,'B DSPDONE'
                                   29917
 0040F8 9180 6000/47E0_00000       29918                       IF    SHDRALL,BEGIN
 004100 9102 6000/47E0_00000       29933  1                      IF    SHDROLD,BEGIN
 004108 4110 73D9/4100_      04477 29948  2                        SETMSG 'Member     Creation Date  Creator   Title'
 004110                            29952  1                      END
 004110 7076/47F0 7088 04110 04106 29956  1                      ELSE  BEGIN
 004114 4110 6000            00000 29967  2                        LA    R1,SHDRARGS
 004118 58E0 73BE/0DEE       0445C 29968  2                        ACALL NEXTLINE            Get the column heading line
 00411E 4780 7088/47F0_      04126 29972  2                        IF    NZ,'B DSPDONE'
 004126                            29989  1                      END
 004126 41F0 B050/58E0_      00050 29993  1                      TSEG  (R1),(R0),CR
 004130 58E0 73BA/0DEE       04458 30017  1                      ACALL CTWRITE
 004136 4780 70A0/47F0_      0413E 30021  1                      IF    NZ,'B DSPDONE'
                                   30038  1
 00413E 4110 6000            00000 30039  1                      LA    R1,SHDRARGS         Get 1st member line (if any)
 004142 58E0 73BE/0DEE       0445C 30040  1                      ACALL NEXTLINE
 004148 12FF/4770 7128             30044  1                      WHILE (R15,Z),BEGIN
 00414E 1830                       30060  2                        LR    R3,R0               Save "previous" line
 004150 1841                       30061  2                        LR    R4,R1
 004152 4110 6000            00000 30062  2                        LA    R1,SHDRARGS         Get next member or blocks line
 004156 58E0 73BE/0DEE       0445C 30063  2                        ACALL NEXTLINE
 00415C 12FF/4770 711C             30067  2                        IF    (R15,Z),BEGIN       Print previous line
1DIR      (DIR2025) (12:41) (15MAR04) Output for SHOW DIR                                                                   Page   75
0Current Usings:  (SHDRARGS,R6) (*,R7) (CP,R11) (CV,R12)
0Loc    Object Code    Addr1 Addr2  Stmt Lv Lineno    Source Statement           (Hibal 5, Asmedit 3.3)  HLASM R4.0  2004/03/15 12.41
+___    ______ ____    _____ _____  ____ __ ______    ______ _________
0004162 90F1 D000/41D0_      00000 30081  3                          XPUSH R15,R1
 00416A 1814/1803/41F0_            30084  3                          TSEG  (R4),(R3),CR
 004178 58E0 73BA/0DEE       04458 30110  3                          ACALL CTWRITE
 00417E 4780 70F0            0418E 30114  3                          IF    NZ,BEGIN
 004182 4BD0 73CA/98F1_      04468 30125  4                            XPOP  R15,R1
 00418A 47F0 738E            0442C 30128  4                            B     DSPDONE
 00418E                            30129  3                          END
 00418E 9108 6000/47E0_00000       30133  3                          IF    SHDRSCR,BEGIN
 004196 1814                       30148  4                            LR    R1,R4
 004198 4120 6000            00000 30149  4                            LA    R2,SHDRARGS
 00419C 58E0 73C2/0DEE       04460 30150  4                            ACALL SCRMBR
 0041A2 47B0 7114            041B2 30154  4                            IF    M,BEGIN
 0041A6 4BD0 73CA/98F1_      04468 30165  5                              XPOP  R15,R1
 0041AE 47F0 738E            0442C 30168  5                              B     DSPDONE
 0041B2                            30169  4                            END
 0041B2                            30173  3                          END
 0041B2 4BD0 73CA/98F1_      04468 30177  3                          XPOP  R15,R1
 0041BA                            30180  2                        END
 0041BA 7120/47F0 7124 041BA 04160 30184  2                        ELSE  BEGIN
 0041BE 1803                       30195  3                          LR    R0,R3               Get the directory blocks line
 0041C0 1814                       30196  3                          LR    R1,R4
 0041C2                            30197  2                        END
 0041C2 47F0 70AA            04148 30201  1                      END
 0041C6                            30206                       END
                                   30210
 0041C6 712C/47F0 71EA_041C6 040FE 30211                       ELSEIF SHDRHEX,BEGIN
 0041D2 4110 6000            00000 30235  1                      LA    R1,SHDRARGS
 0041D6 58E0 73BE/0DEE       0445C 30236  1                      ACALL NEXTLINE            Get the column heading line
 0041DC 4770 715A            041F8 30240  1                      IF    Z,BEGIN
 0041E0 41F0 B050/58E0_      00050 30251  2                        TSEG  (R1),(R0),CR
 0041EA 58E0 73BA/0DEE       04458 30275  2                        ACALL CTWRITE
 0041F0 4780 715A/47F0_      041F8 30279  2                        IF    NZ,'B DSPDONE'
 0041F8                            30296  1                      END
 0041F8 715E/47F0 7162_041F8 041DE 30300  1                      ELSE  'B DSPDONE'         This shouldn't happen
                                   30317  1
 004200 4110 6000            00000 30318  1                      LA    R1,SHDRARGS         Get 1st member line (if any)
 004204 58E0 73BE/0DEE       0445C 30319  1                      ACALL NEXTLINE
 00420A 12FF/4770 71EA             30323  1                      WHILE (R15,Z),BEGIN
 004210 1830                       30339  2                        LR    R3,R0               Save "previous" line
 004212 1841                       30340  2                        LR    R4,R1
 004214 4110 6000            00000 30341  2                        LA    R1,SHDRARGS         Get next member or blocks line
 004218 58E0 73BE/0DEE       0445C 30342  2                        ACALL NEXTLINE
 00421E 12FF/4770 71DE             30346  2                        IF    (R15,Z),BEGIN       Print previous line
 004224 90F1 D000/41D0_      00000 30360  3                          XPUSH R15,R1
 00422C 1814/1803/41F0_            30363  3                          TSEG  (R4),(R3),CR
 00423A 58E0 73BA/0DEE       04458 30389  3                          ACALL CTWRITE
 004240 4780 71B2            04250 30393  3                          IF    NZ,BEGIN
 004244 4BD0 73CA/98F1_      04468 30404  4                            XPOP  R15,R1
 00424C 47F0 738E            0442C 30407  4                            B     DSPDONE
 004250                            30408  3                          END
 004250 9108 6000/47E0_00000       30412  3                          IF    SHDRSCR,BEGIN
 004258 1814                       30427  4                            LR    R1,R4
 00425A 4120 6000            00000 30428  4                            LA    R2,SHDRARGS
 00425E 58E0 73C2/0DEE       04460 30429  4                            ACALL SCRMBR
1DIR      (DIR2025) (12:41) (15MAR04) Output for SHOW DIR                                                                   Page   76
0Current Usings:  (SHDRARGS,R6) (*,R7) (CP,R11) (CV,R12)
0Loc    Object Code    Addr1 Addr2  Stmt Lv Lineno    Source Statement           (Hibal 5, Asmedit 3.3)  HLASM R4.0  2004/03/15 12.41
+___    ______ ____    _____ _____  ____ __ ______    ______ _________
0004264 47B0 71D6            04274 30433  4                            IF    M,BEGIN
 004268 4BD0 73CA/98F1_      04468 30444  5                              XPOP  R15,R1
 004270 47F0 738E            0442C 30447  5                              B     DSPDONE
 004274                            30448  4                            END
 004274                            30452  3                          END
 004274 4BD0 73CA/98F1_      04468 30456  3                          XPOP  R15,R1
 00427C                            30459  2                        END
 00427C 71E2/47F0 71E6 0427C 04222 30463  2                        ELSE  BEGIN
 004280 1803                       30474  3                          LR    R0,R3               Get the directory blocks line
 004282 1814                       30475  3                          LR    R1,R4
 004284                            30476  2                        END
 004284 47F0 716C            0420A 30480  1                      END
 004288                            30485                       END
                                   30489
 004288 71EE/47F0 72C2_04288 041D0 30490                       ELSEIF SHDRTAB,BEGIN
                                   30514  1
 004294 4110 6000            00000 30515  1                      LA    R1,SHDRARGS         Get 1st member line (if any)
 004298 58E0 73BE/0DEE       0445C 30516  1                      ACALL NEXTLINE
 00429E 12FF/4770 72C2             30520  1                      WHILE (R15,Z),BEGIN
 0042A4 1830                       30536  2                        LR    R3,R0               Save "previous" line
 0042A6 1841                       30537  2                        LR    R4,R1
 0042A8 4110 6000            00000 30538  2                        LA    R1,SHDRARGS         Get next member or blocks line
 0042AC 58E0 73BE/0DEE       0445C 30539  2                        ACALL NEXTLINE
 0042B2 12FF/4770 72B6             30543  2                        IF    (R15,Z),BEGIN       Print previous line
 0042B8 90F1 D000/41D0_      00000 30557  3                          XPUSH R15,R1
 0042C0 1814/1803/41F0_            30560  3                          TSEG  (R4),(R3)
 0042CE 58F0 B05C            0005C 30586  3                          L     R15,CPSEGLENF
 0042D2 5BF0 B058            00058 30587  3                          S     R15,CPSEGMRKF
 0042D6 41F0 F00A            0000A 30588  3                          LA    R15,@R15+10
 0042DA 4800 B418            00418 30589  3                          LH    R0,CPSWID
 0042DE 9180 BD55/47E0_00D55       30590  3                          IF    CPFDUMP,'LH R0,CPLENGTH'
 0042EA 19F0/4730 7264_            30611  3                          IF    (R15,LE,R0),'TSEG CVBLANKS,2'
 004302 7268/47F0 7274_04302 042EE 30661  3                          ELSE  'TCR'
 004312 58E0 73BA/0DEE       04458 30702  3                          ACALL CTWRITE
 004318 4780 728A            04328 30706  3                          IF    NZ,BEGIN
 00431C 4BD0 73CA/98F1_      04468 30717  4                            XPOP  R15,R1
 004324 47F0 738E            0442C 30720  4                            B     DSPDONE
 004328                            30721  3                          END
 004328 9108 6000/47E0_00000       30725  3                          IF    SHDRSCR,BEGIN
 004330 1814                       30740  4                            LR    R1,R4
 004332 4120 6000            00000 30741  4                            LA    R2,SHDRARGS
 004336 58E0 73C2/0DEE       04460 30742  4                            ACALL SCRMBR
 00433C 47B0 72AE            0434C 30746  4                            IF    M,BEGIN
 004340 4BD0 73CA/98F1_      04468 30757  5                              XPOP  R15,R1
 004348 47F0 738E            0442C 30760  5                              B     DSPDONE
 00434C                            30761  4                            END
 00434C                            30765  3                          END
 00434C 4BD0 73CA/98F1_      04468 30769  3                          XPOP  R15,R1
 004354                            30772  2                        END
 004354 72BA/47F0 72BE 04354 042B6 30776  2                        ELSE  BEGIN
 004358 1803                       30787  3                          LR    R0,R3               Get the directory blocks line
 00435A 1814                       30788  3                          LR    R1,R4
 00435C                            30789  2                        END
 00435C 47F0 7200            0429E 30793  1                      END
1DIR      (DIR2025) (12:41) (15MAR04) Output for SHOW DIR                                                                   Page   77
0Current Usings:  (SHDRARGS,R6) (*,R7) (CP,R11) (CV,R12)
0Loc    Object Code    Addr1 Addr2  Stmt Lv Lineno    Source Statement           (Hibal 5, Asmedit 3.3)  HLASM R4.0  2004/03/15 12.41
+___    ______ ____    _____ _____  ____ __ ______    ______ _________
0004360                            30798                       END
                                   30802
 004360 72C6/47F0 737C 04360 04292 30803                       ELSE  BEGIN
 004364 4110 6000            00000 30814  1                      LA    R1,SHDRARGS
 004368 58E0 73BE/0DEE       0445C 30815  1                      ACALL NEXTLINE            Get the column heading line
 00436E 4770 72EC            0438A 30819  1                      IF    Z,BEGIN
 004372 41F0 B050/58E0_      00050 30830  2                        TSEG  (R1),(R0),CR
 00437C 58E0 73BA/0DEE       04458 30854  2                        ACALL CTWRITE
 004382 4780 72EC/47F0_      0438A 30858  2                        IF    NZ,'B DSPDONE'
 00438A                            30875  1                      END
 00438A 72F0/47F0 72F4_0438A 04370 30879  1                      ELSE  'B DSPDONE'         This shouldn't happen
                                   30896  1
 004392 4110 6000            00000 30897  1                      LA    R1,SHDRARGS         Get 1st member line (if any)
 004396 58E0 73BE/0DEE       0445C 30898  1                      ACALL NEXTLINE
 00439C 12FF/4770 737C             30902  1                      WHILE (R15,Z),BEGIN
 0043A2 1830                       30918  2                        LR    R3,R0               Save "previous" line
 0043A4 1841                       30919  2                        LR    R4,R1
 0043A6 4110 6000            00000 30920  2                        LA    R1,SHDRARGS         Get next member or blocks line
 0043AA 58E0 73BE/0DEE       0445C 30921  2                        ACALL NEXTLINE
 0043B0 12FF/4770 7370             30925  2                        IF    (R15,Z),BEGIN       Print previous line
 0043B6 90F1 D000/41D0_      00000 30939  3                          XPUSH R15,R1
 0043BE 1814/1803/41F0_            30942  3                          TSEG  (R4),(R3),CR
 0043CC 58E0 73BA/0DEE       04458 30968  3                          ACALL CTWRITE
 0043D2 4780 7344            043E2 30972  3                          IF    NZ,BEGIN
 0043D6 4BD0 73CA/98F1_      04468 30983  4                            XPOP  R15,R1
 0043DE 47F0 738E            0442C 30986  4                            B     DSPDONE
 0043E2                            30987  3                          END
 0043E2 9108 6000/47E0_00000       30991  3                          IF    SHDRSCR,BEGIN
 0043EA 1814                       31006  4                            LR    R1,R4
 0043EC 4120 6000            00000 31007  4                            LA    R2,SHDRARGS
 0043F0 58E0 73C2/0DEE       04460 31008  4                            ACALL SCRMBR
 0043F6 47B0 7368            04406 31012  4                            IF    M,BEGIN
 0043FA 4BD0 73CA/98F1_      04468 31023  5                              XPOP  R15,R1
 004402 47F0 738E            0442C 31026  5                              B     DSPDONE
 004406                            31027  4                            END
 004406                            31031  3                          END
 004406 4BD0 73CA/98F1_      04468 31035  3                          XPOP  R15,R1
 00440E                            31038  2                        END
 00440E 7374/47F0 7378 0440E 043B4 31042  2                        ELSE  BEGIN
 004412 1803                       31053  3                          LR    R0,R3               Get the directory blocks line
 004414 1814                       31054  3                          LR    R1,R4
 004416                            31055  2                        END
 004416 47F0 72FE            0439C 31059  1                      END
 00441A                            31064                       END
                                   31068              *
                                   31069              *  Print the directory blocks line if the user asked
                                   31070              *  for it
                                   31071              *
 00441A 9110 6000/47E0_00000       31072                       IF    SHDRBLK,BEGIN
 004422 41F0 B050/58E0_      00050 31087  1                      TSEG  (R1),(R0),CR
 00442C                            31111                       END
                                   31115
 00442C                            31116              DSPDONE  LABEL
 00442C 4110 6000            00000 31118                       LA    R1,SHDRARGS
1DIR      (DIR2025) (12:41) (15MAR04) Output for SHOW DIR                                                                   Page   78
0Current Usings:  (SHDRARGS,R6) (*,R7) (CP,R11) (CV,R12)
0Loc    Object Code    Addr1 Addr2  Stmt Lv Lineno    Source Statement           (Hibal 5, Asmedit 3.3)  HLASM R4.0  2004/03/15 12.41
+___    ______ ____    _____ _____  ____ __ ______    ______ _________
0004430 58E0 73C6/0DEE       04464 31119                       ACALL RLSPAGES
 004436 47F0 C7DE            007DE 31123                       B     CVNEXT
 00443A 18D8/9808 D004_            31124                       PEND  ,
 DROP   *,R7
 USING  *,R7
                                   31151
                                   31152                       QLTORG
 DROP   SHDRARGS,R6                31175                       DROP  R6
1DIR      (DIR2025) (12:41) (15MAR04) DYNAMIC ALLOCATION - VARY COMMAND                                                     Page   79
0Current Usings:  (*,R7) (CP,R11) (CV,R12)
0Loc    Object Code    Addr1 Addr2  Stmt Lv Lineno    Source Statement           (Hibal 5, Asmedit 3.3)  HLASM R4.0  2004/03/15 12.41
+___    ______ ____    _____ _____  ____ __ ______    ______ _________
00044A0                044A0 04BE0 31184                       PUSH  DSECTS
 0044A0 188D/41D0 D184_            31260              VARY     GENTER DSAVSIZ+VOLDSSZ
 DROP   *,R7
 USING  *,R7
 0044B2 9130 B3BE/4780_003BE       31282                       IF    (CPSFOPR+CPSFSPR,Z),CVNVALID  Priv'd
                                   31305
 0044BA D7FF BE5C BE5C_00E5C 00E5C 31306              VARYOK   CLEAR (CPDSNWA,DSAVSIZ)   Clear area
 0044C6 4160 813C            0013C 31315                       LA    R6,DSAVSIZ(0,R8)    Point at vol entry area
 USING  VOLDSECT,R6                31316                       USING VOLDSECT,R6         ##
 0044CA D747 6000 6000 00000 00000 31325                       CLEAR (VOLDSECT,VOLENTSZ+4)
 0044D0 1B11/58E0 763E_            31332                       OSCAN ,                   Get volume name
 0044D8 4780 C7F0            007F0 31342                       BZ    CVABSENT            BR if missing
 0044DC 4740 C7E4            007E4 31343                       BM    CVNVALID            BR if invalid
 0044E0 4900 765A            04B0C 31344                       CH    R0,=AL2(L'VNAME)    Is it too big?
 0044E4 4720 C7E4            007E4 31345                       BH    CVNVALID            BR if so
 0044E8 D205 6002 C4D8 00002 004D8 31346                       MVC   VNAME,CVBLANKS      Move in blanks
 0044EE 18F0                       31347                       LR    R15,R0              Copy length
 0044F0 06F0/44F0 7066             31348                       DEX   R15,VOLMVC          Move in vol name
 0044F6 4110 6002            00002 31353                       LA    R1,VNAME            Point at volume name
 DROP   VOLDSECT,R6                31354                       DROP  VOLDSECT            ####
                                   31362
 0044FA 5830 C740            00740 31363                       L     R3,CVVOLIST         Get ptr to volume table
 USING  VOLDSECT,R3                31364                       USING VOLDSECT,R3         ##
 0044FE 95FF 3000      00000       31373              VARYCOMP CLI   VOLDSECT,X'FF'      End of list?
 004502 4780 7074            04526 31374                       BE    VNOTFND             Yes, go look for empty slot
 004506 D505 3002 1000 00002 00000 31375                       CLC   VNAME,@R1           Same volume?
 00450C 4780 706C            0451E 31376                       BE    VARYVOL             Branch if so
 004510 4130 3044            00044 31377                       LA    R3,VOLENTSZ(,R3)    Point to next entry
 004514 47F0 704C            044FE 31378                       B     VARYCOMP            Otherwise keep looking
                                   31379
 DROP   VOLDSECT,R3                31380                       DROP  R3                  ## VOLDSECT
 USING  VOLDSECT,R6                31387                       USING VOLDSECT,R6         ## back to temp volentry
 004518 D200 6002 1000 00002 00000 31396              VOLMVC   MVC   VNAME(0),@R1        ** EXECUTED **
                                   31397
 00451E 94DF 3008      00008       31398              VARYVOL  WITH  (VOLDSECT,R3),'CLEAR VFLG1.VF1PRIV'  Reset priv
 DROP   VOLDSECT,R6
 USING  VOLDSECT,R3
 USING  VOLDSECT,R6
 DROP   VOLDSECT,R3
 004522 5030 6018            00018 31447                       ST    R3,VOLWRITS         Save address of real in temp
 004526 1B33                       31448              VNOTFND  SR    R3,R3               Forget address
                                   31449
 004528 9620 6044      00044       31450                       SET   VARFLG1.VF1PRIV     NOPRIV, God dammit!
 00452C 4110 7520/58E0_      049D2 31457                       OSCAN VARYPRT             Go get options
                                   31470
 004536 BF37 6019            00019 31471                       ICM   R3,7,VOLWRITS+1     Get address
 00453A 4770 70D8            0458A 31472                       BNZ   VHVSLO              BR if have slot
 00453E 9140 6045      00045       31473                       TM    VARFLG2,VRF2OFF     Vary offline?
 004542 4710 7478            0492A 31474                       BO    VARYNTAL            BR if we don't know about it
 004546 9180 6045      00045       31475                       TM    VARFLG2,VRF2ON      Vary online?
 00454A 4780 74F4            049A6 31476                       BZ    VOLNFND             BR if we didn't find it
                                   31477
 DROP   VOLDSECT,R6                31478                       DROP  R6                  ## VOLDSECT
 00454E 5830 C740            00740 31485                       L     R3,CVVOLIST         Get vol list addr
1DIR      (DIR2025) (12:41) (15MAR04) DYNAMIC ALLOCATION - VARY COMMAND                                                     Page   80
0Current Usings:  (VOLDSECT,R3) (*,R7) (CP,R11) (CV,R12)
0Loc    Object Code    Addr1 Addr2  Stmt Lv Lineno    Source Statement           (Hibal 5, Asmedit 3.3)  HLASM R4.0  2004/03/15 12.41
+___    ______ ____    _____ _____  ____ __ ______    ______ _________
0USING  VOLDSECT,R3                31486                       USING VOLDSECT,R3         ##
 004552 95FF 3000      00000       31495              VSPRFND  CLI   VOLDSECT,X'FF'      End of table
 004556 4780 750A            049BC 31496                       BE    VNOSLOT             BR if so no slot
 00455A 9540 3002      00002       31497                       CLI   VNAME,C' '          Empty slot?
 00455E 4770 70B8            0456A 31498                       BNE   VSPRNXT             BR if so
 004562 9110 3009      00009       31499                       TM    VFLG2,VF2ADACT      Volume slot active?
 004566 4780 70C0            04572 31500                       BZ    VHVSLOT             BR if not
 00456A 4130 3044            00044 31501              VSPRNXT  LA    R3,VOLENTSZ(0,R3)   Point at next
 00456E 47F0 70A0            04552 31502                       B     VSPRFND             Loop lookin for spare
                                   31503
 004572 9620 6045      00045       31504              VHVSLOT  OI    VARFLG2-VOLDSECT(R6),VRF2SLOT  Set got new slot
 004576 960A 3008      00008       31505                       OI    VFLG1,VF1MNTD+VF1CLR  Set mounted & clear reqst
 00457A D201 3000 C724 00000 00724 31506                       MVC   VTYPE,CVSTYPE       Set default type as save
 004580 D205 3002 6002 00002 00002 31507                       MVC   VNAME,VNAME-VOLDSECT(R6)  Move in name
 004586 9680 600A      0000A       31508                       OI    VFLG3-VOLDSECT(R6),VF3SHOW    Display on show vols
 00458A 1F55/4356 0008             31509              VHVSLO   LC    R5,VFLG1-VOLDSECT(R6)  Get flags to set
 004590 1FEE/43E6 0044             31516                       LC    RAR,VARFLG1-VOLDSECT(R6)  Get flag
 004596 1B11                       31523                       CLEAR R1                  Clear error indicator
 004598 145E                       31527                       NR    R5,RAR              Any conflicting requests?
 00459A 4780 70F0/4110_      045A2 31528                       IF    NZ,'LA R1,1'        (ERROR)
 0045A2 1F44/4346 000A             31545                       LC    R4,VFLG3-VOLDSECT(R6)  Get flags to set
 0045A8 1FFF/43F6 0046             31552                       LC    R15,VARFLG3-VOLDSECT(R6)  Get flag
 0045AE 144F                       31559                       NR    R4,R15              Check for conflicts
 0045B0 4780 7106/4110_      045B8 31560                       IF    NZ,'LA R1,1'        (ERROR)
 0045B8 1211/4780 712E             31577                       IF    (R1,Z),VARDO
 0045BE 4110 768C/4100_      04B3E 31594                       TSEG  'Inconsistent options specified.'
 0045D0 9120 6045      00045       31612                       TM    VARFLG2-VOLDSECT(R6),VRF2SLOT
 0045D4 4780 C7D6            007D6 31613                       BZ    CVERROR             BR if not an empty slot
 0045D8 4DE0 73F4            048A6 31614                       LCALL VARCLEAR            Go clear entry
 0045DC 47F0 C7D6            007D6 31616                       B     CVERROR             Abort request
 0045E0 9108 3008/47E0_00008       31617              VARDO    IF    VFLG1.VF1CLR,'CLEAR VFLG2.VF2ADACT'  Gotchha
 0045EC 9110 3009      00009       31647                       TM    VFLG2,VF2ADACT      Already active?
 0045F0 4710 74CC            0497E 31648                       BO    VARYBSY             BR if very busy
 0045F4 9140 6045      00045       31649                       TM    VARFLG2-VOLDSECT(R6),VRF2OFF  Offline request?
 0045F8 4780 7152            04604 31650                       BZ    VARGO               BR no,don't check resident
 0045FC 9180 3008      00008       31651                       TM    VFLG1,VF1PRES       Is it premanently resident?
 004600 4780 7152            04604 31652                       BZ    VARGO               BR if not
 004604 D501 6000 761E 00000 04AD0 31653              VARGO    CLC   VTYPE-VOLDSECT(L'VTYPE,R6),=D'0'  Type given?
 00460A 4780 7162            04614 31654                       BE    VHVTYP              BR if yes
 00460E D201 3000 6000 00000 00000 31655                       MVC   VTYPE,VTYPE-VOLDSECT(R6)  Move in type
 004614 41F0 00FF            000FF 31656              VHVTYP   LA    R15,255             Get X'FF'
 004618 1FEE/43E6 0044             31657                       LC    RAR,VARFLG1-VOLDSECT(R6)   Get reset value
 00461E 17FE                       31664                       XR    R15,RAR             Get complement
 004620 43E0 3008            00008 31665                       IC    RAR,VFLG1           Get flag
 004624 14EF                       31666                       NR    RAR,R15             Reset flags
 004626 42E0 3008            00008 31667                       STC   RAR,VFLG1           Put flags back
 00462A D600 3008 6008 00008 00008 31668                       OC    VFLG1,VFLG1-VOLDSECT(R6)  Set any flags
 004630 41F0 00FF            000FF 31669                       LA    R15,255             Repeat for other flag
 004634 1FEE/43E6 0046             31670                       LC    RAR,VARFLG3-VOLDSECT(R6)
 00463A 17FE                       31677                       XR    R15,RAR
 00463C 43E0 300A            0000A 31678                       IC    RAR,VFLG3
 004640 14EF                       31679                       NR    RAR,R15
 004642 42E0 300A            0000A 31680                       STC   RAR,VFLG3
 004646 D600 300A 600A 0000A 0000A 31681                       OC    VFLG3,VFLG3-VOLDSECT(R6)
1DIR      (DIR2025) (12:41) (15MAR04) DYNAMIC ALLOCATION - VARY COMMAND                                                     Page   81
0Current Usings:  (VOLDSECT,R3) (*,R7) (CP,R11) (CV,R12)
0Loc    Object Code    Addr1 Addr2  Stmt Lv Lineno    Source Statement           (Hibal 5, Asmedit 3.3)  HLASM R4.0  2004/03/15 12.41
+___    ______ ____    _____ _____  ____ __ ______    ______ _________
000464C 9140 6045      00045       31682                       TM    VARFLG2-VOLDSECT(R6),VRF2OFF  Make it offline?
 004650 4780 7278            0472A 31683                       BZ    VONLIN              BR if not
                                   31684
 004654 9108 3008/47E0_00008       31685                       IF    VFLG1.VF1CLR,'CLEAR VFLG1.VF1PDA'  Gotcha
 004660 9110 3008      00008       31714                       TM    VFLG1,VF1PDA        Pending deallo?
 004664 4710 7214            046C6 31715                       BO    VISOFF              BR if so
 004668 9101 3008      00008       31716                       TM    VFLG1,VF1ON         Is it online?
 00466C 4780 74B6            04968 31717                       BZ    VARYNON             BR if not online
                                   31718              *
                                   31719              *
 004670 94FE 3008      00008       31720              VOFFLIN  NI    VFLG1,255-VF1ON     No longer online
 004674 4840 3028            00028 31721                       LH    R4,VOLUSECT         Get use count
 004678 9108 3008/47E0_00008       31722                       IF    VFLG1.VF1CLR,'CLEAR R4,VOLUSECT'  Gotcha
 004686 1244                       31752                       LTR   R4,R4               Is it positive?
 004688 4720 7214            046C6 31753                       BP    VISOFF              BR if so, let it dry out
 00468C D227 BE90 C4D8 00E90 004D8 31754                       MVC   DSNON,CVBLANKS
 004692 D205 BE90 3002 00E90 00002 31755                       MVC   DSNON6,VNAME        Set vol name
 004698 D501 3026 761E 00026 04AD0 31756                       CLC   VOLUCBAD+2(2),=D'0' Is it already offline?
 00469E 4780 7214            046C6 31757                       BE    VISOFF              BR if so
 0046A2 9640 3008      00008       31758                       SET   VFLG1.VF1AVAIL      Set available
 0046A6 9640 3009      00009       31765                       OI    VFLG2,VF2DALLO      Request deallo
 0046AA 5800 C4D0/58F0_      004D0 31766                       DOPEN CVONE,CVONE,VALO    Open for allocation/deallo
 0046BC 4780 7214/58E0_      046C6 31780                       IF    NZ,'VCALL NTGDOPN'  If failure, error
                                   31800
 0046C6 94FD 3008      00008       31801              VISOFF   NI    VFLG1,255-VF1MNTD   No longer mounted
 0046CA 4110 765C/4100_      04B0E 31802                       TSEG  'Volume',,B         Set volume
 0046DC 4100 0006            00006 31820                       LA    R0,L'VNAME          Get length of name
 0046E0 4116 0002            00002 31821                       LA    R1,VNAME-VOLDSECT(R6)  Point at name
 0046E4 41F0 B050/58E0_      00050 31822                       TSEG  (R1),(R0),B         Out with it
 0046EE 1244                       31846                       LTR   R4,R4               Pending offline?
 0046F0 4780 7258            0470A 31847                       BZ    VOFPDN              BR if not
 0046F4 9610 3008      00008       31848                       SET   VFLG1.VF1PDA        Set pending offline
 0046F8 4110 76AB/4100_      04B5D 31855                       TSEG  'Pending',,B        Tell oper its drying out
 00470A 4110 76B2/4100_      04B64 31873              VOFPDN   TSEG  'Offline'           Set offline
 00471C 1244                       31891                       LTR   R4,R4               Pending off ?
 00471E 4720 C7DE            007DE 31892                       BP    CVNEXT              BR if so
 004722 4DE0 73F4            048A6 31893                       LCALL VARCLEAR            Go check/clear entry
 004726 47F0 C7DE            007DE 31895                       B     CVNEXT              Go get new command
                                   31896
 00472A 9180 6045      00045       31897              VONLIN   TM    VARFLG2-VOLDSECT(R6),VRF2ON  Vary online?
 00472E 4780 72E2            04794 31898                       BZ    VAROND              BR if not
 004732 9101 3008      00008       31899                       TM    VFLG1,VF1ON         Already online?
 004736 4710 72E2            04794 31900                       BO    VAROND              BR if so all done.
 00473A 9140 6044      00044       31901                       TM    VARFLG1-VOLDSECT(R6),VF1AVAIL  To be unavail?
 00473E 4710 72E2            04794 31902                       BO    VAROND              BR if not
 004742 9640 3008      00008       31903                       OI    VFLG1,VF1AVAIL      Set available
 004746 D227 BE90 C4D8 00E90 004D8 31904                       MVC   DSNON,CVBLANKS
 00474C D205 BE90 3002 00E90 00002 31905                       MVC   DSNON6,VNAME        Set volume name
 004752 9680 3009      00009       31906                       SET   VFLG2.VF2ALLO       Allocate the volume please
 004756 9108 6045      00045       31913                       TM    VARFLG2-VOLDSECT(R6),VRF2MNT  Mount?
 00475A 47E0 72B0/9608_      04762 31914                       IF    O,'SET VFLG2.VF2MOUNT'  Set mount req
 004762 5800 C4D0/58F0_      004D0 31937                       DOPEN CVONE,CVONE,VALO    Open for allocation
 004774 4780 72D4            04786 31951                       IF    NZ,BEGIN            If error, clean up
 004778 94FE 3008      00008       31962  1                      NI    VFLG1,255-VF1ON     Reset access
1DIR      (DIR2025) (12:41) (15MAR04) DYNAMIC ALLOCATION - VARY COMMAND                                                     Page   82
0Current Usings:  (VOLDSECT,R3) (*,R7) (CP,R11) (CV,R12)
0Loc    Object Code    Addr1 Addr2  Stmt Lv Lineno    Source Statement           (Hibal 5, Asmedit 3.3)  HLASM R4.0  2004/03/15 12.41
+___    ______ ____    _____ _____  ____ __ ______    ______ _________
000477C 4DE0 73F4            048A6 31963  1                      LCALL VARCLEAR            Go clear out if necc
 004780 58E0 764A/0DEE       04AFC 31965  1                      VCALL NTGDOPN             Go tell oper what went wrong
 004786                            31969                       END   ,
                                   31973
 004786 9601 3008      00008       31974              VARISON  OI    VFLG1,VF1ON         Turn it online
 00478A 4840 3028            00028 31975                       LH    R4,VOLUSECT         Get use count
 00478E 0640                       31976                       DECR  R4                  Decrement one
 004790 4040 3028            00028 31978                       STH   R4,VOLUSECT         Resave use count
                                   31979
 004794 4110 76B9/4100_      04B6B 31980              VAROND   TSEG  'Volume '
 0047A6 4110 3002/4100_      00002 31998                       TSEG  VNAME,L'VNAME,B     Out with name
 0047B8 9180 3008/47E0_00008       32028                       IF    VFLG1.VF1PRES,'TSEG "Resident "'
 0047D2 9140 3008/47E0_00008       32067                       IF    VFLG1.VF1AVAIL,'TSEG "Access "'
 0047EC 9120 3008/47E0_00008       32106                       IF    VFLG1.VF1PRIV,'TSEG "Privileged "'
 004806 9110 3008/47E0_00008       32145                       IF    VFLG1.VF1PDA,'TSEG "Pending deallocation "'
 004820 9108 3008/47E0_00008       32184                       IF    VFLG1.VF1CLR,'TSEG "Clear "'
 00483A 9104 3008/47E0_00008       32223                       IF    VFLG1.VF1AJCL,'TSEG "Allocated via JCL "'
 004854 9102 3008/47E0_00008       32262                       IF    VFLG1.VF1MNTD,'TSEG "Mounted "'
 00486E 9101 3008/47E0_00008       32301                       IF    VFLG1.VF1ON,'TSEG "Online "'
 004888 9180 300A/47E0_0000A       32340                       IF    VFLG3.VF3SHOW,'TSEG "Show "'
 0048A2 47F0 C7DE            007DE 32379                       B     CVNEXT
                                   32380
 0048A6 9108 3008      00008       32381              VARCLEAR TM    VFLG1,VF1CLR        Entry to be cleared?
 0048AA 078E                       32382                       BZR   RAR                 BR if not
 0048AC D743 3000 3000 00000 00000 32383                       CLEAR (VOLDSECT,VOLENTSZ) Clear the entry
 0048B2 D205 3002 C4D8 00002 004D8 32390                       MVC   VNAME,CVBLANKS      Blank out name
 0048B8 D201 3000 C724 00000 00724 32391                       MVC   VTYPE,CVSTYPE       Clear type
 0048BE 07FE                       32392                       BR    RAR                 Return to caller
 DROP   VOLDSECT,R3                32393                       DROP  R3                  ## VOLDSECT
                                   32400
 USING  VOLDSECT,R6                32401                       USING VOLDSECT,R6         ##
                                   32410
 0048C0 9680 6045      00045       32411              VARYON   OI    VARFLG2,VRF2ON      Set to turn online
 0048C4 07FE                       32412                       BR    RAR                 Scan on
                                   32413
 0048C6 9688 6045      00045       32414              VARYMNT  OI    VARFLG2,VRF2MNT+VRF2ON  Mount implies online
 0048CA 07FE                       32415                       BR    RAR                 Onward
 0048CC 9640 6045      00045       32416              VARYOFF  OI    VARFLG2,VRF2OFF     Turn offline
                                   32417              *                                  Will force deallocation
 0048D0 07FE                       32418                       BR    RAR                 Scan on
                                   32419
 0048D2 9640 6044      00044       32420              VARNOACC OI    VARFLG1,VF1AVAIL    Set so reset avail flag
 0048D6 07FE                       32421                       BR    RAR
                                   32422
 0048D8 9640 6008      00008       32423              VARACC   OI    VFLG1,VF1AVAIL      Mark available
 0048DC 07FE                       32424                       BR    RAR                 Onward
                                   32425
 0048DE 9680 6008      00008       32426              VARRES   OI    VFLG1,VF1PRES       Set resident
 0048E2 07FE                       32427                       BR    RAR
                                   32428
 0048E4 9680 6044      00044       32429              VARNORES OI    VARFLG1,VF1PRES     Set so reset resident flag
 0048E8 07FE                       32430                       BR    RAR
                                   32431
 0048EA D201 6000 C724 00000 00724 32432              VARSAV   MVC   VTYPE,CVSTYPE       Set use & save type
1DIR      (DIR2025) (12:41) (15MAR04) DYNAMIC ALLOCATION - VARY COMMAND                                                     Page   83
0Current Usings:  (VOLDSECT,R6) (*,R7) (CP,R11) (CV,R12)
0Loc    Object Code    Addr1 Addr2  Stmt Lv Lineno    Source Statement           (Hibal 5, Asmedit 3.3)  HLASM R4.0  2004/03/15 12.41
+___    ______ ____    _____ _____  ____ __ ______    ______ _________
00048F0 07FE                       32433                       BR    RAR
                                   32434
 0048F2 D201 6000 C726 00000 00726 32435              VARUSE   MVC   VTYPE,CVUTYPE       Set use only volume
 0048F8 07FE                       32436                       BR    RAR
                                   32437
 0048FA D201 6000 C728 00000 00728 32438              VARTMP   MVC   VTYPE,CVTTYPE       Set scratch type
 004900 07FE                       32439                       BR    RAR
                                   32440
 004902 9608 6008      00008       32441              VARCLR   OI    VFLG1,VF1CLR        Clear at deallocation
 004906 07FE                       32442                       BR    RAR
                                   32443
 004908 9608 6044      00044       32444              VARNOCLR OI    VARFLG1,VF1CLR      Set so reset clear req
 00490C 07FE                       32445                       BR    RAR
                                   32446
 00490E 9620 6008      00008       32447              VARPRV   OI    VFLG1,VF1PRIV       Set for priv access
 004912 94DF 6044      00044       32448                       NI    VARFLG1,255-VF1PRIV
 004916 07FE                       32449                       BR    RAR                 Onward
                                   32450
 004918 9620 6044      00044       32451              VARNOPRV OI    VARFLG1,VF1PRIV     Set so reset priv flg
 00491C 07FE                       32452                       BR    RAR
                                   32453
 00491E 9680 600A      0000A       32454              VARSHOW  OI    VFLG3,VF3SHOW
 004922 07FE                       32455                       BR    RAR
                                   32456
 004924 9680 6046      00046       32457              VARNSHOW OI    VARFLG3,VF3SHOW
 004928 07FE                       32458                       BR    RAR
                                   32459
 00492A 94A7 6008      00008       32460              VARYNTAL NI    VFLG1,255-VF1AVAIL-VF1PDA-VF1CLR
 00492E 4110 765C/4100_      04B0E 32461                       TSEG  'Volume',,B
 004940 4110 6002/4100_      00002 32479                       TSEG  VNAME,L'VNAME,B
 004952 4110 76FC/4100_      04BAE 32509                       TSEG  'not currently allocated by WYLBUR',,WR
 004964 47F0 C7D6            007D6 32527                       B     CVERROR
                                   32528
 004968 4110 771D/4100_      04BCF 32529              VARYNON  TSEG  'Volume not online',,B
 00497A 47F0 C7D6            007D6 32547                       B     CVERROR
                                   32548
 00497E 4110 765C/4100_      04B0E 32549              VARYBSY  TSEG  'Volume',,B         Set volume
 004990 4110 7656/4100_      04B08 32567                       TSEG  'Busy'              Is busy
 0049A2 47F0 C7D6            007D6 32585                       B     CVERROR             Go exclaim to caller
                                   32586
 0049A6 4110 762E/4100_      04AE0 32587              VOLNFND  TSEG  'Volume not found',,B
 0049B8 47F0 C7D6            007D6 32605                       B     CVERROR
                                   32606
 0049BC 4110 767A/4100_      04B2C 32607              VNOSLOT  TSEG  'No room for volume'
 0049CE 47F0 C7D6            007D6 32625                       B     CVERROR
-0049D2                            32627              VARYPRT  DS    0X
 0049D2 0D0048C0D6D5D3C9           32628                       OSCKW ONLINE,VARYON,A     Vary volume online
 0049DC 010048C0D6D5               32630                       OSCKW ON,VARYON
 0049E2 0E0048CCD6C6C6D3           32632                       OSCKW OFFLINE,VARYOFF,A
 0049ED 0D0048D8C1C3C3C5           32634                       OSCKW ACCESS,VARACC,A     Allow access
 0049F7 0F0048D2D5D6C1C3           32636                       OSCKW NOACCESS,VARNOACC,A Disallow access
 004A03 0F0048DED9C5E2C9           32638                       OSCKW RESIDENT,VARRES,A   Make resident volume
1DIR      (DIR2025) (12:41) (15MAR04) DYNAMIC ALLOCATION - VARY COMMAND                                                     Page   84
0Current Usings:  (VOLDSECT,R6) (*,R7) (CP,R11) (CV,R12)
0Loc    Object Code    Addr1 Addr2  Stmt Lv Lineno    Source Statement           (Hibal 5, Asmedit 3.3)  HLASM R4.0  2004/03/15 12.41
+___    ______ ____    _____ _____  ____ __ ______    ______ _________
0004A0F 0F0048E4D5D6D9C5           32640                       OSCKW NORESIDENT,VARNORES,A
 004A1B 0F0048E4D5D6D5D9           32642                       OSCKW NONRESIDENT,VARNORES,A  Make non resident
 004A27 0B0048EAE2C1E5C5           32644                       OSCKW SAVE,VARSAV,A       Make a use & save vol
 004A2F 0A0048F2E4E2C5             32646                       OSCKW USE,VARUSE,A        Make into useonly vol
 004A36 0F0048FAE3C5D4D7           32648                       OSCKW TEMPORARY,VARTMP,A
 004A42 0E0048FAE2C3D9C1           32650                       OSCKW SCRATCH,VARTMP,A    Make into a temp use/save vol
 004A4D 0E004908D5D6C3D3           32652                       OSCKW NOCLEAR,VARNOCLR,A
 004A58 0C004902C3D3C5C1           32654                       OSCKW CLEAR,VARCLR,A      Clear slot after deallocation
 004A61 02004902C3D3D9             32656                       OSCKW CLR,VARCLR
 004A68 0F00490ED7D9C9E5           32658                       OSCKW PRIVILEGE,VARPRV,A  Make access privileged
 004A74 0F004918D5D6D7D9           32660                       OSCKW NOPRIVILEGE,VARNOPRV,A
 004A80 0B00491EE2C8D6E6           32662                       OSCKW SHOW,VARSHOW,A
 004A88 0D004924D5D6E2C8           32664                       OSCKW NOSHOW,VARNSHOW,A
 004A92 0C0048C6D4D6E4D5           32666                       OSCKW MOUNT,VARYMNT,A
 004A9B FF000000                   32668                       OSCKW ,V(INVALID)
 DROP   VOLDSECT,R6                32670                       DROP  R6,BR
 DROP   *,R7
                                   32683
                                   32684                       VLTORG
 004AD0                            32695                       END   .
 004AD0 0000000000000000           32698                             =D'0'
 004AD8 D496A495A3858440           32699                             =C'Mounted '
 004AE0 E59693A494854095           32700                             =C'Volume not found'
 004AF0 00000000                   32701                             =V(SCAN)
 004AF4 00000000                   32702                             =V(SEG)
 004AF8 00000000                   32703                             =V(DOPEN)
 004AFC 00000000                   32704                             =V(NTGDOPN)
 004B00 00000000                   32705                             =V(SEGB)
 004B04 00000000                   32706                             =V(SEGWR)
 004B08 C2A4A2A8                   32707                             =C'Busy'
 004B0C 0006                       32708                             =AL2(L'VNAME)
 004B0E E59693A49485               32709                             =C'Volume'
 004B14 C39385819940               32710                             =C'Clear '
 004B1A C19393968381A385           32711                             =C'Allocated via JCL '
 004B2C D596409996969440           32712                             =C'No room for volume'
 004B3E C995839695A289A2           32713                             =C'Inconsistent options specified.'
 004B5D D7859584899587             32714                             =C'Pending'
 004B64 D6868693899585             32715                             =C'Offline'
 004B6B E59693A4948540             32716                             =C'Volume '
 004B72 D985A289848595A3           32717                             =C'Resident '
 004B7B C1838385A2A240             32718                             =C'Access '
 004B82 D79989A589938587           32719                             =C'Privileged '
 004B8D D785958489958740           32720                             =C'Pending deallocation '
 004BA2 D6959389958540             32721                             =C'Online '
 004BA9 E28896A640                 32722                             =C'Show '
 004BAE 9596A34083A49999           32723                             =C'not currently allocated by WYLBUR'
 004BCF E59693A494854095           32724                             =C'Volume not online'

1DIR      (DIR2025) (12:41) (15MAR04) Relocation Dictionary                                                                 Page   85
-   Pos.Id   Rel.Id   Flags    Address                                                       HLASM R4.0  2004/03/15 12.41
0  00000001 00000001    0C    00000140
   00000001 00000001    0C    00000518
   00000001 00000001    0C    00000540
   00000001 00000001    0C    00000568
   00000001 00000001    0C    00000590
   00000001 00000001    0C    000005B8
   00000001 00000001    0C    000005E0
   00000001 00000001    0C    00000608
   00000001 00000001    0C    00000630
   00000001 00000001    0C    00000658
   00000001 00000001    0C    00000680
   00000001 00000001    0C    000006A8
   00000001 00000001    0C    000006D0
   00000001 00000001    0C    000006F8
   00000001 00000001    0C    00000720
   00000001 00000001    0C    00000BC4
   00000001 00000001    0C    00000C18
   00000001 00000001    08    00000E23
   00000001 00000001    0C    0000104C
   00000001 00000001    0C    00001BFC
   00000001 00000001    0C    00001C10
   00000001 00000001    0C    00001F60
   00000001 00000001    0C    00001F68
   00000001 00000001    0C    00001F6C
   00000001 00000001    0C    00001F74
   00000001 00000001    0C    00001F7C
   00000001 00000001    0C    00001F80
   00000001 00000001    0C    00001F84
   00000001 00000001    0C    0000234C
   00000001 00000001    0C    0000238C
   00000001 00000001    0C    000024D8
   00000001 00000001    0C    00002500
   00000001 00000001    0C    00002528
   00000001 00000001    0C    00002550
   00000001 00000001    0C    00002578
   00000001 00000001    0C    000025A0
   00000001 00000001    0C    000025C8
   00000001 00000001    0C    000025F0
   00000001 00000001    0C    00002618
   00000001 00000001    0C    00002640
   00000001 00000001    08    00002B85
   00000001 00000001    0C    00002D8C
   00000001 00000001    0C    00002FFC
   00000001 00000001    0C    00003020
   00000001 00000001    0C    00003168
   00000001 00000001    0C    00003174
   00000001 00000001    0C    00003178
   00000001 00000001    0C    00003180
   00000001 00000001    0C    00003184
   00000001 00000001    0C    00003188
   00000001 00000001    0C    0000320C
   00000001 00000001    0C    00003528
   00000001 00000001    0C    00003550
   00000001 00000001    0C    00003578
   00000001 00000001    0C    000035A0
1DIR      (DIR2025) (12:41) (15MAR04) Relocation Dictionary                                                                 Page   86
   00000001 00000001    0C    000035C8
   00000001 00000001    0C    000035F0
   00000001 00000001    0C    00003618
   00000001 00000001    0C    00003640
   00000001 00000001    0C    00003668
   00000001 00000001    0C    00003690
   00000001 00000001    0C    000036B8
   00000001 00000001    0C    000036E0
   00000001 00000001    0C    00003708
   00000001 00000001    0C    00003730
   00000001 00000001    0C    00003B74
   00000001 00000001    0C    00003BD8
   00000001 00000001    08    00003DBB
   00000001 00000001    0C    00004064
   00000001 00000001    0C    00004458
   00000001 00000001    0C    0000445C
   00000001 00000001    0C    00004460
   00000001 00000001    0C    00004464
   00000001 00000001    08    000049D3
   00000001 00000001    08    000049DD
   00000001 00000001    08    000049E3
   00000001 00000001    08    000049EE
   00000001 00000001    08    000049F8
   00000001 00000001    08    00004A04
   00000001 00000001    08    00004A10
   00000001 00000001    08    00004A1C
   00000001 00000001    08    00004A28
   00000001 00000001    08    00004A30
   00000001 00000001    08    00004A37
   00000001 00000001    08    00004A43
   00000001 00000001    08    00004A4E
   00000001 00000001    08    00004A59
   00000001 00000001    08    00004A62
   00000001 00000001    08    00004A69
   00000001 00000001    08    00004A75
   00000001 00000001    08    00004A81
   00000001 00000001    08    00004A89
   00000001 00000001    08    00004A93
   00000001 00000002    1C    000000EC
   00000001 00000003    1C    00000114
   00000001 00000003    1C    00000748
   00000001 00000003    1C    00002668
   00000001 00000003    1C    00003758
   00000001 00000004    1C    00000138
   00000001 00000004    1C    000007BC
   00000001 00000004    1C    000026DC
   00000001 00000004    1C    000037CC
   00000001 00000005    1C    0000013C
   00000001 00000005    1C    000007C0
   00000001 00000005    1C    000026E0
   00000001 00000005    1C    000037D0
   00000001 00000006    1C    00000144
   00000001 00000006    1C    00000BC8
   00000001 00000006    1C    00002350
   00000001 00000006    1C    00003B78
   00000001 00000007    1C    00000148
   00000001 00000007    1C    00000BC0
   00000001 00000007    1C    00002348
   00000001 00000007    1C    00003B70
1DIR      (DIR2025) (12:41) (15MAR04) Relocation Dictionary                                                                 Page   87
   00000001 00000008    1C    0000014C
   00000001 00000009    1C    00000514
   00000001 00000009    1C    0000053C
   00000001 00000009    1C    00000564
   00000001 00000009    1C    000005DC
   00000001 00000009    1C    00000604
   00000001 00000009    1C    0000062C
   00000001 00000009    1C    00000654
   00000001 00000009    1C    0000067C
   00000001 00000009    1C    000006A4
   00000001 00000009    1C    000006CC
   00000001 00000009    1C    000006F4
   00000001 00000009    1C    0000071C
   00000001 00000009    1C    000024D4
   00000001 00000009    1C    00002574
   00000001 00000009    1C    0000259C
   00000001 00000009    1C    000025C4
   00000001 00000009    1C    000025EC
   00000001 00000009    1C    00002614
   00000001 00000009    1C    0000263C
   00000001 00000009    1C    00003524
   00000001 00000009    1C    0000354C
   00000001 00000009    1C    00003574
   00000001 00000009    1C    0000359C
   00000001 00000009    1C    000035C4
   00000001 00000009    1C    000035EC
   00000001 00000009    1C    00003614
   00000001 00000009    1C    000036B4
   00000001 00000009    1C    000036DC
   00000001 00000009    1C    00003704
   00000001 00000009    1C    0000372C
   00000001 0000000A    1C    0000058C
   00000001 0000000A    1C    000005B4
   00000001 0000000A    1C    000024FC
   00000001 0000000A    1C    00002524
   00000001 0000000A    1C    0000254C
   00000001 0000000A    1C    0000363C
   00000001 0000000A    1C    00003664
   00000001 0000000A    1C    0000368C
   00000001 0000000B    1C    00000770
   00000001 0000000B    1C    00002690
   00000001 0000000B    1C    00003780
   00000001 0000000C    1C    00000798
   00000001 0000000C    1C    000026B8
   00000001 0000000C    1C    000037A8
   00000001 0000000D    1C    00000BCC
   00000001 0000000D    1C    00002354
   00000001 0000000D    1C    00003B7C
   00000001 0000000E    1C    00000BD0
   00000001 0000000E    1C    0000135C
   00000001 0000000E    1C    000015BC
   00000001 0000000E    1C    00001C14
   00000001 0000000E    1C    00001F88
   00000001 0000000E    1C    00002358
   00000001 0000000E    1C    00002E80
   00000001 0000000E    1C    00003014
   00000001 0000000E    1C    0000316C
   00000001 0000000E    1C    00003208
   00000001 0000000E    1C    00003B80
1DIR      (DIR2025) (12:41) (15MAR04) Relocation Dictionary                                                                 Page   88
   00000001 0000000E    1C    00004B00
   00000001 0000000F    1C    00000BD4
   00000001 0000000F    1C    0000235C
   00000001 0000000F    1C    00003BA8
   00000001 00000010    1C    00000BD8
   00000001 00000010    1C    00003004
   00000001 00000011    1C    00000BDC
   00000001 00000011    1C    00001048
   00000001 00000011    1C    00001F78
   00000001 00000011    1C    00002394
   00000001 00000011    1C    00002A70
   00000001 00000011    1C    00002D88
   00000001 00000011    1C    0000317C
   00000001 00000011    1C    00003BAC
   00000001 00000011    1C    00004060
   00000001 00000011    1C    00004454
   00000001 00000012    1C    00000BE0
   00000001 00000012    1C    0000136C
   00000001 00000012    1C    000015CC
   00000001 00000012    1C    00001C00
   00000001 00000012    1C    00001F70
   00000001 00000012    1C    000023A0
   00000001 00000012    1C    00002E84
   00000001 00000012    1C    00003000
   00000001 00000012    1C    00003170
   00000001 00000012    1C    00003BD4
   00000001 00000012    1C    00004450
   00000001 00000012    1C    00004AF4
   00000001 00000013    1C    00000BE4
   00000001 00000013    1C    00002360
   00000001 00000013    1C    00003BB8
   00000001 00000014    1C    00000BE8
   00000001 00000014    1C    00002364
   00000001 00000015    1C    00000BFC
   00000001 00000016    1C    00000C04
   00000001 00000017    1C    00000C0C
   00000001 00000017    1C    0000239C
   00000001 00000017    1C    00003BD0
   00000001 00000018    1C    00000C14
   00000001 00000019    1C    00000C1C
   00000001 00000019    1C    00002A7C
   00000001 0000001A    1C    00000C24
   00000001 0000001A    1C    00002378
   00000001 0000001A    1C    00002A74
   00000001 0000001A    1C    00003BBC
   00000001 0000001B    1C    00000E90
   00000001 0000001B    1C    00001038
   00000001 0000001B    1C    00001F58
   00000001 0000001B    1C    00002BD8
   00000001 0000001B    1C    00002D78
   00000001 0000001B    1C    00003160
   00000001 0000001B    1C    00003D28
   00000001 0000001B    1C    00003E10
   00000001 0000001B    1C    00004048
   00000001 0000001B    1C    00004448
   00000001 0000001C    1C    00000E98
   00000001 0000001C    1C    00001030
   00000001 0000001C    1C    00002BE0
   00000001 0000001C    1C    00002D70
1DIR      (DIR2025) (12:41) (15MAR04) Relocation Dictionary                                                                 Page   89
   00000001 0000001C    1C    00003E18
   00000001 0000001C    1C    00004040
   00000001 0000001D    1C    0000103C
   00000001 0000001D    1C    00001C0C
   00000001 0000001D    1C    00002D7C
   00000001 0000001D    1C    00002FF8
   00000001 0000001D    1C    00004054
   00000001 0000001E    1C    00001040
   00000001 0000001E    1C    00002D80
   00000001 0000001E    1C    00004058
   00000001 0000001F    1C    00001044
   00000001 0000001F    1C    00002D84
   00000001 0000001F    1C    0000405C
   00000001 00000020    1C    00001358
   00000001 00000020    1C    000015B8
   00000001 00000021    1C    00001360
   00000001 00000021    1C    000015C0
   00000001 00000021    1C    00001C18
   00000001 00000021    1C    00002E88
   00000001 00000021    1C    00003008
   00000001 00000022    1C    00001368
   00000001 00000022    1C    000015C8
   00000001 00000023    1C    00001C20
   00000001 00000023    1C    00002E8C
   00000001 00000023    1C    0000300C
   00000001 00000024    1C    00002380
   00000001 00000025    1C    00002388
   00000001 00000026    1C    00002390
   00000001 00000026    1C    00004050
   00000001 00000026    1C    00004B04
   00000001 00000027    1C    00003BA4
   00000001 00000028    1C    00003BB0
   00000001 00000029    1C    00003BB4
   00000001 0000002A    1C    00003BC0
   00000001 0000002B    1C    00003BC4
   00000001 0000002C    1C    00003BDC
   00000001 0000002D    1C    00003BE8
   00000001 0000002E    1C    00003D20
   00000001 0000002F    1C    00003D24
   00000001 00000030    1C    0000404C
   00000001 00000031    18    00004A9C
   00000001 00000032    1C    00004AF0
   00000001 00000033    1C    00004AF8
   00000001 00000034    1C    00004AFC

1DIR      (DIR2025) (12:41) (15MAR04) Ordinary Symbol and Literal Cross Reference                                           Page   90
-Symbol   Length   Value     Id    R Type   Defn References                                  HLASM R4.0  2004/03/15 12.41
0$$$@R0        1 00000000 FFFFFFFE     J     705  1016
 $$$@R10       1 00000000 FFFFFFF4     J     835  1093
 $$$@R11       1 00000000 FFFFFFF3     J     848  1106
 $$$@R12       1 00000000 FFFFFFF2     J     861  1119
 $$$@R13       1 00000000 FFFFFFF1     J     874  1132
 $$$@R14       1 00000000 FFFFFFF0     J     887  1145
 $$$@R6        1 00000000 FFFFFFF8     J     783  1029
 $$$@R7        1 00000000 FFFFFFF7     J     796  1042
 $$$@R8        1 00000000 FFFFFFF6     J     809  1055   1067
 $$$@R9        1 00000000 FFFFFFF5     J     822  1080
 $$$C1WYLDIR
               1 0000017B 00000001     J   10283 10285  10796  10840  10903  10947  11048  11246  11296  11363  12046
                                                 12276  12458  12634
 $$$C10WYLDIR
               1 00002AF8 00000001     J   23164 23166
 $$$C11WYLDIR
               1 00002BE8 00000001     J   23477 23479  23833  23872
 $$$C12WYLDIR
               1 00002DAA 00000001     J   24078 24080
 $$$C13WYLDIR
               1 00002E90 00000001     J   24472 24474  24600
 $$$C14WYLDIR
               1 0000303C 00000001     J   25094 25096
 $$$C15WYLDIR
               1 0000318C 00000001     J   25617 25619
 $$$C16WYLDIR
               1 00003211 00000001     J   25833 25835  27247  27367  27498  27618  27749  27869
 $$$C17WYLDIR
               1 00003CAC 00000001     J   28493 28495
 $$$C18WYLDIR
               1 00003D2E 00000001     J   28587 28589
 $$$C19WYLDIR
               1 00003E20 00000001     J   28895 28897  29453  29503
 $$$C2WYLDIR
               1 00000D96 00000001     J   13342 13344  13586
 $$$C20WYLDIR
               1 00004084 00000001     J   29719 29721
 $$$C21WYLDIR
               1 000044A0 00000001     J   31170 31172  31258
 $$$C22WYLDIR
               1 00004BE0 00000001     J   32725 32727
 $$$C3WYLDIR
               1 00000EA6 00000001     J   13686 13688  14042  14081
 $$$C4WYLDIR
               1 0000106A 00000001     J   14294 14296  14415
 $$$C5WYLDIR
               1 00001373 00000001     J   15706 15708
 $$$C6WYLDIR
               1 000015D2 00000001     J   16727 16729  17612
 $$$C7WYLDIR
               1 00001C56 00000001     J   18872 18874  18908  19402
 $$$C8WYLDIR
               1 00001FD0 00000001     J   20155 20157  20191  20511  20555  20618  20662  20768  20964  21014  21082
                                                 21263
 $$$C9WYLDIR
1DIR      (DIR2025) (12:41) (15MAR04) Ordinary Symbol and Literal Cross Reference                                           Page   91
               1 000024B4 00000001     J   21574 21576  21961  22137  22300  22420  22556  22676
 $$$DVT        4 000008B8 FFFFFFE9     F    7139  7193   7193
 $$$D1WYLDIR
               1 00000D4E 00000001     J   10284 10785  10829  10892  10936  11037  11235  11285  11352  12035  12265
                                                 12447  12623
 $$$D11WYLDIR
               1 00002D9D 00000001     J   23478 23822  23861
 $$$D13WYLDIR
               1 00003035 00000001     J   24473 24589
 $$$D16WYLDIR
               1 00003C87 00000001     J   25834 27236  27356  27487  27607  27738  27858
 $$$D19WYLDIR
               1 00004077 00000001     J   28896 29442  29492
 $$$D2WYLDIR
               1 00000EA0 00000001     J   13343 13575
 $$$D3WYLDIR
               1 0000105D 00000001     J   13687 14031  14070
 $$$D6WYLDIR
               1 00001C4F 00000001     J   16728 17601
 $$$D7WYLDIR
               1 00001FC9 00000001     J   18873 19391
 $$$D8WYLDIR
               1 0000247D 00000001     J   20156 20500  20544  20607  20651  20757  20953  21003  21071  21252
 $$$D9WYLDIR
               1 00002AD4 00000001     J   21575 21950  22126  22289  22409  22545  22665
 $$$RCP        1 00000000 FFFFFFEC     J    2468  4728   6202   6202
 $$$RCTERRWK
               1 00000000 FFFFFFDB     J   20175 20190  20190
 $$$RCV        1 00000000 FFFFFFEE     J    1193  2378   2378
 $$$RDEV       1 00000000 FFFFFFEB     J    4682  4727   4727
 $$$RDSNINFO
               1 00000000 FFFFFFE3     J    9768  9866   9866
 $$$RDSNINWA
               1 00000000 FFFFFFDD     J   14314 14414  14414
 $$$RDSPDSWA
               1 00000000 FFFFFFDC     J   18893 18907  18907
 $$$RFFINFO
               1 00000000 FFFFFFE6     J    9388  9597   9597
 $$$RJCB       1 00000000 FFFFFFE8     J    8988  9262   9262
 $$$RLUVENTRY
               1 00000000 FFFFFFE0     J    9972  9992   9992
 $$$RLUVHDR
               1 00000000 FFFFFFE1     J    9950  9965   9965
 $$$RNSCNCB
               1 00000000 FFFFFFED     J    2389  2462   2462
 $$$RSDSNBUF
               1 00000000 FFFFFFDF     J    9998 10042  10042
 $$$RSEGCB
               1 00000000 FFFFFFE7     J    9267  9367   9367
 $$$RSHCTARGS
               1 00000000 FFFFFFE2     J    9872  9938   9938
 $$$RSHDRARGS
               1 00000000 FFFFFFE5     J    9603  9674   9674
 $$$RSHDSARGS
               1 00000000 FFFFFFE4     J    9680  9762   9762
 $$$RTTYPE
               1 00000000 FFFFFFEA     J    6213  6314   6314
 $$$RVOLINFO
               1 00000000 FFFFFFDE     J   10049 10067  10067
1DIR      (DIR2025) (12:41) (15MAR04) Ordinary Symbol and Literal Cross Reference                                           Page   92
 $$$SEGCB0
               4 00000050 FFFFFFEC     F    2499  2585   2585
 $$$SEGCB218
               4 00000000 FFFFFFDD     F   14321 14407  14407
 $$$V01       15 00004A9F 00000001     C   32690 13512
 $$$V02       15 00004AAE 00000001     C   32691 23344
 $$$V03       15 00004ABD 00000001     C   32692 28755
 $$$Z1         4 00000B88 00000001     F   13298 10443  10458  10756  10863  10970
 $$$Z16        4 00003B68 00000001     F   28458 26156
 $$$Z8         4 00002344 00000001     F   21540 20471  20578  20685
 $$$100B       4 000003BA 00000001     I   11085 11110
 $$$101B       4 000003F2 00000001     I   11184 11203
 $$$101E       2 000003CC 00000001     H   11119 11111  11113
 $$$101F       2 000003F6 00000001     H   11192 11115B 11132B 11145B 11158B 11171B 11184B 11194
 $$$103B       4 000003D0 00000001     I   11132 11195
 $$$104B       4 000003DA 00000001     I   11145 11197
 $$$105B       4 000003E2 00000001     I   11158 11199
 $$$106B       4 000003EA 00000001     I   11171 11201
 $$$107E       2 000003FA 00000001     H   11210 11196  11198  11200  11202  11204
 $$$107F       2 00000432 00000001     H   11305 11206B
 $$$108F       2 0000040C 00000001     H   11251 11227B
 $$$109        6 00000D6C 00000001     I   11241 11233X
 $$$110        6 00000D6C 00000001     I   11240 11241  11241
 $$$111F       2 00000432 00000001     H   11301 11277B
 $$$112        6 00000D72 00000001     I   11291 11283X
 $$$113        6 00000D72 00000001     I   11290 11291  11291
 $$$114E       2 00000436 00000001     H   11319 11313
 $$$114F       2 00000460 00000001     H   11372 11315B
 $$$115F       2 00000460 00000001     H   11368 11344B
 $$$116        6 00000D78 00000001     I   11358 11350X
 $$$117        6 00000D78 00000001     I   11357 11358  11358
 $$$118F       2 00000476 00000001     H   11407 11398B
 $$$119F       2 000004A0 00000001     H   11470 11420B
 $$$120F       2 0000048E 00000001     H   11448 11436B
 $$$121F       2 000004CA 00000001     H   11557 11485B
 $$$122F       2 000004CA 00000001     H   11553 11503B
 $$$123F       2 000004D8 00000001     H   11580 11570B
 $$$124        1 00000250 00000001 A   U   11614 11611  11613
 $$$126B       1 000007DE 00000001     X   11920 11927U
 $$$127F       2 0000086E 00000001     H   12099 11974B
 $$$128B       4 0000082C 00000001     I   11988 12075
 $$$128F       2 00000858 00000001     H   12072 11988B 12074
 $$$129F       2 0000083E 00000001     H   12012 12003B
 $$$130F       2 0000084E 00000001     H   12051 12027B
 $$$131        6 00000D7E 00000001     I   12041 12033X
 $$$132        6 00000D7E 00000001     I   12040 12041  12041
 $$$133E       2 0000085C 00000001     H   12082 12076
 $$$133F       2 0000086E 00000001     H   12095 12078B
 $$$134        1 00000050 00000001 A   U   12117 12114  12116
 $$$136B       1 00000896 00000001     X   12144 12151U
 $$$137F       2 000008C2 00000001     H   12222 12183B 12196B
 $$$139F       2 000008D0 00000001     H   12242 12233B
 $$$140F       2 000008E0 00000001     H   12281 12257B
 $$$141        6 00000D84 00000001     I   12271 12263X
 $$$142        6 00000D84 00000001     I   12270 12271  12271
 $$$143        1 00000050 00000001 A   U   12299 12296  12298
 $$$145B       1 00000908 00000001     X   12326 12333U
 $$$146F       2 00000934 00000001     H   12404 12365B 12378B
 $$$148F       2 00000942 00000001     H   12424 12415B
1DIR      (DIR2025) (12:41) (15MAR04) Ordinary Symbol and Literal Cross Reference                                           Page   93
 $$$149F       2 00000952 00000001     H   12463 12439B
 $$$150        6 00000D8A 00000001     I   12453 12445X
 $$$151        6 00000D8A 00000001     I   12452 12453  12453
 $$$152        1 00000050 00000001 A   U   12481 12478  12480
 $$$154B       1 0000097A 00000001     X   12508 12515U
 $$$155F       2 00000A0A 00000001     H   12687 12562B
 $$$156B       4 000009C8 00000001     I   12576 12663
 $$$156F       2 000009F4 00000001     H   12660 12576B 12662
 $$$157F       2 000009DA 00000001     H   12600 12591B
 $$$158F       2 000009EA 00000001     H   12639 12615B
 $$$159        6 00000D90 00000001     I   12629 12621X
 $$$160        6 00000D90 00000001     I   12628 12629  12629
 $$$161E       2 000009F8 00000001     H   12670 12664
 $$$161F       2 00000A0A 00000001     H   12683 12666B
 $$$162        1 00000050 00000001 A   U   12705 12702  12704
 $$$164B       1 00000A32 00000001     X   12732 12739U
 $$$165        1 00000050 00000001 A   U   12775 12772  12774
 $$$167B       1 00000A60 00000001     X   12802 12809U
 $$$168        1 00000050 00000001 A   U   12852 12849  12851
 $$$170B       1 00000A8E 00000001     X   12879 12886U
 $$$171        1 00000050 00000001 A   U   12922 12919  12921
 $$$173B       1 00000ABC 00000001     X   12949 12956U
 $$$174        1 00000050 00000001 A   U   12992 12989  12991
 $$$176B       1 00000AEA 00000001     X   13019 13026U
 $$$177        1 00000050 00000001 A   U   13062 13059  13061
 $$$179B       1 00000B18 00000001     X   13089 13096U
 $$$180        1 00000050 00000001 A   U   13133 13130  13132
 $$$182B       1 00000B46 00000001     X   13160 13167U
 $$$183        1 00000050 00000001 A   U   13203 13200  13202
 $$$185B       1 00000B74 00000001     X   13230 13237U
 $$$186        1 00000050 00000001 A   U   13273 13270  13272
 $$$188B       1 00000DB0 00000001     X   13392 13399U
 $$$189F       2 00000E32 00000001     H   13541 13444B
 $$$190B       4 00000DDC 00000001     I   13463 13523
 $$$190F       2 00000E26 00000001     H   13520 13463B 13522
 $$$191F       2 00000E26 00000001     H   13516 13501B
 $$$192E       2 00000E2A 00000001     H   13530 13524
 $$$192F       2 00000E32 00000001     H   13537 13526B
 $$$193F       2 00000E58 00000001     H   13591 13562B
 $$$194        6 00000EA0 00000001     I   13581 13573X
 $$$195        6 00000EA0 00000001     I   13580 13581  13581
 $$$196B       4 00000E64 00000001     I   13606 13624
 $$$196F       2 00000E72 00000001     H   13621 13606B 13623
 $$$197E       2 00000E76 00000001     H   13631 13625
 $$$197F       2 00000E7E 00000001     H   13642 13627B
 $$$198        1 00000050 00000001 A   U   13665 13662  13664
 $$$200B       1 00000EC0 00000001     X   13726 13733U
 $$$201F       2 00000ECE 00000001     H   13775 13761B
 $$$202F       2 00000EFE 00000001     H   13822 13794B
 $$$202S       2 00000ED6 00000001     H   13785 13821B
 $$$204        1 00000050 00000001 A   U   13847 13844  13846
 $$$206B       1 00000F26 00000001     X   13891 13898U
 $$$207F       2 00000F96 00000001     H   14047 14023B
 $$$208        6 0000105E 00000001     I   14037 14029X
 $$$209        6 0000105E 00000001     I   14036 14037  14037
 $$$210F       2 00000FA6 00000001     H   14086 14062B
 $$$211        6 00001064 00000001     I   14076 14068X
 $$$212        6 00001064 00000001     I   14075 14076  14076
 $$$213F       2 00000FC4 00000001     H   14140 14097B
1DIR      (DIR2025) (12:41) (15MAR04) Ordinary Symbol and Literal Cross Reference                                           Page   94
 $$$214F       2 00000FBE 00000001     H   14129 14114B
 $$$215F       2 00000FE4 00000001     H   14202 14155B 14170B
 $$$217        1 000003F0 00000001 A   U   14264 14261  14263
 $$$227B       1 00001084 00000001     X   14444 14451U
 $$$228B       4 000010D4 00000001     I   14617 14665
 $$$228F       2 000010FC 00000001     H   14662 14617B 14664
 $$$229E       2 00001100 00000001     H   14672 14666
 $$$229F       2 00001112 00000001     H   14706 14668B
 $$$230B       4 000011A6 00000001     I   14951 15037
 $$$230F       2 000011E0 00000001     H   15034 14951B 15036
 $$$231E       2 000011E4 00000001     H   15044 15038
 $$$231F       2 000011F6 00000001     H   15078 15040B
 $$$232B       4 000011FA 00000001     I   15091 15177
 $$$232F       2 00001234 00000001     H   15174 15091B 15176
 $$$233E       2 00001238 00000001     H   15184 15178
 $$$233F       2 0000124A 00000001     H   15218 15180B
 $$$234B       4 000012DE 00000001     I   15467 15507
 $$$234F       2 000012F4 00000001     H   15504 15467B 15506
 $$$235E       2 000012F8 00000001     H   15514 15508
 $$$235F       2 0000130A 00000001     H   15548 15510B
 $$$236B       4 0000130E 00000001     I   15561 15601
 $$$236F       2 00001324 00000001     H   15598 15561B 15600
 $$$237E       2 00001328 00000001     H   15608 15602
 $$$237F       2 0000133A 00000001     H   15642 15604B
 $$$238        1 0000008C 00000001 A   U   15687 15684  15686
 $$$240B       1 0000138E 00000001     X   15750 15757U
 $$$241B       4 000013DE 00000001     I   15923 15971
 $$$241F       2 00001406 00000001     H   15968 15923B 15970
 $$$242E       2 0000140A 00000001     H   15978 15972
 $$$242F       2 0000141C 00000001     H   16012 15974B
 $$$243B       4 000014B0 00000001     I   16257 16297
 $$$243F       2 000014C6 00000001     H   16294 16257B 16296
 $$$244E       2 000014CA 00000001     H   16304 16298
 $$$244F       2 000014DC 00000001     H   16338 16300B
 $$$245B       4 000014E0 00000001     I   16351 16391
 $$$245F       2 000014F6 00000001     H   16388 16351B 16390
 $$$246E       2 000014FA 00000001     H   16398 16392
 $$$246F       2 0000150C 00000001     H   16432 16394B
 $$$247        1 0000008C 00000001 A   U   16709 16706  16708
 $$$249B       1 000015EC 00000001     X   16772 16779U
 $$$250F       2 0000164E 00000001     H   16931 16810B
 $$$250S       2 000015FE 00000001     H   16804 16930B
 $$$252B       4 00001612 00000001     I   16836 16869
 $$$252F       2 00001626 00000001     H   16866 16836B 16868
 $$$254E       2 0000162A 00000001     H   16876 16870
 $$$254F       2 00001644 00000001     H   16923 16872B
 $$$255F       2 00001638 00000001     H   16899 16888B
 $$$257        1 00000050 00000001 A   U   16953 16950  16952
 $$$259B       1 0000177E 00000001     X   17019 17026U
 $$$260B       4 0000178A 00000001     I   17050 17063
 $$$260F       2 00001792 00000001     H   17060 17050B 17062
 $$$261E       2 00001796 00000001     H   17070 17064
 $$$261F       2 00001798 00000001     H   17080 17066B
 $$$262B       4 0000179A 00000001     I   17090 17278
 $$$262F       2 0000180A 00000001     H   17275 17090B 17277
 $$$263F       2 000017B6 00000001     H   17131 17104B
 $$$264B       4 000017D4 00000001     I   17185 17241
 $$$264F       2 000017F4 00000001     H   17232 17146B 17159B 17172B 17185B 17234
 $$$265B       4 000017BA 00000001     I   17146 17235
1DIR      (DIR2025) (12:41) (15MAR04) Ordinary Symbol and Literal Cross Reference                                           Page   95
 $$$266B       4 000017C4 00000001     I   17159 17237
 $$$267B       4 000017CC 00000001     I   17172 17239
 $$$268F       2 000017F4 00000001     H   17228 17204B 17218B
 $$$270E       2 000017F8 00000001     H   17248 17236  17238  17240  17242
 $$$270F       2 0000180A 00000001     H   17271 17244B
 $$$271E       2 0000180E 00000001     H   17285 17279
 $$$271F       2 00001832 00000001     H   17344 17281B
 $$$272F       2 00001832 00000001     H   17340 17314B
 $$$272T       2 00001820 00000001     H   17317 17303B
 $$$274F       2 0000185E 00000001     H   17425 17380B
 $$$275F       2 0000185E 00000001     H   17421 17394B
 $$$276        1 00000050 00000001 A   U   17473 17470  17472
 $$$278B       1 00001898 00000001     X   17515 17522U
 $$$279F       2 000018BC 00000001     H   17617 17593B
 $$$280        6 00001C50 00000001     I   17607 17599X
 $$$281        6 00001C50 00000001     I   17606 17607  17607
 $$$282B       4 000018CA 00000001     I   17644 17673
 $$$282F       2 000018E0 00000001     H   17670 17644B 17672
 $$$283E       2 000018E4 00000001     H   17680 17674
 $$$283F       2 00001BDC 00000001     H   18803 17676B
 $$$284F       2 00001BDC 00000001     H   18799 17718B
 $$$284T       2 000018FC 00000001     H   17721 17696B 17708B
 $$$287F       2 000019DE 00000001     H   18045 17733B
 $$$288F       2 0000193E 00000001     H   17819 17808B
 $$$289F       2 00001974 00000001     H   17900 17852B
 $$$290F       2 000019DE 00000001     H   18041 17975B
 $$$291F       2 00001ADE 00000001     H   18422 18088B
 $$$292F       2 00001ADE 00000001     H   18418 18369B
 $$$293F       2 00001BDC 00000001     H   18795 18465B
 $$$294B       4 00001B20 00000001     I   18516 18605
 $$$294F       2 00001B5A 00000001     H   18602 18516B 18604
 $$$295E       2 00001B5E 00000001     H   18612 18606
 $$$295F       2 00001BDC 00000001     H   18791 18608B
 $$$296        1 00000050 00000001 A   U   18830 18827  18829
 $$$298B       1 00001C70 00000001     X   18935 18942U
 $$$299F       2 00001E46 00000001     H   19720 19005B
 $$$300F       2 00001E46 00000001     H   19708 19038B
 $$$301B       4 00001CBC 00000001     I   19085 19354
 $$$301F       2 00001D64 00000001     H   19350 19085B 19353
 $$$301T       2 00001CC0 00000001     H   19088 19059B 19073B
 $$$304B       4 00001CC4 00000001     I   19100 19184
 $$$304F       2 00001CFC 00000001     H   19181 19100B 19183
 $$$305B       4 00001CDA 00000001     I   19120 19135
 $$$305F       2 00001CE4 00000001     H   19132 19120B 19134
 $$$306E       2 00001CE8 00000001     H   19142 19136
 $$$306F       2 00001CEE 00000001     H   19151 19138B
 $$$307E       2 00001D00 00000001     H   19191 19185
 $$$307F       2 00001D06 00000001     H   19200 19187B
 $$$308F       2 00001D26 00000001     H   19262 19215B 19230B
 $$$310B       4 00001D2C 00000001     I   19273 19286
 $$$310F       2 00001D34 00000001     H   19283 19273B 19285
 $$$311E       2 00001D38 00000001     H   19293 19287
 $$$311F       2 00001D64 00000001     H   19346 19289B
 $$$312F       2 00001D56 00000001     H   19336 19305B
 $$$313F       2 00001D56 00000001     H   19332 19322B
 $$$314E       2 00001D68 00000001     H   19361 19355
 $$$314F       2 00001E46 00000001     H   19703 19357B
 $$$315F       2 00001D74 00000001     H   19407 19383B
 $$$316        6 00001FCA 00000001     I   19397 19389X
1DIR      (DIR2025) (12:41) (15MAR04) Ordinary Symbol and Literal Cross Reference                                           Page   96
 $$$317        6 00001FCA 00000001     I   19396 19397  19397
 $$$318F       2 00001E46 00000001     H   19699 19423B
 $$$319F       2 00001E46 00000001     H   19695 19452B
 $$$319T       2 00001D98 00000001     H   19455 19442B
 $$$321B       4 00001DA0 00000001     I   19471 19508
 $$$321F       2 00001DC4 00000001     H   19503 19471B 19507
 $$$322B       4 00001DCC 00000001     I   19526 19562
 $$$322E       2 00001DC8 00000001     H   19515 19509
 $$$322F       2 00001DF0 00000001     H   19558 19511B 19526B 19561
 $$$324E       2 00001DF4 00000001     H   19569 19563
 $$$324F       2 00001E46 00000001     H   19690 19565B
 $$$325F       2 00001E38 00000001     H   19680 19633B 19648B
 $$$327F       2 00001F14 00000001     H   20095 19735B
 $$$327S       2 00001E46 00000001     H   19729 20094B
 $$$329F       2 00001F02 00000001     H   20076 19767B
 $$$330F       2 00001F02 00000001     H   20072 19813B
 $$$330T       2 00001E6E 00000001     H   19816 19787B 19801B
 $$$333B       4 00001E72 00000001     I   19828 19912
 $$$333F       2 00001EA8 00000001     H   19909 19828B 19911
 $$$334B       4 00001E86 00000001     I   19848 19863
 $$$334F       2 00001E90 00000001     H   19860 19848B 19862
 $$$335E       2 00001E94 00000001     H   19870 19864
 $$$335F       2 00001E9A 00000001     H   19879 19866B
 $$$336E       2 00001EAC 00000001     H   19919 19913
 $$$336F       2 00001EB2 00000001     H   19928 19915B
 $$$337F       2 00001ED2 00000001     H   19990 19943B 19958B
 $$$339B       4 00001ED8 00000001     I   20001 20014
 $$$339F       2 00001EE0 00000001     H   20011 20001B 20013
 $$$340E       2 00001EE4 00000001     H   20021 20015
 $$$340F       2 00001F02 00000001     H   20068 20017B
 $$$341F       2 00001F02 00000001     H   20064 20033B
 $$$342F       2 00001F02 00000001     H   20060 20050B
 $$$343        1 0000023C 00000001 A   U   20127 20124  20126
 $$$345B       1 00001FEA 00000001     X   20220 20227U
 $$$346F       2 00002096 00000001     H   20377 20332B 20344B
 $$$348F       2 000020B0 00000001     H   20410 20395B
 $$$349F       2 000020C4 00000001     H   20439 20424B
 $$$350F       2 00002334 00000001     H   21508 20453B
 $$$351F       2 00002104 00000001     H   20564 20472B
 $$$352F       2 000020EA 00000001     H   20516 20492B
 $$$353        6 0000247E 00000001     I   20506 20498X
 $$$354        6 0000247E 00000001     I   20505 20506  20506
 $$$355F       2 00002104 00000001     H   20560 20536B
 $$$356        6 00002484 00000001     I   20550 20542X
 $$$357        6 00002484 00000001     I   20549 20550  20550
 $$$358F       2 0000213C 00000001     H   20671 20579B
 $$$359F       2 00002122 00000001     H   20623 20599B
 $$$360        6 0000248A 00000001     I   20613 20605X
 $$$361        6 0000248A 00000001     I   20612 20613  20613
 $$$362F       2 0000213C 00000001     H   20667 20643B
 $$$363        6 00002490 00000001     I   20657 20649X
 $$$364        6 00002490 00000001     I   20656 20657  20657
 $$$365B       4 00002142 00000001     I   20686 21031
 $$$365F       2 000021FC 00000001     H   21027 20686B 21030
 $$$366B       4 00002160 00000001     I   20724 20783
 $$$366F       2 0000217C 00000001     H   20777 20710B 20724B 20780
 $$$367B       4 00002158 00000001     I   20710 20781
 $$$368F       2 0000217C 00000001     H   20773 20749B
 $$$369        6 00002496 00000001     I   20763 20755X
1DIR      (DIR2025) (12:41) (15MAR04) Ordinary Symbol and Literal Cross Reference                                           Page   97
 $$$370        6 00002496 00000001     I   20762 20763  20763
 $$$371B       4 0000218E 00000001     I   20816 20830
 $$$371E       2 00002180 00000001     H   20790 20782  20784
 $$$371F       2 00002192 00000001     H   20824 20786B 20803B 20816B 20827
 $$$373B       4 00002184 00000001     I   20803 20828
 $$$374B       4 000021BC 00000001     I   20902 20921
 $$$374E       2 00002196 00000001     H   20837 20829  20831
 $$$374F       2 000021C0 00000001     H   20910 20833B 20850B 20863B 20876B 20889B 20902B 20912
 $$$376B       4 0000219A 00000001     I   20850 20913
 $$$377B       4 000021A4 00000001     I   20863 20915
 $$$378B       4 000021AC 00000001     I   20876 20917
 $$$379B       4 000021B4 00000001     I   20889 20919
 $$$380E       2 000021C4 00000001     H   20928 20914  20916  20918  20920  20922
 $$$380F       2 000021FC 00000001     H   21023 20924B
 $$$381F       2 000021D6 00000001     H   20969 20945B
 $$$382        6 0000249C 00000001     I   20959 20951X
 $$$383        6 0000249C 00000001     I   20958 20959  20959
 $$$384F       2 000021FC 00000001     H   21019 20995B
 $$$385        6 000024A2 00000001     I   21009 21001X
 $$$386        6 000024A2 00000001     I   21008 21009  21009
 $$$387E       2 00002200 00000001     H   21038 21032
 $$$387F       2 0000222A 00000001     H   21091 21034B
 $$$388F       2 0000222A 00000001     H   21087 21063B
 $$$389        6 000024A8 00000001     I   21077 21069X
 $$$390        6 000024A8 00000001     I   21076 21077  21077
 $$$391F       2 000022D4 00000001     H   21368 21110B
 $$$392F       2 000022D0 00000001     H   21363 21131B
 $$$393F       2 0000229E 00000001     H   21290 21165B
 $$$394F       2 00002270 00000001     H   21195 21184B
 $$$395F       2 00002294 00000001     H   21272 21206B
 $$$396F       2 00002284 00000001     H   21229 21220B
 $$$397F       2 00002294 00000001     H   21268 21244B
 $$$398        6 000024AE 00000001     I   21258 21250X
 $$$399        6 000024AE 00000001     I   21257 21258  21258
 $$$400F       2 000022FE 00000001     H   21439 21381B
 $$$401F       2 000022EC 00000001     H   21409 21397B
 $$$402F       2 00002326 00000001     H   21498 21451B
 $$$403F       2 00002322 00000001     H   21493 21466B
 $$$404        1 0000037C 00000001 A   U   21531 21528  21530
 $$$406B       1 000026FE 00000001     X   21821 21828U
 $$$407F       2 00002746 00000001     H   21907 21881B
 $$$408F       2 00002754 00000001     H   21927 21918B
 $$$409F       2 00002764 00000001     H   21966 21942B
 $$$410        6 00002AD4 00000001     I   21956 21948X
 $$$411        6 00002AD4 00000001     I   21955 21956  21956
 $$$412        1 00000050 00000001 A   U   21984 21981  21983
 $$$414B       1 0000278C 00000001     X   22011 22018U
 $$$415F       2 00002814 00000001     H   22177 22065B
 $$$416B       4 000027DA 00000001     I   22079 22153
 $$$416F       2 000027FE 00000001     H   22150 22079B 22152
 $$$417F       2 000027EC 00000001     H   22103 22094B
 $$$418F       2 000027FC 00000001     H   22142 22118B
 $$$419        6 00002ADA 00000001     I   22132 22124X
 $$$420        6 00002ADA 00000001     I   22131 22132  22132
 $$$421E       2 00002802 00000001     H   22160 22154
 $$$421F       2 00002814 00000001     H   22173 22156B
 $$$422        1 00000050 00000001 A   U   22195 22192  22194
 $$$424B       1 0000283C 00000001     X   22222 22229U
 $$$425F       2 00002858 00000001     H   22266 22257B
1DIR      (DIR2025) (12:41) (15MAR04) Ordinary Symbol and Literal Cross Reference                                           Page   98
 $$$426F       2 00002868 00000001     H   22305 22281B
 $$$427        6 00002AE0 00000001     I   22295 22287X
 $$$428        6 00002AE0 00000001     I   22294 22295  22295
 $$$429F       2 000028A8 00000001     H   22433 22320B 22333B
 $$$431F       2 000028A8 00000001     H   22429 22363B
 $$$432F       2 00002898 00000001     H   22386 22377B
 $$$433F       2 000028A8 00000001     H   22425 22401B
 $$$434        6 00002AE6 00000001     I   22415 22407X
 $$$435        6 00002AE6 00000001     I   22414 22415  22415
 $$$436        1 00000050 00000001 A   U   22451 22448  22450
 $$$438B       1 000028D0 00000001     X   22478 22485U
 $$$439F       2 000028EC 00000001     H   22522 22513B
 $$$440F       2 000028FC 00000001     H   22561 22537B
 $$$441        6 00002AEC 00000001     I   22551 22543X
 $$$442        6 00002AEC 00000001     I   22550 22551  22551
 $$$443F       2 0000293C 00000001     H   22689 22576B 22589B
 $$$445F       2 0000293C 00000001     H   22685 22619B
 $$$446F       2 0000292C 00000001     H   22642 22633B
 $$$447F       2 0000293C 00000001     H   22681 22657B
 $$$448        6 00002AF2 00000001     I   22671 22663X
 $$$449        6 00002AF2 00000001     I   22670 22671  22671
 $$$450        1 00000050 00000001 A   U   22707 22704  22706
 $$$452B       1 00002964 00000001     X   22734 22741U
 $$$453        1 00000050 00000001 A   U   22777 22774  22776
 $$$455B       1 00002992 00000001     X   22804 22811U
 $$$456        1 00000050 00000001 A   U   22847 22844  22846
 $$$458B       1 000029C0 00000001     X   22874 22881U
 $$$459        1 00000050 00000001 A   U   22924 22921  22923
 $$$461B       1 000029F2 00000001     X   22951 22958U
 $$$462        1 00000050 00000001 A   U   23001 22998  23000
 $$$464B       1 00002A24 00000001     X   23028 23035U
 $$$465        1 00000050 00000001 A   U   23071 23068  23070
 $$$467B       1 00002A52 00000001     X   23098 23105U
 $$$468        1 00000050 00000001 A   U   23141 23138  23140
 $$$470B       1 00002B12 00000001     X   23224 23231U
 $$$471F       2 00002B94 00000001     H   23373 23276B
 $$$472B       4 00002B3E 00000001     I   23295 23355
 $$$472F       2 00002B88 00000001     H   23352 23295B 23354
 $$$473F       2 00002B88 00000001     H   23348 23333B
 $$$474E       2 00002B8C 00000001     H   23362 23356
 $$$474F       2 00002B94 00000001     H   23369 23358B
 $$$475B       4 00002BB2 00000001     I   23399 23417
 $$$475F       2 00002BC0 00000001     H   23414 23399B 23416
 $$$476E       2 00002BC4 00000001     H   23424 23418
 $$$476F       2 00002BC6 00000001     H   23433 23420B
 $$$477        1 00000050 00000001 A   U   23456 23453  23455
 $$$479B       1 00002C02 00000001     X   23517 23524U
 $$$480F       2 00002C10 00000001     H   23566 23552B
 $$$481F       2 00002C40 00000001     H   23613 23585B
 $$$481S       2 00002C18 00000001     H   23576 23612B
 $$$483        1 00000050 00000001 A   U   23638 23635  23637
 $$$485B       1 00002C68 00000001     X   23682 23689U
 $$$486F       2 00002CD8 00000001     H   23838 23814B
 $$$487        6 00002D9E 00000001     I   23828 23820X
 $$$488        6 00002D9E 00000001     I   23827 23828  23828
 $$$489F       2 00002CE8 00000001     H   23877 23853B
 $$$490        6 00002DA4 00000001     I   23867 23859X
 $$$491        6 00002DA4 00000001     I   23866 23867  23867
 $$$492F       2 00002D06 00000001     H   23931 23888B
1DIR      (DIR2025) (12:41) (15MAR04) Ordinary Symbol and Literal Cross Reference                                           Page   99
 $$$493F       2 00002D00 00000001     H   23920 23905B
 $$$494F       2 00002D26 00000001     H   23993 23946B 23961B
 $$$496        1 000003F0 00000001 A   U   24055 24052  24054
 $$$498B       1 00002DC4 00000001     X   24117 24124U
 $$$499B       4 00002DEE 00000001     I   24221 24326
 $$$499F       2 00002E32 00000001     H   24323 24221B 24325
 $$$500E       2 00002E36 00000001     H   24333 24327
 $$$500F       2 00002E48 00000001     H   24368 24329B
 $$$501        1 00000050 00000001 A   U   24457 24454  24456
 $$$503B       1 00002EAA 00000001     X   24511 24518U
 $$$504F       2 00002ED0 00000001     H   24605 24581B
 $$$505        6 00003036 00000001     I   24595 24587X
 $$$506        6 00003036 00000001     I   24594 24595  24595
 $$$507B       4 00002ED4 00000001     I   24618 24631
 $$$507F       2 00002EDC 00000001     H   24628 24618B 24630
 $$$508E       2 00002EE0 00000001     H   24638 24632
 $$$508F       2 00002EE2 00000001     H   24648 24634B
 $$$509B       4 00002EEC 00000001     I   24674 25024
 $$$509F       2 00002FD6 00000001     H   25020 24674B 25023
 $$$510F       2 00002F9C 00000001     H   24929 24690B
 $$$511F       2 00002F9C 00000001     H   24925 24755B
 $$$512F       2 00002F9C 00000001     H   24921 24855B
 $$$513F       2 00002FD6 00000001     H   25015 24941B
 $$$514F       2 00002FC8 00000001     H   24984 24975B
 $$$515E       2 00002FDA 00000001     H   25031 25025
 $$$515F       2 00002FE0 00000001     H   25040 25027B
 $$$516        1 00000050 00000001 A   U   25067 25064  25066
 $$$518B       1 00003056 00000001     X   25134 25141U
 $$$519F       2 00003148 00000001     H   25569 25189B
 $$$519S       2 00003078 00000001     H   25183 25568B
 $$$521F       2 0000313A 00000001     H   25549 25223B
 $$$522B       4 0000308E 00000001     I   25239 25337
 $$$522F       2 000030C6 00000001     H   25333 25239B 25336
 $$$523F       2 000030C6 00000001     H   25329 25316B
 $$$524E       2 000030CA 00000001     H   25344 25338
 $$$524F       2 000030DA 00000001     H   25374 25340B
 $$$526F       2 000030FA 00000001     H   25437 25390B 25405B
 $$$528B       4 00003100 00000001     I   25448 25461
 $$$528F       2 00003108 00000001     H   25458 25448B 25460
 $$$529E       2 0000310C 00000001     H   25468 25462
 $$$529F       2 0000313A 00000001     H   25545 25464B
 $$$530F       2 0000313A 00000001     H   25541 25482B 25496B 25510B
 $$$533F       2 0000313A 00000001     H   25537 25527B
 $$$534        1 00000050 00000001 A   U   25595 25592  25594
 $$$536B       1 000031A6 00000001     X   25657 25664U
 $$$537S       2 000031BE 00000001     H   25700 25773B
 $$$538B       4 000031CC 00000001     I   25724 25737
 $$$538F       2 000031D8 00000001     H   25734 25724B 25736
 $$$538T       2 000031D0 00000001     H   25727 25713B
 $$$540E       2 000031DC 00000001     H   25744 25738
 $$$540F       2 000031E8 00000001     H   25756 25740B
 $$$543        1 00000050 00000001 A   U   25820 25817  25819
 $$$545B       1 000032C4 00000001     X   25918 25925U
 $$$546F       2 0000335E 00000001     H   26081 26036B 26048B
 $$$548F       2 0000338C 00000001     H   26141 26096B 26108B
 $$$550F       2 000033CE 00000001     H   26232 26157B
 $$$551F       2 000033CE 00000001     H   26228 26201B 26214B
 $$$553F       2 00003420 00000001     H   26349 26250B
 $$$554F       2 000033F0 00000001     H   26287 26265B
1DIR      (DIR2025) (12:41) (15MAR04) Ordinary Symbol and Literal Cross Reference                                           Page  100
 $$$555F       2 0000340A 00000001     H   26325 26299B
 $$$557F       2 0000346C 00000001     H   26462 26363B
 $$$558F       2 0000343C 00000001     H   26400 26378B
 $$$559F       2 00003456 00000001     H   26438 26412B
 $$$561F       2 000034F4 00000001     H   26639 26476B
 $$$562F       2 000034A4 00000001     H   26521 26508B
 $$$564F       2 000034B0 00000001     H   26543 26534B
 $$$565F       2 000034DA 00000001     H   26606 26556B
 $$$566F       2 000034C8 00000001     H   26584 26572B
 $$$567F       2 000034E8 00000001     H   26628 26618B
 $$$568        1 000000B4 00000001 A   U   26662 26659  26661
 $$$570B       1 000037EE 00000001     X   26966 26973U
 $$$572        1 00000050 00000001 A   U   27006 27003  27005
 $$$574B       1 0000381A 00000001     X   27033 27040U
 $$$576        1 00000050 00000001 A   U   27074 27071  27073
 $$$578B       1 00003846 00000001     X   27101 27108U
 $$$579        1 00000050 00000001 A   U   27142 27139  27141
 $$$581B       1 00003876 00000001     X   27169 27176U
 $$$582F       2 00003892 00000001     H   27213 27204B
 $$$583F       2 000038A2 00000001     H   27252 27228B
 $$$584        6 00003C88 00000001     I   27242 27234X
 $$$585        6 00003C88 00000001     I   27241 27242  27242
 $$$586F       2 000038E2 00000001     H   27380 27267B 27280B
 $$$588F       2 000038E2 00000001     H   27376 27310B
 $$$589F       2 000038D2 00000001     H   27333 27324B
 $$$590F       2 000038E2 00000001     H   27372 27348B
 $$$591        6 00003C8E 00000001     I   27362 27354X
 $$$592        6 00003C8E 00000001     I   27361 27362  27362
 $$$593        1 00000050 00000001 A   U   27398 27395  27397
 $$$595B       1 0000390A 00000001     X   27425 27432U
 $$$596F       2 00003920 00000001     H   27464 27455B
 $$$597F       2 00003930 00000001     H   27503 27479B
 $$$598        6 00003C94 00000001     I   27493 27485X
 $$$599        6 00003C94 00000001     I   27492 27493  27493
 $$$600F       2 00003970 00000001     H   27631 27518B 27531B
 $$$602F       2 00003970 00000001     H   27627 27561B
 $$$603F       2 00003960 00000001     H   27584 27575B
 $$$604F       2 00003970 00000001     H   27623 27599B
 $$$605        6 00003C9A 00000001     I   27613 27605X
 $$$606        6 00003C9A 00000001     I   27612 27613  27613
 $$$607        1 00000050 00000001 A   U   27649 27646  27648
 $$$609B       1 00003998 00000001     X   27676 27683U
 $$$610F       2 000039AE 00000001     H   27715 27706B
 $$$611F       2 000039BE 00000001     H   27754 27730B
 $$$612        6 00003CA0 00000001     I   27744 27736X
 $$$613        6 00003CA0 00000001     I   27743 27744  27744
 $$$614F       2 000039FE 00000001     H   27882 27769B 27782B
 $$$616F       2 000039FE 00000001     H   27878 27812B
 $$$617F       2 000039EE 00000001     H   27835 27826B
 $$$618F       2 000039FE 00000001     H   27874 27850B
 $$$619        6 00003CA6 00000001     I   27864 27856X
 $$$620        6 00003CA6 00000001     I   27863 27864  27864
 $$$621        1 00000050 00000001 A   U   27900 27897  27899
 $$$623B       1 00003A26 00000001     X   27927 27934U
 $$$624        1 00000050 00000001 A   U   27984 27981  27983
 $$$626B       1 00003A5C 00000001     X   28011 28018U
 $$$627        1 00000050 00000001 A   U   28054 28051  28053
 $$$629B       1 00003A8A 00000001     X   28081 28088U
 $$$630        1 00000050 00000001 A   U   28125 28122  28124
1DIR      (DIR2025) (12:41) (15MAR04) Ordinary Symbol and Literal Cross Reference                                           Page  101
 $$$632B       1 00003AB8 00000001     X   28152 28159U
 $$$633        1 00000050 00000001 A   U   28209 28206  28208
 $$$635B       1 00003AEE 00000001     X   28236 28243U
 $$$636        1 00000050 00000001 A   U   28279 28276  28278
 $$$638B       1 00003B1C 00000001     X   28306 28313U
 $$$639        1 00000050 00000001 A   U   28363 28360  28362
 $$$641B       1 00003B52 00000001     X   28390 28397U
 $$$642        1 00000050 00000001 A   U   28433 28430  28432
 $$$643B       1 00003CC6 00000001     X   28509 28516U 28863U 29055U 29270U 29682U 31137U
 $$$646B       1 00003D48 00000001     X   28632 28642U
 $$$647F       2 00003DCA 00000001     H   28784 28687B
 $$$648B       4 00003D74 00000001     I   28706 28766
 $$$648F       2 00003DBE 00000001     H   28763 28706B 28765
 $$$649F       2 00003DBE 00000001     H   28759 28744B
 $$$65B        1 00000030 00000001     X   10099 10106U
 $$$650E       2 00003DC2 00000001     H   28773 28767
 $$$650F       2 00003DCA 00000001     H   28780 28769B
 $$$651B       4 00003DE8 00000001     I   28810 28828
 $$$651F       2 00003DF6 00000001     H   28825 28810B 28827
 $$$652E       2 00003DFA 00000001     H   28835 28829
 $$$652F       2 00003DFC 00000001     H   28844 28831B
 $$$653        1 00000050 00000001 A   U   28874 28871  28873
 $$$655B       1 00003E3A 00000001     X   28935 28945U
 $$$656F       2 00003E48 00000001     H   28987 28973B
 $$$657F       2 00003E78 00000001     H   29034 29006B
 $$$657S       2 00003E50 00000001     H   28997 29033B
 $$$659        1 00000050 00000001 A   U   29066 29063  29065
 $$$66F        2 00000098 00000001     H   10174 10159B
 $$$661B       1 00003EA0 00000001     X   29106 29116U
 $$$662B       4 00003EAC 00000001     I   29139 29240
 $$$662F       2 00003EF4 00000001     H   29237 29139B 29239
 $$$663B       4 00003ECA 00000001     I   29183 29206
 $$$663F       2 00003EE0 00000001     H   29203 29183B 29205
 $$$664E       2 00003EE4 00000001     H   29213 29207
 $$$664F       2 00003EF4 00000001     H   29233 29209B
 $$$665E       2 00003EF8 00000001     H   29247 29241
 $$$665F       2 00003EFA 00000001     H   29256 29243B
 $$$666        1 00000050 00000001 A   U   29281 29278  29280
 $$$668B       1 00003F22 00000001     X   29325 29335U
 $$$669F       2 00003F90 00000001     H   29458 29434B
 $$$67         1 00000050 00000001 A   U   10218 10215  10217
 $$$670        6 00004078 00000001     I   29448 29440X
 $$$671        6 00004078 00000001     I   29447 29448  29448
 $$$672F       2 00003FB8 00000001     H   29508 29484B
 $$$673        6 0000407E 00000001     I   29498 29490X
 $$$674        6 0000407E 00000001     I   29497 29498  29498
 $$$675F       2 00003FD6 00000001     H   29562 29519B
 $$$676F       2 00003FD0 00000001     H   29551 29536B
 $$$677F       2 00003FF6 00000001     H   29624 29577B 29592B
 $$$679        1 000003F0 00000001 A   U   29693 29690  29692
 $$$681B       1 0000409E 00000001     X   29761 29771U
 $$$682F       2 000040F8 00000001     H   29916 29906B
 $$$683B       4 000040FC 00000001     I   29928 30214
 $$$683F       2 000041C6 00000001     H   30209 29928B 30213
 $$$684B       4 00004104 00000001     I   29943 29958
 $$$684F       2 00004110 00000001     H   29955 29943B 29957
 $$$685E       2 00004114 00000001     H   29965 29959
 $$$685F       2 00004126 00000001     H   29992 29961B
 $$$686F       2 00004126 00000001     H   29988 29978B
1DIR      (DIR2025) (12:41) (15MAR04) Ordinary Symbol and Literal Cross Reference                                           Page  102
 $$$687F       2 0000413E 00000001     H   30037 30027B
 $$$688F       2 000041C6 00000001     H   30205 30055B
 $$$688S       2 00004148 00000001     H   30049 30204B
 $$$69B        1 00000196 00000001     X   10323 10330U
 $$$690B       4 0000415E 00000001     I   30076 30186
 $$$690F       2 000041BA 00000001     H   30183 30076B 30185
 $$$691F       2 0000418E 00000001     H   30132 30120B
 $$$692F       2 000041B2 00000001     H   30176 30143B
 $$$693F       2 000041B2 00000001     H   30172 30160B
 $$$694E       2 000041BE 00000001     H   30193 30187
 $$$694F       2 000041C2 00000001     H   30200 30189B
 $$$695B       4 000041CE 00000001     I   30230 30493
 $$$695E       2 000041CA 00000001     H   30221 30215
 $$$695F       2 00004288 00000001     H   30488 30217B 30230B 30492
 $$$697B       4 000041DC 00000001     I   30246 30302
 $$$697F       2 000041F8 00000001     H   30299 30246B 30301
 $$$698F       2 000041F8 00000001     H   30295 30285B
 $$$699E       2 000041FC 00000001     H   30309 30303
 $$$699F       2 00004200 00000001     H   30316 30305B
 $$$70F        2 00000236 00000001     H   10475 10427B 10459B
 $$$70T        2 00000224 00000001     H   10462 10446B
 $$$700F       2 00004288 00000001     H   30484 30334B
 $$$700S       2 0000420A 00000001     H   30328 30483B
 $$$702B       4 00004220 00000001     I   30355 30465
 $$$702F       2 0000427C 00000001     H   30462 30355B 30464
 $$$703F       2 00004250 00000001     H   30411 30399B
 $$$704F       2 00004274 00000001     H   30455 30422B
 $$$705F       2 00004274 00000001     H   30451 30439B
 $$$706E       2 00004280 00000001     H   30472 30466
 $$$706F       2 00004284 00000001     H   30479 30468B
 $$$707B       4 00004290 00000001     I   30509 30805
 $$$707E       2 0000428C 00000001     H   30500 30494
 $$$707F       2 00004360 00000001     H   30801 30496B 30509B 30804
 $$$709F       2 00004360 00000001     H   30797 30531B
 $$$709S       2 0000429E 00000001     H   30525 30796B
 $$$711B       4 000042B4 00000001     I   30552 30778
 $$$711F       2 00004354 00000001     H   30775 30552B 30777
 $$$712F       2 000042EA 00000001     H   30610 30600B
 $$$713B       4 000042EC 00000001     I   30621 30663
 $$$713F       2 00004302 00000001     H   30660 30621B 30662
 $$$714E       2 00004306 00000001     H   30670 30664
 $$$714F       2 00004312 00000001     H   30701 30666B
 $$$715F       2 00004328 00000001     H   30724 30712B
 $$$716F       2 0000434C 00000001     H   30768 30735B
 $$$717F       2 0000434C 00000001     H   30764 30752B
 $$$718E       2 00004358 00000001     H   30785 30779
 $$$718F       2 0000435C 00000001     H   30792 30781B
 $$$719E       2 00004364 00000001     H   30812 30806
 $$$719F       2 0000441A 00000001     H   31067 30808B
 $$$720B       4 0000436E 00000001     I   30825 30881
 $$$720F       2 0000438A 00000001     H   30878 30825B 30880
 $$$721F       2 0000438A 00000001     H   30874 30864B
 $$$722E       2 0000438E 00000001     H   30888 30882
 $$$722F       2 00004392 00000001     H   30895 30884B
 $$$723F       2 0000441A 00000001     H   31063 30913B
 $$$723S       2 0000439C 00000001     H   30907 31062B
 $$$725B       4 000043B2 00000001     I   30934 31044
 $$$725F       2 0000440E 00000001     H   31041 30934B 31043
 $$$726F       2 000043E2 00000001     H   30990 30978B
1DIR      (DIR2025) (12:41) (15MAR04) Ordinary Symbol and Literal Cross Reference                                           Page  103
 $$$727F       2 00004406 00000001     H   31034 31001B
 $$$728F       2 00004406 00000001     H   31030 31018B
 $$$729E       2 00004412 00000001     H   31051 31045
 $$$729F       2 00004416 00000001     H   31058 31047B
 $$$73F        2 00000264 00000001     H   10534 10489B 10501B
 $$$730F       2 0000442C 00000001     H   31114 31082B
 $$$731        1 00000050 00000001 A   U   31148 31145  31147
 $$$732B       1 000044B2 00000001     X   31270 31280U
 $$$739F       2 000045A2 00000001     H   31544 31534B
 $$$740F       2 000045B8 00000001     H   31576 31566B
 $$$742F       2 000045EC 00000001     H   31646 31629B
 $$$745F       2 00004660 00000001     H   31713 31696B
 $$$748F       2 00004686 00000001     H   31751 31733B
 $$$75F        2 000002B4 00000001     H   10631 10552B
 $$$751F       2 000046C6 00000001     H   31799 31786B
 $$$754F       2 00004762 00000001     H   31936 31920B
 $$$756F       2 00004786 00000001     H   31972 31957B
 $$$757F       2 000047D2 00000001     H   32066 32039B
 $$$759F       2 000047EC 00000001     H   32105 32078B
 $$$76F        2 000002FE 00000001     H   10724 10645B
 $$$761F       2 00004806 00000001     H   32144 32117B
 $$$763F       2 00004820 00000001     H   32183 32156B
 $$$765F       2 0000483A 00000001     H   32222 32195B
 $$$767F       2 00004854 00000001     H   32261 32234B
 $$$769F       2 0000486E 00000001     H   32300 32273B
 $$$77F        2 000004E4 00000001     H   11591 10738B
 $$$771F       2 00004888 00000001     H   32339 32312B
 $$$773F       2 000048A2 00000001     H   32378 32351B
 $$$78F        2 0000033E 00000001     H   10849 10757B
 $$$79F        2 00000324 00000001     H   10801 10777B
 $$$80         6 00000D4E 00000001     I   10791 10783X
 $$$81         6 00000D4E 00000001     I   10790 10791  10791
 $$$82F        2 0000033E 00000001     H   10845 10821B
 $$$83         6 00000D54 00000001     I   10835 10827X
 $$$84         6 00000D54 00000001     I   10834 10835  10835
 $$$85F        2 00000376 00000001     H   10956 10864B
 $$$86F        2 0000035C 00000001     H   10908 10884B
 $$$87         6 00000D5A 00000001     I   10898 10890X
 $$$88         6 00000D5A 00000001     I   10897 10898  10898
 $$$89F        2 00000376 00000001     H   10952 10928B
 $$$90         6 00000D60 00000001     I   10942 10934X
 $$$91         6 00000D60 00000001     I   10941 10942  10942
 $$$92B        4 0000037C 00000001     I   10971 11312
 $$$92F        2 00000432 00000001     H   11309 10971B 11311
 $$$93B        4 00000392 00000001     I   10993 11065
 $$$93F        2 000003B2 00000001     H   11061 10993B 11064
 $$$94F        2 000003B2 00000001     H   11057 11011B
 $$$95F        2 000003B2 00000001     H   11053 11029B
 $$$96         6 00000D66 00000001     I   11043 11035X
 $$$97         6 00000D66 00000001     I   11042 11043  11043
 $$$98B        4 000003C4 00000001     I   11098 11112
 $$$98E        2 000003B6 00000001     H   11072 11066
 $$$98F        2 000003C8 00000001     H   11106 11068B 11085B 11098B 11109
 @PAR          0 00000000 FFFFFFF5     @    1081 13431  13487  23263  23319  28674  28730
 @RAR          0 00000000 FFFFFFF0     @    1146  2176   2184B
 @R0           0 00000000 FFFFFFFE     @     706   982U
 @R1           0 00000000 FFFFFFFD     @     719   978U  2182   2183  10992  11097  11144  11157  11170  11183  12040
                                                 12195  12270  12377  12452  12628  13549  17606  19396  20709  20815
                                                 20862  20875  20888  20901  21880  21955  22131  22294  22332  22414
1DIR      (DIR2025) (12:41) (15MAR04) Ordinary Symbol and Literal Cross Reference                                           Page  104
                                                 22550  22588  22670  23381  24594  25702  25723  25729  25730  25746
                                                 25748  26200  26213  27241  27279  27361  27492  27530  27612  27743
                                                 27781  27863  28792  29447M 31375  31396
 @R10          0 00000000 FFFFFFF4     @     836   942U
 @R11          0 00000000 FFFFFFF3     @     849   938U
 @R12          0 00000000 FFFFFFF2     @     862   934U
 @R13          0 00000000 FFFFFFF1     @     875   930U 28501M
 @R14          0 00000000 FFFFFFF0     @     888   926U 31522U 31663U 31676U
 @R15          0 00000000 FFFFFFEF     @     901   922U 30588  31558U
 @R2           0 00000000 FFFFFFFC     @     732   974U 16821U 21356U 28536
 @R3           0 00000000 FFFFFFFB     @     745   970U 14036  21183  23827  29126  29447  31385U 31445U 32398U
 @R4           0 00000000 FFFFFFFA     @     758   966U 13953U 15649U 16671U 17158  17171  17184  17203  17217  17223
                                                 17313  18810U 19715U 20089U 23744U 24438U 25048U 25563U 25702  31551U
 @R5           0 00000000 FFFFFFF9     @     771   962U 13289U 14213U 17629U 23181U 24004U 24659U 28449U 29635U 29869U
                                                 31515U
 @R6           0 00000000 FFFFFFF8     @     784   958U 13282U 13673U 13828U 14272U 16820  16924  18838U 20165U 23174U
                                                 23464U 23619U 25627U 28442U 28882U 29040U 31180U 31360U 31412U 31483U
                                                 32675U
 @R7           0 00000000 FFFFFFF7     @     797   954U 10207U 11603U 12106U 12288U 12470U 12694U 12764U 12841U 12911U
                                                 12981U 13051U 13122U 13192U 13262U 13654U 13836U 14253U 15676U 16698U
                                                 16942U 17462U 18819U 20116U 21520U 21973U 22184U 22440U 22696U 22766U
                                                 22836U 22913U 22990U 23060U 23130U 23445U 23627U 24044U 24446U 25056U
                                                 25584U 25809U 26651U 26995U 27063U 27131U 27387U 27638U 27889U 27973U
                                                 28043U 28114U 28198U 28268U 28352U 28422U 28639U 28860U 28942U 29052U
                                                 29113U 29267U 29332U 29679U 29768U 31134U 31277U 32681U
 @R8           0 00000000 FFFFFFF6     @     810   950U 11598U 14248U 15671U 16693U 20111U 21515U 24039U 26646U 29670U
 @R9           0 00000000 FFFFFFF5     @     823   946U
 ABSCENT       1 00000000 00000000 A   T    2192  2192
 ACCTPSHC      1 00000000 0000000C     T   11880 11880  21781  26925
 ACWOPER       1 00000468 FFFFFFE9     X    6688  6684
 ADLIKE        2 000007C4 00000001     H   11901 11651
 ADONLY        2 00000960 00000001     H   12489 11666
 ASCTBL        1 00000000 00000000 A   T    2200  2200
 BLDLSZ        1 0000004C FFFFFFE9 A   U    6530  6519
 BLTBL         1 00000000 00000000 A   T    2202  2202
 BR            7 00000007 00000001 A   #    1036 10094M 10318M 11915M 12139M 12321M 12503M 12727M 12797M 12874M 12944M
                                                 13014M 13084M 13155M 13225M 13387M 13721M 13886M 14439M 15745M 16767M
                                                 17014M 17510M 18930M 20215M 21816M 22006M 22217M 22473M 22729M 22799M
                                                 22869M 22946M 23023M 23093M 23219M 23512M 23677M 24112M 24506M 25129M
                                                 25652M 25913M 26961M 27028M 27096M 27164M 27420M 27671M 27922M 28006M
                                                 28076M 28147M 28231M 28301M 28385M 28506M 28516U 28627M 28930M 29101M
                                                 29320M 29756M
 BTDZEROS      1 00000000 00000022     T   15702 15702  16724
 CATBLOCK      8 00000988 FFFFFFE9     D    8358  6593   6603   8365   8367   8641
 CATDVTYP      4 0000098A FFFFFFE9     C    8360  8363
 CATFOR        2 000026E4 00000001     H   21802 21646
 CATFROM       2 00002822 00000001     H   22203 21613
 CATINT        2 00002A0A 00000001     H   23009 21721
 CATLIKE       2 00002772 00000001     H   21992 21598
 CATNTTR       8 00000A88 FFFFFFE9     U    8365  6601   8366
 CATOPTDK      2 000029A6 00000001     H   22855 21691
 CATOPTDV      2 00002978 00000001     H   22785 21676
 CATOPTTA      2 000029D8 00000001     H   22932 21706
 CATOPTVL      2 0000294A 00000001     H   22715 21661
 CATPRT        4 000024B4 00000001     F   21586 21543
 CATRSIZE      8 00000109 FFFFFFE9 A   U    8367  8641
 CATSCRT       2 00002A38 00000001     H   23079 21736
 CATTAB        2 00003212 00000001     H   25840 25831
 CATTO         2 000028B6 00000001     H   22459 21631
1DIR      (DIR2025) (12:41) (15MAR04) Ordinary Symbol and Literal Cross Reference                                           Page  105
 CATTYPE       2 0000318C 00000001     H   25638 25089
 CATVOLID      8 00000A8B FFFFFFE9     U    8366  6602   8367
 CC            1 00000040 FFFFFFE9 A   U    6453  6459   6461   6463   6465   6467   6469   6473   6475   6481   6483
                                                  6485   6487   6489   6499   6501   6507
 CHECKIOB      1 00000000 00000000 A   T    2248  2248
 COLLPSH       1 00000000 00000003     T   10253 10253  11850  21751  26895
 COMMAND       1 00000000 00000000 A   T    2188  2188
 COMMSEG       1 00000000 00000000 A   T    2189  2189
 CP         4096 00000000 FFFFFFEC     J    6202  1177U
 CP#XSTK       1 00000010 FFFFFFEC A   U    3934  3935
 CPACFLG       1 000005D5 FFFFFFEC     R    4037  4041   4046   4051   4056   4061
 CPACFLN       4 000005C4 FFFFFFEC     F    4029  4064   4064
 CPAFLAG       1 000005C3 FFFFFFEC     R    4001  4005   4010   4015   4020
 CPAFNAME    128 0000062C FFFFFFEC     C    4075 12209  12391  21894  22346  22602  27293  27544  27795
 CPAFNAMEL
               4 00000628 FFFFFFEC     F    4074 12214  12396  21899  22351  22607  27298  27549  27800
 CPANAME       8 00000588 FFFFFFEC     C    3983  4079   4079
 CPAUTFLG      1 000008A9 FFFFFFEC     R    4347  4351   4356   4361   4366
 CPCHFLAG      1 00000B68 FFFFFFEC     R    4974  4978
 CPDFLG        1 0000084C FFFFFFEC     R    4234  4238   4243   4248   4253   4258
 CPDFLG2       1 0000084D FFFFFFEC     R    4263  4267   4272   4277   4282   4287   4292
 CPDSNWA       4 00000E5C FFFFFFEC     F    5839 31313M 31313  31314M 31314
 CPERRID       8 00000886 FFFFFFEC     C    4333 10466M 12086M 12674M 14113  14136M 14136  21153  21321M 22164M 23904
                                                 23927M 23927  29535  29558M 29558
 CPEXFLG       1 00000758 FFFFFFEC     R    4103  4107
 CPEXFLG2      1 00000759 FFFFFFEC     R    4113  4122   4132
 CPEXFLG3      1 0000075A FFFFFFEC     R    4139  4143   4148
 CPEXTFLG      1 00000E28 FFFFFFEC     R    5785  5789   5794   5799   5804   5809   5814
 CPFABORT    128 00000D5A FFFFFFEC         5551  2152M  2152   2157M  2157
 CPFDUMP     128 00000D55 FFFFFFEC         5416 10500  20343  26047  30599
 CPFERROR     64 00000D5A FFFFFFEC         5556  2151M  2151   2156M  2156
 CPFINFOP      4 00000E54 FFFFFFEC     A    5833 10180  10371  13973  13976  14218  17563  20270  23764  23767  24009
                                                 24551  25972  29386  29389  29640  29820
 CPFNTEX       1 00000040 FFFFFFEC A   U    5403  5404
 CPFRDRNG      1 00000D88 FFFFFFEC     R    5671  5675   5680   5685   5690   5695   5700   5705
 CPFRDSRC      1 00000D89 FFFFFFEC     R    5710  5719   5729   5739
 CPFSET        1 00000080 FFFFFFEC A   U    5357 26296  26409  26505  26986  27054
 CPFUNUM       1 00000080 FFFFFFEC A   U    5402  5404
 CPFXDFLG      1 000007E4 FFFFFFEC     R    4181  4185   4190
 CPGFLG1       1 00000474 FFFFFFEC     R    3544  3548   3553   3558   3563   3568   3898   3898
 CPGFLG10      1 0000047D FFFFFFEC     R    3781  3785   3790   3795   3800   3805   3810
 CPGFLG11      1 0000047E FFFFFFEC     R    3816  3820   3825
 CPGFLG12      1 0000047F FFFFFFEC     R    3831  3835   3840   3845
 CPGFLG13      1 00000480 FFFFFFEC     R    3851  3855
 CPGFLG14      1 00000481 FFFFFFEC     R    3861  3865   3870   3875   3880   3885
 CPGFLG4       1 00000477 FFFFFFEC     R    3597  3608   3617   3626   3635   3644
 CPGFLG5       1 00000478 FFFFFFEC     R    3650  3654   3659   3664   3669   3674   3679   3684   3689
 CPGFLG6       1 00000479 FFFFFFEC     R    3695  3699   3704   3709
 CPGFLG7       1 0000047A FFFFFFEC     R    3715  3719   3724   3729   3734
 CPGFLG8       1 0000047B FFFFFFEC     R    3740  3744   3749   3754   3759
 CPGFLG9       1 0000047C FFFFFFEC     R    3765  3769   3775
 CPINIT        1 00000174 FFFFFFEC     U    2714  6171
 CPJESFLG      1 000009E1 FFFFFFEC     R    4446  4450   4455   4460   4465   4470   4475   4480   4485
 CPJESFLY      1 000009FD FFFFFFEC     R    4496  4500   4505   4510
 CPJESHFL      1 000009E0 FFFFFFEC     R    4431  4435   4440   4519   4519
 CPLENGTH      2 0000087E FFFFFFEC     H    4331 30606
 CPLFLG10      1 00000D59 FFFFFFEC     R    5537  5541
 CPLFLG11      1 00000D5A FFFFFFEC     R    5547  5551   5556   5561   5566
 CPLFLG12      1 00000D5B FFFFFFEC     R    5572  5576
1DIR      (DIR2025) (12:41) (15MAR04) Ordinary Symbol and Literal Cross Reference                                           Page  106
 CPLFLG14      1 00000D5C FFFFFFEC     R    5582  5586   5591   5596   5601   5606
 CPLFLG3       1 00000D52 FFFFFFEC     R    5355 26298  26411  26507  26988M 27056M
 CPLFLG6       1 00000D55 FFFFFFEC     R    5412  5416   5421   5426   5431   5436   5441
 CPLFLG7       1 00000D56 FFFFFFEC     R    5447  5451   5456   5461   5466   5471
 CPLFLG8       1 00000D57 FFFFFFEC     R    5477  5481   5486   5491   5496
 CPLFLG9       1 00000D58 FFFFFFEC     R    5502  5506   5511   5516   5521   5526   5531
 CPLIB         8 000008AB FFFFFFEC     C    4405 26180  26187  26219  26219
 CPLOCALZ      1 00000C48 FFFFFFEC     U    5004  6165   6165
 CPMDAD        4 00000DAC FFFFFFEC     F    5751 28539M 28565
 CPMDLN        4 00000DA8 FFFFFFEC     F    5750 28521  28537M
 CPMFLG        1 0000084F FFFFFFEC     R    4301  4305
 CPMODFLG      1 00000C78 FFFFFFEC     R    5032  5036   5041   5046   5051   5056
 CPNAMELN      1 00000010 FFFFFFEC A   U    3927  4174
 CPNEDPFX     10 00000E29 FFFFFFEC     X    5818  5819   5820
 CPNSCANP      4 0000008C FFFFFFEC     A    2587 10118  10125  10141  10378  10385  10401  11938  11945  11958  12162
                                                 12344  12526  12533  12546  20284  20291  20307  21863  22029  22036
                                                 22049  22240  22496  25987  25994  26010  27187  27443  27694
 CPNUMFLG      1 00000C79 FFFFFFEC     R    5062  5074
 CPORVCMD      1 00000140 FFFFFFEC     R    2596  2600   2605   2610   2615   2620   2625   2630   2635   2640   2640
                                                  2691   2691
 CPORVFLG      1 00000149 FFFFFFEC     R    2647  2651   2656   2661   2666   2671   2676   2681   2686
 CPORVWF       1 00000150 FFFFFFEC     R    2699  2703
 CPOSCANX      4 00000CA8 FFFFFFEC     F    5231  5298   5298
 CPR          11 0000000B 00000001 A   #    1100  1177U
 CPRACBAD     16 000001FC FFFFFFEC         2765  2799   2799   2800   2800
 CPRACF1       1 000001FC FFFFFFEC     R    2746  2750   2755   2760   2765   2770   2775   2780   2785   2801
 CPRACPSW     32 000001FC FFFFFFEC         2760  2798   2798   2800   2800
 CPRACUND     64 000001FC FFFFFFEC         2755  2798   2798   2799   2799
 CPRCVCUR      4 00000730 FFFFFFEC     A    4082  4084   4084
 CPRFLG        1 000008AA FFFFFFEC     R    4372  4376   4381   4386   4391   4396   4401
 CPS         254 00000344 FFFFFFEC     X    3516  3519   3520   3522   3522
 CPSACCT       5 000003B4 FFFFFFEC     C    3115  3278   3278
 CPSAMCOD      1 00000A22 FFFFFFEC     R    4568  4576   4586   4596   4605   4614   4623   4633   4642   4651
 CPSAMFLG      1 00000A21 FFFFFFEC     R    4528  4532   4537   4542   4547   4552   4557   4562   4673   4673
 CPSCNFLG      1 00000CD0 FFFFFFEC     R    5244  5255   5264   5275
 CPSCNF2       1 00000CD1 FFFFFFEC     R    5280  5284
 CPSCNMAX      1 00000014 FFFFFFEC A   U    5296  5297
 CPSCRI        2 00000434 FFFFFFEC     H    3505  3510   3510
 CPSEG        60 00000050 FFFFFFEC     X    2585 10519  10580  10598  10616  10673  10691  10709  11462  11545  14194
                                                 17123  17263  17332  17366  17413  17451  17662  17751  17874  17892
                                                 17918  17936  17993  18015  18033  18072  18106  18150  18168  18212
                                                 18230  18273  18291  18334  18388  18410  18449  18483  18501  18546
                                                 18564  18594  18639  18657  18687  18705  18735  18753  18783  19171
                                                 19254  19489  19544  19584  19614  19672  19899  19982  20362  21282
                                                 21316  21345  21430  21485  21853  23985  24174  24204  24268  24315
                                                 24360  24396  24426  24708  24738  24773  24816  24873  24895  24913
                                                 24959  25007  25269  25299  25429  25686  25798  26066  26126  26317
                                                 26430  26598  29172  29616  29815  29858  29891  30012  30105  30270
                                                 30384  30581  30652  30693  30849  30963  31106  31607  31815  31841
                                                 31868  31886  31993  32023  32058  32097  32136  32175  32214  32253
                                                 32292  32331  32370  32474  32504  32522  32542  32562  32580  32600
                                                 32620
 CPSEGCOD      1 00000050 FFFFFFEC     R    2502  2511   2521   2531   2541   2551   2561   2571
 CPSEGLENF
               4 0000005C FFFFFFEC     A    2577 14154M 14154  14169  19214M 19214  19229  19632M 19632  19647  19942M
                                                 19942  19957  21155  23945M 23945  23960  25389M 25389  25404  29125
                                                 29576M 29576  29591  30586
 CPSEGLOC      4 00000070 FFFFFFEC     A    2581 21154  21257
 CPSEGMAXF
1DIR      (DIR2025) (12:41) (15MAR04) Ordinary Symbol and Literal Cross Reference                                           Page  107
               4 00000054 FFFFFFEC     A    2575 29138
 CPSEGMRKF
               4 00000058 FFFFFFEC     A    2576 14169  19229  19647  19957  23960  25404  29591  30587
 CPSFL         1 00000384 FFFFFFEC     R    2853  2857   2862   2867   2872   2877
 CPSFLG        1 000003F8 FFFFFFEC     R    3393  3397   3402   3407   3412   3417   3422   3427   3432
 CPSFLG2       1 000003F9 FFFFFFEC     R    3438  3442   3447   3452
 CPSFL2        1 00000385 FFFFFFEC     R    2883  2887   2892   2897   2902
 CPSFL3        1 00000386 FFFFFFEC     R    2908  2912   2917   2922
 CPSFL4        1 00000387 FFFFFFEC     R    2928  2932   2937   2942
 CPSFL5        1 00000388 FFFFFFEC     R    2948  2952   2957   2962
 CPSFOPR      16 000003BE FFFFFFEC         3223 31295  31295  31296
 CPSFSPR      32 000003BE FFFFFFEC         3218 31295  31295
 CPSGRP        2 000003B7 FFFFFFEC     C    3117 17203
 CPSKAFL       1 000003BF FFFFFFEC     R    3249  3253   3258   3263   3268   3273
 CPSKIFL       1 000003BE FFFFFFEC     R    3204  3208   3213   3218   3223   3228   3233   3238   3243
 CPSOF         1 000001F8 FFFFFFEC     X    2736  2738   2738
 CPSOFLAG      1 00000416 FFFFFFEC     R    3463  3467   3472   3477   3482   3487
 CPSOPST       4 000003C4 FFFFFFEC     F    3283  3512   3512
 CPSPORT       8 00000354 FFFFFFEC     C    2847  2967   2967
 CPSQFLG       1 000003EC FFFFFFEC     R    3312  3316
 CPSSFLG       1 000003BB FFFFFFEC     R    3122  3126   3131   3136   3141   3146   3151
 CPSSTART      4 00000344 FFFFFFEC     F    2839  2843   2843   3279   3279   3384   3384   3516   3516
 CPSSTAT       1 0000038F FFFFFFEC     R    3059  3063   3068   3073   3078   3083   3088   3093
 CPSTACF       1 000003BC FFFFFFEC     R    3157  3161   3166   3171   3176   3181   3186   3191   3196
 CPSTART       4 00000000 FFFFFFEC     C    2475  6169   6173
 CPSTFLAG      1 000003EA FFFFFFEC     R    3290  3294   3299   3304
 CPSTYPE       1 0000038C FFFFFFEC     R    2972  2981   2991   3001   3011   3021   3031   3041   3051
 CPSUFLG       1 000003EE FFFFFFEC     R    3327  3331   3336   3341   3346   3351   3356   3361   3366
 CPSUFLG2      1 000003EF FFFFFFEC     R    3372  3376   3381
 CPSUSER       3 000003B4 FFFFFFEC     C    3116 17217
 CPSVPGM       8 0000039C FFFFFFEC     C    3105  3111   3111
 CPSWID        2 00000418 FFFFFFEC     H    3491 30589
 CPS1ST        4 0000038C FFFFFFEC     F    2969  3514   3514
 CPTEMPP#      1 0000005F FFFFFFEC A   U    4422  4424
 CPTRMFL1      1 00000C7A FFFFFFEC     R    5080  5084   5089   5094   5218   5218
 CPTRMFL2      1 00000C7B FFFFFFEC     R    5100  5104   5109   5114   5119   5124   5129
 CPTRMFL3      1 00000C7C FFFFFFEC     R    5135  5139   5144   5149   5154   5159   5164   5169
 CPTRMFL4      1 00000C7D FFFFFFEC     R    5175  5179   5184   5189   5194   5199   5204   5209
 CPUSED        1 00000FBC FFFFFFEC A   U    6169  6170
 CPVACURS      8 00000AF0 FFFFFFEC     D    4947  4948   4949
 CPVCURS       8 00000AE0 FFFFFFEC     D    4941  4942   4943
 CPVFLAG       1 00000AC8 FFFFFFEC     R    4742  4746   4751   4756   4761   4766
 CPVFLAG2      1 00000AC9 FFFFFFEC     R    4772  4776   4781   4786   4791   4796   4801
 CPVFLAG3      1 00000ACA FFFFFFEC     R    4807  4811   4816   4821   4826   4831   4836
 CPVFLAG4      1 00000ACB FFFFFFEC     R    4842  4846   4851   4856
 CPVLFLAG      1 00000ACE FFFFFFEC     R    4911  4915   4920   4925
 CPVMODE       1 00000ACC FFFFFFEC     R    4864  4868   4873   4878   4883   4888   4893   4898   4903
 CPVTWID       2 00000AD0 FFFFFFEC     H    4931  4934   4934
 CPWK1         4 00000D60 FFFFFFEC     F    5615  5630   5653
 CPWK2         4 00000D64 FFFFFFEC     F    5616  5631   5645
 CPWK3         4 00000D68 FFFFFFEC     F    5617  5632   5646
 CPWK4         4 00000D6C FFFFFFEC     F    5618  5633   5647
 CPWK5         4 00000D70 FFFFFFEC     F    5619  5635   5640   5648
 CPWK6         4 00000D74 FFFFFFEC     F    5620  5636   5641   5649   5656   5658
 CPWK7         4 00000D78 FFFFFFEC     F    5621  5634   5650
 CPXFLAG       1 000007FD FFFFFFEC     R    4209  4213
 CPXSTATE      4 000007F8 FFFFFFEC     F    4203  4216   4216
 CTATYP        8 00003214 00000001     C   25843 25842
 CTBTYP        8 0000321E 00000001     C   25846 25845
1DIR      (DIR2025) (12:41) (15MAR04) Ordinary Symbol and Literal Cross Reference                                           Page  108
 CTCTYP       12 00003228 00000001     C   25849 25848
 CTDTYP        9 00003236 00000001     C   25852 25851
 CTERRID       8 00000000 FFFFFFDB     C   20181 21153M 21321
 CTERRWK     247 00000000 FFFFFFDB     J   20190 21138  21148U 21567
 CTFTYP        4 00003241 00000001     C   25855 25854
 CTGTYP       15 00003247 00000001     C   25858 25857
 CTITYP        5 00003258 00000001     C   25861 25860
 CTMSG       235 0000000C FFFFFFDB     C   20183 21257M 21332  21557
 CTMSGL        4 00000008 FFFFFFDB     F   20182 21230M 21337
 CTMTYP       14 0000325F 00000001     C   25864 25863
 CTPTYP       10 0000326F 00000001     C   25867 25866
 CTRTYP        4 0000327B 00000001     C   25870 25869
 CTUNK         7 000032A3 00000001     C   25882 25881
 CTUTYP       12 00003281 00000001     C   25873 25872
 CTVTYP        6 0000328F 00000001     C   25876 25875
 CTWRITE       2 00003E86 00000001     H   29087 14290  20148  24074  25614  29714  31163
 CTXTYP       10 00003297 00000001     C   25879 25878
 CV         4016 00000000 FFFFFFEE     J    2378  1186U
 CVABORT       4 000007DA FFFFFFEE     I    2157 21364B 26344B 26457B
 CVABSENT      4 000007F0 FFFFFFEE     I    2167 31342B
 CVABSRTN      4 0000088C FFFFFFEE     V    2192  2167
 CVBLANKS    235 000004D8 FFFFFFEE     C    1972 13567  15055  15195  15525  15619  16315  16409  17436  18057  18434
                                                 24345  24381  30637  31346  31754  31904  32390
 CVBRMSK       1 00000751 FFFFFFEE     X    2108  2109   2110
 CVCFLAG       1 00000A00 FFFFFFEE     R    2273  2277   2282   2287   2292   2297
 CVCHKST       8 000009F0 FFFFFFEE     D    2263  2353   2353
 CVCHKST2      8 00000E28 FFFFFFEE     D    2356  2359   2359
 CVCOMRTN      4 0000087C FFFFFFEE     V    2188  2158
 CVDBGFLG      1 000004CC FFFFFFEE     R    1962  1966
 CVENT         4 0000074C FFFFFFEE     I    2106 10094B 10318B 11915B 12139B 12321B 12503B 12727B 12797B 12874B 12944B
                                                 13014B 13084B 13155B 13225B 13387B 13721B 13886B 14439B 15745B 16767B
                                                 17014B 17510B 18930B 20215B 21816B 22006B 22217B 22473B 22729B 22799B
                                                 22869B 22946B 23023B 23093B 23219B 23512B 23677B 24112B 24506B 25129B
                                                 25652B 25913B 26961B 27028B 27096B 27164B 27420B 27671B 27922B 28006B
                                                 28076B 28147B 28231B 28301B 28385B 28506B 28627B 28930B 29101B 29320B
                                                 29756B 31267B
 CVENTBR       2 00000750 FFFFFFEE     I    2107  2108
 CVERRMSG      4 000007C8 FFFFFFEE     I    2151 10170B 10471B 10530B 10627B 10720B 12091B 12679B 20373B 20406B 20435B
                                                 22169B 26077B 26137B
 CVERROR       4 000007D6 FFFFFFEE     I    2156  2172B 11403B 26539B 31613B 31616B 32527B 32547B 32585B 32605B 32625B
 CVEXIRTN      4 0000077C FFFFFFEE     V    2136  2132
 CVFCHRKBPR
               8 000004C9 FFFFFFEE         1877  1893   1893
 CVFCHRKBSE
               4 000004C9 FFFFFFEE         1882  1893   1893
 CVFCHRKCPR
               2 000004C9 FFFFFFEE         1899  1915   1915
 CVFCHRKCSE
               1 000004C9 FFFFFFEE         1904  1915   1915
 CVFCHRUBPR
             128 000004C9 FFFFFFEE         1833  1849   1849
 CVFCHRUBSE
              64 000004C9 FFFFFFEE         1838  1849   1849
 CVFCHRUCPR
              32 000004C9 FFFFFFEE         1855  1871   1871
 CVFCHRUCSE
              16 000004C9 FFFFFFEE         1860  1871   1871
 CVFL          1 000004C4 FFFFFFEE     R    1629  1633   1638   1643   1648   1653   1658   1663   1668
 CVFL2         1 000004C5 FFFFFFEE     R    1674  1678   1683   1688   1693   1698   1703   1708   1713
1DIR      (DIR2025) (12:41) (15MAR04) Ordinary Symbol and Literal Cross Reference                                           Page  109
 CVFL3         1 000004C6 FFFFFFEE     R    1719  1723   1728   1733   1738   1743   1748   1753   1758
 CVFL4         1 000004C7 FFFFFFEE     R    1764  1768   1773   1778   1783   1788   1793   1798
 CVFL5         1 000004C8 FFFFFFEE     R    1804  1808   1813   1818   1823
 CVFL6         1 000004C9 FFFFFFEE     R    1829  1833   1838   1850   1855   1860   1872   1877   1882   1894   1899
                                                  1904   1916
 CVHEAP#       1 00000200 FFFFFFEE A   U    1535  1536
 CVINVRTN      4 00000888 FFFFFFEE     V    2191  2161
 CVJESFLG      1 000004CA FFFFFFEE     R    1922  1926
 CVLNKRGS      4 00000780 FFFFFFEE     F    2138  2113M  2139  13509M 23341M 28752M
 CVLNKRTN      4 000007B0 FFFFFFEE     U    2139  2128M
 CVLOCK1       1 00000088 FFFFFFEE     R    1280  1284   1289
 CVLOCK2       1 00000089 FFFFFFEE     R    1294  1298
 CVLOCK3       1 0000008A FFFFFFEE     R    1303  1307
 CVLOCK4       1 0000008B FFFFFFEE     R    1312  1316
 CVLOGMOD      1 00000068 FFFFFFEE     R    1267  1271
 CVMACH        1 00000067 FFFFFFEE     R    1227  1231   1236   1241   1246   1251   1256   1261
 CVMILRTN      4 00000884 FFFFFFEE     V    2190  2170
 CVNEXT        4 000007DE FFFFFFEE     I    2158 10200B 11576B 20104B 21494B 21504B 26345B 26458B 26624B 31123B 31892B
                                                 31895B 32379B
 CVNOACTN      4 000007EA FFFFFFEE     I    2164 19499B 19554B 19686B
 CVNOARTN      4 00000890 FFFFFFEE     V    2193  2164
 CVNVALID      4 000007E4 FFFFFFEE     I    2161 31299B 31343B 31345B
 CVNWDATE      4 00000608 FFFFFFEE     F    1995  1999   1999
 CVNWMPG#      1 00000008 FFFFFFEE A   U    1997  1998
 CVONE         4 000004D0 FFFFFFEE     F    1970 31770  31774  31941  31945
 CVPFXRTN      1 00000000 00000000 A   T    2136  2136
 CVPGFLAG      1 00000A01 FFFFFFEE     R    2303  2307   2312   2317
 CVPIOSZ       1 00004F80 FFFFFFEE A   U    1366  1368
 CVPPDBQH      4 0000009C FFFFFFEE     A    1324  1325
 CVPSFNO       1 000003E9 FFFFFFEE A   N    1488  1490
 CVPSLNO       1 000007CF FFFFFFEE A   N    1489  1490
 CVPXSZ        1 00000008 FFFFFFEE A   U    1367  1368
 CVR          12 0000000C 00000001 A   #    1113  1186U
 CVRKEY        1 00000008 FFFFFFEE A   U    2061  2062
 CVSEGRTN      4 00000880 FFFFFFEE     V    2189  2153
 CVSTACK#      1 00000080 FFFFFFEE A   U    1527  1528
 CVSTART       4 00000000 FFFFFFEE     C    1200  2371
 CVSTYPE       2 00000724 FFFFFFEE     C    2084 31506  32391  32432
 CVTRC         4 00000768 FFFFFFEE     I    2128  2114B 13510B 23342B 28753B
 CVTRCRTN      4 00000778 FFFFFFEE     V    2135  2129
 CVTTYPE       2 00000728 FFFFFFEE     C    2086 32438
 CVUSFNO       1 00000001 FFFFFFEE A   N    1495  1497
 CVUSLNO       1 000003E7 FFFFFFEE A   N    1496  1497
 CVUTYPE       2 00000726 FFFFFFEE     C    2085 32435
 CVVOL#        1 00000005 FFFFFFEE A   U    2346  2347
 CVVOLIST      4 00000740 FFFFFFEE     A    2092 31363  31485
 CVWTOFLG      1 000004CB FFFFFFEE     R    1932  1936   1941   1946   1951   1956
 DBUF          8 00000720 FFFFFFE9     D    6988  6509   6561   6994
 DCB           4 00000498 FFFFFFE9     F    6725  6560   6649
 DEBUGSG       1 00000000 00000000 A   T    2089  2089
 DECB          4 0000037C FFFFFFE9     F    6556  6364
 DEV          12 00000000 FFFFFFEB     J    4727  4735
 DEVMAX#       1 00000002 FFFFFFEC A   U    4678  4735
 DEVTYPE       1 00000001 FFFFFFEB     R    4695  4704   4714
 DIRNOSET      2 00003800 00000001     H   27014 26849
 DIRSET        2 000037D4 00000001     H   26947 26834
 DIR2025       1 00000000 00000001     R     999   997
 DOFNAME       1 00000000 0000002C     T   28481 28481
 DOPEN         1 00000000 00000033     T   32703 32703
1DIR      (DIR2025) (12:41) (15MAR04) Ordinary Symbol and Literal Cross Reference                                           Page  110
 DOTTBL        1 00000000 00000000 A   T    2205  2205
 DRENCFLG      1 00000F9F FFFFFFEC     R    6133  6137   6142   6147   6152   6157
 DRENPROT      1 00000F9E FFFFFFEC     R    6120  6128
 DSAVSIZ       1 0000013C FFFFFFEC A   U    6105 31266  31312  31315
 DSN           1 0000029C FFFFFFE9     X    6514  6612
 DSNAME       44 00000270 FFFFFFE9     C    6513  6473   6481   6570   6581   6591   6632   6642   6685
 DSNBKSIZ      5 00000075 FFFFFFE3     C    9836 14890  14897  16196  16203  18305  18312
 DSNCATTP      1 00000000 FFFFFFE3     C    9785  9858  19037  19766  20142  24673  25087  25222  25254  25261  25315
                                                 25357  25495
 DSNCHGED      1 00000095 FFFFFFE3     C    9844 15228  15235  16442  16449
 DSNCHK        2 000015D2 00000001     H   16753 18850
 DSNCHKX       2 00001656 00000001     H   16938 16895B 16932B
 DSNCHR        1 00001664 00000001     X   16966 16826  16967  16969  16971  16973  16975  16977  16979  16981
 DSNCRDAT     10 0000007F FFFFFFE3     C    9840 14950  14965  15011  15466  15481  15488  16256  16271  16278  18531
                                                 18538  18624  18672
 DSNDATAC      8 000000C4 FFFFFFE3     C    9855 15431  15438  16645  16652
 DSNDEVTP      1 00000035 FFFFFFE3     C    9803 24189  24196  24220  24617  24754  25509
 DSNDSN       44 00000002 FFFFFFE3     C    9800 13941  13942  14545  14552  15851  15858  17557  17558  23732  23733
                                                 24545  24546  25284  25291
 DSNDSORG      3 00000065 FFFFFFE3     C    9830 14803  14810  16109  16116  18119  18126
 DSNDVDES     10 00000047 FFFFFFE3     C    9810 15286  15293  16500  16507  24995  25087  25088
 DSNERRCD      1 00000051 FFFFFFE3     C    9814 14716  14723  16022  16029  17643  19070  19084  19470  19525  19798
                                                 19812  20142
 DSNFLSQ       4 00000036 FFFFFFE3     C    9804  9805  24235  24242  24787  24794
 DSNFVALO      1 00000002 FFFFFFEC A   U    5889 31775  31946
 DSNINFO     235 00000000 FFFFFFE3     J    9866 13567  13634  13936U 14502U 15808U 17549U 18900  19021U 19310  19750U
                                                 20038  23727U 24143U 24537U 25206U 25515
 DSNINWA      60 00000000 FFFFFFDD     J   14414 14436  14465U 15684  15686  15687  15742  15771U 16706  16708  16709
 DSNKBYTA      8 000000A0 FFFFFFE3     C    9849 15344  15351  16558  16565
 DSNKBYTU      8 00000097 FFFFFFE3     C    9847 15315  15322  16529  16536
 DSNKEYLN      3 0000007B FFFFFFE3     C    9838 14919  14926  16225  16232  18348  18355
 DSNLADAT     10 0000008A FFFFFFE3     C    9842 15090  15105  15151  15560  15575  15582  16350  16365  16372  18579
                                                 18586  18720  18768
 DSNLRECL      5 0000006F FFFFFFE3     C    9834 14861  14868  16167  16174  18244  18251
 DSNMALL       2 00000A46 00000001     H   12783 11789
 DSNMDTED      2 00000A74 00000001     H   12860 11636
 DSNMFROM      2 0000087C 00000001     H   12125 11681
 DSNMGMTC      8 000000BC FFFFFFE3     C    9854 15402  15409  16616  16623
 DSNMINT       2 00000B2C 00000001     H   13141 11774
 DSNMNEW       2 00000AD0 00000001     H   13000 11819
 DSNMOLD       2 00000AFE 00000001     H   13070 11834
 DSNMSCRT      2 00000B5A 00000001     H   13211 11804
 DSNMSPAC      2 00000A18 00000001     H   12713 11714  11729  11744
 DSNMTO        2 000008EE 00000001     H   12307 11699
 DSNMTYP       2 00000AA2 00000001     H   12930 11759
 DSNON        40 00000E90 FFFFFFEC     C    5853  5854  10158M 10158  31754M 31904M
 DSNON6        6 00000E90 FFFFFFEC     X    5854 10191  31755M 31905M
 DSNPSHON      1 00000000 00000002     T   10238 10238
 DSNRC##       1 0000001F FFFFFFE3 A   U    9858  9859
 DSNRC4        4 00001652 00000001     I   16934 16795B 16855B 16913B
 DSNRECFM      5 00000069 FFFFFFE3     C    9832 14832  14839  16138  16145  18181  18188
 DSNSG        60 00000000 FFFFFFDD     X   14407 14488  14531  14560  14652  14698  14731  14760  14789  14818  14847
                                                 14876  14905  14934  14980  14997  15026  15070  15120  15137  15166
                                                 15210  15243  15272  15301  15330  15359  15388  15417  15446  15496
                                                 15540  15590  15634  15794  15837  15866  15958  16004  16037  16066
                                                 16095  16124  16153  16182  16211  16240  16286  16330  16380  16424
                                                 16457  16486  16515  16544  16573  16602  16631  16660
 DSNSGCOD      1 00000000 FFFFFFDD     R   14324 14333  14343  14353  14363  14373  14383  14393
 DSNSGLENF
1DIR      (DIR2025) (12:41) (15MAR04) Ordinary Symbol and Literal Cross Reference                                           Page  111
               4 0000000C FFFFFFDD     A   14399 15662  16684
 DSNSGLOC      4 00000020 FFFFFFDD     A   14403 15657  16679
 DSNSTORC      8 000000B4 FFFFFFE3     C    9853 15373  15380  16587  16594
 DSNTRKAL      5 0000005B FFFFFFE3     C    9826 14745  14752  16051  16058  17829  17836
 DSNTRKUS      8 00000052 FFFFFFE3     C    9824 14574  14581  14596  14596  14683  14690  15880  15887  15902  15902
                                                 15989  15996  17765  17772  17787  17787  19599  19606
 DSNUCBTP      8 0000003E FFFFFFE3     C    9808 15257  15264  16471  16478  24411  24418
 DSNVLCT       3 0000003A FFFFFFE3     C    9806 24282  24289  24830  24837
 DSNVOL        6 0000002E FFFFFFE3     C    9801 14516  14523  15822  15829  24159  24166  24723  24730
 DSNWADSN     44 00000E5C FFFFFFEC     C    5840  5841   5842   5843   5852   5860   6091   6097   6099   6105   6108
                                                  6110   6113   6162
 DSNWAF2       1 00000F35 FFFFFFEC     R    5880 31775M 31946M
 DSNWAF4       1 00000F37 FFFFFFEC     R    5908  5912   5917   5922   5927   5932   5937   5942   5947
 DSNWAF5       1 00000F38 FFFFFFEC     R    5953  5957   5962   5967   5972   5977   5982   5987   5992
 DSNWAF6       1 00000F39 FFFFFFEC     R    5998  6002   6007   6012   6017   6022   6027   6032   6037
 DSNWAF7       1 00000F3A FFFFFFEC     R    6043  6047   6052   6057   6062
 DSNWLEN       2 00000F04 FFFFFFEC     H    5859 26283M 26283  26396M 26396
 DSNXG         1 00000004 FFFFFFEC A   U    5845  5847
 DSNXGL        1 00000003 FFFFFFEC A   U    5846  5847
 DSNXTNTS      3 00000061 FFFFFFE3     C    9828 14774  14781  16080  16087  17950  17957
 DSNXU         1 00000007 FFFFFFEC A   U    5847  5849
 DSNXUL        1 00000004 FFFFFFEC A   U    5848  5849
 DSONPRT       4 000004F4 00000001     F   11624 13304
 DSPCAT        2 0000303C 00000001     H   25115 21559
 DSPCATEX      2 00002E90 00000001     H   24492 24488  25612
 DSPCATIN      2 00002DAA 00000001     H   24098 24094  25611
 DSPCNEXT      2 0000313A 00000001     H   25551 25360B
 DSPCXIT       2 00003148 00000001     H   25572 25454B 25533B
 DSPDIR        2 00004084 00000001     H   29742 28480
 DSPDONE       2 0000442C 00000001     H   31117 29912B 29984B 30033B 30128B 30168B 30291B 30312B 30407B 30447B 30720B
                                                 30760B 30870B 30891B 30986B 31026B
 DSPDSINN      2 00001374 00000001     H   15729 15725  20143
 DSPDSLIN      2 0000187E 00000001     H   17496 20146
 DSPDSN        2 00001C56 00000001     H   18914 13325
 DSPDSNIN      2 0000106A 00000001     H   14423 14419  20144
 DSPDSWA     491 00000000 FFFFFFDC     J   18907 18927  18956U 20124  20126  20127
 DSPERRSV    256 00000000 FFFFFFDC     X   18899 19396M 19458
 DSPEXIT       2 00001F14 00000001     H   20098 19279B 19328B 20007B 20056B
 DSPXLINE    235 00000100 FFFFFFDC     C   18900 18990  19109  19338  19409  20078
 DSSIZ         1 00000108 FFFFFFEC A   U    6091  6099   6108   6113
 DSVID         6 0000034E FFFFFFE9     C    6537  6571   6613   6623   6662
 DS1DSNAM     44 00000998 FFFFFFE9     C    8374  6491   6491   6503   6503
 DS1END        1 00000A24 FFFFFFE9     U    8585  6491   6503   8587
 DS1FMTID      1 000009C4 FFFFFFE9     C    8375  6572   6686   8587
 DS1IND01      1 00000001 FFFFFFE9 A   U    8534  8535
 DS1IND02      1 00000002 FFFFFFE9 A   U    8530  8533
 DS1IND04      1 00000004 FFFFFFE9 A   U    8523  8529
 DS1IND10      1 00000010 FFFFFFE9 A   U    8518  8521
 DS1IND40      1 00000040 FFFFFFE9 A   U    8514  8515
 DS1PTRDS      5 00000A1F FFFFFFE9     X    8583  6622
 DS1SIZE       1 00000060 FFFFFFE9 A   U    8587  8656
 DS1SYSCD     13 000009D6 FFFFFFE9     C    8393  8588
 DS4DEVSZ      4 00000732 FFFFFFE9     X    7050  7051
 DS4VTOCE     10 0000075D FFFFFFE9     X    7106  7127
 DS5AVEXT      5 0000099C FFFFFFE9     X    8621  8632
 DS5EXTAV     35 000009A1 FFFFFFE9     X    8626  8632
 DTB           1 00000000 00000021     T   15700 15700  16722  18857  24470  25083
 DVTDEVCD      4 000008B8 FFFFFFE9     F    7140  7142   7146   7155
 EBCTBL        1 00000000 00000000 A   T    2201  2201
1DIR      (DIR2025) (12:41) (15MAR04) Ordinary Symbol and Literal Cross Reference                                           Page  112
 EBCTBL7       1 00000000 00000000 A   T    2204  2204
 ECBLIST       1 00000000 00000000 A   T    2064  2064
 ENDCCW        8 00000238 FFFFFFE9     W    6494  6483   6543   6544
 ENDCCW1       8 00000208 FFFFFFE9     W    6481  6469
 ENDCCW2       8 00000220 FFFFFFE9     W    6487  6489
 ENDTEST       5 000008B0 FFFFFFE9     X    7136  6465   6487
 EPARTBL       1 00000000 00000000 A   T    2196  2196
 ERROR         4 0000036C FFFFFFE9     F    6547  6548
 EXLST         4 0000018C FFFFFFE9     F    6415  6783
 FFFNET        4 00000000 FFFFFFE6         9435 10644  20423  26362
 FFFSAM        3 00000000 FFFFFFE6         9425 10551  20394  26249
 FFFWINGS      1 00000000 FFFFFFE6         9405 10737  20452  26475
 FFHOST      128 00000090 FFFFFFE6     C    9582 10191M 10567  10660  11516
 FFHOSTL       4 0000008C FFFFFFE6     F    9581 10193M 10572  10665  11502  11521
 FFINFO      928 00000000 FFFFFFE6     J    9597 10188U 13883  13912U 13971  13972  13986U 14216  14217  14261  14263
                                                 14264  17573U 20278U 23674  23703U 23762  23763  23777U 24007  24008
                                                 24052  24054  24055  24561U 25980U 29317  29349U 29384  29385  29399U
                                                 29638  29639  29690  29692  29693  29830U
 FFMISC        1 00000002 FFFFFFE6     R    9494  9498   9503   9508   9513   9518
 FFNAME      128 0000000C FFFFFFE6     C    9580 10790M 10897M 11240M 11322M 14075M 20505M 20612M 20958M 21041M 23866M
                                                 26168M 26219M 29497M
 FFNAMEL       4 00000008 FFFFFFE6     F    9579 10763M 10870M 11212M 11323M 14009M 14048  20478M 20585M 20930M 21042M
                                                 23800M 23839  26156  26169M 26224M 26276M 26276  26389M 26389  29470M
 FFOPTSL       4 00000110 FFFFFFE6     F    9583 13997M 13997  23788M 23788  29410M 29410
 FFPTYPE       1 00000003 FFFFFFE6     R    9523  9532   9542   9552   9562   9572
 FFRNAME     128 00000218 FFFFFFE6     C    9586 10834  10941  11257  11290  11357  14036M 14075  17606M 20549  20656
                                                 20975  21008  21076  23827M 23866  24594M 26486  29412  29467  29497
                                                 29845
 FFRNAMEL      4 00000214 FFFFFFE6     F    9585 10806  10913  11256  11328  14004M 14004  14008M 17578M 20521  20628
                                                 20974  21047  23795M 23795  23799M 24566M 26485  26491M 29411  29469M
                                                 29850
 FFRQTYPE      1 00000001 FFFFFFE6     R    9450  9459   9469   9479   9489
 FFTYPE        1 00000000 FFFFFFE6     R    9396  9405   9415   9425   9435   9445
 FLAGS         5 0000016B FFFFFFE9     C    6392  6393   6394   6395   6396   6397
 FNAMEFIN      1 00000000 0000000F     T   13308 13308  21547  28468
 FNAMPSH       1 00000000 0000000B     T   11865 11865  21766  26910
 FORFILE       2 0000382C 00000001     H   27082 26684  26699
 FSR           0 00000000 00000001 A   #    1010 10089  10215M 10312  11611M 11910  12114M 12134  12296M 12316  12478M
                                                 12498  12702M 12722  12772M 12792  12849M 12869  12919M 12939  12989M
                                                 13009  13059M 13079  13130M 13150  13200M 13220  13270M 13382  13647M
                                                 13662M 13716  13844M 13880  14261M 14433  15664M 15684M 15739  16686M
                                                 16706M 16762  16950M 17009  17470M 17505  18827M 18924  20124M 20209
                                                 21528M 21811  21981M 22001  22192M 22212  22448M 22468  22704M 22724
                                                 22774M 22794  22844M 22864  22921M 22941  22998M 23018  23068M 23088
                                                 23138M 23214  23438M 23453M 23507  23635M 23671  24052M 24107  24454M
                                                 24501  25064M 25124  25592M 25647  25817M 25907  26659M 26956  27003M
                                                 27023  27071M 27091  27139M 27159  27395M 27415  27646M 27666  27897M
                                                 27917  27981M 28001  28051M 28071  28122M 28142  28206M 28226  28276M
                                                 28296  28360M 28380  28430M 28622  28849M 28871M 28925  29063M 29096
                                                 29278M 29314  29690M 29751  31145M
 GETTNO1       4 00003CDE 00000001     I   28533 28523B
 GETTPAGY      4 00003CAC 00000001     I   28501 28500  28518
 HIBAL         1 00000000 FFFFFFFF     J     691   707    720    733    746    759    772    785    798    811    824
                                                   837    850    863    876    889    902
 ICHELST       4 00000DE8 FFFFFFE9     F    8713  8811   8811
 ICHSETP       2 00000E10 FFFFFFE9     H    8765  8759
 ICHSETPD      2 00000E24 FFFFFFE9     H    8789  8762
 ID            8 000001D8 FFFFFFE9     W    6465  6463   6475   6541
 IECSDSL1      1 00000998 FFFFFFE9     U    8372  8373   8594   8615
1DIR      (DIR2025) (12:41) (15MAR04) Ordinary Symbol and Literal Cross Reference                                           Page  113
 IECSDSL3      1 00000998 FFFFFFE9     U    8597  6624   8598
 IECSDSL4      1 00000720 FFFFFFE9     U    6997  6998
 IECSDSL5      1 00000998 FFFFFFE9     U    8618  8619
 IHB1146C      1 00000E04 FFFFFFE9     U    8744  8731
 IHB1209C      1 00000E04 FFFFFFE9     U    8845  8832
 IHB1238C      1 00000E04 FFFFFFE9     U    8891  8878
 IHB1267C      1 00000E04 FFFFFFE9     U    8937  8924
 INVALID       1 00000000 00000031     T    2191  2191  32669
 IOBCSW        4 000001A0 FFFFFFE9     F    6426  6427   6428   6429
 IOWA          1 00000000 FFFFFFE9     J    6320  9263   9368   9598   9675   9763   9867   9939
 IWAFLAGS      1 00000014 FFFFFFE9     R    6345  6349   6354   6359
 JCBAFL        1 00000062 FFFFFFE8     R    9107  9111   9116   9121   9126   9131   9136   9141   9146
 JCBBFL        1 00000063 FFFFFFE8     R    9152  9156   9161   9166   9171   9176   9181   9186
 JCBBILLX      8 00000088 FFFFFFE8     D    9237  9245   9245
 JCBRSCF1      1 00000064 FFFFFFE8     R    9192  9196   9201   9206
 JCBSFLG1      1 00000065 FFFFFFE8     R    9212  9216   9221
 JCBWFL        1 00000060 FFFFFFE8     R    9036  9040   9045   9050   9055   9060   9065   9070   9075   9103
 JCBWWFL       1 00000061 FFFFFFE8     R    9081  9085   9090   9095   9100
 JFCB          8 000008D8 FFFFFFE9     D    7201  6419
 JFCBLGTH      1 000000B0 FFFFFFE9 A   U    8352  8647
 JFCRESRV      4 00000944 FFFFFFE9     B    8161  8198
 KEY           8 000001F0 FFFFFFE9     W    6473  6467
 KWRDSTRT      1 00000529 FFFFFFE9     U    6803  6965   6965
 KWRSTART      4 00000524 FFFFFFE9     F    6798  6979   6979   6980
 KWRUSER       3 00000524 FFFFFFE9     C    6799  6801   6801
 LOWTBL        1 00000000 00000000 A   T    2199  2199
 LRTRIM        1 00000000 00000027     T   28467 28467
 LSR           8 00000008 00000001 A   #    1061 10089  10215M 10312  11611M 11910  12114M 12134  12296M 12316  12478M
                                                 12498  12702M 12722  12772M 12792  12849M 12869  12919M 12939  12989M
                                                 13009  13059M 13079  13130M 13150  13200M 13220  13270M 13382  13662M
                                                 13716  13844M 13880  14261M 14433  15684M 15739  16706M 16762  16950M
                                                 17009  17470M 17505  18827M 18924  20124M 20209  21528M 21811  21981M
                                                 22001  22192M 22212  22448M 22468  22704M 22724  22774M 22794  22844M
                                                 22864  22921M 22941  22998M 23018  23068M 23088  23138M 23214  23453M
                                                 23507  23635M 23671  24052M 24107  24454M 24501  25064M 25124  25592M
                                                 25647  25817M 25907  26659M 26956  27003M 27023  27071M 27091  27139M
                                                 27159  27395M 27415  27646M 27666  27897M 27917  27981M 28001  28051M
                                                 28071  28122M 28142  28206M 28226  28276M 28296  28360M 28380  28430M
                                                 28622  28871M 28925  29063M 29096  29278M 29314  29690M 29751  31145M
 MALL          1 00000000 00000004     T   10267 10267  11894  21795  26939
 MBRFROM       2 000038F0 00000001     H   27406 26804
 MBRLIKE       2 0000385C 00000001     H   27150 26789
 MBRONPRT      4 00003504 00000001     F   26672 28461
 MBRTO         2 0000397E 00000001     H   27657 26819
 MEMBER        8 000002F8 FFFFFFE9     C    6520  6525   6530
 MILERR        1 00000000 00000000 A   T    2190  2190
 MKFFINFO      1 00000000 00000007     T   10279 10279  13303  21542  28460
 MPARM         1 00000000 0000000A     T   11680 11680  11698  21612  21630  21645  26788  26803  26818
 MT            1 00000080 FFFFFFE9 A   U    6438  6465   6473   6477   6507
 MTOKEN        1 00000000 00000009     T   11635 11635  11650  11665  11713  11728  11743  11758  11773  11788  11803
                                                 11818  11833  21597  21660  21675  21690  21705  21720  21735  26683
                                                 26698  26713  26728  26743  26758  26773  26833  26848  26863  26878
 NBLTBL        1 00000000 00000000 A   T    2203  2203
 NETDIR        1 00000000 00000029     T   28471 28471
 NEWDSNAM     44 000002C8 FFFFFFE9     C    6515  6643
 NEWFMT        2 00003A70 00000001     H   28062 26879
 NEXTCTLN      2 00002AF8 00000001     H   23205 25608
 NEXTDONE      2 00003DFC 00000001     H   28847 28776B
 NEXTDSLN      2 00000D96 00000001     H   13373 20141
1DIR      (DIR2025) (12:41) (15MAR04) Ordinary Symbol and Literal Cross Reference                                           Page  114
 NEXTLINE      2 00003D2E 00000001     H   28613 31164
 NOACTION      1 00000000 00000000 A   T    2193  2193
 NOMORPG       1 00000000 00000017     T   13322 13322  21563  28478
 NOPIC         1 00000003 FFFFFFE9 A   U    6451  6485   6494
 NOTVALID      1 00000000 00000005     T   10268 10268  11895  21796  26940
 NPARTBL       1 00000000 00000000 A   T    2197  2197
 NRESOLVE      1 00000000 00000013     T   13312 13312  21548  28472
 NSCAN         1 00000000 00000006     T   10278 10278  13305  21544  28462
 NSCANSTR      1 00000000 00000019     T   13326 13326  23155
 NSCNCB      176 00000000 FFFFFFED     J    2462  2588  10126  10127  10128  10131M 10132M 10134M 10144M 10145M 10146M
                                                 10386  10387  10388  10391M 10392M 10394M 10404M 10405M 10406M 11946
                                                 11947  11948  11951M 11961M 11962M 11963M 12163  12164  12345  12346
                                                 12534  12535  12536  12539M 12549M 12550M 12551M 20292  20293  20294
                                                 20297M 20298M 20300M 20310M 20311M 20312M 21864  21865  22037  22038
                                                 22039  22042M 22052M 22053M 22054M 22241  22242  22497  22498  25995
                                                 25996  25997  26000M 26001M 26003M 26013M 26014M 26015M 27188  27189
                                                 27444  27695
 NSCNFLGS      1 00000008 FFFFFFED     R    2399  2403   2408
 NSCNKWS       4 00000028 FFFFFFED     A    2448 10126  10134M 10144M 10386  10394M 10404M 11946  11951M 11961M 12534
                                                 12539M 12549M 20292  20300M 20310M 22037  22042M 22052M 25995  26003M
                                                 26013M
 NSCNSKIP      4 00000024 FFFFFFED     A    2447 10127  10131M 10145M 10387  10391M 10405M 11947  11962M 12535  12550M
                                                 20293  20297M 20311M 22038  22053M 25996  26000M 26014M
 NSCNSTOP      4 00000020 FFFFFFED     A    2446 10128  10132M 10146M 10388  10392M 10406M 11948  11963M 12536  12551M
                                                 20294  20298M 20312M 22039  22054M 25997  26001M 26015M
 NSCNTLEN      4 00000014 FFFFFFED     F    2414 12164  12346  21865  22242  22498  27189
 NSCNTLOC      4 00000010 FFFFFFED     A    2413 12163  12345  21864  22241  22497  27188
 NSCNTOK      16 00000030 FFFFFFED     C    2450 27444  27695
 NSCNTYPE      1 00000018 FFFFFFED     R    2417  2421   2426   2431   2436   2441
 NTGDOPN       1 00000000 00000034     T   32704 32704
 NXTCTDON      2 00002BC6 00000001     H   23436 23365B
 NXTDSDON      2 00000E7E 00000001     H   13645 13533B
 OLDFMT        2 00003A42 00000001     H   27992 26864
 PAR           9 00000009 00000001 A   #    1074 13544  13760M 13760  23376  23551M 23551  28540M 28540  28787  28972M
                                                 28972
 PDSREAD       8 00000258 FFFFFFE9     W    6507  6542
 PGETA         1 00000000 0000001B     T   13682 13682  14285  20139  23473  24069  25606  28585  28891  29707  31159
 PGETNEW       1 00000000 0000002F     T   28584 28584
 PJUNKA        1 00000000 0000001C     T   13684 13684  14283  23475  24067  28893  29705
 PMARKA        1 00000000 0000002E     T   28583 28583
 PNUMA         1 00000000 00000030     T   29708 29708
 RACFID        1 00000DA8 FFFFFFE9     X    8662  8677   8728
 RACFPDAT      3 00000DB8 FFFFFFE9     X    8664  8810
 RACFPSWD      1 00000DAF FFFFFFE9     X    8663  8678   8786
 RACINIT       4 00000DE8 FFFFFFE9     F    8671  8690   8691   8711   8812   8858   8904
 RAR          14 0000000E 00000001 A   #    1139  2128   2129M  2130B  2132M  2133B  2153M  2154B  2158M  2159B  2161M
                                                  2162B  2164M  2165B  2167M  2168B  2170M  2171M  2171B  2177  10086
                                                 10137M 10138M 10138B 10178M 10179M 10179B 10197M 10198M 10198B 10217M
                                                 10220B 10309  10369M 10370M 10370B 10397M 10398M 10398B 10411M 10412M
                                                 10412B 10522M 10523M 10523B 10538M 10539M 10539B 10583M 10584M 10584B
                                                 10601M 10602M 10602B 10619M 10620M 10620B 10676M 10677M 10677B 10694M
                                                 10695M 10695B 10712M 10713M 10713B 10804M 10805M 10805B 10911M 10912M
                                                 10912B 10980M 10981M 10981B 11254M 11255M 11255B 11260M 11261M 11261B
                                                 11326M 11327M 11327B 11377M 11378M 11378B 11443M 11444M 11444B 11465M
                                                 11466M 11466B 11524M 11525M 11525B 11548M 11549M 11549B 11584M 11585M
                                                 11585B 11613M 11616B 11907  11954M 11955M 11955B 12116M 12119B 12131
                                                 12217M 12218M 12218B 12298M 12301B 12313  12399M 12400M 12400B 12480M
                                                 12483B 12495  12542M 12543M 12543B 12704M 12707B 12719  12774M 12777B
                                                 12789  12851M 12854B 12866  12921M 12924B 12936  12991M 12994B 13006
1DIR      (DIR2025) (12:41) (15MAR04) Ordinary Symbol and Literal Cross Reference                                           Page  115
                                                 13061M 13064B 13076  13132M 13135B 13147  13202M 13205B 13217  13272M
                                                 13275B 13379  13428M 13429M 13429B 13474M 13475M 13475B 13485M 13486M
                                                 13486B 13615M 13616M 13616B 13664M 13667B 13713  13770M 13771M 13771B
                                                 13809M 13810M 13810B 13815M 13816M 13816B 13846M 13849B 13877  13945M
                                                 13946M 13946B 13963M 13964M 13964B 14089M 14090M 14090B 14197M 14198M
                                                 14198B 14205M 14206M 14206B 14263M 14266B 14430  14491M 14492M 14492B
                                                 14534M 14535M 14535B 14563M 14564M 14564B 14584M 14585M 14585B 14606M
                                                 14607M 14607B 14632M 14633M 14633B 14655M 14656M 14656B 14701M 14702M
                                                 14702B 14734M 14735M 14735B 14763M 14764M 14764B 14792M 14793M 14793B
                                                 14821M 14822M 14822B 14850M 14851M 14851B 14879M 14880M 14880B 14908M
                                                 14909M 14909B 14937M 14938M 14938B 14983M 14984M 14984B 15000M 15001M
                                                 15001B 15029M 15030M 15030B 15073M 15074M 15074B 15123M 15124M 15124B
                                                 15140M 15141M 15141B 15169M 15170M 15170B 15213M 15214M 15214B 15246M
                                                 15247M 15247B 15275M 15276M 15276B 15304M 15305M 15305B 15333M 15334M
                                                 15334B 15362M 15363M 15363B 15391M 15392M 15392B 15420M 15421M 15421B
                                                 15449M 15450M 15450B 15499M 15500M 15500B 15543M 15544M 15544B 15593M
                                                 15594M 15594B 15637M 15638M 15638B 15686M 15689B 15736  15797M 15798M
                                                 15798B 15840M 15841M 15841B 15869M 15870M 15870B 15890M 15891M 15891B
                                                 15912M 15913M 15913B 15938M 15939M 15939B 15961M 15962M 15962B 16007M
                                                 16008M 16008B 16040M 16041M 16041B 16069M 16070M 16070B 16098M 16099M
                                                 16099B 16127M 16128M 16128B 16156M 16157M 16157B 16185M 16186M 16186B
                                                 16214M 16215M 16215B 16243M 16244M 16244B 16289M 16290M 16290B 16333M
                                                 16334M 16334B 16383M 16384M 16384B 16427M 16428M 16428B 16460M 16461M
                                                 16461B 16489M 16490M 16490B 16518M 16519M 16519B 16547M 16548M 16548B
                                                 16576M 16577M 16577B 16605M 16606M 16606B 16634M 16635M 16635B 16663M
                                                 16664M 16664B 16708M 16711B 16759  16952M 16955B 17006  17039M 17040M
                                                 17040B 17126M 17127M 17127B 17266M 17267M 17267B 17335M 17336M 17336B
                                                 17369M 17370M 17370B 17416M 17417M 17417B 17454M 17455M 17455B 17472M
                                                 17475B 17502  17561M 17562M 17562B 17621M 17622M 17622B 17665M 17666M
                                                 17666B 17754M 17755M 17755B 17775M 17776M 17776B 17797M 17798M 17798B
                                                 17839M 17840M 17840B 17877M 17878M 17878B 17895M 17896M 17896B 17921M
                                                 17922M 17922B 17939M 17940M 17940B 17960M 17961M 17961B 17996M 17997M
                                                 17997B 18018M 18019M 18019B 18036M 18037M 18037B 18075M 18076M 18076B
                                                 18109M 18110M 18110B 18129M 18130M 18130B 18153M 18154M 18154B 18171M
                                                 18172M 18172B 18191M 18192M 18192B 18215M 18216M 18216B 18233M 18234M
                                                 18234B 18254M 18255M 18255B 18276M 18277M 18277B 18294M 18295M 18295B
                                                 18315M 18316M 18316B 18337M 18338M 18338B 18358M 18359M 18359B 18391M
                                                 18392M 18392B 18413M 18414M 18414B 18452M 18453M 18453B 18486M 18487M
                                                 18487B 18504M 18505M 18505B 18549M 18550M 18550B 18567M 18568M 18568B
                                                 18597M 18598M 18598B 18642M 18643M 18643B 18660M 18661M 18661B 18690M
                                                 18691M 18691B 18708M 18709M 18709B 18738M 18739M 18739B 18756M 18757M
                                                 18757B 18786M 18787M 18787B 18829M 18832B 18921  18978M 18979M 18979B
                                                 18993M 18994M 18994B 19127M 19128M 19128B 19146M 19147M 19147B 19174M
                                                 19175M 19175B 19195M 19196M 19196B 19257M 19258M 19258B 19265M 19266M
                                                 19266B 19314M 19315M 19315B 19341M 19342M 19342B 19412M 19413M 19413B
                                                 19492M 19493M 19493B 19497M 19498M 19498B 19547M 19548M 19548B 19552M
                                                 19553M 19553B 19587M 19588M 19588B 19617M 19618M 19618B 19675M 19676M
                                                 19676B 19684M 19685M 19685B 19855M 19856M 19856B 19874M 19875M 19875B
                                                 19902M 19903M 19903B 19923M 19924M 19924B 19985M 19986M 19986B 19993M
                                                 19994M 19994B 20042M 20043M 20043B 20081M 20082M 20082B 20102M 20103M
                                                 20103B 20126M 20129B 20206  20268M 20269M 20269B 20303M 20304M 20304B
                                                 20317M 20318M 20318B 20365M 20366M 20366B 20381M 20382M 20382B 20519M
                                                 20520M 20520B 20626M 20627M 20627B 20695M 20696M 20696B 20972M 20973M
                                                 20973B 20978M 20979M 20979B 21045M 21046M 21046B 21096M 21097M 21097B
                                                 21285M 21286M 21286B 21294M 21295M 21295B 21319M 21320M 21320B 21348M
                                                 21349M 21349B 21404M 21405M 21405B 21433M 21434M 21434B 21488M 21489M
                                                 21489B 21502M 21503M 21503B 21530M 21533B 21808  21856M 21857M 21857B
                                                 21902M 21903M 21903B 21983M 21986B 21998  22045M 22046M 22046B 22194M
                                                 22197B 22209  22354M 22355M 22355B 22450M 22453B 22465  22610M 22611M
1DIR      (DIR2025) (12:41) (15MAR04) Ordinary Symbol and Literal Cross Reference                                           Page  116
                                                 22611B 22706M 22709B 22721  22776M 22779B 22791  22846M 22849B 22861
                                                 22923M 22926B 22938  23000M 23003B 23015  23070M 23073B 23085  23140M
                                                 23143B 23211  23260M 23261M 23261B 23306M 23307M 23307B 23317M 23318M
                                                 23318B 23408M 23409M 23409B 23455M 23458B 23504  23561M 23562M 23562B
                                                 23600M 23601M 23601B 23606M 23607M 23607B 23637M 23640B 23668  23736M
                                                 23737M 23737B 23754M 23755M 23755B 23880M 23881M 23881B 23988M 23989M
                                                 23989B 23996M 23997M 23997B 24054M 24057B 24104  24177M 24178M 24178B
                                                 24207M 24208M 24208B 24245M 24246M 24246B 24271M 24272M 24272B 24292M
                                                 24293M 24293B 24318M 24319M 24319B 24363M 24364M 24364B 24399M 24400M
                                                 24400B 24429M 24430M 24430B 24456M 24459B 24498  24549M 24550M 24550B
                                                 24651M 24652M 24652B 24711M 24712M 24712B 24741M 24742M 24742B 24776M
                                                 24777M 24777B 24797M 24798M 24798B 24819M 24820M 24820B 24840M 24841M
                                                 24841B 24876M 24877M 24877B 24898M 24899M 24899B 24916M 24917M 24917B
                                                 24962M 24963M 24963B 25010M 25011M 25011B 25035M 25036M 25036B 25066M
                                                 25069B 25121  25161M 25162M 25162B 25175M 25176M 25176B 25272M 25273M
                                                 25273B 25302M 25303M 25303B 25324M 25325M 25325B 25369M 25370M 25370B
                                                 25432M 25433M 25433B 25440M 25441M 25441B 25519M 25520M 25520B 25555M
                                                 25556M 25556B 25576M 25577M 25577B 25594M 25597B 25644  25689M 25690M
                                                 25690B 25801M 25802M 25802B 25819M 25822B 25904  25970M 25971M 25971B
                                                 26006M 26007M 26007B 26020M 26021M 26021B 26069M 26070M 26070B 26129M
                                                 26130M 26130B 26222M 26223M 26223B 26236M 26237M 26237B 26320M 26321M
                                                 26321B 26342M 26343M 26343B 26433M 26434M 26434B 26455M 26456M 26456B
                                                 26483M 26484M 26484B 26489M 26490M 26490B 26495M 26496M 26496B 26516M
                                                 26517M 26517B 26579M 26580M 26580B 26601M 26602M 26602B 26632M 26633M
                                                 26633B 26661M 26664B 26953  27005M 27008B 27020  27073M 27076B 27088
                                                 27119M 27120M 27120B 27141M 27144B 27156  27301M 27302M 27302B 27397M
                                                 27400B 27412  27552M 27553M 27553B 27648M 27651B 27663  27803M 27804M
                                                 27804B 27899M 27902B 27914  27983M 27986B 27998  28053M 28056B 28068
                                                 28124M 28127B 28139  28208M 28211B 28223  28278M 28281B 28293  28362M
                                                 28365B 28377  28432M 28435B 28527M 28528M 28528B 28533M 28534M 28534B
                                                 28572M 28573M 28573B 28619  28671M 28672M 28672B 28717M 28718M 28718B
                                                 28728M 28729M 28729B 28819M 28820M 28820B 28873M 28876B 28922  28982M
                                                 28983M 28983B 29021M 29022M 29022B 29027M 29028M 29028B 29065M 29068B
                                                 29093  29147M 29148M 29148B 29175M 29176M 29176B 29197M 29198M 29198B
                                                 29224M 29225M 29225B 29280M 29283B 29311  29366M 29367M 29367B 29376M
                                                 29377M 29377B 29511M 29512M 29512B 29619M 29620M 29620B 29627M 29628M
                                                 29628B 29692M 29695B 29748  29791M 29792M 29792B 29818M 29819M 29819B
                                                 29861M 29862M 29862B 29894M 29895M 29895B 29898M 29899M 29899B 29970M
                                                 29971M 29971B 30015M 30016M 30016B 30019M 30020M 30020B 30042M 30043M
                                                 30043B 30065M 30066M 30066B 30108M 30109M 30109B 30112M 30113M 30113B
                                                 30152M 30153M 30153B 30238M 30239M 30239B 30273M 30274M 30274B 30277M
                                                 30278M 30278B 30321M 30322M 30322B 30344M 30345M 30345B 30387M 30388M
                                                 30388B 30391M 30392M 30392B 30431M 30432M 30432B 30518M 30519M 30519B
                                                 30541M 30542M 30542B 30584M 30585M 30585B 30655M 30656M 30656B 30696M
                                                 30697M 30697B 30704M 30705M 30705B 30744M 30745M 30745B 30817M 30818M
                                                 30818B 30852M 30853M 30853B 30856M 30857M 30857B 30900M 30901M 30901B
                                                 30923M 30924M 30924B 30966M 30967M 30967B 30970M 30971M 30971B 31010M
                                                 31011M 31011B 31109M 31110M 31110B 31121M 31122M 31122B 31147M 31150B
                                                 31340M 31341M 31341B 31468M 31469M 31469B 31521M 31527  31610M 31611M
                                                 31611B 31615M 31662M 31664  31665M 31666M 31667  31675M 31677  31678M
                                                 31679M 31680  31778M 31779M 31779B 31794M 31795M 31795B 31818M 31819M
                                                 31819B 31844M 31845M 31845B 31871M 31872M 31872B 31889M 31890M 31890B
                                                 31894M 31949M 31950M 31950B 31964M 31967M 31968M 31968B 31996M 31997M
                                                 31997B 32026M 32027M 32027B 32061M 32062M 32062B 32100M 32101M 32101B
                                                 32139M 32140M 32140B 32178M 32179M 32179B 32217M 32218M 32218B 32256M
                                                 32257M 32257B 32295M 32296M 32296B 32334M 32335M 32335B 32373M 32374M
                                                 32374B 32382B 32392B 32412B 32415B 32418B 32421B 32424B 32427B 32430B
                                                 32433B 32436B 32439B 32442B 32445B 32449B 32452B 32455B 32458B 32477M
                                                 32478M 32478B 32507M 32508M 32508B 32525M 32526M 32526B 32545M 32546M
1DIR      (DIR2025) (12:41) (15MAR04) Ordinary Symbol and Literal Cross Reference                                           Page  117
                                                 32546B 32565M 32566M 32566B 32583M 32584M 32584B 32603M 32604M 32604B
                                                 32623M 32624M 32624B
 RDCNT         1 00000012 FFFFFFE9 A   U    6448  6477   6507
 RDKYDATA      1 0000000E FFFFFFE9 A   U    6450  6491   6503   6509
 READCCW       8 00000240 FFFFFFE9     W    6499  6501
 RETFMEM       1 00000000 0000002D     T   28484 28484
 RETFNAME      1 00000000 0000001A     T   13328 13328  21554  23153  28473
 RETFNGDG      1 00000000 00000015     T   13318 13318
 RLSCTPGS      2 00002BE8 00000001     H   23498 25616
 RLSDSPGS      2 00000EA6 00000001     H   13707 20150
 RLSPAGES      2 00003E20 00000001     H   28916 31166
 RTRIM         1 00000000 0000001D     T   14286 14286  18854  24070  25079  29710
 R0            0 00000000 FFFFFFFF A   #     699  2113   2182M 10122M 10122  10131  10132  10169M 10192M 10193  10382M
                                                 10382  10391  10392  10470M 10511M 10529M 10572M 10590M 10608M 10626M
                                                 10665M 10683M 10701M 10719M 10976M 11002M 11003  11004  11084  11131
                                                 11212  11213  11256M 11262  11263  11321M 11323  11454M 11521M 11942M
                                                 11942  11951  11987M 11987  11993  12090M 12164M 12182  12214M 12223
                                                 12346M 12364  12396M 12405  12530M 12530  12539  12575M 12575  12581
                                                 12678M 13421M 13478M 13509  13549M 13561M 13561  13568  13592  13605M
                                                 13605  13634M 13647  13647M 13806M 13942M 13955  13960M 14186M 14186
                                                 14523M 14552M 14581M 14603M 14628M 14690M 14723M 14752M 14781M 14810M
                                                 14839M 14868M 14897M 14926M 14972M 14989M 15018M 15062M 15112M 15129M
                                                 15158M 15202M 15235M 15264M 15293M 15322M 15351M 15380M 15409M 15438M
                                                 15488M 15532M 15582M 15626M 15662M 15664  15664M 15829M 15858M 15887M
                                                 15909M 15934M 15996M 16029M 16058M 16087M 16116M 16145M 16174M 16203M
                                                 16232M 16278M 16322M 16372M 16416M 16449M 16478M 16507M 16536M 16565M
                                                 16594M 16623M 16652M 16684M 16686  16686M 16794  16826M 16835M 16835
                                                 16887  17035  17115M 17255M 17324M 17358M 17405M 17443M 17558M 17578
                                                 17579  17654M 17743M 17772M 17794M 17836M 17866M 17866  17884M 17910M
                                                 17910  17928M 17957M 17985M 18007M 18007  18025M 18064M 18098M 18126M
                                                 18160M 18188M 18222M 18251M 18265M 18265  18283M 18312M 18326M 18326
                                                 18355M 18380M 18402M 18402  18441M 18475M 18493M 18538M 18556M 18586M
                                                 18631M 18649M 18679M 18697M 18727M 18745M 18775M 18971M 19011  19056
                                                 19108M 19246M 19246  19481M 19536M 19576M 19606M 19664M 19664  19784
                                                 19836M 19974M 19974  20288M 20288  20297  20298  20354M 20372M 20405M
                                                 20434M 20691M 20723  20733M 20734  20735  20802  20849  20930  20931
                                                 20974M 20980  20981  21040M 21042  21308M 21308  21337M 21422M 21477M
                                                 21838  21839  21839  21839  21845M 21860M 21865M 21899M 21908  22033M
                                                 22033  22042  22078M 22078  22084  22168M 22242M 22247  22319  22351M
                                                 22356  22498M 22503  22575  22607M 22612  23159  23159  23159  23253M
                                                 23310M 23341  23381M 23385  23398M 23398  23438  23438M 23597M 23733M
                                                 23746  23751M 23977M 23977  24166M 24196M 24242M 24260M 24289M 24307M
                                                 24352M 24388M 24418M 24546M 24566  24567  24700M 24730M 24765M 24794M
                                                 24808M 24808  24837M 24865M 24887M 24887  24905M 24951M 24964M 24965M
                                                 24968  24980M 25154M 25196  25261M 25291M 25421M 25421  25678M 25695M
                                                 25695  25729M 25746M 25747  25752M 25752  25770M 25770  25991M 25991
                                                 26000  26001  26058M 26076M 26118M 26136M 26187M 26224  26309M 26339M
                                                 26422M 26452M 26485M 26491  26590M 27189M 27194  27266  27298M 27303
                                                 27445  27517  27549M 27554  27696  27768  27800M 27805  28539  28565M
                                                 28664M 28721M 28752  28792M 28796  28809M 28809  28849  28849M 29018M
                                                 29150  29164M 29164  29190M 29217M 29363M 29368  29373M 29411M 29413
                                                 29608M 29608  29784M 29807M 29850M 29883M 29883  29951M 30060  30097M
                                                 30195M 30339  30376M 30474M 30536  30573M 30589M 30606M 30620  30644M
                                                 30685M 30685  30787M 30918  30955M 31053M 31344  31347  31599M 31770M
                                                 31807M 31820M 31860M 31878M 31941M 31985M 32015M 32050M 32089M 32128M
                                                 32167M 32206M 32245M 32284M 32323M 32362M 32466M 32496M 32514M 32534M
                                                 32554M 32572M 32592M 32612M
 R1            1 00000001 FFFFFFFF A   #     712  2176M  2177M  2183M 10118M 10131  10132  10134  10168M 10378M 10391
                                                 10392  10394  10469M 10510M 10528M 10567M 10589M 10607M 10625M 10660M
1DIR      (DIR2025) (12:41) (15MAR04) Ordinary Symbol and Literal Cross Reference                                           Page  118
                                                 10682M 10700M 10718M 10762M 10763  10767M 10776M 10776  10783  10806M
                                                 10807  10811M 10820M 10820  10827  10869M 10870  10874M 10883M 10883
                                                 10890  10913M 10914  10918M 10927M 10927  10934  10977M 11000M 11213M
                                                 11217M 11226M 11226  11233  11257M 11263M 11267M 11276M 11276  11283
                                                 11328M 11329M 11330  11334M 11343M 11343  11350  11374M 11453M 11516M
                                                 11581M 11938M 11951  12089M 12163M 12209M 12345M 12391M 12526M 12539
                                                 12677M 13408  13419M 13420M 13421  13449M 13450M 13450  13462  13468
                                                 13476M 13477M 13478  13544M 13552M 13580  13633M 13647  13742  13799M
                                                 13800M 13801  13926  13941M 13956  13959M 14516M 14545M 14574M 14596M
                                                 14626M 14683M 14716M 14745M 14774M 14803M 14832M 14861M 14890M 14919M
                                                 14965M 14988M 15011M 15055M 15105M 15128M 15151M 15195M 15228M 15257M
                                                 15286M 15315M 15344M 15373M 15402M 15431M 15481M 15525M 15575M 15619M
                                                 15657M 15664  15822M 15851M 15880M 15902M 15932M 15989M 16022M 16051M
                                                 16080M 16109M 16138M 16167M 16196M 16225M 16271M 16315M 16365M 16409M
                                                 16442M 16471M 16500M 16529M 16558M 16587M 16616M 16645M 16679M 16686
                                                 16793  17036  17114M 17254M 17323M 17353M 17404M 17436M 17557M 17653M
                                                 17742M 17765M 17787M 17829M 17862M 17883M 17906M 17927M 17950M 17984M
                                                 18003M 18024M 18057M 18097M 18119M 18159M 18181M 18221M 18244M 18261M
                                                 18282M 18305M 18322M 18348M 18379M 18398M 18434M 18474M 18492M 18531M
                                                 18555M 18579M 18624M 18648M 18672M 18696M 18720M 18744M 18768M 18960
                                                 18989M 19010  19106M 19310M 19337M 19408M 19480M 19494M 19535M 19549M
                                                 19575M 19599M 19681M 19740  19834M 20038M 20077M 20099M 20284M 20297
                                                 20298  20300  20353M 20371M 20404M 20433M 20477M 20478  20482M 20491M
                                                 20491  20498  20521M 20522  20526M 20535M 20535  20542  20584M 20585
                                                 20589M 20598M 20598  20605  20628M 20629  20633M 20642M 20642  20649
                                                 20692M 20731M 20931M 20935M 20944M 20944  20951  20975M 20981M 20985M
                                                 20994M 20994  21001  21047M 21048M 21049  21053M 21062M 21062  21069
                                                 21093M 21154M 21170  21196  21291M 21332M 21421M 21476M 21499M 21838
                                                 21839  21839  21839  21844M 21860M 21864M 21894M 22029M 22042  22167M
                                                 22241M 22346M 22497M 22602M 23159  23159  23159  23240  23251M 23252M
                                                 23253  23281M 23282M 23282  23294  23300  23308M 23309M 23310  23376M
                                                 23384M 23438  23533  23590M 23591M 23592  23717  23732M 23747  23750M
                                                 24159M 24189M 24235M 24253M 24282M 24300M 24345M 24381M 24411M 24545M
                                                 24699M 24723M 24764M 24787M 24799M 24830M 24864M 24883M 24904M 24950M
                                                 24995M 25150  25172M 25195  25254M 25284M 25515M 25552M 25573M 25677M
                                                 25691M 25730M 25747M 25748M 25987M 26000  26001  26003  26057M 26075M
                                                 26117M 26135M 26180M 26308M 26334M 26421M 26447M 26486M 26492M 26589M
                                                 26629M 27188M 27293M 27443M 27444M 27444  27544M 27694M 27695M 27695
                                                 27795M 28651  28662M 28663M 28664  28692M 28693M 28693  28705  28711
                                                 28719M 28720M 28721  28787M 28795M 28849  28954  29011M 29012M 29013
                                                 29369  29372M 29412M 29413M 29414  29417M 29462M 29463  29466M 29468M
                                                 29469  29470  29474M 29483M 29483  29490  29780  29806M 29845M 29950M
                                                 29967M 30039M 30061  30062M 30082  30083  30083  30083  30092M 30127M
                                                 30148M 30167M 30179M 30196M 30235M 30318M 30340  30341M 30361  30362
                                                 30362  30362  30371M 30406M 30427M 30446M 30458M 30475M 30515M 30537
                                                 30538M 30558  30559  30559  30559  30568M 30637M 30719M 30740M 30759M
                                                 30771M 30788M 30814M 30897M 30919  30920M 30940  30941  30941  30941
                                                 30950M 30985M 31006M 31025M 31037M 31054M 31118M 31167  31167  31167
                                                 31337M 31337  31353M 31465M 31526M 31526  31540M 31572M 31585M 31585
                                                 31598M 31806M 31821M 31859M 31877M 31984M 32008M 32049M 32088M 32127M
                                                 32166M 32205M 32244M 32283M 32322M 32361M 32465M 32489M 32513M 32533M
                                                 32553M 32571M 32591M 32611M
 R12          12 0000000C FFFFFFFF A   #     855  2139
 R13          13 0000000D FFFFFFFF A   #     868 10126  10127  10128  10144  10145  10146  10386  10387  10388  10404
                                                 10405  10406  11946  11947  11948  11961  11962  11963  12534  12535
                                                 12536  12549  12550  12551  20292  20293  20294  20310  20311  20312
                                                 22037  22038  22039  22052  22053  22054  25995  25996  25997  26013
                                                 26014  26015  31264
 R14          14 0000000E FFFFFFFF A   #     881  2114M 10125M 10126  10127  10128  10133M 10134  10141M 10144  10145
1DIR      (DIR2025) (12:41) (15MAR04) Ordinary Symbol and Literal Cross Reference                                           Page  119
                                                 10146  10385M 10386  10387  10388  10393M 10394  10401M 10404  10405
                                                 10406  11945M 11946  11947  11948  11958M 11961  11962  11963  12162M
                                                 12163  12164  12168M 12168  12344M 12345  12346  12350M 12350  12533M
                                                 12534  12535  12536  12546M 12549  12550  12551  13510M 20291M 20292
                                                 20293  20294  20299M 20300  20307M 20310  20311  20312  21863M 21864
                                                 21865  21869M 21869  22036M 22037  22038  22039  22049M 22052  22053
                                                 22054  22240M 22241  22242  22246M 22246  22496M 22497  22498  22502M
                                                 22502  23342M 25994M 25995  25996  25997  26002M 26003  26010M 26013
                                                 26014  26015  27187M 27188  27189  27193M 27193  28501  28753M
 R15          15 0000000F FFFFFFFF A   #     894  2113  10147M 10147  10219M 10219  10407M 10407  10519M 10580M 10598M
                                                 10616M 10673M 10691M 10709M 11397  11419  11462M 11545M 11615M 11615
                                                 11964M 11964  11973M 11973  12068M 12068  12118M 12118  12300M 12300
                                                 12482M 12482  12552M 12552  12561M 12561  12656M 12656  12706M 12706
                                                 12757M 12757  12776M 12776  12834M 12834  12853M 12853  12904M 12904
                                                 12923M 12923  12974M 12974  12993M 12993  13044M 13044  13063M 13063
                                                 13115M 13115  13134M 13134  13185M 13185  13204M 13204  13255M 13255
                                                 13274M 13274  13509  13532M 13617M 13638M 13638  13666M 13666  13848M
                                                 13848  14194M 14225M 14230M 14237M 14237  14265M 14265  14488M 14531M
                                                 14560M 14586  14616M 14616  14629M 14652M 14698M 14731M 14760M 14789M
                                                 14818M 14847M 14876M 14905M 14934M 14980M 14997M 15026M 15070M 15120M
                                                 15137M 15166M 15210M 15243M 15272M 15301M 15330M 15359M 15388M 15417M
                                                 15446M 15496M 15540M 15590M 15634M 15688M 15688  15794M 15837M 15866M
                                                 15892  15922M 15922  15935M 15958M 16004M 16037M 16066M 16095M 16124M
                                                 16153M 16182M 16211M 16240M 16286M 16330M 16380M 16424M 16457M 16486M
                                                 16515M 16544M 16573M 16602M 16631M 16660M 16710M 16710  16791M 16791
                                                 16894M 16934M 16954M 16954  17049M 17049  17123M 17263M 17332M 17366M
                                                 17413M 17451M 17474M 17474  17662M 17751M 17777  17807M 17807  17841
                                                 17874M 17892M 17918M 17936M 17962  17993M 18015M 18033M 18072M 18106M
                                                 18150M 18168M 18212M 18230M 18261  18273M 18291M 18322  18334M 18368M
                                                 18368  18374  18388M 18410M 18449M 18483M 18501M 18546M 18564M 18594M
                                                 18639M 18657M 18687M 18705M 18735M 18753M 18783M 18831M 18831  19004M
                                                 19004  19171M 19254M 19422M 19422  19489M 19544M 19584M 19614M 19672M
                                                 19734M 19734  19899M 19982M 20128M 20128  20313M 20313  20362M 21109
                                                 21282M 21316M 21345M 21380  21430M 21485M 21532M 21532  21853M 21985M
                                                 21985  22055M 22055  22064M 22064  22146M 22146  22196M 22196  22452M
                                                 22452  22708M 22708  22759M 22759  22778M 22778  22829M 22829  22848M
                                                 22848  22906M 22906  22925M 22925  22983M 22983  23002M 23002  23053M
                                                 23053  23072M 23072  23123M 23123  23142M 23142  23341  23364M 23410M
                                                 23429M 23429  23457M 23457  23639M 23639  23985M 24016M 24021M 24028M
                                                 24028  24056M 24056  24174M 24204M 24247  24268M 24294  24315M 24360M
                                                 24396M 24426M 24458M 24458  24708M 24738M 24773M 24799  24816M 24842
                                                 24873M 24895M 24913M 24959M 25007M 25068M 25068  25188M 25188  25269M
                                                 25299M 25429M 25596M 25596  25686M 25798M 25821M 25821  26016M 26016
                                                 26066M 26126M 26317M 26430M 26533  26555  26598M 26663M 26663  27007M
                                                 27007  27075M 27075  27124M 27124  27143M 27143  27399M 27399  27650M
                                                 27650  27901M 27901  27966M 27966  27985M 27985  28036M 28036  28055M
                                                 28055  28107M 28107  28126M 28126  28191M 28191  28210M 28210  28261M
                                                 28261  28280M 28280  28345M 28345  28364M 28364  28415M 28415  28434M
                                                 28434  28503  28544M 28752  28775M 28821M 28840M 28840  28875M 28875
                                                 29067M 29067  29172M 29199M 29229M 29229  29252M 29252  29282M 29282
                                                 29616M 29647M 29652M 29659M 29659  29694M 29694  29815M 29858M 29891M
                                                 30012M 30054M 30054  30075M 30075  30082  30083  30083  30083  30105M
                                                 30127M 30167M 30179M 30270M 30333M 30333  30354M 30354  30361  30362
                                                 30362  30362  30384M 30406M 30446M 30458M 30530M 30530  30551M 30551
                                                 30558  30559  30559  30559  30581M 30586M 30587M 30588M 30620  30652M
                                                 30693M 30719M 30759M 30771M 30849M 30912M 30912  30933M 30933  30940
                                                 30941  30941  30941  30963M 30985M 31025M 31037M 31106M 31149M 31149
                                                 31167  31167  31167  31347M 31350M 31352  31557M 31559  31607M 31656M
                                                 31664M 31666  31669M 31677M 31679  31774M 31815M 31841M 31868M 31886M
1DIR      (DIR2025) (12:41) (15MAR04) Ordinary Symbol and Literal Cross Reference                                           Page  120
                                                 31945M 31993M 32023M 32058M 32097M 32136M 32175M 32214M 32253M 32292M
                                                 32331M 32370M 32474M 32504M 32522M 32542M 32562M 32580M 32600M 32620M
 R2            2 00000002 FFFFFFFF A   #     725 11004M 11019M 11028M 11028  11035  13567  13580  13633  13801M 13806
                                                 13916  13971M 13975M 14007M 14008  14009  14013M 14022M 14022  14029
                                                 14048M 14052M 14061M 14061  14068  14218M 14220M 14292  14292  14292
                                                 14469  15775  16820M 16826  17089M 17089  17379M 17379  17579M 17583M
                                                 17592M 17592  17599  17618M 17841M 17851  17906  18374M 18398  18990M
                                                 19109M 19311M 19338M 19409M 19837M 20039M 20078M 20735M 20739M 20748M
                                                 20748  20755  21137M 21148U 23375M 23376  23385M 23388M 23389  23592M
                                                 23597  23707  23762M 23766M 23798M 23799  23800  23804M 23813M 23813
                                                 23820  23839M 23843M 23852M 23852  23859  24009M 24011M 24076  24076
                                                 24076  24133  24247M 24253  24294M 24300  24527  24567M 24571M 24580M
                                                 24580  24587  24624M 24644M 24644  24842M 24854  24883  25321M 25366M
                                                 25516M 27303M 27317  27329M 27334  27338M 27347M 27347  27354  27554M
                                                 27568  27580M 27585  27589M 27598M 27598  27605  27805M 27819  27831M
                                                 27836  27840M 27849M 27849  27856  28521M 28522M 28522  28529  28536M
                                                 28537  28538M 28539  28555M 28555  28564M 28565  28786M 28787  28796M
                                                 28799M 28800  29013M 29018  29353  29384M 29388M 29420M 29424M 29433M
                                                 29433  29440  29461M 29462  29467M 29468  29640M 29642M 29717  29717
                                                 29717  30149M 30428M 30741M 31007M
 R3            3 00000003 FFFFFFFF A   #     738 11993M 11996  12008M 12013  12017M 12026M 12026  12033  12223M 12226
                                                 12238M 12243  12247M 12256M 12256  12263  12405M 12408  12420M 12425
                                                 12429M 12438M 12438  12445  12581M 12584  12596M 12601  12605M 12614M
                                                 12614  12621  13431M 13443  13487M 13500  13568M 13571M 13573  13776M
                                                 13779M 13793  13799  13817M 13817  13955M 13969  13970  13970  13970
                                                 13972M 13974  14007M 14217M 14219  14292  14292  14292  14586M 14624M
                                                 14629  15892M 15930M 15935  16798M 16862M 16887  16919M 17035M 17145
                                                 17224M 17300  17358  19011M 19373M 19382M 19382  19389  21155M 21164M
                                                 21164  21170M 21172M 21191M 21196M 21205M 21205  21213  21225M 21230
                                                 21234M 21243M 21243  21250  21908M 21911  21923M 21928  21932M 21941M
                                                 21941  21948  22084M 22087  22099M 22104  22108M 22117M 22117  22124
                                                 22247M 22250  22262M 22267  22271M 22280M 22280  22287  22356M 22370
                                                 22382M 22387  22391M 22400M 22400  22407  22503M 22506  22518M 22523
                                                 22527M 22536M 22536  22543  22612M 22626  22638M 22643  22647M 22656M
                                                 22656  22663  23263M 23275  23319M 23332  23567M 23570M 23584  23590
                                                 23608M 23608  23746M 23760  23761  23761  23761  23763M 23765  23798M
                                                 24008M 24010  24076  24076  24076  24964  25196M 27194M 27197  27209M
                                                 27214  27218M 27227M 27227  27234  27445M 27448  27460M 27465  27469M
                                                 27478M 27478  27485  27696M 27699  27711M 27716  27720M 27729M 27729
                                                 27736  28674M 28686  28730M 28743  28988M 28991M 29005  29011  29029M
                                                 29029  29125M 29126M 29138  29368M 29382  29383  29383  29383  29385M
                                                 29387  29420M 29639M 29641  29717  29717  29717  30060M 30097  30195
                                                 30339M 30376  30474  30536M 30573  30787  30918M 30955  31053  31363M
                                                 31371U 31377M 31377  31415U 31447  31448M 31448  31471M 31485M 31493U
                                                 31501M 31501
 R4            4 00000004 FFFFFFFF A   #     751 13543M 13544  13592M 13595M 13596  13926M 13936U 13956M 13969  13970
                                                 13970  13970  13973M 13975M 14216M 14220M 14469M 14502U 15775M 15808U
                                                 16797M 16852  16861M 16901M 16910M 16910  17036M 17223M 17353  17549U
                                                 19010M 19021U 19458M 19740M 19750U 19837  23717M 23727U 23747M 23760
                                                 23761  23761  23761  23764M 23766M 24007M 24011M 24133M 24143U 24527M
                                                 24537U 25195M 25206U 25321  25366  29369M 29382  29383  29383  29383
                                                 29386M 29388M 29638M 29642M 30061M 30092  30148  30196  30340M 30371
                                                 30427  30475  30537M 30568  30740  30788  30919M 30950  31006  31054
                                                 31550M 31559M 31721M 31742M 31742  31752M 31752  31846M 31846  31891M
                                                 31891  31975M 31977M 31978
 R5            5 00000005 FFFFFFFF A   #     764 10180M 10188U 10371M 13974M 13976M 13986U 14219M 16794M 16809M 16809
                                                 16926M 17056M 17076M 17076  17103M 17103  17393M 17393  17563M 17573U
                                                 17777M 17815M 17851  17862  17962M 17974  18003  20270M 20278U 23765M
                                                 23767M 23777U 24010M 24551M 24561U 25972M 25980U 29387M 29389M 29399U
1DIR      (DIR2025) (12:41) (15MAR04) Ordinary Symbol and Literal Cross Reference                                           Page  121
                                                 29641M 29820M 29830U 31514M 31527M
 R6            6 00000006 FFFFFFFF A   #     777 10348M 10356U 13408M 13416U 13742M 13750U 13916M 13924U 16793M 16924M
                                                 17538U 18960M 18968U 20245M 20253U 23240M 23248U 23533M 23541U 23707M
                                                 23715U 25150M 25943M 25951U 28651M 28659U 28954M 28962U 29353M 29361U
                                                 29780M 31315M 31323U 31394U 31504  31507  31508  31514  31521  31550
                                                 31557  31612  31649  31653  31655  31662  31668  31675  31681  31682
                                                 31821  31897  31901  31913  32408U
 R7            7 00000007 FFFFFFFF A   #     790  2106M  2106   2107B  2119B 31267M 31280U
 R8            8 00000008 FFFFFFFF A   #     803 10344U 13912U 14465U 15771U 18956U 20241U 23703U 25939U 28503  28504M
                                                 28544M 29349U 31264M 31315
 SAMDIR        1 00000000 00000028     T   28470 28470
 SBUF          8 00000000 FFFFFFDF     D   10006 10022  10024
 SCAN          1 00000000 00000032     T   32701 32701
 SCANCHK       1 00000000 0000000D     T   13306 13306  21545  28463
 SCBUF         8 00000000 FFFFFFDF     D   10025 10035
 SCHIDEQ       1 00000031 FFFFFFE9 A   U    6439  6459   6465   6487   6499
 SCHKADEQ      1 0000002D FFFFFFE9 A   U    6444  6473   6481
 SCHKADHE      1 0000006D FFFFFFE9 A   U    6446  6447
 SCHKYHE       1 00000069 FFFFFFE9 A   U    6443  6447
 SCRABORT      2 00004010 00000001     H   29646 29379B
 SCRATTN       2 00004018 00000001     H   29651 29378B
 SCRCAT        2 00002C4E 00000001     H   23661 25615
 SCRCTABT      2 00002D40 00000001     H   24015 23757B
 SCRCTATN      2 00002D48 00000001     H   24020 23756B
 SCRCTDON      2 00002D56 00000001     H   24032 24017B 24022B 24029B
 SCRCTOK       2 00002D50 00000001     H   24026 24012B
 SCRDSABT      2 00000FFE 00000001     H   14224 13966B
 SCRDSATN      2 00001006 00000001     H   14229 13965B
 SCRDSDON      2 00001014 00000001     H   14241 14226B 14231B 14238B
 SCRDSN        2 00000F0C 00000001     H   13870 20149
 SCRDSOK       2 0000100E 00000001     H   14235 14221B
 SCRMBDON      2 00004026 00000001     H   29663 29648B 29653B 29660B
 SCRMBOK       2 00004020 00000001     H   29657 29643B
 SCRMBR        2 00003F08 00000001     H   29304 31165
 SCRVLST       4 00000348 FFFFFFE9     F    6534  6583   6634   6644
 SDSNQSZ       1 0000002C FFFFFFEC A   U    6094  6095   6096
 SEEK          5 000001BB FFFFFFE9     X    6435  6459   6485   6494
 SEG           1 00000000 00000012     T   13311 13311  15703  16725  18851  20145  21564  24469  25081  25610  28479
                                                 31161  32702
 SEGB          1 00000000 0000000E     T   13307 13307  15699  16721  18856  20151  21546  24468  25086  25609  25830
                                                 28464  32705
 SEGCBCOD      1 00000000 FFFFFFE7     R    9278  9287   9297   9307   9317   9327   9337   9347
 SEGCLR        1 00000000 00000025     T   21558 21558
 SEGCR         1 00000000 00000011     T   13310 13310  14289  20147  21561  23152  24073  25613  28469  29713  31162
 SEGDC         1 00000000 00000023     T   18859 18859  24471  25084
 SEGFILE       2 00001764 00000001     H   17000 18855  25080
 SEGINIT       1 00000000 00000020     T   15698 15698  16720
 SEGT          1 00000000 00000010     T   13309 13309  25082
 SEGWR         1 00000000 00000026     T   21560 21560  29709  32706
 SENSAME       2 00003CF8 00000001     I   28540 28530B 28558B 28574B
 SETPFXNS      1 00000000 0000002B     T   28475 28475
 SHCTARGS    812 00000000 FFFFFFE2     J    9938 20212  20241U 20245  20253U 20261M 20261  20262M 20262  20263M 20263
                                                 20264M 20264  21093  21291  21499  21528  21530  21531  23248U 23541U
                                                 23715U 25172  25516  25552  25573
 SHCTCOFF      4 00000328 FFFFFFE2     F    9931 23275  23301M 23332  23375  23389M 25170M
 SHCTCPG       4 00000324 FFFFFFE2     F    9930 23251  23281  23300M 23308  23567  25169M 25169
 SHCTDSK      32 00000000 FFFFFFE2         9894 22895M 22979M
 SHCTFLAG      1 00000000 FFFFFFE2     R    9880  9884   9889   9894   9899   9904   9909
 SHCTINT      64 00000000 FFFFFFE2         9889 21465  23049M 25238
1DIR      (DIR2025) (12:41) (15MAR04) Ordinary Symbol and Literal Cross Reference                                           Page  122
 SHCTLIKE    128 00000110 FFFFFFE2     C    9918 20692  20762M 20762  20958  21008M 21076M 21955M 22131M 23154
 SHCTLIKL      4 0000010C FFFFFFE2     F    9917 20685  20691  20734M 20980M 21049M 21928M 22104M
 SHCTLOWB    128 0000008C FFFFFFE2     C    9916 20612  20656M 22294M 22414M 23156
 SHCTLOWL      4 00000088 FFFFFFE2     F    9915 20578  20584  20629M 22267M 22387M
 SHCTPAGS      4 00000194 FFFFFFE2     F    9924  9925  23253  23310  23592  25154
 SHCTPGCT      2 00000190 FFFFFFE2     H    9923 21130M 21130  21396M 21396  21450M 21450  23294  23584
 SHCTSCR       4 00000000 FFFFFFE2         9909 20331  23119M 23916M 25481
 SHCTTAP      16 00000000 FFFFFFE2         9899 22902M 22972M
 SHCTUNIT      8 00000000 FFFFFFE2         9904 22825M 24940
 SHCTUPB     128 00000008 FFFFFFE2     C    9914 20505  20549M 22550M 22670M 23158
 SHCTUPL       4 00000004 FFFFFFE2     F    9913 20471  20477  20522M 22523M 22643M
 SHCTVOL     128 00000000 FFFFFFE2         9884 22755M 24689
 SHDALL        2 00003A9E 00000001     H   28133 26729
 SHDBLK        2 00003AD4 00000001     H   28217 26774
 SHDHEX        2 00003A0C 00000001     H   27908 26714
 SHDRALL     128 00000000 FFFFFFE5         9615 27949M 28187M 28328M 29927
 SHDRARGS    100 00000000 FFFFFFE5     J    9674 25910  25939U 25943  25951U 25959M 25959  26492  26629  26659  26661
                                                 26662  28659U 28962U 29361U 29967  30039  30062  30149  30235  30318
                                                 30341  30428  30515  30538  30741  30814  30897  30920  31007  31118
 SHDRBLK      16 00000000 FFFFFFE5         9630 28257M 31081
 SHDRCOFF      4 00000060 FFFFFFE5     F    9667 28686  28712M 28743  28786  28800M 29800M
 SHDRCPG       4 0000005C FFFFFFE5     F    9666 28662  28692  28711M 28719  28988  29799M 29799
 SHDRDFLT      4 00000000 FFFFFFE5         9640 26167M 26264  26377
 SHDRFLAG      1 00000000 FFFFFFE5     R    9611  9615   9620   9625   9630   9635   9640   9645
 SHDRHEX      64 00000000 FFFFFFE5         9620 27962M 28181M 28335M 30229
 SHDRLIKE     16 00000020 FFFFFFE5     C    9654 26334  26447  27241M 27361M 28482
 SHDRLIKL      4 0000001C FFFFFFE5     F    9653 26339  26452  27214M 27334M
 SHDRLOWB      8 00000014 FFFFFFE5     C    9652 27492M 27612M 28485
 SHDRLOWL      4 00000010 FFFFFFE5     F    9651 27465M 27585M
 SHDROLD       2 00000000 FFFFFFE5         9645 28032M 28103M 29942
 SHDRPAGS      4 00000034 FFFFFFE5     F    9660  9661  28664  28721  29013  29784
 SHDRPGCT      2 00000030 FFFFFFE5     H    9659 26571M 26571  26617M 26617  28705  29005
 SHDRSCR       8 00000000 FFFFFFE5         9635 26035  26095  28411M 29547M 30142  30421  30734  31000
 SHDRTAB      32 00000000 FFFFFFE5         9625 26107  27956M 28174M 28341M 30508
 SHDRUPB       8 00000008 FFFFFFE5     C    9650 27743M 27863M 28486
 SHDRUPL       4 00000004 FFFFFFE5     F    9649 27716M 27836M
 SHDSARGS    512 00000000 FFFFFFE4     J    9762 10315  10344U 10348  10356U 10364M 10364  10365M 10365  11374  11581
                                                 11611  11613  11614  13416U 13750U 13924U 17538U 18968U 18989  19311
                                                 19337  19408  19494  19549  19681  20039  20077  20099
 SHDSCOFF      4 000001FC FFFFFFE4     F    9755 13443  13469M 13500  13543  13596M 18987M
 SHDSCPG       4 000001F8 FFFFFFE4     F    9754 13419  13449  13468M 13476  13776  18986M 18986
 SHDSCR        2 00003B38 00000001     H   28371 26744
 SHDSDAT      16 00000000 FFFFFFE4         9707 12827  12827  12828  12828  12830M 12900M 17717  18464
 SHDSFLAG      1 00000000 FFFFFFE4     R    9688  9692   9697   9702   9707   9712   9717   9722   9727
 SHDSFLG2      1 00000001 FFFFFFE4     R    9732  9733
 SHDSINT       4 00000000 FFFFFFE4         9717 11484  13181M 19099  19827
 SHDSLIK       1 00000000 FFFFFFE4         9727 12064M 12652M 19439
 SHDSLIKE    128 00000110 FFFFFFE4     C    9742 10977  11042M 11042  11240  11290M 11357M 12040M 12628M 13327
 SHDSLIKL      4 0000010C FFFFFFE4     F    9741 10970  10976  11003M 11262M 11330M 12013M 12601M
 SHDSLOWB    128 0000008C FFFFFFE4     C    9740 10897  10941M 12270M 13329
 SHDSLOWL      4 00000088 FFFFFFE4     F    9739 10443  10863  10869  10914M 12243M
 SHDSNEW     128 00000001 FFFFFFE4         9733 13040M 13111M 18515  19119  19847
 SHDSONLY      2 00000000 FFFFFFE4         9722 10426  12058M 12645M 19451
 SHDSPAGS      4 00000194 FFFFFFE4     F    9748  9749  13421  13478  13801  18971
 SHDSPGCT      2 00000190 FFFFFFE4     H    9747 11435M 11435  11569M 11569  13462  13793
 SHDSSCR       8 00000000 FFFFFFE4         9712 10488  13251M 14125M 19304  20032
 SHDSTRK      64 00000000 FFFFFFE4         9697 12753M 12828  12828  12829  12829  17693  17732
 SHDSTYP      32 00000000 FFFFFFE4         9702 12827  12827  12829  12829  12970M 17705  18087
 SHDSUPB     128 00000008 FFFFFFE4     C    9738 10790  10834M 12452M 13330
1DIR      (DIR2025) (12:41) (15MAR04) Ordinary Symbol and Literal Cross Reference                                           Page  123
 SHDSUPL       4 00000004 FFFFFFE4     F    9737 10458  10756  10762  10807M 12425M
 SHDTAB        2 00003B02 00000001     H   28287 26759
 SHODSN        2 0000017C 00000001     H   10302 10298
 SHOWCAT       2 00001FD0 00000001     H   20199 20195
 SHOWDIR       2 000032AA 00000001     H   25897 25893
 SHOWTRKS      2 00000016 00000001     H   10080 10076
 SKP           1 00000010 FFFFFFE9 A   U    6456  6485
 SLI           1 00000020 FFFFFFE9 A   U    6455  6459   6461   6463   6465   6467   6469   6473   6475   6477   6481
                                                  6483   6485   6487   6489   6491   6494   6499   6501   6503   6507
                                                  6509
 SPR          13 0000000D 00000001 A   #    1126 10086  10089  10090  10091M 10091  10211M 10215  10217  10309  10312
                                                 10314  10315M 10315  11607M 11611  11613  11907  11910  11911  11912M
                                                 11912  12110M 12114  12116  12131  12134  12135  12136M 12136  12292M
                                                 12296  12298  12313  12316  12317  12318M 12318  12474M 12478  12480
                                                 12495  12498  12499  12500M 12500  12698M 12702  12704  12719  12722
                                                 12723  12724M 12724  12768M 12772  12774  12789  12792  12793  12794M
                                                 12794  12845M 12849  12851  12866  12869  12870  12871M 12871  12915M
                                                 12919  12921  12936  12939  12940  12941M 12941  12985M 12989  12991
                                                 13006  13009  13010  13011M 13011  13055M 13059  13061  13076  13079
                                                 13080  13081M 13081  13126M 13130  13132  13147  13150  13151  13152M
                                                 13152  13196M 13200  13202  13217  13220  13221  13222M 13222  13266M
                                                 13270  13272  13379  13382  13383  13384M 13384  13658M 13662  13664
                                                 13713  13716  13717  13718M 13718  13840M 13844  13846  13877  13880
                                                 13882  13883M 13883  14257M 14261  14263  14430  14433  14435  14436M
                                                 14436  15680M 15684  15686  15736  15739  15741  15742M 15742  16702M
                                                 16706  16708  16759  16762  16763  16764M 16764  16946M 16950  16952
                                                 17006  17009  17010  17011M 17011  17466M 17470  17472  17502  17505
                                                 17506  17507M 17507  18823M 18827  18829  18921  18924  18926  18927M
                                                 18927  20120M 20124  20126  20206  20209  20211  20212M 20212  21524M
                                                 21528  21530  21808  21811  21812  21813M 21813  21977M 21981  21983
                                                 21998  22001  22002  22003M 22003  22188M 22192  22194  22209  22212
                                                 22213  22214M 22214  22444M 22448  22450  22465  22468  22469  22470M
                                                 22470  22700M 22704  22706  22721  22724  22725  22726M 22726  22770M
                                                 22774  22776  22791  22794  22795  22796M 22796  22840M 22844  22846
                                                 22861  22864  22865  22866M 22866  22917M 22921  22923  22938  22941
                                                 22942  22943M 22943  22994M 22998  23000  23015  23018  23019  23020M
                                                 23020  23064M 23068  23070  23085  23088  23089  23090M 23090  23134M
                                                 23138  23140  23211  23214  23215  23216M 23216  23449M 23453  23455
                                                 23504  23507  23508  23509M 23509  23631M 23635  23637  23668  23671
                                                 23673  23674M 23674  24048M 24052  24054  24104  24107  24108  24109M
                                                 24109  24450M 24454  24456  24498  24501  24502  24503M 24503  25060M
                                                 25064  25066  25121  25124  25125  25126M 25126  25588M 25592  25594
                                                 25644  25647  25648  25649M 25649  25813M 25817  25819  25904  25907
                                                 25909  25910M 25910  26655M 26659  26661  26953  26956  26957  26958M
                                                 26958  26999M 27003  27005  27020  27023  27024  27025M 27025  27067M
                                                 27071  27073  27088  27091  27092  27093M 27093  27135M 27139  27141
                                                 27156  27159  27160  27161M 27161  27391M 27395  27397  27412  27415
                                                 27416  27417M 27417  27642M 27646  27648  27663  27666  27667  27668M
                                                 27668  27893M 27897  27899  27914  27917  27918  27919M 27919  27977M
                                                 27981  27983  27998  28001  28002  28003M 28003  28047M 28051  28053
                                                 28068  28071  28072  28073M 28073  28118M 28122  28124  28139  28142
                                                 28143  28144M 28144  28202M 28206  28208  28223  28226  28227  28228M
                                                 28228  28272M 28276  28278  28293  28296  28297  28298M 28298  28356M
                                                 28360  28362  28377  28380  28381  28382M 28382  28426M 28430  28432
                                                 28619  28622  28623  28624M 28624  28867M 28871  28873  28922  28925
                                                 28926  28927M 28927  29059M 29063  29065  29093  29096  29097  29098M
                                                 29098  29274M 29278  29280  29311  29314  29316  29317M 29317  29686M
                                                 29690  29692  29748  29751  29752  29753M 29753  31141M 31145  31147
 SRCHC         2 000008D2 FFFFFFE9     H    7197  6477   6499   6507
1DIR      (DIR2025) (12:41) (15MAR04) Ordinary Symbol and Literal Cross Reference                                           Page  124
 SRCHCCW       8 000001C0 FFFFFFE9     W    6459  6461
 STOWLEN       1 00000303 FFFFFFE9     X    6523  6526
 STRKPRT       4 000000C8 00000001     F   10226 10277
 TIC           1 00000008 FFFFFFE9 A   U    6440  6461   6463   6467   6469   6475   6483   6489   6501
 TOUPPER       1 00000000 00000014     T   13313 13313  21549
 TRC           1 00000000 00000000 A   T    2135  2135
 TRUBBLE       2 00003D06 00000001     H   28548 28535B
 TTYFLAG       1 00000004 FFFFFFEA     R    6223  6227
 TTYMAX#       1 00000006 FFFFFFEA A   U    6279  6280
 TTYTFLAG      1 00000005 FFFFFFEA     R    6233  6237   6242   6247   6252   6257   6262   6267
 UALAUTH       5 0000046E FFFFFFE9     C    6693  6687
 UPCASE        1 00000000 00000018     T   13324 13324
 UPPTBL        1 00000000 00000000 A   T    2198  2198
 VARACC        4 000048D8 00000001     I   32423 32635
 VARCLEAR      4 000048A6 00000001     I   32381 31615B 31894B 31964B
 VARCLR        4 00004902 00000001     I   32441 32655  32657
 VARDO         2 000045E0 00000001     H   31619 31588B
 VARFLG1       1 00000044 FFFFFFDA     X   31244 31456M 31521  31662  31901  32420M 32429M 32444M 32448M 32451M
 VARFLG2       1 00000045 FFFFFFDA     X   31245 31473  31475  31504M 31612  31649  31682  31897  31913  32411M 32414M
                                                 32416M
 VARFLG3       1 00000046 FFFFFFDA     X   31246 31557  31675  32457M
 VARGO         6 00004604 00000001     I   31653 31650B 31652B
 VARNOACC      4 000048D2 00000001     I   32420 32637
 VARNOCLR      4 00004908 00000001     I   32444 32653
 VARNOPRV      4 00004918 00000001     I   32451 32661
 VARNORES      4 000048E4 00000001     I   32429 32641  32643
 VARNSHOW      4 00004924 00000001     I   32457 32665
 VAROND        4 00004794 00000001     I   31984 31898B 31900B 31902B
 VARPRV        4 0000490E 00000001     I   32447 32659
 VARRES        4 000048DE 00000001     I   32426 32639
 VARSAV        6 000048EA 00000001     I   32432 32645
 VARSHOW       4 0000491E 00000001     I   32454 32663
 VARTMP        6 000048FA 00000001     I   32438 32649  32651
 VARUSE        6 000048F2 00000001     I   32435 32647
 VARY          2 000044A0 00000001     H   31263 31261
 VARYBSY       4 0000497E 00000001     I   32553 31648B
 VARYCOMP      4 000044FE 00000001     I   31373 31378B
 VARYMNT       4 000048C6 00000001     I   32414 32667
 VARYNON       4 00004968 00000001     I   32533 31717B
 VARYNTAL      4 0000492A 00000001     I   32460 31474B
 VARYOFF       4 000048CC 00000001     I   32416 32633
 VARYON        4 000048C0 00000001     I   32411 32629  32631
 VARYPRT       1 000049D2 00000001     X   32627 31465
 VARYVOL       2 0000451E 00000001     H   31419 31376B
 VFLG1         1 00000008 FFFFFFDA     X   31194 31429M 31505M 31514  31628  31651  31665  31667M 31668M 31668  31695
                                                 31709M 31714  31716  31720M 31732  31764M 31801M 31854M 31899  31903M
                                                 31962M 31974M 32038  32077  32116  32155  32194  32233  32272  32311
                                                 32381  32423M 32426M 32441M 32447M 32460M
 VFLG2         1 00000009 FFFFFFDA     X   31205 31499  31642M 31647  31765M 31912M 31932M
 VFLG3         1 0000000A FFFFFFDA     X   31212 31508M 31550  31678  31680M 31681M 31681  32350  32454M
 VF1AJCL       1 00000004 FFFFFFDA A   U   31201 32231
 VF1AVAIL      1 00000040 FFFFFFDA A   U   31197 31762  31901  31903  32075  32420  32423  32460
 VF1CLR        1 00000008 FFFFFFDA A   U   31200 31505  31626  31693  31730  32192  32381  32441  32444  32460
 VF1MNTD       1 00000002 FFFFFFDA A   U   31202 31505  31801  32270
 VF1ON         1 00000001 FFFFFFDA A   U   31203 31716  31720  31899  31962  31974  32309
 VF1PDA        1 00000010 FFFFFFDA A   U   31199 31707  31714  31852  32153  32460
 VF1PRES       1 00000080 FFFFFFDA A   U   31196 31651  32036  32426  32429
 VF1PRIV       1 00000020 FFFFFFDA A   U   31198 31427  31454  32114  32447  32448  32451
 VF2ADACT      1 00000010 FFFFFFDA A   U   31210 31499  31640  31647
1DIR      (DIR2025) (12:41) (15MAR04) Ordinary Symbol and Literal Cross Reference                                           Page  125
 VF2ALLO       1 00000080 FFFFFFDA A   U   31207 31910
 VF2DALLO      1 00000040 FFFFFFDA A   U   31208 31765
 VF2MOUNT      1 00000008 FFFFFFDA A   U   31211 31930
 VF3SHOW       1 00000080 FFFFFFDA A   U   31214 31508  32348  32454  32457
 VHVSLO        2 0000458A 00000001     I   31513 31472B
 VHVSLOT       4 00004572 00000001     I   31504 31500B
 VHVTYP        4 00004614 00000001     I   31656 31654B
 VISOFF        4 000046C6 00000001     I   31801 31715B 31753B 31757B
 VNAME         6 00000002 FFFFFFDA     C   31192 31346M 31353  31375  31396M 31497  31507M 31507  31755  31820  31821
                                                 31905  32008  32015  32390M 32489  32496  32708
 VNOSLOT       4 000049BC 00000001     I   32611 31496B
 VNOTFND       2 00004526 00000001     I   31448 31374B
 VOFPDN        4 0000470A 00000001     I   31877 31847B
 VOLDSECT      1 00000000 FFFFFFDA     J   31190 31243  31255  31323U 31331M 31331  31371U 31373  31394U 31415U 31440U
                                                 31493U 31495  31504M 31507  31508M 31514  31521  31550  31557  31612
                                                 31649  31653  31655  31662  31668  31675  31681  31682  31821  31897
                                                 31901  31913  32389M 32389  32408U
 VOLDSSZ       1 00000048 FFFFFFDA A   U   31255 31266
 VOLENTSZ      1 00000044 FFFFFFDA A   U   31243 31330  31377  31501  32388
 VOLFRTRK      4 00000008 FFFFFFDE     F   10057 10060  10060
 VOLMVC        6 00004518 00000001     I   31396 31352X
 VOLNFND       4 000049A6 00000001     I   32591 31476B
 VOLOPNS       2 00000010 FFFFFFDA     H   31220 31227  31227
 VOLOWNF1      1 00000030 FFFFFFDA     X   31238 31242  31242
 VOLUCBAD      4 00000024 FFFFFFDA     A   31231 31756
 VOLUSECT      2 00000028 FFFFFFDA     H   31232 31721  31747M 31975  31978M
 VOLWRITS      4 00000018 FFFFFFDA     F   31222 31447M 31471
 VONLIN        4 0000472A 00000001     I   31897 31683B
 VRF2MNT       1 00000008 FFFFFFDA A   U   31251 31913  32414
 VRF2OFF       1 00000040 FFFFFFDA A   U   31249 31473  31649  31682  32416
 VRF2ON        1 00000080 FFFFFFDA A   U   31248 31475  31897  32411  32414
 VRF2SLOT      1 00000020 FFFFFFDA A   U   31250 31504  31612
 VSPRFND       4 00004552 00000001     I   31495 31502B
 VSPRNXT       4 0000456A 00000001     I   31501 31498B
 VTOCAREA      8 00000720 FFFFFFE9     D    6995  6614
 VTYPE         2 00000000 FFFFFFDA     C   31191 31506M 31653  31653  31655M 31655  32391M 32432M 32435M 32438M
 WAR           8 00000008 00000001 A   #    1049 10090M 10211  10314M 11607  11911M 12110  12135M 12292  12317M 12474
                                                 12499M 12698  12723M 12768  12793M 12845  12870M 12915  12940M 12985
                                                 13010M 13055  13080M 13126  13151M 13196  13221M 13266  13383M 13647
                                                 13658  13717M 13840  13882M 14257  14435M 15664  15680  15741M 16686
                                                 16702  16763M 16946  17010M 17466  17506M 18823  18926M 20120  20211M
                                                 21524  21812M 21977  22002M 22188  22213M 22444  22469M 22700  22725M
                                                 22770  22795M 22840  22865M 22917  22942M 22994  23019M 23064  23089M
                                                 23134  23215M 23438  23449  23508M 23631  23673M 24048  24108M 24450
                                                 24502M 25060  25125M 25588  25648M 25813  25909M 26655  26957M 26999
                                                 27024M 27067  27092M 27135  27160M 27391  27416M 27642  27667M 27893
                                                 27918M 27977  28002M 28047  28072M 28118  28143M 28202  28227M 28272
                                                 28297M 28356  28381M 28426  28623M 28849  28867  28926M 29059  29097M
                                                 29274  29316M 29686  29752M 31141
 WAR14         4 00000134 FFFFFFE9     F    6376  6377
 WGSCRTCH      1 00000000 0000001F     T   14288 14288  24072  29712
 WGSHOCAT      1 00000000 00000024     T   21556 21556
 WGSHODIR      1 00000000 0000002A     T   28474 28474
 WGSHODSN      1 00000000 00000016     T   13320 13320
 WGSTRKS       1 00000000 00000008     T   10280 10280
 WTOSG         1 00000000 00000000 A   T    2095  2095
 WYLDIR        1 00000000 00000001     J     990   992   1018   1031   1044   1057   1069   1082   1095   1108   1121
                                                  1134   1147   2379   2463   6203   6315   9944   9966   9993  10043
                                                 10068
1DIR      (DIR2025) (12:41) (15MAR04) Ordinary Symbol and Literal Cross Reference                                           Page  126
 YESRTN        1 00000000 0000001E     T   14287 14287  24071  29711
 =A(CATPRT)
               4 0000234C 00000001     A   21543 20299
 =A(CATTAB)
               4 0000320C 00000001     A   25831 25691
 =A(CATTYPE)
               4 00003020 00000001     A   25089 25035
 =A(CTWRITE)
               4 0000104C 00000001     A   14290 14205
 =A(CTWRITE)
               4 00001F7C 00000001     A   20148 19265  19993
 =A(CTWRITE)
               4 00002D8C 00000001     A   24074 23996
 =A(CTWRITE)
               4 00003180 00000001     A   25614 25440
 =A(CTWRITE)
               4 00004064 00000001     A   29714 29627
 =A(CTWRITE)
               4 00004458 00000001     A   31163 29898  30019  30112  30277  30391  30704  30856  30970
 =A(DSNCHK)
               4 00001BFC 00000001     A   18850 17039
 =A(DSNDVDES-DSNCATTP)
               4 00003018 00000001     A   25087 24965
 =A(DSNERRCD-DSNCATTP)
               4 00001F64 00000001     A   20142 19056  19784
 =A(DSONPRT)
               4 00000BC4 00000001     A   13304 10393
 =A(DSPCAT)
               4 0000238C 00000001     A   21559 21294  21502
 =A(DSPCATEX)
               4 00003178 00000001     A   25612 25369
 =A(DSPCATIN)
               4 00003174 00000001     A   25611 25324
 =A(DSPDIR)
               4 00003BD8 00000001     A   28480 26632
 =A(DSPDSINN)
               4 00001F68 00000001     A   20143 19127  19855
 =A(DSPDSLIN)
               4 00001F74 00000001     A   20146 19195  19923
 =A(DSPDSN)
               4 00000C18 00000001     A   13325 11584
 =A(DSPDSNIN)
               4 00001F6C 00000001     A   20144 19146  19874
 =A(L'CTMSG)
               4 00002384 00000001     A   21557 21213  21225
 =A(L'DSNDVDES)
               4 0000301C 00000001     A   25088 24968  24980
 =A(L'SHCTLIKE)
               4 00002A78 00000001     A   23154 21911  21923  22087  22099
 =A(L'SHCTLOWB)
               4 00002A80 00000001     A   23156 22250  22262  22370  22382
 =A(L'SHCTUPB)
               4 00002A88 00000001     A   23158 22506  22518  22626  22638
 =A(L'SHDRLIKE)
               4 00003BE0 00000001     A   28482 27197  27209  27317  27329
 =A(L'SHDRLOWB)
               4 00003BEC 00000001     A   28485 27448  27460  27568  27580
 =A(L'SHDRUPB)
               4 00003BF0 00000001     A   28486 27699  27711  27819  27831
1DIR      (DIR2025) (12:41) (15MAR04) Ordinary Symbol and Literal Cross Reference                                           Page  127
 =A(L'SHDSLIKE)
               4 00000C20 00000001     A   13327 11996  12008  12584  12596
 =A(L'SHDSLOWB)
               4 00000C28 00000001     A   13329 12226  12238
 =A(L'SHDSUPB)
               4 00000C2C 00000001     A   13330 12408  12420
 =A(MBRONPRT)
               4 00003B74 00000001     A   28461 26002
 =A(NEXTCTLN)
               4 00003168 00000001     A   25608 25175  25555
 =A(NEXTDSLN)
               4 00001F60 00000001     A   20141 18993  19341  19412  20081
 =A(NEXTLINE)
               4 0000445C 00000001     A   31164 29970  30042  30065  30238  30321  30344  30518  30541  30817  30900
                                                 30923
 =A(RLSCTPGS)
               4 00003188 00000001     A   25616 25576
 =A(RLSDSPGS)
               4 00001F84 00000001     A   20150 19497  19552  19684  20102
 =A(RLSPAGES)
               4 00004464 00000001     A   31166 31121
 =A(SCRCAT)
               4 00003184 00000001     A   25615 25519
 =A(SCRDSN)
               4 00001F80 00000001     A   20149 19314  20042
 =A(SCRMBR)
               4 00004460 00000001     A   31165 30152  30431  30744  31010
 =A(SEGFILE)
               4 00001C10 00000001     A   18855 17621
 =A(SEGFILE)
               4 00002FFC 00000001     A   25080 24651
 =A(STRKPRT)
               4 00000140 00000001     A   10277 10133
 =A(1)         4 00000BEC 00000001     A   13314 11000  12182  12364
 =A(1)         4 00000E9C 00000001     A   13685 13552  13595
 =A(1)         4 00001034 00000001     A   14284 13779
 =A(1)         4 00001364 00000001     A   15701 14624
 =A(1)         4 000015C4 00000001     A   16723 15930
 =A(1)         4 00001C1C 00000001     A   18858 17815  17974
 =A(1)         4 00002368 00000001     A   21550 20723  20731  21191
 =A(1)         4 00002A84 00000001     A   23157 22319  22575
 =A(1)         4 00002BE4 00000001     A   23476 23384  23388
 =A(1)         4 00002D74 00000001     A   24068 23570
 =A(1)         4 00003010 00000001     A   25085 24854
 =A(1)         4 00003BE4 00000001     A   28483 27266  27517  27768
 =A(1)         4 00003E1C 00000001     A   28894 28795  28799
 =A(1)         4 00004044 00000001     A   29706 28991  29417  29461  29466
 =A(11)        4 00001C04 00000001     A   18852 17145  17300
 =A(3)         4 00003BA0 00000001     A   28466 26169
 =A(4)         4 00000BF0 00000001     A   13315 11084  11397
 =A(4)         4 0000236C 00000001     A   21551 20802  21109
 =A(4)         4 00003BC8 00000001     A   28476 26533
 =A(5)         4 00000BF8 00000001     A   13317 11131
 =A(5)         4 00002374 00000001     A   21553 20849
 =A(8)         4 00000C08 00000001     A   13321 11419
 =A(8)         4 00001BF8 00000001     A   18849 16852
 =A(8)         4 00002398 00000001     A   21562 21380
 =A(8)         4 00003BCC 00000001     A   28477 26555
 =AL2(L'VNAME)
1DIR      (DIR2025) (12:41) (15MAR04) Ordinary Symbol and Literal Cross Reference                                           Page  128
               2 00004B0C 00000001     R   32708 31344
 =AL4(6)       4 00000C10 00000001     R   13323 11502
 =C'  LA:  '
               7 00001C48 00000001     C   18871 18555  18696
 =C' volumes'
               8 00002FF0 00000001     C   25078 24904
 =C' EXTENTS'
               8 00001BF0 00000001     C   18848 18024
 =C' OF '      4 00001C24 00000001     C   18860 17883
 =C' TRACKS'
               7 00001C3A 00000001     C   18867 17927
 =C' Unit '
               6 00003024 00000001     C   25090 24950
 =C'(Migrated)'
              10 00001C2A 00000001     C   18862 17653
 =C'(Use "SHOW DIRECTORY ON host" '
              30 00000C48 00000001     C   13333 10700
 =C'(Use "SHOW DIRECTORY ON volume" '
              32 00000B98 00000001     C   13301 10607
 =C'$'         1 00001C39 00000001     C   18866 17254  17323
 =C'* '        2 00002A8E 00000001     C   23160 21880
 =C'--'        2 00001C34 00000001     C   18863 17742  18097  18474
 =C'-'         1 00003210 00000001     C   25832 25677
 =C'/'         1 00001372 00000001     C   15705 14988  15128
 =C'/'         1 00001C42 00000001     C   18869 18221  18282  18379  18648  18744
 =C', '        2 00001C36 00000001     C   18864 17984
 =C', file '
               7 0000302D 00000001     C   25092 24764
 =C','         1 00001C41 00000001     C   18868 18159
 =C','         1 00003034 00000001     C   25093 24864
 =C': volume not valid.'
              19 00000CDD 00000001     C   13337 10589  10682
 =C''''        1 00001C38 00000001     C   18865 17114  17404
 =C'"FROM","EXCLUDE","THROUGH", and "TO" conflict with "ONLY" option"'
              65 00000C66 00000001     C   13334 10469
 =C'conflicts with dump command or collect options.'
              47 00000CAE 00000001     C   13336 10528
 =C'conflicts with dump command or collect options.'
              47 000023F3 00000001     C   21570 20371
 =C'conflicts with dump command or collect options.'
              47 00003C55 00000001     C   28491 26075
 =C'conflicts with TABLE option.'
              28 00003B84 00000001     C   28465 26135
 =C'for network directory.)'
              23 00000CF0 00000001     C   13338 10718
 =C'for Samson directory.)'
              22 00000C32 00000001     C   13332 10625
 =C'not currently allocated by WYLBUR'
              33 00004BAE 00000001     C   32723 32513
 =C'on '       3 0000302A 00000001     C   25091 24699
 =C'Access '
               7 00004B7B 00000001     C   32718 32088
 =C'Allocated via JCL '
              18 00004B1A 00000001     C   32711 32244
 =C'Busy'      4 00004B08 00000001     C   32707 32571
 =C'Clear '
               6 00004B14 00000001     C   32710 32205
 =C'CR:  '
               5 00001C43 00000001     C   18870 18492
1DIR      (DIR2025) (12:41) (15MAR04) Ordinary Symbol and Literal Cross Reference                                           Page  129
 =C'Dataset information not on volume'
              33 00001FA8 00000001     C   20154 19535
 =C'Directory of '
              13 0000446A 00000001     C   31168 29806
 =C'Inconsistent options specified.'
              31 00004B3E 00000001     C   32713 31598
 =C'Member     Creation Date  Creator   Title'
              41 00004477 00000001     C   31169 29950
 =C'Missing dataset name.'
              21 00000D39 00000001     C   13341 12089  12677
 =C'Missing dataset name.'
              21 00002ABF 00000001     C   23163 22167
 =C'Mounted '
               8 00004AD8 00000001     C   32699 32283
 =C'No data sets found in the catalog.'
              34 000023CA 00000001     C   21568 21476
 =C'No room for volume'
              18 00004B2C 00000001     C   32712 32611
 =C'NOTYOURS'
               8 00001028 00000001     C   14282 14113
 =C'NOTYOURS'
               8 00002D68 00000001     C   24066 23904
 =C'NOTYOURS'
               8 00004038 00000001     C   29704 29535
 =C'Offline'
               7 00004B64 00000001     C   32715 31877
 =C'Online '
               7 00004BA2 00000001     C   32721 32322
 =C'Pending deallocation '
              21 00004B8D 00000001     C   32720 32166
 =C'Pending'
               7 00004B5D 00000001     C   32714 31859
 =C'Please use LIKE instead of FOR in the future.'
              45 00002A92 00000001     C   23162 21844
 =C'Privileged '
              11 00004B82 00000001     C   32719 32127
 =C'Resident '
               9 00004B72 00000001     C   32717 32049
 =C'Scratch'
               7 00001056 00000001     C   14293 13959
 =C'Scratch'
               7 00002D96 00000001     C   24077 23750
 =C'Scratch'
               7 00004070 00000001     C   29718 29372
 =C'Show '
               5 00004BA9 00000001     C   32722 32361
 =C'SCRATCH'
               7 00000CA7 00000001     C   13335 10510
 =C'SCRATCH'
               7 000023EC 00000001     C   21569 20353
 =C'SCRATCH'
               7 00003C4E 00000001     C   28490 26057  26117
 =C'SET option ignored for SHOW DIRECTORY.'
              38 00003BF6 00000001     C   28488 26308  26421
 =C'SHOW CAT not supported for network files.'
              41 00002422 00000001     C   21571 20433
 =C'SHOW CAT not supported for Samson.'
              34 000023A6 00000001     C   21566 20404
 =C'SYS'       3 00000D07 00000001     C   13339 11144
1DIR      (DIR2025) (12:41) (15MAR04) Ordinary Symbol and Literal Cross Reference                                           Page  130
 =C'SYS'       3 0000244B 00000001     C   21572 20862
 =C'Too many directory items. Partial listing follows.'
              50 00003C1C 00000001     C   28489 26589
 =C'Too many dsname items. Partial listing follows.'
              47 00000D0A 00000001     C   13340 11453
 =C'Too many dsname items. Partial listing follows.'
              47 0000244E 00000001     C   21573 21421
 =C'Unknown OBTAIN error, RC ='
              26 00001F8E 00000001     C   20153 19575
 =C'Volume '
               7 00004B6B 00000001     C   32716 31984
 =C'Volume must be specified for SHOW TRACKS.'
              41 00000152 00000001     C   10282 10168
 =C'Volume not currently available to WYLBUR'
              40 00001F30 00000001     C   20138 19480
 =C'Volume not found'
              16 00004AE0 00000001     C   32700 32591
 =C'Volume not online'
              17 00004BCF 00000001     C   32724 32533
 =C'Volume'
               6 00004B0E 00000001     C   32709 31806  32465  32553
 =C'WYL.'      4 00000BF4 00000001     C   13316 11097
 =C'WYL.'      4 00001C08 00000001     C   18853 17158  17313
 =C'WYL.'      4 00002370 00000001     C   21552 20815
 =CL3'LIB'
               3 00003C84 00000001     C   28492 26168
 =CL8'MISSDSN'
               8 00000BB8 00000001     C   13302 12086  12674
 =CL8'MISSDSN'
               8 00002A68 00000001     C   23151 22164
 =CL8'ONLYCONF'
               8 00000B90 00000001     C   13300 10466
 =D'0'         8 00004AD0 00000001     D   32698 31653  31756
 =F'-4'        4 00001050 00000001     F   14291 14230
 =F'-4'        4 00002D90 00000001     F   24075 24021
 =F'-4'        4 00004068 00000001     F   29715 29652
 =F'2'         4 00000C00 00000001     F   13319 11329
 =F'2'         4 00000E94 00000001     F   13683 13469
 =F'2'         4 00001F5C 00000001     F   20140 18987
 =F'2'         4 0000237C 00000001     F   21555 21048
 =F'2'         4 00002BDC 00000001     F   23474 23301
 =F'2'         4 00003164 00000001     F   25607 25170
 =F'2'         4 00003E14 00000001     F   28892 28712
 =F'2'         4 0000444C 00000001     F   31160 29800
 =H'10'        2 00003D2C 00000001     H   28586 28529
 =H'11'        2 00001C28 00000001     H   18861 17224
 =V(BTDZEROS)
               4 00001368 00000001     V   15702 14632
 =V(BTDZEROS)
               4 000015C8 00000001     V   16724 15938
 =V(DOFNAME)
               4 00003BDC 00000001     V   28481 27119
 =V(DOPEN)
               4 00004AF8 00000001     V   32703 31778  31949
 =V(DTB)       4 00001360 00000001     V   15700 14584  14606
 =V(DTB)       4 000015C0 00000001     V   16722 15890  15912
 =V(DTB)       4 00001C18 00000001     V   18857 17775  17797  17839  17960  18254  18315  18358
 =V(DTB)       4 00002E88 00000001     V   24470 24245  24292
 =V(DTB)       4 00003008 00000001     V   25083 24797  24840
1DIR      (DIR2025) (12:41) (15MAR04) Ordinary Symbol and Literal Cross Reference                                           Page  131
 =V(FNAMEFIN)
               4 00000BD4 00000001     V   13308 10538
 =V(FNAMEFIN)
               4 0000235C 00000001     V   21547 20381
 =V(FNAMEFIN)
               4 00003BA8 00000001     V   28468 26236
 =V(LRTRIM)
               4 00003BA4 00000001     V   28467 26222
 =V(MKFFINFO)
               4 00000148 00000001     V   10279 10178
 =V(MKFFINFO)
               4 00000BC0 00000001     V   13303 10369
 =V(MKFFINFO)
               4 00002348 00000001     V   21542 20268
 =V(MKFFINFO)
               4 00003B70 00000001     V   28460 25970
 =V(NETDIR)
               4 00003BB4 00000001     V   28471 26455
 =V(NOMORPG)
               4 00000C0C 00000001     V   13322 11443
 =V(NOMORPG)
               4 0000239C 00000001     V   21563 21404
 =V(NOMORPG)
               4 00003BD0 00000001     V   28478 26579
 =V(NRESOLVE)
               4 00000BE4 00000001     V   13312 10804  10911  11254  11326
 =V(NRESOLVE)
               4 00002360 00000001     V   21548 20519  20626  20972  21045
 =V(NRESOLVE)
               4 00003BB8 00000001     V   28472 26483
 =V(NSCAN)
               4 00000144 00000001     V   10278 10137
 =V(NSCAN)
               4 00000BC8 00000001     V   13305 10397
 =V(NSCAN)
               4 00002350 00000001     V   21544 20303
 =V(NSCAN)
               4 00003B78 00000001     V   28462 26006
 =V(NSCANSTR)
               4 00000C1C 00000001     V   13326 11954  12542
 =V(NSCANSTR)
               4 00002A7C 00000001     V   23155 22045
 =V(NTGDOPN)
               4 00004AFC 00000001     V   32704 31794  31967
 =V(PGETA)
               4 00000E90 00000001     V   13682 13428  13485
 =V(PGETA)
               4 00001038 00000001     V   14285 13809
 =V(PGETA)
               4 00001F58 00000001     V   20139 18978
 =V(PGETA)
               4 00002BD8 00000001     V   23473 23260  23317
 =V(PGETA)
               4 00002D78 00000001     V   24069 23600
 =V(PGETA)
               4 00003160 00000001     V   25606 25161
 =V(PGETA)
               4 00003D28 00000001     V   28585 28572
 =V(PGETA)
1DIR      (DIR2025) (12:41) (15MAR04) Ordinary Symbol and Literal Cross Reference                                           Page  132
               4 00003E10 00000001     V   28891 28671  28728
 =V(PGETA)
               4 00004048 00000001     V   29707 29021  29197  29224
 =V(PGETA)
               4 00004448 00000001     V   31159 29791
 =V(PGETNEW)
               4 00003D24 00000001     V   28584 28533
 =V(PJUNKA)
               4 00000E98 00000001     V   13684 13474  13615
 =V(PJUNKA)
               4 00001030 00000001     V   14283 13770  13815
 =V(PJUNKA)
               4 00002BE0 00000001     V   23475 23306  23408
 =V(PJUNKA)
               4 00002D70 00000001     V   24067 23561  23606
 =V(PJUNKA)
               4 00003E18 00000001     V   28893 28717  28819
 =V(PJUNKA)
               4 00004040 00000001     V   29705 28982  29027
 =V(PMARKA)
               4 00003D20 00000001     V   28583 28527
 =V(PNUMA)
               4 0000404C 00000001     V   29708 29147
 =V(RETFMEM)
               4 00003BE8 00000001     V   28484 27301  27552  27803
 =V(RETFNAME)
               4 00000C24 00000001     V   13328 12217  12399
 =V(RETFNAME)
               4 00002378 00000001     V   21554 20978
 =V(RETFNAME)
               4 00002A74 00000001     V   23153 21902  22354  22610
 =V(RETFNAME)
               4 00003BBC 00000001     V   28473 26489
 =V(RETFNGDG)
               4 00000BFC 00000001     V   13318 11260
 =V(RTRIM)
               4 0000103C 00000001     V   14286 13945
 =V(RTRIM)
               4 00001C0C 00000001     V   18854 17561  18129  18191
 =V(RTRIM)
               4 00002D7C 00000001     V   24070 23736
 =V(RTRIM)
               4 00002FF8 00000001     V   25079 24549
 =V(RTRIM)
               4 00004054 00000001     V   29710 29366
 =V(SAMDIR)
               4 00003BB0 00000001     V   28470 26342
 =V(SCAN)      4 00004AF0 00000001     V   32701 31340  31468
 =V(SCANCHK)
               4 00000BCC 00000001     V   13306 10411
 =V(SCANCHK)
               4 00002354 00000001     V   21545 20317
 =V(SCANCHK)
               4 00003B7C 00000001     V   28463 26020
 =V(SEG)       4 00000BE0 00000001     V   13311 10619  10712  11465
 =V(SEG)       4 0000136C 00000001     V   15703 14655  14701  14734  14983  15000  15123  15140
 =V(SEG)       4 000015CC 00000001     V   16725 15961  16007  16040
 =V(SEG)       4 00001C00 00000001     V   18851 17126  17266  17335  17369  17416  17454  17665  17895  17939  17996
                                                 18036  18075  18153  18215  18233  18294  18391  18452  18504  18549
1DIR      (DIR2025) (12:41) (15MAR04) Ordinary Symbol and Literal Cross Reference                                           Page  133
                                                 18567  18597  18642  18660  18690  18708  18738  18756  18786
 =V(SEG)       4 00001F70 00000001     V   20145 19174  19902
 =V(SEG)       4 000023A0 00000001     V   21564 21488
 =V(SEG)       4 00002E84 00000001     V   24469 24207  24363  24399
 =V(SEG)       4 00003000 00000001     V   25081 24711  24776  24916  24962
 =V(SEG)       4 00003170 00000001     V   25610 25302
 =V(SEG)       4 00003BD4 00000001     V   28479 26601
 =V(SEG)       4 00004450 00000001     V   31161 29818  30584  30655
 =V(SEG)       4 00004AF4 00000001     V   32702 31610  31889  31996  32061  32100  32139  32178  32217  32256  32295
                                                 32334  32373  32583  32623
 =V(SEGB)      4 00000BD0 00000001     V   13307 10522
 =V(SEGB)      4 0000135C 00000001     V   15699 14534  14563  14763  14792  14821  14850  14879  14908  14937  15029
                                                 15073  15169  15213  15246  15275  15304  15333  15362  15391  15420
                                                 15449  15499  15543  15593  15637
 =V(SEGB)      4 000015BC 00000001     V   16721 15840  15869  16069  16098  16127  16156  16185  16214  16243  16289
                                                 16333  16383  16427  16460  16489  16518  16547  16576  16605  16634
                                                 16663
 =V(SEGB)      4 00001C14 00000001     V   18856 17754  18109  18171  18486
 =V(SEGB)      4 00001F88 00000001     V   20151 19587  19617
 =V(SEGB)      4 00002358 00000001     V   21546 20365
 =V(SEGB)      4 00002E80 00000001     V   24468 24177  24429
 =V(SEGB)      4 00003014 00000001     V   25086 24876
 =V(SEGB)      4 0000316C 00000001     V   25609 25272
 =V(SEGB)      4 00003208 00000001     V   25830 25689  25801
 =V(SEGB)      4 00003B80 00000001     V   28464 26069  26129
 =V(SEGB)      4 00004B00 00000001     V   32705 31818  31844  31871  32026  32477  32507  32545  32565  32603
 =V(SEGCLR)
               4 00002388 00000001     V   21558 21285
 =V(SEGCR)
               4 00000BDC 00000001     V   13310 10601  10694  11548
 =V(SEGCR)
               4 00001048 00000001     V   14289 14197
 =V(SEGCR)
               4 00001F78 00000001     V   20147 19257  19492  19547  19675  19985
 =V(SEGCR)
               4 00002394 00000001     V   21561 21348  21433
 =V(SEGCR)
               4 00002A70 00000001     V   23152 21856
 =V(SEGCR)
               4 00002D88 00000001     V   24073 23988
 =V(SEGCR)
               4 0000317C 00000001     V   25613 25432
 =V(SEGCR)
               4 00003BAC 00000001     V   28469 26320  26433
 =V(SEGCR)
               4 00004060 00000001     V   29713 29619
 =V(SEGCR)
               4 00004454 00000001     V   31162 29861  29894  30015  30108  30273  30387  30696  30852  30966  31109
 =V(SEGDC)
               4 00001C20 00000001     V   18859 17877  17921  18018  18276  18337  18413
 =V(SEGDC)
               4 00002E8C 00000001     V   24471 24271  24318
 =V(SEGDC)
               4 0000300C 00000001     V   25084 24819  24898
 =V(SEGINIT)
               4 00001358 00000001     V   15698 14491
 =V(SEGINIT)
               4 000015B8 00000001     V   16720 15797
 =V(SEGT)      4 00000BD8 00000001     V   13309 10583  10676
1DIR      (DIR2025) (12:41) (15MAR04) Ordinary Symbol and Literal Cross Reference                                           Page  134
 =V(SEGT)      4 00003004 00000001     V   25082 24741  25010
 =V(SEGWR)
               4 00002390 00000001     V   21560 21319
 =V(SEGWR)
               4 00004050 00000001     V   29709 29175
 =V(SEGWR)
               4 00004B04 00000001     V   32706 32525
 =V(SETPFXNS)
               4 00003BC4 00000001     V   28475 26516
 =V(TOUPPER)
               4 00000BE8 00000001     V   13313 10980
 =V(TOUPPER)
               4 00002364 00000001     V   21549 20695
 =V(UPCASE)
               4 00000C14 00000001     V   13324 11524
 =V(WGSCRTCH)
               4 00001044 00000001     V   14288 14089
 =V(WGSCRTCH)
               4 00002D84 00000001     V   24072 23880
 =V(WGSCRTCH)
               4 0000405C 00000001     V   29712 29511
 =V(WGSHOCAT)
               4 00002380 00000001     V   21556 21096
 =V(WGSHODIR)
               4 00003BC0 00000001     V   28474 26495
 =V(WGSHODSN)
               4 00000C04 00000001     V   13320 11377
 =V(WGSTRKS)
               4 0000014C 00000001     V   10280 10197
 =V(YESRTN)
               4 00001040 00000001     V   14287 13963
 =V(YESRTN)
               4 00002D80 00000001     V   24071 23754
 =V(YESRTN)
               4 00004058 00000001     V   29711 29376
 =Y((L'CTERRWK+3)/4*4)
               2 000023C8 00000001     Y   21567 21359
 =Y((R1+1-(R0)+16*((R0)/(R1+1))/((R0)/(R1+1)))*4)
               2 00002A8C 00000001     Y   23159 21859
 =Y((R1+1-(R15)+16*((R15)/(R1+1))/((R15)/(R1+1)))*4)
               2 00004468 00000001     Y   31167 30126  30166  30178  30405  30445  30457  30718  30758  30770  30984
                                                 31024  31036
 =Y((R3+1-(R2)+16*((R2)/(R3+1))/((R2)/(R3+1)))*4)
               2 00001054 00000001     Y   14292 14006
 =Y((R3+1-(R2)+16*((R2)/(R3+1))/((R2)/(R3+1)))*4)
               2 00002D94 00000001     Y   24076 23797
 =Y((R3+1-(R2)+16*((R2)/(R3+1))/((R2)/(R3+1)))*4)
               2 0000406E 00000001     Y   29717 29419
 =Y((12+3)/4*4)
               2 00000150 00000001     Y   10281 10143
 =Y((12+3)/4*4)
               2 00000C30 00000001     Y   13331 10403  11960  12548
 =Y((12+3)/4*4)
               2 000023A4 00000001     Y   21565 20309
 =Y((12+3)/4*4)
               2 00002A90 00000001     Y   23161 22051
 =Y((12+3)/4*4)
               2 00003BF4 00000001     Y   28487 26012
 =Y((256+3)/4*4)
1DIR      (DIR2025) (12:41) (15MAR04) Ordinary Symbol and Literal Cross Reference                                           Page  135
               2 00001F8C 00000001     Y   20152 19177  19905
 =Y((8+3)/4*4)
               2 00001370 00000001     Y   15704 14658
 =Y((8+3)/4*4)
               2 000015D0 00000001     Y   16726 15964
 =Y(4)         2 0000406C 00000001     Y   29716 29189  29216

1DIR      (DIR2025) (12:41) (15MAR04) Macro and Copy Code Source Summary                                                    Page  136
- Con Source                                        Volume    Members                        HLASM R4.0  2004/03/15 12.41
0     PRIMARY INPUT                                           CSECT    DROP     END      EX       LTORG    POP
                                                              PRINT    PUSH     START    USING
   L1 WYL.GS.WYL.WYLBUR.MACLIB                      SYSB05    AINFO    ALLOPARM BASE     BOMB     CCWP     COLINFO
                                                              COMMENT  CONTROL  CP       CPLOCAL  CV       CVLOCAL
                                                              DIOWAHDR DOPEN    DSNINFO  DTB      ERROR    FAIL
                                                              FFINFO   GENTER   IOWA     JCB      KAPUT    LUVENTRY
                                                              LUVHDR   OSCAN    OSCKW    PFREE    PGET     PMARK    PNUM
                                                              RG       RSCHDR   RTNCODES SCAN     SCANCB   SCANCHK
                                                              SCANSTR  SCATBUF  SCCBADR  SCKW     SCPOP    SCPUSH
                                                              SCTOK    SCUPTOK  SDSNBUF  SEGINIT  SHCTARGS SHDRARGS
                                                              SHDSARGS TCCR     TCLEAR   TCR      TNUM     TSEG
                                                              TTYPE    TWRITE   VLTORG   VOLINFO  VOLUME   XENTER
                                                              XEXIT    XTRACE
   L2 WYL.GG.SYS.MACLIB                             SYSB05    $BC      $BFLKUP  $BV      $CCLKUP  $CRS     $CSS     $L
                                                              $LA      $LBLAD   $LEXP    $LOR     $REL     $RGLKUP
                                                              $USLKUP  ACALL    BEGIN    CEIL     CLEAR    COMPROC
                                                              CSECT    DATA     DECR     DEFCC    DEX      DROP     DTEX
                                                              ELSE     ELSEIF   END      EX       FLAG     GEN
                                                              HIBAL    IDENT    IF       INCR     LABEL    LC
                                                              LCALL    LOOP     LS       LT       LTORG    MOVE     PEND
                                                              POP      PRETURN  PRINT    PROC     PUSH     QLTORG
                                                              RECORD   REG      REGS     SET      SETMSG   START
                                                              UNTIL    USING    VCALL    WHILE    WITH     XPROC
   L3 SYS3.IS.MACLIB                                SYSB05    DVTAREA  KWR      SEG      SEGCB    SEGCLR   SEGCR
                                                              SEGDC    SEGLD    SEGWR    SIB      SYSDEFN  XPOP
                                                              XPUSH
   L5 SYS1.MACLIB                                   MVSBR9    CAMLST   DCB      ENQ      IEFJFCBN IHBERMAC IHBRDWRS
                                                              IHB01    OPEN     RACHECK  RACINIT  READ
   L6 SYS1.MODGEN                                   MVSBR9    ICHEACTN ICHEIN   ICHEINTY ICHEOPT  IECSDSL1

1DIR      (DIR2025) (12:41) (15MAR04) Dsect Cross Reference                                                                 Page  137
-Dsect     Length      Id       Defn                                                         HLASM R4.0  2004/03/15 12.41
0$$$@R0   00000000  FFFFFFFE     705
 $$$@R1   00000000  FFFFFFFD     718
 $$$@R10  00000000  FFFFFFF4     835
 $$$@R11  00000000  FFFFFFF3     848
 $$$@R12  00000000  FFFFFFF2     861
 $$$@R13  00000000  FFFFFFF1     874
 $$$@R14  00000000  FFFFFFF0     887
 $$$@R15  00000000  FFFFFFEF     900
 $$$@R2   00000000  FFFFFFFC     731
 $$$@R3   00000000  FFFFFFFB     744
 $$$@R4   00000000  FFFFFFFA     757
 $$$@R5   00000000  FFFFFFF9     770
 $$$@R6   00000000  FFFFFFF8     783
 $$$@R7   00000000  FFFFFFF7     796
 $$$@R8   00000000  FFFFFFF6     809
 $$$@R9   00000000  FFFFFFF5     822
 $$$RCP   00001000  FFFFFFEC    2468
 $$$RCTERRWK
          000000F7  FFFFFFDB   20175
 $$$RCV   00000FB0  FFFFFFEE    1193
 $$$RDEV  0000000C  FFFFFFEB    4682
 $$$RDSNINFO
          000000EB  FFFFFFE3    9768
 $$$RDSNINWA
          0000003C  FFFFFFDD   14314
 $$$RDSPDSWA
          000001EB  FFFFFFDC   18893
 $$$RFFINFO
          000003A0  FFFFFFE6    9388
 $$$RJCB  000000D0  FFFFFFE8    8988
 $$$RLUVENTRY
          00000020  FFFFFFE0    9972
 $$$RLUVHDR
          00000008  FFFFFFE1    9950
 $$$RNSCNCB
          000000B0  FFFFFFED    2389
 $$$RSDSNBUF
          00000044  FFFFFFDF    9998
 $$$RSEGCB
          0000003C  FFFFFFE7    9267
 $$$RSHCTARGS
          0000032C  FFFFFFE2    9872
 $$$RSHDRARGS
          00000064  FFFFFFE5    9603
 $$$RSHDSARGS
          00000200  FFFFFFE4    9680
 $$$RTTYPE
          0000010C  FFFFFFEA    6213
 $$$RVOLINFO
          00000014  FFFFFFDE   10049
 HIBAL    00000000  FFFFFFFF     691
 IOWA     00008718  FFFFFFE9    6320
 VOLDSECT 00000048  FFFFFFDA   31190

1DIR      (DIR2025) (12:41) (15MAR04) Using Map                                                                             Page  138
-                                                                                            HLASM R4.0  2004/03/15 12.41
   Stmt  -----Location----- Action ----------------Using----------------- Reg Max    Last  Label and Using Text
           Count      Id           Type          Value    Range     Id        Disp   Stmt
0   922  00000000  FFFFFFFF USING  ORDINARY    00000000 00001000 FFFFFFEF  15 00A   30588  @R15,15
    926  00000000  FFFFFFFF USING  ORDINARY    00000000 00001000 FFFFFFF0  14 002    2184  @R14,14
    930  00000000  FFFFFFFF USING  ORDINARY    00000000 00001000 FFFFFFF1  13 000   28501  @R13,13
    934  00000000  FFFFFFFF USING  ORDINARY    00000000 00001000 FFFFFFF2  12 000          @R12,12
    938  00000000  FFFFFFFF USING  ORDINARY    00000000 00001000 FFFFFFF3  11 000          @R11,11
    942  00000000  FFFFFFFF USING  ORDINARY    00000000 00001000 FFFFFFF4  10 000          @R10,10
    946  00000000  FFFFFFFF USING  ORDINARY    00000000 00001000 FFFFFFF5   9 000   28730  @R9,9
    950  00000000  FFFFFFFF USING  ORDINARY    00000000 00001000 FFFFFFF6   8 000          @R8,8
    954  00000000  FFFFFFFF USING  ORDINARY    00000000 00001000 FFFFFFF7   7 000          @R7,7
    958  00000000  FFFFFFFF USING  ORDINARY    00000000 00001000 FFFFFFF8   6 000          @R6,6
    962  00000000  FFFFFFFF USING  ORDINARY    00000000 00001000 FFFFFFF9   5 000          @R5,5
    966  00000000  FFFFFFFF USING  ORDINARY    00000000 00001000 FFFFFFFA   4 000          @R4,4
    970  00000000  FFFFFFFF USING  ORDINARY    00000000 00001000 FFFFFFFB   3 078   29447  @R3,3
    974  00000000  FFFFFFFF USING  ORDINARY    00000000 00001000 FFFFFFFC   2 000          @R2,2
    978  00000000  FFFFFFFF USING  ORDINARY    00000000 00001000 FFFFFFFD   1 004   31396  @R1,1
    982  00000000  FFFFFFFF USING  ORDINARY    00000000 00001000 FFFFFFFE   0 000          @R0,0
    983  00000000  FFFFFFFF DROP                                            0              0
   1177  00000016  00000001 USING  ORDINARY    00000000 00001000 FFFFFFEC  11 F5C   32620  CP,CPR
   1186  00000016  00000001 USING  ORDINARY    00000000 00001000 FFFFFFEE  12 890   32625  CV,CVR
  10106  00000030  00000001 USING  ORDINARY    00000030 00001000 00000001   7 122   10197  $$$65B,7
  10188  000000A2  00000001 USING  ORDINARY    00000000 00001000 FFFFFFE6   5 218   11521  FFINFO,R5
  10207  000000BA  00000001 USING  ORDINARY    00000000 00001000 FFFFFFF7   7 000          @R7,7
  10330  00000196  00000001 USING  ORDINARY    00000196 00001000 00000001   7 BE2   11584  $$$69B,7
  10344  00000196  00000001 USING  ORDINARY    FFFFFFD8 00001000 FFFFFFE4   8 028   10348  SHDSARGS-(4+36),R8
  10356  0000019A  00000001 USING  ORDINARY    00000000 00001000 FFFFFFE4   6 190   13251  SHDSARGS,R6
  11598  000004E4  00000001 USING  ORDINARY    00000000 00001000 FFFFFFF6   8 000          @R8,8
  11603  000004E4  00000001 USING  ORDINARY    00000000 00001000 FFFFFFF7   7 000          @R7,7
  11927  000007DE  00000001 USING  ORDINARY    000007DE 00001000 00000001   7 5A0   12089  $$$126B,7
  12106  0000086E  00000001 USING  ORDINARY    00000000 00001000 FFFFFFF7   7 000          @R7,7
  12151  00000896  00000001 USING  ORDINARY    00000896 00001000 00000001   7 4EE   12263  $$$136B,7
  12288  000008E0  00000001 USING  ORDINARY    00000000 00001000 FFFFFFF7   7 000          @R7,7
  12333  00000908  00000001 USING  ORDINARY    00000908 00001000 00000001   7 482   12445  $$$145B,7
  12470  00000952  00000001 USING  ORDINARY    00000000 00001000 FFFFFFF7   7 000          @R7,7
  12515  0000097A  00000001 USING  ORDINARY    0000097A 00001000 00000001   7 416   12677  $$$154B,7
  12694  00000A0A  00000001 USING  ORDINARY    00000000 00001000 FFFFFFF7   7 000          @R7,7
  12739  00000A32  00000001 USING  ORDINARY    00000A32 00001000 00000001   7 000          $$$164B,7
  12764  00000A38  00000001 USING  ORDINARY    00000000 00001000 FFFFFFF7   7 000          @R7,7
  12809  00000A60  00000001 USING  ORDINARY    00000A60 00001000 00000001   7 000          $$$167B,7
  12841  00000A66  00000001 USING  ORDINARY    00000000 00001000 FFFFFFF7   7 000          @R7,7
  12886  00000A8E  00000001 USING  ORDINARY    00000A8E 00001000 00000001   7 000          $$$170B,7
  12911  00000A94  00000001 USING  ORDINARY    00000000 00001000 FFFFFFF7   7 000          @R7,7
  12956  00000ABC  00000001 USING  ORDINARY    00000ABC 00001000 00000001   7 000          $$$173B,7
  12981  00000AC2  00000001 USING  ORDINARY    00000000 00001000 FFFFFFF7   7 000          @R7,7
  13026  00000AEA  00000001 USING  ORDINARY    00000AEA 00001000 00000001   7 000          $$$176B,7
  13051  00000AF0  00000001 USING  ORDINARY    00000000 00001000 FFFFFFF7   7 000          @R7,7
  13096  00000B18  00000001 USING  ORDINARY    00000B18 00001000 00000001   7 000          $$$179B,7
  13122  00000B1E  00000001 USING  ORDINARY    00000000 00001000 FFFFFFF7   7 000          @R7,7
  13167  00000B46  00000001 USING  ORDINARY    00000B46 00001000 00000001   7 000          $$$182B,7
  13192  00000B4C  00000001 USING  ORDINARY    00000000 00001000 FFFFFFF7   7 000          @R7,7
  13237  00000B74  00000001 USING  ORDINARY    00000B74 00001000 00000001   7 000          $$$185B,7
  13262  00000B7A  00000001 USING  ORDINARY    00000000 00001000 FFFFFFF7   7 000          @R7,7
  13282  00000B88  00000001 USING  ORDINARY    00000000 00001000 FFFFFFF8   6 000          @R6,6
  13289  00000B88  00000001 USING  ORDINARY    00000000 00001000 FFFFFFF9   5 000          @R5,5
1DIR      (DIR2025) (12:41) (15MAR04) Using Map                                                                             Page  139
  13399  00000DB0  00000001 USING  ORDINARY    00000DB0 00001000 00000001   7 0F0   13627  $$$188B,7
  13416  00000DB2  00000001 USING  ORDINARY    00000000 00001000 FFFFFFE4   6 1FC   13596  SHDSARGS,R6
  13654  00000E82  00000001 USING  ORDINARY    00000000 00001000 FFFFFFF7   7 000          @R7,7
  13673  00000E90  00000001 USING  ORDINARY    00000000 00001000 FFFFFFF8   6 000          @R6,6
  13733  00000EC0  00000001 USING  ORDINARY    00000EC0 00001000 00000001   7 178   13821  $$$200B,7
  13750  00000EC2  00000001 USING  ORDINARY    00000000 00001000 FFFFFFE4   6 1F8   13801  SHDSARGS,R6
  13828  00000EFE  00000001 USING  ORDINARY    00000000 00001000 FFFFFFF8   6 000          @R6,6
  13836  00000EFE  00000001 USING  ORDINARY    00000000 00001000 FFFFFFF7   7 000          @R7,7
  13898  00000F26  00000001 USING  ORDINARY    00000F26 00001000 00000001   7 13E   14238  $$$206B,7
  13912  00000F26  00000001 USING  ORDINARY    FFFFFFD8 00001000 FFFFFFE6   8 028   14216  FFINFO-(4+36),R8
  13924  00000F28  00000001 USING  ORDINARY    00000000 00001000 FFFFFFE4   6 000   14125  SHDSARGS,R6
  13936  00000F2A  00000001 USING  ORDINARY    00000000 00001000 FFFFFFE3   4 002   13941  DSNINFO,R4
  13953  00000F38  00000001 USING  ORDINARY    00000000 00001000 FFFFFFFA   4 000          @R4,4
  13986  00000F6E  00000001 USING  ORDINARY    00000000 00001000 FFFFFFE6   5 218   14075  FFINFO,R5
  14213  00000FEA  00000001 USING  ORDINARY    00000000 00001000 FFFFFFF9   5 000          @R5,5
  14248  00001014  00000001 USING  ORDINARY    00000000 00001000 FFFFFFF6   8 000          @R8,8
  14253  00001014  00000001 USING  ORDINARY    00000000 00001000 FFFFFFF7   7 000          @R7,7
  14272  00001022  00000001 USING  ORDINARY    00000000 00001000 FFFFFFF8   6 001   16924  @R6,6
  14451  00001084  00000001 USING  ORDINARY    00001084 00001000 00000001   7 2EE   15637  $$$227B,7
  14465  00001084  00000001 USING  ORDINARY    FFFFFFD8 00001000 FFFFFFDD   8 048   15662  DSNINWA-(4+36),R8
  14502  00001090  00000001 USING  ORDINARY    00000000 00001000 FFFFFFE3   4 0C4   15575  DSNINFO,R4
  15649  0000133A  00000001 USING  ORDINARY    00000000 00001000 FFFFFFFA   4 000          @R4,4
  15671  00001346  00000001 USING  ORDINARY    00000000 00001000 FFFFFFF6   8 000          @R8,8
  15676  00001346  00000001 USING  ORDINARY    00000000 00001000 FFFFFFF7   7 000          @R7,7
  15757  0000138E  00000001 USING  ORDINARY    0000138E 00001000 00000001   7 242   16663  $$$240B,7
  15771  0000138E  00000001 USING  ORDINARY    FFFFFFD8 00001000 FFFFFFDD   8 048   16684  DSNINWA-(4+36),R8
  15808  0000139A  00000001 USING  ORDINARY    00000000 00001000 FFFFFFE3   4 0C4   16645  DSNINFO,R4
  16671  0000159C  00000001 USING  ORDINARY    00000000 00001000 FFFFFFFA   4 00B   17313  @R4,4
  16693  000015A8  00000001 USING  ORDINARY    00000000 00001000 FFFFFFF6   8 000          @R8,8
  16698  000015A8  00000001 USING  ORDINARY    00000000 00001000 FFFFFFF7   7 000          @R7,7
  16779  000015EC  00000001 USING  ORDINARY    000015EC 00001000 00000001   7 60C   16932  $$$249B,7
  16817  00001604  00000001 DROP                                            2              2
  16821  0000160A  00000001 USING  ORDINARY    00000000 00001000 FFFFFFFC   2 000          @R2,2
  16942  00001656  00000001 USING  ORDINARY    00000000 00001000 FFFFFFF7   7 000          @R7,7
  17026  0000177E  00000001 USING  ORDINARY    0000177E 00001000 00000001   7 4BB   17454  $$$259B,7
  17462  00001870  00000001 USING  ORDINARY    00000000 00001000 FFFFFFF7   7 000          @R7,7
  17522  00001898  00000001 USING  ORDINARY    00001898 00001000 00000001   7 3B8   18786  $$$278B,7
  17538  00001898  00000001 USING  ORDINARY    00000000 00001000 FFFFFFE4   6 001   18515  SHDSARGS,R6
  17549  00001898  00000001 USING  ORDINARY    00000000 00001000 FFFFFFE3   4 08F   18768  DSNINFO,R4
  17573  000018AA  00000001 USING  ORDINARY    00000000 00001000 FFFFFFE6   5 218   17606  FFINFO,R5
  17629  000018C6  00000001 USING  ORDINARY    00000000 00001000 FFFFFFF9   5 000          @R5,5
  18810  00001BDC  00000001 USING  ORDINARY    00000000 00001000 FFFFFFFA   4 000          @R4,4
  18819  00001BDC  00000001 USING  ORDINARY    00000000 00001000 FFFFFFF7   7 000          @R7,7
  18838  00001BEA  00000001 USING  ORDINARY    00000000 00001000 FFFFFFF8   6 000          @R6,6
  18942  00001C70  00000001 USING  ORDINARY    00001C70 00001000 00000001   7 35A   20102  $$$298B,7
  18956  00001C70  00000001 USING  ORDINARY    FFFFFFD8 00001000 FFFFFFDC   8 128   20078  DSPDSWA-(4+36),R8
  18968  00001C72  00000001 USING  ORDINARY    00000000 00001000 FFFFFFE4   6 1FC   20099  SHDSARGS,R6
  19021  00001CA0  00000001 USING  ORDINARY    00000000 00001000 FFFFFFE3   4 052   19599  DSNINFO,R4
  19715  00001E46  00000001 USING  ORDINARY    00000000 00001000 FFFFFFFA   4 000          @R4,4
  19750  00001E4E  00000001 USING  ORDINARY    00000000 00001000 FFFFFFE3   4 051   20038  DSNINFO,R4
  20089  00001F10  00000001 USING  ORDINARY    00000000 00001000 FFFFFFFA   4 000          @R4,4
  20111  00001F22  00000001 USING  ORDINARY    00000000 00001000 FFFFFFF6   8 000          @R8,8
  20116  00001F22  00000001 USING  ORDINARY    00000000 00001000 FFFFFFF7   7 000          @R7,7
  20165  00001FD0  00000001 USING  ORDINARY    00000000 00001000 FFFFFFF8   6 000          @R6,6
  20227  00001FEA  00000001 USING  ORDINARY    00001FEA 00001000 00000001   7 4C4   21502  $$$345B,7
  20241  00001FEA  00000001 USING  ORDINARY    FFFFFFD8 00001000 FFFFFFE2   8 028   20245  SHCTARGS-(4+36),R8
  20253  00001FEE  00000001 USING  ORDINARY    00000000 00001000 FFFFFFE2   6 300   23119  SHCTARGS,R6
  20278  00002010  00000001 USING  ORDINARY    00000000 00001000 FFFFFFE6   5 218   21076  FFINFO,R5
  21148  0000224C  00000001 USING  ORDINARY    00000000 00001000 FFFFFFDB   2 00C   21337  CTERRWK,R2
1DIR      (DIR2025) (12:41) (15MAR04) Using Map                                                                             Page  140
  21356  000022CC  00000001 USING  ORDINARY    00000000 00001000 FFFFFFFC   2 001   28536  @R2,2
  21515  00002334  00000001 USING  ORDINARY    00000000 00001000 FFFFFFF6   8 000          @R8,8
  21520  00002334  00000001 USING  ORDINARY    00000000 00001000 FFFFFFF7   7 000          @R7,7
  21828  000026FE  00000001 USING  ORDINARY    000026FE 00001000 00000001   7 3D6   21948  $$$406B,7
  21973  00002764  00000001 USING  ORDINARY    00000000 00001000 FFFFFFF7   7 000          @R7,7
  22018  0000278C  00000001 USING  ORDINARY    0000278C 00001000 00000001   7 34E   22167  $$$414B,7
  22184  00002814  00000001 USING  ORDINARY    00000000 00001000 FFFFFFF7   7 000          @R7,7
  22229  0000283C  00000001 USING  ORDINARY    0000283C 00001000 00000001   7 2AA   22407  $$$424B,7
  22440  000028A8  00000001 USING  ORDINARY    00000000 00001000 FFFFFFF7   7 000          @R7,7
  22485  000028D0  00000001 USING  ORDINARY    000028D0 00001000 00000001   7 222   22663  $$$438B,7
  22696  0000293C  00000001 USING  ORDINARY    00000000 00001000 FFFFFFF7   7 000          @R7,7
  22741  00002964  00000001 USING  ORDINARY    00002964 00001000 00000001   7 000          $$$452B,7
  22766  0000296A  00000001 USING  ORDINARY    00000000 00001000 FFFFFFF7   7 000          @R7,7
  22811  00002992  00000001 USING  ORDINARY    00002992 00001000 00000001   7 000          $$$455B,7
  22836  00002998  00000001 USING  ORDINARY    00000000 00001000 FFFFFFF7   7 000          @R7,7
  22881  000029C0  00000001 USING  ORDINARY    000029C0 00001000 00000001   7 000          $$$458B,7
  22913  000029CA  00000001 USING  ORDINARY    00000000 00001000 FFFFFFF7   7 000          @R7,7
  22958  000029F2  00000001 USING  ORDINARY    000029F2 00001000 00000001   7 000          $$$461B,7
  22990  000029FC  00000001 USING  ORDINARY    00000000 00001000 FFFFFFF7   7 000          @R7,7
  23035  00002A24  00000001 USING  ORDINARY    00002A24 00001000 00000001   7 000          $$$464B,7
  23060  00002A2A  00000001 USING  ORDINARY    00000000 00001000 FFFFFFF7   7 000          @R7,7
  23105  00002A52  00000001 USING  ORDINARY    00002A52 00001000 00000001   7 000          $$$467B,7
  23130  00002A58  00000001 USING  ORDINARY    00000000 00001000 FFFFFFF7   7 000          @R7,7
  23174  00002AF8  00000001 USING  ORDINARY    00000000 00001000 FFFFFFF8   6 000          @R6,6
  23181  00002AF8  00000001 USING  ORDINARY    00000000 00001000 FFFFFFF9   5 000          @R5,5
  23231  00002B12  00000001 USING  ORDINARY    00002B12 00001000 00000001   7 0D2   23420  $$$470B,7
  23248  00002B14  00000001 USING  ORDINARY    00000000 00001000 FFFFFFE2   6 328   23389  SHCTARGS,R6
  23445  00002BCA  00000001 USING  ORDINARY    00000000 00001000 FFFFFFF7   7 000          @R7,7
  23464  00002BD8  00000001 USING  ORDINARY    00000000 00001000 FFFFFFF8   6 000          @R6,6
  23524  00002C02  00000001 USING  ORDINARY    00002C02 00001000 00000001   7 176   23612  $$$479B,7
  23541  00002C04  00000001 USING  ORDINARY    00000000 00001000 FFFFFFE2   6 324   23592  SHCTARGS,R6
  23619  00002C40  00000001 USING  ORDINARY    00000000 00001000 FFFFFFF8   6 000          @R6,6
  23627  00002C40  00000001 USING  ORDINARY    00000000 00001000 FFFFFFF7   7 000          @R7,7
  23689  00002C68  00000001 USING  ORDINARY    00002C68 00001000 00000001   7 13C   24029  $$$485B,7
  23703  00002C68  00000001 USING  ORDINARY    FFFFFFD8 00001000 FFFFFFE6   8 028   24007  FFINFO-(4+36),R8
  23715  00002C6A  00000001 USING  ORDINARY    00000000 00001000 FFFFFFE2   6 328   25573  SHCTARGS,R6
  23727  00002C6C  00000001 USING  ORDINARY    00000000 00001000 FFFFFFE3   4 002   23732  DSNINFO,R4
  23744  00002C7A  00000001 USING  ORDINARY    00000000 00001000 FFFFFFFA   4 000          @R4,4
  23777  00002CB0  00000001 USING  ORDINARY    00000000 00001000 FFFFFFE6   5 218   23866  FFINFO,R5
  24004  00002D2C  00000001 USING  ORDINARY    00000000 00001000 FFFFFFF9   5 000          @R5,5
  24039  00002D56  00000001 USING  ORDINARY    00000000 00001000 FFFFFFF6   8 000          @R8,8
  24044  00002D56  00000001 USING  ORDINARY    00000000 00001000 FFFFFFF7   7 000          @R7,7
  24124  00002DC4  00000001 USING  ORDINARY    00002DC4 00001000 00000001   7 0C8   24429  $$$498B,7
  24143  00002DC6  00000001 USING  ORDINARY    00000000 00001000 FFFFFFE3   4 03E   24411  DSNINFO,R4
  24438  00002E6C  00000001 USING  ORDINARY    00000000 00001000 FFFFFFFA   4 000          @R4,4
  24446  00002E6C  00000001 USING  ORDINARY    00000000 00001000 FFFFFFF7   7 000          @R7,7
  24518  00002EAA  00000001 USING  ORDINARY    00002EAA 00001000 00000001   7 18C   25035  $$$503B,7
  24537  00002EAC  00000001 USING  ORDINARY    00000000 00001000 FFFFFFE3   4 047   24995  DSNINFO,R4
  24561  00002EBE  00000001 USING  ORDINARY    00000000 00001000 FFFFFFE6   5 218   24594  FFINFO,R5
  24659  00002EE8  00000001 USING  ORDINARY    00000000 00001000 FFFFFFF9   5 000          @R5,5
  25048  00002FE0  00000001 USING  ORDINARY    00000000 00001000 FFFFFFFA   4 000          @R4,4
  25056  00002FE0  00000001 USING  ORDINARY    00000000 00001000 FFFFFFF7   7 000          @R7,7
  25141  00003056  00000001 USING  ORDINARY    00003056 00001000 00000001   7 132   25576  $$$518B,7
  25206  00003082  00000001 USING  ORDINARY    00000000 00001000 FFFFFFE3   4 035   25515  DSNINFO,R4
  25563  00003144  00000001 USING  ORDINARY    00000000 00001000 FFFFFFFA   4 000   25702  @R4,4
  25584  00003152  00000001 USING  ORDINARY    00000000 00001000 FFFFFFF7   7 000          @R7,7
  25627  0000318C  00000001 USING  ORDINARY    00000000 00001000 FFFFFFF8   6 000          @R6,6
  25664  000031A6  00000001 USING  ORDINARY    000031A6 00001000 00000001   7 06A   25801  $$$536B,7
  25809  000031F8  00000001 USING  ORDINARY    00000000 00001000 FFFFFFF7   7 000          @R7,7
1DIR      (DIR2025) (12:41) (15MAR04) Using Map                                                                             Page  141
  25925  000032C4  00000001 USING  ORDINARY    000032C4 00001000 00000001   7 9C0   26632  $$$545B,7
  25939  000032C4  00000001 USING  ORDINARY    FFFFFFD8 00001000 FFFFFFE5   8 028   25943  SHDRARGS-(4+36),R8
  25951  000032C8  00000001 USING  ORDINARY    00000000 00001000 FFFFFFE5   6 030   28411  SHDRARGS,R6
  25980  000032D8  00000001 USING  ORDINARY    00000000 00001000 FFFFFFE6   5 218   26491  FFINFO,R5
  26646  000034F4  00000001 USING  ORDINARY    00000000 00001000 FFFFFFF6   8 000          @R8,8
  26651  000034F4  00000001 USING  ORDINARY    00000000 00001000 FFFFFFF7   7 000          @R7,7
  26973  000037EE  00000001 USING  ORDINARY    000037EE 00001000 00000001   7 000          $$$570B,7
  26995  000037F2  00000001 USING  ORDINARY    00000000 00001000 FFFFFFF7   7 000          @R7,7
  27040  0000381A  00000001 USING  ORDINARY    0000381A 00001000 00000001   7 000          $$$574B,7
  27063  0000381E  00000001 USING  ORDINARY    00000000 00001000 FFFFFFF7   7 000          @R7,7
  27108  00003846  00000001 USING  ORDINARY    00003846 00001000 00000001   7 396   27119  $$$578B,7
  27131  0000384E  00000001 USING  ORDINARY    00000000 00001000 FFFFFFF7   7 000          @R7,7
  27176  00003876  00000001 USING  ORDINARY    00003876 00001000 00000001   7 418   27354  $$$581B,7
  27387  000038E2  00000001 USING  ORDINARY    00000000 00001000 FFFFFFF7   7 000          @R7,7
  27432  0000390A  00000001 USING  ORDINARY    0000390A 00001000 00000001   7 390   27605  $$$595B,7
  27638  00003970  00000001 USING  ORDINARY    00000000 00001000 FFFFFFF7   7 000          @R7,7
  27683  00003998  00000001 USING  ORDINARY    00003998 00001000 00000001   7 30E   27856  $$$609B,7
  27889  000039FE  00000001 USING  ORDINARY    00000000 00001000 FFFFFFF7   7 000          @R7,7
  27934  00003A26  00000001 USING  ORDINARY    00003A26 00001000 00000001   7 000          $$$623B,7
  27973  00003A34  00000001 USING  ORDINARY    00000000 00001000 FFFFFFF7   7 000          @R7,7
  28018  00003A5C  00000001 USING  ORDINARY    00003A5C 00001000 00000001   7 000          $$$626B,7
  28043  00003A62  00000001 USING  ORDINARY    00000000 00001000 FFFFFFF7   7 000          @R7,7
  28088  00003A8A  00000001 USING  ORDINARY    00003A8A 00001000 00000001   7 000          $$$629B,7
  28114  00003A90  00000001 USING  ORDINARY    00000000 00001000 FFFFFFF7   7 000          @R7,7
  28159  00003AB8  00000001 USING  ORDINARY    00003AB8 00001000 00000001   7 000          $$$632B,7
  28198  00003AC6  00000001 USING  ORDINARY    00000000 00001000 FFFFFFF7   7 000          @R7,7
  28243  00003AEE  00000001 USING  ORDINARY    00003AEE 00001000 00000001   7 000          $$$635B,7
  28268  00003AF4  00000001 USING  ORDINARY    00000000 00001000 FFFFFFF7   7 000          @R7,7
  28313  00003B1C  00000001 USING  ORDINARY    00003B1C 00001000 00000001   7 000          $$$638B,7
  28352  00003B2A  00000001 USING  ORDINARY    00000000 00001000 FFFFFFF7   7 000          @R7,7
  28397  00003B52  00000001 USING  ORDINARY    00003B52 00001000 00000001   7 000          $$$641B,7
  28422  00003B58  00000001 USING  ORDINARY    00000000 00001000 FFFFFFF7   7 000          @R7,7
  28442  00003B66  00000001 USING  ORDINARY    00000000 00001000 FFFFFFF8   6 000          @R6,6
  28449  00003B66  00000001 USING  ORDINARY    00000000 00001000 FFFFFFF9   5 000          @R5,5
  28516  00003CC6  00000001 USING  ORDINARY    00003CC6 00001000 00000001   7 066   28574  $$$643B,BR
  28639  00003D48  00000001 USING  ORDINARY    00000000 00001000 FFFFFFF7   7 000          @R7,7
  28642  00003D48  00000001 USING  ORDINARY    00003D48 00001000 00000001   7 0D4   28831  $$$646B,7
  28659  00003D4A  00000001 USING  ORDINARY    00000000 00001000 FFFFFFE5   6 060   28800  SHDRARGS,R6
  28860  00003E00  00000001 USING  ORDINARY    00000000 00001000 FFFFFFF7   7 000          @R7,7
  28863  00003E00  00000001 USING  ORDINARY    00003CC6 00001000 00000001   7 000          $$$643B,7
  28882  00003E0E  00000001 USING  ORDINARY    00000000 00001000 FFFFFFF8   6 000          @R6,6
  28942  00003E3A  00000001 USING  ORDINARY    00000000 00001000 FFFFFFF7   7 000          @R7,7
  28945  00003E3A  00000001 USING  ORDINARY    00003E3A 00001000 00000001   7 20E   29033  $$$655B,7
  28962  00003E3C  00000001 USING  ORDINARY    00000000 00001000 FFFFFFE5   6 05C   29013  SHDRARGS,R6
  29040  00003E78  00000001 USING  ORDINARY    00000000 00001000 FFFFFFF8   6 000          @R6,6
  29052  00003E78  00000001 USING  ORDINARY    00000000 00001000 FFFFFFF7   7 000          @R7,7
  29055  00003E78  00000001 USING  ORDINARY    00003CC6 00001000 00000001   7 000          $$$643B,7
  29113  00003EA0  00000001 USING  ORDINARY    00000000 00001000 FFFFFFF7   7 000          @R7,7
  29116  00003EA0  00000001 USING  ORDINARY    00003EA0 00001000 00000001   7 1CC   29243  $$$661B,7
  29267  00003EFA  00000001 USING  ORDINARY    00000000 00001000 FFFFFFF7   7 000          @R7,7
  29270  00003EFA  00000001 USING  ORDINARY    00003CC6 00001000 00000001   7 000          $$$643B,7
  29332  00003F22  00000001 USING  ORDINARY    00000000 00001000 FFFFFFF7   7 000          @R7,7
  29335  00003F22  00000001 USING  ORDINARY    00003F22 00001000 00000001   7 15C   29660  $$$668B,7
  29349  00003F22  00000001 USING  ORDINARY    FFFFFFD8 00001000 FFFFFFE6   8 028   29638  FFINFO-(4+36),R8
  29361  00003F24  00000001 USING  ORDINARY    00000000 00001000 FFFFFFE5   6 060   31118  SHDRARGS,R6
  29399  00003F64  00000001 USING  ORDINARY    00000000 00001000 FFFFFFE6   5 218   29497  FFINFO,R5
  29635  00003FFC  00000001 USING  ORDINARY    00000000 00001000 FFFFFFF9   5 000          @R5,5
  29670  00004026  00000001 USING  ORDINARY    00000000 00001000 FFFFFFF6   8 000          @R8,8
  29679  00004026  00000001 USING  ORDINARY    00000000 00001000 FFFFFFF7   7 000          @R7,7
1DIR      (DIR2025) (12:41) (15MAR04) Using Map                                                                             Page  142
  29682  00004026  00000001 USING  ORDINARY    00003CC6 00001000 00000001   7 000          $$$643B,7
  29768  0000409E  00000001 USING  ORDINARY    00000000 00001000 FFFFFFF7   7 000          @R7,7
  29771  0000409E  00000001 USING  ORDINARY    0000409E 00001000 00000001   7 3D9   31121  $$$681B,7
  29830  000040CC  00000001 USING  ORDINARY    00000000 00001000 FFFFFFE6   5 218   29850  FFINFO,R5
  29869  000040DE  00000001 USING  ORDINARY    00000000 00001000 FFFFFFF9   5 000          @R5,5
  31134  0000443A  00000001 USING  ORDINARY    00000000 00001000 FFFFFFF7   7 000          @R7,7
  31137  0000443A  00000001 USING  ORDINARY    00003CC6 00001000 00000001   7 000          $$$643B,7
  31180  000044A0  00000001 USING  ORDINARY    00000000 00001000 FFFFFFF8   6 000          @R6,6
  31277  000044B2  00000001 USING  ORDINARY    00000000 00001000 FFFFFFF7   7 000          @R7,7
  31280  000044B2  00000001 USING  ORDINARY    000044B2 00001000 00000001   7 71D   32623  $$$732B,R7
  31323  000044CA  00000001 USING  ORDINARY    00000000 00001000 FFFFFFDA   6 002   31353  VOLDSECT,R6
  31360  000044FA  00000001 USING  ORDINARY    00000000 00001000 FFFFFFF8   6 000          @R6,6
  31371  000044FE  00000001 USING  ORDINARY    00000000 00001000 FFFFFFDA   3 002   31375  VOLDSECT,R3
  31385  00004518  00000001 USING  ORDINARY    00000000 00001000 FFFFFFFB   3 000          @R3,3
  31394  00004518  00000001 USING  ORDINARY    00000000 00001000 FFFFFFDA   6 002   31396  VOLDSECT,R6
  31412  0000451E  00000001 USING  ORDINARY    00000000 00001000 FFFFFFF8   6 000          @R6,6
  31415  0000451E  00000001 USING  ORDINARY    00000000 00001000 FFFFFFDA   3 008   31429  VOLDSECT,R3
  31440  00004522  00000001 USING  ORDINARY    00000000 00001000 FFFFFFDA   6 045   31475  VOLDSECT,6
  31445  00004522  00000001 USING  ORDINARY    00000000 00001000 FFFFFFFB   3 000          @R3,3
  31483  0000454E  00000001 USING  ORDINARY    00000000 00001000 FFFFFFF8   6 000          @R6,6
  31493  00004552  00000001 USING  ORDINARY    00000000 00001000 FFFFFFDA   3 028   32391  VOLDSECT,R3
  31511  0000458A  00000001 DROP                                            5              5
  31515  00004590  00000001 USING  ORDINARY    00000000 00001000 FFFFFFF9   5 000          @R5,5
  31518  00004590  00000001 DROP                                           14              14
  31522  00004596  00000001 USING  ORDINARY    00000000 00001000 FFFFFFF0  14 000          @R14,14
  31547  000045A2  00000001 DROP                                            4              4
  31551  000045A8  00000001 USING  ORDINARY    00000000 00001000 FFFFFFFA   4 000          @R4,4
  31554  000045A8  00000001 DROP                                           15              15
  31558  000045AE  00000001 USING  ORDINARY    00000000 00001000 FFFFFFEF  15 000          @R15,15
  31659  00004618  00000001 DROP                                           14              14
  31663  0000461E  00000001 USING  ORDINARY    00000000 00001000 FFFFFFF0  14 000          @R14,14
  31672  00004634  00000001 DROP                                           14              14
  31676  0000463A  00000001 USING  ORDINARY    00000000 00001000 FFFFFFF0  14 000          @R14,14
  32398  000048C0  00000001 USING  ORDINARY    00000000 00001000 FFFFFFFB   3 000          @R3,3
  32408  000048C0  00000001 USING  ORDINARY    00000000 00001000 FFFFFFDA   6 046   32489  VOLDSECT,R6
  32675  00004A9F  00000001 USING  ORDINARY    00000000 00001000 FFFFFFF8   6 000          @R6,6
  32681  00004A9F  00000001 USING  ORDINARY    00000000 00001000 FFFFFFF7   7 000          @R7,7

1         (DIR2025) (12:41) (15MAR04) General Purpose Register Cross Reference                                              Page  143
- Register  References (M=modified, B=branch, U=USING, D=DROP, N=index)                      HLASM R4.0  2004/03/15 12.41
0    0(0)      982U   983D  2113   2181M  2181   2182M 10089  10122M 10122  10131  10132  10169M 10192M 10193  10215M
             10312  10382M 10382  10391  10392  10470M 10511M 10529M 10572M 10590M 10608M 10626M 10665M 10683M 10701M
             10719M 10976M 11002M 11003  11004  11084  11131  11212  11213  11256M 11262  11263  11321M 11323  11454M
             11521M 11611M 11910  11942M 11942  11951  11987M 11987  11993  12090M 12114M 12134  12164M 12182  12214M
             12223  12296M 12316  12346M 12364  12396M 12405  12478M 12498  12530M 12530  12539  12575M 12575  12581
             12678M 12702M 12722  12772M 12792  12849M 12869  12919M 12939  12989M 13009  13059M 13079  13130M 13150
             13200M 13220  13270M 13382  13421M 13478M 13509  13548M 13548  13549M 13561M 13561  13568  13592  13605M
             13605  13634M 13647  13662M 13716  13806M 13844M 13880  13942M 13955  13960M 14186M 14186  14261M 14433
             14523M 14552M 14581M 14603M 14628M 14690M 14723M 14752M 14781M 14810M 14839M 14868M 14897M 14926M 14972M
             14989M 15018M 15062M 15112M 15129M 15158M 15202M 15235M 15264M 15293M 15322M 15351M 15380M 15409M 15438M
             15488M 15532M 15582M 15626M 15662M 15664  15684M 15739  15829M 15858M 15887M 15909M 15934M 15996M 16029M
             16058M 16087M 16116M 16145M 16174M 16203M 16232M 16278M 16322M 16372M 16416M 16449M 16478M 16507M 16536M
             16565M 16594M 16623M 16652M 16684M 16686  16706M 16762  16794  16825M 16825  16826M 16835M 16835  16887
             16950M 17009  17035  17115M 17255M 17324M 17358M 17405M 17443M 17470M 17505  17558M 17578  17579  17654M
             17743M 17772M 17794M 17836M 17866M 17866  17884M 17910M 17910  17928M 17957M 17985M 18007M 18007  18025M
             18064M 18098M 18126M 18160M 18188M 18222M 18251M 18265M 18265  18283M 18312M 18326M 18326  18355M 18380M
             18402M 18402  18441M 18475M 18493M 18538M 18556M 18586M 18631M 18649M 18679M 18697M 18727M 18745M 18775M
             18827M 18924  18971M 19011  19056  19108M 19246M 19246  19481M 19536M 19576M 19606M 19664M 19664  19784
             19836M 19974M 19974  20124M 20209  20288M 20288  20297  20298  20354M 20372M 20405M 20434M 20691M 20723
             20733M 20734  20735  20802  20849  20930  20931  20974M 20980  20981  21040M 21042  21308M 21308  21337M
             21422M 21477M 21528M 21811  21838  21845M 21860M 21865M 21899M 21908  21981M 22001  22033M 22033  22042
             22078M 22078  22084  22168M 22192M 22212  22242M 22247  22319  22351M 22356  22448M 22468  22498M 22503
             22575  22607M 22612  22704M 22724  22774M 22794  22844M 22864  22921M 22941  22998M 23018  23068M 23088
             23138M 23214  23253M 23310M 23341  23380M 23380  23381M 23385  23398M 23398  23438  23453M 23507  23597M
             23635M 23671  23733M 23746  23751M 23977M 23977  24052M 24107  24166M 24196M 24242M 24260M 24289M 24307M
             24352M 24388M 24418M 24454M 24501  24546M 24566  24567  24700M 24730M 24765M 24794M 24808M 24808  24837M
             24865M 24887M 24887  24905M 24951M 24964M 24965M 24968  24980M 25064M 25124  25154M 25196  25261M 25291M
             25421M 25421  25592M 25647  25678M 25695M 25695  25729M 25746M 25747  25752M 25752  25770M 25770  25817M
             25907  25991M 25991  26000  26001  26058M 26076M 26118M 26136M 26187M 26224  26309M 26339M 26422M 26452M
             26485M 26491  26590M 26659M 26956  27003M 27023  27071M 27091  27139M 27159  27189M 27194  27266  27298M
             27303  27395M 27415  27445  27517  27549M 27554  27646M 27666  27696  27768  27800M 27805  27897M 27917
             27981M 28001  28051M 28071  28122M 28142  28206M 28226  28276M 28296  28360M 28380  28430M 28503  28539
             28544M 28565M 28622  28664M 28721M 28752  28791M 28791  28792M 28796  28809M 28809  28849  28871M 28925
             29018M 29063M 29096  29150  29164M 29164  29190M 29217M 29278M 29314  29363M 29368  29373M 29411M 29413
             29608M 29608  29690M 29751  29784M 29807M 29850M 29883M 29883  29951M 30060  30082  30097M 30127M 30167M
             30179M 30195M 30339  30361  30376M 30406M 30446M 30458M 30474M 30536  30558  30573M 30589M 30606M 30620
             30644M 30685M 30685  30719M 30759M 30771M 30787M 30918  30940  30955M 30985M 31025M 31037M 31053M 31145M
             31344  31347  31599M 31770M 31807M 31820M 31860M 31878M 31941M 31985M 32015M 32050M 32089M 32128M 32167M
             32206M 32245M 32284M 32323M 32362M 32466M 32496M 32514M 32534M 32554M 32572M 32592M 32612M
     1(1)      978U  2113   2176M  2177M  2183M 10089  10118M 10131N 10132N 10134N 10168M 10215M 10312  10378M 10391N
             10392N 10394N 10469M 10510M 10528M 10567M 10589M 10607M 10625M 10660M 10682M 10700M 10718M 10762M 10763
             10767M 10776M 10776  10783  10806M 10807  10811M 10820M 10820  10827  10869M 10870  10874M 10883M 10883
             10890  10913M 10914  10918M 10927M 10927  10934  10977M 11000M 11213M 11217M 11226M 11226  11233  11257M
             11263M 11267M 11276M 11276  11283  11328M 11329M 11330  11334M 11343M 11343  11350  11374M 11453M 11516M
             11581M 11611M 11910  11938M 11951N 12089M 12114M 12134  12163M 12209M 12296M 12316  12345M 12391M 12478M
             12498  12526M 12539N 12677M 12702M 12722  12772M 12792  12849M 12869  12919M 12939  12989M 13009  13059M
             13079  13130M 13150  13200M 13220  13270M 13382  13408  13419M 13420M 13421N 13449M 13450M 13450  13462
             13468  13476M 13477M 13478N 13509  13544M 13552M 13580  13633M 13647  13662M 13716  13742  13799M 13800M
             13801N 13844M 13880  13926  13941M 13956  13959M 14261M 14433  14516M 14545M 14574M 14596M 14626M 14683M
             14716M 14745M 14774M 14803M 14832M 14861M 14890M 14919M 14965M 14988M 15011M 15055M 15105M 15128M 15151M
             15195M 15228M 15257M 15286M 15315M 15344M 15373M 15402M 15431M 15481M 15525M 15575M 15619M 15657M 15664
             15684M 15739  15822M 15851M 15880M 15902M 15932M 15989M 16022M 16051M 16080M 16109M 16138M 16167M 16196M
             16225M 16271M 16315M 16365M 16409M 16442M 16471M 16500M 16529M 16558M 16587M 16616M 16645M 16679M 16686
             16706M 16762  16793  16950M 17009  17036  17114M 17254M 17323M 17353M 17404M 17436M 17470M 17505  17557M
             17653M 17742M 17765M 17787M 17829M 17862M 17883M 17906M 17927M 17950M 17984M 18003M 18024M 18057M 18097M
1         (DIR2025) (12:41) (15MAR04) General Purpose Register Cross Reference                                              Page  144
             18119M 18159M 18181M 18221M 18244M 18261M 18282M 18305M 18322M 18348M 18379M 18398M 18434M 18474M 18492M
             18531M 18555M 18579M 18624M 18648M 18672M 18696M 18720M 18744M 18768M 18827M 18924  18960  18989M 19010
             19106M 19310M 19337M 19408M 19480M 19494M 19535M 19549M 19575M 19599M 19681M 19740  19834M 20038M 20077M
             20099M 20124M 20209  20284M 20297N 20298N 20300N 20353M 20371M 20404M 20433M 20477M 20478  20482M 20491M
             20491  20498  20521M 20522  20526M 20535M 20535  20542  20584M 20585  20589M 20598M 20598  20605  20628M
             20629  20633M 20642M 20642  20649  20692M 20731M 20931M 20935M 20944M 20944  20951  20975M 20981M 20985M
             20994M 20994  21001  21047M 21048M 21049  21053M 21062M 21062  21069  21093M 21154M 21170  21196  21291M
             21332M 21421M 21476M 21499M 21528M 21811  21838  21844M 21860M 21864M 21894M 21981M 22001  22029M 22042N
             22167M 22192M 22212  22241M 22346M 22448M 22468  22497M 22602M 22704M 22724  22774M 22794  22844M 22864
             22921M 22941  22998M 23018  23068M 23088  23138M 23214  23240  23251M 23252M 23253N 23281M 23282M 23282
             23294  23300  23308M 23309M 23310N 23341  23376M 23384M 23438  23453M 23507  23533  23590M 23591M 23592N
             23635M 23671  23717  23732M 23747  23750M 24052M 24107  24159M 24189M 24235M 24253M 24282M 24300M 24345M
             24381M 24411M 24454M 24501  24545M 24699M 24723M 24764M 24787M 24799M 24830M 24864M 24883M 24904M 24950M
             24995M 25064M 25124  25150  25172M 25195  25254M 25284M 25515M 25552M 25573M 25592M 25647  25677M 25691M
             25730M 25747M 25748M 25817M 25907  25987M 26000N 26001N 26003N 26057M 26075M 26117M 26135M 26180M 26308M
             26334M 26421M 26447M 26486M 26492M 26589M 26629M 26659M 26956  27003M 27023  27071M 27091  27139M 27159
             27188M 27293M 27395M 27415  27443M 27444M 27444N 27544M 27646M 27666  27694M 27695M 27695N 27795M 27897M
             27917  27981M 28001  28051M 28071  28122M 28142  28206M 28226  28276M 28296  28360M 28380  28430M 28503
             28544M 28622  28651  28662M 28663M 28664N 28692M 28693M 28693  28705  28711  28719M 28720M 28721N 28752
             28787M 28795M 28849  28871M 28925  28954  29011M 29012M 29013N 29063M 29096  29278M 29314  29369  29372M
             29412M 29413M 29414  29417M 29462M 29463  29466M 29468M 29469  29470  29474M 29483M 29483  29490  29690M
             29751  29780  29806M 29845M 29950M 29967M 30039M 30061  30062M 30082  30092M 30127M 30148M 30167M 30179M
             30196M 30235M 30318M 30340  30341M 30361  30371M 30406M 30427M 30446M 30458M 30475M 30515M 30537  30538M
             30558  30568M 30637M 30719M 30740M 30759M 30771M 30788M 30814M 30897M 30919  30920M 30940  30950M 30985M
             31006M 31025M 31037M 31054M 31118M 31145M 31337M 31337  31353M 31465M 31526M 31526  31540M 31572M 31585M
             31585  31598M 31806M 31821M 31859M 31877M 31984M 32008M 32049M 32088M 32127M 32166M 32205M 32244M 32283M
             32322M 32361M 32465M 32489M 32513M 32533M 32553M 32571M 32591M 32611M
     2(2)      974U  2113  10089  10215M 10312  11004M 11019M 11028M 11028  11035  11611M 11910  12114M 12134  12296M
             12316  12478M 12498  12702M 12722  12772M 12792  12849M 12869  12919M 12939  12989M 13009  13059M 13079
             13130M 13150  13200M 13220  13270M 13382  13509  13567  13580  13633  13662M 13716  13801M 13806  13844M
             13880  13916  13971M 13975M 14007M 14008  14009  14013M 14022M 14022  14029  14048M 14052M 14061M 14061
             14068  14218M 14220M 14261M 14433  14469  15684M 15739  15775  16706M 16762  16817D 16819M 16819  16820M
             16821U 16826N 16950M 17009  17089M 17089  17379M 17379  17470M 17505  17579M 17583M 17592M 17592  17599
             17618M 17841M 17851  17906  18374M 18398  18827M 18924  18990M 19109M 19311M 19338M 19409M 19837M 20039M
             20078M 20124M 20209  20735M 20739M 20748M 20748  20755  21137M 21148U 21356U 21528M 21811  21981M 22001
             22192M 22212  22448M 22468  22704M 22724  22774M 22794  22844M 22864  22921M 22941  22998M 23018  23068M
             23088  23138M 23214  23341  23375M 23376N 23385M 23388M 23389  23453M 23507  23592M 23597  23635M 23671
             23707  23762M 23766M 23798M 23799  23800  23804M 23813M 23813  23820  23839M 23843M 23852M 23852  23859
             24009M 24011M 24052M 24107  24133  24247M 24253  24294M 24300  24454M 24501  24527  24567M 24571M 24580M
             24580  24587  24624M 24644M 24644  24842M 24854  24883  25064M 25124  25321M 25366M 25516M 25592M 25647
             25817M 25907  26659M 26956  27003M 27023  27071M 27091  27139M 27159  27303M 27317  27329M 27334  27338M
             27347M 27347  27354  27395M 27415  27554M 27568  27580M 27585  27589M 27598M 27598  27605  27646M 27666
             27805M 27819  27831M 27836  27840M 27849M 27849  27856  27897M 27917  27981M 28001  28051M 28071  28122M
             28142  28206M 28226  28276M 28296  28360M 28380  28430M 28503  28521M 28522M 28522  28529  28536M 28537
             28538M 28539N 28544M 28555M 28555  28564M 28565N 28622  28752  28786M 28787N 28796M 28799M 28800  28871M
             28925  29013M 29018  29063M 29096  29278M 29314  29353  29384M 29388M 29420M 29424M 29433M 29433  29440
             29461M 29462  29467M 29468  29640M 29642M 29690M 29751  30149M 30428M 30741M 31007M 31145M
     3(3)      970U  2113  10089  10215M 10312  11611M 11910  11993M 11996  12008M 12013  12017M 12026M 12026  12033
             12114M 12134  12223M 12226  12238M 12243  12247M 12256M 12256  12263  12296M 12316  12405M 12408  12420M
             12425  12429M 12438M 12438  12445  12478M 12498  12581M 12584  12596M 12601  12605M 12614M 12614  12621
             12702M 12722  12772M 12792  12849M 12869  12919M 12939  12989M 13009  13059M 13079  13130M 13150  13200M
             13220  13270M 13382  13431M 13443  13487M 13500  13509  13568M 13571M 13573  13662M 13716  13776M 13779M
             13793  13799  13817M 13817  13844M 13880  13955M 13969  13972M 13974  13975M 14007M 14217M 14219  14220M
             14261M 14433  14586M 14624M 14629  15684M 15739  15892M 15930M 15935  16706M 16762  16798M 16862M 16887
             16919M 16950M 17009  17035M 17145  17224M 17300  17358  17470M 17505  18827M 18924  19011M 19373M 19382M
             19382  19389  20124M 20209  21155M 21164M 21164  21170M 21172M 21191M 21196M 21205M 21205  21213  21225M
             21230  21234M 21243M 21243  21250  21528M 21811  21908M 21911  21923M 21928  21932M 21941M 21941  21948
             21981M 22001  22084M 22087  22099M 22104  22108M 22117M 22117  22124  22192M 22212  22247M 22250  22262M
             22267  22271M 22280M 22280  22287  22356M 22370  22382M 22387  22391M 22400M 22400  22407  22448M 22468
1         (DIR2025) (12:41) (15MAR04) General Purpose Register Cross Reference                                              Page  145
             22503M 22506  22518M 22523  22527M 22536M 22536  22543  22612M 22626  22638M 22643  22647M 22656M 22656
             22663  22704M 22724  22774M 22794  22844M 22864  22921M 22941  22998M 23018  23068M 23088  23138M 23214
             23263M 23275  23319M 23332  23341  23453M 23507  23567M 23570M 23584  23590  23608M 23608  23635M 23671
             23746M 23760  23763M 23765  23766M 23798M 24008M 24010  24011M 24052M 24107  24454M 24501  24964  25064M
             25124  25196M 25592M 25647  25817M 25907  26659M 26956  27003M 27023  27071M 27091  27139M 27159  27194M
             27197  27209M 27214  27218M 27227M 27227  27234  27395M 27415  27445M 27448  27460M 27465  27469M 27478M
             27478  27485  27646M 27666  27696M 27699  27711M 27716  27720M 27729M 27729  27736  27897M 27917  27981M
             28001  28051M 28071  28122M 28142  28206M 28226  28276M 28296  28360M 28380  28430M 28503  28544M 28622
             28674M 28686  28730M 28743  28752  28871M 28925  28988M 28991M 29005  29011  29029M 29029  29063M 29096
             29125M 29126M 29138  29278M 29314  29368M 29382  29385M 29387  29388M 29420M 29639M 29641  29642M 29690M
             29751  30060M 30097  30195  30339M 30376  30474  30536M 30573  30787  30918M 30955  31053  31145M 31363M
             31371U 31377M 31377  31385U 31415U 31445U 31447  31448M 31448  31471M 31485M 31493U 31501M 31501  32398U
     4(4)      966U  2113  10089  10215M 10312  11611M 11910  12114M 12134  12296M 12316  12478M 12498  12702M 12722
             12772M 12792  12849M 12869  12919M 12939  12989M 13009  13059M 13079  13130M 13150  13200M 13220  13270M
             13382  13509  13543M 13544N 13592M 13595M 13596  13662M 13716  13844M 13880  13926M 13936U 13953U 13956M
             13969  13973M 13975M 14216M 14220M 14261M 14433  14469M 14502U 15649U 15684M 15739  15775M 15808U 16671U
             16706M 16762  16797M 16852  16861M 16901M 16910M 16910  16950M 17009  17036M 17223M 17353  17470M 17505
             17549U 18810U 18827M 18924  19010M 19021U 19458M 19715U 19740M 19750U 19837  20089U 20124M 20209  21528M
             21811  21981M 22001  22192M 22212  22448M 22468  22704M 22724  22774M 22794  22844M 22864  22921M 22941
             22998M 23018  23068M 23088  23138M 23214  23341  23453M 23507  23635M 23671  23717M 23727U 23744U 23747M
             23760  23764M 23766M 24007M 24011M 24052M 24107  24133M 24143U 24438U 24454M 24501  24527M 24537U 25048U
             25064M 25124  25195M 25206U 25321  25366  25563U 25592M 25647  25817M 25907  26659M 26956  27003M 27023
             27071M 27091  27139M 27159  27395M 27415  27646M 27666  27897M 27917  27981M 28001  28051M 28071  28122M
             28142  28206M 28226  28276M 28296  28360M 28380  28430M 28503  28544M 28622  28752  28871M 28925  29063M
             29096  29278M 29314  29369M 29382  29386M 29388M 29638M 29642M 29690M 29751  30061M 30092  30148  30196
             30340M 30371  30427  30475  30537M 30568  30740  30788  30919M 30950  31006  31054  31145M 31547D 31549M
             31549  31550M 31551U 31559M 31721M 31742M 31742  31747  31752M 31752  31846M 31846  31891M 31891  31975M
             31977M 31978
     5(5)      962U  2113  10089  10180M 10188U 10215M 10312  10371M 11611M 11910  12114M 12134  12296M 12316  12478M
             12498  12702M 12722  12772M 12792  12849M 12869  12919M 12939  12989M 13009  13059M 13079  13130M 13150
             13200M 13220  13270M 13289U 13382  13509  13662M 13716  13844M 13880  13974M 13975M 13976M 13986U 14213U
             14219M 14220M 14261M 14433  15684M 15739  16706M 16762  16794M 16809M 16809  16926M 16950M 17009  17056M
             17076M 17076  17103M 17103  17393M 17393  17470M 17505  17563M 17573U 17629U 17777M 17815M 17851  17862
             17962M 17974  18003  18827M 18924  20124M 20209  20270M 20278U 21528M 21811  21981M 22001  22192M 22212
             22448M 22468  22704M 22724  22774M 22794  22844M 22864  22921M 22941  22998M 23018  23068M 23088  23138M
             23181U 23214  23341  23453M 23507  23635M 23671  23765M 23766M 23767M 23777U 24004U 24010M 24011M 24052M
             24107  24454M 24501  24551M 24561U 24659U 25064M 25124  25592M 25647  25817M 25907  25972M 25980U 26659M
             26956  27003M 27023  27071M 27091  27139M 27159  27395M 27415  27646M 27666  27897M 27917  27981M 28001
             28051M 28071  28122M 28142  28206M 28226  28276M 28296  28360M 28380  28430M 28449U 28503  28544M 28622
             28752  28871M 28925  29063M 29096  29278M 29314  29387M 29388M 29389M 29399U 29635U 29641M 29642M 29690M
             29751  29820M 29830U 29869U 31145M 31511D 31513M 31513  31514M 31515U 31527M
     6(6)      958U  2113  10089  10215M 10312  10348M 10356U 11611M 11910  12114M 12134  12296M 12316  12478M 12498
             12702M 12722  12772M 12792  12849M 12869  12919M 12939  12989M 13009  13059M 13079  13130M 13150  13200M
             13220  13270M 13282U 13382  13408M 13416U 13509  13662M 13673U 13716  13742M 13750U 13828U 13844M 13880
             13916M 13924U 14261M 14272U 14433  15684M 15739  16706M 16762  16793M 16924M 16950M 17009  17470M 17505
             17538U 18827M 18838U 18924  18960M 18968U 20124M 20165U 20209  20245M 20253U 21528M 21811  21981M 22001
             22192M 22212  22448M 22468  22704M 22724  22774M 22794  22844M 22864  22921M 22941  22998M 23018  23068M
             23088  23138M 23174U 23214  23240M 23248U 23341  23453M 23464U 23507  23533M 23541U 23619U 23635M 23671
             23707M 23715U 24052M 24107  24454M 24501  25064M 25124  25150M 25592M 25627U 25647  25817M 25907  25943M
             25951U 26659M 26956  27003M 27023  27071M 27091  27139M 27159  27395M 27415  27646M 27666  27897M 27917
             27981M 28001  28051M 28071  28122M 28142  28206M 28226  28276M 28296  28360M 28380  28430M 28442U 28503
             28544M 28622  28651M 28659U 28752  28871M 28882U 28925  28954M 28962U 29040U 29063M 29096  29278M 29314
             29353M 29361U 29690M 29751  29780M 31145M 31180U 31315M 31323U 31360U 31394U 31412U 31440U 31483U 31504
             31507  31508  31514N 31521N 31550N 31557N 31612  31649  31653  31655  31662N 31668  31675N 31681  31682
             31821N 31897  31901  31913  32408U 32675U
     7(7)      954U  2106M  2106   2107B  2113   2119B 10089  10094M 10106U 10207U 10215M 10312  10318M 10330U 11603U
             11611M 11910  11915M 11927U 12106U 12114M 12134  12139M 12151U 12288U 12296M 12316  12321M 12333U 12470U
             12478M 12498  12503M 12515U 12694U 12702M 12722  12727M 12739U 12764U 12772M 12792  12797M 12809U 12841U
             12849M 12869  12874M 12886U 12911U 12919M 12939  12944M 12956U 12981U 12989M 13009  13014M 13026U 13051U
1         (DIR2025) (12:41) (15MAR04) General Purpose Register Cross Reference                                              Page  146
             13059M 13079  13084M 13096U 13122U 13130M 13150  13155M 13167U 13192U 13200M 13220  13225M 13237U 13262U
             13270M 13382  13387M 13399U 13509  13654U 13662M 13716  13721M 13733U 13836U 13844M 13880  13886M 13898U
             14253U 14261M 14433  14439M 14451U 15676U 15684M 15739  15745M 15757U 16698U 16706M 16762  16767M 16779U
             16942U 16950M 17009  17014M 17026U 17462U 17470M 17505  17510M 17522U 18819U 18827M 18924  18930M 18942U
             20116U 20124M 20209  20215M 20227U 21520U 21528M 21811  21816M 21828U 21973U 21981M 22001  22006M 22018U
             22184U 22192M 22212  22217M 22229U 22440U 22448M 22468  22473M 22485U 22696U 22704M 22724  22729M 22741U
             22766U 22774M 22794  22799M 22811U 22836U 22844M 22864  22869M 22881U 22913U 22921M 22941  22946M 22958U
             22990U 22998M 23018  23023M 23035U 23060U 23068M 23088  23093M 23105U 23130U 23138M 23214  23219M 23231U
             23341  23445U 23453M 23507  23512M 23524U 23627U 23635M 23671  23677M 23689U 24044U 24052M 24107  24112M
             24124U 24446U 24454M 24501  24506M 24518U 25056U 25064M 25124  25129M 25141U 25584U 25592M 25647  25652M
             25664U 25809U 25817M 25907  25913M 25925U 26651U 26659M 26956  26961M 26973U 26995U 27003M 27023  27028M
             27040U 27063U 27071M 27091  27096M 27108U 27131U 27139M 27159  27164M 27176U 27387U 27395M 27415  27420M
             27432U 27638U 27646M 27666  27671M 27683U 27889U 27897M 27917  27922M 27934U 27973U 27981M 28001  28006M
             28018U 28043U 28051M 28071  28076M 28088U 28114U 28122M 28142  28147M 28159U 28198U 28206M 28226  28231M
             28243U 28268U 28276M 28296  28301M 28313U 28352U 28360M 28380  28385M 28397U 28422U 28430M 28503  28506M
             28516U 28544M 28622  28627M 28639U 28642U 28752  28860U 28863U 28871M 28925  28930M 28942U 28945U 29052U
             29055U 29063M 29096  29101M 29113U 29116U 29267U 29270U 29278M 29314  29320M 29332U 29335U 29679U 29682U
             29690M 29751  29756M 29768U 29771U 31134U 31137U 31145M 31267M 31277U 31280U 32681U
     8(8)      950U  2113  10089  10090M 10211  10215M 10312  10314M 10344U 11598U 11607  11611M 11910  11911M 12110
             12114M 12134  12135M 12292  12296M 12316  12317M 12474  12478M 12498  12499M 12698  12702M 12722  12723M
             12768  12772M 12792  12793M 12845  12849M 12869  12870M 12915  12919M 12939  12940M 12985  12989M 13009
             13010M 13055  13059M 13079  13080M 13126  13130M 13150  13151M 13196  13200M 13220  13221M 13266  13270M
             13382  13383M 13509  13647  13658  13662M 13716  13717M 13840  13844M 13880  13882M 13912U 14248U 14257
             14261M 14433  14435M 14465U 15664  15671U 15680  15684M 15739  15741M 15771U 16686  16693U 16702  16706M
             16762  16763M 16946  16950M 17009  17010M 17466  17470M 17505  17506M 18823  18827M 18924  18926M 18956U
             20111U 20120  20124M 20209  20211M 20241U 21515U 21524  21528M 21811  21812M 21977  21981M 22001  22002M
             22188  22192M 22212  22213M 22444  22448M 22468  22469M 22700  22704M 22724  22725M 22770  22774M 22794
             22795M 22840  22844M 22864  22865M 22917  22921M 22941  22942M 22994  22998M 23018  23019M 23064  23068M
             23088  23089M 23134  23138M 23214  23215M 23341  23438  23449  23453M 23507  23508M 23631  23635M 23671
             23673M 23703U 24039U 24048  24052M 24107  24108M 24450  24454M 24501  24502M 25060  25064M 25124  25125M
             25588  25592M 25647  25648M 25813  25817M 25907  25909M 25939U 26646U 26655  26659M 26956  26957M 26999
             27003M 27023  27024M 27067  27071M 27091  27092M 27135  27139M 27159  27160M 27391  27395M 27415  27416M
             27642  27646M 27666  27667M 27893  27897M 27917  27918M 27977  27981M 28001  28002M 28047  28051M 28071
             28072M 28118  28122M 28142  28143M 28202  28206M 28226  28227M 28272  28276M 28296  28297M 28356  28360M
             28380  28381M 28426  28430M 28503  28504M 28542  28544M 28622  28623M 28752  28849  28867  28871M 28925
             28926M 29059  29063M 29096  29097M 29274  29278M 29314  29316M 29349U 29670U 29686  29690M 29751  29752M
             31141  31145M 31264M 31315
     9(9)      946U  2113  13509  13544  13760M 13760  23341  23376  23551M 23551  28540M 28540  28752  28787  28972M
             28972
    10(A)      942U  2113  13509  23341  28752
    11(B)      938U  1177U  2113  13509  23341  28752
    12(C)      934U  1186U  2113  13509  23341  28752
    13(D)      930U  2113  10086  10089  10090  10091M 10091  10126  10127  10128  10130M 10130  10143M 10144  10145
             10146  10211M 10215  10217  10309  10312  10314  10315M 10315  10386  10387  10388  10390M 10390  10403M
             10404  10405  10406  11607M 11611  11613  11907  11910  11911  11912M 11912  11946  11947  11948  11950M
             11950  11960M 11961  11962  11963  12110M 12114  12116  12131  12134  12135  12136M 12136  12292M 12296
             12298  12313  12316  12317  12318M 12318  12474M 12478  12480  12495  12498  12499  12500M 12500  12534
             12535  12536  12538M 12538  12548M 12549  12550  12551  12698M 12702  12704  12719  12722  12723  12724M
             12724  12768M 12772  12774  12789  12792  12793  12794M 12794  12845M 12849  12851  12866  12869  12870
             12871M 12871  12915M 12919  12921  12936  12939  12940  12941M 12941  12985M 12989  12991  13006  13009
             13010  13011M 13011  13055M 13059  13061  13076  13079  13080  13081M 13081  13126M 13130  13132  13147
             13150  13151  13152M 13152  13196M 13200  13202  13217  13220  13221  13222M 13222  13266M 13270  13272
             13379  13382  13383  13384M 13384  13509  13658M 13662  13664  13713  13716  13717  13718M 13718  13840M
             13844  13846  13877  13880  13882  13883M 13883  13969  13970M 13970  14006M 14007  14257M 14261  14263
             14430  14433  14435  14436M 14436  14626  14627M 14627  14658M 15680M 15684  15686  15736  15739  15741
             15742M 15742  15932  15933M 15933  15964M 16702M 16706  16708  16759  16762  16763  16764M 16764  16946M
             16950  16952  17006  17009  17010  17011M 17011  17466M 17470  17472  17502  17505  17506  17507M 17507
             18823M 18827  18829  18921  18924  18926  18927M 18927  19106  19107M 19107  19177M 19834  19835M 19835
             19905M 20120M 20124  20126  20206  20209  20211  20212M 20212  20292  20293  20294  20296M 20296  20309M
1         (DIR2025) (12:41) (15MAR04) General Purpose Register Cross Reference                                              Page  147
             20310  20311  20312  21137  21138M 21138  21359M 21524M 21528  21530  21808  21811  21812  21813M 21813
             21838  21839M 21839  21859M 21860  21977M 21981  21983  21998  22001  22002  22003M 22003  22037  22038
             22039  22041M 22041  22051M 22052  22053  22054  22188M 22192  22194  22209  22212  22213  22214M 22214
             22444M 22448  22450  22465  22468  22469  22470M 22470  22700M 22704  22706  22721  22724  22725  22726M
             22726  22770M 22774  22776  22791  22794  22795  22796M 22796  22840M 22844  22846  22861  22864  22865
             22866M 22866  22917M 22921  22923  22938  22941  22942  22943M 22943  22994M 22998  23000  23015  23018
             23019  23020M 23020  23064M 23068  23070  23085  23088  23089  23090M 23090  23134M 23138  23140  23211
             23214  23215  23216M 23216  23341  23449M 23453  23455  23504  23507  23508  23509M 23509  23631M 23635
             23637  23668  23671  23673  23674M 23674  23760  23761M 23761  23797M 23798  24048M 24052  24054  24104
             24107  24108  24109M 24109  24450M 24454  24456  24498  24501  24502  24503M 24503  25060M 25064  25066
             25121  25124  25125  25126M 25126  25588M 25592  25594  25644  25647  25648  25649M 25649  25813M 25817
             25819  25904  25907  25909  25910M 25910  25995  25996  25997  25999M 25999  26012M 26013  26014  26015
             26655M 26659  26661  26953  26956  26957  26958M 26958  26999M 27003  27005  27020  27023  27024  27025M
             27025  27067M 27071  27073  27088  27091  27092  27093M 27093  27135M 27139  27141  27156  27159  27160
             27161M 27161  27391M 27395  27397  27412  27415  27416  27417M 27417  27642M 27646  27648  27663  27666
             27667  27668M 27668  27893M 27897  27899  27914  27917  27918  27919M 27919  27977M 27981  27983  27998
             28001  28002  28003M 28003  28047M 28051  28053  28068  28071  28072  28073M 28073  28118M 28122  28124
             28139  28142  28143  28144M 28144  28202M 28206  28208  28223  28226  28227  28228M 28228  28272M 28276
             28278  28293  28296  28297  28298M 28298  28356M 28360  28362  28377  28380  28381  28382M 28382  28426M
             28430  28432  28503  28504  28505M 28505  28542M 28543  28544  28619  28622  28623  28624M 28624  28752
             28867M 28871  28873  28922  28925  28926  28927M 28927  29059M 29063  29065  29093  29096  29097  29098M
             29098  29150  29151M 29151  29189M 29190  29216M 29217  29274M 29278  29280  29311  29314  29316  29317M
             29317  29382  29383M 29383  29419M 29420  29686M 29690  29692  29748  29751  29752  29753M 29753  30082
             30083M 30083  30126M 30127  30166M 30167  30178M 30179  30361  30362M 30362  30405M 30406  30445M 30446
             30457M 30458  30558  30559M 30559  30718M 30719  30758M 30759  30770M 30771  30940  30941M 30941  30984M
             30985  31024M 31025  31036M 31037  31141M 31145  31147  31264  31266M 31266
    14(E)      926U  2113   2114M  2128   2129M  2130B  2132M  2133B  2153M  2154B  2158M  2159B  2161M  2162B  2164M
              2165B  2167M  2168B  2170M  2171M  2171B  2177  10086  10125M 10126  10127  10128  10133M 10134  10137M
             10138M 10138B 10141M 10144  10145  10146  10178M 10179M 10179B 10197M 10198M 10198B 10217M 10220B 10309
             10369M 10370M 10370B 10385M 10386  10387  10388  10393M 10394  10397M 10398M 10398B 10401M 10404  10405
             10406  10411M 10412M 10412B 10522M 10523M 10523B 10538M 10539M 10539B 10583M 10584M 10584B 10601M 10602M
             10602B 10619M 10620M 10620B 10676M 10677M 10677B 10694M 10695M 10695B 10712M 10713M 10713B 10804M 10805M
             10805B 10911M 10912M 10912B 10980M 10981M 10981B 11254M 11255M 11255B 11260M 11261M 11261B 11326M 11327M
             11327B 11377M 11378M 11378B 11443M 11444M 11444B 11465M 11466M 11466B 11524M 11525M 11525B 11548M 11549M
             11549B 11584M 11585M 11585B 11613M 11616B 11907  11945M 11946  11947  11948  11954M 11955M 11955B 11958M
             11961  11962  11963  12116M 12119B 12131  12162M 12163N 12164N 12168M 12168  12217M 12218M 12218B 12298M
             12301B 12313  12344M 12345N 12346N 12350M 12350  12399M 12400M 12400B 12480M 12483B 12495  12533M 12534
             12535  12536  12542M 12543M 12543B 12546M 12549  12550  12551  12704M 12707B 12719  12774M 12777B 12789
             12851M 12854B 12866  12921M 12924B 12936  12991M 12994B 13006  13061M 13064B 13076  13132M 13135B 13147
             13202M 13205B 13217  13272M 13275B 13379  13428M 13429M 13429B 13474M 13475M 13475B 13485M 13486M 13486B
             13509  13510M 13615M 13616M 13616B 13664M 13667B 13713  13770M 13771M 13771B 13809M 13810M 13810B 13815M
             13816M 13816B 13846M 13849B 13877  13945M 13946M 13946B 13963M 13964M 13964B 14089M 14090M 14090B 14197M
             14198M 14198B 14205M 14206M 14206B 14263M 14266B 14430  14491M 14492M 14492B 14534M 14535M 14535B 14563M
             14564M 14564B 14584M 14585M 14585B 14606M 14607M 14607B 14632M 14633M 14633B 14655M 14656M 14656B 14701M
             14702M 14702B 14734M 14735M 14735B 14763M 14764M 14764B 14792M 14793M 14793B 14821M 14822M 14822B 14850M
             14851M 14851B 14879M 14880M 14880B 14908M 14909M 14909B 14937M 14938M 14938B 14983M 14984M 14984B 15000M
             15001M 15001B 15029M 15030M 15030B 15073M 15074M 15074B 15123M 15124M 15124B 15140M 15141M 15141B 15169M
             15170M 15170B 15213M 15214M 15214B 15246M 15247M 15247B 15275M 15276M 15276B 15304M 15305M 15305B 15333M
             15334M 15334B 15362M 15363M 15363B 15391M 15392M 15392B 15420M 15421M 15421B 15449M 15450M 15450B 15499M
             15500M 15500B 15543M 15544M 15544B 15593M 15594M 15594B 15637M 15638M 15638B 15686M 15689B 15736  15797M
             15798M 15798B 15840M 15841M 15841B 15869M 15870M 15870B 15890M 15891M 15891B 15912M 15913M 15913B 15938M
             15939M 15939B 15961M 15962M 15962B 16007M 16008M 16008B 16040M 16041M 16041B 16069M 16070M 16070B 16098M
             16099M 16099B 16127M 16128M 16128B 16156M 16157M 16157B 16185M 16186M 16186B 16214M 16215M 16215B 16243M
             16244M 16244B 16289M 16290M 16290B 16333M 16334M 16334B 16383M 16384M 16384B 16427M 16428M 16428B 16460M
             16461M 16461B 16489M 16490M 16490B 16518M 16519M 16519B 16547M 16548M 16548B 16576M 16577M 16577B 16605M
             16606M 16606B 16634M 16635M 16635B 16663M 16664M 16664B 16708M 16711B 16759  16952M 16955B 17006  17039M
             17040M 17040B 17126M 17127M 17127B 17266M 17267M 17267B 17335M 17336M 17336B 17369M 17370M 17370B 17416M
             17417M 17417B 17454M 17455M 17455B 17472M 17475B 17502  17561M 17562M 17562B 17621M 17622M 17622B 17665M
             17666M 17666B 17754M 17755M 17755B 17775M 17776M 17776B 17797M 17798M 17798B 17839M 17840M 17840B 17877M
1         (DIR2025) (12:41) (15MAR04) General Purpose Register Cross Reference                                              Page  148
             17878M 17878B 17895M 17896M 17896B 17921M 17922M 17922B 17939M 17940M 17940B 17960M 17961M 17961B 17996M
             17997M 17997B 18018M 18019M 18019B 18036M 18037M 18037B 18075M 18076M 18076B 18109M 18110M 18110B 18129M
             18130M 18130B 18153M 18154M 18154B 18171M 18172M 18172B 18191M 18192M 18192B 18215M 18216M 18216B 18233M
             18234M 18234B 18254M 18255M 18255B 18276M 18277M 18277B 18294M 18295M 18295B 18315M 18316M 18316B 18337M
             18338M 18338B 18358M 18359M 18359B 18391M 18392M 18392B 18413M 18414M 18414B 18452M 18453M 18453B 18486M
             18487M 18487B 18504M 18505M 18505B 18549M 18550M 18550B 18567M 18568M 18568B 18597M 18598M 18598B 18642M
             18643M 18643B 18660M 18661M 18661B 18690M 18691M 18691B 18708M 18709M 18709B 18738M 18739M 18739B 18756M
             18757M 18757B 18786M 18787M 18787B 18829M 18832B 18921  18978M 18979M 18979B 18993M 18994M 18994B 19127M
             19128M 19128B 19146M 19147M 19147B 19174M 19175M 19175B 19195M 19196M 19196B 19257M 19258M 19258B 19265M
             19266M 19266B 19314M 19315M 19315B 19341M 19342M 19342B 19412M 19413M 19413B 19492M 19493M 19493B 19497M
             19498M 19498B 19547M 19548M 19548B 19552M 19553M 19553B 19587M 19588M 19588B 19617M 19618M 19618B 19675M
             19676M 19676B 19684M 19685M 19685B 19855M 19856M 19856B 19874M 19875M 19875B 19902M 19903M 19903B 19923M
             19924M 19924B 19985M 19986M 19986B 19993M 19994M 19994B 20042M 20043M 20043B 20081M 20082M 20082B 20102M
             20103M 20103B 20126M 20129B 20206  20268M 20269M 20269B 20291M 20292  20293  20294  20299M 20300  20303M
             20304M 20304B 20307M 20310  20311  20312  20317M 20318M 20318B 20365M 20366M 20366B 20381M 20382M 20382B
             20519M 20520M 20520B 20626M 20627M 20627B 20695M 20696M 20696B 20972M 20973M 20973B 20978M 20979M 20979B
             21045M 21046M 21046B 21096M 21097M 21097B 21285M 21286M 21286B 21294M 21295M 21295B 21319M 21320M 21320B
             21348M 21349M 21349B 21404M 21405M 21405B 21433M 21434M 21434B 21488M 21489M 21489B 21502M 21503M 21503B
             21530M 21533B 21808  21856M 21857M 21857B 21863M 21864N 21865N 21869M 21869  21902M 21903M 21903B 21983M
             21986B 21998  22036M 22037  22038  22039  22045M 22046M 22046B 22049M 22052  22053  22054  22194M 22197B
             22209  22240M 22241N 22242N 22246M 22246  22354M 22355M 22355B 22450M 22453B 22465  22496M 22497N 22498N
             22502M 22502  22610M 22611M 22611B 22706M 22709B 22721  22776M 22779B 22791  22846M 22849B 22861  22923M
             22926B 22938  23000M 23003B 23015  23070M 23073B 23085  23140M 23143B 23211  23260M 23261M 23261B 23306M
             23307M 23307B 23317M 23318M 23318B 23341  23342M 23408M 23409M 23409B 23455M 23458B 23504  23561M 23562M
             23562B 23600M 23601M 23601B 23606M 23607M 23607B 23637M 23640B 23668  23736M 23737M 23737B 23754M 23755M
             23755B 23880M 23881M 23881B 23988M 23989M 23989B 23996M 23997M 23997B 24054M 24057B 24104  24177M 24178M
             24178B 24207M 24208M 24208B 24245M 24246M 24246B 24271M 24272M 24272B 24292M 24293M 24293B 24318M 24319M
             24319B 24363M 24364M 24364B 24399M 24400M 24400B 24429M 24430M 24430B 24456M 24459B 24498  24549M 24550M
             24550B 24651M 24652M 24652B 24711M 24712M 24712B 24741M 24742M 24742B 24776M 24777M 24777B 24797M 24798M
             24798B 24819M 24820M 24820B 24840M 24841M 24841B 24876M 24877M 24877B 24898M 24899M 24899B 24916M 24917M
             24917B 24962M 24963M 24963B 25010M 25011M 25011B 25035M 25036M 25036B 25066M 25069B 25121  25161M 25162M
             25162B 25175M 25176M 25176B 25272M 25273M 25273B 25302M 25303M 25303B 25324M 25325M 25325B 25369M 25370M
             25370B 25432M 25433M 25433B 25440M 25441M 25441B 25519M 25520M 25520B 25555M 25556M 25556B 25576M 25577M
             25577B 25594M 25597B 25644  25689M 25690M 25690B 25801M 25802M 25802B 25819M 25822B 25904  25970M 25971M
             25971B 25994M 25995  25996  25997  26002M 26003  26006M 26007M 26007B 26010M 26013  26014  26015  26020M
             26021M 26021B 26069M 26070M 26070B 26129M 26130M 26130B 26222M 26223M 26223B 26236M 26237M 26237B 26320M
             26321M 26321B 26342M 26343M 26343B 26433M 26434M 26434B 26455M 26456M 26456B 26483M 26484M 26484B 26489M
             26490M 26490B 26495M 26496M 26496B 26516M 26517M 26517B 26579M 26580M 26580B 26601M 26602M 26602B 26632M
             26633M 26633B 26661M 26664B 26953  27005M 27008B 27020  27073M 27076B 27088  27119M 27120M 27120B 27141M
             27144B 27156  27187M 27188N 27189N 27193M 27193  27301M 27302M 27302B 27397M 27400B 27412  27552M 27553M
             27553B 27648M 27651B 27663  27803M 27804M 27804B 27899M 27902B 27914  27983M 27986B 27998  28053M 28056B
             28068  28124M 28127B 28139  28208M 28211B 28223  28278M 28281B 28293  28362M 28365B 28377  28432M 28435B
             28501  28527M 28528M 28528B 28533M 28534M 28534B 28543M 28545B 28572M 28573M 28573B 28619  28671M 28672M
             28672B 28717M 28718M 28718B 28728M 28729M 28729B 28752  28753M 28819M 28820M 28820B 28873M 28876B 28922
             28982M 28983M 28983B 29021M 29022M 29022B 29027M 29028M 29028B 29065M 29068B 29093  29147M 29148M 29148B
             29175M 29176M 29176B 29197M 29198M 29198B 29224M 29225M 29225B 29280M 29283B 29311  29366M 29367M 29367B
             29376M 29377M 29377B 29511M 29512M 29512B 29619M 29620M 29620B 29627M 29628M 29628B 29692M 29695B 29748
             29791M 29792M 29792B 29818M 29819M 29819B 29861M 29862M 29862B 29894M 29895M 29895B 29898M 29899M 29899B
             29970M 29971M 29971B 30015M 30016M 30016B 30019M 30020M 30020B 30042M 30043M 30043B 30065M 30066M 30066B
             30108M 30109M 30109B 30112M 30113M 30113B 30152M 30153M 30153B 30238M 30239M 30239B 30273M 30274M 30274B
             30277M 30278M 30278B 30321M 30322M 30322B 30344M 30345M 30345B 30387M 30388M 30388B 30391M 30392M 30392B
             30431M 30432M 30432B 30518M 30519M 30519B 30541M 30542M 30542B 30584M 30585M 30585B 30655M 30656M 30656B
             30696M 30697M 30697B 30704M 30705M 30705B 30744M 30745M 30745B 30817M 30818M 30818B 30852M 30853M 30853B
             30856M 30857M 30857B 30900M 30901M 30901B 30923M 30924M 30924B 30966M 30967M 30967B 30970M 30971M 30971B
             31010M 31011M 31011B 31109M 31110M 31110B 31121M 31122M 31122B 31147M 31150B 31340M 31341M 31341B 31468M
             31469M 31469B 31518D 31520M 31520  31521M 31522U 31527  31610M 31611M 31611B 31615M 31659D 31661M 31661
             31662M 31663U 31664  31665M 31666M 31667  31672D 31674M 31674  31675M 31676U 31677  31678M 31679M 31680
             31778M 31779M 31779B 31794M 31795M 31795B 31818M 31819M 31819B 31844M 31845M 31845B 31871M 31872M 31872B
             31889M 31890M 31890B 31894M 31949M 31950M 31950B 31964M 31967M 31968M 31968B 31996M 31997M 31997B 32026M
1         (DIR2025) (12:41) (15MAR04) General Purpose Register Cross Reference                                              Page  149
             32027M 32027B 32061M 32062M 32062B 32100M 32101M 32101B 32139M 32140M 32140B 32178M 32179M 32179B 32217M
             32218M 32218B 32256M 32257M 32257B 32295M 32296M 32296B 32334M 32335M 32335B 32373M 32374M 32374B 32382B
             32392B 32412B 32415B 32418B 32421B 32424B 32427B 32430B 32433B 32436B 32439B 32442B 32445B 32449B 32452B
             32455B 32458B 32477M 32478M 32478B 32507M 32508M 32508B 32525M 32526M 32526B 32545M 32546M 32546B 32565M
             32566M 32566B 32583M 32584M 32584B 32603M 32604M 32604B 32623M 32624M 32624B
    15(F)      922U  2113  10147M 10147  10219M 10219  10407M 10407  10519M 10580M 10598M 10616M 10673M 10691M 10709M
             11397  11419  11462M 11545M 11615M 11615  11964M 11964  11973M 11973  12068M 12068  12118M 12118  12300M
             12300  12482M 12482  12552M 12552  12561M 12561  12656M 12656  12706M 12706  12757M 12757  12776M 12776
             12834M 12834  12853M 12853  12904M 12904  12923M 12923  12974M 12974  12993M 12993  13044M 13044  13063M
             13063  13115M 13115  13134M 13134  13185M 13185  13204M 13204  13255M 13255  13274M 13274  13509  13532M
             13617M 13638M 13638  13666M 13666  13848M 13848  14194M 14225M 14230M 14237M 14237  14265M 14265  14488M
             14531M 14560M 14586  14616M 14616  14629M 14652M 14698M 14731M 14760M 14789M 14818M 14847M 14876M 14905M
             14934M 14980M 14997M 15026M 15070M 15120M 15137M 15166M 15210M 15243M 15272M 15301M 15330M 15359M 15388M
             15417M 15446M 15496M 15540M 15590M 15634M 15688M 15688  15794M 15837M 15866M 15892  15922M 15922  15935M
             15958M 16004M 16037M 16066M 16095M 16124M 16153M 16182M 16211M 16240M 16286M 16330M 16380M 16424M 16457M
             16486M 16515M 16544M 16573M 16602M 16631M 16660M 16710M 16710  16791M 16791  16894M 16934M 16954M 16954
             17049M 17049  17123M 17263M 17332M 17366M 17413M 17451M 17474M 17474  17662M 17751M 17777  17807M 17807
             17841  17874M 17892M 17918M 17936M 17962  17993M 18015M 18033M 18072M 18106M 18150M 18168M 18212M 18230M
             18261  18273M 18291M 18322  18334M 18368M 18368  18374  18388M 18410M 18449M 18483M 18501M 18546M 18564M
             18594M 18639M 18657M 18687M 18705M 18735M 18753M 18783M 18831M 18831  19004M 19004  19171M 19254M 19422M
             19422  19489M 19544M 19584M 19614M 19672M 19734M 19734  19899M 19982M 20128M 20128  20313M 20313  20362M
             21109  21282M 21316M 21345M 21380  21430M 21485M 21532M 21532  21853M 21985M 21985  22055M 22055  22064M
             22064  22146M 22146  22196M 22196  22452M 22452  22708M 22708  22759M 22759  22778M 22778  22829M 22829
             22848M 22848  22906M 22906  22925M 22925  22983M 22983  23002M 23002  23053M 23053  23072M 23072  23123M
             23123  23142M 23142  23341  23364M 23410M 23429M 23429  23457M 23457  23639M 23639  23985M 24016M 24021M
             24028M 24028  24056M 24056  24174M 24204M 24247  24268M 24294  24315M 24360M 24396M 24426M 24458M 24458
             24708M 24738M 24773M 24799  24816M 24842  24873M 24895M 24913M 24959M 25007M 25068M 25068  25188M 25188
             25269M 25299M 25429M 25596M 25596  25686M 25798M 25821M 25821  26016M 26016  26066M 26126M 26317M 26430M
             26533  26555  26598M 26663M 26663  27007M 27007  27075M 27075  27124M 27124  27143M 27143  27399M 27399
             27650M 27650  27901M 27901  27966M 27966  27985M 27985  28036M 28036  28055M 28055  28107M 28107  28126M
             28126  28191M 28191  28210M 28210  28261M 28261  28280M 28280  28345M 28345  28364M 28364  28415M 28415
             28434M 28434  28503  28544M 28752  28775M 28821M 28840M 28840  28875M 28875  29067M 29067  29172M 29199M
             29229M 29229  29252M 29252  29282M 29282  29616M 29647M 29652M 29659M 29659  29694M 29694  29815M 29858M
             29891M 30012M 30054M 30054  30075M 30075  30082  30105M 30127M 30167M 30179M 30270M 30333M 30333  30354M
             30354  30361  30384M 30406M 30446M 30458M 30530M 30530  30551M 30551  30558  30581M 30586M 30587M 30588M
             30620  30652M 30693M 30719M 30759M 30771M 30849M 30912M 30912  30933M 30933  30940  30963M 30985M 31025M
             31037M 31106M 31149M 31149  31347M 31350M 31352  31554D 31556M 31556  31557M 31558U 31559  31607M 31656M
             31664M 31666  31669M 31677M 31679  31774M 31815M 31841M 31868M 31886M 31945M 31993M 32023M 32058M 32097M
             32136M 32175M 32214M 32253M 32292M 32331M 32370M 32474M 32504M 32522M 32542M 32562M 32580M 32600M 32620M

1DIR      (DIR2025) (12:41) (15MAR04) Diagnostic Cross Reference and Assembler Summary                                      Page  150
-                                                                                            HLASM R4.0  2004/03/15 12.41
0     No Statements Flagged in this Assembly
 HIGH LEVEL ASSEMBLER, 5696-234, RELEASE 4.0, PTF P72483
0SYSTEM: OS/390 02.10.00            JOBNAME: WYL#DIR     STEPNAME: ASM        PROCSTEP: (NOPROC)
0Datasets Allocated for this Assembly
  Con DDname   Dataset Name                                 Volume  Member
   P1 SYSIN    WYL.GS.WYL.WYLBUR.SOURCE                     SYSB05  DIR
   L1 SYSLIB   WYL.GS.WYL.WYLBUR.MACLIB                     SYSB05
   L2          WYL.GG.SYS.MACLIB                            SYSB05
   L3          SYS3.IS.MACLIB                               SYSB05
   L4          SYS3.MACLIB                                  SYSB02
   L5          SYS1.MACLIB                                  MVSBR9
   L6          SYS1.MODGEN                                  MVSBR9
      SYSPRINT SYS04075.T124137.RA000.WYL#DIR.PRINT.H01     SCR100
      SYSTERM  GG$SLP.WYL#DIR.JOB03514.D0000101.?

    3668K allocated to Buffer Pool,         5173K would be required for this to be an In-Storage Assembly
    2854 Primary Input Records Read        20086 Library Records Read                347 Work File Reads
       0 ASMAOPT Records Read              14600 Primary Print Records Written       380 Work File Writes
       0 Punch Records Written                 0 ADATA Records Written
0Assembly Start Time: 12.41.39 Stop Time: 12.41.56 Processor Time: 00.00.06.3142
 Return Code 000
